00100000         2247745860001000029647040014       0180230000002544776 INSTITUTO DE SELECAO E TECNOLOBANCO DO BRASIL                         22103201701092000007003000000515122941PROCESSAMEN                                                 
00100011T0100020 20247745860001000029647040014       0180230000002544776 INSTITUTO DE SELECAO E TECNOLO                                                                                000000002103201700000000  000000000                      
0010001300001T 020180230000002544776 29647040544103600   7               2303201700000000000800000101981X                         0900000000000010000000000000000000000000000000000000000   0000000000000000000000000A9        170192964704     
0010001300002U 020000000000000000000000000000000000000000000000000000000000000000000000000000000000000000000000000000000000000000000000002103201700000000            000000000000000                              000                           
0010001300003T 020180230000002544776 29647040558808667   7               22032017000000000006000001000132                         0900000000000010500000000000000000000000000000000000000   0000000000000000000000000A9A4      170192964704     
0010001300004U 020000000000000000000000000000000000000000000000000000000000000000000000000000000000000000000000000000000000000000000000002003201700000000            000000000000000                              000                           
0010001300005T 020180230000002544776 29647040642938177   7               23032017000000000006000001000132                         0900000000000010000000000000000000000000000000000000000   0000000000000000000000000A9        170192964704     
0010001300006U 020000000000000000000000000000000000000000000000000000000000000000000000000000000000000000000000000000000000000000000000002103201700000000            000000000000000                              000                           
0010001300007T 020180230000002544776 29647040655029051   7               23032017000000000008000001000132                         0900000000000010000000000000000000000000000000000000000   0000000000000000000000000A9        170192964704     
0010001300008U 020000000000000000000000000000000000000000000000000000000000000000000000000000000000000000000000000000000000000000000000002103201700000000            000000000000000                              000                           
0010001300009T 020180230000002544776 29647040694211888   7               23032017000000000006000001016179                         0900000000000010000000000000000000000000000000000000000   0000000000000000000000000A9        170192964704     
0010001300010U 020000000000000000000000000000000000000000000000000000000000000000000000000000000000000000000000000000000000000000000000002103201700000000            000000000000000                              000                           
0010001300011T 020180230000002544776 29647040715253211   7               23032017000000000008000001018376                         0900000000000010500000000000000000000000000000000000000   0000000000000000000000000A9A4      170192964704     
0010001300012U 020000000000000000000000000000000000000000000000000000000000000000000000000000000000000000000000000000000000000000000000002103201700000000            000000000000000                              000                           
0010001300013T 020180230000002544776 29647040751649452   7               2303201700000000000600000101981X                         0900000000000010000000000000000000000000000000000000000   0000000000000000000000000A9        170192964704     
0010001300014U 020000000000000000000000000000000000000000000000000000000000000000000000000000000000000000000000000000000000000000000000002103201700000000            000000000000000                              000                           
0010001300015T 020180230000002544776 29647040752829556   7               23032017000000000006000001010286                         0900000000000010000000000000000000000000000000000000000   0000000000000000000000000A9        170192964704     
0010001300016U 020000000000000000000000000000000000000000000000000000000000000000000000000000000000000000000000000000000000000000000000002103201700000000            000000000000000                              000                           
0010001300017T 020180230000002544776 29647040795421605   7               23032017000000000006000001012467                         0900000000000010000000000000000000000000000000000000000   0000000000000000000000000A9        170192964704     
0010001300018U 020000000000000000000000000000000000000000000000000000000000000000000000000000000000000000000000000000000000000000000000002103201700000000            000000000000000                              000                           
0010001300019T 020180230000002544776 29647040795422779   7               23032017000000000006000001012467                         0900000000000010000000000000000000000000000000000000000   0000000000000000000000000A9        170192964704     
0010001300020U 020000000000000000000000000000000000000000000000000000000000000000000000000000000000000000000000000000000000000000000000002103201700000000            000000000000000                              000                           
0010001300021T 020180230000002544776 29647040800914923   7               23032017000000000006000001000132                         0900000000000010000000000000000000000000000000000000000   0000000000000000000000000A9        170192964704     
0010001300022U 020000000000000000000000000000000000000000000000000000000000000000000000000000000000000000000000000000000000000000000000002103201700000000            000000000000000                              000                           
0010001300023T 020180230000002544776 29647040834703259   7               23032017000000000006000001023655                         0900000000000010000000000000000000000000000000000000000   0000000000000000000000000A9        170192964704     
0010001300024U 020000000000000000000000000000000000000000000000000000000000000000000000000000000000000000000000000000000000000000000000002103201700000000            000000000000000                              000                           
0010001300025T 020180230000002544776 29647040850814027   7               2303201700000000000600000101138X                         0900000000000010500000000000000000000000000000000000000   0000000000000000000000000A9A4      170192964704     
0010001300026U 020000000000000000000000000000000000000000000000000000000000000000000000000000000000000000000000000000000000000000000000002103201700000000            000000000000000                              000                           
0010001300027T 020180230000002544776 29647040867212737   7               23032017000000000006000001000132                         0900000000000010000000000000000000000000000000000000000   0000000000000000000000000A9        170192964704     
0010001300028U 020000000000000000000000000000000000000000000000000000000000000000000000000000000000000000000000000000000000000000000000002103201700000000            000000000000000                              000                           
0010001300029T 020180230000002544776 29647040897632619   7               23032017000000000006000001018376                         0900000000000010000000000000000000000000000000000000000   0000000000000000000000000A9        170192964704     
0010001300030U 020000000000000000000000000000000000000000000000000000000000000000000000000000000000000000000000000000000000000000000000002103201700000000            000000000000000                              000                           
0010001300031T 020180230000002544776 29647040902657661   7               23032017000000000006000001016179                         0900000000000010000000000000000000000000000000000000000   0000000000000000000000000A9        170192964704     
0010001300032U 020000000000000000000000000000000000000000000000000000000000000000000000000000000000000000000000000000000000000000000000002103201700000000            000000000000000                              000                           
0010001300033T 020180230000002544776 29647040904741011   7               23032017000000000008000001016179                         0900000000000010000000000000000000000000000000000000000   0000000000000000000000000A9        170192964704     
0010001300034U 020000000000000000000000000000000000000000000000000000000000000000000000000000000000000000000000000000000000000000000000002103201700000000            000000000000000                              000                           
0010001300035T 020180230000002544776 29647040913250394   7               23032017000000000006000001033316                         0900000000000010000000000000000000000000000000000000000   0000000000000000000000000A9        170192964704     
0010001300036U 020000000000000000000000000000000000000000000000000000000000000000000000000000000000000000000000000000000000000000000000002103201700000000            000000000000000                              000                           
0010001300037T 020180230000002544776 29647040914418966   7               23032017000000000006000001007595                         0900000000000010000000000000000000000000000000000000000   0000000000000000000000000A9        170192964704     
0010001300038U 020000000000000000000000000000000000000000000000000000000000000000000000000000000000000000000000000000000000000000000000002103201700000000            000000000000000                              000                           
0010001300039T 020180230000002544776 29647040949312316   7               23032017000000000008000001020354                         0900000000000010000000000000000000000000000000000000000   0000000000000000000000000A9        170192964704     
0010001300040U 020000000000000000000000000000000000000000000000000000000000000000000000000000000000000000000000000000000000000000000000002103201700000000            000000000000000                              000                           
0010001300041T 020180230000002544776 29647040950909892   7               23032017000000000006000001000132                         0900000000000010000000000000000000000000000000000000000   0000000000000000000000000A9        170192964704     
0010001300042U 020000000000000000000000000000000000000000000000000000000000000000000000000000000000000000000000000000000000000000000000002103201700000000            000000000000000                              000                           
0010001300043T 020180230000002544776 29647040951720790   7               23032017000000000006000001018376                         0900000000000010000000000000000000000000000000000000000   0000000000000000000000000A9        170192964704     
0010001300044U 020000000000000000000000000000000000000000000000000000000000000000000000000000000000000000000000000000000000000000000000002103201700000000            000000000000000                              000                           
0010001300045T 020180230000002544776 29647040957539655   7               23032017000000000006000001018376                         0900000000000010000000000000000000000000000000000000000   0000000000000000000000000A9        170192964704     
0010001300046U 020000000000000000000000000000000000000000000000000000000000000000000000000000000000000000000000000000000000000000000000002103201700000000            000000000000000                              000                           
0010001300047T 020180230000002544776 29647040967203851   7               23032017000000000006000001028029                         0900000000000010000000000000000000000000000000000000000   0000000000000000000000000A9        170192964704     
0010001300048U 020000000000000000000000000000000000000000000000000000000000000000000000000000000000000000000000000000000000000000000000002103201700000000            000000000000000                              000                           
0010001300049T 020180230000002544776 29647040967213278   7               23032017000000000006000001028029                         0900000000000010000000000000000000000000000000000000000   0000000000000000000000000A9        170192964704     
0010001300050U 020000000000000000000000000000000000000000000000000000000000000000000000000000000000000000000000000000000000000000000000002103201700000000            000000000000000                              000                           
0010001300051T 020180230000002544776 29647040968004675   7               23032017000000000006000001016179                         0900000000000010500000000000000000000000000000000000000   0000000000000000000000000A9A4      170192964704     
0010001300052U 020000000000000000000000000000000000000000000000000000000000000000000000000000000000000000000000000000000000000000000000002103201700000000            000000000000000                              000                           
0010001300053T 020180230000002544776 29647040984014808   7               23032017000000000008000001003239                         0900000000000010000000000000000000000000000000000000000   0000000000000000000000000A9        170192964704     
0010001300054U 020000000000000000000000000000000000000000000000000000000000000000000000000000000000000000000000000000000000000000000000002103201700000000            000000000000000                              000                           
0010001300055T 020180230000002544776 29647040985228071   7               2303201700000000000800000103956X                         0900000000000010000000000000000000000000000000000000000   0000000000000000000000000A9        170192964704     
0010001300056U 020000000000000000000000000000000000000000000000000000000000000000000000000000000000000000000000000000000000000000000000002103201700000000            000000000000000                              000                           
0010001300057T 020180230000002544776 29647041020022926   7               23032017000000000008000001000213                         0900000000000010000000000000000000000000000000000000000   0000000000000000000000000A9        170192964704     
0010001300058U 020000000000000000000000000000000000000000000000000000000000000000000000000000000000000000000000000000000000000000000000002103201700000000            000000000000000                              000                           
0010001300059T 020180230000002544776 29647041024656534   7               23032017000000000006000001021911                         0900000000000010000000000000000000000000000000000000000   0000000000000000000000000A9        170192964704     
0010001300060U 020000000000000000000000000000000000000000000000000000000000000000000000000000000000000000000000000000000000000000000000002103201700000000            000000000000000                              000                           
0010001300061T 020180230000002544776 29647041048559695   7               23032017000000000006000001000132                         0900000000000010000000000000000000000000000000000000000   0000000000000000000000000A9        170192964704     
0010001300062U 020000000000000000000000000000000000000000000000000000000000000000000000000000000000000000000000000000000000000000000000002103201700000000            000000000000000                              000                           
0010001300063T 020180230000002544776 29647041051939285   7               23032017000000000006000001001511                         0900000000000010000000000000000000000000000000000000000   0000000000000000000000000A9        170192964704     
0010001300064U 020000000000000000000000000000000000000000000000000000000000000000000000000000000000000000000000000000000000000000000000002103201700000000            000000000000000                              000                           
0010001300065T 020180230000002544776 29647041068355322   7               23032017000000000008000001000132                         0900000000000010000000000000000000000000000000000000000   0000000000000000000000000A9        170192964704     
0010001300066U 020000000000000000000000000000000000000000000000000000000000000000000000000000000000000000000000000000000000000000000000002103201700000000            000000000000000                              000                           
0010001300067T 020180230000002544776 29647041069220655   7               23032017000000000006000001016179                         0900000000000010000000000000000000000000000000000000000   0000000000000000000000000A9        170192964704     
0010001300068U 020000000000000000000000000000000000000000000000000000000000000000000000000000000000000000000000000000000000000000000000002103201700000000            000000000000000                              000                           
0010001300069T 020180230000002544776 29647041086536042   7               23032017000000000008000001012467                         0900000000000010000000000000000000000000000000000000000   0000000000000000000000000A9        170192964704     
0010001300070U 020000000000000000000000000000000000000000000000000000000000000000000000000000000000000000000000000000000000000000000000002103201700000000            000000000000000                              000                           
0010001300071T 020180230000002544776 29647041087534242   7               23032017000000000006000001012467                         0900000000000010000000000000000000000000000000000000000   0000000000000000000000000A9        170192964704     
0010001300072U 020000000000000000000000000000000000000000000000000000000000000000000000000000000000000000000000000000000000000000000000002103201700000000            000000000000000                              000                           
0010001300073T 020180230000002544776 29647041087709336   7               23032017000000000006000001016179                         0900000000000010000000000000000000000000000000000000000   0000000000000000000000000A9        170192964704     
0010001300074U 020000000000000000000000000000000000000000000000000000000000000000000000000000000000000000000000000000000000000000000000002103201700000000            000000000000000                              000                           
0010001300075T 020180230000002544776 29647041088842461   7               23032017000000000006000001008214                         0900000000000010000000000000000000000000000000000000000   0000000000000000000000000A9        170192964704     
0010001300076U 020000000000000000000000000000000000000000000000000000000000000000000000000000000000000000000000000000000000000000000000002103201700000000            000000000000000                              000                           
0010001300077T 020180230000002544776 29647041094152403   7               23032017000000000006000001016179                         0900000000000010000000000000000000000000000000000000000   0000000000000000000000000A9        170192964704     
0010001300078U 020000000000000000000000000000000000000000000000000000000000000000000000000000000000000000000000000000000000000000000000002103201700000000            000000000000000                              000                           
0010001300079T 020180230000002544776 29647041100252562   7               23032017000000000006000001035041                         0900000000000010500000000000000000000000000000000000000   0000000000000000000000000A9A4      170192964704     
0010001300080U 020000000000000000000000000000000000000000000000000000000000000000000000000000000000000000000000000000000000000000000000002103201700000000            000000000000000                              000                           
0010001300081T 020180230000002544776 29647041107428535   7               23032017000000000006000001020354                         0900000000000010500000000000000000000000000000000000000   0000000000000000000000000A9A4      170192964704     
0010001300082U 020000000000000000000000000000000000000000000000000000000000000000000000000000000000000000000000000000000000000000000000002103201700000000            000000000000000                              000                           
0010001300083T 020180230000002544776 29647041109048831   7               23032017000000000006000001011371                         0900000000000010000000000000000000000000000000000000000   0000000000000000000000000A9        170192964704     
0010001300084U 020000000000000000000000000000000000000000000000000000000000000000000000000000000000000000000000000000000000000000000000002103201700000000            000000000000000                              000                           
0010001300085T 020180230000002544776 29647041116815245   7               23032017000000000006000001016179                         0900000000000010000000000000000000000000000000000000000   0000000000000000000000000A9        170192964704     
0010001300086U 020000000000000000000000000000000000000000000000000000000000000000000000000000000000000000000000000000000000000000000000002103201700000000            000000000000000                              000                           
0010001300087T 020180230000002544776 29647041140221675   7               23032017000000000006000001033316                         0900000000000010000000000000000000000000000000000000000   0000000000000000000000000A9        170192964704     
0010001300088U 020000000000000000000000000000000000000000000000000000000000000000000000000000000000000000000000000000000000000000000000002103201700000000            000000000000000                              000                           
0010001300089T 020180230000002544776 29647041144408985   7               23032017000000000006000001016179                         0900000000000010000000000000000000000000000000000000000   0000000000000000000000000A9        170192964704     
0010001300090U 020000000000000000000000000000000000000000000000000000000000000000000000000000000000000000000000000000000000000000000000002103201700000000            000000000000000                              000                           
0010001300091T 020180230000002544776 29647041208910350   7               23032017000000000006000001008249                         0900000000000010000000000000000000000000000000000000000   0000000000000000000000000A9        170192964704     
0010001300092U 020000000000000000000000000000000000000000000000000000000000000000000000000000000000000000000000000000000000000000000000002103201700000000            000000000000000                              000                           
0010001300093T 020180230000002544776 29647041208929565   7               23032017000000000006000001008249                         0900000000000010000000000000000000000000000000000000000   0000000000000000000000000A9        170192964704     
0010001300094U 020000000000000000000000000000000000000000000000000000000000000000000000000000000000000000000000000000000000000000000000002103201700000000            000000000000000                              000                           
0010001300095T 020180230000002544776 29647041210359204   7               23032017000000000006000001012467                         0900000000000010500000000000000000000000000000000000000   0000000000000000000000000A9A4      170192964704     
0010001300096U 020000000000000000000000000000000000000000000000000000000000000000000000000000000000000000000000000000000000000000000000002103201700000000            000000000000000                              000                           
0010001300097T 020180230000002544776 29647041217717817   7               23032017000000000006000001033316                         0900000000000010000000000000000000000000000000000000000   0000000000000000000000000A9        170192964704     
0010001300098U 020000000000000000000000000000000000000000000000000000000000000000000000000000000000000000000000000000000000000000000000002103201700000000            000000000000000                              000                           
0010001300099T 020180230000002544776 29647041230108392   7               23032017000000000006000001010421                         0900000000000010000000000000000000000000000000000000000   0000000000000000000000000A9        170192964704     
0010001300100U 020000000000000000000000000000000000000000000000000000000000000000000000000000000000000000000000000000000000000000000000002103201700000000            000000000000000                              000                           
0010001300101T 020180230000002544776 29647041241953607   7               23032017000000000006000001011568                         0900000000000010000000000000000000000000000000000000000   0000000000000000000000000A9        170192964704     
0010001300102U 020000000000000000000000000000000000000000000000000000000000000000000000000000000000000000000000000000000000000000000000002103201700000000            000000000000000                              000                           
0010001300103T 020180230000002544776 29647041244103361   7               23032017000000000006000001028029                         0900000000000010000000000000000000000000000000000000000   0000000000000000000000000A9        170192964704     
0010001300104U 020000000000000000000000000000000000000000000000000000000000000000000000000000000000000000000000000000000000000000000000002103201700000000            000000000000000                              000                           
0010001300105T 020180230000002544776 29647041245007499   7               23032017000000000006000001002461                         0900000000000010000000000000000000000000000000000000000   0000000000000000000000000A9        170192964704     
0010001300106U 020000000000000000000000000000000000000000000000000000000000000000000000000000000000000000000000000000000000000000000000002103201700000000            000000000000000                              000                           
0010001300107T 020180230000002544776 29647041246553953   7               23032017000000000006000001018376                         0900000000000010000000000000000000000000000000000000000   0000000000000000000000000A9        170192964704     
0010001300108U 020000000000000000000000000000000000000000000000000000000000000000000000000000000000000000000000000000000000000000000000002103201700000000            000000000000000                              000                           
0010001300109T 020180230000002544776 29647041254135528   7               23032017000000000006000001023655                         0900000000000010000000000000000000000000000000000000000   0000000000000000000000000A9        170192964704     
0010001300110U 020000000000000000000000000000000000000000000000000000000000000000000000000000000000000000000000000000000000000000000000002103201700000000            000000000000000                              000                           
0010001300111T 020180230000002544776 29647041256337170   7               23032017000000000006000001033316                         0900000000000010000000000000000000000000000000000000000   0000000000000000000000000A9        170192964704     
0010001300112U 020000000000000000000000000000000000000000000000000000000000000000000000000000000000000000000000000000000000000000000000002103201700000000            000000000000000                              000                           
0010001300113T 020180230000002544776 29647041267330583   7               23032017000000000006000001033316                         0900000000000010000000000000000000000000000000000000000   0000000000000000000000000A9        170192964704     
0010001300114U 020000000000000000000000000000000000000000000000000000000000000000000000000000000000000000000000000000000000000000000000002103201700000000            000000000000000                              000                           
0010001300115T 020180230000002544776 29647041269434198   7               23032017000000000006000001012467                         0900000000000010000000000000000000000000000000000000000   0000000000000000000000000A9        170192964704     
0010001300116U 020000000000000000000000000000000000000000000000000000000000000000000000000000000000000000000000000000000000000000000000002103201700000000            000000000000000                              000                           
0010001300117T 020180230000002544776 29647041285450300   7               23032017000000000006000001016179                         0900000000000010000000000000000000000000000000000000000   0000000000000000000000000A9        170192964704     
0010001300118U 020000000000000000000000000000000000000000000000000000000000000000000000000000000000000000000000000000000000000000000000002103201700000000            000000000000000                              000                           
0010001300119T 020180230000002544776 29647041288335093   7               23032017000000000006000001016179                         0900000000000010000000000000000000000000000000000000000   0000000000000000000000000A9        170192964704     
0010001300120U 020000000000000000000000000000000000000000000000000000000000000000000000000000000000000000000000000000000000000000000000002103201700000000            000000000000000                              000                           
0010001300121T 020180230000002544776 29647041290804838   7               23032017000000000006000001016179                         0900000000000010000000000000000000000000000000000000000   0000000000000000000000000A9        170192964704     
0010001300122U 020000000000000000000000000000000000000000000000000000000000000000000000000000000000000000000000000000000000000000000000002103201700000000            000000000000000                              000                           
0010001300123T 020180230000002544776 29647041291537979   7               23032017000000000006000001002321                         0900000000000010000000000000000000000000000000000000000   0000000000000000000000000A9        170192964704     
0010001300124U 020000000000000000000000000000000000000000000000000000000000000000000000000000000000000000000000000000000000000000000000002103201700000000            000000000000000                              000                           
0010001300125T 020180230000002544776 29647041292807279   7               23032017000000000008000001030864                         0900000000000010000000000000000000000000000000000000000   0000000000000000000000000A9        170192964704     
0010001300126U 020000000000000000000000000000000000000000000000000000000000000000000000000000000000000000000000000000000000000000000000002103201700000000            000000000000000                              000                           
0010001300127T 020180230000002544776 29647041302009957   7               22032017000000000006000001005428                         0900000000000010000000000000000000000000000000000000000   0000000000000000000000000A9        170192964704     
0010001300128U 020000000000000000000000000000000000000000000000000000000000000000000000000000000000000000000000000000000000000000000000002003201700000000            000000000000000                              000                           
0010001300129T 020180230000002544776 29647041304143385   7               23032017000000000006000001028029                         0900000000000010000000000000000000000000000000000000000   0000000000000000000000000A9        170192964704     
0010001300130U 020000000000000000000000000000000000000000000000000000000000000000000000000000000000000000000000000000000000000000000000002103201700000000            000000000000000                              000                           
0010001300131T 020180230000002544776 29647041307447813   7               23032017000000000006000001016179                         0900000000000010000000000000000000000000000000000000000   0000000000000000000000000A9        170192964704     
0010001300132U 020000000000000000000000000000000000000000000000000000000000000000000000000000000000000000000000000000000000000000000000002103201700000000            000000000000000                              000                           
0010001300133T 020180230000002544776 29647041309714468   7               23032017000000000006000001012629                         0900000000000010000000000000000000000000000000000000000   0000000000000000000000000A9        170192964704     
0010001300134U 020000000000000000000000000000000000000000000000000000000000000000000000000000000000000000000000000000000000000000000000002103201700000000            000000000000000                              000                           
0010001300135T 020180230000002544776 29647041316502524   7               23032017000000000006000001000132                         0900000000000010000000000000000000000000000000000000000   0000000000000000000000000A9        170192964704     
0010001300136U 020000000000000000000000000000000000000000000000000000000000000000000000000000000000000000000000000000000000000000000000002103201700000000            000000000000000                              000                           
0010001300137T 020180230000002544776 29647041324627055   7               22032017000000000006000001023655                         0900000000000010000000000000000000000000000000000000000   0000000000000000000000000A9        170192964704     
0010001300138U 020000000000000000000000000000000000000000000000000000000000000000000000000000000000000000000000000000000000000000000000002003201700000000            000000000000000                              000                           
0010001300139T 020180230000002544776 29647041324637559   7               22032017000000000006000001023655                         0900000000000010000000000000000000000000000000000000000   0000000000000000000000000A9        170192964704     
0010001300140U 020000000000000000000000000000000000000000000000000000000000000000000000000000000000000000000000000000000000000000000000002003201700000000            000000000000000                              000                           
0010001300141T 020180230000002544776 29647041324641911   7               22032017000000000006000001023655                         0900000000000010000000000000000000000000000000000000000   0000000000000000000000000A9        170192964704     
0010001300142U 020000000000000000000000000000000000000000000000000000000000000000000000000000000000000000000000000000000000000000000000002003201700000000            000000000000000                              000                           
0010001300143T 020180230000002544776 29647041324651738   7               22032017000000000006000001023655                         0900000000000010000000000000000000000000000000000000000   0000000000000000000000000A9        170192964704     
0010001300144U 020000000000000000000000000000000000000000000000000000000000000000000000000000000000000000000000000000000000000000000000002003201700000000            000000000000000                              000                           
0010001300145T 020180230000002544776 29647041324708345   7               23032017000000000006000001028029                         0900000000000010000000000000000000000000000000000000000   0000000000000000000000000A9        170192964704     
0010001300146U 020000000000000000000000000000000000000000000000000000000000000000000000000000000000000000000000000000000000000000000000002103201700000000            000000000000000                              000                           
0010001300147T 020180230000002544776 29647041327710396   7               23032017000000000006000001028029                         0900000000000010000000000000000000000000000000000000000   0000000000000000000000000A9        170192964704     
0010001300148U 020000000000000000000000000000000000000000000000000000000000000000000000000000000000000000000000000000000000000000000000002103201700000000            000000000000000                              000                           
0010001300149T 020180230000002544776 29647041330324461   7               23032017000000000006000001033316                         0900000000000010000000000000000000000000000000000000000   0000000000000000000000000A9        170192964704     
0010001300150U 020000000000000000000000000000000000000000000000000000000000000000000000000000000000000000000000000000000000000000000000002103201700000000            000000000000000                              000                           
0010001300151T 020180230000002544776 29647041340604879   7               23032017000000000006000001002003                         0900000000000010000000000000000000000000000000000000000   0000000000000000000000000A9        170192964704     
0010001300152U 020000000000000000000000000000000000000000000000000000000000000000000000000000000000000000000000000000000000000000000000002103201700000000            000000000000000                              000                           
0010001300153T 020180230000002544776 29647041340606970   7               23032017000000000006000001002003                         0900000000000010000000000000000000000000000000000000000   0000000000000000000000000A9        170192964704     
0010001300154U 020000000000000000000000000000000000000000000000000000000000000000000000000000000000000000000000000000000000000000000000002103201700000000            000000000000000                              000                           
0010001300155T 020180230000002544776 29647041340607018   7               23032017000000000006000001002003                         0900000000000010000000000000000000000000000000000000000   0000000000000000000000000A9        170192964704     
0010001300156U 020000000000000000000000000000000000000000000000000000000000000000000000000000000000000000000000000000000000000000000000002103201700000000            000000000000000                              000                           
0010001300157T 020180230000002544776 29647041340615898   7               23032017000000000006000001002003                         0900000000000010000000000000000000000000000000000000000   0000000000000000000000000A9        170192964704     
0010001300158U 020000000000000000000000000000000000000000000000000000000000000000000000000000000000000000000000000000000000000000000000002103201700000000            000000000000000                              000                           
0010001300159T 020180230000002544776 29647041340626591   7               23032017000000000006000001002003                         0900000000000010000000000000000000000000000000000000000   0000000000000000000000000A9        170192964704     
0010001300160U 020000000000000000000000000000000000000000000000000000000000000000000000000000000000000000000000000000000000000000000000002103201700000000            000000000000000                              000                           
0010001300161T 020180230000002544776 29647041340627077   7               23032017000000000006000001002003                         0900000000000010000000000000000000000000000000000000000   0000000000000000000000000A9        170192964704     
0010001300162U 020000000000000000000000000000000000000000000000000000000000000000000000000000000000000000000000000000000000000000000000002103201700000000            000000000000000                              000                           
0010001300163T 020180230000002544776 29647041340633558   7               23032017000000000006000001002003                         0900000000000010000000000000000000000000000000000000000   0000000000000000000000000A9        170192964704     
0010001300164U 020000000000000000000000000000000000000000000000000000000000000000000000000000000000000000000000000000000000000000000000002103201700000000            000000000000000                              000                           
0010001300165T 020180230000002544776 29647041341343399   7               23032017000000000008000001028029                         0900000000000010000000000000000000000000000000000000000   0000000000000000000000000A9        170192964704     
0010001300166U 020000000000000000000000000000000000000000000000000000000000000000000000000000000000000000000000000000000000000000000000002103201700000000            000000000000000                              000                           
0010001300167T 020180230000002544776 29647041347103262   7               23032017000000000006000001000132                         0900000000000010000000000000000000000000000000000000000   0000000000000000000000000A9        170192964704     
0010001300168U 020000000000000000000000000000000000000000000000000000000000000000000000000000000000000000000000000000000000000000000000002103201700000000            000000000000000                              000                           
0010001300169T 020180230000002544776 29647041353121636   7               2303201700000000000600000100233X                         0900000000000010000000000000000000000000000000000000000   0000000000000000000000000A9        170192964704     
0010001300170U 020000000000000000000000000000000000000000000000000000000000000000000000000000000000000000000000000000000000000000000000002103201700000000            000000000000000                              000                           
0010001300171T 020180230000002544776 29647041353833529   7               23032017000000000006000001007013                         0900000000000010000000000000000000000000000000000000000   0000000000000000000000000A9        170192964704     
0010001300172U 020000000000000000000000000000000000000000000000000000000000000000000000000000000000000000000000000000000000000000000000002103201700000000            000000000000000                              000                           
0010001300173T 020180230000002544776 29647041357403576   7               23032017000000000006000001000132                         0900000000000010000000000000000000000000000000000000000   0000000000000000000000000A9        170192964704     
0010001300174U 020000000000000000000000000000000000000000000000000000000000000000000000000000000000000000000000000000000000000000000000002103201700000000            000000000000000                              000                           
0010001300175T 020180230000002544776 29647041362955265   7               23032017000000000008000001020354                         0900000000000010000000000000000000000000000000000000000   0000000000000000000000000A9        170192964704     
0010001300176U 020000000000000000000000000000000000000000000000000000000000000000000000000000000000000000000000000000000000000000000000002103201700000000            000000000000000                              000                           
0010001300177T 020180230000002544776 29647041372307696   7               23032017000000000006000001028029                         0900000000000010000000000000000000000000000000000000000   0000000000000000000000000A9        170192964704     
0010001300178U 020000000000000000000000000000000000000000000000000000000000000000000000000000000000000000000000000000000000000000000000002103201700000000            000000000000000                              000                           
0010001300179T 020180230000002544776 29647041377828771   7               23032017000000000008000001012467                         0900000000000010000000000000000000000000000000000000000   0000000000000000000000000A9        170192964704     
0010001300180U 020000000000000000000000000000000000000000000000000000000000000000000000000000000000000000000000000000000000000000000000002103201700000000            000000000000000                              000                           
0010001300181T 020180230000002544776 29647041377836200   7               23032017000000000008000001012467                         0900000000000010000000000000000000000000000000000000000   0000000000000000000000000A9        170192964704     
0010001300182U 020000000000000000000000000000000000000000000000000000000000000000000000000000000000000000000000000000000000000000000000002103201700000000            000000000000000                              000                           
0010001300183T 020180230000002544776 29647041378415282   7               22032017000000000006000001018376                         0900000000000010000000000000000000000000000000000000000   0000000000000000000000000A9        170192964704     
0010001300184U 020000000000000000000000000000000000000000000000000000000000000000000000000000000000000000000000000000000000000000000000002003201700000000            000000000000000                              000                           
0010001300185T 020180230000002544776 29647041378526830   7               22032017000000000006000001000132                         0900000000000010000000000000000000000000000000000000000   0000000000000000000000000A9        170192964704     
0010001300186U 020000000000000000000000000000000000000000000000000000000000000000000000000000000000000000000000000000000000000000000000002003201700000000            000000000000000                              000                           
0010001300187T 020180230000002544776 29647041378655909   7               22032017000000000006000001011096                         0900000000000010000000000000000000000000000000000000000   0000000000000000000000000A9        170192964704     
0010001300188U 020000000000000000000000000000000000000000000000000000000000000000000000000000000000000000000000000000000000000000000000002003201700000000            000000000000000                              000                           
0010001300189T 020180230000002544776 29647041378706803   7               22032017000000000008000001018376                         0900000000000010000000000000000000000000000000000000000   0000000000000000000000000A9        170192964704     
0010001300190U 020000000000000000000000000000000000000000000000000000000000000000000000000000000000000000000000000000000000000000000000002003201700000000            000000000000000                              000                           
0010001300191T 020180230000002544776 29647041378728593   7               22032017000000000008000001018376                         0900000000000010000000000000000000000000000000000000000   0000000000000000000000000A9        170192964704     
0010001300192U 020000000000000000000000000000000000000000000000000000000000000000000000000000000000000000000000000000000000000000000000002003201700000000            000000000000000                              000                           
0010001300193T 020180230000002544776 29647041378749224   7               22032017000000000008000001018376                         0900000000000010000000000000000000000000000000000000000   0000000000000000000000000A9        170192964704     
0010001300194U 020000000000000000000000000000000000000000000000000000000000000000000000000000000000000000000000000000000000000000000000002003201700000000            000000000000000                              000                           
0010001300195T 020180230000002544776 29647041378943476   7               22032017000000000006000001000132                         0900000000000010000000000000000000000000000000000000000   0000000000000000000000000A9        170192964704     
0010001300196U 020000000000000000000000000000000000000000000000000000000000000000000000000000000000000000000000000000000000000000000000002003201700000000            000000000000000                              000                           
0010001300197T 020180230000002544776 29647041379107354   7               22032017000000000006000001028029                         0900000000000010000000000000000000000000000000000000000   0000000000000000000000000A9        170192964704     
0010001300198U 020000000000000000000000000000000000000000000000000000000000000000000000000000000000000000000000000000000000000000000000002003201700000000            000000000000000                              000                           
0010001300199T 020180230000002544776 29647041379212314   7               22032017000000000006000001022748                         0900000000000010000000000000000000000000000000000000000   0000000000000000000000000A9        170192964704     
0010001300200U 020000000000000000000000000000000000000000000000000000000000000000000000000000000000000000000000000000000000000000000000002003201700000000            000000000000000                              000                           
0010001300201T 020180230000002544776 29647041379303805   7               23032017000000000006000001008214                         0900000000000010500000000000000000000000000000000000000   0000000000000000000000000A9A4      170192964704     
0010001300202U 020000000000000000000000000000000000000000000000000000000000000000000000000000000000000000000000000000000000000000000000002103201700000000            000000000000000                              000                           
0010001300203T 020180230000002544776 29647041379326768   7               23032017000000000006000001008214                         0900000000000010500000000000000000000000000000000000000   0000000000000000000000000A9A4      170192964704     
0010001300204U 020000000000000000000000000000000000000000000000000000000000000000000000000000000000000000000000000000000000000000000000002103201700000000            000000000000000                              000                           
0010001300205T 020180230000002544776 29647041379328805   7               23032017000000000006000001008214                         0900000000000010500000000000000000000000000000000000000   0000000000000000000000000A9A4      170192964704     
0010001300206U 020000000000000000000000000000000000000000000000000000000000000000000000000000000000000000000000000000000000000000000000002103201700000000            000000000000000                              000                           
0010001300207T 020180230000002544776 29647041379555029   7               23032017000000000006000001000132                         0900000000000010000000000000000000000000000000000000000   0000000000000000000000000A9        170192964704     
0010001300208U 020000000000000000000000000000000000000000000000000000000000000000000000000000000000000000000000000000000000000000000000002103201700000000            000000000000000                              000                           
0010001300209T 020180230000002544776 29647041379614190   7               23032017000000000006000001028029                         0900000000000010000000000000000000000000000000000000000   0000000000000000000000000A9        170192964704     
0010001300210U 020000000000000000000000000000000000000000000000000000000000000000000000000000000000000000000000000000000000000000000000002103201700000000            000000000000000                              000                           
0010001300211T 020180230000002544776 29647041379943106   7               23032017000000000006000001008214                         0900000000000010000000000000000000000000000000000000000   0000000000000000000000000A9        170192964704     
0010001300212U 020000000000000000000000000000000000000000000000000000000000000000000000000000000000000000000000000000000000000000000000002103201700000000            000000000000000                              000                           
0010001300213T 020180230000002544776 29647041379957907   7               23032017000000000006000001008214                         0900000000000010000000000000000000000000000000000000000   0000000000000000000000000A9        170192964704     
0010001300214U 020000000000000000000000000000000000000000000000000000000000000000000000000000000000000000000000000000000000000000000000002103201700000000            000000000000000                              000                           
0010001300215T 020180230000002544776 29647041380041064   7               23032017000000000006000001028029                         0900000000000010000000000000000000000000000000000000000   0000000000000000000000000A9        170192964704     
0010001300216U 020000000000000000000000000000000000000000000000000000000000000000000000000000000000000000000000000000000000000000000000002103201700000000            000000000000000                              000                           
0010001300217T 020180230000002544776 29647041380149861   7               23032017000000000008000001035033                         0900000000000010000000000000000000000000000000000000000   0000000000000000000000000A9        170192964704     
0010001300218U 020000000000000000000000000000000000000000000000000000000000000000000000000000000000000000000000000000000000000000000000002103201700000000            000000000000000                              000                           
0010001300219T 020180230000002544776 29647041380221596   7               23032017000000000006000001023264                         0900000000000010000000000000000000000000000000000000000   0000000000000000000000000A9        170192964704     
0010001300220U 020000000000000000000000000000000000000000000000000000000000000000000000000000000000000000000000000000000000000000000000002103201700000000            000000000000000                              000                           
0010001300221T 020180230000002544776 29647041380435912   7               2303201700000000000600000101981X                         0900000000000010000000000000000000000000000000000000000   0000000000000000000000000A9        170192964704     
0010001300222U 020000000000000000000000000000000000000000000000000000000000000000000000000000000000000000000000000000000000000000000000002103201700000000            000000000000000                              000                           
0010001300223T 020180230000002544776 29647041380602339   7               23032017000000000008000001023655                         0900000000000010000000000000000000000000000000000000000   0000000000000000000000000A9        170192964704     
0010001300224U 020000000000000000000000000000000000000000000000000000000000000000000000000000000000000000000000000000000000000000000000002103201700000000            000000000000000                              000                           
0010001300225T 020180230000002544776 29647041380607163   7               23032017000000000008000001023655                         0900000000000010000000000000000000000000000000000000000   0000000000000000000000000A9        170192964704     
0010001300226U 020000000000000000000000000000000000000000000000000000000000000000000000000000000000000000000000000000000000000000000000002103201700000000            000000000000000                              000                           
0010001300227T 020180230000002544776 29647041380607608   7               23032017000000000008000001023655                         0900000000000010000000000000000000000000000000000000000   0000000000000000000000000A9        170192964704     
0010001300228U 020000000000000000000000000000000000000000000000000000000000000000000000000000000000000000000000000000000000000000000000002103201700000000            000000000000000                              000                           
0010001300229T 020180230000002544776 29647041380654415   7               23032017000000000008000001023655                         0900000000000010000000000000000000000000000000000000000   0000000000000000000000000A9        170192964704     
0010001300230U 020000000000000000000000000000000000000000000000000000000000000000000000000000000000000000000000000000000000000000000000002103201700000000            000000000000000                              000                           
0010001300231T 020180230000002544776 29647041380751193   7               23032017000000000008000001028029                         0900000000000010000000000000000000000000000000000000000   0000000000000000000000000A9        170192964704     
0010001300232U 020000000000000000000000000000000000000000000000000000000000000000000000000000000000000000000000000000000000000000000000002103201700000000            000000000000000                              000                           
0010001300233T 020180230000002544776 29647041380803418   7               23032017000000000006000001002461                         0900000000000010000000000000000000000000000000000000000   0000000000000000000000000A9        170192964704     
0010001300234U 020000000000000000000000000000000000000000000000000000000000000000000000000000000000000000000000000000000000000000000000002103201700000000            000000000000000                              000                           
0010001300235T 020180230000002544776 29647041380829335   7               23032017000000000006000001002461                         0900000000000010000000000000000000000000000000000000000   0000000000000000000000000A9        170192964704     
0010001300236U 020000000000000000000000000000000000000000000000000000000000000000000000000000000000000000000000000000000000000000000000002103201700000000            000000000000000                              000                           
0010001300237T 020180230000002544776 29647041380843348   7               23032017000000000006000001002461                         0900000000000010000000000000000000000000000000000000000   0000000000000000000000000A9        170192964704     
0010001300238U 020000000000000000000000000000000000000000000000000000000000000000000000000000000000000000000000000000000000000000000000002103201700000000            000000000000000                              000                           
0010001300239T 020180230000002544776 29647041380919401   7               23032017000000000006000001028029                         0900000000000010000000000000000000000000000000000000000   0000000000000000000000000A9        170192964704     
0010001300240U 020000000000000000000000000000000000000000000000000000000000000000000000000000000000000000000000000000000000000000000000002103201700000000            000000000000000                              000                           
0010001300241T 020180230000002544776 29647041381014369   7               23032017000000000006000001028029                         0900000000000010000000000000000000000000000000000000000   0000000000000000000000000A9        170192964704     
0010001300242U 020000000000000000000000000000000000000000000000000000000000000000000000000000000000000000000000000000000000000000000000002103201700000000            000000000000000                              000                           
0010001300243T 020180230000002544776 29647041381121618   7               23032017000000000008000001007145                         0900000000000010000000000000000000000000000000000000000   0000000000000000000000000A9        170192964704     
0010001300244U 020000000000000000000000000000000000000000000000000000000000000000000000000000000000000000000000000000000000000000000000002103201700000000            000000000000000                              000                           
0010001300245T 020180230000002544776 29647041381216787   7               23032017000000000008000001028029                         0900000000000010500000000000000000000000000000000000000   0000000000000000000000000A9A4      170192964704     
0010001300246U 020000000000000000000000000000000000000000000000000000000000000000000000000000000000000000000000000000000000000000000000002103201700000000            000000000000000                              000                           
0010001300247T 020180230000002544776 29647041381317495   7               23032017000000000008000001028029                         0900000000000010500000000000000000000000000000000000000   0000000000000000000000000A9A4      170192964704     
0010001300248U 020000000000000000000000000000000000000000000000000000000000000000000000000000000000000000000000000000000000000000000000002103201700000000            000000000000000                              000                           
0010001300249T 020180230000002544776 29647041381726068   7               23032017000000000006000001020354                         0900000000000010000000000000000000000000000000000000000   0000000000000000000000000A9        170192964704     
0010001300250U 020000000000000000000000000000000000000000000000000000000000000000000000000000000000000000000000000000000000000000000000002103201700000000            000000000000000                              000                           
0010001300251T 020180230000002544776 29647041381836341   7               2303201700000000000600000101138X                         0900000000000010000000000000000000000000000000000000000   0000000000000000000000000A9        170192964704     
0010001300252U 020000000000000000000000000000000000000000000000000000000000000000000000000000000000000000000000000000000000000000000000002103201700000000            000000000000000                              000                           
0010001300253T 020180230000002544776 29647041382044450   7               23032017000000000006000001011533                         0900000000000010000000000000000000000000000000000000000   0000000000000000000000000A9        170192964704     
0010001300254U 020000000000000000000000000000000000000000000000000000000000000000000000000000000000000000000000000000000000000000000000002103201700000000            000000000000000                              000                           
0010001300255T 020180230000002544776 29647041382152042   7               2303201700000000000600000100023X                         0900000000000010000000000000000000000000000000000000000   0000000000000000000000000A9        170192964704     
0010001300256U 020000000000000000000000000000000000000000000000000000000000000000000000000000000000000000000000000000000000000000000000002103201700000000            000000000000000                              000                           
0010001300257T 020180230000002544776 29647041382206161   7               23032017000000000008000001018376                         0900000000000010500000000000000000000000000000000000000   0000000000000000000000000A9A4      170192964704     
0010001300258U 020000000000000000000000000000000000000000000000000000000000000000000000000000000000000000000000000000000000000000000000002103201700000000            000000000000000                              000                           
0010001300259T 020180230000002544776 29647041382229167   7               23032017000000000008000001018376                         0900000000000010500000000000000000000000000000000000000   0000000000000000000000000A9A4      170192964704     
0010001300260U 020000000000000000000000000000000000000000000000000000000000000000000000000000000000000000000000000000000000000000000000002103201700000000            000000000000000                              000                           
0010001300261T 020180230000002544776 29647041382231491   7               23032017000000000008000001018376                         0900000000000010500000000000000000000000000000000000000   0000000000000000000000000A9A4      170192964704     
0010001300262U 020000000000000000000000000000000000000000000000000000000000000000000000000000000000000000000000000000000000000000000000002103201700000000            000000000000000                              000                           
0010001300263T 020180230000002544776 29647041382401942   7               23032017000000000006000001000132                         0900000000000010000000000000000000000000000000000000000   0000000000000000000000000A9        170192964704     
0010001300264U 020000000000000000000000000000000000000000000000000000000000000000000000000000000000000000000000000000000000000000000000002103201700000000            000000000000000                              000                           
0010001300265T 020180230000002544776 29647041382623879   7               23032017000000000006000001000132                         0900000000000010000000000000000000000000000000000000000   0000000000000000000000000A9        170192964704     
0010001300266U 020000000000000000000000000000000000000000000000000000000000000000000000000000000000000000000000000000000000000000000000002103201700000000            000000000000000                              000                           
0010001300267T 020180230000002544776 29647041382854922   7               23032017000000000006000001012467                         0900000000000010500000000000000000000000000000000000000   0000000000000000000000000A9A4      170192964704     
0010001300268U 020000000000000000000000000000000000000000000000000000000000000000000000000000000000000000000000000000000000000000000000002103201700000000            000000000000000                              000                           
0010001300269T 020180230000002544776 29647041382922681   7               23032017000000000006000001028029                         0900000000000010500000000000000000000000000000000000000   0000000000000000000000000A9A4      170192964704     
0010001300270U 020000000000000000000000000000000000000000000000000000000000000000000000000000000000000000000000000000000000000000000000002103201700000000            000000000000000                              000                           
0010001300271T 020180230000002544776 29647041383124985   7               23032017000000000006000001016179                         0900000000000010000000000000000000000000000000000000000   0000000000000000000000000A9        170192964704     
0010001300272U 020000000000000000000000000000000000000000000000000000000000000000000000000000000000000000000000000000000000000000000000002103201700000000            000000000000000                              000                           
0010001300273T 020180230000002544776 29647041383236769   7               23032017000000000006000001018376                         0900000000000010000000000000000000000000000000000000000   0000000000000000000000000A9        170192964704     
0010001300274U 020000000000000000000000000000000000000000000000000000000000000000000000000000000000000000000000000000000000000000000000002103201700000000            000000000000000                              000                           
0010001300275T 020180230000002544776 29647041383301562   7               23032017000000000008000001028029                         0900000000000010000000000000000000000000000000000000000   0000000000000000000000000A9        170192964704     
0010001300276U 020000000000000000000000000000000000000000000000000000000000000000000000000000000000000000000000000000000000000000000000002103201700000000            000000000000000                              000                           
0010001300277T 020180230000002544776 29647041383341818   7               23032017000000000008000001028029                         0900000000000010000000000000000000000000000000000000000   0000000000000000000000000A9        170192964704     
0010001300278U 020000000000000000000000000000000000000000000000000000000000000000000000000000000000000000000000000000000000000000000000002103201700000000            000000000000000                              000                           
0010001300279T 020180230000002544776 29647041383445366   7               23032017000000000006000001025429                         0900000000000010000000000000000000000000000000000000000   0000000000000000000000000A9        170192964704     
0010001300280U 020000000000000000000000000000000000000000000000000000000000000000000000000000000000000000000000000000000000000000000000002103201700000000            000000000000000                              000                           
0010001300281T 020180230000002544776 29647041383519051   7               23032017000000000006000001020354                         0900000000000010000000000000000000000000000000000000000   0000000000000000000000000A9        170192964704     
0010001300282U 020000000000000000000000000000000000000000000000000000000000000000000000000000000000000000000000000000000000000000000000002103201700000000            000000000000000                              000                           
0010001300283T 020180230000002544776 29647041383746155   7               23032017000000000006000001000132                         0900000000000010000000000000000000000000000000000000000   0000000000000000000000000A9        170192964704     
0010001300284U 020000000000000000000000000000000000000000000000000000000000000000000000000000000000000000000000000000000000000000000000002103201700000000            000000000000000                              000                           
0010001300285T 020180230000002544776 29647041383803657   7               23032017000000000008000001008214                         0900000000000010000000000000000000000000000000000000000   0000000000000000000000000A9        170192964704     
0010001300286U 020000000000000000000000000000000000000000000000000000000000000000000000000000000000000000000000000000000000000000000000002103201700000000            000000000000000                              000                           
0010001300287T 020180230000002544776 29647041383936601   7               23032017000000000006000001000132                         0900000000000010000000000000000000000000000000000000000   0000000000000000000000000A9        170192964704     
0010001300288U 020000000000000000000000000000000000000000000000000000000000000000000000000000000000000000000000000000000000000000000000002103201700000000            000000000000000                              000                           
0010001300289T 020180230000002544776 29647041384027171   7               23032017000000000006000001028029                         0900000000000010000000000000000000000000000000000000000   0000000000000000000000000A9        170192964704     
0010001300290U 020000000000000000000000000000000000000000000000000000000000000000000000000000000000000000000000000000000000000000000000002103201700000000            000000000000000                              000                           
0010001300291T 020180230000002544776 29647041384358585   7               23032017000000000006000001000132                         0900000000000010000000000000000000000000000000000000000   0000000000000000000000000A9        170192964704     
0010001300292U 020000000000000000000000000000000000000000000000000000000000000000000000000000000000000000000000000000000000000000000000002103201700000000            000000000000000                              000                           
0010001300293T 020180230000002544776 29647041384454677   7               23032017000000000006000001012467                         0900000000000010000000000000000000000000000000000000000   0000000000000000000000000A9        170192964704     
0010001300294U 020000000000000000000000000000000000000000000000000000000000000000000000000000000000000000000000000000000000000000000000002103201700000000            000000000000000                              000                           
0010001300295T 020180230000002544776 29647041384458076   7               23032017000000000006000001012467                         0900000000000010000000000000000000000000000000000000000   0000000000000000000000000A9        170192964704     
0010001300296U 020000000000000000000000000000000000000000000000000000000000000000000000000000000000000000000000000000000000000000000000002103201700000000            000000000000000                              000                           
0010001300297T 020180230000002544776 29647041384533833   7               23032017000000000006000001028029                         0900000000000010000000000000000000000000000000000000000   0000000000000000000000000A9        170192964704     
0010001300298U 020000000000000000000000000000000000000000000000000000000000000000000000000000000000000000000000000000000000000000000000002103201700000000            000000000000000                              000                           
0010001300299T 020180230000002544776 29647041384557374   7               23032017000000000006000001028029                         0900000000000010000000000000000000000000000000000000000   0000000000000000000000000A9        170192964704     
0010001300300U 020000000000000000000000000000000000000000000000000000000000000000000000000000000000000000000000000000000000000000000000002103201700000000            000000000000000                              000                           
0010001300301T 020180230000002544776 29647041384909952   7               23032017000000000006000001013617                         0900000000000010000000000000000000000000000000000000000   0000000000000000000000000A9        170192964704     
0010001300302U 020000000000000000000000000000000000000000000000000000000000000000000000000000000000000000000000000000000000000000000000002103201700000000            000000000000000                              000                           
0010001300303T 020180230000002544776 29647041385101623   7               23032017000000000006000001001368                         0900000000000010000000000000000000000000000000000000000   0000000000000000000000000A9        170192964704     
0010001300304U 020000000000000000000000000000000000000000000000000000000000000000000000000000000000000000000000000000000000000000000000002103201700000000            000000000000000                              000                           
0010001300305T 020180230000002544776 29647041385235929   7               23032017000000000006000001008214                         0900000000000010000000000000000000000000000000000000000   0000000000000000000000000A9        170192964704     
0010001300306U 020000000000000000000000000000000000000000000000000000000000000000000000000000000000000000000000000000000000000000000000002103201700000000            000000000000000                              000                           
0010001300307T 020180230000002544776 29647041385333881   7               23032017000000000006000001001155                         0900000000000010000000000000000000000000000000000000000   0000000000000000000000000A9        170192964704     
0010001300308U 020000000000000000000000000000000000000000000000000000000000000000000000000000000000000000000000000000000000000000000000002103201700000000            000000000000000                              000                           
0010001300309T 020180230000002544776 29647041385418919   7               23032017000000000006000001016179                         0900000000000010000000000000000000000000000000000000000   0000000000000000000000000A9        170192964704     
0010001300310U 020000000000000000000000000000000000000000000000000000000000000000000000000000000000000000000000000000000000000000000000002103201700000000            000000000000000                              000                           
0010001300311T 020180230000002544776 29647041385742035   7               23032017000000000006000001028029                         0900000000000010000000000000000000000000000000000000000   0000000000000000000000000A9        170192964704     
0010001300312U 020000000000000000000000000000000000000000000000000000000000000000000000000000000000000000000000000000000000000000000000002103201700000000            000000000000000                              000                           
0010001300313T 020180230000002544776 29647041385805631   7               23032017000000000008000001000132                         0900000000000010000000000000000000000000000000000000000   0000000000000000000000000A9        170192964704     
0010001300314U 020000000000000000000000000000000000000000000000000000000000000000000000000000000000000000000000000000000000000000000000002103201700000000            000000000000000                              000                           
0010001300315T 020180230000002544776 29647041385918613   7               23032017000000000006000001012467                         0900000000000010000000000000000000000000000000000000000   0000000000000000000000000A9        170192964704     
0010001300316U 020000000000000000000000000000000000000000000000000000000000000000000000000000000000000000000000000000000000000000000000002103201700000000            000000000000000                              000                           
0010001300317T 020180230000002544776 29647041386029510   7               23032017000000000006000001000132                         0900000000000010000000000000000000000000000000000000000   0000000000000000000000000A9        170192964704     
0010001300318U 020000000000000000000000000000000000000000000000000000000000000000000000000000000000000000000000000000000000000000000000002103201700000000            000000000000000                              000                           
0010001300319T 020180230000002544776 29647041386139836   7               23032017000000000006000001016810                         0900000000000010000000000000000000000000000000000000000   0000000000000000000000000A9        170192964704     
0010001300320U 020000000000000000000000000000000000000000000000000000000000000000000000000000000000000000000000000000000000000000000000002103201700000000            000000000000000                              000                           
0010001300321T 020180230000002544776 29647041386317368   7               23032017000000000006000001033316                         0900000000000010000000000000000000000000000000000000000   0000000000000000000000000A9        170192964704     
0010001300322U 020000000000000000000000000000000000000000000000000000000000000000000000000000000000000000000000000000000000000000000000002103201700000000            000000000000000                              000                           
0010001300323T 020180230000002544776 29647041386424968   7               23032017000000000006000001028029                         0900000000000010000000000000000000000000000000000000000   0000000000000000000000000A9        170192964704     
0010001300324U 020000000000000000000000000000000000000000000000000000000000000000000000000000000000000000000000000000000000000000000000002103201700000000            000000000000000                              000                           
0010001300325T 020180230000002544776 29647041386553392   7               23032017000000000006000001028029                         0900000000000010000000000000000000000000000000000000000   0000000000000000000000000A9        170192964704     
0010001300326U 020000000000000000000000000000000000000000000000000000000000000000000000000000000000000000000000000000000000000000000000002103201700000000            000000000000000                              000                           
0010001300327T 020180230000002544776 29647041386629794   7               23032017000000000006000001009636                         0900000000000010500000000000000000000000000000000000000   0000000000000000000000000A9A4      170192964704     
0010001300328U 020000000000000000000000000000000000000000000000000000000000000000000000000000000000000000000000000000000000000000000000002103201700000000            000000000000000                              000                           
0010001300329T 020180230000002544776 29647041386702127   7               23032017000000000006000001016179                         0900000000000010000000000000000000000000000000000000000   0000000000000000000000000A9        170192964704     
0010001300330U 020000000000000000000000000000000000000000000000000000000000000000000000000000000000000000000000000000000000000000000000002103201700000000            000000000000000                              000                           
0010001300331T 020180230000002544776 29647041387107724   7               2303201700000000000600000101365X                         0900000000000010000000000000000000000000000000000000000   0000000000000000000000000A9        170192964704     
0010001300332U 020000000000000000000000000000000000000000000000000000000000000000000000000000000000000000000000000000000000000000000000002103201700000000            000000000000000                              000                           
0010001300333T 020180230000002544776 29647041387131940   7               2303201700000000000600000101365X                         0900000000000010000000000000000000000000000000000000000   0000000000000000000000000A9        170192964704     
0010001300334U 020000000000000000000000000000000000000000000000000000000000000000000000000000000000000000000000000000000000000000000000002103201700000000            000000000000000                              000                           
0010001300335T 020180230000002544776 29647041387221074   7               2303201700000000000600000102547X                         0900000000000010000000000000000000000000000000000000000   0000000000000000000000000A9        170192964704     
0010001300336U 020000000000000000000000000000000000000000000000000000000000000000000000000000000000000000000000000000000000000000000000002103201700000000            000000000000000                              000                           
0010001300337T 020180230000002544776 29647041387301639   7               23032017000000000008000001008214                         0900000000000010500000000000000000000000000000000000000   0000000000000000000000000A9A4      170192964704     
0010001300338U 020000000000000000000000000000000000000000000000000000000000000000000000000000000000000000000000000000000000000000000000002103201700000000            000000000000000                              000                           
0010001300339T 020180230000002544776 29647041387307541   7               23032017000000000008000001008214                         0900000000000010500000000000000000000000000000000000000   0000000000000000000000000A9A4      170192964704     
0010001300340U 020000000000000000000000000000000000000000000000000000000000000000000000000000000000000000000000000000000000000000000000002103201700000000            000000000000000                              000                           
0010001300341T 020180230000002544776 29647041387314064   7               23032017000000000008000001008214                         0900000000000010500000000000000000000000000000000000000   0000000000000000000000000A9A4      170192964704     
0010001300342U 020000000000000000000000000000000000000000000000000000000000000000000000000000000000000000000000000000000000000000000000002103201700000000            000000000000000                              000                           
0010001300343T 020180230000002544776 29647041387420615   7               23032017000000000006000001016179                         0900000000000010000000000000000000000000000000000000000   0000000000000000000000000A9        170192964704     
0010001300344U 020000000000000000000000000000000000000000000000000000000000000000000000000000000000000000000000000000000000000000000000002103201700000000            000000000000000                              000                           
0010001300345T 020180230000002544776 29647041387546376   7               23032017000000000006000001022756                         0900000000000010000000000000000000000000000000000000000   0000000000000000000000000A9        170192964704     
0010001300346U 020000000000000000000000000000000000000000000000000000000000000000000000000000000000000000000000000000000000000000000000002103201700000000            000000000000000                              000                           
0010001300347T 020180230000002544776 29647041387637719   7               2303201700000000000600000101138X                         0900000000000010500000000000000000000000000000000000000   0000000000000000000000000A9A4      170192964704     
0010001300348U 020000000000000000000000000000000000000000000000000000000000000000000000000000000000000000000000000000000000000000000000002103201700000000            000000000000000                              000                           
0010001300349T 020180230000002544776 29647041387815202   7               23032017000000000006000001023655                         0900000000000010000000000000000000000000000000000000000   0000000000000000000000000A9        170192964704     
0010001300350U 020000000000000000000000000000000000000000000000000000000000000000000000000000000000000000000000000000000000000000000000002103201700000000            000000000000000                              000                           
0010001300351T 020180230000002544776 29647041387927852   7               23032017000000000006000001028495                         0900000000000010000000000000000000000000000000000000000   0000000000000000000000000A9        170192964704     
0010001300352U 020000000000000000000000000000000000000000000000000000000000000000000000000000000000000000000000000000000000000000000000002103201700000000            000000000000000                              000                           
0010001300353T 020180230000002544776 29647041388018577   7               23032017000000000008000001028029                         0900000000000010000000000000000000000000000000000000000   0000000000000000000000000A9        170192964704     
0010001300354U 020000000000000000000000000000000000000000000000000000000000000000000000000000000000000000000000000000000000000000000000002103201700000000            000000000000000                              000                           
0010001300355T 020180230000002544776 29647041388032827   7               23032017000000000008000001028029                         0900000000000010000000000000000000000000000000000000000   0000000000000000000000000A9        170192964704     
0010001300356U 020000000000000000000000000000000000000000000000000000000000000000000000000000000000000000000000000000000000000000000000002103201700000000            000000000000000                              000                           
0010001300357T 020180230000002544776 29647041388124168   7               23032017000000000006000001028029                         0900000000000010000000000000000000000000000000000000000   0000000000000000000000000A9        170192964704     
0010001300358U 020000000000000000000000000000000000000000000000000000000000000000000000000000000000000000000000000000000000000000000000002103201700000000            000000000000000                              000                           
0010001300359T 020180230000002544776 29647041388202277   7               23032017000000000006000001026972                         0900000000000010000000000000000000000000000000000000000   0000000000000000000000000A9        170192964704     
0010001300360U 020000000000000000000000000000000000000000000000000000000000000000000000000000000000000000000000000000000000000000000000002103201700000000            000000000000000                              000                           
0010001300361T 020180230000002544776 29647041388257256   7               23032017000000000006000001026972                         0900000000000010000000000000000000000000000000000000000   0000000000000000000000000A9        170192964704     
0010001300362U 020000000000000000000000000000000000000000000000000000000000000000000000000000000000000000000000000000000000000000000000002103201700000000            000000000000000                              000                           
0010001300363T 020180230000002544776 29647041388359014   7               23032017000000000006000001026972                         0900000000000010000000000000000000000000000000000000000   0000000000000000000000000A9        170192964704     
0010001300364U 020000000000000000000000000000000000000000000000000000000000000000000000000000000000000000000000000000000000000000000000002103201700000000            000000000000000                              000                           
0010001300365T 020180230000002544776 29647041388434434   7               23032017000000000006000001028029                         0900000000000010000000000000000000000000000000000000000   0000000000000000000000000A9        170192964704     
0010001300366U 020000000000000000000000000000000000000000000000000000000000000000000000000000000000000000000000000000000000000000000000002103201700000000            000000000000000                              000                           
0010001300367T 020180230000002544776 29647041388549510   7               23032017000000000006000001016179                         0900000000000010000000000000000000000000000000000000000   0000000000000000000000000A9        170192964704     
0010001300368U 020000000000000000000000000000000000000000000000000000000000000000000000000000000000000000000000000000000000000000000000002103201700000000            000000000000000                              000                           
0010001300369T 020180230000002544776 29647041388618274   7               23032017000000000006000001012467                         0900000000000010000000000000000000000000000000000000000   0000000000000000000000000A9        170192964704     
0010001300370U 020000000000000000000000000000000000000000000000000000000000000000000000000000000000000000000000000000000000000000000000002103201700000000            000000000000000                              000                           
0010001300371T 020180230000002544776 29647041388643653   7               23032017000000000006000001012467                         0900000000000010000000000000000000000000000000000000000   0000000000000000000000000A9        170192964704     
0010001300372U 020000000000000000000000000000000000000000000000000000000000000000000000000000000000000000000000000000000000000000000000002103201700000000            000000000000000                              000                           
0010001300373T 020180230000002544776 29647041389038811   7               23032017000000000006000001028029                         0900000000000010000000000000000000000000000000000000000   0000000000000000000000000A9        170192964704     
0010001300374U 020000000000000000000000000000000000000000000000000000000000000000000000000000000000000000000000000000000000000000000000002103201700000000            000000000000000                              000                           
0010001300375T 020180230000002544776 29647041389127950   7               23032017000000000006000001028029                         0900000000000010000000000000000000000000000000000000000   0000000000000000000000000A9        170192964704     
0010001300376U 020000000000000000000000000000000000000000000000000000000000000000000000000000000000000000000000000000000000000000000000002103201700000000            000000000000000                              000                           
0010001300377T 020180230000002544776 29647041389323621   7               23032017000000000006000001001643                         0900000000000010000000000000000000000000000000000000000   0000000000000000000000000A9        170192964704     
0010001300378U 020000000000000000000000000000000000000000000000000000000000000000000000000000000000000000000000000000000000000000000000002103201700000000            000000000000000                              000                           
0010001300379T 020180230000002544776 29647041389559815   7               23032017000000000006000001012467                         0900000000000010000000000000000000000000000000000000000   0000000000000000000000000A9        170192964704     
0010001300380U 020000000000000000000000000000000000000000000000000000000000000000000000000000000000000000000000000000000000000000000000002103201700000000            000000000000000                              000                           
0010001300381T 020180230000002544776 29647041389739820   7               23032017000000000006000001028029                         0900000000000010000000000000000000000000000000000000000   0000000000000000000000000A9        170192964704     
0010001300382U 020000000000000000000000000000000000000000000000000000000000000000000000000000000000000000000000000000000000000000000000002103201700000000            000000000000000                              000                           
0010001300383T 020180230000002544776 29647041389839016   7               23032017000000000006000001000132                         0900000000000010000000000000000000000000000000000000000   0000000000000000000000000A9        170192964704     
0010001300384U 020000000000000000000000000000000000000000000000000000000000000000000000000000000000000000000000000000000000000000000000002103201700000000            000000000000000                              000                           
0010001300385T 020180230000002544776 29647041389927811   7               23032017000000000006000001016179                         0900000000000010000000000000000000000000000000000000000   0000000000000000000000000A9        170192964704     
0010001300386U 020000000000000000000000000000000000000000000000000000000000000000000000000000000000000000000000000000000000000000000000002103201700000000            000000000000000                              000                           
0010001300387T 020180230000002544776 29647041389930251   7               23032017000000000006000001016179                         0900000000000010000000000000000000000000000000000000000   0000000000000000000000000A9        170192964704     
0010001300388U 020000000000000000000000000000000000000000000000000000000000000000000000000000000000000000000000000000000000000000000000002103201700000000            000000000000000                              000                           
0010001300389T 020180230000002544776 29647041390044945   7               23032017000000000006000001016179                         0900000000000010000000000000000000000000000000000000000   0000000000000000000000000A9        170192964704     
0010001300390U 020000000000000000000000000000000000000000000000000000000000000000000000000000000000000000000000000000000000000000000000002103201700000000            000000000000000                              000                           
0010001300391T 020180230000002544776 29647041390100041   7               23032017000000000006000001000132                         0900000000000010500000000000000000000000000000000000000   0000000000000000000000000A9A4      170192964704     
0010001300392U 020000000000000000000000000000000000000000000000000000000000000000000000000000000000000000000000000000000000000000000000002103201700000000            000000000000000                              000                           
0010001300393T 020180230000002544776 29647041390208411   7               23032017000000000006000001016179                         0900000000000010000000000000000000000000000000000000000   0000000000000000000000000A9        170192964704     
0010001300394U 020000000000000000000000000000000000000000000000000000000000000000000000000000000000000000000000000000000000000000000000002103201700000000            000000000000000                              000                           
0010001300395T 020180230000002544776 29647041390355440   7               23032017000000000006000001012467                         0900000000000010000000000000000000000000000000000000000   0000000000000000000000000A9        170192964704     
0010001300396U 020000000000000000000000000000000000000000000000000000000000000000000000000000000000000000000000000000000000000000000000002103201700000000            000000000000000                              000                           
0010001300397T 020180230000002544776 29647041390449946   7               23032017000000000006000001028029                         0900000000000010000000000000000000000000000000000000000   0000000000000000000000000A9        170192964704     
0010001300398U 020000000000000000000000000000000000000000000000000000000000000000000000000000000000000000000000000000000000000000000000002103201700000000            000000000000000                              000                           
0010001300399T 020180230000002544776 29647041390626288   7               2303201700000000000600000102256X                         0900000000000010000000000000000000000000000000000000000   0000000000000000000000000A9        170192964704     
0010001300400U 020000000000000000000000000000000000000000000000000000000000000000000000000000000000000000000000000000000000000000000000002103201700000000            000000000000000                              000                           
0010001300401T 020180230000002544776 29647041390734192   7               23032017000000000006000001000132                         0900000000000010000000000000000000000000000000000000000   0000000000000000000000000A9        170192964704     
0010001300402U 020000000000000000000000000000000000000000000000000000000000000000000000000000000000000000000000000000000000000000000000002103201700000000            000000000000000                              000                           
0010001300403T 020180230000002544776 29647041390826796   7               23032017000000000006000001000132                         0900000000000010000000000000000000000000000000000000000   0000000000000000000000000A9        170192964704     
0010001300404U 020000000000000000000000000000000000000000000000000000000000000000000000000000000000000000000000000000000000000000000000002103201700000000            000000000000000                              000                           
0010001300405T 020180230000002544776 29647041390938902   7               23032017000000000006000001018376                         0900000000000010500000000000000000000000000000000000000   0000000000000000000000000A9A4      170192964704     
0010001300406U 020000000000000000000000000000000000000000000000000000000000000000000000000000000000000000000000000000000000000000000000002103201700000000            000000000000000                              000                           
0010001300407T 020180230000002544776 29647041391125254   7               23032017000000000006000001028029                         0900000000000010000000000000000000000000000000000000000   0000000000000000000000000A9        170192964704     
0010001300408U 020000000000000000000000000000000000000000000000000000000000000000000000000000000000000000000000000000000000000000000000002103201700000000            000000000000000                              000                           
0010001300409T 020180230000002544776 29647041391233591   7               23032017000000000006000001000213                         0900000000000010000000000000000000000000000000000000000   0000000000000000000000000A9        170192964704     
0010001300410U 020000000000000000000000000000000000000000000000000000000000000000000000000000000000000000000000000000000000000000000000002103201700000000            000000000000000                              000                           
0010001300411T 020180230000002544776 29647041391412290   7               23032017000000000008000001000213                         0900000000000010000000000000000000000000000000000000000   0000000000000000000000000A9        170192964704     
0010001300412U 020000000000000000000000000000000000000000000000000000000000000000000000000000000000000000000000000000000000000000000000002103201700000000            000000000000000                              000                           
