00100000         2247745860001000029647040014       0180230000002544776 INSTITUTO DE SELECAO E TECNOLOBANCO DO BRASIL                         22203201701223300007203000000515122941PROCESSAMEN                                                 
00100011T0100020 20247745860001000029647040014       0180230000002544776 INSTITUTO DE SELECAO E TECNOLO                                                                                000000002203201700000000  000000000                      
0010001300001T 020180230000002544776 29647040548829446   7               24032017000000000006000001018376                         0900000000000010000000000000000000000000000000000000000   0000000000000000000000000A9        170192964704     
0010001300002U 020000000000000000000000000000000000000000000000000000000000000000000000000000000000000000000000000000000000000000000000002203201700000000            000000000000000                              000                           
0010001300003T 020180230000002544776 29647040578317328   7               24032017000000000006000001005428                         0900000000000010000000000000000000000000000000000000000   0000000000000000000000000A9        170192964704     
0010001300004U 020000000000000000000000000000000000000000000000000000000000000000000000000000000000000000000000000000000000000000000000002203201700000000            000000000000000                              000                           
0010001300005T 020180230000002544776 29647040705440390   7               24032017000000000008000001000361                         0900000000000010000000000000000000000000000000000000000   0000000000000000000000000A9        170192964704     
0010001300006U 020000000000000000000000000000000000000000000000000000000000000000000000000000000000000000000000000000000000000000000000002203201700000000            000000000000000                              000                           
0010001300007T 020180230000002544776 29647040712425302   7               24032017000000000006000001000132                         0900000000000010000000000000000000000000000000000000000   0000000000000000000000000A9        170192964704     
0010001300008U 020000000000000000000000000000000000000000000000000000000000000000000000000000000000000000000000000000000000000000000000002203201700000000            000000000000000                              000                           
0010001300009T 020180230000002544776 29647040725200660   7               24032017000000000006000001009849                         0900000000000010000000000000000000000000000000000000000   0000000000000000000000000A9        170192964704     
0010001300010U 020000000000000000000000000000000000000000000000000000000000000000000000000000000000000000000000000000000000000000000000002203201700000000            000000000000000                              000                           
0010001300011T 020180230000002544776 29647040739024555   7               24032017000000000006000001016179                         0900000000000010000000000000000000000000000000000000000   0000000000000000000000000A9        170192964704     
0010001300012U 020000000000000000000000000000000000000000000000000000000000000000000000000000000000000000000000000000000000000000000000002203201700000000            000000000000000                              000                           
0010001300013T 020180230000002544776 29647040795504437   7               24032017000000000006000001028029                         0900000000000010000000000000000000000000000000000000000   0000000000000000000000000A9        170192964704     
0010001300014U 020000000000000000000000000000000000000000000000000000000000000000000000000000000000000000000000000000000000000000000000002203201700000000            000000000000000                              000                           
0010001300015T 020180230000002544776 29647040827020567   7               24032017000000000008000001022357                         0900000000000010000000000000000000000000000000000000000   0000000000000000000000000A9        170192964704     
0010001300016U 020000000000000000000000000000000000000000000000000000000000000000000000000000000000000000000000000000000000000000000000002203201700000000            000000000000000                              000                           
0010001300017T 020180230000002544776 29647040892734379   7               24032017000000000008000001000361                         0900000000000010000000000000000000000000000000000000000   0000000000000000000000000A9        170192964704     
0010001300018U 020000000000000000000000000000000000000000000000000000000000000000000000000000000000000000000000000000000000000000000000002203201700000000            000000000000000                              000                           
0010001300019T 020180230000002544776 29647040945913650   7               24032017000000000008000001016179                         0900000000000010500000000000000000000000000000000000000   0000000000000000000000000A9A4      170192964704     
0010001300020U 020000000000000000000000000000000000000000000000000000000000000000000000000000000000000000000000000000000000000000000000002203201700000000            000000000000000                              000                           
0010001300021T 020180230000002544776 29647040946559886   7               24032017000000000006000001016500                         0900000000000010000000000000000000000000000000000000000   0000000000000000000000000A9        170192964704     
0010001300022U 020000000000000000000000000000000000000000000000000000000000000000000000000000000000000000000000000000000000000000000000002203201700000000            000000000000000                              000                           
0010001300023T 020180230000002544776 29647040951725399   7               24032017000000000006000001018376                         0900000000000010000000000000000000000000000000000000000   0000000000000000000000000A9        170192964704     
0010001300024U 020000000000000000000000000000000000000000000000000000000000000000000000000000000000000000000000000000000000000000000000002203201700000000            000000000000000                              000                           
0010001300025T 020180230000002544776 29647040951748809   7               24032017000000000006000001018376                         0900000000000010000000000000000000000000000000000000000   0000000000000000000000000A9        170192964704     
0010001300026U 020000000000000000000000000000000000000000000000000000000000000000000000000000000000000000000000000000000000000000000000002203201700000000            000000000000000                              000                           
0010001300027T 020180230000002544776 29647040957508485   7               24032017000000000006000001018376                         0900000000000010000000000000000000000000000000000000000   0000000000000000000000000A9        170192964704     
0010001300028U 020000000000000000000000000000000000000000000000000000000000000000000000000000000000000000000000000000000000000000000000002203201700000000            000000000000000                              000                           
0010001300029T 020180230000002544776 29647040968415756   7               23032017000000000006000001018376                         0900000000000010000000000000000000000000000000000000000   0000000000000000000000000A9        170192964704     
0010001300030U 020000000000000000000000000000000000000000000000000000000000000000000000000000000000000000000000000000000000000000000000002103201700000000            000000000000000                              000                           
0010001300031T 020180230000002544776 29647040968457090   7               24032017000000000006000001018376                         0900000000000010000000000000000000000000000000000000000   0000000000000000000000000A9        170192964704     
0010001300032U 020000000000000000000000000000000000000000000000000000000000000000000000000000000000000000000000000000000000000000000000002203201700000000            000000000000000                              000                           
0010001300033T 020180230000002544776 29647040988351764   7               23032017000000000008000001000361                         0900000000000010500000000000000000000000000000000000000   0000000000000000000000000A9A4      170192964704     
0010001300034U 020000000000000000000000000000000000000000000000000000000000000000000000000000000000000000000000000000000000000000000000002103201700000000            000000000000000                              000                           
0010001300035T 020180230000002544776 29647041003137517   7               24032017000000000006000001000132                         0900000000000010500000000000000000000000000000000000000   0000000000000000000000000A9A4      170192964704     
0010001300036U 020000000000000000000000000000000000000000000000000000000000000000000000000000000000000000000000000000000000000000000000002203201700000000            000000000000000                              000                           
0010001300037T 020180230000002544776 29647041020727570   7               24032017000000000006000001022357                         0900000000000010000000000000000000000000000000000000000   0000000000000000000000000A9        170192964704     
0010001300038U 020000000000000000000000000000000000000000000000000000000000000000000000000000000000000000000000000000000000000000000000002203201700000000            000000000000000                              000                           
0010001300039T 020180230000002544776 29647041020737663   7               24032017000000000006000001022357                         0900000000000010000000000000000000000000000000000000000   0000000000000000000000000A9        170192964704     
0010001300040U 020000000000000000000000000000000000000000000000000000000000000000000000000000000000000000000000000000000000000000000000002203201700000000            000000000000000                              000                           
0010001300041T 020180230000002544776 29647041054811961   7               24032017000000000006000001016179                         0900000000000010000000000000000000000000000000000000000   0000000000000000000000000A9        170192964704     
0010001300042U 020000000000000000000000000000000000000000000000000000000000000000000000000000000000000000000000000000000000000000000000002203201700000000            000000000000000                              000                           
0010001300043T 020180230000002544776 29647041102812611   7               24032017000000000006000001007595                         0900000000000010000000000000000000000000000000000000000   0000000000000000000000000A9        170192964704     
0010001300044U 020000000000000000000000000000000000000000000000000000000000000000000000000000000000000000000000000000000000000000000000002203201700000000            000000000000000                              000                           
0010001300045T 020180230000002544776 29647041115204093   7               24032017000000000008000001013692                         0900000000000010000000000000000000000000000000000000000   0000000000000000000000000A9        170192964704     
0010001300046U 020000000000000000000000000000000000000000000000000000000000000000000000000000000000000000000000000000000000000000000000002203201700000000            000000000000000                              000                           
0010001300047T 020180230000002544776 29647041116900254   7               24032017000000000006000001028029                         0900000000000010000000000000000000000000000000000000000   0000000000000000000000000A9        170192964704     
0010001300048U 020000000000000000000000000000000000000000000000000000000000000000000000000000000000000000000000000000000000000000000000002203201700000000            000000000000000                              000                           
0010001300049T 020180230000002544776 29647041121916826   7               24032017000000000008000001000132                         0900000000000010000000000000000000000000000000000000000   0000000000000000000000000A9        170192964704     
0010001300050U 020000000000000000000000000000000000000000000000000000000000000000000000000000000000000000000000000000000000000000000000002203201700000000            000000000000000                              000                           
0010001300051T 020180230000002544776 29647041137318815   7               24032017000000000006000001028029                         0900000000000010000000000000000000000000000000000000000   0000000000000000000000000A9        170192964704     
0010001300052U 020000000000000000000000000000000000000000000000000000000000000000000000000000000000000000000000000000000000000000000000002203201700000000            000000000000000                              000                           
0010001300053T 020180230000002544776 29647041138100304   7               24032017000000000006000001016179                         0900000000000010500000000000000000000000000000000000000   0000000000000000000000000A9A4      170192964704     
0010001300054U 020000000000000000000000000000000000000000000000000000000000000000000000000000000000000000000000000000000000000000000000002203201700000000            000000000000000                              000                           
0010001300055T 020180230000002544776 29647041142117739   7               24032017000000000006000001001597                         0900000000000010000000000000000000000000000000000000000   0000000000000000000000000A9        170192964704     
0010001300056U 020000000000000000000000000000000000000000000000000000000000000000000000000000000000000000000000000000000000000000000000002203201700000000            000000000000000                              000                           
0010001300057T 020180230000002544776 29647041142852843   7               24032017000000000008000001001597                         0900000000000010000000000000000000000000000000000000000   0000000000000000000000000A9        170192964704     
0010001300058U 020000000000000000000000000000000000000000000000000000000000000000000000000000000000000000000000000000000000000000000000002203201700000000            000000000000000                              000                           
0010001300059T 020180230000002544776 29647041182934000   7               24032017000000000006000001016179                         0900000000000010000000000000000000000000000000000000000   0000000000000000000000000A9        170192964704     
0010001300060U 020000000000000000000000000000000000000000000000000000000000000000000000000000000000000000000000000000000000000000000000002203201700000000            000000000000000                              000                           
0010001300061T 020180230000002544776 29647041205951091   7               24032017000000000006000001033316                         0900000000000010000000000000000000000000000000000000000   0000000000000000000000000A9        170192964704     
0010001300062U 020000000000000000000000000000000000000000000000000000000000000000000000000000000000000000000000000000000000000000000000002203201700000000            000000000000000                              000                           
0010001300063T 020180230000002544776 29647041222104353   7               24032017000000000006000001009849                         0900000000000010000000000000000000000000000000000000000   0000000000000000000000000A9        170192964704     
0010001300064U 020000000000000000000000000000000000000000000000000000000000000000000000000000000000000000000000000000000000000000000000002203201700000000            000000000000000                              000                           
0010001300065T 020180230000002544776 29647041230139259   7               24032017000000000006000001010421                         0900000000000010000000000000000000000000000000000000000   0000000000000000000000000A9        170192964704     
0010001300066U 020000000000000000000000000000000000000000000000000000000000000000000000000000000000000000000000000000000000000000000000002203201700000000            000000000000000                              000                           
0010001300067T 020180230000002544776 29647041247245699   7               24032017000000000006000001012688                         0900000000000010000000000000000000000000000000000000000   0000000000000000000000000A9        170192964704     
0010001300068U 020000000000000000000000000000000000000000000000000000000000000000000000000000000000000000000000000000000000000000000000002203201700000000            000000000000000                              000                           
0010001300069T 020180230000002544776 29647041250003740   7               24032017000000000006000001012467                         0900000000000010000000000000000000000000000000000000000   0000000000000000000000000A9        170192964704     
0010001300070U 020000000000000000000000000000000000000000000000000000000000000000000000000000000000000000000000000000000000000000000000002203201700000000            000000000000000                              000                           
0010001300071T 020180230000002544776 29647041256921642   7               24032017000000000006000001016179                         0900000000000010000000000000000000000000000000000000000   0000000000000000000000000A9        170192964704     
0010001300072U 020000000000000000000000000000000000000000000000000000000000000000000000000000000000000000000000000000000000000000000000002203201700000000            000000000000000                              000                           
0010001300073T 020180230000002544776 29647041274116344   7               24032017000000000006000001008214                         0900000000000010000000000000000000000000000000000000000   0000000000000000000000000A9        170192964704     
0010001300074U 020000000000000000000000000000000000000000000000000000000000000000000000000000000000000000000000000000000000000000000000002203201700000000            000000000000000                              000                           
0010001300075T 020180230000002544776 29647041283314035   7               24032017000000000008000001012467                         0900000000000010000000000000000000000000000000000000000   0000000000000000000000000A9        170192964704     
0010001300076U 020000000000000000000000000000000000000000000000000000000000000000000000000000000000000000000000000000000000000000000000002203201700000000            000000000000000                              000                           
0010001300077T 020180230000002544776 29647041288748813   7               24032017000000000006000001016179                         0900000000000010000000000000000000000000000000000000000   0000000000000000000000000A9        170192964704     
0010001300078U 020000000000000000000000000000000000000000000000000000000000000000000000000000000000000000000000000000000000000000000000002203201700000000            000000000000000                              000                           
0010001300079T 020180230000002544776 29647041292852455   7               24032017000000000008000001030864                         0900000000000010000000000000000000000000000000000000000   0000000000000000000000000A9        170192964704     
0010001300080U 020000000000000000000000000000000000000000000000000000000000000000000000000000000000000000000000000000000000000000000000002203201700000000            000000000000000                              000                           
0010001300081T 020180230000002544776 29647041302010911   7               24032017000000000006000001005428                         0900000000000010000000000000000000000000000000000000000   0000000000000000000000000A9        170192964704     
0010001300082U 020000000000000000000000000000000000000000000000000000000000000000000000000000000000000000000000000000000000000000000000002203201700000000            000000000000000                              000                           
0010001300083T 020180230000002544776 29647041308313360   7               24032017000000000006000001023655                         0900000000000010500000000000000000000000000000000000000   0000000000000000000000000A9A4      170192964704     
0010001300084U 020000000000000000000000000000000000000000000000000000000000000000000000000000000000000000000000000000000000000000000000002203201700000000            000000000000000                              000                           
0010001300085T 020180230000002544776 29647041315459728   7               24032017000000000006000001002283                         0900000000000010000000000000000000000000000000000000000   0000000000000000000000000A9        170192964704     
0010001300086U 020000000000000000000000000000000000000000000000000000000000000000000000000000000000000000000000000000000000000000000000002203201700000000            000000000000000                              000                           
0010001300087T 020180230000002544776 29647041318155831   7               24032017000000000006000001016179                         0900000000000010000000000000000000000000000000000000000   0000000000000000000000000A9        170192964704     
0010001300088U 020000000000000000000000000000000000000000000000000000000000000000000000000000000000000000000000000000000000000000000000002203201700000000            000000000000000                              000                           
0010001300089T 020180230000002544776 29647041323523033   7               24032017000000000006000001016179                         0900000000000010000000000000000000000000000000000000000   0000000000000000000000000A9        170192964704     
0010001300090U 020000000000000000000000000000000000000000000000000000000000000000000000000000000000000000000000000000000000000000000000002203201700000000            000000000000000                              000                           
0010001300091T 020180230000002544776 29647041324623598   7               24032017000000000006000001023655                         0900000000000010000000000000000000000000000000000000000   0000000000000000000000000A9        170192964704     
0010001300092U 020000000000000000000000000000000000000000000000000000000000000000000000000000000000000000000000000000000000000000000000002203201700000000            000000000000000                              000                           
0010001300093T 020180230000002544776 29647041324632651   7               24032017000000000006000001023655                         0900000000000010000000000000000000000000000000000000000   0000000000000000000000000A9        170192964704     
0010001300094U 020000000000000000000000000000000000000000000000000000000000000000000000000000000000000000000000000000000000000000000000002203201700000000            000000000000000                              000                           
0010001300095T 020180230000002544776 29647041326255899   7               24032017000000000006000001028495                         0900000000000010000000000000000000000000000000000000000   0000000000000000000000000A9        170192964704     
0010001300096U 020000000000000000000000000000000000000000000000000000000000000000000000000000000000000000000000000000000000000000000000002203201700000000            000000000000000                              000                           
0010001300097T 020180230000002544776 29647041329752262   7               24032017000000000006000001016179                         0900000000000010000000000000000000000000000000000000000   0000000000000000000000000A9        170192964704     
0010001300098U 020000000000000000000000000000000000000000000000000000000000000000000000000000000000000000000000000000000000000000000000002203201700000000            000000000000000                              000                           
0010001300099T 020180230000002544776 29647041338545399   7               24032017000000000006000001016179                         0900000000000010000000000000000000000000000000000000000   0000000000000000000000000A9        170192964704     
0010001300100U 020000000000000000000000000000000000000000000000000000000000000000000000000000000000000000000000000000000000000000000000002203201700000000            000000000000000                              000                           
0010001300101T 020180230000002544776 29647041352331121   7               24032017000000000006000001012467                         0900000000000010000000000000000000000000000000000000000   0000000000000000000000000A9        170192964704     
0010001300102U 020000000000000000000000000000000000000000000000000000000000000000000000000000000000000000000000000000000000000000000000002203201700000000            000000000000000                              000                           
0010001300103T 020180230000002544776 29647041353754804   7               24032017000000000006000001012467                         0900000000000010000000000000000000000000000000000000000   0000000000000000000000000A9        170192964704     
0010001300104U 020000000000000000000000000000000000000000000000000000000000000000000000000000000000000000000000000000000000000000000000002203201700000000            000000000000000                              000                           
0010001300105T 020180230000002544776 29647041360305284   7               24032017000000000006000001028029                         0900000000000010000000000000000000000000000000000000000   0000000000000000000000000A9        170192964704     
0010001300106U 020000000000000000000000000000000000000000000000000000000000000000000000000000000000000000000000000000000000000000000000002203201700000000            000000000000000                              000                           
0010001300107T 020180230000002544776 29647041369403117   7               24032017000000000006000001001511                         0900000000000010000000000000000000000000000000000000000   0000000000000000000000000A9        170192964704     
0010001300108U 020000000000000000000000000000000000000000000000000000000000000000000000000000000000000000000000000000000000000000000000002203201700000000            000000000000000                              000                           
0010001300109T 020180230000002544776 29647041371756453   7               24032017000000000006000001008214                         0900000000000010000000000000000000000000000000000000000   0000000000000000000000000A9        170192964704     
0010001300110U 020000000000000000000000000000000000000000000000000000000000000000000000000000000000000000000000000000000000000000000000002203201700000000            000000000000000                              000                           
0010001300111T 020180230000002544776 29647041377240956   7               24032017000000000006000001016179                         0900000000000010000000000000000000000000000000000000000   0000000000000000000000000A9        170192964704     
0010001300112U 020000000000000000000000000000000000000000000000000000000000000000000000000000000000000000000000000000000000000000000000002203201700000000            000000000000000                              000                           
0010001300113T 020180230000002544776 29647041378753339   7               24032017000000000008000001018376                         0900000000000010000000000000000000000000000000000000000   0000000000000000000000000A9        170192964704     
0010001300114U 020000000000000000000000000000000000000000000000000000000000000000000000000000000000000000000000000000000000000000000000002203201700000000            000000000000000                              000                           
0010001300115T 020180230000002544776 29647041394231284   7               24032017000000000006000001000132                         0900000000000010000000000000000000000000000000000000000   0000000000000000000000000A9        170192964704     
0010001300116U 020000000000000000000000000000000000000000000000000000000000000000000000000000000000000000000000000000000000000000000000002203201700000000            000000000000000                              000                           
0010001300117T 020180230000002544776 29647041395527568   7               24032017000000000006000001000132                         0900000000000010000000000000000000000000000000000000000   0000000000000000000000000A9        170192964704     
0010001300118U 020000000000000000000000000000000000000000000000000000000000000000000000000000000000000000000000000000000000000000000000002203201700000000            000000000000000                              000                           
0010001300119T 020180230000002544776 29647041396823329   7               2303201700000000000600000101138X                         0900000000000010000000000000000000000000000000000000000   0000000000000000000000000A9        170192964704     
0010001300120U 020000000000000000000000000000000000000000000000000000000000000000000000000000000000000000000000000000000000000000000000002103201700000000            000000000000000                              000                           
0010001300121T 020180230000002544776 29647041396954265   7               23032017000000000008000001016179                         0900000000000010000000000000000000000000000000000000000   0000000000000000000000000A9        170192964704     
0010001300122U 020000000000000000000000000000000000000000000000000000000000000000000000000000000000000000000000000000000000000000000000002103201700000000            000000000000000                              000                           
0010001300123T 020180230000002544776 29647041397000450   7               24032017000000000006000001018376                         0900000000000010000000000000000000000000000000000000000   0000000000000000000000000A9        170192964704     
0010001300124U 020000000000000000000000000000000000000000000000000000000000000000000000000000000000000000000000000000000000000000000000002203201700000000            000000000000000                              000                           
0010001300125T 020180230000002544776 29647041397105181   7               24032017000000000006000001016179                         0900000000000010000000000000000000000000000000000000000   0000000000000000000000000A9        170192964704     
0010001300126U 020000000000000000000000000000000000000000000000000000000000000000000000000000000000000000000000000000000000000000000000002203201700000000            000000000000000                              000                           
0010001300127T 020180230000002544776 29647041397247435   7               24032017000000000006000001028029                         0900000000000010000000000000000000000000000000000000000   0000000000000000000000000A9        170192964704     
0010001300128U 020000000000000000000000000000000000000000000000000000000000000000000000000000000000000000000000000000000000000000000000002203201700000000            000000000000000                              000                           
0010001300129T 020180230000002544776 29647041397337123   7               24032017000000000006000001033316                         0900000000000010000000000000000000000000000000000000000   0000000000000000000000000A9        170192964704     
0010001300130U 020000000000000000000000000000000000000000000000000000000000000000000000000000000000000000000000000000000000000000000000002203201700000000            000000000000000                              000                           
0010001300131T 020180230000002544776 29647041397422563   7               24032017000000000006000001016179                         0900000000000010000000000000000000000000000000000000000   0000000000000000000000000A9        170192964704     
0010001300132U 020000000000000000000000000000000000000000000000000000000000000000000000000000000000000000000000000000000000000000000000002203201700000000            000000000000000                              000                           
0010001300133T 020180230000002544776 29647041397535516   7               24032017000000000006000001016179                         0900000000000010000000000000000000000000000000000000000   0000000000000000000000000A9        170192964704     
0010001300134U 020000000000000000000000000000000000000000000000000000000000000000000000000000000000000000000000000000000000000000000000002203201700000000            000000000000000                              000                           
0010001300135T 020180230000002544776 29647041397631047   7               24032017000000000006000001018376                         0900000000000010000000000000000000000000000000000000000   0000000000000000000000000A9        170192964704     
0010001300136U 020000000000000000000000000000000000000000000000000000000000000000000000000000000000000000000000000000000000000000000000002203201700000000            000000000000000                              000                           
0010001300137T 020180230000002544776 29647041397725366   7               24032017000000000006000001012467                         0900000000000010000000000000000000000000000000000000000   0000000000000000000000000A9        170192964704     
0010001300138U 020000000000000000000000000000000000000000000000000000000000000000000000000000000000000000000000000000000000000000000000002203201700000000            000000000000000                              000                           
0010001300139T 020180230000002544776 29647041397838126   7               24032017000000000006000001026255                         0900000000000010000000000000000000000000000000000000000   0000000000000000000000000A9        170192964704     
0010001300140U 020000000000000000000000000000000000000000000000000000000000000000000000000000000000000000000000000000000000000000000000002203201700000000            000000000000000                              000                           
0010001300141T 020180230000002544776 29647041397930486   7               24032017000000000006000001012467                         0900000000000010000000000000000000000000000000000000000   0000000000000000000000000A9        170192964704     
0010001300142U 020000000000000000000000000000000000000000000000000000000000000000000000000000000000000000000000000000000000000000000000002203201700000000            000000000000000                              000                           
0010001300143T 020180230000002544776 29647041398138398   7               24032017000000000006000001023655                         0900000000000010000000000000000000000000000000000000000   0000000000000000000000000A9        170192964704     
0010001300144U 020000000000000000000000000000000000000000000000000000000000000000000000000000000000000000000000000000000000000000000000002203201700000000            000000000000000                              000                           
0010001300145T 020180230000002544776 29647041398333184   7               24032017000000000006000001000132                         0900000000000010000000000000000000000000000000000000000   0000000000000000000000000A9        170192964704     
0010001300146U 020000000000000000000000000000000000000000000000000000000000000000000000000000000000000000000000000000000000000000000000002203201700000000            000000000000000                              000                           
0010001300147T 020180230000002544776 29647041398406866   7               24032017000000000006000001001511                         0900000000000010000000000000000000000000000000000000000   0000000000000000000000000A9        170192964704     
0010001300148U 020000000000000000000000000000000000000000000000000000000000000000000000000000000000000000000000000000000000000000000000002203201700000000            000000000000000                              000                           
0010001300149T 020180230000002544776 29647041398736241   7               24032017000000000006000001016179                         0900000000000010000000000000000000000000000000000000000   0000000000000000000000000A9        170192964704     
0010001300150U 020000000000000000000000000000000000000000000000000000000000000000000000000000000000000000000000000000000000000000000000002203201700000000            000000000000000                              000                           
0010001300151T 020180230000002544776 29647041398814165   7               24032017000000000006000001012467                         0900000000000010000000000000000000000000000000000000000   0000000000000000000000000A9        170192964704     
0010001300152U 020000000000000000000000000000000000000000000000000000000000000000000000000000000000000000000000000000000000000000000000002203201700000000            000000000000000                              000                           
0010001300153T 020180230000002544776 29647041398901208   7               24032017000000000006000001007277                         0900000000000010000000000000000000000000000000000000000   0000000000000000000000000A9        170192964704     
0010001300154U 020000000000000000000000000000000000000000000000000000000000000000000000000000000000000000000000000000000000000000000000002203201700000000            000000000000000                              000                           
0010001300155T 020180230000002544776 29647041399058231   7               24032017000000000006000001017108                         0900000000000010000000000000000000000000000000000000000   0000000000000000000000000A9        170192964704     
0010001300156U 020000000000000000000000000000000000000000000000000000000000000000000000000000000000000000000000000000000000000000000000002203201700000000            000000000000000                              000                           
0010001300157T 020180230000002544776 29647041399212732   7               24032017000000000006000001000132                         0900000000000010000000000000000000000000000000000000000   0000000000000000000000000A9        170192964704     
0010001300158U 020000000000000000000000000000000000000000000000000000000000000000000000000000000000000000000000000000000000000000000000002203201700000000            000000000000000                              000                           
0010001300159T 020180230000002544776 29647041399517325   7               24032017000000000006000001026425                         0900000000000010000000000000000000000000000000000000000   0000000000000000000000000A9        170192964704     
0010001300160U 020000000000000000000000000000000000000000000000000000000000000000000000000000000000000000000000000000000000000000000000002203201700000000            000000000000000                              000                           
0010001300161T 020180230000002544776 29647041399744908   7               24032017000000000006000001028029                         0900000000000010000000000000000000000000000000000000000   0000000000000000000000000A9        170192964704     
0010001300162U 020000000000000000000000000000000000000000000000000000000000000000000000000000000000000000000000000000000000000000000000002203201700000000            000000000000000                              000                           
0010001300163T 020180230000002544776 29647041399837330   7               2403201700000000000800000101981X                         0900000000000010000000000000000000000000000000000000000   0000000000000000000000000A9        170192964704     
0010001300164U 020000000000000000000000000000000000000000000000000000000000000000000000000000000000000000000000000000000000000000000000002203201700000000            000000000000000                              000                           
0010001300165T 020180230000002544776 29647041399913134   7               24032017000000000006000001026964                         0900000000000010000000000000000000000000000000000000000   0000000000000000000000000A9        170192964704     
0010001300166U 020000000000000000000000000000000000000000000000000000000000000000000000000000000000000000000000000000000000000000000000002203201700000000            000000000000000                              000                           
0010001300167T 020180230000002544776 29647041400019858   7               24032017000000000006000001033316                         0900000000000010000000000000000000000000000000000000000   0000000000000000000000000A9        170192964704     
0010001300168U 020000000000000000000000000000000000000000000000000000000000000000000000000000000000000000000000000000000000000000000000002203201700000000            000000000000000                              000                           
0010001300169T 020180230000002544776 29647041400155316   7               24032017000000000006000001028029                         0900000000000010000000000000000000000000000000000000000   0000000000000000000000000A9        170192964704     
0010001300170U 020000000000000000000000000000000000000000000000000000000000000000000000000000000000000000000000000000000000000000000000002203201700000000            000000000000000                              000                           
0010001300171T 020180230000002544776 29647041400203375   7               24032017000000000006000001000132                         0900000000000010000000000000000000000000000000000000000   0000000000000000000000000A9        170192964704     
0010001300172U 020000000000000000000000000000000000000000000000000000000000000000000000000000000000000000000000000000000000000000000000002203201700000000            000000000000000                              000                           
0010001300173T 020180230000002544776 29647041400433868   7               24032017000000000006000001012467                         0900000000000010000000000000000000000000000000000000000   0000000000000000000000000A9        170192964704     
0010001300174U 020000000000000000000000000000000000000000000000000000000000000000000000000000000000000000000000000000000000000000000000002203201700000000            000000000000000                              000                           
0010001300175T 020180230000002544776 29647041400504858   7               24032017000000000006000001005428                         0900000000000010000000000000000000000000000000000000000   0000000000000000000000000A9        170192964704     
0010001300176U 020000000000000000000000000000000000000000000000000000000000000000000000000000000000000000000000000000000000000000000000002203201700000000            000000000000000                              000                           
0010001300177T 020180230000002544776 29647041400556888   7               24032017000000000006000001005428                         0900000000000010000000000000000000000000000000000000000   0000000000000000000000000A9        170192964704     
0010001300178U 020000000000000000000000000000000000000000000000000000000000000000000000000000000000000000000000000000000000000000000000002203201700000000            000000000000000                              000                           
0010001300179T 020180230000002544776 29647041400628744   7               24032017000000000008000001008214                         0900000000000010000000000000000000000000000000000000000   0000000000000000000000000A9        170192964704     
0010001300180U 020000000000000000000000000000000000000000000000000000000000000000000000000000000000000000000000000000000000000000000000002203201700000000            000000000000000                              000                           
0010001300181T 020180230000002544776 29647041400731675   7               24032017000000000006000001028029                         0900000000000010000000000000000000000000000000000000000   0000000000000000000000000A9        170192964704     
0010001300182U 020000000000000000000000000000000000000000000000000000000000000000000000000000000000000000000000000000000000000000000000002203201700000000            000000000000000                              000                           
0010001300183T 020180230000002544776 29647041400805187   7               24032017000000000006000001000132                         0900000000000010000000000000000000000000000000000000000   0000000000000000000000000A9        170192964704     
0010001300184U 020000000000000000000000000000000000000000000000000000000000000000000000000000000000000000000000000000000000000000000000002203201700000000            000000000000000                              000                           
0010001300185T 020180230000002544776 29647041401003014   7               24032017000000000008000001028029                         0900000000000010000000000000000000000000000000000000000   0000000000000000000000000A9        170192964704     
0010001300186U 020000000000000000000000000000000000000000000000000000000000000000000000000000000000000000000000000000000000000000000000002203201700000000            000000000000000                              000                           
0010001300187T 020180230000002544776 29647041401321051   7               24032017000000000006000001000132                         0900000000000010000000000000000000000000000000000000000   0000000000000000000000000A9        170192964704     
0010001300188U 020000000000000000000000000000000000000000000000000000000000000000000000000000000000000000000000000000000000000000000000002203201700000000            000000000000000                              000                           
0010001300189T 020180230000002544776 29647041401330520   7               24032017000000000006000001000132                         0900000000000010000000000000000000000000000000000000000   0000000000000000000000000A9        170192964704     
0010001300190U 020000000000000000000000000000000000000000000000000000000000000000000000000000000000000000000000000000000000000000000000002203201700000000            000000000000000                              000                           
0010001300191T 020180230000002544776 29647041401646964   7               24032017000000000008000001018376                         0900000000000010000000000000000000000000000000000000000   0000000000000000000000000A9        170192964704     
0010001300192U 020000000000000000000000000000000000000000000000000000000000000000000000000000000000000000000000000000000000000000000000002203201700000000            000000000000000                              000                           
0010001300193T 020180230000002544776 29647041401718205   7               24032017000000000006000001028495                         0900000000000010000000000000000000000000000000000000000   0000000000000000000000000A9        170192964704     
0010001300194U 020000000000000000000000000000000000000000000000000000000000000000000000000000000000000000000000000000000000000000000000002203201700000000            000000000000000                              000                           
0010001300195T 020180230000002544776 29647041401913203   7               24032017000000000006000001028029                         0900000000000010000000000000000000000000000000000000000   0000000000000000000000000A9        170192964704     
0010001300196U 020000000000000000000000000000000000000000000000000000000000000000000000000000000000000000000000000000000000000000000000002203201700000000            000000000000000                              000                           
0010001300197T 020180230000002544776 29647041402141254   7               24032017000000000006000001009636                         0900000000000010000000000000000000000000000000000000000   0000000000000000000000000A9        170192964704     
0010001300198U 020000000000000000000000000000000000000000000000000000000000000000000000000000000000000000000000000000000000000000000000002203201700000000            000000000000000                              000                           
0010001300199T 020180230000002544776 29647041402402557   7               24032017000000000006000001021385                         0900000000000010000000000000000000000000000000000000000   0000000000000000000000000A9        170192964704     
0010001300200U 020000000000000000000000000000000000000000000000000000000000000000000000000000000000000000000000000000000000000000000000002203201700000000            000000000000000                              000                           
0010001300201T 020180230000002544776 29647041402528918   7               24032017000000000006000001035041                         0900000000000010000000000000000000000000000000000000000   0000000000000000000000000A9        170192964704     
0010001300202U 020000000000000000000000000000000000000000000000000000000000000000000000000000000000000000000000000000000000000000000000002203201700000000            000000000000000                              000                           
0010001300203T 020180230000002544776 29647041402630242   7               24032017000000000006000001016179                         0900000000000010000000000000000000000000000000000000000   0000000000000000000000000A9        170192964704     
0010001300204U 020000000000000000000000000000000000000000000000000000000000000000000000000000000000000000000000000000000000000000000000002203201700000000            000000000000000                              000                           
0010001300205T 020180230000002544776 29647041402814101   7               24032017000000000006000001013668                         0900000000000010000000000000000000000000000000000000000   0000000000000000000000000A9        170192964704     
0010001300206U 020000000000000000000000000000000000000000000000000000000000000000000000000000000000000000000000000000000000000000000000002203201700000000            000000000000000                              000                           
0010001300207T 020180230000002544776 29647041402924997   7               24032017000000000006000001028029                         0900000000000010000000000000000000000000000000000000000   0000000000000000000000000A9        170192964704     
0010001300208U 020000000000000000000000000000000000000000000000000000000000000000000000000000000000000000000000000000000000000000000000002203201700000000            000000000000000                              000                           
0010001300209T 020180230000002544776 29647041403032043   7               24032017000000000006000001000132                         0900000000000010000000000000000000000000000000000000000   0000000000000000000000000A9        170192964704     
0010001300210U 020000000000000000000000000000000000000000000000000000000000000000000000000000000000000000000000000000000000000000000000002203201700000000            000000000000000                              000                           
0010001300211T 020180230000002544776 29647041403118352   7               24032017000000000006000001000132                         0900000000000010000000000000000000000000000000000000000   0000000000000000000000000A9        170192964704     
0010001300212U 020000000000000000000000000000000000000000000000000000000000000000000000000000000000000000000000000000000000000000000000002203201700000000            000000000000000                              000                           
0010001300213T 020180230000002544776 29647041403241076   7               24032017000000000006000001012629                         0900000000000010000000000000000000000000000000000000000   0000000000000000000000000A9        170192964704     
0010001300214U 020000000000000000000000000000000000000000000000000000000000000000000000000000000000000000000000000000000000000000000000002203201700000000            000000000000000                              000                           
0010001300215T 020180230000002544776 29647041403307294   7               24032017000000000006000001009636                         0900000000000010000000000000000000000000000000000000000   0000000000000000000000000A9        170192964704     
0010001300216U 020000000000000000000000000000000000000000000000000000000000000000000000000000000000000000000000000000000000000000000000002203201700000000            000000000000000                              000                           
0010001300217T 020180230000002544776 29647041403438437   7               24032017000000000006000001000132                         0900000000000010000000000000000000000000000000000000000   0000000000000000000000000A9        170192964704     
0010001300218U 020000000000000000000000000000000000000000000000000000000000000000000000000000000000000000000000000000000000000000000000002203201700000000            000000000000000                              000                           
0010001300219T 020180230000002544776 29647041403530061   7               24032017000000000006000001035033                         0900000000000010000000000000000000000000000000000000000   0000000000000000000000000A9        170192964704     
0010001300220U 020000000000000000000000000000000000000000000000000000000000000000000000000000000000000000000000000000000000000000000000002203201700000000            000000000000000                              000                           
0010001300221T 020180230000002544776 29647041403637487   7               24032017000000000008000001012467                         0900000000000010000000000000000000000000000000000000000   0000000000000000000000000A9        170192964704     
0010001300222U 020000000000000000000000000000000000000000000000000000000000000000000000000000000000000000000000000000000000000000000000002203201700000000            000000000000000                              000                           
0010001300223T 020180230000002544776 29647041403755996   7               24032017000000000006000001012467                         0900000000000010000000000000000000000000000000000000000   0000000000000000000000000A9        170192964704     
0010001300224U 020000000000000000000000000000000000000000000000000000000000000000000000000000000000000000000000000000000000000000000000002203201700000000            000000000000000                              000                           
0010001300225T 020180230000002544776 29647041403834947   7               24032017000000000006000001033316                         0900000000000010000000000000000000000000000000000000000   0000000000000000000000000A9        170192964704     
0010001300226U 020000000000000000000000000000000000000000000000000000000000000000000000000000000000000000000000000000000000000000000000002203201700000000            000000000000000                              000                           
0010001300227T 020180230000002544776 29647041404121567   7               24032017000000000006000001016179                         0900000000000010000000000000000000000000000000000000000   0000000000000000000000000A9        170192964704     
0010001300228U 020000000000000000000000000000000000000000000000000000000000000000000000000000000000000000000000000000000000000000000000002203201700000000            000000000000000                              000                           
0010001300229T 020180230000002544776 29647041404149002   7               24032017000000000006000001016179                         0900000000000010000000000000000000000000000000000000000   0000000000000000000000000A9        170192964704     
0010001300230U 020000000000000000000000000000000000000000000000000000000000000000000000000000000000000000000000000000000000000000000000002203201700000000            000000000000000                              000                           
0010001300231T 020180230000002544776 29647041404200521   7               24032017000000000008000001024694                         0900000000000010000000000000000000000000000000000000000   0000000000000000000000000A9        170192964704     
0010001300232U 020000000000000000000000000000000000000000000000000000000000000000000000000000000000000000000000000000000000000000000000002203201700000000            000000000000000                              000                           
0010001300233T 020180230000002544776 29647041404313620   7               24032017000000000008000001016179                         0900000000000010000000000000000000000000000000000000000   0000000000000000000000000A9        170192964704     
0010001300234U 020000000000000000000000000000000000000000000000000000000000000000000000000000000000000000000000000000000000000000000000002203201700000000            000000000000000                              000                           
0010001300235T 020180230000002544776 29647041404525817   7               24032017000000000006000001016179                         0900000000000010000000000000000000000000000000000000000   0000000000000000000000000A9        170192964704     
0010001300236U 020000000000000000000000000000000000000000000000000000000000000000000000000000000000000000000000000000000000000000000000002203201700000000            000000000000000                              000                           
0010001300237T 020180230000002544776 29647041404758133   7               2403201700000000000600000101981X                         0900000000000010000000000000000000000000000000000000000   0000000000000000000000000A9        170192964704     
0010001300238U 020000000000000000000000000000000000000000000000000000000000000000000000000000000000000000000000000000000000000000000000002203201700000000            000000000000000                              000                           
0010001300239T 020180230000002544776 29647041404825110   7               24032017000000000006000001033316                         0900000000000010000000000000000000000000000000000000000   0000000000000000000000000A9        170192964704     
0010001300240U 020000000000000000000000000000000000000000000000000000000000000000000000000000000000000000000000000000000000000000000000002203201700000000            000000000000000                              000                           
0010001300241T 020180230000002544776 29647041404926350   7               24032017000000000008000001008702                         0900000000000010000000000000000000000000000000000000000   0000000000000000000000000A9        170192964704     
0010001300242U 020000000000000000000000000000000000000000000000000000000000000000000000000000000000000000000000000000000000000000000000002203201700000000            000000000000000                              000                           
0010001300243T 020180230000002544776 29647041405043315   7               24032017000000000006000001028029                         0900000000000010000000000000000000000000000000000000000   0000000000000000000000000A9        170192964704     
0010001300244U 020000000000000000000000000000000000000000000000000000000000000000000000000000000000000000000000000000000000000000000000002203201700000000            000000000000000                              000                           
0010001300245T 020180230000002544776 29647041405227300   7               24032017000000000006000001000132                         0900000000000010000000000000000000000000000000000000000   0000000000000000000000000A9        170192964704     
0010001300246U 020000000000000000000000000000000000000000000000000000000000000000000000000000000000000000000000000000000000000000000000002203201700000000            000000000000000                              000                           
0010001300247T 020180230000002544776 29647041405316151   7               24032017000000000006000001016179                         0900000000000010000000000000000000000000000000000000000   0000000000000000000000000A9        170192964704     
0010001300248U 020000000000000000000000000000000000000000000000000000000000000000000000000000000000000000000000000000000000000000000000002203201700000000            000000000000000                              000                           
0010001300249T 020180230000002544776 29647041405331177   7               24032017000000000006000001016179                         0900000000000010000000000000000000000000000000000000000   0000000000000000000000000A9        170192964704     
0010001300250U 020000000000000000000000000000000000000000000000000000000000000000000000000000000000000000000000000000000000000000000000002203201700000000            000000000000000                              000                           
0010001300251T 020180230000002544776 29647041405349817   7               24032017000000000006000001016179                         0900000000000010000000000000000000000000000000000000000   0000000000000000000000000A9        170192964704     
0010001300252U 020000000000000000000000000000000000000000000000000000000000000000000000000000000000000000000000000000000000000000000000002203201700000000            000000000000000                              000                           
0010001300253T 020180230000002544776 29647041405447563   7               24032017000000000006000001023655                         0900000000000010000000000000000000000000000000000000000   0000000000000000000000000A9        170192964704     
0010001300254U 020000000000000000000000000000000000000000000000000000000000000000000000000000000000000000000000000000000000000000000000002203201700000000            000000000000000                              000                           
0010001300255T 020180230000002544776 29647041405527572   7               24032017000000000006000001016179                         0900000000000010000000000000000000000000000000000000000   0000000000000000000000000A9        170192964704     
0010001300256U 020000000000000000000000000000000000000000000000000000000000000000000000000000000000000000000000000000000000000000000000002203201700000000            000000000000000                              000                           
0010001300257T 020180230000002544776 29647041405639757   7               24032017000000000006000001028029                         0900000000000010000000000000000000000000000000000000000   0000000000000000000000000A9        170192964704     
0010001300258U 020000000000000000000000000000000000000000000000000000000000000000000000000000000000000000000000000000000000000000000000002203201700000000            000000000000000                              000                           
0010001300259T 020180230000002544776 29647041405815467   7               24032017000000000006000001023655                         0900000000000010000000000000000000000000000000000000000   0000000000000000000000000A9        170192964704     
0010001300260U 020000000000000000000000000000000000000000000000000000000000000000000000000000000000000000000000000000000000000000000000002203201700000000            000000000000000                              000                           
0010001300261T 020180230000002544776 29647041405953956   7               24032017000000000006000001000132                         0900000000000010000000000000000000000000000000000000000   0000000000000000000000000A9        170192964704     
0010001300262U 020000000000000000000000000000000000000000000000000000000000000000000000000000000000000000000000000000000000000000000000002203201700000000            000000000000000                              000                           
0010001300263T 020180230000002544776 29647041406015712   7               24032017000000000006000001016179                         0900000000000010000000000000000000000000000000000000000   0000000000000000000000000A9        170192964704     
0010001300264U 020000000000000000000000000000000000000000000000000000000000000000000000000000000000000000000000000000000000000000000000002203201700000000            000000000000000                              000                           
0010001300265T 020180230000002544776 29647041406143942   7               24032017000000000008000001028029                         0900000000000010000000000000000000000000000000000000000   0000000000000000000000000A9        170192964704     
0010001300266U 020000000000000000000000000000000000000000000000000000000000000000000000000000000000000000000000000000000000000000000000002203201700000000            000000000000000                              000                           
0010001300267T 020180230000002544776 29647041406413325   7               24032017000000000006000001000132                         0900000000000010000000000000000000000000000000000000000   0000000000000000000000000A9        170192964704     
0010001300268U 020000000000000000000000000000000000000000000000000000000000000000000000000000000000000000000000000000000000000000000000002203201700000000            000000000000000                              000                           
0010001300269T 020180230000002544776 29647041406527330   7               2403201700000000000600000100233X                         0900000000000010000000000000000000000000000000000000000   0000000000000000000000000A9        170192964704     
0010001300270U 020000000000000000000000000000000000000000000000000000000000000000000000000000000000000000000000000000000000000000000000002203201700000000            000000000000000                              000                           
0010001300271T 020180230000002544776 29647041406711679   7               24032017000000000006000001005428                         0900000000000010500000000000000000000000000000000000000   0000000000000000000000000A9A4      170192964704     
0010001300272U 020000000000000000000000000000000000000000000000000000000000000000000000000000000000000000000000000000000000000000000000002203201700000000            000000000000000                              000                           
0010001300273T 020180230000002544776 29647041406908048   7               2403201700000000000600000101981X                         0900000000000010000000000000000000000000000000000000000   0000000000000000000000000A9        170192964704     
0010001300274U 020000000000000000000000000000000000000000000000000000000000000000000000000000000000000000000000000000000000000000000000002203201700000000            000000000000000                              000                           
0010001300275T 020180230000002544776 29647041407019074   7               24032017000000000006000001001023                         0900000000000010000000000000000000000000000000000000000   0000000000000000000000000A9        170192964704     
0010001300276U 020000000000000000000000000000000000000000000000000000000000000000000000000000000000000000000000000000000000000000000000002203201700000000            000000000000000                              000                           
0010001300277T 020180230000002544776 29647041407020022   7               24032017000000000006000001001023                         0900000000000010000000000000000000000000000000000000000   0000000000000000000000000A9        170192964704     
0010001300278U 020000000000000000000000000000000000000000000000000000000000000000000000000000000000000000000000000000000000000000000000002203201700000000            000000000000000                              000                           
0010001300279T 020180230000002544776 29647041407112329   7               24032017000000000006000001007145                         0900000000000010000000000000000000000000000000000000000   0000000000000000000000000A9        170192964704     
0010001300280U 020000000000000000000000000000000000000000000000000000000000000000000000000000000000000000000000000000000000000000000000002203201700000000            000000000000000                              000                           
0010001300281T 020180230000002544776 29647041407124504   7               24032017000000000006000001007145                         0900000000000010000000000000000000000000000000000000000   0000000000000000000000000A9        170192964704     
0010001300282U 020000000000000000000000000000000000000000000000000000000000000000000000000000000000000000000000000000000000000000000000002203201700000000            000000000000000                              000                           
0010001300283T 020180230000002544776 29647041407131361   7               24032017000000000006000001007145                         0900000000000010000000000000000000000000000000000000000   0000000000000000000000000A9        170192964704     
0010001300284U 020000000000000000000000000000000000000000000000000000000000000000000000000000000000000000000000000000000000000000000000002203201700000000            000000000000000                              000                           
0010001300285T 020180230000002544776 29647041407152160   7               24032017000000000006000001007145                         0900000000000010000000000000000000000000000000000000000   0000000000000000000000000A9        170192964704     
0010001300286U 020000000000000000000000000000000000000000000000000000000000000000000000000000000000000000000000000000000000000000000000002203201700000000            000000000000000                              000                           
0010001300287T 020180230000002544776 29647041407233291   7               24032017000000000006000001028029                         0900000000000010000000000000000000000000000000000000000   0000000000000000000000000A9        170192964704     
0010001300288U 020000000000000000000000000000000000000000000000000000000000000000000000000000000000000000000000000000000000000000000000002203201700000000            000000000000000                              000                           
0010001300289T 020180230000002544776 29647041407317859   7               24032017000000000006000001028029                         0900000000000010000000000000000000000000000000000000000   0000000000000000000000000A9        170192964704     
0010001300290U 020000000000000000000000000000000000000000000000000000000000000000000000000000000000000000000000000000000000000000000000002203201700000000            000000000000000                              000                           
0010001300291T 020180230000002544776 29647041407529664   7               24032017000000000006000001008214                         0900000000000010500000000000000000000000000000000000000   0000000000000000000000000A9A4      170192964704     
0010001300292U 020000000000000000000000000000000000000000000000000000000000000000000000000000000000000000000000000000000000000000000000002203201700000000            000000000000000                              000                           
0010001300293T 020180230000002544776 29647041407615055   7               24032017000000000006000001040770                         0900000000000010000000000000000000000000000000000000000   0000000000000000000000000A9        170192964704     
0010001300294U 020000000000000000000000000000000000000000000000000000000000000000000000000000000000000000000000000000000000000000000000002203201700000000            000000000000000                              000                           
0010001300295T 020180230000002544776 29647041407923342   7               24032017000000000006000001028495                         0900000000000010000000000000000000000000000000000000000   0000000000000000000000000A9        170192964704     
0010001300296U 020000000000000000000000000000000000000000000000000000000000000000000000000000000000000000000000000000000000000000000000002203201700000000            000000000000000                              000                           
0010001300297T 020180230000002544776 29647041408028064   7               24032017000000000006000001016179                         0900000000000010000000000000000000000000000000000000000   0000000000000000000000000A9        170192964704     
0010001300298U 020000000000000000000000000000000000000000000000000000000000000000000000000000000000000000000000000000000000000000000000002203201700000000            000000000000000                              000                           
0010001300299T 020180230000002544776 29647041408124686   7               24032017000000000006000001016179                         0900000000000010000000000000000000000000000000000000000   0000000000000000000000000A9        170192964704     
0010001300300U 020000000000000000000000000000000000000000000000000000000000000000000000000000000000000000000000000000000000000000000000002203201700000000            000000000000000                              000                           
0010001300301T 020180230000002544776 29647041408305628   7               24032017000000000006000001000132                         0900000000000010000000000000000000000000000000000000000   0000000000000000000000000A9        170192964704     
0010001300302U 020000000000000000000000000000000000000000000000000000000000000000000000000000000000000000000000000000000000000000000000002203201700000000            000000000000000                              000                           
0010001300303T 020180230000002544776 29647041408324152   7               24032017000000000006000001000132                         0900000000000010000000000000000000000000000000000000000   0000000000000000000000000A9        170192964704     
0010001300304U 020000000000000000000000000000000000000000000000000000000000000000000000000000000000000000000000000000000000000000000000002203201700000000            000000000000000                              000                           
0010001300305T 020180230000002544776 29647041408332304   7               24032017000000000006000001000132                         0900000000000010000000000000000000000000000000000000000   0000000000000000000000000A9        170192964704     
0010001300306U 020000000000000000000000000000000000000000000000000000000000000000000000000000000000000000000000000000000000000000000000002203201700000000            000000000000000                              000                           
0010001300307T 020180230000002544776 29647041408422096   7               24032017000000000008000001028029                         0900000000000010000000000000000000000000000000000000000   0000000000000000000000000A9        170192964704     
0010001300308U 020000000000000000000000000000000000000000000000000000000000000000000000000000000000000000000000000000000000000000000000002203201700000000            000000000000000                              000                           
0010001300309T 020180230000002544776 29647041408735297   7               24032017000000000006000001001287                         0900000000000010000000000000000000000000000000000000000   0000000000000000000000000A9        170192964704     
0010001300310U 020000000000000000000000000000000000000000000000000000000000000000000000000000000000000000000000000000000000000000000000002203201700000000            000000000000000                              000                           
0010001300311T 020180230000002544776 29647041408843758   7               24032017000000000006000001000132                         0900000000000010000000000000000000000000000000000000000   0000000000000000000000000A9        170192964704     
0010001300312U 020000000000000000000000000000000000000000000000000000000000000000000000000000000000000000000000000000000000000000000000002203201700000000            000000000000000                              000                           
0010001300313T 020180230000002544776 29647041408916619   7               24032017000000000006000001028029                         0900000000000010000000000000000000000000000000000000000   0000000000000000000000000A9        170192964704     
0010001300314U 020000000000000000000000000000000000000000000000000000000000000000000000000000000000000000000000000000000000000000000000002203201700000000            000000000000000                              000                           
0010001300315T 020180230000002544776 29647041408938650   7               24032017000000000006000001028029                         0900000000000010000000000000000000000000000000000000000   0000000000000000000000000A9        170192964704     
0010001300316U 020000000000000000000000000000000000000000000000000000000000000000000000000000000000000000000000000000000000000000000000002203201700000000            000000000000000                              000                           
0010001300317T 020180230000002544776 29647041409054624   7               24032017000000000006000001016179                         0900000000000010000000000000000000000000000000000000000   0000000000000000000000000A9        170192964704     
0010001300318U 020000000000000000000000000000000000000000000000000000000000000000000000000000000000000000000000000000000000000000000000002203201700000000            000000000000000                              000                           
0010001300319T 020180230000002544776 29647041409055366   7               24032017000000000006000001016179                         0900000000000010000000000000000000000000000000000000000   0000000000000000000000000A9        170192964704     
0010001300320U 020000000000000000000000000000000000000000000000000000000000000000000000000000000000000000000000000000000000000000000000002203201700000000            000000000000000                              000                           
0010001300321T 020180230000002544776 29647041409059832   7               24032017000000000006000001016179                         0900000000000010000000000000000000000000000000000000000   0000000000000000000000000A9        170192964704     
0010001300322U 020000000000000000000000000000000000000000000000000000000000000000000000000000000000000000000000000000000000000000000000002203201700000000            000000000000000                              000                           
0010001300323T 020180230000002544776 29647041409140909   7               24032017000000000006000001020478                         0900000000000010000000000000000000000000000000000000000   0000000000000000000000000A9        170192964704     
0010001300324U 020000000000000000000000000000000000000000000000000000000000000000000000000000000000000000000000000000000000000000000000002203201700000000            000000000000000                              000                           
0010001300325T 020180230000002544776 29647041409318887   7               24032017000000000006000001001945                         0900000000000010000000000000000000000000000000000000000   0000000000000000000000000A9        170192964704     
0010001300326U 020000000000000000000000000000000000000000000000000000000000000000000000000000000000000000000000000000000000000000000000002203201700000000            000000000000000                              000                           
0010001300327T 020180230000002544776 29647041409441848   7               24032017000000000006000001008214                         0900000000000010000000000000000000000000000000000000000   0000000000000000000000000A9        170192964704     
0010001300328U 020000000000000000000000000000000000000000000000000000000000000000000000000000000000000000000000000000000000000000000000002203201700000000            000000000000000                              000                           
0010001300329T 020180230000002544776 29647041409606502   7               24032017000000000006000001028029                         0900000000000010000000000000000000000000000000000000000   0000000000000000000000000A9        170192964704     
0010001300330U 020000000000000000000000000000000000000000000000000000000000000000000000000000000000000000000000000000000000000000000000002203201700000000            000000000000000                              000                           
0010001300331T 020180230000002544776 29647041409855028   7               24032017000000000006000001028029                         0900000000000010500000000000000000000000000000000000000   0000000000000000000000000A9A4      170192964704     
0010001300332U 020000000000000000000000000000000000000000000000000000000000000000000000000000000000000000000000000000000000000000000000002203201700000000            000000000000000                              000                           
0010001300333T 020180230000002544776 29647041409922298   7               24032017000000000006000001016179                         0900000000000010000000000000000000000000000000000000000   0000000000000000000000000A9        170192964704     
0010001300334U 020000000000000000000000000000000000000000000000000000000000000000000000000000000000000000000000000000000000000000000000002203201700000000            000000000000000                              000                           
0010001300335T 020180230000002544776 29647041410052131   7               24032017000000000008000001001511                         0900000000000010000000000000000000000000000000000000000   0000000000000000000000000A9        170192964704     
0010001300336U 020000000000000000000000000000000000000000000000000000000000000000000000000000000000000000000000000000000000000000000000002203201700000000            000000000000000                              000                           
0010001300337T 020180230000002544776 29647041410137409   7               24032017000000000006000001008214                         0900000000000010000000000000000000000000000000000000000   0000000000000000000000000A9        170192964704     
0010001300338U 020000000000000000000000000000000000000000000000000000000000000000000000000000000000000000000000000000000000000000000000002203201700000000            000000000000000                              000                           
0010001300339T 020180230000002544776 29647041410409921   7               24032017000000000008000001028029                         0900000000000010000000000000000000000000000000000000000   0000000000000000000000000A9        170192964704     
0010001300340U 020000000000000000000000000000000000000000000000000000000000000000000000000000000000000000000000000000000000000000000000002203201700000000            000000000000000                              000                           
0010001300341T 020180230000002544776 29647041410532600   7               24032017000000000006000001000132                         0900000000000010000000000000000000000000000000000000000   0000000000000000000000000A9        170192964704     
0010001300342U 020000000000000000000000000000000000000000000000000000000000000000000000000000000000000000000000000000000000000000000000002203201700000000            000000000000000                              000                           
0010001300343T 020180230000002544776 29647041410640660   7               24032017000000000006000001013617                         0900000000000010000000000000000000000000000000000000000   0000000000000000000000000A9        170192964704     
0010001300344U 020000000000000000000000000000000000000000000000000000000000000000000000000000000000000000000000000000000000000000000000002203201700000000            000000000000000                              000                           
0010001300345T 020180230000002544776 29647041410733048   7               24032017000000000006000001012467                         0900000000000010000000000000000000000000000000000000000   0000000000000000000000000A9        170192964704     
0010001300346U 020000000000000000000000000000000000000000000000000000000000000000000000000000000000000000000000000000000000000000000000002203201700000000            000000000000000                              000                           
0010001300347T 020180230000002544776 29647041410837282   7               24032017000000000008000001017310                         0900000000000010000000000000000000000000000000000000000   0000000000000000000000000A9        170192964704     
0010001300348U 020000000000000000000000000000000000000000000000000000000000000000000000000000000000000000000000000000000000000000000000002203201700000000            000000000000000                              000                           
0010001300349T 020180230000002544776 29647041410914405   7               24032017000000000006000001016179                         0900000000000010000000000000000000000000000000000000000   0000000000000000000000000A9        170192964704     
0010001300350U 020000000000000000000000000000000000000000000000000000000000000000000000000000000000000000000000000000000000000000000000002203201700000000            000000000000000                              000                           
0010001300351T 020180230000002544776 29647041411049298   7               24032017000000000008000001010421                         0900000000000010000000000000000000000000000000000000000   0000000000000000000000000A9        170192964704     
0010001300352U 020000000000000000000000000000000000000000000000000000000000000000000000000000000000000000000000000000000000000000000000002203201700000000            000000000000000                              000                           
0010001300353T 060180230000002544776 29647040558808667   7               22032017000000000006000104023910                         0900000000000010000000000000000000000000000000000000000   000000000000000000000029000        170192964704     
0010001300354U 060000000000000000000000000000000000000000000000000000000000000000000000060000000000000057100000000000000000000000000000002203201724032017            000000000000000                              000                           
0010001300355T 060180230000002544776 29647040642938177   7               23032017000000000006000001012858                         0900000000000010000000000000000000000000000000000000000   000000000000000000000029000        170192964704     
0010001300356U 060000000000000000000000000000000000000000000000000000000000000000000000060000000000000057100000000000000000000000000000002203201724032017            000000000000000                              000                           
0010001300357T 060180230000002544776 29647040705440390   7               24032017000000000008000001083607                         0900000000000010000000000000000000000000000000000000000   000000000000000000000029000        170192964704     
0010001300358U 060000000000000000000000000000000000000000000000000000000000000000000000080000000000000077100000000000000000000000000000002203201724032017            000000000000000                              000                           
0010001300359T 060180230000002544776 29647040850814027   7               23032017000000000006000104000450                         0900000000000010000000000000000000000000000000000000000   000000000000000000000029000        170192964704     
0010001300360U 060000000000000000000000000000000000000000000000000000000000000000000000060000000000000057100000000000000000000000000000002203201724032017            000000000000000                              000                           
0010001300361T 060180230000002544776 29647040867212737   7               23032017000000000006000104011060                         0900000000000010000000000000000000000000000000000000000   000000000000000000000029000        170192964704     
0010001300362U 060000000000000000000000000000000000000000000000000000000000000000000000060000000000000057100000000000000000000000000000002203201724032017            000000000000000                              000                           
0010001300363T 170180230000002544776 29647040882919471   7               00000000000000000008000104009040                         0900000000000010000000000000000000000000000000000000000   000000000000000000000070003        170192964704     
0010001300364U 170000000000000000000000000000000000000000000000000000000000000000000000080000000000000073000000000000000000000000000000002203201724032017            000000000000000                              000                           
0010001300365T 060180230000002544776 29647040932205300   7               16032017000000000006000001000639                         0900000000000010000000000000000000000000000000000000000   000000000000000000000029000        170192964704     
0010001300366U 060000000000000820000000000000000000000000000000000000000000000000000000060820000000000057920000000000000000000000000000002203201724032017            000000000000000                              000                           
0010001300367T 060180230000002544776 29647040985228071   7               23032017000000000008000237054390                         0900000000000010000000000000000000000000000000000000000   000000000000000000000029000        170192964704     
0010001300368U 060000000000000000000000000000000000000000000000000000000000000000000000080000000000000077100000000000000000000000000000002203201724032017            000000000000000                              000                           
0010001300369T 060180230000002544776 29647040988351764   7               23032017000000000008000237032260                         0900000000000010000000000000000000000000000000000000000   000000000000000000000029000        170192964704     
0010001300370U 060000000000000000000000000000000000000000000000000000000000000000000000080000000000000077100000000000000000000000000000002203201724032017            000000000000000                              000                           
0010001300371T 060180230000002544776 29647041140221675   7               23032017000000000006000033040200                         0900000000000010000000000000000000000000000000000000000   000000000000000000000029000        170192964704     
0010001300372U 060000000000000000000000000000000000000000000000000000000000000000000000060000000000000057100000000000000000000000000000002203201724032017            000000000000000                              000                           
0010001300373T 060180230000002544776 29647041142117739   7               24032017000000000006000237032110                         0900000000000010000000000000000000000000000000000000000   000000000000000000000029000        170192964704     
0010001300374U 060000000000000000000000000000000000000000000000000000000000000000000000060000000000000057100000000000000000000000000000002203201724032017            000000000000000                              000                           
0010001300375T 060180230000002544776 29647041142852843   7               24032017000000000008000237032110                         0900000000000010000000000000000000000000000000000000000   000000000000000000000029000        170192964704     
0010001300376U 060000000000000000000000000000000000000000000000000000000000000000000000080000000000000077100000000000000000000000000000002203201724032017            000000000000000                              000                           
0010001300377T 060180230000002544776 29647041152947883   7               22032017000000000008000001014214                         0900000000000010000000000000000000000000000000000000000   000000000000000000000029000        170192964704     
0010001300378U 060000000000000000000000000000000000000000000000000000000000000000000000080000000000000077100000000000000000000000000000002203201724032017            000000000000000                              000                           
0010001300379T 170180230000002544776 29647041244713255   7               00000000000000000008000237004270                         0900000000000010000000000000000000000000000000000000000   000000000000000000000070003        170192964704     
0010001300380U 170000000000000000000000000000000000000000000000000000000000000000000000080000000000000073000000000000000000000000000000002203201724032017            000000000000000                              000                           
0010001300381T 060180230000002544776 29647041310617479   7               22032017000000000008000104020440                         0900000000000010000000000000000000000000000000000000000   000000000000000000000029000        170192964704     
0010001300382U 060000000000000000000000000000000000000000000000000000000000000000000000080000000000000077100000000000000000000000000000002203201724032017            000000000000000                              000                           
0010001300383T 060180230000002544776 29647041328137450   7               22032017000000000008000104044060                         0900000000000010000000000000000000000000000000000000000   000000000000000000000029000        170192964704     
0010001300384U 060000000000000000000000000000000000000000000000000000000000000000000000080000000000000077100000000000000000000000000000002203201724032017            000000000000000                              000                           
0010001300385T 060180230000002544776 29647041345032335   7               22032017000000000008000237032260                         0900000000000010000000000000000000000000000000000000000   000000000000000000000029000        170192964704     
0010001300386U 060000000000000000000000000000000000000000000000000000000000000000000000080000000000000077100000000000000000000000000000002203201724032017            000000000000000                              000                           
0010001300387T 060180230000002544776 29647041347103262   7               23032017000000000006000104008400                         0900000000000010000000000000000000000000000000000000000   000000000000000000000029000        170192964704     
0010001300388U 060000000000000000000000000000000000000000000000000000000000000000000000060000000000000057100000000000000000000000000000002203201724032017            000000000000000                              000                           
0010001300389T 060180230000002544776 29647041352331121   7               24032017000000000006000033032110                         0900000000000010000000000000000000000000000000000000000   000000000000000000000029000        170192964704     
0010001300390U 060000000000000000000000000000000000000000000000000000000000000000000000060000000000000057100000000000000000000000000000002203201724032017            000000000000000                              000                           
0010001300391T 060180230000002544776 29647041353754804   7               24032017000000000006000033032110                         0900000000000010000000000000000000000000000000000000000   000000000000000000000029000        170192964704     
0010001300392U 060000000000000000000000000000000000000000000000000000000000000000000000060000000000000057100000000000000000000000000000002203201724032017            000000000000000                              000                           
0010001300393T 060180230000002544776 29647041361403046   7               22032017000000000006000104022210                         0900000000000010000000000000000000000000000000000000000   000000000000000000000029000        170192964704     
0010001300394U 060000000000000000000000000000000000000000000000000000000000000000000000060000000000000057100000000000000000000000000000002203201724032017            000000000000000                              000                           
0010001300395T 060180230000002544776 29647041362504190   7               22032017000000000006000033032950                         0900000000000010000000000000000000000000000000000000000   000000000000000000000029000        170192964704     
0010001300396U 060000000000000000000000000000000000000000000000000000000000000000000000060000000000000057100000000000000000000000000000002203201724032017            000000000000000                              000                           
0010001300397T 060180230000002544776 29647041362754176   7               22032017000000000006000341073760                         0900000000000010000000000000000000000000000000000000000   000000000000000000000029000        170192964704     
0010001300398U 060000000000000000000000000000000000000000000000000000000000000000000000060000000000000057100000000000000000000000000000002203201724032017            000000000000000                              000                           
0010001300399T 060180230000002544776 29647041365248234   7               2203201700000000000600000105755X                         0900000000000010000000000000000000000000000000000000000   000000000000000000000029000        170192964704     
0010001300400U 060000000000000000000000000000000000000000000000000000000000000000000000060000000000000057100000000000000000000000000000002203201724032017            000000000000000                              000                           
0010001300401T 060180230000002544776 29647041365632191   7               22032017000000000006000001016349                         0900000000000010000000000000000000000000000000000000000   000000000000000000000029000        170192964704     
0010001300402U 060000000000000000000000000000000000000000000000000000000000000000000000060000000000000057100000000000000000000000000000002203201724032017            000000000000000                              000                           
0010001300403T 060180230000002544776 29647041365715128   7               22032017000000000006000001031798                         0900000000000010000000000000000000000000000000000000000   000000000000000000000029000        170192964704     
0010001300404U 060000000000000000000000000000000000000000000000000000000000000000000000060000000000000057100000000000000000000000000000002203201724032017            000000000000000                              000                           
0010001300405T 060180230000002544776 29647041366544892   7               22032017000000000006000104010310                         0900000000000010000000000000000000000000000000000000000   000000000000000000000029000        170192964704     
0010001300406U 060000000000000000000000000000000000000000000000000000000000000000000000060000000000000057100000000000000000000000000000002203201724032017            000000000000000                              000                           
0010001300407T 060180230000002544776 29647041367417633   7               22032017000000000006000237029470                         0900000000000010000000000000000000000000000000000000000   000000000000000000000029000        170192964704     
0010001300408U 060000000000000000000000000000000000000000000000000000000000000000000000060000000000000057100000000000000000000000000000002203201724032017            000000000000000                              000                           
0010001300409T 060180230000002544776 29647041368544171   7               22032017000000000006000001030570                         0900000000000010000000000000000000000000000000000000000   000000000000000000000029000        170192964704     
0010001300410U 060000000000000000000000000000000000000000000000000000000000000000000000060000000000000057100000000000000000000000000000002203201724032017            000000000000000                              000                           
0010001300411T 170180230000002544776 29647041370200435   7               00000000000000000006000001036137                         0900000000000010000000000000000000000000000000000000000   000000000000000000000070003        170192964704     
0010001300412U 170000000000000000000000000000000000000000000000000000000000000000000000060000000000000053000000000000000000000000000000002203201724032017            000000000000000                              000                           
