00100000         2247745860001000029647040014       0180230000002544776 INSTITUTO DE SELECAO E TECNOLOBANCO DO BRASIL                         22303201701361300007403000000515122941PROCESSAMEN                                                 
00100011T0100020 20247745860001000029647040014       0180230000002544776 INSTITUTO DE SELECAO E TECNOLO                                                                                000000002303201700000000  000000000                      
0010001300001T 020180230000002544776 29647040507314132   7               25032017000000000008000001016179                         0900000000000010000000000000000000000000000000000000000   0000000000000000000000000A9        170192964704     
0010001300002U 020000000000000000000000000000000000000000000000000000000000000000000000000000000000000000000000000000000000000000000000002303201700000000            000000000000000                              000                           
0010001300003T 020180230000002544776 29647040517108278   7               25032017000000000008000001014028                         0900000000000010000000000000000000000000000000000000000   0000000000000000000000000A9        170192964704     
0010001300004U 020000000000000000000000000000000000000000000000000000000000000000000000000000000000000000000000000000000000000000000000002303201700000000            000000000000000                              000                           
0010001300005T 020180230000002544776 29647040544051736   7               25032017000000000008000001023655                         0900000000000010500000000000000000000000000000000000000   0000000000000000000000000A9A4      170192964704     
0010001300006U 020000000000000000000000000000000000000000000000000000000000000000000000000000000000000000000000000000000000000000000000002303201700000000            000000000000000                              000                           
0010001300007T 020180230000002544776 29647040546308189   7               2503201700000000000600000100233X                         0900000000000010000000000000000000000000000000000000000   0000000000000000000000000A9        170192964704     
0010001300008U 020000000000000000000000000000000000000000000000000000000000000000000000000000000000000000000000000000000000000000000000002303201700000000            000000000000000                              000                           
0010001300009T 020180230000002544776 29647040581124971   7               25032017000000000006000001000132                         0900000000000010000000000000000000000000000000000000000   0000000000000000000000000A9        170192964704     
0010001300010U 020000000000000000000000000000000000000000000000000000000000000000000000000000000000000000000000000000000000000000000000002303201700000000            000000000000000                              000                           
0010001300011T 020180230000002544776 29647040590049479   7               25032017000000000006000001002003                         0900000000000010000000000000000000000000000000000000000   0000000000000000000000000A9        170192964704     
0010001300012U 020000000000000000000000000000000000000000000000000000000000000000000000000000000000000000000000000000000000000000000000002303201700000000            000000000000000                              000                           
0010001300013T 020180230000002544776 29647040636959354   7               25032017000000000006000001028495                         0900000000000010000000000000000000000000000000000000000   0000000000000000000000000A9        170192964704     
0010001300014U 020000000000000000000000000000000000000000000000000000000000000000000000000000000000000000000000000000000000000000000000002303201700000000            000000000000000                              000                           
0010001300015T 020180230000002544776 29647040662023027   7               25032017000000000006000001016179                         0900000000000010500000000000000000000000000000000000000   0000000000000000000000000A9A4      170192964704     
0010001300016U 020000000000000000000000000000000000000000000000000000000000000000000000000000000000000000000000000000000000000000000000002303201700000000            000000000000000                              000                           
0010001300017T 020180230000002544776 29647040756432656   7               25032017000000000006000001012467                         0900000000000010500000000000000000000000000000000000000   0000000000000000000000000A9A4      170192964704     
0010001300018U 020000000000000000000000000000000000000000000000000000000000000000000000000000000000000000000000000000000000000000000000002303201700000000            000000000000000                              000                           
0010001300019T 020180230000002544776 29647040772822690   7               25032017000000000006000001038148                         0900000000000010000000000000000000000000000000000000000   0000000000000000000000000A9        170192964704     
0010001300020U 020000000000000000000000000000000000000000000000000000000000000000000000000000000000000000000000000000000000000000000000002303201700000000            000000000000000                              000                           
0010001300021T 020180230000002544776 29647040772831433   7               25032017000000000006000001038148                         0900000000000010000000000000000000000000000000000000000   0000000000000000000000000A9        170192964704     
0010001300022U 020000000000000000000000000000000000000000000000000000000000000000000000000000000000000000000000000000000000000000000000002303201700000000            000000000000000                              000                           
0010001300023T 020180230000002544776 29647040791529179   7               25032017000000000006000001016179                         0900000000000010500000000000000000000000000000000000000   0000000000000000000000000A9A4      170192964704     
0010001300024U 020000000000000000000000000000000000000000000000000000000000000000000000000000000000000000000000000000000000000000000000002303201700000000            000000000000000                              000                           
0010001300025T 020180230000002544776 29647040791546555   7               25032017000000000006000001016179                         0900000000000010500000000000000000000000000000000000000   0000000000000000000000000A9A4      170192964704     
0010001300026U 020000000000000000000000000000000000000000000000000000000000000000000000000000000000000000000000000000000000000000000000002303201700000000            000000000000000                              000                           
0010001300027T 020180230000002544776 29647040800344820   7               25032017000000000006000001023655                         0900000000000010000000000000000000000000000000000000000   0000000000000000000000000A9        170192964704     
0010001300028U 020000000000000000000000000000000000000000000000000000000000000000000000000000000000000000000000000000000000000000000000002303201700000000            000000000000000                              000                           
0010001300029T 020180230000002544776 29647040838823314   7               25032017000000000006000001033316                         0900000000000010000000000000000000000000000000000000000   0000000000000000000000000A9        170192964704     
0010001300030U 020000000000000000000000000000000000000000000000000000000000000000000000000000000000000000000000000000000000000000000000002303201700000000            000000000000000                              000                           
0010001300031T 020180230000002544776 29647040861151506   7               25032017000000000006000001020478                         0900000000000010500000000000000000000000000000000000000   0000000000000000000000000A9A4      170192964704     
0010001300032U 020000000000000000000000000000000000000000000000000000000000000000000000000000000000000000000000000000000000000000000000002303201700000000            000000000000000                              000                           
0010001300033T 020180230000002544776 29647040875955033   7               25032017000000000006000001016179                         0900000000000010000000000000000000000000000000000000000   0000000000000000000000000A9        170192964704     
0010001300034U 020000000000000000000000000000000000000000000000000000000000000000000000000000000000000000000000000000000000000000000000002303201700000000            000000000000000                              000                           
0010001300035T 020180230000002544776 29647040932543488   7               25032017000000000006000001028029                         0900000000000010000000000000000000000000000000000000000   0000000000000000000000000A9        170192964704     
0010001300036U 020000000000000000000000000000000000000000000000000000000000000000000000000000000000000000000000000000000000000000000000002303201700000000            000000000000000                              000                           
0010001300037T 020180230000002544776 29647040950528202   7               24032017000000000006000001023183                         0900000000000010000000000000000000000000000000000000000   0000000000000000000000000A9        170192964704     
0010001300038U 020000000000000000000000000000000000000000000000000000000000000000000000000000000000000000000000000000000000000000000000002203201700000000            000000000000000                              000                           
0010001300039T 020180230000002544776 29647040951701498   7               25032017000000000006000001018376                         0900000000000010000000000000000000000000000000000000000   0000000000000000000000000A9        170192964704     
0010001300040U 020000000000000000000000000000000000000000000000000000000000000000000000000000000000000000000000000000000000000000000000002303201700000000            000000000000000                              000                           
0010001300041T 020180230000002544776 29647040951740483   7               25032017000000000006000001018376                         0900000000000010000000000000000000000000000000000000000   0000000000000000000000000A9        170192964704     
0010001300042U 020000000000000000000000000000000000000000000000000000000000000000000000000000000000000000000000000000000000000000000000002303201700000000            000000000000000                              000                           
0010001300043T 020180230000002544776 29647040965040881   7               25032017000000000006000001028029                         0900000000000010000000000000000000000000000000000000000   0000000000000000000000000A9        170192964704     
0010001300044U 020000000000000000000000000000000000000000000000000000000000000000000000000000000000000000000000000000000000000000000000002303201700000000            000000000000000                              000                           
0010001300045T 020180230000002544776 29647040965133705   7               25032017000000000006000001016179                         0900000000000010000000000000000000000000000000000000000   0000000000000000000000000A9        170192964704     
0010001300046U 020000000000000000000000000000000000000000000000000000000000000000000000000000000000000000000000000000000000000000000000002303201700000000            000000000000000                              000                           
0010001300047T 020180230000002544776 29647041002308508   7               25032017000000000006000001033316                         0900000000000010000000000000000000000000000000000000000   0000000000000000000000000A9        170192964704     
0010001300048U 020000000000000000000000000000000000000000000000000000000000000000000000000000000000000000000000000000000000000000000000002303201700000000            000000000000000                              000                           
0010001300049T 020180230000002544776 29647041021330177   7               25032017000000000006000001012467                         0900000000000010000000000000000000000000000000000000000   0000000000000000000000000A9        170192964704     
0010001300050U 020000000000000000000000000000000000000000000000000000000000000000000000000000000000000000000000000000000000000000000000002303201700000000            000000000000000                              000                           
0010001300051T 020180230000002544776 29647041025511043   7               25032017000000000006000001028029                         0900000000000010000000000000000000000000000000000000000   0000000000000000000000000A9        170192964704     
0010001300052U 020000000000000000000000000000000000000000000000000000000000000000000000000000000000000000000000000000000000000000000000002303201700000000            000000000000000                              000                           
0010001300053T 020180230000002544776 29647041050532054   7               25032017000000000006000001028495                         0900000000000010000000000000000000000000000000000000000   0000000000000000000000000A9        170192964704     
0010001300054U 020000000000000000000000000000000000000000000000000000000000000000000000000000000000000000000000000000000000000000000000002303201700000000            000000000000000                              000                           
0010001300055T 020180230000002544776 29647041078908216   7               25032017000000000006000001005428                         0900000000000010000000000000000000000000000000000000000   0000000000000000000000000A9        170192964704     
0010001300056U 020000000000000000000000000000000000000000000000000000000000000000000000000000000000000000000000000000000000000000000000002303201700000000            000000000000000                              000                           
0010001300057T 020180230000002544776 29647041118949121   7               25032017000000000006000001012467                         0900000000000010000000000000000000000000000000000000000   0000000000000000000000000A9        170192964704     
0010001300058U 020000000000000000000000000000000000000000000000000000000000000000000000000000000000000000000000000000000000000000000000002303201700000000            000000000000000                              000                           
0010001300059T 020180230000002544776 29647041123501072   7               25032017000000000006000001044865                         0900000000000010000000000000000000000000000000000000000   0000000000000000000000000A9        170192964704     
0010001300060U 020000000000000000000000000000000000000000000000000000000000000000000000000000000000000000000000000000000000000000000000002303201700000000            000000000000000                              000                           
0010001300061T 020180230000002544776 29647041132618821   7               25032017000000000008000001016020                         0900000000000010000000000000000000000000000000000000000   0000000000000000000000000A9        170192964704     
0010001300062U 020000000000000000000000000000000000000000000000000000000000000000000000000000000000000000000000000000000000000000000000002303201700000000            000000000000000                              000                           
0010001300063T 020180230000002544776 29647041220818572   7               25032017000000000006000001033316                         0900000000000010500000000000000000000000000000000000000   0000000000000000000000000A9A4      170192964704     
0010001300064U 020000000000000000000000000000000000000000000000000000000000000000000000000000000000000000000000000000000000000000000000002303201700000000            000000000000000                              000                           
0010001300065T 020180230000002544776 29647041229026848   7               25032017000000000006000001028495                         0900000000000010000000000000000000000000000000000000000   0000000000000000000000000A9        170192964704     
0010001300066U 020000000000000000000000000000000000000000000000000000000000000000000000000000000000000000000000000000000000000000000000002303201700000000            000000000000000                              000                           
0010001300067T 020180230000002544776 29647041229053551   7               25032017000000000006000001028495                         0900000000000010000000000000000000000000000000000000000   0000000000000000000000000A9        170192964704     
0010001300068U 020000000000000000000000000000000000000000000000000000000000000000000000000000000000000000000000000000000000000000000000002303201700000000            000000000000000                              000                           
0010001300069T 020180230000002544776 29647041230139780   7               25032017000000000006000001010421                         0900000000000010000000000000000000000000000000000000000   0000000000000000000000000A9        170192964704     
0010001300070U 020000000000000000000000000000000000000000000000000000000000000000000000000000000000000000000000000000000000000000000000002303201700000000            000000000000000                              000                           
0010001300071T 020180230000002544776 29647041231026324   7               25032017000000000006000001016179                         0900000000000010000000000000000000000000000000000000000   0000000000000000000000000A9        170192964704     
0010001300072U 020000000000000000000000000000000000000000000000000000000000000000000000000000000000000000000000000000000000000000000000002303201700000000            000000000000000                              000                           
0010001300073T 020180230000002544776 29647041265209888   7               25032017000000000008000001014028                         0900000000000010000000000000000000000000000000000000000   0000000000000000000000000A9        170192964704     
0010001300074U 020000000000000000000000000000000000000000000000000000000000000000000000000000000000000000000000000000000000000000000000002303201700000000            000000000000000                              000                           
0010001300075T 020180230000002544776 29647041266012387   7               25032017000000000006000001011444                         0900000000000010000000000000000000000000000000000000000   0000000000000000000000000A9        170192964704     
0010001300076U 020000000000000000000000000000000000000000000000000000000000000000000000000000000000000000000000000000000000000000000000002303201700000000            000000000000000                              000                           
0010001300077T 020180230000002544776 29647041278024808   7               25032017000000000006000001012467                         0900000000000010000000000000000000000000000000000000000   0000000000000000000000000A9        170192964704     
0010001300078U 020000000000000000000000000000000000000000000000000000000000000000000000000000000000000000000000000000000000000000000000002303201700000000            000000000000000                              000                           
0010001300079T 020180230000002544776 29647041278032863   7               25032017000000000006000001012467                         0900000000000010000000000000000000000000000000000000000   0000000000000000000000000A9        170192964704     
0010001300080U 020000000000000000000000000000000000000000000000000000000000000000000000000000000000000000000000000000000000000000000000002303201700000000            000000000000000                              000                           
0010001300081T 020180230000002544776 29647041278036169   7               25032017000000000006000001012467                         0900000000000010000000000000000000000000000000000000000   0000000000000000000000000A9        170192964704     
0010001300082U 020000000000000000000000000000000000000000000000000000000000000000000000000000000000000000000000000000000000000000000000002303201700000000            000000000000000                              000                           
0010001300083T 020180230000002544776 29647041278056496   7               25032017000000000006000001012467                         0900000000000010000000000000000000000000000000000000000   0000000000000000000000000A9        170192964704     
0010001300084U 020000000000000000000000000000000000000000000000000000000000000000000000000000000000000000000000000000000000000000000000002303201700000000            000000000000000                              000                           
0010001300085T 020180230000002544776 29647041278057669   7               25032017000000000006000001012467                         0900000000000010000000000000000000000000000000000000000   0000000000000000000000000A9        170192964704     
0010001300086U 020000000000000000000000000000000000000000000000000000000000000000000000000000000000000000000000000000000000000000000000002303201700000000            000000000000000                              000                           
0010001300087T 020180230000002544776 29647041314740128   7               25032017000000000006000001012688                         0900000000000010000000000000000000000000000000000000000   0000000000000000000000000A9        170192964704     
0010001300088U 020000000000000000000000000000000000000000000000000000000000000000000000000000000000000000000000000000000000000000000000002303201700000000            000000000000000                              000                           
0010001300089T 020180230000002544776 29647041323950553   7               25032017000000000006000001028029                         0900000000000010000000000000000000000000000000000000000   0000000000000000000000000A9        170192964704     
0010001300090U 020000000000000000000000000000000000000000000000000000000000000000000000000000000000000000000000000000000000000000000000002303201700000000            000000000000000                              000                           
0010001300091T 020180230000002544776 29647041329724729   7               25032017000000000006000001016179                         0900000000000010000000000000000000000000000000000000000   0000000000000000000000000A9        170192964704     
0010001300092U 020000000000000000000000000000000000000000000000000000000000000000000000000000000000000000000000000000000000000000000000002303201700000000            000000000000000                              000                           
0010001300093T 020180230000002544776 29647041339648773   7               24032017000000000006000001016179                         0900000000000010000000000000000000000000000000000000000   0000000000000000000000000A9        170192964704     
0010001300094U 020000000000000000000000000000000000000000000000000000000000000000000000000000000000000000000000000000000000000000000000002203201700000000            000000000000000                              000                           
0010001300095T 020180230000002544776 29647041351620870   7               25032017000000000006000001013692                         0900000000000010000000000000000000000000000000000000000   0000000000000000000000000A9        170192964704     
0010001300096U 020000000000000000000000000000000000000000000000000000000000000000000000000000000000000000000000000000000000000000000000002303201700000000            000000000000000                              000                           
0010001300097T 020180230000002544776 29647041360934877   7               25032017000000000006000001028029                         0900000000000010000000000000000000000000000000000000000   0000000000000000000000000A9        170192964704     
0010001300098U 020000000000000000000000000000000000000000000000000000000000000000000000000000000000000000000000000000000000000000000000002303201700000000            000000000000000                              000                           
0010001300099T 020180230000002544776 29647041364806564   7               25032017000000000006000001023655                         0900000000000010000000000000000000000000000000000000000   0000000000000000000000000A9        170192964704     
0010001300100U 020000000000000000000000000000000000000000000000000000000000000000000000000000000000000000000000000000000000000000000000002303201700000000            000000000000000                              000                           
0010001300101T 020180230000002544776 29647041367026188   7               25032017000000000006000001028029                         0900000000000010000000000000000000000000000000000000000   0000000000000000000000000A9        170192964704     
0010001300102U 020000000000000000000000000000000000000000000000000000000000000000000000000000000000000000000000000000000000000000000000002303201700000000            000000000000000                              000                           
0010001300103T 020180230000002544776 29647041367052497   7               25032017000000000006000001028029                         0900000000000010000000000000000000000000000000000000000   0000000000000000000000000A9        170192964704     
0010001300104U 020000000000000000000000000000000000000000000000000000000000000000000000000000000000000000000000000000000000000000000000002303201700000000            000000000000000                              000                           
0010001300105T 020180230000002544776 29647041368751631   7               25032017000000000006000001012467                         0900000000000010000000000000000000000000000000000000000   0000000000000000000000000A9        170192964704     
0010001300106U 020000000000000000000000000000000000000000000000000000000000000000000000000000000000000000000000000000000000000000000000002303201700000000            000000000000000                              000                           
0010001300107T 020180230000002544776 29647041369101194   7               25032017000000000006000001009636                         0900000000000010000000000000000000000000000000000000000   0000000000000000000000000A9        170192964704     
0010001300108U 020000000000000000000000000000000000000000000000000000000000000000000000000000000000000000000000000000000000000000000000002303201700000000            000000000000000                              000                           
0010001300109T 020180230000002544776 29647041378222962   7               25032017000000000006000001028029                         0900000000000010000000000000000000000000000000000000000   0000000000000000000000000A9        170192964704     
0010001300110U 020000000000000000000000000000000000000000000000000000000000000000000000000000000000000000000000000000000000000000000000002303201700000000            000000000000000                              000                           
0010001300111T 020180230000002544776 29647041378228003   7               25032017000000000006000001028029                         0900000000000010000000000000000000000000000000000000000   0000000000000000000000000A9        170192964704     
0010001300112U 020000000000000000000000000000000000000000000000000000000000000000000000000000000000000000000000000000000000000000000000002303201700000000            000000000000000                              000                           
0010001300113T 020180230000002544776 29647041388155635   7               25032017000000000006000001028029                         0900000000000010000000000000000000000000000000000000000   0000000000000000000000000A9        170192964704     
0010001300114U 020000000000000000000000000000000000000000000000000000000000000000000000000000000000000000000000000000000000000000000000002303201700000000            000000000000000                              000                           
0010001300115T 020180230000002544776 29647041389715776   7               25032017000000000006000001028029                         0900000000000010000000000000000000000000000000000000000   0000000000000000000000000A9        170192964704     
0010001300116U 020000000000000000000000000000000000000000000000000000000000000000000000000000000000000000000000000000000000000000000000002303201700000000            000000000000000                              000                           
0010001300117T 020180230000002544776 29647041389730426   7               25032017000000000006000001028029                         0900000000000010000000000000000000000000000000000000000   0000000000000000000000000A9        170192964704     
0010001300118U 020000000000000000000000000000000000000000000000000000000000000000000000000000000000000000000000000000000000000000000000002303201700000000            000000000000000                              000                           
0010001300119T 020180230000002544776 29647041394122432   7               2503201700000000000600000100233X                         0900000000000010000000000000000000000000000000000000000   0000000000000000000000000A9        170192964704     
0010001300120U 020000000000000000000000000000000000000000000000000000000000000000000000000000000000000000000000000000000000000000000000002303201700000000            000000000000000                              000                           
0010001300121T 020180230000002544776 29647041397531480   7               25032017000000000006000001016179                         0900000000000010000000000000000000000000000000000000000   0000000000000000000000000A9        170192964704     
0010001300122U 020000000000000000000000000000000000000000000000000000000000000000000000000000000000000000000000000000000000000000000000002303201700000000            000000000000000                              000                           
0010001300123T 020180230000002544776 29647041401829707   7               25032017000000000006000001023655                         0900000000000010000000000000000000000000000000000000000   0000000000000000000000000A9        170192964704     
0010001300124U 020000000000000000000000000000000000000000000000000000000000000000000000000000000000000000000000000000000000000000000000002303201700000000            000000000000000                              000                           
0010001300125T 020180230000002544776 29647041401834588   7               25032017000000000006000001023655                         0900000000000010000000000000000000000000000000000000000   0000000000000000000000000A9        170192964704     
0010001300126U 020000000000000000000000000000000000000000000000000000000000000000000000000000000000000000000000000000000000000000000000002303201700000000            000000000000000                              000                           
0010001300127T 020180230000002544776 29647041401859069   7               25032017000000000006000001023655                         0900000000000010000000000000000000000000000000000000000   0000000000000000000000000A9        170192964704     
0010001300128U 020000000000000000000000000000000000000000000000000000000000000000000000000000000000000000000000000000000000000000000000002303201700000000            000000000000000                              000                           
0010001300129T 020180230000002544776 29647041405335799   7               25032017000000000006000001016179                         0900000000000010000000000000000000000000000000000000000   0000000000000000000000000A9        170192964704     
0010001300130U 020000000000000000000000000000000000000000000000000000000000000000000000000000000000000000000000000000000000000000000000002303201700000000            000000000000000                              000                           
0010001300131T 020180230000002544776 29647041408300400   7               25032017000000000006000001000132                         0900000000000010000000000000000000000000000000000000000   0000000000000000000000000A9        170192964704     
0010001300132U 020000000000000000000000000000000000000000000000000000000000000000000000000000000000000000000000000000000000000000000000002303201700000000            000000000000000                              000                           
0010001300133T 020180230000002544776 29647041411043968   7               24032017000000000008000001010421                         0900000000000010000000000000000000000000000000000000000   0000000000000000000000000A9        170192964704     
0010001300134U 020000000000000000000000000000000000000000000000000000000000000000000000000000000000000000000000000000000000000000000000002203201700000000            000000000000000                              000                           
0010001300135T 020180230000002544776 29647041411252820   7               24032017000000000006000001016179                         0900000000000010000000000000000000000000000000000000000   0000000000000000000000000A9        170192964704     
0010001300136U 020000000000000000000000000000000000000000000000000000000000000000000000000000000000000000000000000000000000000000000000002203201700000000            000000000000000                              000                           
0010001300137T 020180230000002544776 29647041411338270   7               24032017000000000006000001016179                         0900000000000010000000000000000000000000000000000000000   0000000000000000000000000A9        170192964704     
0010001300138U 020000000000000000000000000000000000000000000000000000000000000000000000000000000000000000000000000000000000000000000000002203201700000000            000000000000000                              000                           
0010001300139T 020180230000002544776 29647041411352960   7               24032017000000000006000001016179                         0900000000000010000000000000000000000000000000000000000   0000000000000000000000000A9        170192964704     
0010001300140U 020000000000000000000000000000000000000000000000000000000000000000000000000000000000000000000000000000000000000000000000002203201700000000            000000000000000                              000                           
0010001300141T 020180230000002544776 29647041411536757   7               24032017000000000006000001023655                         0900000000000010500000000000000000000000000000000000000   0000000000000000000000000A9A4      170192964704     
0010001300142U 020000000000000000000000000000000000000000000000000000000000000000000000000000000000000000000000000000000000000000000000002203201700000000            000000000000000                              000                           
0010001300143T 020180230000002544776 29647041411626411   7               25032017000000000006000001020478                         0900000000000010000000000000000000000000000000000000000   0000000000000000000000000A9        170192964704     
0010001300144U 020000000000000000000000000000000000000000000000000000000000000000000000000000000000000000000000000000000000000000000000002303201700000000            000000000000000                              000                           
0010001300145T 020180230000002544776 29647041411723356   7               25032017000000000006000001033316                         0900000000000010000000000000000000000000000000000000000   0000000000000000000000000A9        170192964704     
0010001300146U 020000000000000000000000000000000000000000000000000000000000000000000000000000000000000000000000000000000000000000000000002303201700000000            000000000000000                              000                           
0010001300147T 020180230000002544776 29647041411836463   7               25032017000000000006000001000132                         0900000000000010000000000000000000000000000000000000000   0000000000000000000000000A9        170192964704     
0010001300148U 020000000000000000000000000000000000000000000000000000000000000000000000000000000000000000000000000000000000000000000000002303201700000000            000000000000000                              000                           
0010001300149T 020180230000002544776 29647041411926263   7               25032017000000000006000001028029                         0900000000000010000000000000000000000000000000000000000   0000000000000000000000000A9        170192964704     
0010001300150U 020000000000000000000000000000000000000000000000000000000000000000000000000000000000000000000000000000000000000000000000002303201700000000            000000000000000                              000                           
0010001300151T 020180230000002544776 29647041412013867   7               25032017000000000006000001002321                         0900000000000010000000000000000000000000000000000000000   0000000000000000000000000A9        170192964704     
0010001300152U 020000000000000000000000000000000000000000000000000000000000000000000000000000000000000000000000000000000000000000000000002303201700000000            000000000000000                              000                           
0010001300153T 020180230000002544776 29647041412253251   7               25032017000000000008000001008214                         0900000000000010000000000000000000000000000000000000000   0000000000000000000000000A9        170192964704     
0010001300154U 020000000000000000000000000000000000000000000000000000000000000000000000000000000000000000000000000000000000000000000000002303201700000000            000000000000000                              000                           
0010001300155T 020180230000002544776 29647041412452146   7               25032017000000000006000001003018                         0900000000000010500000000000000000000000000000000000000   0000000000000000000000000A9A4      170192964704     
0010001300156U 020000000000000000000000000000000000000000000000000000000000000000000000000000000000000000000000000000000000000000000000002303201700000000            000000000000000                              000                           
0010001300157T 020180230000002544776 29647041412510213   7               25032017000000000006000001018376                         0900000000000010000000000000000000000000000000000000000   0000000000000000000000000A9        170192964704     
0010001300158U 020000000000000000000000000000000000000000000000000000000000000000000000000000000000000000000000000000000000000000000000002303201700000000            000000000000000                              000                           
0010001300159T 020180230000002544776 29647041412523691   7               25032017000000000006000001018376                         0900000000000010000000000000000000000000000000000000000   0000000000000000000000000A9        170192964704     
0010001300160U 020000000000000000000000000000000000000000000000000000000000000000000000000000000000000000000000000000000000000000000000002303201700000000            000000000000000                              000                           
0010001300161T 020180230000002544776 29647041412526556   7               25032017000000000006000001018376                         0900000000000010000000000000000000000000000000000000000   0000000000000000000000000A9        170192964704     
0010001300162U 020000000000000000000000000000000000000000000000000000000000000000000000000000000000000000000000000000000000000000000000002303201700000000            000000000000000                              000                           
0010001300163T 020180230000002544776 29647041412529388   7               25032017000000000006000001018376                         0900000000000010000000000000000000000000000000000000000   0000000000000000000000000A9        170192964704     
0010001300164U 020000000000000000000000000000000000000000000000000000000000000000000000000000000000000000000000000000000000000000000000002303201700000000            000000000000000                              000                           
0010001300165T 020180230000002544776 29647041412549761   7               25032017000000000006000001018376                         0900000000000010000000000000000000000000000000000000000   0000000000000000000000000A9        170192964704     
0010001300166U 020000000000000000000000000000000000000000000000000000000000000000000000000000000000000000000000000000000000000000000000002303201700000000            000000000000000                              000                           
0010001300167T 020180230000002544776 29647041412552173   7               25032017000000000006000001018376                         0900000000000010000000000000000000000000000000000000000   0000000000000000000000000A9        170192964704     
0010001300168U 020000000000000000000000000000000000000000000000000000000000000000000000000000000000000000000000000000000000000000000000002303201700000000            000000000000000                              000                           
0010001300169T 020180230000002544776 29647041412752773   7               25032017000000000008000001016500                         0900000000000010000000000000000000000000000000000000000   0000000000000000000000000A9        170192964704     
0010001300170U 020000000000000000000000000000000000000000000000000000000000000000000000000000000000000000000000000000000000000000000000002303201700000000            000000000000000                              000                           
0010001300171T 020180230000002544776 29647041412814195   7               25032017000000000006000001023655                         0900000000000010000000000000000000000000000000000000000   0000000000000000000000000A9        170192964704     
0010001300172U 020000000000000000000000000000000000000000000000000000000000000000000000000000000000000000000000000000000000000000000000002303201700000000            000000000000000                              000                           
0010001300173T 020180230000002544776 29647041412918234   7               25032017000000000006000001028029                         0900000000000010000000000000000000000000000000000000000   0000000000000000000000000A9        170192964704     
0010001300174U 020000000000000000000000000000000000000000000000000000000000000000000000000000000000000000000000000000000000000000000000002303201700000000            000000000000000                              000                           
0010001300175T 020180230000002544776 29647041413040840   7               25032017000000000006000001005479                         0900000000000010500000000000000000000000000000000000000   0000000000000000000000000A9A4      170192964704     
0010001300176U 020000000000000000000000000000000000000000000000000000000000000000000000000000000000000000000000000000000000000000000000002303201700000000            000000000000000                              000                           
0010001300177T 020180230000002544776 29647041413141414   7               25032017000000000006000001016179                         0900000000000010000000000000000000000000000000000000000   0000000000000000000000000A9        170192964704     
0010001300178U 020000000000000000000000000000000000000000000000000000000000000000000000000000000000000000000000000000000000000000000000002303201700000000            000000000000000                              000                           
0010001300179T 020180230000002544776 29647041413204068   7               25032017000000000006000001028029                         0900000000000010000000000000000000000000000000000000000   0000000000000000000000000A9        170192964704     
0010001300180U 020000000000000000000000000000000000000000000000000000000000000000000000000000000000000000000000000000000000000000000000002303201700000000            000000000000000                              000                           
0010001300181T 020180230000002544776 29647041413229988   7               25032017000000000006000001028029                         0900000000000010000000000000000000000000000000000000000   0000000000000000000000000A9        170192964704     
0010001300182U 020000000000000000000000000000000000000000000000000000000000000000000000000000000000000000000000000000000000000000000000002303201700000000            000000000000000                              000                           
0010001300183T 020180230000002544776 29647041413353615   7               25032017000000000006000001012467                         0900000000000010000000000000000000000000000000000000000   0000000000000000000000000A9        170192964704     
0010001300184U 020000000000000000000000000000000000000000000000000000000000000000000000000000000000000000000000000000000000000000000000002303201700000000            000000000000000                              000                           
0010001300185T 020180230000002544776 29647041413417727   7               25032017000000000006000001028029                         0900000000000010000000000000000000000000000000000000000   0000000000000000000000000A9        170192964704     
0010001300186U 020000000000000000000000000000000000000000000000000000000000000000000000000000000000000000000000000000000000000000000000002303201700000000            000000000000000                              000                           
0010001300187T 020180230000002544776 29647041413535260   7               25032017000000000006000001011347                         0900000000000010000000000000000000000000000000000000000   0000000000000000000000000A9        170192964704     
0010001300188U 020000000000000000000000000000000000000000000000000000000000000000000000000000000000000000000000000000000000000000000000002303201700000000            000000000000000                              000                           
0010001300189T 020180230000002544776 29647041413604315   7               25032017000000000006000001009636                         0900000000000010000000000000000000000000000000000000000   0000000000000000000000000A9        170192964704     
0010001300190U 020000000000000000000000000000000000000000000000000000000000000000000000000000000000000000000000000000000000000000000000002303201700000000            000000000000000                              000                           
0010001300191T 020180230000002544776 29647041413959391   7               25032017000000000008000001020354                         0900000000000010000000000000000000000000000000000000000   0000000000000000000000000A9        170192964704     
0010001300192U 020000000000000000000000000000000000000000000000000000000000000000000000000000000000000000000000000000000000000000000000002303201700000000            000000000000000                              000                           
0010001300193T 020180230000002544776 29647041414108584   7               25032017000000000006000001033316                         0900000000000010000000000000000000000000000000000000000   0000000000000000000000000A9        170192964704     
0010001300194U 020000000000000000000000000000000000000000000000000000000000000000000000000000000000000000000000000000000000000000000000002303201700000000            000000000000000                              000                           
0010001300195T 020180230000002544776 29647041414231288   7               25032017000000000006000001028029                         0900000000000010000000000000000000000000000000000000000   0000000000000000000000000A9        170192964704     
0010001300196U 020000000000000000000000000000000000000000000000000000000000000000000000000000000000000000000000000000000000000000000000002303201700000000            000000000000000                              000                           
0010001300197T 020180230000002544776 29647041414319537   7               25032017000000000006000001000361                         0900000000000010500000000000000000000000000000000000000   0000000000000000000000000A9A4      170192964704     
0010001300198U 020000000000000000000000000000000000000000000000000000000000000000000000000000000000000000000000000000000000000000000000002303201700000000            000000000000000                              000                           
0010001300199T 020180230000002544776 29647041414457590   7               25032017000000000006000001000132                         0900000000000010000000000000000000000000000000000000000   0000000000000000000000000A9        170192964704     
0010001300200U 020000000000000000000000000000000000000000000000000000000000000000000000000000000000000000000000000000000000000000000000002303201700000000            000000000000000                              000                           
0010001300201T 020180230000002544776 29647041414558805   7               25032017000000000006000001005428                         0900000000000010000000000000000000000000000000000000000   0000000000000000000000000A9        170192964704     
0010001300202U 020000000000000000000000000000000000000000000000000000000000000000000000000000000000000000000000000000000000000000000000002303201700000000            000000000000000                              000                           
0010001300203T 020180230000002544776 29647041414611540   7               25032017000000000006000001020354                         0900000000000010000000000000000000000000000000000000000   0000000000000000000000000A9        170192964704     
0010001300204U 020000000000000000000000000000000000000000000000000000000000000000000000000000000000000000000000000000000000000000000000002303201700000000            000000000000000                              000                           
0010001300205T 020180230000002544776 29647041414718380   7               25032017000000000006000001016179                         0900000000000010000000000000000000000000000000000000000   0000000000000000000000000A9        170192964704     
0010001300206U 020000000000000000000000000000000000000000000000000000000000000000000000000000000000000000000000000000000000000000000000002303201700000000            000000000000000                              000                           
0010001300207T 020180230000002544776 29647041414816193   7               25032017000000000006000001006254                         0900000000000010000000000000000000000000000000000000000   0000000000000000000000000A9        170192964704     
0010001300208U 020000000000000000000000000000000000000000000000000000000000000000000000000000000000000000000000000000000000000000000000002303201700000000            000000000000000                              000                           
0010001300209T 020180230000002544776 29647041414854785   7               25032017000000000006000001006254                         0900000000000010000000000000000000000000000000000000000   0000000000000000000000000A9        170192964704     
0010001300210U 020000000000000000000000000000000000000000000000000000000000000000000000000000000000000000000000000000000000000000000000002303201700000000            000000000000000                              000                           
0010001300211T 020180230000002544776 29647041415116190   7               25032017000000000006000001023655                         0900000000000010000000000000000000000000000000000000000   0000000000000000000000000A9        170192964704     
0010001300212U 020000000000000000000000000000000000000000000000000000000000000000000000000000000000000000000000000000000000000000000000002303201700000000            000000000000000                              000                           
0010001300213T 020180230000002544776 29647041415135274   7               25032017000000000006000001023655                         0900000000000010000000000000000000000000000000000000000   0000000000000000000000000A9        170192964704     
0010001300214U 020000000000000000000000000000000000000000000000000000000000000000000000000000000000000000000000000000000000000000000000002303201700000000            000000000000000                              000                           
0010001300215T 020180230000002544776 29647041415218265   7               25032017000000000008000001028029                         0900000000000010500000000000000000000000000000000000000   0000000000000000000000000A9A4      170192964704     
0010001300216U 020000000000000000000000000000000000000000000000000000000000000000000000000000000000000000000000000000000000000000000000002303201700000000            000000000000000                              000                           
0010001300217T 020180230000002544776 29647041415419673   7               25032017000000000006000001006734                         0900000000000010000000000000000000000000000000000000000   0000000000000000000000000A9        170192964704     
0010001300218U 020000000000000000000000000000000000000000000000000000000000000000000000000000000000000000000000000000000000000000000000002303201700000000            000000000000000                              000                           
0010001300219T 020180230000002544776 29647041415557716   7               25032017000000000006000001035041                         0900000000000010000000000000000000000000000000000000000   0000000000000000000000000A9        170192964704     
0010001300220U 020000000000000000000000000000000000000000000000000000000000000000000000000000000000000000000000000000000000000000000000002303201700000000            000000000000000                              000                           
0010001300221T 020180230000002544776 29647041415637679   7               25032017000000000006000001016179                         0900000000000010000000000000000000000000000000000000000   0000000000000000000000000A9        170192964704     
0010001300222U 020000000000000000000000000000000000000000000000000000000000000000000000000000000000000000000000000000000000000000000000002303201700000000            000000000000000                              000                           
0010001300223T 020180230000002544776 29647041415702443   7               25032017000000000006000001012807                         0900000000000010000000000000000000000000000000000000000   0000000000000000000000000A9        170192964704     
0010001300224U 020000000000000000000000000000000000000000000000000000000000000000000000000000000000000000000000000000000000000000000000002303201700000000            000000000000000                              000                           
0010001300225T 020180230000002544776 29647041415821996   7               25032017000000000006000001012467                         0900000000000010000000000000000000000000000000000000000   0000000000000000000000000A9        170192964704     
0010001300226U 020000000000000000000000000000000000000000000000000000000000000000000000000000000000000000000000000000000000000000000000002303201700000000            000000000000000                              000                           
0010001300227T 020180230000002544776 29647041416156606   7               25032017000000000006000001000361                         0900000000000010000000000000000000000000000000000000000   0000000000000000000000000A9        170192964704     
0010001300228U 020000000000000000000000000000000000000000000000000000000000000000000000000000000000000000000000000000000000000000000000002303201700000000            000000000000000                              000                           
0010001300229T 020180230000002544776 29647041416216386   7               25032017000000000006000001002003                         0900000000000010000000000000000000000000000000000000000   0000000000000000000000000A9        170192964704     
0010001300230U 020000000000000000000000000000000000000000000000000000000000000000000000000000000000000000000000000000000000000000000000002303201700000000            000000000000000                              000                           
0010001300231T 020180230000002544776 29647041416254021   7               25032017000000000006000001002003                         0900000000000010000000000000000000000000000000000000000   0000000000000000000000000A9        170192964704     
0010001300232U 020000000000000000000000000000000000000000000000000000000000000000000000000000000000000000000000000000000000000000000000002303201700000000            000000000000000                              000                           
0010001300233T 020180230000002544776 29647041416305709   7               25032017000000000006000001016179                         0900000000000010000000000000000000000000000000000000000   0000000000000000000000000A9        170192964704     
0010001300234U 020000000000000000000000000000000000000000000000000000000000000000000000000000000000000000000000000000000000000000000000002303201700000000            000000000000000                              000                           
0010001300235T 020180230000002544776 29647041416456894   7               25032017000000000006000001012807                         0900000000000010000000000000000000000000000000000000000   0000000000000000000000000A9        170192964704     
0010001300236U 020000000000000000000000000000000000000000000000000000000000000000000000000000000000000000000000000000000000000000000000002303201700000000            000000000000000                              000                           
0010001300237T 020180230000002544776 29647041416531485   7               25032017000000000006000001016179                         0900000000000010000000000000000000000000000000000000000   0000000000000000000000000A9        170192964704     
0010001300238U 020000000000000000000000000000000000000000000000000000000000000000000000000000000000000000000000000000000000000000000000002303201700000000            000000000000000                              000                           
0010001300239T 020180230000002544776 29647041416625801   7               25032017000000000006000001028029                         0900000000000010000000000000000000000000000000000000000   0000000000000000000000000A9        170192964704     
0010001300240U 020000000000000000000000000000000000000000000000000000000000000000000000000000000000000000000000000000000000000000000000002303201700000000            000000000000000                              000                           
0010001300241T 020180230000002544776 29647041416751594   7               25032017000000000006000001021911                         0900000000000010000000000000000000000000000000000000000   0000000000000000000000000A9        170192964704     
0010001300242U 020000000000000000000000000000000000000000000000000000000000000000000000000000000000000000000000000000000000000000000000002303201700000000            000000000000000                              000                           
0010001300243T 020180230000002544776 29647041417049584   7               25032017000000000006000001020354                         0900000000000010000000000000000000000000000000000000000   0000000000000000000000000A9        170192964704     
0010001300244U 020000000000000000000000000000000000000000000000000000000000000000000000000000000000000000000000000000000000000000000000002303201700000000            000000000000000                              000                           
0010001300245T 020180230000002544776 29647041417124065   7               25032017000000000006000001012467                         0900000000000010000000000000000000000000000000000000000   0000000000000000000000000A9        170192964704     
0010001300246U 020000000000000000000000000000000000000000000000000000000000000000000000000000000000000000000000000000000000000000000000002303201700000000            000000000000000                              000                           
0010001300247T 020180230000002544776 29647041417254241   7               2503201700000000000600000101169X                         0900000000000010000000000000000000000000000000000000000   0000000000000000000000000A9        170192964704     
0010001300248U 020000000000000000000000000000000000000000000000000000000000000000000000000000000000000000000000000000000000000000000000002303201700000000            000000000000000                              000                           
0010001300249T 020180230000002544776 29647041417306972   7               25032017000000000006000001032859                         0900000000000010000000000000000000000000000000000000000   0000000000000000000000000A9        170192964704     
0010001300250U 020000000000000000000000000000000000000000000000000000000000000000000000000000000000000000000000000000000000000000000000002303201700000000            000000000000000                              000                           
0010001300251T 020180230000002544776 29647041417445655   7               25032017000000000006000001028029                         0900000000000010500000000000000000000000000000000000000   0000000000000000000000000A9A4      170192964704     
0010001300252U 020000000000000000000000000000000000000000000000000000000000000000000000000000000000000000000000000000000000000000000000002303201700000000            000000000000000                              000                           
0010001300253T 020180230000002544776 29647041417612591   7               25032017000000000006000001008214                         0900000000000010000000000000000000000000000000000000000   0000000000000000000000000A9        170192964704     
0010001300254U 020000000000000000000000000000000000000000000000000000000000000000000000000000000000000000000000000000000000000000000000002303201700000000            000000000000000                              000                           
0010001300255T 020180230000002544776 29647041417753384   7               25032017000000000006000001016179                         0900000000000010000000000000000000000000000000000000000   0000000000000000000000000A9        170192964704     
0010001300256U 020000000000000000000000000000000000000000000000000000000000000000000000000000000000000000000000000000000000000000000000002303201700000000            000000000000000                              000                           
0010001300257T 020180230000002544776 29647041417828216   7               25032017000000000006000001027375                         0900000000000010000000000000000000000000000000000000000   0000000000000000000000000A9        170192964704     
0010001300258U 020000000000000000000000000000000000000000000000000000000000000000000000000000000000000000000000000000000000000000000000002303201700000000            000000000000000                              000                           
0010001300259T 020180230000002544776 29647041418049515   7               25032017000000000008000001016179                         0900000000000010000000000000000000000000000000000000000   0000000000000000000000000A9        170192964704     
0010001300260U 020000000000000000000000000000000000000000000000000000000000000000000000000000000000000000000000000000000000000000000000002303201700000000            000000000000000                              000                           
0010001300261T 020180230000002544776 29647041418136988   7               25032017000000000006000001016179                         0900000000000010000000000000000000000000000000000000000   0000000000000000000000000A9        170192964704     
0010001300262U 020000000000000000000000000000000000000000000000000000000000000000000000000000000000000000000000000000000000000000000000002303201700000000            000000000000000                              000                           
0010001300263T 020180230000002544776 29647041418137077   7               25032017000000000006000001016179                         0900000000000010000000000000000000000000000000000000000   0000000000000000000000000A9        170192964704     
0010001300264U 020000000000000000000000000000000000000000000000000000000000000000000000000000000000000000000000000000000000000000000000002303201700000000            000000000000000                              000                           
0010001300265T 020180230000002544776 29647041418239393   7               25032017000000000006000001013692                         0900000000000010000000000000000000000000000000000000000   0000000000000000000000000A9        170192964704     
0010001300266U 020000000000000000000000000000000000000000000000000000000000000000000000000000000000000000000000000000000000000000000000002303201700000000            000000000000000                              000                           
0010001300267T 020180230000002544776 29647041418631310   7               25032017000000000008000001000132                         0900000000000010000000000000000000000000000000000000000   0000000000000000000000000A9        170192964704     
0010001300268U 020000000000000000000000000000000000000000000000000000000000000000000000000000000000000000000000000000000000000000000000002303201700000000            000000000000000                              000                           
0010001300269T 020180230000002544776 29647041418753615   7               25032017000000000006000001008214                         0900000000000010000000000000000000000000000000000000000   0000000000000000000000000A9        170192964704     
0010001300270U 020000000000000000000000000000000000000000000000000000000000000000000000000000000000000000000000000000000000000000000000002303201700000000            000000000000000                              000                           
0010001300271T 020180230000002544776 29647041418801596   7               25032017000000000006000001000132                         0900000000000010000000000000000000000000000000000000000   0000000000000000000000000A9        170192964704     
0010001300272U 020000000000000000000000000000000000000000000000000000000000000000000000000000000000000000000000000000000000000000000000002303201700000000            000000000000000                              000                           
0010001300273T 020180230000002544776 29647041418919989   7               25032017000000000006000001018376                         0900000000000010000000000000000000000000000000000000000   0000000000000000000000000A9        170192964704     
0010001300274U 020000000000000000000000000000000000000000000000000000000000000000000000000000000000000000000000000000000000000000000000002303201700000000            000000000000000                              000                           
0010001300275T 020180230000002544776 29647041419156898   7               25032017000000000006000001016810                         0900000000000010000000000000000000000000000000000000000   0000000000000000000000000A9        170192964704     
0010001300276U 020000000000000000000000000000000000000000000000000000000000000000000000000000000000000000000000000000000000000000000000002303201700000000            000000000000000                              000                           
0010001300277T 020180230000002544776 29647041419200263   7               25032017000000000006000001012467                         0900000000000010000000000000000000000000000000000000000   0000000000000000000000000A9        170192964704     
0010001300278U 020000000000000000000000000000000000000000000000000000000000000000000000000000000000000000000000000000000000000000000000002303201700000000            000000000000000                              000                           
0010001300279T 020180230000002544776 29647041419329760   7               25032017000000000006000001018376                         0900000000000010000000000000000000000000000000000000000   0000000000000000000000000A9        170192964704     
0010001300280U 020000000000000000000000000000000000000000000000000000000000000000000000000000000000000000000000000000000000000000000000002303201700000000            000000000000000                              000                           
0010001300281T 020180230000002544776 29647041419439155   7               25032017000000000006000001028029                         0900000000000010000000000000000000000000000000000000000   0000000000000000000000000A9        170192964704     
0010001300282U 020000000000000000000000000000000000000000000000000000000000000000000000000000000000000000000000000000000000000000000000002303201700000000            000000000000000                              000                           
0010001300283T 020180230000002544776 29647041419538506   7               25032017000000000006000001018376                         0900000000000010000000000000000000000000000000000000000   0000000000000000000000000A9        170192964704     
0010001300284U 020000000000000000000000000000000000000000000000000000000000000000000000000000000000000000000000000000000000000000000000002303201700000000            000000000000000                              000                           
0010001300285T 020180230000002544776 29647041419709818   7               25032017000000000006000001008214                         0900000000000010000000000000000000000000000000000000000   0000000000000000000000000A9        170192964704     
0010001300286U 020000000000000000000000000000000000000000000000000000000000000000000000000000000000000000000000000000000000000000000000002303201700000000            000000000000000                              000                           
0010001300287T 020180230000002544776 29647041419725609   7               25032017000000000006000001008214                         0900000000000010000000000000000000000000000000000000000   0000000000000000000000000A9        170192964704     
0010001300288U 020000000000000000000000000000000000000000000000000000000000000000000000000000000000000000000000000000000000000000000000002303201700000000            000000000000000                              000                           
0010001300289T 020180230000002544776 29647041419824997   7               25032017000000000006000001012807                         0900000000000010000000000000000000000000000000000000000   0000000000000000000000000A9        170192964704     
0010001300290U 020000000000000000000000000000000000000000000000000000000000000000000000000000000000000000000000000000000000000000000000002303201700000000            000000000000000                              000                           
0010001300291T 020180230000002544776 29647041419932313   7               25032017000000000006000001012467                         0900000000000010500000000000000000000000000000000000000   0000000000000000000000000A9A4      170192964704     
0010001300292U 020000000000000000000000000000000000000000000000000000000000000000000000000000000000000000000000000000000000000000000000002303201700000000            000000000000000                              000                           
0010001300293T 020180230000002544776 29647041420023587   7               25032017000000000006000001012467                         0900000000000010500000000000000000000000000000000000000   0000000000000000000000000A9A4      170192964704     
0010001300294U 020000000000000000000000000000000000000000000000000000000000000000000000000000000000000000000000000000000000000000000000002303201700000000            000000000000000                              000                           
0010001300295T 020180230000002544776 29647041420306955   7               25032017000000000006000001006254                         0900000000000010500000000000000000000000000000000000000   0000000000000000000000000A9A4      170192964704     
0010001300296U 020000000000000000000000000000000000000000000000000000000000000000000000000000000000000000000000000000000000000000000000002303201700000000            000000000000000                              000                           
0010001300297T 020180230000002544776 29647041420331087   7               25032017000000000006000001006254                         0900000000000010500000000000000000000000000000000000000   0000000000000000000000000A9A4      170192964704     
0010001300298U 020000000000000000000000000000000000000000000000000000000000000000000000000000000000000000000000000000000000000000000000002303201700000000            000000000000000                              000                           
0010001300299T 020180230000002544776 29647041420624128   7               25032017000000000006000001023655                         0900000000000010000000000000000000000000000000000000000   0000000000000000000000000A9        170192964704     
0010001300300U 020000000000000000000000000000000000000000000000000000000000000000000000000000000000000000000000000000000000000000000000002303201700000000            000000000000000                              000                           
0010001300301T 020180230000002544776 29647041420731219   7               25032017000000000006000001009636                         0900000000000010000000000000000000000000000000000000000   0000000000000000000000000A9        170192964704     
0010001300302U 020000000000000000000000000000000000000000000000000000000000000000000000000000000000000000000000000000000000000000000000002303201700000000            000000000000000                              000                           
0010001300303T 020180230000002544776 29647041420808286   7               25032017000000000006000001033316                         0900000000000010500000000000000000000000000000000000000   0000000000000000000000000A9A4      170192964704     
0010001300304U 020000000000000000000000000000000000000000000000000000000000000000000000000000000000000000000000000000000000000000000000002303201700000000            000000000000000                              000                           
0010001300305T 020180230000002544776 29647041420932385   7               25032017000000000006000001018376                         0900000000000010000000000000000000000000000000000000000   0000000000000000000000000A9        170192964704     
0010001300306U 020000000000000000000000000000000000000000000000000000000000000000000000000000000000000000000000000000000000000000000000002303201700000000            000000000000000                              000                           
0010001300307T 020180230000002544776 29647041420935214   7               25032017000000000006000001018376                         0900000000000010000000000000000000000000000000000000000   0000000000000000000000000A9        170192964704     
0010001300308U 020000000000000000000000000000000000000000000000000000000000000000000000000000000000000000000000000000000000000000000000002303201700000000            000000000000000                              000                           
0010001300309T 020180230000002544776 29647041421041268   7               25032017000000000006000001016179                         0900000000000010000000000000000000000000000000000000000   0000000000000000000000000A9        170192964704     
0010001300310U 020000000000000000000000000000000000000000000000000000000000000000000000000000000000000000000000000000000000000000000000002303201700000000            000000000000000                              000                           
0010001300311T 020180230000002544776 29647041421143251   7               25032017000000000006000001016179                         0900000000000010500000000000000000000000000000000000000   0000000000000000000000000A9A4      170192964704     
0010001300312U 020000000000000000000000000000000000000000000000000000000000000000000000000000000000000000000000000000000000000000000000002303201700000000            000000000000000                              000                           
0010001300313T 020180230000002544776 29647041421226036   7               25032017000000000006000001035041                         0900000000000010500000000000000000000000000000000000000   0000000000000000000000000A9A4      170192964704     
0010001300314U 020000000000000000000000000000000000000000000000000000000000000000000000000000000000000000000000000000000000000000000000002303201700000000            000000000000000                              000                           
0010001300315T 020180230000002544776 29647041421326463   7               25032017000000000006000001028029                         0900000000000010000000000000000000000000000000000000000   0000000000000000000000000A9        170192964704     
0010001300316U 020000000000000000000000000000000000000000000000000000000000000000000000000000000000000000000000000000000000000000000000002303201700000000            000000000000000                              000                           
0010001300317T 020180230000002544776 29647041421415795   7               25032017000000000006000001028029                         0900000000000010000000000000000000000000000000000000000   0000000000000000000000000A9        170192964704     
0010001300318U 020000000000000000000000000000000000000000000000000000000000000000000000000000000000000000000000000000000000000000000000002303201700000000            000000000000000                              000                           
0010001300319T 020180230000002544776 29647041421543732   7               25032017000000000008000001016179                         0900000000000010500000000000000000000000000000000000000   0000000000000000000000000A9A4      170192964704     
0010001300320U 020000000000000000000000000000000000000000000000000000000000000000000000000000000000000000000000000000000000000000000000002303201700000000            000000000000000                              000                           
0010001300321T 020180230000002544776 29647041421658680   7               25032017000000000006000001000132                         0900000000000010000000000000000000000000000000000000000   0000000000000000000000000A9        170192964704     
0010001300322U 020000000000000000000000000000000000000000000000000000000000000000000000000000000000000000000000000000000000000000000000002303201700000000            000000000000000                              000                           
0010001300323T 020180230000002544776 29647041421806733   7               25032017000000000006000001000132                         0900000000000010000000000000000000000000000000000000000   0000000000000000000000000A9        170192964704     
0010001300324U 020000000000000000000000000000000000000000000000000000000000000000000000000000000000000000000000000000000000000000000000002303201700000000            000000000000000                              000                           
0010001300325T 020180230000002544776 29647041421933186   7               25032017000000000006000001010421                         0900000000000010000000000000000000000000000000000000000   0000000000000000000000000A9        170192964704     
0010001300326U 020000000000000000000000000000000000000000000000000000000000000000000000000000000000000000000000000000000000000000000000002303201700000000            000000000000000                              000                           
0010001300327T 020180230000002544776 29647041422041383   7               25032017000000000006000001016179                         0900000000000010000000000000000000000000000000000000000   0000000000000000000000000A9        170192964704     
0010001300328U 020000000000000000000000000000000000000000000000000000000000000000000000000000000000000000000000000000000000000000000000002303201700000000            000000000000000                              000                           
0010001300329T 020180230000002544776 29647041422159442   7               25032017000000000006000001016020                         0900000000000010000000000000000000000000000000000000000   0000000000000000000000000A9        170192964704     
0010001300330U 020000000000000000000000000000000000000000000000000000000000000000000000000000000000000000000000000000000000000000000000002303201700000000            000000000000000                              000                           
0010001300331T 020180230000002544776 29647041422217367   7               25032017000000000006000001033316                         0900000000000010000000000000000000000000000000000000000   0000000000000000000000000A9        170192964704     
0010001300332U 020000000000000000000000000000000000000000000000000000000000000000000000000000000000000000000000000000000000000000000000002303201700000000            000000000000000                              000                           
0010001300333T 020180230000002544776 29647041422351955   7               25032017000000000006000001008214                         0900000000000010000000000000000000000000000000000000000   0000000000000000000000000A9        170192964704     
0010001300334U 020000000000000000000000000000000000000000000000000000000000000000000000000000000000000000000000000000000000000000000000002303201700000000            000000000000000                              000                           
0010001300335T 020180230000002544776 29647041422507352   7               25032017000000000006000001035041                         0900000000000010000000000000000000000000000000000000000   0000000000000000000000000A9        170192964704     
0010001300336U 020000000000000000000000000000000000000000000000000000000000000000000000000000000000000000000000000000000000000000000000002303201700000000            000000000000000                              000                           
0010001300337T 020180230000002544776 29647041422518221   7               25032017000000000006000001035041                         0900000000000010000000000000000000000000000000000000000   0000000000000000000000000A9        170192964704     
0010001300338U 020000000000000000000000000000000000000000000000000000000000000000000000000000000000000000000000000000000000000000000000002303201700000000            000000000000000                              000                           
0010001300339T 020180230000002544776 29647041422549932   7               25032017000000000006000001035041                         0900000000000010000000000000000000000000000000000000000   0000000000000000000000000A9        170192964704     
0010001300340U 020000000000000000000000000000000000000000000000000000000000000000000000000000000000000000000000000000000000000000000000002303201700000000            000000000000000                              000                           
0010001300341T 020180230000002544776 29647041422639296   7               25032017000000000006000001023655                         0900000000000010000000000000000000000000000000000000000   0000000000000000000000000A9        170192964704     
0010001300342U 020000000000000000000000000000000000000000000000000000000000000000000000000000000000000000000000000000000000000000000000002303201700000000            000000000000000                              000                           
0010001300343T 020180230000002544776 29647041423251605   7               25032017000000000006000001023655                         0900000000000010000000000000000000000000000000000000000   0000000000000000000000000A9        170192964704     
0010001300344U 020000000000000000000000000000000000000000000000000000000000000000000000000000000000000000000000000000000000000000000000002303201700000000            000000000000000                              000                           
0010001300345T 020180230000002544776 29647041423253230   7               25032017000000000006000001023655                         0900000000000010000000000000000000000000000000000000000   0000000000000000000000000A9        170192964704     
0010001300346U 020000000000000000000000000000000000000000000000000000000000000000000000000000000000000000000000000000000000000000000000002303201700000000            000000000000000                              000                           
0010001300347T 020180230000002544776 29647041423317715   7               25032017000000000006000001000132                         0900000000000010000000000000000000000000000000000000000   0000000000000000000000000A9        170192964704     
0010001300348U 020000000000000000000000000000000000000000000000000000000000000000000000000000000000000000000000000000000000000000000000002303201700000000            000000000000000                              000                           
0010001300349T 020180230000002544776 29647041423359597   7               25032017000000000006000001000132                         0900000000000010000000000000000000000000000000000000000   0000000000000000000000000A9        170192964704     
0010001300350U 020000000000000000000000000000000000000000000000000000000000000000000000000000000000000000000000000000000000000000000000002303201700000000            000000000000000                              000                           
0010001300351T 020180230000002544776 29647041423426238   7               25032017000000000006000001028029                         0900000000000010000000000000000000000000000000000000000   0000000000000000000000000A9        170192964704     
0010001300352U 020000000000000000000000000000000000000000000000000000000000000000000000000000000000000000000000000000000000000000000000002303201700000000            000000000000000                              000                           
0010001300353T 020180230000002544776 29647041423620741   7               25032017000000000006000001018376                         0900000000000010000000000000000000000000000000000000000   0000000000000000000000000A9        170192964704     
0010001300354U 020000000000000000000000000000000000000000000000000000000000000000000000000000000000000000000000000000000000000000000000002303201700000000            000000000000000                              000                           
0010001300355T 020180230000002544776 29647041423753394   7               25032017000000000006000001014028                         0900000000000010000000000000000000000000000000000000000   0000000000000000000000000A9        170192964704     
0010001300356U 020000000000000000000000000000000000000000000000000000000000000000000000000000000000000000000000000000000000000000000000002303201700000000            000000000000000                              000                           
0010001300357T 020180230000002544776 29647041423844512   7               25032017000000000008000001000132                         0900000000000010000000000000000000000000000000000000000   0000000000000000000000000A9        170192964704     
0010001300358U 020000000000000000000000000000000000000000000000000000000000000000000000000000000000000000000000000000000000000000000000002303201700000000            000000000000000                              000                           
0010001300359T 020180230000002544776 29647041424031400   7               25032017000000000006000001028029                         0900000000000010000000000000000000000000000000000000000   0000000000000000000000000A9        170192964704     
0010001300360U 020000000000000000000000000000000000000000000000000000000000000000000000000000000000000000000000000000000000000000000000002303201700000000            000000000000000                              000                           
0010001300361T 020180230000002544776 29647041424239651   7               25032017000000000006000001028029                         0900000000000010000000000000000000000000000000000000000   0000000000000000000000000A9        170192964704     
0010001300362U 020000000000000000000000000000000000000000000000000000000000000000000000000000000000000000000000000000000000000000000000002303201700000000            000000000000000                              000                           
0010001300363T 020180230000002544776 29647041424330256   7               25032017000000000006000001010421                         0900000000000010000000000000000000000000000000000000000   0000000000000000000000000A9        170192964704     
0010001300364U 020000000000000000000000000000000000000000000000000000000000000000000000000000000000000000000000000000000000000000000000002303201700000000            000000000000000                              000                           
0010001300365T 020180230000002544776 29647041424406958   7               25032017000000000006000001016179                         0900000000000010000000000000000000000000000000000000000   0000000000000000000000000A9        170192964704     
0010001300366U 020000000000000000000000000000000000000000000000000000000000000000000000000000000000000000000000000000000000000000000000002303201700000000            000000000000000                              000                           
0010001300367T 020180230000002544776 29647041424556145   7               25032017000000000006000001035041                         0900000000000010000000000000000000000000000000000000000   0000000000000000000000000A9        170192964704     
0010001300368U 020000000000000000000000000000000000000000000000000000000000000000000000000000000000000000000000000000000000000000000000002303201700000000            000000000000000                              000                           
0010001300369T 020180230000002544776 29647041424617863   7               25032017000000000008000001028029                         0900000000000010000000000000000000000000000000000000000   0000000000000000000000000A9        170192964704     
0010001300370U 020000000000000000000000000000000000000000000000000000000000000000000000000000000000000000000000000000000000000000000000002303201700000000            000000000000000                              000                           
0010001300371T 020180230000002544776 29647041424751849   7               25032017000000000006000001008214                         0900000000000010500000000000000000000000000000000000000   0000000000000000000000000A9A4      170192964704     
0010001300372U 020000000000000000000000000000000000000000000000000000000000000000000000000000000000000000000000000000000000000000000000002303201700000000            000000000000000                              000                           
0010001300373T 020180230000002544776 29647041424829407   7               25032017000000000006000001000698                         0900000000000010000000000000000000000000000000000000000   0000000000000000000000000A9        170192964704     
0010001300374U 020000000000000000000000000000000000000000000000000000000000000000000000000000000000000000000000000000000000000000000000002303201700000000            000000000000000                              000                           
0010001300375T 020180230000002544776 29647041424951078   7               25032017000000000006000001028029                         0900000000000010000000000000000000000000000000000000000   0000000000000000000000000A9        170192964704     
0010001300376U 020000000000000000000000000000000000000000000000000000000000000000000000000000000000000000000000000000000000000000000000002303201700000000            000000000000000                              000                           
0010001300377T 020180230000002544776 29647041425010190   7               25032017000000000006000001001201                         0900000000000010000000000000000000000000000000000000000   0000000000000000000000000A9        170192964704     
0010001300378U 020000000000000000000000000000000000000000000000000000000000000000000000000000000000000000000000000000000000000000000000002303201700000000            000000000000000                              000                           
0010001300379T 020180230000002544776 29647041425118172   7               2503201700000000000800000101138X                         0900000000000010000000000000000000000000000000000000000   0000000000000000000000000A9        170192964704     
0010001300380U 020000000000000000000000000000000000000000000000000000000000000000000000000000000000000000000000000000000000000000000000002303201700000000            000000000000000                              000                           
0010001300381T 060180230000002544776 29647040950909892   7               23032017000000000006000104024040                         0900000000000010000000000000000000000000000000000000000   000000000000000000000029000        170192964704     
0010001300382U 060000000000000000000000000000000000000000000000000000000000000000000000060000000000000057100000000000000000000000000000002303201727032017            000000000000000                              000                           
0010001300383T 060180230000002544776 29647041068355322   7               23032017000000000008000001012335                         0900000000000010000000000000000000000000000000000000000   000000000000000000000029000        170192964704     
0010001300384U 060000000000000000000000000000000000000000000000000000000000000000000000080000000000000077100000000000000000000000000000002303201727032017            000000000000000                              000                           
0010001300385T 060180230000002544776 29647041121916826   7               24032017000000000008000001016004                         0900000000000010000000000000000000000000000000000000000   000000000000000000000029000        170192964704     
0010001300386U 060000000000000000000000000000000000000000000000000000000000000000000000080000000000000077100000000000000000000000000000002303201727032017            000000000000000                              000                           
0010001300387T 060180230000002544776 29647041144408985   7               23032017000000000006000104006170                         0900000000000010000000000000000000000000000000000000000   000000000000000000000029000        170192964704     
0010001300388U 060000000000000000000000000000000000000000000000000000000000000000000000060000000000000057100000000000000000000000000000002303201727032017            000000000000000                              000                           
0010001300389T 060180230000002544776 29647041205951091   7               24032017000000000006000104022210                         0900000000000010000000000000000000000000000000000000000   000000000000000000000029000        170192964704     
0010001300390U 060000000000000000000000000000000000000000000000000000000000000000000000060000000000000057100000000000000000000000000000002303201727032017            000000000000000                              000                           
0010001300391T 060180230000002544776 29647041231026324   7               25032017000000000006000001016195                         0900000000000010000000000000000000000000000000000000000   000000000000000000000029000        170192964704     
0010001300392U 060000000000000000000000000000000000000000000000000000000000000000000000060000000000000057100000000000000000000000000000002303201727032017            000000000000000                              000                           
0010001300393T 060180230000002544776 29647041314740128   7               25032017000000000006000001012688                         0900000000000010000000000000000000000000000000000000000   000000000000000000000029000        170192964704     
0010001300394U 060000000000000000000000000000000000000000000000000000000000000000000000060000000000000057100000000000000000000000000000002303201727032017            000000000000000                              000                           
0010001300395T 170180230000002544776 29647041319737979   7               00000000000000000006000001012688                         0900000000000010000000000000000000000000000000000000000   000000000000000000000070003        170192964704     
0010001300396U 170000000000000000000000000000000000000000000000000000000000000000000000060000000000000053000000000000000000000000000000002303201727032017            000000000000000                              000                           
0010001300397T 060180230000002544776 29647041323950553   7               25032017000000000006000001009229                         0900000000000010000000000000000000000000000000000000000   000000000000000000000029000        170192964704     
0010001300398U 060000000000000000000000000000000000000000000000000000000000000000000000060000000000000057100000000000000000000000000000002303201727032017            000000000000000                              000                           
0010001300399T 060180230000002544776 29647041324623598   7               24032017000000000006000001048445                         0900000000000010000000000000000000000000000000000000000   000000000000000000000029000        170192964704     
0010001300400U 060000000000000000000000000000000000000000000000000000000000000000000000060000000000000057100000000000000000000000000000002303201727032017            000000000000000                              000                           
0010001300401T 060180230000002544776 29647041329724729   7               25032017000000000006000001000116                         0900000000000010000000000000000000000000000000000000000   000000000000000000000029000        170192964704     
0010001300402U 060000000000000000000000000000000000000000000000000000000000000000000000060000000000000057100000000000000000000000000000002303201727032017            000000000000000                              000                           
0010001300403T 060180230000002544776 29647041385742035   7               23032017000000000006000001032433                         0900000000000010000000000000000000000000000000000000000   000000000000000000000029000        170192964704     
0010001300404U 060000000000000000000000000000000000000000000000000000000000000000000000060000000000000057100000000000000000000000000000002303201727032017            000000000000000                              000                           
0010001300405T 060180230000002544776 29647041386317368   7               23032017000000000006000033030820                         0900000000000010000000000000000000000000000000000000000   000000000000000000000029000        170192964704     
0010001300406U 060000000000000000000000000000000000000000000000000000000000000000000000060000000000000057100000000000000000000000000000002303201727032017            000000000000000                              000                           
0010001300407T 060180230000002544776 29647041387301639   7               23032017000000000008000237002900                         0900000000000010000000000000000000000000000000000000000   000000000000000000000029000        170192964704     
0010001300408U 060000000000000000000000000000000000000000000000000000000000000000000000080000000000000077100000000000000000000000000000002303201727032017            000000000000000                              000                           
0010001300409T 060180230000002544776 29647041388434434   7               23032017000000000006000033040140                         0900000000000010000000000000000000000000000000000000000   000000000000000000000029000        170192964704     
0010001300410U 060000000000000000000000000000000000000000000000000000000000000000000000060000000000000057100000000000000000000000000000002303201727032017            000000000000000                              000                           
0010001300411T 060180230000002544776 29647041390355440   7               23032017000000000006000001028746                         0900000000000010000000000000000000000000000000000000000   000000000000000000000029000        170192964704     
0010001300412U 060000000000000000000000000000000000000000000000000000000000000000000000060000000000000057100000000000000000000000000000002303201727032017            000000000000000                              000                           
