00100000         2247745860001000029647040014       0180230000002544776 INSTITUTO DE SELECAO E TECNOLOBANCO DO BRASIL                         22403201701081100007603000000515122941PROCESSAMEN                                                 
00100011T0100020 20247745860001000029647040014       0180230000002544776 INSTITUTO DE SELECAO E TECNOLO                                                                                000000002403201700000000  000000000                      
0010001300001T 020180230000002544776 29647040567510993   7               26032017000000000006000001000132                         0900000000000010000000000000000000000000000000000000000   0000000000000000000000000A9        170192964704     
0010001300002U 020000000000000000000000000000000000000000000000000000000000000000000000000000000000000000000000000000000000000000000000002403201700000000            000000000000000                              000                           
0010001300003T 020180230000002544776 29647040567548221   7               26032017000000000006000001000132                         0900000000000010000000000000000000000000000000000000000   0000000000000000000000000A9        170192964704     
0010001300004U 020000000000000000000000000000000000000000000000000000000000000000000000000000000000000000000000000000000000000000000000002403201700000000            000000000000000                              000                           
0010001300005T 020180230000002544776 29647040569801112   7               26032017000000000006000001033316                         0900000000000010000000000000000000000000000000000000000   0000000000000000000000000A9        170192964704     
0010001300006U 020000000000000000000000000000000000000000000000000000000000000000000000000000000000000000000000000000000000000000000000002403201700000000            000000000000000                              000                           
0010001300007T 020180230000002544776 29647040569836341   7               26032017000000000006000001033316                         0900000000000010000000000000000000000000000000000000000   0000000000000000000000000A9        170192964704     
0010001300008U 020000000000000000000000000000000000000000000000000000000000000000000000000000000000000000000000000000000000000000000000002403201700000000            000000000000000                              000                           
0010001300009T 020180230000002544776 29647040576024849   7               26032017000000000006000001000132                         0900000000000010000000000000000000000000000000000000000   0000000000000000000000000A9        170192964704     
0010001300010U 020000000000000000000000000000000000000000000000000000000000000000000000000000000000000000000000000000000000000000000000002403201700000000            000000000000000                              000                           
0010001300011T 020180230000002544776 29647040618435705   7               25032017000000000006000001020354                         0900000000000010000000000000000000000000000000000000000   0000000000000000000000000A9        170192964704     
0010001300012U 020000000000000000000000000000000000000000000000000000000000000000000000000000000000000000000000000000000000000000000000002303201700000000            000000000000000                              000                           
0010001300013T 020180230000002544776 29647040645342062   7               26032017000000000006000001018376                         0900000000000010000000000000000000000000000000000000000   0000000000000000000000000A9        170192964704     
0010001300014U 020000000000000000000000000000000000000000000000000000000000000000000000000000000000000000000000000000000000000000000000002403201700000000            000000000000000                              000                           
0010001300015T 020180230000002544776 29647040661108479   7               26032017000000000006000001000132                         0900000000000010000000000000000000000000000000000000000   0000000000000000000000000A9        170192964704     
0010001300016U 020000000000000000000000000000000000000000000000000000000000000000000000000000000000000000000000000000000000000000000000002403201700000000            000000000000000                              000                           
0010001300017T 020180230000002544776 29647040713301797   7               26032017000000000008000001000132                         0900000000000010000000000000000000000000000000000000000   0000000000000000000000000A9        170192964704     
0010001300018U 020000000000000000000000000000000000000000000000000000000000000000000000000000000000000000000000000000000000000000000000002403201700000000            000000000000000                              000                           
0010001300019T 020180230000002544776 29647040725243189   7               26032017000000000006000001009849                         0900000000000010000000000000000000000000000000000000000   0000000000000000000000000A9        170192964704     
0010001300020U 020000000000000000000000000000000000000000000000000000000000000000000000000000000000000000000000000000000000000000000000002403201700000000            000000000000000                              000                           
0010001300021T 020180230000002544776 29647040757220444   7               26032017000000000006000001020354                         0900000000000010000000000000000000000000000000000000000   0000000000000000000000000A9        170192964704     
0010001300022U 020000000000000000000000000000000000000000000000000000000000000000000000000000000000000000000000000000000000000000000000002403201700000000            000000000000000                              000                           
0010001300023T 020180230000002544776 29647040866611917   7               26032017000000000006000001016179                         0900000000000010000000000000000000000000000000000000000   0000000000000000000000000A9        170192964704     
0010001300024U 020000000000000000000000000000000000000000000000000000000000000000000000000000000000000000000000000000000000000000000000002403201700000000            000000000000000                              000                           
0010001300025T 020180230000002544776 29647040880948944   7               26032017000000000008000001033316                         0900000000000010000000000000000000000000000000000000000   0000000000000000000000000A9        170192964704     
0010001300026U 020000000000000000000000000000000000000000000000000000000000000000000000000000000000000000000000000000000000000000000000002403201700000000            000000000000000                              000                           
0010001300027T 020180230000002544776 29647040887402956   7               26032017000000000006000001009229                         0900000000000010000000000000000000000000000000000000000   0000000000000000000000000A9        170192964704     
0010001300028U 020000000000000000000000000000000000000000000000000000000000000000000000000000000000000000000000000000000000000000000000002403201700000000            000000000000000                              000                           
0010001300029T 020180230000002544776 29647040928803532   7               26032017000000000006000001008214                         0900000000000010000000000000000000000000000000000000000   0000000000000000000000000A9        170192964704     
0010001300030U 020000000000000000000000000000000000000000000000000000000000000000000000000000000000000000000000000000000000000000000000002403201700000000            000000000000000                              000                           
0010001300031T 020180230000002544776 29647040951717368   7               26032017000000000006000001018376                         0900000000000010000000000000000000000000000000000000000   0000000000000000000000000A9        170192964704     
0010001300032U 020000000000000000000000000000000000000000000000000000000000000000000000000000000000000000000000000000000000000000000000002403201700000000            000000000000000                              000                           
0010001300033T 020180230000002544776 29647040957502974   7               26032017000000000006000001018376                         0900000000000010000000000000000000000000000000000000000   0000000000000000000000000A9        170192964704     
0010001300034U 020000000000000000000000000000000000000000000000000000000000000000000000000000000000000000000000000000000000000000000000002403201700000000            000000000000000                              000                           
0010001300035T 020180230000002544776 29647040961215318   7               26032017000000000006000001025429                         0900000000000010000000000000000000000000000000000000000   0000000000000000000000000A9        170192964704     
0010001300036U 020000000000000000000000000000000000000000000000000000000000000000000000000000000000000000000000000000000000000000000000002403201700000000            000000000000000                              000                           
0010001300037T 020180230000002544776 29647040961235765   7               26032017000000000006000001025429                         0900000000000010000000000000000000000000000000000000000   0000000000000000000000000A9        170192964704     
0010001300038U 020000000000000000000000000000000000000000000000000000000000000000000000000000000000000000000000000000000000000000000000002403201700000000            000000000000000                              000                           
0010001300039T 020180230000002544776 29647040962020236   7               26032017000000000008000001016179                         0900000000000010000000000000000000000000000000000000000   0000000000000000000000000A9        170192964704     
0010001300040U 020000000000000000000000000000000000000000000000000000000000000000000000000000000000000000000000000000000000000000000000002403201700000000            000000000000000                              000                           
0010001300041T 020180230000002544776 29647040984042343   7               26032017000000000008000001003239                         0900000000000010000000000000000000000000000000000000000   0000000000000000000000000A9        170192964704     
0010001300042U 020000000000000000000000000000000000000000000000000000000000000000000000000000000000000000000000000000000000000000000000002403201700000000            000000000000000                              000                           
0010001300043T 020180230000002544776 29647041028825172   7               26032017000000000006000001005428                         0900000000000010000000000000000000000000000000000000000   0000000000000000000000000A9        170192964704     
0010001300044U 020000000000000000000000000000000000000000000000000000000000000000000000000000000000000000000000000000000000000000000000002403201700000000            000000000000000                              000                           
0010001300045T 020180230000002544776 29647041133056590   7               26032017000000000006000001044865                         0900000000000010000000000000000000000000000000000000000   0000000000000000000000000A9        170192964704     
0010001300046U 020000000000000000000000000000000000000000000000000000000000000000000000000000000000000000000000000000000000000000000000002403201700000000            000000000000000                              000                           
0010001300047T 020180230000002544776 29647041137550164   7               26032017000000000006000001012467                         0900000000000010000000000000000000000000000000000000000   0000000000000000000000000A9        170192964704     
0010001300048U 020000000000000000000000000000000000000000000000000000000000000000000000000000000000000000000000000000000000000000000000002403201700000000            000000000000000                              000                           
0010001300049T 020180230000002544776 29647041137555138   7               26032017000000000006000001012467                         0900000000000010000000000000000000000000000000000000000   0000000000000000000000000A9        170192964704     
0010001300050U 020000000000000000000000000000000000000000000000000000000000000000000000000000000000000000000000000000000000000000000000002403201700000000            000000000000000                              000                           
0010001300051T 020180230000002544776 29647041150408952   7               25032017000000000006000001009229                         0900000000000010000000000000000000000000000000000000000   0000000000000000000000000A9        170192964704     
0010001300052U 020000000000000000000000000000000000000000000000000000000000000000000000000000000000000000000000000000000000000000000000002303201700000000            000000000000000                              000                           
0010001300053T 020180230000002544776 29647041184356098   7               2603201700000000000600000100233X                         0900000000000010000000000000000000000000000000000000000   0000000000000000000000000A9        170192964704     
0010001300054U 020000000000000000000000000000000000000000000000000000000000000000000000000000000000000000000000000000000000000000000000002403201700000000            000000000000000                              000                           
0010001300055T 020180230000002544776 29647041235950487   7               26032017000000000006000001033316                         0900000000000010000000000000000000000000000000000000000   0000000000000000000000000A9        170192964704     
0010001300056U 020000000000000000000000000000000000000000000000000000000000000000000000000000000000000000000000000000000000000000000000002403201700000000            000000000000000                              000                           
0010001300057T 020180230000002544776 29647041321036388   7               26032017000000000006000001020354                         0900000000000010000000000000000000000000000000000000000   0000000000000000000000000A9        170192964704     
0010001300058U 020000000000000000000000000000000000000000000000000000000000000000000000000000000000000000000000000000000000000000000000002403201700000000            000000000000000                              000                           
0010001300059T 020180230000002544776 29647041327816668   7               26032017000000000006000001016179                         0900000000000010000000000000000000000000000000000000000   0000000000000000000000000A9        170192964704     
0010001300060U 020000000000000000000000000000000000000000000000000000000000000000000000000000000000000000000000000000000000000000000000002403201700000000            000000000000000                              000                           
0010001300061T 020180230000002544776 29647041330306998   7               26032017000000000006000001033316                         0900000000000010000000000000000000000000000000000000000   0000000000000000000000000A9        170192964704     
0010001300062U 020000000000000000000000000000000000000000000000000000000000000000000000000000000000000000000000000000000000000000000000002403201700000000            000000000000000                              000                           
0010001300063T 020180230000002544776 29647041330330270   7               26032017000000000006000001033316                         0900000000000010000000000000000000000000000000000000000   0000000000000000000000000A9        170192964704     
0010001300064U 020000000000000000000000000000000000000000000000000000000000000000000000000000000000000000000000000000000000000000000000002403201700000000            000000000000000                              000                           
0010001300065T 020180230000002544776 29647041348748539   7               26032017000000000006000001000132                         0900000000000010000000000000000000000000000000000000000   0000000000000000000000000A9        170192964704     
0010001300066U 020000000000000000000000000000000000000000000000000000000000000000000000000000000000000000000000000000000000000000000000002403201700000000            000000000000000                              000                           
0010001300067T 020180230000002544776 29647041348751622   7               26032017000000000006000001000132                         0900000000000010000000000000000000000000000000000000000   0000000000000000000000000A9        170192964704     
0010001300068U 020000000000000000000000000000000000000000000000000000000000000000000000000000000000000000000000000000000000000000000000002403201700000000            000000000000000                              000                           
0010001300069T 020180230000002544776 29647041351622315   7               26032017000000000006000001013692                         0900000000000010000000000000000000000000000000000000000   0000000000000000000000000A9        170192964704     
0010001300070U 020000000000000000000000000000000000000000000000000000000000000000000000000000000000000000000000000000000000000000000000002403201700000000            000000000000000                              000                           
0010001300071T 020180230000002544776 29647041351625119   7               26032017000000000006000001013692                         0900000000000010000000000000000000000000000000000000000   0000000000000000000000000A9        170192964704     
0010001300072U 020000000000000000000000000000000000000000000000000000000000000000000000000000000000000000000000000000000000000000000000002403201700000000            000000000000000                              000                           
0010001300073T 020180230000002544776 29647041351637076   7               26032017000000000006000001013692                         0900000000000010000000000000000000000000000000000000000   0000000000000000000000000A9        170192964704     
0010001300074U 020000000000000000000000000000000000000000000000000000000000000000000000000000000000000000000000000000000000000000000000002403201700000000            000000000000000                              000                           
0010001300075T 020180230000002544776 29647041352914924   7               26032017000000000006000001000132                         0900000000000010000000000000000000000000000000000000000   0000000000000000000000000A9        170192964704     
0010001300076U 020000000000000000000000000000000000000000000000000000000000000000000000000000000000000000000000000000000000000000000000002403201700000000            000000000000000                              000                           
0010001300077T 020180230000002544776 29647041360329280   7               26032017000000000006000001028029                         0900000000000010000000000000000000000000000000000000000   0000000000000000000000000A9        170192964704     
0010001300078U 020000000000000000000000000000000000000000000000000000000000000000000000000000000000000000000000000000000000000000000000002403201700000000            000000000000000                              000                           
0010001300079T 020180230000002544776 29647041371837697   7               26032017000000000006000001010421                         0900000000000010000000000000000000000000000000000000000   0000000000000000000000000A9        170192964704     
0010001300080U 020000000000000000000000000000000000000000000000000000000000000000000000000000000000000000000000000000000000000000000000002403201700000000            000000000000000                              000                           
0010001300081T 020180230000002544776 29647041386021330   7               26032017000000000006000001000132                         0900000000000010000000000000000000000000000000000000000   0000000000000000000000000A9        170192964704     
0010001300082U 020000000000000000000000000000000000000000000000000000000000000000000000000000000000000000000000000000000000000000000000002403201700000000            000000000000000                              000                           
0010001300083T 020180230000002544776 29647041387231321   7               2603201700000000000600000102547X                         0900000000000010000000000000000000000000000000000000000   0000000000000000000000000A9        170192964704     
0010001300084U 020000000000000000000000000000000000000000000000000000000000000000000000000000000000000000000000000000000000000000000000002403201700000000            000000000000000                              000                           
0010001300085T 020180230000002544776 29647041392927270   7               26032017000000000006000001016179                         0900000000000010000000000000000000000000000000000000000   0000000000000000000000000A9        170192964704     
0010001300086U 020000000000000000000000000000000000000000000000000000000000000000000000000000000000000000000000000000000000000000000000002403201700000000            000000000000000                              000                           
0010001300087T 020180230000002544776 29647041395641723   7               26032017000000000008000001028029                         0900000000000010000000000000000000000000000000000000000   0000000000000000000000000A9        170192964704     
0010001300088U 020000000000000000000000000000000000000000000000000000000000000000000000000000000000000000000000000000000000000000000000002403201700000000            000000000000000                              000                           
0010001300089T 020180230000002544776 29647041405611477   7               26032017000000000006000001028029                         0900000000000010000000000000000000000000000000000000000   0000000000000000000000000A9        170192964704     
0010001300090U 020000000000000000000000000000000000000000000000000000000000000000000000000000000000000000000000000000000000000000000000002403201700000000            000000000000000                              000                           
0010001300091T 020180230000002544776 29647041412511251   7               26032017000000000006000001018376                         0900000000000010000000000000000000000000000000000000000   0000000000000000000000000A9        170192964704     
0010001300092U 020000000000000000000000000000000000000000000000000000000000000000000000000000000000000000000000000000000000000000000000002403201700000000            000000000000000                              000                           
0010001300093T 020180230000002544776 29647041412520164   7               26032017000000000006000001018376                         0900000000000010000000000000000000000000000000000000000   0000000000000000000000000A9        170192964704     
0010001300094U 020000000000000000000000000000000000000000000000000000000000000000000000000000000000000000000000000000000000000000000000002403201700000000            000000000000000                              000                           
0010001300095T 020180230000002544776 29647041413309038   7               26032017000000000006000001012467                         0900000000000010000000000000000000000000000000000000000   0000000000000000000000000A9        170192964704     
0010001300096U 020000000000000000000000000000000000000000000000000000000000000000000000000000000000000000000000000000000000000000000000002403201700000000            000000000000000                              000                           
0010001300097T 020180230000002544776 29647041414205152   7               26032017000000000006000001028029                         0900000000000010000000000000000000000000000000000000000   0000000000000000000000000A9        170192964704     
0010001300098U 020000000000000000000000000000000000000000000000000000000000000000000000000000000000000000000000000000000000000000000000002403201700000000            000000000000000                              000                           
0010001300099T 020180230000002544776 29647041414225536   7               26032017000000000006000001028029                         0900000000000010000000000000000000000000000000000000000   0000000000000000000000000A9        170192964704     
0010001300100U 020000000000000000000000000000000000000000000000000000000000000000000000000000000000000000000000000000000000000000000000002403201700000000            000000000000000                              000                           
0010001300101T 020180230000002544776 29647041414233082   7               26032017000000000006000001028029                         0900000000000010000000000000000000000000000000000000000   0000000000000000000000000A9        170192964704     
0010001300102U 020000000000000000000000000000000000000000000000000000000000000000000000000000000000000000000000000000000000000000000000002403201700000000            000000000000000                              000                           
0010001300103T 020180230000002544776 29647041420931383   7               26032017000000000006000001018376                         0900000000000010000000000000000000000000000000000000000   0000000000000000000000000A9        170192964704     
0010001300104U 020000000000000000000000000000000000000000000000000000000000000000000000000000000000000000000000000000000000000000000000002403201700000000            000000000000000                              000                           
0010001300105T 020180230000002544776 29647041425415451   7               25032017000000000006000001023655                         0900000000000010000000000000000000000000000000000000000   0000000000000000000000000A9        170192964704     
0010001300106U 020000000000000000000000000000000000000000000000000000000000000000000000000000000000000000000000000000000000000000000000002303201700000000            000000000000000                              000                           
0010001300107T 020180230000002544776 29647041425506917   7               2503201700000000000600000101138X                         0900000000000010000000000000000000000000000000000000000   0000000000000000000000000A9        170192964704     
0010001300108U 020000000000000000000000000000000000000000000000000000000000000000000000000000000000000000000000000000000000000000000000002303201700000000            000000000000000                              000                           
0010001300109T 020180230000002544776 29647041425613098   7               25032017000000000006000001000132                         0900000000000010000000000000000000000000000000000000000   0000000000000000000000000A9        170192964704     
0010001300110U 020000000000000000000000000000000000000000000000000000000000000000000000000000000000000000000000000000000000000000000000002303201700000000            000000000000000                              000                           
0010001300111T 020180230000002544776 29647041425723431   7               26032017000000000006000001025429                         0900000000000010000000000000000000000000000000000000000   0000000000000000000000000A9        170192964704     
0010001300112U 020000000000000000000000000000000000000000000000000000000000000000000000000000000000000000000000000000000000000000000000002403201700000000            000000000000000                              000                           
0010001300113T 020180230000002544776 29647041425814658   7               26032017000000000006000001012467                         0900000000000010000000000000000000000000000000000000000   0000000000000000000000000A9        170192964704     
0010001300114U 020000000000000000000000000000000000000000000000000000000000000000000000000000000000000000000000000000000000000000000000002403201700000000            000000000000000                              000                           
0010001300115T 020180230000002544776 29647041425931600   7               26032017000000000006000001000132                         0900000000000010000000000000000000000000000000000000000   0000000000000000000000000A9        170192964704     
0010001300116U 020000000000000000000000000000000000000000000000000000000000000000000000000000000000000000000000000000000000000000000000002403201700000000            000000000000000                              000                           
0010001300117T 020180230000002544776 29647041426033473   7               26032017000000000008000001028029                         0900000000000010000000000000000000000000000000000000000   0000000000000000000000000A9        170192964704     
0010001300118U 020000000000000000000000000000000000000000000000000000000000000000000000000000000000000000000000000000000000000000000000002403201700000000            000000000000000                              000                           
0010001300119T 020180230000002544776 29647041426128407   7               26032017000000000008000001028029                         0900000000000010000000000000000000000000000000000000000   0000000000000000000000000A9        170192964704     
0010001300120U 020000000000000000000000000000000000000000000000000000000000000000000000000000000000000000000000000000000000000000000000002403201700000000            000000000000000                              000                           
0010001300121T 020180230000002544776 29647041426255400   7               2603201700000000000600000101981X                         0900000000000010000000000000000000000000000000000000000   0000000000000000000000000A9        170192964704     
0010001300122U 020000000000000000000000000000000000000000000000000000000000000000000000000000000000000000000000000000000000000000000000002403201700000000            000000000000000                              000                           
0010001300123T 020180230000002544776 29647041426304608   7               26032017000000000006000001033316                         0900000000000010000000000000000000000000000000000000000   0000000000000000000000000A9        170192964704     
0010001300124U 020000000000000000000000000000000000000000000000000000000000000000000000000000000000000000000000000000000000000000000000002403201700000000            000000000000000                              000                           
0010001300125T 020180230000002544776 29647041426321873   7               26032017000000000006000001033316                         0900000000000010000000000000000000000000000000000000000   0000000000000000000000000A9        170192964704     
0010001300126U 020000000000000000000000000000000000000000000000000000000000000000000000000000000000000000000000000000000000000000000000002403201700000000            000000000000000                              000                           
0010001300127T 020180230000002544776 29647041426507671   7               26032017000000000006000001016179                         0900000000000010000000000000000000000000000000000000000   0000000000000000000000000A9        170192964704     
0010001300128U 020000000000000000000000000000000000000000000000000000000000000000000000000000000000000000000000000000000000000000000000002403201700000000            000000000000000                              000                           
0010001300129T 020180230000002544776 29647041426634010   7               26032017000000000006000001012467                         0900000000000010000000000000000000000000000000000000000   0000000000000000000000000A9        170192964704     
0010001300130U 020000000000000000000000000000000000000000000000000000000000000000000000000000000000000000000000000000000000000000000000002403201700000000            000000000000000                              000                           
0010001300131T 020180230000002544776 29647041426753307   7               26032017000000000008000001027111                         0900000000000010000000000000000000000000000000000000000   0000000000000000000000000A9        170192964704     
0010001300132U 020000000000000000000000000000000000000000000000000000000000000000000000000000000000000000000000000000000000000000000000002403201700000000            000000000000000                              000                           
0010001300133T 020180230000002544776 29647041426906740   7               26032017000000000006000001008214                         0900000000000010000000000000000000000000000000000000000   0000000000000000000000000A9        170192964704     
0010001300134U 020000000000000000000000000000000000000000000000000000000000000000000000000000000000000000000000000000000000000000000000002403201700000000            000000000000000                              000                           
0010001300135T 020180230000002544776 29647041427120636   7               26032017000000000006000001012467                         0900000000000010000000000000000000000000000000000000000   0000000000000000000000000A9        170192964704     
0010001300136U 020000000000000000000000000000000000000000000000000000000000000000000000000000000000000000000000000000000000000000000000002403201700000000            000000000000000                              000                           
0010001300137T 020180230000002544776 29647041427140302   7               26032017000000000006000001012467                         0900000000000010000000000000000000000000000000000000000   0000000000000000000000000A9        170192964704     
0010001300138U 020000000000000000000000000000000000000000000000000000000000000000000000000000000000000000000000000000000000000000000000002403201700000000            000000000000000                              000                           
0010001300139T 020180230000002544776 29647041427205504   7               26032017000000000008000001020354                         0900000000000010000000000000000000000000000000000000000   0000000000000000000000000A9        170192964704     
0010001300140U 020000000000000000000000000000000000000000000000000000000000000000000000000000000000000000000000000000000000000000000000002403201700000000            000000000000000                              000                           
0010001300141T 020180230000002544776 29647041427336003   7               26032017000000000006000001028029                         0900000000000010000000000000000000000000000000000000000   0000000000000000000000000A9        170192964704     
0010001300142U 020000000000000000000000000000000000000000000000000000000000000000000000000000000000000000000000000000000000000000000000002403201700000000            000000000000000                              000                           
0010001300143T 020180230000002544776 29647041427513895   7               26032017000000000006000001016179                         0900000000000010000000000000000000000000000000000000000   0000000000000000000000000A9        170192964704     
0010001300144U 020000000000000000000000000000000000000000000000000000000000000000000000000000000000000000000000000000000000000000000000002403201700000000            000000000000000                              000                           
0010001300145T 020180230000002544776 29647041427613459   7               26032017000000000006000001000132                         0900000000000010000000000000000000000000000000000000000   0000000000000000000000000A9        170192964704     
0010001300146U 020000000000000000000000000000000000000000000000000000000000000000000000000000000000000000000000000000000000000000000000002403201700000000            000000000000000                              000                           
0010001300147T 020180230000002544776 29647041427708302   7               26032017000000000006000001008214                         0900000000000010000000000000000000000000000000000000000   0000000000000000000000000A9        170192964704     
0010001300148U 020000000000000000000000000000000000000000000000000000000000000000000000000000000000000000000000000000000000000000000000002403201700000000            000000000000000                              000                           
0010001300149T 020180230000002544776 29647041427716227   7               26032017000000000006000001008214                         0900000000000010000000000000000000000000000000000000000   0000000000000000000000000A9        170192964704     
0010001300150U 020000000000000000000000000000000000000000000000000000000000000000000000000000000000000000000000000000000000000000000000002403201700000000            000000000000000                              000                           
0010001300151T 020180230000002544776 29647041427725465   7               26032017000000000006000001008214                         0900000000000010000000000000000000000000000000000000000   0000000000000000000000000A9        170192964704     
0010001300152U 020000000000000000000000000000000000000000000000000000000000000000000000000000000000000000000000000000000000000000000000002403201700000000            000000000000000                              000                           
0010001300153T 020180230000002544776 29647041427750565   7               26032017000000000006000001008214                         0900000000000010000000000000000000000000000000000000000   0000000000000000000000000A9        170192964704     
0010001300154U 020000000000000000000000000000000000000000000000000000000000000000000000000000000000000000000000000000000000000000000000002403201700000000            000000000000000                              000                           
0010001300155T 020180230000002544776 29647041427803571   7               26032017000000000006000001028029                         0900000000000010000000000000000000000000000000000000000   0000000000000000000000000A9        170192964704     
0010001300156U 020000000000000000000000000000000000000000000000000000000000000000000000000000000000000000000000000000000000000000000000002403201700000000            000000000000000                              000                           
0010001300157T 020180230000002544776 29647041427831428   7               26032017000000000006000001028029                         0900000000000010000000000000000000000000000000000000000   0000000000000000000000000A9        170192964704     
0010001300158U 020000000000000000000000000000000000000000000000000000000000000000000000000000000000000000000000000000000000000000000000002403201700000000            000000000000000                              000                           
0010001300159T 020180230000002544776 29647041427838720   7               26032017000000000006000001028029                         0900000000000010000000000000000000000000000000000000000   0000000000000000000000000A9        170192964704     
0010001300160U 020000000000000000000000000000000000000000000000000000000000000000000000000000000000000000000000000000000000000000000000002403201700000000            000000000000000                              000                           
0010001300161T 020180230000002544776 29647041427909828   7               26032017000000000006000001007218                         0900000000000010000000000000000000000000000000000000000   0000000000000000000000000A9        170192964704     
0010001300162U 020000000000000000000000000000000000000000000000000000000000000000000000000000000000000000000000000000000000000000000000002403201700000000            000000000000000                              000                           
0010001300163T 020180230000002544776 29647041428003908   7               26032017000000000008000001016179                         0900000000000010000000000000000000000000000000000000000   0000000000000000000000000A9        170192964704     
0010001300164U 020000000000000000000000000000000000000000000000000000000000000000000000000000000000000000000000000000000000000000000000002403201700000000            000000000000000                              000                           
0010001300165T 020180230000002544776 29647041428139134   7               26032017000000000006000001028029                         0900000000000010000000000000000000000000000000000000000   0000000000000000000000000A9        170192964704     
0010001300166U 020000000000000000000000000000000000000000000000000000000000000000000000000000000000000000000000000000000000000000000000002403201700000000            000000000000000                              000                           
0010001300167T 020180230000002544776 29647041428235610   7               26032017000000000006000001028029                         0900000000000010000000000000000000000000000000000000000   0000000000000000000000000A9        170192964704     
0010001300168U 020000000000000000000000000000000000000000000000000000000000000000000000000000000000000000000000000000000000000000000000002403201700000000            000000000000000                              000                           
0010001300169T 020180230000002544776 29647041428311677   7               26032017000000000006000001016179                         0900000000000010000000000000000000000000000000000000000   0000000000000000000000000A9        170192964704     
0010001300170U 020000000000000000000000000000000000000000000000000000000000000000000000000000000000000000000000000000000000000000000000002403201700000000            000000000000000                              000                           
0010001300171T 020180230000002544776 29647041428351279   7               26032017000000000006000001016179                         0900000000000010000000000000000000000000000000000000000   0000000000000000000000000A9        170192964704     
0010001300172U 020000000000000000000000000000000000000000000000000000000000000000000000000000000000000000000000000000000000000000000000002403201700000000            000000000000000                              000                           
0010001300173T 020180230000002544776 29647041428417006   7               26032017000000000006000001001511                         0900000000000010000000000000000000000000000000000000000   0000000000000000000000000A9        170192964704     
0010001300174U 020000000000000000000000000000000000000000000000000000000000000000000000000000000000000000000000000000000000000000000000002403201700000000            000000000000000                              000                           
0010001300175T 020180230000002544776 29647041428512131   7               26032017000000000006000001028029                         0900000000000010000000000000000000000000000000000000000   0000000000000000000000000A9        170192964704     
0010001300176U 020000000000000000000000000000000000000000000000000000000000000000000000000000000000000000000000000000000000000000000000002403201700000000            000000000000000                              000                           
0010001300177T 020180230000002544776 29647041428808863   7               26032017000000000006000001016179                         0900000000000010000000000000000000000000000000000000000   0000000000000000000000000A9        170192964704     
0010001300178U 020000000000000000000000000000000000000000000000000000000000000000000000000000000000000000000000000000000000000000000000002403201700000000            000000000000000                              000                           
0010001300179T 020180230000002544776 29647041428943398   7               26032017000000000006000001000132                         0900000000000010000000000000000000000000000000000000000   0000000000000000000000000A9        170192964704     
0010001300180U 020000000000000000000000000000000000000000000000000000000000000000000000000000000000000000000000000000000000000000000000002403201700000000            000000000000000                              000                           
0010001300181T 020180230000002544776 29647041429028221   7               26032017000000000006000001012467                         0900000000000010000000000000000000000000000000000000000   0000000000000000000000000A9        170192964704     
0010001300182U 020000000000000000000000000000000000000000000000000000000000000000000000000000000000000000000000000000000000000000000000002403201700000000            000000000000000                              000                           
0010001300183T 020180230000002544776 29647041429252398   7               26032017000000000006000001023655                         0900000000000010500000000000000000000000000000000000000   0000000000000000000000000A9A4      170192964704     
0010001300184U 020000000000000000000000000000000000000000000000000000000000000000000000000000000000000000000000000000000000000000000000002403201700000000            000000000000000                              000                           
0010001300185T 020180230000002544776 29647041429350767   7               26032017000000000006000001028029                         0900000000000010000000000000000000000000000000000000000   0000000000000000000000000A9        170192964704     
0010001300186U 020000000000000000000000000000000000000000000000000000000000000000000000000000000000000000000000000000000000000000000000002403201700000000            000000000000000                              000                           
0010001300187T 020180230000002544776 29647041429638945   7               26032017000000000006000001016179                         0900000000000010000000000000000000000000000000000000000   0000000000000000000000000A9        170192964704     
0010001300188U 020000000000000000000000000000000000000000000000000000000000000000000000000000000000000000000000000000000000000000000000002403201700000000            000000000000000                              000                           
0010001300189T 020180230000002544776 29647041429942014   7               26032017000000000008000001032859                         0900000000000010000000000000000000000000000000000000000   0000000000000000000000000A9        170192964704     
0010001300190U 020000000000000000000000000000000000000000000000000000000000000000000000000000000000000000000000000000000000000000000000002403201700000000            000000000000000                              000                           
0010001300191T 020180230000002544776 29647041430010208   7               26032017000000000006000001000132                         0900000000000010000000000000000000000000000000000000000   0000000000000000000000000A9        170192964704     
0010001300192U 020000000000000000000000000000000000000000000000000000000000000000000000000000000000000000000000000000000000000000000000002403201700000000            000000000000000                              000                           
0010001300193T 020180230000002544776 29647041430103385   7               26032017000000000006000001000132                         0900000000000010000000000000000000000000000000000000000   0000000000000000000000000A9        170192964704     
0010001300194U 020000000000000000000000000000000000000000000000000000000000000000000000000000000000000000000000000000000000000000000000002403201700000000            000000000000000                              000                           
0010001300195T 020180230000002544776 29647041430406327   7               26032017000000000006000001000493                         0900000000000010000000000000000000000000000000000000000   0000000000000000000000000A9        170192964704     
0010001300196U 020000000000000000000000000000000000000000000000000000000000000000000000000000000000000000000000000000000000000000000000002403201700000000            000000000000000                              000                           
0010001300197T 020180230000002544776 29647041430420850   7               26032017000000000006000001000493                         0900000000000010000000000000000000000000000000000000000   0000000000000000000000000A9        170192964704     
0010001300198U 020000000000000000000000000000000000000000000000000000000000000000000000000000000000000000000000000000000000000000000000002403201700000000            000000000000000                              000                           
0010001300199T 020180230000002544776 29647041430527331   7               26032017000000000006000001010529                         0900000000000010000000000000000000000000000000000000000   0000000000000000000000000A9        170192964704     
0010001300200U 020000000000000000000000000000000000000000000000000000000000000000000000000000000000000000000000000000000000000000000000002403201700000000            000000000000000                              000                           
0010001300201T 020180230000002544776 29647041430615797   7               26032017000000000006000001009636                         0900000000000010000000000000000000000000000000000000000   0000000000000000000000000A9        170192964704     
0010001300202U 020000000000000000000000000000000000000000000000000000000000000000000000000000000000000000000000000000000000000000000000002403201700000000            000000000000000                              000                           
0010001300203T 020180230000002544776 29647041430859155   7               26032017000000000006000001016179                         0900000000000010000000000000000000000000000000000000000   0000000000000000000000000A9        170192964704     
0010001300204U 020000000000000000000000000000000000000000000000000000000000000000000000000000000000000000000000000000000000000000000000002403201700000000            000000000000000                              000                           
0010001300205T 020180230000002544776 29647041430912263   7               2603201700000000000600000102726X                         0900000000000010000000000000000000000000000000000000000   0000000000000000000000000A9        170192964704     
0010001300206U 020000000000000000000000000000000000000000000000000000000000000000000000000000000000000000000000000000000000000000000000002403201700000000            000000000000000                              000                           
0010001300207T 020180230000002544776 29647041431348885   7               26032017000000000008000001028029                         0900000000000010000000000000000000000000000000000000000   0000000000000000000000000A9        170192964704     
0010001300208U 020000000000000000000000000000000000000000000000000000000000000000000000000000000000000000000000000000000000000000000000002403201700000000            000000000000000                              000                           
0010001300209T 020180230000002544776 29647041431433458   7               26032017000000000006000001028029                         0900000000000010000000000000000000000000000000000000000   0000000000000000000000000A9        170192964704     
0010001300210U 020000000000000000000000000000000000000000000000000000000000000000000000000000000000000000000000000000000000000000000000002403201700000000            000000000000000                              000                           
0010001300211T 020180230000002544776 29647041431732428   7               26032017000000000006000001008214                         0900000000000010000000000000000000000000000000000000000   0000000000000000000000000A9        170192964704     
0010001300212U 020000000000000000000000000000000000000000000000000000000000000000000000000000000000000000000000000000000000000000000000002403201700000000            000000000000000                              000                           
0010001300213T 020180230000002544776 29647041431847130   7               26032017000000000006000001023655                         0900000000000010000000000000000000000000000000000000000   0000000000000000000000000A9        170192964704     
0010001300214U 020000000000000000000000000000000000000000000000000000000000000000000000000000000000000000000000000000000000000000000000002403201700000000            000000000000000                              000                           
0010001300215T 020180230000002544776 29647041431855953   7               26032017000000000006000001023655                         0900000000000010000000000000000000000000000000000000000   0000000000000000000000000A9        170192964704     
0010001300216U 020000000000000000000000000000000000000000000000000000000000000000000000000000000000000000000000000000000000000000000000002403201700000000            000000000000000                              000                           
0010001300217T 020180230000002544776 29647041432144235   7               26032017000000000006000001016179                         0900000000000010000000000000000000000000000000000000000   0000000000000000000000000A9        170192964704     
0010001300218U 020000000000000000000000000000000000000000000000000000000000000000000000000000000000000000000000000000000000000000000000002403201700000000            000000000000000                              000                           
0010001300219T 020180230000002544776 29647041432240445   7               26032017000000000006000001008214                         0900000000000010000000000000000000000000000000000000000   0000000000000000000000000A9        170192964704     
0010001300220U 020000000000000000000000000000000000000000000000000000000000000000000000000000000000000000000000000000000000000000000000002403201700000000            000000000000000                              000                           
0010001300221T 020180230000002544776 29647041432358914   7               26032017000000000006000001000698                         0900000000000010000000000000000000000000000000000000000   0000000000000000000000000A9        170192964704     
0010001300222U 020000000000000000000000000000000000000000000000000000000000000000000000000000000000000000000000000000000000000000000000002403201700000000            000000000000000                              000                           
0010001300223T 020180230000002544776 29647041432452425   7               26032017000000000006000001033316                         0900000000000010000000000000000000000000000000000000000   0000000000000000000000000A9        170192964704     
0010001300224U 020000000000000000000000000000000000000000000000000000000000000000000000000000000000000000000000000000000000000000000000002403201700000000            000000000000000                              000                           
0010001300225T 020180230000002544776 29647041432659809   7               26032017000000000006000001006734                         0900000000000010000000000000000000000000000000000000000   0000000000000000000000000A9        170192964704     
0010001300226U 020000000000000000000000000000000000000000000000000000000000000000000000000000000000000000000000000000000000000000000000002403201700000000            000000000000000                              000                           
0010001300227T 020180230000002544776 29647041432826300   7               26032017000000000006000001028029                         0900000000000010000000000000000000000000000000000000000   0000000000000000000000000A9        170192964704     
0010001300228U 020000000000000000000000000000000000000000000000000000000000000000000000000000000000000000000000000000000000000000000000002403201700000000            000000000000000                              000                           
0010001300229T 020180230000002544776 29647041433049497   7               26032017000000000006000001012467                         0900000000000010000000000000000000000000000000000000000   0000000000000000000000000A9        170192964704     
0010001300230U 020000000000000000000000000000000000000000000000000000000000000000000000000000000000000000000000000000000000000000000000002403201700000000            000000000000000                              000                           
0010001300231T 020180230000002544776 29647041433108728   7               26032017000000000006000001020478                         0900000000000010000000000000000000000000000000000000000   0000000000000000000000000A9        170192964704     
0010001300232U 020000000000000000000000000000000000000000000000000000000000000000000000000000000000000000000000000000000000000000000000002403201700000000            000000000000000                              000                           
0010001300233T 020180230000002544776 29647041433227088   7               26032017000000000006000001023655                         0900000000000010000000000000000000000000000000000000000   0000000000000000000000000A9        170192964704     
0010001300234U 020000000000000000000000000000000000000000000000000000000000000000000000000000000000000000000000000000000000000000000000002403201700000000            000000000000000                              000                           
0010001300235T 020180230000002544776 29647041433325784   7               26032017000000000006000001008214                         0900000000000010000000000000000000000000000000000000000   0000000000000000000000000A9        170192964704     
0010001300236U 020000000000000000000000000000000000000000000000000000000000000000000000000000000000000000000000000000000000000000000000002403201700000000            000000000000000                              000                           
0010001300237T 020180230000002544776 29647041433410704   7               26032017000000000006000001012467                         0900000000000010000000000000000000000000000000000000000   0000000000000000000000000A9        170192964704     
0010001300238U 020000000000000000000000000000000000000000000000000000000000000000000000000000000000000000000000000000000000000000000000002403201700000000            000000000000000                              000                           
0010001300239T 020180230000002544776 29647041433414607   7               26032017000000000006000001012467                         0900000000000010000000000000000000000000000000000000000   0000000000000000000000000A9        170192964704     
0010001300240U 020000000000000000000000000000000000000000000000000000000000000000000000000000000000000000000000000000000000000000000000002403201700000000            000000000000000                              000                           
0010001300241T 020180230000002544776 29647041433548636   7               26032017000000000006000001028029                         0900000000000010000000000000000000000000000000000000000   0000000000000000000000000A9        170192964704     
0010001300242U 020000000000000000000000000000000000000000000000000000000000000000000000000000000000000000000000000000000000000000000000002403201700000000            000000000000000                              000                           
0010001300243T 020180230000002544776 29647041433647695   7               26032017000000000006000001001597                         0900000000000010000000000000000000000000000000000000000   0000000000000000000000000A9        170192964704     
0010001300244U 020000000000000000000000000000000000000000000000000000000000000000000000000000000000000000000000000000000000000000000000002403201700000000            000000000000000                              000                           
0010001300245T 020180230000002544776 29647041433749797   7               26032017000000000006000001012467                         0900000000000010000000000000000000000000000000000000000   0000000000000000000000000A9        170192964704     
0010001300246U 020000000000000000000000000000000000000000000000000000000000000000000000000000000000000000000000000000000000000000000000002403201700000000            000000000000000                              000                           
0010001300247T 020180230000002544776 29647041433750430   7               26032017000000000006000001012467                         0900000000000010000000000000000000000000000000000000000   0000000000000000000000000A9        170192964704     
0010001300248U 020000000000000000000000000000000000000000000000000000000000000000000000000000000000000000000000000000000000000000000000002403201700000000            000000000000000                              000                           
0010001300249T 020180230000002544776 29647041433903791   7               26032017000000000008000001000132                         0900000000000010000000000000000000000000000000000000000   0000000000000000000000000A9        170192964704     
0010001300250U 020000000000000000000000000000000000000000000000000000000000000000000000000000000000000000000000000000000000000000000000002403201700000000            000000000000000                              000                           
0010001300251T 020180230000002544776 29647041433911436   7               26032017000000000008000001000132                         0900000000000010000000000000000000000000000000000000000   0000000000000000000000000A9        170192964704     
0010001300252U 020000000000000000000000000000000000000000000000000000000000000000000000000000000000000000000000000000000000000000000000002403201700000000            000000000000000                              000                           
0010001300253T 020180230000002544776 29647041434045147   7               26032017000000000006000001016179                         0900000000000010000000000000000000000000000000000000000   0000000000000000000000000A9        170192964704     
0010001300254U 020000000000000000000000000000000000000000000000000000000000000000000000000000000000000000000000000000000000000000000000002403201700000000            000000000000000                              000                           
0010001300255T 020180230000002544776 29647041434101262   7               26032017000000000006000001000132                         0900000000000010000000000000000000000000000000000000000   0000000000000000000000000A9        170192964704     
0010001300256U 020000000000000000000000000000000000000000000000000000000000000000000000000000000000000000000000000000000000000000000000002403201700000000            000000000000000                              000                           
0010001300257T 020180230000002544776 29647041434244338   7               26032017000000000006000001028029                         0900000000000010000000000000000000000000000000000000000   0000000000000000000000000A9        170192964704     
0010001300258U 020000000000000000000000000000000000000000000000000000000000000000000000000000000000000000000000000000000000000000000000002403201700000000            000000000000000                              000                           
0010001300259T 020180230000002544776 29647041434344163   7               26032017000000000006000001016179                         0900000000000010000000000000000000000000000000000000000   0000000000000000000000000A9        170192964704     
0010001300260U 020000000000000000000000000000000000000000000000000000000000000000000000000000000000000000000000000000000000000000000000002403201700000000            000000000000000                              000                           
0010001300261T 020180230000002544776 29647041434424983   7               26032017000000000006000001028029                         0900000000000010000000000000000000000000000000000000000   0000000000000000000000000A9        170192964704     
0010001300262U 020000000000000000000000000000000000000000000000000000000000000000000000000000000000000000000000000000000000000000000000002403201700000000            000000000000000                              000                           
0010001300263T 020180230000002544776 29647041434518484   7               26032017000000000008000001000132                         0900000000000010000000000000000000000000000000000000000   0000000000000000000000000A9        170192964704     
0010001300264U 020000000000000000000000000000000000000000000000000000000000000000000000000000000000000000000000000000000000000000000000002403201700000000            000000000000000                              000                           
0010001300265T 020180230000002544776 29647041434717539   7               26032017000000000006000001028029                         0900000000000010000000000000000000000000000000000000000   0000000000000000000000000A9        170192964704     
0010001300266U 020000000000000000000000000000000000000000000000000000000000000000000000000000000000000000000000000000000000000000000000002403201700000000            000000000000000                              000                           
0010001300267T 020180230000002544776 29647041434827562   7               26032017000000000006000001023655                         0900000000000010000000000000000000000000000000000000000   0000000000000000000000000A9        170192964704     
0010001300268U 020000000000000000000000000000000000000000000000000000000000000000000000000000000000000000000000000000000000000000000000002403201700000000            000000000000000                              000                           
0010001300269T 020180230000002544776 29647041434949287   7               2603201700000000000800000104637X                         0900000000000010000000000000000000000000000000000000000   0000000000000000000000000A9        170192964704     
0010001300270U 020000000000000000000000000000000000000000000000000000000000000000000000000000000000000000000000000000000000000000000000002403201700000000            000000000000000                              000                           
0010001300271T 020180230000002544776 29647041435043853   7               26032017000000000008000001028029                         0900000000000010000000000000000000000000000000000000000   0000000000000000000000000A9        170192964704     
0010001300272U 020000000000000000000000000000000000000000000000000000000000000000000000000000000000000000000000000000000000000000000000002403201700000000            000000000000000                              000                           
0010001300273T 020180230000002544776 29647041435151705   7               26032017000000000006000001028029                         0900000000000010000000000000000000000000000000000000000   0000000000000000000000000A9        170192964704     
0010001300274U 020000000000000000000000000000000000000000000000000000000000000000000000000000000000000000000000000000000000000000000000002403201700000000            000000000000000                              000                           
0010001300275T 020180230000002544776 29647041435220611   7               26032017000000000008000001001597                         0900000000000010000000000000000000000000000000000000000   0000000000000000000000000A9        170192964704     
0010001300276U 020000000000000000000000000000000000000000000000000000000000000000000000000000000000000000000000000000000000000000000000002403201700000000            000000000000000                              000                           
0010001300277T 020180230000002544776 29647041435344804   7               26032017000000000008000001028029                         0900000000000010000000000000000000000000000000000000000   0000000000000000000000000A9        170192964704     
0010001300278U 020000000000000000000000000000000000000000000000000000000000000000000000000000000000000000000000000000000000000000000000002403201700000000            000000000000000                              000                           
0010001300279T 020180230000002544776 29647041435413001   7               26032017000000000006000001028029                         0900000000000010500000000000000000000000000000000000000   0000000000000000000000000A9A4      170192964704     
0010001300280U 020000000000000000000000000000000000000000000000000000000000000000000000000000000000000000000000000000000000000000000000002403201700000000            000000000000000                              000                           
0010001300281T 020180230000002544776 29647041435523575   7               26032017000000000006000001028029                         0900000000000010000000000000000000000000000000000000000   0000000000000000000000000A9        170192964704     
0010001300282U 020000000000000000000000000000000000000000000000000000000000000000000000000000000000000000000000000000000000000000000000002403201700000000            000000000000000                              000                           
0010001300283T 020180230000002544776 29647041435604272   7               26032017000000000006000001028029                         0900000000000010000000000000000000000000000000000000000   0000000000000000000000000A9        170192964704     
0010001300284U 020000000000000000000000000000000000000000000000000000000000000000000000000000000000000000000000000000000000000000000000002403201700000000            000000000000000                              000                           
0010001300285T 020180230000002544776 29647041435628217   7               26032017000000000006000001028029                         0900000000000010000000000000000000000000000000000000000   0000000000000000000000000A9        170192964704     
0010001300286U 020000000000000000000000000000000000000000000000000000000000000000000000000000000000000000000000000000000000000000000000002403201700000000            000000000000000                              000                           
0010001300287T 020180230000002544776 29647041435744985   7               26032017000000000006000001033316                         0900000000000010000000000000000000000000000000000000000   0000000000000000000000000A9        170192964704     
0010001300288U 020000000000000000000000000000000000000000000000000000000000000000000000000000000000000000000000000000000000000000000000002403201700000000            000000000000000                              000                           
0010001300289T 020180230000002544776 29647041435859377   7               26032017000000000006000001025429                         0900000000000010000000000000000000000000000000000000000   0000000000000000000000000A9        170192964704     
0010001300290U 020000000000000000000000000000000000000000000000000000000000000000000000000000000000000000000000000000000000000000000000002403201700000000            000000000000000                              000                           
0010001300291T 020180230000002544776 29647041436006346   7               26032017000000000006000001023655                         0900000000000010000000000000000000000000000000000000000   0000000000000000000000000A9        170192964704     
0010001300292U 020000000000000000000000000000000000000000000000000000000000000000000000000000000000000000000000000000000000000000000000002403201700000000            000000000000000                              000                           
0010001300293T 020180230000002544776 29647041436138317   7               26032017000000000006000001013617                         0900000000000010000000000000000000000000000000000000000   0000000000000000000000000A9        170192964704     
0010001300294U 020000000000000000000000000000000000000000000000000000000000000000000000000000000000000000000000000000000000000000000000002403201700000000            000000000000000                              000                           
0010001300295T 020180230000002544776 29647041436238440   7               26032017000000000006000001018376                         0900000000000010500000000000000000000000000000000000000   0000000000000000000000000A9A4      170192964704     
0010001300296U 020000000000000000000000000000000000000000000000000000000000000000000000000000000000000000000000000000000000000000000000002403201700000000            000000000000000                              000                           
0010001300297T 020180230000002544776 29647041436324179   7               26032017000000000006000001024376                         0900000000000010000000000000000000000000000000000000000   0000000000000000000000000A9        170192964704     
0010001300298U 020000000000000000000000000000000000000000000000000000000000000000000000000000000000000000000000000000000000000000000000002403201700000000            000000000000000                              000                           
0010001300299T 020180230000002544776 29647041436344331   7               26032017000000000006000001024376                         0900000000000010000000000000000000000000000000000000000   0000000000000000000000000A9        170192964704     
0010001300300U 020000000000000000000000000000000000000000000000000000000000000000000000000000000000000000000000000000000000000000000000002403201700000000            000000000000000                              000                           
0010001300301T 020180230000002544776 29647041436453552   7               26032017000000000008000001023264                         0900000000000010000000000000000000000000000000000000000   0000000000000000000000000A9        170192964704     
0010001300302U 020000000000000000000000000000000000000000000000000000000000000000000000000000000000000000000000000000000000000000000000002403201700000000            000000000000000                              000                           
0010001300303T 020180230000002544776 29647041436535719   7               26032017000000000006000001011398                         0900000000000010000000000000000000000000000000000000000   0000000000000000000000000A9        170192964704     
0010001300304U 020000000000000000000000000000000000000000000000000000000000000000000000000000000000000000000000000000000000000000000000002403201700000000            000000000000000                              000                           
0010001300305T 020180230000002544776 29647041436719623   7               26032017000000000006000001033316                         0900000000000010000000000000000000000000000000000000000   0000000000000000000000000A9        170192964704     
0010001300306U 020000000000000000000000000000000000000000000000000000000000000000000000000000000000000000000000000000000000000000000000002403201700000000            000000000000000                              000                           
0010001300307T 020180230000002544776 29647041436810721   7               26032017000000000006000001006254                         0900000000000010000000000000000000000000000000000000000   0000000000000000000000000A9        170192964704     
0010001300308U 020000000000000000000000000000000000000000000000000000000000000000000000000000000000000000000000000000000000000000000000002403201700000000            000000000000000                              000                           
0010001300309T 020180230000002544776 29647041436927420   7               26032017000000000008000001016179                         0900000000000010000000000000000000000000000000000000000   0000000000000000000000000A9        170192964704     
0010001300310U 020000000000000000000000000000000000000000000000000000000000000000000000000000000000000000000000000000000000000000000000002403201700000000            000000000000000                              000                           
0010001300311T 020180230000002544776 29647041436935101   7               26032017000000000008000001016179                         0900000000000010000000000000000000000000000000000000000   0000000000000000000000000A9        170192964704     
0010001300312U 020000000000000000000000000000000000000000000000000000000000000000000000000000000000000000000000000000000000000000000000002403201700000000            000000000000000                              000                           
0010001300313T 020180230000002544776 29647041437058652   7               26032017000000000008000001000132                         0900000000000010000000000000000000000000000000000000000   0000000000000000000000000A9        170192964704     
0010001300314U 020000000000000000000000000000000000000000000000000000000000000000000000000000000000000000000000000000000000000000000000002403201700000000            000000000000000                              000                           
0010001300315T 020180230000002544776 29647041437144114   7               26032017000000000006000001028029                         0900000000000010500000000000000000000000000000000000000   0000000000000000000000000A9A4      170192964704     
0010001300316U 020000000000000000000000000000000000000000000000000000000000000000000000000000000000000000000000000000000000000000000000002403201700000000            000000000000000                              000                           
0010001300317T 020180230000002544776 29647041437254893   7               26032017000000000006000001000493                         0900000000000010500000000000000000000000000000000000000   0000000000000000000000000A9A4      170192964704     
0010001300318U 020000000000000000000000000000000000000000000000000000000000000000000000000000000000000000000000000000000000000000000000002403201700000000            000000000000000                              000                           
0010001300319T 020180230000002544776 29647041437452356   7               26032017000000000006000001000361                         0900000000000010000000000000000000000000000000000000000   0000000000000000000000000A9        170192964704     
0010001300320U 020000000000000000000000000000000000000000000000000000000000000000000000000000000000000000000000000000000000000000000000002403201700000000            000000000000000                              000                           
0010001300321T 060180230000002544776 29647040725243189   7               26032017000000000006000104010690                         0900000000000010000000000000000000000000000000000000000   000000000000000000000029000        170192964704     
0010001300322U 060000000000000000000000000000000000000000000000000000000000000000000000060000000000000057100000000000000000000000000000002403201728032017            000000000000000                              000                           
0010001300323T 060180230000002544776 29647040932543488   7               25032017000000000006000104030180                         0900000000000010000000000000000000000000000000000000000   000000000000000000000029000        170192964704     
0010001300324U 060000000000000000000000000000000000000000000000000000000000000000000000060000000000000057100000000000000000000000000000002403201728032017            000000000000000                              000                           
0010001300325T 060180230000002544776 29647040945913650   7               24032017000000000008000104009040                         0900000000000010000000000000000000000000000000000000000   000000000000000000000029000        170192964704     
0010001300326U 060000000000000000000000000000000000000000000000000000000000000000000000080000000000000077100000000000000000000000000000002403201728032017            000000000000000                              000                           
0010001300327T 060180230000002544776 29647040962020236   7               26032017000000000008000001057908                         0900000000000010000000000000000000000000000000000000000   000000000000000000000029000        170192964704     
0010001300328U 060000000000000000000000000000000000000000000000000000000000000000000000080000000000000077100000000000000000000000000000002403201728032017            000000000000000                              000                           
0010001300329T 060180230000002544776 29647040968457090   7               24032017000000000006000104023460                         0900000000000010000000000000000000000000000000000000000   000000000000000000000029000        170192964704     
0010001300330U 060000000000000000000000000000000000000000000000000000000000000000000000060000000000000057100000000000000000000000000000002403201728032017            000000000000000                              000                           
0010001300331T 060180230000002544776 29647040984042343   7               26032017000000000008000001025127                         0900000000000010000000000000000000000000000000000000000   000000000000000000000029000        170192964704     
0010001300332U 060000000000000000000000000000000000000000000000000000000000000000000000080000000000000077100000000000000000000000000000002403201728032017            000000000000000                              000                           
0010001300333T 060180230000002544776 29647041078908216   7               25032017000000000006000237031690                         0900000000000010000000000000000000000000000000000000000   000000000000000000000029000        170192964704     
0010001300334U 060000000000000000000000000000000000000000000000000000000000000000000000060000000000000057100000000000000000000000000000002403201728032017            000000000000000                              000                           
0010001300335T 060180230000002544776 29647041123501072   7               25032017000000000006000104005390                         0900000000000010000000000000000000000000000000000000000   000000000000000000000029000        170192964704     
0010001300336U 060000000000000000000000000000000000000000000000000000000000000000000000060000000000000057100000000000000000000000000000002403201728032017            000000000000000                              000                           
0010001300337T 060180230000002544776 29647041138100304   7               24032017000000000006000237031410                         0900000000000010000000000000000000000000000000000000000   000000000000000000000029000        170192964704     
0010001300338U 060000000000000000000000000000000000000000000000000000000000000000000000060000000000000057100000000000000000000000000000002403201728032017            000000000000000                              000                           
0010001300339T 060180230000002544776 29647041274116344   7               24032017000000000006000104009440                         0900000000000010000000000000000000000000000000000000000   000000000000000000000029000        170192964704     
0010001300340U 060000000000000000000000000000000000000000000000000000000000000000000000060000000000000057100000000000000000000000000000002403201728032017            000000000000000                              000                           
0010001300341T 060180230000002544776 29647041308313360   7               24032017000000000006000001023655                         0900000000000010000000000000000000000000000000000000000   000000000000000000000029000        170192964704     
0010001300342U 060000000000000000000000000000000000000000000000000000000000000000000000060000000000000057100000000000000000000000000000002403201728032017            000000000000000                              000                           
0010001300343T 060180230000002544776 29647041327816668   7               26032017000000000006000001016179                         0900000000000010000000000000000000000000000000000000000   000000000000000000000029000        170192964704     
0010001300344U 060000000000000000000000000000000000000000000000000000000000000000000000060000000000000057100000000000000000000000000000002403201728032017            000000000000000                              000                           
0010001300345T 060180230000002544776 29647041369403117   7               24032017000000000006000104049820                         0900000000000010000000000000000000000000000000000000000   000000000000000000000029000        170192964704     
0010001300346U 060000000000000000000000000000000000000000000000000000000000000000000000060000000000000057100000000000000000000000000000002403201728032017            000000000000000                              000                           
0010001300347T 060180230000002544776 29647041371756453   7               24032017000000000006000104015810                         0900000000000010000000000000000000000000000000000000000   000000000000000000000029000        170192964704     
0010001300348U 060000000000000000000000000000000000000000000000000000000000000000000000060000000000000057100000000000000000000000000000002403201728032017            000000000000000                              000                           
0010001300349T 060180230000002544776 29647041378222962   7               25032017000000000006000104006780                         0900000000000010000000000000000000000000000000000000000   000000000000000000000029000        170192964704     
0010001300350U 060000000000000000000000000000000000000000000000000000000000000000000000060000000000000057100000000000000000000000000000002403201728032017            000000000000000                              000                           
0010001300351T 060180230000002544776 29647041378753339   7               24032017000000000008000001018147                         0900000000000010000000000000000000000000000000000000000   000000000000000000000029000        170192964704     
0010001300352U 060000000000000000000000000000000000000000000000000000000000000000000000080000000000000077100000000000000000000000000000002403201728032017            000000000000000                              000                           
0010001300353T 060180230000002544776 29647041398814165   7               24032017000000000006000104009740                         0900000000000010000000000000000000000000000000000000000   000000000000000000000029000        170192964704     
0010001300354U 060000000000000000000000000000000000000000000000000000000000000000000000060000000000000057100000000000000000000000000000002403201728032017            000000000000000                              000                           
0010001300355T 060180230000002544776 29647041400628744   7               24032017000000000008000341031750                         0900000000000010000000000000000000000000000000000000000   000000000000000000000029000        170192964704     
0010001300356U 060000000000000000000000000000000000000000000000000000000000000000000000080000000000000077100000000000000000000000000000002403201728032017            000000000000000                              000                           
0010001300357T 060180230000002544776 29647041401913203   7               24032017000000000006000001032506                         0900000000000010000000000000000000000000000000000000000   000000000000000000000029000        170192964704     
0010001300358U 060000000000000000000000000000000000000000000000000000000000000000000000060000000000000057100000000000000000000000000000002403201728032017            000000000000000                              000                           
0010001300359T 060180230000002544776 29647041403241076   7               24032017000000000006000237021080                         0900000000000010000000000000000000000000000000000000000   000000000000000000000029000        170192964704     
0010001300360U 060000000000000000000000000000000000000000000000000000000000000000000000060000000000000057100000000000000000000000000000002403201728032017            000000000000000                              000                           
0010001300361T 060180230000002544776 29647041405043315   7               24032017000000000006000237002890                         0900000000000010000000000000000000000000000000000000000   000000000000000000000029000        170192964704     
0010001300362U 060000000000000000000000000000000000000000000000000000000000000000000000060000000000000057100000000000000000000000000000002403201728032017            000000000000000                              000                           
0010001300363T 060180230000002544776 29647041408938650   7               24032017000000000006000104015830                         0900000000000010000000000000000000000000000000000000000   000000000000000000000029000        170192964704     
0010001300364U 060000000000000000000000000000000000000000000000000000000000000000000000060000000000000057100000000000000000000000000000002403201728032017            000000000000000                              000                           
0010001300365T 060180230000002544776 29647041410914405   7               24032017000000000006000104019140                         0900000000000010000000000000000000000000000000000000000   000000000000000000000029000        170192964704     
0010001300366U 060000000000000000000000000000000000000000000000000000000000000000000000060000000000000057100000000000000000000000000000002403201728032017            000000000000000                              000                           
0010001300367T 060180230000002544776 29647041411252820   7               24032017000000000006000001050261                         0900000000000010000000000000000000000000000000000000000   000000000000000000000029000        170192964704     
0010001300368U 060000000000000000000000000000000000000000000000000000000000000000000000060000000000000057100000000000000000000000000000002403201728032017            000000000000000                              000                           
0010001300369T 060180230000002544776 29647041412752773   7               25032017000000000008000104000530                         0900000000000010000000000000000000000000000000000000000   000000000000000000000029000        170192964704     
0010001300370U 060000000000000000000000000000000000000000000000000000000000000000000000080000000000000077100000000000000000000000000000002403201728032017            000000000000000                              000                           
0010001300371T 060180230000002544776 29647041412918234   7               25032017000000000006000104008670                         0900000000000010000000000000000000000000000000000000000   000000000000000000000029000        170192964704     
0010001300372U 060000000000000000000000000000000000000000000000000000000000000000000000060000000000000057100000000000000000000000000000002403201728032017            000000000000000                              000                           
0010001300373T 060180230000002544776 29647041414225536   7               26032017000000000006000001031089                         0900000000000010000000000000000000000000000000000000000   000000000000000000000029000        170192964704     
0010001300374U 060000000000000000000000000000000000000000000000000000000000000000000000060000000000000057100000000000000000000000000000002403201728032017            000000000000000                              000                           
0010001300375T 060180230000002544776 29647041414718380   7               25032017000000000006000104009040                         0900000000000010000000000000000000000000000000000000000   000000000000000000000029000        170192964704     
0010001300376U 060000000000000000000000000000000000000000000000000000000000000000000000060000000000000057100000000000000000000000000000002403201728032017            000000000000000                              000                           
0010001300377T 060180230000002544776 29647041418136988   7               25032017000000000006000104009040                         0900000000000010000000000000000000000000000000000000000   000000000000000000000029000        170192964704     
0010001300378U 060000000000000000000000000000000000000000000000000000000000000000000000060000000000000057100000000000000000000000000000002403201728032017            000000000000000                              000                           
0010001300379T 060180230000002544776 29647041421226036   7               25032017000000000006000104049760                         0900000000000010000000000000000000000000000000000000000   000000000000000000000029000        170192964704     
0010001300380U 060000000000000000000000000000000000000000000000000000000000000000000000060000000000000057100000000000000000000000000000002403201728032017            000000000000000                              000                           
0010001300381T 060180230000002544776 29647041422041383   7               25032017000000000006000001000116                         0900000000000010000000000000000000000000000000000000000   000000000000000000000029000        170192964704     
0010001300382U 060000000000000000000000000000000000000000000000000000000000000000000000060000000000000057100000000000000000000000000000002403201728032017            000000000000000                              000                           
0010001300383T 060180230000002544776 29647041424617863   7               25032017000000000008000001048445                         0900000000000010000000000000000000000000000000000000000   000000000000000000000029000        170192964704     
0010001300384U 060000000000000000000000000000000000000000000000000000000000000000000000080000000000000077100000000000000000000000000000002403201728032017            000000000000000                              000                           
0010001300385T 060180230000002544776 29647041426321873   7               26032017000000000006000104008360                         0900000000000010000000000000000000000000000000000000000   000000000000000000000029000        170192964704     
0010001300386U 060000000000000000000000000000000000000000000000000000000000000000000000060000000000000057100000000000000000000000000000002403201728032017            000000000000000                              000                           
0010001300387T 060180230000002544776 29647041427120636   7               2603201700000000000600000104833X                         0900000000000010000000000000000000000000000000000000000   000000000000000000000029000        170192964704     
0010001300388U 060000000000000000000000000000000000000000000000000000000000000000000000060000000000000057100000000000000000000000000000002403201728032017            000000000000000                              000                           
0010001300389T 060180230000002544776 29647041428003908   7               26032017000000000008000001049964                         0900000000000010000000000000000000000000000000000000000   000000000000000000000029000        170192964704     
0010001300390U 060000000000000000000000000000000000000000000000000000000000000000000000080000000000000077100000000000000000000000000000002403201728032017            000000000000000                              000                           
0010001300391T 060180230000002544776 29647041428808863   7               26032017000000000006000001002291                         0900000000000010000000000000000000000000000000000000000   000000000000000000000029000        170192964704     
0010001300392U 060000000000000000000000000000000000000000000000000000000000000000000000060000000000000057100000000000000000000000000000002403201728032017            000000000000000                              000                           
0010001300393T 060180230000002544776 29647041429028221   7               26032017000000000006000104014060                         0900000000000010000000000000000000000000000000000000000   000000000000000000000029000        170192964704     
0010001300394U 060000000000000000000000000000000000000000000000000000000000000000000000060000000000000057100000000000000000000000000000002403201728032017            000000000000000                              000                           
0010001300395T 060180230000002544776 29647041432826300   7               26032017000000000006000001032506                         0900000000000010000000000000000000000000000000000000000   000000000000000000000029000        170192964704     
0010001300396U 060000000000000000000000000000000000000000000000000000000000000000000000060000000000000057100000000000000000000000000000002403201728032017            000000000000000                              000                           
0010001300397T 280180230000002544776 29647040509353422   7               22022017000000000006000001000000                         0900000000000000000000000000000000000000000000000000000   000000000000000000000005002        170192964704     
0010001300398U 280000000000000000000000000000000000000000000000000000000000000000000000000000000000000000000000000000000000000000000000002403201700000000            000000000000000                              000                           
0010001300399T 280180230000002544776 29647040541958427   7               22022017000000000006000001000000                         0900000000000000000000000000000000000000000000000000000   000000000000000000000005002        170192964704     
0010001300400U 280000000000000000000000000000000000000000000000000000000000000000000000000000000000000000000000000000000000000000000000002403201700000000            000000000000000                              000                           
0010001300401T 280180230000002544776 29647040563519177   7               22022017000000000006000001000000                         0900000000000000000000000000000000000000000000000000000   000000000000000000000005002        170192964704     
0010001300402U 280000000000000000000000000000000000000000000000000000000000000000000000000000000000000000000000000000000000000000000000002403201700000000            000000000000000                              000                           
0010001300403T 280180230000002544776 29647040573158651   7               22022017000000000006000001000000                         0900000000000000000000000000000000000000000000000000000   000000000000000000000005002        170192964704     
0010001300404U 280000000000000000000000000000000000000000000000000000000000000000000000000000000000000000000000000000000000000000000000002403201700000000            000000000000000                              000                           
0010001300405T 280180230000002544776 29647040576907708   7               22022017000000000008000001000000                         0900000000000000000000000000000000000000000000000000000   000000000000000000000005002        170192964704     
0010001300406U 280000000000000000000000000000000000000000000000000000000000000000000000000000000000000000000000000000000000000000000000002403201700000000            000000000000000                              000                           
0010001300407T 280180230000002544776 29647040592827674   7               22022017000000000006000001000000                         0900000000000000000000000000000000000000000000000000000   000000000000000000000005002        170192964704     
0010001300408U 280000000000000000000000000000000000000000000000000000000000000000000000000000000000000000000000000000000000000000000000002403201700000000            000000000000000                              000                           
0010001300409T 280180230000002544776 29647040592851587   7               22022017000000000006000001000000                         0900000000000000000000000000000000000000000000000000000   000000000000000000000005002        170192964704     
0010001300410U 280000000000000000000000000000000000000000000000000000000000000000000000000000000000000000000000000000000000000000000000002403201700000000            000000000000000                              000                           
0010001300411T 280180230000002544776 29647040595307351   7               22022017000000000006000001000000                         0900000000000000000000000000000000000000000000000000000   000000000000000000000005002        170192964704     
0010001300412U 280000000000000000000000000000000000000000000000000000000000000000000000000000000000000000000000000000000000000000000000002403201700000000            000000000000000                              000                           
