00100000         2247745860001000029647040014       0180230000002544776 INSTITUTO DE SELECAO E TECNOLOBANCO DO BRASIL                         22703201702352100007803000000515122941PROCESSAMEN                                                 
00100011T0100020 20247745860001000029647040014       0180230000002544776 INSTITUTO DE SELECAO E TECNOLO                                                                                000000002703201700000000  000000000                      
0010001300001T 020180230000002544776 29647040487930930   7               2903201700000000000750000103049X                         0900000000000010000000000000000000000000000000000000000   0000000000000000000000000A9        170192964704     
0010001300002U 020000000000000000000000000000000000000000000000000000000000000000000000000000000000000000000000000000000000000000000000002703201700000000            000000000000000                              000                           
0010001300003T 020180230000002544776 29647040514321202   7               29032017000000000006000001016179                         0900000000000010000000000000000000000000000000000000000   0000000000000000000000000A9        170192964704     
0010001300004U 020000000000000000000000000000000000000000000000000000000000000000000000000000000000000000000000000000000000000000000000002703201700000000            000000000000000                              000                           
0010001300005T 020180230000002544776 29647040514341780   7               29032017000000000006000001016179                         0900000000000010000000000000000000000000000000000000000   0000000000000000000000000A9        170192964704     
0010001300006U 020000000000000000000000000000000000000000000000000000000000000000000000000000000000000000000000000000000000000000000000002703201700000000            000000000000000                              000                           
0010001300007T 020180230000002544776 29647040534421624   7               29032017000000000007500001000213                         0900000000000010000000000000000000000000000000000000000   0000000000000000000000000A9        170192964704     
0010001300008U 020000000000000000000000000000000000000000000000000000000000000000000000000000000000000000000000000000000000000000000000002703201700000000            000000000000000                              000                           
0010001300009T 020180230000002544776 29647040534611132   7               27032017000000000006000001028029                         0900000000000010000000000000000000000000000000000000000   0000000000000000000000000A9        170192964704     
0010001300010U 020000000000000000000000000000000000000000000000000000000000000000000000000000000000000000000000000000000000000000000000002503201700000000            000000000000000                              000                           
0010001300011T 020180230000002544776 29647040538531218   7               29032017000000000006000001000132                         0900000000000010000000000000000000000000000000000000000   0000000000000000000000000A9        170192964704     
0010001300012U 020000000000000000000000000000000000000000000000000000000000000000000000000000000000000000000000000000000000000000000000002703201700000000            000000000000000                              000                           
0010001300013T 020180230000002544776 29647040539737870   7               29032017000000000006000001008249                         0900000000000010000000000000000000000000000000000000000   0000000000000000000000000A9        170192964704     
0010001300014U 020000000000000000000000000000000000000000000000000000000000000000000000000000000000000000000000000000000000000000000000002703201700000000            000000000000000                              000                           
0010001300015T 020180230000002544776 29647040545807856   7               29032017000000000006000001020354                         0900000000000010000000000000000000000000000000000000000   0000000000000000000000000A9        170192964704     
0010001300016U 020000000000000000000000000000000000000000000000000000000000000000000000000000000000000000000000000000000000000000000000002703201700000000            000000000000000                              000                           
0010001300017T 020180230000002544776 29647040548813718   7               29032017000000000006000001018376                         0900000000000010000000000000000000000000000000000000000   0000000000000000000000000A9        170192964704     
0010001300018U 020000000000000000000000000000000000000000000000000000000000000000000000000000000000000000000000000000000000000000000000002703201700000000            000000000000000                              000                           
0010001300019T 020180230000002544776 29647040559520582   7               2903201700000000000800000101981X                         0900000000000010000000000000000000000000000000000000000   0000000000000000000000000A9        170192964704     
0010001300020U 020000000000000000000000000000000000000000000000000000000000000000000000000000000000000000000000000000000000000000000000002703201700000000            000000000000000                              000                           
0010001300021T 020180230000002544776 29647040561654822   7               29032017000000000006000001012467                         0900000000000010000000000000000000000000000000000000000   0000000000000000000000000A9        170192964704     
0010001300022U 020000000000000000000000000000000000000000000000000000000000000000000000000000000000000000000000000000000000000000000000002703201700000000            000000000000000                              000                           
0010001300023T 020180230000002544776 29647040581005876   7               29032017000000000008000001000132                         0900000000000010000000000000000000000000000000000000000   0000000000000000000000000A9        170192964704     
0010001300024U 020000000000000000000000000000000000000000000000000000000000000000000000000000000000000000000000000000000000000000000000002703201700000000            000000000000000                              000                           
0010001300025T 020180230000002544776 29647040581018883   7               29032017000000000008000001000132                         0900000000000010000000000000000000000000000000000000000   0000000000000000000000000A9        170192964704     
0010001300026U 020000000000000000000000000000000000000000000000000000000000000000000000000000000000000000000000000000000000000000000000002703201700000000            000000000000000                              000                           
0010001300027T 020180230000002544776 29647040582745632   7               29032017000000000006000001000132                         0900000000000010000000000000000000000000000000000000000   0000000000000000000000000A9        170192964704     
0010001300028U 020000000000000000000000000000000000000000000000000000000000000000000000000000000000000000000000000000000000000000000000002703201700000000            000000000000000                              000                           
0010001300029T 020180230000002544776 29647040605514866   7               28032017000000000006000001005428                         0900000000000010500000000000000000000000000000000000000   0000000000000000000000000A9A4      170192964704     
0010001300030U 020000000000000000000000000000000000000000000000000000000000000000000000000000000000000000000000000000000000000000000000002603201700000000            000000000000000                              000                           
0010001300031T 020180230000002544776 29647040606204818   7               29032017000000000006000001008214                         0900000000000010000000000000000000000000000000000000000   0000000000000000000000000A9        170192964704     
0010001300032U 020000000000000000000000000000000000000000000000000000000000000000000000000000000000000000000000000000000000000000000000002703201700000000            000000000000000                              000                           
0010001300033T 020180230000002544776 29647040608636271   7               29032017000000000006000001016179                         0900000000000010000000000000000000000000000000000000000   0000000000000000000000000A9        170192964704     
0010001300034U 020000000000000000000000000000000000000000000000000000000000000000000000000000000000000000000000000000000000000000000000002703201700000000            000000000000000                              000                           
0010001300035T 020180230000002544776 29647040618024108   7               29032017000000000008000001009695                         0900000000000010000000000000000000000000000000000000000   0000000000000000000000000A9        170192964704     
0010001300036U 020000000000000000000000000000000000000000000000000000000000000000000000000000000000000000000000000000000000000000000000002703201700000000            000000000000000                              000                           
0010001300037T 020180230000002544776 29647040623450386   7               29032017000000000006000001000132                         0900000000000010000000000000000000000000000000000000000   0000000000000000000000000A9        170192964704     
0010001300038U 020000000000000000000000000000000000000000000000000000000000000000000000000000000000000000000000000000000000000000000000002703201700000000            000000000000000                              000                           
0010001300039T 020180230000002544776 29647040632609934   7               29032017000000000006000001000132                         0900000000000010000000000000000000000000000000000000000   0000000000000000000000000A9        170192964704     
0010001300040U 020000000000000000000000000000000000000000000000000000000000000000000000000000000000000000000000000000000000000000000000002703201700000000            000000000000000                              000                           
0010001300041T 020180230000002544776 29647040634617209   7               29032017000000000006000001016179                         0900000000000010000000000000000000000000000000000000000   0000000000000000000000000A9        170192964704     
0010001300042U 020000000000000000000000000000000000000000000000000000000000000000000000000000000000000000000000000000000000000000000000002703201700000000            000000000000000                              000                           
0010001300043T 020180230000002544776 29647040637115390   7               29032017000000000006000001033316                         0900000000000010000000000000000000000000000000000000000   0000000000000000000000000A9        170192964704     
0010001300044U 020000000000000000000000000000000000000000000000000000000000000000000000000000000000000000000000000000000000000000000000002703201700000000            000000000000000                              000                           
0010001300045T 020180230000002544776 29647040644900526   7               29032017000000000006000001000132                         0900000000000010000000000000000000000000000000000000000   0000000000000000000000000A9        170192964704     
0010001300046U 020000000000000000000000000000000000000000000000000000000000000000000000000000000000000000000000000000000000000000000000002703201700000000            000000000000000                              000                           
0010001300047T 020180230000002544776 29647040645356403   7               29032017000000000006000001018376                         0900000000000010000000000000000000000000000000000000000   0000000000000000000000000A9        170192964704     
0010001300048U 020000000000000000000000000000000000000000000000000000000000000000000000000000000000000000000000000000000000000000000000002703201700000000            000000000000000                              000                           
0010001300049T 020180230000002544776 29647040645946960   7               28032017000000000008000001000132                         0900000000000010000000000000000000000000000000000000000   0000000000000000000000000A9        170192964704     
0010001300050U 020000000000000000000000000000000000000000000000000000000000000000000000000000000000000000000000000000000000000000000000002603201700000000            000000000000000                              000                           
0010001300051T 020180230000002544776 29647040650644489   7               29032017000000000006000001000132                         0900000000000010000000000000000000000000000000000000000   0000000000000000000000000A9        170192964704     
0010001300052U 020000000000000000000000000000000000000000000000000000000000000000000000000000000000000000000000000000000000000000000000002703201700000000            000000000000000                              000                           
0010001300053T 020180230000002544776 29647040657339111   7               27032017000000000006000001016179                         0900000000000010000000000000000000000000000000000000000   0000000000000000000000000A9        170192964704     
0010001300054U 020000000000000000000000000000000000000000000000000000000000000000000000000000000000000000000000000000000000000000000000002503201700000000            000000000000000                              000                           
0010001300055T 020180230000002544776 29647040676449433   7               29032017000000000006000001008214                         0900000000000010000000000000000000000000000000000000000   0000000000000000000000000A9        170192964704     
0010001300056U 020000000000000000000000000000000000000000000000000000000000000000000000000000000000000000000000000000000000000000000000002703201700000000            000000000000000                              000                           
0010001300057T 020180230000002544776 29647040676852770   7               27032017000000000006000001023655                         0900000000000010500000000000000000000000000000000000000   0000000000000000000000000A9A4      170192964704     
0010001300058U 020000000000000000000000000000000000000000000000000000000000000000000000000000000000000000000000000000000000000000000000002503201700000000            000000000000000                              000                           
0010001300059T 020180230000002544776 29647040678311711   7               28032017000000000008000001012467                         0900000000000010000000000000000000000000000000000000000   0000000000000000000000000A9        170192964704     
0010001300060U 020000000000000000000000000000000000000000000000000000000000000000000000000000000000000000000000000000000000000000000000002603201700000000            000000000000000                              000                           
0010001300061T 020180230000002544776 29647040691506220   7               28032017000000000006000001016179                         0900000000000010000000000000000000000000000000000000000   0000000000000000000000000A9        170192964704     
0010001300062U 020000000000000000000000000000000000000000000000000000000000000000000000000000000000000000000000000000000000000000000000002603201700000000            000000000000000                              000                           
0010001300063T 020180230000002544776 29647040696802245   7               29032017000000000006000001016489                         0900000000000010000000000000000000000000000000000000000   0000000000000000000000000A9        170192964704     
0010001300064U 020000000000000000000000000000000000000000000000000000000000000000000000000000000000000000000000000000000000000000000000002703201700000000            000000000000000                              000                           
0010001300065T 020180230000002544776 29647040696807616   7               28032017000000000006000001016489                         0900000000000010000000000000000000000000000000000000000   0000000000000000000000000A9        170192964704     
0010001300066U 020000000000000000000000000000000000000000000000000000000000000000000000000000000000000000000000000000000000000000000000002603201700000000            000000000000000                              000                           
0010001300067T 020180230000002544776 29647040700913901   7               29032017000000000006000001023655                         0900000000000010000000000000000000000000000000000000000   0000000000000000000000000A9        170192964704     
0010001300068U 020000000000000000000000000000000000000000000000000000000000000000000000000000000000000000000000000000000000000000000000002703201700000000            000000000000000                              000                           
0010001300069T 020180230000002544776 29647040700915564   7               29032017000000000006000001023655                         0900000000000010000000000000000000000000000000000000000   0000000000000000000000000A9        170192964704     
0010001300070U 020000000000000000000000000000000000000000000000000000000000000000000000000000000000000000000000000000000000000000000000002703201700000000            000000000000000                              000                           
0010001300071T 020180230000002544776 29647040704336783   7               28032017000000000006000001012467                         0900000000000010000000000000000000000000000000000000000   0000000000000000000000000A9        170192964704     
0010001300072U 020000000000000000000000000000000000000000000000000000000000000000000000000000000000000000000000000000000000000000000000002603201700000000            000000000000000                              000                           
0010001300073T 020180230000002544776 29647040713302912   7               27032017000000000008000001000132                         0900000000000010000000000000000000000000000000000000000   0000000000000000000000000A9        170192964704     
0010001300074U 020000000000000000000000000000000000000000000000000000000000000000000000000000000000000000000000000000000000000000000000002503201700000000            000000000000000                              000                           
0010001300075T 020180230000002544776 29647040721646729   7               29032017000000000006000001016179                         0900000000000010000000000000000000000000000000000000000   0000000000000000000000000A9        170192964704     
0010001300076U 020000000000000000000000000000000000000000000000000000000000000000000000000000000000000000000000000000000000000000000000002703201700000000            000000000000000                              000                           
0010001300077T 020180230000002544776 29647040742552279   7               29032017000000000006000001028029                         0900000000000010000000000000000000000000000000000000000   0000000000000000000000000A9        170192964704     
0010001300078U 020000000000000000000000000000000000000000000000000000000000000000000000000000000000000000000000000000000000000000000000002703201700000000            000000000000000                              000                           
0010001300079T 020180230000002544776 29647040764424167   7               28032017000000000006000001016179                         0900000000000010000000000000000000000000000000000000000   0000000000000000000000000A9        170192964704     
0010001300080U 020000000000000000000000000000000000000000000000000000000000000000000000000000000000000000000000000000000000000000000000002603201700000000            000000000000000                              000                           
0010001300081T 020180230000002544776 29647040780441280   7               29032017000000000008000001018376                         0900000000000010000000000000000000000000000000000000000   0000000000000000000000000A9        170192964704     
0010001300082U 020000000000000000000000000000000000000000000000000000000000000000000000000000000000000000000000000000000000000000000000002703201700000000            000000000000000                              000                           
0010001300083T 020180230000002544776 29647040785129321   7               29032017000000000008000001022241                         0900000000000010000000000000000000000000000000000000000   0000000000000000000000000A9        170192964704     
0010001300084U 020000000000000000000000000000000000000000000000000000000000000000000000000000000000000000000000000000000000000000000000002703201700000000            000000000000000                              000                           
0010001300085T 020180230000002544776 29647040785513789   7               28032017000000000006000001002291                         0900000000000010000000000000000000000000000000000000000   0000000000000000000000000A9        170192964704     
0010001300086U 020000000000000000000000000000000000000000000000000000000000000000000000000000000000000000000000000000000000000000000000002603201700000000            000000000000000                              000                           
0010001300087T 020180230000002544776 29647040812153257   7               29032017000000000006000001000132                         0900000000000010000000000000000000000000000000000000000   0000000000000000000000000A9        170192964704     
0010001300088U 020000000000000000000000000000000000000000000000000000000000000000000000000000000000000000000000000000000000000000000000002703201700000000            000000000000000                              000                           
0010001300089T 020180230000002544776 29647040817025939   7               27032017000000000006000001028029                         0900000000000010000000000000000000000000000000000000000   0000000000000000000000000A9        170192964704     
0010001300090U 020000000000000000000000000000000000000000000000000000000000000000000000000000000000000000000000000000000000000000000000002503201700000000            000000000000000                              000                           
0010001300091T 020180230000002544776 29647040817045698   7               27032017000000000006000001028029                         0900000000000010000000000000000000000000000000000000000   0000000000000000000000000A9        170192964704     
0010001300092U 020000000000000000000000000000000000000000000000000000000000000000000000000000000000000000000000000000000000000000000000002503201700000000            000000000000000                              000                           
0010001300093T 020180230000002544776 29647040817050885   7               27032017000000000006000001028029                         0900000000000010000000000000000000000000000000000000000   0000000000000000000000000A9        170192964704     
0010001300094U 020000000000000000000000000000000000000000000000000000000000000000000000000000000000000000000000000000000000000000000000002503201700000000            000000000000000                              000                           
0010001300095T 020180230000002544776 29647040826406549   7               26032017000000000008000001012467                         0900000000000010000000000000000000000000000000000000000   0000000000000000000000000A9        170192964704     
0010001300096U 020000000000000000000000000000000000000000000000000000000000000000000000000000000000000000000000000000000000000000000000002403201700000000            000000000000000                              000                           
0010001300097T 020180230000002544776 29647040828416437   7               29032017000000000006000001000132                         0900000000000010500000000000000000000000000000000000000   0000000000000000000000000A9A4      170192964704     
0010001300098U 020000000000000000000000000000000000000000000000000000000000000000000000000000000000000000000000000000000000000000000000002703201700000000            000000000000000                              000                           
0010001300099T 020180230000002544776 29647040830434440   7               29032017000000000006000001001597                         0900000000000010000000000000000000000000000000000000000   0000000000000000000000000A9        170192964704     
0010001300100U 020000000000000000000000000000000000000000000000000000000000000000000000000000000000000000000000000000000000000000000000002703201700000000            000000000000000                              000                           
0010001300101T 020180230000002544776 29647040835545652   7               29032017000000000006000001028029                         0900000000000010500000000000000000000000000000000000000   0000000000000000000000000A9A4      170192964704     
0010001300102U 020000000000000000000000000000000000000000000000000000000000000000000000000000000000000000000000000000000000000000000000002703201700000000            000000000000000                              000                           
0010001300103T 020180230000002544776 29647040837124674   7               29032017000000000006000001010219                         0900000000000010000000000000000000000000000000000000000   0000000000000000000000000A9        170192964704     
0010001300104U 020000000000000000000000000000000000000000000000000000000000000000000000000000000000000000000000000000000000000000000000002703201700000000            000000000000000                              000                           
0010001300105T 020180230000002544776 29647040849244960   7               27032017000000000006000001014699                         0900000000000010000000000000000000000000000000000000000   0000000000000000000000000A9        170192964704     
0010001300106U 020000000000000000000000000000000000000000000000000000000000000000000000000000000000000000000000000000000000000000000000002503201700000000            000000000000000                              000                           
0010001300107T 020180230000002544776 29647040851012976   7               29032017000000000006000001028495                         0900000000000010500000000000000000000000000000000000000   0000000000000000000000000A9A4      170192964704     
0010001300108U 020000000000000000000000000000000000000000000000000000000000000000000000000000000000000000000000000000000000000000000000002703201700000000            000000000000000                              000                           
0010001300109T 020180230000002544776 29647040860911909   7               29032017000000000006000001028029                         0900000000000010000000000000000000000000000000000000000   0000000000000000000000000A9        170192964704     
0010001300110U 020000000000000000000000000000000000000000000000000000000000000000000000000000000000000000000000000000000000000000000000002703201700000000            000000000000000                              000                           
0010001300111T 020180230000002544776 29647040860955529   7               27032017000000000006000001028029                         0900000000000010000000000000000000000000000000000000000   0000000000000000000000000A9        170192964704     
0010001300112U 020000000000000000000000000000000000000000000000000000000000000000000000000000000000000000000000000000000000000000000000002503201700000000            000000000000000                              000                           
0010001300113T 020180230000002544776 29647040861209925   7               29032017000000000008000001000132                         0900000000000010000000000000000000000000000000000000000   0000000000000000000000000A9        170192964704     
0010001300114U 020000000000000000000000000000000000000000000000000000000000000000000000000000000000000000000000000000000000000000000000002703201700000000            000000000000000                              000                           
0010001300115T 020180230000002544776 29647040866714669   7               2903201700000000000800000100880X                         0900000000000010000000000000000000000000000000000000000   0000000000000000000000000A9        170192964704     
0010001300116U 020000000000000000000000000000000000000000000000000000000000000000000000000000000000000000000000000000000000000000000000002703201700000000            000000000000000                              000                           
0010001300117T 020180230000002544776 29647040868702651   7               29032017000000000006000001028029                         0900000000000010500000000000000000000000000000000000000   0000000000000000000000000A9A4      170192964704     
0010001300118U 020000000000000000000000000000000000000000000000000000000000000000000000000000000000000000000000000000000000000000000000002703201700000000            000000000000000                              000                           
0010001300119T 020180230000002544776 29647040886717639   7               28032017000000000006000001016179                         0900000000000010000000000000000000000000000000000000000   0000000000000000000000000A9        170192964704     
0010001300120U 020000000000000000000000000000000000000000000000000000000000000000000000000000000000000000000000000000000000000000000000002603201700000000            000000000000000                              000                           
0010001300121T 020180230000002544776 29647040906719902   7               28032017000000000006000001040363                         0900000000000010000000000000000000000000000000000000000   0000000000000000000000000A9        170192964704     
0010001300122U 020000000000000000000000000000000000000000000000000000000000000000000000000000000000000000000000000000000000000000000000002603201700000000            000000000000000                              000                           
0010001300123T 020180230000002544776 29647040913231330   7               29032017000000000006000001033316                         0900000000000010000000000000000000000000000000000000000   0000000000000000000000000A9        170192964704     
0010001300124U 020000000000000000000000000000000000000000000000000000000000000000000000000000000000000000000000000000000000000000000000002703201700000000            000000000000000                              000                           
0010001300125T 020180230000002544776 29647040913238959   7               29032017000000000006000001033316                         0900000000000010000000000000000000000000000000000000000   0000000000000000000000000A9        170192964704     
0010001300126U 020000000000000000000000000000000000000000000000000000000000000000000000000000000000000000000000000000000000000000000000002703201700000000            000000000000000                              000                           
0010001300127T 020180230000002544776 29647040914437828   7               29032017000000000006000001007595                         0900000000000010000000000000000000000000000000000000000   0000000000000000000000000A9        170192964704     
0010001300128U 020000000000000000000000000000000000000000000000000000000000000000000000000000000000000000000000000000000000000000000000002703201700000000            000000000000000                              000                           
0010001300129T 020180230000002544776 29647040914847055   7               29032017000000000006000001012688                         0900000000000010000000000000000000000000000000000000000   0000000000000000000000000A9        170192964704     
0010001300130U 020000000000000000000000000000000000000000000000000000000000000000000000000000000000000000000000000000000000000000000000002703201700000000            000000000000000                              000                           
0010001300131T 020180230000002544776 29647040914853785   7               29032017000000000006000001012688                         0900000000000010000000000000000000000000000000000000000   0000000000000000000000000A9        170192964704     
0010001300132U 020000000000000000000000000000000000000000000000000000000000000000000000000000000000000000000000000000000000000000000000002703201700000000            000000000000000                              000                           
0010001300133T 020180230000002544776 29647040921019772   7               29032017000000000006000001013668                         0900000000000010000000000000000000000000000000000000000   0000000000000000000000000A9        170192964704     
0010001300134U 020000000000000000000000000000000000000000000000000000000000000000000000000000000000000000000000000000000000000000000000002703201700000000            000000000000000                              000                           
0010001300135T 020180230000002544776 29647040922053025   7               29032017000000000006000001016179                         0900000000000010000000000000000000000000000000000000000   0000000000000000000000000A9        170192964704     
0010001300136U 020000000000000000000000000000000000000000000000000000000000000000000000000000000000000000000000000000000000000000000000002703201700000000            000000000000000                              000                           
0010001300137T 020180230000002544776 29647040925221411   7               29032017000000000006000001000132                         0900000000000010000000000000000000000000000000000000000   0000000000000000000000000A9        170192964704     
0010001300138U 020000000000000000000000000000000000000000000000000000000000000000000000000000000000000000000000000000000000000000000000002703201700000000            000000000000000                              000                           
0010001300139T 020180230000002544776 29647040925259271   7               29032017000000000006000001000132                         0900000000000010000000000000000000000000000000000000000   0000000000000000000000000A9        170192964704     
0010001300140U 020000000000000000000000000000000000000000000000000000000000000000000000000000000000000000000000000000000000000000000000002703201700000000            000000000000000                              000                           
0010001300141T 020180230000002544776 29647040926538539   7               29032017000000000006000001033316                         0900000000000010500000000000000000000000000000000000000   0000000000000000000000000A9A4      170192964704     
0010001300142U 020000000000000000000000000000000000000000000000000000000000000000000000000000000000000000000000000000000000000000000000002703201700000000            000000000000000                              000                           
0010001300143T 020180230000002544776 29647040926851976   7               29032017000000000006000001028029                         0900000000000010000000000000000000000000000000000000000   0000000000000000000000000A9        170192964704     
0010001300144U 020000000000000000000000000000000000000000000000000000000000000000000000000000000000000000000000000000000000000000000000002703201700000000            000000000000000                              000                           
0010001300145T 020180230000002544776 29647040930643260   7               28032017000000000006000001020354                         0900000000000010000000000000000000000000000000000000000   0000000000000000000000000A9        170192964704     
0010001300146U 020000000000000000000000000000000000000000000000000000000000000000000000000000000000000000000000000000000000000000000000002603201700000000            000000000000000                              000                           
0010001300147T 020180230000002544776 29647040936413038   7               29032017000000000006000001013617                         0900000000000010500000000000000000000000000000000000000   0000000000000000000000000A9A4      170192964704     
0010001300148U 020000000000000000000000000000000000000000000000000000000000000000000000000000000000000000000000000000000000000000000000002703201700000000            000000000000000                              000                           
0010001300149T 020180230000002544776 29647040951717870   7               28032017000000000006000001018376                         0900000000000010000000000000000000000000000000000000000   0000000000000000000000000A9        170192964704     
0010001300150U 020000000000000000000000000000000000000000000000000000000000000000000000000000000000000000000000000000000000000000000000002603201700000000            000000000000000                              000                           
0010001300151T 020180230000002544776 29647040951724107   7               27032017000000000006000001018376                         0900000000000010000000000000000000000000000000000000000   0000000000000000000000000A9        170192964704     
0010001300152U 020000000000000000000000000000000000000000000000000000000000000000000000000000000000000000000000000000000000000000000000002503201700000000            000000000000000                              000                           
0010001300153T 020180230000002544776 29647040957519961   7               27032017000000000006000001018376                         0900000000000010000000000000000000000000000000000000000   0000000000000000000000000A9        170192964704     
0010001300154U 020000000000000000000000000000000000000000000000000000000000000000000000000000000000000000000000000000000000000000000000002503201700000000            000000000000000                              000                           
0010001300155T 020180230000002544776 29647040981601604   7               29032017000000000006000001000132                         0900000000000010000000000000000000000000000000000000000   0000000000000000000000000A9        170192964704     
0010001300156U 020000000000000000000000000000000000000000000000000000000000000000000000000000000000000000000000000000000000000000000000002703201700000000            000000000000000                              000                           
0010001300157T 020180230000002544776 29647040984722005   7               29032017000000000006000001033316                         0900000000000010000000000000000000000000000000000000000   0000000000000000000000000A9        170192964704     
0010001300158U 020000000000000000000000000000000000000000000000000000000000000000000000000000000000000000000000000000000000000000000000002703201700000000            000000000000000                              000                           
0010001300159T 020180230000002544776 29647040985418618   7               28032017000000000006000001001597                         0900000000000010000000000000000000000000000000000000000   0000000000000000000000000A9        170192964704     
0010001300160U 020000000000000000000000000000000000000000000000000000000000000000000000000000000000000000000000000000000000000000000000002603201700000000            000000000000000                              000                           
0010001300161T 020180230000002544776 29647041006923916   7               27032017000000000006000001016179                         0900000000000010000000000000000000000000000000000000000   0000000000000000000000000A9        170192964704     
0010001300162U 020000000000000000000000000000000000000000000000000000000000000000000000000000000000000000000000000000000000000000000000002503201700000000            000000000000000                              000                           
0010001300163T 020180230000002544776 29647041007421879   7               29032017000000000006000001000132                         0900000000000010000000000000000000000000000000000000000   0000000000000000000000000A9        170192964704     
0010001300164U 020000000000000000000000000000000000000000000000000000000000000000000000000000000000000000000000000000000000000000000000002703201700000000            000000000000000                              000                           
0010001300165T 020180230000002544776 29647041025535417   7               28032017000000000006000001028029                         0900000000000010000000000000000000000000000000000000000   0000000000000000000000000A9        170192964704     
0010001300166U 020000000000000000000000000000000000000000000000000000000000000000000000000000000000000000000000000000000000000000000000002603201700000000            000000000000000                              000                           
0010001300167T 020180230000002544776 29647041052206313   7               27032017000000000006000001025291                         0900000000000010000000000000000000000000000000000000000   0000000000000000000000000A9        170192964704     
0010001300168U 020000000000000000000000000000000000000000000000000000000000000000000000000000000000000000000000000000000000000000000000002503201700000000            000000000000000                              000                           
0010001300169T 020180230000002544776 29647041052208929   7               27032017000000000006000001025291                         0900000000000010000000000000000000000000000000000000000   0000000000000000000000000A9        170192964704     
0010001300170U 020000000000000000000000000000000000000000000000000000000000000000000000000000000000000000000000000000000000000000000000002503201700000000            000000000000000                              000                           
0010001300171T 020180230000002544776 29647041052222777   7               27032017000000000006000001025291                         0900000000000010000000000000000000000000000000000000000   0000000000000000000000000A9        170192964704     
0010001300172U 020000000000000000000000000000000000000000000000000000000000000000000000000000000000000000000000000000000000000000000000002503201700000000            000000000000000                              000                           
0010001300173T 020180230000002544776 29647041052223346   7               27032017000000000006000001025291                         0900000000000010000000000000000000000000000000000000000   0000000000000000000000000A9        170192964704     
0010001300174U 020000000000000000000000000000000000000000000000000000000000000000000000000000000000000000000000000000000000000000000000002503201700000000            000000000000000                              000                           
0010001300175T 020180230000002544776 29647041052257825   7               27032017000000000006000001025291                         0900000000000010000000000000000000000000000000000000000   0000000000000000000000000A9        170192964704     
0010001300176U 020000000000000000000000000000000000000000000000000000000000000000000000000000000000000000000000000000000000000000000000002503201700000000            000000000000000                              000                           
0010001300177T 020180230000002544776 29647041060652490   7               28032017000000000006000001016179                         0900000000000010000000000000000000000000000000000000000   0000000000000000000000000A9        170192964704     
0010001300178U 020000000000000000000000000000000000000000000000000000000000000000000000000000000000000000000000000000000000000000000000002603201700000000            000000000000000                              000                           
0010001300179T 020180230000002544776 29647041062705171   7               28032017000000000008000001000132                         0900000000000010000000000000000000000000000000000000000   0000000000000000000000000A9        170192964704     
0010001300180U 020000000000000000000000000000000000000000000000000000000000000000000000000000000000000000000000000000000000000000000000002603201700000000            000000000000000                              000                           
0010001300181T 020180230000002544776 29647041071052939   7               29032017000000000006000001023655                         0900000000000010000000000000000000000000000000000000000   0000000000000000000000000A9        170192964704     
0010001300182U 020000000000000000000000000000000000000000000000000000000000000000000000000000000000000000000000000000000000000000000000002703201700000000            000000000000000                              000                           
0010001300183T 020180230000002544776 29647041071949834   7               29032017000000000006000001001597                         0900000000000010500000000000000000000000000000000000000   0000000000000000000000000A9A4      170192964704     
0010001300184U 020000000000000000000000000000000000000000000000000000000000000000000000000000000000000000000000000000000000000000000000002703201700000000            000000000000000                              000                           
0010001300185T 020180230000002544776 29647041086539340   7               29032017000000000008000001012467                         0900000000000010000000000000000000000000000000000000000   0000000000000000000000000A9        170192964704     
0010001300186U 020000000000000000000000000000000000000000000000000000000000000000000000000000000000000000000000000000000000000000000000002703201700000000            000000000000000                              000                           
0010001300187T 020180230000002544776 29647041087408163   7               29032017000000000008000001033316                         0900000000000010000000000000000000000000000000000000000   0000000000000000000000000A9        170192964704     
0010001300188U 020000000000000000000000000000000000000000000000000000000000000000000000000000000000000000000000000000000000000000000000002703201700000000            000000000000000                              000                           
0010001300189T 020180230000002544776 29647041095103136   7               29032017000000000006000001012467                         0900000000000010000000000000000000000000000000000000000   0000000000000000000000000A9        170192964704     
0010001300190U 020000000000000000000000000000000000000000000000000000000000000000000000000000000000000000000000000000000000000000000000002703201700000000            000000000000000                              000                           
0010001300191T 020180230000002544776 29647041095140142   7               29032017000000000006000001012467                         0900000000000010000000000000000000000000000000000000000   0000000000000000000000000A9        170192964704     
0010001300192U 020000000000000000000000000000000000000000000000000000000000000000000000000000000000000000000000000000000000000000000000002703201700000000            000000000000000                              000                           
0010001300193T 020180230000002544776 29647041095145727   7               29032017000000000006000001012467                         0900000000000010000000000000000000000000000000000000000   0000000000000000000000000A9        170192964704     
0010001300194U 020000000000000000000000000000000000000000000000000000000000000000000000000000000000000000000000000000000000000000000000002703201700000000            000000000000000                              000                           
0010001300195T 020180230000002544776 29647041099233362   7               29032017000000000006000001016179                         0900000000000010000000000000000000000000000000000000000   0000000000000000000000000A9        170192964704     
0010001300196U 020000000000000000000000000000000000000000000000000000000000000000000000000000000000000000000000000000000000000000000000002703201700000000            000000000000000                              000                           
0010001300197T 020180230000002544776 29647041111812196   7               29032017000000000006000001000132                         0900000000000010000000000000000000000000000000000000000   0000000000000000000000000A9        170192964704     
0010001300198U 020000000000000000000000000000000000000000000000000000000000000000000000000000000000000000000000000000000000000000000000002703201700000000            000000000000000                              000                           
0010001300199T 020180230000002544776 29647041113248911   7               29032017000000000006000001016179                         0900000000000010000000000000000000000000000000000000000   0000000000000000000000000A9        170192964704     
0010001300200U 020000000000000000000000000000000000000000000000000000000000000000000000000000000000000000000000000000000000000000000000002703201700000000            000000000000000                              000                           
0010001300201T 020180230000002544776 29647041126531601   7               29032017000000000008000001028029                         0900000000000010000000000000000000000000000000000000000   0000000000000000000000000A9        170192964704     
0010001300202U 020000000000000000000000000000000000000000000000000000000000000000000000000000000000000000000000000000000000000000000000002703201700000000            000000000000000                              000                           
0010001300203T 020180230000002544776 29647041126931919   7               29032017000000000006000001028029                         0900000000000010000000000000000000000000000000000000000   0000000000000000000000000A9        170192964704     
0010001300204U 020000000000000000000000000000000000000000000000000000000000000000000000000000000000000000000000000000000000000000000000002703201700000000            000000000000000                              000                           
0010001300205T 020180230000002544776 29647041137913089   7               29032017000000000006000001033316                         0900000000000010000000000000000000000000000000000000000   0000000000000000000000000A9        170192964704     
0010001300206U 020000000000000000000000000000000000000000000000000000000000000000000000000000000000000000000000000000000000000000000000002703201700000000            000000000000000                              000                           
0010001300207T 020180230000002544776 29647041137916097   7               29032017000000000006000001033316                         0900000000000010000000000000000000000000000000000000000   0000000000000000000000000A9        170192964704     
0010001300208U 020000000000000000000000000000000000000000000000000000000000000000000000000000000000000000000000000000000000000000000000002703201700000000            000000000000000                              000                           
0010001300209T 020180230000002544776 29647041138425465   7               29032017000000000008000001000361                         0900000000000010000000000000000000000000000000000000000   0000000000000000000000000A9        170192964704     
0010001300210U 020000000000000000000000000000000000000000000000000000000000000000000000000000000000000000000000000000000000000000000000002703201700000000            000000000000000                              000                           
0010001300211T 020180230000002544776 29647041150412265   7               28032017000000000006000001009229                         0900000000000010000000000000000000000000000000000000000   0000000000000000000000000A9        170192964704     
0010001300212U 020000000000000000000000000000000000000000000000000000000000000000000000000000000000000000000000000000000000000000000000002603201700000000            000000000000000                              000                           
0010001300213T 020180230000002544776 29647041150418959   7               29032017000000000006000001009229                         0900000000000010000000000000000000000000000000000000000   0000000000000000000000000A9        170192964704     
0010001300214U 020000000000000000000000000000000000000000000000000000000000000000000000000000000000000000000000000000000000000000000000002703201700000000            000000000000000                              000                           
0010001300215T 020180230000002544776 29647041165253979   7               28032017000000000006000001018376                         0900000000000010000000000000000000000000000000000000000   0000000000000000000000000A9        170192964704     
0010001300216U 020000000000000000000000000000000000000000000000000000000000000000000000000000000000000000000000000000000000000000000000002603201700000000            000000000000000                              000                           
0010001300217T 020180230000002544776 29647041172641721   7               27032017000000000006000001028029                         0900000000000010000000000000000000000000000000000000000   0000000000000000000000000A9        170192964704     
0010001300218U 020000000000000000000000000000000000000000000000000000000000000000000000000000000000000000000000000000000000000000000000002503201700000000            000000000000000                              000                           
0010001300219T 020180230000002544776 29647041211227163   7               29032017000000000008000001017191                         0900000000000010000000000000000000000000000000000000000   0000000000000000000000000A9        170192964704     
0010001300220U 020000000000000000000000000000000000000000000000000000000000000000000000000000000000000000000000000000000000000000000000002703201700000000            000000000000000                              000                           
0010001300221T 020180230000002544776 29647041211340301   7               29032017000000000008000001028029                         0900000000000010000000000000000000000000000000000000000   0000000000000000000000000A9        170192964704     
0010001300222U 020000000000000000000000000000000000000000000000000000000000000000000000000000000000000000000000000000000000000000000000002703201700000000            000000000000000                              000                           
0010001300223T 020180230000002544776 29647041213352454   7               28032017000000000006000001033316                         0900000000000010000000000000000000000000000000000000000   0000000000000000000000000A9        170192964704     
0010001300224U 020000000000000000000000000000000000000000000000000000000000000000000000000000000000000000000000000000000000000000000000002603201700000000            000000000000000                              000                           
0010001300225T 020180230000002544776 29647041226931323   7               29032017000000000006000001009636                         0900000000000010000000000000000000000000000000000000000   0000000000000000000000000A9        170192964704     
0010001300226U 020000000000000000000000000000000000000000000000000000000000000000000000000000000000000000000000000000000000000000000000002703201700000000            000000000000000                              000                           
0010001300227T 020180230000002544776 29647041226935036   7               29032017000000000006000001009636                         0900000000000010000000000000000000000000000000000000000   0000000000000000000000000A9        170192964704     
0010001300228U 020000000000000000000000000000000000000000000000000000000000000000000000000000000000000000000000000000000000000000000000002703201700000000            000000000000000                              000                           
0010001300229T 020180230000002544776 29647041226951853   7               29032017000000000006000001009636                         0900000000000010000000000000000000000000000000000000000   0000000000000000000000000A9        170192964704     
0010001300230U 020000000000000000000000000000000000000000000000000000000000000000000000000000000000000000000000000000000000000000000000002703201700000000            000000000000000                              000                           
0010001300231T 020180230000002544776 29647041226954959   7               29032017000000000006000001009636                         0900000000000010000000000000000000000000000000000000000   0000000000000000000000000A9        170192964704     
0010001300232U 020000000000000000000000000000000000000000000000000000000000000000000000000000000000000000000000000000000000000000000000002703201700000000            000000000000000                              000                           
0010001300233T 020180230000002544776 29647041226956175   7               29032017000000000006000001009636                         0900000000000010000000000000000000000000000000000000000   0000000000000000000000000A9        170192964704     
0010001300234U 020000000000000000000000000000000000000000000000000000000000000000000000000000000000000000000000000000000000000000000000002703201700000000            000000000000000                              000                           
0010001300235T 020180230000002544776 29647041232434558   7               29032017000000000006000001001104                         0900000000000010000000000000000000000000000000000000000   0000000000000000000000000A9        170192964704     
0010001300236U 020000000000000000000000000000000000000000000000000000000000000000000000000000000000000000000000000000000000000000000000002703201700000000            000000000000000                              000                           
0010001300237T 020180230000002544776 29647041235016796   7               29032017000000000006000001012467                         0900000000000010000000000000000000000000000000000000000   0000000000000000000000000A9        170192964704     
0010001300238U 020000000000000000000000000000000000000000000000000000000000000000000000000000000000000000000000000000000000000000000000002703201700000000            000000000000000                              000                           
0010001300239T 020180230000002544776 29647041245052394   7               29032017000000000006000001002461                         0900000000000010000000000000000000000000000000000000000   0000000000000000000000000A9        170192964704     
0010001300240U 020000000000000000000000000000000000000000000000000000000000000000000000000000000000000000000000000000000000000000000000002703201700000000            000000000000000                              000                           
0010001300241T 020180230000002544776 29647041245320200   7               29032017000000000006000001025208                         0900000000000010000000000000000000000000000000000000000   0000000000000000000000000A9        170192964704     
0010001300242U 020000000000000000000000000000000000000000000000000000000000000000000000000000000000000000000000000000000000000000000000002703201700000000            000000000000000                              000                           
0010001300243T 020180230000002544776 29647041256924689   7               29032017000000000006000001016179                         0900000000000010000000000000000000000000000000000000000   0000000000000000000000000A9        170192964704     
0010001300244U 020000000000000000000000000000000000000000000000000000000000000000000000000000000000000000000000000000000000000000000000002703201700000000            000000000000000                              000                           
0010001300245T 020180230000002544776 29647041257534340   7               29032017000000000006000001023655                         0900000000000010000000000000000000000000000000000000000   0000000000000000000000000A9        170192964704     
0010001300246U 020000000000000000000000000000000000000000000000000000000000000000000000000000000000000000000000000000000000000000000000002703201700000000            000000000000000                              000                           
0010001300247T 020180230000002544776 29647041257549284   7               29032017000000000006000001023655                         0900000000000010000000000000000000000000000000000000000   0000000000000000000000000A9        170192964704     
0010001300248U 020000000000000000000000000000000000000000000000000000000000000000000000000000000000000000000000000000000000000000000000002703201700000000            000000000000000                              000                           
0010001300249T 020180230000002544776 29647041269452019   7               29032017000000000006000001012467                         0900000000000010000000000000000000000000000000000000000   0000000000000000000000000A9        170192964704     
0010001300250U 020000000000000000000000000000000000000000000000000000000000000000000000000000000000000000000000000000000000000000000000002703201700000000            000000000000000                              000                           
0010001300251T 020180230000002544776 29647041274008932   7               27032017000000000006000001016179                         0900000000000010000000000000000000000000000000000000000   0000000000000000000000000A9        170192964704     
0010001300252U 020000000000000000000000000000000000000000000000000000000000000000000000000000000000000000000000000000000000000000000000002503201700000000            000000000000000                              000                           
0010001300253T 020180230000002544776 29647041277148173   7               29032017000000000006000001021911                         0900000000000010000000000000000000000000000000000000000   0000000000000000000000000A9        170192964704     
0010001300254U 020000000000000000000000000000000000000000000000000000000000000000000000000000000000000000000000000000000000000000000000002703201700000000            000000000000000                              000                           
0010001300255T 020180230000002544776 29647041278033770   7               29032017000000000006000001012467                         0900000000000010000000000000000000000000000000000000000   0000000000000000000000000A9        170192964704     
0010001300256U 020000000000000000000000000000000000000000000000000000000000000000000000000000000000000000000000000000000000000000000000002703201700000000            000000000000000                              000                           
0010001300257T 020180230000002544776 29647041283305056   7               28032017000000000008000001012467                         0900000000000010000000000000000000000000000000000000000   0000000000000000000000000A9        170192964704     
0010001300258U 020000000000000000000000000000000000000000000000000000000000000000000000000000000000000000000000000000000000000000000000002603201700000000            000000000000000                              000                           
0010001300259T 020180230000002544776 29647041284022095   7               29032017000000000006000001016179                         0900000000000010000000000000000000000000000000000000000   0000000000000000000000000A9        170192964704     
0010001300260U 020000000000000000000000000000000000000000000000000000000000000000000000000000000000000000000000000000000000000000000000002703201700000000            000000000000000                              000                           
0010001300261T 020180230000002544776 29647041284856702   7               28032017000000000006000001023655                         0900000000000010000000000000000000000000000000000000000   0000000000000000000000000A9        170192964704     
0010001300262U 020000000000000000000000000000000000000000000000000000000000000000000000000000000000000000000000000000000000000000000000002603201700000000            000000000000000                              000                           
0010001300263T 020180230000002544776 29647041286310841   7               29032017000000000006000001012645                         0900000000000010000000000000000000000000000000000000000   0000000000000000000000000A9        170192964704     
0010001300264U 020000000000000000000000000000000000000000000000000000000000000000000000000000000000000000000000000000000000000000000000002703201700000000            000000000000000                              000                           
0010001300265T 020180230000002544776 29647041291301283   7               27032017000000000006000001016179                         0900000000000010000000000000000000000000000000000000000   0000000000000000000000000A9        170192964704     
0010001300266U 020000000000000000000000000000000000000000000000000000000000000000000000000000000000000000000000000000000000000000000000002503201700000000            000000000000000                              000                           
0010001300267T 020180230000002544776 29647041292314507   7               27032017000000000006000001012688                         0900000000000010000000000000000000000000000000000000000   0000000000000000000000000A9        170192964704     
0010001300268U 020000000000000000000000000000000000000000000000000000000000000000000000000000000000000000000000000000000000000000000000002503201700000000            000000000000000                              000                           
0010001300269T 020180230000002544776 29647041301502610   7               29032017000000000006000001018376                         0900000000000010000000000000000000000000000000000000000   0000000000000000000000000A9        170192964704     
0010001300270U 020000000000000000000000000000000000000000000000000000000000000000000000000000000000000000000000000000000000000000000000002703201700000000            000000000000000                              000                           
0010001300271T 020180230000002544776 29647041301524150   7               29032017000000000006000001018376                         0900000000000010000000000000000000000000000000000000000   0000000000000000000000000A9        170192964704     
0010001300272U 020000000000000000000000000000000000000000000000000000000000000000000000000000000000000000000000000000000000000000000000002703201700000000            000000000000000                              000                           
0010001300273T 020180230000002544776 29647041301548309   7               29032017000000000006000001018376                         0900000000000010000000000000000000000000000000000000000   0000000000000000000000000A9        170192964704     
0010001300274U 020000000000000000000000000000000000000000000000000000000000000000000000000000000000000000000000000000000000000000000000002703201700000000            000000000000000                              000                           
0010001300275T 020180230000002544776 29647041301549609   7               29032017000000000006000001018376                         0900000000000010000000000000000000000000000000000000000   0000000000000000000000000A9        170192964704     
0010001300276U 020000000000000000000000000000000000000000000000000000000000000000000000000000000000000000000000000000000000000000000000002703201700000000            000000000000000                              000                           
0010001300277T 020180230000002544776 29647041301558762   7               29032017000000000006000001018376                         0900000000000010000000000000000000000000000000000000000   0000000000000000000000000A9        170192964704     
0010001300278U 020000000000000000000000000000000000000000000000000000000000000000000000000000000000000000000000000000000000000000000000002703201700000000            000000000000000                              000                           
0010001300279T 020180230000002544776 29647041304626056   7               29032017000000000006000001033316                         0900000000000010000000000000000000000000000000000000000   0000000000000000000000000A9        170192964704     
0010001300280U 020000000000000000000000000000000000000000000000000000000000000000000000000000000000000000000000000000000000000000000000002703201700000000            000000000000000                              000                           
0010001300281T 020180230000002544776 29647041313509996   7               28032017000000000006000001016179                         0900000000000010000000000000000000000000000000000000000   0000000000000000000000000A9        170192964704     
0010001300282U 020000000000000000000000000000000000000000000000000000000000000000000000000000000000000000000000000000000000000000000000002603201700000000            000000000000000                              000                           
0010001300283T 020180230000002544776 29647041313512480   7               28032017000000000006000001016179                         0900000000000010000000000000000000000000000000000000000   0000000000000000000000000A9        170192964704     
0010001300284U 020000000000000000000000000000000000000000000000000000000000000000000000000000000000000000000000000000000000000000000000002603201700000000            000000000000000                              000                           
0010001300285T 020180230000002544776 29647041313528347   7               29032017000000000006000001016179                         0900000000000010000000000000000000000000000000000000000   0000000000000000000000000A9        170192964704     
0010001300286U 020000000000000000000000000000000000000000000000000000000000000000000000000000000000000000000000000000000000000000000000002703201700000000            000000000000000                              000                           
0010001300287T 020180230000002544776 29647041315455365   7               27032017000000000006000001002283                         0900000000000010000000000000000000000000000000000000000   0000000000000000000000000A9        170192964704     
0010001300288U 020000000000000000000000000000000000000000000000000000000000000000000000000000000000000000000000000000000000000000000000002503201700000000            000000000000000                              000                           
0010001300289T 020180230000002544776 29647041320521434   7               29032017000000000006000001016179                         0900000000000010500000000000000000000000000000000000000   0000000000000000000000000A9A4      170192964704     
0010001300290U 020000000000000000000000000000000000000000000000000000000000000000000000000000000000000000000000000000000000000000000000002703201700000000            000000000000000                              000                           
0010001300291T 020180230000002544776 29647041337825359   7               29032017000000000008000001035033                         0900000000000010000000000000000000000000000000000000000   0000000000000000000000000A9        170192964704     
0010001300292U 020000000000000000000000000000000000000000000000000000000000000000000000000000000000000000000000000000000000000000000000002703201700000000            000000000000000                              000                           
0010001300293T 020180230000002544776 29647041340617721   7               29032017000000000006000001002003                         0900000000000010000000000000000000000000000000000000000   0000000000000000000000000A9        170192964704     
0010001300294U 020000000000000000000000000000000000000000000000000000000000000000000000000000000000000000000000000000000000000000000000002703201700000000            000000000000000                              000                           
0010001300295T 020180230000002544776 29647041340621535   7               29032017000000000006000001002003                         0900000000000010000000000000000000000000000000000000000   0000000000000000000000000A9        170192964704     
0010001300296U 020000000000000000000000000000000000000000000000000000000000000000000000000000000000000000000000000000000000000000000000002703201700000000            000000000000000                              000                           
0010001300297T 020180230000002544776 29647041348710209   7               29032017000000000006000001000132                         0900000000000010000000000000000000000000000000000000000   0000000000000000000000000A9        170192964704     
0010001300298U 020000000000000000000000000000000000000000000000000000000000000000000000000000000000000000000000000000000000000000000000002703201700000000            000000000000000                              000                           
0010001300299T 020180230000002544776 29647041349202011   7               27032017000000000006000001009636                         0900000000000010000000000000000000000000000000000000000   0000000000000000000000000A9        170192964704     
0010001300300U 020000000000000000000000000000000000000000000000000000000000000000000000000000000000000000000000000000000000000000000000002503201700000000            000000000000000                              000                           
0010001300301T 020180230000002544776 29647041349619909   7               29032017000000000006000001028029                         0900000000000010000000000000000000000000000000000000000   0000000000000000000000000A9        170192964704     
0010001300302U 020000000000000000000000000000000000000000000000000000000000000000000000000000000000000000000000000000000000000000000000002703201700000000            000000000000000                              000                           
0010001300303T 020180230000002544776 29647041349645617   7               29032017000000000006000001028029                         0900000000000010000000000000000000000000000000000000000   0000000000000000000000000A9        170192964704     
0010001300304U 020000000000000000000000000000000000000000000000000000000000000000000000000000000000000000000000000000000000000000000000002703201700000000            000000000000000                              000                           
0010001300305T 020180230000002544776 29647041350308204   7               29032017000000000006000001000132                         0900000000000010000000000000000000000000000000000000000   0000000000000000000000000A9        170192964704     
0010001300306U 020000000000000000000000000000000000000000000000000000000000000000000000000000000000000000000000000000000000000000000000002703201700000000            000000000000000                              000                           
0010001300307T 020180230000002544776 29647041358837337   7               29032017000000000006000001033316                         0900000000000010000000000000000000000000000000000000000   0000000000000000000000000A9        170192964704     
0010001300308U 020000000000000000000000000000000000000000000000000000000000000000000000000000000000000000000000000000000000000000000000002703201700000000            000000000000000                              000                           
0010001300309T 020180230000002544776 29647041361634643   7               29032017000000000006000001028029                         0900000000000010000000000000000000000000000000000000000   0000000000000000000000000A9        170192964704     
0010001300310U 020000000000000000000000000000000000000000000000000000000000000000000000000000000000000000000000000000000000000000000000002703201700000000            000000000000000                              000                           
0010001300311T 020180230000002544776 29647041374552937   7               28032017000000000006000001028029                         0900000000000010000000000000000000000000000000000000000   0000000000000000000000000A9        170192964704     
0010001300312U 020000000000000000000000000000000000000000000000000000000000000000000000000000000000000000000000000000000000000000000000002603201700000000            000000000000000                              000                           
0010001300313T 020180230000002544776 29647041377319722   7               28032017000000000006000001014028                         0900000000000010000000000000000000000000000000000000000   0000000000000000000000000A9        170192964704     
0010001300314U 020000000000000000000000000000000000000000000000000000000000000000000000000000000000000000000000000000000000000000000000002603201700000000            000000000000000                              000                           
0010001300315T 020180230000002544776 29647041380553796   7               29032017000000000006000001000132                         0900000000000010000000000000000000000000000000000000000   0000000000000000000000000A9        170192964704     
0010001300316U 020000000000000000000000000000000000000000000000000000000000000000000000000000000000000000000000000000000000000000000000002703201700000000            000000000000000                              000                           
0010001300317T 020180230000002544776 29647041381206678   7               29032017000000000008000001028029                         0900000000000010500000000000000000000000000000000000000   0000000000000000000000000A9A4      170192964704     
0010001300318U 020000000000000000000000000000000000000000000000000000000000000000000000000000000000000000000000000000000000000000000000002703201700000000            000000000000000                              000                           
0010001300319T 020180230000002544776 29647041381231449   7               29032017000000000008000001028029                         0900000000000010500000000000000000000000000000000000000   0000000000000000000000000A9A4      170192964704     
0010001300320U 020000000000000000000000000000000000000000000000000000000000000000000000000000000000000000000000000000000000000000000000002703201700000000            000000000000000                              000                           
0010001300321T 020180230000002544776 29647041381256751   7               29032017000000000008000001028029                         0900000000000010500000000000000000000000000000000000000   0000000000000000000000000A9A4      170192964704     
0010001300322U 020000000000000000000000000000000000000000000000000000000000000000000000000000000000000000000000000000000000000000000000002703201700000000            000000000000000                              000                           
0010001300323T 020180230000002544776 29647041382446499   7               29032017000000000006000001000132                         0900000000000010000000000000000000000000000000000000000   0000000000000000000000000A9        170192964704     
0010001300324U 020000000000000000000000000000000000000000000000000000000000000000000000000000000000000000000000000000000000000000000000002703201700000000            000000000000000                              000                           
0010001300325T 020180230000002544776 29647041386550499   7               27032017000000000006000001028029                         0900000000000010000000000000000000000000000000000000000   0000000000000000000000000A9        170192964704     
0010001300326U 020000000000000000000000000000000000000000000000000000000000000000000000000000000000000000000000000000000000000000000000002503201700000000            000000000000000                              000                           
0010001300327T 020180230000002544776 29647041390240370   7               29032017000000000006000001016179                         0900000000000010000000000000000000000000000000000000000   0000000000000000000000000A9        170192964704     
0010001300328U 020000000000000000000000000000000000000000000000000000000000000000000000000000000000000000000000000000000000000000000000002703201700000000            000000000000000                              000                           
0010001300329T 020180230000002544776 29647041394248104   7               29032017000000000006000001000132                         0900000000000010000000000000000000000000000000000000000   0000000000000000000000000A9        170192964704     
0010001300330U 020000000000000000000000000000000000000000000000000000000000000000000000000000000000000000000000000000000000000000000000002703201700000000            000000000000000                              000                           
0010001300331T 020180230000002544776 29647041397650435   7               29032017000000000006000001018376                         0900000000000010000000000000000000000000000000000000000   0000000000000000000000000A9        170192964704     
0010001300332U 020000000000000000000000000000000000000000000000000000000000000000000000000000000000000000000000000000000000000000000000002703201700000000            000000000000000                              000                           
0010001300333T 020180230000002544776 29647041398154436   7               29032017000000000006000001023655                         0900000000000010000000000000000000000000000000000000000   0000000000000000000000000A9        170192964704     
0010001300334U 020000000000000000000000000000000000000000000000000000000000000000000000000000000000000000000000000000000000000000000000002703201700000000            000000000000000                              000                           
0010001300335T 020180230000002544776 29647041400410946   7               29032017000000000006000001012467                         0900000000000010000000000000000000000000000000000000000   0000000000000000000000000A9        170192964704     
0010001300336U 020000000000000000000000000000000000000000000000000000000000000000000000000000000000000000000000000000000000000000000000002703201700000000            000000000000000                              000                           
0010001300337T 020180230000002544776 29647041402316848   7               29032017000000000006000001000132                         0900000000000010000000000000000000000000000000000000000   0000000000000000000000000A9        170192964704     
0010001300338U 020000000000000000000000000000000000000000000000000000000000000000000000000000000000000000000000000000000000000000000000002703201700000000            000000000000000                              000                           
0010001300339T 020180230000002544776 29647041402341992   7               29032017000000000006000001000132                         0900000000000010000000000000000000000000000000000000000   0000000000000000000000000A9        170192964704     
0010001300340U 020000000000000000000000000000000000000000000000000000000000000000000000000000000000000000000000000000000000000000000000002703201700000000            000000000000000                              000                           
0010001300341T 020180230000002544776 29647041403055417   7               29032017000000000006000001000132                         0900000000000010000000000000000000000000000000000000000   0000000000000000000000000A9        170192964704     
0010001300342U 020000000000000000000000000000000000000000000000000000000000000000000000000000000000000000000000000000000000000000000000002703201700000000            000000000000000                              000                           
0010001300343T 020180230000002544776 29647041404104168   7               29032017000000000006000001016179                         0900000000000010000000000000000000000000000000000000000   0000000000000000000000000A9        170192964704     
0010001300344U 020000000000000000000000000000000000000000000000000000000000000000000000000000000000000000000000000000000000000000000000002703201700000000            000000000000000                              000                           
0010001300345T 020180230000002544776 29647041410834207   7               27032017000000000008000001017310                         0900000000000010000000000000000000000000000000000000000   0000000000000000000000000A9        170192964704     
0010001300346U 020000000000000000000000000000000000000000000000000000000000000000000000000000000000000000000000000000000000000000000000002503201700000000            000000000000000                              000                           
0010001300347T 020180230000002544776 29647041411212026   7               29032017000000000006000001016179                         0900000000000010000000000000000000000000000000000000000   0000000000000000000000000A9        170192964704     
0010001300348U 020000000000000000000000000000000000000000000000000000000000000000000000000000000000000000000000000000000000000000000000002703201700000000            000000000000000                              000                           
0010001300349T 020180230000002544776 29647041411221166   7               29032017000000000006000001016179                         0900000000000010000000000000000000000000000000000000000   0000000000000000000000000A9        170192964704     
0010001300350U 020000000000000000000000000000000000000000000000000000000000000000000000000000000000000000000000000000000000000000000000002703201700000000            000000000000000                              000                           
0010001300351T 020180230000002544776 29647041411227647   7               29032017000000000006000001016179                         0900000000000010000000000000000000000000000000000000000   0000000000000000000000000A9        170192964704     
0010001300352U 020000000000000000000000000000000000000000000000000000000000000000000000000000000000000000000000000000000000000000000000002703201700000000            000000000000000                              000                           
0010001300353T 020180230000002544776 29647041411232393   7               29032017000000000006000001016179                         0900000000000010000000000000000000000000000000000000000   0000000000000000000000000A9        170192964704     
0010001300354U 020000000000000000000000000000000000000000000000000000000000000000000000000000000000000000000000000000000000000000000000002703201700000000            000000000000000                              000                           
0010001300355T 020180230000002544776 29647041411235410   7               29032017000000000006000001016179                         0900000000000010000000000000000000000000000000000000000   0000000000000000000000000A9        170192964704     
0010001300356U 020000000000000000000000000000000000000000000000000000000000000000000000000000000000000000000000000000000000000000000000002703201700000000            000000000000000                              000                           
0010001300357T 020180230000002544776 29647041411259592   7               29032017000000000006000001016179                         0900000000000010000000000000000000000000000000000000000   0000000000000000000000000A9        170192964704     
0010001300358U 020000000000000000000000000000000000000000000000000000000000000000000000000000000000000000000000000000000000000000000000002703201700000000            000000000000000                              000                           
0010001300359T 020180230000002544776 29647041414118261   7               29032017000000000006000001033316                         0900000000000010000000000000000000000000000000000000000   0000000000000000000000000A9        170192964704     
0010001300360U 020000000000000000000000000000000000000000000000000000000000000000000000000000000000000000000000000000000000000000000000002703201700000000            000000000000000                              000                           
0010001300361T 020180230000002544776 29647041414311705   7               27032017000000000006000001000361                         0900000000000010500000000000000000000000000000000000000   0000000000000000000000000A9A4      170192964704     
0010001300362U 020000000000000000000000000000000000000000000000000000000000000000000000000000000000000000000000000000000000000000000000002503201700000000            000000000000000                              000                           
0010001300363T 020180230000002544776 29647041414334552   7               27032017000000000006000001000361                         0900000000000010500000000000000000000000000000000000000   0000000000000000000000000A9A4      170192964704     
0010001300364U 020000000000000000000000000000000000000000000000000000000000000000000000000000000000000000000000000000000000000000000000002503201700000000            000000000000000                              000                           
0010001300365T 020180230000002544776 29647041414356914   7               27032017000000000006000001000361                         0900000000000010500000000000000000000000000000000000000   0000000000000000000000000A9A4      170192964704     
0010001300366U 020000000000000000000000000000000000000000000000000000000000000000000000000000000000000000000000000000000000000000000000002503201700000000            000000000000000                              000                           
0010001300367T 020180230000002544776 29647041417455071   7               27032017000000000006000001028029                         0900000000000010500000000000000000000000000000000000000   0000000000000000000000000A9A4      170192964704     
0010001300368U 020000000000000000000000000000000000000000000000000000000000000000000000000000000000000000000000000000000000000000000000002503201700000000            000000000000000                              000                           
0010001300369T 020180230000002544776 29647041418905722   7               27032017000000000006000001018376                         0900000000000010000000000000000000000000000000000000000   0000000000000000000000000A9        170192964704     
0010001300370U 020000000000000000000000000000000000000000000000000000000000000000000000000000000000000000000000000000000000000000000000002503201700000000            000000000000000                              000                           
0010001300371T 020180230000002544776 29647041418912885   7               29032017000000000006000001018376                         0900000000000010000000000000000000000000000000000000000   0000000000000000000000000A9        170192964704     
0010001300372U 020000000000000000000000000000000000000000000000000000000000000000000000000000000000000000000000000000000000000000000000002703201700000000            000000000000000                              000                           
0010001300373T 020180230000002544776 29647041418955146   7               27032017000000000006000001018376                         0900000000000010000000000000000000000000000000000000000   0000000000000000000000000A9        170192964704     
0010001300374U 020000000000000000000000000000000000000000000000000000000000000000000000000000000000000000000000000000000000000000000000002503201700000000            000000000000000                              000                           
0010001300375T 020180230000002544776 29647041421305767   7               29032017000000000006000001028029                         0900000000000010000000000000000000000000000000000000000   0000000000000000000000000A9        170192964704     
0010001300376U 020000000000000000000000000000000000000000000000000000000000000000000000000000000000000000000000000000000000000000000000002703201700000000            000000000000000                              000                           
0010001300377T 020180230000002544776 29647041424431889   7               29032017000000000006000001016179                         0900000000000010000000000000000000000000000000000000000   0000000000000000000000000A9        170192964704     
0010001300378U 020000000000000000000000000000000000000000000000000000000000000000000000000000000000000000000000000000000000000000000000002703201700000000            000000000000000                              000                           
0010001300379T 020180230000002544776 29647041424531466   7               28032017000000000006000001035041                         0900000000000010000000000000000000000000000000000000000   0000000000000000000000000A9        170192964704     
0010001300380U 020000000000000000000000000000000000000000000000000000000000000000000000000000000000000000000000000000000000000000000000002603201700000000            000000000000000                              000                           
0010001300381T 020180230000002544776 29647041426617533   7               29032017000000000006000001012467                         0900000000000010000000000000000000000000000000000000000   0000000000000000000000000A9        170192964704     
0010001300382U 020000000000000000000000000000000000000000000000000000000000000000000000000000000000000000000000000000000000000000000000002703201700000000            000000000000000                              000                           
0010001300383T 020180230000002544776 29647041427415011   7               28032017000000000008000001013692                         0900000000000010000000000000000000000000000000000000000   0000000000000000000000000A9        170192964704     
0010001300384U 020000000000000000000000000000000000000000000000000000000000000000000000000000000000000000000000000000000000000000000000002603201700000000            000000000000000                              000                           
0010001300385T 020180230000002544776 29647041427911763   7               29032017000000000006000001007218                         0900000000000010000000000000000000000000000000000000000   0000000000000000000000000A9        170192964704     
0010001300386U 020000000000000000000000000000000000000000000000000000000000000000000000000000000000000000000000000000000000000000000000002703201700000000            000000000000000                              000                           
0010001300387T 020180230000002544776 29647041430850471   7               29032017000000000006000001016179                         0900000000000010000000000000000000000000000000000000000   0000000000000000000000000A9        170192964704     
0010001300388U 020000000000000000000000000000000000000000000000000000000000000000000000000000000000000000000000000000000000000000000000002703201700000000            000000000000000                              000                           
0010001300389T 020180230000002544776 29647041434258580   7               27032017000000000006000001028029                         0900000000000010000000000000000000000000000000000000000   0000000000000000000000000A9        170192964704     
0010001300390U 020000000000000000000000000000000000000000000000000000000000000000000000000000000000000000000000000000000000000000000000002503201700000000            000000000000000                              000                           
0010001300391T 020180230000002544776 29647041435704546   7               27032017000000000006000001033316                         0900000000000010000000000000000000000000000000000000000   0000000000000000000000000A9        170192964704     
0010001300392U 020000000000000000000000000000000000000000000000000000000000000000000000000000000000000000000000000000000000000000000000002503201700000000            000000000000000                              000                           
0010001300393T 020180230000002544776 29647041435727396   7               28032017000000000006000001033316                         0900000000000010000000000000000000000000000000000000000   0000000000000000000000000A9        170192964704     
0010001300394U 020000000000000000000000000000000000000000000000000000000000000000000000000000000000000000000000000000000000000000000000002603201700000000            000000000000000                              000                           
0010001300395T 020180230000002544776 29647041436100809   7               28032017000000000006000001013617                         0900000000000010000000000000000000000000000000000000000   0000000000000000000000000A9        170192964704     
0010001300396U 020000000000000000000000000000000000000000000000000000000000000000000000000000000000000000000000000000000000000000000000002603201700000000            000000000000000                              000                           
0010001300397T 020180230000002544776 29647041436101542   7               27032017000000000006000001013617                         0900000000000010000000000000000000000000000000000000000   0000000000000000000000000A9        170192964704     
0010001300398U 020000000000000000000000000000000000000000000000000000000000000000000000000000000000000000000000000000000000000000000000002503201700000000            000000000000000                              000                           
0010001300399T 020180230000002544776 29647041436111978   7               28032017000000000006000001013617                         0900000000000010000000000000000000000000000000000000000   0000000000000000000000000A9        170192964704     
0010001300400U 020000000000000000000000000000000000000000000000000000000000000000000000000000000000000000000000000000000000000000000000002603201700000000            000000000000000                              000                           
0010001300401T 020180230000002544776 29647041436118111   7               28032017000000000006000001013617                         0900000000000010000000000000000000000000000000000000000   0000000000000000000000000A9        170192964704     
0010001300402U 020000000000000000000000000000000000000000000000000000000000000000000000000000000000000000000000000000000000000000000000002603201700000000            000000000000000                              000                           
0010001300403T 020180230000002544776 29647041436118454   7               28032017000000000006000001013617                         0900000000000010000000000000000000000000000000000000000   0000000000000000000000000A9        170192964704     
0010001300404U 020000000000000000000000000000000000000000000000000000000000000000000000000000000000000000000000000000000000000000000000002603201700000000            000000000000000                              000                           
0010001300405T 020180230000002544776 29647041436119820   7               28032017000000000006000001013617                         0900000000000010000000000000000000000000000000000000000   0000000000000000000000000A9        170192964704     
0010001300406U 020000000000000000000000000000000000000000000000000000000000000000000000000000000000000000000000000000000000000000000000002603201700000000            000000000000000                              000                           
0010001300407T 020180230000002544776 29647041436121740   7               28032017000000000006000001013617                         0900000000000010000000000000000000000000000000000000000   0000000000000000000000000A9        170192964704     
0010001300408U 020000000000000000000000000000000000000000000000000000000000000000000000000000000000000000000000000000000000000000000000002603201700000000            000000000000000                              000                           
0010001300409T 020180230000002544776 29647041436129524   7               27032017000000000006000001013617                         0900000000000010000000000000000000000000000000000000000   0000000000000000000000000A9        170192964704     
0010001300410U 020000000000000000000000000000000000000000000000000000000000000000000000000000000000000000000000000000000000000000000000002503201700000000            000000000000000                              000                           
0010001300411T 020180230000002544776 29647041436148105   7               28032017000000000006000001013617                         0900000000000010000000000000000000000000000000000000000   0000000000000000000000000A9        170192964704     
0010001300412U 020000000000000000000000000000000000000000000000000000000000000000000000000000000000000000000000000000000000000000000000002603201700000000            000000000000000                              000                           
