00100000         2247745860001000029647040014       0180230000002544776 INSTITUTO DE SELECAO E TECNOLOBANCO DO BRASIL                         22803201701121700008003000000515122941PROCESSAMEN                                                 
00100011T0100020 20247745860001000029647040014       0180230000002544776 INSTITUTO DE SELECAO E TECNOLO                                                                                000000002803201700000000  000000000                      
0010001300001T 020180230000002544776 29647040528515035   7               30032017000000000006000001028029                         0900000000000010000000000000000000000000000000000000000   0000000000000000000000000A9        170192964704     
0010001300002U 020000000000000000000000000000000000000000000000000000000000000000000000000000000000000000000000000000000000000000000000002803201700000000            000000000000000                              000                           
0010001300003T 020180230000002544776 29647040546316099   7               3003201700000000000600000100233X                         0900000000000010000000000000000000000000000000000000000   0000000000000000000000000A9        170192964704     
0010001300004U 020000000000000000000000000000000000000000000000000000000000000000000000000000000000000000000000000000000000000000000000002803201700000000            000000000000000                              000                           
0010001300005T 020180230000002544776 29647040560818567   7               30032017000000000006000001033316                         0900000000000010000000000000000000000000000000000000000   0000000000000000000000000A9        170192964704     
0010001300006U 020000000000000000000000000000000000000000000000000000000000000000000000000000000000000000000000000000000000000000000000002803201700000000            000000000000000                              000                           
0010001300007T 020180230000002544776 29647040560827060   7               30032017000000000006000001033316                         0900000000000010000000000000000000000000000000000000000   0000000000000000000000000A9        170192964704     
0010001300008U 020000000000000000000000000000000000000000000000000000000000000000000000000000000000000000000000000000000000000000000000002803201700000000            000000000000000                              000                           
0010001300009T 020180230000002544776 29647040560852335   7               30032017000000000006000001033316                         0900000000000010000000000000000000000000000000000000000   0000000000000000000000000A9        170192964704     
0010001300010U 020000000000000000000000000000000000000000000000000000000000000000000000000000000000000000000000000000000000000000000000002803201700000000            000000000000000                              000                           
0010001300011T 020180230000002544776 29647040573139928   7               30032017000000000006000001000132                         0900000000000010000000000000000000000000000000000000000   0000000000000000000000000A9        170192964704     
0010001300012U 020000000000000000000000000000000000000000000000000000000000000000000000000000000000000000000000000000000000000000000000002803201700000000            000000000000000                              000                           
0010001300013T 020180230000002544776 29647040579943819   7               30032017000000000006000001000132                         0900000000000010000000000000000000000000000000000000000   0000000000000000000000000A9        170192964704     
0010001300014U 020000000000000000000000000000000000000000000000000000000000000000000000000000000000000000000000000000000000000000000000002803201700000000            000000000000000                              000                           
0010001300015T 020180230000002544776 29647040587029496   7               30032017000000000006000001016179                         0900000000000010000000000000000000000000000000000000000   0000000000000000000000000A9        170192964704     
0010001300016U 020000000000000000000000000000000000000000000000000000000000000000000000000000000000000000000000000000000000000000000000002803201700000000            000000000000000                              000                           
0010001300017T 020180230000002544776 29647040588205966   7               30032017000000000006000001028029                         0900000000000010000000000000000000000000000000000000000   0000000000000000000000000A9        170192964704     
0010001300018U 020000000000000000000000000000000000000000000000000000000000000000000000000000000000000000000000000000000000000000000000002803201700000000            000000000000000                              000                           
0010001300019T 020180230000002544776 29647040599422711   7               30032017000000000008000001000132                         0900000000000010000000000000000000000000000000000000000   0000000000000000000000000A9        170192964704     
0010001300020U 020000000000000000000000000000000000000000000000000000000000000000000000000000000000000000000000000000000000000000000000002803201700000000            000000000000000                              000                           
0010001300021T 020180230000002544776 29647040607846465   7               30032017000000000006000001000132                         0900000000000010000000000000000000000000000000000000000   0000000000000000000000000A9        170192964704     
0010001300022U 020000000000000000000000000000000000000000000000000000000000000000000000000000000000000000000000000000000000000000000000002803201700000000            000000000000000                              000                           
0010001300023T 020180230000002544776 29647040629501781   7               30032017000000000006000001012629                         0900000000000010000000000000000000000000000000000000000   0000000000000000000000000A9        170192964704     
0010001300024U 020000000000000000000000000000000000000000000000000000000000000000000000000000000000000000000000000000000000000000000000002803201700000000            000000000000000                              000                           
0010001300025T 020180230000002544776 29647040631559106   7               29032017000000000006000001012467                         0900000000000010500000000000000000000000000000000000000   0000000000000000000000000A9A4      170192964704     
0010001300026U 020000000000000000000000000000000000000000000000000000000000000000000000000000000000000000000000000000000000000000000000002703201700000000            000000000000000                              000                           
0010001300027T 020180230000002544776 29647040637051981   7               30032017000000000006000001023329                         0900000000000010000000000000000000000000000000000000000   0000000000000000000000000A9        170192964704     
0010001300028U 020000000000000000000000000000000000000000000000000000000000000000000000000000000000000000000000000000000000000000000000002803201700000000            000000000000000                              000                           
0010001300029T 020180230000002544776 29647040637908504   7               30032017000000000006000001000132                         0900000000000010000000000000000000000000000000000000000   0000000000000000000000000A9        170192964704     
0010001300030U 020000000000000000000000000000000000000000000000000000000000000000000000000000000000000000000000000000000000000000000000002803201700000000            000000000000000                              000                           
0010001300031T 020180230000002544776 29647040639106182   7               30032017000000000006000001000132                         0900000000000010000000000000000000000000000000000000000   0000000000000000000000000A9        170192964704     
0010001300032U 020000000000000000000000000000000000000000000000000000000000000000000000000000000000000000000000000000000000000000000000002803201700000000            000000000000000                              000                           
0010001300033T 020180230000002544776 29647040639143834   7               30032017000000000006000001000132                         0900000000000010000000000000000000000000000000000000000   0000000000000000000000000A9        170192964704     
0010001300034U 020000000000000000000000000000000000000000000000000000000000000000000000000000000000000000000000000000000000000000000000002803201700000000            000000000000000                              000                           
0010001300035T 020180230000002544776 29647040657948158   7               30032017000000000006000001012467                         0900000000000010000000000000000000000000000000000000000   0000000000000000000000000A9        170192964704     
0010001300036U 020000000000000000000000000000000000000000000000000000000000000000000000000000000000000000000000000000000000000000000000002803201700000000            000000000000000                              000                           
0010001300037T 020180230000002544776 29647040683152028   7               30032017000000000006000001012467                         0900000000000010000000000000000000000000000000000000000   0000000000000000000000000A9        170192964704     
0010001300038U 020000000000000000000000000000000000000000000000000000000000000000000000000000000000000000000000000000000000000000000000002803201700000000            000000000000000                              000                           
0010001300039T 020180230000002544776 29647040702804105   7               30032017000000000006000001035033                         0900000000000010000000000000000000000000000000000000000   0000000000000000000000000A9        170192964704     
0010001300040U 020000000000000000000000000000000000000000000000000000000000000000000000000000000000000000000000000000000000000000000000002803201700000000            000000000000000                              000                           
0010001300041T 020180230000002544776 29647040724721178   7               30032017000000000006000001020354                         0900000000000010000000000000000000000000000000000000000   0000000000000000000000000A9        170192964704     
0010001300042U 020000000000000000000000000000000000000000000000000000000000000000000000000000000000000000000000000000000000000000000000002803201700000000            000000000000000                              000                           
0010001300043T 020180230000002544776 29647040758526297   7               30032017000000000006000001006211                         0900000000000010000000000000000000000000000000000000000   0000000000000000000000000A9        170192964704     
0010001300044U 020000000000000000000000000000000000000000000000000000000000000000000000000000000000000000000000000000000000000000000000002803201700000000            000000000000000                              000                           
0010001300045T 020180230000002544776 29647040773533190   7               30032017000000000008000001000132                         0900000000000010000000000000000000000000000000000000000   0000000000000000000000000A9        170192964704     
0010001300046U 020000000000000000000000000000000000000000000000000000000000000000000000000000000000000000000000000000000000000000000000002803201700000000            000000000000000                              000                           
0010001300047T 020180230000002544776 29647040797257639   7               30032017000000000006000001035041                         0900000000000010000000000000000000000000000000000000000   0000000000000000000000000A9        170192964704     
0010001300048U 020000000000000000000000000000000000000000000000000000000000000000000000000000000000000000000000000000000000000000000000002803201700000000            000000000000000                              000                           
0010001300049T 020180230000002544776 29647040804659031   7               30032017000000000006000001012467                         0900000000000010000000000000000000000000000000000000000   0000000000000000000000000A9        170192964704     
0010001300050U 020000000000000000000000000000000000000000000000000000000000000000000000000000000000000000000000000000000000000000000000002803201700000000            000000000000000                              000                           
0010001300051T 020180230000002544776 29647040807446314   7               3003201700000000000600000101138X                         0900000000000010000000000000000000000000000000000000000   0000000000000000000000000A9        170192964704     
0010001300052U 020000000000000000000000000000000000000000000000000000000000000000000000000000000000000000000000000000000000000000000000002803201700000000            000000000000000                              000                           
0010001300053T 020180230000002544776 29647040807449143   7               3003201700000000000600000101138X                         0900000000000010000000000000000000000000000000000000000   0000000000000000000000000A9        170192964704     
0010001300054U 020000000000000000000000000000000000000000000000000000000000000000000000000000000000000000000000000000000000000000000000002803201700000000            000000000000000                              000                           
0010001300055T 020180230000002544776 29647040836438190   7               3003201700000000000600000100944X                         0900000000000010000000000000000000000000000000000000000   0000000000000000000000000A9        170192964704     
0010001300056U 020000000000000000000000000000000000000000000000000000000000000000000000000000000000000000000000000000000000000000000000002803201700000000            000000000000000                              000                           
0010001300057T 020180230000002544776 29647040848301855   7               30032017000000000006000001012467                         0900000000000010000000000000000000000000000000000000000   0000000000000000000000000A9        170192964704     
0010001300058U 020000000000000000000000000000000000000000000000000000000000000000000000000000000000000000000000000000000000000000000000002803201700000000            000000000000000                              000                           
0010001300059T 020180230000002544776 29647040863731260   7               30032017000000000006000001023655                         0900000000000010000000000000000000000000000000000000000   0000000000000000000000000A9        170192964704     
0010001300060U 020000000000000000000000000000000000000000000000000000000000000000000000000000000000000000000000000000000000000000000000002803201700000000            000000000000000                              000                           
0010001300061T 020180230000002544776 29647040880921305   7               30032017000000000008000001033316                         0900000000000010000000000000000000000000000000000000000   0000000000000000000000000A9        170192964704     
0010001300062U 020000000000000000000000000000000000000000000000000000000000000000000000000000000000000000000000000000000000000000000000002803201700000000            000000000000000                              000                           
0010001300063T 020180230000002544776 29647040908150257   7               30032017000000000008000001016179                         0900000000000010000000000000000000000000000000000000000   0000000000000000000000000A9        170192964704     
0010001300064U 020000000000000000000000000000000000000000000000000000000000000000000000000000000000000000000000000000000000000000000000002803201700000000            000000000000000                              000                           
0010001300065T 020180230000002544776 29647040928801885   7               30032017000000000006000001008214                         0900000000000010000000000000000000000000000000000000000   0000000000000000000000000A9        170192964704     
0010001300066U 020000000000000000000000000000000000000000000000000000000000000000000000000000000000000000000000000000000000000000000000002803201700000000            000000000000000                              000                           
0010001300067T 020180230000002544776 29647040931753160   7               30032017000000000006000001002461                         0900000000000010000000000000000000000000000000000000000   0000000000000000000000000A9        170192964704     
0010001300068U 020000000000000000000000000000000000000000000000000000000000000000000000000000000000000000000000000000000000000000000000002803201700000000            000000000000000                              000                           
0010001300069T 020180230000002544776 29647040951700219   7               30032017000000000006000001018376                         0900000000000010000000000000000000000000000000000000000   0000000000000000000000000A9        170192964704     
0010001300070U 020000000000000000000000000000000000000000000000000000000000000000000000000000000000000000000000000000000000000000000000002803201700000000            000000000000000                              000                           
0010001300071T 020180230000002544776 29647040957538497   7               30032017000000000006000001018376                         0900000000000010000000000000000000000000000000000000000   0000000000000000000000000A9        170192964704     
0010001300072U 020000000000000000000000000000000000000000000000000000000000000000000000000000000000000000000000000000000000000000000000002803201700000000            000000000000000                              000                           
0010001300073T 020180230000002544776 29647040961959747   7               30032017000000000006000001020354                         0900000000000010000000000000000000000000000000000000000   0000000000000000000000000A9        170192964704     
0010001300074U 020000000000000000000000000000000000000000000000000000000000000000000000000000000000000000000000000000000000000000000000002803201700000000            000000000000000                              000                           
0010001300075T 020180230000002544776 29647040963037009   7               30032017000000000008000001000132                         0900000000000010000000000000000000000000000000000000000   0000000000000000000000000A9        170192964704     
0010001300076U 020000000000000000000000000000000000000000000000000000000000000000000000000000000000000000000000000000000000000000000000002803201700000000            000000000000000                              000                           
0010001300077T 020180230000002544776 29647040991957294   7               29032017000000000006000001000132                         0900000000000010500000000000000000000000000000000000000   0000000000000000000000000A9A4      170192964704     
0010001300078U 020000000000000000000000000000000000000000000000000000000000000000000000000000000000000000000000000000000000000000000000002703201700000000            000000000000000                              000                           
0010001300079T 020180230000002544776 29647041003154220   7               30032017000000000006000001000132                         0900000000000010500000000000000000000000000000000000000   0000000000000000000000000A9A4      170192964704     
0010001300080U 020000000000000000000000000000000000000000000000000000000000000000000000000000000000000000000000000000000000000000000000002803201700000000            000000000000000                              000                           
0010001300081T 020180230000002544776 29647041025502364   7               29032017000000000006000001028029                         0900000000000010000000000000000000000000000000000000000   0000000000000000000000000A9        170192964704     
0010001300082U 020000000000000000000000000000000000000000000000000000000000000000000000000000000000000000000000000000000000000000000000002703201700000000            000000000000000                              000                           
0010001300083T 020180230000002544776 29647041048530108   7               30032017000000000006000001000132                         0900000000000010000000000000000000000000000000000000000   0000000000000000000000000A9        170192964704     
0010001300084U 020000000000000000000000000000000000000000000000000000000000000000000000000000000000000000000000000000000000000000000000002803201700000000            000000000000000                              000                           
0010001300085T 020180230000002544776 29647041048547723   7               30032017000000000006000001000132                         0900000000000010000000000000000000000000000000000000000   0000000000000000000000000A9        170192964704     
0010001300086U 020000000000000000000000000000000000000000000000000000000000000000000000000000000000000000000000000000000000000000000000002803201700000000            000000000000000                              000                           
0010001300087T 020180230000002544776 29647041095250858   7               30032017000000000008000001016179                         0900000000000010000000000000000000000000000000000000000   0000000000000000000000000A9        170192964704     
0010001300088U 020000000000000000000000000000000000000000000000000000000000000000000000000000000000000000000000000000000000000000000000002803201700000000            000000000000000                              000                           
0010001300089T 020180230000002544776 29647041095705136   7               30032017000000000008000001001155                         0900000000000010000000000000000000000000000000000000000   0000000000000000000000000A9        170192964704     
0010001300090U 020000000000000000000000000000000000000000000000000000000000000000000000000000000000000000000000000000000000000000000000002803201700000000            000000000000000                              000                           
0010001300091T 020180230000002544776 29647041095744587   7               30032017000000000008000001001155                         0900000000000010000000000000000000000000000000000000000   0000000000000000000000000A9        170192964704     
0010001300092U 020000000000000000000000000000000000000000000000000000000000000000000000000000000000000000000000000000000000000000000000002803201700000000            000000000000000                              000                           
0010001300093T 020180230000002544776 29647041107406698   7               30032017000000000006000001020354                         0900000000000010500000000000000000000000000000000000000   0000000000000000000000000A9A4      170192964704     
0010001300094U 020000000000000000000000000000000000000000000000000000000000000000000000000000000000000000000000000000000000000000000000002803201700000000            000000000000000                              000                           
0010001300095T 020180230000002544776 29647041107430195   7               30032017000000000006000001020354                         0900000000000010500000000000000000000000000000000000000   0000000000000000000000000A9A4      170192964704     
0010001300096U 020000000000000000000000000000000000000000000000000000000000000000000000000000000000000000000000000000000000000000000000002803201700000000            000000000000000                              000                           
0010001300097T 020180230000002544776 29647041110458165   7               30032017000000000006000001016179                         0900000000000010000000000000000000000000000000000000000   0000000000000000000000000A9        170192964704     
0010001300098U 020000000000000000000000000000000000000000000000000000000000000000000000000000000000000000000000000000000000000000000000002803201700000000            000000000000000                              000                           
0010001300099T 020180230000002544776 29647041116936758   7               30032017000000000006000001028029                         0900000000000010000000000000000000000000000000000000000   0000000000000000000000000A9        170192964704     
0010001300100U 020000000000000000000000000000000000000000000000000000000000000000000000000000000000000000000000000000000000000000000000002803201700000000            000000000000000                              000                           
0010001300101T 020180230000002544776 29647041119938443   7               30032017000000000006000001012629                         0900000000000010000000000000000000000000000000000000000   0000000000000000000000000A9        170192964704     
0010001300102U 020000000000000000000000000000000000000000000000000000000000000000000000000000000000000000000000000000000000000000000000002803201700000000            000000000000000                              000                           
0010001300103T 020180230000002544776 29647041141634247   7               30032017000000000006000001000132                         0900000000000010000000000000000000000000000000000000000   0000000000000000000000000A9        170192964704     
0010001300104U 020000000000000000000000000000000000000000000000000000000000000000000000000000000000000000000000000000000000000000000000002803201700000000            000000000000000                              000                           
0010001300105T 020180230000002544776 29647041145856009   7               3003201700000000000600000101981X                         0900000000000010000000000000000000000000000000000000000   0000000000000000000000000A9        170192964704     
0010001300106U 020000000000000000000000000000000000000000000000000000000000000000000000000000000000000000000000000000000000000000000000002803201700000000            000000000000000                              000                           
0010001300107T 020180230000002544776 29647041151620337   7               29032017000000000006000001012467                         0900000000000010000000000000000000000000000000000000000   0000000000000000000000000A9        170192964704     
0010001300108U 020000000000000000000000000000000000000000000000000000000000000000000000000000000000000000000000000000000000000000000000002703201700000000            000000000000000                              000                           
0010001300109T 020180230000002544776 29647041161929982   7               30032017000000000006000001012467                         0900000000000010000000000000000000000000000000000000000   0000000000000000000000000A9        170192964704     
0010001300110U 020000000000000000000000000000000000000000000000000000000000000000000000000000000000000000000000000000000000000000000000002803201700000000            000000000000000                              000                           
0010001300111T 020180230000002544776 29647041199120428   7               30032017000000000006000001000132                         0900000000000010000000000000000000000000000000000000000   0000000000000000000000000A9        170192964704     
0010001300112U 020000000000000000000000000000000000000000000000000000000000000000000000000000000000000000000000000000000000000000000000002803201700000000            000000000000000                              000                           
0010001300113T 020180230000002544776 29647041200535009   7               30032017000000000006000001028029                         0900000000000010000000000000000000000000000000000000000   0000000000000000000000000A9        170192964704     
0010001300114U 020000000000000000000000000000000000000000000000000000000000000000000000000000000000000000000000000000000000000000000000002803201700000000            000000000000000                              000                           
0010001300115T 020180230000002544776 29647041231803963   7               30032017000000000008000001016179                         0900000000000010000000000000000000000000000000000000000   0000000000000000000000000A9        170192964704     
0010001300116U 020000000000000000000000000000000000000000000000000000000000000000000000000000000000000000000000000000000000000000000000002803201700000000            000000000000000                              000                           
0010001300117T 020180230000002544776 29647041250030483   7               30032017000000000006000001012467                         0900000000000010000000000000000000000000000000000000000   0000000000000000000000000A9        170192964704     
0010001300118U 020000000000000000000000000000000000000000000000000000000000000000000000000000000000000000000000000000000000000000000000002803201700000000            000000000000000                              000                           
0010001300119T 020180230000002544776 29647041255613687   7               30032017000000000006000001016179                         0900000000000010000000000000000000000000000000000000000   0000000000000000000000000A9        170192964704     
0010001300120U 020000000000000000000000000000000000000000000000000000000000000000000000000000000000000000000000000000000000000000000000002803201700000000            000000000000000                              000                           
0010001300121T 020180230000002544776 29647041266610522   7               30032017000000000006000001018376                         0900000000000010000000000000000000000000000000000000000   0000000000000000000000000A9        170192964704     
0010001300122U 020000000000000000000000000000000000000000000000000000000000000000000000000000000000000000000000000000000000000000000000002803201700000000            000000000000000                              000                           
0010001300123T 020180230000002544776 29647041280559490   7               30032017000000000006000001028029                         0900000000000010000000000000000000000000000000000000000   0000000000000000000000000A9        170192964704     
0010001300124U 020000000000000000000000000000000000000000000000000000000000000000000000000000000000000000000000000000000000000000000000002803201700000000            000000000000000                              000                           
0010001300125T 020180230000002544776 29647041281355349   7               30032017000000000006000001016179                         0900000000000010000000000000000000000000000000000000000   0000000000000000000000000A9        170192964704     
0010001300126U 020000000000000000000000000000000000000000000000000000000000000000000000000000000000000000000000000000000000000000000000002803201700000000            000000000000000                              000                           
0010001300127T 020180230000002544776 29647041292333861   7               30032017000000000006000001012688                         0900000000000010000000000000000000000000000000000000000   0000000000000000000000000A9        170192964704     
0010001300128U 020000000000000000000000000000000000000000000000000000000000000000000000000000000000000000000000000000000000000000000000002803201700000000            000000000000000                              000                           
0010001300129T 020180230000002544776 29647041310930040   7               30032017000000000006000001021385                         0900000000000010000000000000000000000000000000000000000   0000000000000000000000000A9        170192964704     
0010001300130U 020000000000000000000000000000000000000000000000000000000000000000000000000000000000000000000000000000000000000000000000002803201700000000            000000000000000                              000                           
0010001300131T 020180230000002544776 29647041312522736   7               30032017000000000006000001002208                         0900000000000010000000000000000000000000000000000000000   0000000000000000000000000A9        170192964704     
0010001300132U 020000000000000000000000000000000000000000000000000000000000000000000000000000000000000000000000000000000000000000000000002803201700000000            000000000000000                              000                           
0010001300133T 020180230000002544776 29647041316026122   7               29032017000000000008000001033316                         0900000000000010000000000000000000000000000000000000000   0000000000000000000000000A9        170192964704     
0010001300134U 020000000000000000000000000000000000000000000000000000000000000000000000000000000000000000000000000000000000000000000000002703201700000000            000000000000000                              000                           
0010001300135T 020180230000002544776 29647041318603256   7               30032017000000000006000001028029                         0900000000000010000000000000000000000000000000000000000   0000000000000000000000000A9        170192964704     
0010001300136U 020000000000000000000000000000000000000000000000000000000000000000000000000000000000000000000000000000000000000000000000002803201700000000            000000000000000                              000                           
0010001300137T 020180230000002544776 29647041318645196   7               30032017000000000006000001028029                         0900000000000010000000000000000000000000000000000000000   0000000000000000000000000A9        170192964704     
0010001300138U 020000000000000000000000000000000000000000000000000000000000000000000000000000000000000000000000000000000000000000000000002803201700000000            000000000000000                              000                           
0010001300139T 020180230000002544776 29647041330521309   7               30032017000000000006000001028029                         0900000000000010000000000000000000000000000000000000000   0000000000000000000000000A9        170192964704     
0010001300140U 020000000000000000000000000000000000000000000000000000000000000000000000000000000000000000000000000000000000000000000000002803201700000000            000000000000000                              000                           
0010001300141T 020180230000002544776 29647041330533197   7               30032017000000000006000001028029                         0900000000000010000000000000000000000000000000000000000   0000000000000000000000000A9        170192964704     
0010001300142U 020000000000000000000000000000000000000000000000000000000000000000000000000000000000000000000000000000000000000000000000002803201700000000            000000000000000                              000                           
0010001300143T 020180230000002544776 29647041332253881   7               30032017000000000006000001033316                         0900000000000010000000000000000000000000000000000000000   0000000000000000000000000A9        170192964704     
0010001300144U 020000000000000000000000000000000000000000000000000000000000000000000000000000000000000000000000000000000000000000000000002803201700000000            000000000000000                              000                           
0010001300145T 020180230000002544776 29647041332436599   7               30032017000000000006000001033316                         0900000000000010000000000000000000000000000000000000000   0000000000000000000000000A9        170192964704     
0010001300146U 020000000000000000000000000000000000000000000000000000000000000000000000000000000000000000000000000000000000000000000000002803201700000000            000000000000000                              000                           
0010001300147T 020180230000002544776 29647041337909641   7               30032017000000000006000001028029                         0900000000000010000000000000000000000000000000000000000   0000000000000000000000000A9        170192964704     
0010001300148U 020000000000000000000000000000000000000000000000000000000000000000000000000000000000000000000000000000000000000000000000002803201700000000            000000000000000                              000                           
0010001300149T 020180230000002544776 29647041337914672   7               30032017000000000006000001028029                         0900000000000010000000000000000000000000000000000000000   0000000000000000000000000A9        170192964704     
0010001300150U 020000000000000000000000000000000000000000000000000000000000000000000000000000000000000000000000000000000000000000000000002803201700000000            000000000000000                              000                           
0010001300151T 020180230000002544776 29647041337947594   7               30032017000000000006000001028029                         0900000000000010000000000000000000000000000000000000000   0000000000000000000000000A9        170192964704     
0010001300152U 020000000000000000000000000000000000000000000000000000000000000000000000000000000000000000000000000000000000000000000000002803201700000000            000000000000000                              000                           
0010001300153T 020180230000002544776 29647041337948908   7               30032017000000000006000001028029                         0900000000000010000000000000000000000000000000000000000   0000000000000000000000000A9        170192964704     
0010001300154U 020000000000000000000000000000000000000000000000000000000000000000000000000000000000000000000000000000000000000000000000002803201700000000            000000000000000                              000                           
0010001300155T 020180230000002544776 29647041346010576   7               30032017000000000006000001016179                         0900000000000010000000000000000000000000000000000000000   0000000000000000000000000A9        170192964704     
0010001300156U 020000000000000000000000000000000000000000000000000000000000000000000000000000000000000000000000000000000000000000000000002803201700000000            000000000000000                              000                           
0010001300157T 020180230000002544776 29647041346035821   7               30032017000000000006000001016179                         0900000000000010000000000000000000000000000000000000000   0000000000000000000000000A9        170192964704     
0010001300158U 020000000000000000000000000000000000000000000000000000000000000000000000000000000000000000000000000000000000000000000000002803201700000000            000000000000000                              000                           
0010001300159T 020180230000002544776 29647041351603463   7               30032017000000000006000001013692                         0900000000000010000000000000000000000000000000000000000   0000000000000000000000000A9        170192964704     
0010001300160U 020000000000000000000000000000000000000000000000000000000000000000000000000000000000000000000000000000000000000000000000002803201700000000            000000000000000                              000                           
0010001300161T 020180230000002544776 29647041351940085   7               30032017000000000008000001033316                         0900000000000010000000000000000000000000000000000000000   0000000000000000000000000A9        170192964704     
0010001300162U 020000000000000000000000000000000000000000000000000000000000000000000000000000000000000000000000000000000000000000000000002803201700000000            000000000000000                              000                           
0010001300163T 020180230000002544776 29647041360144747   7               30032017000000000006000001012467                         0900000000000010000000000000000000000000000000000000000   0000000000000000000000000A9        170192964704     
0010001300164U 020000000000000000000000000000000000000000000000000000000000000000000000000000000000000000000000000000000000000000000000002803201700000000            000000000000000                              000                           
0010001300165T 020180230000002544776 29647041360505055   7               30032017000000000006000001005428                         0900000000000010000000000000000000000000000000000000000   0000000000000000000000000A9        170192964704     
0010001300166U 020000000000000000000000000000000000000000000000000000000000000000000000000000000000000000000000000000000000000000000000002803201700000000            000000000000000                              000                           
0010001300167T 020180230000002544776 29647041362608345   7               30032017000000000006000001035033                         0900000000000010000000000000000000000000000000000000000   0000000000000000000000000A9        170192964704     
0010001300168U 020000000000000000000000000000000000000000000000000000000000000000000000000000000000000000000000000000000000000000000000002803201700000000            000000000000000                              000                           
0010001300169T 020180230000002544776 29647041362934636   7               30032017000000000008000001020354                         0900000000000010000000000000000000000000000000000000000   0000000000000000000000000A9        170192964704     
0010001300170U 020000000000000000000000000000000000000000000000000000000000000000000000000000000000000000000000000000000000000000000000002803201700000000            000000000000000                              000                           
0010001300171T 020180230000002544776 29647041373443164   7               30032017000000000006000001016179                         0900000000000010000000000000000000000000000000000000000   0000000000000000000000000A9        170192964704     
0010001300172U 020000000000000000000000000000000000000000000000000000000000000000000000000000000000000000000000000000000000000000000000002803201700000000            000000000000000                              000                           
0010001300173T 020180230000002544776 29647041382653447   7               30032017000000000006000001000132                         0900000000000010000000000000000000000000000000000000000   0000000000000000000000000A9        170192964704     
0010001300174U 020000000000000000000000000000000000000000000000000000000000000000000000000000000000000000000000000000000000000000000000002803201700000000            000000000000000                              000                           
0010001300175T 020180230000002544776 29647041385651023   7               30032017000000000006000001016179                         0900000000000010000000000000000000000000000000000000000   0000000000000000000000000A9        170192964704     
0010001300176U 020000000000000000000000000000000000000000000000000000000000000000000000000000000000000000000000000000000000000000000000002803201700000000            000000000000000                              000                           
0010001300177T 020180230000002544776 29647041397214778   7               30032017000000000006000001028029                         0900000000000010000000000000000000000000000000000000000   0000000000000000000000000A9        170192964704     
0010001300178U 020000000000000000000000000000000000000000000000000000000000000000000000000000000000000000000000000000000000000000000000002803201700000000            000000000000000                              000                           
0010001300179T 020180230000002544776 29647041405606509   7               30032017000000000006000001028029                         0900000000000010000000000000000000000000000000000000000   0000000000000000000000000A9        170192964704     
0010001300180U 020000000000000000000000000000000000000000000000000000000000000000000000000000000000000000000000000000000000000000000000002803201700000000            000000000000000                              000                           
0010001300181T 020180230000002544776 29647041412946302   7               30032017000000000006000001028029                         0900000000000010000000000000000000000000000000000000000   0000000000000000000000000A9        170192964704     
0010001300182U 020000000000000000000000000000000000000000000000000000000000000000000000000000000000000000000000000000000000000000000000002803201700000000            000000000000000                              000                           
0010001300183T 020180230000002544776 29647041413034546   7               30032017000000000006000001005479                         0900000000000010500000000000000000000000000000000000000   0000000000000000000000000A9A4      170192964704     
0010001300184U 020000000000000000000000000000000000000000000000000000000000000000000000000000000000000000000000000000000000000000000000002803201700000000            000000000000000                              000                           
0010001300185T 020180230000002544776 29647041414646667   7               30032017000000000006000001020354                         0900000000000010000000000000000000000000000000000000000   0000000000000000000000000A9        170192964704     
0010001300186U 020000000000000000000000000000000000000000000000000000000000000000000000000000000000000000000000000000000000000000000000002803201700000000            000000000000000                              000                           
0010001300187T 020180230000002544776 29647041418923421   7               30032017000000000006000001018376                         0900000000000010000000000000000000000000000000000000000   0000000000000000000000000A9        170192964704     
0010001300188U 020000000000000000000000000000000000000000000000000000000000000000000000000000000000000000000000000000000000000000000000002803201700000000            000000000000000                              000                           
0010001300189T 020180230000002544776 29647041421322430   7               30032017000000000006000001028029                         0900000000000010000000000000000000000000000000000000000   0000000000000000000000000A9        170192964704     
0010001300190U 020000000000000000000000000000000000000000000000000000000000000000000000000000000000000000000000000000000000000000000000002803201700000000            000000000000000                              000                           
0010001300191T 020180230000002544776 29647041421325945   7               30032017000000000006000001028029                         0900000000000010000000000000000000000000000000000000000   0000000000000000000000000A9        170192964704     
0010001300192U 020000000000000000000000000000000000000000000000000000000000000000000000000000000000000000000000000000000000000000000000002803201700000000            000000000000000                              000                           
0010001300193T 020180230000002544776 29647041421351497   7               30032017000000000006000001028029                         0900000000000010000000000000000000000000000000000000000   0000000000000000000000000A9        170192964704     
0010001300194U 020000000000000000000000000000000000000000000000000000000000000000000000000000000000000000000000000000000000000000000000002803201700000000            000000000000000                              000                           
0010001300195T 020180230000002544776 29647041422515744   7               30032017000000000006000001035041                         0900000000000010000000000000000000000000000000000000000   0000000000000000000000000A9        170192964704     
0010001300196U 020000000000000000000000000000000000000000000000000000000000000000000000000000000000000000000000000000000000000000000000002803201700000000            000000000000000                              000                           
0010001300197T 020180230000002544776 29647041426007664   7               29032017000000000008000001028029                         0900000000000010000000000000000000000000000000000000000   0000000000000000000000000A9        170192964704     
0010001300198U 020000000000000000000000000000000000000000000000000000000000000000000000000000000000000000000000000000000000000000000000002703201700000000            000000000000000                              000                           
0010001300199T 020180230000002544776 29647041426124286   7               29032017000000000008000001028029                         0900000000000010000000000000000000000000000000000000000   0000000000000000000000000A9        170192964704     
0010001300200U 020000000000000000000000000000000000000000000000000000000000000000000000000000000000000000000000000000000000000000000000002703201700000000            000000000000000                              000                           
0010001300201T 020180230000002544776 29647041434808037   7               30032017000000000006000001023655                         0900000000000010000000000000000000000000000000000000000   0000000000000000000000000A9        170192964704     
0010001300202U 020000000000000000000000000000000000000000000000000000000000000000000000000000000000000000000000000000000000000000000000002803201700000000            000000000000000                              000                           
0010001300203T 020180230000002544776 29647041436815054   7               30032017000000000006000001006254                         0900000000000010000000000000000000000000000000000000000   0000000000000000000000000A9        170192964704     
0010001300204U 020000000000000000000000000000000000000000000000000000000000000000000000000000000000000000000000000000000000000000000000002803201700000000            000000000000000                              000                           
0010001300205T 020180230000002544776 29647041436854454   7               30032017000000000006000001006254                         0900000000000010000000000000000000000000000000000000000   0000000000000000000000000A9        170192964704     
0010001300206U 020000000000000000000000000000000000000000000000000000000000000000000000000000000000000000000000000000000000000000000000002803201700000000            000000000000000                              000                           
0010001300207T 020180230000002544776 29647041438910790   7               30032017000000000006000001028029                         0900000000000010000000000000000000000000000000000000000   0000000000000000000000000A9        170192964704     
0010001300208U 020000000000000000000000000000000000000000000000000000000000000000000000000000000000000000000000000000000000000000000000002803201700000000            000000000000000                              000                           
0010001300209T 020180230000002544776 29647041442229936   7               30032017000000000006000001000132                         0900000000000010000000000000000000000000000000000000000   0000000000000000000000000A9        170192964704     
0010001300210U 020000000000000000000000000000000000000000000000000000000000000000000000000000000000000000000000000000000000000000000000002803201700000000            000000000000000                              000                           
0010001300211T 020180230000002544776 29647041445046477   7               30032017000000000006000001001287                         0900000000000010000000000000000000000000000000000000000   0000000000000000000000000A9        170192964704     
0010001300212U 020000000000000000000000000000000000000000000000000000000000000000000000000000000000000000000000000000000000000000000000002803201700000000            000000000000000                              000                           
0010001300213T 020180230000002544776 29647041448329796   7               30032017000000000006000001016179                         0900000000000010000000000000000000000000000000000000000   0000000000000000000000000A9        170192964704     
0010001300214U 020000000000000000000000000000000000000000000000000000000000000000000000000000000000000000000000000000000000000000000000002803201700000000            000000000000000                              000                           
0010001300215T 020180230000002544776 29647041449837251   7               30032017000000000006000001033316                         0900000000000010000000000000000000000000000000000000000   0000000000000000000000000A9        170192964704     
0010001300216U 020000000000000000000000000000000000000000000000000000000000000000000000000000000000000000000000000000000000000000000000002803201700000000            000000000000000                              000                           
0010001300217T 020180230000002544776 29647041452807352   7               30032017000000000008000001016179                         0900000000000010000000000000000000000000000000000000000   0000000000000000000000000A9        170192964704     
0010001300218U 020000000000000000000000000000000000000000000000000000000000000000000000000000000000000000000000000000000000000000000000002803201700000000            000000000000000                              000                           
0010001300219T 020180230000002544776 29647041454135261   7               30032017000000000006000001018376                         0900000000000010000000000000000000000000000000000000000   0000000000000000000000000A9        170192964704     
0010001300220U 020000000000000000000000000000000000000000000000000000000000000000000000000000000000000000000000000000000000000000000000002803201700000000            000000000000000                              000                           
0010001300221T 020180230000002544776 29647041454154813   7               30032017000000000006000001018376                         0900000000000010000000000000000000000000000000000000000   0000000000000000000000000A9        170192964704     
0010001300222U 020000000000000000000000000000000000000000000000000000000000000000000000000000000000000000000000000000000000000000000000002803201700000000            000000000000000                              000                           
0010001300223T 020180230000002544776 29647041454439765   7               30032017000000000006000001012467                         0900000000000010000000000000000000000000000000000000000   0000000000000000000000000A9        170192964704     
0010001300224U 020000000000000000000000000000000000000000000000000000000000000000000000000000000000000000000000000000000000000000000000002803201700000000            000000000000000                              000                           
0010001300225T 020180230000002544776 29647041454631755   7               30032017000000000008000001028029                         0900000000000010000000000000000000000000000000000000000   0000000000000000000000000A9        170192964704     
0010001300226U 020000000000000000000000000000000000000000000000000000000000000000000000000000000000000000000000000000000000000000000000002803201700000000            000000000000000                              000                           
0010001300227T 020180230000002544776 29647041470633893   7               30032017000000000006000001028029                         0900000000000010000000000000000000000000000000000000000   0000000000000000000000000A9        170192964704     
0010001300228U 020000000000000000000000000000000000000000000000000000000000000000000000000000000000000000000000000000000000000000000000002803201700000000            000000000000000                              000                           
0010001300229T 020180230000002544776 29647041472203626   7               30032017000000000006000001012467                         0900000000000010000000000000000000000000000000000000000   0000000000000000000000000A9        170192964704     
0010001300230U 020000000000000000000000000000000000000000000000000000000000000000000000000000000000000000000000000000000000000000000000002803201700000000            000000000000000                              000                           
0010001300231T 020180230000002544776 29647041472243293   7               30032017000000000006000001012467                         0900000000000010000000000000000000000000000000000000000   0000000000000000000000000A9        170192964704     
0010001300232U 020000000000000000000000000000000000000000000000000000000000000000000000000000000000000000000000000000000000000000000000002803201700000000            000000000000000                              000                           
0010001300233T 020180230000002544776 29647041472300006   7               30032017000000000006000001012467                         0900000000000010000000000000000000000000000000000000000   0000000000000000000000000A9        170192964704     
0010001300234U 020000000000000000000000000000000000000000000000000000000000000000000000000000000000000000000000000000000000000000000000002803201700000000            000000000000000                              000                           
0010001300235T 020180230000002544776 29647041472620524   7               30032017000000000006000001012467                         0900000000000010000000000000000000000000000000000000000   0000000000000000000000000A9        170192964704     
0010001300236U 020000000000000000000000000000000000000000000000000000000000000000000000000000000000000000000000000000000000000000000000002803201700000000            000000000000000                              000                           
0010001300237T 020180230000002544776 29647041474308265   7               30032017000000000006000001028029                         0900000000000010000000000000000000000000000000000000000   0000000000000000000000000A9        170192964704     
0010001300238U 020000000000000000000000000000000000000000000000000000000000000000000000000000000000000000000000000000000000000000000000002803201700000000            000000000000000                              000                           
0010001300239T 020180230000002544776 29647041474343704   7               30032017000000000006000001028029                         0900000000000010000000000000000000000000000000000000000   0000000000000000000000000A9        170192964704     
0010001300240U 020000000000000000000000000000000000000000000000000000000000000000000000000000000000000000000000000000000000000000000000002803201700000000            000000000000000                              000                           
0010001300241T 020180230000002544776 29647041474511184   7               29032017000000000006000001005428                         0900000000000010000000000000000000000000000000000000000   0000000000000000000000000A9        170192964704     
0010001300242U 020000000000000000000000000000000000000000000000000000000000000000000000000000000000000000000000000000000000000000000000002703201700000000            000000000000000                              000                           
0010001300243T 020180230000002544776 29647041474716205   7               29032017000000000006000001005428                         0900000000000010000000000000000000000000000000000000000   0000000000000000000000000A9        170192964704     
0010001300244U 020000000000000000000000000000000000000000000000000000000000000000000000000000000000000000000000000000000000000000000000002703201700000000            000000000000000                              000                           
0010001300245T 020180230000002544776 29647041474835246   7               29032017000000000006000001000132                         0900000000000010000000000000000000000000000000000000000   0000000000000000000000000A9        170192964704     
0010001300246U 020000000000000000000000000000000000000000000000000000000000000000000000000000000000000000000000000000000000000000000000002703201700000000            000000000000000                              000                           
0010001300247T 020180230000002544776 29647041474948551   7               29032017000000000008000001023655                         0900000000000010000000000000000000000000000000000000000   0000000000000000000000000A9        170192964704     
0010001300248U 020000000000000000000000000000000000000000000000000000000000000000000000000000000000000000000000000000000000000000000000002703201700000000            000000000000000                              000                           
0010001300249T 020180230000002544776 29647041475151059   7               29032017000000000006000001016179                         0900000000000010000000000000000000000000000000000000000   0000000000000000000000000A9        170192964704     
0010001300250U 020000000000000000000000000000000000000000000000000000000000000000000000000000000000000000000000000000000000000000000000002703201700000000            000000000000000                              000                           
0010001300251T 020180230000002544776 29647041475209257   7               29032017000000000006000001016179                         0900000000000010000000000000000000000000000000000000000   0000000000000000000000000A9        170192964704     
0010001300252U 020000000000000000000000000000000000000000000000000000000000000000000000000000000000000000000000000000000000000000000000002703201700000000            000000000000000                              000                           
0010001300253T 020180230000002544776 29647041475316601   7               29032017000000000006000001000132                         0900000000000010000000000000000000000000000000000000000   0000000000000000000000000A9        170192964704     
0010001300254U 020000000000000000000000000000000000000000000000000000000000000000000000000000000000000000000000000000000000000000000000002703201700000000            000000000000000                              000                           
0010001300255T 020180230000002544776 29647041475553126   7               29032017000000000006000001000132                         0900000000000010000000000000000000000000000000000000000   0000000000000000000000000A9        170192964704     
0010001300256U 020000000000000000000000000000000000000000000000000000000000000000000000000000000000000000000000000000000000000000000000002703201700000000            000000000000000                              000                           
0010001300257T 020180230000002544776 29647041475613229   7               29032017000000000006000001004774                         0900000000000010000000000000000000000000000000000000000   0000000000000000000000000A9        170192964704     
0010001300258U 020000000000000000000000000000000000000000000000000000000000000000000000000000000000000000000000000000000000000000000000002703201700000000            000000000000000                              000                           
0010001300259T 020180230000002544776 29647041475802552   7               30032017000000000006000001028029                         0900000000000010000000000000000000000000000000000000000   0000000000000000000000000A9        170192964704     
0010001300260U 020000000000000000000000000000000000000000000000000000000000000000000000000000000000000000000000000000000000000000000000002803201700000000            000000000000000                              000                           
0010001300261T 020180230000002544776 29647041476005315   7               30032017000000000008000001023655                         0900000000000010000000000000000000000000000000000000000   0000000000000000000000000A9        170192964704     
0010001300262U 020000000000000000000000000000000000000000000000000000000000000000000000000000000000000000000000000000000000000000000000002803201700000000            000000000000000                              000                           
0010001300263T 020180230000002544776 29647041476130236   7               30032017000000000008000001000132                         0900000000000010000000000000000000000000000000000000000   0000000000000000000000000A9        170192964704     
0010001300264U 020000000000000000000000000000000000000000000000000000000000000000000000000000000000000000000000000000000000000000000000002803201700000000            000000000000000                              000                           
0010001300265T 020180230000002544776 29647041476244267   7               30032017000000000006000001011347                         0900000000000010000000000000000000000000000000000000000   0000000000000000000000000A9        170192964704     
0010001300266U 020000000000000000000000000000000000000000000000000000000000000000000000000000000000000000000000000000000000000000000000002803201700000000            000000000000000                              000                           
0010001300267T 020180230000002544776 29647041476252378   7               30032017000000000006000001011347                         0900000000000010000000000000000000000000000000000000000   0000000000000000000000000A9        170192964704     
0010001300268U 020000000000000000000000000000000000000000000000000000000000000000000000000000000000000000000000000000000000000000000000002803201700000000            000000000000000                              000                           
0010001300269T 020180230000002544776 29647041476512582   7               30032017000000000006000001033316                         0900000000000010000000000000000000000000000000000000000   0000000000000000000000000A9        170192964704     
0010001300270U 020000000000000000000000000000000000000000000000000000000000000000000000000000000000000000000000000000000000000000000000002803201700000000            000000000000000                              000                           
0010001300271T 020180230000002544776 29647041476653930   7               30032017000000000006000001016179                         0900000000000010000000000000000000000000000000000000000   0000000000000000000000000A9        170192964704     
0010001300272U 020000000000000000000000000000000000000000000000000000000000000000000000000000000000000000000000000000000000000000000000002803201700000000            000000000000000                              000                           
0010001300273T 020180230000002544776 29647041476751720   7               30032017000000000006000001000132                         0900000000000010000000000000000000000000000000000000000   0000000000000000000000000A9        170192964704     
0010001300274U 020000000000000000000000000000000000000000000000000000000000000000000000000000000000000000000000000000000000000000000000002803201700000000            000000000000000                              000                           
0010001300275T 020180230000002544776 29647041476816183   7               30032017000000000006000001005428                         0900000000000010000000000000000000000000000000000000000   0000000000000000000000000A9        170192964704     
0010001300276U 020000000000000000000000000000000000000000000000000000000000000000000000000000000000000000000000000000000000000000000000002803201700000000            000000000000000                              000                           
0010001300277T 020180230000002544776 29647041476958102   7               30032017000000000006000001028029                         0900000000000010000000000000000000000000000000000000000   0000000000000000000000000A9        170192964704     
0010001300278U 020000000000000000000000000000000000000000000000000000000000000000000000000000000000000000000000000000000000000000000000002803201700000000            000000000000000                              000                           
0010001300279T 020180230000002544776 29647041477016218   7               30032017000000000006000001000132                         0900000000000010000000000000000000000000000000000000000   0000000000000000000000000A9        170192964704     
0010001300280U 020000000000000000000000000000000000000000000000000000000000000000000000000000000000000000000000000000000000000000000000002803201700000000            000000000000000                              000                           
0010001300281T 020180230000002544776 29647041477142831   7               30032017000000000006000001010545                         0900000000000010000000000000000000000000000000000000000   0000000000000000000000000A9        170192964704     
0010001300282U 020000000000000000000000000000000000000000000000000000000000000000000000000000000000000000000000000000000000000000000000002803201700000000            000000000000000                              000                           
0010001300283T 020180230000002544776 29647041477215516   7               30032017000000000006000001000132                         0900000000000010000000000000000000000000000000000000000   0000000000000000000000000A9        170192964704     
0010001300284U 020000000000000000000000000000000000000000000000000000000000000000000000000000000000000000000000000000000000000000000000002803201700000000            000000000000000                              000                           
0010001300285T 020180230000002544776 29647041477518427   7               30032017000000000006000001000132                         0900000000000010000000000000000000000000000000000000000   0000000000000000000000000A9        170192964704     
0010001300286U 020000000000000000000000000000000000000000000000000000000000000000000000000000000000000000000000000000000000000000000000002803201700000000            000000000000000                              000                           
0010001300287T 020180230000002544776 29647041477608056   7               30032017000000000006000001005428                         0900000000000010000000000000000000000000000000000000000   0000000000000000000000000A9        170192964704     
0010001300288U 020000000000000000000000000000000000000000000000000000000000000000000000000000000000000000000000000000000000000000000000002803201700000000            000000000000000                              000                           
0010001300289T 020180230000002544776 29647041477713022   7               30032017000000000006000001005428                         0900000000000010000000000000000000000000000000000000000   0000000000000000000000000A9        170192964704     
0010001300290U 020000000000000000000000000000000000000000000000000000000000000000000000000000000000000000000000000000000000000000000000002803201700000000            000000000000000                              000                           
0010001300291T 020180230000002544776 29647041477823964   7               30032017000000000006000001033316                         0900000000000010000000000000000000000000000000000000000   0000000000000000000000000A9        170192964704     
0010001300292U 020000000000000000000000000000000000000000000000000000000000000000000000000000000000000000000000000000000000000000000000002803201700000000            000000000000000                              000                           
0010001300293T 020180230000002544776 29647041477842438   7               30032017000000000006000001033316                         0900000000000010000000000000000000000000000000000000000   0000000000000000000000000A9        170192964704     
0010001300294U 020000000000000000000000000000000000000000000000000000000000000000000000000000000000000000000000000000000000000000000000002803201700000000            000000000000000                              000                           
0010001300295T 020180230000002544776 29647041477902744   7               30032017000000000006000001005428                         0900000000000010000000000000000000000000000000000000000   0000000000000000000000000A9        170192964704     
0010001300296U 020000000000000000000000000000000000000000000000000000000000000000000000000000000000000000000000000000000000000000000000002803201700000000            000000000000000                              000                           
0010001300297T 020180230000002544776 29647041478037615   7               30032017000000000006000001035041                         0900000000000010000000000000000000000000000000000000000   0000000000000000000000000A9        170192964704     
0010001300298U 020000000000000000000000000000000000000000000000000000000000000000000000000000000000000000000000000000000000000000000000002803201700000000            000000000000000                              000                           
0010001300299T 020180230000002544776 29647041478235009   7               30032017000000000006000001025089                         0900000000000010000000000000000000000000000000000000000   0000000000000000000000000A9        170192964704     
0010001300300U 020000000000000000000000000000000000000000000000000000000000000000000000000000000000000000000000000000000000000000000000002803201700000000            000000000000000                              000                           
0010001300301T 020180230000002544776 29647041478344885   7               30032017000000000006000001000132                         0900000000000010500000000000000000000000000000000000000   0000000000000000000000000A9A4      170192964704     
0010001300302U 020000000000000000000000000000000000000000000000000000000000000000000000000000000000000000000000000000000000000000000000002803201700000000            000000000000000                              000                           
0010001300303T 020180230000002544776 29647041478447608   7               30032017000000000006000001000132                         0900000000000010500000000000000000000000000000000000000   0000000000000000000000000A9A4      170192964704     
0010001300304U 020000000000000000000000000000000000000000000000000000000000000000000000000000000000000000000000000000000000000000000000002803201700000000            000000000000000                              000                           
0010001300305T 020180230000002544776 29647041478546531   7               30032017000000000006000001000132                         0900000000000010500000000000000000000000000000000000000   0000000000000000000000000A9A4      170192964704     
0010001300306U 020000000000000000000000000000000000000000000000000000000000000000000000000000000000000000000000000000000000000000000000002803201700000000            000000000000000                              000                           
0010001300307T 020180230000002544776 29647041478607392   7               30032017000000000006000001000132                         0900000000000010500000000000000000000000000000000000000   0000000000000000000000000A9A4      170192964704     
0010001300308U 020000000000000000000000000000000000000000000000000000000000000000000000000000000000000000000000000000000000000000000000002803201700000000            000000000000000                              000                           
0010001300309T 020180230000002544776 29647041478625061   7               30032017000000000006000001000132                         0900000000000010500000000000000000000000000000000000000   0000000000000000000000000A9A4      170192964704     
0010001300310U 020000000000000000000000000000000000000000000000000000000000000000000000000000000000000000000000000000000000000000000000002803201700000000            000000000000000                              000                           
0010001300311T 020180230000002544776 29647041478701885   7               3003201700000000000600000100331X                         0900000000000010000000000000000000000000000000000000000   0000000000000000000000000A9        170192964704     
0010001300312U 020000000000000000000000000000000000000000000000000000000000000000000000000000000000000000000000000000000000000000000000002803201700000000            000000000000000                              000                           
0010001300313T 020180230000002544776 29647041478724811   7               3003201700000000000600000100331X                         0900000000000010000000000000000000000000000000000000000   0000000000000000000000000A9        170192964704     
0010001300314U 020000000000000000000000000000000000000000000000000000000000000000000000000000000000000000000000000000000000000000000000002803201700000000            000000000000000                              000                           
0010001300315T 020180230000002544776 29647041478735947   7               3003201700000000000600000100331X                         0900000000000010000000000000000000000000000000000000000   0000000000000000000000000A9        170192964704     
0010001300316U 020000000000000000000000000000000000000000000000000000000000000000000000000000000000000000000000000000000000000000000000002803201700000000            000000000000000                              000                           
0010001300317T 020180230000002544776 29647041478833609   7               30032017000000000006000001000132                         0900000000000010000000000000000000000000000000000000000   0000000000000000000000000A9        170192964704     
0010001300318U 020000000000000000000000000000000000000000000000000000000000000000000000000000000000000000000000000000000000000000000000002803201700000000            000000000000000                              000                           
0010001300319T 020180230000002544776 29647041478917098   7               30032017000000000006000001000132                         0900000000000010500000000000000000000000000000000000000   0000000000000000000000000A9A4      170192964704     
0010001300320U 020000000000000000000000000000000000000000000000000000000000000000000000000000000000000000000000000000000000000000000000002803201700000000            000000000000000                              000                           
0010001300321T 020180230000002544776 29647041479014865   7               30032017000000000006000001008214                         0900000000000010000000000000000000000000000000000000000   0000000000000000000000000A9        170192964704     
0010001300322U 020000000000000000000000000000000000000000000000000000000000000000000000000000000000000000000000000000000000000000000000002803201700000000            000000000000000                              000                           
0010001300323T 020180230000002544776 29647041479124107   7               30032017000000000006000001018376                         0900000000000010000000000000000000000000000000000000000   0000000000000000000000000A9        170192964704     
0010001300324U 020000000000000000000000000000000000000000000000000000000000000000000000000000000000000000000000000000000000000000000000002803201700000000            000000000000000                              000                           
0010001300325T 020180230000002544776 29647041479241782   7               30032017000000000006000001001597                         0900000000000010000000000000000000000000000000000000000   0000000000000000000000000A9        170192964704     
0010001300326U 020000000000000000000000000000000000000000000000000000000000000000000000000000000000000000000000000000000000000000000000002803201700000000            000000000000000                              000                           
0010001300327T 020180230000002544776 29647041479319012   7               30032017000000000006000001016179                         0900000000000010000000000000000000000000000000000000000   0000000000000000000000000A9        170192964704     
0010001300328U 020000000000000000000000000000000000000000000000000000000000000000000000000000000000000000000000000000000000000000000000002803201700000000            000000000000000                              000                           
0010001300329T 020180230000002544776 29647041479412359   7               30032017000000000006000001000132                         0900000000000010000000000000000000000000000000000000000   0000000000000000000000000A9        170192964704     
0010001300330U 020000000000000000000000000000000000000000000000000000000000000000000000000000000000000000000000000000000000000000000000002803201700000000            000000000000000                              000                           
0010001300331T 020180230000002544776 29647041479413615   7               30032017000000000006000001000132                         0900000000000010000000000000000000000000000000000000000   0000000000000000000000000A9        170192964704     
0010001300332U 020000000000000000000000000000000000000000000000000000000000000000000000000000000000000000000000000000000000000000000000002803201700000000            000000000000000                              000                           
0010001300333T 020180230000002544776 29647041479540871   7               30032017000000000006000001001104                         0900000000000010000000000000000000000000000000000000000   0000000000000000000000000A9        170192964704     
0010001300334U 020000000000000000000000000000000000000000000000000000000000000000000000000000000000000000000000000000000000000000000000002803201700000000            000000000000000                              000                           
0010001300335T 020180230000002544776 29647041479642048   7               30032017000000000006000001000132                         0900000000000010000000000000000000000000000000000000000   0000000000000000000000000A9        170192964704     
0010001300336U 020000000000000000000000000000000000000000000000000000000000000000000000000000000000000000000000000000000000000000000000002803201700000000            000000000000000                              000                           
0010001300337T 020180230000002544776 29647041479759413   7               30032017000000000006000001000132                         0900000000000010000000000000000000000000000000000000000   0000000000000000000000000A9        170192964704     
0010001300338U 020000000000000000000000000000000000000000000000000000000000000000000000000000000000000000000000000000000000000000000000002803201700000000            000000000000000                              000                           
0010001300339T 020180230000002544776 29647041479818799   7               30032017000000000006000001000132                         0900000000000010000000000000000000000000000000000000000   0000000000000000000000000A9        170192964704     
0010001300340U 020000000000000000000000000000000000000000000000000000000000000000000000000000000000000000000000000000000000000000000000002803201700000000            000000000000000                              000                           
0010001300341T 020180230000002544776 29647041479925049   7               30032017000000000006000001024600                         0900000000000010000000000000000000000000000000000000000   0000000000000000000000000A9        170192964704     
0010001300342U 020000000000000000000000000000000000000000000000000000000000000000000000000000000000000000000000000000000000000000000000002803201700000000            000000000000000                              000                           
0010001300343T 020180230000002544776 29647041480042674   7               30032017000000000006000001005428                         0900000000000010000000000000000000000000000000000000000   0000000000000000000000000A9        170192964704     
0010001300344U 020000000000000000000000000000000000000000000000000000000000000000000000000000000000000000000000000000000000000000000000002803201700000000            000000000000000                              000                           
0010001300345T 020180230000002544776 29647041480128201   7               30032017000000000006000001016179                         0900000000000010000000000000000000000000000000000000000   0000000000000000000000000A9        170192964704     
0010001300346U 020000000000000000000000000000000000000000000000000000000000000000000000000000000000000000000000000000000000000000000000002803201700000000            000000000000000                              000                           
0010001300347T 020180230000002544776 29647041480241827   7               30032017000000000006000001000132                         0900000000000010000000000000000000000000000000000000000   0000000000000000000000000A9        170192964704     
0010001300348U 020000000000000000000000000000000000000000000000000000000000000000000000000000000000000000000000000000000000000000000000002803201700000000            000000000000000                              000                           
0010001300349T 020180230000002544776 29647041480407560   7               30032017000000000006000001028029                         0900000000000010000000000000000000000000000000000000000   0000000000000000000000000A9        170192964704     
0010001300350U 020000000000000000000000000000000000000000000000000000000000000000000000000000000000000000000000000000000000000000000000002803201700000000            000000000000000                              000                           
0010001300351T 020180230000002544776 29647041480437742   7               30032017000000000006000001028029                         0900000000000010000000000000000000000000000000000000000   0000000000000000000000000A9        170192964704     
0010001300352U 020000000000000000000000000000000000000000000000000000000000000000000000000000000000000000000000000000000000000000000000002803201700000000            000000000000000                              000                           
0010001300353T 020180230000002544776 29647041480533955   7               30032017000000000006000001016179                         0900000000000010000000000000000000000000000000000000000   0000000000000000000000000A9        170192964704     
0010001300354U 020000000000000000000000000000000000000000000000000000000000000000000000000000000000000000000000000000000000000000000000002803201700000000            000000000000000                              000                           
0010001300355T 020180230000002544776 29647041480703460   7               30032017000000000008000001001597                         0900000000000010000000000000000000000000000000000000000   0000000000000000000000000A9        170192964704     
0010001300356U 020000000000000000000000000000000000000000000000000000000000000000000000000000000000000000000000000000000000000000000000002803201700000000            000000000000000                              000                           
0010001300357T 020180230000002544776 29647041480829259   7               30032017000000000006000001000132                         0900000000000010500000000000000000000000000000000000000   0000000000000000000000000A9A4      170192964704     
0010001300358U 020000000000000000000000000000000000000000000000000000000000000000000000000000000000000000000000000000000000000000000000002803201700000000            000000000000000                              000                           
0010001300359T 020180230000002544776 29647041480848101   7               30032017000000000006000001000132                         0900000000000010500000000000000000000000000000000000000   0000000000000000000000000A9A4      170192964704     
0010001300360U 020000000000000000000000000000000000000000000000000000000000000000000000000000000000000000000000000000000000000000000000002803201700000000            000000000000000                              000                           
0010001300361T 020180230000002544776 29647041481017436   7               30032017000000000006000001005347                         0900000000000010000000000000000000000000000000000000000   0000000000000000000000000A9        170192964704     
0010001300362U 020000000000000000000000000000000000000000000000000000000000000000000000000000000000000000000000000000000000000000000000002803201700000000            000000000000000                              000                           
0010001300363T 020180230000002544776 29647041481034448   7               30032017000000000006000001005347                         0900000000000010000000000000000000000000000000000000000   0000000000000000000000000A9        170192964704     
0010001300364U 020000000000000000000000000000000000000000000000000000000000000000000000000000000000000000000000000000000000000000000000002803201700000000            000000000000000                              000                           
0010001300365T 020180230000002544776 29647041481108721   7               30032017000000000008000001022578                         0900000000000010000000000000000000000000000000000000000   0000000000000000000000000A9        170192964704     
0010001300366U 020000000000000000000000000000000000000000000000000000000000000000000000000000000000000000000000000000000000000000000000002803201700000000            000000000000000                              000                           
0010001300367T 020180230000002544776 29647041481229235   7               30032017000000000006000001000132                         0900000000000010000000000000000000000000000000000000000   0000000000000000000000000A9        170192964704     
0010001300368U 020000000000000000000000000000000000000000000000000000000000000000000000000000000000000000000000000000000000000000000000002803201700000000            000000000000000                              000                           
0010001300369T 020180230000002544776 29647041481319720   7               30032017000000000006000001028029                         0900000000000010000000000000000000000000000000000000000   0000000000000000000000000A9        170192964704     
0010001300370U 020000000000000000000000000000000000000000000000000000000000000000000000000000000000000000000000000000000000000000000000002803201700000000            000000000000000                              000                           
0010001300371T 020180230000002544776 29647041481444353   7               30032017000000000006000001005428                         0900000000000010000000000000000000000000000000000000000   0000000000000000000000000A9        170192964704     
0010001300372U 020000000000000000000000000000000000000000000000000000000000000000000000000000000000000000000000000000000000000000000000002803201700000000            000000000000000                              000                           
0010001300373T 020180230000002544776 29647041481547100   7               30032017000000000008000001000132                         0900000000000010000000000000000000000000000000000000000   0000000000000000000000000A9        170192964704     
0010001300374U 020000000000000000000000000000000000000000000000000000000000000000000000000000000000000000000000000000000000000000000000002803201700000000            000000000000000                              000                           
0010001300375T 020180230000002544776 29647041481647781   7               30032017000000000006000001000132                         0900000000000010500000000000000000000000000000000000000   0000000000000000000000000A9A4      170192964704     
0010001300376U 020000000000000000000000000000000000000000000000000000000000000000000000000000000000000000000000000000000000000000000000002803201700000000            000000000000000                              000                           
0010001300377T 020180230000002544776 29647041481705132   7               30032017000000000008000001000132                         0900000000000010000000000000000000000000000000000000000   0000000000000000000000000A9        170192964704     
0010001300378U 020000000000000000000000000000000000000000000000000000000000000000000000000000000000000000000000000000000000000000000000002803201700000000            000000000000000                              000                           
0010001300379T 020180230000002544776 29647041481717232   7               30032017000000000008000001000132                         0900000000000010000000000000000000000000000000000000000   0000000000000000000000000A9        170192964704     
0010001300380U 020000000000000000000000000000000000000000000000000000000000000000000000000000000000000000000000000000000000000000000000002803201700000000            000000000000000                              000                           
0010001300381T 020180230000002544776 29647041481823057   7               30032017000000000006000001000132                         0900000000000010000000000000000000000000000000000000000   0000000000000000000000000A9        170192964704     
0010001300382U 020000000000000000000000000000000000000000000000000000000000000000000000000000000000000000000000000000000000000000000000002803201700000000            000000000000000                              000                           
0010001300383T 020180230000002544776 29647041481914377   7               30032017000000000006000001000132                         0900000000000010000000000000000000000000000000000000000   0000000000000000000000000A9        170192964704     
0010001300384U 020000000000000000000000000000000000000000000000000000000000000000000000000000000000000000000000000000000000000000000000002803201700000000            000000000000000                              000                           
0010001300385T 020180230000002544776 29647041482025056   7               30032017000000000006000001028029                         0900000000000010000000000000000000000000000000000000000   0000000000000000000000000A9        170192964704     
0010001300386U 020000000000000000000000000000000000000000000000000000000000000000000000000000000000000000000000000000000000000000000000002803201700000000            000000000000000                              000                           
0010001300387T 020180230000002544776 29647041482211838   7               30032017000000000006000001000132                         0900000000000010000000000000000000000000000000000000000   0000000000000000000000000A9        170192964704     
0010001300388U 020000000000000000000000000000000000000000000000000000000000000000000000000000000000000000000000000000000000000000000000002803201700000000            000000000000000                              000                           
0010001300389T 020180230000002544776 29647041482323796   7               30032017000000000006000001016179                         0900000000000010000000000000000000000000000000000000000   0000000000000000000000000A9        170192964704     
0010001300390U 020000000000000000000000000000000000000000000000000000000000000000000000000000000000000000000000000000000000000000000000002803201700000000            000000000000000                              000                           
0010001300391T 020180230000002544776 29647041482327765   7               30032017000000000006000001016179                         0900000000000010000000000000000000000000000000000000000   0000000000000000000000000A9        170192964704     
0010001300392U 020000000000000000000000000000000000000000000000000000000000000000000000000000000000000000000000000000000000000000000000002803201700000000            000000000000000                              000                           
0010001300393T 020180230000002544776 29647041482414134   7               30032017000000000006000001013668                         0900000000000010000000000000000000000000000000000000000   0000000000000000000000000A9        170192964704     
0010001300394U 020000000000000000000000000000000000000000000000000000000000000000000000000000000000000000000000000000000000000000000000002803201700000000            000000000000000                              000                           
0010001300395T 020180230000002544776 29647041482457948   7               30032017000000000006000001013668                         0900000000000010000000000000000000000000000000000000000   0000000000000000000000000A9        170192964704     
0010001300396U 020000000000000000000000000000000000000000000000000000000000000000000000000000000000000000000000000000000000000000000000002803201700000000            000000000000000                              000                           
0010001300397T 020180230000002544776 29647041482537752   7               30032017000000000006000001028029                         0900000000000010000000000000000000000000000000000000000   0000000000000000000000000A9        170192964704     
0010001300398U 020000000000000000000000000000000000000000000000000000000000000000000000000000000000000000000000000000000000000000000000002803201700000000            000000000000000                              000                           
0010001300399T 020180230000002544776 29647041482539677   7               30032017000000000006000001028029                         0900000000000010000000000000000000000000000000000000000   0000000000000000000000000A9        170192964704     
0010001300400U 020000000000000000000000000000000000000000000000000000000000000000000000000000000000000000000000000000000000000000000000002803201700000000            000000000000000                              000                           
0010001300401T 020180230000002544776 29647041482615713   7               30032017000000000006000001028029                         0900000000000010000000000000000000000000000000000000000   0000000000000000000000000A9        170192964704     
0010001300402U 020000000000000000000000000000000000000000000000000000000000000000000000000000000000000000000000000000000000000000000000002803201700000000            000000000000000                              000                           
0010001300403T 020180230000002544776 29647041482643509   7               30032017000000000006000001028029                         0900000000000010000000000000000000000000000000000000000   0000000000000000000000000A9        170192964704     
0010001300404U 020000000000000000000000000000000000000000000000000000000000000000000000000000000000000000000000000000000000000000000000002803201700000000            000000000000000                              000                           
0010001300405T 020180230000002544776 29647041482722222   7               30032017000000000006000001033316                         0900000000000010000000000000000000000000000000000000000   0000000000000000000000000A9        170192964704     
0010001300406U 020000000000000000000000000000000000000000000000000000000000000000000000000000000000000000000000000000000000000000000000002803201700000000            000000000000000                              000                           
0010001300407T 020180230000002544776 29647041482852481   7               30032017000000000006000001016179                         0900000000000010000000000000000000000000000000000000000   0000000000000000000000000A9        170192964704     
0010001300408U 020000000000000000000000000000000000000000000000000000000000000000000000000000000000000000000000000000000000000000000000002803201700000000            000000000000000                              000                           
0010001300409T 020180230000002544776 29647041482859445   7               30032017000000000006000001016179                         0900000000000010000000000000000000000000000000000000000   0000000000000000000000000A9        170192964704     
0010001300410U 020000000000000000000000000000000000000000000000000000000000000000000000000000000000000000000000000000000000000000000000002803201700000000            000000000000000                              000                           
0010001300411T 020180230000002544776 29647041482933159   7               30032017000000000006000001000132                         0900000000000010500000000000000000000000000000000000000   0000000000000000000000000A9A4      170192964704     
0010001300412U 020000000000000000000000000000000000000000000000000000000000000000000000000000000000000000000000000000000000000000000000002803201700000000            000000000000000                              000                           
