00100000         2247745860001000029647040014       0180230000002544776 INSTITUTO DE SELECAO E TECNOLOBANCO DO BRASIL                         22903201701123200008203000000515122941PROCESSAMEN                                                 
00100011T0100020 20247745860001000029647040014       0180230000002544776 INSTITUTO DE SELECAO E TECNOLO                                                                                000000002903201700000000  000000000                      
0010001300001T 020180230000002544776 29647040543106031   7               31032017000000000006000001028029                         0900000000000010000000000000000000000000000000000000000   0000000000000000000000000A9        170192964704     
0010001300002U 020000000000000000000000000000000000000000000000000000000000000000000000000000000000000000000000000000000000000000000000002903201700000000            000000000000000                              000                           
0010001300003T 020180230000002544776 29647040547303642   7               31032017000000000006000001028029                         0900000000000010000000000000000000000000000000000000000   0000000000000000000000000A9        170192964704     
0010001300004U 020000000000000000000000000000000000000000000000000000000000000000000000000000000000000000000000000000000000000000000000002903201700000000            000000000000000                              000                           
0010001300005T 020180230000002544776 29647040552646920   7               31032017000000000006000001050725                         0900000000000010000000000000000000000000000000000000000   0000000000000000000000000A9        170192964704     
0010001300006U 020000000000000000000000000000000000000000000000000000000000000000000000000000000000000000000000000000000000000000000000002903201700000000            000000000000000                              000                           
0010001300007T 020180230000002544776 29647040611317060   7               31032017000000000006000001000132                         0900000000000010000000000000000000000000000000000000000   0000000000000000000000000A9        170192964704     
0010001300008U 020000000000000000000000000000000000000000000000000000000000000000000000000000000000000000000000000000000000000000000000002903201700000000            000000000000000                              000                           
0010001300009T 020180230000002544776 29647040621718588   7               31032017000000000006000001016179                         0900000000000010000000000000000000000000000000000000000   0000000000000000000000000A9        170192964704     
0010001300010U 020000000000000000000000000000000000000000000000000000000000000000000000000000000000000000000000000000000000000000000000002903201700000000            000000000000000                              000                           
0010001300011T 020180230000002544776 29647040623416336   7               31032017000000000006000001000132                         0900000000000010000000000000000000000000000000000000000   0000000000000000000000000A9        170192964704     
0010001300012U 020000000000000000000000000000000000000000000000000000000000000000000000000000000000000000000000000000000000000000000000002903201700000000            000000000000000                              000                           
0010001300013T 020180230000002544776 29647040638137207   7               31032017000000000006000001000132                         0900000000000010000000000000000000000000000000000000000   0000000000000000000000000A9        170192964704     
0010001300014U 020000000000000000000000000000000000000000000000000000000000000000000000000000000000000000000000000000000000000000000000002903201700000000            000000000000000                              000                           
0010001300015T 020180230000002544776 29647040655049643   7               31032017000000000008000001000132                         0900000000000010000000000000000000000000000000000000000   0000000000000000000000000A9        170192964704     
0010001300016U 020000000000000000000000000000000000000000000000000000000000000000000000000000000000000000000000000000000000000000000000002903201700000000            000000000000000                              000                           
0010001300017T 020180230000002544776 29647040661131399   7               31032017000000000006000001000132                         0900000000000010000000000000000000000000000000000000000   0000000000000000000000000A9        170192964704     
0010001300018U 020000000000000000000000000000000000000000000000000000000000000000000000000000000000000000000000000000000000000000000000002903201700000000            000000000000000                              000                           
0010001300019T 020180230000002544776 29647040680733638   7               31032017000000000006000001007595                         0900000000000010000000000000000000000000000000000000000   0000000000000000000000000A9        170192964704     
0010001300020U 020000000000000000000000000000000000000000000000000000000000000000000000000000000000000000000000000000000000000000000000002903201700000000            000000000000000                              000                           
0010001300021T 020180230000002544776 29647040680753915   7               31032017000000000006000001007595                         0900000000000010000000000000000000000000000000000000000   0000000000000000000000000A9        170192964704     
0010001300022U 020000000000000000000000000000000000000000000000000000000000000000000000000000000000000000000000000000000000000000000000002903201700000000            000000000000000                              000                           
0010001300023T 020180230000002544776 29647040696816146   7               31032017000000000006000001016489                         0900000000000010000000000000000000000000000000000000000   0000000000000000000000000A9        170192964704     
0010001300024U 020000000000000000000000000000000000000000000000000000000000000000000000000000000000000000000000000000000000000000000000002903201700000000            000000000000000                              000                           
0010001300025T 020180230000002544776 29647040696856946   7               31032017000000000006000001016489                         0900000000000010000000000000000000000000000000000000000   0000000000000000000000000A9        170192964704     
0010001300026U 020000000000000000000000000000000000000000000000000000000000000000000000000000000000000000000000000000000000000000000000002903201700000000            000000000000000                              000                           
0010001300027T 020180230000002544776 29647040702843176   7               31032017000000000006000001035033                         0900000000000010000000000000000000000000000000000000000   0000000000000000000000000A9        170192964704     
0010001300028U 020000000000000000000000000000000000000000000000000000000000000000000000000000000000000000000000000000000000000000000000002903201700000000            000000000000000                              000                           
0010001300029T 020180230000002544776 29647040703825965   7               31032017000000000006000001018376                         0900000000000010000000000000000000000000000000000000000   0000000000000000000000000A9        170192964704     
0010001300030U 020000000000000000000000000000000000000000000000000000000000000000000000000000000000000000000000000000000000000000000000002903201700000000            000000000000000                              000                           
0010001300031T 020180230000002544776 29647040703842046   7               31032017000000000006000001018376                         0900000000000010000000000000000000000000000000000000000   0000000000000000000000000A9        170192964704     
0010001300032U 020000000000000000000000000000000000000000000000000000000000000000000000000000000000000000000000000000000000000000000000002903201700000000            000000000000000                              000                           
0010001300033T 020180230000002544776 29647040726052240   7               31032017000000000006000001007218                         0900000000000010000000000000000000000000000000000000000   0000000000000000000000000A9        170192964704     
0010001300034U 020000000000000000000000000000000000000000000000000000000000000000000000000000000000000000000000000000000000000000000000002903201700000000            000000000000000                              000                           
0010001300035T 020180230000002544776 29647040726055305   7               31032017000000000006000001007218                         0900000000000010000000000000000000000000000000000000000   0000000000000000000000000A9        170192964704     
0010001300036U 020000000000000000000000000000000000000000000000000000000000000000000000000000000000000000000000000000000000000000000000002903201700000000            000000000000000                              000                           
0010001300037T 020180230000002544776 29647040747108599   7               3103201700000000000600000101169X                         0900000000000010000000000000000000000000000000000000000   0000000000000000000000000A9        170192964704     
0010001300038U 020000000000000000000000000000000000000000000000000000000000000000000000000000000000000000000000000000000000000000000000002903201700000000            000000000000000                              000                           
0010001300039T 020180230000002544776 29647040797205331   7               31032017000000000006000001035041                         0900000000000010000000000000000000000000000000000000000   0000000000000000000000000A9        170192964704     
0010001300040U 020000000000000000000000000000000000000000000000000000000000000000000000000000000000000000000000000000000000000000000000002903201700000000            000000000000000                              000                           
0010001300041T 020180230000002544776 29647040800907326   7               31032017000000000006000001000132                         0900000000000010000000000000000000000000000000000000000   0000000000000000000000000A9        170192964704     
0010001300042U 020000000000000000000000000000000000000000000000000000000000000000000000000000000000000000000000000000000000000000000000002903201700000000            000000000000000                              000                           
0010001300043T 020180230000002544776 29647040802909076   7               31032017000000000006000001016179                         0900000000000010000000000000000000000000000000000000000   0000000000000000000000000A9        170192964704     
0010001300044U 020000000000000000000000000000000000000000000000000000000000000000000000000000000000000000000000000000000000000000000000002903201700000000            000000000000000                              000                           
0010001300045T 020180230000002544776 29647040837709202   7               31032017000000000006000001016179                         0900000000000010000000000000000000000000000000000000000   0000000000000000000000000A9        170192964704     
0010001300046U 020000000000000000000000000000000000000000000000000000000000000000000000000000000000000000000000000000000000000000000000002903201700000000            000000000000000                              000                           
0010001300047T 020180230000002544776 29647040844639873   7               31032017000000000006000001028029                         0900000000000010000000000000000000000000000000000000000   0000000000000000000000000A9        170192964704     
0010001300048U 020000000000000000000000000000000000000000000000000000000000000000000000000000000000000000000000000000000000000000000000002903201700000000            000000000000000                              000                           
0010001300049T 020180230000002544776 29647040847319482   7               31032017000000000006000001000132                         0900000000000010000000000000000000000000000000000000000   0000000000000000000000000A9        170192964704     
0010001300050U 020000000000000000000000000000000000000000000000000000000000000000000000000000000000000000000000000000000000000000000000002903201700000000            000000000000000                              000                           
0010001300051T 020180230000002544776 29647040847344113   7               31032017000000000006000001000132                         0900000000000010000000000000000000000000000000000000000   0000000000000000000000000A9        170192964704     
0010001300052U 020000000000000000000000000000000000000000000000000000000000000000000000000000000000000000000000000000000000000000000000002903201700000000            000000000000000                              000                           
0010001300053T 020180230000002544776 29647040894603754   7               31032017000000000006000001016179                         0900000000000010000000000000000000000000000000000000000   0000000000000000000000000A9        170192964704     
0010001300054U 020000000000000000000000000000000000000000000000000000000000000000000000000000000000000000000000000000000000000000000000002903201700000000            000000000000000                              000                           
0010001300055T 020180230000002544776 29647040894613283   7               31032017000000000006000001016179                         0900000000000010000000000000000000000000000000000000000   0000000000000000000000000A9        170192964704     
0010001300056U 020000000000000000000000000000000000000000000000000000000000000000000000000000000000000000000000000000000000000000000000002903201700000000            000000000000000                              000                           
0010001300057T 020180230000002544776 29647040894631377   7               31032017000000000006000001016179                         0900000000000010000000000000000000000000000000000000000   0000000000000000000000000A9        170192964704     
0010001300058U 020000000000000000000000000000000000000000000000000000000000000000000000000000000000000000000000000000000000000000000000002903201700000000            000000000000000                              000                           
0010001300059T 020180230000002544776 29647040951727555   7               31032017000000000006000001018376                         0900000000000010000000000000000000000000000000000000000   0000000000000000000000000A9        170192964704     
0010001300060U 020000000000000000000000000000000000000000000000000000000000000000000000000000000000000000000000000000000000000000000000002903201700000000            000000000000000                              000                           
0010001300061T 020180230000002544776 29647040957534490   7               31032017000000000006000001018376                         0900000000000010000000000000000000000000000000000000000   0000000000000000000000000A9        170192964704     
0010001300062U 020000000000000000000000000000000000000000000000000000000000000000000000000000000000000000000000000000000000000000000000002903201700000000            000000000000000                              000                           
0010001300063T 020180230000002544776 29647040962125455   7               31032017000000000006000001012467                         0900000000000010000000000000000000000000000000000000000   0000000000000000000000000A9        170192964704     
0010001300064U 020000000000000000000000000000000000000000000000000000000000000000000000000000000000000000000000000000000000000000000000002903201700000000            000000000000000                              000                           
0010001300065T 020180230000002544776 29647040984622883   7               31032017000000000006000001007595                         0900000000000010000000000000000000000000000000000000000   0000000000000000000000000A9        170192964704     
0010001300066U 020000000000000000000000000000000000000000000000000000000000000000000000000000000000000000000000000000000000000000000000002903201700000000            000000000000000                              000                           
0010001300067T 020180230000002544776 29647040991200979   7               31032017000000000006000001033316                         0900000000000010000000000000000000000000000000000000000   0000000000000000000000000A9        170192964704     
0010001300068U 020000000000000000000000000000000000000000000000000000000000000000000000000000000000000000000000000000000000000000000000002903201700000000            000000000000000                              000                           
0010001300069T 020180230000002544776 29647041003151157   7               31032017000000000006000001000132                         0900000000000010500000000000000000000000000000000000000   0000000000000000000000000A9A4      170192964704     
0010001300070U 020000000000000000000000000000000000000000000000000000000000000000000000000000000000000000000000000000000000000000000000002903201700000000            000000000000000                              000                           
0010001300071T 020180230000002544776 29647041085101426   7               31032017000000000008000001008249                         0900000000000010000000000000000000000000000000000000000   0000000000000000000000000A9        170192964704     
0010001300072U 020000000000000000000000000000000000000000000000000000000000000000000000000000000000000000000000000000000000000000000000002903201700000000            000000000000000                              000                           
0010001300073T 020180230000002544776 29647041085109692   7               31032017000000000008000001008249                         0900000000000010000000000000000000000000000000000000000   0000000000000000000000000A9        170192964704     
0010001300074U 020000000000000000000000000000000000000000000000000000000000000000000000000000000000000000000000000000000000000000000000002903201700000000            000000000000000                              000                           
0010001300075T 020180230000002544776 29647041085117299   7               31032017000000000008000001008249                         0900000000000010000000000000000000000000000000000000000   0000000000000000000000000A9        170192964704     
0010001300076U 020000000000000000000000000000000000000000000000000000000000000000000000000000000000000000000000000000000000000000000000002903201700000000            000000000000000                              000                           
0010001300077T 020180230000002544776 29647041100814546   7               31032017000000000006000001008214                         0900000000000010000000000000000000000000000000000000000   0000000000000000000000000A9        170192964704     
0010001300078U 020000000000000000000000000000000000000000000000000000000000000000000000000000000000000000000000000000000000000000000000002903201700000000            000000000000000                              000                           
0010001300079T 020180230000002544776 29647041103249290   7               31032017000000000006000001013617                         0900000000000010000000000000000000000000000000000000000   0000000000000000000000000A9        170192964704     
0010001300080U 020000000000000000000000000000000000000000000000000000000000000000000000000000000000000000000000000000000000000000000000002903201700000000            000000000000000                              000                           
0010001300081T 020180230000002544776 29647041113237322   7               31032017000000000006000001016179                         0900000000000010000000000000000000000000000000000000000   0000000000000000000000000A9        170192964704     
0010001300082U 020000000000000000000000000000000000000000000000000000000000000000000000000000000000000000000000000000000000000000000000002903201700000000            000000000000000                              000                           
0010001300083T 020180230000002544776 29647041115247938   7               31032017000000000008000001013692                         0900000000000010000000000000000000000000000000000000000   0000000000000000000000000A9        170192964704     
0010001300084U 020000000000000000000000000000000000000000000000000000000000000000000000000000000000000000000000000000000000000000000000002903201700000000            000000000000000                              000                           
0010001300085T 020180230000002544776 29647041125711687   7               31032017000000000006000001020354                         0900000000000010000000000000000000000000000000000000000   0000000000000000000000000A9        170192964704     
0010001300086U 020000000000000000000000000000000000000000000000000000000000000000000000000000000000000000000000000000000000000000000000002903201700000000            000000000000000                              000                           
0010001300087T 020180230000002544776 29647041125730621   7               31032017000000000006000001020354                         0900000000000010000000000000000000000000000000000000000   0000000000000000000000000A9        170192964704     
0010001300088U 020000000000000000000000000000000000000000000000000000000000000000000000000000000000000000000000000000000000000000000000002903201700000000            000000000000000                              000                           
0010001300089T 020180230000002544776 29647041146524440   7               31032017000000000006000001002003                         0900000000000010000000000000000000000000000000000000000   0000000000000000000000000A9        170192964704     
0010001300090U 020000000000000000000000000000000000000000000000000000000000000000000000000000000000000000000000000000000000000000000000002903201700000000            000000000000000                              000                           
0010001300091T 020180230000002544776 29647041216129368   7               31032017000000000006000001016179                         0900000000000010000000000000000000000000000000000000000   0000000000000000000000000A9        170192964704     
0010001300092U 020000000000000000000000000000000000000000000000000000000000000000000000000000000000000000000000000000000000000000000000002903201700000000            000000000000000                              000                           
0010001300093T 020180230000002544776 29647041266033424   7               31032017000000000006000001011444                         0900000000000010000000000000000000000000000000000000000   0000000000000000000000000A9        170192964704     
0010001300094U 020000000000000000000000000000000000000000000000000000000000000000000000000000000000000000000000000000000000000000000000002903201700000000            000000000000000                              000                           
0010001300095T 020180230000002544776 29647041269445258   7               31032017000000000006000001012467                         0900000000000010000000000000000000000000000000000000000   0000000000000000000000000A9        170192964704     
0010001300096U 020000000000000000000000000000000000000000000000000000000000000000000000000000000000000000000000000000000000000000000000002903201700000000            000000000000000                              000                           
0010001300097T 020180230000002544776 29647041272940393   7               31032017000000000006000001000132                         0900000000000010000000000000000000000000000000000000000   0000000000000000000000000A9        170192964704     
0010001300098U 020000000000000000000000000000000000000000000000000000000000000000000000000000000000000000000000000000000000000000000000002903201700000000            000000000000000                              000                           
0010001300099T 020180230000002544776 29647041275310209   7               31032017000000000006000001023655                         0900000000000010000000000000000000000000000000000000000   0000000000000000000000000A9        170192964704     
0010001300100U 020000000000000000000000000000000000000000000000000000000000000000000000000000000000000000000000000000000000000000000000002903201700000000            000000000000000                              000                           
0010001300101T 020180230000002544776 29647041281056893   7               31032017000000000008000001028495                         0900000000000010000000000000000000000000000000000000000   0000000000000000000000000A9        170192964704     
0010001300102U 020000000000000000000000000000000000000000000000000000000000000000000000000000000000000000000000000000000000000000000000002903201700000000            000000000000000                              000                           
0010001300103T 020180230000002544776 29647041293003768   7               31032017000000000006000001007307                         0900000000000010000000000000000000000000000000000000000   0000000000000000000000000A9        170192964704     
0010001300104U 020000000000000000000000000000000000000000000000000000000000000000000000000000000000000000000000000000000000000000000000002903201700000000            000000000000000                              000                           
0010001300105T 020180230000002544776 29647041293045890   7               31032017000000000006000001007307                         0900000000000010000000000000000000000000000000000000000   0000000000000000000000000A9        170192964704     
0010001300106U 020000000000000000000000000000000000000000000000000000000000000000000000000000000000000000000000000000000000000000000000002903201700000000            000000000000000                              000                           
0010001300107T 020180230000002544776 29647041327409453   7               31032017000000000006000001000132                         0900000000000010000000000000000000000000000000000000000   0000000000000000000000000A9        170192964704     
0010001300108U 020000000000000000000000000000000000000000000000000000000000000000000000000000000000000000000000000000000000000000000000002903201700000000            000000000000000                              000                           
0010001300109T 020180230000002544776 29647041330316934   7               31032017000000000006000001033316                         0900000000000010000000000000000000000000000000000000000   0000000000000000000000000A9        170192964704     
0010001300110U 020000000000000000000000000000000000000000000000000000000000000000000000000000000000000000000000000000000000000000000000002903201700000000            000000000000000                              000                           
0010001300111T 020180230000002544776 29647041348720872   7               31032017000000000006000001000132                         0900000000000010000000000000000000000000000000000000000   0000000000000000000000000A9        170192964704     
0010001300112U 020000000000000000000000000000000000000000000000000000000000000000000000000000000000000000000000000000000000000000000000002903201700000000            000000000000000                              000                           
0010001300113T 020180230000002544776 29647041358813285   7               31032017000000000006000001033316                         0900000000000010000000000000000000000000000000000000000   0000000000000000000000000A9        170192964704     
0010001300114U 020000000000000000000000000000000000000000000000000000000000000000000000000000000000000000000000000000000000000000000000002903201700000000            000000000000000                              000                           
0010001300115T 020180230000002544776 29647041377950453   7               31032017000000000008000001011398                         0900000000000010000000000000000000000000000000000000000   0000000000000000000000000A9        170192964704     
0010001300116U 020000000000000000000000000000000000000000000000000000000000000000000000000000000000000000000000000000000000000000000000002903201700000000            000000000000000                              000                           
0010001300117T 020180230000002544776 29647041378532298   7               31032017000000000006000001000132                         0900000000000010000000000000000000000000000000000000000   0000000000000000000000000A9        170192964704     
0010001300118U 020000000000000000000000000000000000000000000000000000000000000000000000000000000000000000000000000000000000000000000000002903201700000000            000000000000000                              000                           
0010001300119T 020180230000002544776 29647041394417233   7               3103201700000000000600000100233X                         0900000000000010000000000000000000000000000000000000000   0000000000000000000000000A9        170192964704     
0010001300120U 020000000000000000000000000000000000000000000000000000000000000000000000000000000000000000000000000000000000000000000000002903201700000000            000000000000000                              000                           
0010001300121T 020180230000002544776 29647041395534344   7               30032017000000000006000001000132                         0900000000000010000000000000000000000000000000000000000   0000000000000000000000000A9        170192964704     
0010001300122U 020000000000000000000000000000000000000000000000000000000000000000000000000000000000000000000000000000000000000000000000002803201700000000            000000000000000                              000                           
0010001300123T 020180230000002544776 29647041395612085   7               31032017000000000008000001028029                         0900000000000010000000000000000000000000000000000000000   0000000000000000000000000A9        170192964704     
0010001300124U 020000000000000000000000000000000000000000000000000000000000000000000000000000000000000000000000000000000000000000000000002903201700000000            000000000000000                              000                           
0010001300125T 020180230000002544776 29647041396559089   7               31032017000000000006000001013617                         0900000000000010500000000000000000000000000000000000000   0000000000000000000000000A9A4      170192964704     
0010001300126U 020000000000000000000000000000000000000000000000000000000000000000000000000000000000000000000000000000000000000000000000002903201700000000            000000000000000                              000                           
0010001300127T 020180230000002544776 29647041399958203   7               31032017000000000006000001026964                         0900000000000010000000000000000000000000000000000000000   0000000000000000000000000A9        170192964704     
0010001300128U 020000000000000000000000000000000000000000000000000000000000000000000000000000000000000000000000000000000000000000000000002903201700000000            000000000000000                              000                           
0010001300129T 020180230000002544776 29647041411307829   7               31032017000000000006000001016179                         0900000000000010000000000000000000000000000000000000000   0000000000000000000000000A9        170192964704     
0010001300130U 020000000000000000000000000000000000000000000000000000000000000000000000000000000000000000000000000000000000000000000000002903201700000000            000000000000000                              000                           
0010001300131T 020180230000002544776 29647041412400393   7               31032017000000000006000001003018                         0900000000000010500000000000000000000000000000000000000   0000000000000000000000000A9A4      170192964704     
0010001300132U 020000000000000000000000000000000000000000000000000000000000000000000000000000000000000000000000000000000000000000000000002903201700000000            000000000000000                              000                           
0010001300133T 020180230000002544776 29647041418933135   7               31032017000000000006000001018376                         0900000000000010000000000000000000000000000000000000000   0000000000000000000000000A9        170192964704     
0010001300134U 020000000000000000000000000000000000000000000000000000000000000000000000000000000000000000000000000000000000000000000000002903201700000000            000000000000000                              000                           
0010001300135T 020180230000002544776 29647041428128871   7               31032017000000000006000001028029                         0900000000000010000000000000000000000000000000000000000   0000000000000000000000000A9        170192964704     
0010001300136U 020000000000000000000000000000000000000000000000000000000000000000000000000000000000000000000000000000000000000000000000002903201700000000            000000000000000                              000                           
0010001300137T 020180230000002544776 29647041429947041   7               31032017000000000008000001032859                         0900000000000010000000000000000000000000000000000000000   0000000000000000000000000A9        170192964704     
0010001300138U 020000000000000000000000000000000000000000000000000000000000000000000000000000000000000000000000000000000000000000000000002903201700000000            000000000000000                              000                           
0010001300139T 020180230000002544776 29647041433909831   7               31032017000000000008000001000132                         0900000000000010000000000000000000000000000000000000000   0000000000000000000000000A9        170192964704     
0010001300140U 020000000000000000000000000000000000000000000000000000000000000000000000000000000000000000000000000000000000000000000000002903201700000000            000000000000000                              000                           
0010001300141T 020180230000002544776 29647041434936471   7               3103201700000000000800000104637X                         0900000000000010000000000000000000000000000000000000000   0000000000000000000000000A9        170192964704     
0010001300142U 020000000000000000000000000000000000000000000000000000000000000000000000000000000000000000000000000000000000000000000000002903201700000000            000000000000000                              000                           
0010001300143T 020180230000002544776 29647041434940114   7               3103201700000000000800000104637X                         0900000000000010000000000000000000000000000000000000000   0000000000000000000000000A9        170192964704     
0010001300144U 020000000000000000000000000000000000000000000000000000000000000000000000000000000000000000000000000000000000000000000000002903201700000000            000000000000000                              000                           
0010001300145T 020180230000002544776 29647041436237616   7               31032017000000000006000001018376                         0900000000000010500000000000000000000000000000000000000   0000000000000000000000000A9A4      170192964704     
0010001300146U 020000000000000000000000000000000000000000000000000000000000000000000000000000000000000000000000000000000000000000000000002903201700000000            000000000000000                              000                           
0010001300147T 020180230000002544776 29647041449224851   7               31032017000000000006000001028029                         0900000000000010000000000000000000000000000000000000000   0000000000000000000000000A9        170192964704     
0010001300148U 020000000000000000000000000000000000000000000000000000000000000000000000000000000000000000000000000000000000000000000000002903201700000000            000000000000000                              000                           
0010001300149T 020180230000002544776 29647041451147168   7               31032017000000000006000001008249                         0900000000000010000000000000000000000000000000000000000   0000000000000000000000000A9        170192964704     
0010001300150U 020000000000000000000000000000000000000000000000000000000000000000000000000000000000000000000000000000000000000000000000002903201700000000            000000000000000                              000                           
0010001300151T 020180230000002544776 29647041454151172   7               31032017000000000006000001018376                         0900000000000010000000000000000000000000000000000000000   0000000000000000000000000A9        170192964704     
0010001300152U 020000000000000000000000000000000000000000000000000000000000000000000000000000000000000000000000000000000000000000000000002903201700000000            000000000000000                              000                           
0010001300153T 020180230000002544776 29647041458005516   7               31032017000000000006000001005827                         0900000000000010000000000000000000000000000000000000000   0000000000000000000000000A9        170192964704     
0010001300154U 020000000000000000000000000000000000000000000000000000000000000000000000000000000000000000000000000000000000000000000000002903201700000000            000000000000000                              000                           
0010001300155T 020180230000002544776 29647041458031672   7               31032017000000000006000001005827                         0900000000000010000000000000000000000000000000000000000   0000000000000000000000000A9        170192964704     
0010001300156U 020000000000000000000000000000000000000000000000000000000000000000000000000000000000000000000000000000000000000000000000002903201700000000            000000000000000                              000                           
0010001300157T 020180230000002544776 29647041461548296   7               31032017000000000006000001002291                         0900000000000010000000000000000000000000000000000000000   0000000000000000000000000A9        170192964704     
0010001300158U 020000000000000000000000000000000000000000000000000000000000000000000000000000000000000000000000000000000000000000000000002903201700000000            000000000000000                              000                           
0010001300159T 020180230000002544776 29647041461902315   7               31032017000000000006000001016489                         0900000000000010000000000000000000000000000000000000000   0000000000000000000000000A9        170192964704     
0010001300160U 020000000000000000000000000000000000000000000000000000000000000000000000000000000000000000000000000000000000000000000000002903201700000000            000000000000000                              000                           
0010001300161T 020180230000002544776 29647041462727055   7               31032017000000000006000001008214                         0900000000000010000000000000000000000000000000000000000   0000000000000000000000000A9        170192964704     
0010001300162U 020000000000000000000000000000000000000000000000000000000000000000000000000000000000000000000000000000000000000000000000002903201700000000            000000000000000                              000                           
0010001300163T 020180230000002544776 29647041463036253   7               30032017000000000006000001025089                         0900000000000010000000000000000000000000000000000000000   0000000000000000000000000A9        170192964704     
0010001300164U 020000000000000000000000000000000000000000000000000000000000000000000000000000000000000000000000000000000000000000000000002803201700000000            000000000000000                              000                           
0010001300165T 020180230000002544776 29647041469342559   7               31032017000000000006000001001597                         0900000000000010000000000000000000000000000000000000000   0000000000000000000000000A9        170192964704     
0010001300166U 020000000000000000000000000000000000000000000000000000000000000000000000000000000000000000000000000000000000000000000000002903201700000000            000000000000000                              000                           
0010001300167T 020180230000002544776 29647041472126372   7               31032017000000000006000001007595                         0900000000000010000000000000000000000000000000000000000   0000000000000000000000000A9        170192964704     
0010001300168U 020000000000000000000000000000000000000000000000000000000000000000000000000000000000000000000000000000000000000000000000002903201700000000            000000000000000                              000                           
0010001300169T 020180230000002544776 29647041477033389   7               31032017000000000006000001000132                         0900000000000010000000000000000000000000000000000000000   0000000000000000000000000A9        170192964704     
0010001300170U 020000000000000000000000000000000000000000000000000000000000000000000000000000000000000000000000000000000000000000000000002903201700000000            000000000000000                              000                           
0010001300171T 020180230000002544776 29647041478127207   7               31032017000000000006000001022748                         0900000000000010000000000000000000000000000000000000000   0000000000000000000000000A9        170192964704     
0010001300172U 020000000000000000000000000000000000000000000000000000000000000000000000000000000000000000000000000000000000000000000000002903201700000000            000000000000000                              000                           
0010001300173T 020180230000002544776 29647041481035624   7               31032017000000000006000001005347                         0900000000000010000000000000000000000000000000000000000   0000000000000000000000000A9        170192964704     
0010001300174U 020000000000000000000000000000000000000000000000000000000000000000000000000000000000000000000000000000000000000000000000002903201700000000            000000000000000                              000                           
0010001300175T 020180230000002544776 29647041481039102   7               31032017000000000006000001005347                         0900000000000010000000000000000000000000000000000000000   0000000000000000000000000A9        170192964704     
0010001300176U 020000000000000000000000000000000000000000000000000000000000000000000000000000000000000000000000000000000000000000000000002903201700000000            000000000000000                              000                           
0010001300177T 020180230000002544776 29647041481040368   7               31032017000000000006000001005347                         0900000000000010000000000000000000000000000000000000000   0000000000000000000000000A9        170192964704     
0010001300178U 020000000000000000000000000000000000000000000000000000000000000000000000000000000000000000000000000000000000000000000000002903201700000000            000000000000000                              000                           
0010001300179T 020180230000002544776 29647041481051666   7               31032017000000000006000001005347                         0900000000000010000000000000000000000000000000000000000   0000000000000000000000000A9        170192964704     
0010001300180U 020000000000000000000000000000000000000000000000000000000000000000000000000000000000000000000000000000000000000000000000002903201700000000            000000000000000                              000                           
0010001300181T 020180230000002544776 29647041481053992   7               31032017000000000006000001005347                         0900000000000010000000000000000000000000000000000000000   0000000000000000000000000A9        170192964704     
0010001300182U 020000000000000000000000000000000000000000000000000000000000000000000000000000000000000000000000000000000000000000000000002903201700000000            000000000000000                              000                           
0010001300183T 020180230000002544776 29647041481055863   7               31032017000000000006000001005347                         0900000000000010000000000000000000000000000000000000000   0000000000000000000000000A9        170192964704     
0010001300184U 020000000000000000000000000000000000000000000000000000000000000000000000000000000000000000000000000000000000000000000000002903201700000000            000000000000000                              000                           
0010001300185T 020180230000002544776 29647041485348470   7               31032017000000000006000001012467                         0900000000000010000000000000000000000000000000000000000   0000000000000000000000000A9        170192964704     
0010001300186U 020000000000000000000000000000000000000000000000000000000000000000000000000000000000000000000000000000000000000000000000002903201700000000            000000000000000                              000                           
0010001300187T 020180230000002544776 29647041486203157   7               31032017000000000008000001028029                         0900000000000010000000000000000000000000000000000000000   0000000000000000000000000A9        170192964704     
0010001300188U 020000000000000000000000000000000000000000000000000000000000000000000000000000000000000000000000000000000000000000000000002903201700000000            000000000000000                              000                           
0010001300189T 020180230000002544776 29647041486208306   7               31032017000000000008000001028029                         0900000000000010000000000000000000000000000000000000000   0000000000000000000000000A9        170192964704     
0010001300190U 020000000000000000000000000000000000000000000000000000000000000000000000000000000000000000000000000000000000000000000000002903201700000000            000000000000000                              000                           
0010001300191T 020180230000002544776 29647041488910927   7               31032017000000000008000001028029                         0900000000000010000000000000000000000000000000000000000   0000000000000000000000000A9        170192964704     
0010001300192U 020000000000000000000000000000000000000000000000000000000000000000000000000000000000000000000000000000000000000000000000002903201700000000            000000000000000                              000                           
0010001300193T 020180230000002544776 29647041497050369   7               31032017000000000008000001006378                         0900000000000010000000000000000000000000000000000000000   0000000000000000000000000A9        170192964704     
0010001300194U 020000000000000000000000000000000000000000000000000000000000000000000000000000000000000000000000000000000000000000000000002903201700000000            000000000000000                              000                           
0010001300195T 020180230000002544776 29647041497846323   7               3003201700000000000800000100264X                         0900000000000010000000000000000000000000000000000000000   0000000000000000000000000A9        170192964704     
0010001300196U 020000000000000000000000000000000000000000000000000000000000000000000000000000000000000000000000000000000000000000000000002803201700000000            000000000000000                              000                           
0010001300197T 020180230000002544776 29647041497903673   7               30032017000000000006000001033316                         0900000000000010000000000000000000000000000000000000000   0000000000000000000000000A9        170192964704     
0010001300198U 020000000000000000000000000000000000000000000000000000000000000000000000000000000000000000000000000000000000000000000000002803201700000000            000000000000000                              000                           
0010001300199T 020180230000002544776 29647041498039606   7               30032017000000000006000001028029                         0900000000000010000000000000000000000000000000000000000   0000000000000000000000000A9        170192964704     
0010001300200U 020000000000000000000000000000000000000000000000000000000000000000000000000000000000000000000000000000000000000000000000002803201700000000            000000000000000                              000                           
0010001300201T 020180230000002544776 29647041498112745   7               30032017000000000006000001033316                         0900000000000010000000000000000000000000000000000000000   0000000000000000000000000A9        170192964704     
0010001300202U 020000000000000000000000000000000000000000000000000000000000000000000000000000000000000000000000000000000000000000000000002803201700000000            000000000000000                              000                           
0010001300203T 020180230000002544776 29647041498336216   7               30032017000000000006000001012467                         0900000000000010000000000000000000000000000000000000000   0000000000000000000000000A9        170192964704     
0010001300204U 020000000000000000000000000000000000000000000000000000000000000000000000000000000000000000000000000000000000000000000000002803201700000000            000000000000000                              000                           
0010001300205T 020180230000002544776 29647041498455300   7               30032017000000000008000001000132                         0900000000000010000000000000000000000000000000000000000   0000000000000000000000000A9        170192964704     
0010001300206U 020000000000000000000000000000000000000000000000000000000000000000000000000000000000000000000000000000000000000000000000002803201700000000            000000000000000                              000                           
0010001300207T 020180230000002544776 29647041498456694   7               30032017000000000008000001000132                         0900000000000010000000000000000000000000000000000000000   0000000000000000000000000A9        170192964704     
0010001300208U 020000000000000000000000000000000000000000000000000000000000000000000000000000000000000000000000000000000000000000000000002803201700000000            000000000000000                              000                           
0010001300209T 020180230000002544776 29647041498550902   7               30032017000000000006000001028029                         0900000000000010000000000000000000000000000000000000000   0000000000000000000000000A9        170192964704     
0010001300210U 020000000000000000000000000000000000000000000000000000000000000000000000000000000000000000000000000000000000000000000000002803201700000000            000000000000000                              000                           
0010001300211T 020180230000002544776 29647041498609305   7               31032017000000000006000001008214                         0900000000000010000000000000000000000000000000000000000   0000000000000000000000000A9        170192964704     
0010001300212U 020000000000000000000000000000000000000000000000000000000000000000000000000000000000000000000000000000000000000000000000002903201700000000            000000000000000                              000                           
0010001300213T 020180230000002544776 29647041498810385   7               31032017000000000006000001000132                         0900000000000010000000000000000000000000000000000000000   0000000000000000000000000A9        170192964704     
0010001300214U 020000000000000000000000000000000000000000000000000000000000000000000000000000000000000000000000000000000000000000000000002903201700000000            000000000000000                              000                           
0010001300215T 020180230000002544776 29647041499110103   7               31032017000000000008000001012467                         0900000000000010000000000000000000000000000000000000000   0000000000000000000000000A9        170192964704     
0010001300216U 020000000000000000000000000000000000000000000000000000000000000000000000000000000000000000000000000000000000000000000000002903201700000000            000000000000000                              000                           
0010001300217T 020180230000002544776 29647041499229552   7               31032017000000000006000001018376                         0900000000000010000000000000000000000000000000000000000   0000000000000000000000000A9        170192964704     
0010001300218U 020000000000000000000000000000000000000000000000000000000000000000000000000000000000000000000000000000000000000000000000002903201700000000            000000000000000                              000                           
0010001300219T 020180230000002544776 29647041499454399   7               31032017000000000006000001013617                         0900000000000010000000000000000000000000000000000000000   0000000000000000000000000A9        170192964704     
0010001300220U 020000000000000000000000000000000000000000000000000000000000000000000000000000000000000000000000000000000000000000000000002903201700000000            000000000000000                              000                           
0010001300221T 020180230000002544776 29647041499511888   7               31032017000000000006000001000132                         0900000000000010000000000000000000000000000000000000000   0000000000000000000000000A9        170192964704     
0010001300222U 020000000000000000000000000000000000000000000000000000000000000000000000000000000000000000000000000000000000000000000000002903201700000000            000000000000000                              000                           
0010001300223T 020180230000002544776 29647041499652636   7               31032017000000000006000001023655                         0900000000000010000000000000000000000000000000000000000   0000000000000000000000000A9        170192964704     
0010001300224U 020000000000000000000000000000000000000000000000000000000000000000000000000000000000000000000000000000000000000000000000002903201700000000            000000000000000                              000                           
0010001300225T 020180230000002544776 29647041499739807   7               3103201700000000000600000102371X                         0900000000000010000000000000000000000000000000000000000   0000000000000000000000000A9        170192964704     
0010001300226U 020000000000000000000000000000000000000000000000000000000000000000000000000000000000000000000000000000000000000000000000002903201700000000            000000000000000                              000                           
0010001300227T 020180230000002544776 29647041499800875   7               31032017000000000006000001028029                         0900000000000010000000000000000000000000000000000000000   0000000000000000000000000A9        170192964704     
0010001300228U 020000000000000000000000000000000000000000000000000000000000000000000000000000000000000000000000000000000000000000000000002903201700000000            000000000000000                              000                           
0010001300229T 020180230000002544776 29647041499848842   7               31032017000000000006000001028029                         0900000000000010000000000000000000000000000000000000000   0000000000000000000000000A9        170192964704     
0010001300230U 020000000000000000000000000000000000000000000000000000000000000000000000000000000000000000000000000000000000000000000000002903201700000000            000000000000000                              000                           
0010001300231T 020180230000002544776 29647041499948114   7               31032017000000000006000001012467                         0900000000000010000000000000000000000000000000000000000   0000000000000000000000000A9        170192964704     
0010001300232U 020000000000000000000000000000000000000000000000000000000000000000000000000000000000000000000000000000000000000000000000002903201700000000            000000000000000                              000                           
0010001300233T 020180230000002544776 29647041500109774   7               31032017000000000006000001028029                         0900000000000010000000000000000000000000000000000000000   0000000000000000000000000A9        170192964704     
0010001300234U 020000000000000000000000000000000000000000000000000000000000000000000000000000000000000000000000000000000000000000000000002903201700000000            000000000000000                              000                           
0010001300235T 020180230000002544776 29647041500419593   7               31032017000000000006000001009849                         0900000000000010000000000000000000000000000000000000000   0000000000000000000000000A9        170192964704     
0010001300236U 020000000000000000000000000000000000000000000000000000000000000000000000000000000000000000000000000000000000000000000000002903201700000000            000000000000000                              000                           
0010001300237T 020180230000002544776 29647041500531107   7               31032017000000000006000001014028                         0900000000000010000000000000000000000000000000000000000   0000000000000000000000000A9        170192964704     
0010001300238U 020000000000000000000000000000000000000000000000000000000000000000000000000000000000000000000000000000000000000000000000002903201700000000            000000000000000                              000                           
0010001300239T 020180230000002544776 29647041500636043   7               31032017000000000008000001016179                         0900000000000010000000000000000000000000000000000000000   0000000000000000000000000A9        170192964704     
0010001300240U 020000000000000000000000000000000000000000000000000000000000000000000000000000000000000000000000000000000000000000000000002903201700000000            000000000000000                              000                           
0010001300241T 020180230000002544776 29647041500642262   7               31032017000000000008000001016179                         0900000000000010000000000000000000000000000000000000000   0000000000000000000000000A9        170192964704     
0010001300242U 020000000000000000000000000000000000000000000000000000000000000000000000000000000000000000000000000000000000000000000000002903201700000000            000000000000000                              000                           
0010001300243T 020180230000002544776 29647041500646157   7               31032017000000000008000001016179                         0900000000000010000000000000000000000000000000000000000   0000000000000000000000000A9        170192964704     
0010001300244U 020000000000000000000000000000000000000000000000000000000000000000000000000000000000000000000000000000000000000000000000002903201700000000            000000000000000                              000                           
0010001300245T 020180230000002544776 29647041500650336   7               31032017000000000008000001016179                         0900000000000010000000000000000000000000000000000000000   0000000000000000000000000A9        170192964704     
0010001300246U 020000000000000000000000000000000000000000000000000000000000000000000000000000000000000000000000000000000000000000000000002903201700000000            000000000000000                              000                           
0010001300247T 020180230000002544776 29647041500657216   7               31032017000000000008000001016179                         0900000000000010000000000000000000000000000000000000000   0000000000000000000000000A9        170192964704     
0010001300248U 020000000000000000000000000000000000000000000000000000000000000000000000000000000000000000000000000000000000000000000000002903201700000000            000000000000000                              000                           
0010001300249T 020180230000002544776 29647041500702773   7               31032017000000000006000001010588                         0900000000000010000000000000000000000000000000000000000   0000000000000000000000000A9        170192964704     
0010001300250U 020000000000000000000000000000000000000000000000000000000000000000000000000000000000000000000000000000000000000000000000002903201700000000            000000000000000                              000                           
0010001300251T 020180230000002544776 29647041500843799   7               31032017000000000008000001010545                         0900000000000010000000000000000000000000000000000000000   0000000000000000000000000A9        170192964704     
0010001300252U 020000000000000000000000000000000000000000000000000000000000000000000000000000000000000000000000000000000000000000000000002903201700000000            000000000000000                              000                           
0010001300253T 020180230000002544776 29647041500908497   7               31032017000000000006000001016179                         0900000000000010000000000000000000000000000000000000000   0000000000000000000000000A9        170192964704     
0010001300254U 020000000000000000000000000000000000000000000000000000000000000000000000000000000000000000000000000000000000000000000000002903201700000000            000000000000000                              000                           
0010001300255T 020180230000002544776 29647041501041597   7               31032017000000000006000001003018                         0900000000000010500000000000000000000000000000000000000   0000000000000000000000000A9A4      170192964704     
0010001300256U 020000000000000000000000000000000000000000000000000000000000000000000000000000000000000000000000000000000000000000000000002903201700000000            000000000000000                              000                           
0010001300257T 020180230000002544776 29647041501343243   7               31032017000000000006000001000132                         0900000000000010000000000000000000000000000000000000000   0000000000000000000000000A9        170192964704     
0010001300258U 020000000000000000000000000000000000000000000000000000000000000000000000000000000000000000000000000000000000000000000000002903201700000000            000000000000000                              000                           
0010001300259T 020180230000002544776 29647041501404936   7               31032017000000000006000001000132                         0900000000000010000000000000000000000000000000000000000   0000000000000000000000000A9        170192964704     
0010001300260U 020000000000000000000000000000000000000000000000000000000000000000000000000000000000000000000000000000000000000000000000002903201700000000            000000000000000                              000                           
0010001300261T 020180230000002544776 29647041501423820   7               31032017000000000006000001000132                         0900000000000010000000000000000000000000000000000000000   0000000000000000000000000A9        170192964704     
0010001300262U 020000000000000000000000000000000000000000000000000000000000000000000000000000000000000000000000000000000000000000000000002903201700000000            000000000000000                              000                           
0010001300263T 020180230000002544776 29647041501459212   7               31032017000000000006000001000132                         0900000000000010000000000000000000000000000000000000000   0000000000000000000000000A9        170192964704     
0010001300264U 020000000000000000000000000000000000000000000000000000000000000000000000000000000000000000000000000000000000000000000000002903201700000000            000000000000000                              000                           
0010001300265T 020180230000002544776 29647041501502314   7               31032017000000000006000001000132                         0900000000000010000000000000000000000000000000000000000   0000000000000000000000000A9        170192964704     
0010001300266U 020000000000000000000000000000000000000000000000000000000000000000000000000000000000000000000000000000000000000000000000002903201700000000            000000000000000                              000                           
0010001300267T 020180230000002544776 29647041501627430   7               31032017000000000006000001028029                         0900000000000010000000000000000000000000000000000000000   0000000000000000000000000A9        170192964704     
0010001300268U 020000000000000000000000000000000000000000000000000000000000000000000000000000000000000000000000000000000000000000000000002903201700000000            000000000000000                              000                           
0010001300269T 020180230000002544776 29647041501731449   7               31032017000000000006000001016179                         0900000000000010000000000000000000000000000000000000000   0000000000000000000000000A9        170192964704     
0010001300270U 020000000000000000000000000000000000000000000000000000000000000000000000000000000000000000000000000000000000000000000000002903201700000000            000000000000000                              000                           
0010001300271T 020180230000002544776 29647041501754127   7               31032017000000000006000001016179                         0900000000000010000000000000000000000000000000000000000   0000000000000000000000000A9        170192964704     
0010001300272U 020000000000000000000000000000000000000000000000000000000000000000000000000000000000000000000000000000000000000000000000002903201700000000            000000000000000                              000                           
0010001300273T 020180230000002544776 29647041501838940   7               31032017000000000006000001023655                         0900000000000010000000000000000000000000000000000000000   0000000000000000000000000A9        170192964704     
0010001300274U 020000000000000000000000000000000000000000000000000000000000000000000000000000000000000000000000000000000000000000000000002903201700000000            000000000000000                              000                           
0010001300275T 020180230000002544776 29647041501919697   7               31032017000000000006000001028029                         0900000000000010000000000000000000000000000000000000000   0000000000000000000000000A9        170192964704     
0010001300276U 020000000000000000000000000000000000000000000000000000000000000000000000000000000000000000000000000000000000000000000000002903201700000000            000000000000000                              000                           
0010001300277T 020180230000002544776 29647041502035892   7               3103201700000000000600000101088X                         0900000000000010000000000000000000000000000000000000000   0000000000000000000000000A9        170192964704     
0010001300278U 020000000000000000000000000000000000000000000000000000000000000000000000000000000000000000000000000000000000000000000000002903201700000000            000000000000000                              000                           
0010001300279T 020180230000002544776 29647041502126215   7               3103201700000000000600000101138X                         0900000000000010000000000000000000000000000000000000000   0000000000000000000000000A9        170192964704     
0010001300280U 020000000000000000000000000000000000000000000000000000000000000000000000000000000000000000000000000000000000000000000000002903201700000000            000000000000000                              000                           
0010001300281T 020180230000002544776 29647041502136600   7               3103201700000000000600000101138X                         0900000000000010000000000000000000000000000000000000000   0000000000000000000000000A9        170192964704     
0010001300282U 020000000000000000000000000000000000000000000000000000000000000000000000000000000000000000000000000000000000000000000000002903201700000000            000000000000000                              000                           
0010001300283T 020180230000002544776 29647041502148462   7               3103201700000000000600000101138X                         0900000000000010000000000000000000000000000000000000000   0000000000000000000000000A9        170192964704     
0010001300284U 020000000000000000000000000000000000000000000000000000000000000000000000000000000000000000000000000000000000000000000000002903201700000000            000000000000000                              000                           
0010001300285T 020180230000002544776 29647041502220519   7               31032017000000000006000001016179                         0900000000000010000000000000000000000000000000000000000   0000000000000000000000000A9        170192964704     
0010001300286U 020000000000000000000000000000000000000000000000000000000000000000000000000000000000000000000000000000000000000000000000002903201700000000            000000000000000                              000                           
0010001300287T 020180230000002544776 29647041502342128   7               31032017000000000006000001012467                         0900000000000010000000000000000000000000000000000000000   0000000000000000000000000A9        170192964704     
0010001300288U 020000000000000000000000000000000000000000000000000000000000000000000000000000000000000000000000000000000000000000000000002903201700000000            000000000000000                              000                           
0010001300289T 020180230000002544776 29647041502408518   7               3103201700000000000600000100233X                         0900000000000010000000000000000000000000000000000000000   0000000000000000000000000A9        170192964704     
0010001300290U 020000000000000000000000000000000000000000000000000000000000000000000000000000000000000000000000000000000000000000000000002903201700000000            000000000000000                              000                           
0010001300291T 020180230000002544776 29647041502623799   7               3103201700000000000600000101981X                         0900000000000010000000000000000000000000000000000000000   0000000000000000000000000A9        170192964704     
0010001300292U 020000000000000000000000000000000000000000000000000000000000000000000000000000000000000000000000000000000000000000000000002903201700000000            000000000000000                              000                           
0010001300293T 020180230000002544776 29647041502854410   7               31032017000000000006000001028029                         0900000000000010000000000000000000000000000000000000000   0000000000000000000000000A9        170192964704     
0010001300294U 020000000000000000000000000000000000000000000000000000000000000000000000000000000000000000000000000000000000000000000000002903201700000000            000000000000000                              000                           
0010001300295T 020180230000002544776 29647041502929941   7               31032017000000000008000001028029                         0900000000000010000000000000000000000000000000000000000   0000000000000000000000000A9        170192964704     
0010001300296U 020000000000000000000000000000000000000000000000000000000000000000000000000000000000000000000000000000000000000000000000002903201700000000            000000000000000                              000                           
0010001300297T 020180230000002544776 29647041503005759   7               3103201700000000000600000101981X                         0900000000000010000000000000000000000000000000000000000   0000000000000000000000000A9        170192964704     
0010001300298U 020000000000000000000000000000000000000000000000000000000000000000000000000000000000000000000000000000000000000000000000002903201700000000            000000000000000                              000                           
0010001300299T 020180230000002544776 29647041503030243   7               3103201700000000000600000101981X                         0900000000000010000000000000000000000000000000000000000   0000000000000000000000000A9        170192964704     
0010001300300U 020000000000000000000000000000000000000000000000000000000000000000000000000000000000000000000000000000000000000000000000002903201700000000            000000000000000                              000                           
0010001300301T 020180230000002544776 29647041503042202   7               3103201700000000000600000101981X                         0900000000000010000000000000000000000000000000000000000   0000000000000000000000000A9        170192964704     
0010001300302U 020000000000000000000000000000000000000000000000000000000000000000000000000000000000000000000000000000000000000000000000002903201700000000            000000000000000                              000                           
0010001300303T 020180230000002544776 29647041503101371   7               31032017000000000006000001008311                         0900000000000010000000000000000000000000000000000000000   0000000000000000000000000A9        170192964704     
0010001300304U 020000000000000000000000000000000000000000000000000000000000000000000000000000000000000000000000000000000000000000000000002903201700000000            000000000000000                              000                           
0010001300305T 020180230000002544776 29647041503108066   7               31032017000000000006000001008311                         0900000000000010000000000000000000000000000000000000000   0000000000000000000000000A9        170192964704     
0010001300306U 020000000000000000000000000000000000000000000000000000000000000000000000000000000000000000000000000000000000000000000000002903201700000000            000000000000000                              000                           
0010001300307T 020180230000002544776 29647041503132460   7               31032017000000000006000001008311                         0900000000000010000000000000000000000000000000000000000   0000000000000000000000000A9        170192964704     
0010001300308U 020000000000000000000000000000000000000000000000000000000000000000000000000000000000000000000000000000000000000000000000002903201700000000            000000000000000                              000                           
0010001300309T 020180230000002544776 29647041503357603   7               31032017000000000006000001000132                         0900000000000010500000000000000000000000000000000000000   0000000000000000000000000A9A4      170192964704     
0010001300310U 020000000000000000000000000000000000000000000000000000000000000000000000000000000000000000000000000000000000000000000000002903201700000000            000000000000000                              000                           
0010001300311T 020180230000002544776 29647041503420526   7               31032017000000000008000001028029                         0900000000000010000000000000000000000000000000000000000   0000000000000000000000000A9        170192964704     
0010001300312U 020000000000000000000000000000000000000000000000000000000000000000000000000000000000000000000000000000000000000000000000002903201700000000            000000000000000                              000                           
0010001300313T 020180230000002544776 29647041503451680   7               31032017000000000008000001028029                         0900000000000010000000000000000000000000000000000000000   0000000000000000000000000A9        170192964704     
0010001300314U 020000000000000000000000000000000000000000000000000000000000000000000000000000000000000000000000000000000000000000000000002903201700000000            000000000000000                              000                           
0010001300315T 020180230000002544776 29647041503536032   7               31032017000000000006000001012467                         0900000000000010000000000000000000000000000000000000000   0000000000000000000000000A9        170192964704     
0010001300316U 020000000000000000000000000000000000000000000000000000000000000000000000000000000000000000000000000000000000000000000000002903201700000000            000000000000000                              000                           
0010001300317T 020180230000002544776 29647041503642216   7               31032017000000000006000001001201                         0900000000000010500000000000000000000000000000000000000   0000000000000000000000000A9A4      170192964704     
0010001300318U 020000000000000000000000000000000000000000000000000000000000000000000000000000000000000000000000000000000000000000000000002903201700000000            000000000000000                              000                           
0010001300319T 020180230000002544776 29647041503849603   7               31032017000000000006000001028029                         0900000000000010000000000000000000000000000000000000000   0000000000000000000000000A9        170192964704     
0010001300320U 020000000000000000000000000000000000000000000000000000000000000000000000000000000000000000000000000000000000000000000000002903201700000000            000000000000000                              000                           
0010001300321T 020180230000002544776 29647041504010702   7               31032017000000000006000001028029                         0900000000000010000000000000000000000000000000000000000   0000000000000000000000000A9        170192964704     
0010001300322U 020000000000000000000000000000000000000000000000000000000000000000000000000000000000000000000000000000000000000000000000002903201700000000            000000000000000                              000                           
0010001300323T 020180230000002544776 29647041504153695   7               31032017000000000006000001026409                         0900000000000010000000000000000000000000000000000000000   0000000000000000000000000A9        170192964704     
0010001300324U 020000000000000000000000000000000000000000000000000000000000000000000000000000000000000000000000000000000000000000000000002903201700000000            000000000000000                              000                           
0010001300325T 020180230000002544776 29647041504308443   7               31032017000000000006000001028029                         0900000000000010000000000000000000000000000000000000000   0000000000000000000000000A9        170192964704     
0010001300326U 020000000000000000000000000000000000000000000000000000000000000000000000000000000000000000000000000000000000000000000000002903201700000000            000000000000000                              000                           
0010001300327T 020180230000002544776 29647041504413076   7               31032017000000000006000001013617                         0900000000000010000000000000000000000000000000000000000   0000000000000000000000000A9        170192964704     
0010001300328U 020000000000000000000000000000000000000000000000000000000000000000000000000000000000000000000000000000000000000000000000002903201700000000            000000000000000                              000                           
0010001300329T 020180230000002544776 29647041504419259   7               31032017000000000006000001013617                         0900000000000010000000000000000000000000000000000000000   0000000000000000000000000A9        170192964704     
0010001300330U 020000000000000000000000000000000000000000000000000000000000000000000000000000000000000000000000000000000000000000000000002903201700000000            000000000000000                              000                           
0010001300331T 020180230000002544776 29647041504622140   7               31032017000000000006000001000132                         0900000000000010500000000000000000000000000000000000000   0000000000000000000000000A9A4      170192964704     
0010001300332U 020000000000000000000000000000000000000000000000000000000000000000000000000000000000000000000000000000000000000000000000002903201700000000            000000000000000                              000                           
0010001300333T 020180230000002544776 29647041504727627   7               31032017000000000006000001016179                         0900000000000010000000000000000000000000000000000000000   0000000000000000000000000A9        170192964704     
0010001300334U 020000000000000000000000000000000000000000000000000000000000000000000000000000000000000000000000000000000000000000000000002903201700000000            000000000000000                              000                           
0010001300335T 020180230000002544776 29647041504822031   7               3103201700000000000600000100099X                         0900000000000010000000000000000000000000000000000000000   0000000000000000000000000A9        170192964704     
0010001300336U 020000000000000000000000000000000000000000000000000000000000000000000000000000000000000000000000000000000000000000000000002903201700000000            000000000000000                              000                           
0010001300337T 020180230000002544776 29647041504845959   7               3103201700000000000600000100099X                         0900000000000010000000000000000000000000000000000000000   0000000000000000000000000A9        170192964704     
0010001300338U 020000000000000000000000000000000000000000000000000000000000000000000000000000000000000000000000000000000000000000000000002903201700000000            000000000000000                              000                           
0010001300339T 020180230000002544776 29647041504929137   7               31032017000000000006000001023655                         0900000000000010000000000000000000000000000000000000000   0000000000000000000000000A9        170192964704     
0010001300340U 020000000000000000000000000000000000000000000000000000000000000000000000000000000000000000000000000000000000000000000000002903201700000000            000000000000000                              000                           
0010001300341T 020180230000002544776 29647041505038287   7               3103201700000000000600000100233X                         0900000000000010000000000000000000000000000000000000000   0000000000000000000000000A9        170192964704     
0010001300342U 020000000000000000000000000000000000000000000000000000000000000000000000000000000000000000000000000000000000000000000000002903201700000000            000000000000000                              000                           
0010001300343T 020180230000002544776 29647041505442989   7               31032017000000000008000001028029                         0900000000000010000000000000000000000000000000000000000   0000000000000000000000000A9        170192964704     
0010001300344U 020000000000000000000000000000000000000000000000000000000000000000000000000000000000000000000000000000000000000000000000002903201700000000            000000000000000                              000                           
0010001300345T 020180230000002544776 29647041505511417   7               31032017000000000006000001000132                         0900000000000010500000000000000000000000000000000000000   0000000000000000000000000A9A4      170192964704     
0010001300346U 020000000000000000000000000000000000000000000000000000000000000000000000000000000000000000000000000000000000000000000000002903201700000000            000000000000000                              000                           
0010001300347T 020180230000002544776 29647041505512727   7               31032017000000000006000001000132                         0900000000000010500000000000000000000000000000000000000   0000000000000000000000000A9A4      170192964704     
0010001300348U 020000000000000000000000000000000000000000000000000000000000000000000000000000000000000000000000000000000000000000000000002903201700000000            000000000000000                              000                           
0010001300349T 020180230000002544776 29647041505611098   7               31032017000000000006000001000132                         0900000000000010500000000000000000000000000000000000000   0000000000000000000000000A9A4      170192964704     
0010001300350U 020000000000000000000000000000000000000000000000000000000000000000000000000000000000000000000000000000000000000000000000002903201700000000            000000000000000                              000                           
0010001300351T 020180230000002544776 29647041505710040   7               31032017000000000006000001018376                         0900000000000010000000000000000000000000000000000000000   0000000000000000000000000A9        170192964704     
0010001300352U 020000000000000000000000000000000000000000000000000000000000000000000000000000000000000000000000000000000000000000000000002903201700000000            000000000000000                              000                           
0010001300353T 020180230000002544776 29647041505816039   7               31032017000000000006000001001597                         0900000000000010000000000000000000000000000000000000000   0000000000000000000000000A9        170192964704     
0010001300354U 020000000000000000000000000000000000000000000000000000000000000000000000000000000000000000000000000000000000000000000000002903201700000000            000000000000000                              000                           
0010001300355T 020180230000002544776 29647041506115928   7               31032017000000000006000001000132                         0900000000000010500000000000000000000000000000000000000   0000000000000000000000000A9A4      170192964704     
0010001300356U 020000000000000000000000000000000000000000000000000000000000000000000000000000000000000000000000000000000000000000000000002903201700000000            000000000000000                              000                           
0010001300357T 020180230000002544776 29647041506226387   7               3103201700000000000600000101981X                         0900000000000010000000000000000000000000000000000000000   0000000000000000000000000A9        170192964704     
0010001300358U 020000000000000000000000000000000000000000000000000000000000000000000000000000000000000000000000000000000000000000000000002903201700000000            000000000000000                              000                           
0010001300359T 020180230000002544776 29647041506341925   7               31032017000000000006000001028029                         0900000000000010500000000000000000000000000000000000000   0000000000000000000000000A9A4      170192964704     
0010001300360U 020000000000000000000000000000000000000000000000000000000000000000000000000000000000000000000000000000000000000000000000002903201700000000            000000000000000                              000                           
0010001300361T 020180230000002544776 29647041506416976   7               31032017000000000006000001000132                         0900000000000010000000000000000000000000000000000000000   0000000000000000000000000A9        170192964704     
0010001300362U 020000000000000000000000000000000000000000000000000000000000000000000000000000000000000000000000000000000000000000000000002903201700000000            000000000000000                              000                           
0010001300363T 020180230000002544776 29647041506522765   7               31032017000000000006000001005479                         0900000000000010000000000000000000000000000000000000000   0000000000000000000000000A9        170192964704     
0010001300364U 020000000000000000000000000000000000000000000000000000000000000000000000000000000000000000000000000000000000000000000000002903201700000000            000000000000000                              000                           
0010001300365T 020180230000002544776 29647041506554487   7               31032017000000000006000001005479                         0900000000000010000000000000000000000000000000000000000   0000000000000000000000000A9        170192964704     
0010001300366U 020000000000000000000000000000000000000000000000000000000000000000000000000000000000000000000000000000000000000000000000002903201700000000            000000000000000                              000                           
0010001300367T 020180230000002544776 29647041506659857   7               31032017000000000006000001016179                         0900000000000010000000000000000000000000000000000000000   0000000000000000000000000A9        170192964704     
0010001300368U 020000000000000000000000000000000000000000000000000000000000000000000000000000000000000000000000000000000000000000000000002903201700000000            000000000000000                              000                           
0010001300369T 020180230000002544776 29647041506733288   7               31032017000000000006000001028029                         0900000000000010000000000000000000000000000000000000000   0000000000000000000000000A9        170192964704     
0010001300370U 020000000000000000000000000000000000000000000000000000000000000000000000000000000000000000000000000000000000000000000000002903201700000000            000000000000000                              000                           
0010001300371T 020180230000002544776 29647041506809467   7               31032017000000000006000001018376                         0900000000000010000000000000000000000000000000000000000   0000000000000000000000000A9        170192964704     
0010001300372U 020000000000000000000000000000000000000000000000000000000000000000000000000000000000000000000000000000000000000000000000002903201700000000            000000000000000                              000                           
0010001300373T 020180230000002544776 29647041506959770   7               31032017000000000006000001028029                         0900000000000010000000000000000000000000000000000000000   0000000000000000000000000A9        170192964704     
0010001300374U 020000000000000000000000000000000000000000000000000000000000000000000000000000000000000000000000000000000000000000000000002903201700000000            000000000000000                              000                           
0010001300375T 020180230000002544776 29647041507005927   7               31032017000000000008000001014362                         0900000000000010000000000000000000000000000000000000000   0000000000000000000000000A9        170192964704     
0010001300376U 020000000000000000000000000000000000000000000000000000000000000000000000000000000000000000000000000000000000000000000000002903201700000000            000000000000000                              000                           
0010001300377T 020180230000002544776 29647041507019076   7               31032017000000000008000001014362                         0900000000000010000000000000000000000000000000000000000   0000000000000000000000000A9        170192964704     
0010001300378U 020000000000000000000000000000000000000000000000000000000000000000000000000000000000000000000000000000000000000000000000002903201700000000            000000000000000                              000                           
0010001300379T 020180230000002544776 29647041507135859   7               31032017000000000006000001000132                         0900000000000010000000000000000000000000000000000000000   0000000000000000000000000A9        170192964704     
0010001300380U 020000000000000000000000000000000000000000000000000000000000000000000000000000000000000000000000000000000000000000000000002903201700000000            000000000000000                              000                           
0010001300381T 020180230000002544776 29647041507258706   7               31032017000000000008000001000825                         0900000000000010000000000000000000000000000000000000000   0000000000000000000000000A9        170192964704     
0010001300382U 020000000000000000000000000000000000000000000000000000000000000000000000000000000000000000000000000000000000000000000000002903201700000000            000000000000000                              000                           
0010001300383T 020180230000002544776 29647041507325636   7               31032017000000000006000001028029                         0900000000000010000000000000000000000000000000000000000   0000000000000000000000000A9        170192964704     
0010001300384U 020000000000000000000000000000000000000000000000000000000000000000000000000000000000000000000000000000000000000000000000002903201700000000            000000000000000                              000                           
0010001300385T 020180230000002544776 29647041507540868   7               3103201700000000000600000100233X                         0900000000000010000000000000000000000000000000000000000   0000000000000000000000000A9        170192964704     
0010001300386U 020000000000000000000000000000000000000000000000000000000000000000000000000000000000000000000000000000000000000000000000002903201700000000            000000000000000                              000                           
0010001300387T 020180230000002544776 29647041507601144   7               31032017000000000008000001023655                         0900000000000010000000000000000000000000000000000000000   0000000000000000000000000A9        170192964704     
0010001300388U 020000000000000000000000000000000000000000000000000000000000000000000000000000000000000000000000000000000000000000000000002903201700000000            000000000000000                              000                           
0010001300389T 020180230000002544776 29647041507748506   7               31032017000000000006000001016179                         0900000000000010000000000000000000000000000000000000000   0000000000000000000000000A9        170192964704     
0010001300390U 020000000000000000000000000000000000000000000000000000000000000000000000000000000000000000000000000000000000000000000000002903201700000000            000000000000000                              000                           
0010001300391T 020180230000002544776 29647041507756405   7               31032017000000000006000001016179                         0900000000000010000000000000000000000000000000000000000   0000000000000000000000000A9        170192964704     
0010001300392U 020000000000000000000000000000000000000000000000000000000000000000000000000000000000000000000000000000000000000000000000002903201700000000            000000000000000                              000                           
0010001300393T 020180230000002544776 29647041507904315   7               31032017000000000006000001028029                         0900000000000010000000000000000000000000000000000000000   0000000000000000000000000A9        170192964704     
0010001300394U 020000000000000000000000000000000000000000000000000000000000000000000000000000000000000000000000000000000000000000000000002903201700000000            000000000000000                              000                           
0010001300395T 020180230000002544776 29647041507944515   7               31032017000000000006000001028029                         0900000000000010000000000000000000000000000000000000000   0000000000000000000000000A9        170192964704     
0010001300396U 020000000000000000000000000000000000000000000000000000000000000000000000000000000000000000000000000000000000000000000000002903201700000000            000000000000000                              000                           
0010001300397T 020180230000002544776 29647041508135933   7               31032017000000000008000001023655                         0900000000000010000000000000000000000000000000000000000   0000000000000000000000000A9        170192964704     
0010001300398U 020000000000000000000000000000000000000000000000000000000000000000000000000000000000000000000000000000000000000000000000002903201700000000            000000000000000                              000                           
0010001300399T 020180230000002544776 29647041508338941   7               31032017000000000006000001018376                         0900000000000010000000000000000000000000000000000000000   0000000000000000000000000A9        170192964704     
0010001300400U 020000000000000000000000000000000000000000000000000000000000000000000000000000000000000000000000000000000000000000000000002903201700000000            000000000000000                              000                           
0010001300401T 020180230000002544776 29647041508442823   7               31032017000000000006000001023264                         0900000000000010000000000000000000000000000000000000000   0000000000000000000000000A9        170192964704     
0010001300402U 020000000000000000000000000000000000000000000000000000000000000000000000000000000000000000000000000000000000000000000000002903201700000000            000000000000000                              000                           
0010001300403T 020180230000002544776 29647041508601686   7               31032017000000000006000001016179                         0900000000000010000000000000000000000000000000000000000   0000000000000000000000000A9        170192964704     
0010001300404U 020000000000000000000000000000000000000000000000000000000000000000000000000000000000000000000000000000000000000000000000002903201700000000            000000000000000                              000                           
0010001300405T 020180230000002544776 29647041508602497   7               31032017000000000006000001016179                         0900000000000010000000000000000000000000000000000000000   0000000000000000000000000A9        170192964704     
0010001300406U 020000000000000000000000000000000000000000000000000000000000000000000000000000000000000000000000000000000000000000000000002903201700000000            000000000000000                              000                           
0010001300407T 020180230000002544776 29647041508616475   7               31032017000000000006000001016179                         0900000000000010000000000000000000000000000000000000000   0000000000000000000000000A9        170192964704     
0010001300408U 020000000000000000000000000000000000000000000000000000000000000000000000000000000000000000000000000000000000000000000000002903201700000000            000000000000000                              000                           
0010001300409T 020180230000002544776 29647041508927945   7               31032017000000000006000001028029                         0900000000000010000000000000000000000000000000000000000   0000000000000000000000000A9        170192964704     
0010001300410U 020000000000000000000000000000000000000000000000000000000000000000000000000000000000000000000000000000000000000000000000002903201700000000            000000000000000                              000                           
0010001300411T 020180230000002544776 29647041509000831   7               31032017000000000008000001006572                         0900000000000010000000000000000000000000000000000000000   0000000000000000000000000A9        170192964704     
0010001300412U 020000000000000000000000000000000000000000000000000000000000000000000000000000000000000000000000000000000000000000000000002903201700000000            000000000000000                              000                           
