00100000         2247745860001000029647040014       0180230000002544776 INSTITUTO DE SELECAO E TECNOLOBANCO DO BRASIL                         23003201701094500008403000000515122941PROCESSAMEN                                                 
00100011T0100020 20247745860001000029647040014       0180230000002544776 INSTITUTO DE SELECAO E TECNOLO                                                                                000000003003201700000000  000000000                      
0010001300001T 020180230000002544776 29647040548832256   7               01042017000000000006000001018376                         0900000000000010000000000000000000000000000000000000000   0000000000000000000000000A9        170192964704     
0010001300002U 020000000000000000000000000000000000000000000000000000000000000000000000000000000000000000000000000000000000000000000000003003201700000000            000000000000000                              000                           
0010001300003T 020180230000002544776 29647040581048290   7               01042017000000000008000001000132                         0900000000000010000000000000000000000000000000000000000   0000000000000000000000000A9        170192964704     
0010001300004U 020000000000000000000000000000000000000000000000000000000000000000000000000000000000000000000000000000000000000000000000003003201700000000            000000000000000                              000                           
0010001300005T 020180230000002544776 29647040601412504   7               01042017000000000006000001033316                         0900000000000010000000000000000000000000000000000000000   0000000000000000000000000A9        170192964704     
0010001300006U 020000000000000000000000000000000000000000000000000000000000000000000000000000000000000000000000000000000000000000000000003003201700000000            000000000000000                              000                           
0010001300007T 020180230000002544776 29647040637121309   7               01042017000000000006000001033316                         0900000000000010000000000000000000000000000000000000000   0000000000000000000000000A9        170192964704     
0010001300008U 020000000000000000000000000000000000000000000000000000000000000000000000000000000000000000000000000000000000000000000000003003201700000000            000000000000000                              000                           
0010001300009T 020180230000002544776 29647040637135065   7               01042017000000000006000001033316                         0900000000000010000000000000000000000000000000000000000   0000000000000000000000000A9        170192964704     
0010001300010U 020000000000000000000000000000000000000000000000000000000000000000000000000000000000000000000000000000000000000000000000003003201700000000            000000000000000                              000                           
0010001300011T 020180230000002544776 29647040662236030   7               01042017000000000006000001000132                         0900000000000010000000000000000000000000000000000000000   0000000000000000000000000A9        170192964704     
0010001300012U 020000000000000000000000000000000000000000000000000000000000000000000000000000000000000000000000000000000000000000000000003003201700000000            000000000000000                              000                           
0010001300013T 020180230000002544776 29647040685451602   7               31032017000000000006000001000132                         0900000000000010500000000000000000000000000000000000000   0000000000000000000000000A9A4      170192964704     
0010001300014U 020000000000000000000000000000000000000000000000000000000000000000000000000000000000000000000000000000000000000000000000002903201700000000            000000000000000                              000                           
0010001300015T 020180230000002544776 29647040722331673   7               01042017000000000006000001016179                         0900000000000010000000000000000000000000000000000000000   0000000000000000000000000A9        170192964704     
0010001300016U 020000000000000000000000000000000000000000000000000000000000000000000000000000000000000000000000000000000000000000000000003003201700000000            000000000000000                              000                           
0010001300017T 020180230000002544776 29647040739012086   7               01042017000000000006000001016179                         0900000000000010000000000000000000000000000000000000000   0000000000000000000000000A9        170192964704     
0010001300018U 020000000000000000000000000000000000000000000000000000000000000000000000000000000000000000000000000000000000000000000000003003201700000000            000000000000000                              000                           
0010001300019T 020180230000002544776 29647040743319352   7               01042017000000000006000001023655                         0900000000000010500000000000000000000000000000000000000   0000000000000000000000000A9A4      170192964704     
0010001300020U 020000000000000000000000000000000000000000000000000000000000000000000000000000000000000000000000000000000000000000000000003003201700000000            000000000000000                              000                           
0010001300021T 020180230000002544776 29647040757915211   7               01042017000000000006000001008214                         0900000000000010000000000000000000000000000000000000000   0000000000000000000000000A9        170192964704     
0010001300022U 020000000000000000000000000000000000000000000000000000000000000000000000000000000000000000000000000000000000000000000000003003201700000000            000000000000000                              000                           
0010001300023T 020180230000002544776 29647040758645256   7               01042017000000000006000001028029                         0900000000000010000000000000000000000000000000000000000   0000000000000000000000000A9        170192964704     
0010001300024U 020000000000000000000000000000000000000000000000000000000000000000000000000000000000000000000000000000000000000000000000003003201700000000            000000000000000                              000                           
0010001300025T 020180230000002544776 29647040761323436   7               01042017000000000006000001016179                         0900000000000010000000000000000000000000000000000000000   0000000000000000000000000A9        170192964704     
0010001300026U 020000000000000000000000000000000000000000000000000000000000000000000000000000000000000000000000000000000000000000000000003003201700000000            000000000000000                              000                           
0010001300027T 020180230000002544776 29647040771006740   7               01042017000000000006000001035033                         0900000000000010000000000000000000000000000000000000000   0000000000000000000000000A9        170192964704     
0010001300028U 020000000000000000000000000000000000000000000000000000000000000000000000000000000000000000000000000000000000000000000000003003201700000000            000000000000000                              000                           
0010001300029T 020180230000002544776 29647040772102435   7               01042017000000000008000001011061                         0900000000000010000000000000000000000000000000000000000   0000000000000000000000000A9        170192964704     
0010001300030U 020000000000000000000000000000000000000000000000000000000000000000000000000000000000000000000000000000000000000000000000003003201700000000            000000000000000                              000                           
0010001300031T 020180230000002544776 29647040792143287   7               01042017000000000006000001028029                         0900000000000010000000000000000000000000000000000000000   0000000000000000000000000A9        170192964704     
0010001300032U 020000000000000000000000000000000000000000000000000000000000000000000000000000000000000000000000000000000000000000000000003003201700000000            000000000000000                              000                           
0010001300033T 020180230000002544776 29647040795433010   7               01042017000000000006000001012467                         0900000000000010000000000000000000000000000000000000000   0000000000000000000000000A9        170192964704     
0010001300034U 020000000000000000000000000000000000000000000000000000000000000000000000000000000000000000000000000000000000000000000000003003201700000000            000000000000000                              000                           
0010001300035T 020180230000002544776 29647040808512038   7               01042017000000000006000001012467                         0900000000000010000000000000000000000000000000000000000   0000000000000000000000000A9        170192964704     
0010001300036U 020000000000000000000000000000000000000000000000000000000000000000000000000000000000000000000000000000000000000000000000003003201700000000            000000000000000                              000                           
0010001300037T 020180230000002544776 29647040816558634   7               01042017000000000006000001025429                         0900000000000010000000000000000000000000000000000000000   0000000000000000000000000A9        170192964704     
0010001300038U 020000000000000000000000000000000000000000000000000000000000000000000000000000000000000000000000000000000000000000000000003003201700000000            000000000000000                              000                           
0010001300039T 020180230000002544776 29647040817823650   7               01042017000000000006000001020354                         0900000000000010000000000000000000000000000000000000000   0000000000000000000000000A9        170192964704     
0010001300040U 020000000000000000000000000000000000000000000000000000000000000000000000000000000000000000000000000000000000000000000000003003201700000000            000000000000000                              000                           
0010001300041T 020180230000002544776 29647040817851850   7               01042017000000000006000001020354                         0900000000000010000000000000000000000000000000000000000   0000000000000000000000000A9        170192964704     
0010001300042U 020000000000000000000000000000000000000000000000000000000000000000000000000000000000000000000000000000000000000000000000003003201700000000            000000000000000                              000                           
0010001300043T 020180230000002544776 29647040827045289   7               01042017000000000008000001022357                         0900000000000010000000000000000000000000000000000000000   0000000000000000000000000A9        170192964704     
0010001300044U 020000000000000000000000000000000000000000000000000000000000000000000000000000000000000000000000000000000000000000000000003003201700000000            000000000000000                              000                           
0010001300045T 020180230000002544776 29647040847224264   7               01042017000000000006000001001368                         0900000000000010000000000000000000000000000000000000000   0000000000000000000000000A9        170192964704     
0010001300046U 020000000000000000000000000000000000000000000000000000000000000000000000000000000000000000000000000000000000000000000000003003201700000000            000000000000000                              000                           
0010001300047T 020180230000002544776 29647040861215778   7               01042017000000000008000001000132                         0900000000000010000000000000000000000000000000000000000   0000000000000000000000000A9        170192964704     
0010001300048U 020000000000000000000000000000000000000000000000000000000000000000000000000000000000000000000000000000000000000000000000003003201700000000            000000000000000                              000                           
0010001300049T 020180230000002544776 29647040866730213   7               0104201700000000000800000100880X                         0900000000000010000000000000000000000000000000000000000   0000000000000000000000000A9        170192964704     
0010001300050U 020000000000000000000000000000000000000000000000000000000000000000000000000000000000000000000000000000000000000000000000003003201700000000            000000000000000                              000                           
0010001300051T 020180230000002544776 29647040873421969   7               01042017000000000008000001028029                         0900000000000010000000000000000000000000000000000000000   0000000000000000000000000A9        170192964704     
0010001300052U 020000000000000000000000000000000000000000000000000000000000000000000000000000000000000000000000000000000000000000000000003003201700000000            000000000000000                              000                           
0010001300053T 020180230000002544776 29647040888600808   7               01042017000000000006000001012467                         0900000000000010000000000000000000000000000000000000000   0000000000000000000000000A9        170192964704     
0010001300054U 020000000000000000000000000000000000000000000000000000000000000000000000000000000000000000000000000000000000000000000000003003201700000000            000000000000000                              000                           
0010001300055T 020180230000002544776 29647040894619507   7               31032017000000000006000001016179                         0900000000000010000000000000000000000000000000000000000   0000000000000000000000000A9        170192964704     
0010001300056U 020000000000000000000000000000000000000000000000000000000000000000000000000000000000000000000000000000000000000000000000002903201700000000            000000000000000                              000                           
0010001300057T 020180230000002544776 29647040929739824   7               01042017000000000006000001033316                         0900000000000010000000000000000000000000000000000000000   0000000000000000000000000A9        170192964704     
0010001300058U 020000000000000000000000000000000000000000000000000000000000000000000000000000000000000000000000000000000000000000000000003003201700000000            000000000000000                              000                           
0010001300059T 020180230000002544776 29647040951705217   7               01042017000000000006000001018376                         0900000000000010000000000000000000000000000000000000000   0000000000000000000000000A9        170192964704     
0010001300060U 020000000000000000000000000000000000000000000000000000000000000000000000000000000000000000000000000000000000000000000000003003201700000000            000000000000000                              000                           
0010001300061T 020180230000002544776 29647040957522432   7               01042017000000000006000001018376                         0900000000000010000000000000000000000000000000000000000   0000000000000000000000000A9        170192964704     
0010001300062U 020000000000000000000000000000000000000000000000000000000000000000000000000000000000000000000000000000000000000000000000003003201700000000            000000000000000                              000                           
0010001300063T 020180230000002544776 29647040972526954   7               01042017000000000006000001018376                         0900000000000010000000000000000000000000000000000000000   0000000000000000000000000A9        170192964704     
0010001300064U 020000000000000000000000000000000000000000000000000000000000000000000000000000000000000000000000000000000000000000000000003003201700000000            000000000000000                              000                           
0010001300065T 020180230000002544776 29647040977036682   7               01042017000000000006000001002003                         0900000000000010000000000000000000000000000000000000000   0000000000000000000000000A9        170192964704     
0010001300066U 020000000000000000000000000000000000000000000000000000000000000000000000000000000000000000000000000000000000000000000000003003201700000000            000000000000000                              000                           
0010001300067T 020180230000002544776 29647040980014550   7               01042017000000000006000001000132                         0900000000000010000000000000000000000000000000000000000   0000000000000000000000000A9        170192964704     
0010001300068U 020000000000000000000000000000000000000000000000000000000000000000000000000000000000000000000000000000000000000000000000003003201700000000            000000000000000                              000                           
0010001300069T 020180230000002544776 29647040985403041   7               01042017000000000006000001001597                         0900000000000010000000000000000000000000000000000000000   0000000000000000000000000A9        170192964704     
0010001300070U 020000000000000000000000000000000000000000000000000000000000000000000000000000000000000000000000000000000000000000000000003003201700000000            000000000000000                              000                           
0010001300071T 020180230000002544776 29647040991920080   7               01042017000000000006000001000132                         0900000000000010500000000000000000000000000000000000000   0000000000000000000000000A9A4      170192964704     
0010001300072U 020000000000000000000000000000000000000000000000000000000000000000000000000000000000000000000000000000000000000000000000003003201700000000            000000000000000                              000                           
0010001300073T 020180230000002544776 29647041015008678   7               01042017000000000006000001016179                         0900000000000010000000000000000000000000000000000000000   0000000000000000000000000A9        170192964704     
0010001300074U 020000000000000000000000000000000000000000000000000000000000000000000000000000000000000000000000000000000000000000000000003003201700000000            000000000000000                              000                           
0010001300075T 020180230000002544776 29647041021743883   7               01042017000000000006000001044865                         0900000000000010000000000000000000000000000000000000000   0000000000000000000000000A9        170192964704     
0010001300076U 020000000000000000000000000000000000000000000000000000000000000000000000000000000000000000000000000000000000000000000000003003201700000000            000000000000000                              000                           
0010001300077T 020180230000002544776 29647041029517074   7               01042017000000000006000001033316                         0900000000000010000000000000000000000000000000000000000   0000000000000000000000000A9        170192964704     
0010001300078U 020000000000000000000000000000000000000000000000000000000000000000000000000000000000000000000000000000000000000000000000003003201700000000            000000000000000                              000                           
0010001300079T 020180230000002544776 29647041045215272   7               01042017000000000006000001007013                         0900000000000010000000000000000000000000000000000000000   0000000000000000000000000A9        170192964704     
0010001300080U 020000000000000000000000000000000000000000000000000000000000000000000000000000000000000000000000000000000000000000000000003003201700000000            000000000000000                              000                           
0010001300081T 020180230000002544776 29647041068127056   7               01042017000000000008000001001597                         0900000000000010000000000000000000000000000000000000000   0000000000000000000000000A9        170192964704     
0010001300082U 020000000000000000000000000000000000000000000000000000000000000000000000000000000000000000000000000000000000000000000000003003201700000000            000000000000000                              000                           
0010001300083T 020180230000002544776 29647041068144180   7               01042017000000000008000001001597                         0900000000000010000000000000000000000000000000000000000   0000000000000000000000000A9        170192964704     
0010001300084U 020000000000000000000000000000000000000000000000000000000000000000000000000000000000000000000000000000000000000000000000003003201700000000            000000000000000                              000                           
0010001300085T 020180230000002544776 29647041086515275   7               01042017000000000008000001012467                         0900000000000010000000000000000000000000000000000000000   0000000000000000000000000A9        170192964704     
0010001300086U 020000000000000000000000000000000000000000000000000000000000000000000000000000000000000000000000000000000000000000000000003003201700000000            000000000000000                              000                           
0010001300087T 020180230000002544776 29647041086549214   7               01042017000000000008000001012467                         0900000000000010000000000000000000000000000000000000000   0000000000000000000000000A9        170192964704     
0010001300088U 020000000000000000000000000000000000000000000000000000000000000000000000000000000000000000000000000000000000000000000000003003201700000000            000000000000000                              000                           
0010001300089T 020180230000002544776 29647041086556353   7               01042017000000000008000001012467                         0900000000000010000000000000000000000000000000000000000   0000000000000000000000000A9        170192964704     
0010001300090U 020000000000000000000000000000000000000000000000000000000000000000000000000000000000000000000000000000000000000000000000003003201700000000            000000000000000                              000                           
0010001300091T 020180230000002544776 29647041088111292   7               01042017000000000008000001000132                         0900000000000010000000000000000000000000000000000000000   0000000000000000000000000A9        170192964704     
0010001300092U 020000000000000000000000000000000000000000000000000000000000000000000000000000000000000000000000000000000000000000000000003003201700000000            000000000000000                              000                           
0010001300093T 020180230000002544776 29647041097205678   7               01042017000000000006000001033316                         0900000000000010000000000000000000000000000000000000000   0000000000000000000000000A9        170192964704     
0010001300094U 020000000000000000000000000000000000000000000000000000000000000000000000000000000000000000000000000000000000000000000000003003201700000000            000000000000000                              000                           
0010001300095T 020180230000002544776 29647041097210614   7               01042017000000000006000001033316                         0900000000000010000000000000000000000000000000000000000   0000000000000000000000000A9        170192964704     
0010001300096U 020000000000000000000000000000000000000000000000000000000000000000000000000000000000000000000000000000000000000000000000003003201700000000            000000000000000                              000                           
0010001300097T 020180230000002544776 29647041098320217   7               01042017000000000006000001012467                         0900000000000010000000000000000000000000000000000000000   0000000000000000000000000A9        170192964704     
0010001300098U 020000000000000000000000000000000000000000000000000000000000000000000000000000000000000000000000000000000000000000000000003003201700000000            000000000000000                              000                           
0010001300099T 020180230000002544776 29647041111046825   7               0104201700000000000600000101110X                         0900000000000010000000000000000000000000000000000000000   0000000000000000000000000A9        170192964704     
0010001300100U 020000000000000000000000000000000000000000000000000000000000000000000000000000000000000000000000000000000000000000000000003003201700000000            000000000000000                              000                           
0010001300101T 020180230000002544776 29647041114730297   7               01042017000000000006000001026972                         0900000000000010000000000000000000000000000000000000000   0000000000000000000000000A9        170192964704     
0010001300102U 020000000000000000000000000000000000000000000000000000000000000000000000000000000000000000000000000000000000000000000000003003201700000000            000000000000000                              000                           
0010001300103T 020180230000002544776 29647041117031405   7               01042017000000000008000001014699                         0900000000000010000000000000000000000000000000000000000   0000000000000000000000000A9        170192964704     
0010001300104U 020000000000000000000000000000000000000000000000000000000000000000000000000000000000000000000000000000000000000000000000003003201700000000            000000000000000                              000                           
0010001300105T 020180230000002544776 29647041117052668   7               01042017000000000008000001014699                         0900000000000010000000000000000000000000000000000000000   0000000000000000000000000A9        170192964704     
0010001300106U 020000000000000000000000000000000000000000000000000000000000000000000000000000000000000000000000000000000000000000000000003003201700000000            000000000000000                              000                           
0010001300107T 020180230000002544776 29647041121201214   7               01042017000000000006000001009695                         0900000000000010000000000000000000000000000000000000000   0000000000000000000000000A9        170192964704     
0010001300108U 020000000000000000000000000000000000000000000000000000000000000000000000000000000000000000000000000000000000000000000000003003201700000000            000000000000000                              000                           
0010001300109T 020180230000002544776 29647041125318462   7               01042017000000000006000001028029                         0900000000000010000000000000000000000000000000000000000   0000000000000000000000000A9        170192964704     
0010001300110U 020000000000000000000000000000000000000000000000000000000000000000000000000000000000000000000000000000000000000000000000003003201700000000            000000000000000                              000                           
0010001300111T 020180230000002544776 29647041132344111   7               01042017000000000006000001000132                         0900000000000010000000000000000000000000000000000000000   0000000000000000000000000A9        170192964704     
0010001300112U 020000000000000000000000000000000000000000000000000000000000000000000000000000000000000000000000000000000000000000000000003003201700000000            000000000000000                              000                           
0010001300113T 020180230000002544776 29647041137935463   7               01042017000000000006000001033316                         0900000000000010000000000000000000000000000000000000000   0000000000000000000000000A9        170192964704     
0010001300114U 020000000000000000000000000000000000000000000000000000000000000000000000000000000000000000000000000000000000000000000000003003201700000000            000000000000000                              000                           
0010001300115T 020180230000002544776 29647041145924249   7               01042017000000000008000001003913                         0900000000000010000000000000000000000000000000000000000   0000000000000000000000000A9        170192964704     
0010001300116U 020000000000000000000000000000000000000000000000000000000000000000000000000000000000000000000000000000000000000000000000003003201700000000            000000000000000                              000                           
0010001300117T 020180230000002544776 29647041150441451   7               01042017000000000006000001009229                         0900000000000010000000000000000000000000000000000000000   0000000000000000000000000A9        170192964704     
0010001300118U 020000000000000000000000000000000000000000000000000000000000000000000000000000000000000000000000000000000000000000000000003003201700000000            000000000000000                              000                           
0010001300119T 020180230000002544776 29647041173219299   7               01042017000000000006000001000132                         0900000000000010000000000000000000000000000000000000000   0000000000000000000000000A9        170192964704     
0010001300120U 020000000000000000000000000000000000000000000000000000000000000000000000000000000000000000000000000000000000000000000000003003201700000000            000000000000000                              000                           
0010001300121T 020180230000002544776 29647041200547027   7               01042017000000000006000001028029                         0900000000000010000000000000000000000000000000000000000   0000000000000000000000000A9        170192964704     
0010001300122U 020000000000000000000000000000000000000000000000000000000000000000000000000000000000000000000000000000000000000000000000003003201700000000            000000000000000                              000                           
0010001300123T 020180230000002544776 29647041212606990   7               01042017000000000006000001016179                         0900000000000010000000000000000000000000000000000000000   0000000000000000000000000A9        170192964704     
0010001300124U 020000000000000000000000000000000000000000000000000000000000000000000000000000000000000000000000000000000000000000000000003003201700000000            000000000000000                              000                           
0010001300125T 020180230000002544776 29647041212647115   7               01042017000000000006000001016179                         0900000000000010000000000000000000000000000000000000000   0000000000000000000000000A9        170192964704     
0010001300126U 020000000000000000000000000000000000000000000000000000000000000000000000000000000000000000000000000000000000000000000000003003201700000000            000000000000000                              000                           
0010001300127T 020180230000002544776 29647041216127244   7               01042017000000000006000001016179                         0900000000000010000000000000000000000000000000000000000   0000000000000000000000000A9        170192964704     
0010001300128U 020000000000000000000000000000000000000000000000000000000000000000000000000000000000000000000000000000000000000000000000003003201700000000            000000000000000                              000                           
0010001300129T 020180230000002544776 29647041232537265   7               01042017000000000006000001012467                         0900000000000010000000000000000000000000000000000000000   0000000000000000000000000A9        170192964704     
0010001300130U 020000000000000000000000000000000000000000000000000000000000000000000000000000000000000000000000000000000000000000000000003003201700000000            000000000000000                              000                           
0010001300131T 020180230000002544776 29647041232541592   7               01042017000000000006000001012467                         0900000000000010000000000000000000000000000000000000000   0000000000000000000000000A9        170192964704     
0010001300132U 020000000000000000000000000000000000000000000000000000000000000000000000000000000000000000000000000000000000000000000000003003201700000000            000000000000000                              000                           
0010001300133T 020180230000002544776 29647041239223517   7               01042017000000000006000001028029                         0900000000000010000000000000000000000000000000000000000   0000000000000000000000000A9        170192964704     
0010001300134U 020000000000000000000000000000000000000000000000000000000000000000000000000000000000000000000000000000000000000000000000003003201700000000            000000000000000                              000                           
0010001300135T 020180230000002544776 29647041240217600   7               01042017000000000008000001000132                         0900000000000010000000000000000000000000000000000000000   0000000000000000000000000A9        170192964704     
0010001300136U 020000000000000000000000000000000000000000000000000000000000000000000000000000000000000000000000000000000000000000000000003003201700000000            000000000000000                              000                           
0010001300137T 020180230000002544776 29647041247346943   7               01042017000000000006000001001597                         0900000000000010000000000000000000000000000000000000000   0000000000000000000000000A9        170192964704     
0010001300138U 020000000000000000000000000000000000000000000000000000000000000000000000000000000000000000000000000000000000000000000000003003201700000000            000000000000000                              000                           
0010001300139T 020180230000002544776 29647041254811112   7               01042017000000000006000001004464                         0900000000000010000000000000000000000000000000000000000   0000000000000000000000000A9        170192964704     
0010001300140U 020000000000000000000000000000000000000000000000000000000000000000000000000000000000000000000000000000000000000000000000003003201700000000            000000000000000                              000                           
0010001300141T 020180230000002544776 29647041254824510   7               01042017000000000006000001004464                         0900000000000010000000000000000000000000000000000000000   0000000000000000000000000A9        170192964704     
0010001300142U 020000000000000000000000000000000000000000000000000000000000000000000000000000000000000000000000000000000000000000000000003003201700000000            000000000000000                              000                           
0010001300143T 020180230000002544776 29647041256830404   7               01042017000000000006000001033316                         0900000000000010000000000000000000000000000000000000000   0000000000000000000000000A9        170192964704     
0010001300144U 020000000000000000000000000000000000000000000000000000000000000000000000000000000000000000000000000000000000000000000000003003201700000000            000000000000000                              000                           
0010001300145T 020180230000002544776 29647041258146407   7               01042017000000000006000001033316                         0900000000000010500000000000000000000000000000000000000   0000000000000000000000000A9A4      170192964704     
0010001300146U 020000000000000000000000000000000000000000000000000000000000000000000000000000000000000000000000000000000000000000000000003003201700000000            000000000000000                              000                           
0010001300147T 020180230000002544776 29647041259316512   7               01042017000000000006000001016179                         0900000000000010000000000000000000000000000000000000000   0000000000000000000000000A9        170192964704     
0010001300148U 020000000000000000000000000000000000000000000000000000000000000000000000000000000000000000000000000000000000000000000000003003201700000000            000000000000000                              000                           
0010001300149T 020180230000002544776 29647041276915205   7               01042017000000000006000001005428                         0900000000000010000000000000000000000000000000000000000   0000000000000000000000000A9        170192964704     
0010001300150U 020000000000000000000000000000000000000000000000000000000000000000000000000000000000000000000000000000000000000000000000003003201700000000            000000000000000                              000                           
0010001300151T 020180230000002544776 29647041276954176   7               01042017000000000006000001005428                         0900000000000010000000000000000000000000000000000000000   0000000000000000000000000A9        170192964704     
0010001300152U 020000000000000000000000000000000000000000000000000000000000000000000000000000000000000000000000000000000000000000000000003003201700000000            000000000000000                              000                           
0010001300153T 020180230000002544776 29647041286329156   7               01042017000000000006000001012645                         0900000000000010000000000000000000000000000000000000000   0000000000000000000000000A9        170192964704     
0010001300154U 020000000000000000000000000000000000000000000000000000000000000000000000000000000000000000000000000000000000000000000000003003201700000000            000000000000000                              000                           
0010001300155T 020180230000002544776 29647041316349107   7               01042017000000000006000001023353                         0900000000000010000000000000000000000000000000000000000   0000000000000000000000000A9        170192964704     
0010001300156U 020000000000000000000000000000000000000000000000000000000000000000000000000000000000000000000000000000000000000000000000003003201700000000            000000000000000                              000                           
0010001300157T 020180230000002544776 29647041318602853   7               31032017000000000006000001028029                         0900000000000010000000000000000000000000000000000000000   0000000000000000000000000A9        170192964704     
0010001300158U 020000000000000000000000000000000000000000000000000000000000000000000000000000000000000000000000000000000000000000000000002903201700000000            000000000000000                              000                           
0010001300159T 020180230000002544776 29647041318605437   7               31032017000000000006000001028029                         0900000000000010000000000000000000000000000000000000000   0000000000000000000000000A9        170192964704     
0010001300160U 020000000000000000000000000000000000000000000000000000000000000000000000000000000000000000000000000000000000000000000000002903201700000000            000000000000000                              000                           
0010001300161T 020180230000002544776 29647041326758323   7               01042017000000000006000001028029                         0900000000000010000000000000000000000000000000000000000   0000000000000000000000000A9        170192964704     
0010001300162U 020000000000000000000000000000000000000000000000000000000000000000000000000000000000000000000000000000000000000000000000003003201700000000            000000000000000                              000                           
0010001300163T 020180230000002544776 29647041331553862   7               01042017000000000006000001016179                         0900000000000010000000000000000000000000000000000000000   0000000000000000000000000A9        170192964704     
0010001300164U 020000000000000000000000000000000000000000000000000000000000000000000000000000000000000000000000000000000000000000000000003003201700000000            000000000000000                              000                           
0010001300165T 020180230000002544776 29647041331558973   7               01042017000000000006000001016179                         0900000000000010000000000000000000000000000000000000000   0000000000000000000000000A9        170192964704     
0010001300166U 020000000000000000000000000000000000000000000000000000000000000000000000000000000000000000000000000000000000000000000000003003201700000000            000000000000000                              000                           
0010001300167T 020180230000002544776 29647041337823307   7               01042017000000000008000001035033                         0900000000000010000000000000000000000000000000000000000   0000000000000000000000000A9        170192964704     
0010001300168U 020000000000000000000000000000000000000000000000000000000000000000000000000000000000000000000000000000000000000000000000003003201700000000            000000000000000                              000                           
0010001300169T 020180230000002544776 29647041338431801   7               01042017000000000006000001002321                         0900000000000010000000000000000000000000000000000000000   0000000000000000000000000A9        170192964704     
0010001300170U 020000000000000000000000000000000000000000000000000000000000000000000000000000000000000000000000000000000000000000000000003003201700000000            000000000000000                              000                           
0010001300171T 020180230000002544776 29647041360957620   7               01042017000000000006000001028029                         0900000000000010000000000000000000000000000000000000000   0000000000000000000000000A9        170192964704     
0010001300172U 020000000000000000000000000000000000000000000000000000000000000000000000000000000000000000000000000000000000000000000000003003201700000000            000000000000000                              000                           
0010001300173T 020180230000002544776 29647041370947457   7               01042017000000000006000001028029                         0900000000000010000000000000000000000000000000000000000   0000000000000000000000000A9        170192964704     
0010001300174U 020000000000000000000000000000000000000000000000000000000000000000000000000000000000000000000000000000000000000000000000003003201700000000            000000000000000                              000                           
0010001300175T 020180230000002544776 29647041370956395   7               01042017000000000006000001028029                         0900000000000010000000000000000000000000000000000000000   0000000000000000000000000A9        170192964704     
0010001300176U 020000000000000000000000000000000000000000000000000000000000000000000000000000000000000000000000000000000000000000000000003003201700000000            000000000000000                              000                           
0010001300177T 020180230000002544776 29647041386558947   7               01042017000000000006000001028029                         0900000000000010000000000000000000000000000000000000000   0000000000000000000000000A9        170192964704     
0010001300178U 020000000000000000000000000000000000000000000000000000000000000000000000000000000000000000000000000000000000000000000000003003201700000000            000000000000000                              000                           
0010001300179T 020180230000002544776 29647041393143991   7               01042017000000000006000001033316                         0900000000000010000000000000000000000000000000000000000   0000000000000000000000000A9        170192964704     
0010001300180U 020000000000000000000000000000000000000000000000000000000000000000000000000000000000000000000000000000000000000000000000003003201700000000            000000000000000                              000                           
0010001300181T 020180230000002544776 29647041394028576   7               01042017000000000006000001016179                         0900000000000010000000000000000000000000000000000000000   0000000000000000000000000A9        170192964704     
0010001300182U 020000000000000000000000000000000000000000000000000000000000000000000000000000000000000000000000000000000000000000000000003003201700000000            000000000000000                              000                           
0010001300183T 020180230000002544776 29647041405323495   7               01042017000000000006000001016179                         0900000000000010000000000000000000000000000000000000000   0000000000000000000000000A9        170192964704     
0010001300184U 020000000000000000000000000000000000000000000000000000000000000000000000000000000000000000000000000000000000000000000000003003201700000000            000000000000000                              000                           
0010001300185T 020180230000002544776 29647041412517231   7               31032017000000000006000001018376                         0900000000000010000000000000000000000000000000000000000   0000000000000000000000000A9        170192964704     
0010001300186U 020000000000000000000000000000000000000000000000000000000000000000000000000000000000000000000000000000000000000000000000002903201700000000            000000000000000                              000                           
0010001300187T 020180230000002544776 29647041412555951   7               31032017000000000006000001018376                         0900000000000010000000000000000000000000000000000000000   0000000000000000000000000A9        170192964704     
0010001300188U 020000000000000000000000000000000000000000000000000000000000000000000000000000000000000000000000000000000000000000000000002903201700000000            000000000000000                              000                           
0010001300189T 020180230000002544776 29647041413102772   7               01042017000000000006000001016179                         0900000000000010000000000000000000000000000000000000000   0000000000000000000000000A9        170192964704     
0010001300190U 020000000000000000000000000000000000000000000000000000000000000000000000000000000000000000000000000000000000000000000000003003201700000000            000000000000000                              000                           
0010001300191T 020180230000002544776 29647041417758457   7               01042017000000000006000001016179                         0900000000000010000000000000000000000000000000000000000   0000000000000000000000000A9        170192964704     
0010001300192U 020000000000000000000000000000000000000000000000000000000000000000000000000000000000000000000000000000000000000000000000003003201700000000            000000000000000                              000                           
0010001300193T 020180230000002544776 29647041418940121   7               01042017000000000006000001018376                         0900000000000010000000000000000000000000000000000000000   0000000000000000000000000A9        170192964704     
0010001300194U 020000000000000000000000000000000000000000000000000000000000000000000000000000000000000000000000000000000000000000000000003003201700000000            000000000000000                              000                           
0010001300195T 020180230000002544776 29647041424521921   7               01042017000000000006000001035041                         0900000000000010000000000000000000000000000000000000000   0000000000000000000000000A9        170192964704     
0010001300196U 020000000000000000000000000000000000000000000000000000000000000000000000000000000000000000000000000000000000000000000000003003201700000000            000000000000000                              000                           
0010001300197T 020180230000002544776 29647041426602728   7               01042017000000000006000001012467                         0900000000000010000000000000000000000000000000000000000   0000000000000000000000000A9        170192964704     
0010001300198U 020000000000000000000000000000000000000000000000000000000000000000000000000000000000000000000000000000000000000000000000003003201700000000            000000000000000                              000                           
0010001300199T 020180230000002544776 29647041435504918   7               01042017000000000006000001028029                         0900000000000010000000000000000000000000000000000000000   0000000000000000000000000A9        170192964704     
0010001300200U 020000000000000000000000000000000000000000000000000000000000000000000000000000000000000000000000000000000000000000000000003003201700000000            000000000000000                              000                           
0010001300201T 020180230000002544776 29647041435550698   7               01042017000000000006000001028029                         0900000000000010000000000000000000000000000000000000000   0000000000000000000000000A9        170192964704     
0010001300202U 020000000000000000000000000000000000000000000000000000000000000000000000000000000000000000000000000000000000000000000000003003201700000000            000000000000000                              000                           
0010001300203T 020180230000002544776 29647041435555612   7               01042017000000000006000001028029                         0900000000000010000000000000000000000000000000000000000   0000000000000000000000000A9        170192964704     
0010001300204U 020000000000000000000000000000000000000000000000000000000000000000000000000000000000000000000000000000000000000000000000003003201700000000            000000000000000                              000                           
0010001300205T 020180230000002544776 29647041435557498   7               01042017000000000006000001028029                         0900000000000010000000000000000000000000000000000000000   0000000000000000000000000A9        170192964704     
0010001300206U 020000000000000000000000000000000000000000000000000000000000000000000000000000000000000000000000000000000000000000000000003003201700000000            000000000000000                              000                           
0010001300207T 020180230000002544776 29647041446813885   7               01042017000000000006000001010421                         0900000000000010500000000000000000000000000000000000000   0000000000000000000000000A9A4      170192964704     
0010001300208U 020000000000000000000000000000000000000000000000000000000000000000000000000000000000000000000000000000000000000000000000003003201700000000            000000000000000                              000                           
0010001300209T 020180230000002544776 29647041452304013   7               01042017000000000008000001015962                         0900000000000010000000000000000000000000000000000000000   0000000000000000000000000A9        170192964704     
0010001300210U 020000000000000000000000000000000000000000000000000000000000000000000000000000000000000000000000000000000000000000000000003003201700000000            000000000000000                              000                           
0010001300211T 020180230000002544776 29647041454951013   7               01042017000000000006000001016179                         0900000000000010000000000000000000000000000000000000000   0000000000000000000000000A9        170192964704     
0010001300212U 020000000000000000000000000000000000000000000000000000000000000000000000000000000000000000000000000000000000000000000000003003201700000000            000000000000000                              000                           
0010001300213T 020180230000002544776 29647041455933068   7               01042017000000000006000001028029                         0900000000000010000000000000000000000000000000000000000   0000000000000000000000000A9        170192964704     
0010001300214U 020000000000000000000000000000000000000000000000000000000000000000000000000000000000000000000000000000000000000000000000003003201700000000            000000000000000                              000                           
0010001300215T 020180230000002544776 29647041459422219   7               01042017000000000006000001016179                         0900000000000010000000000000000000000000000000000000000   0000000000000000000000000A9        170192964704     
0010001300216U 020000000000000000000000000000000000000000000000000000000000000000000000000000000000000000000000000000000000000000000000003003201700000000            000000000000000                              000                           
0010001300217T 020180230000002544776 29647041476859206   7               01042017000000000006000001005428                         0900000000000010000000000000000000000000000000000000000   0000000000000000000000000A9        170192964704     
0010001300218U 020000000000000000000000000000000000000000000000000000000000000000000000000000000000000000000000000000000000000000000000003003201700000000            000000000000000                              000                           
0010001300219T 020180230000002544776 29647041477051910   7               01042017000000000006000001000132                         0900000000000010000000000000000000000000000000000000000   0000000000000000000000000A9        170192964704     
0010001300220U 020000000000000000000000000000000000000000000000000000000000000000000000000000000000000000000000000000000000000000000000003003201700000000            000000000000000                              000                           
0010001300221T 020180230000002544776 29647041479202535   7               01042017000000000006000001001597                         0900000000000010000000000000000000000000000000000000000   0000000000000000000000000A9        170192964704     
0010001300222U 020000000000000000000000000000000000000000000000000000000000000000000000000000000000000000000000000000000000000000000000003003201700000000            000000000000000                              000                           
0010001300223T 020180230000002544776 29647041479212122   7               01042017000000000006000001001597                         0900000000000010000000000000000000000000000000000000000   0000000000000000000000000A9        170192964704     
0010001300224U 020000000000000000000000000000000000000000000000000000000000000000000000000000000000000000000000000000000000000000000000003003201700000000            000000000000000                              000                           
0010001300225T 020180230000002544776 29647041481043437   7               31032017000000000006000001005347                         0900000000000010000000000000000000000000000000000000000   0000000000000000000000000A9        170192964704     
0010001300226U 020000000000000000000000000000000000000000000000000000000000000000000000000000000000000000000000000000000000000000000000002903201700000000            000000000000000                              000                           
0010001300227T 020180230000002544776 29647041485625457   7               01042017000000000006000001016179                         0900000000000010000000000000000000000000000000000000000   0000000000000000000000000A9        170192964704     
0010001300228U 020000000000000000000000000000000000000000000000000000000000000000000000000000000000000000000000000000000000000000000000003003201700000000            000000000000000                              000                           
0010001300229T 020180230000002544776 29647041485626250   7               01042017000000000006000001016179                         0900000000000010000000000000000000000000000000000000000   0000000000000000000000000A9        170192964704     
0010001300230U 020000000000000000000000000000000000000000000000000000000000000000000000000000000000000000000000000000000000000000000000003003201700000000            000000000000000                              000                           
0010001300231T 020180230000002544776 29647041486205966   7               01042017000000000008000001028029                         0900000000000010000000000000000000000000000000000000000   0000000000000000000000000A9        170192964704     
0010001300232U 020000000000000000000000000000000000000000000000000000000000000000000000000000000000000000000000000000000000000000000000003003201700000000            000000000000000                              000                           
0010001300233T 020180230000002544776 29647041486233500   7               31032017000000000008000001028029                         0900000000000010000000000000000000000000000000000000000   0000000000000000000000000A9        170192964704     
0010001300234U 020000000000000000000000000000000000000000000000000000000000000000000000000000000000000000000000000000000000000000000000002903201700000000            000000000000000                              000                           
0010001300235T 020180230000002544776 29647041486539155   7               01042017000000000006000001016179                         0900000000000010000000000000000000000000000000000000000   0000000000000000000000000A9        170192964704     
0010001300236U 020000000000000000000000000000000000000000000000000000000000000000000000000000000000000000000000000000000000000000000000003003201700000000            000000000000000                              000                           
0010001300237T 020180230000002544776 29647041488905336   7               01042017000000000008000001028029                         0900000000000010000000000000000000000000000000000000000   0000000000000000000000000A9        170192964704     
0010001300238U 020000000000000000000000000000000000000000000000000000000000000000000000000000000000000000000000000000000000000000000000003003201700000000            000000000000000                              000                           
0010001300239T 020180230000002544776 29647041493948106   7               01042017000000000006000001016179                         0900000000000010000000000000000000000000000000000000000   0000000000000000000000000A9        170192964704     
0010001300240U 020000000000000000000000000000000000000000000000000000000000000000000000000000000000000000000000000000000000000000000000003003201700000000            000000000000000                              000                           
0010001300241T 020180230000002544776 29647041496747674   7               01042017000000000006000001006254                         0900000000000010000000000000000000000000000000000000000   0000000000000000000000000A9        170192964704     
0010001300242U 020000000000000000000000000000000000000000000000000000000000000000000000000000000000000000000000000000000000000000000000003003201700000000            000000000000000                              000                           
0010001300243T 020180230000002544776 29647041502416873   7               0104201700000000000600000100233X                         0900000000000010000000000000000000000000000000000000000   0000000000000000000000000A9        170192964704     
0010001300244U 020000000000000000000000000000000000000000000000000000000000000000000000000000000000000000000000000000000000000000000000003003201700000000            000000000000000                              000                           
0010001300245T 020180230000002544776 29647041503051968   7               0104201700000000000600000101981X                         0900000000000010000000000000000000000000000000000000000   0000000000000000000000000A9        170192964704     
0010001300246U 020000000000000000000000000000000000000000000000000000000000000000000000000000000000000000000000000000000000000000000000003003201700000000            000000000000000                              000                           
0010001300247T 020180230000002544776 29647041506612248   7               01042017000000000006000001016179                         0900000000000010000000000000000000000000000000000000000   0000000000000000000000000A9        170192964704     
0010001300248U 020000000000000000000000000000000000000000000000000000000000000000000000000000000000000000000000000000000000000000000000003003201700000000            000000000000000                              000                           
0010001300249T 020180230000002544776 29647041507344642   7               01042017000000000006000001028029                         0900000000000010000000000000000000000000000000000000000   0000000000000000000000000A9        170192964704     
0010001300250U 020000000000000000000000000000000000000000000000000000000000000000000000000000000000000000000000000000000000000000000000003003201700000000            000000000000000                              000                           
0010001300251T 020180230000002544776 29647041510746747   7               01042017000000000006000001000132                         0900000000000010000000000000000000000000000000000000000   0000000000000000000000000A9        170192964704     
0010001300252U 020000000000000000000000000000000000000000000000000000000000000000000000000000000000000000000000000000000000000000000000003003201700000000            000000000000000                              000                           
0010001300253T 020180230000002544776 29647041513107917   7               01042017000000000006000001001597                         0900000000000010000000000000000000000000000000000000000   0000000000000000000000000A9        170192964704     
0010001300254U 020000000000000000000000000000000000000000000000000000000000000000000000000000000000000000000000000000000000000000000000003003201700000000            000000000000000                              000                           
0010001300255T 020180230000002544776 29647041514255413   7               31032017000000000006000001025429                         0900000000000010000000000000000000000000000000000000000   0000000000000000000000000A9        170192964704     
0010001300256U 020000000000000000000000000000000000000000000000000000000000000000000000000000000000000000000000000000000000000000000000002903201700000000            000000000000000                              000                           
0010001300257T 020180230000002544776 29647041514359030   7               31032017000000000006000001000132                         0900000000000010000000000000000000000000000000000000000   0000000000000000000000000A9        170192964704     
0010001300258U 020000000000000000000000000000000000000000000000000000000000000000000000000000000000000000000000000000000000000000000000002903201700000000            000000000000000                              000                           
0010001300259T 020180230000002544776 29647041514405086   7               31032017000000000008000001008214                         0900000000000010000000000000000000000000000000000000000   0000000000000000000000000A9        170192964704     
0010001300260U 020000000000000000000000000000000000000000000000000000000000000000000000000000000000000000000000000000000000000000000000002903201700000000            000000000000000                              000                           
0010001300261T 020180230000002544776 29647041514518243   7               31032017000000000006000001016179                         0900000000000010000000000000000000000000000000000000000   0000000000000000000000000A9        170192964704     
0010001300262U 020000000000000000000000000000000000000000000000000000000000000000000000000000000000000000000000000000000000000000000000002903201700000000            000000000000000                              000                           
0010001300263T 020180230000002544776 29647041514634076   7               31032017000000000006000001000132                         0900000000000010000000000000000000000000000000000000000   0000000000000000000000000A9        170192964704     
0010001300264U 020000000000000000000000000000000000000000000000000000000000000000000000000000000000000000000000000000000000000000000000002903201700000000            000000000000000                              000                           
0010001300265T 020180230000002544776 29647041515240660   7               01042017000000000006000001008214                         0900000000000010000000000000000000000000000000000000000   0000000000000000000000000A9        170192964704     
0010001300266U 020000000000000000000000000000000000000000000000000000000000000000000000000000000000000000000000000000000000000000000000003003201700000000            000000000000000                              000                           
0010001300267T 020180230000002544776 29647041515300363   7               01042017000000000008000001018376                         0900000000000010000000000000000000000000000000000000000   0000000000000000000000000A9        170192964704     
0010001300268U 020000000000000000000000000000000000000000000000000000000000000000000000000000000000000000000000000000000000000000000000003003201700000000            000000000000000                              000                           
0010001300269T 020180230000002544776 29647041515456497   7               01042017000000000006000001009695                         0900000000000010000000000000000000000000000000000000000   0000000000000000000000000A9        170192964704     
0010001300270U 020000000000000000000000000000000000000000000000000000000000000000000000000000000000000000000000000000000000000000000000003003201700000000            000000000000000                              000                           
0010001300271T 020180230000002544776 29647041515504765   7               01042017000000000006000001024252                         0900000000000010000000000000000000000000000000000000000   0000000000000000000000000A9        170192964704     
0010001300272U 020000000000000000000000000000000000000000000000000000000000000000000000000000000000000000000000000000000000000000000000003003201700000000            000000000000000                              000                           
0010001300273T 020180230000002544776 29647041515528150   7               01042017000000000006000001024252                         0900000000000010000000000000000000000000000000000000000   0000000000000000000000000A9        170192964704     
0010001300274U 020000000000000000000000000000000000000000000000000000000000000000000000000000000000000000000000000000000000000000000000003003201700000000            000000000000000                              000                           
0010001300275T 020180230000002544776 29647041515655869   7               01042017000000000008000001000132                         0900000000000010000000000000000000000000000000000000000   0000000000000000000000000A9        170192964704     
0010001300276U 020000000000000000000000000000000000000000000000000000000000000000000000000000000000000000000000000000000000000000000000003003201700000000            000000000000000                              000                           
0010001300277T 020180230000002544776 29647041515849364   7               01042017000000000006000001016179                         0900000000000010000000000000000000000000000000000000000   0000000000000000000000000A9        170192964704     
0010001300278U 020000000000000000000000000000000000000000000000000000000000000000000000000000000000000000000000000000000000000000000000003003201700000000            000000000000000                              000                           
0010001300279T 020180230000002544776 29647041515932653   7               01042017000000000008000001016179                         0900000000000010000000000000000000000000000000000000000   0000000000000000000000000A9        170192964704     
0010001300280U 020000000000000000000000000000000000000000000000000000000000000000000000000000000000000000000000000000000000000000000000003003201700000000            000000000000000                              000                           
0010001300281T 020180230000002544776 29647041516017890   7               01042017000000000008000001028029                         0900000000000010000000000000000000000000000000000000000   0000000000000000000000000A9        170192964704     
0010001300282U 020000000000000000000000000000000000000000000000000000000000000000000000000000000000000000000000000000000000000000000000003003201700000000            000000000000000                              000                           
0010001300283T 020180230000002544776 29647041516100265   7               01042017000000000008000001014699                         0900000000000010000000000000000000000000000000000000000   0000000000000000000000000A9        170192964704     
0010001300284U 020000000000000000000000000000000000000000000000000000000000000000000000000000000000000000000000000000000000000000000000003003201700000000            000000000000000                              000                           
0010001300285T 020180230000002544776 29647041516250640   7               01042017000000000006000001008214                         0900000000000010000000000000000000000000000000000000000   0000000000000000000000000A9        170192964704     
0010001300286U 020000000000000000000000000000000000000000000000000000000000000000000000000000000000000000000000000000000000000000000000003003201700000000            000000000000000                              000                           
0010001300287T 020180230000002544776 29647041516335464   7               01042017000000000006000001000671                         0900000000000010000000000000000000000000000000000000000   0000000000000000000000000A9        170192964704     
0010001300288U 020000000000000000000000000000000000000000000000000000000000000000000000000000000000000000000000000000000000000000000000003003201700000000            000000000000000                              000                           
0010001300289T 020180230000002544776 29647041516530119   7               01042017000000000006000001001287                         0900000000000010000000000000000000000000000000000000000   0000000000000000000000000A9        170192964704     
0010001300290U 020000000000000000000000000000000000000000000000000000000000000000000000000000000000000000000000000000000000000000000000003003201700000000            000000000000000                              000                           
0010001300291T 020180230000002544776 29647041516547125   7               01042017000000000006000001001287                         0900000000000010000000000000000000000000000000000000000   0000000000000000000000000A9        170192964704     
0010001300292U 020000000000000000000000000000000000000000000000000000000000000000000000000000000000000000000000000000000000000000000000003003201700000000            000000000000000                              000                           
0010001300293T 020180230000002544776 29647041516713025   7               01042017000000000008000001000132                         0900000000000010000000000000000000000000000000000000000   0000000000000000000000000A9        170192964704     
0010001300294U 020000000000000000000000000000000000000000000000000000000000000000000000000000000000000000000000000000000000000000000000003003201700000000            000000000000000                              000                           
0010001300295T 020180230000002544776 29647041516820194   7               01042017000000000008000001030864                         0900000000000010000000000000000000000000000000000000000   0000000000000000000000000A9        170192964704     
0010001300296U 020000000000000000000000000000000000000000000000000000000000000000000000000000000000000000000000000000000000000000000000003003201700000000            000000000000000                              000                           
0010001300297T 020180230000002544776 29647041516904701   7               01042017000000000006000001018376                         0900000000000010000000000000000000000000000000000000000   0000000000000000000000000A9        170192964704     
0010001300298U 020000000000000000000000000000000000000000000000000000000000000000000000000000000000000000000000000000000000000000000000003003201700000000            000000000000000                              000                           
0010001300299T 020180230000002544776 29647041517029204   7               01042017000000000006000001028029                         0900000000000010000000000000000000000000000000000000000   0000000000000000000000000A9        170192964704     
0010001300300U 020000000000000000000000000000000000000000000000000000000000000000000000000000000000000000000000000000000000000000000000003003201700000000            000000000000000                              000                           
0010001300301T 020180230000002544776 29647041517231627   7               01042017000000000006000001018376                         0900000000000010000000000000000000000000000000000000000   0000000000000000000000000A9        170192964704     
0010001300302U 020000000000000000000000000000000000000000000000000000000000000000000000000000000000000000000000000000000000000000000000003003201700000000            000000000000000                              000                           
0010001300303T 020180230000002544776 29647041517349034   7               01042017000000000006000001028029                         0900000000000010000000000000000000000000000000000000000   0000000000000000000000000A9        170192964704     
0010001300304U 020000000000000000000000000000000000000000000000000000000000000000000000000000000000000000000000000000000000000000000000003003201700000000            000000000000000                              000                           
0010001300305T 020180230000002544776 29647041517416743   7               01042017000000000006000001035041                         0900000000000010000000000000000000000000000000000000000   0000000000000000000000000A9        170192964704     
0010001300306U 020000000000000000000000000000000000000000000000000000000000000000000000000000000000000000000000000000000000000000000000003003201700000000            000000000000000                              000                           
0010001300307T 020180230000002544776 29647041517538447   7               01042017000000000006000001016179                         0900000000000010000000000000000000000000000000000000000   0000000000000000000000000A9        170192964704     
0010001300308U 020000000000000000000000000000000000000000000000000000000000000000000000000000000000000000000000000000000000000000000000003003201700000000            000000000000000                              000                           
0010001300309T 020180230000002544776 29647041517701189   7               01042017000000000006000001023655                         0900000000000010000000000000000000000000000000000000000   0000000000000000000000000A9        170192964704     
0010001300310U 020000000000000000000000000000000000000000000000000000000000000000000000000000000000000000000000000000000000000000000000003003201700000000            000000000000000                              000                           
0010001300311T 020180230000002544776 29647041517808147   7               01042017000000000006000001011398                         0900000000000010000000000000000000000000000000000000000   0000000000000000000000000A9        170192964704     
0010001300312U 020000000000000000000000000000000000000000000000000000000000000000000000000000000000000000000000000000000000000000000000003003201700000000            000000000000000                              000                           
0010001300313T 020180230000002544776 29647041517921848   7               01042017000000000006000001012688                         0900000000000010000000000000000000000000000000000000000   0000000000000000000000000A9        170192964704     
0010001300314U 020000000000000000000000000000000000000000000000000000000000000000000000000000000000000000000000000000000000000000000000003003201700000000            000000000000000                              000                           
0010001300315T 020180230000002544776 29647041518031605   7               01042017000000000006000001016179                         0900000000000010000000000000000000000000000000000000000   0000000000000000000000000A9        170192964704     
0010001300316U 020000000000000000000000000000000000000000000000000000000000000000000000000000000000000000000000000000000000000000000000003003201700000000            000000000000000                              000                           
0010001300317T 020180230000002544776 29647041518214243   7               01042017000000000006000001023655                         0900000000000010000000000000000000000000000000000000000   0000000000000000000000000A9        170192964704     
0010001300318U 020000000000000000000000000000000000000000000000000000000000000000000000000000000000000000000000000000000000000000000000003003201700000000            000000000000000                              000                           
0010001300319T 020180230000002544776 29647041518339610   7               01042017000000000006000001028029                         0900000000000010000000000000000000000000000000000000000   0000000000000000000000000A9        170192964704     
0010001300320U 020000000000000000000000000000000000000000000000000000000000000000000000000000000000000000000000000000000000000000000000003003201700000000            000000000000000                              000                           
0010001300321T 020180230000002544776 29647041518448617   7               01042017000000000006000001016179                         0900000000000010000000000000000000000000000000000000000   0000000000000000000000000A9        170192964704     
0010001300322U 020000000000000000000000000000000000000000000000000000000000000000000000000000000000000000000000000000000000000000000000003003201700000000            000000000000000                              000                           
0010001300323T 020180230000002544776 29647041518515011   7               0104201700000000000600000102256X                         0900000000000010000000000000000000000000000000000000000   0000000000000000000000000A9        170192964704     
0010001300324U 020000000000000000000000000000000000000000000000000000000000000000000000000000000000000000000000000000000000000000000000003003201700000000            000000000000000                              000                           
0010001300325T 020180230000002544776 29647041518621745   7               01042017000000000006000001000132                         0900000000000010000000000000000000000000000000000000000   0000000000000000000000000A9        170192964704     
0010001300326U 020000000000000000000000000000000000000000000000000000000000000000000000000000000000000000000000000000000000000000000000003003201700000000            000000000000000                              000                           
0010001300327T 020180230000002544776 29647041518848472   7               01042017000000000006000001000981                         0900000000000010000000000000000000000000000000000000000   0000000000000000000000000A9        170192964704     
0010001300328U 020000000000000000000000000000000000000000000000000000000000000000000000000000000000000000000000000000000000000000000000003003201700000000            000000000000000                              000                           
0010001300329T 020180230000002544776 29647041518952882   7               01042017000000000006000001033316                         0900000000000010000000000000000000000000000000000000000   0000000000000000000000000A9        170192964704     
0010001300330U 020000000000000000000000000000000000000000000000000000000000000000000000000000000000000000000000000000000000000000000000003003201700000000            000000000000000                              000                           
0010001300331T 020180230000002544776 29647041519039602   7               01042017000000000006000001000132                         0900000000000010000000000000000000000000000000000000000   0000000000000000000000000A9        170192964704     
0010001300332U 020000000000000000000000000000000000000000000000000000000000000000000000000000000000000000000000000000000000000000000000003003201700000000            000000000000000                              000                           
0010001300333T 020180230000002544776 29647041519313431   7               01042017000000000008000001028029                         0900000000000010000000000000000000000000000000000000000   0000000000000000000000000A9        170192964704     
0010001300334U 020000000000000000000000000000000000000000000000000000000000000000000000000000000000000000000000000000000000000000000000003003201700000000            000000000000000                              000                           
0010001300335T 020180230000002544776 29647041519516164   7               01042017000000000006000001018376                         0900000000000010000000000000000000000000000000000000000   0000000000000000000000000A9        170192964704     
0010001300336U 020000000000000000000000000000000000000000000000000000000000000000000000000000000000000000000000000000000000000000000000003003201700000000            000000000000000                              000                           
0010001300337T 020180230000002544776 29647041519554168   7               01042017000000000006000001018376                         0900000000000010000000000000000000000000000000000000000   0000000000000000000000000A9        170192964704     
0010001300338U 020000000000000000000000000000000000000000000000000000000000000000000000000000000000000000000000000000000000000000000000003003201700000000            000000000000000                              000                           
0010001300339T 020180230000002544776 29647041519620859   7               01042017000000000006000001008214                         0900000000000010500000000000000000000000000000000000000   0000000000000000000000000A9A4      170192964704     
0010001300340U 020000000000000000000000000000000000000000000000000000000000000000000000000000000000000000000000000000000000000000000000003003201700000000            000000000000000                              000                           
0010001300341T 020180230000002544776 29647041519720980   7               01042017000000000006000001035041                         0900000000000010000000000000000000000000000000000000000   0000000000000000000000000A9        170192964704     
0010001300342U 020000000000000000000000000000000000000000000000000000000000000000000000000000000000000000000000000000000000000000000000003003201700000000            000000000000000                              000                           
0010001300343T 020180230000002544776 29647041519728600   7               01042017000000000006000001035041                         0900000000000010000000000000000000000000000000000000000   0000000000000000000000000A9        170192964704     
0010001300344U 020000000000000000000000000000000000000000000000000000000000000000000000000000000000000000000000000000000000000000000000003003201700000000            000000000000000                              000                           
0010001300345T 020180230000002544776 29647041519828315   7               01042017000000000006000001028029                         0900000000000010000000000000000000000000000000000000000   0000000000000000000000000A9        170192964704     
0010001300346U 020000000000000000000000000000000000000000000000000000000000000000000000000000000000000000000000000000000000000000000000003003201700000000            000000000000000                              000                           
0010001300347T 020180230000002544776 29647041520042393   7               01042017000000000006000001009636                         0900000000000010000000000000000000000000000000000000000   0000000000000000000000000A9        170192964704     
0010001300348U 020000000000000000000000000000000000000000000000000000000000000000000000000000000000000000000000000000000000000000000000003003201700000000            000000000000000                              000                           
0010001300349T 020180230000002544776 29647041520124277   7               01042017000000000006000001025429                         0900000000000010000000000000000000000000000000000000000   0000000000000000000000000A9        170192964704     
0010001300350U 020000000000000000000000000000000000000000000000000000000000000000000000000000000000000000000000000000000000000000000000003003201700000000            000000000000000                              000                           
0010001300351T 020180230000002544776 29647041520216649   7               01042017000000000006000001020354                         0900000000000010000000000000000000000000000000000000000   0000000000000000000000000A9        170192964704     
0010001300352U 020000000000000000000000000000000000000000000000000000000000000000000000000000000000000000000000000000000000000000000000003003201700000000            000000000000000                              000                           
0010001300353T 020180230000002544776 29647041520325786   7               01042017000000000006000001012688                         0900000000000010500000000000000000000000000000000000000   0000000000000000000000000A9A4      170192964704     
0010001300354U 020000000000000000000000000000000000000000000000000000000000000000000000000000000000000000000000000000000000000000000000003003201700000000            000000000000000                              000                           
0010001300355T 020180230000002544776 29647041520410017   7               01042017000000000006000001016179                         0900000000000010000000000000000000000000000000000000000   0000000000000000000000000A9        170192964704     
0010001300356U 020000000000000000000000000000000000000000000000000000000000000000000000000000000000000000000000000000000000000000000000003003201700000000            000000000000000                              000                           
0010001300357T 020180230000002544776 29647041520508002   7               01042017000000000006000001016667                         0900000000000010000000000000000000000000000000000000000   0000000000000000000000000A9        170192964704     
0010001300358U 020000000000000000000000000000000000000000000000000000000000000000000000000000000000000000000000000000000000000000000000003003201700000000            000000000000000                              000                           
0010001300359T 020180230000002544776 29647041520749738   7               0104201700000000000600000103245X                         0900000000000010000000000000000000000000000000000000000   0000000000000000000000000A9        170192964704     
0010001300360U 020000000000000000000000000000000000000000000000000000000000000000000000000000000000000000000000000000000000000000000000003003201700000000            000000000000000                              000                           
0010001300361T 020180230000002544776 29647041520941675   7               0104201700000000000600000102855X                         0900000000000010000000000000000000000000000000000000000   0000000000000000000000000A9        170192964704     
0010001300362U 020000000000000000000000000000000000000000000000000000000000000000000000000000000000000000000000000000000000000000000000003003201700000000            000000000000000                              000                           
0010001300363T 020180230000002544776 29647041521212670   7               01042017000000000006000001028029                         0900000000000010000000000000000000000000000000000000000   0000000000000000000000000A9        170192964704     
0010001300364U 020000000000000000000000000000000000000000000000000000000000000000000000000000000000000000000000000000000000000000000000003003201700000000            000000000000000                              000                           
0010001300365T 020180230000002544776 29647041521434744   7               01042017000000000006000001016020                         0900000000000010500000000000000000000000000000000000000   0000000000000000000000000A9A4      170192964704     
0010001300366U 020000000000000000000000000000000000000000000000000000000000000000000000000000000000000000000000000000000000000000000000003003201700000000            000000000000000                              000                           
0010001300367T 020180230000002544776 29647041521629081   7               01042017000000000006000001012467                         0900000000000010000000000000000000000000000000000000000   0000000000000000000000000A9        170192964704     
0010001300368U 020000000000000000000000000000000000000000000000000000000000000000000000000000000000000000000000000000000000000000000000003003201700000000            000000000000000                              000                           
0010001300369T 020180230000002544776 29647041521643500   7               01042017000000000006000001012467                         0900000000000010000000000000000000000000000000000000000   0000000000000000000000000A9        170192964704     
0010001300370U 020000000000000000000000000000000000000000000000000000000000000000000000000000000000000000000000000000000000000000000000003003201700000000            000000000000000                              000                           
0010001300371T 020180230000002544776 29647041521643764   7               01042017000000000006000001012467                         0900000000000010000000000000000000000000000000000000000   0000000000000000000000000A9        170192964704     
0010001300372U 020000000000000000000000000000000000000000000000000000000000000000000000000000000000000000000000000000000000000000000000003003201700000000            000000000000000                              000                           
0010001300373T 020180230000002544776 29647041521719208   7               01042017000000000006000001016179                         0900000000000010000000000000000000000000000000000000000   0000000000000000000000000A9        170192964704     
0010001300374U 020000000000000000000000000000000000000000000000000000000000000000000000000000000000000000000000000000000000000000000000003003201700000000            000000000000000                              000                           
0010001300375T 020180230000002544776 29647041521719925   7               01042017000000000006000001016179                         0900000000000010000000000000000000000000000000000000000   0000000000000000000000000A9        170192964704     
0010001300376U 020000000000000000000000000000000000000000000000000000000000000000000000000000000000000000000000000000000000000000000000003003201700000000            000000000000000                              000                           
0010001300377T 020180230000002544776 29647041521755640   7               01042017000000000006000001016179                         0900000000000010000000000000000000000000000000000000000   0000000000000000000000000A9        170192964704     
0010001300378U 020000000000000000000000000000000000000000000000000000000000000000000000000000000000000000000000000000000000000000000000003003201700000000            000000000000000                              000                           
0010001300379T 020180230000002544776 29647041521818348   7               01042017000000000006000001028029                         0900000000000010000000000000000000000000000000000000000   0000000000000000000000000A9        170192964704     
0010001300380U 020000000000000000000000000000000000000000000000000000000000000000000000000000000000000000000000000000000000000000000000003003201700000000            000000000000000                              000                           
0010001300381T 020180230000002544776 29647041521851771   7               01042017000000000006000001028029                         0900000000000010000000000000000000000000000000000000000   0000000000000000000000000A9        170192964704     
0010001300382U 020000000000000000000000000000000000000000000000000000000000000000000000000000000000000000000000000000000000000000000000003003201700000000            000000000000000                              000                           
0010001300383T 020180230000002544776 29647041521935891   7               01042017000000000008000001022756                         0900000000000010000000000000000000000000000000000000000   0000000000000000000000000A9        170192964704     
0010001300384U 020000000000000000000000000000000000000000000000000000000000000000000000000000000000000000000000000000000000000000000000003003201700000000            000000000000000                              000                           
0010001300385T 020180230000002544776 29647041522044318   7               01042017000000000008000001033316                         0900000000000010000000000000000000000000000000000000000   0000000000000000000000000A9        170192964704     
0010001300386U 020000000000000000000000000000000000000000000000000000000000000000000000000000000000000000000000000000000000000000000000003003201700000000            000000000000000                              000                           
0010001300387T 020180230000002544776 29647041522211336   7               01042017000000000006000001011460                         0900000000000010000000000000000000000000000000000000000   0000000000000000000000000A9        170192964704     
0010001300388U 020000000000000000000000000000000000000000000000000000000000000000000000000000000000000000000000000000000000000000000000003003201700000000            000000000000000                              000                           
0010001300389T 020180230000002544776 29647041522240787   7               01042017000000000006000001011460                         0900000000000010000000000000000000000000000000000000000   0000000000000000000000000A9        170192964704     
0010001300390U 020000000000000000000000000000000000000000000000000000000000000000000000000000000000000000000000000000000000000000000000003003201700000000            000000000000000                              000                           
0010001300391T 020180230000002544776 29647041522336513   7               01042017000000000006000001016179                         0900000000000010000000000000000000000000000000000000000   0000000000000000000000000A9        170192964704     
0010001300392U 020000000000000000000000000000000000000000000000000000000000000000000000000000000000000000000000000000000000000000000000003003201700000000            000000000000000                              000                           
0010001300393T 020180230000002544776 29647041522437419   7               01042017000000000006000001018376                         0900000000000010000000000000000000000000000000000000000   0000000000000000000000000A9        170192964704     
0010001300394U 020000000000000000000000000000000000000000000000000000000000000000000000000000000000000000000000000000000000000000000000003003201700000000            000000000000000                              000                           
0010001300395T 020180230000002544776 29647041522553735   7               01042017000000000008000001033316                         0900000000000010000000000000000000000000000000000000000   0000000000000000000000000A9        170192964704     
0010001300396U 020000000000000000000000000000000000000000000000000000000000000000000000000000000000000000000000000000000000000000000000003003201700000000            000000000000000                              000                           
0010001300397T 020180230000002544776 29647041522708280   7               01042017000000000006000001005703                         0900000000000010000000000000000000000000000000000000000   0000000000000000000000000A9        170192964704     
0010001300398U 020000000000000000000000000000000000000000000000000000000000000000000000000000000000000000000000000000000000000000000000003003201700000000            000000000000000                              000                           
0010001300399T 020180230000002544776 29647041523101713   7               01042017000000000006000001020354                         0900000000000010500000000000000000000000000000000000000   0000000000000000000000000A9A4      170192964704     
0010001300400U 020000000000000000000000000000000000000000000000000000000000000000000000000000000000000000000000000000000000000000000000003003201700000000            000000000000000                              000                           
0010001300401T 020180230000002544776 29647041523546757   7               0104201700000000000800000101981X                         0900000000000010000000000000000000000000000000000000000   0000000000000000000000000A9        170192964704     
0010001300402U 020000000000000000000000000000000000000000000000000000000000000000000000000000000000000000000000000000000000000000000000003003201700000000            000000000000000                              000                           
0010001300403T 020180230000002544776 29647041523638704   7               01042017000000000006000001000493                         0900000000000010000000000000000000000000000000000000000   0000000000000000000000000A9        170192964704     
0010001300404U 020000000000000000000000000000000000000000000000000000000000000000000000000000000000000000000000000000000000000000000000003003201700000000            000000000000000                              000                           
0010001300405T 020180230000002544776 29647041523656049   7               01042017000000000006000001000493                         0900000000000010000000000000000000000000000000000000000   0000000000000000000000000A9        170192964704     
0010001300406U 020000000000000000000000000000000000000000000000000000000000000000000000000000000000000000000000000000000000000000000000003003201700000000            000000000000000                              000                           
0010001300407T 020180230000002544776 29647041523725703   7               01042017000000000006000001016179                         0900000000000010000000000000000000000000000000000000000   0000000000000000000000000A9        170192964704     
0010001300408U 020000000000000000000000000000000000000000000000000000000000000000000000000000000000000000000000000000000000000000000000003003201700000000            000000000000000                              000                           
0010001300409T 020180230000002544776 29647041523846442   7               01042017000000000006000001001597                         0900000000000010000000000000000000000000000000000000000   0000000000000000000000000A9        170192964704     
0010001300410U 020000000000000000000000000000000000000000000000000000000000000000000000000000000000000000000000000000000000000000000000003003201700000000            000000000000000                              000                           
0010001300411T 020180230000002544776 29647041524041818   7               01042017000000000008000001005428                         0900000000000010000000000000000000000000000000000000000   0000000000000000000000000A9        170192964704     
0010001300412U 020000000000000000000000000000000000000000000000000000000000000000000000000000000000000000000000000000000000000000000000003003201700000000            000000000000000                              000                           
