00100000         2247745860001000029647040014       0180230000002544776 INSTITUTO DE SELECAO E TECNOLOBANCO DO BRASIL                         23103201701140700008603000000515122941PROCESSAMEN                                                 
00100011T0100020 20247745860001000029647040014       0180230000002544776 INSTITUTO DE SELECAO E TECNOLO                                                                                000000003103201700000000  000000000                      
0010001300001T 020180230000002544776 29647040548804933   7               02042017000000000006000001018376                         0900000000000010000000000000000000000000000000000000000   0000000000000000000000000A9        170192964704     
0010001300002U 020000000000000000000000000000000000000000000000000000000000000000000000000000000000000000000000000000000000000000000000003103201700000000            000000000000000                              000                           
0010001300003T 020180230000002544776 29647040552601874   7               02042017000000000006000001050725                         0900000000000010000000000000000000000000000000000000000   0000000000000000000000000A9        170192964704     
0010001300004U 020000000000000000000000000000000000000000000000000000000000000000000000000000000000000000000000000000000000000000000000003103201700000000            000000000000000                              000                           
0010001300005T 020180230000002544776 29647040588513408   7               02042017000000000006000001000132                         0900000000000010000000000000000000000000000000000000000   0000000000000000000000000A9        170192964704     
0010001300006U 020000000000000000000000000000000000000000000000000000000000000000000000000000000000000000000000000000000000000000000000003103201700000000            000000000000000                              000                           
0010001300007T 020180230000002544776 29647040588543654   7               02042017000000000006000001000132                         0900000000000010000000000000000000000000000000000000000   0000000000000000000000000A9        170192964704     
0010001300008U 020000000000000000000000000000000000000000000000000000000000000000000000000000000000000000000000000000000000000000000000003103201700000000            000000000000000                              000                           
0010001300009T 020180230000002544776 29647040588549796   7               02042017000000000006000001000132                         0900000000000010000000000000000000000000000000000000000   0000000000000000000000000A9        170192964704     
0010001300010U 020000000000000000000000000000000000000000000000000000000000000000000000000000000000000000000000000000000000000000000000003103201700000000            000000000000000                              000                           
0010001300011T 020180230000002544776 29647040631154985   7               01042017000000000008000001033316                         0900000000000010500000000000000000000000000000000000000   0000000000000000000000000A9A4      170192964704     
0010001300012U 020000000000000000000000000000000000000000000000000000000000000000000000000000000000000000000000000000000000000000000000003003201700000000            000000000000000                              000                           
0010001300013T 020180230000002544776 29647040664615948   7               02042017000000000006000001028029                         0900000000000010000000000000000000000000000000000000000   0000000000000000000000000A9        170192964704     
0010001300014U 020000000000000000000000000000000000000000000000000000000000000000000000000000000000000000000000000000000000000000000000003103201700000000            000000000000000                              000                           
0010001300015T 020180230000002544776 29647040675517979   7               02042017000000000006000001012688                         0900000000000010000000000000000000000000000000000000000   0000000000000000000000000A9        170192964704     
0010001300016U 020000000000000000000000000000000000000000000000000000000000000000000000000000000000000000000000000000000000000000000000003103201700000000            000000000000000                              000                           
0010001300017T 020180230000002544776 29647040676835391   7               02042017000000000006000001023655                         0900000000000010500000000000000000000000000000000000000   0000000000000000000000000A9A4      170192964704     
0010001300018U 020000000000000000000000000000000000000000000000000000000000000000000000000000000000000000000000000000000000000000000000003103201700000000            000000000000000                              000                           
0010001300019T 020180230000002544776 29647040704318226   7               02042017000000000006000001012467                         0900000000000010000000000000000000000000000000000000000   0000000000000000000000000A9        170192964704     
0010001300020U 020000000000000000000000000000000000000000000000000000000000000000000000000000000000000000000000000000000000000000000000003103201700000000            000000000000000                              000                           
0010001300021T 020180230000002544776 29647040704529447   7               02042017000000000006000001008249                         0900000000000010000000000000000000000000000000000000000   0000000000000000000000000A9        170192964704     
0010001300022U 020000000000000000000000000000000000000000000000000000000000000000000000000000000000000000000000000000000000000000000000003103201700000000            000000000000000                              000                           
0010001300023T 020180230000002544776 29647040716752574   7               02042017000000000008000001033316                         0900000000000010000000000000000000000000000000000000000   0000000000000000000000000A9        170192964704     
0010001300024U 020000000000000000000000000000000000000000000000000000000000000000000000000000000000000000000000000000000000000000000000003103201700000000            000000000000000                              000                           
0010001300025T 020180230000002544776 29647040721621853   7               02042017000000000006000001016179                         0900000000000010000000000000000000000000000000000000000   0000000000000000000000000A9        170192964704     
0010001300026U 020000000000000000000000000000000000000000000000000000000000000000000000000000000000000000000000000000000000000000000000003103201700000000            000000000000000                              000                           
0010001300027T 020180230000002544776 29647040739000197   7               02042017000000000006000001016179                         0900000000000010000000000000000000000000000000000000000   0000000000000000000000000A9        170192964704     
0010001300028U 020000000000000000000000000000000000000000000000000000000000000000000000000000000000000000000000000000000000000000000000003103201700000000            000000000000000                              000                           
0010001300029T 020180230000002544776 29647040815528055   7               02042017000000000006000001000132                         0900000000000010000000000000000000000000000000000000000   0000000000000000000000000A9        170192964704     
0010001300030U 020000000000000000000000000000000000000000000000000000000000000000000000000000000000000000000000000000000000000000000000003103201700000000            000000000000000                              000                           
0010001300031T 020180230000002544776 29647040885808527   7               02042017000000000006000001025429                         0900000000000010000000000000000000000000000000000000000   0000000000000000000000000A9        170192964704     
0010001300032U 020000000000000000000000000000000000000000000000000000000000000000000000000000000000000000000000000000000000000000000000003103201700000000            000000000000000                              000                           
0010001300033T 020180230000002544776 29647040887258843   7               02042017000000000008000001010421                         0900000000000010000000000000000000000000000000000000000   0000000000000000000000000A9        170192964704     
0010001300034U 020000000000000000000000000000000000000000000000000000000000000000000000000000000000000000000000000000000000000000000000003103201700000000            000000000000000                              000                           
0010001300035T 020180230000002544776 29647040917528342   7               02042017000000000008000001005428                         0900000000000010000000000000000000000000000000000000000   0000000000000000000000000A9        170192964704     
0010001300036U 020000000000000000000000000000000000000000000000000000000000000000000000000000000000000000000000000000000000000000000000003103201700000000            000000000000000                              000                           
0010001300037T 020180230000002544776 29647040932219035   7               02042017000000000006000001033316                         0900000000000010000000000000000000000000000000000000000   0000000000000000000000000A9        170192964704     
0010001300038U 020000000000000000000000000000000000000000000000000000000000000000000000000000000000000000000000000000000000000000000000003103201700000000            000000000000000                              000                           
0010001300039T 020180230000002544776 29647040951712164   7               02042017000000000006000001018376                         0900000000000010000000000000000000000000000000000000000   0000000000000000000000000A9        170192964704     
0010001300040U 020000000000000000000000000000000000000000000000000000000000000000000000000000000000000000000000000000000000000000000000003103201700000000            000000000000000                              000                           
0010001300041T 020180230000002544776 29647040957550229   7               02042017000000000006000001018376                         0900000000000010000000000000000000000000000000000000000   0000000000000000000000000A9        170192964704     
0010001300042U 020000000000000000000000000000000000000000000000000000000000000000000000000000000000000000000000000000000000000000000000003103201700000000            000000000000000                              000                           
0010001300043T 020180230000002544776 29647040959239969   7               02042017000000000006000001033316                         0900000000000010000000000000000000000000000000000000000   0000000000000000000000000A9        170192964704     
0010001300044U 020000000000000000000000000000000000000000000000000000000000000000000000000000000000000000000000000000000000000000000000003103201700000000            000000000000000                              000                           
0010001300045T 020180230000002544776 29647041003156252   7               02042017000000000006000001000132                         0900000000000010500000000000000000000000000000000000000   0000000000000000000000000A9A4      170192964704     
0010001300046U 020000000000000000000000000000000000000000000000000000000000000000000000000000000000000000000000000000000000000000000000003103201700000000            000000000000000                              000                           
0010001300047T 020180230000002544776 29647041006632740   7               02042017000000000006000001011398                         0900000000000010000000000000000000000000000000000000000   0000000000000000000000000A9        170192964704     
0010001300048U 020000000000000000000000000000000000000000000000000000000000000000000000000000000000000000000000000000000000000000000000003103201700000000            000000000000000                              000                           
0010001300049T 020180230000002544776 29647041022002136   7               02042017000000000006000001038024                         0900000000000010000000000000000000000000000000000000000   0000000000000000000000000A9        170192964704     
0010001300050U 020000000000000000000000000000000000000000000000000000000000000000000000000000000000000000000000000000000000000000000000003103201700000000            000000000000000                              000                           
0010001300051T 020180230000002544776 29647041103202832   7               02042017000000000006000001013617                         0900000000000010000000000000000000000000000000000000000   0000000000000000000000000A9        170192964704     
0010001300052U 020000000000000000000000000000000000000000000000000000000000000000000000000000000000000000000000000000000000000000000000003103201700000000            000000000000000                              000                           
0010001300053T 020180230000002544776 29647041103249789   7               02042017000000000006000001013617                         0900000000000010000000000000000000000000000000000000000   0000000000000000000000000A9        170192964704     
0010001300054U 020000000000000000000000000000000000000000000000000000000000000000000000000000000000000000000000000000000000000000000000003103201700000000            000000000000000                              000                           
0010001300055T 020180230000002544776 29647041151644876   7               01042017000000000006000001012467                         0900000000000010000000000000000000000000000000000000000   0000000000000000000000000A9        170192964704     
0010001300056U 020000000000000000000000000000000000000000000000000000000000000000000000000000000000000000000000000000000000000000000000003003201700000000            000000000000000                              000                           
0010001300057T 020180230000002544776 29647041185449547   7               02042017000000000006000001014699                         0900000000000010000000000000000000000000000000000000000   0000000000000000000000000A9        170192964704     
0010001300058U 020000000000000000000000000000000000000000000000000000000000000000000000000000000000000000000000000000000000000000000000003103201700000000            000000000000000                              000                           
0010001300059T 020180230000002544776 29647041190302303   7               02042017000000000006000001000132                         0900000000000010000000000000000000000000000000000000000   0000000000000000000000000A9        170192964704     
0010001300060U 020000000000000000000000000000000000000000000000000000000000000000000000000000000000000000000000000000000000000000000000003103201700000000            000000000000000                              000                           
0010001300061T 020180230000002544776 29647041193450409   7               02042017000000000006000001006734                         0900000000000010000000000000000000000000000000000000000   0000000000000000000000000A9        170192964704     
0010001300062U 020000000000000000000000000000000000000000000000000000000000000000000000000000000000000000000000000000000000000000000000003103201700000000            000000000000000                              000                           
0010001300063T 020180230000002544776 29647041228058225   7               02042017000000000006000001033316                         0900000000000010500000000000000000000000000000000000000   0000000000000000000000000A9A4      170192964704     
0010001300064U 020000000000000000000000000000000000000000000000000000000000000000000000000000000000000000000000000000000000000000000000003103201700000000            000000000000000                              000                           
0010001300065T 020180230000002544776 29647041230124862   7               02042017000000000006000001010421                         0900000000000010000000000000000000000000000000000000000   0000000000000000000000000A9        170192964704     
0010001300066U 020000000000000000000000000000000000000000000000000000000000000000000000000000000000000000000000000000000000000000000000003103201700000000            000000000000000                              000                           
0010001300067T 020180230000002544776 29647041231835477   7               02042017000000000008000001016179                         0900000000000010000000000000000000000000000000000000000   0000000000000000000000000A9        170192964704     
0010001300068U 020000000000000000000000000000000000000000000000000000000000000000000000000000000000000000000000000000000000000000000000003103201700000000            000000000000000                              000                           
0010001300069T 020180230000002544776 29647041247826470   7               02042017000000000008000001001511                         0900000000000010000000000000000000000000000000000000000   0000000000000000000000000A9        170192964704     
0010001300070U 020000000000000000000000000000000000000000000000000000000000000000000000000000000000000000000000000000000000000000000000003103201700000000            000000000000000                              000                           
0010001300071T 020180230000002544776 29647041266003955   7               02042017000000000006000001011444                         0900000000000010000000000000000000000000000000000000000   0000000000000000000000000A9        170192964704     
0010001300072U 020000000000000000000000000000000000000000000000000000000000000000000000000000000000000000000000000000000000000000000000003103201700000000            000000000000000                              000                           
0010001300073T 020180230000002544776 29647041268526772   7               02042017000000000008000001023655                         0900000000000010000000000000000000000000000000000000000   0000000000000000000000000A9        170192964704     
0010001300074U 020000000000000000000000000000000000000000000000000000000000000000000000000000000000000000000000000000000000000000000000003103201700000000            000000000000000                              000                           
0010001300075T 020180230000002544776 29647041269440003   7               02042017000000000006000001012467                         0900000000000010000000000000000000000000000000000000000   0000000000000000000000000A9        170192964704     
0010001300076U 020000000000000000000000000000000000000000000000000000000000000000000000000000000000000000000000000000000000000000000000003103201700000000            000000000000000                              000                           
0010001300077T 020180230000002544776 29647041275929591   7               02042017000000000006000001028029                         0900000000000010000000000000000000000000000000000000000   0000000000000000000000000A9        170192964704     
0010001300078U 020000000000000000000000000000000000000000000000000000000000000000000000000000000000000000000000000000000000000000000000003103201700000000            000000000000000                              000                           
0010001300079T 020180230000002544776 29647041299720124   7               02042017000000000006000001008214                         0900000000000010000000000000000000000000000000000000000   0000000000000000000000000A9        170192964704     
0010001300080U 020000000000000000000000000000000000000000000000000000000000000000000000000000000000000000000000000000000000000000000000003103201700000000            000000000000000                              000                           
0010001300081T 020180230000002544776 29647041308847532   7               02042017000000000006000001018376                         0900000000000010000000000000000000000000000000000000000   0000000000000000000000000A9        170192964704     
0010001300082U 020000000000000000000000000000000000000000000000000000000000000000000000000000000000000000000000000000000000000000000000003103201700000000            000000000000000                              000                           
0010001300083T 020180230000002544776 29647041309925845   7               02042017000000000006000001016179                         0900000000000010000000000000000000000000000000000000000   0000000000000000000000000A9        170192964704     
0010001300084U 020000000000000000000000000000000000000000000000000000000000000000000000000000000000000000000000000000000000000000000000003103201700000000            000000000000000                              000                           
0010001300085T 020180230000002544776 29647041319323828   7               02042017000000000006000001025089                         0900000000000010000000000000000000000000000000000000000   0000000000000000000000000A9        170192964704     
0010001300086U 020000000000000000000000000000000000000000000000000000000000000000000000000000000000000000000000000000000000000000000000003103201700000000            000000000000000                              000                           
0010001300087T 020180230000002544776 29647041325457482   7               02042017000000000006000001033316                         0900000000000010000000000000000000000000000000000000000   0000000000000000000000000A9        170192964704     
0010001300088U 020000000000000000000000000000000000000000000000000000000000000000000000000000000000000000000000000000000000000000000000003103201700000000            000000000000000                              000                           
0010001300089T 020180230000002544776 29647041344158883   7               02042017000000000006000001000132                         0900000000000010000000000000000000000000000000000000000   0000000000000000000000000A9        170192964704     
0010001300090U 020000000000000000000000000000000000000000000000000000000000000000000000000000000000000000000000000000000000000000000000003103201700000000            000000000000000                              000                           
0010001300091T 020180230000002544776 29647041348734804   7               02042017000000000006000001000132                         0900000000000010000000000000000000000000000000000000000   0000000000000000000000000A9        170192964704     
0010001300092U 020000000000000000000000000000000000000000000000000000000000000000000000000000000000000000000000000000000000000000000000003103201700000000            000000000000000                              000                           
0010001300093T 020180230000002544776 29647041352617831   7               02042017000000000006000001023655                         0900000000000010000000000000000000000000000000000000000   0000000000000000000000000A9        170192964704     
0010001300094U 020000000000000000000000000000000000000000000000000000000000000000000000000000000000000000000000000000000000000000000000003103201700000000            000000000000000                              000                           
0010001300095T 020180230000002544776 29647041352620655   7               02042017000000000006000001023655                         0900000000000010000000000000000000000000000000000000000   0000000000000000000000000A9        170192964704     
0010001300096U 020000000000000000000000000000000000000000000000000000000000000000000000000000000000000000000000000000000000000000000000003103201700000000            000000000000000                              000                           
0010001300097T 020180230000002544776 29647041367023603   7               02042017000000000006000001028029                         0900000000000010000000000000000000000000000000000000000   0000000000000000000000000A9        170192964704     
0010001300098U 020000000000000000000000000000000000000000000000000000000000000000000000000000000000000000000000000000000000000000000000003103201700000000            000000000000000                              000                           
0010001300099T 020180230000002544776 29647041384129094   7               02042017000000000006000001016179                         0900000000000010000000000000000000000000000000000000000   0000000000000000000000000A9        170192964704     
0010001300100U 020000000000000000000000000000000000000000000000000000000000000000000000000000000000000000000000000000000000000000000000003103201700000000            000000000000000                              000                           
0010001300101T 020180230000002544776 29647041384136180   7               02042017000000000006000001016179                         0900000000000010000000000000000000000000000000000000000   0000000000000000000000000A9        170192964704     
0010001300102U 020000000000000000000000000000000000000000000000000000000000000000000000000000000000000000000000000000000000000000000000003103201700000000            000000000000000                              000                           
0010001300103T 020180230000002544776 29647041398112268   7               02042017000000000006000001023655                         0900000000000010000000000000000000000000000000000000000   0000000000000000000000000A9        170192964704     
0010001300104U 020000000000000000000000000000000000000000000000000000000000000000000000000000000000000000000000000000000000000000000000003103201700000000            000000000000000                              000                           
0010001300105T 020180230000002544776 29647041405342222   7               02042017000000000006000001016179                         0900000000000010000000000000000000000000000000000000000   0000000000000000000000000A9        170192964704     
0010001300106U 020000000000000000000000000000000000000000000000000000000000000000000000000000000000000000000000000000000000000000000000003103201700000000            000000000000000                              000                           
0010001300107T 020180230000002544776 29647041405358369   7               02042017000000000006000001016179                         0900000000000010000000000000000000000000000000000000000   0000000000000000000000000A9        170192964704     
0010001300108U 020000000000000000000000000000000000000000000000000000000000000000000000000000000000000000000000000000000000000000000000003103201700000000            000000000000000                              000                           
0010001300109T 020180230000002544776 29647041416118993   7               02042017000000000006000001000361                         0900000000000010000000000000000000000000000000000000000   0000000000000000000000000A9        170192964704     
0010001300110U 020000000000000000000000000000000000000000000000000000000000000000000000000000000000000000000000000000000000000000000000003103201700000000            000000000000000                              000                           
0010001300111T 020180230000002544776 29647041418931058   7               02042017000000000006000001018376                         0900000000000010000000000000000000000000000000000000000   0000000000000000000000000A9        170192964704     
0010001300112U 020000000000000000000000000000000000000000000000000000000000000000000000000000000000000000000000000000000000000000000000003103201700000000            000000000000000                              000                           
0010001300113T 020180230000002544776 29647041418931992   7               02042017000000000006000001018376                         0900000000000010000000000000000000000000000000000000000   0000000000000000000000000A9        170192964704     
0010001300114U 020000000000000000000000000000000000000000000000000000000000000000000000000000000000000000000000000000000000000000000000003103201700000000            000000000000000                              000                           
0010001300115T 020180230000002544776 29647041436122872   7               02042017000000000006000001013617                         0900000000000010000000000000000000000000000000000000000   0000000000000000000000000A9        170192964704     
0010001300116U 020000000000000000000000000000000000000000000000000000000000000000000000000000000000000000000000000000000000000000000000003103201700000000            000000000000000                              000                           
0010001300117T 020180230000002544776 29647041446950410   7               01042017000000000006000001002208                         0900000000000010000000000000000000000000000000000000000   0000000000000000000000000A9        170192964704     
0010001300118U 020000000000000000000000000000000000000000000000000000000000000000000000000000000000000000000000000000000000000000000000003003201700000000            000000000000000                              000                           
0010001300119T 020180230000002544776 29647041451022558   7               02042017000000000008000001005428                         0900000000000010000000000000000000000000000000000000000   0000000000000000000000000A9        170192964704     
0010001300120U 020000000000000000000000000000000000000000000000000000000000000000000000000000000000000000000000000000000000000000000000003103201700000000            000000000000000                              000                           
0010001300121T 020180230000002544776 29647041453637786   7               02042017000000000006000001028029                         0900000000000010500000000000000000000000000000000000000   0000000000000000000000000A9A4      170192964704     
0010001300122U 020000000000000000000000000000000000000000000000000000000000000000000000000000000000000000000000000000000000000000000000003103201700000000            000000000000000                              000                           
0010001300123T 020180230000002544776 29647041461923729   7               02042017000000000006000001016489                         0900000000000010000000000000000000000000000000000000000   0000000000000000000000000A9        170192964704     
0010001300124U 020000000000000000000000000000000000000000000000000000000000000000000000000000000000000000000000000000000000000000000000003103201700000000            000000000000000                              000                           
0010001300125T 020180230000002544776 29647041476652114   7               02042017000000000006000001016179                         0900000000000010000000000000000000000000000000000000000   0000000000000000000000000A9        170192964704     
0010001300126U 020000000000000000000000000000000000000000000000000000000000000000000000000000000000000000000000000000000000000000000000003103201700000000            000000000000000                              000                           
0010001300127T 020180230000002544776 29647041480446175   7               02042017000000000006000001028029                         0900000000000010000000000000000000000000000000000000000   0000000000000000000000000A9        170192964704     
0010001300128U 020000000000000000000000000000000000000000000000000000000000000000000000000000000000000000000000000000000000000000000000003103201700000000            000000000000000                              000                           
0010001300129T 020180230000002544776 29647041481200017   7               02042017000000000006000001000132                         0900000000000010000000000000000000000000000000000000000   0000000000000000000000000A9        170192964704     
0010001300130U 020000000000000000000000000000000000000000000000000000000000000000000000000000000000000000000000000000000000000000000000003103201700000000            000000000000000                              000                           
0010001300131T 020180230000002544776 29647041483956712   7               02042017000000000006000001023655                         0900000000000010000000000000000000000000000000000000000   0000000000000000000000000A9        170192964704     
0010001300132U 020000000000000000000000000000000000000000000000000000000000000000000000000000000000000000000000000000000000000000000000003103201700000000            000000000000000                              000                           
0010001300133T 020180230000002544776 29647041486421275   7               02042017000000000008000001016179                         0900000000000010000000000000000000000000000000000000000   0000000000000000000000000A9        170192964704     
0010001300134U 020000000000000000000000000000000000000000000000000000000000000000000000000000000000000000000000000000000000000000000000003103201700000000            000000000000000                              000                           
0010001300135T 020180230000002544776 29647041487535018   7               0204201700000000000600000101981X                         0900000000000010000000000000000000000000000000000000000   0000000000000000000000000A9        170192964704     
0010001300136U 020000000000000000000000000000000000000000000000000000000000000000000000000000000000000000000000000000000000000000000000003103201700000000            000000000000000                              000                           
0010001300137T 020180230000002544776 29647041489205861   7               02042017000000000006000001035041                         0900000000000010000000000000000000000000000000000000000   0000000000000000000000000A9        170192964704     
0010001300138U 020000000000000000000000000000000000000000000000000000000000000000000000000000000000000000000000000000000000000000000000003103201700000000            000000000000000                              000                           
0010001300139T 020180230000002544776 29647041490145854   7               02042017000000000008000001000132                         0900000000000010000000000000000000000000000000000000000   0000000000000000000000000A9        170192964704     
0010001300140U 020000000000000000000000000000000000000000000000000000000000000000000000000000000000000000000000000000000000000000000000003103201700000000            000000000000000                              000                           
0010001300141T 020180230000002544776 29647041497520874   7               02042017000000000006000001028029                         0900000000000010000000000000000000000000000000000000000   0000000000000000000000000A9        170192964704     
0010001300142U 020000000000000000000000000000000000000000000000000000000000000000000000000000000000000000000000000000000000000000000000003103201700000000            000000000000000                              000                           
0010001300143T 020180230000002544776 29647041497538671   7               02042017000000000006000001028029                         0900000000000010000000000000000000000000000000000000000   0000000000000000000000000A9        170192964704     
0010001300144U 020000000000000000000000000000000000000000000000000000000000000000000000000000000000000000000000000000000000000000000000003103201700000000            000000000000000                              000                           
0010001300145T 020180230000002544776 29647041497559488   7               02042017000000000006000001028029                         0900000000000010000000000000000000000000000000000000000   0000000000000000000000000A9        170192964704     
0010001300146U 020000000000000000000000000000000000000000000000000000000000000000000000000000000000000000000000000000000000000000000000003103201700000000            000000000000000                              000                           
0010001300147T 020180230000002544776 29647041498407170   7               02042017000000000008000001000132                         0900000000000010000000000000000000000000000000000000000   0000000000000000000000000A9        170192964704     
0010001300148U 020000000000000000000000000000000000000000000000000000000000000000000000000000000000000000000000000000000000000000000000003103201700000000            000000000000000                              000                           
0010001300149T 020180230000002544776 29647041499645449   7               02042017000000000006000001023655                         0900000000000010000000000000000000000000000000000000000   0000000000000000000000000A9        170192964704     
0010001300150U 020000000000000000000000000000000000000000000000000000000000000000000000000000000000000000000000000000000000000000000000003103201700000000            000000000000000                              000                           
0010001300151T 020180230000002544776 29647041506433132   7               02042017000000000006000001000132                         0900000000000010000000000000000000000000000000000000000   0000000000000000000000000A9        170192964704     
0010001300152U 020000000000000000000000000000000000000000000000000000000000000000000000000000000000000000000000000000000000000000000000003103201700000000            000000000000000                              000                           
0010001300153T 020180230000002544776 29647041510058411   7               02042017000000000006000001000132                         0900000000000010000000000000000000000000000000000000000   0000000000000000000000000A9        170192964704     
0010001300154U 020000000000000000000000000000000000000000000000000000000000000000000000000000000000000000000000000000000000000000000000003103201700000000            000000000000000                              000                           
0010001300155T 020180230000002544776 29647041510251510   7               02042017000000000006000001018376                         0900000000000010000000000000000000000000000000000000000   0000000000000000000000000A9        170192964704     
0010001300156U 020000000000000000000000000000000000000000000000000000000000000000000000000000000000000000000000000000000000000000000000003103201700000000            000000000000000                              000                           
0010001300157T 020180230000002544776 29647041510747276   7               02042017000000000006000001000132                         0900000000000010000000000000000000000000000000000000000   0000000000000000000000000A9        170192964704     
0010001300158U 020000000000000000000000000000000000000000000000000000000000000000000000000000000000000000000000000000000000000000000000003103201700000000            000000000000000                              000                           
0010001300159T 020180230000002544776 29647041516815369   7               02042017000000000008000001030864                         0900000000000010000000000000000000000000000000000000000   0000000000000000000000000A9        170192964704     
0010001300160U 020000000000000000000000000000000000000000000000000000000000000000000000000000000000000000000000000000000000000000000000003103201700000000            000000000000000                              000                           
0010001300161T 020180230000002544776 29647041519312560   7               02042017000000000008000001028029                         0900000000000010000000000000000000000000000000000000000   0000000000000000000000000A9        170192964704     
0010001300162U 020000000000000000000000000000000000000000000000000000000000000000000000000000000000000000000000000000000000000000000000003103201700000000            000000000000000                              000                           
0010001300163T 020180230000002544776 29647041522013253   7               02042017000000000008000001033316                         0900000000000010000000000000000000000000000000000000000   0000000000000000000000000A9        170192964704     
0010001300164U 020000000000000000000000000000000000000000000000000000000000000000000000000000000000000000000000000000000000000000000000003103201700000000            000000000000000                              000                           
0010001300165T 020180230000002544776 29647041526350676   7               01042017000000000006000001016179                         0900000000000010000000000000000000000000000000000000000   0000000000000000000000000A9        170192964704     
0010001300166U 020000000000000000000000000000000000000000000000000000000000000000000000000000000000000000000000000000000000000000000000003003201700000000            000000000000000                              000                           
0010001300167T 020180230000002544776 29647041526456779   7               0104201700000000000600000101981X                         0900000000000010000000000000000000000000000000000000000   0000000000000000000000000A9        170192964704     
0010001300168U 020000000000000000000000000000000000000000000000000000000000000000000000000000000000000000000000000000000000000000000000003003201700000000            000000000000000                              000                           
0010001300169T 020180230000002544776 29647041526607415   7               01042017000000000006000001000132                         0900000000000010000000000000000000000000000000000000000   0000000000000000000000000A9        170192964704     
0010001300170U 020000000000000000000000000000000000000000000000000000000000000000000000000000000000000000000000000000000000000000000000003003201700000000            000000000000000                              000                           
0010001300171T 020180230000002544776 29647041526817495   7               01042017000000000006000001028029                         0900000000000010000000000000000000000000000000000000000   0000000000000000000000000A9        170192964704     
0010001300172U 020000000000000000000000000000000000000000000000000000000000000000000000000000000000000000000000000000000000000000000000003003201700000000            000000000000000                              000                           
0010001300173T 020180230000002544776 29647041526847945   7               01042017000000000006000001028029                         0900000000000010000000000000000000000000000000000000000   0000000000000000000000000A9        170192964704     
0010001300174U 020000000000000000000000000000000000000000000000000000000000000000000000000000000000000000000000000000000000000000000000003003201700000000            000000000000000                              000                           
0010001300175T 020180230000002544776 29647041526900889   7               01042017000000000008000001000132                         0900000000000010000000000000000000000000000000000000000   0000000000000000000000000A9        170192964704     
0010001300176U 020000000000000000000000000000000000000000000000000000000000000000000000000000000000000000000000000000000000000000000000003003201700000000            000000000000000                              000                           
0010001300177T 020180230000002544776 29647041527037587   7               02042017000000000006000001016179                         0900000000000010000000000000000000000000000000000000000   0000000000000000000000000A9        170192964704     
0010001300178U 020000000000000000000000000000000000000000000000000000000000000000000000000000000000000000000000000000000000000000000000003103201700000000            000000000000000                              000                           
0010001300179T 020180230000002544776 29647041527137956   7               0204201700000000000600000100944X                         0900000000000010000000000000000000000000000000000000000   0000000000000000000000000A9        170192964704     
0010001300180U 020000000000000000000000000000000000000000000000000000000000000000000000000000000000000000000000000000000000000000000000003103201700000000            000000000000000                              000                           
0010001300181T 020180230000002544776 29647041527638864   7               02042017000000000008000001032859                         0900000000000010000000000000000000000000000000000000000   0000000000000000000000000A9        170192964704     
0010001300182U 020000000000000000000000000000000000000000000000000000000000000000000000000000000000000000000000000000000000000000000000003103201700000000            000000000000000                              000                           
0010001300183T 020180230000002544776 29647041527859111   7               02042017000000000006000001000132                         0900000000000010500000000000000000000000000000000000000   0000000000000000000000000A9A4      170192964704     
0010001300184U 020000000000000000000000000000000000000000000000000000000000000000000000000000000000000000000000000000000000000000000000003103201700000000            000000000000000                              000                           
0010001300185T 020180230000002544776 29647041527909468   7               02042017000000000008000001033316                         0900000000000010000000000000000000000000000000000000000   0000000000000000000000000A9        170192964704     
0010001300186U 020000000000000000000000000000000000000000000000000000000000000000000000000000000000000000000000000000000000000000000000003103201700000000            000000000000000                              000                           
0010001300187T 020180230000002544776 29647041528015213   7               02042017000000000006000001018376                         0900000000000010000000000000000000000000000000000000000   0000000000000000000000000A9        170192964704     
0010001300188U 020000000000000000000000000000000000000000000000000000000000000000000000000000000000000000000000000000000000000000000000003103201700000000            000000000000000                              000                           
0010001300189T 020180230000002544776 29647041528102379   7               02042017000000000006000001020354                         0900000000000010000000000000000000000000000000000000000   0000000000000000000000000A9        170192964704     
0010001300190U 020000000000000000000000000000000000000000000000000000000000000000000000000000000000000000000000000000000000000000000000003103201700000000            000000000000000                              000                           
0010001300191T 020180230000002544776 29647041528102623   7               02042017000000000006000001020354                         0900000000000010000000000000000000000000000000000000000   0000000000000000000000000A9        170192964704     
0010001300192U 020000000000000000000000000000000000000000000000000000000000000000000000000000000000000000000000000000000000000000000000003103201700000000            000000000000000                              000                           
0010001300193T 020180230000002544776 29647041528112851   7               02042017000000000006000001020354                         0900000000000010000000000000000000000000000000000000000   0000000000000000000000000A9        170192964704     
0010001300194U 020000000000000000000000000000000000000000000000000000000000000000000000000000000000000000000000000000000000000000000000003103201700000000            000000000000000                              000                           
0010001300195T 020180230000002544776 29647041528144116   7               02042017000000000006000001020354                         0900000000000010000000000000000000000000000000000000000   0000000000000000000000000A9        170192964704     
0010001300196U 020000000000000000000000000000000000000000000000000000000000000000000000000000000000000000000000000000000000000000000000003103201700000000            000000000000000                              000                           
0010001300197T 020180230000002544776 29647041528154919   7               02042017000000000006000001020354                         0900000000000010000000000000000000000000000000000000000   0000000000000000000000000A9        170192964704     
0010001300198U 020000000000000000000000000000000000000000000000000000000000000000000000000000000000000000000000000000000000000000000000003103201700000000            000000000000000                              000                           
0010001300199T 020180230000002544776 29647041528241933   7               02042017000000000006000001014362                         0900000000000010000000000000000000000000000000000000000   0000000000000000000000000A9        170192964704     
0010001300200U 020000000000000000000000000000000000000000000000000000000000000000000000000000000000000000000000000000000000000000000000003103201700000000            000000000000000                              000                           
0010001300201T 020180230000002544776 29647041528318738   7               02042017000000000006000001012467                         0900000000000010000000000000000000000000000000000000000   0000000000000000000000000A9        170192964704     
0010001300202U 020000000000000000000000000000000000000000000000000000000000000000000000000000000000000000000000000000000000000000000000003103201700000000            000000000000000                              000                           
0010001300203T 020180230000002544776 29647041528434826   7               02042017000000000006000001023655                         0900000000000010000000000000000000000000000000000000000   0000000000000000000000000A9        170192964704     
0010001300204U 020000000000000000000000000000000000000000000000000000000000000000000000000000000000000000000000000000000000000000000000003103201700000000            000000000000000                              000                           
0010001300205T 020180230000002544776 29647041528452970   7               02042017000000000006000001023655                         0900000000000010000000000000000000000000000000000000000   0000000000000000000000000A9        170192964704     
0010001300206U 020000000000000000000000000000000000000000000000000000000000000000000000000000000000000000000000000000000000000000000000003103201700000000            000000000000000                              000                           
0010001300207T 020180230000002544776 29647041528539878   7               02042017000000000006000001012467                         0900000000000010000000000000000000000000000000000000000   0000000000000000000000000A9        170192964704     
0010001300208U 020000000000000000000000000000000000000000000000000000000000000000000000000000000000000000000000000000000000000000000000003103201700000000            000000000000000                              000                           
0010001300209T 020180230000002544776 29647041528614903   7               02042017000000000006000001033316                         0900000000000010000000000000000000000000000000000000000   0000000000000000000000000A9        170192964704     
0010001300210U 020000000000000000000000000000000000000000000000000000000000000000000000000000000000000000000000000000000000000000000000003103201700000000            000000000000000                              000                           
0010001300211T 020180230000002544776 29647041528805796   7               02042017000000000008000001000132                         0900000000000010000000000000000000000000000000000000000   0000000000000000000000000A9        170192964704     
0010001300212U 020000000000000000000000000000000000000000000000000000000000000000000000000000000000000000000000000000000000000000000000003103201700000000            000000000000000                              000                           
0010001300213T 020180230000002544776 29647041528907111   7               02042017000000000006000001023655                         0900000000000010000000000000000000000000000000000000000   0000000000000000000000000A9        170192964704     
0010001300214U 020000000000000000000000000000000000000000000000000000000000000000000000000000000000000000000000000000000000000000000000003103201700000000            000000000000000                              000                           
0010001300215T 020180230000002544776 29647041529043730   7               02042017000000000006000001018376                         0900000000000010000000000000000000000000000000000000000   0000000000000000000000000A9        170192964704     
0010001300216U 020000000000000000000000000000000000000000000000000000000000000000000000000000000000000000000000000000000000000000000000003103201700000000            000000000000000                              000                           
0010001300217T 020180230000002544776 29647041529053248   7               02042017000000000006000001018376                         0900000000000010000000000000000000000000000000000000000   0000000000000000000000000A9        170192964704     
0010001300218U 020000000000000000000000000000000000000000000000000000000000000000000000000000000000000000000000000000000000000000000000003103201700000000            000000000000000                              000                           
0010001300219T 020180230000002544776 29647041529140622   7               02042017000000000006000001013455                         0900000000000010000000000000000000000000000000000000000   0000000000000000000000000A9        170192964704     
0010001300220U 020000000000000000000000000000000000000000000000000000000000000000000000000000000000000000000000000000000000000000000000003103201700000000            000000000000000                              000                           
0010001300221T 020180230000002544776 29647041529243603   7               02042017000000000006000001012645                         0900000000000010000000000000000000000000000000000000000   0000000000000000000000000A9        170192964704     
0010001300222U 020000000000000000000000000000000000000000000000000000000000000000000000000000000000000000000000000000000000000000000000003103201700000000            000000000000000                              000                           
0010001300223T 020180230000002544776 29647041529337016   7               02042017000000000008000001010138                         0900000000000010000000000000000000000000000000000000000   0000000000000000000000000A9        170192964704     
0010001300224U 020000000000000000000000000000000000000000000000000000000000000000000000000000000000000000000000000000000000000000000000003103201700000000            000000000000000                              000                           
0010001300225T 020180230000002544776 29647041529501943   7               02042017000000000006000001028029                         0900000000000010000000000000000000000000000000000000000   0000000000000000000000000A9        170192964704     
0010001300226U 020000000000000000000000000000000000000000000000000000000000000000000000000000000000000000000000000000000000000000000000003103201700000000            000000000000000                              000                           
0010001300227T 020180230000002544776 29647041529506409   7               02042017000000000006000001028029                         0900000000000010000000000000000000000000000000000000000   0000000000000000000000000A9        170192964704     
0010001300228U 020000000000000000000000000000000000000000000000000000000000000000000000000000000000000000000000000000000000000000000000003103201700000000            000000000000000                              000                           
0010001300229T 020180230000002544776 29647041529507929   7               02042017000000000006000001028029                         0900000000000010000000000000000000000000000000000000000   0000000000000000000000000A9        170192964704     
0010001300230U 020000000000000000000000000000000000000000000000000000000000000000000000000000000000000000000000000000000000000000000000003103201700000000            000000000000000                              000                           
0010001300231T 020180230000002544776 29647041529528325   7               02042017000000000006000001028029                         0900000000000010000000000000000000000000000000000000000   0000000000000000000000000A9        170192964704     
0010001300232U 020000000000000000000000000000000000000000000000000000000000000000000000000000000000000000000000000000000000000000000000003103201700000000            000000000000000                              000                           
0010001300233T 020180230000002544776 29647041529541214   7               02042017000000000006000001028029                         0900000000000010000000000000000000000000000000000000000   0000000000000000000000000A9        170192964704     
0010001300234U 020000000000000000000000000000000000000000000000000000000000000000000000000000000000000000000000000000000000000000000000003103201700000000            000000000000000                              000                           
0010001300235T 020180230000002544776 29647041529635501   7               02042017000000000006000001028029                         0900000000000010000000000000000000000000000000000000000   0000000000000000000000000A9        170192964704     
0010001300236U 020000000000000000000000000000000000000000000000000000000000000000000000000000000000000000000000000000000000000000000000003103201700000000            000000000000000                              000                           
0010001300237T 020180230000002544776 29647041529712209   7               02042017000000000006000001028029                         0900000000000010000000000000000000000000000000000000000   0000000000000000000000000A9        170192964704     
0010001300238U 020000000000000000000000000000000000000000000000000000000000000000000000000000000000000000000000000000000000000000000000003103201700000000            000000000000000                              000                           
0010001300239T 020180230000002544776 29647041529839921   7               02042017000000000006000001028029                         0900000000000010000000000000000000000000000000000000000   0000000000000000000000000A9        170192964704     
0010001300240U 020000000000000000000000000000000000000000000000000000000000000000000000000000000000000000000000000000000000000000000000003103201700000000            000000000000000                              000                           
0010001300241T 020180230000002544776 29647041530002101   7               02042017000000000006000001011061                         0900000000000010000000000000000000000000000000000000000   0000000000000000000000000A9        170192964704     
0010001300242U 020000000000000000000000000000000000000000000000000000000000000000000000000000000000000000000000000000000000000000000000003103201700000000            000000000000000                              000                           
0010001300243T 020180230000002544776 29647041530133113   7               02042017000000000006000001018376                         0900000000000010000000000000000000000000000000000000000   0000000000000000000000000A9        170192964704     
0010001300244U 020000000000000000000000000000000000000000000000000000000000000000000000000000000000000000000000000000000000000000000000003103201700000000            000000000000000                              000                           
0010001300245T 020180230000002544776 29647041530202494   7               02042017000000000006000001026255                         0900000000000010000000000000000000000000000000000000000   0000000000000000000000000A9        170192964704     
0010001300246U 020000000000000000000000000000000000000000000000000000000000000000000000000000000000000000000000000000000000000000000000003103201700000000            000000000000000                              000                           
0010001300247T 020180230000002544776 29647041530409471   7               02042017000000000006000001012467                         0900000000000010000000000000000000000000000000000000000   0000000000000000000000000A9        170192964704     
0010001300248U 020000000000000000000000000000000000000000000000000000000000000000000000000000000000000000000000000000000000000000000000003103201700000000            000000000000000                              000                           
0010001300249T 020180230000002544776 29647041530535773   7               02042017000000000006000001028029                         0900000000000010000000000000000000000000000000000000000   0000000000000000000000000A9        170192964704     
0010001300250U 020000000000000000000000000000000000000000000000000000000000000000000000000000000000000000000000000000000000000000000000003103201700000000            000000000000000                              000                           
0010001300251T 020180230000002544776 29647041530607015   7               02042017000000000006000001001597                         0900000000000010000000000000000000000000000000000000000   0000000000000000000000000A9        170192964704     
0010001300252U 020000000000000000000000000000000000000000000000000000000000000000000000000000000000000000000000000000000000000000000000003103201700000000            000000000000000                              000                           
0010001300253T 020180230000002544776 29647041530702171   7               02042017000000000006000001008672                         0900000000000010000000000000000000000000000000000000000   0000000000000000000000000A9        170192964704     
0010001300254U 020000000000000000000000000000000000000000000000000000000000000000000000000000000000000000000000000000000000000000000000003103201700000000            000000000000000                              000                           
0010001300255T 020180230000002544776 29647041530750670   7               02042017000000000006000001008672                         0900000000000010000000000000000000000000000000000000000   0000000000000000000000000A9        170192964704     
0010001300256U 020000000000000000000000000000000000000000000000000000000000000000000000000000000000000000000000000000000000000000000000003103201700000000            000000000000000                              000                           
0010001300257T 020180230000002544776 29647041530807689   7               02042017000000000008000001000132                         0900000000000010000000000000000000000000000000000000000   0000000000000000000000000A9        170192964704     
0010001300258U 020000000000000000000000000000000000000000000000000000000000000000000000000000000000000000000000000000000000000000000000003103201700000000            000000000000000                              000                           
0010001300259T 020180230000002544776 29647041531001991   7               02042017000000000006000001018376                         0900000000000010000000000000000000000000000000000000000   0000000000000000000000000A9        170192964704     
0010001300260U 020000000000000000000000000000000000000000000000000000000000000000000000000000000000000000000000000000000000000000000000003103201700000000            000000000000000                              000                           
0010001300261T 020180230000002544776 29647041531157683   7               02042017000000000006000001020354                         0900000000000010500000000000000000000000000000000000000   0000000000000000000000000A9A4      170192964704     
0010001300262U 020000000000000000000000000000000000000000000000000000000000000000000000000000000000000000000000000000000000000000000000003103201700000000            000000000000000                              000                           
0010001300263T 020180230000002544776 29647041531235618   7               02042017000000000006000001028029                         0900000000000010000000000000000000000000000000000000000   0000000000000000000000000A9        170192964704     
0010001300264U 020000000000000000000000000000000000000000000000000000000000000000000000000000000000000000000000000000000000000000000000003103201700000000            000000000000000                              000                           
0010001300265T 020180230000002544776 29647041531426129   7               02042017000000000006000001000132                         0900000000000010000000000000000000000000000000000000000   0000000000000000000000000A9        170192964704     
0010001300266U 020000000000000000000000000000000000000000000000000000000000000000000000000000000000000000000000000000000000000000000000003103201700000000            000000000000000                              000                           
0010001300267T 020180230000002544776 29647041531653925   7               02042017000000000006000001006254                         0900000000000010000000000000000000000000000000000000000   0000000000000000000000000A9        170192964704     
0010001300268U 020000000000000000000000000000000000000000000000000000000000000000000000000000000000000000000000000000000000000000000000003103201700000000            000000000000000                              000                           
0010001300269T 020180230000002544776 29647041531726572   7               02042017000000000006000001007595                         0900000000000010000000000000000000000000000000000000000   0000000000000000000000000A9        170192964704     
0010001300270U 020000000000000000000000000000000000000000000000000000000000000000000000000000000000000000000000000000000000000000000000003103201700000000            000000000000000                              000                           
0010001300271T 020180230000002544776 29647041531847150   7               02042017000000000006000001023329                         0900000000000010000000000000000000000000000000000000000   0000000000000000000000000A9        170192964704     
0010001300272U 020000000000000000000000000000000000000000000000000000000000000000000000000000000000000000000000000000000000000000000000003103201700000000            000000000000000                              000                           
0010001300273T 020180230000002544776 29647041531955962   7               02042017000000000006000001016179                         0900000000000010000000000000000000000000000000000000000   0000000000000000000000000A9        170192964704     
0010001300274U 020000000000000000000000000000000000000000000000000000000000000000000000000000000000000000000000000000000000000000000000003103201700000000            000000000000000                              000                           
0010001300275T 020180230000002544776 29647041532049616   7               02042017000000000006000001016179                         0900000000000010000000000000000000000000000000000000000   0000000000000000000000000A9        170192964704     
0010001300276U 020000000000000000000000000000000000000000000000000000000000000000000000000000000000000000000000000000000000000000000000003103201700000000            000000000000000                              000                           
0010001300277T 020180230000002544776 29647041532140034   7               02042017000000000006000001010588                         0900000000000010000000000000000000000000000000000000000   0000000000000000000000000A9        170192964704     
0010001300278U 020000000000000000000000000000000000000000000000000000000000000000000000000000000000000000000000000000000000000000000000003103201700000000            000000000000000                              000                           
0010001300279T 020180230000002544776 29647041532241669   7               02042017000000000006000001016179                         0900000000000010000000000000000000000000000000000000000   0000000000000000000000000A9        170192964704     
0010001300280U 020000000000000000000000000000000000000000000000000000000000000000000000000000000000000000000000000000000000000000000000003103201700000000            000000000000000                              000                           
0010001300281T 020180230000002544776 29647041532254424   7               02042017000000000006000001016179                         0900000000000010000000000000000000000000000000000000000   0000000000000000000000000A9        170192964704     
0010001300282U 020000000000000000000000000000000000000000000000000000000000000000000000000000000000000000000000000000000000000000000000003103201700000000            000000000000000                              000                           
0010001300283T 020180230000002544776 29647041532258831   7               02042017000000000006000001016179                         0900000000000010000000000000000000000000000000000000000   0000000000000000000000000A9        170192964704     
0010001300284U 020000000000000000000000000000000000000000000000000000000000000000000000000000000000000000000000000000000000000000000000003103201700000000            000000000000000                              000                           
0010001300285T 020180230000002544776 29647041532328538   7               02042017000000000006000001033316                         0900000000000010000000000000000000000000000000000000000   0000000000000000000000000A9        170192964704     
0010001300286U 020000000000000000000000000000000000000000000000000000000000000000000000000000000000000000000000000000000000000000000000003103201700000000            000000000000000                              000                           
0010001300287T 020180230000002544776 29647041532455568   7               02042017000000000006000001023655                         0900000000000010500000000000000000000000000000000000000   0000000000000000000000000A9A4      170192964704     
0010001300288U 020000000000000000000000000000000000000000000000000000000000000000000000000000000000000000000000000000000000000000000000003103201700000000            000000000000000                              000                           
0010001300289T 020180230000002544776 29647041532547351   7               02042017000000000006000001028029                         0900000000000010000000000000000000000000000000000000000   0000000000000000000000000A9        170192964704     
0010001300290U 020000000000000000000000000000000000000000000000000000000000000000000000000000000000000000000000000000000000000000000000003103201700000000            000000000000000                              000                           
0010001300291T 020180230000002544776 29647041532750083   7               02042017000000000006000001033316                         0900000000000010000000000000000000000000000000000000000   0000000000000000000000000A9        170192964704     
0010001300292U 020000000000000000000000000000000000000000000000000000000000000000000000000000000000000000000000000000000000000000000000003103201700000000            000000000000000                              000                           
0010001300293T 020180230000002544776 29647041533046513   7               02042017000000000006000001012467                         0900000000000010000000000000000000000000000000000000000   0000000000000000000000000A9        170192964704     
0010001300294U 020000000000000000000000000000000000000000000000000000000000000000000000000000000000000000000000000000000000000000000000003103201700000000            000000000000000                              000                           
0010001300295T 020180230000002544776 29647041533216370   7               02042017000000000008000001008702                         0900000000000010000000000000000000000000000000000000000   0000000000000000000000000A9        170192964704     
0010001300296U 020000000000000000000000000000000000000000000000000000000000000000000000000000000000000000000000000000000000000000000000003103201700000000            000000000000000                              000                           
0010001300297T 020180230000002544776 29647041533304194   7               02042017000000000006000001028029                         0900000000000010000000000000000000000000000000000000000   0000000000000000000000000A9        170192964704     
0010001300298U 020000000000000000000000000000000000000000000000000000000000000000000000000000000000000000000000000000000000000000000000003103201700000000            000000000000000                              000                           
0010001300299T 020180230000002544776 29647041533355813   7               02042017000000000006000001028029                         0900000000000010000000000000000000000000000000000000000   0000000000000000000000000A9        170192964704     
0010001300300U 020000000000000000000000000000000000000000000000000000000000000000000000000000000000000000000000000000000000000000000000003103201700000000            000000000000000                              000                           
0010001300301T 020180230000002544776 29647041533642518   7               02042017000000000006000001013668                         0900000000000010000000000000000000000000000000000000000   0000000000000000000000000A9        170192964704     
0010001300302U 020000000000000000000000000000000000000000000000000000000000000000000000000000000000000000000000000000000000000000000000003103201700000000            000000000000000                              000                           
0010001300303T 020180230000002544776 29647041533732277   7               02042017000000000008000001016179                         0900000000000010000000000000000000000000000000000000000   0000000000000000000000000A9        170192964704     
0010001300304U 020000000000000000000000000000000000000000000000000000000000000000000000000000000000000000000000000000000000000000000000003103201700000000            000000000000000                              000                           
0010001300305T 020180230000002544776 29647041533833269   7               02042017000000000006000001018376                         0900000000000010000000000000000000000000000000000000000   0000000000000000000000000A9        170192964704     
0010001300306U 020000000000000000000000000000000000000000000000000000000000000000000000000000000000000000000000000000000000000000000000003103201700000000            000000000000000                              000                           
0010001300307T 020180230000002544776 29647041534046042   7               02042017000000000006000001028797                         0900000000000010500000000000000000000000000000000000000   0000000000000000000000000A9A4      170192964704     
0010001300308U 020000000000000000000000000000000000000000000000000000000000000000000000000000000000000000000000000000000000000000000000003103201700000000            000000000000000                              000                           
0010001300309T 020180230000002544776 29647041534053341   7               02042017000000000006000001028797                         0900000000000010500000000000000000000000000000000000000   0000000000000000000000000A9A4      170192964704     
0010001300310U 020000000000000000000000000000000000000000000000000000000000000000000000000000000000000000000000000000000000000000000000003103201700000000            000000000000000                              000                           
0010001300311T 020180230000002544776 29647041534142448   7               02042017000000000006000001028029                         0900000000000010000000000000000000000000000000000000000   0000000000000000000000000A9        170192964704     
0010001300312U 020000000000000000000000000000000000000000000000000000000000000000000000000000000000000000000000000000000000000000000000003103201700000000            000000000000000                              000                           
0010001300313T 020180230000002544776 29647041534229093   7               02042017000000000008000001005711                         0900000000000010000000000000000000000000000000000000000   0000000000000000000000000A9        170192964704     
0010001300314U 020000000000000000000000000000000000000000000000000000000000000000000000000000000000000000000000000000000000000000000000003103201700000000            000000000000000                              000                           
0010001300315T 020180230000002544776 29647041534326855   7               02042017000000000006000001005428                         0900000000000010000000000000000000000000000000000000000   0000000000000000000000000A9        170192964704     
0010001300316U 020000000000000000000000000000000000000000000000000000000000000000000000000000000000000000000000000000000000000000000000003103201700000000            000000000000000                              000                           
0010001300317T 020180230000002544776 29647041534407490   7               02042017000000000006000001033316                         0900000000000010500000000000000000000000000000000000000   0000000000000000000000000A9A4      170192964704     
0010001300318U 020000000000000000000000000000000000000000000000000000000000000000000000000000000000000000000000000000000000000000000000003103201700000000            000000000000000                              000                           
0010001300319T 020180230000002544776 29647041534556841   7               02042017000000000008000001005711                         0900000000000010000000000000000000000000000000000000000   0000000000000000000000000A9        170192964704     
0010001300320U 020000000000000000000000000000000000000000000000000000000000000000000000000000000000000000000000000000000000000000000000003103201700000000            000000000000000                              000                           
0010001300321T 020180230000002544776 29647041534623941   7               02042017000000000008000001008214                         0900000000000010000000000000000000000000000000000000000   0000000000000000000000000A9        170192964704     
0010001300322U 020000000000000000000000000000000000000000000000000000000000000000000000000000000000000000000000000000000000000000000000003103201700000000            000000000000000                              000                           
0010001300323T 020180230000002544776 29647041534627114   7               02042017000000000008000001008214                         0900000000000010000000000000000000000000000000000000000   0000000000000000000000000A9        170192964704     
0010001300324U 020000000000000000000000000000000000000000000000000000000000000000000000000000000000000000000000000000000000000000000000003103201700000000            000000000000000                              000                           
0010001300325T 020180230000002544776 29647041534756838   7               02042017000000000006000001012467                         0900000000000010000000000000000000000000000000000000000   0000000000000000000000000A9        170192964704     
0010001300326U 020000000000000000000000000000000000000000000000000000000000000000000000000000000000000000000000000000000000000000000000003103201700000000            000000000000000                              000                           
0010001300327T 020180230000002544776 29647041534835132   7               02042017000000000006000001038024                         0900000000000010000000000000000000000000000000000000000   0000000000000000000000000A9        170192964704     
0010001300328U 020000000000000000000000000000000000000000000000000000000000000000000000000000000000000000000000000000000000000000000000003103201700000000            000000000000000                              000                           
0010001300329T 020180230000002544776 29647041534929708   7               0204201700000000000600000101110X                         0900000000000010000000000000000000000000000000000000000   0000000000000000000000000A9        170192964704     
0010001300330U 020000000000000000000000000000000000000000000000000000000000000000000000000000000000000000000000000000000000000000000000003103201700000000            000000000000000                              000                           
0010001300331T 020180230000002544776 29647041535005204   7               02042017000000000006000001033316                         0900000000000010000000000000000000000000000000000000000   0000000000000000000000000A9        170192964704     
0010001300332U 020000000000000000000000000000000000000000000000000000000000000000000000000000000000000000000000000000000000000000000000003103201700000000            000000000000000                              000                           
0010001300333T 020180230000002544776 29647041535103293   7               02042017000000000006000001011126                         0900000000000010000000000000000000000000000000000000000   0000000000000000000000000A9        170192964704     
0010001300334U 020000000000000000000000000000000000000000000000000000000000000000000000000000000000000000000000000000000000000000000000003103201700000000            000000000000000                              000                           
0010001300335T 020180230000002544776 29647041535219305   7               02042017000000000006000001012467                         0900000000000010000000000000000000000000000000000000000   0000000000000000000000000A9        170192964704     
0010001300336U 020000000000000000000000000000000000000000000000000000000000000000000000000000000000000000000000000000000000000000000000003103201700000000            000000000000000                              000                           
0010001300337T 020180230000002544776 29647041535415266   7               02042017000000000006000001008214                         0900000000000010000000000000000000000000000000000000000   0000000000000000000000000A9        170192964704     
0010001300338U 020000000000000000000000000000000000000000000000000000000000000000000000000000000000000000000000000000000000000000000000003103201700000000            000000000000000                              000                           
0010001300339T 060180230000002544776 29647040581048290   7               01042017000000000008000001083534                         0900000000000010000000000000000000000000000000000000000   000000000000000000000029000        170192964704     
0010001300340U 060000000000000000000000000000000000000000000000000000000000000000000000080000000000000077100000000000000000000000000000003103201704042017            000000000000000                              000                           
0010001300341T 060180230000002544776 29647040611317060   7               31032017000000000006000104024040                         0900000000000010000000000000000000000000000000000000000   000000000000000000000029000        170192964704     
0010001300342U 060000000000000000000000000000000000000000000000000000000000000000000000060000000000000057100000000000000000000000000000003103201704042017            000000000000000                              000                           
0010001300343T 060180230000002544776 29647040637115390   7               29032017000000000006000001000639                         0900000000000010000000000000000000000000000000000000000   000000000000000000000029000        170192964704     
0010001300344U 060000000000000410000000000000000000000000000000000000000000000000000000060410000000000057510000000000000000000000000000003103201704042017            000000000000000                              000                           
0010001300345T 060180230000002544776 29647040680733638   7               31032017000000000006000104005580                         0900000000000010000000000000000000000000000000000000000   000000000000000000000029000        170192964704     
0010001300346U 060000000000000000000000000000000000000000000000000000000000000000000000060000000000000057100000000000000000000000000000003103201704042017            000000000000000                              000                           
0010001300347T 060180230000002544776 29647040702843176   7               31032017000000000006000104031220                         0900000000000010000000000000000000000000000000000000000   000000000000000000000029000        170192964704     
0010001300348U 060000000000000000000000000000000000000000000000000000000000000000000000060000000000000057100000000000000000000000000000003103201704042017            000000000000000                              000                           
0010001300349T 060180230000002544776 29647040704318226   7               0204201700000000000600000103777X                         0900000000000010000000000000000000000000000000000000000   000000000000000000000029000        170192964704     
0010001300350U 060000000000000000000000000000000000000000000000000000000000000000000000060000000000000057100000000000000000000000000000003103201704042017            000000000000000                              000                           
0010001300351T 060180230000002544776 29647040757915211   7               01042017000000000006000104015810                         0900000000000010000000000000000000000000000000000000000   000000000000000000000029000        170192964704     
0010001300352U 060000000000000000000000000000000000000000000000000000000000000000000000060000000000000057100000000000000000000000000000003103201704042017            000000000000000                              000                           
0010001300353T 060180230000002544776 29647040847224264   7               01042017000000000006000001001368                         0900000000000010000000000000000000000000000000000000000   000000000000000000000029000        170192964704     
0010001300354U 060000000000000000000000000000000000000000000000000000000000000000000000060000000000000057100000000000000000000000000000003103201704042017            000000000000000                              000                           
0010001300355T 060180230000002544776 29647040962125455   7               3103201700000000000600000104833X                         0900000000000010000000000000000000000000000000000000000   000000000000000000000029000        170192964704     
0010001300356U 060000000000000000000000000000000000000000000000000000000000000000000000060000000000000057100000000000000000000000000000003103201704042017            000000000000000                              000                           
0010001300357T 060180230000002544776 29647041097205678   7               01042017000000000006000001033316                         0900000000000010000000000000000000000000000000000000000   000000000000000000000029000        170192964704     
0010001300358U 060000000000000000000000000000000000000000000000000000000000000000000000060000000000000057100000000000000000000000000000003103201704042017            000000000000000                              000                           
0010001300359T 060180230000002544776 29647041098320217   7               01042017000000000006000634000190                         0900000000000010000000000000000000000000000000000000000   000000000000000000000029000        170192964704     
0010001300360U 060000000000000000000000000000000000000000000000000000000000000000000000060000000000000057100000000000000000000000000000003103201704042017            000000000000000                              000                           
0010001300361T 060180230000002544776 29647041100814546   7               31032017000000000006000104015810                         0900000000000010000000000000000000000000000000000000000   000000000000000000000029000        170192964704     
0010001300362U 060000000000000000000000000000000000000000000000000000000000000000000000060000000000000057100000000000000000000000000000003103201704042017            000000000000000                              000                           
0010001300363T 060180230000002544776 29647041113237322   7               31032017000000000006000001005851                         0900000000000010000000000000000000000000000000000000000   000000000000000000000029000        170192964704     
0010001300364U 060000000000000000000000000000000000000000000000000000000000000000000000060000000000000057100000000000000000000000000000003103201704042017            000000000000000                              000                           
0010001300365T 060180230000002544776 29647041115247938   7               31032017000000000008000001012181                         0900000000000010000000000000000000000000000000000000000   000000000000000000000029000        170192964704     
0010001300366U 060000000000000000000000000000000000000000000000000000000000000000000000080000000000000077100000000000000000000000000000003103201704042017            000000000000000                              000                           
0010001300367T 060180230000002544776 29647041125730621   7               31032017000000000006000001015881                         0900000000000010000000000000000000000000000000000000000   000000000000000000000029000        170192964704     
0010001300368U 060000000000000000000000000000000000000000000000000000000000000000000000060000000000000057100000000000000000000000000000003103201704042017            000000000000000                              000                           
0010001300369T 060180230000002544776 29647041137935463   7               01042017000000000006000001000639                         0900000000000010000000000000000000000000000000000000000   000000000000000000000029000        170192964704     
0010001300370U 060000000000000000000000000000000000000000000000000000000000000000000000060000000000000057100000000000000000000000000000003103201704042017            000000000000000                              000                           
0010001300371T 060180230000002544776 29647041190302303   7               02042017000000000006000104024040                         0900000000000010000000000000000000000000000000000000000   000000000000000000000029000        170192964704     
0010001300372U 060000000000000000000000000000000000000000000000000000000000000000000000060000000000000057100000000000000000000000000000003103201704042017            000000000000000                              000                           
0010001300373T 060180230000002544776 29647041268526772   7               02042017000000000008000237002910                         0900000000000010000000000000000000000000000000000000000   000000000000000000000029000        170192964704     
0010001300374U 060000000000000000000000000000000000000000000000000000000000000000000000080000000000000077100000000000000000000000000000003103201704042017            000000000000000                              000                           
0010001300375T 060180230000002544776 29647041325457482   7               02042017000000000006000104007370                         0900000000000010000000000000000000000000000000000000000   000000000000000000000029000        170192964704     
0010001300376U 060000000000000000000000000000000000000000000000000000000000000000000000060000000000000057100000000000000000000000000000003103201704042017            000000000000000                              000                           
0010001300377T 060180230000002544776 29647041348720872   7               31032017000000000006000104015570                         0900000000000010000000000000000000000000000000000000000   000000000000000000000029000        170192964704     
0010001300378U 060000000000000000000000000000000000000000000000000000000000000000000000060000000000000057100000000000000000000000000000003103201704042017            000000000000000                              000                           
0010001300379T 060180230000002544776 29647041378532298   7               31032017000000000006000001030570                         0900000000000010000000000000000000000000000000000000000   000000000000000000000029000        170192964704     
0010001300380U 060000000000000000000000000000000000000000000000000000000000000000000000060000000000000057100000000000000000000000000000003103201704042017            000000000000000                              000                           
0010001300381T 060180230000002544776 29647041394028576   7               01042017000000000006000001028495                         0900000000000010000000000000000000000000000000000000000   000000000000000000000029000        170192964704     
0010001300382U 060000000000000000000000000000000000000000000000000000000000000000000000060000000000000057100000000000000000000000000000003103201704042017            000000000000000                              000                           
0010001300383T 060180230000002544776 29647041394417233   7               31032017000000000006000104035360                         0900000000000010000000000000000000000000000000000000000   000000000000000000000029000        170192964704     
0010001300384U 060000000000000000000000000000000000000000000000000000000000000000000000060000000000000057100000000000000000000000000000003103201704042017            000000000000000                              000                           
0010001300385T 060180230000002544776 29647041395612085   7               31032017000000000008000237060420                         0900000000000010000000000000000000000000000000000000000   000000000000000000000029000        170192964704     
0010001300386U 060000000000000000000000000000000000000000000000000000000000000000000000080000000000000077100000000000000000000000000000003103201704042017            000000000000000                              000                           
0010001300387T 060180230000002544776 29647041398112268   7               02042017000000000006000104015840                         0900000000000010000000000000000000000000000000000000000   000000000000000000000029000        170192964704     
0010001300388U 060000000000000000000000000000000000000000000000000000000000000000000000060000000000000057100000000000000000000000000000003103201704042017            000000000000000                              000                           
0010001300389T 060180230000002544776 29647041418931992   7               02042017000000000006000104010300                         0900000000000010000000000000000000000000000000000000000   000000000000000000000029000        170192964704     
0010001300390U 060000000000000000000000000000000000000000000000000000000000000000000000060000000000000057100000000000000000000000000000003103201704042017            000000000000000                              000                           
0010001300391T 060180230000002544776 29647041428128871   7               31032017000000000006000104006780                         0900000000000010000000000000000000000000000000000000000   000000000000000000000029000        170192964704     
0010001300392U 060000000000000000000000000000000000000000000000000000000000000000000000060000000000000057100000000000000000000000000000003103201704042017            000000000000000                              000                           
0010001300393T 060180230000002544776 29647041446950410   7               01042017000000000006000033040650                         0900000000000010000000000000000000000000000000000000000   000000000000000000000029000        170192964704     
0010001300394U 060000000000000000000000000000000000000000000000000000000000000000000000060000000000000057100000000000000000000000000000003103201704042017            000000000000000                              000                           
0010001300395T 060180230000002544776 29647041453637786   7               02042017000000000006000237032050                         0900000000000010000000000000000000000000000000000000000   000000000000000000000029000        170192964704     
0010001300396U 060000000000000000000000000000000000000000000000000000000000000000000000060000000000000057100000000000000000000000000000003103201704042017            000000000000000                              000                           
0010001300397T 060180230000002544776 29647041472126372   7               31032017000000000006000104005580                         0900000000000010000000000000000000000000000000000000000   000000000000000000000029000        170192964704     
0010001300398U 060000000000000000000000000000000000000000000000000000000000000000000000060000000000000057100000000000000000000000000000003103201704042017            000000000000000                              000                           
0010001300399T 060180230000002544776 29647041486205966   7               01042017000000000008000104000490                         0900000000000010000000000000000000000000000000000000000   000000000000000000000029000        170192964704     
0010001300400U 060000000000000000000000000000000000000000000000000000000000000000000000080000000000000077100000000000000000000000000000003103201704042017            000000000000000                              000                           
0010001300401T 060180230000002544776 29647041488905336   7               01042017000000000008000104000470                         0900000000000010000000000000000000000000000000000000000   000000000000000000000029000        170192964704     
0010001300402U 060000000000000000000000000000000000000000000000000000000000000000000000080000000000000077100000000000000000000000000000003103201704042017            000000000000000                              000                           
0010001300403T 060180230000002544776 29647041502416873   7               01042017000000000006000104006260                         0900000000000010000000000000000000000000000000000000000   000000000000000000000029000        170192964704     
0010001300404U 060000000000000000000000000000000000000000000000000000000000000000000000060000000000000057100000000000000000000000000000003103201704042017            000000000000000                              000                           
0010001300405T 060180230000002544776 29647041503132460   7               31032017000000000006000104020450                         0900000000000010000000000000000000000000000000000000000   000000000000000000000029000        170192964704     
0010001300406U 060000000000000000000000000000000000000000000000000000000000000000000000060000000000000057100000000000000000000000000000003103201704042017            000000000000000                              000                           
0010001300407T 060180230000002544776 29647041503420526   7               31032017000000000008000033040560                         0900000000000010000000000000000000000000000000000000000   000000000000000000000029000        170192964704     
0010001300408U 060000000000000000000000000000000000000000000000000000000000000000000000080000000000000077100000000000000000000000000000003103201704042017            000000000000000                              000                           
0010001300409T 060180230000002544776 29647041504010702   7               31032017000000000006000001018333                         0900000000000010000000000000000000000000000000000000000   000000000000000000000029000        170192964704     
0010001300410U 060000000000000000000000000000000000000000000000000000000000000000000000060000000000000057100000000000000000000000000000003103201704042017            000000000000000                              000                           
0010001300411T 060180230000002544776 29647041504727627   7               31032017000000000006000104000360                         0900000000000010000000000000000000000000000000000000000   000000000000000000000029000        170192964704     
0010001300412U 060000000000000000000000000000000000000000000000000000000000000000000000060000000000000057100000000000000000000000000000003103201704042017            000000000000000                              000                           
