00100000         2247745860001000029647040014       0180230000002544776 INSTITUTO DE SELECAO E TECNOLOBANCO DO BRASIL                         20304201704084800008803000000515122941PROCESSAMEN                                                 
00100011T0100020 20247745860001000029647040014       0180230000002544776 INSTITUTO DE SELECAO E TECNOLO                                                                                000000000304201700000000  000000000                      
0010001300001T 020180230000002544776 29647040517108290   7               05042017000000000008000001014028                         0900000000000010000000000000000000000000000000000000000   0000000000000000000000000A9        170192964704     
0010001300002U 020000000000000000000000000000000000000000000000000000000000000000000000000000000000000000000000000000000000000000000000000304201700000000            000000000000000                              000                           
0010001300003T 020180230000002544776 29647040517114157   7               05042017000000000008000001014028                         0900000000000010000000000000000000000000000000000000000   0000000000000000000000000A9        170192964704     
0010001300004U 020000000000000000000000000000000000000000000000000000000000000000000000000000000000000000000000000000000000000000000000000304201700000000            000000000000000                              000                           
0010001300005T 020180230000002544776 29647040517115482   7               05042017000000000008000001014028                         0900000000000010000000000000000000000000000000000000000   0000000000000000000000000A9        170192964704     
0010001300006U 020000000000000000000000000000000000000000000000000000000000000000000000000000000000000000000000000000000000000000000000000304201700000000            000000000000000                              000                           
0010001300007T 020180230000002544776 29647040526818891   7               03042017000000000006000001028029                         0900000000000010000000000000000000000000000000000000000   0000000000000000000000000A9        170192964704     
0010001300008U 020000000000000000000000000000000000000000000000000000000000000000000000000000000000000000000000000000000000000000000000000104201700000000            000000000000000                              000                           
0010001300009T 020180230000002544776 29647040526830247   7               03042017000000000006000001028029                         0900000000000010000000000000000000000000000000000000000   0000000000000000000000000A9        170192964704     
0010001300010U 020000000000000000000000000000000000000000000000000000000000000000000000000000000000000000000000000000000000000000000000000104201700000000            000000000000000                              000                           
0010001300011T 020180230000002544776 29647040526848451   7               03042017000000000006000001028029                         0900000000000010000000000000000000000000000000000000000   0000000000000000000000000A9        170192964704     
0010001300012U 020000000000000000000000000000000000000000000000000000000000000000000000000000000000000000000000000000000000000000000000000104201700000000            000000000000000                              000                           
0010001300013T 020180230000002544776 29647040526858371   7               05042017000000000006000001028029                         0900000000000010000000000000000000000000000000000000000   0000000000000000000000000A9        170192964704     
0010001300014U 020000000000000000000000000000000000000000000000000000000000000000000000000000000000000000000000000000000000000000000000000304201700000000            000000000000000                              000                           
0010001300015T 020180230000002544776 29647040533134753   7               05042017000000000008000001016179                         0900000000000010000000000000000000000000000000000000000   0000000000000000000000000A9        170192964704     
0010001300016U 020000000000000000000000000000000000000000000000000000000000000000000000000000000000000000000000000000000000000000000000000304201700000000            000000000000000                              000                           
0010001300017T 020180230000002544776 29647040590049588   7               04042017000000000006000001002003                         0900000000000010000000000000000000000000000000000000000   0000000000000000000000000A9        170192964704     
0010001300018U 020000000000000000000000000000000000000000000000000000000000000000000000000000000000000000000000000000000000000000000000000204201700000000            000000000000000                              000                           
0010001300019T 020180230000002544776 29647040596703334   7               04042017000000000008000001001104                         0900000000000010000000000000000000000000000000000000000   0000000000000000000000000A9        170192964704     
0010001300020U 020000000000000000000000000000000000000000000000000000000000000000000000000000000000000000000000000000000000000000000000000204201700000000            000000000000000                              000                           
0010001300021T 020180230000002544776 29647040596704232   7               04042017000000000008000001001104                         0900000000000010000000000000000000000000000000000000000   0000000000000000000000000A9        170192964704     
0010001300022U 020000000000000000000000000000000000000000000000000000000000000000000000000000000000000000000000000000000000000000000000000204201700000000            000000000000000                              000                           
0010001300023T 020180230000002544776 29647040607308871   7               04042017000000000006000001020478                         0900000000000010000000000000000000000000000000000000000   0000000000000000000000000A9        170192964704     
0010001300024U 020000000000000000000000000000000000000000000000000000000000000000000000000000000000000000000000000000000000000000000000000204201700000000            000000000000000                              000                           
0010001300025T 020180230000002544776 29647040623459420   7               04042017000000000006000001000132                         0900000000000010000000000000000000000000000000000000000   0000000000000000000000000A9        170192964704     
0010001300026U 020000000000000000000000000000000000000000000000000000000000000000000000000000000000000000000000000000000000000000000000000204201700000000            000000000000000                              000                           
0010001300027T 020180230000002544776 29647040626710615   7               05042017000000000006000001016179                         0900000000000010000000000000000000000000000000000000000   0000000000000000000000000A9        170192964704     
0010001300028U 020000000000000000000000000000000000000000000000000000000000000000000000000000000000000000000000000000000000000000000000000304201700000000            000000000000000                              000                           
0010001300029T 020180230000002544776 29647040636725739   7               05042017000000000006000001000132                         0900000000000010000000000000000000000000000000000000000   0000000000000000000000000A9        170192964704     
0010001300030U 020000000000000000000000000000000000000000000000000000000000000000000000000000000000000000000000000000000000000000000000000304201700000000            000000000000000                              000                           
0010001300031T 020180230000002544776 29647040637054875   7               05042017000000000006000001023329                         0900000000000010000000000000000000000000000000000000000   0000000000000000000000000A9        170192964704     
0010001300032U 020000000000000000000000000000000000000000000000000000000000000000000000000000000000000000000000000000000000000000000000000304201700000000            000000000000000                              000                           
0010001300033T 020180230000002544776 29647040638151786   7               03042017000000000006000001000132                         0900000000000010000000000000000000000000000000000000000   0000000000000000000000000A9        170192964704     
0010001300034U 020000000000000000000000000000000000000000000000000000000000000000000000000000000000000000000000000000000000000000000000000104201700000000            000000000000000                              000                           
0010001300035T 020180230000002544776 29647040638621944   7               05042017000000000006000001016179                         0900000000000010000000000000000000000000000000000000000   0000000000000000000000000A9        170192964704     
0010001300036U 020000000000000000000000000000000000000000000000000000000000000000000000000000000000000000000000000000000000000000000000000304201700000000            000000000000000                              000                           
0010001300037T 020180230000002544776 29647040645306888   7               05042017000000000006000001018376                         0900000000000010000000000000000000000000000000000000000   0000000000000000000000000A9        170192964704     
0010001300038U 020000000000000000000000000000000000000000000000000000000000000000000000000000000000000000000000000000000000000000000000000304201700000000            000000000000000                              000                           
0010001300039T 020180230000002544776 29647040647436560   7               05042017000000000006000001000132                         0900000000000010000000000000000000000000000000000000000   0000000000000000000000000A9        170192964704     
0010001300040U 020000000000000000000000000000000000000000000000000000000000000000000000000000000000000000000000000000000000000000000000000304201700000000            000000000000000                              000                           
0010001300041T 020180230000002544776 29647040650205923   7               04042017000000000006000001000132                         0900000000000010000000000000000000000000000000000000000   0000000000000000000000000A9        170192964704     
0010001300042U 020000000000000000000000000000000000000000000000000000000000000000000000000000000000000000000000000000000000000000000000000204201700000000            000000000000000                              000                           
0010001300043T 020180230000002544776 29647040650214052   7               04042017000000000006000001000132                         0900000000000010000000000000000000000000000000000000000   0000000000000000000000000A9        170192964704     
0010001300044U 020000000000000000000000000000000000000000000000000000000000000000000000000000000000000000000000000000000000000000000000000204201700000000            000000000000000                              000                           
0010001300045T 020180230000002544776 29647040650218361   7               04042017000000000006000001000132                         0900000000000010000000000000000000000000000000000000000   0000000000000000000000000A9        170192964704     
0010001300046U 020000000000000000000000000000000000000000000000000000000000000000000000000000000000000000000000000000000000000000000000000204201700000000            000000000000000                              000                           
0010001300047T 020180230000002544776 29647040650245844   7               04042017000000000006000001000132                         0900000000000010000000000000000000000000000000000000000   0000000000000000000000000A9        170192964704     
0010001300048U 020000000000000000000000000000000000000000000000000000000000000000000000000000000000000000000000000000000000000000000000000204201700000000            000000000000000                              000                           
0010001300049T 020180230000002544776 29647040671550345   7               05042017000000000006000001022748                         0900000000000010000000000000000000000000000000000000000   0000000000000000000000000A9        170192964704     
0010001300050U 020000000000000000000000000000000000000000000000000000000000000000000000000000000000000000000000000000000000000000000000000304201700000000            000000000000000                              000                           
0010001300051T 020180230000002544776 29647040678012554   7               04042017000000000006000001000132                         0900000000000010000000000000000000000000000000000000000   0000000000000000000000000A9        170192964704     
0010001300052U 020000000000000000000000000000000000000000000000000000000000000000000000000000000000000000000000000000000000000000000000000204201700000000            000000000000000                              000                           
0010001300053T 020180230000002544776 29647040681758179   7               04042017000000000006000001035041                         0900000000000010000000000000000000000000000000000000000   0000000000000000000000000A9        170192964704     
0010001300054U 020000000000000000000000000000000000000000000000000000000000000000000000000000000000000000000000000000000000000000000000000204201700000000            000000000000000                              000                           
0010001300055T 020180230000002544776 29647040683142941   7               05042017000000000006000001012467                         0900000000000010000000000000000000000000000000000000000   0000000000000000000000000A9        170192964704     
0010001300056U 020000000000000000000000000000000000000000000000000000000000000000000000000000000000000000000000000000000000000000000000000304201700000000            000000000000000                              000                           
0010001300057T 020180230000002544776 29647040683855793   7               05042017000000000006000001000132                         0900000000000010000000000000000000000000000000000000000   0000000000000000000000000A9        170192964704     
0010001300058U 020000000000000000000000000000000000000000000000000000000000000000000000000000000000000000000000000000000000000000000000000304201700000000            000000000000000                              000                           
0010001300059T 020180230000002544776 29647040688842448   7               04042017000000000008000001006734                         0900000000000010000000000000000000000000000000000000000   0000000000000000000000000A9        170192964704     
0010001300060U 020000000000000000000000000000000000000000000000000000000000000000000000000000000000000000000000000000000000000000000000000204201700000000            000000000000000                              000                           
0010001300061T 020180230000002544776 29647040692359451   7               05042017000000000006000001023884                         0900000000000010000000000000000000000000000000000000000   0000000000000000000000000A9        170192964704     
0010001300062U 020000000000000000000000000000000000000000000000000000000000000000000000000000000000000000000000000000000000000000000000000304201700000000            000000000000000                              000                           
0010001300063T 020180230000002544776 29647040702409536   7               04042017000000000006000001012467                         0900000000000010000000000000000000000000000000000000000   0000000000000000000000000A9        170192964704     
0010001300064U 020000000000000000000000000000000000000000000000000000000000000000000000000000000000000000000000000000000000000000000000000204201700000000            000000000000000                              000                           
0010001300065T 020180230000002544776 29647040708117753   7               04042017000000000008000001016179                         0900000000000010000000000000000000000000000000000000000   0000000000000000000000000A9        170192964704     
0010001300066U 020000000000000000000000000000000000000000000000000000000000000000000000000000000000000000000000000000000000000000000000000204201700000000            000000000000000                              000                           
0010001300067T 020180230000002544776 29647040721600158   7               05042017000000000006000001016179                         0900000000000010000000000000000000000000000000000000000   0000000000000000000000000A9        170192964704     
0010001300068U 020000000000000000000000000000000000000000000000000000000000000000000000000000000000000000000000000000000000000000000000000304201700000000            000000000000000                              000                           
0010001300069T 020180230000002544776 29647040725350293   7               03042017000000000008000001016179                         0900000000000010000000000000000000000000000000000000000   0000000000000000000000000A9        170192964704     
0010001300070U 020000000000000000000000000000000000000000000000000000000000000000000000000000000000000000000000000000000000000000000000000104201700000000            000000000000000                              000                           
0010001300071T 020180230000002544776 29647040734749704   7               05042017000000000006000001028029                         0900000000000010000000000000000000000000000000000000000   0000000000000000000000000A9        170192964704     
0010001300072U 020000000000000000000000000000000000000000000000000000000000000000000000000000000000000000000000000000000000000000000000000304201700000000            000000000000000                              000                           
0010001300073T 020180230000002544776 29647040739005494   7               05042017000000000006000001016179                         0900000000000010000000000000000000000000000000000000000   0000000000000000000000000A9        170192964704     
0010001300074U 020000000000000000000000000000000000000000000000000000000000000000000000000000000000000000000000000000000000000000000000000304201700000000            000000000000000                              000                           
0010001300075T 020180230000002544776 29647040757313180   7               04042017000000000006000001028029                         0900000000000010000000000000000000000000000000000000000   0000000000000000000000000A9        170192964704     
0010001300076U 020000000000000000000000000000000000000000000000000000000000000000000000000000000000000000000000000000000000000000000000000204201700000000            000000000000000                              000                           
0010001300077T 020180230000002544776 29647040757314045   7               04042017000000000006000001028029                         0900000000000010000000000000000000000000000000000000000   0000000000000000000000000A9        170192964704     
0010001300078U 020000000000000000000000000000000000000000000000000000000000000000000000000000000000000000000000000000000000000000000000000204201700000000            000000000000000                              000                           
0010001300079T 020180230000002544776 29647040797224865   7               05042017000000000006000001035041                         0900000000000010000000000000000000000000000000000000000   0000000000000000000000000A9        170192964704     
0010001300080U 020000000000000000000000000000000000000000000000000000000000000000000000000000000000000000000000000000000000000000000000000304201700000000            000000000000000                              000                           
0010001300081T 020180230000002544776 29647040797228646   7               05042017000000000006000001035041                         0900000000000010000000000000000000000000000000000000000   0000000000000000000000000A9        170192964704     
0010001300082U 020000000000000000000000000000000000000000000000000000000000000000000000000000000000000000000000000000000000000000000000000304201700000000            000000000000000                              000                           
0010001300083T 020180230000002544776 29647040808324397   7               04042017000000000006000001000132                         0900000000000010500000000000000000000000000000000000000   0000000000000000000000000A9A4      170192964704     
0010001300084U 020000000000000000000000000000000000000000000000000000000000000000000000000000000000000000000000000000000000000000000000000204201700000000            000000000000000                              000                           
0010001300085T 020180230000002544776 29647040815512605   7               03042017000000000006000001000132                         0900000000000010000000000000000000000000000000000000000   0000000000000000000000000A9        170192964704     
0010001300086U 020000000000000000000000000000000000000000000000000000000000000000000000000000000000000000000000000000000000000000000000000104201700000000            000000000000000                              000                           
0010001300087T 020180230000002544776 29647040818352549   7               05042017000000000006000001000132                         0900000000000010500000000000000000000000000000000000000   0000000000000000000000000A9A4      170192964704     
0010001300088U 020000000000000000000000000000000000000000000000000000000000000000000000000000000000000000000000000000000000000000000000000304201700000000            000000000000000                              000                           
0010001300089T 020180230000002544776 29647040821237709   7               03042017000000000006000001028029                         0900000000000010000000000000000000000000000000000000000   0000000000000000000000000A9        170192964704     
0010001300090U 020000000000000000000000000000000000000000000000000000000000000000000000000000000000000000000000000000000000000000000000000104201700000000            000000000000000                              000                           
0010001300091T 020180230000002544776 29647040828408799   7               05042017000000000006000001000132                         0900000000000010500000000000000000000000000000000000000   0000000000000000000000000A9A4      170192964704     
0010001300092U 020000000000000000000000000000000000000000000000000000000000000000000000000000000000000000000000000000000000000000000000000304201700000000            000000000000000                              000                           
0010001300093T 020180230000002544776 29647040828440101   7               04042017000000000006000001000132                         0900000000000010500000000000000000000000000000000000000   0000000000000000000000000A9A4      170192964704     
0010001300094U 020000000000000000000000000000000000000000000000000000000000000000000000000000000000000000000000000000000000000000000000000204201700000000            000000000000000                              000                           
0010001300095T 020180230000002544776 29647040853531022   7               03042017000000000006000001028029                         0900000000000010000000000000000000000000000000000000000   0000000000000000000000000A9        170192964704     
0010001300096U 020000000000000000000000000000000000000000000000000000000000000000000000000000000000000000000000000000000000000000000000000104201700000000            000000000000000                              000                           
0010001300097T 020180230000002544776 29647040874714130   7               04042017000000000006000001016179                         0900000000000010000000000000000000000000000000000000000   0000000000000000000000000A9        170192964704     
0010001300098U 020000000000000000000000000000000000000000000000000000000000000000000000000000000000000000000000000000000000000000000000000204201700000000            000000000000000                              000                           
0010001300099T 020180230000002544776 29647040904733495   7               04042017000000000008000001016179                         0900000000000010000000000000000000000000000000000000000   0000000000000000000000000A9        170192964704     
0010001300100U 020000000000000000000000000000000000000000000000000000000000000000000000000000000000000000000000000000000000000000000000000204201700000000            000000000000000                              000                           
0010001300101T 020180230000002544776 29647040922017591   7               03042017000000000006000001016179                         0900000000000010000000000000000000000000000000000000000   0000000000000000000000000A9        170192964704     
0010001300102U 020000000000000000000000000000000000000000000000000000000000000000000000000000000000000000000000000000000000000000000000000104201700000000            000000000000000                              000                           
0010001300103T 020180230000002544776 29647040925443471   7               05042017000000000006000001018376                         0900000000000010000000000000000000000000000000000000000   0000000000000000000000000A9        170192964704     
0010001300104U 020000000000000000000000000000000000000000000000000000000000000000000000000000000000000000000000000000000000000000000000000304201700000000            000000000000000                              000                           
0010001300105T 020180230000002544776 29647040925629383   7               05042017000000000006000001028029                         0900000000000010000000000000000000000000000000000000000   0000000000000000000000000A9        170192964704     
0010001300106U 020000000000000000000000000000000000000000000000000000000000000000000000000000000000000000000000000000000000000000000000000304201700000000            000000000000000                              000                           
0010001300107T 020180230000002544776 29647040928329054   7               03042017000000000006000001028029                         0900000000000010000000000000000000000000000000000000000   0000000000000000000000000A9        170192964704     
0010001300108U 020000000000000000000000000000000000000000000000000000000000000000000000000000000000000000000000000000000000000000000000000104201700000000            000000000000000                              000                           
0010001300109T 020180230000002544776 29647040928906988   7               05042017000000000006000001012467                         0900000000000010000000000000000000000000000000000000000   0000000000000000000000000A9        170192964704     
0010001300110U 020000000000000000000000000000000000000000000000000000000000000000000000000000000000000000000000000000000000000000000000000304201700000000            000000000000000                              000                           
0010001300111T 020180230000002544776 29647040934955494   7               04042017000000000006000001016179                         0900000000000010000000000000000000000000000000000000000   0000000000000000000000000A9        170192964704     
0010001300112U 020000000000000000000000000000000000000000000000000000000000000000000000000000000000000000000000000000000000000000000000000204201700000000            000000000000000                              000                           
0010001300113T 020180230000002544776 29647040947359498   7               04042017000000000006000001003611                         0900000000000010000000000000000000000000000000000000000   0000000000000000000000000A9        170192964704     
0010001300114U 020000000000000000000000000000000000000000000000000000000000000000000000000000000000000000000000000000000000000000000000000204201700000000            000000000000000                              000                           
0010001300115T 020180230000002544776 29647040947954588   7               04042017000000000006000001035033                         0900000000000010000000000000000000000000000000000000000   0000000000000000000000000A9        170192964704     
0010001300116U 020000000000000000000000000000000000000000000000000000000000000000000000000000000000000000000000000000000000000000000000000204201700000000            000000000000000                              000                           
0010001300117T 020180230000002544776 29647040951720382   7               04042017000000000006000001018376                         0900000000000010000000000000000000000000000000000000000   0000000000000000000000000A9        170192964704     
0010001300118U 020000000000000000000000000000000000000000000000000000000000000000000000000000000000000000000000000000000000000000000000000204201700000000            000000000000000                              000                           
0010001300119T 020180230000002544776 29647040951754203   7               05042017000000000006000001018376                         0900000000000010000000000000000000000000000000000000000   0000000000000000000000000A9        170192964704     
0010001300120U 020000000000000000000000000000000000000000000000000000000000000000000000000000000000000000000000000000000000000000000000000304201700000000            000000000000000                              000                           
0010001300121T 020180230000002544776 29647040957543537   7               04042017000000000006000001018376                         0900000000000010000000000000000000000000000000000000000   0000000000000000000000000A9        170192964704     
0010001300122U 020000000000000000000000000000000000000000000000000000000000000000000000000000000000000000000000000000000000000000000000000204201700000000            000000000000000                              000                           
0010001300123T 020180230000002544776 29647040958121554   7               04042017000000000008000001028029                         0900000000000010500000000000000000000000000000000000000   0000000000000000000000000A9A4      170192964704     
0010001300124U 020000000000000000000000000000000000000000000000000000000000000000000000000000000000000000000000000000000000000000000000000204201700000000            000000000000000                              000                           
0010001300125T 020180230000002544776 29647040981804475   7               05042017000000000006000001016179                         0900000000000010000000000000000000000000000000000000000   0000000000000000000000000A9        170192964704     
0010001300126U 020000000000000000000000000000000000000000000000000000000000000000000000000000000000000000000000000000000000000000000000000304201700000000            000000000000000                              000                           
0010001300127T 020180230000002544776 29647040982037266   7               04042017000000000006000001028029                         0900000000000010000000000000000000000000000000000000000   0000000000000000000000000A9        170192964704     
0010001300128U 020000000000000000000000000000000000000000000000000000000000000000000000000000000000000000000000000000000000000000000000000204201700000000            000000000000000                              000                           
0010001300129T 020180230000002544776 29647040983406557   7               04042017000000000006000001028029                         0900000000000010000000000000000000000000000000000000000   0000000000000000000000000A9        170192964704     
0010001300130U 020000000000000000000000000000000000000000000000000000000000000000000000000000000000000000000000000000000000000000000000000204201700000000            000000000000000                              000                           
0010001300131T 020180230000002544776 29647040983449966   7               04042017000000000006000001028029                         0900000000000010000000000000000000000000000000000000000   0000000000000000000000000A9        170192964704     
0010001300132U 020000000000000000000000000000000000000000000000000000000000000000000000000000000000000000000000000000000000000000000000000204201700000000            000000000000000                              000                           
0010001300133T 020180230000002544776 29647041003149257   7               04042017000000000006000001000132                         0900000000000010500000000000000000000000000000000000000   0000000000000000000000000A9A4      170192964704     
0010001300134U 020000000000000000000000000000000000000000000000000000000000000000000000000000000000000000000000000000000000000000000000000204201700000000            000000000000000                              000                           
0010001300135T 020180230000002544776 29647041007451290   7               03042017000000000006000001000132                         0900000000000010000000000000000000000000000000000000000   0000000000000000000000000A9        170192964704     
0010001300136U 020000000000000000000000000000000000000000000000000000000000000000000000000000000000000000000000000000000000000000000000000104201700000000            000000000000000                              000                           
0010001300137T 020180230000002544776 29647041024654458   7               04042017000000000006000001021911                         0900000000000010000000000000000000000000000000000000000   0000000000000000000000000A9        170192964704     
0010001300138U 020000000000000000000000000000000000000000000000000000000000000000000000000000000000000000000000000000000000000000000000000204201700000000            000000000000000                              000                           
0010001300139T 020180230000002544776 29647041024813921   7               0504201700000000000600000100944X                         0900000000000010000000000000000000000000000000000000000   0000000000000000000000000A9        170192964704     
0010001300140U 020000000000000000000000000000000000000000000000000000000000000000000000000000000000000000000000000000000000000000000000000304201700000000            000000000000000                              000                           
0010001300141T 020180230000002544776 29647041025541327   7               04042017000000000006000001028029                         0900000000000010000000000000000000000000000000000000000   0000000000000000000000000A9        170192964704     
0010001300142U 020000000000000000000000000000000000000000000000000000000000000000000000000000000000000000000000000000000000000000000000000204201700000000            000000000000000                              000                           
0010001300143T 020180230000002544776 29647041025843290   7               05042017000000000006000001025089                         0900000000000010000000000000000000000000000000000000000   0000000000000000000000000A9        170192964704     
0010001300144U 020000000000000000000000000000000000000000000000000000000000000000000000000000000000000000000000000000000000000000000000000304201700000000            000000000000000                              000                           
0010001300145T 020180230000002544776 29647041025845030   7               03042017000000000006000001025089                         0900000000000010000000000000000000000000000000000000000   0000000000000000000000000A9        170192964704     
0010001300146U 020000000000000000000000000000000000000000000000000000000000000000000000000000000000000000000000000000000000000000000000000104201700000000            000000000000000                              000                           
0010001300147T 020180230000002544776 29647041029552712   7               05042017000000000006000001033316                         0900000000000010000000000000000000000000000000000000000   0000000000000000000000000A9        170192964704     
0010001300148U 020000000000000000000000000000000000000000000000000000000000000000000000000000000000000000000000000000000000000000000000000304201700000000            000000000000000                              000                           
0010001300149T 020180230000002544776 29647041036751635   7               03042017000000000006000001016179                         0900000000000010000000000000000000000000000000000000000   0000000000000000000000000A9        170192964704     
0010001300150U 020000000000000000000000000000000000000000000000000000000000000000000000000000000000000000000000000000000000000000000000000104201700000000            000000000000000                              000                           
0010001300151T 020180230000002544776 29647041068610429   7               03042017000000000006000001016179                         0900000000000010000000000000000000000000000000000000000   0000000000000000000000000A9        170192964704     
0010001300152U 020000000000000000000000000000000000000000000000000000000000000000000000000000000000000000000000000000000000000000000000000104201700000000            000000000000000                              000                           
0010001300153T 020180230000002544776 29647041068839976   7               04042017000000000006000001016179                         0900000000000010000000000000000000000000000000000000000   0000000000000000000000000A9        170192964704     
0010001300154U 020000000000000000000000000000000000000000000000000000000000000000000000000000000000000000000000000000000000000000000000000204201700000000            000000000000000                              000                           
0010001300155T 020180230000002544776 29647041068843786   7               04042017000000000006000001016179                         0900000000000010000000000000000000000000000000000000000   0000000000000000000000000A9        170192964704     
0010001300156U 020000000000000000000000000000000000000000000000000000000000000000000000000000000000000000000000000000000000000000000000000204201700000000            000000000000000                              000                           
0010001300157T 020180230000002544776 29647041094203688   7               05042017000000000008000001000132                         0900000000000010000000000000000000000000000000000000000   0000000000000000000000000A9        170192964704     
0010001300158U 020000000000000000000000000000000000000000000000000000000000000000000000000000000000000000000000000000000000000000000000000304201700000000            000000000000000                              000                           
0010001300159T 020180230000002544776 29647041096712756   7               05042017000000000006000001005428                         0900000000000010000000000000000000000000000000000000000   0000000000000000000000000A9        170192964704     
0010001300160U 020000000000000000000000000000000000000000000000000000000000000000000000000000000000000000000000000000000000000000000000000304201700000000            000000000000000                              000                           
0010001300161T 020180230000002544776 29647041107452303   7               05042017000000000006000001020354                         0900000000000010500000000000000000000000000000000000000   0000000000000000000000000A9A4      170192964704     
0010001300162U 020000000000000000000000000000000000000000000000000000000000000000000000000000000000000000000000000000000000000000000000000304201700000000            000000000000000                              000                           
0010001300163T 020180230000002544776 29647041113944425   7               05042017000000000006000001016179                         0900000000000010000000000000000000000000000000000000000   0000000000000000000000000A9        170192964704     
0010001300164U 020000000000000000000000000000000000000000000000000000000000000000000000000000000000000000000000000000000000000000000000000304201700000000            000000000000000                              000                           
0010001300165T 020180230000002544776 29647041113954872   7               05042017000000000006000001016179                         0900000000000010000000000000000000000000000000000000000   0000000000000000000000000A9        170192964704     
0010001300166U 020000000000000000000000000000000000000000000000000000000000000000000000000000000000000000000000000000000000000000000000000304201700000000            000000000000000                              000                           
0010001300167T 020180230000002544776 29647041114748747   7               03042017000000000006000001026972                         0900000000000010000000000000000000000000000000000000000   0000000000000000000000000A9        170192964704     
0010001300168U 020000000000000000000000000000000000000000000000000000000000000000000000000000000000000000000000000000000000000000000000000104201700000000            000000000000000                              000                           
0010001300169T 020180230000002544776 29647041138655750   7               05042017000000000006000001012467                         0900000000000010000000000000000000000000000000000000000   0000000000000000000000000A9        170192964704     
0010001300170U 020000000000000000000000000000000000000000000000000000000000000000000000000000000000000000000000000000000000000000000000000304201700000000            000000000000000                              000                           
0010001300171T 020180230000002544776 29647041140954025   7               03042017000000000008000001011177                         0900000000000010000000000000000000000000000000000000000   0000000000000000000000000A9        170192964704     
0010001300172U 020000000000000000000000000000000000000000000000000000000000000000000000000000000000000000000000000000000000000000000000000104201700000000            000000000000000                              000                           
0010001300173T 020180230000002544776 29647041159731144   7               04042017000000000006000001033316                         0900000000000010000000000000000000000000000000000000000   0000000000000000000000000A9        170192964704     
0010001300174U 020000000000000000000000000000000000000000000000000000000000000000000000000000000000000000000000000000000000000000000000000204201700000000            000000000000000                              000                           
0010001300175T 020180230000002544776 29647041161939702   7               05042017000000000006000001012467                         0900000000000010000000000000000000000000000000000000000   0000000000000000000000000A9        170192964704     
0010001300176U 020000000000000000000000000000000000000000000000000000000000000000000000000000000000000000000000000000000000000000000000000304201700000000            000000000000000                              000                           
0010001300177T 020180230000002544776 29647041164241912   7               04042017000000000006000001028029                         0900000000000010000000000000000000000000000000000000000   0000000000000000000000000A9        170192964704     
0010001300178U 020000000000000000000000000000000000000000000000000000000000000000000000000000000000000000000000000000000000000000000000000204201700000000            000000000000000                              000                           
0010001300179T 020180230000002544776 29647041185409689   7               05042017000000000006000001014699                         0900000000000010000000000000000000000000000000000000000   0000000000000000000000000A9        170192964704     
0010001300180U 020000000000000000000000000000000000000000000000000000000000000000000000000000000000000000000000000000000000000000000000000304201700000000            000000000000000                              000                           
0010001300181T 020180230000002544776 29647041193454622   7               05042017000000000006000001006734                         0900000000000010000000000000000000000000000000000000000   0000000000000000000000000A9        170192964704     
0010001300182U 020000000000000000000000000000000000000000000000000000000000000000000000000000000000000000000000000000000000000000000000000304201700000000            000000000000000                              000                           
0010001300183T 020180230000002544776 29647041205412068   7               03042017000000000006000001033316                         0900000000000010000000000000000000000000000000000000000   0000000000000000000000000A9        170192964704     
0010001300184U 020000000000000000000000000000000000000000000000000000000000000000000000000000000000000000000000000000000000000000000000000104201700000000            000000000000000                              000                           
0010001300185T 020180230000002544776 29647041213345540   7               05042017000000000006000001033316                         0900000000000010000000000000000000000000000000000000000   0000000000000000000000000A9        170192964704     
0010001300186U 020000000000000000000000000000000000000000000000000000000000000000000000000000000000000000000000000000000000000000000000000304201700000000            000000000000000                              000                           
0010001300187T 020180230000002544776 29647041215532343   7               05042017000000000008000001028029                         0900000000000010000000000000000000000000000000000000000   0000000000000000000000000A9        170192964704     
0010001300188U 020000000000000000000000000000000000000000000000000000000000000000000000000000000000000000000000000000000000000000000000000304201700000000            000000000000000                              000                           
0010001300189T 020180230000002544776 29647041215549731   7               05042017000000000008000001028029                         0900000000000010000000000000000000000000000000000000000   0000000000000000000000000A9        170192964704     
0010001300190U 020000000000000000000000000000000000000000000000000000000000000000000000000000000000000000000000000000000000000000000000000304201700000000            000000000000000                              000                           
0010001300191T 020180230000002544776 29647041217203183   7               03042017000000000006000001011088                         0900000000000010000000000000000000000000000000000000000   0000000000000000000000000A9        170192964704     
0010001300192U 020000000000000000000000000000000000000000000000000000000000000000000000000000000000000000000000000000000000000000000000000104201700000000            000000000000000                              000                           
0010001300193T 020180230000002544776 29647041217700617   7               05042017000000000006000001033316                         0900000000000010000000000000000000000000000000000000000   0000000000000000000000000A9        170192964704     
0010001300194U 020000000000000000000000000000000000000000000000000000000000000000000000000000000000000000000000000000000000000000000000000304201700000000            000000000000000                              000                           
0010001300195T 020180230000002544776 29647041222101494   7               04042017000000000006000001009849                         0900000000000010000000000000000000000000000000000000000   0000000000000000000000000A9        170192964704     
0010001300196U 020000000000000000000000000000000000000000000000000000000000000000000000000000000000000000000000000000000000000000000000000204201700000000            000000000000000                              000                           
0010001300197T 020180230000002544776 29647041225556058   7               04042017000000000006000001016810                         0900000000000010000000000000000000000000000000000000000   0000000000000000000000000A9        170192964704     
0010001300198U 020000000000000000000000000000000000000000000000000000000000000000000000000000000000000000000000000000000000000000000000000204201700000000            000000000000000                              000                           
0010001300199T 020180230000002544776 29647041227401891   7               05042017000000000006000001028029                         0900000000000010000000000000000000000000000000000000000   0000000000000000000000000A9        170192964704     
0010001300200U 020000000000000000000000000000000000000000000000000000000000000000000000000000000000000000000000000000000000000000000000000304201700000000            000000000000000                              000                           
0010001300201T 020180230000002544776 29647041230112339   7               05042017000000000006000001010421                         0900000000000010000000000000000000000000000000000000000   0000000000000000000000000A9        170192964704     
0010001300202U 020000000000000000000000000000000000000000000000000000000000000000000000000000000000000000000000000000000000000000000000000304201700000000            000000000000000                              000                           
0010001300203T 020180230000002544776 29647041231838685   7               05042017000000000008000001016179                         0900000000000010000000000000000000000000000000000000000   0000000000000000000000000A9        170192964704     
0010001300204U 020000000000000000000000000000000000000000000000000000000000000000000000000000000000000000000000000000000000000000000000000304201700000000            000000000000000                              000                           
0010001300205T 020180230000002544776 29647041234137670   7               03042017000000000006000001033316                         0900000000000010000000000000000000000000000000000000000   0000000000000000000000000A9        170192964704     
0010001300206U 020000000000000000000000000000000000000000000000000000000000000000000000000000000000000000000000000000000000000000000000000104201700000000            000000000000000                              000                           
0010001300207T 020180230000002544776 29647041234952543   7               04042017000000000006000001044865                         0900000000000010000000000000000000000000000000000000000   0000000000000000000000000A9        170192964704     
0010001300208U 020000000000000000000000000000000000000000000000000000000000000000000000000000000000000000000000000000000000000000000000000204201700000000            000000000000000                              000                           
0010001300209T 020180230000002544776 29647041235914178   7               05042017000000000006000001033316                         0900000000000010000000000000000000000000000000000000000   0000000000000000000000000A9        170192964704     
0010001300210U 020000000000000000000000000000000000000000000000000000000000000000000000000000000000000000000000000000000000000000000000000304201700000000            000000000000000                              000                           
0010001300211T 020180230000002544776 29647041239210294   7               03042017000000000006000001028029                         0900000000000010000000000000000000000000000000000000000   0000000000000000000000000A9        170192964704     
0010001300212U 020000000000000000000000000000000000000000000000000000000000000000000000000000000000000000000000000000000000000000000000000104201700000000            000000000000000                              000                           
0010001300213T 020180230000002544776 29647041256556471   7               05042017000000000006000001012688                         0900000000000010000000000000000000000000000000000000000   0000000000000000000000000A9        170192964704     
0010001300214U 020000000000000000000000000000000000000000000000000000000000000000000000000000000000000000000000000000000000000000000000000304201700000000            000000000000000                              000                           
0010001300215T 020180230000002544776 29647041274024693   7               05042017000000000006000001016179                         0900000000000010000000000000000000000000000000000000000   0000000000000000000000000A9        170192964704     
0010001300216U 020000000000000000000000000000000000000000000000000000000000000000000000000000000000000000000000000000000000000000000000000304201700000000            000000000000000                              000                           
0010001300217T 020180230000002544776 29647041274050024   7               05042017000000000006000001016179                         0900000000000010000000000000000000000000000000000000000   0000000000000000000000000A9        170192964704     
0010001300218U 020000000000000000000000000000000000000000000000000000000000000000000000000000000000000000000000000000000000000000000000000304201700000000            000000000000000                              000                           
0010001300219T 020180230000002544776 29647041275328389   7               05042017000000000006000001023655                         0900000000000010000000000000000000000000000000000000000   0000000000000000000000000A9        170192964704     
0010001300220U 020000000000000000000000000000000000000000000000000000000000000000000000000000000000000000000000000000000000000000000000000304201700000000            000000000000000                              000                           
0010001300221T 020180230000002544776 29647041275507839   7               05042017000000000006000001016179                         0900000000000010000000000000000000000000000000000000000   0000000000000000000000000A9        170192964704     
0010001300222U 020000000000000000000000000000000000000000000000000000000000000000000000000000000000000000000000000000000000000000000000000304201700000000            000000000000000                              000                           
0010001300223T 020180230000002544776 29647041284529707   7               05042017000000000006000001012467                         0900000000000010000000000000000000000000000000000000000   0000000000000000000000000A9        170192964704     
0010001300224U 020000000000000000000000000000000000000000000000000000000000000000000000000000000000000000000000000000000000000000000000000304201700000000            000000000000000                              000                           
0010001300225T 020180230000002544776 29647041286157972   7               05042017000000000006000001000132                         0900000000000010000000000000000000000000000000000000000   0000000000000000000000000A9        170192964704     
0010001300226U 020000000000000000000000000000000000000000000000000000000000000000000000000000000000000000000000000000000000000000000000000304201700000000            000000000000000                              000                           
0010001300227T 020180230000002544776 29647041290121198   7               04042017000000000006000001020354                         0900000000000010000000000000000000000000000000000000000   0000000000000000000000000A9        170192964704     
0010001300228U 020000000000000000000000000000000000000000000000000000000000000000000000000000000000000000000000000000000000000000000000000204201700000000            000000000000000                              000                           
0010001300229T 020180230000002544776 29647041290651638   7               05042017000000000008000001006734                         0900000000000010000000000000000000000000000000000000000   0000000000000000000000000A9        170192964704     
0010001300230U 020000000000000000000000000000000000000000000000000000000000000000000000000000000000000000000000000000000000000000000000000304201700000000            000000000000000                              000                           
0010001300231T 020180230000002544776 29647041292314836   7               03042017000000000006000001012688                         0900000000000010000000000000000000000000000000000000000   0000000000000000000000000A9        170192964704     
0010001300232U 020000000000000000000000000000000000000000000000000000000000000000000000000000000000000000000000000000000000000000000000000104201700000000            000000000000000                              000                           
0010001300233T 020180230000002544776 29647041311304455   7               03042017000000000006000001010421                         0900000000000010000000000000000000000000000000000000000   0000000000000000000000000A9        170192964704     
0010001300234U 020000000000000000000000000000000000000000000000000000000000000000000000000000000000000000000000000000000000000000000000000104201700000000            000000000000000                              000                           
0010001300235T 020180230000002544776 29647041312527909   7               03042017000000000006000001002208                         0900000000000010000000000000000000000000000000000000000   0000000000000000000000000A9        170192964704     
0010001300236U 020000000000000000000000000000000000000000000000000000000000000000000000000000000000000000000000000000000000000000000000000104201700000000            000000000000000                              000                           
0010001300237T 020180230000002544776 29647041318135288   7               05042017000000000006000001016179                         0900000000000010000000000000000000000000000000000000000   0000000000000000000000000A9        170192964704     
0010001300238U 020000000000000000000000000000000000000000000000000000000000000000000000000000000000000000000000000000000000000000000000000304201700000000            000000000000000                              000                           
0010001300239T 020180230000002544776 29647041318212086   7               05042017000000000006000001016179                         0900000000000010000000000000000000000000000000000000000   0000000000000000000000000A9        170192964704     
0010001300240U 020000000000000000000000000000000000000000000000000000000000000000000000000000000000000000000000000000000000000000000000000304201700000000            000000000000000                              000                           
0010001300241T 020180230000002544776 29647041318643569   7               04042017000000000006000001028029                         0900000000000010000000000000000000000000000000000000000   0000000000000000000000000A9        170192964704     
0010001300242U 020000000000000000000000000000000000000000000000000000000000000000000000000000000000000000000000000000000000000000000000000204201700000000            000000000000000                              000                           
0010001300243T 020180230000002544776 29647041318649426   7               04042017000000000006000001028029                         0900000000000010000000000000000000000000000000000000000   0000000000000000000000000A9        170192964704     
0010001300244U 020000000000000000000000000000000000000000000000000000000000000000000000000000000000000000000000000000000000000000000000000204201700000000            000000000000000                              000                           
0010001300245T 020180230000002544776 29647041318655670   7               04042017000000000006000001028029                         0900000000000010000000000000000000000000000000000000000   0000000000000000000000000A9        170192964704     
0010001300246U 020000000000000000000000000000000000000000000000000000000000000000000000000000000000000000000000000000000000000000000000000204201700000000            000000000000000                              000                           
0010001300247T 020180230000002544776 29647041319322886   7               05042017000000000006000001025089                         0900000000000010000000000000000000000000000000000000000   0000000000000000000000000A9        170192964704     
0010001300248U 020000000000000000000000000000000000000000000000000000000000000000000000000000000000000000000000000000000000000000000000000304201700000000            000000000000000                              000                           
0010001300249T 020180230000002544776 29647041322633936   7               05042017000000000006000001033316                         0900000000000010000000000000000000000000000000000000000   0000000000000000000000000A9        170192964704     
0010001300250U 020000000000000000000000000000000000000000000000000000000000000000000000000000000000000000000000000000000000000000000000000304201700000000            000000000000000                              000                           
0010001300251T 020180230000002544776 29647041330334194   7               05042017000000000006000001033316                         0900000000000010000000000000000000000000000000000000000   0000000000000000000000000A9        170192964704     
0010001300252U 020000000000000000000000000000000000000000000000000000000000000000000000000000000000000000000000000000000000000000000000000304201700000000            000000000000000                              000                           
0010001300253T 020180230000002544776 29647041338726795   7               05042017000000000006000001028029                         0900000000000010000000000000000000000000000000000000000   0000000000000000000000000A9        170192964704     
0010001300254U 020000000000000000000000000000000000000000000000000000000000000000000000000000000000000000000000000000000000000000000000000304201700000000            000000000000000                              000                           
0010001300255T 020180230000002544776 29647041339007601   7               04042017000000000006000001000132                         0900000000000010000000000000000000000000000000000000000   0000000000000000000000000A9        170192964704     
0010001300256U 020000000000000000000000000000000000000000000000000000000000000000000000000000000000000000000000000000000000000000000000000204201700000000            000000000000000                              000                           
0010001300257T 020180230000002544776 29647041343015036   7               05042017000000000006000001000361                         0900000000000010000000000000000000000000000000000000000   0000000000000000000000000A9        170192964704     
0010001300258U 020000000000000000000000000000000000000000000000000000000000000000000000000000000000000000000000000000000000000000000000000304201700000000            000000000000000                              000                           
0010001300259T 020180230000002544776 29647041344013795   7               04042017000000000006000001016179                         0900000000000010000000000000000000000000000000000000000   0000000000000000000000000A9        170192964704     
0010001300260U 020000000000000000000000000000000000000000000000000000000000000000000000000000000000000000000000000000000000000000000000000204201700000000            000000000000000                              000                           
0010001300261T 020180230000002544776 29647041347016458   7               04042017000000000006000001012467                         0900000000000010000000000000000000000000000000000000000   0000000000000000000000000A9        170192964704     
0010001300262U 020000000000000000000000000000000000000000000000000000000000000000000000000000000000000000000000000000000000000000000000000204201700000000            000000000000000                              000                           
0010001300263T 020180230000002544776 29647041347057815   7               04042017000000000006000001012467                         0900000000000010000000000000000000000000000000000000000   0000000000000000000000000A9        170192964704     
0010001300264U 020000000000000000000000000000000000000000000000000000000000000000000000000000000000000000000000000000000000000000000000000204201700000000            000000000000000                              000                           
0010001300265T 020180230000002544776 29647041347058691   7               04042017000000000006000001012467                         0900000000000010000000000000000000000000000000000000000   0000000000000000000000000A9        170192964704     
0010001300266U 020000000000000000000000000000000000000000000000000000000000000000000000000000000000000000000000000000000000000000000000000204201700000000            000000000000000                              000                           
0010001300267T 020180230000002544776 29647041352655860   7               05042017000000000006000001023655                         0900000000000010000000000000000000000000000000000000000   0000000000000000000000000A9        170192964704     
0010001300268U 020000000000000000000000000000000000000000000000000000000000000000000000000000000000000000000000000000000000000000000000000304201700000000            000000000000000                              000                           
0010001300269T 020180230000002544776 29647041356312623   7               05042017000000000006000001020354                         0900000000000010000000000000000000000000000000000000000   0000000000000000000000000A9        170192964704     
0010001300270U 020000000000000000000000000000000000000000000000000000000000000000000000000000000000000000000000000000000000000000000000000304201700000000            000000000000000                              000                           
0010001300271T 020180230000002544776 29647041362104553   7               04042017000000000006000001002933                         0900000000000010000000000000000000000000000000000000000   0000000000000000000000000A9        170192964704     
0010001300272U 020000000000000000000000000000000000000000000000000000000000000000000000000000000000000000000000000000000000000000000000000204201700000000            000000000000000                              000                           
0010001300273T 020180230000002544776 29647041370916301   7               04042017000000000006000001028029                         0900000000000010000000000000000000000000000000000000000   0000000000000000000000000A9        170192964704     
0010001300274U 020000000000000000000000000000000000000000000000000000000000000000000000000000000000000000000000000000000000000000000000000204201700000000            000000000000000                              000                           
0010001300275T 020180230000002544776 29647041379323918   7               05042017000000000006000001008214                         0900000000000010500000000000000000000000000000000000000   0000000000000000000000000A9A4      170192964704     
0010001300276U 020000000000000000000000000000000000000000000000000000000000000000000000000000000000000000000000000000000000000000000000000304201700000000            000000000000000                              000                           
0010001300277T 020180230000002544776 29647041386526764   7               04042017000000000006000001028029                         0900000000000010000000000000000000000000000000000000000   0000000000000000000000000A9        170192964704     
0010001300278U 020000000000000000000000000000000000000000000000000000000000000000000000000000000000000000000000000000000000000000000000000204201700000000            000000000000000                              000                           
0010001300279T 020180230000002544776 29647041388102634   7               05042017000000000006000001028029                         0900000000000010000000000000000000000000000000000000000   0000000000000000000000000A9        170192964704     
0010001300280U 020000000000000000000000000000000000000000000000000000000000000000000000000000000000000000000000000000000000000000000000000304201700000000            000000000000000                              000                           
0010001300281T 020180230000002544776 29647041389026702   7               05042017000000000006000001028029                         0900000000000010000000000000000000000000000000000000000   0000000000000000000000000A9        170192964704     
0010001300282U 020000000000000000000000000000000000000000000000000000000000000000000000000000000000000000000000000000000000000000000000000304201700000000            000000000000000                              000                           
0010001300283T 020180230000002544776 29647041396940283   7               05042017000000000008000001016179                         0900000000000010000000000000000000000000000000000000000   0000000000000000000000000A9        170192964704     
0010001300284U 020000000000000000000000000000000000000000000000000000000000000000000000000000000000000000000000000000000000000000000000000304201700000000            000000000000000                              000                           
0010001300285T 020180230000002544776 29647041398956309   7               05042017000000000006000001007277                         0900000000000010000000000000000000000000000000000000000   0000000000000000000000000A9        170192964704     
0010001300286U 020000000000000000000000000000000000000000000000000000000000000000000000000000000000000000000000000000000000000000000000000304201700000000            000000000000000                              000                           
0010001300287T 020180230000002544776 29647041401132310   7               05042017000000000006000001016179                         0900000000000010000000000000000000000000000000000000000   0000000000000000000000000A9        170192964704     
0010001300288U 020000000000000000000000000000000000000000000000000000000000000000000000000000000000000000000000000000000000000000000000000304201700000000            000000000000000                              000                           
0010001300289T 020180230000002544776 29647041403005252   7               04042017000000000006000001000132                         0900000000000010000000000000000000000000000000000000000   0000000000000000000000000A9        170192964704     
0010001300290U 020000000000000000000000000000000000000000000000000000000000000000000000000000000000000000000000000000000000000000000000000204201700000000            000000000000000                              000                           
0010001300291T 020180230000002544776 29647041411045608   7               03042017000000000008000001010421                         0900000000000010000000000000000000000000000000000000000   0000000000000000000000000A9        170192964704     
0010001300292U 020000000000000000000000000000000000000000000000000000000000000000000000000000000000000000000000000000000000000000000000000104201700000000            000000000000000                              000                           
0010001300293T 020180230000002544776 29647041412604601   7               04042017000000000006000001033316                         0900000000000010000000000000000000000000000000000000000   0000000000000000000000000A9        170192964704     
0010001300294U 020000000000000000000000000000000000000000000000000000000000000000000000000000000000000000000000000000000000000000000000000204201700000000            000000000000000                              000                           
0010001300295T 020180230000002544776 29647041413527397   7               03042017000000000006000001011347                         0900000000000010000000000000000000000000000000000000000   0000000000000000000000000A9        170192964704     
0010001300296U 020000000000000000000000000000000000000000000000000000000000000000000000000000000000000000000000000000000000000000000000000104201700000000            000000000000000                              000                           
0010001300297T 020180230000002544776 29647041416206887   7               05042017000000000006000001002003                         0900000000000010000000000000000000000000000000000000000   0000000000000000000000000A9        170192964704     
0010001300298U 020000000000000000000000000000000000000000000000000000000000000000000000000000000000000000000000000000000000000000000000000304201700000000            000000000000000                              000                           
0010001300299T 020180230000002544776 29647041416214547   7               03042017000000000006000001002003                         0900000000000010000000000000000000000000000000000000000   0000000000000000000000000A9        170192964704     
0010001300300U 020000000000000000000000000000000000000000000000000000000000000000000000000000000000000000000000000000000000000000000000000104201700000000            000000000000000                              000                           
0010001300301T 020180230000002544776 29647041422954923   7               05042017000000000006000001000213                         0900000000000010000000000000000000000000000000000000000   0000000000000000000000000A9        170192964704     
0010001300302U 020000000000000000000000000000000000000000000000000000000000000000000000000000000000000000000000000000000000000000000000000304201700000000            000000000000000                              000                           
0010001300303T 020180230000002544776 29647041425805394   7               04042017000000000006000001012467                         0900000000000010000000000000000000000000000000000000000   0000000000000000000000000A9        170192964704     
0010001300304U 020000000000000000000000000000000000000000000000000000000000000000000000000000000000000000000000000000000000000000000000000204201700000000            000000000000000                              000                           
0010001300305T 020180230000002544776 29647041426611173   7               05042017000000000006000001012467                         0900000000000010000000000000000000000000000000000000000   0000000000000000000000000A9        170192964704     
0010001300306U 020000000000000000000000000000000000000000000000000000000000000000000000000000000000000000000000000000000000000000000000000304201700000000            000000000000000                              000                           
0010001300307T 020180230000002544776 29647041433544418   7               05042017000000000006000001028029                         0900000000000010000000000000000000000000000000000000000   0000000000000000000000000A9        170192964704     
0010001300308U 020000000000000000000000000000000000000000000000000000000000000000000000000000000000000000000000000000000000000000000000000304201700000000            000000000000000                              000                           
0010001300309T 020180230000002544776 29647041433613686   7               04042017000000000006000001001597                         0900000000000010000000000000000000000000000000000000000   0000000000000000000000000A9        170192964704     
0010001300310U 020000000000000000000000000000000000000000000000000000000000000000000000000000000000000000000000000000000000000000000000000204201700000000            000000000000000                              000                           
0010001300311T 020180230000002544776 29647041435034883   7               05042017000000000008000001028029                         0900000000000010000000000000000000000000000000000000000   0000000000000000000000000A9        170192964704     
0010001300312U 020000000000000000000000000000000000000000000000000000000000000000000000000000000000000000000000000000000000000000000000000304201700000000            000000000000000                              000                           
0010001300313T 020180230000002544776 29647041435814053   7               04042017000000000006000001025429                         0900000000000010000000000000000000000000000000000000000   0000000000000000000000000A9        170192964704     
0010001300314U 020000000000000000000000000000000000000000000000000000000000000000000000000000000000000000000000000000000000000000000000000204201700000000            000000000000000                              000                           
0010001300315T 020180230000002544776 29647041435832426   7               04042017000000000006000001025429                         0900000000000010000000000000000000000000000000000000000   0000000000000000000000000A9        170192964704     
0010001300316U 020000000000000000000000000000000000000000000000000000000000000000000000000000000000000000000000000000000000000000000000000204201700000000            000000000000000                              000                           
0010001300317T 020180230000002544776 29647041435857198   7               04042017000000000006000001025429                         0900000000000010000000000000000000000000000000000000000   0000000000000000000000000A9        170192964704     
0010001300318U 020000000000000000000000000000000000000000000000000000000000000000000000000000000000000000000000000000000000000000000000000204201700000000            000000000000000                              000                           
0010001300319T 020180230000002544776 29647041437112443   7               05042017000000000006000001028029                         0900000000000010500000000000000000000000000000000000000   0000000000000000000000000A9A4      170192964704     
0010001300320U 020000000000000000000000000000000000000000000000000000000000000000000000000000000000000000000000000000000000000000000000000304201700000000            000000000000000                              000                           
0010001300321T 020180230000002544776 29647041440853918   7               04042017000000000006000001006343                         0900000000000010000000000000000000000000000000000000000   0000000000000000000000000A9        170192964704     
0010001300322U 020000000000000000000000000000000000000000000000000000000000000000000000000000000000000000000000000000000000000000000000000204201700000000            000000000000000                              000                           
0010001300323T 020180230000002544776 29647041441858596   7               04042017000000000008000001012467                         0900000000000010000000000000000000000000000000000000000   0000000000000000000000000A9        170192964704     
0010001300324U 020000000000000000000000000000000000000000000000000000000000000000000000000000000000000000000000000000000000000000000000000204201700000000            000000000000000                              000                           
0010001300325T 020180230000002544776 29647041442004965   7               04042017000000000006000001012467                         0900000000000010000000000000000000000000000000000000000   0000000000000000000000000A9        170192964704     
0010001300326U 020000000000000000000000000000000000000000000000000000000000000000000000000000000000000000000000000000000000000000000000000204201700000000            000000000000000                              000                           
0010001300327T 020180230000002544776 29647041442250479   7               05042017000000000006000001000132                         0900000000000010000000000000000000000000000000000000000   0000000000000000000000000A9        170192964704     
0010001300328U 020000000000000000000000000000000000000000000000000000000000000000000000000000000000000000000000000000000000000000000000000304201700000000            000000000000000                              000                           
0010001300329T 020180230000002544776 29647041442705070   7               04042017000000000006000001028029                         0900000000000010000000000000000000000000000000000000000   0000000000000000000000000A9        170192964704     
0010001300330U 020000000000000000000000000000000000000000000000000000000000000000000000000000000000000000000000000000000000000000000000000204201700000000            000000000000000                              000                           
0010001300331T 020180230000002544776 29647041445908812   7               05042017000000000006000001028029                         0900000000000010000000000000000000000000000000000000000   0000000000000000000000000A9        170192964704     
0010001300332U 020000000000000000000000000000000000000000000000000000000000000000000000000000000000000000000000000000000000000000000000000304201700000000            000000000000000                              000                           
0010001300333T 020180230000002544776 29647041445919342   7               05042017000000000006000001028029                         0900000000000010000000000000000000000000000000000000000   0000000000000000000000000A9        170192964704     
0010001300334U 020000000000000000000000000000000000000000000000000000000000000000000000000000000000000000000000000000000000000000000000000304201700000000            000000000000000                              000                           
0010001300335T 020180230000002544776 29647041446845674   7               05042017000000000006000001010421                         0900000000000010500000000000000000000000000000000000000   0000000000000000000000000A9A4      170192964704     
0010001300336U 020000000000000000000000000000000000000000000000000000000000000000000000000000000000000000000000000000000000000000000000000304201700000000            000000000000000                              000                           
0010001300337T 020180230000002544776 29647041451035787   7               05042017000000000008000001005428                         0900000000000010000000000000000000000000000000000000000   0000000000000000000000000A9        170192964704     
0010001300338U 020000000000000000000000000000000000000000000000000000000000000000000000000000000000000000000000000000000000000000000000000304201700000000            000000000000000                              000                           
0010001300339T 020180230000002544776 29647041453443320   7               05042017000000000006000001016179                         0900000000000010500000000000000000000000000000000000000   0000000000000000000000000A9A4      170192964704     
0010001300340U 020000000000000000000000000000000000000000000000000000000000000000000000000000000000000000000000000000000000000000000000000304201700000000            000000000000000                              000                           
0010001300341T 020180230000002544776 29647041454110666   7               05042017000000000006000001018376                         0900000000000010000000000000000000000000000000000000000   0000000000000000000000000A9        170192964704     
0010001300342U 020000000000000000000000000000000000000000000000000000000000000000000000000000000000000000000000000000000000000000000000000304201700000000            000000000000000                              000                           
0010001300343T 020180230000002544776 29647041456519374   7               05042017000000000006000001028029                         0900000000000010000000000000000000000000000000000000000   0000000000000000000000000A9        170192964704     
0010001300344U 020000000000000000000000000000000000000000000000000000000000000000000000000000000000000000000000000000000000000000000000000304201700000000            000000000000000                              000                           
0010001300345T 020180230000002544776 29647041456819012   7               04042017000000000006000001000132                         0900000000000010000000000000000000000000000000000000000   0000000000000000000000000A9        170192964704     
0010001300346U 020000000000000000000000000000000000000000000000000000000000000000000000000000000000000000000000000000000000000000000000000204201700000000            000000000000000                              000                           
0010001300347T 020180230000002544776 29647041458742591   7               03042017000000000008000001000132                         0900000000000010000000000000000000000000000000000000000   0000000000000000000000000A9        170192964704     
0010001300348U 020000000000000000000000000000000000000000000000000000000000000000000000000000000000000000000000000000000000000000000000000104201700000000            000000000000000                              000                           
0010001300349T 020180230000002544776 29647041460953065   7               05042017000000000006000001002291                         0900000000000010000000000000000000000000000000000000000   0000000000000000000000000A9        170192964704     
0010001300350U 020000000000000000000000000000000000000000000000000000000000000000000000000000000000000000000000000000000000000000000000000304201700000000            000000000000000                              000                           
0010001300351T 020180230000002544776 29647041461531313   7               05042017000000000006000001002291                         0900000000000010000000000000000000000000000000000000000   0000000000000000000000000A9        170192964704     
0010001300352U 020000000000000000000000000000000000000000000000000000000000000000000000000000000000000000000000000000000000000000000000000304201700000000            000000000000000                              000                           
0010001300353T 020180230000002544776 29647041461947221   7               05042017000000000006000001016489                         0900000000000010000000000000000000000000000000000000000   0000000000000000000000000A9        170192964704     
0010001300354U 020000000000000000000000000000000000000000000000000000000000000000000000000000000000000000000000000000000000000000000000000304201700000000            000000000000000                              000                           
0010001300355T 020180230000002544776 29647041461947698   7               05042017000000000006000001016489                         0900000000000010000000000000000000000000000000000000000   0000000000000000000000000A9        170192964704     
0010001300356U 020000000000000000000000000000000000000000000000000000000000000000000000000000000000000000000000000000000000000000000000000304201700000000            000000000000000                              000                           
0010001300357T 020180230000002544776 29647041463020881   7               05042017000000000006000001025089                         0900000000000010000000000000000000000000000000000000000   0000000000000000000000000A9        170192964704     
0010001300358U 020000000000000000000000000000000000000000000000000000000000000000000000000000000000000000000000000000000000000000000000000304201700000000            000000000000000                              000                           
0010001300359T 020180230000002544776 29647041463053578   7               05042017000000000006000001025089                         0900000000000010000000000000000000000000000000000000000   0000000000000000000000000A9        170192964704     
0010001300360U 020000000000000000000000000000000000000000000000000000000000000000000000000000000000000000000000000000000000000000000000000304201700000000            000000000000000                              000                           
0010001300361T 020180230000002544776 29647041464251723   7               05042017000000000008000001028029                         0900000000000010000000000000000000000000000000000000000   0000000000000000000000000A9        170192964704     
0010001300362U 020000000000000000000000000000000000000000000000000000000000000000000000000000000000000000000000000000000000000000000000000304201700000000            000000000000000                              000                           
0010001300363T 020180230000002544776 29647041468456587   7               05042017000000000006000001020478                         0900000000000010000000000000000000000000000000000000000   0000000000000000000000000A9        170192964704     
0010001300364U 020000000000000000000000000000000000000000000000000000000000000000000000000000000000000000000000000000000000000000000000000304201700000000            000000000000000                              000                           
0010001300365T 020180230000002544776 29647041471248337   7               05042017000000000006000001023329                         0900000000000010000000000000000000000000000000000000000   0000000000000000000000000A9        170192964704     
0010001300366U 020000000000000000000000000000000000000000000000000000000000000000000000000000000000000000000000000000000000000000000000000304201700000000            000000000000000                              000                           
0010001300367T 020180230000002544776 29647041471811305   7               05042017000000000006000001012467                         0900000000000010000000000000000000000000000000000000000   0000000000000000000000000A9        170192964704     
0010001300368U 020000000000000000000000000000000000000000000000000000000000000000000000000000000000000000000000000000000000000000000000000304201700000000            000000000000000                              000                           
0010001300369T 020180230000002544776 29647041472944395   7               05042017000000000006000001016179                         0900000000000010000000000000000000000000000000000000000   0000000000000000000000000A9        170192964704     
0010001300370U 020000000000000000000000000000000000000000000000000000000000000000000000000000000000000000000000000000000000000000000000000304201700000000            000000000000000                              000                           
0010001300371T 020180230000002544776 29647041477216403   7               05042017000000000006000001000132                         0900000000000010000000000000000000000000000000000000000   0000000000000000000000000A9        170192964704     
0010001300372U 020000000000000000000000000000000000000000000000000000000000000000000000000000000000000000000000000000000000000000000000000304201700000000            000000000000000                              000                           
0010001300373T 020180230000002544776 29647041477803794   7               03042017000000000006000001033316                         0900000000000010000000000000000000000000000000000000000   0000000000000000000000000A9        170192964704     
0010001300374U 020000000000000000000000000000000000000000000000000000000000000000000000000000000000000000000000000000000000000000000000000104201700000000            000000000000000                              000                           
0010001300375T 020180230000002544776 29647041477829496   7               03042017000000000006000001033316                         0900000000000010000000000000000000000000000000000000000   0000000000000000000000000A9        170192964704     
0010001300376U 020000000000000000000000000000000000000000000000000000000000000000000000000000000000000000000000000000000000000000000000000104201700000000            000000000000000                              000                           
0010001300377T 020180230000002544776 29647041479232880   7               05042017000000000006000001001597                         0900000000000010000000000000000000000000000000000000000   0000000000000000000000000A9        170192964704     
0010001300378U 020000000000000000000000000000000000000000000000000000000000000000000000000000000000000000000000000000000000000000000000000304201700000000            000000000000000                              000                           
0010001300379T 020180230000002544776 29647041479247333   7               03042017000000000006000001001597                         0900000000000010000000000000000000000000000000000000000   0000000000000000000000000A9        170192964704     
0010001300380U 020000000000000000000000000000000000000000000000000000000000000000000000000000000000000000000000000000000000000000000000000104201700000000            000000000000000                              000                           
0010001300381T 020180230000002544776 29647041480424092   7               03042017000000000006000001028029                         0900000000000010000000000000000000000000000000000000000   0000000000000000000000000A9        170192964704     
0010001300382U 020000000000000000000000000000000000000000000000000000000000000000000000000000000000000000000000000000000000000000000000000104201700000000            000000000000000                              000                           
0010001300383T 020180230000002544776 29647041480439520   7               05042017000000000006000001028029                         0900000000000010000000000000000000000000000000000000000   0000000000000000000000000A9        170192964704     
0010001300384U 020000000000000000000000000000000000000000000000000000000000000000000000000000000000000000000000000000000000000000000000000304201700000000            000000000000000                              000                           
0010001300385T 020180230000002544776 29647041482002454   7               05042017000000000006000001028029                         0900000000000010000000000000000000000000000000000000000   0000000000000000000000000A9        170192964704     
0010001300386U 020000000000000000000000000000000000000000000000000000000000000000000000000000000000000000000000000000000000000000000000000304201700000000            000000000000000                              000                           
0010001300387T 020180230000002544776 29647041484401034   7               05042017000000000006000001033316                         0900000000000010000000000000000000000000000000000000000   0000000000000000000000000A9        170192964704     
0010001300388U 020000000000000000000000000000000000000000000000000000000000000000000000000000000000000000000000000000000000000000000000000304201700000000            000000000000000                              000                           
0010001300389T 020180230000002544776 29647041487254582   7               05042017000000000006000001033316                         0900000000000010000000000000000000000000000000000000000   0000000000000000000000000A9        170192964704     
0010001300390U 020000000000000000000000000000000000000000000000000000000000000000000000000000000000000000000000000000000000000000000000000304201700000000            000000000000000                              000                           
0010001300391T 020180230000002544776 29647041487258216   7               05042017000000000006000001033316                         0900000000000010000000000000000000000000000000000000000   0000000000000000000000000A9        170192964704     
0010001300392U 020000000000000000000000000000000000000000000000000000000000000000000000000000000000000000000000000000000000000000000000000304201700000000            000000000000000                              000                           
0010001300393T 020180230000002544776 29647041487501336   7               0504201700000000000600000101981X                         0900000000000010000000000000000000000000000000000000000   0000000000000000000000000A9        170192964704     
0010001300394U 020000000000000000000000000000000000000000000000000000000000000000000000000000000000000000000000000000000000000000000000000304201700000000            000000000000000                              000                           
0010001300395T 020180230000002544776 29647041492217950   7               05042017000000000006000001028029                         0900000000000010000000000000000000000000000000000000000   0000000000000000000000000A9        170192964704     
0010001300396U 020000000000000000000000000000000000000000000000000000000000000000000000000000000000000000000000000000000000000000000000000304201700000000            000000000000000                              000                           
0010001300397T 020180230000002544776 29647041493956253   7               05042017000000000006000001016179                         0900000000000010000000000000000000000000000000000000000   0000000000000000000000000A9        170192964704     
0010001300398U 020000000000000000000000000000000000000000000000000000000000000000000000000000000000000000000000000000000000000000000000000304201700000000            000000000000000                              000                           
0010001300399T 020180230000002544776 29647041496312286   7               04042017000000000008000001000132                         0900000000000010000000000000000000000000000000000000000   0000000000000000000000000A9        170192964704     
0010001300400U 020000000000000000000000000000000000000000000000000000000000000000000000000000000000000000000000000000000000000000000000000204201700000000            000000000000000                              000                           
0010001300401T 020180230000002544776 29647041496609678   7               05042017000000000006000001028029                         0900000000000010000000000000000000000000000000000000000   0000000000000000000000000A9        170192964704     
0010001300402U 020000000000000000000000000000000000000000000000000000000000000000000000000000000000000000000000000000000000000000000000000304201700000000            000000000000000                              000                           
0010001300403T 020180230000002544776 29647041496644031   7               03042017000000000006000001028029                         0900000000000010000000000000000000000000000000000000000   0000000000000000000000000A9        170192964704     
0010001300404U 020000000000000000000000000000000000000000000000000000000000000000000000000000000000000000000000000000000000000000000000000104201700000000            000000000000000                              000                           
0010001300405T 020180230000002544776 29647041498422202   7               05042017000000000008000001000132                         0900000000000010000000000000000000000000000000000000000   0000000000000000000000000A9        170192964704     
0010001300406U 020000000000000000000000000000000000000000000000000000000000000000000000000000000000000000000000000000000000000000000000000304201700000000            000000000000000                              000                           
0010001300407T 020180230000002544776 29647041499641713   7               05042017000000000006000001023655                         0900000000000010000000000000000000000000000000000000000   0000000000000000000000000A9        170192964704     
0010001300408U 020000000000000000000000000000000000000000000000000000000000000000000000000000000000000000000000000000000000000000000000000304201700000000            000000000000000                              000                           
0010001300409T 020180230000002544776 29647041500439227   7               05042017000000000006000001009849                         0900000000000010000000000000000000000000000000000000000   0000000000000000000000000A9        170192964704     
0010001300410U 020000000000000000000000000000000000000000000000000000000000000000000000000000000000000000000000000000000000000000000000000304201700000000            000000000000000                              000                           
0010001300411T 020180230000002544776 29647041500630345   7               04042017000000000008000001016179                         0900000000000010000000000000000000000000000000000000000   0000000000000000000000000A9        170192964704     
0010001300412U 020000000000000000000000000000000000000000000000000000000000000000000000000000000000000000000000000000000000000000000000000204201700000000            000000000000000                              000                           
