00100000         2247745860001000029647040014       0180230000002544776 INSTITUTO DE SELECAO E TECNOLOBANCO DO BRASIL                         20404201701245700009003000000515122941PROCESSAMEN                                                 
00100011T0100020 20247745860001000029647040014       0180230000002544776 INSTITUTO DE SELECAO E TECNOLO                                                                                000000000404201700000000  000000000                      
0010001300001T 020180230000002544776 29647040568354080   7               06042017000000000006000001000132                         0900000000000010000000000000000000000000000000000000000   0000000000000000000000000A9        170192964704     
0010001300002U 020000000000000000000000000000000000000000000000000000000000000000000000000000000000000000000000000000000000000000000000000404201700000000            000000000000000                              000                           
0010001300003T 020180230000002544776 29647040568921348   7               06042017000000000006000001010189                         0900000000000010000000000000000000000000000000000000000   0000000000000000000000000A9        170192964704     
0010001300004U 020000000000000000000000000000000000000000000000000000000000000000000000000000000000000000000000000000000000000000000000000404201700000000            000000000000000                              000                           
0010001300005T 020180230000002544776 29647040595503672   7               06042017000000000006000001016179                         0900000000000010000000000000000000000000000000000000000   0000000000000000000000000A9        170192964704     
0010001300006U 020000000000000000000000000000000000000000000000000000000000000000000000000000000000000000000000000000000000000000000000000404201700000000            000000000000000                              000                           
0010001300007T 020180230000002544776 29647040617928829   7               06042017000000000006000001000132                         0900000000000010000000000000000000000000000000000000000   0000000000000000000000000A9        170192964704     
0010001300008U 020000000000000000000000000000000000000000000000000000000000000000000000000000000000000000000000000000000000000000000000000404201700000000            000000000000000                              000                           
0010001300009T 020180230000002544776 29647040620106284   7               06042017000000000006000001016179                         0900000000000010000000000000000000000000000000000000000   0000000000000000000000000A9        170192964704     
0010001300010U 020000000000000000000000000000000000000000000000000000000000000000000000000000000000000000000000000000000000000000000000000404201700000000            000000000000000                              000                           
0010001300011T 020180230000002544776 29647040620156567   7               06042017000000000006000001016179                         0900000000000010000000000000000000000000000000000000000   0000000000000000000000000A9        170192964704     
0010001300012U 020000000000000000000000000000000000000000000000000000000000000000000000000000000000000000000000000000000000000000000000000404201700000000            000000000000000                              000                           
0010001300013T 020180230000002544776 29647040644721011   7               06042017000000000006000001000132                         0900000000000010000000000000000000000000000000000000000   0000000000000000000000000A9        170192964704     
0010001300014U 020000000000000000000000000000000000000000000000000000000000000000000000000000000000000000000000000000000000000000000000000404201700000000            000000000000000                              000                           
0010001300015T 020180230000002544776 29647040673350276   7               06042017000000000006000001000132                         0900000000000010000000000000000000000000000000000000000   0000000000000000000000000A9        170192964704     
0010001300016U 020000000000000000000000000000000000000000000000000000000000000000000000000000000000000000000000000000000000000000000000000404201700000000            000000000000000                              000                           
0010001300017T 020180230000002544776 29647040678322495   7               06042017000000000008000001012467                         0900000000000010000000000000000000000000000000000000000   0000000000000000000000000A9        170192964704     
0010001300018U 020000000000000000000000000000000000000000000000000000000000000000000000000000000000000000000000000000000000000000000000000404201700000000            000000000000000                              000                           
0010001300019T 020180230000002544776 29647040683150993   7               06042017000000000006000001012467                         0900000000000010000000000000000000000000000000000000000   0000000000000000000000000A9        170192964704     
0010001300020U 020000000000000000000000000000000000000000000000000000000000000000000000000000000000000000000000000000000000000000000000000404201700000000            000000000000000                              000                           
0010001300021T 020180230000002544776 29647040694229279   7               06042017000000000006000001016179                         0900000000000010000000000000000000000000000000000000000   0000000000000000000000000A9        170192964704     
0010001300022U 020000000000000000000000000000000000000000000000000000000000000000000000000000000000000000000000000000000000000000000000000404201700000000            000000000000000                              000                           
0010001300023T 020180230000002544776 29647040696857660   7               06042017000000000006000001016489                         0900000000000010000000000000000000000000000000000000000   0000000000000000000000000A9        170192964704     
0010001300024U 020000000000000000000000000000000000000000000000000000000000000000000000000000000000000000000000000000000000000000000000000404201700000000            000000000000000                              000                           
0010001300025T 020180230000002544776 29647040709055812   7               06042017000000000008000001016179                         0900000000000010000000000000000000000000000000000000000   0000000000000000000000000A9        170192964704     
0010001300026U 020000000000000000000000000000000000000000000000000000000000000000000000000000000000000000000000000000000000000000000000000404201700000000            000000000000000                              000                           
0010001300027T 020180230000002544776 29647040713539359   7               06042017000000000006000001005428                         0900000000000010000000000000000000000000000000000000000   0000000000000000000000000A9        170192964704     
0010001300028U 020000000000000000000000000000000000000000000000000000000000000000000000000000000000000000000000000000000000000000000000000404201700000000            000000000000000                              000                           
0010001300029T 020180230000002544776 29647040720131620   7               05042017000000000008000001016179                         0900000000000010000000000000000000000000000000000000000   0000000000000000000000000A9        170192964704     
0010001300030U 020000000000000000000000000000000000000000000000000000000000000000000000000000000000000000000000000000000000000000000000000304201700000000            000000000000000                              000                           
0010001300031T 020180230000002544776 29647040722421253   7               06042017000000000006000001012645                         0900000000000010000000000000000000000000000000000000000   0000000000000000000000000A9        170192964704     
0010001300032U 020000000000000000000000000000000000000000000000000000000000000000000000000000000000000000000000000000000000000000000000000404201700000000            000000000000000                              000                           
0010001300033T 020180230000002544776 29647040764405067   7               06042017000000000006000001016179                         0900000000000010000000000000000000000000000000000000000   0000000000000000000000000A9        170192964704     
0010001300034U 020000000000000000000000000000000000000000000000000000000000000000000000000000000000000000000000000000000000000000000000000404201700000000            000000000000000                              000                           
0010001300035T 020180230000002544776 29647040764420411   7               06042017000000000006000001016179                         0900000000000010000000000000000000000000000000000000000   0000000000000000000000000A9        170192964704     
0010001300036U 020000000000000000000000000000000000000000000000000000000000000000000000000000000000000000000000000000000000000000000000000404201700000000            000000000000000                              000                           
0010001300037T 020180230000002544776 29647040764436191   7               06042017000000000006000001016179                         0900000000000010000000000000000000000000000000000000000   0000000000000000000000000A9        170192964704     
0010001300038U 020000000000000000000000000000000000000000000000000000000000000000000000000000000000000000000000000000000000000000000000000404201700000000            000000000000000                              000                           
0010001300039T 020180230000002544776 29647040764443685   7               06042017000000000006000001016179                         0900000000000010000000000000000000000000000000000000000   0000000000000000000000000A9        170192964704     
0010001300040U 020000000000000000000000000000000000000000000000000000000000000000000000000000000000000000000000000000000000000000000000000404201700000000            000000000000000                              000                           
0010001300041T 020180230000002544776 29647040764450013   7               06042017000000000006000001016179                         0900000000000010000000000000000000000000000000000000000   0000000000000000000000000A9        170192964704     
0010001300042U 020000000000000000000000000000000000000000000000000000000000000000000000000000000000000000000000000000000000000000000000000404201700000000            000000000000000                              000                           
0010001300043T 020180230000002544776 29647040796709339   7               06042017000000000006000001007277                         0900000000000010000000000000000000000000000000000000000   0000000000000000000000000A9        170192964704     
0010001300044U 020000000000000000000000000000000000000000000000000000000000000000000000000000000000000000000000000000000000000000000000000404201700000000            000000000000000                              000                           
0010001300045T 020180230000002544776 29647040797241982   7               06042017000000000006000001035041                         0900000000000010000000000000000000000000000000000000000   0000000000000000000000000A9        170192964704     
0010001300046U 020000000000000000000000000000000000000000000000000000000000000000000000000000000000000000000000000000000000000000000000000404201700000000            000000000000000                              000                           
0010001300047T 020180230000002544776 29647040798934806   7               06042017000000000006000001000132                         0900000000000010000000000000000000000000000000000000000   0000000000000000000000000A9        170192964704     
0010001300048U 020000000000000000000000000000000000000000000000000000000000000000000000000000000000000000000000000000000000000000000000000404201700000000            000000000000000                              000                           
0010001300049T 020180230000002544776 29647040800405843   7               06042017000000000006000001012467                         0900000000000010000000000000000000000000000000000000000   0000000000000000000000000A9        170192964704     
0010001300050U 020000000000000000000000000000000000000000000000000000000000000000000000000000000000000000000000000000000000000000000000000404201700000000            000000000000000                              000                           
0010001300051T 020180230000002544776 29647040816558419   7               06042017000000000006000001025429                         0900000000000010000000000000000000000000000000000000000   0000000000000000000000000A9        170192964704     
0010001300052U 020000000000000000000000000000000000000000000000000000000000000000000000000000000000000000000000000000000000000000000000000404201700000000            000000000000000                              000                           
0010001300053T 020180230000002544776 29647040825340338   7               06042017000000000006000001012467                         0900000000000010000000000000000000000000000000000000000   0000000000000000000000000A9        170192964704     
0010001300054U 020000000000000000000000000000000000000000000000000000000000000000000000000000000000000000000000000000000000000000000000000404201700000000            000000000000000                              000                           
0010001300055T 020180230000002544776 29647040833803922   7               06042017000000000006000001016489                         0900000000000010000000000000000000000000000000000000000   0000000000000000000000000A9        170192964704     
0010001300056U 020000000000000000000000000000000000000000000000000000000000000000000000000000000000000000000000000000000000000000000000000404201700000000            000000000000000                              000                           
0010001300057T 020180230000002544776 29647040833834655   7               06042017000000000006000001016489                         0900000000000010000000000000000000000000000000000000000   0000000000000000000000000A9        170192964704     
0010001300058U 020000000000000000000000000000000000000000000000000000000000000000000000000000000000000000000000000000000000000000000000000404201700000000            000000000000000                              000                           
0010001300059T 020180230000002544776 29647040833842386   7               06042017000000000006000001016489                         0900000000000010000000000000000000000000000000000000000   0000000000000000000000000A9        170192964704     
0010001300060U 020000000000000000000000000000000000000000000000000000000000000000000000000000000000000000000000000000000000000000000000000404201700000000            000000000000000                              000                           
0010001300061T 020180230000002544776 29647040847255565   7               06042017000000000006000001001368                         0900000000000010000000000000000000000000000000000000000   0000000000000000000000000A9        170192964704     
0010001300062U 020000000000000000000000000000000000000000000000000000000000000000000000000000000000000000000000000000000000000000000000000404201700000000            000000000000000                              000                           
0010001300063T 020180230000002544776 29647040857053676   7               06042017000000000006000001016179                         0900000000000010000000000000000000000000000000000000000   0000000000000000000000000A9        170192964704     
0010001300064U 020000000000000000000000000000000000000000000000000000000000000000000000000000000000000000000000000000000000000000000000000404201700000000            000000000000000                              000                           
0010001300065T 020180230000002544776 29647040857804286   7               06042017000000000008000001016179                         0900000000000010000000000000000000000000000000000000000   0000000000000000000000000A9        170192964704     
0010001300066U 020000000000000000000000000000000000000000000000000000000000000000000000000000000000000000000000000000000000000000000000000404201700000000            000000000000000                              000                           
0010001300067T 020180230000002544776 29647040866728105   7               0604201700000000000800000100880X                         0900000000000010000000000000000000000000000000000000000   0000000000000000000000000A9        170192964704     
0010001300068U 020000000000000000000000000000000000000000000000000000000000000000000000000000000000000000000000000000000000000000000000000404201700000000            000000000000000                              000                           
0010001300069T 020180230000002544776 29647040869939881   7               06042017000000000006000001012688                         0900000000000010000000000000000000000000000000000000000   0000000000000000000000000A9        170192964704     
0010001300070U 020000000000000000000000000000000000000000000000000000000000000000000000000000000000000000000000000000000000000000000000000404201700000000            000000000000000                              000                           
0010001300071T 020180230000002544776 29647040871936632   7               06042017000000000008000001002291                         0900000000000010000000000000000000000000000000000000000   0000000000000000000000000A9        170192964704     
0010001300072U 020000000000000000000000000000000000000000000000000000000000000000000000000000000000000000000000000000000000000000000000000404201700000000            000000000000000                              000                           
0010001300073T 020180230000002544776 29647040887216331   7               06042017000000000008000001010421                         0900000000000010000000000000000000000000000000000000000   0000000000000000000000000A9        170192964704     
0010001300074U 020000000000000000000000000000000000000000000000000000000000000000000000000000000000000000000000000000000000000000000000000404201700000000            000000000000000                              000                           
0010001300075T 020180230000002544776 29647040902649634   7               06042017000000000006000001016179                         0900000000000010000000000000000000000000000000000000000   0000000000000000000000000A9        170192964704     
0010001300076U 020000000000000000000000000000000000000000000000000000000000000000000000000000000000000000000000000000000000000000000000000404201700000000            000000000000000                              000                           
0010001300077T 020180230000002544776 29647040905537296   7               06042017000000000006000001008249                         0900000000000010000000000000000000000000000000000000000   0000000000000000000000000A9        170192964704     
0010001300078U 020000000000000000000000000000000000000000000000000000000000000000000000000000000000000000000000000000000000000000000000000404201700000000            000000000000000                              000                           
0010001300079T 020180230000002544776 29647040926031922   7               06042017000000000006000001016179                         0900000000000010000000000000000000000000000000000000000   0000000000000000000000000A9        170192964704     
0010001300080U 020000000000000000000000000000000000000000000000000000000000000000000000000000000000000000000000000000000000000000000000000404201700000000            000000000000000                              000                           
0010001300081T 020180230000002544776 29647040926522368   7               06042017000000000006000001033316                         0900000000000010500000000000000000000000000000000000000   0000000000000000000000000A9A4      170192964704     
0010001300082U 020000000000000000000000000000000000000000000000000000000000000000000000000000000000000000000000000000000000000000000000000404201700000000            000000000000000                              000                           
0010001300083T 020180230000002544776 29647040927642400   7               06042017000000000006000001028029                         0900000000000010000000000000000000000000000000000000000   0000000000000000000000000A9        170192964704     
0010001300084U 020000000000000000000000000000000000000000000000000000000000000000000000000000000000000000000000000000000000000000000000000404201700000000            000000000000000                              000                           
0010001300085T 020180230000002544776 29647040934724542   7               06042017000000000008000001018376                         0900000000000010000000000000000000000000000000000000000   0000000000000000000000000A9        170192964704     
0010001300086U 020000000000000000000000000000000000000000000000000000000000000000000000000000000000000000000000000000000000000000000000000404201700000000            000000000000000                              000                           
0010001300087T 020180230000002544776 29647040947941296   7               06042017000000000006000001035033                         0900000000000010000000000000000000000000000000000000000   0000000000000000000000000A9        170192964704     
0010001300088U 020000000000000000000000000000000000000000000000000000000000000000000000000000000000000000000000000000000000000000000000000404201700000000            000000000000000                              000                           
0010001300089T 020180230000002544776 29647040951757390   7               06042017000000000006000001018376                         0900000000000010000000000000000000000000000000000000000   0000000000000000000000000A9        170192964704     
0010001300090U 020000000000000000000000000000000000000000000000000000000000000000000000000000000000000000000000000000000000000000000000000404201700000000            000000000000000                              000                           
0010001300091T 020180230000002544776 29647040957511851   7               06042017000000000006000001018376                         0900000000000010000000000000000000000000000000000000000   0000000000000000000000000A9        170192964704     
0010001300092U 020000000000000000000000000000000000000000000000000000000000000000000000000000000000000000000000000000000000000000000000000404201700000000            000000000000000                              000                           
0010001300093T 020180230000002544776 29647040982404522   7               06042017000000000008000001011851                         0900000000000010000000000000000000000000000000000000000   0000000000000000000000000A9        170192964704     
0010001300094U 020000000000000000000000000000000000000000000000000000000000000000000000000000000000000000000000000000000000000000000000000404201700000000            000000000000000                              000                           
0010001300095T 020180230000002544776 29647040991928941   7               06042017000000000006000001000132                         0900000000000010500000000000000000000000000000000000000   0000000000000000000000000A9A4      170192964704     
0010001300096U 020000000000000000000000000000000000000000000000000000000000000000000000000000000000000000000000000000000000000000000000000404201700000000            000000000000000                              000                           
0010001300097T 020180230000002544776 29647041003131069   7               06042017000000000006000001000132                         0900000000000010500000000000000000000000000000000000000   0000000000000000000000000A9A4      170192964704     
0010001300098U 020000000000000000000000000000000000000000000000000000000000000000000000000000000000000000000000000000000000000000000000000404201700000000            000000000000000                              000                           
0010001300099T 020180230000002544776 29647041003135536   7               06042017000000000006000001000132                         0900000000000010500000000000000000000000000000000000000   0000000000000000000000000A9A4      170192964704     
0010001300100U 020000000000000000000000000000000000000000000000000000000000000000000000000000000000000000000000000000000000000000000000000404201700000000            000000000000000                              000                           
0010001300101T 020180230000002544776 29647041003150493   7               06042017000000000006000001000132                         0900000000000010500000000000000000000000000000000000000   0000000000000000000000000A9A4      170192964704     
0010001300102U 020000000000000000000000000000000000000000000000000000000000000000000000000000000000000000000000000000000000000000000000000404201700000000            000000000000000                              000                           
0010001300103T 020180230000002544776 29647041007424753   7               06042017000000000006000001000132                         0900000000000010000000000000000000000000000000000000000   0000000000000000000000000A9        170192964704     
0010001300104U 020000000000000000000000000000000000000000000000000000000000000000000000000000000000000000000000000000000000000000000000000404201700000000            000000000000000                              000                           
0010001300105T 020180230000002544776 29647041007449558   7               06042017000000000006000001000132                         0900000000000010000000000000000000000000000000000000000   0000000000000000000000000A9        170192964704     
0010001300106U 020000000000000000000000000000000000000000000000000000000000000000000000000000000000000000000000000000000000000000000000000404201700000000            000000000000000                              000                           
0010001300107T 020180230000002544776 29647041007706932   7               06042017000000000006000001016179                         0900000000000010500000000000000000000000000000000000000   0000000000000000000000000A9A4      170192964704     
0010001300108U 020000000000000000000000000000000000000000000000000000000000000000000000000000000000000000000000000000000000000000000000000404201700000000            000000000000000                              000                           
0010001300109T 020180230000002544776 29647041015037199   7               06042017000000000006000001016179                         0900000000000010000000000000000000000000000000000000000   0000000000000000000000000A9        170192964704     
0010001300110U 020000000000000000000000000000000000000000000000000000000000000000000000000000000000000000000000000000000000000000000000000404201700000000            000000000000000                              000                           
0010001300111T 020180230000002544776 29647041025001482   7               06042017000000000006000001028029                         0900000000000010000000000000000000000000000000000000000   0000000000000000000000000A9        170192964704     
0010001300112U 020000000000000000000000000000000000000000000000000000000000000000000000000000000000000000000000000000000000000000000000000404201700000000            000000000000000                              000                           
0010001300113T 020180230000002544776 29647041038851338   7               0604201700000000000600000101981X                         0900000000000010000000000000000000000000000000000000000   0000000000000000000000000A9        170192964704     
0010001300114U 020000000000000000000000000000000000000000000000000000000000000000000000000000000000000000000000000000000000000000000000000404201700000000            000000000000000                              000                           
0010001300115T 020180230000002544776 29647041077354591   7               06042017000000000008000001000132                         0900000000000010000000000000000000000000000000000000000   0000000000000000000000000A9        170192964704     
0010001300116U 020000000000000000000000000000000000000000000000000000000000000000000000000000000000000000000000000000000000000000000000000404201700000000            000000000000000                              000                           
0010001300117T 020180230000002544776 29647041088040169   7               06042017000000000006000001033316                         0900000000000010000000000000000000000000000000000000000   0000000000000000000000000A9        170192964704     
0010001300118U 020000000000000000000000000000000000000000000000000000000000000000000000000000000000000000000000000000000000000000000000000404201700000000            000000000000000                              000                           
0010001300119T 020180230000002544776 29647041095747669   7               06042017000000000008000001001155                         0900000000000010000000000000000000000000000000000000000   0000000000000000000000000A9        170192964704     
0010001300120U 020000000000000000000000000000000000000000000000000000000000000000000000000000000000000000000000000000000000000000000000000404201700000000            000000000000000                              000                           
0010001300121T 020180230000002544776 29647041098832275   7               06042017000000000006000001025291                         0900000000000010500000000000000000000000000000000000000   0000000000000000000000000A9A4      170192964704     
0010001300122U 020000000000000000000000000000000000000000000000000000000000000000000000000000000000000000000000000000000000000000000000000404201700000000            000000000000000                              000                           
0010001300123T 020180230000002544776 29647041101546069   7               06042017000000000006000001028029                         0900000000000010000000000000000000000000000000000000000   0000000000000000000000000A9        170192964704     
0010001300124U 020000000000000000000000000000000000000000000000000000000000000000000000000000000000000000000000000000000000000000000000000404201700000000            000000000000000                              000                           
0010001300125T 020180230000002544776 29647041103651948   7               05042017000000000006000001000132                         0900000000000010000000000000000000000000000000000000000   0000000000000000000000000A9        170192964704     
0010001300126U 020000000000000000000000000000000000000000000000000000000000000000000000000000000000000000000000000000000000000000000000000304201700000000            000000000000000                              000                           
0010001300127T 020180230000002544776 29647041106342607   7               06042017000000000006000001028029                         0900000000000010000000000000000000000000000000000000000   0000000000000000000000000A9        170192964704     
0010001300128U 020000000000000000000000000000000000000000000000000000000000000000000000000000000000000000000000000000000000000000000000000404201700000000            000000000000000                              000                           
0010001300129T 020180230000002544776 29647041106601119   7               05042017000000000008000001016179                         0900000000000010000000000000000000000000000000000000000   0000000000000000000000000A9        170192964704     
0010001300130U 020000000000000000000000000000000000000000000000000000000000000000000000000000000000000000000000000000000000000000000000000304201700000000            000000000000000                              000                           
0010001300131T 020180230000002544776 29647041106650240   7               05042017000000000008000001016179                         0900000000000010000000000000000000000000000000000000000   0000000000000000000000000A9        170192964704     
0010001300132U 020000000000000000000000000000000000000000000000000000000000000000000000000000000000000000000000000000000000000000000000000304201700000000            000000000000000                              000                           
0010001300133T 020180230000002544776 29647041116912820   7               06042017000000000006000001028029                         0900000000000010000000000000000000000000000000000000000   0000000000000000000000000A9        170192964704     
0010001300134U 020000000000000000000000000000000000000000000000000000000000000000000000000000000000000000000000000000000000000000000000000404201700000000            000000000000000                              000                           
0010001300135T 020180230000002544776 29647041117302890   7               06042017000000000006000001028029                         0900000000000010000000000000000000000000000000000000000   0000000000000000000000000A9        170192964704     
0010001300136U 020000000000000000000000000000000000000000000000000000000000000000000000000000000000000000000000000000000000000000000000000404201700000000            000000000000000                              000                           
0010001300137T 020180230000002544776 29647041120917150   7               06042017000000000006000001023655                         0900000000000010000000000000000000000000000000000000000   0000000000000000000000000A9        170192964704     
0010001300138U 020000000000000000000000000000000000000000000000000000000000000000000000000000000000000000000000000000000000000000000000000404201700000000            000000000000000                              000                           
0010001300139T 020180230000002544776 29647041138018228   7               06042017000000000006000001023655                         0900000000000010000000000000000000000000000000000000000   0000000000000000000000000A9        170192964704     
0010001300140U 020000000000000000000000000000000000000000000000000000000000000000000000000000000000000000000000000000000000000000000000000404201700000000            000000000000000                              000                           
0010001300141T 020180230000002544776 29647041144554727   7               06042017000000000006000001020354                         0900000000000010000000000000000000000000000000000000000   0000000000000000000000000A9        170192964704     
0010001300142U 020000000000000000000000000000000000000000000000000000000000000000000000000000000000000000000000000000000000000000000000000404201700000000            000000000000000                              000                           
0010001300143T 020180230000002544776 29647041148708960   7               06042017000000000006000001000132                         0900000000000010000000000000000000000000000000000000000   0000000000000000000000000A9        170192964704     
0010001300144U 020000000000000000000000000000000000000000000000000000000000000000000000000000000000000000000000000000000000000000000000000404201700000000            000000000000000                              000                           
0010001300145T 020180230000002544776 29647041149611227   7               06042017000000000006000001028029                         0900000000000010000000000000000000000000000000000000000   0000000000000000000000000A9        170192964704     
0010001300146U 020000000000000000000000000000000000000000000000000000000000000000000000000000000000000000000000000000000000000000000000000404201700000000            000000000000000                              000                           
0010001300147T 020180230000002544776 29647041150408868   7               06042017000000000006000001009229                         0900000000000010000000000000000000000000000000000000000   0000000000000000000000000A9        170192964704     
0010001300148U 020000000000000000000000000000000000000000000000000000000000000000000000000000000000000000000000000000000000000000000000000404201700000000            000000000000000                              000                           
0010001300149T 020180230000002544776 29647041150418740   7               06042017000000000006000001009229                         0900000000000010000000000000000000000000000000000000000   0000000000000000000000000A9        170192964704     
0010001300150U 020000000000000000000000000000000000000000000000000000000000000000000000000000000000000000000000000000000000000000000000000404201700000000            000000000000000                              000                           
0010001300151T 020180230000002544776 29647041150430952   7               06042017000000000006000001009229                         0900000000000010000000000000000000000000000000000000000   0000000000000000000000000A9        170192964704     
0010001300152U 020000000000000000000000000000000000000000000000000000000000000000000000000000000000000000000000000000000000000000000000000404201700000000            000000000000000                              000                           
0010001300153T 020180230000002544776 29647041159320126   7               06042017000000000006000001001511                         0900000000000010000000000000000000000000000000000000000   0000000000000000000000000A9        170192964704     
0010001300154U 020000000000000000000000000000000000000000000000000000000000000000000000000000000000000000000000000000000000000000000000000404201700000000            000000000000000                              000                           
0010001300155T 020180230000002544776 29647041194707488   7               06042017000000000006000001028029                         0900000000000010000000000000000000000000000000000000000   0000000000000000000000000A9        170192964704     
0010001300156U 020000000000000000000000000000000000000000000000000000000000000000000000000000000000000000000000000000000000000000000000000404201700000000            000000000000000                              000                           
0010001300157T 020180230000002544776 29647041199622068   7               06042017000000000006000001000132                         0900000000000010000000000000000000000000000000000000000   0000000000000000000000000A9        170192964704     
0010001300158U 020000000000000000000000000000000000000000000000000000000000000000000000000000000000000000000000000000000000000000000000000404201700000000            000000000000000                              000                           
0010001300159T 020180230000002544776 29647041199627365   7               06042017000000000006000001000132                         0900000000000010000000000000000000000000000000000000000   0000000000000000000000000A9        170192964704     
0010001300160U 020000000000000000000000000000000000000000000000000000000000000000000000000000000000000000000000000000000000000000000000000404201700000000            000000000000000                              000                           
0010001300161T 020180230000002544776 29647041199644435   7               06042017000000000006000001000132                         0900000000000010000000000000000000000000000000000000000   0000000000000000000000000A9        170192964704     
0010001300162U 020000000000000000000000000000000000000000000000000000000000000000000000000000000000000000000000000000000000000000000000000404201700000000            000000000000000                              000                           
0010001300163T 020180230000002544776 29647041199649098   7               06042017000000000006000001000132                         0900000000000010000000000000000000000000000000000000000   0000000000000000000000000A9        170192964704     
0010001300164U 020000000000000000000000000000000000000000000000000000000000000000000000000000000000000000000000000000000000000000000000000404201700000000            000000000000000                              000                           
0010001300165T 020180230000002544776 29647041199650321   7               06042017000000000006000001000132                         0900000000000010000000000000000000000000000000000000000   0000000000000000000000000A9        170192964704     
0010001300166U 020000000000000000000000000000000000000000000000000000000000000000000000000000000000000000000000000000000000000000000000000404201700000000            000000000000000                              000                           
0010001300167T 020180230000002544776 29647041199651150   7               06042017000000000006000001000132                         0900000000000010000000000000000000000000000000000000000   0000000000000000000000000A9        170192964704     
0010001300168U 020000000000000000000000000000000000000000000000000000000000000000000000000000000000000000000000000000000000000000000000000404201700000000            000000000000000                              000                           
0010001300169T 020180230000002544776 29647041205430049   7               06042017000000000006000001033316                         0900000000000010000000000000000000000000000000000000000   0000000000000000000000000A9        170192964704     
0010001300170U 020000000000000000000000000000000000000000000000000000000000000000000000000000000000000000000000000000000000000000000000000404201700000000            000000000000000                              000                           
0010001300171T 020180230000002544776 29647041220516751   7               06042017000000000006000001023353                         0900000000000010000000000000000000000000000000000000000   0000000000000000000000000A9        170192964704     
0010001300172U 020000000000000000000000000000000000000000000000000000000000000000000000000000000000000000000000000000000000000000000000000404201700000000            000000000000000                              000                           
0010001300173T 020180230000002544776 29647041223606562   7               0604201700000000000600000100233X                         0900000000000010000000000000000000000000000000000000000   0000000000000000000000000A9        170192964704     
0010001300174U 020000000000000000000000000000000000000000000000000000000000000000000000000000000000000000000000000000000000000000000000000404201700000000            000000000000000                              000                           
0010001300175T 020180230000002544776 29647041223619033   7               0604201700000000000600000100233X                         0900000000000010000000000000000000000000000000000000000   0000000000000000000000000A9        170192964704     
0010001300176U 020000000000000000000000000000000000000000000000000000000000000000000000000000000000000000000000000000000000000000000000000404201700000000            000000000000000                              000                           
0010001300177T 020180230000002544776 29647041233209881   7               0604201700000000000600000101138X                         0900000000000010000000000000000000000000000000000000000   0000000000000000000000000A9        170192964704     
0010001300178U 020000000000000000000000000000000000000000000000000000000000000000000000000000000000000000000000000000000000000000000000000404201700000000            000000000000000                              000                           
0010001300179T 020180230000002544776 29647041240236718   7               06042017000000000008000001000132                         0900000000000010000000000000000000000000000000000000000   0000000000000000000000000A9        170192964704     
0010001300180U 020000000000000000000000000000000000000000000000000000000000000000000000000000000000000000000000000000000000000000000000000404201700000000            000000000000000                              000                           
0010001300181T 020180230000002544776 29647041258320357   7               06042017000000000006000001006254                         0900000000000010000000000000000000000000000000000000000   0000000000000000000000000A9        170192964704     
0010001300182U 020000000000000000000000000000000000000000000000000000000000000000000000000000000000000000000000000000000000000000000000000404201700000000            000000000000000                              000                           
0010001300183T 020180230000002544776 29647041265247164   7               06042017000000000008000001014028                         0900000000000010000000000000000000000000000000000000000   0000000000000000000000000A9        170192964704     
0010001300184U 020000000000000000000000000000000000000000000000000000000000000000000000000000000000000000000000000000000000000000000000000404201700000000            000000000000000                              000                           
0010001300185T 020180230000002544776 29647041266118719   7               06042017000000000008000001020354                         0900000000000010000000000000000000000000000000000000000   0000000000000000000000000A9        170192964704     
0010001300186U 020000000000000000000000000000000000000000000000000000000000000000000000000000000000000000000000000000000000000000000000000404201700000000            000000000000000                              000                           
0010001300187T 020180230000002544776 29647041271902602   7               06042017000000000008000001017876                         0900000000000010000000000000000000000000000000000000000   0000000000000000000000000A9        170192964704     
0010001300188U 020000000000000000000000000000000000000000000000000000000000000000000000000000000000000000000000000000000000000000000000000404201700000000            000000000000000                              000                           
0010001300189T 020180230000002544776 29647041276841179   7               06042017000000000006000001001597                         0900000000000010500000000000000000000000000000000000000   0000000000000000000000000A9A4      170192964704     
0010001300190U 020000000000000000000000000000000000000000000000000000000000000000000000000000000000000000000000000000000000000000000000000404201700000000            000000000000000                              000                           
0010001300191T 020180230000002544776 29647041281003754   7               06042017000000000008000001028495                         0900000000000010000000000000000000000000000000000000000   0000000000000000000000000A9        170192964704     
0010001300192U 020000000000000000000000000000000000000000000000000000000000000000000000000000000000000000000000000000000000000000000000000404201700000000            000000000000000                              000                           
0010001300193T 020180230000002544776 29647041281112056   7               06042017000000000006000001000361                         0900000000000010000000000000000000000000000000000000000   0000000000000000000000000A9        170192964704     
0010001300194U 020000000000000000000000000000000000000000000000000000000000000000000000000000000000000000000000000000000000000000000000000404201700000000            000000000000000                              000                           
0010001300195T 020180230000002544776 29647041281144996   7               06042017000000000006000001000361                         0900000000000010000000000000000000000000000000000000000   0000000000000000000000000A9        170192964704     
0010001300196U 020000000000000000000000000000000000000000000000000000000000000000000000000000000000000000000000000000000000000000000000000404201700000000            000000000000000                              000                           
0010001300197T 020180230000002544776 29647041290838252   7               06042017000000000006000001016179                         0900000000000010000000000000000000000000000000000000000   0000000000000000000000000A9        170192964704     
0010001300198U 020000000000000000000000000000000000000000000000000000000000000000000000000000000000000000000000000000000000000000000000000404201700000000            000000000000000                              000                           
0010001300199T 020180230000002544776 29647041293243335   7               06042017000000000006000001028029                         0900000000000010000000000000000000000000000000000000000   0000000000000000000000000A9        170192964704     
0010001300200U 020000000000000000000000000000000000000000000000000000000000000000000000000000000000000000000000000000000000000000000000000404201700000000            000000000000000                              000                           
0010001300201T 020180230000002544776 29647041301117145   7               06042017000000000006000001016179                         0900000000000010500000000000000000000000000000000000000   0000000000000000000000000A9A4      170192964704     
0010001300202U 020000000000000000000000000000000000000000000000000000000000000000000000000000000000000000000000000000000000000000000000000404201700000000            000000000000000                              000                           
0010001300203T 020180230000002544776 29647041309918151   7               06042017000000000006000001016179                         0900000000000010000000000000000000000000000000000000000   0000000000000000000000000A9        170192964704     
0010001300204U 020000000000000000000000000000000000000000000000000000000000000000000000000000000000000000000000000000000000000000000000000404201700000000            000000000000000                              000                           
0010001300205T 020180230000002544776 29647041319650673   7               06042017000000000006000001018376                         0900000000000010500000000000000000000000000000000000000   0000000000000000000000000A9A4      170192964704     
0010001300206U 020000000000000000000000000000000000000000000000000000000000000000000000000000000000000000000000000000000000000000000000000404201700000000            000000000000000                              000                           
0010001300207T 020180230000002544776 29647041338427808   7               06042017000000000006000001002321                         0900000000000010000000000000000000000000000000000000000   0000000000000000000000000A9        170192964704     
0010001300208U 020000000000000000000000000000000000000000000000000000000000000000000000000000000000000000000000000000000000000000000000000404201700000000            000000000000000                              000                           
0010001300209T 020180230000002544776 29647041343535851   7               06042017000000000008000001028029                         0900000000000010000000000000000000000000000000000000000   0000000000000000000000000A9        170192964704     
0010001300210U 020000000000000000000000000000000000000000000000000000000000000000000000000000000000000000000000000000000000000000000000000404201700000000            000000000000000                              000                           
0010001300211T 020180230000002544776 29647041345205308   7               06042017000000000008000001020354                         0900000000000010000000000000000000000000000000000000000   0000000000000000000000000A9        170192964704     
0010001300212U 020000000000000000000000000000000000000000000000000000000000000000000000000000000000000000000000000000000000000000000000000404201700000000            000000000000000                              000                           
0010001300213T 020180230000002544776 29647041349742930   7               0604201700000000000800000101138X                         0900000000000010000000000000000000000000000000000000000   0000000000000000000000000A9        170192964704     
0010001300214U 020000000000000000000000000000000000000000000000000000000000000000000000000000000000000000000000000000000000000000000000000404201700000000            000000000000000                              000                           
0010001300215T 020180230000002544776 29647041350329017   7               06042017000000000006000001000132                         0900000000000010000000000000000000000000000000000000000   0000000000000000000000000A9        170192964704     
0010001300216U 020000000000000000000000000000000000000000000000000000000000000000000000000000000000000000000000000000000000000000000000000404201700000000            000000000000000                              000                           
0010001300217T 020180230000002544776 29647041351227285   7               06042017000000000006000001024694                         0900000000000010000000000000000000000000000000000000000   0000000000000000000000000A9        170192964704     
0010001300218U 020000000000000000000000000000000000000000000000000000000000000000000000000000000000000000000000000000000000000000000000000404201700000000            000000000000000                              000                           
0010001300219T 020180230000002544776 29647041351925906   7               06042017000000000008000001033316                         0900000000000010000000000000000000000000000000000000000   0000000000000000000000000A9        170192964704     
0010001300220U 020000000000000000000000000000000000000000000000000000000000000000000000000000000000000000000000000000000000000000000000000404201700000000            000000000000000                              000                           
0010001300221T 020180230000002544776 29647041360112064   7               06042017000000000006000001012467                         0900000000000010000000000000000000000000000000000000000   0000000000000000000000000A9        170192964704     
0010001300222U 020000000000000000000000000000000000000000000000000000000000000000000000000000000000000000000000000000000000000000000000000404201700000000            000000000000000                              000                           
0010001300223T 020180230000002544776 29647041364853037   7               06042017000000000006000001023655                         0900000000000010000000000000000000000000000000000000000   0000000000000000000000000A9        170192964704     
0010001300224U 020000000000000000000000000000000000000000000000000000000000000000000000000000000000000000000000000000000000000000000000000404201700000000            000000000000000                              000                           
0010001300225T 020180230000002544776 29647041373405761   7               06042017000000000006000001016179                         0900000000000010000000000000000000000000000000000000000   0000000000000000000000000A9        170192964704     
0010001300226U 020000000000000000000000000000000000000000000000000000000000000000000000000000000000000000000000000000000000000000000000000404201700000000            000000000000000                              000                           
0010001300227T 020180230000002544776 29647041386019778   7               06042017000000000006000001000132                         0900000000000010000000000000000000000000000000000000000   0000000000000000000000000A9        170192964704     
0010001300228U 020000000000000000000000000000000000000000000000000000000000000000000000000000000000000000000000000000000000000000000000000404201700000000            000000000000000                              000                           
0010001300229T 020180230000002544776 29647041393124674   7               06042017000000000006000001033316                         0900000000000010000000000000000000000000000000000000000   0000000000000000000000000A9        170192964704     
0010001300230U 020000000000000000000000000000000000000000000000000000000000000000000000000000000000000000000000000000000000000000000000000404201700000000            000000000000000                              000                           
0010001300231T 020180230000002544776 29647041396042962   7               06042017000000000006000001012467                         0900000000000010000000000000000000000000000000000000000   0000000000000000000000000A9        170192964704     
0010001300232U 020000000000000000000000000000000000000000000000000000000000000000000000000000000000000000000000000000000000000000000000000404201700000000            000000000000000                              000                           
0010001300233T 020180230000002544776 29647041396624087   7               06042017000000000006000001033316                         0900000000000010000000000000000000000000000000000000000   0000000000000000000000000A9        170192964704     
0010001300234U 020000000000000000000000000000000000000000000000000000000000000000000000000000000000000000000000000000000000000000000000000404201700000000            000000000000000                              000                           
0010001300235T 020180230000002544776 29647041400418893   7               06042017000000000006000001012467                         0900000000000010000000000000000000000000000000000000000   0000000000000000000000000A9        170192964704     
0010001300236U 020000000000000000000000000000000000000000000000000000000000000000000000000000000000000000000000000000000000000000000000000404201700000000            000000000000000                              000                           
0010001300237T 020180230000002544776 29647041400421056   7               06042017000000000006000001012467                         0900000000000010000000000000000000000000000000000000000   0000000000000000000000000A9        170192964704     
0010001300238U 020000000000000000000000000000000000000000000000000000000000000000000000000000000000000000000000000000000000000000000000000404201700000000            000000000000000                              000                           
0010001300239T 020180230000002544776 29647041407024444   7               06042017000000000006000001001023                         0900000000000010000000000000000000000000000000000000000   0000000000000000000000000A9        170192964704     
0010001300240U 020000000000000000000000000000000000000000000000000000000000000000000000000000000000000000000000000000000000000000000000000404201700000000            000000000000000                              000                           
0010001300241T 020180230000002544776 29647041411408932   7               06042017000000000006000001016179                         0900000000000010000000000000000000000000000000000000000   0000000000000000000000000A9        170192964704     
0010001300242U 020000000000000000000000000000000000000000000000000000000000000000000000000000000000000000000000000000000000000000000000000404201700000000            000000000000000                              000                           
0010001300243T 020180230000002544776 29647041412006119   7               06042017000000000006000001002321                         0900000000000010000000000000000000000000000000000000000   0000000000000000000000000A9        170192964704     
0010001300244U 020000000000000000000000000000000000000000000000000000000000000000000000000000000000000000000000000000000000000000000000000404201700000000            000000000000000                              000                           
0010001300245T 020180230000002544776 29647041426053484   7               06042017000000000008000001028029                         0900000000000010000000000000000000000000000000000000000   0000000000000000000000000A9        170192964704     
0010001300246U 020000000000000000000000000000000000000000000000000000000000000000000000000000000000000000000000000000000000000000000000000404201700000000            000000000000000                              000                           
0010001300247T 020180230000002544776 29647041426136657   7               06042017000000000008000001028029                         0900000000000010000000000000000000000000000000000000000   0000000000000000000000000A9        170192964704     
0010001300248U 020000000000000000000000000000000000000000000000000000000000000000000000000000000000000000000000000000000000000000000000000404201700000000            000000000000000                              000                           
0010001300249T 020180230000002544776 29647041426139156   7               06042017000000000008000001028029                         0900000000000010000000000000000000000000000000000000000   0000000000000000000000000A9        170192964704     
0010001300250U 020000000000000000000000000000000000000000000000000000000000000000000000000000000000000000000000000000000000000000000000000404201700000000            000000000000000                              000                           
0010001300251T 020180230000002544776 29647041434409053   7               06042017000000000006000001028029                         0900000000000010000000000000000000000000000000000000000   0000000000000000000000000A9        170192964704     
0010001300252U 020000000000000000000000000000000000000000000000000000000000000000000000000000000000000000000000000000000000000000000000000404201700000000            000000000000000                              000                           
0010001300253T 020180230000002544776 29647041438407136   7               06042017000000000006000001016179                         0900000000000010000000000000000000000000000000000000000   0000000000000000000000000A9        170192964704     
0010001300254U 020000000000000000000000000000000000000000000000000000000000000000000000000000000000000000000000000000000000000000000000000404201700000000            000000000000000                              000                           
0010001300255T 020180230000002544776 29647041438415556   7               06042017000000000006000001016179                         0900000000000010000000000000000000000000000000000000000   0000000000000000000000000A9        170192964704     
0010001300256U 020000000000000000000000000000000000000000000000000000000000000000000000000000000000000000000000000000000000000000000000000404201700000000            000000000000000                              000                           
0010001300257T 020180230000002544776 29647041440532573   7               06042017000000000006000001020354                         0900000000000010000000000000000000000000000000000000000   0000000000000000000000000A9        170192964704     
0010001300258U 020000000000000000000000000000000000000000000000000000000000000000000000000000000000000000000000000000000000000000000000000404201700000000            000000000000000                              000                           
0010001300259T 020180230000002544776 29647041441910928   7               06042017000000000008000001012467                         0900000000000010000000000000000000000000000000000000000   0000000000000000000000000A9        170192964704     
0010001300260U 020000000000000000000000000000000000000000000000000000000000000000000000000000000000000000000000000000000000000000000000000404201700000000            000000000000000                              000                           
0010001300261T 020180230000002544776 29647041442750189   7               06042017000000000006000001028029                         0900000000000010000000000000000000000000000000000000000   0000000000000000000000000A9        170192964704     
0010001300262U 020000000000000000000000000000000000000000000000000000000000000000000000000000000000000000000000000000000000000000000000000404201700000000            000000000000000                              000                           
0010001300263T 020180230000002544776 29647041445318976   7               06042017000000000008000001007595                         0900000000000010000000000000000000000000000000000000000   0000000000000000000000000A9        170192964704     
0010001300264U 020000000000000000000000000000000000000000000000000000000000000000000000000000000000000000000000000000000000000000000000000404201700000000            000000000000000                              000                           
0010001300265T 020180230000002544776 29647041445826546   7               06042017000000000006000001033316                         0900000000000010500000000000000000000000000000000000000   0000000000000000000000000A9A4      170192964704     
0010001300266U 020000000000000000000000000000000000000000000000000000000000000000000000000000000000000000000000000000000000000000000000000404201700000000            000000000000000                              000                           
0010001300267T 020180230000002544776 29647041449855152   7               06042017000000000006000001033316                         0900000000000010000000000000000000000000000000000000000   0000000000000000000000000A9        170192964704     
0010001300268U 020000000000000000000000000000000000000000000000000000000000000000000000000000000000000000000000000000000000000000000000000404201700000000            000000000000000                              000                           
0010001300269T 020180230000002544776 29647041451019997   7               06042017000000000008000001005428                         0900000000000010000000000000000000000000000000000000000   0000000000000000000000000A9        170192964704     
0010001300270U 020000000000000000000000000000000000000000000000000000000000000000000000000000000000000000000000000000000000000000000000000404201700000000            000000000000000                              000                           
0010001300271T 020180230000002544776 29647041452555488   7               06042017000000000006000001033316                         0900000000000010000000000000000000000000000000000000000   0000000000000000000000000A9        170192964704     
0010001300272U 020000000000000000000000000000000000000000000000000000000000000000000000000000000000000000000000000000000000000000000000000404201700000000            000000000000000                              000                           
0010001300273T 020180230000002544776 29647041453049389   7               06042017000000000006000001006734                         0900000000000010000000000000000000000000000000000000000   0000000000000000000000000A9        170192964704     
0010001300274U 020000000000000000000000000000000000000000000000000000000000000000000000000000000000000000000000000000000000000000000000000404201700000000            000000000000000                              000                           
0010001300275T 020180230000002544776 29647041455448616   7               06042017000000000008000001000132                         0900000000000010500000000000000000000000000000000000000   0000000000000000000000000A9A4      170192964704     
0010001300276U 020000000000000000000000000000000000000000000000000000000000000000000000000000000000000000000000000000000000000000000000000404201700000000            000000000000000                              000                           
0010001300277T 020180230000002544776 29647041455905374   7               06042017000000000006000001028029                         0900000000000010000000000000000000000000000000000000000   0000000000000000000000000A9        170192964704     
0010001300278U 020000000000000000000000000000000000000000000000000000000000000000000000000000000000000000000000000000000000000000000000000404201700000000            000000000000000                              000                           
0010001300279T 020180230000002544776 29647041455929261   7               06042017000000000006000001028029                         0900000000000010000000000000000000000000000000000000000   0000000000000000000000000A9        170192964704     
0010001300280U 020000000000000000000000000000000000000000000000000000000000000000000000000000000000000000000000000000000000000000000000000404201700000000            000000000000000                              000                           
0010001300281T 020180230000002544776 29647041460017743   7               06042017000000000008000001028029                         0900000000000010000000000000000000000000000000000000000   0000000000000000000000000A9        170192964704     
0010001300282U 020000000000000000000000000000000000000000000000000000000000000000000000000000000000000000000000000000000000000000000000000404201700000000            000000000000000                              000                           
0010001300283T 020180230000002544776 29647041460055546   7               06042017000000000008000001028029                         0900000000000010000000000000000000000000000000000000000   0000000000000000000000000A9        170192964704     
0010001300284U 020000000000000000000000000000000000000000000000000000000000000000000000000000000000000000000000000000000000000000000000000404201700000000            000000000000000                              000                           
0010001300285T 020180230000002544776 29647041461421966   7               06042017000000000006000001012467                         0900000000000010000000000000000000000000000000000000000   0000000000000000000000000A9        170192964704     
0010001300286U 020000000000000000000000000000000000000000000000000000000000000000000000000000000000000000000000000000000000000000000000000404201700000000            000000000000000                              000                           
0010001300287T 020180230000002544776 29647041468654418   7               06042017000000000006000001016179                         0900000000000010000000000000000000000000000000000000000   0000000000000000000000000A9        170192964704     
0010001300288U 020000000000000000000000000000000000000000000000000000000000000000000000000000000000000000000000000000000000000000000000000404201700000000            000000000000000                              000                           
0010001300289T 020180230000002544776 29647041468828083   7               06042017000000000006000001000132                         0900000000000010000000000000000000000000000000000000000   0000000000000000000000000A9        170192964704     
0010001300290U 020000000000000000000000000000000000000000000000000000000000000000000000000000000000000000000000000000000000000000000000000404201700000000            000000000000000                              000                           
0010001300291T 020180230000002544776 29647041472906746   7               06042017000000000006000001016179                         0900000000000010000000000000000000000000000000000000000   0000000000000000000000000A9        170192964704     
0010001300292U 020000000000000000000000000000000000000000000000000000000000000000000000000000000000000000000000000000000000000000000000000404201700000000            000000000000000                              000                           
0010001300293T 020180230000002544776 29647041477849441   7               06042017000000000006000001033316                         0900000000000010000000000000000000000000000000000000000   0000000000000000000000000A9        170192964704     
0010001300294U 020000000000000000000000000000000000000000000000000000000000000000000000000000000000000000000000000000000000000000000000000404201700000000            000000000000000                              000                           
0010001300295T 020180230000002544776 29647041477850824   7               06042017000000000006000001033316                         0900000000000010000000000000000000000000000000000000000   0000000000000000000000000A9        170192964704     
0010001300296U 020000000000000000000000000000000000000000000000000000000000000000000000000000000000000000000000000000000000000000000000000404201700000000            000000000000000                              000                           
0010001300297T 020180230000002544776 29647041479248267   7               06042017000000000006000001001597                         0900000000000010000000000000000000000000000000000000000   0000000000000000000000000A9        170192964704     
0010001300298U 020000000000000000000000000000000000000000000000000000000000000000000000000000000000000000000000000000000000000000000000000404201700000000            000000000000000                              000                           
0010001300299T 020180230000002544776 29647041487527286   7               0604201700000000000600000101981X                         0900000000000010000000000000000000000000000000000000000   0000000000000000000000000A9        170192964704     
0010001300300U 020000000000000000000000000000000000000000000000000000000000000000000000000000000000000000000000000000000000000000000000000404201700000000            000000000000000                              000                           
0010001300301T 020180230000002544776 29647041494328614   7               06042017000000000006000001000132                         0900000000000010000000000000000000000000000000000000000   0000000000000000000000000A9        170192964704     
0010001300302U 020000000000000000000000000000000000000000000000000000000000000000000000000000000000000000000000000000000000000000000000000404201700000000            000000000000000                              000                           
0010001300303T 020180230000002544776 29647041496617952   7               06042017000000000006000001028029                         0900000000000010000000000000000000000000000000000000000   0000000000000000000000000A9        170192964704     
0010001300304U 020000000000000000000000000000000000000000000000000000000000000000000000000000000000000000000000000000000000000000000000000404201700000000            000000000000000                              000                           
0010001300305T 020180230000002544776 29647041500410173   7               06042017000000000006000001009849                         0900000000000010000000000000000000000000000000000000000   0000000000000000000000000A9        170192964704     
0010001300306U 020000000000000000000000000000000000000000000000000000000000000000000000000000000000000000000000000000000000000000000000000404201700000000            000000000000000                              000                           
0010001300307T 020180230000002544776 29647041500832856   7               06042017000000000008000001010545                         0900000000000010000000000000000000000000000000000000000   0000000000000000000000000A9        170192964704     
0010001300308U 020000000000000000000000000000000000000000000000000000000000000000000000000000000000000000000000000000000000000000000000000404201700000000            000000000000000                              000                           
0010001300309T 020180230000002544776 29647041504419885   7               06042017000000000006000001013617                         0900000000000010000000000000000000000000000000000000000   0000000000000000000000000A9        170192964704     
0010001300310U 020000000000000000000000000000000000000000000000000000000000000000000000000000000000000000000000000000000000000000000000000404201700000000            000000000000000                              000                           
0010001300311T 020180230000002544776 29647041504452001   7               06042017000000000006000001013617                         0900000000000010000000000000000000000000000000000000000   0000000000000000000000000A9        170192964704     
0010001300312U 020000000000000000000000000000000000000000000000000000000000000000000000000000000000000000000000000000000000000000000000000404201700000000            000000000000000                              000                           
0010001300313T 020180230000002544776 29647041504454730   7               06042017000000000006000001013617                         0900000000000010000000000000000000000000000000000000000   0000000000000000000000000A9        170192964704     
0010001300314U 020000000000000000000000000000000000000000000000000000000000000000000000000000000000000000000000000000000000000000000000000404201700000000            000000000000000                              000                           
0010001300315T 020180230000002544776 29647041509008548   7               06042017000000000008000001006572                         0900000000000010000000000000000000000000000000000000000   0000000000000000000000000A9        170192964704     
0010001300316U 020000000000000000000000000000000000000000000000000000000000000000000000000000000000000000000000000000000000000000000000000404201700000000            000000000000000                              000                           
0010001300317T 020180230000002544776 29647041509043168   7               06042017000000000008000001006572                         0900000000000010000000000000000000000000000000000000000   0000000000000000000000000A9        170192964704     
0010001300318U 020000000000000000000000000000000000000000000000000000000000000000000000000000000000000000000000000000000000000000000000000404201700000000            000000000000000                              000                           
0010001300319T 020180230000002544776 29647041509522079   7               06042017000000000008000001006572                         0900000000000010000000000000000000000000000000000000000   0000000000000000000000000A9        170192964704     
0010001300320U 020000000000000000000000000000000000000000000000000000000000000000000000000000000000000000000000000000000000000000000000000404201700000000            000000000000000                              000                           
0010001300321T 020180230000002544776 29647041510006872   7               06042017000000000006000001000132                         0900000000000010000000000000000000000000000000000000000   0000000000000000000000000A9        170192964704     
0010001300322U 020000000000000000000000000000000000000000000000000000000000000000000000000000000000000000000000000000000000000000000000000404201700000000            000000000000000                              000                           
0010001300323T 020180230000002544776 29647041512243464   7               06042017000000000006000001018376                         0900000000000010000000000000000000000000000000000000000   0000000000000000000000000A9        170192964704     
0010001300324U 020000000000000000000000000000000000000000000000000000000000000000000000000000000000000000000000000000000000000000000000000404201700000000            000000000000000                              000                           
0010001300325T 020180230000002544776 29647041518644203   7               06042017000000000006000001000132                         0900000000000010000000000000000000000000000000000000000   0000000000000000000000000A9        170192964704     
0010001300326U 020000000000000000000000000000000000000000000000000000000000000000000000000000000000000000000000000000000000000000000000000404201700000000            000000000000000                              000                           
0010001300327T 020180230000002544776 29647041519449805   7               06042017000000000008000001016179                         0900000000000010000000000000000000000000000000000000000   0000000000000000000000000A9        170192964704     
0010001300328U 020000000000000000000000000000000000000000000000000000000000000000000000000000000000000000000000000000000000000000000000000404201700000000            000000000000000                              000                           
0010001300329T 020180230000002544776 29647041519546226   7               06042017000000000006000001018376                         0900000000000010000000000000000000000000000000000000000   0000000000000000000000000A9        170192964704     
0010001300330U 020000000000000000000000000000000000000000000000000000000000000000000000000000000000000000000000000000000000000000000000000404201700000000            000000000000000                              000                           
0010001300331T 020180230000002544776 29647041519548037   7               06042017000000000006000001018376                         0900000000000010000000000000000000000000000000000000000   0000000000000000000000000A9        170192964704     
0010001300332U 020000000000000000000000000000000000000000000000000000000000000000000000000000000000000000000000000000000000000000000000000404201700000000            000000000000000                              000                           
0010001300333T 020180230000002544776 29647041526334823   7               06042017000000000006000001016179                         0900000000000010000000000000000000000000000000000000000   0000000000000000000000000A9        170192964704     
0010001300334U 020000000000000000000000000000000000000000000000000000000000000000000000000000000000000000000000000000000000000000000000000404201700000000            000000000000000                              000                           
0010001300335T 020180230000002544776 29647041528734386   7               06042017000000000006000001025429                         0900000000000010000000000000000000000000000000000000000   0000000000000000000000000A9        170192964704     
0010001300336U 020000000000000000000000000000000000000000000000000000000000000000000000000000000000000000000000000000000000000000000000000404201700000000            000000000000000                              000                           
0010001300337T 020180230000002544776 29647041528743997   7               06042017000000000006000001025429                         0900000000000010000000000000000000000000000000000000000   0000000000000000000000000A9        170192964704     
0010001300338U 020000000000000000000000000000000000000000000000000000000000000000000000000000000000000000000000000000000000000000000000000404201700000000            000000000000000                              000                           
0010001300339T 020180230000002544776 29647041529821851   7               06042017000000000006000001028029                         0900000000000010000000000000000000000000000000000000000   0000000000000000000000000A9        170192964704     
0010001300340U 020000000000000000000000000000000000000000000000000000000000000000000000000000000000000000000000000000000000000000000000000404201700000000            000000000000000                              000                           
0010001300341T 020180230000002544776 29647041530039052   7               06042017000000000006000001011061                         0900000000000010000000000000000000000000000000000000000   0000000000000000000000000A9        170192964704     
0010001300342U 020000000000000000000000000000000000000000000000000000000000000000000000000000000000000000000000000000000000000000000000000404201700000000            000000000000000                              000                           
0010001300343T 020180230000002544776 29647041532918847   7               06042017000000000006000001035041                         0900000000000010000000000000000000000000000000000000000   0000000000000000000000000A9        170192964704     
0010001300344U 020000000000000000000000000000000000000000000000000000000000000000000000000000000000000000000000000000000000000000000000000404201700000000            000000000000000                              000                           
0010001300345T 020180230000002544776 29647041542513022   7               06042017000000000006000001010545                         0900000000000010000000000000000000000000000000000000000   0000000000000000000000000A9        170192964704     
0010001300346U 020000000000000000000000000000000000000000000000000000000000000000000000000000000000000000000000000000000000000000000000000404201700000000            000000000000000                              000                           
0010001300347T 020180230000002544776 29647041544719892   7               06042017000000000006000001033316                         0900000000000010000000000000000000000000000000000000000   0000000000000000000000000A9        170192964704     
0010001300348U 020000000000000000000000000000000000000000000000000000000000000000000000000000000000000000000000000000000000000000000000000404201700000000            000000000000000                              000                           
0010001300349T 020180230000002544776 29647041544720194   7               06042017000000000006000001033316                         0900000000000010000000000000000000000000000000000000000   0000000000000000000000000A9        170192964704     
0010001300350U 020000000000000000000000000000000000000000000000000000000000000000000000000000000000000000000000000000000000000000000000000404201700000000            000000000000000                              000                           
0010001300351T 020180230000002544776 29647041545227804   7               06042017000000000006000001016179                         0900000000000010000000000000000000000000000000000000000   0000000000000000000000000A9        170192964704     
0010001300352U 020000000000000000000000000000000000000000000000000000000000000000000000000000000000000000000000000000000000000000000000000404201700000000            000000000000000                              000                           
0010001300353T 020180230000002544776 29647041545607621   7               06042017000000000008000001028029                         0900000000000010000000000000000000000000000000000000000   0000000000000000000000000A9        170192964704     
0010001300354U 020000000000000000000000000000000000000000000000000000000000000000000000000000000000000000000000000000000000000000000000000404201700000000            000000000000000                              000                           
0010001300355T 020180230000002544776 29647041545620011   7               06042017000000000008000001028029                         0900000000000010000000000000000000000000000000000000000   0000000000000000000000000A9        170192964704     
0010001300356U 020000000000000000000000000000000000000000000000000000000000000000000000000000000000000000000000000000000000000000000000000404201700000000            000000000000000                              000                           
0010001300357T 020180230000002544776 29647041545632483   7               06042017000000000008000001028029                         0900000000000010000000000000000000000000000000000000000   0000000000000000000000000A9        170192964704     
0010001300358U 020000000000000000000000000000000000000000000000000000000000000000000000000000000000000000000000000000000000000000000000000404201700000000            000000000000000                              000                           
0010001300359T 020180230000002544776 29647041545634086   7               06042017000000000008000001028029                         0900000000000010000000000000000000000000000000000000000   0000000000000000000000000A9        170192964704     
0010001300360U 020000000000000000000000000000000000000000000000000000000000000000000000000000000000000000000000000000000000000000000000000404201700000000            000000000000000                              000                           
0010001300361T 020180230000002544776 29647041546202137   7               06042017000000000006000001012467                         0900000000000010000000000000000000000000000000000000000   0000000000000000000000000A9        170192964704     
0010001300362U 020000000000000000000000000000000000000000000000000000000000000000000000000000000000000000000000000000000000000000000000000404201700000000            000000000000000                              000                           
0010001300363T 020180230000002544776 29647041547709008   7               06042017000000000006000001028029                         0900000000000010000000000000000000000000000000000000000   0000000000000000000000000A9        170192964704     
0010001300364U 020000000000000000000000000000000000000000000000000000000000000000000000000000000000000000000000000000000000000000000000000404201700000000            000000000000000                              000                           
0010001300365T 020180230000002544776 29647041548218591   7               06042017000000000006000001000132                         0900000000000010000000000000000000000000000000000000000   0000000000000000000000000A9        170192964704     
0010001300366U 020000000000000000000000000000000000000000000000000000000000000000000000000000000000000000000000000000000000000000000000000404201700000000            000000000000000                              000                           
0010001300367T 020180230000002544776 29647041549910315   7               0604201700000000000600000101981X                         0900000000000010500000000000000000000000000000000000000   0000000000000000000000000A9A4      170192964704     
0010001300368U 020000000000000000000000000000000000000000000000000000000000000000000000000000000000000000000000000000000000000000000000000404201700000000            000000000000000                              000                           
0010001300369T 020180230000002544776 29647041550439260   7               06042017000000000006000001016179                         0900000000000010000000000000000000000000000000000000000   0000000000000000000000000A9        170192964704     
0010001300370U 020000000000000000000000000000000000000000000000000000000000000000000000000000000000000000000000000000000000000000000000000404201700000000            000000000000000                              000                           
0010001300371T 020180230000002544776 29647041551729102   7               06042017000000000008000001007145                         0900000000000010000000000000000000000000000000000000000   0000000000000000000000000A9        170192964704     
0010001300372U 020000000000000000000000000000000000000000000000000000000000000000000000000000000000000000000000000000000000000000000000000404201700000000            000000000000000                              000                           
0010001300373T 020180230000002544776 29647041551908571   7               05042017000000000008000001028029                         0900000000000010000000000000000000000000000000000000000   0000000000000000000000000A9        170192964704     
0010001300374U 020000000000000000000000000000000000000000000000000000000000000000000000000000000000000000000000000000000000000000000000000304201700000000            000000000000000                              000                           
0010001300375T 020180230000002544776 29647041551950223   7               06042017000000000008000001028029                         0900000000000010000000000000000000000000000000000000000   0000000000000000000000000A9        170192964704     
0010001300376U 020000000000000000000000000000000000000000000000000000000000000000000000000000000000000000000000000000000000000000000000000404201700000000            000000000000000                              000                           
0010001300377T 020180230000002544776 29647041557855925   7               06042017000000000006000001028029                         0900000000000010000000000000000000000000000000000000000   0000000000000000000000000A9        170192964704     
0010001300378U 020000000000000000000000000000000000000000000000000000000000000000000000000000000000000000000000000000000000000000000000000404201700000000            000000000000000                              000                           
0010001300379T 020180230000002544776 29647041558107960   7               06042017000000000008000001033316                         0900000000000010000000000000000000000000000000000000000   0000000000000000000000000A9        170192964704     
0010001300380U 020000000000000000000000000000000000000000000000000000000000000000000000000000000000000000000000000000000000000000000000000404201700000000            000000000000000                              000                           
0010001300381T 020180230000002544776 29647041562406086   7               06042017000000000006000001010421                         0900000000000010000000000000000000000000000000000000000   0000000000000000000000000A9        170192964704     
0010001300382U 020000000000000000000000000000000000000000000000000000000000000000000000000000000000000000000000000000000000000000000000000404201700000000            000000000000000                              000                           
0010001300383T 020180230000002544776 29647041566851619   7               06042017000000000006000001033316                         0900000000000010000000000000000000000000000000000000000   0000000000000000000000000A9        170192964704     
0010001300384U 020000000000000000000000000000000000000000000000000000000000000000000000000000000000000000000000000000000000000000000000000404201700000000            000000000000000                              000                           
0010001300385T 020180230000002544776 29647041570037946   7               06042017000000000006000001020354                         0900000000000010000000000000000000000000000000000000000   0000000000000000000000000A9        170192964704     
0010001300386U 020000000000000000000000000000000000000000000000000000000000000000000000000000000000000000000000000000000000000000000000000404201700000000            000000000000000                              000                           
0010001300387T 020180230000002544776 29647041570233852   7               06042017000000000006000001010219                         0900000000000010000000000000000000000000000000000000000   0000000000000000000000000A9        170192964704     
0010001300388U 020000000000000000000000000000000000000000000000000000000000000000000000000000000000000000000000000000000000000000000000000404201700000000            000000000000000                              000                           
0010001300389T 020180230000002544776 29647041570629594   7               06042017000000000006000001010219                         0900000000000010000000000000000000000000000000000000000   0000000000000000000000000A9        170192964704     
0010001300390U 020000000000000000000000000000000000000000000000000000000000000000000000000000000000000000000000000000000000000000000000000404201700000000            000000000000000                              000                           
0010001300391T 020180230000002544776 29647041570640206   7               06042017000000000006000001010219                         0900000000000010000000000000000000000000000000000000000   0000000000000000000000000A9        170192964704     
0010001300392U 020000000000000000000000000000000000000000000000000000000000000000000000000000000000000000000000000000000000000000000000000404201700000000            000000000000000                              000                           
0010001300393T 020180230000002544776 29647041571622933   7               06042017000000000006000001028029                         0900000000000010000000000000000000000000000000000000000   0000000000000000000000000A9        170192964704     
0010001300394U 020000000000000000000000000000000000000000000000000000000000000000000000000000000000000000000000000000000000000000000000000404201700000000            000000000000000                              000                           
0010001300395T 020180230000002544776 29647041572103854   7               06042017000000000006000001000132                         0900000000000010000000000000000000000000000000000000000   0000000000000000000000000A9        170192964704     
0010001300396U 020000000000000000000000000000000000000000000000000000000000000000000000000000000000000000000000000000000000000000000000000404201700000000            000000000000000                              000                           
0010001300397T 020180230000002544776 29647041572142424   7               06042017000000000006000001000132                         0900000000000010000000000000000000000000000000000000000   0000000000000000000000000A9        170192964704     
0010001300398U 020000000000000000000000000000000000000000000000000000000000000000000000000000000000000000000000000000000000000000000000000404201700000000            000000000000000                              000                           
0010001300399T 020180230000002544776 29647041573130161   7               06042017000000000006000001020354                         0900000000000010000000000000000000000000000000000000000   0000000000000000000000000A9        170192964704     
0010001300400U 020000000000000000000000000000000000000000000000000000000000000000000000000000000000000000000000000000000000000000000000000404201700000000            000000000000000                              000                           
0010001300401T 020180230000002544776 29647041573157870   7               05042017000000000006000001020354                         0900000000000010000000000000000000000000000000000000000   0000000000000000000000000A9        170192964704     
0010001300402U 020000000000000000000000000000000000000000000000000000000000000000000000000000000000000000000000000000000000000000000000000304201700000000            000000000000000                              000                           
0010001300403T 020180230000002544776 29647041573256837   7               05042017000000000008000001028029                         0900000000000010000000000000000000000000000000000000000   0000000000000000000000000A9        170192964704     
0010001300404U 020000000000000000000000000000000000000000000000000000000000000000000000000000000000000000000000000000000000000000000000000304201700000000            000000000000000                              000                           
0010001300405T 020180230000002544776 29647041573448244   7               05042017000000000006000001009849                         0900000000000010000000000000000000000000000000000000000   0000000000000000000000000A9        170192964704     
0010001300406U 020000000000000000000000000000000000000000000000000000000000000000000000000000000000000000000000000000000000000000000000000304201700000000            000000000000000                              000                           
0010001300407T 020180230000002544776 29647041573755661   7               06042017000000000008000001000132                         0900000000000010000000000000000000000000000000000000000   0000000000000000000000000A9        170192964704     
0010001300408U 020000000000000000000000000000000000000000000000000000000000000000000000000000000000000000000000000000000000000000000000000404201700000000            000000000000000                              000                           
0010001300409T 020180230000002544776 29647041574030549   7               05042017000000000008000001000132                         0900000000000010000000000000000000000000000000000000000   0000000000000000000000000A9        170192964704     
0010001300410U 020000000000000000000000000000000000000000000000000000000000000000000000000000000000000000000000000000000000000000000000000304201700000000            000000000000000                              000                           
0010001300411T 020180230000002544776 29647041574342895   7               06042017000000000006000001001104                         0900000000000010000000000000000000000000000000000000000   0000000000000000000000000A9        170192964704     
0010001300412U 020000000000000000000000000000000000000000000000000000000000000000000000000000000000000000000000000000000000000000000000000404201700000000            000000000000000                              000                           
