00100000         2247745860001000029647040014       0180230000002544776 INSTITUTO DE SELECAO E TECNOLOBANCO DO BRASIL                         20504201701225900009203000000515122941PROCESSAMEN                                                 
00100011T0100020 20247745860001000029647040014       0180230000002544776 INSTITUTO DE SELECAO E TECNOLO                                                                                000000000504201700000000  000000000                      
0010001300001T 020180230000002544776 29647040500535397   7               07042017000000000008000001012467                         0900000000000010000000000000000000000000000000000000000   0000000000000000000000000A9        170192964704     
0010001300002U 020000000000000000000000000000000000000000000000000000000000000000000000000000000000000000000000000000000000000000000000000504201700000000            000000000000000                              000                           
0010001300003T 020180230000002544776 29647040515938464   7               07042017000000000008000001001368                         0900000000000010000000000000000000000000000000000000000   0000000000000000000000000A9        170192964704     
0010001300004U 020000000000000000000000000000000000000000000000000000000000000000000000000000000000000000000000000000000000000000000000000504201700000000            000000000000000                              000                           
0010001300005T 020180230000002544776 29647040534628793   7               07042017000000000006000001028029                         0900000000000010000000000000000000000000000000000000000   0000000000000000000000000A9        170192964704     
0010001300006U 020000000000000000000000000000000000000000000000000000000000000000000000000000000000000000000000000000000000000000000000000504201700000000            000000000000000                              000                           
0010001300007T 020180230000002544776 29647040537447039   7               07042017000000000006000001012467                         0900000000000010000000000000000000000000000000000000000   0000000000000000000000000A9        170192964704     
0010001300008U 020000000000000000000000000000000000000000000000000000000000000000000000000000000000000000000000000000000000000000000000000504201700000000            000000000000000                              000                           
0010001300009T 020180230000002544776 29647040550627122   7               07042017000000000006000001033316                         0900000000000010000000000000000000000000000000000000000   0000000000000000000000000A9        170192964704     
0010001300010U 020000000000000000000000000000000000000000000000000000000000000000000000000000000000000000000000000000000000000000000000000504201700000000            000000000000000                              000                           
0010001300011T 020180230000002544776 29647040582727480   7               07042017000000000006000001000132                         0900000000000010000000000000000000000000000000000000000   0000000000000000000000000A9        170192964704     
0010001300012U 020000000000000000000000000000000000000000000000000000000000000000000000000000000000000000000000000000000000000000000000000504201700000000            000000000000000                              000                           
0010001300013T 020180230000002544776 29647040600719261   7               07042017000000000006000001016179                         0900000000000010000000000000000000000000000000000000000   0000000000000000000000000A9        170192964704     
0010001300014U 020000000000000000000000000000000000000000000000000000000000000000000000000000000000000000000000000000000000000000000000000504201700000000            000000000000000                              000                           
0010001300015T 020180230000002544776 29647040686221701   7               07042017000000000006000001012688                         0900000000000010000000000000000000000000000000000000000   0000000000000000000000000A9        170192964704     
0010001300016U 020000000000000000000000000000000000000000000000000000000000000000000000000000000000000000000000000000000000000000000000000504201700000000            000000000000000                              000                           
0010001300017T 020180230000002544776 29647040709056932   7               07042017000000000008000001016179                         0900000000000010000000000000000000000000000000000000000   0000000000000000000000000A9        170192964704     
0010001300018U 020000000000000000000000000000000000000000000000000000000000000000000000000000000000000000000000000000000000000000000000000504201700000000            000000000000000                              000                           
0010001300019T 020180230000002544776 29647040716718551   7               07042017000000000008000001033316                         0900000000000010000000000000000000000000000000000000000   0000000000000000000000000A9        170192964704     
0010001300020U 020000000000000000000000000000000000000000000000000000000000000000000000000000000000000000000000000000000000000000000000000504201700000000            000000000000000                              000                           
0010001300021T 020180230000002544776 29647040721625853   7               07042017000000000006000001016179                         0900000000000010000000000000000000000000000000000000000   0000000000000000000000000A9        170192964704     
0010001300022U 020000000000000000000000000000000000000000000000000000000000000000000000000000000000000000000000000000000000000000000000000504201700000000            000000000000000                              000                           
0010001300023T 020180230000002544776 29647040745713024   7               07042017000000000006000001008214                         0900000000000010000000000000000000000000000000000000000   0000000000000000000000000A9        170192964704     
0010001300024U 020000000000000000000000000000000000000000000000000000000000000000000000000000000000000000000000000000000000000000000000000504201700000000            000000000000000                              000                           
0010001300025T 020180230000002544776 29647040761908980   7               07042017000000000006000001012467                         0900000000000010000000000000000000000000000000000000000   0000000000000000000000000A9        170192964704     
0010001300026U 020000000000000000000000000000000000000000000000000000000000000000000000000000000000000000000000000000000000000000000000000504201700000000            000000000000000                              000                           
0010001300027T 020180230000002544776 29647040761917970   7               07042017000000000006000001012467                         0900000000000010000000000000000000000000000000000000000   0000000000000000000000000A9        170192964704     
0010001300028U 020000000000000000000000000000000000000000000000000000000000000000000000000000000000000000000000000000000000000000000000000504201700000000            000000000000000                              000                           
0010001300029T 020180230000002544776 29647040775024262   7               07042017000000000006000001033316                         0900000000000010000000000000000000000000000000000000000   0000000000000000000000000A9        170192964704     
0010001300030U 020000000000000000000000000000000000000000000000000000000000000000000000000000000000000000000000000000000000000000000000000504201700000000            000000000000000                              000                           
0010001300031T 020180230000002544776 29647040792106174   7               07042017000000000006000001028029                         0900000000000010000000000000000000000000000000000000000   0000000000000000000000000A9        170192964704     
0010001300032U 020000000000000000000000000000000000000000000000000000000000000000000000000000000000000000000000000000000000000000000000000504201700000000            000000000000000                              000                           
0010001300033T 020180230000002544776 29647040792428000   7               07042017000000000006000001028029                         0900000000000010000000000000000000000000000000000000000   0000000000000000000000000A9        170192964704     
0010001300034U 020000000000000000000000000000000000000000000000000000000000000000000000000000000000000000000000000000000000000000000000000504201700000000            000000000000000                              000                           
0010001300035T 020180230000002544776 29647040817030329   7               07042017000000000006000001028029                         0900000000000010000000000000000000000000000000000000000   0000000000000000000000000A9        170192964704     
0010001300036U 020000000000000000000000000000000000000000000000000000000000000000000000000000000000000000000000000000000000000000000000000504201700000000            000000000000000                              000                           
0010001300037T 020180230000002544776 29647040828446730   7               07042017000000000006000001000132                         0900000000000010500000000000000000000000000000000000000   0000000000000000000000000A9A4      170192964704     
0010001300038U 020000000000000000000000000000000000000000000000000000000000000000000000000000000000000000000000000000000000000000000000000504201700000000            000000000000000                              000                           
0010001300039T 020180230000002544776 29647040833807706   7               07042017000000000006000001016489                         0900000000000010000000000000000000000000000000000000000   0000000000000000000000000A9        170192964704     
0010001300040U 020000000000000000000000000000000000000000000000000000000000000000000000000000000000000000000000000000000000000000000000000504201700000000            000000000000000                              000                           
0010001300041T 020180230000002544776 29647040847207264   7               07042017000000000006000001001368                         0900000000000010000000000000000000000000000000000000000   0000000000000000000000000A9        170192964704     
0010001300042U 020000000000000000000000000000000000000000000000000000000000000000000000000000000000000000000000000000000000000000000000000504201700000000            000000000000000                              000                           
0010001300043T 020180230000002544776 29647040853311019   7               07042017000000000006000001020354                         0900000000000010000000000000000000000000000000000000000   0000000000000000000000000A9        170192964704     
0010001300044U 020000000000000000000000000000000000000000000000000000000000000000000000000000000000000000000000000000000000000000000000000504201700000000            000000000000000                              000                           
0010001300045T 020180230000002544776 29647040861142313   7               07042017000000000006000001020478                         0900000000000010500000000000000000000000000000000000000   0000000000000000000000000A9A4      170192964704     
0010001300046U 020000000000000000000000000000000000000000000000000000000000000000000000000000000000000000000000000000000000000000000000000504201700000000            000000000000000                              000                           
0010001300047T 020180230000002544776 29647040905509452   7               07042017000000000006000001008249                         0900000000000010000000000000000000000000000000000000000   0000000000000000000000000A9        170192964704     
0010001300048U 020000000000000000000000000000000000000000000000000000000000000000000000000000000000000000000000000000000000000000000000000504201700000000            000000000000000                              000                           
0010001300049T 020180230000002544776 29647040930201769   7               07042017000000000008000001012467                         0900000000000010000000000000000000000000000000000000000   0000000000000000000000000A9        170192964704     
0010001300050U 020000000000000000000000000000000000000000000000000000000000000000000000000000000000000000000000000000000000000000000000000504201700000000            000000000000000                              000                           
0010001300051T 020180230000002544776 29647040930244960   7               07042017000000000008000001012467                         0900000000000010000000000000000000000000000000000000000   0000000000000000000000000A9        170192964704     
0010001300052U 020000000000000000000000000000000000000000000000000000000000000000000000000000000000000000000000000000000000000000000000000504201700000000            000000000000000                              000                           
0010001300053T 020180230000002544776 29647040951702901   7               07042017000000000006000001018376                         0900000000000010000000000000000000000000000000000000000   0000000000000000000000000A9        170192964704     
0010001300054U 020000000000000000000000000000000000000000000000000000000000000000000000000000000000000000000000000000000000000000000000000504201700000000            000000000000000                              000                           
0010001300055T 020180230000002544776 29647040955951787   7               07042017000000000006000001008672                         0900000000000010000000000000000000000000000000000000000   0000000000000000000000000A9        170192964704     
0010001300056U 020000000000000000000000000000000000000000000000000000000000000000000000000000000000000000000000000000000000000000000000000504201700000000            000000000000000                              000                           
0010001300057T 020180230000002544776 29647040956756167   7               07042017000000000006000001018376                         0900000000000010000000000000000000000000000000000000000   0000000000000000000000000A9        170192964704     
0010001300058U 020000000000000000000000000000000000000000000000000000000000000000000000000000000000000000000000000000000000000000000000000504201700000000            000000000000000                              000                           
0010001300059T 020180230000002544776 29647040960335702   7               0604201700000000000600000101138X                         0900000000000010000000000000000000000000000000000000000   0000000000000000000000000A9        170192964704     
0010001300060U 020000000000000000000000000000000000000000000000000000000000000000000000000000000000000000000000000000000000000000000000000404201700000000            000000000000000                              000                           
0010001300061T 020180230000002544776 29647040969617646   7               07042017000000000006000001033316                         0900000000000010000000000000000000000000000000000000000   0000000000000000000000000A9        170192964704     
0010001300062U 020000000000000000000000000000000000000000000000000000000000000000000000000000000000000000000000000000000000000000000000000504201700000000            000000000000000                              000                           
0010001300063T 020180230000002544776 29647040988229222   7               07042017000000000006000001016179                         0900000000000010000000000000000000000000000000000000000   0000000000000000000000000A9        170192964704     
0010001300064U 020000000000000000000000000000000000000000000000000000000000000000000000000000000000000000000000000000000000000000000000000504201700000000            000000000000000                              000                           
0010001300065T 020180230000002544776 29647040998004893   7               07042017000000000006000001001104                         0900000000000010000000000000000000000000000000000000000   0000000000000000000000000A9        170192964704     
0010001300066U 020000000000000000000000000000000000000000000000000000000000000000000000000000000000000000000000000000000000000000000000000504201700000000            000000000000000                              000                           
0010001300067T 020180230000002544776 29647040998008266   7               07042017000000000006000001001104                         0900000000000010000000000000000000000000000000000000000   0000000000000000000000000A9        170192964704     
0010001300068U 020000000000000000000000000000000000000000000000000000000000000000000000000000000000000000000000000000000000000000000000000504201700000000            000000000000000                              000                           
0010001300069T 020180230000002544776 29647040998158065   7               07042017000000000006000001033316                         0900000000000010000000000000000000000000000000000000000   0000000000000000000000000A9        170192964704     
0010001300070U 020000000000000000000000000000000000000000000000000000000000000000000000000000000000000000000000000000000000000000000000000504201700000000            000000000000000                              000                           
0010001300071T 020180230000002544776 29647041003429741   7               0704201700000000000600000101981X                         0900000000000010000000000000000000000000000000000000000   0000000000000000000000000A9        170192964704     
0010001300072U 020000000000000000000000000000000000000000000000000000000000000000000000000000000000000000000000000000000000000000000000000504201700000000            000000000000000                              000                           
0010001300073T 020180230000002544776 29647041003743213   7               07042017000000000006000001016179                         0900000000000010000000000000000000000000000000000000000   0000000000000000000000000A9        170192964704     
0010001300074U 020000000000000000000000000000000000000000000000000000000000000000000000000000000000000000000000000000000000000000000000000504201700000000            000000000000000                              000                           
0010001300075T 020180230000002544776 29647041018655953   7               07042017000000000006000001023655                         0900000000000010000000000000000000000000000000000000000   0000000000000000000000000A9        170192964704     
0010001300076U 020000000000000000000000000000000000000000000000000000000000000000000000000000000000000000000000000000000000000000000000000504201700000000            000000000000000                              000                           
0010001300077T 020180230000002544776 29647041027654592   7               07042017000000000006000001028029                         0900000000000010500000000000000000000000000000000000000   0000000000000000000000000A9A4      170192964704     
0010001300078U 020000000000000000000000000000000000000000000000000000000000000000000000000000000000000000000000000000000000000000000000000504201700000000            000000000000000                              000                           
0010001300079T 020180230000002544776 29647041036047310   7               07042017000000000006000001000132                         0900000000000010000000000000000000000000000000000000000   0000000000000000000000000A9        170192964704     
0010001300080U 020000000000000000000000000000000000000000000000000000000000000000000000000000000000000000000000000000000000000000000000000504201700000000            000000000000000                              000                           
0010001300081T 020180230000002544776 29647041040556328   7               07042017000000000008000001000132                         0900000000000010000000000000000000000000000000000000000   0000000000000000000000000A9        170192964704     
0010001300082U 020000000000000000000000000000000000000000000000000000000000000000000000000000000000000000000000000000000000000000000000000504201700000000            000000000000000                              000                           
0010001300083T 020180230000002544776 29647041045838924   7               07042017000000000008000001023183                         0900000000000010000000000000000000000000000000000000000   0000000000000000000000000A9        170192964704     
0010001300084U 020000000000000000000000000000000000000000000000000000000000000000000000000000000000000000000000000000000000000000000000000504201700000000            000000000000000                              000                           
0010001300085T 020180230000002544776 29647041045848309   7               07042017000000000008000001023183                         0900000000000010000000000000000000000000000000000000000   0000000000000000000000000A9        170192964704     
0010001300086U 020000000000000000000000000000000000000000000000000000000000000000000000000000000000000000000000000000000000000000000000000504201700000000            000000000000000                              000                           
0010001300087T 020180230000002544776 29647041097802491   7               07042017000000000006000001028029                         0900000000000010000000000000000000000000000000000000000   0000000000000000000000000A9        170192964704     
0010001300088U 020000000000000000000000000000000000000000000000000000000000000000000000000000000000000000000000000000000000000000000000000504201700000000            000000000000000                              000                           
0010001300089T 020180230000002544776 29647041117020896   7               07042017000000000008000001014699                         0900000000000010000000000000000000000000000000000000000   0000000000000000000000000A9        170192964704     
0010001300090U 020000000000000000000000000000000000000000000000000000000000000000000000000000000000000000000000000000000000000000000000000504201700000000            000000000000000                              000                           
0010001300091T 020180230000002544776 29647041125537824   7               07042017000000000006000001012467                         0900000000000010000000000000000000000000000000000000000   0000000000000000000000000A9        170192964704     
0010001300092U 020000000000000000000000000000000000000000000000000000000000000000000000000000000000000000000000000000000000000000000000000504201700000000            000000000000000                              000                           
0010001300093T 020180230000002544776 29647041132611893   7               07042017000000000008000001016020                         0900000000000010000000000000000000000000000000000000000   0000000000000000000000000A9        170192964704     
0010001300094U 020000000000000000000000000000000000000000000000000000000000000000000000000000000000000000000000000000000000000000000000000504201700000000            000000000000000                              000                           
0010001300095T 020180230000002544776 29647041134908273   7               0704201700000000000800000101981X                         0900000000000010000000000000000000000000000000000000000   0000000000000000000000000A9        170192964704     
0010001300096U 020000000000000000000000000000000000000000000000000000000000000000000000000000000000000000000000000000000000000000000000000504201700000000            000000000000000                              000                           
0010001300097T 020180230000002544776 29647041163914751   7               07042017000000000006000001000361                         0900000000000010000000000000000000000000000000000000000   0000000000000000000000000A9        170192964704     
0010001300098U 020000000000000000000000000000000000000000000000000000000000000000000000000000000000000000000000000000000000000000000000000504201700000000            000000000000000                              000                           
0010001300099T 020180230000002544776 29647041170625683   7               07042017000000000006000001007102                         0900000000000010000000000000000000000000000000000000000   0000000000000000000000000A9        170192964704     
0010001300100U 020000000000000000000000000000000000000000000000000000000000000000000000000000000000000000000000000000000000000000000000000504201700000000            000000000000000                              000                           
0010001300101T 020180230000002544776 29647041173039743   7               07042017000000000006000001016179                         0900000000000010000000000000000000000000000000000000000   0000000000000000000000000A9        170192964704     
0010001300102U 020000000000000000000000000000000000000000000000000000000000000000000000000000000000000000000000000000000000000000000000000504201700000000            000000000000000                              000                           
0010001300103T 020180230000002544776 29647041185408620   7               07042017000000000006000001014699                         0900000000000010000000000000000000000000000000000000000   0000000000000000000000000A9        170192964704     
0010001300104U 020000000000000000000000000000000000000000000000000000000000000000000000000000000000000000000000000000000000000000000000000504201700000000            000000000000000                              000                           
0010001300105T 020180230000002544776 29647041220426392   7               07042017000000000006000001020354                         0900000000000010000000000000000000000000000000000000000   0000000000000000000000000A9        170192964704     
0010001300106U 020000000000000000000000000000000000000000000000000000000000000000000000000000000000000000000000000000000000000000000000000504201700000000            000000000000000                              000                           
0010001300107T 020180230000002544776 29647041229040449   7               07042017000000000006000001028495                         0900000000000010000000000000000000000000000000000000000   0000000000000000000000000A9        170192964704     
0010001300108U 020000000000000000000000000000000000000000000000000000000000000000000000000000000000000000000000000000000000000000000000000504201700000000            000000000000000                              000                           
0010001300109T 020180230000002544776 29647041239235743   7               07042017000000000006000001028029                         0900000000000010000000000000000000000000000000000000000   0000000000000000000000000A9        170192964704     
0010001300110U 020000000000000000000000000000000000000000000000000000000000000000000000000000000000000000000000000000000000000000000000000504201700000000            000000000000000                              000                           
0010001300111T 020180230000002544776 29647041264449075   7               0704201700000000000800000100913X                         0900000000000010000000000000000000000000000000000000000   0000000000000000000000000A9        170192964704     
0010001300112U 020000000000000000000000000000000000000000000000000000000000000000000000000000000000000000000000000000000000000000000000000504201700000000            000000000000000                              000                           
0010001300113T 020180230000002544776 29647041279154739   7               07042017000000000006000001028029                         0900000000000010000000000000000000000000000000000000000   0000000000000000000000000A9        170192964704     
0010001300114U 020000000000000000000000000000000000000000000000000000000000000000000000000000000000000000000000000000000000000000000000000504201700000000            000000000000000                              000                           
0010001300115T 020180230000002544776 29647041291839722   7               07042017000000000006000001006084                         0900000000000010000000000000000000000000000000000000000   0000000000000000000000000A9        170192964704     
0010001300116U 020000000000000000000000000000000000000000000000000000000000000000000000000000000000000000000000000000000000000000000000000504201700000000            000000000000000                              000                           
0010001300117T 020180230000002544776 29647041312547661   7               07042017000000000006000001002208                         0900000000000010000000000000000000000000000000000000000   0000000000000000000000000A9        170192964704     
0010001300118U 020000000000000000000000000000000000000000000000000000000000000000000000000000000000000000000000000000000000000000000000000504201700000000            000000000000000                              000                           
0010001300119T 020180230000002544776 29647041324650420   7               06042017000000000006000001023655                         0900000000000010000000000000000000000000000000000000000   0000000000000000000000000A9        170192964704     
0010001300120U 020000000000000000000000000000000000000000000000000000000000000000000000000000000000000000000000000000000000000000000000000404201700000000            000000000000000                              000                           
0010001300121T 020180230000002544776 29647041333911973   7               07042017000000000008000001017310                         0900000000000010000000000000000000000000000000000000000   0000000000000000000000000A9        170192964704     
0010001300122U 020000000000000000000000000000000000000000000000000000000000000000000000000000000000000000000000000000000000000000000000000504201700000000            000000000000000                              000                           
0010001300123T 020180230000002544776 29647041333935975   7               07042017000000000008000001017310                         0900000000000010000000000000000000000000000000000000000   0000000000000000000000000A9        170192964704     
0010001300124U 020000000000000000000000000000000000000000000000000000000000000000000000000000000000000000000000000000000000000000000000000504201700000000            000000000000000                              000                           
0010001300125T 020180230000002544776 29647041333952279   7               07042017000000000008000001017310                         0900000000000010000000000000000000000000000000000000000   0000000000000000000000000A9        170192964704     
0010001300126U 020000000000000000000000000000000000000000000000000000000000000000000000000000000000000000000000000000000000000000000000000504201700000000            000000000000000                              000                           
0010001300127T 020180230000002544776 29647041336901091   7               07042017000000000006000001017108                         0900000000000010000000000000000000000000000000000000000   0000000000000000000000000A9        170192964704     
0010001300128U 020000000000000000000000000000000000000000000000000000000000000000000000000000000000000000000000000000000000000000000000000504201700000000            000000000000000                              000                           
0010001300129T 020180230000002544776 29647041336920566   7               07042017000000000006000001017108                         0900000000000010000000000000000000000000000000000000000   0000000000000000000000000A9        170192964704     
0010001300130U 020000000000000000000000000000000000000000000000000000000000000000000000000000000000000000000000000000000000000000000000000504201700000000            000000000000000                              000                           
0010001300131T 020180230000002544776 29647041336957975   7               07042017000000000006000001017108                         0900000000000010000000000000000000000000000000000000000   0000000000000000000000000A9        170192964704     
0010001300132U 020000000000000000000000000000000000000000000000000000000000000000000000000000000000000000000000000000000000000000000000000504201700000000            000000000000000                              000                           
0010001300133T 020180230000002544776 29647041337929743   7               07042017000000000006000001028029                         0900000000000010000000000000000000000000000000000000000   0000000000000000000000000A9        170192964704     
0010001300134U 020000000000000000000000000000000000000000000000000000000000000000000000000000000000000000000000000000000000000000000000000504201700000000            000000000000000                              000                           
0010001300135T 020180230000002544776 29647041338446246   7               07042017000000000006000001002321                         0900000000000010000000000000000000000000000000000000000   0000000000000000000000000A9        170192964704     
0010001300136U 020000000000000000000000000000000000000000000000000000000000000000000000000000000000000000000000000000000000000000000000000504201700000000            000000000000000                              000                           
0010001300137T 020180230000002544776 29647041360905378   7               07042017000000000006000001028029                         0900000000000010000000000000000000000000000000000000000   0000000000000000000000000A9        170192964704     
0010001300138U 020000000000000000000000000000000000000000000000000000000000000000000000000000000000000000000000000000000000000000000000000504201700000000            000000000000000                              000                           
0010001300139T 020180230000002544776 29647041364238962   7               07042017000000000006000001033316                         0900000000000010000000000000000000000000000000000000000   0000000000000000000000000A9        170192964704     
0010001300140U 020000000000000000000000000000000000000000000000000000000000000000000000000000000000000000000000000000000000000000000000000504201700000000            000000000000000                              000                           
0010001300141T 020180230000002544776 29647041382638207   7               07042017000000000006000001000132                         0900000000000010000000000000000000000000000000000000000   0000000000000000000000000A9        170192964704     
0010001300142U 020000000000000000000000000000000000000000000000000000000000000000000000000000000000000000000000000000000000000000000000000504201700000000            000000000000000                              000                           
0010001300143T 020180230000002544776 29647041391836363   7               07042017000000000008000001001597                         0900000000000010000000000000000000000000000000000000000   0000000000000000000000000A9        170192964704     
0010001300144U 020000000000000000000000000000000000000000000000000000000000000000000000000000000000000000000000000000000000000000000000000504201700000000            000000000000000                              000                           
0010001300145T 020180230000002544776 29647041392925601   7               07042017000000000006000001016179                         0900000000000010000000000000000000000000000000000000000   0000000000000000000000000A9        170192964704     
0010001300146U 020000000000000000000000000000000000000000000000000000000000000000000000000000000000000000000000000000000000000000000000000504201700000000            000000000000000                              000                           
0010001300147T 020180230000002544776 29647041396628694   7               07042017000000000006000001033316                         0900000000000010000000000000000000000000000000000000000   0000000000000000000000000A9        170192964704     
0010001300148U 020000000000000000000000000000000000000000000000000000000000000000000000000000000000000000000000000000000000000000000000000504201700000000            000000000000000                              000                           
0010001300149T 020180230000002544776 29647041397501745   7               07042017000000000006000001016179                         0900000000000010000000000000000000000000000000000000000   0000000000000000000000000A9        170192964704     
0010001300150U 020000000000000000000000000000000000000000000000000000000000000000000000000000000000000000000000000000000000000000000000000504201700000000            000000000000000                              000                           
0010001300151T 020180230000002544776 29647041405938577   7               07042017000000000006000001000132                         0900000000000010000000000000000000000000000000000000000   0000000000000000000000000A9        170192964704     
0010001300152U 020000000000000000000000000000000000000000000000000000000000000000000000000000000000000000000000000000000000000000000000000504201700000000            000000000000000                              000                           
0010001300153T 020180230000002544776 29647041411538046   7               07042017000000000006000001023655                         0900000000000010500000000000000000000000000000000000000   0000000000000000000000000A9A4      170192964704     
0010001300154U 020000000000000000000000000000000000000000000000000000000000000000000000000000000000000000000000000000000000000000000000000504201700000000            000000000000000                              000                           
0010001300155T 020180230000002544776 29647041412448635   7               07042017000000000006000001003018                         0900000000000010500000000000000000000000000000000000000   0000000000000000000000000A9A4      170192964704     
0010001300156U 020000000000000000000000000000000000000000000000000000000000000000000000000000000000000000000000000000000000000000000000000504201700000000            000000000000000                              000                           
0010001300157T 020180230000002544776 29647041413517821   7               07042017000000000006000001011347                         0900000000000010000000000000000000000000000000000000000   0000000000000000000000000A9        170192964704     
0010001300158U 020000000000000000000000000000000000000000000000000000000000000000000000000000000000000000000000000000000000000000000000000504201700000000            000000000000000                              000                           
0010001300159T 020180230000002544776 29647041418700711   7               07042017000000000006000001008214                         0900000000000010000000000000000000000000000000000000000   0000000000000000000000000A9        170192964704     
0010001300160U 020000000000000000000000000000000000000000000000000000000000000000000000000000000000000000000000000000000000000000000000000504201700000000            000000000000000                              000                           
0010001300161T 020180230000002544776 29647041418720356   7               07042017000000000006000001008214                         0900000000000010000000000000000000000000000000000000000   0000000000000000000000000A9        170192964704     
0010001300162U 020000000000000000000000000000000000000000000000000000000000000000000000000000000000000000000000000000000000000000000000000504201700000000            000000000000000                              000                           
0010001300163T 020180230000002544776 29647041434051141   7               07042017000000000006000001016179                         0900000000000010000000000000000000000000000000000000000   0000000000000000000000000A9        170192964704     
0010001300164U 020000000000000000000000000000000000000000000000000000000000000000000000000000000000000000000000000000000000000000000000000504201700000000            000000000000000                              000                           
0010001300165T 020180230000002544776 29647041435153341   7               07042017000000000006000001028029                         0900000000000010000000000000000000000000000000000000000   0000000000000000000000000A9        170192964704     
0010001300166U 020000000000000000000000000000000000000000000000000000000000000000000000000000000000000000000000000000000000000000000000000504201700000000            000000000000000                              000                           
0010001300167T 020180230000002544776 29647041435832033   7               07042017000000000006000001025429                         0900000000000010000000000000000000000000000000000000000   0000000000000000000000000A9        170192964704     
0010001300168U 020000000000000000000000000000000000000000000000000000000000000000000000000000000000000000000000000000000000000000000000000504201700000000            000000000000000                              000                           
0010001300169T 020180230000002544776 29647041437454882   7               07042017000000000006000001000361                         0900000000000010000000000000000000000000000000000000000   0000000000000000000000000A9        170192964704     
0010001300170U 020000000000000000000000000000000000000000000000000000000000000000000000000000000000000000000000000000000000000000000000000504201700000000            000000000000000                              000                           
0010001300171T 020180230000002544776 29647041437705876   7               07042017000000000006000001028029                         0900000000000010000000000000000000000000000000000000000   0000000000000000000000000A9        170192964704     
0010001300172U 020000000000000000000000000000000000000000000000000000000000000000000000000000000000000000000000000000000000000000000000000504201700000000            000000000000000                              000                           
0010001300173T 020180230000002544776 29647041442710281   7               07042017000000000006000001028029                         0900000000000010000000000000000000000000000000000000000   0000000000000000000000000A9        170192964704     
0010001300174U 020000000000000000000000000000000000000000000000000000000000000000000000000000000000000000000000000000000000000000000000000504201700000000            000000000000000                              000                           
0010001300175T 020180230000002544776 29647041442748131   7               07042017000000000006000001028029                         0900000000000010000000000000000000000000000000000000000   0000000000000000000000000A9        170192964704     
0010001300176U 020000000000000000000000000000000000000000000000000000000000000000000000000000000000000000000000000000000000000000000000000504201700000000            000000000000000                              000                           
0010001300177T 020180230000002544776 29647041455416273   7               07042017000000000008000001000132                         0900000000000010500000000000000000000000000000000000000   0000000000000000000000000A9A4      170192964704     
0010001300178U 020000000000000000000000000000000000000000000000000000000000000000000000000000000000000000000000000000000000000000000000000504201700000000            000000000000000                              000                           
0010001300179T 020180230000002544776 29647041458001329   7               07042017000000000006000001005827                         0900000000000010000000000000000000000000000000000000000   0000000000000000000000000A9        170192964704     
0010001300180U 020000000000000000000000000000000000000000000000000000000000000000000000000000000000000000000000000000000000000000000000000504201700000000            000000000000000                              000                           
0010001300181T 020180230000002544776 29647041461905561   7               07042017000000000006000001016489                         0900000000000010000000000000000000000000000000000000000   0000000000000000000000000A9        170192964704     
0010001300182U 020000000000000000000000000000000000000000000000000000000000000000000000000000000000000000000000000000000000000000000000000504201700000000            000000000000000                              000                           
0010001300183T 020180230000002544776 29647041461921881   7               07042017000000000006000001016489                         0900000000000010000000000000000000000000000000000000000   0000000000000000000000000A9        170192964704     
0010001300184U 020000000000000000000000000000000000000000000000000000000000000000000000000000000000000000000000000000000000000000000000000504201700000000            000000000000000                              000                           
0010001300185T 020180230000002544776 29647041462105233   7               07042017000000000006000001012467                         0900000000000010000000000000000000000000000000000000000   0000000000000000000000000A9        170192964704     
0010001300186U 020000000000000000000000000000000000000000000000000000000000000000000000000000000000000000000000000000000000000000000000000504201700000000            000000000000000                              000                           
0010001300187T 020180230000002544776 29647041462701420   7               07042017000000000006000001008214                         0900000000000010000000000000000000000000000000000000000   0000000000000000000000000A9        170192964704     
0010001300188U 020000000000000000000000000000000000000000000000000000000000000000000000000000000000000000000000000000000000000000000000000504201700000000            000000000000000                              000                           
0010001300189T 020180230000002544776 29647041463831719   7               07042017000000000006000001016179                         0900000000000010000000000000000000000000000000000000000   0000000000000000000000000A9        170192964704     
0010001300190U 020000000000000000000000000000000000000000000000000000000000000000000000000000000000000000000000000000000000000000000000000504201700000000            000000000000000                              000                           
0010001300191T 020180230000002544776 29647041464052505   7               07042017000000000006000001000132                         0900000000000010000000000000000000000000000000000000000   0000000000000000000000000A9        170192964704     
0010001300192U 020000000000000000000000000000000000000000000000000000000000000000000000000000000000000000000000000000000000000000000000000504201700000000            000000000000000                              000                           
0010001300193T 020180230000002544776 29647041466201707   7               07042017000000000006000001000132                         0900000000000010000000000000000000000000000000000000000   0000000000000000000000000A9        170192964704     
0010001300194U 020000000000000000000000000000000000000000000000000000000000000000000000000000000000000000000000000000000000000000000000000504201700000000            000000000000000                              000                           
0010001300195T 020180230000002544776 29647041466220315   7               07042017000000000006000001000132                         0900000000000010000000000000000000000000000000000000000   0000000000000000000000000A9        170192964704     
0010001300196U 020000000000000000000000000000000000000000000000000000000000000000000000000000000000000000000000000000000000000000000000000504201700000000            000000000000000                              000                           
0010001300197T 020180230000002544776 29647041467001644   7               07042017000000000006000001000132                         0900000000000010000000000000000000000000000000000000000   0000000000000000000000000A9        170192964704     
0010001300198U 020000000000000000000000000000000000000000000000000000000000000000000000000000000000000000000000000000000000000000000000000504201700000000            000000000000000                              000                           
0010001300199T 020180230000002544776 29647041467020019   7               07042017000000000006000001000132                         0900000000000010000000000000000000000000000000000000000   0000000000000000000000000A9        170192964704     
0010001300200U 020000000000000000000000000000000000000000000000000000000000000000000000000000000000000000000000000000000000000000000000000504201700000000            000000000000000                              000                           
0010001300201T 020180230000002544776 29647041477310464   7               07042017000000000006000001033316                         0900000000000010000000000000000000000000000000000000000   0000000000000000000000000A9        170192964704     
0010001300202U 020000000000000000000000000000000000000000000000000000000000000000000000000000000000000000000000000000000000000000000000000504201700000000            000000000000000                              000                           
0010001300203T 020180230000002544776 29647041477331015   7               07042017000000000006000001033316                         0900000000000010000000000000000000000000000000000000000   0000000000000000000000000A9        170192964704     
0010001300204U 020000000000000000000000000000000000000000000000000000000000000000000000000000000000000000000000000000000000000000000000000504201700000000            000000000000000                              000                           
0010001300205T 020180230000002544776 29647041479258717   7               07042017000000000006000001001597                         0900000000000010000000000000000000000000000000000000000   0000000000000000000000000A9        170192964704     
0010001300206U 020000000000000000000000000000000000000000000000000000000000000000000000000000000000000000000000000000000000000000000000000504201700000000            000000000000000                              000                           
0010001300207T 020180230000002544776 29647041487523141   7               0704201700000000000600000101981X                         0900000000000010000000000000000000000000000000000000000   0000000000000000000000000A9        170192964704     
0010001300208U 020000000000000000000000000000000000000000000000000000000000000000000000000000000000000000000000000000000000000000000000000504201700000000            000000000000000                              000                           
0010001300209T 020180230000002544776 29647041490404515   7               07042017000000000006000001033316                         0900000000000010000000000000000000000000000000000000000   0000000000000000000000000A9        170192964704     
0010001300210U 020000000000000000000000000000000000000000000000000000000000000000000000000000000000000000000000000000000000000000000000000504201700000000            000000000000000                              000                           
0010001300211T 020180230000002544776 29647041495604308   7               07042017000000000006000001018376                         0900000000000010000000000000000000000000000000000000000   0000000000000000000000000A9        170192964704     
0010001300212U 020000000000000000000000000000000000000000000000000000000000000000000000000000000000000000000000000000000000000000000000000504201700000000            000000000000000                              000                           
0010001300213T 020180230000002544776 29647041520100740   7               07042017000000000006000001025429                         0900000000000010000000000000000000000000000000000000000   0000000000000000000000000A9        170192964704     
0010001300214U 020000000000000000000000000000000000000000000000000000000000000000000000000000000000000000000000000000000000000000000000000504201700000000            000000000000000                              000                           
0010001300215T 020180230000002544776 29647041520133806   7               07042017000000000006000001025429                         0900000000000010000000000000000000000000000000000000000   0000000000000000000000000A9        170192964704     
0010001300216U 020000000000000000000000000000000000000000000000000000000000000000000000000000000000000000000000000000000000000000000000000504201700000000            000000000000000                              000                           
0010001300217T 020180230000002544776 29647041526308299   7               07042017000000000006000001016179                         0900000000000010000000000000000000000000000000000000000   0000000000000000000000000A9        170192964704     
0010001300218U 020000000000000000000000000000000000000000000000000000000000000000000000000000000000000000000000000000000000000000000000000504201700000000            000000000000000                              000                           
0010001300219T 020180230000002544776 29647041533948776   7               07042017000000000006000001018376                         0900000000000010000000000000000000000000000000000000000   0000000000000000000000000A9        170192964704     
0010001300220U 020000000000000000000000000000000000000000000000000000000000000000000000000000000000000000000000000000000000000000000000000504201700000000            000000000000000                              000                           
0010001300221T 020180230000002544776 29647041538417409   7               07042017000000000006000001020478                         0900000000000010000000000000000000000000000000000000000   0000000000000000000000000A9        170192964704     
0010001300222U 020000000000000000000000000000000000000000000000000000000000000000000000000000000000000000000000000000000000000000000000000504201700000000            000000000000000                              000                           
0010001300223T 020180230000002544776 29647041547727694   7               07042017000000000006000001028029                         0900000000000010000000000000000000000000000000000000000   0000000000000000000000000A9        170192964704     
0010001300224U 020000000000000000000000000000000000000000000000000000000000000000000000000000000000000000000000000000000000000000000000000504201700000000            000000000000000                              000                           
0010001300225T 020180230000002544776 29647041550623768   7               07042017000000000008000001028029                         0900000000000010500000000000000000000000000000000000000   0000000000000000000000000A9A4      170192964704     
0010001300226U 020000000000000000000000000000000000000000000000000000000000000000000000000000000000000000000000000000000000000000000000000504201700000000            000000000000000                              000                           
0010001300227T 020180230000002544776 29647041551716185   7               07042017000000000008000001007145                         0900000000000010000000000000000000000000000000000000000   0000000000000000000000000A9        170192964704     
0010001300228U 020000000000000000000000000000000000000000000000000000000000000000000000000000000000000000000000000000000000000000000000000504201700000000            000000000000000                              000                           
0010001300229T 020180230000002544776 29647041551721720   7               07042017000000000008000001007145                         0900000000000010000000000000000000000000000000000000000   0000000000000000000000000A9        170192964704     
0010001300230U 020000000000000000000000000000000000000000000000000000000000000000000000000000000000000000000000000000000000000000000000000504201700000000            000000000000000                              000                           
0010001300231T 020180230000002544776 29647041553210968   7               07042017000000000008000001000132                         0900000000000010000000000000000000000000000000000000000   0000000000000000000000000A9        170192964704     
0010001300232U 020000000000000000000000000000000000000000000000000000000000000000000000000000000000000000000000000000000000000000000000000504201700000000            000000000000000                              000                           
0010001300233T 020180230000002544776 29647041554527543   7               07042017000000000006000001000132                         0900000000000010500000000000000000000000000000000000000   0000000000000000000000000A9A4      170192964704     
0010001300234U 020000000000000000000000000000000000000000000000000000000000000000000000000000000000000000000000000000000000000000000000000504201700000000            000000000000000                              000                           
0010001300235T 020180230000002544776 29647041554638692   7               07042017000000000006000001016179                         0900000000000010000000000000000000000000000000000000000   0000000000000000000000000A9        170192964704     
0010001300236U 020000000000000000000000000000000000000000000000000000000000000000000000000000000000000000000000000000000000000000000000000504201700000000            000000000000000                              000                           
0010001300237T 020180230000002544776 29647041554849281   7               07042017000000000006000001028029                         0900000000000010000000000000000000000000000000000000000   0000000000000000000000000A9        170192964704     
0010001300238U 020000000000000000000000000000000000000000000000000000000000000000000000000000000000000000000000000000000000000000000000000504201700000000            000000000000000                              000                           
0010001300239T 020180230000002544776 29647041555837171   7               07042017000000000006000001028029                         0900000000000010000000000000000000000000000000000000000   0000000000000000000000000A9        170192964704     
0010001300240U 020000000000000000000000000000000000000000000000000000000000000000000000000000000000000000000000000000000000000000000000000504201700000000            000000000000000                              000                           
0010001300241T 020180230000002544776 29647041556434189   7               0704201700000000000600000100944X                         0900000000000010000000000000000000000000000000000000000   0000000000000000000000000A9        170192964704     
0010001300242U 020000000000000000000000000000000000000000000000000000000000000000000000000000000000000000000000000000000000000000000000000504201700000000            000000000000000                              000                           
0010001300243T 020180230000002544776 29647041559735415   7               07042017000000000006000001016179                         0900000000000010000000000000000000000000000000000000000   0000000000000000000000000A9        170192964704     
0010001300244U 020000000000000000000000000000000000000000000000000000000000000000000000000000000000000000000000000000000000000000000000000504201700000000            000000000000000                              000                           
0010001300245T 020180230000002544776 29647041560310320   7               07042017000000000006000001016179                         0900000000000010000000000000000000000000000000000000000   0000000000000000000000000A9        170192964704     
0010001300246U 020000000000000000000000000000000000000000000000000000000000000000000000000000000000000000000000000000000000000000000000000504201700000000            000000000000000                              000                           
0010001300247T 020180230000002544776 29647041567432393   7               07042017000000000006000001016179                         0900000000000010000000000000000000000000000000000000000   0000000000000000000000000A9        170192964704     
0010001300248U 020000000000000000000000000000000000000000000000000000000000000000000000000000000000000000000000000000000000000000000000000504201700000000            000000000000000                              000                           
0010001300249T 020180230000002544776 29647041567459420   7               07042017000000000006000001016179                         0900000000000010000000000000000000000000000000000000000   0000000000000000000000000A9        170192964704     
0010001300250U 020000000000000000000000000000000000000000000000000000000000000000000000000000000000000000000000000000000000000000000000000504201700000000            000000000000000                              000                           
0010001300251T 020180230000002544776 29647041567950384   7               07042017000000000006000001008214                         0900000000000010000000000000000000000000000000000000000   0000000000000000000000000A9        170192964704     
0010001300252U 020000000000000000000000000000000000000000000000000000000000000000000000000000000000000000000000000000000000000000000000000504201700000000            000000000000000                              000                           
0010001300253T 020180230000002544776 29647041568104384   7               07042017000000000006000001000132                         0900000000000010000000000000000000000000000000000000000   0000000000000000000000000A9        170192964704     
0010001300254U 020000000000000000000000000000000000000000000000000000000000000000000000000000000000000000000000000000000000000000000000000504201700000000            000000000000000                              000                           
0010001300255T 020180230000002544776 29647041570406882   7               07042017000000000006000001028029                         0900000000000010000000000000000000000000000000000000000   0000000000000000000000000A9        170192964704     
0010001300256U 020000000000000000000000000000000000000000000000000000000000000000000000000000000000000000000000000000000000000000000000000504201700000000            000000000000000                              000                           
0010001300257T 020180230000002544776 29647041571205146   7               07042017000000000006000001016179                         0900000000000010000000000000000000000000000000000000000   0000000000000000000000000A9        170192964704     
0010001300258U 020000000000000000000000000000000000000000000000000000000000000000000000000000000000000000000000000000000000000000000000000504201700000000            000000000000000                              000                           
0010001300259T 020180230000002544776 29647041571210286   7               07042017000000000006000001016179                         0900000000000010000000000000000000000000000000000000000   0000000000000000000000000A9        170192964704     
0010001300260U 020000000000000000000000000000000000000000000000000000000000000000000000000000000000000000000000000000000000000000000000000504201700000000            000000000000000                              000                           
0010001300261T 020180230000002544776 29647041571915362   7               07042017000000000006000001000132                         0900000000000010000000000000000000000000000000000000000   0000000000000000000000000A9        170192964704     
0010001300262U 020000000000000000000000000000000000000000000000000000000000000000000000000000000000000000000000000000000000000000000000000504201700000000            000000000000000                              000                           
0010001300263T 020180230000002544776 29647041572110992   7               07042017000000000006000001000132                         0900000000000010000000000000000000000000000000000000000   0000000000000000000000000A9        170192964704     
0010001300264U 020000000000000000000000000000000000000000000000000000000000000000000000000000000000000000000000000000000000000000000000000504201700000000            000000000000000                              000                           
0010001300265T 020180230000002544776 29647041572127873   7               07042017000000000006000001000132                         0900000000000010000000000000000000000000000000000000000   0000000000000000000000000A9        170192964704     
0010001300266U 020000000000000000000000000000000000000000000000000000000000000000000000000000000000000000000000000000000000000000000000000504201700000000            000000000000000                              000                           
0010001300267T 020180230000002544776 29647041572408238   7               07042017000000000008000001000132                         0900000000000010000000000000000000000000000000000000000   0000000000000000000000000A9        170192964704     
0010001300268U 020000000000000000000000000000000000000000000000000000000000000000000000000000000000000000000000000000000000000000000000000504201700000000            000000000000000                              000                           
0010001300269T 020180230000002544776 29647041572432024   7               07042017000000000008000001000132                         0900000000000010000000000000000000000000000000000000000   0000000000000000000000000A9        170192964704     
0010001300270U 020000000000000000000000000000000000000000000000000000000000000000000000000000000000000000000000000000000000000000000000000504201700000000            000000000000000                              000                           
0010001300271T 020180230000002544776 29647041572444405   7               07042017000000000008000001000132                         0900000000000010000000000000000000000000000000000000000   0000000000000000000000000A9        170192964704     
0010001300272U 020000000000000000000000000000000000000000000000000000000000000000000000000000000000000000000000000000000000000000000000000504201700000000            000000000000000                              000                           
0010001300273T 020180230000002544776 29647041572455216   7               07042017000000000008000001000132                         0900000000000010000000000000000000000000000000000000000   0000000000000000000000000A9        170192964704     
0010001300274U 020000000000000000000000000000000000000000000000000000000000000000000000000000000000000000000000000000000000000000000000000504201700000000            000000000000000                              000                           
0010001300275T 020180230000002544776 29647041573112659   7               07042017000000000006000001020354                         0900000000000010000000000000000000000000000000000000000   0000000000000000000000000A9        170192964704     
0010001300276U 020000000000000000000000000000000000000000000000000000000000000000000000000000000000000000000000000000000000000000000000000504201700000000            000000000000000                              000                           
0010001300277T 020180230000002544776 29647041574703621   7               06042017000000000008000001006734                         0900000000000010500000000000000000000000000000000000000   0000000000000000000000000A9A4      170192964704     
0010001300278U 020000000000000000000000000000000000000000000000000000000000000000000000000000000000000000000000000000000000000000000000000404201700000000            000000000000000                              000                           
0010001300279T 020180230000002544776 29647041574706849   7               06042017000000000008000001006734                         0900000000000010500000000000000000000000000000000000000   0000000000000000000000000A9A4      170192964704     
0010001300280U 020000000000000000000000000000000000000000000000000000000000000000000000000000000000000000000000000000000000000000000000000404201700000000            000000000000000                              000                           
0010001300281T 020180230000002544776 29647041574713765   7               07042017000000000008000001006734                         0900000000000010500000000000000000000000000000000000000   0000000000000000000000000A9A4      170192964704     
0010001300282U 020000000000000000000000000000000000000000000000000000000000000000000000000000000000000000000000000000000000000000000000000504201700000000            000000000000000                              000                           
0010001300283T 020180230000002544776 29647041574714912   7               07042017000000000008000001006734                         0900000000000010500000000000000000000000000000000000000   0000000000000000000000000A9A4      170192964704     
0010001300284U 020000000000000000000000000000000000000000000000000000000000000000000000000000000000000000000000000000000000000000000000000504201700000000            000000000000000                              000                           
0010001300285T 020180230000002544776 29647041575748315   7               07042017000000000006000001016179                         0900000000000010000000000000000000000000000000000000000   0000000000000000000000000A9        170192964704     
0010001300286U 020000000000000000000000000000000000000000000000000000000000000000000000000000000000000000000000000000000000000000000000000504201700000000            000000000000000                              000                           
0010001300287T 020180230000002544776 29647041584347032   7               07042017000000000006000001016179                         0900000000000010000000000000000000000000000000000000000   0000000000000000000000000A9        170192964704     
0010001300288U 020000000000000000000000000000000000000000000000000000000000000000000000000000000000000000000000000000000000000000000000000504201700000000            000000000000000                              000                           
0010001300289T 020180230000002544776 29647041593124841   7               07042017000000000006000001016179                         0900000000000010000000000000000000000000000000000000000   0000000000000000000000000A9        170192964704     
0010001300290U 020000000000000000000000000000000000000000000000000000000000000000000000000000000000000000000000000000000000000000000000000504201700000000            000000000000000                              000                           
0010001300291T 020180230000002544776 29647041598306828   7               07042017000000000006000001000132                         0900000000000010000000000000000000000000000000000000000   0000000000000000000000000A9        170192964704     
0010001300292U 020000000000000000000000000000000000000000000000000000000000000000000000000000000000000000000000000000000000000000000000000504201700000000            000000000000000                              000                           
0010001300293T 020180230000002544776 29647041598346319   7               07042017000000000006000001000132                         0900000000000010000000000000000000000000000000000000000   0000000000000000000000000A9        170192964704     
0010001300294U 020000000000000000000000000000000000000000000000000000000000000000000000000000000000000000000000000000000000000000000000000504201700000000            000000000000000                              000                           
0010001300295T 020180230000002544776 29647041599017385   7               0704201700000000000600000101981X                         0900000000000010000000000000000000000000000000000000000   0000000000000000000000000A9        170192964704     
0010001300296U 020000000000000000000000000000000000000000000000000000000000000000000000000000000000000000000000000000000000000000000000000504201700000000            000000000000000                              000                           
0010001300297T 020180230000002544776 29647041602122805   7               07042017000000000006000001023655                         0900000000000010000000000000000000000000000000000000000   0000000000000000000000000A9        170192964704     
0010001300298U 020000000000000000000000000000000000000000000000000000000000000000000000000000000000000000000000000000000000000000000000000504201700000000            000000000000000                              000                           
0010001300299T 020180230000002544776 29647041602318140   7               06042017000000000008000001028029                         0900000000000010000000000000000000000000000000000000000   0000000000000000000000000A9        170192964704     
0010001300300U 020000000000000000000000000000000000000000000000000000000000000000000000000000000000000000000000000000000000000000000000000404201700000000            000000000000000                              000                           
0010001300301T 020180230000002544776 29647041603835340   7               06042017000000000008000001000132                         0900000000000010000000000000000000000000000000000000000   0000000000000000000000000A9        170192964704     
0010001300302U 020000000000000000000000000000000000000000000000000000000000000000000000000000000000000000000000000000000000000000000000000404201700000000            000000000000000                              000                           
0010001300303T 020180230000002544776 29647041603920966   7               06042017000000000006000001003611                         0900000000000010500000000000000000000000000000000000000   0000000000000000000000000A9A4      170192964704     
0010001300304U 020000000000000000000000000000000000000000000000000000000000000000000000000000000000000000000000000000000000000000000000000404201700000000            000000000000000                              000                           
0010001300305T 020180230000002544776 29647041604040986   7               06042017000000000006000001000132                         0900000000000010000000000000000000000000000000000000000   0000000000000000000000000A9        170192964704     
0010001300306U 020000000000000000000000000000000000000000000000000000000000000000000000000000000000000000000000000000000000000000000000000404201700000000            000000000000000                              000                           
0010001300307T 020180230000002544776 29647041604113389   7               06042017000000000006000001030864                         0900000000000010000000000000000000000000000000000000000   0000000000000000000000000A9        170192964704     
0010001300308U 020000000000000000000000000000000000000000000000000000000000000000000000000000000000000000000000000000000000000000000000000404201700000000            000000000000000                              000                           
0010001300309T 020180230000002544776 29647041604547099   7               06042017000000000008000001018376                         0900000000000010000000000000000000000000000000000000000   0000000000000000000000000A9        170192964704     
0010001300310U 020000000000000000000000000000000000000000000000000000000000000000000000000000000000000000000000000000000000000000000000000404201700000000            000000000000000                              000                           
0010001300311T 020180230000002544776 29647041604603706   7               06042017000000000008000001000132                         0900000000000010000000000000000000000000000000000000000   0000000000000000000000000A9        170192964704     
0010001300312U 020000000000000000000000000000000000000000000000000000000000000000000000000000000000000000000000000000000000000000000000000404201700000000            000000000000000                              000                           
0010001300313T 020180230000002544776 29647041604652095   7               06042017000000000008000001000132                         0900000000000010000000000000000000000000000000000000000   0000000000000000000000000A9        170192964704     
0010001300314U 020000000000000000000000000000000000000000000000000000000000000000000000000000000000000000000000000000000000000000000000000404201700000000            000000000000000                              000                           
0010001300315T 020180230000002544776 29647041604940231   7               06042017000000000006000001033316                         0900000000000010000000000000000000000000000000000000000   0000000000000000000000000A9        170192964704     
0010001300316U 020000000000000000000000000000000000000000000000000000000000000000000000000000000000000000000000000000000000000000000000000404201700000000            000000000000000                              000                           
0010001300317T 020180230000002544776 29647041605053765   7               06042017000000000006000001012688                         0900000000000010000000000000000000000000000000000000000   0000000000000000000000000A9        170192964704     
0010001300318U 020000000000000000000000000000000000000000000000000000000000000000000000000000000000000000000000000000000000000000000000000404201700000000            000000000000000                              000                           
0010001300319T 020180230000002544776 29647041605136560   7               06042017000000000008000001005428                         0900000000000010000000000000000000000000000000000000000   0000000000000000000000000A9        170192964704     
0010001300320U 020000000000000000000000000000000000000000000000000000000000000000000000000000000000000000000000000000000000000000000000000404201700000000            000000000000000                              000                           
0010001300321T 020180230000002544776 29647041605253558   7               06042017000000000006000001028029                         0900000000000010000000000000000000000000000000000000000   0000000000000000000000000A9        170192964704     
0010001300322U 020000000000000000000000000000000000000000000000000000000000000000000000000000000000000000000000000000000000000000000000000404201700000000            000000000000000                              000                           
0010001300323T 020180230000002544776 29647041605521845   7               07042017000000000006000001028029                         0900000000000010000000000000000000000000000000000000000   0000000000000000000000000A9        170192964704     
0010001300324U 020000000000000000000000000000000000000000000000000000000000000000000000000000000000000000000000000000000000000000000000000504201700000000            000000000000000                              000                           
0010001300325T 020180230000002544776 29647041605640151   7               07042017000000000006000001012467                         0900000000000010000000000000000000000000000000000000000   0000000000000000000000000A9        170192964704     
0010001300326U 020000000000000000000000000000000000000000000000000000000000000000000000000000000000000000000000000000000000000000000000000504201700000000            000000000000000                              000                           
0010001300327T 020180230000002544776 29647041605746633   7               07042017000000000006000001033316                         0900000000000010500000000000000000000000000000000000000   0000000000000000000000000A9A4      170192964704     
0010001300328U 020000000000000000000000000000000000000000000000000000000000000000000000000000000000000000000000000000000000000000000000000504201700000000            000000000000000                              000                           
0010001300329T 020180230000002544776 29647041605918743   7               07042017000000000006000001016179                         0900000000000010000000000000000000000000000000000000000   0000000000000000000000000A9        170192964704     
0010001300330U 020000000000000000000000000000000000000000000000000000000000000000000000000000000000000000000000000000000000000000000000000504201700000000            000000000000000                              000                           
0010001300331T 020180230000002544776 29647041606017365   7               07042017000000000006000001018376                         0900000000000010000000000000000000000000000000000000000   0000000000000000000000000A9        170192964704     
0010001300332U 020000000000000000000000000000000000000000000000000000000000000000000000000000000000000000000000000000000000000000000000000504201700000000            000000000000000                              000                           
0010001300333T 020180230000002544776 29647041606033261   7               07042017000000000006000001018376                         0900000000000010000000000000000000000000000000000000000   0000000000000000000000000A9        170192964704     
0010001300334U 020000000000000000000000000000000000000000000000000000000000000000000000000000000000000000000000000000000000000000000000000504201700000000            000000000000000                              000                           
0010001300335T 020180230000002544776 29647041606109065   7               07042017000000000006000001014494                         0900000000000010000000000000000000000000000000000000000   0000000000000000000000000A9        170192964704     
0010001300336U 020000000000000000000000000000000000000000000000000000000000000000000000000000000000000000000000000000000000000000000000000504201700000000            000000000000000                              000                           
0010001300337T 020180230000002544776 29647041606115302   7               07042017000000000006000001014494                         0900000000000010000000000000000000000000000000000000000   0000000000000000000000000A9        170192964704     
0010001300338U 020000000000000000000000000000000000000000000000000000000000000000000000000000000000000000000000000000000000000000000000000504201700000000            000000000000000                              000                           
0010001300339T 020180230000002544776 29647041606224883   7               07042017000000000006000001028029                         0900000000000010000000000000000000000000000000000000000   0000000000000000000000000A9        170192964704     
0010001300340U 020000000000000000000000000000000000000000000000000000000000000000000000000000000000000000000000000000000000000000000000000504201700000000            000000000000000                              000                           
0010001300341T 020180230000002544776 29647041606302648   7               07042017000000000006000001000132                         0900000000000010000000000000000000000000000000000000000   0000000000000000000000000A9        170192964704     
0010001300342U 020000000000000000000000000000000000000000000000000000000000000000000000000000000000000000000000000000000000000000000000000504201700000000            000000000000000                              000                           
0010001300343T 020180230000002544776 29647041606441001   7               07042017000000000006000001023655                         0900000000000010000000000000000000000000000000000000000   0000000000000000000000000A9        170192964704     
0010001300344U 020000000000000000000000000000000000000000000000000000000000000000000000000000000000000000000000000000000000000000000000000504201700000000            000000000000000                              000                           
0010001300345T 020180230000002544776 29647041606545167   7               07042017000000000006000001000132                         0900000000000010000000000000000000000000000000000000000   0000000000000000000000000A9        170192964704     
0010001300346U 020000000000000000000000000000000000000000000000000000000000000000000000000000000000000000000000000000000000000000000000000504201700000000            000000000000000                              000                           
0010001300347T 020180230000002544776 29647041606637361   7               07042017000000000008000001033316                         0900000000000010000000000000000000000000000000000000000   0000000000000000000000000A9        170192964704     
0010001300348U 020000000000000000000000000000000000000000000000000000000000000000000000000000000000000000000000000000000000000000000000000504201700000000            000000000000000                              000                           
0010001300349T 020180230000002544776 29647041606716845   7               07042017000000000006000001016179                         0900000000000010000000000000000000000000000000000000000   0000000000000000000000000A9        170192964704     
0010001300350U 020000000000000000000000000000000000000000000000000000000000000000000000000000000000000000000000000000000000000000000000000504201700000000            000000000000000                              000                           
0010001300351T 020180230000002544776 29647041606745730   7               07042017000000000006000001016179                         0900000000000010000000000000000000000000000000000000000   0000000000000000000000000A9        170192964704     
0010001300352U 020000000000000000000000000000000000000000000000000000000000000000000000000000000000000000000000000000000000000000000000000504201700000000            000000000000000                              000                           
0010001300353T 020180230000002544776 29647041606824668   7               07042017000000000006000001033316                         0900000000000010000000000000000000000000000000000000000   0000000000000000000000000A9        170192964704     
0010001300354U 020000000000000000000000000000000000000000000000000000000000000000000000000000000000000000000000000000000000000000000000000504201700000000            000000000000000                              000                           
0010001300355T 020180230000002544776 29647041607016197   7               07042017000000000008000001016179                         0900000000000010000000000000000000000000000000000000000   0000000000000000000000000A9        170192964704     
0010001300356U 020000000000000000000000000000000000000000000000000000000000000000000000000000000000000000000000000000000000000000000000000504201700000000            000000000000000                              000                           
0010001300357T 020180230000002544776 29647041607110645   7               07042017000000000006000001008214                         0900000000000010000000000000000000000000000000000000000   0000000000000000000000000A9        170192964704     
0010001300358U 020000000000000000000000000000000000000000000000000000000000000000000000000000000000000000000000000000000000000000000000000504201700000000            000000000000000                              000                           
0010001300359T 020180230000002544776 29647041607228775   7               07042017000000000006000001033316                         0900000000000010000000000000000000000000000000000000000   0000000000000000000000000A9        170192964704     
0010001300360U 020000000000000000000000000000000000000000000000000000000000000000000000000000000000000000000000000000000000000000000000000504201700000000            000000000000000                              000                           
0010001300361T 020180230000002544776 29647041607339256   7               07042017000000000006000001016179                         0900000000000010000000000000000000000000000000000000000   0000000000000000000000000A9        170192964704     
0010001300362U 020000000000000000000000000000000000000000000000000000000000000000000000000000000000000000000000000000000000000000000000000504201700000000            000000000000000                              000                           
0010001300363T 020180230000002544776 29647041607454399   7               07042017000000000006000001022012                         0900000000000010000000000000000000000000000000000000000   0000000000000000000000000A9        170192964704     
0010001300364U 020000000000000000000000000000000000000000000000000000000000000000000000000000000000000000000000000000000000000000000000000504201700000000            000000000000000                              000                           
0010001300365T 020180230000002544776 29647041607503663   7               07042017000000000008000001018376                         0900000000000010000000000000000000000000000000000000000   0000000000000000000000000A9        170192964704     
0010001300366U 020000000000000000000000000000000000000000000000000000000000000000000000000000000000000000000000000000000000000000000000000504201700000000            000000000000000                              000                           
0010001300367T 020180230000002544776 29647041607620521   7               07042017000000000006000001011274                         0900000000000010000000000000000000000000000000000000000   0000000000000000000000000A9        170192964704     
0010001300368U 020000000000000000000000000000000000000000000000000000000000000000000000000000000000000000000000000000000000000000000000000504201700000000            000000000000000                              000                           
0010001300369T 020180230000002544776 29647041607657469   7               07042017000000000006000001011274                         0900000000000010000000000000000000000000000000000000000   0000000000000000000000000A9        170192964704     
0010001300370U 020000000000000000000000000000000000000000000000000000000000000000000000000000000000000000000000000000000000000000000000000504201700000000            000000000000000                              000                           
0010001300371T 020180230000002544776 29647041607728501   7               07042017000000000006000001006254                         0900000000000010000000000000000000000000000000000000000   0000000000000000000000000A9        170192964704     
0010001300372U 020000000000000000000000000000000000000000000000000000000000000000000000000000000000000000000000000000000000000000000000000504201700000000            000000000000000                              000                           
0010001300373T 020180230000002544776 29647041607941739   7               07042017000000000006000001000132                         0900000000000010000000000000000000000000000000000000000   0000000000000000000000000A9        170192964704     
0010001300374U 020000000000000000000000000000000000000000000000000000000000000000000000000000000000000000000000000000000000000000000000000504201700000000            000000000000000                              000                           
0010001300375T 020180230000002544776 29647041608010362   7               07042017000000000006000001016179                         0900000000000010500000000000000000000000000000000000000   0000000000000000000000000A9A4      170192964704     
0010001300376U 020000000000000000000000000000000000000000000000000000000000000000000000000000000000000000000000000000000000000000000000000504201700000000            000000000000000                              000                           
0010001300377T 020180230000002544776 29647041608154599   7               07042017000000000008000001020664                         0900000000000010000000000000000000000000000000000000000   0000000000000000000000000A9        170192964704     
0010001300378U 020000000000000000000000000000000000000000000000000000000000000000000000000000000000000000000000000000000000000000000000000504201700000000            000000000000000                              000                           
0010001300379T 020180230000002544776 29647041608418248   7               07042017000000000006000001038148                         0900000000000010000000000000000000000000000000000000000   0000000000000000000000000A9        170192964704     
0010001300380U 020000000000000000000000000000000000000000000000000000000000000000000000000000000000000000000000000000000000000000000000000504201700000000            000000000000000                              000                           
0010001300381T 020180230000002544776 29647041608421353   7               07042017000000000006000001038148                         0900000000000010000000000000000000000000000000000000000   0000000000000000000000000A9        170192964704     
0010001300382U 020000000000000000000000000000000000000000000000000000000000000000000000000000000000000000000000000000000000000000000000000504201700000000            000000000000000                              000                           
0010001300383T 020180230000002544776 29647041608550157   7               07042017000000000006000001000132                         0900000000000010000000000000000000000000000000000000000   0000000000000000000000000A9        170192964704     
0010001300384U 020000000000000000000000000000000000000000000000000000000000000000000000000000000000000000000000000000000000000000000000000504201700000000            000000000000000                              000                           
0010001300385T 020180230000002544776 29647041608618180   7               07042017000000000006000001012467                         0900000000000010000000000000000000000000000000000000000   0000000000000000000000000A9        170192964704     
0010001300386U 020000000000000000000000000000000000000000000000000000000000000000000000000000000000000000000000000000000000000000000000000504201700000000            000000000000000                              000                           
0010001300387T 020180230000002544776 29647041608653746   7               07042017000000000006000001012467                         0900000000000010000000000000000000000000000000000000000   0000000000000000000000000A9        170192964704     
0010001300388U 020000000000000000000000000000000000000000000000000000000000000000000000000000000000000000000000000000000000000000000000000504201700000000            000000000000000                              000                           
0010001300389T 020180230000002544776 29647041608800970   7               07042017000000000006000001005428                         0900000000000010000000000000000000000000000000000000000   0000000000000000000000000A9        170192964704     
0010001300390U 020000000000000000000000000000000000000000000000000000000000000000000000000000000000000000000000000000000000000000000000000504201700000000            000000000000000                              000                           
0010001300391T 020180230000002544776 29647041608801110   7               07042017000000000006000001005428                         0900000000000010000000000000000000000000000000000000000   0000000000000000000000000A9        170192964704     
0010001300392U 020000000000000000000000000000000000000000000000000000000000000000000000000000000000000000000000000000000000000000000000000504201700000000            000000000000000                              000                           
0010001300393T 020180230000002544776 29647041608817995   7               07042017000000000006000001005428                         0900000000000010000000000000000000000000000000000000000   0000000000000000000000000A9        170192964704     
0010001300394U 020000000000000000000000000000000000000000000000000000000000000000000000000000000000000000000000000000000000000000000000000504201700000000            000000000000000                              000                           
0010001300395T 020180230000002544776 29647041608822289   7               07042017000000000006000001005428                         0900000000000010000000000000000000000000000000000000000   0000000000000000000000000A9        170192964704     
0010001300396U 020000000000000000000000000000000000000000000000000000000000000000000000000000000000000000000000000000000000000000000000000504201700000000            000000000000000                              000                           
0010001300397T 020180230000002544776 29647041608832243   7               07042017000000000006000001005428                         0900000000000010000000000000000000000000000000000000000   0000000000000000000000000A9        170192964704     
0010001300398U 020000000000000000000000000000000000000000000000000000000000000000000000000000000000000000000000000000000000000000000000000504201700000000            000000000000000                              000                           
0010001300399T 020180230000002544776 29647041608841079   7               07042017000000000006000001005428                         0900000000000010000000000000000000000000000000000000000   0000000000000000000000000A9        170192964704     
0010001300400U 020000000000000000000000000000000000000000000000000000000000000000000000000000000000000000000000000000000000000000000000000504201700000000            000000000000000                              000                           
0010001300401T 020180230000002544776 29647041608842826   7               07042017000000000006000001005428                         0900000000000010000000000000000000000000000000000000000   0000000000000000000000000A9        170192964704     
0010001300402U 020000000000000000000000000000000000000000000000000000000000000000000000000000000000000000000000000000000000000000000000000504201700000000            000000000000000                              000                           
0010001300403T 020180230000002544776 29647041608847258   7               07042017000000000006000001005428                         0900000000000010000000000000000000000000000000000000000   0000000000000000000000000A9        170192964704     
0010001300404U 020000000000000000000000000000000000000000000000000000000000000000000000000000000000000000000000000000000000000000000000000504201700000000            000000000000000                              000                           
0010001300405T 020180230000002544776 29647041608851832   7               07042017000000000006000001005428                         0900000000000010000000000000000000000000000000000000000   0000000000000000000000000A9        170192964704     
0010001300406U 020000000000000000000000000000000000000000000000000000000000000000000000000000000000000000000000000000000000000000000000000504201700000000            000000000000000                              000                           
0010001300407T 020180230000002544776 29647041608854846   7               07042017000000000006000001005428                         0900000000000010000000000000000000000000000000000000000   0000000000000000000000000A9        170192964704     
0010001300408U 020000000000000000000000000000000000000000000000000000000000000000000000000000000000000000000000000000000000000000000000000504201700000000            000000000000000                              000                           
0010001300409T 020180230000002544776 29647041608957948   7               07042017000000000006000001000132                         0900000000000010000000000000000000000000000000000000000   0000000000000000000000000A9        170192964704     
0010001300410U 020000000000000000000000000000000000000000000000000000000000000000000000000000000000000000000000000000000000000000000000000504201700000000            000000000000000                              000                           
0010001300411T 020180230000002544776 29647041609113644   7               07042017000000000008000001016179                         0900000000000010000000000000000000000000000000000000000   0000000000000000000000000A9        170192964704     
0010001300412U 020000000000000000000000000000000000000000000000000000000000000000000000000000000000000000000000000000000000000000000000000504201700000000            000000000000000                              000                           
