00100000         2247745860001000029647040014       0180230000002544776 INSTITUTO DE SELECAO E TECNOLOBANCO DO BRASIL                         20604201701424100009403000000515122941PROCESSAMEN                                                 
00100011T0100020 20247745860001000029647040014       0180230000002544776 INSTITUTO DE SELECAO E TECNOLO                                                                                000000000604201700000000  000000000                      
0010001300001T 020180230000002544776 29647040538522334   7               08042017000000000006000001000132                         0900000000000010000000000000000000000000000000000000000   0000000000000000000000000A9        170192964704     
0010001300002U 020000000000000000000000000000000000000000000000000000000000000000000000000000000000000000000000000000000000000000000000000604201700000000            000000000000000                              000                           
0010001300003T 020180230000002544776 29647040538546738   7               08042017000000000006000001000132                         0900000000000010000000000000000000000000000000000000000   0000000000000000000000000A9        170192964704     
0010001300004U 020000000000000000000000000000000000000000000000000000000000000000000000000000000000000000000000000000000000000000000000000604201700000000            000000000000000                              000                           
0010001300005T 020180230000002544776 29647040538553252   7               08042017000000000006000001000132                         0900000000000010000000000000000000000000000000000000000   0000000000000000000000000A9        170192964704     
0010001300006U 020000000000000000000000000000000000000000000000000000000000000000000000000000000000000000000000000000000000000000000000000604201700000000            000000000000000                              000                           
0010001300007T 020180230000002544776 29647040547336249   7               08042017000000000006000001028029                         0900000000000010000000000000000000000000000000000000000   0000000000000000000000000A9        170192964704     
0010001300008U 020000000000000000000000000000000000000000000000000000000000000000000000000000000000000000000000000000000000000000000000000604201700000000            000000000000000                              000                           
0010001300009T 020180230000002544776 29647040555915954   7               08042017000000000008000001016179                         0900000000000010000000000000000000000000000000000000000   0000000000000000000000000A9        170192964704     
0010001300010U 020000000000000000000000000000000000000000000000000000000000000000000000000000000000000000000000000000000000000000000000000604201700000000            000000000000000                              000                           
0010001300011T 020180230000002544776 29647040575528784   7               08042017000000000006000001000132                         0900000000000010000000000000000000000000000000000000000   0000000000000000000000000A9        170192964704     
0010001300012U 020000000000000000000000000000000000000000000000000000000000000000000000000000000000000000000000000000000000000000000000000604201700000000            000000000000000                              000                           
0010001300013T 020180230000002544776 29647040581038796   7               08042017000000000008000001000132                         0900000000000010000000000000000000000000000000000000000   0000000000000000000000000A9        170192964704     
0010001300014U 020000000000000000000000000000000000000000000000000000000000000000000000000000000000000000000000000000000000000000000000000604201700000000            000000000000000                              000                           
0010001300015T 020180230000002544776 29647040586305641   7               08042017000000000008000001016179                         0900000000000010000000000000000000000000000000000000000   0000000000000000000000000A9        170192964704     
0010001300016U 020000000000000000000000000000000000000000000000000000000000000000000000000000000000000000000000000000000000000000000000000604201700000000            000000000000000                              000                           
0010001300017T 020180230000002544776 29647040602637095   7               08042017000000000006000001000671                         0900000000000010000000000000000000000000000000000000000   0000000000000000000000000A9        170192964704     
0010001300018U 020000000000000000000000000000000000000000000000000000000000000000000000000000000000000000000000000000000000000000000000000604201700000000            000000000000000                              000                           
0010001300019T 020180230000002544776 29647040638635083   7               08042017000000000006000001016179                         0900000000000010000000000000000000000000000000000000000   0000000000000000000000000A9        170192964704     
0010001300020U 020000000000000000000000000000000000000000000000000000000000000000000000000000000000000000000000000000000000000000000000000604201700000000            000000000000000                              000                           
0010001300021T 020180230000002544776 29647040648727119   7               08042017000000000006000001012688                         0900000000000010000000000000000000000000000000000000000   0000000000000000000000000A9        170192964704     
0010001300022U 020000000000000000000000000000000000000000000000000000000000000000000000000000000000000000000000000000000000000000000000000604201700000000            000000000000000                              000                           
0010001300023T 020180230000002544776 29647040649849726   7               08042017000000000006000001000132                         0900000000000010000000000000000000000000000000000000000   0000000000000000000000000A9        170192964704     
0010001300024U 020000000000000000000000000000000000000000000000000000000000000000000000000000000000000000000000000000000000000000000000000604201700000000            000000000000000                              000                           
0010001300025T 020180230000002544776 29647040653428355   7               08042017000000000006000001010340                         0900000000000010000000000000000000000000000000000000000   0000000000000000000000000A9        170192964704     
0010001300026U 020000000000000000000000000000000000000000000000000000000000000000000000000000000000000000000000000000000000000000000000000604201700000000            000000000000000                              000                           
0010001300027T 020180230000002544776 29647040658103643   7               08042017000000000006000001000132                         0900000000000010500000000000000000000000000000000000000   0000000000000000000000000A9A4      170192964704     
0010001300028U 020000000000000000000000000000000000000000000000000000000000000000000000000000000000000000000000000000000000000000000000000604201700000000            000000000000000                              000                           
0010001300029T 020180230000002544776 29647040658154862   7               08042017000000000006000001000132                         0900000000000010500000000000000000000000000000000000000   0000000000000000000000000A9A4      170192964704     
0010001300030U 020000000000000000000000000000000000000000000000000000000000000000000000000000000000000000000000000000000000000000000000000604201700000000            000000000000000                              000                           
0010001300031T 020180230000002544776 29647040664857790   7               08042017000000000006000001012467                         0900000000000010000000000000000000000000000000000000000   0000000000000000000000000A9        170192964704     
0010001300032U 020000000000000000000000000000000000000000000000000000000000000000000000000000000000000000000000000000000000000000000000000604201700000000            000000000000000                              000                           
0010001300033T 020180230000002544776 29647040693216352   7               08042017000000000008000001016179                         0900000000000010000000000000000000000000000000000000000   0000000000000000000000000A9        170192964704     
0010001300034U 020000000000000000000000000000000000000000000000000000000000000000000000000000000000000000000000000000000000000000000000000604201700000000            000000000000000                              000                           
0010001300035T 020180230000002544776 29647040694210649   7               08042017000000000006000001016179                         0900000000000010000000000000000000000000000000000000000   0000000000000000000000000A9        170192964704     
0010001300036U 020000000000000000000000000000000000000000000000000000000000000000000000000000000000000000000000000000000000000000000000000604201700000000            000000000000000                              000                           
0010001300037T 020180230000002544776 29647040701720510   7               08042017000000000008000001016810                         0900000000000010000000000000000000000000000000000000000   0000000000000000000000000A9        170192964704     
0010001300038U 020000000000000000000000000000000000000000000000000000000000000000000000000000000000000000000000000000000000000000000000000604201700000000            000000000000000                              000                           
0010001300039T 020180230000002544776 29647040710324132   7               08042017000000000006000001016179                         0900000000000010000000000000000000000000000000000000000   0000000000000000000000000A9        170192964704     
0010001300040U 020000000000000000000000000000000000000000000000000000000000000000000000000000000000000000000000000000000000000000000000000604201700000000            000000000000000                              000                           
0010001300041T 020180230000002544776 29647040713756195   7               08042017000000000006000001016179                         0900000000000010000000000000000000000000000000000000000   0000000000000000000000000A9        170192964704     
0010001300042U 020000000000000000000000000000000000000000000000000000000000000000000000000000000000000000000000000000000000000000000000000604201700000000            000000000000000                              000                           
0010001300043T 020180230000002544776 29647040721728237   7               08042017000000000006000001000132                         0900000000000010000000000000000000000000000000000000000   0000000000000000000000000A9        170192964704     
0010001300044U 020000000000000000000000000000000000000000000000000000000000000000000000000000000000000000000000000000000000000000000000000604201700000000            000000000000000                              000                           
0010001300045T 020180230000002544776 29647040721732950   7               08042017000000000006000001000132                         0900000000000010000000000000000000000000000000000000000   0000000000000000000000000A9        170192964704     
0010001300046U 020000000000000000000000000000000000000000000000000000000000000000000000000000000000000000000000000000000000000000000000000604201700000000            000000000000000                              000                           
0010001300047T 020180230000002544776 29647040721741110   7               08042017000000000006000001000132                         0900000000000010000000000000000000000000000000000000000   0000000000000000000000000A9        170192964704     
0010001300048U 020000000000000000000000000000000000000000000000000000000000000000000000000000000000000000000000000000000000000000000000000604201700000000            000000000000000                              000                           
0010001300049T 020180230000002544776 29647040723258444   7               08042017000000000008000001000132                         0900000000000010000000000000000000000000000000000000000   0000000000000000000000000A9        170192964704     
0010001300050U 020000000000000000000000000000000000000000000000000000000000000000000000000000000000000000000000000000000000000000000000000604201700000000            000000000000000                              000                           
0010001300051T 020180230000002544776 29647040726435776   7               08042017000000000006000001028029                         0900000000000010000000000000000000000000000000000000000   0000000000000000000000000A9        170192964704     
0010001300052U 020000000000000000000000000000000000000000000000000000000000000000000000000000000000000000000000000000000000000000000000000604201700000000            000000000000000                              000                           
0010001300053T 020180230000002544776 29647040726437902   7               08042017000000000006000001028029                         0900000000000010000000000000000000000000000000000000000   0000000000000000000000000A9        170192964704     
0010001300054U 020000000000000000000000000000000000000000000000000000000000000000000000000000000000000000000000000000000000000000000000000604201700000000            000000000000000                              000                           
0010001300055T 020180230000002544776 29647040739048292   7               08042017000000000006000001016179                         0900000000000010000000000000000000000000000000000000000   0000000000000000000000000A9        170192964704     
0010001300056U 020000000000000000000000000000000000000000000000000000000000000000000000000000000000000000000000000000000000000000000000000604201700000000            000000000000000                              000                           
0010001300057T 020180230000002544776 29647040761312011   7               08042017000000000006000001016179                         0900000000000010000000000000000000000000000000000000000   0000000000000000000000000A9        170192964704     
0010001300058U 020000000000000000000000000000000000000000000000000000000000000000000000000000000000000000000000000000000000000000000000000604201700000000            000000000000000                              000                           
0010001300059T 020180230000002544776 29647040777820925   7               08042017000000000006000001000132                         0900000000000010000000000000000000000000000000000000000   0000000000000000000000000A9        170192964704     
0010001300060U 020000000000000000000000000000000000000000000000000000000000000000000000000000000000000000000000000000000000000000000000000604201700000000            000000000000000                              000                           
0010001300061T 020180230000002544776 29647040781155231   7               08042017000000000006000001028029                         0900000000000010000000000000000000000000000000000000000   0000000000000000000000000A9        170192964704     
0010001300062U 020000000000000000000000000000000000000000000000000000000000000000000000000000000000000000000000000000000000000000000000000604201700000000            000000000000000                              000                           
0010001300063T 020180230000002544776 29647040785648661   7               08042017000000000006000001016179                         0900000000000010000000000000000000000000000000000000000   0000000000000000000000000A9        170192964704     
0010001300064U 020000000000000000000000000000000000000000000000000000000000000000000000000000000000000000000000000000000000000000000000000604201700000000            000000000000000                              000                           
0010001300065T 020180230000002544776 29647040795416802   7               07042017000000000006000001012467                         0900000000000010000000000000000000000000000000000000000   0000000000000000000000000A9        170192964704     
0010001300066U 020000000000000000000000000000000000000000000000000000000000000000000000000000000000000000000000000000000000000000000000000504201700000000            000000000000000                              000                           
0010001300067T 020180230000002544776 29647040800951223   7               08042017000000000006000001000132                         0900000000000010000000000000000000000000000000000000000   0000000000000000000000000A9        170192964704     
0010001300068U 020000000000000000000000000000000000000000000000000000000000000000000000000000000000000000000000000000000000000000000000000604201700000000            000000000000000                              000                           
0010001300069T 020180230000002544776 29647040810334842   7               08042017000000000006000001010421                         0900000000000010000000000000000000000000000000000000000   0000000000000000000000000A9        170192964704     
0010001300070U 020000000000000000000000000000000000000000000000000000000000000000000000000000000000000000000000000000000000000000000000000604201700000000            000000000000000                              000                           
0010001300071T 020180230000002544776 29647040833805232   7               08042017000000000006000001016489                         0900000000000010000000000000000000000000000000000000000   0000000000000000000000000A9        170192964704     
0010001300072U 020000000000000000000000000000000000000000000000000000000000000000000000000000000000000000000000000000000000000000000000000604201700000000            000000000000000                              000                           
0010001300073T 020180230000002544776 29647040833805245   7               08042017000000000006000001016489                         0900000000000010000000000000000000000000000000000000000   0000000000000000000000000A9        170192964704     
0010001300074U 020000000000000000000000000000000000000000000000000000000000000000000000000000000000000000000000000000000000000000000000000604201700000000            000000000000000                              000                           
0010001300075T 020180230000002544776 29647040847322890   7               08042017000000000006000001000132                         0900000000000010000000000000000000000000000000000000000   0000000000000000000000000A9        170192964704     
0010001300076U 020000000000000000000000000000000000000000000000000000000000000000000000000000000000000000000000000000000000000000000000000604201700000000            000000000000000                              000                           
0010001300077T 020180230000002544776 29647040877416289   7               0804201700000000000600000101060X                         0900000000000010000000000000000000000000000000000000000   0000000000000000000000000A9        170192964704     
0010001300078U 020000000000000000000000000000000000000000000000000000000000000000000000000000000000000000000000000000000000000000000000000604201700000000            000000000000000                              000                           
0010001300079T 020180230000002544776 29647040877416639   7               0804201700000000000600000101060X                         0900000000000010000000000000000000000000000000000000000   0000000000000000000000000A9        170192964704     
0010001300080U 020000000000000000000000000000000000000000000000000000000000000000000000000000000000000000000000000000000000000000000000000604201700000000            000000000000000                              000                           
0010001300081T 020180230000002544776 29647040888618548   7               08042017000000000006000001012467                         0900000000000010000000000000000000000000000000000000000   0000000000000000000000000A9        170192964704     
0010001300082U 020000000000000000000000000000000000000000000000000000000000000000000000000000000000000000000000000000000000000000000000000604201700000000            000000000000000                              000                           
0010001300083T 020180230000002544776 29647040889903997   7               08042017000000000006000001012467                         0900000000000010000000000000000000000000000000000000000   0000000000000000000000000A9        170192964704     
0010001300084U 020000000000000000000000000000000000000000000000000000000000000000000000000000000000000000000000000000000000000000000000000604201700000000            000000000000000                              000                           
0010001300085T 020180230000002544776 29647040919201943   7               08042017000000000006000001010421                         0900000000000010000000000000000000000000000000000000000   0000000000000000000000000A9        170192964704     
0010001300086U 020000000000000000000000000000000000000000000000000000000000000000000000000000000000000000000000000000000000000000000000000604201700000000            000000000000000                              000                           
0010001300087T 020180230000002544776 29647040928928220   7               08042017000000000006000001012467                         0900000000000010000000000000000000000000000000000000000   0000000000000000000000000A9        170192964704     
0010001300088U 020000000000000000000000000000000000000000000000000000000000000000000000000000000000000000000000000000000000000000000000000604201700000000            000000000000000                              000                           
0010001300089T 020180230000002544776 29647040943012531   7               08042017000000000006000001012688                         0900000000000010000000000000000000000000000000000000000   0000000000000000000000000A9        170192964704     
0010001300090U 020000000000000000000000000000000000000000000000000000000000000000000000000000000000000000000000000000000000000000000000000604201700000000            000000000000000                              000                           
0010001300091T 020180230000002544776 29647040961113038   7               08042017000000000006000001016179                         0900000000000010000000000000000000000000000000000000000   0000000000000000000000000A9        170192964704     
0010001300092U 020000000000000000000000000000000000000000000000000000000000000000000000000000000000000000000000000000000000000000000000000604201700000000            000000000000000                              000                           
0010001300093T 020180230000002544776 29647040980633466   7               0804201700000000000600000101138X                         0900000000000010500000000000000000000000000000000000000   0000000000000000000000000A9A4      170192964704     
0010001300094U 020000000000000000000000000000000000000000000000000000000000000000000000000000000000000000000000000000000000000000000000000604201700000000            000000000000000                              000                           
0010001300095T 020180230000002544776 29647040980636193   7               0804201700000000000600000101138X                         0900000000000010500000000000000000000000000000000000000   0000000000000000000000000A9A4      170192964704     
0010001300096U 020000000000000000000000000000000000000000000000000000000000000000000000000000000000000000000000000000000000000000000000000604201700000000            000000000000000                              000                           
0010001300097T 020180230000002544776 29647041003156843   7               08042017000000000006000001000132                         0900000000000010500000000000000000000000000000000000000   0000000000000000000000000A9A4      170192964704     
0010001300098U 020000000000000000000000000000000000000000000000000000000000000000000000000000000000000000000000000000000000000000000000000604201700000000            000000000000000                              000                           
0010001300099T 020180230000002544776 29647041007156793   7               08042017000000000006000001018376                         0900000000000010000000000000000000000000000000000000000   0000000000000000000000000A9        170192964704     
0010001300100U 020000000000000000000000000000000000000000000000000000000000000000000000000000000000000000000000000000000000000000000000000604201700000000            000000000000000                              000                           
0010001300101T 020180230000002544776 29647041007423339   7               08042017000000000006000001000132                         0900000000000010000000000000000000000000000000000000000   0000000000000000000000000A9        170192964704     
0010001300102U 020000000000000000000000000000000000000000000000000000000000000000000000000000000000000000000000000000000000000000000000000604201700000000            000000000000000                              000                           
0010001300103T 020180230000002544776 29647041008532546   7               08042017000000000006000001028029                         0900000000000010000000000000000000000000000000000000000   0000000000000000000000000A9        170192964704     
0010001300104U 020000000000000000000000000000000000000000000000000000000000000000000000000000000000000000000000000000000000000000000000000604201700000000            000000000000000                              000                           
0010001300105T 020180230000002544776 29647041015012782   7               08042017000000000006000001016179                         0900000000000010000000000000000000000000000000000000000   0000000000000000000000000A9        170192964704     
0010001300106U 020000000000000000000000000000000000000000000000000000000000000000000000000000000000000000000000000000000000000000000000000604201700000000            000000000000000                              000                           
0010001300107T 020180230000002544776 29647041037710525   7               08042017000000000006000001010502                         0900000000000010000000000000000000000000000000000000000   0000000000000000000000000A9        170192964704     
0010001300108U 020000000000000000000000000000000000000000000000000000000000000000000000000000000000000000000000000000000000000000000000000604201700000000            000000000000000                              000                           
0010001300109T 020180230000002544776 29647041037742593   7               08042017000000000006000001010502                         0900000000000010000000000000000000000000000000000000000   0000000000000000000000000A9        170192964704     
0010001300110U 020000000000000000000000000000000000000000000000000000000000000000000000000000000000000000000000000000000000000000000000000604201700000000            000000000000000                              000                           
0010001300111T 020180230000002544776 29647041044840019   7               08042017000000000006000001033316                         0900000000000010000000000000000000000000000000000000000   0000000000000000000000000A9        170192964704     
0010001300112U 020000000000000000000000000000000000000000000000000000000000000000000000000000000000000000000000000000000000000000000000000604201700000000            000000000000000                              000                           
0010001300113T 020180230000002544776 29647041045803425   7               08042017000000000008000001023183                         0900000000000010000000000000000000000000000000000000000   0000000000000000000000000A9        170192964704     
0010001300114U 020000000000000000000000000000000000000000000000000000000000000000000000000000000000000000000000000000000000000000000000000604201700000000            000000000000000                              000                           
0010001300115T 020180230000002544776 29647041072906705   7               08042017000000000006000001026425                         0900000000000010000000000000000000000000000000000000000   0000000000000000000000000A9        170192964704     
0010001300116U 020000000000000000000000000000000000000000000000000000000000000000000000000000000000000000000000000000000000000000000000000604201700000000            000000000000000                              000                           
0010001300117T 020180230000002544776 29647041072954803   7               08042017000000000006000001026425                         0900000000000010000000000000000000000000000000000000000   0000000000000000000000000A9        170192964704     
0010001300118U 020000000000000000000000000000000000000000000000000000000000000000000000000000000000000000000000000000000000000000000000000604201700000000            000000000000000                              000                           
0010001300119T 020180230000002544776 29647041073454753   7               08042017000000000006000001016179                         0900000000000010000000000000000000000000000000000000000   0000000000000000000000000A9        170192964704     
0010001300120U 020000000000000000000000000000000000000000000000000000000000000000000000000000000000000000000000000000000000000000000000000604201700000000            000000000000000                              000                           
0010001300121T 020180230000002544776 29647041083307923   7               08042017000000000006000001012467                         0900000000000010000000000000000000000000000000000000000   0000000000000000000000000A9        170192964704     
0010001300122U 020000000000000000000000000000000000000000000000000000000000000000000000000000000000000000000000000000000000000000000000000604201700000000            000000000000000                              000                           
0010001300123T 020180230000002544776 29647041084505218   7               08042017000000000008000001028029                         0900000000000010000000000000000000000000000000000000000   0000000000000000000000000A9        170192964704     
0010001300124U 020000000000000000000000000000000000000000000000000000000000000000000000000000000000000000000000000000000000000000000000000604201700000000            000000000000000                              000                           
0010001300125T 020180230000002544776 29647041099219079   7               08042017000000000006000001016179                         0900000000000010000000000000000000000000000000000000000   0000000000000000000000000A9        170192964704     
0010001300126U 020000000000000000000000000000000000000000000000000000000000000000000000000000000000000000000000000000000000000000000000000604201700000000            000000000000000                              000                           
0010001300127T 020180230000002544776 29647041111852083   7               08042017000000000006000001000132                         0900000000000010000000000000000000000000000000000000000   0000000000000000000000000A9        170192964704     
0010001300128U 020000000000000000000000000000000000000000000000000000000000000000000000000000000000000000000000000000000000000000000000000604201700000000            000000000000000                              000                           
0010001300129T 020180230000002544776 29647041124245226   7               08042017000000000006000001023655                         0900000000000010000000000000000000000000000000000000000   0000000000000000000000000A9        170192964704     
0010001300130U 020000000000000000000000000000000000000000000000000000000000000000000000000000000000000000000000000000000000000000000000000604201700000000            000000000000000                              000                           
0010001300131T 020180230000002544776 29647041165645539   7               08042017000000000006000001033316                         0900000000000010000000000000000000000000000000000000000   0000000000000000000000000A9        170192964704     
0010001300132U 020000000000000000000000000000000000000000000000000000000000000000000000000000000000000000000000000000000000000000000000000604201700000000            000000000000000                              000                           
0010001300133T 020180230000002544776 29647041199648735   7               08042017000000000006000001000132                         0900000000000010000000000000000000000000000000000000000   0000000000000000000000000A9        170192964704     
0010001300134U 020000000000000000000000000000000000000000000000000000000000000000000000000000000000000000000000000000000000000000000000000604201700000000            000000000000000                              000                           
0010001300135T 020180230000002544776 29647041206220424   7               08042017000000000006000001020354                         0900000000000010000000000000000000000000000000000000000   0000000000000000000000000A9        170192964704     
0010001300136U 020000000000000000000000000000000000000000000000000000000000000000000000000000000000000000000000000000000000000000000000000604201700000000            000000000000000                              000                           
0010001300137T 020180230000002544776 29647041209843904   7               0804201700000000000600000100233X                         0900000000000010000000000000000000000000000000000000000   0000000000000000000000000A9        170192964704     
0010001300138U 020000000000000000000000000000000000000000000000000000000000000000000000000000000000000000000000000000000000000000000000000604201700000000            000000000000000                              000                           
0010001300139T 020180230000002544776 29647041213229154   7               08042017000000000008000001002321                         0900000000000010000000000000000000000000000000000000000   0000000000000000000000000A9        170192964704     
0010001300140U 020000000000000000000000000000000000000000000000000000000000000000000000000000000000000000000000000000000000000000000000000604201700000000            000000000000000                              000                           
0010001300141T 020180230000002544776 29647041213251566   7               08042017000000000008000001002321                         0900000000000010000000000000000000000000000000000000000   0000000000000000000000000A9        170192964704     
0010001300142U 020000000000000000000000000000000000000000000000000000000000000000000000000000000000000000000000000000000000000000000000000604201700000000            000000000000000                              000                           
0010001300143T 020180230000002544776 29647041217243891   7               08042017000000000006000001011088                         0900000000000010000000000000000000000000000000000000000   0000000000000000000000000A9        170192964704     
0010001300144U 020000000000000000000000000000000000000000000000000000000000000000000000000000000000000000000000000000000000000000000000000604201700000000            000000000000000                              000                           
0010001300145T 020180230000002544776 29647041228052107   7               08042017000000000006000001033316                         0900000000000010500000000000000000000000000000000000000   0000000000000000000000000A9A4      170192964704     
0010001300146U 020000000000000000000000000000000000000000000000000000000000000000000000000000000000000000000000000000000000000000000000000604201700000000            000000000000000                              000                           
0010001300147T 020180230000002544776 29647041228128913   7               08042017000000000006000001016179                         0900000000000010500000000000000000000000000000000000000   0000000000000000000000000A9A4      170192964704     
0010001300148U 020000000000000000000000000000000000000000000000000000000000000000000000000000000000000000000000000000000000000000000000000604201700000000            000000000000000                              000                           
0010001300149T 020180230000002544776 29647041230119487   7               08042017000000000006000001010421                         0900000000000010000000000000000000000000000000000000000   0000000000000000000000000A9        170192964704     
0010001300150U 020000000000000000000000000000000000000000000000000000000000000000000000000000000000000000000000000000000000000000000000000604201700000000            000000000000000                              000                           
0010001300151T 020180230000002544776 29647041234057256   7               08042017000000000006000001033316                         0900000000000010000000000000000000000000000000000000000   0000000000000000000000000A9        170192964704     
0010001300152U 020000000000000000000000000000000000000000000000000000000000000000000000000000000000000000000000000000000000000000000000000604201700000000            000000000000000                              000                           
0010001300153T 020180230000002544776 29647041249153018   7               08042017000000000006000001020354                         0900000000000010000000000000000000000000000000000000000   0000000000000000000000000A9        170192964704     
0010001300154U 020000000000000000000000000000000000000000000000000000000000000000000000000000000000000000000000000000000000000000000000000604201700000000            000000000000000                              000                           
0010001300155T 020180230000002544776 29647041252600976   7               08042017000000000008000001038024                         0900000000000010000000000000000000000000000000000000000   0000000000000000000000000A9        170192964704     
0010001300156U 020000000000000000000000000000000000000000000000000000000000000000000000000000000000000000000000000000000000000000000000000604201700000000            000000000000000                              000                           
0010001300157T 020180230000002544776 29647041258145222   7               08042017000000000006000001033316                         0900000000000010500000000000000000000000000000000000000   0000000000000000000000000A9A4      170192964704     
0010001300158U 020000000000000000000000000000000000000000000000000000000000000000000000000000000000000000000000000000000000000000000000000604201700000000            000000000000000                              000                           
0010001300159T 020180230000002544776 29647041270936312   7               0804201700000000000600000104637X                         0900000000000010000000000000000000000000000000000000000   0000000000000000000000000A9        170192964704     
0010001300160U 020000000000000000000000000000000000000000000000000000000000000000000000000000000000000000000000000000000000000000000000000604201700000000            000000000000000                              000                           
0010001300161T 020180230000002544776 29647041279433686   7               08042017000000000006000001018376                         0900000000000010000000000000000000000000000000000000000   0000000000000000000000000A9        170192964704     
0010001300162U 020000000000000000000000000000000000000000000000000000000000000000000000000000000000000000000000000000000000000000000000000604201700000000            000000000000000                              000                           
0010001300163T 020180230000002544776 29647041280510864   7               08042017000000000006000001028029                         0900000000000010000000000000000000000000000000000000000   0000000000000000000000000A9        170192964704     
0010001300164U 020000000000000000000000000000000000000000000000000000000000000000000000000000000000000000000000000000000000000000000000000604201700000000            000000000000000                              000                           
0010001300165T 020180230000002544776 29647041286044620   7               08042017000000000006000001038148                         0900000000000010000000000000000000000000000000000000000   0000000000000000000000000A9        170192964704     
0010001300166U 020000000000000000000000000000000000000000000000000000000000000000000000000000000000000000000000000000000000000000000000000604201700000000            000000000000000                              000                           
0010001300167T 020180230000002544776 29647041310823562   7               08042017000000000006000001033316                         0900000000000010000000000000000000000000000000000000000   0000000000000000000000000A9        170192964704     
0010001300168U 020000000000000000000000000000000000000000000000000000000000000000000000000000000000000000000000000000000000000000000000000604201700000000            000000000000000                              000                           
0010001300169T 020180230000002544776 29647041316322211   7               08042017000000000006000001023353                         0900000000000010000000000000000000000000000000000000000   0000000000000000000000000A9        170192964704     
0010001300170U 020000000000000000000000000000000000000000000000000000000000000000000000000000000000000000000000000000000000000000000000000604201700000000            000000000000000                              000                           
0010001300171T 020180230000002544776 29647041327732724   7               08042017000000000006000001028029                         0900000000000010000000000000000000000000000000000000000   0000000000000000000000000A9        170192964704     
0010001300172U 020000000000000000000000000000000000000000000000000000000000000000000000000000000000000000000000000000000000000000000000000604201700000000            000000000000000                              000                           
0010001300173T 020180230000002544776 29647041338537944   7               08042017000000000006000001016179                         0900000000000010000000000000000000000000000000000000000   0000000000000000000000000A9        170192964704     
0010001300174U 020000000000000000000000000000000000000000000000000000000000000000000000000000000000000000000000000000000000000000000000000604201700000000            000000000000000                              000                           
0010001300175T 020180230000002544776 29647041357429714   7               08042017000000000006000001000132                         0900000000000010000000000000000000000000000000000000000   0000000000000000000000000A9        170192964704     
0010001300176U 020000000000000000000000000000000000000000000000000000000000000000000000000000000000000000000000000000000000000000000000000604201700000000            000000000000000                              000                           
0010001300177T 020180230000002544776 29647041359652143   7               08042017000000000006000001012386                         0900000000000010000000000000000000000000000000000000000   0000000000000000000000000A9        170192964704     
0010001300178U 020000000000000000000000000000000000000000000000000000000000000000000000000000000000000000000000000000000000000000000000000604201700000000            000000000000000                              000                           
0010001300179T 020180230000002544776 29647041360119521   7               08042017000000000006000001012467                         0900000000000010000000000000000000000000000000000000000   0000000000000000000000000A9        170192964704     
0010001300180U 020000000000000000000000000000000000000000000000000000000000000000000000000000000000000000000000000000000000000000000000000604201700000000            000000000000000                              000                           
0010001300181T 020180230000002544776 29647041360626760   7               08042017000000000006000001023655                         0900000000000010000000000000000000000000000000000000000   0000000000000000000000000A9        170192964704     
0010001300182U 020000000000000000000000000000000000000000000000000000000000000000000000000000000000000000000000000000000000000000000000000604201700000000            000000000000000                              000                           
0010001300183T 020180230000002544776 29647041360626934   7               08042017000000000006000001023655                         0900000000000010000000000000000000000000000000000000000   0000000000000000000000000A9        170192964704     
0010001300184U 020000000000000000000000000000000000000000000000000000000000000000000000000000000000000000000000000000000000000000000000000604201700000000            000000000000000                              000                           
0010001300185T 020180230000002544776 29647041360628393   7               08042017000000000006000001023655                         0900000000000010000000000000000000000000000000000000000   0000000000000000000000000A9        170192964704     
0010001300186U 020000000000000000000000000000000000000000000000000000000000000000000000000000000000000000000000000000000000000000000000000604201700000000            000000000000000                              000                           
0010001300187T 020180230000002544776 29647041360639476   7               08042017000000000006000001023655                         0900000000000010000000000000000000000000000000000000000   0000000000000000000000000A9        170192964704     
0010001300188U 020000000000000000000000000000000000000000000000000000000000000000000000000000000000000000000000000000000000000000000000000604201700000000            000000000000000                              000                           
0010001300189T 020180230000002544776 29647041360645247   7               08042017000000000006000001023655                         0900000000000010000000000000000000000000000000000000000   0000000000000000000000000A9        170192964704     
0010001300190U 020000000000000000000000000000000000000000000000000000000000000000000000000000000000000000000000000000000000000000000000000604201700000000            000000000000000                              000                           
0010001300191T 020180230000002544776 29647041362636468   7               08042017000000000006000001035033                         0900000000000010000000000000000000000000000000000000000   0000000000000000000000000A9        170192964704     
0010001300192U 020000000000000000000000000000000000000000000000000000000000000000000000000000000000000000000000000000000000000000000000000604201700000000            000000000000000                              000                           
0010001300193T 020180230000002544776 29647041373829980   7               08042017000000000006000001016179                         0900000000000010000000000000000000000000000000000000000   0000000000000000000000000A9        170192964704     
0010001300194U 020000000000000000000000000000000000000000000000000000000000000000000000000000000000000000000000000000000000000000000000000604201700000000            000000000000000                              000                           
0010001300195T 020180230000002544776 29647041373845829   7               08042017000000000006000001016179                         0900000000000010000000000000000000000000000000000000000   0000000000000000000000000A9        170192964704     
0010001300196U 020000000000000000000000000000000000000000000000000000000000000000000000000000000000000000000000000000000000000000000000000604201700000000            000000000000000                              000                           
0010001300197T 020180230000002544776 29647041373850623   7               08042017000000000006000001016179                         0900000000000010000000000000000000000000000000000000000   0000000000000000000000000A9        170192964704     
0010001300198U 020000000000000000000000000000000000000000000000000000000000000000000000000000000000000000000000000000000000000000000000000604201700000000            000000000000000                              000                           
0010001300199T 020180230000002544776 29647041373852261   7               08042017000000000006000001016179                         0900000000000010000000000000000000000000000000000000000   0000000000000000000000000A9        170192964704     
0010001300200U 020000000000000000000000000000000000000000000000000000000000000000000000000000000000000000000000000000000000000000000000000604201700000000            000000000000000                              000                           
0010001300201T 020180230000002544776 29647041377914506   7               08042017000000000008000001011398                         0900000000000010000000000000000000000000000000000000000   0000000000000000000000000A9        170192964704     
0010001300202U 020000000000000000000000000000000000000000000000000000000000000000000000000000000000000000000000000000000000000000000000000604201700000000            000000000000000                              000                           
0010001300203T 020180230000002544776 29647041383949137   7               08042017000000000006000001000132                         0900000000000010000000000000000000000000000000000000000   0000000000000000000000000A9        170192964704     
0010001300204U 020000000000000000000000000000000000000000000000000000000000000000000000000000000000000000000000000000000000000000000000000604201700000000            000000000000000                              000                           
0010001300205T 020180230000002544776 29647041390258232   7               08042017000000000006000001016179                         0900000000000010000000000000000000000000000000000000000   0000000000000000000000000A9        170192964704     
0010001300206U 020000000000000000000000000000000000000000000000000000000000000000000000000000000000000000000000000000000000000000000000000604201700000000            000000000000000                              000                           
0010001300207T 020180230000002544776 29647041393143710   7               08042017000000000006000001033316                         0900000000000010000000000000000000000000000000000000000   0000000000000000000000000A9        170192964704     
0010001300208U 020000000000000000000000000000000000000000000000000000000000000000000000000000000000000000000000000000000000000000000000000604201700000000            000000000000000                              000                           
0010001300209T 020180230000002544776 29647041405646019   7               08042017000000000006000001028029                         0900000000000010000000000000000000000000000000000000000   0000000000000000000000000A9        170192964704     
0010001300210U 020000000000000000000000000000000000000000000000000000000000000000000000000000000000000000000000000000000000000000000000000604201700000000            000000000000000                              000                           
0010001300211T 020180230000002544776 29647041419515542   7               08042017000000000006000001018376                         0900000000000010000000000000000000000000000000000000000   0000000000000000000000000A9        170192964704     
0010001300212U 020000000000000000000000000000000000000000000000000000000000000000000000000000000000000000000000000000000000000000000000000604201700000000            000000000000000                              000                           
0010001300213T 020180230000002544776 29647041425530066   7               0804201700000000000600000101138X                         0900000000000010000000000000000000000000000000000000000   0000000000000000000000000A9        170192964704     
0010001300214U 020000000000000000000000000000000000000000000000000000000000000000000000000000000000000000000000000000000000000000000000000604201700000000            000000000000000                              000                           
0010001300215T 020180230000002544776 29647041430540730   7               08042017000000000006000001010529                         0900000000000010000000000000000000000000000000000000000   0000000000000000000000000A9        170192964704     
0010001300216U 020000000000000000000000000000000000000000000000000000000000000000000000000000000000000000000000000000000000000000000000000604201700000000            000000000000000                              000                           
0010001300217T 020180230000002544776 29647041446858795   7               08042017000000000006000001010421                         0900000000000010500000000000000000000000000000000000000   0000000000000000000000000A9A4      170192964704     
0010001300218U 020000000000000000000000000000000000000000000000000000000000000000000000000000000000000000000000000000000000000000000000000604201700000000            000000000000000                              000                           
0010001300219T 020180230000002544776 29647041451017429   7               08042017000000000008000001005428                         0900000000000010000000000000000000000000000000000000000   0000000000000000000000000A9        170192964704     
0010001300220U 020000000000000000000000000000000000000000000000000000000000000000000000000000000000000000000000000000000000000000000000000604201700000000            000000000000000                              000                           
0010001300221T 020180230000002544776 29647041451143341   7               08042017000000000006000001008249                         0900000000000010000000000000000000000000000000000000000   0000000000000000000000000A9        170192964704     
0010001300222U 020000000000000000000000000000000000000000000000000000000000000000000000000000000000000000000000000000000000000000000000000604201700000000            000000000000000                              000                           
0010001300223T 020180230000002544776 29647041453243485   7               08042017000000000006000001020354                         0900000000000010000000000000000000000000000000000000000   0000000000000000000000000A9        170192964704     
0010001300224U 020000000000000000000000000000000000000000000000000000000000000000000000000000000000000000000000000000000000000000000000000604201700000000            000000000000000                              000                           
0010001300225T 020180230000002544776 29647041454556160   7               08042017000000000006000001033316                         0900000000000010000000000000000000000000000000000000000   0000000000000000000000000A9        170192964704     
0010001300226U 020000000000000000000000000000000000000000000000000000000000000000000000000000000000000000000000000000000000000000000000000604201700000000            000000000000000                              000                           
0010001300227T 020180230000002544776 29647041454931499   7               08042017000000000006000001016179                         0900000000000010000000000000000000000000000000000000000   0000000000000000000000000A9        170192964704     
0010001300228U 020000000000000000000000000000000000000000000000000000000000000000000000000000000000000000000000000000000000000000000000000604201700000000            000000000000000                              000                           
0010001300229T 020180230000002544776 29647041466205494   7               08042017000000000006000001000132                         0900000000000010000000000000000000000000000000000000000   0000000000000000000000000A9        170192964704     
0010001300230U 020000000000000000000000000000000000000000000000000000000000000000000000000000000000000000000000000000000000000000000000000604201700000000            000000000000000                              000                           
0010001300231T 020180230000002544776 29647041466228647   7               08042017000000000006000001000132                         0900000000000010000000000000000000000000000000000000000   0000000000000000000000000A9        170192964704     
0010001300232U 020000000000000000000000000000000000000000000000000000000000000000000000000000000000000000000000000000000000000000000000000604201700000000            000000000000000                              000                           
0010001300233T 020180230000002544776 29647041466246390   7               08042017000000000006000001000132                         0900000000000010000000000000000000000000000000000000000   0000000000000000000000000A9        170192964704     
0010001300234U 020000000000000000000000000000000000000000000000000000000000000000000000000000000000000000000000000000000000000000000000000604201700000000            000000000000000                              000                           
0010001300235T 020180230000002544776 29647041469314104   7               08042017000000000006000001001597                         0900000000000010000000000000000000000000000000000000000   0000000000000000000000000A9        170192964704     
0010001300236U 020000000000000000000000000000000000000000000000000000000000000000000000000000000000000000000000000000000000000000000000000604201700000000            000000000000000                              000                           
0010001300237T 020180230000002544776 29647041474039169   7               08042017000000000006000001006734                         0900000000000010000000000000000000000000000000000000000   0000000000000000000000000A9        170192964704     
0010001300238U 020000000000000000000000000000000000000000000000000000000000000000000000000000000000000000000000000000000000000000000000000604201700000000            000000000000000                              000                           
0010001300239T 020180230000002544776 29647041487210682   7               08042017000000000006000001033316                         0900000000000010000000000000000000000000000000000000000   0000000000000000000000000A9        170192964704     
0010001300240U 020000000000000000000000000000000000000000000000000000000000000000000000000000000000000000000000000000000000000000000000000604201700000000            000000000000000                              000                           
0010001300241T 020180230000002544776 29647041487247858   7               08042017000000000006000001033316                         0900000000000010000000000000000000000000000000000000000   0000000000000000000000000A9        170192964704     
0010001300242U 020000000000000000000000000000000000000000000000000000000000000000000000000000000000000000000000000000000000000000000000000604201700000000            000000000000000                              000                           
0010001300243T 020180230000002544776 29647041487715149   7               08042017000000000006000001028029                         0900000000000010000000000000000000000000000000000000000   0000000000000000000000000A9        170192964704     
0010001300244U 020000000000000000000000000000000000000000000000000000000000000000000000000000000000000000000000000000000000000000000000000604201700000000            000000000000000                              000                           
0010001300245T 020180230000002544776 29647041487719181   7               08042017000000000006000001028029                         0900000000000010000000000000000000000000000000000000000   0000000000000000000000000A9        170192964704     
0010001300246U 020000000000000000000000000000000000000000000000000000000000000000000000000000000000000000000000000000000000000000000000000604201700000000            000000000000000                              000                           
0010001300247T 020180230000002544776 29647041498324555   7               08042017000000000006000001012467                         0900000000000010000000000000000000000000000000000000000   0000000000000000000000000A9        170192964704     
0010001300248U 020000000000000000000000000000000000000000000000000000000000000000000000000000000000000000000000000000000000000000000000000604201700000000            000000000000000                              000                           
0010001300249T 020180230000002544776 29647041500418231   7               08042017000000000006000001009849                         0900000000000010000000000000000000000000000000000000000   0000000000000000000000000A9        170192964704     
0010001300250U 020000000000000000000000000000000000000000000000000000000000000000000000000000000000000000000000000000000000000000000000000604201700000000            000000000000000                              000                           
0010001300251T 020180230000002544776 29647041500434686   7               08042017000000000006000001009849                         0900000000000010000000000000000000000000000000000000000   0000000000000000000000000A9        170192964704     
0010001300252U 020000000000000000000000000000000000000000000000000000000000000000000000000000000000000000000000000000000000000000000000000604201700000000            000000000000000                              000                           
0010001300253T 020180230000002544776 29647041532008144   7               08042017000000000006000001016179                         0900000000000010000000000000000000000000000000000000000   0000000000000000000000000A9        170192964704     
0010001300254U 020000000000000000000000000000000000000000000000000000000000000000000000000000000000000000000000000000000000000000000000000604201700000000            000000000000000                              000                           
0010001300255T 020180230000002544776 29647041532139541   7               08042017000000000006000001010588                         0900000000000010000000000000000000000000000000000000000   0000000000000000000000000A9        170192964704     
0010001300256U 020000000000000000000000000000000000000000000000000000000000000000000000000000000000000000000000000000000000000000000000000604201700000000            000000000000000                              000                           
0010001300257T 020180230000002544776 29647041533805797   7               08042017000000000006000001018376                         0900000000000010000000000000000000000000000000000000000   0000000000000000000000000A9        170192964704     
0010001300258U 020000000000000000000000000000000000000000000000000000000000000000000000000000000000000000000000000000000000000000000000000604201700000000            000000000000000                              000                           
0010001300259T 020180230000002544776 29647041533842136   7               08042017000000000006000001018376                         0900000000000010000000000000000000000000000000000000000   0000000000000000000000000A9        170192964704     
0010001300260U 020000000000000000000000000000000000000000000000000000000000000000000000000000000000000000000000000000000000000000000000000604201700000000            000000000000000                              000                           
0010001300261T 020180230000002544776 29647041535401204   7               08042017000000000006000001008214                         0900000000000010000000000000000000000000000000000000000   0000000000000000000000000A9        170192964704     
0010001300262U 020000000000000000000000000000000000000000000000000000000000000000000000000000000000000000000000000000000000000000000000000604201700000000            000000000000000                              000                           
0010001300263T 020180230000002544776 29647041544727942   7               08042017000000000006000001033316                         0900000000000010000000000000000000000000000000000000000   0000000000000000000000000A9        170192964704     
0010001300264U 020000000000000000000000000000000000000000000000000000000000000000000000000000000000000000000000000000000000000000000000000604201700000000            000000000000000                              000                           
0010001300265T 020180230000002544776 29647041548032123   7               08042017000000000006000001020354                         0900000000000010000000000000000000000000000000000000000   0000000000000000000000000A9        170192964704     
0010001300266U 020000000000000000000000000000000000000000000000000000000000000000000000000000000000000000000000000000000000000000000000000604201700000000            000000000000000                              000                           
0010001300267T 020180230000002544776 29647041550201960   7               08042017000000000006000001033316                         0900000000000010000000000000000000000000000000000000000   0000000000000000000000000A9        170192964704     
0010001300268U 020000000000000000000000000000000000000000000000000000000000000000000000000000000000000000000000000000000000000000000000000604201700000000            000000000000000                              000                           
0010001300269T 020180230000002544776 29647041550238420   7               08042017000000000006000001033316                         0900000000000010000000000000000000000000000000000000000   0000000000000000000000000A9        170192964704     
0010001300270U 020000000000000000000000000000000000000000000000000000000000000000000000000000000000000000000000000000000000000000000000000604201700000000            000000000000000                              000                           
0010001300271T 020180230000002544776 29647041552443208   7               08042017000000000006000001028029                         0900000000000010000000000000000000000000000000000000000   0000000000000000000000000A9        170192964704     
0010001300272U 020000000000000000000000000000000000000000000000000000000000000000000000000000000000000000000000000000000000000000000000000604201700000000            000000000000000                              000                           
0010001300273T 020180230000002544776 29647041552443978   7               08042017000000000006000001028029                         0900000000000010000000000000000000000000000000000000000   0000000000000000000000000A9        170192964704     
0010001300274U 020000000000000000000000000000000000000000000000000000000000000000000000000000000000000000000000000000000000000000000000000604201700000000            000000000000000                              000                           
0010001300275T 020180230000002544776 29647041553643332   7               07042017000000000008000001000132                         0900000000000010000000000000000000000000000000000000000   0000000000000000000000000A9        170192964704     
0010001300276U 020000000000000000000000000000000000000000000000000000000000000000000000000000000000000000000000000000000000000000000000000504201700000000            000000000000000                              000                           
0010001300277T 020180230000002544776 29647041556304812   7               08042017000000000006000001016179                         0900000000000010000000000000000000000000000000000000000   0000000000000000000000000A9        170192964704     
0010001300278U 020000000000000000000000000000000000000000000000000000000000000000000000000000000000000000000000000000000000000000000000000604201700000000            000000000000000                              000                           
0010001300279T 020180230000002544776 29647041557652189   7               08042017000000000008000001016179                         0900000000000010000000000000000000000000000000000000000   0000000000000000000000000A9        170192964704     
0010001300280U 020000000000000000000000000000000000000000000000000000000000000000000000000000000000000000000000000000000000000000000000000604201700000000            000000000000000                              000                           
0010001300281T 020180230000002544776 29647041559709917   7               08042017000000000006000001016179                         0900000000000010000000000000000000000000000000000000000   0000000000000000000000000A9        170192964704     
0010001300282U 020000000000000000000000000000000000000000000000000000000000000000000000000000000000000000000000000000000000000000000000000604201700000000            000000000000000                              000                           
0010001300283T 020180230000002544776 29647041560932329   7               08042017000000000006000001028029                         0900000000000010000000000000000000000000000000000000000   0000000000000000000000000A9        170192964704     
0010001300284U 020000000000000000000000000000000000000000000000000000000000000000000000000000000000000000000000000000000000000000000000000604201700000000            000000000000000                              000                           
0010001300285T 020180230000002544776 29647041562505783   7               08042017000000000008000001020354                         0900000000000010000000000000000000000000000000000000000   0000000000000000000000000A9        170192964704     
0010001300286U 020000000000000000000000000000000000000000000000000000000000000000000000000000000000000000000000000000000000000000000000000604201700000000            000000000000000                              000                           
0010001300287T 020180230000002544776 29647041562636614   7               08042017000000000006000001002003                         0900000000000010000000000000000000000000000000000000000   0000000000000000000000000A9        170192964704     
0010001300288U 020000000000000000000000000000000000000000000000000000000000000000000000000000000000000000000000000000000000000000000000000604201700000000            000000000000000                              000                           
0010001300289T 020180230000002544776 29647041562638774   7               08042017000000000006000001002003                         0900000000000010000000000000000000000000000000000000000   0000000000000000000000000A9        170192964704     
0010001300290U 020000000000000000000000000000000000000000000000000000000000000000000000000000000000000000000000000000000000000000000000000604201700000000            000000000000000                              000                           
0010001300291T 020180230000002544776 29647041564002233   7               08042017000000000006000001028029                         0900000000000010000000000000000000000000000000000000000   0000000000000000000000000A9        170192964704     
0010001300292U 020000000000000000000000000000000000000000000000000000000000000000000000000000000000000000000000000000000000000000000000000604201700000000            000000000000000                              000                           
0010001300293T 020180230000002544776 29647041564419588   7               08042017000000000006000001028029                         0900000000000010000000000000000000000000000000000000000   0000000000000000000000000A9        170192964704     
0010001300294U 020000000000000000000000000000000000000000000000000000000000000000000000000000000000000000000000000000000000000000000000000604201700000000            000000000000000                              000                           
0010001300295T 020180230000002544776 29647041569928525   7               08042017000000000006000001016179                         0900000000000010000000000000000000000000000000000000000   0000000000000000000000000A9        170192964704     
0010001300296U 020000000000000000000000000000000000000000000000000000000000000000000000000000000000000000000000000000000000000000000000000604201700000000            000000000000000                              000                           
0010001300297T 020180230000002544776 29647041569948989   7               08042017000000000006000001016179                         0900000000000010000000000000000000000000000000000000000   0000000000000000000000000A9        170192964704     
0010001300298U 020000000000000000000000000000000000000000000000000000000000000000000000000000000000000000000000000000000000000000000000000604201700000000            000000000000000                              000                           
0010001300299T 020180230000002544776 29647041570203196   7               08042017000000000006000001010219                         0900000000000010000000000000000000000000000000000000000   0000000000000000000000000A9        170192964704     
0010001300300U 020000000000000000000000000000000000000000000000000000000000000000000000000000000000000000000000000000000000000000000000000604201700000000            000000000000000                              000                           
0010001300301T 020180230000002544776 29647041570235474   7               08042017000000000006000001010219                         0900000000000010000000000000000000000000000000000000000   0000000000000000000000000A9        170192964704     
0010001300302U 020000000000000000000000000000000000000000000000000000000000000000000000000000000000000000000000000000000000000000000000000604201700000000            000000000000000                              000                           
0010001300303T 020180230000002544776 29647041571949721   7               08042017000000000006000001000132                         0900000000000010000000000000000000000000000000000000000   0000000000000000000000000A9        170192964704     
0010001300304U 020000000000000000000000000000000000000000000000000000000000000000000000000000000000000000000000000000000000000000000000000604201700000000            000000000000000                              000                           
0010001300305T 020180230000002544776 29647041572549074   7               08042017000000000006000001023736                         0900000000000010000000000000000000000000000000000000000   0000000000000000000000000A9        170192964704     
0010001300306U 020000000000000000000000000000000000000000000000000000000000000000000000000000000000000000000000000000000000000000000000000604201700000000            000000000000000                              000                           
0010001300307T 020180230000002544776 29647041573217025   7               08042017000000000008000001028029                         0900000000000010000000000000000000000000000000000000000   0000000000000000000000000A9        170192964704     
0010001300308U 020000000000000000000000000000000000000000000000000000000000000000000000000000000000000000000000000000000000000000000000000604201700000000            000000000000000                              000                           
0010001300309T 020180230000002544776 29647041574757344   7               08042017000000000008000001006734                         0900000000000010500000000000000000000000000000000000000   0000000000000000000000000A9A4      170192964704     
0010001300310U 020000000000000000000000000000000000000000000000000000000000000000000000000000000000000000000000000000000000000000000000000604201700000000            000000000000000                              000                           
0010001300311T 020180230000002544776 29647041582303159   7               08042017000000000006000001012467                         0900000000000010000000000000000000000000000000000000000   0000000000000000000000000A9        170192964704     
0010001300312U 020000000000000000000000000000000000000000000000000000000000000000000000000000000000000000000000000000000000000000000000000604201700000000            000000000000000                              000                           
0010001300313T 020180230000002544776 29647041586120932   7               08042017000000000006000001000132                         0900000000000010000000000000000000000000000000000000000   0000000000000000000000000A9        170192964704     
0010001300314U 020000000000000000000000000000000000000000000000000000000000000000000000000000000000000000000000000000000000000000000000000604201700000000            000000000000000                              000                           
0010001300315T 020180230000002544776 29647041594832547   7               08042017000000000006000001012467                         0900000000000010000000000000000000000000000000000000000   0000000000000000000000000A9        170192964704     
0010001300316U 020000000000000000000000000000000000000000000000000000000000000000000000000000000000000000000000000000000000000000000000000604201700000000            000000000000000                              000                           
0010001300317T 020180230000002544776 29647041595036651   7               08042017000000000006000001023264                         0900000000000010000000000000000000000000000000000000000   0000000000000000000000000A9        170192964704     
0010001300318U 020000000000000000000000000000000000000000000000000000000000000000000000000000000000000000000000000000000000000000000000000604201700000000            000000000000000                              000                           
0010001300319T 020180230000002544776 29647041595609619   7               08042017000000000006000001008214                         0900000000000010000000000000000000000000000000000000000   0000000000000000000000000A9        170192964704     
0010001300320U 020000000000000000000000000000000000000000000000000000000000000000000000000000000000000000000000000000000000000000000000000604201700000000            000000000000000                              000                           
0010001300321T 020180230000002544776 29647041600956376   7               08042017000000000006000001000132                         0900000000000010000000000000000000000000000000000000000   0000000000000000000000000A9        170192964704     
0010001300322U 020000000000000000000000000000000000000000000000000000000000000000000000000000000000000000000000000000000000000000000000000604201700000000            000000000000000                              000                           
0010001300323T 020180230000002544776 29647041603930674   7               08042017000000000006000001003611                         0900000000000010500000000000000000000000000000000000000   0000000000000000000000000A9A4      170192964704     
0010001300324U 020000000000000000000000000000000000000000000000000000000000000000000000000000000000000000000000000000000000000000000000000604201700000000            000000000000000                              000                           
0010001300325T 020180230000002544776 29647041603939131   7               08042017000000000006000001003611                         0900000000000010500000000000000000000000000000000000000   0000000000000000000000000A9A4      170192964704     
0010001300326U 020000000000000000000000000000000000000000000000000000000000000000000000000000000000000000000000000000000000000000000000000604201700000000            000000000000000                              000                           
0010001300327T 020180230000002544776 29647041617624903   7               08042017000000000006000001033316                         0900000000000010000000000000000000000000000000000000000   0000000000000000000000000A9        170192964704     
0010001300328U 020000000000000000000000000000000000000000000000000000000000000000000000000000000000000000000000000000000000000000000000000604201700000000            000000000000000                              000                           
0010001300329T 020180230000002544776 29647041617641074   7               08042017000000000006000001033316                         0900000000000010000000000000000000000000000000000000000   0000000000000000000000000A9        170192964704     
0010001300330U 020000000000000000000000000000000000000000000000000000000000000000000000000000000000000000000000000000000000000000000000000604201700000000            000000000000000                              000                           
0010001300331T 020180230000002544776 29647041619827057   7               08042017000000000006000001028029                         0900000000000010000000000000000000000000000000000000000   0000000000000000000000000A9        170192964704     
0010001300332U 020000000000000000000000000000000000000000000000000000000000000000000000000000000000000000000000000000000000000000000000000604201700000000            000000000000000                              000                           
0010001300333T 020180230000002544776 29647041620945282   7               08042017000000000006000001038148                         0900000000000010500000000000000000000000000000000000000   0000000000000000000000000A9A4      170192964704     
0010001300334U 020000000000000000000000000000000000000000000000000000000000000000000000000000000000000000000000000000000000000000000000000604201700000000            000000000000000                              000                           
0010001300335T 020180230000002544776 29647041622303047   7               0804201700000000000600000100233X                         0900000000000010000000000000000000000000000000000000000   0000000000000000000000000A9        170192964704     
0010001300336U 020000000000000000000000000000000000000000000000000000000000000000000000000000000000000000000000000000000000000000000000000604201700000000            000000000000000                              000                           
0010001300337T 020180230000002544776 29647041623531218   7               08042017000000000006000001005215                         0900000000000010000000000000000000000000000000000000000   0000000000000000000000000A9        170192964704     
0010001300338U 020000000000000000000000000000000000000000000000000000000000000000000000000000000000000000000000000000000000000000000000000604201700000000            000000000000000                              000                           
0010001300339T 020180230000002544776 29647041624304320   7               08042017000000000006000001023655                         0900000000000010000000000000000000000000000000000000000   0000000000000000000000000A9        170192964704     
0010001300340U 020000000000000000000000000000000000000000000000000000000000000000000000000000000000000000000000000000000000000000000000000604201700000000            000000000000000                              000                           
0010001300341T 020180230000002544776 29647041624310004   7               08042017000000000006000001023655                         0900000000000010000000000000000000000000000000000000000   0000000000000000000000000A9        170192964704     
0010001300342U 020000000000000000000000000000000000000000000000000000000000000000000000000000000000000000000000000000000000000000000000000604201700000000            000000000000000                              000                           
0010001300343T 020180230000002544776 29647041624346767   7               07042017000000000006000001023655                         0900000000000010000000000000000000000000000000000000000   0000000000000000000000000A9        170192964704     
0010001300344U 020000000000000000000000000000000000000000000000000000000000000000000000000000000000000000000000000000000000000000000000000504201700000000            000000000000000                              000                           
0010001300345T 020180230000002544776 29647041624406406   7               07042017000000000006000001034118                         0900000000000010500000000000000000000000000000000000000   0000000000000000000000000A9A4      170192964704     
0010001300346U 020000000000000000000000000000000000000000000000000000000000000000000000000000000000000000000000000000000000000000000000000504201700000000            000000000000000                              000                           
0010001300347T 020180230000002544776 29647041624515048   7               07042017000000000008000001033316                         0900000000000010000000000000000000000000000000000000000   0000000000000000000000000A9        170192964704     
0010001300348U 020000000000000000000000000000000000000000000000000000000000000000000000000000000000000000000000000000000000000000000000000504201700000000            000000000000000                              000                           
0010001300349T 020180230000002544776 29647041624631416   7               07042017000000000006000001028495                         0900000000000010000000000000000000000000000000000000000   0000000000000000000000000A9        170192964704     
0010001300350U 020000000000000000000000000000000000000000000000000000000000000000000000000000000000000000000000000000000000000000000000000504201700000000            000000000000000                              000                           
0010001300351T 020180230000002544776 29647041624705067   7               07042017000000000008000001028029                         0900000000000010000000000000000000000000000000000000000   0000000000000000000000000A9        170192964704     
0010001300352U 020000000000000000000000000000000000000000000000000000000000000000000000000000000000000000000000000000000000000000000000000504201700000000            000000000000000                              000                           
0010001300353T 020180230000002544776 29647041624838254   7               07042017000000000006000001000132                         0900000000000010000000000000000000000000000000000000000   0000000000000000000000000A9        170192964704     
0010001300354U 020000000000000000000000000000000000000000000000000000000000000000000000000000000000000000000000000000000000000000000000000504201700000000            000000000000000                              000                           
0010001300355T 020180230000002544776 29647041624938785   7               07042017000000000008000001013692                         0900000000000010000000000000000000000000000000000000000   0000000000000000000000000A9        170192964704     
0010001300356U 020000000000000000000000000000000000000000000000000000000000000000000000000000000000000000000000000000000000000000000000000504201700000000            000000000000000                              000                           
0010001300357T 020180230000002544776 29647041625006647   7               0804201700000000000800000101981X                         0900000000000010000000000000000000000000000000000000000   0000000000000000000000000A9        170192964704     
0010001300358U 020000000000000000000000000000000000000000000000000000000000000000000000000000000000000000000000000000000000000000000000000604201700000000            000000000000000                              000                           
0010001300359T 020180230000002544776 29647041625006735   7               0804201700000000000800000101981X                         0900000000000010000000000000000000000000000000000000000   0000000000000000000000000A9        170192964704     
0010001300360U 020000000000000000000000000000000000000000000000000000000000000000000000000000000000000000000000000000000000000000000000000604201700000000            000000000000000                              000                           
0010001300361T 020180230000002544776 29647041625025582   7               0704201700000000000800000101981X                         0900000000000010000000000000000000000000000000000000000   0000000000000000000000000A9        170192964704     
0010001300362U 020000000000000000000000000000000000000000000000000000000000000000000000000000000000000000000000000000000000000000000000000504201700000000            000000000000000                              000                           
0010001300363T 020180230000002544776 29647041625026625   7               0704201700000000000800000101981X                         0900000000000010000000000000000000000000000000000000000   0000000000000000000000000A9        170192964704     
0010001300364U 020000000000000000000000000000000000000000000000000000000000000000000000000000000000000000000000000000000000000000000000000504201700000000            000000000000000                              000                           
0010001300365T 020180230000002544776 29647041625027299   7               0804201700000000000800000101981X                         0900000000000010000000000000000000000000000000000000000   0000000000000000000000000A9        170192964704     
0010001300366U 020000000000000000000000000000000000000000000000000000000000000000000000000000000000000000000000000000000000000000000000000604201700000000            000000000000000                              000                           
0010001300367T 020180230000002544776 29647041625030755   7               0804201700000000000800000101981X                         0900000000000010000000000000000000000000000000000000000   0000000000000000000000000A9        170192964704     
0010001300368U 020000000000000000000000000000000000000000000000000000000000000000000000000000000000000000000000000000000000000000000000000604201700000000            000000000000000                              000                           
0010001300369T 020180230000002544776 29647041625052257   7               0804201700000000000800000101981X                         0900000000000010000000000000000000000000000000000000000   0000000000000000000000000A9        170192964704     
0010001300370U 020000000000000000000000000000000000000000000000000000000000000000000000000000000000000000000000000000000000000000000000000604201700000000            000000000000000                              000                           
0010001300371T 020180230000002544776 29647041625052646   7               0804201700000000000800000101981X                         0900000000000010000000000000000000000000000000000000000   0000000000000000000000000A9        170192964704     
0010001300372U 020000000000000000000000000000000000000000000000000000000000000000000000000000000000000000000000000000000000000000000000000604201700000000            000000000000000                              000                           
0010001300373T 020180230000002544776 29647041625057300   7               0804201700000000000800000101981X                         0900000000000010000000000000000000000000000000000000000   0000000000000000000000000A9        170192964704     
0010001300374U 020000000000000000000000000000000000000000000000000000000000000000000000000000000000000000000000000000000000000000000000000604201700000000            000000000000000                              000                           
0010001300375T 020180230000002544776 29647041625149088   7               07042017000000000006000001012467                         0900000000000010000000000000000000000000000000000000000   0000000000000000000000000A9        170192964704     
0010001300376U 020000000000000000000000000000000000000000000000000000000000000000000000000000000000000000000000000000000000000000000000000504201700000000            000000000000000                              000                           
0010001300377T 020180230000002544776 29647041625402394   7               08042017000000000006000001002933                         0900000000000010000000000000000000000000000000000000000   0000000000000000000000000A9        170192964704     
0010001300378U 020000000000000000000000000000000000000000000000000000000000000000000000000000000000000000000000000000000000000000000000000604201700000000            000000000000000                              000                           
0010001300379T 020180230000002544776 29647041625403872   7               08042017000000000006000001002933                         0900000000000010000000000000000000000000000000000000000   0000000000000000000000000A9        170192964704     
0010001300380U 020000000000000000000000000000000000000000000000000000000000000000000000000000000000000000000000000000000000000000000000000604201700000000            000000000000000                              000                           
0010001300381T 020180230000002544776 29647041625514630   7               08042017000000000006000001005428                         0900000000000010000000000000000000000000000000000000000   0000000000000000000000000A9        170192964704     
0010001300382U 020000000000000000000000000000000000000000000000000000000000000000000000000000000000000000000000000000000000000000000000000604201700000000            000000000000000                              000                           
0010001300383T 020180230000002544776 29647041625542836   7               08042017000000000006000001005428                         0900000000000010000000000000000000000000000000000000000   0000000000000000000000000A9        170192964704     
0010001300384U 020000000000000000000000000000000000000000000000000000000000000000000000000000000000000000000000000000000000000000000000000604201700000000            000000000000000                              000                           
0010001300385T 020180230000002544776 29647041625649563   7               0804201700000000000600000101138X                         0900000000000010000000000000000000000000000000000000000   0000000000000000000000000A9        170192964704     
0010001300386U 020000000000000000000000000000000000000000000000000000000000000000000000000000000000000000000000000000000000000000000000000604201700000000            000000000000000                              000                           
0010001300387T 020180230000002544776 29647041625722977   7               08042017000000000006000001008214                         0900000000000010000000000000000000000000000000000000000   0000000000000000000000000A9        170192964704     
0010001300388U 020000000000000000000000000000000000000000000000000000000000000000000000000000000000000000000000000000000000000000000000000604201700000000            000000000000000                              000                           
0010001300389T 020180230000002544776 29647041625803645   7               08042017000000000006000001000132                         0900000000000010500000000000000000000000000000000000000   0000000000000000000000000A9A4      170192964704     
0010001300390U 020000000000000000000000000000000000000000000000000000000000000000000000000000000000000000000000000000000000000000000000000604201700000000            000000000000000                              000                           
0010001300391T 020180230000002544776 29647041625857719   7               08042017000000000006000001000132                         0900000000000010500000000000000000000000000000000000000   0000000000000000000000000A9A4      170192964704     
0010001300392U 020000000000000000000000000000000000000000000000000000000000000000000000000000000000000000000000000000000000000000000000000604201700000000            000000000000000                              000                           
0010001300393T 020180230000002544776 29647041625958134   7               08042017000000000006000001002615                         0900000000000010000000000000000000000000000000000000000   0000000000000000000000000A9        170192964704     
0010001300394U 020000000000000000000000000000000000000000000000000000000000000000000000000000000000000000000000000000000000000000000000000604201700000000            000000000000000                              000                           
0010001300395T 020180230000002544776 29647041626015309   7               08042017000000000006000001016179                         0900000000000010000000000000000000000000000000000000000   0000000000000000000000000A9        170192964704     
0010001300396U 020000000000000000000000000000000000000000000000000000000000000000000000000000000000000000000000000000000000000000000000000604201700000000            000000000000000                              000                           
0010001300397T 020180230000002544776 29647041626028273   7               08042017000000000006000001016179                         0900000000000010000000000000000000000000000000000000000   0000000000000000000000000A9        170192964704     
0010001300398U 020000000000000000000000000000000000000000000000000000000000000000000000000000000000000000000000000000000000000000000000000604201700000000            000000000000000                              000                           
0010001300399T 020180230000002544776 29647041626030562   7               08042017000000000006000001016179                         0900000000000010000000000000000000000000000000000000000   0000000000000000000000000A9        170192964704     
0010001300400U 020000000000000000000000000000000000000000000000000000000000000000000000000000000000000000000000000000000000000000000000000604201700000000            000000000000000                              000                           
0010001300401T 020180230000002544776 29647041626037953   7               08042017000000000006000001016179                         0900000000000010000000000000000000000000000000000000000   0000000000000000000000000A9        170192964704     
0010001300402U 020000000000000000000000000000000000000000000000000000000000000000000000000000000000000000000000000000000000000000000000000604201700000000            000000000000000                              000                           
0010001300403T 020180230000002544776 29647041626039066   7               08042017000000000006000001016179                         0900000000000010000000000000000000000000000000000000000   0000000000000000000000000A9        170192964704     
0010001300404U 020000000000000000000000000000000000000000000000000000000000000000000000000000000000000000000000000000000000000000000000000604201700000000            000000000000000                              000                           
0010001300405T 020180230000002544776 29647041626150016   7               08042017000000000006000001001597                         0900000000000010000000000000000000000000000000000000000   0000000000000000000000000A9        170192964704     
0010001300406U 020000000000000000000000000000000000000000000000000000000000000000000000000000000000000000000000000000000000000000000000000604201700000000            000000000000000                              000                           
0010001300407T 020180230000002544776 29647041626237353   7               08042017000000000006000001001597                         0900000000000010000000000000000000000000000000000000000   0000000000000000000000000A9        170192964704     
0010001300408U 020000000000000000000000000000000000000000000000000000000000000000000000000000000000000000000000000000000000000000000000000604201700000000            000000000000000                              000                           
0010001300409T 020180230000002544776 29647041626355748   7               08042017000000000006000001044865                         0900000000000010000000000000000000000000000000000000000   0000000000000000000000000A9        170192964704     
0010001300410U 020000000000000000000000000000000000000000000000000000000000000000000000000000000000000000000000000000000000000000000000000604201700000000            000000000000000                              000                           
0010001300411T 020180230000002544776 29647041626400055   7               08042017000000000006000001000361                         0900000000000010000000000000000000000000000000000000000   0000000000000000000000000A9        170192964704     
0010001300412U 020000000000000000000000000000000000000000000000000000000000000000000000000000000000000000000000000000000000000000000000000604201700000000            000000000000000                              000                           
