00100000         2247745860001000029647040014       0180230000002544776 INSTITUTO DE SELECAO E TECNOLOBANCO DO BRASIL                         20704201701282600009603000000515122941PROCESSAMEN                                                 
00100011T0100020 20247745860001000029647040014       0180230000002544776 INSTITUTO DE SELECAO E TECNOLO                                                                                000000000704201700000000  000000000                      
0010001300001T 020180230000002544776 29647040550651032   7               09042017000000000006000001033316                         0900000000000010000000000000000000000000000000000000000   0000000000000000000000000A9        170192964704     
0010001300002U 020000000000000000000000000000000000000000000000000000000000000000000000000000000000000000000000000000000000000000000000000704201700000000            000000000000000                              000                           
0010001300003T 020180230000002544776 29647040560851516   7               09042017000000000006000001033316                         0900000000000010000000000000000000000000000000000000000   0000000000000000000000000A9        170192964704     
0010001300004U 020000000000000000000000000000000000000000000000000000000000000000000000000000000000000000000000000000000000000000000000000704201700000000            000000000000000                              000                           
0010001300005T 020180230000002544776 29647040577353846   7               09042017000000000008000001000132                         0900000000000010000000000000000000000000000000000000000   0000000000000000000000000A9        170192964704     
0010001300006U 020000000000000000000000000000000000000000000000000000000000000000000000000000000000000000000000000000000000000000000000000704201700000000            000000000000000                              000                           
0010001300007T 020180230000002544776 29647040588555402   7               09042017000000000006000001000132                         0900000000000010000000000000000000000000000000000000000   0000000000000000000000000A9        170192964704     
0010001300008U 020000000000000000000000000000000000000000000000000000000000000000000000000000000000000000000000000000000000000000000000000704201700000000            000000000000000                              000                           
0010001300009T 020180230000002544776 29647040615238188   7               09042017000000000006000001000132                         0900000000000010000000000000000000000000000000000000000   0000000000000000000000000A9        170192964704     
0010001300010U 020000000000000000000000000000000000000000000000000000000000000000000000000000000000000000000000000000000000000000000000000704201700000000            000000000000000                              000                           
0010001300011T 020180230000002544776 29647040622259622   7               09042017000000000008000001000132                         0900000000000010000000000000000000000000000000000000000   0000000000000000000000000A9        170192964704     
0010001300012U 020000000000000000000000000000000000000000000000000000000000000000000000000000000000000000000000000000000000000000000000000704201700000000            000000000000000                              000                           
0010001300013T 020180230000002544776 29647040623128589   7               09042017000000000006000001016179                         0900000000000010000000000000000000000000000000000000000   0000000000000000000000000A9        170192964704     
0010001300014U 020000000000000000000000000000000000000000000000000000000000000000000000000000000000000000000000000000000000000000000000000704201700000000            000000000000000                              000                           
0010001300015T 020180230000002544776 29647040645911304   7               09042017000000000008000001000132                         0900000000000010000000000000000000000000000000000000000   0000000000000000000000000A9        170192964704     
0010001300016U 020000000000000000000000000000000000000000000000000000000000000000000000000000000000000000000000000000000000000000000000000704201700000000            000000000000000                              000                           
0010001300017T 020180230000002544776 29647040657320332   7               09042017000000000006000001016179                         0900000000000010000000000000000000000000000000000000000   0000000000000000000000000A9        170192964704     
0010001300018U 020000000000000000000000000000000000000000000000000000000000000000000000000000000000000000000000000000000000000000000000000704201700000000            000000000000000                              000                           
0010001300019T 020180230000002544776 29647040683149168   7               09042017000000000006000001012467                         0900000000000010000000000000000000000000000000000000000   0000000000000000000000000A9        170192964704     
0010001300020U 020000000000000000000000000000000000000000000000000000000000000000000000000000000000000000000000000000000000000000000000000704201700000000            000000000000000                              000                           
0010001300021T 020180230000002544776 29647040696838318   7               09042017000000000006000001016489                         0900000000000010000000000000000000000000000000000000000   0000000000000000000000000A9        170192964704     
0010001300022U 020000000000000000000000000000000000000000000000000000000000000000000000000000000000000000000000000000000000000000000000000704201700000000            000000000000000                              000                           
0010001300023T 020180230000002544776 29647040700537298   7               09042017000000000006000001012467                         0900000000000010500000000000000000000000000000000000000   0000000000000000000000000A9A4      170192964704     
0010001300024U 020000000000000000000000000000000000000000000000000000000000000000000000000000000000000000000000000000000000000000000000000704201700000000            000000000000000                              000                           
0010001300025T 020180230000002544776 29647040722321633   7               09042017000000000006000001016179                         0900000000000010000000000000000000000000000000000000000   0000000000000000000000000A9        170192964704     
0010001300026U 020000000000000000000000000000000000000000000000000000000000000000000000000000000000000000000000000000000000000000000000000704201700000000            000000000000000                              000                           
0010001300027T 020180230000002544776 29647040728919633   7               09042017000000000006000001008249                         0900000000000010000000000000000000000000000000000000000   0000000000000000000000000A9        170192964704     
0010001300028U 020000000000000000000000000000000000000000000000000000000000000000000000000000000000000000000000000000000000000000000000000704201700000000            000000000000000                              000                           
0010001300029T 020180230000002544776 29647040750040011   7               09042017000000000006000001028029                         0900000000000010000000000000000000000000000000000000000   0000000000000000000000000A9        170192964704     
0010001300030U 020000000000000000000000000000000000000000000000000000000000000000000000000000000000000000000000000000000000000000000000000704201700000000            000000000000000                              000                           
0010001300031T 020180230000002544776 29647040752430217   7               09042017000000000006000001028029                         0900000000000010000000000000000000000000000000000000000   0000000000000000000000000A9        170192964704     
0010001300032U 020000000000000000000000000000000000000000000000000000000000000000000000000000000000000000000000000000000000000000000000000704201700000000            000000000000000                              000                           
0010001300033T 020180230000002544776 29647040761952356   7               09042017000000000006000001012467                         0900000000000010000000000000000000000000000000000000000   0000000000000000000000000A9        170192964704     
0010001300034U 020000000000000000000000000000000000000000000000000000000000000000000000000000000000000000000000000000000000000000000000000704201700000000            000000000000000                              000                           
0010001300035T 020180230000002544776 29647040765001083   7               09042017000000000006000001000361                         0900000000000010500000000000000000000000000000000000000   0000000000000000000000000A9A4      170192964704     
0010001300036U 020000000000000000000000000000000000000000000000000000000000000000000000000000000000000000000000000000000000000000000000000704201700000000            000000000000000                              000                           
0010001300037T 020180230000002544776 29647040765020392   7               09042017000000000006000001000361                         0900000000000010500000000000000000000000000000000000000   0000000000000000000000000A9A4      170192964704     
0010001300038U 020000000000000000000000000000000000000000000000000000000000000000000000000000000000000000000000000000000000000000000000000704201700000000            000000000000000                              000                           
0010001300039T 020180230000002544776 29647040797210384   7               09042017000000000006000001035041                         0900000000000010000000000000000000000000000000000000000   0000000000000000000000000A9        170192964704     
0010001300040U 020000000000000000000000000000000000000000000000000000000000000000000000000000000000000000000000000000000000000000000000000704201700000000            000000000000000                              000                           
0010001300041T 020180230000002544776 29647040797246971   7               09042017000000000006000001035041                         0900000000000010000000000000000000000000000000000000000   0000000000000000000000000A9        170192964704     
0010001300042U 020000000000000000000000000000000000000000000000000000000000000000000000000000000000000000000000000000000000000000000000000704201700000000            000000000000000                              000                           
0010001300043T 020180230000002544776 29647040817950480   7               09042017000000000006000001016179                         0900000000000010000000000000000000000000000000000000000   0000000000000000000000000A9        170192964704     
0010001300044U 020000000000000000000000000000000000000000000000000000000000000000000000000000000000000000000000000000000000000000000000000704201700000000            000000000000000                              000                           
0010001300045T 020180230000002544776 29647040831024355   7               09042017000000000006000001018376                         0900000000000010000000000000000000000000000000000000000   0000000000000000000000000A9        170192964704     
0010001300046U 020000000000000000000000000000000000000000000000000000000000000000000000000000000000000000000000000000000000000000000000000704201700000000            000000000000000                              000                           
0010001300047T 020180230000002544776 29647040831030081   7               09042017000000000006000001018376                         0900000000000010000000000000000000000000000000000000000   0000000000000000000000000A9        170192964704     
0010001300048U 020000000000000000000000000000000000000000000000000000000000000000000000000000000000000000000000000000000000000000000000000704201700000000            000000000000000                              000                           
0010001300049T 020180230000002544776 29647040831051899   7               09042017000000000006000001018376                         0900000000000010000000000000000000000000000000000000000   0000000000000000000000000A9        170192964704     
0010001300050U 020000000000000000000000000000000000000000000000000000000000000000000000000000000000000000000000000000000000000000000000000704201700000000            000000000000000                              000                           
0010001300051T 020180230000002544776 29647040861134710   7               09042017000000000006000001020478                         0900000000000010500000000000000000000000000000000000000   0000000000000000000000000A9A4      170192964704     
0010001300052U 020000000000000000000000000000000000000000000000000000000000000000000000000000000000000000000000000000000000000000000000000704201700000000            000000000000000                              000                           
0010001300053T 020180230000002544776 29647040880631050   7               09042017000000000006000001008249                         0900000000000010000000000000000000000000000000000000000   0000000000000000000000000A9        170192964704     
0010001300054U 020000000000000000000000000000000000000000000000000000000000000000000000000000000000000000000000000000000000000000000000000704201700000000            000000000000000                              000                           
0010001300055T 020180230000002544776 29647040884322088   7               09042017000000000008000001012467                         0900000000000010000000000000000000000000000000000000000   0000000000000000000000000A9        170192964704     
0010001300056U 020000000000000000000000000000000000000000000000000000000000000000000000000000000000000000000000000000000000000000000000000704201700000000            000000000000000                              000                           
0010001300057T 020180230000002544776 29647040888715173   7               09042017000000000006000001028029                         0900000000000010000000000000000000000000000000000000000   0000000000000000000000000A9        170192964704     
0010001300058U 020000000000000000000000000000000000000000000000000000000000000000000000000000000000000000000000000000000000000000000000000704201700000000            000000000000000                              000                           
0010001300059T 020180230000002544776 29647040892944283   7               09042017000000000006000001000132                         0900000000000010000000000000000000000000000000000000000   0000000000000000000000000A9        170192964704     
0010001300060U 020000000000000000000000000000000000000000000000000000000000000000000000000000000000000000000000000000000000000000000000000704201700000000            000000000000000                              000                           
0010001300061T 020180230000002544776 29647040923124585   7               09042017000000000006000001000132                         0900000000000010000000000000000000000000000000000000000   0000000000000000000000000A9        170192964704     
0010001300062U 020000000000000000000000000000000000000000000000000000000000000000000000000000000000000000000000000000000000000000000000000704201700000000            000000000000000                              000                           
0010001300063T 020180230000002544776 29647040923140880   7               09042017000000000006000001000132                         0900000000000010000000000000000000000000000000000000000   0000000000000000000000000A9        170192964704     
0010001300064U 020000000000000000000000000000000000000000000000000000000000000000000000000000000000000000000000000000000000000000000000000704201700000000            000000000000000                              000                           
0010001300065T 020180230000002544776 29647040923153366   7               09042017000000000006000001000132                         0900000000000010000000000000000000000000000000000000000   0000000000000000000000000A9        170192964704     
0010001300066U 020000000000000000000000000000000000000000000000000000000000000000000000000000000000000000000000000000000000000000000000000704201700000000            000000000000000                              000                           
0010001300067T 020180230000002544776 29647040923155879   7               09042017000000000006000001000132                         0900000000000010000000000000000000000000000000000000000   0000000000000000000000000A9        170192964704     
0010001300068U 020000000000000000000000000000000000000000000000000000000000000000000000000000000000000000000000000000000000000000000000000704201700000000            000000000000000                              000                           
0010001300069T 020180230000002544776 29647040934752610   7               09042017000000000008000001018376                         0900000000000010000000000000000000000000000000000000000   0000000000000000000000000A9        170192964704     
0010001300070U 020000000000000000000000000000000000000000000000000000000000000000000000000000000000000000000000000000000000000000000000000704201700000000            000000000000000                              000                           
0010001300071T 020180230000002544776 29647040939203452   7               09042017000000000006000001010421                         0900000000000010000000000000000000000000000000000000000   0000000000000000000000000A9        170192964704     
0010001300072U 020000000000000000000000000000000000000000000000000000000000000000000000000000000000000000000000000000000000000000000000000704201700000000            000000000000000                              000                           
0010001300073T 020180230000002544776 29647040969545612   7               09042017000000000006000001028029                         0900000000000010000000000000000000000000000000000000000   0000000000000000000000000A9        170192964704     
0010001300074U 020000000000000000000000000000000000000000000000000000000000000000000000000000000000000000000000000000000000000000000000000704201700000000            000000000000000                              000                           
0010001300075T 020180230000002544776 29647040973104999   7               09042017000000000006000001018376                         0900000000000010500000000000000000000000000000000000000   0000000000000000000000000A9A4      170192964704     
0010001300076U 020000000000000000000000000000000000000000000000000000000000000000000000000000000000000000000000000000000000000000000000000704201700000000            000000000000000                              000                           
0010001300077T 020180230000002544776 29647040987056795   7               09042017000000000006000001023655                         0900000000000010000000000000000000000000000000000000000   0000000000000000000000000A9        170192964704     
0010001300078U 020000000000000000000000000000000000000000000000000000000000000000000000000000000000000000000000000000000000000000000000000704201700000000            000000000000000                              000                           
0010001300079T 020180230000002544776 29647040996542264   7               09042017000000000006000001033316                         0900000000000010500000000000000000000000000000000000000   0000000000000000000000000A9A4      170192964704     
0010001300080U 020000000000000000000000000000000000000000000000000000000000000000000000000000000000000000000000000000000000000000000000000704201700000000            000000000000000                              000                           
0010001300081T 020180230000002544776 29647040996556621   7               09042017000000000006000001033316                         0900000000000010500000000000000000000000000000000000000   0000000000000000000000000A9A4      170192964704     
0010001300082U 020000000000000000000000000000000000000000000000000000000000000000000000000000000000000000000000000000000000000000000000000704201700000000            000000000000000                              000                           
0010001300083T 020180230000002544776 29647041060618793   7               09042017000000000006000001016179                         0900000000000010000000000000000000000000000000000000000   0000000000000000000000000A9        170192964704     
0010001300084U 020000000000000000000000000000000000000000000000000000000000000000000000000000000000000000000000000000000000000000000000000704201700000000            000000000000000                              000                           
0010001300085T 020180230000002544776 29647041090940106   7               09042017000000000006000001023655                         0900000000000010000000000000000000000000000000000000000   0000000000000000000000000A9        170192964704     
0010001300086U 020000000000000000000000000000000000000000000000000000000000000000000000000000000000000000000000000000000000000000000000000704201700000000            000000000000000                              000                           
0010001300087T 020180230000002544776 29647041095807915   7               09042017000000000006000001028029                         0900000000000010500000000000000000000000000000000000000   0000000000000000000000000A9A4      170192964704     
0010001300088U 020000000000000000000000000000000000000000000000000000000000000000000000000000000000000000000000000000000000000000000000000704201700000000            000000000000000                              000                           
0010001300089T 020180230000002544776 29647041104303729   7               09042017000000000008000001000132                         0900000000000010000000000000000000000000000000000000000   0000000000000000000000000A9        170192964704     
0010001300090U 020000000000000000000000000000000000000000000000000000000000000000000000000000000000000000000000000000000000000000000000000704201700000000            000000000000000                              000                           
0010001300091T 020180230000002544776 29647041104315321   7               09042017000000000008000001000132                         0900000000000010000000000000000000000000000000000000000   0000000000000000000000000A9        170192964704     
0010001300092U 020000000000000000000000000000000000000000000000000000000000000000000000000000000000000000000000000000000000000000000000000704201700000000            000000000000000                              000                           
0010001300093T 020180230000002544776 29647041104325075   7               09042017000000000008000001000132                         0900000000000010000000000000000000000000000000000000000   0000000000000000000000000A9        170192964704     
0010001300094U 020000000000000000000000000000000000000000000000000000000000000000000000000000000000000000000000000000000000000000000000000704201700000000            000000000000000                              000                           
0010001300095T 020180230000002544776 29647041104336430   7               09042017000000000008000001000132                         0900000000000010000000000000000000000000000000000000000   0000000000000000000000000A9        170192964704     
0010001300096U 020000000000000000000000000000000000000000000000000000000000000000000000000000000000000000000000000000000000000000000000000704201700000000            000000000000000                              000                           
0010001300097T 020180230000002544776 29647041104338942   7               09042017000000000008000001000132                         0900000000000010000000000000000000000000000000000000000   0000000000000000000000000A9        170192964704     
0010001300098U 020000000000000000000000000000000000000000000000000000000000000000000000000000000000000000000000000000000000000000000000000704201700000000            000000000000000                              000                           
0010001300099T 020180230000002544776 29647041105750971   7               09042017000000000006000001012467                         0900000000000010000000000000000000000000000000000000000   0000000000000000000000000A9        170192964704     
0010001300100U 020000000000000000000000000000000000000000000000000000000000000000000000000000000000000000000000000000000000000000000000000704201700000000            000000000000000                              000                           
0010001300101T 020180230000002544776 29647041106718748   7               09042017000000000006000001028029                         0900000000000010000000000000000000000000000000000000000   0000000000000000000000000A9        170192964704     
0010001300102U 020000000000000000000000000000000000000000000000000000000000000000000000000000000000000000000000000000000000000000000000000704201700000000            000000000000000                              000                           
0010001300103T 020180230000002544776 29647041106745349   7               09042017000000000006000001028029                         0900000000000010000000000000000000000000000000000000000   0000000000000000000000000A9        170192964704     
0010001300104U 020000000000000000000000000000000000000000000000000000000000000000000000000000000000000000000000000000000000000000000000000704201700000000            000000000000000                              000                           
0010001300105T 020180230000002544776 29647041107424045   7               09042017000000000006000001020354                         0900000000000010500000000000000000000000000000000000000   0000000000000000000000000A9A4      170192964704     
0010001300106U 020000000000000000000000000000000000000000000000000000000000000000000000000000000000000000000000000000000000000000000000000704201700000000            000000000000000                              000                           
0010001300107T 020180230000002544776 29647041111025989   7               0904201700000000000600000101110X                         0900000000000010000000000000000000000000000000000000000   0000000000000000000000000A9        170192964704     
0010001300108U 020000000000000000000000000000000000000000000000000000000000000000000000000000000000000000000000000000000000000000000000000704201700000000            000000000000000                              000                           
0010001300109T 020180230000002544776 29647041111048087   7               0904201700000000000600000101110X                         0900000000000010000000000000000000000000000000000000000   0000000000000000000000000A9        170192964704     
0010001300110U 020000000000000000000000000000000000000000000000000000000000000000000000000000000000000000000000000000000000000000000000000704201700000000            000000000000000                              000                           
0010001300111T 020180230000002544776 29647041120935926   7               09042017000000000006000001023655                         0900000000000010000000000000000000000000000000000000000   0000000000000000000000000A9        170192964704     
0010001300112U 020000000000000000000000000000000000000000000000000000000000000000000000000000000000000000000000000000000000000000000000000704201700000000            000000000000000                              000                           
0010001300113T 020180230000002544776 29647041147740025   7               09042017000000000006000001028029                         0900000000000010000000000000000000000000000000000000000   0000000000000000000000000A9        170192964704     
0010001300114U 020000000000000000000000000000000000000000000000000000000000000000000000000000000000000000000000000000000000000000000000000704201700000000            000000000000000                              000                           
0010001300115T 020180230000002544776 29647041155145768   7               09042017000000000006000001000132                         0900000000000010000000000000000000000000000000000000000   0000000000000000000000000A9        170192964704     
0010001300116U 020000000000000000000000000000000000000000000000000000000000000000000000000000000000000000000000000000000000000000000000000704201700000000            000000000000000                              000                           
0010001300117T 020180230000002544776 29647041159322799   7               08042017000000000006000001001511                         0900000000000010000000000000000000000000000000000000000   0000000000000000000000000A9        170192964704     
0010001300118U 020000000000000000000000000000000000000000000000000000000000000000000000000000000000000000000000000000000000000000000000000604201700000000            000000000000000                              000                           
0010001300119T 020180230000002544776 29647041226744447   7               09042017000000000006000001016179                         0900000000000010000000000000000000000000000000000000000   0000000000000000000000000A9        170192964704     
0010001300120U 020000000000000000000000000000000000000000000000000000000000000000000000000000000000000000000000000000000000000000000000000704201700000000            000000000000000                              000                           
0010001300121T 020180230000002544776 29647041235909937   7               09042017000000000006000001033316                         0900000000000010000000000000000000000000000000000000000   0000000000000000000000000A9        170192964704     
0010001300122U 020000000000000000000000000000000000000000000000000000000000000000000000000000000000000000000000000000000000000000000000000704201700000000            000000000000000                              000                           
0010001300123T 020180230000002544776 29647041252601600   7               09042017000000000008000001038024                         0900000000000010000000000000000000000000000000000000000   0000000000000000000000000A9        170192964704     
0010001300124U 020000000000000000000000000000000000000000000000000000000000000000000000000000000000000000000000000000000000000000000000000704201700000000            000000000000000                              000                           
0010001300125T 020180230000002544776 29647041252602153   7               09042017000000000008000001038024                         0900000000000010000000000000000000000000000000000000000   0000000000000000000000000A9        170192964704     
0010001300126U 020000000000000000000000000000000000000000000000000000000000000000000000000000000000000000000000000000000000000000000000000704201700000000            000000000000000                              000                           
0010001300127T 020180230000002544776 29647041274941926   7               09042017000000000006000001028029                         0900000000000010000000000000000000000000000000000000000   0000000000000000000000000A9        170192964704     
0010001300128U 020000000000000000000000000000000000000000000000000000000000000000000000000000000000000000000000000000000000000000000000000704201700000000            000000000000000                              000                           
0010001300129T 020180230000002544776 29647041287924198   7               09042017000000000006000001004332                         0900000000000010000000000000000000000000000000000000000   0000000000000000000000000A9        170192964704     
0010001300130U 020000000000000000000000000000000000000000000000000000000000000000000000000000000000000000000000000000000000000000000000000704201700000000            000000000000000                              000                           
0010001300131T 020180230000002544776 29647041287941659   7               09042017000000000006000001004332                         0900000000000010000000000000000000000000000000000000000   0000000000000000000000000A9        170192964704     
0010001300132U 020000000000000000000000000000000000000000000000000000000000000000000000000000000000000000000000000000000000000000000000000704201700000000            000000000000000                              000                           
0010001300133T 020180230000002544776 29647041290627404   7               09042017000000000008000001006734                         0900000000000010000000000000000000000000000000000000000   0000000000000000000000000A9        170192964704     
0010001300134U 020000000000000000000000000000000000000000000000000000000000000000000000000000000000000000000000000000000000000000000000000704201700000000            000000000000000                              000                           
0010001300135T 020180230000002544776 29647041290628101   7               09042017000000000008000001006734                         0900000000000010000000000000000000000000000000000000000   0000000000000000000000000A9        170192964704     
0010001300136U 020000000000000000000000000000000000000000000000000000000000000000000000000000000000000000000000000000000000000000000000000704201700000000            000000000000000                              000                           
0010001300137T 020180230000002544776 29647041290655766   7               09042017000000000008000001006734                         0900000000000010000000000000000000000000000000000000000   0000000000000000000000000A9        170192964704     
0010001300138U 020000000000000000000000000000000000000000000000000000000000000000000000000000000000000000000000000000000000000000000000000704201700000000            000000000000000                              000                           
0010001300139T 020180230000002544776 29647041290655944   7               09042017000000000008000001006734                         0900000000000010000000000000000000000000000000000000000   0000000000000000000000000A9        170192964704     
0010001300140U 020000000000000000000000000000000000000000000000000000000000000000000000000000000000000000000000000000000000000000000000000704201700000000            000000000000000                              000                           
0010001300141T 020180230000002544776 29647041291306850   7               09042017000000000006000001016179                         0900000000000010000000000000000000000000000000000000000   0000000000000000000000000A9        170192964704     
0010001300142U 020000000000000000000000000000000000000000000000000000000000000000000000000000000000000000000000000000000000000000000000000704201700000000            000000000000000                              000                           
0010001300143T 020180230000002544776 29647041297719654   7               09042017000000000006000001016179                         0900000000000010000000000000000000000000000000000000000   0000000000000000000000000A9        170192964704     
0010001300144U 020000000000000000000000000000000000000000000000000000000000000000000000000000000000000000000000000000000000000000000000000704201700000000            000000000000000                              000                           
0010001300145T 020180230000002544776 29647041297751228   7               09042017000000000006000001016179                         0900000000000010000000000000000000000000000000000000000   0000000000000000000000000A9        170192964704     
0010001300146U 020000000000000000000000000000000000000000000000000000000000000000000000000000000000000000000000000000000000000000000000000704201700000000            000000000000000                              000                           
0010001300147T 020180230000002544776 29647041298533860   7               09042017000000000006000001028029                         0900000000000010000000000000000000000000000000000000000   0000000000000000000000000A9        170192964704     
0010001300148U 020000000000000000000000000000000000000000000000000000000000000000000000000000000000000000000000000000000000000000000000000704201700000000            000000000000000                              000                           
0010001300149T 020180230000002544776 29647041300941573   7               0904201700000000000600000102256X                         0900000000000010000000000000000000000000000000000000000   0000000000000000000000000A9        170192964704     
0010001300150U 020000000000000000000000000000000000000000000000000000000000000000000000000000000000000000000000000000000000000000000000000704201700000000            000000000000000                              000                           
0010001300151T 020180230000002544776 29647041313257741   7               09042017000000000006000001000132                         0900000000000010000000000000000000000000000000000000000   0000000000000000000000000A9        170192964704     
0010001300152U 020000000000000000000000000000000000000000000000000000000000000000000000000000000000000000000000000000000000000000000000000704201700000000            000000000000000                              000                           
0010001300153T 020180230000002544776 29647041313533530   7               09042017000000000006000001016179                         0900000000000010000000000000000000000000000000000000000   0000000000000000000000000A9        170192964704     
0010001300154U 020000000000000000000000000000000000000000000000000000000000000000000000000000000000000000000000000000000000000000000000000704201700000000            000000000000000                              000                           
0010001300155T 020180230000002544776 29647041314747558   7               09042017000000000006000001012688                         0900000000000010000000000000000000000000000000000000000   0000000000000000000000000A9        170192964704     
0010001300156U 020000000000000000000000000000000000000000000000000000000000000000000000000000000000000000000000000000000000000000000000000704201700000000            000000000000000                              000                           
0010001300157T 020180230000002544776 29647041315518821   7               08042017000000000008000001000132                         0900000000000010000000000000000000000000000000000000000   0000000000000000000000000A9        170192964704     
0010001300158U 020000000000000000000000000000000000000000000000000000000000000000000000000000000000000000000000000000000000000000000000000604201700000000            000000000000000                              000                           
0010001300159T 020180230000002544776 29647041319534841   7               09042017000000000006000001001201                         0900000000000010500000000000000000000000000000000000000   0000000000000000000000000A9A4      170192964704     
0010001300160U 020000000000000000000000000000000000000000000000000000000000000000000000000000000000000000000000000000000000000000000000000704201700000000            000000000000000                              000                           
0010001300161T 020180230000002544776 29647041335408512   7               09042017000000000006000001012467                         0900000000000010000000000000000000000000000000000000000   0000000000000000000000000A9        170192964704     
0010001300162U 020000000000000000000000000000000000000000000000000000000000000000000000000000000000000000000000000000000000000000000000000704201700000000            000000000000000                              000                           
0010001300163T 020180230000002544776 29647041336933125   7               09042017000000000006000001017108                         0900000000000010000000000000000000000000000000000000000   0000000000000000000000000A9        170192964704     
0010001300164U 020000000000000000000000000000000000000000000000000000000000000000000000000000000000000000000000000000000000000000000000000704201700000000            000000000000000                              000                           
0010001300165T 020180230000002544776 29647041338117118   7               09042017000000000008000001012467                         0900000000000010000000000000000000000000000000000000000   0000000000000000000000000A9        170192964704     
0010001300166U 020000000000000000000000000000000000000000000000000000000000000000000000000000000000000000000000000000000000000000000000000704201700000000            000000000000000                              000                           
0010001300167T 020180230000002544776 29647041346715077   7               09042017000000000006000001016179                         0900000000000010000000000000000000000000000000000000000   0000000000000000000000000A9        170192964704     
0010001300168U 020000000000000000000000000000000000000000000000000000000000000000000000000000000000000000000000000000000000000000000000000704201700000000            000000000000000                              000                           
0010001300169T 020180230000002544776 29647041362117248   7               09042017000000000006000001002933                         0900000000000010000000000000000000000000000000000000000   0000000000000000000000000A9        170192964704     
0010001300170U 020000000000000000000000000000000000000000000000000000000000000000000000000000000000000000000000000000000000000000000000000704201700000000            000000000000000                              000                           
0010001300171T 020180230000002544776 29647041364309597   7               09042017000000000006000001033316                         0900000000000010000000000000000000000000000000000000000   0000000000000000000000000A9        170192964704     
0010001300172U 020000000000000000000000000000000000000000000000000000000000000000000000000000000000000000000000000000000000000000000000000704201700000000            000000000000000                              000                           
0010001300173T 020180230000002544776 29647041367006824   7               09042017000000000006000001028029                         0900000000000010000000000000000000000000000000000000000   0000000000000000000000000A9        170192964704     
0010001300174U 020000000000000000000000000000000000000000000000000000000000000000000000000000000000000000000000000000000000000000000000000704201700000000            000000000000000                              000                           
0010001300175T 020180230000002544776 29647041367048349   7               09042017000000000006000001028029                         0900000000000010000000000000000000000000000000000000000   0000000000000000000000000A9        170192964704     
0010001300176U 020000000000000000000000000000000000000000000000000000000000000000000000000000000000000000000000000000000000000000000000000704201700000000            000000000000000                              000                           
0010001300177T 020180230000002544776 29647041383923816   7               09042017000000000006000001000132                         0900000000000010000000000000000000000000000000000000000   0000000000000000000000000A9        170192964704     
0010001300178U 020000000000000000000000000000000000000000000000000000000000000000000000000000000000000000000000000000000000000000000000000704201700000000            000000000000000                              000                           
0010001300179T 020180230000002544776 29647041389923526   7               09042017000000000006000001016179                         0900000000000010000000000000000000000000000000000000000   0000000000000000000000000A9        170192964704     
0010001300180U 020000000000000000000000000000000000000000000000000000000000000000000000000000000000000000000000000000000000000000000000000704201700000000            000000000000000                              000                           
0010001300181T 020180230000002544776 29647041397705879   7               09042017000000000006000001012467                         0900000000000010000000000000000000000000000000000000000   0000000000000000000000000A9        170192964704     
0010001300182U 020000000000000000000000000000000000000000000000000000000000000000000000000000000000000000000000000000000000000000000000000704201700000000            000000000000000                              000                           
0010001300183T 020180230000002544776 29647041407359795   7               09042017000000000006000001028029                         0900000000000010000000000000000000000000000000000000000   0000000000000000000000000A9        170192964704     
0010001300184U 020000000000000000000000000000000000000000000000000000000000000000000000000000000000000000000000000000000000000000000000000704201700000000            000000000000000                              000                           
0010001300185T 020180230000002544776 29647041411010143   7               09042017000000000008000001010421                         0900000000000010000000000000000000000000000000000000000   0000000000000000000000000A9        170192964704     
0010001300186U 020000000000000000000000000000000000000000000000000000000000000000000000000000000000000000000000000000000000000000000000000704201700000000            000000000000000                              000                           
0010001300187T 020180230000002544776 29647041411010321   7               09042017000000000008000001010421                         0900000000000010000000000000000000000000000000000000000   0000000000000000000000000A9        170192964704     
0010001300188U 020000000000000000000000000000000000000000000000000000000000000000000000000000000000000000000000000000000000000000000000000704201700000000            000000000000000                              000                           
0010001300189T 020180230000002544776 29647041419915085   7               09042017000000000006000001012467                         0900000000000010500000000000000000000000000000000000000   0000000000000000000000000A9A4      170192964704     
0010001300190U 020000000000000000000000000000000000000000000000000000000000000000000000000000000000000000000000000000000000000000000000000704201700000000            000000000000000                              000                           
0010001300191T 020180230000002544776 29647041425816608   7               09042017000000000006000001012467                         0900000000000010000000000000000000000000000000000000000   0000000000000000000000000A9        170192964704     
0010001300192U 020000000000000000000000000000000000000000000000000000000000000000000000000000000000000000000000000000000000000000000000000704201700000000            000000000000000                              000                           
0010001300193T 020180230000002544776 29647041425859582   7               08042017000000000006000001012467                         0900000000000010000000000000000000000000000000000000000   0000000000000000000000000A9        170192964704     
0010001300194U 020000000000000000000000000000000000000000000000000000000000000000000000000000000000000000000000000000000000000000000000000604201700000000            000000000000000                              000                           
0010001300195T 020180230000002544776 29647041438414120   7               09042017000000000006000001016179                         0900000000000010000000000000000000000000000000000000000   0000000000000000000000000A9        170192964704     
0010001300196U 020000000000000000000000000000000000000000000000000000000000000000000000000000000000000000000000000000000000000000000000000704201700000000            000000000000000                              000                           
0010001300197T 020180230000002544776 29647041440534995   7               09042017000000000006000001020354                         0900000000000010000000000000000000000000000000000000000   0000000000000000000000000A9        170192964704     
0010001300198U 020000000000000000000000000000000000000000000000000000000000000000000000000000000000000000000000000000000000000000000000000704201700000000            000000000000000                              000                           
0010001300199T 020180230000002544776 29647041450105243   7               09042017000000000006000001012467                         0900000000000010000000000000000000000000000000000000000   0000000000000000000000000A9        170192964704     
0010001300200U 020000000000000000000000000000000000000000000000000000000000000000000000000000000000000000000000000000000000000000000000000704201700000000            000000000000000                              000                           
0010001300201T 020180230000002544776 29647041453012090   7               09042017000000000006000001006734                         0900000000000010000000000000000000000000000000000000000   0000000000000000000000000A9        170192964704     
0010001300202U 020000000000000000000000000000000000000000000000000000000000000000000000000000000000000000000000000000000000000000000000000704201700000000            000000000000000                              000                           
0010001300203T 020180230000002544776 29647041457045914   7               09042017000000000006000001028029                         0900000000000010000000000000000000000000000000000000000   0000000000000000000000000A9        170192964704     
0010001300204U 020000000000000000000000000000000000000000000000000000000000000000000000000000000000000000000000000000000000000000000000000704201700000000            000000000000000                              000                           
0010001300205T 020180230000002544776 29647041457058517   7               09042017000000000006000001028029                         0900000000000010000000000000000000000000000000000000000   0000000000000000000000000A9        170192964704     
0010001300206U 020000000000000000000000000000000000000000000000000000000000000000000000000000000000000000000000000000000000000000000000000704201700000000            000000000000000                              000                           
0010001300207T 020180230000002544776 29647041458920955   7               09042017000000000006000001001201                         0900000000000010000000000000000000000000000000000000000   0000000000000000000000000A9        170192964704     
0010001300208U 020000000000000000000000000000000000000000000000000000000000000000000000000000000000000000000000000000000000000000000000000704201700000000            000000000000000                              000                           
0010001300209T 020180230000002544776 29647041458924878   7               09042017000000000006000001001201                         0900000000000010000000000000000000000000000000000000000   0000000000000000000000000A9        170192964704     
0010001300210U 020000000000000000000000000000000000000000000000000000000000000000000000000000000000000000000000000000000000000000000000000704201700000000            000000000000000                              000                           
0010001300211T 020180230000002544776 29647041459451567   7               09042017000000000006000001016179                         0900000000000010000000000000000000000000000000000000000   0000000000000000000000000A9        170192964704     
0010001300212U 020000000000000000000000000000000000000000000000000000000000000000000000000000000000000000000000000000000000000000000000000704201700000000            000000000000000                              000                           
0010001300213T 020180230000002544776 29647041460820648   7               09042017000000000006000001028029                         0900000000000010000000000000000000000000000000000000000   0000000000000000000000000A9        170192964704     
0010001300214U 020000000000000000000000000000000000000000000000000000000000000000000000000000000000000000000000000000000000000000000000000704201700000000            000000000000000                              000                           
0010001300215T 020180230000002544776 29647041461905227   7               09042017000000000006000001016489                         0900000000000010000000000000000000000000000000000000000   0000000000000000000000000A9        170192964704     
0010001300216U 020000000000000000000000000000000000000000000000000000000000000000000000000000000000000000000000000000000000000000000000000704201700000000            000000000000000                              000                           
0010001300217T 020180230000002544776 29647041463139424   7               09042017000000000008000001028029                         0900000000000010000000000000000000000000000000000000000   0000000000000000000000000A9        170192964704     
0010001300218U 020000000000000000000000000000000000000000000000000000000000000000000000000000000000000000000000000000000000000000000000000704201700000000            000000000000000                              000                           
0010001300219T 020180230000002544776 29647041472342849   7               09042017000000000006000001012467                         0900000000000010000000000000000000000000000000000000000   0000000000000000000000000A9        170192964704     
0010001300220U 020000000000000000000000000000000000000000000000000000000000000000000000000000000000000000000000000000000000000000000000000704201700000000            000000000000000                              000                           
0010001300221T 020180230000002544776 29647041472633245   7               09042017000000000006000001012467                         0900000000000010000000000000000000000000000000000000000   0000000000000000000000000A9        170192964704     
0010001300222U 020000000000000000000000000000000000000000000000000000000000000000000000000000000000000000000000000000000000000000000000000704201700000000            000000000000000                              000                           
0010001300223T 020180230000002544776 29647041475258657   7               09042017000000000006000001016179                         0900000000000010000000000000000000000000000000000000000   0000000000000000000000000A9        170192964704     
0010001300224U 020000000000000000000000000000000000000000000000000000000000000000000000000000000000000000000000000000000000000000000000000704201700000000            000000000000000                              000                           
0010001300225T 020180230000002544776 29647041478342608   7               09042017000000000006000001000132                         0900000000000010500000000000000000000000000000000000000   0000000000000000000000000A9A4      170192964704     
0010001300226U 020000000000000000000000000000000000000000000000000000000000000000000000000000000000000000000000000000000000000000000000000704201700000000            000000000000000                              000                           
0010001300227T 020180230000002544776 29647041479201428   7               09042017000000000006000001001597                         0900000000000010000000000000000000000000000000000000000   0000000000000000000000000A9        170192964704     
0010001300228U 020000000000000000000000000000000000000000000000000000000000000000000000000000000000000000000000000000000000000000000000000704201700000000            000000000000000                              000                           
0010001300229T 020180230000002544776 29647041495700183   7               09042017000000000006000001008672                         0900000000000010000000000000000000000000000000000000000   0000000000000000000000000A9        170192964704     
0010001300230U 020000000000000000000000000000000000000000000000000000000000000000000000000000000000000000000000000000000000000000000000000704201700000000            000000000000000                              000                           
0010001300231T 020180230000002544776 29647041495707940   7               09042017000000000006000001008672                         0900000000000010000000000000000000000000000000000000000   0000000000000000000000000A9        170192964704     
0010001300232U 020000000000000000000000000000000000000000000000000000000000000000000000000000000000000000000000000000000000000000000000000704201700000000            000000000000000                              000                           
0010001300233T 020180230000002544776 29647041495720829   7               09042017000000000006000001008672                         0900000000000010000000000000000000000000000000000000000   0000000000000000000000000A9        170192964704     
0010001300234U 020000000000000000000000000000000000000000000000000000000000000000000000000000000000000000000000000000000000000000000000000704201700000000            000000000000000                              000                           
0010001300235T 020180230000002544776 29647041506313813   7               09042017000000000006000001028029                         0900000000000010500000000000000000000000000000000000000   0000000000000000000000000A9A4      170192964704     
0010001300236U 020000000000000000000000000000000000000000000000000000000000000000000000000000000000000000000000000000000000000000000000000704201700000000            000000000000000                              000                           
0010001300237T 020180230000002544776 29647041506340129   7               09042017000000000006000001028029                         0900000000000010500000000000000000000000000000000000000   0000000000000000000000000A9A4      170192964704     
0010001300238U 020000000000000000000000000000000000000000000000000000000000000000000000000000000000000000000000000000000000000000000000000704201700000000            000000000000000                              000                           
0010001300239T 020180230000002544776 29647041519532133   7               09042017000000000006000001018376                         0900000000000010000000000000000000000000000000000000000   0000000000000000000000000A9        170192964704     
0010001300240U 020000000000000000000000000000000000000000000000000000000000000000000000000000000000000000000000000000000000000000000000000704201700000000            000000000000000                              000                           
0010001300241T 020180230000002544776 29647041520137183   7               09042017000000000006000001025429                         0900000000000010000000000000000000000000000000000000000   0000000000000000000000000A9        170192964704     
0010001300242U 020000000000000000000000000000000000000000000000000000000000000000000000000000000000000000000000000000000000000000000000000704201700000000            000000000000000                              000                           
0010001300243T 020180230000002544776 29647041529728468   7               09042017000000000006000001028029                         0900000000000010000000000000000000000000000000000000000   0000000000000000000000000A9        170192964704     
0010001300244U 020000000000000000000000000000000000000000000000000000000000000000000000000000000000000000000000000000000000000000000000000704201700000000            000000000000000                              000                           
0010001300245T 020180230000002544776 29647041534327583   7               09042017000000000006000001005428                         0900000000000010000000000000000000000000000000000000000   0000000000000000000000000A9        170192964704     
0010001300246U 020000000000000000000000000000000000000000000000000000000000000000000000000000000000000000000000000000000000000000000000000704201700000000            000000000000000                              000                           
0010001300247T 020180230000002544776 29647041536047933   7               09042017000000000006000001016179                         0900000000000010000000000000000000000000000000000000000   0000000000000000000000000A9        170192964704     
0010001300248U 020000000000000000000000000000000000000000000000000000000000000000000000000000000000000000000000000000000000000000000000000704201700000000            000000000000000                              000                           
0010001300249T 020180230000002544776 29647041538614843   7               09042017000000000006000001018376                         0900000000000010000000000000000000000000000000000000000   0000000000000000000000000A9        170192964704     
0010001300250U 020000000000000000000000000000000000000000000000000000000000000000000000000000000000000000000000000000000000000000000000000704201700000000            000000000000000                              000                           
0010001300251T 020180230000002544776 29647041540646588   7               09042017000000000006000001018376                         0900000000000010000000000000000000000000000000000000000   0000000000000000000000000A9        170192964704     
0010001300252U 020000000000000000000000000000000000000000000000000000000000000000000000000000000000000000000000000000000000000000000000000704201700000000            000000000000000                              000                           
0010001300253T 020180230000002544776 29647041540659745   7               09042017000000000006000001018376                         0900000000000010000000000000000000000000000000000000000   0000000000000000000000000A9        170192964704     
0010001300254U 020000000000000000000000000000000000000000000000000000000000000000000000000000000000000000000000000000000000000000000000000704201700000000            000000000000000                              000                           
0010001300255T 020180230000002544776 29647041548004209   7               09042017000000000006000001020354                         0900000000000010000000000000000000000000000000000000000   0000000000000000000000000A9        170192964704     
0010001300256U 020000000000000000000000000000000000000000000000000000000000000000000000000000000000000000000000000000000000000000000000000704201700000000            000000000000000                              000                           
0010001300257T 020180230000002544776 29647041550410669   7               09042017000000000006000001016179                         0900000000000010000000000000000000000000000000000000000   0000000000000000000000000A9        170192964704     
0010001300258U 020000000000000000000000000000000000000000000000000000000000000000000000000000000000000000000000000000000000000000000000000704201700000000            000000000000000                              000                           
0010001300259T 020180230000002544776 29647041550439454   7               09042017000000000006000001016179                         0900000000000010000000000000000000000000000000000000000   0000000000000000000000000A9        170192964704     
0010001300260U 020000000000000000000000000000000000000000000000000000000000000000000000000000000000000000000000000000000000000000000000000704201700000000            000000000000000                              000                           
0010001300261T 020180230000002544776 29647041550447313   7               09042017000000000006000001016179                         0900000000000010000000000000000000000000000000000000000   0000000000000000000000000A9        170192964704     
0010001300262U 020000000000000000000000000000000000000000000000000000000000000000000000000000000000000000000000000000000000000000000000000704201700000000            000000000000000                              000                           
0010001300263T 020180230000002544776 29647041551214888   7               09042017000000000008000001028029                         0900000000000010000000000000000000000000000000000000000   0000000000000000000000000A9        170192964704     
0010001300264U 020000000000000000000000000000000000000000000000000000000000000000000000000000000000000000000000000000000000000000000000000704201700000000            000000000000000                              000                           
0010001300265T 020180230000002544776 29647041553604085   7               09042017000000000008000001000132                         0900000000000010000000000000000000000000000000000000000   0000000000000000000000000A9        170192964704     
0010001300266U 020000000000000000000000000000000000000000000000000000000000000000000000000000000000000000000000000000000000000000000000000704201700000000            000000000000000                              000                           
0010001300267T 020180230000002544776 29647041553751386   7               09042017000000000006000001028029                         0900000000000010000000000000000000000000000000000000000   0000000000000000000000000A9        170192964704     
0010001300268U 020000000000000000000000000000000000000000000000000000000000000000000000000000000000000000000000000000000000000000000000000704201700000000            000000000000000                              000                           
0010001300269T 020180230000002544776 29647041553754665   7               09042017000000000006000001028029                         0900000000000010000000000000000000000000000000000000000   0000000000000000000000000A9        170192964704     
0010001300270U 020000000000000000000000000000000000000000000000000000000000000000000000000000000000000000000000000000000000000000000000000704201700000000            000000000000000                              000                           
0010001300271T 020180230000002544776 29647041554847584   7               09042017000000000006000001028029                         0900000000000010000000000000000000000000000000000000000   0000000000000000000000000A9        170192964704     
0010001300272U 020000000000000000000000000000000000000000000000000000000000000000000000000000000000000000000000000000000000000000000000000704201700000000            000000000000000                              000                           
0010001300273T 020180230000002544776 29647041556631208   7               09042017000000000006000001028029                         0900000000000010000000000000000000000000000000000000000   0000000000000000000000000A9        170192964704     
0010001300274U 020000000000000000000000000000000000000000000000000000000000000000000000000000000000000000000000000000000000000000000000000704201700000000            000000000000000                              000                           
0010001300275T 020180230000002544776 29647041556637421   7               09042017000000000006000001028029                         0900000000000010000000000000000000000000000000000000000   0000000000000000000000000A9        170192964704     
0010001300276U 020000000000000000000000000000000000000000000000000000000000000000000000000000000000000000000000000000000000000000000000000704201700000000            000000000000000                              000                           
0010001300277T 020180230000002544776 29647041566123123   7               09042017000000000006000001028029                         0900000000000010500000000000000000000000000000000000000   0000000000000000000000000A9A4      170192964704     
0010001300278U 020000000000000000000000000000000000000000000000000000000000000000000000000000000000000000000000000000000000000000000000000704201700000000            000000000000000                              000                           
0010001300279T 020180230000002544776 29647041571212172   7               09042017000000000006000001016179                         0900000000000010000000000000000000000000000000000000000   0000000000000000000000000A9        170192964704     
0010001300280U 020000000000000000000000000000000000000000000000000000000000000000000000000000000000000000000000000000000000000000000000000704201700000000            000000000000000                              000                           
0010001300281T 020180230000002544776 29647041571937194   7               09042017000000000006000001000132                         0900000000000010000000000000000000000000000000000000000   0000000000000000000000000A9        170192964704     
0010001300282U 020000000000000000000000000000000000000000000000000000000000000000000000000000000000000000000000000000000000000000000000000704201700000000            000000000000000                              000                           
0010001300283T 020180230000002544776 29647041579942051   7               09042017000000000006000001025208                         0900000000000010000000000000000000000000000000000000000   0000000000000000000000000A9        170192964704     
0010001300284U 020000000000000000000000000000000000000000000000000000000000000000000000000000000000000000000000000000000000000000000000000704201700000000            000000000000000                              000                           
0010001300285T 020180230000002544776 29647041584322125   7               09042017000000000006000001016179                         0900000000000010000000000000000000000000000000000000000   0000000000000000000000000A9        170192964704     
0010001300286U 020000000000000000000000000000000000000000000000000000000000000000000000000000000000000000000000000000000000000000000000000704201700000000            000000000000000                              000                           
0010001300287T 020180230000002544776 29647041586243469   7               09042017000000000006000001033316                         0900000000000010000000000000000000000000000000000000000   0000000000000000000000000A9        170192964704     
0010001300288U 020000000000000000000000000000000000000000000000000000000000000000000000000000000000000000000000000000000000000000000000000704201700000000            000000000000000                              000                           
0010001300289T 020180230000002544776 29647041589622826   7               09042017000000000006000001018376                         0900000000000010000000000000000000000000000000000000000   0000000000000000000000000A9        170192964704     
0010001300290U 020000000000000000000000000000000000000000000000000000000000000000000000000000000000000000000000000000000000000000000000000704201700000000            000000000000000                              000                           
0010001300291T 020180230000002544776 29647041589626850   7               09042017000000000006000001018376                         0900000000000010000000000000000000000000000000000000000   0000000000000000000000000A9        170192964704     
0010001300292U 020000000000000000000000000000000000000000000000000000000000000000000000000000000000000000000000000000000000000000000000000704201700000000            000000000000000                              000                           
0010001300293T 020180230000002544776 29647041589732431   7               09042017000000000006000001028029                         0900000000000010500000000000000000000000000000000000000   0000000000000000000000000A9A4      170192964704     
0010001300294U 020000000000000000000000000000000000000000000000000000000000000000000000000000000000000000000000000000000000000000000000000704201700000000            000000000000000                              000                           
0010001300295T 020180230000002544776 29647041591450558   7               09042017000000000006000001028029                         0900000000000010500000000000000000000000000000000000000   0000000000000000000000000A9A4      170192964704     
0010001300296U 020000000000000000000000000000000000000000000000000000000000000000000000000000000000000000000000000000000000000000000000000704201700000000            000000000000000                              000                           
0010001300297T 020180230000002544776 29647041594637595   7               09042017000000000006000001000132                         0900000000000010000000000000000000000000000000000000000   0000000000000000000000000A9        170192964704     
0010001300298U 020000000000000000000000000000000000000000000000000000000000000000000000000000000000000000000000000000000000000000000000000704201700000000            000000000000000                              000                           
0010001300299T 020180230000002544776 29647041595021215   7               09042017000000000006000001023264                         0900000000000010000000000000000000000000000000000000000   0000000000000000000000000A9        170192964704     
0010001300300U 020000000000000000000000000000000000000000000000000000000000000000000000000000000000000000000000000000000000000000000000000704201700000000            000000000000000                              000                           
0010001300301T 020180230000002544776 29647041595113559   7               09042017000000000006000001016179                         0900000000000010500000000000000000000000000000000000000   0000000000000000000000000A9A4      170192964704     
0010001300302U 020000000000000000000000000000000000000000000000000000000000000000000000000000000000000000000000000000000000000000000000000704201700000000            000000000000000                              000                           
0010001300303T 020180230000002544776 29647041595117472   7               09042017000000000006000001016179                         0900000000000010500000000000000000000000000000000000000   0000000000000000000000000A9A4      170192964704     
0010001300304U 020000000000000000000000000000000000000000000000000000000000000000000000000000000000000000000000000000000000000000000000000704201700000000            000000000000000                              000                           
0010001300305T 020180230000002544776 29647041595122069   7               09042017000000000006000001016179                         0900000000000010500000000000000000000000000000000000000   0000000000000000000000000A9A4      170192964704     
0010001300306U 020000000000000000000000000000000000000000000000000000000000000000000000000000000000000000000000000000000000000000000000000704201700000000            000000000000000                              000                           
0010001300307T 020180230000002544776 29647041595132681   7               09042017000000000006000001016179                         0900000000000010500000000000000000000000000000000000000   0000000000000000000000000A9A4      170192964704     
0010001300308U 020000000000000000000000000000000000000000000000000000000000000000000000000000000000000000000000000000000000000000000000000704201700000000            000000000000000                              000                           
0010001300309T 020180230000002544776 29647041595134673   7               09042017000000000006000001016179                         0900000000000010500000000000000000000000000000000000000   0000000000000000000000000A9A4      170192964704     
0010001300310U 020000000000000000000000000000000000000000000000000000000000000000000000000000000000000000000000000000000000000000000000000704201700000000            000000000000000                              000                           
0010001300311T 020180230000002544776 29647041595639199   7               09042017000000000006000001008214                         0900000000000010000000000000000000000000000000000000000   0000000000000000000000000A9        170192964704     
0010001300312U 020000000000000000000000000000000000000000000000000000000000000000000000000000000000000000000000000000000000000000000000000704201700000000            000000000000000                              000                           
0010001300313T 020180230000002544776 29647041597655467   7               09042017000000000008000001000205                         0900000000000010000000000000000000000000000000000000000   0000000000000000000000000A9        170192964704     
0010001300314U 020000000000000000000000000000000000000000000000000000000000000000000000000000000000000000000000000000000000000000000000000704201700000000            000000000000000                              000                           
0010001300315T 020180230000002544776 29647041597808889   7               09042017000000000006000001000132                         0900000000000010000000000000000000000000000000000000000   0000000000000000000000000A9        170192964704     
0010001300316U 020000000000000000000000000000000000000000000000000000000000000000000000000000000000000000000000000000000000000000000000000704201700000000            000000000000000                              000                           
0010001300317T 020180230000002544776 29647041597811667   7               09042017000000000006000001000132                         0900000000000010000000000000000000000000000000000000000   0000000000000000000000000A9        170192964704     
0010001300318U 020000000000000000000000000000000000000000000000000000000000000000000000000000000000000000000000000000000000000000000000000704201700000000            000000000000000                              000                           
0010001300319T 020180230000002544776 29647041597835411   7               09042017000000000006000001000132                         0900000000000010000000000000000000000000000000000000000   0000000000000000000000000A9        170192964704     
0010001300320U 020000000000000000000000000000000000000000000000000000000000000000000000000000000000000000000000000000000000000000000000000704201700000000            000000000000000                              000                           
0010001300321T 020180230000002544776 29647041598926269   7               09042017000000000006000001035033                         0900000000000010000000000000000000000000000000000000000   0000000000000000000000000A9        170192964704     
0010001300322U 020000000000000000000000000000000000000000000000000000000000000000000000000000000000000000000000000000000000000000000000000704201700000000            000000000000000                              000                           
0010001300323T 020180230000002544776 29647041599010639   7               0904201700000000000600000101981X                         0900000000000010000000000000000000000000000000000000000   0000000000000000000000000A9        170192964704     
0010001300324U 020000000000000000000000000000000000000000000000000000000000000000000000000000000000000000000000000000000000000000000000000704201700000000            000000000000000                              000                           
0010001300325T 020180230000002544776 29647041599604053   7               09042017000000000006000001000132                         0900000000000010000000000000000000000000000000000000000   0000000000000000000000000A9        170192964704     
0010001300326U 020000000000000000000000000000000000000000000000000000000000000000000000000000000000000000000000000000000000000000000000000704201700000000            000000000000000                              000                           
0010001300327T 020180230000002544776 29647041599612585   7               09042017000000000006000001000132                         0900000000000010000000000000000000000000000000000000000   0000000000000000000000000A9        170192964704     
0010001300328U 020000000000000000000000000000000000000000000000000000000000000000000000000000000000000000000000000000000000000000000000000704201700000000            000000000000000                              000                           
0010001300329T 020180230000002544776 29647041600426800   7               09042017000000000006000001016179                         0900000000000010000000000000000000000000000000000000000   0000000000000000000000000A9        170192964704     
0010001300330U 020000000000000000000000000000000000000000000000000000000000000000000000000000000000000000000000000000000000000000000000000704201700000000            000000000000000                              000                           
0010001300331T 020180230000002544776 29647041600445455   7               09042017000000000006000001016179                         0900000000000010000000000000000000000000000000000000000   0000000000000000000000000A9        170192964704     
0010001300332U 020000000000000000000000000000000000000000000000000000000000000000000000000000000000000000000000000000000000000000000000000704201700000000            000000000000000                              000                           
0010001300333T 020180230000002544776 29647041604744238   7               09042017000000000006000001013692                         0900000000000010000000000000000000000000000000000000000   0000000000000000000000000A9        170192964704     
0010001300334U 020000000000000000000000000000000000000000000000000000000000000000000000000000000000000000000000000000000000000000000000000704201700000000            000000000000000                              000                           
0010001300335T 020180230000002544776 29647041605207139   7               09042017000000000006000001028029                         0900000000000010000000000000000000000000000000000000000   0000000000000000000000000A9        170192964704     
0010001300336U 020000000000000000000000000000000000000000000000000000000000000000000000000000000000000000000000000000000000000000000000000704201700000000            000000000000000                              000                           
0010001300337T 020180230000002544776 29647041605255084   7               09042017000000000006000001028029                         0900000000000010000000000000000000000000000000000000000   0000000000000000000000000A9        170192964704     
0010001300338U 020000000000000000000000000000000000000000000000000000000000000000000000000000000000000000000000000000000000000000000000000704201700000000            000000000000000                              000                           
0010001300339T 020180230000002544776 29647041605522228   7               09042017000000000006000001028029                         0900000000000010000000000000000000000000000000000000000   0000000000000000000000000A9        170192964704     
0010001300340U 020000000000000000000000000000000000000000000000000000000000000000000000000000000000000000000000000000000000000000000000000704201700000000            000000000000000                              000                           
0010001300341T 020180230000002544776 29647041612923727   7               09042017000000000008000001000132                         0900000000000010000000000000000000000000000000000000000   0000000000000000000000000A9        170192964704     
0010001300342U 020000000000000000000000000000000000000000000000000000000000000000000000000000000000000000000000000000000000000000000000000704201700000000            000000000000000                              000                           
0010001300343T 020180230000002544776 29647041617606147   7               09042017000000000006000001033316                         0900000000000010000000000000000000000000000000000000000   0000000000000000000000000A9        170192964704     
0010001300344U 020000000000000000000000000000000000000000000000000000000000000000000000000000000000000000000000000000000000000000000000000704201700000000            000000000000000                              000                           
0010001300345T 020180230000002544776 29647041617608773   7               09042017000000000006000001033316                         0900000000000010000000000000000000000000000000000000000   0000000000000000000000000A9        170192964704     
0010001300346U 020000000000000000000000000000000000000000000000000000000000000000000000000000000000000000000000000000000000000000000000000704201700000000            000000000000000                              000                           
0010001300347T 020180230000002544776 29647041617620351   7               09042017000000000006000001033316                         0900000000000010000000000000000000000000000000000000000   0000000000000000000000000A9        170192964704     
0010001300348U 020000000000000000000000000000000000000000000000000000000000000000000000000000000000000000000000000000000000000000000000000704201700000000            000000000000000                              000                           
0010001300349T 020180230000002544776 29647041617631299   7               09042017000000000006000001033316                         0900000000000010000000000000000000000000000000000000000   0000000000000000000000000A9        170192964704     
0010001300350U 020000000000000000000000000000000000000000000000000000000000000000000000000000000000000000000000000000000000000000000000000704201700000000            000000000000000                              000                           
0010001300351T 020180230000002544776 29647041619233507   7               09042017000000000006000001012467                         0900000000000010000000000000000000000000000000000000000   0000000000000000000000000A9        170192964704     
0010001300352U 020000000000000000000000000000000000000000000000000000000000000000000000000000000000000000000000000000000000000000000000000704201700000000            000000000000000                              000                           
0010001300353T 020180230000002544776 29647041619618699   7               09042017000000000006000001028029                         0900000000000010500000000000000000000000000000000000000   0000000000000000000000000A9A4      170192964704     
0010001300354U 020000000000000000000000000000000000000000000000000000000000000000000000000000000000000000000000000000000000000000000000000704201700000000            000000000000000                              000                           
0010001300355T 020180230000002544776 29647041620914448   7               09042017000000000006000001038148                         0900000000000010500000000000000000000000000000000000000   0000000000000000000000000A9A4      170192964704     
0010001300356U 020000000000000000000000000000000000000000000000000000000000000000000000000000000000000000000000000000000000000000000000000704201700000000            000000000000000                              000                           
0010001300357T 020180230000002544776 29647041620925857   7               09042017000000000006000001038148                         0900000000000010500000000000000000000000000000000000000   0000000000000000000000000A9A4      170192964704     
0010001300358U 020000000000000000000000000000000000000000000000000000000000000000000000000000000000000000000000000000000000000000000000000704201700000000            000000000000000                              000                           
0010001300359T 020180230000002544776 29647041622925029   7               09042017000000000008000001013617                         0900000000000010000000000000000000000000000000000000000   0000000000000000000000000A9        170192964704     
0010001300360U 020000000000000000000000000000000000000000000000000000000000000000000000000000000000000000000000000000000000000000000000000704201700000000            000000000000000                              000                           
0010001300361T 020180230000002544776 29647041623413871   7               09042017000000000006000001017108                         0900000000000010000000000000000000000000000000000000000   0000000000000000000000000A9        170192964704     
0010001300362U 020000000000000000000000000000000000000000000000000000000000000000000000000000000000000000000000000000000000000000000000000704201700000000            000000000000000                              000                           
0010001300363T 020180230000002544776 29647041623732668   7               09042017000000000008000001000361                         0900000000000010000000000000000000000000000000000000000   0000000000000000000000000A9        170192964704     
0010001300364U 020000000000000000000000000000000000000000000000000000000000000000000000000000000000000000000000000000000000000000000000000704201700000000            000000000000000                              000                           
0010001300365T 020180230000002544776 29647041623745865   7               09042017000000000008000001000361                         0900000000000010000000000000000000000000000000000000000   0000000000000000000000000A9        170192964704     
0010001300366U 020000000000000000000000000000000000000000000000000000000000000000000000000000000000000000000000000000000000000000000000000704201700000000            000000000000000                              000                           
0010001300367T 020180230000002544776 29647041625632435   7               0904201700000000000600000101138X                         0900000000000010000000000000000000000000000000000000000   0000000000000000000000000A9        170192964704     
0010001300368U 020000000000000000000000000000000000000000000000000000000000000000000000000000000000000000000000000000000000000000000000000704201700000000            000000000000000                              000                           
0010001300369T 020180230000002544776 29647041625639073   7               0904201700000000000600000101138X                         0900000000000010000000000000000000000000000000000000000   0000000000000000000000000A9        170192964704     
0010001300370U 020000000000000000000000000000000000000000000000000000000000000000000000000000000000000000000000000000000000000000000000000704201700000000            000000000000000                              000                           
0010001300371T 020180230000002544776 29647041626425076   7               09042017000000000006000001000361                         0900000000000010000000000000000000000000000000000000000   0000000000000000000000000A9        170192964704     
0010001300372U 020000000000000000000000000000000000000000000000000000000000000000000000000000000000000000000000000000000000000000000000000704201700000000            000000000000000                              000                           
0010001300373T 020180230000002544776 29647041628517222   7               09042017000000000006000001008214                         0900000000000010000000000000000000000000000000000000000   0000000000000000000000000A9        170192964704     
0010001300374U 020000000000000000000000000000000000000000000000000000000000000000000000000000000000000000000000000000000000000000000000000704201700000000            000000000000000                              000                           
0010001300375T 020180230000002544776 29647041629230365   7               09042017000000000006000001012467                         0900000000000010000000000000000000000000000000000000000   0000000000000000000000000A9        170192964704     
0010001300376U 020000000000000000000000000000000000000000000000000000000000000000000000000000000000000000000000000000000000000000000000000704201700000000            000000000000000                              000                           
0010001300377T 020180230000002544776 29647041639328956   7               09042017000000000006000001010421                         0900000000000010000000000000000000000000000000000000000   0000000000000000000000000A9        170192964704     
0010001300378U 020000000000000000000000000000000000000000000000000000000000000000000000000000000000000000000000000000000000000000000000000704201700000000            000000000000000                              000                           
0010001300379T 020180230000002544776 29647041639330044   7               09042017000000000006000001010421                         0900000000000010000000000000000000000000000000000000000   0000000000000000000000000A9        170192964704     
0010001300380U 020000000000000000000000000000000000000000000000000000000000000000000000000000000000000000000000000000000000000000000000000704201700000000            000000000000000                              000                           
0010001300381T 020180230000002544776 29647041639348551   7               09042017000000000006000001010421                         0900000000000010000000000000000000000000000000000000000   0000000000000000000000000A9        170192964704     
0010001300382U 020000000000000000000000000000000000000000000000000000000000000000000000000000000000000000000000000000000000000000000000000704201700000000            000000000000000                              000                           
0010001300383T 020180230000002544776 29647041641522665   7               09042017000000000006000001000132                         0900000000000010000000000000000000000000000000000000000   0000000000000000000000000A9        170192964704     
0010001300384U 020000000000000000000000000000000000000000000000000000000000000000000000000000000000000000000000000000000000000000000000000704201700000000            000000000000000                              000                           
0010001300385T 020180230000002544776 29647041641552723   7               09042017000000000006000001000132                         0900000000000010000000000000000000000000000000000000000   0000000000000000000000000A9        170192964704     
0010001300386U 020000000000000000000000000000000000000000000000000000000000000000000000000000000000000000000000000000000000000000000000000704201700000000            000000000000000                              000                           
0010001300387T 020180230000002544776 29647041641756497   7               09042017000000000008000001028029                         0900000000000010000000000000000000000000000000000000000   0000000000000000000000000A9        170192964704     
0010001300388U 020000000000000000000000000000000000000000000000000000000000000000000000000000000000000000000000000000000000000000000000000704201700000000            000000000000000                              000                           
0010001300389T 020180230000002544776 29647041643926921   7               09042017000000000006000001033316                         0900000000000010000000000000000000000000000000000000000   0000000000000000000000000A9        170192964704     
0010001300390U 020000000000000000000000000000000000000000000000000000000000000000000000000000000000000000000000000000000000000000000000000704201700000000            000000000000000                              000                           
0010001300391T 020180230000002544776 29647041645310641   7               09042017000000000006000001023655                         0900000000000010500000000000000000000000000000000000000   0000000000000000000000000A9A4      170192964704     
0010001300392U 020000000000000000000000000000000000000000000000000000000000000000000000000000000000000000000000000000000000000000000000000704201700000000            000000000000000                              000                           
0010001300393T 020180230000002544776 29647041645724930   7               09042017000000000006000001000361                         0900000000000010000000000000000000000000000000000000000   0000000000000000000000000A9        170192964704     
0010001300394U 020000000000000000000000000000000000000000000000000000000000000000000000000000000000000000000000000000000000000000000000000704201700000000            000000000000000                              000                           
0010001300395T 020180230000002544776 29647041647505049   7               09042017000000000006000001028029                         0900000000000010000000000000000000000000000000000000000   0000000000000000000000000A9        170192964704     
0010001300396U 020000000000000000000000000000000000000000000000000000000000000000000000000000000000000000000000000000000000000000000000000704201700000000            000000000000000                              000                           
0010001300397T 020180230000002544776 29647041647522584   7               09042017000000000006000001028029                         0900000000000010000000000000000000000000000000000000000   0000000000000000000000000A9        170192964704     
0010001300398U 020000000000000000000000000000000000000000000000000000000000000000000000000000000000000000000000000000000000000000000000000704201700000000            000000000000000                              000                           
0010001300399T 020180230000002544776 29647041648114098   7               09042017000000000006000001010111                         0900000000000010000000000000000000000000000000000000000   0000000000000000000000000A9        170192964704     
0010001300400U 020000000000000000000000000000000000000000000000000000000000000000000000000000000000000000000000000000000000000000000000000704201700000000            000000000000000                              000                           
0010001300401T 020180230000002544776 29647041649501900   7               09042017000000000006000001001597                         0900000000000010000000000000000000000000000000000000000   0000000000000000000000000A9        170192964704     
0010001300402U 020000000000000000000000000000000000000000000000000000000000000000000000000000000000000000000000000000000000000000000000000704201700000000            000000000000000                              000                           
0010001300403T 020180230000002544776 29647041649505747   7               08042017000000000006000001001597                         0900000000000010000000000000000000000000000000000000000   0000000000000000000000000A9        170192964704     
0010001300404U 020000000000000000000000000000000000000000000000000000000000000000000000000000000000000000000000000000000000000000000000000604201700000000            000000000000000                              000                           
0010001300405T 020180230000002544776 29647041649507076   7               08042017000000000006000001001597                         0900000000000010000000000000000000000000000000000000000   0000000000000000000000000A9        170192964704     
0010001300406U 020000000000000000000000000000000000000000000000000000000000000000000000000000000000000000000000000000000000000000000000000604201700000000            000000000000000                              000                           
0010001300407T 020180230000002544776 29647041649530032   7               09042017000000000006000001001597                         0900000000000010000000000000000000000000000000000000000   0000000000000000000000000A9        170192964704     
0010001300408U 020000000000000000000000000000000000000000000000000000000000000000000000000000000000000000000000000000000000000000000000000704201700000000            000000000000000                              000                           
0010001300409T 020180230000002544776 29647041649554940   7               08042017000000000006000001001597                         0900000000000010000000000000000000000000000000000000000   0000000000000000000000000A9        170192964704     
0010001300410U 020000000000000000000000000000000000000000000000000000000000000000000000000000000000000000000000000000000000000000000000000604201700000000            000000000000000                              000                           
0010001300411T 020180230000002544776 29647041650405062   7               09042017000000000006000001016179                         0900000000000010500000000000000000000000000000000000000   0000000000000000000000000A9A4      170192964704     
0010001300412U 020000000000000000000000000000000000000000000000000000000000000000000000000000000000000000000000000000000000000000000000000704201700000000            000000000000000                              000                           
