00100000         2247745860001000029647040014       0180230000002544776 INSTITUTO DE SELECAO E TECNOLOBANCO DO BRASIL                         21004201702395900009803000000515122941PROCESSAMEN                                                 
00100011T0100020 20247745860001000029647040014       0180230000002544776 INSTITUTO DE SELECAO E TECNOLO                                                                                000000001004201700000000  000000000                      
0010001300001T 020180230000002544776 29647040511946876   7               10042017000000000006000001035041                         0900000000000010000000000000000000000000000000000000000   0000000000000000000000000A9        170192964704     
0010001300002U 020000000000000000000000000000000000000000000000000000000000000000000000000000000000000000000000000000000000000000000000000804201700000000            000000000000000                              000                           
0010001300003T 020180230000002544776 29647040525819116   7               10042017000000000006000001016543                         0900000000000010000000000000000000000000000000000000000   0000000000000000000000000A9        170192964704     
0010001300004U 020000000000000000000000000000000000000000000000000000000000000000000000000000000000000000000000000000000000000000000000000804201700000000            000000000000000                              000                           
0010001300005T 020180230000002544776 29647040526808067   7               11042017000000000006000001028029                         0900000000000010000000000000000000000000000000000000000   0000000000000000000000000A9        170192964704     
0010001300006U 020000000000000000000000000000000000000000000000000000000000000000000000000000000000000000000000000000000000000000000000000904201700000000            000000000000000                              000                           
0010001300007T 020180230000002544776 29647040533512381   7               12042017000000000006000001014451                         0900000000000010000000000000000000000000000000000000000   0000000000000000000000000A9        170192964704     
0010001300008U 020000000000000000000000000000000000000000000000000000000000000000000000000000000000000000000000000000000000000000000000001004201700000000            000000000000000                              000                           
0010001300009T 020180230000002544776 29647040534617264   7               10042017000000000006000001028029                         0900000000000010000000000000000000000000000000000000000   0000000000000000000000000A9        170192964704     
0010001300010U 020000000000000000000000000000000000000000000000000000000000000000000000000000000000000000000000000000000000000000000000000804201700000000            000000000000000                              000                           
0010001300011T 020180230000002544776 29647040534622861   7               10042017000000000006000001028029                         0900000000000010000000000000000000000000000000000000000   0000000000000000000000000A9        170192964704     
0010001300012U 020000000000000000000000000000000000000000000000000000000000000000000000000000000000000000000000000000000000000000000000000804201700000000            000000000000000                              000                           
0010001300013T 020180230000002544776 29647040534624501   7               10042017000000000006000001028029                         0900000000000010000000000000000000000000000000000000000   0000000000000000000000000A9        170192964704     
0010001300014U 020000000000000000000000000000000000000000000000000000000000000000000000000000000000000000000000000000000000000000000000000804201700000000            000000000000000                              000                           
0010001300015T 020180230000002544776 29647040534640175   7               10042017000000000006000001028029                         0900000000000010000000000000000000000000000000000000000   0000000000000000000000000A9        170192964704     
0010001300016U 020000000000000000000000000000000000000000000000000000000000000000000000000000000000000000000000000000000000000000000000000804201700000000            000000000000000                              000                           
0010001300017T 020180230000002544776 29647040534644231   7               10042017000000000006000001028029                         0900000000000010000000000000000000000000000000000000000   0000000000000000000000000A9        170192964704     
0010001300018U 020000000000000000000000000000000000000000000000000000000000000000000000000000000000000000000000000000000000000000000000000804201700000000            000000000000000                              000                           
0010001300019T 020180230000002544776 29647040534654610   7               10042017000000000006000001028029                         0900000000000010000000000000000000000000000000000000000   0000000000000000000000000A9        170192964704     
0010001300020U 020000000000000000000000000000000000000000000000000000000000000000000000000000000000000000000000000000000000000000000000000804201700000000            000000000000000                              000                           
0010001300021T 020180230000002544776 29647040534659775   7               10042017000000000006000001028029                         0900000000000010000000000000000000000000000000000000000   0000000000000000000000000A9        170192964704     
0010001300022U 020000000000000000000000000000000000000000000000000000000000000000000000000000000000000000000000000000000000000000000000000804201700000000            000000000000000                              000                           
0010001300023T 020180230000002544776 29647040536902168   7               12042017000000000008000001010529                         0900000000000010000000000000000000000000000000000000000   0000000000000000000000000A9        170192964704     
0010001300024U 020000000000000000000000000000000000000000000000000000000000000000000000000000000000000000000000000000000000000000000000001004201700000000            000000000000000                              000                           
0010001300025T 020180230000002544776 29647040538412056   7               10042017000000000008000001000132                         0900000000000010000000000000000000000000000000000000000   0000000000000000000000000A9        170192964704     
0010001300026U 020000000000000000000000000000000000000000000000000000000000000000000000000000000000000000000000000000000000000000000000000804201700000000            000000000000000                              000                           
0010001300027T 020180230000002544776 29647040538507381   7               11042017000000000006000001000132                         0900000000000010000000000000000000000000000000000000000   0000000000000000000000000A9        170192964704     
0010001300028U 020000000000000000000000000000000000000000000000000000000000000000000000000000000000000000000000000000000000000000000000000904201700000000            000000000000000                              000                           
0010001300029T 020180230000002544776 29647040550337610   7               10042017000000000006000001023655                         0900000000000010000000000000000000000000000000000000000   0000000000000000000000000A9        170192964704     
0010001300030U 020000000000000000000000000000000000000000000000000000000000000000000000000000000000000000000000000000000000000000000000000804201700000000            000000000000000                              000                           
0010001300031T 020180230000002544776 29647040557205290   7               10042017000000000006000001028029                         0900000000000010000000000000000000000000000000000000000   0000000000000000000000000A9        170192964704     
0010001300032U 020000000000000000000000000000000000000000000000000000000000000000000000000000000000000000000000000000000000000000000000000804201700000000            000000000000000                              000                           
0010001300033T 020180230000002544776 29647040573704674   7               12042017000000000008000001000132                         0900000000000010000000000000000000000000000000000000000   0000000000000000000000000A9        170192964704     
0010001300034U 020000000000000000000000000000000000000000000000000000000000000000000000000000000000000000000000000000000000000000000000001004201700000000            000000000000000                              000                           
0010001300035T 020180230000002544776 29647040573749537   7               10042017000000000008000001000132                         0900000000000010000000000000000000000000000000000000000   0000000000000000000000000A9        170192964704     
0010001300036U 020000000000000000000000000000000000000000000000000000000000000000000000000000000000000000000000000000000000000000000000000804201700000000            000000000000000                              000                           
0010001300037T 020180230000002544776 29647040595504381   7               10042017000000000006000001016179                         0900000000000010000000000000000000000000000000000000000   0000000000000000000000000A9        170192964704     
0010001300038U 020000000000000000000000000000000000000000000000000000000000000000000000000000000000000000000000000000000000000000000000000804201700000000            000000000000000                              000                           
0010001300039T 020180230000002544776 29647040608301595   7               10042017000000000008000001000132                         0900000000000010000000000000000000000000000000000000000   0000000000000000000000000A9        170192964704     
0010001300040U 020000000000000000000000000000000000000000000000000000000000000000000000000000000000000000000000000000000000000000000000000804201700000000            000000000000000                              000                           
0010001300041T 020180230000002544776 29647040608317486   7               10042017000000000008000001000132                         0900000000000010000000000000000000000000000000000000000   0000000000000000000000000A9        170192964704     
0010001300042U 020000000000000000000000000000000000000000000000000000000000000000000000000000000000000000000000000000000000000000000000000804201700000000            000000000000000                              000                           
0010001300043T 020180230000002544776 29647040608353614   7               10042017000000000008000001000132                         0900000000000010000000000000000000000000000000000000000   0000000000000000000000000A9        170192964704     
0010001300044U 020000000000000000000000000000000000000000000000000000000000000000000000000000000000000000000000000000000000000000000000000804201700000000            000000000000000                              000                           
0010001300045T 020180230000002544776 29647040608359293   7               10042017000000000008000001000132                         0900000000000010000000000000000000000000000000000000000   0000000000000000000000000A9        170192964704     
0010001300046U 020000000000000000000000000000000000000000000000000000000000000000000000000000000000000000000000000000000000000000000000000804201700000000            000000000000000                              000                           
0010001300047T 020180230000002544776 29647040619512513   7               10042017000000000006000001012467                         0900000000000010000000000000000000000000000000000000000   0000000000000000000000000A9        170192964704     
0010001300048U 020000000000000000000000000000000000000000000000000000000000000000000000000000000000000000000000000000000000000000000000000804201700000000            000000000000000                              000                           
0010001300049T 020180230000002544776 29647040620109627   7               10042017000000000006000001016179                         0900000000000010000000000000000000000000000000000000000   0000000000000000000000000A9        170192964704     
0010001300050U 020000000000000000000000000000000000000000000000000000000000000000000000000000000000000000000000000000000000000000000000000804201700000000            000000000000000                              000                           
0010001300051T 020180230000002544776 29647040625900433   7               12042017000000000006000001000132                         0900000000000010000000000000000000000000000000000000000   0000000000000000000000000A9        170192964704     
0010001300052U 020000000000000000000000000000000000000000000000000000000000000000000000000000000000000000000000000000000000000000000000001004201700000000            000000000000000                              000                           
0010001300053T 020180230000002544776 29647040625956005   7               12042017000000000006000001000132                         0900000000000010000000000000000000000000000000000000000   0000000000000000000000000A9        170192964704     
0010001300054U 020000000000000000000000000000000000000000000000000000000000000000000000000000000000000000000000000000000000000000000000001004201700000000            000000000000000                              000                           
0010001300055T 020180230000002544776 29647040629521913   7               12042017000000000006000001012629                         0900000000000010000000000000000000000000000000000000000   0000000000000000000000000A9        170192964704     
0010001300056U 020000000000000000000000000000000000000000000000000000000000000000000000000000000000000000000000000000000000000000000000001004201700000000            000000000000000                              000                           
0010001300057T 020180230000002544776 29647040636710580   7               10042017000000000006000001000132                         0900000000000010000000000000000000000000000000000000000   0000000000000000000000000A9        170192964704     
0010001300058U 020000000000000000000000000000000000000000000000000000000000000000000000000000000000000000000000000000000000000000000000000804201700000000            000000000000000                              000                           
0010001300059T 020180230000002544776 29647040636824119   7               10042017000000000008000001000132                         0900000000000010000000000000000000000000000000000000000   0000000000000000000000000A9        170192964704     
0010001300060U 020000000000000000000000000000000000000000000000000000000000000000000000000000000000000000000000000000000000000000000000000804201700000000            000000000000000                              000                           
0010001300061T 020180230000002544776 29647040638637372   7               12042017000000000006000001016179                         0900000000000010000000000000000000000000000000000000000   0000000000000000000000000A9        170192964704     
0010001300062U 020000000000000000000000000000000000000000000000000000000000000000000000000000000000000000000000000000000000000000000000001004201700000000            000000000000000                              000                           
0010001300063T 020180230000002544776 29647040650821650   7               12042017000000000006000001016179                         0900000000000010000000000000000000000000000000000000000   0000000000000000000000000A9        170192964704     
0010001300064U 020000000000000000000000000000000000000000000000000000000000000000000000000000000000000000000000000000000000000000000000001004201700000000            000000000000000                              000                           
0010001300065T 020180230000002544776 29647040650841685   7               12042017000000000006000001016179                         0900000000000010000000000000000000000000000000000000000   0000000000000000000000000A9        170192964704     
0010001300066U 020000000000000000000000000000000000000000000000000000000000000000000000000000000000000000000000000000000000000000000000001004201700000000            000000000000000                              000                           
0010001300067T 020180230000002544776 29647040658115587   7               09042017000000000006000001000132                         0900000000000010500000000000000000000000000000000000000   0000000000000000000000000A9A4      170192964704     
0010001300068U 020000000000000000000000000000000000000000000000000000000000000000000000000000000000000000000000000000000000000000000000000704201700000000            000000000000000                              000                           
0010001300069T 020180230000002544776 29647040658132158   7               10042017000000000006000001000132                         0900000000000010500000000000000000000000000000000000000   0000000000000000000000000A9A4      170192964704     
0010001300070U 020000000000000000000000000000000000000000000000000000000000000000000000000000000000000000000000000000000000000000000000000804201700000000            000000000000000                              000                           
0010001300071T 020180230000002544776 29647040672238542   7               10042017000000000006000001033316                         0900000000000010000000000000000000000000000000000000000   0000000000000000000000000A9        170192964704     
0010001300072U 020000000000000000000000000000000000000000000000000000000000000000000000000000000000000000000000000000000000000000000000000804201700000000            000000000000000                              000                           
0010001300073T 020180230000002544776 29647040676822829   7               11042017000000000006000001023655                         0900000000000010500000000000000000000000000000000000000   0000000000000000000000000A9A4      170192964704     
0010001300074U 020000000000000000000000000000000000000000000000000000000000000000000000000000000000000000000000000000000000000000000000000904201700000000            000000000000000                              000                           
0010001300075T 020180230000002544776 29647040676920308   7               11042017000000000008000001000132                         0900000000000010000000000000000000000000000000000000000   0000000000000000000000000A9        170192964704     
0010001300076U 020000000000000000000000000000000000000000000000000000000000000000000000000000000000000000000000000000000000000000000000000904201700000000            000000000000000                              000                           
0010001300077T 020180230000002544776 29647040683140916   7               11042017000000000006000001012467                         0900000000000010000000000000000000000000000000000000000   0000000000000000000000000A9        170192964704     
0010001300078U 020000000000000000000000000000000000000000000000000000000000000000000000000000000000000000000000000000000000000000000000000904201700000000            000000000000000                              000                           
0010001300079T 020180230000002544776 29647040683152806   7               11042017000000000006000001012467                         0900000000000010000000000000000000000000000000000000000   0000000000000000000000000A9        170192964704     
0010001300080U 020000000000000000000000000000000000000000000000000000000000000000000000000000000000000000000000000000000000000000000000000904201700000000            000000000000000                              000                           
0010001300081T 020180230000002544776 29647040696847741   7               12042017000000000006000001016489                         0900000000000010000000000000000000000000000000000000000   0000000000000000000000000A9        170192964704     
0010001300082U 020000000000000000000000000000000000000000000000000000000000000000000000000000000000000000000000000000000000000000000000001004201700000000            000000000000000                              000                           
0010001300083T 020180230000002544776 29647040726646993   7               12042017000000000006000001033316                         0900000000000010000000000000000000000000000000000000000   0000000000000000000000000A9        170192964704     
0010001300084U 020000000000000000000000000000000000000000000000000000000000000000000000000000000000000000000000000000000000000000000000001004201700000000            000000000000000                              000                           
0010001300085T 020180230000002544776 29647040729605375   7               10042017000000000006000001028029                         0900000000000010500000000000000000000000000000000000000   0000000000000000000000000A9A4      170192964704     
0010001300086U 020000000000000000000000000000000000000000000000000000000000000000000000000000000000000000000000000000000000000000000000000804201700000000            000000000000000                              000                           
0010001300087T 020180230000002544776 29647040761324382   7               11042017000000000006000001016179                         0900000000000010000000000000000000000000000000000000000   0000000000000000000000000A9        170192964704     
0010001300088U 020000000000000000000000000000000000000000000000000000000000000000000000000000000000000000000000000000000000000000000000000904201700000000            000000000000000                              000                           
0010001300089T 020180230000002544776 29647040761335655   7               11042017000000000006000001016179                         0900000000000010000000000000000000000000000000000000000   0000000000000000000000000A9        170192964704     
0010001300090U 020000000000000000000000000000000000000000000000000000000000000000000000000000000000000000000000000000000000000000000000000904201700000000            000000000000000                              000                           
0010001300091T 020180230000002544776 29647040761339751   7               11042017000000000006000001016179                         0900000000000010000000000000000000000000000000000000000   0000000000000000000000000A9        170192964704     
0010001300092U 020000000000000000000000000000000000000000000000000000000000000000000000000000000000000000000000000000000000000000000000000904201700000000            000000000000000                              000                           
0010001300093T 020180230000002544776 29647040765056685   7               10042017000000000006000001000361                         0900000000000010500000000000000000000000000000000000000   0000000000000000000000000A9A4      170192964704     
0010001300094U 020000000000000000000000000000000000000000000000000000000000000000000000000000000000000000000000000000000000000000000000000804201700000000            000000000000000                              000                           
0010001300095T 020180230000002544776 29647040769335086   7               12042017000000000006000001013595                         0900000000000010000000000000000000000000000000000000000   0000000000000000000000000A9        170192964704     
0010001300096U 020000000000000000000000000000000000000000000000000000000000000000000000000000000000000000000000000000000000000000000000001004201700000000            000000000000000                              000                           
0010001300097T 020180230000002544776 29647040792402892   7               10042017000000000006000001028029                         0900000000000010000000000000000000000000000000000000000   0000000000000000000000000A9        170192964704     
0010001300098U 020000000000000000000000000000000000000000000000000000000000000000000000000000000000000000000000000000000000000000000000000804201700000000            000000000000000                              000                           
0010001300099T 020180230000002544776 29647040796742703   7               12042017000000000006000001007277                         0900000000000010000000000000000000000000000000000000000   0000000000000000000000000A9        170192964704     
0010001300100U 020000000000000000000000000000000000000000000000000000000000000000000000000000000000000000000000000000000000000000000000001004201700000000            000000000000000                              000                           
0010001300101T 020180230000002544776 29647040797216153   7               10042017000000000006000001035041                         0900000000000010000000000000000000000000000000000000000   0000000000000000000000000A9        170192964704     
0010001300102U 020000000000000000000000000000000000000000000000000000000000000000000000000000000000000000000000000000000000000000000000000804201700000000            000000000000000                              000                           
0010001300103T 020180230000002544776 29647040797221006   7               10042017000000000006000001035041                         0900000000000010000000000000000000000000000000000000000   0000000000000000000000000A9        170192964704     
0010001300104U 020000000000000000000000000000000000000000000000000000000000000000000000000000000000000000000000000000000000000000000000000804201700000000            000000000000000                              000                           
0010001300105T 020180230000002544776 29647040804402684   7               10042017000000000008000001000493                         0900000000000010000000000000000000000000000000000000000   0000000000000000000000000A9        170192964704     
0010001300106U 020000000000000000000000000000000000000000000000000000000000000000000000000000000000000000000000000000000000000000000000000804201700000000            000000000000000                              000                           
0010001300107T 020180230000002544776 29647040814136424   7               10042017000000000006000001005428                         0900000000000010000000000000000000000000000000000000000   0000000000000000000000000A9        170192964704     
0010001300108U 020000000000000000000000000000000000000000000000000000000000000000000000000000000000000000000000000000000000000000000000000804201700000000            000000000000000                              000                           
0010001300109T 020180230000002544776 29647040817901764   7               10042017000000000006000001016179                         0900000000000010000000000000000000000000000000000000000   0000000000000000000000000A9        170192964704     
0010001300110U 020000000000000000000000000000000000000000000000000000000000000000000000000000000000000000000000000000000000000000000000000804201700000000            000000000000000                              000                           
0010001300111T 020180230000002544776 29647040838802728   7               10042017000000000006000001033316                         0900000000000010000000000000000000000000000000000000000   0000000000000000000000000A9        170192964704     
0010001300112U 020000000000000000000000000000000000000000000000000000000000000000000000000000000000000000000000000000000000000000000000000804201700000000            000000000000000                              000                           
0010001300113T 020180230000002544776 29647040838819082   7               10042017000000000006000001033316                         0900000000000010000000000000000000000000000000000000000   0000000000000000000000000A9        170192964704     
0010001300114U 020000000000000000000000000000000000000000000000000000000000000000000000000000000000000000000000000000000000000000000000000804201700000000            000000000000000                              000                           
0010001300115T 020180230000002544776 29647040853811472   7               12042017000000000006000001028029                         0900000000000010000000000000000000000000000000000000000   0000000000000000000000000A9        170192964704     
0010001300116U 020000000000000000000000000000000000000000000000000000000000000000000000000000000000000000000000000000000000000000000000001004201700000000            000000000000000                              000                           
0010001300117T 020180230000002544776 29647040861106457   7               10042017000000000006000001020478                         0900000000000010500000000000000000000000000000000000000   0000000000000000000000000A9A4      170192964704     
0010001300118U 020000000000000000000000000000000000000000000000000000000000000000000000000000000000000000000000000000000000000000000000000804201700000000            000000000000000                              000                           
0010001300119T 020180230000002544776 29647040861119850   7               12042017000000000006000001020478                         0900000000000010500000000000000000000000000000000000000   0000000000000000000000000A9A4      170192964704     
0010001300120U 020000000000000000000000000000000000000000000000000000000000000000000000000000000000000000000000000000000000000000000000001004201700000000            000000000000000                              000                           
0010001300121T 020180230000002544776 29647040873032218   7               11042017000000000006000001010669                         0900000000000010000000000000000000000000000000000000000   0000000000000000000000000A9        170192964704     
0010001300122U 020000000000000000000000000000000000000000000000000000000000000000000000000000000000000000000000000000000000000000000000000904201700000000            000000000000000                              000                           
0010001300123T 020180230000002544776 29647040874016472   7               12042017000000000006000001000132                         0900000000000010000000000000000000000000000000000000000   0000000000000000000000000A9        170192964704     
0010001300124U 020000000000000000000000000000000000000000000000000000000000000000000000000000000000000000000000000000000000000000000000001004201700000000            000000000000000                              000                           
0010001300125T 020180230000002544776 29647040888600811   7               10042017000000000006000001012467                         0900000000000010000000000000000000000000000000000000000   0000000000000000000000000A9        170192964704     
0010001300126U 020000000000000000000000000000000000000000000000000000000000000000000000000000000000000000000000000000000000000000000000000804201700000000            000000000000000                              000                           
0010001300127T 020180230000002544776 29647040888704808   7               10042017000000000006000001028029                         0900000000000010000000000000000000000000000000000000000   0000000000000000000000000A9        170192964704     
0010001300128U 020000000000000000000000000000000000000000000000000000000000000000000000000000000000000000000000000000000000000000000000000804201700000000            000000000000000                              000                           
0010001300129T 020180230000002544776 29647040899449783   7               11042017000000000006000001000132                         0900000000000010000000000000000000000000000000000000000   0000000000000000000000000A9        170192964704     
0010001300130U 020000000000000000000000000000000000000000000000000000000000000000000000000000000000000000000000000000000000000000000000000904201700000000            000000000000000                              000                           
0010001300131T 020180230000002544776 29647040908116696   7               12042017000000000008000001016179                         0900000000000010000000000000000000000000000000000000000   0000000000000000000000000A9        170192964704     
0010001300132U 020000000000000000000000000000000000000000000000000000000000000000000000000000000000000000000000000000000000000000000000001004201700000000            000000000000000                              000                           
0010001300133T 020180230000002544776 29647040911836274   7               12042017000000000006000001011274                         0900000000000010000000000000000000000000000000000000000   0000000000000000000000000A9        170192964704     
0010001300134U 020000000000000000000000000000000000000000000000000000000000000000000000000000000000000000000000000000000000000000000000001004201700000000            000000000000000                              000                           
0010001300135T 020180230000002544776 29647040911848523   7               12042017000000000006000001011274                         0900000000000010000000000000000000000000000000000000000   0000000000000000000000000A9        170192964704     
0010001300136U 020000000000000000000000000000000000000000000000000000000000000000000000000000000000000000000000000000000000000000000000001004201700000000            000000000000000                              000                           
0010001300137T 020180230000002544776 29647040914730575   7               10042017000000000006000001012467                         0900000000000010000000000000000000000000000000000000000   0000000000000000000000000A9        170192964704     
0010001300138U 020000000000000000000000000000000000000000000000000000000000000000000000000000000000000000000000000000000000000000000000000804201700000000            000000000000000                              000                           
0010001300139T 020180230000002544776 29647040918845576   7               11042017000000000008000001006734                         0900000000000010000000000000000000000000000000000000000   0000000000000000000000000A9        170192964704     
0010001300140U 020000000000000000000000000000000000000000000000000000000000000000000000000000000000000000000000000000000000000000000000000904201700000000            000000000000000                              000                           
0010001300141T 020180230000002544776 29647040921039183   7               11042017000000000006000001013668                         0900000000000010000000000000000000000000000000000000000   0000000000000000000000000A9        170192964704     
0010001300142U 020000000000000000000000000000000000000000000000000000000000000000000000000000000000000000000000000000000000000000000000000904201700000000            000000000000000                              000                           
0010001300143T 020180230000002544776 29647040929333150   7               12042017000000000006000001000132                         0900000000000010000000000000000000000000000000000000000   0000000000000000000000000A9        170192964704     
0010001300144U 020000000000000000000000000000000000000000000000000000000000000000000000000000000000000000000000000000000000000000000000001004201700000000            000000000000000                              000                           
0010001300145T 020180230000002544776 29647040935305793   7               1104201700000000000600000101981X                         0900000000000010000000000000000000000000000000000000000   0000000000000000000000000A9        170192964704     
0010001300146U 020000000000000000000000000000000000000000000000000000000000000000000000000000000000000000000000000000000000000000000000000904201700000000            000000000000000                              000                           
0010001300147T 020180230000002544776 29647040944110327   7               12042017000000000006000001028029                         0900000000000010000000000000000000000000000000000000000   0000000000000000000000000A9        170192964704     
0010001300148U 020000000000000000000000000000000000000000000000000000000000000000000000000000000000000000000000000000000000000000000000001004201700000000            000000000000000                              000                           
0010001300149T 020180230000002544776 29647040951730632   7               12042017000000000006000001018376                         0900000000000010000000000000000000000000000000000000000   0000000000000000000000000A9        170192964704     
0010001300150U 020000000000000000000000000000000000000000000000000000000000000000000000000000000000000000000000000000000000000000000000001004201700000000            000000000000000                              000                           
0010001300151T 020180230000002544776 29647040956713770   7               12042017000000000006000001018376                         0900000000000010000000000000000000000000000000000000000   0000000000000000000000000A9        170192964704     
0010001300152U 020000000000000000000000000000000000000000000000000000000000000000000000000000000000000000000000000000000000000000000000001004201700000000            000000000000000                              000                           
0010001300153T 020180230000002544776 29647040956740332   7               10042017000000000006000001018376                         0900000000000010000000000000000000000000000000000000000   0000000000000000000000000A9        170192964704     
0010001300154U 020000000000000000000000000000000000000000000000000000000000000000000000000000000000000000000000000000000000000000000000000804201700000000            000000000000000                              000                           
0010001300155T 020180230000002544776 29647040957421077   7               12042017000000000006000001002003                         0900000000000010000000000000000000000000000000000000000   0000000000000000000000000A9        170192964704     
0010001300156U 020000000000000000000000000000000000000000000000000000000000000000000000000000000000000000000000000000000000000000000000001004201700000000            000000000000000                              000                           
0010001300157T 020180230000002544776 29647040957520839   7               12042017000000000006000001018376                         0900000000000010000000000000000000000000000000000000000   0000000000000000000000000A9        170192964704     
0010001300158U 020000000000000000000000000000000000000000000000000000000000000000000000000000000000000000000000000000000000000000000000001004201700000000            000000000000000                              000                           
0010001300159T 020180230000002544776 29647040963902982   7               10042017000000000006000001033316                         0900000000000010000000000000000000000000000000000000000   0000000000000000000000000A9        170192964704     
0010001300160U 020000000000000000000000000000000000000000000000000000000000000000000000000000000000000000000000000000000000000000000000000804201700000000            000000000000000                              000                           
0010001300161T 020180230000002544776 29647040963921947   7               10042017000000000006000001033316                         0900000000000010000000000000000000000000000000000000000   0000000000000000000000000A9        170192964704     
0010001300162U 020000000000000000000000000000000000000000000000000000000000000000000000000000000000000000000000000000000000000000000000000804201700000000            000000000000000                              000                           
0010001300163T 020180230000002544776 29647040966946668   7               12042017000000000006000001012467                         0900000000000010000000000000000000000000000000000000000   0000000000000000000000000A9        170192964704     
0010001300164U 020000000000000000000000000000000000000000000000000000000000000000000000000000000000000000000000000000000000000000000000001004201700000000            000000000000000                              000                           
0010001300165T 020180230000002544776 29647040967740678   7               10042017000000000008000001020354                         0900000000000010000000000000000000000000000000000000000   0000000000000000000000000A9        170192964704     
0010001300166U 020000000000000000000000000000000000000000000000000000000000000000000000000000000000000000000000000000000000000000000000000804201700000000            000000000000000                              000                           
0010001300167T 020180230000002544776 29647040977058867   7               10042017000000000006000001002003                         0900000000000010000000000000000000000000000000000000000   0000000000000000000000000A9        170192964704     
0010001300168U 020000000000000000000000000000000000000000000000000000000000000000000000000000000000000000000000000000000000000000000000000804201700000000            000000000000000                              000                           
0010001300169T 020180230000002544776 29647040981945269   7               12042017000000000006000001008214                         0900000000000010000000000000000000000000000000000000000   0000000000000000000000000A9        170192964704     
0010001300170U 020000000000000000000000000000000000000000000000000000000000000000000000000000000000000000000000000000000000000000000000001004201700000000            000000000000000                              000                           
0010001300171T 020180230000002544776 29647040984635494   7               11042017000000000006000001007595                         0900000000000010000000000000000000000000000000000000000   0000000000000000000000000A9        170192964704     
0010001300172U 020000000000000000000000000000000000000000000000000000000000000000000000000000000000000000000000000000000000000000000000000904201700000000            000000000000000                              000                           
0010001300173T 020180230000002544776 29647041003632121   7               1204201700000000000600000102337X                         0900000000000010000000000000000000000000000000000000000   0000000000000000000000000A9        170192964704     
0010001300174U 020000000000000000000000000000000000000000000000000000000000000000000000000000000000000000000000000000000000000000000000001004201700000000            000000000000000                              000                           
0010001300175T 020180230000002544776 29647041004008627   7               12042017000000000006000001016810                         0900000000000010000000000000000000000000000000000000000   0000000000000000000000000A9        170192964704     
0010001300176U 020000000000000000000000000000000000000000000000000000000000000000000000000000000000000000000000000000000000000000000000001004201700000000            000000000000000                              000                           
0010001300177T 020180230000002544776 29647041005916761   7               12042017000000000006000001016179                         0900000000000010000000000000000000000000000000000000000   0000000000000000000000000A9        170192964704     
0010001300178U 020000000000000000000000000000000000000000000000000000000000000000000000000000000000000000000000000000000000000000000000001004201700000000            000000000000000                              000                           
0010001300179T 020180230000002544776 29647041007414600   7               11042017000000000006000001000132                         0900000000000010000000000000000000000000000000000000000   0000000000000000000000000A9        170192964704     
0010001300180U 020000000000000000000000000000000000000000000000000000000000000000000000000000000000000000000000000000000000000000000000000904201700000000            000000000000000                              000                           
0010001300181T 020180230000002544776 29647041007444033   7               12042017000000000006000001000132                         0900000000000010000000000000000000000000000000000000000   0000000000000000000000000A9        170192964704     
0010001300182U 020000000000000000000000000000000000000000000000000000000000000000000000000000000000000000000000000000000000000000000000001004201700000000            000000000000000                              000                           
0010001300183T 020180230000002544776 29647041007451082   7               11042017000000000006000001000132                         0900000000000010000000000000000000000000000000000000000   0000000000000000000000000A9        170192964704     
0010001300184U 020000000000000000000000000000000000000000000000000000000000000000000000000000000000000000000000000000000000000000000000000904201700000000            000000000000000                              000                           
0010001300185T 020180230000002544776 29647041012831126   7               10042017000000000008000001012467                         0900000000000010000000000000000000000000000000000000000   0000000000000000000000000A9        170192964704     
0010001300186U 020000000000000000000000000000000000000000000000000000000000000000000000000000000000000000000000000000000000000000000000000804201700000000            000000000000000                              000                           
0010001300187T 020180230000002544776 29647041012944821   7               10042017000000000008000001012467                         0900000000000010000000000000000000000000000000000000000   0000000000000000000000000A9        170192964704     
0010001300188U 020000000000000000000000000000000000000000000000000000000000000000000000000000000000000000000000000000000000000000000000000804201700000000            000000000000000                              000                           
0010001300189T 020180230000002544776 29647041018621398   7               10042017000000000006000001023655                         0900000000000010000000000000000000000000000000000000000   0000000000000000000000000A9        170192964704     
0010001300190U 020000000000000000000000000000000000000000000000000000000000000000000000000000000000000000000000000000000000000000000000000804201700000000            000000000000000                              000                           
0010001300191T 020180230000002544776 29647041021308698   7               12042017000000000006000001012467                         0900000000000010000000000000000000000000000000000000000   0000000000000000000000000A9        170192964704     
0010001300192U 020000000000000000000000000000000000000000000000000000000000000000000000000000000000000000000000000000000000000000000000001004201700000000            000000000000000                              000                           
0010001300193T 020180230000002544776 29647041024604010   7               11042017000000000006000001021911                         0900000000000010000000000000000000000000000000000000000   0000000000000000000000000A9        170192964704     
0010001300194U 020000000000000000000000000000000000000000000000000000000000000000000000000000000000000000000000000000000000000000000000000904201700000000            000000000000000                              000                           
0010001300195T 020180230000002544776 29647041029545031   7               10042017000000000006000001033316                         0900000000000010000000000000000000000000000000000000000   0000000000000000000000000A9        170192964704     
0010001300196U 020000000000000000000000000000000000000000000000000000000000000000000000000000000000000000000000000000000000000000000000000804201700000000            000000000000000                              000                           
0010001300197T 020180230000002544776 29647041030514182   7               11042017000000000006000001025208                         0900000000000010000000000000000000000000000000000000000   0000000000000000000000000A9        170192964704     
0010001300198U 020000000000000000000000000000000000000000000000000000000000000000000000000000000000000000000000000000000000000000000000000904201700000000            000000000000000                              000                           
0010001300199T 020180230000002544776 29647041036342611   7               11042017000000000006000001000698                         0900000000000010000000000000000000000000000000000000000   0000000000000000000000000A9        170192964704     
0010001300200U 020000000000000000000000000000000000000000000000000000000000000000000000000000000000000000000000000000000000000000000000000904201700000000            000000000000000                              000                           
0010001300201T 020180230000002544776 29647041037733298   7               11042017000000000006000001010502                         0900000000000010000000000000000000000000000000000000000   0000000000000000000000000A9        170192964704     
0010001300202U 020000000000000000000000000000000000000000000000000000000000000000000000000000000000000000000000000000000000000000000000000904201700000000            000000000000000                              000                           
0010001300203T 020180230000002544776 29647041038835453   7               1004201700000000000600000101981X                         0900000000000010000000000000000000000000000000000000000   0000000000000000000000000A9        170192964704     
0010001300204U 020000000000000000000000000000000000000000000000000000000000000000000000000000000000000000000000000000000000000000000000000804201700000000            000000000000000                              000                           
0010001300205T 020180230000002544776 29647041038857698   7               1204201700000000000600000101981X                         0900000000000010000000000000000000000000000000000000000   0000000000000000000000000A9        170192964704     
0010001300206U 020000000000000000000000000000000000000000000000000000000000000000000000000000000000000000000000000000000000000000000000001004201700000000            000000000000000                              000                           
0010001300207T 020180230000002544776 29647041040530968   7               11042017000000000008000001000132                         0900000000000010000000000000000000000000000000000000000   0000000000000000000000000A9        170192964704     
0010001300208U 020000000000000000000000000000000000000000000000000000000000000000000000000000000000000000000000000000000000000000000000000904201700000000            000000000000000                              000                           
0010001300209T 020180230000002544776 29647041040553530   7               11042017000000000008000001000132                         0900000000000010000000000000000000000000000000000000000   0000000000000000000000000A9        170192964704     
0010001300210U 020000000000000000000000000000000000000000000000000000000000000000000000000000000000000000000000000000000000000000000000000904201700000000            000000000000000                              000                           
0010001300211T 020180230000002544776 29647041049835323   7               12042017000000000008000001032859                         0900000000000010000000000000000000000000000000000000000   0000000000000000000000000A9        170192964704     
0010001300212U 020000000000000000000000000000000000000000000000000000000000000000000000000000000000000000000000000000000000000000000000001004201700000000            000000000000000                              000                           
0010001300213T 020180230000002544776 29647041053802233   7               11042017000000000006000001023655                         0900000000000010000000000000000000000000000000000000000   0000000000000000000000000A9        170192964704     
0010001300214U 020000000000000000000000000000000000000000000000000000000000000000000000000000000000000000000000000000000000000000000000000904201700000000            000000000000000                              000                           
0010001300215T 020180230000002544776 29647041053803743   7               11042017000000000006000001023655                         0900000000000010000000000000000000000000000000000000000   0000000000000000000000000A9        170192964704     
0010001300216U 020000000000000000000000000000000000000000000000000000000000000000000000000000000000000000000000000000000000000000000000000904201700000000            000000000000000                              000                           
0010001300217T 020180230000002544776 29647041053830176   7               11042017000000000006000001023655                         0900000000000010000000000000000000000000000000000000000   0000000000000000000000000A9        170192964704     
0010001300218U 020000000000000000000000000000000000000000000000000000000000000000000000000000000000000000000000000000000000000000000000000904201700000000            000000000000000                              000                           
0010001300219T 020180230000002544776 29647041054152951   7               11042017000000000006000001018376                         0900000000000010000000000000000000000000000000000000000   0000000000000000000000000A9        170192964704     
0010001300220U 020000000000000000000000000000000000000000000000000000000000000000000000000000000000000000000000000000000000000000000000000904201700000000            000000000000000                              000                           
0010001300221T 020180230000002544776 29647041068903936   7               1004201700000000000600000101981X                         0900000000000010000000000000000000000000000000000000000   0000000000000000000000000A9        170192964704     
0010001300222U 020000000000000000000000000000000000000000000000000000000000000000000000000000000000000000000000000000000000000000000000000804201700000000            000000000000000                              000                           
0010001300223T 020180230000002544776 29647041086120850   7               10042017000000000008000001000132                         0900000000000010000000000000000000000000000000000000000   0000000000000000000000000A9        170192964704     
0010001300224U 020000000000000000000000000000000000000000000000000000000000000000000000000000000000000000000000000000000000000000000000000804201700000000            000000000000000                              000                           
0010001300225T 020180230000002544776 29647041095811779   7               10042017000000000006000001028029                         0900000000000010500000000000000000000000000000000000000   0000000000000000000000000A9A4      170192964704     
0010001300226U 020000000000000000000000000000000000000000000000000000000000000000000000000000000000000000000000000000000000000000000000000804201700000000            000000000000000                              000                           
0010001300227T 020180230000002544776 29647041095829409   7               11042017000000000006000001028029                         0900000000000010500000000000000000000000000000000000000   0000000000000000000000000A9A4      170192964704     
0010001300228U 020000000000000000000000000000000000000000000000000000000000000000000000000000000000000000000000000000000000000000000000000904201700000000            000000000000000                              000                           
0010001300229T 020180230000002544776 29647041107504994   7               12042017000000000006000001028029                         0900000000000010000000000000000000000000000000000000000   0000000000000000000000000A9        170192964704     
0010001300230U 020000000000000000000000000000000000000000000000000000000000000000000000000000000000000000000000000000000000000000000000001004201700000000            000000000000000                              000                           
0010001300231T 020180230000002544776 29647041107545318   7               11042017000000000006000001028029                         0900000000000010000000000000000000000000000000000000000   0000000000000000000000000A9        170192964704     
0010001300232U 020000000000000000000000000000000000000000000000000000000000000000000000000000000000000000000000000000000000000000000000000904201700000000            000000000000000                              000                           
0010001300233T 020180230000002544776 29647041111008163   7               1104201700000000000600000101110X                         0900000000000010000000000000000000000000000000000000000   0000000000000000000000000A9        170192964704     
0010001300234U 020000000000000000000000000000000000000000000000000000000000000000000000000000000000000000000000000000000000000000000000000904201700000000            000000000000000                              000                           
0010001300235T 020180230000002544776 29647041114743903   7               10042017000000000006000001026972                         0900000000000010000000000000000000000000000000000000000   0000000000000000000000000A9        170192964704     
0010001300236U 020000000000000000000000000000000000000000000000000000000000000000000000000000000000000000000000000000000000000000000000000804201700000000            000000000000000                              000                           
0010001300237T 020180230000002544776 29647041120710928   7               11042017000000000006000001038148                         0900000000000010000000000000000000000000000000000000000   0000000000000000000000000A9        170192964704     
0010001300238U 020000000000000000000000000000000000000000000000000000000000000000000000000000000000000000000000000000000000000000000000000904201700000000            000000000000000                              000                           
0010001300239T 020180230000002544776 29647041126706147   7               10042017000000000006000001016179                         0900000000000010000000000000000000000000000000000000000   0000000000000000000000000A9        170192964704     
0010001300240U 020000000000000000000000000000000000000000000000000000000000000000000000000000000000000000000000000000000000000000000000000804201700000000            000000000000000                              000                           
0010001300241T 020180230000002544776 29647041130216692   7               10042017000000000006000001020354                         0900000000000010000000000000000000000000000000000000000   0000000000000000000000000A9        170192964704     
0010001300242U 020000000000000000000000000000000000000000000000000000000000000000000000000000000000000000000000000000000000000000000000000804201700000000            000000000000000                              000                           
0010001300243T 020180230000002544776 29647041132024452   7               11042017000000000006000001033316                         0900000000000010000000000000000000000000000000000000000   0000000000000000000000000A9        170192964704     
0010001300244U 020000000000000000000000000000000000000000000000000000000000000000000000000000000000000000000000000000000000000000000000000904201700000000            000000000000000                              000                           
0010001300245T 020180230000002544776 29647041149952812   7               10042017000000000008000001028029                         0900000000000010000000000000000000000000000000000000000   0000000000000000000000000A9        170192964704     
0010001300246U 020000000000000000000000000000000000000000000000000000000000000000000000000000000000000000000000000000000000000000000000000804201700000000            000000000000000                              000                           
0010001300247T 020180230000002544776 29647041150816921   7               12042017000000000008000001016179                         0900000000000010000000000000000000000000000000000000000   0000000000000000000000000A9        170192964704     
0010001300248U 020000000000000000000000000000000000000000000000000000000000000000000000000000000000000000000000000000000000000000000000001004201700000000            000000000000000                              000                           
0010001300249T 020180230000002544776 29647041155130097   7               11042017000000000006000001000132                         0900000000000010000000000000000000000000000000000000000   0000000000000000000000000A9        170192964704     
0010001300250U 020000000000000000000000000000000000000000000000000000000000000000000000000000000000000000000000000000000000000000000000000904201700000000            000000000000000                              000                           
0010001300251T 020180230000002544776 29647041159308684   7               11042017000000000006000001001511                         0900000000000010000000000000000000000000000000000000000   0000000000000000000000000A9        170192964704     
0010001300252U 020000000000000000000000000000000000000000000000000000000000000000000000000000000000000000000000000000000000000000000000000904201700000000            000000000000000                              000                           
0010001300253T 020180230000002544776 29647041165649932   7               12042017000000000006000001033316                         0900000000000010000000000000000000000000000000000000000   0000000000000000000000000A9        170192964704     
0010001300254U 020000000000000000000000000000000000000000000000000000000000000000000000000000000000000000000000000000000000000000000000001004201700000000            000000000000000                              000                           
0010001300255T 020180230000002544776 29647041184312878   7               1104201700000000000600000100233X                         0900000000000010000000000000000000000000000000000000000   0000000000000000000000000A9        170192964704     
0010001300256U 020000000000000000000000000000000000000000000000000000000000000000000000000000000000000000000000000000000000000000000000000904201700000000            000000000000000                              000                           
0010001300257T 020180230000002544776 29647041197510654   7               10042017000000000008000001000132                         0900000000000010000000000000000000000000000000000000000   0000000000000000000000000A9        170192964704     
0010001300258U 020000000000000000000000000000000000000000000000000000000000000000000000000000000000000000000000000000000000000000000000000804201700000000            000000000000000                              000                           
0010001300259T 020180230000002544776 29647041197531116   7               12042017000000000008000001000132                         0900000000000010000000000000000000000000000000000000000   0000000000000000000000000A9        170192964704     
0010001300260U 020000000000000000000000000000000000000000000000000000000000000000000000000000000000000000000000000000000000000000000000001004201700000000            000000000000000                              000                           
0010001300261T 020180230000002544776 29647041200103037   7               12042017000000000006000001018376                         0900000000000010000000000000000000000000000000000000000   0000000000000000000000000A9        170192964704     
0010001300262U 020000000000000000000000000000000000000000000000000000000000000000000000000000000000000000000000000000000000000000000000001004201700000000            000000000000000                              000                           
0010001300263T 020180230000002544776 29647041206216492   7               12042017000000000006000001020354                         0900000000000010000000000000000000000000000000000000000   0000000000000000000000000A9        170192964704     
0010001300264U 020000000000000000000000000000000000000000000000000000000000000000000000000000000000000000000000000000000000000000000000001004201700000000            000000000000000                              000                           
0010001300265T 020180230000002544776 29647041209303691   7               10042017000000000008000001028029                         0900000000000010000000000000000000000000000000000000000   0000000000000000000000000A9        170192964704     
0010001300266U 020000000000000000000000000000000000000000000000000000000000000000000000000000000000000000000000000000000000000000000000000804201700000000            000000000000000                              000                           
0010001300267T 020180230000002544776 29647041209313351   7               10042017000000000008000001028029                         0900000000000010000000000000000000000000000000000000000   0000000000000000000000000A9        170192964704     
0010001300268U 020000000000000000000000000000000000000000000000000000000000000000000000000000000000000000000000000000000000000000000000000804201700000000            000000000000000                              000                           
0010001300269T 020180230000002544776 29647041209336332   7               10042017000000000008000001028029                         0900000000000010000000000000000000000000000000000000000   0000000000000000000000000A9        170192964704     
0010001300270U 020000000000000000000000000000000000000000000000000000000000000000000000000000000000000000000000000000000000000000000000000804201700000000            000000000000000                              000                           
0010001300271T 020180230000002544776 29647041209354660   7               10042017000000000008000001028029                         0900000000000010000000000000000000000000000000000000000   0000000000000000000000000A9        170192964704     
0010001300272U 020000000000000000000000000000000000000000000000000000000000000000000000000000000000000000000000000000000000000000000000000804201700000000            000000000000000                              000                           
0010001300273T 020180230000002544776 29647041209801836   7               1004201700000000000600000100233X                         0900000000000010000000000000000000000000000000000000000   0000000000000000000000000A9        170192964704     
0010001300274U 020000000000000000000000000000000000000000000000000000000000000000000000000000000000000000000000000000000000000000000000000804201700000000            000000000000000                              000                           
0010001300275T 020180230000002544776 29647041209821493   7               1204201700000000000600000100233X                         0900000000000010000000000000000000000000000000000000000   0000000000000000000000000A9        170192964704     
0010001300276U 020000000000000000000000000000000000000000000000000000000000000000000000000000000000000000000000000000000000000000000000001004201700000000            000000000000000                              000                           
0010001300277T 020180230000002544776 29647041211539629   7               10042017000000000006000001033316                         0900000000000010000000000000000000000000000000000000000   0000000000000000000000000A9        170192964704     
0010001300278U 020000000000000000000000000000000000000000000000000000000000000000000000000000000000000000000000000000000000000000000000000804201700000000            000000000000000                              000                           
0010001300279T 020180230000002544776 29647041217222674   7               10042017000000000006000001011088                         0900000000000010000000000000000000000000000000000000000   0000000000000000000000000A9        170192964704     
0010001300280U 020000000000000000000000000000000000000000000000000000000000000000000000000000000000000000000000000000000000000000000000000804201700000000            000000000000000                              000                           
0010001300281T 020180230000002544776 29647041217223544   7               11042017000000000006000001011088                         0900000000000010000000000000000000000000000000000000000   0000000000000000000000000A9        170192964704     
0010001300282U 020000000000000000000000000000000000000000000000000000000000000000000000000000000000000000000000000000000000000000000000000904201700000000            000000000000000                              000                           
0010001300283T 020180230000002544776 29647041217256434   7               10042017000000000006000001011088                         0900000000000010000000000000000000000000000000000000000   0000000000000000000000000A9        170192964704     
0010001300284U 020000000000000000000000000000000000000000000000000000000000000000000000000000000000000000000000000000000000000000000000000804201700000000            000000000000000                              000                           
0010001300285T 020180230000002544776 29647041226703827   7               10042017000000000006000001016179                         0900000000000010000000000000000000000000000000000000000   0000000000000000000000000A9        170192964704     
0010001300286U 020000000000000000000000000000000000000000000000000000000000000000000000000000000000000000000000000000000000000000000000000804201700000000            000000000000000                              000                           
0010001300287T 020180230000002544776 29647041232412850   7               11042017000000000006000001001104                         0900000000000010000000000000000000000000000000000000000   0000000000000000000000000A9        170192964704     
0010001300288U 020000000000000000000000000000000000000000000000000000000000000000000000000000000000000000000000000000000000000000000000000904201700000000            000000000000000                              000                           
0010001300289T 020180230000002544776 29647041234101376   7               12042017000000000006000001033316                         0900000000000010000000000000000000000000000000000000000   0000000000000000000000000A9        170192964704     
0010001300290U 020000000000000000000000000000000000000000000000000000000000000000000000000000000000000000000000000000000000000000000000001004201700000000            000000000000000                              000                           
0010001300291T 020180230000002544776 29647041238933182   7               10042017000000000006000001016179                         0900000000000010500000000000000000000000000000000000000   0000000000000000000000000A9A4      170192964704     
0010001300292U 020000000000000000000000000000000000000000000000000000000000000000000000000000000000000000000000000000000000000000000000000804201700000000            000000000000000                              000                           
0010001300293T 020180230000002544776 29647041251947336   7               11042017000000000006000001033316                         0900000000000010000000000000000000000000000000000000000   0000000000000000000000000A9        170192964704     
0010001300294U 020000000000000000000000000000000000000000000000000000000000000000000000000000000000000000000000000000000000000000000000000904201700000000            000000000000000                              000                           
0010001300295T 020180230000002544776 29647041252608542   7               10042017000000000008000001038024                         0900000000000010000000000000000000000000000000000000000   0000000000000000000000000A9        170192964704     
0010001300296U 020000000000000000000000000000000000000000000000000000000000000000000000000000000000000000000000000000000000000000000000000804201700000000            000000000000000                              000                           
0010001300297T 020180230000002544776 29647041252628515   7               11042017000000000008000001038024                         0900000000000010000000000000000000000000000000000000000   0000000000000000000000000A9        170192964704     
0010001300298U 020000000000000000000000000000000000000000000000000000000000000000000000000000000000000000000000000000000000000000000000000904201700000000            000000000000000                              000                           
0010001300299T 020180230000002544776 29647041272647398   7               11042017000000000006000001033316                         0900000000000010000000000000000000000000000000000000000   0000000000000000000000000A9        170192964704     
0010001300300U 020000000000000000000000000000000000000000000000000000000000000000000000000000000000000000000000000000000000000000000000000904201700000000            000000000000000                              000                           
0010001300301T 020180230000002544776 29647041275928782   7               11042017000000000006000001028029                         0900000000000010000000000000000000000000000000000000000   0000000000000000000000000A9        170192964704     
0010001300302U 020000000000000000000000000000000000000000000000000000000000000000000000000000000000000000000000000000000000000000000000000904201700000000            000000000000000                              000                           
0010001300303T 020180230000002544776 29647041276827737   7               10042017000000000006000001001597                         0900000000000010500000000000000000000000000000000000000   0000000000000000000000000A9A4      170192964704     
0010001300304U 020000000000000000000000000000000000000000000000000000000000000000000000000000000000000000000000000000000000000000000000000804201700000000            000000000000000                              000                           
0010001300305T 020180230000002544776 29647041281710362   7               11042017000000000006000001028029                         0900000000000010000000000000000000000000000000000000000   0000000000000000000000000A9        170192964704     
0010001300306U 020000000000000000000000000000000000000000000000000000000000000000000000000000000000000000000000000000000000000000000000000904201700000000            000000000000000                              000                           
0010001300307T 020180230000002544776 29647041284128301   7               11042017000000000006000001016179                         0900000000000010000000000000000000000000000000000000000   0000000000000000000000000A9        170192964704     
0010001300308U 020000000000000000000000000000000000000000000000000000000000000000000000000000000000000000000000000000000000000000000000000904201700000000            000000000000000                              000                           
0010001300309T 020180230000002544776 29647041284832887   7               11042017000000000006000001023655                         0900000000000010000000000000000000000000000000000000000   0000000000000000000000000A9        170192964704     
0010001300310U 020000000000000000000000000000000000000000000000000000000000000000000000000000000000000000000000000000000000000000000000000904201700000000            000000000000000                              000                           
0010001300311T 020180230000002544776 29647041286951939   7               11042017000000000008000001013692                         0900000000000010000000000000000000000000000000000000000   0000000000000000000000000A9        170192964704     
0010001300312U 020000000000000000000000000000000000000000000000000000000000000000000000000000000000000000000000000000000000000000000000000904201700000000            000000000000000                              000                           
0010001300313T 020180230000002544776 29647041306320020   7               09042017000000000006000001016179                         0900000000000010000000000000000000000000000000000000000   0000000000000000000000000A9        170192964704     
0010001300314U 020000000000000000000000000000000000000000000000000000000000000000000000000000000000000000000000000000000000000000000000000704201700000000            000000000000000                              000                           
0010001300315T 020180230000002544776 29647041309911399   7               10042017000000000006000001016179                         0900000000000010000000000000000000000000000000000000000   0000000000000000000000000A9        170192964704     
0010001300316U 020000000000000000000000000000000000000000000000000000000000000000000000000000000000000000000000000000000000000000000000000804201700000000            000000000000000                              000                           
0010001300317T 020180230000002544776 29647041311353246   7               12042017000000000006000001010421                         0900000000000010000000000000000000000000000000000000000   0000000000000000000000000A9        170192964704     
0010001300318U 020000000000000000000000000000000000000000000000000000000000000000000000000000000000000000000000000000000000000000000000001004201700000000            000000000000000                              000                           
0010001300319T 020180230000002544776 29647041311634959   7               12042017000000000006000001000132                         0900000000000010000000000000000000000000000000000000000   0000000000000000000000000A9        170192964704     
0010001300320U 020000000000000000000000000000000000000000000000000000000000000000000000000000000000000000000000000000000000000000000000001004201700000000            000000000000000                              000                           
0010001300321T 020180230000002544776 29647041312505254   7               10042017000000000006000001002208                         0900000000000010000000000000000000000000000000000000000   0000000000000000000000000A9        170192964704     
0010001300322U 020000000000000000000000000000000000000000000000000000000000000000000000000000000000000000000000000000000000000000000000000804201700000000            000000000000000                              000                           
0010001300323T 020180230000002544776 29647041315335532   7               12042017000000000006000001010421                         0900000000000010500000000000000000000000000000000000000   0000000000000000000000000A9A4      170192964704     
0010001300324U 020000000000000000000000000000000000000000000000000000000000000000000000000000000000000000000000000000000000000000000000001004201700000000            000000000000000                              000                           
0010001300325T 020180230000002544776 29647041315335934   7               12042017000000000006000001010421                         0900000000000010500000000000000000000000000000000000000   0000000000000000000000000A9A4      170192964704     
0010001300326U 020000000000000000000000000000000000000000000000000000000000000000000000000000000000000000000000000000000000000000000000001004201700000000            000000000000000                              000                           
0010001300327T 020180230000002544776 29647041315354901   7               12042017000000000006000001010421                         0900000000000010500000000000000000000000000000000000000   0000000000000000000000000A9A4      170192964704     
0010001300328U 020000000000000000000000000000000000000000000000000000000000000000000000000000000000000000000000000000000000000000000000001004201700000000            000000000000000                              000                           
0010001300329T 020180230000002544776 29647041317754281   7               12042017000000000006000001028029                         0900000000000010000000000000000000000000000000000000000   0000000000000000000000000A9        170192964704     
0010001300330U 020000000000000000000000000000000000000000000000000000000000000000000000000000000000000000000000000000000000000000000000001004201700000000            000000000000000                              000                           
0010001300331T 020180230000002544776 29647041319238873   7               10042017000000000006000001018376                         0900000000000010000000000000000000000000000000000000000   0000000000000000000000000A9        170192964704     
0010001300332U 020000000000000000000000000000000000000000000000000000000000000000000000000000000000000000000000000000000000000000000000000804201700000000            000000000000000                              000                           
0010001300333T 020180230000002544776 29647041323513887   7               12042017000000000006000001016179                         0900000000000010000000000000000000000000000000000000000   0000000000000000000000000A9        170192964704     
0010001300334U 020000000000000000000000000000000000000000000000000000000000000000000000000000000000000000000000000000000000000000000000001004201700000000            000000000000000                              000                           
0010001300335T 020180230000002544776 29647041325007819   7               1104201700000000000800000101284X                         0900000000000010000000000000000000000000000000000000000   0000000000000000000000000A9        170192964704     
0010001300336U 020000000000000000000000000000000000000000000000000000000000000000000000000000000000000000000000000000000000000000000000000904201700000000            000000000000000                              000                           
0010001300337T 020180230000002544776 29647041328255942   7               12042017000000000006000001035041                         0900000000000010000000000000000000000000000000000000000   0000000000000000000000000A9        170192964704     
0010001300338U 020000000000000000000000000000000000000000000000000000000000000000000000000000000000000000000000000000000000000000000000001004201700000000            000000000000000                              000                           
0010001300339T 020180230000002544776 29647041336812098   7               10042017000000000006000001007145                         0900000000000010000000000000000000000000000000000000000   0000000000000000000000000A9        170192964704     
0010001300340U 020000000000000000000000000000000000000000000000000000000000000000000000000000000000000000000000000000000000000000000000000804201700000000            000000000000000                              000                           
0010001300341T 020180230000002544776 29647041336903963   7               10042017000000000006000001017108                         0900000000000010000000000000000000000000000000000000000   0000000000000000000000000A9        170192964704     
0010001300342U 020000000000000000000000000000000000000000000000000000000000000000000000000000000000000000000000000000000000000000000000000804201700000000            000000000000000                              000                           
0010001300343T 020180230000002544776 29647041336956431   7               11042017000000000006000001017108                         0900000000000010000000000000000000000000000000000000000   0000000000000000000000000A9        170192964704     
0010001300344U 020000000000000000000000000000000000000000000000000000000000000000000000000000000000000000000000000000000000000000000000000904201700000000            000000000000000                              000                           
0010001300345T 020180230000002544776 29647041337131824   7               12042017000000000006000001000132                         0900000000000010000000000000000000000000000000000000000   0000000000000000000000000A9        170192964704     
0010001300346U 020000000000000000000000000000000000000000000000000000000000000000000000000000000000000000000000000000000000000000000000001004201700000000            000000000000000                              000                           
0010001300347T 020180230000002544776 29647041337852965   7               11042017000000000008000001035033                         0900000000000010000000000000000000000000000000000000000   0000000000000000000000000A9        170192964704     
0010001300348U 020000000000000000000000000000000000000000000000000000000000000000000000000000000000000000000000000000000000000000000000000904201700000000            000000000000000                              000                           
0010001300349T 020180230000002544776 29647041338011646   7               10042017000000000008000001012467                         0900000000000010000000000000000000000000000000000000000   0000000000000000000000000A9        170192964704     
0010001300350U 020000000000000000000000000000000000000000000000000000000000000000000000000000000000000000000000000000000000000000000000000804201700000000            000000000000000                              000                           
0010001300351T 020180230000002544776 29647041338031556   7               12042017000000000008000001012467                         0900000000000010000000000000000000000000000000000000000   0000000000000000000000000A9        170192964704     
0010001300352U 020000000000000000000000000000000000000000000000000000000000000000000000000000000000000000000000000000000000000000000000001004201700000000            000000000000000                              000                           
0010001300353T 020180230000002544776 29647041338054479   7               12042017000000000008000001012467                         0900000000000010000000000000000000000000000000000000000   0000000000000000000000000A9        170192964704     
0010001300354U 020000000000000000000000000000000000000000000000000000000000000000000000000000000000000000000000000000000000000000000000001004201700000000            000000000000000                              000                           
0010001300355T 020180230000002544776 29647041338104936   7               10042017000000000008000001012467                         0900000000000010000000000000000000000000000000000000000   0000000000000000000000000A9        170192964704     
0010001300356U 020000000000000000000000000000000000000000000000000000000000000000000000000000000000000000000000000000000000000000000000000804201700000000            000000000000000                              000                           
0010001300357T 020180230000002544776 29647041338133637   7               10042017000000000008000001012467                         0900000000000010000000000000000000000000000000000000000   0000000000000000000000000A9        170192964704     
0010001300358U 020000000000000000000000000000000000000000000000000000000000000000000000000000000000000000000000000000000000000000000000000804201700000000            000000000000000                              000                           
0010001300359T 020180230000002544776 29647041338509189   7               12042017000000000006000001016179                         0900000000000010000000000000000000000000000000000000000   0000000000000000000000000A9        170192964704     
0010001300360U 020000000000000000000000000000000000000000000000000000000000000000000000000000000000000000000000000000000000000000000000001004201700000000            000000000000000                              000                           
0010001300361T 020180230000002544776 29647041338601117   7               10042017000000000006000001035041                         0900000000000010000000000000000000000000000000000000000   0000000000000000000000000A9        170192964704     
0010001300362U 020000000000000000000000000000000000000000000000000000000000000000000000000000000000000000000000000000000000000000000000000804201700000000            000000000000000                              000                           
0010001300363T 020180230000002544776 29647041347600233   7               12042017000000000006000001028029                         0900000000000010000000000000000000000000000000000000000   0000000000000000000000000A9        170192964704     
0010001300364U 020000000000000000000000000000000000000000000000000000000000000000000000000000000000000000000000000000000000000000000000001004201700000000            000000000000000                              000                           
0010001300365T 020180230000002544776 29647041347623863   7               12042017000000000006000001028029                         0900000000000010000000000000000000000000000000000000000   0000000000000000000000000A9        170192964704     
0010001300366U 020000000000000000000000000000000000000000000000000000000000000000000000000000000000000000000000000000000000000000000000001004201700000000            000000000000000                              000                           
0010001300367T 020180230000002544776 29647041347644180   7               12042017000000000006000001028029                         0900000000000010000000000000000000000000000000000000000   0000000000000000000000000A9        170192964704     
0010001300368U 020000000000000000000000000000000000000000000000000000000000000000000000000000000000000000000000000000000000000000000000001004201700000000            000000000000000                              000                           
0010001300369T 020180230000002544776 29647041353420774   7               10042017000000000006000001001643                         0900000000000010000000000000000000000000000000000000000   0000000000000000000000000A9        170192964704     
0010001300370U 020000000000000000000000000000000000000000000000000000000000000000000000000000000000000000000000000000000000000000000000000804201700000000            000000000000000                              000                           
0010001300371T 020180230000002544776 29647041356337061   7               10042017000000000006000001020354                         0900000000000010000000000000000000000000000000000000000   0000000000000000000000000A9        170192964704     
0010001300372U 020000000000000000000000000000000000000000000000000000000000000000000000000000000000000000000000000000000000000000000000000804201700000000            000000000000000                              000                           
0010001300373T 020180230000002544776 29647041360632110   7               11042017000000000006000001023655                         0900000000000010000000000000000000000000000000000000000   0000000000000000000000000A9        170192964704     
0010001300374U 020000000000000000000000000000000000000000000000000000000000000000000000000000000000000000000000000000000000000000000000000904201700000000            000000000000000                              000                           
0010001300375T 020180230000002544776 29647041360656721   7               11042017000000000006000001023655                         0900000000000010000000000000000000000000000000000000000   0000000000000000000000000A9        170192964704     
0010001300376U 020000000000000000000000000000000000000000000000000000000000000000000000000000000000000000000000000000000000000000000000000904201700000000            000000000000000                              000                           
0010001300377T 020180230000002544776 29647041360910382   7               12042017000000000006000001028029                         0900000000000010000000000000000000000000000000000000000   0000000000000000000000000A9        170192964704     
0010001300378U 020000000000000000000000000000000000000000000000000000000000000000000000000000000000000000000000000000000000000000000000001004201700000000            000000000000000                              000                           
0010001300379T 020180230000002544776 29647041360923823   7               10042017000000000006000001028029                         0900000000000010000000000000000000000000000000000000000   0000000000000000000000000A9        170192964704     
0010001300380U 020000000000000000000000000000000000000000000000000000000000000000000000000000000000000000000000000000000000000000000000000804201700000000            000000000000000                              000                           
0010001300381T 020180230000002544776 29647041360942186   7               11042017000000000006000001028029                         0900000000000010000000000000000000000000000000000000000   0000000000000000000000000A9        170192964704     
0010001300382U 020000000000000000000000000000000000000000000000000000000000000000000000000000000000000000000000000000000000000000000000000904201700000000            000000000000000                              000                           
0010001300383T 020180230000002544776 29647041369138519   7               11042017000000000006000001009636                         0900000000000010000000000000000000000000000000000000000   0000000000000000000000000A9        170192964704     
0010001300384U 020000000000000000000000000000000000000000000000000000000000000000000000000000000000000000000000000000000000000000000000000904201700000000            000000000000000                              000                           
0010001300385T 020180230000002544776 29647041369358988   7               12042017000000000006000001016179                         0900000000000010000000000000000000000000000000000000000   0000000000000000000000000A9        170192964704     
0010001300386U 020000000000000000000000000000000000000000000000000000000000000000000000000000000000000000000000000000000000000000000000001004201700000000            000000000000000                              000                           
0010001300387T 020180230000002544776 29647041375512167   7               12042017000000000006000001028029                         0900000000000010000000000000000000000000000000000000000   0000000000000000000000000A9        170192964704     
0010001300388U 020000000000000000000000000000000000000000000000000000000000000000000000000000000000000000000000000000000000000000000000001004201700000000            000000000000000                              000                           
0010001300389T 020180230000002544776 29647041376621257   7               11042017000000000008000001012467                         0900000000000010000000000000000000000000000000000000000   0000000000000000000000000A9        170192964704     
0010001300390U 020000000000000000000000000000000000000000000000000000000000000000000000000000000000000000000000000000000000000000000000000904201700000000            000000000000000                              000                           
0010001300391T 020180230000002544776 29647041376635961   7               11042017000000000008000001012467                         0900000000000010000000000000000000000000000000000000000   0000000000000000000000000A9        170192964704     
0010001300392U 020000000000000000000000000000000000000000000000000000000000000000000000000000000000000000000000000000000000000000000000000904201700000000            000000000000000                              000                           
0010001300393T 020180230000002544776 29647041387212141   7               1004201700000000000600000102547X                         0900000000000010000000000000000000000000000000000000000   0000000000000000000000000A9        170192964704     
0010001300394U 020000000000000000000000000000000000000000000000000000000000000000000000000000000000000000000000000000000000000000000000000804201700000000            000000000000000                              000                           
0010001300395T 020180230000002544776 29647041387220658   7               1204201700000000000600000102547X                         0900000000000010000000000000000000000000000000000000000   0000000000000000000000000A9        170192964704     
0010001300396U 020000000000000000000000000000000000000000000000000000000000000000000000000000000000000000000000000000000000000000000000001004201700000000            000000000000000                              000                           
0010001300397T 020180230000002544776 29647041387237806   7               1204201700000000000600000102547X                         0900000000000010000000000000000000000000000000000000000   0000000000000000000000000A9        170192964704     
0010001300398U 020000000000000000000000000000000000000000000000000000000000000000000000000000000000000000000000000000000000000000000000001004201700000000            000000000000000                              000                           
0010001300399T 020180230000002544776 29647041387240860   7               1204201700000000000600000102547X                         0900000000000010000000000000000000000000000000000000000   0000000000000000000000000A9        170192964704     
0010001300400U 020000000000000000000000000000000000000000000000000000000000000000000000000000000000000000000000000000000000000000000000001004201700000000            000000000000000                              000                           
0010001300401T 020180230000002544776 29647041387255747   7               1004201700000000000600000102547X                         0900000000000010000000000000000000000000000000000000000   0000000000000000000000000A9        170192964704     
0010001300402U 020000000000000000000000000000000000000000000000000000000000000000000000000000000000000000000000000000000000000000000000000804201700000000            000000000000000                              000                           
0010001300403T 020180230000002544776 29647041388103255   7               12042017000000000006000001028029                         0900000000000010000000000000000000000000000000000000000   0000000000000000000000000A9        170192964704     
0010001300404U 020000000000000000000000000000000000000000000000000000000000000000000000000000000000000000000000000000000000000000000000001004201700000000            000000000000000                              000                           
0010001300405T 020180230000002544776 29647041388152539   7               10042017000000000006000001028029                         0900000000000010000000000000000000000000000000000000000   0000000000000000000000000A9        170192964704     
0010001300406U 020000000000000000000000000000000000000000000000000000000000000000000000000000000000000000000000000000000000000000000000000804201700000000            000000000000000                              000                           
0010001300407T 020180230000002544776 29647041389030136   7               12042017000000000006000001028029                         0900000000000010000000000000000000000000000000000000000   0000000000000000000000000A9        170192964704     
0010001300408U 020000000000000000000000000000000000000000000000000000000000000000000000000000000000000000000000000000000000000000000000001004201700000000            000000000000000                              000                           
0010001300409T 020180230000002544776 29647041392105552   7               10042017000000000008000001016179                         0900000000000010000000000000000000000000000000000000000   0000000000000000000000000A9        170192964704     
0010001300410U 020000000000000000000000000000000000000000000000000000000000000000000000000000000000000000000000000000000000000000000000000804201700000000            000000000000000                              000                           
0010001300411T 020180230000002544776 29647041397026352   7               10042017000000000006000001018376                         0900000000000010000000000000000000000000000000000000000   0000000000000000000000000A9        170192964704     
0010001300412U 020000000000000000000000000000000000000000000000000000000000000000000000000000000000000000000000000000000000000000000000000804201700000000            000000000000000                              000                           
