00100000         2247745860001000029647040014       0180230000002544776 INSTITUTO DE SELECAO E TECNOLOBANCO DO BRASIL                         21104201701461700010003000000515122941PROCESSAMEN                                                 
00100011T0100020 20247745860001000029647040014       0180230000002544776 INSTITUTO DE SELECAO E TECNOLO                                                                                000000001104201700000000  000000000                      
0010001300001T 020180230000002544776 29647040518849338   7               13042017000000000006000001000493                         0900000000000010000000000000000000000000000000000000000   0000000000000000000000000A9        170192964704     
0010001300002U 020000000000000000000000000000000000000000000000000000000000000000000000000000000000000000000000000000000000000000000000001104201700000000            000000000000000                              000                           
0010001300003T 020180230000002544776 29647040526824703   7               13042017000000000006000001028029                         0900000000000010000000000000000000000000000000000000000   0000000000000000000000000A9        170192964704     
0010001300004U 020000000000000000000000000000000000000000000000000000000000000000000000000000000000000000000000000000000000000000000000001104201700000000            000000000000000                              000                           
0010001300005T 020180230000002544776 29647040526853389   7               13042017000000000006000001028029                         0900000000000010000000000000000000000000000000000000000   0000000000000000000000000A9        170192964704     
0010001300006U 020000000000000000000000000000000000000000000000000000000000000000000000000000000000000000000000000000000000000000000000001104201700000000            000000000000000                              000                           
0010001300007T 020180230000002544776 29647040537443142   7               13042017000000000006000001012467                         0900000000000010000000000000000000000000000000000000000   0000000000000000000000000A9        170192964704     
0010001300008U 020000000000000000000000000000000000000000000000000000000000000000000000000000000000000000000000000000000000000000000000001104201700000000            000000000000000                              000                           
0010001300009T 020180230000002544776 29647040544931313   7               13042017000000000006000001023353                         0900000000000010000000000000000000000000000000000000000   0000000000000000000000000A9        170192964704     
0010001300010U 020000000000000000000000000000000000000000000000000000000000000000000000000000000000000000000000000000000000000000000000001104201700000000            000000000000000                              000                           
0010001300011T 020180230000002544776 29647040573746452   7               12042017000000000008000001000132                         0900000000000010000000000000000000000000000000000000000   0000000000000000000000000A9        170192964704     
0010001300012U 020000000000000000000000000000000000000000000000000000000000000000000000000000000000000000000000000000000000000000000000001004201700000000            000000000000000                              000                           
0010001300013T 020180230000002544776 29647040625902939   7               13042017000000000006000001000132                         0900000000000010000000000000000000000000000000000000000   0000000000000000000000000A9        170192964704     
0010001300014U 020000000000000000000000000000000000000000000000000000000000000000000000000000000000000000000000000000000000000000000000001104201700000000            000000000000000                              000                           
0010001300015T 020180230000002544776 29647040635933978   7               13042017000000000006000001000132                         0900000000000010500000000000000000000000000000000000000   0000000000000000000000000A9A4      170192964704     
0010001300016U 020000000000000000000000000000000000000000000000000000000000000000000000000000000000000000000000000000000000000000000000001104201700000000            000000000000000                              000                           
0010001300017T 020180230000002544776 29647040662236761   7               13042017000000000006000001000132                         0900000000000010000000000000000000000000000000000000000   0000000000000000000000000A9        170192964704     
0010001300018U 020000000000000000000000000000000000000000000000000000000000000000000000000000000000000000000000000000000000000000000000001104201700000000            000000000000000                              000                           
0010001300019T 020180230000002544776 29647040739023958   7               13042017000000000006000001016179                         0900000000000010000000000000000000000000000000000000000   0000000000000000000000000A9        170192964704     
0010001300020U 020000000000000000000000000000000000000000000000000000000000000000000000000000000000000000000000000000000000000000000000001104201700000000            000000000000000                              000                           
0010001300021T 020180230000002544776 29647040742538652   7               13042017000000000006000001028029                         0900000000000010000000000000000000000000000000000000000   0000000000000000000000000A9        170192964704     
0010001300022U 020000000000000000000000000000000000000000000000000000000000000000000000000000000000000000000000000000000000000000000000001104201700000000            000000000000000                              000                           
0010001300023T 020180230000002544776 29647040787209298   7               13042017000000000006000001008702                         0900000000000010500000000000000000000000000000000000000   0000000000000000000000000A9A4      170192964704     
0010001300024U 020000000000000000000000000000000000000000000000000000000000000000000000000000000000000000000000000000000000000000000000001104201700000000            000000000000000                              000                           
0010001300025T 020180230000002544776 29647040787235969   7               13042017000000000006000001008702                         0900000000000010500000000000000000000000000000000000000   0000000000000000000000000A9A4      170192964704     
0010001300026U 020000000000000000000000000000000000000000000000000000000000000000000000000000000000000000000000000000000000000000000000001104201700000000            000000000000000                              000                           
0010001300027T 020180230000002544776 29647040826432118   7               13042017000000000008000001012467                         0900000000000010000000000000000000000000000000000000000   0000000000000000000000000A9        170192964704     
0010001300028U 020000000000000000000000000000000000000000000000000000000000000000000000000000000000000000000000000000000000000000000000001104201700000000            000000000000000                              000                           
0010001300029T 020180230000002544776 29647040873006645   7               13042017000000000006000001010669                         0900000000000010000000000000000000000000000000000000000   0000000000000000000000000A9        170192964704     
0010001300030U 020000000000000000000000000000000000000000000000000000000000000000000000000000000000000000000000000000000000000000000000001104201700000000            000000000000000                              000                           
0010001300031T 020180230000002544776 29647040951717704   7               13042017000000000006000001018376                         0900000000000010000000000000000000000000000000000000000   0000000000000000000000000A9        170192964704     
0010001300032U 020000000000000000000000000000000000000000000000000000000000000000000000000000000000000000000000000000000000000000000000001104201700000000            000000000000000                              000                           
0010001300033T 020180230000002544776 29647040957513173   7               13042017000000000006000001018376                         0900000000000010000000000000000000000000000000000000000   0000000000000000000000000A9        170192964704     
0010001300034U 020000000000000000000000000000000000000000000000000000000000000000000000000000000000000000000000000000000000000000000000001104201700000000            000000000000000                              000                           
0010001300035T 020180230000002544776 29647040965013969   7               13042017000000000006000001028029                         0900000000000010000000000000000000000000000000000000000   0000000000000000000000000A9        170192964704     
0010001300036U 020000000000000000000000000000000000000000000000000000000000000000000000000000000000000000000000000000000000000000000000001104201700000000            000000000000000                              000                           
0010001300037T 020180230000002544776 29647040977054134   7               13042017000000000006000001002003                         0900000000000010000000000000000000000000000000000000000   0000000000000000000000000A9        170192964704     
0010001300038U 020000000000000000000000000000000000000000000000000000000000000000000000000000000000000000000000000000000000000000000000001104201700000000            000000000000000                              000                           
0010001300039T 020180230000002544776 29647040991939556   7               13042017000000000006000001000132                         0900000000000010500000000000000000000000000000000000000   0000000000000000000000000A9A4      170192964704     
0010001300040U 020000000000000000000000000000000000000000000000000000000000000000000000000000000000000000000000000000000000000000000000001104201700000000            000000000000000                              000                           
0010001300041T 020180230000002544776 29647041003616952   7               1304201700000000000600000102337X                         0900000000000010000000000000000000000000000000000000000   0000000000000000000000000A9        170192964704     
0010001300042U 020000000000000000000000000000000000000000000000000000000000000000000000000000000000000000000000000000000000000000000000001104201700000000            000000000000000                              000                           
0010001300043T 020180230000002544776 29647041035150621   7               13042017000000000008000001016020                         0900000000000010000000000000000000000000000000000000000   0000000000000000000000000A9        170192964704     
0010001300044U 020000000000000000000000000000000000000000000000000000000000000000000000000000000000000000000000000000000000000000000000001104201700000000            000000000000000                              000                           
0010001300045T 020180230000002544776 29647041039441325   7               1304201700000000000800000100068X                         0900000000000010000000000000000000000000000000000000000   0000000000000000000000000A9        170192964704     
0010001300046U 020000000000000000000000000000000000000000000000000000000000000000000000000000000000000000000000000000000000000000000000001104201700000000            000000000000000                              000                           
0010001300047T 020180230000002544776 29647041101035922   7               1304201700000000000600000101981X                         0900000000000010000000000000000000000000000000000000000   0000000000000000000000000A9        170192964704     
0010001300048U 020000000000000000000000000000000000000000000000000000000000000000000000000000000000000000000000000000000000000000000000001104201700000000            000000000000000                              000                           
0010001300049T 020180230000002544776 29647041107411160   7               13042017000000000006000001020354                         0900000000000010500000000000000000000000000000000000000   0000000000000000000000000A9A4      170192964704     
0010001300050U 020000000000000000000000000000000000000000000000000000000000000000000000000000000000000000000000000000000000000000000000001104201700000000            000000000000000                              000                           
0010001300051T 020180230000002544776 29647041110301456   7               1304201700000000000600000101981X                         0900000000000010000000000000000000000000000000000000000   0000000000000000000000000A9        170192964704     
0010001300052U 020000000000000000000000000000000000000000000000000000000000000000000000000000000000000000000000000000000000000000000000001104201700000000            000000000000000                              000                           
0010001300053T 020180230000002544776 29647041111038233   7               1304201700000000000600000101110X                         0900000000000010000000000000000000000000000000000000000   0000000000000000000000000A9        170192964704     
0010001300054U 020000000000000000000000000000000000000000000000000000000000000000000000000000000000000000000000000000000000000000000000001104201700000000            000000000000000                              000                           
0010001300055T 020180230000002544776 29647041114741949   7               13042017000000000006000001026972                         0900000000000010000000000000000000000000000000000000000   0000000000000000000000000A9        170192964704     
0010001300056U 020000000000000000000000000000000000000000000000000000000000000000000000000000000000000000000000000000000000000000000000001104201700000000            000000000000000                              000                           
0010001300057T 020180230000002544776 29647041168541863   7               13042017000000000006000001033316                         0900000000000010000000000000000000000000000000000000000   0000000000000000000000000A9        170192964704     
0010001300058U 020000000000000000000000000000000000000000000000000000000000000000000000000000000000000000000000000000000000000000000000001104201700000000            000000000000000                              000                           
0010001300059T 020180230000002544776 29647041201332809   7               12042017000000000008000001020354                         0900000000000010000000000000000000000000000000000000000   0000000000000000000000000A9        170192964704     
0010001300060U 020000000000000000000000000000000000000000000000000000000000000000000000000000000000000000000000000000000000000000000000001004201700000000            000000000000000                              000                           
0010001300061T 020180230000002544776 29647041242632681   7               13042017000000000006000001016179                         0900000000000010000000000000000000000000000000000000000   0000000000000000000000000A9        170192964704     
0010001300062U 020000000000000000000000000000000000000000000000000000000000000000000000000000000000000000000000000000000000000000000000001104201700000000            000000000000000                              000                           
0010001300063T 020180230000002544776 29647041252640699   7               13042017000000000008000001038024                         0900000000000010000000000000000000000000000000000000000   0000000000000000000000000A9        170192964704     
0010001300064U 020000000000000000000000000000000000000000000000000000000000000000000000000000000000000000000000000000000000000000000000001104201700000000            000000000000000                              000                           
0010001300065T 020180230000002544776 29647041321747728   7               13042017000000000006000001009636                         0900000000000010000000000000000000000000000000000000000   0000000000000000000000000A9        170192964704     
0010001300066U 020000000000000000000000000000000000000000000000000000000000000000000000000000000000000000000000000000000000000000000000001104201700000000            000000000000000                              000                           
0010001300067T 020180230000002544776 29647041352742976   7               13042017000000000006000001028029                         0900000000000010000000000000000000000000000000000000000   0000000000000000000000000A9        170192964704     
0010001300068U 020000000000000000000000000000000000000000000000000000000000000000000000000000000000000000000000000000000000000000000000001104201700000000            000000000000000                              000                           
0010001300069T 020180230000002544776 29647041360950353   7               13042017000000000006000001028029                         0900000000000010000000000000000000000000000000000000000   0000000000000000000000000A9        170192964704     
0010001300070U 020000000000000000000000000000000000000000000000000000000000000000000000000000000000000000000000000000000000000000000000001104201700000000            000000000000000                              000                           
0010001300071T 020180230000002544776 29647041413208986   7               13042017000000000006000001028029                         0900000000000010000000000000000000000000000000000000000   0000000000000000000000000A9        170192964704     
0010001300072U 020000000000000000000000000000000000000000000000000000000000000000000000000000000000000000000000000000000000000000000000001104201700000000            000000000000000                              000                           
0010001300073T 020180230000002544776 29647041419740163   7               13042017000000000006000001008214                         0900000000000010000000000000000000000000000000000000000   0000000000000000000000000A9        170192964704     
0010001300074U 020000000000000000000000000000000000000000000000000000000000000000000000000000000000000000000000000000000000000000000000001104201700000000            000000000000000                              000                           
0010001300075T 020180230000002544776 29647041442227406   7               13042017000000000006000001000132                         0900000000000010000000000000000000000000000000000000000   0000000000000000000000000A9        170192964704     
0010001300076U 020000000000000000000000000000000000000000000000000000000000000000000000000000000000000000000000000000000000000000000000001104201700000000            000000000000000                              000                           
0010001300077T 020180230000002544776 29647041446844818   7               13042017000000000006000001010421                         0900000000000010500000000000000000000000000000000000000   0000000000000000000000000A9A4      170192964704     
0010001300078U 020000000000000000000000000000000000000000000000000000000000000000000000000000000000000000000000000000000000000000000000001104201700000000            000000000000000                              000                           
0010001300079T 020180230000002544776 29647041453835465   7               13042017000000000006000001016179                         0900000000000010000000000000000000000000000000000000000   0000000000000000000000000A9        170192964704     
0010001300080U 020000000000000000000000000000000000000000000000000000000000000000000000000000000000000000000000000000000000000000000000001104201700000000            000000000000000                              000                           
0010001300081T 020180230000002544776 29647041454524510   7               13042017000000000006000001033316                         0900000000000010000000000000000000000000000000000000000   0000000000000000000000000A9        170192964704     
0010001300082U 020000000000000000000000000000000000000000000000000000000000000000000000000000000000000000000000000000000000000000000000001104201700000000            000000000000000                              000                           
0010001300083T 020180230000002544776 29647041463227451   7               13042017000000000006000001000361                         0900000000000010500000000000000000000000000000000000000   0000000000000000000000000A9A4      170192964704     
0010001300084U 020000000000000000000000000000000000000000000000000000000000000000000000000000000000000000000000000000000000000000000000001104201700000000            000000000000000                              000                           
0010001300085T 020180230000002544776 29647041468430216   7               13042017000000000006000001020478                         0900000000000010000000000000000000000000000000000000000   0000000000000000000000000A9        170192964704     
0010001300086U 020000000000000000000000000000000000000000000000000000000000000000000000000000000000000000000000000000000000000000000000001104201700000000            000000000000000                              000                           
0010001300087T 020180230000002544776 29647041469900804   7               13042017000000000006000001018376                         0900000000000010000000000000000000000000000000000000000   0000000000000000000000000A9        170192964704     
0010001300088U 020000000000000000000000000000000000000000000000000000000000000000000000000000000000000000000000000000000000000000000000001104201700000000            000000000000000                              000                           
0010001300089T 020180230000002544776 29647041469904152   7               13042017000000000006000001018376                         0900000000000010000000000000000000000000000000000000000   0000000000000000000000000A9        170192964704     
0010001300090U 020000000000000000000000000000000000000000000000000000000000000000000000000000000000000000000000000000000000000000000000001104201700000000            000000000000000                              000                           
0010001300091T 020180230000002544776 29647041469912624   7               13042017000000000006000001018376                         0900000000000010000000000000000000000000000000000000000   0000000000000000000000000A9        170192964704     
0010001300092U 020000000000000000000000000000000000000000000000000000000000000000000000000000000000000000000000000000000000000000000000001104201700000000            000000000000000                              000                           
0010001300093T 020180230000002544776 29647041474155334   7               13042017000000000006000001033316                         0900000000000010000000000000000000000000000000000000000   0000000000000000000000000A9        170192964704     
0010001300094U 020000000000000000000000000000000000000000000000000000000000000000000000000000000000000000000000000000000000000000000000001104201700000000            000000000000000                              000                           
0010001300095T 020180230000002544776 29647041478955721   7               13042017000000000006000001000132                         0900000000000010500000000000000000000000000000000000000   0000000000000000000000000A9A4      170192964704     
0010001300096U 020000000000000000000000000000000000000000000000000000000000000000000000000000000000000000000000000000000000000000000000001104201700000000            000000000000000                              000                           
0010001300097T 020180230000002544776 29647041479207822   7               13042017000000000006000001001597                         0900000000000010000000000000000000000000000000000000000   0000000000000000000000000A9        170192964704     
0010001300098U 020000000000000000000000000000000000000000000000000000000000000000000000000000000000000000000000000000000000000000000000001104201700000000            000000000000000                              000                           
0010001300099T 020180230000002544776 29647041503356004   7               13042017000000000006000001000132                         0900000000000010500000000000000000000000000000000000000   0000000000000000000000000A9A4      170192964704     
0010001300100U 020000000000000000000000000000000000000000000000000000000000000000000000000000000000000000000000000000000000000000000000001104201700000000            000000000000000                              000                           
0010001300101T 020180230000002544776 29647041590023160   7               13042017000000000006000001016179                         0900000000000010000000000000000000000000000000000000000   0000000000000000000000000A9        170192964704     
0010001300102U 020000000000000000000000000000000000000000000000000000000000000000000000000000000000000000000000000000000000000000000000001104201700000000            000000000000000                              000                           
0010001300103T 020180230000002544776 29647041598501004   7               13042017000000000008000001000132                         0900000000000010000000000000000000000000000000000000000   0000000000000000000000000A9        170192964704     
0010001300104U 020000000000000000000000000000000000000000000000000000000000000000000000000000000000000000000000000000000000000000000000001104201700000000            000000000000000                              000                           
0010001300105T 020180230000002544776 29647041599055244   7               1304201700000000000600000101981X                         0900000000000010000000000000000000000000000000000000000   0000000000000000000000000A9        170192964704     
0010001300106U 020000000000000000000000000000000000000000000000000000000000000000000000000000000000000000000000000000000000000000000000001104201700000000            000000000000000                              000                           
0010001300107T 020180230000002544776 29647041606009991   7               12042017000000000006000001018376                         0900000000000010000000000000000000000000000000000000000   0000000000000000000000000A9        170192964704     
0010001300108U 020000000000000000000000000000000000000000000000000000000000000000000000000000000000000000000000000000000000000000000000001004201700000000            000000000000000                              000                           
0010001300109T 020180230000002544776 29647041606028559   7               12042017000000000006000001018376                         0900000000000010000000000000000000000000000000000000000   0000000000000000000000000A9        170192964704     
0010001300110U 020000000000000000000000000000000000000000000000000000000000000000000000000000000000000000000000000000000000000000000000001004201700000000            000000000000000                              000                           
0010001300111T 020180230000002544776 29647041612942148   7               13042017000000000008000001000132                         0900000000000010000000000000000000000000000000000000000   0000000000000000000000000A9        170192964704     
0010001300112U 020000000000000000000000000000000000000000000000000000000000000000000000000000000000000000000000000000000000000000000000001104201700000000            000000000000000                              000                           
0010001300113T 020180230000002544776 29647041619328801   7               13042017000000000006000001020818                         0900000000000010000000000000000000000000000000000000000   0000000000000000000000000A9        170192964704     
0010001300114U 020000000000000000000000000000000000000000000000000000000000000000000000000000000000000000000000000000000000000000000000001104201700000000            000000000000000                              000                           
0010001300115T 020180230000002544776 29647041630057638   7               13042017000000000006000001044865                         0900000000000010000000000000000000000000000000000000000   0000000000000000000000000A9        170192964704     
0010001300116U 020000000000000000000000000000000000000000000000000000000000000000000000000000000000000000000000000000000000000000000000001104201700000000            000000000000000                              000                           
0010001300117T 020180230000002544776 29647041631141609   7               13042017000000000006000001000132                         0900000000000010000000000000000000000000000000000000000   0000000000000000000000000A9        170192964704     
0010001300118U 020000000000000000000000000000000000000000000000000000000000000000000000000000000000000000000000000000000000000000000000001104201700000000            000000000000000                              000                           
0010001300119T 020180230000002544776 29647041641557919   7               13042017000000000006000001000132                         0900000000000010000000000000000000000000000000000000000   0000000000000000000000000A9        170192964704     
0010001300120U 020000000000000000000000000000000000000000000000000000000000000000000000000000000000000000000000000000000000000000000000001104201700000000            000000000000000                              000                           
0010001300121T 020180230000002544776 29647041650106633   7               13042017000000000006000001028029                         0900000000000010000000000000000000000000000000000000000   0000000000000000000000000A9        170192964704     
0010001300122U 020000000000000000000000000000000000000000000000000000000000000000000000000000000000000000000000000000000000000000000000001104201700000000            000000000000000                              000                           
0010001300123T 020180230000002544776 29647041655500661   7               13042017000000000006000001028029                         0900000000000010500000000000000000000000000000000000000   0000000000000000000000000A9A4      170192964704     
0010001300124U 020000000000000000000000000000000000000000000000000000000000000000000000000000000000000000000000000000000000000000000000001104201700000000            000000000000000                              000                           
0010001300125T 020180230000002544776 29647041658715114   7               13042017000000000006000001022748                         0900000000000010000000000000000000000000000000000000000   0000000000000000000000000A9        170192964704     
0010001300126U 020000000000000000000000000000000000000000000000000000000000000000000000000000000000000000000000000000000000000000000000001104201700000000            000000000000000                              000                           
0010001300127T 020180230000002544776 29647041659140768   7               13042017000000000006000001014524                         0900000000000010500000000000000000000000000000000000000   0000000000000000000000000A9A4      170192964704     
0010001300128U 020000000000000000000000000000000000000000000000000000000000000000000000000000000000000000000000000000000000000000000000001104201700000000            000000000000000                              000                           
0010001300129T 020180230000002544776 29647041676519108   7               13042017000000000006000001033316                         0900000000000010000000000000000000000000000000000000000   0000000000000000000000000A9        170192964704     
0010001300130U 020000000000000000000000000000000000000000000000000000000000000000000000000000000000000000000000000000000000000000000000001104201700000000            000000000000000                              000                           
0010001300131T 020180230000002544776 29647041678507260   7               13042017000000000006000001016179                         0900000000000010000000000000000000000000000000000000000   0000000000000000000000000A9        170192964704     
0010001300132U 020000000000000000000000000000000000000000000000000000000000000000000000000000000000000000000000000000000000000000000000001104201700000000            000000000000000                              000                           
0010001300133T 020180230000002544776 29647041678526318   7               13042017000000000006000001016179                         0900000000000010000000000000000000000000000000000000000   0000000000000000000000000A9        170192964704     
0010001300134U 020000000000000000000000000000000000000000000000000000000000000000000000000000000000000000000000000000000000000000000000001104201700000000            000000000000000                              000                           
0010001300135T 020180230000002544776 29647041679348916   7               13042017000000000006000001000132                         0900000000000010500000000000000000000000000000000000000   0000000000000000000000000A9A4      170192964704     
0010001300136U 020000000000000000000000000000000000000000000000000000000000000000000000000000000000000000000000000000000000000000000000001104201700000000            000000000000000                              000                           
0010001300137T 020180230000002544776 29647041680534868   7               13042017000000000008000001016179                         0900000000000010000000000000000000000000000000000000000   0000000000000000000000000A9        170192964704     
0010001300138U 020000000000000000000000000000000000000000000000000000000000000000000000000000000000000000000000000000000000000000000000001104201700000000            000000000000000                              000                           
0010001300139T 020180230000002544776 29647041682720316   7               13042017000000000006000001016179                         0900000000000010000000000000000000000000000000000000000   0000000000000000000000000A9        170192964704     
0010001300140U 020000000000000000000000000000000000000000000000000000000000000000000000000000000000000000000000000000000000000000000000001104201700000000            000000000000000                              000                           
0010001300141T 020180230000002544776 29647041691618052   7               13042017000000000008000001035041                         0900000000000010000000000000000000000000000000000000000   0000000000000000000000000A9        170192964704     
0010001300142U 020000000000000000000000000000000000000000000000000000000000000000000000000000000000000000000000000000000000000000000000001104201700000000            000000000000000                              000                           
0010001300143T 020180230000002544776 29647041691638713   7               13042017000000000008000001035041                         0900000000000010000000000000000000000000000000000000000   0000000000000000000000000A9        170192964704     
0010001300144U 020000000000000000000000000000000000000000000000000000000000000000000000000000000000000000000000000000000000000000000000001104201700000000            000000000000000                              000                           
0010001300145T 020180230000002544776 29647041691646030   7               13042017000000000008000001035041                         0900000000000010000000000000000000000000000000000000000   0000000000000000000000000A9        170192964704     
0010001300146U 020000000000000000000000000000000000000000000000000000000000000000000000000000000000000000000000000000000000000000000000001104201700000000            000000000000000                              000                           
0010001300147T 020180230000002544776 29647041692052301   7               13042017000000000008000001035041                         0900000000000010000000000000000000000000000000000000000   0000000000000000000000000A9        170192964704     
0010001300148U 020000000000000000000000000000000000000000000000000000000000000000000000000000000000000000000000000000000000000000000000001104201700000000            000000000000000                              000                           
0010001300149T 020180230000002544776 29647041694319571   7               13042017000000000006000001009636                         0900000000000010000000000000000000000000000000000000000   0000000000000000000000000A9        170192964704     
0010001300150U 020000000000000000000000000000000000000000000000000000000000000000000000000000000000000000000000000000000000000000000000001104201700000000            000000000000000                              000                           
0010001300151T 020180230000002544776 29647041702606335   7               1304201700000000000600000101754X                         0900000000000010000000000000000000000000000000000000000   0000000000000000000000000A9        170192964704     
0010001300152U 020000000000000000000000000000000000000000000000000000000000000000000000000000000000000000000000000000000000000000000000001104201700000000            000000000000000                              000                           
0010001300153T 020180230000002544776 29647041703712323   7               13042017000000000006000001017310                         0900000000000010000000000000000000000000000000000000000   0000000000000000000000000A9        170192964704     
0010001300154U 020000000000000000000000000000000000000000000000000000000000000000000000000000000000000000000000000000000000000000000000001104201700000000            000000000000000                              000                           
0010001300155T 020180230000002544776 29647041705832818   7               13042017000000000006000001028029                         0900000000000010000000000000000000000000000000000000000   0000000000000000000000000A9        170192964704     
0010001300156U 020000000000000000000000000000000000000000000000000000000000000000000000000000000000000000000000000000000000000000000000001104201700000000            000000000000000                              000                           
0010001300157T 020180230000002544776 29647041706447875   7               13042017000000000008000001000132                         0900000000000010000000000000000000000000000000000000000   0000000000000000000000000A9        170192964704     
0010001300158U 020000000000000000000000000000000000000000000000000000000000000000000000000000000000000000000000000000000000000000000000001104201700000000            000000000000000                              000                           
0010001300159T 020180230000002544776 29647041706814986   7               13042017000000000006000001012467                         0900000000000010000000000000000000000000000000000000000   0000000000000000000000000A9        170192964704     
0010001300160U 020000000000000000000000000000000000000000000000000000000000000000000000000000000000000000000000000000000000000000000000001104201700000000            000000000000000                              000                           
0010001300161T 020180230000002544776 29647041713600016   7               12042017000000000006000001012467                         0900000000000010000000000000000000000000000000000000000   0000000000000000000000000A9        170192964704     
0010001300162U 020000000000000000000000000000000000000000000000000000000000000000000000000000000000000000000000000000000000000000000000001004201700000000            000000000000000                              000                           
0010001300163T 020180230000002544776 29647041715536175   7               13042017000000000008000001009814                         0900000000000010000000000000000000000000000000000000000   0000000000000000000000000A9        170192964704     
0010001300164U 020000000000000000000000000000000000000000000000000000000000000000000000000000000000000000000000000000000000000000000000001104201700000000            000000000000000                              000                           
0010001300165T 020180230000002544776 29647041718034887   7               12042017000000000006000001016179                         0900000000000010000000000000000000000000000000000000000   0000000000000000000000000A9        170192964704     
0010001300166U 020000000000000000000000000000000000000000000000000000000000000000000000000000000000000000000000000000000000000000000000001004201700000000            000000000000000                              000                           
0010001300167T 020180230000002544776 29647041719348035   7               13042017000000000006000001011657                         0900000000000010500000000000000000000000000000000000000   0000000000000000000000000A9A4      170192964704     
0010001300168U 020000000000000000000000000000000000000000000000000000000000000000000000000000000000000000000000000000000000000000000000001104201700000000            000000000000000                              000                           
0010001300169T 020180230000002544776 29647041721416823   7               13042017000000000008000001009636                         0900000000000010000000000000000000000000000000000000000   0000000000000000000000000A9        170192964704     
0010001300170U 020000000000000000000000000000000000000000000000000000000000000000000000000000000000000000000000000000000000000000000000001104201700000000            000000000000000                              000                           
0010001300171T 020180230000002544776 29647041723553880   7               13042017000000000006000001000132                         0900000000000010500000000000000000000000000000000000000   0000000000000000000000000A9A4      170192964704     
0010001300172U 020000000000000000000000000000000000000000000000000000000000000000000000000000000000000000000000000000000000000000000000001104201700000000            000000000000000                              000                           
0010001300173T 020180230000002544776 29647041725232744   7               13042017000000000006000001006734                         0900000000000010000000000000000000000000000000000000000   0000000000000000000000000A9        170192964704     
0010001300174U 020000000000000000000000000000000000000000000000000000000000000000000000000000000000000000000000000000000000000000000000001104201700000000            000000000000000                              000                           
0010001300175T 020180230000002544776 29647041725256216   7               13042017000000000006000001006734                         0900000000000010000000000000000000000000000000000000000   0000000000000000000000000A9        170192964704     
0010001300176U 020000000000000000000000000000000000000000000000000000000000000000000000000000000000000000000000000000000000000000000000001104201700000000            000000000000000                              000                           
0010001300177T 020180230000002544776 29647041725547747   7               12042017000000000006000001016179                         0900000000000010000000000000000000000000000000000000000   0000000000000000000000000A9        170192964704     
0010001300178U 020000000000000000000000000000000000000000000000000000000000000000000000000000000000000000000000000000000000000000000000001004201700000000            000000000000000                              000                           
0010001300179T 020180230000002544776 29647041725757150   7               13042017000000000006000001012211                         0900000000000010000000000000000000000000000000000000000   0000000000000000000000000A9        170192964704     
0010001300180U 020000000000000000000000000000000000000000000000000000000000000000000000000000000000000000000000000000000000000000000000001104201700000000            000000000000000                              000                           
0010001300181T 020180230000002544776 29647041725842984   7               1304201700000000000600000101981X                         0900000000000010000000000000000000000000000000000000000   0000000000000000000000000A9        170192964704     
0010001300182U 020000000000000000000000000000000000000000000000000000000000000000000000000000000000000000000000000000000000000000000000001104201700000000            000000000000000                              000                           
0010001300183T 020180230000002544776 29647041725935205   7               13042017000000000008000001016179                         0900000000000010000000000000000000000000000000000000000   0000000000000000000000000A9        170192964704     
0010001300184U 020000000000000000000000000000000000000000000000000000000000000000000000000000000000000000000000000000000000000000000000001104201700000000            000000000000000                              000                           
0010001300185T 020180230000002544776 29647041726055978   7               13042017000000000006000001008214                         0900000000000010000000000000000000000000000000000000000   0000000000000000000000000A9        170192964704     
0010001300186U 020000000000000000000000000000000000000000000000000000000000000000000000000000000000000000000000000000000000000000000000001104201700000000            000000000000000                              000                           
0010001300187T 020180230000002544776 29647041726106220   7               13042017000000000006000001008214                         0900000000000010000000000000000000000000000000000000000   0000000000000000000000000A9        170192964704     
0010001300188U 020000000000000000000000000000000000000000000000000000000000000000000000000000000000000000000000000000000000000000000000001104201700000000            000000000000000                              000                           
0010001300189T 020180230000002544776 29647041726230547   7               13042017000000000006000001012467                         0900000000000010500000000000000000000000000000000000000   0000000000000000000000000A9A4      170192964704     
0010001300190U 020000000000000000000000000000000000000000000000000000000000000000000000000000000000000000000000000000000000000000000000001104201700000000            000000000000000                              000                           
0010001300191T 020180230000002544776 29647041726349255   7               13042017000000000006000001028029                         0900000000000010000000000000000000000000000000000000000   0000000000000000000000000A9        170192964704     
0010001300192U 020000000000000000000000000000000000000000000000000000000000000000000000000000000000000000000000000000000000000000000000001104201700000000            000000000000000                              000                           
0010001300193T 020180230000002544776 29647041726432125   7               13042017000000000006000001028029                         0900000000000010000000000000000000000000000000000000000   0000000000000000000000000A9        170192964704     
0010001300194U 020000000000000000000000000000000000000000000000000000000000000000000000000000000000000000000000000000000000000000000000001104201700000000            000000000000000                              000                           
0010001300195T 020180230000002544776 29647041726656804   7               13042017000000000008000001014125                         0900000000000010000000000000000000000000000000000000000   0000000000000000000000000A9        170192964704     
0010001300196U 020000000000000000000000000000000000000000000000000000000000000000000000000000000000000000000000000000000000000000000000001104201700000000            000000000000000                              000                           
0010001300197T 020180230000002544776 29647041726714018   7               13042017000000000008000001000132                         0900000000000010000000000000000000000000000000000000000   0000000000000000000000000A9        170192964704     
0010001300198U 020000000000000000000000000000000000000000000000000000000000000000000000000000000000000000000000000000000000000000000000001104201700000000            000000000000000                              000                           
0010001300199T 020180230000002544776 29647041726821017   7               13042017000000000008000001012467                         0900000000000010000000000000000000000000000000000000000   0000000000000000000000000A9        170192964704     
0010001300200U 020000000000000000000000000000000000000000000000000000000000000000000000000000000000000000000000000000000000000000000000001104201700000000            000000000000000                              000                           
0010001300201T 020180230000002544776 29647041726948845   7               13042017000000000008000001000132                         0900000000000010000000000000000000000000000000000000000   0000000000000000000000000A9        170192964704     
0010001300202U 020000000000000000000000000000000000000000000000000000000000000000000000000000000000000000000000000000000000000000000000001104201700000000            000000000000000                              000                           
0010001300203T 020180230000002544776 29647041727034491   7               13042017000000000008000001016179                         0900000000000010000000000000000000000000000000000000000   0000000000000000000000000A9        170192964704     
0010001300204U 020000000000000000000000000000000000000000000000000000000000000000000000000000000000000000000000000000000000000000000000001104201700000000            000000000000000                              000                           
0010001300205T 020180230000002544776 29647041727051820   7               13042017000000000008000001016179                         0900000000000010000000000000000000000000000000000000000   0000000000000000000000000A9        170192964704     
0010001300206U 020000000000000000000000000000000000000000000000000000000000000000000000000000000000000000000000000000000000000000000000001104201700000000            000000000000000                              000                           
0010001300207T 020180230000002544776 29647041727158452   7               13042017000000000008000001040126                         0900000000000010000000000000000000000000000000000000000   0000000000000000000000000A9        170192964704     
0010001300208U 020000000000000000000000000000000000000000000000000000000000000000000000000000000000000000000000000000000000000000000000001104201700000000            000000000000000                              000                           
0010001300209T 020180230000002544776 29647041727258724   7               13042017000000000008000001028029                         0900000000000010500000000000000000000000000000000000000   0000000000000000000000000A9A4      170192964704     
0010001300210U 020000000000000000000000000000000000000000000000000000000000000000000000000000000000000000000000000000000000000000000000001104201700000000            000000000000000                              000                           
0010001300211T 020180230000002544776 29647041727344334   7               13042017000000000008000001009636                         0900000000000010000000000000000000000000000000000000000   0000000000000000000000000A9        170192964704     
0010001300212U 020000000000000000000000000000000000000000000000000000000000000000000000000000000000000000000000000000000000000000000000001104201700000000            000000000000000                              000                           
0010001300213T 020180230000002544776 29647041727411732   7               13042017000000000008000001001511                         0900000000000010000000000000000000000000000000000000000   0000000000000000000000000A9        170192964704     
0010001300214U 020000000000000000000000000000000000000000000000000000000000000000000000000000000000000000000000000000000000000000000000001104201700000000            000000000000000                              000                           
0010001300215T 020180230000002544776 29647041727526391   7               13042017000000000008000001033316                         0900000000000010000000000000000000000000000000000000000   0000000000000000000000000A9        170192964704     
0010001300216U 020000000000000000000000000000000000000000000000000000000000000000000000000000000000000000000000000000000000000000000000001104201700000000            000000000000000                              000                           
0010001300217T 020180230000002544776 29647041727631471   7               13042017000000000006000001016179                         0900000000000010000000000000000000000000000000000000000   0000000000000000000000000A9        170192964704     
0010001300218U 020000000000000000000000000000000000000000000000000000000000000000000000000000000000000000000000000000000000000000000000001104201700000000            000000000000000                              000                           
0010001300219T 020180230000002544776 29647041727707686   7               13042017000000000006000001016179                         0900000000000010000000000000000000000000000000000000000   0000000000000000000000000A9        170192964704     
0010001300220U 020000000000000000000000000000000000000000000000000000000000000000000000000000000000000000000000000000000000000000000000001104201700000000            000000000000000                              000                           
0010001300221T 020180230000002544776 29647041727727992   7               13042017000000000006000001016179                         0900000000000010000000000000000000000000000000000000000   0000000000000000000000000A9        170192964704     
0010001300222U 020000000000000000000000000000000000000000000000000000000000000000000000000000000000000000000000000000000000000000000000001104201700000000            000000000000000                              000                           
0010001300223T 020180230000002544776 29647041727803921   7               13042017000000000006000001016179                         0900000000000010000000000000000000000000000000000000000   0000000000000000000000000A9        170192964704     
0010001300224U 020000000000000000000000000000000000000000000000000000000000000000000000000000000000000000000000000000000000000000000000001104201700000000            000000000000000                              000                           
0010001300225T 020180230000002544776 29647041727930527   7               13042017000000000008000001028029                         0900000000000010000000000000000000000000000000000000000   0000000000000000000000000A9        170192964704     
0010001300226U 020000000000000000000000000000000000000000000000000000000000000000000000000000000000000000000000000000000000000000000000001104201700000000            000000000000000                              000                           
0010001300227T 020180230000002544776 29647041728004283   7               13042017000000000006000001028304                         0900000000000010000000000000000000000000000000000000000   0000000000000000000000000A9        170192964704     
0010001300228U 020000000000000000000000000000000000000000000000000000000000000000000000000000000000000000000000000000000000000000000000001104201700000000            000000000000000                              000                           
0010001300229T 020180230000002544776 29647041728121206   7               13042017000000000008000001028029                         0900000000000010000000000000000000000000000000000000000   0000000000000000000000000A9        170192964704     
0010001300230U 020000000000000000000000000000000000000000000000000000000000000000000000000000000000000000000000000000000000000000000000001104201700000000            000000000000000                              000                           
0010001300231T 020180230000002544776 29647041728401420   7               13042017000000000008000001012467                         0900000000000010000000000000000000000000000000000000000   0000000000000000000000000A9        170192964704     
0010001300232U 020000000000000000000000000000000000000000000000000000000000000000000000000000000000000000000000000000000000000000000000001104201700000000            000000000000000                              000                           
0010001300233T 020180230000002544776 29647041728527271   7               13042017000000000008000001016179                         0900000000000010000000000000000000000000000000000000000   0000000000000000000000000A9        170192964704     
0010001300234U 020000000000000000000000000000000000000000000000000000000000000000000000000000000000000000000000000000000000000000000000001104201700000000            000000000000000                              000                           
0010001300235T 020180230000002544776 29647041728622739   7               13042017000000000008000001018376                         0900000000000010000000000000000000000000000000000000000   0000000000000000000000000A9        170192964704     
0010001300236U 020000000000000000000000000000000000000000000000000000000000000000000000000000000000000000000000000000000000000000000000001104201700000000            000000000000000                              000                           
0010001300237T 020180230000002544776 29647041728802758   7               13042017000000000008000001028029                         0900000000000010000000000000000000000000000000000000000   0000000000000000000000000A9        170192964704     
0010001300238U 020000000000000000000000000000000000000000000000000000000000000000000000000000000000000000000000000000000000000000000000001104201700000000            000000000000000                              000                           
0010001300239T 020180230000002544776 29647041729158937   7               13042017000000000006000001012688                         0900000000000010000000000000000000000000000000000000000   0000000000000000000000000A9        170192964704     
0010001300240U 020000000000000000000000000000000000000000000000000000000000000000000000000000000000000000000000000000000000000000000000001104201700000000            000000000000000                              000                           
0010001300241T 020180230000002544776 29647041729213939   7               13042017000000000008000001000361                         0900000000000010000000000000000000000000000000000000000   0000000000000000000000000A9        170192964704     
0010001300242U 020000000000000000000000000000000000000000000000000000000000000000000000000000000000000000000000000000000000000000000000001104201700000000            000000000000000                              000                           
0010001300243T 020180230000002544776 29647041729354604   7               13042017000000000006000001025089                         0900000000000010000000000000000000000000000000000000000   0000000000000000000000000A9        170192964704     
0010001300244U 020000000000000000000000000000000000000000000000000000000000000000000000000000000000000000000000000000000000000000000000001104201700000000            000000000000000                              000                           
0010001300245T 020180230000002544776 29647041729412131   7               13042017000000000008000001028029                         0900000000000010000000000000000000000000000000000000000   0000000000000000000000000A9        170192964704     
0010001300246U 020000000000000000000000000000000000000000000000000000000000000000000000000000000000000000000000000000000000000000000000001104201700000000            000000000000000                              000                           
0010001300247T 020180230000002544776 29647041729721837   7               13042017000000000006000001016179                         0900000000000010000000000000000000000000000000000000000   0000000000000000000000000A9        170192964704     
0010001300248U 020000000000000000000000000000000000000000000000000000000000000000000000000000000000000000000000000000000000000000000000001104201700000000            000000000000000                              000                           
0010001300249T 020180230000002544776 29647041729807357   7               13042017000000000008000001020354                         0900000000000010000000000000000000000000000000000000000   0000000000000000000000000A9        170192964704     
0010001300250U 020000000000000000000000000000000000000000000000000000000000000000000000000000000000000000000000000000000000000000000000001104201700000000            000000000000000                              000                           
0010001300251T 020180230000002544776 29647041729935453   7               13042017000000000008000001001597                         0900000000000010000000000000000000000000000000000000000   0000000000000000000000000A9        170192964704     
0010001300252U 020000000000000000000000000000000000000000000000000000000000000000000000000000000000000000000000000000000000000000000000001104201700000000            000000000000000                              000                           
0010001300253T 020180230000002544776 29647041730002130   7               13042017000000000008000001018376                         0900000000000010000000000000000000000000000000000000000   0000000000000000000000000A9        170192964704     
0010001300254U 020000000000000000000000000000000000000000000000000000000000000000000000000000000000000000000000000000000000000000000000001104201700000000            000000000000000                              000                           
0010001300255T 020180230000002544776 29647041730055206   7               13042017000000000008000001018376                         0900000000000010000000000000000000000000000000000000000   0000000000000000000000000A9        170192964704     
0010001300256U 020000000000000000000000000000000000000000000000000000000000000000000000000000000000000000000000000000000000000000000000001104201700000000            000000000000000                              000                           
0010001300257T 020180230000002544776 29647041730122673   7               13042017000000000006000001012467                         0900000000000010000000000000000000000000000000000000000   0000000000000000000000000A9        170192964704     
0010001300258U 020000000000000000000000000000000000000000000000000000000000000000000000000000000000000000000000000000000000000000000000001104201700000000            000000000000000                              000                           
0010001300259T 020180230000002544776 29647041730132053   7               13042017000000000006000001012467                         0900000000000010000000000000000000000000000000000000000   0000000000000000000000000A9        170192964704     
0010001300260U 020000000000000000000000000000000000000000000000000000000000000000000000000000000000000000000000000000000000000000000000001104201700000000            000000000000000                              000                           
0010001300261T 020180230000002544776 29647041730242408   7               13042017000000000006000001028029                         0900000000000010000000000000000000000000000000000000000   0000000000000000000000000A9        170192964704     
0010001300262U 020000000000000000000000000000000000000000000000000000000000000000000000000000000000000000000000000000000000000000000000001104201700000000            000000000000000                              000                           
0010001300263T 020180230000002544776 29647041730339818   7               13042017000000000008000001028029                         0900000000000010000000000000000000000000000000000000000   0000000000000000000000000A9        170192964704     
0010001300264U 020000000000000000000000000000000000000000000000000000000000000000000000000000000000000000000000000000000000000000000000001104201700000000            000000000000000                              000                           
0010001300265T 060180230000002544776 29647040625902939   7               13042017000000000006000104024040                         0900000000000010000000000000000000000000000000000000000   000000000000000000000029000        170192964704     
0010001300266U 060000000000000000000000000000000000000000000000000000000000000000000000060000000000000057100000000000000000000000000000001104201713042017            000000000000000                              000                           
0010001300267T 060180230000002544776 29647040676920308   7               11042017000000000008000001083534                         0900000000000010000000000000000000000000000000000000000   000000000000000000000029000        170192964704     
0010001300268U 060000000000000000000000000000000000000000000000000000000000000000000000080000000000000077100000000000000000000000000000001104201713042017            000000000000000                              000                           
0010001300269T 060180230000002544776 29647041038857698   7               12042017000000000006000104024040                         0900000000000010000000000000000000000000000000000000000   000000000000000000000029000        170192964704     
0010001300270U 060000000000000000000000000000000000000000000000000000000000000000000000060000000000000057100000000000000000000000000000001104201713042017            000000000000000                              000                           
0010001300271T 060180230000002544776 29647041217223544   7               11042017000000000006000104007760                         0900000000000010000000000000000000000000000000000000000   000000000000000000000029000        170192964704     
0010001300272U 060000000000000000000000000000000000000000000000000000000000000000000000060000000000000057100000000000000000000000000000001104201713042017            000000000000000                              000                           
0010001300273T 060180230000002544776 29647041275928782   7               11042017000000000006000237010550                         0900000000000010000000000000000000000000000000000000000   000000000000000000000029000        170192964704     
0010001300274U 060000000000000000000000000000000000000000000000000000000000000000000000060000000000000057100000000000000000000000000000001104201713042017            000000000000000                              000                           
0010001300275T 060180230000002544776 29647041281710362   7               11042017000000000006000033040160                         0900000000000010000000000000000000000000000000000000000   000000000000000000000029000        170192964704     
0010001300276U 060000000000000000000000000000000000000000000000000000000000000000000000060000000000000057100000000000000000000000000000001104201713042017            000000000000000                              000                           
0010001300277T 060180230000002544776 29647041311634959   7               12042017000000000006000104015570                         0900000000000010000000000000000000000000000000000000000   000000000000000000000029000        170192964704     
0010001300278U 060000000000000000000000000000000000000000000000000000000000000000000000060000000000000057100000000000000000000000000000001104201713042017            000000000000000                              000                           
0010001300279T 060180230000002544776 29647041338509189   7               1204201700000000000600000108347X                         0900000000000010000000000000000000000000000000000000000   000000000000000000000029000        170192964704     
0010001300280U 060000000000000000000000000000000000000000000000000000000000000000000000060000000000000057100000000000000000000000000000001104201713042017            000000000000000                              000                           
0010001300281T 060180230000002544776 29647041369358988   7               12042017000000000006000104007350                         0900000000000010000000000000000000000000000000000000000   000000000000000000000029000        170192964704     
0010001300282U 060000000000000000000000000000000000000000000000000000000000000000000000060000000000000057100000000000000000000000000000001104201713042017            000000000000000                              000                           
0010001300283T 060180230000002544776 29647041463227451   7               13042017000000000006000001083607                         0900000000000010000000000000000000000000000000000000000   000000000000000000000029000        170192964704     
0010001300284U 060000000000000000000000000000000000000000000000000000000000000000000000060000000000000057100000000000000000000000000000001104201713042017            000000000000000                              000                           
0010001300285T 060180230000002544776 29647041476150332   7               11042017000000000008000001016004                         0900000000000010000000000000000000000000000000000000000   000000000000000000000029000        170192964704     
0010001300286U 060000000000000000000000000000000000000000000000000000000000000000000000080000000000000077100000000000000000000000000000001104201713042017            000000000000000                              000                           
0010001300287T 060180230000002544776 29647041526830453   7               12042017000000000006000104027190                         0900000000000010000000000000000000000000000000000000000   000000000000000000000029000        170192964704     
0010001300288U 060000000000000000000000000000000000000000000000000000000000000000000000060000000000000057100000000000000000000000000000001104201713042017            000000000000000                              000                           
0010001300289T 060180230000002544776 29647041561649196   7               11042017000000000008000341082900                         0900000000000010000000000000000000000000000000000000000   000000000000000000000029000        170192964704     
0010001300290U 060000000000000000000000000000000000000000000000000000000000000000000000080000000000000077100000000000000000000000000000001104201713042017            000000000000000                              000                           
0010001300291T 060180230000002544776 29647041562041857   7               12042017000000000006000104007590                         0900000000000010000000000000000000000000000000000000000   000000000000000000000029000        170192964704     
0010001300292U 060000000000000000000000000000000000000000000000000000000000000000000000060000000000000057100000000000000000000000000000001104201713042017            000000000000000                              000                           
0010001300293T 060180230000002544776 29647041591651865   7               12042017000000000006000104000450                         0900000000000010000000000000000000000000000000000000000   000000000000000000000029000        170192964704     
0010001300294U 060000000000000000000000000000000000000000000000000000000000000000000000060000000000000057100000000000000000000000000000001104201713042017            000000000000000                              000                           
0010001300295T 060180230000002544776 29647041598501004   7               13042017000000000008000104008400                         0900000000000010000000000000000000000000000000000000000   000000000000000000000029000        170192964704     
0010001300296U 060000000000000000000000000000000000000000000000000000000000000000000000080000000000000077100000000000000000000000000000001104201713042017            000000000000000                              000                           
0010001300297T 060180230000002544776 29647041617627792   7               11042017000000000006000001081019                         0900000000000010000000000000000000000000000000000000000   000000000000000000000029000        170192964704     
0010001300298U 060000000000000000000000000000000000000000000000000000000000000000000000060000000000000057100000000000000000000000000000001104201713042017            000000000000000                              000                           
0010001300299T 060180230000002544776 29647041660634914   7               11042017000000000006000104034180                         0900000000000010000000000000000000000000000000000000000   000000000000000000000029000        170192964704     
0010001300300U 060000000000000000000000000000000000000000000000000000000000000000000000060000000000000057100000000000000000000000000000001104201713042017            000000000000000                              000                           
0010001300301T 060180230000002544776 29647041678208997   7               11042017000000000008000033037370                         0900000000000010000000000000000000000000000000000000000   000000000000000000000029000        170192964704     
0010001300302U 060000000000000000000000000000000000000000000000000000000000000000000000080000000000000077100000000000000000000000000000001104201713042017            000000000000000                              000                           
0010001300303T 060180230000002544776 29647041682234787   7               12042017000000000006000104000550                         0900000000000010000000000000000000000000000000000000000   000000000000000000000029000        170192964704     
0010001300304U 060000000000000000000000000000000000000000000000000000000000000000000000060000000000000057100000000000000000000000000000001104201713042017            000000000000000                              000                           
0010001300305T 060180230000002544776 29647041685731600   7               12042017000000000006000104000550                         0900000000000010000000000000000000000000000000000000000   000000000000000000000029000        170192964704     
0010001300306U 060000000000000000000000000000000000000000000000000000000000000000000000060000000000000057100000000000000000000000000000001104201713042017            000000000000000                              000                           
0010001300307T 060180230000002544776 29647041691618052   7               13042017000000000008000033037570                         0900000000000010000000000000000000000000000000000000000   000000000000000000000029000        170192964704     
0010001300308U 060000000000000000000000000000000000000000000000000000000000000000000000080000000000000077100000000000000000000000000000001104201713042017            000000000000000                              000                           
0010001300309T 060180230000002544776 29647041692052301   7               13042017000000000008000033037570                         0900000000000010000000000000000000000000000000000000000   000000000000000000000029000        170192964704     
0010001300310U 060000000000000000000000000000000000000000000000000000000000000000000000080000000000000077100000000000000000000000000000001104201713042017            000000000000000                              000                           
0010001300311T 060180230000002544776 29647041699226877   7               11042017000000000008000001044229                         0900000000000010000000000000000000000000000000000000000   000000000000000000000029000        170192964704     
0010001300312U 060000000000000000000000000000000000000000000000000000000000000000000000080000000000000077100000000000000000000000000000001104201713042017            000000000000000                              000                           
0010001300313T 060180230000002544776 29647041714700029   7               11042017000000000006000104009230                         0900000000000010000000000000000000000000000000000000000   000000000000000000000029000        170192964704     
0010001300314U 060000000000000000000000000000000000000000000000000000000000000000000000060000000000000057100000000000000000000000000000001104201713042017            000000000000000                              000                           
0010001300315T 060180230000002544776 29647041717006771   7               11042017000000000006000104007290                         0900000000000010000000000000000000000000000000000000000   000000000000000000000029000        170192964704     
0010001300316U 060000000000000000000000000000000000000000000000000000000000000000000000060000000000000057100000000000000000000000000000001104201713042017            000000000000000                              000                           
0010001300317T 060180230000002544776 29647041717133369   7               11042017000000000006000341048610                         0900000000000010000000000000000000000000000000000000000   000000000000000000000029000        170192964704     
0010001300318U 060000000000000000000000000000000000000000000000000000000000000000000000060000000000000057100000000000000000000000000000001104201713042017            000000000000000                              000                           
0010001300319T 060180230000002544776 29647041717731253   7               11042017000000000006000001018384                         0900000000000010000000000000000000000000000000000000000   000000000000000000000029000        170192964704     
0010001300320U 060000000000000000000000000000000000000000000000000000000000000000000000060000000000000057100000000000000000000000000000001104201713042017            000000000000000                              000                           
0010001300321T 060180230000002544776 29647041720309412   7               12042017000000000006000104022210                         0900000000000010000000000000000000000000000000000000000   000000000000000000000029000        170192964704     
0010001300322U 060000000000000000000000000000000000000000000000000000000000000000000000060000000000000057100000000000000000000000000000001104201713042017            000000000000000                              000                           
0010001300323T 060180230000002544776 29647041729412131   7               1304201700000000000800000101138X                         0900000000000010000000000000000000000000000000000000000   000000000000000000000029000        170192964704     
0010001300324U 060000000000000000000000000000000000000000000000000000000000000000000000080000000000000077100000000000000000000000000000001104201713042017            000000000000000                              000                           
0010001300325T 280180230000002544776 29647040511559865   7               12032017000000000006000001000000                         0900000000000000000000000000000000000000000000000000000   000000000000000000000005002        170192964704     
0010001300326U 280000000000000000000000000000000000000000000000000000000000000000000000000000000000000000000000000000000000000000000000001104201700000000            000000000000000                              000                           
0010001300327T 280180230000002544776 29647040511906531   7               12032017000000000006000001000000                         0900000000000000000000000000000000000000000000000000000   000000000000000000000005002        170192964704     
0010001300328U 280000000000000000000000000000000000000000000000000000000000000000000000000000000000000000000000000000000000000000000000001104201700000000            000000000000000                              000                           
0010001300329T 280180230000002544776 29647040519101259   7               12032017000000000006000001000000                         0900000000000000000000000000000000000000000000000000000   000000000000000000000005002        170192964704     
0010001300330U 280000000000000000000000000000000000000000000000000000000000000000000000000000000000000000000000000000000000000000000000001104201700000000            000000000000000                              000                           
0010001300331T 280180230000002544776 29647040528505765   7               12032017000000000006000001000000                         0900000000000000000000000000000000000000000000000000000   000000000000000000000005002        170192964704     
0010001300332U 280000000000000000000000000000000000000000000000000000000000000000000000000000000000000000000000000000000000000000000000001104201700000000            000000000000000                              000                           
0010001300333T 280180230000002544776 29647040546315556   7               12032017000000000006000001000000                         0900000000000000000000000000000000000000000000000000000   000000000000000000000005002        170192964704     
0010001300334U 280000000000000000000000000000000000000000000000000000000000000000000000000000000000000000000000000000000000000000000000001104201700000000            000000000000000                              000                           
0010001300335T 280180230000002544776 29647040548723541   7               12032017000000000008000001000000                         0900000000000000000000000000000000000000000000000000000   000000000000000000000005002        170192964704     
0010001300336U 280000000000000000000000000000000000000000000000000000000000000000000000000000000000000000000000000000000000000000000000001104201700000000            000000000000000                              000                           
0010001300337T 280180230000002544776 29647040549729614   7               12032017000000000008000001000000                         0900000000000000000000000000000000000000000000000000000   000000000000000000000005002        170192964704     
0010001300338U 280000000000000000000000000000000000000000000000000000000000000000000000000000000000000000000000000000000000000000000000001104201700000000            000000000000000                              000                           
0010001300339T 280180230000002544776 29647040576014508   7               12032017000000000006000001000000                         0900000000000000000000000000000000000000000000000000000   000000000000000000000005002        170192964704     
0010001300340U 280000000000000000000000000000000000000000000000000000000000000000000000000000000000000000000000000000000000000000000000001104201700000000            000000000000000                              000                           
0010001300341T 280180230000002544776 29647040584754917   7               12032017000000000006000001000000                         0900000000000000000000000000000000000000000000000000000   000000000000000000000005002        170192964704     
0010001300342U 280000000000000000000000000000000000000000000000000000000000000000000000000000000000000000000000000000000000000000000000001104201700000000            000000000000000                              000                           
0010001300343T 280180230000002544776 29647040608536751   7               12032017000000000006000001000000                         0900000000000000000000000000000000000000000000000000000   000000000000000000000005002        170192964704     
0010001300344U 280000000000000000000000000000000000000000000000000000000000000000000000000000000000000000000000000000000000000000000000001104201700000000            000000000000000                              000                           
0010001300345T 280180230000002544776 29647040620453082   7               12032017000000000006000001000000                         0900000000000000000000000000000000000000000000000000000   000000000000000000000005002        170192964704     
0010001300346U 280000000000000000000000000000000000000000000000000000000000000000000000000000000000000000000000000000000000000000000000001104201700000000            000000000000000                              000                           
0010001300347T 280180230000002544776 29647040642949407   7               12032017000000000006000001000000                         0900000000000000000000000000000000000000000000000000000   000000000000000000000005002        170192964704     
0010001300348U 280000000000000000000000000000000000000000000000000000000000000000000000000000000000000000000000000000000000000000000000001104201700000000            000000000000000                              000                           
0010001300349T 280180230000002544776 29647040644928212   7               12032017000000000006000001000000                         0900000000000000000000000000000000000000000000000000000   000000000000000000000005002        170192964704     
0010001300350U 280000000000000000000000000000000000000000000000000000000000000000000000000000000000000000000000000000000000000000000000001104201700000000            000000000000000                              000                           
0010001300351T 280180230000002544776 29647040672356791   7               12032017000000000006000001000000                         0900000000000000000000000000000000000000000000000000000   000000000000000000000005002        170192964704     
0010001300352U 280000000000000000000000000000000000000000000000000000000000000000000000000000000000000000000000000000000000000000000000001104201700000000            000000000000000                              000                           
0010001300353T 280180230000002544776 29647040707223031   7               12032017000000000006000001000000                         0900000000000000000000000000000000000000000000000000000   000000000000000000000005002        170192964704     
0010001300354U 280000000000000000000000000000000000000000000000000000000000000000000000000000000000000000000000000000000000000000000000001104201700000000            000000000000000                              000                           
0010001300355T 280180230000002544776 29647040716749085   7               12032017000000000008000001000000                         0900000000000000000000000000000000000000000000000000000   000000000000000000000005002        170192964704     
0010001300356U 280000000000000000000000000000000000000000000000000000000000000000000000000000000000000000000000000000000000000000000000001104201700000000            000000000000000                              000                           
0010001300357T 280180230000002544776 29647040725220068   7               12032017000000000006000001000000                         0900000000000000000000000000000000000000000000000000000   000000000000000000000005002        170192964704     
0010001300358U 280000000000000000000000000000000000000000000000000000000000000000000000000000000000000000000000000000000000000000000000001104201700000000            000000000000000                              000                           
0010001300359T 280180230000002544776 29647040739014368   7               12032017000000000006000001000000                         0900000000000000000000000000000000000000000000000000000   000000000000000000000005002        170192964704     
0010001300360U 280000000000000000000000000000000000000000000000000000000000000000000000000000000000000000000000000000000000000000000000001104201700000000            000000000000000                              000                           
0010001300361T 280180230000002544776 29647040741259347   7               12032017000000000006000001000000                         0900000000000000000000000000000000000000000000000000000   000000000000000000000005002        170192964704     
0010001300362U 280000000000000000000000000000000000000000000000000000000000000000000000000000000000000000000000000000000000000000000000001104201700000000            000000000000000                              000                           
0010001300363T 280180230000002544776 29647040818237667   7               12032017000000000006000001000000                         0900000000000000000000000000000000000000000000000000000   000000000000000000000005002        170192964704     
0010001300364U 280000000000000000000000000000000000000000000000000000000000000000000000000000000000000000000000000000000000000000000000001104201700000000            000000000000000                              000                           
0010001300365T 280180230000002544776 29647040827019697   7               12032017000000000008000001000000                         0900000000000000000000000000000000000000000000000000000   000000000000000000000005002        170192964704     
0010001300366U 280000000000000000000000000000000000000000000000000000000000000000000000000000000000000000000000000000000000000000000000001104201700000000            000000000000000                              000                           
0010001300367T 280180230000002544776 29647040880333211   7               12032017000000000008000001000000                         0900000000000000000000000000000000000000000000000000000   000000000000000000000005002        170192964704     
0010001300368U 280000000000000000000000000000000000000000000000000000000000000000000000000000000000000000000000000000000000000000000000001104201700000000            000000000000000                              000                           
0010001300369T 280180230000002544776 29647040921601473   7               12032017000000000008000001000000                         0900000000000000000000000000000000000000000000000000000   000000000000000000000005002        170192964704     
0010001300370U 280000000000000000000000000000000000000000000000000000000000000000000000000000000000000000000000000000000000000000000000001104201700000000            000000000000000                              000                           
0010001300371T 280180230000002544776 29647040982031941   7               12032017000000000006000001000000                         0900000000000000000000000000000000000000000000000000000   000000000000000000000005002        170192964704     
0010001300372U 280000000000000000000000000000000000000000000000000000000000000000000000000000000000000000000000000000000000000000000000001104201700000000            000000000000000                              000                           
0010001300373T 280180230000002544776 29647040985035659   7               12032017000000000006000001000000                         0900000000000000000000000000000000000000000000000000000   000000000000000000000005002        170192964704     
0010001300374U 280000000000000000000000000000000000000000000000000000000000000000000000000000000000000000000000000000000000000000000000001104201700000000            000000000000000                              000                           
0010001300375T 280180230000002544776 29647040988519509   7               12032017000000000006000001000000                         0900000000000000000000000000000000000000000000000000000   000000000000000000000005002        170192964704     
0010001300376U 280000000000000000000000000000000000000000000000000000000000000000000000000000000000000000000000000000000000000000000000001104201700000000            000000000000000                              000                           
0010001300377T 280180230000002544776 29647040990515376   7               12032017000000000006000001000000                         0900000000000000000000000000000000000000000000000000000   000000000000000000000005002        170192964704     
0010001300378U 280000000000000000000000000000000000000000000000000000000000000000000000000000000000000000000000000000000000000000000000001104201700000000            000000000000000                              000                           
0010001300379T 280180230000002544776 29647041011722095   7               12032017000000000006000001000000                         0900000000000000000000000000000000000000000000000000000   000000000000000000000005002        170192964704     
0010001300380U 280000000000000000000000000000000000000000000000000000000000000000000000000000000000000000000000000000000000000000000000001104201700000000            000000000000000                              000                           
0010001300381T 280180230000002544776 29647041011723143   7               12032017000000000006000001000000                         0900000000000000000000000000000000000000000000000000000   000000000000000000000005002        170192964704     
0010001300382U 280000000000000000000000000000000000000000000000000000000000000000000000000000000000000000000000000000000000000000000000001104201700000000            000000000000000                              000                           
0010001300383T 280180230000002544776 29647041011752053   7               12032017000000000006000001000000                         0900000000000000000000000000000000000000000000000000000   000000000000000000000005002        170192964704     
0010001300384U 280000000000000000000000000000000000000000000000000000000000000000000000000000000000000000000000000000000000000000000000001104201700000000            000000000000000                              000                           
0010001300385T 280180230000002544776 29647041013044958   7               12032017000000000006000001000000                         0900000000000000000000000000000000000000000000000000000   000000000000000000000005002        170192964704     
0010001300386U 280000000000000000000000000000000000000000000000000000000000000000000000000000000000000000000000000000000000000000000000001104201700000000            000000000000000                              000                           
0010001300387T 280180230000002544776 29647041025511065   7               12032017000000000006000001000000                         0900000000000000000000000000000000000000000000000000000   000000000000000000000005002        170192964704     
0010001300388U 280000000000000000000000000000000000000000000000000000000000000000000000000000000000000000000000000000000000000000000000001104201700000000            000000000000000                              000                           
0010001300389T 280180230000002544776 29647041034039765   7               12032017000000000006000001000000                         0900000000000000000000000000000000000000000000000000000   000000000000000000000005002        170192964704     
0010001300390U 280000000000000000000000000000000000000000000000000000000000000000000000000000000000000000000000000000000000000000000000001104201700000000            000000000000000                              000                           
0010001300391T 280180230000002544776 29647041068456851   7               12032017000000000006000001000000                         0900000000000000000000000000000000000000000000000000000   000000000000000000000005002        170192964704     
0010001300392U 280000000000000000000000000000000000000000000000000000000000000000000000000000000000000000000000000000000000000000000000001104201700000000            000000000000000                              000                           
0010001300393T 280180230000002544776 29647041068457719   7               12032017000000000006000001000000                         0900000000000000000000000000000000000000000000000000000   000000000000000000000005002        170192964704     
0010001300394U 280000000000000000000000000000000000000000000000000000000000000000000000000000000000000000000000000000000000000000000000001104201700000000            000000000000000                              000                           
0010001300395T 280180230000002544776 29647041069625577   7               12032017000000000006000001000000                         0900000000000000000000000000000000000000000000000000000   000000000000000000000005002        170192964704     
0010001300396U 280000000000000000000000000000000000000000000000000000000000000000000000000000000000000000000000000000000000000000000000001104201700000000            000000000000000                              000                           
0010001300397T 280180230000002544776 29647041071300707   7               12032017000000000006000001000000                         0900000000000000000000000000000000000000000000000000000   000000000000000000000005002        170192964704     
0010001300398U 280000000000000000000000000000000000000000000000000000000000000000000000000000000000000000000000000000000000000000000000001104201700000000            000000000000000                              000                           
0010001300399T 280180230000002544776 29647041083417236   7               12032017000000000008000001000000                         0900000000000000000000000000000000000000000000000000000   000000000000000000000005002        170192964704     
0010001300400U 280000000000000000000000000000000000000000000000000000000000000000000000000000000000000000000000000000000000000000000000001104201700000000            000000000000000                              000                           
0010001300401T 280180230000002544776 29647041088835673   7               12032017000000000006000001000000                         0900000000000000000000000000000000000000000000000000000   000000000000000000000005002        170192964704     
0010001300402U 280000000000000000000000000000000000000000000000000000000000000000000000000000000000000000000000000000000000000000000000001104201700000000            000000000000000                              000                           
0010001300403T 280180230000002544776 29647041092016753   7               12032017000000000006000001000000                         0900000000000000000000000000000000000000000000000000000   000000000000000000000005002        170192964704     
0010001300404U 280000000000000000000000000000000000000000000000000000000000000000000000000000000000000000000000000000000000000000000000001104201700000000            000000000000000                              000                           
0010001300405T 280180230000002544776 29647041093028849   7               12032017000000000006000001000000                         0900000000000000000000000000000000000000000000000000000   000000000000000000000005002        170192964704     
0010001300406U 280000000000000000000000000000000000000000000000000000000000000000000000000000000000000000000000000000000000000000000000001104201700000000            000000000000000                              000                           
0010001300407T 280180230000002544776 29647041099909345   7               12032017000000000008000001000000                         0900000000000000000000000000000000000000000000000000000   000000000000000000000005002        170192964704     
0010001300408U 280000000000000000000000000000000000000000000000000000000000000000000000000000000000000000000000000000000000000000000000001104201700000000            000000000000000                              000                           
0010001300409T 280180230000002544776 29647041100245343   7               12032017000000000006000001000000                         0900000000000000000000000000000000000000000000000000000   000000000000000000000005002        170192964704     
0010001300410U 280000000000000000000000000000000000000000000000000000000000000000000000000000000000000000000000000000000000000000000000001104201700000000            000000000000000                              000                           
0010001300411T 280180230000002544776 29647041108308736   7               12032017000000000006000001000000                         0900000000000000000000000000000000000000000000000000000   000000000000000000000005002        170192964704     
0010001300412U 280000000000000000000000000000000000000000000000000000000000000000000000000000000000000000000000000000000000000000000000001104201700000000            000000000000000                              000                           
