00100000         2247745860001000029647040014       0180230000002544776 INSTITUTO DE SELECAO E TECNOLOBANCO DO BRASIL                         21204201701225700010203000000515122941PROCESSAMEN                                                 
00100011T0100020 20247745860001000029647040014       0180230000002544776 INSTITUTO DE SELECAO E TECNOLO                                                                                000000001204201700000000  000000000                      
0010001300001T 020180230000002544776 29647040511955379   7               14042017000000000006000001035041                         0900000000000010000000000000000000000000000000000000000   0000000000000000000000000A9        170192964704     
0010001300002U 020000000000000000000000000000000000000000000000000000000000000000000000000000000000000000000000000000000000000000000000001204201700000000            000000000000000                              000                           
0010001300003T 020180230000002544776 29647040549525070   7               14042017000000000006000001016179                         0900000000000010000000000000000000000000000000000000000   0000000000000000000000000A9        170192964704     
0010001300004U 020000000000000000000000000000000000000000000000000000000000000000000000000000000000000000000000000000000000000000000000001204201700000000            000000000000000                              000                           
0010001300005T 020180230000002544776 29647040623938172   7               14042017000000000006000001000132                         0900000000000010500000000000000000000000000000000000000   0000000000000000000000000A9A4      170192964704     
0010001300006U 020000000000000000000000000000000000000000000000000000000000000000000000000000000000000000000000000000000000000000000000001204201700000000            000000000000000                              000                           
0010001300007T 020180230000002544776 29647040638652726   7               14042017000000000006000001016179                         0900000000000010000000000000000000000000000000000000000   0000000000000000000000000A9        170192964704     
0010001300008U 020000000000000000000000000000000000000000000000000000000000000000000000000000000000000000000000000000000000000000000000001204201700000000            000000000000000                              000                           
0010001300009T 020180230000002544776 29647040769332860   7               14042017000000000006000001013595                         0900000000000010000000000000000000000000000000000000000   0000000000000000000000000A9        170192964704     
0010001300010U 020000000000000000000000000000000000000000000000000000000000000000000000000000000000000000000000000000000000000000000000001204201700000000            000000000000000                              000                           
0010001300011T 020180230000002544776 29647040853545670   7               14042017000000000006000001028029                         0900000000000010000000000000000000000000000000000000000   0000000000000000000000000A9        170192964704     
0010001300012U 020000000000000000000000000000000000000000000000000000000000000000000000000000000000000000000000000000000000000000000000001204201700000000            000000000000000                              000                           
0010001300013T 020180230000002544776 29647040889055297   7               14042017000000000006000001023183                         0900000000000010000000000000000000000000000000000000000   0000000000000000000000000A9        170192964704     
0010001300014U 020000000000000000000000000000000000000000000000000000000000000000000000000000000000000000000000000000000000000000000000001204201700000000            000000000000000                              000                           
0010001300015T 020180230000002544776 29647040951741713   7               14042017000000000006000001018376                         0900000000000010000000000000000000000000000000000000000   0000000000000000000000000A9        170192964704     
0010001300016U 020000000000000000000000000000000000000000000000000000000000000000000000000000000000000000000000000000000000000000000000001204201700000000            000000000000000                              000                           
0010001300017T 020180230000002544776 29647040957538368   7               14042017000000000006000001018376                         0900000000000010000000000000000000000000000000000000000   0000000000000000000000000A9        170192964704     
0010001300018U 020000000000000000000000000000000000000000000000000000000000000000000000000000000000000000000000000000000000000000000000001204201700000000            000000000000000                              000                           
0010001300019T 020180230000002544776 29647040977056799   7               14042017000000000006000001002003                         0900000000000010000000000000000000000000000000000000000   0000000000000000000000000A9        170192964704     
0010001300020U 020000000000000000000000000000000000000000000000000000000000000000000000000000000000000000000000000000000000000000000000001204201700000000            000000000000000                              000                           
0010001300021T 020180230000002544776 29647041005127329   7               14042017000000000008000001020354                         0900000000000010000000000000000000000000000000000000000   0000000000000000000000000A9        170192964704     
0010001300022U 020000000000000000000000000000000000000000000000000000000000000000000000000000000000000000000000000000000000000000000000001204201700000000            000000000000000                              000                           
0010001300023T 020180230000002544776 29647041007407314   7               14042017000000000006000001000132                         0900000000000010000000000000000000000000000000000000000   0000000000000000000000000A9        170192964704     
0010001300024U 020000000000000000000000000000000000000000000000000000000000000000000000000000000000000000000000000000000000000000000000001204201700000000            000000000000000                              000                           
0010001300025T 020180230000002544776 29647041022212178   7               14042017000000000006000001028029                         0900000000000010500000000000000000000000000000000000000   0000000000000000000000000A9A4      170192964704     
0010001300026U 020000000000000000000000000000000000000000000000000000000000000000000000000000000000000000000000000000000000000000000000001204201700000000            000000000000000                              000                           
0010001300027T 020180230000002544776 29647041024645903   7               14042017000000000006000001021911                         0900000000000010000000000000000000000000000000000000000   0000000000000000000000000A9        170192964704     
0010001300028U 020000000000000000000000000000000000000000000000000000000000000000000000000000000000000000000000000000000000000000000000001204201700000000            000000000000000                              000                           
0010001300029T 020180230000002544776 29647041035123585   7               14042017000000000008000001016020                         0900000000000010000000000000000000000000000000000000000   0000000000000000000000000A9        170192964704     
0010001300030U 020000000000000000000000000000000000000000000000000000000000000000000000000000000000000000000000000000000000000000000000001204201700000000            000000000000000                              000                           
0010001300031T 020180230000002544776 29647041072259654   7               14042017000000000006000001000132                         0900000000000010000000000000000000000000000000000000000   0000000000000000000000000A9        170192964704     
0010001300032U 020000000000000000000000000000000000000000000000000000000000000000000000000000000000000000000000000000000000000000000000001204201700000000            000000000000000                              000                           
0010001300033T 020180230000002544776 29647041111006922   7               1404201700000000000600000101110X                         0900000000000010000000000000000000000000000000000000000   0000000000000000000000000A9        170192964704     
0010001300034U 020000000000000000000000000000000000000000000000000000000000000000000000000000000000000000000000000000000000000000000000001204201700000000            000000000000000                              000                           
0010001300035T 020180230000002544776 29647041114725524   7               14042017000000000006000001026972                         0900000000000010000000000000000000000000000000000000000   0000000000000000000000000A9        170192964704     
0010001300036U 020000000000000000000000000000000000000000000000000000000000000000000000000000000000000000000000000000000000000000000000001204201700000000            000000000000000                              000                           
0010001300037T 020180230000002544776 29647041130835602   7               14042017000000000006000001028029                         0900000000000010000000000000000000000000000000000000000   0000000000000000000000000A9        170192964704     
0010001300038U 020000000000000000000000000000000000000000000000000000000000000000000000000000000000000000000000000000000000000000000000001204201700000000            000000000000000                              000                           
0010001300039T 020180230000002544776 29647041159352598   7               14042017000000000006000001001511                         0900000000000010000000000000000000000000000000000000000   0000000000000000000000000A9        170192964704     
0010001300040U 020000000000000000000000000000000000000000000000000000000000000000000000000000000000000000000000000000000000000000000000001204201700000000            000000000000000                              000                           
0010001300041T 020180230000002544776 29647041164242170   7               14042017000000000006000001028029                         0900000000000010000000000000000000000000000000000000000   0000000000000000000000000A9        170192964704     
0010001300042U 020000000000000000000000000000000000000000000000000000000000000000000000000000000000000000000000000000000000000000000000001204201700000000            000000000000000                              000                           
0010001300043T 020180230000002544776 29647041272644408   7               14042017000000000006000001033316                         0900000000000010000000000000000000000000000000000000000   0000000000000000000000000A9        170192964704     
0010001300044U 020000000000000000000000000000000000000000000000000000000000000000000000000000000000000000000000000000000000000000000000001204201700000000            000000000000000                              000                           
0010001300045T 020180230000002544776 29647041326418155   7               14042017000000000006000001008214                         0900000000000010000000000000000000000000000000000000000   0000000000000000000000000A9        170192964704     
0010001300046U 020000000000000000000000000000000000000000000000000000000000000000000000000000000000000000000000000000000000000000000000001204201700000000            000000000000000                              000                           
0010001300047T 020180230000002544776 29647041326420519   7               14042017000000000006000001008214                         0900000000000010000000000000000000000000000000000000000   0000000000000000000000000A9        170192964704     
0010001300048U 020000000000000000000000000000000000000000000000000000000000000000000000000000000000000000000000000000000000000000000000001204201700000000            000000000000000                              000                           
0010001300049T 020180230000002544776 29647041326424870   7               14042017000000000006000001008214                         0900000000000010000000000000000000000000000000000000000   0000000000000000000000000A9        170192964704     
0010001300050U 020000000000000000000000000000000000000000000000000000000000000000000000000000000000000000000000000000000000000000000000001204201700000000            000000000000000                              000                           
0010001300051T 020180230000002544776 29647041326624718   7               14042017000000000006000001001597                         0900000000000010000000000000000000000000000000000000000   0000000000000000000000000A9        170192964704     
0010001300052U 020000000000000000000000000000000000000000000000000000000000000000000000000000000000000000000000000000000000000000000000001204201700000000            000000000000000                              000                           
0010001300053T 020180230000002544776 29647041326636389   7               14042017000000000006000001001597                         0900000000000010000000000000000000000000000000000000000   0000000000000000000000000A9        170192964704     
0010001300054U 020000000000000000000000000000000000000000000000000000000000000000000000000000000000000000000000000000000000000000000000001204201700000000            000000000000000                              000                           
0010001300055T 020180230000002544776 29647041326652131   7               14042017000000000006000001001597                         0900000000000010000000000000000000000000000000000000000   0000000000000000000000000A9        170192964704     
0010001300056U 020000000000000000000000000000000000000000000000000000000000000000000000000000000000000000000000000000000000000000000000001204201700000000            000000000000000                              000                           
0010001300057T 020180230000002544776 29647041360904421   7               14042017000000000006000001028029                         0900000000000010000000000000000000000000000000000000000   0000000000000000000000000A9        170192964704     
0010001300058U 020000000000000000000000000000000000000000000000000000000000000000000000000000000000000000000000000000000000000000000000001204201700000000            000000000000000                              000                           
0010001300059T 020180230000002544776 29647041374701024   7               14042017000000000006000001033316                         0900000000000010000000000000000000000000000000000000000   0000000000000000000000000A9        170192964704     
0010001300060U 020000000000000000000000000000000000000000000000000000000000000000000000000000000000000000000000000000000000000000000000001204201700000000            000000000000000                              000                           
0010001300061T 020180230000002544776 29647041400124160   7               14042017000000000006000001028029                         0900000000000010000000000000000000000000000000000000000   0000000000000000000000000A9        170192964704     
0010001300062U 020000000000000000000000000000000000000000000000000000000000000000000000000000000000000000000000000000000000000000000000001204201700000000            000000000000000                              000                           
0010001300063T 020180230000002544776 29647041414632961   7               14042017000000000006000001020354                         0900000000000010000000000000000000000000000000000000000   0000000000000000000000000A9        170192964704     
0010001300064U 020000000000000000000000000000000000000000000000000000000000000000000000000000000000000000000000000000000000000000000000001204201700000000            000000000000000                              000                           
0010001300065T 020180230000002544776 29647041414656582   7               14042017000000000006000001020354                         0900000000000010000000000000000000000000000000000000000   0000000000000000000000000A9        170192964704     
0010001300066U 020000000000000000000000000000000000000000000000000000000000000000000000000000000000000000000000000000000000000000000000001204201700000000            000000000000000                              000                           
0010001300067T 020180230000002544776 29647041453836683   7               14042017000000000006000001016179                         0900000000000010000000000000000000000000000000000000000   0000000000000000000000000A9        170192964704     
0010001300068U 020000000000000000000000000000000000000000000000000000000000000000000000000000000000000000000000000000000000000000000000001204201700000000            000000000000000                              000                           
0010001300069T 020180230000002544776 29647041461906360   7               14042017000000000006000001016489                         0900000000000010000000000000000000000000000000000000000   0000000000000000000000000A9        170192964704     
0010001300070U 020000000000000000000000000000000000000000000000000000000000000000000000000000000000000000000000000000000000000000000000001204201700000000            000000000000000                              000                           
0010001300071T 020180230000002544776 29647041461928169   7               14042017000000000006000001016489                         0900000000000010000000000000000000000000000000000000000   0000000000000000000000000A9        170192964704     
0010001300072U 020000000000000000000000000000000000000000000000000000000000000000000000000000000000000000000000000000000000000000000000001204201700000000            000000000000000                              000                           
0010001300073T 020180230000002544776 29647041519032431   7               14042017000000000006000001000132                         0900000000000010000000000000000000000000000000000000000   0000000000000000000000000A9        170192964704     
0010001300074U 020000000000000000000000000000000000000000000000000000000000000000000000000000000000000000000000000000000000000000000000001204201700000000            000000000000000                              000                           
0010001300075T 020180230000002544776 29647041532630196   7               14042017000000000006000001034770                         0900000000000010000000000000000000000000000000000000000   0000000000000000000000000A9        170192964704     
0010001300076U 020000000000000000000000000000000000000000000000000000000000000000000000000000000000000000000000000000000000000000000000001204201700000000            000000000000000                              000                           
0010001300077T 020180230000002544776 29647041532655819   7               14042017000000000006000001034770                         0900000000000010000000000000000000000000000000000000000   0000000000000000000000000A9        170192964704     
0010001300078U 020000000000000000000000000000000000000000000000000000000000000000000000000000000000000000000000000000000000000000000000001204201700000000            000000000000000                              000                           
0010001300079T 020180230000002544776 29647041547743267   7               14042017000000000006000001028029                         0900000000000010000000000000000000000000000000000000000   0000000000000000000000000A9        170192964704     
0010001300080U 020000000000000000000000000000000000000000000000000000000000000000000000000000000000000000000000000000000000000000000000001204201700000000            000000000000000                              000                           
0010001300081T 020180230000002544776 29647041555821393   7               14042017000000000006000001028029                         0900000000000010000000000000000000000000000000000000000   0000000000000000000000000A9        170192964704     
0010001300082U 020000000000000000000000000000000000000000000000000000000000000000000000000000000000000000000000000000000000000000000000001204201700000000            000000000000000                              000                           
0010001300083T 020180230000002544776 29647041559705880   7               14042017000000000006000001016179                         0900000000000010000000000000000000000000000000000000000   0000000000000000000000000A9        170192964704     
0010001300084U 020000000000000000000000000000000000000000000000000000000000000000000000000000000000000000000000000000000000000000000000001204201700000000            000000000000000                              000                           
0010001300085T 020180230000002544776 29647041573220910   7               14042017000000000008000001028029                         0900000000000010000000000000000000000000000000000000000   0000000000000000000000000A9        170192964704     
0010001300086U 020000000000000000000000000000000000000000000000000000000000000000000000000000000000000000000000000000000000000000000000001204201700000000            000000000000000                              000                           
0010001300087T 020180230000002544776 29647041573242206   7               14042017000000000008000001028029                         0900000000000010000000000000000000000000000000000000000   0000000000000000000000000A9        170192964704     
0010001300088U 020000000000000000000000000000000000000000000000000000000000000000000000000000000000000000000000000000000000000000000000001204201700000000            000000000000000                              000                           
0010001300089T 020180230000002544776 29647041578444958   7               14042017000000000008000001026964                         0900000000000010000000000000000000000000000000000000000   0000000000000000000000000A9        170192964704     
0010001300090U 020000000000000000000000000000000000000000000000000000000000000000000000000000000000000000000000000000000000000000000000001204201700000000            000000000000000                              000                           
0010001300091T 020180230000002544776 29647041589634055   7               14042017000000000006000001018376                         0900000000000010000000000000000000000000000000000000000   0000000000000000000000000A9        170192964704     
0010001300092U 020000000000000000000000000000000000000000000000000000000000000000000000000000000000000000000000000000000000000000000000001204201700000000            000000000000000                              000                           
0010001300093T 020180230000002544776 29647041604806750   7               14042017000000000006000001000132                         0900000000000010000000000000000000000000000000000000000   0000000000000000000000000A9        170192964704     
0010001300094U 020000000000000000000000000000000000000000000000000000000000000000000000000000000000000000000000000000000000000000000000001204201700000000            000000000000000                              000                           
0010001300095T 020180230000002544776 29647041604807004   7               14042017000000000006000001000132                         0900000000000010000000000000000000000000000000000000000   0000000000000000000000000A9        170192964704     
0010001300096U 020000000000000000000000000000000000000000000000000000000000000000000000000000000000000000000000000000000000000000000000001204201700000000            000000000000000                              000                           
0010001300097T 020180230000002544776 29647041620543704   7               14042017000000000006000001018376                         0900000000000010000000000000000000000000000000000000000   0000000000000000000000000A9        170192964704     
0010001300098U 020000000000000000000000000000000000000000000000000000000000000000000000000000000000000000000000000000000000000000000000001204201700000000            000000000000000                              000                           
0010001300099T 020180230000002544776 29647041632852662   7               14042017000000000006000001018376                         0900000000000010000000000000000000000000000000000000000   0000000000000000000000000A9        170192964704     
0010001300100U 020000000000000000000000000000000000000000000000000000000000000000000000000000000000000000000000000000000000000000000000001204201700000000            000000000000000                              000                           
0010001300101T 020180230000002544776 29647041644429807   7               14042017000000000006000001016179                         0900000000000010000000000000000000000000000000000000000   0000000000000000000000000A9        170192964704     
0010001300102U 020000000000000000000000000000000000000000000000000000000000000000000000000000000000000000000000000000000000000000000000001204201700000000            000000000000000                              000                           
0010001300103T 020180230000002544776 29647041660543655   7               14042017000000000006000001018376                         0900000000000010000000000000000000000000000000000000000   0000000000000000000000000A9        170192964704     
0010001300104U 020000000000000000000000000000000000000000000000000000000000000000000000000000000000000000000000000000000000000000000000001204201700000000            000000000000000                              000                           
0010001300105T 020180230000002544776 29647041664202173   7               14042017000000000006000001028029                         0900000000000010000000000000000000000000000000000000000   0000000000000000000000000A9        170192964704     
0010001300106U 020000000000000000000000000000000000000000000000000000000000000000000000000000000000000000000000000000000000000000000000001204201700000000            000000000000000                              000                           
0010001300107T 020180230000002544776 29647041666207787   7               14042017000000000006000001008214                         0900000000000010000000000000000000000000000000000000000   0000000000000000000000000A9        170192964704     
0010001300108U 020000000000000000000000000000000000000000000000000000000000000000000000000000000000000000000000000000000000000000000000001204201700000000            000000000000000                              000                           
0010001300109T 020180230000002544776 29647041667759411   7               14042017000000000006000001028029                         0900000000000010000000000000000000000000000000000000000   0000000000000000000000000A9        170192964704     
0010001300110U 020000000000000000000000000000000000000000000000000000000000000000000000000000000000000000000000000000000000000000000000001204201700000000            000000000000000                              000                           
0010001300111T 020180230000002544776 29647041675417712   7               14042017000000000006000001016179                         0900000000000010000000000000000000000000000000000000000   0000000000000000000000000A9        170192964704     
0010001300112U 020000000000000000000000000000000000000000000000000000000000000000000000000000000000000000000000000000000000000000000000001204201700000000            000000000000000                              000                           
0010001300113T 020180230000002544776 29647041676641525   7               14042017000000000006000001000132                         0900000000000010000000000000000000000000000000000000000   0000000000000000000000000A9        170192964704     
0010001300114U 020000000000000000000000000000000000000000000000000000000000000000000000000000000000000000000000000000000000000000000000001204201700000000            000000000000000                              000                           
0010001300115T 020180230000002544776 29647041678728132   7               14042017000000000008000001016179                         0900000000000010000000000000000000000000000000000000000   0000000000000000000000000A9        170192964704     
0010001300116U 020000000000000000000000000000000000000000000000000000000000000000000000000000000000000000000000000000000000000000000000001204201700000000            000000000000000                              000                           
0010001300117T 020180230000002544776 29647041691440362   7               14042017000000000006000001033316                         0900000000000010000000000000000000000000000000000000000   0000000000000000000000000A9        170192964704     
0010001300118U 020000000000000000000000000000000000000000000000000000000000000000000000000000000000000000000000000000000000000000000000001204201700000000            000000000000000                              000                           
0010001300119T 020180230000002544776 29647041697005070   7               14042017000000000006000001032859                         0900000000000010000000000000000000000000000000000000000   0000000000000000000000000A9        170192964704     
0010001300120U 020000000000000000000000000000000000000000000000000000000000000000000000000000000000000000000000000000000000000000000000001204201700000000            000000000000000                              000                           
0010001300121T 020180230000002544776 29647041697019659   7               14042017000000000006000001032859                         0900000000000010000000000000000000000000000000000000000   0000000000000000000000000A9        170192964704     
0010001300122U 020000000000000000000000000000000000000000000000000000000000000000000000000000000000000000000000000000000000000000000000001204201700000000            000000000000000                              000                           
0010001300123T 020180230000002544776 29647041704232916   7               14042017000000000006000001000132                         0900000000000010000000000000000000000000000000000000000   0000000000000000000000000A9        170192964704     
0010001300124U 020000000000000000000000000000000000000000000000000000000000000000000000000000000000000000000000000000000000000000000000001204201700000000            000000000000000                              000                           
0010001300125T 020180230000002544776 29647041709125231   7               14042017000000000008000001008311                         0900000000000010000000000000000000000000000000000000000   0000000000000000000000000A9        170192964704     
0010001300126U 020000000000000000000000000000000000000000000000000000000000000000000000000000000000000000000000000000000000000000000000001204201700000000            000000000000000                              000                           
0010001300127T 020180230000002544776 29647041713229957   7               14042017000000000006000001000132                         0900000000000010000000000000000000000000000000000000000   0000000000000000000000000A9        170192964704     
0010001300128U 020000000000000000000000000000000000000000000000000000000000000000000000000000000000000000000000000000000000000000000000001204201700000000            000000000000000                              000                           
0010001300129T 020180230000002544776 29647041713742649   7               13042017000000000008000001000132                         0900000000000010000000000000000000000000000000000000000   0000000000000000000000000A9        170192964704     
0010001300130U 020000000000000000000000000000000000000000000000000000000000000000000000000000000000000000000000000000000000000000000000001104201700000000            000000000000000                              000                           
0010001300131T 020180230000002544776 29647041714932463   7               14042017000000000006000001016179                         0900000000000010000000000000000000000000000000000000000   0000000000000000000000000A9        170192964704     
0010001300132U 020000000000000000000000000000000000000000000000000000000000000000000000000000000000000000000000000000000000000000000000001204201700000000            000000000000000                              000                           
0010001300133T 020180230000002544776 29647041717848058   7               14042017000000000008000001000132                         0900000000000010000000000000000000000000000000000000000   0000000000000000000000000A9        170192964704     
0010001300134U 020000000000000000000000000000000000000000000000000000000000000000000000000000000000000000000000000000000000000000000000001204201700000000            000000000000000                              000                           
0010001300135T 020180230000002544776 29647041723328133   7               14042017000000000008000001028029                         0900000000000010000000000000000000000000000000000000000   0000000000000000000000000A9        170192964704     
0010001300136U 020000000000000000000000000000000000000000000000000000000000000000000000000000000000000000000000000000000000000000000000001204201700000000            000000000000000                              000                           
0010001300137T 020180230000002544776 29647041724909540   7               14042017000000000006000001012688                         0900000000000010000000000000000000000000000000000000000   0000000000000000000000000A9        170192964704     
0010001300138U 020000000000000000000000000000000000000000000000000000000000000000000000000000000000000000000000000000000000000000000000001204201700000000            000000000000000                              000                           
0010001300139T 020180230000002544776 29647041725002592   7               14042017000000000006000001010588                         0900000000000010000000000000000000000000000000000000000   0000000000000000000000000A9        170192964704     
0010001300140U 020000000000000000000000000000000000000000000000000000000000000000000000000000000000000000000000000000000000000000000000001204201700000000            000000000000000                              000                           
0010001300141T 020180230000002544776 29647041725005129   7               14042017000000000006000001010588                         0900000000000010000000000000000000000000000000000000000   0000000000000000000000000A9        170192964704     
0010001300142U 020000000000000000000000000000000000000000000000000000000000000000000000000000000000000000000000000000000000000000000000001204201700000000            000000000000000                              000                           
0010001300143T 020180230000002544776 29647041725008144   7               14042017000000000006000001010588                         0900000000000010000000000000000000000000000000000000000   0000000000000000000000000A9        170192964704     
0010001300144U 020000000000000000000000000000000000000000000000000000000000000000000000000000000000000000000000000000000000000000000000001204201700000000            000000000000000                              000                           
0010001300145T 020180230000002544776 29647041725013205   7               14042017000000000006000001010588                         0900000000000010000000000000000000000000000000000000000   0000000000000000000000000A9        170192964704     
0010001300146U 020000000000000000000000000000000000000000000000000000000000000000000000000000000000000000000000000000000000000000000000001204201700000000            000000000000000                              000                           
0010001300147T 020180230000002544776 29647041725015481   7               14042017000000000006000001010588                         0900000000000010000000000000000000000000000000000000000   0000000000000000000000000A9        170192964704     
0010001300148U 020000000000000000000000000000000000000000000000000000000000000000000000000000000000000000000000000000000000000000000000001204201700000000            000000000000000                              000                           
0010001300149T 020180230000002544776 29647041725018818   7               14042017000000000006000001010588                         0900000000000010000000000000000000000000000000000000000   0000000000000000000000000A9        170192964704     
0010001300150U 020000000000000000000000000000000000000000000000000000000000000000000000000000000000000000000000000000000000000000000000001204201700000000            000000000000000                              000                           
0010001300151T 020180230000002544776 29647041725040885   7               14042017000000000006000001010588                         0900000000000010000000000000000000000000000000000000000   0000000000000000000000000A9        170192964704     
0010001300152U 020000000000000000000000000000000000000000000000000000000000000000000000000000000000000000000000000000000000000000000000001204201700000000            000000000000000                              000                           
0010001300153T 020180230000002544776 29647041725046265   7               14042017000000000006000001010588                         0900000000000010000000000000000000000000000000000000000   0000000000000000000000000A9        170192964704     
0010001300154U 020000000000000000000000000000000000000000000000000000000000000000000000000000000000000000000000000000000000000000000000001204201700000000            000000000000000                              000                           
0010001300155T 020180230000002544776 29647041725055792   7               14042017000000000006000001010588                         0900000000000010000000000000000000000000000000000000000   0000000000000000000000000A9        170192964704     
0010001300156U 020000000000000000000000000000000000000000000000000000000000000000000000000000000000000000000000000000000000000000000000001204201700000000            000000000000000                              000                           
0010001300157T 020180230000002544776 29647041725500818   7               14042017000000000006000001016179                         0900000000000010000000000000000000000000000000000000000   0000000000000000000000000A9        170192964704     
0010001300158U 020000000000000000000000000000000000000000000000000000000000000000000000000000000000000000000000000000000000000000000000001204201700000000            000000000000000                              000                           
0010001300159T 020180230000002544776 29647041726327258   7               14042017000000000006000001028029                         0900000000000010000000000000000000000000000000000000000   0000000000000000000000000A9        170192964704     
0010001300160U 020000000000000000000000000000000000000000000000000000000000000000000000000000000000000000000000000000000000000000000000001204201700000000            000000000000000                              000                           
0010001300161T 020180230000002544776 29647041728532071   7               14042017000000000008000001016179                         0900000000000010000000000000000000000000000000000000000   0000000000000000000000000A9        170192964704     
0010001300162U 020000000000000000000000000000000000000000000000000000000000000000000000000000000000000000000000000000000000000000000000001204201700000000            000000000000000                              000                           
0010001300163T 020180230000002544776 29647041730530869   7               13042017000000000008000001016810                         0900000000000010000000000000000000000000000000000000000   0000000000000000000000000A9        170192964704     
0010001300164U 020000000000000000000000000000000000000000000000000000000000000000000000000000000000000000000000000000000000000000000000001104201700000000            000000000000000                              000                           
0010001300165T 020180230000002544776 29647041730625900   7               14042017000000000008000001028029                         0900000000000010000000000000000000000000000000000000000   0000000000000000000000000A9        170192964704     
0010001300166U 020000000000000000000000000000000000000000000000000000000000000000000000000000000000000000000000000000000000000000000000001204201700000000            000000000000000                              000                           
0010001300167T 020180230000002544776 29647041730630168   7               14042017000000000008000001028029                         0900000000000010000000000000000000000000000000000000000   0000000000000000000000000A9        170192964704     
0010001300168U 020000000000000000000000000000000000000000000000000000000000000000000000000000000000000000000000000000000000000000000000001204201700000000            000000000000000                              000                           
0010001300169T 020180230000002544776 29647041730726572   7               14042017000000000006000001025429                         0900000000000010000000000000000000000000000000000000000   0000000000000000000000000A9        170192964704     
0010001300170U 020000000000000000000000000000000000000000000000000000000000000000000000000000000000000000000000000000000000000000000000001204201700000000            000000000000000                              000                           
0010001300171T 020180230000002544776 29647041730833095   7               14042017000000000008000001028029                         0900000000000010000000000000000000000000000000000000000   0000000000000000000000000A9        170192964704     
0010001300172U 020000000000000000000000000000000000000000000000000000000000000000000000000000000000000000000000000000000000000000000000001204201700000000            000000000000000                              000                           
0010001300173T 020180230000002544776 29647041730908956   7               14042017000000000006000001023655                         0900000000000010500000000000000000000000000000000000000   0000000000000000000000000A9A4      170192964704     
0010001300174U 020000000000000000000000000000000000000000000000000000000000000000000000000000000000000000000000000000000000000000000000001204201700000000            000000000000000                              000                           
0010001300175T 020180230000002544776 29647041730911237   7               14042017000000000006000001023655                         0900000000000010500000000000000000000000000000000000000   0000000000000000000000000A9A4      170192964704     
0010001300176U 020000000000000000000000000000000000000000000000000000000000000000000000000000000000000000000000000000000000000000000000001204201700000000            000000000000000                              000                           
0010001300177T 020180230000002544776 29647041730947281   7               14042017000000000006000001023655                         0900000000000010500000000000000000000000000000000000000   0000000000000000000000000A9A4      170192964704     
0010001300178U 020000000000000000000000000000000000000000000000000000000000000000000000000000000000000000000000000000000000000000000000001204201700000000            000000000000000                              000                           
0010001300179T 020180230000002544776 29647041730958145   7               14042017000000000006000001023655                         0900000000000010500000000000000000000000000000000000000   0000000000000000000000000A9A4      170192964704     
0010001300180U 020000000000000000000000000000000000000000000000000000000000000000000000000000000000000000000000000000000000000000000000001204201700000000            000000000000000                              000                           
0010001300181T 020180230000002544776 29647041731052008   7               14042017000000000006000001021768                         0900000000000010000000000000000000000000000000000000000   0000000000000000000000000A9        170192964704     
0010001300182U 020000000000000000000000000000000000000000000000000000000000000000000000000000000000000000000000000000000000000000000000001204201700000000            000000000000000                              000                           
0010001300183T 020180230000002544776 29647041731201183   7               14042017000000000008000001007013                         0900000000000010000000000000000000000000000000000000000   0000000000000000000000000A9        170192964704     
0010001300184U 020000000000000000000000000000000000000000000000000000000000000000000000000000000000000000000000000000000000000000000000001204201700000000            000000000000000                              000                           
0010001300185T 020180230000002544776 29647041731334130   7               14042017000000000008000001001511                         0900000000000010000000000000000000000000000000000000000   0000000000000000000000000A9        170192964704     
0010001300186U 020000000000000000000000000000000000000000000000000000000000000000000000000000000000000000000000000000000000000000000000001204201700000000            000000000000000                              000                           
0010001300187T 020180230000002544776 29647041731443373   7               14042017000000000006000001000132                         0900000000000010000000000000000000000000000000000000000   0000000000000000000000000A9        170192964704     
0010001300188U 020000000000000000000000000000000000000000000000000000000000000000000000000000000000000000000000000000000000000000000000001204201700000000            000000000000000                              000                           
0010001300189T 020180230000002544776 29647041731540142   7               14042017000000000008000001012467                         0900000000000010000000000000000000000000000000000000000   0000000000000000000000000A9        170192964704     
0010001300190U 020000000000000000000000000000000000000000000000000000000000000000000000000000000000000000000000000000000000000000000000001204201700000000            000000000000000                              000                           
0010001300191T 020180230000002544776 29647041731623838   7               14042017000000000008000001000132                         0900000000000010000000000000000000000000000000000000000   0000000000000000000000000A9        170192964704     
0010001300192U 020000000000000000000000000000000000000000000000000000000000000000000000000000000000000000000000000000000000000000000000001204201700000000            000000000000000                              000                           
0010001300193T 020180230000002544776 29647041731722053   7               14042017000000000006000001020354                         0900000000000010000000000000000000000000000000000000000   0000000000000000000000000A9        170192964704     
0010001300194U 020000000000000000000000000000000000000000000000000000000000000000000000000000000000000000000000000000000000000000000000001204201700000000            000000000000000                              000                           
0010001300195T 020180230000002544776 29647041731827201   7               14042017000000000008000001001597                         0900000000000010000000000000000000000000000000000000000   0000000000000000000000000A9        170192964704     
0010001300196U 020000000000000000000000000000000000000000000000000000000000000000000000000000000000000000000000000000000000000000000000001204201700000000            000000000000000                              000                           
0010001300197T 020180230000002544776 29647041731924241   7               14042017000000000008000001028029                         0900000000000010500000000000000000000000000000000000000   0000000000000000000000000A9A4      170192964704     
0010001300198U 020000000000000000000000000000000000000000000000000000000000000000000000000000000000000000000000000000000000000000000000001204201700000000            000000000000000                              000                           
0010001300199T 020180230000002544776 29647041732038613   7               14042017000000000006000001012467                         0900000000000010000000000000000000000000000000000000000   0000000000000000000000000A9        170192964704     
0010001300200U 020000000000000000000000000000000000000000000000000000000000000000000000000000000000000000000000000000000000000000000000001204201700000000            000000000000000                              000                           
0010001300201T 020180230000002544776 29647041732118734   7               14042017000000000006000001005347                         0900000000000010000000000000000000000000000000000000000   0000000000000000000000000A9        170192964704     
0010001300202U 020000000000000000000000000000000000000000000000000000000000000000000000000000000000000000000000000000000000000000000000001204201700000000            000000000000000                              000                           
0010001300203T 020180230000002544776 29647041732212915   7               14042017000000000006000001016179                         0900000000000010000000000000000000000000000000000000000   0000000000000000000000000A9        170192964704     
0010001300204U 020000000000000000000000000000000000000000000000000000000000000000000000000000000000000000000000000000000000000000000000001204201700000000            000000000000000                              000                           
0010001300205T 020180230000002544776 29647041732231426   7               14042017000000000006000001016179                         0900000000000010000000000000000000000000000000000000000   0000000000000000000000000A9        170192964704     
0010001300206U 020000000000000000000000000000000000000000000000000000000000000000000000000000000000000000000000000000000000000000000000001204201700000000            000000000000000                              000                           
0010001300207T 020180230000002544776 29647041732451851   7               14042017000000000008000001000612                         0900000000000010000000000000000000000000000000000000000   0000000000000000000000000A9        170192964704     
0010001300208U 020000000000000000000000000000000000000000000000000000000000000000000000000000000000000000000000000000000000000000000000001204201700000000            000000000000000                              000                           
0010001300209T 020180230000002544776 29647041732507161   7               14042017000000000008000001016179                         0900000000000010000000000000000000000000000000000000000   0000000000000000000000000A9        170192964704     
0010001300210U 020000000000000000000000000000000000000000000000000000000000000000000000000000000000000000000000000000000000000000000000001204201700000000            000000000000000                              000                           
0010001300211T 020180230000002544776 29647041732623811   7               14042017000000000008000001028029                         0900000000000010000000000000000000000000000000000000000   0000000000000000000000000A9        170192964704     
0010001300212U 020000000000000000000000000000000000000000000000000000000000000000000000000000000000000000000000000000000000000000000000001204201700000000            000000000000000                              000                           
0010001300213T 020180230000002544776 29647041732703813   7               1404201700000000000600000100233X                         0900000000000010000000000000000000000000000000000000000   0000000000000000000000000A9        170192964704     
0010001300214U 020000000000000000000000000000000000000000000000000000000000000000000000000000000000000000000000000000000000000000000000001204201700000000            000000000000000                              000                           
0010001300215T 020180230000002544776 29647041732709812   7               1404201700000000000600000100233X                         0900000000000010000000000000000000000000000000000000000   0000000000000000000000000A9        170192964704     
0010001300216U 020000000000000000000000000000000000000000000000000000000000000000000000000000000000000000000000000000000000000000000000001204201700000000            000000000000000                              000                           
0010001300217T 020180230000002544776 29647041732716594   7               1404201700000000000600000100233X                         0900000000000010000000000000000000000000000000000000000   0000000000000000000000000A9        170192964704     
0010001300218U 020000000000000000000000000000000000000000000000000000000000000000000000000000000000000000000000000000000000000000000000001204201700000000            000000000000000                              000                           
0010001300219T 020180230000002544776 29647041732732535   7               1404201700000000000600000100233X                         0900000000000010000000000000000000000000000000000000000   0000000000000000000000000A9        170192964704     
0010001300220U 020000000000000000000000000000000000000000000000000000000000000000000000000000000000000000000000000000000000000000000000001204201700000000            000000000000000                              000                           
0010001300221T 020180230000002544776 29647041732740736   7               1404201700000000000600000100233X                         0900000000000010000000000000000000000000000000000000000   0000000000000000000000000A9        170192964704     
0010001300222U 020000000000000000000000000000000000000000000000000000000000000000000000000000000000000000000000000000000000000000000000001204201700000000            000000000000000                              000                           
0010001300223T 020180230000002544776 29647041732745456   7               1404201700000000000600000100233X                         0900000000000010000000000000000000000000000000000000000   0000000000000000000000000A9        170192964704     
0010001300224U 020000000000000000000000000000000000000000000000000000000000000000000000000000000000000000000000000000000000000000000000001204201700000000            000000000000000                              000                           
0010001300225T 020180230000002544776 29647041732747984   7               1404201700000000000600000100233X                         0900000000000010000000000000000000000000000000000000000   0000000000000000000000000A9        170192964704     
0010001300226U 020000000000000000000000000000000000000000000000000000000000000000000000000000000000000000000000000000000000000000000000001204201700000000            000000000000000                              000                           
0010001300227T 020180230000002544776 29647041732812616   7               14042017000000000006000001012467                         0900000000000010000000000000000000000000000000000000000   0000000000000000000000000A9        170192964704     
0010001300228U 020000000000000000000000000000000000000000000000000000000000000000000000000000000000000000000000000000000000000000000000001204201700000000            000000000000000                              000                           
0010001300229T 020180230000002544776 29647041732917717   7               14042017000000000006000001010286                         0900000000000010000000000000000000000000000000000000000   0000000000000000000000000A9        170192964704     
0010001300230U 020000000000000000000000000000000000000000000000000000000000000000000000000000000000000000000000000000000000000000000000001204201700000000            000000000000000                              000                           
0010001300231T 020180230000002544776 29647041732934477   7               14042017000000000006000001010286                         0900000000000010000000000000000000000000000000000000000   0000000000000000000000000A9        170192964704     
0010001300232U 020000000000000000000000000000000000000000000000000000000000000000000000000000000000000000000000000000000000000000000000001204201700000000            000000000000000                              000                           
0010001300233T 020180230000002544776 29647041733011475   7               14042017000000000006000001009229                         0900000000000010000000000000000000000000000000000000000   0000000000000000000000000A9        170192964704     
0010001300234U 020000000000000000000000000000000000000000000000000000000000000000000000000000000000000000000000000000000000000000000000001204201700000000            000000000000000                              000                           
0010001300235T 020180230000002544776 29647041733130054   7               14042017000000000006000001020354                         0900000000000010000000000000000000000000000000000000000   0000000000000000000000000A9        170192964704     
0010001300236U 020000000000000000000000000000000000000000000000000000000000000000000000000000000000000000000000000000000000000000000000001204201700000000            000000000000000                              000                           
0010001300237T 020180230000002544776 29647041733226622   7               14042017000000000006000001010669                         0900000000000010000000000000000000000000000000000000000   0000000000000000000000000A9        170192964704     
0010001300238U 020000000000000000000000000000000000000000000000000000000000000000000000000000000000000000000000000000000000000000000000001204201700000000            000000000000000                              000                           
0010001300239T 020180230000002544776 29647041733313235   7               14042017000000000006000001028029                         0900000000000010000000000000000000000000000000000000000   0000000000000000000000000A9        170192964704     
0010001300240U 020000000000000000000000000000000000000000000000000000000000000000000000000000000000000000000000000000000000000000000000001204201700000000            000000000000000                              000                           
0010001300241T 020180230000002544776 29647041733347133   7               14042017000000000006000001028029                         0900000000000010000000000000000000000000000000000000000   0000000000000000000000000A9        170192964704     
0010001300242U 020000000000000000000000000000000000000000000000000000000000000000000000000000000000000000000000000000000000000000000000001204201700000000            000000000000000                              000                           
0010001300243T 020180230000002544776 29647041733347513   7               14042017000000000006000001028029                         0900000000000010000000000000000000000000000000000000000   0000000000000000000000000A9        170192964704     
0010001300244U 020000000000000000000000000000000000000000000000000000000000000000000000000000000000000000000000000000000000000000000000001204201700000000            000000000000000                              000                           
0010001300245T 020180230000002544776 29647041733356425   7               14042017000000000006000001028029                         0900000000000010000000000000000000000000000000000000000   0000000000000000000000000A9        170192964704     
0010001300246U 020000000000000000000000000000000000000000000000000000000000000000000000000000000000000000000000000000000000000000000000001204201700000000            000000000000000                              000                           
0010001300247T 020180230000002544776 29647041733459777   7               14042017000000000006000001000132                         0900000000000010000000000000000000000000000000000000000   0000000000000000000000000A9        170192964704     
0010001300248U 020000000000000000000000000000000000000000000000000000000000000000000000000000000000000000000000000000000000000000000000001204201700000000            000000000000000                              000                           
0010001300249T 020180230000002544776 29647041733557859   7               14042017000000000006000001028029                         0900000000000010000000000000000000000000000000000000000   0000000000000000000000000A9        170192964704     
0010001300250U 020000000000000000000000000000000000000000000000000000000000000000000000000000000000000000000000000000000000000000000000001204201700000000            000000000000000                              000                           
0010001300251T 060180230000002544776 29647040533512381   7               12042017000000000006000001014451                         0900000000000010000000000000000000000000000000000000000   000000000000000000000029000        170192964704     
0010001300252U 060000000000000000000000000000000000000000000000000000000000000000000000060000000000000057100000000000000000000000000000001204201717042017            000000000000000                              000                           
0010001300253T 060180230000002544776 29647040573704674   7               12042017000000000008000001016012                         0900000000000010000000000000000000000000000000000000000   000000000000000000000029000        170192964704     
0010001300254U 060000000000000000000000000000000000000000000000000000000000000000000000080000000000000077100000000000000000000000000000001204201717042017            000000000000000                              000                           
0010001300255T 060180230000002544776 29647040944110327   7               12042017000000000006000104047590                         0900000000000010000000000000000000000000000000000000000   000000000000000000000029000        170192964704     
0010001300256U 060000000000000000000000000000000000000000000000000000000000000000000000060000000000000057100000000000000000000000000000001204201717042017            000000000000000                              000                           
0010001300257T 060180230000002544776 29647040977056799   7               14042017000000000006000104000420                         0900000000000010000000000000000000000000000000000000000   000000000000000000000029000        170192964704     
0010001300258U 060000000000000000000000000000000000000000000000000000000000000000000000060000000000000057100000000000000000000000000000001204201717042017            000000000000000                              000                           
0010001300259T 060180230000002544776 29647041035123585   7               14042017000000000008000104015190                         0900000000000010000000000000000000000000000000000000000   000000000000000000000029000        170192964704     
0010001300260U 060000000000000000000000000000000000000000000000000000000000000000000000080000000000000077100000000000000000000000000000001204201717042017            000000000000000                              000                           
0010001300261T 060180230000002544776 29647041111006922   7               14042017000000000006000104034670                         0900000000000010000000000000000000000000000000000000000   000000000000000000000029000        170192964704     
0010001300262U 060000000000000000000000000000000000000000000000000000000000000000000000060000000000000057100000000000000000000000000000001204201717042017            000000000000000                              000                           
0010001300263T 060180230000002544776 29647041114725524   7               14042017000000000006000001002291                         0900000000000010000000000000000000000000000000000000000   000000000000000000000029000        170192964704     
0010001300264U 060000000000000000000000000000000000000000000000000000000000000000000000060000000000000057100000000000000000000000000000001204201717042017            000000000000000                              000                           
0010001300265T 060180230000002544776 29647041272644408   7               14042017000000000006000104000410                         0900000000000010000000000000000000000000000000000000000   000000000000000000000029000        170192964704     
0010001300266U 060000000000000000000000000000000000000000000000000000000000000000000000060000000000000057100000000000000000000000000000001204201717042017            000000000000000                              000                           
0010001300267T 060180230000002544776 29647041323513887   7               12042017000000000006000001000116                         0900000000000010000000000000000000000000000000000000000   000000000000000000000029000        170192964704     
0010001300268U 060000000000000000000000000000000000000000000000000000000000000000000000060000000000000057100000000000000000000000000000001204201717042017            000000000000000                              000                           
0010001300269T 060180230000002544776 29647041413134345   7               12042017000000000006000001082546                         0900000000000010000000000000000000000000000000000000000   000000000000000000000029000        170192964704     
0010001300270U 060000000000000000000000000000000000000000000000000000000000000000000000060000000000000057100000000000000000000000000000001204201717042017            000000000000000                              000                           
0010001300271T 060180230000002544776 29647041461911409   7               12042017000000000006000001016489                         0900000000000010000000000000000000000000000000000000000   000000000000000000000029000        170192964704     
0010001300272U 060000000000000000000000000000000000000000000000000000000000000000000000060000000000000057100000000000000000000000000000001204201717042017            000000000000000                              000                           
0010001300273T 060180230000002544776 29647041645745596   7               12042017000000000006000001035262                         0900000000000010000000000000000000000000000000000000000   000000000000000000000029000        170192964704     
0010001300274U 060000000000000000000000000000000000000000000000000000000000000000000000060000000000000057100000000000000000000000000000001204201717042017            000000000000000                              000                           
0010001300275T 060180230000002544776 29647041649629127   7               12042017000000000006000104021170                         0900000000000010000000000000000000000000000000000000000   000000000000000000000029000        170192964704     
0010001300276U 060000000000000000000000000000000000000000000000000000000000000000000000060000000000000057100000000000000000000000000000001204201717042017            000000000000000                              000                           
0010001300277T 060180230000002544776 29647041666207787   7               14042017000000000006000001006971                         0900000000000010000000000000000000000000000000000000000   000000000000000000000029000        170192964704     
0010001300278U 060000000000000000000000000000000000000000000000000000000000000000000000060000000000000057100000000000000000000000000000001204201717042017            000000000000000                              000                           
0010001300279T 060180230000002544776 29647041679348916   7               13042017000000000006000104020470                         0900000000000010000000000000000000000000000000000000000   000000000000000000000029000        170192964704     
0010001300280U 060000000000000000000000000000000000000000000000000000000000000000000000060000000000000057100000000000000000000000000000001204201717042017            000000000000000                              000                           
0010001300281T 060180230000002544776 29647041692758959   7               12042017000000000008000001045551                         0900000000000010000000000000000000000000000000000000000   000000000000000000000029000        170192964704     
0010001300282U 060000000000000000000000000000000000000000000000000000000000000000000000080000000000000077100000000000000000000000000000001204201717042017            000000000000000                              000                           
0010001300283T 060180230000002544776 29647041694455126   7               12042017000000000006000104035450                         0900000000000010000000000000000000000000000000000000000   000000000000000000000029000        170192964704     
0010001300284U 060000000000000000000000000000000000000000000000000000000000000000000000060000000000000057100000000000000000000000000000001204201717042017            000000000000000                              000                           
0010001300285T 060180230000002544776 29647041703644195   7               1204201700000000000800000104301X                         0900000000000010000000000000000000000000000000000000000   000000000000000000000029000        170192964704     
0010001300286U 060000000000000000000000000000000000000000000000000000000000000000000000080000000000000077100000000000000000000000000000001204201717042017            000000000000000                              000                           
0010001300287T 060180230000002544776 29647041706447875   7               13042017000000000008000104000550                         0900000000000010000000000000000000000000000000000000000   000000000000000000000029000        170192964704     
0010001300288U 060000000000000000000000000000000000000000000000000000000000000000000000080000000000000077100000000000000000000000000000001204201717042017            000000000000000                              000                           
0010001300289T 060180230000002544776 29647041717848058   7               14042017000000000008000104000550                         0900000000000010000000000000000000000000000000000000000   000000000000000000000029000        170192964704     
0010001300290U 060000000000000000000000000000000000000000000000000000000000000000000000080000000000000077100000000000000000000000000000001204201717042017            000000000000000                              000                           
0010001300291T 060180230000002544776 29647041723313244   7               12042017000000000008000001033936                         0900000000000010000000000000000000000000000000000000000   000000000000000000000029000        170192964704     
0010001300292U 060000000000000000000000000000000000000000000000000000000000000000000000080000000000000077100000000000000000000000000000001204201717042017            000000000000000                              000                           
0010001300293T 060180230000002544776 29647041724622047   7               12042017000000000006000104047590                         0900000000000010000000000000000000000000000000000000000   000000000000000000000029000        170192964704     
0010001300294U 060000000000000000000000000000000000000000000000000000000000000000000000060000000000000057100000000000000000000000000000001204201717042017            000000000000000                              000                           
0010001300295T 060180230000002544776 29647041725842984   7               13042017000000000006000104019140                         0900000000000010000000000000000000000000000000000000000   000000000000000000000029000        170192964704     
0010001300296U 060000000000000000000000000000000000000000000000000000000000000000000000060000000000000057100000000000000000000000000000001204201717042017            000000000000000                              000                           
0010001300297T 060180230000002544776 29647041726327258   7               14042017000000000006000104015840                         0900000000000010000000000000000000000000000000000000000   000000000000000000000029000        170192964704     
0010001300298U 060000000000000000000000000000000000000000000000000000000000000000000000060000000000000057100000000000000000000000000000001204201717042017            000000000000000                              000                           
0010001300299T 060180230000002544776 29647041726948845   7               13042017000000000008000001083534                         0900000000000010000000000000000000000000000000000000000   000000000000000000000029000        170192964704     
0010001300300U 060000000000000000000000000000000000000000000000000000000000000000000000080000000000000077100000000000000000000000000000001204201717042017            000000000000000                              000                           
0010001300301T 060180230000002544776 29647041728532071   7               14042017000000000008000001016195                         0900000000000010000000000000000000000000000000000000000   000000000000000000000029000        170192964704     
0010001300302U 060000000000000000000000000000000000000000000000000000000000000000000000080000000000000077100000000000000000000000000000001204201717042017            000000000000000                              000                           
0010001300303T 170180230000002544776 29647041728942956   7               00000000000000000006000104010300                         0900000000000010000000000000000000000000000000000000000   000000000000000000000070003        170192964704     
0010001300304U 170000000000000000000000000000000000000000000000000000000000000000000000060000000000000053000000000000000000000000000000001204201717042017            000000000000000                              000                           
0010001300305T 060180230000002544776 29647041731540142   7               14042017000000000008000748022070                         0900000000000010000000000000000000000000000000000000000   000000000000000000000029000        170192964704     
0010001300306U 060000000000000000000000000000000000000000000000000000000000000000000000080000000000000077100000000000000000000000000000001204201717042017            000000000000000                              000                           
0010001300307T 060180230000002544776 29647041731827201   7               14042017000000000008000001001597                         0900000000000010000000000000000000000000000000000000000   000000000000000000000029000        170192964704     
0010001300308U 060000000000000000000000000000000000000000000000000000000000000000000000080000000000000077100000000000000000000000000000001204201717042017            000000000000000                              000                           
0010001300309T 060180230000002544776 29647041732812616   7               1404201700000000000600000102256X                         0900000000000010000000000000000000000000000000000000000   000000000000000000000029000        170192964704     
0010001300310U 060000000000000000000000000000000000000000000000000000000000000000000000060000000000000057100000000000000000000000000000001204201717042017            000000000000000                              000                           
0010001300311T 280180230000002544776 29647040511945144   7               13032017000000000006000001000000                         0900000000000000000000000000000000000000000000000000000   000000000000000000000005002        170192964704     
0010001300312U 280000000000000000000000000000000000000000000000000000000000000000000000000000000000000000000000000000000000000000000000001204201700000000            000000000000000                              000                           
0010001300313T 280180230000002544776 29647040688852937   7               13032017000000000008000001000000                         0900000000000000000000000000000000000000000000000000000   000000000000000000000005002        170192964704     
0010001300314U 280000000000000000000000000000000000000000000000000000000000000000000000000000000000000000000000000000000000000000000000001204201700000000            000000000000000                              000                           
0010001300315T 280180230000002544776 29647040700611522   7               13032017000000000006000001000000                         0900000000000000000000000000000000000000000000000000000   000000000000000000000005002        170192964704     
0010001300316U 280000000000000000000000000000000000000000000000000000000000000000000000000000000000000000000000000000000000000000000000001204201700000000            000000000000000                              000                           
0010001300317T 280180230000002544776 29647040769328745   7               13032017000000000006000001000000                         0900000000000000000000000000000000000000000000000000000   000000000000000000000005002        170192964704     
0010001300318U 280000000000000000000000000000000000000000000000000000000000000000000000000000000000000000000000000000000000000000000000001204201700000000            000000000000000                              000                           
0010001300319T 280180230000002544776 29647040774713942   7               13032017000000000006000001000000                         0900000000000000000000000000000000000000000000000000000   000000000000000000000005002        170192964704     
0010001300320U 280000000000000000000000000000000000000000000000000000000000000000000000000000000000000000000000000000000000000000000000001204201700000000            000000000000000                              000                           
0010001300321T 280180230000002544776 29647040774749020   7               13032017000000000006000001000000                         0900000000000000000000000000000000000000000000000000000   000000000000000000000005002        170192964704     
0010001300322U 280000000000000000000000000000000000000000000000000000000000000000000000000000000000000000000000000000000000000000000000001204201700000000            000000000000000                              000                           
0010001300323T 280180230000002544776 29647040816523846   7               13032017000000000006000001000000                         0900000000000000000000000000000000000000000000000000000   000000000000000000000005002        170192964704     
0010001300324U 280000000000000000000000000000000000000000000000000000000000000000000000000000000000000000000000000000000000000000000000001204201700000000            000000000000000                              000                           
0010001300325T 280180230000002544776 29647040834746263   7               13032017000000000006000001000000                         0900000000000000000000000000000000000000000000000000000   000000000000000000000005002        170192964704     
0010001300326U 280000000000000000000000000000000000000000000000000000000000000000000000000000000000000000000000000000000000000000000000001204201700000000            000000000000000                              000                           
0010001300327T 280180230000002544776 29647040849701531   7               13032017000000000006000001000000                         0900000000000000000000000000000000000000000000000000000   000000000000000000000005002        170192964704     
0010001300328U 280000000000000000000000000000000000000000000000000000000000000000000000000000000000000000000000000000000000000000000000001204201700000000            000000000000000                              000                           
0010001300329T 280180230000002544776 29647040917816010   7               13032017000000000006000001000000                         0900000000000000000000000000000000000000000000000000000   000000000000000000000005002        170192964704     
0010001300330U 280000000000000000000000000000000000000000000000000000000000000000000000000000000000000000000000000000000000000000000000001204201700000000            000000000000000                              000                           
0010001300331T 280180230000002544776 29647040922534692   7               13032017000000000006000001000000                         0900000000000000000000000000000000000000000000000000000   000000000000000000000005002        170192964704     
0010001300332U 280000000000000000000000000000000000000000000000000000000000000000000000000000000000000000000000000000000000000000000000001204201700000000            000000000000000                              000                           
0010001300333T 280180230000002544776 29647040922555615   7               13032017000000000006000001000000                         0900000000000000000000000000000000000000000000000000000   000000000000000000000005002        170192964704     
0010001300334U 280000000000000000000000000000000000000000000000000000000000000000000000000000000000000000000000000000000000000000000000001204201700000000            000000000000000                              000                           
0010001300335T 280180230000002544776 29647040926018978   7               13032017000000000006000001000000                         0900000000000000000000000000000000000000000000000000000   000000000000000000000005002        170192964704     
0010001300336U 280000000000000000000000000000000000000000000000000000000000000000000000000000000000000000000000000000000000000000000000001204201700000000            000000000000000                              000                           
0010001300337T 280180230000002544776 29647040954340238   7               13032017000000000006000001000000                         0900000000000000000000000000000000000000000000000000000   000000000000000000000005002        170192964704     
0010001300338U 280000000000000000000000000000000000000000000000000000000000000000000000000000000000000000000000000000000000000000000000001204201700000000            000000000000000                              000                           
0010001300339T 280180230000002544776 29647040954348316   7               13032017000000000006000001000000                         0900000000000000000000000000000000000000000000000000000   000000000000000000000005002        170192964704     
0010001300340U 280000000000000000000000000000000000000000000000000000000000000000000000000000000000000000000000000000000000000000000000001204201700000000            000000000000000                              000                           
0010001300341T 280180230000002544776 29647040954353237   7               13032017000000000006000001000000                         0900000000000000000000000000000000000000000000000000000   000000000000000000000005002        170192964704     
0010001300342U 280000000000000000000000000000000000000000000000000000000000000000000000000000000000000000000000000000000000000000000000001204201700000000            000000000000000                              000                           
0010001300343T 280180230000002544776 29647040977021008   7               13032017000000000006000001000000                         0900000000000000000000000000000000000000000000000000000   000000000000000000000005002        170192964704     
0010001300344U 280000000000000000000000000000000000000000000000000000000000000000000000000000000000000000000000000000000000000000000000001204201700000000            000000000000000                              000                           
0010001300345T 280180230000002544776 29647040987021267   7               13032017000000000006000001000000                         0900000000000000000000000000000000000000000000000000000   000000000000000000000005002        170192964704     
0010001300346U 280000000000000000000000000000000000000000000000000000000000000000000000000000000000000000000000000000000000000000000000001204201700000000            000000000000000                              000                           
0010001300347T 280180230000002544776 29647041015331622   7               13032017000000000006000001000000                         0900000000000000000000000000000000000000000000000000000   000000000000000000000005002        170192964704     
0010001300348U 280000000000000000000000000000000000000000000000000000000000000000000000000000000000000000000000000000000000000000000000001204201700000000            000000000000000                              000                           
0010001300349T 280180230000002544776 29647041027615696   7               13032017000000000006000001000000                         0900000000000000000000000000000000000000000000000000000   000000000000000000000005002        170192964704     
0010001300350U 280000000000000000000000000000000000000000000000000000000000000000000000000000000000000000000000000000000000000000000000001204201700000000            000000000000000                              000                           
0010001300351T 280180230000002544776 29647041052244838   7               13032017000000000006000001000000                         0900000000000000000000000000000000000000000000000000000   000000000000000000000005002        170192964704     
0010001300352U 280000000000000000000000000000000000000000000000000000000000000000000000000000000000000000000000000000000000000000000000001204201700000000            000000000000000                              000                           
0010001300353T 280180230000002544776 29647041081356921   7               13032017000000000006000001000000                         0900000000000000000000000000000000000000000000000000000   000000000000000000000005002        170192964704     
0010001300354U 280000000000000000000000000000000000000000000000000000000000000000000000000000000000000000000000000000000000000000000000001204201700000000            000000000000000                              000                           
0010001300355T 280180230000002544776 29647041099253595   7               13032017000000000006000001000000                         0900000000000000000000000000000000000000000000000000000   000000000000000000000005002        170192964704     
0010001300356U 280000000000000000000000000000000000000000000000000000000000000000000000000000000000000000000000000000000000000000000000001204201700000000            000000000000000                              000                           
0010001300357T 280180230000002544776 29647041099254755   7               13032017000000000006000001000000                         0900000000000000000000000000000000000000000000000000000   000000000000000000000005002        170192964704     
0010001300358U 280000000000000000000000000000000000000000000000000000000000000000000000000000000000000000000000000000000000000000000000001204201700000000            000000000000000                              000                           
0010001300359T 280180230000002544776 29647041194750834   7               13032017000000000006000001000000                         0900000000000000000000000000000000000000000000000000000   000000000000000000000005002        170192964704     
0010001300360U 280000000000000000000000000000000000000000000000000000000000000000000000000000000000000000000000000000000000000000000000001204201700000000            000000000000000                              000                           
0010001300361T 280180230000002544776 29647041195124932   7               13032017000000000008000001000000                         0900000000000000000000000000000000000000000000000000000   000000000000000000000005002        170192964704     
0010001300362U 280000000000000000000000000000000000000000000000000000000000000000000000000000000000000000000000000000000000000000000000001204201700000000            000000000000000                              000                           
0010001300363T 280180230000002544776 29647041195239884   7               13032017000000000006000001000000                         0900000000000000000000000000000000000000000000000000000   000000000000000000000005002        170192964704     
0010001300364U 280000000000000000000000000000000000000000000000000000000000000000000000000000000000000000000000000000000000000000000000001204201700000000            000000000000000                              000                           
0010001300365T 280180230000002544776 29647041195241300   7               13032017000000000006000001000000                         0900000000000000000000000000000000000000000000000000000   000000000000000000000005002        170192964704     
0010001300366U 280000000000000000000000000000000000000000000000000000000000000000000000000000000000000000000000000000000000000000000000001204201700000000            000000000000000                              000                           
0010001300367T 280180230000002544776 29647041195819249   7               13032017000000000008000001000000                         0900000000000000000000000000000000000000000000000000000   000000000000000000000005002        170192964704     
0010001300368U 280000000000000000000000000000000000000000000000000000000000000000000000000000000000000000000000000000000000000000000000001204201700000000            000000000000000                              000                           
0010001300369T 280180230000002544776 29647041195847473   7               13032017000000000008000001000000                         0900000000000000000000000000000000000000000000000000000   000000000000000000000005002        170192964704     
0010001300370U 280000000000000000000000000000000000000000000000000000000000000000000000000000000000000000000000000000000000000000000000001204201700000000            000000000000000                              000                           
0010001300371T 280180230000002544776 29647041196055964   7               13032017000000000006000001000000                         0900000000000000000000000000000000000000000000000000000   000000000000000000000005002        170192964704     
0010001300372U 280000000000000000000000000000000000000000000000000000000000000000000000000000000000000000000000000000000000000000000000001204201700000000            000000000000000                              000                           
0010001300373T 280180230000002544776 29647041197540189   7               13032017000000000008000001000000                         0900000000000000000000000000000000000000000000000000000   000000000000000000000005002        170192964704     
0010001300374U 280000000000000000000000000000000000000000000000000000000000000000000000000000000000000000000000000000000000000000000000001204201700000000            000000000000000                              000                           
0010001300375T 280180230000002544776 29647041197547687   7               13032017000000000008000001000000                         0900000000000000000000000000000000000000000000000000000   000000000000000000000005002        170192964704     
0010001300376U 280000000000000000000000000000000000000000000000000000000000000000000000000000000000000000000000000000000000000000000000001204201700000000            000000000000000                              000                           
0010001300377T 280180230000002544776 29647041198110530   7               13032017000000000006000001000000                         0900000000000000000000000000000000000000000000000000000   000000000000000000000005002        170192964704     
0010001300378U 280000000000000000000000000000000000000000000000000000000000000000000000000000000000000000000000000000000000000000000000001204201700000000            000000000000000                              000                           
0010001300379T 280180230000002544776 29647041198122067   7               13032017000000000006000001000000                         0900000000000000000000000000000000000000000000000000000   000000000000000000000005002        170192964704     
0010001300380U 280000000000000000000000000000000000000000000000000000000000000000000000000000000000000000000000000000000000000000000000001204201700000000            000000000000000                              000                           
0010001300381T 280180230000002544776 29647041198238545   7               13032017000000000008000001000000                         0900000000000000000000000000000000000000000000000000000   000000000000000000000005002        170192964704     
0010001300382U 280000000000000000000000000000000000000000000000000000000000000000000000000000000000000000000000000000000000000000000000001204201700000000            000000000000000                              000                           
0010001300383T 280180230000002544776 29647041198302824   7               13032017000000000006000001000000                         0900000000000000000000000000000000000000000000000000000   000000000000000000000005002        170192964704     
0010001300384U 280000000000000000000000000000000000000000000000000000000000000000000000000000000000000000000000000000000000000000000000001204201700000000            000000000000000                              000                           
0010001300385T 280180230000002544776 29647041198303787   7               13032017000000000006000001000000                         0900000000000000000000000000000000000000000000000000000   000000000000000000000005002        170192964704     
0010001300386U 280000000000000000000000000000000000000000000000000000000000000000000000000000000000000000000000000000000000000000000000001204201700000000            000000000000000                              000                           
0010001300387T 280180230000002544776 29647041198305266   7               13032017000000000006000001000000                         0900000000000000000000000000000000000000000000000000000   000000000000000000000005002        170192964704     
0010001300388U 280000000000000000000000000000000000000000000000000000000000000000000000000000000000000000000000000000000000000000000000001204201700000000            000000000000000                              000                           
0010001300389T 280180230000002544776 29647041198324075   7               13032017000000000006000001000000                         0900000000000000000000000000000000000000000000000000000   000000000000000000000005002        170192964704     
0010001300390U 280000000000000000000000000000000000000000000000000000000000000000000000000000000000000000000000000000000000000000000000001204201700000000            000000000000000                              000                           
0010001300391T 280180230000002544776 29647041198759245   7               13032017000000000006000001000000                         0900000000000000000000000000000000000000000000000000000   000000000000000000000005002        170192964704     
0010001300392U 280000000000000000000000000000000000000000000000000000000000000000000000000000000000000000000000000000000000000000000000001204201700000000            000000000000000                              000                           
0010001300393T 280180230000002544776 29647041198830488   7               13032017000000000006000001000000                         0900000000000000000000000000000000000000000000000000000   000000000000000000000005002        170192964704     
0010001300394U 280000000000000000000000000000000000000000000000000000000000000000000000000000000000000000000000000000000000000000000000001204201700000000            000000000000000                              000                           
0010001300395T 280180230000002544776 29647041198911298   7               13032017000000000006000001000000                         0900000000000000000000000000000000000000000000000000000   000000000000000000000005002        170192964704     
0010001300396U 280000000000000000000000000000000000000000000000000000000000000000000000000000000000000000000000000000000000000000000000001204201700000000            000000000000000                              000                           
0010001300397T 280180230000002544776 29647041199106726   7               13032017000000000006000001000000                         0900000000000000000000000000000000000000000000000000000   000000000000000000000005002        170192964704     
0010001300398U 280000000000000000000000000000000000000000000000000000000000000000000000000000000000000000000000000000000000000000000000001204201700000000            000000000000000                              000                           
0010001300399T 280180230000002544776 29647041199121847   7               13032017000000000006000001000000                         0900000000000000000000000000000000000000000000000000000   000000000000000000000005002        170192964704     
0010001300400U 280000000000000000000000000000000000000000000000000000000000000000000000000000000000000000000000000000000000000000000000001204201700000000            000000000000000                              000                           
0010001300401T 280180230000002544776 29647041199136558   7               13032017000000000006000001000000                         0900000000000000000000000000000000000000000000000000000   000000000000000000000005002        170192964704     
0010001300402U 280000000000000000000000000000000000000000000000000000000000000000000000000000000000000000000000000000000000000000000000001204201700000000            000000000000000                              000                           
0010001300403T 280180230000002544776 29647041199407804   7               13032017000000000006000001000000                         0900000000000000000000000000000000000000000000000000000   000000000000000000000005002        170192964704     
0010001300404U 280000000000000000000000000000000000000000000000000000000000000000000000000000000000000000000000000000000000000000000000001204201700000000            000000000000000                              000                           
0010001300405T 280180230000002544776 29647041199410851   7               13032017000000000006000001000000                         0900000000000000000000000000000000000000000000000000000   000000000000000000000005002        170192964704     
0010001300406U 280000000000000000000000000000000000000000000000000000000000000000000000000000000000000000000000000000000000000000000000001204201700000000            000000000000000                              000                           
0010001300407T 280180230000002544776 29647041200005598   7               13032017000000000006000001000000                         0900000000000000000000000000000000000000000000000000000   000000000000000000000005002        170192964704     
0010001300408U 280000000000000000000000000000000000000000000000000000000000000000000000000000000000000000000000000000000000000000000000001204201700000000            000000000000000                              000                           
0010001300409T 280180230000002544776 29647041200156599   7               13032017000000000006000001000000                         0900000000000000000000000000000000000000000000000000000   000000000000000000000005002        170192964704     
0010001300410U 280000000000000000000000000000000000000000000000000000000000000000000000000000000000000000000000000000000000000000000000001204201700000000            000000000000000                              000                           
0010001300411T 280180230000002544776 29647041200545178   7               13032017000000000006000001000000                         0900000000000000000000000000000000000000000000000000000   000000000000000000000005002        170192964704     
0010001300412U 280000000000000000000000000000000000000000000000000000000000000000000000000000000000000000000000000000000000000000000000001204201700000000            000000000000000                              000                           
