00100000         2247745860001000029647040014       0180230000002544776 INSTITUTO DE SELECAO E TECNOLOBANCO DO BRASIL                         21704201702324000010603000000515122941PROCESSAMEN                                                 
00100011T0100020 20247745860001000029647040014       0180230000002544776 INSTITUTO DE SELECAO E TECNOLO                                                                                000000001704201700000000  000000000                      
0010001300001T 020180230000002544776 29647040534619956   7               18042017000000000006000001028029                         0900000000000010000000000000000000000000000000000000000   0000000000000000000000000A9        170192964704     
0010001300002U 020000000000000000000000000000000000000000000000000000000000000000000000000000000000000000000000000000000000000000000000001604201700000000            000000000000000                              000                           
0010001300003T 020180230000002544776 29647040547420488   7               19042017000000000006000001028029                         0900000000000010000000000000000000000000000000000000000   0000000000000000000000000A9        170192964704     
0010001300004U 020000000000000000000000000000000000000000000000000000000000000000000000000000000000000000000000000000000000000000000000001704201700000000            000000000000000                              000                           
0010001300005T 020180230000002544776 29647040547444219   7               19042017000000000006000001028029                         0900000000000010000000000000000000000000000000000000000   0000000000000000000000000A9        170192964704     
0010001300006U 020000000000000000000000000000000000000000000000000000000000000000000000000000000000000000000000000000000000000000000000001704201700000000            000000000000000                              000                           
0010001300007T 020180230000002544776 29647040562109664   7               19042017000000000006000001023655                         0900000000000010000000000000000000000000000000000000000   0000000000000000000000000A9        170192964704     
0010001300008U 020000000000000000000000000000000000000000000000000000000000000000000000000000000000000000000000000000000000000000000000001704201700000000            000000000000000                              000                           
0010001300009T 020180230000002544776 29647040562112867   7               19042017000000000006000001023655                         0900000000000010000000000000000000000000000000000000000   0000000000000000000000000A9        170192964704     
0010001300010U 020000000000000000000000000000000000000000000000000000000000000000000000000000000000000000000000000000000000000000000000001704201700000000            000000000000000                              000                           
0010001300011T 020180230000002544776 29647040562135687   7               19042017000000000006000001023655                         0900000000000010000000000000000000000000000000000000000   0000000000000000000000000A9        170192964704     
0010001300012U 020000000000000000000000000000000000000000000000000000000000000000000000000000000000000000000000000000000000000000000000001704201700000000            000000000000000                              000                           
0010001300013T 020180230000002544776 29647040595409836   7               18042017000000000006000001012467                         0900000000000010000000000000000000000000000000000000000   0000000000000000000000000A9        170192964704     
0010001300014U 020000000000000000000000000000000000000000000000000000000000000000000000000000000000000000000000000000000000000000000000001604201700000000            000000000000000                              000                           
0010001300015T 020180230000002544776 29647040595422714   7               18042017000000000006000001012467                         0900000000000010000000000000000000000000000000000000000   0000000000000000000000000A9        170192964704     
0010001300016U 020000000000000000000000000000000000000000000000000000000000000000000000000000000000000000000000000000000000000000000000001604201700000000            000000000000000                              000                           
0010001300017T 020180230000002544776 29647040599327897   7               19042017000000000008000001011657                         0900000000000010000000000000000000000000000000000000000   0000000000000000000000000A9        170192964704     
0010001300018U 020000000000000000000000000000000000000000000000000000000000000000000000000000000000000000000000000000000000000000000000001704201700000000            000000000000000                              000                           
0010001300019T 020180230000002544776 29647040621727862   7               17042017000000000006000001016179                         0900000000000010000000000000000000000000000000000000000   0000000000000000000000000A9        170192964704     
0010001300020U 020000000000000000000000000000000000000000000000000000000000000000000000000000000000000000000000000000000000000000000000001504201700000000            000000000000000                              000                           
0010001300021T 020180230000002544776 29647040629520836   7               18042017000000000006000001012629                         0900000000000010000000000000000000000000000000000000000   0000000000000000000000000A9        170192964704     
0010001300022U 020000000000000000000000000000000000000000000000000000000000000000000000000000000000000000000000000000000000000000000000001604201700000000            000000000000000                              000                           
0010001300023T 020180230000002544776 29647040629552644   7               18042017000000000006000001012629                         0900000000000010000000000000000000000000000000000000000   0000000000000000000000000A9        170192964704     
0010001300024U 020000000000000000000000000000000000000000000000000000000000000000000000000000000000000000000000000000000000000000000000001604201700000000            000000000000000                              000                           
0010001300025T 020180230000002544776 29647040631507354   7               19042017000000000006000001012467                         0900000000000010500000000000000000000000000000000000000   0000000000000000000000000A9A4      170192964704     
0010001300026U 020000000000000000000000000000000000000000000000000000000000000000000000000000000000000000000000000000000000000000000000001704201700000000            000000000000000                              000                           
0010001300027T 020180230000002544776 29647040645900269   7               19042017000000000008000001000132                         0900000000000010000000000000000000000000000000000000000   0000000000000000000000000A9        170192964704     
0010001300028U 020000000000000000000000000000000000000000000000000000000000000000000000000000000000000000000000000000000000000000000000001704201700000000            000000000000000                              000                           
0010001300029T 020180230000002544776 29647040645923926   7               18042017000000000008000001000132                         0900000000000010000000000000000000000000000000000000000   0000000000000000000000000A9        170192964704     
0010001300030U 020000000000000000000000000000000000000000000000000000000000000000000000000000000000000000000000000000000000000000000000001604201700000000            000000000000000                              000                           
0010001300031T 020180230000002544776 29647040670231828   7               18042017000000000006000001002291                         0900000000000010000000000000000000000000000000000000000   0000000000000000000000000A9        170192964704     
0010001300032U 020000000000000000000000000000000000000000000000000000000000000000000000000000000000000000000000000000000000000000000000001604201700000000            000000000000000                              000                           
0010001300033T 020180230000002544776 29647040672723711   7               19042017000000000006000001008214                         0900000000000010000000000000000000000000000000000000000   0000000000000000000000000A9        170192964704     
0010001300034U 020000000000000000000000000000000000000000000000000000000000000000000000000000000000000000000000000000000000000000000000001704201700000000            000000000000000                              000                           
0010001300035T 020180230000002544776 29647040674542985   7               19042017000000000006000001016179                         0900000000000010000000000000000000000000000000000000000   0000000000000000000000000A9        170192964704     
0010001300036U 020000000000000000000000000000000000000000000000000000000000000000000000000000000000000000000000000000000000000000000000001704201700000000            000000000000000                              000                           
0010001300037T 020180230000002544776 29647040679035831   7               19042017000000000006000001033316                         0900000000000010000000000000000000000000000000000000000   0000000000000000000000000A9        170192964704     
0010001300038U 020000000000000000000000000000000000000000000000000000000000000000000000000000000000000000000000000000000000000000000000001704201700000000            000000000000000                              000                           
0010001300039T 020180230000002544776 29647040712453086   7               19042017000000000006000001000132                         0900000000000010000000000000000000000000000000000000000   0000000000000000000000000A9        170192964704     
0010001300040U 020000000000000000000000000000000000000000000000000000000000000000000000000000000000000000000000000000000000000000000000001704201700000000            000000000000000                              000                           
0010001300041T 020180230000002544776 29647040717953766   7               19042017000000000006000001025429                         0900000000000010000000000000000000000000000000000000000   0000000000000000000000000A9        170192964704     
0010001300042U 020000000000000000000000000000000000000000000000000000000000000000000000000000000000000000000000000000000000000000000000001704201700000000            000000000000000                              000                           
0010001300043T 020180230000002544776 29647040726635398   7               19042017000000000006000001033316                         0900000000000010000000000000000000000000000000000000000   0000000000000000000000000A9        170192964704     
0010001300044U 020000000000000000000000000000000000000000000000000000000000000000000000000000000000000000000000000000000000000000000000001704201700000000            000000000000000                              000                           
0010001300045T 020180230000002544776 29647040764117676   7               16042017000000000006000001006734                         0900000000000010500000000000000000000000000000000000000   0000000000000000000000000A9A4      170192964704     
0010001300046U 020000000000000000000000000000000000000000000000000000000000000000000000000000000000000000000000000000000000000000000000001404201700000000            000000000000000                              000                           
0010001300047T 020180230000002544776 29647040764118128   7               16042017000000000006000001006734                         0900000000000010500000000000000000000000000000000000000   0000000000000000000000000A9A4      170192964704     
0010001300048U 020000000000000000000000000000000000000000000000000000000000000000000000000000000000000000000000000000000000000000000000001404201700000000            000000000000000                              000                           
0010001300049T 020180230000002544776 29647040775838460   7               19042017000000000006000001010588                         0900000000000010000000000000000000000000000000000000000   0000000000000000000000000A9        170192964704     
0010001300050U 020000000000000000000000000000000000000000000000000000000000000000000000000000000000000000000000000000000000000000000000001704201700000000            000000000000000                              000                           
0010001300051T 020180230000002544776 29647040784921955   7               17042017000000000006000001003247                         0900000000000010000000000000000000000000000000000000000   0000000000000000000000000A9        170192964704     
0010001300052U 020000000000000000000000000000000000000000000000000000000000000000000000000000000000000000000000000000000000000000000000001504201700000000            000000000000000                              000                           
0010001300053T 020180230000002544776 29647040790627626   7               17042017000000000006000001016179                         0900000000000010000000000000000000000000000000000000000   0000000000000000000000000A9        170192964704     
0010001300054U 020000000000000000000000000000000000000000000000000000000000000000000000000000000000000000000000000000000000000000000000001504201700000000            000000000000000                              000                           
0010001300055T 020180230000002544776 29647040790640206   7               17042017000000000006000001016179                         0900000000000010000000000000000000000000000000000000000   0000000000000000000000000A9        170192964704     
0010001300056U 020000000000000000000000000000000000000000000000000000000000000000000000000000000000000000000000000000000000000000000000001504201700000000            000000000000000                              000                           
0010001300057T 020180230000002544776 29647040792421737   7               18042017000000000006000001028029                         0900000000000010000000000000000000000000000000000000000   0000000000000000000000000A9        170192964704     
0010001300058U 020000000000000000000000000000000000000000000000000000000000000000000000000000000000000000000000000000000000000000000000001604201700000000            000000000000000                              000                           
0010001300059T 020180230000002544776 29647040796729582   7               17042017000000000006000001007277                         0900000000000010000000000000000000000000000000000000000   0000000000000000000000000A9        170192964704     
0010001300060U 020000000000000000000000000000000000000000000000000000000000000000000000000000000000000000000000000000000000000000000000001504201700000000            000000000000000                              000                           
0010001300061T 020180230000002544776 29647040802906401   7               18042017000000000006000001016179                         0900000000000010000000000000000000000000000000000000000   0000000000000000000000000A9        170192964704     
0010001300062U 020000000000000000000000000000000000000000000000000000000000000000000000000000000000000000000000000000000000000000000000001604201700000000            000000000000000                              000                           
0010001300063T 020180230000002544776 29647040825315611   7               18042017000000000006000001012467                         0900000000000010000000000000000000000000000000000000000   0000000000000000000000000A9        170192964704     
0010001300064U 020000000000000000000000000000000000000000000000000000000000000000000000000000000000000000000000000000000000000000000000001604201700000000            000000000000000                              000                           
0010001300065T 020180230000002544776 29647040833409441   7               1804201700000000000600000101138X                         0900000000000010000000000000000000000000000000000000000   0000000000000000000000000A9        170192964704     
0010001300066U 020000000000000000000000000000000000000000000000000000000000000000000000000000000000000000000000000000000000000000000000001604201700000000            000000000000000                              000                           
0010001300067T 020180230000002544776 29647040854328672   7               19042017000000000006000001016179                         0900000000000010000000000000000000000000000000000000000   0000000000000000000000000A9        170192964704     
0010001300068U 020000000000000000000000000000000000000000000000000000000000000000000000000000000000000000000000000000000000000000000000001704201700000000            000000000000000                              000                           
0010001300069T 020180230000002544776 29647040942901431   7               16042017000000000006000001016810                         0900000000000010000000000000000000000000000000000000000   0000000000000000000000000A9        170192964704     
0010001300070U 020000000000000000000000000000000000000000000000000000000000000000000000000000000000000000000000000000000000000000000000001404201700000000            000000000000000                              000                           
0010001300071T 020180230000002544776 29647040942923745   7               16042017000000000006000001016810                         0900000000000010000000000000000000000000000000000000000   0000000000000000000000000A9        170192964704     
0010001300072U 020000000000000000000000000000000000000000000000000000000000000000000000000000000000000000000000000000000000000000000000001404201700000000            000000000000000                              000                           
0010001300073T 020180230000002544776 29647040947331238   7               18042017000000000006000001003611                         0900000000000010000000000000000000000000000000000000000   0000000000000000000000000A9        170192964704     
0010001300074U 020000000000000000000000000000000000000000000000000000000000000000000000000000000000000000000000000000000000000000000000001604201700000000            000000000000000                              000                           
0010001300075T 020180230000002544776 29647040951741931   7               18042017000000000006000001018376                         0900000000000010000000000000000000000000000000000000000   0000000000000000000000000A9        170192964704     
0010001300076U 020000000000000000000000000000000000000000000000000000000000000000000000000000000000000000000000000000000000000000000000001604201700000000            000000000000000                              000                           
0010001300077T 020180230000002544776 29647040951744283   7               16042017000000000006000001018376                         0900000000000010000000000000000000000000000000000000000   0000000000000000000000000A9        170192964704     
0010001300078U 020000000000000000000000000000000000000000000000000000000000000000000000000000000000000000000000000000000000000000000000001404201700000000            000000000000000                              000                           
0010001300079T 020180230000002544776 29647040957546538   7               16042017000000000006000001018376                         0900000000000010000000000000000000000000000000000000000   0000000000000000000000000A9        170192964704     
0010001300080U 020000000000000000000000000000000000000000000000000000000000000000000000000000000000000000000000000000000000000000000000001404201700000000            000000000000000                              000                           
0010001300081T 020180230000002544776 29647040957554812   7               18042017000000000006000001018376                         0900000000000010000000000000000000000000000000000000000   0000000000000000000000000A9        170192964704     
0010001300082U 020000000000000000000000000000000000000000000000000000000000000000000000000000000000000000000000000000000000000000000000001604201700000000            000000000000000                              000                           
0010001300083T 020180230000002544776 29647040965012359   7               18042017000000000006000001028029                         0900000000000010000000000000000000000000000000000000000   0000000000000000000000000A9        170192964704     
0010001300084U 020000000000000000000000000000000000000000000000000000000000000000000000000000000000000000000000000000000000000000000000001604201700000000            000000000000000                              000                           
0010001300085T 020180230000002544776 29647040965042480   7               16042017000000000006000001028029                         0900000000000010000000000000000000000000000000000000000   0000000000000000000000000A9        170192964704     
0010001300086U 020000000000000000000000000000000000000000000000000000000000000000000000000000000000000000000000000000000000000000000000001404201700000000            000000000000000                              000                           
0010001300087T 020180230000002544776 29647040985451869   7               18042017000000000006000001001597                         0900000000000010000000000000000000000000000000000000000   0000000000000000000000000A9        170192964704     
0010001300088U 020000000000000000000000000000000000000000000000000000000000000000000000000000000000000000000000000000000000000000000000001604201700000000            000000000000000                              000                           
0010001300089T 020180230000002544776 29647040987121531   7               19042017000000000006000001000698                         0900000000000010000000000000000000000000000000000000000   0000000000000000000000000A9        170192964704     
0010001300090U 020000000000000000000000000000000000000000000000000000000000000000000000000000000000000000000000000000000000000000000000001704201700000000            000000000000000                              000                           
0010001300091T 020180230000002544776 29647041007421362   7               16042017000000000006000001000132                         0900000000000010000000000000000000000000000000000000000   0000000000000000000000000A9        170192964704     
0010001300092U 020000000000000000000000000000000000000000000000000000000000000000000000000000000000000000000000000000000000000000000000001404201700000000            000000000000000                              000                           
0010001300093T 020180230000002544776 29647041022205409   7               18042017000000000006000001028029                         0900000000000010500000000000000000000000000000000000000   0000000000000000000000000A9A4      170192964704     
0010001300094U 020000000000000000000000000000000000000000000000000000000000000000000000000000000000000000000000000000000000000000000000001604201700000000            000000000000000                              000                           
0010001300095T 020180230000002544776 29647041022240210   7               18042017000000000006000001028029                         0900000000000010500000000000000000000000000000000000000   0000000000000000000000000A9A4      170192964704     
0010001300096U 020000000000000000000000000000000000000000000000000000000000000000000000000000000000000000000000000000000000000000000000001604201700000000            000000000000000                              000                           
0010001300097T 020180230000002544776 29647041022241330   7               18042017000000000006000001028029                         0900000000000010500000000000000000000000000000000000000   0000000000000000000000000A9A4      170192964704     
0010001300098U 020000000000000000000000000000000000000000000000000000000000000000000000000000000000000000000000000000000000000000000000001604201700000000            000000000000000                              000                           
0010001300099T 020180230000002544776 29647041022927245   7               19042017000000000006000001016179                         0900000000000010000000000000000000000000000000000000000   0000000000000000000000000A9        170192964704     
0010001300100U 020000000000000000000000000000000000000000000000000000000000000000000000000000000000000000000000000000000000000000000000001704201700000000            000000000000000                              000                           
0010001300101T 020180230000002544776 29647041024616108   7               16042017000000000006000001021911                         0900000000000010000000000000000000000000000000000000000   0000000000000000000000000A9        170192964704     
0010001300102U 020000000000000000000000000000000000000000000000000000000000000000000000000000000000000000000000000000000000000000000000001404201700000000            000000000000000                              000                           
0010001300103T 020180230000002544776 29647041033552633   7               18042017000000000006000001008214                         0900000000000010000000000000000000000000000000000000000   0000000000000000000000000A9        170192964704     
0010001300104U 020000000000000000000000000000000000000000000000000000000000000000000000000000000000000000000000000000000000000000000000001604201700000000            000000000000000                              000                           
0010001300105T 020180230000002544776 29647041093040675   7               19042017000000000006000001016179                         0900000000000010000000000000000000000000000000000000000   0000000000000000000000000A9        170192964704     
0010001300106U 020000000000000000000000000000000000000000000000000000000000000000000000000000000000000000000000000000000000000000000000001704201700000000            000000000000000                              000                           
0010001300107T 020180230000002544776 29647041093805061   7               19042017000000000006000001016179                         0900000000000010000000000000000000000000000000000000000   0000000000000000000000000A9        170192964704     
0010001300108U 020000000000000000000000000000000000000000000000000000000000000000000000000000000000000000000000000000000000000000000000001704201700000000            000000000000000                              000                           
0010001300109T 020180230000002544776 29647041107405367   7               19042017000000000006000001020354                         0900000000000010500000000000000000000000000000000000000   0000000000000000000000000A9A4      170192964704     
0010001300110U 020000000000000000000000000000000000000000000000000000000000000000000000000000000000000000000000000000000000000000000000001704201700000000            000000000000000                              000                           
0010001300111T 020180230000002544776 29647041107445121   7               16042017000000000006000001020354                         0900000000000010500000000000000000000000000000000000000   0000000000000000000000000A9A4      170192964704     
0010001300112U 020000000000000000000000000000000000000000000000000000000000000000000000000000000000000000000000000000000000000000000000001404201700000000            000000000000000                              000                           
0010001300113T 020180230000002544776 29647041119957269   7               19042017000000000006000001012629                         0900000000000010000000000000000000000000000000000000000   0000000000000000000000000A9        170192964704     
0010001300114U 020000000000000000000000000000000000000000000000000000000000000000000000000000000000000000000000000000000000000000000000001704201700000000            000000000000000                              000                           
0010001300115T 020180230000002544776 29647041151157075   7               19042017000000000006000001025429                         0900000000000010000000000000000000000000000000000000000   0000000000000000000000000A9        170192964704     
0010001300116U 020000000000000000000000000000000000000000000000000000000000000000000000000000000000000000000000000000000000000000000000001704201700000000            000000000000000                              000                           
0010001300117T 020180230000002544776 29647041197504200   7               19042017000000000008000001000132                         0900000000000010000000000000000000000000000000000000000   0000000000000000000000000A9        170192964704     
0010001300118U 020000000000000000000000000000000000000000000000000000000000000000000000000000000000000000000000000000000000000000000000001704201700000000            000000000000000                              000                           
0010001300119T 020180230000002544776 29647041201306862   7               16042017000000000008000001020354                         0900000000000010000000000000000000000000000000000000000   0000000000000000000000000A9        170192964704     
0010001300120U 020000000000000000000000000000000000000000000000000000000000000000000000000000000000000000000000000000000000000000000000001404201700000000            000000000000000                              000                           
0010001300121T 020180230000002544776 29647041234139539   7               17042017000000000006000001033316                         0900000000000010000000000000000000000000000000000000000   0000000000000000000000000A9        170192964704     
0010001300122U 020000000000000000000000000000000000000000000000000000000000000000000000000000000000000000000000000000000000000000000000001504201700000000            000000000000000                              000                           
0010001300123T 020180230000002544776 29647041247353485   7               19042017000000000006000001001597                         0900000000000010000000000000000000000000000000000000000   0000000000000000000000000A9        170192964704     
0010001300124U 020000000000000000000000000000000000000000000000000000000000000000000000000000000000000000000000000000000000000000000000001704201700000000            000000000000000                              000                           
0010001300125T 020180230000002544776 29647041265228383   7               19042017000000000008000001014028                         0900000000000010000000000000000000000000000000000000000   0000000000000000000000000A9        170192964704     
0010001300126U 020000000000000000000000000000000000000000000000000000000000000000000000000000000000000000000000000000000000000000000000001704201700000000            000000000000000                              000                           
0010001300127T 020180230000002544776 29647041281312124   7               18042017000000000006000001016179                         0900000000000010000000000000000000000000000000000000000   0000000000000000000000000A9        170192964704     
0010001300128U 020000000000000000000000000000000000000000000000000000000000000000000000000000000000000000000000000000000000000000000000001604201700000000            000000000000000                              000                           
0010001300129T 020180230000002544776 29647041300939342   7               1604201700000000000600000102256X                         0900000000000010000000000000000000000000000000000000000   0000000000000000000000000A9        170192964704     
0010001300130U 020000000000000000000000000000000000000000000000000000000000000000000000000000000000000000000000000000000000000000000000001404201700000000            000000000000000                              000                           
0010001300131T 020180230000002544776 29647041309952628   7               16042017000000000006000001016179                         0900000000000010000000000000000000000000000000000000000   0000000000000000000000000A9        170192964704     
0010001300132U 020000000000000000000000000000000000000000000000000000000000000000000000000000000000000000000000000000000000000000000000001404201700000000            000000000000000                              000                           
0010001300133T 020180230000002544776 29647041313533371   7               18042017000000000006000001016179                         0900000000000010000000000000000000000000000000000000000   0000000000000000000000000A9        170192964704     
0010001300134U 020000000000000000000000000000000000000000000000000000000000000000000000000000000000000000000000000000000000000000000000001604201700000000            000000000000000                              000                           
0010001300135T 020180230000002544776 29647041314633977   7               18042017000000000006000001012467                         0900000000000010000000000000000000000000000000000000000   0000000000000000000000000A9        170192964704     
0010001300136U 020000000000000000000000000000000000000000000000000000000000000000000000000000000000000000000000000000000000000000000000001604201700000000            000000000000000                              000                           
0010001300137T 020180230000002544776 29647041335833641   7               19042017000000000006000001020354                         0900000000000010000000000000000000000000000000000000000   0000000000000000000000000A9        170192964704     
0010001300138U 020000000000000000000000000000000000000000000000000000000000000000000000000000000000000000000000000000000000000000000000001704201700000000            000000000000000                              000                           
0010001300139T 020180230000002544776 29647041352705925   7               18042017000000000006000001028029                         0900000000000010000000000000000000000000000000000000000   0000000000000000000000000A9        170192964704     
0010001300140U 020000000000000000000000000000000000000000000000000000000000000000000000000000000000000000000000000000000000000000000000001604201700000000            000000000000000                              000                           
0010001300141T 020180230000002544776 29647041353452438   7               19042017000000000006000001001643                         0900000000000010000000000000000000000000000000000000000   0000000000000000000000000A9        170192964704     
0010001300142U 020000000000000000000000000000000000000000000000000000000000000000000000000000000000000000000000000000000000000000000000001704201700000000            000000000000000                              000                           
0010001300143T 020180230000002544776 29647041360913517   7               19042017000000000006000001028029                         0900000000000010000000000000000000000000000000000000000   0000000000000000000000000A9        170192964704     
0010001300144U 020000000000000000000000000000000000000000000000000000000000000000000000000000000000000000000000000000000000000000000000001704201700000000            000000000000000                              000                           
0010001300145T 020180230000002544776 29647041360947222   7               17042017000000000006000001028029                         0900000000000010000000000000000000000000000000000000000   0000000000000000000000000A9        170192964704     
0010001300146U 020000000000000000000000000000000000000000000000000000000000000000000000000000000000000000000000000000000000000000000000001504201700000000            000000000000000                              000                           
0010001300147T 020180230000002544776 29647041360952296   7               16042017000000000006000001028029                         0900000000000010000000000000000000000000000000000000000   0000000000000000000000000A9        170192964704     
0010001300148U 020000000000000000000000000000000000000000000000000000000000000000000000000000000000000000000000000000000000000000000000001404201700000000            000000000000000                              000                           
0010001300149T 020180230000002544776 29647041361411642   7               16042017000000000006000001033316                         0900000000000010000000000000000000000000000000000000000   0000000000000000000000000A9        170192964704     
0010001300150U 020000000000000000000000000000000000000000000000000000000000000000000000000000000000000000000000000000000000000000000000001404201700000000            000000000000000                              000                           
0010001300151T 020180230000002544776 29647041374650611   7               19042017000000000006000001023183                         0900000000000010000000000000000000000000000000000000000   0000000000000000000000000A9        170192964704     
0010001300152U 020000000000000000000000000000000000000000000000000000000000000000000000000000000000000000000000000000000000000000000000001704201700000000            000000000000000                              000                           
0010001300153T 020180230000002544776 29647041382733735   7               16042017000000000006000001025089                         0900000000000010000000000000000000000000000000000000000   0000000000000000000000000A9        170192964704     
0010001300154U 020000000000000000000000000000000000000000000000000000000000000000000000000000000000000000000000000000000000000000000000001404201700000000            000000000000000                              000                           
0010001300155T 020180230000002544776 29647041389055138   7               19042017000000000006000001028029                         0900000000000010000000000000000000000000000000000000000   0000000000000000000000000A9        170192964704     
0010001300156U 020000000000000000000000000000000000000000000000000000000000000000000000000000000000000000000000000000000000000000000000001704201700000000            000000000000000                              000                           
0010001300157T 020180230000002544776 29647041397615133   7               17042017000000000006000001018376                         0900000000000010000000000000000000000000000000000000000   0000000000000000000000000A9        170192964704     
0010001300158U 020000000000000000000000000000000000000000000000000000000000000000000000000000000000000000000000000000000000000000000000001504201700000000            000000000000000                              000                           
0010001300159T 020180230000002544776 29647041400614369   7               18042017000000000008000001008214                         0900000000000010000000000000000000000000000000000000000   0000000000000000000000000A9        170192964704     
0010001300160U 020000000000000000000000000000000000000000000000000000000000000000000000000000000000000000000000000000000000000000000000001604201700000000            000000000000000                              000                           
0010001300161T 020180230000002544776 29647041402824878   7               18042017000000000006000001013668                         0900000000000010000000000000000000000000000000000000000   0000000000000000000000000A9        170192964704     
0010001300162U 020000000000000000000000000000000000000000000000000000000000000000000000000000000000000000000000000000000000000000000000001604201700000000            000000000000000                              000                           
0010001300163T 020180230000002544776 29647041406538563   7               1904201700000000000600000100233X                         0900000000000010000000000000000000000000000000000000000   0000000000000000000000000A9        170192964704     
0010001300164U 020000000000000000000000000000000000000000000000000000000000000000000000000000000000000000000000000000000000000000000000001704201700000000            000000000000000                              000                           
0010001300165T 020180230000002544776 29647041412452549   7               19042017000000000006000001003018                         0900000000000010500000000000000000000000000000000000000   0000000000000000000000000A9A4      170192964704     
0010001300166U 020000000000000000000000000000000000000000000000000000000000000000000000000000000000000000000000000000000000000000000000001704201700000000            000000000000000                              000                           
0010001300167T 020180230000002544776 29647041414620453   7               18042017000000000006000001020354                         0900000000000010000000000000000000000000000000000000000   0000000000000000000000000A9        170192964704     
0010001300168U 020000000000000000000000000000000000000000000000000000000000000000000000000000000000000000000000000000000000000000000000001604201700000000            000000000000000                              000                           
0010001300169T 020180230000002544776 29647041419731534   7               16042017000000000006000001008214                         0900000000000010000000000000000000000000000000000000000   0000000000000000000000000A9        170192964704     
0010001300170U 020000000000000000000000000000000000000000000000000000000000000000000000000000000000000000000000000000000000000000000000001404201700000000            000000000000000                              000                           
0010001300171T 020180230000002544776 29647041422902773   7               19042017000000000006000001000213                         0900000000000010000000000000000000000000000000000000000   0000000000000000000000000A9        170192964704     
0010001300172U 020000000000000000000000000000000000000000000000000000000000000000000000000000000000000000000000000000000000000000000000001704201700000000            000000000000000                              000                           
0010001300173T 020180230000002544776 29647041424826993   7               19042017000000000006000001000698                         0900000000000010000000000000000000000000000000000000000   0000000000000000000000000A9        170192964704     
0010001300174U 020000000000000000000000000000000000000000000000000000000000000000000000000000000000000000000000000000000000000000000000001704201700000000            000000000000000                              000                           
0010001300175T 020180230000002544776 29647041433542515   7               18042017000000000006000001028029                         0900000000000010000000000000000000000000000000000000000   0000000000000000000000000A9        170192964704     
0010001300176U 020000000000000000000000000000000000000000000000000000000000000000000000000000000000000000000000000000000000000000000000001604201700000000            000000000000000                              000                           
0010001300177T 020180230000002544776 29647041436810698   7               19042017000000000006000001006254                         0900000000000010000000000000000000000000000000000000000   0000000000000000000000000A9        170192964704     
0010001300178U 020000000000000000000000000000000000000000000000000000000000000000000000000000000000000000000000000000000000000000000000001704201700000000            000000000000000                              000                           
0010001300179T 020180230000002544776 29647041445357816   7               19042017000000000008000001007595                         0900000000000010000000000000000000000000000000000000000   0000000000000000000000000A9        170192964704     
0010001300180U 020000000000000000000000000000000000000000000000000000000000000000000000000000000000000000000000000000000000000000000000001704201700000000            000000000000000                              000                           
0010001300181T 020180230000002544776 29647041464436421   7               16042017000000000006000001023655                         0900000000000010000000000000000000000000000000000000000   0000000000000000000000000A9        170192964704     
0010001300182U 020000000000000000000000000000000000000000000000000000000000000000000000000000000000000000000000000000000000000000000000001404201700000000            000000000000000                              000                           
0010001300183T 020180230000002544776 29647041469358143   7               19042017000000000006000001001597                         0900000000000010000000000000000000000000000000000000000   0000000000000000000000000A9        170192964704     
0010001300184U 020000000000000000000000000000000000000000000000000000000000000000000000000000000000000000000000000000000000000000000000001704201700000000            000000000000000                              000                           
0010001300185T 020180230000002544776 29647041483203447   7               17042017000000000006000001009636                         0900000000000010000000000000000000000000000000000000000   0000000000000000000000000A9        170192964704     
0010001300186U 020000000000000000000000000000000000000000000000000000000000000000000000000000000000000000000000000000000000000000000000001504201700000000            000000000000000                              000                           
0010001300187T 020180230000002544776 29647041484624282   7               18042017000000000006000001000132                         0900000000000010000000000000000000000000000000000000000   0000000000000000000000000A9        170192964704     
0010001300188U 020000000000000000000000000000000000000000000000000000000000000000000000000000000000000000000000000000000000000000000000001604201700000000            000000000000000                              000                           
0010001300189T 020180230000002544776 29647041486654313   7               16042017000000000006000001028029                         0900000000000010000000000000000000000000000000000000000   0000000000000000000000000A9        170192964704     
0010001300190U 020000000000000000000000000000000000000000000000000000000000000000000000000000000000000000000000000000000000000000000000001404201700000000            000000000000000                              000                           
0010001300191T 020180230000002544776 29647041492928900   7               19042017000000000006000001018376                         0900000000000010500000000000000000000000000000000000000   0000000000000000000000000A9A4      170192964704     
0010001300192U 020000000000000000000000000000000000000000000000000000000000000000000000000000000000000000000000000000000000000000000000001704201700000000            000000000000000                              000                           
0010001300193T 020180230000002544776 29647041495745646   7               19042017000000000006000001008672                         0900000000000010000000000000000000000000000000000000000   0000000000000000000000000A9        170192964704     
0010001300194U 020000000000000000000000000000000000000000000000000000000000000000000000000000000000000000000000000000000000000000000000001704201700000000            000000000000000                              000                           
0010001300195T 020180230000002544776 29647041498320472   7               16042017000000000006000001012467                         0900000000000010000000000000000000000000000000000000000   0000000000000000000000000A9        170192964704     
0010001300196U 020000000000000000000000000000000000000000000000000000000000000000000000000000000000000000000000000000000000000000000000001404201700000000            000000000000000                              000                           
0010001300197T 020180230000002544776 29647041501710966   7               18042017000000000006000001016179                         0900000000000010000000000000000000000000000000000000000   0000000000000000000000000A9        170192964704     
0010001300198U 020000000000000000000000000000000000000000000000000000000000000000000000000000000000000000000000000000000000000000000000001604201700000000            000000000000000                              000                           
0010001300199T 020180230000002544776 29647041503608502   7               17042017000000000006000001001201                         0900000000000010500000000000000000000000000000000000000   0000000000000000000000000A9A4      170192964704     
0010001300200U 020000000000000000000000000000000000000000000000000000000000000000000000000000000000000000000000000000000000000000000000001504201700000000            000000000000000                              000                           
0010001300201T 020180230000002544776 29647041503659372   7               16042017000000000006000001001201                         0900000000000010500000000000000000000000000000000000000   0000000000000000000000000A9A4      170192964704     
0010001300202U 020000000000000000000000000000000000000000000000000000000000000000000000000000000000000000000000000000000000000000000000001404201700000000            000000000000000                              000                           
0010001300203T 020180230000002544776 29647041519656037   7               18042017000000000006000001008214                         0900000000000010500000000000000000000000000000000000000   0000000000000000000000000A9A4      170192964704     
0010001300204U 020000000000000000000000000000000000000000000000000000000000000000000000000000000000000000000000000000000000000000000000001604201700000000            000000000000000                              000                           
0010001300205T 020180230000002544776 29647041520035620   7               17042017000000000006000001009636                         0900000000000010000000000000000000000000000000000000000   0000000000000000000000000A9        170192964704     
0010001300206U 020000000000000000000000000000000000000000000000000000000000000000000000000000000000000000000000000000000000000000000000001504201700000000            000000000000000                              000                           
0010001300207T 020180230000002544776 29647041520039228   7               19042017000000000006000001009636                         0900000000000010000000000000000000000000000000000000000   0000000000000000000000000A9        170192964704     
0010001300208U 020000000000000000000000000000000000000000000000000000000000000000000000000000000000000000000000000000000000000000000000001704201700000000            000000000000000                              000                           
0010001300209T 020180230000002544776 29647041522031255   7               18042017000000000008000001033316                         0900000000000010000000000000000000000000000000000000000   0000000000000000000000000A9        170192964704     
0010001300210U 020000000000000000000000000000000000000000000000000000000000000000000000000000000000000000000000000000000000000000000000001604201700000000            000000000000000                              000                           
0010001300211T 020180230000002544776 29647041523620672   7               19042017000000000006000001000493                         0900000000000010000000000000000000000000000000000000000   0000000000000000000000000A9        170192964704     
0010001300212U 020000000000000000000000000000000000000000000000000000000000000000000000000000000000000000000000000000000000000000000000001704201700000000            000000000000000                              000                           
0010001300213T 020180230000002544776 29647041540751511   7               17042017000000000006000001002003                         0900000000000010000000000000000000000000000000000000000   0000000000000000000000000A9        170192964704     
0010001300214U 020000000000000000000000000000000000000000000000000000000000000000000000000000000000000000000000000000000000000000000000001504201700000000            000000000000000                              000                           
0010001300215T 020180230000002544776 29647041547741655   7               19042017000000000006000001028029                         0900000000000010000000000000000000000000000000000000000   0000000000000000000000000A9        170192964704     
0010001300216U 020000000000000000000000000000000000000000000000000000000000000000000000000000000000000000000000000000000000000000000000001704201700000000            000000000000000                              000                           
0010001300217T 020180230000002544776 29647041554855648   7               18042017000000000006000001028029                         0900000000000010000000000000000000000000000000000000000   0000000000000000000000000A9        170192964704     
0010001300218U 020000000000000000000000000000000000000000000000000000000000000000000000000000000000000000000000000000000000000000000000001604201700000000            000000000000000                              000                           
0010001300219T 020180230000002544776 29647041568146088   7               17042017000000000006000001000132                         0900000000000010000000000000000000000000000000000000000   0000000000000000000000000A9        170192964704     
0010001300220U 020000000000000000000000000000000000000000000000000000000000000000000000000000000000000000000000000000000000000000000000001504201700000000            000000000000000                              000                           
0010001300221T 020180230000002544776 29647041585447876   7               19042017000000000006000001028029                         0900000000000010000000000000000000000000000000000000000   0000000000000000000000000A9        170192964704     
0010001300222U 020000000000000000000000000000000000000000000000000000000000000000000000000000000000000000000000000000000000000000000000001704201700000000            000000000000000                              000                           
0010001300223T 020180230000002544776 29647041599020567   7               1904201700000000000600000101981X                         0900000000000010000000000000000000000000000000000000000   0000000000000000000000000A9        170192964704     
0010001300224U 020000000000000000000000000000000000000000000000000000000000000000000000000000000000000000000000000000000000000000000000001704201700000000            000000000000000                              000                           
0010001300225T 020180230000002544776 29647041608834581   7               19042017000000000006000001005428                         0900000000000010000000000000000000000000000000000000000   0000000000000000000000000A9        170192964704     
0010001300226U 020000000000000000000000000000000000000000000000000000000000000000000000000000000000000000000000000000000000000000000000001704201700000000            000000000000000                              000                           
0010001300227T 020180230000002544776 29647041608837369   7               19042017000000000006000001005428                         0900000000000010000000000000000000000000000000000000000   0000000000000000000000000A9        170192964704     
0010001300228U 020000000000000000000000000000000000000000000000000000000000000000000000000000000000000000000000000000000000000000000000001704201700000000            000000000000000                              000                           
0010001300229T 020180230000002544776 29647041608853546   7               19042017000000000006000001005428                         0900000000000010000000000000000000000000000000000000000   0000000000000000000000000A9        170192964704     
0010001300230U 020000000000000000000000000000000000000000000000000000000000000000000000000000000000000000000000000000000000000000000000001704201700000000            000000000000000                              000                           
0010001300231T 020180230000002544776 29647041608853995   7               19042017000000000006000001005428                         0900000000000010000000000000000000000000000000000000000   0000000000000000000000000A9        170192964704     
0010001300232U 020000000000000000000000000000000000000000000000000000000000000000000000000000000000000000000000000000000000000000000000001704201700000000            000000000000000                              000                           
0010001300233T 020180230000002544776 29647041610456584   7               19042017000000000006000001028029                         0900000000000010000000000000000000000000000000000000000   0000000000000000000000000A9        170192964704     
0010001300234U 020000000000000000000000000000000000000000000000000000000000000000000000000000000000000000000000000000000000000000000000001704201700000000            000000000000000                              000                           
0010001300235T 020180230000002544776 29647041612816726   7               19042017000000000006000001023655                         0900000000000010500000000000000000000000000000000000000   0000000000000000000000000A9A4      170192964704     
0010001300236U 020000000000000000000000000000000000000000000000000000000000000000000000000000000000000000000000000000000000000000000000001704201700000000            000000000000000                              000                           
0010001300237T 020180230000002544776 29647041612936435   7               19042017000000000008000001000132                         0900000000000010000000000000000000000000000000000000000   0000000000000000000000000A9        170192964704     
0010001300238U 020000000000000000000000000000000000000000000000000000000000000000000000000000000000000000000000000000000000000000000000001704201700000000            000000000000000                              000                           
0010001300239T 020180230000002544776 29647041616349143   7               17042017000000000006000001000132                         0900000000000010000000000000000000000000000000000000000   0000000000000000000000000A9        170192964704     
0010001300240U 020000000000000000000000000000000000000000000000000000000000000000000000000000000000000000000000000000000000000000000000001504201700000000            000000000000000                              000                           
0010001300241T 020180230000002544776 29647041619337416   7               17042017000000000006000001020818                         0900000000000010000000000000000000000000000000000000000   0000000000000000000000000A9        170192964704     
0010001300242U 020000000000000000000000000000000000000000000000000000000000000000000000000000000000000000000000000000000000000000000000001504201700000000            000000000000000                              000                           
0010001300243T 020180230000002544776 29647041631116213   7               19042017000000000006000001000132                         0900000000000010000000000000000000000000000000000000000   0000000000000000000000000A9        170192964704     
0010001300244U 020000000000000000000000000000000000000000000000000000000000000000000000000000000000000000000000000000000000000000000000001704201700000000            000000000000000                              000                           
0010001300245T 020180230000002544776 29647041632811303   7               19042017000000000006000001018376                         0900000000000010000000000000000000000000000000000000000   0000000000000000000000000A9        170192964704     
0010001300246U 020000000000000000000000000000000000000000000000000000000000000000000000000000000000000000000000000000000000000000000000001704201700000000            000000000000000                              000                           
0010001300247T 020180230000002544776 29647041632833913   7               19042017000000000006000001018376                         0900000000000010000000000000000000000000000000000000000   0000000000000000000000000A9        170192964704     
0010001300248U 020000000000000000000000000000000000000000000000000000000000000000000000000000000000000000000000000000000000000000000000001704201700000000            000000000000000                              000                           
0010001300249T 020180230000002544776 29647041641508515   7               16042017000000000006000001000132                         0900000000000010000000000000000000000000000000000000000   0000000000000000000000000A9        170192964704     
0010001300250U 020000000000000000000000000000000000000000000000000000000000000000000000000000000000000000000000000000000000000000000000001404201700000000            000000000000000                              000                           
0010001300251T 020180230000002544776 29647041641521130   7               18042017000000000006000001000132                         0900000000000010000000000000000000000000000000000000000   0000000000000000000000000A9        170192964704     
0010001300252U 020000000000000000000000000000000000000000000000000000000000000000000000000000000000000000000000000000000000000000000000001604201700000000            000000000000000                              000                           
0010001300253T 020180230000002544776 29647041641528803   7               18042017000000000006000001000132                         0900000000000010000000000000000000000000000000000000000   0000000000000000000000000A9        170192964704     
0010001300254U 020000000000000000000000000000000000000000000000000000000000000000000000000000000000000000000000000000000000000000000000001604201700000000            000000000000000                              000                           
0010001300255T 020180230000002544776 29647041641545192   7               19042017000000000006000001000132                         0900000000000010000000000000000000000000000000000000000   0000000000000000000000000A9        170192964704     
0010001300256U 020000000000000000000000000000000000000000000000000000000000000000000000000000000000000000000000000000000000000000000000001704201700000000            000000000000000                              000                           
0010001300257T 020180230000002544776 29647041647004380   7               17042017000000000006000001000132                         0900000000000010000000000000000000000000000000000000000   0000000000000000000000000A9        170192964704     
0010001300258U 020000000000000000000000000000000000000000000000000000000000000000000000000000000000000000000000000000000000000000000000001504201700000000            000000000000000                              000                           
0010001300259T 020180230000002544776 29647041649912351   7               16042017000000000006000001000132                         0900000000000010500000000000000000000000000000000000000   0000000000000000000000000A9A4      170192964704     
0010001300260U 020000000000000000000000000000000000000000000000000000000000000000000000000000000000000000000000000000000000000000000000001404201700000000            000000000000000                              000                           
0010001300261T 020180230000002544776 29647041650343267   7               19042017000000000006000001028029                         0900000000000010000000000000000000000000000000000000000   0000000000000000000000000A9        170192964704     
0010001300262U 020000000000000000000000000000000000000000000000000000000000000000000000000000000000000000000000000000000000000000000000001704201700000000            000000000000000                              000                           
0010001300263T 020180230000002544776 29647041651254009   7               16042017000000000006000001022748                         0900000000000010000000000000000000000000000000000000000   0000000000000000000000000A9        170192964704     
0010001300264U 020000000000000000000000000000000000000000000000000000000000000000000000000000000000000000000000000000000000000000000000001404201700000000            000000000000000                              000                           
0010001300265T 020180230000002544776 29647041653814256   7               1904201700000000000600000101138X                         0900000000000010500000000000000000000000000000000000000   0000000000000000000000000A9A4      170192964704     
0010001300266U 020000000000000000000000000000000000000000000000000000000000000000000000000000000000000000000000000000000000000000000000001704201700000000            000000000000000                              000                           
0010001300267T 020180230000002544776 29647041667704629   7               17042017000000000006000001028029                         0900000000000010000000000000000000000000000000000000000   0000000000000000000000000A9        170192964704     
0010001300268U 020000000000000000000000000000000000000000000000000000000000000000000000000000000000000000000000000000000000000000000000001504201700000000            000000000000000                              000                           
0010001300269T 020180230000002544776 29647041667716586   7               16042017000000000006000001028029                         0900000000000010000000000000000000000000000000000000000   0000000000000000000000000A9        170192964704     
0010001300270U 020000000000000000000000000000000000000000000000000000000000000000000000000000000000000000000000000000000000000000000000001404201700000000            000000000000000                              000                           
0010001300271T 020180230000002544776 29647041671056863   7               19042017000000000006000001016179                         0900000000000010000000000000000000000000000000000000000   0000000000000000000000000A9        170192964704     
0010001300272U 020000000000000000000000000000000000000000000000000000000000000000000000000000000000000000000000000000000000000000000000001704201700000000            000000000000000                              000                           
0010001300273T 020180230000002544776 29647041671321010   7               19042017000000000006000001028029                         0900000000000010000000000000000000000000000000000000000   0000000000000000000000000A9        170192964704     
0010001300274U 020000000000000000000000000000000000000000000000000000000000000000000000000000000000000000000000000000000000000000000000001704201700000000            000000000000000                              000                           
0010001300275T 020180230000002544776 29647041675421052   7               16042017000000000006000001016179                         0900000000000010000000000000000000000000000000000000000   0000000000000000000000000A9        170192964704     
0010001300276U 020000000000000000000000000000000000000000000000000000000000000000000000000000000000000000000000000000000000000000000000001404201700000000            000000000000000                              000                           
0010001300277T 020180230000002544776 29647041676057115   7               19042017000000000008000001014524                         0900000000000010000000000000000000000000000000000000000   0000000000000000000000000A9        170192964704     
0010001300278U 020000000000000000000000000000000000000000000000000000000000000000000000000000000000000000000000000000000000000000000000001704201700000000            000000000000000                              000                           
0010001300279T 020180230000002544776 29647041676604595   7               17042017000000000006000001000132                         0900000000000010000000000000000000000000000000000000000   0000000000000000000000000A9        170192964704     
0010001300280U 020000000000000000000000000000000000000000000000000000000000000000000000000000000000000000000000000000000000000000000000001504201700000000            000000000000000                              000                           
0010001300281T 020180230000002544776 29647041676649366   7               16042017000000000006000001000132                         0900000000000010000000000000000000000000000000000000000   0000000000000000000000000A9        170192964704     
0010001300282U 020000000000000000000000000000000000000000000000000000000000000000000000000000000000000000000000000000000000000000000000001404201700000000            000000000000000                              000                           
0010001300283T 020180230000002544776 29647041676656243   7               17042017000000000006000001000132                         0900000000000010000000000000000000000000000000000000000   0000000000000000000000000A9        170192964704     
0010001300284U 020000000000000000000000000000000000000000000000000000000000000000000000000000000000000000000000000000000000000000000000001504201700000000            000000000000000                              000                           
0010001300285T 020180230000002544776 29647041678306920   7               16042017000000000006000001013455                         0900000000000010000000000000000000000000000000000000000   0000000000000000000000000A9        170192964704     
0010001300286U 020000000000000000000000000000000000000000000000000000000000000000000000000000000000000000000000000000000000000000000000001404201700000000            000000000000000                              000                           
0010001300287T 020180230000002544776 29647041678326449   7               18042017000000000006000001013455                         0900000000000010000000000000000000000000000000000000000   0000000000000000000000000A9        170192964704     
0010001300288U 020000000000000000000000000000000000000000000000000000000000000000000000000000000000000000000000000000000000000000000000001604201700000000            000000000000000                              000                           
0010001300289T 020180230000002544776 29647041682524047   7               18042017000000000006000001028029                         0900000000000010000000000000000000000000000000000000000   0000000000000000000000000A9        170192964704     
0010001300290U 020000000000000000000000000000000000000000000000000000000000000000000000000000000000000000000000000000000000000000000000001604201700000000            000000000000000                              000                           
0010001300291T 020180230000002544776 29647041690515511   7               16042017000000000006000001022101                         0900000000000010000000000000000000000000000000000000000   0000000000000000000000000A9        170192964704     
0010001300292U 020000000000000000000000000000000000000000000000000000000000000000000000000000000000000000000000000000000000000000000000001404201700000000            000000000000000                              000                           
0010001300293T 020180230000002544776 29647041695148307   7               16042017000000000006000001020281                         0900000000000010000000000000000000000000000000000000000   0000000000000000000000000A9        170192964704     
0010001300294U 020000000000000000000000000000000000000000000000000000000000000000000000000000000000000000000000000000000000000000000000001404201700000000            000000000000000                              000                           
0010001300295T 020180230000002544776 29647041697048563   7               18042017000000000006000001032859                         0900000000000010000000000000000000000000000000000000000   0000000000000000000000000A9        170192964704     
0010001300296U 020000000000000000000000000000000000000000000000000000000000000000000000000000000000000000000000000000000000000000000000001604201700000000            000000000000000                              000                           
0010001300297T 020180230000002544776 29647041703348876   7               19042017000000000006000001008672                         0900000000000010000000000000000000000000000000000000000   0000000000000000000000000A9        170192964704     
0010001300298U 020000000000000000000000000000000000000000000000000000000000000000000000000000000000000000000000000000000000000000000000001704201700000000            000000000000000                              000                           
0010001300299T 020180230000002544776 29647041703349846   7               19042017000000000006000001008672                         0900000000000010000000000000000000000000000000000000000   0000000000000000000000000A9        170192964704     
0010001300300U 020000000000000000000000000000000000000000000000000000000000000000000000000000000000000000000000000000000000000000000000001704201700000000            000000000000000                              000                           
0010001300301T 020180230000002544776 29647041705851495   7               18042017000000000006000001028029                         0900000000000010000000000000000000000000000000000000000   0000000000000000000000000A9        170192964704     
0010001300302U 020000000000000000000000000000000000000000000000000000000000000000000000000000000000000000000000000000000000000000000000001604201700000000            000000000000000                              000                           
0010001300303T 020180230000002544776 29647041711240094   7               18042017000000000008000001000132                         0900000000000010000000000000000000000000000000000000000   0000000000000000000000000A9        170192964704     
0010001300304U 020000000000000000000000000000000000000000000000000000000000000000000000000000000000000000000000000000000000000000000000001604201700000000            000000000000000                              000                           
0010001300305T 020180230000002544776 29647041714419809   7               18042017000000000006000001028029                         0900000000000010500000000000000000000000000000000000000   0000000000000000000000000A9A4      170192964704     
0010001300306U 020000000000000000000000000000000000000000000000000000000000000000000000000000000000000000000000000000000000000000000000001604201700000000            000000000000000                              000                           
0010001300307T 020180230000002544776 29647041715505627   7               19042017000000000008000001009814                         0900000000000010000000000000000000000000000000000000000   0000000000000000000000000A9        170192964704     
0010001300308U 020000000000000000000000000000000000000000000000000000000000000000000000000000000000000000000000000000000000000000000000001704201700000000            000000000000000                              000                           
0010001300309T 020180230000002544776 29647041716012309   7               18042017000000000006000001028029                         0900000000000010000000000000000000000000000000000000000   0000000000000000000000000A9        170192964704     
0010001300310U 020000000000000000000000000000000000000000000000000000000000000000000000000000000000000000000000000000000000000000000000001604201700000000            000000000000000                              000                           
0010001300311T 020180230000002544776 29647041720939437   7               16042017000000000006000001028029                         0900000000000010000000000000000000000000000000000000000   0000000000000000000000000A9        170192964704     
0010001300312U 020000000000000000000000000000000000000000000000000000000000000000000000000000000000000000000000000000000000000000000000001404201700000000            000000000000000                              000                           
0010001300313T 020180230000002544776 29647041722520613   7               18042017000000000006000001028029                         0900000000000010000000000000000000000000000000000000000   0000000000000000000000000A9        170192964704     
0010001300314U 020000000000000000000000000000000000000000000000000000000000000000000000000000000000000000000000000000000000000000000000001604201700000000            000000000000000                              000                           
0010001300315T 020180230000002544776 29647041724322156   7               19042017000000000006000001002208                         0900000000000010000000000000000000000000000000000000000   0000000000000000000000000A9        170192964704     
0010001300316U 020000000000000000000000000000000000000000000000000000000000000000000000000000000000000000000000000000000000000000000000001704201700000000            000000000000000                              000                           
0010001300317T 020180230000002544776 29647041725526634   7               17042017000000000006000001016179                         0900000000000010000000000000000000000000000000000000000   0000000000000000000000000A9        170192964704     
0010001300318U 020000000000000000000000000000000000000000000000000000000000000000000000000000000000000000000000000000000000000000000000001504201700000000            000000000000000                              000                           
0010001300319T 020180230000002544776 29647041726314640   7               18042017000000000006000001028029                         0900000000000010000000000000000000000000000000000000000   0000000000000000000000000A9        170192964704     
0010001300320U 020000000000000000000000000000000000000000000000000000000000000000000000000000000000000000000000000000000000000000000000001604201700000000            000000000000000                              000                           
0010001300321T 020180230000002544776 29647041726416136   7               19042017000000000006000001028029                         0900000000000010000000000000000000000000000000000000000   0000000000000000000000000A9        170192964704     
0010001300322U 020000000000000000000000000000000000000000000000000000000000000000000000000000000000000000000000000000000000000000000000001704201700000000            000000000000000                              000                           
0010001300323T 020180230000002544776 29647041727209787   7               19042017000000000008000001028029                         0900000000000010500000000000000000000000000000000000000   0000000000000000000000000A9A4      170192964704     
0010001300324U 020000000000000000000000000000000000000000000000000000000000000000000000000000000000000000000000000000000000000000000000001704201700000000            000000000000000                              000                           
0010001300325T 020180230000002544776 29647041727252238   7               19042017000000000008000001028029                         0900000000000010500000000000000000000000000000000000000   0000000000000000000000000A9A4      170192964704     
0010001300326U 020000000000000000000000000000000000000000000000000000000000000000000000000000000000000000000000000000000000000000000000001704201700000000            000000000000000                              000                           
0010001300327T 020180230000002544776 29647041728024989   7               19042017000000000006000001028304                         0900000000000010000000000000000000000000000000000000000   0000000000000000000000000A9        170192964704     
0010001300328U 020000000000000000000000000000000000000000000000000000000000000000000000000000000000000000000000000000000000000000000000001704201700000000            000000000000000                              000                           
0010001300329T 020180230000002544776 29647041728046220   7               19042017000000000006000001028304                         0900000000000010000000000000000000000000000000000000000   0000000000000000000000000A9        170192964704     
0010001300330U 020000000000000000000000000000000000000000000000000000000000000000000000000000000000000000000000000000000000000000000000001704201700000000            000000000000000                              000                           
0010001300331T 020180230000002544776 29647041728055897   7               19042017000000000006000001028304                         0900000000000010000000000000000000000000000000000000000   0000000000000000000000000A9        170192964704     
0010001300332U 020000000000000000000000000000000000000000000000000000000000000000000000000000000000000000000000000000000000000000000000001704201700000000            000000000000000                              000                           
0010001300333T 020180230000002544776 29647041728827039   7               16042017000000000008000001028029                         0900000000000010000000000000000000000000000000000000000   0000000000000000000000000A9        170192964704     
0010001300334U 020000000000000000000000000000000000000000000000000000000000000000000000000000000000000000000000000000000000000000000000001404201700000000            000000000000000                              000                           
0010001300335T 020180230000002544776 29647041729242266   7               19042017000000000008000001000361                         0900000000000010000000000000000000000000000000000000000   0000000000000000000000000A9        170192964704     
0010001300336U 020000000000000000000000000000000000000000000000000000000000000000000000000000000000000000000000000000000000000000000000001704201700000000            000000000000000                              000                           
0010001300337T 020180230000002544776 29647041729243232   7               16042017000000000008000001000361                         0900000000000010000000000000000000000000000000000000000   0000000000000000000000000A9        170192964704     
0010001300338U 020000000000000000000000000000000000000000000000000000000000000000000000000000000000000000000000000000000000000000000000001404201700000000            000000000000000                              000                           
0010001300339T 020180230000002544776 29647041730635514   7               16042017000000000008000001028029                         0900000000000010000000000000000000000000000000000000000   0000000000000000000000000A9        170192964704     
0010001300340U 020000000000000000000000000000000000000000000000000000000000000000000000000000000000000000000000000000000000000000000000001404201700000000            000000000000000                              000                           
0010001300341T 020180230000002544776 29647041732213290   7               19042017000000000006000001016179                         0900000000000010000000000000000000000000000000000000000   0000000000000000000000000A9        170192964704     
0010001300342U 020000000000000000000000000000000000000000000000000000000000000000000000000000000000000000000000000000000000000000000000001704201700000000            000000000000000                              000                           
0010001300343T 020180230000002544776 29647041735418916   7               16042017000000000006000001035033                         0900000000000010000000000000000000000000000000000000000   0000000000000000000000000A9        170192964704     
0010001300344U 020000000000000000000000000000000000000000000000000000000000000000000000000000000000000000000000000000000000000000000000001404201700000000            000000000000000                              000                           
0010001300345T 020180230000002544776 29647041735520103   7               16042017000000000006000001012467                         0900000000000010500000000000000000000000000000000000000   0000000000000000000000000A9A4      170192964704     
0010001300346U 020000000000000000000000000000000000000000000000000000000000000000000000000000000000000000000000000000000000000000000000001404201700000000            000000000000000                              000                           
0010001300347T 020180230000002544776 29647041735718429   7               16042017000000000008000001005312                         0900000000000010000000000000000000000000000000000000000   0000000000000000000000000A9        170192964704     
0010001300348U 020000000000000000000000000000000000000000000000000000000000000000000000000000000000000000000000000000000000000000000000001404201700000000            000000000000000                              000                           
0010001300349T 020180230000002544776 29647041735732256   7               16042017000000000008000001005312                         0900000000000010000000000000000000000000000000000000000   0000000000000000000000000A9        170192964704     
0010001300350U 020000000000000000000000000000000000000000000000000000000000000000000000000000000000000000000000000000000000000000000000001404201700000000            000000000000000                              000                           
0010001300351T 020180230000002544776 29647041735745900   7               16042017000000000008000001005312                         0900000000000010000000000000000000000000000000000000000   0000000000000000000000000A9        170192964704     
0010001300352U 020000000000000000000000000000000000000000000000000000000000000000000000000000000000000000000000000000000000000000000000001404201700000000            000000000000000                              000                           
0010001300353T 020180230000002544776 29647041735752502   7               16042017000000000008000001005312                         0900000000000010000000000000000000000000000000000000000   0000000000000000000000000A9        170192964704     
0010001300354U 020000000000000000000000000000000000000000000000000000000000000000000000000000000000000000000000000000000000000000000000001404201700000000            000000000000000                              000                           
0010001300355T 020180230000002544776 29647041735825227   7               16042017000000000006000001028495                         0900000000000010500000000000000000000000000000000000000   0000000000000000000000000A9A4      170192964704     
0010001300356U 020000000000000000000000000000000000000000000000000000000000000000000000000000000000000000000000000000000000000000000000001404201700000000            000000000000000                              000                           
0010001300357T 020180230000002544776 29647041735914925   7               16042017000000000008000001009881                         0900000000000010000000000000000000000000000000000000000   0000000000000000000000000A9        170192964704     
0010001300358U 020000000000000000000000000000000000000000000000000000000000000000000000000000000000000000000000000000000000000000000000001404201700000000            000000000000000                              000                           
0010001300359T 020180230000002544776 29647041735941539   7               16042017000000000008000001009881                         0900000000000010000000000000000000000000000000000000000   0000000000000000000000000A9        170192964704     
0010001300360U 020000000000000000000000000000000000000000000000000000000000000000000000000000000000000000000000000000000000000000000000001404201700000000            000000000000000                              000                           
0010001300361T 020180230000002544776 29647041736017410   7               16042017000000000006000001000132                         0900000000000010000000000000000000000000000000000000000   0000000000000000000000000A9        170192964704     
0010001300362U 020000000000000000000000000000000000000000000000000000000000000000000000000000000000000000000000000000000000000000000000001404201700000000            000000000000000                              000                           
0010001300363T 020180230000002544776 29647041736105372   7               16042017000000000006000001000132                         0900000000000010000000000000000000000000000000000000000   0000000000000000000000000A9        170192964704     
0010001300364U 020000000000000000000000000000000000000000000000000000000000000000000000000000000000000000000000000000000000000000000000001404201700000000            000000000000000                              000                           
0010001300365T 020180230000002544776 29647041736445338   7               17042017000000000008000001000132                         0900000000000010000000000000000000000000000000000000000   0000000000000000000000000A9        170192964704     
0010001300366U 020000000000000000000000000000000000000000000000000000000000000000000000000000000000000000000000000000000000000000000000001504201700000000            000000000000000                              000                           
0010001300367T 020180230000002544776 29647041736527087   7               17042017000000000006000001033316                         0900000000000010000000000000000000000000000000000000000   0000000000000000000000000A9        170192964704     
0010001300368U 020000000000000000000000000000000000000000000000000000000000000000000000000000000000000000000000000000000000000000000000001504201700000000            000000000000000                              000                           
0010001300369T 020180230000002544776 29647041736737011   7               17042017000000000006000001016179                         0900000000000010000000000000000000000000000000000000000   0000000000000000000000000A9        170192964704     
0010001300370U 020000000000000000000000000000000000000000000000000000000000000000000000000000000000000000000000000000000000000000000000001504201700000000            000000000000000                              000                           
0010001300371T 020180230000002544776 29647041736854549   7               17042017000000000006000001000132                         0900000000000010000000000000000000000000000000000000000   0000000000000000000000000A9        170192964704     
0010001300372U 020000000000000000000000000000000000000000000000000000000000000000000000000000000000000000000000000000000000000000000000001504201700000000            000000000000000                              000                           
0010001300373T 020180230000002544776 29647041736949112   7               17042017000000000006000001018376                         0900000000000010000000000000000000000000000000000000000   0000000000000000000000000A9        170192964704     
0010001300374U 020000000000000000000000000000000000000000000000000000000000000000000000000000000000000000000000000000000000000000000000001504201700000000            000000000000000                              000                           
0010001300375T 020180230000002544776 29647041736949243   7               17042017000000000006000001018376                         0900000000000010000000000000000000000000000000000000000   0000000000000000000000000A9        170192964704     
0010001300376U 020000000000000000000000000000000000000000000000000000000000000000000000000000000000000000000000000000000000000000000000001504201700000000            000000000000000                              000                           
0010001300377T 020180230000002544776 29647041736952264   7               17042017000000000006000001018376                         0900000000000010000000000000000000000000000000000000000   0000000000000000000000000A9        170192964704     
0010001300378U 020000000000000000000000000000000000000000000000000000000000000000000000000000000000000000000000000000000000000000000000001504201700000000            000000000000000                              000                           
0010001300379T 020180230000002544776 29647041737022423   7               17042017000000000006000001033316                         0900000000000010000000000000000000000000000000000000000   0000000000000000000000000A9        170192964704     
0010001300380U 020000000000000000000000000000000000000000000000000000000000000000000000000000000000000000000000000000000000000000000000001504201700000000            000000000000000                              000                           
0010001300381T 020180230000002544776 29647041737517010   7               18042017000000000008000001011193                         0900000000000010000000000000000000000000000000000000000   0000000000000000000000000A9        170192964704     
0010001300382U 020000000000000000000000000000000000000000000000000000000000000000000000000000000000000000000000000000000000000000000000001604201700000000            000000000000000                              000                           
0010001300383T 020180230000002544776 29647041737722797   7               1804201700000000000800000101981X                         0900000000000010000000000000000000000000000000000000000   0000000000000000000000000A9        170192964704     
0010001300384U 020000000000000000000000000000000000000000000000000000000000000000000000000000000000000000000000000000000000000000000000001604201700000000            000000000000000                              000                           
0010001300385T 020180230000002544776 29647041737809003   7               18042017000000000006000001008214                         0900000000000010000000000000000000000000000000000000000   0000000000000000000000000A9        170192964704     
0010001300386U 020000000000000000000000000000000000000000000000000000000000000000000000000000000000000000000000000000000000000000000000001604201700000000            000000000000000                              000                           
0010001300387T 020180230000002544776 29647041737829944   7               18042017000000000006000001008214                         0900000000000010000000000000000000000000000000000000000   0000000000000000000000000A9        170192964704     
0010001300388U 020000000000000000000000000000000000000000000000000000000000000000000000000000000000000000000000000000000000000000000000001604201700000000            000000000000000                              000                           
0010001300389T 020180230000002544776 29647041737859291   7               18042017000000000006000001008214                         0900000000000010000000000000000000000000000000000000000   0000000000000000000000000A9        170192964704     
0010001300390U 020000000000000000000000000000000000000000000000000000000000000000000000000000000000000000000000000000000000000000000000001604201700000000            000000000000000                              000                           
0010001300391T 020180230000002544776 29647041737949105   7               18042017000000000008000001012467                         0900000000000010000000000000000000000000000000000000000   0000000000000000000000000A9        170192964704     
0010001300392U 020000000000000000000000000000000000000000000000000000000000000000000000000000000000000000000000000000000000000000000000001604201700000000            000000000000000                              000                           
0010001300393T 020180230000002544776 29647041738030910   7               18042017000000000006000001000949                         0900000000000010500000000000000000000000000000000000000   0000000000000000000000000A9A4      170192964704     
0010001300394U 020000000000000000000000000000000000000000000000000000000000000000000000000000000000000000000000000000000000000000000000001604201700000000            000000000000000                              000                           
0010001300395T 020180230000002544776 29647041738117718   7               18042017000000000006000001012688                         0900000000000010500000000000000000000000000000000000000   0000000000000000000000000A9A4      170192964704     
0010001300396U 020000000000000000000000000000000000000000000000000000000000000000000000000000000000000000000000000000000000000000000000001604201700000000            000000000000000                              000                           
0010001300397T 020180230000002544776 29647041738159229   7               18042017000000000006000001012688                         0900000000000010500000000000000000000000000000000000000   0000000000000000000000000A9A4      170192964704     
0010001300398U 020000000000000000000000000000000000000000000000000000000000000000000000000000000000000000000000000000000000000000000000001604201700000000            000000000000000                              000                           
0010001300399T 020180230000002544776 29647041738210925   7               18042017000000000008000001000132                         0900000000000010000000000000000000000000000000000000000   0000000000000000000000000A9        170192964704     
0010001300400U 020000000000000000000000000000000000000000000000000000000000000000000000000000000000000000000000000000000000000000000000001604201700000000            000000000000000                              000                           
0010001300401T 020180230000002544776 29647041738338578   7               1804201700000000000800000100068X                         0900000000000010000000000000000000000000000000000000000   0000000000000000000000000A9        170192964704     
0010001300402U 020000000000000000000000000000000000000000000000000000000000000000000000000000000000000000000000000000000000000000000000001604201700000000            000000000000000                              000                           
0010001300403T 020180230000002544776 29647041738404535   7               18042017000000000006000001028029                         0900000000000010500000000000000000000000000000000000000   0000000000000000000000000A9A4      170192964704     
0010001300404U 020000000000000000000000000000000000000000000000000000000000000000000000000000000000000000000000000000000000000000000000001604201700000000            000000000000000                              000                           
0010001300405T 020180230000002544776 29647041738518940   7               18042017000000000008000001028029                         0900000000000010500000000000000000000000000000000000000   0000000000000000000000000A9A4      170192964704     
0010001300406U 020000000000000000000000000000000000000000000000000000000000000000000000000000000000000000000000000000000000000000000000001604201700000000            000000000000000                              000                           
0010001300407T 020180230000002544776 29647041738720516   7               19042017000000000008000001002143                         0900000000000010000000000000000000000000000000000000000   0000000000000000000000000A9        170192964704     
0010001300408U 020000000000000000000000000000000000000000000000000000000000000000000000000000000000000000000000000000000000000000000000001704201700000000            000000000000000                              000                           
0010001300409T 020180230000002544776 29647041738847765   7               18042017000000000008000001020354                         0900000000000010000000000000000000000000000000000000000   0000000000000000000000000A9        170192964704     
0010001300410U 020000000000000000000000000000000000000000000000000000000000000000000000000000000000000000000000000000000000000000000000001604201700000000            000000000000000                              000                           
0010001300411T 020180230000002544776 29647041738952601   7               18042017000000000006000001028029                         0900000000000010000000000000000000000000000000000000000   0000000000000000000000000A9        170192964704     
0010001300412U 020000000000000000000000000000000000000000000000000000000000000000000000000000000000000000000000000000000000000000000000001604201700000000            000000000000000                              000                           
