00100000         2247745860001000029647040014       0180230000002544776 INSTITUTO DE SELECAO E TECNOLOBANCO DO BRASIL                         21804201701294400010803000000515122941PROCESSAMEN                                                 
00100011T0100020 20247745860001000029647040014       0180230000002544776 INSTITUTO DE SELECAO E TECNOLO                                                                                000000001804201700000000  000000000                      
0010001300001T 020180230000002544776 29647040571912863   7               20042017000000000006000001000132                         0900000000000010000000000000000000000000000000000000000   0000000000000000000000000A9        170192964704     
0010001300002U 020000000000000000000000000000000000000000000000000000000000000000000000000000000000000000000000000000000000000000000000001804201700000000            000000000000000                              000                           
0010001300003T 020180230000002544776 29647040717659348   7               20042017000000000006000001000132                         0900000000000010000000000000000000000000000000000000000   0000000000000000000000000A9        170192964704     
0010001300004U 020000000000000000000000000000000000000000000000000000000000000000000000000000000000000000000000000000000000000000000000001804201700000000            000000000000000                              000                           
0010001300005T 020180230000002544776 29647040739058944   7               20042017000000000006000001016179                         0900000000000010000000000000000000000000000000000000000   0000000000000000000000000A9        170192964704     
0010001300006U 020000000000000000000000000000000000000000000000000000000000000000000000000000000000000000000000000000000000000000000000001804201700000000            000000000000000                              000                           
0010001300007T 020180230000002544776 29647040769319681   7               20042017000000000006000001013595                         0900000000000010000000000000000000000000000000000000000   0000000000000000000000000A9        170192964704     
0010001300008U 020000000000000000000000000000000000000000000000000000000000000000000000000000000000000000000000000000000000000000000000001804201700000000            000000000000000                              000                           
0010001300009T 020180230000002544776 29647040783552016   7               20042017000000000006000001028029                         0900000000000010000000000000000000000000000000000000000   0000000000000000000000000A9        170192964704     
0010001300010U 020000000000000000000000000000000000000000000000000000000000000000000000000000000000000000000000000000000000000000000000001804201700000000            000000000000000                              000                           
0010001300011T 020180230000002544776 29647040834421831   7               20042017000000000006000001012467                         0900000000000010000000000000000000000000000000000000000   0000000000000000000000000A9        170192964704     
0010001300012U 020000000000000000000000000000000000000000000000000000000000000000000000000000000000000000000000000000000000000000000000001804201700000000            000000000000000                              000                           
0010001300013T 020180230000002544776 29647040834436407   7               20042017000000000006000001012467                         0900000000000010000000000000000000000000000000000000000   0000000000000000000000000A9        170192964704     
0010001300014U 020000000000000000000000000000000000000000000000000000000000000000000000000000000000000000000000000000000000000000000000001804201700000000            000000000000000                              000                           
0010001300015T 020180230000002544776 29647040888616647   7               20042017000000000006000001012467                         0900000000000010000000000000000000000000000000000000000   0000000000000000000000000A9        170192964704     
0010001300016U 020000000000000000000000000000000000000000000000000000000000000000000000000000000000000000000000000000000000000000000000001804201700000000            000000000000000                              000                           
0010001300017T 020180230000002544776 29647040951708186   7               20042017000000000006000001018376                         0900000000000010000000000000000000000000000000000000000   0000000000000000000000000A9        170192964704     
0010001300018U 020000000000000000000000000000000000000000000000000000000000000000000000000000000000000000000000000000000000000000000000001804201700000000            000000000000000                              000                           
0010001300019T 020180230000002544776 29647040998012201   7               20042017000000000006000001001104                         0900000000000010000000000000000000000000000000000000000   0000000000000000000000000A9        170192964704     
0010001300020U 020000000000000000000000000000000000000000000000000000000000000000000000000000000000000000000000000000000000000000000000001804201700000000            000000000000000                              000                           
0010001300021T 020180230000002544776 29647041011709290   7               20042017000000000006000001013617                         0900000000000010000000000000000000000000000000000000000   0000000000000000000000000A9        170192964704     
0010001300022U 020000000000000000000000000000000000000000000000000000000000000000000000000000000000000000000000000000000000000000000000001804201700000000            000000000000000                              000                           
0010001300023T 020180230000002544776 29647041201338876   7               20042017000000000008000001020354                         0900000000000010000000000000000000000000000000000000000   0000000000000000000000000A9        170192964704     
0010001300024U 020000000000000000000000000000000000000000000000000000000000000000000000000000000000000000000000000000000000000000000000001804201700000000            000000000000000                              000                           
0010001300025T 020180230000002544776 29647041232424853   7               20042017000000000006000001001104                         0900000000000010000000000000000000000000000000000000000   0000000000000000000000000A9        170192964704     
0010001300026U 020000000000000000000000000000000000000000000000000000000000000000000000000000000000000000000000000000000000000000000000001804201700000000            000000000000000                              000                           
0010001300027T 020180230000002544776 29647041233702340   7               2004201700000000000600000100233X                         0900000000000010000000000000000000000000000000000000000   0000000000000000000000000A9        170192964704     
0010001300028U 020000000000000000000000000000000000000000000000000000000000000000000000000000000000000000000000000000000000000000000000001804201700000000            000000000000000                              000                           
0010001300029T 020180230000002544776 29647041235535454   7               20042017000000000006000001020354                         0900000000000010000000000000000000000000000000000000000   0000000000000000000000000A9        170192964704     
0010001300030U 020000000000000000000000000000000000000000000000000000000000000000000000000000000000000000000000000000000000000000000000001804201700000000            000000000000000                              000                           
0010001300031T 020180230000002544776 29647041290857263   7               20042017000000000006000001016179                         0900000000000010000000000000000000000000000000000000000   0000000000000000000000000A9        170192964704     
0010001300032U 020000000000000000000000000000000000000000000000000000000000000000000000000000000000000000000000000000000000000000000000001804201700000000            000000000000000                              000                           
0010001300033T 020180230000002544776 29647041292706084   7               19042017000000000008000001016179                         0900000000000010000000000000000000000000000000000000000   0000000000000000000000000A9        170192964704     
0010001300034U 020000000000000000000000000000000000000000000000000000000000000000000000000000000000000000000000000000000000000000000000001704201700000000            000000000000000                              000                           
0010001300035T 020180230000002544776 29647041292708619   7               19042017000000000008000001016179                         0900000000000010000000000000000000000000000000000000000   0000000000000000000000000A9        170192964704     
0010001300036U 020000000000000000000000000000000000000000000000000000000000000000000000000000000000000000000000000000000000000000000000001704201700000000            000000000000000                              000                           
0010001300037T 020180230000002544776 29647041292711813   7               19042017000000000008000001016179                         0900000000000010000000000000000000000000000000000000000   0000000000000000000000000A9        170192964704     
0010001300038U 020000000000000000000000000000000000000000000000000000000000000000000000000000000000000000000000000000000000000000000000001704201700000000            000000000000000                              000                           
0010001300039T 020180230000002544776 29647041292716504   7               19042017000000000008000001016179                         0900000000000010000000000000000000000000000000000000000   0000000000000000000000000A9        170192964704     
0010001300040U 020000000000000000000000000000000000000000000000000000000000000000000000000000000000000000000000000000000000000000000000001704201700000000            000000000000000                              000                           
0010001300041T 020180230000002544776 29647041292717929   7               19042017000000000008000001016179                         0900000000000010000000000000000000000000000000000000000   0000000000000000000000000A9        170192964704     
0010001300042U 020000000000000000000000000000000000000000000000000000000000000000000000000000000000000000000000000000000000000000000000001704201700000000            000000000000000                              000                           
0010001300043T 020180230000002544776 29647041292745027   7               19042017000000000008000001016179                         0900000000000010000000000000000000000000000000000000000   0000000000000000000000000A9        170192964704     
0010001300044U 020000000000000000000000000000000000000000000000000000000000000000000000000000000000000000000000000000000000000000000000001704201700000000            000000000000000                              000                           
0010001300045T 020180230000002544776 29647041292747465   7               19042017000000000008000001016179                         0900000000000010000000000000000000000000000000000000000   0000000000000000000000000A9        170192964704     
0010001300046U 020000000000000000000000000000000000000000000000000000000000000000000000000000000000000000000000000000000000000000000000001704201700000000            000000000000000                              000                           
0010001300047T 020180230000002544776 29647041333105859   7               20042017000000000006000001028495                         0900000000000010000000000000000000000000000000000000000   0000000000000000000000000A9        170192964704     
0010001300048U 020000000000000000000000000000000000000000000000000000000000000000000000000000000000000000000000000000000000000000000000001804201700000000            000000000000000                              000                           
0010001300049T 020180230000002544776 29647041362308455   7               20042017000000000006000001028029                         0900000000000010000000000000000000000000000000000000000   0000000000000000000000000A9        170192964704     
0010001300050U 020000000000000000000000000000000000000000000000000000000000000000000000000000000000000000000000000000000000000000000000001804201700000000            000000000000000                              000                           
0010001300051T 020180230000002544776 29647041445331079   7               20042017000000000008000001007595                         0900000000000010000000000000000000000000000000000000000   0000000000000000000000000A9        170192964704     
0010001300052U 020000000000000000000000000000000000000000000000000000000000000000000000000000000000000000000000000000000000000000000000001804201700000000            000000000000000                              000                           
0010001300053T 020180230000002544776 29647041459713607   7               20042017000000000006000001012688                         0900000000000010000000000000000000000000000000000000000   0000000000000000000000000A9        170192964704     
0010001300054U 020000000000000000000000000000000000000000000000000000000000000000000000000000000000000000000000000000000000000000000000001804201700000000            000000000000000                              000                           
0010001300055T 020180230000002544776 29647041495720208   7               19042017000000000006000001008672                         0900000000000010000000000000000000000000000000000000000   0000000000000000000000000A9        170192964704     
0010001300056U 020000000000000000000000000000000000000000000000000000000000000000000000000000000000000000000000000000000000000000000000001704201700000000            000000000000000                              000                           
0010001300057T 020180230000002544776 29647041512008768   7               20042017000000000006000001007145                         0900000000000010000000000000000000000000000000000000000   0000000000000000000000000A9        170192964704     
0010001300058U 020000000000000000000000000000000000000000000000000000000000000000000000000000000000000000000000000000000000000000000000001804201700000000            000000000000000                              000                           
0010001300059T 020180230000002544776 29647041532616280   7               20042017000000000006000001034770                         0900000000000010000000000000000000000000000000000000000   0000000000000000000000000A9        170192964704     
0010001300060U 020000000000000000000000000000000000000000000000000000000000000000000000000000000000000000000000000000000000000000000000001804201700000000            000000000000000                              000                           
0010001300061T 020180230000002544776 29647041543421366   7               20042017000000000006000001018376                         0900000000000010500000000000000000000000000000000000000   0000000000000000000000000A9A4      170192964704     
0010001300062U 020000000000000000000000000000000000000000000000000000000000000000000000000000000000000000000000000000000000000000000000001804201700000000            000000000000000                              000                           
0010001300063T 020180230000002544776 29647041589615220   7               20042017000000000006000001018376                         0900000000000010000000000000000000000000000000000000000   0000000000000000000000000A9        170192964704     
0010001300064U 020000000000000000000000000000000000000000000000000000000000000000000000000000000000000000000000000000000000000000000000001804201700000000            000000000000000                              000                           
0010001300065T 020180230000002544776 29647041594842413   7               20042017000000000006000001012467                         0900000000000010000000000000000000000000000000000000000   0000000000000000000000000A9        170192964704     
0010001300066U 020000000000000000000000000000000000000000000000000000000000000000000000000000000000000000000000000000000000000000000000001804201700000000            000000000000000                              000                           
0010001300067T 020180230000002544776 29647041646947057   7               20042017000000000006000001002003                         0900000000000010000000000000000000000000000000000000000   0000000000000000000000000A9        170192964704     
0010001300068U 020000000000000000000000000000000000000000000000000000000000000000000000000000000000000000000000000000000000000000000000001804201700000000            000000000000000                              000                           
0010001300069T 020180230000002544776 29647041660502352   7               20042017000000000006000001018376                         0900000000000010000000000000000000000000000000000000000   0000000000000000000000000A9        170192964704     
0010001300070U 020000000000000000000000000000000000000000000000000000000000000000000000000000000000000000000000000000000000000000000000001804201700000000            000000000000000                              000                           
0010001300071T 020180230000002544776 29647041694118408   7               20042017000000000006000001016810                         0900000000000010000000000000000000000000000000000000000   0000000000000000000000000A9        170192964704     
0010001300072U 020000000000000000000000000000000000000000000000000000000000000000000000000000000000000000000000000000000000000000000000001804201700000000            000000000000000                              000                           
0010001300073T 020180230000002544776 29647041704212342   7               20042017000000000006000001000132                         0900000000000010000000000000000000000000000000000000000   0000000000000000000000000A9        170192964704     
0010001300074U 020000000000000000000000000000000000000000000000000000000000000000000000000000000000000000000000000000000000000000000000001804201700000000            000000000000000                              000                           
0010001300075T 020180230000002544776 29647041714448721   7               20042017000000000006000001028029                         0900000000000010500000000000000000000000000000000000000   0000000000000000000000000A9A4      170192964704     
0010001300076U 020000000000000000000000000000000000000000000000000000000000000000000000000000000000000000000000000000000000000000000000001804201700000000            000000000000000                              000                           
0010001300077T 020180230000002544776 29647041714810934   7               20042017000000000008000001028029                         0900000000000010500000000000000000000000000000000000000   0000000000000000000000000A9A4      170192964704     
0010001300078U 020000000000000000000000000000000000000000000000000000000000000000000000000000000000000000000000000000000000000000000000001804201700000000            000000000000000                              000                           
0010001300079T 020180230000002544776 29647041714844634   7               20042017000000000008000001028029                         0900000000000010500000000000000000000000000000000000000   0000000000000000000000000A9A4      170192964704     
0010001300080U 020000000000000000000000000000000000000000000000000000000000000000000000000000000000000000000000000000000000000000000000001804201700000000            000000000000000                              000                           
0010001300081T 020180230000002544776 29647041725052841   7               20042017000000000006000001010588                         0900000000000010000000000000000000000000000000000000000   0000000000000000000000000A9        170192964704     
0010001300082U 020000000000000000000000000000000000000000000000000000000000000000000000000000000000000000000000000000000000000000000000001804201700000000            000000000000000                              000                           
0010001300083T 020180230000002544776 29647041726806572   7               20042017000000000008000001012467                         0900000000000010000000000000000000000000000000000000000   0000000000000000000000000A9        170192964704     
0010001300084U 020000000000000000000000000000000000000000000000000000000000000000000000000000000000000000000000000000000000000000000000001804201700000000            000000000000000                              000                           
0010001300085T 020180230000002544776 29647041726842259   7               20042017000000000008000001012467                         0900000000000010000000000000000000000000000000000000000   0000000000000000000000000A9        170192964704     
0010001300086U 020000000000000000000000000000000000000000000000000000000000000000000000000000000000000000000000000000000000000000000000001804201700000000            000000000000000                              000                           
0010001300087T 020180230000002544776 29647041736111341   7               20042017000000000006000001000132                         0900000000000010000000000000000000000000000000000000000   0000000000000000000000000A9        170192964704     
0010001300088U 020000000000000000000000000000000000000000000000000000000000000000000000000000000000000000000000000000000000000000000000001804201700000000            000000000000000                              000                           
0010001300089T 020180230000002544776 29647041742325580   7               20042017000000000006000001009695                         0900000000000010000000000000000000000000000000000000000   0000000000000000000000000A9        170192964704     
0010001300090U 020000000000000000000000000000000000000000000000000000000000000000000000000000000000000000000000000000000000000000000000001804201700000000            000000000000000                              000                           
0010001300091T 020180230000002544776 29647041742525881   7               20042017000000000008000001028029                         0900000000000010000000000000000000000000000000000000000   0000000000000000000000000A9        170192964704     
0010001300092U 020000000000000000000000000000000000000000000000000000000000000000000000000000000000000000000000000000000000000000000000001804201700000000            000000000000000                              000                           
0010001300093T 020180230000002544776 29647041742644189   7               20042017000000000006000001000132                         0900000000000010000000000000000000000000000000000000000   0000000000000000000000000A9        170192964704     
0010001300094U 020000000000000000000000000000000000000000000000000000000000000000000000000000000000000000000000000000000000000000000000001804201700000000            000000000000000                              000                           
0010001300095T 020180230000002544776 29647041742740531   7               20042017000000000006000001033316                         0900000000000010000000000000000000000000000000000000000   0000000000000000000000000A9        170192964704     
0010001300096U 020000000000000000000000000000000000000000000000000000000000000000000000000000000000000000000000000000000000000000000000001804201700000000            000000000000000                              000                           
0010001300097T 020180230000002544776 29647041743000689   7               20042017000000000008000001035041                         0900000000000010500000000000000000000000000000000000000   0000000000000000000000000A9A4      170192964704     
0010001300098U 020000000000000000000000000000000000000000000000000000000000000000000000000000000000000000000000000000000000000000000000001804201700000000            000000000000000                              000                           
0010001300099T 020180230000002544776 29647041743012475   7               20042017000000000008000001035041                         0900000000000010500000000000000000000000000000000000000   0000000000000000000000000A9A4      170192964704     
0010001300100U 020000000000000000000000000000000000000000000000000000000000000000000000000000000000000000000000000000000000000000000000001804201700000000            000000000000000                              000                           
0010001300101T 020180230000002544776 29647041743048402   7               20042017000000000008000001035041                         0900000000000010500000000000000000000000000000000000000   0000000000000000000000000A9A4      170192964704     
0010001300102U 020000000000000000000000000000000000000000000000000000000000000000000000000000000000000000000000000000000000000000000000001804201700000000            000000000000000                              000                           
0010001300103T 020180230000002544776 29647041743159438   7               20042017000000000006000001007145                         0900000000000010000000000000000000000000000000000000000   0000000000000000000000000A9        170192964704     
0010001300104U 020000000000000000000000000000000000000000000000000000000000000000000000000000000000000000000000000000000000000000000000001804201700000000            000000000000000                              000                           
0010001300105T 020180230000002544776 29647041743354339   7               20042017000000000006000001012467                         0900000000000010000000000000000000000000000000000000000   0000000000000000000000000A9        170192964704     
0010001300106U 020000000000000000000000000000000000000000000000000000000000000000000000000000000000000000000000000000000000000000000000001804201700000000            000000000000000                              000                           
0010001300107T 020180230000002544776 29647041743430818   7               20042017000000000006000001016179                         0900000000000010000000000000000000000000000000000000000   0000000000000000000000000A9        170192964704     
0010001300108U 020000000000000000000000000000000000000000000000000000000000000000000000000000000000000000000000000000000000000000000000001804201700000000            000000000000000                              000                           
0010001300109T 020180230000002544776 29647041743622056   7               2004201700000000000800000100068X                         0900000000000010000000000000000000000000000000000000000   0000000000000000000000000A9        170192964704     
0010001300110U 020000000000000000000000000000000000000000000000000000000000000000000000000000000000000000000000000000000000000000000000001804201700000000            000000000000000                              000                           
0010001300111T 020180230000002544776 29647041743751959   7               20042017000000000008000001009636                         0900000000000010000000000000000000000000000000000000000   0000000000000000000000000A9        170192964704     
0010001300112U 020000000000000000000000000000000000000000000000000000000000000000000000000000000000000000000000000000000000000000000000001804201700000000            000000000000000                              000                           
0010001300113T 020180230000002544776 29647041743807551   7               20042017000000000006000001028029                         0900000000000010000000000000000000000000000000000000000   0000000000000000000000000A9        170192964704     
0010001300114U 020000000000000000000000000000000000000000000000000000000000000000000000000000000000000000000000000000000000000000000000001804201700000000            000000000000000                              000                           
0010001300115T 020180230000002544776 29647041743916895   7               20042017000000000006000001001597                         0900000000000010000000000000000000000000000000000000000   0000000000000000000000000A9        170192964704     
0010001300116U 020000000000000000000000000000000000000000000000000000000000000000000000000000000000000000000000000000000000000000000000001804201700000000            000000000000000                              000                           
0010001300117T 020180230000002544776 29647041744042519   7               20042017000000000008000001010588                         0900000000000010000000000000000000000000000000000000000   0000000000000000000000000A9        170192964704     
0010001300118U 020000000000000000000000000000000000000000000000000000000000000000000000000000000000000000000000000000000000000000000000001804201700000000            000000000000000                              000                           
0010001300119T 020180230000002544776 29647041744153747   7               20042017000000000006000001002216                         0900000000000010000000000000000000000000000000000000000   0000000000000000000000000A9        170192964704     
0010001300120U 020000000000000000000000000000000000000000000000000000000000000000000000000000000000000000000000000000000000000000000000001804201700000000            000000000000000                              000                           
0010001300121T 020180230000002544776 29647041744312201   7               20042017000000000006000001012467                         0900000000000010000000000000000000000000000000000000000   0000000000000000000000000A9        170192964704     
0010001300122U 020000000000000000000000000000000000000000000000000000000000000000000000000000000000000000000000000000000000000000000000001804201700000000            000000000000000                              000                           
0010001300123T 020180230000002544776 29647041744426500   7               20042017000000000006000001033316                         0900000000000010000000000000000000000000000000000000000   0000000000000000000000000A9        170192964704     
0010001300124U 020000000000000000000000000000000000000000000000000000000000000000000000000000000000000000000000000000000000000000000000001804201700000000            000000000000000                              000                           
0010001300125T 020180230000002544776 29647041744707844   7               20042017000000000006000001028029                         0900000000000010000000000000000000000000000000000000000   0000000000000000000000000A9        170192964704     
0010001300126U 020000000000000000000000000000000000000000000000000000000000000000000000000000000000000000000000000000000000000000000000001804201700000000            000000000000000                              000                           
0010001300127T 020180230000002544776 29647041744717663   7               20042017000000000006000001028029                         0900000000000010000000000000000000000000000000000000000   0000000000000000000000000A9        170192964704     
0010001300128U 020000000000000000000000000000000000000000000000000000000000000000000000000000000000000000000000000000000000000000000000001804201700000000            000000000000000                              000                           
0010001300129T 020180230000002544776 29647041744737920   7               20042017000000000006000001028029                         0900000000000010000000000000000000000000000000000000000   0000000000000000000000000A9        170192964704     
0010001300130U 020000000000000000000000000000000000000000000000000000000000000000000000000000000000000000000000000000000000000000000000001804201700000000            000000000000000                              000                           
0010001300131T 020180230000002544776 29647041744755791   7               20042017000000000006000001028029                         0900000000000010000000000000000000000000000000000000000   0000000000000000000000000A9        170192964704     
0010001300132U 020000000000000000000000000000000000000000000000000000000000000000000000000000000000000000000000000000000000000000000000001804201700000000            000000000000000                              000                           
0010001300133T 020180230000002544776 29647041744835776   7               20042017000000000006000001016179                         0900000000000010000000000000000000000000000000000000000   0000000000000000000000000A9        170192964704     
0010001300134U 020000000000000000000000000000000000000000000000000000000000000000000000000000000000000000000000000000000000000000000000001804201700000000            000000000000000                              000                           
0010001300135T 060180230000002544776 29647040595422714   7               18042017000000000006000001028746                         0900000000000010000000000000000000000000000000000000000   000000000000000000000029000        170192964704     
0010001300136U 060000000000000000000000000000000000000000000000000000000000000000000000060000000000000057100000000000000000000000000000001804201720042017            000000000000000                              000                           
0010001300137T 060180230000002544776 29647041292745027   7               19042017000000000008000104005480                         0900000000000010000000000000000000000000000000000000000   000000000000000000000029000        170192964704     
0010001300138U 060000000000000000000000000000000000000000000000000000000000000000000000080000000000000077100000000000000000000000000000001804201720042017            000000000000000                              000                           
0010001300139T 060180230000002544776 29647041314633977   7               18042017000000000006000001015334                         0900000000000010000000000000000000000000000000000000000   000000000000000000000029000        170192964704     
0010001300140U 060000000000000000000000000000000000000000000000000000000000000000000000060000000000000057100000000000000000000000000000001804201720042017            000000000000000                              000                           
0010001300141T 060180230000002544776 29647041352705925   7               18042017000000000006000001018503                         0900000000000010000000000000000000000000000000000000000   000000000000000000000029000        170192964704     
0010001300142U 060000000000000000000000000000000000000000000000000000000000000000000000060000000000000057100000000000000000000000000000001804201720042017            000000000000000                              000                           
0010001300143T 060180230000002544776 29647041612936435   7               19042017000000000008000104020470                         0900000000000010000000000000000000000000000000000000000   000000000000000000000029000        170192964704     
0010001300144U 060000000000000000000000000000000000000000000000000000000000000000000000080000000000000077100000000000000000000000000000001804201720042017            000000000000000                              000                           
0010001300145T 060180230000002544776 29647041716012309   7               18042017000000000006000001016365                         0900000000000010000000000000000000000000000000000000000   000000000000000000000029000        170192964704     
0010001300146U 060000000000000000000000000000000000000000000000000000000000000000000000060000000000000057100000000000000000000000000000001804201720042017            000000000000000                              000                           
0010001300147T 060180230000002544776 29647041722520613   7               18042017000000000006000237031900                         0900000000000010000000000000000000000000000000000000000   000000000000000000000029000        170192964704     
0010001300148U 060000000000000000000000000000000000000000000000000000000000000000000000060000000000000057100000000000000000000000000000001804201720042017            000000000000000                              000                           
0010001300149T 060180230000002544776 29647041726842259   7               20042017000000000008000001007161                         0900000000000010000000000000000000000000000000000000000   000000000000000000000029000        170192964704     
0010001300150U 060000000000000000000000000000000000000000000000000000000000000000000000080000000000000077100000000000000000000000000000001804201720042017            000000000000000                              000                           
0010001300151T 060180230000002544776 29647041738338578   7               18042017000000000008000001001511                         0900000000000010000000000000000000000000000000000000000   000000000000000000000029000        170192964704     
0010001300152U 060000000000000000000000000000000000000000000000000000000000000000000000080000000000000077100000000000000000000000000000001804201720042017            000000000000000                              000                           
0010001300153T 060180230000002544776 29647041738720516   7               19042017000000000008000237010440                         0900000000000010000000000000000000000000000000000000000   000000000000000000000029000        170192964704     
0010001300154U 060000000000000000000000000000000000000000000000000000000000000000000000080000000000000077100000000000000000000000000000001804201720042017            000000000000000                              000                           
0010001300155T 060180230000002544776 29647041739745507   7               19042017000000000006000001016195                         0900000000000010000000000000000000000000000000000000000   000000000000000000000029000        170192964704     
0010001300156U 060000000000000000000000000000000000000000000000000000000000000000000000060000000000000057100000000000000000000000000000001804201720042017            000000000000000                              000                           
0010001300157T 280180230000002544776 29647040506151448   7               17022017000000000008000001000000                         0900000000000000000000000000000000000000000000000000000   000000000000000000000005002        170192964704     
0010001300158U 280000000000000000000000000000000000000000000000000000000000000000000000000000000000000000000000000000000000000000000000001804201700000000            000000000000000                              000                           
0010001300159T 280180230000002544776 29647040523622631   7               17022017000000000006000001000000                         0900000000000000000000000000000000000000000000000000000   000000000000000000000005002        170192964704     
0010001300160U 280000000000000000000000000000000000000000000000000000000000000000000000000000000000000000000000000000000000000000000000001804201700000000            000000000000000                              000                           
0010001300161T 280180230000002544776 29647040523638414   7               17022017000000000006000001000000                         0900000000000000000000000000000000000000000000000000000   000000000000000000000005002        170192964704     
0010001300162U 280000000000000000000000000000000000000000000000000000000000000000000000000000000000000000000000000000000000000000000000001804201700000000            000000000000000                              000                           
0010001300163T 280180230000002544776 29647040525243055   7               17022017000000000006000001000000                         0900000000000000000000000000000000000000000000000000000   000000000000000000000005002        170192964704     
0010001300164U 280000000000000000000000000000000000000000000000000000000000000000000000000000000000000000000000000000000000000000000000001804201700000000            000000000000000                              000                           
0010001300165T 280180230000002544776 29647040526944474   7               17022017000000000006000001000000                         0900000000000000000000000000000000000000000000000000000   000000000000000000000005002        170192964704     
0010001300166U 280000000000000000000000000000000000000000000000000000000000000000000000000000000000000000000000000000000000000000000000001804201700000000            000000000000000                              000                           
0010001300167T 280180230000002544776 29647040529122919   7               17022017000000000006000001000000                         0900000000000000000000000000000000000000000000000000000   000000000000000000000005002        170192964704     
0010001300168U 280000000000000000000000000000000000000000000000000000000000000000000000000000000000000000000000000000000000000000000000001804201700000000            000000000000000                              000                           
0010001300169T 280180230000002544776 29647040529134328   7               17022017000000000006000001000000                         0900000000000000000000000000000000000000000000000000000   000000000000000000000005002        170192964704     
0010001300170U 280000000000000000000000000000000000000000000000000000000000000000000000000000000000000000000000000000000000000000000000001804201700000000            000000000000000                              000                           
0010001300171T 280180230000002544776 29647040534158873   7               17022017000000000006000001000000                         0900000000000000000000000000000000000000000000000000000   000000000000000000000005002        170192964704     
0010001300172U 280000000000000000000000000000000000000000000000000000000000000000000000000000000000000000000000000000000000000000000000001804201700000000            000000000000000                              000                           
0010001300173T 280180230000002544776 29647040535029669   7               17022017000000000006000001000000                         0900000000000000000000000000000000000000000000000000000   000000000000000000000005002        170192964704     
0010001300174U 280000000000000000000000000000000000000000000000000000000000000000000000000000000000000000000000000000000000000000000000001804201700000000            000000000000000                              000                           
0010001300175T 280180230000002544776 29647040537414997   7               17022017000000000006000001000000                         0900000000000000000000000000000000000000000000000000000   000000000000000000000005002        170192964704     
0010001300176U 280000000000000000000000000000000000000000000000000000000000000000000000000000000000000000000000000000000000000000000000001804201700000000            000000000000000                              000                           
0010001300177T 280180230000002544776 29647040537419377   7               17022017000000000006000001000000                         0900000000000000000000000000000000000000000000000000000   000000000000000000000005002        170192964704     
0010001300178U 280000000000000000000000000000000000000000000000000000000000000000000000000000000000000000000000000000000000000000000000001804201700000000            000000000000000                              000                           
0010001300179T 280180230000002544776 29647040537458426   7               17022017000000000006000001000000                         0900000000000000000000000000000000000000000000000000000   000000000000000000000005002        170192964704     
0010001300180U 280000000000000000000000000000000000000000000000000000000000000000000000000000000000000000000000000000000000000000000000001804201700000000            000000000000000                              000                           
0010001300181T 280180230000002544776 29647040540640822   7               17022017000000000008000001000000                         0900000000000000000000000000000000000000000000000000000   000000000000000000000005002        170192964704     
0010001300182U 280000000000000000000000000000000000000000000000000000000000000000000000000000000000000000000000000000000000000000000000001804201700000000            000000000000000                              000                           
0010001300183T 280180230000002544776 29647040541354815   788888888888889917022017000000000006000001000000888888888888899          0900000000000000000000000000000000000000000000000000000   000000000000000000000005002        170192964704     
0010001300184U 280000000000000000000000000000000000000000000000000000000000000000000000000000000000000000000000000000000000000000000000001804201700000000            000000000000000                              000                           
0010001300185T 280180230000002544776 29647040541742888   788888888888889917022017000000000006000001000000888888888888899          0900000000000000000000000000000000000000000000000000000   000000000000000000000005002        170192964704     
0010001300186U 280000000000000000000000000000000000000000000000000000000000000000000000000000000000000000000000000000000000000000000000001804201700000000            000000000000000                              000                           
0010001300187T 280180230000002544776 29647040541859742   788888888888889917022017000000000006000001000000888888888888899          0900000000000000000000000000000000000000000000000000000   000000000000000000000005002        170192964704     
0010001300188U 280000000000000000000000000000000000000000000000000000000000000000000000000000000000000000000000000000000000000000000000001804201700000000            000000000000000                              000                           
0010001300189T 280180230000002544776 29647040541939309   788888888888889917022017000000000006000001000000888888888888899          0900000000000000000000000000000000000000000000000000000   000000000000000000000005002        170192964704     
0010001300190U 280000000000000000000000000000000000000000000000000000000000000000000000000000000000000000000000000000000000000000000000001804201700000000            000000000000000                              000                           
0010001300191T 280180230000002544776 29647040542133903   788888888888889917022017000000000006000001000000888888888888899          0900000000000000000000000000000000000000000000000000000   000000000000000000000005002        170192964704     
0010001300192U 280000000000000000000000000000000000000000000000000000000000000000000000000000000000000000000000000000000000000000000000001804201700000000            000000000000000                              000                           
0010001300193T 280180230000002544776 29647040542245070   788888888888889917022017000000000006000001000000888888888888899          0900000000000000000000000000000000000000000000000000000   000000000000000000000005002        170192964704     
0010001300194U 280000000000000000000000000000000000000000000000000000000000000000000000000000000000000000000000000000000000000000000000001804201700000000            000000000000000                              000                           
0010001300195T 280180230000002544776 29647040542306122   788888888888889917022017000000000006000001000000888888888888899          0900000000000000000000000000000000000000000000000000000   000000000000000000000005002        170192964704     
0010001300196U 280000000000000000000000000000000000000000000000000000000000000000000000000000000000000000000000000000000000000000000000001804201700000000            000000000000000                              000                           
0010001300197T 280180230000002544776 29647040542427212   788888888888889917022017000000000006000001000000888888888888899          0900000000000000000000000000000000000000000000000000000   000000000000000000000005002        170192964704     
0010001300198U 280000000000000000000000000000000000000000000000000000000000000000000000000000000000000000000000000000000000000000000000001804201700000000            000000000000000                              000                           
0010001300199T 280180230000002544776 29647040545549653   7               17022017000000000006000001000000                         0900000000000000000000000000000000000000000000000000000   000000000000000000000005002        170192964704     
0010001300200U 280000000000000000000000000000000000000000000000000000000000000000000000000000000000000000000000000000000000000000000000001804201700000000            000000000000000                              000                           
0010001300201T 280180230000002544776 29647040547935035   788888888888889917022017000000000006000001000000888888888888899          0900000000000000000000000000000000000000000000000000000   000000000000000000000005002        170192964704     
0010001300202U 280000000000000000000000000000000000000000000000000000000000000000000000000000000000000000000000000000000000000000000000001804201700000000            000000000000000                              000                           
0010001300203T 280180230000002544776 29647040552603754   7               19032017000000000006000001000000                         0900000000000000000000000000000000000000000000000000000   000000000000000000000005002        170192964704     
0010001300204U 280000000000000000000000000000000000000000000000000000000000000000000000000000000000000000000000000000000000000000000000001804201700000000            000000000000000                              000                           
0010001300205T 280180230000002544776 29647040552615899   7               19032017000000000006000001000000                         0900000000000000000000000000000000000000000000000000000   000000000000000000000005002        170192964704     
0010001300206U 280000000000000000000000000000000000000000000000000000000000000000000000000000000000000000000000000000000000000000000000001804201700000000            000000000000000                              000                           
0010001300207T 280180230000002544776 29647040552621647   7               19032017000000000006000001000000                         0900000000000000000000000000000000000000000000000000000   000000000000000000000005002        170192964704     
0010001300208U 280000000000000000000000000000000000000000000000000000000000000000000000000000000000000000000000000000000000000000000000001804201700000000            000000000000000                              000                           
0010001300209T 280180230000002544776 29647040557148067   7               17022017000000000006000001000000                         0900000000000000000000000000000000000000000000000000000   000000000000000000000005002        170192964704     
0010001300210U 280000000000000000000000000000000000000000000000000000000000000000000000000000000000000000000000000000000000000000000000001804201700000000            000000000000000                              000                           
0010001300211T 280180230000002544776 29647040558830806   7               17022017000000000006000001000000                         0900000000000000000000000000000000000000000000000000000   000000000000000000000005002        170192964704     
0010001300212U 280000000000000000000000000000000000000000000000000000000000000000000000000000000000000000000000000000000000000000000000001804201700000000            000000000000000                              000                           
0010001300213T 280180230000002544776 29647040568555824   788888888888889917022017000000000008000001000000888888888888899          0900000000000000000000000000000000000000000000000000000   000000000000000000000005002        170192964704     
0010001300214U 280000000000000000000000000000000000000000000000000000000000000000000000000000000000000000000000000000000000000000000000001804201700000000            000000000000000                              000                           
0010001300215T 280180230000002544776 29647040571634787   7               17022017000000000006000001000000                         0900000000000000000000000000000000000000000000000000000   000000000000000000000005002        170192964704     
0010001300216U 280000000000000000000000000000000000000000000000000000000000000000000000000000000000000000000000000000000000000000000000001804201700000000            000000000000000                              000                           
0010001300217T 280180230000002544776 29647040574948091   788888888888889917022017000000000006000001000000888888888888899          0900000000000000000000000000000000000000000000000000000   000000000000000000000005002        170192964704     
0010001300218U 280000000000000000000000000000000000000000000000000000000000000000000000000000000000000000000000000000000000000000000000001804201700000000            000000000000000                              000                           
0010001300219T 280180230000002544776 29647040580300427   7               17022017000000000006000001000000                         0900000000000000000000000000000000000000000000000000000   000000000000000000000005002        170192964704     
0010001300220U 280000000000000000000000000000000000000000000000000000000000000000000000000000000000000000000000000000000000000000000000001804201700000000            000000000000000                              000                           
0010001300221T 280180230000002544776 29647040580932830   7               17022017000000000006000001000000                         0900000000000000000000000000000000000000000000000000000   000000000000000000000005002        170192964704     
0010001300222U 280000000000000000000000000000000000000000000000000000000000000000000000000000000000000000000000000000000000000000000000001804201700000000            000000000000000                              000                           
0010001300223T 280180230000002544776 29647040587342986   788888888888889917022017000000000006000001000000888888888888899          0900000000000000000000000000000000000000000000000000000   000000000000000000000005002        170192964704     
0010001300224U 280000000000000000000000000000000000000000000000000000000000000000000000000000000000000000000000000000000000000000000000001804201700000000            000000000000000                              000                           
0010001300225T 280180230000002544776 29647040592853625   788888888888889917022017000000000006000001000000888888888888899          0900000000000000000000000000000000000000000000000000000   000000000000000000000005002        170192964704     
0010001300226U 280000000000000000000000000000000000000000000000000000000000000000000000000000000000000000000000000000000000000000000000001804201700000000            000000000000000                              000                           
0010001300227T 280180230000002544776 29647040595356156   7               17022017000000000006000001000000                         0900000000000000000000000000000000000000000000000000000   000000000000000000000005002        170192964704     
0010001300228U 280000000000000000000000000000000000000000000000000000000000000000000000000000000000000000000000000000000000000000000000001804201700000000            000000000000000                              000                           
0010001300229T 280180230000002544776 29647040598843929   7               17022017000000000008000001000000                         0900000000000000000000000000000000000000000000000000000   000000000000000000000005002        170192964704     
0010001300230U 280000000000000000000000000000000000000000000000000000000000000000000000000000000000000000000000000000000000000000000000001804201700000000            000000000000000                              000                           
0010001300231T 280180230000002544776 29647040599921584   7               17022017000000000006000001000000                         0900000000000000000000000000000000000000000000000000000   000000000000000000000005002        170192964704     
0010001300232U 280000000000000000000000000000000000000000000000000000000000000000000000000000000000000000000000000000000000000000000000001804201700000000            000000000000000                              000                           
0010001300233T 280180230000002544776 29647040606450521   788888888888889917022017000000000008000001000000888888888888899          0900000000000000000000000000000000000000000000000000000   000000000000000000000005002        170192964704     
0010001300234U 280000000000000000000000000000000000000000000000000000000000000000000000000000000000000000000000000000000000000000000000001804201700000000            000000000000000                              000                           
0010001300235T 280180230000002544776 29647040607507269   7               17022017000000000006000001000000                         0900000000000000000000000000000000000000000000000000000   000000000000000000000005002        170192964704     
0010001300236U 280000000000000000000000000000000000000000000000000000000000000000000000000000000000000000000000000000000000000000000000001804201700000000            000000000000000                              000                           
0010001300237T 280180230000002544776 29647040607509556   7               17022017000000000006000001000000                         0900000000000000000000000000000000000000000000000000000   000000000000000000000005002        170192964704     
0010001300238U 280000000000000000000000000000000000000000000000000000000000000000000000000000000000000000000000000000000000000000000000001804201700000000            000000000000000                              000                           
0010001300239T 280180230000002544776 29647040607552151   7               17022017000000000006000001000000                         0900000000000000000000000000000000000000000000000000000   000000000000000000000005002        170192964704     
0010001300240U 280000000000000000000000000000000000000000000000000000000000000000000000000000000000000000000000000000000000000000000000001804201700000000            000000000000000                              000                           
0010001300241T 280180230000002544776 29647040609008632   7               17022017000000000006000001000000                         0900000000000000000000000000000000000000000000000000000   000000000000000000000005002        170192964704     
0010001300242U 280000000000000000000000000000000000000000000000000000000000000000000000000000000000000000000000000000000000000000000000001804201700000000            000000000000000                              000                           
0010001300243T 280180230000002544776 29647040611825746   7               19032017000000000006000001000000                         0900000000000000000000000000000000000000000000000000000   000000000000000000000005002        170192964704     
0010001300244U 280000000000000000000000000000000000000000000000000000000000000000000000000000000000000000000000000000000000000000000000001804201700000000            000000000000000                              000                           
0010001300245T 280180230000002544776 29647040613059546   7               17022017000000000006000001000000                         0900000000000000000000000000000000000000000000000000000   000000000000000000000005002        170192964704     
0010001300246U 280000000000000000000000000000000000000000000000000000000000000000000000000000000000000000000000000000000000000000000000001804201700000000            000000000000000                              000                           
0010001300247T 280180230000002544776 29647040614026677   7               17022017000000000008000001000000                         0900000000000000000000000000000000000000000000000000000   000000000000000000000005002        170192964704     
0010001300248U 280000000000000000000000000000000000000000000000000000000000000000000000000000000000000000000000000000000000000000000000001804201700000000            000000000000000                              000                           
0010001300249T 280180230000002544776 29647040617218044   7               17022017000000000006000001000000                         0900000000000000000000000000000000000000000000000000000   000000000000000000000005002        170192964704     
0010001300250U 280000000000000000000000000000000000000000000000000000000000000000000000000000000000000000000000000000000000000000000000001804201700000000            000000000000000                              000                           
0010001300251T 280180230000002544776 29647040620804780   7               17022017000000000006000001000000                         0900000000000000000000000000000000000000000000000000000   000000000000000000000005002        170192964704     
0010001300252U 280000000000000000000000000000000000000000000000000000000000000000000000000000000000000000000000000000000000000000000000001804201700000000            000000000000000                              000                           
0010001300253T 280180230000002544776 29647040620813115   7               17022017000000000006000001000000                         0900000000000000000000000000000000000000000000000000000   000000000000000000000005002        170192964704     
0010001300254U 280000000000000000000000000000000000000000000000000000000000000000000000000000000000000000000000000000000000000000000000001804201700000000            000000000000000                              000                           
0010001300255T 280180230000002544776 29647040620815258   7               17022017000000000006000001000000                         0900000000000000000000000000000000000000000000000000000   000000000000000000000005002        170192964704     
0010001300256U 280000000000000000000000000000000000000000000000000000000000000000000000000000000000000000000000000000000000000000000000001804201700000000            000000000000000                              000                           
0010001300257T 280180230000002544776 29647040623840118   7               17022017000000000006000001000000                         0900000000000000000000000000000000000000000000000000000   000000000000000000000005002        170192964704     
0010001300258U 280000000000000000000000000000000000000000000000000000000000000000000000000000000000000000000000000000000000000000000000001804201700000000            000000000000000                              000                           
0010001300259T 280180230000002544776 29647040624551402   7               17022017000000000006000001000000                         0900000000000000000000000000000000000000000000000000000   000000000000000000000005002        170192964704     
0010001300260U 280000000000000000000000000000000000000000000000000000000000000000000000000000000000000000000000000000000000000000000000001804201700000000            000000000000000                              000                           
0010001300261T 280180230000002544776 29647040624702429   7               17022017000000000006000001000000                         0900000000000000000000000000000000000000000000000000000   000000000000000000000005002        170192964704     
0010001300262U 280000000000000000000000000000000000000000000000000000000000000000000000000000000000000000000000000000000000000000000000001804201700000000            000000000000000                              000                           
0010001300263T 280180230000002544776 29647040625405388   7               17022017000000000006000001000000                         0900000000000000000000000000000000000000000000000000000   000000000000000000000005002        170192964704     
0010001300264U 280000000000000000000000000000000000000000000000000000000000000000000000000000000000000000000000000000000000000000000000001804201700000000            000000000000000                              000                           
0010001300265T 280180230000002544776 29647040625448404   7               17022017000000000006000001000000                         0900000000000000000000000000000000000000000000000000000   000000000000000000000005002        170192964704     
0010001300266U 280000000000000000000000000000000000000000000000000000000000000000000000000000000000000000000000000000000000000000000000001804201700000000            000000000000000                              000                           
0010001300267T 280180230000002544776 29647040625644274   7               17022017000000000008000001000000                         0900000000000000000000000000000000000000000000000000000   000000000000000000000005002        170192964704     
0010001300268U 280000000000000000000000000000000000000000000000000000000000000000000000000000000000000000000000000000000000000000000000001804201700000000            000000000000000                              000                           
0010001300269T 280180230000002544776 29647040625704779   7               17022017000000000006000001000000                         0900000000000000000000000000000000000000000000000000000   000000000000000000000005002        170192964704     
0010001300270U 280000000000000000000000000000000000000000000000000000000000000000000000000000000000000000000000000000000000000000000000001804201700000000            000000000000000                              000                           
0010001300271T 280180230000002544776 29647040625715392   7               17022017000000000006000001000000                         0900000000000000000000000000000000000000000000000000000   000000000000000000000005002        170192964704     
0010001300272U 280000000000000000000000000000000000000000000000000000000000000000000000000000000000000000000000000000000000000000000000001804201700000000            000000000000000                              000                           
0010001300273T 280180230000002544776 29647040625741267   7               17022017000000000006000001000000                         0900000000000000000000000000000000000000000000000000000   000000000000000000000005002        170192964704     
0010001300274U 280000000000000000000000000000000000000000000000000000000000000000000000000000000000000000000000000000000000000000000000001804201700000000            000000000000000                              000                           
0010001300275T 280180230000002544776 29647040625944639   7               17022017000000000006000001000000                         0900000000000000000000000000000000000000000000000000000   000000000000000000000005002        170192964704     
0010001300276U 280000000000000000000000000000000000000000000000000000000000000000000000000000000000000000000000000000000000000000000000001804201700000000            000000000000000                              000                           
0010001300277T 280180230000002544776 29647040626026166   7               17022017000000000006000001000000                         0900000000000000000000000000000000000000000000000000000   000000000000000000000005002        170192964704     
0010001300278U 280000000000000000000000000000000000000000000000000000000000000000000000000000000000000000000000000000000000000000000000001804201700000000            000000000000000                              000                           
0010001300279T 280180230000002544776 29647040626108922   7               17022017000000000006000001000000                         0900000000000000000000000000000000000000000000000000000   000000000000000000000005002        170192964704     
0010001300280U 280000000000000000000000000000000000000000000000000000000000000000000000000000000000000000000000000000000000000000000000001804201700000000            000000000000000                              000                           
0010001300281T 280180230000002544776 29647040626200968   7               17022017000000000006000001000000                         0900000000000000000000000000000000000000000000000000000   000000000000000000000005002        170192964704     
0010001300282U 280000000000000000000000000000000000000000000000000000000000000000000000000000000000000000000000000000000000000000000000001804201700000000            000000000000000                              000                           
0010001300283T 280180230000002544776 29647040626356527   7               17022017000000000006000001000000                         0900000000000000000000000000000000000000000000000000000   000000000000000000000005002        170192964704     
0010001300284U 280000000000000000000000000000000000000000000000000000000000000000000000000000000000000000000000000000000000000000000000001804201700000000            000000000000000                              000                           
0010001300285T 280180230000002544776 29647040626420383   7               17022017000000000008000001000000                         0900000000000000000000000000000000000000000000000000000   000000000000000000000005002        170192964704     
0010001300286U 280000000000000000000000000000000000000000000000000000000000000000000000000000000000000000000000000000000000000000000000001804201700000000            000000000000000                              000                           
0010001300287T 280180230000002544776 29647040626859805   7               17022017000000000006000001000000                         0900000000000000000000000000000000000000000000000000000   000000000000000000000005002        170192964704     
0010001300288U 280000000000000000000000000000000000000000000000000000000000000000000000000000000000000000000000000000000000000000000000001804201700000000            000000000000000                              000                           
0010001300289T 280180230000002544776 29647040627708792   7               17022017000000000006000001000000                         0900000000000000000000000000000000000000000000000000000   000000000000000000000005002        170192964704     
0010001300290U 280000000000000000000000000000000000000000000000000000000000000000000000000000000000000000000000000000000000000000000000001804201700000000            000000000000000                              000                           
0010001300291T 280180230000002544776 29647040627920835   7               17022017000000000006000001000000                         0900000000000000000000000000000000000000000000000000000   000000000000000000000005002        170192964704     
0010001300292U 280000000000000000000000000000000000000000000000000000000000000000000000000000000000000000000000000000000000000000000000001804201700000000            000000000000000                              000                           
0010001300293T 280180230000002544776 29647040628139125   7               17022017000000000006000001000000                         0900000000000000000000000000000000000000000000000000000   000000000000000000000005002        170192964704     
0010001300294U 280000000000000000000000000000000000000000000000000000000000000000000000000000000000000000000000000000000000000000000000001804201700000000            000000000000000                              000                           
0010001300295T 280180230000002544776 29647040628348669   7               17022017000000000006000001000000                         0900000000000000000000000000000000000000000000000000000   000000000000000000000005002        170192964704     
0010001300296U 280000000000000000000000000000000000000000000000000000000000000000000000000000000000000000000000000000000000000000000000001804201700000000            000000000000000                              000                           
0010001300297T 280180230000002544776 29647040628718417   7               17022017000000000008000001000000                         0900000000000000000000000000000000000000000000000000000   000000000000000000000005002        170192964704     
0010001300298U 280000000000000000000000000000000000000000000000000000000000000000000000000000000000000000000000000000000000000000000000001804201700000000            000000000000000                              000                           
0010001300299T 280180230000002544776 29647040628828008   7               17022017000000000006000001000000                         0900000000000000000000000000000000000000000000000000000   000000000000000000000005002        170192964704     
0010001300300U 280000000000000000000000000000000000000000000000000000000000000000000000000000000000000000000000000000000000000000000000001804201700000000            000000000000000                              000                           
0010001300301T 280180230000002544776 29647040628927173   7               17022017000000000006000001000000                         0900000000000000000000000000000000000000000000000000000   000000000000000000000005002        170192964704     
0010001300302U 280000000000000000000000000000000000000000000000000000000000000000000000000000000000000000000000000000000000000000000000001804201700000000            000000000000000                              000                           
0010001300303T 280180230000002544776 29647040629049662   7               17022017000000000006000001000000                         0900000000000000000000000000000000000000000000000000000   000000000000000000000005002        170192964704     
0010001300304U 280000000000000000000000000000000000000000000000000000000000000000000000000000000000000000000000000000000000000000000000001804201700000000            000000000000000                              000                           
0010001300305T 280180230000002544776 29647040629233921   7               17022017000000000006000001000000                         0900000000000000000000000000000000000000000000000000000   000000000000000000000005002        170192964704     
0010001300306U 280000000000000000000000000000000000000000000000000000000000000000000000000000000000000000000000000000000000000000000000001804201700000000            000000000000000                              000                           
0010001300307T 280180230000002544776 29647040629353397   7               17022017000000000006000001000000                         0900000000000000000000000000000000000000000000000000000   000000000000000000000005002        170192964704     
0010001300308U 280000000000000000000000000000000000000000000000000000000000000000000000000000000000000000000000000000000000000000000000001804201700000000            000000000000000                              000                           
0010001300309T 280180230000002544776 29647040629419753   7               17022017000000000008000001000000                         0900000000000000000000000000000000000000000000000000000   000000000000000000000005002        170192964704     
0010001300310U 280000000000000000000000000000000000000000000000000000000000000000000000000000000000000000000000000000000000000000000000001804201700000000            000000000000000                              000                           
0010001300311T 280180230000002544776 29647040629427205   7               17022017000000000008000001000000                         0900000000000000000000000000000000000000000000000000000   000000000000000000000005002        170192964704     
0010001300312U 280000000000000000000000000000000000000000000000000000000000000000000000000000000000000000000000000000000000000000000000001804201700000000            000000000000000                              000                           
0010001300313T 280180230000002544776 29647040629637696   7               17022017000000000006000001000000                         0900000000000000000000000000000000000000000000000000000   000000000000000000000005002        170192964704     
0010001300314U 280000000000000000000000000000000000000000000000000000000000000000000000000000000000000000000000000000000000000000000000001804201700000000            000000000000000                              000                           
0010001300315T 280180230000002544776 29647040629821384   7               17022017000000000006000001000000                         0900000000000000000000000000000000000000000000000000000   000000000000000000000005002        170192964704     
0010001300316U 280000000000000000000000000000000000000000000000000000000000000000000000000000000000000000000000000000000000000000000000001804201700000000            000000000000000                              000                           
0010001300317T 280180230000002544776 29647040629855519   7               17022017000000000006000001000000                         0900000000000000000000000000000000000000000000000000000   000000000000000000000005002        170192964704     
0010001300318U 280000000000000000000000000000000000000000000000000000000000000000000000000000000000000000000000000000000000000000000000001804201700000000            000000000000000                              000                           
0010001300319T 280180230000002544776 29647040629956618   7               17022017000000000006000001000000                         0900000000000000000000000000000000000000000000000000000   000000000000000000000005002        170192964704     
0010001300320U 280000000000000000000000000000000000000000000000000000000000000000000000000000000000000000000000000000000000000000000000001804201700000000            000000000000000                              000                           
0010001300321T 280180230000002544776 29647040630018080   7               17022017000000000008000001000000                         0900000000000000000000000000000000000000000000000000000   000000000000000000000005002        170192964704     
0010001300322U 280000000000000000000000000000000000000000000000000000000000000000000000000000000000000000000000000000000000000000000000001804201700000000            000000000000000                              000                           
0010001300323T 280180230000002544776 29647040630115985   7               17022017000000000008000001000000                         0900000000000000000000000000000000000000000000000000000   000000000000000000000005002        170192964704     
0010001300324U 280000000000000000000000000000000000000000000000000000000000000000000000000000000000000000000000000000000000000000000000001804201700000000            000000000000000                              000                           
0010001300325T 280180230000002544776 29647040630312602   7               17022017000000000008000001000000                         0900000000000000000000000000000000000000000000000000000   000000000000000000000005002        170192964704     
0010001300326U 280000000000000000000000000000000000000000000000000000000000000000000000000000000000000000000000000000000000000000000000001804201700000000            000000000000000                              000                           
0010001300327T 280180230000002544776 29647040630325003   7               17022017000000000008000001000000                         0900000000000000000000000000000000000000000000000000000   000000000000000000000005002        170192964704     
0010001300328U 280000000000000000000000000000000000000000000000000000000000000000000000000000000000000000000000000000000000000000000000001804201700000000            000000000000000                              000                           
0010001300329T 280180230000002544776 29647040630327546   7               17022017000000000008000001000000                         0900000000000000000000000000000000000000000000000000000   000000000000000000000005002        170192964704     
0010001300330U 280000000000000000000000000000000000000000000000000000000000000000000000000000000000000000000000000000000000000000000000001804201700000000            000000000000000                              000                           
0010001300331T 280180230000002544776 29647040630537844   7               17022017000000000006000001000000                         0900000000000000000000000000000000000000000000000000000   000000000000000000000005002        170192964704     
0010001300332U 280000000000000000000000000000000000000000000000000000000000000000000000000000000000000000000000000000000000000000000000001804201700000000            000000000000000                              000                           
0010001300333T 280180230000002544776 29647040631012863   7               17022017000000000008000001000000                         0900000000000000000000000000000000000000000000000000000   000000000000000000000005002        170192964704     
0010001300334U 280000000000000000000000000000000000000000000000000000000000000000000000000000000000000000000000000000000000000000000000001804201700000000            000000000000000                              000                           
0010001300335T 280180230000002544776 29647040631032050   7               17022017000000000008000001000000                         0900000000000000000000000000000000000000000000000000000   000000000000000000000005002        170192964704     
0010001300336U 280000000000000000000000000000000000000000000000000000000000000000000000000000000000000000000000000000000000000000000000001804201700000000            000000000000000                              000                           
0010001300337T 280180230000002544776 29647040631511042   788888888888889917022017000000000006000001000000888888888888899          0900000000000000000000000000000000000000000000000000000   000000000000000000000005002        170192964704     
0010001300338U 280000000000000000000000000000000000000000000000000000000000000000000000000000000000000000000000000000000000000000000000001804201700000000            000000000000000                              000                           
0010001300339T 280180230000002544776 29647040631725760   7               17022017000000000006000001000000                         0900000000000000000000000000000000000000000000000000000   000000000000000000000005002        170192964704     
0010001300340U 280000000000000000000000000000000000000000000000000000000000000000000000000000000000000000000000000000000000000000000000001804201700000000            000000000000000                              000                           
0010001300341T 280180230000002544776 29647040632055500   7               17022017000000000006000001000000                         0900000000000000000000000000000000000000000000000000000   000000000000000000000005002        170192964704     
0010001300342U 280000000000000000000000000000000000000000000000000000000000000000000000000000000000000000000000000000000000000000000000001804201700000000            000000000000000                              000                           
0010001300343T 280180230000002544776 29647040632254220   7               17022017000000000006000001000000                         0900000000000000000000000000000000000000000000000000000   000000000000000000000005002        170192964704     
0010001300344U 280000000000000000000000000000000000000000000000000000000000000000000000000000000000000000000000000000000000000000000000001804201700000000            000000000000000                              000                           
0010001300345T 280180230000002544776 29647040632559789   7               17022017000000000006000001000000                         0900000000000000000000000000000000000000000000000000000   000000000000000000000005002        170192964704     
0010001300346U 280000000000000000000000000000000000000000000000000000000000000000000000000000000000000000000000000000000000000000000000001804201700000000            000000000000000                              000                           
0010001300347T 280180230000002544776 29647040632825602   7               17022017000000000006000001000000                         0900000000000000000000000000000000000000000000000000000   000000000000000000000005002        170192964704     
0010001300348U 280000000000000000000000000000000000000000000000000000000000000000000000000000000000000000000000000000000000000000000000001804201700000000            000000000000000                              000                           
0010001300349T 280180230000002544776 29647040633331777   7               17022017000000000006000001000000                         0900000000000000000000000000000000000000000000000000000   000000000000000000000005002        170192964704     
0010001300350U 280000000000000000000000000000000000000000000000000000000000000000000000000000000000000000000000000000000000000000000000001804201700000000            000000000000000                              000                           
0010001300351T 280180230000002544776 29647040633520898   7               17022017000000000008000001000000                         0900000000000000000000000000000000000000000000000000000   000000000000000000000005002        170192964704     
0010001300352U 280000000000000000000000000000000000000000000000000000000000000000000000000000000000000000000000000000000000000000000000001804201700000000            000000000000000                              000                           
0010001300353T 280180230000002544776 29647040633909564   7               17022017000000000006000001000000                         0900000000000000000000000000000000000000000000000000000   000000000000000000000005002        170192964704     
0010001300354U 280000000000000000000000000000000000000000000000000000000000000000000000000000000000000000000000000000000000000000000000001804201700000000            000000000000000                              000                           
0010001300355T 280180230000002544776 29647040634628829   7               17022017000000000006000001000000                         0900000000000000000000000000000000000000000000000000000   000000000000000000000005002        170192964704     
0010001300356U 280000000000000000000000000000000000000000000000000000000000000000000000000000000000000000000000000000000000000000000000001804201700000000            000000000000000                              000                           
0010001300357T 280180230000002544776 29647040634709875   7               17022017000000000006000001000000                         0900000000000000000000000000000000000000000000000000000   000000000000000000000005002        170192964704     
0010001300358U 280000000000000000000000000000000000000000000000000000000000000000000000000000000000000000000000000000000000000000000000001804201700000000            000000000000000                              000                           
0010001300359T 280180230000002544776 29647040635020417   7               17022017000000000006000001000000                         0900000000000000000000000000000000000000000000000000000   000000000000000000000005002        170192964704     
0010001300360U 280000000000000000000000000000000000000000000000000000000000000000000000000000000000000000000000000000000000000000000000001804201700000000            000000000000000                              000                           
0010001300361T 280180230000002544776 29647040635413787   7               17022017000000000006000001000000                         0900000000000000000000000000000000000000000000000000000   000000000000000000000005002        170192964704     
0010001300362U 280000000000000000000000000000000000000000000000000000000000000000000000000000000000000000000000000000000000000000000000001804201700000000            000000000000000                              000                           
0010001300363T 280180230000002544776 29647040635512788   7               17022017000000000008000001000000                         0900000000000000000000000000000000000000000000000000000   000000000000000000000005002        170192964704     
0010001300364U 280000000000000000000000000000000000000000000000000000000000000000000000000000000000000000000000000000000000000000000000001804201700000000            000000000000000                              000                           
0010001300365T 280180230000002544776 29647040635527322   7               17022017000000000008000001000000                         0900000000000000000000000000000000000000000000000000000   000000000000000000000005002        170192964704     
0010001300366U 280000000000000000000000000000000000000000000000000000000000000000000000000000000000000000000000000000000000000000000000001804201700000000            000000000000000                              000                           
0010001300367T 280180230000002544776 29647040635532663   7               17022017000000000008000001000000                         0900000000000000000000000000000000000000000000000000000   000000000000000000000005002        170192964704     
0010001300368U 280000000000000000000000000000000000000000000000000000000000000000000000000000000000000000000000000000000000000000000000001804201700000000            000000000000000                              000                           
0010001300369T 280180230000002544776 29647040635634461   7               17022017000000000006000001000000                         0900000000000000000000000000000000000000000000000000000   000000000000000000000005002        170192964704     
0010001300370U 280000000000000000000000000000000000000000000000000000000000000000000000000000000000000000000000000000000000000000000000001804201700000000            000000000000000                              000                           
0010001300371T 280180230000002544776 29647040635720000   7               17022017000000000006000001000000                         0900000000000000000000000000000000000000000000000000000   000000000000000000000005002        170192964704     
0010001300372U 280000000000000000000000000000000000000000000000000000000000000000000000000000000000000000000000000000000000000000000000001804201700000000            000000000000000                              000                           
0010001300373T 280180230000002544776 29647040635931775   7               17022017000000000006000001000000                         0900000000000000000000000000000000000000000000000000000   000000000000000000000005002        170192964704     
0010001300374U 280000000000000000000000000000000000000000000000000000000000000000000000000000000000000000000000000000000000000000000000001804201700000000            000000000000000                              000                           
0010001300375T 280180230000002544776 29647040636117456   7               17022017000000000006000001000000                         0900000000000000000000000000000000000000000000000000000   000000000000000000000005002        170192964704     
0010001300376U 280000000000000000000000000000000000000000000000000000000000000000000000000000000000000000000000000000000000000000000000001804201700000000            000000000000000                              000                           
0010001300377T 280180230000002544776 29647040636126035   7               17022017000000000006000001000000                         0900000000000000000000000000000000000000000000000000000   000000000000000000000005002        170192964704     
0010001300378U 280000000000000000000000000000000000000000000000000000000000000000000000000000000000000000000000000000000000000000000000001804201700000000            000000000000000                              000                           
0010001300379T 280180230000002544776 29647040636439291   7               17022017000000000006000001000000                         0900000000000000000000000000000000000000000000000000000   000000000000000000000005002        170192964704     
0010001300380U 280000000000000000000000000000000000000000000000000000000000000000000000000000000000000000000000000000000000000000000000001804201700000000            000000000000000                              000                           
0010001300381T 280180230000002544776 29647040636622211   7               17022017000000000006000001000000                         0900000000000000000000000000000000000000000000000000000   000000000000000000000005002        170192964704     
0010001300382U 280000000000000000000000000000000000000000000000000000000000000000000000000000000000000000000000000000000000000000000000001804201700000000            000000000000000                              000                           
0010001300383T 280180230000002544776 29647040636812690   7               17022017000000000008000001000000                         0900000000000000000000000000000000000000000000000000000   000000000000000000000005002        170192964704     
0010001300384U 280000000000000000000000000000000000000000000000000000000000000000000000000000000000000000000000000000000000000000000000001804201700000000            000000000000000                              000                           
0010001300385T 280180230000002544776 29647040636947276   7               17022017000000000006000001000000                         0900000000000000000000000000000000000000000000000000000   000000000000000000000005002        170192964704     
0010001300386U 280000000000000000000000000000000000000000000000000000000000000000000000000000000000000000000000000000000000000000000000001804201700000000            000000000000000                              000                           
0010001300387T 280180230000002544776 29647040636951874   7               17022017000000000006000001000000                         0900000000000000000000000000000000000000000000000000000   000000000000000000000005002        170192964704     
0010001300388U 280000000000000000000000000000000000000000000000000000000000000000000000000000000000000000000000000000000000000000000000001804201700000000            000000000000000                              000                           
0010001300389T 280180230000002544776 29647040637027701   7               17022017000000000006000001000000                         0900000000000000000000000000000000000000000000000000000   000000000000000000000005002        170192964704     
0010001300390U 280000000000000000000000000000000000000000000000000000000000000000000000000000000000000000000000000000000000000000000000001804201700000000            000000000000000                              000                           
0010001300391T 280180230000002544776 29647040637103061   7               17022017000000000006000001000000                         0900000000000000000000000000000000000000000000000000000   000000000000000000000005002        170192964704     
0010001300392U 280000000000000000000000000000000000000000000000000000000000000000000000000000000000000000000000000000000000000000000000001804201700000000            000000000000000                              000                           
0010001300393T 280180230000002544776 29647040637411745   7               17022017000000000006000001000000                         0900000000000000000000000000000000000000000000000000000   000000000000000000000005002        170192964704     
0010001300394U 280000000000000000000000000000000000000000000000000000000000000000000000000000000000000000000000000000000000000000000000001804201700000000            000000000000000                              000                           
0010001300395T 280180230000002544776 29647040637516164   7               17022017000000000008000001000000                         0900000000000000000000000000000000000000000000000000000   000000000000000000000005002        170192964704     
0010001300396U 280000000000000000000000000000000000000000000000000000000000000000000000000000000000000000000000000000000000000000000000001804201700000000            000000000000000                              000                           
0010001300397T 280180230000002544776 29647040637527427   7               17022017000000000008000001000000                         0900000000000000000000000000000000000000000000000000000   000000000000000000000005002        170192964704     
0010001300398U 280000000000000000000000000000000000000000000000000000000000000000000000000000000000000000000000000000000000000000000000001804201700000000            000000000000000                              000                           
0010001300399T 280180230000002544776 29647040637829231   7               17022017000000000006000001000000                         0900000000000000000000000000000000000000000000000000000   000000000000000000000005002        170192964704     
0010001300400U 280000000000000000000000000000000000000000000000000000000000000000000000000000000000000000000000000000000000000000000000001804201700000000            000000000000000                              000                           
0010001300401T 280180230000002544776 29647040637852109   7               17022017000000000006000001000000                         0900000000000000000000000000000000000000000000000000000   000000000000000000000005002        170192964704     
0010001300402U 280000000000000000000000000000000000000000000000000000000000000000000000000000000000000000000000000000000000000000000000001804201700000000            000000000000000                              000                           
0010001300403T 280180230000002544776 29647040638150138   7               17022017000000000006000001000000                         0900000000000000000000000000000000000000000000000000000   000000000000000000000005002        170192964704     
0010001300404U 280000000000000000000000000000000000000000000000000000000000000000000000000000000000000000000000000000000000000000000000001804201700000000            000000000000000                              000                           
0010001300405T 280180230000002544776 29647040638300491   7               17022017000000000006000001000000                         0900000000000000000000000000000000000000000000000000000   000000000000000000000005002        170192964704     
0010001300406U 280000000000000000000000000000000000000000000000000000000000000000000000000000000000000000000000000000000000000000000000001804201700000000            000000000000000                              000                           
0010001300407T 280180230000002544776 29647040638724465   7               17022017000000000006000001000000                         0900000000000000000000000000000000000000000000000000000   000000000000000000000005002        170192964704     
0010001300408U 280000000000000000000000000000000000000000000000000000000000000000000000000000000000000000000000000000000000000000000000001804201700000000            000000000000000                              000                           
0010001300409T 280180230000002544776 29647040638813222   7               17022017000000000006000001000000                         0900000000000000000000000000000000000000000000000000000   000000000000000000000005002        170192964704     
0010001300410U 280000000000000000000000000000000000000000000000000000000000000000000000000000000000000000000000000000000000000000000000001804201700000000            000000000000000                              000                           
0010001300411T 280180230000002544776 29647040638959196   7               17022017000000000006000001000000                         0900000000000000000000000000000000000000000000000000000   000000000000000000000005002        170192964704     
0010001300412U 280000000000000000000000000000000000000000000000000000000000000000000000000000000000000000000000000000000000000000000000001804201700000000            000000000000000                              000                           
