00100000         2247745860001000029647040014       0180230000002544776 INSTITUTO DE SELECAO E TECNOLOBANCO DO BRASIL                         21904201701241900011003000000515122941PROCESSAMEN                                                 
00100011T0100020 20247745860001000029647040014       0180230000002544776 INSTITUTO DE SELECAO E TECNOLO                                                                                000000001904201700000000  000000000                      
0010001300001T 020180230000002544776 29647040511959603   7               20042017000000000006000001035041                         0900000000000010000000000000000000000000000000000000000   0000000000000000000000000A9        170192964704     
0010001300002U 020000000000000000000000000000000000000000000000000000000000000000000000000000000000000000000000000000000000000000000000001804201700000000            000000000000000                              000                           
0010001300003T 020180230000002544776 29647040631521759   7               21042017000000000006000001012467                         0900000000000010500000000000000000000000000000000000000   0000000000000000000000000A9A4      170192964704     
0010001300004U 020000000000000000000000000000000000000000000000000000000000000000000000000000000000000000000000000000000000000000000000001904201700000000            000000000000000                              000                           
0010001300005T 020180230000002544776 29647040726626464   7               21042017000000000006000001033316                         0900000000000010000000000000000000000000000000000000000   0000000000000000000000000A9        170192964704     
0010001300006U 020000000000000000000000000000000000000000000000000000000000000000000000000000000000000000000000000000000000000000000000001904201700000000            000000000000000                              000                           
0010001300007T 020180230000002544776 29647040769312824   7               21042017000000000006000001013595                         0900000000000010000000000000000000000000000000000000000   0000000000000000000000000A9        170192964704     
0010001300008U 020000000000000000000000000000000000000000000000000000000000000000000000000000000000000000000000000000000000000000000000001904201700000000            000000000000000                              000                           
0010001300009T 020180230000002544776 29647041137536510   7               21042017000000000006000001012467                         0900000000000010000000000000000000000000000000000000000   0000000000000000000000000A9        170192964704     
0010001300010U 020000000000000000000000000000000000000000000000000000000000000000000000000000000000000000000000000000000000000000000000001904201700000000            000000000000000                              000                           
0010001300011T 020180230000002544776 29647041161908060   7               21042017000000000006000001012467                         0900000000000010000000000000000000000000000000000000000   0000000000000000000000000A9        170192964704     
0010001300012U 020000000000000000000000000000000000000000000000000000000000000000000000000000000000000000000000000000000000000000000000001904201700000000            000000000000000                              000                           
0010001300013T 020180230000002544776 29647041259353540   7               21042017000000000006000001016179                         0900000000000010000000000000000000000000000000000000000   0000000000000000000000000A9        170192964704     
0010001300014U 020000000000000000000000000000000000000000000000000000000000000000000000000000000000000000000000000000000000000000000000001904201700000000            000000000000000                              000                           
0010001300015T 020180230000002544776 29647041360952460   7               21042017000000000006000001028029                         0900000000000010000000000000000000000000000000000000000   0000000000000000000000000A9        170192964704     
0010001300016U 020000000000000000000000000000000000000000000000000000000000000000000000000000000000000000000000000000000000000000000000001904201700000000            000000000000000                              000                           
0010001300017T 020180230000002544776 29647041362304158   7               21042017000000000006000001028029                         0900000000000010000000000000000000000000000000000000000   0000000000000000000000000A9        170192964704     
0010001300018U 020000000000000000000000000000000000000000000000000000000000000000000000000000000000000000000000000000000000000000000000001904201700000000            000000000000000                              000                           
0010001300019T 020180230000002544776 29647041388124720   7               21042017000000000006000001028029                         0900000000000010000000000000000000000000000000000000000   0000000000000000000000000A9        170192964704     
0010001300020U 020000000000000000000000000000000000000000000000000000000000000000000000000000000000000000000000000000000000000000000000001904201700000000            000000000000000                              000                           
0010001300021T 020180230000002544776 29647041400154277   7               21042017000000000006000001028029                         0900000000000010000000000000000000000000000000000000000   0000000000000000000000000A9        170192964704     
0010001300022U 020000000000000000000000000000000000000000000000000000000000000000000000000000000000000000000000000000000000000000000000001904201700000000            000000000000000                              000                           
0010001300023T 020180230000002544776 29647041412302250   7               21042017000000000006000001028029                         0900000000000010000000000000000000000000000000000000000   0000000000000000000000000A9        170192964704     
0010001300024U 020000000000000000000000000000000000000000000000000000000000000000000000000000000000000000000000000000000000000000000000001904201700000000            000000000000000                              000                           
0010001300025T 020180230000002544776 29647041422911852   7               21042017000000000006000001000213                         0900000000000010000000000000000000000000000000000000000   0000000000000000000000000A9        170192964704     
0010001300026U 020000000000000000000000000000000000000000000000000000000000000000000000000000000000000000000000000000000000000000000000001904201700000000            000000000000000                              000                           
0010001300027T 020180230000002544776 29647041456039870   7               21042017000000000006000001018376                         0900000000000010000000000000000000000000000000000000000   0000000000000000000000000A9        170192964704     
0010001300028U 020000000000000000000000000000000000000000000000000000000000000000000000000000000000000000000000000000000000000000000000001904201700000000            000000000000000                              000                           
0010001300029T 020180230000002544776 29647041477657757   7               21042017000000000006000001005428                         0900000000000010000000000000000000000000000000000000000   0000000000000000000000000A9        170192964704     
0010001300030U 020000000000000000000000000000000000000000000000000000000000000000000000000000000000000000000000000000000000000000000000001904201700000000            000000000000000                              000                           
0010001300031T 020180230000002544776 29647041520027000   7               21042017000000000006000001009636                         0900000000000010000000000000000000000000000000000000000   0000000000000000000000000A9        170192964704     
0010001300032U 020000000000000000000000000000000000000000000000000000000000000000000000000000000000000000000000000000000000000000000000001904201700000000            000000000000000                              000                           
0010001300033T 020180230000002544776 29647041539415731   7               21042017000000000006000001008214                         0900000000000010000000000000000000000000000000000000000   0000000000000000000000000A9        170192964704     
0010001300034U 020000000000000000000000000000000000000000000000000000000000000000000000000000000000000000000000000000000000000000000000001904201700000000            000000000000000                              000                           
0010001300035T 020180230000002544776 29647041554829958   7               21042017000000000006000001028029                         0900000000000010000000000000000000000000000000000000000   0000000000000000000000000A9        170192964704     
0010001300036U 020000000000000000000000000000000000000000000000000000000000000000000000000000000000000000000000000000000000000000000000001904201700000000            000000000000000                              000                           
0010001300037T 020180230000002544776 29647041599010085   7               2104201700000000000600000101981X                         0900000000000010000000000000000000000000000000000000000   0000000000000000000000000A9        170192964704     
0010001300038U 020000000000000000000000000000000000000000000000000000000000000000000000000000000000000000000000000000000000000000000000001904201700000000            000000000000000                              000                           
0010001300039T 020180230000002544776 29647041604719590   7               21042017000000000006000001013692                         0900000000000010000000000000000000000000000000000000000   0000000000000000000000000A9        170192964704     
0010001300040U 020000000000000000000000000000000000000000000000000000000000000000000000000000000000000000000000000000000000000000000000001904201700000000            000000000000000                              000                           
0010001300041T 020180230000002544776 29647041624021471   7               21042017000000000006000001023655                         0900000000000010000000000000000000000000000000000000000   0000000000000000000000000A9        170192964704     
0010001300042U 020000000000000000000000000000000000000000000000000000000000000000000000000000000000000000000000000000000000000000000000001904201700000000            000000000000000                              000                           
0010001300043T 020180230000002544776 29647041624023809   7               21042017000000000006000001023655                         0900000000000010000000000000000000000000000000000000000   0000000000000000000000000A9        170192964704     
0010001300044U 020000000000000000000000000000000000000000000000000000000000000000000000000000000000000000000000000000000000000000000000001904201700000000            000000000000000                              000                           
0010001300045T 020180230000002544776 29647041640306852   7               21042017000000000006000001028029                         0900000000000010000000000000000000000000000000000000000   0000000000000000000000000A9        170192964704     
0010001300046U 020000000000000000000000000000000000000000000000000000000000000000000000000000000000000000000000000000000000000000000000001904201700000000            000000000000000                              000                           
0010001300047T 020180230000002544776 29647041646957317   7               21042017000000000006000001002003                         0900000000000010000000000000000000000000000000000000000   0000000000000000000000000A9        170192964704     
0010001300048U 020000000000000000000000000000000000000000000000000000000000000000000000000000000000000000000000000000000000000000000000001904201700000000            000000000000000                              000                           
0010001300049T 020180230000002544776 29647041648245402   7               21042017000000000008000001002003                         0900000000000010000000000000000000000000000000000000000   0000000000000000000000000A9        170192964704     
0010001300050U 020000000000000000000000000000000000000000000000000000000000000000000000000000000000000000000000000000000000000000000000001904201700000000            000000000000000                              000                           
0010001300051T 020180230000002544776 29647041663701172   7               21042017000000000006000001001597                         0900000000000010000000000000000000000000000000000000000   0000000000000000000000000A9        170192964704     
0010001300052U 020000000000000000000000000000000000000000000000000000000000000000000000000000000000000000000000000000000000000000000000001904201700000000            000000000000000                              000                           
0010001300053T 020180230000002544776 29647041720817906   7               21042017000000000008000001028029                         0900000000000010000000000000000000000000000000000000000   0000000000000000000000000A9        170192964704     
0010001300054U 020000000000000000000000000000000000000000000000000000000000000000000000000000000000000000000000000000000000000000000000001904201700000000            000000000000000                              000                           
0010001300055T 020180230000002544776 29647041729341245   7               21042017000000000006000001025089                         0900000000000010000000000000000000000000000000000000000   0000000000000000000000000A9        170192964704     
0010001300056U 020000000000000000000000000000000000000000000000000000000000000000000000000000000000000000000000000000000000000000000000001904201700000000            000000000000000                              000                           
0010001300057T 020180230000002544776 29647041732707870   7               2104201700000000000600000100233X                         0900000000000010000000000000000000000000000000000000000   0000000000000000000000000A9        170192964704     
0010001300058U 020000000000000000000000000000000000000000000000000000000000000000000000000000000000000000000000000000000000000000000000001904201700000000            000000000000000                              000                           
0010001300059T 020180230000002544776 29647041732742470   7               2104201700000000000600000100233X                         0900000000000010000000000000000000000000000000000000000   0000000000000000000000000A9        170192964704     
0010001300060U 020000000000000000000000000000000000000000000000000000000000000000000000000000000000000000000000000000000000000000000000001904201700000000            000000000000000                              000                           
0010001300061T 020180230000002544776 29647041740327725   7               21042017000000000006000001028029                         0900000000000010000000000000000000000000000000000000000   0000000000000000000000000A9        170192964704     
0010001300062U 020000000000000000000000000000000000000000000000000000000000000000000000000000000000000000000000000000000000000000000000001904201700000000            000000000000000                              000                           
0010001300063T 020180230000002544776 29647041740843464   7               21042017000000000006000001026972                         0900000000000010000000000000000000000000000000000000000   0000000000000000000000000A9        170192964704     
0010001300064U 020000000000000000000000000000000000000000000000000000000000000000000000000000000000000000000000000000000000000000000000001904201700000000            000000000000000                              000                           
0010001300065T 020180230000002544776 29647041741819859   7               21042017000000000008000001012467                         0900000000000010000000000000000000000000000000000000000   0000000000000000000000000A9        170192964704     
0010001300066U 020000000000000000000000000000000000000000000000000000000000000000000000000000000000000000000000000000000000000000000000001904201700000000            000000000000000                              000                           
0010001300067T 020180230000002544776 29647041741819901   7               21042017000000000008000001012467                         0900000000000010000000000000000000000000000000000000000   0000000000000000000000000A9        170192964704     
0010001300068U 020000000000000000000000000000000000000000000000000000000000000000000000000000000000000000000000000000000000000000000000001904201700000000            000000000000000                              000                           
0010001300069T 020180230000002544776 29647041744904525   7               2004201700000000000800000101981X                         0900000000000010500000000000000000000000000000000000000   0000000000000000000000000A9A4      170192964704     
0010001300070U 020000000000000000000000000000000000000000000000000000000000000000000000000000000000000000000000000000000000000000000000001804201700000000            000000000000000                              000                           
0010001300071T 020180230000002544776 29647041745025445   7               2004201700000000000800000101981X                         0900000000000010500000000000000000000000000000000000000   0000000000000000000000000A9A4      170192964704     
0010001300072U 020000000000000000000000000000000000000000000000000000000000000000000000000000000000000000000000000000000000000000000000001804201700000000            000000000000000                              000                           
0010001300073T 020180230000002544776 29647041745141046   7               20042017000000000006000001024252                         0900000000000010000000000000000000000000000000000000000   0000000000000000000000000A9        170192964704     
0010001300074U 020000000000000000000000000000000000000000000000000000000000000000000000000000000000000000000000000000000000000000000000001804201700000000            000000000000000                              000                           
0010001300075T 020180230000002544776 29647041745423903   7               21042017000000000006000001018376                         0900000000000010000000000000000000000000000000000000000   0000000000000000000000000A9        170192964704     
0010001300076U 020000000000000000000000000000000000000000000000000000000000000000000000000000000000000000000000000000000000000000000000001904201700000000            000000000000000                              000                           
0010001300077T 020180230000002544776 29647041745509817   7               21042017000000000008000001012467                         0900000000000010000000000000000000000000000000000000000   0000000000000000000000000A9        170192964704     
0010001300078U 020000000000000000000000000000000000000000000000000000000000000000000000000000000000000000000000000000000000000000000000001904201700000000            000000000000000                              000                           
0010001300079T 020180230000002544776 29647041745815559   7               21042017000000000008000001028029                         0900000000000010000000000000000000000000000000000000000   0000000000000000000000000A9        170192964704     
0010001300080U 020000000000000000000000000000000000000000000000000000000000000000000000000000000000000000000000000000000000000000000000001904201700000000            000000000000000                              000                           
0010001300081T 020180230000002544776 29647041745821811   7               21042017000000000008000001028029                         0900000000000010000000000000000000000000000000000000000   0000000000000000000000000A9        170192964704     
0010001300082U 020000000000000000000000000000000000000000000000000000000000000000000000000000000000000000000000000000000000000000000000001904201700000000            000000000000000                              000                           
0010001300083T 020180230000002544776 29647041745835730   7               21042017000000000008000001028029                         0900000000000010000000000000000000000000000000000000000   0000000000000000000000000A9        170192964704     
0010001300084U 020000000000000000000000000000000000000000000000000000000000000000000000000000000000000000000000000000000000000000000000001904201700000000            000000000000000                              000                           
0010001300085T 020180230000002544776 29647041745916394   7               21042017000000000006000001033316                         0900000000000010000000000000000000000000000000000000000   0000000000000000000000000A9        170192964704     
0010001300086U 020000000000000000000000000000000000000000000000000000000000000000000000000000000000000000000000000000000000000000000000001904201700000000            000000000000000                              000                           
0010001300087T 020180230000002544776 29647041745930429   7               21042017000000000006000001033316                         0900000000000010000000000000000000000000000000000000000   0000000000000000000000000A9        170192964704     
0010001300088U 020000000000000000000000000000000000000000000000000000000000000000000000000000000000000000000000000000000000000000000000001904201700000000            000000000000000                              000                           
0010001300089T 020180230000002544776 29647041745935018   7               21042017000000000006000001033316                         0900000000000010000000000000000000000000000000000000000   0000000000000000000000000A9        170192964704     
0010001300090U 020000000000000000000000000000000000000000000000000000000000000000000000000000000000000000000000000000000000000000000000001904201700000000            000000000000000                              000                           
0010001300091T 020180230000002544776 29647041745943765   7               21042017000000000006000001033316                         0900000000000010000000000000000000000000000000000000000   0000000000000000000000000A9        170192964704     
0010001300092U 020000000000000000000000000000000000000000000000000000000000000000000000000000000000000000000000000000000000000000000000001904201700000000            000000000000000                              000                           
0010001300093T 020180230000002544776 29647041745957524   7               21042017000000000006000001033316                         0900000000000010000000000000000000000000000000000000000   0000000000000000000000000A9        170192964704     
0010001300094U 020000000000000000000000000000000000000000000000000000000000000000000000000000000000000000000000000000000000000000000000001904201700000000            000000000000000                              000                           
0010001300095T 020180230000002544776 29647041746144203   7               21042017000000000008000001028029                         0900000000000010500000000000000000000000000000000000000   0000000000000000000000000A9A4      170192964704     
0010001300096U 020000000000000000000000000000000000000000000000000000000000000000000000000000000000000000000000000000000000000000000000001904201700000000            000000000000000                              000                           
0010001300097T 020180230000002544776 29647041746231982   7               21042017000000000008000001009717                         0900000000000010000000000000000000000000000000000000000   0000000000000000000000000A9        170192964704     
0010001300098U 020000000000000000000000000000000000000000000000000000000000000000000000000000000000000000000000000000000000000000000000001904201700000000            000000000000000                              000                           
0010001300099T 020180230000002544776 29647041746502991   7               21042017000000000006000001000132                         0900000000000010000000000000000000000000000000000000000   0000000000000000000000000A9        170192964704     
0010001300100U 020000000000000000000000000000000000000000000000000000000000000000000000000000000000000000000000000000000000000000000000001904201700000000            000000000000000                              000                           
0010001300101T 020180230000002544776 29647041746650512   7               21042017000000000006000001026425                         0900000000000010000000000000000000000000000000000000000   0000000000000000000000000A9        170192964704     
0010001300102U 020000000000000000000000000000000000000000000000000000000000000000000000000000000000000000000000000000000000000000000000001904201700000000            000000000000000                              000                           
0010001300103T 020180230000002544776 29647041746820610   7               21042017000000000006000001016179                         0900000000000010000000000000000000000000000000000000000   0000000000000000000000000A9        170192964704     
0010001300104U 020000000000000000000000000000000000000000000000000000000000000000000000000000000000000000000000000000000000000000000000001904201700000000            000000000000000                              000                           
0010001300105T 020180230000002544776 29647041746907018   7               2104201700000000000600000100099X                         0900000000000010000000000000000000000000000000000000000   0000000000000000000000000A9        170192964704     
0010001300106U 020000000000000000000000000000000000000000000000000000000000000000000000000000000000000000000000000000000000000000000000001904201700000000            000000000000000                              000                           
0010001300107T 020180230000002544776 29647041747241471   7               21042017000000000008000001016179                         0900000000000010000000000000000000000000000000000000000   0000000000000000000000000A9        170192964704     
0010001300108U 020000000000000000000000000000000000000000000000000000000000000000000000000000000000000000000000000000000000000000000000001904201700000000            000000000000000                              000                           
0010001300109T 020180230000002544776 29647041747344321   7               21042017000000000006000001021768                         0900000000000010000000000000000000000000000000000000000   0000000000000000000000000A9        170192964704     
0010001300110U 020000000000000000000000000000000000000000000000000000000000000000000000000000000000000000000000000000000000000000000000001904201700000000            000000000000000                              000                           
0010001300111T 020180230000002544776 29647041747400829   7               21042017000000000006000001012467                         0900000000000010000000000000000000000000000000000000000   0000000000000000000000000A9        170192964704     
0010001300112U 020000000000000000000000000000000000000000000000000000000000000000000000000000000000000000000000000000000000000000000000001904201700000000            000000000000000                              000                           
0010001300113T 020180230000002544776 29647041747426852   7               21042017000000000006000001012467                         0900000000000010000000000000000000000000000000000000000   0000000000000000000000000A9        170192964704     
0010001300114U 020000000000000000000000000000000000000000000000000000000000000000000000000000000000000000000000000000000000000000000000001904201700000000            000000000000000                              000                           
0010001300115T 020180230000002544776 29647041747435572   7               21042017000000000006000001012467                         0900000000000010000000000000000000000000000000000000000   0000000000000000000000000A9        170192964704     
0010001300116U 020000000000000000000000000000000000000000000000000000000000000000000000000000000000000000000000000000000000000000000000001904201700000000            000000000000000                              000                           
0010001300117T 020180230000002544776 29647041747454935   7               21042017000000000006000001012467                         0900000000000010000000000000000000000000000000000000000   0000000000000000000000000A9        170192964704     
0010001300118U 020000000000000000000000000000000000000000000000000000000000000000000000000000000000000000000000000000000000000000000000001904201700000000            000000000000000                              000                           
0010001300119T 020180230000002544776 29647041747726910   7               2104201700000000000600000101981X                         0900000000000010000000000000000000000000000000000000000   0000000000000000000000000A9        170192964704     
0010001300120U 020000000000000000000000000000000000000000000000000000000000000000000000000000000000000000000000000000000000000000000000001904201700000000            000000000000000                              000                           
0010001300121T 020180230000002544776 29647041747835546   7               21042017000000000008000001016179                         0900000000000010000000000000000000000000000000000000000   0000000000000000000000000A9        170192964704     
0010001300122U 020000000000000000000000000000000000000000000000000000000000000000000000000000000000000000000000000000000000000000000000001904201700000000            000000000000000                              000                           
0010001300123T 020180230000002544776 29647041747952235   7               21042017000000000006000001012467                         0900000000000010000000000000000000000000000000000000000   0000000000000000000000000A9        170192964704     
0010001300124U 020000000000000000000000000000000000000000000000000000000000000000000000000000000000000000000000000000000000000000000000001904201700000000            000000000000000                              000                           
0010001300125T 020180230000002544776 29647041748049701   7               21042017000000000008000001016179                         0900000000000010000000000000000000000000000000000000000   0000000000000000000000000A9        170192964704     
0010001300126U 020000000000000000000000000000000000000000000000000000000000000000000000000000000000000000000000000000000000000000000000001904201700000000            000000000000000                              000                           
0010001300127T 020180230000002544776 29647041748107623   7               21042017000000000006000001000132                         0900000000000010000000000000000000000000000000000000000   0000000000000000000000000A9        170192964704     
0010001300128U 020000000000000000000000000000000000000000000000000000000000000000000000000000000000000000000000000000000000000000000000001904201700000000            000000000000000                              000                           
0010001300129T 020180230000002544776 29647041748119943   7               21042017000000000006000001000132                         0900000000000010000000000000000000000000000000000000000   0000000000000000000000000A9        170192964704     
0010001300130U 020000000000000000000000000000000000000000000000000000000000000000000000000000000000000000000000000000000000000000000000001904201700000000            000000000000000                              000                           
0010001300131T 020180230000002544776 29647041748243329   7               21042017000000000008000001028029                         0900000000000010000000000000000000000000000000000000000   0000000000000000000000000A9        170192964704     
0010001300132U 020000000000000000000000000000000000000000000000000000000000000000000000000000000000000000000000000000000000000000000000001904201700000000            000000000000000                              000                           
0010001300133T 020180230000002544776 29647041748320312   7               21042017000000000006000001016020                         0900000000000010000000000000000000000000000000000000000   0000000000000000000000000A9        170192964704     
0010001300134U 020000000000000000000000000000000000000000000000000000000000000000000000000000000000000000000000000000000000000000000000001904201700000000            000000000000000                              000                           
0010001300135T 020180230000002544776 29647041748356645   7               21042017000000000006000001016020                         0900000000000010000000000000000000000000000000000000000   0000000000000000000000000A9        170192964704     
0010001300136U 020000000000000000000000000000000000000000000000000000000000000000000000000000000000000000000000000000000000000000000000001904201700000000            000000000000000                              000                           
0010001300137T 020180230000002544776 29647041748430452   7               21042017000000000006000001016020                         0900000000000010000000000000000000000000000000000000000   0000000000000000000000000A9        170192964704     
0010001300138U 020000000000000000000000000000000000000000000000000000000000000000000000000000000000000000000000000000000000000000000000001904201700000000            000000000000000                              000                           
0010001300139T 060180230000002544776 29647041197504200   7               19042017000000000008000104011060                         0900000000000010000000000000000000000000000000000000000   000000000000000000000029000        170192964704     
0010001300140U 060000000000000000000000000000000000000000000000000000000000000000000000080000000000000077100000000000000000000000000000001904201724042017            000000000000000                              000                           
0010001300141T 060180230000002544776 29647041362304158   7               21042017000000000006000341024830                         0900000000000010000000000000000000000000000000000000000   000000000000000000000029000        170192964704     
0010001300142U 060000000000000000000000000000000000000000000000000000000000000000000000060000000000000057100000000000000000000000000000001904201724042017            000000000000000                              000                           
0010001300143T 060180230000002544776 29647041406538563   7               19042017000000000006000104006260                         0900000000000010000000000000000000000000000000000000000   000000000000000000000029000        170192964704     
0010001300144U 060000000000000000000000000000000000000000000000000000000000000000000000060000000000000057100000000000000000000000000000001904201724042017            000000000000000                              000                           
0010001300145T 060180230000002544776 29647041729242266   7               19042017000000000008000001035262                         0900000000000010000000000000000000000000000000000000000   000000000000000000000029000        170192964704     
0010001300146U 060000000000000000000000000000000000000000000000000000000000000000000000080000000000000077100000000000000000000000000000001904201724042017            000000000000000                              000                           
0010001300147T 060180230000002544776 29647041739010141   7               19042017000000000008000001016365                         0900000000000010000000000000000000000000000000000000000   000000000000000000000029000        170192964704     
0010001300148U 060000000000000000000000000000000000000000000000000000000000000000000000080000000000000077100000000000000000000000000000001904201724042017            000000000000000                              000                           
0010001300149T 060180230000002544776 29647041739107407   7               19042017000000000008000001016365                         0900000000000010000000000000000000000000000000000000000   000000000000000000000029000        170192964704     
0010001300150U 060000000000000000000000000000000000000000000000000000000000000000000000080000000000000077100000000000000000000000000000001904201724042017            000000000000000                              000                           
0010001300151T 060180230000002544776 29647041739628156   7               19042017000000000008000001032425                         0900000000000010000000000000000000000000000000000000000   000000000000000000000029000        170192964704     
0010001300152U 060000000000000000000000000000000000000000000000000000000000000000000000080000000000000077100000000000000000000000000000001904201724042017            000000000000000                              000                           
0010001300153T 060180230000002544776 29647041740038295   7               19042017000000000008000104010280                         0900000000000010000000000000000000000000000000000000000   000000000000000000000029000        170192964704     
0010001300154U 060000000000000000000000000000000000000000000000000000000000000000000000080000000000000077100000000000000000000000000000001904201724042017            000000000000000                              000                           
0010001300155T 060180230000002544776 29647041741819901   7               21042017000000000008000237003210                         0900000000000010000000000000000000000000000000000000000   000000000000000000000029000        170192964704     
0010001300156U 060000000000000000000000000000000000000000000000000000000000000000000000080000000000000077100000000000000000000000000000001904201724042017            000000000000000                              000                           
0010001300157T 060180230000002544776 29647041742044190   7               19042017000000000006000104007740                         0900000000000010000000000000000000000000000000000000000   000000000000000000000029000        170192964704     
0010001300158U 060000000000000000000000000000000000000000000000000000000000000000000000060000000000000057100000000000000000000000000000001904201724042017            000000000000000                              000                           
0010001300159T 060180230000002544776 29647041742740531   7               20042017000000000006000104007370                         0900000000000010000000000000000000000000000000000000000   000000000000000000000029000        170192964704     
0010001300160U 060000000000000000000000000000000000000000000000000000000000000000000000060000000000000057100000000000000000000000000000001904201724042017            000000000000000                              000                           
0010001300161T 060180230000002544776 29647041748243329   7               21042017000000000008000237028910                         0900000000000010000000000000000000000000000000000000000   000000000000000000000029000        170192964704     
0010001300162U 060000000000000000000000000000000000000000000000000000000000000000000000080000000000000077100000000000000000000000000000001904201724042017            000000000000000                              000                           
0010001300163T 280180230000002544776 29647040518552507   7               18022017000000000006000001000000                         0900000000000000000000000000000000000000000000000000000   000000000000000000000005002        170192964704     
0010001300164U 280000000000000000000000000000000000000000000000000000000000000000000000000000000000000000000000000000000000000000000000001904201700000000            000000000000000                              000                           
0010001300165T 280180230000002544776 29647040523627369   7               18022017000000000006000001000000                         0900000000000000000000000000000000000000000000000000000   000000000000000000000005002        170192964704     
0010001300166U 280000000000000000000000000000000000000000000000000000000000000000000000000000000000000000000000000000000000000000000000001904201700000000            000000000000000                              000                           
0010001300167T 280180230000002544776 29647040531304109   7               18022017000000000006000001000000                         0900000000000000000000000000000000000000000000000000000   000000000000000000000005002        170192964704     
0010001300168U 280000000000000000000000000000000000000000000000000000000000000000000000000000000000000000000000000000000000000000000000001904201700000000            000000000000000                              000                           
0010001300169T 280180230000002544776 29647040552412538   7               18022017000000000006000001000000                         0900000000000000000000000000000000000000000000000000000   000000000000000000000005002        170192964704     
0010001300170U 280000000000000000000000000000000000000000000000000000000000000000000000000000000000000000000000000000000000000000000000001904201700000000            000000000000000                              000                           
0010001300171T 280180230000002544776 29647040568912337   7               20032017000000000006000001000000                         0900000000000000000000000000000000000000000000000000000   000000000000000000000005002        170192964704     
0010001300172U 280000000000000000000000000000000000000000000000000000000000000000000000000000000000000000000000000000000000000000000000001904201700000000            000000000000000                              000                           
0010001300173T 280180230000002544776 29647040571904838   7               18022017000000000006000001000000                         0900000000000000000000000000000000000000000000000000000   000000000000000000000005002        170192964704     
0010001300174U 280000000000000000000000000000000000000000000000000000000000000000000000000000000000000000000000000000000000000000000000001904201700000000            000000000000000                              000                           
0010001300175T 280180230000002544776 29647040571936911   7               18022017000000000006000001000000                         0900000000000000000000000000000000000000000000000000000   000000000000000000000005002        170192964704     
0010001300176U 280000000000000000000000000000000000000000000000000000000000000000000000000000000000000000000000000000000000000000000000001904201700000000            000000000000000                              000                           
0010001300177T 280180230000002544776 29647040572007808   7               18022017000000000008000001000000                         0900000000000000000000000000000000000000000000000000000   000000000000000000000005002        170192964704     
0010001300178U 280000000000000000000000000000000000000000000000000000000000000000000000000000000000000000000000000000000000000000000000001904201700000000            000000000000000                              000                           
0010001300179T 280180230000002544776 29647040573454461   7               18022017000000000006000001000000                         0900000000000000000000000000000000000000000000000000000   000000000000000000000005002        170192964704     
0010001300180U 280000000000000000000000000000000000000000000000000000000000000000000000000000000000000000000000000000000000000000000000001904201700000000            000000000000000                              000                           
0010001300181T 280180230000002544776 29647040588209306   7               18022017000000000006000001000000                         0900000000000000000000000000000000000000000000000000000   000000000000000000000005002        170192964704     
0010001300182U 280000000000000000000000000000000000000000000000000000000000000000000000000000000000000000000000000000000000000000000000001904201700000000            000000000000000                              000                           
0010001300183T 280180230000002544776 29647040605529949   7               18022017000000000006000001000000                         0900000000000000000000000000000000000000000000000000000   000000000000000000000005002        170192964704     
0010001300184U 280000000000000000000000000000000000000000000000000000000000000000000000000000000000000000000000000000000000000000000000001904201700000000            000000000000000                              000                           
0010001300185T 280180230000002544776 29647040618010402   7               18022017000000000008000001000000                         0900000000000000000000000000000000000000000000000000000   000000000000000000000005002        170192964704     
0010001300186U 280000000000000000000000000000000000000000000000000000000000000000000000000000000000000000000000000000000000000000000000001904201700000000            000000000000000                              000                           
0010001300187T 280180230000002544776 29647040619509368   7               20032017000000000006000001000000                         0900000000000000000000000000000000000000000000000000000   000000000000000000000005002        170192964704     
0010001300188U 280000000000000000000000000000000000000000000000000000000000000000000000000000000000000000000000000000000000000000000000001904201700000000            000000000000000                              000                           
0010001300189T 280180230000002544776 29647040629010835   7               18022017000000000006000001000000                         0900000000000000000000000000000000000000000000000000000   000000000000000000000005002        170192964704     
0010001300190U 280000000000000000000000000000000000000000000000000000000000000000000000000000000000000000000000000000000000000000000000001904201700000000            000000000000000                              000                           
0010001300191T 280180230000002544776 29647040629028823   7               18022017000000000006000001000000                         0900000000000000000000000000000000000000000000000000000   000000000000000000000005002        170192964704     
0010001300192U 280000000000000000000000000000000000000000000000000000000000000000000000000000000000000000000000000000000000000000000000001904201700000000            000000000000000                              000                           
0010001300193T 280180230000002544776 29647040629030207   7               18022017000000000006000001000000                         0900000000000000000000000000000000000000000000000000000   000000000000000000000005002        170192964704     
0010001300194U 280000000000000000000000000000000000000000000000000000000000000000000000000000000000000000000000000000000000000000000000001904201700000000            000000000000000                              000                           
0010001300195T 280180230000002544776 29647040629032946   7               18022017000000000006000001000000                         0900000000000000000000000000000000000000000000000000000   000000000000000000000005002        170192964704     
0010001300196U 280000000000000000000000000000000000000000000000000000000000000000000000000000000000000000000000000000000000000000000000001904201700000000            000000000000000                              000                           
0010001300197T 280180230000002544776 29647040629033007   7               18022017000000000006000001000000                         0900000000000000000000000000000000000000000000000000000   000000000000000000000005002        170192964704     
0010001300198U 280000000000000000000000000000000000000000000000000000000000000000000000000000000000000000000000000000000000000000000000001904201700000000            000000000000000                              000                           
0010001300199T 280180230000002544776 29647040629040138   7               18022017000000000006000001000000                         0900000000000000000000000000000000000000000000000000000   000000000000000000000005002        170192964704     
0010001300200U 280000000000000000000000000000000000000000000000000000000000000000000000000000000000000000000000000000000000000000000000001904201700000000            000000000000000                              000                           
0010001300201T 280180230000002544776 29647040631014046   7               18022017000000000008000001000000                         0900000000000000000000000000000000000000000000000000000   000000000000000000000005002        170192964704     
0010001300202U 280000000000000000000000000000000000000000000000000000000000000000000000000000000000000000000000000000000000000000000000001904201700000000            000000000000000                              000                           
0010001300203T 280180230000002544776 29647040633940226   7               18022017000000000006000001000000                         0900000000000000000000000000000000000000000000000000000   000000000000000000000005002        170192964704     
0010001300204U 280000000000000000000000000000000000000000000000000000000000000000000000000000000000000000000000000000000000000000000000001904201700000000            000000000000000                              000                           
0010001300205T 280180230000002544776 29647040636350147   7               18022017000000000006000001000000                         0900000000000000000000000000000000000000000000000000000   000000000000000000000005002        170192964704     
0010001300206U 280000000000000000000000000000000000000000000000000000000000000000000000000000000000000000000000000000000000000000000000001904201700000000            000000000000000                              000                           
0010001300207T 280180230000002544776 29647040637941052   7               18022017000000000006000001000000                         0900000000000000000000000000000000000000000000000000000   000000000000000000000005002        170192964704     
0010001300208U 280000000000000000000000000000000000000000000000000000000000000000000000000000000000000000000000000000000000000000000000001904201700000000            000000000000000                              000                           
0010001300209T 280180230000002544776 29647040644304710   7               18022017000000000006000001000000                         0900000000000000000000000000000000000000000000000000000   000000000000000000000005002        170192964704     
0010001300210U 280000000000000000000000000000000000000000000000000000000000000000000000000000000000000000000000000000000000000000000000001904201700000000            000000000000000                              000                           
0010001300211T 280180230000002544776 29647040651316326   7               18022017000000000006000001000000                         0900000000000000000000000000000000000000000000000000000   000000000000000000000005002        170192964704     
0010001300212U 280000000000000000000000000000000000000000000000000000000000000000000000000000000000000000000000000000000000000000000000001904201700000000            000000000000000                              000                           
0010001300213T 280180230000002544776 29647040658141184   7               18022017000000000006000001000000                         0900000000000000000000000000000000000000000000000000000   000000000000000000000005002        170192964704     
0010001300214U 280000000000000000000000000000000000000000000000000000000000000000000000000000000000000000000000000000000000000000000000001904201700000000            000000000000000                              000                           
0010001300215T 280180230000002544776 29647040664442195   7               18022017000000000006000001000000                         0900000000000000000000000000000000000000000000000000000   000000000000000000000005002        170192964704     
0010001300216U 280000000000000000000000000000000000000000000000000000000000000000000000000000000000000000000000000000000000000000000000001904201700000000            000000000000000                              000                           
0010001300217T 280180230000002544776 29647040664732408   7               18022017000000000006000001000000                         0900000000000000000000000000000000000000000000000000000   000000000000000000000005002        170192964704     
0010001300218U 280000000000000000000000000000000000000000000000000000000000000000000000000000000000000000000000000000000000000000000000001904201700000000            000000000000000                              000                           
0010001300219T 280180230000002544776 29647040672822480   7               18022017000000000006000001000000                         0900000000000000000000000000000000000000000000000000000   000000000000000000000005002        170192964704     
0010001300220U 280000000000000000000000000000000000000000000000000000000000000000000000000000000000000000000000000000000000000000000000001904201700000000            000000000000000                              000                           
0010001300221T 280180230000002544776 29647040673557479   7               18022017000000000006000001000000                         0900000000000000000000000000000000000000000000000000000   000000000000000000000005002        170192964704     
0010001300222U 280000000000000000000000000000000000000000000000000000000000000000000000000000000000000000000000000000000000000000000000001904201700000000            000000000000000                              000                           
0010001300223T 280180230000002544776 29647040691514099   7               18022017000000000006000001000000                         0900000000000000000000000000000000000000000000000000000   000000000000000000000005002        170192964704     
0010001300224U 280000000000000000000000000000000000000000000000000000000000000000000000000000000000000000000000000000000000000000000000001904201700000000            000000000000000                              000                           
0010001300225T 280180230000002544776 29647040694316758   7               18022017000000000006000001000000                         0900000000000000000000000000000000000000000000000000000   000000000000000000000005002        170192964704     
0010001300226U 280000000000000000000000000000000000000000000000000000000000000000000000000000000000000000000000000000000000000000000000001904201700000000            000000000000000                              000                           
0010001300227T 280180230000002544776 29647040694319873   7               18022017000000000006000001000000                         0900000000000000000000000000000000000000000000000000000   000000000000000000000005002        170192964704     
0010001300228U 280000000000000000000000000000000000000000000000000000000000000000000000000000000000000000000000000000000000000000000000001904201700000000            000000000000000                              000                           
0010001300229T 280180230000002544776 29647040696919504   7               18022017000000000006000001000000                         0900000000000000000000000000000000000000000000000000000   000000000000000000000005002        170192964704     
0010001300230U 280000000000000000000000000000000000000000000000000000000000000000000000000000000000000000000000000000000000000000000000001904201700000000            000000000000000                              000                           
0010001300231T 280180230000002544776 29647040697401737   7               18022017000000000006000001000000                         0900000000000000000000000000000000000000000000000000000   000000000000000000000005002        170192964704     
0010001300232U 280000000000000000000000000000000000000000000000000000000000000000000000000000000000000000000000000000000000000000000000001904201700000000            000000000000000                              000                           
0010001300233T 280180230000002544776 29647040697921228   7               18022017000000000006000001000000                         0900000000000000000000000000000000000000000000000000000   000000000000000000000005002        170192964704     
0010001300234U 280000000000000000000000000000000000000000000000000000000000000000000000000000000000000000000000000000000000000000000000001904201700000000            000000000000000                              000                           
0010001300235T 280180230000002544776 29647040697953045   7               18022017000000000006000001000000                         0900000000000000000000000000000000000000000000000000000   000000000000000000000005002        170192964704     
0010001300236U 280000000000000000000000000000000000000000000000000000000000000000000000000000000000000000000000000000000000000000000000001904201700000000            000000000000000                              000                           
0010001300237T 280180230000002544776 29647040698206861   7               18022017000000000008000001000000                         0900000000000000000000000000000000000000000000000000000   000000000000000000000005002        170192964704     
0010001300238U 280000000000000000000000000000000000000000000000000000000000000000000000000000000000000000000000000000000000000000000000001904201700000000            000000000000000                              000                           
0010001300239T 280180230000002544776 29647040698409937   7               18022017000000000006000001000000                         0900000000000000000000000000000000000000000000000000000   000000000000000000000005002        170192964704     
0010001300240U 280000000000000000000000000000000000000000000000000000000000000000000000000000000000000000000000000000000000000000000000001904201700000000            000000000000000                              000                           
0010001300241T 280180230000002544776 29647040698717586   7               18022017000000000008000001000000                         0900000000000000000000000000000000000000000000000000000   000000000000000000000005002        170192964704     
0010001300242U 280000000000000000000000000000000000000000000000000000000000000000000000000000000000000000000000000000000000000000000000001904201700000000            000000000000000                              000                           
0010001300243T 280180230000002544776 29647040698821891   7               18022017000000000006000001000000                         0900000000000000000000000000000000000000000000000000000   000000000000000000000005002        170192964704     
0010001300244U 280000000000000000000000000000000000000000000000000000000000000000000000000000000000000000000000000000000000000000000000001904201700000000            000000000000000                              000                           
0010001300245T 280180230000002544776 29647040699255149   7               18022017000000000006000001000000                         0900000000000000000000000000000000000000000000000000000   000000000000000000000005002        170192964704     
0010001300246U 280000000000000000000000000000000000000000000000000000000000000000000000000000000000000000000000000000000000000000000000001904201700000000            000000000000000                              000                           
0010001300247T 280180230000002544776 29647040699402125   7               18022017000000000006000001000000                         0900000000000000000000000000000000000000000000000000000   000000000000000000000005002        170192964704     
0010001300248U 280000000000000000000000000000000000000000000000000000000000000000000000000000000000000000000000000000000000000000000000001904201700000000            000000000000000                              000                           
0010001300249T 280180230000002544776 29647040699709088   7               18022017000000000006000001000000                         0900000000000000000000000000000000000000000000000000000   000000000000000000000005002        170192964704     
0010001300250U 280000000000000000000000000000000000000000000000000000000000000000000000000000000000000000000000000000000000000000000000001904201700000000            000000000000000                              000                           
0010001300251T 280180230000002544776 29647040700533819   7               18022017000000000006000001000000                         0900000000000000000000000000000000000000000000000000000   000000000000000000000005002        170192964704     
0010001300252U 280000000000000000000000000000000000000000000000000000000000000000000000000000000000000000000000000000000000000000000000001904201700000000            000000000000000                              000                           
0010001300253T 280180230000002544776 29647040700928674   7               18022017000000000006000001000000                         0900000000000000000000000000000000000000000000000000000   000000000000000000000005002        170192964704     
0010001300254U 280000000000000000000000000000000000000000000000000000000000000000000000000000000000000000000000000000000000000000000000001904201700000000            000000000000000                              000                           
0010001300255T 280180230000002544776 29647040700950273   7               18022017000000000006000001000000                         0900000000000000000000000000000000000000000000000000000   000000000000000000000005002        170192964704     
0010001300256U 280000000000000000000000000000000000000000000000000000000000000000000000000000000000000000000000000000000000000000000000001904201700000000            000000000000000                              000                           
0010001300257T 280180230000002544776 29647040700958946   7               18022017000000000006000001000000                         0900000000000000000000000000000000000000000000000000000   000000000000000000000005002        170192964704     
0010001300258U 280000000000000000000000000000000000000000000000000000000000000000000000000000000000000000000000000000000000000000000000001904201700000000            000000000000000                              000                           
0010001300259T 280180230000002544776 29647040701042573   7               18022017000000000006000001000000                         0900000000000000000000000000000000000000000000000000000   000000000000000000000005002        170192964704     
0010001300260U 280000000000000000000000000000000000000000000000000000000000000000000000000000000000000000000000000000000000000000000000001904201700000000            000000000000000                              000                           
0010001300261T 280180230000002544776 29647040701124404   7               18022017000000000006000001000000                         0900000000000000000000000000000000000000000000000000000   000000000000000000000005002        170192964704     
0010001300262U 280000000000000000000000000000000000000000000000000000000000000000000000000000000000000000000000000000000000000000000000001904201700000000            000000000000000                              000                           
0010001300263T 280180230000002544776 29647040701451990   7               18022017000000000006000001000000                         0900000000000000000000000000000000000000000000000000000   000000000000000000000005002        170192964704     
0010001300264U 280000000000000000000000000000000000000000000000000000000000000000000000000000000000000000000000000000000000000000000000001904201700000000            000000000000000                              000                           
0010001300265T 280180230000002544776 29647040701724744   7               18022017000000000008000001000000                         0900000000000000000000000000000000000000000000000000000   000000000000000000000005002        170192964704     
0010001300266U 280000000000000000000000000000000000000000000000000000000000000000000000000000000000000000000000000000000000000000000000001904201700000000            000000000000000                              000                           
0010001300267T 280180230000002544776 29647040701824940   7               18022017000000000008000001000000                         0900000000000000000000000000000000000000000000000000000   000000000000000000000005002        170192964704     
0010001300268U 280000000000000000000000000000000000000000000000000000000000000000000000000000000000000000000000000000000000000000000000001904201700000000            000000000000000                              000                           
0010001300269T 280180230000002544776 29647040702155380   7               18022017000000000006000001000000                         0900000000000000000000000000000000000000000000000000000   000000000000000000000005002        170192964704     
0010001300270U 280000000000000000000000000000000000000000000000000000000000000000000000000000000000000000000000000000000000000000000000001904201700000000            000000000000000                              000                           
0010001300271T 280180230000002544776 29647040702316907   7               18022017000000000008000001000000                         0900000000000000000000000000000000000000000000000000000   000000000000000000000005002        170192964704     
0010001300272U 280000000000000000000000000000000000000000000000000000000000000000000000000000000000000000000000000000000000000000000000001904201700000000            000000000000000                              000                           
0010001300273T 280180230000002544776 29647040702411677   7               18022017000000000006000001000000                         0900000000000000000000000000000000000000000000000000000   000000000000000000000005002        170192964704     
0010001300274U 280000000000000000000000000000000000000000000000000000000000000000000000000000000000000000000000000000000000000000000000001904201700000000            000000000000000                              000                           
0010001300275T 280180230000002544776 29647040702730721   7               18022017000000000006000001000000                         0900000000000000000000000000000000000000000000000000000   000000000000000000000005002        170192964704     
0010001300276U 280000000000000000000000000000000000000000000000000000000000000000000000000000000000000000000000000000000000000000000000001904201700000000            000000000000000                              000                           
0010001300277T 280180230000002544776 29647040702850949   7               18022017000000000006000001000000                         0900000000000000000000000000000000000000000000000000000   000000000000000000000005002        170192964704     
0010001300278U 280000000000000000000000000000000000000000000000000000000000000000000000000000000000000000000000000000000000000000000000001904201700000000            000000000000000                              000                           
0010001300279T 280180230000002544776 29647040703023900   7               18022017000000000006000001000000                         0900000000000000000000000000000000000000000000000000000   000000000000000000000005002        170192964704     
0010001300280U 280000000000000000000000000000000000000000000000000000000000000000000000000000000000000000000000000000000000000000000000001904201700000000            000000000000000                              000                           
0010001300281T 280180230000002544776 29647040703200798   7               18022017000000000006000001000000                         0900000000000000000000000000000000000000000000000000000   000000000000000000000005002        170192964704     
0010001300282U 280000000000000000000000000000000000000000000000000000000000000000000000000000000000000000000000000000000000000000000000001904201700000000            000000000000000                              000                           
0010001300283T 280180230000002544776 29647040703315742   7               18022017000000000008000001000000                         0900000000000000000000000000000000000000000000000000000   000000000000000000000005002        170192964704     
0010001300284U 280000000000000000000000000000000000000000000000000000000000000000000000000000000000000000000000000000000000000000000000001904201700000000            000000000000000                              000                           
0010001300285T 280180230000002544776 29647040703521451   7               18022017000000000006000001000000                         0900000000000000000000000000000000000000000000000000000   000000000000000000000005002        170192964704     
0010001300286U 280000000000000000000000000000000000000000000000000000000000000000000000000000000000000000000000000000000000000000000000001904201700000000            000000000000000                              000                           
0010001300287T 280180230000002544776 29647040703748159   7               18022017000000000006000001000000                         0900000000000000000000000000000000000000000000000000000   000000000000000000000005002        170192964704     
0010001300288U 280000000000000000000000000000000000000000000000000000000000000000000000000000000000000000000000000000000000000000000000001904201700000000            000000000000000                              000                           
0010001300289T 280180230000002544776 29647040703846084   7               18022017000000000006000001000000                         0900000000000000000000000000000000000000000000000000000   000000000000000000000005002        170192964704     
0010001300290U 280000000000000000000000000000000000000000000000000000000000000000000000000000000000000000000000000000000000000000000000001904201700000000            000000000000000                              000                           
0010001300291T 280180230000002544776 29647040703942985   7               18022017000000000006000001000000                         0900000000000000000000000000000000000000000000000000000   000000000000000000000005002        170192964704     
0010001300292U 280000000000000000000000000000000000000000000000000000000000000000000000000000000000000000000000000000000000000000000000001904201700000000            000000000000000                              000                           
0010001300293T 280180230000002544776 29647040704122317   7               18022017000000000006000001000000                         0900000000000000000000000000000000000000000000000000000   000000000000000000000005002        170192964704     
0010001300294U 280000000000000000000000000000000000000000000000000000000000000000000000000000000000000000000000000000000000000000000000001904201700000000            000000000000000                              000                           
0010001300295T 280180230000002544776 29647040704203544   7               18022017000000000006000001000000                         0900000000000000000000000000000000000000000000000000000   000000000000000000000005002        170192964704     
0010001300296U 280000000000000000000000000000000000000000000000000000000000000000000000000000000000000000000000000000000000000000000000001904201700000000            000000000000000                              000                           
0010001300297T 280180230000002544776 29647040704322216   7               18022017000000000006000001000000                         0900000000000000000000000000000000000000000000000000000   000000000000000000000005002        170192964704     
0010001300298U 280000000000000000000000000000000000000000000000000000000000000000000000000000000000000000000000000000000000000000000000001904201700000000            000000000000000                              000                           
0010001300299T 280180230000002544776 29647040704428805   7               18022017000000000006000001000000                         0900000000000000000000000000000000000000000000000000000   000000000000000000000005002        170192964704     
0010001300300U 280000000000000000000000000000000000000000000000000000000000000000000000000000000000000000000000000000000000000000000000001904201700000000            000000000000000                              000                           
0010001300301T 280180230000002544776 29647040704614105   7               18022017000000000008000001000000                         0900000000000000000000000000000000000000000000000000000   000000000000000000000005002        170192964704     
0010001300302U 280000000000000000000000000000000000000000000000000000000000000000000000000000000000000000000000000000000000000000000000001904201700000000            000000000000000                              000                           
0010001300303T 280180230000002544776 29647040704745647   7               18022017000000000006000001000000                         0900000000000000000000000000000000000000000000000000000   000000000000000000000005002        170192964704     
0010001300304U 280000000000000000000000000000000000000000000000000000000000000000000000000000000000000000000000000000000000000000000000001904201700000000            000000000000000                              000                           
0010001300305T 280180230000002544776 29647040705031989   7               18022017000000000008000001000000                         0900000000000000000000000000000000000000000000000000000   000000000000000000000005002        170192964704     
0010001300306U 280000000000000000000000000000000000000000000000000000000000000000000000000000000000000000000000000000000000000000000000001904201700000000            000000000000000                              000                           
0010001300307T 280180230000002544776 29647040705103700   7               18022017000000000006000001000000                         0900000000000000000000000000000000000000000000000000000   000000000000000000000005002        170192964704     
0010001300308U 280000000000000000000000000000000000000000000000000000000000000000000000000000000000000000000000000000000000000000000000001904201700000000            000000000000000                              000                           
0010001300309T 280180230000002544776 29647040705213654   7               18022017000000000006000001000000                         0900000000000000000000000000000000000000000000000000000   000000000000000000000005002        170192964704     
0010001300310U 280000000000000000000000000000000000000000000000000000000000000000000000000000000000000000000000000000000000000000000000001904201700000000            000000000000000                              000                           
0010001300311T 280180230000002544776 29647040705509917   7               18022017000000000006000001000000                         0900000000000000000000000000000000000000000000000000000   000000000000000000000005002        170192964704     
0010001300312U 280000000000000000000000000000000000000000000000000000000000000000000000000000000000000000000000000000000000000000000000001904201700000000            000000000000000                              000                           
0010001300313T 280180230000002544776 29647040705835884   7               18022017000000000008000001000000                         0900000000000000000000000000000000000000000000000000000   000000000000000000000005002        170192964704     
0010001300314U 280000000000000000000000000000000000000000000000000000000000000000000000000000000000000000000000000000000000000000000000001904201700000000            000000000000000                              000                           
0010001300315T 280180230000002544776 29647040707011951   7               18022017000000000006000001000000                         0900000000000000000000000000000000000000000000000000000   000000000000000000000005002        170192964704     
0010001300316U 280000000000000000000000000000000000000000000000000000000000000000000000000000000000000000000000000000000000000000000000001904201700000000            000000000000000                              000                           
0010001300317T 280180230000002544776 29647040707102704   7               18022017000000000006000001000000                         0900000000000000000000000000000000000000000000000000000   000000000000000000000005002        170192964704     
0010001300318U 280000000000000000000000000000000000000000000000000000000000000000000000000000000000000000000000000000000000000000000000001904201700000000            000000000000000                              000                           
0010001300319T 280180230000002544776 29647040707125290   7               18022017000000000006000001000000                         0900000000000000000000000000000000000000000000000000000   000000000000000000000005002        170192964704     
0010001300320U 280000000000000000000000000000000000000000000000000000000000000000000000000000000000000000000000000000000000000000000000001904201700000000            000000000000000                              000                           
0010001300321T 280180230000002544776 29647040707136342   7               18022017000000000006000001000000                         0900000000000000000000000000000000000000000000000000000   000000000000000000000005002        170192964704     
0010001300322U 280000000000000000000000000000000000000000000000000000000000000000000000000000000000000000000000000000000000000000000000001904201700000000            000000000000000                              000                           
0010001300323T 280180230000002544776 29647040707148505   7               18022017000000000006000001000000                         0900000000000000000000000000000000000000000000000000000   000000000000000000000005002        170192964704     
0010001300324U 280000000000000000000000000000000000000000000000000000000000000000000000000000000000000000000000000000000000000000000000001904201700000000            000000000000000                              000                           
0010001300325T 280180230000002544776 29647040707206319   7               18022017000000000006000001000000                         0900000000000000000000000000000000000000000000000000000   000000000000000000000005002        170192964704     
0010001300326U 280000000000000000000000000000000000000000000000000000000000000000000000000000000000000000000000000000000000000000000000001904201700000000            000000000000000                              000                           
0010001300327T 280180230000002544776 29647040707519526   7               18022017000000000006000001000000                         0900000000000000000000000000000000000000000000000000000   000000000000000000000005002        170192964704     
0010001300328U 280000000000000000000000000000000000000000000000000000000000000000000000000000000000000000000000000000000000000000000000001904201700000000            000000000000000                              000                           
0010001300329T 280180230000002544776 29647040707852796   7               18022017000000000008000001000000                         0900000000000000000000000000000000000000000000000000000   000000000000000000000005002        170192964704     
0010001300330U 280000000000000000000000000000000000000000000000000000000000000000000000000000000000000000000000000000000000000000000000001904201700000000            000000000000000                              000                           
0010001300331T 280180230000002544776 29647040707940994   7               18022017000000000006000001000000                         0900000000000000000000000000000000000000000000000000000   000000000000000000000005002        170192964704     
0010001300332U 280000000000000000000000000000000000000000000000000000000000000000000000000000000000000000000000000000000000000000000000001904201700000000            000000000000000                              000                           
0010001300333T 280180230000002544776 29647040708049554   7               18022017000000000006000001000000                         0900000000000000000000000000000000000000000000000000000   000000000000000000000005002        170192964704     
0010001300334U 280000000000000000000000000000000000000000000000000000000000000000000000000000000000000000000000000000000000000000000000001904201700000000            000000000000000                              000                           
0010001300335T 280180230000002544776 29647040708146729   7               18022017000000000008000001000000                         0900000000000000000000000000000000000000000000000000000   000000000000000000000005002        170192964704     
0010001300336U 280000000000000000000000000000000000000000000000000000000000000000000000000000000000000000000000000000000000000000000000001904201700000000            000000000000000                              000                           
0010001300337T 280180230000002544776 29647040708340276   7               18022017000000000006000001000000                         0900000000000000000000000000000000000000000000000000000   000000000000000000000005002        170192964704     
0010001300338U 280000000000000000000000000000000000000000000000000000000000000000000000000000000000000000000000000000000000000000000000001904201700000000            000000000000000                              000                           
0010001300339T 280180230000002544776 29647040708502181   7               18022017000000000008000001000000                         0900000000000000000000000000000000000000000000000000000   000000000000000000000005002        170192964704     
0010001300340U 280000000000000000000000000000000000000000000000000000000000000000000000000000000000000000000000000000000000000000000000001904201700000000            000000000000000                              000                           
0010001300341T 280180230000002544776 29647040709011900   7               18022017000000000008000001000000                         0900000000000000000000000000000000000000000000000000000   000000000000000000000005002        170192964704     
0010001300342U 280000000000000000000000000000000000000000000000000000000000000000000000000000000000000000000000000000000000000000000000001904201700000000            000000000000000                              000                           
0010001300343T 280180230000002544776 29647040709311365   7               18022017000000000008000001000000                         0900000000000000000000000000000000000000000000000000000   000000000000000000000005002        170192964704     
0010001300344U 280000000000000000000000000000000000000000000000000000000000000000000000000000000000000000000000000000000000000000000000001904201700000000            000000000000000                              000                           
0010001300345T 280180230000002544776 29647040709547108   7               18022017000000000006000001000000                         0900000000000000000000000000000000000000000000000000000   000000000000000000000005002        170192964704     
0010001300346U 280000000000000000000000000000000000000000000000000000000000000000000000000000000000000000000000000000000000000000000000001904201700000000            000000000000000                              000                           
0010001300347T 280180230000002544776 29647040709723212   7               18022017000000000006000001000000                         0900000000000000000000000000000000000000000000000000000   000000000000000000000005002        170192964704     
0010001300348U 280000000000000000000000000000000000000000000000000000000000000000000000000000000000000000000000000000000000000000000000001904201700000000            000000000000000                              000                           
0010001300349T 280180230000002544776 29647040709959201   7               18022017000000000006000001000000                         0900000000000000000000000000000000000000000000000000000   000000000000000000000005002        170192964704     
0010001300350U 280000000000000000000000000000000000000000000000000000000000000000000000000000000000000000000000000000000000000000000000001904201700000000            000000000000000                              000                           
0010001300351T 280180230000002544776 29647040710059520   7               18022017000000000006000001000000                         0900000000000000000000000000000000000000000000000000000   000000000000000000000005002        170192964704     
0010001300352U 280000000000000000000000000000000000000000000000000000000000000000000000000000000000000000000000000000000000000000000000001904201700000000            000000000000000                              000                           
0010001300353T 280180230000002544776 29647040710141510   7               18022017000000000006000001000000                         0900000000000000000000000000000000000000000000000000000   000000000000000000000005002        170192964704     
0010001300354U 280000000000000000000000000000000000000000000000000000000000000000000000000000000000000000000000000000000000000000000000001904201700000000            000000000000000                              000                           
0010001300355T 280180230000002544776 29647040711225588   7               18022017000000000008000001000000                         0900000000000000000000000000000000000000000000000000000   000000000000000000000005002        170192964704     
0010001300356U 280000000000000000000000000000000000000000000000000000000000000000000000000000000000000000000000000000000000000000000000001904201700000000            000000000000000                              000                           
0010001300357T 280180230000002544776 29647040711236945   7               18022017000000000008000001000000                         0900000000000000000000000000000000000000000000000000000   000000000000000000000005002        170192964704     
0010001300358U 280000000000000000000000000000000000000000000000000000000000000000000000000000000000000000000000000000000000000000000000001904201700000000            000000000000000                              000                           
0010001300359T 280180230000002544776 29647040711403416   7               18022017000000000006000001000000                         0900000000000000000000000000000000000000000000000000000   000000000000000000000005002        170192964704     
0010001300360U 280000000000000000000000000000000000000000000000000000000000000000000000000000000000000000000000000000000000000000000000001904201700000000            000000000000000                              000                           
0010001300361T 280180230000002544776 29647040711418275   7               18022017000000000006000001000000                         0900000000000000000000000000000000000000000000000000000   000000000000000000000005002        170192964704     
0010001300362U 280000000000000000000000000000000000000000000000000000000000000000000000000000000000000000000000000000000000000000000000001904201700000000            000000000000000                              000                           
0010001300363T 280180230000002544776 29647040711436014   7               18022017000000000006000001000000                         0900000000000000000000000000000000000000000000000000000   000000000000000000000005002        170192964704     
0010001300364U 280000000000000000000000000000000000000000000000000000000000000000000000000000000000000000000000000000000000000000000000001904201700000000            000000000000000                              000                           
0010001300365T 280180230000002544776 29647040711541166   7               18022017000000000006000001000000                         0900000000000000000000000000000000000000000000000000000   000000000000000000000005002        170192964704     
0010001300366U 280000000000000000000000000000000000000000000000000000000000000000000000000000000000000000000000000000000000000000000000001904201700000000            000000000000000                              000                           
0010001300367T 280180230000002544776 29647040711608416   7               18022017000000000006000001000000                         0900000000000000000000000000000000000000000000000000000   000000000000000000000005002        170192964704     
0010001300368U 280000000000000000000000000000000000000000000000000000000000000000000000000000000000000000000000000000000000000000000000001904201700000000            000000000000000                              000                           
0010001300369T 280180230000002544776 29647040711735274   7               18022017000000000006000001000000                         0900000000000000000000000000000000000000000000000000000   000000000000000000000005002        170192964704     
0010001300370U 280000000000000000000000000000000000000000000000000000000000000000000000000000000000000000000000000000000000000000000000001904201700000000            000000000000000                              000                           
0010001300371T 280180230000002544776 29647040711751023   7               18022017000000000006000001000000                         0900000000000000000000000000000000000000000000000000000   000000000000000000000005002        170192964704     
0010001300372U 280000000000000000000000000000000000000000000000000000000000000000000000000000000000000000000000000000000000000000000000001904201700000000            000000000000000                              000                           
0010001300373T 280180230000002544776 29647040711756834   7               18022017000000000006000001000000                         0900000000000000000000000000000000000000000000000000000   000000000000000000000005002        170192964704     
0010001300374U 280000000000000000000000000000000000000000000000000000000000000000000000000000000000000000000000000000000000000000000000001904201700000000            000000000000000                              000                           
0010001300375T 280180230000002544776 29647040711757785   7               18022017000000000006000001000000                         0900000000000000000000000000000000000000000000000000000   000000000000000000000005002        170192964704     
0010001300376U 280000000000000000000000000000000000000000000000000000000000000000000000000000000000000000000000000000000000000000000000001904201700000000            000000000000000                              000                           
0010001300377T 280180230000002544776 29647040712053910   7               18022017000000000006000001000000                         0900000000000000000000000000000000000000000000000000000   000000000000000000000005002        170192964704     
0010001300378U 280000000000000000000000000000000000000000000000000000000000000000000000000000000000000000000000000000000000000000000000001904201700000000            000000000000000                              000                           
0010001300379T 280180230000002544776 29647040712130035   7               18022017000000000006000001000000                         0900000000000000000000000000000000000000000000000000000   000000000000000000000005002        170192964704     
0010001300380U 280000000000000000000000000000000000000000000000000000000000000000000000000000000000000000000000000000000000000000000000001904201700000000            000000000000000                              000                           
0010001300381T 280180230000002544776 29647040712411040   7               18022017000000000006000001000000                         0900000000000000000000000000000000000000000000000000000   000000000000000000000005002        170192964704     
0010001300382U 280000000000000000000000000000000000000000000000000000000000000000000000000000000000000000000000000000000000000000000000001904201700000000            000000000000000                              000                           
0010001300383T 280180230000002544776 29647040712913935   7               18022017000000000006000001000000                         0900000000000000000000000000000000000000000000000000000   000000000000000000000005002        170192964704     
0010001300384U 280000000000000000000000000000000000000000000000000000000000000000000000000000000000000000000000000000000000000000000000001904201700000000            000000000000000                              000                           
0010001300385T 280180230000002544776 29647040712952537   7               18022017000000000006000001000000                         0900000000000000000000000000000000000000000000000000000   000000000000000000000005002        170192964704     
0010001300386U 280000000000000000000000000000000000000000000000000000000000000000000000000000000000000000000000000000000000000000000000001904201700000000            000000000000000                              000                           
0010001300387T 280180230000002544776 29647040713210942   7               18022017000000000006000001000000                         0900000000000000000000000000000000000000000000000000000   000000000000000000000005002        170192964704     
0010001300388U 280000000000000000000000000000000000000000000000000000000000000000000000000000000000000000000000000000000000000000000000001904201700000000            000000000000000                              000                           
0010001300389T 280180230000002544776 29647040713306523   7               18022017000000000008000001000000                         0900000000000000000000000000000000000000000000000000000   000000000000000000000005002        170192964704     
0010001300390U 280000000000000000000000000000000000000000000000000000000000000000000000000000000000000000000000000000000000000000000000001904201700000000            000000000000000                              000                           
0010001300391T 280180230000002544776 29647040713505680   7               18022017000000000006000001000000                         0900000000000000000000000000000000000000000000000000000   000000000000000000000005002        170192964704     
0010001300392U 280000000000000000000000000000000000000000000000000000000000000000000000000000000000000000000000000000000000000000000000001904201700000000            000000000000000                              000                           
0010001300393T 280180230000002544776 29647040713600852   7               18022017000000000006000001000000                         0900000000000000000000000000000000000000000000000000000   000000000000000000000005002        170192964704     
0010001300394U 280000000000000000000000000000000000000000000000000000000000000000000000000000000000000000000000000000000000000000000000001904201700000000            000000000000000                              000                           
0010001300395T 280180230000002544776 29647040713705298   7               18022017000000000006000001000000                         0900000000000000000000000000000000000000000000000000000   000000000000000000000005002        170192964704     
0010001300396U 280000000000000000000000000000000000000000000000000000000000000000000000000000000000000000000000000000000000000000000000001904201700000000            000000000000000                              000                           
0010001300397T 280180230000002544776 29647040713811044   7               18022017000000000006000001000000                         0900000000000000000000000000000000000000000000000000000   000000000000000000000005002        170192964704     
0010001300398U 280000000000000000000000000000000000000000000000000000000000000000000000000000000000000000000000000000000000000000000000001904201700000000            000000000000000                              000                           
0010001300399T 280180230000002544776 29647040713906906   7               18022017000000000006000001000000                         0900000000000000000000000000000000000000000000000000000   000000000000000000000005002        170192964704     
0010001300400U 280000000000000000000000000000000000000000000000000000000000000000000000000000000000000000000000000000000000000000000000001904201700000000            000000000000000                              000                           
0010001300401T 280180230000002544776 29647040713936953   7               18022017000000000006000001000000                         0900000000000000000000000000000000000000000000000000000   000000000000000000000005002        170192964704     
0010001300402U 280000000000000000000000000000000000000000000000000000000000000000000000000000000000000000000000000000000000000000000000001904201700000000            000000000000000                              000                           
0010001300403T 280180230000002544776 29647040714009921   7               18022017000000000006000001000000                         0900000000000000000000000000000000000000000000000000000   000000000000000000000005002        170192964704     
0010001300404U 280000000000000000000000000000000000000000000000000000000000000000000000000000000000000000000000000000000000000000000000001904201700000000            000000000000000                              000                           
0010001300405T 280180230000002544776 29647040714021253   7               18022017000000000006000001000000                         0900000000000000000000000000000000000000000000000000000   000000000000000000000005002        170192964704     
0010001300406U 280000000000000000000000000000000000000000000000000000000000000000000000000000000000000000000000000000000000000000000000001904201700000000            000000000000000                              000                           
0010001300407T 280180230000002544776 29647040714030747   7               18022017000000000006000001000000                         0900000000000000000000000000000000000000000000000000000   000000000000000000000005002        170192964704     
0010001300408U 280000000000000000000000000000000000000000000000000000000000000000000000000000000000000000000000000000000000000000000000001904201700000000            000000000000000                              000                           
0010001300409T 280180230000002544776 29647040714119773   7               18022017000000000008000001000000                         0900000000000000000000000000000000000000000000000000000   000000000000000000000005002        170192964704     
0010001300410U 280000000000000000000000000000000000000000000000000000000000000000000000000000000000000000000000000000000000000000000000001904201700000000            000000000000000                              000                           
0010001300411T 280180230000002544776 29647040714124930   7               18022017000000000008000001000000                         0900000000000000000000000000000000000000000000000000000   000000000000000000000005002        170192964704     
0010001300412U 280000000000000000000000000000000000000000000000000000000000000000000000000000000000000000000000000000000000000000000000001904201700000000            000000000000000                              000                           
