00100000         2247745860001000029647040014       0180230000002544776 INSTITUTO DE SELECAO E TECNOLOBANCO DO BRASIL                         22004201702591200011203000000515122941PROCESSAMEN                                                 
00100011T0100020 20247745860001000029647040014       0180230000002544776 INSTITUTO DE SELECAO E TECNOLO                                                                                000000002004201700000000  000000000                      
0010001300001T 020180230000002544776 29647040696812661   7               22042017000000000006000001016489                         0900000000000010000000000000000000000000000000000000000   0000000000000000000000000A9        170192964704     
0010001300002U 020000000000000000000000000000000000000000000000000000000000000000000000000000000000000000000000000000000000000000000000002004201700000000            000000000000000                              000                           
0010001300003T 020180230000002544776 29647040835523080   7               22042017000000000006000001028029                         0900000000000010500000000000000000000000000000000000000   0000000000000000000000000A9A4      170192964704     
0010001300004U 020000000000000000000000000000000000000000000000000000000000000000000000000000000000000000000000000000000000000000000000002004201700000000            000000000000000                              000                           
0010001300005T 020180230000002544776 29647040951739034   7               22042017000000000006000001018376                         0900000000000010000000000000000000000000000000000000000   0000000000000000000000000A9        170192964704     
0010001300006U 020000000000000000000000000000000000000000000000000000000000000000000000000000000000000000000000000000000000000000000000002004201700000000            000000000000000                              000                           
0010001300007T 020180230000002544776 29647040957519807   7               22042017000000000006000001018376                         0900000000000010000000000000000000000000000000000000000   0000000000000000000000000A9        170192964704     
0010001300008U 020000000000000000000000000000000000000000000000000000000000000000000000000000000000000000000000000000000000000000000000002004201700000000            000000000000000                              000                           
0010001300009T 020180230000002544776 29647040967339477   7               22042017000000000006000001008214                         0900000000000010000000000000000000000000000000000000000   0000000000000000000000000A9        170192964704     
0010001300010U 020000000000000000000000000000000000000000000000000000000000000000000000000000000000000000000000000000000000000000000000002004201700000000            000000000000000                              000                           
0010001300011T 020180230000002544776 29647041234130587   7               22042017000000000006000001033316                         0900000000000010000000000000000000000000000000000000000   0000000000000000000000000A9        170192964704     
0010001300012U 020000000000000000000000000000000000000000000000000000000000000000000000000000000000000000000000000000000000000000000000002004201700000000            000000000000000                              000                           
0010001300013T 020180230000002544776 29647041265220842   7               22042017000000000008000001014028                         0900000000000010000000000000000000000000000000000000000   0000000000000000000000000A9        170192964704     
0010001300014U 020000000000000000000000000000000000000000000000000000000000000000000000000000000000000000000000000000000000000000000000002004201700000000            000000000000000                              000                           
0010001300015T 020180230000002544776 29647041265254661   7               22042017000000000008000001014028                         0900000000000010000000000000000000000000000000000000000   0000000000000000000000000A9        170192964704     
0010001300016U 020000000000000000000000000000000000000000000000000000000000000000000000000000000000000000000000000000000000000000000000002004201700000000            000000000000000                              000                           
0010001300017T 020180230000002544776 29647041360956665   7               22042017000000000006000001028029                         0900000000000010000000000000000000000000000000000000000   0000000000000000000000000A9        170192964704     
0010001300018U 020000000000000000000000000000000000000000000000000000000000000000000000000000000000000000000000000000000000000000000000002004201700000000            000000000000000                              000                           
0010001300019T 020180230000002544776 29647041436857172   7               22042017000000000006000001006254                         0900000000000010000000000000000000000000000000000000000   0000000000000000000000000A9        170192964704     
0010001300020U 020000000000000000000000000000000000000000000000000000000000000000000000000000000000000000000000000000000000000000000000002004201700000000            000000000000000                              000                           
0010001300021T 020180230000002544776 29647041453845854   7               22042017000000000006000001016179                         0900000000000010000000000000000000000000000000000000000   0000000000000000000000000A9        170192964704     
0010001300022U 020000000000000000000000000000000000000000000000000000000000000000000000000000000000000000000000000000000000000000000000002004201700000000            000000000000000                              000                           
0010001300023T 020180230000002544776 29647041464034756   7               22042017000000000006000001000132                         0900000000000010000000000000000000000000000000000000000   0000000000000000000000000A9        170192964704     
0010001300024U 020000000000000000000000000000000000000000000000000000000000000000000000000000000000000000000000000000000000000000000000002004201700000000            000000000000000                              000                           
0010001300025T 020180230000002544776 29647041495719480   7               22042017000000000006000001008672                         0900000000000010000000000000000000000000000000000000000   0000000000000000000000000A9        170192964704     
0010001300026U 020000000000000000000000000000000000000000000000000000000000000000000000000000000000000000000000000000000000000000000000002004201700000000            000000000000000                              000                           
0010001300027T 020180230000002544776 29647041503344419   7               22042017000000000006000001000132                         0900000000000010500000000000000000000000000000000000000   0000000000000000000000000A9A4      170192964704     
0010001300028U 020000000000000000000000000000000000000000000000000000000000000000000000000000000000000000000000000000000000000000000000002004201700000000            000000000000000                              000                           
0010001300029T 020180230000002544776 29647041518551723   7               2204201700000000000600000102256X                         0900000000000010000000000000000000000000000000000000000   0000000000000000000000000A9        170192964704     
0010001300030U 020000000000000000000000000000000000000000000000000000000000000000000000000000000000000000000000000000000000000000000000002004201700000000            000000000000000                              000                           
0010001300031T 020180230000002544776 29647041520029569   7               22042017000000000006000001009636                         0900000000000010000000000000000000000000000000000000000   0000000000000000000000000A9        170192964704     
0010001300032U 020000000000000000000000000000000000000000000000000000000000000000000000000000000000000000000000000000000000000000000000002004201700000000            000000000000000                              000                           
0010001300033T 020180230000002544776 29647041549527285   7               22042017000000000006000001016179                         0900000000000010000000000000000000000000000000000000000   0000000000000000000000000A9        170192964704     
0010001300034U 020000000000000000000000000000000000000000000000000000000000000000000000000000000000000000000000000000000000000000000000002004201700000000            000000000000000                              000                           
0010001300035T 020180230000002544776 29647041552308237   7               22042017000000000006000001012467                         0900000000000010000000000000000000000000000000000000000   0000000000000000000000000A9        170192964704     
0010001300036U 020000000000000000000000000000000000000000000000000000000000000000000000000000000000000000000000000000000000000000000000002004201700000000            000000000000000                              000                           
0010001300037T 020180230000002544776 29647041599035818   7               2204201700000000000600000101981X                         0900000000000010000000000000000000000000000000000000000   0000000000000000000000000A9        170192964704     
0010001300038U 020000000000000000000000000000000000000000000000000000000000000000000000000000000000000000000000000000000000000000000000002004201700000000            000000000000000                              000                           
0010001300039T 020180230000002544776 29647041631127182   7               22042017000000000006000001000132                         0900000000000010000000000000000000000000000000000000000   0000000000000000000000000A9        170192964704     
0010001300040U 020000000000000000000000000000000000000000000000000000000000000000000000000000000000000000000000000000000000000000000000002004201700000000            000000000000000                              000                           
0010001300041T 020180230000002544776 29647041631140689   7               22042017000000000006000001000132                         0900000000000010000000000000000000000000000000000000000   0000000000000000000000000A9        170192964704     
0010001300042U 020000000000000000000000000000000000000000000000000000000000000000000000000000000000000000000000000000000000000000000000002004201700000000            000000000000000                              000                           
0010001300043T 020180230000002544776 29647041631142540   7               21042017000000000006000001000132                         0900000000000010000000000000000000000000000000000000000   0000000000000000000000000A9        170192964704     
0010001300044U 020000000000000000000000000000000000000000000000000000000000000000000000000000000000000000000000000000000000000000000000001904201700000000            000000000000000                              000                           
0010001300045T 020180230000002544776 29647041632827046   7               22042017000000000006000001018376                         0900000000000010000000000000000000000000000000000000000   0000000000000000000000000A9        170192964704     
0010001300046U 020000000000000000000000000000000000000000000000000000000000000000000000000000000000000000000000000000000000000000000000002004201700000000            000000000000000                              000                           
0010001300047T 020180230000002544776 29647041636736673   7               22042017000000000006000001033316                         0900000000000010000000000000000000000000000000000000000   0000000000000000000000000A9        170192964704     
0010001300048U 020000000000000000000000000000000000000000000000000000000000000000000000000000000000000000000000000000000000000000000000002004201700000000            000000000000000                              000                           
0010001300049T 020180230000002544776 29647041690344833   7               22042017000000000006000001028495                         0900000000000010000000000000000000000000000000000000000   0000000000000000000000000A9        170192964704     
0010001300050U 020000000000000000000000000000000000000000000000000000000000000000000000000000000000000000000000000000000000000000000000002004201700000000            000000000000000                              000                           
0010001300051T 020180230000002544776 29647041715540442   7               22042017000000000008000001009814                         0900000000000010000000000000000000000000000000000000000   0000000000000000000000000A9        170192964704     
0010001300052U 020000000000000000000000000000000000000000000000000000000000000000000000000000000000000000000000000000000000000000000000002004201700000000            000000000000000                              000                           
0010001300053T 020180230000002544776 29647041725529195   7               22042017000000000006000001016179                         0900000000000010000000000000000000000000000000000000000   0000000000000000000000000A9        170192964704     
0010001300054U 020000000000000000000000000000000000000000000000000000000000000000000000000000000000000000000000000000000000000000000000002004201700000000            000000000000000                              000                           
0010001300055T 020180230000002544776 29647041742510313   7               22042017000000000008000001028029                         0900000000000010000000000000000000000000000000000000000   0000000000000000000000000A9        170192964704     
0010001300056U 020000000000000000000000000000000000000000000000000000000000000000000000000000000000000000000000000000000000000000000000002004201700000000            000000000000000                              000                           
0010001300057T 020180230000002544776 29647041743820388   7               22042017000000000006000001028029                         0900000000000010000000000000000000000000000000000000000   0000000000000000000000000A9        170192964704     
0010001300058U 020000000000000000000000000000000000000000000000000000000000000000000000000000000000000000000000000000000000000000000000002004201700000000            000000000000000                              000                           
0010001300059T 020180230000002544776 29647041746950061   7               2204201700000000000600000100099X                         0900000000000010000000000000000000000000000000000000000   0000000000000000000000000A9        170192964704     
0010001300060U 020000000000000000000000000000000000000000000000000000000000000000000000000000000000000000000000000000000000000000000000002004201700000000            000000000000000                              000                           
0010001300061T 020180230000002544776 29647041748128101   7               22042017000000000006000001000132                         0900000000000010000000000000000000000000000000000000000   0000000000000000000000000A9        170192964704     
0010001300062U 020000000000000000000000000000000000000000000000000000000000000000000000000000000000000000000000000000000000000000000000002004201700000000            000000000000000                              000                           
0010001300063T 020180230000002544776 29647041748623279   7               21042017000000000008000001034770                         0900000000000010000000000000000000000000000000000000000   0000000000000000000000000A9        170192964704     
0010001300064U 020000000000000000000000000000000000000000000000000000000000000000000000000000000000000000000000000000000000000000000000001904201700000000            000000000000000                              000                           
0010001300065T 020180230000002544776 29647041748711283   7               21042017000000000006000001006254                         0900000000000010000000000000000000000000000000000000000   0000000000000000000000000A9        170192964704     
0010001300066U 020000000000000000000000000000000000000000000000000000000000000000000000000000000000000000000000000000000000000000000000001904201700000000            000000000000000                              000                           
0010001300067T 020180230000002544776 29647041748802579   7               22042017000000000008000001000620                         0900000000000010000000000000000000000000000000000000000   0000000000000000000000000A9        170192964704     
0010001300068U 020000000000000000000000000000000000000000000000000000000000000000000000000000000000000000000000000000000000000000000000002004201700000000            000000000000000                              000                           
0010001300069T 020180230000002544776 29647041748907932   7               22042017000000000006000001005428                         0900000000000010000000000000000000000000000000000000000   0000000000000000000000000A9        170192964704     
0010001300070U 020000000000000000000000000000000000000000000000000000000000000000000000000000000000000000000000000000000000000000000000002004201700000000            000000000000000                              000                           
0010001300071T 020180230000002544776 29647041748945444   7               22042017000000000006000001005428                         0900000000000010000000000000000000000000000000000000000   0000000000000000000000000A9        170192964704     
0010001300072U 020000000000000000000000000000000000000000000000000000000000000000000000000000000000000000000000000000000000000000000000002004201700000000            000000000000000                              000                           
0010001300073T 020180230000002544776 29647041749101950   7               22042017000000000008000001020354                         0900000000000010000000000000000000000000000000000000000   0000000000000000000000000A9        170192964704     
0010001300074U 020000000000000000000000000000000000000000000000000000000000000000000000000000000000000000000000000000000000000000000000002004201700000000            000000000000000                              000                           
0010001300075T 020180230000002544776 29647041749259909   7               22042017000000000006000001008672                         0900000000000010000000000000000000000000000000000000000   0000000000000000000000000A9        170192964704     
0010001300076U 020000000000000000000000000000000000000000000000000000000000000000000000000000000000000000000000000000000000000000000000002004201700000000            000000000000000                              000                           
0010001300077T 020180230000002544776 29647041749307439   7               22042017000000000008000001012467                         0900000000000010000000000000000000000000000000000000000   0000000000000000000000000A9        170192964704     
0010001300078U 020000000000000000000000000000000000000000000000000000000000000000000000000000000000000000000000000000000000000000000000002004201700000000            000000000000000                              000                           
0010001300079T 020180230000002544776 29647041749404509   7               22042017000000000006000001028029                         0900000000000010000000000000000000000000000000000000000   0000000000000000000000000A9        170192964704     
0010001300080U 020000000000000000000000000000000000000000000000000000000000000000000000000000000000000000000000000000000000000000000000002004201700000000            000000000000000                              000                           
0010001300081T 020180230000002544776 29647041749547313   7               22042017000000000008000001016179                         0900000000000010000000000000000000000000000000000000000   0000000000000000000000000A9        170192964704     
0010001300082U 020000000000000000000000000000000000000000000000000000000000000000000000000000000000000000000000000000000000000000000000002004201700000000            000000000000000                              000                           
0010001300083T 020180230000002544776 29647041749643013   7               22042017000000000006000001016179                         0900000000000010000000000000000000000000000000000000000   0000000000000000000000000A9        170192964704     
0010001300084U 020000000000000000000000000000000000000000000000000000000000000000000000000000000000000000000000000000000000000000000000002004201700000000            000000000000000                              000                           
0010001300085T 020180230000002544776 29647041749727157   7               22042017000000000006000001030864                         0900000000000010000000000000000000000000000000000000000   0000000000000000000000000A9        170192964704     
0010001300086U 020000000000000000000000000000000000000000000000000000000000000000000000000000000000000000000000000000000000000000000000002004201700000000            000000000000000                              000                           
0010001300087T 020180230000002544776 29647041749858151   7               22042017000000000008000001033316                         0900000000000010000000000000000000000000000000000000000   0000000000000000000000000A9        170192964704     
0010001300088U 020000000000000000000000000000000000000000000000000000000000000000000000000000000000000000000000000000000000000000000000002004201700000000            000000000000000                              000                           
0010001300089T 020180230000002544776 29647041749916397   7               22042017000000000008000001012467                         0900000000000010000000000000000000000000000000000000000   0000000000000000000000000A9        170192964704     
0010001300090U 020000000000000000000000000000000000000000000000000000000000000000000000000000000000000000000000000000000000000000000000002004201700000000            000000000000000                              000                           
0010001300091T 020180230000002544776 29647041750006903   7               22042017000000000006000001002003                         0900000000000010000000000000000000000000000000000000000   0000000000000000000000000A9        170192964704     
0010001300092U 020000000000000000000000000000000000000000000000000000000000000000000000000000000000000000000000000000000000000000000000002004201700000000            000000000000000                              000                           
0010001300093T 020180230000002544776 29647041750135253   7               22042017000000000008000001016179                         0900000000000010000000000000000000000000000000000000000   0000000000000000000000000A9        170192964704     
0010001300094U 020000000000000000000000000000000000000000000000000000000000000000000000000000000000000000000000000000000000000000000000002004201700000000            000000000000000                              000                           
0010001300095T 060180230000002544776 29647041333105859   7               20042017000000000006000104000370                         0900000000000010000000000000000000000000000000000000000   000000000000000000000029000        170192964704     
0010001300096U 060000000000000000000000000000000000000000000000000000000000000000000000060000000000000057100000000000000000000000000000002004201725042017            000000000000000                              000                           
0010001300097T 060180230000002544776 29647041436857172   7               2204201700000000000600000108347X                         0900000000000010000000000000000000000000000000000000000   000000000000000000000029000        170192964704     
0010001300098U 060000000000000000000000000000000000000000000000000000000000000000000000060000000000000057100000000000000000000000000000002004201725042017            000000000000000                              000                           
0010001300099T 060180230000002544776 29647041640306852   7               21042017000000000006000104010300                         0900000000000010000000000000000000000000000000000000000   000000000000000000000029000        170192964704     
0010001300100U 060000000000000000000000000000000000000000000000000000000000000000000000060000000000000057100000000000000000000000000000002004201725042017            000000000000000                              000                           
0010001300101T 060180230000002544776 29647041714810934   7               20042017000000000008000001028029                         0900000000000010000000000000000000000000000000000000000   000000000000000000000029000        170192964704     
0010001300102U 060000000000000000000000000000000000000000000000000000000000000000000000080000000000000077100000000000000000000000000000002004201725042017            000000000000000                              000                           
0010001300103T 060180230000002544776 29647041743622056   7               2004201700000000000800000100068X                         0900000000000010000000000000000000000000000000000000000   000000000000000000000029000        170192964704     
0010001300104U 060000000000000000000000000000000000000000000000000000000000000000000000080000000000000077100000000000000000000000000000002004201725042017            000000000000000                              000                           
0010001300105T 060180230000002544776 29647041744312201   7               20042017000000000006000001016683                         0900000000000010000000000000000000000000000000000000000   000000000000000000000029000        170192964704     
0010001300106U 060000000000000000000000000000000000000000000000000000000000000000000000060000000000000057100000000000000000000000000000002004201725042017            000000000000000                              000                           
0010001300107T 060180230000002544776 29647041746950061   7               2204201700000000000600000100099X                         0900000000000010000000000000000000000000000000000000000   000000000000000000000029000        170192964704     
0010001300108U 060000000000000000000000000000000000000000000000000000000000000000000000060000000000000057100000000000000000000000000000002004201725042017            000000000000000                              000                           
0010001300109T 060180230000002544776 29647041748049701   7               21042017000000000008000004001720                         0900000000000010000000000000000000000000000000000000000   000000000000000000000029000        170192964704     
0010001300110U 060000000000000000000000000000000000000000000000000000000000000000000000080000000000000077100000000000000000000000000000002004201725042017            000000000000000                              000                           
0010001300111T 060180230000002544776 29647041749307439   7               22042017000000000008000001036986                         0900000000000010000000000000000000000000000000000000000   000000000000000000000029000        170192964704     
0010001300112U 060000000000000000000000000000000000000000000000000000000000000000000000080000000000000077100000000000000000000000000000002004201725042017            000000000000000                              000                           
0010001300113T 280180230000002544776 29647040514935644   7               19022017000000000006000001000000                         0900000000000000000000000000000000000000000000000000000   000000000000000000000005002        170192964704     
0010001300114U 280000000000000000000000000000000000000000000000000000000000000000000000000000000000000000000000000000000000000000000000002004201700000000            000000000000000                              000                           
0010001300115T 280180230000002544776 29647040535024651   7               19022017000000000006000001000000                         0900000000000000000000000000000000000000000000000000000   000000000000000000000005002        170192964704     
0010001300116U 280000000000000000000000000000000000000000000000000000000000000000000000000000000000000000000000000000000000000000000000002004201700000000            000000000000000                              000                           
0010001300117T 280180230000002544776 29647040535045708   7               19022017000000000006000001000000                         0900000000000000000000000000000000000000000000000000000   000000000000000000000005002        170192964704     
0010001300118U 280000000000000000000000000000000000000000000000000000000000000000000000000000000000000000000000000000000000000000000000002004201700000000            000000000000000                              000                           
0010001300119T 280180230000002544776 29647040535056117   7               19022017000000000006000001000000                         0900000000000000000000000000000000000000000000000000000   000000000000000000000005002        170192964704     
0010001300120U 280000000000000000000000000000000000000000000000000000000000000000000000000000000000000000000000000000000000000000000000002004201700000000            000000000000000                              000                           
0010001300121T 280180230000002544776 29647040585108931   7               19022017000000000008000001000000                         0900000000000000000000000000000000000000000000000000000   000000000000000000000005002        170192964704     
0010001300122U 280000000000000000000000000000000000000000000000000000000000000000000000000000000000000000000000000000000000000000000000002004201700000000            000000000000000                              000                           
0010001300123T 280180230000002544776 29647040597905393   7               21032017000000000006000001000000                         0900000000000000000000000000000000000000000000000000000   000000000000000000000005002        170192964704     
0010001300124U 280000000000000000000000000000000000000000000000000000000000000000000000000000000000000000000000000000000000000000000000002004201700000000            000000000000000                              000                           
0010001300125T 280180230000002544776 29647040609343702   7               19022017000000000006000001000000                         0900000000000000000000000000000000000000000000000000000   000000000000000000000005002        170192964704     
0010001300126U 280000000000000000000000000000000000000000000000000000000000000000000000000000000000000000000000000000000000000000000000002004201700000000            000000000000000                              000                           
0010001300127T 280180230000002544776 29647040629026727   7               19022017000000000006000001000000                         0900000000000000000000000000000000000000000000000000000   000000000000000000000005002        170192964704     
0010001300128U 280000000000000000000000000000000000000000000000000000000000000000000000000000000000000000000000000000000000000000000000002004201700000000            000000000000000                              000                           
0010001300129T 280180230000002544776 29647040629040746   7               19022017000000000006000001000000                         0900000000000000000000000000000000000000000000000000000   000000000000000000000005002        170192964704     
0010001300130U 280000000000000000000000000000000000000000000000000000000000000000000000000000000000000000000000000000000000000000000000002004201700000000            000000000000000                              000                           
0010001300131T 280180230000002544776 29647040629043921   7               19022017000000000006000001000000                         0900000000000000000000000000000000000000000000000000000   000000000000000000000005002        170192964704     
0010001300132U 280000000000000000000000000000000000000000000000000000000000000000000000000000000000000000000000000000000000000000000000002004201700000000            000000000000000                              000                           
0010001300133T 280180230000002544776 29647040629436492   7               19022017000000000008000001000000                         0900000000000000000000000000000000000000000000000000000   000000000000000000000005002        170192964704     
0010001300134U 280000000000000000000000000000000000000000000000000000000000000000000000000000000000000000000000000000000000000000000000002004201700000000            000000000000000                              000                           
0010001300135T 280180230000002544776 29647040631706995   7               19022017000000000006000001000000                         0900000000000000000000000000000000000000000000000000000   000000000000000000000005002        170192964704     
0010001300136U 280000000000000000000000000000000000000000000000000000000000000000000000000000000000000000000000000000000000000000000000002004201700000000            000000000000000                              000                           
0010001300137T 280180230000002544776 29647040641133390   7               21032017000000000006000001000000                         0900000000000000000000000000000000000000000000000000000   000000000000000000000005002        170192964704     
0010001300138U 280000000000000000000000000000000000000000000000000000000000000000000000000000000000000000000000000000000000000000000000002004201700000000            000000000000000                              000                           
0010001300139T 280180230000002544776 29647040642605434   7               19022017000000000006000001000000                         0900000000000000000000000000000000000000000000000000000   000000000000000000000005002        170192964704     
0010001300140U 280000000000000000000000000000000000000000000000000000000000000000000000000000000000000000000000000000000000000000000000002004201700000000            000000000000000                              000                           
0010001300141T 280180230000002544776 29647040645244840   7               19022017000000000006000001000000                         0900000000000000000000000000000000000000000000000000000   000000000000000000000005002        170192964704     
0010001300142U 280000000000000000000000000000000000000000000000000000000000000000000000000000000000000000000000000000000000000000000000002004201700000000            000000000000000                              000                           
0010001300143T 280180230000002544776 29647040649102560   7               19022017000000000006000001000000                         0900000000000000000000000000000000000000000000000000000   000000000000000000000005002        170192964704     
0010001300144U 280000000000000000000000000000000000000000000000000000000000000000000000000000000000000000000000000000000000000000000000002004201700000000            000000000000000                              000                           
0010001300145T 280180230000002544776 29647040649146670   7               19022017000000000006000001000000                         0900000000000000000000000000000000000000000000000000000   000000000000000000000005002        170192964704     
0010001300146U 280000000000000000000000000000000000000000000000000000000000000000000000000000000000000000000000000000000000000000000000002004201700000000            000000000000000                              000                           
0010001300147T 280180230000002544776 29647040649157266   7               19022017000000000006000001000000                         0900000000000000000000000000000000000000000000000000000   000000000000000000000005002        170192964704     
0010001300148U 280000000000000000000000000000000000000000000000000000000000000000000000000000000000000000000000000000000000000000000000002004201700000000            000000000000000                              000                           
0010001300149T 280180230000002544776 29647040654625674   7               19022017000000000006000001000000                         0900000000000000000000000000000000000000000000000000000   000000000000000000000005002        170192964704     
0010001300150U 280000000000000000000000000000000000000000000000000000000000000000000000000000000000000000000000000000000000000000000000002004201700000000            000000000000000                              000                           
0010001300151T 280180230000002544776 29647040663835754   7               19022017000000000006000001000000                         0900000000000000000000000000000000000000000000000000000   000000000000000000000005002        170192964704     
0010001300152U 280000000000000000000000000000000000000000000000000000000000000000000000000000000000000000000000000000000000000000000000002004201700000000            000000000000000                              000                           
0010001300153T 280180230000002544776 29647040666843151   7               19022017000000000006000001000000                         0900000000000000000000000000000000000000000000000000000   000000000000000000000005002        170192964704     
0010001300154U 280000000000000000000000000000000000000000000000000000000000000000000000000000000000000000000000000000000000000000000000002004201700000000            000000000000000                              000                           
0010001300155T 280180230000002544776 29647040712457945   7               19022017000000000006000001000000                         0900000000000000000000000000000000000000000000000000000   000000000000000000000005002        170192964704     
0010001300156U 280000000000000000000000000000000000000000000000000000000000000000000000000000000000000000000000000000000000000000000000002004201700000000            000000000000000                              000                           
0010001300157T 280180230000002544776 29647040719838313   7               19022017000000000006000001000000                         0900000000000000000000000000000000000000000000000000000   000000000000000000000005002        170192964704     
0010001300158U 280000000000000000000000000000000000000000000000000000000000000000000000000000000000000000000000000000000000000000000000002004201700000000            000000000000000                              000                           
0010001300159T 280180230000002544776 29647040721055551   7               19022017000000000006000001000000                         0900000000000000000000000000000000000000000000000000000   000000000000000000000005002        170192964704     
0010001300160U 280000000000000000000000000000000000000000000000000000000000000000000000000000000000000000000000000000000000000000000000002004201700000000            000000000000000                              000                           
0010001300161T 280180230000002544776 29647040722039768   7               19022017000000000008000001000000                         0900000000000000000000000000000000000000000000000000000   000000000000000000000005002        170192964704     
0010001300162U 280000000000000000000000000000000000000000000000000000000000000000000000000000000000000000000000000000000000000000000000002004201700000000            000000000000000                              000                           
0010001300163T 280180230000002544776 29647040722808335   7               19022017000000000006000001000000                         0900000000000000000000000000000000000000000000000000000   000000000000000000000005002        170192964704     
0010001300164U 280000000000000000000000000000000000000000000000000000000000000000000000000000000000000000000000000000000000000000000000002004201700000000            000000000000000                              000                           
0010001300165T 280180230000002544776 29647040722847314   7               19022017000000000006000001000000                         0900000000000000000000000000000000000000000000000000000   000000000000000000000005002        170192964704     
0010001300166U 280000000000000000000000000000000000000000000000000000000000000000000000000000000000000000000000000000000000000000000000002004201700000000            000000000000000                              000                           
0010001300167T 280180230000002544776 29647040722926167   7               19022017000000000006000001000000                         0900000000000000000000000000000000000000000000000000000   000000000000000000000005002        170192964704     
0010001300168U 280000000000000000000000000000000000000000000000000000000000000000000000000000000000000000000000000000000000000000000000002004201700000000            000000000000000                              000                           
0010001300169T 280180230000002544776 29647040722949146   7               19022017000000000006000001000000                         0900000000000000000000000000000000000000000000000000000   000000000000000000000005002        170192964704     
0010001300170U 280000000000000000000000000000000000000000000000000000000000000000000000000000000000000000000000000000000000000000000000002004201700000000            000000000000000                              000                           
0010001300171T 280180230000002544776 29647040722958331   7               19022017000000000006000001000000                         0900000000000000000000000000000000000000000000000000000   000000000000000000000005002        170192964704     
0010001300172U 280000000000000000000000000000000000000000000000000000000000000000000000000000000000000000000000000000000000000000000000002004201700000000            000000000000000                              000                           
0010001300173T 280180230000002544776 29647040727327022   7               19022017000000000006000001000000                         0900000000000000000000000000000000000000000000000000000   000000000000000000000005002        170192964704     
0010001300174U 280000000000000000000000000000000000000000000000000000000000000000000000000000000000000000000000000000000000000000000000002004201700000000            000000000000000                              000                           
0010001300175T 280180230000002544776 29647040729145596   7               19022017000000000006000001000000                         0900000000000000000000000000000000000000000000000000000   000000000000000000000005002        170192964704     
0010001300176U 280000000000000000000000000000000000000000000000000000000000000000000000000000000000000000000000000000000000000000000000002004201700000000            000000000000000                              000                           
0010001300177T 280180230000002544776 29647040729150446   7               19022017000000000006000001000000                         0900000000000000000000000000000000000000000000000000000   000000000000000000000005002        170192964704     
0010001300178U 280000000000000000000000000000000000000000000000000000000000000000000000000000000000000000000000000000000000000000000000002004201700000000            000000000000000                              000                           
0010001300179T 280180230000002544776 29647040729422194   7               19022017000000000006000001000000                         0900000000000000000000000000000000000000000000000000000   000000000000000000000005002        170192964704     
0010001300180U 280000000000000000000000000000000000000000000000000000000000000000000000000000000000000000000000000000000000000000000000002004201700000000            000000000000000                              000                           
0010001300181T 280180230000002544776 29647040731248855   7               19022017000000000006000001000000                         0900000000000000000000000000000000000000000000000000000   000000000000000000000005002        170192964704     
0010001300182U 280000000000000000000000000000000000000000000000000000000000000000000000000000000000000000000000000000000000000000000000002004201700000000            000000000000000                              000                           
0010001300183T 280180230000002544776 29647040733409871   7               19022017000000000006000001000000                         0900000000000000000000000000000000000000000000000000000   000000000000000000000005002        170192964704     
0010001300184U 280000000000000000000000000000000000000000000000000000000000000000000000000000000000000000000000000000000000000000000000002004201700000000            000000000000000                              000                           
0010001300185T 280180230000002544776 29647040733701175   7               19022017000000000008000001000000                         0900000000000000000000000000000000000000000000000000000   000000000000000000000005002        170192964704     
0010001300186U 280000000000000000000000000000000000000000000000000000000000000000000000000000000000000000000000000000000000000000000000002004201700000000            000000000000000                              000                           
0010001300187T 280180230000002544776 29647040733808231   7               19022017000000000006000001000000                         0900000000000000000000000000000000000000000000000000000   000000000000000000000005002        170192964704     
0010001300188U 280000000000000000000000000000000000000000000000000000000000000000000000000000000000000000000000000000000000000000000000002004201700000000            000000000000000                              000                           
0010001300189T 280180230000002544776 29647040733909803   7               19022017000000000006000001000000                         0900000000000000000000000000000000000000000000000000000   000000000000000000000005002        170192964704     
0010001300190U 280000000000000000000000000000000000000000000000000000000000000000000000000000000000000000000000000000000000000000000000002004201700000000            000000000000000                              000                           
0010001300191T 280180230000002544776 29647040734145978   7               19022017000000000008000001000000                         0900000000000000000000000000000000000000000000000000000   000000000000000000000005002        170192964704     
0010001300192U 280000000000000000000000000000000000000000000000000000000000000000000000000000000000000000000000000000000000000000000000002004201700000000            000000000000000                              000                           
0010001300193T 280180230000002544776 29647040734235229   7               19022017000000000006000001000000                         0900000000000000000000000000000000000000000000000000000   000000000000000000000005002        170192964704     
0010001300194U 280000000000000000000000000000000000000000000000000000000000000000000000000000000000000000000000000000000000000000000000002004201700000000            000000000000000                              000                           
0010001300195T 280180230000002544776 29647040734401730   7               19022017000000000008000001000000                         0900000000000000000000000000000000000000000000000000000   000000000000000000000005002        170192964704     
0010001300196U 280000000000000000000000000000000000000000000000000000000000000000000000000000000000000000000000000000000000000000000000002004201700000000            000000000000000                              000                           
0010001300197T 280180230000002544776 29647040734910890   7               19022017000000000006000001000000                         0900000000000000000000000000000000000000000000000000000   000000000000000000000005002        170192964704     
0010001300198U 280000000000000000000000000000000000000000000000000000000000000000000000000000000000000000000000000000000000000000000000002004201700000000            000000000000000                              000                           
0010001300199T 280180230000002544776 29647040734915946   7               19022017000000000006000001000000                         0900000000000000000000000000000000000000000000000000000   000000000000000000000005002        170192964704     
0010001300200U 280000000000000000000000000000000000000000000000000000000000000000000000000000000000000000000000000000000000000000000000002004201700000000            000000000000000                              000                           
0010001300201T 280180230000002544776 29647040735125838   7               19022017000000000006000001000000                         0900000000000000000000000000000000000000000000000000000   000000000000000000000005002        170192964704     
0010001300202U 280000000000000000000000000000000000000000000000000000000000000000000000000000000000000000000000000000000000000000000000002004201700000000            000000000000000                              000                           
0010001300203T 280180230000002544776 29647040735142167   7               19022017000000000006000001000000                         0900000000000000000000000000000000000000000000000000000   000000000000000000000005002        170192964704     
0010001300204U 280000000000000000000000000000000000000000000000000000000000000000000000000000000000000000000000000000000000000000000000002004201700000000            000000000000000                              000                           
0010001300205T 280180230000002544776 29647040735203587   7               19022017000000000006000001000000                         0900000000000000000000000000000000000000000000000000000   000000000000000000000005002        170192964704     
0010001300206U 280000000000000000000000000000000000000000000000000000000000000000000000000000000000000000000000000000000000000000000000002004201700000000            000000000000000                              000                           
0010001300207T 280180230000002544776 29647040735323824   7               19022017000000000006000001000000                         0900000000000000000000000000000000000000000000000000000   000000000000000000000005002        170192964704     
0010001300208U 280000000000000000000000000000000000000000000000000000000000000000000000000000000000000000000000000000000000000000000000002004201700000000            000000000000000                              000                           
0010001300209T 280180230000002544776 29647040735432012   7               19022017000000000006000001000000                         0900000000000000000000000000000000000000000000000000000   000000000000000000000005002        170192964704     
0010001300210U 280000000000000000000000000000000000000000000000000000000000000000000000000000000000000000000000000000000000000000000000002004201700000000            000000000000000                              000                           
0010001300211T 280180230000002544776 29647040735753633   7               19022017000000000006000001000000                         0900000000000000000000000000000000000000000000000000000   000000000000000000000005002        170192964704     
0010001300212U 280000000000000000000000000000000000000000000000000000000000000000000000000000000000000000000000000000000000000000000000002004201700000000            000000000000000                              000                           
0010001300213T 280180230000002544776 29647040736052171   7               19022017000000000006000001000000                         0900000000000000000000000000000000000000000000000000000   000000000000000000000005002        170192964704     
0010001300214U 280000000000000000000000000000000000000000000000000000000000000000000000000000000000000000000000000000000000000000000000002004201700000000            000000000000000                              000                           
0010001300215T 280180230000002544776 29647040736419055   7               19022017000000000006000001000000                         0900000000000000000000000000000000000000000000000000000   000000000000000000000005002        170192964704     
0010001300216U 280000000000000000000000000000000000000000000000000000000000000000000000000000000000000000000000000000000000000000000000002004201700000000            000000000000000                              000                           
0010001300217T 280180230000002544776 29647040736927445   7               19022017000000000006000001000000                         0900000000000000000000000000000000000000000000000000000   000000000000000000000005002        170192964704     
0010001300218U 280000000000000000000000000000000000000000000000000000000000000000000000000000000000000000000000000000000000000000000000002004201700000000            000000000000000                              000                           
0010001300219T 280180230000002544776 29647040737252485   7               19022017000000000006000001000000                         0900000000000000000000000000000000000000000000000000000   000000000000000000000005002        170192964704     
0010001300220U 280000000000000000000000000000000000000000000000000000000000000000000000000000000000000000000000000000000000000000000000002004201700000000            000000000000000                              000                           
0010001300221T 280180230000002544776 29647040737308822   7               19022017000000000006000001000000                         0900000000000000000000000000000000000000000000000000000   000000000000000000000005002        170192964704     
0010001300222U 280000000000000000000000000000000000000000000000000000000000000000000000000000000000000000000000000000000000000000000000002004201700000000            000000000000000                              000                           
0010001300223T 280180230000002544776 29647040737628621   7               19022017000000000006000001000000                         0900000000000000000000000000000000000000000000000000000   000000000000000000000005002        170192964704     
0010001300224U 280000000000000000000000000000000000000000000000000000000000000000000000000000000000000000000000000000000000000000000000002004201700000000            000000000000000                              000                           
0010001300225T 280180230000002544776 29647040739036347   7               19022017000000000006000001000000                         0900000000000000000000000000000000000000000000000000000   000000000000000000000005002        170192964704     
0010001300226U 280000000000000000000000000000000000000000000000000000000000000000000000000000000000000000000000000000000000000000000000002004201700000000            000000000000000                              000                           
0010001300227T 280180230000002544776 29647040739114039   7               19022017000000000006000001000000                         0900000000000000000000000000000000000000000000000000000   000000000000000000000005002        170192964704     
0010001300228U 280000000000000000000000000000000000000000000000000000000000000000000000000000000000000000000000000000000000000000000000002004201700000000            000000000000000                              000                           
0010001300229T 280180230000002544776 29647040739257356   7               19022017000000000006000001000000                         0900000000000000000000000000000000000000000000000000000   000000000000000000000005002        170192964704     
0010001300230U 280000000000000000000000000000000000000000000000000000000000000000000000000000000000000000000000000000000000000000000000002004201700000000            000000000000000                              000                           
0010001300231T 280180230000002544776 29647040739412154   7               19022017000000000008000001000000                         0900000000000000000000000000000000000000000000000000000   000000000000000000000005002        170192964704     
0010001300232U 280000000000000000000000000000000000000000000000000000000000000000000000000000000000000000000000000000000000000000000000002004201700000000            000000000000000                              000                           
0010001300233T 280180230000002544776 29647040739511667   7               19022017000000000006000001000000                         0900000000000000000000000000000000000000000000000000000   000000000000000000000005002        170192964704     
0010001300234U 280000000000000000000000000000000000000000000000000000000000000000000000000000000000000000000000000000000000000000000000002004201700000000            000000000000000                              000                           
0010001300235T 280180230000002544776 29647040739739790   7               19022017000000000006000001000000                         0900000000000000000000000000000000000000000000000000000   000000000000000000000005002        170192964704     
0010001300236U 280000000000000000000000000000000000000000000000000000000000000000000000000000000000000000000000000000000000000000000000002004201700000000            000000000000000                              000                           
0010001300237T 280180230000002544776 29647040740347470   7               19022017000000000006000001000000                         0900000000000000000000000000000000000000000000000000000   000000000000000000000005002        170192964704     
0010001300238U 280000000000000000000000000000000000000000000000000000000000000000000000000000000000000000000000000000000000000000000000002004201700000000            000000000000000                              000                           
0010001300239T 280180230000002544776 29647040740419830   7               19022017000000000006000001000000                         0900000000000000000000000000000000000000000000000000000   000000000000000000000005002        170192964704     
0010001300240U 280000000000000000000000000000000000000000000000000000000000000000000000000000000000000000000000000000000000000000000000002004201700000000            000000000000000                              000                           
0010001300241T 280180230000002544776 29647040740517261   7               19022017000000000006000001000000                         0900000000000000000000000000000000000000000000000000000   000000000000000000000005002        170192964704     
0010001300242U 280000000000000000000000000000000000000000000000000000000000000000000000000000000000000000000000000000000000000000000000002004201700000000            000000000000000                              000                           
0010001300243T 280180230000002544776 29647040740652652   7               19022017000000000006000001000000                         0900000000000000000000000000000000000000000000000000000   000000000000000000000005002        170192964704     
0010001300244U 280000000000000000000000000000000000000000000000000000000000000000000000000000000000000000000000000000000000000000000000002004201700000000            000000000000000                              000                           
0010001300245T 280180230000002544776 29647040740727183   7               19022017000000000006000001000000                         0900000000000000000000000000000000000000000000000000000   000000000000000000000005002        170192964704     
0010001300246U 280000000000000000000000000000000000000000000000000000000000000000000000000000000000000000000000000000000000000000000000002004201700000000            000000000000000                              000                           
0010001300247T 280180230000002544776 29647040740907494   7               19022017000000000006000001000000                         0900000000000000000000000000000000000000000000000000000   000000000000000000000005002        170192964704     
0010001300248U 280000000000000000000000000000000000000000000000000000000000000000000000000000000000000000000000000000000000000000000000002004201700000000            000000000000000                              000                           
0010001300249T 280180230000002544776 29647040740934431   7               19022017000000000006000001000000                         0900000000000000000000000000000000000000000000000000000   000000000000000000000005002        170192964704     
0010001300250U 280000000000000000000000000000000000000000000000000000000000000000000000000000000000000000000000000000000000000000000000002004201700000000            000000000000000                              000                           
0010001300251T 280180230000002544776 29647040741302779   7               19022017000000000006000001000000                         0900000000000000000000000000000000000000000000000000000   000000000000000000000005002        170192964704     
0010001300252U 280000000000000000000000000000000000000000000000000000000000000000000000000000000000000000000000000000000000000000000000002004201700000000            000000000000000                              000                           
0010001300253T 280180230000002544776 29647040741526855   7               19022017000000000008000001000000                         0900000000000000000000000000000000000000000000000000000   000000000000000000000005002        170192964704     
0010001300254U 280000000000000000000000000000000000000000000000000000000000000000000000000000000000000000000000000000000000000000000000002004201700000000            000000000000000                              000                           
0010001300255T 280180230000002544776 29647040741834649   7               19022017000000000006000001000000                         0900000000000000000000000000000000000000000000000000000   000000000000000000000005002        170192964704     
0010001300256U 280000000000000000000000000000000000000000000000000000000000000000000000000000000000000000000000000000000000000000000000002004201700000000            000000000000000                              000                           
0010001300257T 280180230000002544776 29647040742157148   7               19022017000000000006000001000000                         0900000000000000000000000000000000000000000000000000000   000000000000000000000005002        170192964704     
0010001300258U 280000000000000000000000000000000000000000000000000000000000000000000000000000000000000000000000000000000000000000000000002004201700000000            000000000000000                              000                           
0010001300259T 280180230000002544776 29647040742240223   7               19022017000000000006000001000000                         0900000000000000000000000000000000000000000000000000000   000000000000000000000005002        170192964704     
0010001300260U 280000000000000000000000000000000000000000000000000000000000000000000000000000000000000000000000000000000000000000000000002004201700000000            000000000000000                              000                           
0010001300261T 280180230000002544776 29647040742411601   7               19022017000000000006000001000000                         0900000000000000000000000000000000000000000000000000000   000000000000000000000005002        170192964704     
0010001300262U 280000000000000000000000000000000000000000000000000000000000000000000000000000000000000000000000000000000000000000000000002004201700000000            000000000000000                              000                           
0010001300263T 280180230000002544776 29647040742546418   7               19022017000000000006000001000000                         0900000000000000000000000000000000000000000000000000000   000000000000000000000005002        170192964704     
0010001300264U 280000000000000000000000000000000000000000000000000000000000000000000000000000000000000000000000000000000000000000000000002004201700000000            000000000000000                              000                           
0010001300265T 280180230000002544776 29647040742837805   7               19022017000000000006000001000000                         0900000000000000000000000000000000000000000000000000000   000000000000000000000005002        170192964704     
0010001300266U 280000000000000000000000000000000000000000000000000000000000000000000000000000000000000000000000000000000000000000000000002004201700000000            000000000000000                              000                           
0010001300267T 280180230000002544776 29647040742957507   7               19022017000000000006000001000000                         0900000000000000000000000000000000000000000000000000000   000000000000000000000005002        170192964704     
0010001300268U 280000000000000000000000000000000000000000000000000000000000000000000000000000000000000000000000000000000000000000000000002004201700000000            000000000000000                              000                           
0010001300269T 280180230000002544776 29647040743001926   7               19022017000000000006000001000000                         0900000000000000000000000000000000000000000000000000000   000000000000000000000005002        170192964704     
0010001300270U 280000000000000000000000000000000000000000000000000000000000000000000000000000000000000000000000000000000000000000000000002004201700000000            000000000000000                              000                           
0010001300271T 280180230000002544776 29647040743043622   7               19022017000000000006000001000000                         0900000000000000000000000000000000000000000000000000000   000000000000000000000005002        170192964704     
0010001300272U 280000000000000000000000000000000000000000000000000000000000000000000000000000000000000000000000000000000000000000000000002004201700000000            000000000000000                              000                           
0010001300273T 280180230000002544776 29647040743118304   7               19022017000000000006000001000000                         0900000000000000000000000000000000000000000000000000000   000000000000000000000005002        170192964704     
0010001300274U 280000000000000000000000000000000000000000000000000000000000000000000000000000000000000000000000000000000000000000000000002004201700000000            000000000000000                              000                           
0010001300275T 280180230000002544776 29647040743315870   7               19022017000000000006000001000000                         0900000000000000000000000000000000000000000000000000000   000000000000000000000005002        170192964704     
0010001300276U 280000000000000000000000000000000000000000000000000000000000000000000000000000000000000000000000000000000000000000000000002004201700000000            000000000000000                              000                           
0010001300277T 280180230000002544776 29647040743619253   7               19022017000000000006000001000000                         0900000000000000000000000000000000000000000000000000000   000000000000000000000005002        170192964704     
0010001300278U 280000000000000000000000000000000000000000000000000000000000000000000000000000000000000000000000000000000000000000000000002004201700000000            000000000000000                              000                           
0010001300279T 280180230000002544776 29647040743629945   7               19022017000000000006000001000000                         0900000000000000000000000000000000000000000000000000000   000000000000000000000005002        170192964704     
0010001300280U 280000000000000000000000000000000000000000000000000000000000000000000000000000000000000000000000000000000000000000000000002004201700000000            000000000000000                              000                           
0010001300281T 280180230000002544776 29647040743756811   7               19022017000000000006000001000000                         0900000000000000000000000000000000000000000000000000000   000000000000000000000005002        170192964704     
0010001300282U 280000000000000000000000000000000000000000000000000000000000000000000000000000000000000000000000000000000000000000000000002004201700000000            000000000000000                              000                           
0010001300283T 280180230000002544776 29647040745012109   7               19022017000000000006000001000000                         0900000000000000000000000000000000000000000000000000000   000000000000000000000005002        170192964704     
0010001300284U 280000000000000000000000000000000000000000000000000000000000000000000000000000000000000000000000000000000000000000000000002004201700000000            000000000000000                              000                           
0010001300285T 280180230000002544776 29647040745218256   7               19022017000000000006000001000000                         0900000000000000000000000000000000000000000000000000000   000000000000000000000005002        170192964704     
0010001300286U 280000000000000000000000000000000000000000000000000000000000000000000000000000000000000000000000000000000000000000000000002004201700000000            000000000000000                              000                           
0010001300287T 280180230000002544776 29647040745420377   7               19022017000000000006000001000000                         0900000000000000000000000000000000000000000000000000000   000000000000000000000005002        170192964704     
0010001300288U 280000000000000000000000000000000000000000000000000000000000000000000000000000000000000000000000000000000000000000000000002004201700000000            000000000000000                              000                           
0010001300289T 280180230000002544776 29647040745702846   7               19022017000000000006000001000000                         0900000000000000000000000000000000000000000000000000000   000000000000000000000005002        170192964704     
0010001300290U 280000000000000000000000000000000000000000000000000000000000000000000000000000000000000000000000000000000000000000000000002004201700000000            000000000000000                              000                           
0010001300291T 280180230000002544776 29647040745827273   7               19022017000000000008000001000000                         0900000000000000000000000000000000000000000000000000000   000000000000000000000005002        170192964704     
0010001300292U 280000000000000000000000000000000000000000000000000000000000000000000000000000000000000000000000000000000000000000000000002004201700000000            000000000000000                              000                           
0010001300293T 280180230000002544776 29647040745930504   7               19022017000000000006000001000000                         0900000000000000000000000000000000000000000000000000000   000000000000000000000005002        170192964704     
0010001300294U 280000000000000000000000000000000000000000000000000000000000000000000000000000000000000000000000000000000000000000000000002004201700000000            000000000000000                              000                           
0010001300295T 280180230000002544776 29647040746033811   7               19022017000000000006000001000000                         0900000000000000000000000000000000000000000000000000000   000000000000000000000005002        170192964704     
0010001300296U 280000000000000000000000000000000000000000000000000000000000000000000000000000000000000000000000000000000000000000000000002004201700000000            000000000000000                              000                           
0010001300297T 280180230000002544776 29647040746052569   7               19022017000000000006000001000000                         0900000000000000000000000000000000000000000000000000000   000000000000000000000005002        170192964704     
0010001300298U 280000000000000000000000000000000000000000000000000000000000000000000000000000000000000000000000000000000000000000000000002004201700000000            000000000000000                              000                           
0010001300299T 280180230000002544776 29647040746228240   7               19022017000000000006000001000000                         0900000000000000000000000000000000000000000000000000000   000000000000000000000005002        170192964704     
0010001300300U 280000000000000000000000000000000000000000000000000000000000000000000000000000000000000000000000000000000000000000000000002004201700000000            000000000000000                              000                           
0010001300301T 280180230000002544776 29647040746428806   7               19022017000000000008000001000000                         0900000000000000000000000000000000000000000000000000000   000000000000000000000005002        170192964704     
0010001300302U 280000000000000000000000000000000000000000000000000000000000000000000000000000000000000000000000000000000000000000000000002004201700000000            000000000000000                              000                           
0010001300303T 280180230000002544776 29647040746513609   7               19022017000000000006000001000000                         0900000000000000000000000000000000000000000000000000000   000000000000000000000005002        170192964704     
0010001300304U 280000000000000000000000000000000000000000000000000000000000000000000000000000000000000000000000000000000000000000000000002004201700000000            000000000000000                              000                           
0010001300305T 280180230000002544776 29647040746523399   7               19022017000000000006000001000000                         0900000000000000000000000000000000000000000000000000000   000000000000000000000005002        170192964704     
0010001300306U 280000000000000000000000000000000000000000000000000000000000000000000000000000000000000000000000000000000000000000000000002004201700000000            000000000000000                              000                           
0010001300307T 280180230000002544776 29647040746625719   7               19022017000000000006000001000000                         0900000000000000000000000000000000000000000000000000000   000000000000000000000005002        170192964704     
0010001300308U 280000000000000000000000000000000000000000000000000000000000000000000000000000000000000000000000000000000000000000000000002004201700000000            000000000000000                              000                           
0010001300309T 280180230000002544776 29647040746820882   7               19022017000000000006000001000000                         0900000000000000000000000000000000000000000000000000000   000000000000000000000005002        170192964704     
0010001300310U 280000000000000000000000000000000000000000000000000000000000000000000000000000000000000000000000000000000000000000000000002004201700000000            000000000000000                              000                           
0010001300311T 280180230000002544776 29647040747059946   7               19022017000000000006000001000000                         0900000000000000000000000000000000000000000000000000000   000000000000000000000005002        170192964704     
0010001300312U 280000000000000000000000000000000000000000000000000000000000000000000000000000000000000000000000000000000000000000000000002004201700000000            000000000000000                              000                           
0010001300313T 280180230000002544776 29647040747239822   7               19022017000000000006000001000000                         0900000000000000000000000000000000000000000000000000000   000000000000000000000005002        170192964704     
0010001300314U 280000000000000000000000000000000000000000000000000000000000000000000000000000000000000000000000000000000000000000000000002004201700000000            000000000000000                              000                           
0010001300315T 280180230000002544776 29647040747759875   7               19022017000000000006000001000000                         0900000000000000000000000000000000000000000000000000000   000000000000000000000005002        170192964704     
0010001300316U 280000000000000000000000000000000000000000000000000000000000000000000000000000000000000000000000000000000000000000000000002004201700000000            000000000000000                              000                           
0010001300317T 280180230000002544776 29647040748053846   7               19022017000000000006000001000000                         0900000000000000000000000000000000000000000000000000000   000000000000000000000005002        170192964704     
0010001300318U 280000000000000000000000000000000000000000000000000000000000000000000000000000000000000000000000000000000000000000000000002004201700000000            000000000000000                              000                           
0010001300319T 280180230000002544776 29647040748316062   7               19022017000000000006000001000000                         0900000000000000000000000000000000000000000000000000000   000000000000000000000005002        170192964704     
0010001300320U 280000000000000000000000000000000000000000000000000000000000000000000000000000000000000000000000000000000000000000000000002004201700000000            000000000000000                              000                           
0010001300321T 280180230000002544776 29647040749035594   7               19022017000000000006000001000000                         0900000000000000000000000000000000000000000000000000000   000000000000000000000005002        170192964704     
0010001300322U 280000000000000000000000000000000000000000000000000000000000000000000000000000000000000000000000000000000000000000000000002004201700000000            000000000000000                              000                           
0010001300323T 280180230000002544776 29647040749104575   7               19022017000000000006000001000000                         0900000000000000000000000000000000000000000000000000000   000000000000000000000005002        170192964704     
0010001300324U 280000000000000000000000000000000000000000000000000000000000000000000000000000000000000000000000000000000000000000000000002004201700000000            000000000000000                              000                           
0010001300325T 280180230000002544776 29647040749111136   7               19022017000000000006000001000000                         0900000000000000000000000000000000000000000000000000000   000000000000000000000005002        170192964704     
0010001300326U 280000000000000000000000000000000000000000000000000000000000000000000000000000000000000000000000000000000000000000000000002004201700000000            000000000000000                              000                           
0010001300327T 280180230000002544776 29647040749125392   7               19022017000000000006000001000000                         0900000000000000000000000000000000000000000000000000000   000000000000000000000005002        170192964704     
0010001300328U 280000000000000000000000000000000000000000000000000000000000000000000000000000000000000000000000000000000000000000000000002004201700000000            000000000000000                              000                           
0010001300329T 280180230000002544776 29647040749215093   7               19022017000000000006000001000000                         0900000000000000000000000000000000000000000000000000000   000000000000000000000005002        170192964704     
0010001300330U 280000000000000000000000000000000000000000000000000000000000000000000000000000000000000000000000000000000000000000000000002004201700000000            000000000000000                              000                           
0010001300331T 280180230000002544776 29647040749246930   7               19022017000000000006000001000000                         0900000000000000000000000000000000000000000000000000000   000000000000000000000005002        170192964704     
0010001300332U 280000000000000000000000000000000000000000000000000000000000000000000000000000000000000000000000000000000000000000000000002004201700000000            000000000000000                              000                           
0010001300333T 280180230000002544776 29647040749257208   7               19022017000000000006000001000000                         0900000000000000000000000000000000000000000000000000000   000000000000000000000005002        170192964704     
0010001300334U 280000000000000000000000000000000000000000000000000000000000000000000000000000000000000000000000000000000000000000000000002004201700000000            000000000000000                              000                           
0010001300335T 280180230000002544776 29647040749538947   7               19022017000000000006000001000000                         0900000000000000000000000000000000000000000000000000000   000000000000000000000005002        170192964704     
0010001300336U 280000000000000000000000000000000000000000000000000000000000000000000000000000000000000000000000000000000000000000000000002004201700000000            000000000000000                              000                           
0010001300337T 280180230000002544776 29647040750838891   7               19022017000000000006000001000000                         0900000000000000000000000000000000000000000000000000000   000000000000000000000005002        170192964704     
0010001300338U 280000000000000000000000000000000000000000000000000000000000000000000000000000000000000000000000000000000000000000000000002004201700000000            000000000000000                              000                           
0010001300339T 280180230000002544776 29647040750930207   7               19022017000000000006000001000000                         0900000000000000000000000000000000000000000000000000000   000000000000000000000005002        170192964704     
0010001300340U 280000000000000000000000000000000000000000000000000000000000000000000000000000000000000000000000000000000000000000000000002004201700000000            000000000000000                              000                           
0010001300341T 280180230000002544776 29647040751012912   7               19022017000000000006000001000000                         0900000000000000000000000000000000000000000000000000000   000000000000000000000005002        170192964704     
0010001300342U 280000000000000000000000000000000000000000000000000000000000000000000000000000000000000000000000000000000000000000000000002004201700000000            000000000000000                              000                           
0010001300343T 280180230000002544776 29647040751151946   7               19022017000000000006000001000000                         0900000000000000000000000000000000000000000000000000000   000000000000000000000005002        170192964704     
0010001300344U 280000000000000000000000000000000000000000000000000000000000000000000000000000000000000000000000000000000000000000000000002004201700000000            000000000000000                              000                           
0010001300345T 280180230000002544776 29647040751721823   7               19022017000000000006000001000000                         0900000000000000000000000000000000000000000000000000000   000000000000000000000005002        170192964704     
0010001300346U 280000000000000000000000000000000000000000000000000000000000000000000000000000000000000000000000000000000000000000000000002004201700000000            000000000000000                              000                           
0010001300347T 280180230000002544776 29647040751934014   7               19022017000000000006000001000000                         0900000000000000000000000000000000000000000000000000000   000000000000000000000005002        170192964704     
0010001300348U 280000000000000000000000000000000000000000000000000000000000000000000000000000000000000000000000000000000000000000000000002004201700000000            000000000000000                              000                           
0010001300349T 280180230000002544776 29647040752430213   7               19022017000000000006000001000000                         0900000000000000000000000000000000000000000000000000000   000000000000000000000005002        170192964704     
0010001300350U 280000000000000000000000000000000000000000000000000000000000000000000000000000000000000000000000000000000000000000000000002004201700000000            000000000000000                              000                           
0010001300351T 280180230000002544776 29647040752550921   7               19022017000000000006000001000000                         0900000000000000000000000000000000000000000000000000000   000000000000000000000005002        170192964704     
0010001300352U 280000000000000000000000000000000000000000000000000000000000000000000000000000000000000000000000000000000000000000000000002004201700000000            000000000000000                              000                           
0010001300353T 280180230000002544776 29647040752604313   7               19022017000000000006000001000000                         0900000000000000000000000000000000000000000000000000000   000000000000000000000005002        170192964704     
0010001300354U 280000000000000000000000000000000000000000000000000000000000000000000000000000000000000000000000000000000000000000000000002004201700000000            000000000000000                              000                           
0010001300355T 280180230000002544776 29647040753456113   7               19022017000000000006000001000000                         0900000000000000000000000000000000000000000000000000000   000000000000000000000005002        170192964704     
0010001300356U 280000000000000000000000000000000000000000000000000000000000000000000000000000000000000000000000000000000000000000000000002004201700000000            000000000000000                              000                           
0010001300357T 280180230000002544776 29647040754111798   7               19022017000000000008000001000000                         0900000000000000000000000000000000000000000000000000000   000000000000000000000005002        170192964704     
0010001300358U 280000000000000000000000000000000000000000000000000000000000000000000000000000000000000000000000000000000000000000000000002004201700000000            000000000000000                              000                           
0010001300359T 280180230000002544776 29647040754313683   7               19022017000000000006000001000000                         0900000000000000000000000000000000000000000000000000000   000000000000000000000005002        170192964704     
0010001300360U 280000000000000000000000000000000000000000000000000000000000000000000000000000000000000000000000000000000000000000000000002004201700000000            000000000000000                              000                           
0010001300361T 280180230000002544776 29647040754357578   7               19022017000000000006000001000000                         0900000000000000000000000000000000000000000000000000000   000000000000000000000005002        170192964704     
0010001300362U 280000000000000000000000000000000000000000000000000000000000000000000000000000000000000000000000000000000000000000000000002004201700000000            000000000000000                              000                           
0010001300363T 280180230000002544776 29647040754456105   7               19022017000000000006000001000000                         0900000000000000000000000000000000000000000000000000000   000000000000000000000005002        170192964704     
0010001300364U 280000000000000000000000000000000000000000000000000000000000000000000000000000000000000000000000000000000000000000000000002004201700000000            000000000000000                              000                           
0010001300365T 280180230000002544776 29647040754725468   7               19022017000000000006000001000000                         0900000000000000000000000000000000000000000000000000000   000000000000000000000005002        170192964704     
0010001300366U 280000000000000000000000000000000000000000000000000000000000000000000000000000000000000000000000000000000000000000000000002004201700000000            000000000000000                              000                           
0010001300367T 280180230000002544776 29647040754732265   7               19022017000000000006000001000000                         0900000000000000000000000000000000000000000000000000000   000000000000000000000005002        170192964704     
0010001300368U 280000000000000000000000000000000000000000000000000000000000000000000000000000000000000000000000000000000000000000000000002004201700000000            000000000000000                              000                           
0010001300369T 280180230000002544776 29647040754820818   7               19022017000000000006000001000000                         0900000000000000000000000000000000000000000000000000000   000000000000000000000005002        170192964704     
0010001300370U 280000000000000000000000000000000000000000000000000000000000000000000000000000000000000000000000000000000000000000000000002004201700000000            000000000000000                              000                           
0010001300371T 280180230000002544776 29647040755124205   7               19022017000000000006000001000000                         0900000000000000000000000000000000000000000000000000000   000000000000000000000005002        170192964704     
0010001300372U 280000000000000000000000000000000000000000000000000000000000000000000000000000000000000000000000000000000000000000000000002004201700000000            000000000000000                              000                           
0010001300373T 280180230000002544776 29647040755649308   7               19022017000000000006000001000000                         0900000000000000000000000000000000000000000000000000000   000000000000000000000005002        170192964704     
0010001300374U 280000000000000000000000000000000000000000000000000000000000000000000000000000000000000000000000000000000000000000000000002004201700000000            000000000000000                              000                           
0010001300375T 280180230000002544776 29647040755743343   7               19022017000000000006000001000000                         0900000000000000000000000000000000000000000000000000000   000000000000000000000005002        170192964704     
0010001300376U 280000000000000000000000000000000000000000000000000000000000000000000000000000000000000000000000000000000000000000000000002004201700000000            000000000000000                              000                           
0010001300377T 280180230000002544776 29647040755925419   7               19022017000000000006000001000000                         0900000000000000000000000000000000000000000000000000000   000000000000000000000005002        170192964704     
0010001300378U 280000000000000000000000000000000000000000000000000000000000000000000000000000000000000000000000000000000000000000000000002004201700000000            000000000000000                              000                           
0010001300379T 280180230000002544776 29647040756257891   7               19022017000000000008000001000000                         0900000000000000000000000000000000000000000000000000000   000000000000000000000005002        170192964704     
0010001300380U 280000000000000000000000000000000000000000000000000000000000000000000000000000000000000000000000000000000000000000000000002004201700000000            000000000000000                              000                           
0010001300381T 280180230000002544776 29647040756502760   7               19022017000000000006000001000000                         0900000000000000000000000000000000000000000000000000000   000000000000000000000005002        170192964704     
0010001300382U 280000000000000000000000000000000000000000000000000000000000000000000000000000000000000000000000000000000000000000000000002004201700000000            000000000000000                              000                           
0010001300383T 280180230000002544776 29647040756719372   7               19022017000000000006000001000000                         0900000000000000000000000000000000000000000000000000000   000000000000000000000005002        170192964704     
0010001300384U 280000000000000000000000000000000000000000000000000000000000000000000000000000000000000000000000000000000000000000000000002004201700000000            000000000000000                              000                           
0010001300385T 280180230000002544776 29647040756935501   7               19022017000000000008000001000000                         0900000000000000000000000000000000000000000000000000000   000000000000000000000005002        170192964704     
0010001300386U 280000000000000000000000000000000000000000000000000000000000000000000000000000000000000000000000000000000000000000000000002004201700000000            000000000000000                              000                           
0010001300387T 280180230000002544776 29647040757258779   7               19022017000000000006000001000000                         0900000000000000000000000000000000000000000000000000000   000000000000000000000005002        170192964704     
0010001300388U 280000000000000000000000000000000000000000000000000000000000000000000000000000000000000000000000000000000000000000000000002004201700000000            000000000000000                              000                           
0010001300389T 280180230000002544776 29647040757331507   7               19022017000000000006000001000000                         0900000000000000000000000000000000000000000000000000000   000000000000000000000005002        170192964704     
0010001300390U 280000000000000000000000000000000000000000000000000000000000000000000000000000000000000000000000000000000000000000000000002004201700000000            000000000000000                              000                           
0010001300391T 280180230000002544776 29647040757710603   7               19022017000000000006000001000000                         0900000000000000000000000000000000000000000000000000000   000000000000000000000005002        170192964704     
0010001300392U 280000000000000000000000000000000000000000000000000000000000000000000000000000000000000000000000000000000000000000000000002004201700000000            000000000000000                              000                           
0010001300393T 280180230000002544776 29647040757717342   7               19022017000000000006000001000000                         0900000000000000000000000000000000000000000000000000000   000000000000000000000005002        170192964704     
0010001300394U 280000000000000000000000000000000000000000000000000000000000000000000000000000000000000000000000000000000000000000000000002004201700000000            000000000000000                              000                           
0010001300395T 280180230000002544776 29647040757942549   7               19022017000000000006000001000000                         0900000000000000000000000000000000000000000000000000000   000000000000000000000005002        170192964704     
0010001300396U 280000000000000000000000000000000000000000000000000000000000000000000000000000000000000000000000000000000000000000000000002004201700000000            000000000000000                              000                           
0010001300397T 280180230000002544776 29647040758901247   7               19022017000000000006000001000000                         0900000000000000000000000000000000000000000000000000000   000000000000000000000005002        170192964704     
0010001300398U 280000000000000000000000000000000000000000000000000000000000000000000000000000000000000000000000000000000000000000000000002004201700000000            000000000000000                              000                           
0010001300399T 280180230000002544776 29647040759101298   7               19022017000000000006000001000000                         0900000000000000000000000000000000000000000000000000000   000000000000000000000005002        170192964704     
0010001300400U 280000000000000000000000000000000000000000000000000000000000000000000000000000000000000000000000000000000000000000000000002004201700000000            000000000000000                              000                           
0010001300401T 280180230000002544776 29647040759144120   7               19022017000000000006000001000000                         0900000000000000000000000000000000000000000000000000000   000000000000000000000005002        170192964704     
0010001300402U 280000000000000000000000000000000000000000000000000000000000000000000000000000000000000000000000000000000000000000000000002004201700000000            000000000000000                              000                           
0010001300403T 280180230000002544776 29647040759827643   7               19022017000000000006000001000000                         0900000000000000000000000000000000000000000000000000000   000000000000000000000005002        170192964704     
0010001300404U 280000000000000000000000000000000000000000000000000000000000000000000000000000000000000000000000000000000000000000000000002004201700000000            000000000000000                              000                           
0010001300405T 280180230000002544776 29647040760045542   7               19022017000000000006000001000000                         0900000000000000000000000000000000000000000000000000000   000000000000000000000005002        170192964704     
0010001300406U 280000000000000000000000000000000000000000000000000000000000000000000000000000000000000000000000000000000000000000000000002004201700000000            000000000000000                              000                           
0010001300407T 280180230000002544776 29647040760230108   7               19022017000000000006000001000000                         0900000000000000000000000000000000000000000000000000000   000000000000000000000005002        170192964704     
0010001300408U 280000000000000000000000000000000000000000000000000000000000000000000000000000000000000000000000000000000000000000000000002004201700000000            000000000000000                              000                           
0010001300409T 280180230000002544776 29647040760231360   7               19022017000000000006000001000000                         0900000000000000000000000000000000000000000000000000000   000000000000000000000005002        170192964704     
0010001300410U 280000000000000000000000000000000000000000000000000000000000000000000000000000000000000000000000000000000000000000000000002004201700000000            000000000000000                              000                           
0010001300411T 280180230000002544776 29647040761100483   7               19022017000000000006000001000000                         0900000000000000000000000000000000000000000000000000000   000000000000000000000005002        170192964704     
0010001300412U 280000000000000000000000000000000000000000000000000000000000000000000000000000000000000000000000000000000000000000000000002004201700000000            000000000000000                              000                           
