00100000         2247745860001000029577050014       0180230000001544772 INSTITUTO DE SELECAO E TECNOLOBANCO DO BRASIL                         22103201701092000014003000000515122941PROCESSAMEN                                                 
00100011T0100020 20247745860001000029577050014       0180230000001544772 INSTITUTO DE SELECAO E TECNOLO                                                                                000000002103201700000000  000000000                      
0010001300001T 020180230000001544772 29577050069104918   7               23032017000000000010000001000213                         0900000000000010000000000000000000000000000000000000000   0000000000000000000000000A9        170192957705     
0010001300002U 020000000000000000000000000000000000000000000000000000000000000000000000000000000000000000000000000000000000000000000000002103201700000000            000000000000000                              000                           
0010001300003T 020180230000001544772 29577050069329022   7               23032017000000000007500001012416                         0900000000000010000000000000000000000000000000000000000   0000000000000000000000000A9        170192957705     
0010001300004U 020000000000000000000000000000000000000000000000000000000000000000000000000000000000000000000000000000000000000000000000002103201700000000            000000000000000                              000                           
0010001300005T 020180230000001544772 29577050069356761   7               23032017000000000007500001012416                         0900000000000010000000000000000000000000000000000000000   0000000000000000000000000A9        170192957705     
0010001300006U 020000000000000000000000000000000000000000000000000000000000000000000000000000000000000000000000000000000000000000000000002103201700000000            000000000000000                              000                           
0010001300007T 020180230000001544772 29577050093659620   7               23032017000000000007500001000213                         0900000000000010000000000000000000000000000000000000000   0000000000000000000000000A9        170192957705     
0010001300008U 020000000000000000000000000000000000000000000000000000000000000000000000000000000000000000000000000000000000000000000000002103201700000000            000000000000000                              000                           
0010001300009T 020180230000001544772 29577050170825628   7               23032017000000000007500001012408                         0900000000000010000000000000000000000000000000000000000   0000000000000000000000000A9        170192957705     
0010001300010U 020000000000000000000000000000000000000000000000000000000000000000000000000000000000000000000000000000000000000000000000002103201700000000            000000000000000                              000                           
0010001300011T 020180230000001544772 29577050207416472   7               23032017000000000010000001036889                         0900000000000010000000000000000000000000000000000000000   0000000000000000000000000A9        170192957705     
0010001300012U 020000000000000000000000000000000000000000000000000000000000000000000000000000000000000000000000000000000000000000000000002103201700000000            000000000000000                              000                           
0010001300013T 020180230000001544772 29577050257239039   7               23032017000000000007500001001120                         0900000000000010000000000000000000000000000000000000000   0000000000000000000000000A9        170192957705     
0010001300014U 020000000000000000000000000000000000000000000000000000000000000000000000000000000000000000000000000000000000000000000000002103201700000000            000000000000000                              000                           
0010001300015T 020180230000001544772 29577050290652017   7               23032017000000000007500001010561                         0900000000000010000000000000000000000000000000000000000   0000000000000000000000000A9        170192957705     
0010001300016U 020000000000000000000000000000000000000000000000000000000000000000000000000000000000000000000000000000000000000000000000002103201700000000            000000000000000                              000                           
0010001300017T 020180230000001544772 29577050333748743   7               23032017000000000007500001000213                         0900000000000010000000000000000000000000000000000000000   0000000000000000000000000A9        170192957705     
0010001300018U 020000000000000000000000000000000000000000000000000000000000000000000000000000000000000000000000000000000000000000000000002103201700000000            000000000000000                              000                           
0010001300019T 020180230000001544772 29577050341238300   7               23032017000000000007500001000833                         0900000000000010000000000000000000000000000000000000000   0000000000000000000000000A9        170192957705     
0010001300020U 020000000000000000000000000000000000000000000000000000000000000000000000000000000000000000000000000000000000000000000000002103201700000000            000000000000000                              000                           
0010001300021T 020180230000001544772 29577050425545330   7               23032017000000000007500001000833                         0900000000000010000000000000000000000000000000000000000   0000000000000000000000000A9        170192957705     
0010001300022U 020000000000000000000000000000000000000000000000000000000000000000000000000000000000000000000000000000000000000000000000002103201700000000            000000000000000                              000                           
0010001300023T 020180230000001544772 29577050796519607   7               2303201700000000000750000100829X                         0900000000000010000000000000000000000000000000000000000   0000000000000000000000000A9        170192957705     
0010001300024U 020000000000000000000000000000000000000000000000000000000000000000000000000000000000000000000000000000000000000000000000002103201700000000            000000000000000                              000                           
0010001300025T 020180230000001544772 29577050796541914   7               2303201700000000000750000100829X                         0900000000000010000000000000000000000000000000000000000   0000000000000000000000000A9        170192957705     
0010001300026U 020000000000000000000000000000000000000000000000000000000000000000000000000000000000000000000000000000000000000000000000002103201700000000            000000000000000                              000                           
0010001300027T 020180230000001544772 29577051014323921   7               23032017000000000007500001012416                         0900000000000010000000000000000000000000000000000000000   0000000000000000000000000A9        170192957705     
0010001300028U 020000000000000000000000000000000000000000000000000000000000000000000000000000000000000000000000000000000000000000000000002103201700000000            000000000000000                              000                           
0010001300029T 020180230000001544772 29577051083834476   7               2303201700000000000750000103049X                         0900000000000010000000000000000000000000000000000000000   0000000000000000000000000A9        170192957705     
0010001300030U 020000000000000000000000000000000000000000000000000000000000000000000000000000000000000000000000000000000000000000000000002103201700000000            000000000000000                              000                           
0010001300031T 020180230000001544772 29577051145616861   7               23032017000000000007500001004782                         0900000000000010000000000000000000000000000000000000000   0000000000000000000000000A9        170192957705     
0010001300032U 020000000000000000000000000000000000000000000000000000000000000000000000000000000000000000000000000000000000000000000000002103201700000000            000000000000000                              000                           
0010001300033T 020180230000001544772 29577051240540725   7               23032017000000000007500001000213                         0900000000000010000000000000000000000000000000000000000   0000000000000000000000000A9        170192957705     
0010001300034U 020000000000000000000000000000000000000000000000000000000000000000000000000000000000000000000000000000000000000000000000002103201700000000            000000000000000                              000                           
0010001300035T 020180230000001544772 29577051267606159   7               23032017000000000007500001021121                         0900000000000010000000000000000000000000000000000000000   0000000000000000000000000A9        170192957705     
0010001300036U 020000000000000000000000000000000000000000000000000000000000000000000000000000000000000000000000000000000000000000000000002103201700000000            000000000000000                              000                           
0010001300037T 020180230000001544772 29577051378817046   7               22032017000000000007500001008214                         0900000000000010000000000000000000000000000000000000000   0000000000000000000000000A9        170192957705     
0010001300038U 020000000000000000000000000000000000000000000000000000000000000000000000000000000000000000000000000000000000000000000000002003201700000000            000000000000000                              000                           
0010001300039T 020180230000001544772 29577051380339857   7               23032017000000000007500001012408                         0900000000000010000000000000000000000000000000000000000   0000000000000000000000000A9        170192957705     
0010001300040U 020000000000000000000000000000000000000000000000000000000000000000000000000000000000000000000000000000000000000000000000002103201700000000            000000000000000                              000                           
0010001300041T 020180230000001544772 29577051381637488   7               2303201700000000000750000103049X                         0900000000000010000000000000000000000000000000000000000   0000000000000000000000000A9        170192957705     
0010001300042U 020000000000000000000000000000000000000000000000000000000000000000000000000000000000000000000000000000000000000000000000002103201700000000            000000000000000                              000                           
0010001300043T 020180230000001544772 29577051382559548   7               23032017000000000007500001012416                         0900000000000010000000000000000000000000000000000000000   0000000000000000000000000A9        170192957705     
0010001300044U 020000000000000000000000000000000000000000000000000000000000000000000000000000000000000000000000000000000000000000000000002103201700000000            000000000000000                              000                           
0010001300045T 020180230000001544772 29577051383609397   7               23032017000000000007500001012416                         0900000000000010000000000000000000000000000000000000000   0000000000000000000000000A9        170192957705     
0010001300046U 020000000000000000000000000000000000000000000000000000000000000000000000000000000000000000000000000000000000000000000000002103201700000000            000000000000000                              000                           
0010001300047T 020180230000001544772 29577051383617161   7               23032017000000000007500001012416                         0900000000000010000000000000000000000000000000000000000   0000000000000000000000000A9        170192957705     
0010001300048U 020000000000000000000000000000000000000000000000000000000000000000000000000000000000000000000000000000000000000000000000002103201700000000            000000000000000                              000                           
0010001300049T 020180230000001544772 29577051384650530   7               23032017000000000007500001012416                         0900000000000010000000000000000000000000000000000000000   0000000000000000000000000A9        170192957705     
0010001300050U 020000000000000000000000000000000000000000000000000000000000000000000000000000000000000000000000000000000000000000000000002103201700000000            000000000000000                              000                           
0010001300051T 020180230000001544772 29577051384839679   7               23032017000000000007500001012408                         0900000000000010000000000000000000000000000000000000000   0000000000000000000000000A9        170192957705     
0010001300052U 020000000000000000000000000000000000000000000000000000000000000000000000000000000000000000000000000000000000000000000000002103201700000000            000000000000000                              000                           
0010001300053T 020180230000001544772 29577051385001254   7               2303201700000000000750000103049X                         0900000000000010000000000000000000000000000000000000000   0000000000000000000000000A9        170192957705     
0010001300054U 020000000000000000000000000000000000000000000000000000000000000000000000000000000000000000000000000000000000000000000000002103201700000000            000000000000000                              000                           
0010001300055T 020180230000001544772 29577051388720081   7               23032017000000000007500001045799                         0900000000000010000000000000000000000000000000000000000   0000000000000000000000000A9        170192957705     
0010001300056U 020000000000000000000000000000000000000000000000000000000000000000000000000000000000000000000000000000000000000000000000002103201700000000            000000000000000                              000                           
0010001300057T 020180230000001544772 29577051388848500   7               23032017000000000007500001012408                         0900000000000010000000000000000000000000000000000000000   0000000000000000000000000A9        170192957705     
0010001300058U 020000000000000000000000000000000000000000000000000000000000000000000000000000000000000000000000000000000000000000000000002103201700000000            000000000000000                              000                           
0010001300059T 020180230000001544772 29577051391507968   7               23032017000000000007500001000213                         0900000000000010000000000000000000000000000000000000000   0000000000000000000000000A9        170192957705     
0010001300060U 020000000000000000000000000000000000000000000000000000000000000000000000000000000000000000000000000000000000000000000000002103201700000000            000000000000000                              000                           
0010001300061T 020180230000001544772 29577051393716812   7               23032017000000000010000001028029                         0900000000000010000000000000000000000000000000000000000   0000000000000000000000000A9        170192957705     
0010001300062U 020000000000000000000000000000000000000000000000000000000000000000000000000000000000000000000000000000000000000000000000002103201700000000            000000000000000                              000                           
0010001300063T 020180230000001544772 29577051394729071   7               23032017000000000007500001045578                         0900000000000010000000000000000000000000000000000000000   0000000000000000000000000A9        170192957705     
0010001300064U 020000000000000000000000000000000000000000000000000000000000000000000000000000000000000000000000000000000000000000000000002103201700000000            000000000000000                              000                           
0010001300065T 020180230000001544772 29577051396429466   7               2303201700000000000750000103049X                         0900000000000010000000000000000000000000000000000000000   0000000000000000000000000A9        170192957705     
0010001300066U 020000000000000000000000000000000000000000000000000000000000000000000000000000000000000000000000000000000000000000000000002103201700000000            000000000000000                              000                           
0010001300067T 060180230000001544772 29577051014323921   7               23032017000000000007500033038830                         0900000000000010000000000000000000000000000000000000000   000000000000000000000029000        170192957705     
0010001300068U 060000000000000000000000000000000000000000000000000000000000000000000000075000000000000072100000000000000000000000000000002103201722032017            000000000000000                              000                           
0010001300069T 060180230000001544772 29577051357857840   7               22032017000000000007500001046728                         0900000000000010000000000000000000000000000000000000000   000000000000000000000029000        170192957705     
0010001300070U 060000000000000000000000000000000000000000000000000000000000000000000000075000000000000072100000000000000000000000000000002103201722032017            000000000000000                              000                           
0010001300071T 060180230000001544772 29577051366353692   7               22032017000000000007500001046728                         0900000000000010000000000000000000000000000000000000000   000000000000000000000029000        170192957705     
0010001300072U 060000000000000000000000000000000000000000000000000000000000000000000000075000000000000072100000000000000000000000000000002103201722032017            000000000000000                              000                           
0010001300073T 060180230000001544772 29577051366819393   7               22032017000000000007500001046728                         0900000000000010000000000000000000000000000000000000000   000000000000000000000029000        170192957705     
0010001300074U 060000000000000000000000000000000000000000000000000000000000000000000000075000000000000072100000000000000000000000000000002103201722032017            000000000000000                              000                           
0010001300075T 280180230000001544772 29577050000636001   788888888888889920012017000000000007500001000000888888888888899          0900000000000000000000000000000000000000000000000000000   000000000000000000000005002        170192957705     
0010001300076U 280000000000000000000000000000000000000000000000000000000000000000000000000000000000000000000000000000000000000000000000002103201700000000            000000000000000                              000                           
0010001300077T 280180230000001544772 29577050000655102   788888888888889920012017000000000007500001000000888888888888899          0900000000000000000000000000000000000000000000000000000   000000000000000000000005002        170192957705     
0010001300078U 280000000000000000000000000000000000000000000000000000000000000000000000000000000000000000000000000000000000000000000000002103201700000000            000000000000000                              000                           
0010001300079T 280180230000001544772 29577050013838605   7               19022017000000000007500001000000                         0900000000000000000000000000000000000000000000000000000   000000000000000000000005002        170192957705     
0010001300080U 280000000000000000000000000000000000000000000000000000000000000000000000000000000000000000000000000000000000000000000000002103201700000000            000000000000000                              000                           
0010001300081T 280180230000001544772 29577050020815518   788888888888889920012017000000000007500001000000888888888888899          0900000000000000000000000000000000000000000000000000000   000000000000000000000005002        170192957705     
0010001300082U 280000000000000000000000000000000000000000000000000000000000000000000000000000000000000000000000000000000000000000000000002103201700000000            000000000000000                              000                           
0010001300083T 280180230000001544772 29577050022014175   788888888888889920012017000000000007500001000000888888888888899          0900000000000000000000000000000000000000000000000000000   000000000000000000000005002        170192957705     
0010001300084U 280000000000000000000000000000000000000000000000000000000000000000000000000000000000000000000000000000000000000000000000002103201700000000            000000000000000                              000                           
0010001300085T 280180230000001544772 29577050033231073   788888888888889920012017000000000007500001000000888888888888899          0900000000000000000000000000000000000000000000000000000   000000000000000000000005002        170192957705     
0010001300086U 280000000000000000000000000000000000000000000000000000000000000000000000000000000000000000000000000000000000000000000000002103201700000000            000000000000000                              000                           
0010001300087T 280180230000001544772 29577050033708141   788888888888889920012017000000000007500001000000888888888888899          0900000000000000000000000000000000000000000000000000000   000000000000000000000005002        170192957705     
0010001300088U 280000000000000000000000000000000000000000000000000000000000000000000000000000000000000000000000000000000000000000000000002103201700000000            000000000000000                              000                           
0010001300089T 280180230000001544772 29577050033814740   788888888888889920012017000000000007500001000000888888888888899          0900000000000000000000000000000000000000000000000000000   000000000000000000000005002        170192957705     
0010001300090U 280000000000000000000000000000000000000000000000000000000000000000000000000000000000000000000000000000000000000000000000002103201700000000            000000000000000                              000                           
0010001300091T 280180230000001544772 29577050034315574   788888888888889920012017000000000007500001000000888888888888899          0900000000000000000000000000000000000000000000000000000   000000000000000000000005002        170192957705     
0010001300092U 280000000000000000000000000000000000000000000000000000000000000000000000000000000000000000000000000000000000000000000000002103201700000000            000000000000000                              000                           
0010001300093T 280180230000001544772 29577050037749581   788888888888889920012017000000000007500001000000888888888888899          0900000000000000000000000000000000000000000000000000000   000000000000000000000005002        170192957705     
0010001300094U 280000000000000000000000000000000000000000000000000000000000000000000000000000000000000000000000000000000000000000000000002103201700000000            000000000000000                              000                           
0010001300095T 280180230000001544772 29577050038159306   788888888888889920012017000000000007500001000000888888888888899          0900000000000000000000000000000000000000000000000000000   000000000000000000000005002        170192957705     
0010001300096U 280000000000000000000000000000000000000000000000000000000000000000000000000000000000000000000000000000000000000000000000002103201700000000            000000000000000                              000                           
0010001300097T 280180230000001544772 29577050038324372   788888888888889920012017000000000007500001000000888888888888899          0900000000000000000000000000000000000000000000000000000   000000000000000000000005002        170192957705     
0010001300098U 280000000000000000000000000000000000000000000000000000000000000000000000000000000000000000000000000000000000000000000000002103201700000000            000000000000000                              000                           
0010001300099T 280180230000001544772 29577050039050403   788888888888889920012017000000000007500001000000888888888888899          0900000000000000000000000000000000000000000000000000000   000000000000000000000005002        170192957705     
0010001300100U 280000000000000000000000000000000000000000000000000000000000000000000000000000000000000000000000000000000000000000000000002103201700000000            000000000000000                              000                           
0010001300101T 280180230000001544772 29577050039802764   788888888888889920012017000000000007500001000000888888888888899          0900000000000000000000000000000000000000000000000000000   000000000000000000000005002        170192957705     
0010001300102U 280000000000000000000000000000000000000000000000000000000000000000000000000000000000000000000000000000000000000000000000002103201700000000            000000000000000                              000                           
0010001300103T 280180230000001544772 29577050039835737   788888888888889920012017000000000007500001000000888888888888899          0900000000000000000000000000000000000000000000000000000   000000000000000000000005002        170192957705     
0010001300104U 280000000000000000000000000000000000000000000000000000000000000000000000000000000000000000000000000000000000000000000000002103201700000000            000000000000000                              000                           
0010001300105T 280180230000001544772 29577050039843140   788888888888889920012017000000000007500001000000888888888888899          0900000000000000000000000000000000000000000000000000000   000000000000000000000005002        170192957705     
0010001300106U 280000000000000000000000000000000000000000000000000000000000000000000000000000000000000000000000000000000000000000000000002103201700000000            000000000000000                              000                           
0010001300107T 280180230000001544772 29577050042041709   788888888888889920012017000000000007500001000000888888888888899          0900000000000000000000000000000000000000000000000000000   000000000000000000000005002        170192957705     
0010001300108U 280000000000000000000000000000000000000000000000000000000000000000000000000000000000000000000000000000000000000000000000002103201700000000            000000000000000                              000                           
0010001300109T 280180230000001544772 29577050042438090   788888888888889920012017000000000007500001000000888888888888899          0900000000000000000000000000000000000000000000000000000   000000000000000000000005002        170192957705     
0010001300110U 280000000000000000000000000000000000000000000000000000000000000000000000000000000000000000000000000000000000000000000000002103201700000000            000000000000000                              000                           
0010001300111T 280180230000001544772 29577050042640263   788888888888889920012017000000000007500001000000888888888888899          0900000000000000000000000000000000000000000000000000000   000000000000000000000005002        170192957705     
0010001300112U 280000000000000000000000000000000000000000000000000000000000000000000000000000000000000000000000000000000000000000000000002103201700000000            000000000000000                              000                           
0010001300113T 280180230000001544772 29577050042654137   788888888888889920012017000000000007500001000000888888888888899          0900000000000000000000000000000000000000000000000000000   000000000000000000000005002        170192957705     
0010001300114U 280000000000000000000000000000000000000000000000000000000000000000000000000000000000000000000000000000000000000000000000002103201700000000            000000000000000                              000                           
0010001300115T 280180230000001544772 29577050042722055   788888888888889920012017000000000007500001000000888888888888899          0900000000000000000000000000000000000000000000000000000   000000000000000000000005002        170192957705     
0010001300116U 280000000000000000000000000000000000000000000000000000000000000000000000000000000000000000000000000000000000000000000000002103201700000000            000000000000000                              000                           
0010001300117T 280180230000001544772 29577050042925365   788888888888889920012017000000000007500001000000888888888888899          0900000000000000000000000000000000000000000000000000000   000000000000000000000005002        170192957705     
0010001300118U 280000000000000000000000000000000000000000000000000000000000000000000000000000000000000000000000000000000000000000000000002103201700000000            000000000000000                              000                           
0010001300119T 280180230000001544772 29577050043912303   788888888888889920012017000000000007500001000000888888888888899          0900000000000000000000000000000000000000000000000000000   000000000000000000000005002        170192957705     
0010001300120U 280000000000000000000000000000000000000000000000000000000000000000000000000000000000000000000000000000000000000000000000002103201700000000            000000000000000                              000                           
0010001300121T 280180230000001544772 29577050044001998   788888888888889920012017000000000007500001000000888888888888899          0900000000000000000000000000000000000000000000000000000   000000000000000000000005002        170192957705     
0010001300122U 280000000000000000000000000000000000000000000000000000000000000000000000000000000000000000000000000000000000000000000000002103201700000000            000000000000000                              000                           
0010001300123T 280180230000001544772 29577050045232626   788888888888889920012017000000000007500001000000888888888888899          0900000000000000000000000000000000000000000000000000000   000000000000000000000005002        170192957705     
0010001300124U 280000000000000000000000000000000000000000000000000000000000000000000000000000000000000000000000000000000000000000000000002103201700000000            000000000000000                              000                           
0010001300125T 280180230000001544772 29577050045426100   788888888888889920012017000000000007500001000000888888888888899          0900000000000000000000000000000000000000000000000000000   000000000000000000000005002        170192957705     
0010001300126U 280000000000000000000000000000000000000000000000000000000000000000000000000000000000000000000000000000000000000000000000002103201700000000            000000000000000                              000                           
0010001300127T 280180230000001544772 29577050046056720   788888888888889920012017000000000007500001000000888888888888899          0900000000000000000000000000000000000000000000000000000   000000000000000000000005002        170192957705     
0010001300128U 280000000000000000000000000000000000000000000000000000000000000000000000000000000000000000000000000000000000000000000000002103201700000000            000000000000000                              000                           
0010001300129T 280180230000001544772 29577050046253221   788888888888889920012017000000000007500001000000888888888888899          0900000000000000000000000000000000000000000000000000000   000000000000000000000005002        170192957705     
0010001300130U 280000000000000000000000000000000000000000000000000000000000000000000000000000000000000000000000000000000000000000000000002103201700000000            000000000000000                              000                           
0010001300131T 280180230000001544772 29577050048224248   788888888888889920012017000000000007500001000000888888888888899          0900000000000000000000000000000000000000000000000000000   000000000000000000000005002        170192957705     
0010001300132U 280000000000000000000000000000000000000000000000000000000000000000000000000000000000000000000000000000000000000000000000002103201700000000            000000000000000                              000                           
0010001300133T 280180230000001544772 29577050048445371   788888888888889920012017000000000007500001000000888888888888899          0900000000000000000000000000000000000000000000000000000   000000000000000000000005002        170192957705     
0010001300134U 280000000000000000000000000000000000000000000000000000000000000000000000000000000000000000000000000000000000000000000000002103201700000000            000000000000000                              000                           
0010001300135T 280180230000001544772 29577050049952823   788888888888889920012017000000000007500001000000888888888888899          0900000000000000000000000000000000000000000000000000000   000000000000000000000005002        170192957705     
0010001300136U 280000000000000000000000000000000000000000000000000000000000000000000000000000000000000000000000000000000000000000000000002103201700000000            000000000000000                              000                           
0010001300137T 280180230000001544772 29577050068857313   7               19022017000000000007500001000000                         0900000000000000000000000000000000000000000000000000000   000000000000000000000005002        170192957705     
0010001300138U 280000000000000000000000000000000000000000000000000000000000000000000000000000000000000000000000000000000000000000000000002103201700000000            000000000000000                              000                           
0010001300139T 280180230000001544772 29577050080837890   788888888888889920012017000000000007500001000000888888888888899          0900000000000000000000000000000000000000000000000000000   000000000000000000000005002        170192957705     
0010001300140U 280000000000000000000000000000000000000000000000000000000000000000000000000000000000000000000000000000000000000000000000002103201700000000            000000000000000                              000                           
0010001300141T 280180230000001544772 29577050086928775   7               19022017000000000007500001000000                         0900000000000000000000000000000000000000000000000000000   000000000000000000000005002        170192957705     
0010001300142U 280000000000000000000000000000000000000000000000000000000000000000000000000000000000000000000000000000000000000000000000002103201700000000            000000000000000                              000                           
0010001300143T 280180230000001544772 29577050093610885   7               19022017000000000007500001000000                         0900000000000000000000000000000000000000000000000000000   000000000000000000000005002        170192957705     
0010001300144U 280000000000000000000000000000000000000000000000000000000000000000000000000000000000000000000000000000000000000000000000002103201700000000            000000000000000                              000                           
0010001300145T 280180230000001544772 29577050104129254   7               19022017000000000007500001000000                         0900000000000000000000000000000000000000000000000000000   000000000000000000000005002        170192957705     
0010001300146U 280000000000000000000000000000000000000000000000000000000000000000000000000000000000000000000000000000000000000000000000002103201700000000            000000000000000                              000                           
0010001300147T 280180230000001544772 29577050112433234   788888888888889920012017000000000007500001000000888888888888899          0900000000000000000000000000000000000000000000000000000   000000000000000000000005002        170192957705     
0010001300148U 280000000000000000000000000000000000000000000000000000000000000000000000000000000000000000000000000000000000000000000000002103201700000000            000000000000000                              000                           
0010001300149T 280180230000001544772 29577050121314770   7               19022017000000000007500001000000                         0900000000000000000000000000000000000000000000000000000   000000000000000000000005002        170192957705     
0010001300150U 280000000000000000000000000000000000000000000000000000000000000000000000000000000000000000000000000000000000000000000000002103201700000000            000000000000000                              000                           
0010001300151T 280180230000001544772 29577050128015482   788888888888889920012017000000000007500001000000888888888888899          0900000000000000000000000000000000000000000000000000000   000000000000000000000005002        170192957705     
0010001300152U 280000000000000000000000000000000000000000000000000000000000000000000000000000000000000000000000000000000000000000000000002103201700000000            000000000000000                              000                           
0010001300153T 280180230000001544772 29577050155815689   7               19022017000000000007500001000000                         0900000000000000000000000000000000000000000000000000000   000000000000000000000005002        170192957705     
0010001300154U 280000000000000000000000000000000000000000000000000000000000000000000000000000000000000000000000000000000000000000000000002103201700000000            000000000000000                              000                           
0010001300155T 280180230000001544772 29577050174517955   788888888888889920012017000000000007500001000000888888888888899          0900000000000000000000000000000000000000000000000000000   000000000000000000000005002        170192957705     
0010001300156U 280000000000000000000000000000000000000000000000000000000000000000000000000000000000000000000000000000000000000000000000002103201700000000            000000000000000                              000                           
0010001300157T 280180230000001544772 29577050174518134   788888888888889920012017000000000007500001000000888888888888899          0900000000000000000000000000000000000000000000000000000   000000000000000000000005002        170192957705     
0010001300158U 280000000000000000000000000000000000000000000000000000000000000000000000000000000000000000000000000000000000000000000000002103201700000000            000000000000000                              000                           
0010001300159T 280180230000001544772 29577050194540760   788888888888889920012017000000000007500001000000888888888888899          0900000000000000000000000000000000000000000000000000000   000000000000000000000005002        170192957705     
0010001300160U 280000000000000000000000000000000000000000000000000000000000000000000000000000000000000000000000000000000000000000000000002103201700000000            000000000000000                              000                           
0010001300161T 280180230000001544772 29577050194739677   788888888888889920012017000000000007500001000000888888888888899          0900000000000000000000000000000000000000000000000000000   000000000000000000000005002        170192957705     
0010001300162U 280000000000000000000000000000000000000000000000000000000000000000000000000000000000000000000000000000000000000000000000002103201700000000            000000000000000                              000                           
0010001300163T 280180230000001544772 29577050200241719   788888888888889920012017000000000007500001000000888888888888899          0900000000000000000000000000000000000000000000000000000   000000000000000000000005002        170192957705     
0010001300164U 280000000000000000000000000000000000000000000000000000000000000000000000000000000000000000000000000000000000000000000000002103201700000000            000000000000000                              000                           
0010001300165T 280180230000001544772 29577050200256051   788888888888889920012017000000000007500001000000888888888888899          0900000000000000000000000000000000000000000000000000000   000000000000000000000005002        170192957705     
0010001300166U 280000000000000000000000000000000000000000000000000000000000000000000000000000000000000000000000000000000000000000000000002103201700000000            000000000000000                              000                           
0010001300167T 280180230000001544772 29577050203838271   788888888888889920012017000000000007500001000000888888888888899          0900000000000000000000000000000000000000000000000000000   000000000000000000000005002        170192957705     
0010001300168U 280000000000000000000000000000000000000000000000000000000000000000000000000000000000000000000000000000000000000000000000002103201700000000            000000000000000                              000                           
0010001300169T 280180230000001544772 29577050208351761   7               19022017000000000007500001000000                         0900000000000000000000000000000000000000000000000000000   000000000000000000000005002        170192957705     
0010001300170U 280000000000000000000000000000000000000000000000000000000000000000000000000000000000000000000000000000000000000000000000002103201700000000            000000000000000                              000                           
0010001300171T 280180230000001544772 29577050216620168   7               19022017000000000007500001000000                         0900000000000000000000000000000000000000000000000000000   000000000000000000000005002        170192957705     
0010001300172U 280000000000000000000000000000000000000000000000000000000000000000000000000000000000000000000000000000000000000000000000002103201700000000            000000000000000                              000                           
0010001300173T 280180230000001544772 29577050237255222   788888888888889920012017000000000007500001000000888888888888899          0900000000000000000000000000000000000000000000000000000   000000000000000000000005002        170192957705     
0010001300174U 280000000000000000000000000000000000000000000000000000000000000000000000000000000000000000000000000000000000000000000000002103201700000000            000000000000000                              000                           
0010001300175T 280180230000001544772 29577050240932743   7               19022017000000000007500001000000                         0900000000000000000000000000000000000000000000000000000   000000000000000000000005002        170192957705     
0010001300176U 280000000000000000000000000000000000000000000000000000000000000000000000000000000000000000000000000000000000000000000000002103201700000000            000000000000000                              000                           
0010001300177T 280180230000001544772 29577050241428699   788888888888889920012017000000000007500001000000888888888888899          0900000000000000000000000000000000000000000000000000000   000000000000000000000005002        170192957705     
0010001300178U 280000000000000000000000000000000000000000000000000000000000000000000000000000000000000000000000000000000000000000000000002103201700000000            000000000000000                              000                           
0010001300179T 280180230000001544772 29577050245410103   788888888888889920012017000000000007500001000000888888888888899          0900000000000000000000000000000000000000000000000000000   000000000000000000000005002        170192957705     
0010001300180U 280000000000000000000000000000000000000000000000000000000000000000000000000000000000000000000000000000000000000000000000002103201700000000            000000000000000                              000                           
0010001300181T 280180230000001544772 29577050255411326   788888888888889920012017000000000007500001000000888888888888899          0900000000000000000000000000000000000000000000000000000   000000000000000000000005002        170192957705     
0010001300182U 280000000000000000000000000000000000000000000000000000000000000000000000000000000000000000000000000000000000000000000000002103201700000000            000000000000000                              000                           
0010001300183T 280180230000001544772 29577050256057623   788888888888889920012017000000000007500001000000888888888888899          0900000000000000000000000000000000000000000000000000000   000000000000000000000005002        170192957705     
0010001300184U 280000000000000000000000000000000000000000000000000000000000000000000000000000000000000000000000000000000000000000000000002103201700000000            000000000000000                              000                           
0010001300185T 280180230000001544772 29577050257252501   788888888888889920012017000000000007500001000000888888888888899          0900000000000000000000000000000000000000000000000000000   000000000000000000000005002        170192957705     
0010001300186U 280000000000000000000000000000000000000000000000000000000000000000000000000000000000000000000000000000000000000000000000002103201700000000            000000000000000                              000                           
0010001300187T 280180230000001544772 29577050259841908   7               19022017000000000007500001000000                         0900000000000000000000000000000000000000000000000000000   000000000000000000000005002        170192957705     
0010001300188U 280000000000000000000000000000000000000000000000000000000000000000000000000000000000000000000000000000000000000000000000002103201700000000            000000000000000                              000                           
0010001300189T 280180230000001544772 29577050261119677   788888888888889920012017000000000010000001000000888888888888899          0900000000000000000000000000000000000000000000000000000   000000000000000000000005002        170192957705     
0010001300190U 280000000000000000000000000000000000000000000000000000000000000000000000000000000000000000000000000000000000000000000000002103201700000000            000000000000000                              000                           
0010001300191T 280180230000001544772 29577050265430381   788888888888889920012017000000000007500001000000888888888888899          0900000000000000000000000000000000000000000000000000000   000000000000000000000005002        170192957705     
0010001300192U 280000000000000000000000000000000000000000000000000000000000000000000000000000000000000000000000000000000000000000000000002103201700000000            000000000000000                              000                           
0010001300193T 280180230000001544772 29577050265940988   788888888888889920012017000000000007500001000000888888888888899          0900000000000000000000000000000000000000000000000000000   000000000000000000000005002        170192957705     
0010001300194U 280000000000000000000000000000000000000000000000000000000000000000000000000000000000000000000000000000000000000000000000002103201700000000            000000000000000                              000                           
0010001300195T 280180230000001544772 29577050266018183   788888888888889920012017000000000007500001000000888888888888899          0900000000000000000000000000000000000000000000000000000   000000000000000000000005002        170192957705     
0010001300196U 280000000000000000000000000000000000000000000000000000000000000000000000000000000000000000000000000000000000000000000000002103201700000000            000000000000000                              000                           
0010001300197T 280180230000001544772 29577050266153531   788888888888889920012017000000000010000001000000888888888888899          0900000000000000000000000000000000000000000000000000000   000000000000000000000005002        170192957705     
0010001300198U 280000000000000000000000000000000000000000000000000000000000000000000000000000000000000000000000000000000000000000000000002103201700000000            000000000000000                              000                           
0010001300199T 280180230000001544772 29577050266259991   788888888888889920012017000000000007500001000000888888888888899          0900000000000000000000000000000000000000000000000000000   000000000000000000000005002        170192957705     
0010001300200U 280000000000000000000000000000000000000000000000000000000000000000000000000000000000000000000000000000000000000000000000002103201700000000            000000000000000                              000                           
0010001300201T 280180230000001544772 29577050266323973   788888888888889920012017000000000007500001000000888888888888899          0900000000000000000000000000000000000000000000000000000   000000000000000000000005002        170192957705     
0010001300202U 280000000000000000000000000000000000000000000000000000000000000000000000000000000000000000000000000000000000000000000000002103201700000000            000000000000000                              000                           
0010001300203T 280180230000001544772 29577050266358723   788888888888889920012017000000000007500001000000888888888888899          0900000000000000000000000000000000000000000000000000000   000000000000000000000005002        170192957705     
0010001300204U 280000000000000000000000000000000000000000000000000000000000000000000000000000000000000000000000000000000000000000000000002103201700000000            000000000000000                              000                           
0010001300205T 280180230000001544772 29577050266418906   788888888888889920012017000000000007500001000000888888888888899          0900000000000000000000000000000000000000000000000000000   000000000000000000000005002        170192957705     
0010001300206U 280000000000000000000000000000000000000000000000000000000000000000000000000000000000000000000000000000000000000000000000002103201700000000            000000000000000                              000                           
0010001300207T 280180230000001544772 29577050266711340   788888888888889920012017000000000007500001000000888888888888899          0900000000000000000000000000000000000000000000000000000   000000000000000000000005002        170192957705     
0010001300208U 280000000000000000000000000000000000000000000000000000000000000000000000000000000000000000000000000000000000000000000000002103201700000000            000000000000000                              000                           
0010001300209T 280180230000001544772 29577050266935703   788888888888889920012017000000000010000001000000888888888888899          0900000000000000000000000000000000000000000000000000000   000000000000000000000005002        170192957705     
0010001300210U 280000000000000000000000000000000000000000000000000000000000000000000000000000000000000000000000000000000000000000000000002103201700000000            000000000000000                              000                           
0010001300211T 280180230000001544772 29577050267010869   788888888888889920012017000000000007500001000000888888888888899          0900000000000000000000000000000000000000000000000000000   000000000000000000000005002        170192957705     
0010001300212U 280000000000000000000000000000000000000000000000000000000000000000000000000000000000000000000000000000000000000000000000002103201700000000            000000000000000                              000                           
0010001300213T 280180230000001544772 29577050267027295   788888888888889920012017000000000007500001000000888888888888899          0900000000000000000000000000000000000000000000000000000   000000000000000000000005002        170192957705     
0010001300214U 280000000000000000000000000000000000000000000000000000000000000000000000000000000000000000000000000000000000000000000000002103201700000000            000000000000000                              000                           
0010001300215T 280180230000001544772 29577050267046739   788888888888889920012017000000000007500001000000888888888888899          0900000000000000000000000000000000000000000000000000000   000000000000000000000005002        170192957705     
0010001300216U 280000000000000000000000000000000000000000000000000000000000000000000000000000000000000000000000000000000000000000000000002103201700000000            000000000000000                              000                           
0010001300217T 280180230000001544772 29577050267143914   788888888888889920012017000000000007500001000000888888888888899          0900000000000000000000000000000000000000000000000000000   000000000000000000000005002        170192957705     
0010001300218U 280000000000000000000000000000000000000000000000000000000000000000000000000000000000000000000000000000000000000000000000002103201700000000            000000000000000                              000                           
0010001300219T 280180230000001544772 29577050267244827   788888888888889920012017000000000007500001000000888888888888899          0900000000000000000000000000000000000000000000000000000   000000000000000000000005002        170192957705     
0010001300220U 280000000000000000000000000000000000000000000000000000000000000000000000000000000000000000000000000000000000000000000000002103201700000000            000000000000000                              000                           
0010001300221T 280180230000001544772 29577050267302680   788888888888889920012017000000000007500001000000888888888888899          0900000000000000000000000000000000000000000000000000000   000000000000000000000005002        170192957705     
0010001300222U 280000000000000000000000000000000000000000000000000000000000000000000000000000000000000000000000000000000000000000000000002103201700000000            000000000000000                              000                           
0010001300223T 280180230000001544772 29577050267551942   788888888888889920012017000000000007500001000000888888888888899          0900000000000000000000000000000000000000000000000000000   000000000000000000000005002        170192957705     
0010001300224U 280000000000000000000000000000000000000000000000000000000000000000000000000000000000000000000000000000000000000000000000002103201700000000            000000000000000                              000                           
0010001300225T 280180230000001544772 29577050267645207   788888888888889920012017000000000007500001000000888888888888899          0900000000000000000000000000000000000000000000000000000   000000000000000000000005002        170192957705     
0010001300226U 280000000000000000000000000000000000000000000000000000000000000000000000000000000000000000000000000000000000000000000000002103201700000000            000000000000000                              000                           
0010001300227T 280180230000001544772 29577050267758017   788888888888889920012017000000000007500001000000888888888888899          0900000000000000000000000000000000000000000000000000000   000000000000000000000005002        170192957705     
0010001300228U 280000000000000000000000000000000000000000000000000000000000000000000000000000000000000000000000000000000000000000000000002103201700000000            000000000000000                              000                           
0010001300229T 280180230000001544772 29577050267857370   788888888888889920012017000000000007500001000000888888888888899          0900000000000000000000000000000000000000000000000000000   000000000000000000000005002        170192957705     
0010001300230U 280000000000000000000000000000000000000000000000000000000000000000000000000000000000000000000000000000000000000000000000002103201700000000            000000000000000                              000                           
0010001300231T 280180230000001544772 29577050267953747   788888888888889920012017000000000007500001000000888888888888899          0900000000000000000000000000000000000000000000000000000   000000000000000000000005002        170192957705     
0010001300232U 280000000000000000000000000000000000000000000000000000000000000000000000000000000000000000000000000000000000000000000000002103201700000000            000000000000000                              000                           
0010001300233T 280180230000001544772 29577050268048347   788888888888889920012017000000000007500001000000888888888888899          0900000000000000000000000000000000000000000000000000000   000000000000000000000005002        170192957705     
0010001300234U 280000000000000000000000000000000000000000000000000000000000000000000000000000000000000000000000000000000000000000000000002103201700000000            000000000000000                              000                           
0010001300235T 280180230000001544772 29577050268134454   788888888888889920012017000000000010000001000000888888888888899          0900000000000000000000000000000000000000000000000000000   000000000000000000000005002        170192957705     
0010001300236U 280000000000000000000000000000000000000000000000000000000000000000000000000000000000000000000000000000000000000000000000002103201700000000            000000000000000                              000                           
0010001300237T 280180230000001544772 29577050268431107   788888888888889920012017000000000007500001000000888888888888899          0900000000000000000000000000000000000000000000000000000   000000000000000000000005002        170192957705     
0010001300238U 280000000000000000000000000000000000000000000000000000000000000000000000000000000000000000000000000000000000000000000000002103201700000000            000000000000000                              000                           
0010001300239T 280180230000001544772 29577050268527597   788888888888889920012017000000000007500001000000888888888888899          0900000000000000000000000000000000000000000000000000000   000000000000000000000005002        170192957705     
0010001300240U 280000000000000000000000000000000000000000000000000000000000000000000000000000000000000000000000000000000000000000000000002103201700000000            000000000000000                              000                           
0010001300241T 280180230000001544772 29577050268807117   788888888888889920012017000000000007500001000000888888888888899          0900000000000000000000000000000000000000000000000000000   000000000000000000000005002        170192957705     
0010001300242U 280000000000000000000000000000000000000000000000000000000000000000000000000000000000000000000000000000000000000000000000002103201700000000            000000000000000                              000                           
0010001300243T 280180230000001544772 29577050269107668   788888888888889920012017000000000007500001000000888888888888899          0900000000000000000000000000000000000000000000000000000   000000000000000000000005002        170192957705     
0010001300244U 280000000000000000000000000000000000000000000000000000000000000000000000000000000000000000000000000000000000000000000000002103201700000000            000000000000000                              000                           
0010001300245T 280180230000001544772 29577050269151182   788888888888889920012017000000000007500001000000888888888888899          0900000000000000000000000000000000000000000000000000000   000000000000000000000005002        170192957705     
0010001300246U 280000000000000000000000000000000000000000000000000000000000000000000000000000000000000000000000000000000000000000000000002103201700000000            000000000000000                              000                           
0010001300247T 280180230000001544772 29577050269224623   788888888888889920012017000000000007500001000000888888888888899          0900000000000000000000000000000000000000000000000000000   000000000000000000000005002        170192957705     
0010001300248U 280000000000000000000000000000000000000000000000000000000000000000000000000000000000000000000000000000000000000000000000002103201700000000            000000000000000                              000                           
0010001300249T 280180230000001544772 29577050269302158   788888888888889920012017000000000007500001000000888888888888899          0900000000000000000000000000000000000000000000000000000   000000000000000000000005002        170192957705     
0010001300250U 280000000000000000000000000000000000000000000000000000000000000000000000000000000000000000000000000000000000000000000000002103201700000000            000000000000000                              000                           
0010001300251T 280180230000001544772 29577050269445479   788888888888889920012017000000000007500001000000888888888888899          0900000000000000000000000000000000000000000000000000000   000000000000000000000005002        170192957705     
0010001300252U 280000000000000000000000000000000000000000000000000000000000000000000000000000000000000000000000000000000000000000000000002103201700000000            000000000000000                              000                           
0010001300253T 280180230000001544772 29577050269524371   788888888888889920012017000000000007500001000000888888888888899          0900000000000000000000000000000000000000000000000000000   000000000000000000000005002        170192957705     
0010001300254U 280000000000000000000000000000000000000000000000000000000000000000000000000000000000000000000000000000000000000000000000002103201700000000            000000000000000                              000                           
0010001300255T 280180230000001544772 29577050269637173   788888888888889920012017000000000007500001000000888888888888899          0900000000000000000000000000000000000000000000000000000   000000000000000000000005002        170192957705     
0010001300256U 280000000000000000000000000000000000000000000000000000000000000000000000000000000000000000000000000000000000000000000000002103201700000000            000000000000000                              000                           
0010001300257T 280180230000001544772 29577050269753518   788888888888889920012017000000000007500001000000888888888888899          0900000000000000000000000000000000000000000000000000000   000000000000000000000005002        170192957705     
0010001300258U 280000000000000000000000000000000000000000000000000000000000000000000000000000000000000000000000000000000000000000000000002103201700000000            000000000000000                              000                           
0010001300259T 280180230000001544772 29577050269813735   788888888888889920012017000000000007500001000000888888888888899          0900000000000000000000000000000000000000000000000000000   000000000000000000000005002        170192957705     
0010001300260U 280000000000000000000000000000000000000000000000000000000000000000000000000000000000000000000000000000000000000000000000002103201700000000            000000000000000                              000                           
0010001300261T 280180230000001544772 29577050269944094   788888888888889920012017000000000007500001000000888888888888899          0900000000000000000000000000000000000000000000000000000   000000000000000000000005002        170192957705     
0010001300262U 280000000000000000000000000000000000000000000000000000000000000000000000000000000000000000000000000000000000000000000000002103201700000000            000000000000000                              000                           
0010001300263T 280180230000001544772 29577050270040983   788888888888889920012017000000000007500001000000888888888888899          0900000000000000000000000000000000000000000000000000000   000000000000000000000005002        170192957705     
0010001300264U 280000000000000000000000000000000000000000000000000000000000000000000000000000000000000000000000000000000000000000000000002103201700000000            000000000000000                              000                           
0010001300265T 280180230000001544772 29577050270220703   788888888888889920012017000000000007500001000000888888888888899          0900000000000000000000000000000000000000000000000000000   000000000000000000000005002        170192957705     
0010001300266U 280000000000000000000000000000000000000000000000000000000000000000000000000000000000000000000000000000000000000000000000002103201700000000            000000000000000                              000                           
0010001300267T 280180230000001544772 29577050270306580   788888888888889920012017000000000007500001000000888888888888899          0900000000000000000000000000000000000000000000000000000   000000000000000000000005002        170192957705     
0010001300268U 280000000000000000000000000000000000000000000000000000000000000000000000000000000000000000000000000000000000000000000000002103201700000000            000000000000000                              000                           
0010001300269T 280180230000001544772 29577050270420297   788888888888889920012017000000000007500001000000888888888888899          0900000000000000000000000000000000000000000000000000000   000000000000000000000005002        170192957705     
0010001300270U 280000000000000000000000000000000000000000000000000000000000000000000000000000000000000000000000000000000000000000000000002103201700000000            000000000000000                              000                           
0010001300271T 280180230000001544772 29577050270501057   788888888888889920012017000000000007500001000000888888888888899          0900000000000000000000000000000000000000000000000000000   000000000000000000000005002        170192957705     
0010001300272U 280000000000000000000000000000000000000000000000000000000000000000000000000000000000000000000000000000000000000000000000002103201700000000            000000000000000                              000                           
0010001300273T 280180230000001544772 29577050270528328   788888888888889920012017000000000007500001000000888888888888899          0900000000000000000000000000000000000000000000000000000   000000000000000000000005002        170192957705     
0010001300274U 280000000000000000000000000000000000000000000000000000000000000000000000000000000000000000000000000000000000000000000000002103201700000000            000000000000000                              000                           
0010001300275T 280180230000001544772 29577050270547695   788888888888889920012017000000000007500001000000888888888888899          0900000000000000000000000000000000000000000000000000000   000000000000000000000005002        170192957705     
0010001300276U 280000000000000000000000000000000000000000000000000000000000000000000000000000000000000000000000000000000000000000000000002103201700000000            000000000000000                              000                           
0010001300277T 280180230000001544772 29577050270919164   788888888888889920012017000000000007500001000000888888888888899          0900000000000000000000000000000000000000000000000000000   000000000000000000000005002        170192957705     
0010001300278U 280000000000000000000000000000000000000000000000000000000000000000000000000000000000000000000000000000000000000000000000002103201700000000            000000000000000                              000                           
0010001300279T 280180230000001544772 29577050271017526   788888888888889920012017000000000007500001000000888888888888899          0900000000000000000000000000000000000000000000000000000   000000000000000000000005002        170192957705     
0010001300280U 280000000000000000000000000000000000000000000000000000000000000000000000000000000000000000000000000000000000000000000000002103201700000000            000000000000000                              000                           
0010001300281T 280180230000001544772 29577050271149863   788888888888889920012017000000000007500001000000888888888888899          0900000000000000000000000000000000000000000000000000000   000000000000000000000005002        170192957705     
0010001300282U 280000000000000000000000000000000000000000000000000000000000000000000000000000000000000000000000000000000000000000000000002103201700000000            000000000000000                              000                           
0010001300283T 280180230000001544772 29577050271317736   788888888888889920012017000000000007500001000000888888888888899          0900000000000000000000000000000000000000000000000000000   000000000000000000000005002        170192957705     
0010001300284U 280000000000000000000000000000000000000000000000000000000000000000000000000000000000000000000000000000000000000000000000002103201700000000            000000000000000                              000                           
0010001300285T 280180230000001544772 29577050271322183   788888888888889920012017000000000007500001000000888888888888899          0900000000000000000000000000000000000000000000000000000   000000000000000000000005002        170192957705     
0010001300286U 280000000000000000000000000000000000000000000000000000000000000000000000000000000000000000000000000000000000000000000000002103201700000000            000000000000000                              000                           
0010001300287T 280180230000001544772 29577050271458893   788888888888889920012017000000000007500001000000888888888888899          0900000000000000000000000000000000000000000000000000000   000000000000000000000005002        170192957705     
0010001300288U 280000000000000000000000000000000000000000000000000000000000000000000000000000000000000000000000000000000000000000000000002103201700000000            000000000000000                              000                           
0010001300289T 280180230000001544772 29577050271619512   788888888888889920012017000000000007500001000000888888888888899          0900000000000000000000000000000000000000000000000000000   000000000000000000000005002        170192957705     
0010001300290U 280000000000000000000000000000000000000000000000000000000000000000000000000000000000000000000000000000000000000000000000002103201700000000            000000000000000                              000                           
0010001300291T 280180230000001544772 29577050271718239   788888888888889920012017000000000007500001000000888888888888899          0900000000000000000000000000000000000000000000000000000   000000000000000000000005002        170192957705     
0010001300292U 280000000000000000000000000000000000000000000000000000000000000000000000000000000000000000000000000000000000000000000000002103201700000000            000000000000000                              000                           
0010001300293T 280180230000001544772 29577050271835928   788888888888889920012017000000000007500001000000888888888888899          0900000000000000000000000000000000000000000000000000000   000000000000000000000005002        170192957705     
0010001300294U 280000000000000000000000000000000000000000000000000000000000000000000000000000000000000000000000000000000000000000000000002103201700000000            000000000000000                              000                           
0010001300295T 280180230000001544772 29577050271914605   788888888888889920012017000000000007500001000000888888888888899          0900000000000000000000000000000000000000000000000000000   000000000000000000000005002        170192957705     
0010001300296U 280000000000000000000000000000000000000000000000000000000000000000000000000000000000000000000000000000000000000000000000002103201700000000            000000000000000                              000                           
0010001300297T 280180230000001544772 29577050272024597   788888888888889920012017000000000007500001000000888888888888899          0900000000000000000000000000000000000000000000000000000   000000000000000000000005002        170192957705     
0010001300298U 280000000000000000000000000000000000000000000000000000000000000000000000000000000000000000000000000000000000000000000000002103201700000000            000000000000000                              000                           
0010001300299T 280180230000001544772 29577050272036143   788888888888889920012017000000000007500001000000888888888888899          0900000000000000000000000000000000000000000000000000000   000000000000000000000005002        170192957705     
0010001300300U 280000000000000000000000000000000000000000000000000000000000000000000000000000000000000000000000000000000000000000000000002103201700000000            000000000000000                              000                           
0010001300301T 280180230000001544772 29577050272231268   788888888888889920012017000000000007500001000000888888888888899          0900000000000000000000000000000000000000000000000000000   000000000000000000000005002        170192957705     
0010001300302U 280000000000000000000000000000000000000000000000000000000000000000000000000000000000000000000000000000000000000000000000002103201700000000            000000000000000                              000                           
0010001300303T 280180230000001544772 29577050272312643   788888888888889920012017000000000007500001000000888888888888899          0900000000000000000000000000000000000000000000000000000   000000000000000000000005002        170192957705     
0010001300304U 280000000000000000000000000000000000000000000000000000000000000000000000000000000000000000000000000000000000000000000000002103201700000000            000000000000000                              000                           
0010001300305T 280180230000001544772 29577050272410092   788888888888889920012017000000000007500001000000888888888888899          0900000000000000000000000000000000000000000000000000000   000000000000000000000005002        170192957705     
0010001300306U 280000000000000000000000000000000000000000000000000000000000000000000000000000000000000000000000000000000000000000000000002103201700000000            000000000000000                              000                           
0010001300307T 280180230000001544772 29577050272511750   788888888888889920012017000000000007500001000000888888888888899          0900000000000000000000000000000000000000000000000000000   000000000000000000000005002        170192957705     
0010001300308U 280000000000000000000000000000000000000000000000000000000000000000000000000000000000000000000000000000000000000000000000002103201700000000            000000000000000                              000                           
0010001300309T 280180230000001544772 29577050272519247   788888888888889920012017000000000007500001000000888888888888899          0900000000000000000000000000000000000000000000000000000   000000000000000000000005002        170192957705     
0010001300310U 280000000000000000000000000000000000000000000000000000000000000000000000000000000000000000000000000000000000000000000000002103201700000000            000000000000000                              000                           
0010001300311T 280180230000001544772 29577050272528724   788888888888889920012017000000000007500001000000888888888888899          0900000000000000000000000000000000000000000000000000000   000000000000000000000005002        170192957705     
0010001300312U 280000000000000000000000000000000000000000000000000000000000000000000000000000000000000000000000000000000000000000000000002103201700000000            000000000000000                              000                           
0010001300313T 280180230000001544772 29577050272546417   788888888888889920012017000000000007500001000000888888888888899          0900000000000000000000000000000000000000000000000000000   000000000000000000000005002        170192957705     
0010001300314U 280000000000000000000000000000000000000000000000000000000000000000000000000000000000000000000000000000000000000000000000002103201700000000            000000000000000                              000                           
0010001300315T 280180230000001544772 29577050272625473   788888888888889920012017000000000007500001000000888888888888899          0900000000000000000000000000000000000000000000000000000   000000000000000000000005002        170192957705     
0010001300316U 280000000000000000000000000000000000000000000000000000000000000000000000000000000000000000000000000000000000000000000000002103201700000000            000000000000000                              000                           
0010001300317T 280180230000001544772 29577050272852038   788888888888889920012017000000000010000001000000888888888888899          0900000000000000000000000000000000000000000000000000000   000000000000000000000005002        170192957705     
0010001300318U 280000000000000000000000000000000000000000000000000000000000000000000000000000000000000000000000000000000000000000000000002103201700000000            000000000000000                              000                           
0010001300319T 280180230000001544772 29577050272904129   788888888888889920012017000000000007500001000000888888888888899          0900000000000000000000000000000000000000000000000000000   000000000000000000000005002        170192957705     
0010001300320U 280000000000000000000000000000000000000000000000000000000000000000000000000000000000000000000000000000000000000000000000002103201700000000            000000000000000                              000                           
0010001300321T 280180230000001544772 29577050273018079   788888888888889920012017000000000007500001000000888888888888899          0900000000000000000000000000000000000000000000000000000   000000000000000000000005002        170192957705     
0010001300322U 280000000000000000000000000000000000000000000000000000000000000000000000000000000000000000000000000000000000000000000000002103201700000000            000000000000000                              000                           
0010001300323T 280180230000001544772 29577050273213018   788888888888889920012017000000000007500001000000888888888888899          0900000000000000000000000000000000000000000000000000000   000000000000000000000005002        170192957705     
0010001300324U 280000000000000000000000000000000000000000000000000000000000000000000000000000000000000000000000000000000000000000000000002103201700000000            000000000000000                              000                           
0010001300325T 280180230000001544772 29577050273355731   788888888888889920012017000000000007500001000000888888888888899          0900000000000000000000000000000000000000000000000000000   000000000000000000000005002        170192957705     
0010001300326U 280000000000000000000000000000000000000000000000000000000000000000000000000000000000000000000000000000000000000000000000002103201700000000            000000000000000                              000                           
0010001300327T 280180230000001544772 29577050273439178   788888888888889920012017000000000007500001000000888888888888899          0900000000000000000000000000000000000000000000000000000   000000000000000000000005002        170192957705     
0010001300328U 280000000000000000000000000000000000000000000000000000000000000000000000000000000000000000000000000000000000000000000000002103201700000000            000000000000000                              000                           
0010001300329T 280180230000001544772 29577050273527630   788888888888889920012017000000000007500001000000888888888888899          0900000000000000000000000000000000000000000000000000000   000000000000000000000005002        170192957705     
0010001300330U 280000000000000000000000000000000000000000000000000000000000000000000000000000000000000000000000000000000000000000000000002103201700000000            000000000000000                              000                           
0010001300331T 280180230000001544772 29577050273622074   788888888888889920012017000000000010000001000000888888888888899          0900000000000000000000000000000000000000000000000000000   000000000000000000000005002        170192957705     
0010001300332U 280000000000000000000000000000000000000000000000000000000000000000000000000000000000000000000000000000000000000000000000002103201700000000            000000000000000                              000                           
0010001300333T 280180230000001544772 29577050273647640   788888888888889920012017000000000010000001000000888888888888899          0900000000000000000000000000000000000000000000000000000   000000000000000000000005002        170192957705     
0010001300334U 280000000000000000000000000000000000000000000000000000000000000000000000000000000000000000000000000000000000000000000000002103201700000000            000000000000000                              000                           
0010001300335T 280180230000001544772 29577050273740572   788888888888889920012017000000000007500001000000888888888888899          0900000000000000000000000000000000000000000000000000000   000000000000000000000005002        170192957705     
0010001300336U 280000000000000000000000000000000000000000000000000000000000000000000000000000000000000000000000000000000000000000000000002103201700000000            000000000000000                              000                           
0010001300337T 280180230000001544772 29577050284551383   7               19022017000000000007500001000000                         0900000000000000000000000000000000000000000000000000000   000000000000000000000005002        170192957705     
0010001300338U 280000000000000000000000000000000000000000000000000000000000000000000000000000000000000000000000000000000000000000000000002103201700000000            000000000000000                              000                           
0010001300339T 280180230000001544772 29577050335639617   7               19022017000000000007500001000000                         0900000000000000000000000000000000000000000000000000000   000000000000000000000005002        170192957705     
0010001300340U 280000000000000000000000000000000000000000000000000000000000000000000000000000000000000000000000000000000000000000000000002103201700000000            000000000000000                              000                           
0010001300341T 280180230000001544772 29577050357719162   7               19022017000000000007500001000000                         0900000000000000000000000000000000000000000000000000000   000000000000000000000005002        170192957705     
0010001300342U 280000000000000000000000000000000000000000000000000000000000000000000000000000000000000000000000000000000000000000000000002103201700000000            000000000000000                              000                           
0010001300343T 280180230000001544772 29577050383532087   7               19022017000000000007500001000000                         0900000000000000000000000000000000000000000000000000000   000000000000000000000005002        170192957705     
0010001300344U 280000000000000000000000000000000000000000000000000000000000000000000000000000000000000000000000000000000000000000000000002103201700000000            000000000000000                              000                           
0010001300345T 280180230000001544772 29577050389319210   7               19022017000000000007500001000000                         0900000000000000000000000000000000000000000000000000000   000000000000000000000005002        170192957705     
0010001300346U 280000000000000000000000000000000000000000000000000000000000000000000000000000000000000000000000000000000000000000000000002103201700000000            000000000000000                              000                           
0010001300347T 280180230000001544772 29577050397738802   7               19022017000000000007500001000000                         0900000000000000000000000000000000000000000000000000000   000000000000000000000005002        170192957705     
0010001300348U 280000000000000000000000000000000000000000000000000000000000000000000000000000000000000000000000000000000000000000000000002103201700000000            000000000000000                              000                           
0010001300349T 280180230000001544772 29577050403710437   7               19022017000000000007500001000000                         0900000000000000000000000000000000000000000000000000000   000000000000000000000005002        170192957705     
0010001300350U 280000000000000000000000000000000000000000000000000000000000000000000000000000000000000000000000000000000000000000000000002103201700000000            000000000000000                              000                           
0010001300351T 280180230000001544772 29577050424248248   7               19022017000000000007500001000000                         0900000000000000000000000000000000000000000000000000000   000000000000000000000005002        170192957705     
0010001300352U 280000000000000000000000000000000000000000000000000000000000000000000000000000000000000000000000000000000000000000000000002103201700000000            000000000000000                              000                           
0010001300353T 280180230000001544772 29577050439549358   7               19022017000000000007500001000000                         0900000000000000000000000000000000000000000000000000000   000000000000000000000005002        170192957705     
0010001300354U 280000000000000000000000000000000000000000000000000000000000000000000000000000000000000000000000000000000000000000000000002103201700000000            000000000000000                              000                           
0010001300355T 280180230000001544772 29577050476453041   7               19022017000000000007500001000000                         0900000000000000000000000000000000000000000000000000000   000000000000000000000005002        170192957705     
0010001300356U 280000000000000000000000000000000000000000000000000000000000000000000000000000000000000000000000000000000000000000000000002103201700000000            000000000000000                              000                           
0010001300357T 280180230000001544772 29577050509630886   7               19022017000000000010000001000000                         0900000000000000000000000000000000000000000000000000000   000000000000000000000005002        170192957705     
0010001300358U 280000000000000000000000000000000000000000000000000000000000000000000000000000000000000000000000000000000000000000000000002103201700000000            000000000000000                              000                           
0010001300359T 280180230000001544772 29577050510616261   7               19022017000000000007500001000000                         0900000000000000000000000000000000000000000000000000000   000000000000000000000005002        170192957705     
0010001300360U 280000000000000000000000000000000000000000000000000000000000000000000000000000000000000000000000000000000000000000000000002103201700000000            000000000000000                              000                           
0010001300361T 280180230000001544772 29577050529427692   7               19022017000000000007500001000000                         0900000000000000000000000000000000000000000000000000000   000000000000000000000005002        170192957705     
0010001300362U 280000000000000000000000000000000000000000000000000000000000000000000000000000000000000000000000000000000000000000000000002103201700000000            000000000000000                              000                           
0010001300363T 280180230000001544772 29577050733342210   7               19022017000000000007500001000000                         0900000000000000000000000000000000000000000000000000000   000000000000000000000005002        170192957705     
0010001300364U 280000000000000000000000000000000000000000000000000000000000000000000000000000000000000000000000000000000000000000000000002103201700000000            000000000000000                              000                           
0010001300365T 280180230000001544772 29577050735649560   7               19022017000000000007500001000000                         0900000000000000000000000000000000000000000000000000000   000000000000000000000005002        170192957705     
0010001300366U 280000000000000000000000000000000000000000000000000000000000000000000000000000000000000000000000000000000000000000000000002103201700000000            000000000000000                              000                           
0010001300367T 280180230000001544772 29577050736251908   7               19022017000000000007500001000000                         0900000000000000000000000000000000000000000000000000000   000000000000000000000005002        170192957705     
0010001300368U 280000000000000000000000000000000000000000000000000000000000000000000000000000000000000000000000000000000000000000000000002103201700000000            000000000000000                              000                           
0010001300369T 280180230000001544772 29577050736544175   7               19022017000000000007500001000000                         0900000000000000000000000000000000000000000000000000000   000000000000000000000005002        170192957705     
0010001300370U 280000000000000000000000000000000000000000000000000000000000000000000000000000000000000000000000000000000000000000000000002103201700000000            000000000000000                              000                           
0010001300371T 280180230000001544772 29577050736611896   7               19022017000000000007500001000000                         0900000000000000000000000000000000000000000000000000000   000000000000000000000005002        170192957705     
0010001300372U 280000000000000000000000000000000000000000000000000000000000000000000000000000000000000000000000000000000000000000000000002103201700000000            000000000000000                              000                           
0010001300373T 280180230000001544772 29577050737453599   7               19022017000000000007500001000000                         0900000000000000000000000000000000000000000000000000000   000000000000000000000005002        170192957705     
0010001300374U 280000000000000000000000000000000000000000000000000000000000000000000000000000000000000000000000000000000000000000000000002103201700000000            000000000000000                              000                           
0010001300375T 280180230000001544772 29577050737739679   7               19022017000000000007500001000000                         0900000000000000000000000000000000000000000000000000000   000000000000000000000005002        170192957705     
0010001300376U 280000000000000000000000000000000000000000000000000000000000000000000000000000000000000000000000000000000000000000000000002103201700000000            000000000000000                              000                           
0010001300377T 280180230000001544772 29577050737742924   7               19022017000000000007500001000000                         0900000000000000000000000000000000000000000000000000000   000000000000000000000005002        170192957705     
0010001300378U 280000000000000000000000000000000000000000000000000000000000000000000000000000000000000000000000000000000000000000000000002103201700000000            000000000000000                              000                           
0010001300379T 280180230000001544772 29577050738051052   7               19022017000000000007500001000000                         0900000000000000000000000000000000000000000000000000000   000000000000000000000005002        170192957705     
0010001300380U 280000000000000000000000000000000000000000000000000000000000000000000000000000000000000000000000000000000000000000000000002103201700000000            000000000000000                              000                           
0010001300381T 280180230000001544772 29577050738805744   7               19022017000000000007500001000000                         0900000000000000000000000000000000000000000000000000000   000000000000000000000005002        170192957705     
0010001300382U 280000000000000000000000000000000000000000000000000000000000000000000000000000000000000000000000000000000000000000000000002103201700000000            000000000000000                              000                           
0010001300383T 280180230000001544772 29577050739602304   7               19022017000000000007500001000000                         0900000000000000000000000000000000000000000000000000000   000000000000000000000005002        170192957705     
0010001300384U 280000000000000000000000000000000000000000000000000000000000000000000000000000000000000000000000000000000000000000000000002103201700000000            000000000000000                              000                           
0010001300385T 280180230000001544772 29577050739617523   7               19022017000000000007500001000000                         0900000000000000000000000000000000000000000000000000000   000000000000000000000005002        170192957705     
0010001300386U 280000000000000000000000000000000000000000000000000000000000000000000000000000000000000000000000000000000000000000000000002103201700000000            000000000000000                              000                           
0010001300387T 280180230000001544772 29577050739631594   7               19022017000000000007500001000000                         0900000000000000000000000000000000000000000000000000000   000000000000000000000005002        170192957705     
0010001300388U 280000000000000000000000000000000000000000000000000000000000000000000000000000000000000000000000000000000000000000000000002103201700000000            000000000000000                              000                           
0010001300389T 280180230000001544772 29577050739648323   7               19022017000000000007500001000000                         0900000000000000000000000000000000000000000000000000000   000000000000000000000005002        170192957705     
0010001300390U 280000000000000000000000000000000000000000000000000000000000000000000000000000000000000000000000000000000000000000000000002103201700000000            000000000000000                              000                           
0010001300391T 280180230000001544772 29577050740207883   7               19022017000000000007500001000000                         0900000000000000000000000000000000000000000000000000000   000000000000000000000005002        170192957705     
0010001300392U 280000000000000000000000000000000000000000000000000000000000000000000000000000000000000000000000000000000000000000000000002103201700000000            000000000000000                              000                           
0010001300393T 280180230000001544772 29577050741424049   7               19022017000000000007500001000000                         0900000000000000000000000000000000000000000000000000000   000000000000000000000005002        170192957705     
0010001300394U 280000000000000000000000000000000000000000000000000000000000000000000000000000000000000000000000000000000000000000000000002103201700000000            000000000000000                              000                           
0010001300395T 280180230000001544772 29577050741629282   7               19022017000000000007500001000000                         0900000000000000000000000000000000000000000000000000000   000000000000000000000005002        170192957705     
0010001300396U 280000000000000000000000000000000000000000000000000000000000000000000000000000000000000000000000000000000000000000000000002103201700000000            000000000000000                              000                           
0010001300397T 280180230000001544772 29577050742626149   7               19022017000000000007500001000000                         0900000000000000000000000000000000000000000000000000000   000000000000000000000005002        170192957705     
0010001300398U 280000000000000000000000000000000000000000000000000000000000000000000000000000000000000000000000000000000000000000000000002103201700000000            000000000000000                              000                           
0010001300399T 280180230000001544772 29577050743849975   7               19022017000000000007500001000000                         0900000000000000000000000000000000000000000000000000000   000000000000000000000005002        170192957705     
0010001300400U 280000000000000000000000000000000000000000000000000000000000000000000000000000000000000000000000000000000000000000000000002103201700000000            000000000000000                              000                           
0010001300401T 280180230000001544772 29577050744406109   7               19022017000000000007500001000000                         0900000000000000000000000000000000000000000000000000000   000000000000000000000005002        170192957705     
0010001300402U 280000000000000000000000000000000000000000000000000000000000000000000000000000000000000000000000000000000000000000000000002103201700000000            000000000000000                              000                           
0010001300403T 280180230000001544772 29577050744655483   7               19022017000000000007500001000000                         0900000000000000000000000000000000000000000000000000000   000000000000000000000005002        170192957705     
0010001300404U 280000000000000000000000000000000000000000000000000000000000000000000000000000000000000000000000000000000000000000000000002103201700000000            000000000000000                              000                           
0010001300405T 280180230000001544772 29577050744856050   7               19022017000000000007500001000000                         0900000000000000000000000000000000000000000000000000000   000000000000000000000005002        170192957705     
0010001300406U 280000000000000000000000000000000000000000000000000000000000000000000000000000000000000000000000000000000000000000000000002103201700000000            000000000000000                              000                           
0010001300407T 280180230000001544772 29577050746928426   7               19022017000000000007500001000000                         0900000000000000000000000000000000000000000000000000000   000000000000000000000005002        170192957705     
0010001300408U 280000000000000000000000000000000000000000000000000000000000000000000000000000000000000000000000000000000000000000000000002103201700000000            000000000000000                              000                           
0010001300409T 280180230000001544772 29577050750102584   7               19022017000000000007500001000000                         0900000000000000000000000000000000000000000000000000000   000000000000000000000005002        170192957705     
0010001300410U 280000000000000000000000000000000000000000000000000000000000000000000000000000000000000000000000000000000000000000000000002103201700000000            000000000000000                              000                           
0010001300411T 280180230000001544772 29577050750635249   7               19022017000000000007500001000000                         0900000000000000000000000000000000000000000000000000000   000000000000000000000005002        170192957705     
0010001300412U 280000000000000000000000000000000000000000000000000000000000000000000000000000000000000000000000000000000000000000000000002103201700000000            000000000000000                              000                           
