00100000         2247745860001000029577050014       0180230000001544772 INSTITUTO DE SELECAO E TECNOLOBANCO DO BRASIL                         22703201702352100014803000000515122941PROCESSAMEN                                                 
00100011T0100020 20247745860001000029577050014       0180230000001544772 INSTITUTO DE SELECAO E TECNOLO                                                                                000000002703201700000000  000000000                      
0010001300001T 020180230000001544772 29577050034425474   7               29032017000000000007500001000213                         0900000000000010000000000000000000000000000000000000000   0000000000000000000000000A9        170192957705     
0010001300002U 020000000000000000000000000000000000000000000000000000000000000000000000000000000000000000000000000000000000000000000000002703201700000000            000000000000000                              000                           
0010001300003T 020180230000001544772 29577050321448136   7               2903201700000000000750000103049X                         0900000000000010000000000000000000000000000000000000000   0000000000000000000000000A9        170192957705     
0010001300004U 020000000000000000000000000000000000000000000000000000000000000000000000000000000000000000000000000000000000000000000000002703201700000000            000000000000000                              000                           
0010001300005T 020180230000001544772 29577050326414292   7               29032017000000000007500001012416                         0900000000000010000000000000000000000000000000000000000   0000000000000000000000000A9        170192957705     
0010001300006U 020000000000000000000000000000000000000000000000000000000000000000000000000000000000000000000000000000000000000000000000002703201700000000            000000000000000                              000                           
0010001300007T 020180230000001544772 29577050326456976   7               29032017000000000007500001012416                         0900000000000010000000000000000000000000000000000000000   0000000000000000000000000A9        170192957705     
0010001300008U 020000000000000000000000000000000000000000000000000000000000000000000000000000000000000000000000000000000000000000000000002703201700000000            000000000000000                              000                           
0010001300009T 020180230000001544772 29577050427742925   7               29032017000000000007500001045578                         0900000000000010000000000000000000000000000000000000000   0000000000000000000000000A9        170192957705     
0010001300010U 020000000000000000000000000000000000000000000000000000000000000000000000000000000000000000000000000000000000000000000000002703201700000000            000000000000000                              000                           
0010001300011T 020180230000001544772 29577050608947706   7               2903201700000000000750000103049X                         0900000000000010000000000000000000000000000000000000000   0000000000000000000000000A9        170192957705     
0010001300012U 020000000000000000000000000000000000000000000000000000000000000000000000000000000000000000000000000000000000000000000000002703201700000000            000000000000000                              000                           
0010001300013T 020180230000001544772 29577050865553252   7               2903201700000000000750000101981X                         0900000000000010000000000000000000000000000000000000000   0000000000000000000000000A9        170192957705     
0010001300014U 020000000000000000000000000000000000000000000000000000000000000000000000000000000000000000000000000000000000000000000000002703201700000000            000000000000000                              000                           
0010001300015T 020180230000001544772 29577050885235887   7               2903201700000000000750000103049X                         0900000000000010000000000000000000000000000000000000000   0000000000000000000000000A9        170192957705     
0010001300016U 020000000000000000000000000000000000000000000000000000000000000000000000000000000000000000000000000000000000000000000000002703201700000000            000000000000000                              000                           
0010001300017T 020180230000001544772 29577051043057929   7               29032017000000000007500001000213                         0900000000000010000000000000000000000000000000000000000   0000000000000000000000000A9        170192957705     
0010001300018U 020000000000000000000000000000000000000000000000000000000000000000000000000000000000000000000000000000000000000000000000002703201700000000            000000000000000                              000                           
0010001300019T 020180230000001544772 29577051171602836   7               28032017000000000010000001009245                         0900000000000010000000000000000000000000000000000000000   0000000000000000000000000A9        170192957705     
0010001300020U 020000000000000000000000000000000000000000000000000000000000000000000000000000000000000000000000000000000000000000000000002603201700000000            000000000000000                              000                           
0010001300021T 020180230000001544772 29577051171635017   7               28032017000000000010000001009245                         0900000000000010000000000000000000000000000000000000000   0000000000000000000000000A9        170192957705     
0010001300022U 020000000000000000000000000000000000000000000000000000000000000000000000000000000000000000000000000000000000000000000000002603201700000000            000000000000000                              000                           
0010001300023T 020180230000001544772 29577051171637720   7               28032017000000000010000001009245                         0900000000000010000000000000000000000000000000000000000   0000000000000000000000000A9        170192957705     
0010001300024U 020000000000000000000000000000000000000000000000000000000000000000000000000000000000000000000000000000000000000000000000002603201700000000            000000000000000                              000                           
0010001300025T 020180230000001544772 29577051171659084   7               28032017000000000010000001009245                         0900000000000010000000000000000000000000000000000000000   0000000000000000000000000A9        170192957705     
0010001300026U 020000000000000000000000000000000000000000000000000000000000000000000000000000000000000000000000000000000000000000000000002603201700000000            000000000000000                              000                           
0010001300027T 020180230000001544772 29577051201706381   7               2903201700000000000750000103049X                         0900000000000010000000000000000000000000000000000000000   0000000000000000000000000A9        170192957705     
0010001300028U 020000000000000000000000000000000000000000000000000000000000000000000000000000000000000000000000000000000000000000000000002703201700000000            000000000000000                              000                           
0010001300029T 020180230000001544772 29577051239902181   7               29032017000000000007500001012408                         0900000000000010000000000000000000000000000000000000000   0000000000000000000000000A9        170192957705     
0010001300030U 020000000000000000000000000000000000000000000000000000000000000000000000000000000000000000000000000000000000000000000000002703201700000000            000000000000000                              000                           
0010001300031T 020180230000001544772 29577051294641050   7               29032017000000000007500001012416                         0900000000000010000000000000000000000000000000000000000   0000000000000000000000000A9        170192957705     
0010001300032U 020000000000000000000000000000000000000000000000000000000000000000000000000000000000000000000000000000000000000000000000002703201700000000            000000000000000                              000                           
0010001300033T 020180230000001544772 29577051306047334   7               28032017000000000007500001000213                         0900000000000010000000000000000000000000000000000000000   0000000000000000000000000A9        170192957705     
0010001300034U 020000000000000000000000000000000000000000000000000000000000000000000000000000000000000000000000000000000000000000000000002603201700000000            000000000000000                              000                           
0010001300035T 020180230000001544772 29577051402055723   7               27032017000000000010000001012416                         0900000000000010000000000000000000000000000000000000000   0000000000000000000000000A9        170192957705     
0010001300036U 020000000000000000000000000000000000000000000000000000000000000000000000000000000000000000000000000000000000000000000000002503201700000000            000000000000000                              000                           
0010001300037T 020180230000001544772 29577051423100947   7               29032017000000000006000001000604                         0900000000000010000000000000000000000000000000000000000   0000000000000000000000000A9        170192957705     
0010001300038U 020000000000000000000000000000000000000000000000000000000000000000000000000000000000000000000000000000000000000000000000002703201700000000            000000000000000                              000                           
0010001300039T 020180230000001544772 29577051423154244   7               29032017000000000006000001000604                         0900000000000010000000000000000000000000000000000000000   0000000000000000000000000A9        170192957705     
0010001300040U 020000000000000000000000000000000000000000000000000000000000000000000000000000000000000000000000000000000000000000000000002703201700000000            000000000000000                              000                           
0010001300041T 020180230000001544772 29577051442807695   7               27032017000000000007500001002151                         0900000000000010000000000000000000000000000000000000000   0000000000000000000000000A9        170192957705     
0010001300042U 020000000000000000000000000000000000000000000000000000000000000000000000000000000000000000000000000000000000000000000000002503201700000000            000000000000000                              000                           
0010001300043T 020180230000001544772 29577051442911190   7               27032017000000000007500001016179                         0900000000000010000000000000000000000000000000000000000   0000000000000000000000000A9        170192957705     
0010001300044U 020000000000000000000000000000000000000000000000000000000000000000000000000000000000000000000000000000000000000000000000002503201700000000            000000000000000                              000                           
0010001300045T 020180230000001544772 29577051442932634   7               27032017000000000007500001016179                         0900000000000010000000000000000000000000000000000000000   0000000000000000000000000A9        170192957705     
0010001300046U 020000000000000000000000000000000000000000000000000000000000000000000000000000000000000000000000000000000000000000000000002503201700000000            000000000000000                              000                           
0010001300047T 020180230000001544772 29577051444700468   7               2803201700000000000750000103049X                         0900000000000010000000000000000000000000000000000000000   0000000000000000000000000A9        170192957705     
0010001300048U 020000000000000000000000000000000000000000000000000000000000000000000000000000000000000000000000000000000000000000000000002603201700000000            000000000000000                              000                           
0010001300049T 020180230000001544772 29577051445245188   7               28032017000000000007500001012408                         0900000000000010000000000000000000000000000000000000000   0000000000000000000000000A9        170192957705     
0010001300050U 020000000000000000000000000000000000000000000000000000000000000000000000000000000000000000000000000000000000000000000000002603201700000000            000000000000000                              000                           
0010001300051T 020180230000001544772 29577051445554900   7               28032017000000000007500001012416                         0900000000000010000000000000000000000000000000000000000   0000000000000000000000000A9        170192957705     
0010001300052U 020000000000000000000000000000000000000000000000000000000000000000000000000000000000000000000000000000000000000000000000002603201700000000            000000000000000                              000                           
0010001300053T 020180230000001544772 29577051446202898   7               28032017000000000007500001000833                         0900000000000010000000000000000000000000000000000000000   0000000000000000000000000A9        170192957705     
0010001300054U 020000000000000000000000000000000000000000000000000000000000000000000000000000000000000000000000000000000000000000000000002603201700000000            000000000000000                              000                           
0010001300055T 020180230000001544772 29577051447502580   7               28032017000000000010000001001554                         0900000000000010000000000000000000000000000000000000000   0000000000000000000000000A9        170192957705     
0010001300056U 020000000000000000000000000000000000000000000000000000000000000000000000000000000000000000000000000000000000000000000000002603201700000000            000000000000000                              000                           
0010001300057T 020180230000001544772 29577051447518815   7               28032017000000000010000001001554                         0900000000000010000000000000000000000000000000000000000   0000000000000000000000000A9        170192957705     
0010001300058U 020000000000000000000000000000000000000000000000000000000000000000000000000000000000000000000000000000000000000000000000002603201700000000            000000000000000                              000                           
0010001300059T 020180230000001544772 29577051447547986   7               28032017000000000010000001001554                         0900000000000010000000000000000000000000000000000000000   0000000000000000000000000A9        170192957705     
0010001300060U 020000000000000000000000000000000000000000000000000000000000000000000000000000000000000000000000000000000000000000000000002603201700000000            000000000000000                              000                           
0010001300061T 020180230000001544772 29577051447701131   7               2803201700000000000750000103049X                         0900000000000010000000000000000000000000000000000000000   0000000000000000000000000A9        170192957705     
0010001300062U 020000000000000000000000000000000000000000000000000000000000000000000000000000000000000000000000000000000000000000000000002603201700000000            000000000000000                              000                           
0010001300063T 020180230000001544772 29577051452750713   7               29032017000000000007500001012416                         0900000000000010000000000000000000000000000000000000000   0000000000000000000000000A9        170192957705     
0010001300064U 020000000000000000000000000000000000000000000000000000000000000000000000000000000000000000000000000000000000000000000000002703201700000000            000000000000000                              000                           
0010001300065T 020180230000001544772 29577051456624924   7               29032017000000000007500001000213                         0900000000000010000000000000000000000000000000000000000   0000000000000000000000000A9        170192957705     
0010001300066U 020000000000000000000000000000000000000000000000000000000000000000000000000000000000000000000000000000000000000000000000002703201700000000            000000000000000                              000                           
0010001300067T 020180230000001544772 29577051456629916   7               29032017000000000007500001000213                         0900000000000010000000000000000000000000000000000000000   0000000000000000000000000A9        170192957705     
0010001300068U 020000000000000000000000000000000000000000000000000000000000000000000000000000000000000000000000000000000000000000000000002703201700000000            000000000000000                              000                           
0010001300069T 020180230000001544772 29577051459620199   7               29032017000000000007500001002224                         0900000000000010000000000000000000000000000000000000000   0000000000000000000000000A9        170192957705     
0010001300070U 020000000000000000000000000000000000000000000000000000000000000000000000000000000000000000000000000000000000000000000000002703201700000000            000000000000000                              000                           
0010001300071T 020180230000001544772 29577051460250343   7               29032017000000000007500001000213                         0900000000000010000000000000000000000000000000000000000   0000000000000000000000000A9        170192957705     
0010001300072U 020000000000000000000000000000000000000000000000000000000000000000000000000000000000000000000000000000000000000000000000002703201700000000            000000000000000                              000                           
0010001300073T 020180230000001544772 29577051460506783   7               29032017000000000007500001000213                         0900000000000010000000000000000000000000000000000000000   0000000000000000000000000A9        170192957705     
0010001300074U 020000000000000000000000000000000000000000000000000000000000000000000000000000000000000000000000000000000000000000000000002703201700000000            000000000000000                              000                           
0010001300075T 020180230000001544772 29577051465317469   7               29032017000000000007500001016861                         0900000000000010000000000000000000000000000000000000000   0000000000000000000000000A9        170192957705     
0010001300076U 020000000000000000000000000000000000000000000000000000000000000000000000000000000000000000000000000000000000000000000000002703201700000000            000000000000000                              000                           
0010001300077T 020180230000001544772 29577051471730498   7               2903201700000000001000000103049X                         0900000000000010000000000000000000000000000000000000000   0000000000000000000000000A9        170192957705     
0010001300078U 020000000000000000000000000000000000000000000000000000000000000000000000000000000000000000000000000000000000000000000000002703201700000000            000000000000000                              000                           
0010001300079T 060180230000001544772 29577050034425474   7               29032017000000000007500341065550                         0900000000000010000000000000000000000000000000000000000   000000000000000000000029000        170192957705     
0010001300080U 060000000000000000000000000000000000000000000000000000000000000000000000075000000000000072100000000000000000000000000000002703201728032017            000000000000000                              000                           
0010001300081T 060180230000001544772 29577051043057929   7               29032017000000000007500104030840                         0900000000000010000000000000000000000000000000000000000   000000000000000000000029000        170192957705     
0010001300082U 060000000000000000000000000000000000000000000000000000000000000000000000075000000000000072100000000000000000000000000000002703201728032017            000000000000000                              000                           
0010001300083T 060180230000001544772 29577051382516200   7               25032017000000000007500104033080                         0900000000000010000000000000000000000000000000000000000   000000000000000000000029000        170192957705     
0010001300084U 060000000000000000000000000000000000000000000000000000000000000000000000075000000000000072100000000000000000000000000000002703201728032017            000000000000000                              000                           
0010001300085T 060180230000001544772 29577051432508368   7               26032017000000000010000104025030                         0900000000000010000000000000000000000000000000000000000   000000000000000000000029000        170192957705     
0010001300086U 060000000000000000000000000000000000000000000000000000000000000000000000100000000000000097100000000000000000000000000000002703201728032017            000000000000000                              000                           
0010001300087T 060180230000001544772 29577051445554900   7               28032017000000000007500021001020                         0900000000000010000000000000000000000000000000000000000   000000000000000000000029000        170192957705     
0010001300088U 060000000000000000000000000000000000000000000000000000000000000000000000075000000000000072100000000000000000000000000000002703201728032017            000000000000000                              000                           
0010001300089T 060180230000001544772 29577051452750713   7               29032017000000000007500237063210                         0900000000000010000000000000000000000000000000000000000   000000000000000000000029000        170192957705     
0010001300090U 060000000000000000000000000000000000000000000000000000000000000000000000075000000000000072100000000000000000000000000000002703201728032017            000000000000000                              000                           
0010001300091T 090180230000001544772 29577050017920702   788888888888889925122016000000000007500001012416888888888888899          0900000000000000000000000000000000000000000000000000000   000000000000000000000010009        170192957705     
0010001300092U 090000000000000000000000000000000000000000000000000000000000000000000000000000000000000000000000000000000000000000000000002703201700000000            000000000000000                              000                           
0010001300093T 090180230000001544772 29577050018118343   788888888888889927122016000000000007500001009245888888888888899          0900000000000000000000000000000000000000000000000000000   000000000000000000000010009        170192957705     
0010001300094U 090000000000000000000000000000000000000000000000000000000000000000000000000000000000000000000000000000000000000000000000002703201700000000            000000000000000                              000                           
0010001300095T 090180230000001544772 29577050019413613   788888888888889925122016000000000010000001000213888888888888899          0900000000000000000000000000000000000000000000000000000   000000000000000000000010009        170192957705     
0010001300096U 090000000000000000000000000000000000000000000000000000000000000000000000000000000000000000000000000000000000000000000000002703201700000000            000000000000000                              000                           
0010001300097T 090180230000001544772 29577050019441328   788888888888889925122016000000000010000001000213888888888888899          0900000000000000000000000000000000000000000000000000000   000000000000000000000010009        170192957705     
0010001300098U 090000000000000000000000000000000000000000000000000000000000000000000000000000000000000000000000000000000000000000000000002703201700000000            000000000000000                              000                           
0010001300099T 090180230000001544772 29577050045418688   788888888888889925122016000000000007500001046280888888888888899          0900000000000000000000000000000000000000000000000000000   000000000000000000000010009        170192957705     
0010001300100U 090000000000000000000000000000000000000000000000000000000000000000000000000000000000000000000000000000000000000000000000002703201700000000            000000000000000                              000                           
0010001300101T 090180230000001544772 29577050046207337   788888888888889925122016000000000007500001012408888888888888899          0900000000000000000000000000000000000000000000000000000   000000000000000000000010009        170192957705     
0010001300102U 090000000000000000000000000000000000000000000000000000000000000000000000000000000000000000000000000000000000000000000000002703201700000000            000000000000000                              000                           
0010001300103T 090180230000001544772 29577050046207665   788888888888889925122016000000000007500001012408888888888888899          0900000000000000000000000000000000000000000000000000000   000000000000000000000010009        170192957705     
0010001300104U 090000000000000000000000000000000000000000000000000000000000000000000000000000000000000000000000000000000000000000000000002703201700000000            000000000000000                              000                           
0010001300105T 090180230000001544772 29577050046220758   788888888888889925122016000000000007500001012408888888888888899          0900000000000000000000000000000000000000000000000000000   000000000000000000000010009        170192957705     
0010001300106U 090000000000000000000000000000000000000000000000000000000000000000000000000000000000000000000000000000000000000000000000002703201700000000            000000000000000                              000                           
0010001300107T 090180230000001544772 29577050048032654   788888888888889925122016000000000007500001010561888888888888899          0900000000000000000000000000000000000000000000000000000   000000000000000000000010009        170192957705     
0010001300108U 090000000000000000000000000000000000000000000000000000000000000000000000000000000000000000000000000000000000000000000000002703201700000000            000000000000000                              000                           
0010001300109T 090180230000001544772 29577050048115921   788888888888889925122016000000000007500001012408888888888888899          0900000000000000000000000000000000000000000000000000000   000000000000000000000010009        170192957705     
0010001300110U 090000000000000000000000000000000000000000000000000000000000000000000000000000000000000000000000000000000000000000000000002703201700000000            000000000000000                              000                           
0010001300111T 090180230000001544772 29577050048347090   788888888888889925122016000000000010000001004782888888888888899          0900000000000000000000000000000000000000000000000000000   000000000000000000000010009        170192957705     
0010001300112U 090000000000000000000000000000000000000000000000000000000000000000000000000000000000000000000000000000000000000000000000002703201700000000            000000000000000                              000                           
0010001300113T 090180230000001544772 29577050048423354   788888888888889925122016000000000007500001012416888888888888899          0900000000000000000000000000000000000000000000000000000   000000000000000000000010009        170192957705     
0010001300114U 090000000000000000000000000000000000000000000000000000000000000000000000000000000000000000000000000000000000000000000000002703201700000000            000000000000000                              000                           
0010001300115T 090180230000001544772 29577050048751040   788888888888889925122016000000000007500001000213888888888888899          0900000000000000000000000000000000000000000000000000000   000000000000000000000010009        170192957705     
0010001300116U 090000000000000000000000000000000000000000000000000000000000000000000000000000000000000000000000000000000000000000000000002703201700000000            000000000000000                              000                           
0010001300117T 090180230000001544772 29577050049342286   788888888888889925122016000000000007500001000213888888888888899          0900000000000000000000000000000000000000000000000000000   000000000000000000000010009        170192957705     
0010001300118U 090000000000000000000000000000000000000000000000000000000000000000000000000000000000000000000000000000000000000000000000002703201700000000            000000000000000                              000                           
0010001300119T 090180230000001544772 29577050049754643   788888888888889925122016000000000007500001008443888888888888899          0900000000000000000000000000000000000000000000000000000   000000000000000000000010009        170192957705     
0010001300120U 090000000000000000000000000000000000000000000000000000000000000000000000000000000000000000000000000000000000000000000000002703201700000000            000000000000000                              000                           
0010001300121T 090180230000001544772 29577050049951051   788888888888889925122016000000000007500001009245888888888888899          0900000000000000000000000000000000000000000000000000000   000000000000000000000010009        170192957705     
0010001300122U 090000000000000000000000000000000000000000000000000000000000000000000000000000000000000000000000000000000000000000000000002703201700000000            000000000000000                              000                           
0010001300123T 090180230000001544772 29577050049959510   788888888888889925122016000000000007500001009245888888888888899          0900000000000000000000000000000000000000000000000000000   000000000000000000000010009        170192957705     
0010001300124U 090000000000000000000000000000000000000000000000000000000000000000000000000000000000000000000000000000000000000000000000002703201700000000            000000000000000                              000                           
0010001300125T 090180230000001544772 29577050050226398   788888888888889925122016000000000007500001012416888888888888899          0900000000000000000000000000000000000000000000000000000   000000000000000000000010009        170192957705     
0010001300126U 090000000000000000000000000000000000000000000000000000000000000000000000000000000000000000000000000000000000000000000000002703201700000000            000000000000000                              000                           
0010001300127T 090180230000001544772 29577050050716596   788888888888889925122016000000000007500001012408888888888888899          0900000000000000000000000000000000000000000000000000000   000000000000000000000010009        170192957705     
0010001300128U 090000000000000000000000000000000000000000000000000000000000000000000000000000000000000000000000000000000000000000000000002703201700000000            000000000000000                              000                           
0010001300129T 090180230000001544772 29577050050846755   788888888888889925122016000000000007500001012408888888888888899          0900000000000000000000000000000000000000000000000000000   000000000000000000000010009        170192957705     
0010001300130U 090000000000000000000000000000000000000000000000000000000000000000000000000000000000000000000000000000000000000000000000002703201700000000            000000000000000                              000                           
0010001300131T 090180230000001544772 29577050051016736   788888888888889925122016000000000007500001002097888888888888899          0900000000000000000000000000000000000000000000000000000   000000000000000000000010009        170192957705     
0010001300132U 090000000000000000000000000000000000000000000000000000000000000000000000000000000000000000000000000000000000000000000000002703201700000000            000000000000000                              000                           
0010001300133T 090180230000001544772 29577050051023575   788888888888889925122016000000000007500001002097888888888888899          0900000000000000000000000000000000000000000000000000000   000000000000000000000010009        170192957705     
0010001300134U 090000000000000000000000000000000000000000000000000000000000000000000000000000000000000000000000000000000000000000000000002703201700000000            000000000000000                              000                           
0010001300135T 090180230000001544772 29577050051026795   788888888888889925122016000000000007500001002097888888888888899          0900000000000000000000000000000000000000000000000000000   000000000000000000000010009        170192957705     
0010001300136U 090000000000000000000000000000000000000000000000000000000000000000000000000000000000000000000000000000000000000000000000002703201700000000            000000000000000                              000                           
0010001300137T 090180230000001544772 29577050051909753   788888888888889925122016000000000007500001000213888888888888899          0900000000000000000000000000000000000000000000000000000   000000000000000000000010009        170192957705     
0010001300138U 090000000000000000000000000000000000000000000000000000000000000000000000000000000000000000000000000000000000000000000000002703201700000000            000000000000000                              000                           
0010001300139T 090180230000001544772 29577050052115030   788888888888889925122016000000000007500001000833888888888888899          0900000000000000000000000000000000000000000000000000000   000000000000000000000010009        170192957705     
0010001300140U 090000000000000000000000000000000000000000000000000000000000000000000000000000000000000000000000000000000000000000000000002703201700000000            000000000000000                              000                           
0010001300141T 090180230000001544772 29577050052123852   788888888888889925122016000000000007500001000833888888888888899          0900000000000000000000000000000000000000000000000000000   000000000000000000000010009        170192957705     
0010001300142U 090000000000000000000000000000000000000000000000000000000000000000000000000000000000000000000000000000000000000000000000002703201700000000            000000000000000                              000                           
0010001300143T 090180230000001544772 29577050052126151   788888888888889925122016000000000007500001000833888888888888899          0900000000000000000000000000000000000000000000000000000   000000000000000000000010009        170192957705     
0010001300144U 090000000000000000000000000000000000000000000000000000000000000000000000000000000000000000000000000000000000000000000000002703201700000000            000000000000000                              000                           
0010001300145T 090180230000001544772 29577050052151931   788888888888889925122016000000000007500001000833888888888888899          0900000000000000000000000000000000000000000000000000000   000000000000000000000010009        170192957705     
0010001300146U 090000000000000000000000000000000000000000000000000000000000000000000000000000000000000000000000000000000000000000000000002703201700000000            000000000000000                              000                           
0010001300147T 090180230000001544772 29577050052314140   788888888888889925122016000000000007500001000213888888888888899          0900000000000000000000000000000000000000000000000000000   000000000000000000000010009        170192957705     
0010001300148U 090000000000000000000000000000000000000000000000000000000000000000000000000000000000000000000000000000000000000000000000002703201700000000            000000000000000                              000                           
0010001300149T 090180230000001544772 29577050052416906   788888888888889925122016000000000010000001014389888888888888899          0900000000000000000000000000000000000000000000000000000   000000000000000000000010009        170192957705     
0010001300150U 090000000000000000000000000000000000000000000000000000000000000000000000000000000000000000000000000000000000000000000000002703201700000000            000000000000000                              000                           
0010001300151T 090180230000001544772 29577050052705896   788888888888889925122016000000000007500001004782888888888888899          0900000000000000000000000000000000000000000000000000000   000000000000000000000010009        170192957705     
0010001300152U 090000000000000000000000000000000000000000000000000000000000000000000000000000000000000000000000000000000000000000000000002703201700000000            000000000000000                              000                           
0010001300153T 090180230000001544772 29577050053017106   788888888888889925122016000000000007500001012416888888888888899          0900000000000000000000000000000000000000000000000000000   000000000000000000000010009        170192957705     
0010001300154U 090000000000000000000000000000000000000000000000000000000000000000000000000000000000000000000000000000000000000000000000002703201700000000            000000000000000                              000                           
0010001300155T 090180230000001544772 29577050053316907   788888888888889925122016000000000007500001008060888888888888899          0900000000000000000000000000000000000000000000000000000   000000000000000000000010009        170192957705     
0010001300156U 090000000000000000000000000000000000000000000000000000000000000000000000000000000000000000000000000000000000000000000000002703201700000000            000000000000000                              000                           
0010001300157T 090180230000001544772 29577050053429131   788888888888889925122016000000000007500001004782888888888888899          0900000000000000000000000000000000000000000000000000000   000000000000000000000010009        170192957705     
0010001300158U 090000000000000000000000000000000000000000000000000000000000000000000000000000000000000000000000000000000000000000000000002703201700000000            000000000000000                              000                           
0010001300159T 090180230000001544772 29577050053657309   78888888888888992512201600000000000750000103049X888888888888899          0900000000000000000000000000000000000000000000000000000   000000000000000000000010009        170192957705     
0010001300160U 090000000000000000000000000000000000000000000000000000000000000000000000000000000000000000000000000000000000000000000000002703201700000000            000000000000000                              000                           
0010001300161T 090180230000001544772 29577050054005937   788888888888889925122016000000000007500001000213888888888888899          0900000000000000000000000000000000000000000000000000000   000000000000000000000010009        170192957705     
0010001300162U 090000000000000000000000000000000000000000000000000000000000000000000000000000000000000000000000000000000000000000000000002703201700000000            000000000000000                              000                           
0010001300163T 090180230000001544772 29577050054235248   78888888888888992512201600000000000750000103049X888888888888899          0900000000000000000000000000000000000000000000000000000   000000000000000000000010009        170192957705     
0010001300164U 090000000000000000000000000000000000000000000000000000000000000000000000000000000000000000000000000000000000000000000000002703201700000000            000000000000000                              000                           
0010001300165T 090180230000001544772 29577050054623930   788888888888889925122016000000000007500001012408888888888888899          0900000000000000000000000000000000000000000000000000000   000000000000000000000010009        170192957705     
0010001300166U 090000000000000000000000000000000000000000000000000000000000000000000000000000000000000000000000000000000000000000000000002703201700000000            000000000000000                              000                           
0010001300167T 090180230000001544772 29577050054713479   78888888888888992512201600000000000750000103049X888888888888899          0900000000000000000000000000000000000000000000000000000   000000000000000000000010009        170192957705     
0010001300168U 090000000000000000000000000000000000000000000000000000000000000000000000000000000000000000000000000000000000000000000000002703201700000000            000000000000000                              000                           
0010001300169T 090180230000001544772 29577050054837391   78888888888888992512201600000000000750000103049X888888888888899          0900000000000000000000000000000000000000000000000000000   000000000000000000000010009        170192957705     
0010001300170U 090000000000000000000000000000000000000000000000000000000000000000000000000000000000000000000000000000000000000000000000002703201700000000            000000000000000                              000                           
0010001300171T 090180230000001544772 29577050055026111   788888888888889926122016000000000007500001012408888888888888899          0900000000000000000000000000000000000000000000000000000   000000000000000000000010009        170192957705     
0010001300172U 090000000000000000000000000000000000000000000000000000000000000000000000000000000000000000000000000000000000000000000000002703201700000000            000000000000000                              000                           
0010001300173T 090180230000001544772 29577050055150073   788888888888889925122016000000000007500001012416888888888888899          0900000000000000000000000000000000000000000000000000000   000000000000000000000010009        170192957705     
0010001300174U 090000000000000000000000000000000000000000000000000000000000000000000000000000000000000000000000000000000000000000000000002703201700000000            000000000000000                              000                           
0010001300175T 090180230000001544772 29577050055323702   788888888888889925122016000000000007500001000213888888888888899          0900000000000000000000000000000000000000000000000000000   000000000000000000000010009        170192957705     
0010001300176U 090000000000000000000000000000000000000000000000000000000000000000000000000000000000000000000000000000000000000000000000002703201700000000            000000000000000                              000                           
0010001300177T 090180230000001544772 29577050055633326   788888888888889925122016000000000007500001012416888888888888899          0900000000000000000000000000000000000000000000000000000   000000000000000000000010009        170192957705     
0010001300178U 090000000000000000000000000000000000000000000000000000000000000000000000000000000000000000000000000000000000000000000000002703201700000000            000000000000000                              000                           
0010001300179T 090180230000001544772 29577050055818244   788888888888889925122016000000000007500001000833888888888888899          0900000000000000000000000000000000000000000000000000000   000000000000000000000010009        170192957705     
0010001300180U 090000000000000000000000000000000000000000000000000000000000000000000000000000000000000000000000000000000000000000000000002703201700000000            000000000000000                              000                           
0010001300181T 090180230000001544772 29577050056031423   788888888888889926122016000000000007500001008338888888888888899          0900000000000000000000000000000000000000000000000000000   000000000000000000000010009        170192957705     
0010001300182U 090000000000000000000000000000000000000000000000000000000000000000000000000000000000000000000000000000000000000000000000002703201700000000            000000000000000                              000                           
0010001300183T 090180230000001544772 29577050057050048   78888888888888992512201600000000000750000103049X888888888888899          0900000000000000000000000000000000000000000000000000000   000000000000000000000010009        170192957705     
0010001300184U 090000000000000000000000000000000000000000000000000000000000000000000000000000000000000000000000000000000000000000000000002703201700000000            000000000000000                              000                           
0010001300185T 090180230000001544772 29577050057139142   788888888888889925122016000000000007500001004782888888888888899          0900000000000000000000000000000000000000000000000000000   000000000000000000000010009        170192957705     
0010001300186U 090000000000000000000000000000000000000000000000000000000000000000000000000000000000000000000000000000000000000000000000002703201700000000            000000000000000                              000                           
0010001300187T 090180230000001544772 29577050057207936   788888888888889925122016000000000007500001004782888888888888899          0900000000000000000000000000000000000000000000000000000   000000000000000000000010009        170192957705     
0010001300188U 090000000000000000000000000000000000000000000000000000000000000000000000000000000000000000000000000000000000000000000000002703201700000000            000000000000000                              000                           
0010001300189T 090180230000001544772 29577050057324741   788888888888889925122016000000000007500001012416888888888888899          0900000000000000000000000000000000000000000000000000000   000000000000000000000010009        170192957705     
0010001300190U 090000000000000000000000000000000000000000000000000000000000000000000000000000000000000000000000000000000000000000000000002703201700000000            000000000000000                              000                           
0010001300191T 090180230000001544772 29577050057357287   788888888888889925122016000000000007500001012416888888888888899          0900000000000000000000000000000000000000000000000000000   000000000000000000000010009        170192957705     
0010001300192U 090000000000000000000000000000000000000000000000000000000000000000000000000000000000000000000000000000000000000000000000002703201700000000            000000000000000                              000                           
0010001300193T 090180230000001544772 29577050057545141   788888888888889926122016000000000007500001012416888888888888899          0900000000000000000000000000000000000000000000000000000   000000000000000000000010009        170192957705     
0010001300194U 090000000000000000000000000000000000000000000000000000000000000000000000000000000000000000000000000000000000000000000000002703201700000000            000000000000000                              000                           
0010001300195T 090180230000001544772 29577050057850626   788888888888889926122016000000000007500001012416888888888888899          0900000000000000000000000000000000000000000000000000000   000000000000000000000010009        170192957705     
0010001300196U 090000000000000000000000000000000000000000000000000000000000000000000000000000000000000000000000000000000000000000000000002703201700000000            000000000000000                              000                           
0010001300197T 090180230000001544772 29577050058219836   78888888888888992612201600000000000750000103049X888888888888899          0900000000000000000000000000000000000000000000000000000   000000000000000000000010009        170192957705     
0010001300198U 090000000000000000000000000000000000000000000000000000000000000000000000000000000000000000000000000000000000000000000000002703201700000000            000000000000000                              000                           
0010001300199T 090180230000001544772 29577050058328575   788888888888889926122016000000000010000001012211888888888888899          0900000000000000000000000000000000000000000000000000000   000000000000000000000010009        170192957705     
0010001300200U 090000000000000000000000000000000000000000000000000000000000000000000000000000000000000000000000000000000000000000000000002703201700000000            000000000000000                              000                           
0010001300201T 090180230000001544772 29577050058450051   788888888888889926122016000000000007500001001120888888888888899          0900000000000000000000000000000000000000000000000000000   000000000000000000000010009        170192957705     
0010001300202U 090000000000000000000000000000000000000000000000000000000000000000000000000000000000000000000000000000000000000000000000002703201700000000            000000000000000                              000                           
0010001300203T 090180230000001544772 29577050058526253   788888888888889926122016000000000007500001000213888888888888899          0900000000000000000000000000000000000000000000000000000   000000000000000000000010009        170192957705     
0010001300204U 090000000000000000000000000000000000000000000000000000000000000000000000000000000000000000000000000000000000000000000000002703201700000000            000000000000000                              000                           
0010001300205T 090180230000001544772 29577050058647100   788888888888889926122016000000000007500001000213888888888888899          0900000000000000000000000000000000000000000000000000000   000000000000000000000010009        170192957705     
0010001300206U 090000000000000000000000000000000000000000000000000000000000000000000000000000000000000000000000000000000000000000000000002703201700000000            000000000000000                              000                           
0010001300207T 090180230000001544772 29577050058843541   788888888888889926122016000000000010000001001864888888888888899          0900000000000000000000000000000000000000000000000000000   000000000000000000000010009        170192957705     
0010001300208U 090000000000000000000000000000000000000000000000000000000000000000000000000000000000000000000000000000000000000000000000002703201700000000            000000000000000                              000                           
0010001300209T 090180230000001544772 29577050059057097   78888888888888992612201600000000000750000103049X888888888888899          0900000000000000000000000000000000000000000000000000000   000000000000000000000010009        170192957705     
0010001300210U 090000000000000000000000000000000000000000000000000000000000000000000000000000000000000000000000000000000000000000000000002703201700000000            000000000000000                              000                           
0010001300211T 090180230000001544772 29577050059147368   78888888888888992612201600000000001000000103049X888888888888899          0900000000000000000000000000000000000000000000000000000   000000000000000000000010009        170192957705     
0010001300212U 090000000000000000000000000000000000000000000000000000000000000000000000000000000000000000000000000000000000000000000000002703201700000000            000000000000000                              000                           
0010001300213T 090180230000001544772 29577050059630500   78888888888888992612201600000000000750000103049X888888888888899          0900000000000000000000000000000000000000000000000000000   000000000000000000000010009        170192957705     
0010001300214U 090000000000000000000000000000000000000000000000000000000000000000000000000000000000000000000000000000000000000000000000002703201700000000            000000000000000                              000                           
0010001300215T 090180230000001544772 29577050059908065   788888888888889926122016000000000007500001000213888888888888899          0900000000000000000000000000000000000000000000000000000   000000000000000000000010009        170192957705     
0010001300216U 090000000000000000000000000000000000000000000000000000000000000000000000000000000000000000000000000000000000000000000000002703201700000000            000000000000000                              000                           
0010001300217T 090180230000001544772 29577050060802665   788888888888889927122016000000000007500001012416888888888888899          0900000000000000000000000000000000000000000000000000000   000000000000000000000010009        170192957705     
0010001300218U 090000000000000000000000000000000000000000000000000000000000000000000000000000000000000000000000000000000000000000000000002703201700000000            000000000000000                              000                           
0010001300219T 090180230000001544772 29577050060933253   788888888888889927122016000000000007500001012416888888888888899          0900000000000000000000000000000000000000000000000000000   000000000000000000000010009        170192957705     
0010001300220U 090000000000000000000000000000000000000000000000000000000000000000000000000000000000000000000000000000000000000000000000002703201700000000            000000000000000                              000                           
0010001300221T 090180230000001544772 29577050061538759   788888888888889927122016000000000007500001000213888888888888899          0900000000000000000000000000000000000000000000000000000   000000000000000000000010009        170192957705     
0010001300222U 090000000000000000000000000000000000000000000000000000000000000000000000000000000000000000000000000000000000000000000000002703201700000000            000000000000000                              000                           
0010001300223T 090180230000001544772 29577050061538935   788888888888889927122016000000000007500001000213888888888888899          0900000000000000000000000000000000000000000000000000000   000000000000000000000010009        170192957705     
0010001300224U 090000000000000000000000000000000000000000000000000000000000000000000000000000000000000000000000000000000000000000000000002703201700000000            000000000000000                              000                           
0010001300225T 090180230000001544772 29577050061540360   788888888888889927122016000000000007500001000213888888888888899          0900000000000000000000000000000000000000000000000000000   000000000000000000000010009        170192957705     
0010001300226U 090000000000000000000000000000000000000000000000000000000000000000000000000000000000000000000000000000000000000000000000002703201700000000            000000000000000                              000                           
0010001300227T 090180230000001544772 29577050061540454   788888888888889927122016000000000007500001000213888888888888899          0900000000000000000000000000000000000000000000000000000   000000000000000000000010009        170192957705     
0010001300228U 090000000000000000000000000000000000000000000000000000000000000000000000000000000000000000000000000000000000000000000000002703201700000000            000000000000000                              000                           
0010001300229T 090180230000001544772 29577050061639699   78888888888888992712201600000000000750000103049X888888888888899          0900000000000000000000000000000000000000000000000000000   000000000000000000000010009        170192957705     
0010001300230U 090000000000000000000000000000000000000000000000000000000000000000000000000000000000000000000000000000000000000000000000002703201700000000            000000000000000                              000                           
0010001300231T 090180230000001544772 29577050061857399   788888888888889927122016000000000007500001000213888888888888899          0900000000000000000000000000000000000000000000000000000   000000000000000000000010009        170192957705     
0010001300232U 090000000000000000000000000000000000000000000000000000000000000000000000000000000000000000000000000000000000000000000000002703201700000000            000000000000000                              000                           
0010001300233T 280180230000001544772 29577050021739206   788888888888889924012017000000000007500001000000888888888888899          0900000000000000000000000000000000000000000000000000000   000000000000000000000005002        170192957705     
0010001300234U 280000000000000000000000000000000000000000000000000000000000000000000000000000000000000000000000000000000000000000000000002703201700000000            000000000000000                              000                           
0010001300235T 280180230000001544772 29577050037921577   788888888888889926012017000000000007500001000000888888888888899          0900000000000000000000000000000000000000000000000000000   000000000000000000000005002        170192957705     
0010001300236U 280000000000000000000000000000000000000000000000000000000000000000000000000000000000000000000000000000000000000000000000002703201700000000            000000000000000                              000                           
0010001300237T 280180230000001544772 29577050037925816   788888888888889926012017000000000007500001000000888888888888899          0900000000000000000000000000000000000000000000000000000   000000000000000000000005002        170192957705     
0010001300238U 280000000000000000000000000000000000000000000000000000000000000000000000000000000000000000000000000000000000000000000000002703201700000000            000000000000000                              000                           
0010001300239T 280180230000001544772 29577050039951519   788888888888889926012017000000000007500001000000888888888888899          0900000000000000000000000000000000000000000000000000000   000000000000000000000005002        170192957705     
0010001300240U 280000000000000000000000000000000000000000000000000000000000000000000000000000000000000000000000000000000000000000000000002703201700000000            000000000000000                              000                           
0010001300241T 280180230000001544772 29577050039958987   788888888888889926012017000000000007500001000000888888888888899          0900000000000000000000000000000000000000000000000000000   000000000000000000000005002        170192957705     
0010001300242U 280000000000000000000000000000000000000000000000000000000000000000000000000000000000000000000000000000000000000000000000002703201700000000            000000000000000                              000                           
0010001300243T 280180230000001544772 29577050041313017   788888888888889926012017000000000007500001000000888888888888899          0900000000000000000000000000000000000000000000000000000   000000000000000000000005002        170192957705     
0010001300244U 280000000000000000000000000000000000000000000000000000000000000000000000000000000000000000000000000000000000000000000000002703201700000000            000000000000000                              000                           
0010001300245T 280180230000001544772 29577050042759248   788888888888889926012017000000000007500001000000888888888888899          0900000000000000000000000000000000000000000000000000000   000000000000000000000005002        170192957705     
0010001300246U 280000000000000000000000000000000000000000000000000000000000000000000000000000000000000000000000000000000000000000000000002703201700000000            000000000000000                              000                           
0010001300247T 280180230000001544772 29577050042908085   788888888888889926012017000000000007500001000000888888888888899          0900000000000000000000000000000000000000000000000000000   000000000000000000000005002        170192957705     
0010001300248U 280000000000000000000000000000000000000000000000000000000000000000000000000000000000000000000000000000000000000000000000002703201700000000            000000000000000                              000                           
0010001300249T 280180230000001544772 29577050044127836   788888888888889926012017000000000007500001000000888888888888899          0900000000000000000000000000000000000000000000000000000   000000000000000000000005002        170192957705     
0010001300250U 280000000000000000000000000000000000000000000000000000000000000000000000000000000000000000000000000000000000000000000000002703201700000000            000000000000000                              000                           
0010001300251T 280180230000001544772 29577050044154756   788888888888889926012017000000000007500001000000888888888888899          0900000000000000000000000000000000000000000000000000000   000000000000000000000005002        170192957705     
0010001300252U 280000000000000000000000000000000000000000000000000000000000000000000000000000000000000000000000000000000000000000000000002703201700000000            000000000000000                              000                           
0010001300253T 280180230000001544772 29577050044407905   788888888888889926012017000000000007500001000000888888888888899          0900000000000000000000000000000000000000000000000000000   000000000000000000000005002        170192957705     
0010001300254U 280000000000000000000000000000000000000000000000000000000000000000000000000000000000000000000000000000000000000000000000002703201700000000            000000000000000                              000                           
0010001300255T 280180230000001544772 29577050045606459   788888888888889926012017000000000007500001000000888888888888899          0900000000000000000000000000000000000000000000000000000   000000000000000000000005002        170192957705     
0010001300256U 280000000000000000000000000000000000000000000000000000000000000000000000000000000000000000000000000000000000000000000000002703201700000000            000000000000000                              000                           
0010001300257T 280180230000001544772 29577050045706248   788888888888889926012017000000000007500001000000888888888888899          0900000000000000000000000000000000000000000000000000000   000000000000000000000005002        170192957705     
0010001300258U 280000000000000000000000000000000000000000000000000000000000000000000000000000000000000000000000000000000000000000000000002703201700000000            000000000000000                              000                           
0010001300259T 280180230000001544772 29577050047441404   788888888888889926012017000000000007500001000000888888888888899          0900000000000000000000000000000000000000000000000000000   000000000000000000000005002        170192957705     
0010001300260U 280000000000000000000000000000000000000000000000000000000000000000000000000000000000000000000000000000000000000000000000002703201700000000            000000000000000                              000                           
0010001300261T 280180230000001544772 29577050048056414   788888888888889926012017000000000007500001000000888888888888899          0900000000000000000000000000000000000000000000000000000   000000000000000000000005002        170192957705     
0010001300262U 280000000000000000000000000000000000000000000000000000000000000000000000000000000000000000000000000000000000000000000000002703201700000000            000000000000000                              000                           
0010001300263T 280180230000001544772 29577050049330708   788888888888889926012017000000000007500001000000888888888888899          0900000000000000000000000000000000000000000000000000000   000000000000000000000005002        170192957705     
0010001300264U 280000000000000000000000000000000000000000000000000000000000000000000000000000000000000000000000000000000000000000000000002703201700000000            000000000000000                              000                           
0010001300265T 280180230000001544772 29577050049815733   788888888888889926012017000000000007500001000000888888888888899          0900000000000000000000000000000000000000000000000000000   000000000000000000000005002        170192957705     
0010001300266U 280000000000000000000000000000000000000000000000000000000000000000000000000000000000000000000000000000000000000000000000002703201700000000            000000000000000                              000                           
0010001300267T 280180230000001544772 29577050053738636   788888888888889926012017000000000007500001000000888888888888899          0900000000000000000000000000000000000000000000000000000   000000000000000000000005002        170192957705     
0010001300268U 280000000000000000000000000000000000000000000000000000000000000000000000000000000000000000000000000000000000000000000000002703201700000000            000000000000000                              000                           
0010001300269T 280180230000001544772 29577050054059284   788888888888889926012017000000000007500001000000888888888888899          0900000000000000000000000000000000000000000000000000000   000000000000000000000005002        170192957705     
0010001300270U 280000000000000000000000000000000000000000000000000000000000000000000000000000000000000000000000000000000000000000000000002703201700000000            000000000000000                              000                           
0010001300271T 280180230000001544772 29577050086452910   788888888888889924012017000000000007500001000000888888888888899          0900000000000000000000000000000000000000000000000000000   000000000000000000000005002        170192957705     
0010001300272U 280000000000000000000000000000000000000000000000000000000000000000000000000000000000000000000000000000000000000000000000002703201700000000            000000000000000                              000                           
0010001300273T 280180230000001544772 29577050098321042   788888888888889926012017000000000007500001000000888888888888899          0900000000000000000000000000000000000000000000000000000   000000000000000000000005002        170192957705     
0010001300274U 280000000000000000000000000000000000000000000000000000000000000000000000000000000000000000000000000000000000000000000000002703201700000000            000000000000000                              000                           
0010001300275T 280180230000001544772 29577050113758119   788888888888889924012017000000000007500001000000888888888888899          0900000000000000000000000000000000000000000000000000000   000000000000000000000005002        170192957705     
0010001300276U 280000000000000000000000000000000000000000000000000000000000000000000000000000000000000000000000000000000000000000000000002703201700000000            000000000000000                              000                           
0010001300277T 280180230000001544772 29577050135745883   788888888888889924012017000000000007500001000000888888888888899          0900000000000000000000000000000000000000000000000000000   000000000000000000000005002        170192957705     
0010001300278U 280000000000000000000000000000000000000000000000000000000000000000000000000000000000000000000000000000000000000000000000002703201700000000            000000000000000                              000                           
0010001300279T 280180230000001544772 29577050140750310   7               23022017000000000007500001000000                         0900000000000000000000000000000000000000000000000000000   000000000000000000000005002        170192957705     
0010001300280U 280000000000000000000000000000000000000000000000000000000000000000000000000000000000000000000000000000000000000000000000002703201700000000            000000000000000                              000                           
0010001300281T 280180230000001544772 29577050142021521   7               25022017000000000007500001000000                         0900000000000000000000000000000000000000000000000000000   000000000000000000000005002        170192957705     
0010001300282U 280000000000000000000000000000000000000000000000000000000000000000000000000000000000000000000000000000000000000000000000002703201700000000            000000000000000                              000                           
0010001300283T 280180230000001544772 29577050148123096   788888888888889926012017000000000007500001000000888888888888899          0900000000000000000000000000000000000000000000000000000   000000000000000000000005002        170192957705     
0010001300284U 280000000000000000000000000000000000000000000000000000000000000000000000000000000000000000000000000000000000000000000000002703201700000000            000000000000000                              000                           
0010001300285T 280180230000001544772 29577050148144446   788888888888889926012017000000000007500001000000888888888888899          0900000000000000000000000000000000000000000000000000000   000000000000000000000005002        170192957705     
0010001300286U 280000000000000000000000000000000000000000000000000000000000000000000000000000000000000000000000000000000000000000000000002703201700000000            000000000000000                              000                           
0010001300287T 280180230000001544772 29577050155241299   7               24022017000000000007500001000000                         0900000000000000000000000000000000000000000000000000000   000000000000000000000005002        170192957705     
0010001300288U 280000000000000000000000000000000000000000000000000000000000000000000000000000000000000000000000000000000000000000000000002703201700000000            000000000000000                              000                           
0010001300289T 280180230000001544772 29577050160022380   788888888888889926012017000000000007500001000000888888888888899          0900000000000000000000000000000000000000000000000000000   000000000000000000000005002        170192957705     
0010001300290U 280000000000000000000000000000000000000000000000000000000000000000000000000000000000000000000000000000000000000000000000002703201700000000            000000000000000                              000                           
0010001300291T 280180230000001544772 29577050165103709   788888888888889926012017000000000007500001000000888888888888899          0900000000000000000000000000000000000000000000000000000   000000000000000000000005002        170192957705     
0010001300292U 280000000000000000000000000000000000000000000000000000000000000000000000000000000000000000000000000000000000000000000000002703201700000000            000000000000000                              000                           
0010001300293T 280180230000001544772 29577050165126927   788888888888889926012017000000000007500001000000888888888888899          0900000000000000000000000000000000000000000000000000000   000000000000000000000005002        170192957705     
0010001300294U 280000000000000000000000000000000000000000000000000000000000000000000000000000000000000000000000000000000000000000000000002703201700000000            000000000000000                              000                           
0010001300295T 280180230000001544772 29577050165133176   7               25022017000000000007500001000000                         0900000000000000000000000000000000000000000000000000000   000000000000000000000005002        170192957705     
0010001300296U 280000000000000000000000000000000000000000000000000000000000000000000000000000000000000000000000000000000000000000000000002703201700000000            000000000000000                              000                           
0010001300297T 280180230000001544772 29577050165136300   7               25022017000000000007500001000000                         0900000000000000000000000000000000000000000000000000000   000000000000000000000005002        170192957705     
0010001300298U 280000000000000000000000000000000000000000000000000000000000000000000000000000000000000000000000000000000000000000000000002703201700000000            000000000000000                              000                           
0010001300299T 280180230000001544772 29577050174507442   7               23022017000000000007500001000000                         0900000000000000000000000000000000000000000000000000000   000000000000000000000005002        170192957705     
0010001300300U 280000000000000000000000000000000000000000000000000000000000000000000000000000000000000000000000000000000000000000000000002703201700000000            000000000000000                              000                           
0010001300301T 280180230000001544772 29577050174534394   7               23022017000000000007500001000000                         0900000000000000000000000000000000000000000000000000000   000000000000000000000005002        170192957705     
0010001300302U 280000000000000000000000000000000000000000000000000000000000000000000000000000000000000000000000000000000000000000000000002703201700000000            000000000000000                              000                           
0010001300303T 280180230000001544772 29577050181444951   7               23022017000000000007500001000000                         0900000000000000000000000000000000000000000000000000000   000000000000000000000005002        170192957705     
0010001300304U 280000000000000000000000000000000000000000000000000000000000000000000000000000000000000000000000000000000000000000000000002703201700000000            000000000000000                              000                           
0010001300305T 280180230000001544772 29577050183318761   7               23022017000000000007500001000000                         0900000000000000000000000000000000000000000000000000000   000000000000000000000005002        170192957705     
0010001300306U 280000000000000000000000000000000000000000000000000000000000000000000000000000000000000000000000000000000000000000000000002703201700000000            000000000000000                              000                           
0010001300307T 280180230000001544772 29577050185203662   788888888888889926012017000000000007500001000000888888888888899          0900000000000000000000000000000000000000000000000000000   000000000000000000000005002        170192957705     
0010001300308U 280000000000000000000000000000000000000000000000000000000000000000000000000000000000000000000000000000000000000000000000002703201700000000            000000000000000                              000                           
0010001300309T 280180230000001544772 29577050190440929   788888888888889924012017000000000007500001000000888888888888899          0900000000000000000000000000000000000000000000000000000   000000000000000000000005002        170192957705     
0010001300310U 280000000000000000000000000000000000000000000000000000000000000000000000000000000000000000000000000000000000000000000000002703201700000000            000000000000000                              000                           
0010001300311T 280180230000001544772 29577050206837892   7               24022017000000000007500001000000                         0900000000000000000000000000000000000000000000000000000   000000000000000000000005002        170192957705     
0010001300312U 280000000000000000000000000000000000000000000000000000000000000000000000000000000000000000000000000000000000000000000000002703201700000000            000000000000000                              000                           
0010001300313T 280180230000001544772 29577050206839247   7               24022017000000000007500001000000                         0900000000000000000000000000000000000000000000000000000   000000000000000000000005002        170192957705     
0010001300314U 280000000000000000000000000000000000000000000000000000000000000000000000000000000000000000000000000000000000000000000000002703201700000000            000000000000000                              000                           
0010001300315T 280180230000001544772 29577050208340990   7               23022017000000000007500001000000                         0900000000000000000000000000000000000000000000000000000   000000000000000000000005002        170192957705     
0010001300316U 280000000000000000000000000000000000000000000000000000000000000000000000000000000000000000000000000000000000000000000000002703201700000000            000000000000000                              000                           
0010001300317T 280180230000001544772 29577050209007269   788888888888889924012017000000000007500001000000888888888888899          0900000000000000000000000000000000000000000000000000000   000000000000000000000005002        170192957705     
0010001300318U 280000000000000000000000000000000000000000000000000000000000000000000000000000000000000000000000000000000000000000000000002703201700000000            000000000000000                              000                           
0010001300319T 280180230000001544772 29577050209025150   788888888888889924012017000000000007500001000000888888888888899          0900000000000000000000000000000000000000000000000000000   000000000000000000000005002        170192957705     
0010001300320U 280000000000000000000000000000000000000000000000000000000000000000000000000000000000000000000000000000000000000000000000002703201700000000            000000000000000                              000                           
0010001300321T 280180230000001544772 29577050209032497   788888888888889924012017000000000007500001000000888888888888899          0900000000000000000000000000000000000000000000000000000   000000000000000000000005002        170192957705     
0010001300322U 280000000000000000000000000000000000000000000000000000000000000000000000000000000000000000000000000000000000000000000000002703201700000000            000000000000000                              000                           
0010001300323T 280180230000001544772 29577050212308136   7               25022017000000000007500001000000                         0900000000000000000000000000000000000000000000000000000   000000000000000000000005002        170192957705     
0010001300324U 280000000000000000000000000000000000000000000000000000000000000000000000000000000000000000000000000000000000000000000000002703201700000000            000000000000000                              000                           
0010001300325T 280180230000001544772 29577050212441592   7               25022017000000000007500001000000                         0900000000000000000000000000000000000000000000000000000   000000000000000000000005002        170192957705     
0010001300326U 280000000000000000000000000000000000000000000000000000000000000000000000000000000000000000000000000000000000000000000000002703201700000000            000000000000000                              000                           
0010001300327T 280180230000001544772 29577050218455451   7               24022017000000000007500001000000                         0900000000000000000000000000000000000000000000000000000   000000000000000000000005002        170192957705     
0010001300328U 280000000000000000000000000000000000000000000000000000000000000000000000000000000000000000000000000000000000000000000000002703201700000000            000000000000000                              000                           
0010001300329T 280180230000001544772 29577050218511132   7               24022017000000000007500001000000                         0900000000000000000000000000000000000000000000000000000   000000000000000000000005002        170192957705     
0010001300330U 280000000000000000000000000000000000000000000000000000000000000000000000000000000000000000000000000000000000000000000000002703201700000000            000000000000000                              000                           
0010001300331T 280180230000001544772 29577050223058383   7               25022017000000000007500001000000                         0900000000000000000000000000000000000000000000000000000   000000000000000000000005002        170192957705     
0010001300332U 280000000000000000000000000000000000000000000000000000000000000000000000000000000000000000000000000000000000000000000000002703201700000000            000000000000000                              000                           
0010001300333T 280180230000001544772 29577050223710695   788888888888889924012017000000000007500001000000888888888888899          0900000000000000000000000000000000000000000000000000000   000000000000000000000005002        170192957705     
0010001300334U 280000000000000000000000000000000000000000000000000000000000000000000000000000000000000000000000000000000000000000000000002703201700000000            000000000000000                              000                           
0010001300335T 280180230000001544772 29577050223711128   788888888888889926012017000000000007500001000000888888888888899          0900000000000000000000000000000000000000000000000000000   000000000000000000000005002        170192957705     
0010001300336U 280000000000000000000000000000000000000000000000000000000000000000000000000000000000000000000000000000000000000000000000002703201700000000            000000000000000                              000                           
0010001300337T 280180230000001544772 29577050223733037   788888888888889926012017000000000007500001000000888888888888899          0900000000000000000000000000000000000000000000000000000   000000000000000000000005002        170192957705     
0010001300338U 280000000000000000000000000000000000000000000000000000000000000000000000000000000000000000000000000000000000000000000000002703201700000000            000000000000000                              000                           
0010001300339T 280180230000001544772 29577050223756226   788888888888889926012017000000000007500001000000888888888888899          0900000000000000000000000000000000000000000000000000000   000000000000000000000005002        170192957705     
0010001300340U 280000000000000000000000000000000000000000000000000000000000000000000000000000000000000000000000000000000000000000000000002703201700000000            000000000000000                              000                           
0010001300341T 280180230000001544772 29577050223758575   788888888888889924012017000000000007500001000000888888888888899          0900000000000000000000000000000000000000000000000000000   000000000000000000000005002        170192957705     
0010001300342U 280000000000000000000000000000000000000000000000000000000000000000000000000000000000000000000000000000000000000000000000002703201700000000            000000000000000                              000                           
0010001300343T 280180230000001544772 29577050223758963   788888888888889924012017000000000007500001000000888888888888899          0900000000000000000000000000000000000000000000000000000   000000000000000000000005002        170192957705     
0010001300344U 280000000000000000000000000000000000000000000000000000000000000000000000000000000000000000000000000000000000000000000000002703201700000000            000000000000000                              000                           
0010001300345T 280180230000001544772 29577050224932987   788888888888889924012017000000000007500001000000888888888888899          0900000000000000000000000000000000000000000000000000000   000000000000000000000005002        170192957705     
0010001300346U 280000000000000000000000000000000000000000000000000000000000000000000000000000000000000000000000000000000000000000000000002703201700000000            000000000000000                              000                           
0010001300347T 280180230000001544772 29577050225755859   788888888888889924012017000000000007500001000000888888888888899          0900000000000000000000000000000000000000000000000000000   000000000000000000000005002        170192957705     
0010001300348U 280000000000000000000000000000000000000000000000000000000000000000000000000000000000000000000000000000000000000000000000002703201700000000            000000000000000                              000                           
0010001300349T 280180230000001544772 29577050238410882   788888888888889924012017000000000007500001000000888888888888899          0900000000000000000000000000000000000000000000000000000   000000000000000000000005002        170192957705     
0010001300350U 280000000000000000000000000000000000000000000000000000000000000000000000000000000000000000000000000000000000000000000000002703201700000000            000000000000000                              000                           
0010001300351T 280180230000001544772 29577050242000165   7               25022017000000000007500001000000                         0900000000000000000000000000000000000000000000000000000   000000000000000000000005002        170192957705     
0010001300352U 280000000000000000000000000000000000000000000000000000000000000000000000000000000000000000000000000000000000000000000000002703201700000000            000000000000000                              000                           
0010001300353T 280180230000001544772 29577050243547104   788888888888889924012017000000000007500001000000888888888888899          0900000000000000000000000000000000000000000000000000000   000000000000000000000005002        170192957705     
0010001300354U 280000000000000000000000000000000000000000000000000000000000000000000000000000000000000000000000000000000000000000000000002703201700000000            000000000000000                              000                           
0010001300355T 280180230000001544772 29577050255417935   788888888888889924012017000000000007500001000000888888888888899          0900000000000000000000000000000000000000000000000000000   000000000000000000000005002        170192957705     
0010001300356U 280000000000000000000000000000000000000000000000000000000000000000000000000000000000000000000000000000000000000000000000002703201700000000            000000000000000                              000                           
0010001300357T 280180230000001544772 29577050256920140   788888888888889926012017000000000007500001000000888888888888899          0900000000000000000000000000000000000000000000000000000   000000000000000000000005002        170192957705     
0010001300358U 280000000000000000000000000000000000000000000000000000000000000000000000000000000000000000000000000000000000000000000000002703201700000000            000000000000000                              000                           
0010001300359T 280180230000001544772 29577050258258776   788888888888889924012017000000000007500001000000888888888888899          0900000000000000000000000000000000000000000000000000000   000000000000000000000005002        170192957705     
0010001300360U 280000000000000000000000000000000000000000000000000000000000000000000000000000000000000000000000000000000000000000000000002703201700000000            000000000000000                              000                           
0010001300361T 280180230000001544772 29577050261228254   7               23022017000000000007500001000000                         0900000000000000000000000000000000000000000000000000000   000000000000000000000005002        170192957705     
0010001300362U 280000000000000000000000000000000000000000000000000000000000000000000000000000000000000000000000000000000000000000000000002703201700000000            000000000000000                              000                           
0010001300363T 280180230000001544772 29577050261258365   7               23022017000000000007500001000000                         0900000000000000000000000000000000000000000000000000000   000000000000000000000005002        170192957705     
0010001300364U 280000000000000000000000000000000000000000000000000000000000000000000000000000000000000000000000000000000000000000000000002703201700000000            000000000000000                              000                           
0010001300365T 280180230000001544772 29577050262257564   788888888888889924012017000000000007500001000000888888888888899          0900000000000000000000000000000000000000000000000000000   000000000000000000000005002        170192957705     
0010001300366U 280000000000000000000000000000000000000000000000000000000000000000000000000000000000000000000000000000000000000000000000002703201700000000            000000000000000                              000                           
0010001300367T 280180230000001544772 29577050265620800   788888888888889924012017000000000007500001000000888888888888899          0900000000000000000000000000000000000000000000000000000   000000000000000000000005002        170192957705     
0010001300368U 280000000000000000000000000000000000000000000000000000000000000000000000000000000000000000000000000000000000000000000000002703201700000000            000000000000000                              000                           
0010001300369T 280180230000001544772 29577050265650826   788888888888889924012017000000000007500001000000888888888888899          0900000000000000000000000000000000000000000000000000000   000000000000000000000005002        170192957705     
0010001300370U 280000000000000000000000000000000000000000000000000000000000000000000000000000000000000000000000000000000000000000000000002703201700000000            000000000000000                              000                           
0010001300371T 280180230000001544772 29577050266300885   788888888888889924012017000000000007500001000000888888888888899          0900000000000000000000000000000000000000000000000000000   000000000000000000000005002        170192957705     
0010001300372U 280000000000000000000000000000000000000000000000000000000000000000000000000000000000000000000000000000000000000000000000002703201700000000            000000000000000                              000                           
0010001300373T 280180230000001544772 29577050270523550   788888888888889926012017000000000007500001000000888888888888899          0900000000000000000000000000000000000000000000000000000   000000000000000000000005002        170192957705     
0010001300374U 280000000000000000000000000000000000000000000000000000000000000000000000000000000000000000000000000000000000000000000000002703201700000000            000000000000000                              000                           
0010001300375T 280180230000001544772 29577050273709516   788888888888889926012017000000000007500001000000888888888888899          0900000000000000000000000000000000000000000000000000000   000000000000000000000005002        170192957705     
0010001300376U 280000000000000000000000000000000000000000000000000000000000000000000000000000000000000000000000000000000000000000000000002703201700000000            000000000000000                              000                           
0010001300377T 280180230000001544772 29577050273739328   788888888888889926012017000000000007500001000000888888888888899          0900000000000000000000000000000000000000000000000000000   000000000000000000000005002        170192957705     
0010001300378U 280000000000000000000000000000000000000000000000000000000000000000000000000000000000000000000000000000000000000000000000002703201700000000            000000000000000                              000                           
0010001300379T 280180230000001544772 29577050274447438   7               24022017000000000007500001000000                         0900000000000000000000000000000000000000000000000000000   000000000000000000000005002        170192957705     
0010001300380U 280000000000000000000000000000000000000000000000000000000000000000000000000000000000000000000000000000000000000000000000002703201700000000            000000000000000                              000                           
0010001300381T 280180230000001544772 29577050274738407   7               23022017000000000007500001000000                         0900000000000000000000000000000000000000000000000000000   000000000000000000000005002        170192957705     
0010001300382U 280000000000000000000000000000000000000000000000000000000000000000000000000000000000000000000000000000000000000000000000002703201700000000            000000000000000                              000                           
0010001300383T 280180230000001544772 29577050275546621   788888888888889926012017000000000007500001000000888888888888899          0900000000000000000000000000000000000000000000000000000   000000000000000000000005002        170192957705     
0010001300384U 280000000000000000000000000000000000000000000000000000000000000000000000000000000000000000000000000000000000000000000000002703201700000000            000000000000000                              000                           
0010001300385T 280180230000001544772 29577050279528081   7               25022017000000000007500001000000                         0900000000000000000000000000000000000000000000000000000   000000000000000000000005002        170192957705     
0010001300386U 280000000000000000000000000000000000000000000000000000000000000000000000000000000000000000000000000000000000000000000000002703201700000000            000000000000000                              000                           
0010001300387T 280180230000001544772 29577050281853992   788888888888889926012017000000000007500001000000888888888888899          0900000000000000000000000000000000000000000000000000000   000000000000000000000005002        170192957705     
0010001300388U 280000000000000000000000000000000000000000000000000000000000000000000000000000000000000000000000000000000000000000000000002703201700000000            000000000000000                              000                           
0010001300389T 280180230000001544772 29577050282901849   788888888888889924012017000000000007500001000000888888888888899          0900000000000000000000000000000000000000000000000000000   000000000000000000000005002        170192957705     
0010001300390U 280000000000000000000000000000000000000000000000000000000000000000000000000000000000000000000000000000000000000000000000002703201700000000            000000000000000                              000                           
0010001300391T 280180230000001544772 29577050283113901   788888888888889924012017000000000007500001000000888888888888899          0900000000000000000000000000000000000000000000000000000   000000000000000000000005002        170192957705     
0010001300392U 280000000000000000000000000000000000000000000000000000000000000000000000000000000000000000000000000000000000000000000000002703201700000000            000000000000000                              000                           
0010001300393T 280180230000001544772 29577050283323964   788888888888889924012017000000000010000001000000888888888888899          0900000000000000000000000000000000000000000000000000000   000000000000000000000005002        170192957705     
0010001300394U 280000000000000000000000000000000000000000000000000000000000000000000000000000000000000000000000000000000000000000000000002703201700000000            000000000000000                              000                           
0010001300395T 280180230000001544772 29577050283459250   788888888888889924012017000000000007500001000000888888888888899          0900000000000000000000000000000000000000000000000000000   000000000000000000000005002        170192957705     
0010001300396U 280000000000000000000000000000000000000000000000000000000000000000000000000000000000000000000000000000000000000000000000002703201700000000            000000000000000                              000                           
0010001300397T 280180230000001544772 29577050283555007   788888888888889924012017000000000007500001000000888888888888899          0900000000000000000000000000000000000000000000000000000   000000000000000000000005002        170192957705     
0010001300398U 280000000000000000000000000000000000000000000000000000000000000000000000000000000000000000000000000000000000000000000000002703201700000000            000000000000000                              000                           
0010001300399T 280180230000001544772 29577050283605686   788888888888889924012017000000000007500001000000888888888888899          0900000000000000000000000000000000000000000000000000000   000000000000000000000005002        170192957705     
0010001300400U 280000000000000000000000000000000000000000000000000000000000000000000000000000000000000000000000000000000000000000000000002703201700000000            000000000000000                              000                           
0010001300401T 280180230000001544772 29577050283700723   788888888888889924012017000000000007500001000000888888888888899          0900000000000000000000000000000000000000000000000000000   000000000000000000000005002        170192957705     
0010001300402U 280000000000000000000000000000000000000000000000000000000000000000000000000000000000000000000000000000000000000000000000002703201700000000            000000000000000                              000                           
0010001300403T 280180230000001544772 29577050283905430   788888888888889924012017000000000007500001000000888888888888899          0900000000000000000000000000000000000000000000000000000   000000000000000000000005002        170192957705     
0010001300404U 280000000000000000000000000000000000000000000000000000000000000000000000000000000000000000000000000000000000000000000000002703201700000000            000000000000000                              000                           
0010001300405T 280180230000001544772 29577050284008878   788888888888889924012017000000000007500001000000888888888888899          0900000000000000000000000000000000000000000000000000000   000000000000000000000005002        170192957705     
0010001300406U 280000000000000000000000000000000000000000000000000000000000000000000000000000000000000000000000000000000000000000000000002703201700000000            000000000000000                              000                           
0010001300407T 280180230000001544772 29577050284141614   788888888888889924012017000000000007500001000000888888888888899          0900000000000000000000000000000000000000000000000000000   000000000000000000000005002        170192957705     
0010001300408U 280000000000000000000000000000000000000000000000000000000000000000000000000000000000000000000000000000000000000000000000002703201700000000            000000000000000                              000                           
0010001300409T 280180230000001544772 29577050284159993   788888888888889926012017000000000007500001000000888888888888899          0900000000000000000000000000000000000000000000000000000   000000000000000000000005002        170192957705     
0010001300410U 280000000000000000000000000000000000000000000000000000000000000000000000000000000000000000000000000000000000000000000000002703201700000000            000000000000000                              000                           
0010001300411T 280180230000001544772 29577050284242494   788888888888889924012017000000000007500001000000888888888888899          0900000000000000000000000000000000000000000000000000000   000000000000000000000005002        170192957705     
0010001300412U 280000000000000000000000000000000000000000000000000000000000000000000000000000000000000000000000000000000000000000000000002703201700000000            000000000000000                              000                           
