00100000         2247745860001000029577050014       0180230000001544772 INSTITUTO DE SELECAO E TECNOLOBANCO DO BRASIL                         22903201701123200015203000000515122941PROCESSAMEN                                                 
00100011T0100020 20247745860001000029577050014       0180230000001544772 INSTITUTO DE SELECAO E TECNOLO                                                                                000000002903201700000000  000000000                      
0010001300001T 020180230000001544772 29577050421212772   7               31032017000000000010000001000418                         0900000000000010000000000000000000000000000000000000000   0000000000000000000000000A9        170192957705     
0010001300002U 020000000000000000000000000000000000000000000000000000000000000000000000000000000000000000000000000000000000000000000000002903201700000000            000000000000000                              000                           
0010001300003T 020180230000001544772 29577050447920364   7               31032017000000000007500001000213                         0900000000000010000000000000000000000000000000000000000   0000000000000000000000000A9        170192957705     
0010001300004U 020000000000000000000000000000000000000000000000000000000000000000000000000000000000000000000000000000000000000000000000002903201700000000            000000000000000                              000                           
0010001300005T 020180230000001544772 29577050723450182   7               31032017000000000007500001002224                         0900000000000010000000000000000000000000000000000000000   0000000000000000000000000A9        170192957705     
0010001300006U 020000000000000000000000000000000000000000000000000000000000000000000000000000000000000000000000000000000000000000000000002903201700000000            000000000000000                              000                           
0010001300007T 020180230000001544772 29577051240545863   7               31032017000000000007500001000213                         0900000000000010000000000000000000000000000000000000000   0000000000000000000000000A9        170192957705     
0010001300008U 020000000000000000000000000000000000000000000000000000000000000000000000000000000000000000000000000000000000000000000000002903201700000000            000000000000000                              000                           
0010001300009T 020180230000001544772 29577051287115259   7               31032017000000000007500001000213                         0900000000000010500000000000000000000000000000000000000   0000000000000000000000000A9A4      170192957705     
0010001300010U 020000000000000000000000000000000000000000000000000000000000000000000000000000000000000000000000000000000000000000000000002903201700000000            000000000000000                              000                           
0010001300011T 020180230000001544772 29577051492024468   7               31032017000000000007500001012408                         0900000000000010000000000000000000000000000000000000000   0000000000000000000000000A9        170192957705     
0010001300012U 020000000000000000000000000000000000000000000000000000000000000000000000000000000000000000000000000000000000000000000000002903201700000000            000000000000000                              000                           
0010001300013T 020180230000001544772 29577051501103170   7               31032017000000000010000001002798                         0900000000000010000000000000000000000000000000000000000   0000000000000000000000000A9        170192957705     
0010001300014U 020000000000000000000000000000000000000000000000000000000000000000000000000000000000000000000000000000000000000000000000002903201700000000            000000000000000                              000                           
0010001300015T 020180230000001544772 29577051501227963   7               31032017000000000010000001012408                         0900000000000010000000000000000000000000000000000000000   0000000000000000000000000A9        170192957705     
0010001300016U 020000000000000000000000000000000000000000000000000000000000000000000000000000000000000000000000000000000000000000000000002903201700000000            000000000000000                              000                           
0010001300017T 020180230000001544772 29577051502529541   7               3103201700000000000750000100829X                         0900000000000010000000000000000000000000000000000000000   0000000000000000000000000A9        170192957705     
0010001300018U 020000000000000000000000000000000000000000000000000000000000000000000000000000000000000000000000000000000000000000000000002903201700000000            000000000000000                              000                           
0010001300019T 020180230000001544772 29577051502710364   7               31032017000000000007500001012416                         0900000000000010000000000000000000000000000000000000000   0000000000000000000000000A9        170192957705     
0010001300020U 020000000000000000000000000000000000000000000000000000000000000000000000000000000000000000000000000000000000000000000000002903201700000000            000000000000000                              000                           
0010001300021T 020180230000001544772 29577051505149708   7               31032017000000000007500001014923                         0900000000000010000000000000000000000000000000000000000   0000000000000000000000000A9        170192957705     
0010001300022U 020000000000000000000000000000000000000000000000000000000000000000000000000000000000000000000000000000000000000000000000002903201700000000            000000000000000                              000                           
0010001300023T 020180230000001544772 29577051505243607   7               31032017000000000007500001000132                         0900000000000010500000000000000000000000000000000000000   0000000000000000000000000A9A4      170192957705     
0010001300024U 020000000000000000000000000000000000000000000000000000000000000000000000000000000000000000000000000000000000000000000000002903201700000000            000000000000000                              000                           
0010001300025T 020180230000001544772 29577051505931542   7               31032017000000000007500001012408                         0900000000000010000000000000000000000000000000000000000   0000000000000000000000000A9        170192957705     
0010001300026U 020000000000000000000000000000000000000000000000000000000000000000000000000000000000000000000000000000000000000000000000002903201700000000            000000000000000                              000                           
0010001300027T 020180230000001544772 29577051508703029   7               31032017000000000007500001012416                         0900000000000010000000000000000000000000000000000000000   0000000000000000000000000A9        170192957705     
0010001300028U 020000000000000000000000000000000000000000000000000000000000000000000000000000000000000000000000000000000000000000000000002903201700000000            000000000000000                              000                           
0010001300029T 020180230000001544772 29577051511016172   7               31032017000000000007500001007854                         0900000000000010000000000000000000000000000000000000000   0000000000000000000000000A9        170192957705     
0010001300030U 020000000000000000000000000000000000000000000000000000000000000000000000000000000000000000000000000000000000000000000000002903201700000000            000000000000000                              000                           
0010001300031T 020180230000001544772 29577051511101419   7               31032017000000000007500001007854                         0900000000000010000000000000000000000000000000000000000   0000000000000000000000000A9        170192957705     
0010001300032U 020000000000000000000000000000000000000000000000000000000000000000000000000000000000000000000000000000000000000000000000002903201700000000            000000000000000                              000                           
0010001300033T 020180230000001544772 29577051511241945   7               31032017000000000007500001007854                         0900000000000010000000000000000000000000000000000000000   0000000000000000000000000A9        170192957705     
0010001300034U 020000000000000000000000000000000000000000000000000000000000000000000000000000000000000000000000000000000000000000000000002903201700000000            000000000000000                              000                           
0010001300035T 020180230000001544772 29577051513705356   7               31032017000000000010000001023736                         0900000000000010000000000000000000000000000000000000000   0000000000000000000000000A9        170192957705     
0010001300036U 020000000000000000000000000000000000000000000000000000000000000000000000000000000000000000000000000000000000000000000000002903201700000000            000000000000000                              000                           
0010001300037T 090180230000001544772 29577050011309777   788888888888889929122016000000000007500001012408888888888888899          0900000000000000000000000000000000000000000000000000000   000000000000000000000010009        170192957705     
0010001300038U 090000000000000000000000000000000000000000000000000000000000000000000000000000000000000000000000000000000000000000000000002903201700000000            000000000000000                              000                           
0010001300039T 090180230000001544772 29577050011310441   788888888888889929122016000000000007500001012408888888888888899          0900000000000000000000000000000000000000000000000000000   000000000000000000000010009        170192957705     
0010001300040U 090000000000000000000000000000000000000000000000000000000000000000000000000000000000000000000000000000000000000000000000002903201700000000            000000000000000                              000                           
0010001300041T 090180230000001544772 29577050032315061   788888888888889929122016000000000007500001012408888888888888899          0900000000000000000000000000000000000000000000000000000   000000000000000000000010009        170192957705     
0010001300042U 090000000000000000000000000000000000000000000000000000000000000000000000000000000000000000000000000000000000000000000000002903201700000000            000000000000000                              000                           
0010001300043T 090180230000001544772 29577050058316928   788888888888889929122016000000000010000001012211888888888888899          0900000000000000000000000000000000000000000000000000000   000000000000000000000010009        170192957705     
0010001300044U 090000000000000000000000000000000000000000000000000000000000000000000000000000000000000000000000000000000000000000000000002903201700000000            000000000000000                              000                           
0010001300045T 090180230000001544772 29577050059238199   788888888888889929122016000000000007500001012408888888888888899          0900000000000000000000000000000000000000000000000000000   000000000000000000000010009        170192957705     
0010001300046U 090000000000000000000000000000000000000000000000000000000000000000000000000000000000000000000000000000000000000000000000002903201700000000            000000000000000                              000                           
0010001300047T 090180230000001544772 29577050066129026   788888888888889929122016000000000007500001000213888888888888899          0900000000000000000000000000000000000000000000000000000   000000000000000000000010009        170192957705     
0010001300048U 090000000000000000000000000000000000000000000000000000000000000000000000000000000000000000000000000000000000000000000000002903201700000000            000000000000000                              000                           
0010001300049T 090180230000001544772 29577050072229947   788888888888889929122016000000000007500001012408888888888888899          0900000000000000000000000000000000000000000000000000000   000000000000000000000010009        170192957705     
0010001300050U 090000000000000000000000000000000000000000000000000000000000000000000000000000000000000000000000000000000000000000000000002903201700000000            000000000000000                              000                           
0010001300051T 090180230000001544772 29577050072244559   788888888888889929122016000000000007500001012408888888888888899          0900000000000000000000000000000000000000000000000000000   000000000000000000000010009        170192957705     
0010001300052U 090000000000000000000000000000000000000000000000000000000000000000000000000000000000000000000000000000000000000000000000002903201700000000            000000000000000                              000                           
0010001300053T 090180230000001544772 29577050081405142   788888888888889929122016000000000007500001012408888888888888899          0900000000000000000000000000000000000000000000000000000   000000000000000000000010009        170192957705     
0010001300054U 090000000000000000000000000000000000000000000000000000000000000000000000000000000000000000000000000000000000000000000000002903201700000000            000000000000000                              000                           
0010001300055T 090180230000001544772 29577050081740598   78888888888888992912201600000000000750000103049X888888888888899          0900000000000000000000000000000000000000000000000000000   000000000000000000000010009        170192957705     
0010001300056U 090000000000000000000000000000000000000000000000000000000000000000000000000000000000000000000000000000000000000000000000002903201700000000            000000000000000                              000                           
0010001300057T 090180230000001544772 29577050081834764   788888888888889929122016000000000007500001003166888888888888899          0900000000000000000000000000000000000000000000000000000   000000000000000000000010009        170192957705     
0010001300058U 090000000000000000000000000000000000000000000000000000000000000000000000000000000000000000000000000000000000000000000000002903201700000000            000000000000000                              000                           
0010001300059T 090180230000001544772 29577050082207732   788888888888889929122016000000000007500001012416888888888888899          0900000000000000000000000000000000000000000000000000000   000000000000000000000010009        170192957705     
0010001300060U 090000000000000000000000000000000000000000000000000000000000000000000000000000000000000000000000000000000000000000000000002903201700000000            000000000000000                              000                           
0010001300061T 090180230000001544772 29577050082304527   788888888888889929122016000000000007500001004782888888888888899          0900000000000000000000000000000000000000000000000000000   000000000000000000000010009        170192957705     
0010001300062U 090000000000000000000000000000000000000000000000000000000000000000000000000000000000000000000000000000000000000000000000002903201700000000            000000000000000                              000                           
0010001300063T 090180230000001544772 29577050082452738   788888888888889929122016000000000007500001004782888888888888899          0900000000000000000000000000000000000000000000000000000   000000000000000000000010009        170192957705     
0010001300064U 090000000000000000000000000000000000000000000000000000000000000000000000000000000000000000000000000000000000000000000000002903201700000000            000000000000000                              000                           
0010001300065T 090180230000001544772 29577050082555805   788888888888889929122016000000000007500001004782888888888888899          0900000000000000000000000000000000000000000000000000000   000000000000000000000010009        170192957705     
0010001300066U 090000000000000000000000000000000000000000000000000000000000000000000000000000000000000000000000000000000000000000000000002903201700000000            000000000000000                              000                           
0010001300067T 090180230000001544772 29577050082740753   788888888888889929122016000000000007500001012408888888888888899          0900000000000000000000000000000000000000000000000000000   000000000000000000000010009        170192957705     
0010001300068U 090000000000000000000000000000000000000000000000000000000000000000000000000000000000000000000000000000000000000000000000002903201700000000            000000000000000                              000                           
0010001300069T 090180230000001544772 29577050083158448   78888888888888992912201600000000000750000103049X888888888888899          0900000000000000000000000000000000000000000000000000000   000000000000000000000010009        170192957705     
0010001300070U 090000000000000000000000000000000000000000000000000000000000000000000000000000000000000000000000000000000000000000000000002903201700000000            000000000000000                              000                           
0010001300071T 090180230000001544772 29577050083611037   788888888888889929122016000000000007500001004782888888888888899          0900000000000000000000000000000000000000000000000000000   000000000000000000000010009        170192957705     
0010001300072U 090000000000000000000000000000000000000000000000000000000000000000000000000000000000000000000000000000000000000000000000002903201700000000            000000000000000                              000                           
0010001300073T 090180230000001544772 29577050083713078   788888888888889929122016000000000007500001012408888888888888899          0900000000000000000000000000000000000000000000000000000   000000000000000000000010009        170192957705     
0010001300074U 090000000000000000000000000000000000000000000000000000000000000000000000000000000000000000000000000000000000000000000000002903201700000000            000000000000000                              000                           
0010001300075T 090180230000001544772 29577050083852318   788888888888889929122016000000000007500001012408888888888888899          0900000000000000000000000000000000000000000000000000000   000000000000000000000010009        170192957705     
0010001300076U 090000000000000000000000000000000000000000000000000000000000000000000000000000000000000000000000000000000000000000000000002903201700000000            000000000000000                              000                           
0010001300077T 090180230000001544772 29577050083921967   788888888888889929122016000000000007500001012408888888888888899          0900000000000000000000000000000000000000000000000000000   000000000000000000000010009        170192957705     
0010001300078U 090000000000000000000000000000000000000000000000000000000000000000000000000000000000000000000000000000000000000000000000002903201700000000            000000000000000                              000                           
0010001300079T 090180230000001544772 29577050084001751   788888888888889929122016000000000007500001012408888888888888899          0900000000000000000000000000000000000000000000000000000   000000000000000000000010009        170192957705     
0010001300080U 090000000000000000000000000000000000000000000000000000000000000000000000000000000000000000000000000000000000000000000000002903201700000000            000000000000000                              000                           
0010001300081T 090180230000001544772 29577050084137497   78888888888888992912201600000000000750000100829X888888888888899          0900000000000000000000000000000000000000000000000000000   000000000000000000000010009        170192957705     
0010001300082U 090000000000000000000000000000000000000000000000000000000000000000000000000000000000000000000000000000000000000000000000002903201700000000            000000000000000                              000                           
0010001300083T 090180230000001544772 29577050084204392   788888888888889929122016000000000007500001000213888888888888899          0900000000000000000000000000000000000000000000000000000   000000000000000000000010009        170192957705     
0010001300084U 090000000000000000000000000000000000000000000000000000000000000000000000000000000000000000000000000000000000000000000000002903201700000000            000000000000000                              000                           
0010001300085T 090180230000001544772 29577050084350796   788888888888889929122016000000000010000001012408888888888888899          0900000000000000000000000000000000000000000000000000000   000000000000000000000010009        170192957705     
0010001300086U 090000000000000000000000000000000000000000000000000000000000000000000000000000000000000000000000000000000000000000000000002903201700000000            000000000000000                              000                           
0010001300087T 090180230000001544772 29577050084357451   788888888888889929122016000000000010000001012408888888888888899          0900000000000000000000000000000000000000000000000000000   000000000000000000000010009        170192957705     
0010001300088U 090000000000000000000000000000000000000000000000000000000000000000000000000000000000000000000000000000000000000000000000002903201700000000            000000000000000                              000                           
0010001300089T 090180230000001544772 29577050084459318   78888888888888992912201600000000000750000103049X888888888888899          0900000000000000000000000000000000000000000000000000000   000000000000000000000010009        170192957705     
0010001300090U 090000000000000000000000000000000000000000000000000000000000000000000000000000000000000000000000000000000000000000000000002903201700000000            000000000000000                              000                           
0010001300091T 090180230000001544772 29577050084522186   788888888888889929122016000000000007500001012408888888888888899          0900000000000000000000000000000000000000000000000000000   000000000000000000000010009        170192957705     
0010001300092U 090000000000000000000000000000000000000000000000000000000000000000000000000000000000000000000000000000000000000000000000002903201700000000            000000000000000                              000                           
0010001300093T 090180230000001544772 29577050084626829   788888888888889929122016000000000007500001012408888888888888899          0900000000000000000000000000000000000000000000000000000   000000000000000000000010009        170192957705     
0010001300094U 090000000000000000000000000000000000000000000000000000000000000000000000000000000000000000000000000000000000000000000000002903201700000000            000000000000000                              000                           
0010001300095T 090180230000001544772 29577050084752876   788888888888889929122016000000000007500001000213888888888888899          0900000000000000000000000000000000000000000000000000000   000000000000000000000010009        170192957705     
0010001300096U 090000000000000000000000000000000000000000000000000000000000000000000000000000000000000000000000000000000000000000000000002903201700000000            000000000000000                              000                           
0010001300097T 090180230000001544772 29577050084927316   78888888888888992912201600000000000750000103049X888888888888899          0900000000000000000000000000000000000000000000000000000   000000000000000000000010009        170192957705     
0010001300098U 090000000000000000000000000000000000000000000000000000000000000000000000000000000000000000000000000000000000000000000000002903201700000000            000000000000000                              000                           
0010001300099T 090180230000001544772 29577050085015734   78888888888888992912201600000000000750000103049X888888888888899          0900000000000000000000000000000000000000000000000000000   000000000000000000000010009        170192957705     
0010001300100U 090000000000000000000000000000000000000000000000000000000000000000000000000000000000000000000000000000000000000000000000002903201700000000            000000000000000                              000                           
0010001300101T 090180230000001544772 29577050085102522   788888888888889929122016000000000007500001004782888888888888899          0900000000000000000000000000000000000000000000000000000   000000000000000000000010009        170192957705     
0010001300102U 090000000000000000000000000000000000000000000000000000000000000000000000000000000000000000000000000000000000000000000000002903201700000000            000000000000000                              000                           
0010001300103T 090180230000001544772 29577050085356837   788888888888889929122016000000000007500001012416888888888888899          0900000000000000000000000000000000000000000000000000000   000000000000000000000010009        170192957705     
0010001300104U 090000000000000000000000000000000000000000000000000000000000000000000000000000000000000000000000000000000000000000000000002903201700000000            000000000000000                              000                           
0010001300105T 090180230000001544772 29577050085526166   788888888888889929122016000000000007500001000213888888888888899          0900000000000000000000000000000000000000000000000000000   000000000000000000000010009        170192957705     
0010001300106U 090000000000000000000000000000000000000000000000000000000000000000000000000000000000000000000000000000000000000000000000002903201700000000            000000000000000                              000                           
0010001300107T 090180230000001544772 29577050085837827   78888888888888992912201600000000000750000103049X888888888888899          0900000000000000000000000000000000000000000000000000000   000000000000000000000010009        170192957705     
0010001300108U 090000000000000000000000000000000000000000000000000000000000000000000000000000000000000000000000000000000000000000000000002903201700000000            000000000000000                              000                           
0010001300109T 090180230000001544772 29577050085917129   788888888888889929122016000000000007500001012416888888888888899          0900000000000000000000000000000000000000000000000000000   000000000000000000000010009        170192957705     
0010001300110U 090000000000000000000000000000000000000000000000000000000000000000000000000000000000000000000000000000000000000000000000002903201700000000            000000000000000                              000                           
0010001300111T 090180230000001544772 29577050086005491   788888888888889929122016000000000007500001012416888888888888899          0900000000000000000000000000000000000000000000000000000   000000000000000000000010009        170192957705     
0010001300112U 090000000000000000000000000000000000000000000000000000000000000000000000000000000000000000000000000000000000000000000000002903201700000000            000000000000000                              000                           
0010001300113T 090180230000001544772 29577050086123506   788888888888889929122016000000000007500001004782888888888888899          0900000000000000000000000000000000000000000000000000000   000000000000000000000010009        170192957705     
0010001300114U 090000000000000000000000000000000000000000000000000000000000000000000000000000000000000000000000000000000000000000000000002903201700000000            000000000000000                              000                           
0010001300115T 090180230000001544772 29577050086217033   788888888888889929122016000000000007500001012408888888888888899          0900000000000000000000000000000000000000000000000000000   000000000000000000000010009        170192957705     
0010001300116U 090000000000000000000000000000000000000000000000000000000000000000000000000000000000000000000000000000000000000000000000002903201700000000            000000000000000                              000                           
0010001300117T 090180230000001544772 29577050086442532   78888888888888992912201600000000000750000100829X888888888888899          0900000000000000000000000000000000000000000000000000000   000000000000000000000010009        170192957705     
0010001300118U 090000000000000000000000000000000000000000000000000000000000000000000000000000000000000000000000000000000000000000000000002903201700000000            000000000000000                              000                           
0010001300119T 090180230000001544772 29577050086559735   78888888888888992912201600000000001000000103049X888888888888899          0900000000000000000000000000000000000000000000000000000   000000000000000000000010009        170192957705     
0010001300120U 090000000000000000000000000000000000000000000000000000000000000000000000000000000000000000000000000000000000000000000000002903201700000000            000000000000000                              000                           
0010001300121T 090180230000001544772 29577050086630951   788888888888889929122016000000000007500001013005888888888888899          0900000000000000000000000000000000000000000000000000000   000000000000000000000010009        170192957705     
0010001300122U 090000000000000000000000000000000000000000000000000000000000000000000000000000000000000000000000000000000000000000000000002903201700000000            000000000000000                              000                           
0010001300123T 090180230000001544772 29577050086712848   788888888888889929122016000000000007500001000213888888888888899          0900000000000000000000000000000000000000000000000000000   000000000000000000000010009        170192957705     
0010001300124U 090000000000000000000000000000000000000000000000000000000000000000000000000000000000000000000000000000000000000000000000002903201700000000            000000000000000                              000                           
0010001300125T 090180230000001544772 29577050086912773   788888888888889929122016000000000007500001000213888888888888899          0900000000000000000000000000000000000000000000000000000   000000000000000000000010009        170192957705     
0010001300126U 090000000000000000000000000000000000000000000000000000000000000000000000000000000000000000000000000000000000000000000000002903201700000000            000000000000000                              000                           
0010001300127T 090180230000001544772 29577050087023952   788888888888889929122016000000000007500001012408888888888888899          0900000000000000000000000000000000000000000000000000000   000000000000000000000010009        170192957705     
0010001300128U 090000000000000000000000000000000000000000000000000000000000000000000000000000000000000000000000000000000000000000000000002903201700000000            000000000000000                              000                           
0010001300129T 090180230000001544772 29577050087116085   788888888888889929122016000000000007500001012408888888888888899          0900000000000000000000000000000000000000000000000000000   000000000000000000000010009        170192957705     
0010001300130U 090000000000000000000000000000000000000000000000000000000000000000000000000000000000000000000000000000000000000000000000002903201700000000            000000000000000                              000                           
0010001300131T 090180230000001544772 29577050087210743   788888888888889929122016000000000007500001012408888888888888899          0900000000000000000000000000000000000000000000000000000   000000000000000000000010009        170192957705     
0010001300132U 090000000000000000000000000000000000000000000000000000000000000000000000000000000000000000000000000000000000000000000000002903201700000000            000000000000000                              000                           
0010001300133T 090180230000001544772 29577050087306951   788888888888889929122016000000000007500001030864888888888888899          0900000000000000000000000000000000000000000000000000000   000000000000000000000010009        170192957705     
0010001300134U 090000000000000000000000000000000000000000000000000000000000000000000000000000000000000000000000000000000000000000000000002903201700000000            000000000000000                              000                           
0010001300135T 090180230000001544772 29577050087400498   788888888888889929122016000000000007500001014389888888888888899          0900000000000000000000000000000000000000000000000000000   000000000000000000000010009        170192957705     
0010001300136U 090000000000000000000000000000000000000000000000000000000000000000000000000000000000000000000000000000000000000000000000002903201700000000            000000000000000                              000                           
0010001300137T 090180230000001544772 29577050087554254   78888888888888992912201600000000000750000103049X888888888888899          0900000000000000000000000000000000000000000000000000000   000000000000000000000010009        170192957705     
0010001300138U 090000000000000000000000000000000000000000000000000000000000000000000000000000000000000000000000000000000000000000000000002903201700000000            000000000000000                              000                           
0010001300139T 090180230000001544772 29577050087625822   788888888888889929122016000000000007500001012408888888888888899          0900000000000000000000000000000000000000000000000000000   000000000000000000000010009        170192957705     
0010001300140U 090000000000000000000000000000000000000000000000000000000000000000000000000000000000000000000000000000000000000000000000002903201700000000            000000000000000                              000                           
0010001300141T 090180230000001544772 29577050087949186   788888888888889929122016000000000007500001012416888888888888899          0900000000000000000000000000000000000000000000000000000   000000000000000000000010009        170192957705     
0010001300142U 090000000000000000000000000000000000000000000000000000000000000000000000000000000000000000000000000000000000000000000000002903201700000000            000000000000000                              000                           
0010001300143T 090180230000001544772 29577050088041011   78888888888888992912201600000000000750000103049X888888888888899          0900000000000000000000000000000000000000000000000000000   000000000000000000000010009        170192957705     
0010001300144U 090000000000000000000000000000000000000000000000000000000000000000000000000000000000000000000000000000000000000000000000002903201700000000            000000000000000                              000                           
0010001300145T 280180230000001544772 29577050007349175   788888888888889928012017000000000007500001000000888888888888899          0900000000000000000000000000000000000000000000000000000   000000000000000000000005002        170192957705     
0010001300146U 280000000000000000000000000000000000000000000000000000000000000000000000000000000000000000000000000000000000000000000000002903201700000000            000000000000000                              000                           
0010001300147T 280180230000001544772 29577050010131623   7               27022017000000000007500001000000                         0900000000000000000000000000000000000000000000000000000   000000000000000000000005002        170192957705     
0010001300148U 280000000000000000000000000000000000000000000000000000000000000000000000000000000000000000000000000000000000000000000000002903201700000000            000000000000000                              000                           
0010001300149T 280180230000001544772 29577050050455929   788888888888889928012017000000000007500001000000888888888888899          0900000000000000000000000000000000000000000000000000000   000000000000000000000005002        170192957705     
0010001300150U 280000000000000000000000000000000000000000000000000000000000000000000000000000000000000000000000000000000000000000000000002903201700000000            000000000000000                              000                           
0010001300151T 280180230000001544772 29577050050534242   788888888888889928012017000000000007500001000000888888888888899          0900000000000000000000000000000000000000000000000000000   000000000000000000000005002        170192957705     
0010001300152U 280000000000000000000000000000000000000000000000000000000000000000000000000000000000000000000000000000000000000000000000002903201700000000            000000000000000                              000                           
0010001300153T 280180230000001544772 29577050050656738   788888888888889928012017000000000007500001000000888888888888899          0900000000000000000000000000000000000000000000000000000   000000000000000000000005002        170192957705     
0010001300154U 280000000000000000000000000000000000000000000000000000000000000000000000000000000000000000000000000000000000000000000000002903201700000000            000000000000000                              000                           
0010001300155T 280180230000001544772 29577050063132681   788888888888889928012017000000000007500001000000888888888888899          0900000000000000000000000000000000000000000000000000000   000000000000000000000005002        170192957705     
0010001300156U 280000000000000000000000000000000000000000000000000000000000000000000000000000000000000000000000000000000000000000000000002903201700000000            000000000000000                              000                           
0010001300157T 280180230000001544772 29577050063157652   788888888888889928012017000000000007500001000000888888888888899          0900000000000000000000000000000000000000000000000000000   000000000000000000000005002        170192957705     
0010001300158U 280000000000000000000000000000000000000000000000000000000000000000000000000000000000000000000000000000000000000000000000002903201700000000            000000000000000                              000                           
0010001300159T 280180230000001544772 29577050064636458   788888888888889928012017000000000007500001000000888888888888899          0900000000000000000000000000000000000000000000000000000   000000000000000000000005002        170192957705     
0010001300160U 280000000000000000000000000000000000000000000000000000000000000000000000000000000000000000000000000000000000000000000000002903201700000000            000000000000000                              000                           
0010001300161T 280180230000001544772 29577050079124585   788888888888889928012017000000000007500001000000888888888888899          0900000000000000000000000000000000000000000000000000000   000000000000000000000005002        170192957705     
0010001300162U 280000000000000000000000000000000000000000000000000000000000000000000000000000000000000000000000000000000000000000000000002903201700000000            000000000000000                              000                           
0010001300163T 280180230000001544772 29577050084621138   788888888888889928012017000000000007500001000000888888888888899          0900000000000000000000000000000000000000000000000000000   000000000000000000000005002        170192957705     
0010001300164U 280000000000000000000000000000000000000000000000000000000000000000000000000000000000000000000000000000000000000000000000002903201700000000            000000000000000                              000                           
0010001300165T 280180230000001544772 29577050115905532   788888888888889928012017000000000007500001000000888888888888899          0900000000000000000000000000000000000000000000000000000   000000000000000000000005002        170192957705     
0010001300166U 280000000000000000000000000000000000000000000000000000000000000000000000000000000000000000000000000000000000000000000000002903201700000000            000000000000000                              000                           
0010001300167T 280180230000001544772 29577050124018422   788888888888889928012017000000000007500001000000888888888888899          0900000000000000000000000000000000000000000000000000000   000000000000000000000005002        170192957705     
0010001300168U 280000000000000000000000000000000000000000000000000000000000000000000000000000000000000000000000000000000000000000000000002903201700000000            000000000000000                              000                           
0010001300169T 280180230000001544772 29577050128019535   788888888888889928012017000000000007500001000000888888888888899          0900000000000000000000000000000000000000000000000000000   000000000000000000000005002        170192957705     
0010001300170U 280000000000000000000000000000000000000000000000000000000000000000000000000000000000000000000000000000000000000000000000002903201700000000            000000000000000                              000                           
0010001300171T 280180230000001544772 29577050128029503   788888888888889928012017000000000007500001000000888888888888899          0900000000000000000000000000000000000000000000000000000   000000000000000000000005002        170192957705     
0010001300172U 280000000000000000000000000000000000000000000000000000000000000000000000000000000000000000000000000000000000000000000000002903201700000000            000000000000000                              000                           
0010001300173T 280180230000001544772 29577050155228510   788888888888889928012017000000000007500001000000888888888888899          0900000000000000000000000000000000000000000000000000000   000000000000000000000005002        170192957705     
0010001300174U 280000000000000000000000000000000000000000000000000000000000000000000000000000000000000000000000000000000000000000000000002903201700000000            000000000000000                              000                           
0010001300175T 280180230000001544772 29577050212231971   788888888888889928012017000000000007500001000000888888888888899          0900000000000000000000000000000000000000000000000000000   000000000000000000000005002        170192957705     
0010001300176U 280000000000000000000000000000000000000000000000000000000000000000000000000000000000000000000000000000000000000000000000002903201700000000            000000000000000                              000                           
0010001300177T 280180230000001544772 29577050218840690   788888888888889928012017000000000007500001000000888888888888899          0900000000000000000000000000000000000000000000000000000   000000000000000000000005002        170192957705     
0010001300178U 280000000000000000000000000000000000000000000000000000000000000000000000000000000000000000000000000000000000000000000000002903201700000000            000000000000000                              000                           
0010001300179T 280180230000001544772 29577050218858333   788888888888889928012017000000000007500001000000888888888888899          0900000000000000000000000000000000000000000000000000000   000000000000000000000005002        170192957705     
0010001300180U 280000000000000000000000000000000000000000000000000000000000000000000000000000000000000000000000000000000000000000000000002903201700000000            000000000000000                              000                           
0010001300181T 280180230000001544772 29577050237720763   788888888888889928012017000000000007500001000000888888888888899          0900000000000000000000000000000000000000000000000000000   000000000000000000000005002        170192957705     
0010001300182U 280000000000000000000000000000000000000000000000000000000000000000000000000000000000000000000000000000000000000000000000002903201700000000            000000000000000                              000                           
0010001300183T 280180230000001544772 29577050243954706   788888888888889928012017000000000007500001000000888888888888899          0900000000000000000000000000000000000000000000000000000   000000000000000000000005002        170192957705     
0010001300184U 280000000000000000000000000000000000000000000000000000000000000000000000000000000000000000000000000000000000000000000000002903201700000000            000000000000000                              000                           
0010001300185T 280180230000001544772 29577050247906335   788888888888889928012017000000000010000001000000888888888888899          0900000000000000000000000000000000000000000000000000000   000000000000000000000005002        170192957705     
0010001300186U 280000000000000000000000000000000000000000000000000000000000000000000000000000000000000000000000000000000000000000000000002903201700000000            000000000000000                              000                           
0010001300187T 280180230000001544772 29577050262206240   788888888888889928012017000000000007500001000000888888888888899          0900000000000000000000000000000000000000000000000000000   000000000000000000000005002        170192957705     
0010001300188U 280000000000000000000000000000000000000000000000000000000000000000000000000000000000000000000000000000000000000000000000002903201700000000            000000000000000                              000                           
0010001300189T 280180230000001544772 29577050262222908   788888888888889928012017000000000007500001000000888888888888899          0900000000000000000000000000000000000000000000000000000   000000000000000000000005002        170192957705     
0010001300190U 280000000000000000000000000000000000000000000000000000000000000000000000000000000000000000000000000000000000000000000000002903201700000000            000000000000000                              000                           
0010001300191T 280180230000001544772 29577050265752547   788888888888889928012017000000000007500001000000888888888888899          0900000000000000000000000000000000000000000000000000000   000000000000000000000005002        170192957705     
0010001300192U 280000000000000000000000000000000000000000000000000000000000000000000000000000000000000000000000000000000000000000000000002903201700000000            000000000000000                              000                           
0010001300193T 280180230000001544772 29577050269434759   788888888888889928012017000000000007500001000000888888888888899          0900000000000000000000000000000000000000000000000000000   000000000000000000000005002        170192957705     
0010001300194U 280000000000000000000000000000000000000000000000000000000000000000000000000000000000000000000000000000000000000000000000002903201700000000            000000000000000                              000                           
0010001300195T 280180230000001544772 29577050271428641   788888888888889928012017000000000007500001000000888888888888899          0900000000000000000000000000000000000000000000000000000   000000000000000000000005002        170192957705     
0010001300196U 280000000000000000000000000000000000000000000000000000000000000000000000000000000000000000000000000000000000000000000000002903201700000000            000000000000000                              000                           
0010001300197T 280180230000001544772 29577050278353578   788888888888889928012017000000000007500001000000888888888888899          0900000000000000000000000000000000000000000000000000000   000000000000000000000005002        170192957705     
0010001300198U 280000000000000000000000000000000000000000000000000000000000000000000000000000000000000000000000000000000000000000000000002903201700000000            000000000000000                              000                           
0010001300199T 280180230000001544772 29577050278530824   788888888888889928012017000000000007500001000000888888888888899          0900000000000000000000000000000000000000000000000000000   000000000000000000000005002        170192957705     
0010001300200U 280000000000000000000000000000000000000000000000000000000000000000000000000000000000000000000000000000000000000000000000002903201700000000            000000000000000                              000                           
0010001300201T 280180230000001544772 29577050285728347   788888888888889928012017000000000007500001000000888888888888899          0900000000000000000000000000000000000000000000000000000   000000000000000000000005002        170192957705     
0010001300202U 280000000000000000000000000000000000000000000000000000000000000000000000000000000000000000000000000000000000000000000000002903201700000000            000000000000000                              000                           
0010001300203T 280180230000001544772 29577050287451048   788888888888889928012017000000000007500001000000888888888888899          0900000000000000000000000000000000000000000000000000000   000000000000000000000005002        170192957705     
0010001300204U 280000000000000000000000000000000000000000000000000000000000000000000000000000000000000000000000000000000000000000000000002903201700000000            000000000000000                              000                           
0010001300205T 280180230000001544772 29577050290014762   788888888888889928012017000000000007500001000000888888888888899          0900000000000000000000000000000000000000000000000000000   000000000000000000000005002        170192957705     
0010001300206U 280000000000000000000000000000000000000000000000000000000000000000000000000000000000000000000000000000000000000000000000002903201700000000            000000000000000                              000                           
0010001300207T 280180230000001544772 29577050290046175   788888888888889928012017000000000007500001000000888888888888899          0900000000000000000000000000000000000000000000000000000   000000000000000000000005002        170192957705     
0010001300208U 280000000000000000000000000000000000000000000000000000000000000000000000000000000000000000000000000000000000000000000000002903201700000000            000000000000000                              000                           
0010001300209T 280180230000001544772 29577050296239792   788888888888889928012017000000000007500001000000888888888888899          0900000000000000000000000000000000000000000000000000000   000000000000000000000005002        170192957705     
0010001300210U 280000000000000000000000000000000000000000000000000000000000000000000000000000000000000000000000000000000000000000000000002903201700000000            000000000000000                              000                           
0010001300211T 280180230000001544772 29577050311329630   788888888888889928012017000000000007500001000000888888888888899          0900000000000000000000000000000000000000000000000000000   000000000000000000000005002        170192957705     
0010001300212U 280000000000000000000000000000000000000000000000000000000000000000000000000000000000000000000000000000000000000000000000002903201700000000            000000000000000                              000                           
0010001300213T 280180230000001544772 29577050315335647   788888888888889928012017000000000007500001000000888888888888899          0900000000000000000000000000000000000000000000000000000   000000000000000000000005002        170192957705     
0010001300214U 280000000000000000000000000000000000000000000000000000000000000000000000000000000000000000000000000000000000000000000000002903201700000000            000000000000000                              000                           
0010001300215T 280180230000001544772 29577050318228807   788888888888889928012017000000000007500001000000888888888888899          0900000000000000000000000000000000000000000000000000000   000000000000000000000005002        170192957705     
0010001300216U 280000000000000000000000000000000000000000000000000000000000000000000000000000000000000000000000000000000000000000000000002903201700000000            000000000000000                              000                           
0010001300217T 280180230000001544772 29577050318335962   788888888888889928012017000000000007500001000000888888888888899          0900000000000000000000000000000000000000000000000000000   000000000000000000000005002        170192957705     
0010001300218U 280000000000000000000000000000000000000000000000000000000000000000000000000000000000000000000000000000000000000000000000002903201700000000            000000000000000                              000                           
0010001300219T 280180230000001544772 29577050318454136   788888888888889928012017000000000007500001000000888888888888899          0900000000000000000000000000000000000000000000000000000   000000000000000000000005002        170192957705     
0010001300220U 280000000000000000000000000000000000000000000000000000000000000000000000000000000000000000000000000000000000000000000000002903201700000000            000000000000000                              000                           
0010001300221T 280180230000001544772 29577050318537909   788888888888889928012017000000000007500001000000888888888888899          0900000000000000000000000000000000000000000000000000000   000000000000000000000005002        170192957705     
0010001300222U 280000000000000000000000000000000000000000000000000000000000000000000000000000000000000000000000000000000000000000000000002903201700000000            000000000000000                              000                           
0010001300223T 280180230000001544772 29577050318921500   788888888888889928012017000000000007500001000000888888888888899          0900000000000000000000000000000000000000000000000000000   000000000000000000000005002        170192957705     
0010001300224U 280000000000000000000000000000000000000000000000000000000000000000000000000000000000000000000000000000000000000000000000002903201700000000            000000000000000                              000                           
0010001300225T 280180230000001544772 29577050319142228   788888888888889928012017000000000007500001000000888888888888899          0900000000000000000000000000000000000000000000000000000   000000000000000000000005002        170192957705     
0010001300226U 280000000000000000000000000000000000000000000000000000000000000000000000000000000000000000000000000000000000000000000000002903201700000000            000000000000000                              000                           
0010001300227T 280180230000001544772 29577050319215744   788888888888889928012017000000000007500001000000888888888888899          0900000000000000000000000000000000000000000000000000000   000000000000000000000005002        170192957705     
0010001300228U 280000000000000000000000000000000000000000000000000000000000000000000000000000000000000000000000000000000000000000000000002903201700000000            000000000000000                              000                           
0010001300229T 280180230000001544772 29577050319327830   788888888888889928012017000000000007500001000000888888888888899          0900000000000000000000000000000000000000000000000000000   000000000000000000000005002        170192957705     
0010001300230U 280000000000000000000000000000000000000000000000000000000000000000000000000000000000000000000000000000000000000000000000002903201700000000            000000000000000                              000                           
0010001300231T 280180230000001544772 29577050319446768   788888888888889928012017000000000007500001000000888888888888899          0900000000000000000000000000000000000000000000000000000   000000000000000000000005002        170192957705     
0010001300232U 280000000000000000000000000000000000000000000000000000000000000000000000000000000000000000000000000000000000000000000000002903201700000000            000000000000000                              000                           
0010001300233T 280180230000001544772 29577050319553594   788888888888889928012017000000000007500001000000888888888888899          0900000000000000000000000000000000000000000000000000000   000000000000000000000005002        170192957705     
0010001300234U 280000000000000000000000000000000000000000000000000000000000000000000000000000000000000000000000000000000000000000000000002903201700000000            000000000000000                              000                           
0010001300235T 280180230000001544772 29577050319611434   788888888888889928012017000000000007500001000000888888888888899          0900000000000000000000000000000000000000000000000000000   000000000000000000000005002        170192957705     
0010001300236U 280000000000000000000000000000000000000000000000000000000000000000000000000000000000000000000000000000000000000000000000002903201700000000            000000000000000                              000                           
0010001300237T 280180230000001544772 29577050319755570   788888888888889928012017000000000007500001000000888888888888899          0900000000000000000000000000000000000000000000000000000   000000000000000000000005002        170192957705     
0010001300238U 280000000000000000000000000000000000000000000000000000000000000000000000000000000000000000000000000000000000000000000000002903201700000000            000000000000000                              000                           
0010001300239T 280180230000001544772 29577050319849738   788888888888889928012017000000000007500001000000888888888888899          0900000000000000000000000000000000000000000000000000000   000000000000000000000005002        170192957705     
0010001300240U 280000000000000000000000000000000000000000000000000000000000000000000000000000000000000000000000000000000000000000000000002903201700000000            000000000000000                              000                           
0010001300241T 280180230000001544772 29577050320000974   788888888888889928012017000000000007500001000000888888888888899          0900000000000000000000000000000000000000000000000000000   000000000000000000000005002        170192957705     
0010001300242U 280000000000000000000000000000000000000000000000000000000000000000000000000000000000000000000000000000000000000000000000002903201700000000            000000000000000                              000                           
0010001300243T 280180230000001544772 29577050320135521   788888888888889928012017000000000007500001000000888888888888899          0900000000000000000000000000000000000000000000000000000   000000000000000000000005002        170192957705     
0010001300244U 280000000000000000000000000000000000000000000000000000000000000000000000000000000000000000000000000000000000000000000000002903201700000000            000000000000000                              000                           
0010001300245T 280180230000001544772 29577050320303034   788888888888889928012017000000000007500001000000888888888888899          0900000000000000000000000000000000000000000000000000000   000000000000000000000005002        170192957705     
0010001300246U 280000000000000000000000000000000000000000000000000000000000000000000000000000000000000000000000000000000000000000000000002903201700000000            000000000000000                              000                           
0010001300247T 280180230000001544772 29577050320435521   788888888888889928012017000000000007500001000000888888888888899          0900000000000000000000000000000000000000000000000000000   000000000000000000000005002        170192957705     
0010001300248U 280000000000000000000000000000000000000000000000000000000000000000000000000000000000000000000000000000000000000000000000002903201700000000            000000000000000                              000                           
0010001300249T 280180230000001544772 29577050320517309   788888888888889928012017000000000007500001000000888888888888899          0900000000000000000000000000000000000000000000000000000   000000000000000000000005002        170192957705     
0010001300250U 280000000000000000000000000000000000000000000000000000000000000000000000000000000000000000000000000000000000000000000000002903201700000000            000000000000000                              000                           
0010001300251T 280180230000001544772 29577050320651111   788888888888889928012017000000000007500001000000888888888888899          0900000000000000000000000000000000000000000000000000000   000000000000000000000005002        170192957705     
0010001300252U 280000000000000000000000000000000000000000000000000000000000000000000000000000000000000000000000000000000000000000000000002903201700000000            000000000000000                              000                           
0010001300253T 280180230000001544772 29577050320732636   788888888888889928012017000000000007500001000000888888888888899          0900000000000000000000000000000000000000000000000000000   000000000000000000000005002        170192957705     
0010001300254U 280000000000000000000000000000000000000000000000000000000000000000000000000000000000000000000000000000000000000000000000002903201700000000            000000000000000                              000                           
0010001300255T 280180230000001544772 29577050320926797   788888888888889928012017000000000007500001000000888888888888899          0900000000000000000000000000000000000000000000000000000   000000000000000000000005002        170192957705     
0010001300256U 280000000000000000000000000000000000000000000000000000000000000000000000000000000000000000000000000000000000000000000000002903201700000000            000000000000000                              000                           
0010001300257T 280180230000001544772 29577050321045010   788888888888889928012017000000000007500001000000888888888888899          0900000000000000000000000000000000000000000000000000000   000000000000000000000005002        170192957705     
0010001300258U 280000000000000000000000000000000000000000000000000000000000000000000000000000000000000000000000000000000000000000000000002903201700000000            000000000000000                              000                           
0010001300259T 280180230000001544772 29577050321110361   788888888888889928012017000000000007500001000000888888888888899          0900000000000000000000000000000000000000000000000000000   000000000000000000000005002        170192957705     
0010001300260U 280000000000000000000000000000000000000000000000000000000000000000000000000000000000000000000000000000000000000000000000002903201700000000            000000000000000                              000                           
0010001300261T 280180230000001544772 29577050321249433   788888888888889928012017000000000007500001000000888888888888899          0900000000000000000000000000000000000000000000000000000   000000000000000000000005002        170192957705     
0010001300262U 280000000000000000000000000000000000000000000000000000000000000000000000000000000000000000000000000000000000000000000000002903201700000000            000000000000000                              000                           
0010001300263T 280180230000001544772 29577050321345705   788888888888889928012017000000000007500001000000888888888888899          0900000000000000000000000000000000000000000000000000000   000000000000000000000005002        170192957705     
0010001300264U 280000000000000000000000000000000000000000000000000000000000000000000000000000000000000000000000000000000000000000000000002903201700000000            000000000000000                              000                           
0010001300265T 280180230000001544772 29577050321403981   788888888888889928012017000000000007500001000000888888888888899          0900000000000000000000000000000000000000000000000000000   000000000000000000000005002        170192957705     
0010001300266U 280000000000000000000000000000000000000000000000000000000000000000000000000000000000000000000000000000000000000000000000002903201700000000            000000000000000                              000                           
0010001300267T 280180230000001544772 29577050321517458   788888888888889928012017000000000007500001000000888888888888899          0900000000000000000000000000000000000000000000000000000   000000000000000000000005002        170192957705     
0010001300268U 280000000000000000000000000000000000000000000000000000000000000000000000000000000000000000000000000000000000000000000000002903201700000000            000000000000000                              000                           
0010001300269T 280180230000001544772 29577050321605258   788888888888889928012017000000000007500001000000888888888888899          0900000000000000000000000000000000000000000000000000000   000000000000000000000005002        170192957705     
0010001300270U 280000000000000000000000000000000000000000000000000000000000000000000000000000000000000000000000000000000000000000000000002903201700000000            000000000000000                              000                           
0010001300271T 280180230000001544772 29577050321702610   788888888888889928012017000000000007500001000000888888888888899          0900000000000000000000000000000000000000000000000000000   000000000000000000000005002        170192957705     
0010001300272U 280000000000000000000000000000000000000000000000000000000000000000000000000000000000000000000000000000000000000000000000002903201700000000            000000000000000                              000                           
0010001300273T 280180230000001544772 29577050321838735   788888888888889928012017000000000007500001000000888888888888899          0900000000000000000000000000000000000000000000000000000   000000000000000000000005002        170192957705     
0010001300274U 280000000000000000000000000000000000000000000000000000000000000000000000000000000000000000000000000000000000000000000000002903201700000000            000000000000000                              000                           
0010001300275T 280180230000001544772 29577050321904273   788888888888889928012017000000000007500001000000888888888888899          0900000000000000000000000000000000000000000000000000000   000000000000000000000005002        170192957705     
0010001300276U 280000000000000000000000000000000000000000000000000000000000000000000000000000000000000000000000000000000000000000000000002903201700000000            000000000000000                              000                           
0010001300277T 280180230000001544772 29577050321920804   788888888888889928012017000000000007500001000000888888888888899          0900000000000000000000000000000000000000000000000000000   000000000000000000000005002        170192957705     
0010001300278U 280000000000000000000000000000000000000000000000000000000000000000000000000000000000000000000000000000000000000000000000002903201700000000            000000000000000                              000                           
0010001300279T 280180230000001544772 29577050322140150   788888888888889928012017000000000007500001000000888888888888899          0900000000000000000000000000000000000000000000000000000   000000000000000000000005002        170192957705     
0010001300280U 280000000000000000000000000000000000000000000000000000000000000000000000000000000000000000000000000000000000000000000000002903201700000000            000000000000000                              000                           
0010001300281T 280180230000001544772 29577050322203344   788888888888889928012017000000000007500001000000888888888888899          0900000000000000000000000000000000000000000000000000000   000000000000000000000005002        170192957705     
0010001300282U 280000000000000000000000000000000000000000000000000000000000000000000000000000000000000000000000000000000000000000000000002903201700000000            000000000000000                              000                           
0010001300283T 280180230000001544772 29577050322346688   788888888888889928012017000000000007500001000000888888888888899          0900000000000000000000000000000000000000000000000000000   000000000000000000000005002        170192957705     
0010001300284U 280000000000000000000000000000000000000000000000000000000000000000000000000000000000000000000000000000000000000000000000002903201700000000            000000000000000                              000                           
0010001300285T 280180230000001544772 29577050322415262   788888888888889928012017000000000007500001000000888888888888899          0900000000000000000000000000000000000000000000000000000   000000000000000000000005002        170192957705     
0010001300286U 280000000000000000000000000000000000000000000000000000000000000000000000000000000000000000000000000000000000000000000000002903201700000000            000000000000000                              000                           
0010001300287T 280180230000001544772 29577050322505687   788888888888889928012017000000000007500001000000888888888888899          0900000000000000000000000000000000000000000000000000000   000000000000000000000005002        170192957705     
0010001300288U 280000000000000000000000000000000000000000000000000000000000000000000000000000000000000000000000000000000000000000000000002903201700000000            000000000000000                              000                           
0010001300289T 280180230000001544772 29577050322549900   788888888888889928012017000000000007500001000000888888888888899          0900000000000000000000000000000000000000000000000000000   000000000000000000000005002        170192957705     
0010001300290U 280000000000000000000000000000000000000000000000000000000000000000000000000000000000000000000000000000000000000000000000002903201700000000            000000000000000                              000                           
0010001300291T 280180230000001544772 29577050322659259   788888888888889928012017000000000007500001000000888888888888899          0900000000000000000000000000000000000000000000000000000   000000000000000000000005002        170192957705     
0010001300292U 280000000000000000000000000000000000000000000000000000000000000000000000000000000000000000000000000000000000000000000000002903201700000000            000000000000000                              000                           
0010001300293T 280180230000001544772 29577050322719209   788888888888889928012017000000000007500001000000888888888888899          0900000000000000000000000000000000000000000000000000000   000000000000000000000005002        170192957705     
0010001300294U 280000000000000000000000000000000000000000000000000000000000000000000000000000000000000000000000000000000000000000000000002903201700000000            000000000000000                              000                           
0010001300295T 280180230000001544772 29577050322756047   788888888888889928012017000000000007500001000000888888888888899          0900000000000000000000000000000000000000000000000000000   000000000000000000000005002        170192957705     
0010001300296U 280000000000000000000000000000000000000000000000000000000000000000000000000000000000000000000000000000000000000000000000002903201700000000            000000000000000                              000                           
0010001300297T 280180230000001544772 29577050322857315   788888888888889928012017000000000007500001000000888888888888899          0900000000000000000000000000000000000000000000000000000   000000000000000000000005002        170192957705     
0010001300298U 280000000000000000000000000000000000000000000000000000000000000000000000000000000000000000000000000000000000000000000000002903201700000000            000000000000000                              000                           
0010001300299T 280180230000001544772 29577050322903575   788888888888889928012017000000000007500001000000888888888888899          0900000000000000000000000000000000000000000000000000000   000000000000000000000005002        170192957705     
0010001300300U 280000000000000000000000000000000000000000000000000000000000000000000000000000000000000000000000000000000000000000000000002903201700000000            000000000000000                              000                           
0010001300301T 280180230000001544772 29577050323001520   788888888888889928012017000000000007500001000000888888888888899          0900000000000000000000000000000000000000000000000000000   000000000000000000000005002        170192957705     
0010001300302U 280000000000000000000000000000000000000000000000000000000000000000000000000000000000000000000000000000000000000000000000002903201700000000            000000000000000                              000                           
0010001300303T 280180230000001544772 29577050323235262   788888888888889928012017000000000007500001000000888888888888899          0900000000000000000000000000000000000000000000000000000   000000000000000000000005002        170192957705     
0010001300304U 280000000000000000000000000000000000000000000000000000000000000000000000000000000000000000000000000000000000000000000000002903201700000000            000000000000000                              000                           
0010001300305T 280180230000001544772 29577050323453665   788888888888889928012017000000000007500001000000888888888888899          0900000000000000000000000000000000000000000000000000000   000000000000000000000005002        170192957705     
0010001300306U 280000000000000000000000000000000000000000000000000000000000000000000000000000000000000000000000000000000000000000000000002903201700000000            000000000000000                              000                           
0010001300307T 280180230000001544772 29577050323512260   788888888888889928012017000000000007500001000000888888888888899          0900000000000000000000000000000000000000000000000000000   000000000000000000000005002        170192957705     
0010001300308U 280000000000000000000000000000000000000000000000000000000000000000000000000000000000000000000000000000000000000000000000002903201700000000            000000000000000                              000                           
0010001300309T 280180230000001544772 29577050323547927   788888888888889928012017000000000007500001000000888888888888899          0900000000000000000000000000000000000000000000000000000   000000000000000000000005002        170192957705     
0010001300310U 280000000000000000000000000000000000000000000000000000000000000000000000000000000000000000000000000000000000000000000000002903201700000000            000000000000000                              000                           
0010001300311T 280180230000001544772 29577050323617739   788888888888889928012017000000000007500001000000888888888888899          0900000000000000000000000000000000000000000000000000000   000000000000000000000005002        170192957705     
0010001300312U 280000000000000000000000000000000000000000000000000000000000000000000000000000000000000000000000000000000000000000000000002903201700000000            000000000000000                              000                           
0010001300313T 280180230000001544772 29577050323726024   788888888888889928012017000000000007500001000000888888888888899          0900000000000000000000000000000000000000000000000000000   000000000000000000000005002        170192957705     
0010001300314U 280000000000000000000000000000000000000000000000000000000000000000000000000000000000000000000000000000000000000000000000002903201700000000            000000000000000                              000                           
0010001300315T 280180230000001544772 29577050323836705   788888888888889928012017000000000007500001000000888888888888899          0900000000000000000000000000000000000000000000000000000   000000000000000000000005002        170192957705     
0010001300316U 280000000000000000000000000000000000000000000000000000000000000000000000000000000000000000000000000000000000000000000000002903201700000000            000000000000000                              000                           
0010001300317T 280180230000001544772 29577050324100604   788888888888889928012017000000000007500001000000888888888888899          0900000000000000000000000000000000000000000000000000000   000000000000000000000005002        170192957705     
0010001300318U 280000000000000000000000000000000000000000000000000000000000000000000000000000000000000000000000000000000000000000000000002903201700000000            000000000000000                              000                           
0010001300319T 280180230000001544772 29577050324159821   788888888888889928012017000000000007500001000000888888888888899          0900000000000000000000000000000000000000000000000000000   000000000000000000000005002        170192957705     
0010001300320U 280000000000000000000000000000000000000000000000000000000000000000000000000000000000000000000000000000000000000000000000002903201700000000            000000000000000                              000                           
0010001300321T 280180230000001544772 29577050324305601   788888888888889928012017000000000007500001000000888888888888899          0900000000000000000000000000000000000000000000000000000   000000000000000000000005002        170192957705     
0010001300322U 280000000000000000000000000000000000000000000000000000000000000000000000000000000000000000000000000000000000000000000000002903201700000000            000000000000000                              000                           
0010001300323T 280180230000001544772 29577050324550412   788888888888889928012017000000000007500001000000888888888888899          0900000000000000000000000000000000000000000000000000000   000000000000000000000005002        170192957705     
0010001300324U 280000000000000000000000000000000000000000000000000000000000000000000000000000000000000000000000000000000000000000000000002903201700000000            000000000000000                              000                           
0010001300325T 280180230000001544772 29577050324642728   788888888888889928012017000000000007500001000000888888888888899          0900000000000000000000000000000000000000000000000000000   000000000000000000000005002        170192957705     
0010001300326U 280000000000000000000000000000000000000000000000000000000000000000000000000000000000000000000000000000000000000000000000002903201700000000            000000000000000                              000                           
0010001300327T 280180230000001544772 29577050324706917   788888888888889928012017000000000007500001000000888888888888899          0900000000000000000000000000000000000000000000000000000   000000000000000000000005002        170192957705     
0010001300328U 280000000000000000000000000000000000000000000000000000000000000000000000000000000000000000000000000000000000000000000000002903201700000000            000000000000000                              000                           
0010001300329T 280180230000001544772 29577050324834051   788888888888889928012017000000000007500001000000888888888888899          0900000000000000000000000000000000000000000000000000000   000000000000000000000005002        170192957705     
0010001300330U 280000000000000000000000000000000000000000000000000000000000000000000000000000000000000000000000000000000000000000000000002903201700000000            000000000000000                              000                           
0010001300331T 280180230000001544772 29577050324914219   788888888888889928012017000000000007500001000000888888888888899          0900000000000000000000000000000000000000000000000000000   000000000000000000000005002        170192957705     
0010001300332U 280000000000000000000000000000000000000000000000000000000000000000000000000000000000000000000000000000000000000000000000002903201700000000            000000000000000                              000                           
0010001300333T 280180230000001544772 29577050325045168   788888888888889928012017000000000007500001000000888888888888899          0900000000000000000000000000000000000000000000000000000   000000000000000000000005002        170192957705     
0010001300334U 280000000000000000000000000000000000000000000000000000000000000000000000000000000000000000000000000000000000000000000000002903201700000000            000000000000000                              000                           
0010001300335T 280180230000001544772 29577050325135492   788888888888889928012017000000000007500001000000888888888888899          0900000000000000000000000000000000000000000000000000000   000000000000000000000005002        170192957705     
0010001300336U 280000000000000000000000000000000000000000000000000000000000000000000000000000000000000000000000000000000000000000000000002903201700000000            000000000000000                              000                           
0010001300337T 280180230000001544772 29577050325422838   788888888888889928012017000000000007500001000000888888888888899          0900000000000000000000000000000000000000000000000000000   000000000000000000000005002        170192957705     
0010001300338U 280000000000000000000000000000000000000000000000000000000000000000000000000000000000000000000000000000000000000000000000002903201700000000            000000000000000                              000                           
0010001300339T 280180230000001544772 29577050325540163   788888888888889928012017000000000007500001000000888888888888899          0900000000000000000000000000000000000000000000000000000   000000000000000000000005002        170192957705     
0010001300340U 280000000000000000000000000000000000000000000000000000000000000000000000000000000000000000000000000000000000000000000000002903201700000000            000000000000000                              000                           
0010001300341T 280180230000001544772 29577050325758141   788888888888889928012017000000000007500001000000888888888888899          0900000000000000000000000000000000000000000000000000000   000000000000000000000005002        170192957705     
0010001300342U 280000000000000000000000000000000000000000000000000000000000000000000000000000000000000000000000000000000000000000000000002903201700000000            000000000000000                              000                           
0010001300343T 280180230000001544772 29577050325805920   788888888888889928012017000000000007500001000000888888888888899          0900000000000000000000000000000000000000000000000000000   000000000000000000000005002        170192957705     
0010001300344U 280000000000000000000000000000000000000000000000000000000000000000000000000000000000000000000000000000000000000000000000002903201700000000            000000000000000                              000                           
0010001300345T 280180230000001544772 29577050326045370   788888888888889928012017000000000007500001000000888888888888899          0900000000000000000000000000000000000000000000000000000   000000000000000000000005002        170192957705     
0010001300346U 280000000000000000000000000000000000000000000000000000000000000000000000000000000000000000000000000000000000000000000000002903201700000000            000000000000000                              000                           
0010001300347T 280180230000001544772 29577050326105961   788888888888889928012017000000000007500001000000888888888888899          0900000000000000000000000000000000000000000000000000000   000000000000000000000005002        170192957705     
0010001300348U 280000000000000000000000000000000000000000000000000000000000000000000000000000000000000000000000000000000000000000000000002903201700000000            000000000000000                              000                           
0010001300349T 280180230000001544772 29577050326205983   788888888888889928012017000000000007500001000000888888888888899          0900000000000000000000000000000000000000000000000000000   000000000000000000000005002        170192957705     
0010001300350U 280000000000000000000000000000000000000000000000000000000000000000000000000000000000000000000000000000000000000000000000002903201700000000            000000000000000                              000                           
0010001300351T 280180230000001544772 29577050326252607   788888888888889928012017000000000007500001000000888888888888899          0900000000000000000000000000000000000000000000000000000   000000000000000000000005002        170192957705     
0010001300352U 280000000000000000000000000000000000000000000000000000000000000000000000000000000000000000000000000000000000000000000000002903201700000000            000000000000000                              000                           
0010001300353T 280180230000001544772 29577050326351827   788888888888889928012017000000000007500001000000888888888888899          0900000000000000000000000000000000000000000000000000000   000000000000000000000005002        170192957705     
0010001300354U 280000000000000000000000000000000000000000000000000000000000000000000000000000000000000000000000000000000000000000000000002903201700000000            000000000000000                              000                           
0010001300355T 280180230000001544772 29577050326419791   788888888888889928012017000000000007500001000000888888888888899          0900000000000000000000000000000000000000000000000000000   000000000000000000000005002        170192957705     
0010001300356U 280000000000000000000000000000000000000000000000000000000000000000000000000000000000000000000000000000000000000000000000002903201700000000            000000000000000                              000                           
0010001300357T 280180230000001544772 29577050326523110   788888888888889928012017000000000010000001000000888888888888899          0900000000000000000000000000000000000000000000000000000   000000000000000000000005002        170192957705     
0010001300358U 280000000000000000000000000000000000000000000000000000000000000000000000000000000000000000000000000000000000000000000000002903201700000000            000000000000000                              000                           
0010001300359T 280180230000001544772 29577050326703479   788888888888889928012017000000000007500001000000888888888888899          0900000000000000000000000000000000000000000000000000000   000000000000000000000005002        170192957705     
0010001300360U 280000000000000000000000000000000000000000000000000000000000000000000000000000000000000000000000000000000000000000000000002903201700000000            000000000000000                              000                           
0010001300361T 280180230000001544772 29577050326820943   788888888888889928012017000000000007500001000000888888888888899          0900000000000000000000000000000000000000000000000000000   000000000000000000000005002        170192957705     
0010001300362U 280000000000000000000000000000000000000000000000000000000000000000000000000000000000000000000000000000000000000000000000002903201700000000            000000000000000                              000                           
0010001300363T 280180230000001544772 29577050326921840   788888888888889928012017000000000007500001000000888888888888899          0900000000000000000000000000000000000000000000000000000   000000000000000000000005002        170192957705     
0010001300364U 280000000000000000000000000000000000000000000000000000000000000000000000000000000000000000000000000000000000000000000000002903201700000000            000000000000000                              000                           
0010001300365T 280180230000001544772 29577050327028937   788888888888889928012017000000000007500001000000888888888888899          0900000000000000000000000000000000000000000000000000000   000000000000000000000005002        170192957705     
0010001300366U 280000000000000000000000000000000000000000000000000000000000000000000000000000000000000000000000000000000000000000000000002903201700000000            000000000000000                              000                           
0010001300367T 280180230000001544772 29577050327111602   788888888888889928012017000000000007500001000000888888888888899          0900000000000000000000000000000000000000000000000000000   000000000000000000000005002        170192957705     
0010001300368U 280000000000000000000000000000000000000000000000000000000000000000000000000000000000000000000000000000000000000000000000002903201700000000            000000000000000                              000                           
0010001300369T 280180230000001544772 29577050327206450   788888888888889928012017000000000007500001000000888888888888899          0900000000000000000000000000000000000000000000000000000   000000000000000000000005002        170192957705     
0010001300370U 280000000000000000000000000000000000000000000000000000000000000000000000000000000000000000000000000000000000000000000000002903201700000000            000000000000000                              000                           
0010001300371T 280180230000001544772 29577050327312597   788888888888889928012017000000000007500001000000888888888888899          0900000000000000000000000000000000000000000000000000000   000000000000000000000005002        170192957705     
0010001300372U 280000000000000000000000000000000000000000000000000000000000000000000000000000000000000000000000000000000000000000000000002903201700000000            000000000000000                              000                           
0010001300373T 280180230000001544772 29577050327419430   788888888888889928012017000000000007500001000000888888888888899          0900000000000000000000000000000000000000000000000000000   000000000000000000000005002        170192957705     
0010001300374U 280000000000000000000000000000000000000000000000000000000000000000000000000000000000000000000000000000000000000000000000002903201700000000            000000000000000                              000                           
0010001300375T 280180230000001544772 29577050327537567   788888888888889928012017000000000007500001000000888888888888899          0900000000000000000000000000000000000000000000000000000   000000000000000000000005002        170192957705     
0010001300376U 280000000000000000000000000000000000000000000000000000000000000000000000000000000000000000000000000000000000000000000000002903201700000000            000000000000000                              000                           
0010001300377T 280180230000001544772 29577050327620140   788888888888889928012017000000000007500001000000888888888888899          0900000000000000000000000000000000000000000000000000000   000000000000000000000005002        170192957705     
0010001300378U 280000000000000000000000000000000000000000000000000000000000000000000000000000000000000000000000000000000000000000000000002903201700000000            000000000000000                              000                           
0010001300379T 280180230000001544772 29577050327744788   788888888888889928012017000000000007500001000000888888888888899          0900000000000000000000000000000000000000000000000000000   000000000000000000000005002        170192957705     
0010001300380U 280000000000000000000000000000000000000000000000000000000000000000000000000000000000000000000000000000000000000000000000002903201700000000            000000000000000                              000                           
0010001300381T 280180230000001544772 29577050327823480   788888888888889928012017000000000007500001000000888888888888899          0900000000000000000000000000000000000000000000000000000   000000000000000000000005002        170192957705     
0010001300382U 280000000000000000000000000000000000000000000000000000000000000000000000000000000000000000000000000000000000000000000000002903201700000000            000000000000000                              000                           
0010001300383T 280180230000001544772 29577050327951239   788888888888889928012017000000000007500001000000888888888888899          0900000000000000000000000000000000000000000000000000000   000000000000000000000005002        170192957705     
0010001300384U 280000000000000000000000000000000000000000000000000000000000000000000000000000000000000000000000000000000000000000000000002903201700000000            000000000000000                              000                           
0010001300385T 280180230000001544772 29577050328012328   788888888888889928012017000000000007500001000000888888888888899          0900000000000000000000000000000000000000000000000000000   000000000000000000000005002        170192957705     
0010001300386U 280000000000000000000000000000000000000000000000000000000000000000000000000000000000000000000000000000000000000000000000002903201700000000            000000000000000                              000                           
0010001300387T 280180230000001544772 29577050328014351   788888888888889928012017000000000007500001000000888888888888899          0900000000000000000000000000000000000000000000000000000   000000000000000000000005002        170192957705     
0010001300388U 280000000000000000000000000000000000000000000000000000000000000000000000000000000000000000000000000000000000000000000000002903201700000000            000000000000000                              000                           
0010001300389T 280180230000001544772 29577050328213104   788888888888889928012017000000000007500001000000888888888888899          0900000000000000000000000000000000000000000000000000000   000000000000000000000005002        170192957705     
0010001300390U 280000000000000000000000000000000000000000000000000000000000000000000000000000000000000000000000000000000000000000000000002903201700000000            000000000000000                              000                           
0010001300391T 280180230000001544772 29577050328229114   788888888888889928012017000000000007500001000000888888888888899          0900000000000000000000000000000000000000000000000000000   000000000000000000000005002        170192957705     
0010001300392U 280000000000000000000000000000000000000000000000000000000000000000000000000000000000000000000000000000000000000000000000002903201700000000            000000000000000                              000                           
0010001300393T 280180230000001544772 29577050328252651   788888888888889928012017000000000007500001000000888888888888899          0900000000000000000000000000000000000000000000000000000   000000000000000000000005002        170192957705     
0010001300394U 280000000000000000000000000000000000000000000000000000000000000000000000000000000000000000000000000000000000000000000000002903201700000000            000000000000000                              000                           
0010001300395T 280180230000001544772 29577050328336794   788888888888889928012017000000000007500001000000888888888888899          0900000000000000000000000000000000000000000000000000000   000000000000000000000005002        170192957705     
0010001300396U 280000000000000000000000000000000000000000000000000000000000000000000000000000000000000000000000000000000000000000000000002903201700000000            000000000000000                              000                           
0010001300397T 280180230000001544772 29577050328355012   788888888888889928012017000000000007500001000000888888888888899          0900000000000000000000000000000000000000000000000000000   000000000000000000000005002        170192957705     
0010001300398U 280000000000000000000000000000000000000000000000000000000000000000000000000000000000000000000000000000000000000000000000002903201700000000            000000000000000                              000                           
0010001300399T 280180230000001544772 29577050328431106   788888888888889928012017000000000007500001000000888888888888899          0900000000000000000000000000000000000000000000000000000   000000000000000000000005002        170192957705     
0010001300400U 280000000000000000000000000000000000000000000000000000000000000000000000000000000000000000000000000000000000000000000000002903201700000000            000000000000000                              000                           
0010001300401T 280180230000001544772 29577050328511651   788888888888889928012017000000000007500001000000888888888888899          0900000000000000000000000000000000000000000000000000000   000000000000000000000005002        170192957705     
0010001300402U 280000000000000000000000000000000000000000000000000000000000000000000000000000000000000000000000000000000000000000000000002903201700000000            000000000000000                              000                           
0010001300403T 280180230000001544772 29577050328614051   788888888888889928012017000000000007500001000000888888888888899          0900000000000000000000000000000000000000000000000000000   000000000000000000000005002        170192957705     
0010001300404U 280000000000000000000000000000000000000000000000000000000000000000000000000000000000000000000000000000000000000000000000002903201700000000            000000000000000                              000                           
0010001300405T 280180230000001544772 29577050328728620   788888888888889928012017000000000007500001000000888888888888899          0900000000000000000000000000000000000000000000000000000   000000000000000000000005002        170192957705     
0010001300406U 280000000000000000000000000000000000000000000000000000000000000000000000000000000000000000000000000000000000000000000000002903201700000000            000000000000000                              000                           
0010001300407T 280180230000001544772 29577050328749765   788888888888889928012017000000000007500001000000888888888888899          0900000000000000000000000000000000000000000000000000000   000000000000000000000005002        170192957705     
0010001300408U 280000000000000000000000000000000000000000000000000000000000000000000000000000000000000000000000000000000000000000000000002903201700000000            000000000000000                              000                           
0010001300409T 280180230000001544772 29577050328757171   788888888888889928012017000000000007500001000000888888888888899          0900000000000000000000000000000000000000000000000000000   000000000000000000000005002        170192957705     
0010001300410U 280000000000000000000000000000000000000000000000000000000000000000000000000000000000000000000000000000000000000000000000002903201700000000            000000000000000                              000                           
0010001300411T 280180230000001544772 29577050328928856   788888888888889928012017000000000010000001000000888888888888899          0900000000000000000000000000000000000000000000000000000   000000000000000000000005002        170192957705     
0010001300412U 280000000000000000000000000000000000000000000000000000000000000000000000000000000000000000000000000000000000000000000000002903201700000000            000000000000000                              000                           
