00100000         2247745860001000029577050014       0180230000001544772 INSTITUTO DE SELECAO E TECNOLOBANCO DO BRASIL                         20304201704084800015803000000515122941PROCESSAMEN                                                 
00100011T0100020 20247745860001000029577050014       0180230000001544772 INSTITUTO DE SELECAO E TECNOLO                                                                                000000000304201700000000  000000000                      
0010001300001T 020180230000001544772 29577050100139566   7               0404201700000000000750000101981X                         0900000000000010000000000000000000000000000000000000000   0000000000000000000000000A9        170192957705     
0010001300002U 020000000000000000000000000000000000000000000000000000000000000000000000000000000000000000000000000000000000000000000000000204201700000000            000000000000000                              000                           
0010001300003T 020180230000001544772 29577050142830178   7               03042017000000000007500001000213                         0900000000000010000000000000000000000000000000000000000   0000000000000000000000000A9        170192957705     
0010001300004U 020000000000000000000000000000000000000000000000000000000000000000000000000000000000000000000000000000000000000000000000000104201700000000            000000000000000                              000                           
0010001300005T 020180230000001544772 29577050142835958   7               03042017000000000007500001000213                         0900000000000010000000000000000000000000000000000000000   0000000000000000000000000A9        170192957705     
0010001300006U 020000000000000000000000000000000000000000000000000000000000000000000000000000000000000000000000000000000000000000000000000104201700000000            000000000000000                              000                           
0010001300007T 020180230000001544772 29577050257255340   7               05042017000000000007500001001120                         0900000000000010000000000000000000000000000000000000000   0000000000000000000000000A9        170192957705     
0010001300008U 020000000000000000000000000000000000000000000000000000000000000000000000000000000000000000000000000000000000000000000000000304201700000000            000000000000000                              000                           
0010001300009T 020180230000001544772 29577050503256672   7               05042017000000000007500001000213                         0900000000000010000000000000000000000000000000000000000   0000000000000000000000000A9        170192957705     
0010001300010U 020000000000000000000000000000000000000000000000000000000000000000000000000000000000000000000000000000000000000000000000000304201700000000            000000000000000                              000                           
0010001300011T 020180230000001544772 29577050723404833   7               05042017000000000007500001002224                         0900000000000010000000000000000000000000000000000000000   0000000000000000000000000A9        170192957705     
0010001300012U 020000000000000000000000000000000000000000000000000000000000000000000000000000000000000000000000000000000000000000000000000304201700000000            000000000000000                              000                           
0010001300013T 020180230000001544772 29577050723420559   7               03042017000000000007500001002224                         0900000000000010000000000000000000000000000000000000000   0000000000000000000000000A9        170192957705     
0010001300014U 020000000000000000000000000000000000000000000000000000000000000000000000000000000000000000000000000000000000000000000000000104201700000000            000000000000000                              000                           
0010001300015T 020180230000001544772 29577051094643784   7               0304201700000000000750000101981X                         0900000000000010500000000000000000000000000000000000000   0000000000000000000000000A9A4      170192957705     
0010001300016U 020000000000000000000000000000000000000000000000000000000000000000000000000000000000000000000000000000000000000000000000000104201700000000            000000000000000                              000                           
0010001300017T 020180230000001544772 29577051142215507   7               05042017000000000007500001000213                         0900000000000010000000000000000000000000000000000000000   0000000000000000000000000A9        170192957705     
0010001300018U 020000000000000000000000000000000000000000000000000000000000000000000000000000000000000000000000000000000000000000000000000304201700000000            000000000000000                              000                           
0010001300019T 020180230000001544772 29577051142233656   7               05042017000000000007500001000213                         0900000000000010000000000000000000000000000000000000000   0000000000000000000000000A9        170192957705     
0010001300020U 020000000000000000000000000000000000000000000000000000000000000000000000000000000000000000000000000000000000000000000000000304201700000000            000000000000000                              000                           
0010001300021T 020180230000001544772 29577051142349492   7               05042017000000000007500001000213                         0900000000000010000000000000000000000000000000000000000   0000000000000000000000000A9        170192957705     
0010001300022U 020000000000000000000000000000000000000000000000000000000000000000000000000000000000000000000000000000000000000000000000000304201700000000            000000000000000                              000                           
0010001300023T 020180230000001544772 29577051142353284   7               05042017000000000007500001000213                         0900000000000010000000000000000000000000000000000000000   0000000000000000000000000A9        170192957705     
0010001300024U 020000000000000000000000000000000000000000000000000000000000000000000000000000000000000000000000000000000000000000000000000304201700000000            000000000000000                              000                           
0010001300025T 020180230000001544772 29577051148117331   7               04042017000000000007500001000213                         0900000000000010000000000000000000000000000000000000000   0000000000000000000000000A9        170192957705     
0010001300026U 020000000000000000000000000000000000000000000000000000000000000000000000000000000000000000000000000000000000000000000000000204201700000000            000000000000000                              000                           
0010001300027T 020180230000001544772 29577051187250160   7               04042017000000000007500001012416                         0900000000000010000000000000000000000000000000000000000   0000000000000000000000000A9        170192957705     
0010001300028U 020000000000000000000000000000000000000000000000000000000000000000000000000000000000000000000000000000000000000000000000000204201700000000            000000000000000                              000                           
0010001300029T 020180230000001544772 29577051207821694   7               0404201700000000000750000103049X                         0900000000000010000000000000000000000000000000000000000   0000000000000000000000000A9        170192957705     
0010001300030U 020000000000000000000000000000000000000000000000000000000000000000000000000000000000000000000000000000000000000000000000000204201700000000            000000000000000                              000                           
0010001300031T 020180230000001544772 29577051240501265   7               04042017000000000007500001000213                         0900000000000010000000000000000000000000000000000000000   0000000000000000000000000A9        170192957705     
0010001300032U 020000000000000000000000000000000000000000000000000000000000000000000000000000000000000000000000000000000000000000000000000204201700000000            000000000000000                              000                           
0010001300033T 020180230000001544772 29577051277902269   7               0504201700000000000750000103049X                         0900000000000010500000000000000000000000000000000000000   0000000000000000000000000A9A4      170192957705     
0010001300034U 020000000000000000000000000000000000000000000000000000000000000000000000000000000000000000000000000000000000000000000000000304201700000000            000000000000000                              000                           
0010001300035T 020180230000001544772 29577051277908013   7               0504201700000000000750000103049X                         0900000000000010500000000000000000000000000000000000000   0000000000000000000000000A9A4      170192957705     
0010001300036U 020000000000000000000000000000000000000000000000000000000000000000000000000000000000000000000000000000000000000000000000000304201700000000            000000000000000                              000                           
0010001300037T 020180230000001544772 29577051277925605   7               0504201700000000000750000103049X                         0900000000000010500000000000000000000000000000000000000   0000000000000000000000000A9A4      170192957705     
0010001300038U 020000000000000000000000000000000000000000000000000000000000000000000000000000000000000000000000000000000000000000000000000304201700000000            000000000000000                              000                           
0010001300039T 020180230000001544772 29577051280200227   7               05042017000000000007500001012408                         0900000000000010000000000000000000000000000000000000000   0000000000000000000000000A9        170192957705     
0010001300040U 020000000000000000000000000000000000000000000000000000000000000000000000000000000000000000000000000000000000000000000000000304201700000000            000000000000000                              000                           
0010001300041T 020180230000001544772 29577051320605882   7               05042017000000000007500001012416                         0900000000000010500000000000000000000000000000000000000   0000000000000000000000000A9A4      170192957705     
0010001300042U 020000000000000000000000000000000000000000000000000000000000000000000000000000000000000000000000000000000000000000000000000304201700000000            000000000000000                              000                           
0010001300043T 020180230000001544772 29577051320656886   7               04042017000000000007500001012416                         0900000000000010500000000000000000000000000000000000000   0000000000000000000000000A9A4      170192957705     
0010001300044U 020000000000000000000000000000000000000000000000000000000000000000000000000000000000000000000000000000000000000000000000000204201700000000            000000000000000                              000                           
0010001300045T 020180230000001544772 29577051320659051   7               05042017000000000007500001012416                         0900000000000010500000000000000000000000000000000000000   0000000000000000000000000A9A4      170192957705     
0010001300046U 020000000000000000000000000000000000000000000000000000000000000000000000000000000000000000000000000000000000000000000000000304201700000000            000000000000000                              000                           
0010001300047T 020180230000001544772 29577051492510027   7               03042017000000000007500001012408                         0900000000000010000000000000000000000000000000000000000   0000000000000000000000000A9        170192957705     
0010001300048U 020000000000000000000000000000000000000000000000000000000000000000000000000000000000000000000000000000000000000000000000000104201700000000            000000000000000                              000                           
0010001300049T 020180230000001544772 29577051538548918   7               03042017000000000007500001012416                         0900000000000010000000000000000000000000000000000000000   0000000000000000000000000A9        170192957705     
0010001300050U 020000000000000000000000000000000000000000000000000000000000000000000000000000000000000000000000000000000000000000000000000104201700000000            000000000000000                              000                           
0010001300051T 020180230000001544772 29577051538552399   7               03042017000000000007500001012416                         0900000000000010000000000000000000000000000000000000000   0000000000000000000000000A9        170192957705     
0010001300052U 020000000000000000000000000000000000000000000000000000000000000000000000000000000000000000000000000000000000000000000000000104201700000000            000000000000000                              000                           
0010001300053T 020180230000001544772 29577051545810203   7               04042017000000000010000001028649                         0900000000000010000000000000000000000000000000000000000   0000000000000000000000000A9        170192957705     
0010001300054U 020000000000000000000000000000000000000000000000000000000000000000000000000000000000000000000000000000000000000000000000000204201700000000            000000000000000                              000                           
0010001300055T 020180230000001544772 29577051545838549   7               05042017000000000010000001028649                         0900000000000010000000000000000000000000000000000000000   0000000000000000000000000A9        170192957705     
0010001300056U 020000000000000000000000000000000000000000000000000000000000000000000000000000000000000000000000000000000000000000000000000304201700000000            000000000000000                              000                           
0010001300057T 020180230000001544772 29577051547008402   7               04042017000000000007500001004049                         0900000000000010000000000000000000000000000000000000000   0000000000000000000000000A9        170192957705     
0010001300058U 020000000000000000000000000000000000000000000000000000000000000000000000000000000000000000000000000000000000000000000000000204201700000000            000000000000000                              000                           
0010001300059T 020180230000001544772 29577051548333762   7               04042017000000000007500001012416                         0900000000000010000000000000000000000000000000000000000   0000000000000000000000000A9        170192957705     
0010001300060U 020000000000000000000000000000000000000000000000000000000000000000000000000000000000000000000000000000000000000000000000000204201700000000            000000000000000                              000                           
0010001300061T 020180230000001544772 29577051548507819   7               04042017000000000007500001012211                         0900000000000010000000000000000000000000000000000000000   0000000000000000000000000A9        170192957705     
0010001300062U 020000000000000000000000000000000000000000000000000000000000000000000000000000000000000000000000000000000000000000000000000204201700000000            000000000000000                              000                           
0010001300063T 020180230000001544772 29577051553027375   7               0504201700000000000750000101981X                         0900000000000010000000000000000000000000000000000000000   0000000000000000000000000A9        170192957705     
0010001300064U 020000000000000000000000000000000000000000000000000000000000000000000000000000000000000000000000000000000000000000000000000304201700000000            000000000000000                              000                           
0010001300065T 020180230000001544772 29577051553808779   7               05042017000000000007500001012408                         0900000000000010000000000000000000000000000000000000000   0000000000000000000000000A9        170192957705     
0010001300066U 020000000000000000000000000000000000000000000000000000000000000000000000000000000000000000000000000000000000000000000000000304201700000000            000000000000000                              000                           
0010001300067T 020180230000001544772 29577051557719704   7               05042017000000000007500001000213                         0900000000000010000000000000000000000000000000000000000   0000000000000000000000000A9        170192957705     
0010001300068U 020000000000000000000000000000000000000000000000000000000000000000000000000000000000000000000000000000000000000000000000000304201700000000            000000000000000                              000                           
0010001300069T 020180230000001544772 29577051563126707   7               05042017000000000007500001014079                         0900000000000010000000000000000000000000000000000000000   0000000000000000000000000A9        170192957705     
0010001300070U 020000000000000000000000000000000000000000000000000000000000000000000000000000000000000000000000000000000000000000000000000304201700000000            000000000000000                              000                           
0010001300071T 020180230000001544772 29577051565539171   7               05042017000000000007500001014079                         0900000000000010000000000000000000000000000000000000000   0000000000000000000000000A9        170192957705     
0010001300072U 020000000000000000000000000000000000000000000000000000000000000000000000000000000000000000000000000000000000000000000000000304201700000000            000000000000000                              000                           
0010001300073T 020180230000001544772 29577051567158101   7               05042017000000000007500001012408                         0900000000000010000000000000000000000000000000000000000   0000000000000000000000000A9        170192957705     
0010001300074U 020000000000000000000000000000000000000000000000000000000000000000000000000000000000000000000000000000000000000000000000000304201700000000            000000000000000                              000                           
0010001300075T 020180230000001544772 29577051567212631   7               0504201700000000001000000103049X                         0900000000000010000000000000000000000000000000000000000   0000000000000000000000000A9        170192957705     
0010001300076U 020000000000000000000000000000000000000000000000000000000000000000000000000000000000000000000000000000000000000000000000000304201700000000            000000000000000                              000                           
0010001300077T 020180230000001544772 29577051567216765   7               0504201700000000001000000103049X                         0900000000000010000000000000000000000000000000000000000   0000000000000000000000000A9        170192957705     
0010001300078U 020000000000000000000000000000000000000000000000000000000000000000000000000000000000000000000000000000000000000000000000000304201700000000            000000000000000                              000                           
0010001300079T 020180230000001544772 29577051567240398   7               0504201700000000001000000103049X                         0900000000000010000000000000000000000000000000000000000   0000000000000000000000000A9        170192957705     
0010001300080U 020000000000000000000000000000000000000000000000000000000000000000000000000000000000000000000000000000000000000000000000000304201700000000            000000000000000                              000                           
0010001300081T 020180230000001544772 29577051567536833   7               0504201700000000000750000103049X                         0900000000000010000000000000000000000000000000000000000   0000000000000000000000000A9        170192957705     
0010001300082U 020000000000000000000000000000000000000000000000000000000000000000000000000000000000000000000000000000000000000000000000000304201700000000            000000000000000                              000                           
0010001300083T 020180230000001544772 29577051568248229   7               05042017000000000007500001000213                         0900000000000010000000000000000000000000000000000000000   0000000000000000000000000A9        170192957705     
0010001300084U 020000000000000000000000000000000000000000000000000000000000000000000000000000000000000000000000000000000000000000000000000304201700000000            000000000000000                              000                           
0010001300085T 020180230000001544772 29577051568720122   7               05042017000000000007500001012408                         0900000000000010000000000000000000000000000000000000000   0000000000000000000000000A9        170192957705     
0010001300086U 020000000000000000000000000000000000000000000000000000000000000000000000000000000000000000000000000000000000000000000000000304201700000000            000000000000000                              000                           
0010001300087T 020180230000001544772 29577051569324719   7               05042017000000000007500001012408                         0900000000000010000000000000000000000000000000000000000   0000000000000000000000000A9        170192957705     
0010001300088U 020000000000000000000000000000000000000000000000000000000000000000000000000000000000000000000000000000000000000000000000000304201700000000            000000000000000                              000                           
0010001300089T 020180230000001544772 29577051571010573   7               05042017000000000007500001012408                         0900000000000010000000000000000000000000000000000000000   0000000000000000000000000A9        170192957705     
0010001300090U 020000000000000000000000000000000000000000000000000000000000000000000000000000000000000000000000000000000000000000000000000304201700000000            000000000000000                              000                           
0010001300091T 020180230000001544772 29577051571138103   7               05042017000000000007500001012408                         0900000000000010000000000000000000000000000000000000000   0000000000000000000000000A9        170192957705     
0010001300092U 020000000000000000000000000000000000000000000000000000000000000000000000000000000000000000000000000000000000000000000000000304201700000000            000000000000000                              000                           
0010001300093T 020180230000001544772 29577051572913418   7               05042017000000000007500001012408                         0900000000000010000000000000000000000000000000000000000   0000000000000000000000000A9        170192957705     
0010001300094U 020000000000000000000000000000000000000000000000000000000000000000000000000000000000000000000000000000000000000000000000000304201700000000            000000000000000                              000                           
0010001300095T 060180230000001544772 29577050503256672   7               05042017000000000007500001029211                         0900000000000010000000000000000000000000000000000000000   000000000000000000000029000        170192957705     
0010001300096U 060000000000000000000000000000000000000000000000000000000000000000000000075000000000000072100000000000000000000000000000000304201704042017            000000000000000                              000                           
0010001300097T 060180230000001544772 29577051094643784   7               03042017000000000007500237065120                         0900000000000010000000000000000000000000000000000000000   000000000000000000000029000        170192957705     
0010001300098U 060000000000000000000000000000000000000000000000000000000000000000000000075000000000000072100000000000000000000000000000000304201704042017            000000000000000                              000                           
0010001300099T 060180230000001544772 29577051492510027   7               03042017000000000007500021002080                         0900000000000010000000000000000000000000000000000000000   000000000000000000000029000        170192957705     
0010001300100U 060000000000000000000000000000000000000000000000000000000000000000000000075000000000000072100000000000000000000000000000000304201704042017            000000000000000                              000                           
0010001300101T 060180230000001544772 29577051518111030   7               01042017000000000007500104041920                         0900000000000010000000000000000000000000000000000000000   000000000000000000000029000        170192957705     
0010001300102U 060000000000000000000000000000000000000000000000000000000000000000000000075000000000000072100000000000000000000000000000000304201704042017            000000000000000                              000                           
0010001300103T 060180230000001544772 29577051548333762   7               04042017000000000007500021001050                         0900000000000010000000000000000000000000000000000000000   000000000000000000000029000        170192957705     
0010001300104U 060000000000000000000000000000000000000000000000000000000000000000000000075000000000000072100000000000000000000000000000000304201704042017            000000000000000                              000                           
0010001300105T 090180230000001544772 29577050011639231   788888888888889902012017000000000010000001000213888888888888899          0900000000000000000000000000000000000000000000000000000   000000000000000000000010009        170192957705     
0010001300106U 090000000000000000000000000000000000000000000000000000000000000000000000000000000000000000000000000000000000000000000000000304201700000000            000000000000000                              000                           
0010001300107T 090180230000001544772 29577050022857560   788888888888889903012017000000000007500001000213888888888888899          0900000000000000000000000000000000000000000000000000000   000000000000000000000010009        170192957705     
0010001300108U 090000000000000000000000000000000000000000000000000000000000000000000000000000000000000000000000000000000000000000000000000304201700000000            000000000000000                              000                           
0010001300109T 090180230000001544772 29577050023149375   788888888888889903012017000000000007500001000213888888888888899          0900000000000000000000000000000000000000000000000000000   000000000000000000000010009        170192957705     
0010001300110U 090000000000000000000000000000000000000000000000000000000000000000000000000000000000000000000000000000000000000000000000000304201700000000            000000000000000                              000                           
0010001300111T 090180230000001544772 29577050023313280   788888888888889903012017000000000007500001000213888888888888899          0900000000000000000000000000000000000000000000000000000   000000000000000000000010009        170192957705     
0010001300112U 090000000000000000000000000000000000000000000000000000000000000000000000000000000000000000000000000000000000000000000000000304201700000000            000000000000000                              000                           
0010001300113T 090180230000001544772 29577050027650086   78888888888888990101201700000000000750000103049X888888888888899          0900000000000000000000000000000000000000000000000000000   000000000000000000000010009        170192957705     
0010001300114U 090000000000000000000000000000000000000000000000000000000000000000000000000000000000000000000000000000000000000000000000000304201700000000            000000000000000                              000                           
0010001300115T 090180230000001544772 29577050032304675   788888888888889902012017000000000007500001012408888888888888899          0900000000000000000000000000000000000000000000000000000   000000000000000000000010009        170192957705     
0010001300116U 090000000000000000000000000000000000000000000000000000000000000000000000000000000000000000000000000000000000000000000000000304201700000000            000000000000000                              000                           
0010001300117T 090180230000001544772 29577050032318194   788888888888889902012017000000000007500001012408888888888888899          0900000000000000000000000000000000000000000000000000000   000000000000000000000010009        170192957705     
0010001300118U 090000000000000000000000000000000000000000000000000000000000000000000000000000000000000000000000000000000000000000000000000304201700000000            000000000000000                              000                           
0010001300119T 090180230000001544772 29577050032336522   788888888888889902012017000000000007500001012408888888888888899          0900000000000000000000000000000000000000000000000000000   000000000000000000000010009        170192957705     
0010001300120U 090000000000000000000000000000000000000000000000000000000000000000000000000000000000000000000000000000000000000000000000000304201700000000            000000000000000                              000                           
0010001300121T 090180230000001544772 29577050032341724   788888888888889902012017000000000007500001012408888888888888899          0900000000000000000000000000000000000000000000000000000   000000000000000000000010009        170192957705     
0010001300122U 090000000000000000000000000000000000000000000000000000000000000000000000000000000000000000000000000000000000000000000000000304201700000000            000000000000000                              000                           
0010001300123T 090180230000001544772 29577050046730301   78888888888888990201201700000000000750000103049X888888888888899          0900000000000000000000000000000000000000000000000000000   000000000000000000000010009        170192957705     
0010001300124U 090000000000000000000000000000000000000000000000000000000000000000000000000000000000000000000000000000000000000000000000000304201700000000            000000000000000                              000                           
0010001300125T 090180230000001544772 29577050047508613   788888888888889901012017000000000007500001000213888888888888899          0900000000000000000000000000000000000000000000000000000   000000000000000000000010009        170192957705     
0010001300126U 090000000000000000000000000000000000000000000000000000000000000000000000000000000000000000000000000000000000000000000000000304201700000000            000000000000000                              000                           
0010001300127T 090180230000001544772 29577050057833507   788888888888889901012017000000000007500001012416888888888888899          0900000000000000000000000000000000000000000000000000000   000000000000000000000010009        170192957705     
0010001300128U 090000000000000000000000000000000000000000000000000000000000000000000000000000000000000000000000000000000000000000000000000304201700000000            000000000000000                              000                           
0010001300129T 090180230000001544772 29577050068153711   788888888888889901012017000000000007500001000213888888888888899          0900000000000000000000000000000000000000000000000000000   000000000000000000000010009        170192957705     
0010001300130U 090000000000000000000000000000000000000000000000000000000000000000000000000000000000000000000000000000000000000000000000000304201700000000            000000000000000                              000                           
0010001300131T 090180230000001544772 29577050078739194   788888888888889901012017000000000007500001000213888888888888899          0900000000000000000000000000000000000000000000000000000   000000000000000000000010009        170192957705     
0010001300132U 090000000000000000000000000000000000000000000000000000000000000000000000000000000000000000000000000000000000000000000000000304201700000000            000000000000000                              000                           
0010001300133T 090180230000001544772 29577050090615435   788888888888889901012017000000000007500001000213888888888888899          0900000000000000000000000000000000000000000000000000000   000000000000000000000010009        170192957705     
0010001300134U 090000000000000000000000000000000000000000000000000000000000000000000000000000000000000000000000000000000000000000000000000304201700000000            000000000000000                              000                           
0010001300135T 090180230000001544772 29577050104501338   788888888888889903012017000000000007500001002224888888888888899          0900000000000000000000000000000000000000000000000000000   000000000000000000000010009        170192957705     
0010001300136U 090000000000000000000000000000000000000000000000000000000000000000000000000000000000000000000000000000000000000000000000000304201700000000            000000000000000                              000                           
0010001300137T 090180230000001544772 29577050109744366   788888888888889901012017000000000010000001001120888888888888899          0900000000000000000000000000000000000000000000000000000   000000000000000000000010009        170192957705     
0010001300138U 090000000000000000000000000000000000000000000000000000000000000000000000000000000000000000000000000000000000000000000000000304201700000000            000000000000000                              000                           
0010001300139T 090180230000001544772 29577050109829642   788888888888889901012017000000000007500001000833888888888888899          0900000000000000000000000000000000000000000000000000000   000000000000000000000010009        170192957705     
0010001300140U 090000000000000000000000000000000000000000000000000000000000000000000000000000000000000000000000000000000000000000000000000304201700000000            000000000000000                              000                           
0010001300141T 090180230000001544772 29577050109831874   788888888888889901012017000000000007500001000833888888888888899          0900000000000000000000000000000000000000000000000000000   000000000000000000000010009        170192957705     
0010001300142U 090000000000000000000000000000000000000000000000000000000000000000000000000000000000000000000000000000000000000000000000000304201700000000            000000000000000                              000                           
0010001300143T 090180230000001544772 29577050109845478   788888888888889901012017000000000007500001000833888888888888899          0900000000000000000000000000000000000000000000000000000   000000000000000000000010009        170192957705     
0010001300144U 090000000000000000000000000000000000000000000000000000000000000000000000000000000000000000000000000000000000000000000000000304201700000000            000000000000000                              000                           
0010001300145T 090180230000001544772 29577050109849945   788888888888889901012017000000000007500001000833888888888888899          0900000000000000000000000000000000000000000000000000000   000000000000000000000010009        170192957705     
0010001300146U 090000000000000000000000000000000000000000000000000000000000000000000000000000000000000000000000000000000000000000000000000304201700000000            000000000000000                              000                           
0010001300147T 090180230000001544772 29577050110006167   788888888888889901012017000000000007500001000213888888888888899          0900000000000000000000000000000000000000000000000000000   000000000000000000000010009        170192957705     
0010001300148U 090000000000000000000000000000000000000000000000000000000000000000000000000000000000000000000000000000000000000000000000000304201700000000            000000000000000                              000                           
0010001300149T 090180230000001544772 29577050110019474   788888888888889901012017000000000007500001000213888888888888899          0900000000000000000000000000000000000000000000000000000   000000000000000000000010009        170192957705     
0010001300150U 090000000000000000000000000000000000000000000000000000000000000000000000000000000000000000000000000000000000000000000000000304201700000000            000000000000000                              000                           
0010001300151T 090180230000001544772 29577050110026022   788888888888889901012017000000000007500001000213888888888888899          0900000000000000000000000000000000000000000000000000000   000000000000000000000010009        170192957705     
0010001300152U 090000000000000000000000000000000000000000000000000000000000000000000000000000000000000000000000000000000000000000000000000304201700000000            000000000000000                              000                           
0010001300153T 090180230000001544772 29577050110033624   788888888888889901012017000000000007500001000213888888888888899          0900000000000000000000000000000000000000000000000000000   000000000000000000000010009        170192957705     
0010001300154U 090000000000000000000000000000000000000000000000000000000000000000000000000000000000000000000000000000000000000000000000000304201700000000            000000000000000                              000                           
0010001300155T 090180230000001544772 29577050110103771   788888888888889901012017000000000007500001000833888888888888899          0900000000000000000000000000000000000000000000000000000   000000000000000000000010009        170192957705     
0010001300156U 090000000000000000000000000000000000000000000000000000000000000000000000000000000000000000000000000000000000000000000000000304201700000000            000000000000000                              000                           
0010001300157T 090180230000001544772 29577050110241057   78888888888888990101201700000000000750000103049X888888888888899          0900000000000000000000000000000000000000000000000000000   000000000000000000000010009        170192957705     
0010001300158U 090000000000000000000000000000000000000000000000000000000000000000000000000000000000000000000000000000000000000000000000000304201700000000            000000000000000                              000                           
0010001300159T 090180230000001544772 29577050110309485   78888888888888990101201700000000000750000103049X888888888888899          0900000000000000000000000000000000000000000000000000000   000000000000000000000010009        170192957705     
0010001300160U 090000000000000000000000000000000000000000000000000000000000000000000000000000000000000000000000000000000000000000000000000304201700000000            000000000000000                              000                           
0010001300161T 090180230000001544772 29577050110449646   78888888888888990101201700000000000750000103049X888888888888899          0900000000000000000000000000000000000000000000000000000   000000000000000000000010009        170192957705     
0010001300162U 090000000000000000000000000000000000000000000000000000000000000000000000000000000000000000000000000000000000000000000000000304201700000000            000000000000000                              000                           
0010001300163T 090180230000001544772 29577050110549626   788888888888889901012017000000000007500001012416888888888888899          0900000000000000000000000000000000000000000000000000000   000000000000000000000010009        170192957705     
0010001300164U 090000000000000000000000000000000000000000000000000000000000000000000000000000000000000000000000000000000000000000000000000304201700000000            000000000000000                              000                           
0010001300165T 090180230000001544772 29577050110611014   788888888888889901012017000000000007500001045799888888888888899          0900000000000000000000000000000000000000000000000000000   000000000000000000000010009        170192957705     
0010001300166U 090000000000000000000000000000000000000000000000000000000000000000000000000000000000000000000000000000000000000000000000000304201700000000            000000000000000                              000                           
0010001300167T 090180230000001544772 29577050110734825   788888888888889901012017000000000007500001012416888888888888899          0900000000000000000000000000000000000000000000000000000   000000000000000000000010009        170192957705     
0010001300168U 090000000000000000000000000000000000000000000000000000000000000000000000000000000000000000000000000000000000000000000000000304201700000000            000000000000000                              000                           
0010001300169T 090180230000001544772 29577050110906439   78888888888888990101201700000000000750000103049X888888888888899          0900000000000000000000000000000000000000000000000000000   000000000000000000000010009        170192957705     
0010001300170U 090000000000000000000000000000000000000000000000000000000000000000000000000000000000000000000000000000000000000000000000000304201700000000            000000000000000                              000                           
0010001300171T 090180230000001544772 29577050111029471   788888888888889901012017000000000010000001000213888888888888899          0900000000000000000000000000000000000000000000000000000   000000000000000000000010009        170192957705     
0010001300172U 090000000000000000000000000000000000000000000000000000000000000000000000000000000000000000000000000000000000000000000000000304201700000000            000000000000000                              000                           
0010001300173T 090180230000001544772 29577050111246663   788888888888889901012017000000000007500001012408888888888888899          0900000000000000000000000000000000000000000000000000000   000000000000000000000010009        170192957705     
0010001300174U 090000000000000000000000000000000000000000000000000000000000000000000000000000000000000000000000000000000000000000000000000304201700000000            000000000000000                              000                           
0010001300175T 090180230000001544772 29577050111324046   78888888888888990101201700000000000750000103049X888888888888899          0900000000000000000000000000000000000000000000000000000   000000000000000000000010009        170192957705     
0010001300176U 090000000000000000000000000000000000000000000000000000000000000000000000000000000000000000000000000000000000000000000000000304201700000000            000000000000000                              000                           
0010001300177T 090180230000001544772 29577050111354796   78888888888888990301201700000000000750000103049X888888888888899          0900000000000000000000000000000000000000000000000000000   000000000000000000000010009        170192957705     
0010001300178U 090000000000000000000000000000000000000000000000000000000000000000000000000000000000000000000000000000000000000000000000000304201700000000            000000000000000                              000                           
0010001300179T 090180230000001544772 29577050111410245   78888888888888990101201700000000000750000103049X888888888888899          0900000000000000000000000000000000000000000000000000000   000000000000000000000010009        170192957705     
0010001300180U 090000000000000000000000000000000000000000000000000000000000000000000000000000000000000000000000000000000000000000000000000304201700000000            000000000000000                              000                           
0010001300181T 090180230000001544772 29577050111514677   788888888888889901012017000000000007500001012408888888888888899          0900000000000000000000000000000000000000000000000000000   000000000000000000000010009        170192957705     
0010001300182U 090000000000000000000000000000000000000000000000000000000000000000000000000000000000000000000000000000000000000000000000000304201700000000            000000000000000                              000                           
0010001300183T 090180230000001544772 29577050111616983   788888888888889901012017000000000007500001004782888888888888899          0900000000000000000000000000000000000000000000000000000   000000000000000000000010009        170192957705     
0010001300184U 090000000000000000000000000000000000000000000000000000000000000000000000000000000000000000000000000000000000000000000000000304201700000000            000000000000000                              000                           
0010001300185T 090180230000001544772 29577050111701400   788888888888889901012017000000000007500001012408888888888888899          0900000000000000000000000000000000000000000000000000000   000000000000000000000010009        170192957705     
0010001300186U 090000000000000000000000000000000000000000000000000000000000000000000000000000000000000000000000000000000000000000000000000304201700000000            000000000000000                              000                           
0010001300187T 090180230000001544772 29577050111738851   788888888888889901012017000000000007500001012408888888888888899          0900000000000000000000000000000000000000000000000000000   000000000000000000000010009        170192957705     
0010001300188U 090000000000000000000000000000000000000000000000000000000000000000000000000000000000000000000000000000000000000000000000000304201700000000            000000000000000                              000                           
0010001300189T 090180230000001544772 29577050111745659   788888888888889901012017000000000007500001012408888888888888899          0900000000000000000000000000000000000000000000000000000   000000000000000000000010009        170192957705     
0010001300190U 090000000000000000000000000000000000000000000000000000000000000000000000000000000000000000000000000000000000000000000000000304201700000000            000000000000000                              000                           
0010001300191T 090180230000001544772 29577050111750464   788888888888889901012017000000000007500001012408888888888888899          0900000000000000000000000000000000000000000000000000000   000000000000000000000010009        170192957705     
0010001300192U 090000000000000000000000000000000000000000000000000000000000000000000000000000000000000000000000000000000000000000000000000304201700000000            000000000000000                              000                           
0010001300193T 090180230000001544772 29577050111757803   788888888888889901012017000000000007500001012408888888888888899          0900000000000000000000000000000000000000000000000000000   000000000000000000000010009        170192957705     
0010001300194U 090000000000000000000000000000000000000000000000000000000000000000000000000000000000000000000000000000000000000000000000000304201700000000            000000000000000                              000                           
0010001300195T 090180230000001544772 29577050111905140   788888888888889901012017000000000007500001012408888888888888899          0900000000000000000000000000000000000000000000000000000   000000000000000000000010009        170192957705     
0010001300196U 090000000000000000000000000000000000000000000000000000000000000000000000000000000000000000000000000000000000000000000000000304201700000000            000000000000000                              000                           
0010001300197T 090180230000001544772 29577050111908331   788888888888889901012017000000000007500001012408888888888888899          0900000000000000000000000000000000000000000000000000000   000000000000000000000010009        170192957705     
0010001300198U 090000000000000000000000000000000000000000000000000000000000000000000000000000000000000000000000000000000000000000000000000304201700000000            000000000000000                              000                           
0010001300199T 090180230000001544772 29577050112104263   78888888888888990101201700000000000750000103049X888888888888899          0900000000000000000000000000000000000000000000000000000   000000000000000000000010009        170192957705     
0010001300200U 090000000000000000000000000000000000000000000000000000000000000000000000000000000000000000000000000000000000000000000000000304201700000000            000000000000000                              000                           
0010001300201T 090180230000001544772 29577050112136518   78888888888888990101201700000000000750000103049X888888888888899          0900000000000000000000000000000000000000000000000000000   000000000000000000000010009        170192957705     
0010001300202U 090000000000000000000000000000000000000000000000000000000000000000000000000000000000000000000000000000000000000000000000000304201700000000            000000000000000                              000                           
0010001300203T 090180230000001544772 29577050112141384   78888888888888990101201700000000000750000103049X888888888888899          0900000000000000000000000000000000000000000000000000000   000000000000000000000010009        170192957705     
0010001300204U 090000000000000000000000000000000000000000000000000000000000000000000000000000000000000000000000000000000000000000000000000304201700000000            000000000000000                              000                           
0010001300205T 090180230000001544772 29577050112337976   788888888888889901012017000000000007500001000833888888888888899          0900000000000000000000000000000000000000000000000000000   000000000000000000000010009        170192957705     
0010001300206U 090000000000000000000000000000000000000000000000000000000000000000000000000000000000000000000000000000000000000000000000000304201700000000            000000000000000                              000                           
0010001300207T 090180230000001544772 29577050112421436   78888888888888990101201700000000000750000103049X888888888888899          0900000000000000000000000000000000000000000000000000000   000000000000000000000010009        170192957705     
0010001300208U 090000000000000000000000000000000000000000000000000000000000000000000000000000000000000000000000000000000000000000000000000304201700000000            000000000000000                              000                           
0010001300209T 090180230000001544772 29577050112541596   78888888888888990101201700000000000750000103049X888888888888899          0900000000000000000000000000000000000000000000000000000   000000000000000000000010009        170192957705     
0010001300210U 090000000000000000000000000000000000000000000000000000000000000000000000000000000000000000000000000000000000000000000000000304201700000000            000000000000000                              000                           
0010001300211T 090180230000001544772 29577050112635432   78888888888888990101201700000000000750000103049X888888888888899          0900000000000000000000000000000000000000000000000000000   000000000000000000000010009        170192957705     
0010001300212U 090000000000000000000000000000000000000000000000000000000000000000000000000000000000000000000000000000000000000000000000000304201700000000            000000000000000                              000                           
0010001300213T 090180230000001544772 29577050112739618   788888888888889901012017000000000007500001012416888888888888899          0900000000000000000000000000000000000000000000000000000   000000000000000000000010009        170192957705     
0010001300214U 090000000000000000000000000000000000000000000000000000000000000000000000000000000000000000000000000000000000000000000000000304201700000000            000000000000000                              000                           
0010001300215T 090180230000001544772 29577050112807724   788888888888889901012017000000000007500001012416888888888888899          0900000000000000000000000000000000000000000000000000000   000000000000000000000010009        170192957705     
0010001300216U 090000000000000000000000000000000000000000000000000000000000000000000000000000000000000000000000000000000000000000000000000304201700000000            000000000000000                              000                           
0010001300217T 090180230000001544772 29577050112934712   788888888888889901012017000000000007500001012416888888888888899          0900000000000000000000000000000000000000000000000000000   000000000000000000000010009        170192957705     
0010001300218U 090000000000000000000000000000000000000000000000000000000000000000000000000000000000000000000000000000000000000000000000000304201700000000            000000000000000                              000                           
0010001300219T 090180230000001544772 29577050113448342   788888888888889901012017000000000007500001000213888888888888899          0900000000000000000000000000000000000000000000000000000   000000000000000000000010009        170192957705     
0010001300220U 090000000000000000000000000000000000000000000000000000000000000000000000000000000000000000000000000000000000000000000000000304201700000000            000000000000000                              000                           
0010001300221T 090180230000001544772 29577050113512188   788888888888889901012017000000000007500001000051888888888888899          0900000000000000000000000000000000000000000000000000000   000000000000000000000010009        170192957705     
0010001300222U 090000000000000000000000000000000000000000000000000000000000000000000000000000000000000000000000000000000000000000000000000304201700000000            000000000000000                              000                           
0010001300223T 090180230000001544772 29577050113659026   788888888888889901012017000000000007500001001864888888888888899          0900000000000000000000000000000000000000000000000000000   000000000000000000000010009        170192957705     
0010001300224U 090000000000000000000000000000000000000000000000000000000000000000000000000000000000000000000000000000000000000000000000000304201700000000            000000000000000                              000                           
0010001300225T 090180230000001544772 29577050113813334   78888888888888990101201700000000000750000100281X888888888888899          0900000000000000000000000000000000000000000000000000000   000000000000000000000010009        170192957705     
0010001300226U 090000000000000000000000000000000000000000000000000000000000000000000000000000000000000000000000000000000000000000000000000304201700000000            000000000000000                              000                           
0010001300227T 090180230000001544772 29577050113941798   78888888888888990101201700000000000750000103049X888888888888899          0900000000000000000000000000000000000000000000000000000   000000000000000000000010009        170192957705     
0010001300228U 090000000000000000000000000000000000000000000000000000000000000000000000000000000000000000000000000000000000000000000000000304201700000000            000000000000000                              000                           
0010001300229T 090180230000001544772 29577050114016312   788888888888889902012017000000000007500001000744888888888888899          0900000000000000000000000000000000000000000000000000000   000000000000000000000010009        170192957705     
0010001300230U 090000000000000000000000000000000000000000000000000000000000000000000000000000000000000000000000000000000000000000000000000304201700000000            000000000000000                              000                           
0010001300231T 090180230000001544772 29577050114120048   788888888888889903012017000000000007500001000213888888888888899          0900000000000000000000000000000000000000000000000000000   000000000000000000000010009        170192957705     
0010001300232U 090000000000000000000000000000000000000000000000000000000000000000000000000000000000000000000000000000000000000000000000000304201700000000            000000000000000                              000                           
0010001300233T 090180230000001544772 29577050114153126   788888888888889901012017000000000007500001000213888888888888899          0900000000000000000000000000000000000000000000000000000   000000000000000000000010009        170192957705     
0010001300234U 090000000000000000000000000000000000000000000000000000000000000000000000000000000000000000000000000000000000000000000000000304201700000000            000000000000000                              000                           
0010001300235T 090180230000001544772 29577050114158167   788888888888889903012017000000000007500001000213888888888888899          0900000000000000000000000000000000000000000000000000000   000000000000000000000010009        170192957705     
0010001300236U 090000000000000000000000000000000000000000000000000000000000000000000000000000000000000000000000000000000000000000000000000304201700000000            000000000000000                              000                           
0010001300237T 090180230000001544772 29577050114253570   78888888888888990101201700000000000750000103049X888888888888899          0900000000000000000000000000000000000000000000000000000   000000000000000000000010009        170192957705     
0010001300238U 090000000000000000000000000000000000000000000000000000000000000000000000000000000000000000000000000000000000000000000000000304201700000000            000000000000000                              000                           
0010001300239T 090180230000001544772 29577050114353339   788888888888889901012017000000000007500001012408888888888888899          0900000000000000000000000000000000000000000000000000000   000000000000000000000010009        170192957705     
0010001300240U 090000000000000000000000000000000000000000000000000000000000000000000000000000000000000000000000000000000000000000000000000304201700000000            000000000000000                              000                           
0010001300241T 090180230000001544772 29577050114503475   788888888888889902012017000000000007500001007854888888888888899          0900000000000000000000000000000000000000000000000000000   000000000000000000000010009        170192957705     
0010001300242U 090000000000000000000000000000000000000000000000000000000000000000000000000000000000000000000000000000000000000000000000000304201700000000            000000000000000                              000                           
0010001300243T 090180230000001544772 29577050114535039   788888888888889902012017000000000007500001007854888888888888899          0900000000000000000000000000000000000000000000000000000   000000000000000000000010009        170192957705     
0010001300244U 090000000000000000000000000000000000000000000000000000000000000000000000000000000000000000000000000000000000000000000000000304201700000000            000000000000000                              000                           
0010001300245T 090180230000001544772 29577050114549655   788888888888889902012017000000000007500001007854888888888888899          0900000000000000000000000000000000000000000000000000000   000000000000000000000010009        170192957705     
0010001300246U 090000000000000000000000000000000000000000000000000000000000000000000000000000000000000000000000000000000000000000000000000304201700000000            000000000000000                              000                           
0010001300247T 090180230000001544772 29577050114707854   788888888888889902012017000000000007500001000213888888888888899          0900000000000000000000000000000000000000000000000000000   000000000000000000000010009        170192957705     
0010001300248U 090000000000000000000000000000000000000000000000000000000000000000000000000000000000000000000000000000000000000000000000000304201700000000            000000000000000                              000                           
0010001300249T 090180230000001544772 29577050115017530   788888888888889902012017000000000007500001000248888888888888899          0900000000000000000000000000000000000000000000000000000   000000000000000000000010009        170192957705     
0010001300250U 090000000000000000000000000000000000000000000000000000000000000000000000000000000000000000000000000000000000000000000000000304201700000000            000000000000000                              000                           
0010001300251T 090180230000001544772 29577050115146773   788888888888889902012017000000000007500001046280888888888888899          0900000000000000000000000000000000000000000000000000000   000000000000000000000010009        170192957705     
0010001300252U 090000000000000000000000000000000000000000000000000000000000000000000000000000000000000000000000000000000000000000000000000304201700000000            000000000000000                              000                           
0010001300253T 090180230000001544772 29577050115239728   78888888888888990201201700000000000750000103049X888888888888899          0900000000000000000000000000000000000000000000000000000   000000000000000000000010009        170192957705     
0010001300254U 090000000000000000000000000000000000000000000000000000000000000000000000000000000000000000000000000000000000000000000000000304201700000000            000000000000000                              000                           
0010001300255T 090180230000001544772 29577050115357126   788888888888889902012017000000000007500001012408888888888888899          0900000000000000000000000000000000000000000000000000000   000000000000000000000010009        170192957705     
0010001300256U 090000000000000000000000000000000000000000000000000000000000000000000000000000000000000000000000000000000000000000000000000304201700000000            000000000000000                              000                           
0010001300257T 090180230000001544772 29577050115605527   788888888888889902012017000000000007500001000213888888888888899          0900000000000000000000000000000000000000000000000000000   000000000000000000000010009        170192957705     
0010001300258U 090000000000000000000000000000000000000000000000000000000000000000000000000000000000000000000000000000000000000000000000000304201700000000            000000000000000                              000                           
0010001300259T 090180230000001544772 29577050115628905   788888888888889902012017000000000007500001000213888888888888899          0900000000000000000000000000000000000000000000000000000   000000000000000000000010009        170192957705     
0010001300260U 090000000000000000000000000000000000000000000000000000000000000000000000000000000000000000000000000000000000000000000000000304201700000000            000000000000000                              000                           
0010001300261T 090180230000001544772 29577050115727788   788888888888889902012017000000000007500001046280888888888888899          0900000000000000000000000000000000000000000000000000000   000000000000000000000010009        170192957705     
0010001300262U 090000000000000000000000000000000000000000000000000000000000000000000000000000000000000000000000000000000000000000000000000304201700000000            000000000000000                              000                           
0010001300263T 090180230000001544772 29577050115742537   788888888888889902012017000000000007500001046280888888888888899          0900000000000000000000000000000000000000000000000000000   000000000000000000000010009        170192957705     
0010001300264U 090000000000000000000000000000000000000000000000000000000000000000000000000000000000000000000000000000000000000000000000000304201700000000            000000000000000                              000                           
0010001300265T 090180230000001544772 29577050115855510   788888888888889902012017000000000007500001012408888888888888899          0900000000000000000000000000000000000000000000000000000   000000000000000000000010009        170192957705     
0010001300266U 090000000000000000000000000000000000000000000000000000000000000000000000000000000000000000000000000000000000000000000000000304201700000000            000000000000000                              000                           
0010001300267T 090180230000001544772 29577050115954124   788888888888889902012017000000000007500001000213888888888888899          0900000000000000000000000000000000000000000000000000000   000000000000000000000010009        170192957705     
0010001300268U 090000000000000000000000000000000000000000000000000000000000000000000000000000000000000000000000000000000000000000000000000304201700000000            000000000000000                              000                           
0010001300269T 090180230000001544772 29577050116032553   788888888888889902012017000000000007500001004782888888888888899          0900000000000000000000000000000000000000000000000000000   000000000000000000000010009        170192957705     
0010001300270U 090000000000000000000000000000000000000000000000000000000000000000000000000000000000000000000000000000000000000000000000000304201700000000            000000000000000                              000                           
0010001300271T 090180230000001544772 29577050116133764   78888888888888990201201700000000000750000103049X888888888888899          0900000000000000000000000000000000000000000000000000000   000000000000000000000010009        170192957705     
0010001300272U 090000000000000000000000000000000000000000000000000000000000000000000000000000000000000000000000000000000000000000000000000304201700000000            000000000000000                              000                           
0010001300273T 090180230000001544772 29577050116214129   788888888888889902012017000000000007500001000213888888888888899          0900000000000000000000000000000000000000000000000000000   000000000000000000000010009        170192957705     
0010001300274U 090000000000000000000000000000000000000000000000000000000000000000000000000000000000000000000000000000000000000000000000000304201700000000            000000000000000                              000                           
0010001300275T 090180230000001544772 29577050116315468   788888888888889902012017000000000007500001007021888888888888899          0900000000000000000000000000000000000000000000000000000   000000000000000000000010009        170192957705     
0010001300276U 090000000000000000000000000000000000000000000000000000000000000000000000000000000000000000000000000000000000000000000000000304201700000000            000000000000000                              000                           
0010001300277T 090180230000001544772 29577050116430111   788888888888889902012017000000000007500001012416888888888888899          0900000000000000000000000000000000000000000000000000000   000000000000000000000010009        170192957705     
0010001300278U 090000000000000000000000000000000000000000000000000000000000000000000000000000000000000000000000000000000000000000000000000304201700000000            000000000000000                              000                           
0010001300279T 090180230000001544772 29577050116527028   788888888888889902012017000000000007500001012386888888888888899          0900000000000000000000000000000000000000000000000000000   000000000000000000000010009        170192957705     
0010001300280U 090000000000000000000000000000000000000000000000000000000000000000000000000000000000000000000000000000000000000000000000000304201700000000            000000000000000                              000                           
0010001300281T 090180230000001544772 29577050116707651   788888888888889902012017000000000007500001000213888888888888899          0900000000000000000000000000000000000000000000000000000   000000000000000000000010009        170192957705     
0010001300282U 090000000000000000000000000000000000000000000000000000000000000000000000000000000000000000000000000000000000000000000000000304201700000000            000000000000000                              000                           
0010001300283T 090180230000001544772 29577050117152409   788888888888889902012017000000000007500001012416888888888888899          0900000000000000000000000000000000000000000000000000000   000000000000000000000010009        170192957705     
0010001300284U 090000000000000000000000000000000000000000000000000000000000000000000000000000000000000000000000000000000000000000000000000304201700000000            000000000000000                              000                           
0010001300285T 090180230000001544772 29577050117227502   788888888888889902012017000000000007500001001120888888888888899          0900000000000000000000000000000000000000000000000000000   000000000000000000000010009        170192957705     
0010001300286U 090000000000000000000000000000000000000000000000000000000000000000000000000000000000000000000000000000000000000000000000000304201700000000            000000000000000                              000                           
0010001300287T 090180230000001544772 29577050117558784   788888888888889903012017000000000007500001012416888888888888899          0900000000000000000000000000000000000000000000000000000   000000000000000000000010009        170192957705     
0010001300288U 090000000000000000000000000000000000000000000000000000000000000000000000000000000000000000000000000000000000000000000000000304201700000000            000000000000000                              000                           
0010001300289T 090180230000001544772 29577050117615225   788888888888889903012017000000000007500001030864888888888888899          0900000000000000000000000000000000000000000000000000000   000000000000000000000010009        170192957705     
0010001300290U 090000000000000000000000000000000000000000000000000000000000000000000000000000000000000000000000000000000000000000000000000304201700000000            000000000000000                              000                           
0010001300291T 090180230000001544772 29577050117836312   78888888888888990301201700000000000750000103049X888888888888899          0900000000000000000000000000000000000000000000000000000   000000000000000000000010009        170192957705     
0010001300292U 090000000000000000000000000000000000000000000000000000000000000000000000000000000000000000000000000000000000000000000000000304201700000000            000000000000000                              000                           
0010001300293T 090180230000001544772 29577050117958446   788888888888889903012017000000000007500001002224888888888888899          0900000000000000000000000000000000000000000000000000000   000000000000000000000010009        170192957705     
0010001300294U 090000000000000000000000000000000000000000000000000000000000000000000000000000000000000000000000000000000000000000000000000304201700000000            000000000000000                              000                           
0010001300295T 090180230000001544772 29577050118135171   788888888888889903012017000000000007500001046280888888888888899          0900000000000000000000000000000000000000000000000000000   000000000000000000000010009        170192957705     
0010001300296U 090000000000000000000000000000000000000000000000000000000000000000000000000000000000000000000000000000000000000000000000000304201700000000            000000000000000                              000                           
0010001300297T 090180230000001544772 29577050118328150   788888888888889903012017000000000007500001036889888888888888899          0900000000000000000000000000000000000000000000000000000   000000000000000000000010009        170192957705     
0010001300298U 090000000000000000000000000000000000000000000000000000000000000000000000000000000000000000000000000000000000000000000000000304201700000000            000000000000000                              000                           
0010001300299T 090180230000001544772 29577050118433082   788888888888889903012017000000000007500001002097888888888888899          0900000000000000000000000000000000000000000000000000000   000000000000000000000010009        170192957705     
0010001300300U 090000000000000000000000000000000000000000000000000000000000000000000000000000000000000000000000000000000000000000000000000304201700000000            000000000000000                              000                           
0010001300301T 090180230000001544772 29577050118546625   788888888888889903012017000000000010000001000833888888888888899          0900000000000000000000000000000000000000000000000000000   000000000000000000000010009        170192957705     
0010001300302U 090000000000000000000000000000000000000000000000000000000000000000000000000000000000000000000000000000000000000000000000000304201700000000            000000000000000                              000                           
0010001300303T 090180230000001544772 29577050118554777   788888888888889903012017000000000010000001000833888888888888899          0900000000000000000000000000000000000000000000000000000   000000000000000000000010009        170192957705     
0010001300304U 090000000000000000000000000000000000000000000000000000000000000000000000000000000000000000000000000000000000000000000000000304201700000000            000000000000000                              000                           
0010001300305T 090180230000001544772 29577050118634184   788888888888889903012017000000000007500001012416888888888888899          0900000000000000000000000000000000000000000000000000000   000000000000000000000010009        170192957705     
0010001300306U 090000000000000000000000000000000000000000000000000000000000000000000000000000000000000000000000000000000000000000000000000304201700000000            000000000000000                              000                           
0010001300307T 090180230000001544772 29577050118940198   788888888888889903012017000000000007500001012416888888888888899          0900000000000000000000000000000000000000000000000000000   000000000000000000000010009        170192957705     
0010001300308U 090000000000000000000000000000000000000000000000000000000000000000000000000000000000000000000000000000000000000000000000000304201700000000            000000000000000                              000                           
0010001300309T 090180230000001544772 29577050119229536   788888888888889903012017000000000007500001012416888888888888899          0900000000000000000000000000000000000000000000000000000   000000000000000000000010009        170192957705     
0010001300310U 090000000000000000000000000000000000000000000000000000000000000000000000000000000000000000000000000000000000000000000000000304201700000000            000000000000000                              000                           
0010001300311T 090180230000001544772 29577050119247068   788888888888889903012017000000000007500001012416888888888888899          0900000000000000000000000000000000000000000000000000000   000000000000000000000010009        170192957705     
0010001300312U 090000000000000000000000000000000000000000000000000000000000000000000000000000000000000000000000000000000000000000000000000304201700000000            000000000000000                              000                           
0010001300313T 090180230000001544772 29577050119314891   788888888888889903012017000000000007500001012416888888888888899          0900000000000000000000000000000000000000000000000000000   000000000000000000000010009        170192957705     
0010001300314U 090000000000000000000000000000000000000000000000000000000000000000000000000000000000000000000000000000000000000000000000000304201700000000            000000000000000                              000                           
0010001300315T 090180230000001544772 29577050119328884   788888888888889903012017000000000007500001012416888888888888899          0900000000000000000000000000000000000000000000000000000   000000000000000000000010009        170192957705     
0010001300316U 090000000000000000000000000000000000000000000000000000000000000000000000000000000000000000000000000000000000000000000000000304201700000000            000000000000000                              000                           
0010001300317T 090180230000001544772 29577050119402449   788888888888889903012017000000000007500001000213888888888888899          0900000000000000000000000000000000000000000000000000000   000000000000000000000010009        170192957705     
0010001300318U 090000000000000000000000000000000000000000000000000000000000000000000000000000000000000000000000000000000000000000000000000304201700000000            000000000000000                              000                           
0010001300319T 090180230000001544772 29577050119533373   788888888888889903012017000000000007500001012408888888888888899          0900000000000000000000000000000000000000000000000000000   000000000000000000000010009        170192957705     
0010001300320U 090000000000000000000000000000000000000000000000000000000000000000000000000000000000000000000000000000000000000000000000000304201700000000            000000000000000                              000                           
0010001300321T 090180230000001544772 29577050119823372   78888888888888990301201700000000000750000103049X888888888888899          0900000000000000000000000000000000000000000000000000000   000000000000000000000010009        170192957705     
0010001300322U 090000000000000000000000000000000000000000000000000000000000000000000000000000000000000000000000000000000000000000000000000304201700000000            000000000000000                              000                           
0010001300323T 090180230000001544772 29577050119950735   788888888888889903012017000000000010000001012408888888888888899          0900000000000000000000000000000000000000000000000000000   000000000000000000000010009        170192957705     
0010001300324U 090000000000000000000000000000000000000000000000000000000000000000000000000000000000000000000000000000000000000000000000000304201700000000            000000000000000                              000                           
0010001300325T 090180230000001544772 29577050120006746   788888888888889903012017000000000007500001000515888888888888899          0900000000000000000000000000000000000000000000000000000   000000000000000000000010009        170192957705     
0010001300326U 090000000000000000000000000000000000000000000000000000000000000000000000000000000000000000000000000000000000000000000000000304201700000000            000000000000000                              000                           
0010001300327T 090180230000001544772 29577050120103408   788888888888889903012017000000000010000001000213888888888888899          0900000000000000000000000000000000000000000000000000000   000000000000000000000010009        170192957705     
0010001300328U 090000000000000000000000000000000000000000000000000000000000000000000000000000000000000000000000000000000000000000000000000304201700000000            000000000000000                              000                           
0010001300329T 090180230000001544772 29577050120247367   788888888888889903012017000000000007500001000213888888888888899          0900000000000000000000000000000000000000000000000000000   000000000000000000000010009        170192957705     
0010001300330U 090000000000000000000000000000000000000000000000000000000000000000000000000000000000000000000000000000000000000000000000000304201700000000            000000000000000                              000                           
0010001300331T 090180230000001544772 29577050120642460   78888888888888990301201700000000000750000103049X888888888888899          0900000000000000000000000000000000000000000000000000000   000000000000000000000010009        170192957705     
0010001300332U 090000000000000000000000000000000000000000000000000000000000000000000000000000000000000000000000000000000000000000000000000304201700000000            000000000000000                              000                           
0010001300333T 090180230000001544772 29577050120725331   788888888888889903012017000000000007500001000833888888888888899          0900000000000000000000000000000000000000000000000000000   000000000000000000000010009        170192957705     
0010001300334U 090000000000000000000000000000000000000000000000000000000000000000000000000000000000000000000000000000000000000000000000000304201700000000            000000000000000                              000                           
0010001300335T 090180230000001544772 29577050120744944   788888888888889903012017000000000007500001000833888888888888899          0900000000000000000000000000000000000000000000000000000   000000000000000000000010009        170192957705     
0010001300336U 090000000000000000000000000000000000000000000000000000000000000000000000000000000000000000000000000000000000000000000000000304201700000000            000000000000000                              000                           
0010001300337T 090180230000001544772 29577050120839087   788888888888889903012017000000000007500001012408888888888888899          0900000000000000000000000000000000000000000000000000000   000000000000000000000010009        170192957705     
0010001300338U 090000000000000000000000000000000000000000000000000000000000000000000000000000000000000000000000000000000000000000000000000304201700000000            000000000000000                              000                           
0010001300339T 090180230000001544772 29577050120948803   788888888888889903012017000000000007500001012408888888888888899          0900000000000000000000000000000000000000000000000000000   000000000000000000000010009        170192957705     
0010001300340U 090000000000000000000000000000000000000000000000000000000000000000000000000000000000000000000000000000000000000000000000000304201700000000            000000000000000                              000                           
0010001300341T 090180230000001544772 29577050121033916   788888888888889903012017000000000007500001012408888888888888899          0900000000000000000000000000000000000000000000000000000   000000000000000000000010009        170192957705     
0010001300342U 090000000000000000000000000000000000000000000000000000000000000000000000000000000000000000000000000000000000000000000000000304201700000000            000000000000000                              000                           
0010001300343T 280180230000001544772 29577050008452849   788888888888889902022017000000000007500001000000888888888888899          0900000000000000000000000000000000000000000000000000000   000000000000000000000005002        170192957705     
0010001300344U 280000000000000000000000000000000000000000000000000000000000000000000000000000000000000000000000000000000000000000000000000304201700000000            000000000000000                              000                           
0010001300345T 280180230000001544772 29577050012939611   788888888888889902022017000000000007500001000000888888888888899          0900000000000000000000000000000000000000000000000000000   000000000000000000000005002        170192957705     
0010001300346U 280000000000000000000000000000000000000000000000000000000000000000000000000000000000000000000000000000000000000000000000000304201700000000            000000000000000                              000                           
0010001300347T 280180230000001544772 29577050017450175   7               04032017000000000007500001000000                         0900000000000000000000000000000000000000000000000000000   000000000000000000000005002        170192957705     
0010001300348U 280000000000000000000000000000000000000000000000000000000000000000000000000000000000000000000000000000000000000000000000000304201700000000            000000000000000                              000                           
0010001300349T 280180230000001544772 29577050029653557   788888888888889931012017000000000010000001000000888888888888899          0900000000000000000000000000000000000000000000000000000   000000000000000000000005002        170192957705     
0010001300350U 280000000000000000000000000000000000000000000000000000000000000000000000000000000000000000000000000000000000000000000000000304201700000000            000000000000000                              000                           
0010001300351T 280180230000001544772 29577050037932637   788888888888889931012017000000000007500001000000888888888888899          0900000000000000000000000000000000000000000000000000000   000000000000000000000005002        170192957705     
0010001300352U 280000000000000000000000000000000000000000000000000000000000000000000000000000000000000000000000000000000000000000000000000304201700000000            000000000000000                              000                           
0010001300353T 280180230000001544772 29577050040053268   788888888888889931012017000000000007500001000000888888888888899          0900000000000000000000000000000000000000000000000000000   000000000000000000000005002        170192957705     
0010001300354U 280000000000000000000000000000000000000000000000000000000000000000000000000000000000000000000000000000000000000000000000000304201700000000            000000000000000                              000                           
0010001300355T 280180230000001544772 29577050045044674   788888888888889902022017000000000007500001000000888888888888899          0900000000000000000000000000000000000000000000000000000   000000000000000000000005002        170192957705     
0010001300356U 280000000000000000000000000000000000000000000000000000000000000000000000000000000000000000000000000000000000000000000000000304201700000000            000000000000000                              000                           
0010001300357T 280180230000001544772 29577050053708750   788888888888889902022017000000000007500001000000888888888888899          0900000000000000000000000000000000000000000000000000000   000000000000000000000005002        170192957705     
0010001300358U 280000000000000000000000000000000000000000000000000000000000000000000000000000000000000000000000000000000000000000000000000304201700000000            000000000000000                              000                           
0010001300359T 280180230000001544772 29577050070924230   7               04032017000000000007500001000000                         0900000000000000000000000000000000000000000000000000000   000000000000000000000005002        170192957705     
0010001300360U 280000000000000000000000000000000000000000000000000000000000000000000000000000000000000000000000000000000000000000000000000304201700000000            000000000000000                              000                           
0010001300361T 280180230000001544772 29577050070941477   7               04032017000000000007500001000000                         0900000000000000000000000000000000000000000000000000000   000000000000000000000005002        170192957705     
0010001300362U 280000000000000000000000000000000000000000000000000000000000000000000000000000000000000000000000000000000000000000000000000304201700000000            000000000000000                              000                           
0010001300363T 280180230000001544772 29577050077757639   7               04032017000000000007500001000000                         0900000000000000000000000000000000000000000000000000000   000000000000000000000005002        170192957705     
0010001300364U 280000000000000000000000000000000000000000000000000000000000000000000000000000000000000000000000000000000000000000000000000304201700000000            000000000000000                              000                           
0010001300365T 280180230000001544772 29577050095123546   788888888888889902022017000000000007500001000000888888888888899          0900000000000000000000000000000000000000000000000000000   000000000000000000000005002        170192957705     
0010001300366U 280000000000000000000000000000000000000000000000000000000000000000000000000000000000000000000000000000000000000000000000000304201700000000            000000000000000                              000                           
0010001300367T 280180230000001544772 29577050099150371   788888888888889902022017000000000007500001000000888888888888899          0900000000000000000000000000000000000000000000000000000   000000000000000000000005002        170192957705     
0010001300368U 280000000000000000000000000000000000000000000000000000000000000000000000000000000000000000000000000000000000000000000000000304201700000000            000000000000000                              000                           
0010001300369T 280180230000001544772 29577050112426624   7               03032017000000000007500001000000                         0900000000000000000000000000000000000000000000000000000   000000000000000000000005002        170192957705     
0010001300370U 280000000000000000000000000000000000000000000000000000000000000000000000000000000000000000000000000000000000000000000000000304201700000000            000000000000000                              000                           
0010001300371T 280180230000001544772 29577050112547962   7               03032017000000000007500001000000                         0900000000000000000000000000000000000000000000000000000   000000000000000000000005002        170192957705     
0010001300372U 280000000000000000000000000000000000000000000000000000000000000000000000000000000000000000000000000000000000000000000000000304201700000000            000000000000000                              000                           
0010001300373T 280180230000001544772 29577050112604629   7               03032017000000000007500001000000                         0900000000000000000000000000000000000000000000000000000   000000000000000000000005002        170192957705     
0010001300374U 280000000000000000000000000000000000000000000000000000000000000000000000000000000000000000000000000000000000000000000000000304201700000000            000000000000000                              000                           
0010001300375T 280180230000001544772 29577050128057114   7               04032017000000000007500001000000                         0900000000000000000000000000000000000000000000000000000   000000000000000000000005002        170192957705     
0010001300376U 280000000000000000000000000000000000000000000000000000000000000000000000000000000000000000000000000000000000000000000000000304201700000000            000000000000000                              000                           
0010001300377T 280180230000001544772 29577050130815169   7               04032017000000000007500001000000                         0900000000000000000000000000000000000000000000000000000   000000000000000000000005002        170192957705     
0010001300378U 280000000000000000000000000000000000000000000000000000000000000000000000000000000000000000000000000000000000000000000000000304201700000000            000000000000000                              000                           
0010001300379T 280180230000001544772 29577050135746692   788888888888889931012017000000000007500001000000888888888888899          0900000000000000000000000000000000000000000000000000000   000000000000000000000005002        170192957705     
0010001300380U 280000000000000000000000000000000000000000000000000000000000000000000000000000000000000000000000000000000000000000000000000304201700000000            000000000000000                              000                           
0010001300381T 280180230000001544772 29577050135748335   788888888888889902022017000000000007500001000000888888888888899          0900000000000000000000000000000000000000000000000000000   000000000000000000000005002        170192957705     
0010001300382U 280000000000000000000000000000000000000000000000000000000000000000000000000000000000000000000000000000000000000000000000000304201700000000            000000000000000                              000                           
0010001300383T 280180230000001544772 29577050145408136   788888888888889931012017000000000007500001000000888888888888899          0900000000000000000000000000000000000000000000000000000   000000000000000000000005002        170192957705     
0010001300384U 280000000000000000000000000000000000000000000000000000000000000000000000000000000000000000000000000000000000000000000000000304201700000000            000000000000000                              000                           
0010001300385T 280180230000001544772 29577050151134769   788888888888889902022017000000000007500001000000888888888888899          0900000000000000000000000000000000000000000000000000000   000000000000000000000005002        170192957705     
0010001300386U 280000000000000000000000000000000000000000000000000000000000000000000000000000000000000000000000000000000000000000000000000304201700000000            000000000000000                              000                           
0010001300387T 280180230000001544772 29577050152212581   788888888888889931012017000000000007500001000000888888888888899          0900000000000000000000000000000000000000000000000000000   000000000000000000000005002        170192957705     
0010001300388U 280000000000000000000000000000000000000000000000000000000000000000000000000000000000000000000000000000000000000000000000000304201700000000            000000000000000                              000                           
0010001300389T 280180230000001544772 29577050154717822   788888888888889931012017000000000007500001000000888888888888899          0900000000000000000000000000000000000000000000000000000   000000000000000000000005002        170192957705     
0010001300390U 280000000000000000000000000000000000000000000000000000000000000000000000000000000000000000000000000000000000000000000000000304201700000000            000000000000000                              000                           
0010001300391T 280180230000001544772 29577050154755807   788888888888889931012017000000000007500001000000888888888888899          0900000000000000000000000000000000000000000000000000000   000000000000000000000005002        170192957705     
0010001300392U 280000000000000000000000000000000000000000000000000000000000000000000000000000000000000000000000000000000000000000000000000304201700000000            000000000000000                              000                           
0010001300393T 280180230000001544772 29577050169919820   788888888888889931012017000000000007500001000000888888888888899          0900000000000000000000000000000000000000000000000000000   000000000000000000000005002        170192957705     
0010001300394U 280000000000000000000000000000000000000000000000000000000000000000000000000000000000000000000000000000000000000000000000000304201700000000            000000000000000                              000                           
0010001300395T 280180230000001544772 29577050170740691   7               02032017000000000007500001000000                         0900000000000000000000000000000000000000000000000000000   000000000000000000000005002        170192957705     
0010001300396U 280000000000000000000000000000000000000000000000000000000000000000000000000000000000000000000000000000000000000000000000000304201700000000            000000000000000                              000                           
0010001300397T 280180230000001544772 29577050174523506   788888888888889902022017000000000007500001000000888888888888899          0900000000000000000000000000000000000000000000000000000   000000000000000000000005002        170192957705     
0010001300398U 280000000000000000000000000000000000000000000000000000000000000000000000000000000000000000000000000000000000000000000000000304201700000000            000000000000000                              000                           
0010001300399T 280180230000001544772 29577050179425172   7               04032017000000000007500001000000                         0900000000000000000000000000000000000000000000000000000   000000000000000000000005002        170192957705     
0010001300400U 280000000000000000000000000000000000000000000000000000000000000000000000000000000000000000000000000000000000000000000000000304201700000000            000000000000000                              000                           
0010001300401T 280180230000001544772 29577050183334349   7               02032017000000000007500001000000                         0900000000000000000000000000000000000000000000000000000   000000000000000000000005002        170192957705     
0010001300402U 280000000000000000000000000000000000000000000000000000000000000000000000000000000000000000000000000000000000000000000000000304201700000000            000000000000000                              000                           
0010001300403T 280180230000001544772 29577050183343847   7               04032017000000000007500001000000                         0900000000000000000000000000000000000000000000000000000   000000000000000000000005002        170192957705     
0010001300404U 280000000000000000000000000000000000000000000000000000000000000000000000000000000000000000000000000000000000000000000000000304201700000000            000000000000000                              000                           
0010001300405T 280180230000001544772 29577050194033316   7               04032017000000000007500001000000                         0900000000000000000000000000000000000000000000000000000   000000000000000000000005002        170192957705     
0010001300406U 280000000000000000000000000000000000000000000000000000000000000000000000000000000000000000000000000000000000000000000000000304201700000000            000000000000000                              000                           
0010001300407T 280180230000001544772 29577050203952982   788888888888889931012017000000000007500001000000888888888888899          0900000000000000000000000000000000000000000000000000000   000000000000000000000005002        170192957705     
0010001300408U 280000000000000000000000000000000000000000000000000000000000000000000000000000000000000000000000000000000000000000000000000304201700000000            000000000000000                              000                           
0010001300409T 280180230000001544772 29577050208329743   7               02032017000000000007500001000000                         0900000000000000000000000000000000000000000000000000000   000000000000000000000005002        170192957705     
0010001300410U 280000000000000000000000000000000000000000000000000000000000000000000000000000000000000000000000000000000000000000000000000304201700000000            000000000000000                              000                           
0010001300411T 280180230000001544772 29577050211904928   788888888888889902022017000000000007500001000000888888888888899          0900000000000000000000000000000000000000000000000000000   000000000000000000000005002        170192957705     
0010001300412U 280000000000000000000000000000000000000000000000000000000000000000000000000000000000000000000000000000000000000000000000000304201700000000            000000000000000                              000                           
