00100000         2247745860001000029577050014       0180230000001544772 INSTITUTO DE SELECAO E TECNOLOBANCO DO BRASIL                         20404201701245700016003000000515122941PROCESSAMEN                                                 
00100011T0100020 20247745860001000029577050014       0180230000001544772 INSTITUTO DE SELECAO E TECNOLO                                                                                000000000404201700000000  000000000                      
0010001300001T 020180230000001544772 29577050008541903   7               06042017000000000007500001012408                         0900000000000010000000000000000000000000000000000000000   0000000000000000000000000A9        170192957705     
0010001300002U 020000000000000000000000000000000000000000000000000000000000000000000000000000000000000000000000000000000000000000000000000404201700000000            000000000000000                              000                           
0010001300003T 020180230000001544772 29577050119319384   7               06042017000000000007500001012416                         0900000000000010000000000000000000000000000000000000000   0000000000000000000000000A9        170192957705     
0010001300004U 020000000000000000000000000000000000000000000000000000000000000000000000000000000000000000000000000000000000000000000000000404201700000000            000000000000000                              000                           
0010001300005T 020180230000001544772 29577050133957197   7               06042017000000000007500001012408                         0900000000000010000000000000000000000000000000000000000   0000000000000000000000000A9        170192957705     
0010001300006U 020000000000000000000000000000000000000000000000000000000000000000000000000000000000000000000000000000000000000000000000000404201700000000            000000000000000                              000                           
0010001300007T 020180230000001544772 29577050155255238   7               0604201700000000000750000103049X                         0900000000000010000000000000000000000000000000000000000   0000000000000000000000000A9        170192957705     
0010001300008U 020000000000000000000000000000000000000000000000000000000000000000000000000000000000000000000000000000000000000000000000000404201700000000            000000000000000                              000                           
0010001300009T 020180230000001544772 29577050258236901   7               0604201700000000000750000103049X                         0900000000000010500000000000000000000000000000000000000   0000000000000000000000000A9A4      170192957705     
0010001300010U 020000000000000000000000000000000000000000000000000000000000000000000000000000000000000000000000000000000000000000000000000404201700000000            000000000000000                              000                           
0010001300011T 020180230000001544772 29577050315256357   7               06042017000000000007500001000213                         0900000000000010000000000000000000000000000000000000000   0000000000000000000000000A9        170192957705     
0010001300012U 020000000000000000000000000000000000000000000000000000000000000000000000000000000000000000000000000000000000000000000000000404201700000000            000000000000000                              000                           
0010001300013T 020180230000001544772 29577050322355420   7               06042017000000000007500001012408                         0900000000000010500000000000000000000000000000000000000   0000000000000000000000000A9A4      170192957705     
0010001300014U 020000000000000000000000000000000000000000000000000000000000000000000000000000000000000000000000000000000000000000000000000404201700000000            000000000000000                              000                           
0010001300015T 020180230000001544772 29577050377449905   7               0604201700000000000750000103049X                         0900000000000010000000000000000000000000000000000000000   0000000000000000000000000A9        170192957705     
0010001300016U 020000000000000000000000000000000000000000000000000000000000000000000000000000000000000000000000000000000000000000000000000404201700000000            000000000000000                              000                           
0010001300017T 020180230000001544772 29577050423538900   7               06042017000000000007500001046280                         0900000000000010000000000000000000000000000000000000000   0000000000000000000000000A9        170192957705     
0010001300018U 020000000000000000000000000000000000000000000000000000000000000000000000000000000000000000000000000000000000000000000000000404201700000000            000000000000000                              000                           
0010001300019T 020180230000001544772 29577050423652147   7               06042017000000000007500001046280                         0900000000000010000000000000000000000000000000000000000   0000000000000000000000000A9        170192957705     
0010001300020U 020000000000000000000000000000000000000000000000000000000000000000000000000000000000000000000000000000000000000000000000000404201700000000            000000000000000                              000                           
0010001300021T 020180230000001544772 29577050448738293   7               06042017000000000007500001012408                         0900000000000010000000000000000000000000000000000000000   0000000000000000000000000A9        170192957705     
0010001300022U 020000000000000000000000000000000000000000000000000000000000000000000000000000000000000000000000000000000000000000000000000404201700000000            000000000000000                              000                           
0010001300023T 020180230000001544772 29577050477554815   7               06042017000000000007500001012408                         0900000000000010000000000000000000000000000000000000000   0000000000000000000000000A9        170192957705     
0010001300024U 020000000000000000000000000000000000000000000000000000000000000000000000000000000000000000000000000000000000000000000000000404201700000000            000000000000000                              000                           
0010001300025T 020180230000001544772 29577050477556248   7               06042017000000000007500001012408                         0900000000000010000000000000000000000000000000000000000   0000000000000000000000000A9        170192957705     
0010001300026U 020000000000000000000000000000000000000000000000000000000000000000000000000000000000000000000000000000000000000000000000000404201700000000            000000000000000                              000                           
0010001300027T 020180230000001544772 29577050477559683   7               06042017000000000007500001012408                         0900000000000010000000000000000000000000000000000000000   0000000000000000000000000A9        170192957705     
0010001300028U 020000000000000000000000000000000000000000000000000000000000000000000000000000000000000000000000000000000000000000000000000404201700000000            000000000000000                              000                           
0010001300029T 020180230000001544772 29577050494651432   7               06042017000000000007500001012408                         0900000000000010000000000000000000000000000000000000000   0000000000000000000000000A9        170192957705     
0010001300030U 020000000000000000000000000000000000000000000000000000000000000000000000000000000000000000000000000000000000000000000000000404201700000000            000000000000000                              000                           
0010001300031T 020180230000001544772 29577050772011655   7               06042017000000000007500001000213                         0900000000000010000000000000000000000000000000000000000   0000000000000000000000000A9        170192957705     
0010001300032U 020000000000000000000000000000000000000000000000000000000000000000000000000000000000000000000000000000000000000000000000000404201700000000            000000000000000                              000                           
0010001300033T 020180230000001544772 29577050871410070   7               06042017000000000007500001000213                         0900000000000010000000000000000000000000000000000000000   0000000000000000000000000A9        170192957705     
0010001300034U 020000000000000000000000000000000000000000000000000000000000000000000000000000000000000000000000000000000000000000000000000404201700000000            000000000000000                              000                           
0010001300035T 020180230000001544772 29577050909821335   7               06042017000000000010000001003018                         0900000000000010000000000000000000000000000000000000000   0000000000000000000000000A9        170192957705     
0010001300036U 020000000000000000000000000000000000000000000000000000000000000000000000000000000000000000000000000000000000000000000000000404201700000000            000000000000000                              000                           
0010001300037T 020180230000001544772 29577050999020618   7               06042017000000000007500001001120                         0900000000000010000000000000000000000000000000000000000   0000000000000000000000000A9        170192957705     
0010001300038U 020000000000000000000000000000000000000000000000000000000000000000000000000000000000000000000000000000000000000000000000000404201700000000            000000000000000                              000                           
0010001300039T 020180230000001544772 29577051047119797   7               06042017000000000007500001012408                         0900000000000010000000000000000000000000000000000000000   0000000000000000000000000A9        170192957705     
0010001300040U 020000000000000000000000000000000000000000000000000000000000000000000000000000000000000000000000000000000000000000000000000404201700000000            000000000000000                              000                           
0010001300041T 020180230000001544772 29577051058111817   7               06042017000000000007500001000213                         0900000000000010000000000000000000000000000000000000000   0000000000000000000000000A9        170192957705     
0010001300042U 020000000000000000000000000000000000000000000000000000000000000000000000000000000000000000000000000000000000000000000000000404201700000000            000000000000000                              000                           
0010001300043T 020180230000001544772 29577051180100341   7               06042017000000000007500001012416                         0900000000000010000000000000000000000000000000000000000   0000000000000000000000000A9        170192957705     
0010001300044U 020000000000000000000000000000000000000000000000000000000000000000000000000000000000000000000000000000000000000000000000000404201700000000            000000000000000                              000                           
0010001300045T 020180230000001544772 29577051240552937   7               06042017000000000007500001000213                         0900000000000010000000000000000000000000000000000000000   0000000000000000000000000A9        170192957705     
0010001300046U 020000000000000000000000000000000000000000000000000000000000000000000000000000000000000000000000000000000000000000000000000404201700000000            000000000000000                              000                           
0010001300047T 020180230000001544772 29577051277926497   7               0604201700000000000750000103049X                         0900000000000010500000000000000000000000000000000000000   0000000000000000000000000A9A4      170192957705     
0010001300048U 020000000000000000000000000000000000000000000000000000000000000000000000000000000000000000000000000000000000000000000000000404201700000000            000000000000000                              000                           
0010001300049T 020180230000001544772 29577051306002312   7               06042017000000000007500001000213                         0900000000000010000000000000000000000000000000000000000   0000000000000000000000000A9        170192957705     
0010001300050U 020000000000000000000000000000000000000000000000000000000000000000000000000000000000000000000000000000000000000000000000000404201700000000            000000000000000                              000                           
0010001300051T 020180230000001544772 29577051320628054   7               06042017000000000007500001012416                         0900000000000010500000000000000000000000000000000000000   0000000000000000000000000A9A4      170192957705     
0010001300052U 020000000000000000000000000000000000000000000000000000000000000000000000000000000000000000000000000000000000000000000000000404201700000000            000000000000000                              000                           
0010001300053T 020180230000001544772 29577051573333223   7               05042017000000000007500001012408                         0900000000000010000000000000000000000000000000000000000   0000000000000000000000000A9        170192957705     
0010001300054U 020000000000000000000000000000000000000000000000000000000000000000000000000000000000000000000000000000000000000000000000000304201700000000            000000000000000                              000                           
0010001300055T 020180230000001544772 29577051573614370   7               05042017000000000007500001046280                         0900000000000010500000000000000000000000000000000000000   0000000000000000000000000A9A4      170192957705     
0010001300056U 020000000000000000000000000000000000000000000000000000000000000000000000000000000000000000000000000000000000000000000000000304201700000000            000000000000000                              000                           
0010001300057T 020180230000001544772 29577051573643357   7               05042017000000000007500001046280                         0900000000000010500000000000000000000000000000000000000   0000000000000000000000000A9A4      170192957705     
0010001300058U 020000000000000000000000000000000000000000000000000000000000000000000000000000000000000000000000000000000000000000000000000304201700000000            000000000000000                              000                           
0010001300059T 020180230000001544772 29577051573800534   7               0504201700000000000750000103049X                         0900000000000010000000000000000000000000000000000000000   0000000000000000000000000A9        170192957705     
0010001300060U 020000000000000000000000000000000000000000000000000000000000000000000000000000000000000000000000000000000000000000000000000304201700000000            000000000000000                              000                           
0010001300061T 020180230000001544772 29577051576052258   7               06042017000000000007500001012416                         0900000000000010000000000000000000000000000000000000000   0000000000000000000000000A9        170192957705     
0010001300062U 020000000000000000000000000000000000000000000000000000000000000000000000000000000000000000000000000000000000000000000000000404201700000000            000000000000000                              000                           
0010001300063T 020180230000001544772 29577051576159782   7               06042017000000000007500001012416                         0900000000000010000000000000000000000000000000000000000   0000000000000000000000000A9        170192957705     
0010001300064U 020000000000000000000000000000000000000000000000000000000000000000000000000000000000000000000000000000000000000000000000000404201700000000            000000000000000                              000                           
0010001300065T 020180230000001544772 29577051576433342   7               0604201700000000000750000103049X                         0900000000000010000000000000000000000000000000000000000   0000000000000000000000000A9        170192957705     
0010001300066U 020000000000000000000000000000000000000000000000000000000000000000000000000000000000000000000000000000000000000000000000000404201700000000            000000000000000                              000                           
0010001300067T 020180230000001544772 29577051576626234   7               06042017000000000007500001000213                         0900000000000010000000000000000000000000000000000000000   0000000000000000000000000A9        170192957705     
0010001300068U 020000000000000000000000000000000000000000000000000000000000000000000000000000000000000000000000000000000000000000000000000404201700000000            000000000000000                              000                           
0010001300069T 020180230000001544772 29577051576842763   7               06042017000000000007500001012408                         0900000000000010000000000000000000000000000000000000000   0000000000000000000000000A9        170192957705     
0010001300070U 020000000000000000000000000000000000000000000000000000000000000000000000000000000000000000000000000000000000000000000000000404201700000000            000000000000000                              000                           
0010001300071T 020180230000001544772 29577051576927151   7               06042017000000000007500001000213                         0900000000000010000000000000000000000000000000000000000   0000000000000000000000000A9        170192957705     
0010001300072U 020000000000000000000000000000000000000000000000000000000000000000000000000000000000000000000000000000000000000000000000000404201700000000            000000000000000                              000                           
0010001300073T 020180230000001544772 29577051577008849   7               06042017000000000007500001046280                         0900000000000010000000000000000000000000000000000000000   0000000000000000000000000A9        170192957705     
0010001300074U 020000000000000000000000000000000000000000000000000000000000000000000000000000000000000000000000000000000000000000000000000404201700000000            000000000000000                              000                           
0010001300075T 020180230000001544772 29577051577137203   7               06042017000000000007500001000833                         0900000000000010000000000000000000000000000000000000000   0000000000000000000000000A9        170192957705     
0010001300076U 020000000000000000000000000000000000000000000000000000000000000000000000000000000000000000000000000000000000000000000000000404201700000000            000000000000000                              000                           
0010001300077T 020180230000001544772 29577051577211197   7               06042017000000000007500001000833                         0900000000000010000000000000000000000000000000000000000   0000000000000000000000000A9        170192957705     
0010001300078U 020000000000000000000000000000000000000000000000000000000000000000000000000000000000000000000000000000000000000000000000000404201700000000            000000000000000                              000                           
0010001300079T 020180230000001544772 29577051577339946   7               06042017000000000007500001012408                         0900000000000010000000000000000000000000000000000000000   0000000000000000000000000A9        170192957705     
0010001300080U 020000000000000000000000000000000000000000000000000000000000000000000000000000000000000000000000000000000000000000000000000404201700000000            000000000000000                              000                           
0010001300081T 020180230000001544772 29577051577523027   7               06042017000000000007500001012408                         0900000000000010000000000000000000000000000000000000000   0000000000000000000000000A9        170192957705     
0010001300082U 020000000000000000000000000000000000000000000000000000000000000000000000000000000000000000000000000000000000000000000000000404201700000000            000000000000000                              000                           
0010001300083T 020180230000001544772 29577051577635573   7               06042017000000000007500001000213                         0900000000000010000000000000000000000000000000000000000   0000000000000000000000000A9        170192957705     
0010001300084U 020000000000000000000000000000000000000000000000000000000000000000000000000000000000000000000000000000000000000000000000000404201700000000            000000000000000                              000                           
0010001300085T 020180230000001544772 29577051577720101   7               06042017000000000010000001036900                         0900000000000010000000000000000000000000000000000000000   0000000000000000000000000A9        170192957705     
0010001300086U 020000000000000000000000000000000000000000000000000000000000000000000000000000000000000000000000000000000000000000000000000404201700000000            000000000000000                              000                           
0010001300087T 020180230000001544772 29577051577831827   7               06042017000000000007500001012416                         0900000000000010000000000000000000000000000000000000000   0000000000000000000000000A9        170192957705     
0010001300088U 020000000000000000000000000000000000000000000000000000000000000000000000000000000000000000000000000000000000000000000000000404201700000000            000000000000000                              000                           
0010001300089T 020180230000001544772 29577051578003281   7               06042017000000000007500001012416                         0900000000000010000000000000000000000000000000000000000   0000000000000000000000000A9        170192957705     
0010001300090U 020000000000000000000000000000000000000000000000000000000000000000000000000000000000000000000000000000000000000000000000000404201700000000            000000000000000                              000                           
0010001300091T 020180230000001544772 29577051578033332   7               06042017000000000007500001012416                         0900000000000010000000000000000000000000000000000000000   0000000000000000000000000A9        170192957705     
0010001300092U 020000000000000000000000000000000000000000000000000000000000000000000000000000000000000000000000000000000000000000000000000404201700000000            000000000000000                              000                           
0010001300093T 020180230000001544772 29577051578133350   7               06042017000000000010000001013005                         0900000000000010000000000000000000000000000000000000000   0000000000000000000000000A9        170192957705     
0010001300094U 020000000000000000000000000000000000000000000000000000000000000000000000000000000000000000000000000000000000000000000000000404201700000000            000000000000000                              000                           
0010001300095T 020180230000001544772 29577051578236965   7               06042017000000000007500001012416                         0900000000000010000000000000000000000000000000000000000   0000000000000000000000000A9        170192957705     
0010001300096U 020000000000000000000000000000000000000000000000000000000000000000000000000000000000000000000000000000000000000000000000000404201700000000            000000000000000                              000                           
0010001300097T 020180230000001544772 29577051578257841   7               06042017000000000007500001012416                         0900000000000010000000000000000000000000000000000000000   0000000000000000000000000A9        170192957705     
0010001300098U 020000000000000000000000000000000000000000000000000000000000000000000000000000000000000000000000000000000000000000000000000404201700000000            000000000000000                              000                           
0010001300099T 020180230000001544772 29577051578259450   7               06042017000000000007500001012416                         0900000000000010000000000000000000000000000000000000000   0000000000000000000000000A9        170192957705     
0010001300100U 020000000000000000000000000000000000000000000000000000000000000000000000000000000000000000000000000000000000000000000000000404201700000000            000000000000000                              000                           
0010001300101T 020180230000001544772 29577051578322774   7               06042017000000000007500001012408                         0900000000000010000000000000000000000000000000000000000   0000000000000000000000000A9        170192957705     
0010001300102U 020000000000000000000000000000000000000000000000000000000000000000000000000000000000000000000000000000000000000000000000000404201700000000            000000000000000                              000                           
0010001300103T 020180230000001544772 29577051578545207   7               06042017000000000007500001012416                         0900000000000010000000000000000000000000000000000000000   0000000000000000000000000A9        170192957705     
0010001300104U 020000000000000000000000000000000000000000000000000000000000000000000000000000000000000000000000000000000000000000000000000404201700000000            000000000000000                              000                           
0010001300105T 020180230000001544772 29577051578618887   7               0604201700000000000750000103049X                         0900000000000010500000000000000000000000000000000000000   0000000000000000000000000A9A4      170192957705     
0010001300106U 020000000000000000000000000000000000000000000000000000000000000000000000000000000000000000000000000000000000000000000000000404201700000000            000000000000000                              000                           
0010001300107T 020180230000001544772 29577051578758588   7               06042017000000000007500001000213                         0900000000000010000000000000000000000000000000000000000   0000000000000000000000000A9        170192957705     
0010001300108U 020000000000000000000000000000000000000000000000000000000000000000000000000000000000000000000000000000000000000000000000000404201700000000            000000000000000                              000                           
0010001300109T 020180230000001544772 29577051578942016   7               06042017000000000007500001012408                         0900000000000010000000000000000000000000000000000000000   0000000000000000000000000A9        170192957705     
0010001300110U 020000000000000000000000000000000000000000000000000000000000000000000000000000000000000000000000000000000000000000000000000404201700000000            000000000000000                              000                           
0010001300111T 020180230000001544772 29577051579048856   7               06042017000000000007500001012408                         0900000000000010000000000000000000000000000000000000000   0000000000000000000000000A9        170192957705     
0010001300112U 020000000000000000000000000000000000000000000000000000000000000000000000000000000000000000000000000000000000000000000000000404201700000000            000000000000000                              000                           
0010001300113T 020180230000001544772 29577051579232580   7               06042017000000000007500001012408                         0900000000000010000000000000000000000000000000000000000   0000000000000000000000000A9        170192957705     
0010001300114U 020000000000000000000000000000000000000000000000000000000000000000000000000000000000000000000000000000000000000000000000000404201700000000            000000000000000                              000                           
0010001300115T 020180230000001544772 29577051579333119   7               06042017000000000007500001012408                         0900000000000010000000000000000000000000000000000000000   0000000000000000000000000A9        170192957705     
0010001300116U 020000000000000000000000000000000000000000000000000000000000000000000000000000000000000000000000000000000000000000000000000404201700000000            000000000000000                              000                           
0010001300117T 020180230000001544772 29577051579458884   7               0604201700000000000750000103049X                         0900000000000010000000000000000000000000000000000000000   0000000000000000000000000A9        170192957705     
0010001300118U 020000000000000000000000000000000000000000000000000000000000000000000000000000000000000000000000000000000000000000000000000404201700000000            000000000000000                              000                           
0010001300119T 020180230000001544772 29577051579526562   7               0604201700000000000750000101981X                         0900000000000010000000000000000000000000000000000000000   0000000000000000000000000A9        170192957705     
0010001300120U 020000000000000000000000000000000000000000000000000000000000000000000000000000000000000000000000000000000000000000000000000404201700000000            000000000000000                              000                           
0010001300121T 020180230000001544772 29577051579647482   7               0604201700000000000750000103049X                         0900000000000010000000000000000000000000000000000000000   0000000000000000000000000A9        170192957705     
0010001300122U 020000000000000000000000000000000000000000000000000000000000000000000000000000000000000000000000000000000000000000000000000404201700000000            000000000000000                              000                           
0010001300123T 020180230000001544772 29577051579700268   7               06042017000000000007500001012408                         0900000000000010000000000000000000000000000000000000000   0000000000000000000000000A9        170192957705     
0010001300124U 020000000000000000000000000000000000000000000000000000000000000000000000000000000000000000000000000000000000000000000000000404201700000000            000000000000000                              000                           
0010001300125T 020180230000001544772 29577051579706599   7               06042017000000000007500001012408                         0900000000000010000000000000000000000000000000000000000   0000000000000000000000000A9        170192957705     
0010001300126U 020000000000000000000000000000000000000000000000000000000000000000000000000000000000000000000000000000000000000000000000000404201700000000            000000000000000                              000                           
0010001300127T 020180230000001544772 29577051580019516   7               0604201700000000000750000103049X                         0900000000000010000000000000000000000000000000000000000   0000000000000000000000000A9        170192957705     
0010001300128U 020000000000000000000000000000000000000000000000000000000000000000000000000000000000000000000000000000000000000000000000000404201700000000            000000000000000                              000                           
0010001300129T 020180230000001544772 29577051580120350   7               06042017000000000007500001012416                         0900000000000010000000000000000000000000000000000000000   0000000000000000000000000A9        170192957705     
0010001300130U 020000000000000000000000000000000000000000000000000000000000000000000000000000000000000000000000000000000000000000000000000404201700000000            000000000000000                              000                           
0010001300131T 020180230000001544772 29577051580236526   7               0604201700000000000750000103049X                         0900000000000010000000000000000000000000000000000000000   0000000000000000000000000A9        170192957705     
0010001300132U 020000000000000000000000000000000000000000000000000000000000000000000000000000000000000000000000000000000000000000000000000404201700000000            000000000000000                              000                           
0010001300133T 020180230000001544772 29577051581039072   7               06042017000000000007500001000213                         0900000000000010000000000000000000000000000000000000000   0000000000000000000000000A9        170192957705     
0010001300134U 020000000000000000000000000000000000000000000000000000000000000000000000000000000000000000000000000000000000000000000000000404201700000000            000000000000000                              000                           
0010001300135T 020180230000001544772 29577051581149342   7               0604201700000000000750000103049X                         0900000000000010000000000000000000000000000000000000000   0000000000000000000000000A9        170192957705     
0010001300136U 020000000000000000000000000000000000000000000000000000000000000000000000000000000000000000000000000000000000000000000000000404201700000000            000000000000000                              000                           
0010001300137T 020180230000001544772 29577051581340474   7               06042017000000000007500001012416                         0900000000000010000000000000000000000000000000000000000   0000000000000000000000000A9        170192957705     
0010001300138U 020000000000000000000000000000000000000000000000000000000000000000000000000000000000000000000000000000000000000000000000000404201700000000            000000000000000                              000                           
0010001300139T 020180230000001544772 29577051582253235   7               06042017000000000007500001000833                         0900000000000010000000000000000000000000000000000000000   0000000000000000000000000A9        170192957705     
0010001300140U 020000000000000000000000000000000000000000000000000000000000000000000000000000000000000000000000000000000000000000000000000404201700000000            000000000000000                              000                           
0010001300141T 020180230000001544772 29577051582435828   7               0604201700000000000750000103049X                         0900000000000010000000000000000000000000000000000000000   0000000000000000000000000A9        170192957705     
0010001300142U 020000000000000000000000000000000000000000000000000000000000000000000000000000000000000000000000000000000000000000000000000404201700000000            000000000000000                              000                           
0010001300143T 020180230000001544772 29577051582637560   7               06042017000000000007500001012416                         0900000000000010000000000000000000000000000000000000000   0000000000000000000000000A9        170192957705     
0010001300144U 020000000000000000000000000000000000000000000000000000000000000000000000000000000000000000000000000000000000000000000000000404201700000000            000000000000000                              000                           
0010001300145T 020180230000001544772 29577051582743545   7               06042017000000000007500001012408                         0900000000000010000000000000000000000000000000000000000   0000000000000000000000000A9        170192957705     
0010001300146U 020000000000000000000000000000000000000000000000000000000000000000000000000000000000000000000000000000000000000000000000000404201700000000            000000000000000                              000                           
0010001300147T 020180230000001544772 29577051583227334   7               06042017000000000007500001012416                         0900000000000010000000000000000000000000000000000000000   0000000000000000000000000A9        170192957705     
0010001300148U 020000000000000000000000000000000000000000000000000000000000000000000000000000000000000000000000000000000000000000000000000404201700000000            000000000000000                              000                           
0010001300149T 020180230000001544772 29577051583811479   7               06042017000000000010000001018376                         0900000000000010000000000000000000000000000000000000000   0000000000000000000000000A9        170192957705     
0010001300150U 020000000000000000000000000000000000000000000000000000000000000000000000000000000000000000000000000000000000000000000000000404201700000000            000000000000000                              000                           
0010001300151T 020180230000001544772 29577051583949095   7               0604201700000000000750000103049X                         0900000000000010000000000000000000000000000000000000000   0000000000000000000000000A9        170192957705     
0010001300152U 020000000000000000000000000000000000000000000000000000000000000000000000000000000000000000000000000000000000000000000000000404201700000000            000000000000000                              000                           
0010001300153T 020180230000001544772 29577051583959530   7               0604201700000000000750000103049X                         0900000000000010000000000000000000000000000000000000000   0000000000000000000000000A9        170192957705     
0010001300154U 020000000000000000000000000000000000000000000000000000000000000000000000000000000000000000000000000000000000000000000000000404201700000000            000000000000000                              000                           
0010001300155T 020180230000001544772 29577051584150984   7               06042017000000000007500001000213                         0900000000000010000000000000000000000000000000000000000   0000000000000000000000000A9        170192957705     
0010001300156U 020000000000000000000000000000000000000000000000000000000000000000000000000000000000000000000000000000000000000000000000000404201700000000            000000000000000                              000                           
0010001300157T 020180230000001544772 29577051584215351   7               06042017000000000007500001012408                         0900000000000010000000000000000000000000000000000000000   0000000000000000000000000A9        170192957705     
0010001300158U 020000000000000000000000000000000000000000000000000000000000000000000000000000000000000000000000000000000000000000000000000404201700000000            000000000000000                              000                           
0010001300159T 020180230000001544772 29577051584416450   7               06042017000000000007500001012408                         0900000000000010000000000000000000000000000000000000000   0000000000000000000000000A9        170192957705     
0010001300160U 020000000000000000000000000000000000000000000000000000000000000000000000000000000000000000000000000000000000000000000000000404201700000000            000000000000000                              000                           
0010001300161T 020180230000001544772 29577051584649212   7               06042017000000000010000001012416                         0900000000000010500000000000000000000000000000000000000   0000000000000000000000000A9A4      170192957705     
0010001300162U 020000000000000000000000000000000000000000000000000000000000000000000000000000000000000000000000000000000000000000000000000404201700000000            000000000000000                              000                           
0010001300163T 020180230000001544772 29577051585218351   7               06042017000000000007500001001120                         0900000000000010000000000000000000000000000000000000000   0000000000000000000000000A9        170192957705     
0010001300164U 020000000000000000000000000000000000000000000000000000000000000000000000000000000000000000000000000000000000000000000000000404201700000000            000000000000000                              000                           
0010001300165T 020180230000001544772 29577051585515643   7               06042017000000000007500001012416                         0900000000000010000000000000000000000000000000000000000   0000000000000000000000000A9        170192957705     
0010001300166U 020000000000000000000000000000000000000000000000000000000000000000000000000000000000000000000000000000000000000000000000000404201700000000            000000000000000                              000                           
0010001300167T 020180230000001544772 29577051585824528   7               0604201700000000000750000103049X                         0900000000000010000000000000000000000000000000000000000   0000000000000000000000000A9        170192957705     
0010001300168U 020000000000000000000000000000000000000000000000000000000000000000000000000000000000000000000000000000000000000000000000000404201700000000            000000000000000                              000                           
0010001300169T 020180230000001544772 29577051586000999   7               0604201700000000000750000103049X                         0900000000000010000000000000000000000000000000000000000   0000000000000000000000000A9        170192957705     
0010001300170U 020000000000000000000000000000000000000000000000000000000000000000000000000000000000000000000000000000000000000000000000000404201700000000            000000000000000                              000                           
0010001300171T 020180230000001544772 29577051586003529   7               0604201700000000000750000103049X                         0900000000000010000000000000000000000000000000000000000   0000000000000000000000000A9        170192957705     
0010001300172U 020000000000000000000000000000000000000000000000000000000000000000000000000000000000000000000000000000000000000000000000000404201700000000            000000000000000                              000                           
0010001300173T 020180230000001544772 29577051586546146   7               06042017000000000007500001012408                         0900000000000010000000000000000000000000000000000000000   0000000000000000000000000A9        170192957705     
0010001300174U 020000000000000000000000000000000000000000000000000000000000000000000000000000000000000000000000000000000000000000000000000404201700000000            000000000000000                              000                           
0010001300175T 020180230000001544772 29577051586918381   7               06042017000000000007500001012416                         0900000000000010000000000000000000000000000000000000000   0000000000000000000000000A9        170192957705     
0010001300176U 020000000000000000000000000000000000000000000000000000000000000000000000000000000000000000000000000000000000000000000000000404201700000000            000000000000000                              000                           
0010001300177T 020180230000001544772 29577051587300526   7               06042017000000000007500001046280                         0900000000000010000000000000000000000000000000000000000   0000000000000000000000000A9        170192957705     
0010001300178U 020000000000000000000000000000000000000000000000000000000000000000000000000000000000000000000000000000000000000000000000000404201700000000            000000000000000                              000                           
0010001300179T 020180230000001544772 29577051587329354   7               06042017000000000007500001046280                         0900000000000010000000000000000000000000000000000000000   0000000000000000000000000A9        170192957705     
0010001300180U 020000000000000000000000000000000000000000000000000000000000000000000000000000000000000000000000000000000000000000000000000404201700000000            000000000000000                              000                           
0010001300181T 020180230000001544772 29577051587349705   7               06042017000000000007500001046280                         0900000000000010000000000000000000000000000000000000000   0000000000000000000000000A9        170192957705     
0010001300182U 020000000000000000000000000000000000000000000000000000000000000000000000000000000000000000000000000000000000000000000000000404201700000000            000000000000000                              000                           
0010001300183T 020180230000001544772 29577051587359384   7               06042017000000000007500001046280                         0900000000000010000000000000000000000000000000000000000   0000000000000000000000000A9        170192957705     
0010001300184U 020000000000000000000000000000000000000000000000000000000000000000000000000000000000000000000000000000000000000000000000000404201700000000            000000000000000                              000                           
0010001300185T 020180230000001544772 29577051587506993   7               0604201700000000000750000103049X                         0900000000000010000000000000000000000000000000000000000   0000000000000000000000000A9        170192957705     
0010001300186U 020000000000000000000000000000000000000000000000000000000000000000000000000000000000000000000000000000000000000000000000000404201700000000            000000000000000                              000                           
0010001300187T 020180230000001544772 29577051587727397   7               0604201700000000001000000103049X                         0900000000000010000000000000000000000000000000000000000   0000000000000000000000000A9        170192957705     
0010001300188U 020000000000000000000000000000000000000000000000000000000000000000000000000000000000000000000000000000000000000000000000000404201700000000            000000000000000                              000                           
0010001300189T 020180230000001544772 29577051587935823   7               0604201700000000000750000103049X                         0900000000000010000000000000000000000000000000000000000   0000000000000000000000000A9        170192957705     
0010001300190U 020000000000000000000000000000000000000000000000000000000000000000000000000000000000000000000000000000000000000000000000000404201700000000            000000000000000                              000                           
0010001300191T 020180230000001544772 29577051588010953   7               06042017000000000007500001012416                         0900000000000010000000000000000000000000000000000000000   0000000000000000000000000A9        170192957705     
0010001300192U 020000000000000000000000000000000000000000000000000000000000000000000000000000000000000000000000000000000000000000000000000404201700000000            000000000000000                              000                           
0010001300193T 020180230000001544772 29577051588108953   7               06042017000000000007500001000213                         0900000000000010000000000000000000000000000000000000000   0000000000000000000000000A9        170192957705     
0010001300194U 020000000000000000000000000000000000000000000000000000000000000000000000000000000000000000000000000000000000000000000000000404201700000000            000000000000000                              000                           
0010001300195T 020180230000001544772 29577051588448389   7               06042017000000000007500001000213                         0900000000000010000000000000000000000000000000000000000   0000000000000000000000000A9        170192957705     
0010001300196U 020000000000000000000000000000000000000000000000000000000000000000000000000000000000000000000000000000000000000000000000000404201700000000            000000000000000                              000                           
0010001300197T 020180230000001544772 29577051589214773   7               0604201700000000000750000103049X                         0900000000000010000000000000000000000000000000000000000   0000000000000000000000000A9        170192957705     
0010001300198U 020000000000000000000000000000000000000000000000000000000000000000000000000000000000000000000000000000000000000000000000000404201700000000            000000000000000                              000                           
0010001300199T 020180230000001544772 29577051589402960   7               06042017000000000007500001046280                         0900000000000010000000000000000000000000000000000000000   0000000000000000000000000A9        170192957705     
0010001300200U 020000000000000000000000000000000000000000000000000000000000000000000000000000000000000000000000000000000000000000000000000404201700000000            000000000000000                              000                           
0010001300201T 020180230000001544772 29577051589847014   7               06042017000000000007500001001120                         0900000000000010000000000000000000000000000000000000000   0000000000000000000000000A9        170192957705     
0010001300202U 020000000000000000000000000000000000000000000000000000000000000000000000000000000000000000000000000000000000000000000000000404201700000000            000000000000000                              000                           
0010001300203T 020180230000001544772 29577051591242619   7               06042017000000000007500001012408                         0900000000000010000000000000000000000000000000000000000   0000000000000000000000000A9        170192957705     
0010001300204U 020000000000000000000000000000000000000000000000000000000000000000000000000000000000000000000000000000000000000000000000000404201700000000            000000000000000                              000                           
0010001300205T 020180230000001544772 29577051591728605   7               06042017000000000007500001012408                         0900000000000010000000000000000000000000000000000000000   0000000000000000000000000A9        170192957705     
0010001300206U 020000000000000000000000000000000000000000000000000000000000000000000000000000000000000000000000000000000000000000000000000404201700000000            000000000000000                              000                           
0010001300207T 020180230000001544772 29577051592026858   7               0604201700000000000750000103049X                         0900000000000010000000000000000000000000000000000000000   0000000000000000000000000A9        170192957705     
0010001300208U 020000000000000000000000000000000000000000000000000000000000000000000000000000000000000000000000000000000000000000000000000404201700000000            000000000000000                              000                           
0010001300209T 020180230000001544772 29577051592110579   7               06042017000000000007500001012416                         0900000000000010000000000000000000000000000000000000000   0000000000000000000000000A9        170192957705     
0010001300210U 020000000000000000000000000000000000000000000000000000000000000000000000000000000000000000000000000000000000000000000000000404201700000000            000000000000000                              000                           
0010001300211T 020180230000001544772 29577051592240952   7               06042017000000000010000001010235                         0900000000000010000000000000000000000000000000000000000   0000000000000000000000000A9        170192957705     
0010001300212U 020000000000000000000000000000000000000000000000000000000000000000000000000000000000000000000000000000000000000000000000000404201700000000            000000000000000                              000                           
0010001300213T 020180230000001544772 29577051592902821   7               0604201700000000000750000103049X                         0900000000000010000000000000000000000000000000000000000   0000000000000000000000000A9        170192957705     
0010001300214U 020000000000000000000000000000000000000000000000000000000000000000000000000000000000000000000000000000000000000000000000000404201700000000            000000000000000                              000                           
0010001300215T 020180230000001544772 29577051593331545   7               0604201700000000000750000103049X                         0900000000000010000000000000000000000000000000000000000   0000000000000000000000000A9        170192957705     
0010001300216U 020000000000000000000000000000000000000000000000000000000000000000000000000000000000000000000000000000000000000000000000000404201700000000            000000000000000                              000                           
0010001300217T 020180230000001544772 29577051593809191   7               06042017000000000007500001012408                         0900000000000010500000000000000000000000000000000000000   0000000000000000000000000A9A4      170192957705     
0010001300218U 020000000000000000000000000000000000000000000000000000000000000000000000000000000000000000000000000000000000000000000000000404201700000000            000000000000000                              000                           
0010001300219T 020180230000001544772 29577051596412426   7               0604201700000000000750000103049X                         0900000000000010000000000000000000000000000000000000000   0000000000000000000000000A9        170192957705     
0010001300220U 020000000000000000000000000000000000000000000000000000000000000000000000000000000000000000000000000000000000000000000000000404201700000000            000000000000000                              000                           
0010001300221T 020180230000001544772 29577051597232720   7               0604201700000000000750000103049X                         0900000000000010000000000000000000000000000000000000000   0000000000000000000000000A9        170192957705     
0010001300222U 020000000000000000000000000000000000000000000000000000000000000000000000000000000000000000000000000000000000000000000000000404201700000000            000000000000000                              000                           
0010001300223T 020180230000001544772 29577051597919012   7               06042017000000000007500001012416                         0900000000000010000000000000000000000000000000000000000   0000000000000000000000000A9        170192957705     
0010001300224U 020000000000000000000000000000000000000000000000000000000000000000000000000000000000000000000000000000000000000000000000000404201700000000            000000000000000                              000                           
0010001300225T 020180230000001544772 29577051598444615   7               0604201700000000000750000103049X                         0900000000000010500000000000000000000000000000000000000   0000000000000000000000000A9A4      170192957705     
0010001300226U 020000000000000000000000000000000000000000000000000000000000000000000000000000000000000000000000000000000000000000000000000404201700000000            000000000000000                              000                           
0010001300227T 020180230000001544772 29577051599322998   7               06042017000000000007500001000213                         0900000000000010000000000000000000000000000000000000000   0000000000000000000000000A9        170192957705     
0010001300228U 020000000000000000000000000000000000000000000000000000000000000000000000000000000000000000000000000000000000000000000000000404201700000000            000000000000000                              000                           
0010001300229T 020180230000001544772 29577051599507022   7               06042017000000000007500001000213                         0900000000000010000000000000000000000000000000000000000   0000000000000000000000000A9        170192957705     
0010001300230U 020000000000000000000000000000000000000000000000000000000000000000000000000000000000000000000000000000000000000000000000000404201700000000            000000000000000                              000                           
0010001300231T 020180230000001544772 29577051600235642   7               06042017000000000007500001046280                         0900000000000010000000000000000000000000000000000000000   0000000000000000000000000A9        170192957705     
0010001300232U 020000000000000000000000000000000000000000000000000000000000000000000000000000000000000000000000000000000000000000000000000404201700000000            000000000000000                              000                           
0010001300233T 020180230000001544772 29577051601102737   7               06042017000000000007500001023876                         0900000000000010000000000000000000000000000000000000000   0000000000000000000000000A9        170192957705     
0010001300234U 020000000000000000000000000000000000000000000000000000000000000000000000000000000000000000000000000000000000000000000000000404201700000000            000000000000000                              000                           
0010001300235T 020180230000001544772 29577051602007985   7               06042017000000000007500001012416                         0900000000000010000000000000000000000000000000000000000   0000000000000000000000000A9        170192957705     
0010001300236U 020000000000000000000000000000000000000000000000000000000000000000000000000000000000000000000000000000000000000000000000000404201700000000            000000000000000                              000                           
0010001300237T 020180230000001544772 29577051602008363   7               06042017000000000007500001012416                         0900000000000010000000000000000000000000000000000000000   0000000000000000000000000A9        170192957705     
0010001300238U 020000000000000000000000000000000000000000000000000000000000000000000000000000000000000000000000000000000000000000000000000404201700000000            000000000000000                              000                           
0010001300239T 020180230000001544772 29577051602946616   7               06042017000000000007500001046280                         0900000000000010500000000000000000000000000000000000000   0000000000000000000000000A9A4      170192957705     
0010001300240U 020000000000000000000000000000000000000000000000000000000000000000000000000000000000000000000000000000000000000000000000000404201700000000            000000000000000                              000                           
0010001300241T 020180230000001544772 29577051603226966   7               06042017000000000007500001012416                         0900000000000010000000000000000000000000000000000000000   0000000000000000000000000A9        170192957705     
0010001300242U 020000000000000000000000000000000000000000000000000000000000000000000000000000000000000000000000000000000000000000000000000404201700000000            000000000000000                              000                           
0010001300243T 020180230000001544772 29577051603539276   7               06042017000000000007500001012408                         0900000000000010000000000000000000000000000000000000000   0000000000000000000000000A9        170192957705     
0010001300244U 020000000000000000000000000000000000000000000000000000000000000000000000000000000000000000000000000000000000000000000000000404201700000000            000000000000000                              000                           
0010001300245T 060180230000001544772 29577050322355420   7               06042017000000000007500001012408                         0900000000000010000000000000000000000000000000000000000   000000000000000000000029000        170192957705     
0010001300246U 060000000000000000000000000000000000000000000000000000000000000000000000075000000000000072100000000000000000000000000000000404201705042017            000000000000000                              000                           
0010001300247T 060180230000001544772 29577051277926497   7               06042017000000000007500021000660                         0900000000000010000000000000000000000000000000000000000   000000000000000000000029000        170192957705     
0010001300248U 060000000000000000000000000000000000000000000000000000000000000000000000075000000000000072100000000000000000000000000000000404201705042017            000000000000000                              000                           
0010001300249T 060180230000001544772 29577051320628054   7               06042017000000000007500104015390                         0900000000000010000000000000000000000000000000000000000   000000000000000000000029000        170192957705     
0010001300250U 060000000000000000000000000000000000000000000000000000000000000000000000075000000000000072100000000000000000000000000000000404201705042017            000000000000000                              000                           
0010001300251T 060180230000001544772 29577051587359384   7               06042017000000000007500341086660                         0900000000000010000000000000000000000000000000000000000   000000000000000000000029000        170192957705     
0010001300252U 060000000000000000000000000000000000000000000000000000000000000000000000075000000000000072100000000000000000000000000000000404201705042017            000000000000000                              000                           
0010001300253T 090180230000001544772 29577050084335972   788888888888889904012017000000000010000001012408888888888888899          0900000000000000000000000000000000000000000000000000000   000000000000000000000010009        170192957705     
0010001300254U 090000000000000000000000000000000000000000000000000000000000000000000000000000000000000000000000000000000000000000000000000404201700000000            000000000000000                              000                           
0010001300255T 090180230000001544772 29577050120718633   788888888888889904012017000000000007500001000833888888888888899          0900000000000000000000000000000000000000000000000000000   000000000000000000000010009        170192957705     
0010001300256U 090000000000000000000000000000000000000000000000000000000000000000000000000000000000000000000000000000000000000000000000000404201700000000            000000000000000                              000                           
0010001300257T 090180230000001544772 29577050120744926   788888888888889904012017000000000007500001000833888888888888899          0900000000000000000000000000000000000000000000000000000   000000000000000000000010009        170192957705     
0010001300258U 090000000000000000000000000000000000000000000000000000000000000000000000000000000000000000000000000000000000000000000000000404201700000000            000000000000000                              000                           
0010001300259T 090180230000001544772 29577050120746635   788888888888889904012017000000000007500001000833888888888888899          0900000000000000000000000000000000000000000000000000000   000000000000000000000010009        170192957705     
0010001300260U 090000000000000000000000000000000000000000000000000000000000000000000000000000000000000000000000000000000000000000000000000404201700000000            000000000000000                              000                           
0010001300261T 090180230000001544772 29577050121136899   78888888888888990401201700000000000750000103049X888888888888899          0900000000000000000000000000000000000000000000000000000   000000000000000000000010009        170192957705     
0010001300262U 090000000000000000000000000000000000000000000000000000000000000000000000000000000000000000000000000000000000000000000000000404201700000000            000000000000000                              000                           
0010001300263T 090180230000001544772 29577050121153523   78888888888888990401201700000000000750000103049X888888888888899          0900000000000000000000000000000000000000000000000000000   000000000000000000000010009        170192957705     
0010001300264U 090000000000000000000000000000000000000000000000000000000000000000000000000000000000000000000000000000000000000000000000000404201700000000            000000000000000                              000                           
0010001300265T 090180230000001544772 29577050121436068   788888888888889904012017000000000007500001010561888888888888899          0900000000000000000000000000000000000000000000000000000   000000000000000000000010009        170192957705     
0010001300266U 090000000000000000000000000000000000000000000000000000000000000000000000000000000000000000000000000000000000000000000000000404201700000000            000000000000000                              000                           
0010001300267T 090180230000001544772 29577050121654271   788888888888889904012017000000000007500001012416888888888888899          0900000000000000000000000000000000000000000000000000000   000000000000000000000010009        170192957705     
0010001300268U 090000000000000000000000000000000000000000000000000000000000000000000000000000000000000000000000000000000000000000000000000404201700000000            000000000000000                              000                           
0010001300269T 090180230000001544772 29577050121723700   788888888888889904012017000000000007500001000213888888888888899          0900000000000000000000000000000000000000000000000000000   000000000000000000000010009        170192957705     
0010001300270U 090000000000000000000000000000000000000000000000000000000000000000000000000000000000000000000000000000000000000000000000000404201700000000            000000000000000                              000                           
0010001300271T 090180230000001544772 29577050121902723   788888888888889904012017000000000007500001012408888888888888899          0900000000000000000000000000000000000000000000000000000   000000000000000000000010009        170192957705     
0010001300272U 090000000000000000000000000000000000000000000000000000000000000000000000000000000000000000000000000000000000000000000000000404201700000000            000000000000000                              000                           
0010001300273T 090180230000001544772 29577050122026707   788888888888889904012017000000000007500001008060888888888888899          0900000000000000000000000000000000000000000000000000000   000000000000000000000010009        170192957705     
0010001300274U 090000000000000000000000000000000000000000000000000000000000000000000000000000000000000000000000000000000000000000000000000404201700000000            000000000000000                              000                           
0010001300275T 090180230000001544772 29577050122028797   788888888888889904012017000000000007500001008060888888888888899          0900000000000000000000000000000000000000000000000000000   000000000000000000000010009        170192957705     
0010001300276U 090000000000000000000000000000000000000000000000000000000000000000000000000000000000000000000000000000000000000000000000000404201700000000            000000000000000                              000                           
0010001300277T 090180230000001544772 29577050122258066   788888888888889904012017000000000007500001012416888888888888899          0900000000000000000000000000000000000000000000000000000   000000000000000000000010009        170192957705     
0010001300278U 090000000000000000000000000000000000000000000000000000000000000000000000000000000000000000000000000000000000000000000000000404201700000000            000000000000000                              000                           
0010001300279T 090180230000001544772 29577050122319552   788888888888889904012017000000000007500001000213888888888888899          0900000000000000000000000000000000000000000000000000000   000000000000000000000010009        170192957705     
0010001300280U 090000000000000000000000000000000000000000000000000000000000000000000000000000000000000000000000000000000000000000000000000404201700000000            000000000000000                              000                           
0010001300281T 090180230000001544772 29577050122458877   788888888888889904012017000000000010000001000213888888888888899          0900000000000000000000000000000000000000000000000000000   000000000000000000000010009        170192957705     
0010001300282U 090000000000000000000000000000000000000000000000000000000000000000000000000000000000000000000000000000000000000000000000000404201700000000            000000000000000                              000                           
0010001300283T 090180230000001544772 29577050122526308   788888888888889904012017000000000007500001012408888888888888899          0900000000000000000000000000000000000000000000000000000   000000000000000000000010009        170192957705     
0010001300284U 090000000000000000000000000000000000000000000000000000000000000000000000000000000000000000000000000000000000000000000000000404201700000000            000000000000000                              000                           
0010001300285T 090180230000001544772 29577050122527795   788888888888889904012017000000000007500001012408888888888888899          0900000000000000000000000000000000000000000000000000000   000000000000000000000010009        170192957705     
0010001300286U 090000000000000000000000000000000000000000000000000000000000000000000000000000000000000000000000000000000000000000000000000404201700000000            000000000000000                              000                           
0010001300287T 280180230000001544772 29577050079235932   788888888888889903022017000000000007500001000000888888888888899          0900000000000000000000000000000000000000000000000000000   000000000000000000000005002        170192957705     
0010001300288U 280000000000000000000000000000000000000000000000000000000000000000000000000000000000000000000000000000000000000000000000000404201700000000            000000000000000                              000                           
0010001300289T 280180230000001544772 29577050079305733   788888888888889903022017000000000007500001000000888888888888899          0900000000000000000000000000000000000000000000000000000   000000000000000000000005002        170192957705     
0010001300290U 280000000000000000000000000000000000000000000000000000000000000000000000000000000000000000000000000000000000000000000000000404201700000000            000000000000000                              000                           
0010001300291T 280180230000001544772 29577050084240676   788888888888889903022017000000000007500001000000888888888888899          0900000000000000000000000000000000000000000000000000000   000000000000000000000005002        170192957705     
0010001300292U 280000000000000000000000000000000000000000000000000000000000000000000000000000000000000000000000000000000000000000000000000404201700000000            000000000000000                              000                           
0010001300293T 280180230000001544772 29577050112427242   7               05032017000000000007500001000000                         0900000000000000000000000000000000000000000000000000000   000000000000000000000005002        170192957705     
0010001300294U 280000000000000000000000000000000000000000000000000000000000000000000000000000000000000000000000000000000000000000000000000404201700000000            000000000000000                              000                           
0010001300295T 280180230000001544772 29577050112500961   7               05032017000000000007500001000000                         0900000000000000000000000000000000000000000000000000000   000000000000000000000005002        170192957705     
0010001300296U 280000000000000000000000000000000000000000000000000000000000000000000000000000000000000000000000000000000000000000000000000404201700000000            000000000000000                              000                           
0010001300297T 280180230000001544772 29577050112606854   7               05032017000000000007500001000000                         0900000000000000000000000000000000000000000000000000000   000000000000000000000005002        170192957705     
0010001300298U 280000000000000000000000000000000000000000000000000000000000000000000000000000000000000000000000000000000000000000000000000404201700000000            000000000000000                              000                           
0010001300299T 280180230000001544772 29577050119548381   7               05032017000000000007500001000000                         0900000000000000000000000000000000000000000000000000000   000000000000000000000005002        170192957705     
0010001300300U 280000000000000000000000000000000000000000000000000000000000000000000000000000000000000000000000000000000000000000000000000404201700000000            000000000000000                              000                           
0010001300301T 280180230000001544772 29577050128036861   7               05032017000000000007500001000000                         0900000000000000000000000000000000000000000000000000000   000000000000000000000005002        170192957705     
0010001300302U 280000000000000000000000000000000000000000000000000000000000000000000000000000000000000000000000000000000000000000000000000404201700000000            000000000000000                              000                           
0010001300303T 280180230000001544772 29577050152645147   788888888888889903022017000000000007500001000000888888888888899          0900000000000000000000000000000000000000000000000000000   000000000000000000000005002        170192957705     
0010001300304U 280000000000000000000000000000000000000000000000000000000000000000000000000000000000000000000000000000000000000000000000000404201700000000            000000000000000                              000                           
0010001300305T 280180230000001544772 29577050179422133   7               05032017000000000007500001000000                         0900000000000000000000000000000000000000000000000000000   000000000000000000000005002        170192957705     
0010001300306U 280000000000000000000000000000000000000000000000000000000000000000000000000000000000000000000000000000000000000000000000000404201700000000            000000000000000                              000                           
0010001300307T 280180230000001544772 29577050181306252   788888888888889903022017000000000007500001000000888888888888899          0900000000000000000000000000000000000000000000000000000   000000000000000000000005002        170192957705     
0010001300308U 280000000000000000000000000000000000000000000000000000000000000000000000000000000000000000000000000000000000000000000000000404201700000000            000000000000000                              000                           
0010001300309T 280180230000001544772 29577050183323090   7               05032017000000000007500001000000                         0900000000000000000000000000000000000000000000000000000   000000000000000000000005002        170192957705     
0010001300310U 280000000000000000000000000000000000000000000000000000000000000000000000000000000000000000000000000000000000000000000000000404201700000000            000000000000000                              000                           
0010001300311T 280180230000001544772 29577050183326303   7               05032017000000000007500001000000                         0900000000000000000000000000000000000000000000000000000   000000000000000000000005002        170192957705     
0010001300312U 280000000000000000000000000000000000000000000000000000000000000000000000000000000000000000000000000000000000000000000000000404201700000000            000000000000000                              000                           
0010001300313T 280180230000001544772 29577050183337032   7               05032017000000000007500001000000                         0900000000000000000000000000000000000000000000000000000   000000000000000000000005002        170192957705     
0010001300314U 280000000000000000000000000000000000000000000000000000000000000000000000000000000000000000000000000000000000000000000000000404201700000000            000000000000000                              000                           
0010001300315T 280180230000001544772 29577050184837265   7               05032017000000000010000001000000                         0900000000000000000000000000000000000000000000000000000   000000000000000000000005002        170192957705     
0010001300316U 280000000000000000000000000000000000000000000000000000000000000000000000000000000000000000000000000000000000000000000000000404201700000000            000000000000000                              000                           
0010001300317T 280180230000001544772 29577050188605255   7               05032017000000000007500001000000                         0900000000000000000000000000000000000000000000000000000   000000000000000000000005002        170192957705     
0010001300318U 280000000000000000000000000000000000000000000000000000000000000000000000000000000000000000000000000000000000000000000000000404201700000000            000000000000000                              000                           
0010001300319T 280180230000001544772 29577050188628686   7               05032017000000000007500001000000                         0900000000000000000000000000000000000000000000000000000   000000000000000000000005002        170192957705     
0010001300320U 280000000000000000000000000000000000000000000000000000000000000000000000000000000000000000000000000000000000000000000000000404201700000000            000000000000000                              000                           
0010001300321T 280180230000001544772 29577050188632659   7               05032017000000000007500001000000                         0900000000000000000000000000000000000000000000000000000   000000000000000000000005002        170192957705     
0010001300322U 280000000000000000000000000000000000000000000000000000000000000000000000000000000000000000000000000000000000000000000000000404201700000000            000000000000000                              000                           
0010001300323T 280180230000001544772 29577050188633029   7               05032017000000000007500001000000                         0900000000000000000000000000000000000000000000000000000   000000000000000000000005002        170192957705     
0010001300324U 280000000000000000000000000000000000000000000000000000000000000000000000000000000000000000000000000000000000000000000000000404201700000000            000000000000000                              000                           
0010001300325T 280180230000001544772 29577050190907800   788888888888889903022017000000000007500001000000888888888888899          0900000000000000000000000000000000000000000000000000000   000000000000000000000005002        170192957705     
0010001300326U 280000000000000000000000000000000000000000000000000000000000000000000000000000000000000000000000000000000000000000000000000404201700000000            000000000000000                              000                           
0010001300327T 280180230000001544772 29577050201306077   788888888888889903022017000000000007500001000000888888888888899          0900000000000000000000000000000000000000000000000000000   000000000000000000000005002        170192957705     
0010001300328U 280000000000000000000000000000000000000000000000000000000000000000000000000000000000000000000000000000000000000000000000000404201700000000            000000000000000                              000                           
0010001300329T 280180230000001544772 29577050216616907   7               05032017000000000007500001000000                         0900000000000000000000000000000000000000000000000000000   000000000000000000000005002        170192957705     
0010001300330U 280000000000000000000000000000000000000000000000000000000000000000000000000000000000000000000000000000000000000000000000000404201700000000            000000000000000                              000                           
0010001300331T 280180230000001544772 29577050221848178   788888888888889903022017000000000007500001000000888888888888899          0900000000000000000000000000000000000000000000000000000   000000000000000000000005002        170192957705     
0010001300332U 280000000000000000000000000000000000000000000000000000000000000000000000000000000000000000000000000000000000000000000000000404201700000000            000000000000000                              000                           
0010001300333T 280180230000001544772 29577050256910919   788888888888889903022017000000000007500001000000888888888888899          0900000000000000000000000000000000000000000000000000000   000000000000000000000005002        170192957705     
0010001300334U 280000000000000000000000000000000000000000000000000000000000000000000000000000000000000000000000000000000000000000000000000404201700000000            000000000000000                              000                           
0010001300335T 280180230000001544772 29577050256944283   788888888888889903022017000000000007500001000000888888888888899          0900000000000000000000000000000000000000000000000000000   000000000000000000000005002        170192957705     
0010001300336U 280000000000000000000000000000000000000000000000000000000000000000000000000000000000000000000000000000000000000000000000000404201700000000            000000000000000                              000                           
0010001300337T 280180230000001544772 29577050263040328   7               05032017000000000007500001000000                         0900000000000000000000000000000000000000000000000000000   000000000000000000000005002        170192957705     
0010001300338U 280000000000000000000000000000000000000000000000000000000000000000000000000000000000000000000000000000000000000000000000000404201700000000            000000000000000                              000                           
0010001300339T 280180230000001544772 29577050263059870   7               05032017000000000007500001000000                         0900000000000000000000000000000000000000000000000000000   000000000000000000000005002        170192957705     
0010001300340U 280000000000000000000000000000000000000000000000000000000000000000000000000000000000000000000000000000000000000000000000000404201700000000            000000000000000                              000                           
0010001300341T 280180230000001544772 29577050263953693   7               05032017000000000007500001000000                         0900000000000000000000000000000000000000000000000000000   000000000000000000000005002        170192957705     
0010001300342U 280000000000000000000000000000000000000000000000000000000000000000000000000000000000000000000000000000000000000000000000000404201700000000            000000000000000                              000                           
0010001300343T 280180230000001544772 29577050265856025   788888888888889903022017000000000007500001000000888888888888899          0900000000000000000000000000000000000000000000000000000   000000000000000000000005002        170192957705     
0010001300344U 280000000000000000000000000000000000000000000000000000000000000000000000000000000000000000000000000000000000000000000000000404201700000000            000000000000000                              000                           
0010001300345T 280180230000001544772 29577050266612669   7               05032017000000000007500001000000                         0900000000000000000000000000000000000000000000000000000   000000000000000000000005002        170192957705     
0010001300346U 280000000000000000000000000000000000000000000000000000000000000000000000000000000000000000000000000000000000000000000000000404201700000000            000000000000000                              000                           
0010001300347T 280180230000001544772 29577050269813992   788888888888889903022017000000000007500001000000888888888888899          0900000000000000000000000000000000000000000000000000000   000000000000000000000005002        170192957705     
0010001300348U 280000000000000000000000000000000000000000000000000000000000000000000000000000000000000000000000000000000000000000000000000404201700000000            000000000000000                              000                           
0010001300349T 280180230000001544772 29577050290120287   7               05032017000000000007500001000000                         0900000000000000000000000000000000000000000000000000000   000000000000000000000005002        170192957705     
0010001300350U 280000000000000000000000000000000000000000000000000000000000000000000000000000000000000000000000000000000000000000000000000404201700000000            000000000000000                              000                           
0010001300351T 280180230000001544772 29577050336754471   788888888888889903022017000000000007500001000000888888888888899          0900000000000000000000000000000000000000000000000000000   000000000000000000000005002        170192957705     
0010001300352U 280000000000000000000000000000000000000000000000000000000000000000000000000000000000000000000000000000000000000000000000000404201700000000            000000000000000                              000                           
0010001300353T 280180230000001544772 29577050361340463   788888888888889903022017000000000010000001000000888888888888899          0900000000000000000000000000000000000000000000000000000   000000000000000000000005002        170192957705     
0010001300354U 280000000000000000000000000000000000000000000000000000000000000000000000000000000000000000000000000000000000000000000000000404201700000000            000000000000000                              000                           
0010001300355T 280180230000001544772 29577050368853138   788888888888889903022017000000000007500001000000888888888888899          0900000000000000000000000000000000000000000000000000000   000000000000000000000005002        170192957705     
0010001300356U 280000000000000000000000000000000000000000000000000000000000000000000000000000000000000000000000000000000000000000000000000404201700000000            000000000000000                              000                           
0010001300357T 280180230000001544772 29577050369940028   788888888888889903022017000000000007500001000000888888888888899          0900000000000000000000000000000000000000000000000000000   000000000000000000000005002        170192957705     
0010001300358U 280000000000000000000000000000000000000000000000000000000000000000000000000000000000000000000000000000000000000000000000000404201700000000            000000000000000                              000                           
0010001300359T 280180230000001544772 29577050370122257   788888888888889903022017000000000007500001000000888888888888899          0900000000000000000000000000000000000000000000000000000   000000000000000000000005002        170192957705     
0010001300360U 280000000000000000000000000000000000000000000000000000000000000000000000000000000000000000000000000000000000000000000000000404201700000000            000000000000000                              000                           
0010001300361T 280180230000001544772 29577050370538286   788888888888889903022017000000000007500001000000888888888888899          0900000000000000000000000000000000000000000000000000000   000000000000000000000005002        170192957705     
0010001300362U 280000000000000000000000000000000000000000000000000000000000000000000000000000000000000000000000000000000000000000000000000404201700000000            000000000000000                              000                           
0010001300363T 280180230000001544772 29577050370839633   788888888888889903022017000000000007500001000000888888888888899          0900000000000000000000000000000000000000000000000000000   000000000000000000000005002        170192957705     
0010001300364U 280000000000000000000000000000000000000000000000000000000000000000000000000000000000000000000000000000000000000000000000000404201700000000            000000000000000                              000                           
0010001300365T 280180230000001544772 29577050370926163   788888888888889903022017000000000007500001000000888888888888899          0900000000000000000000000000000000000000000000000000000   000000000000000000000005002        170192957705     
0010001300366U 280000000000000000000000000000000000000000000000000000000000000000000000000000000000000000000000000000000000000000000000000404201700000000            000000000000000                              000                           
0010001300367T 280180230000001544772 29577050371141953   788888888888889903022017000000000007500001000000888888888888899          0900000000000000000000000000000000000000000000000000000   000000000000000000000005002        170192957705     
0010001300368U 280000000000000000000000000000000000000000000000000000000000000000000000000000000000000000000000000000000000000000000000000404201700000000            000000000000000                              000                           
0010001300369T 280180230000001544772 29577050371150959   788888888888889903022017000000000007500001000000888888888888899          0900000000000000000000000000000000000000000000000000000   000000000000000000000005002        170192957705     
0010001300370U 280000000000000000000000000000000000000000000000000000000000000000000000000000000000000000000000000000000000000000000000000404201700000000            000000000000000                              000                           
0010001300371T 280180230000001544772 29577050371319225   788888888888889903022017000000000007500001000000888888888888899          0900000000000000000000000000000000000000000000000000000   000000000000000000000005002        170192957705     
0010001300372U 280000000000000000000000000000000000000000000000000000000000000000000000000000000000000000000000000000000000000000000000000404201700000000            000000000000000                              000                           
0010001300373T 280180230000001544772 29577050371605348   788888888888889903022017000000000007500001000000888888888888899          0900000000000000000000000000000000000000000000000000000   000000000000000000000005002        170192957705     
0010001300374U 280000000000000000000000000000000000000000000000000000000000000000000000000000000000000000000000000000000000000000000000000404201700000000            000000000000000                              000                           
0010001300375T 280180230000001544772 29577050371710692   788888888888889903022017000000000007500001000000888888888888899          0900000000000000000000000000000000000000000000000000000   000000000000000000000005002        170192957705     
0010001300376U 280000000000000000000000000000000000000000000000000000000000000000000000000000000000000000000000000000000000000000000000000404201700000000            000000000000000                              000                           
0010001300377T 280180230000001544772 29577050371822563   788888888888889903022017000000000007500001000000888888888888899          0900000000000000000000000000000000000000000000000000000   000000000000000000000005002        170192957705     
0010001300378U 280000000000000000000000000000000000000000000000000000000000000000000000000000000000000000000000000000000000000000000000000404201700000000            000000000000000                              000                           
0010001300379T 280180230000001544772 29577050371902928   788888888888889903022017000000000007500001000000888888888888899          0900000000000000000000000000000000000000000000000000000   000000000000000000000005002        170192957705     
0010001300380U 280000000000000000000000000000000000000000000000000000000000000000000000000000000000000000000000000000000000000000000000000404201700000000            000000000000000                              000                           
0010001300381T 280180230000001544772 29577050372007990   7               05032017000000000007500001000000                         0900000000000000000000000000000000000000000000000000000   000000000000000000000005002        170192957705     
0010001300382U 280000000000000000000000000000000000000000000000000000000000000000000000000000000000000000000000000000000000000000000000000404201700000000            000000000000000                              000                           
0010001300383T 280180230000001544772 29577050372100843   788888888888889903022017000000000007500001000000888888888888899          0900000000000000000000000000000000000000000000000000000   000000000000000000000005002        170192957705     
0010001300384U 280000000000000000000000000000000000000000000000000000000000000000000000000000000000000000000000000000000000000000000000000404201700000000            000000000000000                              000                           
0010001300385T 280180230000001544772 29577050372218029   788888888888889903022017000000000007500001000000888888888888899          0900000000000000000000000000000000000000000000000000000   000000000000000000000005002        170192957705     
0010001300386U 280000000000000000000000000000000000000000000000000000000000000000000000000000000000000000000000000000000000000000000000000404201700000000            000000000000000                              000                           
0010001300387T 280180230000001544772 29577050372348648   788888888888889903022017000000000007500001000000888888888888899          0900000000000000000000000000000000000000000000000000000   000000000000000000000005002        170192957705     
0010001300388U 280000000000000000000000000000000000000000000000000000000000000000000000000000000000000000000000000000000000000000000000000404201700000000            000000000000000                              000                           
0010001300389T 280180230000001544772 29577050372940968   788888888888889903022017000000000010000001000000888888888888899          0900000000000000000000000000000000000000000000000000000   000000000000000000000005002        170192957705     
0010001300390U 280000000000000000000000000000000000000000000000000000000000000000000000000000000000000000000000000000000000000000000000000404201700000000            000000000000000                              000                           
0010001300391T 280180230000001544772 29577050373044012   788888888888889903022017000000000007500001000000888888888888899          0900000000000000000000000000000000000000000000000000000   000000000000000000000005002        170192957705     
0010001300392U 280000000000000000000000000000000000000000000000000000000000000000000000000000000000000000000000000000000000000000000000000404201700000000            000000000000000                              000                           
0010001300393T 280180230000001544772 29577050373128087   788888888888889903022017000000000007500001000000888888888888899          0900000000000000000000000000000000000000000000000000000   000000000000000000000005002        170192957705     
0010001300394U 280000000000000000000000000000000000000000000000000000000000000000000000000000000000000000000000000000000000000000000000000404201700000000            000000000000000                              000                           
0010001300395T 280180230000001544772 29577050373236172   788888888888889903022017000000000007500001000000888888888888899          0900000000000000000000000000000000000000000000000000000   000000000000000000000005002        170192957705     
0010001300396U 280000000000000000000000000000000000000000000000000000000000000000000000000000000000000000000000000000000000000000000000000404201700000000            000000000000000                              000                           
0010001300397T 280180230000001544772 29577050373307992   788888888888889903022017000000000007500001000000888888888888899          0900000000000000000000000000000000000000000000000000000   000000000000000000000005002        170192957705     
0010001300398U 280000000000000000000000000000000000000000000000000000000000000000000000000000000000000000000000000000000000000000000000000404201700000000            000000000000000                              000                           
0010001300399T 280180230000001544772 29577050373550708   788888888888889903022017000000000007500001000000888888888888899          0900000000000000000000000000000000000000000000000000000   000000000000000000000005002        170192957705     
0010001300400U 280000000000000000000000000000000000000000000000000000000000000000000000000000000000000000000000000000000000000000000000000404201700000000            000000000000000                              000                           
0010001300401T 280180230000001544772 29577050373720163   788888888888889903022017000000000007500001000000888888888888899          0900000000000000000000000000000000000000000000000000000   000000000000000000000005002        170192957705     
0010001300402U 280000000000000000000000000000000000000000000000000000000000000000000000000000000000000000000000000000000000000000000000000404201700000000            000000000000000                              000                           
0010001300403T 280180230000001544772 29577050374015463   788888888888889903022017000000000007500001000000888888888888899          0900000000000000000000000000000000000000000000000000000   000000000000000000000005002        170192957705     
0010001300404U 280000000000000000000000000000000000000000000000000000000000000000000000000000000000000000000000000000000000000000000000000404201700000000            000000000000000                              000                           
0010001300405T 280180230000001544772 29577050374042470   788888888888889903022017000000000007500001000000888888888888899          0900000000000000000000000000000000000000000000000000000   000000000000000000000005002        170192957705     
0010001300406U 280000000000000000000000000000000000000000000000000000000000000000000000000000000000000000000000000000000000000000000000000404201700000000            000000000000000                              000                           
0010001300407T 280180230000001544772 29577050374244441   788888888888889903022017000000000007500001000000888888888888899          0900000000000000000000000000000000000000000000000000000   000000000000000000000005002        170192957705     
0010001300408U 280000000000000000000000000000000000000000000000000000000000000000000000000000000000000000000000000000000000000000000000000404201700000000            000000000000000                              000                           
0010001300409T 280180230000001544772 29577050374353113   788888888888889903022017000000000007500001000000888888888888899          0900000000000000000000000000000000000000000000000000000   000000000000000000000005002        170192957705     
0010001300410U 280000000000000000000000000000000000000000000000000000000000000000000000000000000000000000000000000000000000000000000000000404201700000000            000000000000000                              000                           
0010001300411T 280180230000001544772 29577050374429819   788888888888889903022017000000000007500001000000888888888888899          0900000000000000000000000000000000000000000000000000000   000000000000000000000005002        170192957705     
0010001300412U 280000000000000000000000000000000000000000000000000000000000000000000000000000000000000000000000000000000000000000000000000404201700000000            000000000000000                              000                           
