00100000         2247745860001000029577050014       0180230000001544772 INSTITUTO DE SELECAO E TECNOLOBANCO DO BRASIL                         20604201701424100016403000000515122941PROCESSAMEN                                                 
00100011T0100020 20247745860001000029577050014       0180230000001544772 INSTITUTO DE SELECAO E TECNOLO                                                                                000000000604201700000000  000000000                      
0010001300001T 020180230000001544772 29577050008527682   7               08042017000000000007500001012408                         0900000000000010000000000000000000000000000000000000000   0000000000000000000000000A9        170192957705     
0010001300002U 020000000000000000000000000000000000000000000000000000000000000000000000000000000000000000000000000000000000000000000000000604201700000000            000000000000000                              000                           
0010001300003T 020180230000001544772 29577050008854293   7               08042017000000000010000001000213                         0900000000000010000000000000000000000000000000000000000   0000000000000000000000000A9        170192957705     
0010001300004U 020000000000000000000000000000000000000000000000000000000000000000000000000000000000000000000000000000000000000000000000000604201700000000            000000000000000                              000                           
0010001300005T 020180230000001544772 29577050017413995   7               08042017000000000007500001009245                         0900000000000010000000000000000000000000000000000000000   0000000000000000000000000A9        170192957705     
0010001300006U 020000000000000000000000000000000000000000000000000000000000000000000000000000000000000000000000000000000000000000000000000604201700000000            000000000000000                              000                           
0010001300007T 020180230000001544772 29577050023432826   7               08042017000000000007500001012408                         0900000000000010000000000000000000000000000000000000000   0000000000000000000000000A9        170192957705     
0010001300008U 020000000000000000000000000000000000000000000000000000000000000000000000000000000000000000000000000000000000000000000000000604201700000000            000000000000000                              000                           
0010001300009T 020180230000001544772 29577050080857645   7               07042017000000000007500001004782                         0900000000000010000000000000000000000000000000000000000   0000000000000000000000000A9        170192957705     
0010001300010U 020000000000000000000000000000000000000000000000000000000000000000000000000000000000000000000000000000000000000000000000000504201700000000            000000000000000                              000                           
0010001300011T 020180230000001544772 29577050112414892   7               0804201700000000000750000103049X                         0900000000000010500000000000000000000000000000000000000   0000000000000000000000000A9A4      170192957705     
0010001300012U 020000000000000000000000000000000000000000000000000000000000000000000000000000000000000000000000000000000000000000000000000604201700000000            000000000000000                              000                           
0010001300013T 020180230000001544772 29577050162953569   7               08042017000000000007500001012408                         0900000000000010000000000000000000000000000000000000000   0000000000000000000000000A9        170192957705     
0010001300014U 020000000000000000000000000000000000000000000000000000000000000000000000000000000000000000000000000000000000000000000000000604201700000000            000000000000000                              000                           
0010001300015T 020180230000001544772 29577050202027510   7               08042017000000000007500001000213                         0900000000000010000000000000000000000000000000000000000   0000000000000000000000000A9        170192957705     
0010001300016U 020000000000000000000000000000000000000000000000000000000000000000000000000000000000000000000000000000000000000000000000000604201700000000            000000000000000                              000                           
0010001300017T 020180230000001544772 29577050216602140   7               0804201700000000000750000103049X                         0900000000000010000000000000000000000000000000000000000   0000000000000000000000000A9        170192957705     
0010001300018U 020000000000000000000000000000000000000000000000000000000000000000000000000000000000000000000000000000000000000000000000000604201700000000            000000000000000                              000                           
0010001300019T 020180230000001544772 29577050241312213   7               07042017000000000007500001000833                         0900000000000010000000000000000000000000000000000000000   0000000000000000000000000A9        170192957705     
0010001300020U 020000000000000000000000000000000000000000000000000000000000000000000000000000000000000000000000000000000000000000000000000504201700000000            000000000000000                              000                           
0010001300021T 020180230000001544772 29577050255701877   7               0804201700000000000750000104590X                         0900000000000010000000000000000000000000000000000000000   0000000000000000000000000A9        170192957705     
0010001300022U 020000000000000000000000000000000000000000000000000000000000000000000000000000000000000000000000000000000000000000000000000604201700000000            000000000000000                              000                           
0010001300023T 020180230000001544772 29577050259850187   7               0804201700000000000750000103049X                         0900000000000010000000000000000000000000000000000000000   0000000000000000000000000A9        170192957705     
0010001300024U 020000000000000000000000000000000000000000000000000000000000000000000000000000000000000000000000000000000000000000000000000604201700000000            000000000000000                              000                           
0010001300025T 020180230000001544772 29577050260230447   7               08042017000000000007500001009245                         0900000000000010000000000000000000000000000000000000000   0000000000000000000000000A9        170192957705     
0010001300026U 020000000000000000000000000000000000000000000000000000000000000000000000000000000000000000000000000000000000000000000000000604201700000000            000000000000000                              000                           
0010001300027T 020180230000001544772 29577050260807739   7               08042017000000000007500001000213                         0900000000000010000000000000000000000000000000000000000   0000000000000000000000000A9        170192957705     
0010001300028U 020000000000000000000000000000000000000000000000000000000000000000000000000000000000000000000000000000000000000000000000000604201700000000            000000000000000                              000                           
0010001300029T 020180230000001544772 29577050404700539   7               0804201700000000000750000103049X                         0900000000000010000000000000000000000000000000000000000   0000000000000000000000000A9        170192957705     
0010001300030U 020000000000000000000000000000000000000000000000000000000000000000000000000000000000000000000000000000000000000000000000000604201700000000            000000000000000                              000                           
0010001300031T 020180230000001544772 29577050772017400   7               08042017000000000007500001000213                         0900000000000010000000000000000000000000000000000000000   0000000000000000000000000A9        170192957705     
0010001300032U 020000000000000000000000000000000000000000000000000000000000000000000000000000000000000000000000000000000000000000000000000604201700000000            000000000000000                              000                           
0010001300033T 020180230000001544772 29577050780517998   7               08042017000000000007500001046744                         0900000000000010000000000000000000000000000000000000000   0000000000000000000000000A9        170192957705     
0010001300034U 020000000000000000000000000000000000000000000000000000000000000000000000000000000000000000000000000000000000000000000000000604201700000000            000000000000000                              000                           
0010001300035T 020180230000001544772 29577050780539094   7               08042017000000000007500001046744                         0900000000000010000000000000000000000000000000000000000   0000000000000000000000000A9        170192957705     
0010001300036U 020000000000000000000000000000000000000000000000000000000000000000000000000000000000000000000000000000000000000000000000000604201700000000            000000000000000                              000                           
0010001300037T 020180230000001544772 29577050796538953   7               0804201700000000000750000100829X                         0900000000000010000000000000000000000000000000000000000   0000000000000000000000000A9        170192957705     
0010001300038U 020000000000000000000000000000000000000000000000000000000000000000000000000000000000000000000000000000000000000000000000000604201700000000            000000000000000                              000                           
0010001300039T 020180230000001544772 29577051201241905   7               08042017000000000007500001000213                         0900000000000010000000000000000000000000000000000000000   0000000000000000000000000A9        170192957705     
0010001300040U 020000000000000000000000000000000000000000000000000000000000000000000000000000000000000000000000000000000000000000000000000604201700000000            000000000000000                              000                           
0010001300041T 020180230000001544772 29577051282047063   7               08042017000000000007500001000213                         0900000000000010000000000000000000000000000000000000000   0000000000000000000000000A9        170192957705     
0010001300042U 020000000000000000000000000000000000000000000000000000000000000000000000000000000000000000000000000000000000000000000000000604201700000000            000000000000000                              000                           
0010001300043T 020180230000001544772 29577051602903070   7               08042017000000000007500001046280                         0900000000000010500000000000000000000000000000000000000   0000000000000000000000000A9A4      170192957705     
0010001300044U 020000000000000000000000000000000000000000000000000000000000000000000000000000000000000000000000000000000000000000000000000604201700000000            000000000000000                              000                           
0010001300045T 020180230000001544772 29577051623036636   7               08042017000000000007500001000213                         0900000000000010000000000000000000000000000000000000000   0000000000000000000000000A9        170192957705     
0010001300046U 020000000000000000000000000000000000000000000000000000000000000000000000000000000000000000000000000000000000000000000000000604201700000000            000000000000000                              000                           
0010001300047T 020180230000001544772 29577051630358377   7               08042017000000000007500001012416                         0900000000000010000000000000000000000000000000000000000   0000000000000000000000000A9        170192957705     
0010001300048U 020000000000000000000000000000000000000000000000000000000000000000000000000000000000000000000000000000000000000000000000000604201700000000            000000000000000                              000                           
0010001300049T 020180230000001544772 29577051630553315   7               08042017000000000007500001000213                         0900000000000010000000000000000000000000000000000000000   0000000000000000000000000A9        170192957705     
0010001300050U 020000000000000000000000000000000000000000000000000000000000000000000000000000000000000000000000000000000000000000000000000604201700000000            000000000000000                              000                           
0010001300051T 020180230000001544772 29577051630901899   7               0804201700000000000750000103049X                         0900000000000010500000000000000000000000000000000000000   0000000000000000000000000A9A4      170192957705     
0010001300052U 020000000000000000000000000000000000000000000000000000000000000000000000000000000000000000000000000000000000000000000000000604201700000000            000000000000000                              000                           
0010001300053T 020180230000001544772 29577051631755440   7               08042017000000000007500001012416                         0900000000000010000000000000000000000000000000000000000   0000000000000000000000000A9        170192957705     
0010001300054U 020000000000000000000000000000000000000000000000000000000000000000000000000000000000000000000000000000000000000000000000000604201700000000            000000000000000                              000                           
0010001300055T 020180230000001544772 29577051631756765   7               08042017000000000007500001012416                         0900000000000010000000000000000000000000000000000000000   0000000000000000000000000A9        170192957705     
0010001300056U 020000000000000000000000000000000000000000000000000000000000000000000000000000000000000000000000000000000000000000000000000604201700000000            000000000000000                              000                           
0010001300057T 020180230000001544772 29577051632352291   7               08042017000000000007500001000205                         0900000000000010000000000000000000000000000000000000000   0000000000000000000000000A9        170192957705     
0010001300058U 020000000000000000000000000000000000000000000000000000000000000000000000000000000000000000000000000000000000000000000000000604201700000000            000000000000000                              000                           
0010001300059T 020180230000001544772 29577051633048988   7               08042017000000000007500001000213                         0900000000000010000000000000000000000000000000000000000   0000000000000000000000000A9        170192957705     
0010001300060U 020000000000000000000000000000000000000000000000000000000000000000000000000000000000000000000000000000000000000000000000000604201700000000            000000000000000                              000                           
0010001300061T 020180230000001544772 29577051634032595   7               08042017000000000007500001001120                         0900000000000010000000000000000000000000000000000000000   0000000000000000000000000A9        170192957705     
0010001300062U 020000000000000000000000000000000000000000000000000000000000000000000000000000000000000000000000000000000000000000000000000604201700000000            000000000000000                              000                           
0010001300063T 020180230000001544772 29577051634158807   7               0804201700000000000750000100099X                         0900000000000010500000000000000000000000000000000000000   0000000000000000000000000A9A4      170192957705     
0010001300064U 020000000000000000000000000000000000000000000000000000000000000000000000000000000000000000000000000000000000000000000000000604201700000000            000000000000000                              000                           
0010001300065T 020180230000001544772 29577051634321870   7               08042017000000000007500001012408                         0900000000000010000000000000000000000000000000000000000   0000000000000000000000000A9        170192957705     
0010001300066U 020000000000000000000000000000000000000000000000000000000000000000000000000000000000000000000000000000000000000000000000000604201700000000            000000000000000                              000                           
0010001300067T 020180230000001544772 29577051635216918   7               08042017000000000007500001012416                         0900000000000010500000000000000000000000000000000000000   0000000000000000000000000A9A4      170192957705     
0010001300068U 020000000000000000000000000000000000000000000000000000000000000000000000000000000000000000000000000000000000000000000000000604201700000000            000000000000000                              000                           
0010001300069T 020180230000001544772 29577051635500219   7               08042017000000000007500001003948                         0900000000000010000000000000000000000000000000000000000   0000000000000000000000000A9        170192957705     
0010001300070U 020000000000000000000000000000000000000000000000000000000000000000000000000000000000000000000000000000000000000000000000000604201700000000            000000000000000                              000                           
0010001300071T 020180230000001544772 29577051635524355   7               08042017000000000007500001003948                         0900000000000010000000000000000000000000000000000000000   0000000000000000000000000A9        170192957705     
0010001300072U 020000000000000000000000000000000000000000000000000000000000000000000000000000000000000000000000000000000000000000000000000604201700000000            000000000000000                              000                           
0010001300073T 020180230000001544772 29577051639203030   7               08042017000000000007500001012408                         0900000000000010000000000000000000000000000000000000000   0000000000000000000000000A9        170192957705     
0010001300074U 020000000000000000000000000000000000000000000000000000000000000000000000000000000000000000000000000000000000000000000000000604201700000000            000000000000000                              000                           
0010001300075T 020180230000001544772 29577051639535369   7               08042017000000000007500001000213                         0900000000000010000000000000000000000000000000000000000   0000000000000000000000000A9        170192957705     
0010001300076U 020000000000000000000000000000000000000000000000000000000000000000000000000000000000000000000000000000000000000000000000000604201700000000            000000000000000                              000                           
0010001300077T 020180230000001544772 29577051639851608   7               08042017000000000007500001012408                         0900000000000010000000000000000000000000000000000000000   0000000000000000000000000A9        170192957705     
0010001300078U 020000000000000000000000000000000000000000000000000000000000000000000000000000000000000000000000000000000000000000000000000604201700000000            000000000000000                              000                           
0010001300079T 020180230000001544772 29577051641433815   7               0804201700000000000750000103049X                         0900000000000010000000000000000000000000000000000000000   0000000000000000000000000A9        170192957705     
0010001300080U 020000000000000000000000000000000000000000000000000000000000000000000000000000000000000000000000000000000000000000000000000604201700000000            000000000000000                              000                           
0010001300081T 020180230000001544772 29577051641625539   7               08042017000000000007500001000833                         0900000000000010000000000000000000000000000000000000000   0000000000000000000000000A9        170192957705     
0010001300082U 020000000000000000000000000000000000000000000000000000000000000000000000000000000000000000000000000000000000000000000000000604201700000000            000000000000000                              000                           
0010001300083T 020180230000001544772 29577051642347079   7               08042017000000000007500001012416                         0900000000000010000000000000000000000000000000000000000   0000000000000000000000000A9        170192957705     
0010001300084U 020000000000000000000000000000000000000000000000000000000000000000000000000000000000000000000000000000000000000000000000000604201700000000            000000000000000                              000                           
0010001300085T 020180230000001544772 29577051644551496   7               08042017000000000007500001032077                         0900000000000010000000000000000000000000000000000000000   0000000000000000000000000A9        170192957705     
0010001300086U 020000000000000000000000000000000000000000000000000000000000000000000000000000000000000000000000000000000000000000000000000604201700000000            000000000000000                              000                           
0010001300087T 020180230000001544772 29577051646158210   7               08042017000000000007500001012408                         0900000000000010000000000000000000000000000000000000000   0000000000000000000000000A9        170192957705     
0010001300088U 020000000000000000000000000000000000000000000000000000000000000000000000000000000000000000000000000000000000000000000000000604201700000000            000000000000000                              000                           
0010001300089T 020180230000001544772 29577051646158899   7               08042017000000000007500001012408                         0900000000000010000000000000000000000000000000000000000   0000000000000000000000000A9        170192957705     
0010001300090U 020000000000000000000000000000000000000000000000000000000000000000000000000000000000000000000000000000000000000000000000000604201700000000            000000000000000                              000                           
0010001300091T 020180230000001544772 29577051646335350   7               08042017000000000007500001012408                         0900000000000010000000000000000000000000000000000000000   0000000000000000000000000A9        170192957705     
0010001300092U 020000000000000000000000000000000000000000000000000000000000000000000000000000000000000000000000000000000000000000000000000604201700000000            000000000000000                              000                           
0010001300093T 020180230000001544772 29577051647946794   7               08042017000000000007500001030864                         0900000000000010500000000000000000000000000000000000000   0000000000000000000000000A9A4      170192957705     
0010001300094U 020000000000000000000000000000000000000000000000000000000000000000000000000000000000000000000000000000000000000000000000000604201700000000            000000000000000                              000                           
0010001300095T 020180230000001544772 29577051648515421   7               08042017000000000007500001000213                         0900000000000010000000000000000000000000000000000000000   0000000000000000000000000A9        170192957705     
0010001300096U 020000000000000000000000000000000000000000000000000000000000000000000000000000000000000000000000000000000000000000000000000604201700000000            000000000000000                              000                           
0010001300097T 060180230000001544772 29577050008541903   7               06042017000000000007500033007730                         0900000000000010000000000000000000000000000000000000000   000000000000000000000029000        170192957705     
0010001300098U 060000000000000000000000000000000000000000000000000000000000000000000000075000000000000072100000000000000000000000000000000604201707042017            000000000000000                              000                           
0010001300099T 060180230000001544772 29577050017413995   7               08042017000000000007500033033460                         0900000000000010000000000000000000000000000000000000000   000000000000000000000029000        170192957705     
0010001300100U 060000000000000000000000000000000000000000000000000000000000000000000000075000000000000072100000000000000000000000000000000604201707042017            000000000000000                              000                           
0010001300101T 060180230000001544772 29577050155255238   7               06042017000000000007500104031390                         0900000000000010000000000000000000000000000000000000000   000000000000000000000029000        170192957705     
0010001300102U 060000000000000000000000000000000000000000000000000000000000000000000000075000000000000072100000000000000000000000000000000604201707042017            000000000000000                              000                           
0010001300103T 060180230000001544772 29577050259850187   7               08042017000000000007500021000660                         0900000000000010000000000000000000000000000000000000000   000000000000000000000029000        170192957705     
0010001300104U 060000000000000000000000000000000000000000000000000000000000000000000000075000000000000072100000000000000000000000000000000604201707042017            000000000000000                              000                           
0010001300105T 060180230000001544772 29577051157444641   7               07042017000000000007500021001000                         0900000000000010000000000000000000000000000000000000000   000000000000000000000029000        170192957705     
0010001300106U 060000000000000000000000000000000000000000000000000000000000000000000000075000000000000072100000000000000000000000000000000604201707042017            000000000000000                              000                           
0010001300107T 060180230000001544772 29577051201241905   7               08042017000000000007500033022880                         0900000000000010000000000000000000000000000000000000000   000000000000000000000029000        170192957705     
0010001300108U 060000000000000000000000000000000000000000000000000000000000000000000000075000000000000072100000000000000000000000000000000604201707042017            000000000000000                              000                           
0010001300109T 060180230000001544772 29577051240552937   7               06042017000000000007500104010340                         0900000000000010000000000000000000000000000000000000000   000000000000000000000029000        170192957705     
0010001300110U 060000000000000000000000000000000000000000000000000000000000000000000000075000000000000072100000000000000000000000000000000604201707042017            000000000000000                              000                           
0010001300111T 060180230000001544772 29577051282047063   7               08042017000000000007500021000820                         0900000000000010000000000000000000000000000000000000000   000000000000000000000029000        170192957705     
0010001300112U 060000000000000000000000000000000000000000000000000000000000000000000000075000000000000072100000000000000000000000000000000604201707042017            000000000000000                              000                           
0010001300113T 060180230000001544772 29577051576824546   7               07042017000000000007500021002740                         0900000000000010000000000000000000000000000000000000000   000000000000000000000029000        170192957705     
0010001300114U 060000000000000000000000000000000000000000000000000000000000000000000000075000000000000072100000000000000000000000000000000604201707042017            000000000000000                              000                           
0010001300115T 060180230000001544772 29577051577339946   7               06042017000000000007500237023130                         0900000000000010000000000000000000000000000000000000000   000000000000000000000029000        170192957705     
0010001300116U 060000000000000000000000000000000000000000000000000000000000000000000000075000000000000072100000000000000000000000000000000604201707042017            000000000000000                              000                           
0010001300117T 060180230000001544772 29577051578322774   7               06042017000000000007500001031305                         0900000000000010000000000000000000000000000000000000000   000000000000000000000029000        170192957705     
0010001300118U 060000000000000000000000000000000000000000000000000000000000000000000000075000000000000072100000000000000000000000000000000604201707042017            000000000000000                              000                           
0010001300119T 060180230000001544772 29577051579526562   7               06042017000000000007500104010340                         0900000000000010000000000000000000000000000000000000000   000000000000000000000029000        170192957705     
0010001300120U 060000000000000000000000000000000000000000000000000000000000000000000000075000000000000072100000000000000000000000000000000604201707042017            000000000000000                              000                           
0010001300121T 060180230000001544772 29577051586000999   7               06042017000000000007500021000590                         0900000000000010000000000000000000000000000000000000000   000000000000000000000029000        170192957705     
0010001300122U 060000000000000000000000000000000000000000000000000000000000000000000000075000000000000072100000000000000000000000000000000604201707042017            000000000000000                              000                           
0010001300123T 060180230000001544772 29577051592110579   7               06042017000000000007500021001840                         0900000000000010000000000000000000000000000000000000000   000000000000000000000029000        170192957705     
0010001300124U 060000000000000000000000000000000000000000000000000000000000000000000000075000000000000072100000000000000000000000000000000604201707042017            000000000000000                              000                           
0010001300125T 060180230000001544772 29577051593809191   7               06042017000000000007500021001060                         0900000000000010000000000000000000000000000000000000000   000000000000000000000029000        170192957705     
0010001300126U 060000000000000000000000000000000000000000000000000000000000000000000000075000000000000072100000000000000000000000000000000604201707042017            000000000000000                              000                           
0010001300127T 060180230000001544772 29577051602946616   7               06042017000000000007500021002070                         0900000000000010000000000000000000000000000000000000000   000000000000000000000029000        170192957705     
0010001300128U 060000000000000000000000000000000000000000000000000000000000000000000000075000000000000072100000000000000000000000000000000604201707042017            000000000000000                              000                           
0010001300129T 060180230000001544772 29577051603226966   7               06042017000000000007500021000870                         0900000000000010000000000000000000000000000000000000000   000000000000000000000029000        170192957705     
0010001300130U 060000000000000000000000000000000000000000000000000000000000000000000000075000000000000072100000000000000000000000000000000604201707042017            000000000000000                              000                           
0010001300131T 060180230000001544772 29577051630901899   7               08042017000000000007500104020410                         0900000000000010000000000000000000000000000000000000000   000000000000000000000029000        170192957705     
0010001300132U 060000000000000000000000000000000000000000000000000000000000000000000000075000000000000072100000000000000000000000000000000604201707042017            000000000000000                              000                           
0010001300133T 090180230000001544772 29577050017435376   788888888888889906012017000000000007500001009245888888888888899          0900000000000000000000000000000000000000000000000000000   000000000000000000000010009        170192957705     
0010001300134U 090000000000000000000000000000000000000000000000000000000000000000000000000000000000000000000000000000000000000000000000000604201700000000            000000000000000                              000                           
0010001300135T 090180230000001544772 29577050020104976   788888888888889906012017000000000007500001012408888888888888899          0900000000000000000000000000000000000000000000000000000   000000000000000000000010009        170192957705     
0010001300136U 090000000000000000000000000000000000000000000000000000000000000000000000000000000000000000000000000000000000000000000000000604201700000000            000000000000000                              000                           
0010001300137T 090180230000001544772 29577050020156551   788888888888889906012017000000000007500001012408888888888888899          0900000000000000000000000000000000000000000000000000000   000000000000000000000010009        170192957705     
0010001300138U 090000000000000000000000000000000000000000000000000000000000000000000000000000000000000000000000000000000000000000000000000604201700000000            000000000000000                              000                           
0010001300139T 090180230000001544772 29577050055609533   788888888888889906012017000000000007500001012416888888888888899          0900000000000000000000000000000000000000000000000000000   000000000000000000000010009        170192957705     
0010001300140U 090000000000000000000000000000000000000000000000000000000000000000000000000000000000000000000000000000000000000000000000000604201700000000            000000000000000                              000                           
0010001300141T 090180230000001544772 29577050055644817   788888888888889906012017000000000007500001012416888888888888899          0900000000000000000000000000000000000000000000000000000   000000000000000000000010009        170192957705     
0010001300142U 090000000000000000000000000000000000000000000000000000000000000000000000000000000000000000000000000000000000000000000000000604201700000000            000000000000000                              000                           
0010001300143T 090180230000001544772 29577050059414580   788888888888889906012017000000000007500001012408888888888888899          0900000000000000000000000000000000000000000000000000000   000000000000000000000010009        170192957705     
0010001300144U 090000000000000000000000000000000000000000000000000000000000000000000000000000000000000000000000000000000000000000000000000604201700000000            000000000000000                              000                           
0010001300145T 090180230000001544772 29577050062156988   788888888888889906012017000000000007500001000833888888888888899          0900000000000000000000000000000000000000000000000000000   000000000000000000000010009        170192957705     
0010001300146U 090000000000000000000000000000000000000000000000000000000000000000000000000000000000000000000000000000000000000000000000000604201700000000            000000000000000                              000                           
0010001300147T 090180230000001544772 29577050130559428   78888888888888990601201700000000000750000103049X888888888888899          0900000000000000000000000000000000000000000000000000000   000000000000000000000010009        170192957705     
0010001300148U 090000000000000000000000000000000000000000000000000000000000000000000000000000000000000000000000000000000000000000000000000604201700000000            000000000000000                              000                           
0010001300149T 090180230000001544772 29577050145740568   788888888888889906012017000000000007500001012416888888888888899          0900000000000000000000000000000000000000000000000000000   000000000000000000000010009        170192957705     
0010001300150U 090000000000000000000000000000000000000000000000000000000000000000000000000000000000000000000000000000000000000000000000000604201700000000            000000000000000                              000                           
0010001300151T 090180230000001544772 29577050145952866   788888888888889906012017000000000007500001000213888888888888899          0900000000000000000000000000000000000000000000000000000   000000000000000000000010009        170192957705     
0010001300152U 090000000000000000000000000000000000000000000000000000000000000000000000000000000000000000000000000000000000000000000000000604201700000000            000000000000000                              000                           
0010001300153T 090180230000001544772 29577050146045849   78888888888888990601201700000000000750000103049X888888888888899          0900000000000000000000000000000000000000000000000000000   000000000000000000000010009        170192957705     
0010001300154U 090000000000000000000000000000000000000000000000000000000000000000000000000000000000000000000000000000000000000000000000000604201700000000            000000000000000                              000                           
0010001300155T 090180230000001544772 29577050146159785   788888888888889906012017000000000007500001014389888888888888899          0900000000000000000000000000000000000000000000000000000   000000000000000000000010009        170192957705     
0010001300156U 090000000000000000000000000000000000000000000000000000000000000000000000000000000000000000000000000000000000000000000000000604201700000000            000000000000000                              000                           
0010001300157T 090180230000001544772 29577050146211392   788888888888889906012017000000000007500001014389888888888888899          0900000000000000000000000000000000000000000000000000000   000000000000000000000010009        170192957705     
0010001300158U 090000000000000000000000000000000000000000000000000000000000000000000000000000000000000000000000000000000000000000000000000604201700000000            000000000000000                              000                           
0010001300159T 090180230000001544772 29577050146323859   788888888888889906012017000000000007500001000213888888888888899          0900000000000000000000000000000000000000000000000000000   000000000000000000000010009        170192957705     
0010001300160U 090000000000000000000000000000000000000000000000000000000000000000000000000000000000000000000000000000000000000000000000000604201700000000            000000000000000                              000                           
0010001300161T 090180230000001544772 29577050146446025   788888888888889906012017000000000007500001000213888888888888899          0900000000000000000000000000000000000000000000000000000   000000000000000000000010009        170192957705     
0010001300162U 090000000000000000000000000000000000000000000000000000000000000000000000000000000000000000000000000000000000000000000000000604201700000000            000000000000000                              000                           
0010001300163T 090180230000001544772 29577050146554224   78888888888888990601201700000000001000000103049X888888888888899          0900000000000000000000000000000000000000000000000000000   000000000000000000000010009        170192957705     
0010001300164U 090000000000000000000000000000000000000000000000000000000000000000000000000000000000000000000000000000000000000000000000000604201700000000            000000000000000                              000                           
0010001300165T 090180230000001544772 29577050146601273   788888888888889906012017000000000007500001000213888888888888899          0900000000000000000000000000000000000000000000000000000   000000000000000000000010009        170192957705     
0010001300166U 090000000000000000000000000000000000000000000000000000000000000000000000000000000000000000000000000000000000000000000000000604201700000000            000000000000000                              000                           
0010001300167T 090180230000001544772 29577050146729360   788888888888889906012017000000000007500001000213888888888888899          0900000000000000000000000000000000000000000000000000000   000000000000000000000010009        170192957705     
0010001300168U 090000000000000000000000000000000000000000000000000000000000000000000000000000000000000000000000000000000000000000000000000604201700000000            000000000000000                              000                           
0010001300169T 090180230000001544772 29577050146933947   788888888888889906012017000000000007500001012408888888888888899          0900000000000000000000000000000000000000000000000000000   000000000000000000000010009        170192957705     
0010001300170U 090000000000000000000000000000000000000000000000000000000000000000000000000000000000000000000000000000000000000000000000000604201700000000            000000000000000                              000                           
0010001300171T 090180230000001544772 29577050147021604   788888888888889906012017000000000007500001012408888888888888899          0900000000000000000000000000000000000000000000000000000   000000000000000000000010009        170192957705     
0010001300172U 090000000000000000000000000000000000000000000000000000000000000000000000000000000000000000000000000000000000000000000000000604201700000000            000000000000000                              000                           
0010001300173T 090180230000001544772 29577050147146981   788888888888889906012017000000000007500001000213888888888888899          0900000000000000000000000000000000000000000000000000000   000000000000000000000010009        170192957705     
0010001300174U 090000000000000000000000000000000000000000000000000000000000000000000000000000000000000000000000000000000000000000000000000604201700000000            000000000000000                              000                           
0010001300175T 090180230000001544772 29577050147218303   78888888888888990601201700000000000750000103696X888888888888899          0900000000000000000000000000000000000000000000000000000   000000000000000000000010009        170192957705     
0010001300176U 090000000000000000000000000000000000000000000000000000000000000000000000000000000000000000000000000000000000000000000000000604201700000000            000000000000000                              000                           
0010001300177T 090180230000001544772 29577050147317951   788888888888889906012017000000000007500001012416888888888888899          0900000000000000000000000000000000000000000000000000000   000000000000000000000010009        170192957705     
0010001300178U 090000000000000000000000000000000000000000000000000000000000000000000000000000000000000000000000000000000000000000000000000604201700000000            000000000000000                              000                           
0010001300179T 090180230000001544772 29577050147510367   788888888888889906012017000000000007500001010235888888888888899          0900000000000000000000000000000000000000000000000000000   000000000000000000000010009        170192957705     
0010001300180U 090000000000000000000000000000000000000000000000000000000000000000000000000000000000000000000000000000000000000000000000000604201700000000            000000000000000                              000                           
0010001300181T 090180230000001544772 29577050147649225   788888888888889906012017000000000007500001000213888888888888899          0900000000000000000000000000000000000000000000000000000   000000000000000000000010009        170192957705     
0010001300182U 090000000000000000000000000000000000000000000000000000000000000000000000000000000000000000000000000000000000000000000000000604201700000000            000000000000000                              000                           
0010001300183T 090180230000001544772 29577050147820297   788888888888889906012017000000000007500001000213888888888888899          0900000000000000000000000000000000000000000000000000000   000000000000000000000010009        170192957705     
0010001300184U 090000000000000000000000000000000000000000000000000000000000000000000000000000000000000000000000000000000000000000000000000604201700000000            000000000000000                              000                           
0010001300185T 090180230000001544772 29577050148125052   788888888888889906012017000000000007500001012416888888888888899          0900000000000000000000000000000000000000000000000000000   000000000000000000000010009        170192957705     
0010001300186U 090000000000000000000000000000000000000000000000000000000000000000000000000000000000000000000000000000000000000000000000000604201700000000            000000000000000                              000                           
0010001300187T 090180230000001544772 29577050148152174   788888888888889906012017000000000007500001012416888888888888899          0900000000000000000000000000000000000000000000000000000   000000000000000000000010009        170192957705     
0010001300188U 090000000000000000000000000000000000000000000000000000000000000000000000000000000000000000000000000000000000000000000000000604201700000000            000000000000000                              000                           
0010001300189T 090180230000001544772 29577050148153282   788888888888889906012017000000000007500001012416888888888888899          0900000000000000000000000000000000000000000000000000000   000000000000000000000010009        170192957705     
0010001300190U 090000000000000000000000000000000000000000000000000000000000000000000000000000000000000000000000000000000000000000000000000604201700000000            000000000000000                              000                           
0010001300191T 090180230000001544772 29577050148227898   788888888888889906012017000000000007500001012416888888888888899          0900000000000000000000000000000000000000000000000000000   000000000000000000000010009        170192957705     
0010001300192U 090000000000000000000000000000000000000000000000000000000000000000000000000000000000000000000000000000000000000000000000000604201700000000            000000000000000                              000                           
0010001300193T 090180230000001544772 29577050148350367   788888888888889906012017000000000007500001002097888888888888899          0900000000000000000000000000000000000000000000000000000   000000000000000000000010009        170192957705     
0010001300194U 090000000000000000000000000000000000000000000000000000000000000000000000000000000000000000000000000000000000000000000000000604201700000000            000000000000000                              000                           
0010001300195T 090180230000001544772 29577050148420518   788888888888889906012017000000000007500001010561888888888888899          0900000000000000000000000000000000000000000000000000000   000000000000000000000010009        170192957705     
0010001300196U 090000000000000000000000000000000000000000000000000000000000000000000000000000000000000000000000000000000000000000000000000604201700000000            000000000000000                              000                           
0010001300197T 090180230000001544772 29577050148550770   788888888888889906012017000000000007500001012416888888888888899          0900000000000000000000000000000000000000000000000000000   000000000000000000000010009        170192957705     
0010001300198U 090000000000000000000000000000000000000000000000000000000000000000000000000000000000000000000000000000000000000000000000000604201700000000            000000000000000                              000                           
0010001300199T 090180230000001544772 29577050148615906   788888888888889906012017000000000007500001036900888888888888899          0900000000000000000000000000000000000000000000000000000   000000000000000000000010009        170192957705     
0010001300200U 090000000000000000000000000000000000000000000000000000000000000000000000000000000000000000000000000000000000000000000000000604201700000000            000000000000000                              000                           
0010001300201T 090180230000001544772 29577050148737657   78888888888888990601201700000000000750000103049X888888888888899          0900000000000000000000000000000000000000000000000000000   000000000000000000000010009        170192957705     
0010001300202U 090000000000000000000000000000000000000000000000000000000000000000000000000000000000000000000000000000000000000000000000000604201700000000            000000000000000                              000                           
0010001300203T 090180230000001544772 29577050148841912   788888888888889906012017000000000007500001000213888888888888899          0900000000000000000000000000000000000000000000000000000   000000000000000000000010009        170192957705     
0010001300204U 090000000000000000000000000000000000000000000000000000000000000000000000000000000000000000000000000000000000000000000000000604201700000000            000000000000000                              000                           
0010001300205T 090180230000001544772 29577050148931964   788888888888889906012017000000000007500001012408888888888888899          0900000000000000000000000000000000000000000000000000000   000000000000000000000010009        170192957705     
0010001300206U 090000000000000000000000000000000000000000000000000000000000000000000000000000000000000000000000000000000000000000000000000604201700000000            000000000000000                              000                           
0010001300207T 090180230000001544772 29577050149146850   788888888888889906012017000000000007500001012408888888888888899          0900000000000000000000000000000000000000000000000000000   000000000000000000000010009        170192957705     
0010001300208U 090000000000000000000000000000000000000000000000000000000000000000000000000000000000000000000000000000000000000000000000000604201700000000            000000000000000                              000                           
0010001300209T 090180230000001544772 29577050149250265   788888888888889906012017000000000007500001000213888888888888899          0900000000000000000000000000000000000000000000000000000   000000000000000000000010009        170192957705     
0010001300210U 090000000000000000000000000000000000000000000000000000000000000000000000000000000000000000000000000000000000000000000000000604201700000000            000000000000000                              000                           
0010001300211T 090180230000001544772 29577050149453539   788888888888889906012017000000000007500001012408888888888888899          0900000000000000000000000000000000000000000000000000000   000000000000000000000010009        170192957705     
0010001300212U 090000000000000000000000000000000000000000000000000000000000000000000000000000000000000000000000000000000000000000000000000604201700000000            000000000000000                              000                           
0010001300213T 090180230000001544772 29577050149539846   78888888888888990601201700000000000750000103049X888888888888899          0900000000000000000000000000000000000000000000000000000   000000000000000000000010009        170192957705     
0010001300214U 090000000000000000000000000000000000000000000000000000000000000000000000000000000000000000000000000000000000000000000000000604201700000000            000000000000000                              000                           
0010001300215T 090180230000001544772 29577050149611816   788888888888889906012017000000000007500001000213888888888888899          0900000000000000000000000000000000000000000000000000000   000000000000000000000010009        170192957705     
0010001300216U 090000000000000000000000000000000000000000000000000000000000000000000000000000000000000000000000000000000000000000000000000604201700000000            000000000000000                              000                           
0010001300217T 090180230000001544772 29577050149811076   788888888888889906012017000000000007500001012408888888888888899          0900000000000000000000000000000000000000000000000000000   000000000000000000000010009        170192957705     
0010001300218U 090000000000000000000000000000000000000000000000000000000000000000000000000000000000000000000000000000000000000000000000000604201700000000            000000000000000                              000                           
0010001300219T 090180230000001544772 29577050149921384   788888888888889906012017000000000007500001000213888888888888899          0900000000000000000000000000000000000000000000000000000   000000000000000000000010009        170192957705     
0010001300220U 090000000000000000000000000000000000000000000000000000000000000000000000000000000000000000000000000000000000000000000000000604201700000000            000000000000000                              000                           
0010001300221T 090180230000001544772 29577050150107935   788888888888889906012017000000000007500001012408888888888888899          0900000000000000000000000000000000000000000000000000000   000000000000000000000010009        170192957705     
0010001300222U 090000000000000000000000000000000000000000000000000000000000000000000000000000000000000000000000000000000000000000000000000604201700000000            000000000000000                              000                           
0010001300223T 090180230000001544772 29577050150156315   788888888888889906012017000000000007500001012408888888888888899          0900000000000000000000000000000000000000000000000000000   000000000000000000000010009        170192957705     
0010001300224U 090000000000000000000000000000000000000000000000000000000000000000000000000000000000000000000000000000000000000000000000000604201700000000            000000000000000                              000                           
0010001300225T 090180230000001544772 29577050150225539   788888888888889906012017000000000007500001000515888888888888899          0900000000000000000000000000000000000000000000000000000   000000000000000000000010009        170192957705     
0010001300226U 090000000000000000000000000000000000000000000000000000000000000000000000000000000000000000000000000000000000000000000000000604201700000000            000000000000000                              000                           
0010001300227T 090180230000001544772 29577050150331280   788888888888889906012017000000000010000001000515888888888888899          0900000000000000000000000000000000000000000000000000000   000000000000000000000010009        170192957705     
0010001300228U 090000000000000000000000000000000000000000000000000000000000000000000000000000000000000000000000000000000000000000000000000604201700000000            000000000000000                              000                           
0010001300229T 090180230000001544772 29577050150410895   78888888888888990601201700000000000750000100166X888888888888899          0900000000000000000000000000000000000000000000000000000   000000000000000000000010009        170192957705     
0010001300230U 090000000000000000000000000000000000000000000000000000000000000000000000000000000000000000000000000000000000000000000000000604201700000000            000000000000000                              000                           
0010001300231T 090180230000001544772 29577050150507272   78888888888888990601201700000000000750000103049X888888888888899          0900000000000000000000000000000000000000000000000000000   000000000000000000000010009        170192957705     
0010001300232U 090000000000000000000000000000000000000000000000000000000000000000000000000000000000000000000000000000000000000000000000000604201700000000            000000000000000                              000                           
0010001300233T 090180230000001544772 29577050150515810   78888888888888990601201700000000000750000103049X888888888888899          0900000000000000000000000000000000000000000000000000000   000000000000000000000010009        170192957705     
0010001300234U 090000000000000000000000000000000000000000000000000000000000000000000000000000000000000000000000000000000000000000000000000604201700000000            000000000000000                              000                           
0010001300235T 090180230000001544772 29577050150657966   788888888888889906012017000000000007500001012416888888888888899          0900000000000000000000000000000000000000000000000000000   000000000000000000000010009        170192957705     
0010001300236U 090000000000000000000000000000000000000000000000000000000000000000000000000000000000000000000000000000000000000000000000000604201700000000            000000000000000                              000                           
0010001300237T 090180230000001544772 29577050151127584   788888888888889906012017000000000007500001000213888888888888899          0900000000000000000000000000000000000000000000000000000   000000000000000000000010009        170192957705     
0010001300238U 090000000000000000000000000000000000000000000000000000000000000000000000000000000000000000000000000000000000000000000000000604201700000000            000000000000000                              000                           
0010001300239T 090180230000001544772 29577050151208824   78888888888888990601201700000000001000000103049X888888888888899          0900000000000000000000000000000000000000000000000000000   000000000000000000000010009        170192957705     
0010001300240U 090000000000000000000000000000000000000000000000000000000000000000000000000000000000000000000000000000000000000000000000000604201700000000            000000000000000                              000                           
0010001300241T 090180230000001544772 29577050151314595   788888888888889906012017000000000007500001046744888888888888899          0900000000000000000000000000000000000000000000000000000   000000000000000000000010009        170192957705     
0010001300242U 090000000000000000000000000000000000000000000000000000000000000000000000000000000000000000000000000000000000000000000000000604201700000000            000000000000000                              000                           
0010001300243T 090180230000001544772 29577050151424377   788888888888889906012017000000000007500001046744888888888888899          0900000000000000000000000000000000000000000000000000000   000000000000000000000010009        170192957705     
0010001300244U 090000000000000000000000000000000000000000000000000000000000000000000000000000000000000000000000000000000000000000000000000604201700000000            000000000000000                              000                           
0010001300245T 090180230000001544772 29577050151531435   788888888888889906012017000000000007500001000728888888888888899          0900000000000000000000000000000000000000000000000000000   000000000000000000000010009        170192957705     
0010001300246U 090000000000000000000000000000000000000000000000000000000000000000000000000000000000000000000000000000000000000000000000000604201700000000            000000000000000                              000                           
0010001300247T 090180230000001544772 29577050151645896   78888888888888990601201700000000000750000103049X888888888888899          0900000000000000000000000000000000000000000000000000000   000000000000000000000010009        170192957705     
0010001300248U 090000000000000000000000000000000000000000000000000000000000000000000000000000000000000000000000000000000000000000000000000604201700000000            000000000000000                              000                           
0010001300249T 090180230000001544772 29577050151712062   788888888888889906012017000000000007500001000213888888888888899          0900000000000000000000000000000000000000000000000000000   000000000000000000000010009        170192957705     
0010001300250U 090000000000000000000000000000000000000000000000000000000000000000000000000000000000000000000000000000000000000000000000000604201700000000            000000000000000                              000                           
0010001300251T 090180230000001544772 29577050151902050   788888888888889906012017000000000007500001012416888888888888899          0900000000000000000000000000000000000000000000000000000   000000000000000000000010009        170192957705     
0010001300252U 090000000000000000000000000000000000000000000000000000000000000000000000000000000000000000000000000000000000000000000000000604201700000000            000000000000000                              000                           
0010001300253T 090180230000001544772 29577050152029819   788888888888889906012017000000000010000001003956888888888888899          0900000000000000000000000000000000000000000000000000000   000000000000000000000010009        170192957705     
0010001300254U 090000000000000000000000000000000000000000000000000000000000000000000000000000000000000000000000000000000000000000000000000604201700000000            000000000000000                              000                           
0010001300255T 090180230000001544772 29577050152243973   788888888888889906012017000000000007500001000744888888888888899          0900000000000000000000000000000000000000000000000000000   000000000000000000000010009        170192957705     
0010001300256U 090000000000000000000000000000000000000000000000000000000000000000000000000000000000000000000000000000000000000000000000000604201700000000            000000000000000                              000                           
0010001300257T 090180230000001544772 29577050152412129   78888888888888990601201700000000000750000103049X888888888888899          0900000000000000000000000000000000000000000000000000000   000000000000000000000010009        170192957705     
0010001300258U 090000000000000000000000000000000000000000000000000000000000000000000000000000000000000000000000000000000000000000000000000604201700000000            000000000000000                              000                           
0010001300259T 090180230000001544772 29577050152508772   788888888888889906012017000000000007500001000213888888888888899          0900000000000000000000000000000000000000000000000000000   000000000000000000000010009        170192957705     
0010001300260U 090000000000000000000000000000000000000000000000000000000000000000000000000000000000000000000000000000000000000000000000000604201700000000            000000000000000                              000                           
0010001300261T 090180230000001544772 29577050152610711   78888888888888990601201700000000000750000103049X888888888888899          0900000000000000000000000000000000000000000000000000000   000000000000000000000010009        170192957705     
0010001300262U 090000000000000000000000000000000000000000000000000000000000000000000000000000000000000000000000000000000000000000000000000604201700000000            000000000000000                              000                           
0010001300263T 090180230000001544772 29577050152706493   788888888888889906012017000000000010000001000213888888888888899          0900000000000000000000000000000000000000000000000000000   000000000000000000000010009        170192957705     
0010001300264U 090000000000000000000000000000000000000000000000000000000000000000000000000000000000000000000000000000000000000000000000000604201700000000            000000000000000                              000                           
0010001300265T 090180230000001544772 29577050152940823   788888888888889906012017000000000007500001010561888888888888899          0900000000000000000000000000000000000000000000000000000   000000000000000000000010009        170192957705     
0010001300266U 090000000000000000000000000000000000000000000000000000000000000000000000000000000000000000000000000000000000000000000000000604201700000000            000000000000000                              000                           
0010001300267T 090180230000001544772 29577050153211743   788888888888889906012017000000000010000001012408888888888888899          0900000000000000000000000000000000000000000000000000000   000000000000000000000010009        170192957705     
0010001300268U 090000000000000000000000000000000000000000000000000000000000000000000000000000000000000000000000000000000000000000000000000604201700000000            000000000000000                              000                           
0010001300269T 090180230000001544772 29577050153321941   788888888888889906012017000000000007500001002097888888888888899          0900000000000000000000000000000000000000000000000000000   000000000000000000000010009        170192957705     
0010001300270U 090000000000000000000000000000000000000000000000000000000000000000000000000000000000000000000000000000000000000000000000000604201700000000            000000000000000                              000                           
0010001300271T 090180230000001544772 29577050153532412   788888888888889906012017000000000007500001012408888888888888899          0900000000000000000000000000000000000000000000000000000   000000000000000000000010009        170192957705     
0010001300272U 090000000000000000000000000000000000000000000000000000000000000000000000000000000000000000000000000000000000000000000000000604201700000000            000000000000000                              000                           
0010001300273T 090180230000001544772 29577050153746692   788888888888889906012017000000000007500001012408888888888888899          0900000000000000000000000000000000000000000000000000000   000000000000000000000010009        170192957705     
0010001300274U 090000000000000000000000000000000000000000000000000000000000000000000000000000000000000000000000000000000000000000000000000604201700000000            000000000000000                              000                           
0010001300275T 090180230000001544772 29577050153834947   788888888888889906012017000000000007500001000213888888888888899          0900000000000000000000000000000000000000000000000000000   000000000000000000000010009        170192957705     
0010001300276U 090000000000000000000000000000000000000000000000000000000000000000000000000000000000000000000000000000000000000000000000000604201700000000            000000000000000                              000                           
0010001300277T 090180230000001544772 29577050153908188   78888888888888990601201700000000000750000103049X888888888888899          0900000000000000000000000000000000000000000000000000000   000000000000000000000010009        170192957705     
0010001300278U 090000000000000000000000000000000000000000000000000000000000000000000000000000000000000000000000000000000000000000000000000604201700000000            000000000000000                              000                           
0010001300279T 090180230000001544772 29577050154012993   788888888888889906012017000000000007500001032085888888888888899          0900000000000000000000000000000000000000000000000000000   000000000000000000000010009        170192957705     
0010001300280U 090000000000000000000000000000000000000000000000000000000000000000000000000000000000000000000000000000000000000000000000000604201700000000            000000000000000                              000                           
0010001300281T 090180230000001544772 29577050154120443   788888888888889906012017000000000007500001004782888888888888899          0900000000000000000000000000000000000000000000000000000   000000000000000000000010009        170192957705     
0010001300282U 090000000000000000000000000000000000000000000000000000000000000000000000000000000000000000000000000000000000000000000000000604201700000000            000000000000000                              000                           
0010001300283T 280180230000001544772 29577050012510990   788888888888889905022017000000000007500001000000888888888888899          0900000000000000000000000000000000000000000000000000000   000000000000000000000005002        170192957705     
0010001300284U 280000000000000000000000000000000000000000000000000000000000000000000000000000000000000000000000000000000000000000000000000604201700000000            000000000000000                              000                           
0010001300285T 280180230000001544772 29577050014907056   788888888888889905022017000000000007500001000000888888888888899          0900000000000000000000000000000000000000000000000000000   000000000000000000000005002        170192957705     
0010001300286U 280000000000000000000000000000000000000000000000000000000000000000000000000000000000000000000000000000000000000000000000000604201700000000            000000000000000                              000                           
0010001300287T 280180230000001544772 29577050014946165   788888888888889905022017000000000007500001000000888888888888899          0900000000000000000000000000000000000000000000000000000   000000000000000000000005002        170192957705     
0010001300288U 280000000000000000000000000000000000000000000000000000000000000000000000000000000000000000000000000000000000000000000000000604201700000000            000000000000000                              000                           
0010001300289T 280180230000001544772 29577050018108351   788888888888889905022017000000000007500001000000888888888888899          0900000000000000000000000000000000000000000000000000000   000000000000000000000005002        170192957705     
0010001300290U 280000000000000000000000000000000000000000000000000000000000000000000000000000000000000000000000000000000000000000000000000604201700000000            000000000000000                              000                           
0010001300291T 280180230000001544772 29577050036814966   788888888888889905022017000000000010000001000000888888888888899          0900000000000000000000000000000000000000000000000000000   000000000000000000000005002        170192957705     
0010001300292U 280000000000000000000000000000000000000000000000000000000000000000000000000000000000000000000000000000000000000000000000000604201700000000            000000000000000                              000                           
0010001300293T 280180230000001544772 29577050041904476   788888888888889905022017000000000010000001000000888888888888899          0900000000000000000000000000000000000000000000000000000   000000000000000000000005002        170192957705     
0010001300294U 280000000000000000000000000000000000000000000000000000000000000000000000000000000000000000000000000000000000000000000000000604201700000000            000000000000000                              000                           
0010001300295T 280180230000001544772 29577050041926730   788888888888889905022017000000000010000001000000888888888888899          0900000000000000000000000000000000000000000000000000000   000000000000000000000005002        170192957705     
0010001300296U 280000000000000000000000000000000000000000000000000000000000000000000000000000000000000000000000000000000000000000000000000604201700000000            000000000000000                              000                           
0010001300297T 280180230000001544772 29577050044609777   7               07032017000000000010000001000000                         0900000000000000000000000000000000000000000000000000000   000000000000000000000005002        170192957705     
0010001300298U 280000000000000000000000000000000000000000000000000000000000000000000000000000000000000000000000000000000000000000000000000604201700000000            000000000000000                              000                           
0010001300299T 280180230000001544772 29577050044653636   7               07032017000000000010000001000000                         0900000000000000000000000000000000000000000000000000000   000000000000000000000005002        170192957705     
0010001300300U 280000000000000000000000000000000000000000000000000000000000000000000000000000000000000000000000000000000000000000000000000604201700000000            000000000000000                              000                           
0010001300301T 280180230000001544772 29577050045501568   788888888888889905022017000000000007500001000000888888888888899          0900000000000000000000000000000000000000000000000000000   000000000000000000000005002        170192957705     
0010001300302U 280000000000000000000000000000000000000000000000000000000000000000000000000000000000000000000000000000000000000000000000000604201700000000            000000000000000                              000                           
0010001300303T 280180230000001544772 29577050050844083   788888888888889905022017000000000007500001000000888888888888899          0900000000000000000000000000000000000000000000000000000   000000000000000000000005002        170192957705     
0010001300304U 280000000000000000000000000000000000000000000000000000000000000000000000000000000000000000000000000000000000000000000000000604201700000000            000000000000000                              000                           
0010001300305T 280180230000001544772 29577050063120742   788888888888889905022017000000000007500001000000888888888888899          0900000000000000000000000000000000000000000000000000000   000000000000000000000005002        170192957705     
0010001300306U 280000000000000000000000000000000000000000000000000000000000000000000000000000000000000000000000000000000000000000000000000604201700000000            000000000000000                              000                           
0010001300307T 280180230000001544772 29577050065544573   788888888888889905022017000000000007500001000000888888888888899          0900000000000000000000000000000000000000000000000000000   000000000000000000000005002        170192957705     
0010001300308U 280000000000000000000000000000000000000000000000000000000000000000000000000000000000000000000000000000000000000000000000000604201700000000            000000000000000                              000                           
0010001300309T 280180230000001544772 29577050067306333   788888888888889905022017000000000007500001000000888888888888899          0900000000000000000000000000000000000000000000000000000   000000000000000000000005002        170192957705     
0010001300310U 280000000000000000000000000000000000000000000000000000000000000000000000000000000000000000000000000000000000000000000000000604201700000000            000000000000000                              000                           
0010001300311T 280180230000001544772 29577050070952245   7               07032017000000000007500001000000                         0900000000000000000000000000000000000000000000000000000   000000000000000000000005002        170192957705     
0010001300312U 280000000000000000000000000000000000000000000000000000000000000000000000000000000000000000000000000000000000000000000000000604201700000000            000000000000000                              000                           
0010001300313T 280180230000001544772 29577050084559396   7               07032017000000000007500001000000                         0900000000000000000000000000000000000000000000000000000   000000000000000000000005002        170192957705     
0010001300314U 280000000000000000000000000000000000000000000000000000000000000000000000000000000000000000000000000000000000000000000000000604201700000000            000000000000000                              000                           
0010001300315T 280180230000001544772 29577050085836465   788888888888889905022017000000000007500001000000888888888888899          0900000000000000000000000000000000000000000000000000000   000000000000000000000005002        170192957705     
0010001300316U 280000000000000000000000000000000000000000000000000000000000000000000000000000000000000000000000000000000000000000000000000604201700000000            000000000000000                              000                           
0010001300317T 280180230000001544772 29577050089336091   7               07032017000000000007500001000000                         0900000000000000000000000000000000000000000000000000000   000000000000000000000005002        170192957705     
0010001300318U 280000000000000000000000000000000000000000000000000000000000000000000000000000000000000000000000000000000000000000000000000604201700000000            000000000000000                              000                           
0010001300319T 280180230000001544772 29577050092232834   788888888888889905022017000000000007500001000000888888888888899          0900000000000000000000000000000000000000000000000000000   000000000000000000000005002        170192957705     
0010001300320U 280000000000000000000000000000000000000000000000000000000000000000000000000000000000000000000000000000000000000000000000000604201700000000            000000000000000                              000                           
0010001300321T 280180230000001544772 29577050092334155   788888888888889905022017000000000007500001000000888888888888899          0900000000000000000000000000000000000000000000000000000   000000000000000000000005002        170192957705     
0010001300322U 280000000000000000000000000000000000000000000000000000000000000000000000000000000000000000000000000000000000000000000000000604201700000000            000000000000000                              000                           
0010001300323T 280180230000001544772 29577050092905538   788888888888889905022017000000000007500001000000888888888888899          0900000000000000000000000000000000000000000000000000000   000000000000000000000005002        170192957705     
0010001300324U 280000000000000000000000000000000000000000000000000000000000000000000000000000000000000000000000000000000000000000000000000604201700000000            000000000000000                              000                           
0010001300325T 280180230000001544772 29577050093803600   788888888888889905022017000000000010000001000000888888888888899          0900000000000000000000000000000000000000000000000000000   000000000000000000000005002        170192957705     
0010001300326U 280000000000000000000000000000000000000000000000000000000000000000000000000000000000000000000000000000000000000000000000000604201700000000            000000000000000                              000                           
0010001300327T 280180230000001544772 29577050112431807   7               07032017000000000007500001000000                         0900000000000000000000000000000000000000000000000000000   000000000000000000000005002        170192957705     
0010001300328U 280000000000000000000000000000000000000000000000000000000000000000000000000000000000000000000000000000000000000000000000000604201700000000            000000000000000                              000                           
0010001300329T 280180230000001544772 29577050112506390   7               07032017000000000007500001000000                         0900000000000000000000000000000000000000000000000000000   000000000000000000000005002        170192957705     
0010001300330U 280000000000000000000000000000000000000000000000000000000000000000000000000000000000000000000000000000000000000000000000000604201700000000            000000000000000                              000                           
0010001300331T 280180230000001544772 29577050112621303   7               07032017000000000007500001000000                         0900000000000000000000000000000000000000000000000000000   000000000000000000000005002        170192957705     
0010001300332U 280000000000000000000000000000000000000000000000000000000000000000000000000000000000000000000000000000000000000000000000000604201700000000            000000000000000                              000                           
0010001300333T 280180230000001544772 29577050128022697   788888888888889905022017000000000007500001000000888888888888899          0900000000000000000000000000000000000000000000000000000   000000000000000000000005002        170192957705     
0010001300334U 280000000000000000000000000000000000000000000000000000000000000000000000000000000000000000000000000000000000000000000000000604201700000000            000000000000000                              000                           
0010001300335T 280180230000001544772 29577050134840151   7               07032017000000000010000001000000                         0900000000000000000000000000000000000000000000000000000   000000000000000000000005002        170192957705     
0010001300336U 280000000000000000000000000000000000000000000000000000000000000000000000000000000000000000000000000000000000000000000000000604201700000000            000000000000000                              000                           
0010001300337T 280180230000001544772 29577050134845341   7               07032017000000000010000001000000                         0900000000000000000000000000000000000000000000000000000   000000000000000000000005002        170192957705     
0010001300338U 280000000000000000000000000000000000000000000000000000000000000000000000000000000000000000000000000000000000000000000000000604201700000000            000000000000000                              000                           
0010001300339T 280180230000001544772 29577050138036538   7               07032017000000000007500001000000                         0900000000000000000000000000000000000000000000000000000   000000000000000000000005002        170192957705     
0010001300340U 280000000000000000000000000000000000000000000000000000000000000000000000000000000000000000000000000000000000000000000000000604201700000000            000000000000000                              000                           
0010001300341T 280180230000001544772 29577050139219364   7               07032017000000000007500001000000                         0900000000000000000000000000000000000000000000000000000   000000000000000000000005002        170192957705     
0010001300342U 280000000000000000000000000000000000000000000000000000000000000000000000000000000000000000000000000000000000000000000000000604201700000000            000000000000000                              000                           
0010001300343T 280180230000001544772 29577050141710206   788888888888889905022017000000000007500001000000888888888888899          0900000000000000000000000000000000000000000000000000000   000000000000000000000005002        170192957705     
0010001300344U 280000000000000000000000000000000000000000000000000000000000000000000000000000000000000000000000000000000000000000000000000604201700000000            000000000000000                              000                           
0010001300345T 280180230000001544772 29577050151701583   788888888888889905022017000000000007500001000000888888888888899          0900000000000000000000000000000000000000000000000000000   000000000000000000000005002        170192957705     
0010001300346U 280000000000000000000000000000000000000000000000000000000000000000000000000000000000000000000000000000000000000000000000000604201700000000            000000000000000                              000                           
0010001300347T 280180230000001544772 29577050154948454   788888888888889905022017000000000010000001000000888888888888899          0900000000000000000000000000000000000000000000000000000   000000000000000000000005002        170192957705     
0010001300348U 280000000000000000000000000000000000000000000000000000000000000000000000000000000000000000000000000000000000000000000000000604201700000000            000000000000000                              000                           
0010001300349T 280180230000001544772 29577050156420899   788888888888889905022017000000000007500001000000888888888888899          0900000000000000000000000000000000000000000000000000000   000000000000000000000005002        170192957705     
0010001300350U 280000000000000000000000000000000000000000000000000000000000000000000000000000000000000000000000000000000000000000000000000604201700000000            000000000000000                              000                           
0010001300351T 280180230000001544772 29577050156817855   7               07032017000000000007500001000000                         0900000000000000000000000000000000000000000000000000000   000000000000000000000005002        170192957705     
0010001300352U 280000000000000000000000000000000000000000000000000000000000000000000000000000000000000000000000000000000000000000000000000604201700000000            000000000000000                              000                           
0010001300353T 280180230000001544772 29577050165153671   788888888888889905022017000000000007500001000000888888888888899          0900000000000000000000000000000000000000000000000000000   000000000000000000000005002        170192957705     
0010001300354U 280000000000000000000000000000000000000000000000000000000000000000000000000000000000000000000000000000000000000000000000000604201700000000            000000000000000                              000                           
0010001300355T 280180230000001544772 29577050193850905   788888888888889905022017000000000007500001000000888888888888899          0900000000000000000000000000000000000000000000000000000   000000000000000000000005002        170192957705     
0010001300356U 280000000000000000000000000000000000000000000000000000000000000000000000000000000000000000000000000000000000000000000000000604201700000000            000000000000000                              000                           
0010001300357T 280180230000001544772 29577050199227612   788888888888889905022017000000000007500001000000888888888888899          0900000000000000000000000000000000000000000000000000000   000000000000000000000005002        170192957705     
0010001300358U 280000000000000000000000000000000000000000000000000000000000000000000000000000000000000000000000000000000000000000000000000604201700000000            000000000000000                              000                           
0010001300359T 280180230000001544772 29577050202622233   788888888888889905022017000000000007500001000000888888888888899          0900000000000000000000000000000000000000000000000000000   000000000000000000000005002        170192957705     
0010001300360U 280000000000000000000000000000000000000000000000000000000000000000000000000000000000000000000000000000000000000000000000000604201700000000            000000000000000                              000                           
0010001300361T 280180230000001544772 29577050210041088   788888888888889905022017000000000007500001000000888888888888899          0900000000000000000000000000000000000000000000000000000   000000000000000000000005002        170192957705     
0010001300362U 280000000000000000000000000000000000000000000000000000000000000000000000000000000000000000000000000000000000000000000000000604201700000000            000000000000000                              000                           
0010001300363T 280180230000001544772 29577050212456075   788888888888889905022017000000000007500001000000888888888888899          0900000000000000000000000000000000000000000000000000000   000000000000000000000005002        170192957705     
0010001300364U 280000000000000000000000000000000000000000000000000000000000000000000000000000000000000000000000000000000000000000000000000604201700000000            000000000000000                              000                           
0010001300365T 280180230000001544772 29577050214927837   788888888888889905022017000000000007500001000000888888888888899          0900000000000000000000000000000000000000000000000000000   000000000000000000000005002        170192957705     
0010001300366U 280000000000000000000000000000000000000000000000000000000000000000000000000000000000000000000000000000000000000000000000000604201700000000            000000000000000                              000                           
0010001300367T 280180230000001544772 29577050223755519   788888888888889905022017000000000007500001000000888888888888899          0900000000000000000000000000000000000000000000000000000   000000000000000000000005002        170192957705     
0010001300368U 280000000000000000000000000000000000000000000000000000000000000000000000000000000000000000000000000000000000000000000000000604201700000000            000000000000000                              000                           
0010001300369T 280180230000001544772 29577050223756512   788888888888889905022017000000000007500001000000888888888888899          0900000000000000000000000000000000000000000000000000000   000000000000000000000005002        170192957705     
0010001300370U 280000000000000000000000000000000000000000000000000000000000000000000000000000000000000000000000000000000000000000000000000604201700000000            000000000000000                              000                           
0010001300371T 280180230000001544772 29577050253211971   788888888888889905022017000000000007500001000000888888888888899          0900000000000000000000000000000000000000000000000000000   000000000000000000000005002        170192957705     
0010001300372U 280000000000000000000000000000000000000000000000000000000000000000000000000000000000000000000000000000000000000000000000000604201700000000            000000000000000                              000                           
0010001300373T 280180230000001544772 29577050257220542   7               07032017000000000007500001000000                         0900000000000000000000000000000000000000000000000000000   000000000000000000000005002        170192957705     
0010001300374U 280000000000000000000000000000000000000000000000000000000000000000000000000000000000000000000000000000000000000000000000000604201700000000            000000000000000                              000                           
0010001300375T 280180230000001544772 29577050257245558   7               07032017000000000007500001000000                         0900000000000000000000000000000000000000000000000000000   000000000000000000000005002        170192957705     
0010001300376U 280000000000000000000000000000000000000000000000000000000000000000000000000000000000000000000000000000000000000000000000000604201700000000            000000000000000                              000                           
0010001300377T 280180230000001544772 29577050259905213   788888888888889905022017000000000010000001000000888888888888899          0900000000000000000000000000000000000000000000000000000   000000000000000000000005002        170192957705     
0010001300378U 280000000000000000000000000000000000000000000000000000000000000000000000000000000000000000000000000000000000000000000000000604201700000000            000000000000000                              000                           
0010001300379T 280180230000001544772 29577050262937567   788888888888889905022017000000000007500001000000888888888888899          0900000000000000000000000000000000000000000000000000000   000000000000000000000005002        170192957705     
0010001300380U 280000000000000000000000000000000000000000000000000000000000000000000000000000000000000000000000000000000000000000000000000604201700000000            000000000000000                              000                           
0010001300381T 280180230000001544772 29577050265639500   788888888888889905022017000000000007500001000000888888888888899          0900000000000000000000000000000000000000000000000000000   000000000000000000000005002        170192957705     
0010001300382U 280000000000000000000000000000000000000000000000000000000000000000000000000000000000000000000000000000000000000000000000000604201700000000            000000000000000                              000                           
0010001300383T 280180230000001544772 29577050273409821   788888888888889905022017000000000007500001000000888888888888899          0900000000000000000000000000000000000000000000000000000   000000000000000000000005002        170192957705     
0010001300384U 280000000000000000000000000000000000000000000000000000000000000000000000000000000000000000000000000000000000000000000000000604201700000000            000000000000000                              000                           
0010001300385T 280180230000001544772 29577050273439218   788888888888889905022017000000000007500001000000888888888888899          0900000000000000000000000000000000000000000000000000000   000000000000000000000005002        170192957705     
0010001300386U 280000000000000000000000000000000000000000000000000000000000000000000000000000000000000000000000000000000000000000000000000604201700000000            000000000000000                              000                           
0010001300387T 280180230000001544772 29577050275557072   788888888888889905022017000000000007500001000000888888888888899          0900000000000000000000000000000000000000000000000000000   000000000000000000000005002        170192957705     
0010001300388U 280000000000000000000000000000000000000000000000000000000000000000000000000000000000000000000000000000000000000000000000000604201700000000            000000000000000                              000                           
0010001300389T 280180230000001544772 29577050277950814   788888888888889905022017000000000007500001000000888888888888899          0900000000000000000000000000000000000000000000000000000   000000000000000000000005002        170192957705     
0010001300390U 280000000000000000000000000000000000000000000000000000000000000000000000000000000000000000000000000000000000000000000000000604201700000000            000000000000000                              000                           
0010001300391T 280180230000001544772 29577050283927931   7               07032017000000000007500001000000                         0900000000000000000000000000000000000000000000000000000   000000000000000000000005002        170192957705     
0010001300392U 280000000000000000000000000000000000000000000000000000000000000000000000000000000000000000000000000000000000000000000000000604201700000000            000000000000000                              000                           
0010001300393T 280180230000001544772 29577050284105500   788888888888889905022017000000000007500001000000888888888888899          0900000000000000000000000000000000000000000000000000000   000000000000000000000005002        170192957705     
0010001300394U 280000000000000000000000000000000000000000000000000000000000000000000000000000000000000000000000000000000000000000000000000604201700000000            000000000000000                              000                           
0010001300395T 280180230000001544772 29577050289306965   788888888888889905022017000000000007500001000000888888888888899          0900000000000000000000000000000000000000000000000000000   000000000000000000000005002        170192957705     
0010001300396U 280000000000000000000000000000000000000000000000000000000000000000000000000000000000000000000000000000000000000000000000000604201700000000            000000000000000                              000                           
0010001300397T 280180230000001544772 29577050290622379   788888888888889905022017000000000007500001000000888888888888899          0900000000000000000000000000000000000000000000000000000   000000000000000000000005002        170192957705     
0010001300398U 280000000000000000000000000000000000000000000000000000000000000000000000000000000000000000000000000000000000000000000000000604201700000000            000000000000000                              000                           
0010001300399T 280180230000001544772 29577050293550086   788888888888889905022017000000000007500001000000888888888888899          0900000000000000000000000000000000000000000000000000000   000000000000000000000005002        170192957705     
0010001300400U 280000000000000000000000000000000000000000000000000000000000000000000000000000000000000000000000000000000000000000000000000604201700000000            000000000000000                              000                           
0010001300401T 280180230000001544772 29577050298241739   788888888888889905022017000000000007500001000000888888888888899          0900000000000000000000000000000000000000000000000000000   000000000000000000000005002        170192957705     
0010001300402U 280000000000000000000000000000000000000000000000000000000000000000000000000000000000000000000000000000000000000000000000000604201700000000            000000000000000                              000                           
0010001300403T 280180230000001544772 29577050314136317   788888888888889905022017000000000007500001000000888888888888899          0900000000000000000000000000000000000000000000000000000   000000000000000000000005002        170192957705     
0010001300404U 280000000000000000000000000000000000000000000000000000000000000000000000000000000000000000000000000000000000000000000000000604201700000000            000000000000000                              000                           
0010001300405T 280180230000001544772 29577050329836713   788888888888889905022017000000000007500001000000888888888888899          0900000000000000000000000000000000000000000000000000000   000000000000000000000005002        170192957705     
0010001300406U 280000000000000000000000000000000000000000000000000000000000000000000000000000000000000000000000000000000000000000000000000604201700000000            000000000000000                              000                           
0010001300407T 280180230000001544772 29577050333328318   788888888888889905022017000000000007500001000000888888888888899          0900000000000000000000000000000000000000000000000000000   000000000000000000000005002        170192957705     
0010001300408U 280000000000000000000000000000000000000000000000000000000000000000000000000000000000000000000000000000000000000000000000000604201700000000            000000000000000                              000                           
0010001300409T 280180230000001544772 29577050341502115   788888888888889905022017000000000007500001000000888888888888899          0900000000000000000000000000000000000000000000000000000   000000000000000000000005002        170192957705     
0010001300410U 280000000000000000000000000000000000000000000000000000000000000000000000000000000000000000000000000000000000000000000000000604201700000000            000000000000000                              000                           
0010001300411T 280180230000001544772 29577050344702244   788888888888889905022017000000000007500001000000888888888888899          0900000000000000000000000000000000000000000000000000000   000000000000000000000005002        170192957705     
0010001300412U 280000000000000000000000000000000000000000000000000000000000000000000000000000000000000000000000000000000000000000000000000604201700000000            000000000000000                              000                           
