00100000         2247745860001000029577050014       0180230000001544772 INSTITUTO DE SELECAO E TECNOLOBANCO DO BRASIL                         20704201701282600016603000000515122941PROCESSAMEN                                                 
00100011T0100020 20247745860001000029577050014       0180230000001544772 INSTITUTO DE SELECAO E TECNOLO                                                                                000000000704201700000000  000000000                      
0010001300001T 020180230000001544772 29577050017522537   7               09042017000000000007500001012408                         0900000000000010000000000000000000000000000000000000000   0000000000000000000000000A9        170192957705     
0010001300002U 020000000000000000000000000000000000000000000000000000000000000000000000000000000000000000000000000000000000000000000000000704201700000000            000000000000000                              000                           
0010001300003T 020180230000001544772 29577050170344116   7               09042017000000000007500001012408                         0900000000000010000000000000000000000000000000000000000   0000000000000000000000000A9        170192957705     
0010001300004U 020000000000000000000000000000000000000000000000000000000000000000000000000000000000000000000000000000000000000000000000000704201700000000            000000000000000                              000                           
0010001300005T 020180230000001544772 29577050223610776   7               09042017000000000007500001012408                         0900000000000010000000000000000000000000000000000000000   0000000000000000000000000A9        170192957705     
0010001300006U 020000000000000000000000000000000000000000000000000000000000000000000000000000000000000000000000000000000000000000000000000704201700000000            000000000000000                              000                           
0010001300007T 020180230000001544772 29577050338602066   7               09042017000000000007500001024511                         0900000000000010000000000000000000000000000000000000000   0000000000000000000000000A9        170192957705     
0010001300008U 020000000000000000000000000000000000000000000000000000000000000000000000000000000000000000000000000000000000000000000000000704201700000000            000000000000000                              000                           
0010001300009T 020180230000001544772 29577050368531654   7               0904201700000000000750000100829X                         0900000000000010000000000000000000000000000000000000000   0000000000000000000000000A9        170192957705     
0010001300010U 020000000000000000000000000000000000000000000000000000000000000000000000000000000000000000000000000000000000000000000000000704201700000000            000000000000000                              000                           
0010001300011T 020180230000001544772 29577050368558115   7               0904201700000000000750000100829X                         0900000000000010000000000000000000000000000000000000000   0000000000000000000000000A9        170192957705     
0010001300012U 020000000000000000000000000000000000000000000000000000000000000000000000000000000000000000000000000000000000000000000000000704201700000000            000000000000000                              000                           
0010001300013T 020180230000001544772 29577050404753444   7               0904201700000000000750000103049X                         0900000000000010000000000000000000000000000000000000000   0000000000000000000000000A9        170192957705     
0010001300014U 020000000000000000000000000000000000000000000000000000000000000000000000000000000000000000000000000000000000000000000000000704201700000000            000000000000000                              000                           
0010001300015T 020180230000001544772 29577050513202125   7               0904201700000000000750000103049X                         0900000000000010000000000000000000000000000000000000000   0000000000000000000000000A9        170192957705     
0010001300016U 020000000000000000000000000000000000000000000000000000000000000000000000000000000000000000000000000000000000000000000000000704201700000000            000000000000000                              000                           
0010001300017T 020180230000001544772 29577050513212229   7               0904201700000000000750000103049X                         0900000000000010000000000000000000000000000000000000000   0000000000000000000000000A9        170192957705     
0010001300018U 020000000000000000000000000000000000000000000000000000000000000000000000000000000000000000000000000000000000000000000000000704201700000000            000000000000000                              000                           
0010001300019T 020180230000001544772 29577050513215353   7               0904201700000000000750000103049X                         0900000000000010000000000000000000000000000000000000000   0000000000000000000000000A9        170192957705     
0010001300020U 020000000000000000000000000000000000000000000000000000000000000000000000000000000000000000000000000000000000000000000000000704201700000000            000000000000000                              000                           
0010001300021T 020180230000001544772 29577050513250108   7               0904201700000000000750000103049X                         0900000000000010000000000000000000000000000000000000000   0000000000000000000000000A9        170192957705     
0010001300022U 020000000000000000000000000000000000000000000000000000000000000000000000000000000000000000000000000000000000000000000000000704201700000000            000000000000000                              000                           
0010001300023T 020180230000001544772 29577050550004635   7               09042017000000000007500001012416                         0900000000000010000000000000000000000000000000000000000   0000000000000000000000000A9        170192957705     
0010001300024U 020000000000000000000000000000000000000000000000000000000000000000000000000000000000000000000000000000000000000000000000000704201700000000            000000000000000                              000                           
0010001300025T 020180230000001544772 29577050550009054   7               09042017000000000007500001012416                         0900000000000010000000000000000000000000000000000000000   0000000000000000000000000A9        170192957705     
0010001300026U 020000000000000000000000000000000000000000000000000000000000000000000000000000000000000000000000000000000000000000000000000704201700000000            000000000000000                              000                           
0010001300027T 020180230000001544772 29577050550025485   7               09042017000000000007500001012416                         0900000000000010000000000000000000000000000000000000000   0000000000000000000000000A9        170192957705     
0010001300028U 020000000000000000000000000000000000000000000000000000000000000000000000000000000000000000000000000000000000000000000000000704201700000000            000000000000000                              000                           
0010001300029T 020180230000001544772 29577050551124350   7               09042017000000000007500001012416                         0900000000000010000000000000000000000000000000000000000   0000000000000000000000000A9        170192957705     
0010001300030U 020000000000000000000000000000000000000000000000000000000000000000000000000000000000000000000000000000000000000000000000000704201700000000            000000000000000                              000                           
0010001300031T 020180230000001544772 29577050674656768   7               09042017000000000007500001012416                         0900000000000010000000000000000000000000000000000000000   0000000000000000000000000A9        170192957705     
0010001300032U 020000000000000000000000000000000000000000000000000000000000000000000000000000000000000000000000000000000000000000000000000704201700000000            000000000000000                              000                           
0010001300033T 020180230000001544772 29577050758350065   7               09042017000000000007500001006211                         0900000000000010000000000000000000000000000000000000000   0000000000000000000000000A9        170192957705     
0010001300034U 020000000000000000000000000000000000000000000000000000000000000000000000000000000000000000000000000000000000000000000000000704201700000000            000000000000000                              000                           
0010001300035T 020180230000001544772 29577050887517028   7               09042017000000000007500001000213                         0900000000000010000000000000000000000000000000000000000   0000000000000000000000000A9        170192957705     
0010001300036U 020000000000000000000000000000000000000000000000000000000000000000000000000000000000000000000000000000000000000000000000000704201700000000            000000000000000                              000                           
0010001300037T 020180230000001544772 29577050982515491   7               09042017000000000007500001000213                         0900000000000010000000000000000000000000000000000000000   0000000000000000000000000A9        170192957705     
0010001300038U 020000000000000000000000000000000000000000000000000000000000000000000000000000000000000000000000000000000000000000000000000704201700000000            000000000000000                              000                           
0010001300039T 020180230000001544772 29577050982717423   7               09042017000000000007500001000213                         0900000000000010000000000000000000000000000000000000000   0000000000000000000000000A9        170192957705     
0010001300040U 020000000000000000000000000000000000000000000000000000000000000000000000000000000000000000000000000000000000000000000000000704201700000000            000000000000000                              000                           
0010001300041T 020180230000001544772 29577051037339728   7               09042017000000000007500001012408                         0900000000000010000000000000000000000000000000000000000   0000000000000000000000000A9        170192957705     
0010001300042U 020000000000000000000000000000000000000000000000000000000000000000000000000000000000000000000000000000000000000000000000000704201700000000            000000000000000                              000                           
0010001300043T 020180230000001544772 29577051148102400   7               09042017000000000007500001000213                         0900000000000010000000000000000000000000000000000000000   0000000000000000000000000A9        170192957705     
0010001300044U 020000000000000000000000000000000000000000000000000000000000000000000000000000000000000000000000000000000000000000000000000704201700000000            000000000000000                              000                           
0010001300045T 020180230000001544772 29577051148154336   7               09042017000000000007500001000213                         0900000000000010000000000000000000000000000000000000000   0000000000000000000000000A9        170192957705     
0010001300046U 020000000000000000000000000000000000000000000000000000000000000000000000000000000000000000000000000000000000000000000000000704201700000000            000000000000000                              000                           
0010001300047T 020180230000001544772 29577051329424749   7               09042017000000000007500001000213                         0900000000000010000000000000000000000000000000000000000   0000000000000000000000000A9        170192957705     
0010001300048U 020000000000000000000000000000000000000000000000000000000000000000000000000000000000000000000000000000000000000000000000000704201700000000            000000000000000                              000                           
0010001300049T 020180230000001544772 29577051432013997   7               09042017000000000007500001000213                         0900000000000010500000000000000000000000000000000000000   0000000000000000000000000A9A4      170192957705     
0010001300050U 020000000000000000000000000000000000000000000000000000000000000000000000000000000000000000000000000000000000000000000000000704201700000000            000000000000000                              000                           
0010001300051T 020180230000001544772 29577051504557200   7               09042017000000000007500001000213                         0900000000000010000000000000000000000000000000000000000   0000000000000000000000000A9        170192957705     
0010001300052U 020000000000000000000000000000000000000000000000000000000000000000000000000000000000000000000000000000000000000000000000000704201700000000            000000000000000                              000                           
0010001300053T 020180230000001544772 29577051571151471   7               09042017000000000007500001012408                         0900000000000010000000000000000000000000000000000000000   0000000000000000000000000A9        170192957705     
0010001300054U 020000000000000000000000000000000000000000000000000000000000000000000000000000000000000000000000000000000000000000000000000704201700000000            000000000000000                              000                           
0010001300055T 020180230000001544772 29577051583921436   7               0904201700000000000750000103049X                         0900000000000010000000000000000000000000000000000000000   0000000000000000000000000A9        170192957705     
0010001300056U 020000000000000000000000000000000000000000000000000000000000000000000000000000000000000000000000000000000000000000000000000704201700000000            000000000000000                              000                           
0010001300057T 020180230000001544772 29577051589352883   7               09042017000000000007500001012408                         0900000000000010000000000000000000000000000000000000000   0000000000000000000000000A9        170192957705     
0010001300058U 020000000000000000000000000000000000000000000000000000000000000000000000000000000000000000000000000000000000000000000000000704201700000000            000000000000000                              000                           
0010001300059T 020180230000001544772 29577051602938102   7               09042017000000000007500001046280                         0900000000000010500000000000000000000000000000000000000   0000000000000000000000000A9A4      170192957705     
0010001300060U 020000000000000000000000000000000000000000000000000000000000000000000000000000000000000000000000000000000000000000000000000704201700000000            000000000000000                              000                           
0010001300061T 020180230000001544772 29577051618645264   7               09042017000000000007500001009245                         0900000000000010000000000000000000000000000000000000000   0000000000000000000000000A9        170192957705     
0010001300062U 020000000000000000000000000000000000000000000000000000000000000000000000000000000000000000000000000000000000000000000000000704201700000000            000000000000000                              000                           
0010001300063T 020180230000001544772 29577051648530512   7               09042017000000000007500001000213                         0900000000000010000000000000000000000000000000000000000   0000000000000000000000000A9        170192957705     
0010001300064U 020000000000000000000000000000000000000000000000000000000000000000000000000000000000000000000000000000000000000000000000000704201700000000            000000000000000                              000                           
0010001300065T 020180230000001544772 29577051648554425   7               09042017000000000007500001000213                         0900000000000010000000000000000000000000000000000000000   0000000000000000000000000A9        170192957705     
0010001300066U 020000000000000000000000000000000000000000000000000000000000000000000000000000000000000000000000000000000000000000000000000704201700000000            000000000000000                              000                           
0010001300067T 020180230000001544772 29577051648559384   7               09042017000000000007500001000213                         0900000000000010000000000000000000000000000000000000000   0000000000000000000000000A9        170192957705     
0010001300068U 020000000000000000000000000000000000000000000000000000000000000000000000000000000000000000000000000000000000000000000000000704201700000000            000000000000000                              000                           
0010001300069T 020180230000001544772 29577051648559793   7               09042017000000000007500001000213                         0900000000000010000000000000000000000000000000000000000   0000000000000000000000000A9        170192957705     
0010001300070U 020000000000000000000000000000000000000000000000000000000000000000000000000000000000000000000000000000000000000000000000000704201700000000            000000000000000                              000                           
0010001300071T 020180230000001544772 29577051651808311   7               09042017000000000007500001000213                         0900000000000010000000000000000000000000000000000000000   0000000000000000000000000A9        170192957705     
0010001300072U 020000000000000000000000000000000000000000000000000000000000000000000000000000000000000000000000000000000000000000000000000704201700000000            000000000000000                              000                           
0010001300073T 020180230000001544772 29577051653254938   7               09042017000000000007500001012416                         0900000000000010000000000000000000000000000000000000000   0000000000000000000000000A9        170192957705     
0010001300074U 020000000000000000000000000000000000000000000000000000000000000000000000000000000000000000000000000000000000000000000000000704201700000000            000000000000000                              000                           
0010001300075T 020180230000001544772 29577051653756075   7               09042017000000000010000001012408                         0900000000000010000000000000000000000000000000000000000   0000000000000000000000000A9        170192957705     
0010001300076U 020000000000000000000000000000000000000000000000000000000000000000000000000000000000000000000000000000000000000000000000000704201700000000            000000000000000                              000                           
0010001300077T 020180230000001544772 29577051655046657   7               0904201700000000000750000103049X                         0900000000000010000000000000000000000000000000000000000   0000000000000000000000000A9        170192957705     
0010001300078U 020000000000000000000000000000000000000000000000000000000000000000000000000000000000000000000000000000000000000000000000000704201700000000            000000000000000                              000                           
0010001300079T 020180230000001544772 29577051655053377   7               0904201700000000000750000103049X                         0900000000000010000000000000000000000000000000000000000   0000000000000000000000000A9        170192957705     
0010001300080U 020000000000000000000000000000000000000000000000000000000000000000000000000000000000000000000000000000000000000000000000000704201700000000            000000000000000                              000                           
0010001300081T 020180230000001544772 29577051656828664   7               09042017000000000007500001000213                         0900000000000010000000000000000000000000000000000000000   0000000000000000000000000A9        170192957705     
0010001300082U 020000000000000000000000000000000000000000000000000000000000000000000000000000000000000000000000000000000000000000000000000704201700000000            000000000000000                              000                           
0010001300083T 020180230000001544772 29577051656854143   7               09042017000000000007500001000213                         0900000000000010000000000000000000000000000000000000000   0000000000000000000000000A9        170192957705     
0010001300084U 020000000000000000000000000000000000000000000000000000000000000000000000000000000000000000000000000000000000000000000000000704201700000000            000000000000000                              000                           
0010001300085T 020180230000001544772 29577051658325777   7               09042017000000000007500001012416                         0900000000000010000000000000000000000000000000000000000   0000000000000000000000000A9        170192957705     
0010001300086U 020000000000000000000000000000000000000000000000000000000000000000000000000000000000000000000000000000000000000000000000000704201700000000            000000000000000                              000                           
0010001300087T 020180230000001544772 29577051659614926   7               09042017000000000007500001000213                         0900000000000010000000000000000000000000000000000000000   0000000000000000000000000A9        170192957705     
0010001300088U 020000000000000000000000000000000000000000000000000000000000000000000000000000000000000000000000000000000000000000000000000704201700000000            000000000000000                              000                           
0010001300089T 020180230000001544772 29577051661128399   7               0904201700000000000750000103049X                         0900000000000010000000000000000000000000000000000000000   0000000000000000000000000A9        170192957705     
0010001300090U 020000000000000000000000000000000000000000000000000000000000000000000000000000000000000000000000000000000000000000000000000704201700000000            000000000000000                              000                           
0010001300091T 020180230000001544772 29577051661356367   7               09042017000000000007500001000213                         0900000000000010000000000000000000000000000000000000000   0000000000000000000000000A9        170192957705     
0010001300092U 020000000000000000000000000000000000000000000000000000000000000000000000000000000000000000000000000000000000000000000000000704201700000000            000000000000000                              000                           
0010001300093T 020180230000001544772 29577051661507189   7               09042017000000000007500001012416                         0900000000000010000000000000000000000000000000000000000   0000000000000000000000000A9        170192957705     
0010001300094U 020000000000000000000000000000000000000000000000000000000000000000000000000000000000000000000000000000000000000000000000000704201700000000            000000000000000                              000                           
0010001300095T 020180230000001544772 29577051661733326   7               09042017000000000007500001012408                         0900000000000010000000000000000000000000000000000000000   0000000000000000000000000A9        170192957705     
0010001300096U 020000000000000000000000000000000000000000000000000000000000000000000000000000000000000000000000000000000000000000000000000704201700000000            000000000000000                              000                           
0010001300097T 020180230000001544772 29577051662322287   7               09042017000000000007500001012408                         0900000000000010000000000000000000000000000000000000000   0000000000000000000000000A9        170192957705     
0010001300098U 020000000000000000000000000000000000000000000000000000000000000000000000000000000000000000000000000000000000000000000000000704201700000000            000000000000000                              000                           
0010001300099T 020180230000001544772 29577051664131443   7               09042017000000000007500001000213                         0900000000000010000000000000000000000000000000000000000   0000000000000000000000000A9        170192957705     
0010001300100U 020000000000000000000000000000000000000000000000000000000000000000000000000000000000000000000000000000000000000000000000000704201700000000            000000000000000                              000                           
0010001300101T 020180230000001544772 29577051664909172   7               09042017000000000007500001000213                         0900000000000010000000000000000000000000000000000000000   0000000000000000000000000A9        170192957705     
0010001300102U 020000000000000000000000000000000000000000000000000000000000000000000000000000000000000000000000000000000000000000000000000704201700000000            000000000000000                              000                           
0010001300103T 020180230000001544772 29577051665609839   7               09042017000000000007500001000213                         0900000000000010000000000000000000000000000000000000000   0000000000000000000000000A9        170192957705     
0010001300104U 020000000000000000000000000000000000000000000000000000000000000000000000000000000000000000000000000000000000000000000000000704201700000000            000000000000000                              000                           
0010001300105T 020180230000001544772 29577051669418855   7               09042017000000000007500001012408                         0900000000000010000000000000000000000000000000000000000   0000000000000000000000000A9        170192957705     
0010001300106U 020000000000000000000000000000000000000000000000000000000000000000000000000000000000000000000000000000000000000000000000000704201700000000            000000000000000                              000                           
0010001300107T 020180230000001544772 29577051669725715   7               09042017000000000007500001009636                         0900000000000010000000000000000000000000000000000000000   0000000000000000000000000A9        170192957705     
0010001300108U 020000000000000000000000000000000000000000000000000000000000000000000000000000000000000000000000000000000000000000000000000704201700000000            000000000000000                              000                           
0010001300109T 020180230000001544772 29577051671612524   7               09042017000000000007500001000213                         0900000000000010000000000000000000000000000000000000000   0000000000000000000000000A9        170192957705     
0010001300110U 020000000000000000000000000000000000000000000000000000000000000000000000000000000000000000000000000000000000000000000000000704201700000000            000000000000000                              000                           
0010001300111T 020180230000001544772 29577051672445811   7               09042017000000000007500001000213                         0900000000000010000000000000000000000000000000000000000   0000000000000000000000000A9        170192957705     
0010001300112U 020000000000000000000000000000000000000000000000000000000000000000000000000000000000000000000000000000000000000000000000000704201700000000            000000000000000                              000                           
0010001300113T 020180230000001544772 29577051672706542   7               09042017000000000007500001012408                         0900000000000010000000000000000000000000000000000000000   0000000000000000000000000A9        170192957705     
0010001300114U 020000000000000000000000000000000000000000000000000000000000000000000000000000000000000000000000000000000000000000000000000704201700000000            000000000000000                              000                           
0010001300115T 020180230000001544772 29577051672917976   7               09042017000000000007500001012408                         0900000000000010000000000000000000000000000000000000000   0000000000000000000000000A9        170192957705     
0010001300116U 020000000000000000000000000000000000000000000000000000000000000000000000000000000000000000000000000000000000000000000000000704201700000000            000000000000000                              000                           
0010001300117T 020180230000001544772 29577051672936460   7               09042017000000000007500001012408                         0900000000000010000000000000000000000000000000000000000   0000000000000000000000000A9        170192957705     
0010001300118U 020000000000000000000000000000000000000000000000000000000000000000000000000000000000000000000000000000000000000000000000000704201700000000            000000000000000                              000                           
0010001300119T 020180230000001544772 29577051673117617   7               09042017000000000007500001000213                         0900000000000010000000000000000000000000000000000000000   0000000000000000000000000A9        170192957705     
0010001300120U 020000000000000000000000000000000000000000000000000000000000000000000000000000000000000000000000000000000000000000000000000704201700000000            000000000000000                              000                           
0010001300121T 020180230000001544772 29577051673536152   7               0904201700000000000750000103049X                         0900000000000010000000000000000000000000000000000000000   0000000000000000000000000A9        170192957705     
0010001300122U 020000000000000000000000000000000000000000000000000000000000000000000000000000000000000000000000000000000000000000000000000704201700000000            000000000000000                              000                           
0010001300123T 020180230000001544772 29577051673628810   7               0904201700000000000750000103049X                         0900000000000010000000000000000000000000000000000000000   0000000000000000000000000A9        170192957705     
0010001300124U 020000000000000000000000000000000000000000000000000000000000000000000000000000000000000000000000000000000000000000000000000704201700000000            000000000000000                              000                           
0010001300125T 020180230000001544772 29577051673725934   7               09042017000000000007500001000213                         0900000000000010000000000000000000000000000000000000000   0000000000000000000000000A9        170192957705     
0010001300126U 020000000000000000000000000000000000000000000000000000000000000000000000000000000000000000000000000000000000000000000000000704201700000000            000000000000000                              000                           
0010001300127T 020180230000001544772 29577051674105462   7               09042017000000000007500001008036                         0900000000000010000000000000000000000000000000000000000   0000000000000000000000000A9        170192957705     
0010001300128U 020000000000000000000000000000000000000000000000000000000000000000000000000000000000000000000000000000000000000000000000000704201700000000            000000000000000                              000                           
0010001300129T 060180230000001544772 29577050368558115   7               09042017000000000007500237017230                         0900000000000010000000000000000000000000000000000000000   000000000000000000000029000        170192957705     
0010001300130U 060000000000000000000000000000000000000000000000000000000000000000000000075000000000000072100000000000000000000000000000000704201710042017            000000000000000                              000                           
0010001300131T 170180230000001544772 29577050496500545   7               00000000000000000007500104015400                         0900000000000010000000000000000000000000000000000000000   000000000000000000000070003        170192957705     
0010001300132U 170000000000000000000000000000000000000000000000000000000000000000000000075000000000000068000000000000000000000000000000000704201710042017            000000000000000                              000                           
0010001300133T 060180230000001544772 29577050674656768   7               09042017000000000007500237079910                         0900000000000010000000000000000000000000000000000000000   000000000000000000000029000        170192957705     
0010001300134U 060000000000000000000000000000000000000000000000000000000000000000000000075000000000000072100000000000000000000000000000000704201710042017            000000000000000                              000                           
0010001300135T 060180230000001544772 29577051037339728   7               09042017000000000007500104001670                         0900000000000010000000000000000000000000000000000000000   000000000000000000000029000        170192957705     
0010001300136U 060000000000000000000000000000000000000000000000000000000000000000000000075000000000000072100000000000000000000000000000000704201710042017            000000000000000                              000                           
0010001300137T 060180230000001544772 29577051267613923   7               07042017000000000007500021001110                         0900000000000010000000000000000000000000000000000000000   000000000000000000000029000        170192957705     
0010001300138U 060000000000000000000000000000000000000000000000000000000000000000000000075000000000000072100000000000000000000000000000000704201710042017            000000000000000                              000                           
0010001300139T 060180230000001544772 29577051278229487   7               07042017000000000007500104008230                         0900000000000010000000000000000000000000000000000000000   000000000000000000000029000        170192957705     
0010001300140U 060000000000000000000000000000000000000000000000000000000000000000000000075000000000000072100000000000000000000000000000000704201710042017            000000000000000                              000                           
0010001300141T 060180230000001544772 29577051567524117   7               07042017000000000007500021001110                         0900000000000010000000000000000000000000000000000000000   000000000000000000000029000        170192957705     
0010001300142U 060000000000000000000000000000000000000000000000000000000000000000000000075000000000000072100000000000000000000000000000000704201710042017            000000000000000                              000                           
0010001300143T 060180230000001544772 29577051583921436   7               09042017000000000007500001078166                         0900000000000010000000000000000000000000000000000000000   000000000000000000000029000        170192957705     
0010001300144U 060000000000000000000000000000000000000000000000000000000000000000000000075000000000000072100000000000000000000000000000000704201710042017            000000000000000                              000                           
0010001300145T 060180230000001544772 29577051608206265   7               07042017000000000007500021000910                         0900000000000010000000000000000000000000000000000000000   000000000000000000000029000        170192957705     
0010001300146U 060000000000000000000000000000000000000000000000000000000000000000000000075000000000000072100000000000000000000000000000000704201710042017            000000000000000                              000                           
0010001300147T 060180230000001544772 29577051612559141   7               07042017000000000007500341059290                         0900000000000010000000000000000000000000000000000000000   000000000000000000000029000        170192957705     
0010001300148U 060000000000000000000000000000000000000000000000000000000000000000000000075000000000000072100000000000000000000000000000000704201710042017            000000000000000                              000                           
0010001300149T 060180230000001544772 29577051613202151   7               07042017000000000007500104020420                         0900000000000010000000000000000000000000000000000000000   000000000000000000000029000        170192957705     
0010001300150U 060000000000000000000000000000000000000000000000000000000000000000000000075000000000000072100000000000000000000000000000000704201710042017            000000000000000                              000                           
0010001300151T 060180230000001544772 29577051614809898   7               07042017000000000007500001012416                         0900000000000010000000000000000000000000000000000000000   000000000000000000000029000        170192957705     
0010001300152U 060000000000000000000000000000000000000000000000000000000000000000000000075000000000000072100000000000000000000000000000000704201710042017            000000000000000                              000                           
0010001300153T 060180230000001544772 29577051615102125   7               07042017000000000007500033022880                         0900000000000010000000000000000000000000000000000000000   000000000000000000000029000        170192957705     
0010001300154U 060000000000000000000000000000000000000000000000000000000000000000000000075000000000000072100000000000000000000000000000000704201710042017            000000000000000                              000                           
0010001300155T 060180230000001544772 29577051618645264   7               09042017000000000007500104041920                         0900000000000010000000000000000000000000000000000000000   000000000000000000000029000        170192957705     
0010001300156U 060000000000000000000000000000000000000000000000000000000000000000000000075000000000000072100000000000000000000000000000000704201710042017            000000000000000                              000                           
0010001300157T 170180230000001544772 29577051643449662   7               00000000000000000007500033001020                         0900000000000010000000000000000000000000000000000000000   000000000000000000000070003        170192957705     
0010001300158U 170000000000000000000000000000000000000000000000000000000000000000000000075000000000000068000000000000000000000000000000000704201710042017            000000000000000                              000                           
0010001300159T 060180230000001544772 29577051648559384   7               09042017000000000007500001078166                         0900000000000010000000000000000000000000000000000000000   000000000000000000000029000        170192957705     
0010001300160U 060000000000000000000000000000000000000000000000000000000000000000000000075000000000000072100000000000000000000000000000000704201710042017            000000000000000                              000                           
0010001300161T 060180230000001544772 29577051651808311   7               09042017000000000007500104037790                         0900000000000010000000000000000000000000000000000000000   000000000000000000000029000        170192957705     
0010001300162U 060000000000000000000000000000000000000000000000000000000000000000000000075000000000000072100000000000000000000000000000000704201710042017            000000000000000                              000                           
0010001300163T 060180230000001544772 29577051655046657   7               09042017000000000007500021001840                         0900000000000010000000000000000000000000000000000000000   000000000000000000000029000        170192957705     
0010001300164U 060000000000000000000000000000000000000000000000000000000000000000000000075000000000000072100000000000000000000000000000000704201710042017            000000000000000                              000                           
0010001300165T 060180230000001544772 29577051656854143   7               09042017000000000007500104037790                         0900000000000010000000000000000000000000000000000000000   000000000000000000000029000        170192957705     
0010001300166U 060000000000000000000000000000000000000000000000000000000000000000000000075000000000000072100000000000000000000000000000000704201710042017            000000000000000                              000                           
0010001300167T 060180230000001544772 29577051669418855   7               09042017000000000007500001040355                         0900000000000010000000000000000000000000000000000000000   000000000000000000000029000        170192957705     
0010001300168U 060000000000000000000000000000000000000000000000000000000000000000000000075000000000000072100000000000000000000000000000000704201710042017            000000000000000                              000                           
0010001300169T 090180230000001544772 29577050050049856   788888888888889907012017000000000007500001000701888888888888899          0900000000000000000000000000000000000000000000000000000   000000000000000000000010009        170192957705     
0010001300170U 090000000000000000000000000000000000000000000000000000000000000000000000000000000000000000000000000000000000000000000000000704201700000000            000000000000000                              000                           
0010001300171T 090180230000001544772 29577050052555189   788888888888889907012017000000000007500001012416888888888888899          0900000000000000000000000000000000000000000000000000000   000000000000000000000010009        170192957705     
0010001300172U 090000000000000000000000000000000000000000000000000000000000000000000000000000000000000000000000000000000000000000000000000704201700000000            000000000000000                              000                           
0010001300173T 090180230000001544772 29577050055626069   788888888888889907012017000000000007500001012416888888888888899          0900000000000000000000000000000000000000000000000000000   000000000000000000000010009        170192957705     
0010001300174U 090000000000000000000000000000000000000000000000000000000000000000000000000000000000000000000000000000000000000000000000000704201700000000            000000000000000                              000                           
0010001300175T 090180230000001544772 29577050058723707   788888888888889907012017000000000007500001012408888888888888899          0900000000000000000000000000000000000000000000000000000   000000000000000000000010009        170192957705     
0010001300176U 090000000000000000000000000000000000000000000000000000000000000000000000000000000000000000000000000000000000000000000000000704201700000000            000000000000000                              000                           
0010001300177T 090180230000001544772 29577050058726147   788888888888889907012017000000000007500001012408888888888888899          0900000000000000000000000000000000000000000000000000000   000000000000000000000010009        170192957705     
0010001300178U 090000000000000000000000000000000000000000000000000000000000000000000000000000000000000000000000000000000000000000000000000704201700000000            000000000000000                              000                           
0010001300179T 090180230000001544772 29577050058731385   788888888888889907012017000000000007500001012408888888888888899          0900000000000000000000000000000000000000000000000000000   000000000000000000000010009        170192957705     
0010001300180U 090000000000000000000000000000000000000000000000000000000000000000000000000000000000000000000000000000000000000000000000000704201700000000            000000000000000                              000                           
0010001300181T 090180230000001544772 29577050068959566   788888888888889907012017000000000007500001012416888888888888899          0900000000000000000000000000000000000000000000000000000   000000000000000000000010009        170192957705     
0010001300182U 090000000000000000000000000000000000000000000000000000000000000000000000000000000000000000000000000000000000000000000000000704201700000000            000000000000000                              000                           
0010001300183T 090180230000001544772 29577050128049942   788888888888889907012017000000000007500001000213888888888888899          0900000000000000000000000000000000000000000000000000000   000000000000000000000010009        170192957705     
0010001300184U 090000000000000000000000000000000000000000000000000000000000000000000000000000000000000000000000000000000000000000000000000704201700000000            000000000000000                              000                           
0010001300185T 090180230000001544772 29577050130530684   78888888888888990701201700000000000750000103049X888888888888899          0900000000000000000000000000000000000000000000000000000   000000000000000000000010009        170192957705     
0010001300186U 090000000000000000000000000000000000000000000000000000000000000000000000000000000000000000000000000000000000000000000000000704201700000000            000000000000000                              000                           
0010001300187T 090180230000001544772 29577050130554564   78888888888888990701201700000000000750000103049X888888888888899          0900000000000000000000000000000000000000000000000000000   000000000000000000000010009        170192957705     
0010001300188U 090000000000000000000000000000000000000000000000000000000000000000000000000000000000000000000000000000000000000000000000000704201700000000            000000000000000                              000                           
0010001300189T 090180230000001544772 29577050130855613   788888888888889907012017000000000007500001000213888888888888899          0900000000000000000000000000000000000000000000000000000   000000000000000000000010009        170192957705     
0010001300190U 090000000000000000000000000000000000000000000000000000000000000000000000000000000000000000000000000000000000000000000000000704201700000000            000000000000000                              000                           
0010001300191T 090180230000001544772 29577050139910658   788888888888889907012017000000000007500001009245888888888888899          0900000000000000000000000000000000000000000000000000000   000000000000000000000010009        170192957705     
0010001300192U 090000000000000000000000000000000000000000000000000000000000000000000000000000000000000000000000000000000000000000000000000704201700000000            000000000000000                              000                           
0010001300193T 090180230000001544772 29577050140339859   788888888888889907012017000000000007500001009245888888888888899          0900000000000000000000000000000000000000000000000000000   000000000000000000000010009        170192957705     
0010001300194U 090000000000000000000000000000000000000000000000000000000000000000000000000000000000000000000000000000000000000000000000000704201700000000            000000000000000                              000                           
0010001300195T 090180230000001544772 29577050156242393   788888888888889907012017000000000007500001012408888888888888899          0900000000000000000000000000000000000000000000000000000   000000000000000000000010009        170192957705     
0010001300196U 090000000000000000000000000000000000000000000000000000000000000000000000000000000000000000000000000000000000000000000000000704201700000000            000000000000000                              000                           
0010001300197T 090180230000001544772 29577050156339603   788888888888889907012017000000000007500001007854888888888888899          0900000000000000000000000000000000000000000000000000000   000000000000000000000010009        170192957705     
0010001300198U 090000000000000000000000000000000000000000000000000000000000000000000000000000000000000000000000000000000000000000000000000704201700000000            000000000000000                              000                           
0010001300199T 090180230000001544772 29577050156442839   788888888888889907012017000000000007500001000213888888888888899          0900000000000000000000000000000000000000000000000000000   000000000000000000000010009        170192957705     
0010001300200U 090000000000000000000000000000000000000000000000000000000000000000000000000000000000000000000000000000000000000000000000000704201700000000            000000000000000                              000                           
0010001300201T 090180230000001544772 29577050156725201   788888888888889907012017000000000007500001012408888888888888899          0900000000000000000000000000000000000000000000000000000   000000000000000000000010009        170192957705     
0010001300202U 090000000000000000000000000000000000000000000000000000000000000000000000000000000000000000000000000000000000000000000000000704201700000000            000000000000000                              000                           
0010001300203T 090180230000001544772 29577050156854992   788888888888889907012017000000000007500001000213888888888888899          0900000000000000000000000000000000000000000000000000000   000000000000000000000010009        170192957705     
0010001300204U 090000000000000000000000000000000000000000000000000000000000000000000000000000000000000000000000000000000000000000000000000704201700000000            000000000000000                              000                           
0010001300205T 090180230000001544772 29577050157023238   788888888888889907012017000000000007500001000213888888888888899          0900000000000000000000000000000000000000000000000000000   000000000000000000000010009        170192957705     
0010001300206U 090000000000000000000000000000000000000000000000000000000000000000000000000000000000000000000000000000000000000000000000000704201700000000            000000000000000                              000                           
0010001300207T 090180230000001544772 29577050157123118   788888888888889907012017000000000007500001008338888888888888899          0900000000000000000000000000000000000000000000000000000   000000000000000000000010009        170192957705     
0010001300208U 090000000000000000000000000000000000000000000000000000000000000000000000000000000000000000000000000000000000000000000000000704201700000000            000000000000000                              000                           
0010001300209T 090180230000001544772 29577050157147026   788888888888889907012017000000000007500001008338888888888888899          0900000000000000000000000000000000000000000000000000000   000000000000000000000010009        170192957705     
0010001300210U 090000000000000000000000000000000000000000000000000000000000000000000000000000000000000000000000000000000000000000000000000704201700000000            000000000000000                              000                           
0010001300211T 090180230000001544772 29577050157240096   788888888888889907012017000000000007500001000213888888888888899          0900000000000000000000000000000000000000000000000000000   000000000000000000000010009        170192957705     
0010001300212U 090000000000000000000000000000000000000000000000000000000000000000000000000000000000000000000000000000000000000000000000000704201700000000            000000000000000                              000                           
0010001300213T 090180230000001544772 29577050157517476   788888888888889907012017000000000007500001012408888888888888899          0900000000000000000000000000000000000000000000000000000   000000000000000000000010009        170192957705     
0010001300214U 090000000000000000000000000000000000000000000000000000000000000000000000000000000000000000000000000000000000000000000000000704201700000000            000000000000000                              000                           
0010001300215T 090180230000001544772 29577050157529698   788888888888889907012017000000000007500001012408888888888888899          0900000000000000000000000000000000000000000000000000000   000000000000000000000010009        170192957705     
0010001300216U 090000000000000000000000000000000000000000000000000000000000000000000000000000000000000000000000000000000000000000000000000704201700000000            000000000000000                              000                           
0010001300217T 090180230000001544772 29577050157642988   788888888888889907012017000000000007500001012408888888888888899          0900000000000000000000000000000000000000000000000000000   000000000000000000000010009        170192957705     
0010001300218U 090000000000000000000000000000000000000000000000000000000000000000000000000000000000000000000000000000000000000000000000000704201700000000            000000000000000                              000                           
0010001300219T 090180230000001544772 29577050157811438   788888888888889907012017000000000007500001000833888888888888899          0900000000000000000000000000000000000000000000000000000   000000000000000000000010009        170192957705     
0010001300220U 090000000000000000000000000000000000000000000000000000000000000000000000000000000000000000000000000000000000000000000000000704201700000000            000000000000000                              000                           
0010001300221T 090180230000001544772 29577050157900037   788888888888889907012017000000000007500001000833888888888888899          0900000000000000000000000000000000000000000000000000000   000000000000000000000010009        170192957705     
0010001300222U 090000000000000000000000000000000000000000000000000000000000000000000000000000000000000000000000000000000000000000000000000704201700000000            000000000000000                              000                           
0010001300223T 090180230000001544772 29577050158103609   788888888888889907012017000000000007500001036900888888888888899          0900000000000000000000000000000000000000000000000000000   000000000000000000000010009        170192957705     
0010001300224U 090000000000000000000000000000000000000000000000000000000000000000000000000000000000000000000000000000000000000000000000000704201700000000            000000000000000                              000                           
0010001300225T 090180230000001544772 29577050158107919   788888888888889907012017000000000007500001036900888888888888899          0900000000000000000000000000000000000000000000000000000   000000000000000000000010009        170192957705     
0010001300226U 090000000000000000000000000000000000000000000000000000000000000000000000000000000000000000000000000000000000000000000000000704201700000000            000000000000000                              000                           
0010001300227T 090180230000001544772 29577050158137683   788888888888889907012017000000000007500001036900888888888888899          0900000000000000000000000000000000000000000000000000000   000000000000000000000010009        170192957705     
0010001300228U 090000000000000000000000000000000000000000000000000000000000000000000000000000000000000000000000000000000000000000000000000704201700000000            000000000000000                              000                           
0010001300229T 090180230000001544772 29577050158216849   788888888888889907012017000000000007500001000833888888888888899          0900000000000000000000000000000000000000000000000000000   000000000000000000000010009        170192957705     
0010001300230U 090000000000000000000000000000000000000000000000000000000000000000000000000000000000000000000000000000000000000000000000000704201700000000            000000000000000                              000                           
0010001300231T 090180230000001544772 29577050158304566   788888888888889907012017000000000007500001000833888888888888899          0900000000000000000000000000000000000000000000000000000   000000000000000000000010009        170192957705     
0010001300232U 090000000000000000000000000000000000000000000000000000000000000000000000000000000000000000000000000000000000000000000000000704201700000000            000000000000000                              000                           
0010001300233T 090180230000001544772 29577050163030522   78888888888888990701201700000000000750000103049X888888888888899          0900000000000000000000000000000000000000000000000000000   000000000000000000000010009        170192957705     
0010001300234U 090000000000000000000000000000000000000000000000000000000000000000000000000000000000000000000000000000000000000000000000000704201700000000            000000000000000                              000                           
0010001300235T 090180230000001544772 29577050163228742   78888888888888990701201700000000001000000103049X888888888888899          0900000000000000000000000000000000000000000000000000000   000000000000000000000010009        170192957705     
0010001300236U 090000000000000000000000000000000000000000000000000000000000000000000000000000000000000000000000000000000000000000000000000704201700000000            000000000000000                              000                           
0010001300237T 090180230000001544772 29577050163442909   788888888888889907012017000000000007500001012408888888888888899          0900000000000000000000000000000000000000000000000000000   000000000000000000000010009        170192957705     
0010001300238U 090000000000000000000000000000000000000000000000000000000000000000000000000000000000000000000000000000000000000000000000000704201700000000            000000000000000                              000                           
0010001300239T 090180230000001544772 29577050163611784   78888888888888990701201700000000000750000103049X888888888888899          0900000000000000000000000000000000000000000000000000000   000000000000000000000010009        170192957705     
0010001300240U 090000000000000000000000000000000000000000000000000000000000000000000000000000000000000000000000000000000000000000000000000704201700000000            000000000000000                              000                           
0010001300241T 090180230000001544772 29577050163650628   78888888888888990701201700000000000750000103049X888888888888899          0900000000000000000000000000000000000000000000000000000   000000000000000000000010009        170192957705     
0010001300242U 090000000000000000000000000000000000000000000000000000000000000000000000000000000000000000000000000000000000000000000000000704201700000000            000000000000000                              000                           
0010001300243T 090180230000001544772 29577050163729787   78888888888888990701201700000000000750000103049X888888888888899          0900000000000000000000000000000000000000000000000000000   000000000000000000000010009        170192957705     
0010001300244U 090000000000000000000000000000000000000000000000000000000000000000000000000000000000000000000000000000000000000000000000000704201700000000            000000000000000                              000                           
0010001300245T 090180230000001544772 29577050163909071   78888888888888990701201700000000000750000103049X888888888888899          0900000000000000000000000000000000000000000000000000000   000000000000000000000010009        170192957705     
0010001300246U 090000000000000000000000000000000000000000000000000000000000000000000000000000000000000000000000000000000000000000000000000704201700000000            000000000000000                              000                           
0010001300247T 090180230000001544772 29577050164043658   788888888888889907012017000000000007500001012416888888888888899          0900000000000000000000000000000000000000000000000000000   000000000000000000000010009        170192957705     
0010001300248U 090000000000000000000000000000000000000000000000000000000000000000000000000000000000000000000000000000000000000000000000000704201700000000            000000000000000                              000                           
0010001300249T 280180230000001544772 29577050010802298   7               08032017000000000007500001000000                         0900000000000000000000000000000000000000000000000000000   000000000000000000000005002        170192957705     
0010001300250U 280000000000000000000000000000000000000000000000000000000000000000000000000000000000000000000000000000000000000000000000000704201700000000            000000000000000                              000                           
0010001300251T 280180230000001544772 29577050020543505   7               08032017000000000007500001000000                         0900000000000000000000000000000000000000000000000000000   000000000000000000000005002        170192957705     
0010001300252U 280000000000000000000000000000000000000000000000000000000000000000000000000000000000000000000000000000000000000000000000000704201700000000            000000000000000                              000                           
0010001300253T 280180230000001544772 29577050020827626   7               08032017000000000007500001000000                         0900000000000000000000000000000000000000000000000000000   000000000000000000000005002        170192957705     
0010001300254U 280000000000000000000000000000000000000000000000000000000000000000000000000000000000000000000000000000000000000000000000000704201700000000            000000000000000                              000                           
0010001300255T 280180230000001544772 29577050036257487   7               08032017000000000007500001000000                         0900000000000000000000000000000000000000000000000000000   000000000000000000000005002        170192957705     
0010001300256U 280000000000000000000000000000000000000000000000000000000000000000000000000000000000000000000000000000000000000000000000000704201700000000            000000000000000                              000                           
0010001300257T 280180230000001544772 29577050041721903   7               08032017000000000007500001000000                         0900000000000000000000000000000000000000000000000000000   000000000000000000000005002        170192957705     
0010001300258U 280000000000000000000000000000000000000000000000000000000000000000000000000000000000000000000000000000000000000000000000000704201700000000            000000000000000                              000                           
0010001300259T 280180230000001544772 29577050052506634   7               08032017000000000007500001000000                         0900000000000000000000000000000000000000000000000000000   000000000000000000000005002        170192957705     
0010001300260U 280000000000000000000000000000000000000000000000000000000000000000000000000000000000000000000000000000000000000000000000000704201700000000            000000000000000                              000                           
0010001300261T 280180230000001544772 29577050060120445   7               08032017000000000007500001000000                         0900000000000000000000000000000000000000000000000000000   000000000000000000000005002        170192957705     
0010001300262U 280000000000000000000000000000000000000000000000000000000000000000000000000000000000000000000000000000000000000000000000000704201700000000            000000000000000                              000                           
0010001300263T 280180230000001544772 29577050064002668   7               08032017000000000007500001000000                         0900000000000000000000000000000000000000000000000000000   000000000000000000000005002        170192957705     
0010001300264U 280000000000000000000000000000000000000000000000000000000000000000000000000000000000000000000000000000000000000000000000000704201700000000            000000000000000                              000                           
0010001300265T 280180230000001544772 29577050070918833   7               08032017000000000007500001000000                         0900000000000000000000000000000000000000000000000000000   000000000000000000000005002        170192957705     
0010001300266U 280000000000000000000000000000000000000000000000000000000000000000000000000000000000000000000000000000000000000000000000000704201700000000            000000000000000                              000                           
0010001300267T 280180230000001544772 29577050070921909   7               08032017000000000007500001000000                         0900000000000000000000000000000000000000000000000000000   000000000000000000000005002        170192957705     
0010001300268U 280000000000000000000000000000000000000000000000000000000000000000000000000000000000000000000000000000000000000000000000000704201700000000            000000000000000                              000                           
0010001300269T 280180230000001544772 29577050070938532   7               08032017000000000007500001000000                         0900000000000000000000000000000000000000000000000000000   000000000000000000000005002        170192957705     
0010001300270U 280000000000000000000000000000000000000000000000000000000000000000000000000000000000000000000000000000000000000000000000000704201700000000            000000000000000                              000                           
0010001300271T 280180230000001544772 29577050070946657   7               08032017000000000007500001000000                         0900000000000000000000000000000000000000000000000000000   000000000000000000000005002        170192957705     
0010001300272U 280000000000000000000000000000000000000000000000000000000000000000000000000000000000000000000000000000000000000000000000000704201700000000            000000000000000                              000                           
0010001300273T 280180230000001544772 29577050070948051   7               08032017000000000007500001000000                         0900000000000000000000000000000000000000000000000000000   000000000000000000000005002        170192957705     
0010001300274U 280000000000000000000000000000000000000000000000000000000000000000000000000000000000000000000000000000000000000000000000000704201700000000            000000000000000                              000                           
0010001300275T 280180230000001544772 29577050075328972   788888888888889906022017000000000007500001000000888888888888899          0900000000000000000000000000000000000000000000000000000   000000000000000000000005002        170192957705     
0010001300276U 280000000000000000000000000000000000000000000000000000000000000000000000000000000000000000000000000000000000000000000000000704201700000000            000000000000000                              000                           
0010001300277T 280180230000001544772 29577050080832025   7               08032017000000000007500001000000                         0900000000000000000000000000000000000000000000000000000   000000000000000000000005002        170192957705     
0010001300278U 280000000000000000000000000000000000000000000000000000000000000000000000000000000000000000000000000000000000000000000000000704201700000000            000000000000000                              000                           
0010001300279T 280180230000001544772 29577050081244962   7               08032017000000000007500001000000                         0900000000000000000000000000000000000000000000000000000   000000000000000000000005002        170192957705     
0010001300280U 280000000000000000000000000000000000000000000000000000000000000000000000000000000000000000000000000000000000000000000000000704201700000000            000000000000000                              000                           
0010001300281T 280180230000001544772 29577050088819697   7               08032017000000000007500001000000                         0900000000000000000000000000000000000000000000000000000   000000000000000000000005002        170192957705     
0010001300282U 280000000000000000000000000000000000000000000000000000000000000000000000000000000000000000000000000000000000000000000000000704201700000000            000000000000000                              000                           
0010001300283T 280180230000001544772 29577050093622755   7               08032017000000000007500001000000                         0900000000000000000000000000000000000000000000000000000   000000000000000000000005002        170192957705     
0010001300284U 280000000000000000000000000000000000000000000000000000000000000000000000000000000000000000000000000000000000000000000000000704201700000000            000000000000000                              000                           
0010001300285T 280180230000001544772 29577050096106417   7               08032017000000000007500001000000                         0900000000000000000000000000000000000000000000000000000   000000000000000000000005002        170192957705     
0010001300286U 280000000000000000000000000000000000000000000000000000000000000000000000000000000000000000000000000000000000000000000000000704201700000000            000000000000000                              000                           
0010001300287T 280180230000001544772 29577050096134080   7               08032017000000000007500001000000                         0900000000000000000000000000000000000000000000000000000   000000000000000000000005002        170192957705     
0010001300288U 280000000000000000000000000000000000000000000000000000000000000000000000000000000000000000000000000000000000000000000000000704201700000000            000000000000000                              000                           
0010001300289T 280180230000001544772 29577050100256255   7               08032017000000000007500001000000                         0900000000000000000000000000000000000000000000000000000   000000000000000000000005002        170192957705     
0010001300290U 280000000000000000000000000000000000000000000000000000000000000000000000000000000000000000000000000000000000000000000000000704201700000000            000000000000000                              000                           
0010001300291T 280180230000001544772 29577050102925254   788888888888889906022017000000000007500001000000888888888888899          0900000000000000000000000000000000000000000000000000000   000000000000000000000005002        170192957705     
0010001300292U 280000000000000000000000000000000000000000000000000000000000000000000000000000000000000000000000000000000000000000000000000704201700000000            000000000000000                              000                           
0010001300293T 280180230000001544772 29577050102936836   788888888888889906022017000000000007500001000000888888888888899          0900000000000000000000000000000000000000000000000000000   000000000000000000000005002        170192957705     
0010001300294U 280000000000000000000000000000000000000000000000000000000000000000000000000000000000000000000000000000000000000000000000000704201700000000            000000000000000                              000                           
0010001300295T 280180230000001544772 29577050124037246   7               08032017000000000007500001000000                         0900000000000000000000000000000000000000000000000000000   000000000000000000000005002        170192957705     
0010001300296U 280000000000000000000000000000000000000000000000000000000000000000000000000000000000000000000000000000000000000000000000000704201700000000            000000000000000                              000                           
0010001300297T 280180230000001544772 29577050124628493   7               08032017000000000007500001000000                         0900000000000000000000000000000000000000000000000000000   000000000000000000000005002        170192957705     
0010001300298U 280000000000000000000000000000000000000000000000000000000000000000000000000000000000000000000000000000000000000000000000000704201700000000            000000000000000                              000                           
0010001300299T 280180230000001544772 29577050130814525   788888888888889906022017000000000007500001000000888888888888899          0900000000000000000000000000000000000000000000000000000   000000000000000000000005002        170192957705     
0010001300300U 280000000000000000000000000000000000000000000000000000000000000000000000000000000000000000000000000000000000000000000000000704201700000000            000000000000000                              000                           
0010001300301T 280180230000001544772 29577050139231240   7               08032017000000000007500001000000                         0900000000000000000000000000000000000000000000000000000   000000000000000000000005002        170192957705     
0010001300302U 280000000000000000000000000000000000000000000000000000000000000000000000000000000000000000000000000000000000000000000000000704201700000000            000000000000000                              000                           
0010001300303T 280180230000001544772 29577050141133850   7               08032017000000000007500001000000                         0900000000000000000000000000000000000000000000000000000   000000000000000000000005002        170192957705     
0010001300304U 280000000000000000000000000000000000000000000000000000000000000000000000000000000000000000000000000000000000000000000000000704201700000000            000000000000000                              000                           
0010001300305T 280180230000001544772 29577050167102122   788888888888889906022017000000000007500001000000888888888888899          0900000000000000000000000000000000000000000000000000000   000000000000000000000005002        170192957705     
0010001300306U 280000000000000000000000000000000000000000000000000000000000000000000000000000000000000000000000000000000000000000000000000704201700000000            000000000000000                              000                           
0010001300307T 280180230000001544772 29577050167129735   7               08032017000000000007500001000000                         0900000000000000000000000000000000000000000000000000000   000000000000000000000005002        170192957705     
0010001300308U 280000000000000000000000000000000000000000000000000000000000000000000000000000000000000000000000000000000000000000000000000704201700000000            000000000000000                              000                           
0010001300309T 280180230000001544772 29577050170706178   7               08032017000000000007500001000000                         0900000000000000000000000000000000000000000000000000000   000000000000000000000005002        170192957705     
0010001300310U 280000000000000000000000000000000000000000000000000000000000000000000000000000000000000000000000000000000000000000000000000704201700000000            000000000000000                              000                           
0010001300311T 280180230000001544772 29577050171046541   7               08032017000000000007500001000000                         0900000000000000000000000000000000000000000000000000000   000000000000000000000005002        170192957705     
0010001300312U 280000000000000000000000000000000000000000000000000000000000000000000000000000000000000000000000000000000000000000000000000704201700000000            000000000000000                              000                           
0010001300313T 280180230000001544772 29577050178011762   788888888888889906022017000000000007500001000000888888888888899          0900000000000000000000000000000000000000000000000000000   000000000000000000000005002        170192957705     
0010001300314U 280000000000000000000000000000000000000000000000000000000000000000000000000000000000000000000000000000000000000000000000000704201700000000            000000000000000                              000                           
0010001300315T 280180230000001544772 29577050197347411   7               08032017000000000007500001000000                         0900000000000000000000000000000000000000000000000000000   000000000000000000000005002        170192957705     
0010001300316U 280000000000000000000000000000000000000000000000000000000000000000000000000000000000000000000000000000000000000000000000000704201700000000            000000000000000                              000                           
0010001300317T 280180230000001544772 29577050201139154   7               08032017000000000007500001000000                         0900000000000000000000000000000000000000000000000000000   000000000000000000000005002        170192957705     
0010001300318U 280000000000000000000000000000000000000000000000000000000000000000000000000000000000000000000000000000000000000000000000000704201700000000            000000000000000                              000                           
0010001300319T 280180230000001544772 29577050205924136   7               08032017000000000007500001000000                         0900000000000000000000000000000000000000000000000000000   000000000000000000000005002        170192957705     
0010001300320U 280000000000000000000000000000000000000000000000000000000000000000000000000000000000000000000000000000000000000000000000000704201700000000            000000000000000                              000                           
0010001300321T 280180230000001544772 29577050205946664   7               08032017000000000007500001000000                         0900000000000000000000000000000000000000000000000000000   000000000000000000000005002        170192957705     
0010001300322U 280000000000000000000000000000000000000000000000000000000000000000000000000000000000000000000000000000000000000000000000000704201700000000            000000000000000                              000                           
0010001300323T 280180230000001544772 29577050208344568   788888888888889906022017000000000007500001000000888888888888899          0900000000000000000000000000000000000000000000000000000   000000000000000000000005002        170192957705     
0010001300324U 280000000000000000000000000000000000000000000000000000000000000000000000000000000000000000000000000000000000000000000000000704201700000000            000000000000000                              000                           
0010001300325T 280180230000001544772 29577050214904647   7               08032017000000000007500001000000                         0900000000000000000000000000000000000000000000000000000   000000000000000000000005002        170192957705     
0010001300326U 280000000000000000000000000000000000000000000000000000000000000000000000000000000000000000000000000000000000000000000000000704201700000000            000000000000000                              000                           
0010001300327T 280180230000001544772 29577050216602403   7               08032017000000000007500001000000                         0900000000000000000000000000000000000000000000000000000   000000000000000000000005002        170192957705     
0010001300328U 280000000000000000000000000000000000000000000000000000000000000000000000000000000000000000000000000000000000000000000000000704201700000000            000000000000000                              000                           
0010001300329T 280180230000001544772 29577050233136814   788888888888889906022017000000000007500001000000888888888888899          0900000000000000000000000000000000000000000000000000000   000000000000000000000005002        170192957705     
0010001300330U 280000000000000000000000000000000000000000000000000000000000000000000000000000000000000000000000000000000000000000000000000704201700000000            000000000000000                              000                           
0010001300331T 280180230000001544772 29577050239717625   7               08032017000000000010000001000000                         0900000000000000000000000000000000000000000000000000000   000000000000000000000005002        170192957705     
0010001300332U 280000000000000000000000000000000000000000000000000000000000000000000000000000000000000000000000000000000000000000000000000704201700000000            000000000000000                              000                           
0010001300333T 280180230000001544772 29577050239719067   7               08032017000000000010000001000000                         0900000000000000000000000000000000000000000000000000000   000000000000000000000005002        170192957705     
0010001300334U 280000000000000000000000000000000000000000000000000000000000000000000000000000000000000000000000000000000000000000000000000704201700000000            000000000000000                              000                           
0010001300335T 280180230000001544772 29577050248159536   7               08032017000000000007500001000000                         0900000000000000000000000000000000000000000000000000000   000000000000000000000005002        170192957705     
0010001300336U 280000000000000000000000000000000000000000000000000000000000000000000000000000000000000000000000000000000000000000000000000704201700000000            000000000000000                              000                           
0010001300337T 280180230000001544772 29577050255628999   7               08032017000000000007500001000000                         0900000000000000000000000000000000000000000000000000000   000000000000000000000005002        170192957705     
0010001300338U 280000000000000000000000000000000000000000000000000000000000000000000000000000000000000000000000000000000000000000000000000704201700000000            000000000000000                              000                           
0010001300339T 280180230000001544772 29577050257251943   788888888888889906022017000000000007500001000000888888888888899          0900000000000000000000000000000000000000000000000000000   000000000000000000000005002        170192957705     
0010001300340U 280000000000000000000000000000000000000000000000000000000000000000000000000000000000000000000000000000000000000000000000000704201700000000            000000000000000                              000                           
0010001300341T 280180230000001544772 29577050259810238   7               08032017000000000007500001000000                         0900000000000000000000000000000000000000000000000000000   000000000000000000000005002        170192957705     
0010001300342U 280000000000000000000000000000000000000000000000000000000000000000000000000000000000000000000000000000000000000000000000000704201700000000            000000000000000                              000                           
0010001300343T 280180230000001544772 29577050259816232   7               08032017000000000007500001000000                         0900000000000000000000000000000000000000000000000000000   000000000000000000000005002        170192957705     
0010001300344U 280000000000000000000000000000000000000000000000000000000000000000000000000000000000000000000000000000000000000000000000000704201700000000            000000000000000                              000                           
0010001300345T 280180230000001544772 29577050269852632   7               08032017000000000007500001000000                         0900000000000000000000000000000000000000000000000000000   000000000000000000000005002        170192957705     
0010001300346U 280000000000000000000000000000000000000000000000000000000000000000000000000000000000000000000000000000000000000000000000000704201700000000            000000000000000                              000                           
0010001300347T 280180230000001544772 29577050271951518   788888888888889906022017000000000007500001000000888888888888899          0900000000000000000000000000000000000000000000000000000   000000000000000000000005002        170192957705     
0010001300348U 280000000000000000000000000000000000000000000000000000000000000000000000000000000000000000000000000000000000000000000000000704201700000000            000000000000000                              000                           
0010001300349T 280180230000001544772 29577050274729132   7               08032017000000000007500001000000                         0900000000000000000000000000000000000000000000000000000   000000000000000000000005002        170192957705     
0010001300350U 280000000000000000000000000000000000000000000000000000000000000000000000000000000000000000000000000000000000000000000000000704201700000000            000000000000000                              000                           
0010001300351T 280180230000001544772 29577050277252243   7               08032017000000000007500001000000                         0900000000000000000000000000000000000000000000000000000   000000000000000000000005002        170192957705     
0010001300352U 280000000000000000000000000000000000000000000000000000000000000000000000000000000000000000000000000000000000000000000000000704201700000000            000000000000000                              000                           
0010001300353T 280180230000001544772 29577050281331547   7               08032017000000000010000001000000                         0900000000000000000000000000000000000000000000000000000   000000000000000000000005002        170192957705     
0010001300354U 280000000000000000000000000000000000000000000000000000000000000000000000000000000000000000000000000000000000000000000000000704201700000000            000000000000000                              000                           
0010001300355T 280180230000001544772 29577050285713312   7               08032017000000000007500001000000                         0900000000000000000000000000000000000000000000000000000   000000000000000000000005002        170192957705     
0010001300356U 280000000000000000000000000000000000000000000000000000000000000000000000000000000000000000000000000000000000000000000000000704201700000000            000000000000000                              000                           
0010001300357T 280180230000001544772 29577050287334758   7               08032017000000000007500001000000                         0900000000000000000000000000000000000000000000000000000   000000000000000000000005002        170192957705     
0010001300358U 280000000000000000000000000000000000000000000000000000000000000000000000000000000000000000000000000000000000000000000000000704201700000000            000000000000000                              000                           
0010001300359T 280180230000001544772 29577050290624556   7               08032017000000000007500001000000                         0900000000000000000000000000000000000000000000000000000   000000000000000000000005002        170192957705     
0010001300360U 280000000000000000000000000000000000000000000000000000000000000000000000000000000000000000000000000000000000000000000000000704201700000000            000000000000000                              000                           
0010001300361T 280180230000001544772 29577050290646954   7               08032017000000000007500001000000                         0900000000000000000000000000000000000000000000000000000   000000000000000000000005002        170192957705     
0010001300362U 280000000000000000000000000000000000000000000000000000000000000000000000000000000000000000000000000000000000000000000000000704201700000000            000000000000000                              000                           
0010001300363T 280180230000001544772 29577050291821480   7               08032017000000000007500001000000                         0900000000000000000000000000000000000000000000000000000   000000000000000000000005002        170192957705     
0010001300364U 280000000000000000000000000000000000000000000000000000000000000000000000000000000000000000000000000000000000000000000000000704201700000000            000000000000000                              000                           
0010001300365T 280180230000001544772 29577050291858327   788888888888889906022017000000000007500001000000888888888888899          0900000000000000000000000000000000000000000000000000000   000000000000000000000005002        170192957705     
0010001300366U 280000000000000000000000000000000000000000000000000000000000000000000000000000000000000000000000000000000000000000000000000704201700000000            000000000000000                              000                           
0010001300367T 280180230000001544772 29577050310620165   7               08032017000000000007500001000000                         0900000000000000000000000000000000000000000000000000000   000000000000000000000005002        170192957705     
0010001300368U 280000000000000000000000000000000000000000000000000000000000000000000000000000000000000000000000000000000000000000000000000704201700000000            000000000000000                              000                           
0010001300369T 280180230000001544772 29577050310624719   7               08032017000000000007500001000000                         0900000000000000000000000000000000000000000000000000000   000000000000000000000005002        170192957705     
0010001300370U 280000000000000000000000000000000000000000000000000000000000000000000000000000000000000000000000000000000000000000000000000704201700000000            000000000000000                              000                           
0010001300371T 280180230000001544772 29577050325452198   788888888888889906022017000000000007500001000000888888888888899          0900000000000000000000000000000000000000000000000000000   000000000000000000000005002        170192957705     
0010001300372U 280000000000000000000000000000000000000000000000000000000000000000000000000000000000000000000000000000000000000000000000000704201700000000            000000000000000                              000                           
0010001300373T 280180230000001544772 29577050330141214   7               08032017000000000007500001000000                         0900000000000000000000000000000000000000000000000000000   000000000000000000000005002        170192957705     
0010001300374U 280000000000000000000000000000000000000000000000000000000000000000000000000000000000000000000000000000000000000000000000000704201700000000            000000000000000                              000                           
0010001300375T 280180230000001544772 29577050330201830   7               08032017000000000007500001000000                         0900000000000000000000000000000000000000000000000000000   000000000000000000000005002        170192957705     
0010001300376U 280000000000000000000000000000000000000000000000000000000000000000000000000000000000000000000000000000000000000000000000000704201700000000            000000000000000                              000                           
0010001300377T 280180230000001544772 29577050335548279   7               08032017000000000007500001000000                         0900000000000000000000000000000000000000000000000000000   000000000000000000000005002        170192957705     
0010001300378U 280000000000000000000000000000000000000000000000000000000000000000000000000000000000000000000000000000000000000000000000000704201700000000            000000000000000                              000                           
0010001300379T 280180230000001544772 29577050342738066   788888888888889906022017000000000007500001000000888888888888899          0900000000000000000000000000000000000000000000000000000   000000000000000000000005002        170192957705     
0010001300380U 280000000000000000000000000000000000000000000000000000000000000000000000000000000000000000000000000000000000000000000000000704201700000000            000000000000000                              000                           
0010001300381T 280180230000001544772 29577050346042888   7               08032017000000000007500001000000                         0900000000000000000000000000000000000000000000000000000   000000000000000000000005002        170192957705     
0010001300382U 280000000000000000000000000000000000000000000000000000000000000000000000000000000000000000000000000000000000000000000000000704201700000000            000000000000000                              000                           
0010001300383T 280180230000001544772 29577050353541003   7               08032017000000000007500001000000                         0900000000000000000000000000000000000000000000000000000   000000000000000000000005002        170192957705     
0010001300384U 280000000000000000000000000000000000000000000000000000000000000000000000000000000000000000000000000000000000000000000000000704201700000000            000000000000000                              000                           
0010001300385T 280180230000001544772 29577050356208210   788888888888889906022017000000000007500001000000888888888888899          0900000000000000000000000000000000000000000000000000000   000000000000000000000005002        170192957705     
0010001300386U 280000000000000000000000000000000000000000000000000000000000000000000000000000000000000000000000000000000000000000000000000704201700000000            000000000000000                              000                           
0010001300387T 280180230000001544772 29577050357739755   7               08032017000000000007500001000000                         0900000000000000000000000000000000000000000000000000000   000000000000000000000005002        170192957705     
0010001300388U 280000000000000000000000000000000000000000000000000000000000000000000000000000000000000000000000000000000000000000000000000704201700000000            000000000000000                              000                           
0010001300389T 280180230000001544772 29577050361502517   788888888888889906022017000000000007500001000000888888888888899          0900000000000000000000000000000000000000000000000000000   000000000000000000000005002        170192957705     
0010001300390U 280000000000000000000000000000000000000000000000000000000000000000000000000000000000000000000000000000000000000000000000000704201700000000            000000000000000                              000                           
0010001300391T 280180230000001544772 29577050369456154   7               08032017000000000007500001000000                         0900000000000000000000000000000000000000000000000000000   000000000000000000000005002        170192957705     
0010001300392U 280000000000000000000000000000000000000000000000000000000000000000000000000000000000000000000000000000000000000000000000000704201700000000            000000000000000                              000                           
0010001300393T 280180230000001544772 29577050383907481   7               08032017000000000007500001000000                         0900000000000000000000000000000000000000000000000000000   000000000000000000000005002        170192957705     
0010001300394U 280000000000000000000000000000000000000000000000000000000000000000000000000000000000000000000000000000000000000000000000000704201700000000            000000000000000                              000                           
0010001300395T 280180230000001544772 29577050383952793   7               08032017000000000007500001000000                         0900000000000000000000000000000000000000000000000000000   000000000000000000000005002        170192957705     
0010001300396U 280000000000000000000000000000000000000000000000000000000000000000000000000000000000000000000000000000000000000000000000000704201700000000            000000000000000                              000                           
0010001300397T 280180230000001544772 29577050398302263   7               08032017000000000007500001000000                         0900000000000000000000000000000000000000000000000000000   000000000000000000000005002        170192957705     
0010001300398U 280000000000000000000000000000000000000000000000000000000000000000000000000000000000000000000000000000000000000000000000000704201700000000            000000000000000                              000                           
0010001300399T 280180230000001544772 29577050398327641   7               08032017000000000007500001000000                         0900000000000000000000000000000000000000000000000000000   000000000000000000000005002        170192957705     
0010001300400U 280000000000000000000000000000000000000000000000000000000000000000000000000000000000000000000000000000000000000000000000000704201700000000            000000000000000                              000                           
0010001300401T 280180230000001544772 29577050398337105   7               08032017000000000007500001000000                         0900000000000000000000000000000000000000000000000000000   000000000000000000000005002        170192957705     
0010001300402U 280000000000000000000000000000000000000000000000000000000000000000000000000000000000000000000000000000000000000000000000000704201700000000            000000000000000                              000                           
0010001300403T 280180230000001544772 29577050404720443   7               08032017000000000007500001000000                         0900000000000000000000000000000000000000000000000000000   000000000000000000000005002        170192957705     
0010001300404U 280000000000000000000000000000000000000000000000000000000000000000000000000000000000000000000000000000000000000000000000000704201700000000            000000000000000                              000                           
0010001300405T 280180230000001544772 29577050412300276   7               08032017000000000007500001000000                         0900000000000000000000000000000000000000000000000000000   000000000000000000000005002        170192957705     
0010001300406U 280000000000000000000000000000000000000000000000000000000000000000000000000000000000000000000000000000000000000000000000000704201700000000            000000000000000                              000                           
0010001300407T 280180230000001544772 29577050414222614   788888888888889906022017000000000007500001000000888888888888899          0900000000000000000000000000000000000000000000000000000   000000000000000000000005002        170192957705     
0010001300408U 280000000000000000000000000000000000000000000000000000000000000000000000000000000000000000000000000000000000000000000000000704201700000000            000000000000000                              000                           
0010001300409T 280180230000001544772 29577050414432580   788888888888889906022017000000000007500001000000888888888888899          0900000000000000000000000000000000000000000000000000000   000000000000000000000005002        170192957705     
0010001300410U 280000000000000000000000000000000000000000000000000000000000000000000000000000000000000000000000000000000000000000000000000704201700000000            000000000000000                              000                           
0010001300411T 280180230000001544772 29577050414618392   788888888888889906022017000000000007500001000000888888888888899          0900000000000000000000000000000000000000000000000000000   000000000000000000000005002        170192957705     
0010001300412U 280000000000000000000000000000000000000000000000000000000000000000000000000000000000000000000000000000000000000000000000000704201700000000            000000000000000                              000                           
