00100000         2247745860001000029577050014       0180230000001544772 INSTITUTO DE SELECAO E TECNOLOBANCO DO BRASIL                         21004201702395900016803000000515122941PROCESSAMEN                                                 
00100011T0100020 20247745860001000029577050014       0180230000001544772 INSTITUTO DE SELECAO E TECNOLO                                                                                000000001004201700000000  000000000                      
0010001300001T 020180230000001544772 29577050026324576   7               1204201700000000000750000103049X                         0900000000000010000000000000000000000000000000000000000   0000000000000000000000000A9        170192957705     
0010001300002U 020000000000000000000000000000000000000000000000000000000000000000000000000000000000000000000000000000000000000000000000001004201700000000            000000000000000                              000                           
0010001300003T 020180230000001544772 29577050142815013   7               12042017000000000007500001000213                         0900000000000010000000000000000000000000000000000000000   0000000000000000000000000A9        170192957705     
0010001300004U 020000000000000000000000000000000000000000000000000000000000000000000000000000000000000000000000000000000000000000000000001004201700000000            000000000000000                              000                           
0010001300005T 020180230000001544772 29577050171652563   7               11042017000000000007500001000213                         0900000000000010000000000000000000000000000000000000000   0000000000000000000000000A9        170192957705     
0010001300006U 020000000000000000000000000000000000000000000000000000000000000000000000000000000000000000000000000000000000000000000000000904201700000000            000000000000000                              000                           
0010001300007T 020180230000001544772 29577050218932267   7               11042017000000000007500001012416                         0900000000000010000000000000000000000000000000000000000   0000000000000000000000000A9        170192957705     
0010001300008U 020000000000000000000000000000000000000000000000000000000000000000000000000000000000000000000000000000000000000000000000000904201700000000            000000000000000                              000                           
0010001300009T 020180230000001544772 29577050356240041   7               11042017000000000007500001012408                         0900000000000010000000000000000000000000000000000000000   0000000000000000000000000A9        170192957705     
0010001300010U 020000000000000000000000000000000000000000000000000000000000000000000000000000000000000000000000000000000000000000000000000904201700000000            000000000000000                              000                           
0010001300011T 020180230000001544772 29577050393316443   7               0904201700000000000750000103049X                         0900000000000010000000000000000000000000000000000000000   0000000000000000000000000A9        170192957705     
0010001300012U 020000000000000000000000000000000000000000000000000000000000000000000000000000000000000000000000000000000000000000000000000704201700000000            000000000000000                              000                           
0010001300013T 020180230000001544772 29577050448842114   7               1204201700000000000750000103049X                         0900000000000010000000000000000000000000000000000000000   0000000000000000000000000A9        170192957705     
0010001300014U 020000000000000000000000000000000000000000000000000000000000000000000000000000000000000000000000000000000000000000000000001004201700000000            000000000000000                              000                           
0010001300015T 020180230000001544772 29577050454506835   7               12042017000000000007500001004782                         0900000000000010000000000000000000000000000000000000000   0000000000000000000000000A9        170192957705     
0010001300016U 020000000000000000000000000000000000000000000000000000000000000000000000000000000000000000000000000000000000000000000000001004201700000000            000000000000000                              000                           
0010001300017T 020180230000001544772 29577050498703992   7               1204201700000000000750000103049X                         0900000000000010000000000000000000000000000000000000000   0000000000000000000000000A9        170192957705     
0010001300018U 020000000000000000000000000000000000000000000000000000000000000000000000000000000000000000000000000000000000000000000000001004201700000000            000000000000000                              000                           
0010001300019T 020180230000001544772 29577050608927588   7               1104201700000000000750000103049X                         0900000000000010000000000000000000000000000000000000000   0000000000000000000000000A9        170192957705     
0010001300020U 020000000000000000000000000000000000000000000000000000000000000000000000000000000000000000000000000000000000000000000000000904201700000000            000000000000000                              000                           
0010001300021T 020180230000001544772 29577050608936990   7               1104201700000000000750000103049X                         0900000000000010000000000000000000000000000000000000000   0000000000000000000000000A9        170192957705     
0010001300022U 020000000000000000000000000000000000000000000000000000000000000000000000000000000000000000000000000000000000000000000000000904201700000000            000000000000000                              000                           
0010001300023T 020180230000001544772 29577050634258823   7               1204201700000000000750000103049X                         0900000000000010000000000000000000000000000000000000000   0000000000000000000000000A9        170192957705     
0010001300024U 020000000000000000000000000000000000000000000000000000000000000000000000000000000000000000000000000000000000000000000000001004201700000000            000000000000000                              000                           
0010001300025T 020180230000001544772 29577050688355488   7               12042017000000000007500001012416                         0900000000000010000000000000000000000000000000000000000   0000000000000000000000000A9        170192957705     
0010001300026U 020000000000000000000000000000000000000000000000000000000000000000000000000000000000000000000000000000000000000000000000001004201700000000            000000000000000                              000                           
0010001300027T 020180230000001544772 29577050982546481   7               11042017000000000007500001000213                         0900000000000010000000000000000000000000000000000000000   0000000000000000000000000A9        170192957705     
0010001300028U 020000000000000000000000000000000000000000000000000000000000000000000000000000000000000000000000000000000000000000000000000904201700000000            000000000000000                              000                           
0010001300029T 020180230000001544772 29577050982737668   7               12042017000000000007500001000213                         0900000000000010000000000000000000000000000000000000000   0000000000000000000000000A9        170192957705     
0010001300030U 020000000000000000000000000000000000000000000000000000000000000000000000000000000000000000000000000000000000000000000000001004201700000000            000000000000000                              000                           
0010001300031T 020180230000001544772 29577051040936435   7               12042017000000000007500001045578                         0900000000000010000000000000000000000000000000000000000   0000000000000000000000000A9        170192957705     
0010001300032U 020000000000000000000000000000000000000000000000000000000000000000000000000000000000000000000000000000000000000000000000001004201700000000            000000000000000                              000                           
0010001300033T 020180230000001544772 29577051571108627   7               12042017000000000007500001012408                         0900000000000010000000000000000000000000000000000000000   0000000000000000000000000A9        170192957705     
0010001300034U 020000000000000000000000000000000000000000000000000000000000000000000000000000000000000000000000000000000000000000000000001004201700000000            000000000000000                              000                           
0010001300035T 020180230000001544772 29577051588403445   7               12042017000000000007500001000213                         0900000000000010000000000000000000000000000000000000000   0000000000000000000000000A9        170192957705     
0010001300036U 020000000000000000000000000000000000000000000000000000000000000000000000000000000000000000000000000000000000000000000000001004201700000000            000000000000000                              000                           
0010001300037T 020180230000001544772 29577051589415307   7               12042017000000000007500001046280                         0900000000000010000000000000000000000000000000000000000   0000000000000000000000000A9        170192957705     
0010001300038U 020000000000000000000000000000000000000000000000000000000000000000000000000000000000000000000000000000000000000000000000001004201700000000            000000000000000                              000                           
0010001300039T 020180230000001544772 29577051596413210   7               1104201700000000000750000103049X                         0900000000000010000000000000000000000000000000000000000   0000000000000000000000000A9        170192957705     
0010001300040U 020000000000000000000000000000000000000000000000000000000000000000000000000000000000000000000000000000000000000000000000000904201700000000            000000000000000                              000                           
0010001300041T 020180230000001544772 29577051616620810   7               10042017000000000010000001000213                         0900000000000010000000000000000000000000000000000000000   0000000000000000000000000A9        170192957705     
0010001300042U 020000000000000000000000000000000000000000000000000000000000000000000000000000000000000000000000000000000000000000000000000804201700000000            000000000000000                              000                           
0010001300043T 020180230000001544772 29577051620727917   7               10042017000000000007500001012408                         0900000000000010000000000000000000000000000000000000000   0000000000000000000000000A9        170192957705     
0010001300044U 020000000000000000000000000000000000000000000000000000000000000000000000000000000000000000000000000000000000000000000000000804201700000000            000000000000000                              000                           
0010001300045T 020180230000001544772 29577051621701066   7               12042017000000000007500001012416                         0900000000000010000000000000000000000000000000000000000   0000000000000000000000000A9        170192957705     
0010001300046U 020000000000000000000000000000000000000000000000000000000000000000000000000000000000000000000000000000000000000000000000001004201700000000            000000000000000                              000                           
0010001300047T 020180230000001544772 29577051646354516   7               10042017000000000007500001012408                         0900000000000010000000000000000000000000000000000000000   0000000000000000000000000A9        170192957705     
0010001300048U 020000000000000000000000000000000000000000000000000000000000000000000000000000000000000000000000000000000000000000000000000804201700000000            000000000000000                              000                           
0010001300049T 020180230000001544772 29577051662341981   7               12042017000000000007500001012408                         0900000000000010000000000000000000000000000000000000000   0000000000000000000000000A9        170192957705     
0010001300050U 020000000000000000000000000000000000000000000000000000000000000000000000000000000000000000000000000000000000000000000000001004201700000000            000000000000000                              000                           
0010001300051T 020180230000001544772 29577051662746029   7               10042017000000000007500001012408                         0900000000000010000000000000000000000000000000000000000   0000000000000000000000000A9        170192957705     
0010001300052U 020000000000000000000000000000000000000000000000000000000000000000000000000000000000000000000000000000000000000000000000000804201700000000            000000000000000                              000                           
0010001300053T 020180230000001544772 29577051664936425   7               11042017000000000007500001000213                         0900000000000010000000000000000000000000000000000000000   0000000000000000000000000A9        170192957705     
0010001300054U 020000000000000000000000000000000000000000000000000000000000000000000000000000000000000000000000000000000000000000000000000904201700000000            000000000000000                              000                           
0010001300055T 020180230000001544772 29577051672912140   7               12042017000000000007500001012408                         0900000000000010000000000000000000000000000000000000000   0000000000000000000000000A9        170192957705     
0010001300056U 020000000000000000000000000000000000000000000000000000000000000000000000000000000000000000000000000000000000000000000000001004201700000000            000000000000000                              000                           
0010001300057T 020180230000001544772 29577051673704503   7               10042017000000000007500001000213                         0900000000000010000000000000000000000000000000000000000   0000000000000000000000000A9        170192957705     
0010001300058U 020000000000000000000000000000000000000000000000000000000000000000000000000000000000000000000000000000000000000000000000000804201700000000            000000000000000                              000                           
0010001300059T 020180230000001544772 29577051681302658   7               10042017000000000007500001028029                         0900000000000010000000000000000000000000000000000000000   0000000000000000000000000A9        170192957705     
0010001300060U 020000000000000000000000000000000000000000000000000000000000000000000000000000000000000000000000000000000000000000000000000804201700000000            000000000000000                              000                           
0010001300061T 060180230000001544772 29577050008854293   7               08042017000000000010000237026120                         0900000000000010000000000000000000000000000000000000000   000000000000000000000029000        170192957705     
0010001300062U 060000000000000000000000000000000000000000000000000000000000000000000000100000000000000097100000000000000000000000000000001004201711042017            000000000000000                              000                           
0010001300063T 060180230000001544772 29577051616620810   7               10042017000000000010000001014079                         0900000000000010000000000000000000000000000000000000000   000000000000000000000029000        170192957705     
0010001300064U 060000000000000000000000000000000000000000000000000000000000000000000000100000000000000097100000000000000000000000000000001004201711042017            000000000000000                              000                           
0010001300065T 060180230000001544772 29577051634032595   7               08042017000000000007500104006900                         0900000000000010000000000000000000000000000000000000000   000000000000000000000029000        170192957705     
0010001300066U 060000000000000000000000000000000000000000000000000000000000000000000000075000000000000072100000000000000000000000000000001004201711042017            000000000000000                              000                           
0010001300067T 060180230000001544772 29577051639535369   7               08042017000000000007500021002740                         0900000000000010000000000000000000000000000000000000000   000000000000000000000029000        170192957705     
0010001300068U 060000000000000000000000000000000000000000000000000000000000000000000000075000000000000072100000000000000000000000000000001004201711042017            000000000000000                              000                           
0010001300069T 060180230000001544772 29577051646158210   7               08042017000000000007500104025210                         0900000000000010000000000000000000000000000000000000000   000000000000000000000029000        170192957705     
0010001300070U 060000000000000000000000000000000000000000000000000000000000000000000000075000000000000072100000000000000000000000000000001004201711042017            000000000000000                              000                           
0010001300071T 060180230000001544772 29577051646354516   7               10042017000000000007500104008800                         0900000000000010000000000000000000000000000000000000000   000000000000000000000029000        170192957705     
0010001300072U 060000000000000000000000000000000000000000000000000000000000000000000000075000000000000072100000000000000000000000000000001004201711042017            000000000000000                              000                           
0010001300073T 060180230000001544772 29577051653756075   7               09042017000000000010000001042102                         0900000000000010000000000000000000000000000000000000000   000000000000000000000029000        170192957705     
0010001300074U 060000000000000000000000000000000000000000000000000000000000000000000000100000000000000097100000000000000000000000000000001004201711042017            000000000000000                              000                           
0010001300075T 060180230000001544772 29577051659614926   7               09042017000000000007500104037790                         0900000000000010000000000000000000000000000000000000000   000000000000000000000029000        170192957705     
0010001300076U 060000000000000000000000000000000000000000000000000000000000000000000000075000000000000072100000000000000000000000000000001004201711042017            000000000000000                              000                           
0010001300077T 060180230000001544772 29577051662746029   7               10042017000000000007500021002080                         0900000000000010000000000000000000000000000000000000000   000000000000000000000029000        170192957705     
0010001300078U 060000000000000000000000000000000000000000000000000000000000000000000000075000000000000072100000000000000000000000000000001004201711042017            000000000000000                              000                           
0010001300079T 060180230000001544772 29577051664936425   7               11042017000000000007500021000340                         0900000000000010000000000000000000000000000000000000000   000000000000000000000029000        170192957705     
0010001300080U 060000000000000000000000000000000000000000000000000000000000000000000000075000000000000072100000000000000000000000000000001004201711042017            000000000000000                              000                           
0010001300081T 060180230000001544772 29577051665609839   7               09042017000000000007500021002740                         0900000000000010000000000000000000000000000000000000000   000000000000000000000029000        170192957705     
0010001300082U 060000000000000000000000000000000000000000000000000000000000000000000000075000000000000072100000000000000000000000000000001004201711042017            000000000000000                              000                           
0010001300083T 060180230000001544772 29577051673117617   7               09042017000000000007500001018023                         0900000000000010000000000000000000000000000000000000000   000000000000000000000029000        170192957705     
0010001300084U 060000000000000000000000000000000000000000000000000000000000000000000000075000000000000072100000000000000000000000000000001004201711042017            000000000000000                              000                           
0010001300085T 060180230000001544772 29577051673704503   7               10042017000000000007500001031941                         0900000000000010000000000000000000000000000000000000000   000000000000000000000029000        170192957705     
0010001300086U 060000000000000000000000000000000000000000000000000000000000000000000000075000000000000072100000000000000000000000000000001004201711042017            000000000000000                              000                           
0010001300087T 090180230000001544772 29577050020731019   788888888888889910012017000000000007500001012416888888888888899          0900000000000000000000000000000000000000000000000000000   000000000000000000000010009        170192957705     
0010001300088U 090000000000000000000000000000000000000000000000000000000000000000000000000000000000000000000000000000000000000000000000001004201700000000            000000000000000                              000                           
0010001300089T 090180230000001544772 29577050044355008   788888888888889909012017000000000007500001000213888888888888899          0900000000000000000000000000000000000000000000000000000   000000000000000000000010009        170192957705     
0010001300090U 090000000000000000000000000000000000000000000000000000000000000000000000000000000000000000000000000000000000000000000000001004201700000000            000000000000000                              000                           
0010001300091T 090180230000001544772 29577050047701671   788888888888889909012017000000000007500001012416888888888888899          0900000000000000000000000000000000000000000000000000000   000000000000000000000010009        170192957705     
0010001300092U 090000000000000000000000000000000000000000000000000000000000000000000000000000000000000000000000000000000000000000000000001004201700000000            000000000000000                              000                           
0010001300093T 090180230000001544772 29577050091244650   78888888888888991001201700000000000750000103049X888888888888899          0900000000000000000000000000000000000000000000000000000   000000000000000000000010009        170192957705     
0010001300094U 090000000000000000000000000000000000000000000000000000000000000000000000000000000000000000000000000000000000000000000000001004201700000000            000000000000000                              000                           
0010001300095T 090180230000001544772 29577050091730031   78888888888888990901201700000000000750000103049X888888888888899          0900000000000000000000000000000000000000000000000000000   000000000000000000000010009        170192957705     
0010001300096U 090000000000000000000000000000000000000000000000000000000000000000000000000000000000000000000000000000000000000000000000001004201700000000            000000000000000                              000                           
0010001300097T 090180230000001544772 29577050093620852   788888888888889910012017000000000007500001000213888888888888899          0900000000000000000000000000000000000000000000000000000   000000000000000000000010009        170192957705     
0010001300098U 090000000000000000000000000000000000000000000000000000000000000000000000000000000000000000000000000000000000000000000000001004201700000000            000000000000000                              000                           
0010001300099T 090180230000001544772 29577050101637913   788888888888889909012017000000000007500001012416888888888888899          0900000000000000000000000000000000000000000000000000000   000000000000000000000010009        170192957705     
0010001300100U 090000000000000000000000000000000000000000000000000000000000000000000000000000000000000000000000000000000000000000000000001004201700000000            000000000000000                              000                           
0010001300101T 090180230000001544772 29577050102254805   788888888888889910012017000000000007500001012408888888888888899          0900000000000000000000000000000000000000000000000000000   000000000000000000000010009        170192957705     
0010001300102U 090000000000000000000000000000000000000000000000000000000000000000000000000000000000000000000000000000000000000000000000001004201700000000            000000000000000                              000                           
0010001300103T 090180230000001544772 29577050103906690   788888888888889909012017000000000007500001014389888888888888899          0900000000000000000000000000000000000000000000000000000   000000000000000000000010009        170192957705     
0010001300104U 090000000000000000000000000000000000000000000000000000000000000000000000000000000000000000000000000000000000000000000000001004201700000000            000000000000000                              000                           
0010001300105T 090180230000001544772 29577050108204263   788888888888889910012017000000000007500001012416888888888888899          0900000000000000000000000000000000000000000000000000000   000000000000000000000010009        170192957705     
0010001300106U 090000000000000000000000000000000000000000000000000000000000000000000000000000000000000000000000000000000000000000000000001004201700000000            000000000000000                              000                           
0010001300107T 090180230000001544772 29577050119424258   788888888888889910012017000000000007500001000213888888888888899          0900000000000000000000000000000000000000000000000000000   000000000000000000000010009        170192957705     
0010001300108U 090000000000000000000000000000000000000000000000000000000000000000000000000000000000000000000000000000000000000000000000001004201700000000            000000000000000                              000                           
0010001300109T 090180230000001544772 29577050129412376   788888888888889909012017000000000010000001012408888888888888899          0900000000000000000000000000000000000000000000000000000   000000000000000000000010009        170192957705     
0010001300110U 090000000000000000000000000000000000000000000000000000000000000000000000000000000000000000000000000000000000000000000000001004201700000000            000000000000000                              000                           
0010001300111T 090180230000001544772 29577050130509507   78888888888888991001201700000000000750000103049X888888888888899          0900000000000000000000000000000000000000000000000000000   000000000000000000000010009        170192957705     
0010001300112U 090000000000000000000000000000000000000000000000000000000000000000000000000000000000000000000000000000000000000000000000001004201700000000            000000000000000                              000                           
0010001300113T 090180230000001544772 29577050130550996   78888888888888990901201700000000000750000103049X888888888888899          0900000000000000000000000000000000000000000000000000000   000000000000000000000010009        170192957705     
0010001300114U 090000000000000000000000000000000000000000000000000000000000000000000000000000000000000000000000000000000000000000000000001004201700000000            000000000000000                              000                           
0010001300115T 090180230000001544772 29577050130555193   78888888888888991001201700000000000750000103049X888888888888899          0900000000000000000000000000000000000000000000000000000   000000000000000000000010009        170192957705     
0010001300116U 090000000000000000000000000000000000000000000000000000000000000000000000000000000000000000000000000000000000000000000000001004201700000000            000000000000000                              000                           
0010001300117T 090180230000001544772 29577050156849887   788888888888889909012017000000000007500001000213888888888888899          0900000000000000000000000000000000000000000000000000000   000000000000000000000010009        170192957705     
0010001300118U 090000000000000000000000000000000000000000000000000000000000000000000000000000000000000000000000000000000000000000000000001004201700000000            000000000000000                              000                           
0010001300119T 090180230000001544772 29577050160311207   78888888888888991001201700000000000750000103049X888888888888899          0900000000000000000000000000000000000000000000000000000   000000000000000000000010009        170192957705     
0010001300120U 090000000000000000000000000000000000000000000000000000000000000000000000000000000000000000000000000000000000000000000000001004201700000000            000000000000000                              000                           
0010001300121T 090180230000001544772 29577050160450883   78888888888888991001201700000000000750000103049X888888888888899          0900000000000000000000000000000000000000000000000000000   000000000000000000000010009        170192957705     
0010001300122U 090000000000000000000000000000000000000000000000000000000000000000000000000000000000000000000000000000000000000000000000001004201700000000            000000000000000                              000                           
0010001300123T 090180230000001544772 29577050168912432   78888888888888990901201700000000000750000100829X888888888888899          0900000000000000000000000000000000000000000000000000000   000000000000000000000010009        170192957705     
0010001300124U 090000000000000000000000000000000000000000000000000000000000000000000000000000000000000000000000000000000000000000000000001004201700000000            000000000000000                              000                           
0010001300125T 090180230000001544772 29577050169137789   788888888888889909012017000000000007500001000213888888888888899          0900000000000000000000000000000000000000000000000000000   000000000000000000000010009        170192957705     
0010001300126U 090000000000000000000000000000000000000000000000000000000000000000000000000000000000000000000000000000000000000000000000001004201700000000            000000000000000                              000                           
0010001300127T 090180230000001544772 29577050169219679   788888888888889909012017000000000007500001012416888888888888899          0900000000000000000000000000000000000000000000000000000   000000000000000000000010009        170192957705     
0010001300128U 090000000000000000000000000000000000000000000000000000000000000000000000000000000000000000000000000000000000000000000000001004201700000000            000000000000000                              000                           
0010001300129T 090180230000001544772 29577050169601000   788888888888889909012017000000000007500001012416888888888888899          0900000000000000000000000000000000000000000000000000000   000000000000000000000010009        170192957705     
0010001300130U 090000000000000000000000000000000000000000000000000000000000000000000000000000000000000000000000000000000000000000000000001004201700000000            000000000000000                              000                           
0010001300131T 090180230000001544772 29577050169855356   788888888888889910012017000000000007500001000833888888888888899          0900000000000000000000000000000000000000000000000000000   000000000000000000000010009        170192957705     
0010001300132U 090000000000000000000000000000000000000000000000000000000000000000000000000000000000000000000000000000000000000000000000001004201700000000            000000000000000                              000                           
0010001300133T 090180230000001544772 29577050169901770   78888888888888991001201700000000000750000103049X888888888888899          0900000000000000000000000000000000000000000000000000000   000000000000000000000010009        170192957705     
0010001300134U 090000000000000000000000000000000000000000000000000000000000000000000000000000000000000000000000000000000000000000000000001004201700000000            000000000000000                              000                           
0010001300135T 090180230000001544772 29577050170106046   788888888888889910012017000000000007500001012408888888888888899          0900000000000000000000000000000000000000000000000000000   000000000000000000000010009        170192957705     
0010001300136U 090000000000000000000000000000000000000000000000000000000000000000000000000000000000000000000000000000000000000000000000001004201700000000            000000000000000                              000                           
0010001300137T 090180230000001544772 29577050170139606   788888888888889910012017000000000007500001012408888888888888899          0900000000000000000000000000000000000000000000000000000   000000000000000000000010009        170192957705     
0010001300138U 090000000000000000000000000000000000000000000000000000000000000000000000000000000000000000000000000000000000000000000000001004201700000000            000000000000000                              000                           
0010001300139T 090180230000001544772 29577050170255252   788888888888889910012017000000000007500001000213888888888888899          0900000000000000000000000000000000000000000000000000000   000000000000000000000010009        170192957705     
0010001300140U 090000000000000000000000000000000000000000000000000000000000000000000000000000000000000000000000000000000000000000000000001004201700000000            000000000000000                              000                           
0010001300141T 090180230000001544772 29577050170340388   788888888888889910012017000000000007500001012408888888888888899          0900000000000000000000000000000000000000000000000000000   000000000000000000000010009        170192957705     
0010001300142U 090000000000000000000000000000000000000000000000000000000000000000000000000000000000000000000000000000000000000000000000001004201700000000            000000000000000                              000                           
0010001300143T 090180230000001544772 29577050170418489   788888888888889910012017000000000007500001027502888888888888899          0900000000000000000000000000000000000000000000000000000   000000000000000000000010009        170192957705     
0010001300144U 090000000000000000000000000000000000000000000000000000000000000000000000000000000000000000000000000000000000000000000000001004201700000000            000000000000000                              000                           
0010001300145T 090180230000001544772 29577050170753698   788888888888889910012017000000000007500001012408888888888888899          0900000000000000000000000000000000000000000000000000000   000000000000000000000010009        170192957705     
0010001300146U 090000000000000000000000000000000000000000000000000000000000000000000000000000000000000000000000000000000000000000000000001004201700000000            000000000000000                              000                           
0010001300147T 090180230000001544772 29577050170951952   78888888888888991001201700000000000750000103049X888888888888899          0900000000000000000000000000000000000000000000000000000   000000000000000000000010009        170192957705     
0010001300148U 090000000000000000000000000000000000000000000000000000000000000000000000000000000000000000000000000000000000000000000000001004201700000000            000000000000000                              000                           
0010001300149T 090180230000001544772 29577050171034828   78888888888888991001201700000000000750000103049X888888888888899          0900000000000000000000000000000000000000000000000000000   000000000000000000000010009        170192957705     
0010001300150U 090000000000000000000000000000000000000000000000000000000000000000000000000000000000000000000000000000000000000000000000001004201700000000            000000000000000                              000                           
0010001300151T 090180230000001544772 29577050171158896   788888888888889910012017000000000007500001002097888888888888899          0900000000000000000000000000000000000000000000000000000   000000000000000000000010009        170192957705     
0010001300152U 090000000000000000000000000000000000000000000000000000000000000000000000000000000000000000000000000000000000000000000000001004201700000000            000000000000000                              000                           
0010001300153T 090180230000001544772 29577050171243865   788888888888889910012017000000000007500001000213888888888888899          0900000000000000000000000000000000000000000000000000000   000000000000000000000010009        170192957705     
0010001300154U 090000000000000000000000000000000000000000000000000000000000000000000000000000000000000000000000000000000000000000000000001004201700000000            000000000000000                              000                           
0010001300155T 090180230000001544772 29577050171330435   788888888888889910012017000000000007500001012408888888888888899          0900000000000000000000000000000000000000000000000000000   000000000000000000000010009        170192957705     
0010001300156U 090000000000000000000000000000000000000000000000000000000000000000000000000000000000000000000000000000000000000000000000001004201700000000            000000000000000                              000                           
0010001300157T 090180230000001544772 29577050171657352   788888888888889910012017000000000007500001000213888888888888899          0900000000000000000000000000000000000000000000000000000   000000000000000000000010009        170192957705     
0010001300158U 090000000000000000000000000000000000000000000000000000000000000000000000000000000000000000000000000000000000000000000000001004201700000000            000000000000000                              000                           
0010001300159T 090180230000001544772 29577050171730767   788888888888889910012017000000000007500001000213888888888888899          0900000000000000000000000000000000000000000000000000000   000000000000000000000010009        170192957705     
0010001300160U 090000000000000000000000000000000000000000000000000000000000000000000000000000000000000000000000000000000000000000000000001004201700000000            000000000000000                              000                           
0010001300161T 090180230000001544772 29577050171826530   788888888888889910012017000000000007500001000213888888888888899          0900000000000000000000000000000000000000000000000000000   000000000000000000000010009        170192957705     
0010001300162U 090000000000000000000000000000000000000000000000000000000000000000000000000000000000000000000000000000000000000000000000001004201700000000            000000000000000                              000                           
0010001300163T 090180230000001544772 29577050171927913   788888888888889910012017000000000007500001012408888888888888899          0900000000000000000000000000000000000000000000000000000   000000000000000000000010009        170192957705     
0010001300164U 090000000000000000000000000000000000000000000000000000000000000000000000000000000000000000000000000000000000000000000000001004201700000000            000000000000000                              000                           
0010001300165T 090180230000001544772 29577050172030073   788888888888889910012017000000000007500001000213888888888888899          0900000000000000000000000000000000000000000000000000000   000000000000000000000010009        170192957705     
0010001300166U 090000000000000000000000000000000000000000000000000000000000000000000000000000000000000000000000000000000000000000000000001004201700000000            000000000000000                              000                           
0010001300167T 090180230000001544772 29577058899889986   7               08012017000000000007500001008338                         0900000000000000000000000000000000000000000000000000000   000000000000000000000010009        170192957705     
0010001300168U 090000000000000000000000000000000000000000000000000000000000000000000000000000000000000000000000000000000000000000000000001004201700000000            000000000000000                              000                           
0010001300169T 090180230000001544772 29577058899889988   7               08012017000000000007500001000213                         0900000000000000000000000000000000000000000000000000000   000000000000000000000010009        170192957705     
0010001300170U 090000000000000000000000000000000000000000000000000000000000000000000000000000000000000000000000000000000000000000000000001004201700000000            000000000000000                              000                           
0010001300171T 280180230000001544772 29577050011704352   7               10032017000000000007500001000000                         0900000000000000000000000000000000000000000000000000000   000000000000000000000005002        170192957705     
0010001300172U 280000000000000000000000000000000000000000000000000000000000000000000000000000000000000000000000000000000000000000000000001004201700000000            000000000000000                              000                           
0010001300173T 280180230000001544772 29577050019308956   7               11032017000000000010000001000000                         0900000000000000000000000000000000000000000000000000000   000000000000000000000005002        170192957705     
0010001300174U 280000000000000000000000000000000000000000000000000000000000000000000000000000000000000000000000000000000000000000000000001004201700000000            000000000000000                              000                           
0010001300175T 280180230000001544772 29577050020208769   788888888888889908022017000000000010000001000000888888888888899          0900000000000000000000000000000000000000000000000000000   000000000000000000000005002        170192957705     
0010001300176U 280000000000000000000000000000000000000000000000000000000000000000000000000000000000000000000000000000000000000000000000001004201700000000            000000000000000                              000                           
0010001300177T 280180230000001544772 29577050022927137   788888888888889908022017000000000007500001000000888888888888899          0900000000000000000000000000000000000000000000000000000   000000000000000000000005002        170192957705     
0010001300178U 280000000000000000000000000000000000000000000000000000000000000000000000000000000000000000000000000000000000000000000000001004201700000000            000000000000000                              000                           
0010001300179T 280180230000001544772 29577050024736450   788888888888889908022017000000000007500001000000888888888888899          0900000000000000000000000000000000000000000000000000000   000000000000000000000005002        170192957705     
0010001300180U 280000000000000000000000000000000000000000000000000000000000000000000000000000000000000000000000000000000000000000000000001004201700000000            000000000000000                              000                           
0010001300181T 280180230000001544772 29577050029614852   7               09032017000000000010000001000000                         0900000000000000000000000000000000000000000000000000000   000000000000000000000005002        170192957705     
0010001300182U 280000000000000000000000000000000000000000000000000000000000000000000000000000000000000000000000000000000000000000000000001004201700000000            000000000000000                              000                           
0010001300183T 280180230000001544772 29577050038350131   7               09032017000000000007500001000000                         0900000000000000000000000000000000000000000000000000000   000000000000000000000005002        170192957705     
0010001300184U 280000000000000000000000000000000000000000000000000000000000000000000000000000000000000000000000000000000000000000000000001004201700000000            000000000000000                              000                           
0010001300185T 280180230000001544772 29577050040013502   788888888888889907022017000000000007500001000000888888888888899          0900000000000000000000000000000000000000000000000000000   000000000000000000000005002        170192957705     
0010001300186U 280000000000000000000000000000000000000000000000000000000000000000000000000000000000000000000000000000000000000000000000001004201700000000            000000000000000                              000                           
0010001300187T 280180230000001544772 29577050045650737   788888888888889907022017000000000007500001000000888888888888899          0900000000000000000000000000000000000000000000000000000   000000000000000000000005002        170192957705     
0010001300188U 280000000000000000000000000000000000000000000000000000000000000000000000000000000000000000000000000000000000000000000000001004201700000000            000000000000000                              000                           
0010001300189T 280180230000001544772 29577050048505297   788888888888889909022017000000000010000001000000888888888888899          0900000000000000000000000000000000000000000000000000000   000000000000000000000005002        170192957705     
0010001300190U 280000000000000000000000000000000000000000000000000000000000000000000000000000000000000000000000000000000000000000000000001004201700000000            000000000000000                              000                           
0010001300191T 280180230000001544772 29577050048757768   7               09032017000000000007500001000000                         0900000000000000000000000000000000000000000000000000000   000000000000000000000005002        170192957705     
0010001300192U 280000000000000000000000000000000000000000000000000000000000000000000000000000000000000000000000000000000000000000000000001004201700000000            000000000000000                              000                           
0010001300193T 280180230000001544772 29577050052312807   788888888888889908022017000000000007500001000000888888888888899          0900000000000000000000000000000000000000000000000000000   000000000000000000000005002        170192957705     
0010001300194U 280000000000000000000000000000000000000000000000000000000000000000000000000000000000000000000000000000000000000000000000001004201700000000            000000000000000                              000                           
0010001300195T 280180230000001544772 29577050054707898   7               11032017000000000007500001000000                         0900000000000000000000000000000000000000000000000000000   000000000000000000000005002        170192957705     
0010001300196U 280000000000000000000000000000000000000000000000000000000000000000000000000000000000000000000000000000000000000000000000001004201700000000            000000000000000                              000                           
0010001300197T 280180230000001544772 29577050058101046   788888888888889907022017000000000007500001000000888888888888899          0900000000000000000000000000000000000000000000000000000   000000000000000000000005002        170192957705     
0010001300198U 280000000000000000000000000000000000000000000000000000000000000000000000000000000000000000000000000000000000000000000000001004201700000000            000000000000000                              000                           
0010001300199T 280180230000001544772 29577050058125882   788888888888889907022017000000000007500001000000888888888888899          0900000000000000000000000000000000000000000000000000000   000000000000000000000005002        170192957705     
0010001300200U 280000000000000000000000000000000000000000000000000000000000000000000000000000000000000000000000000000000000000000000000001004201700000000            000000000000000                              000                           
0010001300201T 280180230000001544772 29577050058150884   788888888888889908022017000000000007500001000000888888888888899          0900000000000000000000000000000000000000000000000000000   000000000000000000000005002        170192957705     
0010001300202U 280000000000000000000000000000000000000000000000000000000000000000000000000000000000000000000000000000000000000000000000001004201700000000            000000000000000                              000                           
0010001300203T 280180230000001544772 29577050058504923   7               11032017000000000007500001000000                         0900000000000000000000000000000000000000000000000000000   000000000000000000000005002        170192957705     
0010001300204U 280000000000000000000000000000000000000000000000000000000000000000000000000000000000000000000000000000000000000000000000001004201700000000            000000000000000                              000                           
0010001300205T 280180230000001544772 29577050074607351   7               09032017000000000007500001000000                         0900000000000000000000000000000000000000000000000000000   000000000000000000000005002        170192957705     
0010001300206U 280000000000000000000000000000000000000000000000000000000000000000000000000000000000000000000000000000000000000000000000001004201700000000            000000000000000                              000                           
0010001300207T 280180230000001544772 29577050075350190   7               09032017000000000007500001000000                         0900000000000000000000000000000000000000000000000000000   000000000000000000000005002        170192957705     
0010001300208U 280000000000000000000000000000000000000000000000000000000000000000000000000000000000000000000000000000000000000000000000001004201700000000            000000000000000                              000                           
0010001300209T 280180230000001544772 29577050075953613   7               10032017000000000007500001000000                         0900000000000000000000000000000000000000000000000000000   000000000000000000000005002        170192957705     
0010001300210U 280000000000000000000000000000000000000000000000000000000000000000000000000000000000000000000000000000000000000000000000001004201700000000            000000000000000                              000                           
0010001300211T 280180230000001544772 29577050081230101   7               11032017000000000007500001000000                         0900000000000000000000000000000000000000000000000000000   000000000000000000000005002        170192957705     
0010001300212U 280000000000000000000000000000000000000000000000000000000000000000000000000000000000000000000000000000000000000000000000001004201700000000            000000000000000                              000                           
0010001300213T 280180230000001544772 29577050081248012   7               09032017000000000007500001000000                         0900000000000000000000000000000000000000000000000000000   000000000000000000000005002        170192957705     
0010001300214U 280000000000000000000000000000000000000000000000000000000000000000000000000000000000000000000000000000000000000000000000001004201700000000            000000000000000                              000                           
0010001300215T 280180230000001544772 29577050084324100   788888888888889908022017000000000010000001000000888888888888899          0900000000000000000000000000000000000000000000000000000   000000000000000000000005002        170192957705     
0010001300216U 280000000000000000000000000000000000000000000000000000000000000000000000000000000000000000000000000000000000000000000000001004201700000000            000000000000000                              000                           
0010001300217T 280180230000001544772 29577050088822652   7               09032017000000000007500001000000                         0900000000000000000000000000000000000000000000000000000   000000000000000000000005002        170192957705     
0010001300218U 280000000000000000000000000000000000000000000000000000000000000000000000000000000000000000000000000000000000000000000000001004201700000000            000000000000000                              000                           
0010001300219T 280180230000001544772 29577050089105513   788888888888889908022017000000000010000001000000888888888888899          0900000000000000000000000000000000000000000000000000000   000000000000000000000005002        170192957705     
0010001300220U 280000000000000000000000000000000000000000000000000000000000000000000000000000000000000000000000000000000000000000000000001004201700000000            000000000000000                              000                           
0010001300221T 280180230000001544772 29577050089127368   788888888888889908022017000000000010000001000000888888888888899          0900000000000000000000000000000000000000000000000000000   000000000000000000000005002        170192957705     
0010001300222U 280000000000000000000000000000000000000000000000000000000000000000000000000000000000000000000000000000000000000000000000001004201700000000            000000000000000                              000                           
0010001300223T 280180230000001544772 29577050090537129   788888888888889907022017000000000007500001000000888888888888899          0900000000000000000000000000000000000000000000000000000   000000000000000000000005002        170192957705     
0010001300224U 280000000000000000000000000000000000000000000000000000000000000000000000000000000000000000000000000000000000000000000000001004201700000000            000000000000000                              000                           
0010001300225T 280180230000001544772 29577050093640193   788888888888889909022017000000000007500001000000888888888888899          0900000000000000000000000000000000000000000000000000000   000000000000000000000005002        170192957705     
0010001300226U 280000000000000000000000000000000000000000000000000000000000000000000000000000000000000000000000000000000000000000000000001004201700000000            000000000000000                              000                           
0010001300227T 280180230000001544772 29577050095154356   788888888888889907022017000000000007500001000000888888888888899          0900000000000000000000000000000000000000000000000000000   000000000000000000000005002        170192957705     
0010001300228U 280000000000000000000000000000000000000000000000000000000000000000000000000000000000000000000000000000000000000000000000001004201700000000            000000000000000                              000                           
0010001300229T 280180230000001544772 29577050097654012   788888888888889909022017000000000007500001000000888888888888899          0900000000000000000000000000000000000000000000000000000   000000000000000000000005002        170192957705     
0010001300230U 280000000000000000000000000000000000000000000000000000000000000000000000000000000000000000000000000000000000000000000000001004201700000000            000000000000000                              000                           
0010001300231T 280180230000001544772 29577050098602853   788888888888889909022017000000000007500001000000888888888888899          0900000000000000000000000000000000000000000000000000000   000000000000000000000005002        170192957705     
0010001300232U 280000000000000000000000000000000000000000000000000000000000000000000000000000000000000000000000000000000000000000000000001004201700000000            000000000000000                              000                           
0010001300233T 280180230000001544772 29577050104113765   7               11032017000000000007500001000000                         0900000000000000000000000000000000000000000000000000000   000000000000000000000005002        170192957705     
0010001300234U 280000000000000000000000000000000000000000000000000000000000000000000000000000000000000000000000000000000000000000000000001004201700000000            000000000000000                              000                           
0010001300235T 280180230000001544772 29577050106802276   788888888888889907022017000000000007500001000000888888888888899          0900000000000000000000000000000000000000000000000000000   000000000000000000000005002        170192957705     
0010001300236U 280000000000000000000000000000000000000000000000000000000000000000000000000000000000000000000000000000000000000000000000001004201700000000            000000000000000                              000                           
0010001300237T 280180230000001544772 29577050110118507   7               11032017000000000007500001000000                         0900000000000000000000000000000000000000000000000000000   000000000000000000000005002        170192957705     
0010001300238U 280000000000000000000000000000000000000000000000000000000000000000000000000000000000000000000000000000000000000000000000001004201700000000            000000000000000                              000                           
0010001300239T 280180230000001544772 29577050110128674   7               11032017000000000007500001000000                         0900000000000000000000000000000000000000000000000000000   000000000000000000000005002        170192957705     
0010001300240U 280000000000000000000000000000000000000000000000000000000000000000000000000000000000000000000000000000000000000000000000001004201700000000            000000000000000                              000                           
0010001300241T 280180230000001544772 29577050110138063   788888888888889907022017000000000007500001000000888888888888899          0900000000000000000000000000000000000000000000000000000   000000000000000000000005002        170192957705     
0010001300242U 280000000000000000000000000000000000000000000000000000000000000000000000000000000000000000000000000000000000000000000000001004201700000000            000000000000000                              000                           
0010001300243T 280180230000001544772 29577050111228628   788888888888889909022017000000000007500001000000888888888888899          0900000000000000000000000000000000000000000000000000000   000000000000000000000005002        170192957705     
0010001300244U 280000000000000000000000000000000000000000000000000000000000000000000000000000000000000000000000000000000000000000000000001004201700000000            000000000000000                              000                           
0010001300245T 280180230000001544772 29577050112437814   788888888888889907022017000000000007500001000000888888888888899          0900000000000000000000000000000000000000000000000000000   000000000000000000000005002        170192957705     
0010001300246U 280000000000000000000000000000000000000000000000000000000000000000000000000000000000000000000000000000000000000000000000001004201700000000            000000000000000                              000                           
0010001300247T 280180230000001544772 29577050112514349   788888888888889907022017000000000007500001000000888888888888899          0900000000000000000000000000000000000000000000000000000   000000000000000000000005002        170192957705     
0010001300248U 280000000000000000000000000000000000000000000000000000000000000000000000000000000000000000000000000000000000000000000000001004201700000000            000000000000000                              000                           
0010001300249T 280180230000001544772 29577050112630669   788888888888889907022017000000000007500001000000888888888888899          0900000000000000000000000000000000000000000000000000000   000000000000000000000005002        170192957705     
0010001300250U 280000000000000000000000000000000000000000000000000000000000000000000000000000000000000000000000000000000000000000000000001004201700000000            000000000000000                              000                           
0010001300251T 280180230000001544772 29577050115223422   788888888888889907022017000000000007500001000000888888888888899          0900000000000000000000000000000000000000000000000000000   000000000000000000000005002        170192957705     
0010001300252U 280000000000000000000000000000000000000000000000000000000000000000000000000000000000000000000000000000000000000000000000001004201700000000            000000000000000                              000                           
0010001300253T 280180230000001544772 29577050115912099   788888888888889909022017000000000007500001000000888888888888899          0900000000000000000000000000000000000000000000000000000   000000000000000000000005002        170192957705     
0010001300254U 280000000000000000000000000000000000000000000000000000000000000000000000000000000000000000000000000000000000000000000000001004201700000000            000000000000000                              000                           
0010001300255T 280180230000001544772 29577050119329337   7               09032017000000000007500001000000                         0900000000000000000000000000000000000000000000000000000   000000000000000000000005002        170192957705     
0010001300256U 280000000000000000000000000000000000000000000000000000000000000000000000000000000000000000000000000000000000000000000000001004201700000000            000000000000000                              000                           
0010001300257T 280180230000001544772 29577050119349993   7               09032017000000000007500001000000                         0900000000000000000000000000000000000000000000000000000   000000000000000000000005002        170192957705     
0010001300258U 280000000000000000000000000000000000000000000000000000000000000000000000000000000000000000000000000000000000000000000000001004201700000000            000000000000000                              000                           
0010001300259T 280180230000001544772 29577050123049001   788888888888889907022017000000000007500001000000888888888888899          0900000000000000000000000000000000000000000000000000000   000000000000000000000005002        170192957705     
0010001300260U 280000000000000000000000000000000000000000000000000000000000000000000000000000000000000000000000000000000000000000000000001004201700000000            000000000000000                              000                           
0010001300261T 280180230000001544772 29577050135751859   7               09032017000000000007500001000000                         0900000000000000000000000000000000000000000000000000000   000000000000000000000005002        170192957705     
0010001300262U 280000000000000000000000000000000000000000000000000000000000000000000000000000000000000000000000000000000000000000000000001004201700000000            000000000000000                              000                           
0010001300263T 280180230000001544772 29577050143554298   788888888888889908022017000000000007500001000000888888888888899          0900000000000000000000000000000000000000000000000000000   000000000000000000000005002        170192957705     
0010001300264U 280000000000000000000000000000000000000000000000000000000000000000000000000000000000000000000000000000000000000000000000001004201700000000            000000000000000                              000                           
0010001300265T 280180230000001544772 29577050149443391   7               09032017000000000007500001000000                         0900000000000000000000000000000000000000000000000000000   000000000000000000000005002        170192957705     
0010001300266U 280000000000000000000000000000000000000000000000000000000000000000000000000000000000000000000000000000000000000000000000001004201700000000            000000000000000                              000                           
0010001300267T 280180230000001544772 29577050155819774   788888888888889909022017000000000007500001000000888888888888899          0900000000000000000000000000000000000000000000000000000   000000000000000000000005002        170192957705     
0010001300268U 280000000000000000000000000000000000000000000000000000000000000000000000000000000000000000000000000000000000000000000000001004201700000000            000000000000000                              000                           
0010001300269T 280180230000001544772 29577050160929479   788888888888889907022017000000000007500001000000888888888888899          0900000000000000000000000000000000000000000000000000000   000000000000000000000005002        170192957705     
0010001300270U 280000000000000000000000000000000000000000000000000000000000000000000000000000000000000000000000000000000000000000000000001004201700000000            000000000000000                              000                           
0010001300271T 280180230000001544772 29577050167903590   788888888888889908022017000000000007500001000000888888888888899          0900000000000000000000000000000000000000000000000000000   000000000000000000000005002        170192957705     
0010001300272U 280000000000000000000000000000000000000000000000000000000000000000000000000000000000000000000000000000000000000000000000001004201700000000            000000000000000                              000                           
0010001300273T 280180230000001544772 29577050167914304   788888888888889908022017000000000007500001000000888888888888899          0900000000000000000000000000000000000000000000000000000   000000000000000000000005002        170192957705     
0010001300274U 280000000000000000000000000000000000000000000000000000000000000000000000000000000000000000000000000000000000000000000000001004201700000000            000000000000000                              000                           
0010001300275T 280180230000001544772 29577050168053851   788888888888889909022017000000000007500001000000888888888888899          0900000000000000000000000000000000000000000000000000000   000000000000000000000005002        170192957705     
0010001300276U 280000000000000000000000000000000000000000000000000000000000000000000000000000000000000000000000000000000000000000000000001004201700000000            000000000000000                              000                           
0010001300277T 280180230000001544772 29577050168945463   788888888888889907022017000000000007500001000000888888888888899          0900000000000000000000000000000000000000000000000000000   000000000000000000000005002        170192957705     
0010001300278U 280000000000000000000000000000000000000000000000000000000000000000000000000000000000000000000000000000000000000000000000001004201700000000            000000000000000                              000                           
0010001300279T 280180230000001544772 29577050169701292   7               10032017000000000007500001000000                         0900000000000000000000000000000000000000000000000000000   000000000000000000000005002        170192957705     
0010001300280U 280000000000000000000000000000000000000000000000000000000000000000000000000000000000000000000000000000000000000000000000001004201700000000            000000000000000                              000                           
0010001300281T 280180230000001544772 29577050169717843   7               10032017000000000007500001000000                         0900000000000000000000000000000000000000000000000000000   000000000000000000000005002        170192957705     
0010001300282U 280000000000000000000000000000000000000000000000000000000000000000000000000000000000000000000000000000000000000000000000001004201700000000            000000000000000                              000                           
0010001300283T 280180230000001544772 29577050169734084   7               10032017000000000007500001000000                         0900000000000000000000000000000000000000000000000000000   000000000000000000000005002        170192957705     
0010001300284U 280000000000000000000000000000000000000000000000000000000000000000000000000000000000000000000000000000000000000000000000001004201700000000            000000000000000                              000                           
0010001300285T 280180230000001544772 29577050171041762   7               10032017000000000007500001000000                         0900000000000000000000000000000000000000000000000000000   000000000000000000000005002        170192957705     
0010001300286U 280000000000000000000000000000000000000000000000000000000000000000000000000000000000000000000000000000000000000000000000001004201700000000            000000000000000                              000                           
0010001300287T 280180230000001544772 29577050171814455   7               11032017000000000007500001000000                         0900000000000000000000000000000000000000000000000000000   000000000000000000000005002        170192957705     
0010001300288U 280000000000000000000000000000000000000000000000000000000000000000000000000000000000000000000000000000000000000000000000001004201700000000            000000000000000                              000                           
0010001300289T 280180230000001544772 29577050179447944   7               11032017000000000007500001000000                         0900000000000000000000000000000000000000000000000000000   000000000000000000000005002        170192957705     
0010001300290U 280000000000000000000000000000000000000000000000000000000000000000000000000000000000000000000000000000000000000000000000001004201700000000            000000000000000                              000                           
0010001300291T 280180230000001544772 29577050180745081   788888888888889908022017000000000007500001000000888888888888899          0900000000000000000000000000000000000000000000000000000   000000000000000000000005002        170192957705     
0010001300292U 280000000000000000000000000000000000000000000000000000000000000000000000000000000000000000000000000000000000000000000000001004201700000000            000000000000000                              000                           
0010001300293T 280180230000001544772 29577050181341053   7               09032017000000000007500001000000                         0900000000000000000000000000000000000000000000000000000   000000000000000000000005002        170192957705     
0010001300294U 280000000000000000000000000000000000000000000000000000000000000000000000000000000000000000000000000000000000000000000000001004201700000000            000000000000000                              000                           
0010001300295T 280180230000001544772 29577050181726584   788888888888889908022017000000000007500001000000888888888888899          0900000000000000000000000000000000000000000000000000000   000000000000000000000005002        170192957705     
0010001300296U 280000000000000000000000000000000000000000000000000000000000000000000000000000000000000000000000000000000000000000000000001004201700000000            000000000000000                              000                           
0010001300297T 280180230000001544772 29577050188418895   7               11032017000000000010000001000000                         0900000000000000000000000000000000000000000000000000000   000000000000000000000005002        170192957705     
0010001300298U 280000000000000000000000000000000000000000000000000000000000000000000000000000000000000000000000000000000000000000000000001004201700000000            000000000000000                              000                           
0010001300299T 280180230000001544772 29577050188929329   788888888888889909022017000000000007500001000000888888888888899          0900000000000000000000000000000000000000000000000000000   000000000000000000000005002        170192957705     
0010001300300U 280000000000000000000000000000000000000000000000000000000000000000000000000000000000000000000000000000000000000000000000001004201700000000            000000000000000                              000                           
0010001300301T 280180230000001544772 29577050198214010   7               09032017000000000007500001000000                         0900000000000000000000000000000000000000000000000000000   000000000000000000000005002        170192957705     
0010001300302U 280000000000000000000000000000000000000000000000000000000000000000000000000000000000000000000000000000000000000000000000001004201700000000            000000000000000                              000                           
0010001300303T 280180230000001544772 29577050203936022   788888888888889908022017000000000007500001000000888888888888899          0900000000000000000000000000000000000000000000000000000   000000000000000000000005002        170192957705     
0010001300304U 280000000000000000000000000000000000000000000000000000000000000000000000000000000000000000000000000000000000000000000000001004201700000000            000000000000000                              000                           
0010001300305T 280180230000001544772 29577050204614969   788888888888889908022017000000000007500001000000888888888888899          0900000000000000000000000000000000000000000000000000000   000000000000000000000005002        170192957705     
0010001300306U 280000000000000000000000000000000000000000000000000000000000000000000000000000000000000000000000000000000000000000000000001004201700000000            000000000000000                              000                           
0010001300307T 280180230000001544772 29577050204705638   788888888888889908022017000000000007500001000000888888888888899          0900000000000000000000000000000000000000000000000000000   000000000000000000000005002        170192957705     
0010001300308U 280000000000000000000000000000000000000000000000000000000000000000000000000000000000000000000000000000000000000000000000001004201700000000            000000000000000                              000                           
0010001300309T 280180230000001544772 29577050208304563   788888888888889909022017000000000007500001000000888888888888899          0900000000000000000000000000000000000000000000000000000   000000000000000000000005002        170192957705     
0010001300310U 280000000000000000000000000000000000000000000000000000000000000000000000000000000000000000000000000000000000000000000000001004201700000000            000000000000000                              000                           
0010001300311T 280180230000001544772 29577050214953250   788888888888889908022017000000000007500001000000888888888888899          0900000000000000000000000000000000000000000000000000000   000000000000000000000005002        170192957705     
0010001300312U 280000000000000000000000000000000000000000000000000000000000000000000000000000000000000000000000000000000000000000000000001004201700000000            000000000000000                              000                           
0010001300313T 280180230000001544772 29577050216637616   7               10032017000000000007500001000000                         0900000000000000000000000000000000000000000000000000000   000000000000000000000005002        170192957705     
0010001300314U 280000000000000000000000000000000000000000000000000000000000000000000000000000000000000000000000000000000000000000000000001004201700000000            000000000000000                              000                           
0010001300315T 280180230000001544772 29577050219644611   788888888888889908022017000000000007500001000000888888888888899          0900000000000000000000000000000000000000000000000000000   000000000000000000000005002        170192957705     
0010001300316U 280000000000000000000000000000000000000000000000000000000000000000000000000000000000000000000000000000000000000000000000001004201700000000            000000000000000                              000                           
0010001300317T 280180230000001544772 29577050224455760   788888888888889909022017000000000007500001000000888888888888899          0900000000000000000000000000000000000000000000000000000   000000000000000000000005002        170192957705     
0010001300318U 280000000000000000000000000000000000000000000000000000000000000000000000000000000000000000000000000000000000000000000000001004201700000000            000000000000000                              000                           
0010001300319T 280180230000001544772 29577050225806650   7               09032017000000000007500001000000                         0900000000000000000000000000000000000000000000000000000   000000000000000000000005002        170192957705     
0010001300320U 280000000000000000000000000000000000000000000000000000000000000000000000000000000000000000000000000000000000000000000000001004201700000000            000000000000000                              000                           
0010001300321T 280180230000001544772 29577050233637991   788888888888889908022017000000000010000001000000888888888888899          0900000000000000000000000000000000000000000000000000000   000000000000000000000005002        170192957705     
0010001300322U 280000000000000000000000000000000000000000000000000000000000000000000000000000000000000000000000000000000000000000000000001004201700000000            000000000000000                              000                           
0010001300323T 280180230000001544772 29577050234812696   7               09032017000000000007500001000000                         0900000000000000000000000000000000000000000000000000000   000000000000000000000005002        170192957705     
0010001300324U 280000000000000000000000000000000000000000000000000000000000000000000000000000000000000000000000000000000000000000000000001004201700000000            000000000000000                              000                           
0010001300325T 280180230000001544772 29577050234823259   7               09032017000000000007500001000000                         0900000000000000000000000000000000000000000000000000000   000000000000000000000005002        170192957705     
0010001300326U 280000000000000000000000000000000000000000000000000000000000000000000000000000000000000000000000000000000000000000000000001004201700000000            000000000000000                              000                           
0010001300327T 280180230000001544772 29577050237637080   788888888888889908022017000000000010000001000000888888888888899          0900000000000000000000000000000000000000000000000000000   000000000000000000000005002        170192957705     
0010001300328U 280000000000000000000000000000000000000000000000000000000000000000000000000000000000000000000000000000000000000000000000001004201700000000            000000000000000                              000                           
0010001300329T 280180230000001544772 29577050238015496   7               10032017000000000010000001000000                         0900000000000000000000000000000000000000000000000000000   000000000000000000000005002        170192957705     
0010001300330U 280000000000000000000000000000000000000000000000000000000000000000000000000000000000000000000000000000000000000000000000001004201700000000            000000000000000                              000                           
0010001300331T 280180230000001544772 29577050249100841   7               10032017000000000010000001000000                         0900000000000000000000000000000000000000000000000000000   000000000000000000000005002        170192957705     
0010001300332U 280000000000000000000000000000000000000000000000000000000000000000000000000000000000000000000000000000000000000000000000001004201700000000            000000000000000                              000                           
0010001300333T 280180230000001544772 29577050250416800   7               09032017000000000007500001000000                         0900000000000000000000000000000000000000000000000000000   000000000000000000000005002        170192957705     
0010001300334U 280000000000000000000000000000000000000000000000000000000000000000000000000000000000000000000000000000000000000000000000001004201700000000            000000000000000                              000                           
0010001300335T 280180230000001544772 29577050250530356   7               09032017000000000007500001000000                         0900000000000000000000000000000000000000000000000000000   000000000000000000000005002        170192957705     
0010001300336U 280000000000000000000000000000000000000000000000000000000000000000000000000000000000000000000000000000000000000000000000001004201700000000            000000000000000                              000                           
0010001300337T 280180230000001544772 29577050250531675   7               09032017000000000007500001000000                         0900000000000000000000000000000000000000000000000000000   000000000000000000000005002        170192957705     
0010001300338U 280000000000000000000000000000000000000000000000000000000000000000000000000000000000000000000000000000000000000000000000001004201700000000            000000000000000                              000                           
0010001300339T 280180230000001544772 29577050256914234   788888888888889908022017000000000007500001000000888888888888899          0900000000000000000000000000000000000000000000000000000   000000000000000000000005002        170192957705     
0010001300340U 280000000000000000000000000000000000000000000000000000000000000000000000000000000000000000000000000000000000000000000000001004201700000000            000000000000000                              000                           
0010001300341T 280180230000001544772 29577050257237548   788888888888889907022017000000000007500001000000888888888888899          0900000000000000000000000000000000000000000000000000000   000000000000000000000005002        170192957705     
0010001300342U 280000000000000000000000000000000000000000000000000000000000000000000000000000000000000000000000000000000000000000000000001004201700000000            000000000000000                              000                           
0010001300343T 280180230000001544772 29577050257239203   7               11032017000000000007500001000000                         0900000000000000000000000000000000000000000000000000000   000000000000000000000005002        170192957705     
0010001300344U 280000000000000000000000000000000000000000000000000000000000000000000000000000000000000000000000000000000000000000000000001004201700000000            000000000000000                              000                           
0010001300345T 280180230000001544772 29577050259348551   788888888888889907022017000000000007500001000000888888888888899          0900000000000000000000000000000000000000000000000000000   000000000000000000000005002        170192957705     
0010001300346U 280000000000000000000000000000000000000000000000000000000000000000000000000000000000000000000000000000000000000000000000001004201700000000            000000000000000                              000                           
0010001300347T 280180230000001544772 29577050259935281   788888888888889908022017000000000010000001000000888888888888899          0900000000000000000000000000000000000000000000000000000   000000000000000000000005002        170192957705     
0010001300348U 280000000000000000000000000000000000000000000000000000000000000000000000000000000000000000000000000000000000000000000000001004201700000000            000000000000000                              000                           
0010001300349T 280180230000001544772 29577050261249064   7               09032017000000000007500001000000                         0900000000000000000000000000000000000000000000000000000   000000000000000000000005002        170192957705     
0010001300350U 280000000000000000000000000000000000000000000000000000000000000000000000000000000000000000000000000000000000000000000000001004201700000000            000000000000000                              000                           
0010001300351T 280180230000001544772 29577050274647130   788888888888889909022017000000000007500001000000888888888888899          0900000000000000000000000000000000000000000000000000000   000000000000000000000005002        170192957705     
0010001300352U 280000000000000000000000000000000000000000000000000000000000000000000000000000000000000000000000000000000000000000000000001004201700000000            000000000000000                              000                           
0010001300353T 280180230000001544772 29577050277410085   788888888888889909022017000000000010000001000000888888888888899          0900000000000000000000000000000000000000000000000000000   000000000000000000000005002        170192957705     
0010001300354U 280000000000000000000000000000000000000000000000000000000000000000000000000000000000000000000000000000000000000000000000001004201700000000            000000000000000                              000                           
0010001300355T 280180230000001544772 29577050277459883   788888888888889909022017000000000010000001000000888888888888899          0900000000000000000000000000000000000000000000000000000   000000000000000000000005002        170192957705     
0010001300356U 280000000000000000000000000000000000000000000000000000000000000000000000000000000000000000000000000000000000000000000000001004201700000000            000000000000000                              000                           
0010001300357T 280180230000001544772 29577050281359360   7               09032017000000000010000001000000                         0900000000000000000000000000000000000000000000000000000   000000000000000000000005002        170192957705     
0010001300358U 280000000000000000000000000000000000000000000000000000000000000000000000000000000000000000000000000000000000000000000000001004201700000000            000000000000000                              000                           
0010001300359T 280180230000001544772 29577050281359706   7               11032017000000000010000001000000                         0900000000000000000000000000000000000000000000000000000   000000000000000000000005002        170192957705     
0010001300360U 280000000000000000000000000000000000000000000000000000000000000000000000000000000000000000000000000000000000000000000000001004201700000000            000000000000000                              000                           
0010001300361T 280180230000001544772 29577050285707518   7               09032017000000000007500001000000                         0900000000000000000000000000000000000000000000000000000   000000000000000000000005002        170192957705     
0010001300362U 280000000000000000000000000000000000000000000000000000000000000000000000000000000000000000000000000000000000000000000000001004201700000000            000000000000000                              000                           
0010001300363T 280180230000001544772 29577050286410132   788888888888889907022017000000000007500001000000888888888888899          0900000000000000000000000000000000000000000000000000000   000000000000000000000005002        170192957705     
0010001300364U 280000000000000000000000000000000000000000000000000000000000000000000000000000000000000000000000000000000000000000000000001004201700000000            000000000000000                              000                           
0010001300365T 280180230000001544772 29577050286418739   788888888888889907022017000000000007500001000000888888888888899          0900000000000000000000000000000000000000000000000000000   000000000000000000000005002        170192957705     
0010001300366U 280000000000000000000000000000000000000000000000000000000000000000000000000000000000000000000000000000000000000000000000001004201700000000            000000000000000                              000                           
0010001300367T 280180230000001544772 29577050287446952   788888888888889908022017000000000007500001000000888888888888899          0900000000000000000000000000000000000000000000000000000   000000000000000000000005002        170192957705     
0010001300368U 280000000000000000000000000000000000000000000000000000000000000000000000000000000000000000000000000000000000000000000000001004201700000000            000000000000000                              000                           
0010001300369T 280180230000001544772 29577050288622077   7               10032017000000000007500001000000                         0900000000000000000000000000000000000000000000000000000   000000000000000000000005002        170192957705     
0010001300370U 280000000000000000000000000000000000000000000000000000000000000000000000000000000000000000000000000000000000000000000000001004201700000000            000000000000000                              000                           
0010001300371T 280180230000001544772 29577050289321880   788888888888889909022017000000000007500001000000888888888888899          0900000000000000000000000000000000000000000000000000000   000000000000000000000005002        170192957705     
0010001300372U 280000000000000000000000000000000000000000000000000000000000000000000000000000000000000000000000000000000000000000000000001004201700000000            000000000000000                              000                           
0010001300373T 280180230000001544772 29577050290030478   788888888888889907022017000000000007500001000000888888888888899          0900000000000000000000000000000000000000000000000000000   000000000000000000000005002        170192957705     
0010001300374U 280000000000000000000000000000000000000000000000000000000000000000000000000000000000000000000000000000000000000000000000001004201700000000            000000000000000                              000                           
0010001300375T 280180230000001544772 29577050290348773   788888888888889909022017000000000007500001000000888888888888899          0900000000000000000000000000000000000000000000000000000   000000000000000000000005002        170192957705     
0010001300376U 280000000000000000000000000000000000000000000000000000000000000000000000000000000000000000000000000000000000000000000000001004201700000000            000000000000000                              000                           
0010001300377T 280180230000001544772 29577050290651726   7               10032017000000000007500001000000                         0900000000000000000000000000000000000000000000000000000   000000000000000000000005002        170192957705     
0010001300378U 280000000000000000000000000000000000000000000000000000000000000000000000000000000000000000000000000000000000000000000000001004201700000000            000000000000000                              000                           
0010001300379T 280180230000001544772 29577050292428006   788888888888889907022017000000000007500001000000888888888888899          0900000000000000000000000000000000000000000000000000000   000000000000000000000005002        170192957705     
0010001300380U 280000000000000000000000000000000000000000000000000000000000000000000000000000000000000000000000000000000000000000000000001004201700000000            000000000000000                              000                           
0010001300381T 280180230000001544772 29577050293909041   788888888888889907022017000000000007500001000000888888888888899          0900000000000000000000000000000000000000000000000000000   000000000000000000000005002        170192957705     
0010001300382U 280000000000000000000000000000000000000000000000000000000000000000000000000000000000000000000000000000000000000000000000001004201700000000            000000000000000                              000                           
0010001300383T 280180230000001544772 29577050302414483   7               11032017000000000007500001000000                         0900000000000000000000000000000000000000000000000000000   000000000000000000000005002        170192957705     
0010001300384U 280000000000000000000000000000000000000000000000000000000000000000000000000000000000000000000000000000000000000000000000001004201700000000            000000000000000                              000                           
0010001300385T 280180230000001544772 29577050303815067   788888888888889909022017000000000007500001000000888888888888899          0900000000000000000000000000000000000000000000000000000   000000000000000000000005002        170192957705     
0010001300386U 280000000000000000000000000000000000000000000000000000000000000000000000000000000000000000000000000000000000000000000000001004201700000000            000000000000000                              000                           
0010001300387T 280180230000001544772 29577050312213382   7               09032017000000000007500001000000                         0900000000000000000000000000000000000000000000000000000   000000000000000000000005002        170192957705     
0010001300388U 280000000000000000000000000000000000000000000000000000000000000000000000000000000000000000000000000000000000000000000000001004201700000000            000000000000000                              000                           
0010001300389T 280180230000001544772 29577050314253976   7               09032017000000000007500001000000                         0900000000000000000000000000000000000000000000000000000   000000000000000000000005002        170192957705     
0010001300390U 280000000000000000000000000000000000000000000000000000000000000000000000000000000000000000000000000000000000000000000000001004201700000000            000000000000000                              000                           
0010001300391T 280180230000001544772 29577050319321482   788888888888889908022017000000000007500001000000888888888888899          0900000000000000000000000000000000000000000000000000000   000000000000000000000005002        170192957705     
0010001300392U 280000000000000000000000000000000000000000000000000000000000000000000000000000000000000000000000000000000000000000000000001004201700000000            000000000000000                              000                           
0010001300393T 280180230000001544772 29577050321433644   7               09032017000000000007500001000000                         0900000000000000000000000000000000000000000000000000000   000000000000000000000005002        170192957705     
0010001300394U 280000000000000000000000000000000000000000000000000000000000000000000000000000000000000000000000000000000000000000000000001004201700000000            000000000000000                              000                           
0010001300395T 280180230000001544772 29577050321458947   7               11032017000000000007500001000000                         0900000000000000000000000000000000000000000000000000000   000000000000000000000005002        170192957705     
0010001300396U 280000000000000000000000000000000000000000000000000000000000000000000000000000000000000000000000000000000000000000000000001004201700000000            000000000000000                              000                           
0010001300397T 280180230000001544772 29577050326510157   7               09032017000000000010000001000000                         0900000000000000000000000000000000000000000000000000000   000000000000000000000005002        170192957705     
0010001300398U 280000000000000000000000000000000000000000000000000000000000000000000000000000000000000000000000000000000000000000000000001004201700000000            000000000000000                              000                           
0010001300399T 280180230000001544772 29577050328923563   7               10032017000000000010000001000000                         0900000000000000000000000000000000000000000000000000000   000000000000000000000005002        170192957705     
0010001300400U 280000000000000000000000000000000000000000000000000000000000000000000000000000000000000000000000000000000000000000000000001004201700000000            000000000000000                              000                           
0010001300401T 280180230000001544772 29577050329632194   788888888888889907022017000000000007500001000000888888888888899          0900000000000000000000000000000000000000000000000000000   000000000000000000000005002        170192957705     
0010001300402U 280000000000000000000000000000000000000000000000000000000000000000000000000000000000000000000000000000000000000000000000001004201700000000            000000000000000                              000                           
0010001300403T 280180230000001544772 29577050332614103   788888888888889909022017000000000007500001000000888888888888899          0900000000000000000000000000000000000000000000000000000   000000000000000000000005002        170192957705     
0010001300404U 280000000000000000000000000000000000000000000000000000000000000000000000000000000000000000000000000000000000000000000000001004201700000000            000000000000000                              000                           
0010001300405T 280180230000001544772 29577050334941649   788888888888889909022017000000000007500001000000888888888888899          0900000000000000000000000000000000000000000000000000000   000000000000000000000005002        170192957705     
0010001300406U 280000000000000000000000000000000000000000000000000000000000000000000000000000000000000000000000000000000000000000000000001004201700000000            000000000000000                              000                           
0010001300407T 280180230000001544772 29577050336752236   788888888888889907022017000000000007500001000000888888888888899          0900000000000000000000000000000000000000000000000000000   000000000000000000000005002        170192957705     
0010001300408U 280000000000000000000000000000000000000000000000000000000000000000000000000000000000000000000000000000000000000000000000001004201700000000            000000000000000                              000                           
0010001300409T 280180230000001544772 29577050337101071   788888888888889907022017000000000007500001000000888888888888899          0900000000000000000000000000000000000000000000000000000   000000000000000000000005002        170192957705     
0010001300410U 280000000000000000000000000000000000000000000000000000000000000000000000000000000000000000000000000000000000000000000000001004201700000000            000000000000000                              000                           
0010001300411T 280180230000001544772 29577050338617446   7               09032017000000000007500001000000                         0900000000000000000000000000000000000000000000000000000   000000000000000000000005002        170192957705     
0010001300412U 280000000000000000000000000000000000000000000000000000000000000000000000000000000000000000000000000000000000000000000000001004201700000000            000000000000000                              000                           
