00100000         2247745860001000029577050014       0180230000001544772 INSTITUTO DE SELECAO E TECNOLOBANCO DO BRASIL                         21104201701461700017003000000515122941PROCESSAMEN                                                 
00100011T0100020 20247745860001000029577050014       0180230000001544772 INSTITUTO DE SELECAO E TECNOLO                                                                                000000001104201700000000  000000000                      
0010001300001T 020180230000001544772 29577050029518601   7               13042017000000000007500001009245                         0900000000000010000000000000000000000000000000000000000   0000000000000000000000000A9        170192957705     
0010001300002U 020000000000000000000000000000000000000000000000000000000000000000000000000000000000000000000000000000000000000000000000001104201700000000            000000000000000                              000                           
0010001300003T 020180230000001544772 29577050238825161   7               1304201700000000000750000103049X                         0900000000000010000000000000000000000000000000000000000   0000000000000000000000000A9        170192957705     
0010001300004U 020000000000000000000000000000000000000000000000000000000000000000000000000000000000000000000000000000000000000000000000001104201700000000            000000000000000                              000                           
0010001300005T 020180230000001544772 29577050238942446   7               1304201700000000000750000103049X                         0900000000000010000000000000000000000000000000000000000   0000000000000000000000000A9        170192957705     
0010001300006U 020000000000000000000000000000000000000000000000000000000000000000000000000000000000000000000000000000000000000000000000001104201700000000            000000000000000                              000                           
0010001300007T 020180230000001544772 29577050248139735   7               13042017000000000007500001000213                         0900000000000010000000000000000000000000000000000000000   0000000000000000000000000A9        170192957705     
0010001300008U 020000000000000000000000000000000000000000000000000000000000000000000000000000000000000000000000000000000000000000000000001104201700000000            000000000000000                              000                           
0010001300009T 020180230000001544772 29577050257255167   7               12042017000000000007500001001120                         0900000000000010000000000000000000000000000000000000000   0000000000000000000000000A9        170192957705     
0010001300010U 020000000000000000000000000000000000000000000000000000000000000000000000000000000000000000000000000000000000000000000000001004201700000000            000000000000000                              000                           
0010001300011T 020180230000001544772 29577050393340815   7               1204201700000000000750000103049X                         0900000000000010000000000000000000000000000000000000000   0000000000000000000000000A9        170192957705     
0010001300012U 020000000000000000000000000000000000000000000000000000000000000000000000000000000000000000000000000000000000000000000000001004201700000000            000000000000000                              000                           
0010001300013T 020180230000001544772 29577050393350883   7               1304201700000000000750000103049X                         0900000000000010000000000000000000000000000000000000000   0000000000000000000000000A9        170192957705     
0010001300014U 020000000000000000000000000000000000000000000000000000000000000000000000000000000000000000000000000000000000000000000000001104201700000000            000000000000000                              000                           
0010001300015T 020180230000001544772 29577050448710824   7               13042017000000000007500001012408                         0900000000000010000000000000000000000000000000000000000   0000000000000000000000000A9        170192957705     
0010001300016U 020000000000000000000000000000000000000000000000000000000000000000000000000000000000000000000000000000000000000000000000001104201700000000            000000000000000                              000                           
0010001300017T 020180230000001544772 29577050454525290   7               13042017000000000007500001004782                         0900000000000010000000000000000000000000000000000000000   0000000000000000000000000A9        170192957705     
0010001300018U 020000000000000000000000000000000000000000000000000000000000000000000000000000000000000000000000000000000000000000000000001104201700000000            000000000000000                              000                           
0010001300019T 020180230000001544772 29577050474242115   7               1304201700000000000750000103049X                         0900000000000010500000000000000000000000000000000000000   0000000000000000000000000A9A4      170192957705     
0010001300020U 020000000000000000000000000000000000000000000000000000000000000000000000000000000000000000000000000000000000000000000000001104201700000000            000000000000000                              000                           
0010001300021T 020180230000001544772 29577050908531098   7               13042017000000000007500001002224                         0900000000000010000000000000000000000000000000000000000   0000000000000000000000000A9        170192957705     
0010001300022U 020000000000000000000000000000000000000000000000000000000000000000000000000000000000000000000000000000000000000000000000001104201700000000            000000000000000                              000                           
0010001300023T 020180230000001544772 29577051401401654   7               13042017000000000007500001000213                         0900000000000010000000000000000000000000000000000000000   0000000000000000000000000A9        170192957705     
0010001300024U 020000000000000000000000000000000000000000000000000000000000000000000000000000000000000000000000000000000000000000000000001104201700000000            000000000000000                              000                           
0010001300025T 020180230000001544772 29577051401416310   7               13042017000000000007500001000213                         0900000000000010000000000000000000000000000000000000000   0000000000000000000000000A9        170192957705     
0010001300026U 020000000000000000000000000000000000000000000000000000000000000000000000000000000000000000000000000000000000000000000000001104201700000000            000000000000000                              000                           
0010001300027T 020180230000001544772 29577051401422641   7               13042017000000000007500001000213                         0900000000000010000000000000000000000000000000000000000   0000000000000000000000000A9        170192957705     
0010001300028U 020000000000000000000000000000000000000000000000000000000000000000000000000000000000000000000000000000000000000000000000001104201700000000            000000000000000                              000                           
0010001300029T 020180230000001544772 29577051401441351   7               13042017000000000007500001000213                         0900000000000010000000000000000000000000000000000000000   0000000000000000000000000A9        170192957705     
0010001300030U 020000000000000000000000000000000000000000000000000000000000000000000000000000000000000000000000000000000000000000000000001104201700000000            000000000000000                              000                           
0010001300031T 020180230000001544772 29577051401458629   7               13042017000000000007500001000213                         0900000000000010000000000000000000000000000000000000000   0000000000000000000000000A9        170192957705     
0010001300032U 020000000000000000000000000000000000000000000000000000000000000000000000000000000000000000000000000000000000000000000000001104201700000000            000000000000000                              000                           
0010001300033T 020180230000001544772 29577051457359957   7               1304201700000000000750000103049X                         0900000000000010000000000000000000000000000000000000000   0000000000000000000000000A9        170192957705     
0010001300034U 020000000000000000000000000000000000000000000000000000000000000000000000000000000000000000000000000000000000000000000000001104201700000000            000000000000000                              000                           
0010001300035T 020180230000001544772 29577051501104437   7               13042017000000000010000001002798                         0900000000000010000000000000000000000000000000000000000   0000000000000000000000000A9        170192957705     
0010001300036U 020000000000000000000000000000000000000000000000000000000000000000000000000000000000000000000000000000000000000000000000001104201700000000            000000000000000                              000                           
0010001300037T 020180230000001544772 29577051623043994   7               13042017000000000007500001000213                         0900000000000010000000000000000000000000000000000000000   0000000000000000000000000A9        170192957705     
0010001300038U 020000000000000000000000000000000000000000000000000000000000000000000000000000000000000000000000000000000000000000000000001104201700000000            000000000000000                              000                           
0010001300039T 020180230000001544772 29577051661120112   7               1304201700000000000750000103049X                         0900000000000010000000000000000000000000000000000000000   0000000000000000000000000A9        170192957705     
0010001300040U 020000000000000000000000000000000000000000000000000000000000000000000000000000000000000000000000000000000000000000000000001104201700000000            000000000000000                              000                           
0010001300041T 020180230000001544772 29577051673548614   7               1304201700000000000750000103049X                         0900000000000010000000000000000000000000000000000000000   0000000000000000000000000A9        170192957705     
0010001300042U 020000000000000000000000000000000000000000000000000000000000000000000000000000000000000000000000000000000000000000000000001104201700000000            000000000000000                              000                           
0010001300043T 060180230000001544772 29577050238825161   7               13042017000000000007500001030848                         0900000000000010000000000000000000000000000000000000000   000000000000000000000029000        170192957705     
0010001300044U 060000000000000000000000000000000000000000000000000000000000000000000000075000000000000072100000000000000000000000000000001104201712042017            000000000000000                              000                           
0010001300045T 060180230000001544772 29577050257255167   7               12042017000000000007500104001720                         0900000000000010000000000000000000000000000000000000000   000000000000000000000029000        170192957705     
0010001300046U 060000000000000000000000000000000000000000000000000000000000000000000000075000000000000072100000000000000000000000000000001104201712042017            000000000000000                              000                           
0010001300047T 060180230000001544772 29577050448842114   7               12042017000000000007500021001060                         0900000000000010000000000000000000000000000000000000000   000000000000000000000029000        170192957705     
0010001300048U 060000000000000000000000000000000000000000000000000000000000000000000000075000000000000072100000000000000000000000000000001104201712042017            000000000000000                              000                           
0010001300049T 060180230000001544772 29577050688355488   7               12042017000000000007500104001670                         0900000000000010000000000000000000000000000000000000000   000000000000000000000029000        170192957705     
0010001300050U 060000000000000000000000000000000000000000000000000000000000000000000000075000000000000072100000000000000000000000000000001104201712042017            000000000000000                              000                           
0010001300051T 060180230000001544772 29577051571108627   7               12042017000000000007500104016430                         0900000000000010000000000000000000000000000000000000000   000000000000000000000029000        170192957705     
0010001300052U 060000000000000000000000000000000000000000000000000000000000000000000000075000000000000072100000000000000000000000000000001104201712042017            000000000000000                              000                           
0010001300053T 060180230000001544772 29577051661120112   7               13042017000000000007500104031390                         0900000000000010000000000000000000000000000000000000000   000000000000000000000029000        170192957705     
0010001300054U 060000000000000000000000000000000000000000000000000000000000000000000000075000000000000072100000000000000000000000000000001104201712042017            000000000000000                              000                           
0010001300055T 060180230000001544772 29577051662341981   7               12042017000000000007500021000420                         0900000000000010000000000000000000000000000000000000000   000000000000000000000029000        170192957705     
0010001300056U 060000000000000000000000000000000000000000000000000000000000000000000000075000000000000072100000000000000000000000000000001104201712042017            000000000000000                              000                           
0010001300057T 090180230000001544772 29577050130517277   78888888888888991101201700000000000750000103049X888888888888899          0900000000000000000000000000000000000000000000000000000   000000000000000000000010009        170192957705     
0010001300058U 090000000000000000000000000000000000000000000000000000000000000000000000000000000000000000000000000000000000000000000000001104201700000000            000000000000000                              000                           
0010001300059T 090180230000001544772 29577050156811102   788888888888889911012017000000000007500001000213888888888888899          0900000000000000000000000000000000000000000000000000000   000000000000000000000010009        170192957705     
0010001300060U 090000000000000000000000000000000000000000000000000000000000000000000000000000000000000000000000000000000000000000000000001104201700000000            000000000000000                              000                           
0010001300061T 090180230000001544772 29577050174529593   788888888888889911012017000000000007500001000213888888888888899          0900000000000000000000000000000000000000000000000000000   000000000000000000000010009        170192957705     
0010001300062U 090000000000000000000000000000000000000000000000000000000000000000000000000000000000000000000000000000000000000000000000001104201700000000            000000000000000                              000                           
0010001300063T 090180230000001544772 29577050175530053   788888888888889911012017000000000007500001000213888888888888899          0900000000000000000000000000000000000000000000000000000   000000000000000000000010009        170192957705     
0010001300064U 090000000000000000000000000000000000000000000000000000000000000000000000000000000000000000000000000000000000000000000000001104201700000000            000000000000000                              000                           
0010001300065T 090180230000001544772 29577050175639433   788888888888889911012017000000000007500001004782888888888888899          0900000000000000000000000000000000000000000000000000000   000000000000000000000010009        170192957705     
0010001300066U 090000000000000000000000000000000000000000000000000000000000000000000000000000000000000000000000000000000000000000000000001104201700000000            000000000000000                              000                           
0010001300067T 090180230000001544772 29577050175845508   788888888888889911012017000000000007500001012408888888888888899          0900000000000000000000000000000000000000000000000000000   000000000000000000000010009        170192957705     
0010001300068U 090000000000000000000000000000000000000000000000000000000000000000000000000000000000000000000000000000000000000000000000001104201700000000            000000000000000                              000                           
0010001300069T 090180230000001544772 29577050176049502   788888888888889911012017000000000007500001012416888888888888899          0900000000000000000000000000000000000000000000000000000   000000000000000000000010009        170192957705     
0010001300070U 090000000000000000000000000000000000000000000000000000000000000000000000000000000000000000000000000000000000000000000000001104201700000000            000000000000000                              000                           
0010001300071T 090180230000001544772 29577050176150052   78888888888888991101201700000000000750000103049X888888888888899          0900000000000000000000000000000000000000000000000000000   000000000000000000000010009        170192957705     
0010001300072U 090000000000000000000000000000000000000000000000000000000000000000000000000000000000000000000000000000000000000000000000001104201700000000            000000000000000                              000                           
0010001300073T 090180230000001544772 29577050176201789   788888888888889911012017000000000007500001038784888888888888899          0900000000000000000000000000000000000000000000000000000   000000000000000000000010009        170192957705     
0010001300074U 090000000000000000000000000000000000000000000000000000000000000000000000000000000000000000000000000000000000000000000000001104201700000000            000000000000000                              000                           
0010001300075T 090180230000001544772 29577050176224236   788888888888889911012017000000000007500001038784888888888888899          0900000000000000000000000000000000000000000000000000000   000000000000000000000010009        170192957705     
0010001300076U 090000000000000000000000000000000000000000000000000000000000000000000000000000000000000000000000000000000000000000000000001104201700000000            000000000000000                              000                           
0010001300077T 090180230000001544772 29577050176313627   788888888888889911012017000000000007500001012408888888888888899          0900000000000000000000000000000000000000000000000000000   000000000000000000000010009        170192957705     
0010001300078U 090000000000000000000000000000000000000000000000000000000000000000000000000000000000000000000000000000000000000000000000001104201700000000            000000000000000                              000                           
0010001300079T 090180230000001544772 29577050176317992   788888888888889911012017000000000007500001012408888888888888899          0900000000000000000000000000000000000000000000000000000   000000000000000000000010009        170192957705     
0010001300080U 090000000000000000000000000000000000000000000000000000000000000000000000000000000000000000000000000000000000000000000000001104201700000000            000000000000000                              000                           
0010001300081T 090180230000001544772 29577050176514617   788888888888889911012017000000000010000001000051888888888888899          0900000000000000000000000000000000000000000000000000000   000000000000000000000010009        170192957705     
0010001300082U 090000000000000000000000000000000000000000000000000000000000000000000000000000000000000000000000000000000000000000000000001104201700000000            000000000000000                              000                           
0010001300083T 090180230000001544772 29577050176614473   788888888888889911012017000000000007500001002224888888888888899          0900000000000000000000000000000000000000000000000000000   000000000000000000000010009        170192957705     
0010001300084U 090000000000000000000000000000000000000000000000000000000000000000000000000000000000000000000000000000000000000000000000001104201700000000            000000000000000                              000                           
0010001300085T 090180230000001544772 29577050176758719   788888888888889911012017000000000007500001012408888888888888899          0900000000000000000000000000000000000000000000000000000   000000000000000000000010009        170192957705     
0010001300086U 090000000000000000000000000000000000000000000000000000000000000000000000000000000000000000000000000000000000000000000000001104201700000000            000000000000000                              000                           
0010001300087T 090180230000001544772 29577050176855267   78888888888888991101201700000000000750000103049X888888888888899          0900000000000000000000000000000000000000000000000000000   000000000000000000000010009        170192957705     
0010001300088U 090000000000000000000000000000000000000000000000000000000000000000000000000000000000000000000000000000000000000000000000001104201700000000            000000000000000                              000                           
0010001300089T 090180230000001544772 29577050177011136   788888888888889911012017000000000007500001036781888888888888899          0900000000000000000000000000000000000000000000000000000   000000000000000000000010009        170192957705     
0010001300090U 090000000000000000000000000000000000000000000000000000000000000000000000000000000000000000000000000000000000000000000000001104201700000000            000000000000000                              000                           
0010001300091T 090180230000001544772 29577050177151588   78888888888888991101201700000000000750000103049X888888888888899          0900000000000000000000000000000000000000000000000000000   000000000000000000000010009        170192957705     
0010001300092U 090000000000000000000000000000000000000000000000000000000000000000000000000000000000000000000000000000000000000000000000001104201700000000            000000000000000                              000                           
0010001300093T 090180230000001544772 29577050177317953   78888888888888991101201700000000000750000103049X888888888888899          0900000000000000000000000000000000000000000000000000000   000000000000000000000010009        170192957705     
0010001300094U 090000000000000000000000000000000000000000000000000000000000000000000000000000000000000000000000000000000000000000000000001104201700000000            000000000000000                              000                           
0010001300095T 090180230000001544772 29577050177447319   78888888888888991101201700000000000750000103049X888888888888899          0900000000000000000000000000000000000000000000000000000   000000000000000000000010009        170192957705     
0010001300096U 090000000000000000000000000000000000000000000000000000000000000000000000000000000000000000000000000000000000000000000000001104201700000000            000000000000000                              000                           
0010001300097T 090180230000001544772 29577050177511457   788888888888889911012017000000000007500001007617888888888888899          0900000000000000000000000000000000000000000000000000000   000000000000000000000010009        170192957705     
0010001300098U 090000000000000000000000000000000000000000000000000000000000000000000000000000000000000000000000000000000000000000000000001104201700000000            000000000000000                              000                           
0010001300099T 090180230000001544772 29577050177652140   788888888888889911012017000000000007500001004782888888888888899          0900000000000000000000000000000000000000000000000000000   000000000000000000000010009        170192957705     
0010001300100U 090000000000000000000000000000000000000000000000000000000000000000000000000000000000000000000000000000000000000000000000001104201700000000            000000000000000                              000                           
0010001300101T 090180230000001544772 29577050177718751   788888888888889911012017000000000007500001012408888888888888899          0900000000000000000000000000000000000000000000000000000   000000000000000000000010009        170192957705     
0010001300102U 090000000000000000000000000000000000000000000000000000000000000000000000000000000000000000000000000000000000000000000000001104201700000000            000000000000000                              000                           
0010001300103T 090180230000001544772 29577050177801372   78888888888888991101201700000000000750000103049X888888888888899          0900000000000000000000000000000000000000000000000000000   000000000000000000000010009        170192957705     
0010001300104U 090000000000000000000000000000000000000000000000000000000000000000000000000000000000000000000000000000000000000000000000001104201700000000            000000000000000                              000                           
0010001300105T 090180230000001544772 29577050177927683   788888888888889911012017000000000010000001000051888888888888899          0900000000000000000000000000000000000000000000000000000   000000000000000000000010009        170192957705     
0010001300106U 090000000000000000000000000000000000000000000000000000000000000000000000000000000000000000000000000000000000000000000000001104201700000000            000000000000000                              000                           
0010001300107T 090180230000001544772 29577050178009774   788888888888889911012017000000000007500001012408888888888888899          0900000000000000000000000000000000000000000000000000000   000000000000000000000010009        170192957705     
0010001300108U 090000000000000000000000000000000000000000000000000000000000000000000000000000000000000000000000000000000000000000000000001104201700000000            000000000000000                              000                           
0010001300109T 090180230000001544772 29577050178231870   78888888888888991101201700000000000750000103049X888888888888899          0900000000000000000000000000000000000000000000000000000   000000000000000000000010009        170192957705     
0010001300110U 090000000000000000000000000000000000000000000000000000000000000000000000000000000000000000000000000000000000000000000000001104201700000000            000000000000000                              000                           
0010001300111T 090180230000001544772 29577050178244405   78888888888888991101201700000000000750000103049X888888888888899          0900000000000000000000000000000000000000000000000000000   000000000000000000000010009        170192957705     
0010001300112U 090000000000000000000000000000000000000000000000000000000000000000000000000000000000000000000000000000000000000000000000001104201700000000            000000000000000                              000                           
0010001300113T 090180230000001544772 29577050178248616   78888888888888991101201700000000000750000103049X888888888888899          0900000000000000000000000000000000000000000000000000000   000000000000000000000010009        170192957705     
0010001300114U 090000000000000000000000000000000000000000000000000000000000000000000000000000000000000000000000000000000000000000000000001104201700000000            000000000000000                              000                           
0010001300115T 090180230000001544772 29577050178335285   78888888888888991101201700000000000750000103049X888888888888899          0900000000000000000000000000000000000000000000000000000   000000000000000000000010009        170192957705     
0010001300116U 090000000000000000000000000000000000000000000000000000000000000000000000000000000000000000000000000000000000000000000000001104201700000000            000000000000000                              000                           
0010001300117T 090180230000001544772 29577050178356244   78888888888888991101201700000000000750000103049X888888888888899          0900000000000000000000000000000000000000000000000000000   000000000000000000000010009        170192957705     
0010001300118U 090000000000000000000000000000000000000000000000000000000000000000000000000000000000000000000000000000000000000000000000001104201700000000            000000000000000                              000                           
0010001300119T 090180230000001544772 29577050178542078   788888888888889911012017000000000007500001012408888888888888899          0900000000000000000000000000000000000000000000000000000   000000000000000000000010009        170192957705     
0010001300120U 090000000000000000000000000000000000000000000000000000000000000000000000000000000000000000000000000000000000000000000000001104201700000000            000000000000000                              000                           
0010001300121T 090180230000001544772 29577050178648186   788888888888889911012017000000000007500001012408888888888888899          0900000000000000000000000000000000000000000000000000000   000000000000000000000010009        170192957705     
0010001300122U 090000000000000000000000000000000000000000000000000000000000000000000000000000000000000000000000000000000000000000000000001104201700000000            000000000000000                              000                           
0010001300123T 090180230000001544772 29577050178718364   788888888888889911012017000000000007500001012416888888888888899          0900000000000000000000000000000000000000000000000000000   000000000000000000000010009        170192957705     
0010001300124U 090000000000000000000000000000000000000000000000000000000000000000000000000000000000000000000000000000000000000000000000001104201700000000            000000000000000                              000                           
0010001300125T 090180230000001544772 29577050178811392   788888888888889911012017000000000007500001000051888888888888899          0900000000000000000000000000000000000000000000000000000   000000000000000000000010009        170192957705     
0010001300126U 090000000000000000000000000000000000000000000000000000000000000000000000000000000000000000000000000000000000000000000000001104201700000000            000000000000000                              000                           
0010001300127T 090180230000001544772 29577050179028214   788888888888889911012017000000000007500001004782888888888888899          0900000000000000000000000000000000000000000000000000000   000000000000000000000010009        170192957705     
0010001300128U 090000000000000000000000000000000000000000000000000000000000000000000000000000000000000000000000000000000000000000000000001104201700000000            000000000000000                              000                           
0010001300129T 090180230000001544772 29577058899889979   7               11012017000000000007500001000213                         0900000000000000000000000000000000000000000000000000000   000000000000000000000010009        170192957705     
0010001300130U 090000000000000000000000000000000000000000000000000000000000000000000000000000000000000000000000000000000000000000000000001104201700000000            000000000000000                              000                           
0010001300131T 090180230000001544772 29577058899889981   7               11012017000000000007500001000213                         0900000000000000000000000000000000000000000000000000000   000000000000000000000010009        170192957705     
0010001300132U 090000000000000000000000000000000000000000000000000000000000000000000000000000000000000000000000000000000000000000000000001104201700000000            000000000000000                              000                           
0010001300133T 280180230000001544772 29577050008904508   788888888888889910022017000000000007500001000000888888888888899          0900000000000000000000000000000000000000000000000000000   000000000000000000000005002        170192957705     
0010001300134U 280000000000000000000000000000000000000000000000000000000000000000000000000000000000000000000000000000000000000000000000001104201700000000            000000000000000                              000                           
0010001300135T 280180230000001544772 29577050011114293   788888888888889910022017000000000007500001000000888888888888899          0900000000000000000000000000000000000000000000000000000   000000000000000000000005002        170192957705     
0010001300136U 280000000000000000000000000000000000000000000000000000000000000000000000000000000000000000000000000000000000000000000000001104201700000000            000000000000000                              000                           
0010001300137T 280180230000001544772 29577050011736475   7               12032017000000000007500001000000                         0900000000000000000000000000000000000000000000000000000   000000000000000000000005002        170192957705     
0010001300138U 280000000000000000000000000000000000000000000000000000000000000000000000000000000000000000000000000000000000000000000000001104201700000000            000000000000000                              000                           
0010001300139T 280180230000001544772 29577050015247584   788888888888889910022017000000000007500001000000888888888888899          0900000000000000000000000000000000000000000000000000000   000000000000000000000005002        170192957705     
0010001300140U 280000000000000000000000000000000000000000000000000000000000000000000000000000000000000000000000000000000000000000000000001104201700000000            000000000000000                              000                           
0010001300141T 280180230000001544772 29577050019513467   788888888888889910022017000000000007500001000000888888888888899          0900000000000000000000000000000000000000000000000000000   000000000000000000000005002        170192957705     
0010001300142U 280000000000000000000000000000000000000000000000000000000000000000000000000000000000000000000000000000000000000000000000001104201700000000            000000000000000                              000                           
0010001300143T 280180230000001544772 29577050020510663   7               12032017000000000007500001000000                         0900000000000000000000000000000000000000000000000000000   000000000000000000000005002        170192957705     
0010001300144U 280000000000000000000000000000000000000000000000000000000000000000000000000000000000000000000000000000000000000000000000001104201700000000            000000000000000                              000                           
0010001300145T 280180230000001544772 29577050024430645   788888888888889910022017000000000007500001000000888888888888899          0900000000000000000000000000000000000000000000000000000   000000000000000000000005002        170192957705     
0010001300146U 280000000000000000000000000000000000000000000000000000000000000000000000000000000000000000000000000000000000000000000000001104201700000000            000000000000000                              000                           
0010001300147T 280180230000001544772 29577050026118733   788888888888889910022017000000000007500001000000888888888888899          0900000000000000000000000000000000000000000000000000000   000000000000000000000005002        170192957705     
0010001300148U 280000000000000000000000000000000000000000000000000000000000000000000000000000000000000000000000000000000000000000000000001104201700000000            000000000000000                              000                           
0010001300149T 280180230000001544772 29577050050815122   788888888888889910022017000000000007500001000000888888888888899          0900000000000000000000000000000000000000000000000000000   000000000000000000000005002        170192957705     
0010001300150U 280000000000000000000000000000000000000000000000000000000000000000000000000000000000000000000000000000000000000000000000001104201700000000            000000000000000                              000                           
0010001300151T 280180230000001544772 29577050053749737   788888888888889910022017000000000007500001000000888888888888899          0900000000000000000000000000000000000000000000000000000   000000000000000000000005002        170192957705     
0010001300152U 280000000000000000000000000000000000000000000000000000000000000000000000000000000000000000000000000000000000000000000000001104201700000000            000000000000000                              000                           
0010001300153T 280180230000001544772 29577050082236868   7               12032017000000000007500001000000                         0900000000000000000000000000000000000000000000000000000   000000000000000000000005002        170192957705     
0010001300154U 280000000000000000000000000000000000000000000000000000000000000000000000000000000000000000000000000000000000000000000000001104201700000000            000000000000000                              000                           
0010001300155T 280180230000001544772 29577050083245513   788888888888889910022017000000000007500001000000888888888888899          0900000000000000000000000000000000000000000000000000000   000000000000000000000005002        170192957705     
0010001300156U 280000000000000000000000000000000000000000000000000000000000000000000000000000000000000000000000000000000000000000000000001104201700000000            000000000000000                              000                           
0010001300157T 280180230000001544772 29577050090506445   788888888888889910022017000000000007500001000000888888888888899          0900000000000000000000000000000000000000000000000000000   000000000000000000000005002        170192957705     
0010001300158U 280000000000000000000000000000000000000000000000000000000000000000000000000000000000000000000000000000000000000000000000001104201700000000            000000000000000                              000                           
0010001300159T 280180230000001544772 29577050096808529   788888888888889910022017000000000007500001000000888888888888899          0900000000000000000000000000000000000000000000000000000   000000000000000000000005002        170192957705     
0010001300160U 280000000000000000000000000000000000000000000000000000000000000000000000000000000000000000000000000000000000000000000000001104201700000000            000000000000000                              000                           
0010001300161T 280180230000001544772 29577050099925620   788888888888889910022017000000000007500001000000888888888888899          0900000000000000000000000000000000000000000000000000000   000000000000000000000005002        170192957705     
0010001300162U 280000000000000000000000000000000000000000000000000000000000000000000000000000000000000000000000000000000000000000000000001104201700000000            000000000000000                              000                           
0010001300163T 280180230000001544772 29577050105919762   788888888888889910022017000000000007500001000000888888888888899          0900000000000000000000000000000000000000000000000000000   000000000000000000000005002        170192957705     
0010001300164U 280000000000000000000000000000000000000000000000000000000000000000000000000000000000000000000000000000000000000000000000001104201700000000            000000000000000                              000                           
0010001300165T 280180230000001544772 29577050110139781   7               12032017000000000007500001000000                         0900000000000000000000000000000000000000000000000000000   000000000000000000000005002        170192957705     
0010001300166U 280000000000000000000000000000000000000000000000000000000000000000000000000000000000000000000000000000000000000000000000001104201700000000            000000000000000                              000                           
0010001300167T 280180230000001544772 29577050111316408   788888888888889910022017000000000007500001000000888888888888899          0900000000000000000000000000000000000000000000000000000   000000000000000000000005002        170192957705     
0010001300168U 280000000000000000000000000000000000000000000000000000000000000000000000000000000000000000000000000000000000000000000000001104201700000000            000000000000000                              000                           
0010001300169T 280180230000001544772 29577050112437182   788888888888889910022017000000000007500001000000888888888888899          0900000000000000000000000000000000000000000000000000000   000000000000000000000005002        170192957705     
0010001300170U 280000000000000000000000000000000000000000000000000000000000000000000000000000000000000000000000000000000000000000000000001104201700000000            000000000000000                              000                           
0010001300171T 280180230000001544772 29577050112521525   788888888888889910022017000000000007500001000000888888888888899          0900000000000000000000000000000000000000000000000000000   000000000000000000000005002        170192957705     
0010001300172U 280000000000000000000000000000000000000000000000000000000000000000000000000000000000000000000000000000000000000000000000001104201700000000            000000000000000                              000                           
0010001300173T 280180230000001544772 29577050112649126   788888888888889910022017000000000007500001000000888888888888899          0900000000000000000000000000000000000000000000000000000   000000000000000000000005002        170192957705     
0010001300174U 280000000000000000000000000000000000000000000000000000000000000000000000000000000000000000000000000000000000000000000000001104201700000000            000000000000000                              000                           
0010001300175T 280180230000001544772 29577050113401014   7               12032017000000000007500001000000                         0900000000000000000000000000000000000000000000000000000   000000000000000000000005002        170192957705     
0010001300176U 280000000000000000000000000000000000000000000000000000000000000000000000000000000000000000000000000000000000000000000000001104201700000000            000000000000000                              000                           
0010001300177T 280180230000001544772 29577050114414277   788888888888889910022017000000000007500001000000888888888888899          0900000000000000000000000000000000000000000000000000000   000000000000000000000005002        170192957705     
0010001300178U 280000000000000000000000000000000000000000000000000000000000000000000000000000000000000000000000000000000000000000000000001104201700000000            000000000000000                              000                           
0010001300179T 280180230000001544772 29577050114722238   788888888888889910022017000000000007500001000000888888888888899          0900000000000000000000000000000000000000000000000000000   000000000000000000000005002        170192957705     
0010001300180U 280000000000000000000000000000000000000000000000000000000000000000000000000000000000000000000000000000000000000000000000001104201700000000            000000000000000                              000                           
0010001300181T 280180230000001544772 29577050114828563   788888888888889910022017000000000007500001000000888888888888899          0900000000000000000000000000000000000000000000000000000   000000000000000000000005002        170192957705     
0010001300182U 280000000000000000000000000000000000000000000000000000000000000000000000000000000000000000000000000000000000000000000000001104201700000000            000000000000000                              000                           
0010001300183T 280180230000001544772 29577050114934262   788888888888889910022017000000000007500001000000888888888888899          0900000000000000000000000000000000000000000000000000000   000000000000000000000005002        170192957705     
0010001300184U 280000000000000000000000000000000000000000000000000000000000000000000000000000000000000000000000000000000000000000000000001104201700000000            000000000000000                              000                           
0010001300185T 280180230000001544772 29577050125051636   7               12032017000000000007500001000000                         0900000000000000000000000000000000000000000000000000000   000000000000000000000005002        170192957705     
0010001300186U 280000000000000000000000000000000000000000000000000000000000000000000000000000000000000000000000000000000000000000000000001104201700000000            000000000000000                              000                           
0010001300187T 280180230000001544772 29577050151312152   7               12032017000000000007500001000000                         0900000000000000000000000000000000000000000000000000000   000000000000000000000005002        170192957705     
0010001300188U 280000000000000000000000000000000000000000000000000000000000000000000000000000000000000000000000000000000000000000000000001104201700000000            000000000000000                              000                           
0010001300189T 280180230000001544772 29577050151347164   7               12032017000000000007500001000000                         0900000000000000000000000000000000000000000000000000000   000000000000000000000005002        170192957705     
0010001300190U 280000000000000000000000000000000000000000000000000000000000000000000000000000000000000000000000000000000000000000000000001104201700000000            000000000000000                              000                           
0010001300191T 280180230000001544772 29577050151453505   7               12032017000000000007500001000000                         0900000000000000000000000000000000000000000000000000000   000000000000000000000005002        170192957705     
0010001300192U 280000000000000000000000000000000000000000000000000000000000000000000000000000000000000000000000000000000000000000000000001104201700000000            000000000000000                              000                           
0010001300193T 280180230000001544772 29577050167958138   788888888888889910022017000000000007500001000000888888888888899          0900000000000000000000000000000000000000000000000000000   000000000000000000000005002        170192957705     
0010001300194U 280000000000000000000000000000000000000000000000000000000000000000000000000000000000000000000000000000000000000000000000001104201700000000            000000000000000                              000                           
0010001300195T 280180230000001544772 29577050179416913   7               12032017000000000007500001000000                         0900000000000000000000000000000000000000000000000000000   000000000000000000000005002        170192957705     
0010001300196U 280000000000000000000000000000000000000000000000000000000000000000000000000000000000000000000000000000000000000000000000001104201700000000            000000000000000                              000                           
0010001300197T 280180230000001544772 29577050182308909   788888888888889910022017000000000007500001000000888888888888899          0900000000000000000000000000000000000000000000000000000   000000000000000000000005002        170192957705     
0010001300198U 280000000000000000000000000000000000000000000000000000000000000000000000000000000000000000000000000000000000000000000000001104201700000000            000000000000000                              000                           
0010001300199T 280180230000001544772 29577050183301814   788888888888889910022017000000000007500001000000888888888888899          0900000000000000000000000000000000000000000000000000000   000000000000000000000005002        170192957705     
0010001300200U 280000000000000000000000000000000000000000000000000000000000000000000000000000000000000000000000000000000000000000000000001104201700000000            000000000000000                              000                           
0010001300201T 280180230000001544772 29577050192005905   788888888888889910022017000000000007500001000000888888888888899          0900000000000000000000000000000000000000000000000000000   000000000000000000000005002        170192957705     
0010001300202U 280000000000000000000000000000000000000000000000000000000000000000000000000000000000000000000000000000000000000000000000001104201700000000            000000000000000                              000                           
0010001300203T 280180230000001544772 29577050193813511   788888888888889910022017000000000007500001000000888888888888899          0900000000000000000000000000000000000000000000000000000   000000000000000000000005002        170192957705     
0010001300204U 280000000000000000000000000000000000000000000000000000000000000000000000000000000000000000000000000000000000000000000000001104201700000000            000000000000000                              000                           
0010001300205T 280180230000001544772 29577050201053248   788888888888889910022017000000000007500001000000888888888888899          0900000000000000000000000000000000000000000000000000000   000000000000000000000005002        170192957705     
0010001300206U 280000000000000000000000000000000000000000000000000000000000000000000000000000000000000000000000000000000000000000000000001104201700000000            000000000000000                              000                           
0010001300207T 280180230000001544772 29577050204104191   788888888888889910022017000000000007500001000000888888888888899          0900000000000000000000000000000000000000000000000000000   000000000000000000000005002        170192957705     
0010001300208U 280000000000000000000000000000000000000000000000000000000000000000000000000000000000000000000000000000000000000000000000001104201700000000            000000000000000                              000                           
0010001300209T 280180230000001544772 29577050207841885   788888888888889910022017000000000010000001000000888888888888899          0900000000000000000000000000000000000000000000000000000   000000000000000000000005002        170192957705     
0010001300210U 280000000000000000000000000000000000000000000000000000000000000000000000000000000000000000000000000000000000000000000000001104201700000000            000000000000000                              000                           
0010001300211T 280180230000001544772 29577050212439134   788888888888889910022017000000000007500001000000888888888888899          0900000000000000000000000000000000000000000000000000000   000000000000000000000005002        170192957705     
0010001300212U 280000000000000000000000000000000000000000000000000000000000000000000000000000000000000000000000000000000000000000000000001104201700000000            000000000000000                              000                           
0010001300213T 280180230000001544772 29577050216455646   788888888888889910022017000000000007500001000000888888888888899          0900000000000000000000000000000000000000000000000000000   000000000000000000000005002        170192957705     
0010001300214U 280000000000000000000000000000000000000000000000000000000000000000000000000000000000000000000000000000000000000000000000001104201700000000            000000000000000                              000                           
0010001300215T 280180230000001544772 29577050219033850   788888888888889910022017000000000007500001000000888888888888899          0900000000000000000000000000000000000000000000000000000   000000000000000000000005002        170192957705     
0010001300216U 280000000000000000000000000000000000000000000000000000000000000000000000000000000000000000000000000000000000000000000000001104201700000000            000000000000000                              000                           
0010001300217T 280180230000001544772 29577050223709662   7               12032017000000000007500001000000                         0900000000000000000000000000000000000000000000000000000   000000000000000000000005002        170192957705     
0010001300218U 280000000000000000000000000000000000000000000000000000000000000000000000000000000000000000000000000000000000000000000000001104201700000000            000000000000000                              000                           
0010001300219T 280180230000001544772 29577050224437446   788888888888889910022017000000000007500001000000888888888888899          0900000000000000000000000000000000000000000000000000000   000000000000000000000005002        170192957705     
0010001300220U 280000000000000000000000000000000000000000000000000000000000000000000000000000000000000000000000000000000000000000000000001104201700000000            000000000000000                              000                           
0010001300221T 280180230000001544772 29577050224947795   7               12032017000000000007500001000000                         0900000000000000000000000000000000000000000000000000000   000000000000000000000005002        170192957705     
0010001300222U 280000000000000000000000000000000000000000000000000000000000000000000000000000000000000000000000000000000000000000000000001104201700000000            000000000000000                              000                           
0010001300223T 280180230000001544772 29577050225039113   788888888888889910022017000000000007500001000000888888888888899          0900000000000000000000000000000000000000000000000000000   000000000000000000000005002        170192957705     
0010001300224U 280000000000000000000000000000000000000000000000000000000000000000000000000000000000000000000000000000000000000000000000001104201700000000            000000000000000                              000                           
0010001300225T 280180230000001544772 29577050231800378   788888888888889910022017000000000007500001000000888888888888899          0900000000000000000000000000000000000000000000000000000   000000000000000000000005002        170192957705     
0010001300226U 280000000000000000000000000000000000000000000000000000000000000000000000000000000000000000000000000000000000000000000000001104201700000000            000000000000000                              000                           
0010001300227T 280180230000001544772 29577050234535427   788888888888889910022017000000000007500001000000888888888888899          0900000000000000000000000000000000000000000000000000000   000000000000000000000005002        170192957705     
0010001300228U 280000000000000000000000000000000000000000000000000000000000000000000000000000000000000000000000000000000000000000000000001104201700000000            000000000000000                              000                           
0010001300229T 280180230000001544772 29577050236627364   7               12032017000000000010000001000000                         0900000000000000000000000000000000000000000000000000000   000000000000000000000005002        170192957705     
0010001300230U 280000000000000000000000000000000000000000000000000000000000000000000000000000000000000000000000000000000000000000000000001104201700000000            000000000000000                              000                           
0010001300231T 280180230000001544772 29577050250427897   788888888888889910022017000000000007500001000000888888888888899          0900000000000000000000000000000000000000000000000000000   000000000000000000000005002        170192957705     
0010001300232U 280000000000000000000000000000000000000000000000000000000000000000000000000000000000000000000000000000000000000000000000001104201700000000            000000000000000                              000                           
0010001300233T 280180230000001544772 29577050257249044   788888888888889910022017000000000007500001000000888888888888899          0900000000000000000000000000000000000000000000000000000   000000000000000000000005002        170192957705     
0010001300234U 280000000000000000000000000000000000000000000000000000000000000000000000000000000000000000000000000000000000000000000000001104201700000000            000000000000000                              000                           
0010001300235T 280180230000001544772 29577050257258392   788888888888889910022017000000000007500001000000888888888888899          0900000000000000000000000000000000000000000000000000000   000000000000000000000005002        170192957705     
0010001300236U 280000000000000000000000000000000000000000000000000000000000000000000000000000000000000000000000000000000000000000000000001104201700000000            000000000000000                              000                           
0010001300237T 280180230000001544772 29577050263205781   7               12032017000000000007500001000000                         0900000000000000000000000000000000000000000000000000000   000000000000000000000005002        170192957705     
0010001300238U 280000000000000000000000000000000000000000000000000000000000000000000000000000000000000000000000000000000000000000000000001104201700000000            000000000000000                              000                           
0010001300239T 280180230000001544772 29577050264958442   788888888888889910022017000000000007500001000000888888888888899          0900000000000000000000000000000000000000000000000000000   000000000000000000000005002        170192957705     
0010001300240U 280000000000000000000000000000000000000000000000000000000000000000000000000000000000000000000000000000000000000000000000001104201700000000            000000000000000                              000                           
0010001300241T 280180230000001544772 29577050264958809   788888888888889910022017000000000007500001000000888888888888899          0900000000000000000000000000000000000000000000000000000   000000000000000000000005002        170192957705     
0010001300242U 280000000000000000000000000000000000000000000000000000000000000000000000000000000000000000000000000000000000000000000000001104201700000000            000000000000000                              000                           
0010001300243T 280180230000001544772 29577050270001058   788888888888889910022017000000000007500001000000888888888888899          0900000000000000000000000000000000000000000000000000000   000000000000000000000005002        170192957705     
0010001300244U 280000000000000000000000000000000000000000000000000000000000000000000000000000000000000000000000000000000000000000000000001104201700000000            000000000000000                              000                           
0010001300245T 280180230000001544772 29577050271105853   788888888888889910022017000000000007500001000000888888888888899          0900000000000000000000000000000000000000000000000000000   000000000000000000000005002        170192957705     
0010001300246U 280000000000000000000000000000000000000000000000000000000000000000000000000000000000000000000000000000000000000000000000001104201700000000            000000000000000                              000                           
0010001300247T 280180230000001544772 29577050281332250   7               12032017000000000010000001000000                         0900000000000000000000000000000000000000000000000000000   000000000000000000000005002        170192957705     
0010001300248U 280000000000000000000000000000000000000000000000000000000000000000000000000000000000000000000000000000000000000000000000001104201700000000            000000000000000                              000                           
0010001300249T 280180230000001544772 29577050284336488   788888888888889910022017000000000007500001000000888888888888899          0900000000000000000000000000000000000000000000000000000   000000000000000000000005002        170192957705     
0010001300250U 280000000000000000000000000000000000000000000000000000000000000000000000000000000000000000000000000000000000000000000000001104201700000000            000000000000000                              000                           
0010001300251T 280180230000001544772 29577050285945143   788888888888889910022017000000000007500001000000888888888888899          0900000000000000000000000000000000000000000000000000000   000000000000000000000005002        170192957705     
0010001300252U 280000000000000000000000000000000000000000000000000000000000000000000000000000000000000000000000000000000000000000000000001104201700000000            000000000000000                              000                           
0010001300253T 280180230000001544772 29577050292109834   7               12032017000000000007500001000000                         0900000000000000000000000000000000000000000000000000000   000000000000000000000005002        170192957705     
0010001300254U 280000000000000000000000000000000000000000000000000000000000000000000000000000000000000000000000000000000000000000000000001104201700000000            000000000000000                              000                           
0010001300255T 280180230000001544772 29577050294833061   788888888888889910022017000000000007500001000000888888888888899          0900000000000000000000000000000000000000000000000000000   000000000000000000000005002        170192957705     
0010001300256U 280000000000000000000000000000000000000000000000000000000000000000000000000000000000000000000000000000000000000000000000001104201700000000            000000000000000                              000                           
0010001300257T 280180230000001544772 29577050295141934   788888888888889910022017000000000007500001000000888888888888899          0900000000000000000000000000000000000000000000000000000   000000000000000000000005002        170192957705     
0010001300258U 280000000000000000000000000000000000000000000000000000000000000000000000000000000000000000000000000000000000000000000000001104201700000000            000000000000000                              000                           
0010001300259T 280180230000001544772 29577050295520569   788888888888889910022017000000000007500001000000888888888888899          0900000000000000000000000000000000000000000000000000000   000000000000000000000005002        170192957705     
0010001300260U 280000000000000000000000000000000000000000000000000000000000000000000000000000000000000000000000000000000000000000000000001104201700000000            000000000000000                              000                           
0010001300261T 280180230000001544772 29577050297739892   7               12032017000000000007500001000000                         0900000000000000000000000000000000000000000000000000000   000000000000000000000005002        170192957705     
0010001300262U 280000000000000000000000000000000000000000000000000000000000000000000000000000000000000000000000000000000000000000000000001104201700000000            000000000000000                              000                           
0010001300263T 280180230000001544772 29577050308119158   788888888888889910022017000000000007500001000000888888888888899          0900000000000000000000000000000000000000000000000000000   000000000000000000000005002        170192957705     
0010001300264U 280000000000000000000000000000000000000000000000000000000000000000000000000000000000000000000000000000000000000000000000001104201700000000            000000000000000                              000                           
0010001300265T 280180230000001544772 29577050310622541   7               12032017000000000007500001000000                         0900000000000000000000000000000000000000000000000000000   000000000000000000000005002        170192957705     
0010001300266U 280000000000000000000000000000000000000000000000000000000000000000000000000000000000000000000000000000000000000000000000001104201700000000            000000000000000                              000                           
0010001300267T 280180230000001544772 29577050310653997   7               12032017000000000007500001000000                         0900000000000000000000000000000000000000000000000000000   000000000000000000000005002        170192957705     
0010001300268U 280000000000000000000000000000000000000000000000000000000000000000000000000000000000000000000000000000000000000000000000001104201700000000            000000000000000                              000                           
0010001300269T 280180230000001544772 29577050311211050   7               12032017000000000007500001000000                         0900000000000000000000000000000000000000000000000000000   000000000000000000000005002        170192957705     
0010001300270U 280000000000000000000000000000000000000000000000000000000000000000000000000000000000000000000000000000000000000000000000001104201700000000            000000000000000                              000                           
0010001300271T 280180230000001544772 29577050314237104   7               12032017000000000007500001000000                         0900000000000000000000000000000000000000000000000000000   000000000000000000000005002        170192957705     
0010001300272U 280000000000000000000000000000000000000000000000000000000000000000000000000000000000000000000000000000000000000000000000001104201700000000            000000000000000                              000                           
0010001300273T 280180230000001544772 29577050317120882   788888888888889910022017000000000007500001000000888888888888899          0900000000000000000000000000000000000000000000000000000   000000000000000000000005002        170192957705     
0010001300274U 280000000000000000000000000000000000000000000000000000000000000000000000000000000000000000000000000000000000000000000000001104201700000000            000000000000000                              000                           
0010001300275T 280180230000001544772 29577050319233800   7               12032017000000000007500001000000                         0900000000000000000000000000000000000000000000000000000   000000000000000000000005002        170192957705     
0010001300276U 280000000000000000000000000000000000000000000000000000000000000000000000000000000000000000000000000000000000000000000000001104201700000000            000000000000000                              000                           
0010001300277T 280180230000001544772 29577050319322897   7               12032017000000000007500001000000                         0900000000000000000000000000000000000000000000000000000   000000000000000000000005002        170192957705     
0010001300278U 280000000000000000000000000000000000000000000000000000000000000000000000000000000000000000000000000000000000000000000000001104201700000000            000000000000000                              000                           
0010001300279T 280180230000001544772 29577050336711855   788888888888889910022017000000000007500001000000888888888888899          0900000000000000000000000000000000000000000000000000000   000000000000000000000005002        170192957705     
0010001300280U 280000000000000000000000000000000000000000000000000000000000000000000000000000000000000000000000000000000000000000000000001104201700000000            000000000000000                              000                           
0010001300281T 280180230000001544772 29577050338728973   788888888888889910022017000000000007500001000000888888888888899          0900000000000000000000000000000000000000000000000000000   000000000000000000000005002        170192957705     
0010001300282U 280000000000000000000000000000000000000000000000000000000000000000000000000000000000000000000000000000000000000000000000001104201700000000            000000000000000                              000                           
0010001300283T 280180230000001544772 29577050341131421   7               12032017000000000007500001000000                         0900000000000000000000000000000000000000000000000000000   000000000000000000000005002        170192957705     
0010001300284U 280000000000000000000000000000000000000000000000000000000000000000000000000000000000000000000000000000000000000000000000001104201700000000            000000000000000                              000                           
0010001300285T 280180230000001544772 29577050341242626   7               12032017000000000007500001000000                         0900000000000000000000000000000000000000000000000000000   000000000000000000000005002        170192957705     
0010001300286U 280000000000000000000000000000000000000000000000000000000000000000000000000000000000000000000000000000000000000000000000001104201700000000            000000000000000                              000                           
0010001300287T 280180230000001544772 29577050341434611   7               12032017000000000007500001000000                         0900000000000000000000000000000000000000000000000000000   000000000000000000000005002        170192957705     
0010001300288U 280000000000000000000000000000000000000000000000000000000000000000000000000000000000000000000000000000000000000000000000001104201700000000            000000000000000                              000                           
0010001300289T 280180230000001544772 29577050356213907   7               12032017000000000007500001000000                         0900000000000000000000000000000000000000000000000000000   000000000000000000000005002        170192957705     
0010001300290U 280000000000000000000000000000000000000000000000000000000000000000000000000000000000000000000000000000000000000000000000001104201700000000            000000000000000                              000                           
0010001300291T 280180230000001544772 29577050357751598   7               12032017000000000007500001000000                         0900000000000000000000000000000000000000000000000000000   000000000000000000000005002        170192957705     
0010001300292U 280000000000000000000000000000000000000000000000000000000000000000000000000000000000000000000000000000000000000000000000001104201700000000            000000000000000                              000                           
0010001300293T 280180230000001544772 29577050371113821   788888888888889910022017000000000007500001000000888888888888899          0900000000000000000000000000000000000000000000000000000   000000000000000000000005002        170192957705     
0010001300294U 280000000000000000000000000000000000000000000000000000000000000000000000000000000000000000000000000000000000000000000000001104201700000000            000000000000000                              000                           
0010001300295T 280180230000001544772 29577050371133550   788888888888889910022017000000000007500001000000888888888888899          0900000000000000000000000000000000000000000000000000000   000000000000000000000005002        170192957705     
0010001300296U 280000000000000000000000000000000000000000000000000000000000000000000000000000000000000000000000000000000000000000000000001104201700000000            000000000000000                              000                           
0010001300297T 280180230000001544772 29577050379414637   788888888888889910022017000000000007500001000000888888888888899          0900000000000000000000000000000000000000000000000000000   000000000000000000000005002        170192957705     
0010001300298U 280000000000000000000000000000000000000000000000000000000000000000000000000000000000000000000000000000000000000000000000001104201700000000            000000000000000                              000                           
0010001300299T 280180230000001544772 29577050379659192   788888888888889910022017000000000007500001000000888888888888899          0900000000000000000000000000000000000000000000000000000   000000000000000000000005002        170192957705     
0010001300300U 280000000000000000000000000000000000000000000000000000000000000000000000000000000000000000000000000000000000000000000000001104201700000000            000000000000000                              000                           
0010001300301T 280180230000001544772 29577050391602478   788888888888889910022017000000000007500001000000888888888888899          0900000000000000000000000000000000000000000000000000000   000000000000000000000005002        170192957705     
0010001300302U 280000000000000000000000000000000000000000000000000000000000000000000000000000000000000000000000000000000000000000000000001104201700000000            000000000000000                              000                           
0010001300303T 280180230000001544772 29577050406612543   788888888888889910022017000000000007500001000000888888888888899          0900000000000000000000000000000000000000000000000000000   000000000000000000000005002        170192957705     
0010001300304U 280000000000000000000000000000000000000000000000000000000000000000000000000000000000000000000000000000000000000000000000001104201700000000            000000000000000                              000                           
0010001300305T 280180230000001544772 29577050407719405   7               12032017000000000010000001000000                         0900000000000000000000000000000000000000000000000000000   000000000000000000000005002        170192957705     
0010001300306U 280000000000000000000000000000000000000000000000000000000000000000000000000000000000000000000000000000000000000000000000001104201700000000            000000000000000                              000                           
0010001300307T 280180230000001544772 29577050412437621   788888888888889910022017000000000007500001000000888888888888899          0900000000000000000000000000000000000000000000000000000   000000000000000000000005002        170192957705     
0010001300308U 280000000000000000000000000000000000000000000000000000000000000000000000000000000000000000000000000000000000000000000000001104201700000000            000000000000000                              000                           
0010001300309T 280180230000001544772 29577050425540319   7               12032017000000000007500001000000                         0900000000000000000000000000000000000000000000000000000   000000000000000000000005002        170192957705     
0010001300310U 280000000000000000000000000000000000000000000000000000000000000000000000000000000000000000000000000000000000000000000000001104201700000000            000000000000000                              000                           
0010001300311T 280180230000001544772 29577050429110179   788888888888889910022017000000000007500001000000888888888888899          0900000000000000000000000000000000000000000000000000000   000000000000000000000005002        170192957705     
0010001300312U 280000000000000000000000000000000000000000000000000000000000000000000000000000000000000000000000000000000000000000000000001104201700000000            000000000000000                              000                           
0010001300313T 280180230000001544772 29577050432701097   7               12032017000000000007500001000000                         0900000000000000000000000000000000000000000000000000000   000000000000000000000005002        170192957705     
0010001300314U 280000000000000000000000000000000000000000000000000000000000000000000000000000000000000000000000000000000000000000000000001104201700000000            000000000000000                              000                           
0010001300315T 280180230000001544772 29577050432755565   7               12032017000000000007500001000000                         0900000000000000000000000000000000000000000000000000000   000000000000000000000005002        170192957705     
0010001300316U 280000000000000000000000000000000000000000000000000000000000000000000000000000000000000000000000000000000000000000000000001104201700000000            000000000000000                              000                           
0010001300317T 280180230000001544772 29577050441404723   788888888888889910022017000000000007500001000000888888888888899          0900000000000000000000000000000000000000000000000000000   000000000000000000000005002        170192957705     
0010001300318U 280000000000000000000000000000000000000000000000000000000000000000000000000000000000000000000000000000000000000000000000001104201700000000            000000000000000                              000                           
0010001300319T 280180230000001544772 29577050441410006   788888888888889910022017000000000007500001000000888888888888899          0900000000000000000000000000000000000000000000000000000   000000000000000000000005002        170192957705     
0010001300320U 280000000000000000000000000000000000000000000000000000000000000000000000000000000000000000000000000000000000000000000000001104201700000000            000000000000000                              000                           
0010001300321T 280180230000001544772 29577050445345746   788888888888889910022017000000000010000001000000888888888888899          0900000000000000000000000000000000000000000000000000000   000000000000000000000005002        170192957705     
0010001300322U 280000000000000000000000000000000000000000000000000000000000000000000000000000000000000000000000000000000000000000000000001104201700000000            000000000000000                              000                           
0010001300323T 280180230000001544772 29577050446408243   788888888888889910022017000000000007500001000000888888888888899          0900000000000000000000000000000000000000000000000000000   000000000000000000000005002        170192957705     
0010001300324U 280000000000000000000000000000000000000000000000000000000000000000000000000000000000000000000000000000000000000000000000001104201700000000            000000000000000                              000                           
0010001300325T 280180230000001544772 29577050446541932   788888888888889910022017000000000007500001000000888888888888899          0900000000000000000000000000000000000000000000000000000   000000000000000000000005002        170192957705     
0010001300326U 280000000000000000000000000000000000000000000000000000000000000000000000000000000000000000000000000000000000000000000000001104201700000000            000000000000000                              000                           
0010001300327T 280180230000001544772 29577050446716129   788888888888889910022017000000000007500001000000888888888888899          0900000000000000000000000000000000000000000000000000000   000000000000000000000005002        170192957705     
0010001300328U 280000000000000000000000000000000000000000000000000000000000000000000000000000000000000000000000000000000000000000000000001104201700000000            000000000000000                              000                           
0010001300329T 280180230000001544772 29577050446842261   788888888888889910022017000000000007500001000000888888888888899          0900000000000000000000000000000000000000000000000000000   000000000000000000000005002        170192957705     
0010001300330U 280000000000000000000000000000000000000000000000000000000000000000000000000000000000000000000000000000000000000000000000001104201700000000            000000000000000                              000                           
0010001300331T 280180230000001544772 29577050446853133   788888888888889910022017000000000007500001000000888888888888899          0900000000000000000000000000000000000000000000000000000   000000000000000000000005002        170192957705     
0010001300332U 280000000000000000000000000000000000000000000000000000000000000000000000000000000000000000000000000000000000000000000000001104201700000000            000000000000000                              000                           
0010001300333T 280180230000001544772 29577050446925629   788888888888889910022017000000000007500001000000888888888888899          0900000000000000000000000000000000000000000000000000000   000000000000000000000005002        170192957705     
0010001300334U 280000000000000000000000000000000000000000000000000000000000000000000000000000000000000000000000000000000000000000000000001104201700000000            000000000000000                              000                           
0010001300335T 280180230000001544772 29577050447057710   788888888888889910022017000000000007500001000000888888888888899          0900000000000000000000000000000000000000000000000000000   000000000000000000000005002        170192957705     
0010001300336U 280000000000000000000000000000000000000000000000000000000000000000000000000000000000000000000000000000000000000000000000001104201700000000            000000000000000                              000                           
0010001300337T 280180230000001544772 29577050447220590   788888888888889910022017000000000007500001000000888888888888899          0900000000000000000000000000000000000000000000000000000   000000000000000000000005002        170192957705     
0010001300338U 280000000000000000000000000000000000000000000000000000000000000000000000000000000000000000000000000000000000000000000000001104201700000000            000000000000000                              000                           
0010001300339T 280180230000001544772 29577050447310100   788888888888889910022017000000000007500001000000888888888888899          0900000000000000000000000000000000000000000000000000000   000000000000000000000005002        170192957705     
0010001300340U 280000000000000000000000000000000000000000000000000000000000000000000000000000000000000000000000000000000000000000000000001104201700000000            000000000000000                              000                           
0010001300341T 280180230000001544772 29577050447426624   788888888888889910022017000000000007500001000000888888888888899          0900000000000000000000000000000000000000000000000000000   000000000000000000000005002        170192957705     
0010001300342U 280000000000000000000000000000000000000000000000000000000000000000000000000000000000000000000000000000000000000000000000001104201700000000            000000000000000                              000                           
0010001300343T 280180230000001544772 29577050447745765   788888888888889910022017000000000007500001000000888888888888899          0900000000000000000000000000000000000000000000000000000   000000000000000000000005002        170192957705     
0010001300344U 280000000000000000000000000000000000000000000000000000000000000000000000000000000000000000000000000000000000000000000000001104201700000000            000000000000000                              000                           
0010001300345T 280180230000001544772 29577050447852520   788888888888889910022017000000000007500001000000888888888888899          0900000000000000000000000000000000000000000000000000000   000000000000000000000005002        170192957705     
0010001300346U 280000000000000000000000000000000000000000000000000000000000000000000000000000000000000000000000000000000000000000000000001104201700000000            000000000000000                              000                           
0010001300347T 280180230000001544772 29577050447930609   788888888888889910022017000000000007500001000000888888888888899          0900000000000000000000000000000000000000000000000000000   000000000000000000000005002        170192957705     
0010001300348U 280000000000000000000000000000000000000000000000000000000000000000000000000000000000000000000000000000000000000000000000001104201700000000            000000000000000                              000                           
0010001300349T 280180230000001544772 29577050448116731   788888888888889910022017000000000007500001000000888888888888899          0900000000000000000000000000000000000000000000000000000   000000000000000000000005002        170192957705     
0010001300350U 280000000000000000000000000000000000000000000000000000000000000000000000000000000000000000000000000000000000000000000000001104201700000000            000000000000000                              000                           
0010001300351T 280180230000001544772 29577050448329259   788888888888889910022017000000000007500001000000888888888888899          0900000000000000000000000000000000000000000000000000000   000000000000000000000005002        170192957705     
0010001300352U 280000000000000000000000000000000000000000000000000000000000000000000000000000000000000000000000000000000000000000000000001104201700000000            000000000000000                              000                           
0010001300353T 280180230000001544772 29577050448329711   788888888888889910022017000000000007500001000000888888888888899          0900000000000000000000000000000000000000000000000000000   000000000000000000000005002        170192957705     
0010001300354U 280000000000000000000000000000000000000000000000000000000000000000000000000000000000000000000000000000000000000000000000001104201700000000            000000000000000                              000                           
0010001300355T 280180230000001544772 29577050448329756   788888888888889910022017000000000007500001000000888888888888899          0900000000000000000000000000000000000000000000000000000   000000000000000000000005002        170192957705     
0010001300356U 280000000000000000000000000000000000000000000000000000000000000000000000000000000000000000000000000000000000000000000000001104201700000000            000000000000000                              000                           
0010001300357T 280180230000001544772 29577050448450335   788888888888889910022017000000000007500001000000888888888888899          0900000000000000000000000000000000000000000000000000000   000000000000000000000005002        170192957705     
0010001300358U 280000000000000000000000000000000000000000000000000000000000000000000000000000000000000000000000000000000000000000000000001104201700000000            000000000000000                              000                           
0010001300359T 280180230000001544772 29577050448541177   788888888888889910022017000000000007500001000000888888888888899          0900000000000000000000000000000000000000000000000000000   000000000000000000000005002        170192957705     
0010001300360U 280000000000000000000000000000000000000000000000000000000000000000000000000000000000000000000000000000000000000000000000001104201700000000            000000000000000                              000                           
0010001300361T 280180230000001544772 29577050448633293   788888888888889910022017000000000007500001000000888888888888899          0900000000000000000000000000000000000000000000000000000   000000000000000000000005002        170192957705     
0010001300362U 280000000000000000000000000000000000000000000000000000000000000000000000000000000000000000000000000000000000000000000000001104201700000000            000000000000000                              000                           
0010001300363T 280180230000001544772 29577050448705122   788888888888889910022017000000000007500001000000888888888888899          0900000000000000000000000000000000000000000000000000000   000000000000000000000005002        170192957705     
0010001300364U 280000000000000000000000000000000000000000000000000000000000000000000000000000000000000000000000000000000000000000000000001104201700000000            000000000000000                              000                           
0010001300365T 280180230000001544772 29577050448813686   788888888888889910022017000000000007500001000000888888888888899          0900000000000000000000000000000000000000000000000000000   000000000000000000000005002        170192957705     
0010001300366U 280000000000000000000000000000000000000000000000000000000000000000000000000000000000000000000000000000000000000000000000001104201700000000            000000000000000                              000                           
0010001300367T 280180230000001544772 29577050448935188   788888888888889910022017000000000007500001000000888888888888899          0900000000000000000000000000000000000000000000000000000   000000000000000000000005002        170192957705     
0010001300368U 280000000000000000000000000000000000000000000000000000000000000000000000000000000000000000000000000000000000000000000000001104201700000000            000000000000000                              000                           
0010001300369T 280180230000001544772 29577050449020440   788888888888889910022017000000000007500001000000888888888888899          0900000000000000000000000000000000000000000000000000000   000000000000000000000005002        170192957705     
0010001300370U 280000000000000000000000000000000000000000000000000000000000000000000000000000000000000000000000000000000000000000000000001104201700000000            000000000000000                              000                           
0010001300371T 280180230000001544772 29577050449158715   788888888888889910022017000000000007500001000000888888888888899          0900000000000000000000000000000000000000000000000000000   000000000000000000000005002        170192957705     
0010001300372U 280000000000000000000000000000000000000000000000000000000000000000000000000000000000000000000000000000000000000000000000001104201700000000            000000000000000                              000                           
0010001300373T 280180230000001544772 29577050449222620   788888888888889910022017000000000007500001000000888888888888899          0900000000000000000000000000000000000000000000000000000   000000000000000000000005002        170192957705     
0010001300374U 280000000000000000000000000000000000000000000000000000000000000000000000000000000000000000000000000000000000000000000000001104201700000000            000000000000000                              000                           
0010001300375T 280180230000001544772 29577050449303788   788888888888889910022017000000000007500001000000888888888888899          0900000000000000000000000000000000000000000000000000000   000000000000000000000005002        170192957705     
0010001300376U 280000000000000000000000000000000000000000000000000000000000000000000000000000000000000000000000000000000000000000000000001104201700000000            000000000000000                              000                           
0010001300377T 280180230000001544772 29577050449559174   788888888888889910022017000000000007500001000000888888888888899          0900000000000000000000000000000000000000000000000000000   000000000000000000000005002        170192957705     
0010001300378U 280000000000000000000000000000000000000000000000000000000000000000000000000000000000000000000000000000000000000000000000001104201700000000            000000000000000                              000                           
0010001300379T 280180230000001544772 29577050449752533   788888888888889910022017000000000007500001000000888888888888899          0900000000000000000000000000000000000000000000000000000   000000000000000000000005002        170192957705     
0010001300380U 280000000000000000000000000000000000000000000000000000000000000000000000000000000000000000000000000000000000000000000000001104201700000000            000000000000000                              000                           
0010001300381T 280180230000001544772 29577050449802443   788888888888889910022017000000000007500001000000888888888888899          0900000000000000000000000000000000000000000000000000000   000000000000000000000005002        170192957705     
0010001300382U 280000000000000000000000000000000000000000000000000000000000000000000000000000000000000000000000000000000000000000000000001104201700000000            000000000000000                              000                           
0010001300383T 280180230000001544772 29577050449943502   788888888888889910022017000000000007500001000000888888888888899          0900000000000000000000000000000000000000000000000000000   000000000000000000000005002        170192957705     
0010001300384U 280000000000000000000000000000000000000000000000000000000000000000000000000000000000000000000000000000000000000000000000001104201700000000            000000000000000                              000                           
0010001300385T 280180230000001544772 29577050450003235   788888888888889910022017000000000007500001000000888888888888899          0900000000000000000000000000000000000000000000000000000   000000000000000000000005002        170192957705     
0010001300386U 280000000000000000000000000000000000000000000000000000000000000000000000000000000000000000000000000000000000000000000000001104201700000000            000000000000000                              000                           
0010001300387T 280180230000001544772 29577050450017257   788888888888889910022017000000000007500001000000888888888888899          0900000000000000000000000000000000000000000000000000000   000000000000000000000005002        170192957705     
0010001300388U 280000000000000000000000000000000000000000000000000000000000000000000000000000000000000000000000000000000000000000000000001104201700000000            000000000000000                              000                           
0010001300389T 280180230000001544772 29577050450025829   788888888888889910022017000000000007500001000000888888888888899          0900000000000000000000000000000000000000000000000000000   000000000000000000000005002        170192957705     
0010001300390U 280000000000000000000000000000000000000000000000000000000000000000000000000000000000000000000000000000000000000000000000001104201700000000            000000000000000                              000                           
0010001300391T 280180230000001544772 29577050450029422   788888888888889910022017000000000007500001000000888888888888899          0900000000000000000000000000000000000000000000000000000   000000000000000000000005002        170192957705     
0010001300392U 280000000000000000000000000000000000000000000000000000000000000000000000000000000000000000000000000000000000000000000000001104201700000000            000000000000000                              000                           
0010001300393T 280180230000001544772 29577050450325957   788888888888889910022017000000000007500001000000888888888888899          0900000000000000000000000000000000000000000000000000000   000000000000000000000005002        170192957705     
0010001300394U 280000000000000000000000000000000000000000000000000000000000000000000000000000000000000000000000000000000000000000000000001104201700000000            000000000000000                              000                           
0010001300395T 280180230000001544772 29577050450408573   788888888888889910022017000000000007500001000000888888888888899          0900000000000000000000000000000000000000000000000000000   000000000000000000000005002        170192957705     
0010001300396U 280000000000000000000000000000000000000000000000000000000000000000000000000000000000000000000000000000000000000000000000001104201700000000            000000000000000                              000                           
0010001300397T 280180230000001544772 29577050450710396   788888888888889910022017000000000007500001000000888888888888899          0900000000000000000000000000000000000000000000000000000   000000000000000000000005002        170192957705     
0010001300398U 280000000000000000000000000000000000000000000000000000000000000000000000000000000000000000000000000000000000000000000000001104201700000000            000000000000000                              000                           
0010001300399T 280180230000001544772 29577050450800973   788888888888889910022017000000000007500001000000888888888888899          0900000000000000000000000000000000000000000000000000000   000000000000000000000005002        170192957705     
0010001300400U 280000000000000000000000000000000000000000000000000000000000000000000000000000000000000000000000000000000000000000000000001104201700000000            000000000000000                              000                           
0010001300401T 280180230000001544772 29577050450900430   788888888888889910022017000000000007500001000000888888888888899          0900000000000000000000000000000000000000000000000000000   000000000000000000000005002        170192957705     
0010001300402U 280000000000000000000000000000000000000000000000000000000000000000000000000000000000000000000000000000000000000000000000001104201700000000            000000000000000                              000                           
0010001300403T 280180230000001544772 29577050451046578   788888888888889910022017000000000007500001000000888888888888899          0900000000000000000000000000000000000000000000000000000   000000000000000000000005002        170192957705     
0010001300404U 280000000000000000000000000000000000000000000000000000000000000000000000000000000000000000000000000000000000000000000000001104201700000000            000000000000000                              000                           
0010001300405T 280180230000001544772 29577050451118285   788888888888889910022017000000000007500001000000888888888888899          0900000000000000000000000000000000000000000000000000000   000000000000000000000005002        170192957705     
0010001300406U 280000000000000000000000000000000000000000000000000000000000000000000000000000000000000000000000000000000000000000000000001104201700000000            000000000000000                              000                           
0010001300407T 280180230000001544772 29577050451204951   788888888888889910022017000000000007500001000000888888888888899          0900000000000000000000000000000000000000000000000000000   000000000000000000000005002        170192957705     
0010001300408U 280000000000000000000000000000000000000000000000000000000000000000000000000000000000000000000000000000000000000000000000001104201700000000            000000000000000                              000                           
0010001300409T 280180230000001544772 29577050451532866   788888888888889910022017000000000007500001000000888888888888899          0900000000000000000000000000000000000000000000000000000   000000000000000000000005002        170192957705     
0010001300410U 280000000000000000000000000000000000000000000000000000000000000000000000000000000000000000000000000000000000000000000000001104201700000000            000000000000000                              000                           
0010001300411T 280180230000001544772 29577050451536225   788888888888889910022017000000000007500001000000888888888888899          0900000000000000000000000000000000000000000000000000000   000000000000000000000005002        170192957705     
0010001300412U 280000000000000000000000000000000000000000000000000000000000000000000000000000000000000000000000000000000000000000000000001104201700000000            000000000000000                              000                           
