00100000         2247745860001000029577050014       0180230000001544772 INSTITUTO DE SELECAO E TECNOLOBANCO DO BRASIL                         21204201701225700017203000000515122941PROCESSAMEN                                                 
00100011T0100020 20247745860001000029577050014       0180230000001544772 INSTITUTO DE SELECAO E TECNOLO                                                                                000000001204201700000000  000000000                      
0010001300001T 020180230000001544772 29577050237632770   7               14042017000000000010000001000213                         0900000000000010000000000000000000000000000000000000000   0000000000000000000000000A9        170192957705     
0010001300002U 020000000000000000000000000000000000000000000000000000000000000000000000000000000000000000000000000000000000000000000000001204201700000000            000000000000000                              000                           
0010001300003T 020180230000001544772 29577050237643032   7               14042017000000000010000001000213                         0900000000000010000000000000000000000000000000000000000   0000000000000000000000000A9        170192957705     
0010001300004U 020000000000000000000000000000000000000000000000000000000000000000000000000000000000000000000000000000000000000000000000001204201700000000            000000000000000                              000                           
0010001300005T 020180230000001544772 29577050237651425   7               14042017000000000010000001000213                         0900000000000010000000000000000000000000000000000000000   0000000000000000000000000A9        170192957705     
0010001300006U 020000000000000000000000000000000000000000000000000000000000000000000000000000000000000000000000000000000000000000000000001204201700000000            000000000000000                              000                           
0010001300007T 020180230000001544772 29577050359951120   7               14042017000000000007500001012416                         0900000000000010000000000000000000000000000000000000000   0000000000000000000000000A9        170192957705     
0010001300008U 020000000000000000000000000000000000000000000000000000000000000000000000000000000000000000000000000000000000000000000000001204201700000000            000000000000000                              000                           
0010001300009T 020180230000001544772 29577050531038658   7               1404201700000000000750000103049X                         0900000000000010000000000000000000000000000000000000000   0000000000000000000000000A9        170192957705     
0010001300010U 020000000000000000000000000000000000000000000000000000000000000000000000000000000000000000000000000000000000000000000000001204201700000000            000000000000000                              000                           
0010001300011T 020180230000001544772 29577050982517081   7               14042017000000000007500001000213                         0900000000000010000000000000000000000000000000000000000   0000000000000000000000000A9        170192957705     
0010001300012U 020000000000000000000000000000000000000000000000000000000000000000000000000000000000000000000000000000000000000000000000001204201700000000            000000000000000                              000                           
0010001300013T 020180230000001544772 29577050982753806   7               14042017000000000007500001000213                         0900000000000010000000000000000000000000000000000000000   0000000000000000000000000A9        170192957705     
0010001300014U 020000000000000000000000000000000000000000000000000000000000000000000000000000000000000000000000000000000000000000000000001204201700000000            000000000000000                              000                           
0010001300015T 020180230000001544772 29577051180129211   7               14042017000000000007500001012416                         0900000000000010000000000000000000000000000000000000000   0000000000000000000000000A9        170192957705     
0010001300016U 020000000000000000000000000000000000000000000000000000000000000000000000000000000000000000000000000000000000000000000000001204201700000000            000000000000000                              000                           
0010001300017T 020180230000001544772 29577051306039073   7               14042017000000000007500001000213                         0900000000000010000000000000000000000000000000000000000   0000000000000000000000000A9        170192957705     
0010001300018U 020000000000000000000000000000000000000000000000000000000000000000000000000000000000000000000000000000000000000000000000001204201700000000            000000000000000                              000                           
0010001300019T 020180230000001544772 29577051623040093   7               14042017000000000007500001000213                         0900000000000010000000000000000000000000000000000000000   0000000000000000000000000A9        170192957705     
0010001300020U 020000000000000000000000000000000000000000000000000000000000000000000000000000000000000000000000000000000000000000000000001204201700000000            000000000000000                              000                           
0010001300021T 020180230000001544772 29577051672939668   7               14042017000000000007500001012408                         0900000000000010000000000000000000000000000000000000000   0000000000000000000000000A9        170192957705     
0010001300022U 020000000000000000000000000000000000000000000000000000000000000000000000000000000000000000000000000000000000000000000000001204201700000000            000000000000000                              000                           
0010001300023T 060180230000001544772 29577050237632770   7               14042017000000000010000104020420                         0900000000000010000000000000000000000000000000000000000   000000000000000000000029000        170192957705     
0010001300024U 060000000000000000000000000000000000000000000000000000000000000000000000100000000000000097100000000000000000000000000000001204201713042017            000000000000000                              000                           
0010001300025T 060180230000001544772 29577050531038658   7               14042017000000000007500001042102                         0900000000000010000000000000000000000000000000000000000   000000000000000000000029000        170192957705     
0010001300026U 060000000000000000000000000000000000000000000000000000000000000000000000075000000000000072100000000000000000000000000000001204201713042017            000000000000000                              000                           
0010001300027T 060180230000001544772 29577051672912140   7               12042017000000000007500021006150                         0900000000000010000000000000000000000000000000000000000   000000000000000000000029000        170192957705     
0010001300028U 060000000000000000000000000000000000000000000000000000000000000000000000075000000000000072100000000000000000000000000000001204201713042017            000000000000000                              000                           
0010001300029T 090180230000001544772 29577050037112455   788888888888889912012017000000000007500001000213888888888888899          0900000000000000000000000000000000000000000000000000000   000000000000000000000010009        170192957705     
0010001300030U 090000000000000000000000000000000000000000000000000000000000000000000000000000000000000000000000000000000000000000000000001204201700000000            000000000000000                              000                           
0010001300031T 090180230000001544772 29577050037218043   788888888888889912012017000000000007500001000213888888888888899          0900000000000000000000000000000000000000000000000000000   000000000000000000000010009        170192957705     
0010001300032U 090000000000000000000000000000000000000000000000000000000000000000000000000000000000000000000000000000000000000000000000001204201700000000            000000000000000                              000                           
0010001300033T 090180230000001544772 29577050088144925   788888888888889912012017000000000007500001012416888888888888899          0900000000000000000000000000000000000000000000000000000   000000000000000000000010009        170192957705     
0010001300034U 090000000000000000000000000000000000000000000000000000000000000000000000000000000000000000000000000000000000000000000000001204201700000000            000000000000000                              000                           
0010001300035T 090180230000001544772 29577050122143276   788888888888889912012017000000000007500001032085888888888888899          0900000000000000000000000000000000000000000000000000000   000000000000000000000010009        170192957705     
0010001300036U 090000000000000000000000000000000000000000000000000000000000000000000000000000000000000000000000000000000000000000000000001204201700000000            000000000000000                              000                           
0010001300037T 090180230000001544772 29577050148000670   788888888888889912012017000000000007500001032085888888888888899          0900000000000000000000000000000000000000000000000000000   000000000000000000000010009        170192957705     
0010001300038U 090000000000000000000000000000000000000000000000000000000000000000000000000000000000000000000000000000000000000000000000001204201700000000            000000000000000                              000                           
0010001300039T 090180230000001544772 29577050150020063   788888888888889912012017000000000007500001012408888888888888899          0900000000000000000000000000000000000000000000000000000   000000000000000000000010009        170192957705     
0010001300040U 090000000000000000000000000000000000000000000000000000000000000000000000000000000000000000000000000000000000000000000000001204201700000000            000000000000000                              000                           
0010001300041T 090180230000001544772 29577050159230057   788888888888889912012017000000000007500001000213888888888888899          0900000000000000000000000000000000000000000000000000000   000000000000000000000010009        170192957705     
0010001300042U 090000000000000000000000000000000000000000000000000000000000000000000000000000000000000000000000000000000000000000000000001204201700000000            000000000000000                              000                           
0010001300043T 090180230000001544772 29577050183556645   78888888888888991201201700000000000750000103049X888888888888899          0900000000000000000000000000000000000000000000000000000   000000000000000000000010009        170192957705     
0010001300044U 090000000000000000000000000000000000000000000000000000000000000000000000000000000000000000000000000000000000000000000000001204201700000000            000000000000000                              000                           
0010001300045T 090180230000001544772 29577050188608747   788888888888889912012017000000000007500001012416888888888888899          0900000000000000000000000000000000000000000000000000000   000000000000000000000010009        170192957705     
0010001300046U 090000000000000000000000000000000000000000000000000000000000000000000000000000000000000000000000000000000000000000000000001204201700000000            000000000000000                              000                           
0010001300047T 090180230000001544772 29577050197827625   788888888888889912012017000000000007500001000833888888888888899          0900000000000000000000000000000000000000000000000000000   000000000000000000000010009        170192957705     
0010001300048U 090000000000000000000000000000000000000000000000000000000000000000000000000000000000000000000000000000000000000000000000001204201700000000            000000000000000                              000                           
0010001300049T 090180230000001544772 29577050198421874   788888888888889912012017000000000007500001012408888888888888899          0900000000000000000000000000000000000000000000000000000   000000000000000000000010009        170192957705     
0010001300050U 090000000000000000000000000000000000000000000000000000000000000000000000000000000000000000000000000000000000000000000000001204201700000000            000000000000000                              000                           
0010001300051T 090180230000001544772 29577050198537361   788888888888889912012017000000000007500001000213888888888888899          0900000000000000000000000000000000000000000000000000000   000000000000000000000010009        170192957705     
0010001300052U 090000000000000000000000000000000000000000000000000000000000000000000000000000000000000000000000000000000000000000000000001204201700000000            000000000000000                              000                           
0010001300053T 090180230000001544772 29577050198616075   78888888888888991201201700000000000750000103049X888888888888899          0900000000000000000000000000000000000000000000000000000   000000000000000000000010009        170192957705     
0010001300054U 090000000000000000000000000000000000000000000000000000000000000000000000000000000000000000000000000000000000000000000000001204201700000000            000000000000000                              000                           
0010001300055T 090180230000001544772 29577050198934772   788888888888889912012017000000000007500001012416888888888888899          0900000000000000000000000000000000000000000000000000000   000000000000000000000010009        170192957705     
0010001300056U 090000000000000000000000000000000000000000000000000000000000000000000000000000000000000000000000000000000000000000000000001204201700000000            000000000000000                              000                           
0010001300057T 090180230000001544772 29577050199035707   788888888888889912012017000000000007500001012416888888888888899          0900000000000000000000000000000000000000000000000000000   000000000000000000000010009        170192957705     
0010001300058U 090000000000000000000000000000000000000000000000000000000000000000000000000000000000000000000000000000000000000000000000001204201700000000            000000000000000                              000                           
0010001300059T 090180230000001544772 29577050199119346   78888888888888991201201700000000000750000100829X888888888888899          0900000000000000000000000000000000000000000000000000000   000000000000000000000010009        170192957705     
0010001300060U 090000000000000000000000000000000000000000000000000000000000000000000000000000000000000000000000000000000000000000000000001204201700000000            000000000000000                              000                           
0010001300061T 090180230000001544772 29577050199258600   78888888888888991201201700000000000750000103049X888888888888899          0900000000000000000000000000000000000000000000000000000   000000000000000000000010009        170192957705     
0010001300062U 090000000000000000000000000000000000000000000000000000000000000000000000000000000000000000000000000000000000000000000000001204201700000000            000000000000000                              000                           
0010001300063T 090180230000001544772 29577050199330060   788888888888889912012017000000000010000001000213888888888888899          0900000000000000000000000000000000000000000000000000000   000000000000000000000010009        170192957705     
0010001300064U 090000000000000000000000000000000000000000000000000000000000000000000000000000000000000000000000000000000000000000000000001204201700000000            000000000000000                              000                           
0010001300065T 090180230000001544772 29577050199401367   788888888888889912012017000000000007500001000213888888888888899          0900000000000000000000000000000000000000000000000000000   000000000000000000000010009        170192957705     
0010001300066U 090000000000000000000000000000000000000000000000000000000000000000000000000000000000000000000000000000000000000000000000001204201700000000            000000000000000                              000                           
0010001300067T 090180230000001544772 29577050199408256   788888888888889912012017000000000007500001000213888888888888899          0900000000000000000000000000000000000000000000000000000   000000000000000000000010009        170192957705     
0010001300068U 090000000000000000000000000000000000000000000000000000000000000000000000000000000000000000000000000000000000000000000000001204201700000000            000000000000000                              000                           
0010001300069T 090180230000001544772 29577050199620170   788888888888889912012017000000000007500001046280888888888888899          0900000000000000000000000000000000000000000000000000000   000000000000000000000010009        170192957705     
0010001300070U 090000000000000000000000000000000000000000000000000000000000000000000000000000000000000000000000000000000000000000000000001204201700000000            000000000000000                              000                           
0010001300071T 090180230000001544772 29577050199719832   788888888888889912012017000000000007500001009245888888888888899          0900000000000000000000000000000000000000000000000000000   000000000000000000000010009        170192957705     
0010001300072U 090000000000000000000000000000000000000000000000000000000000000000000000000000000000000000000000000000000000000000000000001204201700000000            000000000000000                              000                           
0010001300073T 090180230000001544772 29577050199843981   78888888888888991201201700000000000750000103049X888888888888899          0900000000000000000000000000000000000000000000000000000   000000000000000000000010009        170192957705     
0010001300074U 090000000000000000000000000000000000000000000000000000000000000000000000000000000000000000000000000000000000000000000000001204201700000000            000000000000000                              000                           
0010001300075T 090180230000001544772 29577050199942359   788888888888889912012017000000000007500001000213888888888888899          0900000000000000000000000000000000000000000000000000000   000000000000000000000010009        170192957705     
0010001300076U 090000000000000000000000000000000000000000000000000000000000000000000000000000000000000000000000000000000000000000000000001204201700000000            000000000000000                              000                           
0010001300077T 090180230000001544772 29577050200216505   788888888888889912012017000000000007500001012408888888888888899          0900000000000000000000000000000000000000000000000000000   000000000000000000000010009        170192957705     
0010001300078U 090000000000000000000000000000000000000000000000000000000000000000000000000000000000000000000000000000000000000000000000001204201700000000            000000000000000                              000                           
0010001300079T 090180230000001544772 29577050200220310   788888888888889912012017000000000007500001012408888888888888899          0900000000000000000000000000000000000000000000000000000   000000000000000000000010009        170192957705     
0010001300080U 090000000000000000000000000000000000000000000000000000000000000000000000000000000000000000000000000000000000000000000000001204201700000000            000000000000000                              000                           
0010001300081T 090180230000001544772 29577050200234051   788888888888889912012017000000000007500001012408888888888888899          0900000000000000000000000000000000000000000000000000000   000000000000000000000010009        170192957705     
0010001300082U 090000000000000000000000000000000000000000000000000000000000000000000000000000000000000000000000000000000000000000000000001204201700000000            000000000000000                              000                           
0010001300083T 090180230000001544772 29577050200244615   788888888888889912012017000000000007500001012408888888888888899          0900000000000000000000000000000000000000000000000000000   000000000000000000000010009        170192957705     
0010001300084U 090000000000000000000000000000000000000000000000000000000000000000000000000000000000000000000000000000000000000000000000001204201700000000            000000000000000                              000                           
0010001300085T 090180230000001544772 29577050200410733   788888888888889912012017000000000007500001001120888888888888899          0900000000000000000000000000000000000000000000000000000   000000000000000000000010009        170192957705     
0010001300086U 090000000000000000000000000000000000000000000000000000000000000000000000000000000000000000000000000000000000000000000000001204201700000000            000000000000000                              000                           
0010001300087T 090180230000001544772 29577050200606429   788888888888889912012017000000000007500001014389888888888888899          0900000000000000000000000000000000000000000000000000000   000000000000000000000010009        170192957705     
0010001300088U 090000000000000000000000000000000000000000000000000000000000000000000000000000000000000000000000000000000000000000000000001204201700000000            000000000000000                              000                           
0010001300089T 090180230000001544772 29577050200716838   788888888888889912012017000000000007500001007854888888888888899          0900000000000000000000000000000000000000000000000000000   000000000000000000000010009        170192957705     
0010001300090U 090000000000000000000000000000000000000000000000000000000000000000000000000000000000000000000000000000000000000000000000001204201700000000            000000000000000                              000                           
0010001300091T 090180230000001544772 29577050200855127   78888888888888991201201700000000000750000103049X888888888888899          0900000000000000000000000000000000000000000000000000000   000000000000000000000010009        170192957705     
0010001300092U 090000000000000000000000000000000000000000000000000000000000000000000000000000000000000000000000000000000000000000000000001204201700000000            000000000000000                              000                           
0010001300093T 090180230000001544772 29577050200901587   78888888888888991201201700000000001000000103049X888888888888899          0900000000000000000000000000000000000000000000000000000   000000000000000000000010009        170192957705     
0010001300094U 090000000000000000000000000000000000000000000000000000000000000000000000000000000000000000000000000000000000000000000000001204201700000000            000000000000000                              000                           
0010001300095T 090180230000001544772 29577050200959879   78888888888888991201201700000000001000000103049X888888888888899          0900000000000000000000000000000000000000000000000000000   000000000000000000000010009        170192957705     
0010001300096U 090000000000000000000000000000000000000000000000000000000000000000000000000000000000000000000000000000000000000000000000001204201700000000            000000000000000                              000                           
0010001300097T 090180230000001544772 29577050201054523   788888888888889912012017000000000007500001000213888888888888899          0900000000000000000000000000000000000000000000000000000   000000000000000000000010009        170192957705     
0010001300098U 090000000000000000000000000000000000000000000000000000000000000000000000000000000000000000000000000000000000000000000000001204201700000000            000000000000000                              000                           
0010001300099T 090180230000001544772 29577050201116363   788888888888889912012017000000000007500001012416888888888888899          0900000000000000000000000000000000000000000000000000000   000000000000000000000010009        170192957705     
0010001300100U 090000000000000000000000000000000000000000000000000000000000000000000000000000000000000000000000000000000000000000000000001204201700000000            000000000000000                              000                           
0010001300101T 090180230000001544772 29577050201347697   78888888888888991201201700000000000750000103049X888888888888899          0900000000000000000000000000000000000000000000000000000   000000000000000000000010009        170192957705     
0010001300102U 090000000000000000000000000000000000000000000000000000000000000000000000000000000000000000000000000000000000000000000000001204201700000000            000000000000000                              000                           
0010001300103T 090180230000001544772 29577050201412319   788888888888889912012017000000000007500001012408888888888888899          0900000000000000000000000000000000000000000000000000000   000000000000000000000010009        170192957705     
0010001300104U 090000000000000000000000000000000000000000000000000000000000000000000000000000000000000000000000000000000000000000000000001204201700000000            000000000000000                              000                           
0010001300105T 090180230000001544772 29577050201512819   788888888888889912012017000000000007500001000213888888888888899          0900000000000000000000000000000000000000000000000000000   000000000000000000000010009        170192957705     
0010001300106U 090000000000000000000000000000000000000000000000000000000000000000000000000000000000000000000000000000000000000000000000001204201700000000            000000000000000                              000                           
0010001300107T 090180230000001544772 29577050201612438   788888888888889912012017000000000007500001000213888888888888899          0900000000000000000000000000000000000000000000000000000   000000000000000000000010009        170192957705     
0010001300108U 090000000000000000000000000000000000000000000000000000000000000000000000000000000000000000000000000000000000000000000000001204201700000000            000000000000000                              000                           
0010001300109T 090180230000001544772 29577050201722916   78888888888888991201201700000000000750000103049X888888888888899          0900000000000000000000000000000000000000000000000000000   000000000000000000000010009        170192957705     
0010001300110U 090000000000000000000000000000000000000000000000000000000000000000000000000000000000000000000000000000000000000000000000001204201700000000            000000000000000                              000                           
0010001300111T 090180230000001544772 29577050201818830   788888888888889912012017000000000007500001000213888888888888899          0900000000000000000000000000000000000000000000000000000   000000000000000000000010009        170192957705     
0010001300112U 090000000000000000000000000000000000000000000000000000000000000000000000000000000000000000000000000000000000000000000000001204201700000000            000000000000000                              000                           
0010001300113T 090180230000001544772 29577050201936745   788888888888889912012017000000000007500001012408888888888888899          0900000000000000000000000000000000000000000000000000000   000000000000000000000010009        170192957705     
0010001300114U 090000000000000000000000000000000000000000000000000000000000000000000000000000000000000000000000000000000000000000000000001204201700000000            000000000000000                              000                           
0010001300115T 090180230000001544772 29577050202011844   788888888888889912012017000000000007500001000213888888888888899          0900000000000000000000000000000000000000000000000000000   000000000000000000000010009        170192957705     
0010001300116U 090000000000000000000000000000000000000000000000000000000000000000000000000000000000000000000000000000000000000000000000001204201700000000            000000000000000                              000                           
0010001300117T 090180230000001544772 29577050202109825   788888888888889912012017000000000007500001012408888888888888899          0900000000000000000000000000000000000000000000000000000   000000000000000000000010009        170192957705     
0010001300118U 090000000000000000000000000000000000000000000000000000000000000000000000000000000000000000000000000000000000000000000000001204201700000000            000000000000000                              000                           
0010001300119T 090180230000001544772 29577050202201892   788888888888889912012017000000000007500001000213888888888888899          0900000000000000000000000000000000000000000000000000000   000000000000000000000010009        170192957705     
0010001300120U 090000000000000000000000000000000000000000000000000000000000000000000000000000000000000000000000000000000000000000000000001204201700000000            000000000000000                              000                           
0010001300121T 090180230000001544772 29577050202359774   788888888888889912012017000000000007500001000833888888888888899          0900000000000000000000000000000000000000000000000000000   000000000000000000000010009        170192957705     
0010001300122U 090000000000000000000000000000000000000000000000000000000000000000000000000000000000000000000000000000000000000000000000001204201700000000            000000000000000                              000                           
0010001300123T 090180230000001544772 29577050202531230   788888888888889912012017000000000007500001007854888888888888899          0900000000000000000000000000000000000000000000000000000   000000000000000000000010009        170192957705     
0010001300124U 090000000000000000000000000000000000000000000000000000000000000000000000000000000000000000000000000000000000000000000000001204201700000000            000000000000000                              000                           
0010001300125T 090180230000001544772 29577050202653585   788888888888889912012017000000000007500001000213888888888888899          0900000000000000000000000000000000000000000000000000000   000000000000000000000010009        170192957705     
0010001300126U 090000000000000000000000000000000000000000000000000000000000000000000000000000000000000000000000000000000000000000000000001204201700000000            000000000000000                              000                           
0010001300127T 090180230000001544772 29577050202745258   788888888888889912012017000000000007500001000213888888888888899          0900000000000000000000000000000000000000000000000000000   000000000000000000000010009        170192957705     
0010001300128U 090000000000000000000000000000000000000000000000000000000000000000000000000000000000000000000000000000000000000000000000001204201700000000            000000000000000                              000                           
0010001300129T 090180230000001544772 29577050202806387   78888888888888991201201700000000000750000103049X888888888888899          0900000000000000000000000000000000000000000000000000000   000000000000000000000010009        170192957705     
0010001300130U 090000000000000000000000000000000000000000000000000000000000000000000000000000000000000000000000000000000000000000000000001204201700000000            000000000000000                              000                           
0010001300131T 090180230000001544772 29577050202947379   78888888888888991201201700000000000750000103049X888888888888899          0900000000000000000000000000000000000000000000000000000   000000000000000000000010009        170192957705     
0010001300132U 090000000000000000000000000000000000000000000000000000000000000000000000000000000000000000000000000000000000000000000000001204201700000000            000000000000000                              000                           
0010001300133T 090180230000001544772 29577050203021787   788888888888889912012017000000000007500001012416888888888888899          0900000000000000000000000000000000000000000000000000000   000000000000000000000010009        170192957705     
0010001300134U 090000000000000000000000000000000000000000000000000000000000000000000000000000000000000000000000000000000000000000000000001204201700000000            000000000000000                              000                           
0010001300135T 090180230000001544772 29577050203125639   788888888888889912012017000000000007500001000213888888888888899          0900000000000000000000000000000000000000000000000000000   000000000000000000000010009        170192957705     
0010001300136U 090000000000000000000000000000000000000000000000000000000000000000000000000000000000000000000000000000000000000000000000001204201700000000            000000000000000                              000                           
0010001300137T 090180230000001544772 29577050203245555   78888888888888991201201700000000000750000103049X888888888888899          0900000000000000000000000000000000000000000000000000000   000000000000000000000010009        170192957705     
0010001300138U 090000000000000000000000000000000000000000000000000000000000000000000000000000000000000000000000000000000000000000000000001204201700000000            000000000000000                              000                           
0010001300139T 090180230000001544772 29577050203300993   788888888888889912012017000000000010000001000213888888888888899          0900000000000000000000000000000000000000000000000000000   000000000000000000000010009        170192957705     
0010001300140U 090000000000000000000000000000000000000000000000000000000000000000000000000000000000000000000000000000000000000000000000001204201700000000            000000000000000                              000                           
0010001300141T 090180230000001544772 29577050203423407   788888888888889912012017000000000007500001000051888888888888899          0900000000000000000000000000000000000000000000000000000   000000000000000000000010009        170192957705     
0010001300142U 090000000000000000000000000000000000000000000000000000000000000000000000000000000000000000000000000000000000000000000000001204201700000000            000000000000000                              000                           
0010001300143T 090180230000001544772 29577050203532651   788888888888889912012017000000000007500001012416888888888888899          0900000000000000000000000000000000000000000000000000000   000000000000000000000010009        170192957705     
0010001300144U 090000000000000000000000000000000000000000000000000000000000000000000000000000000000000000000000000000000000000000000000001204201700000000            000000000000000                              000                           
0010001300145T 090180230000001544772 29577050203737714   788888888888889912012017000000000007500001012408888888888888899          0900000000000000000000000000000000000000000000000000000   000000000000000000000010009        170192957705     
0010001300146U 090000000000000000000000000000000000000000000000000000000000000000000000000000000000000000000000000000000000000000000000001204201700000000            000000000000000                              000                           
0010001300147T 090180230000001544772 29577050203800234   788888888888889912012017000000000007500001012408888888888888899          0900000000000000000000000000000000000000000000000000000   000000000000000000000010009        170192957705     
0010001300148U 090000000000000000000000000000000000000000000000000000000000000000000000000000000000000000000000000000000000000000000000001204201700000000            000000000000000                              000                           
0010001300149T 090180230000001544772 29577050203858054   788888888888889912012017000000000007500001012408888888888888899          0900000000000000000000000000000000000000000000000000000   000000000000000000000010009        170192957705     
0010001300150U 090000000000000000000000000000000000000000000000000000000000000000000000000000000000000000000000000000000000000000000000001204201700000000            000000000000000                              000                           
0010001300151T 090180230000001544772 29577050203953171   788888888888889912012017000000000007500001012416888888888888899          0900000000000000000000000000000000000000000000000000000   000000000000000000000010009        170192957705     
0010001300152U 090000000000000000000000000000000000000000000000000000000000000000000000000000000000000000000000000000000000000000000000001204201700000000            000000000000000                              000                           
0010001300153T 090180230000001544772 29577050204005656   788888888888889912012017000000000007500001000833888888888888899          0900000000000000000000000000000000000000000000000000000   000000000000000000000010009        170192957705     
0010001300154U 090000000000000000000000000000000000000000000000000000000000000000000000000000000000000000000000000000000000000000000000001204201700000000            000000000000000                              000                           
0010001300155T 090180230000001544772 29577050204147330   78888888888888991201201700000000000750000103049X888888888888899          0900000000000000000000000000000000000000000000000000000   000000000000000000000010009        170192957705     
0010001300156U 090000000000000000000000000000000000000000000000000000000000000000000000000000000000000000000000000000000000000000000000001204201700000000            000000000000000                              000                           
0010001300157T 090180230000001544772 29577050204238687   788888888888889912012017000000000007500001000833888888888888899          0900000000000000000000000000000000000000000000000000000   000000000000000000000010009        170192957705     
0010001300158U 090000000000000000000000000000000000000000000000000000000000000000000000000000000000000000000000000000000000000000000000001204201700000000            000000000000000                              000                           
0010001300159T 090180230000001544772 29577050204254439   788888888888889912012017000000000007500001000833888888888888899          0900000000000000000000000000000000000000000000000000000   000000000000000000000010009        170192957705     
0010001300160U 090000000000000000000000000000000000000000000000000000000000000000000000000000000000000000000000000000000000000000000000001204201700000000            000000000000000                              000                           
0010001300161T 090180230000001544772 29577050204330688   78888888888888991201201700000000000750000103049X888888888888899          0900000000000000000000000000000000000000000000000000000   000000000000000000000010009        170192957705     
0010001300162U 090000000000000000000000000000000000000000000000000000000000000000000000000000000000000000000000000000000000000000000000001204201700000000            000000000000000                              000                           
0010001300163T 090180230000001544772 29577050204425596   78888888888888991201201700000000000750000103049X888888888888899          0900000000000000000000000000000000000000000000000000000   000000000000000000000010009        170192957705     
0010001300164U 090000000000000000000000000000000000000000000000000000000000000000000000000000000000000000000000000000000000000000000000001204201700000000            000000000000000                              000                           
0010001300165T 090180230000001544772 29577050204659227   78888888888888991201201700000000000750000103049X888888888888899          0900000000000000000000000000000000000000000000000000000   000000000000000000000010009        170192957705     
0010001300166U 090000000000000000000000000000000000000000000000000000000000000000000000000000000000000000000000000000000000000000000000001204201700000000            000000000000000                              000                           
0010001300167T 090180230000001544772 29577050204708605   788888888888889912012017000000000007500001012416888888888888899          0900000000000000000000000000000000000000000000000000000   000000000000000000000010009        170192957705     
0010001300168U 090000000000000000000000000000000000000000000000000000000000000000000000000000000000000000000000000000000000000000000000001204201700000000            000000000000000                              000                           
0010001300169T 090180230000001544772 29577050204907738   788888888888889912012017000000000007500001046280888888888888899          0900000000000000000000000000000000000000000000000000000   000000000000000000000010009        170192957705     
0010001300170U 090000000000000000000000000000000000000000000000000000000000000000000000000000000000000000000000000000000000000000000000001204201700000000            000000000000000                              000                           
0010001300171T 090180230000001544772 29577050205050887   788888888888889912012017000000000007500001012416888888888888899          0900000000000000000000000000000000000000000000000000000   000000000000000000000010009        170192957705     
0010001300172U 090000000000000000000000000000000000000000000000000000000000000000000000000000000000000000000000000000000000000000000000001204201700000000            000000000000000                              000                           
0010001300173T 090180230000001544772 29577050205143860   788888888888889912012017000000000007500001012408888888888888899          0900000000000000000000000000000000000000000000000000000   000000000000000000000010009        170192957705     
0010001300174U 090000000000000000000000000000000000000000000000000000000000000000000000000000000000000000000000000000000000000000000000001204201700000000            000000000000000                              000                           
0010001300175T 090180230000001544772 29577050205323481   788888888888889912012017000000000007500001000213888888888888899          0900000000000000000000000000000000000000000000000000000   000000000000000000000010009        170192957705     
0010001300176U 090000000000000000000000000000000000000000000000000000000000000000000000000000000000000000000000000000000000000000000000001204201700000000            000000000000000                              000                           
0010001300177T 280180230000001544772 29577050015223633   788888888888889911022017000000000007500001000000888888888888899          0900000000000000000000000000000000000000000000000000000   000000000000000000000005002        170192957705     
0010001300178U 280000000000000000000000000000000000000000000000000000000000000000000000000000000000000000000000000000000000000000000000001204201700000000            000000000000000                              000                           
0010001300179T 280180230000001544772 29577050042452638   788888888888889911022017000000000007500001000000888888888888899          0900000000000000000000000000000000000000000000000000000   000000000000000000000005002        170192957705     
0010001300180U 280000000000000000000000000000000000000000000000000000000000000000000000000000000000000000000000000000000000000000000000001204201700000000            000000000000000                              000                           
0010001300181T 280180230000001544772 29577050086902167   788888888888889911022017000000000007500001000000888888888888899          0900000000000000000000000000000000000000000000000000000   000000000000000000000005002        170192957705     
0010001300182U 280000000000000000000000000000000000000000000000000000000000000000000000000000000000000000000000000000000000000000000000001204201700000000            000000000000000                              000                           
0010001300183T 280180230000001544772 29577050135827876   7               13032017000000000007500001000000                         0900000000000000000000000000000000000000000000000000000   000000000000000000000005002        170192957705     
0010001300184U 280000000000000000000000000000000000000000000000000000000000000000000000000000000000000000000000000000000000000000000000001204201700000000            000000000000000                              000                           
0010001300185T 280180230000001544772 29577050139636950   788888888888889911022017000000000010000001000000888888888888899          0900000000000000000000000000000000000000000000000000000   000000000000000000000005002        170192957705     
0010001300186U 280000000000000000000000000000000000000000000000000000000000000000000000000000000000000000000000000000000000000000000000001204201700000000            000000000000000                              000                           
0010001300187T 280180230000001544772 29577050170332320   7               13032017000000000007500001000000                         0900000000000000000000000000000000000000000000000000000   000000000000000000000005002        170192957705     
0010001300188U 280000000000000000000000000000000000000000000000000000000000000000000000000000000000000000000000000000000000000000000000001204201700000000            000000000000000                              000                           
0010001300189T 280180230000001544772 29577050176407283   788888888888889911022017000000000007500001000000888888888888899          0900000000000000000000000000000000000000000000000000000   000000000000000000000005002        170192957705     
0010001300190U 280000000000000000000000000000000000000000000000000000000000000000000000000000000000000000000000000000000000000000000000001204201700000000            000000000000000                              000                           
0010001300191T 280180230000001544772 29577050176444514   788888888888889911022017000000000007500001000000888888888888899          0900000000000000000000000000000000000000000000000000000   000000000000000000000005002        170192957705     
0010001300192U 280000000000000000000000000000000000000000000000000000000000000000000000000000000000000000000000000000000000000000000000001204201700000000            000000000000000                              000                           
0010001300193T 280180230000001544772 29577050177728951   788888888888889911022017000000000007500001000000888888888888899          0900000000000000000000000000000000000000000000000000000   000000000000000000000005002        170192957705     
0010001300194U 280000000000000000000000000000000000000000000000000000000000000000000000000000000000000000000000000000000000000000000000001204201700000000            000000000000000                              000                           
0010001300195T 280180230000001544772 29577050190854217   7               13032017000000000007500001000000                         0900000000000000000000000000000000000000000000000000000   000000000000000000000005002        170192957705     
0010001300196U 280000000000000000000000000000000000000000000000000000000000000000000000000000000000000000000000000000000000000000000000001204201700000000            000000000000000                              000                           
0010001300197T 280180230000001544772 29577050208004305   788888888888889911022017000000000007500001000000888888888888899          0900000000000000000000000000000000000000000000000000000   000000000000000000000005002        170192957705     
0010001300198U 280000000000000000000000000000000000000000000000000000000000000000000000000000000000000000000000000000000000000000000000001204201700000000            000000000000000                              000                           
0010001300199T 280180230000001544772 29577050217054247   7               13032017000000000007500001000000                         0900000000000000000000000000000000000000000000000000000   000000000000000000000005002        170192957705     
0010001300200U 280000000000000000000000000000000000000000000000000000000000000000000000000000000000000000000000000000000000000000000000001204201700000000            000000000000000                              000                           
0010001300201T 280180230000001544772 29577050223224707   788888888888889911022017000000000007500001000000888888888888899          0900000000000000000000000000000000000000000000000000000   000000000000000000000005002        170192957705     
0010001300202U 280000000000000000000000000000000000000000000000000000000000000000000000000000000000000000000000000000000000000000000000001204201700000000            000000000000000                              000                           
0010001300203T 280180230000001544772 29577050237652507   788888888888889911022017000000000010000001000000888888888888899          0900000000000000000000000000000000000000000000000000000   000000000000000000000005002        170192957705     
0010001300204U 280000000000000000000000000000000000000000000000000000000000000000000000000000000000000000000000000000000000000000000000001204201700000000            000000000000000                              000                           
0010001300205T 280180230000001544772 29577050241331192   7               13032017000000000007500001000000                         0900000000000000000000000000000000000000000000000000000   000000000000000000000005002        170192957705     
0010001300206U 280000000000000000000000000000000000000000000000000000000000000000000000000000000000000000000000000000000000000000000000001204201700000000            000000000000000                              000                           
0010001300207T 280180230000001544772 29577050241346490   7               13032017000000000007500001000000                         0900000000000000000000000000000000000000000000000000000   000000000000000000000005002        170192957705     
0010001300208U 280000000000000000000000000000000000000000000000000000000000000000000000000000000000000000000000000000000000000000000000001204201700000000            000000000000000                              000                           
0010001300209T 280180230000001544772 29577050252859012   788888888888889911022017000000000007500001000000888888888888899          0900000000000000000000000000000000000000000000000000000   000000000000000000000005002        170192957705     
0010001300210U 280000000000000000000000000000000000000000000000000000000000000000000000000000000000000000000000000000000000000000000000001204201700000000            000000000000000                              000                           
0010001300211T 280180230000001544772 29577050290314936   788888888888889911022017000000000007500001000000888888888888899          0900000000000000000000000000000000000000000000000000000   000000000000000000000005002        170192957705     
0010001300212U 280000000000000000000000000000000000000000000000000000000000000000000000000000000000000000000000000000000000000000000000001204201700000000            000000000000000                              000                           
0010001300213T 280180230000001544772 29577050290317270   788888888888889911022017000000000007500001000000888888888888899          0900000000000000000000000000000000000000000000000000000   000000000000000000000005002        170192957705     
0010001300214U 280000000000000000000000000000000000000000000000000000000000000000000000000000000000000000000000000000000000000000000000001204201700000000            000000000000000                              000                           
0010001300215T 280180230000001544772 29577050295353858   788888888888889911022017000000000007500001000000888888888888899          0900000000000000000000000000000000000000000000000000000   000000000000000000000005002        170192957705     
0010001300216U 280000000000000000000000000000000000000000000000000000000000000000000000000000000000000000000000000000000000000000000000001204201700000000            000000000000000                              000                           
0010001300217T 280180230000001544772 29577050295647279   7               13032017000000000010000001000000                         0900000000000000000000000000000000000000000000000000000   000000000000000000000005002        170192957705     
0010001300218U 280000000000000000000000000000000000000000000000000000000000000000000000000000000000000000000000000000000000000000000000001204201700000000            000000000000000                              000                           
0010001300219T 280180230000001544772 29577050304948908   788888888888889911022017000000000007500001000000888888888888899          0900000000000000000000000000000000000000000000000000000   000000000000000000000005002        170192957705     
0010001300220U 280000000000000000000000000000000000000000000000000000000000000000000000000000000000000000000000000000000000000000000000001204201700000000            000000000000000                              000                           
0010001300221T 280180230000001544772 29577050321307361   788888888888889911022017000000000007500001000000888888888888899          0900000000000000000000000000000000000000000000000000000   000000000000000000000005002        170192957705     
0010001300222U 280000000000000000000000000000000000000000000000000000000000000000000000000000000000000000000000000000000000000000000000001204201700000000            000000000000000                              000                           
0010001300223T 280180230000001544772 29577050328422839   7               13032017000000000007500001000000                         0900000000000000000000000000000000000000000000000000000   000000000000000000000005002        170192957705     
0010001300224U 280000000000000000000000000000000000000000000000000000000000000000000000000000000000000000000000000000000000000000000000001204201700000000            000000000000000                              000                           
0010001300225T 280180230000001544772 29577050354609269   7               13032017000000000007500001000000                         0900000000000000000000000000000000000000000000000000000   000000000000000000000005002        170192957705     
0010001300226U 280000000000000000000000000000000000000000000000000000000000000000000000000000000000000000000000000000000000000000000000001204201700000000            000000000000000                              000                           
0010001300227T 280180230000001544772 29577050359853391   788888888888889911022017000000000007500001000000888888888888899          0900000000000000000000000000000000000000000000000000000   000000000000000000000005002        170192957705     
0010001300228U 280000000000000000000000000000000000000000000000000000000000000000000000000000000000000000000000000000000000000000000000001204201700000000            000000000000000                              000                           
0010001300229T 280180230000001544772 29577050373105504   788888888888889911022017000000000007500001000000888888888888899          0900000000000000000000000000000000000000000000000000000   000000000000000000000005002        170192957705     
0010001300230U 280000000000000000000000000000000000000000000000000000000000000000000000000000000000000000000000000000000000000000000000001204201700000000            000000000000000                              000                           
0010001300231T 280180230000001544772 29577050424242374   788888888888889911022017000000000007500001000000888888888888899          0900000000000000000000000000000000000000000000000000000   000000000000000000000005002        170192957705     
0010001300232U 280000000000000000000000000000000000000000000000000000000000000000000000000000000000000000000000000000000000000000000000001204201700000000            000000000000000                              000                           
0010001300233T 280180230000001544772 29577050432235861   788888888888889911022017000000000007500001000000888888888888899          0900000000000000000000000000000000000000000000000000000   000000000000000000000005002        170192957705     
0010001300234U 280000000000000000000000000000000000000000000000000000000000000000000000000000000000000000000000000000000000000000000000001204201700000000            000000000000000                              000                           
0010001300235T 280180230000001544772 29577050434740242   788888888888889911022017000000000007500001000000888888888888899          0900000000000000000000000000000000000000000000000000000   000000000000000000000005002        170192957705     
0010001300236U 280000000000000000000000000000000000000000000000000000000000000000000000000000000000000000000000000000000000000000000000001204201700000000            000000000000000                              000                           
0010001300237T 280180230000001544772 29577050434745581   788888888888889911022017000000000007500001000000888888888888899          0900000000000000000000000000000000000000000000000000000   000000000000000000000005002        170192957705     
0010001300238U 280000000000000000000000000000000000000000000000000000000000000000000000000000000000000000000000000000000000000000000000001204201700000000            000000000000000                              000                           
0010001300239T 280180230000001544772 29577050440914470   788888888888889911022017000000000007500001000000888888888888899          0900000000000000000000000000000000000000000000000000000   000000000000000000000005002        170192957705     
0010001300240U 280000000000000000000000000000000000000000000000000000000000000000000000000000000000000000000000000000000000000000000000001204201700000000            000000000000000                              000                           
0010001300241T 280180230000001544772 29577050447441756   788888888888889911022017000000000007500001000000888888888888899          0900000000000000000000000000000000000000000000000000000   000000000000000000000005002        170192957705     
0010001300242U 280000000000000000000000000000000000000000000000000000000000000000000000000000000000000000000000000000000000000000000000001204201700000000            000000000000000                              000                           
0010001300243T 280180230000001544772 29577050448302079   788888888888889911022017000000000007500001000000888888888888899          0900000000000000000000000000000000000000000000000000000   000000000000000000000005002        170192957705     
0010001300244U 280000000000000000000000000000000000000000000000000000000000000000000000000000000000000000000000000000000000000000000000001204201700000000            000000000000000                              000                           
0010001300245T 280180230000001544772 29577050458320012   788888888888889911022017000000000007500001000000888888888888899          0900000000000000000000000000000000000000000000000000000   000000000000000000000005002        170192957705     
0010001300246U 280000000000000000000000000000000000000000000000000000000000000000000000000000000000000000000000000000000000000000000000001204201700000000            000000000000000                              000                           
0010001300247T 280180230000001544772 29577050458613104   788888888888889911022017000000000007500001000000888888888888899          0900000000000000000000000000000000000000000000000000000   000000000000000000000005002        170192957705     
0010001300248U 280000000000000000000000000000000000000000000000000000000000000000000000000000000000000000000000000000000000000000000000001204201700000000            000000000000000                              000                           
0010001300249T 280180230000001544772 29577050458628117   788888888888889911022017000000000007500001000000888888888888899          0900000000000000000000000000000000000000000000000000000   000000000000000000000005002        170192957705     
0010001300250U 280000000000000000000000000000000000000000000000000000000000000000000000000000000000000000000000000000000000000000000000001204201700000000            000000000000000                              000                           
0010001300251T 280180230000001544772 29577050459047309   788888888888889911022017000000000007500001000000888888888888899          0900000000000000000000000000000000000000000000000000000   000000000000000000000005002        170192957705     
0010001300252U 280000000000000000000000000000000000000000000000000000000000000000000000000000000000000000000000000000000000000000000000001204201700000000            000000000000000                              000                           
0010001300253T 280180230000001544772 29577050465034968   788888888888889911022017000000000007500001000000888888888888899          0900000000000000000000000000000000000000000000000000000   000000000000000000000005002        170192957705     
0010001300254U 280000000000000000000000000000000000000000000000000000000000000000000000000000000000000000000000000000000000000000000000001204201700000000            000000000000000                              000                           
0010001300255T 280180230000001544772 29577050465216722   788888888888889911022017000000000007500001000000888888888888899          0900000000000000000000000000000000000000000000000000000   000000000000000000000005002        170192957705     
0010001300256U 280000000000000000000000000000000000000000000000000000000000000000000000000000000000000000000000000000000000000000000000001204201700000000            000000000000000                              000                           
0010001300257T 280180230000001544772 29577050465234724   788888888888889911022017000000000007500001000000888888888888899          0900000000000000000000000000000000000000000000000000000   000000000000000000000005002        170192957705     
0010001300258U 280000000000000000000000000000000000000000000000000000000000000000000000000000000000000000000000000000000000000000000000001204201700000000            000000000000000                              000                           
0010001300259T 280180230000001544772 29577050465239507   788888888888889911022017000000000007500001000000888888888888899          0900000000000000000000000000000000000000000000000000000   000000000000000000000005002        170192957705     
0010001300260U 280000000000000000000000000000000000000000000000000000000000000000000000000000000000000000000000000000000000000000000000001204201700000000            000000000000000                              000                           
0010001300261T 280180230000001544772 29577050465356163   788888888888889911022017000000000007500001000000888888888888899          0900000000000000000000000000000000000000000000000000000   000000000000000000000005002        170192957705     
0010001300262U 280000000000000000000000000000000000000000000000000000000000000000000000000000000000000000000000000000000000000000000000001204201700000000            000000000000000                              000                           
0010001300263T 280180230000001544772 29577050465431553   788888888888889911022017000000000007500001000000888888888888899          0900000000000000000000000000000000000000000000000000000   000000000000000000000005002        170192957705     
0010001300264U 280000000000000000000000000000000000000000000000000000000000000000000000000000000000000000000000000000000000000000000000001204201700000000            000000000000000                              000                           
0010001300265T 280180230000001544772 29577050465510588   788888888888889911022017000000000007500001000000888888888888899          0900000000000000000000000000000000000000000000000000000   000000000000000000000005002        170192957705     
0010001300266U 280000000000000000000000000000000000000000000000000000000000000000000000000000000000000000000000000000000000000000000000001204201700000000            000000000000000                              000                           
0010001300267T 280180230000001544772 29577050465759531   788888888888889911022017000000000007500001000000888888888888899          0900000000000000000000000000000000000000000000000000000   000000000000000000000005002        170192957705     
0010001300268U 280000000000000000000000000000000000000000000000000000000000000000000000000000000000000000000000000000000000000000000000001204201700000000            000000000000000                              000                           
0010001300269T 280180230000001544772 29577050465806983   788888888888889911022017000000000007500001000000888888888888899          0900000000000000000000000000000000000000000000000000000   000000000000000000000005002        170192957705     
0010001300270U 280000000000000000000000000000000000000000000000000000000000000000000000000000000000000000000000000000000000000000000000001204201700000000            000000000000000                              000                           
0010001300271T 280180230000001544772 29577050465947883   788888888888889911022017000000000007500001000000888888888888899          0900000000000000000000000000000000000000000000000000000   000000000000000000000005002        170192957705     
0010001300272U 280000000000000000000000000000000000000000000000000000000000000000000000000000000000000000000000000000000000000000000000001204201700000000            000000000000000                              000                           
0010001300273T 280180230000001544772 29577050466115860   788888888888889911022017000000000007500001000000888888888888899          0900000000000000000000000000000000000000000000000000000   000000000000000000000005002        170192957705     
0010001300274U 280000000000000000000000000000000000000000000000000000000000000000000000000000000000000000000000000000000000000000000000001204201700000000            000000000000000                              000                           
0010001300275T 280180230000001544772 29577050466223613   788888888888889911022017000000000007500001000000888888888888899          0900000000000000000000000000000000000000000000000000000   000000000000000000000005002        170192957705     
0010001300276U 280000000000000000000000000000000000000000000000000000000000000000000000000000000000000000000000000000000000000000000000001204201700000000            000000000000000                              000                           
0010001300277T 280180230000001544772 29577050466230133   788888888888889911022017000000000007500001000000888888888888899          0900000000000000000000000000000000000000000000000000000   000000000000000000000005002        170192957705     
0010001300278U 280000000000000000000000000000000000000000000000000000000000000000000000000000000000000000000000000000000000000000000000001204201700000000            000000000000000                              000                           
0010001300279T 280180230000001544772 29577050466255963   788888888888889911022017000000000007500001000000888888888888899          0900000000000000000000000000000000000000000000000000000   000000000000000000000005002        170192957705     
0010001300280U 280000000000000000000000000000000000000000000000000000000000000000000000000000000000000000000000000000000000000000000000001204201700000000            000000000000000                              000                           
0010001300281T 280180230000001544772 29577050466351806   788888888888889911022017000000000007500001000000888888888888899          0900000000000000000000000000000000000000000000000000000   000000000000000000000005002        170192957705     
0010001300282U 280000000000000000000000000000000000000000000000000000000000000000000000000000000000000000000000000000000000000000000000001204201700000000            000000000000000                              000                           
0010001300283T 280180230000001544772 29577050466403917   788888888888889911022017000000000010000001000000888888888888899          0900000000000000000000000000000000000000000000000000000   000000000000000000000005002        170192957705     
0010001300284U 280000000000000000000000000000000000000000000000000000000000000000000000000000000000000000000000000000000000000000000000001204201700000000            000000000000000                              000                           
0010001300285T 280180230000001544772 29577050466548500   788888888888889911022017000000000007500001000000888888888888899          0900000000000000000000000000000000000000000000000000000   000000000000000000000005002        170192957705     
0010001300286U 280000000000000000000000000000000000000000000000000000000000000000000000000000000000000000000000000000000000000000000000001204201700000000            000000000000000                              000                           
0010001300287T 280180230000001544772 29577050466631156   788888888888889911022017000000000010000001000000888888888888899          0900000000000000000000000000000000000000000000000000000   000000000000000000000005002        170192957705     
0010001300288U 280000000000000000000000000000000000000000000000000000000000000000000000000000000000000000000000000000000000000000000000001204201700000000            000000000000000                              000                           
0010001300289T 280180230000001544772 29577050466709316   788888888888889911022017000000000007500001000000888888888888899          0900000000000000000000000000000000000000000000000000000   000000000000000000000005002        170192957705     
0010001300290U 280000000000000000000000000000000000000000000000000000000000000000000000000000000000000000000000000000000000000000000000001204201700000000            000000000000000                              000                           
0010001300291T 280180230000001544772 29577050467008158   788888888888889911022017000000000007500001000000888888888888899          0900000000000000000000000000000000000000000000000000000   000000000000000000000005002        170192957705     
0010001300292U 280000000000000000000000000000000000000000000000000000000000000000000000000000000000000000000000000000000000000000000000001204201700000000            000000000000000                              000                           
0010001300293T 280180230000001544772 29577050467228513   788888888888889911022017000000000007500001000000888888888888899          0900000000000000000000000000000000000000000000000000000   000000000000000000000005002        170192957705     
0010001300294U 280000000000000000000000000000000000000000000000000000000000000000000000000000000000000000000000000000000000000000000000001204201700000000            000000000000000                              000                           
0010001300295T 280180230000001544772 29577050467313910   788888888888889911022017000000000007500001000000888888888888899          0900000000000000000000000000000000000000000000000000000   000000000000000000000005002        170192957705     
0010001300296U 280000000000000000000000000000000000000000000000000000000000000000000000000000000000000000000000000000000000000000000000001204201700000000            000000000000000                              000                           
0010001300297T 280180230000001544772 29577050467350254   788888888888889911022017000000000007500001000000888888888888899          0900000000000000000000000000000000000000000000000000000   000000000000000000000005002        170192957705     
0010001300298U 280000000000000000000000000000000000000000000000000000000000000000000000000000000000000000000000000000000000000000000000001204201700000000            000000000000000                              000                           
0010001300299T 280180230000001544772 29577050467411637   788888888888889911022017000000000007500001000000888888888888899          0900000000000000000000000000000000000000000000000000000   000000000000000000000005002        170192957705     
0010001300300U 280000000000000000000000000000000000000000000000000000000000000000000000000000000000000000000000000000000000000000000000001204201700000000            000000000000000                              000                           
0010001300301T 280180230000001544772 29577050467532666   788888888888889911022017000000000007500001000000888888888888899          0900000000000000000000000000000000000000000000000000000   000000000000000000000005002        170192957705     
0010001300302U 280000000000000000000000000000000000000000000000000000000000000000000000000000000000000000000000000000000000000000000000001204201700000000            000000000000000                              000                           
0010001300303T 280180230000001544772 29577050467628189   788888888888889911022017000000000007500001000000888888888888899          0900000000000000000000000000000000000000000000000000000   000000000000000000000005002        170192957705     
0010001300304U 280000000000000000000000000000000000000000000000000000000000000000000000000000000000000000000000000000000000000000000000001204201700000000            000000000000000                              000                           
0010001300305T 280180230000001544772 29577050468024373   788888888888889911022017000000000007500001000000888888888888899          0900000000000000000000000000000000000000000000000000000   000000000000000000000005002        170192957705     
0010001300306U 280000000000000000000000000000000000000000000000000000000000000000000000000000000000000000000000000000000000000000000000001204201700000000            000000000000000                              000                           
0010001300307T 280180230000001544772 29577050468100715   788888888888889911022017000000000007500001000000888888888888899          0900000000000000000000000000000000000000000000000000000   000000000000000000000005002        170192957705     
0010001300308U 280000000000000000000000000000000000000000000000000000000000000000000000000000000000000000000000000000000000000000000000001204201700000000            000000000000000                              000                           
0010001300309T 280180230000001544772 29577050468342961   788888888888889911022017000000000007500001000000888888888888899          0900000000000000000000000000000000000000000000000000000   000000000000000000000005002        170192957705     
0010001300310U 280000000000000000000000000000000000000000000000000000000000000000000000000000000000000000000000000000000000000000000000001204201700000000            000000000000000                              000                           
0010001300311T 280180230000001544772 29577050468524996   788888888888889911022017000000000007500001000000888888888888899          0900000000000000000000000000000000000000000000000000000   000000000000000000000005002        170192957705     
0010001300312U 280000000000000000000000000000000000000000000000000000000000000000000000000000000000000000000000000000000000000000000000001204201700000000            000000000000000                              000                           
0010001300313T 280180230000001544772 29577050468650457   788888888888889911022017000000000007500001000000888888888888899          0900000000000000000000000000000000000000000000000000000   000000000000000000000005002        170192957705     
0010001300314U 280000000000000000000000000000000000000000000000000000000000000000000000000000000000000000000000000000000000000000000000001204201700000000            000000000000000                              000                           
0010001300315T 280180230000001544772 29577050468721745   788888888888889911022017000000000007500001000000888888888888899          0900000000000000000000000000000000000000000000000000000   000000000000000000000005002        170192957705     
0010001300316U 280000000000000000000000000000000000000000000000000000000000000000000000000000000000000000000000000000000000000000000000001204201700000000            000000000000000                              000                           
0010001300317T 280180230000001544772 29577050468821309   788888888888889911022017000000000007500001000000888888888888899          0900000000000000000000000000000000000000000000000000000   000000000000000000000005002        170192957705     
0010001300318U 280000000000000000000000000000000000000000000000000000000000000000000000000000000000000000000000000000000000000000000000001204201700000000            000000000000000                              000                           
0010001300319T 280180230000001544772 29577050468919863   788888888888889911022017000000000007500001000000888888888888899          0900000000000000000000000000000000000000000000000000000   000000000000000000000005002        170192957705     
0010001300320U 280000000000000000000000000000000000000000000000000000000000000000000000000000000000000000000000000000000000000000000000001204201700000000            000000000000000                              000                           
0010001300321T 280180230000001544772 29577050469009824   788888888888889911022017000000000007500001000000888888888888899          0900000000000000000000000000000000000000000000000000000   000000000000000000000005002        170192957705     
0010001300322U 280000000000000000000000000000000000000000000000000000000000000000000000000000000000000000000000000000000000000000000000001204201700000000            000000000000000                              000                           
0010001300323T 280180230000001544772 29577050469151503   788888888888889911022017000000000010000001000000888888888888899          0900000000000000000000000000000000000000000000000000000   000000000000000000000005002        170192957705     
0010001300324U 280000000000000000000000000000000000000000000000000000000000000000000000000000000000000000000000000000000000000000000000001204201700000000            000000000000000                              000                           
0010001300325T 280180230000001544772 29577050469727607   788888888888889911022017000000000007500001000000888888888888899          0900000000000000000000000000000000000000000000000000000   000000000000000000000005002        170192957705     
0010001300326U 280000000000000000000000000000000000000000000000000000000000000000000000000000000000000000000000000000000000000000000000001204201700000000            000000000000000                              000                           
0010001300327T 280180230000001544772 29577050469906251   788888888888889911022017000000000007500001000000888888888888899          0900000000000000000000000000000000000000000000000000000   000000000000000000000005002        170192957705     
0010001300328U 280000000000000000000000000000000000000000000000000000000000000000000000000000000000000000000000000000000000000000000000001204201700000000            000000000000000                              000                           
0010001300329T 280180230000001544772 29577050470013222   788888888888889911022017000000000007500001000000888888888888899          0900000000000000000000000000000000000000000000000000000   000000000000000000000005002        170192957705     
0010001300330U 280000000000000000000000000000000000000000000000000000000000000000000000000000000000000000000000000000000000000000000000001204201700000000            000000000000000                              000                           
0010001300331T 280180230000001544772 29577050470106816   788888888888889911022017000000000007500001000000888888888888899          0900000000000000000000000000000000000000000000000000000   000000000000000000000005002        170192957705     
0010001300332U 280000000000000000000000000000000000000000000000000000000000000000000000000000000000000000000000000000000000000000000000001204201700000000            000000000000000                              000                           
0010001300333T 280180230000001544772 29577050470310687   788888888888889911022017000000000007500001000000888888888888899          0900000000000000000000000000000000000000000000000000000   000000000000000000000005002        170192957705     
0010001300334U 280000000000000000000000000000000000000000000000000000000000000000000000000000000000000000000000000000000000000000000000001204201700000000            000000000000000                              000                           
0010001300335T 280180230000001544772 29577050470400538   788888888888889911022017000000000007500001000000888888888888899          0900000000000000000000000000000000000000000000000000000   000000000000000000000005002        170192957705     
0010001300336U 280000000000000000000000000000000000000000000000000000000000000000000000000000000000000000000000000000000000000000000000001204201700000000            000000000000000                              000                           
0010001300337T 280180230000001544772 29577050470413057   788888888888889911022017000000000007500001000000888888888888899          0900000000000000000000000000000000000000000000000000000   000000000000000000000005002        170192957705     
0010001300338U 280000000000000000000000000000000000000000000000000000000000000000000000000000000000000000000000000000000000000000000000001204201700000000            000000000000000                              000                           
0010001300339T 280180230000001544772 29577050470613849   788888888888889911022017000000000007500001000000888888888888899          0900000000000000000000000000000000000000000000000000000   000000000000000000000005002        170192957705     
0010001300340U 280000000000000000000000000000000000000000000000000000000000000000000000000000000000000000000000000000000000000000000000001204201700000000            000000000000000                              000                           
0010001300341T 280180230000001544772 29577050470726898   788888888888889911022017000000000007500001000000888888888888899          0900000000000000000000000000000000000000000000000000000   000000000000000000000005002        170192957705     
0010001300342U 280000000000000000000000000000000000000000000000000000000000000000000000000000000000000000000000000000000000000000000000001204201700000000            000000000000000                              000                           
0010001300343T 280180230000001544772 29577050470831698   788888888888889911022017000000000007500001000000888888888888899          0900000000000000000000000000000000000000000000000000000   000000000000000000000005002        170192957705     
0010001300344U 280000000000000000000000000000000000000000000000000000000000000000000000000000000000000000000000000000000000000000000000001204201700000000            000000000000000                              000                           
0010001300345T 280180230000001544772 29577050470948773   788888888888889911022017000000000010000001000000888888888888899          0900000000000000000000000000000000000000000000000000000   000000000000000000000005002        170192957705     
0010001300346U 280000000000000000000000000000000000000000000000000000000000000000000000000000000000000000000000000000000000000000000000001204201700000000            000000000000000                              000                           
0010001300347T 280180230000001544772 29577050471022901   788888888888889911022017000000000007500001000000888888888888899          0900000000000000000000000000000000000000000000000000000   000000000000000000000005002        170192957705     
0010001300348U 280000000000000000000000000000000000000000000000000000000000000000000000000000000000000000000000000000000000000000000000001204201700000000            000000000000000                              000                           
0010001300349T 280180230000001544772 29577050471138252   788888888888889911022017000000000007500001000000888888888888899          0900000000000000000000000000000000000000000000000000000   000000000000000000000005002        170192957705     
0010001300350U 280000000000000000000000000000000000000000000000000000000000000000000000000000000000000000000000000000000000000000000000001204201700000000            000000000000000                              000                           
0010001300351T 280180230000001544772 29577050471206945   788888888888889911022017000000000007500001000000888888888888899          0900000000000000000000000000000000000000000000000000000   000000000000000000000005002        170192957705     
0010001300352U 280000000000000000000000000000000000000000000000000000000000000000000000000000000000000000000000000000000000000000000000001204201700000000            000000000000000                              000                           
0010001300353T 280180230000001544772 29577050471421894   788888888888889911022017000000000007500001000000888888888888899          0900000000000000000000000000000000000000000000000000000   000000000000000000000005002        170192957705     
0010001300354U 280000000000000000000000000000000000000000000000000000000000000000000000000000000000000000000000000000000000000000000000001204201700000000            000000000000000                              000                           
0010001300355T 280180230000001544772 29577050471528866   788888888888889911022017000000000007500001000000888888888888899          0900000000000000000000000000000000000000000000000000000   000000000000000000000005002        170192957705     
0010001300356U 280000000000000000000000000000000000000000000000000000000000000000000000000000000000000000000000000000000000000000000000001204201700000000            000000000000000                              000                           
0010001300357T 280180230000001544772 29577050471635298   788888888888889911022017000000000007500001000000888888888888899          0900000000000000000000000000000000000000000000000000000   000000000000000000000005002        170192957705     
0010001300358U 280000000000000000000000000000000000000000000000000000000000000000000000000000000000000000000000000000000000000000000000001204201700000000            000000000000000                              000                           
0010001300359T 280180230000001544772 29577050471705629   788888888888889911022017000000000010000001000000888888888888899          0900000000000000000000000000000000000000000000000000000   000000000000000000000005002        170192957705     
0010001300360U 280000000000000000000000000000000000000000000000000000000000000000000000000000000000000000000000000000000000000000000000001204201700000000            000000000000000                              000                           
0010001300361T 280180230000001544772 29577050471831313   788888888888889911022017000000000007500001000000888888888888899          0900000000000000000000000000000000000000000000000000000   000000000000000000000005002        170192957705     
0010001300362U 280000000000000000000000000000000000000000000000000000000000000000000000000000000000000000000000000000000000000000000000001204201700000000            000000000000000                              000                           
0010001300363T 280180230000001544772 29577050471927322   788888888888889911022017000000000007500001000000888888888888899          0900000000000000000000000000000000000000000000000000000   000000000000000000000005002        170192957705     
0010001300364U 280000000000000000000000000000000000000000000000000000000000000000000000000000000000000000000000000000000000000000000000001204201700000000            000000000000000                              000                           
0010001300365T 280180230000001544772 29577050472020112   788888888888889911022017000000000007500001000000888888888888899          0900000000000000000000000000000000000000000000000000000   000000000000000000000005002        170192957705     
0010001300366U 280000000000000000000000000000000000000000000000000000000000000000000000000000000000000000000000000000000000000000000000001204201700000000            000000000000000                              000                           
0010001300367T 280180230000001544772 29577050472148884   788888888888889911022017000000000007500001000000888888888888899          0900000000000000000000000000000000000000000000000000000   000000000000000000000005002        170192957705     
0010001300368U 280000000000000000000000000000000000000000000000000000000000000000000000000000000000000000000000000000000000000000000000001204201700000000            000000000000000                              000                           
0010001300369T 280180230000001544772 29577050472252018   788888888888889911022017000000000007500001000000888888888888899          0900000000000000000000000000000000000000000000000000000   000000000000000000000005002        170192957705     
0010001300370U 280000000000000000000000000000000000000000000000000000000000000000000000000000000000000000000000000000000000000000000000001204201700000000            000000000000000                              000                           
0010001300371T 280180230000001544772 29577050472313689   788888888888889911022017000000000007500001000000888888888888899          0900000000000000000000000000000000000000000000000000000   000000000000000000000005002        170192957705     
0010001300372U 280000000000000000000000000000000000000000000000000000000000000000000000000000000000000000000000000000000000000000000000001204201700000000            000000000000000                              000                           
0010001300373T 280180230000001544772 29577050472405657   788888888888889911022017000000000007500001000000888888888888899          0900000000000000000000000000000000000000000000000000000   000000000000000000000005002        170192957705     
0010001300374U 280000000000000000000000000000000000000000000000000000000000000000000000000000000000000000000000000000000000000000000000001204201700000000            000000000000000                              000                           
0010001300375T 280180230000001544772 29577050472526231   788888888888889911022017000000000007500001000000888888888888899          0900000000000000000000000000000000000000000000000000000   000000000000000000000005002        170192957705     
0010001300376U 280000000000000000000000000000000000000000000000000000000000000000000000000000000000000000000000000000000000000000000000001204201700000000            000000000000000                              000                           
0010001300377T 280180230000001544772 29577050472715607   788888888888889911022017000000000007500001000000888888888888899          0900000000000000000000000000000000000000000000000000000   000000000000000000000005002        170192957705     
0010001300378U 280000000000000000000000000000000000000000000000000000000000000000000000000000000000000000000000000000000000000000000000001204201700000000            000000000000000                              000                           
0010001300379T 280180230000001544772 29577050472958362   788888888888889911022017000000000007500001000000888888888888899          0900000000000000000000000000000000000000000000000000000   000000000000000000000005002        170192957705     
0010001300380U 280000000000000000000000000000000000000000000000000000000000000000000000000000000000000000000000000000000000000000000000001204201700000000            000000000000000                              000                           
0010001300381T 280180230000001544772 29577050473035546   788888888888889911022017000000000007500001000000888888888888899          0900000000000000000000000000000000000000000000000000000   000000000000000000000005002        170192957705     
0010001300382U 280000000000000000000000000000000000000000000000000000000000000000000000000000000000000000000000000000000000000000000000001204201700000000            000000000000000                              000                           
0010001300383T 280180230000001544772 29577050481957901   7               13032017000000000007500001000000                         0900000000000000000000000000000000000000000000000000000   000000000000000000000005002        170192957705     
0010001300384U 280000000000000000000000000000000000000000000000000000000000000000000000000000000000000000000000000000000000000000000000001204201700000000            000000000000000                              000                           
0010001300385T 280180230000001544772 29577050484550358   7               13032017000000000007500001000000                         0900000000000000000000000000000000000000000000000000000   000000000000000000000005002        170192957705     
0010001300386U 280000000000000000000000000000000000000000000000000000000000000000000000000000000000000000000000000000000000000000000000001204201700000000            000000000000000                              000                           
0010001300387T 280180230000001544772 29577050516609791   7               13032017000000000007500001000000                         0900000000000000000000000000000000000000000000000000000   000000000000000000000005002        170192957705     
0010001300388U 280000000000000000000000000000000000000000000000000000000000000000000000000000000000000000000000000000000000000000000000001204201700000000            000000000000000                              000                           
0010001300389T 280180230000001544772 29577050724647582   7               13032017000000000007500001000000                         0900000000000000000000000000000000000000000000000000000   000000000000000000000005002        170192957705     
0010001300390U 280000000000000000000000000000000000000000000000000000000000000000000000000000000000000000000000000000000000000000000000001204201700000000            000000000000000                              000                           
0010001300391T 280180230000001544772 29577050933225341   7               13032017000000000007500001000000                         0900000000000000000000000000000000000000000000000000000   000000000000000000000005002        170192957705     
0010001300392U 280000000000000000000000000000000000000000000000000000000000000000000000000000000000000000000000000000000000000000000000001204201700000000            000000000000000                              000                           
0010001300393T 280180230000001544772 29577050936740549   7               13032017000000000007500001000000                         0900000000000000000000000000000000000000000000000000000   000000000000000000000005002        170192957705     
0010001300394U 280000000000000000000000000000000000000000000000000000000000000000000000000000000000000000000000000000000000000000000000001204201700000000            000000000000000                              000                           
0010001300395T 280180230000001544772 29577051035258442   7               13032017000000000007500001000000                         0900000000000000000000000000000000000000000000000000000   000000000000000000000005002        170192957705     
0010001300396U 280000000000000000000000000000000000000000000000000000000000000000000000000000000000000000000000000000000000000000000000001204201700000000            000000000000000                              000                           
0010001300397T 280180230000001544772 29577051042838151   7               13032017000000000007500001000000                         0900000000000000000000000000000000000000000000000000000   000000000000000000000005002        170192957705     
0010001300398U 280000000000000000000000000000000000000000000000000000000000000000000000000000000000000000000000000000000000000000000000001204201700000000            000000000000000                              000                           
0010001300399T 280180230000001544772 29577051049718675   7               13032017000000000007500001000000                         0900000000000000000000000000000000000000000000000000000   000000000000000000000005002        170192957705     
0010001300400U 280000000000000000000000000000000000000000000000000000000000000000000000000000000000000000000000000000000000000000000000001204201700000000            000000000000000                              000                           
0010001300401T 280180230000001544772 29577051049727579   7               13032017000000000007500001000000                         0900000000000000000000000000000000000000000000000000000   000000000000000000000005002        170192957705     
0010001300402U 280000000000000000000000000000000000000000000000000000000000000000000000000000000000000000000000000000000000000000000000001204201700000000            000000000000000                              000                           
0010001300403T 280180230000001544772 29577051148127087   7               13032017000000000007500001000000                         0900000000000000000000000000000000000000000000000000000   000000000000000000000005002        170192957705     
0010001300404U 280000000000000000000000000000000000000000000000000000000000000000000000000000000000000000000000000000000000000000000000001204201700000000            000000000000000                              000                           
0010001300405T 280180230000001544772 29577051152703254   7               13032017000000000007500001000000                         0900000000000000000000000000000000000000000000000000000   000000000000000000000005002        170192957705     
0010001300406U 280000000000000000000000000000000000000000000000000000000000000000000000000000000000000000000000000000000000000000000000001204201700000000            000000000000000                              000                           
0010001300407T 280180230000001544772 29577051194451156   7               13032017000000000007500001000000                         0900000000000000000000000000000000000000000000000000000   000000000000000000000005002        170192957705     
0010001300408U 280000000000000000000000000000000000000000000000000000000000000000000000000000000000000000000000000000000000000000000000001204201700000000            000000000000000                              000                           
0010001300409T 280180230000001544772 29577051194502252   7               13032017000000000007500001000000                         0900000000000000000000000000000000000000000000000000000   000000000000000000000005002        170192957705     
0010001300410U 280000000000000000000000000000000000000000000000000000000000000000000000000000000000000000000000000000000000000000000000001204201700000000            000000000000000                              000                           
0010001300411T 280180230000001544772 29577051194849046   7               13032017000000000007500001000000                         0900000000000000000000000000000000000000000000000000000   000000000000000000000005002        170192957705     
0010001300412U 280000000000000000000000000000000000000000000000000000000000000000000000000000000000000000000000000000000000000000000000001204201700000000            000000000000000                              000                           
