00100000         2247745860001000029577050014       0180230000001544772 INSTITUTO DE SELECAO E TECNOLOBANCO DO BRASIL                         21704201702324000017603000000515122941PROCESSAMEN                                                 
00100011T0100020 20247745860001000029577050014       0180230000001544772 INSTITUTO DE SELECAO E TECNOLO                                                                                000000001704201700000000  000000000                      
0010001300001T 020180230000001544772 29577050029530493   7               19042017000000000007500001009245                         0900000000000010000000000000000000000000000000000000000   0000000000000000000000000A9        170192957705     
0010001300002U 020000000000000000000000000000000000000000000000000000000000000000000000000000000000000000000000000000000000000000000000001704201700000000            000000000000000                              000                           
0010001300003T 020180230000001544772 29577050098629457   7               19042017000000000007500001004782                         0900000000000010000000000000000000000000000000000000000   0000000000000000000000000A9        170192957705     
0010001300004U 020000000000000000000000000000000000000000000000000000000000000000000000000000000000000000000000000000000000000000000000001704201700000000            000000000000000                              000                           
0010001300005T 020180230000001544772 29577050265000039   7               19042017000000000007500001012408                         0900000000000010000000000000000000000000000000000000000   0000000000000000000000000A9        170192957705     
0010001300006U 020000000000000000000000000000000000000000000000000000000000000000000000000000000000000000000000000000000000000000000000001704201700000000            000000000000000                              000                           
0010001300007T 020180230000001544772 29577050317359028   7               1904201700000000000750000103049X                         0900000000000010000000000000000000000000000000000000000   0000000000000000000000000A9        170192957705     
0010001300008U 020000000000000000000000000000000000000000000000000000000000000000000000000000000000000000000000000000000000000000000000001704201700000000            000000000000000                              000                           
0010001300009T 020180230000001544772 29577050982731616   7               17042017000000000007500001000213                         0900000000000010000000000000000000000000000000000000000   0000000000000000000000000A9        170192957705     
0010001300010U 020000000000000000000000000000000000000000000000000000000000000000000000000000000000000000000000000000000000000000000000001504201700000000            000000000000000                              000                           
0010001300011T 020180230000001544772 29577050982740435   7               17042017000000000007500001000213                         0900000000000010000000000000000000000000000000000000000   0000000000000000000000000A9        170192957705     
0010001300012U 020000000000000000000000000000000000000000000000000000000000000000000000000000000000000000000000000000000000000000000000001504201700000000            000000000000000                              000                           
0010001300013T 020180230000001544772 29577050982743379   7               19042017000000000007500001000213                         0900000000000010000000000000000000000000000000000000000   0000000000000000000000000A9        170192957705     
0010001300014U 020000000000000000000000000000000000000000000000000000000000000000000000000000000000000000000000000000000000000000000000001704201700000000            000000000000000                              000                           
0010001300015T 020180230000001544772 29577050992440749   7               19042017000000000007500001036951                         0900000000000010500000000000000000000000000000000000000   0000000000000000000000000A9A4      170192957705     
0010001300016U 020000000000000000000000000000000000000000000000000000000000000000000000000000000000000000000000000000000000000000000000001704201700000000            000000000000000                              000                           
0010001300017T 020180230000001544772 29577051179123205   7               1904201700000000000750000103049X                         0900000000000010000000000000000000000000000000000000000   0000000000000000000000000A9        170192957705     
0010001300018U 020000000000000000000000000000000000000000000000000000000000000000000000000000000000000000000000000000000000000000000000001704201700000000            000000000000000                              000                           
0010001300019T 060180230000001544772 29577051623040093   7               14042017000000000007500021000440                         0900000000000010000000000000000000000000000000000000000   000000000000000000000029000        170192957705     
0010001300020U 060000000000000000000000000000000000000000000000000000000000000000000000075000000000000072100000000000000000000000000000001704201718042017            000000000000000                              000                           
0010001300021T 090180230000001544772 29577050005828942   788888888888889915012017000000000007500001000213888888888888899          0900000000000000000000000000000000000000000000000000000   000000000000000000000010009        170192957705     
0010001300022U 090000000000000000000000000000000000000000000000000000000000000000000000000000000000000000000000000000000000000000000000001704201700000000            000000000000000                              000                           
0010001300023T 090180230000001544772 29577050006304004   7               17012017000000000007500001012408                         0900000000000000000000000000000000000000000000000000000   000000000000000000000010009        170192957705     
0010001300024U 090000000000000000000000000000000000000000000000000000000000000000000000000000000000000000000000000000000000000000000000001704201700000000            000000000000000                              000                           
0010001300025T 090180230000001544772 29577050006307554   7               17012017000000000007500001012408                         0900000000000000000000000000000000000000000000000000000   000000000000000000000010009        170192957705     
0010001300026U 090000000000000000000000000000000000000000000000000000000000000000000000000000000000000000000000000000000000000000000000001704201700000000            000000000000000                              000                           
0010001300027T 090180230000001544772 29577050006340264   788888888888889915012017000000000007500001012408888888888888899          0900000000000000000000000000000000000000000000000000000   000000000000000000000010009        170192957705     
0010001300028U 090000000000000000000000000000000000000000000000000000000000000000000000000000000000000000000000000000000000000000000000001704201700000000            000000000000000                              000                           
0010001300029T 090180230000001544772 29577050006346385   7               17012017000000000007500001012408                         0900000000000000000000000000000000000000000000000000000   000000000000000000000010009        170192957705     
0010001300030U 090000000000000000000000000000000000000000000000000000000000000000000000000000000000000000000000000000000000000000000000001704201700000000            000000000000000                              000                           
0010001300031T 090180230000001544772 29577050007058513   788888888888889915012017000000000007500001000213888888888888899          0900000000000000000000000000000000000000000000000000000   000000000000000000000010009        170192957705     
0010001300032U 090000000000000000000000000000000000000000000000000000000000000000000000000000000000000000000000000000000000000000000000001704201700000000            000000000000000                              000                           
0010001300033T 090180230000001544772 29577050007109673   788888888888889915012017000000000007500001012416888888888888899          0900000000000000000000000000000000000000000000000000000   000000000000000000000010009        170192957705     
0010001300034U 090000000000000000000000000000000000000000000000000000000000000000000000000000000000000000000000000000000000000000000000001704201700000000            000000000000000                              000                           
0010001300035T 090180230000001544772 29577050007500256   788888888888889915012017000000000007500001012408888888888888899          0900000000000000000000000000000000000000000000000000000   000000000000000000000010009        170192957705     
0010001300036U 090000000000000000000000000000000000000000000000000000000000000000000000000000000000000000000000000000000000000000000000001704201700000000            000000000000000                              000                           
0010001300037T 090180230000001544772 29577050007646218   788888888888889915012017000000000007500001012416888888888888899          0900000000000000000000000000000000000000000000000000000   000000000000000000000010009        170192957705     
0010001300038U 090000000000000000000000000000000000000000000000000000000000000000000000000000000000000000000000000000000000000000000000001704201700000000            000000000000000                              000                           
0010001300039T 090180230000001544772 29577050008140723   788888888888889915012017000000000007500001012416888888888888899          0900000000000000000000000000000000000000000000000000000   000000000000000000000010009        170192957705     
0010001300040U 090000000000000000000000000000000000000000000000000000000000000000000000000000000000000000000000000000000000000000000000001704201700000000            000000000000000                              000                           
0010001300041T 090180230000001544772 29577050008240718   788888888888889915012017000000000007500001012416888888888888899          0900000000000000000000000000000000000000000000000000000   000000000000000000000010009        170192957705     
0010001300042U 090000000000000000000000000000000000000000000000000000000000000000000000000000000000000000000000000000000000000000000000001704201700000000            000000000000000                              000                           
0010001300043T 090180230000001544772 29577050008333769   788888888888889915012017000000000007500001012416888888888888899          0900000000000000000000000000000000000000000000000000000   000000000000000000000010009        170192957705     
0010001300044U 090000000000000000000000000000000000000000000000000000000000000000000000000000000000000000000000000000000000000000000000001704201700000000            000000000000000                              000                           
0010001300045T 090180230000001544772 29577050008357056   788888888888889915012017000000000007500001012416888888888888899          0900000000000000000000000000000000000000000000000000000   000000000000000000000010009        170192957705     
0010001300046U 090000000000000000000000000000000000000000000000000000000000000000000000000000000000000000000000000000000000000000000000001704201700000000            000000000000000                              000                           
0010001300047T 090180230000001544772 29577050008508167   788888888888889915012017000000000007500001012408888888888888899          0900000000000000000000000000000000000000000000000000000   000000000000000000000010009        170192957705     
0010001300048U 090000000000000000000000000000000000000000000000000000000000000000000000000000000000000000000000000000000000000000000000001704201700000000            000000000000000                              000                           
0010001300049T 090180230000001544772 29577050009005819   788888888888889915012017000000000007500001000213888888888888899          0900000000000000000000000000000000000000000000000000000   000000000000000000000010009        170192957705     
0010001300050U 090000000000000000000000000000000000000000000000000000000000000000000000000000000000000000000000000000000000000000000000001704201700000000            000000000000000                              000                           
0010001300051T 090180230000001544772 29577050009222043   788888888888889915012017000000000007500001012408888888888888899          0900000000000000000000000000000000000000000000000000000   000000000000000000000010009        170192957705     
0010001300052U 090000000000000000000000000000000000000000000000000000000000000000000000000000000000000000000000000000000000000000000000001704201700000000            000000000000000                              000                           
0010001300053T 090180230000001544772 29577050009311658   788888888888889915012017000000000007500001012408888888888888899          0900000000000000000000000000000000000000000000000000000   000000000000000000000010009        170192957705     
0010001300054U 090000000000000000000000000000000000000000000000000000000000000000000000000000000000000000000000000000000000000000000000001704201700000000            000000000000000                              000                           
0010001300055T 090180230000001544772 29577050009422343   788888888888889915012017000000000007500001000213888888888888899          0900000000000000000000000000000000000000000000000000000   000000000000000000000010009        170192957705     
0010001300056U 090000000000000000000000000000000000000000000000000000000000000000000000000000000000000000000000000000000000000000000000001704201700000000            000000000000000                              000                           
0010001300057T 090180230000001544772 29577050010103259   788888888888889915012017000000000007500001012408888888888888899          0900000000000000000000000000000000000000000000000000000   000000000000000000000010009        170192957705     
0010001300058U 090000000000000000000000000000000000000000000000000000000000000000000000000000000000000000000000000000000000000000000000001704201700000000            000000000000000                              000                           
0010001300059T 090180230000001544772 29577050010321152   788888888888889915012017000000000007500001012416888888888888899          0900000000000000000000000000000000000000000000000000000   000000000000000000000010009        170192957705     
0010001300060U 090000000000000000000000000000000000000000000000000000000000000000000000000000000000000000000000000000000000000000000000001704201700000000            000000000000000                              000                           
0010001300061T 090180230000001544772 29577050010537867   788888888888889915012017000000000007500001012416888888888888899          0900000000000000000000000000000000000000000000000000000   000000000000000000000010009        170192957705     
0010001300062U 090000000000000000000000000000000000000000000000000000000000000000000000000000000000000000000000000000000000000000000000001704201700000000            000000000000000                              000                           
0010001300063T 090180230000001544772 29577050014450272   7               17012017000000000007500001000213                         0900000000000000000000000000000000000000000000000000000   000000000000000000000010009        170192957705     
0010001300064U 090000000000000000000000000000000000000000000000000000000000000000000000000000000000000000000000000000000000000000000000001704201700000000            000000000000000                              000                           
0010001300065T 090180230000001544772 29577050021513524   78888888888888991601201700000000000750000103049X888888888888899          0900000000000000000000000000000000000000000000000000000   000000000000000000000010009        170192957705     
0010001300066U 090000000000000000000000000000000000000000000000000000000000000000000000000000000000000000000000000000000000000000000000001704201700000000            000000000000000                              000                           
0010001300067T 090180230000001544772 29577050027653060   78888888888888991601201700000000000750000103049X888888888888899          0900000000000000000000000000000000000000000000000000000   000000000000000000000010009        170192957705     
0010001300068U 090000000000000000000000000000000000000000000000000000000000000000000000000000000000000000000000000000000000000000000000001704201700000000            000000000000000                              000                           
0010001300069T 090180230000001544772 29577050032334141   788888888888889914012017000000000007500001012408888888888888899          0900000000000000000000000000000000000000000000000000000   000000000000000000000010009        170192957705     
0010001300070U 090000000000000000000000000000000000000000000000000000000000000000000000000000000000000000000000000000000000000000000000001704201700000000            000000000000000                              000                           
0010001300071T 090180230000001544772 29577050032336098   788888888888889916012017000000000007500001012408888888888888899          0900000000000000000000000000000000000000000000000000000   000000000000000000000010009        170192957705     
0010001300072U 090000000000000000000000000000000000000000000000000000000000000000000000000000000000000000000000000000000000000000000000001704201700000000            000000000000000                              000                           
0010001300073T 090180230000001544772 29577050037935289   78888888888888991601201700000000000750000103049X888888888888899          0900000000000000000000000000000000000000000000000000000   000000000000000000000010009        170192957705     
0010001300074U 090000000000000000000000000000000000000000000000000000000000000000000000000000000000000000000000000000000000000000000000001704201700000000            000000000000000                              000                           
0010001300075T 090180230000001544772 29577050037943779   78888888888888991501201700000000000750000103049X888888888888899          0900000000000000000000000000000000000000000000000000000   000000000000000000000010009        170192957705     
0010001300076U 090000000000000000000000000000000000000000000000000000000000000000000000000000000000000000000000000000000000000000000000001704201700000000            000000000000000                              000                           
0010001300077T 090180230000001544772 29577050043447282   788888888888889915012017000000000007500001000213888888888888899          0900000000000000000000000000000000000000000000000000000   000000000000000000000010009        170192957705     
0010001300078U 090000000000000000000000000000000000000000000000000000000000000000000000000000000000000000000000000000000000000000000000001704201700000000            000000000000000                              000                           
0010001300079T 090180230000001544772 29577050070931389   788888888888889917012017000000000007500001012408888888888888899          0900000000000000000000000000000000000000000000000000000   000000000000000000000010009        170192957705     
0010001300080U 090000000000000000000000000000000000000000000000000000000000000000000000000000000000000000000000000000000000000000000000001704201700000000            000000000000000                              000                           
0010001300081T 090180230000001544772 29577050080811955   788888888888889916012017000000000007500001004782888888888888899          0900000000000000000000000000000000000000000000000000000   000000000000000000000010009        170192957705     
0010001300082U 090000000000000000000000000000000000000000000000000000000000000000000000000000000000000000000000000000000000000000000000001704201700000000            000000000000000                              000                           
0010001300083T 090180230000001544772 29577050084322930   788888888888889914012017000000000010000001012408888888888888899          0900000000000000000000000000000000000000000000000000000   000000000000000000000010009        170192957705     
0010001300084U 090000000000000000000000000000000000000000000000000000000000000000000000000000000000000000000000000000000000000000000000001704201700000000            000000000000000                              000                           
0010001300085T 090180230000001544772 29577050084342356   788888888888889914012017000000000010000001012408888888888888899          0900000000000000000000000000000000000000000000000000000   000000000000000000000010009        170192957705     
0010001300086U 090000000000000000000000000000000000000000000000000000000000000000000000000000000000000000000000000000000000000000000000001704201700000000            000000000000000                              000                           
0010001300087T 090180230000001544772 29577050093619384   788888888888889915012017000000000007500001000213888888888888899          0900000000000000000000000000000000000000000000000000000   000000000000000000000010009        170192957705     
0010001300088U 090000000000000000000000000000000000000000000000000000000000000000000000000000000000000000000000000000000000000000000000001704201700000000            000000000000000                              000                           
0010001300089T 090180230000001544772 29577050114106293   788888888888889915012017000000000007500001000213888888888888899          0900000000000000000000000000000000000000000000000000000   000000000000000000000010009        170192957705     
0010001300090U 090000000000000000000000000000000000000000000000000000000000000000000000000000000000000000000000000000000000000000000000001704201700000000            000000000000000                              000                           
0010001300091T 090180230000001544772 29577050122306384   788888888888889917012017000000000007500001000213888888888888899          0900000000000000000000000000000000000000000000000000000   000000000000000000000010009        170192957705     
0010001300092U 090000000000000000000000000000000000000000000000000000000000000000000000000000000000000000000000000000000000000000000000001704201700000000            000000000000000                              000                           
0010001300093T 090180230000001544772 29577050122318136   788888888888889916012017000000000007500001000213888888888888899          0900000000000000000000000000000000000000000000000000000   000000000000000000000010009        170192957705     
0010001300094U 090000000000000000000000000000000000000000000000000000000000000000000000000000000000000000000000000000000000000000000000001704201700000000            000000000000000                              000                           
0010001300095T 090180230000001544772 29577050122325309   788888888888889917012017000000000007500001000213888888888888899          0900000000000000000000000000000000000000000000000000000   000000000000000000000010009        170192957705     
0010001300096U 090000000000000000000000000000000000000000000000000000000000000000000000000000000000000000000000000000000000000000000000001704201700000000            000000000000000                              000                           
0010001300097T 090180230000001544772 29577050122438717   788888888888889916012017000000000010000001000213888888888888899          0900000000000000000000000000000000000000000000000000000   000000000000000000000010009        170192957705     
0010001300098U 090000000000000000000000000000000000000000000000000000000000000000000000000000000000000000000000000000000000000000000000001704201700000000            000000000000000                              000                           
0010001300099T 090180230000001544772 29577050128017887   788888888888889915012017000000000007500001000213888888888888899          0900000000000000000000000000000000000000000000000000000   000000000000000000000010009        170192957705     
0010001300100U 090000000000000000000000000000000000000000000000000000000000000000000000000000000000000000000000000000000000000000000000001704201700000000            000000000000000                              000                           
0010001300101T 090180230000001544772 29577050130505911   78888888888888991401201700000000000750000103049X888888888888899          0900000000000000000000000000000000000000000000000000000   000000000000000000000010009        170192957705     
0010001300102U 090000000000000000000000000000000000000000000000000000000000000000000000000000000000000000000000000000000000000000000000001704201700000000            000000000000000                              000                           
0010001300103T 090180230000001544772 29577050130507462   78888888888888991501201700000000000750000103049X888888888888899          0900000000000000000000000000000000000000000000000000000   000000000000000000000010009        170192957705     
0010001300104U 090000000000000000000000000000000000000000000000000000000000000000000000000000000000000000000000000000000000000000000000001704201700000000            000000000000000                              000                           
0010001300105T 090180230000001544772 29577050130507732   78888888888888991601201700000000000750000103049X888888888888899          0900000000000000000000000000000000000000000000000000000   000000000000000000000010009        170192957705     
0010001300106U 090000000000000000000000000000000000000000000000000000000000000000000000000000000000000000000000000000000000000000000000001704201700000000            000000000000000                              000                           
0010001300107T 090180230000001544772 29577050130520449   78888888888888991601201700000000000750000103049X888888888888899          0900000000000000000000000000000000000000000000000000000   000000000000000000000010009        170192957705     
0010001300108U 090000000000000000000000000000000000000000000000000000000000000000000000000000000000000000000000000000000000000000000000001704201700000000            000000000000000                              000                           
0010001300109T 090180230000001544772 29577050130545814   78888888888888991501201700000000000750000103049X888888888888899          0900000000000000000000000000000000000000000000000000000   000000000000000000000010009        170192957705     
0010001300110U 090000000000000000000000000000000000000000000000000000000000000000000000000000000000000000000000000000000000000000000000001704201700000000            000000000000000                              000                           
0010001300111T 090180230000001544772 29577050130551412   78888888888888991601201700000000000750000103049X888888888888899          0900000000000000000000000000000000000000000000000000000   000000000000000000000010009        170192957705     
0010001300112U 090000000000000000000000000000000000000000000000000000000000000000000000000000000000000000000000000000000000000000000000001704201700000000            000000000000000                              000                           
0010001300113T 090180230000001544772 29577050130551829   78888888888888991501201700000000000750000103049X888888888888899          0900000000000000000000000000000000000000000000000000000   000000000000000000000010009        170192957705     
0010001300114U 090000000000000000000000000000000000000000000000000000000000000000000000000000000000000000000000000000000000000000000000001704201700000000            000000000000000                              000                           
0010001300115T 090180230000001544772 29577050130552436   78888888888888991601201700000000000750000103049X888888888888899          0900000000000000000000000000000000000000000000000000000   000000000000000000000010009        170192957705     
0010001300116U 090000000000000000000000000000000000000000000000000000000000000000000000000000000000000000000000000000000000000000000000001704201700000000            000000000000000                              000                           
0010001300117T 090180230000001544772 29577050130554890   78888888888888991501201700000000000750000103049X888888888888899          0900000000000000000000000000000000000000000000000000000   000000000000000000000010009        170192957705     
0010001300118U 090000000000000000000000000000000000000000000000000000000000000000000000000000000000000000000000000000000000000000000000001704201700000000            000000000000000                              000                           
0010001300119T 090180230000001544772 29577050130555654   78888888888888991501201700000000000750000103049X888888888888899          0900000000000000000000000000000000000000000000000000000   000000000000000000000010009        170192957705     
0010001300120U 090000000000000000000000000000000000000000000000000000000000000000000000000000000000000000000000000000000000000000000000001704201700000000            000000000000000                              000                           
0010001300121T 090180230000001544772 29577050130559434   78888888888888991501201700000000000750000103049X888888888888899          0900000000000000000000000000000000000000000000000000000   000000000000000000000010009        170192957705     
0010001300122U 090000000000000000000000000000000000000000000000000000000000000000000000000000000000000000000000000000000000000000000000001704201700000000            000000000000000                              000                           
0010001300123T 090180230000001544772 29577050148051273   788888888888889914012017000000000007500001032085888888888888899          0900000000000000000000000000000000000000000000000000000   000000000000000000000010009        170192957705     
0010001300124U 090000000000000000000000000000000000000000000000000000000000000000000000000000000000000000000000000000000000000000000000001704201700000000            000000000000000                              000                           
0010001300125T 090180230000001544772 29577050150002166   788888888888889917012017000000000007500001012408888888888888899          0900000000000000000000000000000000000000000000000000000   000000000000000000000010009        170192957705     
0010001300126U 090000000000000000000000000000000000000000000000000000000000000000000000000000000000000000000000000000000000000000000000001704201700000000            000000000000000                              000                           
0010001300127T 090180230000001544772 29577050150002327   788888888888889917012017000000000007500001012408888888888888899          0900000000000000000000000000000000000000000000000000000   000000000000000000000010009        170192957705     
0010001300128U 090000000000000000000000000000000000000000000000000000000000000000000000000000000000000000000000000000000000000000000000001704201700000000            000000000000000                              000                           
0010001300129T 090180230000001544772 29577050150003180   788888888888889917012017000000000007500001012408888888888888899          0900000000000000000000000000000000000000000000000000000   000000000000000000000010009        170192957705     
0010001300130U 090000000000000000000000000000000000000000000000000000000000000000000000000000000000000000000000000000000000000000000000001704201700000000            000000000000000                              000                           
0010001300131T 090180230000001544772 29577050150003190   788888888888889917012017000000000007500001012408888888888888899          0900000000000000000000000000000000000000000000000000000   000000000000000000000010009        170192957705     
0010001300132U 090000000000000000000000000000000000000000000000000000000000000000000000000000000000000000000000000000000000000000000000001704201700000000            000000000000000                              000                           
0010001300133T 090180230000001544772 29577050150004112   788888888888889917012017000000000007500001012408888888888888899          0900000000000000000000000000000000000000000000000000000   000000000000000000000010009        170192957705     
0010001300134U 090000000000000000000000000000000000000000000000000000000000000000000000000000000000000000000000000000000000000000000000001704201700000000            000000000000000                              000                           
0010001300135T 090180230000001544772 29577050154800432   788888888888889916012017000000000007500001000744888888888888899          0900000000000000000000000000000000000000000000000000000   000000000000000000000010009        170192957705     
0010001300136U 090000000000000000000000000000000000000000000000000000000000000000000000000000000000000000000000000000000000000000000000001704201700000000            000000000000000                              000                           
0010001300137T 090180230000001544772 29577050168747795   788888888888889915012017000000000007500001012416888888888888899          0900000000000000000000000000000000000000000000000000000   000000000000000000000010009        170192957705     
0010001300138U 090000000000000000000000000000000000000000000000000000000000000000000000000000000000000000000000000000000000000000000000001704201700000000            000000000000000                              000                           
0010001300139T 090180230000001544772 29577050172457635   788888888888889916012017000000000007500001012416888888888888899          0900000000000000000000000000000000000000000000000000000   000000000000000000000010009        170192957705     
0010001300140U 090000000000000000000000000000000000000000000000000000000000000000000000000000000000000000000000000000000000000000000000001704201700000000            000000000000000                              000                           
0010001300141T 090180230000001544772 29577050174508596   788888888888889916012017000000000007500001000213888888888888899          0900000000000000000000000000000000000000000000000000000   000000000000000000000010009        170192957705     
0010001300142U 090000000000000000000000000000000000000000000000000000000000000000000000000000000000000000000000000000000000000000000000001704201700000000            000000000000000                              000                           
0010001300143T 090180230000001544772 29577050174514747   788888888888889916012017000000000007500001000213888888888888899          0900000000000000000000000000000000000000000000000000000   000000000000000000000010009        170192957705     
0010001300144U 090000000000000000000000000000000000000000000000000000000000000000000000000000000000000000000000000000000000000000000000001704201700000000            000000000000000                              000                           
0010001300145T 090180230000001544772 29577050190927855   788888888888889915012017000000000007500001000833888888888888899          0900000000000000000000000000000000000000000000000000000   000000000000000000000010009        170192957705     
0010001300146U 090000000000000000000000000000000000000000000000000000000000000000000000000000000000000000000000000000000000000000000000001704201700000000            000000000000000                              000                           
0010001300147T 090180230000001544772 29577050204955265   788888888888889917012017000000000007500001046280888888888888899          0900000000000000000000000000000000000000000000000000000   000000000000000000000010009        170192957705     
0010001300148U 090000000000000000000000000000000000000000000000000000000000000000000000000000000000000000000000000000000000000000000000001704201700000000            000000000000000                              000                           
0010001300149T 090180230000001544772 29577050211907994   788888888888889916012017000000000007500001012408888888888888899          0900000000000000000000000000000000000000000000000000000   000000000000000000000010009        170192957705     
0010001300150U 090000000000000000000000000000000000000000000000000000000000000000000000000000000000000000000000000000000000000000000000001704201700000000            000000000000000                              000                           
0010001300151T 090180230000001544772 29577050212612113   788888888888889915012017000000000007500001032077888888888888899          0900000000000000000000000000000000000000000000000000000   000000000000000000000010009        170192957705     
0010001300152U 090000000000000000000000000000000000000000000000000000000000000000000000000000000000000000000000000000000000000000000000001704201700000000            000000000000000                              000                           
0010001300153T 090180230000001544772 29577050216002919   788888888888889915012017000000000007500001002151888888888888899          0900000000000000000000000000000000000000000000000000000   000000000000000000000010009        170192957705     
0010001300154U 090000000000000000000000000000000000000000000000000000000000000000000000000000000000000000000000000000000000000000000000001704201700000000            000000000000000                              000                           
0010001300155T 090180230000001544772 29577050216359814   788888888888889916012017000000000007500001009245888888888888899          0900000000000000000000000000000000000000000000000000000   000000000000000000000010009        170192957705     
0010001300156U 090000000000000000000000000000000000000000000000000000000000000000000000000000000000000000000000000000000000000000000000001704201700000000            000000000000000                              000                           
0010001300157T 090180230000001544772 29577050219149125   788888888888889914012017000000000007500001012416888888888888899          0900000000000000000000000000000000000000000000000000000   000000000000000000000010009        170192957705     
0010001300158U 090000000000000000000000000000000000000000000000000000000000000000000000000000000000000000000000000000000000000000000000001704201700000000            000000000000000                              000                           
0010001300159T 090180230000001544772 29577050219416406   788888888888889914012017000000000007500001012408888888888888899          0900000000000000000000000000000000000000000000000000000   000000000000000000000010009        170192957705     
0010001300160U 090000000000000000000000000000000000000000000000000000000000000000000000000000000000000000000000000000000000000000000000001704201700000000            000000000000000                              000                           
0010001300161T 090180230000001544772 29577050219609813   788888888888889914012017000000000007500001001120888888888888899          0900000000000000000000000000000000000000000000000000000   000000000000000000000010009        170192957705     
0010001300162U 090000000000000000000000000000000000000000000000000000000000000000000000000000000000000000000000000000000000000000000000001704201700000000            000000000000000                              000                           
0010001300163T 090180230000001544772 29577050219754306   788888888888889914012017000000000007500001000213888888888888899          0900000000000000000000000000000000000000000000000000000   000000000000000000000010009        170192957705     
0010001300164U 090000000000000000000000000000000000000000000000000000000000000000000000000000000000000000000000000000000000000000000000001704201700000000            000000000000000                              000                           
0010001300165T 090180230000001544772 29577050219804816   788888888888889914012017000000000007500001012416888888888888899          0900000000000000000000000000000000000000000000000000000   000000000000000000000010009        170192957705     
0010001300166U 090000000000000000000000000000000000000000000000000000000000000000000000000000000000000000000000000000000000000000000000001704201700000000            000000000000000                              000                           
0010001300167T 090180230000001544772 29577050219925113   788888888888889914012017000000000007500001012408888888888888899          0900000000000000000000000000000000000000000000000000000   000000000000000000000010009        170192957705     
0010001300168U 090000000000000000000000000000000000000000000000000000000000000000000000000000000000000000000000000000000000000000000000001704201700000000            000000000000000                              000                           
0010001300169T 090180230000001544772 29577050220043687   788888888888889914012017000000000007500001000213888888888888899          0900000000000000000000000000000000000000000000000000000   000000000000000000000010009        170192957705     
0010001300170U 090000000000000000000000000000000000000000000000000000000000000000000000000000000000000000000000000000000000000000000000001704201700000000            000000000000000                              000                           
0010001300171T 090180230000001544772 29577050220107013   78888888888888991401201700000000000750000103049X888888888888899          0900000000000000000000000000000000000000000000000000000   000000000000000000000010009        170192957705     
0010001300172U 090000000000000000000000000000000000000000000000000000000000000000000000000000000000000000000000000000000000000000000000001704201700000000            000000000000000                              000                           
0010001300173T 090180230000001544772 29577050220217391   78888888888888991401201700000000000750000103049X888888888888899          0900000000000000000000000000000000000000000000000000000   000000000000000000000010009        170192957705     
0010001300174U 090000000000000000000000000000000000000000000000000000000000000000000000000000000000000000000000000000000000000000000000001704201700000000            000000000000000                              000                           
0010001300175T 090180230000001544772 29577050220349011   788888888888889914012017000000000007500001012416888888888888899          0900000000000000000000000000000000000000000000000000000   000000000000000000000010009        170192957705     
0010001300176U 090000000000000000000000000000000000000000000000000000000000000000000000000000000000000000000000000000000000000000000000001704201700000000            000000000000000                              000                           
0010001300177T 090180230000001544772 29577050220452296   788888888888889914012017000000000007500001045799888888888888899          0900000000000000000000000000000000000000000000000000000   000000000000000000000010009        170192957705     
0010001300178U 090000000000000000000000000000000000000000000000000000000000000000000000000000000000000000000000000000000000000000000000001704201700000000            000000000000000                              000                           
0010001300179T 090180230000001544772 29577050220519544   788888888888889914012017000000000007500001012408888888888888899          0900000000000000000000000000000000000000000000000000000   000000000000000000000010009        170192957705     
0010001300180U 090000000000000000000000000000000000000000000000000000000000000000000000000000000000000000000000000000000000000000000000001704201700000000            000000000000000                              000                           
0010001300181T 090180230000001544772 29577050220629962   788888888888889914012017000000000010000001000833888888888888899          0900000000000000000000000000000000000000000000000000000   000000000000000000000010009        170192957705     
0010001300182U 090000000000000000000000000000000000000000000000000000000000000000000000000000000000000000000000000000000000000000000000001704201700000000            000000000000000                              000                           
0010001300183T 090180230000001544772 29577050220920299   788888888888889914012017000000000010000001000833888888888888899          0900000000000000000000000000000000000000000000000000000   000000000000000000000010009        170192957705     
0010001300184U 090000000000000000000000000000000000000000000000000000000000000000000000000000000000000000000000000000000000000000000000001704201700000000            000000000000000                              000                           
0010001300185T 090180230000001544772 29577050221012721   788888888888889914012017000000000007500001004782888888888888899          0900000000000000000000000000000000000000000000000000000   000000000000000000000010009        170192957705     
0010001300186U 090000000000000000000000000000000000000000000000000000000000000000000000000000000000000000000000000000000000000000000000001704201700000000            000000000000000                              000                           
0010001300187T 090180230000001544772 29577050221131350   788888888888889914012017000000000007500001009245888888888888899          0900000000000000000000000000000000000000000000000000000   000000000000000000000010009        170192957705     
0010001300188U 090000000000000000000000000000000000000000000000000000000000000000000000000000000000000000000000000000000000000000000000001704201700000000            000000000000000                              000                           
0010001300189T 090180230000001544772 29577050221216687   788888888888889914012017000000000007500001046280888888888888899          0900000000000000000000000000000000000000000000000000000   000000000000000000000010009        170192957705     
0010001300190U 090000000000000000000000000000000000000000000000000000000000000000000000000000000000000000000000000000000000000000000000001704201700000000            000000000000000                              000                           
0010001300191T 090180230000001544772 29577050221329251   788888888888889914012017000000000007500001009245888888888888899          0900000000000000000000000000000000000000000000000000000   000000000000000000000010009        170192957705     
0010001300192U 090000000000000000000000000000000000000000000000000000000000000000000000000000000000000000000000000000000000000000000000001704201700000000            000000000000000                              000                           
0010001300193T 090180230000001544772 29577050227631884   788888888888889915012017000000000007500001012408888888888888899          0900000000000000000000000000000000000000000000000000000   000000000000000000000010009        170192957705     
0010001300194U 090000000000000000000000000000000000000000000000000000000000000000000000000000000000000000000000000000000000000000000000001704201700000000            000000000000000                              000                           
0010001300195T 090180230000001544772 29577050228928486   78888888888888991501201700000000000750000103049X888888888888899          0900000000000000000000000000000000000000000000000000000   000000000000000000000010009        170192957705     
0010001300196U 090000000000000000000000000000000000000000000000000000000000000000000000000000000000000000000000000000000000000000000000001704201700000000            000000000000000                              000                           
0010001300197T 090180230000001544772 29577050229010568   788888888888889915012017000000000007500001045578888888888888899          0900000000000000000000000000000000000000000000000000000   000000000000000000000010009        170192957705     
0010001300198U 090000000000000000000000000000000000000000000000000000000000000000000000000000000000000000000000000000000000000000000000001704201700000000            000000000000000                              000                           
0010001300199T 090180230000001544772 29577050229125511   78888888888888991501201700000000000750000100166X888888888888899          0900000000000000000000000000000000000000000000000000000   000000000000000000000010009        170192957705     
0010001300200U 090000000000000000000000000000000000000000000000000000000000000000000000000000000000000000000000000000000000000000000000001704201700000000            000000000000000                              000                           
0010001300201T 090180230000001544772 29577050229147096   78888888888888991501201700000000000750000100166X888888888888899          0900000000000000000000000000000000000000000000000000000   000000000000000000000010009        170192957705     
0010001300202U 090000000000000000000000000000000000000000000000000000000000000000000000000000000000000000000000000000000000000000000000001704201700000000            000000000000000                              000                           
0010001300203T 090180230000001544772 29577050229157488   78888888888888991501201700000000000750000100166X888888888888899          0900000000000000000000000000000000000000000000000000000   000000000000000000000010009        170192957705     
0010001300204U 090000000000000000000000000000000000000000000000000000000000000000000000000000000000000000000000000000000000000000000000001704201700000000            000000000000000                              000                           
0010001300205T 090180230000001544772 29577050229233478   78888888888888991501201700000000000750000103049X888888888888899          0900000000000000000000000000000000000000000000000000000   000000000000000000000010009        170192957705     
0010001300206U 090000000000000000000000000000000000000000000000000000000000000000000000000000000000000000000000000000000000000000000000001704201700000000            000000000000000                              000                           
0010001300207T 090180230000001544772 29577050229330727   78888888888888991501201700000000000750000100166X888888888888899          0900000000000000000000000000000000000000000000000000000   000000000000000000000010009        170192957705     
0010001300208U 090000000000000000000000000000000000000000000000000000000000000000000000000000000000000000000000000000000000000000000000001704201700000000            000000000000000                              000                           
0010001300209T 090180230000001544772 29577050229452220   788888888888889915012017000000000007500001012408888888888888899          0900000000000000000000000000000000000000000000000000000   000000000000000000000010009        170192957705     
0010001300210U 090000000000000000000000000000000000000000000000000000000000000000000000000000000000000000000000000000000000000000000000001704201700000000            000000000000000                              000                           
0010001300211T 090180230000001544772 29577050229856577   788888888888889915012017000000000007500001012416888888888888899          0900000000000000000000000000000000000000000000000000000   000000000000000000000010009        170192957705     
0010001300212U 090000000000000000000000000000000000000000000000000000000000000000000000000000000000000000000000000000000000000000000000001704201700000000            000000000000000                              000                           
0010001300213T 090180230000001544772 29577050230049609   788888888888889915012017000000000010000001002720888888888888899          0900000000000000000000000000000000000000000000000000000   000000000000000000000010009        170192957705     
0010001300214U 090000000000000000000000000000000000000000000000000000000000000000000000000000000000000000000000000000000000000000000000001704201700000000            000000000000000                              000                           
0010001300215T 090180230000001544772 29577050230247910   788888888888889915012017000000000007500001012416888888888888899          0900000000000000000000000000000000000000000000000000000   000000000000000000000010009        170192957705     
0010001300216U 090000000000000000000000000000000000000000000000000000000000000000000000000000000000000000000000000000000000000000000000001704201700000000            000000000000000                              000                           
0010001300217T 090180230000001544772 29577050230448745   788888888888889915012017000000000010000001004782888888888888899          0900000000000000000000000000000000000000000000000000000   000000000000000000000010009        170192957705     
0010001300218U 090000000000000000000000000000000000000000000000000000000000000000000000000000000000000000000000000000000000000000000000001704201700000000            000000000000000                              000                           
0010001300219T 090180230000001544772 29577050230951016   788888888888889915012017000000000007500001012416888888888888899          0900000000000000000000000000000000000000000000000000000   000000000000000000000010009        170192957705     
0010001300220U 090000000000000000000000000000000000000000000000000000000000000000000000000000000000000000000000000000000000000000000000001704201700000000            000000000000000                              000                           
0010001300221T 090180230000001544772 29577050231046622   788888888888889915012017000000000007500001032077888888888888899          0900000000000000000000000000000000000000000000000000000   000000000000000000000010009        170192957705     
0010001300222U 090000000000000000000000000000000000000000000000000000000000000000000000000000000000000000000000000000000000000000000000001704201700000000            000000000000000                              000                           
0010001300223T 090180230000001544772 29577050231332939   78888888888888991501201700000000000750000103049X888888888888899          0900000000000000000000000000000000000000000000000000000   000000000000000000000010009        170192957705     
0010001300224U 090000000000000000000000000000000000000000000000000000000000000000000000000000000000000000000000000000000000000000000000001704201700000000            000000000000000                              000                           
0010001300225T 090180230000001544772 29577050231745790   788888888888889915012017000000000010000001012408888888888888899          0900000000000000000000000000000000000000000000000000000   000000000000000000000010009        170192957705     
0010001300226U 090000000000000000000000000000000000000000000000000000000000000000000000000000000000000000000000000000000000000000000000001704201700000000            000000000000000                              000                           
0010001300227T 090180230000001544772 29577050231858764   788888888888889915012017000000000007500001000213888888888888899          0900000000000000000000000000000000000000000000000000000   000000000000000000000010009        170192957705     
0010001300228U 090000000000000000000000000000000000000000000000000000000000000000000000000000000000000000000000000000000000000000000000001704201700000000            000000000000000                              000                           
0010001300229T 090180230000001544772 29577050232029606   788888888888889915012017000000000007500001012408888888888888899          0900000000000000000000000000000000000000000000000000000   000000000000000000000010009        170192957705     
0010001300230U 090000000000000000000000000000000000000000000000000000000000000000000000000000000000000000000000000000000000000000000000001704201700000000            000000000000000                              000                           
0010001300231T 090180230000001544772 29577050232116783   788888888888889915012017000000000007500001000213888888888888899          0900000000000000000000000000000000000000000000000000000   000000000000000000000010009        170192957705     
0010001300232U 090000000000000000000000000000000000000000000000000000000000000000000000000000000000000000000000000000000000000000000000001704201700000000            000000000000000                              000                           
0010001300233T 090180230000001544772 29577050232255302   788888888888889915012017000000000007500001000213888888888888899          0900000000000000000000000000000000000000000000000000000   000000000000000000000010009        170192957705     
0010001300234U 090000000000000000000000000000000000000000000000000000000000000000000000000000000000000000000000000000000000000000000000001704201700000000            000000000000000                              000                           
0010001300235T 090180230000001544772 29577050232325528   788888888888889915012017000000000007500001012416888888888888899          0900000000000000000000000000000000000000000000000000000   000000000000000000000010009        170192957705     
0010001300236U 090000000000000000000000000000000000000000000000000000000000000000000000000000000000000000000000000000000000000000000000001704201700000000            000000000000000                              000                           
0010001300237T 090180230000001544772 29577050232408366   78888888888888991501201700000000000750000103049X888888888888899          0900000000000000000000000000000000000000000000000000000   000000000000000000000010009        170192957705     
0010001300238U 090000000000000000000000000000000000000000000000000000000000000000000000000000000000000000000000000000000000000000000000001704201700000000            000000000000000                              000                           
0010001300239T 090180230000001544772 29577050232556752   788888888888889915012017000000000007500001012416888888888888899          0900000000000000000000000000000000000000000000000000000   000000000000000000000010009        170192957705     
0010001300240U 090000000000000000000000000000000000000000000000000000000000000000000000000000000000000000000000000000000000000000000000001704201700000000            000000000000000                              000                           
0010001300241T 090180230000001544772 29577050232740457   788888888888889915012017000000000007500001012416888888888888899          0900000000000000000000000000000000000000000000000000000   000000000000000000000010009        170192957705     
0010001300242U 090000000000000000000000000000000000000000000000000000000000000000000000000000000000000000000000000000000000000000000000001704201700000000            000000000000000                              000                           
0010001300243T 090180230000001544772 29577050232812231   788888888888889915012017000000000007500001000213888888888888899          0900000000000000000000000000000000000000000000000000000   000000000000000000000010009        170192957705     
0010001300244U 090000000000000000000000000000000000000000000000000000000000000000000000000000000000000000000000000000000000000000000000001704201700000000            000000000000000                              000                           
0010001300245T 090180230000001544772 29577050232903666   788888888888889915012017000000000010000001004782888888888888899          0900000000000000000000000000000000000000000000000000000   000000000000000000000010009        170192957705     
0010001300246U 090000000000000000000000000000000000000000000000000000000000000000000000000000000000000000000000000000000000000000000000001704201700000000            000000000000000                              000                           
0010001300247T 090180230000001544772 29577050233009384   78888888888888991501201700000000000750000103049X888888888888899          0900000000000000000000000000000000000000000000000000000   000000000000000000000010009        170192957705     
0010001300248U 090000000000000000000000000000000000000000000000000000000000000000000000000000000000000000000000000000000000000000000000001704201700000000            000000000000000                              000                           
0010001300249T 090180230000001544772 29577050233103164   78888888888888991501201700000000000750000103049X888888888888899          0900000000000000000000000000000000000000000000000000000   000000000000000000000010009        170192957705     
0010001300250U 090000000000000000000000000000000000000000000000000000000000000000000000000000000000000000000000000000000000000000000000001704201700000000            000000000000000                              000                           
0010001300251T 090180230000001544772 29577050233223532   788888888888889915012017000000000007500001012408888888888888899          0900000000000000000000000000000000000000000000000000000   000000000000000000000010009        170192957705     
0010001300252U 090000000000000000000000000000000000000000000000000000000000000000000000000000000000000000000000000000000000000000000000001704201700000000            000000000000000                              000                           
0010001300253T 090180230000001544772 29577050233340245   788888888888889915012017000000000007500001012408888888888888899          0900000000000000000000000000000000000000000000000000000   000000000000000000000010009        170192957705     
0010001300254U 090000000000000000000000000000000000000000000000000000000000000000000000000000000000000000000000000000000000000000000000001704201700000000            000000000000000                              000                           
0010001300255T 090180230000001544772 29577050233528432   788888888888889915012017000000000007500001012416888888888888899          0900000000000000000000000000000000000000000000000000000   000000000000000000000010009        170192957705     
0010001300256U 090000000000000000000000000000000000000000000000000000000000000000000000000000000000000000000000000000000000000000000000001704201700000000            000000000000000                              000                           
0010001300257T 090180230000001544772 29577050233611483   788888888888889915012017000000000010000001009245888888888888899          0900000000000000000000000000000000000000000000000000000   000000000000000000000010009        170192957705     
0010001300258U 090000000000000000000000000000000000000000000000000000000000000000000000000000000000000000000000000000000000000000000000001704201700000000            000000000000000                              000                           
0010001300259T 090180230000001544772 29577050233734445   788888888888889915012017000000000007500001012416888888888888899          0900000000000000000000000000000000000000000000000000000   000000000000000000000010009        170192957705     
0010001300260U 090000000000000000000000000000000000000000000000000000000000000000000000000000000000000000000000000000000000000000000000001704201700000000            000000000000000                              000                           
0010001300261T 090180230000001544772 29577050233816474   788888888888889915012017000000000007500001012408888888888888899          0900000000000000000000000000000000000000000000000000000   000000000000000000000010009        170192957705     
0010001300262U 090000000000000000000000000000000000000000000000000000000000000000000000000000000000000000000000000000000000000000000000001704201700000000            000000000000000                              000                           
0010001300263T 090180230000001544772 29577050233935644   78888888888888991501201700000000000750000103049X888888888888899          0900000000000000000000000000000000000000000000000000000   000000000000000000000010009        170192957705     
0010001300264U 090000000000000000000000000000000000000000000000000000000000000000000000000000000000000000000000000000000000000000000000001704201700000000            000000000000000                              000                           
0010001300265T 090180230000001544772 29577050234009761   788888888888889915012017000000000007500001012408888888888888899          0900000000000000000000000000000000000000000000000000000   000000000000000000000010009        170192957705     
0010001300266U 090000000000000000000000000000000000000000000000000000000000000000000000000000000000000000000000000000000000000000000000001704201700000000            000000000000000                              000                           
0010001300267T 090180230000001544772 29577050234011462   788888888888889915012017000000000007500001012408888888888888899          0900000000000000000000000000000000000000000000000000000   000000000000000000000010009        170192957705     
0010001300268U 090000000000000000000000000000000000000000000000000000000000000000000000000000000000000000000000000000000000000000000000001704201700000000            000000000000000                              000                           
0010001300269T 090180230000001544772 29577050234027781   788888888888889915012017000000000007500001012408888888888888899          0900000000000000000000000000000000000000000000000000000   000000000000000000000010009        170192957705     
0010001300270U 090000000000000000000000000000000000000000000000000000000000000000000000000000000000000000000000000000000000000000000000001704201700000000            000000000000000                              000                           
0010001300271T 090180230000001544772 29577050234032088   788888888888889915012017000000000007500001012408888888888888899          0900000000000000000000000000000000000000000000000000000   000000000000000000000010009        170192957705     
0010001300272U 090000000000000000000000000000000000000000000000000000000000000000000000000000000000000000000000000000000000000000000000001704201700000000            000000000000000                              000                           
0010001300273T 090180230000001544772 29577050234032409   788888888888889915012017000000000007500001012408888888888888899          0900000000000000000000000000000000000000000000000000000   000000000000000000000010009        170192957705     
0010001300274U 090000000000000000000000000000000000000000000000000000000000000000000000000000000000000000000000000000000000000000000000001704201700000000            000000000000000                              000                           
0010001300275T 090180230000001544772 29577050234032412   788888888888889915012017000000000007500001012408888888888888899          0900000000000000000000000000000000000000000000000000000   000000000000000000000010009        170192957705     
0010001300276U 090000000000000000000000000000000000000000000000000000000000000000000000000000000000000000000000000000000000000000000000001704201700000000            000000000000000                              000                           
0010001300277T 090180230000001544772 29577050234034611   788888888888889915012017000000000007500001012408888888888888899          0900000000000000000000000000000000000000000000000000000   000000000000000000000010009        170192957705     
0010001300278U 090000000000000000000000000000000000000000000000000000000000000000000000000000000000000000000000000000000000000000000000001704201700000000            000000000000000                              000                           
0010001300279T 090180230000001544772 29577050234040104   788888888888889915012017000000000007500001012408888888888888899          0900000000000000000000000000000000000000000000000000000   000000000000000000000010009        170192957705     
0010001300280U 090000000000000000000000000000000000000000000000000000000000000000000000000000000000000000000000000000000000000000000000001704201700000000            000000000000000                              000                           
0010001300281T 090180230000001544772 29577050234049664   788888888888889915012017000000000007500001012408888888888888899          0900000000000000000000000000000000000000000000000000000   000000000000000000000010009        170192957705     
0010001300282U 090000000000000000000000000000000000000000000000000000000000000000000000000000000000000000000000000000000000000000000000001704201700000000            000000000000000                              000                           
0010001300283T 090180230000001544772 29577050234051274   788888888888889915012017000000000007500001012408888888888888899          0900000000000000000000000000000000000000000000000000000   000000000000000000000010009        170192957705     
0010001300284U 090000000000000000000000000000000000000000000000000000000000000000000000000000000000000000000000000000000000000000000000001704201700000000            000000000000000                              000                           
0010001300285T 090180230000001544772 29577050234051430   788888888888889915012017000000000007500001012408888888888888899          0900000000000000000000000000000000000000000000000000000   000000000000000000000010009        170192957705     
0010001300286U 090000000000000000000000000000000000000000000000000000000000000000000000000000000000000000000000000000000000000000000000001704201700000000            000000000000000                              000                           
0010001300287T 090180230000001544772 29577050234051900   788888888888889915012017000000000007500001012408888888888888899          0900000000000000000000000000000000000000000000000000000   000000000000000000000010009        170192957705     
0010001300288U 090000000000000000000000000000000000000000000000000000000000000000000000000000000000000000000000000000000000000000000000001704201700000000            000000000000000                              000                           
0010001300289T 090180230000001544772 29577050234059375   788888888888889915012017000000000007500001012408888888888888899          0900000000000000000000000000000000000000000000000000000   000000000000000000000010009        170192957705     
0010001300290U 090000000000000000000000000000000000000000000000000000000000000000000000000000000000000000000000000000000000000000000000001704201700000000            000000000000000                              000                           
0010001300291T 090180230000001544772 29577050234134477   788888888888889915012017000000000007500001012416888888888888899          0900000000000000000000000000000000000000000000000000000   000000000000000000000010009        170192957705     
0010001300292U 090000000000000000000000000000000000000000000000000000000000000000000000000000000000000000000000000000000000000000000000001704201700000000            000000000000000                              000                           
0010001300293T 090180230000001544772 29577050234145234   788888888888889915012017000000000007500001012416888888888888899          0900000000000000000000000000000000000000000000000000000   000000000000000000000010009        170192957705     
0010001300294U 090000000000000000000000000000000000000000000000000000000000000000000000000000000000000000000000000000000000000000000000001704201700000000            000000000000000                              000                           
0010001300295T 090180230000001544772 29577050234158225   788888888888889915012017000000000007500001012416888888888888899          0900000000000000000000000000000000000000000000000000000   000000000000000000000010009        170192957705     
0010001300296U 090000000000000000000000000000000000000000000000000000000000000000000000000000000000000000000000000000000000000000000000001704201700000000            000000000000000                              000                           
0010001300297T 090180230000001544772 29577050234341811   788888888888889915012017000000000007500001000213888888888888899          0900000000000000000000000000000000000000000000000000000   000000000000000000000010009        170192957705     
0010001300298U 090000000000000000000000000000000000000000000000000000000000000000000000000000000000000000000000000000000000000000000000001704201700000000            000000000000000                              000                           
0010001300299T 090180230000001544772 29577050234436361   788888888888889915012017000000000010000001012408888888888888899          0900000000000000000000000000000000000000000000000000000   000000000000000000000010009        170192957705     
0010001300300U 090000000000000000000000000000000000000000000000000000000000000000000000000000000000000000000000000000000000000000000000001704201700000000            000000000000000                              000                           
0010001300301T 090180230000001544772 29577050234608150   788888888888889915012017000000000007500001000833888888888888899          0900000000000000000000000000000000000000000000000000000   000000000000000000000010009        170192957705     
0010001300302U 090000000000000000000000000000000000000000000000000000000000000000000000000000000000000000000000000000000000000000000000001704201700000000            000000000000000                              000                           
0010001300303T 090180230000001544772 29577050234701485   788888888888889915012017000000000007500001046280888888888888899          0900000000000000000000000000000000000000000000000000000   000000000000000000000010009        170192957705     
0010001300304U 090000000000000000000000000000000000000000000000000000000000000000000000000000000000000000000000000000000000000000000000001704201700000000            000000000000000                              000                           
0010001300305T 090180230000001544772 29577050234919556   788888888888889915012017000000000007500001030864888888888888899          0900000000000000000000000000000000000000000000000000000   000000000000000000000010009        170192957705     
0010001300306U 090000000000000000000000000000000000000000000000000000000000000000000000000000000000000000000000000000000000000000000000001704201700000000            000000000000000                              000                           
0010001300307T 090180230000001544772 29577050234919746   788888888888889915012017000000000007500001030864888888888888899          0900000000000000000000000000000000000000000000000000000   000000000000000000000010009        170192957705     
0010001300308U 090000000000000000000000000000000000000000000000000000000000000000000000000000000000000000000000000000000000000000000000001704201700000000            000000000000000                              000                           
0010001300309T 090180230000001544772 29577050234920964   788888888888889915012017000000000007500001030864888888888888899          0900000000000000000000000000000000000000000000000000000   000000000000000000000010009        170192957705     
0010001300310U 090000000000000000000000000000000000000000000000000000000000000000000000000000000000000000000000000000000000000000000000001704201700000000            000000000000000                              000                           
0010001300311T 090180230000001544772 29577050235007966   788888888888889915012017000000000010000001000213888888888888899          0900000000000000000000000000000000000000000000000000000   000000000000000000000010009        170192957705     
0010001300312U 090000000000000000000000000000000000000000000000000000000000000000000000000000000000000000000000000000000000000000000000001704201700000000            000000000000000                              000                           
0010001300313T 090180230000001544772 29577050235210990   788888888888889915012017000000000007500001012408888888888888899          0900000000000000000000000000000000000000000000000000000   000000000000000000000010009        170192957705     
0010001300314U 090000000000000000000000000000000000000000000000000000000000000000000000000000000000000000000000000000000000000000000000001704201700000000            000000000000000                              000                           
0010001300315T 090180230000001544772 29577050235404194   788888888888889915012017000000000010000001000833888888888888899          0900000000000000000000000000000000000000000000000000000   000000000000000000000010009        170192957705     
0010001300316U 090000000000000000000000000000000000000000000000000000000000000000000000000000000000000000000000000000000000000000000000001704201700000000            000000000000000                              000                           
0010001300317T 090180230000001544772 29577050235632916   788888888888889915012017000000000007500001000213888888888888899          0900000000000000000000000000000000000000000000000000000   000000000000000000000010009        170192957705     
0010001300318U 090000000000000000000000000000000000000000000000000000000000000000000000000000000000000000000000000000000000000000000000001704201700000000            000000000000000                              000                           
0010001300319T 090180230000001544772 29577050235819311   788888888888889915012017000000000007500001012408888888888888899          0900000000000000000000000000000000000000000000000000000   000000000000000000000010009        170192957705     
0010001300320U 090000000000000000000000000000000000000000000000000000000000000000000000000000000000000000000000000000000000000000000000001704201700000000            000000000000000                              000                           
0010001300321T 090180230000001544772 29577050236029432   788888888888889915012017000000000007500001032085888888888888899          0900000000000000000000000000000000000000000000000000000   000000000000000000000010009        170192957705     
0010001300322U 090000000000000000000000000000000000000000000000000000000000000000000000000000000000000000000000000000000000000000000000001704201700000000            000000000000000                              000                           
0010001300323T 090180230000001544772 29577050236118877   78888888888888991501201700000000000750000103049X888888888888899          0900000000000000000000000000000000000000000000000000000   000000000000000000000010009        170192957705     
0010001300324U 090000000000000000000000000000000000000000000000000000000000000000000000000000000000000000000000000000000000000000000000001704201700000000            000000000000000                              000                           
0010001300325T 090180230000001544772 29577050236239306   78888888888888991501201700000000000750000103049X888888888888899          0900000000000000000000000000000000000000000000000000000   000000000000000000000010009        170192957705     
0010001300326U 090000000000000000000000000000000000000000000000000000000000000000000000000000000000000000000000000000000000000000000000001704201700000000            000000000000000                              000                           
0010001300327T 090180230000001544772 29577050236458671   78888888888888991501201700000000000750000103049X888888888888899          0900000000000000000000000000000000000000000000000000000   000000000000000000000010009        170192957705     
0010001300328U 090000000000000000000000000000000000000000000000000000000000000000000000000000000000000000000000000000000000000000000000001704201700000000            000000000000000                              000                           
0010001300329T 090180230000001544772 29577050236524195   788888888888889915012017000000000007500001000833888888888888899          0900000000000000000000000000000000000000000000000000000   000000000000000000000010009        170192957705     
0010001300330U 090000000000000000000000000000000000000000000000000000000000000000000000000000000000000000000000000000000000000000000000001704201700000000            000000000000000                              000                           
0010001300331T 090180230000001544772 29577050236531422   788888888888889915012017000000000007500001000833888888888888899          0900000000000000000000000000000000000000000000000000000   000000000000000000000010009        170192957705     
0010001300332U 090000000000000000000000000000000000000000000000000000000000000000000000000000000000000000000000000000000000000000000000001704201700000000            000000000000000                              000                           
0010001300333T 090180230000001544772 29577050236653034   788888888888889915012017000000000010000001012408888888888888899          0900000000000000000000000000000000000000000000000000000   000000000000000000000010009        170192957705     
0010001300334U 090000000000000000000000000000000000000000000000000000000000000000000000000000000000000000000000000000000000000000000000001704201700000000            000000000000000                              000                           
0010001300335T 090180230000001544772 29577050236707289   78888888888888991501201700000000000750000103049X888888888888899          0900000000000000000000000000000000000000000000000000000   000000000000000000000010009        170192957705     
0010001300336U 090000000000000000000000000000000000000000000000000000000000000000000000000000000000000000000000000000000000000000000000001704201700000000            000000000000000                              000                           
0010001300337T 090180230000001544772 29577050236845600   788888888888889915012017000000000007500001012416888888888888899          0900000000000000000000000000000000000000000000000000000   000000000000000000000010009        170192957705     
0010001300338U 090000000000000000000000000000000000000000000000000000000000000000000000000000000000000000000000000000000000000000000000001704201700000000            000000000000000                              000                           
0010001300339T 090180230000001544772 29577050236922720   78888888888888991501201700000000000750000103049X888888888888899          0900000000000000000000000000000000000000000000000000000   000000000000000000000010009        170192957705     
0010001300340U 090000000000000000000000000000000000000000000000000000000000000000000000000000000000000000000000000000000000000000000000001704201700000000            000000000000000                              000                           
0010001300341T 090180230000001544772 29577050237058706   788888888888889915012017000000000007500001002224888888888888899          0900000000000000000000000000000000000000000000000000000   000000000000000000000010009        170192957705     
0010001300342U 090000000000000000000000000000000000000000000000000000000000000000000000000000000000000000000000000000000000000000000000001704201700000000            000000000000000                              000                           
0010001300343T 090180230000001544772 29577050237131593   788888888888889915012017000000000007500001000213888888888888899          0900000000000000000000000000000000000000000000000000000   000000000000000000000010009        170192957705     
0010001300344U 090000000000000000000000000000000000000000000000000000000000000000000000000000000000000000000000000000000000000000000000001704201700000000            000000000000000                              000                           
0010001300345T 090180230000001544772 29577050237219069   788888888888889915012017000000000007500001012416888888888888899          0900000000000000000000000000000000000000000000000000000   000000000000000000000010009        170192957705     
0010001300346U 090000000000000000000000000000000000000000000000000000000000000000000000000000000000000000000000000000000000000000000000001704201700000000            000000000000000                              000                           
0010001300347T 090180230000001544772 29577050237338149   788888888888889915012017000000000007500001004782888888888888899          0900000000000000000000000000000000000000000000000000000   000000000000000000000010009        170192957705     
0010001300348U 090000000000000000000000000000000000000000000000000000000000000000000000000000000000000000000000000000000000000000000000001704201700000000            000000000000000                              000                           
0010001300349T 090180230000001544772 29577050237502087   788888888888889915012017000000000007500001012416888888888888899          0900000000000000000000000000000000000000000000000000000   000000000000000000000010009        170192957705     
0010001300350U 090000000000000000000000000000000000000000000000000000000000000000000000000000000000000000000000000000000000000000000000001704201700000000            000000000000000                              000                           
0010001300351T 090180230000001544772 29577050237646307   788888888888889915012017000000000010000001000213888888888888899          0900000000000000000000000000000000000000000000000000000   000000000000000000000010009        170192957705     
0010001300352U 090000000000000000000000000000000000000000000000000000000000000000000000000000000000000000000000000000000000000000000000001704201700000000            000000000000000                              000                           
0010001300353T 090180230000001544772 29577050237702566   788888888888889915012017000000000007500001001554888888888888899          0900000000000000000000000000000000000000000000000000000   000000000000000000000010009        170192957705     
0010001300354U 090000000000000000000000000000000000000000000000000000000000000000000000000000000000000000000000000000000000000000000000001704201700000000            000000000000000                              000                           
0010001300355T 090180230000001544772 29577050237721046   788888888888889917012017000000000007500001001554888888888888899          0900000000000000000000000000000000000000000000000000000   000000000000000000000010009        170192957705     
0010001300356U 090000000000000000000000000000000000000000000000000000000000000000000000000000000000000000000000000000000000000000000000001704201700000000            000000000000000                              000                           
0010001300357T 090180230000001544772 29577050237850123   788888888888889915012017000000000010000001000833888888888888899          0900000000000000000000000000000000000000000000000000000   000000000000000000000010009        170192957705     
0010001300358U 090000000000000000000000000000000000000000000000000000000000000000000000000000000000000000000000000000000000000000000000001704201700000000            000000000000000                              000                           
0010001300359T 090180230000001544772 29577050237956302   788888888888889915012017000000000007500001012408888888888888899          0900000000000000000000000000000000000000000000000000000   000000000000000000000010009        170192957705     
0010001300360U 090000000000000000000000000000000000000000000000000000000000000000000000000000000000000000000000000000000000000000000000001704201700000000            000000000000000                              000                           
0010001300361T 090180230000001544772 29577050238025348   788888888888889915012017000000000010000001030864888888888888899          0900000000000000000000000000000000000000000000000000000   000000000000000000000010009        170192957705     
0010001300362U 090000000000000000000000000000000000000000000000000000000000000000000000000000000000000000000000000000000000000000000000001704201700000000            000000000000000                              000                           
0010001300363T 090180230000001544772 29577050238129783   788888888888889915012017000000000007500001012408888888888888899          0900000000000000000000000000000000000000000000000000000   000000000000000000000010009        170192957705     
0010001300364U 090000000000000000000000000000000000000000000000000000000000000000000000000000000000000000000000000000000000000000000000001704201700000000            000000000000000                              000                           
0010001300365T 090180230000001544772 29577050238245076   78888888888888991501201700000000000750000103049X888888888888899          0900000000000000000000000000000000000000000000000000000   000000000000000000000010009        170192957705     
0010001300366U 090000000000000000000000000000000000000000000000000000000000000000000000000000000000000000000000000000000000000000000000001704201700000000            000000000000000                              000                           
0010001300367T 090180230000001544772 29577050238317933   788888888888889915012017000000000007500001012416888888888888899          0900000000000000000000000000000000000000000000000000000   000000000000000000000010009        170192957705     
0010001300368U 090000000000000000000000000000000000000000000000000000000000000000000000000000000000000000000000000000000000000000000000001704201700000000            000000000000000                              000                           
0010001300369T 090180230000001544772 29577050238443532   78888888888888991501201700000000000750000103049X888888888888899          0900000000000000000000000000000000000000000000000000000   000000000000000000000010009        170192957705     
0010001300370U 090000000000000000000000000000000000000000000000000000000000000000000000000000000000000000000000000000000000000000000000001704201700000000            000000000000000                              000                           
0010001300371T 090180230000001544772 29577050238647442   788888888888889916012017000000000007500001046280888888888888899          0900000000000000000000000000000000000000000000000000000   000000000000000000000010009        170192957705     
0010001300372U 090000000000000000000000000000000000000000000000000000000000000000000000000000000000000000000000000000000000000000000000001704201700000000            000000000000000                              000                           
0010001300373T 090180230000001544772 29577050238741165   788888888888889916012017000000000010000001012408888888888888899          0900000000000000000000000000000000000000000000000000000   000000000000000000000010009        170192957705     
0010001300374U 090000000000000000000000000000000000000000000000000000000000000000000000000000000000000000000000000000000000000000000000001704201700000000            000000000000000                              000                           
0010001300375T 090180230000001544772 29577050238825953   78888888888888991601201700000000000750000103049X888888888888899          0900000000000000000000000000000000000000000000000000000   000000000000000000000010009        170192957705     
0010001300376U 090000000000000000000000000000000000000000000000000000000000000000000000000000000000000000000000000000000000000000000000001704201700000000            000000000000000                              000                           
0010001300377T 090180230000001544772 29577050239059136   788888888888889916012017000000000007500001000515888888888888899          0900000000000000000000000000000000000000000000000000000   000000000000000000000010009        170192957705     
0010001300378U 090000000000000000000000000000000000000000000000000000000000000000000000000000000000000000000000000000000000000000000000001704201700000000            000000000000000                              000                           
0010001300379T 090180230000001544772 29577050239100501   788888888888889916012017000000000007500001012416888888888888899          0900000000000000000000000000000000000000000000000000000   000000000000000000000010009        170192957705     
0010001300380U 090000000000000000000000000000000000000000000000000000000000000000000000000000000000000000000000000000000000000000000000001704201700000000            000000000000000                              000                           
0010001300381T 090180230000001544772 29577050239228636   788888888888889916012017000000000007500001012408888888888888899          0900000000000000000000000000000000000000000000000000000   000000000000000000000010009        170192957705     
0010001300382U 090000000000000000000000000000000000000000000000000000000000000000000000000000000000000000000000000000000000000000000000001704201700000000            000000000000000                              000                           
0010001300383T 090180230000001544772 29577050239300614   788888888888889916012017000000000007500001012408888888888888899          0900000000000000000000000000000000000000000000000000000   000000000000000000000010009        170192957705     
0010001300384U 090000000000000000000000000000000000000000000000000000000000000000000000000000000000000000000000000000000000000000000000001704201700000000            000000000000000                              000                           
0010001300385T 090180230000001544772 29577050239429335   788888888888889916012017000000000007500001000213888888888888899          0900000000000000000000000000000000000000000000000000000   000000000000000000000010009        170192957705     
0010001300386U 090000000000000000000000000000000000000000000000000000000000000000000000000000000000000000000000000000000000000000000000001704201700000000            000000000000000                              000                           
0010001300387T 090180230000001544772 29577050239503600   788888888888889916012017000000000007500001012416888888888888899          0900000000000000000000000000000000000000000000000000000   000000000000000000000010009        170192957705     
0010001300388U 090000000000000000000000000000000000000000000000000000000000000000000000000000000000000000000000000000000000000000000000001704201700000000            000000000000000                              000                           
0010001300389T 090180230000001544772 29577050239649765   788888888888889916012017000000000010000001002216888888888888899          0900000000000000000000000000000000000000000000000000000   000000000000000000000010009        170192957705     
0010001300390U 090000000000000000000000000000000000000000000000000000000000000000000000000000000000000000000000000000000000000000000000001704201700000000            000000000000000                              000                           
0010001300391T 090180230000001544772 29577050239710906   788888888888889916012017000000000010000001014346888888888888899          0900000000000000000000000000000000000000000000000000000   000000000000000000000010009        170192957705     
0010001300392U 090000000000000000000000000000000000000000000000000000000000000000000000000000000000000000000000000000000000000000000000001704201700000000            000000000000000                              000                           
0010001300393T 090180230000001544772 29577050239836203   788888888888889916012017000000000007500001012408888888888888899          0900000000000000000000000000000000000000000000000000000   000000000000000000000010009        170192957705     
0010001300394U 090000000000000000000000000000000000000000000000000000000000000000000000000000000000000000000000000000000000000000000000001704201700000000            000000000000000                              000                           
0010001300395T 090180230000001544772 29577050239947390   78888888888888991601201700000000000750000103049X888888888888899          0900000000000000000000000000000000000000000000000000000   000000000000000000000010009        170192957705     
0010001300396U 090000000000000000000000000000000000000000000000000000000000000000000000000000000000000000000000000000000000000000000000001704201700000000            000000000000000                              000                           
0010001300397T 090180230000001544772 29577050240027304   78888888888888991601201700000000000750000103049X888888888888899          0900000000000000000000000000000000000000000000000000000   000000000000000000000010009        170192957705     
0010001300398U 090000000000000000000000000000000000000000000000000000000000000000000000000000000000000000000000000000000000000000000000001704201700000000            000000000000000                              000                           
0010001300399T 090180230000001544772 29577050240142599   788888888888889916012017000000000007500001012408888888888888899          0900000000000000000000000000000000000000000000000000000   000000000000000000000010009        170192957705     
0010001300400U 090000000000000000000000000000000000000000000000000000000000000000000000000000000000000000000000000000000000000000000000001704201700000000            000000000000000                              000                           
0010001300401T 090180230000001544772 29577050240317916   788888888888889916012017000000000007500001013005888888888888899          0900000000000000000000000000000000000000000000000000000   000000000000000000000010009        170192957705     
0010001300402U 090000000000000000000000000000000000000000000000000000000000000000000000000000000000000000000000000000000000000000000000001704201700000000            000000000000000                              000                           
0010001300403T 090180230000001544772 29577050240610575   78888888888888991601201700000000000750000103049X888888888888899          0900000000000000000000000000000000000000000000000000000   000000000000000000000010009        170192957705     
0010001300404U 090000000000000000000000000000000000000000000000000000000000000000000000000000000000000000000000000000000000000000000000001704201700000000            000000000000000                              000                           
0010001300405T 090180230000001544772 29577050240859366   788888888888889916012017000000000007500001009334888888888888899          0900000000000000000000000000000000000000000000000000000   000000000000000000000010009        170192957705     
0010001300406U 090000000000000000000000000000000000000000000000000000000000000000000000000000000000000000000000000000000000000000000000001704201700000000            000000000000000                              000                           
0010001300407T 090180230000001544772 29577050240901784   788888888888889916012017000000000007500001045799888888888888899          0900000000000000000000000000000000000000000000000000000   000000000000000000000010009        170192957705     
0010001300408U 090000000000000000000000000000000000000000000000000000000000000000000000000000000000000000000000000000000000000000000000001704201700000000            000000000000000                              000                           
0010001300409T 090180230000001544772 29577050241043932   78888888888888991601201700000000000750000101009X888888888888899          0900000000000000000000000000000000000000000000000000000   000000000000000000000010009        170192957705     
0010001300410U 090000000000000000000000000000000000000000000000000000000000000000000000000000000000000000000000000000000000000000000000001704201700000000            000000000000000                              000                           
0010001300411T 090180230000001544772 29577050241045320   78888888888888991601201700000000000750000101009X888888888888899          0900000000000000000000000000000000000000000000000000000   000000000000000000000010009        170192957705     
0010001300412U 090000000000000000000000000000000000000000000000000000000000000000000000000000000000000000000000000000000000000000000000001704201700000000            000000000000000                              000                           
