00100000         2247745860001000029577050014       0180230000001544772 INSTITUTO DE SELECAO E TECNOLOBANCO DO BRASIL                         21804201701294400017803000000515122941PROCESSAMEN                                                 
00100011T0100020 20247745860001000029577050014       0180230000001544772 INSTITUTO DE SELECAO E TECNOLO                                                                                000000001804201700000000  000000000                      
0010001300001T 020180230000001544772 29577050029540845   7               20042017000000000007500001009245                         0900000000000010000000000000000000000000000000000000000   0000000000000000000000000A9        170192957705     
0010001300002U 020000000000000000000000000000000000000000000000000000000000000000000000000000000000000000000000000000000000000000000000001804201700000000            000000000000000                              000                           
0010001300003T 020180230000001544772 29577050167811233   7               19042017000000000007500001046280                         0900000000000010500000000000000000000000000000000000000   0000000000000000000000000A9A4      170192957705     
0010001300004U 020000000000000000000000000000000000000000000000000000000000000000000000000000000000000000000000000000000000000000000000001704201700000000            000000000000000                              000                           
0010001300005T 020180230000001544772 29577050407450351   7               2004201700000000000750000103049X                         0900000000000010500000000000000000000000000000000000000   0000000000000000000000000A9A4      170192957705     
0010001300006U 020000000000000000000000000000000000000000000000000000000000000000000000000000000000000000000000000000000000000000000000001804201700000000            000000000000000                              000                           
0010001300007T 020180230000001544772 29577050520616171   7               20042017000000000007500001012408                         0900000000000010000000000000000000000000000000000000000   0000000000000000000000000A9        170192957705     
0010001300008U 020000000000000000000000000000000000000000000000000000000000000000000000000000000000000000000000000000000000000000000000001804201700000000            000000000000000                              000                           
0010001300009T 090180230000001544772 29577050000604390   788888888888889918012017000000000007500001000213888888888888899          0900000000000000000000000000000000000000000000000000000   000000000000000000000010009        170192957705     
0010001300010U 090000000000000000000000000000000000000000000000000000000000000000000000000000000000000000000000000000000000000000000000001804201700000000            000000000000000                              000                           
0010001300011T 090180230000001544772 29577050000605535   788888888888889918012017000000000007500001000213888888888888899          0900000000000000000000000000000000000000000000000000000   000000000000000000000010009        170192957705     
0010001300012U 090000000000000000000000000000000000000000000000000000000000000000000000000000000000000000000000000000000000000000000000001804201700000000            000000000000000                              000                           
0010001300013T 090180230000001544772 29577050000605866   788888888888889918012017000000000007500001000213888888888888899          0900000000000000000000000000000000000000000000000000000   000000000000000000000010009        170192957705     
0010001300014U 090000000000000000000000000000000000000000000000000000000000000000000000000000000000000000000000000000000000000000000000001804201700000000            000000000000000                              000                           
0010001300015T 090180230000001544772 29577050000611048   788888888888889918012017000000000007500001000213888888888888899          0900000000000000000000000000000000000000000000000000000   000000000000000000000010009        170192957705     
0010001300016U 090000000000000000000000000000000000000000000000000000000000000000000000000000000000000000000000000000000000000000000000001804201700000000            000000000000000                              000                           
0010001300017T 090180230000001544772 29577050000615689   788888888888889918012017000000000007500001000213888888888888899          0900000000000000000000000000000000000000000000000000000   000000000000000000000010009        170192957705     
0010001300018U 090000000000000000000000000000000000000000000000000000000000000000000000000000000000000000000000000000000000000000000000001804201700000000            000000000000000                              000                           
0010001300019T 090180230000001544772 29577050000616486   788888888888889918012017000000000007500001000213888888888888899          0900000000000000000000000000000000000000000000000000000   000000000000000000000010009        170192957705     
0010001300020U 090000000000000000000000000000000000000000000000000000000000000000000000000000000000000000000000000000000000000000000000001804201700000000            000000000000000                              000                           
0010001300021T 090180230000001544772 29577050000618041   788888888888889918012017000000000007500001000213888888888888899          0900000000000000000000000000000000000000000000000000000   000000000000000000000010009        170192957705     
0010001300022U 090000000000000000000000000000000000000000000000000000000000000000000000000000000000000000000000000000000000000000000000001804201700000000            000000000000000                              000                           
0010001300023T 090180230000001544772 29577050000625920   788888888888889918012017000000000007500001000213888888888888899          0900000000000000000000000000000000000000000000000000000   000000000000000000000010009        170192957705     
0010001300024U 090000000000000000000000000000000000000000000000000000000000000000000000000000000000000000000000000000000000000000000000001804201700000000            000000000000000                              000                           
0010001300025T 090180230000001544772 29577050000630869   788888888888889918012017000000000007500001000213888888888888899          0900000000000000000000000000000000000000000000000000000   000000000000000000000010009        170192957705     
0010001300026U 090000000000000000000000000000000000000000000000000000000000000000000000000000000000000000000000000000000000000000000000001804201700000000            000000000000000                              000                           
0010001300027T 090180230000001544772 29577050000637761   788888888888889918012017000000000007500001000213888888888888899          0900000000000000000000000000000000000000000000000000000   000000000000000000000010009        170192957705     
0010001300028U 090000000000000000000000000000000000000000000000000000000000000000000000000000000000000000000000000000000000000000000000001804201700000000            000000000000000                              000                           
0010001300029T 090180230000001544772 29577050000643844   788888888888889918012017000000000007500001000213888888888888899          0900000000000000000000000000000000000000000000000000000   000000000000000000000010009        170192957705     
0010001300030U 090000000000000000000000000000000000000000000000000000000000000000000000000000000000000000000000000000000000000000000000001804201700000000            000000000000000                              000                           
0010001300031T 090180230000001544772 29577050000645339   788888888888889918012017000000000007500001000213888888888888899          0900000000000000000000000000000000000000000000000000000   000000000000000000000010009        170192957705     
0010001300032U 090000000000000000000000000000000000000000000000000000000000000000000000000000000000000000000000000000000000000000000000001804201700000000            000000000000000                              000                           
0010001300033T 090180230000001544772 29577050000656041   788888888888889918012017000000000007500001000213888888888888899          0900000000000000000000000000000000000000000000000000000   000000000000000000000010009        170192957705     
0010001300034U 090000000000000000000000000000000000000000000000000000000000000000000000000000000000000000000000000000000000000000000000001804201700000000            000000000000000                              000                           
0010001300035T 090180230000001544772 29577050005252419   788888888888889918012017000000000007500001012408888888888888899          0900000000000000000000000000000000000000000000000000000   000000000000000000000010009        170192957705     
0010001300036U 090000000000000000000000000000000000000000000000000000000000000000000000000000000000000000000000000000000000000000000000001804201700000000            000000000000000                              000                           
0010001300037T 090180230000001544772 29577050007901095   788888888888889918012017000000000007500001012416888888888888899          0900000000000000000000000000000000000000000000000000000   000000000000000000000010009        170192957705     
0010001300038U 090000000000000000000000000000000000000000000000000000000000000000000000000000000000000000000000000000000000000000000000001804201700000000            000000000000000                              000                           
0010001300039T 090180230000001544772 29577050008409665   788888888888889918012017000000000007500001012416888888888888899          0900000000000000000000000000000000000000000000000000000   000000000000000000000010009        170192957705     
0010001300040U 090000000000000000000000000000000000000000000000000000000000000000000000000000000000000000000000000000000000000000000000001804201700000000            000000000000000                              000                           
0010001300041T 090180230000001544772 29577050009600587   78888888888888991801201700000000000750000103049X888888888888899          0900000000000000000000000000000000000000000000000000000   000000000000000000000010009        170192957705     
0010001300042U 090000000000000000000000000000000000000000000000000000000000000000000000000000000000000000000000000000000000000000000000001804201700000000            000000000000000                              000                           
0010001300043T 090180230000001544772 29577050009614240   78888888888888991801201700000000000750000103049X888888888888899          0900000000000000000000000000000000000000000000000000000   000000000000000000000010009        170192957705     
0010001300044U 090000000000000000000000000000000000000000000000000000000000000000000000000000000000000000000000000000000000000000000000001804201700000000            000000000000000                              000                           
0010001300045T 090180230000001544772 29577050009638810   78888888888888991801201700000000000750000103049X888888888888899          0900000000000000000000000000000000000000000000000000000   000000000000000000000010009        170192957705     
0010001300046U 090000000000000000000000000000000000000000000000000000000000000000000000000000000000000000000000000000000000000000000000001804201700000000            000000000000000                              000                           
0010001300047T 090180230000001544772 29577050009641642   78888888888888991801201700000000000750000103049X888888888888899          0900000000000000000000000000000000000000000000000000000   000000000000000000000010009        170192957705     
0010001300048U 090000000000000000000000000000000000000000000000000000000000000000000000000000000000000000000000000000000000000000000000001804201700000000            000000000000000                              000                           
0010001300049T 090180230000001544772 29577050009829728   788888888888889918012017000000000007500001000213888888888888899          0900000000000000000000000000000000000000000000000000000   000000000000000000000010009        170192957705     
0010001300050U 090000000000000000000000000000000000000000000000000000000000000000000000000000000000000000000000000000000000000000000000001804201700000000            000000000000000                              000                           
0010001300051T 090180230000001544772 29577050009920084   788888888888889918012017000000000007500001012416888888888888899          0900000000000000000000000000000000000000000000000000000   000000000000000000000010009        170192957705     
0010001300052U 090000000000000000000000000000000000000000000000000000000000000000000000000000000000000000000000000000000000000000000000001804201700000000            000000000000000                              000                           
0010001300053T 090180230000001544772 29577050010036309   788888888888889918012017000000000007500001000213888888888888899          0900000000000000000000000000000000000000000000000000000   000000000000000000000010009        170192957705     
0010001300054U 090000000000000000000000000000000000000000000000000000000000000000000000000000000000000000000000000000000000000000000000001804201700000000            000000000000000                              000                           
0010001300055T 090180230000001544772 29577050010855815   788888888888889918012017000000000007500001012408888888888888899          0900000000000000000000000000000000000000000000000000000   000000000000000000000010009        170192957705     
0010001300056U 090000000000000000000000000000000000000000000000000000000000000000000000000000000000000000000000000000000000000000000000001804201700000000            000000000000000                              000                           
0010001300057T 090180230000001544772 29577050011149905   788888888888889918012017000000000007500001012416888888888888899          0900000000000000000000000000000000000000000000000000000   000000000000000000000010009        170192957705     
0010001300058U 090000000000000000000000000000000000000000000000000000000000000000000000000000000000000000000000000000000000000000000000001804201700000000            000000000000000                              000                           
0010001300059T 090180230000001544772 29577050011339971   788888888888889918012017000000000007500001012408888888888888899          0900000000000000000000000000000000000000000000000000000   000000000000000000000010009        170192957705     
0010001300060U 090000000000000000000000000000000000000000000000000000000000000000000000000000000000000000000000000000000000000000000000001804201700000000            000000000000000                              000                           
0010001300061T 090180230000001544772 29577050011501042   78888888888888991801201700000000000750000100829X888888888888899          0900000000000000000000000000000000000000000000000000000   000000000000000000000010009        170192957705     
0010001300062U 090000000000000000000000000000000000000000000000000000000000000000000000000000000000000000000000000000000000000000000000001804201700000000            000000000000000                              000                           
0010001300063T 090180230000001544772 29577050011711483   788888888888889918012017000000000007500001000213888888888888899          0900000000000000000000000000000000000000000000000000000   000000000000000000000010009        170192957705     
0010001300064U 090000000000000000000000000000000000000000000000000000000000000000000000000000000000000000000000000000000000000000000000001804201700000000            000000000000000                              000                           
0010001300065T 090180230000001544772 29577050012952921   788888888888889918012017000000000007500001046280888888888888899          0900000000000000000000000000000000000000000000000000000   000000000000000000000010009        170192957705     
0010001300066U 090000000000000000000000000000000000000000000000000000000000000000000000000000000000000000000000000000000000000000000000001804201700000000            000000000000000                              000                           
0010001300067T 090180230000001544772 29577050013116288   788888888888889918012017000000000007500001000213888888888888899          0900000000000000000000000000000000000000000000000000000   000000000000000000000010009        170192957705     
0010001300068U 090000000000000000000000000000000000000000000000000000000000000000000000000000000000000000000000000000000000000000000000001804201700000000            000000000000000                              000                           
0010001300069T 090180230000001544772 29577050013551374   788888888888889918012017000000000007500001000213888888888888899          0900000000000000000000000000000000000000000000000000000   000000000000000000000010009        170192957705     
0010001300070U 090000000000000000000000000000000000000000000000000000000000000000000000000000000000000000000000000000000000000000000000001804201700000000            000000000000000                              000                           
0010001300071T 090180230000001544772 29577050013643405   788888888888889918012017000000000007500001000213888888888888899          0900000000000000000000000000000000000000000000000000000   000000000000000000000010009        170192957705     
0010001300072U 090000000000000000000000000000000000000000000000000000000000000000000000000000000000000000000000000000000000000000000000001804201700000000            000000000000000                              000                           
0010001300073T 090180230000001544772 29577050013805488   78888888888888991801201700000000000750000103049X888888888888899          0900000000000000000000000000000000000000000000000000000   000000000000000000000010009        170192957705     
0010001300074U 090000000000000000000000000000000000000000000000000000000000000000000000000000000000000000000000000000000000000000000000001804201700000000            000000000000000                              000                           
0010001300075T 090180230000001544772 29577050014018957   788888888888889918012017000000000007500001036803888888888888899          0900000000000000000000000000000000000000000000000000000   000000000000000000000010009        170192957705     
0010001300076U 090000000000000000000000000000000000000000000000000000000000000000000000000000000000000000000000000000000000000000000000001804201700000000            000000000000000                              000                           
0010001300077T 090180230000001544772 29577050014118868   788888888888889918012017000000000007500001012416888888888888899          0900000000000000000000000000000000000000000000000000000   000000000000000000000010009        170192957705     
0010001300078U 090000000000000000000000000000000000000000000000000000000000000000000000000000000000000000000000000000000000000000000000001804201700000000            000000000000000                              000                           
0010001300079T 090180230000001544772 29577050014209622   788888888888889918012017000000000007500001012408888888888888899          0900000000000000000000000000000000000000000000000000000   000000000000000000000010009        170192957705     
0010001300080U 090000000000000000000000000000000000000000000000000000000000000000000000000000000000000000000000000000000000000000000000001804201700000000            000000000000000                              000                           
0010001300081T 090180230000001544772 29577050014401274   7               18012017000000000007500001000213                         0900000000000000000000000000000000000000000000000000000   000000000000000000000010009        170192957705     
0010001300082U 090000000000000000000000000000000000000000000000000000000000000000000000000000000000000000000000000000000000000000000000001804201700000000            000000000000000                              000                           
0010001300083T 090180230000001544772 29577050014529921   788888888888889918012017000000000007500001004782888888888888899          0900000000000000000000000000000000000000000000000000000   000000000000000000000010009        170192957705     
0010001300084U 090000000000000000000000000000000000000000000000000000000000000000000000000000000000000000000000000000000000000000000000001804201700000000            000000000000000                              000                           
0010001300085T 090180230000001544772 29577050014858648   788888888888889918012017000000000007500001000213888888888888899          0900000000000000000000000000000000000000000000000000000   000000000000000000000010009        170192957705     
0010001300086U 090000000000000000000000000000000000000000000000000000000000000000000000000000000000000000000000000000000000000000000000001804201700000000            000000000000000                              000                           
0010001300087T 090180230000001544772 29577050014920598   78888888888888991801201700000000000750000103049X888888888888899          0900000000000000000000000000000000000000000000000000000   000000000000000000000010009        170192957705     
0010001300088U 090000000000000000000000000000000000000000000000000000000000000000000000000000000000000000000000000000000000000000000000001804201700000000            000000000000000                              000                           
0010001300089T 090180230000001544772 29577050015053658   788888888888889918012017000000000007500001012416888888888888899          0900000000000000000000000000000000000000000000000000000   000000000000000000000010009        170192957705     
0010001300090U 090000000000000000000000000000000000000000000000000000000000000000000000000000000000000000000000000000000000000000000000001804201700000000            000000000000000                              000                           
0010001300091T 090180230000001544772 29577050015117540   788888888888889918012017000000000007500001012408888888888888899          0900000000000000000000000000000000000000000000000000000   000000000000000000000010009        170192957705     
0010001300092U 090000000000000000000000000000000000000000000000000000000000000000000000000000000000000000000000000000000000000000000000001804201700000000            000000000000000                              000                           
0010001300093T 090180230000001544772 29577050015617438   788888888888889918012017000000000007500001012416888888888888899          0900000000000000000000000000000000000000000000000000000   000000000000000000000010009        170192957705     
0010001300094U 090000000000000000000000000000000000000000000000000000000000000000000000000000000000000000000000000000000000000000000000001804201700000000            000000000000000                              000                           
0010001300095T 090180230000001544772 29577050015851022   78888888888888991801201700000000000750000103049X888888888888899          0900000000000000000000000000000000000000000000000000000   000000000000000000000010009        170192957705     
0010001300096U 090000000000000000000000000000000000000000000000000000000000000000000000000000000000000000000000000000000000000000000000001804201700000000            000000000000000                              000                           
0010001300097T 090180230000001544772 29577050016223951   788888888888889918012017000000000007500001030864888888888888899          0900000000000000000000000000000000000000000000000000000   000000000000000000000010009        170192957705     
0010001300098U 090000000000000000000000000000000000000000000000000000000000000000000000000000000000000000000000000000000000000000000000001804201700000000            000000000000000                              000                           
0010001300099T 090180230000001544772 29577050017115646   788888888888889918012017000000000007500001012408888888888888899          0900000000000000000000000000000000000000000000000000000   000000000000000000000010009        170192957705     
0010001300100U 090000000000000000000000000000000000000000000000000000000000000000000000000000000000000000000000000000000000000000000000001804201700000000            000000000000000                              000                           
0010001300101T 090180230000001544772 29577050017334724   788888888888889918012017000000000007500001009245888888888888899          0900000000000000000000000000000000000000000000000000000   000000000000000000000010009        170192957705     
0010001300102U 090000000000000000000000000000000000000000000000000000000000000000000000000000000000000000000000000000000000000000000000001804201700000000            000000000000000                              000                           
0010001300103T 090180230000001544772 29577050017521440   788888888888889918012017000000000007500001012408888888888888899          0900000000000000000000000000000000000000000000000000000   000000000000000000000010009        170192957705     
0010001300104U 090000000000000000000000000000000000000000000000000000000000000000000000000000000000000000000000000000000000000000000000001804201700000000            000000000000000                              000                           
0010001300105T 090180230000001544772 29577050017716640   788888888888889918012017000000000007500001000213888888888888899          0900000000000000000000000000000000000000000000000000000   000000000000000000000010009        170192957705     
0010001300106U 090000000000000000000000000000000000000000000000000000000000000000000000000000000000000000000000000000000000000000000000001804201700000000            000000000000000                              000                           
0010001300107T 090180230000001544772 29577050017910190   788888888888889918012017000000000007500001012416888888888888899          0900000000000000000000000000000000000000000000000000000   000000000000000000000010009        170192957705     
0010001300108U 090000000000000000000000000000000000000000000000000000000000000000000000000000000000000000000000000000000000000000000000001804201700000000            000000000000000                              000                           
0010001300109T 090180230000001544772 29577050018046281   78888888888888991801201700000000000750000103049X888888888888899          0900000000000000000000000000000000000000000000000000000   000000000000000000000010009        170192957705     
0010001300110U 090000000000000000000000000000000000000000000000000000000000000000000000000000000000000000000000000000000000000000000000001804201700000000            000000000000000                              000                           
0010001300111T 090180230000001544772 29577050018111959   788888888888889918012017000000000007500001009245888888888888899          0900000000000000000000000000000000000000000000000000000   000000000000000000000010009        170192957705     
0010001300112U 090000000000000000000000000000000000000000000000000000000000000000000000000000000000000000000000000000000000000000000000001804201700000000            000000000000000                              000                           
0010001300113T 090180230000001544772 29577050018130301   788888888888889918012017000000000007500001009245888888888888899          0900000000000000000000000000000000000000000000000000000   000000000000000000000010009        170192957705     
0010001300114U 090000000000000000000000000000000000000000000000000000000000000000000000000000000000000000000000000000000000000000000000001804201700000000            000000000000000                              000                           
0010001300115T 090180230000001544772 29577050018404126   788888888888889918012017000000000007500001000213888888888888899          0900000000000000000000000000000000000000000000000000000   000000000000000000000010009        170192957705     
0010001300116U 090000000000000000000000000000000000000000000000000000000000000000000000000000000000000000000000000000000000000000000000001804201700000000            000000000000000                              000                           
0010001300117T 090180230000001544772 29577050018748848   788888888888889918012017000000000007500001012408888888888888899          0900000000000000000000000000000000000000000000000000000   000000000000000000000010009        170192957705     
0010001300118U 090000000000000000000000000000000000000000000000000000000000000000000000000000000000000000000000000000000000000000000000001804201700000000            000000000000000                              000                           
0010001300119T 090180230000001544772 29577050022250462   7               18012017000000000007500001000213                         0900000000000000000000000000000000000000000000000000000   000000000000000000000010009        170192957705     
0010001300120U 090000000000000000000000000000000000000000000000000000000000000000000000000000000000000000000000000000000000000000000000001804201700000000            000000000000000                              000                           
0010001300121T 090180230000001544772 29577050027645387   78888888888888991801201700000000000750000103049X888888888888899          0900000000000000000000000000000000000000000000000000000   000000000000000000000010009        170192957705     
0010001300122U 090000000000000000000000000000000000000000000000000000000000000000000000000000000000000000000000000000000000000000000000001804201700000000            000000000000000                              000                           
0010001300123T 090180230000001544772 29577050041951418   788888888888889918012017000000000010000001000213888888888888899          0900000000000000000000000000000000000000000000000000000   000000000000000000000010009        170192957705     
0010001300124U 090000000000000000000000000000000000000000000000000000000000000000000000000000000000000000000000000000000000000000000000001804201700000000            000000000000000                              000                           
0010001300125T 090180230000001544772 29577050050701670   7               18012017000000000007500001012408                         0900000000000000000000000000000000000000000000000000000   000000000000000000000010009        170192957705     
0010001300126U 090000000000000000000000000000000000000000000000000000000000000000000000000000000000000000000000000000000000000000000000001804201700000000            000000000000000                              000                           
0010001300127T 090180230000001544772 29577050054424780   788888888888889918012017000000000007500001002836888888888888899          0900000000000000000000000000000000000000000000000000000   000000000000000000000010009        170192957705     
0010001300128U 090000000000000000000000000000000000000000000000000000000000000000000000000000000000000000000000000000000000000000000000001804201700000000            000000000000000                              000                           
0010001300129T 090180230000001544772 29577050062224734   7               18012017000000000007500001000213                         0900000000000000000000000000000000000000000000000000000   000000000000000000000010009        170192957705     
0010001300130U 090000000000000000000000000000000000000000000000000000000000000000000000000000000000000000000000000000000000000000000000001804201700000000            000000000000000                              000                           
0010001300131T 090180230000001544772 29577050074945725   788888888888889918012017000000000007500001012408888888888888899          0900000000000000000000000000000000000000000000000000000   000000000000000000000010009        170192957705     
0010001300132U 090000000000000000000000000000000000000000000000000000000000000000000000000000000000000000000000000000000000000000000000001804201700000000            000000000000000                              000                           
0010001300133T 090180230000001544772 29577050116119665   78888888888888991801201700000000000750000103049X888888888888899          0900000000000000000000000000000000000000000000000000000   000000000000000000000010009        170192957705     
0010001300134U 090000000000000000000000000000000000000000000000000000000000000000000000000000000000000000000000000000000000000000000000001804201700000000            000000000000000                              000                           
0010001300135T 090180230000001544772 29577050129409468   788888888888889918012017000000000010000001012408888888888888899          0900000000000000000000000000000000000000000000000000000   000000000000000000000010009        170192957705     
0010001300136U 090000000000000000000000000000000000000000000000000000000000000000000000000000000000000000000000000000000000000000000000001804201700000000            000000000000000                              000                           
0010001300137T 090180230000001544772 29577050130756264   78888888888888991801201700000000000750000103049X888888888888899          0900000000000000000000000000000000000000000000000000000   000000000000000000000010009        170192957705     
0010001300138U 090000000000000000000000000000000000000000000000000000000000000000000000000000000000000000000000000000000000000000000000001804201700000000            000000000000000                              000                           
0010001300139T 090180230000001544772 29577050131017788   78888888888888991801201700000000000750000103049X888888888888899          0900000000000000000000000000000000000000000000000000000   000000000000000000000010009        170192957705     
0010001300140U 090000000000000000000000000000000000000000000000000000000000000000000000000000000000000000000000000000000000000000000000001804201700000000            000000000000000                              000                           
0010001300141T 090180230000001544772 29577050138348494   788888888888889918012017000000000007500001012416888888888888899          0900000000000000000000000000000000000000000000000000000   000000000000000000000010009        170192957705     
0010001300142U 090000000000000000000000000000000000000000000000000000000000000000000000000000000000000000000000000000000000000000000000001804201700000000            000000000000000                              000                           
0010001300143T 090180230000001544772 29577050150453411   78888888888888991801201700000000000750000100166X888888888888899          0900000000000000000000000000000000000000000000000000000   000000000000000000000010009        170192957705     
0010001300144U 090000000000000000000000000000000000000000000000000000000000000000000000000000000000000000000000000000000000000000000000001804201700000000            000000000000000                              000                           
0010001300145T 090180230000001544772 29577050151445977   788888888888889918012017000000000007500001046744888888888888899          0900000000000000000000000000000000000000000000000000000   000000000000000000000010009        170192957705     
0010001300146U 090000000000000000000000000000000000000000000000000000000000000000000000000000000000000000000000000000000000000000000000001804201700000000            000000000000000                              000                           
0010001300147T 090180230000001544772 29577050166514819   788888888888889918012017000000000007500001046280888888888888899          0900000000000000000000000000000000000000000000000000000   000000000000000000000010009        170192957705     
0010001300148U 090000000000000000000000000000000000000000000000000000000000000000000000000000000000000000000000000000000000000000000000001804201700000000            000000000000000                              000                           
0010001300149T 090180230000001544772 29577050174528281   788888888888889918012017000000000007500001000213888888888888899          0900000000000000000000000000000000000000000000000000000   000000000000000000000010009        170192957705     
0010001300150U 090000000000000000000000000000000000000000000000000000000000000000000000000000000000000000000000000000000000000000000000001804201700000000            000000000000000                              000                           
0010001300151T 090180230000001544772 29577050174530031   788888888888889918012017000000000007500001000213888888888888899          0900000000000000000000000000000000000000000000000000000   000000000000000000000010009        170192957705     
0010001300152U 090000000000000000000000000000000000000000000000000000000000000000000000000000000000000000000000000000000000000000000000001804201700000000            000000000000000                              000                           
0010001300153T 090180230000001544772 29577050174549847   788888888888889918012017000000000007500001000213888888888888899          0900000000000000000000000000000000000000000000000000000   000000000000000000000010009        170192957705     
0010001300154U 090000000000000000000000000000000000000000000000000000000000000000000000000000000000000000000000000000000000000000000000001804201700000000            000000000000000                              000                           
0010001300155T 090180230000001544772 29577050174552516   788888888888889918012017000000000007500001000213888888888888899          0900000000000000000000000000000000000000000000000000000   000000000000000000000010009        170192957705     
0010001300156U 090000000000000000000000000000000000000000000000000000000000000000000000000000000000000000000000000000000000000000000000001804201700000000            000000000000000                              000                           
0010001300157T 090180230000001544772 29577050188605728   788888888888889918012017000000000007500001012416888888888888899          0900000000000000000000000000000000000000000000000000000   000000000000000000000010009        170192957705     
0010001300158U 090000000000000000000000000000000000000000000000000000000000000000000000000000000000000000000000000000000000000000000000001804201700000000            000000000000000                              000                           
0010001300159T 090180230000001544772 29577050190951405   788888888888889918012017000000000007500001000833888888888888899          0900000000000000000000000000000000000000000000000000000   000000000000000000000010009        170192957705     
0010001300160U 090000000000000000000000000000000000000000000000000000000000000000000000000000000000000000000000000000000000000000000000001804201700000000            000000000000000                              000                           
0010001300161T 090180230000001544772 29577050201900111   788888888888889918012017000000000007500001012408888888888888899          0900000000000000000000000000000000000000000000000000000   000000000000000000000010009        170192957705     
0010001300162U 090000000000000000000000000000000000000000000000000000000000000000000000000000000000000000000000000000000000000000000000001804201700000000            000000000000000                              000                           
0010001300163T 090180230000001544772 29577050201940392   788888888888889918012017000000000007500001012408888888888888899          0900000000000000000000000000000000000000000000000000000   000000000000000000000010009        170192957705     
0010001300164U 090000000000000000000000000000000000000000000000000000000000000000000000000000000000000000000000000000000000000000000000001804201700000000            000000000000000                              000                           
0010001300165T 090180230000001544772 29577050207313839   78888888888888991801201700000000000750000103049X888888888888899          0900000000000000000000000000000000000000000000000000000   000000000000000000000010009        170192957705     
0010001300166U 090000000000000000000000000000000000000000000000000000000000000000000000000000000000000000000000000000000000000000000000001804201700000000            000000000000000                              000                           
0010001300167T 090180230000001544772 29577050214207424   788888888888889918012017000000000007500001012408888888888888899          0900000000000000000000000000000000000000000000000000000   000000000000000000000010009        170192957705     
0010001300168U 090000000000000000000000000000000000000000000000000000000000000000000000000000000000000000000000000000000000000000000000001804201700000000            000000000000000                              000                           
0010001300169T 090180230000001544772 29577050225018469   78888888888888991801201700000000000750000101981X888888888888899          0900000000000000000000000000000000000000000000000000000   000000000000000000000010009        170192957705     
0010001300170U 090000000000000000000000000000000000000000000000000000000000000000000000000000000000000000000000000000000000000000000000001804201700000000            000000000000000                              000                           
0010001300171T 090180230000001544772 29577050225432909   788888888888889918012017000000000010000001012416888888888888899          0900000000000000000000000000000000000000000000000000000   000000000000000000000010009        170192957705     
0010001300172U 090000000000000000000000000000000000000000000000000000000000000000000000000000000000000000000000000000000000000000000000001804201700000000            000000000000000                              000                           
0010001300173T 090180230000001544772 29577050226452645   788888888888889918012017000000000007500001000213888888888888899          0900000000000000000000000000000000000000000000000000000   000000000000000000000010009        170192957705     
0010001300174U 090000000000000000000000000000000000000000000000000000000000000000000000000000000000000000000000000000000000000000000000001804201700000000            000000000000000                              000                           
0010001300175T 090180230000001544772 29577050227612348   788888888888889918012017000000000007500001012408888888888888899          0900000000000000000000000000000000000000000000000000000   000000000000000000000010009        170192957705     
0010001300176U 090000000000000000000000000000000000000000000000000000000000000000000000000000000000000000000000000000000000000000000000001804201700000000            000000000000000                              000                           
0010001300177T 090180230000001544772 29577050228816903   788888888888889918012017000000000007500001012416888888888888899          0900000000000000000000000000000000000000000000000000000   000000000000000000000010009        170192957705     
0010001300178U 090000000000000000000000000000000000000000000000000000000000000000000000000000000000000000000000000000000000000000000000001804201700000000            000000000000000                              000                           
0010001300179T 090180230000001544772 29577050233507620   788888888888889918012017000000000007500001012416888888888888899          0900000000000000000000000000000000000000000000000000000   000000000000000000000010009        170192957705     
0010001300180U 090000000000000000000000000000000000000000000000000000000000000000000000000000000000000000000000000000000000000000000000001804201700000000            000000000000000                              000                           
0010001300181T 090180230000001544772 29577050234931351   788888888888889918012017000000000007500001030864888888888888899          0900000000000000000000000000000000000000000000000000000   000000000000000000000010009        170192957705     
0010001300182U 090000000000000000000000000000000000000000000000000000000000000000000000000000000000000000000000000000000000000000000000001804201700000000            000000000000000                              000                           
0010001300183T 090180230000001544772 29577050234931781   788888888888889918012017000000000007500001030864888888888888899          0900000000000000000000000000000000000000000000000000000   000000000000000000000010009        170192957705     
0010001300184U 090000000000000000000000000000000000000000000000000000000000000000000000000000000000000000000000000000000000000000000000001804201700000000            000000000000000                              000                           
0010001300185T 090180230000001544772 29577050234932451   788888888888889918012017000000000007500001030864888888888888899          0900000000000000000000000000000000000000000000000000000   000000000000000000000010009        170192957705     
0010001300186U 090000000000000000000000000000000000000000000000000000000000000000000000000000000000000000000000000000000000000000000000001804201700000000            000000000000000                              000                           
0010001300187T 090180230000001544772 29577050237108502   788888888888889918012017000000000007500001000213888888888888899          0900000000000000000000000000000000000000000000000000000   000000000000000000000010009        170192957705     
0010001300188U 090000000000000000000000000000000000000000000000000000000000000000000000000000000000000000000000000000000000000000000000001804201700000000            000000000000000                              000                           
0010001300189T 090180230000001544772 29577050237738761   788888888888889918012017000000000007500001001554888888888888899          0900000000000000000000000000000000000000000000000000000   000000000000000000000010009        170192957705     
0010001300190U 090000000000000000000000000000000000000000000000000000000000000000000000000000000000000000000000000000000000000000000000001804201700000000            000000000000000                              000                           
0010001300191T 090180230000001544772 29577050237758021   788888888888889918012017000000000007500001001554888888888888899          0900000000000000000000000000000000000000000000000000000   000000000000000000000010009        170192957705     
0010001300192U 090000000000000000000000000000000000000000000000000000000000000000000000000000000000000000000000000000000000000000000000001804201700000000            000000000000000                              000                           
0010001300193T 090180230000001544772 29577050238911939   78888888888888991801201700000000000750000103049X888888888888899          0900000000000000000000000000000000000000000000000000000   000000000000000000000010009        170192957705     
0010001300194U 090000000000000000000000000000000000000000000000000000000000000000000000000000000000000000000000000000000000000000000000001804201700000000            000000000000000                              000                           
0010001300195T 090180230000001544772 29577050242705707   788888888888889918012017000000000007500001009245888888888888899          0900000000000000000000000000000000000000000000000000000   000000000000000000000010009        170192957705     
0010001300196U 090000000000000000000000000000000000000000000000000000000000000000000000000000000000000000000000000000000000000000000000001804201700000000            000000000000000                              000                           
0010001300197T 090180230000001544772 29577050242740414   788888888888889918012017000000000007500001009245888888888888899          0900000000000000000000000000000000000000000000000000000   000000000000000000000010009        170192957705     
0010001300198U 090000000000000000000000000000000000000000000000000000000000000000000000000000000000000000000000000000000000000000000000001804201700000000            000000000000000                              000                           
0010001300199T 090180230000001544772 29577050242757968   788888888888889918012017000000000007500001009245888888888888899          0900000000000000000000000000000000000000000000000000000   000000000000000000000010009        170192957705     
0010001300200U 090000000000000000000000000000000000000000000000000000000000000000000000000000000000000000000000000000000000000000000000001804201700000000            000000000000000                              000                           
0010001300201T 090180230000001544772 29577050247924915   788888888888889918012017000000000010000001007617888888888888899          0900000000000000000000000000000000000000000000000000000   000000000000000000000010009        170192957705     
0010001300202U 090000000000000000000000000000000000000000000000000000000000000000000000000000000000000000000000000000000000000000000000001804201700000000            000000000000000                              000                           
0010001300203T 090180230000001544772 29577050248038553   788888888888889918012017000000000007500001012408888888888888899          0900000000000000000000000000000000000000000000000000000   000000000000000000000010009        170192957705     
0010001300204U 090000000000000000000000000000000000000000000000000000000000000000000000000000000000000000000000000000000000000000000000001804201700000000            000000000000000                              000                           
0010001300205T 090180230000001544772 29577050248038779   788888888888889918012017000000000007500001012408888888888888899          0900000000000000000000000000000000000000000000000000000   000000000000000000000010009        170192957705     
0010001300206U 090000000000000000000000000000000000000000000000000000000000000000000000000000000000000000000000000000000000000000000000001804201700000000            000000000000000                              000                           
0010001300207T 090180230000001544772 29577050248129461   788888888888889918012017000000000007500001000213888888888888899          0900000000000000000000000000000000000000000000000000000   000000000000000000000010009        170192957705     
0010001300208U 090000000000000000000000000000000000000000000000000000000000000000000000000000000000000000000000000000000000000000000000001804201700000000            000000000000000                              000                           
0010001300209T 090180230000001544772 29577050248353734   788888888888889918012017000000000007500001002224888888888888899          0900000000000000000000000000000000000000000000000000000   000000000000000000000010009        170192957705     
0010001300210U 090000000000000000000000000000000000000000000000000000000000000000000000000000000000000000000000000000000000000000000000001804201700000000            000000000000000                              000                           
0010001300211T 090180230000001544772 29577050248441824   788888888888889918012017000000000007500001012416888888888888899          0900000000000000000000000000000000000000000000000000000   000000000000000000000010009        170192957705     
0010001300212U 090000000000000000000000000000000000000000000000000000000000000000000000000000000000000000000000000000000000000000000000001804201700000000            000000000000000                              000                           
0010001300213T 090180230000001544772 29577050248613907   788888888888889918012017000000000007500001012408888888888888899          0900000000000000000000000000000000000000000000000000000   000000000000000000000010009        170192957705     
0010001300214U 090000000000000000000000000000000000000000000000000000000000000000000000000000000000000000000000000000000000000000000000001804201700000000            000000000000000                              000                           
0010001300215T 090180230000001544772 29577050248951586   788888888888889918012017000000000007500001000213888888888888899          0900000000000000000000000000000000000000000000000000000   000000000000000000000010009        170192957705     
0010001300216U 090000000000000000000000000000000000000000000000000000000000000000000000000000000000000000000000000000000000000000000000001804201700000000            000000000000000                              000                           
0010001300217T 090180230000001544772 29577050249056336   788888888888889918012017000000000007500001012408888888888888899          0900000000000000000000000000000000000000000000000000000   000000000000000000000010009        170192957705     
0010001300218U 090000000000000000000000000000000000000000000000000000000000000000000000000000000000000000000000000000000000000000000000001804201700000000            000000000000000                              000                           
0010001300219T 090180230000001544772 29577050249056423   788888888888889918012017000000000007500001012408888888888888899          0900000000000000000000000000000000000000000000000000000   000000000000000000000010009        170192957705     
0010001300220U 090000000000000000000000000000000000000000000000000000000000000000000000000000000000000000000000000000000000000000000000001804201700000000            000000000000000                              000                           
0010001300221T 090180230000001544772 29577050249056552   788888888888889918012017000000000007500001012408888888888888899          0900000000000000000000000000000000000000000000000000000   000000000000000000000010009        170192957705     
0010001300222U 090000000000000000000000000000000000000000000000000000000000000000000000000000000000000000000000000000000000000000000000001804201700000000            000000000000000                              000                           
0010001300223T 090180230000001544772 29577050249105290   788888888888889918012017000000000010000001000213888888888888899          0900000000000000000000000000000000000000000000000000000   000000000000000000000010009        170192957705     
0010001300224U 090000000000000000000000000000000000000000000000000000000000000000000000000000000000000000000000000000000000000000000000001804201700000000            000000000000000                              000                           
0010001300225T 090180230000001544772 29577050249242464   788888888888889918012017000000000007500001012416888888888888899          0900000000000000000000000000000000000000000000000000000   000000000000000000000010009        170192957705     
0010001300226U 090000000000000000000000000000000000000000000000000000000000000000000000000000000000000000000000000000000000000000000000001804201700000000            000000000000000                              000                           
0010001300227T 090180230000001544772 29577050249338050   788888888888889918012017000000000007500001012408888888888888899          0900000000000000000000000000000000000000000000000000000   000000000000000000000010009        170192957705     
0010001300228U 090000000000000000000000000000000000000000000000000000000000000000000000000000000000000000000000000000000000000000000000001804201700000000            000000000000000                              000                           
0010001300229T 090180230000001544772 29577050249403817   788888888888889918012017000000000007500001012416888888888888899          0900000000000000000000000000000000000000000000000000000   000000000000000000000010009        170192957705     
0010001300230U 090000000000000000000000000000000000000000000000000000000000000000000000000000000000000000000000000000000000000000000000001804201700000000            000000000000000                              000                           
0010001300231T 090180230000001544772 29577050249717070   788888888888889918012017000000000007500001000833888888888888899          0900000000000000000000000000000000000000000000000000000   000000000000000000000010009        170192957705     
0010001300232U 090000000000000000000000000000000000000000000000000000000000000000000000000000000000000000000000000000000000000000000000001804201700000000            000000000000000                              000                           
0010001300233T 090180230000001544772 29577050249818660   788888888888889918012017000000000007500001012416888888888888899          0900000000000000000000000000000000000000000000000000000   000000000000000000000010009        170192957705     
0010001300234U 090000000000000000000000000000000000000000000000000000000000000000000000000000000000000000000000000000000000000000000000001804201700000000            000000000000000                              000                           
0010001300235T 090180230000001544772 29577050249955062   78888888888888991801201700000000000750000103049X888888888888899          0900000000000000000000000000000000000000000000000000000   000000000000000000000010009        170192957705     
0010001300236U 090000000000000000000000000000000000000000000000000000000000000000000000000000000000000000000000000000000000000000000000001804201700000000            000000000000000                              000                           
0010001300237T 090180230000001544772 29577050250057040   78888888888888991801201700000000000750000103696X888888888888899          0900000000000000000000000000000000000000000000000000000   000000000000000000000010009        170192957705     
0010001300238U 090000000000000000000000000000000000000000000000000000000000000000000000000000000000000000000000000000000000000000000000001804201700000000            000000000000000                              000                           
0010001300239T 090180230000001544772 29577050250135649   788888888888889918012017000000000007500001012408888888888888899          0900000000000000000000000000000000000000000000000000000   000000000000000000000010009        170192957705     
0010001300240U 090000000000000000000000000000000000000000000000000000000000000000000000000000000000000000000000000000000000000000000000001804201700000000            000000000000000                              000                           
0010001300241T 090180230000001544772 29577050250230482   788888888888889918012017000000000007500001000213888888888888899          0900000000000000000000000000000000000000000000000000000   000000000000000000000010009        170192957705     
0010001300242U 090000000000000000000000000000000000000000000000000000000000000000000000000000000000000000000000000000000000000000000000001804201700000000            000000000000000                              000                           
0010001300243T 090180230000001544772 29577050250325675   788888888888889918012017000000000007500001012408888888888888899          0900000000000000000000000000000000000000000000000000000   000000000000000000000010009        170192957705     
0010001300244U 090000000000000000000000000000000000000000000000000000000000000000000000000000000000000000000000000000000000000000000000001804201700000000            000000000000000                              000                           
0010001300245T 090180230000001544772 29577050250429795   78888888888888991801201700000000000750000103049X888888888888899          0900000000000000000000000000000000000000000000000000000   000000000000000000000010009        170192957705     
0010001300246U 090000000000000000000000000000000000000000000000000000000000000000000000000000000000000000000000000000000000000000000000001804201700000000            000000000000000                              000                           
0010001300247T 090180230000001544772 29577050250522190   788888888888889918012017000000000007500001000213888888888888899          0900000000000000000000000000000000000000000000000000000   000000000000000000000010009        170192957705     
0010001300248U 090000000000000000000000000000000000000000000000000000000000000000000000000000000000000000000000000000000000000000000000001804201700000000            000000000000000                              000                           
0010001300249T 090180230000001544772 29577050250642136   788888888888889918012017000000000007500001001554888888888888899          0900000000000000000000000000000000000000000000000000000   000000000000000000000010009        170192957705     
0010001300250U 090000000000000000000000000000000000000000000000000000000000000000000000000000000000000000000000000000000000000000000000001804201700000000            000000000000000                              000                           
0010001300251T 090180230000001544772 29577050250706343   78888888888888991801201700000000000750000103049X888888888888899          0900000000000000000000000000000000000000000000000000000   000000000000000000000010009        170192957705     
0010001300252U 090000000000000000000000000000000000000000000000000000000000000000000000000000000000000000000000000000000000000000000000001804201700000000            000000000000000                              000                           
0010001300253T 090180230000001544772 29577050250853108   788888888888889918012017000000000007500001001554888888888888899          0900000000000000000000000000000000000000000000000000000   000000000000000000000010009        170192957705     
0010001300254U 090000000000000000000000000000000000000000000000000000000000000000000000000000000000000000000000000000000000000000000000001804201700000000            000000000000000                              000                           
0010001300255T 090180230000001544772 29577050250908178   788888888888889918012017000000000007500001001554888888888888899          0900000000000000000000000000000000000000000000000000000   000000000000000000000010009        170192957705     
0010001300256U 090000000000000000000000000000000000000000000000000000000000000000000000000000000000000000000000000000000000000000000000001804201700000000            000000000000000                              000                           
0010001300257T 090180230000001544772 29577050251059439   788888888888889918012017000000000007500001012416888888888888899          0900000000000000000000000000000000000000000000000000000   000000000000000000000010009        170192957705     
0010001300258U 090000000000000000000000000000000000000000000000000000000000000000000000000000000000000000000000000000000000000000000000001804201700000000            000000000000000                              000                           
0010001300259T 090180230000001544772 29577050251248628   78888888888888991801201700000000000750000103049X888888888888899          0900000000000000000000000000000000000000000000000000000   000000000000000000000010009        170192957705     
0010001300260U 090000000000000000000000000000000000000000000000000000000000000000000000000000000000000000000000000000000000000000000000001804201700000000            000000000000000                              000                           
0010001300261T 090180230000001544772 29577050251317825   788888888888889918012017000000000007500001004782888888888888899          0900000000000000000000000000000000000000000000000000000   000000000000000000000010009        170192957705     
0010001300262U 090000000000000000000000000000000000000000000000000000000000000000000000000000000000000000000000000000000000000000000000001804201700000000            000000000000000                              000                           
0010001300263T 090180230000001544772 29577050251407050   788888888888889918012017000000000010000001012416888888888888899          0900000000000000000000000000000000000000000000000000000   000000000000000000000010009        170192957705     
0010001300264U 090000000000000000000000000000000000000000000000000000000000000000000000000000000000000000000000000000000000000000000000001804201700000000            000000000000000                              000                           
0010001300265T 090180230000001544772 29577050251530762   788888888888889918012017000000000007500001012408888888888888899          0900000000000000000000000000000000000000000000000000000   000000000000000000000010009        170192957705     
0010001300266U 090000000000000000000000000000000000000000000000000000000000000000000000000000000000000000000000000000000000000000000000001804201700000000            000000000000000                              000                           
0010001300267T 090180230000001544772 29577050251639676   788888888888889918012017000000000007500001012408888888888888899          0900000000000000000000000000000000000000000000000000000   000000000000000000000010009        170192957705     
0010001300268U 090000000000000000000000000000000000000000000000000000000000000000000000000000000000000000000000000000000000000000000000001804201700000000            000000000000000                              000                           
0010001300269T 090180230000001544772 29577050251926141   78888888888888991801201700000000000750000103049X888888888888899          0900000000000000000000000000000000000000000000000000000   000000000000000000000010009        170192957705     
0010001300270U 090000000000000000000000000000000000000000000000000000000000000000000000000000000000000000000000000000000000000000000000001804201700000000            000000000000000                              000                           
0010001300271T 090180230000001544772 29577050252019271   78888888888888991801201700000000000750000103049X888888888888899          0900000000000000000000000000000000000000000000000000000   000000000000000000000010009        170192957705     
0010001300272U 090000000000000000000000000000000000000000000000000000000000000000000000000000000000000000000000000000000000000000000000001804201700000000            000000000000000                              000                           
0010001300273T 090180230000001544772 29577050252146082   788888888888889918012017000000000010000001000213888888888888899          0900000000000000000000000000000000000000000000000000000   000000000000000000000010009        170192957705     
0010001300274U 090000000000000000000000000000000000000000000000000000000000000000000000000000000000000000000000000000000000000000000000001804201700000000            000000000000000                              000                           
0010001300275T 090180230000001544772 29577050252211070   78888888888888991801201700000000000750000103049X888888888888899          0900000000000000000000000000000000000000000000000000000   000000000000000000000010009        170192957705     
0010001300276U 090000000000000000000000000000000000000000000000000000000000000000000000000000000000000000000000000000000000000000000000001804201700000000            000000000000000                              000                           
0010001300277T 090180230000001544772 29577050252221404   78888888888888991801201700000000000750000103049X888888888888899          0900000000000000000000000000000000000000000000000000000   000000000000000000000010009        170192957705     
0010001300278U 090000000000000000000000000000000000000000000000000000000000000000000000000000000000000000000000000000000000000000000000001804201700000000            000000000000000                              000                           
0010001300279T 090180230000001544772 29577050252323247   788888888888889918012017000000000010000001003018888888888888899          0900000000000000000000000000000000000000000000000000000   000000000000000000000010009        170192957705     
0010001300280U 090000000000000000000000000000000000000000000000000000000000000000000000000000000000000000000000000000000000000000000000001804201700000000            000000000000000                              000                           
0010001300281T 090180230000001544772 29577050252406774   78888888888888991801201700000000000750000100829X888888888888899          0900000000000000000000000000000000000000000000000000000   000000000000000000000010009        170192957705     
0010001300282U 090000000000000000000000000000000000000000000000000000000000000000000000000000000000000000000000000000000000000000000000001804201700000000            000000000000000                              000                           
0010001300283T 090180230000001544772 29577050252534145   788888888888889918012017000000000007500001012408888888888888899          0900000000000000000000000000000000000000000000000000000   000000000000000000000010009        170192957705     
0010001300284U 090000000000000000000000000000000000000000000000000000000000000000000000000000000000000000000000000000000000000000000000001804201700000000            000000000000000                              000                           
0010001300285T 090180230000001544772 29577050252655358   788888888888889918012017000000000007500001012416888888888888899          0900000000000000000000000000000000000000000000000000000   000000000000000000000010009        170192957705     
0010001300286U 090000000000000000000000000000000000000000000000000000000000000000000000000000000000000000000000000000000000000000000000001804201700000000            000000000000000                              000                           
0010001300287T 090180230000001544772 29577050252804631   788888888888889918012017000000000007500001012408888888888888899          0900000000000000000000000000000000000000000000000000000   000000000000000000000010009        170192957705     
0010001300288U 090000000000000000000000000000000000000000000000000000000000000000000000000000000000000000000000000000000000000000000000001804201700000000            000000000000000                              000                           
0010001300289T 090180230000001544772 29577050253006227   788888888888889918012017000000000010000001000213888888888888899          0900000000000000000000000000000000000000000000000000000   000000000000000000000010009        170192957705     
0010001300290U 090000000000000000000000000000000000000000000000000000000000000000000000000000000000000000000000000000000000000000000000001804201700000000            000000000000000                              000                           
0010001300291T 090180230000001544772 29577050253231947   788888888888889918012017000000000007500001000213888888888888899          0900000000000000000000000000000000000000000000000000000   000000000000000000000010009        170192957705     
0010001300292U 090000000000000000000000000000000000000000000000000000000000000000000000000000000000000000000000000000000000000000000000001804201700000000            000000000000000                              000                           
0010001300293T 090180230000001544772 29577050253319344   788888888888889918012017000000000010000001001120888888888888899          0900000000000000000000000000000000000000000000000000000   000000000000000000000010009        170192957705     
0010001300294U 090000000000000000000000000000000000000000000000000000000000000000000000000000000000000000000000000000000000000000000000001804201700000000            000000000000000                              000                           
0010001300295T 090180230000001544772 29577050253420515   788888888888889918012017000000000007500001012416888888888888899          0900000000000000000000000000000000000000000000000000000   000000000000000000000010009        170192957705     
0010001300296U 090000000000000000000000000000000000000000000000000000000000000000000000000000000000000000000000000000000000000000000000001804201700000000            000000000000000                              000                           
0010001300297T 090180230000001544772 29577050253521606   788888888888889918012017000000000007500001028029888888888888899          0900000000000000000000000000000000000000000000000000000   000000000000000000000010009        170192957705     
0010001300298U 090000000000000000000000000000000000000000000000000000000000000000000000000000000000000000000000000000000000000000000000001804201700000000            000000000000000                              000                           
0010001300299T 090180230000001544772 29577050253542749   788888888888889918012017000000000007500001028029888888888888899          0900000000000000000000000000000000000000000000000000000   000000000000000000000010009        170192957705     
0010001300300U 090000000000000000000000000000000000000000000000000000000000000000000000000000000000000000000000000000000000000000000000001804201700000000            000000000000000                              000                           
0010001300301T 090180230000001544772 29577050253930955   788888888888889918012017000000000007500001012408888888888888899          0900000000000000000000000000000000000000000000000000000   000000000000000000000010009        170192957705     
0010001300302U 090000000000000000000000000000000000000000000000000000000000000000000000000000000000000000000000000000000000000000000000001804201700000000            000000000000000                              000                           
0010001300303T 090180230000001544772 29577050254031508   788888888888889918012017000000000007500001012416888888888888899          0900000000000000000000000000000000000000000000000000000   000000000000000000000010009        170192957705     
0010001300304U 090000000000000000000000000000000000000000000000000000000000000000000000000000000000000000000000000000000000000000000000001804201700000000            000000000000000                              000                           
0010001300305T 090180230000001544772 29577050254113821   78888888888888991801201700000000000750000103049X888888888888899          0900000000000000000000000000000000000000000000000000000   000000000000000000000010009        170192957705     
0010001300306U 090000000000000000000000000000000000000000000000000000000000000000000000000000000000000000000000000000000000000000000000001804201700000000            000000000000000                              000                           
0010001300307T 090180230000001544772 29577050254121801   78888888888888991801201700000000000750000103049X888888888888899          0900000000000000000000000000000000000000000000000000000   000000000000000000000010009        170192957705     
0010001300308U 090000000000000000000000000000000000000000000000000000000000000000000000000000000000000000000000000000000000000000000000001804201700000000            000000000000000                              000                           
0010001300309T 090180230000001544772 29577050254214564   788888888888889918012017000000000007500001012408888888888888899          0900000000000000000000000000000000000000000000000000000   000000000000000000000010009        170192957705     
0010001300310U 090000000000000000000000000000000000000000000000000000000000000000000000000000000000000000000000000000000000000000000000001804201700000000            000000000000000                              000                           
0010001300311T 090180230000001544772 29577050254310828   788888888888889918012017000000000007500001046744888888888888899          0900000000000000000000000000000000000000000000000000000   000000000000000000000010009        170192957705     
0010001300312U 090000000000000000000000000000000000000000000000000000000000000000000000000000000000000000000000000000000000000000000000001804201700000000            000000000000000                              000                           
0010001300313T 090180230000001544772 29577050254456966   788888888888889918012017000000000007500001000213888888888888899          0900000000000000000000000000000000000000000000000000000   000000000000000000000010009        170192957705     
0010001300314U 090000000000000000000000000000000000000000000000000000000000000000000000000000000000000000000000000000000000000000000000001804201700000000            000000000000000                              000                           
0010001300315T 090180230000001544772 29577050254542671   78888888888888991801201700000000000750000103049X888888888888899          0900000000000000000000000000000000000000000000000000000   000000000000000000000010009        170192957705     
0010001300316U 090000000000000000000000000000000000000000000000000000000000000000000000000000000000000000000000000000000000000000000000001804201700000000            000000000000000                              000                           
0010001300317T 090180230000001544772 29577050254646875   788888888888889918012017000000000007500001012408888888888888899          0900000000000000000000000000000000000000000000000000000   000000000000000000000010009        170192957705     
0010001300318U 090000000000000000000000000000000000000000000000000000000000000000000000000000000000000000000000000000000000000000000000001804201700000000            000000000000000                              000                           
0010001300319T 090180230000001544772 29577050254702452   788888888888889918012017000000000007500001012408888888888888899          0900000000000000000000000000000000000000000000000000000   000000000000000000000010009        170192957705     
0010001300320U 090000000000000000000000000000000000000000000000000000000000000000000000000000000000000000000000000000000000000000000000001804201700000000            000000000000000                              000                           
0010001300321T 090180230000001544772 29577050254709024   788888888888889918012017000000000007500001012408888888888888899          0900000000000000000000000000000000000000000000000000000   000000000000000000000010009        170192957705     
0010001300322U 090000000000000000000000000000000000000000000000000000000000000000000000000000000000000000000000000000000000000000000000001804201700000000            000000000000000                              000                           
0010001300323T 090180230000001544772 29577050254712182   788888888888889918012017000000000007500001012408888888888888899          0900000000000000000000000000000000000000000000000000000   000000000000000000000010009        170192957705     
0010001300324U 090000000000000000000000000000000000000000000000000000000000000000000000000000000000000000000000000000000000000000000000001804201700000000            000000000000000                              000                           
0010001300325T 090180230000001544772 29577050254718582   788888888888889918012017000000000007500001012408888888888888899          0900000000000000000000000000000000000000000000000000000   000000000000000000000010009        170192957705     
0010001300326U 090000000000000000000000000000000000000000000000000000000000000000000000000000000000000000000000000000000000000000000000001804201700000000            000000000000000                              000                           
0010001300327T 090180230000001544772 29577050254719947   788888888888889918012017000000000007500001012408888888888888899          0900000000000000000000000000000000000000000000000000000   000000000000000000000010009        170192957705     
0010001300328U 090000000000000000000000000000000000000000000000000000000000000000000000000000000000000000000000000000000000000000000000001804201700000000            000000000000000                              000                           
0010001300329T 090180230000001544772 29577050254822640   788888888888889918012017000000000007500001012408888888888888899          0900000000000000000000000000000000000000000000000000000   000000000000000000000010009        170192957705     
0010001300330U 090000000000000000000000000000000000000000000000000000000000000000000000000000000000000000000000000000000000000000000000001804201700000000            000000000000000                              000                           
0010001300331T 090180230000001544772 29577050254946672   788888888888889918012017000000000007500001000213888888888888899          0900000000000000000000000000000000000000000000000000000   000000000000000000000010009        170192957705     
0010001300332U 090000000000000000000000000000000000000000000000000000000000000000000000000000000000000000000000000000000000000000000000001804201700000000            000000000000000                              000                           
0010001300333T 090180230000001544772 29577050255107767   78888888888888991801201700000000000750000103049X888888888888899          0900000000000000000000000000000000000000000000000000000   000000000000000000000010009        170192957705     
0010001300334U 090000000000000000000000000000000000000000000000000000000000000000000000000000000000000000000000000000000000000000000000001804201700000000            000000000000000                              000                           
0010001300335T 090180230000001544772 29577050255220097   78888888888888991801201700000000000750000103049X888888888888899          0900000000000000000000000000000000000000000000000000000   000000000000000000000010009        170192957705     
0010001300336U 090000000000000000000000000000000000000000000000000000000000000000000000000000000000000000000000000000000000000000000000001804201700000000            000000000000000                              000                           
0010001300337T 090180230000001544772 29577050255329105   788888888888889918012017000000000007500001009245888888888888899          0900000000000000000000000000000000000000000000000000000   000000000000000000000010009        170192957705     
0010001300338U 090000000000000000000000000000000000000000000000000000000000000000000000000000000000000000000000000000000000000000000000001804201700000000            000000000000000                              000                           
0010001300339T 090180230000001544772 29577050255456401   788888888888889918012017000000000007500001012416888888888888899          0900000000000000000000000000000000000000000000000000000   000000000000000000000010009        170192957705     
0010001300340U 090000000000000000000000000000000000000000000000000000000000000000000000000000000000000000000000000000000000000000000000001804201700000000            000000000000000                              000                           
0010001300341T 090180230000001544772 29577050255554296   788888888888889918012017000000000007500001004782888888888888899          0900000000000000000000000000000000000000000000000000000   000000000000000000000010009        170192957705     
0010001300342U 090000000000000000000000000000000000000000000000000000000000000000000000000000000000000000000000000000000000000000000000001804201700000000            000000000000000                              000                           
0010001300343T 090180230000001544772 29577050255726316   78888888888888991801201700000000000750000104590X888888888888899          0900000000000000000000000000000000000000000000000000000   000000000000000000000010009        170192957705     
0010001300344U 090000000000000000000000000000000000000000000000000000000000000000000000000000000000000000000000000000000000000000000000001804201700000000            000000000000000                              000                           
0010001300345T 090180230000001544772 29577050255850575   78888888888888991801201700000000000750000104590X888888888888899          0900000000000000000000000000000000000000000000000000000   000000000000000000000010009        170192957705     
0010001300346U 090000000000000000000000000000000000000000000000000000000000000000000000000000000000000000000000000000000000000000000000001804201700000000            000000000000000                              000                           
0010001300347T 090180230000001544772 29577050255955435   788888888888889918012017000000000007500001003948888888888888899          0900000000000000000000000000000000000000000000000000000   000000000000000000000010009        170192957705     
0010001300348U 090000000000000000000000000000000000000000000000000000000000000000000000000000000000000000000000000000000000000000000000001804201700000000            000000000000000                              000                           
0010001300349T 090180230000001544772 29577050256012961   788888888888889918012017000000000007500001000213888888888888899          0900000000000000000000000000000000000000000000000000000   000000000000000000000010009        170192957705     
0010001300350U 090000000000000000000000000000000000000000000000000000000000000000000000000000000000000000000000000000000000000000000000001804201700000000            000000000000000                              000                           
0010001300351T 090180230000001544772 29577050256015262   788888888888889918012017000000000007500001000213888888888888899          0900000000000000000000000000000000000000000000000000000   000000000000000000000010009        170192957705     
0010001300352U 090000000000000000000000000000000000000000000000000000000000000000000000000000000000000000000000000000000000000000000000001804201700000000            000000000000000                              000                           
0010001300353T 090180230000001544772 29577050256138344   78888888888888991801201700000000000750000105996X888888888888899          0900000000000000000000000000000000000000000000000000000   000000000000000000000010009        170192957705     
0010001300354U 090000000000000000000000000000000000000000000000000000000000000000000000000000000000000000000000000000000000000000000000001804201700000000            000000000000000                              000                           
0010001300355T 090180230000001544772 29577050256250032   78888888888888991801201700000000000750000105996X888888888888899          0900000000000000000000000000000000000000000000000000000   000000000000000000000010009        170192957705     
0010001300356U 090000000000000000000000000000000000000000000000000000000000000000000000000000000000000000000000000000000000000000000000001804201700000000            000000000000000                              000                           
0010001300357T 090180230000001544772 29577050256343132   78888888888888991801201700000000000750000105996X888888888888899          0900000000000000000000000000000000000000000000000000000   000000000000000000000010009        170192957705     
0010001300358U 090000000000000000000000000000000000000000000000000000000000000000000000000000000000000000000000000000000000000000000000001804201700000000            000000000000000                              000                           
0010001300359T 090180230000001544772 29577050256439130   788888888888889918012017000000000007500001012416888888888888899          0900000000000000000000000000000000000000000000000000000   000000000000000000000010009        170192957705     
0010001300360U 090000000000000000000000000000000000000000000000000000000000000000000000000000000000000000000000000000000000000000000000001804201700000000            000000000000000                              000                           
0010001300361T 090180230000001544772 29577050256619925   788888888888889918012017000000000007500001032085888888888888899          0900000000000000000000000000000000000000000000000000000   000000000000000000000010009        170192957705     
0010001300362U 090000000000000000000000000000000000000000000000000000000000000000000000000000000000000000000000000000000000000000000000001804201700000000            000000000000000                              000                           
0010001300363T 090180230000001544772 29577050256728984   788888888888889918012017000000000007500001012408888888888888899          0900000000000000000000000000000000000000000000000000000   000000000000000000000010009        170192957705     
0010001300364U 090000000000000000000000000000000000000000000000000000000000000000000000000000000000000000000000000000000000000000000000001804201700000000            000000000000000                              000                           
0010001300365T 090180230000001544772 29577050256820080   788888888888889918012017000000000007500001000213888888888888899          0900000000000000000000000000000000000000000000000000000   000000000000000000000010009        170192957705     
0010001300366U 090000000000000000000000000000000000000000000000000000000000000000000000000000000000000000000000000000000000000000000000001804201700000000            000000000000000                              000                           
0010001300367T 090180230000001544772 29577050256944329   788888888888889918012017000000000007500001000213888888888888899          0900000000000000000000000000000000000000000000000000000   000000000000000000000010009        170192957705     
0010001300368U 090000000000000000000000000000000000000000000000000000000000000000000000000000000000000000000000000000000000000000000000001804201700000000            000000000000000                              000                           
0010001300369T 090180230000001544772 29577050257140899   788888888888889918012017000000000007500001000833888888888888899          0900000000000000000000000000000000000000000000000000000   000000000000000000000010009        170192957705     
0010001300370U 090000000000000000000000000000000000000000000000000000000000000000000000000000000000000000000000000000000000000000000000001804201700000000            000000000000000                              000                           
0010001300371T 090180230000001544772 29577050257234099   788888888888889918012017000000000007500001001120888888888888899          0900000000000000000000000000000000000000000000000000000   000000000000000000000010009        170192957705     
0010001300372U 090000000000000000000000000000000000000000000000000000000000000000000000000000000000000000000000000000000000000000000000001804201700000000            000000000000000                              000                           
0010001300373T 090180230000001544772 29577050257437975   788888888888889918012017000000000007500001012416888888888888899          0900000000000000000000000000000000000000000000000000000   000000000000000000000010009        170192957705     
0010001300374U 090000000000000000000000000000000000000000000000000000000000000000000000000000000000000000000000000000000000000000000000001804201700000000            000000000000000                              000                           
0010001300375T 090180230000001544772 29577050257620938   788888888888889918012017000000000007500001012408888888888888899          0900000000000000000000000000000000000000000000000000000   000000000000000000000010009        170192957705     
0010001300376U 090000000000000000000000000000000000000000000000000000000000000000000000000000000000000000000000000000000000000000000000001804201700000000            000000000000000                              000                           
0010001300377T 090180230000001544772 29577050257718558   788888888888889918012017000000000007500001012416888888888888899          0900000000000000000000000000000000000000000000000000000   000000000000000000000010009        170192957705     
0010001300378U 090000000000000000000000000000000000000000000000000000000000000000000000000000000000000000000000000000000000000000000000001804201700000000            000000000000000                              000                           
0010001300379T 090180230000001544772 29577050257929433   788888888888889918012017000000000007500001012408888888888888899          0900000000000000000000000000000000000000000000000000000   000000000000000000000010009        170192957705     
0010001300380U 090000000000000000000000000000000000000000000000000000000000000000000000000000000000000000000000000000000000000000000000001804201700000000            000000000000000                              000                           
0010001300381T 280180230000001544772 29577050000612621   788888888888889917022017000000000007500001000000888888888888899          0900000000000000000000000000000000000000000000000000000   000000000000000000000005002        170192957705     
0010001300382U 280000000000000000000000000000000000000000000000000000000000000000000000000000000000000000000000000000000000000000000000001804201700000000            000000000000000                              000                           
0010001300383T 280180230000001544772 29577050024054889   7               17022017000000000007500001000000                         0900000000000000000000000000000000000000000000000000000   000000000000000000000005002        170192957705     
0010001300384U 280000000000000000000000000000000000000000000000000000000000000000000000000000000000000000000000000000000000000000000000001804201700000000            000000000000000                              000                           
0010001300385T 280180230000001544772 29577050069352196   7               17022017000000000007500001000000                         0900000000000000000000000000000000000000000000000000000   000000000000000000000005002        170192957705     
0010001300386U 280000000000000000000000000000000000000000000000000000000000000000000000000000000000000000000000000000000000000000000000001804201700000000            000000000000000                              000                           
0010001300387T 280180230000001544772 29577050085858218   7               17022017000000000007500001000000                         0900000000000000000000000000000000000000000000000000000   000000000000000000000005002        170192957705     
0010001300388U 280000000000000000000000000000000000000000000000000000000000000000000000000000000000000000000000000000000000000000000000001804201700000000            000000000000000                              000                           
0010001300389T 280180230000001544772 29577050086934712   7               17022017000000000007500001000000                         0900000000000000000000000000000000000000000000000000000   000000000000000000000005002        170192957705     
0010001300390U 280000000000000000000000000000000000000000000000000000000000000000000000000000000000000000000000000000000000000000000000001804201700000000            000000000000000                              000                           
0010001300391T 280180230000001544772 29577050093204266   7               17022017000000000007500001000000                         0900000000000000000000000000000000000000000000000000000   000000000000000000000005002        170192957705     
0010001300392U 280000000000000000000000000000000000000000000000000000000000000000000000000000000000000000000000000000000000000000000000001804201700000000            000000000000000                              000                           
0010001300393T 280180230000001544772 29577050093218081   7               17022017000000000007500001000000                         0900000000000000000000000000000000000000000000000000000   000000000000000000000005002        170192957705     
0010001300394U 280000000000000000000000000000000000000000000000000000000000000000000000000000000000000000000000000000000000000000000000001804201700000000            000000000000000                              000                           
0010001300395T 280180230000001544772 29577050093228705   7               17022017000000000007500001000000                         0900000000000000000000000000000000000000000000000000000   000000000000000000000005002        170192957705     
0010001300396U 280000000000000000000000000000000000000000000000000000000000000000000000000000000000000000000000000000000000000000000000001804201700000000            000000000000000                              000                           
0010001300397T 280180230000001544772 29577050121332530   7               17022017000000000007500001000000                         0900000000000000000000000000000000000000000000000000000   000000000000000000000005002        170192957705     
0010001300398U 280000000000000000000000000000000000000000000000000000000000000000000000000000000000000000000000000000000000000000000000001804201700000000            000000000000000                              000                           
0010001300399T 280180230000001544772 29577050121358380   7               17022017000000000007500001000000                         0900000000000000000000000000000000000000000000000000000   000000000000000000000005002        170192957705     
0010001300400U 280000000000000000000000000000000000000000000000000000000000000000000000000000000000000000000000000000000000000000000000001804201700000000            000000000000000                              000                           
0010001300401T 280180230000001544772 29577050124426210   7               17022017000000000007500001000000                         0900000000000000000000000000000000000000000000000000000   000000000000000000000005002        170192957705     
0010001300402U 280000000000000000000000000000000000000000000000000000000000000000000000000000000000000000000000000000000000000000000000001804201700000000            000000000000000                              000                           
0010001300403T 280180230000001544772 29577050124452600   7               17022017000000000007500001000000                         0900000000000000000000000000000000000000000000000000000   000000000000000000000005002        170192957705     
0010001300404U 280000000000000000000000000000000000000000000000000000000000000000000000000000000000000000000000000000000000000000000000001804201700000000            000000000000000                              000                           
0010001300405T 280180230000001544772 29577050125002864   7               17022017000000000007500001000000                         0900000000000000000000000000000000000000000000000000000   000000000000000000000005002        170192957705     
0010001300406U 280000000000000000000000000000000000000000000000000000000000000000000000000000000000000000000000000000000000000000000000001804201700000000            000000000000000                              000                           
0010001300407T 280180230000001544772 29577050139213195   7               17022017000000000007500001000000                         0900000000000000000000000000000000000000000000000000000   000000000000000000000005002        170192957705     
0010001300408U 280000000000000000000000000000000000000000000000000000000000000000000000000000000000000000000000000000000000000000000000001804201700000000            000000000000000                              000                           
0010001300409T 280180230000001544772 29577050170720390   7               19032017000000000007500001000000                         0900000000000000000000000000000000000000000000000000000   000000000000000000000005002        170192957705     
0010001300410U 280000000000000000000000000000000000000000000000000000000000000000000000000000000000000000000000000000000000000000000000001804201700000000            000000000000000                              000                           
0010001300411T 280180230000001544772 29577050170819820   7               19032017000000000007500001000000                         0900000000000000000000000000000000000000000000000000000   000000000000000000000005002        170192957705     
0010001300412U 280000000000000000000000000000000000000000000000000000000000000000000000000000000000000000000000000000000000000000000000001804201700000000            000000000000000                              000                           
