00100000         2247745860001000029647040014       0180230000002544776 INSTITUTO DE SELECAO E TECNOLOBANCO DO BRASIL                         21502201701133700002603000000515122941PROCESSAMEN                                                 
00100011T0100020 20247745860001000029647040014       0180230000002544776 INSTITUTO DE SELECAO E TECNOLO                                                                                000000001502201700000000  000000000                      
0010001300001T 020180230000002544776 29647040523622631   7               17022017000000000006000001000361                         0900000000000010500000000000000000000000000000000000000   0000000000000000000000000A9A4      170192964704     
0010001300002U 020000000000000000000000000000000000000000000000000000000000000000000000000000000000000000000000000000000000000000000000001502201700000000            000000000000000                              000                           
0010001300003T 020180230000002544776 29647040523638414   7               17022017000000000006000001000361                         0900000000000010500000000000000000000000000000000000000   0000000000000000000000000A9A4      170192964704     
0010001300004U 020000000000000000000000000000000000000000000000000000000000000000000000000000000000000000000000000000000000000000000000001502201700000000            000000000000000                              000                           
0010001300005T 020180230000002544776 29647040525243055   7               17022017000000000006000001018376                         0900000000000010000000000000000000000000000000000000000   0000000000000000000000000A9        170192964704     
0010001300006U 020000000000000000000000000000000000000000000000000000000000000000000000000000000000000000000000000000000000000000000000001502201700000000            000000000000000                              000                           
0010001300007T 020180230000002544776 29647040526944474   7               17022017000000000006000001035041                         0900000000000010000000000000000000000000000000000000000   0000000000000000000000000A9        170192964704     
0010001300008U 020000000000000000000000000000000000000000000000000000000000000000000000000000000000000000000000000000000000000000000000001502201700000000            000000000000000                              000                           
0010001300009T 020180230000002544776 29647040529122919   7               17022017000000000006000001012688                         0900000000000010000000000000000000000000000000000000000   0000000000000000000000000A9        170192964704     
0010001300010U 020000000000000000000000000000000000000000000000000000000000000000000000000000000000000000000000000000000000000000000000001502201700000000            000000000000000                              000                           
0010001300011T 020180230000002544776 29647040529134328   7               17022017000000000006000001012688                         0900000000000010000000000000000000000000000000000000000   0000000000000000000000000A9        170192964704     
0010001300012U 020000000000000000000000000000000000000000000000000000000000000000000000000000000000000000000000000000000000000000000000001502201700000000            000000000000000                              000                           
0010001300013T 020180230000002544776 29647040534158873   7               17022017000000000006000001033316                         0900000000000010000000000000000000000000000000000000000   0000000000000000000000000A9        170192964704     
0010001300014U 020000000000000000000000000000000000000000000000000000000000000000000000000000000000000000000000000000000000000000000000001502201700000000            000000000000000                              000                           
0010001300015T 020180230000002544776 29647040535029669   7               17022017000000000006000001008214                         0900000000000010500000000000000000000000000000000000000   0000000000000000000000000A9A4      170192964704     
0010001300016U 020000000000000000000000000000000000000000000000000000000000000000000000000000000000000000000000000000000000000000000000001502201700000000            000000000000000                              000                           
0010001300017T 020180230000002544776 29647040537414997   7               17022017000000000006000001012467                         0900000000000010000000000000000000000000000000000000000   0000000000000000000000000A9        170192964704     
0010001300018U 020000000000000000000000000000000000000000000000000000000000000000000000000000000000000000000000000000000000000000000000001502201700000000            000000000000000                              000                           
0010001300019T 020180230000002544776 29647040537419377   7               17022017000000000006000001012467                         0900000000000010000000000000000000000000000000000000000   0000000000000000000000000A9        170192964704     
0010001300020U 020000000000000000000000000000000000000000000000000000000000000000000000000000000000000000000000000000000000000000000000001502201700000000            000000000000000                              000                           
0010001300021T 020180230000002544776 29647040537458426   7               17022017000000000006000001012467                         0900000000000010000000000000000000000000000000000000000   0000000000000000000000000A9        170192964704     
0010001300022U 020000000000000000000000000000000000000000000000000000000000000000000000000000000000000000000000000000000000000000000000001502201700000000            000000000000000                              000                           
0010001300023T 020180230000002544776 29647040540640822   7               17022017000000000008000001034770                         0900000000000010000000000000000000000000000000000000000   0000000000000000000000000A9        170192964704     
0010001300024U 020000000000000000000000000000000000000000000000000000000000000000000000000000000000000000000000000000000000000000000000001502201700000000            000000000000000                              000                           
0010001300025T 020180230000002544776 29647040541354815   78888888888888991702201700000000000600000102466X888888888888899          0900000000000010000000000000000000000000000000000000000   0000000000000000000000000A9        170192964704     
0010001300026U 020000000000000000000000000000000000000000000000000000000000000000000000000000000000000000000000000000000000000000000000001502201700000000            000000000000000                              000                           
0010001300027T 020180230000002544776 29647040541742888   788888888888889917022017000000000006000001008214888888888888899          0900000000000010000000000000000000000000000000000000000   0000000000000000000000000A9        170192964704     
0010001300028U 020000000000000000000000000000000000000000000000000000000000000000000000000000000000000000000000000000000000000000000000001502201700000000            000000000000000                              000                           
0010001300029T 020180230000002544776 29647040541859742   788888888888889917022017000000000006000001028029888888888888899          0900000000000010500000000000000000000000000000000000000   0000000000000000000000000A9A4      170192964704     
0010001300030U 020000000000000000000000000000000000000000000000000000000000000000000000000000000000000000000000000000000000000000000000001502201700000000            000000000000000                              000                           
0010001300031T 020180230000002544776 29647040541939309   788888888888889917022017000000000006000001011533888888888888899          0900000000000010000000000000000000000000000000000000000   0000000000000000000000000A9        170192964704     
0010001300032U 020000000000000000000000000000000000000000000000000000000000000000000000000000000000000000000000000000000000000000000000001502201700000000            000000000000000                              000                           
0010001300033T 020180230000002544776 29647040542133903   788888888888889917022017000000000006000001016179888888888888899          0900000000000010500000000000000000000000000000000000000   0000000000000000000000000A9A4      170192964704     
0010001300034U 020000000000000000000000000000000000000000000000000000000000000000000000000000000000000000000000000000000000000000000000001502201700000000            000000000000000                              000                           
0010001300035T 020180230000002544776 29647040542245070   788888888888889917022017000000000006000001000132888888888888899          0900000000000010000000000000000000000000000000000000000   0000000000000000000000000A9        170192964704     
0010001300036U 020000000000000000000000000000000000000000000000000000000000000000000000000000000000000000000000000000000000000000000000001502201700000000            000000000000000                              000                           
0010001300037T 020180230000002544776 29647040542306122   788888888888889917022017000000000006000001016179888888888888899          0900000000000010500000000000000000000000000000000000000   0000000000000000000000000A9A4      170192964704     
0010001300038U 020000000000000000000000000000000000000000000000000000000000000000000000000000000000000000000000000000000000000000000000001502201700000000            000000000000000                              000                           
0010001300039T 020180230000002544776 29647040542427212   788888888888889917022017000000000006000001009695888888888888899          0900000000000010000000000000000000000000000000000000000   0000000000000000000000000A9        170192964704     
0010001300040U 020000000000000000000000000000000000000000000000000000000000000000000000000000000000000000000000000000000000000000000000001502201700000000            000000000000000                              000                           
0010001300041T 020180230000002544776 29647040545549653   7               17022017000000000006000001000132                         0900000000000010000000000000000000000000000000000000000   0000000000000000000000000A9        170192964704     
0010001300042U 020000000000000000000000000000000000000000000000000000000000000000000000000000000000000000000000000000000000000000000000001502201700000000            000000000000000                              000                           
0010001300043T 020180230000002544776 29647040547935035   788888888888889917022017000000000006000001005347888888888888899          0900000000000010000000000000000000000000000000000000000   0000000000000000000000000A9        170192964704     
0010001300044U 020000000000000000000000000000000000000000000000000000000000000000000000000000000000000000000000000000000000000000000000001502201700000000            000000000000000                              000                           
0010001300045T 020180230000002544776 29647040557148067   7               17022017000000000006000001033316                         0900000000000010000000000000000000000000000000000000000   0000000000000000000000000A9        170192964704     
0010001300046U 020000000000000000000000000000000000000000000000000000000000000000000000000000000000000000000000000000000000000000000000001502201700000000            000000000000000                              000                           
0010001300047T 020180230000002544776 29647040558830806   7               17022017000000000006000001000132                         0900000000000010500000000000000000000000000000000000000   0000000000000000000000000A9A4      170192964704     
0010001300048U 020000000000000000000000000000000000000000000000000000000000000000000000000000000000000000000000000000000000000000000000001502201700000000            000000000000000                              000                           
0010001300049T 020180230000002544776 29647040568555824   788888888888889917022017000000000008000001010545888888888888899          0900000000000010000000000000000000000000000000000000000   0000000000000000000000000A9        170192964704     
0010001300050U 020000000000000000000000000000000000000000000000000000000000000000000000000000000000000000000000000000000000000000000000001502201700000000            000000000000000                              000                           
0010001300051T 020180230000002544776 29647040571634787   7               17022017000000000006000001016179                         0900000000000010000000000000000000000000000000000000000   0000000000000000000000000A9        170192964704     
0010001300052U 020000000000000000000000000000000000000000000000000000000000000000000000000000000000000000000000000000000000000000000000001502201700000000            000000000000000                              000                           
0010001300053T 020180230000002544776 29647040574948091   788888888888889917022017000000000006000001010545888888888888899          0900000000000010000000000000000000000000000000000000000   0000000000000000000000000A9        170192964704     
0010001300054U 020000000000000000000000000000000000000000000000000000000000000000000000000000000000000000000000000000000000000000000000001502201700000000            000000000000000                              000                           
0010001300055T 020180230000002544776 29647040580300427   7               17022017000000000006000001025429                         0900000000000010000000000000000000000000000000000000000   0000000000000000000000000A9        170192964704     
0010001300056U 020000000000000000000000000000000000000000000000000000000000000000000000000000000000000000000000000000000000000000000000001502201700000000            000000000000000                              000                           
0010001300057T 020180230000002544776 29647040580932830   7               17022017000000000006000001000132                         0900000000000010000000000000000000000000000000000000000   0000000000000000000000000A9        170192964704     
0010001300058U 020000000000000000000000000000000000000000000000000000000000000000000000000000000000000000000000000000000000000000000000001502201700000000            000000000000000                              000                           
0010001300059T 020180230000002544776 29647040587342986   788888888888889917022017000000000006000001007595888888888888899          0900000000000010000000000000000000000000000000000000000   0000000000000000000000000A9        170192964704     
0010001300060U 020000000000000000000000000000000000000000000000000000000000000000000000000000000000000000000000000000000000000000000000001502201700000000            000000000000000                              000                           
0010001300061T 020180230000002544776 29647040592853625   788888888888889917022017000000000006000001007595888888888888899          0900000000000010000000000000000000000000000000000000000   0000000000000000000000000A9        170192964704     
0010001300062U 020000000000000000000000000000000000000000000000000000000000000000000000000000000000000000000000000000000000000000000000001502201700000000            000000000000000                              000                           
0010001300063T 020180230000002544776 29647040595356156   7               17022017000000000006000001000132                         0900000000000010000000000000000000000000000000000000000   0000000000000000000000000A9        170192964704     
0010001300064U 020000000000000000000000000000000000000000000000000000000000000000000000000000000000000000000000000000000000000000000000001502201700000000            000000000000000                              000                           
0010001300065T 020180230000002544776 29647040598843929   7               17022017000000000008000001012467                         0900000000000010000000000000000000000000000000000000000   0000000000000000000000000A9        170192964704     
0010001300066U 020000000000000000000000000000000000000000000000000000000000000000000000000000000000000000000000000000000000000000000000001502201700000000            000000000000000                              000                           
0010001300067T 020180230000002544776 29647040599921584   7               17022017000000000006000001000132                         0900000000000010000000000000000000000000000000000000000   0000000000000000000000000A9        170192964704     
0010001300068U 020000000000000000000000000000000000000000000000000000000000000000000000000000000000000000000000000000000000000000000000001502201700000000            000000000000000                              000                           
0010001300069T 020180230000002544776 29647040606450521   78888888888888991702201700000000000800000100944X888888888888899          0900000000000010000000000000000000000000000000000000000   0000000000000000000000000A9        170192964704     
0010001300070U 020000000000000000000000000000000000000000000000000000000000000000000000000000000000000000000000000000000000000000000000001502201700000000            000000000000000                              000                           
0010001300071T 020180230000002544776 29647040607507269   7               17022017000000000006000001000132                         0900000000000010000000000000000000000000000000000000000   0000000000000000000000000A9        170192964704     
0010001300072U 020000000000000000000000000000000000000000000000000000000000000000000000000000000000000000000000000000000000000000000000001502201700000000            000000000000000                              000                           
0010001300073T 020180230000002544776 29647040607509556   7               17022017000000000006000001000132                         0900000000000010000000000000000000000000000000000000000   0000000000000000000000000A9        170192964704     
0010001300074U 020000000000000000000000000000000000000000000000000000000000000000000000000000000000000000000000000000000000000000000000001502201700000000            000000000000000                              000                           
0010001300075T 020180230000002544776 29647040607552151   7               17022017000000000006000001000132                         0900000000000010000000000000000000000000000000000000000   0000000000000000000000000A9        170192964704     
0010001300076U 020000000000000000000000000000000000000000000000000000000000000000000000000000000000000000000000000000000000000000000000001502201700000000            000000000000000                              000                           
0010001300077T 020180230000002544776 29647040613059546   7               1702201700000000000600000101284X                         0900000000000010000000000000000000000000000000000000000   0000000000000000000000000A9        170192964704     
0010001300078U 020000000000000000000000000000000000000000000000000000000000000000000000000000000000000000000000000000000000000000000000001502201700000000            000000000000000                              000                           
0010001300079T 020180230000002544776 29647040614026677   7               17022017000000000008000001000132                         0900000000000010000000000000000000000000000000000000000   0000000000000000000000000A9        170192964704     
0010001300080U 020000000000000000000000000000000000000000000000000000000000000000000000000000000000000000000000000000000000000000000000001502201700000000            000000000000000                              000                           
0010001300081T 020180230000002544776 29647040614051623   7               16022017000000000008000001000132                         0900000000000010000000000000000000000000000000000000000   0000000000000000000000000A9        170192964704     
0010001300082U 020000000000000000000000000000000000000000000000000000000000000000000000000000000000000000000000000000000000000000000000001402201700000000            000000000000000                              000                           
0010001300083T 020180230000002544776 29647040617218044   7               17022017000000000006000001010189                         0900000000000010000000000000000000000000000000000000000   0000000000000000000000000A9        170192964704     
0010001300084U 020000000000000000000000000000000000000000000000000000000000000000000000000000000000000000000000000000000000000000000000001502201700000000            000000000000000                              000                           
0010001300085T 020180230000002544776 29647040617904506   7               16022017000000000006000001000132                         0900000000000010000000000000000000000000000000000000000   0000000000000000000000000A9        170192964704     
0010001300086U 020000000000000000000000000000000000000000000000000000000000000000000000000000000000000000000000000000000000000000000000001402201700000000            000000000000000                              000                           
0010001300087T 020180230000002544776 29647040617906229   7               16022017000000000006000001000132                         0900000000000010000000000000000000000000000000000000000   0000000000000000000000000A9        170192964704     
0010001300088U 020000000000000000000000000000000000000000000000000000000000000000000000000000000000000000000000000000000000000000000000001402201700000000            000000000000000                              000                           
0010001300089T 020180230000002544776 29647040618033478   7               16022017000000000008000001009695                         0900000000000010000000000000000000000000000000000000000   0000000000000000000000000A9        170192964704     
0010001300090U 020000000000000000000000000000000000000000000000000000000000000000000000000000000000000000000000000000000000000000000000001402201700000000            000000000000000                              000                           
0010001300091T 020180230000002544776 29647040618148431   7               16022017000000000006000001018376                         0900000000000010000000000000000000000000000000000000000   0000000000000000000000000A9        170192964704     
0010001300092U 020000000000000000000000000000000000000000000000000000000000000000000000000000000000000000000000000000000000000000000000001402201700000000            000000000000000                              000                           
0010001300093T 020180230000002544776 29647040618241831   7               16022017000000000006000001013447                         0900000000000010500000000000000000000000000000000000000   0000000000000000000000000A9A4      170192964704     
0010001300094U 020000000000000000000000000000000000000000000000000000000000000000000000000000000000000000000000000000000000000000000000001402201700000000            000000000000000                              000                           
0010001300095T 020180230000002544776 29647040618521028   7               16022017000000000006000001000132                         0900000000000010000000000000000000000000000000000000000   0000000000000000000000000A9        170192964704     
0010001300096U 020000000000000000000000000000000000000000000000000000000000000000000000000000000000000000000000000000000000000000000000001402201700000000            000000000000000                              000                           
0010001300097T 020180230000002544776 29647040619117021   7               16022017000000000006000001016179                         0900000000000010000000000000000000000000000000000000000   0000000000000000000000000A9        170192964704     
0010001300098U 020000000000000000000000000000000000000000000000000000000000000000000000000000000000000000000000000000000000000000000000001402201700000000            000000000000000                              000                           
0010001300099T 020180230000002544776 29647040619236918   7               16022017000000000008000001033316                         0900000000000010000000000000000000000000000000000000000   0000000000000000000000000A9        170192964704     
0010001300100U 020000000000000000000000000000000000000000000000000000000000000000000000000000000000000000000000000000000000000000000000001402201700000000            000000000000000                              000                           
0010001300101T 020180230000002544776 29647040619310967   7               16022017000000000008000001028495                         0900000000000010000000000000000000000000000000000000000   0000000000000000000000000A9        170192964704     
0010001300102U 020000000000000000000000000000000000000000000000000000000000000000000000000000000000000000000000000000000000000000000000001402201700000000            000000000000000                              000                           
0010001300103T 020180230000002544776 29647040619501842   7               16022017000000000006000001012467                         0900000000000010000000000000000000000000000000000000000   0000000000000000000000000A9        170192964704     
0010001300104U 020000000000000000000000000000000000000000000000000000000000000000000000000000000000000000000000000000000000000000000000001402201700000000            000000000000000                              000                           
0010001300105T 020180230000002544776 29647040619636847   7               16022017000000000006000001002003                         0900000000000010000000000000000000000000000000000000000   0000000000000000000000000A9        170192964704     
0010001300106U 020000000000000000000000000000000000000000000000000000000000000000000000000000000000000000000000000000000000000000000000001402201700000000            000000000000000                              000                           
0010001300107T 020180230000002544776 29647040619728770   7               16022017000000000008000001028029                         0900000000000010000000000000000000000000000000000000000   0000000000000000000000000A9        170192964704     
0010001300108U 020000000000000000000000000000000000000000000000000000000000000000000000000000000000000000000000000000000000000000000000001402201700000000            000000000000000                              000                           
0010001300109T 020180230000002544776 29647040620000659   7               16022017000000000006000001028029                         0900000000000010000000000000000000000000000000000000000   0000000000000000000000000A9        170192964704     
0010001300110U 020000000000000000000000000000000000000000000000000000000000000000000000000000000000000000000000000000000000000000000000001402201700000000            000000000000000                              000                           
0010001300111T 020180230000002544776 29647040620036230   7               16022017000000000006000001028029                         0900000000000010000000000000000000000000000000000000000   0000000000000000000000000A9        170192964704     
0010001300112U 020000000000000000000000000000000000000000000000000000000000000000000000000000000000000000000000000000000000000000000000001402201700000000            000000000000000                              000                           
0010001300113T 020180230000002544776 29647040620144800   7               16022017000000000006000001016179                         0900000000000010000000000000000000000000000000000000000   0000000000000000000000000A9        170192964704     
0010001300114U 020000000000000000000000000000000000000000000000000000000000000000000000000000000000000000000000000000000000000000000000001402201700000000            000000000000000                              000                           
0010001300115T 020180230000002544776 29647040620331659   7               16022017000000000008000001028029                         0900000000000010000000000000000000000000000000000000000   0000000000000000000000000A9        170192964704     
0010001300116U 020000000000000000000000000000000000000000000000000000000000000000000000000000000000000000000000000000000000000000000000001402201700000000            000000000000000                              000                           
0010001300117T 020180230000002544776 29647040620804780   7               17022017000000000006000001000132                         0900000000000010000000000000000000000000000000000000000   0000000000000000000000000A9        170192964704     
0010001300118U 020000000000000000000000000000000000000000000000000000000000000000000000000000000000000000000000000000000000000000000000001502201700000000            000000000000000                              000                           
0010001300119T 020180230000002544776 29647040620805092   7               16022017000000000006000001000132                         0900000000000010000000000000000000000000000000000000000   0000000000000000000000000A9        170192964704     
0010001300120U 020000000000000000000000000000000000000000000000000000000000000000000000000000000000000000000000000000000000000000000000001402201700000000            000000000000000                              000                           
0010001300121T 020180230000002544776 29647040620813115   7               17022017000000000006000001000132                         0900000000000010000000000000000000000000000000000000000   0000000000000000000000000A9        170192964704     
0010001300122U 020000000000000000000000000000000000000000000000000000000000000000000000000000000000000000000000000000000000000000000000001502201700000000            000000000000000                              000                           
0010001300123T 020180230000002544776 29647040620815258   7               17022017000000000006000001000132                         0900000000000010000000000000000000000000000000000000000   0000000000000000000000000A9        170192964704     
0010001300124U 020000000000000000000000000000000000000000000000000000000000000000000000000000000000000000000000000000000000000000000000001502201700000000            000000000000000                              000                           
0010001300125T 020180230000002544776 29647040620921734   7               16022017000000000006000001016179                         0900000000000010000000000000000000000000000000000000000   0000000000000000000000000A9        170192964704     
0010001300126U 020000000000000000000000000000000000000000000000000000000000000000000000000000000000000000000000000000000000000000000000001402201700000000            000000000000000                              000                           
0010001300127T 020180230000002544776 29647040621446966   7               16022017000000000006000001016179                         0900000000000010000000000000000000000000000000000000000   0000000000000000000000000A9        170192964704     
0010001300128U 020000000000000000000000000000000000000000000000000000000000000000000000000000000000000000000000000000000000000000000000001402201700000000            000000000000000                              000                           
0010001300129T 020180230000002544776 29647040621958859   7               16022017000000000008000001012467                         0900000000000010000000000000000000000000000000000000000   0000000000000000000000000A9        170192964704     
0010001300130U 020000000000000000000000000000000000000000000000000000000000000000000000000000000000000000000000000000000000000000000000001402201700000000            000000000000000                              000                           
0010001300131T 020180230000002544776 29647040622049498   7               16022017000000000008000001016179                         0900000000000010500000000000000000000000000000000000000   0000000000000000000000000A9A4      170192964704     
0010001300132U 020000000000000000000000000000000000000000000000000000000000000000000000000000000000000000000000000000000000000000000000001402201700000000            000000000000000                              000                           
0010001300133T 020180230000002544776 29647040622133437   7               16022017000000000006000001000132                         0900000000000010000000000000000000000000000000000000000   0000000000000000000000000A9        170192964704     
0010001300134U 020000000000000000000000000000000000000000000000000000000000000000000000000000000000000000000000000000000000000000000000001402201700000000            000000000000000                              000                           
0010001300135T 020180230000002544776 29647040622249913   7               16022017000000000008000001000132                         0900000000000010000000000000000000000000000000000000000   0000000000000000000000000A9        170192964704     
0010001300136U 020000000000000000000000000000000000000000000000000000000000000000000000000000000000000000000000000000000000000000000000001402201700000000            000000000000000                              000                           
0010001300137T 020180230000002544776 29647040622334389   7               16022017000000000006000001000132                         0900000000000010000000000000000000000000000000000000000   0000000000000000000000000A9        170192964704     
0010001300138U 020000000000000000000000000000000000000000000000000000000000000000000000000000000000000000000000000000000000000000000000001402201700000000            000000000000000                              000                           
0010001300139T 020180230000002544776 29647040622517355   7               16022017000000000006000001005827                         0900000000000010000000000000000000000000000000000000000   0000000000000000000000000A9        170192964704     
0010001300140U 020000000000000000000000000000000000000000000000000000000000000000000000000000000000000000000000000000000000000000000000001402201700000000            000000000000000                              000                           
0010001300141T 020180230000002544776 29647040622532013   7               16022017000000000006000001005827                         0900000000000010000000000000000000000000000000000000000   0000000000000000000000000A9        170192964704     
0010001300142U 020000000000000000000000000000000000000000000000000000000000000000000000000000000000000000000000000000000000000000000000001402201700000000            000000000000000                              000                           
0010001300143T 020180230000002544776 29647040622534450   7               16022017000000000006000001005827                         0900000000000010000000000000000000000000000000000000000   0000000000000000000000000A9        170192964704     
0010001300144U 020000000000000000000000000000000000000000000000000000000000000000000000000000000000000000000000000000000000000000000000001402201700000000            000000000000000                              000                           
0010001300145T 020180230000002544776 29647040622539811   7               16022017000000000006000001005827                         0900000000000010000000000000000000000000000000000000000   0000000000000000000000000A9        170192964704     
0010001300146U 020000000000000000000000000000000000000000000000000000000000000000000000000000000000000000000000000000000000000000000000001402201700000000            000000000000000                              000                           
0010001300147T 020180230000002544776 29647040622557457   7               16022017000000000006000001005827                         0900000000000010000000000000000000000000000000000000000   0000000000000000000000000A9        170192964704     
0010001300148U 020000000000000000000000000000000000000000000000000000000000000000000000000000000000000000000000000000000000000000000000001502201700000000            000000000000000                              000                           
0010001300149T 020180230000002544776 29647040623010192   7               16022017000000000008000001016179                         0900000000000010500000000000000000000000000000000000000   0000000000000000000000000A9A4      170192964704     
0010001300150U 020000000000000000000000000000000000000000000000000000000000000000000000000000000000000000000000000000000000000000000000001402201700000000            000000000000000                              000                           
0010001300151T 020180230000002544776 29647040623015153   7               16022017000000000008000001016179                         0900000000000010500000000000000000000000000000000000000   0000000000000000000000000A9A4      170192964704     
0010001300152U 020000000000000000000000000000000000000000000000000000000000000000000000000000000000000000000000000000000000000000000000001402201700000000            000000000000000                              000                           
0010001300153T 020180230000002544776 29647040623128321   7               16022017000000000006000001016179                         0900000000000010000000000000000000000000000000000000000   0000000000000000000000000A9        170192964704     
0010001300154U 020000000000000000000000000000000000000000000000000000000000000000000000000000000000000000000000000000000000000000000000001402201700000000            000000000000000                              000                           
0010001300155T 020180230000002544776 29647040623350573   7               16022017000000000006000001020354                         0900000000000010000000000000000000000000000000000000000   0000000000000000000000000A9        170192964704     
0010001300156U 020000000000000000000000000000000000000000000000000000000000000000000000000000000000000000000000000000000000000000000000001402201700000000            000000000000000                              000                           
0010001300157T 020180230000002544776 29647040623458651   7               16022017000000000006000001000132                         0900000000000010000000000000000000000000000000000000000   0000000000000000000000000A9        170192964704     
0010001300158U 020000000000000000000000000000000000000000000000000000000000000000000000000000000000000000000000000000000000000000000000001402201700000000            000000000000000                              000                           
0010001300159T 020180230000002544776 29647040623542877   7               16022017000000000006000001016179                         0900000000000010000000000000000000000000000000000000000   0000000000000000000000000A9        170192964704     
0010001300160U 020000000000000000000000000000000000000000000000000000000000000000000000000000000000000000000000000000000000000000000000001402201700000000            000000000000000                              000                           
0010001300161T 020180230000002544776 29647040623817258   7               16022017000000000006000001033316                         0900000000000010500000000000000000000000000000000000000   0000000000000000000000000A9A4      170192964704     
0010001300162U 020000000000000000000000000000000000000000000000000000000000000000000000000000000000000000000000000000000000000000000000001402201700000000            000000000000000                              000                           
0010001300163T 020180230000002544776 29647040623840118   7               17022017000000000006000001033316                         0900000000000010500000000000000000000000000000000000000   0000000000000000000000000A9A4      170192964704     
0010001300164U 020000000000000000000000000000000000000000000000000000000000000000000000000000000000000000000000000000000000000000000000001502201700000000            000000000000000                              000                           
0010001300165T 020180230000002544776 29647040623841141   7               16022017000000000006000001033316                         0900000000000010500000000000000000000000000000000000000   0000000000000000000000000A9A4      170192964704     
0010001300166U 020000000000000000000000000000000000000000000000000000000000000000000000000000000000000000000000000000000000000000000000001402201700000000            000000000000000                              000                           
0010001300167T 020180230000002544776 29647040624551402   7               17022017000000000006000001000132                         0900000000000010000000000000000000000000000000000000000   0000000000000000000000000A9        170192964704     
0010001300168U 020000000000000000000000000000000000000000000000000000000000000000000000000000000000000000000000000000000000000000000000001502201700000000            000000000000000                              000                           
0010001300169T 020180230000002544776 29647040624702429   7               17022017000000000006000001000132                         0900000000000010000000000000000000000000000000000000000   0000000000000000000000000A9        170192964704     
0010001300170U 020000000000000000000000000000000000000000000000000000000000000000000000000000000000000000000000000000000000000000000000001502201700000000            000000000000000                              000                           
0010001300171T 020180230000002544776 29647040624838898   7               17022017000000000008000001016179                         0900000000000010000000000000000000000000000000000000000   0000000000000000000000000A9        170192964704     
0010001300172U 020000000000000000000000000000000000000000000000000000000000000000000000000000000000000000000000000000000000000000000000001502201700000000            000000000000000                              000                           
0010001300173T 020180230000002544776 29647040625405388   7               17022017000000000006000001016179                         0900000000000010000000000000000000000000000000000000000   0000000000000000000000000A9        170192964704     
0010001300174U 020000000000000000000000000000000000000000000000000000000000000000000000000000000000000000000000000000000000000000000000001502201700000000            000000000000000                              000                           
0010001300175T 020180230000002544776 29647040625448404   7               17022017000000000006000001016179                         0900000000000010000000000000000000000000000000000000000   0000000000000000000000000A9        170192964704     
0010001300176U 020000000000000000000000000000000000000000000000000000000000000000000000000000000000000000000000000000000000000000000000001502201700000000            000000000000000                              000                           
0010001300177T 020180230000002544776 29647040625644274   7               17022017000000000008000001020354                         0900000000000010000000000000000000000000000000000000000   0000000000000000000000000A9        170192964704     
0010001300178U 020000000000000000000000000000000000000000000000000000000000000000000000000000000000000000000000000000000000000000000000001502201700000000            000000000000000                              000                           
0010001300179T 020180230000002544776 29647040625704779   7               17022017000000000006000001033316                         0900000000000010000000000000000000000000000000000000000   0000000000000000000000000A9        170192964704     
0010001300180U 020000000000000000000000000000000000000000000000000000000000000000000000000000000000000000000000000000000000000000000000001502201700000000            000000000000000                              000                           
0010001300181T 020180230000002544776 29647040625715392   7               17022017000000000006000001033316                         0900000000000010000000000000000000000000000000000000000   0000000000000000000000000A9        170192964704     
0010001300182U 020000000000000000000000000000000000000000000000000000000000000000000000000000000000000000000000000000000000000000000000001502201700000000            000000000000000                              000                           
0010001300183T 020180230000002544776 29647040625741267   7               17022017000000000006000001033316                         0900000000000010000000000000000000000000000000000000000   0000000000000000000000000A9        170192964704     
0010001300184U 020000000000000000000000000000000000000000000000000000000000000000000000000000000000000000000000000000000000000000000000001502201700000000            000000000000000                              000                           
0010001300185T 020180230000002544776 29647040625944639   7               17022017000000000006000001000132                         0900000000000010000000000000000000000000000000000000000   0000000000000000000000000A9        170192964704     
0010001300186U 020000000000000000000000000000000000000000000000000000000000000000000000000000000000000000000000000000000000000000000000001502201700000000            000000000000000                              000                           
0010001300187T 020180230000002544776 29647040626026166   7               17022017000000000006000001000132                         0900000000000010000000000000000000000000000000000000000   0000000000000000000000000A9        170192964704     
0010001300188U 020000000000000000000000000000000000000000000000000000000000000000000000000000000000000000000000000000000000000000000000001502201700000000            000000000000000                              000                           
0010001300189T 020180230000002544776 29647040626108922   7               17022017000000000006000001000132                         0900000000000010000000000000000000000000000000000000000   0000000000000000000000000A9        170192964704     
0010001300190U 020000000000000000000000000000000000000000000000000000000000000000000000000000000000000000000000000000000000000000000000001502201700000000            000000000000000                              000                           
0010001300191T 020180230000002544776 29647040626200968   7               17022017000000000006000001000132                         0900000000000010000000000000000000000000000000000000000   0000000000000000000000000A9        170192964704     
0010001300192U 020000000000000000000000000000000000000000000000000000000000000000000000000000000000000000000000000000000000000000000000001502201700000000            000000000000000                              000                           
0010001300193T 020180230000002544776 29647040626356527   7               17022017000000000006000001016179                         0900000000000010000000000000000000000000000000000000000   0000000000000000000000000A9        170192964704     
0010001300194U 020000000000000000000000000000000000000000000000000000000000000000000000000000000000000000000000000000000000000000000000001502201700000000            000000000000000                              000                           
0010001300195T 020180230000002544776 29647040626420383   7               17022017000000000008000001016179                         0900000000000010000000000000000000000000000000000000000   0000000000000000000000000A9        170192964704     
0010001300196U 020000000000000000000000000000000000000000000000000000000000000000000000000000000000000000000000000000000000000000000000001502201700000000            000000000000000                              000                           
0010001300197T 020180230000002544776 29647040626859805   7               17022017000000000006000001000132                         0900000000000010000000000000000000000000000000000000000   0000000000000000000000000A9        170192964704     
0010001300198U 020000000000000000000000000000000000000000000000000000000000000000000000000000000000000000000000000000000000000000000000001502201700000000            000000000000000                              000                           
0010001300199T 020180230000002544776 29647040627708792   7               17022017000000000006000001000132                         0900000000000010000000000000000000000000000000000000000   0000000000000000000000000A9        170192964704     
0010001300200U 020000000000000000000000000000000000000000000000000000000000000000000000000000000000000000000000000000000000000000000000001502201700000000            000000000000000                              000                           
0010001300201T 020180230000002544776 29647040627920835   7               17022017000000000006000001000132                         0900000000000010000000000000000000000000000000000000000   0000000000000000000000000A9        170192964704     
0010001300202U 020000000000000000000000000000000000000000000000000000000000000000000000000000000000000000000000000000000000000000000000001502201700000000            000000000000000                              000                           
0010001300203T 020180230000002544776 29647040628139125   7               17022017000000000006000001033316                         0900000000000010000000000000000000000000000000000000000   0000000000000000000000000A9        170192964704     
0010001300204U 020000000000000000000000000000000000000000000000000000000000000000000000000000000000000000000000000000000000000000000000001502201700000000            000000000000000                              000                           
0010001300205T 020180230000002544776 29647040628348669   7               17022017000000000006000001000132                         0900000000000010000000000000000000000000000000000000000   0000000000000000000000000A9        170192964704     
0010001300206U 020000000000000000000000000000000000000000000000000000000000000000000000000000000000000000000000000000000000000000000000001502201700000000            000000000000000                              000                           
0010001300207T 020180230000002544776 29647040628718417   7               17022017000000000008000001000132                         0900000000000010000000000000000000000000000000000000000   0000000000000000000000000A9        170192964704     
0010001300208U 020000000000000000000000000000000000000000000000000000000000000000000000000000000000000000000000000000000000000000000000001502201700000000            000000000000000                              000                           
0010001300209T 020180230000002544776 29647040628828008   7               17022017000000000006000001012467                         0900000000000010000000000000000000000000000000000000000   0000000000000000000000000A9        170192964704     
0010001300210U 020000000000000000000000000000000000000000000000000000000000000000000000000000000000000000000000000000000000000000000000001502201700000000            000000000000000                              000                           
0010001300211T 020180230000002544776 29647040628927173   7               17022017000000000006000001000132                         0900000000000010000000000000000000000000000000000000000   0000000000000000000000000A9        170192964704     
0010001300212U 020000000000000000000000000000000000000000000000000000000000000000000000000000000000000000000000000000000000000000000000001502201700000000            000000000000000                              000                           
0010001300213T 020180230000002544776 29647040629049662   7               17022017000000000006000001000132                         0900000000000010000000000000000000000000000000000000000   0000000000000000000000000A9        170192964704     
0010001300214U 020000000000000000000000000000000000000000000000000000000000000000000000000000000000000000000000000000000000000000000000001502201700000000            000000000000000                              000                           
0010001300215T 020180230000002544776 29647040629233921   7               17022017000000000006000001000132                         0900000000000010000000000000000000000000000000000000000   0000000000000000000000000A9        170192964704     
0010001300216U 020000000000000000000000000000000000000000000000000000000000000000000000000000000000000000000000000000000000000000000000001502201700000000            000000000000000                              000                           
0010001300217T 020180230000002544776 29647040629353397   7               17022017000000000006000001000132                         0900000000000010000000000000000000000000000000000000000   0000000000000000000000000A9        170192964704     
0010001300218U 020000000000000000000000000000000000000000000000000000000000000000000000000000000000000000000000000000000000000000000000001502201700000000            000000000000000                              000                           
0010001300219T 020180230000002544776 29647040629419753   7               17022017000000000008000001000132                         0900000000000010000000000000000000000000000000000000000   0000000000000000000000000A9        170192964704     
0010001300220U 020000000000000000000000000000000000000000000000000000000000000000000000000000000000000000000000000000000000000000000000001502201700000000            000000000000000                              000                           
0010001300221T 020180230000002544776 29647040629427205   7               17022017000000000008000001000132                         0900000000000010000000000000000000000000000000000000000   0000000000000000000000000A9        170192964704     
0010001300222U 020000000000000000000000000000000000000000000000000000000000000000000000000000000000000000000000000000000000000000000000001502201700000000            000000000000000                              000                           
0010001300223T 020180230000002544776 29647040629637696   7               17022017000000000006000001023655                         0900000000000010500000000000000000000000000000000000000   0000000000000000000000000A9A4      170192964704     
0010001300224U 020000000000000000000000000000000000000000000000000000000000000000000000000000000000000000000000000000000000000000000000001502201700000000            000000000000000                              000                           
0010001300225T 020180230000002544776 29647040629821384   7               17022017000000000006000001000132                         0900000000000010000000000000000000000000000000000000000   0000000000000000000000000A9        170192964704     
0010001300226U 020000000000000000000000000000000000000000000000000000000000000000000000000000000000000000000000000000000000000000000000001502201700000000            000000000000000                              000                           
0010001300227T 020180230000002544776 29647040629855519   7               17022017000000000006000001000132                         0900000000000010000000000000000000000000000000000000000   0000000000000000000000000A9        170192964704     
0010001300228U 020000000000000000000000000000000000000000000000000000000000000000000000000000000000000000000000000000000000000000000000001502201700000000            000000000000000                              000                           
0010001300229T 020180230000002544776 29647040629956618   7               17022017000000000006000001020354                         0900000000000010000000000000000000000000000000000000000   0000000000000000000000000A9        170192964704     
0010001300230U 020000000000000000000000000000000000000000000000000000000000000000000000000000000000000000000000000000000000000000000000001502201700000000            000000000000000                              000                           
0010001300231T 020180230000002544776 29647040630018080   7               17022017000000000008000001016179                         0900000000000010000000000000000000000000000000000000000   0000000000000000000000000A9        170192964704     
0010001300232U 020000000000000000000000000000000000000000000000000000000000000000000000000000000000000000000000000000000000000000000000001502201700000000            000000000000000                              000                           
0010001300233T 020180230000002544776 29647040630115985   7               17022017000000000008000001000132                         0900000000000010000000000000000000000000000000000000000   0000000000000000000000000A9        170192964704     
0010001300234U 020000000000000000000000000000000000000000000000000000000000000000000000000000000000000000000000000000000000000000000000001502201700000000            000000000000000                              000                           
0010001300235T 020180230000002544776 29647040630312602   7               17022017000000000008000001000132                         0900000000000010000000000000000000000000000000000000000   0000000000000000000000000A9        170192964704     
0010001300236U 020000000000000000000000000000000000000000000000000000000000000000000000000000000000000000000000000000000000000000000000001502201700000000            000000000000000                              000                           
0010001300237T 020180230000002544776 29647040630325003   7               17022017000000000008000001000132                         0900000000000010000000000000000000000000000000000000000   0000000000000000000000000A9        170192964704     
0010001300238U 020000000000000000000000000000000000000000000000000000000000000000000000000000000000000000000000000000000000000000000000001502201700000000            000000000000000                              000                           
0010001300239T 020180230000002544776 29647040630327546   7               17022017000000000008000001000132                         0900000000000010000000000000000000000000000000000000000   0000000000000000000000000A9        170192964704     
0010001300240U 020000000000000000000000000000000000000000000000000000000000000000000000000000000000000000000000000000000000000000000000001502201700000000            000000000000000                              000                           
0010001300241T 020180230000002544776 29647040630537844   7               17022017000000000006000001000132                         0900000000000010000000000000000000000000000000000000000   0000000000000000000000000A9        170192964704     
0010001300242U 020000000000000000000000000000000000000000000000000000000000000000000000000000000000000000000000000000000000000000000000001502201700000000            000000000000000                              000                           
0010001300243T 020180230000002544776 29647040631012863   7               17022017000000000008000001028029                         0900000000000010000000000000000000000000000000000000000   0000000000000000000000000A9        170192964704     
0010001300244U 020000000000000000000000000000000000000000000000000000000000000000000000000000000000000000000000000000000000000000000000001502201700000000            000000000000000                              000                           
0010001300245T 020180230000002544776 29647040631032050   7               17022017000000000008000001028029                         0900000000000010000000000000000000000000000000000000000   0000000000000000000000000A9        170192964704     
0010001300246U 020000000000000000000000000000000000000000000000000000000000000000000000000000000000000000000000000000000000000000000000001502201700000000            000000000000000                              000                           
0010001300247T 020180230000002544776 29647040631511042   788888888888889917022017000000000006000001012467888888888888899          0900000000000010500000000000000000000000000000000000000   0000000000000000000000000A9A4      170192964704     
0010001300248U 020000000000000000000000000000000000000000000000000000000000000000000000000000000000000000000000000000000000000000000000001502201700000000            000000000000000                              000                           
0010001300249T 020180230000002544776 29647040631725760   7               17022017000000000006000001009636                         0900000000000010000000000000000000000000000000000000000   0000000000000000000000000A9        170192964704     
0010001300250U 020000000000000000000000000000000000000000000000000000000000000000000000000000000000000000000000000000000000000000000000001502201700000000            000000000000000                              000                           
0010001300251T 020180230000002544776 29647040632055500   7               17022017000000000006000001016179                         0900000000000010000000000000000000000000000000000000000   0000000000000000000000000A9        170192964704     
0010001300252U 020000000000000000000000000000000000000000000000000000000000000000000000000000000000000000000000000000000000000000000000001502201700000000            000000000000000                              000                           
0010001300253T 020180230000002544776 29647040632254220   7               17022017000000000006000001012467                         0900000000000010000000000000000000000000000000000000000   0000000000000000000000000A9        170192964704     
0010001300254U 020000000000000000000000000000000000000000000000000000000000000000000000000000000000000000000000000000000000000000000000001502201700000000            000000000000000                              000                           
0010001300255T 020180230000002544776 29647040632559789   7               17022017000000000006000001000132                         0900000000000010000000000000000000000000000000000000000   0000000000000000000000000A9        170192964704     
0010001300256U 020000000000000000000000000000000000000000000000000000000000000000000000000000000000000000000000000000000000000000000000001502201700000000            000000000000000                              000                           
0010001300257T 020180230000002544776 29647040632825602   7               17022017000000000006000001016179                         0900000000000010000000000000000000000000000000000000000   0000000000000000000000000A9        170192964704     
0010001300258U 020000000000000000000000000000000000000000000000000000000000000000000000000000000000000000000000000000000000000000000000001502201700000000            000000000000000                              000                           
0010001300259T 020180230000002544776 29647040633331777   7               17022017000000000006000001016179                         0900000000000010000000000000000000000000000000000000000   0000000000000000000000000A9        170192964704     
0010001300260U 020000000000000000000000000000000000000000000000000000000000000000000000000000000000000000000000000000000000000000000000001502201700000000            000000000000000                              000                           
0010001300261T 020180230000002544776 29647040633520898   7               17022017000000000008000001000132                         0900000000000010000000000000000000000000000000000000000   0000000000000000000000000A9        170192964704     
0010001300262U 020000000000000000000000000000000000000000000000000000000000000000000000000000000000000000000000000000000000000000000000001502201700000000            000000000000000                              000                           
0010001300263T 020180230000002544776 29647040633909564   7               17022017000000000006000001000132                         0900000000000010000000000000000000000000000000000000000   0000000000000000000000000A9        170192964704     
0010001300264U 020000000000000000000000000000000000000000000000000000000000000000000000000000000000000000000000000000000000000000000000001502201700000000            000000000000000                              000                           
0010001300265T 020180230000002544776 29647040634628829   7               17022017000000000006000001016179                         0900000000000010000000000000000000000000000000000000000   0000000000000000000000000A9        170192964704     
0010001300266U 020000000000000000000000000000000000000000000000000000000000000000000000000000000000000000000000000000000000000000000000001502201700000000            000000000000000                              000                           
0010001300267T 020180230000002544776 29647040634709875   7               17022017000000000006000001000132                         0900000000000010000000000000000000000000000000000000000   0000000000000000000000000A9        170192964704     
0010001300268U 020000000000000000000000000000000000000000000000000000000000000000000000000000000000000000000000000000000000000000000000001502201700000000            000000000000000                              000                           
0010001300269T 020180230000002544776 29647040635020417   7               17022017000000000006000001033316                         0900000000000010000000000000000000000000000000000000000   0000000000000000000000000A9        170192964704     
0010001300270U 020000000000000000000000000000000000000000000000000000000000000000000000000000000000000000000000000000000000000000000000001502201700000000            000000000000000                              000                           
0010001300271T 020180230000002544776 29647040635413787   7               17022017000000000006000001016179                         0900000000000010500000000000000000000000000000000000000   0000000000000000000000000A9A4      170192964704     
0010001300272U 020000000000000000000000000000000000000000000000000000000000000000000000000000000000000000000000000000000000000000000000001502201700000000            000000000000000                              000                           
0010001300273T 020180230000002544776 29647040635512788   7               17022017000000000008000001012467                         0900000000000010000000000000000000000000000000000000000   0000000000000000000000000A9        170192964704     
0010001300274U 020000000000000000000000000000000000000000000000000000000000000000000000000000000000000000000000000000000000000000000000001502201700000000            000000000000000                              000                           
0010001300275T 020180230000002544776 29647040635527322   7               17022017000000000008000001012467                         0900000000000010000000000000000000000000000000000000000   0000000000000000000000000A9        170192964704     
0010001300276U 020000000000000000000000000000000000000000000000000000000000000000000000000000000000000000000000000000000000000000000000001502201700000000            000000000000000                              000                           
0010001300277T 020180230000002544776 29647040635532663   7               17022017000000000008000001012467                         0900000000000010000000000000000000000000000000000000000   0000000000000000000000000A9        170192964704     
0010001300278U 020000000000000000000000000000000000000000000000000000000000000000000000000000000000000000000000000000000000000000000000001502201700000000            000000000000000                              000                           
0010001300279T 020180230000002544776 29647040635634461   7               17022017000000000006000001012467                         0900000000000010000000000000000000000000000000000000000   0000000000000000000000000A9        170192964704     
0010001300280U 020000000000000000000000000000000000000000000000000000000000000000000000000000000000000000000000000000000000000000000000001502201700000000            000000000000000                              000                           
0010001300281T 020180230000002544776 29647040635720000   7               17022017000000000006000001000132                         0900000000000010000000000000000000000000000000000000000   0000000000000000000000000A9        170192964704     
0010001300282U 020000000000000000000000000000000000000000000000000000000000000000000000000000000000000000000000000000000000000000000000001502201700000000            000000000000000                              000                           
0010001300283T 020180230000002544776 29647040635931775   7               17022017000000000006000001000132                         0900000000000010500000000000000000000000000000000000000   0000000000000000000000000A9A4      170192964704     
0010001300284U 020000000000000000000000000000000000000000000000000000000000000000000000000000000000000000000000000000000000000000000000001502201700000000            000000000000000                              000                           
0010001300285T 020180230000002544776 29647040636117456   7               17022017000000000006000001033316                         0900000000000010000000000000000000000000000000000000000   0000000000000000000000000A9        170192964704     
0010001300286U 020000000000000000000000000000000000000000000000000000000000000000000000000000000000000000000000000000000000000000000000001502201700000000            000000000000000                              000                           
0010001300287T 020180230000002544776 29647040636126035   7               17022017000000000006000001033316                         0900000000000010000000000000000000000000000000000000000   0000000000000000000000000A9        170192964704     
0010001300288U 020000000000000000000000000000000000000000000000000000000000000000000000000000000000000000000000000000000000000000000000001502201700000000            000000000000000                              000                           
0010001300289T 020180230000002544776 29647040636439291   7               17022017000000000006000001001880                         0900000000000010000000000000000000000000000000000000000   0000000000000000000000000A9        170192964704     
0010001300290U 020000000000000000000000000000000000000000000000000000000000000000000000000000000000000000000000000000000000000000000000001502201700000000            000000000000000                              000                           
0010001300291T 020180230000002544776 29647040636622211   7               17022017000000000006000001000132                         0900000000000010000000000000000000000000000000000000000   0000000000000000000000000A9        170192964704     
0010001300292U 020000000000000000000000000000000000000000000000000000000000000000000000000000000000000000000000000000000000000000000000001502201700000000            000000000000000                              000                           
0010001300293T 020180230000002544776 29647040636812690   7               17022017000000000008000001000132                         0900000000000010000000000000000000000000000000000000000   0000000000000000000000000A9        170192964704     
0010001300294U 020000000000000000000000000000000000000000000000000000000000000000000000000000000000000000000000000000000000000000000000001502201700000000            000000000000000                              000                           
0010001300295T 020180230000002544776 29647040636947276   7               17022017000000000006000001028495                         0900000000000010000000000000000000000000000000000000000   0000000000000000000000000A9        170192964704     
0010001300296U 020000000000000000000000000000000000000000000000000000000000000000000000000000000000000000000000000000000000000000000000001502201700000000            000000000000000                              000                           
0010001300297T 020180230000002544776 29647040636951874   7               17022017000000000006000001028495                         0900000000000010000000000000000000000000000000000000000   0000000000000000000000000A9        170192964704     
0010001300298U 020000000000000000000000000000000000000000000000000000000000000000000000000000000000000000000000000000000000000000000000001502201700000000            000000000000000                              000                           
0010001300299T 020180230000002544776 29647040637027701   7               17022017000000000006000001023329                         0900000000000010000000000000000000000000000000000000000   0000000000000000000000000A9        170192964704     
0010001300300U 020000000000000000000000000000000000000000000000000000000000000000000000000000000000000000000000000000000000000000000000001502201700000000            000000000000000                              000                           
0010001300301T 020180230000002544776 29647040637103061   7               17022017000000000006000001033316                         0900000000000010000000000000000000000000000000000000000   0000000000000000000000000A9        170192964704     
0010001300302U 020000000000000000000000000000000000000000000000000000000000000000000000000000000000000000000000000000000000000000000000001502201700000000            000000000000000                              000                           
0010001300303T 020180230000002544776 29647040637411745   7               17022017000000000006000001000132                         0900000000000010000000000000000000000000000000000000000   0000000000000000000000000A9        170192964704     
0010001300304U 020000000000000000000000000000000000000000000000000000000000000000000000000000000000000000000000000000000000000000000000001502201700000000            000000000000000                              000                           
0010001300305T 020180230000002544776 29647040637516164   7               17022017000000000008000001000132                         0900000000000010000000000000000000000000000000000000000   0000000000000000000000000A9        170192964704     
0010001300306U 020000000000000000000000000000000000000000000000000000000000000000000000000000000000000000000000000000000000000000000000001502201700000000            000000000000000                              000                           
0010001300307T 020180230000002544776 29647040637527427   7               17022017000000000008000001000132                         0900000000000010000000000000000000000000000000000000000   0000000000000000000000000A9        170192964704     
0010001300308U 020000000000000000000000000000000000000000000000000000000000000000000000000000000000000000000000000000000000000000000000001502201700000000            000000000000000                              000                           
0010001300309T 020180230000002544776 29647040637829231   7               17022017000000000006000001000132                         0900000000000010000000000000000000000000000000000000000   0000000000000000000000000A9        170192964704     
0010001300310U 020000000000000000000000000000000000000000000000000000000000000000000000000000000000000000000000000000000000000000000000001502201700000000            000000000000000                              000                           
0010001300311T 020180230000002544776 29647040637852109   7               17022017000000000006000001000132                         0900000000000010000000000000000000000000000000000000000   0000000000000000000000000A9        170192964704     
0010001300312U 020000000000000000000000000000000000000000000000000000000000000000000000000000000000000000000000000000000000000000000000001502201700000000            000000000000000                              000                           
0010001300313T 020180230000002544776 29647040638150138   7               17022017000000000006000001000132                         0900000000000010000000000000000000000000000000000000000   0000000000000000000000000A9        170192964704     
0010001300314U 020000000000000000000000000000000000000000000000000000000000000000000000000000000000000000000000000000000000000000000000001502201700000000            000000000000000                              000                           
0010001300315T 020180230000002544776 29647040638300491   7               17022017000000000006000001000132                         0900000000000010000000000000000000000000000000000000000   0000000000000000000000000A9        170192964704     
0010001300316U 020000000000000000000000000000000000000000000000000000000000000000000000000000000000000000000000000000000000000000000000001502201700000000            000000000000000                              000                           
0010001300317T 020180230000002544776 29647040638724465   7               17022017000000000006000001000132                         0900000000000010500000000000000000000000000000000000000   0000000000000000000000000A9A4      170192964704     
0010001300318U 020000000000000000000000000000000000000000000000000000000000000000000000000000000000000000000000000000000000000000000000001502201700000000            000000000000000                              000                           
0010001300319T 020180230000002544776 29647040638813222   7               17022017000000000006000001000132                         0900000000000010000000000000000000000000000000000000000   0000000000000000000000000A9        170192964704     
0010001300320U 020000000000000000000000000000000000000000000000000000000000000000000000000000000000000000000000000000000000000000000000001502201700000000            000000000000000                              000                           
0010001300321T 020180230000002544776 29647040638959196   7               17022017000000000006000001000132                         0900000000000010500000000000000000000000000000000000000   0000000000000000000000000A9A4      170192964704     
0010001300322U 020000000000000000000000000000000000000000000000000000000000000000000000000000000000000000000000000000000000000000000000001502201700000000            000000000000000                              000                           
0010001300323T 020180230000002544776 29647040639038535   7               17022017000000000006000001016179                         0900000000000010000000000000000000000000000000000000000   0000000000000000000000000A9        170192964704     
0010001300324U 020000000000000000000000000000000000000000000000000000000000000000000000000000000000000000000000000000000000000000000000001502201700000000            000000000000000                              000                           
0010001300325T 020180230000002544776 29647040639154469   7               17022017000000000006000001000132                         0900000000000010000000000000000000000000000000000000000   0000000000000000000000000A9        170192964704     
0010001300326U 020000000000000000000000000000000000000000000000000000000000000000000000000000000000000000000000000000000000000000000000001502201700000000            000000000000000                              000                           
0010001300327T 020180230000002544776 29647040639317535   7               17022017000000000006000001016179                         0900000000000010500000000000000000000000000000000000000   0000000000000000000000000A9A4      170192964704     
0010001300328U 020000000000000000000000000000000000000000000000000000000000000000000000000000000000000000000000000000000000000000000000001502201700000000            000000000000000                              000                           
0010001300329T 020180230000002544776 29647040639526632   7               17022017000000000006000001000132                         0900000000000010000000000000000000000000000000000000000   0000000000000000000000000A9        170192964704     
0010001300330U 020000000000000000000000000000000000000000000000000000000000000000000000000000000000000000000000000000000000000000000000001502201700000000            000000000000000                              000                           
0010001300331T 020180230000002544776 29647040639659037   7               17022017000000000008000001025291                         0900000000000010000000000000000000000000000000000000000   0000000000000000000000000A9        170192964704     
0010001300332U 020000000000000000000000000000000000000000000000000000000000000000000000000000000000000000000000000000000000000000000000001502201700000000            000000000000000                              000                           
0010001300333T 020180230000002544776 29647040640014183   7               17022017000000000008000001020354                         0900000000000010000000000000000000000000000000000000000   0000000000000000000000000A9        170192964704     
0010001300334U 020000000000000000000000000000000000000000000000000000000000000000000000000000000000000000000000000000000000000000000000001502201700000000            000000000000000                              000                           
0010001300335T 020180230000002544776 29647040640155177   7               17022017000000000006000001033316                         0900000000000010000000000000000000000000000000000000000   0000000000000000000000000A9        170192964704     
0010001300336U 020000000000000000000000000000000000000000000000000000000000000000000000000000000000000000000000000000000000000000000000001502201700000000            000000000000000                              000                           
0010001300337T 020180230000002544776 29647040640317564   7               17022017000000000008000001020354                         0900000000000010000000000000000000000000000000000000000   0000000000000000000000000A9        170192964704     
0010001300338U 020000000000000000000000000000000000000000000000000000000000000000000000000000000000000000000000000000000000000000000000001502201700000000            000000000000000                              000                           
0010001300339T 020180230000002544776 29647040640419639   7               17022017000000000006000001000132                         0900000000000010000000000000000000000000000000000000000   0000000000000000000000000A9        170192964704     
0010001300340U 020000000000000000000000000000000000000000000000000000000000000000000000000000000000000000000000000000000000000000000000001502201700000000            000000000000000                              000                           
0010001300341T 020180230000002544776 29647040640659995   7               1702201700000000000600000101981X                         0900000000000010000000000000000000000000000000000000000   0000000000000000000000000A9        170192964704     
0010001300342U 020000000000000000000000000000000000000000000000000000000000000000000000000000000000000000000000000000000000000000000000001502201700000000            000000000000000                              000                           
0010001300343T 020180230000002544776 29647040640701435   7               17022017000000000006000001016810                         0900000000000010000000000000000000000000000000000000000   0000000000000000000000000A9        170192964704     
0010001300344U 020000000000000000000000000000000000000000000000000000000000000000000000000000000000000000000000000000000000000000000000001502201700000000            000000000000000                              000                           
0010001300345T 020180230000002544776 29647040640715912   7               17022017000000000006000001016810                         0900000000000010000000000000000000000000000000000000000   0000000000000000000000000A9        170192964704     
0010001300346U 020000000000000000000000000000000000000000000000000000000000000000000000000000000000000000000000000000000000000000000000001502201700000000            000000000000000                              000                           
0010001300347T 020180230000002544776 29647040640717445   7               17022017000000000006000001016810                         0900000000000010000000000000000000000000000000000000000   0000000000000000000000000A9        170192964704     
0010001300348U 020000000000000000000000000000000000000000000000000000000000000000000000000000000000000000000000000000000000000000000000001502201700000000            000000000000000                              000                           
0010001300349T 020180230000002544776 29647040640910615   7               17022017000000000006000001016179                         0900000000000010000000000000000000000000000000000000000   0000000000000000000000000A9        170192964704     
0010001300350U 020000000000000000000000000000000000000000000000000000000000000000000000000000000000000000000000000000000000000000000000001502201700000000            000000000000000                              000                           
0010001300351T 020180230000002544776 29647040641235070   7               17022017000000000006000001000132                         0900000000000010000000000000000000000000000000000000000   0000000000000000000000000A9        170192964704     
0010001300352U 020000000000000000000000000000000000000000000000000000000000000000000000000000000000000000000000000000000000000000000000001502201700000000            000000000000000                              000                           
0010001300353T 020180230000002544776 29647040641247137   7               17022017000000000006000001000132                         0900000000000010000000000000000000000000000000000000000   0000000000000000000000000A9        170192964704     
0010001300354U 020000000000000000000000000000000000000000000000000000000000000000000000000000000000000000000000000000000000000000000000001502201700000000            000000000000000                              000                           
0010001300355T 020180230000002544776 29647040641416610   7               17022017000000000006000001016179                         0900000000000010000000000000000000000000000000000000000   0000000000000000000000000A9        170192964704     
0010001300356U 020000000000000000000000000000000000000000000000000000000000000000000000000000000000000000000000000000000000000000000000001502201700000000            000000000000000                              000                           
0010001300357T 020180230000002544776 29647040641620676   7               17022017000000000006000001016179                         0900000000000010000000000000000000000000000000000000000   0000000000000000000000000A9        170192964704     
0010001300358U 020000000000000000000000000000000000000000000000000000000000000000000000000000000000000000000000000000000000000000000000001502201700000000            000000000000000                              000                           
0010001300359T 020180230000002544776 29647040641729134   7               17022017000000000006000001000132                         0900000000000010000000000000000000000000000000000000000   0000000000000000000000000A9        170192964704     
0010001300360U 020000000000000000000000000000000000000000000000000000000000000000000000000000000000000000000000000000000000000000000000001502201700000000            000000000000000                              000                           
0010001300361T 020180230000002544776 29647040641757229   7               17022017000000000006000001000132                         0900000000000010000000000000000000000000000000000000000   0000000000000000000000000A9        170192964704     
0010001300362U 020000000000000000000000000000000000000000000000000000000000000000000000000000000000000000000000000000000000000000000000001502201700000000            000000000000000                              000                           
0010001300363T 020180230000002544776 29647040641819432   7               1702201700000000000800000100121X                         0900000000000010000000000000000000000000000000000000000   0000000000000000000000000A9        170192964704     
0010001300364U 020000000000000000000000000000000000000000000000000000000000000000000000000000000000000000000000000000000000000000000000001502201700000000            000000000000000                              000                           
0010001300365T 020180230000002544776 29647040641939136   7               17022017000000000006000001018376                         0900000000000010000000000000000000000000000000000000000   0000000000000000000000000A9        170192964704     
0010001300366U 020000000000000000000000000000000000000000000000000000000000000000000000000000000000000000000000000000000000000000000000001502201700000000            000000000000000                              000                           
0010001300367T 020180230000002544776 29647040642009425   7               17022017000000000006000001005428                         0900000000000010000000000000000000000000000000000000000   0000000000000000000000000A9        170192964704     
0010001300368U 020000000000000000000000000000000000000000000000000000000000000000000000000000000000000000000000000000000000000000000000001502201700000000            000000000000000                              000                           
0010001300369T 020180230000002544776 29647040642025842   7               17022017000000000006000001005428                         0900000000000010000000000000000000000000000000000000000   0000000000000000000000000A9        170192964704     
0010001300370U 020000000000000000000000000000000000000000000000000000000000000000000000000000000000000000000000000000000000000000000000001502201700000000            000000000000000                              000                           
0010001300371T 020180230000002544776 29647040642242062   7               17022017000000000006000001000132                         0900000000000010000000000000000000000000000000000000000   0000000000000000000000000A9        170192964704     
0010001300372U 020000000000000000000000000000000000000000000000000000000000000000000000000000000000000000000000000000000000000000000000001502201700000000            000000000000000                              000                           
0010001300373T 020180230000002544776 29647040642346850   7               17022017000000000006000001000132                         0900000000000010000000000000000000000000000000000000000   0000000000000000000000000A9        170192964704     
0010001300374U 020000000000000000000000000000000000000000000000000000000000000000000000000000000000000000000000000000000000000000000000001502201700000000            000000000000000                              000                           
0010001300375T 020180230000002544776 29647040642612245   7               17022017000000000006000001000132                         0900000000000010000000000000000000000000000000000000000   0000000000000000000000000A9        170192964704     
0010001300376U 020000000000000000000000000000000000000000000000000000000000000000000000000000000000000000000000000000000000000000000000001502201700000000            000000000000000                              000                           
0010001300377T 020180230000002544776 29647040642724594   7               17022017000000000006000001022748                         0900000000000010000000000000000000000000000000000000000   0000000000000000000000000A9        170192964704     
0010001300378U 020000000000000000000000000000000000000000000000000000000000000000000000000000000000000000000000000000000000000000000000001502201700000000            000000000000000                              000                           
0010001300379T 020180230000002544776 29647040642915900   7               17022017000000000006000001000132                         0900000000000010000000000000000000000000000000000000000   0000000000000000000000000A9        170192964704     
0010001300380U 020000000000000000000000000000000000000000000000000000000000000000000000000000000000000000000000000000000000000000000000001502201700000000            000000000000000                              000                           
0010001300381T 020180230000002544776 29647040643155457   7               1702201700000000000600000101981X                         0900000000000010000000000000000000000000000000000000000   0000000000000000000000000A9        170192964704     
0010001300382U 020000000000000000000000000000000000000000000000000000000000000000000000000000000000000000000000000000000000000000000000001502201700000000            000000000000000                              000                           
0010001300383T 020180230000002544776 29647040643354503   7               17022017000000000006000001024600                         0900000000000010000000000000000000000000000000000000000   0000000000000000000000000A9        170192964704     
0010001300384U 020000000000000000000000000000000000000000000000000000000000000000000000000000000000000000000000000000000000000000000000001502201700000000            000000000000000                              000                           
0010001300385T 020180230000002544776 29647040643551328   7               17022017000000000006000001000132                         0900000000000010000000000000000000000000000000000000000   0000000000000000000000000A9        170192964704     
0010001300386U 020000000000000000000000000000000000000000000000000000000000000000000000000000000000000000000000000000000000000000000000001502201700000000            000000000000000                              000                           
0010001300387T 020180230000002544776 29647040643613634   7               17022017000000000008000001018376                         0900000000000010000000000000000000000000000000000000000   0000000000000000000000000A9        170192964704     
0010001300388U 020000000000000000000000000000000000000000000000000000000000000000000000000000000000000000000000000000000000000000000000001502201700000000            000000000000000                              000                           
0010001300389T 020180230000002544776 29647040643743492   7               17022017000000000006000001016179                         0900000000000010000000000000000000000000000000000000000   0000000000000000000000000A9        170192964704     
0010001300390U 020000000000000000000000000000000000000000000000000000000000000000000000000000000000000000000000000000000000000000000000001502201700000000            000000000000000                              000                           
0010001300391T 020180230000002544776 29647040644043054   7               17022017000000000006000001000132                         0900000000000010000000000000000000000000000000000000000   0000000000000000000000000A9        170192964704     
0010001300392U 020000000000000000000000000000000000000000000000000000000000000000000000000000000000000000000000000000000000000000000000001502201700000000            000000000000000                              000                           
0010001300393T 020180230000002544776 29647040644154306   7               17022017000000000006000001000132                         0900000000000010000000000000000000000000000000000000000   0000000000000000000000000A9        170192964704     
0010001300394U 020000000000000000000000000000000000000000000000000000000000000000000000000000000000000000000000000000000000000000000000001502201700000000            000000000000000                              000                           
0010001300395T 020180230000002544776 29647040644238022   7               17022017000000000006000001025429                         0900000000000010000000000000000000000000000000000000000   0000000000000000000000000A9        170192964704     
0010001300396U 020000000000000000000000000000000000000000000000000000000000000000000000000000000000000000000000000000000000000000000000001502201700000000            000000000000000                              000                           
0010001300397T 020180230000002544776 29647040644439067   7               17022017000000000006000001016179                         0900000000000010000000000000000000000000000000000000000   0000000000000000000000000A9        170192964704     
0010001300398U 020000000000000000000000000000000000000000000000000000000000000000000000000000000000000000000000000000000000000000000000001502201700000000            000000000000000                              000                           
0010001300399T 020180230000002544776 29647040644526777   7               17022017000000000006000001016179                         0900000000000010500000000000000000000000000000000000000   0000000000000000000000000A9A4      170192964704     
0010001300400U 020000000000000000000000000000000000000000000000000000000000000000000000000000000000000000000000000000000000000000000000001502201700000000            000000000000000                              000                           
0010001300401T 020180230000002544776 29647040644527271   7               17022017000000000006000001016179                         0900000000000010500000000000000000000000000000000000000   0000000000000000000000000A9A4      170192964704     
0010001300402U 020000000000000000000000000000000000000000000000000000000000000000000000000000000000000000000000000000000000000000000000001502201700000000            000000000000000                              000                           
0010001300403T 020180230000002544776 29647040644530546   7               17022017000000000006000001016179                         0900000000000010500000000000000000000000000000000000000   0000000000000000000000000A9A4      170192964704     
0010001300404U 020000000000000000000000000000000000000000000000000000000000000000000000000000000000000000000000000000000000000000000000001502201700000000            000000000000000                              000                           
0010001300405T 020180230000002544776 29647040644642359   7               17022017000000000006000001016179                         0900000000000010000000000000000000000000000000000000000   0000000000000000000000000A9        170192964704     
0010001300406U 020000000000000000000000000000000000000000000000000000000000000000000000000000000000000000000000000000000000000000000000001502201700000000            000000000000000                              000                           
0010001300407T 020180230000002544776 29647040644726214   7               17022017000000000006000001000132                         0900000000000010000000000000000000000000000000000000000   0000000000000000000000000A9        170192964704     
0010001300408U 020000000000000000000000000000000000000000000000000000000000000000000000000000000000000000000000000000000000000000000000001502201700000000            000000000000000                              000                           
0010001300409T 020180230000002544776 29647040644907492   7               17022017000000000006000001000132                         0900000000000010000000000000000000000000000000000000000   0000000000000000000000000A9        170192964704     
0010001300410U 020000000000000000000000000000000000000000000000000000000000000000000000000000000000000000000000000000000000000000000000001502201700000000            000000000000000                              000                           
0010001300411T 020180230000002544776 29647040645052991   7               17022017000000000006000001000132                         0900000000000010000000000000000000000000000000000000000   0000000000000000000000000A9        170192964704     
0010001300412U 020000000000000000000000000000000000000000000000000000000000000000000000000000000000000000000000000000000000000000000000001502201700000000            000000000000000                              000                           
