00100000         2247745860001000029647040014       0180230000002544776 INSTITUTO DE SELECAO E TECNOLOBANCO DO BRASIL                         20103201702323500004203000000515122941PROCESSAMEN                                                 
00100011T0100020 20247745860001000029647040014       0180230000002544776 INSTITUTO DE SELECAO E TECNOLO                                                                                000000000103201700000000  000000000                      
0010001300001T 020180230000002544776 29647040512344272   7               03032017000000000006000001028029                         0900000000000010000000000000000000000000000000000000000   0000000000000000000000000A9        170192964704     
0010001300002U 020000000000000000000000000000000000000000000000000000000000000000000000000000000000000000000000000000000000000000000000000103201700000000            000000000000000                              000                           
0010001300003T 020180230000002544776 29647040522035191   7               02032017000000000006000001016179                         0900000000000010000000000000000000000000000000000000000   0000000000000000000000000A9        170192964704     
0010001300004U 020000000000000000000000000000000000000000000000000000000000000000000000000000000000000000000000000000000000000000000000002802201700000000            000000000000000                              000                           
0010001300005T 020180230000002544776 29647040535128551   7               01032017000000000006000001008214                         0900000000000010000000000000000000000000000000000000000   0000000000000000000000000A9        170192964704     
0010001300006U 020000000000000000000000000000000000000000000000000000000000000000000000000000000000000000000000000000000000000000000000002702201700000000            000000000000000                              000                           
0010001300007T 020180230000002544776 29647040535155549   7               01032017000000000006000001008214                         0900000000000010000000000000000000000000000000000000000   0000000000000000000000000A9        170192964704     
0010001300008U 020000000000000000000000000000000000000000000000000000000000000000000000000000000000000000000000000000000000000000000000002702201700000000            000000000000000                              000                           
0010001300009T 020180230000002544776 29647040539602574   7               03032017000000000006000001023353                         0900000000000010000000000000000000000000000000000000000   0000000000000000000000000A9        170192964704     
0010001300010U 020000000000000000000000000000000000000000000000000000000000000000000000000000000000000000000000000000000000000000000000000103201700000000            000000000000000                              000                           
0010001300011T 020180230000002544776 29647040540600700   7               03032017000000000008000001034770                         0900000000000010000000000000000000000000000000000000000   0000000000000000000000000A9        170192964704     
0010001300012U 020000000000000000000000000000000000000000000000000000000000000000000000000000000000000000000000000000000000000000000000000103201700000000            000000000000000                              000                           
0010001300013T 020180230000002544776 29647040548826412   7               01032017000000000006000001018376                         0900000000000010000000000000000000000000000000000000000   0000000000000000000000000A9        170192964704     
0010001300014U 020000000000000000000000000000000000000000000000000000000000000000000000000000000000000000000000000000000000000000000000002702201700000000            000000000000000                              000                           
0010001300015T 020180230000002544776 29647040548855240   7               01032017000000000006000001018376                         0900000000000010000000000000000000000000000000000000000   0000000000000000000000000A9        170192964704     
0010001300016U 020000000000000000000000000000000000000000000000000000000000000000000000000000000000000000000000000000000000000000000000002702201700000000            000000000000000                              000                           
0010001300017T 020180230000002544776 29647040550607836   7               03032017000000000006000001033316                         0900000000000010000000000000000000000000000000000000000   0000000000000000000000000A9        170192964704     
0010001300018U 020000000000000000000000000000000000000000000000000000000000000000000000000000000000000000000000000000000000000000000000000103201700000000            000000000000000                              000                           
0010001300019T 020180230000002544776 29647040550611389   7               03032017000000000006000001033316                         0900000000000010000000000000000000000000000000000000000   0000000000000000000000000A9        170192964704     
0010001300020U 020000000000000000000000000000000000000000000000000000000000000000000000000000000000000000000000000000000000000000000000000103201700000000            000000000000000                              000                           
0010001300021T 020180230000002544776 29647040550642053   7               03032017000000000006000001033316                         0900000000000010000000000000000000000000000000000000000   0000000000000000000000000A9        170192964704     
0010001300022U 020000000000000000000000000000000000000000000000000000000000000000000000000000000000000000000000000000000000000000000000000103201700000000            000000000000000                              000                           
0010001300023T 020180230000002544776 29647040560449565   7               03032017000000000006000001016179                         0900000000000010000000000000000000000000000000000000000   0000000000000000000000000A9        170192964704     
0010001300024U 020000000000000000000000000000000000000000000000000000000000000000000000000000000000000000000000000000000000000000000000000103201700000000            000000000000000                              000                           
0010001300025T 020180230000002544776 29647040563539501   7               03032017000000000006000001016179                         0900000000000010000000000000000000000000000000000000000   0000000000000000000000000A9        170192964704     
0010001300026U 020000000000000000000000000000000000000000000000000000000000000000000000000000000000000000000000000000000000000000000000000103201700000000            000000000000000                              000                           
0010001300027T 020180230000002544776 29647040563545064   7               01032017000000000006000001016179                         0900000000000010000000000000000000000000000000000000000   0000000000000000000000000A9        170192964704     
0010001300028U 020000000000000000000000000000000000000000000000000000000000000000000000000000000000000000000000000000000000000000000000002702201700000000            000000000000000                              000                           
0010001300029T 020180230000002544776 29647040568542632   7               03032017000000000008000001010545                         0900000000000010000000000000000000000000000000000000000   0000000000000000000000000A9        170192964704     
0010001300030U 020000000000000000000000000000000000000000000000000000000000000000000000000000000000000000000000000000000000000000000000000103201700000000            000000000000000                              000                           
0010001300031T 020180230000002544776 29647040571616855   7               03032017000000000006000001016179                         0900000000000010000000000000000000000000000000000000000   0000000000000000000000000A9        170192964704     
0010001300032U 020000000000000000000000000000000000000000000000000000000000000000000000000000000000000000000000000000000000000000000000000103201700000000            000000000000000                              000                           
0010001300033T 020180230000002544776 29647040577527373   7               03032017000000000006000001000132                         0900000000000010000000000000000000000000000000000000000   0000000000000000000000000A9        170192964704     
0010001300034U 020000000000000000000000000000000000000000000000000000000000000000000000000000000000000000000000000000000000000000000000000103201700000000            000000000000000                              000                           
0010001300035T 020180230000002544776 29647040594407036   7               02032017000000000008000001006343                         0900000000000010000000000000000000000000000000000000000   0000000000000000000000000A9        170192964704     
0010001300036U 020000000000000000000000000000000000000000000000000000000000000000000000000000000000000000000000000000000000000000000000002802201700000000            000000000000000                              000                           
0010001300037T 020180230000002544776 29647040603729624   7               27022017000000000006000001018376                         0900000000000010000000000000000000000000000000000000000   0000000000000000000000000A9        170192964704     
0010001300038U 020000000000000000000000000000000000000000000000000000000000000000000000000000000000000000000000000000000000000000000000002502201700000000            000000000000000                              000                           
0010001300039T 020180230000002544776 29647040611043860   7               03032017000000000008000001000132                         0900000000000010500000000000000000000000000000000000000   0000000000000000000000000A9A4      170192964704     
0010001300040U 020000000000000000000000000000000000000000000000000000000000000000000000000000000000000000000000000000000000000000000000000103201700000000            000000000000000                              000                           
0010001300041T 020180230000002544776 29647040613357787   7               03032017000000000006000001000132                         0900000000000010000000000000000000000000000000000000000   0000000000000000000000000A9        170192964704     
0010001300042U 020000000000000000000000000000000000000000000000000000000000000000000000000000000000000000000000000000000000000000000000000103201700000000            000000000000000                              000                           
0010001300043T 020180230000002544776 29647040619553301   7               03032017000000000006000001012467                         0900000000000010000000000000000000000000000000000000000   0000000000000000000000000A9        170192964704     
0010001300044U 020000000000000000000000000000000000000000000000000000000000000000000000000000000000000000000000000000000000000000000000000103201700000000            000000000000000                              000                           
0010001300045T 020180230000002544776 29647040620900596   7               03032017000000000006000001016179                         0900000000000010000000000000000000000000000000000000000   0000000000000000000000000A9        170192964704     
0010001300046U 020000000000000000000000000000000000000000000000000000000000000000000000000000000000000000000000000000000000000000000000000103201700000000            000000000000000                              000                           
0010001300047T 020180230000002544776 29647040626536188   7               02032017000000000006000001000132                         0900000000000010000000000000000000000000000000000000000   0000000000000000000000000A9        170192964704     
0010001300048U 020000000000000000000000000000000000000000000000000000000000000000000000000000000000000000000000000000000000000000000000002802201700000000            000000000000000                              000                           
0010001300049T 020180230000002544776 29647040628804120   7               01032017000000000006000001012467                         0900000000000010000000000000000000000000000000000000000   0000000000000000000000000A9        170192964704     
0010001300050U 020000000000000000000000000000000000000000000000000000000000000000000000000000000000000000000000000000000000000000000000002702201700000000            000000000000000                              000                           
0010001300051T 020180230000002544776 29647040632653782   7               02032017000000000006000001000132                         0900000000000010000000000000000000000000000000000000000   0000000000000000000000000A9        170192964704     
0010001300052U 020000000000000000000000000000000000000000000000000000000000000000000000000000000000000000000000000000000000000000000000002802201700000000            000000000000000                              000                           
0010001300053T 020180230000002544776 29647040635527459   7               03032017000000000008000001012467                         0900000000000010000000000000000000000000000000000000000   0000000000000000000000000A9        170192964704     
0010001300054U 020000000000000000000000000000000000000000000000000000000000000000000000000000000000000000000000000000000000000000000000000103201700000000            000000000000000                              000                           
0010001300055T 020180230000002544776 29647040661040283   7               0303201700000000000600000100233X                         0900000000000010000000000000000000000000000000000000000   0000000000000000000000000A9        170192964704     
0010001300056U 020000000000000000000000000000000000000000000000000000000000000000000000000000000000000000000000000000000000000000000000000103201700000000            000000000000000                              000                           
0010001300057T 020180230000002544776 29647040663910403   7               03032017000000000006000001009636                         0900000000000010000000000000000000000000000000000000000   0000000000000000000000000A9        170192964704     
0010001300058U 020000000000000000000000000000000000000000000000000000000000000000000000000000000000000000000000000000000000000000000000000103201700000000            000000000000000                              000                           
0010001300059T 020180230000002544776 29647040679004252   7               28022017000000000006000001033316                         0900000000000010000000000000000000000000000000000000000   0000000000000000000000000A9        170192964704     
0010001300060U 020000000000000000000000000000000000000000000000000000000000000000000000000000000000000000000000000000000000000000000000002602201700000000            000000000000000                              000                           
0010001300061T 020180230000002544776 29647040680246507   7               28022017000000000006000001023264                         0900000000000010000000000000000000000000000000000000000   0000000000000000000000000A9        170192964704     
0010001300062U 020000000000000000000000000000000000000000000000000000000000000000000000000000000000000000000000000000000000000000000000002602201700000000            000000000000000                              000                           
0010001300063T 020180230000002544776 29647040685407616   7               01032017000000000006000001000132                         0900000000000010500000000000000000000000000000000000000   0000000000000000000000000A9A4      170192964704     
0010001300064U 020000000000000000000000000000000000000000000000000000000000000000000000000000000000000000000000000000000000000000000000002702201700000000            000000000000000                              000                           
0010001300065T 020180230000002544776 29647040688117155   7               03032017000000000006000001021385                         0900000000000010000000000000000000000000000000000000000   0000000000000000000000000A9        170192964704     
0010001300066U 020000000000000000000000000000000000000000000000000000000000000000000000000000000000000000000000000000000000000000000000000103201700000000            000000000000000                              000                           
0010001300067T 020180230000002544776 29647040696509914   7               28022017000000000006000001000132                         0900000000000010000000000000000000000000000000000000000   0000000000000000000000000A9        170192964704     
0010001300068U 020000000000000000000000000000000000000000000000000000000000000000000000000000000000000000000000000000000000000000000000002602201700000000            000000000000000                              000                           
0010001300069T 020180230000002544776 29647040696551066   7               28022017000000000006000001000132                         0900000000000010000000000000000000000000000000000000000   0000000000000000000000000A9        170192964704     
0010001300070U 020000000000000000000000000000000000000000000000000000000000000000000000000000000000000000000000000000000000000000000000002602201700000000            000000000000000                              000                           
0010001300071T 020180230000002544776 29647040705210680   7               03032017000000000006000001016179                         0900000000000010000000000000000000000000000000000000000   0000000000000000000000000A9        170192964704     
0010001300072U 020000000000000000000000000000000000000000000000000000000000000000000000000000000000000000000000000000000000000000000000000103201700000000            000000000000000                              000                           
0010001300073T 020180230000002544776 29647040705749344   7               02032017000000000006000001007145                         0900000000000010500000000000000000000000000000000000000   0000000000000000000000000A9A4      170192964704     
0010001300074U 020000000000000000000000000000000000000000000000000000000000000000000000000000000000000000000000000000000000000000000000002802201700000000            000000000000000                              000                           
0010001300075T 020180230000002544776 29647040708908423   7               03032017000000000006000001005428                         0900000000000010000000000000000000000000000000000000000   0000000000000000000000000A9        170192964704     
0010001300076U 020000000000000000000000000000000000000000000000000000000000000000000000000000000000000000000000000000000000000000000000000103201700000000            000000000000000                              000                           
0010001300077T 020180230000002544776 29647040715707351   7               0303201700000000000600000101284X                         0900000000000010000000000000000000000000000000000000000   0000000000000000000000000A9        170192964704     
0010001300078U 020000000000000000000000000000000000000000000000000000000000000000000000000000000000000000000000000000000000000000000000000103201700000000            000000000000000                              000                           
0010001300079T 020180230000002544776 29647040732050175   7               03032017000000000008000001012467                         0900000000000010000000000000000000000000000000000000000   0000000000000000000000000A9        170192964704     
0010001300080U 020000000000000000000000000000000000000000000000000000000000000000000000000000000000000000000000000000000000000000000000000103201700000000            000000000000000                              000                           
0010001300081T 020180230000002544776 29647040743035617   7               01032017000000000006000001028029                         0900000000000010000000000000000000000000000000000000000   0000000000000000000000000A9        170192964704     
0010001300082U 020000000000000000000000000000000000000000000000000000000000000000000000000000000000000000000000000000000000000000000000002702201700000000            000000000000000                              000                           
0010001300083T 020180230000002544776 29647040752510026   7               28022017000000000006000001000132                         0900000000000010000000000000000000000000000000000000000   0000000000000000000000000A9        170192964704     
0010001300084U 020000000000000000000000000000000000000000000000000000000000000000000000000000000000000000000000000000000000000000000000002602201700000000            000000000000000                              000                           
0010001300085T 020180230000002544776 29647040752815410   7               27022017000000000006000001010286                         0900000000000010000000000000000000000000000000000000000   0000000000000000000000000A9        170192964704     
0010001300086U 020000000000000000000000000000000000000000000000000000000000000000000000000000000000000000000000000000000000000000000000002502201700000000            000000000000000                              000                           
0010001300087T 020180230000002544776 29647040760038389   7               01032017000000000006000001000132                         0900000000000010000000000000000000000000000000000000000   0000000000000000000000000A9        170192964704     
0010001300088U 020000000000000000000000000000000000000000000000000000000000000000000000000000000000000000000000000000000000000000000000002702201700000000            000000000000000                              000                           
0010001300089T 020180230000002544776 29647040765019918   7               26022017000000000006000001000361                         0900000000000010500000000000000000000000000000000000000   0000000000000000000000000A9A4      170192964704     
0010001300090U 020000000000000000000000000000000000000000000000000000000000000000000000000000000000000000000000000000000000000000000000002402201700000000            000000000000000                              000                           
0010001300091T 020180230000002544776 29647040773327671   7               01032017000000000006000001016179                         0900000000000010000000000000000000000000000000000000000   0000000000000000000000000A9        170192964704     
0010001300092U 020000000000000000000000000000000000000000000000000000000000000000000000000000000000000000000000000000000000000000000000002702201700000000            000000000000000                              000                           
0010001300093T 020180230000002544776 29647040774108184   7               27022017000000000006000001033316                         0900000000000010000000000000000000000000000000000000000   0000000000000000000000000A9        170192964704     
0010001300094U 020000000000000000000000000000000000000000000000000000000000000000000000000000000000000000000000000000000000000000000000002502201700000000            000000000000000                              000                           
0010001300095T 020180230000002544776 29647040778455592   7               02032017000000000008000001012467                         0900000000000010000000000000000000000000000000000000000   0000000000000000000000000A9        170192964704     
0010001300096U 020000000000000000000000000000000000000000000000000000000000000000000000000000000000000000000000000000000000000000000000002802201700000000            000000000000000                              000                           
0010001300097T 020180230000002544776 29647040780329836   7               28022017000000000006000001001597                         0900000000000010000000000000000000000000000000000000000   0000000000000000000000000A9        170192964704     
0010001300098U 020000000000000000000000000000000000000000000000000000000000000000000000000000000000000000000000000000000000000000000000002602201700000000            000000000000000                              000                           
0010001300099T 020180230000002544776 29647040784119953   7               02032017000000000006000001000132                         0900000000000010000000000000000000000000000000000000000   0000000000000000000000000A9        170192964704     
0010001300100U 020000000000000000000000000000000000000000000000000000000000000000000000000000000000000000000000000000000000000000000000002802201700000000            000000000000000                              000                           
0010001300101T 020180230000002544776 29647040784133044   7               03032017000000000006000001000132                         0900000000000010000000000000000000000000000000000000000   0000000000000000000000000A9        170192964704     
0010001300102U 020000000000000000000000000000000000000000000000000000000000000000000000000000000000000000000000000000000000000000000000000103201700000000            000000000000000                              000                           
0010001300103T 020180230000002544776 29647040784816885   7               27022017000000000006000001003247                         0900000000000010000000000000000000000000000000000000000   0000000000000000000000000A9        170192964704     
0010001300104U 020000000000000000000000000000000000000000000000000000000000000000000000000000000000000000000000000000000000000000000000002502201700000000            000000000000000                              000                           
0010001300105T 020180230000002544776 29647040787137981   7               27022017000000000006000001023329                         0900000000000010000000000000000000000000000000000000000   0000000000000000000000000A9        170192964704     
0010001300106U 020000000000000000000000000000000000000000000000000000000000000000000000000000000000000000000000000000000000000000000000002502201700000000            000000000000000                              000                           
0010001300107T 020180230000002544776 29647040787235550   7               03032017000000000006000001008702                         0900000000000010500000000000000000000000000000000000000   0000000000000000000000000A9A4      170192964704     
0010001300108U 020000000000000000000000000000000000000000000000000000000000000000000000000000000000000000000000000000000000000000000000000103201700000000            000000000000000                              000                           
0010001300109T 020180230000002544776 29647040787638465   7               02032017000000000006000001012688                         0900000000000010000000000000000000000000000000000000000   0000000000000000000000000A9        170192964704     
0010001300110U 020000000000000000000000000000000000000000000000000000000000000000000000000000000000000000000000000000000000000000000000002802201700000000            000000000000000                              000                           
0010001300111T 020180230000002544776 29647040787937821   7               03032017000000000006000001001597                         0900000000000010000000000000000000000000000000000000000   0000000000000000000000000A9        170192964704     
0010001300112U 020000000000000000000000000000000000000000000000000000000000000000000000000000000000000000000000000000000000000000000000000103201700000000            000000000000000                              000                           
0010001300113T 020180230000002544776 29647040789942096   7               03032017000000000006000001000132                         0900000000000010000000000000000000000000000000000000000   0000000000000000000000000A9        170192964704     
0010001300114U 020000000000000000000000000000000000000000000000000000000000000000000000000000000000000000000000000000000000000000000000000103201700000000            000000000000000                              000                           
0010001300115T 020180230000002544776 29647040792754868   7               03032017000000000006000001028029                         0900000000000010000000000000000000000000000000000000000   0000000000000000000000000A9        170192964704     
0010001300116U 020000000000000000000000000000000000000000000000000000000000000000000000000000000000000000000000000000000000000000000000000103201700000000            000000000000000                              000                           
0010001300117T 020180230000002544776 29647040807210554   7               02032017000000000006000001024449                         0900000000000010000000000000000000000000000000000000000   0000000000000000000000000A9        170192964704     
0010001300118U 020000000000000000000000000000000000000000000000000000000000000000000000000000000000000000000000000000000000000000000000002802201700000000            000000000000000                              000                           
0010001300119T 020180230000002544776 29647040808831084   7               27022017000000000006000001028029                         0900000000000010000000000000000000000000000000000000000   0000000000000000000000000A9        170192964704     
0010001300120U 020000000000000000000000000000000000000000000000000000000000000000000000000000000000000000000000000000000000000000000000002502201700000000            000000000000000                              000                           
0010001300121T 020180230000002544776 29647040816528468   7               01032017000000000006000001025429                         0900000000000010000000000000000000000000000000000000000   0000000000000000000000000A9        170192964704     
0010001300122U 020000000000000000000000000000000000000000000000000000000000000000000000000000000000000000000000000000000000000000000000002702201700000000            000000000000000                              000                           
0010001300123T 020180230000002544776 29647040820630229   7               27022017000000000006000001028029                         0900000000000010000000000000000000000000000000000000000   0000000000000000000000000A9        170192964704     
0010001300124U 020000000000000000000000000000000000000000000000000000000000000000000000000000000000000000000000000000000000000000000000002502201700000000            000000000000000                              000                           
0010001300125T 020180230000002544776 29647040820708686   7               28022017000000000006000001000132                         0900000000000010000000000000000000000000000000000000000   0000000000000000000000000A9        170192964704     
0010001300126U 020000000000000000000000000000000000000000000000000000000000000000000000000000000000000000000000000000000000000000000000002602201700000000            000000000000000                              000                           
0010001300127T 020180230000002544776 29647040826015976   7               27022017000000000008000001028029                         0900000000000010000000000000000000000000000000000000000   0000000000000000000000000A9        170192964704     
0010001300128U 020000000000000000000000000000000000000000000000000000000000000000000000000000000000000000000000000000000000000000000000002502201700000000            000000000000000                              000                           
0010001300129T 020180230000002544776 29647040827212069   7               01032017000000000008000001033316                         0900000000000010000000000000000000000000000000000000000   0000000000000000000000000A9        170192964704     
0010001300130U 020000000000000000000000000000000000000000000000000000000000000000000000000000000000000000000000000000000000000000000000002702201700000000            000000000000000                              000                           
0010001300131T 020180230000002544776 29647040829815539   7               27022017000000000006000001016179                         0900000000000010000000000000000000000000000000000000000   0000000000000000000000000A9        170192964704     
0010001300132U 020000000000000000000000000000000000000000000000000000000000000000000000000000000000000000000000000000000000000000000000002502201700000000            000000000000000                              000                           
0010001300133T 020180230000002544776 29647040832221388   7               03032017000000000006000001011371                         0900000000000010000000000000000000000000000000000000000   0000000000000000000000000A9        170192964704     
0010001300134U 020000000000000000000000000000000000000000000000000000000000000000000000000000000000000000000000000000000000000000000000000103201700000000            000000000000000                              000                           
0010001300135T 020180230000002544776 29647040838125885   7               02032017000000000006000001024376                         0900000000000010500000000000000000000000000000000000000   0000000000000000000000000A9A4      170192964704     
0010001300136U 020000000000000000000000000000000000000000000000000000000000000000000000000000000000000000000000000000000000000000000000002802201700000000            000000000000000                              000                           
0010001300137T 020180230000002544776 29647040847654439   7               03032017000000000006000001007145                         0900000000000010000000000000000000000000000000000000000   0000000000000000000000000A9        170192964704     
0010001300138U 020000000000000000000000000000000000000000000000000000000000000000000000000000000000000000000000000000000000000000000000000103201700000000            000000000000000                              000                           
0010001300139T 020180230000002544776 29647040848244743   7               03032017000000000006000001000132                         0900000000000010000000000000000000000000000000000000000   0000000000000000000000000A9        170192964704     
0010001300140U 020000000000000000000000000000000000000000000000000000000000000000000000000000000000000000000000000000000000000000000000000103201700000000            000000000000000                              000                           
0010001300141T 020180230000002544776 29647040851846483   7               03032017000000000006000001000671                         0900000000000010000000000000000000000000000000000000000   0000000000000000000000000A9        170192964704     
0010001300142U 020000000000000000000000000000000000000000000000000000000000000000000000000000000000000000000000000000000000000000000000000103201700000000            000000000000000                              000                           
0010001300143T 020180230000002544776 29647040852831555   7               02032017000000000006000001001597                         0900000000000010000000000000000000000000000000000000000   0000000000000000000000000A9        170192964704     
0010001300144U 020000000000000000000000000000000000000000000000000000000000000000000000000000000000000000000000000000000000000000000000002802201700000000            000000000000000                              000                           
0010001300145T 020180230000002544776 29647040853826196   7               01032017000000000006000001028029                         0900000000000010000000000000000000000000000000000000000   0000000000000000000000000A9        170192964704     
0010001300146U 020000000000000000000000000000000000000000000000000000000000000000000000000000000000000000000000000000000000000000000000002702201700000000            000000000000000                              000                           
0010001300147T 020180230000002544776 29647040853832516   7               28022017000000000006000001028029                         0900000000000010000000000000000000000000000000000000000   0000000000000000000000000A9        170192964704     
0010001300148U 020000000000000000000000000000000000000000000000000000000000000000000000000000000000000000000000000000000000000000000000002602201700000000            000000000000000                              000                           
0010001300149T 020180230000002544776 29647040853859886   7               03032017000000000006000001028029                         0900000000000010000000000000000000000000000000000000000   0000000000000000000000000A9        170192964704     
0010001300150U 020000000000000000000000000000000000000000000000000000000000000000000000000000000000000000000000000000000000000000000000000103201700000000            000000000000000                              000                           
0010001300151T 020180230000002544776 29647040858231919   7               02032017000000000006000001012467                         0900000000000010000000000000000000000000000000000000000   0000000000000000000000000A9        170192964704     
0010001300152U 020000000000000000000000000000000000000000000000000000000000000000000000000000000000000000000000000000000000000000000000002802201700000000            000000000000000                              000                           
0010001300153T 020180230000002544776 29647040858242508   7               02032017000000000006000001012467                         0900000000000010000000000000000000000000000000000000000   0000000000000000000000000A9        170192964704     
0010001300154U 020000000000000000000000000000000000000000000000000000000000000000000000000000000000000000000000000000000000000000000000002802201700000000            000000000000000                              000                           
0010001300155T 020180230000002544776 29647040858257607   7               02032017000000000006000001012467                         0900000000000010000000000000000000000000000000000000000   0000000000000000000000000A9        170192964704     
0010001300156U 020000000000000000000000000000000000000000000000000000000000000000000000000000000000000000000000000000000000000000000000002802201700000000            000000000000000                              000                           
0010001300157T 020180230000002544776 29647040859734560   7               03032017000000000008000001008214                         0900000000000010000000000000000000000000000000000000000   0000000000000000000000000A9        170192964704     
0010001300158U 020000000000000000000000000000000000000000000000000000000000000000000000000000000000000000000000000000000000000000000000000103201700000000            000000000000000                              000                           
0010001300159T 020180230000002544776 29647040860111074   7               03032017000000000006000001012467                         0900000000000010000000000000000000000000000000000000000   0000000000000000000000000A9        170192964704     
0010001300160U 020000000000000000000000000000000000000000000000000000000000000000000000000000000000000000000000000000000000000000000000000103201700000000            000000000000000                              000                           
0010001300161T 020180230000002544776 29647040860128524   7               03032017000000000006000001012467                         0900000000000010000000000000000000000000000000000000000   0000000000000000000000000A9        170192964704     
0010001300162U 020000000000000000000000000000000000000000000000000000000000000000000000000000000000000000000000000000000000000000000000000103201700000000            000000000000000                              000                           
0010001300163T 020180230000002544776 29647040861124387   7               27022017000000000006000001020478                         0900000000000010500000000000000000000000000000000000000   0000000000000000000000000A9A4      170192964704     
0010001300164U 020000000000000000000000000000000000000000000000000000000000000000000000000000000000000000000000000000000000000000000000002502201700000000            000000000000000                              000                           
0010001300165T 020180230000002544776 29647040861158565   7               27022017000000000006000001020478                         0900000000000010500000000000000000000000000000000000000   0000000000000000000000000A9A4      170192964704     
0010001300166U 020000000000000000000000000000000000000000000000000000000000000000000000000000000000000000000000000000000000000000000000002502201700000000            000000000000000                              000                           
0010001300167T 020180230000002544776 29647040866631292   7               03032017000000000006000001016179                         0900000000000010000000000000000000000000000000000000000   0000000000000000000000000A9        170192964704     
0010001300168U 020000000000000000000000000000000000000000000000000000000000000000000000000000000000000000000000000000000000000000000000000103201700000000            000000000000000                              000                           
0010001300169T 020180230000002544776 29647040873118795   7               03032017000000000006000001028029                         0900000000000010000000000000000000000000000000000000000   0000000000000000000000000A9        170192964704     
0010001300170U 020000000000000000000000000000000000000000000000000000000000000000000000000000000000000000000000000000000000000000000000000103201700000000            000000000000000                              000                           
0010001300171T 020180230000002544776 29647040874750921   7               28022017000000000006000001016179                         0900000000000010000000000000000000000000000000000000000   0000000000000000000000000A9        170192964704     
0010001300172U 020000000000000000000000000000000000000000000000000000000000000000000000000000000000000000000000000000000000000000000000002602201700000000            000000000000000                              000                           
0010001300173T 020180230000002544776 29647040874953077   7               03032017000000000008000001012467                         0900000000000010000000000000000000000000000000000000000   0000000000000000000000000A9        170192964704     
0010001300174U 020000000000000000000000000000000000000000000000000000000000000000000000000000000000000000000000000000000000000000000000000103201700000000            000000000000000                              000                           
0010001300175T 020180230000002544776 29647040878100736   7               01032017000000000008000001033316                         0900000000000010500000000000000000000000000000000000000   0000000000000000000000000A9A4      170192964704     
0010001300176U 020000000000000000000000000000000000000000000000000000000000000000000000000000000000000000000000000000000000000000000000002702201700000000            000000000000000                              000                           
0010001300177T 020180230000002544776 29647040879500649   7               03032017000000000008000001016179                         0900000000000010500000000000000000000000000000000000000   0000000000000000000000000A9A4      170192964704     
0010001300178U 020000000000000000000000000000000000000000000000000000000000000000000000000000000000000000000000000000000000000000000000000103201700000000            000000000000000                              000                           
0010001300179T 020180230000002544776 29647040881517568   7               01032017000000000006000001018376                         0900000000000010500000000000000000000000000000000000000   0000000000000000000000000A9A4      170192964704     
0010001300180U 020000000000000000000000000000000000000000000000000000000000000000000000000000000000000000000000000000000000000000000000002702201700000000            000000000000000                              000                           
0010001300181T 020180230000002544776 29647040883516287   7               03032017000000000006000001009636                         0900000000000010000000000000000000000000000000000000000   0000000000000000000000000A9        170192964704     
0010001300182U 020000000000000000000000000000000000000000000000000000000000000000000000000000000000000000000000000000000000000000000000000103201700000000            000000000000000                              000                           
0010001300183T 020180230000002544776 29647040885506694   7               03032017000000000006000001028495                         0900000000000010000000000000000000000000000000000000000   0000000000000000000000000A9        170192964704     
0010001300184U 020000000000000000000000000000000000000000000000000000000000000000000000000000000000000000000000000000000000000000000000000103201700000000            000000000000000                              000                           
0010001300185T 020180230000002544776 29647040886718987   7               27022017000000000006000001016179                         0900000000000010000000000000000000000000000000000000000   0000000000000000000000000A9        170192964704     
0010001300186U 020000000000000000000000000000000000000000000000000000000000000000000000000000000000000000000000000000000000000000000000002502201700000000            000000000000000                              000                           
0010001300187T 020180230000002544776 29647040888723235   7               27022017000000000006000001028029                         0900000000000010000000000000000000000000000000000000000   0000000000000000000000000A9        170192964704     
0010001300188U 020000000000000000000000000000000000000000000000000000000000000000000000000000000000000000000000000000000000000000000000002502201700000000            000000000000000                              000                           
0010001300189T 020180230000002544776 29647040893335678   7               03032017000000000008000001012467                         0900000000000010000000000000000000000000000000000000000   0000000000000000000000000A9        170192964704     
0010001300190U 020000000000000000000000000000000000000000000000000000000000000000000000000000000000000000000000000000000000000000000000000103201700000000            000000000000000                              000                           
0010001300191T 020180230000002544776 29647040894700682   7               01032017000000000006000001023264                         0900000000000010000000000000000000000000000000000000000   0000000000000000000000000A9        170192964704     
0010001300192U 020000000000000000000000000000000000000000000000000000000000000000000000000000000000000000000000000000000000000000000000002702201700000000            000000000000000                              000                           
0010001300193T 020180230000002544776 29647040896618884   7               03032017000000000006000001012467                         0900000000000010000000000000000000000000000000000000000   0000000000000000000000000A9        170192964704     
0010001300194U 020000000000000000000000000000000000000000000000000000000000000000000000000000000000000000000000000000000000000000000000000103201700000000            000000000000000                              000                           
0010001300195T 020180230000002544776 29647040897215108   7               02032017000000000006000001033316                         0900000000000010000000000000000000000000000000000000000   0000000000000000000000000A9        170192964704     
0010001300196U 020000000000000000000000000000000000000000000000000000000000000000000000000000000000000000000000000000000000000000000000002802201700000000            000000000000000                              000                           
0010001300197T 020180230000002544776 29647040900455445   7               02032017000000000006000001028029                         0900000000000010000000000000000000000000000000000000000   0000000000000000000000000A9        170192964704     
0010001300198U 020000000000000000000000000000000000000000000000000000000000000000000000000000000000000000000000000000000000000000000000002802201700000000            000000000000000                              000                           
0010001300199T 020180230000002544776 29647040904549221   7               01032017000000000006000001016179                         0900000000000010000000000000000000000000000000000000000   0000000000000000000000000A9        170192964704     
0010001300200U 020000000000000000000000000000000000000000000000000000000000000000000000000000000000000000000000000000000000000000000000002702201700000000            000000000000000                              000                           
0010001300201T 020180230000002544776 29647040907107262   7               03032017000000000006000001028029                         0900000000000010000000000000000000000000000000000000000   0000000000000000000000000A9        170192964704     
0010001300202U 020000000000000000000000000000000000000000000000000000000000000000000000000000000000000000000000000000000000000000000000000103201700000000            000000000000000                              000                           
0010001300203T 020180230000002544776 29647040907155531   7               03032017000000000006000001028029                         0900000000000010000000000000000000000000000000000000000   0000000000000000000000000A9        170192964704     
0010001300204U 020000000000000000000000000000000000000000000000000000000000000000000000000000000000000000000000000000000000000000000000000103201700000000            000000000000000                              000                           
0010001300205T 020180230000002544776 29647040911841501   7               01032017000000000006000001011274                         0900000000000010000000000000000000000000000000000000000   0000000000000000000000000A9        170192964704     
0010001300206U 020000000000000000000000000000000000000000000000000000000000000000000000000000000000000000000000000000000000000000000000002702201700000000            000000000000000                              000                           
0010001300207T 020180230000002544776 29647040911916678   7               2702201700000000000800000101981X                         0900000000000010000000000000000000000000000000000000000   0000000000000000000000000A9        170192964704     
0010001300208U 020000000000000000000000000000000000000000000000000000000000000000000000000000000000000000000000000000000000000000000000002502201700000000            000000000000000                              000                           
0010001300209T 020180230000002544776 29647040917016291   7               27022017000000000006000001008214                         0900000000000010000000000000000000000000000000000000000   0000000000000000000000000A9        170192964704     
0010001300210U 020000000000000000000000000000000000000000000000000000000000000000000000000000000000000000000000000000000000000000000000002502201700000000            000000000000000                              000                           
0010001300211T 020180230000002544776 29647040917236494   7               26022017000000000006000001000132                         0900000000000010000000000000000000000000000000000000000   0000000000000000000000000A9        170192964704     
0010001300212U 020000000000000000000000000000000000000000000000000000000000000000000000000000000000000000000000000000000000000000000000002402201700000000            000000000000000                              000                           
0010001300213T 020180230000002544776 29647040917445406   7               27022017000000000006000001000132                         0900000000000010000000000000000000000000000000000000000   0000000000000000000000000A9        170192964704     
0010001300214U 020000000000000000000000000000000000000000000000000000000000000000000000000000000000000000000000000000000000000000000000002502201700000000            000000000000000                              000                           
0010001300215T 020180230000002544776 29647040917456491   7               26022017000000000006000001000132                         0900000000000010000000000000000000000000000000000000000   0000000000000000000000000A9        170192964704     
0010001300216U 020000000000000000000000000000000000000000000000000000000000000000000000000000000000000000000000000000000000000000000000002402201700000000            000000000000000                              000                           
0010001300217T 020180230000002544776 29647040917517542   7               26022017000000000008000001005428                         0900000000000010000000000000000000000000000000000000000   0000000000000000000000000A9        170192964704     
0010001300218U 020000000000000000000000000000000000000000000000000000000000000000000000000000000000000000000000000000000000000000000000002402201700000000            000000000000000                              000                           
0010001300219T 020180230000002544776 29647040917814157   7               02032017000000000006000001033316                         0900000000000010000000000000000000000000000000000000000   0000000000000000000000000A9        170192964704     
0010001300220U 020000000000000000000000000000000000000000000000000000000000000000000000000000000000000000000000000000000000000000000000002802201700000000            000000000000000                              000                           
0010001300221T 020180230000002544776 29647040917816969   7               26022017000000000006000001033316                         0900000000000010000000000000000000000000000000000000000   0000000000000000000000000A9        170192964704     
0010001300222U 020000000000000000000000000000000000000000000000000000000000000000000000000000000000000000000000000000000000000000000000002402201700000000            000000000000000                              000                           
0010001300223T 020180230000002544776 29647040918106330   7               26022017000000000006000001018376                         0900000000000010500000000000000000000000000000000000000   0000000000000000000000000A9A4      170192964704     
0010001300224U 020000000000000000000000000000000000000000000000000000000000000000000000000000000000000000000000000000000000000000000000002402201700000000            000000000000000                              000                           
0010001300225T 020180230000002544776 29647040918529239   7               27022017000000000006000001018376                         0900000000000010000000000000000000000000000000000000000   0000000000000000000000000A9        170192964704     
0010001300226U 020000000000000000000000000000000000000000000000000000000000000000000000000000000000000000000000000000000000000000000000002502201700000000            000000000000000                              000                           
0010001300227T 020180230000002544776 29647040918638625   7               27022017000000000006000001000132                         0900000000000010000000000000000000000000000000000000000   0000000000000000000000000A9        170192964704     
0010001300228U 020000000000000000000000000000000000000000000000000000000000000000000000000000000000000000000000000000000000000000000000002502201700000000            000000000000000                              000                           
0010001300229T 020180230000002544776 29647040919047164   7               27022017000000000006000001012386                         0900000000000010000000000000000000000000000000000000000   0000000000000000000000000A9        170192964704     
0010001300230U 020000000000000000000000000000000000000000000000000000000000000000000000000000000000000000000000000000000000000000000000002502201700000000            000000000000000                              000                           
0010001300231T 020180230000002544776 29647040919520110   7               27022017000000000006000001028029                         0900000000000010000000000000000000000000000000000000000   0000000000000000000000000A9        170192964704     
0010001300232U 020000000000000000000000000000000000000000000000000000000000000000000000000000000000000000000000000000000000000000000000002502201700000000            000000000000000                              000                           
0010001300233T 020180230000002544776 29647040919836991   7               27022017000000000006000001000132                         0900000000000010000000000000000000000000000000000000000   0000000000000000000000000A9        170192964704     
0010001300234U 020000000000000000000000000000000000000000000000000000000000000000000000000000000000000000000000000000000000000000000000002502201700000000            000000000000000                              000                           
0010001300235T 020180230000002544776 29647040919839715   7               27022017000000000006000001000132                         0900000000000010000000000000000000000000000000000000000   0000000000000000000000000A9        170192964704     
0010001300236U 020000000000000000000000000000000000000000000000000000000000000000000000000000000000000000000000000000000000000000000000002502201700000000            000000000000000                              000                           
0010001300237T 020180230000002544776 29647040920018824   7               27022017000000000008000001005703                         0900000000000010000000000000000000000000000000000000000   0000000000000000000000000A9        170192964704     
0010001300238U 020000000000000000000000000000000000000000000000000000000000000000000000000000000000000000000000000000000000000000000000002502201700000000            000000000000000                              000                           
0010001300239T 020180230000002544776 29647040920102553   7               27022017000000000008000001001597                         0900000000000010000000000000000000000000000000000000000   0000000000000000000000000A9        170192964704     
0010001300240U 020000000000000000000000000000000000000000000000000000000000000000000000000000000000000000000000000000000000000000000000002502201700000000            000000000000000                              000                           
0010001300241T 020180230000002544776 29647040920108398   7               01032017000000000008000001001597                         0900000000000010000000000000000000000000000000000000000   0000000000000000000000000A9        170192964704     
0010001300242U 020000000000000000000000000000000000000000000000000000000000000000000000000000000000000000000000000000000000000000000000002702201700000000            000000000000000                              000                           
0010001300243T 020180230000002544776 29647040920241881   7               27022017000000000006000001001597                         0900000000000010000000000000000000000000000000000000000   0000000000000000000000000A9        170192964704     
0010001300244U 020000000000000000000000000000000000000000000000000000000000000000000000000000000000000000000000000000000000000000000000002502201700000000            000000000000000                              000                           
0010001300245T 020180230000002544776 29647040920244638   7               01032017000000000006000001001597                         0900000000000010000000000000000000000000000000000000000   0000000000000000000000000A9        170192964704     
0010001300246U 020000000000000000000000000000000000000000000000000000000000000000000000000000000000000000000000000000000000000000000000002702201700000000            000000000000000                              000                           
0010001300247T 020180230000002544776 29647040920532443   7               27022017000000000008000001028029                         0900000000000010000000000000000000000000000000000000000   0000000000000000000000000A9        170192964704     
0010001300248U 020000000000000000000000000000000000000000000000000000000000000000000000000000000000000000000000000000000000000000000000002502201700000000            000000000000000                              000                           
0010001300249T 020180230000002544776 29647040920801961   7               27022017000000000006000001028029                         0900000000000010500000000000000000000000000000000000000   0000000000000000000000000A9A4      170192964704     
0010001300250U 020000000000000000000000000000000000000000000000000000000000000000000000000000000000000000000000000000000000000000000000002502201700000000            000000000000000                              000                           
0010001300251T 020180230000002544776 29647040921100154   7               01032017000000000008000001028029                         0900000000000010000000000000000000000000000000000000000   0000000000000000000000000A9        170192964704     
0010001300252U 020000000000000000000000000000000000000000000000000000000000000000000000000000000000000000000000000000000000000000000000002702201700000000            000000000000000                              000                           
0010001300253T 020180230000002544776 29647040921339240   7               27022017000000000006000001025429                         0900000000000010000000000000000000000000000000000000000   0000000000000000000000000A9        170192964704     
0010001300254U 020000000000000000000000000000000000000000000000000000000000000000000000000000000000000000000000000000000000000000000000002502201700000000            000000000000000                              000                           
0010001300255T 020180230000002544776 29647040921605291   7               27022017000000000008000001008214                         0900000000000010000000000000000000000000000000000000000   0000000000000000000000000A9        170192964704     
0010001300256U 020000000000000000000000000000000000000000000000000000000000000000000000000000000000000000000000000000000000000000000000002502201700000000            000000000000000                              000                           
0010001300257T 020180230000002544776 29647040921630597   7               03032017000000000008000001008214                         0900000000000010000000000000000000000000000000000000000   0000000000000000000000000A9        170192964704     
0010001300258U 020000000000000000000000000000000000000000000000000000000000000000000000000000000000000000000000000000000000000000000000000103201700000000            000000000000000                              000                           
0010001300259T 020180230000002544776 29647040921943404   7               27022017000000000008000001016179                         0900000000000010000000000000000000000000000000000000000   0000000000000000000000000A9        170192964704     
0010001300260U 020000000000000000000000000000000000000000000000000000000000000000000000000000000000000000000000000000000000000000000000002502201700000000            000000000000000                              000                           
0010001300261T 020180230000002544776 29647040921945709   7               27022017000000000008000001016179                         0900000000000010000000000000000000000000000000000000000   0000000000000000000000000A9        170192964704     
0010001300262U 020000000000000000000000000000000000000000000000000000000000000000000000000000000000000000000000000000000000000000000000002502201700000000            000000000000000                              000                           
0010001300263T 020180230000002544776 29647040922055273   7               27022017000000000006000001016179                         0900000000000010000000000000000000000000000000000000000   0000000000000000000000000A9        170192964704     
0010001300264U 020000000000000000000000000000000000000000000000000000000000000000000000000000000000000000000000000000000000000000000000002502201700000000            000000000000000                              000                           
0010001300265T 020180230000002544776 29647040922209938   7               27022017000000000006000001001597                         0900000000000010000000000000000000000000000000000000000   0000000000000000000000000A9        170192964704     
0010001300266U 020000000000000000000000000000000000000000000000000000000000000000000000000000000000000000000000000000000000000000000000002502201700000000            000000000000000                              000                           
0010001300267T 020180230000002544776 29647040922221501   7               27022017000000000006000001001597                         0900000000000010000000000000000000000000000000000000000   0000000000000000000000000A9        170192964704     
0010001300268U 020000000000000000000000000000000000000000000000000000000000000000000000000000000000000000000000000000000000000000000000002502201700000000            000000000000000                              000                           
0010001300269T 020180230000002544776 29647040922224152   7               27022017000000000006000001001597                         0900000000000010000000000000000000000000000000000000000   0000000000000000000000000A9        170192964704     
0010001300270U 020000000000000000000000000000000000000000000000000000000000000000000000000000000000000000000000000000000000000000000000002502201700000000            000000000000000                              000                           
0010001300271T 020180230000002544776 29647040922307893   7               27022017000000000006000001023655                         0900000000000010000000000000000000000000000000000000000   0000000000000000000000000A9        170192964704     
0010001300272U 020000000000000000000000000000000000000000000000000000000000000000000000000000000000000000000000000000000000000000000000002502201700000000            000000000000000                              000                           
0010001300273T 020180230000002544776 29647040922724162   7               27022017000000000006000001028029                         0900000000000010000000000000000000000000000000000000000   0000000000000000000000000A9        170192964704     
0010001300274U 020000000000000000000000000000000000000000000000000000000000000000000000000000000000000000000000000000000000000000000000002502201700000000            000000000000000                              000                           
0010001300275T 020180230000002544776 29647040922735822   7               27022017000000000006000001028029                         0900000000000010000000000000000000000000000000000000000   0000000000000000000000000A9        170192964704     
0010001300276U 020000000000000000000000000000000000000000000000000000000000000000000000000000000000000000000000000000000000000000000000002502201700000000            000000000000000                              000                           
0010001300277T 020180230000002544776 29647040922740555   7               27022017000000000006000001028029                         0900000000000010000000000000000000000000000000000000000   0000000000000000000000000A9        170192964704     
0010001300278U 020000000000000000000000000000000000000000000000000000000000000000000000000000000000000000000000000000000000000000000000002502201700000000            000000000000000                              000                           
0010001300279T 020180230000002544776 29647040922842813   7               27022017000000000006000001008249                         0900000000000010000000000000000000000000000000000000000   0000000000000000000000000A9        170192964704     
0010001300280U 020000000000000000000000000000000000000000000000000000000000000000000000000000000000000000000000000000000000000000000000002502201700000000            000000000000000                              000                           
0010001300281T 020180230000002544776 29647040922858275   7               27022017000000000006000001008249                         0900000000000010000000000000000000000000000000000000000   0000000000000000000000000A9        170192964704     
0010001300282U 020000000000000000000000000000000000000000000000000000000000000000000000000000000000000000000000000000000000000000000000002502201700000000            000000000000000                              000                           
0010001300283T 020180230000002544776 29647040923142966   7               27022017000000000006000001000132                         0900000000000010000000000000000000000000000000000000000   0000000000000000000000000A9        170192964704     
0010001300284U 020000000000000000000000000000000000000000000000000000000000000000000000000000000000000000000000000000000000000000000000002502201700000000            000000000000000                              000                           
0010001300285T 020180230000002544776 29647040923225692   7               27022017000000000006000001018376                         0900000000000010000000000000000000000000000000000000000   0000000000000000000000000A9        170192964704     
0010001300286U 020000000000000000000000000000000000000000000000000000000000000000000000000000000000000000000000000000000000000000000000002502201700000000            000000000000000                              000                           
0010001300287T 020180230000002544776 29647040923245545   7               27022017000000000006000001018376                         0900000000000010000000000000000000000000000000000000000   0000000000000000000000000A9        170192964704     
0010001300288U 020000000000000000000000000000000000000000000000000000000000000000000000000000000000000000000000000000000000000000000000002502201700000000            000000000000000                              000                           
0010001300289T 020180230000002544776 29647040923405636   7               27022017000000000006000001008214                         0900000000000010500000000000000000000000000000000000000   0000000000000000000000000A9A4      170192964704     
0010001300290U 020000000000000000000000000000000000000000000000000000000000000000000000000000000000000000000000000000000000000000000000002502201700000000            000000000000000                              000                           
0010001300291T 020180230000002544776 29647040923428651   7               27022017000000000006000001008214                         0900000000000010500000000000000000000000000000000000000   0000000000000000000000000A9A4      170192964704     
0010001300292U 020000000000000000000000000000000000000000000000000000000000000000000000000000000000000000000000000000000000000000000000002502201700000000            000000000000000                              000                           
0010001300293T 020180230000002544776 29647040923432645   7               27022017000000000006000001008214                         0900000000000010500000000000000000000000000000000000000   0000000000000000000000000A9A4      170192964704     
0010001300294U 020000000000000000000000000000000000000000000000000000000000000000000000000000000000000000000000000000000000000000000000002502201700000000            000000000000000                              000                           
0010001300295T 020180230000002544776 29647040923552629   7               27022017000000000008000001000132                         0900000000000010000000000000000000000000000000000000000   0000000000000000000000000A9        170192964704     
0010001300296U 020000000000000000000000000000000000000000000000000000000000000000000000000000000000000000000000000000000000000000000000002502201700000000            000000000000000                              000                           
0010001300297T 020180230000002544776 29647040923905024   7               27022017000000000006000001024252                         0900000000000010500000000000000000000000000000000000000   0000000000000000000000000A9A4      170192964704     
0010001300298U 020000000000000000000000000000000000000000000000000000000000000000000000000000000000000000000000000000000000000000000000002502201700000000            000000000000000                              000                           
0010001300299T 020180230000002544776 29647040923919999   7               27022017000000000006000001024252                         0900000000000010500000000000000000000000000000000000000   0000000000000000000000000A9A4      170192964704     
0010001300300U 020000000000000000000000000000000000000000000000000000000000000000000000000000000000000000000000000000000000000000000000002502201700000000            000000000000000                              000                           
0010001300301T 020180230000002544776 29647040924125895   7               27022017000000000006000001009636                         0900000000000010000000000000000000000000000000000000000   0000000000000000000000000A9        170192964704     
0010001300302U 020000000000000000000000000000000000000000000000000000000000000000000000000000000000000000000000000000000000000000000000002502201700000000            000000000000000                              000                           
0010001300303T 020180230000002544776 29647040924432786   7               27022017000000000006000001022748                         0900000000000010000000000000000000000000000000000000000   0000000000000000000000000A9        170192964704     
0010001300304U 020000000000000000000000000000000000000000000000000000000000000000000000000000000000000000000000000000000000000000000000002502201700000000            000000000000000                              000                           
0010001300305T 020180230000002544776 29647040924802477   7               28022017000000000006000001016179                         0900000000000010000000000000000000000000000000000000000   0000000000000000000000000A9        170192964704     
0010001300306U 020000000000000000000000000000000000000000000000000000000000000000000000000000000000000000000000000000000000000000000000002602201700000000            000000000000000                              000                           
0010001300307T 020180230000002544776 29647040925238748   7               28022017000000000006000001000132                         0900000000000010000000000000000000000000000000000000000   0000000000000000000000000A9        170192964704     
0010001300308U 020000000000000000000000000000000000000000000000000000000000000000000000000000000000000000000000000000000000000000000000002602201700000000            000000000000000                              000                           
0010001300309T 020180230000002544776 29647040925358269   7               28022017000000000006000001016179                         0900000000000010000000000000000000000000000000000000000   0000000000000000000000000A9        170192964704     
0010001300310U 020000000000000000000000000000000000000000000000000000000000000000000000000000000000000000000000000000000000000000000000002602201700000000            000000000000000                              000                           
0010001300311T 020180230000002544776 29647040925431029   7               28022017000000000006000001018376                         0900000000000010000000000000000000000000000000000000000   0000000000000000000000000A9        170192964704     
0010001300312U 020000000000000000000000000000000000000000000000000000000000000000000000000000000000000000000000000000000000000000000000002602201700000000            000000000000000                              000                           
0010001300313T 020180230000002544776 29647040926030254   7               28022017000000000006000001016179                         0900000000000010000000000000000000000000000000000000000   0000000000000000000000000A9        170192964704     
0010001300314U 020000000000000000000000000000000000000000000000000000000000000000000000000000000000000000000000000000000000000000000000002602201700000000            000000000000000                              000                           
0010001300315T 020180230000002544776 29647040926048834   7               28022017000000000006000001016179                         0900000000000010000000000000000000000000000000000000000   0000000000000000000000000A9        170192964704     
0010001300316U 020000000000000000000000000000000000000000000000000000000000000000000000000000000000000000000000000000000000000000000000002602201700000000            000000000000000                              000                           
0010001300317T 020180230000002544776 29647040926236748   7               28022017000000000008000001033316                         0900000000000010000000000000000000000000000000000000000   0000000000000000000000000A9        170192964704     
0010001300318U 020000000000000000000000000000000000000000000000000000000000000000000000000000000000000000000000000000000000000000000000002602201700000000            000000000000000                              000                           
0010001300319T 020180230000002544776 29647040926337493   7               28022017000000000006000001028029                         0900000000000010000000000000000000000000000000000000000   0000000000000000000000000A9        170192964704     
0010001300320U 020000000000000000000000000000000000000000000000000000000000000000000000000000000000000000000000000000000000000000000000002602201700000000            000000000000000                              000                           
0010001300321T 020180230000002544776 29647040926536596   7               28022017000000000006000001033316                         0900000000000010500000000000000000000000000000000000000   0000000000000000000000000A9A4      170192964704     
0010001300322U 020000000000000000000000000000000000000000000000000000000000000000000000000000000000000000000000000000000000000000000000002602201700000000            000000000000000                              000                           
0010001300323T 020180230000002544776 29647040926805309   7               28022017000000000006000001028029                         0900000000000010000000000000000000000000000000000000000   0000000000000000000000000A9        170192964704     
0010001300324U 020000000000000000000000000000000000000000000000000000000000000000000000000000000000000000000000000000000000000000000000002602201700000000            000000000000000                              000                           
0010001300325T 020180230000002544776 29647040926957708   7               28022017000000000006000001000132                         0900000000000010000000000000000000000000000000000000000   0000000000000000000000000A9        170192964704     
0010001300326U 020000000000000000000000000000000000000000000000000000000000000000000000000000000000000000000000000000000000000000000000002602201700000000            000000000000000                              000                           
0010001300327T 020180230000002544776 29647040927244330   7               28022017000000000006000001008214                         0900000000000010000000000000000000000000000000000000000   0000000000000000000000000A9        170192964704     
0010001300328U 020000000000000000000000000000000000000000000000000000000000000000000000000000000000000000000000000000000000000000000000002602201700000000            000000000000000                              000                           
0010001300329T 020180230000002544776 29647040927340280   7               28022017000000000006000001000132                         0900000000000010000000000000000000000000000000000000000   0000000000000000000000000A9        170192964704     
0010001300330U 020000000000000000000000000000000000000000000000000000000000000000000000000000000000000000000000000000000000000000000000002602201700000000            000000000000000                              000                           
0010001300331T 020180230000002544776 29647040927714882   7               28022017000000000006000001035033                         0900000000000010000000000000000000000000000000000000000   0000000000000000000000000A9        170192964704     
0010001300332U 020000000000000000000000000000000000000000000000000000000000000000000000000000000000000000000000000000000000000000000000002602201700000000            000000000000000                              000                           
0010001300333T 020180230000002544776 29647040927741674   7               28022017000000000006000001035033                         0900000000000010000000000000000000000000000000000000000   0000000000000000000000000A9        170192964704     
0010001300334U 020000000000000000000000000000000000000000000000000000000000000000000000000000000000000000000000000000000000000000000000002602201700000000            000000000000000                              000                           
0010001300335T 020180230000002544776 29647040927852766   7               28022017000000000006000001016179                         0900000000000010000000000000000000000000000000000000000   0000000000000000000000000A9        170192964704     
0010001300336U 020000000000000000000000000000000000000000000000000000000000000000000000000000000000000000000000000000000000000000000000002602201700000000            000000000000000                              000                           
0010001300337T 020180230000002544776 29647040927942572   7               28022017000000000006000001033316                         0900000000000010000000000000000000000000000000000000000   0000000000000000000000000A9        170192964704     
0010001300338U 020000000000000000000000000000000000000000000000000000000000000000000000000000000000000000000000000000000000000000000000002602201700000000            000000000000000                              000                           
0010001300339T 020180230000002544776 29647040927948885   7               01032017000000000006000001033316                         0900000000000010000000000000000000000000000000000000000   0000000000000000000000000A9        170192964704     
0010001300340U 020000000000000000000000000000000000000000000000000000000000000000000000000000000000000000000000000000000000000000000000002702201700000000            000000000000000                              000                           
0010001300341T 020180230000002544776 29647040928202616   7               28022017000000000006000001018376                         0900000000000010000000000000000000000000000000000000000   0000000000000000000000000A9        170192964704     
0010001300342U 020000000000000000000000000000000000000000000000000000000000000000000000000000000000000000000000000000000000000000000000002602201700000000            000000000000000                              000                           
0010001300343T 020180230000002544776 29647040928300538   7               28022017000000000006000001028029                         0900000000000010000000000000000000000000000000000000000   0000000000000000000000000A9        170192964704     
0010001300344U 020000000000000000000000000000000000000000000000000000000000000000000000000000000000000000000000000000000000000000000000002602201700000000            000000000000000                              000                           
0010001300345T 020180230000002544776 29647040928526867   7               28022017000000000006000001000132                         0900000000000010000000000000000000000000000000000000000   0000000000000000000000000A9        170192964704     
0010001300346U 020000000000000000000000000000000000000000000000000000000000000000000000000000000000000000000000000000000000000000000000002602201700000000            000000000000000                              000                           
0010001300347T 020180230000002544776 29647040928600246   7               28022017000000000006000001028029                         0900000000000010000000000000000000000000000000000000000   0000000000000000000000000A9        170192964704     
0010001300348U 020000000000000000000000000000000000000000000000000000000000000000000000000000000000000000000000000000000000000000000000002602201700000000            000000000000000                              000                           
0010001300349T 020180230000002544776 29647040928618637   7               28022017000000000006000001028029                         0900000000000010000000000000000000000000000000000000000   0000000000000000000000000A9        170192964704     
0010001300350U 020000000000000000000000000000000000000000000000000000000000000000000000000000000000000000000000000000000000000000000000002602201700000000            000000000000000                              000                           
0010001300351T 020180230000002544776 29647040928627382   7               03032017000000000006000001028029                         0900000000000010000000000000000000000000000000000000000   0000000000000000000000000A9        170192964704     
0010001300352U 020000000000000000000000000000000000000000000000000000000000000000000000000000000000000000000000000000000000000000000000000103201700000000            000000000000000                              000                           
0010001300353T 020180230000002544776 29647040928653022   7               28022017000000000006000001028029                         0900000000000010000000000000000000000000000000000000000   0000000000000000000000000A9        170192964704     
0010001300354U 020000000000000000000000000000000000000000000000000000000000000000000000000000000000000000000000000000000000000000000000002602201700000000            000000000000000                              000                           
0010001300355T 020180230000002544776 29647040928948441   7               28022017000000000006000001012467                         0900000000000010000000000000000000000000000000000000000   0000000000000000000000000A9        170192964704     
0010001300356U 020000000000000000000000000000000000000000000000000000000000000000000000000000000000000000000000000000000000000000000000002602201700000000            000000000000000                              000                           
0010001300357T 020180230000002544776 29647040929159369   7               28022017000000000008000001012467                         0900000000000010000000000000000000000000000000000000000   0000000000000000000000000A9        170192964704     
0010001300358U 020000000000000000000000000000000000000000000000000000000000000000000000000000000000000000000000000000000000000000000000002602201700000000            000000000000000                              000                           
0010001300359T 020180230000002544776 29647040929246329   7               28022017000000000006000001023655                         0900000000000010000000000000000000000000000000000000000   0000000000000000000000000A9        170192964704     
0010001300360U 020000000000000000000000000000000000000000000000000000000000000000000000000000000000000000000000000000000000000000000000002602201700000000            000000000000000                              000                           
0010001300361T 020180230000002544776 29647040929348947   7               28022017000000000006000001000132                         0900000000000010000000000000000000000000000000000000000   0000000000000000000000000A9        170192964704     
0010001300362U 020000000000000000000000000000000000000000000000000000000000000000000000000000000000000000000000000000000000000000000000002602201700000000            000000000000000                              000                           
0010001300363T 020180230000002544776 29647040929658516   7               28022017000000000006000001008214                         0900000000000010500000000000000000000000000000000000000   0000000000000000000000000A9A4      170192964704     
0010001300364U 020000000000000000000000000000000000000000000000000000000000000000000000000000000000000000000000000000000000000000000000002602201700000000            000000000000000                              000                           
0010001300365T 020180230000002544776 29647040929813819   7               02032017000000000006000001035033                         0900000000000010000000000000000000000000000000000000000   0000000000000000000000000A9        170192964704     
0010001300366U 020000000000000000000000000000000000000000000000000000000000000000000000000000000000000000000000000000000000000000000000002802201700000000            000000000000000                              000                           
0010001300367T 020180230000002544776 29647040930104900   7               28022017000000000006000001002003                         0900000000000010000000000000000000000000000000000000000   0000000000000000000000000A9        170192964704     
0010001300368U 020000000000000000000000000000000000000000000000000000000000000000000000000000000000000000000000000000000000000000000000002602201700000000            000000000000000                              000                           
0010001300369T 020180230000002544776 29647040930206305   7               28022017000000000008000001012467                         0900000000000010000000000000000000000000000000000000000   0000000000000000000000000A9        170192964704     
0010001300370U 020000000000000000000000000000000000000000000000000000000000000000000000000000000000000000000000000000000000000000000000002602201700000000            000000000000000                              000                           
0010001300371T 020180230000002544776 29647040930415073   7               28022017000000000006000001012467                         0900000000000010000000000000000000000000000000000000000   0000000000000000000000000A9        170192964704     
0010001300372U 020000000000000000000000000000000000000000000000000000000000000000000000000000000000000000000000000000000000000000000000002602201700000000            000000000000000                              000                           
0010001300373T 020180230000002544776 29647040930514589   7               28022017000000000006000001012467                         0900000000000010000000000000000000000000000000000000000   0000000000000000000000000A9        170192964704     
0010001300374U 020000000000000000000000000000000000000000000000000000000000000000000000000000000000000000000000000000000000000000000000002602201700000000            000000000000000                              000                           
0010001300375T 020180230000002544776 29647040930646739   7               28022017000000000006000001020354                         0900000000000010000000000000000000000000000000000000000   0000000000000000000000000A9        170192964704     
0010001300376U 020000000000000000000000000000000000000000000000000000000000000000000000000000000000000000000000000000000000000000000000002602201700000000            000000000000000                              000                           
0010001300377T 020180230000002544776 29647040930920942   7               28022017000000000006000001007145                         0900000000000010000000000000000000000000000000000000000   0000000000000000000000000A9        170192964704     
0010001300378U 020000000000000000000000000000000000000000000000000000000000000000000000000000000000000000000000000000000000000000000000002602201700000000            000000000000000                              000                           
0010001300379T 020180230000002544776 29647040931010581   7               01032017000000000006000001016179                         0900000000000010500000000000000000000000000000000000000   0000000000000000000000000A9A4      170192964704     
0010001300380U 020000000000000000000000000000000000000000000000000000000000000000000000000000000000000000000000000000000000000000000000002702201700000000            000000000000000                              000                           
0010001300381T 020180230000002544776 29647040931149152   7               01032017000000000006000001000361                         0900000000000010000000000000000000000000000000000000000   0000000000000000000000000A9        170192964704     
0010001300382U 020000000000000000000000000000000000000000000000000000000000000000000000000000000000000000000000000000000000000000000000002702201700000000            000000000000000                              000                           
0010001300383T 020180230000002544776 29647040931454575   7               01032017000000000006000001016179                         0900000000000010000000000000000000000000000000000000000   0000000000000000000000000A9        170192964704     
0010001300384U 020000000000000000000000000000000000000000000000000000000000000000000000000000000000000000000000000000000000000000000000002702201700000000            000000000000000                              000                           
0010001300385T 020180230000002544776 29647040931704889   7               02032017000000000006000001002461                         0900000000000010000000000000000000000000000000000000000   0000000000000000000000000A9        170192964704     
0010001300386U 020000000000000000000000000000000000000000000000000000000000000000000000000000000000000000000000000000000000000000000000002802201700000000            000000000000000                              000                           
0010001300387T 020180230000002544776 29647040931709266   7               01032017000000000006000001002461                         0900000000000010000000000000000000000000000000000000000   0000000000000000000000000A9        170192964704     
0010001300388U 020000000000000000000000000000000000000000000000000000000000000000000000000000000000000000000000000000000000000000000000002702201700000000            000000000000000                              000                           
0010001300389T 020180230000002544776 29647040931723158   7               02032017000000000006000001002461                         0900000000000010000000000000000000000000000000000000000   0000000000000000000000000A9        170192964704     
0010001300390U 020000000000000000000000000000000000000000000000000000000000000000000000000000000000000000000000000000000000000000000000002802201700000000            000000000000000                              000                           
0010001300391T 020180230000002544776 29647040932057356   7               01032017000000000006000001033316                         0900000000000010000000000000000000000000000000000000000   0000000000000000000000000A9        170192964704     
0010001300392U 020000000000000000000000000000000000000000000000000000000000000000000000000000000000000000000000000000000000000000000000002702201700000000            000000000000000                              000                           
0010001300393T 020180230000002544776 29647040932235314   7               01032017000000000006000001033316                         0900000000000010000000000000000000000000000000000000000   0000000000000000000000000A9        170192964704     
0010001300394U 020000000000000000000000000000000000000000000000000000000000000000000000000000000000000000000000000000000000000000000000002702201700000000            000000000000000                              000                           
0010001300395T 020180230000002544776 29647040932257751   7               01032017000000000006000001033316                         0900000000000010000000000000000000000000000000000000000   0000000000000000000000000A9        170192964704     
0010001300396U 020000000000000000000000000000000000000000000000000000000000000000000000000000000000000000000000000000000000000000000000002702201700000000            000000000000000                              000                           
0010001300397T 020180230000002544776 29647040932428066   7               01032017000000000006000001009636                         0900000000000010500000000000000000000000000000000000000   0000000000000000000000000A9A4      170192964704     
0010001300398U 020000000000000000000000000000000000000000000000000000000000000000000000000000000000000000000000000000000000000000000000002702201700000000            000000000000000                              000                           
0010001300399T 020180230000002544776 29647040932606507   7               01032017000000000006000001016179                         0900000000000010000000000000000000000000000000000000000   0000000000000000000000000A9        170192964704     
0010001300400U 020000000000000000000000000000000000000000000000000000000000000000000000000000000000000000000000000000000000000000000000002702201700000000            000000000000000                              000                           
0010001300401T 020180230000002544776 29647040932655864   7               03032017000000000006000001016179                         0900000000000010000000000000000000000000000000000000000   0000000000000000000000000A9        170192964704     
0010001300402U 020000000000000000000000000000000000000000000000000000000000000000000000000000000000000000000000000000000000000000000000000103201700000000            000000000000000                              000                           
0010001300403T 020180230000002544776 29647040932657970   7               01032017000000000006000001016179                         0900000000000010000000000000000000000000000000000000000   0000000000000000000000000A9        170192964704     
0010001300404U 020000000000000000000000000000000000000000000000000000000000000000000000000000000000000000000000000000000000000000000000002702201700000000            000000000000000                              000                           
0010001300405T 020180230000002544776 29647040932752884   7               01032017000000000006000001028029                         0900000000000010000000000000000000000000000000000000000   0000000000000000000000000A9        170192964704     
0010001300406U 020000000000000000000000000000000000000000000000000000000000000000000000000000000000000000000000000000000000000000000000002702201700000000            000000000000000                              000                           
0010001300407T 020180230000002544776 29647040933339745   7               01032017000000000006000001028029                         0900000000000010000000000000000000000000000000000000000   0000000000000000000000000A9        170192964704     
0010001300408U 020000000000000000000000000000000000000000000000000000000000000000000000000000000000000000000000000000000000000000000000002702201700000000            000000000000000                              000                           
0010001300409T 020180230000002544776 29647040933351728   7               01032017000000000006000001028029                         0900000000000010000000000000000000000000000000000000000   0000000000000000000000000A9        170192964704     
0010001300410U 020000000000000000000000000000000000000000000000000000000000000000000000000000000000000000000000000000000000000000000000002702201700000000            000000000000000                              000                           
0010001300411T 020180230000002544776 29647040933508561   7               01032017000000000006000001028029                         0900000000000010000000000000000000000000000000000000000   0000000000000000000000000A9        170192964704     
0010001300412U 020000000000000000000000000000000000000000000000000000000000000000000000000000000000000000000000000000000000000000000000002702201700000000            000000000000000                              000                           
