00100000         2247745860001000029647040014       0180230000002544776 INSTITUTO DE SELECAO E TECNOLOBANCO DO BRASIL                         21402201701315200002403000000515122941PROCESSAMEN                                                 
00100011T0100020 20247745860001000029647040014       0180230000002544776 INSTITUTO DE SELECAO E TECNOLO                                                                                000000001402201700000000  000000000                      
0010001300001T 020180230000002544776 29647040500526409   788888888888889916022017000000000008000001012467888888888888899          0900000000000010000000000000000000000000000000000000000   0000000000000000000000000A9        170192964704     
0010001300002U 020000000000000000000000000000000000000000000000000000000000000000000000000000000000000000000000000000000000000000000000001402201700000000            000000000000000                              000                           
0010001300003T 020180230000002544776 29647040500548378   788888888888889916022017000000000008000001012467888888888888899          0900000000000010000000000000000000000000000000000000000   0000000000000000000000000A9        170192964704     
0010001300004U 020000000000000000000000000000000000000000000000000000000000000000000000000000000000000000000000000000000000000000000000001402201700000000            000000000000000                              000                           
0010001300005T 020180230000002544776 29647040501030534   788888888888889916022017000000000006000001002321888888888888899          0900000000000010000000000000000000000000000000000000000   0000000000000000000000000A9        170192964704     
0010001300006U 020000000000000000000000000000000000000000000000000000000000000000000000000000000000000000000000000000000000000000000000001402201700000000            000000000000000                              000                           
0010001300007T 020180230000002544776 29647040502111627   788888888888889916022017000000000008000001016179888888888888899          0900000000000010000000000000000000000000000000000000000   0000000000000000000000000A9        170192964704     
0010001300008U 020000000000000000000000000000000000000000000000000000000000000000000000000000000000000000000000000000000000000000000000001402201700000000            000000000000000                              000                           
0010001300009T 020180230000002544776 29647040502808457   788888888888889916022017000000000006000001005428888888888888899          0900000000000010000000000000000000000000000000000000000   0000000000000000000000000A9        170192964704     
0010001300010U 020000000000000000000000000000000000000000000000000000000000000000000000000000000000000000000000000000000000000000000000001402201700000000            000000000000000                              000                           
0010001300011T 020180230000002544776 29647040503157668   788888888888889916022017000000000006000001028029888888888888899          0900000000000010000000000000000000000000000000000000000   0000000000000000000000000A9        170192964704     
0010001300012U 020000000000000000000000000000000000000000000000000000000000000000000000000000000000000000000000000000000000000000000000001402201700000000            000000000000000                              000                           
0010001300013T 020180230000002544776 29647040503640923   788888888888889916022017000000000006000001028029888888888888899          0900000000000010000000000000000000000000000000000000000   0000000000000000000000000A9        170192964704     
0010001300014U 020000000000000000000000000000000000000000000000000000000000000000000000000000000000000000000000000000000000000000000000001402201700000000            000000000000000                              000                           
0010001300015T 020180230000002544776 29647040503930856   788888888888889916022017000000000006000001000132888888888888899          0900000000000010000000000000000000000000000000000000000   0000000000000000000000000A9        170192964704     
0010001300016U 020000000000000000000000000000000000000000000000000000000000000000000000000000000000000000000000000000000000000000000000001402201700000000            000000000000000                              000                           
0010001300017T 020180230000002544776 29647040504302491   788888888888889916022017000000000006000001000132888888888888899          0900000000000010000000000000000000000000000000000000000   0000000000000000000000000A9        170192964704     
0010001300018U 020000000000000000000000000000000000000000000000000000000000000000000000000000000000000000000000000000000000000000000000001402201700000000            000000000000000                              000                           
0010001300019T 020180230000002544776 29647040504442618   788888888888889916022017000000000006000001011444888888888888899          0900000000000010000000000000000000000000000000000000000   0000000000000000000000000A9        170192964704     
0010001300020U 020000000000000000000000000000000000000000000000000000000000000000000000000000000000000000000000000000000000000000000000001402201700000000            000000000000000                              000                           
0010001300021T 020180230000002544776 29647040504449433   7               16022017000000000006000001011444                         0900000000000010000000000000000000000000000000000000000   0000000000000000000000000A9        170192964704     
0010001300022U 020000000000000000000000000000000000000000000000000000000000000000000000000000000000000000000000000000000000000000000000001402201700000000            000000000000000                              000                           
0010001300023T 020180230000002544776 29647040504958980   788888888888889916022017000000000006000001018376888888888888899          0900000000000010000000000000000000000000000000000000000   0000000000000000000000000A9        170192964704     
0010001300024U 020000000000000000000000000000000000000000000000000000000000000000000000000000000000000000000000000000000000000000000000001402201700000000            000000000000000                              000                           
0010001300025T 020180230000002544776 29647040505345622   788888888888889916022017000000000006000001000671888888888888899          0900000000000010000000000000000000000000000000000000000   0000000000000000000000000A9        170192964704     
0010001300026U 020000000000000000000000000000000000000000000000000000000000000000000000000000000000000000000000000000000000000000000000001402201700000000            000000000000000                              000                           
0010001300027T 020180230000002544776 29647040505610977   788888888888889916022017000000000006000001018376888888888888899          0900000000000010000000000000000000000000000000000000000   0000000000000000000000000A9        170192964704     
0010001300028U 020000000000000000000000000000000000000000000000000000000000000000000000000000000000000000000000000000000000000000000000001402201700000000            000000000000000                              000                           
0010001300029T 020180230000002544776 29647040505738847   788888888888889916022017000000000006000001018376888888888888899          0900000000000010000000000000000000000000000000000000000   0000000000000000000000000A9        170192964704     
0010001300030U 020000000000000000000000000000000000000000000000000000000000000000000000000000000000000000000000000000000000000000000000001402201700000000            000000000000000                              000                           
0010001300031T 020180230000002544776 29647040506142630   78888888888888991602201700000000000800000101463X888888888888899          0900000000000010000000000000000000000000000000000000000   0000000000000000000000000A9        170192964704     
0010001300032U 020000000000000000000000000000000000000000000000000000000000000000000000000000000000000000000000000000000000000000000000001402201700000000            000000000000000                              000                           
0010001300033T 020180230000002544776 29647040506240470   788888888888889916022017000000000006000001033316888888888888899          0900000000000010000000000000000000000000000000000000000   0000000000000000000000000A9        170192964704     
0010001300034U 020000000000000000000000000000000000000000000000000000000000000000000000000000000000000000000000000000000000000000000000001402201700000000            000000000000000                              000                           
0010001300035T 020180230000002544776 29647040506346428   788888888888889916022017000000000006000001023469888888888888899          0900000000000010000000000000000000000000000000000000000   0000000000000000000000000A9        170192964704     
0010001300036U 020000000000000000000000000000000000000000000000000000000000000000000000000000000000000000000000000000000000000000000000001402201700000000            000000000000000                              000                           
0010001300037T 020180230000002544776 29647040506431219   788888888888889916022017000000000008000001003018888888888888899          0900000000000010000000000000000000000000000000000000000   0000000000000000000000000A9        170192964704     
0010001300038U 020000000000000000000000000000000000000000000000000000000000000000000000000000000000000000000000000000000000000000000000001402201700000000            000000000000000                              000                           
0010001300039T 020180230000002544776 29647040506543085   788888888888889916022017000000000006000001040770888888888888899          0900000000000010000000000000000000000000000000000000000   0000000000000000000000000A9        170192964704     
0010001300040U 020000000000000000000000000000000000000000000000000000000000000000000000000000000000000000000000000000000000000000000000001402201700000000            000000000000000                              000                           
0010001300041T 020180230000002544776 29647040507319000   788888888888889916022017000000000008000001016179888888888888899          0900000000000010000000000000000000000000000000000000000   0000000000000000000000000A9        170192964704     
0010001300042U 020000000000000000000000000000000000000000000000000000000000000000000000000000000000000000000000000000000000000000000000001402201700000000            000000000000000                              000                           
0010001300043T 020180230000002544776 29647040507500454   788888888888889916022017000000000006000001000132888888888888899          0900000000000010500000000000000000000000000000000000000   0000000000000000000000000A9A4      170192964704     
0010001300044U 020000000000000000000000000000000000000000000000000000000000000000000000000000000000000000000000000000000000000000000000001402201700000000            000000000000000                              000                           
0010001300045T 020180230000002544776 29647040507621048   788888888888889916022017000000000006000001016438888888888888899          0900000000000010000000000000000000000000000000000000000   0000000000000000000000000A9        170192964704     
0010001300046U 020000000000000000000000000000000000000000000000000000000000000000000000000000000000000000000000000000000000000000000000001402201700000000            000000000000000                              000                           
0010001300047T 020180230000002544776 29647040507743986   788888888888889916022017000000000006000001032859888888888888899          0900000000000010000000000000000000000000000000000000000   0000000000000000000000000A9        170192964704     
0010001300048U 020000000000000000000000000000000000000000000000000000000000000000000000000000000000000000000000000000000000000000000000001402201700000000            000000000000000                              000                           
0010001300049T 020180230000002544776 29647040507753495   788888888888889916022017000000000006000001032859888888888888899          0900000000000010000000000000000000000000000000000000000   0000000000000000000000000A9        170192964704     
0010001300050U 020000000000000000000000000000000000000000000000000000000000000000000000000000000000000000000000000000000000000000000000001402201700000000            000000000000000                              000                           
0010001300051T 020180230000002544776 29647040508001621   788888888888889916022017000000000008000001001511888888888888899          0900000000000010000000000000000000000000000000000000000   0000000000000000000000000A9        170192964704     
0010001300052U 020000000000000000000000000000000000000000000000000000000000000000000000000000000000000000000000000000000000000000000000001402201700000000            000000000000000                              000                           
0010001300053T 020180230000002544776 29647040508315776   788888888888889916022017000000000006000001027316888888888888899          0900000000000010000000000000000000000000000000000000000   0000000000000000000000000A9        170192964704     
0010001300054U 020000000000000000000000000000000000000000000000000000000000000000000000000000000000000000000000000000000000000000000000001402201700000000            000000000000000                              000                           
0010001300055T 020180230000002544776 29647040508502733   788888888888889916022017000000000006000001008214888888888888899          0900000000000010000000000000000000000000000000000000000   0000000000000000000000000A9        170192964704     
0010001300056U 020000000000000000000000000000000000000000000000000000000000000000000000000000000000000000000000000000000000000000000000001402201700000000            000000000000000                              000                           
0010001300057T 020180230000002544776 29647040509156659   788888888888889916022017000000000006000001005827888888888888899          0900000000000010000000000000000000000000000000000000000   0000000000000000000000000A9        170192964704     
0010001300058U 020000000000000000000000000000000000000000000000000000000000000000000000000000000000000000000000000000000000000000000000001402201700000000            000000000000000                              000                           
0010001300059T 020180230000002544776 29647040509239474   788888888888889916022017000000000006000001012467888888888888899          0900000000000010000000000000000000000000000000000000000   0000000000000000000000000A9        170192964704     
0010001300060U 020000000000000000000000000000000000000000000000000000000000000000000000000000000000000000000000000000000000000000000000001402201700000000            000000000000000                              000                           
0010001300061T 020180230000002544776 29647040509302850   788888888888889916022017000000000006000001012467888888888888899          0900000000000010000000000000000000000000000000000000000   0000000000000000000000000A9        170192964704     
0010001300062U 020000000000000000000000000000000000000000000000000000000000000000000000000000000000000000000000000000000000000000000000001402201700000000            000000000000000                              000                           
0010001300063T 020180230000002544776 29647040509456976   78888888888888991602201700000000000800000101365X888888888888899          0900000000000010000000000000000000000000000000000000000   0000000000000000000000000A9        170192964704     
0010001300064U 020000000000000000000000000000000000000000000000000000000000000000000000000000000000000000000000000000000000000000000000001402201700000000            000000000000000                              000                           
0010001300065T 020180230000002544776 29647040509813074   788888888888889916022017000000000006000001028029888888888888899          0900000000000010000000000000000000000000000000000000000   0000000000000000000000000A9        170192964704     
0010001300066U 020000000000000000000000000000000000000000000000000000000000000000000000000000000000000000000000000000000000000000000000001402201700000000            000000000000000                              000                           
0010001300067T 020180230000002544776 29647040510446771   788888888888889916022017000000000008000001012467888888888888899          0900000000000010000000000000000000000000000000000000000   0000000000000000000000000A9        170192964704     
0010001300068U 020000000000000000000000000000000000000000000000000000000000000000000000000000000000000000000000000000000000000000000000001402201700000000            000000000000000                              000                           
0010001300069T 020180230000002544776 29647040510701398   788888888888889916022017000000000006000001033316888888888888899          0900000000000010000000000000000000000000000000000000000   0000000000000000000000000A9        170192964704     
0010001300070U 020000000000000000000000000000000000000000000000000000000000000000000000000000000000000000000000000000000000000000000000001402201700000000            000000000000000                              000                           
0010001300071T 020180230000002544776 29647040511117168   788888888888889916022017000000000006000001025208888888888888899          0900000000000010000000000000000000000000000000000000000   0000000000000000000000000A9        170192964704     
0010001300072U 020000000000000000000000000000000000000000000000000000000000000000000000000000000000000000000000000000000000000000000000001402201700000000            000000000000000                              000                           
0010001300073T 020180230000002544776 29647040511505474   788888888888889916022017000000000006000001002321888888888888899          0900000000000010000000000000000000000000000000000000000   0000000000000000000000000A9        170192964704     
0010001300074U 020000000000000000000000000000000000000000000000000000000000000000000000000000000000000000000000000000000000000000000000001402201700000000            000000000000000                              000                           
0010001300075T 020180230000002544776 29647040511938606   788888888888889916022017000000000006000001035041888888888888899          0900000000000010000000000000000000000000000000000000000   0000000000000000000000000A9        170192964704     
0010001300076U 020000000000000000000000000000000000000000000000000000000000000000000000000000000000000000000000000000000000000000000000001402201700000000            000000000000000                              000                           
0010001300077T 020180230000002544776 29647040512136022   788888888888889916022017000000000006000001020354888888888888899          0900000000000010000000000000000000000000000000000000000   0000000000000000000000000A9        170192964704     
0010001300078U 020000000000000000000000000000000000000000000000000000000000000000000000000000000000000000000000000000000000000000000000001402201700000000            000000000000000                              000                           
0010001300079T 020180230000002544776 29647040512319454   788888888888889916022017000000000006000001028029888888888888899          0900000000000010000000000000000000000000000000000000000   0000000000000000000000000A9        170192964704     
0010001300080U 020000000000000000000000000000000000000000000000000000000000000000000000000000000000000000000000000000000000000000000000001402201700000000            000000000000000                              000                           
0010001300081T 020180230000002544776 29647040512424083   788888888888889916022017000000000006000001035033888888888888899          0900000000000010000000000000000000000000000000000000000   0000000000000000000000000A9        170192964704     
0010001300082U 020000000000000000000000000000000000000000000000000000000000000000000000000000000000000000000000000000000000000000000000001402201700000000            000000000000000                              000                           
0010001300083T 020180230000002544776 29647040512652681   788888888888889916022017000000000006000001013617888888888888899          0900000000000010000000000000000000000000000000000000000   0000000000000000000000000A9        170192964704     
0010001300084U 020000000000000000000000000000000000000000000000000000000000000000000000000000000000000000000000000000000000000000000000001402201700000000            000000000000000                              000                           
0010001300085T 020180230000002544776 29647040512758678   788888888888889916022017000000000006000001016179888888888888899          0900000000000010000000000000000000000000000000000000000   0000000000000000000000000A9        170192964704     
0010001300086U 020000000000000000000000000000000000000000000000000000000000000000000000000000000000000000000000000000000000000000000000001402201700000000            000000000000000                              000                           
0010001300087T 020180230000002544776 29647040512912250   7               16022017000000000006000001028029                         0900000000000010500000000000000000000000000000000000000   0000000000000000000000000A9A4      170192964704     
0010001300088U 020000000000000000000000000000000000000000000000000000000000000000000000000000000000000000000000000000000000000000000000001402201700000000            000000000000000                              000                           
0010001300089T 020180230000002544776 29647040512914672   788888888888889916022017000000000006000001028029888888888888899          0900000000000010500000000000000000000000000000000000000   0000000000000000000000000A9A4      170192964704     
0010001300090U 020000000000000000000000000000000000000000000000000000000000000000000000000000000000000000000000000000000000000000000000001402201700000000            000000000000000                              000                           
0010001300091T 020180230000002544776 29647040513321384   788888888888889916022017000000000006000001000132888888888888899          0900000000000010000000000000000000000000000000000000000   0000000000000000000000000A9        170192964704     
0010001300092U 020000000000000000000000000000000000000000000000000000000000000000000000000000000000000000000000000000000000000000000000001402201700000000            000000000000000                              000                           
0010001300093T 020180230000002544776 29647040513624279   788888888888889916022017000000000006000001003743888888888888899          0900000000000010000000000000000000000000000000000000000   0000000000000000000000000A9        170192964704     
0010001300094U 020000000000000000000000000000000000000000000000000000000000000000000000000000000000000000000000000000000000000000000000001402201700000000            000000000000000                              000                           
0010001300095T 020180230000002544776 29647040513853237   788888888888889916022017000000000006000001033316888888888888899          0900000000000010000000000000000000000000000000000000000   0000000000000000000000000A9        170192964704     
0010001300096U 020000000000000000000000000000000000000000000000000000000000000000000000000000000000000000000000000000000000000000000000001402201700000000            000000000000000                              000                           
0010001300097T 020180230000002544776 29647040514023567   788888888888889916022017000000000006000001016438888888888888899          0900000000000010000000000000000000000000000000000000000   0000000000000000000000000A9        170192964704     
0010001300098U 020000000000000000000000000000000000000000000000000000000000000000000000000000000000000000000000000000000000000000000000001402201700000000            000000000000000                              000                           
0010001300099T 020180230000002544776 29647040514333095   788888888888889916022017000000000006000001016179888888888888899          0900000000000010000000000000000000000000000000000000000   0000000000000000000000000A9        170192964704     
0010001300100U 020000000000000000000000000000000000000000000000000000000000000000000000000000000000000000000000000000000000000000000000001402201700000000            000000000000000                              000                           
0010001300101T 020180230000002544776 29647040514906965   788888888888889916022017000000000006000001018376888888888888899          0900000000000010000000000000000000000000000000000000000   0000000000000000000000000A9        170192964704     
0010001300102U 020000000000000000000000000000000000000000000000000000000000000000000000000000000000000000000000000000000000000000000000001402201700000000            000000000000000                              000                           
0010001300103T 020180230000002544776 29647040515009909   788888888888889916022017000000000008000001001368888888888888899          0900000000000010000000000000000000000000000000000000000   0000000000000000000000000A9        170192964704     
0010001300104U 020000000000000000000000000000000000000000000000000000000000000000000000000000000000000000000000000000000000000000000000001402201700000000            000000000000000                              000                           
0010001300105T 020180230000002544776 29647040515149021   788888888888889916022017000000000006000001018376888888888888899          0900000000000010000000000000000000000000000000000000000   0000000000000000000000000A9        170192964704     
0010001300106U 020000000000000000000000000000000000000000000000000000000000000000000000000000000000000000000000000000000000000000000000001402201700000000            000000000000000                              000                           
0010001300107T 020180230000002544776 29647040515937842   788888888888889916022017000000000008000001001368888888888888899          0900000000000010000000000000000000000000000000000000000   0000000000000000000000000A9        170192964704     
0010001300108U 020000000000000000000000000000000000000000000000000000000000000000000000000000000000000000000000000000000000000000000000001402201700000000            000000000000000                              000                           
0010001300109T 020180230000002544776 29647040516009026   788888888888889916022017000000000006000001020354888888888888899          0900000000000010000000000000000000000000000000000000000   0000000000000000000000000A9        170192964704     
0010001300110U 020000000000000000000000000000000000000000000000000000000000000000000000000000000000000000000000000000000000000000000000001402201700000000            000000000000000                              000                           
0010001300111T 020180230000002544776 29647040516908669   788888888888889916022017000000000006000001028029888888888888899          0900000000000010000000000000000000000000000000000000000   0000000000000000000000000A9        170192964704     
0010001300112U 020000000000000000000000000000000000000000000000000000000000000000000000000000000000000000000000000000000000000000000000001402201700000000            000000000000000                              000                           
0010001300113T 020180230000002544776 29647040517115298   788888888888889916022017000000000008000001014028888888888888899          0900000000000010000000000000000000000000000000000000000   0000000000000000000000000A9        170192964704     
0010001300114U 020000000000000000000000000000000000000000000000000000000000000000000000000000000000000000000000000000000000000000000000001402201700000000            000000000000000                              000                           
0010001300115T 020180230000002544776 29647040517502853   788888888888889916022017000000000006000001028029888888888888899          0900000000000010000000000000000000000000000000000000000   0000000000000000000000000A9        170192964704     
0010001300116U 020000000000000000000000000000000000000000000000000000000000000000000000000000000000000000000000000000000000000000000000001402201700000000            000000000000000                              000                           
0010001300117T 020180230000002544776 29647040517840352   788888888888889916022017000000000006000001028029888888888888899          0900000000000010000000000000000000000000000000000000000   0000000000000000000000000A9        170192964704     
0010001300118U 020000000000000000000000000000000000000000000000000000000000000000000000000000000000000000000000000000000000000000000000001402201700000000            000000000000000                              000                           
0010001300119T 020180230000002544776 29647040517923983   788888888888889916022017000000000006000001033316888888888888899          0900000000000010000000000000000000000000000000000000000   0000000000000000000000000A9        170192964704     
0010001300120U 020000000000000000000000000000000000000000000000000000000000000000000000000000000000000000000000000000000000000000000000001402201700000000            000000000000000                              000                           
0010001300121T 020180230000002544776 29647040518506537   788888888888889916022017000000000006000001002003888888888888899          0900000000000010000000000000000000000000000000000000000   0000000000000000000000000A9        170192964704     
0010001300122U 020000000000000000000000000000000000000000000000000000000000000000000000000000000000000000000000000000000000000000000000001402201700000000            000000000000000                              000                           
0010001300123T 020180230000002544776 29647040518724224   788888888888889916022017000000000006000001035033888888888888899          0900000000000010000000000000000000000000000000000000000   0000000000000000000000000A9        170192964704     
0010001300124U 020000000000000000000000000000000000000000000000000000000000000000000000000000000000000000000000000000000000000000000000001402201700000000            000000000000000                              000                           
0010001300125T 020180230000002544776 29647040518849686   788888888888889916022017000000000006000001000493888888888888899          0900000000000010000000000000000000000000000000000000000   0000000000000000000000000A9        170192964704     
0010001300126U 020000000000000000000000000000000000000000000000000000000000000000000000000000000000000000000000000000000000000000000000001402201700000000            000000000000000                              000                           
0010001300127T 020180230000002544776 29647040518957854   788888888888889916022017000000000006000001028029888888888888899          0900000000000010000000000000000000000000000000000000000   0000000000000000000000000A9        170192964704     
0010001300128U 020000000000000000000000000000000000000000000000000000000000000000000000000000000000000000000000000000000000000000000000001402201700000000            000000000000000                              000                           
0010001300129T 020180230000002544776 29647040519019586   788888888888889916022017000000000006000001000132888888888888899          0900000000000010000000000000000000000000000000000000000   0000000000000000000000000A9        170192964704     
0010001300130U 020000000000000000000000000000000000000000000000000000000000000000000000000000000000000000000000000000000000000000000000001402201700000000            000000000000000                              000                           
0010001300131T 020180230000002544776 29647040519118561   788888888888889916022017000000000006000001000132888888888888899          0900000000000010000000000000000000000000000000000000000   0000000000000000000000000A9        170192964704     
0010001300132U 020000000000000000000000000000000000000000000000000000000000000000000000000000000000000000000000000000000000000000000000001402201700000000            000000000000000                              000                           
0010001300133T 020180230000002544776 29647040519308670   788888888888889916022017000000000006000001016179888888888888899          0900000000000010000000000000000000000000000000000000000   0000000000000000000000000A9        170192964704     
0010001300134U 020000000000000000000000000000000000000000000000000000000000000000000000000000000000000000000000000000000000000000000000001402201700000000            000000000000000                              000                           
0010001300135T 020180230000002544776 29647040519545423   788888888888889916022017000000000008000001033316888888888888899          0900000000000010000000000000000000000000000000000000000   0000000000000000000000000A9        170192964704     
0010001300136U 020000000000000000000000000000000000000000000000000000000000000000000000000000000000000000000000000000000000000000000000001402201700000000            000000000000000                              000                           
0010001300137T 020180230000002544776 29647040519858350   788888888888889916022017000000000006000001009636888888888888899          0900000000000010000000000000000000000000000000000000000   0000000000000000000000000A9        170192964704     
0010001300138U 020000000000000000000000000000000000000000000000000000000000000000000000000000000000000000000000000000000000000000000000001402201700000000            000000000000000                              000                           
0010001300139T 020180230000002544776 29647040519920580   788888888888889916022017000000000006000001001597888888888888899          0900000000000010000000000000000000000000000000000000000   0000000000000000000000000A9        170192964704     
0010001300140U 020000000000000000000000000000000000000000000000000000000000000000000000000000000000000000000000000000000000000000000000001402201700000000            000000000000000                              000                           
0010001300141T 020180230000002544776 29647040520133852   788888888888889916022017000000000006000001001368888888888888899          0900000000000010000000000000000000000000000000000000000   0000000000000000000000000A9        170192964704     
0010001300142U 020000000000000000000000000000000000000000000000000000000000000000000000000000000000000000000000000000000000000000000000001402201700000000            000000000000000                              000                           
0010001300143T 020180230000002544776 29647040520400354   788888888888889916022017000000000006000001023353888888888888899          0900000000000010000000000000000000000000000000000000000   0000000000000000000000000A9        170192964704     
0010001300144U 020000000000000000000000000000000000000000000000000000000000000000000000000000000000000000000000000000000000000000000000001402201700000000            000000000000000                              000                           
0010001300145T 020180230000002544776 29647040521037511   78888888888888991602201700000000000600000100944X888888888888899          0900000000000010000000000000000000000000000000000000000   0000000000000000000000000A9        170192964704     
0010001300146U 020000000000000000000000000000000000000000000000000000000000000000000000000000000000000000000000000000000000000000000000001402201700000000            000000000000000                              000                           
0010001300147T 020180230000002544776 29647040521201926   788888888888889916022017000000000008000001034770888888888888899          0900000000000010000000000000000000000000000000000000000   0000000000000000000000000A9        170192964704     
0010001300148U 020000000000000000000000000000000000000000000000000000000000000000000000000000000000000000000000000000000000000000000000001402201700000000            000000000000000                              000                           
0010001300149T 020180230000002544776 29647040521348443   788888888888889916022017000000000006000001024376888888888888899          0900000000000010000000000000000000000000000000000000000   0000000000000000000000000A9        170192964704     
0010001300150U 020000000000000000000000000000000000000000000000000000000000000000000000000000000000000000000000000000000000000000000000001402201700000000            000000000000000                              000                           
0010001300151T 020180230000002544776 29647040521710411   788888888888889916022017000000000008000001033316888888888888899          0900000000000010000000000000000000000000000000000000000   0000000000000000000000000A9        170192964704     
0010001300152U 020000000000000000000000000000000000000000000000000000000000000000000000000000000000000000000000000000000000000000000000001402201700000000            000000000000000                              000                           
0010001300153T 020180230000002544776 29647040522028304   788888888888889916022017000000000006000001016179888888888888899          0900000000000010000000000000000000000000000000000000000   0000000000000000000000000A9        170192964704     
0010001300154U 020000000000000000000000000000000000000000000000000000000000000000000000000000000000000000000000000000000000000000000000001402201700000000            000000000000000                              000                           
0010001300155T 020180230000002544776 29647040522107900   788888888888889916022017000000000006000001000132888888888888899          0900000000000010000000000000000000000000000000000000000   0000000000000000000000000A9        170192964704     
0010001300156U 020000000000000000000000000000000000000000000000000000000000000000000000000000000000000000000000000000000000000000000000001402201700000000            000000000000000                              000                           
0010001300157T 020180230000002544776 29647040522156145   788888888888889916022017000000000006000001000132888888888888899          0900000000000010000000000000000000000000000000000000000   0000000000000000000000000A9        170192964704     
0010001300158U 020000000000000000000000000000000000000000000000000000000000000000000000000000000000000000000000000000000000000000000000001402201700000000            000000000000000                              000                           
0010001300159T 020180230000002544776 29647040522354381   788888888888889916022017000000000006000001028029888888888888899          0900000000000010000000000000000000000000000000000000000   0000000000000000000000000A9        170192964704     
0010001300160U 020000000000000000000000000000000000000000000000000000000000000000000000000000000000000000000000000000000000000000000000001402201700000000            000000000000000                              000                           
0010001300161T 020180230000002544776 29647040522733872   788888888888889916022017000000000006000001000485888888888888899          0900000000000010000000000000000000000000000000000000000   0000000000000000000000000A9        170192964704     
0010001300162U 020000000000000000000000000000000000000000000000000000000000000000000000000000000000000000000000000000000000000000000000001402201700000000            000000000000000                              000                           
0010001300163T 020180230000002544776 29647040523034484   788888888888889916022017000000000006000001016179888888888888899          0900000000000010000000000000000000000000000000000000000   0000000000000000000000000A9        170192964704     
0010001300164U 020000000000000000000000000000000000000000000000000000000000000000000000000000000000000000000000000000000000000000000000001402201700000000            000000000000000                              000                           
0010001300165T 020180230000002544776 29647040523533280   788888888888889916022017000000000006000001020354888888888888899          0900000000000010000000000000000000000000000000000000000   0000000000000000000000000A9        170192964704     
0010001300166U 020000000000000000000000000000000000000000000000000000000000000000000000000000000000000000000000000000000000000000000000001402201700000000            000000000000000                              000                           
0010001300167T 020180230000002544776 29647040523609991   7               16022017000000000006000001000361                         0900000000000010500000000000000000000000000000000000000   0000000000000000000000000A9A4      170192964704     
0010001300168U 020000000000000000000000000000000000000000000000000000000000000000000000000000000000000000000000000000000000000000000000001402201700000000            000000000000000                              000                           
0010001300169T 020180230000002544776 29647040523637652   788888888888889916022017000000000006000001000361888888888888899          0900000000000010500000000000000000000000000000000000000   0000000000000000000000000A9A4      170192964704     
0010001300170U 020000000000000000000000000000000000000000000000000000000000000000000000000000000000000000000000000000000000000000000000001402201700000000            000000000000000                              000                           
0010001300171T 020180230000002544776 29647040523710890   788888888888889916022017000000000006000001024376888888888888899          0900000000000010000000000000000000000000000000000000000   0000000000000000000000000A9        170192964704     
0010001300172U 020000000000000000000000000000000000000000000000000000000000000000000000000000000000000000000000000000000000000000000000001402201700000000            000000000000000                              000                           
0010001300173T 020180230000002544776 29647040523858649   788888888888889916022017000000000006000001028029888888888888899          0900000000000010500000000000000000000000000000000000000   0000000000000000000000000A9A4      170192964704     
0010001300174U 020000000000000000000000000000000000000000000000000000000000000000000000000000000000000000000000000000000000000000000000001402201700000000            000000000000000                              000                           
0010001300175T 020180230000002544776 29647040523858752   7               16022017000000000006000001028029                         0900000000000010500000000000000000000000000000000000000   0000000000000000000000000A9A4      170192964704     
0010001300176U 020000000000000000000000000000000000000000000000000000000000000000000000000000000000000000000000000000000000000000000000001402201700000000            000000000000000                              000                           
0010001300177T 020180230000002544776 29647040523935188   788888888888889916022017000000000006000001020354888888888888899          0900000000000010000000000000000000000000000000000000000   0000000000000000000000000A9        170192964704     
0010001300178U 020000000000000000000000000000000000000000000000000000000000000000000000000000000000000000000000000000000000000000000000001402201700000000            000000000000000                              000                           
0010001300179T 020180230000002544776 29647040523942942   788888888888889916022017000000000006000001020354888888888888899          0900000000000010000000000000000000000000000000000000000   0000000000000000000000000A9        170192964704     
0010001300180U 020000000000000000000000000000000000000000000000000000000000000000000000000000000000000000000000000000000000000000000000001402201700000000            000000000000000                              000                           
0010001300181T 020180230000002544776 29647040524316332   788888888888889916022017000000000008000001007595888888888888899          0900000000000010000000000000000000000000000000000000000   0000000000000000000000000A9        170192964704     
0010001300182U 020000000000000000000000000000000000000000000000000000000000000000000000000000000000000000000000000000000000000000000000001402201700000000            000000000000000                              000                           
0010001300183T 020180230000002544776 29647040524505980   7               15022017000000000008000001007145                         0900000000000010500000000000000000000000000000000000000   0000000000000000000000000A9A4      170192964704     
0010001300184U 020000000000000000000000000000000000000000000000000000000000000000000000000000000000000000000000000000000000000000000000001302201700000000            000000000000000                              000                           
0010001300185T 020180230000002544776 29647040524521861   7               16022017000000000008000001007145                         0900000000000010500000000000000000000000000000000000000   0000000000000000000000000A9A4      170192964704     
0010001300186U 020000000000000000000000000000000000000000000000000000000000000000000000000000000000000000000000000000000000000000000000001402201700000000            000000000000000                              000                           
0010001300187T 020180230000002544776 29647040524714581   788888888888889916022017000000000006000001017612888888888888899          0900000000000010000000000000000000000000000000000000000   0000000000000000000000000A9        170192964704     
0010001300188U 020000000000000000000000000000000000000000000000000000000000000000000000000000000000000000000000000000000000000000000000001402201700000000            000000000000000                              000                           
0010001300189T 020180230000002544776 29647040524831473   788888888888889916022017000000000008000001006734888888888888899          0900000000000010000000000000000000000000000000000000000   0000000000000000000000000A9        170192964704     
0010001300190U 020000000000000000000000000000000000000000000000000000000000000000000000000000000000000000000000000000000000000000000000001402201700000000            000000000000000                              000                           
0010001300191T 020180230000002544776 29647040524917146   788888888888889916022017000000000008000001010596888888888888899          0900000000000010000000000000000000000000000000000000000   0000000000000000000000000A9        170192964704     
0010001300192U 020000000000000000000000000000000000000000000000000000000000000000000000000000000000000000000000000000000000000000000000001402201700000000            000000000000000                              000                           
0010001300193T 020180230000002544776 29647040525237995   788888888888889916022017000000000006000001018376888888888888899          0900000000000010000000000000000000000000000000000000000   0000000000000000000000000A9        170192964704     
0010001300194U 020000000000000000000000000000000000000000000000000000000000000000000000000000000000000000000000000000000000000000000000001402201700000000            000000000000000                              000                           
0010001300195T 020180230000002544776 29647040525700196   788888888888889916022017000000000006000001013617888888888888899          0900000000000010000000000000000000000000000000000000000   0000000000000000000000000A9        170192964704     
0010001300196U 020000000000000000000000000000000000000000000000000000000000000000000000000000000000000000000000000000000000000000000000001402201700000000            000000000000000                              000                           
0010001300197T 020180230000002544776 29647040525844158   788888888888889916022017000000000006000001016543888888888888899          0900000000000010000000000000000000000000000000000000000   0000000000000000000000000A9        170192964704     
0010001300198U 020000000000000000000000000000000000000000000000000000000000000000000000000000000000000000000000000000000000000000000000001402201700000000            000000000000000                              000                           
0010001300199T 020180230000002544776 29647040526054281   78888888888888991602201700000000000600000101138X888888888888899          0900000000000010000000000000000000000000000000000000000   0000000000000000000000000A9        170192964704     
0010001300200U 020000000000000000000000000000000000000000000000000000000000000000000000000000000000000000000000000000000000000000000000001402201700000000            000000000000000                              000                           
0010001300201T 020180230000002544776 29647040526259210   788888888888889916022017000000000006000001028029888888888888899          0900000000000010000000000000000000000000000000000000000   0000000000000000000000000A9        170192964704     
0010001300202U 020000000000000000000000000000000000000000000000000000000000000000000000000000000000000000000000000000000000000000000000001402201700000000            000000000000000                              000                           
0010001300203T 020180230000002544776 29647040526750548   788888888888889916022017000000000008000001018376888888888888899          0900000000000010000000000000000000000000000000000000000   0000000000000000000000000A9        170192964704     
0010001300204U 020000000000000000000000000000000000000000000000000000000000000000000000000000000000000000000000000000000000000000000000001402201700000000            000000000000000                              000                           
0010001300205T 020180230000002544776 29647040526850578   788888888888889916022017000000000006000001028029888888888888899          0900000000000010000000000000000000000000000000000000000   0000000000000000000000000A9        170192964704     
0010001300206U 020000000000000000000000000000000000000000000000000000000000000000000000000000000000000000000000000000000000000000000000001402201700000000            000000000000000                              000                           
0010001300207T 020180230000002544776 29647040526924431   788888888888889916022017000000000006000001035041888888888888899          0900000000000010000000000000000000000000000000000000000   0000000000000000000000000A9        170192964704     
0010001300208U 020000000000000000000000000000000000000000000000000000000000000000000000000000000000000000000000000000000000000000000000001402201700000000            000000000000000                              000                           
0010001300209T 020180230000002544776 29647040527026074   788888888888889916022017000000000008000001016179888888888888899          0900000000000010000000000000000000000000000000000000000   0000000000000000000000000A9        170192964704     
0010001300210U 020000000000000000000000000000000000000000000000000000000000000000000000000000000000000000000000000000000000000000000000001402201700000000            000000000000000                              000                           
0010001300211T 020180230000002544776 29647040527144789   788888888888889916022017000000000006000001016179888888888888899          0900000000000010500000000000000000000000000000000000000   0000000000000000000000000A9A4      170192964704     
0010001300212U 020000000000000000000000000000000000000000000000000000000000000000000000000000000000000000000000000000000000000000000000001402201700000000            000000000000000                              000                           
0010001300213T 020180230000002544776 29647040527628072   788888888888889916022017000000000006000001016179888888888888899          0900000000000010000000000000000000000000000000000000000   0000000000000000000000000A9        170192964704     
0010001300214U 020000000000000000000000000000000000000000000000000000000000000000000000000000000000000000000000000000000000000000000000001402201700000000            000000000000000                              000                           
0010001300215T 020180230000002544776 29647040527740753   788888888888889916022017000000000006000001000132888888888888899          0900000000000010000000000000000000000000000000000000000   0000000000000000000000000A9        170192964704     
0010001300216U 020000000000000000000000000000000000000000000000000000000000000000000000000000000000000000000000000000000000000000000000001402201700000000            000000000000000                              000                           
0010001300217T 020180230000002544776 29647040528007685   788888888888889916022017000000000006000001012467888888888888899          0900000000000010000000000000000000000000000000000000000   0000000000000000000000000A9        170192964704     
0010001300218U 020000000000000000000000000000000000000000000000000000000000000000000000000000000000000000000000000000000000000000000000001402201700000000            000000000000000                              000                           
0010001300219T 020180230000002544776 29647040528142774   788888888888889916022017000000000006000001006211888888888888899          0900000000000010000000000000000000000000000000000000000   0000000000000000000000000A9        170192964704     
0010001300220U 020000000000000000000000000000000000000000000000000000000000000000000000000000000000000000000000000000000000000000000000001402201700000000            000000000000000                              000                           
0010001300221T 020180230000002544776 29647040528450947   788888888888889916022017000000000006000001000361888888888888899          0900000000000010000000000000000000000000000000000000000   0000000000000000000000000A9        170192964704     
0010001300222U 020000000000000000000000000000000000000000000000000000000000000000000000000000000000000000000000000000000000000000000000001402201700000000            000000000000000                              000                           
0010001300223T 020180230000002544776 29647040528539042   788888888888889916022017000000000006000001028029888888888888899          0900000000000010000000000000000000000000000000000000000   0000000000000000000000000A9        170192964704     
0010001300224U 020000000000000000000000000000000000000000000000000000000000000000000000000000000000000000000000000000000000000000000000001402201700000000            000000000000000                              000                           
0010001300225T 020180230000002544776 29647040528730863   788888888888889916022017000000000006000001006734888888888888899          0900000000000010000000000000000000000000000000000000000   0000000000000000000000000A9        170192964704     
0010001300226U 020000000000000000000000000000000000000000000000000000000000000000000000000000000000000000000000000000000000000000000000001402201700000000            000000000000000                              000                           
0010001300227T 020180230000002544776 29647040528805168   788888888888889916022017000000000006000001000132888888888888899          0900000000000010000000000000000000000000000000000000000   0000000000000000000000000A9        170192964704     
0010001300228U 020000000000000000000000000000000000000000000000000000000000000000000000000000000000000000000000000000000000000000000000001402201700000000            000000000000000                              000                           
0010001300229T 020180230000002544776 29647040528949589   788888888888889916022017000000000006000001016179888888888888899          0900000000000010000000000000000000000000000000000000000   0000000000000000000000000A9        170192964704     
0010001300230U 020000000000000000000000000000000000000000000000000000000000000000000000000000000000000000000000000000000000000000000000001402201700000000            000000000000000                              000                           
0010001300231T 020180230000002544776 29647040529001147   78888888888888991602201700000000000600000102564X888888888888899          0900000000000010000000000000000000000000000000000000000   0000000000000000000000000A9        170192964704     
0010001300232U 020000000000000000000000000000000000000000000000000000000000000000000000000000000000000000000000000000000000000000000000001402201700000000            000000000000000                              000                           
0010001300233T 020180230000002544776 29647040529202290   788888888888889916022017000000000008000001016179888888888888899          0900000000000010000000000000000000000000000000000000000   0000000000000000000000000A9        170192964704     
0010001300234U 020000000000000000000000000000000000000000000000000000000000000000000000000000000000000000000000000000000000000000000000001402201700000000            000000000000000                              000                           
0010001300235T 020180230000002544776 29647040529349579   788888888888889916022017000000000006000001012688888888888888899          0900000000000010000000000000000000000000000000000000000   0000000000000000000000000A9        170192964704     
0010001300236U 020000000000000000000000000000000000000000000000000000000000000000000000000000000000000000000000000000000000000000000000001402201700000000            000000000000000                              000                           
0010001300237T 020180230000002544776 29647040529642716   788888888888889916022017000000000006000001028029888888888888899          0900000000000010500000000000000000000000000000000000000   0000000000000000000000000A9A4      170192964704     
0010001300238U 020000000000000000000000000000000000000000000000000000000000000000000000000000000000000000000000000000000000000000000000001402201700000000            000000000000000                              000                           
0010001300239T 020180230000002544776 29647040529832345   788888888888889916022017000000000006000001028029888888888888899          0900000000000010000000000000000000000000000000000000000   0000000000000000000000000A9        170192964704     
0010001300240U 020000000000000000000000000000000000000000000000000000000000000000000000000000000000000000000000000000000000000000000000001402201700000000            000000000000000                              000                           
0010001300241T 020180230000002544776 29647040529949779   788888888888889916022017000000000006000001016179888888888888899          0900000000000010000000000000000000000000000000000000000   0000000000000000000000000A9        170192964704     
0010001300242U 020000000000000000000000000000000000000000000000000000000000000000000000000000000000000000000000000000000000000000000000001402201700000000            000000000000000                              000                           
0010001300243T 020180230000002544776 29647040530005436   788888888888889916022017000000000006000001032859888888888888899          0900000000000010000000000000000000000000000000000000000   0000000000000000000000000A9        170192964704     
0010001300244U 020000000000000000000000000000000000000000000000000000000000000000000000000000000000000000000000000000000000000000000000001402201700000000            000000000000000                              000                           
0010001300245T 020180230000002544776 29647040530043732   7               16022017000000000006000001032859                         0900000000000010000000000000000000000000000000000000000   0000000000000000000000000A9        170192964704     
0010001300246U 020000000000000000000000000000000000000000000000000000000000000000000000000000000000000000000000000000000000000000000000001402201700000000            000000000000000                              000                           
0010001300247T 020180230000002544776 29647040530613507   788888888888889916022017000000000006000001016179888888888888899          0900000000000010000000000000000000000000000000000000000   0000000000000000000000000A9        170192964704     
0010001300248U 020000000000000000000000000000000000000000000000000000000000000000000000000000000000000000000000000000000000000000000000001402201700000000            000000000000000                              000                           
0010001300249T 020180230000002544776 29647040530706173   788888888888889916022017000000000006000001005428888888888888899          0900000000000010000000000000000000000000000000000000000   0000000000000000000000000A9        170192964704     
0010001300250U 020000000000000000000000000000000000000000000000000000000000000000000000000000000000000000000000000000000000000000000000001402201700000000            000000000000000                              000                           
0010001300251T 020180230000002544776 29647040530818096   788888888888889916022017000000000006000001033316888888888888899          0900000000000010000000000000000000000000000000000000000   0000000000000000000000000A9        170192964704     
0010001300252U 020000000000000000000000000000000000000000000000000000000000000000000000000000000000000000000000000000000000000000000000001402201700000000            000000000000000                              000                           
0010001300253T 020180230000002544776 29647040530923307   788888888888889916022017000000000006000001033316888888888888899          0900000000000010000000000000000000000000000000000000000   0000000000000000000000000A9        170192964704     
0010001300254U 020000000000000000000000000000000000000000000000000000000000000000000000000000000000000000000000000000000000000000000000001402201700000000            000000000000000                              000                           
0010001300255T 020180230000002544776 29647040531329535   788888888888889916022017000000000006000001028029888888888888899          0900000000000010000000000000000000000000000000000000000   0000000000000000000000000A9        170192964704     
0010001300256U 020000000000000000000000000000000000000000000000000000000000000000000000000000000000000000000000000000000000000000000000001402201700000000            000000000000000                              000                           
0010001300257T 020180230000002544776 29647040531442633   788888888888889916022017000000000006000001008311888888888888899          0900000000000010000000000000000000000000000000000000000   0000000000000000000000000A9        170192964704     
0010001300258U 020000000000000000000000000000000000000000000000000000000000000000000000000000000000000000000000000000000000000000000000001402201700000000            000000000000000                              000                           
0010001300259T 020180230000002544776 29647040531824521   7               16022017000000000006000001008214                         0900000000000010000000000000000000000000000000000000000   0000000000000000000000000A9        170192964704     
0010001300260U 020000000000000000000000000000000000000000000000000000000000000000000000000000000000000000000000000000000000000000000000001402201700000000            000000000000000                              000                           
0010001300261T 020180230000002544776 29647040531837585   7               15022017000000000006000001008214                         0900000000000010000000000000000000000000000000000000000   0000000000000000000000000A9        170192964704     
0010001300262U 020000000000000000000000000000000000000000000000000000000000000000000000000000000000000000000000000000000000000000000000001302201700000000            000000000000000                              000                           
0010001300263T 020180230000002544776 29647040531849423   788888888888889916022017000000000006000001008214888888888888899          0900000000000010000000000000000000000000000000000000000   0000000000000000000000000A9        170192964704     
0010001300264U 020000000000000000000000000000000000000000000000000000000000000000000000000000000000000000000000000000000000000000000000001402201700000000            000000000000000                              000                           
0010001300265T 020180230000002544776 29647040532411776   788888888888889916022017000000000006000001028029888888888888899          0900000000000010000000000000000000000000000000000000000   0000000000000000000000000A9        170192964704     
0010001300266U 020000000000000000000000000000000000000000000000000000000000000000000000000000000000000000000000000000000000000000000000001402201700000000            000000000000000                              000                           
0010001300267T 020180230000002544776 29647040532637210   788888888888889916022017000000000006000001028029888888888888899          0900000000000010000000000000000000000000000000000000000   0000000000000000000000000A9        170192964704     
0010001300268U 020000000000000000000000000000000000000000000000000000000000000000000000000000000000000000000000000000000000000000000000001402201700000000            000000000000000                              000                           
0010001300269T 020180230000002544776 29647040532720117   788888888888889916022017000000000008000001028029888888888888899          0900000000000010000000000000000000000000000000000000000   0000000000000000000000000A9        170192964704     
0010001300270U 020000000000000000000000000000000000000000000000000000000000000000000000000000000000000000000000000000000000000000000000001402201700000000            000000000000000                              000                           
0010001300271T 020180230000002544776 29647040532840241   788888888888889916022017000000000006000001033316888888888888899          0900000000000010000000000000000000000000000000000000000   0000000000000000000000000A9        170192964704     
0010001300272U 020000000000000000000000000000000000000000000000000000000000000000000000000000000000000000000000000000000000000000000000001402201700000000            000000000000000                              000                           
0010001300273T 020180230000002544776 29647040532853814   788888888888889916022017000000000006000001033316888888888888899          0900000000000010000000000000000000000000000000000000000   0000000000000000000000000A9        170192964704     
0010001300274U 020000000000000000000000000000000000000000000000000000000000000000000000000000000000000000000000000000000000000000000000001402201700000000            000000000000000                              000                           
0010001300275T 020180230000002544776 29647040532948534   788888888888889916022017000000000006000001010499888888888888899          0900000000000010000000000000000000000000000000000000000   0000000000000000000000000A9        170192964704     
0010001300276U 020000000000000000000000000000000000000000000000000000000000000000000000000000000000000000000000000000000000000000000000001402201700000000            000000000000000                              000                           
0010001300277T 020180230000002544776 29647040533028738   788888888888889916022017000000000006000001000132888888888888899          0900000000000010000000000000000000000000000000000000000   0000000000000000000000000A9        170192964704     
0010001300278U 020000000000000000000000000000000000000000000000000000000000000000000000000000000000000000000000000000000000000000000000001402201700000000            000000000000000                              000                           
0010001300279T 020180230000002544776 29647040533134251   7               15022017000000000008000001016179                         0900000000000010000000000000000000000000000000000000000   0000000000000000000000000A9        170192964704     
0010001300280U 020000000000000000000000000000000000000000000000000000000000000000000000000000000000000000000000000000000000000000000000001302201700000000            000000000000000                              000                           
0010001300281T 020180230000002544776 29647040533202967   788888888888889916022017000000000006000001016179888888888888899          0900000000000010000000000000000000000000000000000000000   0000000000000000000000000A9        170192964704     
0010001300282U 020000000000000000000000000000000000000000000000000000000000000000000000000000000000000000000000000000000000000000000000001402201700000000            000000000000000                              000                           
0010001300283T 020180230000002544776 29647040533203629   7               15022017000000000006000001016179                         0900000000000010000000000000000000000000000000000000000   0000000000000000000000000A9        170192964704     
0010001300284U 020000000000000000000000000000000000000000000000000000000000000000000000000000000000000000000000000000000000000000000000001302201700000000            000000000000000                              000                           
0010001300285T 020180230000002544776 29647040533318340   788888888888889916022017000000000006000001000132888888888888899          0900000000000010000000000000000000000000000000000000000   0000000000000000000000000A9        170192964704     
0010001300286U 020000000000000000000000000000000000000000000000000000000000000000000000000000000000000000000000000000000000000000000000001402201700000000            000000000000000                              000                           
0010001300287T 020180230000002544776 29647040533706552   788888888888889916022017000000000008000001016179888888888888899          0900000000000010000000000000000000000000000000000000000   0000000000000000000000000A9        170192964704     
0010001300288U 020000000000000000000000000000000000000000000000000000000000000000000000000000000000000000000000000000000000000000000000001402201700000000            000000000000000                              000                           
0010001300289T 020180230000002544776 29647040534014313   78888888888888991602201700000000000600000101463X888888888888899          0900000000000010000000000000000000000000000000000000000   0000000000000000000000000A9        170192964704     
0010001300290U 020000000000000000000000000000000000000000000000000000000000000000000000000000000000000000000000000000000000000000000000001402201700000000            000000000000000                              000                           
0010001300291T 020180230000002544776 29647040534125847   7               16022017000000000006000001033316                         0900000000000010000000000000000000000000000000000000000   0000000000000000000000000A9        170192964704     
0010001300292U 020000000000000000000000000000000000000000000000000000000000000000000000000000000000000000000000000000000000000000000000001402201700000000            000000000000000                              000                           
0010001300293T 020180230000002544776 29647040534128672   7               15022017000000000006000001033316                         0900000000000010000000000000000000000000000000000000000   0000000000000000000000000A9        170192964704     
0010001300294U 020000000000000000000000000000000000000000000000000000000000000000000000000000000000000000000000000000000000000000000000001302201700000000            000000000000000                              000                           
0010001300295T 020180230000002544776 29647040534138517   7               16022017000000000006000001033316                         0900000000000010000000000000000000000000000000000000000   0000000000000000000000000A9        170192964704     
0010001300296U 020000000000000000000000000000000000000000000000000000000000000000000000000000000000000000000000000000000000000000000000001402201700000000            000000000000000                              000                           
0010001300297T 020180230000002544776 29647040534146369   7               16022017000000000006000001033316                         0900000000000010000000000000000000000000000000000000000   0000000000000000000000000A9        170192964704     
0010001300298U 020000000000000000000000000000000000000000000000000000000000000000000000000000000000000000000000000000000000000000000000001402201700000000            000000000000000                              000                           
0010001300299T 020180230000002544776 29647040534153858   7               16022017000000000006000001033316                         0900000000000010000000000000000000000000000000000000000   0000000000000000000000000A9        170192964704     
0010001300300U 020000000000000000000000000000000000000000000000000000000000000000000000000000000000000000000000000000000000000000000000001402201700000000            000000000000000                              000                           
0010001300301T 020180230000002544776 29647040534205556   788888888888889916022017000000000006000001016179888888888888899          0900000000000010500000000000000000000000000000000000000   0000000000000000000000000A9A4      170192964704     
0010001300302U 020000000000000000000000000000000000000000000000000000000000000000000000000000000000000000000000000000000000000000000000001402201700000000            000000000000000                              000                           
0010001300303T 020180230000002544776 29647040534541448   788888888888889916022017000000000006000001013021888888888888899          0900000000000010000000000000000000000000000000000000000   0000000000000000000000000A9        170192964704     
0010001300304U 020000000000000000000000000000000000000000000000000000000000000000000000000000000000000000000000000000000000000000000000001402201700000000            000000000000000                              000                           
0010001300305T 020180230000002544776 29647040534610393   788888888888889916022017000000000006000001028029888888888888899          0900000000000010000000000000000000000000000000000000000   0000000000000000000000000A9        170192964704     
0010001300306U 020000000000000000000000000000000000000000000000000000000000000000000000000000000000000000000000000000000000000000000000001402201700000000            000000000000000                              000                           
0010001300307T 020180230000002544776 29647040535056777   788888888888889916022017000000000006000001008214888888888888899          0900000000000010500000000000000000000000000000000000000   0000000000000000000000000A9A4      170192964704     
0010001300308U 020000000000000000000000000000000000000000000000000000000000000000000000000000000000000000000000000000000000000000000000001402201700000000            000000000000000                              000                           
0010001300309T 020180230000002544776 29647040535105234   788888888888889916022017000000000006000001008214888888888888899          0900000000000010000000000000000000000000000000000000000   0000000000000000000000000A9        170192964704     
0010001300310U 020000000000000000000000000000000000000000000000000000000000000000000000000000000000000000000000000000000000000000000000001402201700000000            000000000000000                              000                           
0010001300311T 020180230000002544776 29647040535124390   788888888888889916022017000000000006000001008214888888888888899          0900000000000010000000000000000000000000000000000000000   0000000000000000000000000A9        170192964704     
0010001300312U 020000000000000000000000000000000000000000000000000000000000000000000000000000000000000000000000000000000000000000000000001402201700000000            000000000000000                              000                           
0010001300313T 020180230000002544776 29647040535827206   788888888888889916022017000000000006000001018376888888888888899          0900000000000010000000000000000000000000000000000000000   0000000000000000000000000A9        170192964704     
0010001300314U 020000000000000000000000000000000000000000000000000000000000000000000000000000000000000000000000000000000000000000000000001402201700000000            000000000000000                              000                           
0010001300315T 020180230000002544776 29647040536715991   788888888888889916022017000000000006000001016179888888888888899          0900000000000010000000000000000000000000000000000000000   0000000000000000000000000A9        170192964704     
0010001300316U 020000000000000000000000000000000000000000000000000000000000000000000000000000000000000000000000000000000000000000000000001402201700000000            000000000000000                              000                           
0010001300317T 020180230000002544776 29647040536915615   788888888888889916022017000000000008000001010529888888888888899          0900000000000010000000000000000000000000000000000000000   0000000000000000000000000A9        170192964704     
0010001300318U 020000000000000000000000000000000000000000000000000000000000000000000000000000000000000000000000000000000000000000000000001402201700000000            000000000000000                              000                           
0010001300319T 020180230000002544776 29647040537047979   788888888888889916022017000000000006000001028029888888888888899          0900000000000010500000000000000000000000000000000000000   0000000000000000000000000A9A4      170192964704     
0010001300320U 020000000000000000000000000000000000000000000000000000000000000000000000000000000000000000000000000000000000000000000000001402201700000000            000000000000000                              000                           
0010001300321T 020180230000002544776 29647040537222187   788888888888889916022017000000000006000001000132888888888888899          0900000000000010000000000000000000000000000000000000000   0000000000000000000000000A9        170192964704     
0010001300322U 020000000000000000000000000000000000000000000000000000000000000000000000000000000000000000000000000000000000000000000000001402201700000000            000000000000000                              000                           
0010001300323T 020180230000002544776 29647040537305056   788888888888889916022017000000000006000001000132888888888888899          0900000000000010500000000000000000000000000000000000000   0000000000000000000000000A9A4      170192964704     
0010001300324U 020000000000000000000000000000000000000000000000000000000000000000000000000000000000000000000000000000000000000000000000001402201700000000            000000000000000                              000                           
0010001300325T 020180230000002544776 29647040537447540   788888888888889916022017000000000006000001012467888888888888899          0900000000000010000000000000000000000000000000000000000   0000000000000000000000000A9        170192964704     
0010001300326U 020000000000000000000000000000000000000000000000000000000000000000000000000000000000000000000000000000000000000000000000001402201700000000            000000000000000                              000                           
0010001300327T 020180230000002544776 29647040537742437   788888888888889916022017000000000006000001000132888888888888899          0900000000000010500000000000000000000000000000000000000   0000000000000000000000000A9A4      170192964704     
0010001300328U 020000000000000000000000000000000000000000000000000000000000000000000000000000000000000000000000000000000000000000000000001402201700000000            000000000000000                              000                           
0010001300329T 020180230000002544776 29647040537841874   788888888888889916022017000000000006000001000361888888888888899          0900000000000010000000000000000000000000000000000000000   0000000000000000000000000A9        170192964704     
0010001300330U 020000000000000000000000000000000000000000000000000000000000000000000000000000000000000000000000000000000000000000000000001402201700000000            000000000000000                              000                           
0010001300331T 020180230000002544776 29647040538122274   788888888888889916022017000000000006000001024430888888888888899          0900000000000010000000000000000000000000000000000000000   0000000000000000000000000A9        170192964704     
0010001300332U 020000000000000000000000000000000000000000000000000000000000000000000000000000000000000000000000000000000000000000000000001402201700000000            000000000000000                              000                           
0010001300333T 020180230000002544776 29647040538211478   78888888888888991602201700000000000600000101138X888888888888899          0900000000000010000000000000000000000000000000000000000   0000000000000000000000000A9        170192964704     
0010001300334U 020000000000000000000000000000000000000000000000000000000000000000000000000000000000000000000000000000000000000000000000001402201700000000            000000000000000                              000                           
0010001300335T 020180230000002544776 29647040538413936   788888888888889916022017000000000008000001000132888888888888899          0900000000000010000000000000000000000000000000000000000   0000000000000000000000000A9        170192964704     
0010001300336U 020000000000000000000000000000000000000000000000000000000000000000000000000000000000000000000000000000000000000000000000001402201700000000            000000000000000                              000                           
0010001300337T 020180230000002544776 29647040538501191   788888888888889916022017000000000006000001000132888888888888899          0900000000000010000000000000000000000000000000000000000   0000000000000000000000000A9        170192964704     
0010001300338U 020000000000000000000000000000000000000000000000000000000000000000000000000000000000000000000000000000000000000000000000001402201700000000            000000000000000                              000                           
0010001300339T 020180230000002544776 29647040538825384   788888888888889916022017000000000006000001023655888888888888899          0900000000000010000000000000000000000000000000000000000   0000000000000000000000000A9        170192964704     
0010001300340U 020000000000000000000000000000000000000000000000000000000000000000000000000000000000000000000000000000000000000000000000001402201700000000            000000000000000                              000                           
0010001300341T 020180230000002544776 29647040539042923   7               16022017000000000006000001016179                         0900000000000010000000000000000000000000000000000000000   0000000000000000000000000A9        170192964704     
0010001300342U 020000000000000000000000000000000000000000000000000000000000000000000000000000000000000000000000000000000000000000000000001402201700000000            000000000000000                              000                           
0010001300343T 020180230000002544776 29647040539153283   788888888888889916022017000000000006000001000132888888888888899          0900000000000010000000000000000000000000000000000000000   0000000000000000000000000A9        170192964704     
0010001300344U 020000000000000000000000000000000000000000000000000000000000000000000000000000000000000000000000000000000000000000000000001402201700000000            000000000000000                              000                           
0010001300345T 020180230000002544776 29647040539756579   788888888888889916022017000000000006000001008249888888888888899          0900000000000010000000000000000000000000000000000000000   0000000000000000000000000A9        170192964704     
0010001300346U 020000000000000000000000000000000000000000000000000000000000000000000000000000000000000000000000000000000000000000000000001402201700000000            000000000000000                              000                           
0010001300347T 020180230000002544776 29647040540153868   788888888888889916022017000000000006000001012467888888888888899          0900000000000010000000000000000000000000000000000000000   0000000000000000000000000A9        170192964704     
0010001300348U 020000000000000000000000000000000000000000000000000000000000000000000000000000000000000000000000000000000000000000000000001402201700000000            000000000000000                              000                           
0010001300349T 020180230000002544776 29647040540224099   788888888888889916022017000000000006000001000132888888888888899          0900000000000010000000000000000000000000000000000000000   0000000000000000000000000A9        170192964704     
0010001300350U 020000000000000000000000000000000000000000000000000000000000000000000000000000000000000000000000000000000000000000000000001402201700000000            000000000000000                              000                           
0010001300351T 020180230000002544776 29647040540426871   788888888888889916022017000000000006000001028029888888888888899          0900000000000010000000000000000000000000000000000000000   0000000000000000000000000A9        170192964704     
0010001300352U 020000000000000000000000000000000000000000000000000000000000000000000000000000000000000000000000000000000000000000000000001402201700000000            000000000000000                              000                           
0010001300353T 020180230000002544776 29647040540436068   788888888888889916022017000000000006000001028029888888888888899          0900000000000010000000000000000000000000000000000000000   0000000000000000000000000A9        170192964704     
0010001300354U 020000000000000000000000000000000000000000000000000000000000000000000000000000000000000000000000000000000000000000000000001402201700000000            000000000000000                              000                           
0010001300355T 020180230000002544776 29647040540625076   788888888888889916022017000000000008000001034770888888888888899          0900000000000010000000000000000000000000000000000000000   0000000000000000000000000A9        170192964704     
0010001300356U 020000000000000000000000000000000000000000000000000000000000000000000000000000000000000000000000000000000000000000000000001402201700000000            000000000000000                              000                           
0010001300357T 020180230000002544776 29647040540959654   788888888888889916022017000000000006000001008214888888888888899          0900000000000010000000000000000000000000000000000000000   0000000000000000000000000A9        170192964704     
0010001300358U 020000000000000000000000000000000000000000000000000000000000000000000000000000000000000000000000000000000000000000000000001402201700000000            000000000000000                              000                           
0010001300359T 020180230000002544776 29647040541055724   788888888888889916022017000000000006000001033316888888888888899          0900000000000010000000000000000000000000000000000000000   0000000000000000000000000A9        170192964704     
0010001300360U 020000000000000000000000000000000000000000000000000000000000000000000000000000000000000000000000000000000000000000000000001402201700000000            000000000000000                              000                           
0010001300361T 020180230000002544776 29647040541126542   788888888888889916022017000000000006000001010588888888888888899          0900000000000010000000000000000000000000000000000000000   0000000000000000000000000A9        170192964704     
0010001300362U 020000000000000000000000000000000000000000000000000000000000000000000000000000000000000000000000000000000000000000000000001402201700000000            000000000000000                              000                           
0010001300363T 020180230000002544776 29647040542204437   7               16022017000000000006000001000132                         0900000000000010000000000000000000000000000000000000000   0000000000000000000000000A9        170192964704     
0010001300364U 020000000000000000000000000000000000000000000000000000000000000000000000000000000000000000000000000000000000000000000000001402201700000000            000000000000000                              000                           
0010001300365T 020180230000002544776 29647040543110502   7               16022017000000000006000001028029                         0900000000000010000000000000000000000000000000000000000   0000000000000000000000000A9        170192964704     
0010001300366U 020000000000000000000000000000000000000000000000000000000000000000000000000000000000000000000000000000000000000000000000001402201700000000            000000000000000                              000                           
0010001300367T 020180230000002544776 29647040543231549   7               16022017000000000006000001007145                         0900000000000010000000000000000000000000000000000000000   0000000000000000000000000A9        170192964704     
0010001300368U 020000000000000000000000000000000000000000000000000000000000000000000000000000000000000000000000000000000000000000000000001402201700000000            000000000000000                              000                           
0010001300369T 020180230000002544776 29647040543610100   7               16022017000000000006000001012467                         0900000000000010000000000000000000000000000000000000000   0000000000000000000000000A9        170192964704     
0010001300370U 020000000000000000000000000000000000000000000000000000000000000000000000000000000000000000000000000000000000000000000000001402201700000000            000000000000000                              000                           
0010001300371T 020180230000002544776 29647040544059101   7               16022017000000000008000001023655                         0900000000000010500000000000000000000000000000000000000   0000000000000000000000000A9A4      170192964704     
0010001300372U 020000000000000000000000000000000000000000000000000000000000000000000000000000000000000000000000000000000000000000000000001402201700000000            000000000000000                              000                           
0010001300373T 020180230000002544776 29647040544130880   7               1602201700000000000800000101981X                         0900000000000010000000000000000000000000000000000000000   0000000000000000000000000A9        170192964704     
0010001300374U 020000000000000000000000000000000000000000000000000000000000000000000000000000000000000000000000000000000000000000000000001402201700000000            000000000000000                              000                           
0010001300375T 020180230000002544776 29647040544205290   7               16022017000000000008000001002542                         0900000000000010000000000000000000000000000000000000000   0000000000000000000000000A9        170192964704     
0010001300376U 020000000000000000000000000000000000000000000000000000000000000000000000000000000000000000000000000000000000000000000000001402201700000000            000000000000000                              000                           
0010001300377T 020180230000002544776 29647040544225287   7               16022017000000000008000001002542                         0900000000000010000000000000000000000000000000000000000   0000000000000000000000000A9        170192964704     
0010001300378U 020000000000000000000000000000000000000000000000000000000000000000000000000000000000000000000000000000000000000000000000001402201700000000            000000000000000                              000                           
0010001300379T 020180230000002544776 29647040544254747   7               16022017000000000008000001002542                         0900000000000010000000000000000000000000000000000000000   0000000000000000000000000A9        170192964704     
0010001300380U 020000000000000000000000000000000000000000000000000000000000000000000000000000000000000000000000000000000000000000000000001402201700000000            000000000000000                              000                           
0010001300381T 020180230000002544776 29647040544256866   7               16022017000000000008000001002542                         0900000000000010000000000000000000000000000000000000000   0000000000000000000000000A9        170192964704     
0010001300382U 020000000000000000000000000000000000000000000000000000000000000000000000000000000000000000000000000000000000000000000000001402201700000000            000000000000000                              000                           
0010001300383T 020180230000002544776 29647040544312643   7               16022017000000000006000001000132                         0900000000000010000000000000000000000000000000000000000   0000000000000000000000000A9        170192964704     
0010001300384U 020000000000000000000000000000000000000000000000000000000000000000000000000000000000000000000000000000000000000000000000001402201700000000            000000000000000                              000                           
0010001300385T 020180230000002544776 29647040544555323   7               16022017000000000006000001028029                         0900000000000010000000000000000000000000000000000000000   0000000000000000000000000A9        170192964704     
0010001300386U 020000000000000000000000000000000000000000000000000000000000000000000000000000000000000000000000000000000000000000000000001402201700000000            000000000000000                              000                           
0010001300387T 020180230000002544776 29647040544639124   7               16022017000000000006000001028029                         0900000000000010000000000000000000000000000000000000000   0000000000000000000000000A9        170192964704     
0010001300388U 020000000000000000000000000000000000000000000000000000000000000000000000000000000000000000000000000000000000000000000000001402201700000000            000000000000000                              000                           
0010001300389T 020180230000002544776 29647040544934563   7               16022017000000000006000001023353                         0900000000000010000000000000000000000000000000000000000   0000000000000000000000000A9        170192964704     
0010001300390U 020000000000000000000000000000000000000000000000000000000000000000000000000000000000000000000000000000000000000000000000001402201700000000            000000000000000                              000                           
0010001300391T 020180230000002544776 29647040545004774   7               16022017000000000008000001016179                         0900000000000010000000000000000000000000000000000000000   0000000000000000000000000A9        170192964704     
0010001300392U 020000000000000000000000000000000000000000000000000000000000000000000000000000000000000000000000000000000000000000000000001402201700000000            000000000000000                              000                           
0010001300393T 020180230000002544776 29647040545040228   7               16022017000000000008000001016179                         0900000000000010000000000000000000000000000000000000000   0000000000000000000000000A9        170192964704     
0010001300394U 020000000000000000000000000000000000000000000000000000000000000000000000000000000000000000000000000000000000000000000000001402201700000000            000000000000000                              000                           
0010001300395T 020180230000002544776 29647040545047067   7               16022017000000000008000001016179                         0900000000000010000000000000000000000000000000000000000   0000000000000000000000000A9        170192964704     
0010001300396U 020000000000000000000000000000000000000000000000000000000000000000000000000000000000000000000000000000000000000000000000001402201700000000            000000000000000                              000                           
0010001300397T 020180230000002544776 29647040545328597   7               16022017000000000006000001020354                         0900000000000010000000000000000000000000000000000000000   0000000000000000000000000A9        170192964704     
0010001300398U 020000000000000000000000000000000000000000000000000000000000000000000000000000000000000000000000000000000000000000000000001402201700000000            000000000000000                              000                           
0010001300399T 020180230000002544776 29647040545455799   7               16022017000000000006000001028495                         0900000000000010000000000000000000000000000000000000000   0000000000000000000000000A9        170192964704     
0010001300400U 020000000000000000000000000000000000000000000000000000000000000000000000000000000000000000000000000000000000000000000000001402201700000000            000000000000000                              000                           
0010001300401T 020180230000002544776 29647040545503676   7               16022017000000000006000001000132                         0900000000000010000000000000000000000000000000000000000   0000000000000000000000000A9        170192964704     
0010001300402U 020000000000000000000000000000000000000000000000000000000000000000000000000000000000000000000000000000000000000000000000001402201700000000            000000000000000                              000                           
0010001300403T 020180230000002544776 29647040545608610   7               16022017000000000006000001035033                         0900000000000010000000000000000000000000000000000000000   0000000000000000000000000A9        170192964704     
0010001300404U 020000000000000000000000000000000000000000000000000000000000000000000000000000000000000000000000000000000000000000000000001402201700000000            000000000000000                              000                           
0010001300405T 020180230000002544776 29647040545721819   7               16022017000000000006000001013617                         0900000000000010000000000000000000000000000000000000000   0000000000000000000000000A9        170192964704     
0010001300406U 020000000000000000000000000000000000000000000000000000000000000000000000000000000000000000000000000000000000000000000000001402201700000000            000000000000000                              000                           
0010001300407T 020180230000002544776 29647040545946061   7               16022017000000000006000001008214                         0900000000000010000000000000000000000000000000000000000   0000000000000000000000000A9        170192964704     
0010001300408U 020000000000000000000000000000000000000000000000000000000000000000000000000000000000000000000000000000000000000000000000001402201700000000            000000000000000                              000                           
0010001300409T 020180230000002544776 29647040546213273   7               16022017000000000006000001000205                         0900000000000010000000000000000000000000000000000000000   0000000000000000000000000A9        170192964704     
0010001300410U 020000000000000000000000000000000000000000000000000000000000000000000000000000000000000000000000000000000000000000000000001402201700000000            000000000000000                              000                           
0010001300411T 020180230000002544776 29647040546334127   7               1602201700000000000600000100233X                         0900000000000010000000000000000000000000000000000000000   0000000000000000000000000A9        170192964704     
0010001300412U 020000000000000000000000000000000000000000000000000000000000000000000000000000000000000000000000000000000000000000000000001402201700000000            000000000000000                              000                           
