00100000         2247745860001000029647040014       0180230000002544776 INSTITUTO DE SELECAO E TECNOLOBANCO DO BRASIL                         21602201701134100002803000000515122941PROCESSAMEN                                                 
00100011T0100020 20247745860001000029647040014       0180230000002544776 INSTITUTO DE SELECAO E TECNOLO                                                                                000000001602201700000000  000000000                      
0010001300001T 020180230000002544776 29647040506110357   7               1702201700000000000800000101463X                         0900000000000010000000000000000000000000000000000000000   0000000000000000000000000A9        170192964704     
0010001300002U 020000000000000000000000000000000000000000000000000000000000000000000000000000000000000000000000000000000000000000000000001502201700000000            000000000000000                              000                           
0010001300003T 020180230000002544776 29647040506151448   7               1702201700000000000800000101463X                         0900000000000010000000000000000000000000000000000000000   0000000000000000000000000A9        170192964704     
0010001300004U 020000000000000000000000000000000000000000000000000000000000000000000000000000000000000000000000000000000000000000000000001502201700000000            000000000000000                              000                           
0010001300005T 020180230000002544776 29647040512958017   7               18022017000000000006000001028029                         0900000000000010500000000000000000000000000000000000000   0000000000000000000000000A9A4      170192964704     
0010001300006U 020000000000000000000000000000000000000000000000000000000000000000000000000000000000000000000000000000000000000000000000001602201700000000            000000000000000                              000                           
0010001300007T 020180230000002544776 29647040518552507   7               18022017000000000006000001002003                         0900000000000010000000000000000000000000000000000000000   0000000000000000000000000A9        170192964704     
0010001300008U 020000000000000000000000000000000000000000000000000000000000000000000000000000000000000000000000000000000000000000000000001602201700000000            000000000000000                              000                           
0010001300009T 020180230000002544776 29647040523627369   7               18022017000000000006000001000361                         0900000000000010500000000000000000000000000000000000000   0000000000000000000000000A9A4      170192964704     
0010001300010U 020000000000000000000000000000000000000000000000000000000000000000000000000000000000000000000000000000000000000000000000001602201700000000            000000000000000                              000                           
0010001300011T 020180230000002544776 29647040531304109   7               18022017000000000006000001028029                         0900000000000010000000000000000000000000000000000000000   0000000000000000000000000A9        170192964704     
0010001300012U 020000000000000000000000000000000000000000000000000000000000000000000000000000000000000000000000000000000000000000000000001602201700000000            000000000000000                              000                           
0010001300013T 020180230000002544776 29647040552412538   7               18022017000000000006000001000132                         0900000000000010000000000000000000000000000000000000000   0000000000000000000000000A9        170192964704     
0010001300014U 020000000000000000000000000000000000000000000000000000000000000000000000000000000000000000000000000000000000000000000000001602201700000000            000000000000000                              000                           
0010001300015T 020180230000002544776 29647040554347566   7               18022017000000000006000001018376                         0900000000000010000000000000000000000000000000000000000   0000000000000000000000000A9        170192964704     
0010001300016U 020000000000000000000000000000000000000000000000000000000000000000000000000000000000000000000000000000000000000000000000001602201700000000            000000000000000                              000                           
0010001300017T 020180230000002544776 29647040571904838   7               18022017000000000006000001000132                         0900000000000010000000000000000000000000000000000000000   0000000000000000000000000A9        170192964704     
0010001300018U 020000000000000000000000000000000000000000000000000000000000000000000000000000000000000000000000000000000000000000000000001602201700000000            000000000000000                              000                           
0010001300019T 020180230000002544776 29647040571936911   7               18022017000000000006000001000132                         0900000000000010000000000000000000000000000000000000000   0000000000000000000000000A9        170192964704     
0010001300020U 020000000000000000000000000000000000000000000000000000000000000000000000000000000000000000000000000000000000000000000000001602201700000000            000000000000000                              000                           
0010001300021T 020180230000002544776 29647040572007808   7               18022017000000000008000001011371                         0900000000000010000000000000000000000000000000000000000   0000000000000000000000000A9        170192964704     
0010001300022U 020000000000000000000000000000000000000000000000000000000000000000000000000000000000000000000000000000000000000000000000001602201700000000            000000000000000                              000                           
0010001300023T 020180230000002544776 29647040573454461   7               18022017000000000006000001000132                         0900000000000010000000000000000000000000000000000000000   0000000000000000000000000A9        170192964704     
0010001300024U 020000000000000000000000000000000000000000000000000000000000000000000000000000000000000000000000000000000000000000000000001602201700000000            000000000000000                              000                           
0010001300025T 020180230000002544776 29647040585939530   7               18022017000000000008000001012467                         0900000000000010000000000000000000000000000000000000000   0000000000000000000000000A9        170192964704     
0010001300026U 020000000000000000000000000000000000000000000000000000000000000000000000000000000000000000000000000000000000000000000000001602201700000000            000000000000000                              000                           
0010001300027T 020180230000002544776 29647040588209306   7               18022017000000000006000001028029                         0900000000000010000000000000000000000000000000000000000   0000000000000000000000000A9        170192964704     
0010001300028U 020000000000000000000000000000000000000000000000000000000000000000000000000000000000000000000000000000000000000000000000001602201700000000            000000000000000                              000                           
0010001300029T 020180230000002544776 29647040601053650   7               1802201700000000000600000101284X                         0900000000000010000000000000000000000000000000000000000   0000000000000000000000000A9        170192964704     
0010001300030U 020000000000000000000000000000000000000000000000000000000000000000000000000000000000000000000000000000000000000000000000001602201700000000            000000000000000                              000                           
0010001300031T 020180230000002544776 29647040605529949   7               18022017000000000006000001005428                         0900000000000010500000000000000000000000000000000000000   0000000000000000000000000A9A4      170192964704     
0010001300032U 020000000000000000000000000000000000000000000000000000000000000000000000000000000000000000000000000000000000000000000000001602201700000000            000000000000000                              000                           
0010001300033T 020180230000002544776 29647040609008632   7               17022017000000000006000001033316                         0900000000000010000000000000000000000000000000000000000   0000000000000000000000000A9        170192964704     
0010001300034U 020000000000000000000000000000000000000000000000000000000000000000000000000000000000000000000000000000000000000000000000001502201700000000            000000000000000                              000                           
0010001300035T 020180230000002544776 29647040618010402   7               18022017000000000008000001009695                         0900000000000010000000000000000000000000000000000000000   0000000000000000000000000A9        170192964704     
0010001300036U 020000000000000000000000000000000000000000000000000000000000000000000000000000000000000000000000000000000000000000000000001602201700000000            000000000000000                              000                           
0010001300037T 020180230000002544776 29647040622029779   7               18022017000000000008000001016179                         0900000000000010500000000000000000000000000000000000000   0000000000000000000000000A9A4      170192964704     
0010001300038U 020000000000000000000000000000000000000000000000000000000000000000000000000000000000000000000000000000000000000000000000001602201700000000            000000000000000                              000                           
0010001300039T 020180230000002544776 29647040629010835   7               18022017000000000006000001000132                         0900000000000010000000000000000000000000000000000000000   0000000000000000000000000A9        170192964704     
0010001300040U 020000000000000000000000000000000000000000000000000000000000000000000000000000000000000000000000000000000000000000000000001602201700000000            000000000000000                              000                           
0010001300041T 020180230000002544776 29647040629028823   7               18022017000000000006000001000132                         0900000000000010000000000000000000000000000000000000000   0000000000000000000000000A9        170192964704     
0010001300042U 020000000000000000000000000000000000000000000000000000000000000000000000000000000000000000000000000000000000000000000000001602201700000000            000000000000000                              000                           
0010001300043T 020180230000002544776 29647040629030207   7               18022017000000000006000001000132                         0900000000000010000000000000000000000000000000000000000   0000000000000000000000000A9        170192964704     
0010001300044U 020000000000000000000000000000000000000000000000000000000000000000000000000000000000000000000000000000000000000000000000001602201700000000            000000000000000                              000                           
0010001300045T 020180230000002544776 29647040629032946   7               18022017000000000006000001000132                         0900000000000010000000000000000000000000000000000000000   0000000000000000000000000A9        170192964704     
0010001300046U 020000000000000000000000000000000000000000000000000000000000000000000000000000000000000000000000000000000000000000000000001602201700000000            000000000000000                              000                           
0010001300047T 020180230000002544776 29647040629033007   7               18022017000000000006000001000132                         0900000000000010000000000000000000000000000000000000000   0000000000000000000000000A9        170192964704     
0010001300048U 020000000000000000000000000000000000000000000000000000000000000000000000000000000000000000000000000000000000000000000000001602201700000000            000000000000000                              000                           
0010001300049T 020180230000002544776 29647040629040138   7               18022017000000000006000001000132                         0900000000000010000000000000000000000000000000000000000   0000000000000000000000000A9        170192964704     
0010001300050U 020000000000000000000000000000000000000000000000000000000000000000000000000000000000000000000000000000000000000000000000001602201700000000            000000000000000                              000                           
0010001300051T 020180230000002544776 29647040631014046   7               18022017000000000008000001028029                         0900000000000010000000000000000000000000000000000000000   0000000000000000000000000A9        170192964704     
0010001300052U 020000000000000000000000000000000000000000000000000000000000000000000000000000000000000000000000000000000000000000000000001602201700000000            000000000000000                              000                           
0010001300053T 020180230000002544776 29647040633558454   7               17022017000000000008000001000132                         0900000000000010000000000000000000000000000000000000000   0000000000000000000000000A9        170192964704     
0010001300054U 020000000000000000000000000000000000000000000000000000000000000000000000000000000000000000000000000000000000000000000000001502201700000000            000000000000000                              000                           
0010001300055T 020180230000002544776 29647040633940226   7               18022017000000000006000001000132                         0900000000000010000000000000000000000000000000000000000   0000000000000000000000000A9        170192964704     
0010001300056U 020000000000000000000000000000000000000000000000000000000000000000000000000000000000000000000000000000000000000000000000001602201700000000            000000000000000                              000                           
0010001300057T 020180230000002544776 29647040636350147   7               18022017000000000006000001000132                         0900000000000010000000000000000000000000000000000000000   0000000000000000000000000A9        170192964704     
0010001300058U 020000000000000000000000000000000000000000000000000000000000000000000000000000000000000000000000000000000000000000000000001602201700000000            000000000000000                              000                           
0010001300059T 020180230000002544776 29647040637941052   7               18022017000000000006000001000132                         0900000000000010000000000000000000000000000000000000000   0000000000000000000000000A9        170192964704     
0010001300060U 020000000000000000000000000000000000000000000000000000000000000000000000000000000000000000000000000000000000000000000000001602201700000000            000000000000000                              000                           
0010001300061T 020180230000002544776 29647040644304710   7               18022017000000000006000001028029                         0900000000000010000000000000000000000000000000000000000   0000000000000000000000000A9        170192964704     
0010001300062U 020000000000000000000000000000000000000000000000000000000000000000000000000000000000000000000000000000000000000000000000001602201700000000            000000000000000                              000                           
0010001300063T 020180230000002544776 29647040651316326   7               18022017000000000006000001016179                         0900000000000010000000000000000000000000000000000000000   0000000000000000000000000A9        170192964704     
0010001300064U 020000000000000000000000000000000000000000000000000000000000000000000000000000000000000000000000000000000000000000000000001602201700000000            000000000000000                              000                           
0010001300065T 020180230000002544776 29647040658141184   7               18022017000000000006000001000132                         0900000000000010500000000000000000000000000000000000000   0000000000000000000000000A9A4      170192964704     
0010001300066U 020000000000000000000000000000000000000000000000000000000000000000000000000000000000000000000000000000000000000000000000001602201700000000            000000000000000                              000                           
0010001300067T 020180230000002544776 29647040664442195   7               18022017000000000006000001016179                         0900000000000010000000000000000000000000000000000000000   0000000000000000000000000A9        170192964704     
0010001300068U 020000000000000000000000000000000000000000000000000000000000000000000000000000000000000000000000000000000000000000000000001602201700000000            000000000000000                              000                           
0010001300069T 020180230000002544776 29647040664732408   7               18022017000000000006000001000132                         0900000000000010000000000000000000000000000000000000000   0000000000000000000000000A9        170192964704     
0010001300070U 020000000000000000000000000000000000000000000000000000000000000000000000000000000000000000000000000000000000000000000000001602201700000000            000000000000000                              000                           
0010001300071T 020180230000002544776 29647040672822480   7               18022017000000000006000001016179                         0900000000000010000000000000000000000000000000000000000   0000000000000000000000000A9        170192964704     
0010001300072U 020000000000000000000000000000000000000000000000000000000000000000000000000000000000000000000000000000000000000000000000001602201700000000            000000000000000                              000                           
0010001300073T 020180230000002544776 29647040673557479   7               18022017000000000006000001028029                         0900000000000010000000000000000000000000000000000000000   0000000000000000000000000A9        170192964704     
0010001300074U 020000000000000000000000000000000000000000000000000000000000000000000000000000000000000000000000000000000000000000000000001602201700000000            000000000000000                              000                           
0010001300075T 020180230000002544776 29647040681847842   7               18022017000000000006000001000132                         0900000000000010000000000000000000000000000000000000000   0000000000000000000000000A9        170192964704     
0010001300076U 020000000000000000000000000000000000000000000000000000000000000000000000000000000000000000000000000000000000000000000000001602201700000000            000000000000000                              000                           
0010001300077T 020180230000002544776 29647040686657527   7               18022017000000000008000001007595                         0900000000000010000000000000000000000000000000000000000   0000000000000000000000000A9        170192964704     
0010001300078U 020000000000000000000000000000000000000000000000000000000000000000000000000000000000000000000000000000000000000000000000001602201700000000            000000000000000                              000                           
0010001300079T 020180230000002544776 29647040691514099   7               18022017000000000006000001016179                         0900000000000010000000000000000000000000000000000000000   0000000000000000000000000A9        170192964704     
0010001300080U 020000000000000000000000000000000000000000000000000000000000000000000000000000000000000000000000000000000000000000000000001602201700000000            000000000000000                              000                           
0010001300081T 020180230000002544776 29647040693623078   7               17022017000000000008000001000132                         0900000000000010000000000000000000000000000000000000000   0000000000000000000000000A9        170192964704     
0010001300082U 020000000000000000000000000000000000000000000000000000000000000000000000000000000000000000000000000000000000000000000000001502201700000000            000000000000000                              000                           
0010001300083T 020180230000002544776 29647040694316758   7               18022017000000000006000001012688                         0900000000000010000000000000000000000000000000000000000   0000000000000000000000000A9        170192964704     
0010001300084U 020000000000000000000000000000000000000000000000000000000000000000000000000000000000000000000000000000000000000000000000001602201700000000            000000000000000                              000                           
0010001300085T 020180230000002544776 29647040694319873   7               18022017000000000006000001012688                         0900000000000010000000000000000000000000000000000000000   0000000000000000000000000A9        170192964704     
0010001300086U 020000000000000000000000000000000000000000000000000000000000000000000000000000000000000000000000000000000000000000000000001602201700000000            000000000000000                              000                           
0010001300087T 020180230000002544776 29647040694328094   7               17022017000000000006000001012688                         0900000000000010000000000000000000000000000000000000000   0000000000000000000000000A9        170192964704     
0010001300088U 020000000000000000000000000000000000000000000000000000000000000000000000000000000000000000000000000000000000000000000000001502201700000000            000000000000000                              000                           
0010001300089T 020180230000002544776 29647040694343582   7               17022017000000000006000001012688                         0900000000000010000000000000000000000000000000000000000   0000000000000000000000000A9        170192964704     
0010001300090U 020000000000000000000000000000000000000000000000000000000000000000000000000000000000000000000000000000000000000000000000001502201700000000            000000000000000                              000                           
0010001300091T 020180230000002544776 29647040694349328   7               17022017000000000006000001012688                         0900000000000010000000000000000000000000000000000000000   0000000000000000000000000A9        170192964704     
0010001300092U 020000000000000000000000000000000000000000000000000000000000000000000000000000000000000000000000000000000000000000000000001502201700000000            000000000000000                              000                           
0010001300093T 020180230000002544776 29647040694401741   7               17022017000000000006000001000132                         0900000000000010000000000000000000000000000000000000000   0000000000000000000000000A9        170192964704     
0010001300094U 020000000000000000000000000000000000000000000000000000000000000000000000000000000000000000000000000000000000000000000000001502201700000000            000000000000000                              000                           
0010001300095T 020180230000002544776 29647040694434370   7               17022017000000000006000001000132                         0900000000000010000000000000000000000000000000000000000   0000000000000000000000000A9        170192964704     
0010001300096U 020000000000000000000000000000000000000000000000000000000000000000000000000000000000000000000000000000000000000000000000001502201700000000            000000000000000                              000                           
0010001300097T 020180230000002544776 29647040694933183   7               17022017000000000006000001028029                         0900000000000010000000000000000000000000000000000000000   0000000000000000000000000A9        170192964704     
0010001300098U 020000000000000000000000000000000000000000000000000000000000000000000000000000000000000000000000000000000000000000000000001502201700000000            000000000000000                              000                           
0010001300099T 020180230000002544776 29647040695009792   7               17022017000000000006000001000132                         0900000000000010000000000000000000000000000000000000000   0000000000000000000000000A9        170192964704     
0010001300100U 020000000000000000000000000000000000000000000000000000000000000000000000000000000000000000000000000000000000000000000000001502201700000000            000000000000000                              000                           
0010001300101T 020180230000002544776 29647040695022471   7               17022017000000000006000001000132                         0900000000000010000000000000000000000000000000000000000   0000000000000000000000000A9        170192964704     
0010001300102U 020000000000000000000000000000000000000000000000000000000000000000000000000000000000000000000000000000000000000000000000001502201700000000            000000000000000                              000                           
0010001300103T 020180230000002544776 29647040695304549   7               17022017000000000006000001020354                         0900000000000010000000000000000000000000000000000000000   0000000000000000000000000A9        170192964704     
0010001300104U 020000000000000000000000000000000000000000000000000000000000000000000000000000000000000000000000000000000000000000000000001502201700000000            000000000000000                              000                           
0010001300105T 020180230000002544776 29647040695644286   7               17022017000000000006000001000132                         0900000000000010000000000000000000000000000000000000000   0000000000000000000000000A9        170192964704     
0010001300106U 020000000000000000000000000000000000000000000000000000000000000000000000000000000000000000000000000000000000000000000000001502201700000000            000000000000000                              000                           
0010001300107T 020180230000002544776 29647040695751241   7               17022017000000000006000001000132                         0900000000000010000000000000000000000000000000000000000   0000000000000000000000000A9        170192964704     
0010001300108U 020000000000000000000000000000000000000000000000000000000000000000000000000000000000000000000000000000000000000000000000001502201700000000            000000000000000                              000                           
0010001300109T 020180230000002544776 29647040695854024   7               17022017000000000006000001035041                         0900000000000010000000000000000000000000000000000000000   0000000000000000000000000A9        170192964704     
0010001300110U 020000000000000000000000000000000000000000000000000000000000000000000000000000000000000000000000000000000000000000000000001502201700000000            000000000000000                              000                           
0010001300111T 020180230000002544776 29647040695907531   7               17022017000000000006000001002003                         0900000000000010000000000000000000000000000000000000000   0000000000000000000000000A9        170192964704     
0010001300112U 020000000000000000000000000000000000000000000000000000000000000000000000000000000000000000000000000000000000000000000000001502201700000000            000000000000000                              000                           
0010001300113T 020180230000002544776 29647040696253404   7               17022017000000000006000001026468                         0900000000000010000000000000000000000000000000000000000   0000000000000000000000000A9        170192964704     
0010001300114U 020000000000000000000000000000000000000000000000000000000000000000000000000000000000000000000000000000000000000000000000001502201700000000            000000000000000                              000                           
0010001300115T 020180230000002544776 29647040696438539   7               17022017000000000006000001000132                         0900000000000010500000000000000000000000000000000000000   0000000000000000000000000A9A4      170192964704     
0010001300116U 020000000000000000000000000000000000000000000000000000000000000000000000000000000000000000000000000000000000000000000000001502201700000000            000000000000000                              000                           
0010001300117T 020180230000002544776 29647040696618649   7               18022017000000000008000001030910                         0900000000000010000000000000000000000000000000000000000   0000000000000000000000000A9        170192964704     
0010001300118U 020000000000000000000000000000000000000000000000000000000000000000000000000000000000000000000000000000000000000000000000001602201700000000            000000000000000                              000                           
0010001300119T 020180230000002544776 29647040696919504   7               18022017000000000006000001027316                         0900000000000010000000000000000000000000000000000000000   0000000000000000000000000A9        170192964704     
0010001300120U 020000000000000000000000000000000000000000000000000000000000000000000000000000000000000000000000000000000000000000000000001602201700000000            000000000000000                              000                           
0010001300121T 020180230000002544776 29647040697401737   7               18022017000000000006000001020354                         0900000000000010000000000000000000000000000000000000000   0000000000000000000000000A9        170192964704     
0010001300122U 020000000000000000000000000000000000000000000000000000000000000000000000000000000000000000000000000000000000000000000000001602201700000000            000000000000000                              000                           
0010001300123T 020180230000002544776 29647040697921228   7               18022017000000000006000001016179                         0900000000000010000000000000000000000000000000000000000   0000000000000000000000000A9        170192964704     
0010001300124U 020000000000000000000000000000000000000000000000000000000000000000000000000000000000000000000000000000000000000000000000001602201700000000            000000000000000                              000                           
0010001300125T 020180230000002544776 29647040697953045   7               18022017000000000006000001016179                         0900000000000010000000000000000000000000000000000000000   0000000000000000000000000A9        170192964704     
0010001300126U 020000000000000000000000000000000000000000000000000000000000000000000000000000000000000000000000000000000000000000000000001602201700000000            000000000000000                              000                           
0010001300127T 020180230000002544776 29647040698206861   7               18022017000000000008000001012467                         0900000000000010500000000000000000000000000000000000000   0000000000000000000000000A9A4      170192964704     
0010001300128U 020000000000000000000000000000000000000000000000000000000000000000000000000000000000000000000000000000000000000000000000001602201700000000            000000000000000                              000                           
0010001300129T 020180230000002544776 29647040698409937   7               18022017000000000006000001021210                         0900000000000010000000000000000000000000000000000000000   0000000000000000000000000A9        170192964704     
0010001300130U 020000000000000000000000000000000000000000000000000000000000000000000000000000000000000000000000000000000000000000000000001602201700000000            000000000000000                              000                           
0010001300131T 020180230000002544776 29647040698717586   7               18022017000000000008000001033316                         0900000000000010000000000000000000000000000000000000000   0000000000000000000000000A9        170192964704     
0010001300132U 020000000000000000000000000000000000000000000000000000000000000000000000000000000000000000000000000000000000000000000000001602201700000000            000000000000000                              000                           
0010001300133T 020180230000002544776 29647040698821891   7               18022017000000000006000001023655                         0900000000000010000000000000000000000000000000000000000   0000000000000000000000000A9        170192964704     
0010001300134U 020000000000000000000000000000000000000000000000000000000000000000000000000000000000000000000000000000000000000000000000001602201700000000            000000000000000                              000                           
0010001300135T 020180230000002544776 29647040698918404   7               18022017000000000006000001033316                         0900000000000010000000000000000000000000000000000000000   0000000000000000000000000A9        170192964704     
0010001300136U 020000000000000000000000000000000000000000000000000000000000000000000000000000000000000000000000000000000000000000000000001602201700000000            000000000000000                              000                           
0010001300137T 020180230000002544776 29647040699255149   7               18022017000000000006000001028029                         0900000000000010000000000000000000000000000000000000000   0000000000000000000000000A9        170192964704     
0010001300138U 020000000000000000000000000000000000000000000000000000000000000000000000000000000000000000000000000000000000000000000000001602201700000000            000000000000000                              000                           
0010001300139T 020180230000002544776 29647040699402125   7               18022017000000000006000001018376                         0900000000000010000000000000000000000000000000000000000   0000000000000000000000000A9        170192964704     
0010001300140U 020000000000000000000000000000000000000000000000000000000000000000000000000000000000000000000000000000000000000000000000001602201700000000            000000000000000                              000                           
0010001300141T 020180230000002544776 29647040699709088   7               18022017000000000006000001025062                         0900000000000010000000000000000000000000000000000000000   0000000000000000000000000A9        170192964704     
0010001300142U 020000000000000000000000000000000000000000000000000000000000000000000000000000000000000000000000000000000000000000000000001602201700000000            000000000000000                              000                           
0010001300143T 020180230000002544776 29647040700533819   7               18022017000000000006000001012467                         0900000000000010500000000000000000000000000000000000000   0000000000000000000000000A9A4      170192964704     
0010001300144U 020000000000000000000000000000000000000000000000000000000000000000000000000000000000000000000000000000000000000000000000001602201700000000            000000000000000                              000                           
0010001300145T 020180230000002544776 29647040700928674   7               18022017000000000006000001023655                         0900000000000010000000000000000000000000000000000000000   0000000000000000000000000A9        170192964704     
0010001300146U 020000000000000000000000000000000000000000000000000000000000000000000000000000000000000000000000000000000000000000000000001602201700000000            000000000000000                              000                           
0010001300147T 020180230000002544776 29647040700950273   7               18022017000000000006000001023655                         0900000000000010000000000000000000000000000000000000000   0000000000000000000000000A9        170192964704     
0010001300148U 020000000000000000000000000000000000000000000000000000000000000000000000000000000000000000000000000000000000000000000000001602201700000000            000000000000000                              000                           
0010001300149T 020180230000002544776 29647040700958946   7               18022017000000000006000001023655                         0900000000000010000000000000000000000000000000000000000   0000000000000000000000000A9        170192964704     
0010001300150U 020000000000000000000000000000000000000000000000000000000000000000000000000000000000000000000000000000000000000000000000001602201700000000            000000000000000                              000                           
0010001300151T 020180230000002544776 29647040701042573   7               18022017000000000006000001012467                         0900000000000010000000000000000000000000000000000000000   0000000000000000000000000A9        170192964704     
0010001300152U 020000000000000000000000000000000000000000000000000000000000000000000000000000000000000000000000000000000000000000000000001602201700000000            000000000000000                              000                           
0010001300153T 020180230000002544776 29647040701124404   7               18022017000000000006000001023655                         0900000000000010000000000000000000000000000000000000000   0000000000000000000000000A9        170192964704     
0010001300154U 020000000000000000000000000000000000000000000000000000000000000000000000000000000000000000000000000000000000000000000000001602201700000000            000000000000000                              000                           
0010001300155T 020180230000002544776 29647040701451990   7               18022017000000000006000001016179                         0900000000000010000000000000000000000000000000000000000   0000000000000000000000000A9        170192964704     
0010001300156U 020000000000000000000000000000000000000000000000000000000000000000000000000000000000000000000000000000000000000000000000001602201700000000            000000000000000                              000                           
0010001300157T 020180230000002544776 29647040701724744   7               18022017000000000008000001016810                         0900000000000010000000000000000000000000000000000000000   0000000000000000000000000A9        170192964704     
0010001300158U 020000000000000000000000000000000000000000000000000000000000000000000000000000000000000000000000000000000000000000000000001602201700000000            000000000000000                              000                           
0010001300159T 020180230000002544776 29647040701824940   7               18022017000000000008000001000132                         0900000000000010000000000000000000000000000000000000000   0000000000000000000000000A9        170192964704     
0010001300160U 020000000000000000000000000000000000000000000000000000000000000000000000000000000000000000000000000000000000000000000000001602201700000000            000000000000000                              000                           
0010001300161T 020180230000002544776 29647040702155380   7               18022017000000000006000001000132                         0900000000000010000000000000000000000000000000000000000   0000000000000000000000000A9        170192964704     
0010001300162U 020000000000000000000000000000000000000000000000000000000000000000000000000000000000000000000000000000000000000000000000001602201700000000            000000000000000                              000                           
0010001300163T 020180230000002544776 29647040702316907   7               18022017000000000008000001000361                         0900000000000010000000000000000000000000000000000000000   0000000000000000000000000A9        170192964704     
0010001300164U 020000000000000000000000000000000000000000000000000000000000000000000000000000000000000000000000000000000000000000000000001602201700000000            000000000000000                              000                           
0010001300165T 020180230000002544776 29647040702411677   7               18022017000000000006000001012467                         0900000000000010000000000000000000000000000000000000000   0000000000000000000000000A9        170192964704     
0010001300166U 020000000000000000000000000000000000000000000000000000000000000000000000000000000000000000000000000000000000000000000000001602201700000000            000000000000000                              000                           
0010001300167T 020180230000002544776 29647040702730721   7               18022017000000000006000001012467                         0900000000000010000000000000000000000000000000000000000   0000000000000000000000000A9        170192964704     
0010001300168U 020000000000000000000000000000000000000000000000000000000000000000000000000000000000000000000000000000000000000000000000001602201700000000            000000000000000                              000                           
0010001300169T 020180230000002544776 29647040702850949   7               18022017000000000006000001035033                         0900000000000010000000000000000000000000000000000000000   0000000000000000000000000A9        170192964704     
0010001300170U 020000000000000000000000000000000000000000000000000000000000000000000000000000000000000000000000000000000000000000000000001602201700000000            000000000000000                              000                           
0010001300171T 020180230000002544776 29647040703023900   7               18022017000000000006000001001597                         0900000000000010000000000000000000000000000000000000000   0000000000000000000000000A9        170192964704     
0010001300172U 020000000000000000000000000000000000000000000000000000000000000000000000000000000000000000000000000000000000000000000000001602201700000000            000000000000000                              000                           
0010001300173T 020180230000002544776 29647040703200798   7               18022017000000000006000001030864                         0900000000000010000000000000000000000000000000000000000   0000000000000000000000000A9        170192964704     
0010001300174U 020000000000000000000000000000000000000000000000000000000000000000000000000000000000000000000000000000000000000000000000001602201700000000            000000000000000                              000                           
0010001300175T 020180230000002544776 29647040703315742   7               18022017000000000008000001030864                         0900000000000010000000000000000000000000000000000000000   0000000000000000000000000A9        170192964704     
0010001300176U 020000000000000000000000000000000000000000000000000000000000000000000000000000000000000000000000000000000000000000000000001602201700000000            000000000000000                              000                           
0010001300177T 020180230000002544776 29647040703521451   7               18022017000000000006000001004464                         0900000000000010000000000000000000000000000000000000000   0000000000000000000000000A9        170192964704     
0010001300178U 020000000000000000000000000000000000000000000000000000000000000000000000000000000000000000000000000000000000000000000000001602201700000000            000000000000000                              000                           
0010001300179T 020180230000002544776 29647040703748159   7               18022017000000000006000001016179                         0900000000000010000000000000000000000000000000000000000   0000000000000000000000000A9        170192964704     
0010001300180U 020000000000000000000000000000000000000000000000000000000000000000000000000000000000000000000000000000000000000000000000001602201700000000            000000000000000                              000                           
0010001300181T 020180230000002544776 29647040703846084   7               18022017000000000006000001018376                         0900000000000010000000000000000000000000000000000000000   0000000000000000000000000A9        170192964704     
0010001300182U 020000000000000000000000000000000000000000000000000000000000000000000000000000000000000000000000000000000000000000000000001602201700000000            000000000000000                              000                           
0010001300183T 020180230000002544776 29647040703942985   7               18022017000000000006000001028029                         0900000000000010000000000000000000000000000000000000000   0000000000000000000000000A9        170192964704     
0010001300184U 020000000000000000000000000000000000000000000000000000000000000000000000000000000000000000000000000000000000000000000000001602201700000000            000000000000000                              000                           
0010001300185T 020180230000002544776 29647040704122317   7               18022017000000000006000001016179                         0900000000000010000000000000000000000000000000000000000   0000000000000000000000000A9        170192964704     
0010001300186U 020000000000000000000000000000000000000000000000000000000000000000000000000000000000000000000000000000000000000000000000001602201700000000            000000000000000                              000                           
0010001300187T 020180230000002544776 29647040704203544   7               18022017000000000006000001023655                         0900000000000010000000000000000000000000000000000000000   0000000000000000000000000A9        170192964704     
0010001300188U 020000000000000000000000000000000000000000000000000000000000000000000000000000000000000000000000000000000000000000000000001602201700000000            000000000000000                              000                           
0010001300189T 020180230000002544776 29647040704322216   7               18022017000000000006000001012467                         0900000000000010000000000000000000000000000000000000000   0000000000000000000000000A9        170192964704     
0010001300190U 020000000000000000000000000000000000000000000000000000000000000000000000000000000000000000000000000000000000000000000000001602201700000000            000000000000000                              000                           
0010001300191T 020180230000002544776 29647040704428805   7               18022017000000000006000001000132                         0900000000000010000000000000000000000000000000000000000   0000000000000000000000000A9        170192964704     
0010001300192U 020000000000000000000000000000000000000000000000000000000000000000000000000000000000000000000000000000000000000000000000001602201700000000            000000000000000                              000                           
0010001300193T 020180230000002544776 29647040704614105   7               18022017000000000008000001008923                         0900000000000010000000000000000000000000000000000000000   0000000000000000000000000A9        170192964704     
0010001300194U 020000000000000000000000000000000000000000000000000000000000000000000000000000000000000000000000000000000000000000000000001602201700000000            000000000000000                              000                           
0010001300195T 020180230000002544776 29647040704745647   7               18022017000000000006000001033316                         0900000000000010000000000000000000000000000000000000000   0000000000000000000000000A9        170192964704     
0010001300196U 020000000000000000000000000000000000000000000000000000000000000000000000000000000000000000000000000000000000000000000000001602201700000000            000000000000000                              000                           
0010001300197T 020180230000002544776 29647040705031989   7               18022017000000000008000001002143                         0900000000000010000000000000000000000000000000000000000   0000000000000000000000000A9        170192964704     
0010001300198U 020000000000000000000000000000000000000000000000000000000000000000000000000000000000000000000000000000000000000000000000001602201700000000            000000000000000                              000                           
0010001300199T 020180230000002544776 29647040705103700   7               18022017000000000006000001012467                         0900000000000010000000000000000000000000000000000000000   0000000000000000000000000A9        170192964704     
0010001300200U 020000000000000000000000000000000000000000000000000000000000000000000000000000000000000000000000000000000000000000000000001602201700000000            000000000000000                              000                           
0010001300201T 020180230000002544776 29647040705213654   7               18022017000000000006000001016179                         0900000000000010000000000000000000000000000000000000000   0000000000000000000000000A9        170192964704     
0010001300202U 020000000000000000000000000000000000000000000000000000000000000000000000000000000000000000000000000000000000000000000000001602201700000000            000000000000000                              000                           
0010001300203T 020180230000002544776 29647040705509917   7               18022017000000000006000001028495                         0900000000000010000000000000000000000000000000000000000   0000000000000000000000000A9        170192964704     
0010001300204U 020000000000000000000000000000000000000000000000000000000000000000000000000000000000000000000000000000000000000000000000001602201700000000            000000000000000                              000                           
0010001300205T 020180230000002544776 29647040705835884   7               18022017000000000008000001028029                         0900000000000010000000000000000000000000000000000000000   0000000000000000000000000A9        170192964704     
0010001300206U 020000000000000000000000000000000000000000000000000000000000000000000000000000000000000000000000000000000000000000000000001602201700000000            000000000000000                              000                           
0010001300207T 020180230000002544776 29647040707011951   7               18022017000000000006000001008249                         0900000000000010000000000000000000000000000000000000000   0000000000000000000000000A9        170192964704     
0010001300208U 020000000000000000000000000000000000000000000000000000000000000000000000000000000000000000000000000000000000000000000000001602201700000000            000000000000000                              000                           
0010001300209T 020180230000002544776 29647040707102704   7               18022017000000000006000001016667                         0900000000000010000000000000000000000000000000000000000   0000000000000000000000000A9        170192964704     
0010001300210U 020000000000000000000000000000000000000000000000000000000000000000000000000000000000000000000000000000000000000000000000001602201700000000            000000000000000                              000                           
0010001300211T 020180230000002544776 29647040707125290   7               18022017000000000006000001016667                         0900000000000010000000000000000000000000000000000000000   0000000000000000000000000A9        170192964704     
0010001300212U 020000000000000000000000000000000000000000000000000000000000000000000000000000000000000000000000000000000000000000000000001602201700000000            000000000000000                              000                           
0010001300213T 020180230000002544776 29647040707136342   7               18022017000000000006000001016667                         0900000000000010000000000000000000000000000000000000000   0000000000000000000000000A9        170192964704     
0010001300214U 020000000000000000000000000000000000000000000000000000000000000000000000000000000000000000000000000000000000000000000000001602201700000000            000000000000000                              000                           
0010001300215T 020180230000002544776 29647040707148505   7               18022017000000000006000001016667                         0900000000000010000000000000000000000000000000000000000   0000000000000000000000000A9        170192964704     
0010001300216U 020000000000000000000000000000000000000000000000000000000000000000000000000000000000000000000000000000000000000000000000001602201700000000            000000000000000                              000                           
0010001300217T 020180230000002544776 29647040707206319   7               18022017000000000006000001035041                         0900000000000010000000000000000000000000000000000000000   0000000000000000000000000A9        170192964704     
0010001300218U 020000000000000000000000000000000000000000000000000000000000000000000000000000000000000000000000000000000000000000000000001602201700000000            000000000000000                              000                           
0010001300219T 020180230000002544776 29647040707519526   7               18022017000000000006000001028029                         0900000000000010000000000000000000000000000000000000000   0000000000000000000000000A9        170192964704     
0010001300220U 020000000000000000000000000000000000000000000000000000000000000000000000000000000000000000000000000000000000000000000000001602201700000000            000000000000000                              000                           
0010001300221T 020180230000002544776 29647040707852796   7               18022017000000000008000001000132                         0900000000000010000000000000000000000000000000000000000   0000000000000000000000000A9        170192964704     
0010001300222U 020000000000000000000000000000000000000000000000000000000000000000000000000000000000000000000000000000000000000000000000001602201700000000            000000000000000                              000                           
0010001300223T 020180230000002544776 29647040707938129   7               18022017000000000006000001009229                         0900000000000010000000000000000000000000000000000000000   0000000000000000000000000A9        170192964704     
0010001300224U 020000000000000000000000000000000000000000000000000000000000000000000000000000000000000000000000000000000000000000000000001602201700000000            000000000000000                              000                           
0010001300225T 020180230000002544776 29647040707940994   7               18022017000000000006000001009229                         0900000000000010000000000000000000000000000000000000000   0000000000000000000000000A9        170192964704     
0010001300226U 020000000000000000000000000000000000000000000000000000000000000000000000000000000000000000000000000000000000000000000000001602201700000000            000000000000000                              000                           
0010001300227T 020180230000002544776 29647040708049554   7               18022017000000000006000001009229                         0900000000000010000000000000000000000000000000000000000   0000000000000000000000000A9        170192964704     
0010001300228U 020000000000000000000000000000000000000000000000000000000000000000000000000000000000000000000000000000000000000000000000001602201700000000            000000000000000                              000                           
0010001300229T 020180230000002544776 29647040708146729   7               18022017000000000008000001016179                         0900000000000010000000000000000000000000000000000000000   0000000000000000000000000A9        170192964704     
0010001300230U 020000000000000000000000000000000000000000000000000000000000000000000000000000000000000000000000000000000000000000000000001602201700000000            000000000000000                              000                           
0010001300231T 020180230000002544776 29647040708340276   7               18022017000000000006000001006254                         0900000000000010000000000000000000000000000000000000000   0000000000000000000000000A9        170192964704     
0010001300232U 020000000000000000000000000000000000000000000000000000000000000000000000000000000000000000000000000000000000000000000000001602201700000000            000000000000000                              000                           
0010001300233T 020180230000002544776 29647040708502181   7               18022017000000000008000001016179                         0900000000000010000000000000000000000000000000000000000   0000000000000000000000000A9        170192964704     
0010001300234U 020000000000000000000000000000000000000000000000000000000000000000000000000000000000000000000000000000000000000000000000001602201700000000            000000000000000                              000                           
0010001300235T 020180230000002544776 29647040708804845   7               18022017000000000008000001028029                         0900000000000010000000000000000000000000000000000000000   0000000000000000000000000A9        170192964704     
0010001300236U 020000000000000000000000000000000000000000000000000000000000000000000000000000000000000000000000000000000000000000000000001602201700000000            000000000000000                              000                           
0010001300237T 020180230000002544776 29647040709011900   7               18022017000000000008000001016179                         0900000000000010000000000000000000000000000000000000000   0000000000000000000000000A9        170192964704     
0010001300238U 020000000000000000000000000000000000000000000000000000000000000000000000000000000000000000000000000000000000000000000000001602201700000000            000000000000000                              000                           
0010001300239T 020180230000002544776 29647040709110209   7               18022017000000000008000001016179                         0900000000000010000000000000000000000000000000000000000   0000000000000000000000000A9        170192964704     
0010001300240U 020000000000000000000000000000000000000000000000000000000000000000000000000000000000000000000000000000000000000000000000001602201700000000            000000000000000                              000                           
0010001300241T 020180230000002544776 29647040709257896   7               18022017000000000006000001016179                         0900000000000010000000000000000000000000000000000000000   0000000000000000000000000A9        170192964704     
0010001300242U 020000000000000000000000000000000000000000000000000000000000000000000000000000000000000000000000000000000000000000000000001602201700000000            000000000000000                              000                           
0010001300243T 020180230000002544776 29647040709311365   7               18022017000000000008000001000132                         0900000000000010000000000000000000000000000000000000000   0000000000000000000000000A9        170192964704     
0010001300244U 020000000000000000000000000000000000000000000000000000000000000000000000000000000000000000000000000000000000000000000000001602201700000000            000000000000000                              000                           
0010001300245T 020180230000002544776 29647040709453399   7               18022017000000000008000001028029                         0900000000000010000000000000000000000000000000000000000   0000000000000000000000000A9        170192964704     
0010001300246U 020000000000000000000000000000000000000000000000000000000000000000000000000000000000000000000000000000000000000000000000001602201700000000            000000000000000                              000                           
0010001300247T 020180230000002544776 29647040709547108   7               18022017000000000006000001009636                         0900000000000010000000000000000000000000000000000000000   0000000000000000000000000A9        170192964704     
0010001300248U 020000000000000000000000000000000000000000000000000000000000000000000000000000000000000000000000000000000000000000000000001602201700000000            000000000000000                              000                           
0010001300249T 020180230000002544776 29647040709723212   7               18022017000000000006000001004774                         0900000000000010000000000000000000000000000000000000000   0000000000000000000000000A9        170192964704     
0010001300250U 020000000000000000000000000000000000000000000000000000000000000000000000000000000000000000000000000000000000000000000000001602201700000000            000000000000000                              000                           
0010001300251T 020180230000002544776 29647040709959201   7               18022017000000000006000001028495                         0900000000000010000000000000000000000000000000000000000   0000000000000000000000000A9        170192964704     
0010001300252U 020000000000000000000000000000000000000000000000000000000000000000000000000000000000000000000000000000000000000000000000001602201700000000            000000000000000                              000                           
0010001300253T 020180230000002544776 29647040710059520   7               18022017000000000006000001022748                         0900000000000010000000000000000000000000000000000000000   0000000000000000000000000A9        170192964704     
0010001300254U 020000000000000000000000000000000000000000000000000000000000000000000000000000000000000000000000000000000000000000000000001602201700000000            000000000000000                              000                           
0010001300255T 020180230000002544776 29647040710141510   7               18022017000000000006000001004464                         0900000000000010000000000000000000000000000000000000000   0000000000000000000000000A9        170192964704     
0010001300256U 020000000000000000000000000000000000000000000000000000000000000000000000000000000000000000000000000000000000000000000000001602201700000000            000000000000000                              000                           
0010001300257T 020180230000002544776 29647040711225588   7               18022017000000000008000001000132                         0900000000000010000000000000000000000000000000000000000   0000000000000000000000000A9        170192964704     
0010001300258U 020000000000000000000000000000000000000000000000000000000000000000000000000000000000000000000000000000000000000000000000001602201700000000            000000000000000                              000                           
0010001300259T 020180230000002544776 29647040711236945   7               18022017000000000008000001000132                         0900000000000010000000000000000000000000000000000000000   0000000000000000000000000A9        170192964704     
0010001300260U 020000000000000000000000000000000000000000000000000000000000000000000000000000000000000000000000000000000000000000000000001602201700000000            000000000000000                              000                           
0010001300261T 020180230000002544776 29647040711403416   7               18022017000000000006000001008249                         0900000000000010500000000000000000000000000000000000000   0000000000000000000000000A9A4      170192964704     
0010001300262U 020000000000000000000000000000000000000000000000000000000000000000000000000000000000000000000000000000000000000000000000001602201700000000            000000000000000                              000                           
0010001300263T 020180230000002544776 29647040711418275   7               18022017000000000006000001008249                         0900000000000010500000000000000000000000000000000000000   0000000000000000000000000A9A4      170192964704     
0010001300264U 020000000000000000000000000000000000000000000000000000000000000000000000000000000000000000000000000000000000000000000000001602201700000000            000000000000000                              000                           
0010001300265T 020180230000002544776 29647040711436014   7               18022017000000000006000001008249                         0900000000000010500000000000000000000000000000000000000   0000000000000000000000000A9A4      170192964704     
0010001300266U 020000000000000000000000000000000000000000000000000000000000000000000000000000000000000000000000000000000000000000000000001602201700000000            000000000000000                              000                           
0010001300267T 020180230000002544776 29647040711541166   7               18022017000000000006000001030864                         0900000000000010000000000000000000000000000000000000000   0000000000000000000000000A9        170192964704     
0010001300268U 020000000000000000000000000000000000000000000000000000000000000000000000000000000000000000000000000000000000000000000000001602201700000000            000000000000000                              000                           
0010001300269T 020180230000002544776 29647040711608416   7               18022017000000000006000001017922                         0900000000000010000000000000000000000000000000000000000   0000000000000000000000000A9        170192964704     
0010001300270U 020000000000000000000000000000000000000000000000000000000000000000000000000000000000000000000000000000000000000000000000001602201700000000            000000000000000                              000                           
0010001300271T 020180230000002544776 29647040711735274   7               18022017000000000006000001028029                         0900000000000010500000000000000000000000000000000000000   0000000000000000000000000A9A4      170192964704     
0010001300272U 020000000000000000000000000000000000000000000000000000000000000000000000000000000000000000000000000000000000000000000000001602201700000000            000000000000000                              000                           
0010001300273T 020180230000002544776 29647040711751023   7               18022017000000000006000001028029                         0900000000000010500000000000000000000000000000000000000   0000000000000000000000000A9A4      170192964704     
0010001300274U 020000000000000000000000000000000000000000000000000000000000000000000000000000000000000000000000000000000000000000000000001602201700000000            000000000000000                              000                           
0010001300275T 020180230000002544776 29647040711756834   7               18022017000000000006000001028029                         0900000000000010500000000000000000000000000000000000000   0000000000000000000000000A9A4      170192964704     
0010001300276U 020000000000000000000000000000000000000000000000000000000000000000000000000000000000000000000000000000000000000000000000001602201700000000            000000000000000                              000                           
0010001300277T 020180230000002544776 29647040711757785   7               18022017000000000006000001028029                         0900000000000010500000000000000000000000000000000000000   0000000000000000000000000A9A4      170192964704     
0010001300278U 020000000000000000000000000000000000000000000000000000000000000000000000000000000000000000000000000000000000000000000000001602201700000000            000000000000000                              000                           
0010001300279T 020180230000002544776 29647040712053910   7               18022017000000000006000001023655                         0900000000000010500000000000000000000000000000000000000   0000000000000000000000000A9A4      170192964704     
0010001300280U 020000000000000000000000000000000000000000000000000000000000000000000000000000000000000000000000000000000000000000000000001602201700000000            000000000000000                              000                           
0010001300281T 020180230000002544776 29647040712130035   7               18022017000000000006000001008214                         0900000000000010000000000000000000000000000000000000000   0000000000000000000000000A9        170192964704     
0010001300282U 020000000000000000000000000000000000000000000000000000000000000000000000000000000000000000000000000000000000000000000000001602201700000000            000000000000000                              000                           
0010001300283T 020180230000002544776 29647040712411040   7               18022017000000000006000001000132                         0900000000000010000000000000000000000000000000000000000   0000000000000000000000000A9        170192964704     
0010001300284U 020000000000000000000000000000000000000000000000000000000000000000000000000000000000000000000000000000000000000000000000001602201700000000            000000000000000                              000                           
0010001300285T 020180230000002544776 29647040712913935   7               18022017000000000006000001016179                         0900000000000010000000000000000000000000000000000000000   0000000000000000000000000A9        170192964704     
0010001300286U 020000000000000000000000000000000000000000000000000000000000000000000000000000000000000000000000000000000000000000000000001602201700000000            000000000000000                              000                           
0010001300287T 020180230000002544776 29647040712952537   7               18022017000000000006000001016179                         0900000000000010000000000000000000000000000000000000000   0000000000000000000000000A9        170192964704     
0010001300288U 020000000000000000000000000000000000000000000000000000000000000000000000000000000000000000000000000000000000000000000000001602201700000000            000000000000000                              000                           
0010001300289T 020180230000002544776 29647040713123834   7               18022017000000000008000001012467                         0900000000000010000000000000000000000000000000000000000   0000000000000000000000000A9        170192964704     
0010001300290U 020000000000000000000000000000000000000000000000000000000000000000000000000000000000000000000000000000000000000000000000001602201700000000            000000000000000                              000                           
0010001300291T 020180230000002544776 29647040713210942   7               18022017000000000006000001000132                         0900000000000010000000000000000000000000000000000000000   0000000000000000000000000A9        170192964704     
0010001300292U 020000000000000000000000000000000000000000000000000000000000000000000000000000000000000000000000000000000000000000000000001602201700000000            000000000000000                              000                           
0010001300293T 020180230000002544776 29647040713306523   7               18022017000000000008000001000132                         0900000000000010000000000000000000000000000000000000000   0000000000000000000000000A9        170192964704     
0010001300294U 020000000000000000000000000000000000000000000000000000000000000000000000000000000000000000000000000000000000000000000000001602201700000000            000000000000000                              000                           
0010001300295T 020180230000002544776 29647040713438577   7               18022017000000000008000001028029                         0900000000000010000000000000000000000000000000000000000   0000000000000000000000000A9        170192964704     
0010001300296U 020000000000000000000000000000000000000000000000000000000000000000000000000000000000000000000000000000000000000000000000001602201700000000            000000000000000                              000                           
0010001300297T 020180230000002544776 29647040713505680   7               18022017000000000006000001005428                         0900000000000010000000000000000000000000000000000000000   0000000000000000000000000A9        170192964704     
0010001300298U 020000000000000000000000000000000000000000000000000000000000000000000000000000000000000000000000000000000000000000000000001602201700000000            000000000000000                              000                           
0010001300299T 020180230000002544776 29647040713600852   7               18022017000000000006000001028029                         0900000000000010000000000000000000000000000000000000000   0000000000000000000000000A9        170192964704     
0010001300300U 020000000000000000000000000000000000000000000000000000000000000000000000000000000000000000000000000000000000000000000000001602201700000000            000000000000000                              000                           
0010001300301T 020180230000002544776 29647040713705298   7               18022017000000000006000001016179                         0900000000000010000000000000000000000000000000000000000   0000000000000000000000000A9        170192964704     
0010001300302U 020000000000000000000000000000000000000000000000000000000000000000000000000000000000000000000000000000000000000000000000001602201700000000            000000000000000                              000                           
0010001300303T 020180230000002544776 29647040713811044   7               18022017000000000006000001032859                         0900000000000010000000000000000000000000000000000000000   0000000000000000000000000A9        170192964704     
0010001300304U 020000000000000000000000000000000000000000000000000000000000000000000000000000000000000000000000000000000000000000000000001602201700000000            000000000000000                              000                           
0010001300305T 020180230000002544776 29647040713906906   7               18022017000000000006000001012467                         0900000000000010000000000000000000000000000000000000000   0000000000000000000000000A9        170192964704     
0010001300306U 020000000000000000000000000000000000000000000000000000000000000000000000000000000000000000000000000000000000000000000000001602201700000000            000000000000000                              000                           
0010001300307T 020180230000002544776 29647040713936953   7               18022017000000000006000001012467                         0900000000000010000000000000000000000000000000000000000   0000000000000000000000000A9        170192964704     
0010001300308U 020000000000000000000000000000000000000000000000000000000000000000000000000000000000000000000000000000000000000000000000001602201700000000            000000000000000                              000                           
0010001300309T 020180230000002544776 29647040714009921   7               18022017000000000006000001028029                         0900000000000010000000000000000000000000000000000000000   0000000000000000000000000A9        170192964704     
0010001300310U 020000000000000000000000000000000000000000000000000000000000000000000000000000000000000000000000000000000000000000000000001602201700000000            000000000000000                              000                           
0010001300311T 020180230000002544776 29647040714021253   7               18022017000000000006000001028029                         0900000000000010000000000000000000000000000000000000000   0000000000000000000000000A9        170192964704     
0010001300312U 020000000000000000000000000000000000000000000000000000000000000000000000000000000000000000000000000000000000000000000000001602201700000000            000000000000000                              000                           
0010001300313T 020180230000002544776 29647040714030747   7               18022017000000000006000001028029                         0900000000000010000000000000000000000000000000000000000   0000000000000000000000000A9        170192964704     
0010001300314U 020000000000000000000000000000000000000000000000000000000000000000000000000000000000000000000000000000000000000000000000001602201700000000            000000000000000                              000                           
0010001300315T 020180230000002544776 29647040714119773   7               18022017000000000008000001023655                         0900000000000010000000000000000000000000000000000000000   0000000000000000000000000A9        170192964704     
0010001300316U 020000000000000000000000000000000000000000000000000000000000000000000000000000000000000000000000000000000000000000000000001602201700000000            000000000000000                              000                           
0010001300317T 020180230000002544776 29647040714124930   7               18022017000000000008000001023655                         0900000000000010000000000000000000000000000000000000000   0000000000000000000000000A9        170192964704     
0010001300318U 020000000000000000000000000000000000000000000000000000000000000000000000000000000000000000000000000000000000000000000000001602201700000000            000000000000000                              000                           
0010001300319T 020180230000002544776 29647040714358593   7               18022017000000000008000001028029                         0900000000000010000000000000000000000000000000000000000   0000000000000000000000000A9        170192964704     
0010001300320U 020000000000000000000000000000000000000000000000000000000000000000000000000000000000000000000000000000000000000000000000001602201700000000            000000000000000                              000                           
0010001300321T 020180230000002544776 29647040714526379   7               18022017000000000006000001012467                         0900000000000010000000000000000000000000000000000000000   0000000000000000000000000A9        170192964704     
0010001300322U 020000000000000000000000000000000000000000000000000000000000000000000000000000000000000000000000000000000000000000000000001602201700000000            000000000000000                              000                           
0010001300323T 020180230000002544776 29647040715403494   7               18022017000000000006000001023655                         0900000000000010000000000000000000000000000000000000000   0000000000000000000000000A9        170192964704     
0010001300324U 020000000000000000000000000000000000000000000000000000000000000000000000000000000000000000000000000000000000000000000000001602201700000000            000000000000000                              000                           
0010001300325T 020180230000002544776 29647040715548165   7               1802201700000000000600000101981X                         0900000000000010000000000000000000000000000000000000000   0000000000000000000000000A9        170192964704     
0010001300326U 020000000000000000000000000000000000000000000000000000000000000000000000000000000000000000000000000000000000000000000000001602201700000000            000000000000000                              000                           
0010001300327T 020180230000002544776 29647040715906338   7               18022017000000000006000001016179                         0900000000000010000000000000000000000000000000000000000   0000000000000000000000000A9        170192964704     
0010001300328U 020000000000000000000000000000000000000000000000000000000000000000000000000000000000000000000000000000000000000000000000001602201700000000            000000000000000                              000                           
0010001300329T 020180230000002544776 29647040716301519   7               1802201700000000000600000102547X                         0900000000000010000000000000000000000000000000000000000   0000000000000000000000000A9        170192964704     
0010001300330U 020000000000000000000000000000000000000000000000000000000000000000000000000000000000000000000000000000000000000000000000001602201700000000            000000000000000                              000                           
0010001300331T 020180230000002544776 29647040716358821   7               1802201700000000000600000102547X                         0900000000000010000000000000000000000000000000000000000   0000000000000000000000000A9        170192964704     
0010001300332U 020000000000000000000000000000000000000000000000000000000000000000000000000000000000000000000000000000000000000000000000001602201700000000            000000000000000                              000                           
0010001300333T 020180230000002544776 29647040716452485   7               1802201700000000000600000102645X                         0900000000000010000000000000000000000000000000000000000   0000000000000000000000000A9        170192964704     
0010001300334U 020000000000000000000000000000000000000000000000000000000000000000000000000000000000000000000000000000000000000000000000001602201700000000            000000000000000                              000                           
0010001300335T 020180230000002544776 29647040716739473   7               18022017000000000008000001033316                         0900000000000010000000000000000000000000000000000000000   0000000000000000000000000A9        170192964704     
0010001300336U 020000000000000000000000000000000000000000000000000000000000000000000000000000000000000000000000000000000000000000000000001602201700000000            000000000000000                              000                           
0010001300337T 020180230000002544776 29647040716943462   7               18022017000000000006000001028029                         0900000000000010000000000000000000000000000000000000000   0000000000000000000000000A9        170192964704     
0010001300338U 020000000000000000000000000000000000000000000000000000000000000000000000000000000000000000000000000000000000000000000000001602201700000000            000000000000000                              000                           
0010001300339T 020180230000002544776 29647040717040063   7               18022017000000000006000001000132                         0900000000000010000000000000000000000000000000000000000   0000000000000000000000000A9        170192964704     
0010001300340U 020000000000000000000000000000000000000000000000000000000000000000000000000000000000000000000000000000000000000000000000001602201700000000            000000000000000                              000                           
0010001300341T 020180230000002544776 29647040717635795   7               18022017000000000006000001000132                         0900000000000010000000000000000000000000000000000000000   0000000000000000000000000A9        170192964704     
0010001300342U 020000000000000000000000000000000000000000000000000000000000000000000000000000000000000000000000000000000000000000000000001602201700000000            000000000000000                              000                           
0010001300343T 020180230000002544776 29647040717707708   7               18022017000000000006000001018376                         0900000000000010000000000000000000000000000000000000000   0000000000000000000000000A9        170192964704     
0010001300344U 020000000000000000000000000000000000000000000000000000000000000000000000000000000000000000000000000000000000000000000000001602201700000000            000000000000000                              000                           
0010001300345T 020180230000002544776 29647040717908902   7               18022017000000000006000001025429                         0900000000000010000000000000000000000000000000000000000   0000000000000000000000000A9        170192964704     
0010001300346U 020000000000000000000000000000000000000000000000000000000000000000000000000000000000000000000000000000000000000000000000001602201700000000            000000000000000                              000                           
0010001300347T 020180230000002544776 29647040718031560   7               18022017000000000006000001016179                         0900000000000010000000000000000000000000000000000000000   0000000000000000000000000A9        170192964704     
0010001300348U 020000000000000000000000000000000000000000000000000000000000000000000000000000000000000000000000000000000000000000000000001602201700000000            000000000000000                              000                           
0010001300349T 020180230000002544776 29647040718238239   7               18022017000000000006000001016179                         0900000000000010000000000000000000000000000000000000000   0000000000000000000000000A9        170192964704     
0010001300350U 020000000000000000000000000000000000000000000000000000000000000000000000000000000000000000000000000000000000000000000000001602201700000000            000000000000000                              000                           
0010001300351T 020180230000002544776 29647040718251792   7               18022017000000000006000001016179                         0900000000000010000000000000000000000000000000000000000   0000000000000000000000000A9        170192964704     
0010001300352U 020000000000000000000000000000000000000000000000000000000000000000000000000000000000000000000000000000000000000000000000001602201700000000            000000000000000                              000                           
0010001300353T 020180230000002544776 29647040718339292   7               18022017000000000006000001012467                         0900000000000010500000000000000000000000000000000000000   0000000000000000000000000A9A4      170192964704     
0010001300354U 020000000000000000000000000000000000000000000000000000000000000000000000000000000000000000000000000000000000000000000000001602201700000000            000000000000000                              000                           
0010001300355T 020180230000002544776 29647040718406294   7               18022017000000000006000001000132                         0900000000000010000000000000000000000000000000000000000   0000000000000000000000000A9        170192964704     
0010001300356U 020000000000000000000000000000000000000000000000000000000000000000000000000000000000000000000000000000000000000000000000001602201700000000            000000000000000                              000                           
0010001300357T 020180230000002544776 29647040718447479   7               18022017000000000006000001000132                         0900000000000010000000000000000000000000000000000000000   0000000000000000000000000A9        170192964704     
0010001300358U 020000000000000000000000000000000000000000000000000000000000000000000000000000000000000000000000000000000000000000000000001602201700000000            000000000000000                              000                           
0010001300359T 020180230000002544776 29647040718511116   7               18022017000000000008000001016179                         0900000000000010000000000000000000000000000000000000000   0000000000000000000000000A9        170192964704     
0010001300360U 020000000000000000000000000000000000000000000000000000000000000000000000000000000000000000000000000000000000000000000000001602201700000000            000000000000000                              000                           
0010001300361T 020180230000002544776 29647040718526199   7               18022017000000000008000001016179                         0900000000000010000000000000000000000000000000000000000   0000000000000000000000000A9        170192964704     
0010001300362U 020000000000000000000000000000000000000000000000000000000000000000000000000000000000000000000000000000000000000000000000001602201700000000            000000000000000                              000                           
0010001300363T 020180230000002544776 29647040718540993   7               18022017000000000008000001016179                         0900000000000010000000000000000000000000000000000000000   0000000000000000000000000A9        170192964704     
0010001300364U 020000000000000000000000000000000000000000000000000000000000000000000000000000000000000000000000000000000000000000000000001602201700000000            000000000000000                              000                           
0010001300365T 020180230000002544776 29647040718625470   7               1802201700000000000600000101981X                         0900000000000010000000000000000000000000000000000000000   0000000000000000000000000A9        170192964704     
0010001300366U 020000000000000000000000000000000000000000000000000000000000000000000000000000000000000000000000000000000000000000000000001602201700000000            000000000000000                              000                           
0010001300367T 020180230000002544776 29647040718703488   7               18022017000000000006000001012688                         0900000000000010000000000000000000000000000000000000000   0000000000000000000000000A9        170192964704     
0010001300368U 020000000000000000000000000000000000000000000000000000000000000000000000000000000000000000000000000000000000000000000000001602201700000000            000000000000000                              000                           
0010001300369T 020180230000002544776 29647040718734116   7               18022017000000000006000001012688                         0900000000000010000000000000000000000000000000000000000   0000000000000000000000000A9        170192964704     
0010001300370U 020000000000000000000000000000000000000000000000000000000000000000000000000000000000000000000000000000000000000000000000001602201700000000            000000000000000                              000                           
0010001300371T 020180230000002544776 29647040719103726   7               18022017000000000006000001024600                         0900000000000010000000000000000000000000000000000000000   0000000000000000000000000A9        170192964704     
0010001300372U 020000000000000000000000000000000000000000000000000000000000000000000000000000000000000000000000000000000000000000000000001602201700000000            000000000000000                              000                           
0010001300373T 020180230000002544776 29647040719244272   7               18022017000000000006000001035033                         0900000000000010000000000000000000000000000000000000000   0000000000000000000000000A9        170192964704     
0010001300374U 020000000000000000000000000000000000000000000000000000000000000000000000000000000000000000000000000000000000000000000000001602201700000000            000000000000000                              000                           
0010001300375T 020180230000002544776 29647040719419254   7               18022017000000000006000001028029                         0900000000000010000000000000000000000000000000000000000   0000000000000000000000000A9        170192964704     
0010001300376U 020000000000000000000000000000000000000000000000000000000000000000000000000000000000000000000000000000000000000000000000001602201700000000            000000000000000                              000                           
0010001300377T 020180230000002544776 29647040719822221   7               18022017000000000006000001000132                         0900000000000010000000000000000000000000000000000000000   0000000000000000000000000A9        170192964704     
0010001300378U 020000000000000000000000000000000000000000000000000000000000000000000000000000000000000000000000000000000000000000000000001602201700000000            000000000000000                              000                           
0010001300379T 020180230000002544776 29647040720350191   7               18022017000000000006000001018376                         0900000000000010000000000000000000000000000000000000000   0000000000000000000000000A9        170192964704     
0010001300380U 020000000000000000000000000000000000000000000000000000000000000000000000000000000000000000000000000000000000000000000000001602201700000000            000000000000000                              000                           
0010001300381T 020180230000002544776 29647040720359887   7               18022017000000000006000001018376                         0900000000000010000000000000000000000000000000000000000   0000000000000000000000000A9        170192964704     
0010001300382U 020000000000000000000000000000000000000000000000000000000000000000000000000000000000000000000000000000000000000000000000001602201700000000            000000000000000                              000                           
0010001300383T 020180230000002544776 29647040720619395   7               18022017000000000006000001028029                         0900000000000010000000000000000000000000000000000000000   0000000000000000000000000A9        170192964704     
0010001300384U 020000000000000000000000000000000000000000000000000000000000000000000000000000000000000000000000000000000000000000000000001602201700000000            000000000000000                              000                           
0010001300385T 020180230000002544776 29647040720948053   7               18022017000000000006000001033316                         0900000000000010000000000000000000000000000000000000000   0000000000000000000000000A9        170192964704     
0010001300386U 020000000000000000000000000000000000000000000000000000000000000000000000000000000000000000000000000000000000000000000000001602201700000000            000000000000000                              000                           
0010001300387T 020180230000002544776 29647040721044238   7               18022017000000000006000001016179                         0900000000000010000000000000000000000000000000000000000   0000000000000000000000000A9        170192964704     
0010001300388U 020000000000000000000000000000000000000000000000000000000000000000000000000000000000000000000000000000000000000000000000001602201700000000            000000000000000                              000                           
0010001300389T 020180230000002544776 29647040721143193   7               18022017000000000006000001028029                         0900000000000010000000000000000000000000000000000000000   0000000000000000000000000A9        170192964704     
0010001300390U 020000000000000000000000000000000000000000000000000000000000000000000000000000000000000000000000000000000000000000000000001602201700000000            000000000000000                              000                           
0010001300391T 020180230000002544776 29647040721236146   7               18022017000000000006000001012467                         0900000000000010000000000000000000000000000000000000000   0000000000000000000000000A9        170192964704     
0010001300392U 020000000000000000000000000000000000000000000000000000000000000000000000000000000000000000000000000000000000000000000000001602201700000000            000000000000000                              000                           
0010001300393T 020180230000002544776 29647040721505440   7               18022017000000000006000001018376                         0900000000000010000000000000000000000000000000000000000   0000000000000000000000000A9        170192964704     
0010001300394U 020000000000000000000000000000000000000000000000000000000000000000000000000000000000000000000000000000000000000000000000001602201700000000            000000000000000                              000                           
0010001300395T 020180230000002544776 29647040721617094   7               18022017000000000006000001016179                         0900000000000010000000000000000000000000000000000000000   0000000000000000000000000A9        170192964704     
0010001300396U 020000000000000000000000000000000000000000000000000000000000000000000000000000000000000000000000000000000000000000000000001602201700000000            000000000000000                              000                           
0010001300397T 020180230000002544776 29647040722021189   7               18022017000000000008000001016179                         0900000000000010000000000000000000000000000000000000000   0000000000000000000000000A9        170192964704     
0010001300398U 020000000000000000000000000000000000000000000000000000000000000000000000000000000000000000000000000000000000000000000000001602201700000000            000000000000000                              000                           
0010001300399T 020180230000002544776 29647040722331704   7               18022017000000000006000001016179                         0900000000000010000000000000000000000000000000000000000   0000000000000000000000000A9        170192964704     
0010001300400U 020000000000000000000000000000000000000000000000000000000000000000000000000000000000000000000000000000000000000000000000001602201700000000            000000000000000                              000                           
0010001300401T 020180230000002544776 29647040722659061   7               18022017000000000006000001008214                         0900000000000010500000000000000000000000000000000000000   0000000000000000000000000A9A4      170192964704     
0010001300402U 020000000000000000000000000000000000000000000000000000000000000000000000000000000000000000000000000000000000000000000000001602201700000000            000000000000000                              000                           
0010001300403T 020180230000002544776 29647040722855139   7               18022017000000000006000001030864                         0900000000000010000000000000000000000000000000000000000   0000000000000000000000000A9        170192964704     
0010001300404U 020000000000000000000000000000000000000000000000000000000000000000000000000000000000000000000000000000000000000000000000001602201700000000            000000000000000                              000                           
0010001300405T 020180230000002544776 29647040722921977   7               18022017000000000006000001000132                         0900000000000010000000000000000000000000000000000000000   0000000000000000000000000A9        170192964704     
0010001300406U 020000000000000000000000000000000000000000000000000000000000000000000000000000000000000000000000000000000000000000000000001602201700000000            000000000000000                              000                           
0010001300407T 020180230000002544776 29647040722923928   7               18022017000000000006000001000132                         0900000000000010000000000000000000000000000000000000000   0000000000000000000000000A9        170192964704     
0010001300408U 020000000000000000000000000000000000000000000000000000000000000000000000000000000000000000000000000000000000000000000000001602201700000000            000000000000000                              000                           
0010001300409T 020180230000002544776 29647040722924644   7               18022017000000000006000001000132                         0900000000000010000000000000000000000000000000000000000   0000000000000000000000000A9        170192964704     
0010001300410U 020000000000000000000000000000000000000000000000000000000000000000000000000000000000000000000000000000000000000000000000001602201700000000            000000000000000                              000                           
0010001300411T 020180230000002544776 29647040722927025   7               18022017000000000006000001000132                         0900000000000010000000000000000000000000000000000000000   0000000000000000000000000A9        170192964704     
0010001300412U 020000000000000000000000000000000000000000000000000000000000000000000000000000000000000000000000000000000000000000000000001602201700000000            000000000000000                              000                           
