00100000         2247745860001000029647040014       0180230000002544776 INSTITUTO DE SELECAO E TECNOLOBANCO DO BRASIL                         22002201703315000003203000000515122941PROCESSAMEN                                                 
00100011T0100020 20247745860001000029647040014       0180230000002544776 INSTITUTO DE SELECAO E TECNOLO                                                                                000000002002201700000000  000000000                      
0010001300001T 020180230000002544776 29647040509353422   7               22022017000000000006000001012467                         0900000000000010000000000000000000000000000000000000000   0000000000000000000000000A9        170192964704     
0010001300002U 020000000000000000000000000000000000000000000000000000000000000000000000000000000000000000000000000000000000000000000000002002201700000000            000000000000000                              000                           
0010001300003T 020180230000002544776 29647040537814277   7               20022017000000000006000001000361                         0900000000000010000000000000000000000000000000000000000   0000000000000000000000000A9        170192964704     
0010001300004U 020000000000000000000000000000000000000000000000000000000000000000000000000000000000000000000000000000000000000000000000001802201700000000            000000000000000                              000                           
0010001300005T 020180230000002544776 29647040537857633   7               20022017000000000006000001000361                         0900000000000010000000000000000000000000000000000000000   0000000000000000000000000A9        170192964704     
0010001300006U 020000000000000000000000000000000000000000000000000000000000000000000000000000000000000000000000000000000000000000000000001802201700000000            000000000000000                              000                           
0010001300007T 020180230000002544776 29647040538555382   7               21022017000000000006000001000132                         0900000000000010000000000000000000000000000000000000000   0000000000000000000000000A9        170192964704     
0010001300008U 020000000000000000000000000000000000000000000000000000000000000000000000000000000000000000000000000000000000000000000000001902201700000000            000000000000000                              000                           
0010001300009T 020180230000002544776 29647040541958427   7               22022017000000000006000001011533                         0900000000000010000000000000000000000000000000000000000   0000000000000000000000000A9        170192964704     
0010001300010U 020000000000000000000000000000000000000000000000000000000000000000000000000000000000000000000000000000000000000000000000002002201700000000            000000000000000                              000                           
0010001300011T 020180230000002544776 29647040544644578   7               22022017000000000006000001028029                         0900000000000010000000000000000000000000000000000000000   0000000000000000000000000A9        170192964704     
0010001300012U 020000000000000000000000000000000000000000000000000000000000000000000000000000000000000000000000000000000000000000000000002002201700000000            000000000000000                              000                           
0010001300013T 020180230000002544776 29647040553015385   7               21022017000000000006000001033316                         0900000000000010500000000000000000000000000000000000000   0000000000000000000000000A9A4      170192964704     
0010001300014U 020000000000000000000000000000000000000000000000000000000000000000000000000000000000000000000000000000000000000000000000001902201700000000            000000000000000                              000                           
0010001300015T 020180230000002544776 29647040563519177   7               22022017000000000006000001016179                         0900000000000010000000000000000000000000000000000000000   0000000000000000000000000A9        170192964704     
0010001300016U 020000000000000000000000000000000000000000000000000000000000000000000000000000000000000000000000000000000000000000000000002002201700000000            000000000000000                              000                           
0010001300017T 020180230000002544776 29647040569033338   7               2002201700000000000600000101981X                         0900000000000010500000000000000000000000000000000000000   0000000000000000000000000A9A4      170192964704     
0010001300018U 020000000000000000000000000000000000000000000000000000000000000000000000000000000000000000000000000000000000000000000000001802201700000000            000000000000000                              000                           
0010001300019T 020180230000002544776 29647040570226948   7               22022017000000000006000001016179                         0900000000000010000000000000000000000000000000000000000   0000000000000000000000000A9        170192964704     
0010001300020U 020000000000000000000000000000000000000000000000000000000000000000000000000000000000000000000000000000000000000000000000002002201700000000            000000000000000                              000                           
0010001300021T 020180230000002544776 29647040573158651   7               22022017000000000006000001000132                         0900000000000010000000000000000000000000000000000000000   0000000000000000000000000A9        170192964704     
0010001300022U 020000000000000000000000000000000000000000000000000000000000000000000000000000000000000000000000000000000000000000000000002002201700000000            000000000000000                              000                           
0010001300023T 020180230000002544776 29647040576907708   7               22022017000000000008000001000132                         0900000000000010000000000000000000000000000000000000000   0000000000000000000000000A9        170192964704     
0010001300024U 020000000000000000000000000000000000000000000000000000000000000000000000000000000000000000000000000000000000000000000000002002201700000000            000000000000000                              000                           
0010001300025T 020180230000002544776 29647040579416103   7               21022017000000000008000001012467                         0900000000000010000000000000000000000000000000000000000   0000000000000000000000000A9        170192964704     
0010001300026U 020000000000000000000000000000000000000000000000000000000000000000000000000000000000000000000000000000000000000000000000001902201700000000            000000000000000                              000                           
0010001300027T 020180230000002544776 29647040587113407   7               20022017000000000008000001000132                         0900000000000010000000000000000000000000000000000000000   0000000000000000000000000A9        170192964704     
0010001300028U 020000000000000000000000000000000000000000000000000000000000000000000000000000000000000000000000000000000000000000000000001802201700000000            000000000000000                              000                           
0010001300029T 020180230000002544776 29647040588249210   7               21022017000000000006000001028029                         0900000000000010000000000000000000000000000000000000000   0000000000000000000000000A9        170192964704     
0010001300030U 020000000000000000000000000000000000000000000000000000000000000000000000000000000000000000000000000000000000000000000000001902201700000000            000000000000000                              000                           
0010001300031T 020180230000002544776 29647040592827674   7               22022017000000000006000001007595                         0900000000000010000000000000000000000000000000000000000   0000000000000000000000000A9        170192964704     
0010001300032U 020000000000000000000000000000000000000000000000000000000000000000000000000000000000000000000000000000000000000000000000002002201700000000            000000000000000                              000                           
0010001300033T 020180230000002544776 29647040592851587   7               22022017000000000006000001007595                         0900000000000010000000000000000000000000000000000000000   0000000000000000000000000A9        170192964704     
0010001300034U 020000000000000000000000000000000000000000000000000000000000000000000000000000000000000000000000000000000000000000000000002002201700000000            000000000000000                              000                           
0010001300035T 020180230000002544776 29647040592852095   7               22022017000000000006000001007595                         0900000000000010000000000000000000000000000000000000000   0000000000000000000000000A9        170192964704     
0010001300036U 020000000000000000000000000000000000000000000000000000000000000000000000000000000000000000000000000000000000000000000000002002201700000000            000000000000000                              000                           
0010001300037T 020180230000002544776 29647040595307351   7               22022017000000000006000001000132                         0900000000000010000000000000000000000000000000000000000   0000000000000000000000000A9        170192964704     
0010001300038U 020000000000000000000000000000000000000000000000000000000000000000000000000000000000000000000000000000000000000000000000002002201700000000            000000000000000                              000                           
0010001300039T 020180230000002544776 29647040605516801   7               20022017000000000006000001005428                         0900000000000010500000000000000000000000000000000000000   0000000000000000000000000A9A4      170192964704     
0010001300040U 020000000000000000000000000000000000000000000000000000000000000000000000000000000000000000000000000000000000000000000000001802201700000000            000000000000000                              000                           
0010001300041T 020180230000002544776 29647040606217892   7               20022017000000000006000001008214                         0900000000000010000000000000000000000000000000000000000   0000000000000000000000000A9        170192964704     
0010001300042U 020000000000000000000000000000000000000000000000000000000000000000000000000000000000000000000000000000000000000000000000001802201700000000            000000000000000                              000                           
0010001300043T 020180230000002544776 29647040608623611   7               20022017000000000006000001016179                         0900000000000010000000000000000000000000000000000000000   0000000000000000000000000A9        170192964704     
0010001300044U 020000000000000000000000000000000000000000000000000000000000000000000000000000000000000000000000000000000000000000000000001802201700000000            000000000000000                              000                           
0010001300045T 020180230000002544776 29647040608639325   7               20022017000000000006000001016179                         0900000000000010000000000000000000000000000000000000000   0000000000000000000000000A9        170192964704     
0010001300046U 020000000000000000000000000000000000000000000000000000000000000000000000000000000000000000000000000000000000000000000000001802201700000000            000000000000000                              000                           
0010001300047T 020180230000002544776 29647040609010040   7               21022017000000000006000001033316                         0900000000000010000000000000000000000000000000000000000   0000000000000000000000000A9        170192964704     
0010001300048U 020000000000000000000000000000000000000000000000000000000000000000000000000000000000000000000000000000000000000000000000001902201700000000            000000000000000                              000                           
0010001300049T 020180230000002544776 29647040613219597   7               22022017000000000008000001033316                         0900000000000010000000000000000000000000000000000000000   0000000000000000000000000A9        170192964704     
0010001300050U 020000000000000000000000000000000000000000000000000000000000000000000000000000000000000000000000000000000000000000000000002002201700000000            000000000000000                              000                           
0010001300051T 020180230000002544776 29647040616733783   7               22022017000000000006000001016179                         0900000000000010000000000000000000000000000000000000000   0000000000000000000000000A9        170192964704     
0010001300052U 020000000000000000000000000000000000000000000000000000000000000000000000000000000000000000000000000000000000000000000000002002201700000000            000000000000000                              000                           
0010001300053T 020180230000002544776 29647040619650354   7               22022017000000000006000001002003                         0900000000000010000000000000000000000000000000000000000   0000000000000000000000000A9        170192964704     
0010001300054U 020000000000000000000000000000000000000000000000000000000000000000000000000000000000000000000000000000000000000000000000002002201700000000            000000000000000                              000                           
0010001300055T 020180230000002544776 29647040631540909   7               21022017000000000006000001012467                         0900000000000010500000000000000000000000000000000000000   0000000000000000000000000A9A4      170192964704     
0010001300056U 020000000000000000000000000000000000000000000000000000000000000000000000000000000000000000000000000000000000000000000000001902201700000000            000000000000000                              000                           
0010001300057T 020180230000002544776 29647040635501300   7               22022017000000000008000001012467                         0900000000000010000000000000000000000000000000000000000   0000000000000000000000000A9        170192964704     
0010001300058U 020000000000000000000000000000000000000000000000000000000000000000000000000000000000000000000000000000000000000000000000002002201700000000            000000000000000                              000                           
0010001300059T 020180230000002544776 29647040640042359   7               21022017000000000008000001020354                         0900000000000010000000000000000000000000000000000000000   0000000000000000000000000A9        170192964704     
0010001300060U 020000000000000000000000000000000000000000000000000000000000000000000000000000000000000000000000000000000000000000000000001902201700000000            000000000000000                              000                           
0010001300061T 020180230000002544776 29647040640326647   7               21022017000000000008000001020354                         0900000000000010000000000000000000000000000000000000000   0000000000000000000000000A9        170192964704     
0010001300062U 020000000000000000000000000000000000000000000000000000000000000000000000000000000000000000000000000000000000000000000000001902201700000000            000000000000000                              000                           
0010001300063T 020180230000002544776 29647040641407294   7               20022017000000000006000001016179                         0900000000000010000000000000000000000000000000000000000   0000000000000000000000000A9        170192964704     
0010001300064U 020000000000000000000000000000000000000000000000000000000000000000000000000000000000000000000000000000000000000000000000001802201700000000            000000000000000                              000                           
0010001300065T 020180230000002544776 29647040641429420   7               22022017000000000006000001016179                         0900000000000010000000000000000000000000000000000000000   0000000000000000000000000A9        170192964704     
0010001300066U 020000000000000000000000000000000000000000000000000000000000000000000000000000000000000000000000000000000000000000000000002002201700000000            000000000000000                              000                           
0010001300067T 020180230000002544776 29647040641448243   7               20022017000000000006000001016179                         0900000000000010000000000000000000000000000000000000000   0000000000000000000000000A9        170192964704     
0010001300068U 020000000000000000000000000000000000000000000000000000000000000000000000000000000000000000000000000000000000000000000000001802201700000000            000000000000000                              000                           
0010001300069T 020180230000002544776 29647040642614480   7               22022017000000000006000001000132                         0900000000000010000000000000000000000000000000000000000   0000000000000000000000000A9        170192964704     
0010001300070U 020000000000000000000000000000000000000000000000000000000000000000000000000000000000000000000000000000000000000000000000002002201700000000            000000000000000                              000                           
0010001300071T 020180230000002544776 29647040659359984   7               21022017000000000006000001000132                         0900000000000010000000000000000000000000000000000000000   0000000000000000000000000A9        170192964704     
0010001300072U 020000000000000000000000000000000000000000000000000000000000000000000000000000000000000000000000000000000000000000000000001902201700000000            000000000000000                              000                           
0010001300073T 020180230000002544776 29647040659550301   7               22022017000000000006000001000132                         0900000000000010000000000000000000000000000000000000000   0000000000000000000000000A9        170192964704     
0010001300074U 020000000000000000000000000000000000000000000000000000000000000000000000000000000000000000000000000000000000000000000000002002201700000000            000000000000000                              000                           
0010001300075T 020180230000002544776 29647040665404592   7               22022017000000000006000001012467                         0900000000000010000000000000000000000000000000000000000   0000000000000000000000000A9        170192964704     
0010001300076U 020000000000000000000000000000000000000000000000000000000000000000000000000000000000000000000000000000000000000000000000002002201700000000            000000000000000                              000                           
0010001300077T 020180230000002544776 29647040666342972   7               22022017000000000006000001028029                         0900000000000010000000000000000000000000000000000000000   0000000000000000000000000A9        170192964704     
0010001300078U 020000000000000000000000000000000000000000000000000000000000000000000000000000000000000000000000000000000000000000000000002002201700000000            000000000000000                              000                           
0010001300079T 020180230000002544776 29647040667800579   7               21022017000000000006000001000132                         0900000000000010000000000000000000000000000000000000000   0000000000000000000000000A9        170192964704     
0010001300080U 020000000000000000000000000000000000000000000000000000000000000000000000000000000000000000000000000000000000000000000000001902201700000000            000000000000000                              000                           
0010001300081T 020180230000002544776 29647040669822702   7               21022017000000000008000001016179                         0900000000000010000000000000000000000000000000000000000   0000000000000000000000000A9        170192964704     
0010001300082U 020000000000000000000000000000000000000000000000000000000000000000000000000000000000000000000000000000000000000000000000001902201700000000            000000000000000                              000                           
0010001300083T 020180230000002544776 29647040673427660   7               22022017000000000008000001028029                         0900000000000010000000000000000000000000000000000000000   0000000000000000000000000A9        170192964704     
0010001300084U 020000000000000000000000000000000000000000000000000000000000000000000000000000000000000000000000000000000000000000000000002002201700000000            000000000000000                              000                           
0010001300085T 020180230000002544776 29647040676247042   7               2002201700000000000600000101981X                         0900000000000010000000000000000000000000000000000000000   0000000000000000000000000A9        170192964704     
0010001300086U 020000000000000000000000000000000000000000000000000000000000000000000000000000000000000000000000000000000000000000000000001802201700000000            000000000000000                              000                           
0010001300087T 020180230000002544776 29647040687459186   7               22022017000000000006000001016179                         0900000000000010000000000000000000000000000000000000000   0000000000000000000000000A9        170192964704     
0010001300088U 020000000000000000000000000000000000000000000000000000000000000000000000000000000000000000000000000000000000000000000000002002201700000000            000000000000000                              000                           
0010001300089T 020180230000002544776 29647040692802293   7               20022017000000000008000001000132                         0900000000000010000000000000000000000000000000000000000   0000000000000000000000000A9        170192964704     
0010001300090U 020000000000000000000000000000000000000000000000000000000000000000000000000000000000000000000000000000000000000000000000001802201700000000            000000000000000                              000                           
0010001300091T 020180230000002544776 29647040692837990   7               20022017000000000008000001000132                         0900000000000010000000000000000000000000000000000000000   0000000000000000000000000A9        170192964704     
0010001300092U 020000000000000000000000000000000000000000000000000000000000000000000000000000000000000000000000000000000000000000000000001802201700000000            000000000000000                              000                           
0010001300093T 020180230000002544776 29647040694305903   7               21022017000000000006000001012688                         0900000000000010000000000000000000000000000000000000000   0000000000000000000000000A9        170192964704     
0010001300094U 020000000000000000000000000000000000000000000000000000000000000000000000000000000000000000000000000000000000000000000000001902201700000000            000000000000000                              000                           
0010001300095T 020180230000002544776 29647040695024755   7               22022017000000000006000001000132                         0900000000000010000000000000000000000000000000000000000   0000000000000000000000000A9        170192964704     
0010001300096U 020000000000000000000000000000000000000000000000000000000000000000000000000000000000000000000000000000000000000000000000002002201700000000            000000000000000                              000                           
0010001300097T 020180230000002544776 29647040695038075   7               21022017000000000006000001000132                         0900000000000010000000000000000000000000000000000000000   0000000000000000000000000A9        170192964704     
0010001300098U 020000000000000000000000000000000000000000000000000000000000000000000000000000000000000000000000000000000000000000000000001902201700000000            000000000000000                              000                           
0010001300099T 020180230000002544776 29647040695055322   7               21022017000000000006000001000132                         0900000000000010000000000000000000000000000000000000000   0000000000000000000000000A9        170192964704     
0010001300100U 020000000000000000000000000000000000000000000000000000000000000000000000000000000000000000000000000000000000000000000000001902201700000000            000000000000000                              000                           
0010001300101T 020180230000002544776 29647040695307594   7               22022017000000000006000001020354                         0900000000000010000000000000000000000000000000000000000   0000000000000000000000000A9        170192964704     
0010001300102U 020000000000000000000000000000000000000000000000000000000000000000000000000000000000000000000000000000000000000000000000002002201700000000            000000000000000                              000                           
0010001300103T 020180230000002544776 29647040695631353   7               20022017000000000006000001000132                         0900000000000010000000000000000000000000000000000000000   0000000000000000000000000A9        170192964704     
0010001300104U 020000000000000000000000000000000000000000000000000000000000000000000000000000000000000000000000000000000000000000000000001802201700000000            000000000000000                              000                           
0010001300105T 020180230000002544776 29647040695741495   7               22022017000000000006000001000132                         0900000000000010000000000000000000000000000000000000000   0000000000000000000000000A9        170192964704     
0010001300106U 020000000000000000000000000000000000000000000000000000000000000000000000000000000000000000000000000000000000000000000000002002201700000000            000000000000000                              000                           
0010001300107T 020180230000002544776 29647040695747654   7               22022017000000000006000001000132                         0900000000000010000000000000000000000000000000000000000   0000000000000000000000000A9        170192964704     
0010001300108U 020000000000000000000000000000000000000000000000000000000000000000000000000000000000000000000000000000000000000000000000002002201700000000            000000000000000                              000                           
0010001300109T 020180230000002544776 29647040697406929   7               22022017000000000006000001020354                         0900000000000010000000000000000000000000000000000000000   0000000000000000000000000A9        170192964704     
0010001300110U 020000000000000000000000000000000000000000000000000000000000000000000000000000000000000000000000000000000000000000000000002002201700000000            000000000000000                              000                           
0010001300111T 020180230000002544776 29647040699238825   7               20022017000000000006000001028029                         0900000000000010000000000000000000000000000000000000000   0000000000000000000000000A9        170192964704     
0010001300112U 020000000000000000000000000000000000000000000000000000000000000000000000000000000000000000000000000000000000000000000000001802201700000000            000000000000000                              000                           
0010001300113T 020180230000002544776 29647040702624756   7               21022017000000000006000001033316                         0900000000000010000000000000000000000000000000000000000   0000000000000000000000000A9        170192964704     
0010001300114U 020000000000000000000000000000000000000000000000000000000000000000000000000000000000000000000000000000000000000000000000001902201700000000            000000000000000                              000                           
0010001300115T 020180230000002544776 29647040704759753   7               20022017000000000006000001033316                         0900000000000010000000000000000000000000000000000000000   0000000000000000000000000A9        170192964704     
0010001300116U 020000000000000000000000000000000000000000000000000000000000000000000000000000000000000000000000000000000000000000000000001802201700000000            000000000000000                              000                           
0010001300117T 020180230000002544776 29647040709019069   7               20022017000000000008000001016179                         0900000000000010000000000000000000000000000000000000000   0000000000000000000000000A9        170192964704     
0010001300118U 020000000000000000000000000000000000000000000000000000000000000000000000000000000000000000000000000000000000000000000000001802201700000000            000000000000000                              000                           
0010001300119T 020180230000002544776 29647040711450259   7               22022017000000000006000001008249                         0900000000000010500000000000000000000000000000000000000   0000000000000000000000000A9A4      170192964704     
0010001300120U 020000000000000000000000000000000000000000000000000000000000000000000000000000000000000000000000000000000000000000000000002002201700000000            000000000000000                              000                           
0010001300121T 020180230000002544776 29647040711715198   7               21022017000000000006000001028029                         0900000000000010500000000000000000000000000000000000000   0000000000000000000000000A9A4      170192964704     
0010001300122U 020000000000000000000000000000000000000000000000000000000000000000000000000000000000000000000000000000000000000000000000001902201700000000            000000000000000                              000                           
0010001300123T 020180230000002544776 29647040712459477   7               22022017000000000006000001000132                         0900000000000010000000000000000000000000000000000000000   0000000000000000000000000A9        170192964704     
0010001300124U 020000000000000000000000000000000000000000000000000000000000000000000000000000000000000000000000000000000000000000000000002002201700000000            000000000000000                              000                           
0010001300125T 020180230000002544776 29647040714333754   7               22022017000000000008000001028029                         0900000000000010000000000000000000000000000000000000000   0000000000000000000000000A9        170192964704     
0010001300126U 020000000000000000000000000000000000000000000000000000000000000000000000000000000000000000000000000000000000000000000000002002201700000000            000000000000000                              000                           
0010001300127T 020180230000002544776 29647040718522830   7               20022017000000000008000001016179                         0900000000000010000000000000000000000000000000000000000   0000000000000000000000000A9        170192964704     
0010001300128U 020000000000000000000000000000000000000000000000000000000000000000000000000000000000000000000000000000000000000000000000001802201700000000            000000000000000                              000                           
0010001300129T 020180230000002544776 29647040718548266   7               22022017000000000008000001016179                         0900000000000010000000000000000000000000000000000000000   0000000000000000000000000A9        170192964704     
0010001300130U 020000000000000000000000000000000000000000000000000000000000000000000000000000000000000000000000000000000000000000000000002002201700000000            000000000000000                              000                           
0010001300131T 020180230000002544776 29647040719225250   7               20022017000000000006000001035033                         0900000000000010000000000000000000000000000000000000000   0000000000000000000000000A9        170192964704     
0010001300132U 020000000000000000000000000000000000000000000000000000000000000000000000000000000000000000000000000000000000000000000000001802201700000000            000000000000000                              000                           
0010001300133T 020180230000002544776 29647040719843738   7               21022017000000000006000001000132                         0900000000000010000000000000000000000000000000000000000   0000000000000000000000000A9        170192964704     
0010001300134U 020000000000000000000000000000000000000000000000000000000000000000000000000000000000000000000000000000000000000000000000001902201700000000            000000000000000                              000                           
0010001300135T 020180230000002544776 29647040719857069   7               21022017000000000006000001000132                         0900000000000010000000000000000000000000000000000000000   0000000000000000000000000A9        170192964704     
0010001300136U 020000000000000000000000000000000000000000000000000000000000000000000000000000000000000000000000000000000000000000000000001902201700000000            000000000000000                              000                           
0010001300137T 020180230000002544776 29647040721602968   7               20022017000000000006000001016179                         0900000000000010000000000000000000000000000000000000000   0000000000000000000000000A9        170192964704     
0010001300138U 020000000000000000000000000000000000000000000000000000000000000000000000000000000000000000000000000000000000000000000000001802201700000000            000000000000000                              000                           
0010001300139T 020180230000002544776 29647040721626294   7               21022017000000000006000001016179                         0900000000000010000000000000000000000000000000000000000   0000000000000000000000000A9        170192964704     
0010001300140U 020000000000000000000000000000000000000000000000000000000000000000000000000000000000000000000000000000000000000000000000001902201700000000            000000000000000                              000                           
0010001300141T 020180230000002544776 29647040721723425   7               20022017000000000006000001000132                         0900000000000010000000000000000000000000000000000000000   0000000000000000000000000A9        170192964704     
0010001300142U 020000000000000000000000000000000000000000000000000000000000000000000000000000000000000000000000000000000000000000000000001802201700000000            000000000000000                              000                           
0010001300143T 020180230000002544776 29647040722358847   7               22022017000000000006000001016179                         0900000000000010000000000000000000000000000000000000000   0000000000000000000000000A9        170192964704     
0010001300144U 020000000000000000000000000000000000000000000000000000000000000000000000000000000000000000000000000000000000000000000000002002201700000000            000000000000000                              000                           
0010001300145T 020180230000002544776 29647040728025429   7               21022017000000000006000001012688                         0900000000000010500000000000000000000000000000000000000   0000000000000000000000000A9A4      170192964704     
0010001300146U 020000000000000000000000000000000000000000000000000000000000000000000000000000000000000000000000000000000000000000000000001902201700000000            000000000000000                              000                           
0010001300147T 020180230000002544776 29647040729640360   7               22022017000000000006000001028029                         0900000000000010500000000000000000000000000000000000000   0000000000000000000000000A9A4      170192964704     
0010001300148U 020000000000000000000000000000000000000000000000000000000000000000000000000000000000000000000000000000000000000000000000002002201700000000            000000000000000                              000                           
0010001300149T 020180230000002544776 29647040733124807   7               20022017000000000006000001012467                         0900000000000010000000000000000000000000000000000000000   0000000000000000000000000A9        170192964704     
0010001300150U 020000000000000000000000000000000000000000000000000000000000000000000000000000000000000000000000000000000000000000000000001802201700000000            000000000000000                              000                           
0010001300151T 020180230000002544776 29647040733159652   7               22022017000000000006000001012467                         0900000000000010000000000000000000000000000000000000000   0000000000000000000000000A9        170192964704     
0010001300152U 020000000000000000000000000000000000000000000000000000000000000000000000000000000000000000000000000000000000000000000000002002201700000000            000000000000000                              000                           
0010001300153T 020180230000002544776 29647040739445328   7               22022017000000000008000001020354                         0900000000000010000000000000000000000000000000000000000   0000000000000000000000000A9        170192964704     
0010001300154U 020000000000000000000000000000000000000000000000000000000000000000000000000000000000000000000000000000000000000000000000002002201700000000            000000000000000                              000                           
0010001300155T 020180230000002544776 29647040740905241   7               22022017000000000006000001010189                         0900000000000010000000000000000000000000000000000000000   0000000000000000000000000A9        170192964704     
0010001300156U 020000000000000000000000000000000000000000000000000000000000000000000000000000000000000000000000000000000000000000000000002002201700000000            000000000000000                              000                           
0010001300157T 020180230000002544776 29647040748724127   7               22022017000000000006000001000132                         0900000000000010000000000000000000000000000000000000000   0000000000000000000000000A9        170192964704     
0010001300158U 020000000000000000000000000000000000000000000000000000000000000000000000000000000000000000000000000000000000000000000000002002201700000000            000000000000000                              000                           
0010001300159T 020180230000002544776 29647040752041538   7               22022017000000000006000001023655                         0900000000000010000000000000000000000000000000000000000   0000000000000000000000000A9        170192964704     
0010001300160U 020000000000000000000000000000000000000000000000000000000000000000000000000000000000000000000000000000000000000000000000002002201700000000            000000000000000                              000                           
0010001300161T 020180230000002544776 29647040754824709   7               22022017000000000006000001012467                         0900000000000010000000000000000000000000000000000000000   0000000000000000000000000A9        170192964704     
0010001300162U 020000000000000000000000000000000000000000000000000000000000000000000000000000000000000000000000000000000000000000000000002002201700000000            000000000000000                              000                           
0010001300163T 020180230000002544776 29647040755232620   7               20022017000000000006000001028029                         0900000000000010000000000000000000000000000000000000000   0000000000000000000000000A9        170192964704     
0010001300164U 020000000000000000000000000000000000000000000000000000000000000000000000000000000000000000000000000000000000000000000000001802201700000000            000000000000000                              000                           
0010001300165T 020180230000002544776 29647040755714879   7               21022017000000000006000001023655                         0900000000000010000000000000000000000000000000000000000   0000000000000000000000000A9        170192964704     
0010001300166U 020000000000000000000000000000000000000000000000000000000000000000000000000000000000000000000000000000000000000000000000001902201700000000            000000000000000                              000                           
0010001300167T 020180230000002544776 29647040755742547   7               22022017000000000006000001023655                         0900000000000010000000000000000000000000000000000000000   0000000000000000000000000A9        170192964704     
0010001300168U 020000000000000000000000000000000000000000000000000000000000000000000000000000000000000000000000000000000000000000000000002002201700000000            000000000000000                              000                           
0010001300169T 020180230000002544776 29647040755753263   7               21022017000000000006000001023655                         0900000000000010000000000000000000000000000000000000000   0000000000000000000000000A9        170192964704     
0010001300170U 020000000000000000000000000000000000000000000000000000000000000000000000000000000000000000000000000000000000000000000000001902201700000000            000000000000000                              000                           
0010001300171T 020180230000002544776 29647040758612423   7               22022017000000000006000001028029                         0900000000000010000000000000000000000000000000000000000   0000000000000000000000000A9        170192964704     
0010001300172U 020000000000000000000000000000000000000000000000000000000000000000000000000000000000000000000000000000000000000000000000002002201700000000            000000000000000                              000                           
0010001300173T 020180230000002544776 29647040758633735   7               22022017000000000006000001028029                         0900000000000010000000000000000000000000000000000000000   0000000000000000000000000A9        170192964704     
0010001300174U 020000000000000000000000000000000000000000000000000000000000000000000000000000000000000000000000000000000000000000000000002002201700000000            000000000000000                              000                           
0010001300175T 020180230000002544776 29647040761809161   7               21022017000000000006000001000132                         0900000000000010000000000000000000000000000000000000000   0000000000000000000000000A9        170192964704     
0010001300176U 020000000000000000000000000000000000000000000000000000000000000000000000000000000000000000000000000000000000000000000000001902201700000000            000000000000000                              000                           
0010001300177T 020180230000002544776 29647040764950326   7               19022017000000000006000001028029                         0900000000000010000000000000000000000000000000000000000   0000000000000000000000000A9        170192964704     
0010001300178U 020000000000000000000000000000000000000000000000000000000000000000000000000000000000000000000000000000000000000000000000001702201700000000            000000000000000                              000                           
0010001300179T 020180230000002544776 29647040765543166   7               21022017000000000006000001016179                         0900000000000010000000000000000000000000000000000000000   0000000000000000000000000A9        170192964704     
0010001300180U 020000000000000000000000000000000000000000000000000000000000000000000000000000000000000000000000000000000000000000000000001902201700000000            000000000000000                              000                           
0010001300181T 020180230000002544776 29647040765545272   7               19022017000000000006000001016179                         0900000000000010000000000000000000000000000000000000000   0000000000000000000000000A9        170192964704     
0010001300182U 020000000000000000000000000000000000000000000000000000000000000000000000000000000000000000000000000000000000000000000000001702201700000000            000000000000000                              000                           
0010001300183T 020180230000002544776 29647040765625800   7               19022017000000000008000001000132                         0900000000000010000000000000000000000000000000000000000   0000000000000000000000000A9        170192964704     
0010001300184U 020000000000000000000000000000000000000000000000000000000000000000000000000000000000000000000000000000000000000000000000001702201700000000            000000000000000                              000                           
0010001300185T 020180230000002544776 29647040765936440   7               19022017000000000006000001000132                         0900000000000010000000000000000000000000000000000000000   0000000000000000000000000A9        170192964704     
0010001300186U 020000000000000000000000000000000000000000000000000000000000000000000000000000000000000000000000000000000000000000000000001702201700000000            000000000000000                              000                           
0010001300187T 020180230000002544776 29647040766045895   7               19022017000000000006000001000132                         0900000000000010000000000000000000000000000000000000000   0000000000000000000000000A9        170192964704     
0010001300188U 020000000000000000000000000000000000000000000000000000000000000000000000000000000000000000000000000000000000000000000000001702201700000000            000000000000000                              000                           
0010001300189T 020180230000002544776 29647040766129018   7               1902201700000000000600000100233X                         0900000000000010000000000000000000000000000000000000000   0000000000000000000000000A9        170192964704     
0010001300190U 020000000000000000000000000000000000000000000000000000000000000000000000000000000000000000000000000000000000000000000000001702201700000000            000000000000000                              000                           
0010001300191T 020180230000002544776 29647040766359043   7               19022017000000000008000001000493                         0900000000000010000000000000000000000000000000000000000   0000000000000000000000000A9        170192964704     
0010001300192U 020000000000000000000000000000000000000000000000000000000000000000000000000000000000000000000000000000000000000000000000001702201700000000            000000000000000                              000                           
0010001300193T 020180230000002544776 29647040766627332   7               19022017000000000006000001020354                         0900000000000010000000000000000000000000000000000000000   0000000000000000000000000A9        170192964704     
0010001300194U 020000000000000000000000000000000000000000000000000000000000000000000000000000000000000000000000000000000000000000000000001702201700000000            000000000000000                              000                           
0010001300195T 020180230000002544776 29647040767611939   7               22022017000000000006000001000132                         0900000000000010000000000000000000000000000000000000000   0000000000000000000000000A9        170192964704     
0010001300196U 020000000000000000000000000000000000000000000000000000000000000000000000000000000000000000000000000000000000000000000000002002201700000000            000000000000000                              000                           
0010001300197T 020180230000002544776 29647040767649980   7               20022017000000000006000001000132                         0900000000000010000000000000000000000000000000000000000   0000000000000000000000000A9        170192964704     
0010001300198U 020000000000000000000000000000000000000000000000000000000000000000000000000000000000000000000000000000000000000000000000001802201700000000            000000000000000                              000                           
0010001300199T 020180230000002544776 29647040767820062   7               20022017000000000006000001004464                         0900000000000010000000000000000000000000000000000000000   0000000000000000000000000A9        170192964704     
0010001300200U 020000000000000000000000000000000000000000000000000000000000000000000000000000000000000000000000000000000000000000000000001802201700000000            000000000000000                              000                           
0010001300201T 020180230000002544776 29647040767944965   7               20022017000000000008000001008214                         0900000000000010000000000000000000000000000000000000000   0000000000000000000000000A9        170192964704     
0010001300202U 020000000000000000000000000000000000000000000000000000000000000000000000000000000000000000000000000000000000000000000000001802201700000000            000000000000000                              000                           
0010001300203T 020180230000002544776 29647040768813188   7               20022017000000000006000001028029                         0900000000000010500000000000000000000000000000000000000   0000000000000000000000000A9A4      170192964704     
0010001300204U 020000000000000000000000000000000000000000000000000000000000000000000000000000000000000000000000000000000000000000000000001802201700000000            000000000000000                              000                           
0010001300205T 020180230000002544776 29647040769145288   7               20022017000000000006000001018376                         0900000000000010000000000000000000000000000000000000000   0000000000000000000000000A9        170192964704     
0010001300206U 020000000000000000000000000000000000000000000000000000000000000000000000000000000000000000000000000000000000000000000000001802201700000000            000000000000000                              000                           
0010001300207T 020180230000002544776 29647040769317285   7               22022017000000000006000001013595                         0900000000000010000000000000000000000000000000000000000   0000000000000000000000000A9        170192964704     
0010001300208U 020000000000000000000000000000000000000000000000000000000000000000000000000000000000000000000000000000000000000000000000002002201700000000            000000000000000                              000                           
0010001300209T 020180230000002544776 29647040769349868   7               20022017000000000006000001013595                         0900000000000010000000000000000000000000000000000000000   0000000000000000000000000A9        170192964704     
0010001300210U 020000000000000000000000000000000000000000000000000000000000000000000000000000000000000000000000000000000000000000000000001802201700000000            000000000000000                              000                           
0010001300211T 020180230000002544776 29647040769435795   7               20022017000000000008000001028029                         0900000000000010000000000000000000000000000000000000000   0000000000000000000000000A9        170192964704     
0010001300212U 020000000000000000000000000000000000000000000000000000000000000000000000000000000000000000000000000000000000000000000000001802201700000000            000000000000000                              000                           
0010001300213T 020180230000002544776 29647040769541312   7               21022017000000000006000001016179                         0900000000000010000000000000000000000000000000000000000   0000000000000000000000000A9        170192964704     
0010001300214U 020000000000000000000000000000000000000000000000000000000000000000000000000000000000000000000000000000000000000000000000001902201700000000            000000000000000                              000                           
0010001300215T 020180230000002544776 29647040769649885   7               20022017000000000006000001009636                         0900000000000010000000000000000000000000000000000000000   0000000000000000000000000A9        170192964704     
0010001300216U 020000000000000000000000000000000000000000000000000000000000000000000000000000000000000000000000000000000000000000000000001802201700000000            000000000000000                              000                           
0010001300217T 020180230000002544776 29647040769658040   7               20022017000000000006000001009636                         0900000000000010000000000000000000000000000000000000000   0000000000000000000000000A9        170192964704     
0010001300218U 020000000000000000000000000000000000000000000000000000000000000000000000000000000000000000000000000000000000000000000000001802201700000000            000000000000000                              000                           
0010001300219T 020180230000002544776 29647040769730803   7               20022017000000000006000001012467                         0900000000000010000000000000000000000000000000000000000   0000000000000000000000000A9        170192964704     
0010001300220U 020000000000000000000000000000000000000000000000000000000000000000000000000000000000000000000000000000000000000000000000001802201700000000            000000000000000                              000                           
0010001300221T 020180230000002544776 29647040770145673   7               20022017000000000006000001016179                         0900000000000010000000000000000000000000000000000000000   0000000000000000000000000A9        170192964704     
0010001300222U 020000000000000000000000000000000000000000000000000000000000000000000000000000000000000000000000000000000000000000000000001802201700000000            000000000000000                              000                           
0010001300223T 020180230000002544776 29647040770331438   7               20022017000000000008000001033316                         0900000000000010000000000000000000000000000000000000000   0000000000000000000000000A9        170192964704     
0010001300224U 020000000000000000000000000000000000000000000000000000000000000000000000000000000000000000000000000000000000000000000000001802201700000000            000000000000000                              000                           
0010001300225T 020180230000002544776 29647040770444062   7               20022017000000000006000001016179                         0900000000000010000000000000000000000000000000000000000   0000000000000000000000000A9        170192964704     
0010001300226U 020000000000000000000000000000000000000000000000000000000000000000000000000000000000000000000000000000000000000000000000001802201700000000            000000000000000                              000                           
0010001300227T 020180230000002544776 29647040770610682   7               21022017000000000006000001012467                         0900000000000010000000000000000000000000000000000000000   0000000000000000000000000A9        170192964704     
0010001300228U 020000000000000000000000000000000000000000000000000000000000000000000000000000000000000000000000000000000000000000000000001902201700000000            000000000000000                              000                           
0010001300229T 020180230000002544776 29647040770758409   7               20022017000000000006000001000493                         0900000000000010000000000000000000000000000000000000000   0000000000000000000000000A9        170192964704     
0010001300230U 020000000000000000000000000000000000000000000000000000000000000000000000000000000000000000000000000000000000000000000000001802201700000000            000000000000000                              000                           
0010001300231T 020180230000002544776 29647040770804810   7               20022017000000000008000001028029                         0900000000000010000000000000000000000000000000000000000   0000000000000000000000000A9        170192964704     
0010001300232U 020000000000000000000000000000000000000000000000000000000000000000000000000000000000000000000000000000000000000000000000001802201700000000            000000000000000                              000                           
0010001300233T 020180230000002544776 29647040770917027   7               20022017000000000006000001035033                         0900000000000010000000000000000000000000000000000000000   0000000000000000000000000A9        170192964704     
0010001300234U 020000000000000000000000000000000000000000000000000000000000000000000000000000000000000000000000000000000000000000000000001802201700000000            000000000000000                              000                           
0010001300235T 020180230000002544776 29647040770954673   7               20022017000000000006000001035033                         0900000000000010000000000000000000000000000000000000000   0000000000000000000000000A9        170192964704     
0010001300236U 020000000000000000000000000000000000000000000000000000000000000000000000000000000000000000000000000000000000000000000000001802201700000000            000000000000000                              000                           
0010001300237T 020180230000002544776 29647040771034605   7               20022017000000000006000001035033                         0900000000000010000000000000000000000000000000000000000   0000000000000000000000000A9        170192964704     
0010001300238U 020000000000000000000000000000000000000000000000000000000000000000000000000000000000000000000000000000000000000000000000001802201700000000            000000000000000                              000                           
0010001300239T 020180230000002544776 29647040771049683   7               20022017000000000006000001035033                         0900000000000010000000000000000000000000000000000000000   0000000000000000000000000A9        170192964704     
0010001300240U 020000000000000000000000000000000000000000000000000000000000000000000000000000000000000000000000000000000000000000000000001802201700000000            000000000000000                              000                           
0010001300241T 020180230000002544776 29647040771116147   7               22022017000000000006000001023655                         0900000000000010000000000000000000000000000000000000000   0000000000000000000000000A9        170192964704     
0010001300242U 020000000000000000000000000000000000000000000000000000000000000000000000000000000000000000000000000000000000000000000000002002201700000000            000000000000000                              000                           
0010001300243T 020180230000002544776 29647040771159311   7               20022017000000000006000001023655                         0900000000000010000000000000000000000000000000000000000   0000000000000000000000000A9        170192964704     
0010001300244U 020000000000000000000000000000000000000000000000000000000000000000000000000000000000000000000000000000000000000000000000001802201700000000            000000000000000                              000                           
0010001300245T 020180230000002544776 29647040771222846   7               20022017000000000006000001023655                         0900000000000010000000000000000000000000000000000000000   0000000000000000000000000A9        170192964704     
0010001300246U 020000000000000000000000000000000000000000000000000000000000000000000000000000000000000000000000000000000000000000000000001802201700000000            000000000000000                              000                           
0010001300247T 020180230000002544776 29647040771230924   7               20022017000000000006000001023655                         0900000000000010000000000000000000000000000000000000000   0000000000000000000000000A9        170192964704     
0010001300248U 020000000000000000000000000000000000000000000000000000000000000000000000000000000000000000000000000000000000000000000000001802201700000000            000000000000000                              000                           
0010001300249T 020180230000002544776 29647040771241214   7               20022017000000000006000001023655                         0900000000000010000000000000000000000000000000000000000   0000000000000000000000000A9        170192964704     
0010001300250U 020000000000000000000000000000000000000000000000000000000000000000000000000000000000000000000000000000000000000000000000001802201700000000            000000000000000                              000                           
0010001300251T 020180230000002544776 29647040771426890   7               20022017000000000006000001028029                         0900000000000010000000000000000000000000000000000000000   0000000000000000000000000A9        170192964704     
0010001300252U 020000000000000000000000000000000000000000000000000000000000000000000000000000000000000000000000000000000000000000000000001802201700000000            000000000000000                              000                           
0010001300253T 020180230000002544776 29647040771524434   7               20022017000000000006000001008214                         0900000000000010000000000000000000000000000000000000000   0000000000000000000000000A9        170192964704     
0010001300254U 020000000000000000000000000000000000000000000000000000000000000000000000000000000000000000000000000000000000000000000000001802201700000000            000000000000000                              000                           
0010001300255T 020180230000002544776 29647040771626101   7               20022017000000000006000001007145                         0900000000000010000000000000000000000000000000000000000   0000000000000000000000000A9        170192964704     
0010001300256U 020000000000000000000000000000000000000000000000000000000000000000000000000000000000000000000000000000000000000000000000001802201700000000            000000000000000                              000                           
0010001300257T 020180230000002544776 29647040771745413   7               20022017000000000006000001020354                         0900000000000010000000000000000000000000000000000000000   0000000000000000000000000A9        170192964704     
0010001300258U 020000000000000000000000000000000000000000000000000000000000000000000000000000000000000000000000000000000000000000000000001802201700000000            000000000000000                              000                           
0010001300259T 020180230000002544776 29647040771900271   7               20022017000000000006000001012467                         0900000000000010000000000000000000000000000000000000000   0000000000000000000000000A9        170192964704     
0010001300260U 020000000000000000000000000000000000000000000000000000000000000000000000000000000000000000000000000000000000000000000000001802201700000000            000000000000000                              000                           
0010001300261T 020180230000002544776 29647040772126229   7               20022017000000000008000001011061                         0900000000000010000000000000000000000000000000000000000   0000000000000000000000000A9        170192964704     
0010001300262U 020000000000000000000000000000000000000000000000000000000000000000000000000000000000000000000000000000000000000000000000001802201700000000            000000000000000                              000                           
0010001300263T 020180230000002544776 29647040772328161   7               20022017000000000006000001028029                         0900000000000010000000000000000000000000000000000000000   0000000000000000000000000A9        170192964704     
0010001300264U 020000000000000000000000000000000000000000000000000000000000000000000000000000000000000000000000000000000000000000000000001802201700000000            000000000000000                              000                           
0010001300265T 020180230000002544776 29647040772416151   7               20022017000000000008000001006254                         0900000000000010000000000000000000000000000000000000000   0000000000000000000000000A9        170192964704     
0010001300266U 020000000000000000000000000000000000000000000000000000000000000000000000000000000000000000000000000000000000000000000000001802201700000000            000000000000000                              000                           
0010001300267T 020180230000002544776 29647040772535432   7               20022017000000000006000001012688                         0900000000000010000000000000000000000000000000000000000   0000000000000000000000000A9        170192964704     
0010001300268U 020000000000000000000000000000000000000000000000000000000000000000000000000000000000000000000000000000000000000000000000001802201700000000            000000000000000                              000                           
0010001300269T 020180230000002544776 29647040772639617   7               21022017000000000006000001000361                         0900000000000010000000000000000000000000000000000000000   0000000000000000000000000A9        170192964704     
0010001300270U 020000000000000000000000000000000000000000000000000000000000000000000000000000000000000000000000000000000000000000000000001902201700000000            000000000000000                              000                           
0010001300271T 020180230000002544776 29647040772942999   7               20022017000000000006000001023655                         0900000000000010000000000000000000000000000000000000000   0000000000000000000000000A9        170192964704     
0010001300272U 020000000000000000000000000000000000000000000000000000000000000000000000000000000000000000000000000000000000000000000000001802201700000000            000000000000000                              000                           
0010001300273T 020180230000002544776 29647040773143410   7               20022017000000000006000001012831                         0900000000000010000000000000000000000000000000000000000   0000000000000000000000000A9        170192964704     
0010001300274U 020000000000000000000000000000000000000000000000000000000000000000000000000000000000000000000000000000000000000000000000001802201700000000            000000000000000                              000                           
0010001300275T 020180230000002544776 29647040773335467   7               20022017000000000006000001016179                         0900000000000010000000000000000000000000000000000000000   0000000000000000000000000A9        170192964704     
0010001300276U 020000000000000000000000000000000000000000000000000000000000000000000000000000000000000000000000000000000000000000000000001802201700000000            000000000000000                              000                           
0010001300277T 020180230000002544776 29647040773359172   7               20022017000000000006000001016179                         0900000000000010000000000000000000000000000000000000000   0000000000000000000000000A9        170192964704     
0010001300278U 020000000000000000000000000000000000000000000000000000000000000000000000000000000000000000000000000000000000000000000000001802201700000000            000000000000000                              000                           
0010001300279T 020180230000002544776 29647040773409698   7               20022017000000000008000001016179                         0900000000000010000000000000000000000000000000000000000   0000000000000000000000000A9        170192964704     
0010001300280U 020000000000000000000000000000000000000000000000000000000000000000000000000000000000000000000000000000000000000000000000001802201700000000            000000000000000                              000                           
0010001300281T 020180230000002544776 29647040773524868   7               20022017000000000008000001000132                         0900000000000010000000000000000000000000000000000000000   0000000000000000000000000A9        170192964704     
0010001300282U 020000000000000000000000000000000000000000000000000000000000000000000000000000000000000000000000000000000000000000000000001802201700000000            000000000000000                              000                           
0010001300283T 020180230000002544776 29647040774053536   7               20022017000000000006000001000132                         0900000000000010000000000000000000000000000000000000000   0000000000000000000000000A9        170192964704     
0010001300284U 020000000000000000000000000000000000000000000000000000000000000000000000000000000000000000000000000000000000000000000000001802201700000000            000000000000000                              000                           
0010001300285T 020180230000002544776 29647040774240847   7               20022017000000000006000001008214                         0900000000000010000000000000000000000000000000000000000   0000000000000000000000000A9        170192964704     
0010001300286U 020000000000000000000000000000000000000000000000000000000000000000000000000000000000000000000000000000000000000000000000001802201700000000            000000000000000                              000                           
0010001300287T 020180230000002544776 29647040774525311   7               20022017000000000006000001016179                         0900000000000010500000000000000000000000000000000000000   0000000000000000000000000A9A4      170192964704     
0010001300288U 020000000000000000000000000000000000000000000000000000000000000000000000000000000000000000000000000000000000000000000000001802201700000000            000000000000000                              000                           
0010001300289T 020180230000002544776 29647040774712523   7               20022017000000000006000001012467                         0900000000000010000000000000000000000000000000000000000   0000000000000000000000000A9        170192964704     
0010001300290U 020000000000000000000000000000000000000000000000000000000000000000000000000000000000000000000000000000000000000000000000001802201700000000            000000000000000                              000                           
0010001300291T 020180230000002544776 29647040775032768   7               20022017000000000006000001033316                         0900000000000010000000000000000000000000000000000000000   0000000000000000000000000A9        170192964704     
0010001300292U 020000000000000000000000000000000000000000000000000000000000000000000000000000000000000000000000000000000000000000000000001802201700000000            000000000000000                              000                           
0010001300293T 020180230000002544776 29647040775134445   7               20022017000000000008000001028029                         0900000000000010500000000000000000000000000000000000000   0000000000000000000000000A9A4      170192964704     
0010001300294U 020000000000000000000000000000000000000000000000000000000000000000000000000000000000000000000000000000000000000000000000001802201700000000            000000000000000                              000                           
0010001300295T 020180230000002544776 29647040775417783   7               20022017000000000006000001000612                         0900000000000010500000000000000000000000000000000000000   0000000000000000000000000A9A4      170192964704     
0010001300296U 020000000000000000000000000000000000000000000000000000000000000000000000000000000000000000000000000000000000000000000000001802201700000000            000000000000000                              000                           
0010001300297T 020180230000002544776 29647040775648416   7               20022017000000000008000001000132                         0900000000000010000000000000000000000000000000000000000   0000000000000000000000000A9        170192964704     
0010001300298U 020000000000000000000000000000000000000000000000000000000000000000000000000000000000000000000000000000000000000000000000001802201700000000            000000000000000                              000                           
0010001300299T 020180230000002544776 29647040775803935   7               22022017000000000006000001010588                         0900000000000010000000000000000000000000000000000000000   0000000000000000000000000A9        170192964704     
0010001300300U 020000000000000000000000000000000000000000000000000000000000000000000000000000000000000000000000000000000000000000000000002002201700000000            000000000000000                              000                           
0010001300301T 020180230000002544776 29647040775810287   7               20022017000000000006000001010588                         0900000000000010000000000000000000000000000000000000000   0000000000000000000000000A9        170192964704     
0010001300302U 020000000000000000000000000000000000000000000000000000000000000000000000000000000000000000000000000000000000000000000000001802201700000000            000000000000000                              000                           
0010001300303T 020180230000002544776 29647040775925232   7               20022017000000000006000001028029                         0900000000000010000000000000000000000000000000000000000   0000000000000000000000000A9        170192964704     
0010001300304U 020000000000000000000000000000000000000000000000000000000000000000000000000000000000000000000000000000000000000000000000001802201700000000            000000000000000                              000                           
0010001300305T 020180230000002544776 29647040776215214   7               20022017000000000006000001012467                         0900000000000010000000000000000000000000000000000000000   0000000000000000000000000A9        170192964704     
0010001300306U 020000000000000000000000000000000000000000000000000000000000000000000000000000000000000000000000000000000000000000000000001802201700000000            000000000000000                              000                           
0010001300307T 020180230000002544776 29647040776357169   7               20022017000000000006000001033316                         0900000000000010000000000000000000000000000000000000000   0000000000000000000000000A9        170192964704     
0010001300308U 020000000000000000000000000000000000000000000000000000000000000000000000000000000000000000000000000000000000000000000000001802201700000000            000000000000000                              000                           
0010001300309T 020180230000002544776 29647040777227489   7               20022017000000000006000001023655                         0900000000000010000000000000000000000000000000000000000   0000000000000000000000000A9        170192964704     
0010001300310U 020000000000000000000000000000000000000000000000000000000000000000000000000000000000000000000000000000000000000000000000001802201700000000            000000000000000                              000                           
0010001300311T 020180230000002544776 29647040777652262   7               2002201700000000000600000100121X                         0900000000000010000000000000000000000000000000000000000   0000000000000000000000000A9        170192964704     
0010001300312U 020000000000000000000000000000000000000000000000000000000000000000000000000000000000000000000000000000000000000000000000001802201700000000            000000000000000                              000                           
0010001300313T 020180230000002544776 29647040777823299   7               20022017000000000006000001000132                         0900000000000010000000000000000000000000000000000000000   0000000000000000000000000A9        170192964704     
0010001300314U 020000000000000000000000000000000000000000000000000000000000000000000000000000000000000000000000000000000000000000000000001802201700000000            000000000000000                              000                           
0010001300315T 020180230000002544776 29647040777957281   7               20022017000000000008000001028029                         0900000000000010000000000000000000000000000000000000000   0000000000000000000000000A9        170192964704     
0010001300316U 020000000000000000000000000000000000000000000000000000000000000000000000000000000000000000000000000000000000000000000000001802201700000000            000000000000000                              000                           
0010001300317T 020180230000002544776 29647040778036229   7               20022017000000000006000001028029                         0900000000000010000000000000000000000000000000000000000   0000000000000000000000000A9        170192964704     
0010001300318U 020000000000000000000000000000000000000000000000000000000000000000000000000000000000000000000000000000000000000000000000001802201700000000            000000000000000                              000                           
0010001300319T 020180230000002544776 29647040778048458   7               20022017000000000006000001028029                         0900000000000010000000000000000000000000000000000000000   0000000000000000000000000A9        170192964704     
0010001300320U 020000000000000000000000000000000000000000000000000000000000000000000000000000000000000000000000000000000000000000000000001802201700000000            000000000000000                              000                           
0010001300321T 020180230000002544776 29647040778512515   7               22022017000000000006000001021385                         0900000000000010000000000000000000000000000000000000000   0000000000000000000000000A9        170192964704     
0010001300322U 020000000000000000000000000000000000000000000000000000000000000000000000000000000000000000000000000000000000000000000000002002201700000000            000000000000000                              000                           
0010001300323T 020180230000002544776 29647040778552000   7               20022017000000000006000001021385                         0900000000000010000000000000000000000000000000000000000   0000000000000000000000000A9        170192964704     
0010001300324U 020000000000000000000000000000000000000000000000000000000000000000000000000000000000000000000000000000000000000000000000001802201700000000            000000000000000                              000                           
0010001300325T 020180230000002544776 29647040778605682   7               20022017000000000006000001000132                         0900000000000010000000000000000000000000000000000000000   0000000000000000000000000A9        170192964704     
0010001300326U 020000000000000000000000000000000000000000000000000000000000000000000000000000000000000000000000000000000000000000000000001802201700000000            000000000000000                              000                           
0010001300327T 020180230000002544776 29647040778857893   7               20022017000000000008000001028029                         0900000000000010000000000000000000000000000000000000000   0000000000000000000000000A9        170192964704     
0010001300328U 020000000000000000000000000000000000000000000000000000000000000000000000000000000000000000000000000000000000000000000000001802201700000000            000000000000000                              000                           
0010001300329T 020180230000002544776 29647040778924942   7               20022017000000000006000001008214                         0900000000000010000000000000000000000000000000000000000   0000000000000000000000000A9        170192964704     
0010001300330U 020000000000000000000000000000000000000000000000000000000000000000000000000000000000000000000000000000000000000000000000001802201700000000            000000000000000                              000                           
0010001300331T 020180230000002544776 29647040778927527   7               20022017000000000006000001008214                         0900000000000010000000000000000000000000000000000000000   0000000000000000000000000A9        170192964704     
0010001300332U 020000000000000000000000000000000000000000000000000000000000000000000000000000000000000000000000000000000000000000000000001802201700000000            000000000000000                              000                           
0010001300333T 020180230000002544776 29647040779028343   7               20022017000000000006000001000132                         0900000000000010000000000000000000000000000000000000000   0000000000000000000000000A9        170192964704     
0010001300334U 020000000000000000000000000000000000000000000000000000000000000000000000000000000000000000000000000000000000000000000000001802201700000000            000000000000000                              000                           
0010001300335T 020180230000002544776 29647040779132056   7               20022017000000000006000001000132                         0900000000000010000000000000000000000000000000000000000   0000000000000000000000000A9        170192964704     
0010001300336U 020000000000000000000000000000000000000000000000000000000000000000000000000000000000000000000000000000000000000000000000001802201700000000            000000000000000                              000                           
0010001300337T 020180230000002544776 29647040779551197   7               20022017000000000006000001028029                         0900000000000010000000000000000000000000000000000000000   0000000000000000000000000A9        170192964704     
0010001300338U 020000000000000000000000000000000000000000000000000000000000000000000000000000000000000000000000000000000000000000000000001802201700000000            000000000000000                              000                           
0010001300339T 020180230000002544776 29647040779836667   7               20022017000000000008000001000701                         0900000000000010000000000000000000000000000000000000000   0000000000000000000000000A9        170192964704     
0010001300340U 020000000000000000000000000000000000000000000000000000000000000000000000000000000000000000000000000000000000000000000000001802201700000000            000000000000000                              000                           
0010001300341T 020180230000002544776 29647040779935785   7               20022017000000000006000001028029                         0900000000000010000000000000000000000000000000000000000   0000000000000000000000000A9        170192964704     
0010001300342U 020000000000000000000000000000000000000000000000000000000000000000000000000000000000000000000000000000000000000000000000001802201700000000            000000000000000                              000                           
0010001300343T 020180230000002544776 29647040780131914   7               20022017000000000006000001000132                         0900000000000010000000000000000000000000000000000000000   0000000000000000000000000A9        170192964704     
0010001300344U 020000000000000000000000000000000000000000000000000000000000000000000000000000000000000000000000000000000000000000000000001802201700000000            000000000000000                              000                           
0010001300345T 020180230000002544776 29647040780325607   7               22022017000000000006000001001597                         0900000000000010000000000000000000000000000000000000000   0000000000000000000000000A9        170192964704     
0010001300346U 020000000000000000000000000000000000000000000000000000000000000000000000000000000000000000000000000000000000000000000000002002201700000000            000000000000000                              000                           
0010001300347T 020180230000002544776 29647040780652838   7               20022017000000000006000001030864                         0900000000000010500000000000000000000000000000000000000   0000000000000000000000000A9A4      170192964704     
0010001300348U 020000000000000000000000000000000000000000000000000000000000000000000000000000000000000000000000000000000000000000000000001802201700000000            000000000000000                              000                           
0010001300349T 020180230000002544776 29647040780806058   7               20022017000000000006000001000132                         0900000000000010000000000000000000000000000000000000000   0000000000000000000000000A9        170192964704     
0010001300350U 020000000000000000000000000000000000000000000000000000000000000000000000000000000000000000000000000000000000000000000000001802201700000000            000000000000000                              000                           
0010001300351T 020180230000002544776 29647040781023441   7               21022017000000000006000001000132                         0900000000000010000000000000000000000000000000000000000   0000000000000000000000000A9        170192964704     
0010001300352U 020000000000000000000000000000000000000000000000000000000000000000000000000000000000000000000000000000000000000000000000001902201700000000            000000000000000                              000                           
0010001300353T 020180230000002544776 29647040781111693   7               21022017000000000006000001028029                         0900000000000010000000000000000000000000000000000000000   0000000000000000000000000A9        170192964704     
0010001300354U 020000000000000000000000000000000000000000000000000000000000000000000000000000000000000000000000000000000000000000000000001902201700000000            000000000000000                              000                           
0010001300355T 020180230000002544776 29647040781117609   7               22022017000000000006000001028029                         0900000000000010000000000000000000000000000000000000000   0000000000000000000000000A9        170192964704     
0010001300356U 020000000000000000000000000000000000000000000000000000000000000000000000000000000000000000000000000000000000000000000000002002201700000000            000000000000000                              000                           
0010001300357T 020180230000002544776 29647040781211083   7               21022017000000000006000001007277                         0900000000000010000000000000000000000000000000000000000   0000000000000000000000000A9        170192964704     
0010001300358U 020000000000000000000000000000000000000000000000000000000000000000000000000000000000000000000000000000000000000000000000001902201700000000            000000000000000                              000                           
0010001300359T 020180230000002544776 29647040781352954   7               21022017000000000006000001016179                         0900000000000010000000000000000000000000000000000000000   0000000000000000000000000A9        170192964704     
0010001300360U 020000000000000000000000000000000000000000000000000000000000000000000000000000000000000000000000000000000000000000000000001902201700000000            000000000000000                              000                           
0010001300361T 020180230000002544776 29647040781647890   7               21022017000000000006000001028029                         0900000000000010000000000000000000000000000000000000000   0000000000000000000000000A9        170192964704     
0010001300362U 020000000000000000000000000000000000000000000000000000000000000000000000000000000000000000000000000000000000000000000000001902201700000000            000000000000000                              000                           
0010001300363T 020180230000002544776 29647040781911190   7               22022017000000000006000001013617                         0900000000000010000000000000000000000000000000000000000   0000000000000000000000000A9        170192964704     
0010001300364U 020000000000000000000000000000000000000000000000000000000000000000000000000000000000000000000000000000000000000000000000002002201700000000            000000000000000                              000                           
0010001300365T 020180230000002544776 29647040781932967   7               21022017000000000006000001013617                         0900000000000010000000000000000000000000000000000000000   0000000000000000000000000A9        170192964704     
0010001300366U 020000000000000000000000000000000000000000000000000000000000000000000000000000000000000000000000000000000000000000000000001902201700000000            000000000000000                              000                           
0010001300367T 020180230000002544776 29647040781940416   7               21022017000000000006000001013617                         0900000000000010000000000000000000000000000000000000000   0000000000000000000000000A9        170192964704     
0010001300368U 020000000000000000000000000000000000000000000000000000000000000000000000000000000000000000000000000000000000000000000000001902201700000000            000000000000000                              000                           
0010001300369T 020180230000002544776 29647040782108180   7               21022017000000000006000001012467                         0900000000000010500000000000000000000000000000000000000   0000000000000000000000000A9A4      170192964704     
0010001300370U 020000000000000000000000000000000000000000000000000000000000000000000000000000000000000000000000000000000000000000000000001902201700000000            000000000000000                              000                           
0010001300371T 020180230000002544776 29647040782309994   7               21022017000000000006000001016179                         0900000000000010000000000000000000000000000000000000000   0000000000000000000000000A9        170192964704     
0010001300372U 020000000000000000000000000000000000000000000000000000000000000000000000000000000000000000000000000000000000000000000000001902201700000000            000000000000000                              000                           
0010001300373T 020180230000002544776 29647040782321089   7               21022017000000000006000001016179                         0900000000000010000000000000000000000000000000000000000   0000000000000000000000000A9        170192964704     
0010001300374U 020000000000000000000000000000000000000000000000000000000000000000000000000000000000000000000000000000000000000000000000001902201700000000            000000000000000                              000                           
0010001300375T 020180230000002544776 29647040782332166   7               21022017000000000006000001016179                         0900000000000010000000000000000000000000000000000000000   0000000000000000000000000A9        170192964704     
0010001300376U 020000000000000000000000000000000000000000000000000000000000000000000000000000000000000000000000000000000000000000000000001902201700000000            000000000000000                              000                           
0010001300377T 020180230000002544776 29647040782419672   7               21022017000000000006000001012467                         0900000000000010000000000000000000000000000000000000000   0000000000000000000000000A9        170192964704     
0010001300378U 020000000000000000000000000000000000000000000000000000000000000000000000000000000000000000000000000000000000000000000000001902201700000000            000000000000000                              000                           
0010001300379T 020180230000002544776 29647040782619860   7               21022017000000000008000001026425                         0900000000000010000000000000000000000000000000000000000   0000000000000000000000000A9        170192964704     
0010001300380U 020000000000000000000000000000000000000000000000000000000000000000000000000000000000000000000000000000000000000000000000001902201700000000            000000000000000                              000                           
0010001300381T 020180230000002544776 29647040782631329   7               21022017000000000008000001026425                         0900000000000010000000000000000000000000000000000000000   0000000000000000000000000A9        170192964704     
0010001300382U 020000000000000000000000000000000000000000000000000000000000000000000000000000000000000000000000000000000000000000000000001902201700000000            000000000000000                              000                           
0010001300383T 020180230000002544776 29647040782907826   7               21022017000000000006000001028029                         0900000000000010000000000000000000000000000000000000000   0000000000000000000000000A9        170192964704     
0010001300384U 020000000000000000000000000000000000000000000000000000000000000000000000000000000000000000000000000000000000000000000000001902201700000000            000000000000000                              000                           
0010001300385T 020180230000002544776 29647040783027279   7               21022017000000000006000001016179                         0900000000000010000000000000000000000000000000000000000   0000000000000000000000000A9        170192964704     
0010001300386U 020000000000000000000000000000000000000000000000000000000000000000000000000000000000000000000000000000000000000000000000001902201700000000            000000000000000                              000                           
0010001300387T 020180230000002544776 29647040783136534   7               21022017000000000006000001007145                         0900000000000010000000000000000000000000000000000000000   0000000000000000000000000A9        170192964704     
0010001300388U 020000000000000000000000000000000000000000000000000000000000000000000000000000000000000000000000000000000000000000000000001902201700000000            000000000000000                              000                           
0010001300389T 020180230000002544776 29647040783440924   7               21022017000000000008000001000132                         0900000000000010000000000000000000000000000000000000000   0000000000000000000000000A9        170192964704     
0010001300390U 020000000000000000000000000000000000000000000000000000000000000000000000000000000000000000000000000000000000000000000000001902201700000000            000000000000000                              000                           
0010001300391T 020180230000002544776 29647040783550983   7               21022017000000000006000001028029                         0900000000000010000000000000000000000000000000000000000   0000000000000000000000000A9        170192964704     
0010001300392U 020000000000000000000000000000000000000000000000000000000000000000000000000000000000000000000000000000000000000000000000001902201700000000            000000000000000                              000                           
0010001300393T 020180230000002544776 29647040783716128   7               21022017000000000008000001013609                         0900000000000010000000000000000000000000000000000000000   0000000000000000000000000A9        170192964704     
0010001300394U 020000000000000000000000000000000000000000000000000000000000000000000000000000000000000000000000000000000000000000000000001902201700000000            000000000000000                              000                           
0010001300395T 020180230000002544776 29647040783849390   7               21022017000000000006000001028029                         0900000000000010000000000000000000000000000000000000000   0000000000000000000000000A9        170192964704     
0010001300396U 020000000000000000000000000000000000000000000000000000000000000000000000000000000000000000000000000000000000000000000000001902201700000000            000000000000000                              000                           
0010001300397T 020180230000002544776 29647040784150737   7               21022017000000000006000001000132                         0900000000000010000000000000000000000000000000000000000   0000000000000000000000000A9        170192964704     
0010001300398U 020000000000000000000000000000000000000000000000000000000000000000000000000000000000000000000000000000000000000000000000001902201700000000            000000000000000                              000                           
0010001300399T 020180230000002544776 29647040784209891   7               21022017000000000008000001016179                         0900000000000010000000000000000000000000000000000000000   0000000000000000000000000A9        170192964704     
0010001300400U 020000000000000000000000000000000000000000000000000000000000000000000000000000000000000000000000000000000000000000000000001902201700000000            000000000000000                              000                           
0010001300401T 020180230000002544776 29647040784356474   7               21022017000000000006000001023655                         0900000000000010000000000000000000000000000000000000000   0000000000000000000000000A9        170192964704     
0010001300402U 020000000000000000000000000000000000000000000000000000000000000000000000000000000000000000000000000000000000000000000000001902201700000000            000000000000000                              000                           
0010001300403T 020180230000002544776 29647040784818612   7               21022017000000000006000001003247                         0900000000000010000000000000000000000000000000000000000   0000000000000000000000000A9        170192964704     
0010001300404U 020000000000000000000000000000000000000000000000000000000000000000000000000000000000000000000000000000000000000000000000001902201700000000            000000000000000                              000                           
0010001300405T 020180230000002544776 29647040784908905   7               21022017000000000006000001003247                         0900000000000010000000000000000000000000000000000000000   0000000000000000000000000A9        170192964704     
0010001300406U 020000000000000000000000000000000000000000000000000000000000000000000000000000000000000000000000000000000000000000000000001902201700000000            000000000000000                              000                           
0010001300407T 020180230000002544776 29647040785105869   7               21022017000000000008000001022241                         0900000000000010000000000000000000000000000000000000000   0000000000000000000000000A9        170192964704     
0010001300408U 020000000000000000000000000000000000000000000000000000000000000000000000000000000000000000000000000000000000000000000000001902201700000000            000000000000000                              000                           
0010001300409T 020180230000002544776 29647040785211232   7               21022017000000000006000001001155                         0900000000000010000000000000000000000000000000000000000   0000000000000000000000000A9        170192964704     
0010001300410U 020000000000000000000000000000000000000000000000000000000000000000000000000000000000000000000000000000000000000000000000001902201700000000            000000000000000                              000                           
0010001300411T 020180230000002544776 29647040785255657   7               21022017000000000006000001001155                         0900000000000010000000000000000000000000000000000000000   0000000000000000000000000A9        170192964704     
0010001300412U 020000000000000000000000000000000000000000000000000000000000000000000000000000000000000000000000000000000000000000000000001902201700000000            000000000000000                              000                           
