00100000         2247745860001000029647040014       0180230000002544776 INSTITUTO DE SELECAO E TECNOLOBANCO DO BRASIL                         22102201701592100003403000000515122941PROCESSAMEN                                                 
00100011T0100020 20247745860001000029647040014       0180230000002544776 INSTITUTO DE SELECAO E TECNOLO                                                                                000000002102201700000000  000000000                      
0010001300001T 020180230000002544776 29647040512136505   7               23022017000000000006000001020354                         0900000000000010000000000000000000000000000000000000000   0000000000000000000000000A9        170192964704     
0010001300002U 020000000000000000000000000000000000000000000000000000000000000000000000000000000000000000000000000000000000000000000000002102201700000000            000000000000000                              000                           
0010001300003T 020180230000002544776 29647040563128792   7               23022017000000000006000001016179                         0900000000000010000000000000000000000000000000000000000   0000000000000000000000000A9        170192964704     
0010001300004U 020000000000000000000000000000000000000000000000000000000000000000000000000000000000000000000000000000000000000000000000002102201700000000            000000000000000                              000                           
0010001300005T 020180230000002544776 29647040570425486   7               23022017000000000006000001016179                         0900000000000010000000000000000000000000000000000000000   0000000000000000000000000A9        170192964704     
0010001300006U 020000000000000000000000000000000000000000000000000000000000000000000000000000000000000000000000000000000000000000000000002102201700000000            000000000000000                              000                           
0010001300007T 020180230000002544776 29647040574722208   7               23022017000000000006000001005428                         0900000000000010000000000000000000000000000000000000000   0000000000000000000000000A9        170192964704     
0010001300008U 020000000000000000000000000000000000000000000000000000000000000000000000000000000000000000000000000000000000000000000000002102201700000000            000000000000000                              000                           
0010001300009T 020180230000002544776 29647040622235268   7               23022017000000000008000001000132                         0900000000000010000000000000000000000000000000000000000   0000000000000000000000000A9        170192964704     
0010001300010U 020000000000000000000000000000000000000000000000000000000000000000000000000000000000000000000000000000000000000000000000002102201700000000            000000000000000                              000                           
0010001300011T 020180230000002544776 29647040629010621   7               23022017000000000006000001000132                         0900000000000010000000000000000000000000000000000000000   0000000000000000000000000A9        170192964704     
0010001300012U 020000000000000000000000000000000000000000000000000000000000000000000000000000000000000000000000000000000000000000000000002102201700000000            000000000000000                              000                           
0010001300013T 020180230000002544776 29647040629029987   7               22022017000000000006000001000132                         0900000000000010000000000000000000000000000000000000000   0000000000000000000000000A9        170192964704     
0010001300014U 020000000000000000000000000000000000000000000000000000000000000000000000000000000000000000000000000000000000000000000000002002201700000000            000000000000000                              000                           
0010001300015T 020180230000002544776 29647040629047424   7               23022017000000000006000001000132                         0900000000000010000000000000000000000000000000000000000   0000000000000000000000000A9        170192964704     
0010001300016U 020000000000000000000000000000000000000000000000000000000000000000000000000000000000000000000000000000000000000000000000002102201700000000            000000000000000                              000                           
0010001300017T 020180230000002544776 29647040646521223   7               23022017000000000006000001008214                         0900000000000010500000000000000000000000000000000000000   0000000000000000000000000A9A4      170192964704     
0010001300018U 020000000000000000000000000000000000000000000000000000000000000000000000000000000000000000000000000000000000000000000000002102201700000000            000000000000000                              000                           
0010001300019T 020180230000002544776 29647040654631931   7               23022017000000000006000001005274                         0900000000000010000000000000000000000000000000000000000   0000000000000000000000000A9        170192964704     
0010001300020U 020000000000000000000000000000000000000000000000000000000000000000000000000000000000000000000000000000000000000000000000002102201700000000            000000000000000                              000                           
0010001300021T 020180230000002544776 29647040654657807   7               23022017000000000006000001005274                         0900000000000010000000000000000000000000000000000000000   0000000000000000000000000A9        170192964704     
0010001300022U 020000000000000000000000000000000000000000000000000000000000000000000000000000000000000000000000000000000000000000000000002102201700000000            000000000000000                              000                           
0010001300023T 020180230000002544776 29647040667826383   7               23022017000000000006000001000132                         0900000000000010000000000000000000000000000000000000000   0000000000000000000000000A9        170192964704     
0010001300024U 020000000000000000000000000000000000000000000000000000000000000000000000000000000000000000000000000000000000000000000000002102201700000000            000000000000000                              000                           
0010001300025T 020180230000002544776 29647040672839865   7               23022017000000000006000001016179                         0900000000000010000000000000000000000000000000000000000   0000000000000000000000000A9        170192964704     
0010001300026U 020000000000000000000000000000000000000000000000000000000000000000000000000000000000000000000000000000000000000000000000002102201700000000            000000000000000                              000                           
0010001300027T 020180230000002544776 29647040673308755   7               23022017000000000006000001000132                         0900000000000010000000000000000000000000000000000000000   0000000000000000000000000A9        170192964704     
0010001300028U 020000000000000000000000000000000000000000000000000000000000000000000000000000000000000000000000000000000000000000000000002102201700000000            000000000000000                              000                           
0010001300029T 020180230000002544776 29647040673316264   7               23022017000000000006000001000132                         0900000000000010000000000000000000000000000000000000000   0000000000000000000000000A9        170192964704     
0010001300030U 020000000000000000000000000000000000000000000000000000000000000000000000000000000000000000000000000000000000000000000000002102201700000000            000000000000000                              000                           
0010001300031T 020180230000002544776 29647040673332595   7               23022017000000000006000001000132                         0900000000000010000000000000000000000000000000000000000   0000000000000000000000000A9        170192964704     
0010001300032U 020000000000000000000000000000000000000000000000000000000000000000000000000000000000000000000000000000000000000000000000002102201700000000            000000000000000                              000                           
0010001300033T 020180230000002544776 29647040674439118   7               23022017000000000006000001033316                         0900000000000010000000000000000000000000000000000000000   0000000000000000000000000A9        170192964704     
0010001300034U 020000000000000000000000000000000000000000000000000000000000000000000000000000000000000000000000000000000000000000000000002102201700000000            000000000000000                              000                           
0010001300035T 020180230000002544776 29647040688828856   7               23022017000000000008000001006734                         0900000000000010000000000000000000000000000000000000000   0000000000000000000000000A9        170192964704     
0010001300036U 020000000000000000000000000000000000000000000000000000000000000000000000000000000000000000000000000000000000000000000000002102201700000000            000000000000000                              000                           
0010001300037T 020180230000002544776 29647040702832554   7               23022017000000000006000001035033                         0900000000000010000000000000000000000000000000000000000   0000000000000000000000000A9        170192964704     
0010001300038U 020000000000000000000000000000000000000000000000000000000000000000000000000000000000000000000000000000000000000000000000002102201700000000            000000000000000                              000                           
0010001300039T 020180230000002544776 29647040706903493   7               23022017000000000006000001016179                         0900000000000010000000000000000000000000000000000000000   0000000000000000000000000A9        170192964704     
0010001300040U 020000000000000000000000000000000000000000000000000000000000000000000000000000000000000000000000000000000000000000000000002102201700000000            000000000000000                              000                           
0010001300041T 020180230000002544776 29647040706914590   7               23022017000000000006000001016179                         0900000000000010000000000000000000000000000000000000000   0000000000000000000000000A9        170192964704     
0010001300042U 020000000000000000000000000000000000000000000000000000000000000000000000000000000000000000000000000000000000000000000000002102201700000000            000000000000000                              000                           
0010001300043T 020180230000002544776 29647040706943026   7               23022017000000000006000001016179                         0900000000000010000000000000000000000000000000000000000   0000000000000000000000000A9        170192964704     
0010001300044U 020000000000000000000000000000000000000000000000000000000000000000000000000000000000000000000000000000000000000000000000002102201700000000            000000000000000                              000                           
0010001300045T 020180230000002544776 29647040707504136   7               23022017000000000006000001028029                         0900000000000010000000000000000000000000000000000000000   0000000000000000000000000A9        170192964704     
0010001300046U 020000000000000000000000000000000000000000000000000000000000000000000000000000000000000000000000000000000000000000000000002102201700000000            000000000000000                              000                           
0010001300047T 020180230000002544776 29647040708004486   7               23022017000000000006000001009229                         0900000000000010000000000000000000000000000000000000000   0000000000000000000000000A9        170192964704     
0010001300048U 020000000000000000000000000000000000000000000000000000000000000000000000000000000000000000000000000000000000000000000000002102201700000000            000000000000000                              000                           
0010001300049T 020180230000002544776 29647040708706154   7               22022017000000000006000001011037                         0900000000000010000000000000000000000000000000000000000   0000000000000000000000000A9        170192964704     
0010001300050U 020000000000000000000000000000000000000000000000000000000000000000000000000000000000000000000000000000000000000000000000002002201700000000            000000000000000                              000                           
0010001300051T 020180230000002544776 29647040710912810   7               23022017000000000006000001016179                         0900000000000010000000000000000000000000000000000000000   0000000000000000000000000A9        170192964704     
0010001300052U 020000000000000000000000000000000000000000000000000000000000000000000000000000000000000000000000000000000000000000000000002102201700000000            000000000000000                              000                           
0010001300053T 020180230000002544776 29647040715526686   7               2302201700000000000600000101981X                         0900000000000010000000000000000000000000000000000000000   0000000000000000000000000A9        170192964704     
0010001300054U 020000000000000000000000000000000000000000000000000000000000000000000000000000000000000000000000000000000000000000000000002102201700000000            000000000000000                              000                           
0010001300055T 020180230000002544776 29647040715933151   7               22022017000000000006000001016179                         0900000000000010000000000000000000000000000000000000000   0000000000000000000000000A9        170192964704     
0010001300056U 020000000000000000000000000000000000000000000000000000000000000000000000000000000000000000000000000000000000000000000000002002201700000000            000000000000000                              000                           
0010001300057T 020180230000002544776 29647040719808119   7               23022017000000000006000001000132                         0900000000000010000000000000000000000000000000000000000   0000000000000000000000000A9        170192964704     
0010001300058U 020000000000000000000000000000000000000000000000000000000000000000000000000000000000000000000000000000000000000000000000002102201700000000            000000000000000                              000                           
0010001300059T 020180230000002544776 29647040730500547   7               2302201700000000000600000102418X                         0900000000000010000000000000000000000000000000000000000   0000000000000000000000000A9        170192964704     
0010001300060U 020000000000000000000000000000000000000000000000000000000000000000000000000000000000000000000000000000000000000000000000002102201700000000            000000000000000                              000                           
0010001300061T 020180230000002544776 29647040734209996   7               22022017000000000006000001000132                         0900000000000010000000000000000000000000000000000000000   0000000000000000000000000A9        170192964704     
0010001300062U 020000000000000000000000000000000000000000000000000000000000000000000000000000000000000000000000000000000000000000000000002002201700000000            000000000000000                              000                           
0010001300063T 020180230000002544776 29647040739050790   7               23022017000000000006000001016179                         0900000000000010000000000000000000000000000000000000000   0000000000000000000000000A9        170192964704     
0010001300064U 020000000000000000000000000000000000000000000000000000000000000000000000000000000000000000000000000000000000000000000000002102201700000000            000000000000000                              000                           
0010001300065T 020180230000002544776 29647040739533474   7               23022017000000000006000001001597                         0900000000000010000000000000000000000000000000000000000   0000000000000000000000000A9        170192964704     
0010001300066U 020000000000000000000000000000000000000000000000000000000000000000000000000000000000000000000000000000000000000000000000002102201700000000            000000000000000                              000                           
0010001300067T 020180230000002544776 29647040755707162   7               23022017000000000006000001023655                         0900000000000010000000000000000000000000000000000000000   0000000000000000000000000A9        170192964704     
0010001300068U 020000000000000000000000000000000000000000000000000000000000000000000000000000000000000000000000000000000000000000000000002102201700000000            000000000000000                              000                           
0010001300069T 020180230000002544776 29647040764841794   7               23022017000000000006000001035033                         0900000000000010000000000000000000000000000000000000000   0000000000000000000000000A9        170192964704     
0010001300070U 020000000000000000000000000000000000000000000000000000000000000000000000000000000000000000000000000000000000000000000000002102201700000000            000000000000000                              000                           
0010001300071T 020180230000002544776 29647040771426219   7               23022017000000000006000001028029                         0900000000000010000000000000000000000000000000000000000   0000000000000000000000000A9        170192964704     
0010001300072U 020000000000000000000000000000000000000000000000000000000000000000000000000000000000000000000000000000000000000000000000002102201700000000            000000000000000                              000                           
0010001300073T 020180230000002544776 29647040775450383   7               23022017000000000006000001000612                         0900000000000010500000000000000000000000000000000000000   0000000000000000000000000A9A4      170192964704     
0010001300074U 020000000000000000000000000000000000000000000000000000000000000000000000000000000000000000000000000000000000000000000000002102201700000000            000000000000000                              000                           
0010001300075T 020180230000002544776 29647040778458524   7               23022017000000000008000001012467                         0900000000000010000000000000000000000000000000000000000   0000000000000000000000000A9        170192964704     
0010001300076U 020000000000000000000000000000000000000000000000000000000000000000000000000000000000000000000000000000000000000000000000002102201700000000            000000000000000                              000                           
0010001300077T 020180230000002544776 29647040780350707   7               23022017000000000006000001001597                         0900000000000010000000000000000000000000000000000000000   0000000000000000000000000A9        170192964704     
0010001300078U 020000000000000000000000000000000000000000000000000000000000000000000000000000000000000000000000000000000000000000000000002102201700000000            000000000000000                              000                           
0010001300079T 020180230000002544776 29647040790611055   7               23022017000000000006000001016179                         0900000000000010000000000000000000000000000000000000000   0000000000000000000000000A9        170192964704     
0010001300080U 020000000000000000000000000000000000000000000000000000000000000000000000000000000000000000000000000000000000000000000000002102201700000000            000000000000000                              000                           
0010001300081T 020180230000002544776 29647040792311378   7               23022017000000000008000001033316                         0900000000000010000000000000000000000000000000000000000   0000000000000000000000000A9        170192964704     
0010001300082U 020000000000000000000000000000000000000000000000000000000000000000000000000000000000000000000000000000000000000000000000002102201700000000            000000000000000                              000                           
0010001300083T 020180230000002544776 29647040792359569   7               23022017000000000008000001033316                         0900000000000010000000000000000000000000000000000000000   0000000000000000000000000A9        170192964704     
0010001300084U 020000000000000000000000000000000000000000000000000000000000000000000000000000000000000000000000000000000000000000000000002102201700000000            000000000000000                              000                           
0010001300085T 020180230000002544776 29647040807310711   7               23022017000000000006000001020354                         0900000000000010000000000000000000000000000000000000000   0000000000000000000000000A9        170192964704     
0010001300086U 020000000000000000000000000000000000000000000000000000000000000000000000000000000000000000000000000000000000000000000000002102201700000000            000000000000000                              000                           
0010001300087T 020180230000002544776 29647040810305533   7               23022017000000000006000001010421                         0900000000000010000000000000000000000000000000000000000   0000000000000000000000000A9        170192964704     
0010001300088U 020000000000000000000000000000000000000000000000000000000000000000000000000000000000000000000000000000000000000000000000002102201700000000            000000000000000                              000                           
0010001300089T 020180230000002544776 29647040811648416   7               23022017000000000006000001009636                         0900000000000010000000000000000000000000000000000000000   0000000000000000000000000A9        170192964704     
0010001300090U 020000000000000000000000000000000000000000000000000000000000000000000000000000000000000000000000000000000000000000000000002102201700000000            000000000000000                              000                           
0010001300091T 020180230000002544776 29647040811653004   7               23022017000000000006000001009636                         0900000000000010000000000000000000000000000000000000000   0000000000000000000000000A9        170192964704     
0010001300092U 020000000000000000000000000000000000000000000000000000000000000000000000000000000000000000000000000000000000000000000000002102201700000000            000000000000000                              000                           
0010001300093T 020180230000002544776 29647040814049197   7               23022017000000000006000001000132                         0900000000000010000000000000000000000000000000000000000   0000000000000000000000000A9        170192964704     
0010001300094U 020000000000000000000000000000000000000000000000000000000000000000000000000000000000000000000000000000000000000000000000002102201700000000            000000000000000                              000                           
0010001300095T 020180230000002544776 29647040814055839   7               23022017000000000006000001000132                         0900000000000010000000000000000000000000000000000000000   0000000000000000000000000A9        170192964704     
0010001300096U 020000000000000000000000000000000000000000000000000000000000000000000000000000000000000000000000000000000000000000000000002102201700000000            000000000000000                              000                           
0010001300097T 020180230000002544776 29647040816539856   7               23022017000000000006000001025429                         0900000000000010000000000000000000000000000000000000000   0000000000000000000000000A9        170192964704     
0010001300098U 020000000000000000000000000000000000000000000000000000000000000000000000000000000000000000000000000000000000000000000000002102201700000000            000000000000000                              000                           
0010001300099T 020180230000002544776 29647040817951887   7               23022017000000000006000001016179                         0900000000000010000000000000000000000000000000000000000   0000000000000000000000000A9        170192964704     
0010001300100U 020000000000000000000000000000000000000000000000000000000000000000000000000000000000000000000000000000000000000000000000002102201700000000            000000000000000                              000                           
0010001300101T 020180230000002544776 29647040820633137   7               23022017000000000006000001028029                         0900000000000010000000000000000000000000000000000000000   0000000000000000000000000A9        170192964704     
0010001300102U 020000000000000000000000000000000000000000000000000000000000000000000000000000000000000000000000000000000000000000000000002102201700000000            000000000000000                              000                           
0010001300103T 020180230000002544776 29647040820639857   7               23022017000000000006000001028029                         0900000000000010000000000000000000000000000000000000000   0000000000000000000000000A9        170192964704     
0010001300104U 020000000000000000000000000000000000000000000000000000000000000000000000000000000000000000000000000000000000000000000000002102201700000000            000000000000000                              000                           
0010001300105T 020180230000002544776 29647040820658113   7               23022017000000000006000001028029                         0900000000000010000000000000000000000000000000000000000   0000000000000000000000000A9        170192964704     
0010001300106U 020000000000000000000000000000000000000000000000000000000000000000000000000000000000000000000000000000000000000000000000002102201700000000            000000000000000                              000                           
0010001300107T 020180230000002544776 29647040820713589   7               23022017000000000006000001000132                         0900000000000010000000000000000000000000000000000000000   0000000000000000000000000A9        170192964704     
0010001300108U 020000000000000000000000000000000000000000000000000000000000000000000000000000000000000000000000000000000000000000000000002102201700000000            000000000000000                              000                           
0010001300109T 020180230000002544776 29647040820746811   7               23022017000000000006000001000132                         0900000000000010000000000000000000000000000000000000000   0000000000000000000000000A9        170192964704     
0010001300110U 020000000000000000000000000000000000000000000000000000000000000000000000000000000000000000000000000000000000000000000000002102201700000000            000000000000000                              000                           
0010001300111T 020180230000002544776 29647040825115317   7               23022017000000000008000001000132                         0900000000000010000000000000000000000000000000000000000   0000000000000000000000000A9        170192964704     
0010001300112U 020000000000000000000000000000000000000000000000000000000000000000000000000000000000000000000000000000000000000000000000002102201700000000            000000000000000                              000                           
0010001300113T 020180230000002544776 29647040827638839   7               23022017000000000008000001000132                         0900000000000010000000000000000000000000000000000000000   0000000000000000000000000A9        170192964704     
0010001300114U 020000000000000000000000000000000000000000000000000000000000000000000000000000000000000000000000000000000000000000000000002102201700000000            000000000000000                              000                           
0010001300115T 020180230000002544776 29647040830403271   7               23022017000000000006000001001597                         0900000000000010000000000000000000000000000000000000000   0000000000000000000000000A9        170192964704     
0010001300116U 020000000000000000000000000000000000000000000000000000000000000000000000000000000000000000000000000000000000000000000000002102201700000000            000000000000000                              000                           
0010001300117T 020180230000002544776 29647040833646422   7               22022017000000000008000001018376                         0900000000000010000000000000000000000000000000000000000   0000000000000000000000000A9        170192964704     
0010001300118U 020000000000000000000000000000000000000000000000000000000000000000000000000000000000000000000000000000000000000000000000002002201700000000            000000000000000                              000                           
0010001300119T 020180230000002544776 29647040833826174   7               22022017000000000006000001016489                         0900000000000010000000000000000000000000000000000000000   0000000000000000000000000A9        170192964704     
0010001300120U 020000000000000000000000000000000000000000000000000000000000000000000000000000000000000000000000000000000000000000000000002002201700000000            000000000000000                              000                           
0010001300121T 020180230000002544776 29647040833912083   7               22022017000000000006000001000132                         0900000000000010000000000000000000000000000000000000000   0000000000000000000000000A9        170192964704     
0010001300122U 020000000000000000000000000000000000000000000000000000000000000000000000000000000000000000000000000000000000000000000000002002201700000000            000000000000000                              000                           
0010001300123T 020180230000002544776 29647040834249799   7               22022017000000000006000001000132                         0900000000000010000000000000000000000000000000000000000   0000000000000000000000000A9        170192964704     
0010001300124U 020000000000000000000000000000000000000000000000000000000000000000000000000000000000000000000000000000000000000000000000002002201700000000            000000000000000                              000                           
0010001300125T 020180230000002544776 29647040834407367   7               22022017000000000006000001012467                         0900000000000010000000000000000000000000000000000000000   0000000000000000000000000A9        170192964704     
0010001300126U 020000000000000000000000000000000000000000000000000000000000000000000000000000000000000000000000000000000000000000000000002002201700000000            000000000000000                              000                           
0010001300127T 020180230000002544776 29647040834455185   7               22022017000000000006000001012467                         0900000000000010000000000000000000000000000000000000000   0000000000000000000000000A9        170192964704     
0010001300128U 020000000000000000000000000000000000000000000000000000000000000000000000000000000000000000000000000000000000000000000000002002201700000000            000000000000000                              000                           
0010001300129T 020180230000002544776 29647040834728429   7               22022017000000000006000001023655                         0900000000000010000000000000000000000000000000000000000   0000000000000000000000000A9        170192964704     
0010001300130U 020000000000000000000000000000000000000000000000000000000000000000000000000000000000000000000000000000000000000000000000002002201700000000            000000000000000                              000                           
0010001300131T 020180230000002544776 29647040834750287   7               22022017000000000006000001023655                         0900000000000010000000000000000000000000000000000000000   0000000000000000000000000A9        170192964704     
0010001300132U 020000000000000000000000000000000000000000000000000000000000000000000000000000000000000000000000000000000000000000000000002002201700000000            000000000000000                              000                           
0010001300133T 020180230000002544776 29647040834758128   7               22022017000000000006000001023655                         0900000000000010000000000000000000000000000000000000000   0000000000000000000000000A9        170192964704     
0010001300134U 020000000000000000000000000000000000000000000000000000000000000000000000000000000000000000000000000000000000000000000000002002201700000000            000000000000000                              000                           
0010001300135T 020180230000002544776 29647040834925491   7               22022017000000000006000001000132                         0900000000000010000000000000000000000000000000000000000   0000000000000000000000000A9        170192964704     
0010001300136U 020000000000000000000000000000000000000000000000000000000000000000000000000000000000000000000000000000000000000000000000002002201700000000            000000000000000                              000                           
0010001300137T 020180230000002544776 29647040835004307   7               22022017000000000008000001028029                         0900000000000010000000000000000000000000000000000000000   0000000000000000000000000A9        170192964704     
0010001300138U 020000000000000000000000000000000000000000000000000000000000000000000000000000000000000000000000000000000000000000000000002002201700000000            000000000000000                              000                           
0010001300139T 020180230000002544776 29647040835030956   7               22022017000000000008000001028029                         0900000000000010000000000000000000000000000000000000000   0000000000000000000000000A9        170192964704     
0010001300140U 020000000000000000000000000000000000000000000000000000000000000000000000000000000000000000000000000000000000000000000000002002201700000000            000000000000000                              000                           
0010001300141T 020180230000002544776 29647040835242626   7               22022017000000000008000001028029                         0900000000000010000000000000000000000000000000000000000   0000000000000000000000000A9        170192964704     
0010001300142U 020000000000000000000000000000000000000000000000000000000000000000000000000000000000000000000000000000000000000000000000002002201700000000            000000000000000                              000                           
0010001300143T 020180230000002544776 29647040835329000   7               22022017000000000006000001028029                         0900000000000010000000000000000000000000000000000000000   0000000000000000000000000A9        170192964704     
0010001300144U 020000000000000000000000000000000000000000000000000000000000000000000000000000000000000000000000000000000000000000000000002002201700000000            000000000000000                              000                           
0010001300145T 020180230000002544776 29647040835534879   7               22022017000000000006000001028029                         0900000000000010500000000000000000000000000000000000000   0000000000000000000000000A9A4      170192964704     
0010001300146U 020000000000000000000000000000000000000000000000000000000000000000000000000000000000000000000000000000000000000000000000002002201700000000            000000000000000                              000                           
0010001300147T 020180230000002544776 29647040835607671   7               22022017000000000006000001016179                         0900000000000010000000000000000000000000000000000000000   0000000000000000000000000A9        170192964704     
0010001300148U 020000000000000000000000000000000000000000000000000000000000000000000000000000000000000000000000000000000000000000000000002002201700000000            000000000000000                              000                           
0010001300149T 020180230000002544776 29647040835712713   7               22022017000000000006000001011398                         0900000000000010000000000000000000000000000000000000000   0000000000000000000000000A9        170192964704     
0010001300150U 020000000000000000000000000000000000000000000000000000000000000000000000000000000000000000000000000000000000000000000000002002201700000000            000000000000000                              000                           
0010001300151T 020180230000002544776 29647040835821517   7               23022017000000000006000001000132                         0900000000000010000000000000000000000000000000000000000   0000000000000000000000000A9        170192964704     
0010001300152U 020000000000000000000000000000000000000000000000000000000000000000000000000000000000000000000000000000000000000000000000002102201700000000            000000000000000                              000                           
0010001300153T 020180230000002544776 29647040835955283   7               23022017000000000006000001000132                         0900000000000010500000000000000000000000000000000000000   0000000000000000000000000A9A4      170192964704     
0010001300154U 020000000000000000000000000000000000000000000000000000000000000000000000000000000000000000000000000000000000000000000000002102201700000000            000000000000000                              000                           
0010001300155T 020180230000002544776 29647040836053066   7               23022017000000000006000001012467                         0900000000000010500000000000000000000000000000000000000   0000000000000000000000000A9A4      170192964704     
0010001300156U 020000000000000000000000000000000000000000000000000000000000000000000000000000000000000000000000000000000000000000000000002102201700000000            000000000000000                              000                           
0010001300157T 020180230000002544776 29647040836136123   7               23022017000000000006000001012467                         0900000000000010000000000000000000000000000000000000000   0000000000000000000000000A9        170192964704     
0010001300158U 020000000000000000000000000000000000000000000000000000000000000000000000000000000000000000000000000000000000000000000000002102201700000000            000000000000000                              000                           
0010001300159T 020180230000002544776 29647040836217743   7               23022017000000000006000001033316                         0900000000000010000000000000000000000000000000000000000   0000000000000000000000000A9        170192964704     
0010001300160U 020000000000000000000000000000000000000000000000000000000000000000000000000000000000000000000000000000000000000000000000002102201700000000            000000000000000                              000                           
0010001300161T 020180230000002544776 29647040836223247   7               23022017000000000006000001033316                         0900000000000010000000000000000000000000000000000000000   0000000000000000000000000A9        170192964704     
0010001300162U 020000000000000000000000000000000000000000000000000000000000000000000000000000000000000000000000000000000000000000000000002102201700000000            000000000000000                              000                           
0010001300163T 020180230000002544776 29647040836315799   7               23022017000000000006000001002208                         0900000000000010000000000000000000000000000000000000000   0000000000000000000000000A9        170192964704     
0010001300164U 020000000000000000000000000000000000000000000000000000000000000000000000000000000000000000000000000000000000000000000000002102201700000000            000000000000000                              000                           
0010001300165T 020180230000002544776 29647040836420623   7               2302201700000000000600000100944X                         0900000000000010000000000000000000000000000000000000000   0000000000000000000000000A9        170192964704     
0010001300166U 020000000000000000000000000000000000000000000000000000000000000000000000000000000000000000000000000000000000000000000000002102201700000000            000000000000000                              000                           
0010001300167T 020180230000002544776 29647040836554022   7               23022017000000000006000001000132                         0900000000000010000000000000000000000000000000000000000   0000000000000000000000000A9        170192964704     
0010001300168U 020000000000000000000000000000000000000000000000000000000000000000000000000000000000000000000000000000000000000000000000002102201700000000            000000000000000                              000                           
0010001300169T 020180230000002544776 29647040836941149   7               23022017000000000006000001044865                         0900000000000010000000000000000000000000000000000000000   0000000000000000000000000A9        170192964704     
0010001300170U 020000000000000000000000000000000000000000000000000000000000000000000000000000000000000000000000000000000000000000000000002102201700000000            000000000000000                              000                           
0010001300171T 020180230000002544776 29647040837102405   7               23022017000000000006000001010219                         0900000000000010000000000000000000000000000000000000000   0000000000000000000000000A9        170192964704     
0010001300172U 020000000000000000000000000000000000000000000000000000000000000000000000000000000000000000000000000000000000000000000000002102201700000000            000000000000000                              000                           
0010001300173T 020180230000002544776 29647040837110163   7               23022017000000000006000001010219                         0900000000000010000000000000000000000000000000000000000   0000000000000000000000000A9        170192964704     
0010001300174U 020000000000000000000000000000000000000000000000000000000000000000000000000000000000000000000000000000000000000000000000002102201700000000            000000000000000                              000                           
0010001300175T 020180230000002544776 29647040837159232   7               23022017000000000006000001010219                         0900000000000010000000000000000000000000000000000000000   0000000000000000000000000A9        170192964704     
0010001300176U 020000000000000000000000000000000000000000000000000000000000000000000000000000000000000000000000000000000000000000000000002102201700000000            000000000000000                              000                           
0010001300177T 020180230000002544776 29647040837304057   7               23022017000000000006000001016179                         0900000000000010500000000000000000000000000000000000000   0000000000000000000000000A9A4      170192964704     
0010001300178U 020000000000000000000000000000000000000000000000000000000000000000000000000000000000000000000000000000000000000000000000002102201700000000            000000000000000                              000                           
0010001300179T 020180230000002544776 29647040837349051   7               23022017000000000006000001016179                         0900000000000010500000000000000000000000000000000000000   0000000000000000000000000A9A4      170192964704     
0010001300180U 020000000000000000000000000000000000000000000000000000000000000000000000000000000000000000000000000000000000000000000000002102201700000000            000000000000000                              000                           
0010001300181T 020180230000002544776 29647040837617218   7               23022017000000000006000001000132                         0900000000000010000000000000000000000000000000000000000   0000000000000000000000000A9        170192964704     
0010001300182U 020000000000000000000000000000000000000000000000000000000000000000000000000000000000000000000000000000000000000000000000002102201700000000            000000000000000                              000                           
0010001300183T 020180230000002544776 29647040837621958   7               23022017000000000006000001000132                         0900000000000010000000000000000000000000000000000000000   0000000000000000000000000A9        170192964704     
0010001300184U 020000000000000000000000000000000000000000000000000000000000000000000000000000000000000000000000000000000000000000000000002102201700000000            000000000000000                              000                           
0010001300185T 020180230000002544776 29647040837643816   7               23022017000000000006000001000132                         0900000000000010000000000000000000000000000000000000000   0000000000000000000000000A9        170192964704     
0010001300186U 020000000000000000000000000000000000000000000000000000000000000000000000000000000000000000000000000000000000000000000000002102201700000000            000000000000000                              000                           
0010001300187T 020180230000002544776 29647040838004399   7               23022017000000000006000001001201                         0900000000000010000000000000000000000000000000000000000   0000000000000000000000000A9        170192964704     
0010001300188U 020000000000000000000000000000000000000000000000000000000000000000000000000000000000000000000000000000000000000000000000002102201700000000            000000000000000                              000                           
0010001300189T 020180230000002544776 29647040838110405   7               23022017000000000006000001024376                         0900000000000010500000000000000000000000000000000000000   0000000000000000000000000A9A4      170192964704     
0010001300190U 020000000000000000000000000000000000000000000000000000000000000000000000000000000000000000000000000000000000000000000000002102201700000000            000000000000000                              000                           
0010001300191T 020180230000002544776 29647040838548529   7               23022017000000000006000001000132                         0900000000000010000000000000000000000000000000000000000   0000000000000000000000000A9        170192964704     
0010001300192U 020000000000000000000000000000000000000000000000000000000000000000000000000000000000000000000000000000000000000000000000002102201700000000            000000000000000                              000                           
0010001300193T 020180230000002544776 29647040838918214   7               23022017000000000006000001028029                         0900000000000010000000000000000000000000000000000000000   0000000000000000000000000A9        170192964704     
0010001300194U 020000000000000000000000000000000000000000000000000000000000000000000000000000000000000000000000000000000000000000000000002102201700000000            000000000000000                              000                           
0010001300195T 020180230000002544776 29647040839010819   7               2302201700000000000600000102256X                         0900000000000010000000000000000000000000000000000000000   0000000000000000000000000A9        170192964704     
0010001300196U 020000000000000000000000000000000000000000000000000000000000000000000000000000000000000000000000000000000000000000000000002102201700000000            000000000000000                              000                           
0010001300197T 020180230000002544776 29647040839138075   7               23022017000000000006000001006386                         0900000000000010000000000000000000000000000000000000000   0000000000000000000000000A9        170192964704     
0010001300198U 020000000000000000000000000000000000000000000000000000000000000000000000000000000000000000000000000000000000000000000000002102201700000000            000000000000000                              000                           
0010001300199T 020180230000002544776 29647040839908758   7               23022017000000000006000001000132                         0900000000000010000000000000000000000000000000000000000   0000000000000000000000000A9        170192964704     
0010001300200U 020000000000000000000000000000000000000000000000000000000000000000000000000000000000000000000000000000000000000000000000002102201700000000            000000000000000                              000                           
0010001300201T 020180230000002544776 29647040840452937   7               23022017000000000006000001016179                         0900000000000010000000000000000000000000000000000000000   0000000000000000000000000A9        170192964704     
0010001300202U 020000000000000000000000000000000000000000000000000000000000000000000000000000000000000000000000000000000000000000000000002102201700000000            000000000000000                              000                           
0010001300203T 020180230000002544776 29647040840634209   7               23022017000000000006000001000132                         0900000000000010000000000000000000000000000000000000000   0000000000000000000000000A9        170192964704     
0010001300204U 020000000000000000000000000000000000000000000000000000000000000000000000000000000000000000000000000000000000000000000000002102201700000000            000000000000000                              000                           
0010001300205T 020180230000002544776 29647040840800595   7               23022017000000000006000001028029                         0900000000000010000000000000000000000000000000000000000   0000000000000000000000000A9        170192964704     
0010001300206U 020000000000000000000000000000000000000000000000000000000000000000000000000000000000000000000000000000000000000000000000002102201700000000            000000000000000                              000                           
0010001300207T 020180230000002544776 29647040841154994   7               23022017000000000006000001000132                         0900000000000010000000000000000000000000000000000000000   0000000000000000000000000A9        170192964704     
0010001300208U 020000000000000000000000000000000000000000000000000000000000000000000000000000000000000000000000000000000000000000000000002102201700000000            000000000000000                              000                           
0010001300209T 020180230000002544776 29647040841329010   7               2302201700000000000600000101981X                         0900000000000010000000000000000000000000000000000000000   0000000000000000000000000A9        170192964704     
0010001300210U 020000000000000000000000000000000000000000000000000000000000000000000000000000000000000000000000000000000000000000000000002102201700000000            000000000000000                              000                           
0010001300211T 020180230000002544776 29647040841432512   7               23022017000000000006000001028029                         0900000000000010000000000000000000000000000000000000000   0000000000000000000000000A9        170192964704     
0010001300212U 020000000000000000000000000000000000000000000000000000000000000000000000000000000000000000000000000000000000000000000000002102201700000000            000000000000000                              000                           
0010001300213T 020180230000002544776 29647040841538749   7               23022017000000000006000001016179                         0900000000000010000000000000000000000000000000000000000   0000000000000000000000000A9        170192964704     
0010001300214U 020000000000000000000000000000000000000000000000000000000000000000000000000000000000000000000000000000000000000000000000002102201700000000            000000000000000                              000                           
0010001300215T 020180230000002544776 29647040841831382   7               23022017000000000006000001033316                         0900000000000010000000000000000000000000000000000000000   0000000000000000000000000A9        170192964704     
0010001300216U 020000000000000000000000000000000000000000000000000000000000000000000000000000000000000000000000000000000000000000000000002102201700000000            000000000000000                              000                           
0010001300217T 020180230000002544776 29647040842317352   7               23022017000000000008000001028029                         0900000000000010000000000000000000000000000000000000000   0000000000000000000000000A9        170192964704     
0010001300218U 020000000000000000000000000000000000000000000000000000000000000000000000000000000000000000000000000000000000000000000000002102201700000000            000000000000000                              000                           
0010001300219T 020180230000002544776 29647040842850275   7               23022017000000000008000001000132                         0900000000000010000000000000000000000000000000000000000   0000000000000000000000000A9        170192964704     
0010001300220U 020000000000000000000000000000000000000000000000000000000000000000000000000000000000000000000000000000000000000000000000002102201700000000            000000000000000                              000                           
0010001300221T 020180230000002544776 29647040843106611   7               2302201700000000000600000101981X                         0900000000000010000000000000000000000000000000000000000   0000000000000000000000000A9        170192964704     
0010001300222U 020000000000000000000000000000000000000000000000000000000000000000000000000000000000000000000000000000000000000000000000002102201700000000            000000000000000                              000                           
0010001300223T 020180230000002544776 29647040843221529   7               23022017000000000006000001032859                         0900000000000010500000000000000000000000000000000000000   0000000000000000000000000A9A4      170192964704     
0010001300224U 020000000000000000000000000000000000000000000000000000000000000000000000000000000000000000000000000000000000000000000000002102201700000000            000000000000000                              000                           
0010001300225T 020180230000002544776 29647040843325882   7               23022017000000000008000001028029                         0900000000000010000000000000000000000000000000000000000   0000000000000000000000000A9        170192964704     
0010001300226U 020000000000000000000000000000000000000000000000000000000000000000000000000000000000000000000000000000000000000000000000002102201700000000            000000000000000                              000                           
0010001300227T 020180230000002544776 29647040843423011   7               23022017000000000006000001000132                         0900000000000010000000000000000000000000000000000000000   0000000000000000000000000A9        170192964704     
0010001300228U 020000000000000000000000000000000000000000000000000000000000000000000000000000000000000000000000000000000000000000000000002102201700000000            000000000000000                              000                           
0010001300229T 020180230000002544776 29647040843524822   7               23022017000000000006000001008214                         0900000000000010000000000000000000000000000000000000000   0000000000000000000000000A9        170192964704     
0010001300230U 020000000000000000000000000000000000000000000000000000000000000000000000000000000000000000000000000000000000000000000000002102201700000000            000000000000000                              000                           
0010001300231T 020180230000002544776 29647040844052683   7               23022017000000000006000001000132                         0900000000000010000000000000000000000000000000000000000   0000000000000000000000000A9        170192964704     
0010001300232U 020000000000000000000000000000000000000000000000000000000000000000000000000000000000000000000000000000000000000000000000002102201700000000            000000000000000                              000                           
0010001300233T 020180230000002544776 29647040844108310   7               23022017000000000006000001026441                         0900000000000010000000000000000000000000000000000000000   0000000000000000000000000A9        170192964704     
0010001300234U 020000000000000000000000000000000000000000000000000000000000000000000000000000000000000000000000000000000000000000000000002102201700000000            000000000000000                              000                           
0010001300235T 020180230000002544776 29647040844124751   7               23022017000000000006000001026441                         0900000000000010000000000000000000000000000000000000000   0000000000000000000000000A9        170192964704     
0010001300236U 020000000000000000000000000000000000000000000000000000000000000000000000000000000000000000000000000000000000000000000000002102201700000000            000000000000000                              000                           
0010001300237T 020180230000002544776 29647040844312620   7               23022017000000000008000001033316                         0900000000000010000000000000000000000000000000000000000   0000000000000000000000000A9        170192964704     
0010001300238U 020000000000000000000000000000000000000000000000000000000000000000000000000000000000000000000000000000000000000000000000002102201700000000            000000000000000                              000                           
0010001300239T 020180230000002544776 29647040844521510   7               23022017000000000008000001018376                         0900000000000010000000000000000000000000000000000000000   0000000000000000000000000A9        170192964704     
0010001300240U 020000000000000000000000000000000000000000000000000000000000000000000000000000000000000000000000000000000000000000000000002102201700000000            000000000000000                              000                           
0010001300241T 020180230000002544776 29647040844559462   7               23022017000000000008000001018376                         0900000000000010000000000000000000000000000000000000000   0000000000000000000000000A9        170192964704     
0010001300242U 020000000000000000000000000000000000000000000000000000000000000000000000000000000000000000000000000000000000000000000000002102201700000000            000000000000000                              000                           
0010001300243T 020180230000002544776 29647040844658632   7               23022017000000000006000001028029                         0900000000000010000000000000000000000000000000000000000   0000000000000000000000000A9        170192964704     
0010001300244U 020000000000000000000000000000000000000000000000000000000000000000000000000000000000000000000000000000000000000000000000002102201700000000            000000000000000                              000                           
0010001300245T 020180230000002544776 29647040844715412   7               23022017000000000006000001020354                         0900000000000010000000000000000000000000000000000000000   0000000000000000000000000A9        170192964704     
0010001300246U 020000000000000000000000000000000000000000000000000000000000000000000000000000000000000000000000000000000000000000000000002102201700000000            000000000000000                              000                           
0010001300247T 020180230000002544776 29647040844732886   7               23022017000000000006000001020354                         0900000000000010000000000000000000000000000000000000000   0000000000000000000000000A9        170192964704     
0010001300248U 020000000000000000000000000000000000000000000000000000000000000000000000000000000000000000000000000000000000000000000000002102201700000000            000000000000000                              000                           
0010001300249T 020180230000002544776 29647040844803062   7               23022017000000000006000001000132                         0900000000000010000000000000000000000000000000000000000   0000000000000000000000000A9        170192964704     
0010001300250U 020000000000000000000000000000000000000000000000000000000000000000000000000000000000000000000000000000000000000000000000002102201700000000            000000000000000                              000                           
0010001300251T 020180230000002544776 29647040844947469   7               23022017000000000006000001016179                         0900000000000010500000000000000000000000000000000000000   0000000000000000000000000A9A4      170192964704     
0010001300252U 020000000000000000000000000000000000000000000000000000000000000000000000000000000000000000000000000000000000000000000000002102201700000000            000000000000000                              000                           
0010001300253T 020180230000002544776 29647040845542301   7               23022017000000000006000001028029                         0900000000000010000000000000000000000000000000000000000   0000000000000000000000000A9        170192964704     
0010001300254U 020000000000000000000000000000000000000000000000000000000000000000000000000000000000000000000000000000000000000000000000002102201700000000            000000000000000                              000                           
0010001300255T 020180230000002544776 29647040845702027   7               23022017000000000006000001033316                         0900000000000010000000000000000000000000000000000000000   0000000000000000000000000A9        170192964704     
0010001300256U 020000000000000000000000000000000000000000000000000000000000000000000000000000000000000000000000000000000000000000000000002102201700000000            000000000000000                              000                           
0010001300257T 020180230000002544776 29647040846053743   7               23022017000000000006000001000132                         0900000000000010000000000000000000000000000000000000000   0000000000000000000000000A9        170192964704     
0010001300258U 020000000000000000000000000000000000000000000000000000000000000000000000000000000000000000000000000000000000000000000000002102201700000000            000000000000000                              000                           
0010001300259T 020180230000002544776 29647040846130502   7               23022017000000000006000001028029                         0900000000000010000000000000000000000000000000000000000   0000000000000000000000000A9        170192964704     
0010001300260U 020000000000000000000000000000000000000000000000000000000000000000000000000000000000000000000000000000000000000000000000002102201700000000            000000000000000                              000                           
0010001300261T 020180230000002544776 29647040846355734   7               23022017000000000008000001032859                         0900000000000010000000000000000000000000000000000000000   0000000000000000000000000A9        170192964704     
0010001300262U 020000000000000000000000000000000000000000000000000000000000000000000000000000000000000000000000000000000000000000000000002102201700000000            000000000000000                              000                           
0010001300263T 020180230000002544776 29647040846424062   7               23022017000000000008000001000132                         0900000000000010000000000000000000000000000000000000000   0000000000000000000000000A9        170192964704     
0010001300264U 020000000000000000000000000000000000000000000000000000000000000000000000000000000000000000000000000000000000000000000000002102201700000000            000000000000000                              000                           
0010001300265T 020180230000002544776 29647040846658474   7               23022017000000000006000001028495                         0900000000000010000000000000000000000000000000000000000   0000000000000000000000000A9        170192964704     
0010001300266U 020000000000000000000000000000000000000000000000000000000000000000000000000000000000000000000000000000000000000000000000002102201700000000            000000000000000                              000                           
0010001300267T 020180230000002544776 29647040846659849   7               23022017000000000006000001028495                         0900000000000010000000000000000000000000000000000000000   0000000000000000000000000A9        170192964704     
0010001300268U 020000000000000000000000000000000000000000000000000000000000000000000000000000000000000000000000000000000000000000000000002102201700000000            000000000000000                              000                           
0010001300269T 020180230000002544776 29647040846708014   7               2302201700000000000600000100233X                         0900000000000010000000000000000000000000000000000000000   0000000000000000000000000A9        170192964704     
0010001300270U 020000000000000000000000000000000000000000000000000000000000000000000000000000000000000000000000000000000000000000000000002102201700000000            000000000000000                              000                           
0010001300271T 020180230000002544776 29647040846802616   7               23022017000000000006000001022748                         0900000000000010000000000000000000000000000000000000000   0000000000000000000000000A9        170192964704     
0010001300272U 020000000000000000000000000000000000000000000000000000000000000000000000000000000000000000000000000000000000000000000000002102201700000000            000000000000000                              000                           
0010001300273T 020180230000002544776 29647040846947326   7               23022017000000000008000001016179                         0900000000000010000000000000000000000000000000000000000   0000000000000000000000000A9        170192964704     
0010001300274U 020000000000000000000000000000000000000000000000000000000000000000000000000000000000000000000000000000000000000000000000002102201700000000            000000000000000                              000                           
0010001300275T 020180230000002544776 29647040847516191   7               23022017000000000008000001000361                         0900000000000010000000000000000000000000000000000000000   0000000000000000000000000A9        170192964704     
0010001300276U 020000000000000000000000000000000000000000000000000000000000000000000000000000000000000000000000000000000000000000000000002102201700000000            000000000000000                              000                           
0010001300277T 020180230000002544776 29647040847636125   7               23022017000000000006000001007145                         0900000000000010000000000000000000000000000000000000000   0000000000000000000000000A9        170192964704     
0010001300278U 020000000000000000000000000000000000000000000000000000000000000000000000000000000000000000000000000000000000000000000000002102201700000000            000000000000000                              000                           
0010001300279T 020180230000002544776 29647040847846024   7               23022017000000000006000001000132                         0900000000000010000000000000000000000000000000000000000   0000000000000000000000000A9        170192964704     
0010001300280U 020000000000000000000000000000000000000000000000000000000000000000000000000000000000000000000000000000000000000000000000002102201700000000            000000000000000                              000                           
0010001300281T 020180230000002544776 29647040847913981   7               23022017000000000006000001000132                         0900000000000010500000000000000000000000000000000000000   0000000000000000000000000A9A4      170192964704     
0010001300282U 020000000000000000000000000000000000000000000000000000000000000000000000000000000000000000000000000000000000000000000000002102201700000000            000000000000000                              000                           
0010001300283T 020180230000002544776 29647040848129724   7               23022017000000000006000001016179                         0900000000000010000000000000000000000000000000000000000   0000000000000000000000000A9        170192964704     
0010001300284U 020000000000000000000000000000000000000000000000000000000000000000000000000000000000000000000000000000000000000000000000002102201700000000            000000000000000                              000                           
0010001300285T 020180230000002544776 29647040848349801   7               23022017000000000006000001012467                         0900000000000010000000000000000000000000000000000000000   0000000000000000000000000A9        170192964704     
0010001300286U 020000000000000000000000000000000000000000000000000000000000000000000000000000000000000000000000000000000000000000000000002102201700000000            000000000000000                              000                           
0010001300287T 020180230000002544776 29647040848839411   7               23022017000000000006000001018376                         0900000000000010000000000000000000000000000000000000000   0000000000000000000000000A9        170192964704     
0010001300288U 020000000000000000000000000000000000000000000000000000000000000000000000000000000000000000000000000000000000000000000000002102201700000000            000000000000000                              000                           
0010001300289T 020180230000002544776 29647040849217477   7               23022017000000000006000001014699                         0900000000000010000000000000000000000000000000000000000   0000000000000000000000000A9        170192964704     
0010001300290U 020000000000000000000000000000000000000000000000000000000000000000000000000000000000000000000000000000000000000000000000002102201700000000            000000000000000                              000                           
0010001300291T 020180230000002544776 29647040849403335   7               23022017000000000006000001014699                         0900000000000010000000000000000000000000000000000000000   0000000000000000000000000A9        170192964704     
0010001300292U 020000000000000000000000000000000000000000000000000000000000000000000000000000000000000000000000000000000000000000000000002102201700000000            000000000000000                              000                           
0010001300293T 020180230000002544776 29647040849800420   7               23022017000000000006000001008214                         0900000000000010000000000000000000000000000000000000000   0000000000000000000000000A9        170192964704     
0010001300294U 020000000000000000000000000000000000000000000000000000000000000000000000000000000000000000000000000000000000000000000000002102201700000000            000000000000000                              000                           
0010001300295T 020180230000002544776 29647040849810566   7               23022017000000000006000001008214                         0900000000000010000000000000000000000000000000000000000   0000000000000000000000000A9        170192964704     
0010001300296U 020000000000000000000000000000000000000000000000000000000000000000000000000000000000000000000000000000000000000000000000002102201700000000            000000000000000                              000                           
0010001300297T 020180230000002544776 29647040849908802   7               23022017000000000006000001010669                         0900000000000010000000000000000000000000000000000000000   0000000000000000000000000A9        170192964704     
0010001300298U 020000000000000000000000000000000000000000000000000000000000000000000000000000000000000000000000000000000000000000000000002102201700000000            000000000000000                              000                           
0010001300299T 020180230000002544776 29647040849922108   7               23022017000000000006000001010669                         0900000000000010000000000000000000000000000000000000000   0000000000000000000000000A9        170192964704     
0010001300300U 020000000000000000000000000000000000000000000000000000000000000000000000000000000000000000000000000000000000000000000000002102201700000000            000000000000000                              000                           
0010001300301T 020180230000002544776 29647040849951144   7               23022017000000000006000001010669                         0900000000000010000000000000000000000000000000000000000   0000000000000000000000000A9        170192964704     
0010001300302U 020000000000000000000000000000000000000000000000000000000000000000000000000000000000000000000000000000000000000000000000002102201700000000            000000000000000                              000                           
0010001300303T 020180230000002544776 29647040850026496   7               23022017000000000006000001033316                         0900000000000010000000000000000000000000000000000000000   0000000000000000000000000A9        170192964704     
0010001300304U 020000000000000000000000000000000000000000000000000000000000000000000000000000000000000000000000000000000000000000000000002102201700000000            000000000000000                              000                           
0010001300305T 020180230000002544776 29647040850110364   7               23022017000000000008000001033316                         0900000000000010000000000000000000000000000000000000000   0000000000000000000000000A9        170192964704     
0010001300306U 020000000000000000000000000000000000000000000000000000000000000000000000000000000000000000000000000000000000000000000000002102201700000000            000000000000000                              000                           
0010001300307T 020180230000002544776 29647040850210294   7               23022017000000000006000001000132                         0900000000000010000000000000000000000000000000000000000   0000000000000000000000000A9        170192964704     
0010001300308U 020000000000000000000000000000000000000000000000000000000000000000000000000000000000000000000000000000000000000000000000002102201700000000            000000000000000                              000                           
0010001300309T 020180230000002544776 29647040850530875   7               23022017000000000008000001000132                         0900000000000010000000000000000000000000000000000000000   0000000000000000000000000A9        170192964704     
0010001300310U 020000000000000000000000000000000000000000000000000000000000000000000000000000000000000000000000000000000000000000000000002102201700000000            000000000000000                              000                           
0010001300311T 020180230000002544776 29647040850620792   7               23022017000000000006000001012467                         0900000000000010000000000000000000000000000000000000000   0000000000000000000000000A9        170192964704     
0010001300312U 020000000000000000000000000000000000000000000000000000000000000000000000000000000000000000000000000000000000000000000000002102201700000000            000000000000000                              000                           
0010001300313T 020180230000002544776 29647040850748043   7               23022017000000000006000001033316                         0900000000000010000000000000000000000000000000000000000   0000000000000000000000000A9        170192964704     
0010001300314U 020000000000000000000000000000000000000000000000000000000000000000000000000000000000000000000000000000000000000000000000002102201700000000            000000000000000                              000                           
0010001300315T 020180230000002544776 29647040850810138   7               2302201700000000000600000101138X                         0900000000000010500000000000000000000000000000000000000   0000000000000000000000000A9A4      170192964704     
0010001300316U 020000000000000000000000000000000000000000000000000000000000000000000000000000000000000000000000000000000000000000000000002102201700000000            000000000000000                              000                           
0010001300317T 020180230000002544776 29647040850958118   7               23022017000000000006000001000698                         0900000000000010500000000000000000000000000000000000000   0000000000000000000000000A9A4      170192964704     
0010001300318U 020000000000000000000000000000000000000000000000000000000000000000000000000000000000000000000000000000000000000000000000002102201700000000            000000000000000                              000                           
0010001300319T 020180230000002544776 29647040851053272   7               23022017000000000006000001028495                         0900000000000010500000000000000000000000000000000000000   0000000000000000000000000A9A4      170192964704     
0010001300320U 020000000000000000000000000000000000000000000000000000000000000000000000000000000000000000000000000000000000000000000000002102201700000000            000000000000000                              000                           
0010001300321T 020180230000002544776 29647040851146248   7               23022017000000000006000001020354                         0900000000000010000000000000000000000000000000000000000   0000000000000000000000000A9        170192964704     
0010001300322U 020000000000000000000000000000000000000000000000000000000000000000000000000000000000000000000000000000000000000000000000002102201700000000            000000000000000                              000                           
0010001300323T 020180230000002544776 29647040851221663   7               23022017000000000006000001018376                         0900000000000010000000000000000000000000000000000000000   0000000000000000000000000A9        170192964704     
0010001300324U 020000000000000000000000000000000000000000000000000000000000000000000000000000000000000000000000000000000000000000000000002102201700000000            000000000000000                              000                           
0010001300325T 020180230000002544776 29647040851530444   7               23022017000000000006000001008214                         0900000000000010000000000000000000000000000000000000000   0000000000000000000000000A9        170192964704     
0010001300326U 020000000000000000000000000000000000000000000000000000000000000000000000000000000000000000000000000000000000000000000000002102201700000000            000000000000000                              000                           
0010001300327T 020180230000002544776 29647040851757806   7               23022017000000000006000001028029                         0900000000000010000000000000000000000000000000000000000   0000000000000000000000000A9        170192964704     
0010001300328U 020000000000000000000000000000000000000000000000000000000000000000000000000000000000000000000000000000000000000000000000002102201700000000            000000000000000                              000                           
0010001300329T 020180230000002544776 29647040851946394   7               23022017000000000006000001016179                         0900000000000010000000000000000000000000000000000000000   0000000000000000000000000A9        170192964704     
0010001300330U 020000000000000000000000000000000000000000000000000000000000000000000000000000000000000000000000000000000000000000000000002102201700000000            000000000000000                              000                           
0010001300331T 020180230000002544776 29647040852045268   7               23022017000000000006000001028029                         0900000000000010000000000000000000000000000000000000000   0000000000000000000000000A9        170192964704     
0010001300332U 020000000000000000000000000000000000000000000000000000000000000000000000000000000000000000000000000000000000000000000000002102201700000000            000000000000000                              000                           
0010001300333T 020180230000002544776 29647040852159291   7               23022017000000000006000001023655                         0900000000000010000000000000000000000000000000000000000   0000000000000000000000000A9        170192964704     
0010001300334U 020000000000000000000000000000000000000000000000000000000000000000000000000000000000000000000000000000000000000000000000002102201700000000            000000000000000                              000                           
0010001300335T 020180230000002544776 29647040852557328   7               23022017000000000006000001000132                         0900000000000010000000000000000000000000000000000000000   0000000000000000000000000A9        170192964704     
0010001300336U 020000000000000000000000000000000000000000000000000000000000000000000000000000000000000000000000000000000000000000000000002102201700000000            000000000000000                              000                           
0010001300337T 020180230000002544776 29647040852825195   7               23022017000000000006000001001597                         0900000000000010000000000000000000000000000000000000000   0000000000000000000000000A9        170192964704     
0010001300338U 020000000000000000000000000000000000000000000000000000000000000000000000000000000000000000000000000000000000000000000000002102201700000000            000000000000000                              000                           
0010001300339T 020180230000002544776 29647040853236924   7               23022017000000000008000001023655                         0900000000000010000000000000000000000000000000000000000   0000000000000000000000000A9        170192964704     
0010001300340U 020000000000000000000000000000000000000000000000000000000000000000000000000000000000000000000000000000000000000000000000002102201700000000            000000000000000                              000                           
0010001300341T 020180230000002544776 29647040853427624   7               23022017000000000006000001012467                         0900000000000010000000000000000000000000000000000000000   0000000000000000000000000A9        170192964704     
0010001300342U 020000000000000000000000000000000000000000000000000000000000000000000000000000000000000000000000000000000000000000000000002102201700000000            000000000000000                              000                           
0010001300343T 020180230000002544776 29647040853514792   7               23022017000000000006000001028029                         0900000000000010000000000000000000000000000000000000000   0000000000000000000000000A9        170192964704     
0010001300344U 020000000000000000000000000000000000000000000000000000000000000000000000000000000000000000000000000000000000000000000000002102201700000000            000000000000000                              000                           
0010001300345T 020180230000002544776 29647040853805035   7               23022017000000000006000001028029                         0900000000000010000000000000000000000000000000000000000   0000000000000000000000000A9        170192964704     
0010001300346U 020000000000000000000000000000000000000000000000000000000000000000000000000000000000000000000000000000000000000000000000002102201700000000            000000000000000                              000                           
0010001300347T 020180230000002544776 29647040854047901   7               23022017000000000006000001009636                         0900000000000010000000000000000000000000000000000000000   0000000000000000000000000A9        170192964704     
0010001300348U 020000000000000000000000000000000000000000000000000000000000000000000000000000000000000000000000000000000000000000000000002102201700000000            000000000000000                              000                           
0010001300349T 020180230000002544776 29647040854128770   7               23022017000000000006000001016179                         0900000000000010000000000000000000000000000000000000000   0000000000000000000000000A9        170192964704     
0010001300350U 020000000000000000000000000000000000000000000000000000000000000000000000000000000000000000000000000000000000000000000000002102201700000000            000000000000000                              000                           
0010001300351T 020180230000002544776 29647040854429292   7               23022017000000000006000001001597                         0900000000000010000000000000000000000000000000000000000   0000000000000000000000000A9        170192964704     
0010001300352U 020000000000000000000000000000000000000000000000000000000000000000000000000000000000000000000000000000000000000000000000002102201700000000            000000000000000                              000                           
0010001300353T 020180230000002544776 29647040854634285   7               23022017000000000006000001000132                         0900000000000010000000000000000000000000000000000000000   0000000000000000000000000A9        170192964704     
0010001300354U 020000000000000000000000000000000000000000000000000000000000000000000000000000000000000000000000000000000000000000000000002102201700000000            000000000000000                              000                           
0010001300355T 020180230000002544776 29647040855044888   7               23022017000000000006000001021911                         0900000000000010000000000000000000000000000000000000000   0000000000000000000000000A9        170192964704     
0010001300356U 020000000000000000000000000000000000000000000000000000000000000000000000000000000000000000000000000000000000000000000000002102201700000000            000000000000000                              000                           
0010001300357T 020180230000002544776 29647040855129464   7               23022017000000000008000001002003                         0900000000000010000000000000000000000000000000000000000   0000000000000000000000000A9        170192964704     
0010001300358U 020000000000000000000000000000000000000000000000000000000000000000000000000000000000000000000000000000000000000000000000002102201700000000            000000000000000                              000                           
0010001300359T 020180230000002544776 29647040855146895   7               23022017000000000008000001002003                         0900000000000010000000000000000000000000000000000000000   0000000000000000000000000A9        170192964704     
0010001300360U 020000000000000000000000000000000000000000000000000000000000000000000000000000000000000000000000000000000000000000000000002102201700000000            000000000000000                              000                           
0010001300361T 020180230000002544776 29647040855234607   7               23022017000000000008000001011193                         0900000000000010000000000000000000000000000000000000000   0000000000000000000000000A9        170192964704     
0010001300362U 020000000000000000000000000000000000000000000000000000000000000000000000000000000000000000000000000000000000000000000000002102201700000000            000000000000000                              000                           
0010001300363T 020180230000002544776 29647040855313877   7               23022017000000000006000001000132                         0900000000000010000000000000000000000000000000000000000   0000000000000000000000000A9        170192964704     
0010001300364U 020000000000000000000000000000000000000000000000000000000000000000000000000000000000000000000000000000000000000000000000002102201700000000            000000000000000                              000                           
0010001300365T 020180230000002544776 29647040855456155   7               23022017000000000006000001028029                         0900000000000010000000000000000000000000000000000000000   0000000000000000000000000A9        170192964704     
0010001300366U 020000000000000000000000000000000000000000000000000000000000000000000000000000000000000000000000000000000000000000000000002102201700000000            000000000000000                              000                           
0010001300367T 020180230000002544776 29647040855501323   7               23022017000000000008000001016179                         0900000000000010000000000000000000000000000000000000000   0000000000000000000000000A9        170192964704     
0010001300368U 020000000000000000000000000000000000000000000000000000000000000000000000000000000000000000000000000000000000000000000000002102201700000000            000000000000000                              000                           
0010001300369T 020180230000002544776 29647040855723399   7               23022017000000000006000001000132                         0900000000000010000000000000000000000000000000000000000   0000000000000000000000000A9        170192964704     
0010001300370U 020000000000000000000000000000000000000000000000000000000000000000000000000000000000000000000000000000000000000000000000002102201700000000            000000000000000                              000                           
0010001300371T 020180230000002544776 29647040855853829   7               23022017000000000006000001035041                         0900000000000010000000000000000000000000000000000000000   0000000000000000000000000A9        170192964704     
0010001300372U 020000000000000000000000000000000000000000000000000000000000000000000000000000000000000000000000000000000000000000000000002102201700000000            000000000000000                              000                           
0010001300373T 020180230000002544776 29647040856011116   7               23022017000000000006000001028029                         0900000000000010000000000000000000000000000000000000000   0000000000000000000000000A9        170192964704     
0010001300374U 020000000000000000000000000000000000000000000000000000000000000000000000000000000000000000000000000000000000000000000000002102201700000000            000000000000000                              000                           
0010001300375T 020180230000002544776 29647040856252889   7               23022017000000000008000001018376                         0900000000000010000000000000000000000000000000000000000   0000000000000000000000000A9        170192964704     
0010001300376U 020000000000000000000000000000000000000000000000000000000000000000000000000000000000000000000000000000000000000000000000002102201700000000            000000000000000                              000                           
0010001300377T 020180230000002544776 29647040856302633   7               23022017000000000006000001035041                         0900000000000010000000000000000000000000000000000000000   0000000000000000000000000A9        170192964704     
0010001300378U 020000000000000000000000000000000000000000000000000000000000000000000000000000000000000000000000000000000000000000000000002102201700000000            000000000000000                              000                           
0010001300379T 020180230000002544776 29647040856313707   7               23022017000000000006000001035041                         0900000000000010000000000000000000000000000000000000000   0000000000000000000000000A9        170192964704     
0010001300380U 020000000000000000000000000000000000000000000000000000000000000000000000000000000000000000000000000000000000000000000000002102201700000000            000000000000000                              000                           
0010001300381T 020180230000002544776 29647040856342957   7               23022017000000000006000001035041                         0900000000000010000000000000000000000000000000000000000   0000000000000000000000000A9        170192964704     
0010001300382U 020000000000000000000000000000000000000000000000000000000000000000000000000000000000000000000000000000000000000000000000002102201700000000            000000000000000                              000                           
0010001300383T 020180230000002544776 29647040856344466   7               23022017000000000006000001035041                         0900000000000010000000000000000000000000000000000000000   0000000000000000000000000A9        170192964704     
0010001300384U 020000000000000000000000000000000000000000000000000000000000000000000000000000000000000000000000000000000000000000000000002102201700000000            000000000000000                              000                           
0010001300385T 020180230000002544776 29647040856358336   7               23022017000000000006000001035041                         0900000000000010000000000000000000000000000000000000000   0000000000000000000000000A9        170192964704     
0010001300386U 020000000000000000000000000000000000000000000000000000000000000000000000000000000000000000000000000000000000000000000000002102201700000000            000000000000000                              000                           
0010001300387T 020180230000002544776 29647040856510153   7               23022017000000000008000001020354                         0900000000000010000000000000000000000000000000000000000   0000000000000000000000000A9        170192964704     
0010001300388U 020000000000000000000000000000000000000000000000000000000000000000000000000000000000000000000000000000000000000000000000002102201700000000            000000000000000                              000                           
0010001300389T 020180230000002544776 29647040856857991   7               23022017000000000008000001012467                         0900000000000010000000000000000000000000000000000000000   0000000000000000000000000A9        170192964704     
0010001300390U 020000000000000000000000000000000000000000000000000000000000000000000000000000000000000000000000000000000000000000000000002102201700000000            000000000000000                              000                           
0010001300391T 020180230000002544776 29647040856916807   7               23022017000000000006000001012467                         0900000000000010000000000000000000000000000000000000000   0000000000000000000000000A9        170192964704     
0010001300392U 020000000000000000000000000000000000000000000000000000000000000000000000000000000000000000000000000000000000000000000000002102201700000000            000000000000000                              000                           
0010001300393T 020180230000002544776 29647040857001415   7               23022017000000000006000001016179                         0900000000000010000000000000000000000000000000000000000   0000000000000000000000000A9        170192964704     
0010001300394U 020000000000000000000000000000000000000000000000000000000000000000000000000000000000000000000000000000000000000000000000002102201700000000            000000000000000                              000                           
0010001300395T 020180230000002544776 29647040857259910   7               23022017000000000006000001000132                         0900000000000010000000000000000000000000000000000000000   0000000000000000000000000A9        170192964704     
0010001300396U 020000000000000000000000000000000000000000000000000000000000000000000000000000000000000000000000000000000000000000000000002102201700000000            000000000000000                              000                           
0010001300397T 020180230000002544776 29647040857456102   7               23022017000000000006000001016179                         0900000000000010500000000000000000000000000000000000000   0000000000000000000000000A9A4      170192964704     
0010001300398U 020000000000000000000000000000000000000000000000000000000000000000000000000000000000000000000000000000000000000000000000002102201700000000            000000000000000                              000                           
0010001300399T 020180230000002544776 29647040857626569   7               23022017000000000008000001028029                         0900000000000010000000000000000000000000000000000000000   0000000000000000000000000A9        170192964704     
0010001300400U 020000000000000000000000000000000000000000000000000000000000000000000000000000000000000000000000000000000000000000000000002102201700000000            000000000000000                              000                           
0010001300401T 020180230000002544776 29647040857717312   7               23022017000000000006000001000132                         0900000000000010000000000000000000000000000000000000000   0000000000000000000000000A9        170192964704     
0010001300402U 020000000000000000000000000000000000000000000000000000000000000000000000000000000000000000000000000000000000000000000000002102201700000000            000000000000000                              000                           
0010001300403T 020180230000002544776 29647040857832698   7               23022017000000000008000001016179                         0900000000000010000000000000000000000000000000000000000   0000000000000000000000000A9        170192964704     
0010001300404U 020000000000000000000000000000000000000000000000000000000000000000000000000000000000000000000000000000000000000000000000002102201700000000            000000000000000                              000                           
0010001300405T 020180230000002544776 29647040858111577   7               23022017000000000006000001016179                         0900000000000010000000000000000000000000000000000000000   0000000000000000000000000A9        170192964704     
0010001300406U 020000000000000000000000000000000000000000000000000000000000000000000000000000000000000000000000000000000000000000000000002102201700000000            000000000000000                              000                           
0010001300407T 020180230000002544776 29647040858329887   7               23022017000000000006000001018376                         0900000000000010000000000000000000000000000000000000000   0000000000000000000000000A9        170192964704     
0010001300408U 020000000000000000000000000000000000000000000000000000000000000000000000000000000000000000000000000000000000000000000000002102201700000000            000000000000000                              000                           
0010001300409T 020180230000002544776 29647040858425460   7               23022017000000000008000001025429                         0900000000000010000000000000000000000000000000000000000   0000000000000000000000000A9        170192964704     
0010001300410U 020000000000000000000000000000000000000000000000000000000000000000000000000000000000000000000000000000000000000000000000002102201700000000            000000000000000                              000                           
0010001300411T 020180230000002544776 29647040858501391   7               23022017000000000006000001016179                         0900000000000010000000000000000000000000000000000000000   0000000000000000000000000A9        170192964704     
0010001300412U 020000000000000000000000000000000000000000000000000000000000000000000000000000000000000000000000000000000000000000000000002102201700000000            000000000000000                              000                           
