00100000         2247745860001000029647040014       0180230000002544776 INSTITUTO DE SELECAO E TECNOLOBANCO DO BRASIL                         22202201701285900003603000000515122941PROCESSAMEN                                                 
00100011T0100020 20247745860001000029647040014       0180230000002544776 INSTITUTO DE SELECAO E TECNOLO                                                                                000000002202201700000000  000000000                      
0010001300001T 020180230000002544776 29647040545057226   7               24022017000000000008000001016179                         0900000000000010000000000000000000000000000000000000000   0000000000000000000000000A9        170192964704     
0010001300002U 020000000000000000000000000000000000000000000000000000000000000000000000000000000000000000000000000000000000000000000000002202201700000000            000000000000000                              000                           
0010001300003T 020180230000002544776 29647040545501601   7               24022017000000000006000001000132                         0900000000000010000000000000000000000000000000000000000   0000000000000000000000000A9        170192964704     
0010001300004U 020000000000000000000000000000000000000000000000000000000000000000000000000000000000000000000000000000000000000000000000002202201700000000            000000000000000                              000                           
0010001300005T 020180230000002544776 29647040545935828   7               24022017000000000006000001008214                         0900000000000010000000000000000000000000000000000000000   0000000000000000000000000A9        170192964704     
0010001300006U 020000000000000000000000000000000000000000000000000000000000000000000000000000000000000000000000000000000000000000000000002202201700000000            000000000000000                              000                           
0010001300007T 020180230000002544776 29647040569010206   7               2402201700000000000600000101981X                         0900000000000010500000000000000000000000000000000000000   0000000000000000000000000A9A4      170192964704     
0010001300008U 020000000000000000000000000000000000000000000000000000000000000000000000000000000000000000000000000000000000000000000000002202201700000000            000000000000000                              000                           
0010001300009T 020180230000002544776 29647040576745059   7               24022017000000000006000001005428                         0900000000000010000000000000000000000000000000000000000   0000000000000000000000000A9        170192964704     
0010001300010U 020000000000000000000000000000000000000000000000000000000000000000000000000000000000000000000000000000000000000000000000002202201700000000            000000000000000                              000                           
0010001300011T 020180230000002544776 29647040595327727   7               24022017000000000006000001000132                         0900000000000010000000000000000000000000000000000000000   0000000000000000000000000A9        170192964704     
0010001300012U 020000000000000000000000000000000000000000000000000000000000000000000000000000000000000000000000000000000000000000000000002202201700000000            000000000000000                              000                           
0010001300013T 020180230000002544776 29647040595353484   7               24022017000000000006000001000132                         0900000000000010000000000000000000000000000000000000000   0000000000000000000000000A9        170192964704     
0010001300014U 020000000000000000000000000000000000000000000000000000000000000000000000000000000000000000000000000000000000000000000000002202201700000000            000000000000000                              000                           
0010001300015T 020180230000002544776 29647040611038212   7               24022017000000000008000001000132                         0900000000000010500000000000000000000000000000000000000   0000000000000000000000000A9A4      170192964704     
0010001300016U 020000000000000000000000000000000000000000000000000000000000000000000000000000000000000000000000000000000000000000000000002202201700000000            000000000000000                              000                           
0010001300017T 020180230000002544776 29647040617407643   7               23022017000000000006000001023655                         0900000000000010000000000000000000000000000000000000000   0000000000000000000000000A9        170192964704     
0010001300018U 020000000000000000000000000000000000000000000000000000000000000000000000000000000000000000000000000000000000000000000000002102201700000000            000000000000000                              000                           
0010001300019T 020180230000002544776 29647040627817951   7               24022017000000000006000001016179                         0900000000000010000000000000000000000000000000000000000   0000000000000000000000000A9        170192964704     
0010001300020U 020000000000000000000000000000000000000000000000000000000000000000000000000000000000000000000000000000000000000000000000002202201700000000            000000000000000                              000                           
0010001300021T 020180230000002544776 29647040629056392   7               24022017000000000006000001000132                         0900000000000010000000000000000000000000000000000000000   0000000000000000000000000A9        170192964704     
0010001300022U 020000000000000000000000000000000000000000000000000000000000000000000000000000000000000000000000000000000000000000000000002202201700000000            000000000000000                              000                           
0010001300023T 020180230000002544776 29647040638117025   7               24022017000000000006000001000132                         0900000000000010000000000000000000000000000000000000000   0000000000000000000000000A9        170192964704     
0010001300024U 020000000000000000000000000000000000000000000000000000000000000000000000000000000000000000000000000000000000000000000000002202201700000000            000000000000000                              000                           
0010001300025T 020180230000002544776 29647040662111373   7               24022017000000000006000001020478                         0900000000000010000000000000000000000000000000000000000   0000000000000000000000000A9        170192964704     
0010001300026U 020000000000000000000000000000000000000000000000000000000000000000000000000000000000000000000000000000000000000000000000002202201700000000            000000000000000                              000                           
0010001300027T 020180230000002544776 29647040662453337   7               24022017000000000006000001008249                         0900000000000010000000000000000000000000000000000000000   0000000000000000000000000A9        170192964704     
0010001300028U 020000000000000000000000000000000000000000000000000000000000000000000000000000000000000000000000000000000000000000000000002202201700000000            000000000000000                              000                           
0010001300029T 020180230000002544776 29647040674424105   7               24022017000000000006000001033316                         0900000000000010000000000000000000000000000000000000000   0000000000000000000000000A9        170192964704     
0010001300030U 020000000000000000000000000000000000000000000000000000000000000000000000000000000000000000000000000000000000000000000000002202201700000000            000000000000000                              000                           
0010001300031T 020180230000002544776 29647040687640275   7               24022017000000000006000001005215                         0900000000000010000000000000000000000000000000000000000   0000000000000000000000000A9        170192964704     
0010001300032U 020000000000000000000000000000000000000000000000000000000000000000000000000000000000000000000000000000000000000000000000002202201700000000            000000000000000                              000                           
0010001300033T 020180230000002544776 29647040695707459   7               24022017000000000006000001000132                         0900000000000010000000000000000000000000000000000000000   0000000000000000000000000A9        170192964704     
0010001300034U 020000000000000000000000000000000000000000000000000000000000000000000000000000000000000000000000000000000000000000000000002202201700000000            000000000000000                              000                           
0010001300035T 020180230000002544776 29647040695747049   7               24022017000000000006000001000132                         0900000000000010000000000000000000000000000000000000000   0000000000000000000000000A9        170192964704     
0010001300036U 020000000000000000000000000000000000000000000000000000000000000000000000000000000000000000000000000000000000000000000000002202201700000000            000000000000000                              000                           
0010001300037T 020180230000002544776 29647040701635224   7               24022017000000000006000001000132                         0900000000000010000000000000000000000000000000000000000   0000000000000000000000000A9        170192964704     
0010001300038U 020000000000000000000000000000000000000000000000000000000000000000000000000000000000000000000000000000000000000000000000002202201700000000            000000000000000                              000                           
0010001300039T 020180230000002544776 29647040705019067   7               24022017000000000008000001002143                         0900000000000010000000000000000000000000000000000000000   0000000000000000000000000A9        170192964704     
0010001300040U 020000000000000000000000000000000000000000000000000000000000000000000000000000000000000000000000000000000000000000000000002202201700000000            000000000000000                              000                           
0010001300041T 020180230000002544776 29647040707330965   7               24022017000000000006000001023655                         0900000000000010000000000000000000000000000000000000000   0000000000000000000000000A9        170192964704     
0010001300042U 020000000000000000000000000000000000000000000000000000000000000000000000000000000000000000000000000000000000000000000000002202201700000000            000000000000000                              000                           
0010001300043T 020180230000002544776 29647040712424140   7               24022017000000000006000001000132                         0900000000000010000000000000000000000000000000000000000   0000000000000000000000000A9        170192964704     
0010001300044U 020000000000000000000000000000000000000000000000000000000000000000000000000000000000000000000000000000000000000000000000002202201700000000            000000000000000                              000                           
0010001300045T 020180230000002544776 29647040712453022   7               24022017000000000006000001000132                         0900000000000010000000000000000000000000000000000000000   0000000000000000000000000A9        170192964704     
0010001300046U 020000000000000000000000000000000000000000000000000000000000000000000000000000000000000000000000000000000000000000000000002202201700000000            000000000000000                              000                           
0010001300047T 020180230000002544776 29647040734220121   7               24022017000000000006000001000132                         0900000000000010000000000000000000000000000000000000000   0000000000000000000000000A9        170192964704     
0010001300048U 020000000000000000000000000000000000000000000000000000000000000000000000000000000000000000000000000000000000000000000000002202201700000000            000000000000000                              000                           
0010001300049T 020180230000002544776 29647040735128842   7               24022017000000000006000001028029                         0900000000000010000000000000000000000000000000000000000   0000000000000000000000000A9        170192964704     
0010001300050U 020000000000000000000000000000000000000000000000000000000000000000000000000000000000000000000000000000000000000000000000002202201700000000            000000000000000                              000                           
0010001300051T 020180230000002544776 29647040735444285   7               24022017000000000006000001028029                         0900000000000010000000000000000000000000000000000000000   0000000000000000000000000A9        170192964704     
0010001300052U 020000000000000000000000000000000000000000000000000000000000000000000000000000000000000000000000000000000000000000000000002202201700000000            000000000000000                              000                           
0010001300053T 020180230000002544776 29647040741844255   7               24022017000000000006000001012467                         0900000000000010000000000000000000000000000000000000000   0000000000000000000000000A9        170192964704     
0010001300054U 020000000000000000000000000000000000000000000000000000000000000000000000000000000000000000000000000000000000000000000000002202201700000000            000000000000000                              000                           
0010001300055T 020180230000002544776 29647040756428110   7               24022017000000000006000001012467                         0900000000000010500000000000000000000000000000000000000   0000000000000000000000000A9A4      170192964704     
0010001300056U 020000000000000000000000000000000000000000000000000000000000000000000000000000000000000000000000000000000000000000000000002202201700000000            000000000000000                              000                           
0010001300057T 020180230000002544776 29647040771019012   7               24022017000000000006000001035033                         0900000000000010000000000000000000000000000000000000000   0000000000000000000000000A9        170192964704     
0010001300058U 020000000000000000000000000000000000000000000000000000000000000000000000000000000000000000000000000000000000000000000000002202201700000000            000000000000000                              000                           
0010001300059T 020180230000002544776 29647040780917409   7               24022017000000000006000001023655                         0900000000000010000000000000000000000000000000000000000   0000000000000000000000000A9        170192964704     
0010001300060U 020000000000000000000000000000000000000000000000000000000000000000000000000000000000000000000000000000000000000000000000002202201700000000            000000000000000                              000                           
0010001300061T 020180230000002544776 29647040795453674   7               24022017000000000006000001012467                         0900000000000010000000000000000000000000000000000000000   0000000000000000000000000A9        170192964704     
0010001300062U 020000000000000000000000000000000000000000000000000000000000000000000000000000000000000000000000000000000000000000000000002202201700000000            000000000000000                              000                           
0010001300063T 020180230000002544776 29647040795454184   7               24022017000000000006000001012467                         0900000000000010000000000000000000000000000000000000000   0000000000000000000000000A9        170192964704     
0010001300064U 020000000000000000000000000000000000000000000000000000000000000000000000000000000000000000000000000000000000000000000000002202201700000000            000000000000000                              000                           
0010001300065T 020180230000002544776 29647040803714608   7               23022017000000000008000001016179                         0900000000000010000000000000000000000000000000000000000   0000000000000000000000000A9        170192964704     
0010001300066U 020000000000000000000000000000000000000000000000000000000000000000000000000000000000000000000000000000000000000000000000002102201700000000            000000000000000                              000                           
0010001300067T 020180230000002544776 29647040808924414   7               24022017000000000006000001000361                         0900000000000010000000000000000000000000000000000000000   0000000000000000000000000A9        170192964704     
0010001300068U 020000000000000000000000000000000000000000000000000000000000000000000000000000000000000000000000000000000000000000000000002202201700000000            000000000000000                              000                           
0010001300069T 020180230000002544776 29647040814032912   7               24022017000000000006000001000132                         0900000000000010000000000000000000000000000000000000000   0000000000000000000000000A9        170192964704     
0010001300070U 020000000000000000000000000000000000000000000000000000000000000000000000000000000000000000000000000000000000000000000000002202201700000000            000000000000000                              000                           
0010001300071T 020180230000002544776 29647040814919774   7               24022017000000000006000001012467                         0900000000000010500000000000000000000000000000000000000   0000000000000000000000000A9A4      170192964704     
0010001300072U 020000000000000000000000000000000000000000000000000000000000000000000000000000000000000000000000000000000000000000000000002202201700000000            000000000000000                              000                           
0010001300073T 020180230000002544776 29647040816921736   7               24022017000000000008000001006343                         0900000000000010000000000000000000000000000000000000000   0000000000000000000000000A9        170192964704     
0010001300074U 020000000000000000000000000000000000000000000000000000000000000000000000000000000000000000000000000000000000000000000000002202201700000000            000000000000000                              000                           
0010001300075T 020180230000002544776 29647040822243988   7               24022017000000000006000001000132                         0900000000000010000000000000000000000000000000000000000   0000000000000000000000000A9        170192964704     
0010001300076U 020000000000000000000000000000000000000000000000000000000000000000000000000000000000000000000000000000000000000000000000002202201700000000            000000000000000                              000                           
0010001300077T 020180230000002544776 29647040823030385   7               24022017000000000006000001000132                         0900000000000010000000000000000000000000000000000000000   0000000000000000000000000A9        170192964704     
0010001300078U 020000000000000000000000000000000000000000000000000000000000000000000000000000000000000000000000000000000000000000000000002202201700000000            000000000000000                              000                           
0010001300079T 020180230000002544776 29647040824533156   7               24022017000000000008000001025208                         0900000000000010000000000000000000000000000000000000000   0000000000000000000000000A9        170192964704     
0010001300080U 020000000000000000000000000000000000000000000000000000000000000000000000000000000000000000000000000000000000000000000000002202201700000000            000000000000000                              000                           
0010001300081T 020180230000002544776 29647040826729016   7               24022017000000000006000001016179                         0900000000000010000000000000000000000000000000000000000   0000000000000000000000000A9        170192964704     
0010001300082U 020000000000000000000000000000000000000000000000000000000000000000000000000000000000000000000000000000000000000000000000002202201700000000            000000000000000                              000                           
0010001300083T 020180230000002544776 29647040828305874   7               24022017000000000006000001012467                         0900000000000010000000000000000000000000000000000000000   0000000000000000000000000A9        170192964704     
0010001300084U 020000000000000000000000000000000000000000000000000000000000000000000000000000000000000000000000000000000000000000000000002202201700000000            000000000000000                              000                           
0010001300085T 020180230000002544776 29647040828318260   7               24022017000000000006000001012467                         0900000000000010000000000000000000000000000000000000000   0000000000000000000000000A9        170192964704     
0010001300086U 020000000000000000000000000000000000000000000000000000000000000000000000000000000000000000000000000000000000000000000000002202201700000000            000000000000000                              000                           
0010001300087T 020180230000002544776 29647040831859404   7               24022017000000000006000001028029                         0900000000000010000000000000000000000000000000000000000   0000000000000000000000000A9        170192964704     
0010001300088U 020000000000000000000000000000000000000000000000000000000000000000000000000000000000000000000000000000000000000000000000002202201700000000            000000000000000                              000                           
0010001300089T 020180230000002544776 29647040833012964   7               24022017000000000008000001032859                         0900000000000010000000000000000000000000000000000000000   0000000000000000000000000A9        170192964704     
0010001300090U 020000000000000000000000000000000000000000000000000000000000000000000000000000000000000000000000000000000000000000000000002202201700000000            000000000000000                              000                           
0010001300091T 020180230000002544776 29647040833044473   7               24022017000000000008000001032859                         0900000000000010000000000000000000000000000000000000000   0000000000000000000000000A9        170192964704     
0010001300092U 020000000000000000000000000000000000000000000000000000000000000000000000000000000000000000000000000000000000000000000000002202201700000000            000000000000000                              000                           
0010001300093T 020180230000002544776 29647040850401818   7               24022017000000000006000001001597                         0900000000000010000000000000000000000000000000000000000   0000000000000000000000000A9        170192964704     
0010001300094U 020000000000000000000000000000000000000000000000000000000000000000000000000000000000000000000000000000000000000000000000002202201700000000            000000000000000                              000                           
0010001300095T 020180230000002544776 29647040850600750   7               24022017000000000006000001012467                         0900000000000010000000000000000000000000000000000000000   0000000000000000000000000A9        170192964704     
0010001300096U 020000000000000000000000000000000000000000000000000000000000000000000000000000000000000000000000000000000000000000000000002202201700000000            000000000000000                              000                           
0010001300097T 020180230000002544776 29647040850638359   7               24022017000000000006000001012467                         0900000000000010000000000000000000000000000000000000000   0000000000000000000000000A9        170192964704     
0010001300098U 020000000000000000000000000000000000000000000000000000000000000000000000000000000000000000000000000000000000000000000000002202201700000000            000000000000000                              000                           
0010001300099T 020180230000002544776 29647040861824760   7               23022017000000000006000001008214                         0900000000000010000000000000000000000000000000000000000   0000000000000000000000000A9        170192964704     
0010001300100U 020000000000000000000000000000000000000000000000000000000000000000000000000000000000000000000000000000000000000000000000002102201700000000            000000000000000                              000                           
0010001300101T 020180230000002544776 29647040863516716   7               23022017000000000006000001018376                         0900000000000010000000000000000000000000000000000000000   0000000000000000000000000A9        170192964704     
0010001300102U 020000000000000000000000000000000000000000000000000000000000000000000000000000000000000000000000000000000000000000000000002102201700000000            000000000000000                              000                           
0010001300103T 020180230000002544776 29647040863748263   7               23022017000000000006000001023655                         0900000000000010000000000000000000000000000000000000000   0000000000000000000000000A9        170192964704     
0010001300104U 020000000000000000000000000000000000000000000000000000000000000000000000000000000000000000000000000000000000000000000000002102201700000000            000000000000000                              000                           
0010001300105T 020180230000002544776 29647040863912048   7               23022017000000000006000001016179                         0900000000000010000000000000000000000000000000000000000   0000000000000000000000000A9        170192964704     
0010001300106U 020000000000000000000000000000000000000000000000000000000000000000000000000000000000000000000000000000000000000000000000002102201700000000            000000000000000                              000                           
0010001300107T 020180230000002544776 29647040864301534   7               24022017000000000006000001009636                         0900000000000010000000000000000000000000000000000000000   0000000000000000000000000A9        170192964704     
0010001300108U 020000000000000000000000000000000000000000000000000000000000000000000000000000000000000000000000000000000000000000000000002202201700000000            000000000000000                              000                           
0010001300109T 020180230000002544776 29647040864349536   7               24022017000000000006000001009636                         0900000000000010000000000000000000000000000000000000000   0000000000000000000000000A9        170192964704     
0010001300110U 020000000000000000000000000000000000000000000000000000000000000000000000000000000000000000000000000000000000000000000000002202201700000000            000000000000000                              000                           
0010001300111T 020180230000002544776 29647040864501098   7               24022017000000000006000001000132                         0900000000000010000000000000000000000000000000000000000   0000000000000000000000000A9        170192964704     
0010001300112U 020000000000000000000000000000000000000000000000000000000000000000000000000000000000000000000000000000000000000000000000002202201700000000            000000000000000                              000                           
0010001300113T 020180230000002544776 29647040864745821   7               24022017000000000006000001016179                         0900000000000010000000000000000000000000000000000000000   0000000000000000000000000A9        170192964704     
0010001300114U 020000000000000000000000000000000000000000000000000000000000000000000000000000000000000000000000000000000000000000000000002202201700000000            000000000000000                              000                           
0010001300115T 020180230000002544776 29647040865307798   7               24022017000000000006000001008214                         0900000000000010000000000000000000000000000000000000000   0000000000000000000000000A9        170192964704     
0010001300116U 020000000000000000000000000000000000000000000000000000000000000000000000000000000000000000000000000000000000000000000000002202201700000000            000000000000000                              000                           
0010001300117T 020180230000002544776 29647040865608622   7               24022017000000000006000001000132                         0900000000000010000000000000000000000000000000000000000   0000000000000000000000000A9        170192964704     
0010001300118U 020000000000000000000000000000000000000000000000000000000000000000000000000000000000000000000000000000000000000000000000002202201700000000            000000000000000                              000                           
0010001300119T 020180230000002544776 29647040865618227   7               24022017000000000006000001000132                         0900000000000010000000000000000000000000000000000000000   0000000000000000000000000A9        170192964704     
0010001300120U 020000000000000000000000000000000000000000000000000000000000000000000000000000000000000000000000000000000000000000000000002202201700000000            000000000000000                              000                           
0010001300121T 020180230000002544776 29647040865653238   7               24022017000000000006000001000132                         0900000000000010000000000000000000000000000000000000000   0000000000000000000000000A9        170192964704     
0010001300122U 020000000000000000000000000000000000000000000000000000000000000000000000000000000000000000000000000000000000000000000000002202201700000000            000000000000000                              000                           
0010001300123T 020180230000002544776 29647040865706527   7               24022017000000000006000001000698                         0900000000000010500000000000000000000000000000000000000   0000000000000000000000000A9A4      170192964704     
0010001300124U 020000000000000000000000000000000000000000000000000000000000000000000000000000000000000000000000000000000000000000000000002202201700000000            000000000000000                              000                           
0010001300125T 020180230000002544776 29647040865711274   7               24022017000000000006000001000698                         0900000000000010500000000000000000000000000000000000000   0000000000000000000000000A9A4      170192964704     
0010001300126U 020000000000000000000000000000000000000000000000000000000000000000000000000000000000000000000000000000000000000000000000002202201700000000            000000000000000                              000                           
0010001300127T 020180230000002544776 29647040865715644   7               24022017000000000006000001000698                         0900000000000010500000000000000000000000000000000000000   0000000000000000000000000A9A4      170192964704     
0010001300128U 020000000000000000000000000000000000000000000000000000000000000000000000000000000000000000000000000000000000000000000000002202201700000000            000000000000000                              000                           
0010001300129T 020180230000002544776 29647040865717883   7               24022017000000000006000001000698                         0900000000000010500000000000000000000000000000000000000   0000000000000000000000000A9A4      170192964704     
0010001300130U 020000000000000000000000000000000000000000000000000000000000000000000000000000000000000000000000000000000000000000000000002202201700000000            000000000000000                              000                           
0010001300131T 020180230000002544776 29647040865724084   7               24022017000000000006000001000698                         0900000000000010500000000000000000000000000000000000000   0000000000000000000000000A9A4      170192964704     
0010001300132U 020000000000000000000000000000000000000000000000000000000000000000000000000000000000000000000000000000000000000000000000002202201700000000            000000000000000                              000                           
0010001300133T 020180230000002544776 29647040865724364   7               24022017000000000006000001000698                         0900000000000010500000000000000000000000000000000000000   0000000000000000000000000A9A4      170192964704     
0010001300134U 020000000000000000000000000000000000000000000000000000000000000000000000000000000000000000000000000000000000000000000000002202201700000000            000000000000000                              000                           
0010001300135T 020180230000002544776 29647040865740684   7               24022017000000000006000001000698                         0900000000000010500000000000000000000000000000000000000   0000000000000000000000000A9A4      170192964704     
0010001300136U 020000000000000000000000000000000000000000000000000000000000000000000000000000000000000000000000000000000000000000000000002202201700000000            000000000000000                              000                           
0010001300137T 020180230000002544776 29647040865744522   7               24022017000000000006000001000698                         0900000000000010500000000000000000000000000000000000000   0000000000000000000000000A9A4      170192964704     
0010001300138U 020000000000000000000000000000000000000000000000000000000000000000000000000000000000000000000000000000000000000000000000002202201700000000            000000000000000                              000                           
0010001300139T 020180230000002544776 29647040865752527   7               24022017000000000006000001000698                         0900000000000010500000000000000000000000000000000000000   0000000000000000000000000A9A4      170192964704     
0010001300140U 020000000000000000000000000000000000000000000000000000000000000000000000000000000000000000000000000000000000000000000000002202201700000000            000000000000000                              000                           
0010001300141T 020180230000002544776 29647040865801101   7               24022017000000000006000001028495                         0900000000000010000000000000000000000000000000000000000   0000000000000000000000000A9        170192964704     
0010001300142U 020000000000000000000000000000000000000000000000000000000000000000000000000000000000000000000000000000000000000000000000002202201700000000            000000000000000                              000                           
0010001300143T 020180230000002544776 29647040865925507   7               24022017000000000008000001016179                         0900000000000010000000000000000000000000000000000000000   0000000000000000000000000A9        170192964704     
0010001300144U 020000000000000000000000000000000000000000000000000000000000000000000000000000000000000000000000000000000000000000000000002202201700000000            000000000000000                              000                           
0010001300145T 020180230000002544776 29647040866026497   7               24022017000000000006000001016667                         0900000000000010000000000000000000000000000000000000000   0000000000000000000000000A9        170192964704     
0010001300146U 020000000000000000000000000000000000000000000000000000000000000000000000000000000000000000000000000000000000000000000000002202201700000000            000000000000000                              000                           
0010001300147T 020180230000002544776 29647040866520638   7               24022017000000000006000001028029                         0900000000000010500000000000000000000000000000000000000   0000000000000000000000000A9A4      170192964704     
0010001300148U 020000000000000000000000000000000000000000000000000000000000000000000000000000000000000000000000000000000000000000000000002202201700000000            000000000000000                              000                           
0010001300149T 020180230000002544776 29647040866716827   7               2402201700000000000800000100880X                         0900000000000010000000000000000000000000000000000000000   0000000000000000000000000A9        170192964704     
0010001300150U 020000000000000000000000000000000000000000000000000000000000000000000000000000000000000000000000000000000000000000000000002202201700000000            000000000000000                              000                           
0010001300151T 020180230000002544776 29647040867012633   7               24022017000000000006000001028029                         0900000000000010000000000000000000000000000000000000000   0000000000000000000000000A9        170192964704     
0010001300152U 020000000000000000000000000000000000000000000000000000000000000000000000000000000000000000000000000000000000000000000000002202201700000000            000000000000000                              000                           
0010001300153T 020180230000002544776 29647040867020043   7               24022017000000000006000001028029                         0900000000000010000000000000000000000000000000000000000   0000000000000000000000000A9        170192964704     
0010001300154U 020000000000000000000000000000000000000000000000000000000000000000000000000000000000000000000000000000000000000000000000002202201700000000            000000000000000                              000                           
0010001300155T 020180230000002544776 29647040867046877   7               24022017000000000006000001028029                         0900000000000010000000000000000000000000000000000000000   0000000000000000000000000A9        170192964704     
0010001300156U 020000000000000000000000000000000000000000000000000000000000000000000000000000000000000000000000000000000000000000000000002202201700000000            000000000000000                              000                           
0010001300157T 020180230000002544776 29647040867059083   7               24022017000000000006000001028029                         0900000000000010000000000000000000000000000000000000000   0000000000000000000000000A9        170192964704     
0010001300158U 020000000000000000000000000000000000000000000000000000000000000000000000000000000000000000000000000000000000000000000000002202201700000000            000000000000000                              000                           
0010001300159T 020180230000002544776 29647040867204588   7               24022017000000000006000001000132                         0900000000000010000000000000000000000000000000000000000   0000000000000000000000000A9        170192964704     
0010001300160U 020000000000000000000000000000000000000000000000000000000000000000000000000000000000000000000000000000000000000000000000002202201700000000            000000000000000                              000                           
0010001300161T 020180230000002544776 29647040867317979   7               24022017000000000006000001028029                         0900000000000010000000000000000000000000000000000000000   0000000000000000000000000A9        170192964704     
0010001300162U 020000000000000000000000000000000000000000000000000000000000000000000000000000000000000000000000000000000000000000000000002202201700000000            000000000000000                              000                           
0010001300163T 020180230000002544776 29647040868454994   7               24022017000000000006000001000132                         0900000000000010000000000000000000000000000000000000000   0000000000000000000000000A9        170192964704     
0010001300164U 020000000000000000000000000000000000000000000000000000000000000000000000000000000000000000000000000000000000000000000000002202201700000000            000000000000000                              000                           
0010001300165T 020180230000002544776 29647040868600107   7               24022017000000000006000001012467                         0900000000000010000000000000000000000000000000000000000   0000000000000000000000000A9        170192964704     
0010001300166U 020000000000000000000000000000000000000000000000000000000000000000000000000000000000000000000000000000000000000000000000002202201700000000            000000000000000                              000                           
0010001300167T 020180230000002544776 29647040868650431   7               24022017000000000006000001012467                         0900000000000010000000000000000000000000000000000000000   0000000000000000000000000A9        170192964704     
0010001300168U 020000000000000000000000000000000000000000000000000000000000000000000000000000000000000000000000000000000000000000000000002202201700000000            000000000000000                              000                           
0010001300169T 020180230000002544776 29647040868654507   7               24022017000000000006000001012467                         0900000000000010000000000000000000000000000000000000000   0000000000000000000000000A9        170192964704     
0010001300170U 020000000000000000000000000000000000000000000000000000000000000000000000000000000000000000000000000000000000000000000000002202201700000000            000000000000000                              000                           
0010001300171T 020180230000002544776 29647040868754136   7               24022017000000000006000001028029                         0900000000000010500000000000000000000000000000000000000   0000000000000000000000000A9A4      170192964704     
0010001300172U 020000000000000000000000000000000000000000000000000000000000000000000000000000000000000000000000000000000000000000000000002202201700000000            000000000000000                              000                           
0010001300173T 020180230000002544776 29647040868929161   7               24022017000000000006000001016179                         0900000000000010000000000000000000000000000000000000000   0000000000000000000000000A9        170192964704     
0010001300174U 020000000000000000000000000000000000000000000000000000000000000000000000000000000000000000000000000000000000000000000000002202201700000000            000000000000000                              000                           
0010001300175T 020180230000002544776 29647040868939480   7               24022017000000000006000001016179                         0900000000000010000000000000000000000000000000000000000   0000000000000000000000000A9        170192964704     
0010001300176U 020000000000000000000000000000000000000000000000000000000000000000000000000000000000000000000000000000000000000000000000002202201700000000            000000000000000                              000                           
0010001300177T 020180230000002544776 29647040869252599   7               24022017000000000006000001034770                         0900000000000010000000000000000000000000000000000000000   0000000000000000000000000A9        170192964704     
0010001300178U 020000000000000000000000000000000000000000000000000000000000000000000000000000000000000000000000000000000000000000000000002202201700000000            000000000000000                              000                           
0010001300179T 020180230000002544776 29647040869548522   7               24022017000000000008000001028029                         0900000000000010500000000000000000000000000000000000000   0000000000000000000000000A9A4      170192964704     
0010001300180U 020000000000000000000000000000000000000000000000000000000000000000000000000000000000000000000000000000000000000000000000002202201700000000            000000000000000                              000                           
0010001300181T 020180230000002544776 29647040869843183   7               24022017000000000006000001028029                         0900000000000010000000000000000000000000000000000000000   0000000000000000000000000A9        170192964704     
0010001300182U 020000000000000000000000000000000000000000000000000000000000000000000000000000000000000000000000000000000000000000000000002202201700000000            000000000000000                              000                           
0010001300183T 020180230000002544776 29647040869940561   7               24022017000000000006000001012688                         0900000000000010000000000000000000000000000000000000000   0000000000000000000000000A9        170192964704     
0010001300184U 020000000000000000000000000000000000000000000000000000000000000000000000000000000000000000000000000000000000000000000000002202201700000000            000000000000000                              000                           
0010001300185T 020180230000002544776 29647040870115752   7               24022017000000000006000001007218                         0900000000000010000000000000000000000000000000000000000   0000000000000000000000000A9        170192964704     
0010001300186U 020000000000000000000000000000000000000000000000000000000000000000000000000000000000000000000000000000000000000000000000002202201700000000            000000000000000                              000                           
0010001300187T 020180230000002544776 29647040870452380   7               24022017000000000006000001008214                         0900000000000010000000000000000000000000000000000000000   0000000000000000000000000A9        170192964704     
0010001300188U 020000000000000000000000000000000000000000000000000000000000000000000000000000000000000000000000000000000000000000000000002202201700000000            000000000000000                              000                           
0010001300189T 020180230000002544776 29647040870519054   7               24022017000000000006000001000132                         0900000000000010000000000000000000000000000000000000000   0000000000000000000000000A9        170192964704     
0010001300190U 020000000000000000000000000000000000000000000000000000000000000000000000000000000000000000000000000000000000000000000000002202201700000000            000000000000000                              000                           
0010001300191T 020180230000002544776 29647040870703983   7               24022017000000000006000001005428                         0900000000000010500000000000000000000000000000000000000   0000000000000000000000000A9A4      170192964704     
0010001300192U 020000000000000000000000000000000000000000000000000000000000000000000000000000000000000000000000000000000000000000000000002202201700000000            000000000000000                              000                           
0010001300193T 020180230000002544776 29647040870925775   7               2402201700000000000600000101138X                         0900000000000010000000000000000000000000000000000000000   0000000000000000000000000A9        170192964704     
0010001300194U 020000000000000000000000000000000000000000000000000000000000000000000000000000000000000000000000000000000000000000000000002202201700000000            000000000000000                              000                           
0010001300195T 020180230000002544776 29647040870926376   7               2402201700000000000600000101138X                         0900000000000010000000000000000000000000000000000000000   0000000000000000000000000A9        170192964704     
0010001300196U 020000000000000000000000000000000000000000000000000000000000000000000000000000000000000000000000000000000000000000000000002202201700000000            000000000000000                              000                           
0010001300197T 020180230000002544776 29647040871020074   7               2402201700000000000600000101981X                         0900000000000010000000000000000000000000000000000000000   0000000000000000000000000A9        170192964704     
0010001300198U 020000000000000000000000000000000000000000000000000000000000000000000000000000000000000000000000000000000000000000000000002202201700000000            000000000000000                              000                           
0010001300199T 020180230000002544776 29647040871311321   7               24022017000000000006000001018376                         0900000000000010000000000000000000000000000000000000000   0000000000000000000000000A9        170192964704     
0010001300200U 020000000000000000000000000000000000000000000000000000000000000000000000000000000000000000000000000000000000000000000000002202201700000000            000000000000000                              000                           
0010001300201T 020180230000002544776 29647040871512487   7               24022017000000000006000001000132                         0900000000000010000000000000000000000000000000000000000   0000000000000000000000000A9        170192964704     
0010001300202U 020000000000000000000000000000000000000000000000000000000000000000000000000000000000000000000000000000000000000000000000002202201700000000            000000000000000                              000                           
0010001300203T 020180230000002544776 29647040871708887   7               24022017000000000006000001028029                         0900000000000010000000000000000000000000000000000000000   0000000000000000000000000A9        170192964704     
0010001300204U 020000000000000000000000000000000000000000000000000000000000000000000000000000000000000000000000000000000000000000000000002202201700000000            000000000000000                              000                           
0010001300205T 020180230000002544776 29647040872237211   7               24022017000000000008000001016179                         0900000000000010000000000000000000000000000000000000000   0000000000000000000000000A9        170192964704     
0010001300206U 020000000000000000000000000000000000000000000000000000000000000000000000000000000000000000000000000000000000000000000000002202201700000000            000000000000000                              000                           
0010001300207T 020180230000002544776 29647040872848218   7               24022017000000000006000001016179                         0900000000000010000000000000000000000000000000000000000   0000000000000000000000000A9        170192964704     
0010001300208U 020000000000000000000000000000000000000000000000000000000000000000000000000000000000000000000000000000000000000000000000002202201700000000            000000000000000                              000                           
0010001300209T 020180230000002544776 29647040873052204   7               24022017000000000006000001010669                         0900000000000010000000000000000000000000000000000000000   0000000000000000000000000A9        170192964704     
0010001300210U 020000000000000000000000000000000000000000000000000000000000000000000000000000000000000000000000000000000000000000000000002202201700000000            000000000000000                              000                           
0010001300211T 020180230000002544776 29647040873529875   7               24022017000000000006000001028029                         0900000000000010000000000000000000000000000000000000000   0000000000000000000000000A9        170192964704     
0010001300212U 020000000000000000000000000000000000000000000000000000000000000000000000000000000000000000000000000000000000000000000000002202201700000000            000000000000000                              000                           
0010001300213T 020180230000002544776 29647040873816691   7               24022017000000000006000001028029                         0900000000000010000000000000000000000000000000000000000   0000000000000000000000000A9        170192964704     
0010001300214U 020000000000000000000000000000000000000000000000000000000000000000000000000000000000000000000000000000000000000000000000002202201700000000            000000000000000                              000                           
0010001300215T 020180230000002544776 29647040873959489   7               24022017000000000006000001028029                         0900000000000010000000000000000000000000000000000000000   0000000000000000000000000A9        170192964704     
0010001300216U 020000000000000000000000000000000000000000000000000000000000000000000000000000000000000000000000000000000000000000000000002202201700000000            000000000000000                              000                           
0010001300217T 020180230000002544776 29647040874025759   7               24022017000000000006000001000132                         0900000000000010000000000000000000000000000000000000000   0000000000000000000000000A9        170192964704     
0010001300218U 020000000000000000000000000000000000000000000000000000000000000000000000000000000000000000000000000000000000000000000000002202201700000000            000000000000000                              000                           
0010001300219T 020180230000002544776 29647040874626691   7               24022017000000000008000001016810                         0900000000000010000000000000000000000000000000000000000   0000000000000000000000000A9        170192964704     
0010001300220U 020000000000000000000000000000000000000000000000000000000000000000000000000000000000000000000000000000000000000000000000002202201700000000            000000000000000                              000                           
0010001300221T 020180230000002544776 29647040874706036   7               24022017000000000006000001016179                         0900000000000010000000000000000000000000000000000000000   0000000000000000000000000A9        170192964704     
0010001300222U 020000000000000000000000000000000000000000000000000000000000000000000000000000000000000000000000000000000000000000000000002202201700000000            000000000000000                              000                           
0010001300223T 020180230000002544776 29647040874900278   7               24022017000000000008000001012467                         0900000000000010000000000000000000000000000000000000000   0000000000000000000000000A9        170192964704     
0010001300224U 020000000000000000000000000000000000000000000000000000000000000000000000000000000000000000000000000000000000000000000000002202201700000000            000000000000000                              000                           
0010001300225T 020180230000002544776 29647040875103786   7               24022017000000000006000001012467                         0900000000000010000000000000000000000000000000000000000   0000000000000000000000000A9        170192964704     
0010001300226U 020000000000000000000000000000000000000000000000000000000000000000000000000000000000000000000000000000000000000000000000002202201700000000            000000000000000                              000                           
0010001300227T 020180230000002544776 29647040875124562   7               24022017000000000006000001012467                         0900000000000010000000000000000000000000000000000000000   0000000000000000000000000A9        170192964704     
0010001300228U 020000000000000000000000000000000000000000000000000000000000000000000000000000000000000000000000000000000000000000000000002202201700000000            000000000000000                              000                           
0010001300229T 020180230000002544776 29647040875144472   7               24022017000000000006000001012467                         0900000000000010000000000000000000000000000000000000000   0000000000000000000000000A9        170192964704     
0010001300230U 020000000000000000000000000000000000000000000000000000000000000000000000000000000000000000000000000000000000000000000000002202201700000000            000000000000000                              000                           
0010001300231T 020180230000002544776 29647040875318115   7               24022017000000000008000001028029                         0900000000000010000000000000000000000000000000000000000   0000000000000000000000000A9        170192964704     
0010001300232U 020000000000000000000000000000000000000000000000000000000000000000000000000000000000000000000000000000000000000000000000002202201700000000            000000000000000                              000                           
0010001300233T 020180230000002544776 29647040875537782   7               24022017000000000006000001033316                         0900000000000010000000000000000000000000000000000000000   0000000000000000000000000A9        170192964704     
0010001300234U 020000000000000000000000000000000000000000000000000000000000000000000000000000000000000000000000000000000000000000000000002202201700000000            000000000000000                              000                           
0010001300235T 020180230000002544776 29647040875539400   7               24022017000000000006000001033316                         0900000000000010000000000000000000000000000000000000000   0000000000000000000000000A9        170192964704     
0010001300236U 020000000000000000000000000000000000000000000000000000000000000000000000000000000000000000000000000000000000000000000000002202201700000000            000000000000000                              000                           
0010001300237T 020180230000002544776 29647040875700258   7               24022017000000000008000001028029                         0900000000000010000000000000000000000000000000000000000   0000000000000000000000000A9        170192964704     
0010001300238U 020000000000000000000000000000000000000000000000000000000000000000000000000000000000000000000000000000000000000000000000002202201700000000            000000000000000                              000                           
0010001300239T 020180230000002544776 29647040875901041   7               24022017000000000006000001016179                         0900000000000010000000000000000000000000000000000000000   0000000000000000000000000A9        170192964704     
0010001300240U 020000000000000000000000000000000000000000000000000000000000000000000000000000000000000000000000000000000000000000000000002202201700000000            000000000000000                              000                           
0010001300241T 020180230000002544776 29647040876206089   7               24022017000000000006000001033316                         0900000000000010000000000000000000000000000000000000000   0000000000000000000000000A9        170192964704     
0010001300242U 020000000000000000000000000000000000000000000000000000000000000000000000000000000000000000000000000000000000000000000000002202201700000000            000000000000000                              000                           
0010001300243T 020180230000002544776 29647040876451382   7               24022017000000000006000001000132                         0900000000000010000000000000000000000000000000000000000   0000000000000000000000000A9        170192964704     
0010001300244U 020000000000000000000000000000000000000000000000000000000000000000000000000000000000000000000000000000000000000000000000002202201700000000            000000000000000                              000                           
0010001300245T 020180230000002544776 29647040876457025   7               24022017000000000006000001000132                         0900000000000010000000000000000000000000000000000000000   0000000000000000000000000A9        170192964704     
0010001300246U 020000000000000000000000000000000000000000000000000000000000000000000000000000000000000000000000000000000000000000000000002202201700000000            000000000000000                              000                           
0010001300247T 020180230000002544776 29647040876610681   7               24022017000000000008000001009636                         0900000000000010000000000000000000000000000000000000000   0000000000000000000000000A9        170192964704     
0010001300248U 020000000000000000000000000000000000000000000000000000000000000000000000000000000000000000000000000000000000000000000000002202201700000000            000000000000000                              000                           
0010001300249T 020180230000002544776 29647040876615519   7               24022017000000000008000001009636                         0900000000000010000000000000000000000000000000000000000   0000000000000000000000000A9        170192964704     
0010001300250U 020000000000000000000000000000000000000000000000000000000000000000000000000000000000000000000000000000000000000000000000002202201700000000            000000000000000                              000                           
0010001300251T 020180230000002544776 29647040876936610   7               24022017000000000006000001028029                         0900000000000010000000000000000000000000000000000000000   0000000000000000000000000A9        170192964704     
0010001300252U 020000000000000000000000000000000000000000000000000000000000000000000000000000000000000000000000000000000000000000000000002202201700000000            000000000000000                              000                           
0010001300253T 020180230000002544776 29647040877000544   7               24022017000000000008000001016179                         0900000000000010000000000000000000000000000000000000000   0000000000000000000000000A9        170192964704     
0010001300254U 020000000000000000000000000000000000000000000000000000000000000000000000000000000000000000000000000000000000000000000000002202201700000000            000000000000000                              000                           
0010001300255T 020180230000002544776 29647040877252872   7               24022017000000000006000001000132                         0900000000000010000000000000000000000000000000000000000   0000000000000000000000000A9        170192964704     
0010001300256U 020000000000000000000000000000000000000000000000000000000000000000000000000000000000000000000000000000000000000000000000002202201700000000            000000000000000                              000                           
0010001300257T 020180230000002544776 29647040877309196   7               24022017000000000006000001000132                         0900000000000010000000000000000000000000000000000000000   0000000000000000000000000A9        170192964704     
0010001300258U 020000000000000000000000000000000000000000000000000000000000000000000000000000000000000000000000000000000000000000000000002202201700000000            000000000000000                              000                           
0010001300259T 020180230000002544776 29647040877416182   7               2402201700000000000600000101060X                         0900000000000010000000000000000000000000000000000000000   0000000000000000000000000A9        170192964704     
0010001300260U 020000000000000000000000000000000000000000000000000000000000000000000000000000000000000000000000000000000000000000000000002202201700000000            000000000000000                              000                           
0010001300261T 020180230000002544776 29647040877825712   7               24022017000000000006000001000132                         0900000000000010000000000000000000000000000000000000000   0000000000000000000000000A9        170192964704     
0010001300262U 020000000000000000000000000000000000000000000000000000000000000000000000000000000000000000000000000000000000000000000000002202201700000000            000000000000000                              000                           
0010001300263T 020180230000002544776 29647040877853024   7               24022017000000000006000001000132                         0900000000000010000000000000000000000000000000000000000   0000000000000000000000000A9        170192964704     
0010001300264U 020000000000000000000000000000000000000000000000000000000000000000000000000000000000000000000000000000000000000000000000002202201700000000            000000000000000                              000                           
0010001300265T 020180230000002544776 29647040878819385   7               2402201700000000000800000100099X                         0900000000000010000000000000000000000000000000000000000   0000000000000000000000000A9        170192964704     
0010001300266U 020000000000000000000000000000000000000000000000000000000000000000000000000000000000000000000000000000000000000000000000002202201700000000            000000000000000                              000                           
0010001300267T 020180230000002544776 29647040879037625   7               24022017000000000008000001033316                         0900000000000010000000000000000000000000000000000000000   0000000000000000000000000A9        170192964704     
0010001300268U 020000000000000000000000000000000000000000000000000000000000000000000000000000000000000000000000000000000000000000000000002202201700000000            000000000000000                              000                           
0010001300269T 020180230000002544776 29647040879204871   7               24022017000000000008000001016179                         0900000000000010500000000000000000000000000000000000000   0000000000000000000000000A9A4      170192964704     
0010001300270U 020000000000000000000000000000000000000000000000000000000000000000000000000000000000000000000000000000000000000000000000002202201700000000            000000000000000                              000                           
0010001300271T 020180230000002544776 29647040879242145   7               24022017000000000008000001016179                         0900000000000010500000000000000000000000000000000000000   0000000000000000000000000A9A4      170192964704     
0010001300272U 020000000000000000000000000000000000000000000000000000000000000000000000000000000000000000000000000000000000000000000000002202201700000000            000000000000000                              000                           
0010001300273T 020180230000002544776 29647040879559002   7               24022017000000000008000001016179                         0900000000000010500000000000000000000000000000000000000   0000000000000000000000000A9A4      170192964704     
0010001300274U 020000000000000000000000000000000000000000000000000000000000000000000000000000000000000000000000000000000000000000000000002202201700000000            000000000000000                              000                           
0010001300275T 020180230000002544776 29647040879639608   7               24022017000000000006000001001201                         0900000000000010000000000000000000000000000000000000000   0000000000000000000000000A9        170192964704     
0010001300276U 020000000000000000000000000000000000000000000000000000000000000000000000000000000000000000000000000000000000000000000000002202201700000000            000000000000000                              000                           
0010001300277T 020180230000002544776 29647040879946720   7               24022017000000000006000001006211                         0900000000000010000000000000000000000000000000000000000   0000000000000000000000000A9        170192964704     
0010001300278U 020000000000000000000000000000000000000000000000000000000000000000000000000000000000000000000000000000000000000000000000002202201700000000            000000000000000                              000                           
0010001300279T 020180230000002544776 29647040880215516   7               24022017000000000006000001008214                         0900000000000010000000000000000000000000000000000000000   0000000000000000000000000A9        170192964704     
0010001300280U 020000000000000000000000000000000000000000000000000000000000000000000000000000000000000000000000000000000000000000000000002202201700000000            000000000000000                              000                           
0010001300281T 020180230000002544776 29647040880322360   7               24022017000000000008000001033316                         0900000000000010000000000000000000000000000000000000000   0000000000000000000000000A9        170192964704     
0010001300282U 020000000000000000000000000000000000000000000000000000000000000000000000000000000000000000000000000000000000000000000000002202201700000000            000000000000000                              000                           
0010001300283T 020180230000002544776 29647040880347076   7               24022017000000000008000001033316                         0900000000000010000000000000000000000000000000000000000   0000000000000000000000000A9        170192964704     
0010001300284U 020000000000000000000000000000000000000000000000000000000000000000000000000000000000000000000000000000000000000000000000002202201700000000            000000000000000                              000                           
0010001300285T 020180230000002544776 29647040880611633   7               24022017000000000006000001008249                         0900000000000010000000000000000000000000000000000000000   0000000000000000000000000A9        170192964704     
0010001300286U 020000000000000000000000000000000000000000000000000000000000000000000000000000000000000000000000000000000000000000000000002202201700000000            000000000000000                              000                           
0010001300287T 020180230000002544776 29647040880654634   7               24022017000000000006000001008249                         0900000000000010000000000000000000000000000000000000000   0000000000000000000000000A9        170192964704     
0010001300288U 020000000000000000000000000000000000000000000000000000000000000000000000000000000000000000000000000000000000000000000000002202201700000000            000000000000000                              000                           
0010001300289T 020180230000002544776 29647040880734448   7               24022017000000000006000001001597                         0900000000000010000000000000000000000000000000000000000   0000000000000000000000000A9        170192964704     
0010001300290U 020000000000000000000000000000000000000000000000000000000000000000000000000000000000000000000000000000000000000000000000002202201700000000            000000000000000                              000                           
0010001300291T 020180230000002544776 29647040880902637   7               24022017000000000008000001033316                         0900000000000010000000000000000000000000000000000000000   0000000000000000000000000A9        170192964704     
0010001300292U 020000000000000000000000000000000000000000000000000000000000000000000000000000000000000000000000000000000000000000000000002202201700000000            000000000000000                              000                           
0010001300293T 020180230000002544776 29647040881225227   7               24022017000000000006000001001287                         0900000000000010000000000000000000000000000000000000000   0000000000000000000000000A9        170192964704     
0010001300294U 020000000000000000000000000000000000000000000000000000000000000000000000000000000000000000000000000000000000000000000000002202201700000000            000000000000000                              000                           
0010001300295T 020180230000002544776 29647040881740641   7               24022017000000000006000001012467                         0900000000000010000000000000000000000000000000000000000   0000000000000000000000000A9        170192964704     
0010001300296U 020000000000000000000000000000000000000000000000000000000000000000000000000000000000000000000000000000000000000000000000002202201700000000            000000000000000                              000                           
0010001300297T 020180230000002544776 29647040881745414   7               24022017000000000006000001012467                         0900000000000010000000000000000000000000000000000000000   0000000000000000000000000A9        170192964704     
0010001300298U 020000000000000000000000000000000000000000000000000000000000000000000000000000000000000000000000000000000000000000000000002202201700000000            000000000000000                              000                           
0010001300299T 020180230000002544776 29647040881936365   7               24022017000000000006000001000132                         0900000000000010000000000000000000000000000000000000000   0000000000000000000000000A9        170192964704     
0010001300300U 020000000000000000000000000000000000000000000000000000000000000000000000000000000000000000000000000000000000000000000000002202201700000000            000000000000000                              000                           
0010001300301T 020180230000002544776 29647040882215351   7               24022017000000000006000001012629                         0900000000000010000000000000000000000000000000000000000   0000000000000000000000000A9        170192964704     
0010001300302U 020000000000000000000000000000000000000000000000000000000000000000000000000000000000000000000000000000000000000000000000002202201700000000            000000000000000                              000                           
0010001300303T 020180230000002544776 29647040882320340   7               24022017000000000006000001012467                         0900000000000010000000000000000000000000000000000000000   0000000000000000000000000A9        170192964704     
0010001300304U 020000000000000000000000000000000000000000000000000000000000000000000000000000000000000000000000000000000000000000000000002202201700000000            000000000000000                              000                           
0010001300305T 020180230000002544776 29647040882341408   7               24022017000000000006000001012467                         0900000000000010000000000000000000000000000000000000000   0000000000000000000000000A9        170192964704     
0010001300306U 020000000000000000000000000000000000000000000000000000000000000000000000000000000000000000000000000000000000000000000000002202201700000000            000000000000000                              000                           
0010001300307T 020180230000002544776 29647040882544727   7               24022017000000000006000001003239                         0900000000000010000000000000000000000000000000000000000   0000000000000000000000000A9        170192964704     
0010001300308U 020000000000000000000000000000000000000000000000000000000000000000000000000000000000000000000000000000000000000000000000002202201700000000            000000000000000                              000                           
0010001300309T 020180230000002544776 29647040882752687   7               24022017000000000008000001002461                         0900000000000010000000000000000000000000000000000000000   0000000000000000000000000A9        170192964704     
0010001300310U 020000000000000000000000000000000000000000000000000000000000000000000000000000000000000000000000000000000000000000000000002202201700000000            000000000000000                              000                           
0010001300311T 020180230000002544776 29647040882804378   7               24022017000000000006000001012467                         0900000000000010000000000000000000000000000000000000000   0000000000000000000000000A9        170192964704     
0010001300312U 020000000000000000000000000000000000000000000000000000000000000000000000000000000000000000000000000000000000000000000000002202201700000000            000000000000000                              000                           
0010001300313T 020180230000002544776 29647040883446172   7               24022017000000000006000001016179                         0900000000000010000000000000000000000000000000000000000   0000000000000000000000000A9        170192964704     
0010001300314U 020000000000000000000000000000000000000000000000000000000000000000000000000000000000000000000000000000000000000000000000002202201700000000            000000000000000                              000                           
0010001300315T 020180230000002544776 29647040883633595   7               24022017000000000006000001028029                         0900000000000010000000000000000000000000000000000000000   0000000000000000000000000A9        170192964704     
0010001300316U 020000000000000000000000000000000000000000000000000000000000000000000000000000000000000000000000000000000000000000000000002202201700000000            000000000000000                              000                           
0010001300317T 020180230000002544776 29647040883741611   7               24022017000000000006000001016179                         0900000000000010000000000000000000000000000000000000000   0000000000000000000000000A9        170192964704     
0010001300318U 020000000000000000000000000000000000000000000000000000000000000000000000000000000000000000000000000000000000000000000000002202201700000000            000000000000000                              000                           
0010001300319T 020180230000002544776 29647040883818995   7               24022017000000000006000001024430                         0900000000000010000000000000000000000000000000000000000   0000000000000000000000000A9        170192964704     
0010001300320U 020000000000000000000000000000000000000000000000000000000000000000000000000000000000000000000000000000000000000000000000002202201700000000            000000000000000                              000                           
0010001300321T 020180230000002544776 29647040883911532   7               24022017000000000006000001008214                         0900000000000010000000000000000000000000000000000000000   0000000000000000000000000A9        170192964704     
0010001300322U 020000000000000000000000000000000000000000000000000000000000000000000000000000000000000000000000000000000000000000000000002202201700000000            000000000000000                              000                           
0010001300323T 020180230000002544776 29647040884219636   7               24022017000000000006000001016179                         0900000000000010000000000000000000000000000000000000000   0000000000000000000000000A9        170192964704     
0010001300324U 020000000000000000000000000000000000000000000000000000000000000000000000000000000000000000000000000000000000000000000000002202201700000000            000000000000000                              000                           
0010001300325T 020180230000002544776 29647040884352206   7               24022017000000000008000001012467                         0900000000000010000000000000000000000000000000000000000   0000000000000000000000000A9        170192964704     
0010001300326U 020000000000000000000000000000000000000000000000000000000000000000000000000000000000000000000000000000000000000000000000002202201700000000            000000000000000                              000                           
0010001300327T 020180230000002544776 29647040884615462   7               24022017000000000008000001016179                         0900000000000010000000000000000000000000000000000000000   0000000000000000000000000A9        170192964704     
0010001300328U 020000000000000000000000000000000000000000000000000000000000000000000000000000000000000000000000000000000000000000000000002202201700000000            000000000000000                              000                           
0010001300329T 020180230000002544776 29647040884743935   7               24022017000000000006000001016179                         0900000000000010000000000000000000000000000000000000000   0000000000000000000000000A9        170192964704     
0010001300330U 020000000000000000000000000000000000000000000000000000000000000000000000000000000000000000000000000000000000000000000000002202201700000000            000000000000000                              000                           
0010001300331T 020180230000002544776 29647040884831575   7               24022017000000000006000001018376                         0900000000000010000000000000000000000000000000000000000   0000000000000000000000000A9        170192964704     
0010001300332U 020000000000000000000000000000000000000000000000000000000000000000000000000000000000000000000000000000000000000000000000002202201700000000            000000000000000                              000                           
0010001300333T 020180230000002544776 29647040884908271   7               24022017000000000006000001028029                         0900000000000010000000000000000000000000000000000000000   0000000000000000000000000A9        170192964704     
0010001300334U 020000000000000000000000000000000000000000000000000000000000000000000000000000000000000000000000000000000000000000000000002202201700000000            000000000000000                              000                           
0010001300335T 020180230000002544776 29647040884930849   7               24022017000000000006000001028029                         0900000000000010000000000000000000000000000000000000000   0000000000000000000000000A9        170192964704     
0010001300336U 020000000000000000000000000000000000000000000000000000000000000000000000000000000000000000000000000000000000000000000000002202201700000000            000000000000000                              000                           
0010001300337T 020180230000002544776 29647040884936449   7               24022017000000000006000001028029                         0900000000000010000000000000000000000000000000000000000   0000000000000000000000000A9        170192964704     
0010001300338U 020000000000000000000000000000000000000000000000000000000000000000000000000000000000000000000000000000000000000000000000002202201700000000            000000000000000                              000                           
0010001300339T 020180230000002544776 29647040885131373   7               24022017000000000006000001007145                         0900000000000010000000000000000000000000000000000000000   0000000000000000000000000A9        170192964704     
0010001300340U 020000000000000000000000000000000000000000000000000000000000000000000000000000000000000000000000000000000000000000000000002202201700000000            000000000000000                              000                           
0010001300341T 020180230000002544776 29647040885406162   7               24022017000000000008000001028029                         0900000000000010000000000000000000000000000000000000000   0000000000000000000000000A9        170192964704     
0010001300342U 020000000000000000000000000000000000000000000000000000000000000000000000000000000000000000000000000000000000000000000000002202201700000000            000000000000000                              000                           
0010001300343T 020180230000002544776 29647040885602076   7               24022017000000000006000001018376                         0900000000000010000000000000000000000000000000000000000   0000000000000000000000000A9        170192964704     
0010001300344U 020000000000000000000000000000000000000000000000000000000000000000000000000000000000000000000000000000000000000000000000002202201700000000            000000000000000                              000                           
0010001300345T 020180230000002544776 29647040885715564   7               24022017000000000008000001010324                         0900000000000010000000000000000000000000000000000000000   0000000000000000000000000A9        170192964704     
0010001300346U 020000000000000000000000000000000000000000000000000000000000000000000000000000000000000000000000000000000000000000000000002202201700000000            000000000000000                              000                           
0010001300347T 020180230000002544776 29647040885743160   7               24022017000000000008000001010324                         0900000000000010000000000000000000000000000000000000000   0000000000000000000000000A9        170192964704     
0010001300348U 020000000000000000000000000000000000000000000000000000000000000000000000000000000000000000000000000000000000000000000000002202201700000000            000000000000000                              000                           
0010001300349T 020180230000002544776 29647040886457708   7               24022017000000000006000001012467                         0900000000000010000000000000000000000000000000000000000   0000000000000000000000000A9        170192964704     
0010001300350U 020000000000000000000000000000000000000000000000000000000000000000000000000000000000000000000000000000000000000000000000002202201700000000            000000000000000                              000                           
0010001300351T 020180230000002544776 29647040886521097   7               24022017000000000006000001016179                         0900000000000010500000000000000000000000000000000000000   0000000000000000000000000A9A4      170192964704     
0010001300352U 020000000000000000000000000000000000000000000000000000000000000000000000000000000000000000000000000000000000000000000000002202201700000000            000000000000000                              000                           
0010001300353T 020180230000002544776 29647040886743826   7               24022017000000000006000001016179                         0900000000000010000000000000000000000000000000000000000   0000000000000000000000000A9        170192964704     
0010001300354U 020000000000000000000000000000000000000000000000000000000000000000000000000000000000000000000000000000000000000000000000002202201700000000            000000000000000                              000                           
0010001300355T 020180230000002544776 29647040886814551   7               24022017000000000006000001000132                         0900000000000010000000000000000000000000000000000000000   0000000000000000000000000A9        170192964704     
0010001300356U 020000000000000000000000000000000000000000000000000000000000000000000000000000000000000000000000000000000000000000000000002202201700000000            000000000000000                              000                           
0010001300357T 020180230000002544776 29647040887225199   7               24022017000000000008000001010421                         0900000000000010000000000000000000000000000000000000000   0000000000000000000000000A9        170192964704     
0010001300358U 020000000000000000000000000000000000000000000000000000000000000000000000000000000000000000000000000000000000000000000000002202201700000000            000000000000000                              000                           
0010001300359T 060180230000002544776 29647040576745059   7               24022017000000000006000104000560                         0900000000000010000000000000000000000000000000000000000   000000000000000000000029000        170192964704     
0010001300360U 060000000000000000000000000000000000000000000000000000000000000000000000060000000000000057100000000000000000000000000000002202201724022017            000000000000000                              000                           
0010001300361T 060180230000002544776 29647040617407643   7               23022017000000000006000104047380                         0900000000000010000000000000000000000000000000000000000   000000000000000000000029000        170192964704     
0010001300362U 060000000000000000000000000000000000000000000000000000000000000000000000060000000000000057100000000000000000000000000000002202201724022017            000000000000000                              000                           
0010001300363T 060180230000002544776 29647040629010621   7               23022017000000000006000004002790                         0900000000000010000000000000000000000000000000000000000   000000000000000000000029000        170192964704     
0010001300364U 060000000000000000000000000000000000000000000000000000000000000000000000060000000000000057100000000000000000000000000000002202201724022017            000000000000000                              000                           
0010001300365T 060180230000002544776 29647040665404592   7               22022017000000000006000104015850                         0900000000000010000000000000000000000000000000000000000   000000000000000000000029000        170192964704     
0010001300366U 060000000000000000000000000000000000000000000000000000000000000000000000060000000000000057100000000000000000000000000000002202201724022017            000000000000000                              000                           
0010001300367T 060180230000002544776 29647040695307594   7               22022017000000000006000001035254                         0900000000000010000000000000000000000000000000000000000   000000000000000000000029000        170192964704     
0010001300368U 060000000000000000000000000000000000000000000000000000000000000000000000060000000000000057100000000000000000000000000000002202201724022017            000000000000000                              000                           
0010001300369T 060180230000002544776 29647040707330965   7               24022017000000000006000104029280                         0900000000000010000000000000000000000000000000000000000   000000000000000000000029000        170192964704     
0010001300370U 060000000000000000000000000000000000000000000000000000000000000000000000060000000000000057100000000000000000000000000000002202201724022017            000000000000000                              000                           
0010001300371T 060180230000002544776 29647040714333754   7               22022017000000000008000237002890                         0900000000000010000000000000000000000000000000000000000   000000000000000000000029000        170192964704     
0010001300372U 060000000000000000000000000000000000000000000000000000000000000000000000080000000000000077100000000000000000000000000000002202201724022017            000000000000000                              000                           
0010001300373T 060180230000002544776 29647040715933151   7               22022017000000000006000104000360                         0900000000000010000000000000000000000000000000000000000   000000000000000000000029000        170192964704     
0010001300374U 060000000000000000000000000000000000000000000000000000000000000000000000060000000000000057100000000000000000000000000000002202201724022017            000000000000000                              000                           
0010001300375T 060180230000002544776 29647040734220121   7               24022017000000000006000001016004                         0900000000000010000000000000000000000000000000000000000   000000000000000000000029000        170192964704     
0010001300376U 060000000000000000000000000000000000000000000000000000000000000000000000060000000000000057100000000000000000000000000000002202201724022017            000000000000000                              000                           
0010001300377T 060180230000002544776 29647040803714608   7               23022017000000000008000001035017                         0900000000000010000000000000000000000000000000000000000   000000000000000000000029000        170192964704     
0010001300378U 060000000000000000000000000000000000000000000000000000000000000000000000080000000000000077100000000000000000000000000000002202201724022017            000000000000000                              000                           
0010001300379T 060180230000002544776 29647040804217327   7               22022017000000000006000001086339                         0900000000000010000000000000000000000000000000000000000   000000000000000000000029000        170192964704     
0010001300380U 060000000000000000000000000000000000000000000000000000000000000000000000060000000000000057100000000000000000000000000000002202201724022017            000000000000000                              000                           
0010001300381T 060180230000002544776 29647040806758346   7               22022017000000000006000033045380                         0900000000000010000000000000000000000000000000000000000   000000000000000000000029000        170192964704     
0010001300382U 060000000000000000000000000000000000000000000000000000000000000000000000060000000000000057100000000000000000000000000000002202201724022017            000000000000000                              000                           
0010001300383T 060180230000002544776 29647040811653004   7               23022017000000000006000033007730                         0900000000000010000000000000000000000000000000000000000   000000000000000000000029000        170192964704     
0010001300384U 060000000000000000000000000000000000000000000000000000000000000000000000060000000000000057100000000000000000000000000000002202201724022017            000000000000000                              000                           
0010001300385T 060180230000002544776 29647040813513754   7               22022017000000000006000104035450                         0900000000000010000000000000000000000000000000000000000   000000000000000000000029000        170192964704     
0010001300386U 060000000000000000000000000000000000000000000000000000000000000000000000060000000000000057100000000000000000000000000000002202201724022017            000000000000000                              000                           
0010001300387T 060180230000002544776 29647040814741300   7               22022017000000000006000104023460                         0900000000000010000000000000000000000000000000000000000   000000000000000000000029000        170192964704     
0010001300388U 060000000000000000000000000000000000000000000000000000000000000000000000060000000000000057100000000000000000000000000000002202201724022017            000000000000000                              000                           
0010001300389T 060180230000002544776 29647040815317825   7               22022017000000000006000104010100                         0900000000000010000000000000000000000000000000000000000   000000000000000000000029000        170192964704     
0010001300390U 060000000000000000000000000000000000000000000000000000000000000000000000060000000000000057100000000000000000000000000000002202201724022017            000000000000000                              000                           
0010001300391T 060180230000002544776 29647040816921736   7               24022017000000000008000001006343                         0900000000000010000000000000000000000000000000000000000   000000000000000000000029000        170192964704     
0010001300392U 060000000000000000000000000000000000000000000000000000000000000000000000080000000000000077100000000000000000000000000000002202201724022017            000000000000000                              000                           
0010001300393T 060180230000002544776 29647040817504050   7               22022017000000000006000001012343                         0900000000000010000000000000000000000000000000000000000   000000000000000000000029000        170192964704     
0010001300394U 060000000000000000000000000000000000000000000000000000000000000000000000060000000000000057100000000000000000000000000000002202201724022017            000000000000000                              000                           
0010001300395T 060180230000002544776 29647040822557040   7               22022017000000000006000001036137                         0900000000000010000000000000000000000000000000000000000   000000000000000000000029000        170192964704     
0010001300396U 060000000000000000000000000000000000000000000000000000000000000000000000060000000000000057100000000000000000000000000000002202201724022017            000000000000000                              000                           
0010001300397T 060180230000002544776 29647040823444679   7               22022017000000000006000001031836                         0900000000000010000000000000000000000000000000000000000   000000000000000000000029000        170192964704     
0010001300398U 060000000000000000000000000000000000000000000000000000000000000000000000060000000000000057100000000000000000000000000000002202201724022017            000000000000000                              000                           
0010001300399T 060180230000002544776 29647040823649849   7               22022017000000000008000104015800                         0900000000000010000000000000000000000000000000000000000   000000000000000000000029000        170192964704     
0010001300400U 060000000000000000000000000000000000000000000000000000000000000000000000080000000000000077100000000000000000000000000000002202201724022017            000000000000000                              000                           
0010001300401T 060180230000002544776 29647040824601203   7               22022017000000000006000104024040                         0900000000000010000000000000000000000000000000000000000   000000000000000000000029000        170192964704     
0010001300402U 060000000000000000000000000000000000000000000000000000000000000000000000060000000000000057100000000000000000000000000000002202201724022017            000000000000000                              000                           
0010001300403T 060180230000002544776 29647040825115317   7               23022017000000000008000001016004                         0900000000000010000000000000000000000000000000000000000   000000000000000000000029000        170192964704     
0010001300404U 060000000000000000000000000000000000000000000000000000000000000000000000080000000000000077100000000000000000000000000000002202201724022017            000000000000000                              000                           
0010001300405T 060180230000002544776 29647040825903669   7               22022017000000000006000104000550                         0900000000000010000000000000000000000000000000000000000   000000000000000000000029000        170192964704     
0010001300406U 060000000000000000000000000000000000000000000000000000000000000000000000060000000000000057100000000000000000000000000000002202201724022017            000000000000000                              000                           
0010001300407T 060180230000002544776 29647040826729016   7               24022017000000000006000104034870                         0900000000000010000000000000000000000000000000000000000   000000000000000000000029000        170192964704     
0010001300408U 060000000000000000000000000000000000000000000000000000000000000000000000060000000000000057100000000000000000000000000000002202201724022017            000000000000000                              000                           
0010001300409T 060180230000002544776 29647040828305874   7               24022017000000000006000237032240                         0900000000000010000000000000000000000000000000000000000   000000000000000000000029000        170192964704     
0010001300410U 060000000000000000000000000000000000000000000000000000000000000000000000060000000000000057100000000000000000000000000000002202201724022017            000000000000000                              000                           
0010001300411T 060180230000002544776 29647040828536344   7               22022017000000000006000001065382                         0900000000000010000000000000000000000000000000000000000   000000000000000000000029000        170192964704     
0010001300412U 060000000000000000000000000000000000000000000000000000000000000000000000060000000000000057100000000000000000000000000000002202201724022017            000000000000000                              000                           
