00100000         2247745860001000029647040014       0180230000002544776 INSTITUTO DE SELECAO E TECNOLOBANCO DO BRASIL                         20203201701092900004403000000515122941PROCESSAMEN                                                 
00100011T0100020 20247745860001000029647040014       0180230000002544776 INSTITUTO DE SELECAO E TECNOLO                                                                                000000000203201700000000  000000000                      
0010001300001T 020180230000002544776 29647040518838803   7               04032017000000000006000001000493                         0900000000000010000000000000000000000000000000000000000   0000000000000000000000000A9        170192964704     
0010001300002U 020000000000000000000000000000000000000000000000000000000000000000000000000000000000000000000000000000000000000000000000000203201700000000            000000000000000                              000                           
0010001300003T 020180230000002544776 29647040523838030   7               04032017000000000006000001028029                         0900000000000010500000000000000000000000000000000000000   0000000000000000000000000A9A4      170192964704     
0010001300004U 020000000000000000000000000000000000000000000000000000000000000000000000000000000000000000000000000000000000000000000000000203201700000000            000000000000000                              000                           
0010001300005T 020180230000002544776 29647040526708329   7               04032017000000000008000001018376                         0900000000000010000000000000000000000000000000000000000   0000000000000000000000000A9        170192964704     
0010001300006U 020000000000000000000000000000000000000000000000000000000000000000000000000000000000000000000000000000000000000000000000000203201700000000            000000000000000                              000                           
0010001300007T 020180230000002544776 29647040540156953   7               04032017000000000006000001020354                         0900000000000010000000000000000000000000000000000000000   0000000000000000000000000A9        170192964704     
0010001300008U 020000000000000000000000000000000000000000000000000000000000000000000000000000000000000000000000000000000000000000000000000203201700000000            000000000000000                              000                           
0010001300009T 020180230000002544776 29647040540650521   7               04032017000000000008000001034770                         0900000000000010000000000000000000000000000000000000000   0000000000000000000000000A9        170192964704     
0010001300010U 020000000000000000000000000000000000000000000000000000000000000000000000000000000000000000000000000000000000000000000000000203201700000000            000000000000000                              000                           
0010001300011T 020180230000002544776 29647040543611984   7               04032017000000000006000001012467                         0900000000000010000000000000000000000000000000000000000   0000000000000000000000000A9        170192964704     
0010001300012U 020000000000000000000000000000000000000000000000000000000000000000000000000000000000000000000000000000000000000000000000000203201700000000            000000000000000                              000                           
0010001300013T 020180230000002544776 29647040551225141   7               04032017000000000006000001008214                         0900000000000010000000000000000000000000000000000000000   0000000000000000000000000A9        170192964704     
0010001300014U 020000000000000000000000000000000000000000000000000000000000000000000000000000000000000000000000000000000000000000000000000203201700000000            000000000000000                              000                           
0010001300015T 020180230000002544776 29647040605704428   7               03032017000000000006000001012688                         0900000000000010000000000000000000000000000000000000000   0000000000000000000000000A9        170192964704     
0010001300016U 020000000000000000000000000000000000000000000000000000000000000000000000000000000000000000000000000000000000000000000000000103201700000000            000000000000000                              000                           
0010001300017T 020180230000002544776 29647040615322183   7               04032017000000000006000001000132                         0900000000000010000000000000000000000000000000000000000   0000000000000000000000000A9        170192964704     
0010001300018U 020000000000000000000000000000000000000000000000000000000000000000000000000000000000000000000000000000000000000000000000000203201700000000            000000000000000                              000                           
0010001300019T 020180230000002544776 29647040638156516   7               04032017000000000006000001000132                         0900000000000010000000000000000000000000000000000000000   0000000000000000000000000A9        170192964704     
0010001300020U 020000000000000000000000000000000000000000000000000000000000000000000000000000000000000000000000000000000000000000000000000203201700000000            000000000000000                              000                           
0010001300021T 020180230000002544776 29647040639740622   7               04032017000000000006000001033316                         0900000000000010000000000000000000000000000000000000000   0000000000000000000000000A9        170192964704     
0010001300022U 020000000000000000000000000000000000000000000000000000000000000000000000000000000000000000000000000000000000000000000000000203201700000000            000000000000000                              000                           
0010001300023T 020180230000002544776 29647040646529462   7               04032017000000000006000001008214                         0900000000000010500000000000000000000000000000000000000   0000000000000000000000000A9A4      170192964704     
0010001300024U 020000000000000000000000000000000000000000000000000000000000000000000000000000000000000000000000000000000000000000000000000203201700000000            000000000000000                              000                           
0010001300025T 020180230000002544776 29647040666541754   7               04032017000000000006000001020478                         0900000000000010000000000000000000000000000000000000000   0000000000000000000000000A9        170192964704     
0010001300026U 020000000000000000000000000000000000000000000000000000000000000000000000000000000000000000000000000000000000000000000000000203201700000000            000000000000000                              000                           
0010001300027T 020180230000002544776 29647040668320060   7               04032017000000000006000001012467                         0900000000000010000000000000000000000000000000000000000   0000000000000000000000000A9        170192964704     
0010001300028U 020000000000000000000000000000000000000000000000000000000000000000000000000000000000000000000000000000000000000000000000000203201700000000            000000000000000                              000                           
0010001300029T 020180230000002544776 29647040670201925   7               04032017000000000006000001002291                         0900000000000010000000000000000000000000000000000000000   0000000000000000000000000A9        170192964704     
0010001300030U 020000000000000000000000000000000000000000000000000000000000000000000000000000000000000000000000000000000000000000000000000203201700000000            000000000000000                              000                           
0010001300031T 020180230000002544776 29647040695704397   7               04032017000000000006000001000132                         0900000000000010000000000000000000000000000000000000000   0000000000000000000000000A9        170192964704     
0010001300032U 020000000000000000000000000000000000000000000000000000000000000000000000000000000000000000000000000000000000000000000000000203201700000000            000000000000000                              000                           
0010001300033T 020180230000002544776 29647040711527773   7               04032017000000000006000001030864                         0900000000000010000000000000000000000000000000000000000   0000000000000000000000000A9        170192964704     
0010001300034U 020000000000000000000000000000000000000000000000000000000000000000000000000000000000000000000000000000000000000000000000000203201700000000            000000000000000                              000                           
0010001300035T 020180230000002544776 29647040716938644   7               04032017000000000006000001028029                         0900000000000010000000000000000000000000000000000000000   0000000000000000000000000A9        170192964704     
0010001300036U 020000000000000000000000000000000000000000000000000000000000000000000000000000000000000000000000000000000000000000000000000203201700000000            000000000000000                              000                           
0010001300037T 020180230000002544776 29647040720456683   7               04032017000000000006000001023655                         0900000000000010000000000000000000000000000000000000000   0000000000000000000000000A9        170192964704     
0010001300038U 020000000000000000000000000000000000000000000000000000000000000000000000000000000000000000000000000000000000000000000000000203201700000000            000000000000000                              000                           
0010001300039T 020180230000002544776 29647040725324814   7               04032017000000000008000001016179                         0900000000000010000000000000000000000000000000000000000   0000000000000000000000000A9        170192964704     
0010001300040U 020000000000000000000000000000000000000000000000000000000000000000000000000000000000000000000000000000000000000000000000000203201700000000            000000000000000                              000                           
0010001300041T 020180230000002544776 29647040728004795   7               04032017000000000006000001012688                         0900000000000010500000000000000000000000000000000000000   0000000000000000000000000A9A4      170192964704     
0010001300042U 020000000000000000000000000000000000000000000000000000000000000000000000000000000000000000000000000000000000000000000000000203201700000000            000000000000000                              000                           
0010001300043T 020180230000002544776 29647040733014499   7               04032017000000000006000001000132                         0900000000000010000000000000000000000000000000000000000   0000000000000000000000000A9        170192964704     
0010001300044U 020000000000000000000000000000000000000000000000000000000000000000000000000000000000000000000000000000000000000000000000000203201700000000            000000000000000                              000                           
0010001300045T 020180230000002544776 29647040733015314   7               04032017000000000006000001000132                         0900000000000010000000000000000000000000000000000000000   0000000000000000000000000A9        170192964704     
0010001300046U 020000000000000000000000000000000000000000000000000000000000000000000000000000000000000000000000000000000000000000000000000203201700000000            000000000000000                              000                           
0010001300047T 020180230000002544776 29647040739044596   7               04032017000000000006000001016179                         0900000000000010000000000000000000000000000000000000000   0000000000000000000000000A9        170192964704     
0010001300048U 020000000000000000000000000000000000000000000000000000000000000000000000000000000000000000000000000000000000000000000000000203201700000000            000000000000000                              000                           
0010001300049T 020180230000002544776 29647040739321599   7               04032017000000000006000001018376                         0900000000000010000000000000000000000000000000000000000   0000000000000000000000000A9        170192964704     
0010001300050U 020000000000000000000000000000000000000000000000000000000000000000000000000000000000000000000000000000000000000000000000000203201700000000            000000000000000                              000                           
0010001300051T 020180230000002544776 29647040750959515   7               04032017000000000006000001028029                         0900000000000010000000000000000000000000000000000000000   0000000000000000000000000A9        170192964704     
0010001300052U 020000000000000000000000000000000000000000000000000000000000000000000000000000000000000000000000000000000000000000000000000203201700000000            000000000000000                              000                           
0010001300053T 020180230000002544776 29647040756452585   7               04032017000000000006000001012467                         0900000000000010500000000000000000000000000000000000000   0000000000000000000000000A9A4      170192964704     
0010001300054U 020000000000000000000000000000000000000000000000000000000000000000000000000000000000000000000000000000000000000000000000000203201700000000            000000000000000                              000                           
0010001300055T 020180230000002544776 29647040770512822   7               04032017000000000006000001012467                         0900000000000010000000000000000000000000000000000000000   0000000000000000000000000A9        170192964704     
0010001300056U 020000000000000000000000000000000000000000000000000000000000000000000000000000000000000000000000000000000000000000000000000203201700000000            000000000000000                              000                           
0010001300057T 020180230000002544776 29647040770532469   7               04032017000000000006000001012467                         0900000000000010000000000000000000000000000000000000000   0000000000000000000000000A9        170192964704     
0010001300058U 020000000000000000000000000000000000000000000000000000000000000000000000000000000000000000000000000000000000000000000000000203201700000000            000000000000000                              000                           
0010001300059T 020180230000002544776 29647040789505564   7               04032017000000000006000001007218                         0900000000000010500000000000000000000000000000000000000   0000000000000000000000000A9A4      170192964704     
0010001300060U 020000000000000000000000000000000000000000000000000000000000000000000000000000000000000000000000000000000000000000000000000203201700000000            000000000000000                              000                           
0010001300061T 020180230000002544776 29647040790516489   7               04032017000000000006000001033316                         0900000000000010000000000000000000000000000000000000000   0000000000000000000000000A9        170192964704     
0010001300062U 020000000000000000000000000000000000000000000000000000000000000000000000000000000000000000000000000000000000000000000000000203201700000000            000000000000000                              000                           
0010001300063T 020180230000002544776 29647040795416579   7               04032017000000000006000001012467                         0900000000000010000000000000000000000000000000000000000   0000000000000000000000000A9        170192964704     
0010001300064U 020000000000000000000000000000000000000000000000000000000000000000000000000000000000000000000000000000000000000000000000000203201700000000            000000000000000                              000                           
0010001300065T 020180230000002544776 29647040808108428   7               04032017000000000006000001000132                         0900000000000010000000000000000000000000000000000000000   0000000000000000000000000A9        170192964704     
0010001300066U 020000000000000000000000000000000000000000000000000000000000000000000000000000000000000000000000000000000000000000000000000203201700000000            000000000000000                              000                           
0010001300067T 020180230000002544776 29647040808932379   7               04032017000000000006000001000361                         0900000000000010000000000000000000000000000000000000000   0000000000000000000000000A9        170192964704     
0010001300068U 020000000000000000000000000000000000000000000000000000000000000000000000000000000000000000000000000000000000000000000000000203201700000000            000000000000000                              000                           
0010001300069T 020180230000002544776 29647040826652183   7               04032017000000000006000001023655                         0900000000000010500000000000000000000000000000000000000   0000000000000000000000000A9A4      170192964704     
0010001300070U 020000000000000000000000000000000000000000000000000000000000000000000000000000000000000000000000000000000000000000000000000203201700000000            000000000000000                              000                           
0010001300071T 020180230000002544776 29647040835356663   7               04032017000000000006000001028029                         0900000000000010000000000000000000000000000000000000000   0000000000000000000000000A9        170192964704     
0010001300072U 020000000000000000000000000000000000000000000000000000000000000000000000000000000000000000000000000000000000000000000000000203201700000000            000000000000000                              000                           
0010001300073T 020180230000002544776 29647040835834054   7               04032017000000000006000001000132                         0900000000000010000000000000000000000000000000000000000   0000000000000000000000000A9        170192964704     
0010001300074U 020000000000000000000000000000000000000000000000000000000000000000000000000000000000000000000000000000000000000000000000000203201700000000            000000000000000                              000                           
0010001300075T 020180230000002544776 29647040850425874   7               04032017000000000006000001001597                         0900000000000010000000000000000000000000000000000000000   0000000000000000000000000A9        170192964704     
0010001300076U 020000000000000000000000000000000000000000000000000000000000000000000000000000000000000000000000000000000000000000000000000203201700000000            000000000000000                              000                           
0010001300077T 020180230000002544776 29647040852340523   7               04032017000000000008000001005428                         0900000000000010000000000000000000000000000000000000000   0000000000000000000000000A9        170192964704     
0010001300078U 020000000000000000000000000000000000000000000000000000000000000000000000000000000000000000000000000000000000000000000000000203201700000000            000000000000000                              000                           
0010001300079T 020180230000002544776 29647040857243299   7               04032017000000000006000001000132                         0900000000000010000000000000000000000000000000000000000   0000000000000000000000000A9        170192964704     
0010001300080U 020000000000000000000000000000000000000000000000000000000000000000000000000000000000000000000000000000000000000000000000000203201700000000            000000000000000                              000                           
0010001300081T 020180230000002544776 29647040857246563   7               04032017000000000006000001000132                         0900000000000010000000000000000000000000000000000000000   0000000000000000000000000A9        170192964704     
0010001300082U 020000000000000000000000000000000000000000000000000000000000000000000000000000000000000000000000000000000000000000000000000203201700000000            000000000000000                              000                           
0010001300083T 020180230000002544776 29647040858010141   7               04032017000000000006000001033316                         0900000000000010000000000000000000000000000000000000000   0000000000000000000000000A9        170192964704     
0010001300084U 020000000000000000000000000000000000000000000000000000000000000000000000000000000000000000000000000000000000000000000000000203201700000000            000000000000000                              000                           
0010001300085T 020180230000002544776 29647040858206609   7               04032017000000000006000001012467                         0900000000000010000000000000000000000000000000000000000   0000000000000000000000000A9        170192964704     
0010001300086U 020000000000000000000000000000000000000000000000000000000000000000000000000000000000000000000000000000000000000000000000000203201700000000            000000000000000                              000                           
0010001300087T 020180230000002544776 29647040858256314   7               04032017000000000006000001012467                         0900000000000010000000000000000000000000000000000000000   0000000000000000000000000A9        170192964704     
0010001300088U 020000000000000000000000000000000000000000000000000000000000000000000000000000000000000000000000000000000000000000000000000203201700000000            000000000000000                              000                           
0010001300089T 020180230000002544776 29647040873929166   7               04032017000000000006000001028029                         0900000000000010000000000000000000000000000000000000000   0000000000000000000000000A9        170192964704     
0010001300090U 020000000000000000000000000000000000000000000000000000000000000000000000000000000000000000000000000000000000000000000000000203201700000000            000000000000000                              000                           
0010001300091T 020180230000002544776 29647040881526295   7               04032017000000000006000001018376                         0900000000000010500000000000000000000000000000000000000   0000000000000000000000000A9A4      170192964704     
0010001300092U 020000000000000000000000000000000000000000000000000000000000000000000000000000000000000000000000000000000000000000000000000203201700000000            000000000000000                              000                           
0010001300093T 020180230000002544776 29647040885644473   7               04032017000000000006000001018376                         0900000000000010000000000000000000000000000000000000000   0000000000000000000000000A9        170192964704     
0010001300094U 020000000000000000000000000000000000000000000000000000000000000000000000000000000000000000000000000000000000000000000000000203201700000000            000000000000000                              000                           
0010001300095T 020180230000002544776 29647040896606256   7               04032017000000000006000001012467                         0900000000000010000000000000000000000000000000000000000   0000000000000000000000000A9        170192964704     
0010001300096U 020000000000000000000000000000000000000000000000000000000000000000000000000000000000000000000000000000000000000000000000000203201700000000            000000000000000                              000                           
0010001300097T 020180230000002544776 29647040904549884   7               04032017000000000006000001016179                         0900000000000010000000000000000000000000000000000000000   0000000000000000000000000A9        170192964704     
0010001300098U 020000000000000000000000000000000000000000000000000000000000000000000000000000000000000000000000000000000000000000000000000203201700000000            000000000000000                              000                           
0010001300099T 020180230000002544776 29647040905518239   7               04032017000000000006000001008249                         0900000000000010000000000000000000000000000000000000000   0000000000000000000000000A9        170192964704     
0010001300100U 020000000000000000000000000000000000000000000000000000000000000000000000000000000000000000000000000000000000000000000000000203201700000000            000000000000000                              000                           
0010001300101T 020180230000002544776 29647040915416449   7               04032017000000000006000001009636                         0900000000000010000000000000000000000000000000000000000   0000000000000000000000000A9        170192964704     
0010001300102U 020000000000000000000000000000000000000000000000000000000000000000000000000000000000000000000000000000000000000000000000000203201700000000            000000000000000                              000                           
0010001300103T 020180230000002544776 29647040916330914   7               04032017000000000006000001000132                         0900000000000010000000000000000000000000000000000000000   0000000000000000000000000A9        170192964704     
0010001300104U 020000000000000000000000000000000000000000000000000000000000000000000000000000000000000000000000000000000000000000000000000203201700000000            000000000000000                              000                           
0010001300105T 020180230000002544776 29647040918019774   7               04032017000000000006000001016179                         0900000000000010000000000000000000000000000000000000000   0000000000000000000000000A9        170192964704     
0010001300106U 020000000000000000000000000000000000000000000000000000000000000000000000000000000000000000000000000000000000000000000000000203201700000000            000000000000000                              000                           
0010001300107T 020180230000002544776 29647040922005396   7               04032017000000000006000001016179                         0900000000000010000000000000000000000000000000000000000   0000000000000000000000000A9        170192964704     
0010001300108U 020000000000000000000000000000000000000000000000000000000000000000000000000000000000000000000000000000000000000000000000000203201700000000            000000000000000                              000                           
0010001300109T 020180230000002544776 29647040922258798   7               04032017000000000006000001001597                         0900000000000010000000000000000000000000000000000000000   0000000000000000000000000A9        170192964704     
0010001300110U 020000000000000000000000000000000000000000000000000000000000000000000000000000000000000000000000000000000000000000000000000203201700000000            000000000000000                              000                           
0010001300111T 020180230000002544776 29647040925933495   7               04032017000000000006000001027391                         0900000000000010000000000000000000000000000000000000000   0000000000000000000000000A9        170192964704     
0010001300112U 020000000000000000000000000000000000000000000000000000000000000000000000000000000000000000000000000000000000000000000000000203201700000000            000000000000000                              000                           
0010001300113T 020180230000002544776 29647040927322890   7               04032017000000000006000001000132                         0900000000000010000000000000000000000000000000000000000   0000000000000000000000000A9        170192964704     
0010001300114U 020000000000000000000000000000000000000000000000000000000000000000000000000000000000000000000000000000000000000000000000000203201700000000            000000000000000                              000                           
0010001300115T 020180230000002544776 29647040927344898   7               04032017000000000006000001000132                         0900000000000010000000000000000000000000000000000000000   0000000000000000000000000A9        170192964704     
0010001300116U 020000000000000000000000000000000000000000000000000000000000000000000000000000000000000000000000000000000000000000000000000203201700000000            000000000000000                              000                           
0010001300117T 020180230000002544776 29647040929324515   7               04032017000000000006000001000132                         0900000000000010000000000000000000000000000000000000000   0000000000000000000000000A9        170192964704     
0010001300118U 020000000000000000000000000000000000000000000000000000000000000000000000000000000000000000000000000000000000000000000000000203201700000000            000000000000000                              000                           
0010001300119T 020180230000002544776 29647040931105424   7               04032017000000000006000001000361                         0900000000000010000000000000000000000000000000000000000   0000000000000000000000000A9        170192964704     
0010001300120U 020000000000000000000000000000000000000000000000000000000000000000000000000000000000000000000000000000000000000000000000000203201700000000            000000000000000                              000                           
0010001300121T 020180230000002544776 29647040931108595   7               04032017000000000006000001000361                         0900000000000010000000000000000000000000000000000000000   0000000000000000000000000A9        170192964704     
0010001300122U 020000000000000000000000000000000000000000000000000000000000000000000000000000000000000000000000000000000000000000000000000203201700000000            000000000000000                              000                           
0010001300123T 020180230000002544776 29647040931126694   7               04032017000000000006000001000361                         0900000000000010000000000000000000000000000000000000000   0000000000000000000000000A9        170192964704     
0010001300124U 020000000000000000000000000000000000000000000000000000000000000000000000000000000000000000000000000000000000000000000000000203201700000000            000000000000000                              000                           
0010001300125T 020180230000002544776 29647040931150675   7               04032017000000000006000001000361                         0900000000000010000000000000000000000000000000000000000   0000000000000000000000000A9        170192964704     
0010001300126U 020000000000000000000000000000000000000000000000000000000000000000000000000000000000000000000000000000000000000000000000000203201700000000            000000000000000                              000                           
0010001300127T 020180230000002544776 29647040932616337   7               04032017000000000006000001016179                         0900000000000010000000000000000000000000000000000000000   0000000000000000000000000A9        170192964704     
0010001300128U 020000000000000000000000000000000000000000000000000000000000000000000000000000000000000000000000000000000000000000000000000203201700000000            000000000000000                              000                           
0010001300129T 020180230000002544776 29647040933808803   7               04032017000000000006000001028495                         0900000000000010000000000000000000000000000000000000000   0000000000000000000000000A9        170192964704     
0010001300130U 020000000000000000000000000000000000000000000000000000000000000000000000000000000000000000000000000000000000000000000000000203201700000000            000000000000000                              000                           
0010001300131T 020180230000002544776 29647040934030779   7               04032017000000000006000001008214                         0900000000000010000000000000000000000000000000000000000   0000000000000000000000000A9        170192964704     
0010001300132U 020000000000000000000000000000000000000000000000000000000000000000000000000000000000000000000000000000000000000000000000000203201700000000            000000000000000                              000                           
0010001300133T 020180230000002544776 29647040935414686   7               04032017000000000008000001026603                         0900000000000010000000000000000000000000000000000000000   0000000000000000000000000A9        170192964704     
0010001300134U 020000000000000000000000000000000000000000000000000000000000000000000000000000000000000000000000000000000000000000000000000203201700000000            000000000000000                              000                           
0010001300135T 020180230000002544776 29647040937213120   7               04032017000000000006000001018376                         0900000000000010000000000000000000000000000000000000000   0000000000000000000000000A9        170192964704     
0010001300136U 020000000000000000000000000000000000000000000000000000000000000000000000000000000000000000000000000000000000000000000000000203201700000000            000000000000000                              000                           
0010001300137T 020180230000002544776 29647040937215727   7               04032017000000000006000001018376                         0900000000000010000000000000000000000000000000000000000   0000000000000000000000000A9        170192964704     
0010001300138U 020000000000000000000000000000000000000000000000000000000000000000000000000000000000000000000000000000000000000000000000000203201700000000            000000000000000                              000                           
0010001300139T 020180230000002544776 29647040937217958   7               04032017000000000006000001018376                         0900000000000010000000000000000000000000000000000000000   0000000000000000000000000A9        170192964704     
0010001300140U 020000000000000000000000000000000000000000000000000000000000000000000000000000000000000000000000000000000000000000000000000203201700000000            000000000000000                              000                           
0010001300141T 020180230000002544776 29647040937231114   7               04032017000000000006000001018376                         0900000000000010000000000000000000000000000000000000000   0000000000000000000000000A9        170192964704     
0010001300142U 020000000000000000000000000000000000000000000000000000000000000000000000000000000000000000000000000000000000000000000000000203201700000000            000000000000000                              000                           
0010001300143T 020180230000002544776 29647040937256060   7               04032017000000000006000001018376                         0900000000000010000000000000000000000000000000000000000   0000000000000000000000000A9        170192964704     
0010001300144U 020000000000000000000000000000000000000000000000000000000000000000000000000000000000000000000000000000000000000000000000000203201700000000            000000000000000                              000                           
0010001300145T 020180230000002544776 29647040939310246   7               04032017000000000006000001016179                         0900000000000010000000000000000000000000000000000000000   0000000000000000000000000A9        170192964704     
0010001300146U 020000000000000000000000000000000000000000000000000000000000000000000000000000000000000000000000000000000000000000000000000203201700000000            000000000000000                              000                           
0010001300147T 020180230000002544776 29647040939340757   7               04032017000000000006000001016179                         0900000000000010000000000000000000000000000000000000000   0000000000000000000000000A9        170192964704     
0010001300148U 020000000000000000000000000000000000000000000000000000000000000000000000000000000000000000000000000000000000000000000000000203201700000000            000000000000000                              000                           
0010001300149T 020180230000002544776 29647040939348417   7               04032017000000000006000001016179                         0900000000000010000000000000000000000000000000000000000   0000000000000000000000000A9        170192964704     
0010001300150U 020000000000000000000000000000000000000000000000000000000000000000000000000000000000000000000000000000000000000000000000000203201700000000            000000000000000                              000                           
0010001300151T 020180230000002544776 29647040943922025   7               04032017000000000008000001033316                         0900000000000010000000000000000000000000000000000000000   0000000000000000000000000A9        170192964704     
0010001300152U 020000000000000000000000000000000000000000000000000000000000000000000000000000000000000000000000000000000000000000000000000203201700000000            000000000000000                              000                           
0010001300153T 020180230000002544776 29647040955959062   7               04032017000000000006000001008672                         0900000000000010000000000000000000000000000000000000000   0000000000000000000000000A9        170192964704     
0010001300154U 020000000000000000000000000000000000000000000000000000000000000000000000000000000000000000000000000000000000000000000000000203201700000000            000000000000000                              000                           
0010001300155T 020180230000002544776 29647040956511563   7               04032017000000000006000001009512                         0900000000000010000000000000000000000000000000000000000   0000000000000000000000000A9        170192964704     
0010001300156U 020000000000000000000000000000000000000000000000000000000000000000000000000000000000000000000000000000000000000000000000000203201700000000            000000000000000                              000                           
0010001300157T 020180230000002544776 29647040958046001   7               04032017000000000006000001000132                         0900000000000010000000000000000000000000000000000000000   0000000000000000000000000A9        170192964704     
0010001300158U 020000000000000000000000000000000000000000000000000000000000000000000000000000000000000000000000000000000000000000000000000203201700000000            000000000000000                              000                           
0010001300159T 020180230000002544776 29647040961833697   7               04032017000000000006000001028029                         0900000000000010500000000000000000000000000000000000000   0000000000000000000000000A9A4      170192964704     
0010001300160U 020000000000000000000000000000000000000000000000000000000000000000000000000000000000000000000000000000000000000000000000000203201700000000            000000000000000                              000                           
0010001300161T 020180230000002544776 29647040965500470   7               04032017000000000006000001033316                         0900000000000010000000000000000000000000000000000000000   0000000000000000000000000A9        170192964704     
0010001300162U 020000000000000000000000000000000000000000000000000000000000000000000000000000000000000000000000000000000000000000000000000203201700000000            000000000000000                              000                           
0010001300163T 020180230000002544776 29647040965526491   7               04032017000000000006000001033316                         0900000000000010000000000000000000000000000000000000000   0000000000000000000000000A9        170192964704     
0010001300164U 020000000000000000000000000000000000000000000000000000000000000000000000000000000000000000000000000000000000000000000000000203201700000000            000000000000000                              000                           
0010001300165T 020180230000002544776 29647040969531289   7               04032017000000000006000001028029                         0900000000000010000000000000000000000000000000000000000   0000000000000000000000000A9        170192964704     
0010001300166U 020000000000000000000000000000000000000000000000000000000000000000000000000000000000000000000000000000000000000000000000000203201700000000            000000000000000                              000                           
0010001300167T 020180230000002544776 29647040969931579   7               03032017000000000006000001008702                         0900000000000010500000000000000000000000000000000000000   0000000000000000000000000A9A4      170192964704     
0010001300168U 020000000000000000000000000000000000000000000000000000000000000000000000000000000000000000000000000000000000000000000000000103201700000000            000000000000000                              000                           
0010001300169T 020180230000002544776 29647040970231400   7               04032017000000000006000001016179                         0900000000000010000000000000000000000000000000000000000   0000000000000000000000000A9        170192964704     
0010001300170U 020000000000000000000000000000000000000000000000000000000000000000000000000000000000000000000000000000000000000000000000000203201700000000            000000000000000                              000                           
0010001300171T 020180230000002544776 29647040970248408   7               04032017000000000006000001016179                         0900000000000010000000000000000000000000000000000000000   0000000000000000000000000A9        170192964704     
0010001300172U 020000000000000000000000000000000000000000000000000000000000000000000000000000000000000000000000000000000000000000000000000203201700000000            000000000000000                              000                           
0010001300173T 020180230000002544776 29647040970642299   7               04032017000000000006000001016179                         0900000000000010000000000000000000000000000000000000000   0000000000000000000000000A9        170192964704     
0010001300174U 020000000000000000000000000000000000000000000000000000000000000000000000000000000000000000000000000000000000000000000000000203201700000000            000000000000000                              000                           
0010001300175T 020180230000002544776 29647040970943709   7               04032017000000000006000001028029                         0900000000000010000000000000000000000000000000000000000   0000000000000000000000000A9        170192964704     
0010001300176U 020000000000000000000000000000000000000000000000000000000000000000000000000000000000000000000000000000000000000000000000000203201700000000            000000000000000                              000                           
0010001300177T 020180230000002544776 29647040971204087   7               04032017000000000006000001007145                         0900000000000010000000000000000000000000000000000000000   0000000000000000000000000A9        170192964704     
0010001300178U 020000000000000000000000000000000000000000000000000000000000000000000000000000000000000000000000000000000000000000000000000203201700000000            000000000000000                              000                           
0010001300179T 020180230000002544776 29647040971302359   7               04032017000000000006000001028029                         0900000000000010000000000000000000000000000000000000000   0000000000000000000000000A9        170192964704     
0010001300180U 020000000000000000000000000000000000000000000000000000000000000000000000000000000000000000000000000000000000000000000000000203201700000000            000000000000000                              000                           
0010001300181T 020180230000002544776 29647040971335041   7               04032017000000000006000001028029                         0900000000000010000000000000000000000000000000000000000   0000000000000000000000000A9        170192964704     
0010001300182U 020000000000000000000000000000000000000000000000000000000000000000000000000000000000000000000000000000000000000000000000000203201700000000            000000000000000                              000                           
0010001300183T 020180230000002544776 29647040971452591   7               04032017000000000006000001016179                         0900000000000010000000000000000000000000000000000000000   0000000000000000000000000A9        170192964704     
0010001300184U 020000000000000000000000000000000000000000000000000000000000000000000000000000000000000000000000000000000000000000000000000203201700000000            000000000000000                              000                           
0010001300185T 020180230000002544776 29647040971707843   7               04032017000000000006000001008214                         0900000000000010000000000000000000000000000000000000000   0000000000000000000000000A9        170192964704     
0010001300186U 020000000000000000000000000000000000000000000000000000000000000000000000000000000000000000000000000000000000000000000000000203201700000000            000000000000000                              000                           
0010001300187T 020180230000002544776 29647040971936757   7               04032017000000000006000001033316                         0900000000000010000000000000000000000000000000000000000   0000000000000000000000000A9        170192964704     
0010001300188U 020000000000000000000000000000000000000000000000000000000000000000000000000000000000000000000000000000000000000000000000000203201700000000            000000000000000                              000                           
0010001300189T 020180230000002544776 29647040972353886   7               04032017000000000006000001000132                         0900000000000010000000000000000000000000000000000000000   0000000000000000000000000A9        170192964704     
0010001300190U 020000000000000000000000000000000000000000000000000000000000000000000000000000000000000000000000000000000000000000000000000203201700000000            000000000000000                              000                           
0010001300191T 020180230000002544776 29647040972429076   7               04032017000000000006000001033316                         0900000000000010500000000000000000000000000000000000000   0000000000000000000000000A9A4      170192964704     
0010001300192U 020000000000000000000000000000000000000000000000000000000000000000000000000000000000000000000000000000000000000000000000000203201700000000            000000000000000                              000                           
0010001300193T 020180230000002544776 29647040972756855   7               04032017000000000008000001012467                         0900000000000010000000000000000000000000000000000000000   0000000000000000000000000A9        170192964704     
0010001300194U 020000000000000000000000000000000000000000000000000000000000000000000000000000000000000000000000000000000000000000000000000203201700000000            000000000000000                              000                           
0010001300195T 020180230000002544776 29647040973051476   7               04032017000000000006000001016179                         0900000000000010000000000000000000000000000000000000000   0000000000000000000000000A9        170192964704     
0010001300196U 020000000000000000000000000000000000000000000000000000000000000000000000000000000000000000000000000000000000000000000000000203201700000000            000000000000000                              000                           
0010001300197T 020180230000002544776 29647040973129502   7               04032017000000000006000001018376                         0900000000000010500000000000000000000000000000000000000   0000000000000000000000000A9A4      170192964704     
0010001300198U 020000000000000000000000000000000000000000000000000000000000000000000000000000000000000000000000000000000000000000000000000203201700000000            000000000000000                              000                           
0010001300199T 020180230000002544776 29647040973603270   7               04032017000000000006000001014028                         0900000000000010000000000000000000000000000000000000000   0000000000000000000000000A9        170192964704     
0010001300200U 020000000000000000000000000000000000000000000000000000000000000000000000000000000000000000000000000000000000000000000000000203201700000000            000000000000000                              000                           
0010001300201T 020180230000002544776 29647040973923111   7               04032017000000000006000001023655                         0900000000000010000000000000000000000000000000000000000   0000000000000000000000000A9        170192964704     
0010001300202U 020000000000000000000000000000000000000000000000000000000000000000000000000000000000000000000000000000000000000000000000000203201700000000            000000000000000                              000                           
0010001300203T 020180230000002544776 29647040974212349   7               04032017000000000006000001033316                         0900000000000010000000000000000000000000000000000000000   0000000000000000000000000A9        170192964704     
0010001300204U 020000000000000000000000000000000000000000000000000000000000000000000000000000000000000000000000000000000000000000000000000203201700000000            000000000000000                              000                           
0010001300205T 020180230000002544776 29647040974430282   7               04032017000000000006000001022357                         0900000000000010000000000000000000000000000000000000000   0000000000000000000000000A9        170192964704     
0010001300206U 020000000000000000000000000000000000000000000000000000000000000000000000000000000000000000000000000000000000000000000000000203201700000000            000000000000000                              000                           
0010001300207T 020180230000002544776 29647040974532816   7               04032017000000000006000001033316                         0900000000000010000000000000000000000000000000000000000   0000000000000000000000000A9        170192964704     
0010001300208U 020000000000000000000000000000000000000000000000000000000000000000000000000000000000000000000000000000000000000000000000000203201700000000            000000000000000                              000                           
0010001300209T 020180230000002544776 29647040974622540   7               04032017000000000006000001018376                         0900000000000010000000000000000000000000000000000000000   0000000000000000000000000A9        170192964704     
0010001300210U 020000000000000000000000000000000000000000000000000000000000000000000000000000000000000000000000000000000000000000000000000203201700000000            000000000000000                              000                           
0010001300211T 020180230000002544776 29647040974711749   7               04032017000000000006000001018376                         0900000000000010500000000000000000000000000000000000000   0000000000000000000000000A9A4      170192964704     
0010001300212U 020000000000000000000000000000000000000000000000000000000000000000000000000000000000000000000000000000000000000000000000000203201700000000            000000000000000                              000                           
0010001300213T 020180230000002544776 29647040974736588   7               04032017000000000006000001018376                         0900000000000010500000000000000000000000000000000000000   0000000000000000000000000A9A4      170192964704     
0010001300214U 020000000000000000000000000000000000000000000000000000000000000000000000000000000000000000000000000000000000000000000000000203201700000000            000000000000000                              000                           
0010001300215T 020180230000002544776 29647040974920981   7               04032017000000000006000001008214                         0900000000000010000000000000000000000000000000000000000   0000000000000000000000000A9        170192964704     
0010001300216U 020000000000000000000000000000000000000000000000000000000000000000000000000000000000000000000000000000000000000000000000000203201700000000            000000000000000                              000                           
0010001300217T 020180230000002544776 29647040975011634   7               04032017000000000006000001018376                         0900000000000010000000000000000000000000000000000000000   0000000000000000000000000A9        170192964704     
0010001300218U 020000000000000000000000000000000000000000000000000000000000000000000000000000000000000000000000000000000000000000000000000203201700000000            000000000000000                              000                           
0010001300219T 020180230000002544776 29647040975328297   7               04032017000000000006000001016179                         0900000000000010000000000000000000000000000000000000000   0000000000000000000000000A9        170192964704     
0010001300220U 020000000000000000000000000000000000000000000000000000000000000000000000000000000000000000000000000000000000000000000000000203201700000000            000000000000000                              000                           
0010001300221T 020180230000002544776 29647040975509628   7               04032017000000000006000001033316                         0900000000000010000000000000000000000000000000000000000   0000000000000000000000000A9        170192964704     
0010001300222U 020000000000000000000000000000000000000000000000000000000000000000000000000000000000000000000000000000000000000000000000000203201700000000            000000000000000                              000                           
0010001300223T 020180230000002544776 29647040975958372   7               04032017000000000006000001033316                         0900000000000010000000000000000000000000000000000000000   0000000000000000000000000A9        170192964704     
0010001300224U 020000000000000000000000000000000000000000000000000000000000000000000000000000000000000000000000000000000000000000000000000203201700000000            000000000000000                              000                           
0010001300225T 020180230000002544776 29647040976135401   7               04032017000000000006000001028029                         0900000000000010000000000000000000000000000000000000000   0000000000000000000000000A9        170192964704     
0010001300226U 020000000000000000000000000000000000000000000000000000000000000000000000000000000000000000000000000000000000000000000000000203201700000000            000000000000000                              000                           
0010001300227T 020180230000002544776 29647040976758080   7               04032017000000000008000001014028                         0900000000000010000000000000000000000000000000000000000   0000000000000000000000000A9        170192964704     
0010001300228U 020000000000000000000000000000000000000000000000000000000000000000000000000000000000000000000000000000000000000000000000000203201700000000            000000000000000                              000                           
0010001300229T 020180230000002544776 29647040976827048   7               04032017000000000008000001023353                         0900000000000010000000000000000000000000000000000000000   0000000000000000000000000A9        170192964704     
0010001300230U 020000000000000000000000000000000000000000000000000000000000000000000000000000000000000000000000000000000000000000000000000203201700000000            000000000000000                              000                           
0010001300231T 020180230000002544776 29647040976913715   7               04032017000000000008000001028029                         0900000000000010000000000000000000000000000000000000000   0000000000000000000000000A9        170192964704     
0010001300232U 020000000000000000000000000000000000000000000000000000000000000000000000000000000000000000000000000000000000000000000000000203201700000000            000000000000000                              000                           
0010001300233T 020180230000002544776 29647040977225026   7               04032017000000000006000001016179                         0900000000000010000000000000000000000000000000000000000   0000000000000000000000000A9        170192964704     
0010001300234U 020000000000000000000000000000000000000000000000000000000000000000000000000000000000000000000000000000000000000000000000000203201700000000            000000000000000                              000                           
0010001300235T 020180230000002544776 29647040977248687   7               04032017000000000006000001016179                         0900000000000010000000000000000000000000000000000000000   0000000000000000000000000A9        170192964704     
0010001300236U 020000000000000000000000000000000000000000000000000000000000000000000000000000000000000000000000000000000000000000000000000203201700000000            000000000000000                              000                           
0010001300237T 020180230000002544776 29647040977314740   7               04032017000000000006000001013692                         0900000000000010000000000000000000000000000000000000000   0000000000000000000000000A9        170192964704     
0010001300238U 020000000000000000000000000000000000000000000000000000000000000000000000000000000000000000000000000000000000000000000000000203201700000000            000000000000000                              000                           
0010001300239T 020180230000002544776 29647040977445242   7               04032017000000000006000001010502                         0900000000000010000000000000000000000000000000000000000   0000000000000000000000000A9        170192964704     
0010001300240U 020000000000000000000000000000000000000000000000000000000000000000000000000000000000000000000000000000000000000000000000000203201700000000            000000000000000                              000                           
0010001300241T 020180230000002544776 29647040977500979   7               04032017000000000008000001004278                         0900000000000010000000000000000000000000000000000000000   0000000000000000000000000A9        170192964704     
0010001300242U 020000000000000000000000000000000000000000000000000000000000000000000000000000000000000000000000000000000000000000000000000203201700000000            000000000000000                              000                           
0010001300243T 020180230000002544776 29647040977507738   7               04032017000000000008000001004278                         0900000000000010000000000000000000000000000000000000000   0000000000000000000000000A9        170192964704     
0010001300244U 020000000000000000000000000000000000000000000000000000000000000000000000000000000000000000000000000000000000000000000000000203201700000000            000000000000000                              000                           
0010001300245T 020180230000002544776 29647040977859024   7               04032017000000000006000001013692                         0900000000000010000000000000000000000000000000000000000   0000000000000000000000000A9        170192964704     
0010001300246U 020000000000000000000000000000000000000000000000000000000000000000000000000000000000000000000000000000000000000000000000000203201700000000            000000000000000                              000                           
0010001300247T 020180230000002544776 29647040978129833   7               04032017000000000008000001028029                         0900000000000010000000000000000000000000000000000000000   0000000000000000000000000A9        170192964704     
0010001300248U 020000000000000000000000000000000000000000000000000000000000000000000000000000000000000000000000000000000000000000000000000203201700000000            000000000000000                              000                           
0010001300249T 020180230000002544776 29647040978237395   7               04032017000000000006000001028029                         0900000000000010000000000000000000000000000000000000000   0000000000000000000000000A9        170192964704     
0010001300250U 020000000000000000000000000000000000000000000000000000000000000000000000000000000000000000000000000000000000000000000000000203201700000000            000000000000000                              000                           
0010001300251T 020180230000002544776 29647040978317471   7               04032017000000000006000001010502                         0900000000000010000000000000000000000000000000000000000   0000000000000000000000000A9        170192964704     
0010001300252U 020000000000000000000000000000000000000000000000000000000000000000000000000000000000000000000000000000000000000000000000000203201700000000            000000000000000                              000                           
0010001300253T 020180230000002544776 29647040978502448   7               04032017000000000006000001016179                         0900000000000010000000000000000000000000000000000000000   0000000000000000000000000A9        170192964704     
0010001300254U 020000000000000000000000000000000000000000000000000000000000000000000000000000000000000000000000000000000000000000000000000203201700000000            000000000000000                              000                           
0010001300255T 020180230000002544776 29647040978853774   7               0403201700000000000800000101981X                         0900000000000010000000000000000000000000000000000000000   0000000000000000000000000A9        170192964704     
0010001300256U 020000000000000000000000000000000000000000000000000000000000000000000000000000000000000000000000000000000000000000000000000203201700000000            000000000000000                              000                           
0010001300257T 020180230000002544776 29647040978928236   7               04032017000000000006000001005428                         0900000000000010000000000000000000000000000000000000000   0000000000000000000000000A9        170192964704     
0010001300258U 020000000000000000000000000000000000000000000000000000000000000000000000000000000000000000000000000000000000000000000000000203201700000000            000000000000000                              000                           
0010001300259T 020180230000002544776 29647040979009142   7               04032017000000000008000001035041                         0900000000000010000000000000000000000000000000000000000   0000000000000000000000000A9        170192964704     
0010001300260U 020000000000000000000000000000000000000000000000000000000000000000000000000000000000000000000000000000000000000000000000000203201700000000            000000000000000                              000                           
0010001300261T 020180230000002544776 29647040979100538   7               04032017000000000006000001028029                         0900000000000010000000000000000000000000000000000000000   0000000000000000000000000A9        170192964704     
0010001300262U 020000000000000000000000000000000000000000000000000000000000000000000000000000000000000000000000000000000000000000000000000203201700000000            000000000000000                              000                           
0010001300263T 020180230000002544776 29647040979833573   7               04032017000000000006000001000132                         0900000000000010000000000000000000000000000000000000000   0000000000000000000000000A9        170192964704     
0010001300264U 020000000000000000000000000000000000000000000000000000000000000000000000000000000000000000000000000000000000000000000000000203201700000000            000000000000000                              000                           
0010001300265T 020180230000002544776 29647040980044921   7               04032017000000000006000001000132                         0900000000000010000000000000000000000000000000000000000   0000000000000000000000000A9        170192964704     
0010001300266U 020000000000000000000000000000000000000000000000000000000000000000000000000000000000000000000000000000000000000000000000000203201700000000            000000000000000                              000                           
0010001300267T 020180230000002544776 29647040980229470   7               04032017000000000006000001028029                         0900000000000010000000000000000000000000000000000000000   0000000000000000000000000A9        170192964704     
0010001300268U 020000000000000000000000000000000000000000000000000000000000000000000000000000000000000000000000000000000000000000000000000203201700000000            000000000000000                              000                           
0010001300269T 020180230000002544776 29647040980230476   7               04032017000000000006000001028029                         0900000000000010000000000000000000000000000000000000000   0000000000000000000000000A9        170192964704     
0010001300270U 020000000000000000000000000000000000000000000000000000000000000000000000000000000000000000000000000000000000000000000000000203201700000000            000000000000000                              000                           
0010001300271T 020180230000002544776 29647040980356692   7               04032017000000000006000001007102                         0900000000000010000000000000000000000000000000000000000   0000000000000000000000000A9        170192964704     
0010001300272U 020000000000000000000000000000000000000000000000000000000000000000000000000000000000000000000000000000000000000000000000000203201700000000            000000000000000                              000                           
0010001300273T 020180230000002544776 29647040980658128   7               0403201700000000000600000101138X                         0900000000000010500000000000000000000000000000000000000   0000000000000000000000000A9A4      170192964704     
0010001300274U 020000000000000000000000000000000000000000000000000000000000000000000000000000000000000000000000000000000000000000000000000203201700000000            000000000000000                              000                           
0010001300275T 020180230000002544776 29647040980743509   7               04032017000000000006000001011274                         0900000000000010000000000000000000000000000000000000000   0000000000000000000000000A9        170192964704     
0010001300276U 020000000000000000000000000000000000000000000000000000000000000000000000000000000000000000000000000000000000000000000000000203201700000000            000000000000000                              000                           
0010001300277T 020180230000002544776 29647040980856668   7               04032017000000000006000001005428                         0900000000000010000000000000000000000000000000000000000   0000000000000000000000000A9        170192964704     
0010001300278U 020000000000000000000000000000000000000000000000000000000000000000000000000000000000000000000000000000000000000000000000000203201700000000            000000000000000                              000                           
0010001300279T 020180230000002544776 29647040981018822   7               04032017000000000006000001007145                         0900000000000010000000000000000000000000000000000000000   0000000000000000000000000A9        170192964704     
0010001300280U 020000000000000000000000000000000000000000000000000000000000000000000000000000000000000000000000000000000000000000000000000203201700000000            000000000000000                              000                           
0010001300281T 020180230000002544776 29647040981145081   7               04032017000000000006000001000132                         0900000000000010000000000000000000000000000000000000000   0000000000000000000000000A9        170192964704     
0010001300282U 020000000000000000000000000000000000000000000000000000000000000000000000000000000000000000000000000000000000000000000000000203201700000000            000000000000000                              000                           
0010001300283T 020180230000002544776 29647040981821633   7               04032017000000000006000001016179                         0900000000000010000000000000000000000000000000000000000   0000000000000000000000000A9        170192964704     
0010001300284U 020000000000000000000000000000000000000000000000000000000000000000000000000000000000000000000000000000000000000000000000000203201700000000            000000000000000                              000                           
0010001300285T 020180230000002544776 29647040981906181   7               04032017000000000006000001008214                         0900000000000010000000000000000000000000000000000000000   0000000000000000000000000A9        170192964704     
0010001300286U 020000000000000000000000000000000000000000000000000000000000000000000000000000000000000000000000000000000000000000000000000203201700000000            000000000000000                              000                           
0010001300287T 020180230000002544776 29647040982005061   7               04032017000000000006000001028029                         0900000000000010000000000000000000000000000000000000000   0000000000000000000000000A9        170192964704     
0010001300288U 020000000000000000000000000000000000000000000000000000000000000000000000000000000000000000000000000000000000000000000000000203201700000000            000000000000000                              000                           
0010001300289T 020180230000002544776 29647040982241037   7               04032017000000000006000001028029                         0900000000000010000000000000000000000000000000000000000   0000000000000000000000000A9        170192964704     
0010001300290U 020000000000000000000000000000000000000000000000000000000000000000000000000000000000000000000000000000000000000000000000000203201700000000            000000000000000                              000                           
0010001300291T 020180230000002544776 29647040982408010   7               04032017000000000008000001011851                         0900000000000010000000000000000000000000000000000000000   0000000000000000000000000A9        170192964704     
0010001300292U 020000000000000000000000000000000000000000000000000000000000000000000000000000000000000000000000000000000000000000000000000203201700000000            000000000000000                              000                           
0010001300293T 020180230000002544776 29647040982605312   7               04032017000000000006000001016179                         0900000000000010000000000000000000000000000000000000000   0000000000000000000000000A9        170192964704     
0010001300294U 020000000000000000000000000000000000000000000000000000000000000000000000000000000000000000000000000000000000000000000000000203201700000000            000000000000000                              000                           
0010001300295T 020180230000002544776 29647040982943773   7               0403201700000000000600000101981X                         0900000000000010000000000000000000000000000000000000000   0000000000000000000000000A9        170192964704     
0010001300296U 020000000000000000000000000000000000000000000000000000000000000000000000000000000000000000000000000000000000000000000000000203201700000000            000000000000000                              000                           
0010001300297T 020180230000002544776 29647040983105739   7               04032017000000000006000001023655                         0900000000000010000000000000000000000000000000000000000   0000000000000000000000000A9        170192964704     
0010001300298U 020000000000000000000000000000000000000000000000000000000000000000000000000000000000000000000000000000000000000000000000000203201700000000            000000000000000                              000                           
0010001300299T 020180230000002544776 29647040983142440   7               04032017000000000006000001023655                         0900000000000010000000000000000000000000000000000000000   0000000000000000000000000A9        170192964704     
0010001300300U 020000000000000000000000000000000000000000000000000000000000000000000000000000000000000000000000000000000000000000000000000203201700000000            000000000000000                              000                           
0010001300301T 020180230000002544776 29647040983154647   7               04032017000000000006000001023655                         0900000000000010000000000000000000000000000000000000000   0000000000000000000000000A9        170192964704     
0010001300302U 020000000000000000000000000000000000000000000000000000000000000000000000000000000000000000000000000000000000000000000000000203201700000000            000000000000000                              000                           
0010001300303T 020180230000002544776 29647040983338343   7               04032017000000000006000001018376                         0900000000000010000000000000000000000000000000000000000   0000000000000000000000000A9        170192964704     
0010001300304U 020000000000000000000000000000000000000000000000000000000000000000000000000000000000000000000000000000000000000000000000000203201700000000            000000000000000                              000                           
0010001300305T 020180230000002544776 29647040983421852   7               04032017000000000006000001028029                         0900000000000010000000000000000000000000000000000000000   0000000000000000000000000A9        170192964704     
0010001300306U 020000000000000000000000000000000000000000000000000000000000000000000000000000000000000000000000000000000000000000000000000203201700000000            000000000000000                              000                           
0010001300307T 020180230000002544776 29647040983434002   7               04032017000000000006000001028029                         0900000000000010000000000000000000000000000000000000000   0000000000000000000000000A9        170192964704     
0010001300308U 020000000000000000000000000000000000000000000000000000000000000000000000000000000000000000000000000000000000000000000000000203201700000000            000000000000000                              000                           
0010001300309T 020180230000002544776 29647040983620287   7               04032017000000000006000001012467                         0900000000000010500000000000000000000000000000000000000   0000000000000000000000000A9A4      170192964704     
0010001300310U 020000000000000000000000000000000000000000000000000000000000000000000000000000000000000000000000000000000000000000000000000203201700000000            000000000000000                              000                           
0010001300311T 020180230000002544776 29647040983859399   7               04032017000000000006000001016179                         0900000000000010000000000000000000000000000000000000000   0000000000000000000000000A9        170192964704     
0010001300312U 020000000000000000000000000000000000000000000000000000000000000000000000000000000000000000000000000000000000000000000000000203201700000000            000000000000000                              000                           
0010001300313T 020180230000002544776 29647040983902906   7               04032017000000000006000001012467                         0900000000000010000000000000000000000000000000000000000   0000000000000000000000000A9        170192964704     
0010001300314U 020000000000000000000000000000000000000000000000000000000000000000000000000000000000000000000000000000000000000000000000000203201700000000            000000000000000                              000                           
0010001300315T 020180230000002544776 29647040983915930   7               04032017000000000006000001012467                         0900000000000010000000000000000000000000000000000000000   0000000000000000000000000A9        170192964704     
0010001300316U 020000000000000000000000000000000000000000000000000000000000000000000000000000000000000000000000000000000000000000000000000203201700000000            000000000000000                              000                           
0010001300317T 020180230000002544776 29647040983948916   7               04032017000000000006000001012467                         0900000000000010000000000000000000000000000000000000000   0000000000000000000000000A9        170192964704     
0010001300318U 020000000000000000000000000000000000000000000000000000000000000000000000000000000000000000000000000000000000000000000000000203201700000000            000000000000000                              000                           
0010001300319T 020180230000002544776 29647040983950890   7               04032017000000000006000001012467                         0900000000000010000000000000000000000000000000000000000   0000000000000000000000000A9        170192964704     
0010001300320U 020000000000000000000000000000000000000000000000000000000000000000000000000000000000000000000000000000000000000000000000000203201700000000            000000000000000                              000                           
0010001300321T 020180230000002544776 29647040984025164   7               04032017000000000008000001003239                         0900000000000010000000000000000000000000000000000000000   0000000000000000000000000A9        170192964704     
0010001300322U 020000000000000000000000000000000000000000000000000000000000000000000000000000000000000000000000000000000000000000000000000203201700000000            000000000000000                              000                           
0010001300323T 020180230000002544776 29647040984028053   7               04032017000000000008000001003239                         0900000000000010000000000000000000000000000000000000000   0000000000000000000000000A9        170192964704     
0010001300324U 020000000000000000000000000000000000000000000000000000000000000000000000000000000000000000000000000000000000000000000000000203201700000000            000000000000000                              000                           
0010001300325T 020180230000002544776 29647040984232678   7               04032017000000000006000001000132                         0900000000000010000000000000000000000000000000000000000   0000000000000000000000000A9        170192964704     
0010001300326U 020000000000000000000000000000000000000000000000000000000000000000000000000000000000000000000000000000000000000000000000000203201700000000            000000000000000                              000                           
0010001300327T 020180230000002544776 29647040984351288   7               04032017000000000008000001028029                         0900000000000010000000000000000000000000000000000000000   0000000000000000000000000A9        170192964704     
0010001300328U 020000000000000000000000000000000000000000000000000000000000000000000000000000000000000000000000000000000000000000000000000203201700000000            000000000000000                              000                           
0010001300329T 020180230000002544776 29647040984621584   7               04032017000000000006000001007595                         0900000000000010000000000000000000000000000000000000000   0000000000000000000000000A9        170192964704     
0010001300330U 020000000000000000000000000000000000000000000000000000000000000000000000000000000000000000000000000000000000000000000000000203201700000000            000000000000000                              000                           
0010001300331T 020180230000002544776 29647040984723071   7               04032017000000000006000001033316                         0900000000000010000000000000000000000000000000000000000   0000000000000000000000000A9        170192964704     
0010001300332U 020000000000000000000000000000000000000000000000000000000000000000000000000000000000000000000000000000000000000000000000000203201700000000            000000000000000                              000                           
0010001300333T 020180230000002544776 29647040984936856   7               04032017000000000006000001012467                         0900000000000010000000000000000000000000000000000000000   0000000000000000000000000A9        170192964704     
0010001300334U 020000000000000000000000000000000000000000000000000000000000000000000000000000000000000000000000000000000000000000000000000203201700000000            000000000000000                              000                           
0010001300335T 020180230000002544776 29647040984944765   7               04032017000000000006000001012467                         0900000000000010000000000000000000000000000000000000000   0000000000000000000000000A9        170192964704     
0010001300336U 020000000000000000000000000000000000000000000000000000000000000000000000000000000000000000000000000000000000000000000000000203201700000000            000000000000000                              000                           
0010001300337T 020180230000002544776 29647040985117089   7               04032017000000000006000001021385                         0900000000000010000000000000000000000000000000000000000   0000000000000000000000000A9        170192964704     
0010001300338U 020000000000000000000000000000000000000000000000000000000000000000000000000000000000000000000000000000000000000000000000000203201700000000            000000000000000                              000                           
0010001300339T 020180230000002544776 29647040985215296   7               0403201700000000000800000103956X                         0900000000000010000000000000000000000000000000000000000   0000000000000000000000000A9        170192964704     
0010001300340U 020000000000000000000000000000000000000000000000000000000000000000000000000000000000000000000000000000000000000000000000000203201700000000            000000000000000                              000                           
0010001300341T 020180230000002544776 29647040985411474   7               04032017000000000006000001001597                         0900000000000010000000000000000000000000000000000000000   0000000000000000000000000A9        170192964704     
0010001300342U 020000000000000000000000000000000000000000000000000000000000000000000000000000000000000000000000000000000000000000000000000203201700000000            000000000000000                              000                           
0010001300343T 020180230000002544776 29647040985415898   7               04032017000000000006000001001597                         0900000000000010000000000000000000000000000000000000000   0000000000000000000000000A9        170192964704     
0010001300344U 020000000000000000000000000000000000000000000000000000000000000000000000000000000000000000000000000000000000000000000000000203201700000000            000000000000000                              000                           
0010001300345T 020180230000002544776 29647040985533339   7               04032017000000000008000001044865                         0900000000000010000000000000000000000000000000000000000   0000000000000000000000000A9        170192964704     
0010001300346U 020000000000000000000000000000000000000000000000000000000000000000000000000000000000000000000000000000000000000000000000000203201700000000            000000000000000                              000                           
0010001300347T 020180230000002544776 29647040985644386   7               04032017000000000006000001000132                         0900000000000010000000000000000000000000000000000000000   0000000000000000000000000A9        170192964704     
0010001300348U 020000000000000000000000000000000000000000000000000000000000000000000000000000000000000000000000000000000000000000000000000203201700000000            000000000000000                              000                           
0010001300349T 020180230000002544776 29647040986412523   7               04032017000000000006000001028029                         0900000000000010000000000000000000000000000000000000000   0000000000000000000000000A9        170192964704     
0010001300350U 020000000000000000000000000000000000000000000000000000000000000000000000000000000000000000000000000000000000000000000000000203201700000000            000000000000000                              000                           
0010001300351T 020180230000002544776 29647040986531186   7               04032017000000000006000001012467                         0900000000000010000000000000000000000000000000000000000   0000000000000000000000000A9        170192964704     
0010001300352U 020000000000000000000000000000000000000000000000000000000000000000000000000000000000000000000000000000000000000000000000000203201700000000            000000000000000                              000                           
0010001300353T 020180230000002544776 29647040986726171   7               04032017000000000006000001016179                         0900000000000010000000000000000000000000000000000000000   0000000000000000000000000A9        170192964704     
0010001300354U 020000000000000000000000000000000000000000000000000000000000000000000000000000000000000000000000000000000000000000000000000203201700000000            000000000000000                              000                           
0010001300355T 020180230000002544776 29647040986905064   7               04032017000000000008000001028029                         0900000000000010000000000000000000000000000000000000000   0000000000000000000000000A9        170192964704     
0010001300356U 020000000000000000000000000000000000000000000000000000000000000000000000000000000000000000000000000000000000000000000000000203201700000000            000000000000000                              000                           
0010001300357T 020180230000002544776 29647040986914677   7               04032017000000000008000001028029                         0900000000000010000000000000000000000000000000000000000   0000000000000000000000000A9        170192964704     
0010001300358U 020000000000000000000000000000000000000000000000000000000000000000000000000000000000000000000000000000000000000000000000000203201700000000            000000000000000                              000                           
0010001300359T 020180230000002544776 29647040987006551   7               04032017000000000006000001023655                         0900000000000010000000000000000000000000000000000000000   0000000000000000000000000A9        170192964704     
0010001300360U 020000000000000000000000000000000000000000000000000000000000000000000000000000000000000000000000000000000000000000000000000203201700000000            000000000000000                              000                           
0010001300361T 020180230000002544776 29647040987158761   7               04032017000000000006000001000698                         0900000000000010000000000000000000000000000000000000000   0000000000000000000000000A9        170192964704     
0010001300362U 020000000000000000000000000000000000000000000000000000000000000000000000000000000000000000000000000000000000000000000000000203201700000000            000000000000000                              000                           
0010001300363T 020180230000002544776 29647040987203797   7               04032017000000000006000001000132                         0900000000000010000000000000000000000000000000000000000   0000000000000000000000000A9        170192964704     
0010001300364U 020000000000000000000000000000000000000000000000000000000000000000000000000000000000000000000000000000000000000000000000000203201700000000            000000000000000                              000                           
0010001300365T 020180230000002544776 29647040987421065   7               04032017000000000006000001016179                         0900000000000010000000000000000000000000000000000000000   0000000000000000000000000A9        170192964704     
0010001300366U 020000000000000000000000000000000000000000000000000000000000000000000000000000000000000000000000000000000000000000000000000203201700000000            000000000000000                              000                           
0010001300367T 020180230000002544776 29647040987556261   7               04032017000000000006000001016179                         0900000000000010500000000000000000000000000000000000000   0000000000000000000000000A9A4      170192964704     
0010001300368U 020000000000000000000000000000000000000000000000000000000000000000000000000000000000000000000000000000000000000000000000000203201700000000            000000000000000                              000                           
0010001300369T 020180230000002544776 29647040987656417   7               04032017000000000006000001023655                         0900000000000010000000000000000000000000000000000000000   0000000000000000000000000A9        170192964704     
0010001300370U 020000000000000000000000000000000000000000000000000000000000000000000000000000000000000000000000000000000000000000000000000203201700000000            000000000000000                              000                           
0010001300371T 020180230000002544776 29647040988014368   7               04032017000000000006000001000132                         0900000000000010000000000000000000000000000000000000000   0000000000000000000000000A9        170192964704     
0010001300372U 020000000000000000000000000000000000000000000000000000000000000000000000000000000000000000000000000000000000000000000000000203201700000000            000000000000000                              000                           
0010001300373T 020180230000002544776 29647040988202772   7               04032017000000000006000001016179                         0900000000000010000000000000000000000000000000000000000   0000000000000000000000000A9        170192964704     
0010001300374U 020000000000000000000000000000000000000000000000000000000000000000000000000000000000000000000000000000000000000000000000000203201700000000            000000000000000                              000                           
0010001300375T 020180230000002544776 29647040988308295   7               04032017000000000008000001000361                         0900000000000010500000000000000000000000000000000000000   0000000000000000000000000A9A4      170192964704     
0010001300376U 020000000000000000000000000000000000000000000000000000000000000000000000000000000000000000000000000000000000000000000000000203201700000000            000000000000000                              000                           
0010001300377T 020180230000002544776 29647040988558474   7               04032017000000000006000001012467                         0900000000000010000000000000000000000000000000000000000   0000000000000000000000000A9        170192964704     
0010001300378U 020000000000000000000000000000000000000000000000000000000000000000000000000000000000000000000000000000000000000000000000000203201700000000            000000000000000                              000                           
0010001300379T 020180230000002544776 29647040988653594   7               04032017000000000006000001028029                         0900000000000010000000000000000000000000000000000000000   0000000000000000000000000A9        170192964704     
0010001300380U 020000000000000000000000000000000000000000000000000000000000000000000000000000000000000000000000000000000000000000000000000203201700000000            000000000000000                              000                           
0010001300381T 020180230000002544776 29647040988901101   7               04032017000000000008000001000132                         0900000000000010000000000000000000000000000000000000000   0000000000000000000000000A9        170192964704     
0010001300382U 020000000000000000000000000000000000000000000000000000000000000000000000000000000000000000000000000000000000000000000000000203201700000000            000000000000000                              000                           
0010001300383T 020180230000002544776 29647040988918398   7               04032017000000000008000001000132                         0900000000000010000000000000000000000000000000000000000   0000000000000000000000000A9        170192964704     
0010001300384U 020000000000000000000000000000000000000000000000000000000000000000000000000000000000000000000000000000000000000000000000000203201700000000            000000000000000                              000                           
0010001300385T 020180230000002544776 29647040988923509   7               04032017000000000008000001000132                         0900000000000010000000000000000000000000000000000000000   0000000000000000000000000A9        170192964704     
0010001300386U 020000000000000000000000000000000000000000000000000000000000000000000000000000000000000000000000000000000000000000000000000203201700000000            000000000000000                              000                           
0010001300387T 020180230000002544776 29647040988933793   7               04032017000000000008000001000132                         0900000000000010000000000000000000000000000000000000000   0000000000000000000000000A9        170192964704     
0010001300388U 020000000000000000000000000000000000000000000000000000000000000000000000000000000000000000000000000000000000000000000000000203201700000000            000000000000000                              000                           
0010001300389T 020180230000002544776 29647040988945676   7               04032017000000000008000001000132                         0900000000000010000000000000000000000000000000000000000   0000000000000000000000000A9        170192964704     
0010001300390U 020000000000000000000000000000000000000000000000000000000000000000000000000000000000000000000000000000000000000000000000000203201700000000            000000000000000                              000                           
0010001300391T 020180230000002544776 29647040988951132   7               04032017000000000008000001000132                         0900000000000010000000000000000000000000000000000000000   0000000000000000000000000A9        170192964704     
0010001300392U 020000000000000000000000000000000000000000000000000000000000000000000000000000000000000000000000000000000000000000000000000203201700000000            000000000000000                              000                           
0010001300393T 020180230000002544776 29647040988959842   7               04032017000000000008000001000132                         0900000000000010000000000000000000000000000000000000000   0000000000000000000000000A9        170192964704     
0010001300394U 020000000000000000000000000000000000000000000000000000000000000000000000000000000000000000000000000000000000000000000000000203201700000000            000000000000000                              000                           
0010001300395T 020180230000002544776 29647040989302500   7               04032017000000000006000001016179                         0900000000000010000000000000000000000000000000000000000   0000000000000000000000000A9        170192964704     
0010001300396U 020000000000000000000000000000000000000000000000000000000000000000000000000000000000000000000000000000000000000000000000000203201700000000            000000000000000                              000                           
0010001300397T 020180230000002544776 29647040989434728   7               04032017000000000006000001004332                         0900000000000010000000000000000000000000000000000000000   0000000000000000000000000A9        170192964704     
0010001300398U 020000000000000000000000000000000000000000000000000000000000000000000000000000000000000000000000000000000000000000000000000203201700000000            000000000000000                              000                           
0010001300399T 020180230000002544776 29647040989540702   7               04032017000000000006000001016179                         0900000000000010000000000000000000000000000000000000000   0000000000000000000000000A9        170192964704     
0010001300400U 020000000000000000000000000000000000000000000000000000000000000000000000000000000000000000000000000000000000000000000000000203201700000000            000000000000000                              000                           
0010001300401T 020180230000002544776 29647040989754555   7               04032017000000000006000001018376                         0900000000000010000000000000000000000000000000000000000   0000000000000000000000000A9        170192964704     
0010001300402U 020000000000000000000000000000000000000000000000000000000000000000000000000000000000000000000000000000000000000000000000000203201700000000            000000000000000                              000                           
0010001300403T 020180230000002544776 29647040989829328   7               04032017000000000006000001007145                         0900000000000010500000000000000000000000000000000000000   0000000000000000000000000A9A4      170192964704     
0010001300404U 020000000000000000000000000000000000000000000000000000000000000000000000000000000000000000000000000000000000000000000000000203201700000000            000000000000000                              000                           
0010001300405T 020180230000002544776 29647040990208324   7               04032017000000000006000001000132                         0900000000000010000000000000000000000000000000000000000   0000000000000000000000000A9        170192964704     
0010001300406U 020000000000000000000000000000000000000000000000000000000000000000000000000000000000000000000000000000000000000000000000000203201700000000            000000000000000                              000                           
0010001300407T 020180230000002544776 29647040990516183   7               04032017000000000006000001028029                         0900000000000010000000000000000000000000000000000000000   0000000000000000000000000A9        170192964704     
0010001300408U 020000000000000000000000000000000000000000000000000000000000000000000000000000000000000000000000000000000000000000000000000203201700000000            000000000000000                              000                           
0010001300409T 020180230000002544776 29647040990552924   7               04032017000000000006000001028029                         0900000000000010000000000000000000000000000000000000000   0000000000000000000000000A9        170192964704     
0010001300410U 020000000000000000000000000000000000000000000000000000000000000000000000000000000000000000000000000000000000000000000000000203201700000000            000000000000000                              000                           
0010001300411T 020180230000002544776 29647040990925307   7               04032017000000000006000001028029                         0900000000000010000000000000000000000000000000000000000   0000000000000000000000000A9        170192964704     
0010001300412U 020000000000000000000000000000000000000000000000000000000000000000000000000000000000000000000000000000000000000000000000000203201700000000            000000000000000                              000                           
