00100000         2247745860001000029647040014       0180230000002544776 INSTITUTO DE SELECAO E TECNOLOBANCO DO BRASIL                         20303201701113600004603000000515122941PROCESSAMEN                                                 
00100011T0100020 20247745860001000029647040014       0180230000002544776 INSTITUTO DE SELECAO E TECNOLO                                                                                000000000303201700000000  000000000                      
0010001300001T 020180230000002544776 29647040515908592   7               05032017000000000008000001001368                         0900000000000010000000000000000000000000000000000000000   0000000000000000000000000A9        170192964704     
0010001300002U 020000000000000000000000000000000000000000000000000000000000000000000000000000000000000000000000000000000000000000000000000303201700000000            000000000000000                              000                           
0010001300003T 020180230000002544776 29647040517556952   7               05032017000000000006000001028029                         0900000000000010000000000000000000000000000000000000000   0000000000000000000000000A9        170192964704     
0010001300004U 020000000000000000000000000000000000000000000000000000000000000000000000000000000000000000000000000000000000000000000000000303201700000000            000000000000000                              000                           
0010001300005T 020180230000002544776 29647040518836380   7               05032017000000000006000001000493                         0900000000000010000000000000000000000000000000000000000   0000000000000000000000000A9        170192964704     
0010001300006U 020000000000000000000000000000000000000000000000000000000000000000000000000000000000000000000000000000000000000000000000000303201700000000            000000000000000                              000                           
0010001300007T 020180230000002544776 29647040538123026   7               04032017000000000006000001024430                         0900000000000010000000000000000000000000000000000000000   0000000000000000000000000A9        170192964704     
0010001300008U 020000000000000000000000000000000000000000000000000000000000000000000000000000000000000000000000000000000000000000000000000203201700000000            000000000000000                              000                           
0010001300009T 020180230000002544776 29647040538143922   7               04032017000000000006000001024430                         0900000000000010000000000000000000000000000000000000000   0000000000000000000000000A9        170192964704     
0010001300010U 020000000000000000000000000000000000000000000000000000000000000000000000000000000000000000000000000000000000000000000000000203201700000000            000000000000000                              000                           
0010001300011T 020180230000002544776 29647040545042372   7               05032017000000000008000001016179                         0900000000000010000000000000000000000000000000000000000   0000000000000000000000000A9        170192964704     
0010001300012U 020000000000000000000000000000000000000000000000000000000000000000000000000000000000000000000000000000000000000000000000000303201700000000            000000000000000                              000                           
0010001300013T 020180230000002544776 29647040555132471   7               05032017000000000006000001033316                         0900000000000010000000000000000000000000000000000000000   0000000000000000000000000A9        170192964704     
0010001300014U 020000000000000000000000000000000000000000000000000000000000000000000000000000000000000000000000000000000000000000000000000303201700000000            000000000000000                              000                           
0010001300015T 020180230000002544776 29647040558858349   7               05032017000000000006000001000132                         0900000000000010500000000000000000000000000000000000000   0000000000000000000000000A9A4      170192964704     
0010001300016U 020000000000000000000000000000000000000000000000000000000000000000000000000000000000000000000000000000000000000000000000000303201700000000            000000000000000                              000                           
0010001300017T 020180230000002544776 29647040564725594   7               05032017000000000006000001016179                         0900000000000010000000000000000000000000000000000000000   0000000000000000000000000A9        170192964704     
0010001300018U 020000000000000000000000000000000000000000000000000000000000000000000000000000000000000000000000000000000000000000000000000303201700000000            000000000000000                              000                           
0010001300019T 020180230000002544776 29647040568904954   7               05032017000000000006000001010189                         0900000000000010000000000000000000000000000000000000000   0000000000000000000000000A9        170192964704     
0010001300020U 020000000000000000000000000000000000000000000000000000000000000000000000000000000000000000000000000000000000000000000000000303201700000000            000000000000000                              000                           
0010001300021T 020180230000002544776 29647040577654488   7               05032017000000000006000001033316                         0900000000000010000000000000000000000000000000000000000   0000000000000000000000000A9        170192964704     
0010001300022U 020000000000000000000000000000000000000000000000000000000000000000000000000000000000000000000000000000000000000000000000000303201700000000            000000000000000                              000                           
0010001300023T 020180230000002544776 29647040585150474   7               05032017000000000008000001016179                         0900000000000010000000000000000000000000000000000000000   0000000000000000000000000A9        170192964704     
0010001300024U 020000000000000000000000000000000000000000000000000000000000000000000000000000000000000000000000000000000000000000000000000303201700000000            000000000000000                              000                           
0010001300025T 020180230000002544776 29647040588615617   7               05032017000000000006000001011398                         0900000000000010000000000000000000000000000000000000000   0000000000000000000000000A9        170192964704     
0010001300026U 020000000000000000000000000000000000000000000000000000000000000000000000000000000000000000000000000000000000000000000000000303201700000000            000000000000000                              000                           
0010001300027T 020180230000002544776 29647040592915189   7               05032017000000000006000001033316                         0900000000000010500000000000000000000000000000000000000   0000000000000000000000000A9A4      170192964704     
0010001300028U 020000000000000000000000000000000000000000000000000000000000000000000000000000000000000000000000000000000000000000000000000303201700000000            000000000000000                              000                           
0010001300029T 020180230000002544776 29647040594407805   7               05032017000000000008000001006343                         0900000000000010000000000000000000000000000000000000000   0000000000000000000000000A9        170192964704     
0010001300030U 020000000000000000000000000000000000000000000000000000000000000000000000000000000000000000000000000000000000000000000000000303201700000000            000000000000000                              000                           
0010001300031T 020180230000002544776 29647040594450672   7               05032017000000000008000001006343                         0900000000000010000000000000000000000000000000000000000   0000000000000000000000000A9        170192964704     
0010001300032U 020000000000000000000000000000000000000000000000000000000000000000000000000000000000000000000000000000000000000000000000000303201700000000            000000000000000                              000                           
0010001300033T 020180230000002544776 29647040631105930   7               04032017000000000008000001033316                         0900000000000010500000000000000000000000000000000000000   0000000000000000000000000A9A4      170192964704     
0010001300034U 020000000000000000000000000000000000000000000000000000000000000000000000000000000000000000000000000000000000000000000000000203201700000000            000000000000000                              000                           
0010001300035T 020180230000002544776 29647040663829809   7               05032017000000000006000001028029                         0900000000000010000000000000000000000000000000000000000   0000000000000000000000000A9        170192964704     
0010001300036U 020000000000000000000000000000000000000000000000000000000000000000000000000000000000000000000000000000000000000000000000000303201700000000            000000000000000                              000                           
0010001300037T 020180230000002544776 29647040685423236   7               05032017000000000006000001000132                         0900000000000010500000000000000000000000000000000000000   0000000000000000000000000A9A4      170192964704     
0010001300038U 020000000000000000000000000000000000000000000000000000000000000000000000000000000000000000000000000000000000000000000000000303201700000000            000000000000000                              000                           
0010001300039T 020180230000002544776 29647040708942453   7               05032017000000000006000001005428                         0900000000000010000000000000000000000000000000000000000   0000000000000000000000000A9        170192964704     
0010001300040U 020000000000000000000000000000000000000000000000000000000000000000000000000000000000000000000000000000000000000000000000000303201700000000            000000000000000                              000                           
0010001300041T 020180230000002544776 29647040721327054   7               05032017000000000006000001000132                         0900000000000010000000000000000000000000000000000000000   0000000000000000000000000A9        170192964704     
0010001300042U 020000000000000000000000000000000000000000000000000000000000000000000000000000000000000000000000000000000000000000000000000303201700000000            000000000000000                              000                           
0010001300043T 020180230000002544776 29647040736706030   7               05032017000000000006000001001597                         0900000000000010000000000000000000000000000000000000000   0000000000000000000000000A9        170192964704     
0010001300044U 020000000000000000000000000000000000000000000000000000000000000000000000000000000000000000000000000000000000000000000000000303201700000000            000000000000000                              000                           
0010001300045T 020180230000002544776 29647040761209409   7               05032017000000000006000001006211                         0900000000000010000000000000000000000000000000000000000   0000000000000000000000000A9        170192964704     
0010001300046U 020000000000000000000000000000000000000000000000000000000000000000000000000000000000000000000000000000000000000000000000000303201700000000            000000000000000                              000                           
0010001300047T 020180230000002544776 29647040773339069   7               05032017000000000006000001016179                         0900000000000010000000000000000000000000000000000000000   0000000000000000000000000A9        170192964704     
0010001300048U 020000000000000000000000000000000000000000000000000000000000000000000000000000000000000000000000000000000000000000000000000303201700000000            000000000000000                              000                           
0010001300049T 020180230000002544776 29647040774700823   7               05032017000000000006000001012467                         0900000000000010000000000000000000000000000000000000000   0000000000000000000000000A9        170192964704     
0010001300050U 020000000000000000000000000000000000000000000000000000000000000000000000000000000000000000000000000000000000000000000000000303201700000000            000000000000000                              000                           
0010001300051T 020180230000002544776 29647040793125115   7               05032017000000000008000001028029                         0900000000000010000000000000000000000000000000000000000   0000000000000000000000000A9        170192964704     
0010001300052U 020000000000000000000000000000000000000000000000000000000000000000000000000000000000000000000000000000000000000000000000000303201700000000            000000000000000                              000                           
0010001300053T 020180230000002544776 29647040824202846   7               05032017000000000006000001013617                         0900000000000010000000000000000000000000000000000000000   0000000000000000000000000A9        170192964704     
0010001300054U 020000000000000000000000000000000000000000000000000000000000000000000000000000000000000000000000000000000000000000000000000303201700000000            000000000000000                              000                           
0010001300055T 020180230000002544776 29647040824207263   7               05032017000000000006000001013617                         0900000000000010000000000000000000000000000000000000000   0000000000000000000000000A9        170192964704     
0010001300056U 020000000000000000000000000000000000000000000000000000000000000000000000000000000000000000000000000000000000000000000000000303201700000000            000000000000000                              000                           
0010001300057T 020180230000002544776 29647040833053453   7               05032017000000000008000001032859                         0900000000000010000000000000000000000000000000000000000   0000000000000000000000000A9        170192964704     
0010001300058U 020000000000000000000000000000000000000000000000000000000000000000000000000000000000000000000000000000000000000000000000000303201700000000            000000000000000                              000                           
0010001300059T 020180230000002544776 29647040837512451   7               05032017000000000006000001011274                         0900000000000010500000000000000000000000000000000000000   0000000000000000000000000A9A4      170192964704     
0010001300060U 020000000000000000000000000000000000000000000000000000000000000000000000000000000000000000000000000000000000000000000000000303201700000000            000000000000000                              000                           
0010001300061T 020180230000002544776 29647040843231891   7               05032017000000000006000001032859                         0900000000000010500000000000000000000000000000000000000   0000000000000000000000000A9A4      170192964704     
0010001300062U 020000000000000000000000000000000000000000000000000000000000000000000000000000000000000000000000000000000000000000000000000303201700000000            000000000000000                              000                           
0010001300063T 020180230000002544776 29647040843410681   7               05032017000000000006000001000132                         0900000000000010000000000000000000000000000000000000000   0000000000000000000000000A9        170192964704     
0010001300064U 020000000000000000000000000000000000000000000000000000000000000000000000000000000000000000000000000000000000000000000000000303201700000000            000000000000000                              000                           
0010001300065T 020180230000002544776 29647040843419816   7               05032017000000000006000001000132                         0900000000000010000000000000000000000000000000000000000   0000000000000000000000000A9        170192964704     
0010001300066U 020000000000000000000000000000000000000000000000000000000000000000000000000000000000000000000000000000000000000000000000000303201700000000            000000000000000                              000                           
0010001300067T 020180230000002544776 29647040846357847   7               05032017000000000008000001032859                         0900000000000010000000000000000000000000000000000000000   0000000000000000000000000A9        170192964704     
0010001300068U 020000000000000000000000000000000000000000000000000000000000000000000000000000000000000000000000000000000000000000000000000303201700000000            000000000000000                              000                           
0010001300069T 020180230000002544776 29647040846802501   7               05032017000000000006000001022748                         0900000000000010000000000000000000000000000000000000000   0000000000000000000000000A9        170192964704     
0010001300070U 020000000000000000000000000000000000000000000000000000000000000000000000000000000000000000000000000000000000000000000000000303201700000000            000000000000000                              000                           
0010001300071T 020180230000002544776 29647040860425607   7               05032017000000000006000001000132                         0900000000000010000000000000000000000000000000000000000   0000000000000000000000000A9        170192964704     
0010001300072U 020000000000000000000000000000000000000000000000000000000000000000000000000000000000000000000000000000000000000000000000000303201700000000            000000000000000                              000                           
0010001300073T 020180230000002544776 29647040861132059   7               05032017000000000006000001020478                         0900000000000010500000000000000000000000000000000000000   0000000000000000000000000A9A4      170192964704     
0010001300074U 020000000000000000000000000000000000000000000000000000000000000000000000000000000000000000000000000000000000000000000000000303201700000000            000000000000000                              000                           
0010001300075T 020180230000002544776 29647040862043901   7               05032017000000000006000001035041                         0900000000000010000000000000000000000000000000000000000   0000000000000000000000000A9        170192964704     
0010001300076U 020000000000000000000000000000000000000000000000000000000000000000000000000000000000000000000000000000000000000000000000000303201700000000            000000000000000                              000                           
0010001300077T 020180230000002544776 29647040862839425   7               05032017000000000006000001025429                         0900000000000010000000000000000000000000000000000000000   0000000000000000000000000A9        170192964704     
0010001300078U 020000000000000000000000000000000000000000000000000000000000000000000000000000000000000000000000000000000000000000000000000303201700000000            000000000000000                              000                           
0010001300079T 020180230000002544776 29647040862850691   7               05032017000000000006000001025429                         0900000000000010000000000000000000000000000000000000000   0000000000000000000000000A9        170192964704     
0010001300080U 020000000000000000000000000000000000000000000000000000000000000000000000000000000000000000000000000000000000000000000000000303201700000000            000000000000000                              000                           
0010001300081T 020180230000002544776 29647040862850739   7               05032017000000000006000001025429                         0900000000000010000000000000000000000000000000000000000   0000000000000000000000000A9        170192964704     
0010001300082U 020000000000000000000000000000000000000000000000000000000000000000000000000000000000000000000000000000000000000000000000000303201700000000            000000000000000                              000                           
0010001300083T 020180230000002544776 29647040863017607   7               05032017000000000006000001016179                         0900000000000010000000000000000000000000000000000000000   0000000000000000000000000A9        170192964704     
0010001300084U 020000000000000000000000000000000000000000000000000000000000000000000000000000000000000000000000000000000000000000000000000303201700000000            000000000000000                              000                           
0010001300085T 020180230000002544776 29647040866644211   7               05032017000000000006000001016179                         0900000000000010000000000000000000000000000000000000000   0000000000000000000000000A9        170192964704     
0010001300086U 020000000000000000000000000000000000000000000000000000000000000000000000000000000000000000000000000000000000000000000000000303201700000000            000000000000000                              000                           
0010001300087T 020180230000002544776 29647040867003811   7               05032017000000000006000001028029                         0900000000000010000000000000000000000000000000000000000   0000000000000000000000000A9        170192964704     
0010001300088U 020000000000000000000000000000000000000000000000000000000000000000000000000000000000000000000000000000000000000000000000000303201700000000            000000000000000                              000                           
0010001300089T 020180230000002544776 29647040893036151   7               05032017000000000006000001016179                         0900000000000010000000000000000000000000000000000000000   0000000000000000000000000A9        170192964704     
0010001300090U 020000000000000000000000000000000000000000000000000000000000000000000000000000000000000000000000000000000000000000000000000303201700000000            000000000000000                              000                           
0010001300091T 020180230000002544776 29647040898452757   7               05032017000000000008000001033316                         0900000000000010000000000000000000000000000000000000000   0000000000000000000000000A9        170192964704     
0010001300092U 020000000000000000000000000000000000000000000000000000000000000000000000000000000000000000000000000000000000000000000000000303201700000000            000000000000000                              000                           
0010001300093T 020180230000002544776 29647040898500108   7               05032017000000000006000001033316                         0900000000000010000000000000000000000000000000000000000   0000000000000000000000000A9        170192964704     
0010001300094U 020000000000000000000000000000000000000000000000000000000000000000000000000000000000000000000000000000000000000000000000000303201700000000            000000000000000                              000                           
0010001300095T 020180230000002544776 29647040909143440   7               05032017000000000006000001016179                         0900000000000010000000000000000000000000000000000000000   0000000000000000000000000A9        170192964704     
0010001300096U 020000000000000000000000000000000000000000000000000000000000000000000000000000000000000000000000000000000000000000000000000303201700000000            000000000000000                              000                           
0010001300097T 020180230000002544776 29647040913547656   7               05032017000000000006000001009083                         0900000000000010000000000000000000000000000000000000000   0000000000000000000000000A9        170192964704     
0010001300098U 020000000000000000000000000000000000000000000000000000000000000000000000000000000000000000000000000000000000000000000000000303201700000000            000000000000000                              000                           
0010001300099T 020180230000002544776 29647040914715435   7               05032017000000000006000001012467                         0900000000000010000000000000000000000000000000000000000   0000000000000000000000000A9        170192964704     
0010001300100U 020000000000000000000000000000000000000000000000000000000000000000000000000000000000000000000000000000000000000000000000000303201700000000            000000000000000                              000                           
0010001300101T 020180230000002544776 29647040923924690   7               05032017000000000006000001024252                         0900000000000010500000000000000000000000000000000000000   0000000000000000000000000A9A4      170192964704     
0010001300102U 020000000000000000000000000000000000000000000000000000000000000000000000000000000000000000000000000000000000000000000000000303201700000000            000000000000000                              000                           
0010001300103T 020180230000002544776 29647040927332627   7               05032017000000000006000001000132                         0900000000000010000000000000000000000000000000000000000   0000000000000000000000000A9        170192964704     
0010001300104U 020000000000000000000000000000000000000000000000000000000000000000000000000000000000000000000000000000000000000000000000000303201700000000            000000000000000                              000                           
0010001300105T 020180230000002544776 29647040929159016   7               05032017000000000008000001012467                         0900000000000010000000000000000000000000000000000000000   0000000000000000000000000A9        170192964704     
0010001300106U 020000000000000000000000000000000000000000000000000000000000000000000000000000000000000000000000000000000000000000000000000303201700000000            000000000000000                              000                           
0010001300107T 020180230000002544776 29647040931425196   7               05032017000000000006000001016179                         0900000000000010000000000000000000000000000000000000000   0000000000000000000000000A9        170192964704     
0010001300108U 020000000000000000000000000000000000000000000000000000000000000000000000000000000000000000000000000000000000000000000000000303201700000000            000000000000000                              000                           
0010001300109T 020180230000002544776 29647040932456596   7               05032017000000000006000001009636                         0900000000000010500000000000000000000000000000000000000   0000000000000000000000000A9A4      170192964704     
0010001300110U 020000000000000000000000000000000000000000000000000000000000000000000000000000000000000000000000000000000000000000000000000303201700000000            000000000000000                              000                           
0010001300111T 020180230000002544776 29647040947925362   7               05032017000000000006000001035033                         0900000000000010000000000000000000000000000000000000000   0000000000000000000000000A9        170192964704     
0010001300112U 020000000000000000000000000000000000000000000000000000000000000000000000000000000000000000000000000000000000000000000000000303201700000000            000000000000000                              000                           
0010001300113T 020180230000002544776 29647040952747710   7               05032017000000000006000001000205                         0900000000000010000000000000000000000000000000000000000   0000000000000000000000000A9        170192964704     
0010001300114U 020000000000000000000000000000000000000000000000000000000000000000000000000000000000000000000000000000000000000000000000000303201700000000            000000000000000                              000                           
0010001300115T 020180230000002544776 29647040967132902   7               05032017000000000006000001016179                         0900000000000010000000000000000000000000000000000000000   0000000000000000000000000A9        170192964704     
0010001300116U 020000000000000000000000000000000000000000000000000000000000000000000000000000000000000000000000000000000000000000000000000303201700000000            000000000000000                              000                           
0010001300117T 020180230000002544776 29647040969302132   7               04032017000000000006000001016543                         0900000000000010000000000000000000000000000000000000000   0000000000000000000000000A9        170192964704     
0010001300118U 020000000000000000000000000000000000000000000000000000000000000000000000000000000000000000000000000000000000000000000000000203201700000000            000000000000000                              000                           
0010001300119T 020180230000002544776 29647040981120766   7               05032017000000000006000001000132                         0900000000000010000000000000000000000000000000000000000   0000000000000000000000000A9        170192964704     
0010001300120U 020000000000000000000000000000000000000000000000000000000000000000000000000000000000000000000000000000000000000000000000000303201700000000            000000000000000                              000                           
0010001300121T 020180230000002544776 29647040984921393   7               05032017000000000006000001012467                         0900000000000010000000000000000000000000000000000000000   0000000000000000000000000A9        170192964704     
0010001300122U 020000000000000000000000000000000000000000000000000000000000000000000000000000000000000000000000000000000000000000000000000303201700000000            000000000000000                              000                           
0010001300123T 020180230000002544776 29647040987238396   7               05032017000000000006000001000132                         0900000000000010000000000000000000000000000000000000000   0000000000000000000000000A9        170192964704     
0010001300124U 020000000000000000000000000000000000000000000000000000000000000000000000000000000000000000000000000000000000000000000000000303201700000000            000000000000000                              000                           
0010001300125T 020180230000002544776 29647040987407170   7               05032017000000000006000001016179                         0900000000000010000000000000000000000000000000000000000   0000000000000000000000000A9        170192964704     
0010001300126U 020000000000000000000000000000000000000000000000000000000000000000000000000000000000000000000000000000000000000000000000000303201700000000            000000000000000                              000                           
0010001300127T 020180230000002544776 29647040991152416   7               0503201700000000000800000101849X                         0900000000000010000000000000000000000000000000000000000   0000000000000000000000000A9        170192964704     
0010001300128U 020000000000000000000000000000000000000000000000000000000000000000000000000000000000000000000000000000000000000000000000000303201700000000            000000000000000                              000                           
0010001300129T 020180230000002544776 29647040993547780   7               05032017000000000006000001013692                         0900000000000010500000000000000000000000000000000000000   0000000000000000000000000A9A4      170192964704     
0010001300130U 020000000000000000000000000000000000000000000000000000000000000000000000000000000000000000000000000000000000000000000000000303201700000000            000000000000000                              000                           
0010001300131T 020180230000002544776 29647040993930733   7               05032017000000000008000001016179                         0900000000000010000000000000000000000000000000000000000   0000000000000000000000000A9        170192964704     
0010001300132U 020000000000000000000000000000000000000000000000000000000000000000000000000000000000000000000000000000000000000000000000000303201700000000            000000000000000                              000                           
0010001300133T 020180230000002544776 29647040995003249   7               04032017000000000006000001002003                         0900000000000010000000000000000000000000000000000000000   0000000000000000000000000A9        170192964704     
0010001300134U 020000000000000000000000000000000000000000000000000000000000000000000000000000000000000000000000000000000000000000000000000203201700000000            000000000000000                              000                           
0010001300135T 020180230000002544776 29647040998557198   7               04032017000000000006000001000132                         0900000000000010000000000000000000000000000000000000000   0000000000000000000000000A9        170192964704     
0010001300136U 020000000000000000000000000000000000000000000000000000000000000000000000000000000000000000000000000000000000000000000000000203201700000000            000000000000000                              000                           
0010001300137T 020180230000002544776 29647040998619607   7               04032017000000000006000001007145                         0900000000000010000000000000000000000000000000000000000   0000000000000000000000000A9        170192964704     
0010001300138U 020000000000000000000000000000000000000000000000000000000000000000000000000000000000000000000000000000000000000000000000000203201700000000            000000000000000                              000                           
0010001300139T 020180230000002544776 29647040998751437   7               04032017000000000006000001000132                         0900000000000010500000000000000000000000000000000000000   0000000000000000000000000A9A4      170192964704     
0010001300140U 020000000000000000000000000000000000000000000000000000000000000000000000000000000000000000000000000000000000000000000000000203201700000000            000000000000000                              000                           
0010001300141T 020180230000002544776 29647040999210315   7               04032017000000000008000001001287                         0900000000000010000000000000000000000000000000000000000   0000000000000000000000000A9        170192964704     
0010001300142U 020000000000000000000000000000000000000000000000000000000000000000000000000000000000000000000000000000000000000000000000000203201700000000            000000000000000                              000                           
0010001300143T 020180230000002544776 29647040999248285   7               04032017000000000008000001001287                         0900000000000010000000000000000000000000000000000000000   0000000000000000000000000A9        170192964704     
0010001300144U 020000000000000000000000000000000000000000000000000000000000000000000000000000000000000000000000000000000000000000000000000203201700000000            000000000000000                              000                           
0010001300145T 020180230000002544776 29647040999431477   7               04032017000000000006000001033316                         0900000000000010000000000000000000000000000000000000000   0000000000000000000000000A9        170192964704     
0010001300146U 020000000000000000000000000000000000000000000000000000000000000000000000000000000000000000000000000000000000000000000000000203201700000000            000000000000000                              000                           
0010001300147T 020180230000002544776 29647040999507189   7               04032017000000000006000001013617                         0900000000000010000000000000000000000000000000000000000   0000000000000000000000000A9        170192964704     
0010001300148U 020000000000000000000000000000000000000000000000000000000000000000000000000000000000000000000000000000000000000000000000000203201700000000            000000000000000                              000                           
0010001300149T 020180230000002544776 29647040999507369   7               05032017000000000006000001013617                         0900000000000010000000000000000000000000000000000000000   0000000000000000000000000A9        170192964704     
0010001300150U 020000000000000000000000000000000000000000000000000000000000000000000000000000000000000000000000000000000000000000000000000303201700000000            000000000000000                              000                           
0010001300151T 020180230000002544776 29647040999524362   7               05032017000000000006000001013617                         0900000000000010000000000000000000000000000000000000000   0000000000000000000000000A9        170192964704     
0010001300152U 020000000000000000000000000000000000000000000000000000000000000000000000000000000000000000000000000000000000000000000000000303201700000000            000000000000000                              000                           
0010001300153T 020180230000002544776 29647040999552169   7               05032017000000000006000001013617                         0900000000000010000000000000000000000000000000000000000   0000000000000000000000000A9        170192964704     
0010001300154U 020000000000000000000000000000000000000000000000000000000000000000000000000000000000000000000000000000000000000000000000000303201700000000            000000000000000                              000                           
0010001300155T 020180230000002544776 29647040999554202   7               05032017000000000006000001013617                         0900000000000010000000000000000000000000000000000000000   0000000000000000000000000A9        170192964704     
0010001300156U 020000000000000000000000000000000000000000000000000000000000000000000000000000000000000000000000000000000000000000000000000303201700000000            000000000000000                              000                           
0010001300157T 020180230000002544776 29647040999830057   7               04032017000000000006000001016179                         0900000000000010000000000000000000000000000000000000000   0000000000000000000000000A9        170192964704     
0010001300158U 020000000000000000000000000000000000000000000000000000000000000000000000000000000000000000000000000000000000000000000000000203201700000000            000000000000000                              000                           
0010001300159T 020180230000002544776 29647041000114955   7               04032017000000000006000001012467                         0900000000000010000000000000000000000000000000000000000   0000000000000000000000000A9        170192964704     
0010001300160U 020000000000000000000000000000000000000000000000000000000000000000000000000000000000000000000000000000000000000000000000000203201700000000            000000000000000                              000                           
0010001300161T 020180230000002544776 29647041000151180   7               04032017000000000006000001012467                         0900000000000010000000000000000000000000000000000000000   0000000000000000000000000A9        170192964704     
0010001300162U 020000000000000000000000000000000000000000000000000000000000000000000000000000000000000000000000000000000000000000000000000203201700000000            000000000000000                              000                           
0010001300163T 020180230000002544776 29647041000152541   7               04032017000000000006000001012467                         0900000000000010000000000000000000000000000000000000000   0000000000000000000000000A9        170192964704     
0010001300164U 020000000000000000000000000000000000000000000000000000000000000000000000000000000000000000000000000000000000000000000000000203201700000000            000000000000000                              000                           
0010001300165T 020180230000002544776 29647041000353828   7               05032017000000000006000001001201                         0900000000000010000000000000000000000000000000000000000   0000000000000000000000000A9        170192964704     
0010001300166U 020000000000000000000000000000000000000000000000000000000000000000000000000000000000000000000000000000000000000000000000000303201700000000            000000000000000                              000                           
0010001300167T 020180230000002544776 29647041000559313   7               05032017000000000006000001022756                         0900000000000010000000000000000000000000000000000000000   0000000000000000000000000A9        170192964704     
0010001300168U 020000000000000000000000000000000000000000000000000000000000000000000000000000000000000000000000000000000000000000000000000303201700000000            000000000000000                              000                           
0010001300169T 020180230000002544776 29647041000759360   7               05032017000000000006000001000132                         0900000000000010000000000000000000000000000000000000000   0000000000000000000000000A9        170192964704     
0010001300170U 020000000000000000000000000000000000000000000000000000000000000000000000000000000000000000000000000000000000000000000000000303201700000000            000000000000000                              000                           
0010001300171T 020180230000002544776 29647041000959448   7               05032017000000000006000001021962                         0900000000000010000000000000000000000000000000000000000   0000000000000000000000000A9        170192964704     
0010001300172U 020000000000000000000000000000000000000000000000000000000000000000000000000000000000000000000000000000000000000000000000000303201700000000            000000000000000                              000                           
0010001300173T 020180230000002544776 29647041001255303   7               05032017000000000006000001016179                         0900000000000010000000000000000000000000000000000000000   0000000000000000000000000A9        170192964704     
0010001300174U 020000000000000000000000000000000000000000000000000000000000000000000000000000000000000000000000000000000000000000000000000303201700000000            000000000000000                              000                           
0010001300175T 020180230000002544776 29647041001423109   7               05032017000000000006000001028029                         0900000000000010000000000000000000000000000000000000000   0000000000000000000000000A9        170192964704     
0010001300176U 020000000000000000000000000000000000000000000000000000000000000000000000000000000000000000000000000000000000000000000000000303201700000000            000000000000000                              000                           
0010001300177T 020180230000002544776 29647041001511147   7               05032017000000000006000001028495                         0900000000000010000000000000000000000000000000000000000   0000000000000000000000000A9        170192964704     
0010001300178U 020000000000000000000000000000000000000000000000000000000000000000000000000000000000000000000000000000000000000000000000000303201700000000            000000000000000                              000                           
0010001300179T 020180230000002544776 29647041001635014   7               05032017000000000006000001012688                         0900000000000010000000000000000000000000000000000000000   0000000000000000000000000A9        170192964704     
0010001300180U 020000000000000000000000000000000000000000000000000000000000000000000000000000000000000000000000000000000000000000000000000303201700000000            000000000000000                              000                           
0010001300181T 020180230000002544776 29647041001913807   7               05032017000000000006000001013617                         0900000000000010000000000000000000000000000000000000000   0000000000000000000000000A9        170192964704     
0010001300182U 020000000000000000000000000000000000000000000000000000000000000000000000000000000000000000000000000000000000000000000000000303201700000000            000000000000000                              000                           
0010001300183T 020180230000002544776 29647041001940323   7               05032017000000000006000001013617                         0900000000000010000000000000000000000000000000000000000   0000000000000000000000000A9        170192964704     
0010001300184U 020000000000000000000000000000000000000000000000000000000000000000000000000000000000000000000000000000000000000000000000000303201700000000            000000000000000                              000                           
0010001300185T 020180230000002544776 29647041002210700   7               05032017000000000006000001033316                         0900000000000010000000000000000000000000000000000000000   0000000000000000000000000A9        170192964704     
0010001300186U 020000000000000000000000000000000000000000000000000000000000000000000000000000000000000000000000000000000000000000000000000303201700000000            000000000000000                              000                           
0010001300187T 020180230000002544776 29647041002301301   7               05032017000000000006000001033316                         0900000000000010000000000000000000000000000000000000000   0000000000000000000000000A9        170192964704     
0010001300188U 020000000000000000000000000000000000000000000000000000000000000000000000000000000000000000000000000000000000000000000000000303201700000000            000000000000000                              000                           
0010001300189T 020180230000002544776 29647041002325525   7               05032017000000000006000001033316                         0900000000000010000000000000000000000000000000000000000   0000000000000000000000000A9        170192964704     
0010001300190U 020000000000000000000000000000000000000000000000000000000000000000000000000000000000000000000000000000000000000000000000000303201700000000            000000000000000                              000                           
0010001300191T 020180230000002544776 29647041002348270   7               05032017000000000006000001033316                         0900000000000010000000000000000000000000000000000000000   0000000000000000000000000A9        170192964704     
0010001300192U 020000000000000000000000000000000000000000000000000000000000000000000000000000000000000000000000000000000000000000000000000303201700000000            000000000000000                              000                           
0010001300193T 020180230000002544776 29647041002825422   7               05032017000000000008000001003018                         0900000000000010000000000000000000000000000000000000000   0000000000000000000000000A9        170192964704     
0010001300194U 020000000000000000000000000000000000000000000000000000000000000000000000000000000000000000000000000000000000000000000000000303201700000000            000000000000000                              000                           
0010001300195T 020180230000002544776 29647041002847339   7               05032017000000000008000001003018                         0900000000000010000000000000000000000000000000000000000   0000000000000000000000000A9        170192964704     
0010001300196U 020000000000000000000000000000000000000000000000000000000000000000000000000000000000000000000000000000000000000000000000000303201700000000            000000000000000                              000                           
0010001300197T 020180230000002544776 29647041003031774   7               05032017000000000006000001028029                         0900000000000010500000000000000000000000000000000000000   0000000000000000000000000A9A4      170192964704     
0010001300198U 020000000000000000000000000000000000000000000000000000000000000000000000000000000000000000000000000000000000000000000000000303201700000000            000000000000000                              000                           
0010001300199T 020180230000002544776 29647041003140687   7               05032017000000000006000001000132                         0900000000000010500000000000000000000000000000000000000   0000000000000000000000000A9A4      170192964704     
0010001300200U 020000000000000000000000000000000000000000000000000000000000000000000000000000000000000000000000000000000000000000000000000303201700000000            000000000000000                              000                           
0010001300201T 020180230000002544776 29647041003454362   7               0503201700000000000600000101981X                         0900000000000010000000000000000000000000000000000000000   0000000000000000000000000A9        170192964704     
0010001300202U 020000000000000000000000000000000000000000000000000000000000000000000000000000000000000000000000000000000000000000000000000303201700000000            000000000000000                              000                           
0010001300203T 020180230000002544776 29647041003528383   7               05032017000000000006000001016179                         0900000000000010000000000000000000000000000000000000000   0000000000000000000000000A9        170192964704     
0010001300204U 020000000000000000000000000000000000000000000000000000000000000000000000000000000000000000000000000000000000000000000000000303201700000000            000000000000000                              000                           
0010001300205T 020180230000002544776 29647041003746594   7               05032017000000000006000001016179                         0900000000000010000000000000000000000000000000000000000   0000000000000000000000000A9        170192964704     
0010001300206U 020000000000000000000000000000000000000000000000000000000000000000000000000000000000000000000000000000000000000000000000000303201700000000            000000000000000                              000                           
0010001300207T 020180230000002544776 29647041003824893   7               0503201700000000000600000101219X                         0900000000000010000000000000000000000000000000000000000   0000000000000000000000000A9        170192964704     
0010001300208U 020000000000000000000000000000000000000000000000000000000000000000000000000000000000000000000000000000000000000000000000000303201700000000            000000000000000                              000                           
0010001300209T 020180230000002544776 29647041004029031   7               05032017000000000006000001016810                         0900000000000010000000000000000000000000000000000000000   0000000000000000000000000A9        170192964704     
0010001300210U 020000000000000000000000000000000000000000000000000000000000000000000000000000000000000000000000000000000000000000000000000303201700000000            000000000000000                              000                           
0010001300211T 020180230000002544776 29647041004200489   7               05032017000000000008000001012467                         0900000000000010000000000000000000000000000000000000000   0000000000000000000000000A9        170192964704     
0010001300212U 020000000000000000000000000000000000000000000000000000000000000000000000000000000000000000000000000000000000000000000000000303201700000000            000000000000000                              000                           
0010001300213T 020180230000002544776 29647041004418804   7               05032017000000000006000001000132                         0900000000000010000000000000000000000000000000000000000   0000000000000000000000000A9        170192964704     
0010001300214U 020000000000000000000000000000000000000000000000000000000000000000000000000000000000000000000000000000000000000000000000000303201700000000            000000000000000                              000                           
0010001300215T 020180230000002544776 29647041004552862   7               05032017000000000006000001012467                         0900000000000010500000000000000000000000000000000000000   0000000000000000000000000A9A4      170192964704     
0010001300216U 020000000000000000000000000000000000000000000000000000000000000000000000000000000000000000000000000000000000000000000000000303201700000000            000000000000000                              000                           
0010001300217T 020180230000002544776 29647041004702033   7               05032017000000000006000001016179                         0900000000000010000000000000000000000000000000000000000   0000000000000000000000000A9        170192964704     
0010001300218U 020000000000000000000000000000000000000000000000000000000000000000000000000000000000000000000000000000000000000000000000000303201700000000            000000000000000                              000                           
0010001300219T 020180230000002544776 29647041004931107   7               05032017000000000006000001033316                         0900000000000010000000000000000000000000000000000000000   0000000000000000000000000A9        170192964704     
0010001300220U 020000000000000000000000000000000000000000000000000000000000000000000000000000000000000000000000000000000000000000000000000303201700000000            000000000000000                              000                           
0010001300221T 020180230000002544776 29647041004959392   7               05032017000000000006000001033316                         0900000000000010000000000000000000000000000000000000000   0000000000000000000000000A9        170192964704     
0010001300222U 020000000000000000000000000000000000000000000000000000000000000000000000000000000000000000000000000000000000000000000000000303201700000000            000000000000000                              000                           
0010001300223T 020180230000002544776 29647041005241704   7               05032017000000000006000001016179                         0900000000000010000000000000000000000000000000000000000   0000000000000000000000000A9        170192964704     
0010001300224U 020000000000000000000000000000000000000000000000000000000000000000000000000000000000000000000000000000000000000000000000000303201700000000            000000000000000                              000                           
0010001300225T 020180230000002544776 29647041005416179   7               05032017000000000008000001000132                         0900000000000010500000000000000000000000000000000000000   0000000000000000000000000A9A4      170192964704     
0010001300226U 020000000000000000000000000000000000000000000000000000000000000000000000000000000000000000000000000000000000000000000000000303201700000000            000000000000000                              000                           
0010001300227T 020180230000002544776 29647041005619692   7               05032017000000000006000001033316                         0900000000000010000000000000000000000000000000000000000   0000000000000000000000000A9        170192964704     
0010001300228U 020000000000000000000000000000000000000000000000000000000000000000000000000000000000000000000000000000000000000000000000000303201700000000            000000000000000                              000                           
0010001300229T 020180230000002544776 29647041005652981   7               05032017000000000006000001033316                         0900000000000010000000000000000000000000000000000000000   0000000000000000000000000A9        170192964704     
0010001300230U 020000000000000000000000000000000000000000000000000000000000000000000000000000000000000000000000000000000000000000000000000303201700000000            000000000000000                              000                           
0010001300231T 020180230000002544776 29647041005712537   7               05032017000000000006000001000132                         0900000000000010000000000000000000000000000000000000000   0000000000000000000000000A9        170192964704     
0010001300232U 020000000000000000000000000000000000000000000000000000000000000000000000000000000000000000000000000000000000000000000000000303201700000000            000000000000000                              000                           
0010001300233T 020180230000002544776 29647041005830988   7               05032017000000000008000001033316                         0900000000000010500000000000000000000000000000000000000   0000000000000000000000000A9A4      170192964704     
0010001300234U 020000000000000000000000000000000000000000000000000000000000000000000000000000000000000000000000000000000000000000000000000303201700000000            000000000000000                              000                           
0010001300235T 020180230000002544776 29647041006009143   7               05032017000000000006000001012688                         0900000000000010000000000000000000000000000000000000000   0000000000000000000000000A9        170192964704     
0010001300236U 020000000000000000000000000000000000000000000000000000000000000000000000000000000000000000000000000000000000000000000000000303201700000000            000000000000000                              000                           
0010001300237T 020180230000002544776 29647041006831900   7               05032017000000000006000001012823                         0900000000000010000000000000000000000000000000000000000   0000000000000000000000000A9        170192964704     
0010001300238U 020000000000000000000000000000000000000000000000000000000000000000000000000000000000000000000000000000000000000000000000000303201700000000            000000000000000                              000                           
0010001300239T 020180230000002544776 29647041007059137   7               05032017000000000006000001028029                         0900000000000010500000000000000000000000000000000000000   0000000000000000000000000A9A4      170192964704     
0010001300240U 020000000000000000000000000000000000000000000000000000000000000000000000000000000000000000000000000000000000000000000000000303201700000000            000000000000000                              000                           
0010001300241T 020180230000002544776 29647041007141903   7               05032017000000000006000001018376                         0900000000000010000000000000000000000000000000000000000   0000000000000000000000000A9        170192964704     
0010001300242U 020000000000000000000000000000000000000000000000000000000000000000000000000000000000000000000000000000000000000000000000000303201700000000            000000000000000                              000                           
0010001300243T 020180230000002544776 29647041007417302   7               05032017000000000006000001000132                         0900000000000010000000000000000000000000000000000000000   0000000000000000000000000A9        170192964704     
0010001300244U 020000000000000000000000000000000000000000000000000000000000000000000000000000000000000000000000000000000000000000000000000303201700000000            000000000000000                              000                           
0010001300245T 020180230000002544776 29647041007751040   7               05032017000000000006000001016179                         0900000000000010500000000000000000000000000000000000000   0000000000000000000000000A9A4      170192964704     
0010001300246U 020000000000000000000000000000000000000000000000000000000000000000000000000000000000000000000000000000000000000000000000000303201700000000            000000000000000                              000                           
0010001300247T 020180230000002544776 29647041008048701   7               05032017000000000006000001016179                         0900000000000010000000000000000000000000000000000000000   0000000000000000000000000A9        170192964704     
0010001300248U 020000000000000000000000000000000000000000000000000000000000000000000000000000000000000000000000000000000000000000000000000303201700000000            000000000000000                              000                           
0010001300249T 020180230000002544776 29647041008122806   7               05032017000000000006000001000132                         0900000000000010000000000000000000000000000000000000000   0000000000000000000000000A9        170192964704     
0010001300250U 020000000000000000000000000000000000000000000000000000000000000000000000000000000000000000000000000000000000000000000000000303201700000000            000000000000000                              000                           
0010001300251T 020180230000002544776 29647041008140289   7               05032017000000000006000001000132                         0900000000000010000000000000000000000000000000000000000   0000000000000000000000000A9        170192964704     
0010001300252U 020000000000000000000000000000000000000000000000000000000000000000000000000000000000000000000000000000000000000000000000000303201700000000            000000000000000                              000                           
0010001300253T 020180230000002544776 29647041008254502   7               05032017000000000006000001028029                         0900000000000010500000000000000000000000000000000000000   0000000000000000000000000A9A4      170192964704     
0010001300254U 020000000000000000000000000000000000000000000000000000000000000000000000000000000000000000000000000000000000000000000000000303201700000000            000000000000000                              000                           
0010001300255T 020180230000002544776 29647041008330926   7               05032017000000000006000001009636                         0900000000000010000000000000000000000000000000000000000   0000000000000000000000000A9        170192964704     
0010001300256U 020000000000000000000000000000000000000000000000000000000000000000000000000000000000000000000000000000000000000000000000000303201700000000            000000000000000                              000                           
0010001300257T 020180230000002544776 29647041008422201   7               05032017000000000006000001005428                         0900000000000010000000000000000000000000000000000000000   0000000000000000000000000A9        170192964704     
0010001300258U 020000000000000000000000000000000000000000000000000000000000000000000000000000000000000000000000000000000000000000000000000303201700000000            000000000000000                              000                           
0010001300259T 020180230000002544776 29647041008532866   7               05032017000000000006000001028029                         0900000000000010000000000000000000000000000000000000000   0000000000000000000000000A9        170192964704     
0010001300260U 020000000000000000000000000000000000000000000000000000000000000000000000000000000000000000000000000000000000000000000000000303201700000000            000000000000000                              000                           
0010001300261T 020180230000002544776 29647041008610999   7               05032017000000000006000001016179                         0900000000000010000000000000000000000000000000000000000   0000000000000000000000000A9        170192964704     
0010001300262U 020000000000000000000000000000000000000000000000000000000000000000000000000000000000000000000000000000000000000000000000000303201700000000            000000000000000                              000                           
0010001300263T 020180230000002544776 29647041008907887   7               05032017000000000006000001012467                         0900000000000010500000000000000000000000000000000000000   0000000000000000000000000A9A4      170192964704     
0010001300264U 020000000000000000000000000000000000000000000000000000000000000000000000000000000000000000000000000000000000000000000000000303201700000000            000000000000000                              000                           
0010001300265T 020180230000002544776 29647041009206960   7               05032017000000000006000001028495                         0900000000000010000000000000000000000000000000000000000   0000000000000000000000000A9        170192964704     
0010001300266U 020000000000000000000000000000000000000000000000000000000000000000000000000000000000000000000000000000000000000000000000000303201700000000            000000000000000                              000                           
0010001300267T 020180230000002544776 29647041009434059   7               05032017000000000006000001023655                         0900000000000010000000000000000000000000000000000000000   0000000000000000000000000A9        170192964704     
0010001300268U 020000000000000000000000000000000000000000000000000000000000000000000000000000000000000000000000000000000000000000000000000303201700000000            000000000000000                              000                           
0010001300269T 020180230000002544776 29647041009621120   7               05032017000000000006000001016179                         0900000000000010000000000000000000000000000000000000000   0000000000000000000000000A9        170192964704     
0010001300270U 020000000000000000000000000000000000000000000000000000000000000000000000000000000000000000000000000000000000000000000000000303201700000000            000000000000000                              000                           
0010001300271T 020180230000002544776 29647041010141104   7               05032017000000000006000001044865                         0900000000000010000000000000000000000000000000000000000   0000000000000000000000000A9        170192964704     
0010001300272U 020000000000000000000000000000000000000000000000000000000000000000000000000000000000000000000000000000000000000000000000000303201700000000            000000000000000                              000                           
0010001300273T 020180230000002544776 29647041010310818   7               05032017000000000006000001023655                         0900000000000010000000000000000000000000000000000000000   0000000000000000000000000A9        170192964704     
0010001300274U 020000000000000000000000000000000000000000000000000000000000000000000000000000000000000000000000000000000000000000000000000303201700000000            000000000000000                              000                           
0010001300275T 020180230000002544776 29647041010431045   7               05032017000000000006000001016179                         0900000000000010000000000000000000000000000000000000000   0000000000000000000000000A9        170192964704     
0010001300276U 020000000000000000000000000000000000000000000000000000000000000000000000000000000000000000000000000000000000000000000000000303201700000000            000000000000000                              000                           
0010001300277T 020180230000002544776 29647041010753483   7               05032017000000000008000001028029                         0900000000000010000000000000000000000000000000000000000   0000000000000000000000000A9        170192964704     
0010001300278U 020000000000000000000000000000000000000000000000000000000000000000000000000000000000000000000000000000000000000000000000000303201700000000            000000000000000                              000                           
0010001300279T 020180230000002544776 29647041011122162   7               05032017000000000008000001006009                         0900000000000010000000000000000000000000000000000000000   0000000000000000000000000A9        170192964704     
0010001300280U 020000000000000000000000000000000000000000000000000000000000000000000000000000000000000000000000000000000000000000000000000303201700000000            000000000000000                              000                           
0010001300281T 020180230000002544776 29647041011503565   7               05032017000000000006000001016179                         0900000000000010500000000000000000000000000000000000000   0000000000000000000000000A9A4      170192964704     
0010001300282U 020000000000000000000000000000000000000000000000000000000000000000000000000000000000000000000000000000000000000000000000000303201700000000            000000000000000                              000                           
0010001300283T 020180230000002544776 29647041011556738   7               05032017000000000006000001016179                         0900000000000010500000000000000000000000000000000000000   0000000000000000000000000A9A4      170192964704     
0010001300284U 020000000000000000000000000000000000000000000000000000000000000000000000000000000000000000000000000000000000000000000000000303201700000000            000000000000000                              000                           
0010001300285T 020180230000002544776 29647041011641806   7               05032017000000000006000001000132                         0900000000000010000000000000000000000000000000000000000   0000000000000000000000000A9        170192964704     
0010001300286U 020000000000000000000000000000000000000000000000000000000000000000000000000000000000000000000000000000000000000000000000000303201700000000            000000000000000                              000                           
0010001300287T 020180230000002544776 29647041011739601   7               05032017000000000006000001013617                         0900000000000010000000000000000000000000000000000000000   0000000000000000000000000A9        170192964704     
0010001300288U 020000000000000000000000000000000000000000000000000000000000000000000000000000000000000000000000000000000000000000000000000303201700000000            000000000000000                              000                           
0010001300289T 020180230000002544776 29647041011810490   7               05032017000000000006000001001287                         0900000000000010000000000000000000000000000000000000000   0000000000000000000000000A9        170192964704     
0010001300290U 020000000000000000000000000000000000000000000000000000000000000000000000000000000000000000000000000000000000000000000000000303201700000000            000000000000000                              000                           
0010001300291T 020180230000002544776 29647041011820841   7               05032017000000000006000001001287                         0900000000000010000000000000000000000000000000000000000   0000000000000000000000000A9        170192964704     
0010001300292U 020000000000000000000000000000000000000000000000000000000000000000000000000000000000000000000000000000000000000000000000000303201700000000            000000000000000                              000                           
0010001300293T 020180230000002544776 29647041012031163   7               05032017000000000008000001016179                         0900000000000010000000000000000000000000000000000000000   0000000000000000000000000A9        170192964704     
0010001300294U 020000000000000000000000000000000000000000000000000000000000000000000000000000000000000000000000000000000000000000000000000303201700000000            000000000000000                              000                           
0010001300295T 020180230000002544776 29647041012044920   7               05032017000000000008000001016179                         0900000000000010000000000000000000000000000000000000000   0000000000000000000000000A9        170192964704     
0010001300296U 020000000000000000000000000000000000000000000000000000000000000000000000000000000000000000000000000000000000000000000000000303201700000000            000000000000000                              000                           
0010001300297T 020180230000002544776 29647041012735793   7               05032017000000000008000001000132                         0900000000000010000000000000000000000000000000000000000   0000000000000000000000000A9        170192964704     
0010001300298U 020000000000000000000000000000000000000000000000000000000000000000000000000000000000000000000000000000000000000000000000000303201700000000            000000000000000                              000                           
0010001300299T 020180230000002544776 29647041012848767   7               05032017000000000008000001012467                         0900000000000010000000000000000000000000000000000000000   0000000000000000000000000A9        170192964704     
0010001300300U 020000000000000000000000000000000000000000000000000000000000000000000000000000000000000000000000000000000000000000000000000303201700000000            000000000000000                              000                           
0010001300301T 020180230000002544776 29647041012914220   7               05032017000000000008000001012467                         0900000000000010000000000000000000000000000000000000000   0000000000000000000000000A9        170192964704     
0010001300302U 020000000000000000000000000000000000000000000000000000000000000000000000000000000000000000000000000000000000000000000000000303201700000000            000000000000000                              000                           
0010001300303T 020180230000002544776 29647041013030239   7               05032017000000000006000001033316                         0900000000000010000000000000000000000000000000000000000   0000000000000000000000000A9        170192964704     
0010001300304U 020000000000000000000000000000000000000000000000000000000000000000000000000000000000000000000000000000000000000000000000000303201700000000            000000000000000                              000                           
0010001300305T 020180230000002544776 29647041013303672   7               05032017000000000008000001023655                         0900000000000010000000000000000000000000000000000000000   0000000000000000000000000A9        170192964704     
0010001300306U 020000000000000000000000000000000000000000000000000000000000000000000000000000000000000000000000000000000000000000000000000303201700000000            000000000000000                              000                           
0010001300307T 020180230000002544776 29647041013418160   7               05032017000000000006000001028495                         0900000000000010000000000000000000000000000000000000000   0000000000000000000000000A9        170192964704     
0010001300308U 020000000000000000000000000000000000000000000000000000000000000000000000000000000000000000000000000000000000000000000000000303201700000000            000000000000000                              000                           
0010001300309T 020180230000002544776 29647041013422598   7               05032017000000000006000001028495                         0900000000000010000000000000000000000000000000000000000   0000000000000000000000000A9        170192964704     
0010001300310U 020000000000000000000000000000000000000000000000000000000000000000000000000000000000000000000000000000000000000000000000000303201700000000            000000000000000                              000                           
0010001300311T 020180230000002544776 29647041013706934   7               05032017000000000006000001003611                         0900000000000010000000000000000000000000000000000000000   0000000000000000000000000A9        170192964704     
0010001300312U 020000000000000000000000000000000000000000000000000000000000000000000000000000000000000000000000000000000000000000000000000303201700000000            000000000000000                              000                           
0010001300313T 020180230000002544776 29647041013928946   7               05032017000000000008000001028029                         0900000000000010000000000000000000000000000000000000000   0000000000000000000000000A9        170192964704     
0010001300314U 020000000000000000000000000000000000000000000000000000000000000000000000000000000000000000000000000000000000000000000000000303201700000000            000000000000000                              000                           
0010001300315T 020180230000002544776 29647041014903887   7               05032017000000000006000001012467                         0900000000000010000000000000000000000000000000000000000   0000000000000000000000000A9        170192964704     
0010001300316U 020000000000000000000000000000000000000000000000000000000000000000000000000000000000000000000000000000000000000000000000000303201700000000            000000000000000                              000                           
0010001300317T 020180230000002544776 29647041015014744   7               05032017000000000006000001016179                         0900000000000010000000000000000000000000000000000000000   0000000000000000000000000A9        170192964704     
0010001300318U 020000000000000000000000000000000000000000000000000000000000000000000000000000000000000000000000000000000000000000000000000303201700000000            000000000000000                              000                           
0010001300319T 020180230000002544776 29647041015117121   7               05032017000000000006000001028029                         0900000000000010000000000000000000000000000000000000000   0000000000000000000000000A9        170192964704     
0010001300320U 020000000000000000000000000000000000000000000000000000000000000000000000000000000000000000000000000000000000000000000000000303201700000000            000000000000000                              000                           
0010001300321T 020180230000002544776 29647041015513612   7               05032017000000000006000001023655                         0900000000000010000000000000000000000000000000000000000   0000000000000000000000000A9        170192964704     
0010001300322U 020000000000000000000000000000000000000000000000000000000000000000000000000000000000000000000000000000000000000000000000000303201700000000            000000000000000                              000                           
0010001300323T 020180230000002544776 29647041015522317   7               05032017000000000006000001023655                         0900000000000010000000000000000000000000000000000000000   0000000000000000000000000A9        170192964704     
0010001300324U 020000000000000000000000000000000000000000000000000000000000000000000000000000000000000000000000000000000000000000000000000303201700000000            000000000000000                              000                           
0010001300325T 020180230000002544776 29647041015548645   7               05032017000000000006000001023655                         0900000000000010000000000000000000000000000000000000000   0000000000000000000000000A9        170192964704     
0010001300326U 020000000000000000000000000000000000000000000000000000000000000000000000000000000000000000000000000000000000000000000000000303201700000000            000000000000000                              000                           
0010001300327T 020180230000002544776 29647041015601319   7               05032017000000000006000001028029                         0900000000000010000000000000000000000000000000000000000   0000000000000000000000000A9        170192964704     
0010001300328U 020000000000000000000000000000000000000000000000000000000000000000000000000000000000000000000000000000000000000000000000000303201700000000            000000000000000                              000                           
0010001300329T 020180230000002544776 29647041015616887   7               05032017000000000006000001028029                         0900000000000010000000000000000000000000000000000000000   0000000000000000000000000A9        170192964704     
0010001300330U 020000000000000000000000000000000000000000000000000000000000000000000000000000000000000000000000000000000000000000000000000303201700000000            000000000000000                              000                           
0010001300331T 020180230000002544776 29647041015919461   7               05032017000000000006000001000132                         0900000000000010000000000000000000000000000000000000000   0000000000000000000000000A9        170192964704     
0010001300332U 020000000000000000000000000000000000000000000000000000000000000000000000000000000000000000000000000000000000000000000000000303201700000000            000000000000000                              000                           
0010001300333T 020180230000002544776 29647041016009827   7               05032017000000000008000001028029                         0900000000000010000000000000000000000000000000000000000   0000000000000000000000000A9        170192964704     
0010001300334U 020000000000000000000000000000000000000000000000000000000000000000000000000000000000000000000000000000000000000000000000000303201700000000            000000000000000                              000                           
0010001300335T 020180230000002544776 29647041016422997   7               05032017000000000008000001028029                         0900000000000010000000000000000000000000000000000000000   0000000000000000000000000A9        170192964704     
0010001300336U 020000000000000000000000000000000000000000000000000000000000000000000000000000000000000000000000000000000000000000000000000303201700000000            000000000000000                              000                           
0010001300337T 020180230000002544776 29647041016501675   7               05032017000000000008000001028029                         0900000000000010000000000000000000000000000000000000000   0000000000000000000000000A9        170192964704     
0010001300338U 020000000000000000000000000000000000000000000000000000000000000000000000000000000000000000000000000000000000000000000000000303201700000000            000000000000000                              000                           
0010001300339T 020180230000002544776 29647041016717896   7               05032017000000000006000001008214                         0900000000000010000000000000000000000000000000000000000   0000000000000000000000000A9        170192964704     
0010001300340U 020000000000000000000000000000000000000000000000000000000000000000000000000000000000000000000000000000000000000000000000000303201700000000            000000000000000                              000                           
0010001300341T 020180230000002544776 29647041017234387   7               05032017000000000006000001009636                         0900000000000010000000000000000000000000000000000000000   0000000000000000000000000A9        170192964704     
0010001300342U 020000000000000000000000000000000000000000000000000000000000000000000000000000000000000000000000000000000000000000000000000303201700000000            000000000000000                              000                           
0010001300343T 020180230000002544776 29647041017247455   7               05032017000000000006000001009636                         0900000000000010000000000000000000000000000000000000000   0000000000000000000000000A9        170192964704     
0010001300344U 020000000000000000000000000000000000000000000000000000000000000000000000000000000000000000000000000000000000000000000000000303201700000000            000000000000000                              000                           
0010001300345T 020180230000002544776 29647041017302913   7               05032017000000000006000001023655                         0900000000000010000000000000000000000000000000000000000   0000000000000000000000000A9        170192964704     
0010001300346U 020000000000000000000000000000000000000000000000000000000000000000000000000000000000000000000000000000000000000000000000000303201700000000            000000000000000                              000                           
0010001300347T 020180230000002544776 29647041017729032   7               0503201700000000000600000100135X                         0900000000000010000000000000000000000000000000000000000   0000000000000000000000000A9        170192964704     
0010001300348U 020000000000000000000000000000000000000000000000000000000000000000000000000000000000000000000000000000000000000000000000000303201700000000            000000000000000                              000                           
0010001300349T 020180230000002544776 29647041017921455   7               05032017000000000006000001000132                         0900000000000010000000000000000000000000000000000000000   0000000000000000000000000A9        170192964704     
0010001300350U 020000000000000000000000000000000000000000000000000000000000000000000000000000000000000000000000000000000000000000000000000303201700000000            000000000000000                              000                           
0010001300351T 020180230000002544776 29647041018000641   7               05032017000000000008000001000132                         0900000000000010000000000000000000000000000000000000000   0000000000000000000000000A9        170192964704     
0010001300352U 020000000000000000000000000000000000000000000000000000000000000000000000000000000000000000000000000000000000000000000000000303201700000000            000000000000000                              000                           
0010001300353T 020180230000002544776 29647041018449951   7               05032017000000000006000001023655                         0900000000000010000000000000000000000000000000000000000   0000000000000000000000000A9        170192964704     
0010001300354U 020000000000000000000000000000000000000000000000000000000000000000000000000000000000000000000000000000000000000000000000000303201700000000            000000000000000                              000                           
0010001300355T 020180230000002544776 29647041018535846   7               05032017000000000008000001013692                         0900000000000010000000000000000000000000000000000000000   0000000000000000000000000A9        170192964704     
0010001300356U 020000000000000000000000000000000000000000000000000000000000000000000000000000000000000000000000000000000000000000000000000303201700000000            000000000000000                              000                           
0010001300357T 020180230000002544776 29647041018814058   7               0503201700000000000800000100491X                         0900000000000010000000000000000000000000000000000000000   0000000000000000000000000A9        170192964704     
0010001300358U 020000000000000000000000000000000000000000000000000000000000000000000000000000000000000000000000000000000000000000000000000303201700000000            000000000000000                              000                           
0010001300359T 020180230000002544776 29647041018836812   7               0503201700000000000800000100491X                         0900000000000010000000000000000000000000000000000000000   0000000000000000000000000A9        170192964704     
0010001300360U 020000000000000000000000000000000000000000000000000000000000000000000000000000000000000000000000000000000000000000000000000303201700000000            000000000000000                              000                           
0010001300361T 020180230000002544776 29647041019300431   7               05032017000000000006000001022578                         0900000000000010000000000000000000000000000000000000000   0000000000000000000000000A9        170192964704     
0010001300362U 020000000000000000000000000000000000000000000000000000000000000000000000000000000000000000000000000000000000000000000000000303201700000000            000000000000000                              000                           
0010001300363T 020180230000002544776 29647041019544010   7               05032017000000000008000001016861                         0900000000000010000000000000000000000000000000000000000   0000000000000000000000000A9        170192964704     
0010001300364U 020000000000000000000000000000000000000000000000000000000000000000000000000000000000000000000000000000000000000000000000000303201700000000            000000000000000                              000                           
0010001300365T 020180230000002544776 29647041019629201   7               05032017000000000006000001012467                         0900000000000010000000000000000000000000000000000000000   0000000000000000000000000A9        170192964704     
0010001300366U 020000000000000000000000000000000000000000000000000000000000000000000000000000000000000000000000000000000000000000000000000303201700000000            000000000000000                              000                           
0010001300367T 020180230000002544776 29647041020423733   7               05032017000000000006000001008702                         0900000000000010500000000000000000000000000000000000000   0000000000000000000000000A9A4      170192964704     
0010001300368U 020000000000000000000000000000000000000000000000000000000000000000000000000000000000000000000000000000000000000000000000000303201700000000            000000000000000                              000                           
0010001300369T 020180230000002544776 29647041020433409   7               05032017000000000006000001008702                         0900000000000010500000000000000000000000000000000000000   0000000000000000000000000A9A4      170192964704     
0010001300370U 020000000000000000000000000000000000000000000000000000000000000000000000000000000000000000000000000000000000000000000000000303201700000000            000000000000000                              000                           
0010001300371T 020180230000002544776 29647041020450592   7               05032017000000000006000001008702                         0900000000000010500000000000000000000000000000000000000   0000000000000000000000000A9A4      170192964704     
0010001300372U 020000000000000000000000000000000000000000000000000000000000000000000000000000000000000000000000000000000000000000000000000303201700000000            000000000000000                              000                           
0010001300373T 020180230000002544776 29647041020928797   7               05032017000000000006000001009849                         0900000000000010000000000000000000000000000000000000000   0000000000000000000000000A9        170192964704     
0010001300374U 020000000000000000000000000000000000000000000000000000000000000000000000000000000000000000000000000000000000000000000000000303201700000000            000000000000000                              000                           
0010001300375T 020180230000002544776 29647041021121066   7               05032017000000000006000001016179                         0900000000000010000000000000000000000000000000000000000   0000000000000000000000000A9        170192964704     
0010001300376U 020000000000000000000000000000000000000000000000000000000000000000000000000000000000000000000000000000000000000000000000000303201700000000            000000000000000                              000                           
0010001300377T 020180230000002544776 29647041021300419   7               05032017000000000006000001012467                         0900000000000010000000000000000000000000000000000000000   0000000000000000000000000A9        170192964704     
0010001300378U 020000000000000000000000000000000000000000000000000000000000000000000000000000000000000000000000000000000000000000000000000303201700000000            000000000000000                              000                           
0010001300379T 020180230000002544776 29647041022059261   7               05032017000000000006000001038024                         0900000000000010000000000000000000000000000000000000000   0000000000000000000000000A9        170192964704     
0010001300380U 020000000000000000000000000000000000000000000000000000000000000000000000000000000000000000000000000000000000000000000000000303201700000000            000000000000000                              000                           
0010001300381T 020180230000002544776 29647041022211991   7               05032017000000000006000001028029                         0900000000000010500000000000000000000000000000000000000   0000000000000000000000000A9A4      170192964704     
0010001300382U 020000000000000000000000000000000000000000000000000000000000000000000000000000000000000000000000000000000000000000000000000303201700000000            000000000000000                              000                           
0010001300383T 020180230000002544776 29647041022506719   7               05032017000000000006000001025429                         0900000000000010000000000000000000000000000000000000000   0000000000000000000000000A9        170192964704     
0010001300384U 020000000000000000000000000000000000000000000000000000000000000000000000000000000000000000000000000000000000000000000000000303201700000000            000000000000000                              000                           
0010001300385T 020180230000002544776 29647041022539943   7               05032017000000000006000001025429                         0900000000000010000000000000000000000000000000000000000   0000000000000000000000000A9        170192964704     
0010001300386U 020000000000000000000000000000000000000000000000000000000000000000000000000000000000000000000000000000000000000000000000000303201700000000            000000000000000                              000                           
0010001300387T 020180230000002544776 29647041022552351   7               05032017000000000006000001025429                         0900000000000010000000000000000000000000000000000000000   0000000000000000000000000A9        170192964704     
0010001300388U 020000000000000000000000000000000000000000000000000000000000000000000000000000000000000000000000000000000000000000000000000303201700000000            000000000000000                              000                           
0010001300389T 020180230000002544776 29647041022605090   7               05032017000000000006000001016179                         0900000000000010000000000000000000000000000000000000000   0000000000000000000000000A9        170192964704     
0010001300390U 020000000000000000000000000000000000000000000000000000000000000000000000000000000000000000000000000000000000000000000000000303201700000000            000000000000000                              000                           
0010001300391T 020180230000002544776 29647041022821703   7               05032017000000000006000001011274                         0900000000000010000000000000000000000000000000000000000   0000000000000000000000000A9        170192964704     
0010001300392U 020000000000000000000000000000000000000000000000000000000000000000000000000000000000000000000000000000000000000000000000000303201700000000            000000000000000                              000                           
0010001300393T 020180230000002544776 29647041023017650   7               05032017000000000008000001028029                         0900000000000010000000000000000000000000000000000000000   0000000000000000000000000A9        170192964704     
0010001300394U 020000000000000000000000000000000000000000000000000000000000000000000000000000000000000000000000000000000000000000000000000303201700000000            000000000000000                              000                           
0010001300395T 020180230000002544776 29647041023141452   7               05032017000000000006000001016179                         0900000000000010000000000000000000000000000000000000000   0000000000000000000000000A9        170192964704     
0010001300396U 020000000000000000000000000000000000000000000000000000000000000000000000000000000000000000000000000000000000000000000000000303201700000000            000000000000000                              000                           
0010001300397T 020180230000002544776 29647041023233084   7               05032017000000000008000001016179                         0900000000000010000000000000000000000000000000000000000   0000000000000000000000000A9        170192964704     
0010001300398U 020000000000000000000000000000000000000000000000000000000000000000000000000000000000000000000000000000000000000000000000000303201700000000            000000000000000                              000                           
0010001300399T 020180230000002544776 29647041023540455   7               05032017000000000008000001001368                         0900000000000010000000000000000000000000000000000000000   0000000000000000000000000A9        170192964704     
0010001300400U 020000000000000000000000000000000000000000000000000000000000000000000000000000000000000000000000000000000000000000000000000303201700000000            000000000000000                              000                           
0010001300401T 020180230000002544776 29647041023741160   7               05032017000000000006000001000132                         0900000000000010000000000000000000000000000000000000000   0000000000000000000000000A9        170192964704     
0010001300402U 020000000000000000000000000000000000000000000000000000000000000000000000000000000000000000000000000000000000000000000000000303201700000000            000000000000000                              000                           
0010001300403T 020180230000002544776 29647041023934877   7               05032017000000000006000001028029                         0900000000000010000000000000000000000000000000000000000   0000000000000000000000000A9        170192964704     
0010001300404U 020000000000000000000000000000000000000000000000000000000000000000000000000000000000000000000000000000000000000000000000000303201700000000            000000000000000                              000                           
0010001300405T 020180230000002544776 29647041024221330   7               05032017000000000006000001013617                         0900000000000010000000000000000000000000000000000000000   0000000000000000000000000A9        170192964704     
0010001300406U 020000000000000000000000000000000000000000000000000000000000000000000000000000000000000000000000000000000000000000000000000303201700000000            000000000000000                              000                           
0010001300407T 020180230000002544776 29647041024658096   7               05032017000000000006000001021911                         0900000000000010000000000000000000000000000000000000000   0000000000000000000000000A9        170192964704     
0010001300408U 020000000000000000000000000000000000000000000000000000000000000000000000000000000000000000000000000000000000000000000000000303201700000000            000000000000000                              000                           
0010001300409T 020180230000002544776 29647041024823893   7               0503201700000000000600000100944X                         0900000000000010000000000000000000000000000000000000000   0000000000000000000000000A9        170192964704     
0010001300410U 020000000000000000000000000000000000000000000000000000000000000000000000000000000000000000000000000000000000000000000000000303201700000000            000000000000000                              000                           
0010001300411T 020180230000002544776 29647041024900617   7               05032017000000000006000001016179                         0900000000000010000000000000000000000000000000000000000   0000000000000000000000000A9        170192964704     
0010001300412U 020000000000000000000000000000000000000000000000000000000000000000000000000000000000000000000000000000000000000000000000000303201700000000            000000000000000                              000                           
