00100000         2247745860001000029647040014       0180230000002544776 INSTITUTO DE SELECAO E TECNOLOBANCO DO BRASIL                         20603201702451600004803000000515122941PROCESSAMEN                                                 
00100011T0100020 20247745860001000029647040014       0180230000002544776 INSTITUTO DE SELECAO E TECNOLO                                                                                000000000603201700000000  000000000                      
0010001300001T 020180230000002544776 29647040507306934   7               08032017000000000008000001016179                         0900000000000010000000000000000000000000000000000000000   0000000000000000000000000A9        170192964704     
0010001300002U 020000000000000000000000000000000000000000000000000000000000000000000000000000000000000000000000000000000000000000000000000603201700000000            000000000000000                              000                           
0010001300003T 020180230000002544776 29647040515959337   7               07032017000000000008000001001368                         0900000000000010000000000000000000000000000000000000000   0000000000000000000000000A9        170192964704     
0010001300004U 020000000000000000000000000000000000000000000000000000000000000000000000000000000000000000000000000000000000000000000000000503201700000000            000000000000000                              000                           
0010001300005T 020180230000002544776 29647040532909788   7               08032017000000000006000001010499                         0900000000000010000000000000000000000000000000000000000   0000000000000000000000000A9        170192964704     
0010001300006U 020000000000000000000000000000000000000000000000000000000000000000000000000000000000000000000000000000000000000000000000000603201700000000            000000000000000                              000                           
0010001300007T 020180230000002544776 29647040540435294   7               07032017000000000006000001028029                         0900000000000010000000000000000000000000000000000000000   0000000000000000000000000A9        170192964704     
0010001300008U 020000000000000000000000000000000000000000000000000000000000000000000000000000000000000000000000000000000000000000000000000503201700000000            000000000000000                              000                           
0010001300009T 020180230000002544776 29647040540440928   7               07032017000000000006000001028029                         0900000000000010000000000000000000000000000000000000000   0000000000000000000000000A9        170192964704     
0010001300010U 020000000000000000000000000000000000000000000000000000000000000000000000000000000000000000000000000000000000000000000000000503201700000000            000000000000000                              000                           
0010001300011T 020180230000002544776 29647040541010451   7               08032017000000000006000001033316                         0900000000000010000000000000000000000000000000000000000   0000000000000000000000000A9        170192964704     
0010001300012U 020000000000000000000000000000000000000000000000000000000000000000000000000000000000000000000000000000000000000000000000000603201700000000            000000000000000                              000                           
0010001300013T 020180230000002544776 29647040541825379   7               08032017000000000006000001028029                         0900000000000010500000000000000000000000000000000000000   0000000000000000000000000A9A4      170192964704     
0010001300014U 020000000000000000000000000000000000000000000000000000000000000000000000000000000000000000000000000000000000000000000000000603201700000000            000000000000000                              000                           
0010001300015T 020180230000002544776 29647040545953161   7               08032017000000000006000001008214                         0900000000000010000000000000000000000000000000000000000   0000000000000000000000000A9        170192964704     
0010001300016U 020000000000000000000000000000000000000000000000000000000000000000000000000000000000000000000000000000000000000000000000000603201700000000            000000000000000                              000                           
0010001300017T 020180230000002544776 29647040564757307   7               07032017000000000006000001016179                         0900000000000010000000000000000000000000000000000000000   0000000000000000000000000A9        170192964704     
0010001300018U 020000000000000000000000000000000000000000000000000000000000000000000000000000000000000000000000000000000000000000000000000503201700000000            000000000000000                              000                           
0010001300019T 020180230000002544776 29647040564758831   7               07032017000000000006000001016179                         0900000000000010000000000000000000000000000000000000000   0000000000000000000000000A9        170192964704     
0010001300020U 020000000000000000000000000000000000000000000000000000000000000000000000000000000000000000000000000000000000000000000000000503201700000000            000000000000000                              000                           
0010001300021T 020180230000002544776 29647040569111339   7               08032017000000000006000001000132                         0900000000000010000000000000000000000000000000000000000   0000000000000000000000000A9        170192964704     
0010001300022U 020000000000000000000000000000000000000000000000000000000000000000000000000000000000000000000000000000000000000000000000000603201700000000            000000000000000                              000                           
0010001300023T 020180230000002544776 29647040569830931   7               07032017000000000006000001033316                         0900000000000010000000000000000000000000000000000000000   0000000000000000000000000A9        170192964704     
0010001300024U 020000000000000000000000000000000000000000000000000000000000000000000000000000000000000000000000000000000000000000000000000503201700000000            000000000000000                              000                           
0010001300025T 020180230000002544776 29647040570500758   7               08032017000000000006000001000132                         0900000000000010000000000000000000000000000000000000000   0000000000000000000000000A9        170192964704     
0010001300026U 020000000000000000000000000000000000000000000000000000000000000000000000000000000000000000000000000000000000000000000000000603201700000000            000000000000000                              000                           
0010001300027T 020180230000002544776 29647040591711780   7               06032017000000000008000001028029                         0900000000000010000000000000000000000000000000000000000   0000000000000000000000000A9        170192964704     
0010001300028U 020000000000000000000000000000000000000000000000000000000000000000000000000000000000000000000000000000000000000000000000000403201700000000            000000000000000                              000                           
0010001300029T 020180230000002544776 29647040592914821   7               08032017000000000006000001033316                         0900000000000010500000000000000000000000000000000000000   0000000000000000000000000A9A4      170192964704     
0010001300030U 020000000000000000000000000000000000000000000000000000000000000000000000000000000000000000000000000000000000000000000000000603201700000000            000000000000000                              000                           
0010001300031T 020180230000002544776 29647040593919596   7               06032017000000000006000001024252                         0900000000000010000000000000000000000000000000000000000   0000000000000000000000000A9        170192964704     
0010001300032U 020000000000000000000000000000000000000000000000000000000000000000000000000000000000000000000000000000000000000000000000000403201700000000            000000000000000                              000                           
0010001300033T 020180230000002544776 29647040611034082   7               08032017000000000008000001000132                         0900000000000010500000000000000000000000000000000000000   0000000000000000000000000A9A4      170192964704     
0010001300034U 020000000000000000000000000000000000000000000000000000000000000000000000000000000000000000000000000000000000000000000000000603201700000000            000000000000000                              000                           
0010001300035T 020180230000002544776 29647040611059128   7               07032017000000000008000001000132                         0900000000000010500000000000000000000000000000000000000   0000000000000000000000000A9A4      170192964704     
0010001300036U 020000000000000000000000000000000000000000000000000000000000000000000000000000000000000000000000000000000000000000000000000503201700000000            000000000000000                              000                           
0010001300037T 020180230000002544776 29647040620356475   7               06032017000000000008000001028029                         0900000000000010000000000000000000000000000000000000000   0000000000000000000000000A9        170192964704     
0010001300038U 020000000000000000000000000000000000000000000000000000000000000000000000000000000000000000000000000000000000000000000000000403201700000000            000000000000000                              000                           
0010001300039T 020180230000002544776 29647040622127834   7               07032017000000000006000001000132                         0900000000000010000000000000000000000000000000000000000   0000000000000000000000000A9        170192964704     
0010001300040U 020000000000000000000000000000000000000000000000000000000000000000000000000000000000000000000000000000000000000000000000000503201700000000            000000000000000                              000                           
0010001300041T 020180230000002544776 29647040623819202   7               08032017000000000006000001033316                         0900000000000010500000000000000000000000000000000000000   0000000000000000000000000A9A4      170192964704     
0010001300042U 020000000000000000000000000000000000000000000000000000000000000000000000000000000000000000000000000000000000000000000000000603201700000000            000000000000000                              000                           
0010001300043T 020180230000002544776 29647040631830449   7               07032017000000000006000001023353                         0900000000000010000000000000000000000000000000000000000   0000000000000000000000000A9        170192964704     
0010001300044U 020000000000000000000000000000000000000000000000000000000000000000000000000000000000000000000000000000000000000000000000000503201700000000            000000000000000                              000                           
0010001300045T 020180230000002544776 29647040640921744   7               08032017000000000006000001016179                         0900000000000010000000000000000000000000000000000000000   0000000000000000000000000A9        170192964704     
0010001300046U 020000000000000000000000000000000000000000000000000000000000000000000000000000000000000000000000000000000000000000000000000603201700000000            000000000000000                              000                           
0010001300047T 020180230000002544776 29647040641900673   7               07032017000000000006000001018376                         0900000000000010000000000000000000000000000000000000000   0000000000000000000000000A9        170192964704     
0010001300048U 020000000000000000000000000000000000000000000000000000000000000000000000000000000000000000000000000000000000000000000000000503201700000000            000000000000000                              000                           
0010001300049T 020180230000002544776 29647040651038567   7               0703201700000000000600000101284X                         0900000000000010000000000000000000000000000000000000000   0000000000000000000000000A9        170192964704     
0010001300050U 020000000000000000000000000000000000000000000000000000000000000000000000000000000000000000000000000000000000000000000000000503201700000000            000000000000000                              000                           
0010001300051T 020180230000002544776 29647040652811359   7               08032017000000000006000001012408                         0900000000000010000000000000000000000000000000000000000   0000000000000000000000000A9        170192964704     
0010001300052U 020000000000000000000000000000000000000000000000000000000000000000000000000000000000000000000000000000000000000000000000000603201700000000            000000000000000                              000                           
0010001300053T 020180230000002544776 29647040652830800   7               08032017000000000006000001012408                         0900000000000010000000000000000000000000000000000000000   0000000000000000000000000A9        170192964704     
0010001300054U 020000000000000000000000000000000000000000000000000000000000000000000000000000000000000000000000000000000000000000000000000603201700000000            000000000000000                              000                           
0010001300055T 020180230000002544776 29647040660639324   7               08032017000000000006000001033316                         0900000000000010000000000000000000000000000000000000000   0000000000000000000000000A9        170192964704     
0010001300056U 020000000000000000000000000000000000000000000000000000000000000000000000000000000000000000000000000000000000000000000000000603201700000000            000000000000000                              000                           
0010001300057T 020180230000002544776 29647040670132706   7               07032017000000000006000001000132                         0900000000000010000000000000000000000000000000000000000   0000000000000000000000000A9        170192964704     
0010001300058U 020000000000000000000000000000000000000000000000000000000000000000000000000000000000000000000000000000000000000000000000000503201700000000            000000000000000                              000                           
0010001300059T 020180230000002544776 29647040673036808   7               06032017000000000006000001016179                         0900000000000010000000000000000000000000000000000000000   0000000000000000000000000A9        170192964704     
0010001300060U 020000000000000000000000000000000000000000000000000000000000000000000000000000000000000000000000000000000000000000000000000403201700000000            000000000000000                              000                           
0010001300061T 020180230000002544776 29647040676927581   7               06032017000000000008000001000132                         0900000000000010000000000000000000000000000000000000000   0000000000000000000000000A9        170192964704     
0010001300062U 020000000000000000000000000000000000000000000000000000000000000000000000000000000000000000000000000000000000000000000000000403201700000000            000000000000000                              000                           
0010001300063T 020180230000002544776 29647040683127064   7               07032017000000000006000001012467                         0900000000000010000000000000000000000000000000000000000   0000000000000000000000000A9        170192964704     
0010001300064U 020000000000000000000000000000000000000000000000000000000000000000000000000000000000000000000000000000000000000000000000000503201700000000            000000000000000                              000                           
0010001300065T 020180230000002544776 29647040685409000   7               08032017000000000006000001000132                         0900000000000010500000000000000000000000000000000000000   0000000000000000000000000A9A4      170192964704     
0010001300066U 020000000000000000000000000000000000000000000000000000000000000000000000000000000000000000000000000000000000000000000000000603201700000000            000000000000000                              000                           
0010001300067T 020180230000002544776 29647040697455966   7               07032017000000000006000001020354                         0900000000000010000000000000000000000000000000000000000   0000000000000000000000000A9        170192964704     
0010001300068U 020000000000000000000000000000000000000000000000000000000000000000000000000000000000000000000000000000000000000000000000000503201700000000            000000000000000                              000                           
0010001300069T 020180230000002544776 29647040702230818   7               08032017000000000006000001018376                         0900000000000010000000000000000000000000000000000000000   0000000000000000000000000A9        170192964704     
0010001300070U 020000000000000000000000000000000000000000000000000000000000000000000000000000000000000000000000000000000000000000000000000603201700000000            000000000000000                              000                           
0010001300071T 020180230000002544776 29647040704801483   7               08032017000000000006000001000132                         0900000000000010000000000000000000000000000000000000000   0000000000000000000000000A9        170192964704     
0010001300072U 020000000000000000000000000000000000000000000000000000000000000000000000000000000000000000000000000000000000000000000000000603201700000000            000000000000000                              000                           
0010001300073T 020180230000002544776 29647040705418952   7               08032017000000000008000001000361                         0900000000000010000000000000000000000000000000000000000   0000000000000000000000000A9        170192964704     
0010001300074U 020000000000000000000000000000000000000000000000000000000000000000000000000000000000000000000000000000000000000000000000000603201700000000            000000000000000                              000                           
0010001300075T 020180230000002544776 29647040711445776   7               06032017000000000006000001008249                         0900000000000010500000000000000000000000000000000000000   0000000000000000000000000A9A4      170192964704     
0010001300076U 020000000000000000000000000000000000000000000000000000000000000000000000000000000000000000000000000000000000000000000000000403201700000000            000000000000000                              000                           
0010001300077T 020180230000002544776 29647040711447807   7               06032017000000000006000001008249                         0900000000000010500000000000000000000000000000000000000   0000000000000000000000000A9A4      170192964704     
0010001300078U 020000000000000000000000000000000000000000000000000000000000000000000000000000000000000000000000000000000000000000000000000403201700000000            000000000000000                              000                           
0010001300079T 020180230000002544776 29647040711737689   7               08032017000000000006000001028029                         0900000000000010500000000000000000000000000000000000000   0000000000000000000000000A9A4      170192964704     
0010001300080U 020000000000000000000000000000000000000000000000000000000000000000000000000000000000000000000000000000000000000000000000000603201700000000            000000000000000                              000                           
0010001300081T 020180230000002544776 29647040721353170   7               08032017000000000006000001000132                         0900000000000010000000000000000000000000000000000000000   0000000000000000000000000A9        170192964704     
0010001300082U 020000000000000000000000000000000000000000000000000000000000000000000000000000000000000000000000000000000000000000000000000603201700000000            000000000000000                              000                           
0010001300083T 020180230000002544776 29647040729347206   7               08032017000000000006000001016179                         0900000000000010000000000000000000000000000000000000000   0000000000000000000000000A9        170192964704     
0010001300084U 020000000000000000000000000000000000000000000000000000000000000000000000000000000000000000000000000000000000000000000000000603201700000000            000000000000000                              000                           
0010001300085T 020180230000002544776 29647040733054642   7               08032017000000000006000001000132                         0900000000000010000000000000000000000000000000000000000   0000000000000000000000000A9        170192964704     
0010001300086U 020000000000000000000000000000000000000000000000000000000000000000000000000000000000000000000000000000000000000000000000000603201700000000            000000000000000                              000                           
0010001300087T 020180230000002544776 29647040741251014   7               08032017000000000006000001020354                         0900000000000010000000000000000000000000000000000000000   0000000000000000000000000A9        170192964704     
0010001300088U 020000000000000000000000000000000000000000000000000000000000000000000000000000000000000000000000000000000000000000000000000603201700000000            000000000000000                              000                           
0010001300089T 020180230000002544776 29647040741252154   7               08032017000000000006000001020354                         0900000000000010000000000000000000000000000000000000000   0000000000000000000000000A9        170192964704     
0010001300090U 020000000000000000000000000000000000000000000000000000000000000000000000000000000000000000000000000000000000000000000000000603201700000000            000000000000000                              000                           
0010001300091T 020180230000002544776 29647040758608084   7               07032017000000000006000001028029                         0900000000000010000000000000000000000000000000000000000   0000000000000000000000000A9        170192964704     
0010001300092U 020000000000000000000000000000000000000000000000000000000000000000000000000000000000000000000000000000000000000000000000000503201700000000            000000000000000                              000                           
0010001300093T 020180230000002544776 29647040761649325   7               07032017000000000006000001007595                         0900000000000010000000000000000000000000000000000000000   0000000000000000000000000A9        170192964704     
0010001300094U 020000000000000000000000000000000000000000000000000000000000000000000000000000000000000000000000000000000000000000000000000503201700000000            000000000000000                              000                           
0010001300095T 020180230000002544776 29647040764137003   7               08032017000000000006000001006734                         0900000000000010500000000000000000000000000000000000000   0000000000000000000000000A9A4      170192964704     
0010001300096U 020000000000000000000000000000000000000000000000000000000000000000000000000000000000000000000000000000000000000000000000000603201700000000            000000000000000                              000                           
0010001300097T 020180230000002544776 29647040764905773   7               05032017000000000006000001028029                         0900000000000010000000000000000000000000000000000000000   0000000000000000000000000A9        170192964704     
0010001300098U 020000000000000000000000000000000000000000000000000000000000000000000000000000000000000000000000000000000000000000000000000303201700000000            000000000000000                              000                           
0010001300099T 020180230000002544776 29647040766303652   7               08032017000000000008000001000493                         0900000000000010000000000000000000000000000000000000000   0000000000000000000000000A9        170192964704     
0010001300100U 020000000000000000000000000000000000000000000000000000000000000000000000000000000000000000000000000000000000000000000000000603201700000000            000000000000000                              000                           
0010001300101T 020180230000002544776 29647040766334910   7               08032017000000000008000001000493                         0900000000000010000000000000000000000000000000000000000   0000000000000000000000000A9        170192964704     
0010001300102U 020000000000000000000000000000000000000000000000000000000000000000000000000000000000000000000000000000000000000000000000000603201700000000            000000000000000                              000                           
0010001300103T 020180230000002544776 29647040777236460   7               06032017000000000006000001023655                         0900000000000010000000000000000000000000000000000000000   0000000000000000000000000A9        170192964704     
0010001300104U 020000000000000000000000000000000000000000000000000000000000000000000000000000000000000000000000000000000000000000000000000403201700000000            000000000000000                              000                           
0010001300105T 020180230000002544776 29647040791815929   7               08032017000000000008000001000132                         0900000000000010000000000000000000000000000000000000000   0000000000000000000000000A9        170192964704     
0010001300106U 020000000000000000000000000000000000000000000000000000000000000000000000000000000000000000000000000000000000000000000000000603201700000000            000000000000000                              000                           
0010001300107T 020180230000002544776 29647040794044162   7               06032017000000000006000001016179                         0900000000000010000000000000000000000000000000000000000   0000000000000000000000000A9        170192964704     
0010001300108U 020000000000000000000000000000000000000000000000000000000000000000000000000000000000000000000000000000000000000000000000000403201700000000            000000000000000                              000                           
0010001300109T 020180230000002544776 29647040797831481   7               0803201700000000000600000101138X                         0900000000000010000000000000000000000000000000000000000   0000000000000000000000000A9        170192964704     
0010001300110U 020000000000000000000000000000000000000000000000000000000000000000000000000000000000000000000000000000000000000000000000000603201700000000            000000000000000                              000                           
0010001300111T 020180230000002544776 29647040797953714   7               06032017000000000006000001008214                         0900000000000010000000000000000000000000000000000000000   0000000000000000000000000A9        170192964704     
0010001300112U 020000000000000000000000000000000000000000000000000000000000000000000000000000000000000000000000000000000000000000000000000403201700000000            000000000000000                              000                           
0010001300113T 020180230000002544776 29647040798635967   7               06032017000000000008000001001201                         0900000000000010000000000000000000000000000000000000000   0000000000000000000000000A9        170192964704     
0010001300114U 020000000000000000000000000000000000000000000000000000000000000000000000000000000000000000000000000000000000000000000000000403201700000000            000000000000000                              000                           
0010001300115T 020180230000002544776 29647040803356010   7               06032017000000000008000001000132                         0900000000000010000000000000000000000000000000000000000   0000000000000000000000000A9        170192964704     
0010001300116U 020000000000000000000000000000000000000000000000000000000000000000000000000000000000000000000000000000000000000000000000000403201700000000            000000000000000                              000                           
0010001300117T 020180230000002544776 29647040808954130   7               08032017000000000006000001000361                         0900000000000010000000000000000000000000000000000000000   0000000000000000000000000A9        170192964704     
0010001300118U 020000000000000000000000000000000000000000000000000000000000000000000000000000000000000000000000000000000000000000000000000603201700000000            000000000000000                              000                           
0010001300119T 020180230000002544776 29647040817109346   7               08032017000000000006000001012467                         0900000000000010000000000000000000000000000000000000000   0000000000000000000000000A9        170192964704     
0010001300120U 020000000000000000000000000000000000000000000000000000000000000000000000000000000000000000000000000000000000000000000000000603201700000000            000000000000000                              000                           
0010001300121T 020180230000002544776 29647040817141379   7               07032017000000000006000001012467                         0900000000000010000000000000000000000000000000000000000   0000000000000000000000000A9        170192964704     
0010001300122U 020000000000000000000000000000000000000000000000000000000000000000000000000000000000000000000000000000000000000000000000000503201700000000            000000000000000                              000                           
0010001300123T 020180230000002544776 29647040822739103   7               07032017000000000006000001020478                         0900000000000010000000000000000000000000000000000000000   0000000000000000000000000A9        170192964704     
0010001300124U 020000000000000000000000000000000000000000000000000000000000000000000000000000000000000000000000000000000000000000000000000503201700000000            000000000000000                              000                           
0010001300125T 020180230000002544776 29647040823146838   7               08032017000000000008000001000132                         0900000000000010000000000000000000000000000000000000000   0000000000000000000000000A9        170192964704     
0010001300126U 020000000000000000000000000000000000000000000000000000000000000000000000000000000000000000000000000000000000000000000000000603201700000000            000000000000000                              000                           
0010001300127T 020180230000002544776 29647040823148910   7               08032017000000000008000001000132                         0900000000000010000000000000000000000000000000000000000   0000000000000000000000000A9        170192964704     
0010001300128U 020000000000000000000000000000000000000000000000000000000000000000000000000000000000000000000000000000000000000000000000000603201700000000            000000000000000                              000                           
0010001300129T 020180230000002544776 29647040823157691   7               08032017000000000008000001000132                         0900000000000010000000000000000000000000000000000000000   0000000000000000000000000A9        170192964704     
0010001300130U 020000000000000000000000000000000000000000000000000000000000000000000000000000000000000000000000000000000000000000000000000603201700000000            000000000000000                              000                           
0010001300131T 020180230000002544776 29647040827034488   7               07032017000000000008000001022357                         0900000000000010000000000000000000000000000000000000000   0000000000000000000000000A9        170192964704     
0010001300132U 020000000000000000000000000000000000000000000000000000000000000000000000000000000000000000000000000000000000000000000000000503201700000000            000000000000000                              000                           
0010001300133T 020180230000002544776 29647040829017634   7               08032017000000000006000001012467                         0900000000000010000000000000000000000000000000000000000   0000000000000000000000000A9        170192964704     
0010001300134U 020000000000000000000000000000000000000000000000000000000000000000000000000000000000000000000000000000000000000000000000000603201700000000            000000000000000                              000                           
0010001300135T 020180230000002544776 29647040831145186   7               08032017000000000006000001028029                         0900000000000010000000000000000000000000000000000000000   0000000000000000000000000A9        170192964704     
0010001300136U 020000000000000000000000000000000000000000000000000000000000000000000000000000000000000000000000000000000000000000000000000603201700000000            000000000000000                              000                           
0010001300137T 020180230000002544776 29647040832733380   7               07032017000000000006000001000132                         0900000000000010000000000000000000000000000000000000000   0000000000000000000000000A9        170192964704     
0010001300138U 020000000000000000000000000000000000000000000000000000000000000000000000000000000000000000000000000000000000000000000000000503201700000000            000000000000000                              000                           
0010001300139T 020180230000002544776 29647040835645181   7               08032017000000000006000001016179                         0900000000000010000000000000000000000000000000000000000   0000000000000000000000000A9        170192964704     
0010001300140U 020000000000000000000000000000000000000000000000000000000000000000000000000000000000000000000000000000000000000000000000000603201700000000            000000000000000                              000                           
0010001300141T 020180230000002544776 29647040841503712   7               07032017000000000006000001016179                         0900000000000010000000000000000000000000000000000000000   0000000000000000000000000A9        170192964704     
0010001300142U 020000000000000000000000000000000000000000000000000000000000000000000000000000000000000000000000000000000000000000000000000503201700000000            000000000000000                              000                           
0010001300143T 020180230000002544776 29647040841511910   7               08032017000000000006000001016179                         0900000000000010000000000000000000000000000000000000000   0000000000000000000000000A9        170192964704     
0010001300144U 020000000000000000000000000000000000000000000000000000000000000000000000000000000000000000000000000000000000000000000000000603201700000000            000000000000000                              000                           
0010001300145T 020180230000002544776 29647040841512627   7               08032017000000000006000001016179                         0900000000000010000000000000000000000000000000000000000   0000000000000000000000000A9        170192964704     
0010001300146U 020000000000000000000000000000000000000000000000000000000000000000000000000000000000000000000000000000000000000000000000000603201700000000            000000000000000                              000                           
0010001300147T 020180230000002544776 29647040841514611   7               07032017000000000006000001016179                         0900000000000010000000000000000000000000000000000000000   0000000000000000000000000A9        170192964704     
0010001300148U 020000000000000000000000000000000000000000000000000000000000000000000000000000000000000000000000000000000000000000000000000503201700000000            000000000000000                              000                           
0010001300149T 020180230000002544776 29647040841517684   7               08032017000000000006000001016179                         0900000000000010000000000000000000000000000000000000000   0000000000000000000000000A9        170192964704     
0010001300150U 020000000000000000000000000000000000000000000000000000000000000000000000000000000000000000000000000000000000000000000000000603201700000000            000000000000000                              000                           
0010001300151T 020180230000002544776 29647040841518564   7               07032017000000000006000001016179                         0900000000000010000000000000000000000000000000000000000   0000000000000000000000000A9        170192964704     
0010001300152U 020000000000000000000000000000000000000000000000000000000000000000000000000000000000000000000000000000000000000000000000000503201700000000            000000000000000                              000                           
0010001300153T 020180230000002544776 29647040841521257   7               07032017000000000006000001016179                         0900000000000010000000000000000000000000000000000000000   0000000000000000000000000A9        170192964704     
0010001300154U 020000000000000000000000000000000000000000000000000000000000000000000000000000000000000000000000000000000000000000000000000503201700000000            000000000000000                              000                           
0010001300155T 020180230000002544776 29647040847348219   7               08032017000000000006000001000132                         0900000000000010000000000000000000000000000000000000000   0000000000000000000000000A9        170192964704     
0010001300156U 020000000000000000000000000000000000000000000000000000000000000000000000000000000000000000000000000000000000000000000000000603201700000000            000000000000000                              000                           
0010001300157T 020180230000002544776 29647040848855945   7               08032017000000000006000001018376                         0900000000000010000000000000000000000000000000000000000   0000000000000000000000000A9        170192964704     
0010001300158U 020000000000000000000000000000000000000000000000000000000000000000000000000000000000000000000000000000000000000000000000000603201700000000            000000000000000                              000                           
0010001300159T 020180230000002544776 29647040850857231   7               0803201700000000000600000101138X                         0900000000000010500000000000000000000000000000000000000   0000000000000000000000000A9A4      170192964704     
0010001300160U 020000000000000000000000000000000000000000000000000000000000000000000000000000000000000000000000000000000000000000000000000603201700000000            000000000000000                              000                           
0010001300161T 020180230000002544776 29647040854147080   7               08032017000000000006000001016179                         0900000000000010000000000000000000000000000000000000000   0000000000000000000000000A9        170192964704     
0010001300162U 020000000000000000000000000000000000000000000000000000000000000000000000000000000000000000000000000000000000000000000000000603201700000000            000000000000000                              000                           
0010001300163T 020180230000002544776 29647040854301527   7               08032017000000000006000001016179                         0900000000000010000000000000000000000000000000000000000   0000000000000000000000000A9        170192964704     
0010001300164U 020000000000000000000000000000000000000000000000000000000000000000000000000000000000000000000000000000000000000000000000000603201700000000            000000000000000                              000                           
0010001300165T 020180230000002544776 29647040860236397   7               07032017000000000008000001000132                         0900000000000010000000000000000000000000000000000000000   0000000000000000000000000A9        170192964704     
0010001300166U 020000000000000000000000000000000000000000000000000000000000000000000000000000000000000000000000000000000000000000000000000503201700000000            000000000000000                              000                           
0010001300167T 020180230000002544776 29647040863023635   7               08032017000000000006000001016179                         0900000000000010000000000000000000000000000000000000000   0000000000000000000000000A9        170192964704     
0010001300168U 020000000000000000000000000000000000000000000000000000000000000000000000000000000000000000000000000000000000000000000000000603201700000000            000000000000000                              000                           
0010001300169T 020180230000002544776 29647040863042571   7               08032017000000000006000001016179                         0900000000000010000000000000000000000000000000000000000   0000000000000000000000000A9        170192964704     
0010001300170U 020000000000000000000000000000000000000000000000000000000000000000000000000000000000000000000000000000000000000000000000000603201700000000            000000000000000                              000                           
0010001300171T 020180230000002544776 29647040865128746   7               06032017000000000006000001002208                         0900000000000010000000000000000000000000000000000000000   0000000000000000000000000A9        170192964704     
0010001300172U 020000000000000000000000000000000000000000000000000000000000000000000000000000000000000000000000000000000000000000000000000403201700000000            000000000000000                              000                           
0010001300173T 020180230000002544776 29647040866013819   7               08032017000000000006000001016667                         0900000000000010000000000000000000000000000000000000000   0000000000000000000000000A9        170192964704     
0010001300174U 020000000000000000000000000000000000000000000000000000000000000000000000000000000000000000000000000000000000000000000000000603201700000000            000000000000000                              000                           
0010001300175T 020180230000002544776 29647040866604729   7               08032017000000000006000001016179                         0900000000000010000000000000000000000000000000000000000   0000000000000000000000000A9        170192964704     
0010001300176U 020000000000000000000000000000000000000000000000000000000000000000000000000000000000000000000000000000000000000000000000000603201700000000            000000000000000                              000                           
0010001300177T 020180230000002544776 29647040866657560   7               07032017000000000006000001016179                         0900000000000010000000000000000000000000000000000000000   0000000000000000000000000A9        170192964704     
0010001300178U 020000000000000000000000000000000000000000000000000000000000000000000000000000000000000000000000000000000000000000000000000503201700000000            000000000000000                              000                           
0010001300179T 020180230000002544776 29647040867251826   7               08032017000000000006000001000132                         0900000000000010000000000000000000000000000000000000000   0000000000000000000000000A9        170192964704     
0010001300180U 020000000000000000000000000000000000000000000000000000000000000000000000000000000000000000000000000000000000000000000000000603201700000000            000000000000000                              000                           
0010001300181T 020180230000002544776 29647040873530088   7               08032017000000000006000001028029                         0900000000000010000000000000000000000000000000000000000   0000000000000000000000000A9        170192964704     
0010001300182U 020000000000000000000000000000000000000000000000000000000000000000000000000000000000000000000000000000000000000000000000000603201700000000            000000000000000                              000                           
0010001300183T 020180230000002544776 29647040874655728   7               08032017000000000008000001016810                         0900000000000010000000000000000000000000000000000000000   0000000000000000000000000A9        170192964704     
0010001300184U 020000000000000000000000000000000000000000000000000000000000000000000000000000000000000000000000000000000000000000000000000603201700000000            000000000000000                              000                           
0010001300185T 020180230000002544776 29647040875322697   7               08032017000000000008000001028029                         0900000000000010000000000000000000000000000000000000000   0000000000000000000000000A9        170192964704     
0010001300186U 020000000000000000000000000000000000000000000000000000000000000000000000000000000000000000000000000000000000000000000000000603201700000000            000000000000000                              000                           
0010001300187T 020180230000002544776 29647040875341303   7               06032017000000000008000001028029                         0900000000000010000000000000000000000000000000000000000   0000000000000000000000000A9        170192964704     
0010001300188U 020000000000000000000000000000000000000000000000000000000000000000000000000000000000000000000000000000000000000000000000000403201700000000            000000000000000                              000                           
0010001300189T 020180230000002544776 29647040883825861   7               08032017000000000006000001024430                         0900000000000010000000000000000000000000000000000000000   0000000000000000000000000A9        170192964704     
0010001300190U 020000000000000000000000000000000000000000000000000000000000000000000000000000000000000000000000000000000000000000000000000603201700000000            000000000000000                              000                           
0010001300191T 020180230000002544776 29647040891836190   7               08032017000000000008000001028029                         0900000000000010000000000000000000000000000000000000000   0000000000000000000000000A9        170192964704     
0010001300192U 020000000000000000000000000000000000000000000000000000000000000000000000000000000000000000000000000000000000000000000000000603201700000000            000000000000000                              000                           
0010001300193T 020180230000002544776 29647040904605798   7               06032017000000000006000001005428                         0900000000000010000000000000000000000000000000000000000   0000000000000000000000000A9        170192964704     
0010001300194U 020000000000000000000000000000000000000000000000000000000000000000000000000000000000000000000000000000000000000000000000000403201700000000            000000000000000                              000                           
0010001300195T 020180230000002544776 29647040908120087   7               08032017000000000008000001016179                         0900000000000010000000000000000000000000000000000000000   0000000000000000000000000A9        170192964704     
0010001300196U 020000000000000000000000000000000000000000000000000000000000000000000000000000000000000000000000000000000000000000000000000603201700000000            000000000000000                              000                           
0010001300197T 020180230000002544776 29647040914707096   7               08032017000000000006000001012467                         0900000000000010000000000000000000000000000000000000000   0000000000000000000000000A9        170192964704     
0010001300198U 020000000000000000000000000000000000000000000000000000000000000000000000000000000000000000000000000000000000000000000000000603201700000000            000000000000000                              000                           
0010001300199T 020180230000002544776 29647040921643504   7               08032017000000000008000001008214                         0900000000000010000000000000000000000000000000000000000   0000000000000000000000000A9        170192964704     
0010001300200U 020000000000000000000000000000000000000000000000000000000000000000000000000000000000000000000000000000000000000000000000000603201700000000            000000000000000                              000                           
0010001300201T 020180230000002544776 29647040923937300   7               08032017000000000006000001024252                         0900000000000010500000000000000000000000000000000000000   0000000000000000000000000A9A4      170192964704     
0010001300202U 020000000000000000000000000000000000000000000000000000000000000000000000000000000000000000000000000000000000000000000000000603201700000000            000000000000000                              000                           
0010001300203T 020180230000002544776 29647040925609407   7               07032017000000000006000001028029                         0900000000000010000000000000000000000000000000000000000   0000000000000000000000000A9        170192964704     
0010001300204U 020000000000000000000000000000000000000000000000000000000000000000000000000000000000000000000000000000000000000000000000000503201700000000            000000000000000                              000                           
0010001300205T 020180230000002544776 29647040927944017   7               08032017000000000006000001033316                         0900000000000010000000000000000000000000000000000000000   0000000000000000000000000A9        170192964704     
0010001300206U 020000000000000000000000000000000000000000000000000000000000000000000000000000000000000000000000000000000000000000000000000603201700000000            000000000000000                              000                           
0010001300207T 020180230000002544776 29647040928903559   7               06032017000000000006000001012467                         0900000000000010000000000000000000000000000000000000000   0000000000000000000000000A9        170192964704     
0010001300208U 020000000000000000000000000000000000000000000000000000000000000000000000000000000000000000000000000000000000000000000000000403201700000000            000000000000000                              000                           
0010001300209T 020180230000002544776 29647040928907089   7               08032017000000000006000001012467                         0900000000000010000000000000000000000000000000000000000   0000000000000000000000000A9        170192964704     
0010001300210U 020000000000000000000000000000000000000000000000000000000000000000000000000000000000000000000000000000000000000000000000000603201700000000            000000000000000                              000                           
0010001300211T 020180230000002544776 29647040930202518   7               08032017000000000008000001012467                         0900000000000010000000000000000000000000000000000000000   0000000000000000000000000A9        170192964704     
0010001300212U 020000000000000000000000000000000000000000000000000000000000000000000000000000000000000000000000000000000000000000000000000603201700000000            000000000000000                              000                           
0010001300213T 020180230000002544776 29647040930207167   7               08032017000000000008000001012467                         0900000000000010000000000000000000000000000000000000000   0000000000000000000000000A9        170192964704     
0010001300214U 020000000000000000000000000000000000000000000000000000000000000000000000000000000000000000000000000000000000000000000000000603201700000000            000000000000000                              000                           
0010001300215T 020180230000002544776 29647040930512034   7               08032017000000000006000001012467                         0900000000000010000000000000000000000000000000000000000   0000000000000000000000000A9        170192964704     
0010001300216U 020000000000000000000000000000000000000000000000000000000000000000000000000000000000000000000000000000000000000000000000000603201700000000            000000000000000                              000                           
0010001300217T 020180230000002544776 29647040936305566   7               08032017000000000006000001002933                         0900000000000010000000000000000000000000000000000000000   0000000000000000000000000A9        170192964704     
0010001300218U 020000000000000000000000000000000000000000000000000000000000000000000000000000000000000000000000000000000000000000000000000603201700000000            000000000000000                              000                           
0010001300219T 020180230000002544776 29647040938949294   7               07032017000000000006000001016179                         0900000000000010000000000000000000000000000000000000000   0000000000000000000000000A9        170192964704     
0010001300220U 020000000000000000000000000000000000000000000000000000000000000000000000000000000000000000000000000000000000000000000000000503201700000000            000000000000000                              000                           
0010001300221T 020180230000002544776 29647040941006358   7               05032017000000000006000001007595                         0900000000000010500000000000000000000000000000000000000   0000000000000000000000000A9A4      170192964704     
0010001300222U 020000000000000000000000000000000000000000000000000000000000000000000000000000000000000000000000000000000000000000000000000303201700000000            000000000000000                              000                           
0010001300223T 020180230000002544776 29647040943201690   7               08032017000000000006000001020354                         0900000000000010000000000000000000000000000000000000000   0000000000000000000000000A9        170192964704     
0010001300224U 020000000000000000000000000000000000000000000000000000000000000000000000000000000000000000000000000000000000000000000000000603201700000000            000000000000000                              000                           
0010001300225T 020180230000002544776 29647040943444037   7               08032017000000000006000001028029                         0900000000000010500000000000000000000000000000000000000   0000000000000000000000000A9A4      170192964704     
0010001300226U 020000000000000000000000000000000000000000000000000000000000000000000000000000000000000000000000000000000000000000000000000603201700000000            000000000000000                              000                           
0010001300227T 020180230000002544776 29647040943925787   7               06032017000000000008000001033316                         0900000000000010000000000000000000000000000000000000000   0000000000000000000000000A9        170192964704     
0010001300228U 020000000000000000000000000000000000000000000000000000000000000000000000000000000000000000000000000000000000000000000000000403201700000000            000000000000000                              000                           
0010001300229T 020180230000002544776 29647040943926203   7               06032017000000000008000001033316                         0900000000000010000000000000000000000000000000000000000   0000000000000000000000000A9        170192964704     
0010001300230U 020000000000000000000000000000000000000000000000000000000000000000000000000000000000000000000000000000000000000000000000000403201700000000            000000000000000                              000                           
0010001300231T 020180230000002544776 29647040944914989   7               08032017000000000006000001016179                         0900000000000010000000000000000000000000000000000000000   0000000000000000000000000A9        170192964704     
0010001300232U 020000000000000000000000000000000000000000000000000000000000000000000000000000000000000000000000000000000000000000000000000603201700000000            000000000000000                              000                           
0010001300233T 020180230000002544776 29647040947919251   7               07032017000000000006000001035033                         0900000000000010000000000000000000000000000000000000000   0000000000000000000000000A9        170192964704     
0010001300234U 020000000000000000000000000000000000000000000000000000000000000000000000000000000000000000000000000000000000000000000000000503201700000000            000000000000000                              000                           
0010001300235T 020180230000002544776 29647040947929018   7               07032017000000000006000001035033                         0900000000000010000000000000000000000000000000000000000   0000000000000000000000000A9        170192964704     
0010001300236U 020000000000000000000000000000000000000000000000000000000000000000000000000000000000000000000000000000000000000000000000000503201700000000            000000000000000                              000                           
0010001300237T 020180230000002544776 29647040949658465   7               08032017000000000006000001002208                         0900000000000010000000000000000000000000000000000000000   0000000000000000000000000A9        170192964704     
0010001300238U 020000000000000000000000000000000000000000000000000000000000000000000000000000000000000000000000000000000000000000000000000603201700000000            000000000000000                              000                           
0010001300239T 020180230000002544776 29647040956801549   7               07032017000000000008000001032883                         0900000000000010000000000000000000000000000000000000000   0000000000000000000000000A9        170192964704     
0010001300240U 020000000000000000000000000000000000000000000000000000000000000000000000000000000000000000000000000000000000000000000000000503201700000000            000000000000000                              000                           
0010001300241T 020180230000002544776 29647040958059869   7               05032017000000000006000001000132                         0900000000000010000000000000000000000000000000000000000   0000000000000000000000000A9        170192964704     
0010001300242U 020000000000000000000000000000000000000000000000000000000000000000000000000000000000000000000000000000000000000000000000000303201700000000            000000000000000                              000                           
0010001300243T 020180230000002544776 29647040965336907   7               08032017000000000008000001030864                         0900000000000010000000000000000000000000000000000000000   0000000000000000000000000A9        170192964704     
0010001300244U 020000000000000000000000000000000000000000000000000000000000000000000000000000000000000000000000000000000000000000000000000603201700000000            000000000000000                              000                           
0010001300245T 020180230000002544776 29647040965348403   7               07032017000000000008000001030864                         0900000000000010000000000000000000000000000000000000000   0000000000000000000000000A9        170192964704     
0010001300246U 020000000000000000000000000000000000000000000000000000000000000000000000000000000000000000000000000000000000000000000000000503201700000000            000000000000000                              000                           
0010001300247T 020180230000002544776 29647040968051261   7               07032017000000000006000001016179                         0900000000000010500000000000000000000000000000000000000   0000000000000000000000000A9A4      170192964704     
0010001300248U 020000000000000000000000000000000000000000000000000000000000000000000000000000000000000000000000000000000000000000000000000503201700000000            000000000000000                              000                           
0010001300249T 020180230000002544776 29647040976902645   7               06032017000000000008000001028029                         0900000000000010000000000000000000000000000000000000000   0000000000000000000000000A9        170192964704     
0010001300250U 020000000000000000000000000000000000000000000000000000000000000000000000000000000000000000000000000000000000000000000000000403201700000000            000000000000000                              000                           
0010001300251T 020180230000002544776 29647040978844328   7               0803201700000000000800000101981X                         0900000000000010000000000000000000000000000000000000000   0000000000000000000000000A9        170192964704     
0010001300252U 020000000000000000000000000000000000000000000000000000000000000000000000000000000000000000000000000000000000000000000000000603201700000000            000000000000000                              000                           
0010001300253T 020180230000002544776 29647040978926502   7               08032017000000000006000001005428                         0900000000000010000000000000000000000000000000000000000   0000000000000000000000000A9        170192964704     
0010001300254U 020000000000000000000000000000000000000000000000000000000000000000000000000000000000000000000000000000000000000000000000000603201700000000            000000000000000                              000                           
0010001300255T 020180230000002544776 29647040979005107   7               08032017000000000008000001035041                         0900000000000010000000000000000000000000000000000000000   0000000000000000000000000A9        170192964704     
0010001300256U 020000000000000000000000000000000000000000000000000000000000000000000000000000000000000000000000000000000000000000000000000603201700000000            000000000000000                              000                           
0010001300257T 020180230000002544776 29647040981800456   7               08032017000000000006000001016179                         0900000000000010000000000000000000000000000000000000000   0000000000000000000000000A9        170192964704     
0010001300258U 020000000000000000000000000000000000000000000000000000000000000000000000000000000000000000000000000000000000000000000000000603201700000000            000000000000000                              000                           
0010001300259T 020180230000002544776 29647040981850080   7               08032017000000000006000001016179                         0900000000000010000000000000000000000000000000000000000   0000000000000000000000000A9        170192964704     
0010001300260U 020000000000000000000000000000000000000000000000000000000000000000000000000000000000000000000000000000000000000000000000000603201700000000            000000000000000                              000                           
0010001300261T 020180230000002544776 29647040982212684   7               08032017000000000006000001028029                         0900000000000010000000000000000000000000000000000000000   0000000000000000000000000A9        170192964704     
0010001300262U 020000000000000000000000000000000000000000000000000000000000000000000000000000000000000000000000000000000000000000000000000603201700000000            000000000000000                              000                           
0010001300263T 020180230000002544776 29647040982242608   7               06032017000000000006000001028029                         0900000000000010000000000000000000000000000000000000000   0000000000000000000000000A9        170192964704     
0010001300264U 020000000000000000000000000000000000000000000000000000000000000000000000000000000000000000000000000000000000000000000000000403201700000000            000000000000000                              000                           
0010001300265T 020180230000002544776 29647040982943872   7               0603201700000000000600000101981X                         0900000000000010000000000000000000000000000000000000000   0000000000000000000000000A9        170192964704     
0010001300266U 020000000000000000000000000000000000000000000000000000000000000000000000000000000000000000000000000000000000000000000000000403201700000000            000000000000000                              000                           
0010001300267T 020180230000002544776 29647040983634819   7               08032017000000000006000001012467                         0900000000000010500000000000000000000000000000000000000   0000000000000000000000000A9A4      170192964704     
0010001300268U 020000000000000000000000000000000000000000000000000000000000000000000000000000000000000000000000000000000000000000000000000603201700000000            000000000000000                              000                           
0010001300269T 020180230000002544776 29647040985058885   7               08032017000000000006000001005479                         0900000000000010500000000000000000000000000000000000000   0000000000000000000000000A9A4      170192964704     
0010001300270U 020000000000000000000000000000000000000000000000000000000000000000000000000000000000000000000000000000000000000000000000000603201700000000            000000000000000                              000                           
0010001300271T 020180230000002544776 29647040986450787   7               06032017000000000006000001028029                         0900000000000010000000000000000000000000000000000000000   0000000000000000000000000A9        170192964704     
0010001300272U 020000000000000000000000000000000000000000000000000000000000000000000000000000000000000000000000000000000000000000000000000403201700000000            000000000000000                              000                           
0010001300273T 020180230000002544776 29647040987216300   7               08032017000000000006000001000132                         0900000000000010000000000000000000000000000000000000000   0000000000000000000000000A9        170192964704     
0010001300274U 020000000000000000000000000000000000000000000000000000000000000000000000000000000000000000000000000000000000000000000000000603201700000000            000000000000000                              000                           
0010001300275T 020180230000002544776 29647040988241226   7               08032017000000000006000001016179                         0900000000000010000000000000000000000000000000000000000   0000000000000000000000000A9        170192964704     
0010001300276U 020000000000000000000000000000000000000000000000000000000000000000000000000000000000000000000000000000000000000000000000000603201700000000            000000000000000                              000                           
0010001300277T 020180230000002544776 29647040991404875   7               08032017000000000006000001000132                         0900000000000010000000000000000000000000000000000000000   0000000000000000000000000A9        170192964704     
0010001300278U 020000000000000000000000000000000000000000000000000000000000000000000000000000000000000000000000000000000000000000000000000603201700000000            000000000000000                              000                           
0010001300279T 020180230000002544776 29647040992218127   7               06032017000000000006000001006254                         0900000000000010000000000000000000000000000000000000000   0000000000000000000000000A9        170192964704     
0010001300280U 020000000000000000000000000000000000000000000000000000000000000000000000000000000000000000000000000000000000000000000000000403201700000000            000000000000000                              000                           
0010001300281T 020180230000002544776 29647040992242242   7               06032017000000000006000001006254                         0900000000000010000000000000000000000000000000000000000   0000000000000000000000000A9        170192964704     
0010001300282U 020000000000000000000000000000000000000000000000000000000000000000000000000000000000000000000000000000000000000000000000000403201700000000            000000000000000                              000                           
0010001300283T 020180230000002544776 29647040992254761   7               08032017000000000006000001006254                         0900000000000010000000000000000000000000000000000000000   0000000000000000000000000A9        170192964704     
0010001300284U 020000000000000000000000000000000000000000000000000000000000000000000000000000000000000000000000000000000000000000000000000603201700000000            000000000000000                              000                           
0010001300285T 020180230000002544776 29647040992352069   7               0803201700000000000600000101981X                         0900000000000010000000000000000000000000000000000000000   0000000000000000000000000A9        170192964704     
0010001300286U 020000000000000000000000000000000000000000000000000000000000000000000000000000000000000000000000000000000000000000000000000603201700000000            000000000000000                              000                           
0010001300287T 020180230000002544776 29647040993911522   7               08032017000000000008000001016179                         0900000000000010000000000000000000000000000000000000000   0000000000000000000000000A9        170192964704     
0010001300288U 020000000000000000000000000000000000000000000000000000000000000000000000000000000000000000000000000000000000000000000000000603201700000000            000000000000000                              000                           
0010001300289T 020180230000002544776 29647040993913967   7               06032017000000000008000001016179                         0900000000000010000000000000000000000000000000000000000   0000000000000000000000000A9        170192964704     
0010001300290U 020000000000000000000000000000000000000000000000000000000000000000000000000000000000000000000000000000000000000000000000000403201700000000            000000000000000                              000                           
0010001300291T 020180230000002544776 29647040993941367   7               08032017000000000008000001016179                         0900000000000010000000000000000000000000000000000000000   0000000000000000000000000A9        170192964704     
0010001300292U 020000000000000000000000000000000000000000000000000000000000000000000000000000000000000000000000000000000000000000000000000603201700000000            000000000000000                              000                           
0010001300293T 020180230000002544776 29647040994037749   7               08032017000000000006000001033316                         0900000000000010000000000000000000000000000000000000000   0000000000000000000000000A9        170192964704     
0010001300294U 020000000000000000000000000000000000000000000000000000000000000000000000000000000000000000000000000000000000000000000000000603201700000000            000000000000000                              000                           
0010001300295T 020180230000002544776 29647040999210299   7               08032017000000000008000001001287                         0900000000000010000000000000000000000000000000000000000   0000000000000000000000000A9        170192964704     
0010001300296U 020000000000000000000000000000000000000000000000000000000000000000000000000000000000000000000000000000000000000000000000000603201700000000            000000000000000                              000                           
0010001300297T 020180230000002544776 29647040999221070   7               08032017000000000008000001001287                         0900000000000010000000000000000000000000000000000000000   0000000000000000000000000A9        170192964704     
0010001300298U 020000000000000000000000000000000000000000000000000000000000000000000000000000000000000000000000000000000000000000000000000603201700000000            000000000000000                              000                           
0010001300299T 020180230000002544776 29647040999226825   7               08032017000000000008000001001287                         0900000000000010000000000000000000000000000000000000000   0000000000000000000000000A9        170192964704     
0010001300300U 020000000000000000000000000000000000000000000000000000000000000000000000000000000000000000000000000000000000000000000000000603201700000000            000000000000000                              000                           
0010001300301T 020180230000002544776 29647040999230958   7               08032017000000000008000001001287                         0900000000000010000000000000000000000000000000000000000   0000000000000000000000000A9        170192964704     
0010001300302U 020000000000000000000000000000000000000000000000000000000000000000000000000000000000000000000000000000000000000000000000000603201700000000            000000000000000                              000                           
0010001300303T 020180230000002544776 29647040999503720   7               05032017000000000006000001013617                         0900000000000010000000000000000000000000000000000000000   0000000000000000000000000A9        170192964704     
0010001300304U 020000000000000000000000000000000000000000000000000000000000000000000000000000000000000000000000000000000000000000000000000303201700000000            000000000000000                              000                           
0010001300305T 020180230000002544776 29647040999532359   7               08032017000000000006000001013617                         0900000000000010000000000000000000000000000000000000000   0000000000000000000000000A9        170192964704     
0010001300306U 020000000000000000000000000000000000000000000000000000000000000000000000000000000000000000000000000000000000000000000000000603201700000000            000000000000000                              000                           
0010001300307T 020180230000002544776 29647041001126747   7               07032017000000000006000001016179                         0900000000000010500000000000000000000000000000000000000   0000000000000000000000000A9A4      170192964704     
0010001300308U 020000000000000000000000000000000000000000000000000000000000000000000000000000000000000000000000000000000000000000000000000503201700000000            000000000000000                              000                           
0010001300309T 020180230000002544776 29647041003745161   7               06032017000000000006000001016179                         0900000000000010000000000000000000000000000000000000000   0000000000000000000000000A9        170192964704     
0010001300310U 020000000000000000000000000000000000000000000000000000000000000000000000000000000000000000000000000000000000000000000000000403201700000000            000000000000000                              000                           
0010001300311T 020180230000002544776 29647041005522498   7               07032017000000000006000001028029                         0900000000000010000000000000000000000000000000000000000   0000000000000000000000000A9        170192964704     
0010001300312U 020000000000000000000000000000000000000000000000000000000000000000000000000000000000000000000000000000000000000000000000000503201700000000            000000000000000                              000                           
0010001300313T 020180230000002544776 29647041010556354   7               08032017000000000006000001016179                         0900000000000010000000000000000000000000000000000000000   0000000000000000000000000A9        170192964704     
0010001300314U 020000000000000000000000000000000000000000000000000000000000000000000000000000000000000000000000000000000000000000000000000603201700000000            000000000000000                              000                           
0010001300315T 020180230000002544776 29647041011736262   7               08032017000000000006000001013617                         0900000000000010000000000000000000000000000000000000000   0000000000000000000000000A9        170192964704     
0010001300316U 020000000000000000000000000000000000000000000000000000000000000000000000000000000000000000000000000000000000000000000000000603201700000000            000000000000000                              000                           
0010001300317T 020180230000002544776 29647041013415514   7               06032017000000000006000001028495                         0900000000000010000000000000000000000000000000000000000   0000000000000000000000000A9        170192964704     
0010001300318U 020000000000000000000000000000000000000000000000000000000000000000000000000000000000000000000000000000000000000000000000000403201700000000            000000000000000                              000                           
0010001300319T 020180230000002544776 29647041019151275   7               08032017000000000006000001000132                         0900000000000010000000000000000000000000000000000000000   0000000000000000000000000A9        170192964704     
0010001300320U 020000000000000000000000000000000000000000000000000000000000000000000000000000000000000000000000000000000000000000000000000603201700000000            000000000000000                              000                           
0010001300321T 020180230000002544776 29647041024839257   7               0803201700000000000600000100944X                         0900000000000010000000000000000000000000000000000000000   0000000000000000000000000A9        170192964704     
0010001300322U 020000000000000000000000000000000000000000000000000000000000000000000000000000000000000000000000000000000000000000000000000603201700000000            000000000000000                              000                           
0010001300323T 020180230000002544776 29647041025018101   7               06032017000000000006000001028029                         0900000000000010000000000000000000000000000000000000000   0000000000000000000000000A9        170192964704     
0010001300324U 020000000000000000000000000000000000000000000000000000000000000000000000000000000000000000000000000000000000000000000000000403201700000000            000000000000000                              000                           
0010001300325T 020180230000002544776 29647041025035171   7               08032017000000000006000001028029                         0900000000000010000000000000000000000000000000000000000   0000000000000000000000000A9        170192964704     
0010001300326U 020000000000000000000000000000000000000000000000000000000000000000000000000000000000000000000000000000000000000000000000000603201700000000            000000000000000                              000                           
0010001300327T 020180230000002544776 29647041025053479   7               06032017000000000006000001028029                         0900000000000010000000000000000000000000000000000000000   0000000000000000000000000A9        170192964704     
0010001300328U 020000000000000000000000000000000000000000000000000000000000000000000000000000000000000000000000000000000000000000000000000403201700000000            000000000000000                              000                           
0010001300329T 020180230000002544776 29647041025326478   7               07032017000000000006000001012467                         0900000000000010000000000000000000000000000000000000000   0000000000000000000000000A9        170192964704     
0010001300330U 020000000000000000000000000000000000000000000000000000000000000000000000000000000000000000000000000000000000000000000000000503201700000000            000000000000000                              000                           
0010001300331T 020180230000002544776 29647041025520649   7               06032017000000000006000001028029                         0900000000000010000000000000000000000000000000000000000   0000000000000000000000000A9        170192964704     
0010001300332U 020000000000000000000000000000000000000000000000000000000000000000000000000000000000000000000000000000000000000000000000000403201700000000            000000000000000                              000                           
0010001300333T 020180230000002544776 29647041025522742   7               08032017000000000006000001028029                         0900000000000010000000000000000000000000000000000000000   0000000000000000000000000A9        170192964704     
0010001300334U 020000000000000000000000000000000000000000000000000000000000000000000000000000000000000000000000000000000000000000000000000603201700000000            000000000000000                              000                           
0010001300335T 020180230000002544776 29647041025536177   7               08032017000000000006000001028029                         0900000000000010000000000000000000000000000000000000000   0000000000000000000000000A9        170192964704     
0010001300336U 020000000000000000000000000000000000000000000000000000000000000000000000000000000000000000000000000000000000000000000000000603201700000000            000000000000000                              000                           
0010001300337T 020180230000002544776 29647041025743147   7               05032017000000000006000001000493                         0900000000000010000000000000000000000000000000000000000   0000000000000000000000000A9        170192964704     
0010001300338U 020000000000000000000000000000000000000000000000000000000000000000000000000000000000000000000000000000000000000000000000000303201700000000            000000000000000                              000                           
0010001300339T 020180230000002544776 29647041026010366   7               05032017000000000008000001012467                         0900000000000010000000000000000000000000000000000000000   0000000000000000000000000A9        170192964704     
0010001300340U 020000000000000000000000000000000000000000000000000000000000000000000000000000000000000000000000000000000000000000000000000303201700000000            000000000000000                              000                           
0010001300341T 020180230000002544776 29647041026147259   7               05032017000000000006000001028029                         0900000000000010500000000000000000000000000000000000000   0000000000000000000000000A9A4      170192964704     
0010001300342U 020000000000000000000000000000000000000000000000000000000000000000000000000000000000000000000000000000000000000000000000000303201700000000            000000000000000                              000                           
0010001300343T 020180230000002544776 29647041026449749   7               05032017000000000006000001028029                         0900000000000010000000000000000000000000000000000000000   0000000000000000000000000A9        170192964704     
0010001300344U 020000000000000000000000000000000000000000000000000000000000000000000000000000000000000000000000000000000000000000000000000303201700000000            000000000000000                              000                           
0010001300345T 020180230000002544776 29647041027049305   7               06032017000000000006000001018376                         0900000000000010000000000000000000000000000000000000000   0000000000000000000000000A9        170192964704     
0010001300346U 020000000000000000000000000000000000000000000000000000000000000000000000000000000000000000000000000000000000000000000000000403201700000000            000000000000000                              000                           
0010001300347T 020180230000002544776 29647041027117917   7               06032017000000000006000001020354                         0900000000000010000000000000000000000000000000000000000   0000000000000000000000000A9        170192964704     
0010001300348U 020000000000000000000000000000000000000000000000000000000000000000000000000000000000000000000000000000000000000000000000000403201700000000            000000000000000                              000                           
0010001300349T 020180230000002544776 29647041027438079   7               06032017000000000006000001008214                         0900000000000010000000000000000000000000000000000000000   0000000000000000000000000A9        170192964704     
0010001300350U 020000000000000000000000000000000000000000000000000000000000000000000000000000000000000000000000000000000000000000000000000403201700000000            000000000000000                              000                           
0010001300351T 020180230000002544776 29647041027626793   7               08032017000000000006000001028029                         0900000000000010500000000000000000000000000000000000000   0000000000000000000000000A9A4      170192964704     
0010001300352U 020000000000000000000000000000000000000000000000000000000000000000000000000000000000000000000000000000000000000000000000000603201700000000            000000000000000                              000                           
0010001300353T 020180230000002544776 29647041027721366   7               06032017000000000006000001013692                         0900000000000010000000000000000000000000000000000000000   0000000000000000000000000A9        170192964704     
0010001300354U 020000000000000000000000000000000000000000000000000000000000000000000000000000000000000000000000000000000000000000000000000403201700000000            000000000000000                              000                           
0010001300355T 020180230000002544776 29647041027733171   7               06032017000000000006000001013692                         0900000000000010000000000000000000000000000000000000000   0000000000000000000000000A9        170192964704     
0010001300356U 020000000000000000000000000000000000000000000000000000000000000000000000000000000000000000000000000000000000000000000000000403201700000000            000000000000000                              000                           
0010001300357T 020180230000002544776 29647041027839887   7               06032017000000000006000001028029                         0900000000000010000000000000000000000000000000000000000   0000000000000000000000000A9        170192964704     
0010001300358U 020000000000000000000000000000000000000000000000000000000000000000000000000000000000000000000000000000000000000000000000000403201700000000            000000000000000                              000                           
0010001300359T 020180230000002544776 29647041028004305   7               08032017000000000008000001010421                         0900000000000010000000000000000000000000000000000000000   0000000000000000000000000A9        170192964704     
0010001300360U 020000000000000000000000000000000000000000000000000000000000000000000000000000000000000000000000000000000000000000000000000603201700000000            000000000000000                              000                           
0010001300361T 020180230000002544776 29647041028502958   7               08032017000000000008000001016020                         0900000000000010000000000000000000000000000000000000000   0000000000000000000000000A9        170192964704     
0010001300362U 020000000000000000000000000000000000000000000000000000000000000000000000000000000000000000000000000000000000000000000000000603201700000000            000000000000000                              000                           
0010001300363T 020180230000002544776 29647041028510393   7               06032017000000000008000001016020                         0900000000000010000000000000000000000000000000000000000   0000000000000000000000000A9        170192964704     
0010001300364U 020000000000000000000000000000000000000000000000000000000000000000000000000000000000000000000000000000000000000000000000000403201700000000            000000000000000                              000                           
0010001300365T 020180230000002544776 29647041028803331   7               06032017000000000006000001005428                         0900000000000010000000000000000000000000000000000000000   0000000000000000000000000A9        170192964704     
0010001300366U 020000000000000000000000000000000000000000000000000000000000000000000000000000000000000000000000000000000000000000000000000403201700000000            000000000000000                              000                           
0010001300367T 020180230000002544776 29647041028823567   7               06032017000000000006000001005428                         0900000000000010000000000000000000000000000000000000000   0000000000000000000000000A9        170192964704     
0010001300368U 020000000000000000000000000000000000000000000000000000000000000000000000000000000000000000000000000000000000000000000000000403201700000000            000000000000000                              000                           
0010001300369T 020180230000002544776 29647041028846833   7               06032017000000000006000001005428                         0900000000000010000000000000000000000000000000000000000   0000000000000000000000000A9        170192964704     
0010001300370U 020000000000000000000000000000000000000000000000000000000000000000000000000000000000000000000000000000000000000000000000000403201700000000            000000000000000                              000                           
0010001300371T 020180230000002544776 29647041029009760   7               06032017000000000006000001000132                         0900000000000010000000000000000000000000000000000000000   0000000000000000000000000A9        170192964704     
0010001300372U 020000000000000000000000000000000000000000000000000000000000000000000000000000000000000000000000000000000000000000000000000403201700000000            000000000000000                              000                           
0010001300373T 020180230000002544776 29647041029132280   7               06032017000000000006000001000132                         0900000000000010000000000000000000000000000000000000000   0000000000000000000000000A9        170192964704     
0010001300374U 020000000000000000000000000000000000000000000000000000000000000000000000000000000000000000000000000000000000000000000000000403201700000000            000000000000000                              000                           
0010001300375T 020180230000002544776 29647041029510990   7               06032017000000000006000001033316                         0900000000000010000000000000000000000000000000000000000   0000000000000000000000000A9        170192964704     
0010001300376U 020000000000000000000000000000000000000000000000000000000000000000000000000000000000000000000000000000000000000000000000000403201700000000            000000000000000                              000                           
0010001300377T 020180230000002544776 29647041030020183   7               06032017000000000006000001016179                         0900000000000010000000000000000000000000000000000000000   0000000000000000000000000A9        170192964704     
0010001300378U 020000000000000000000000000000000000000000000000000000000000000000000000000000000000000000000000000000000000000000000000000403201700000000            000000000000000                              000                           
0010001300379T 020180230000002544776 29647041030456650   7               06032017000000000008000001026840                         0900000000000010000000000000000000000000000000000000000   0000000000000000000000000A9        170192964704     
0010001300380U 020000000000000000000000000000000000000000000000000000000000000000000000000000000000000000000000000000000000000000000000000403201700000000            000000000000000                              000                           
0010001300381T 020180230000002544776 29647041030817308   7               06032017000000000006000001016179                         0900000000000010000000000000000000000000000000000000000   0000000000000000000000000A9        170192964704     
0010001300382U 020000000000000000000000000000000000000000000000000000000000000000000000000000000000000000000000000000000000000000000000000403201700000000            000000000000000                              000                           
0010001300383T 020180230000002544776 29647041031038056   7               06032017000000000006000001028029                         0900000000000010000000000000000000000000000000000000000   0000000000000000000000000A9        170192964704     
0010001300384U 020000000000000000000000000000000000000000000000000000000000000000000000000000000000000000000000000000000000000000000000000403201700000000            000000000000000                              000                           
0010001300385T 020180230000002544776 29647041031557965   7               06032017000000000006000001028029                         0900000000000010000000000000000000000000000000000000000   0000000000000000000000000A9        170192964704     
0010001300386U 020000000000000000000000000000000000000000000000000000000000000000000000000000000000000000000000000000000000000000000000000403201700000000            000000000000000                              000                           
0010001300387T 020180230000002544776 29647041032730792   7               06032017000000000006000001016861                         0900000000000010000000000000000000000000000000000000000   0000000000000000000000000A9        170192964704     
0010001300388U 020000000000000000000000000000000000000000000000000000000000000000000000000000000000000000000000000000000000000000000000000403201700000000            000000000000000                              000                           
0010001300389T 020180230000002544776 29647041032804631   7               06032017000000000006000001016179                         0900000000000010000000000000000000000000000000000000000   0000000000000000000000000A9        170192964704     
0010001300390U 020000000000000000000000000000000000000000000000000000000000000000000000000000000000000000000000000000000000000000000000000403201700000000            000000000000000                              000                           
0010001300391T 020180230000002544776 29647041033020004   7               06032017000000000006000001028029                         0900000000000010500000000000000000000000000000000000000   0000000000000000000000000A9A4      170192964704     
0010001300392U 020000000000000000000000000000000000000000000000000000000000000000000000000000000000000000000000000000000000000000000000000403201700000000            000000000000000                              000                           
0010001300393T 020180230000002544776 29647041033101105   7               06032017000000000006000001018376                         0900000000000010000000000000000000000000000000000000000   0000000000000000000000000A9        170192964704     
0010001300394U 020000000000000000000000000000000000000000000000000000000000000000000000000000000000000000000000000000000000000000000000000403201700000000            000000000000000                              000                           
0010001300395T 020180230000002544776 29647041033109956   7               06032017000000000006000001018376                         0900000000000010000000000000000000000000000000000000000   0000000000000000000000000A9        170192964704     
0010001300396U 020000000000000000000000000000000000000000000000000000000000000000000000000000000000000000000000000000000000000000000000000403201700000000            000000000000000                              000                           
0010001300397T 020180230000002544776 29647041033552413   7               06032017000000000006000001008214                         0900000000000010000000000000000000000000000000000000000   0000000000000000000000000A9        170192964704     
0010001300398U 020000000000000000000000000000000000000000000000000000000000000000000000000000000000000000000000000000000000000000000000000403201700000000            000000000000000                              000                           
0010001300399T 020180230000002544776 29647041033638919   7               06032017000000000006000001018376                         0900000000000010000000000000000000000000000000000000000   0000000000000000000000000A9        170192964704     
0010001300400U 020000000000000000000000000000000000000000000000000000000000000000000000000000000000000000000000000000000000000000000000000403201700000000            000000000000000                              000                           
0010001300401T 020180230000002544776 29647041033807380   7               0603201700000000000600000100233X                         0900000000000010000000000000000000000000000000000000000   0000000000000000000000000A9        170192964704     
0010001300402U 020000000000000000000000000000000000000000000000000000000000000000000000000000000000000000000000000000000000000000000000000403201700000000            000000000000000                              000                           
0010001300403T 020180230000002544776 29647041033956601   7               06032017000000000006000001016179                         0900000000000010000000000000000000000000000000000000000   0000000000000000000000000A9        170192964704     
0010001300404U 020000000000000000000000000000000000000000000000000000000000000000000000000000000000000000000000000000000000000000000000000403201700000000            000000000000000                              000                           
0010001300405T 020180230000002544776 29647041034341694   7               06032017000000000008000001011282                         0900000000000010000000000000000000000000000000000000000   0000000000000000000000000A9        170192964704     
0010001300406U 020000000000000000000000000000000000000000000000000000000000000000000000000000000000000000000000000000000000000000000000000403201700000000            000000000000000                              000                           
0010001300407T 020180230000002544776 29647041035016102   7               06032017000000000006000001000671                         0900000000000010000000000000000000000000000000000000000   0000000000000000000000000A9        170192964704     
0010001300408U 020000000000000000000000000000000000000000000000000000000000000000000000000000000000000000000000000000000000000000000000000403201700000000            000000000000000                              000                           
0010001300409T 020180230000002544776 29647041035023763   7               06032017000000000006000001000671                         0900000000000010000000000000000000000000000000000000000   0000000000000000000000000A9        170192964704     
0010001300410U 020000000000000000000000000000000000000000000000000000000000000000000000000000000000000000000000000000000000000000000000000403201700000000            000000000000000                              000                           
0010001300411T 020180230000002544776 29647041035123104   7               06032017000000000008000001016020                         0900000000000010000000000000000000000000000000000000000   0000000000000000000000000A9        170192964704     
0010001300412U 020000000000000000000000000000000000000000000000000000000000000000000000000000000000000000000000000000000000000000000000000403201700000000            000000000000000                              000                           
