00100000         2247745860001000029647040014       0180230000002544776 INSTITUTO DE SELECAO E TECNOLOBANCO DO BRASIL                         20703201701351600005003000000515122941PROCESSAMEN                                                 
00100011T0100020 20247745860001000029647040014       0180230000002544776 INSTITUTO DE SELECAO E TECNOLO                                                                                000000000703201700000000  000000000                      
0010001300001T 020180230000002544776 29647040564725321   7               09032017000000000006000001016179                         0900000000000010000000000000000000000000000000000000000   0000000000000000000000000A9        170192964704     
0010001300002U 020000000000000000000000000000000000000000000000000000000000000000000000000000000000000000000000000000000000000000000000000703201700000000            000000000000000                              000                           
0010001300003T 020180230000002544776 29647040564732689   7               09032017000000000006000001016179                         0900000000000010000000000000000000000000000000000000000   0000000000000000000000000A9        170192964704     
0010001300004U 020000000000000000000000000000000000000000000000000000000000000000000000000000000000000000000000000000000000000000000000000703201700000000            000000000000000                              000                           
0010001300005T 020180230000002544776 29647040564752277   7               09032017000000000006000001016179                         0900000000000010000000000000000000000000000000000000000   0000000000000000000000000A9        170192964704     
0010001300006U 020000000000000000000000000000000000000000000000000000000000000000000000000000000000000000000000000000000000000000000000000703201700000000            000000000000000                              000                           
0010001300007T 020180230000002544776 29647040567530123   7               09032017000000000006000001000132                         0900000000000010000000000000000000000000000000000000000   0000000000000000000000000A9        170192964704     
0010001300008U 020000000000000000000000000000000000000000000000000000000000000000000000000000000000000000000000000000000000000000000000000703201700000000            000000000000000                              000                           
0010001300009T 020180230000002544776 29647040567542038   7               09032017000000000006000001000132                         0900000000000010000000000000000000000000000000000000000   0000000000000000000000000A9        170192964704     
0010001300010U 020000000000000000000000000000000000000000000000000000000000000000000000000000000000000000000000000000000000000000000000000703201700000000            000000000000000                              000                           
0010001300011T 020180230000002544776 29647040576048537   7               09032017000000000006000001000132                         0900000000000010000000000000000000000000000000000000000   0000000000000000000000000A9        170192964704     
0010001300012U 020000000000000000000000000000000000000000000000000000000000000000000000000000000000000000000000000000000000000000000000000703201700000000            000000000000000                              000                           
0010001300013T 020180230000002544776 29647040576131234   7               09032017000000000006000001000132                         0900000000000010000000000000000000000000000000000000000   0000000000000000000000000A9        170192964704     
0010001300014U 020000000000000000000000000000000000000000000000000000000000000000000000000000000000000000000000000000000000000000000000000703201700000000            000000000000000                              000                           
0010001300015T 020180230000002544776 29647040594832650   7               09032017000000000006000001028029                         0900000000000010000000000000000000000000000000000000000   0000000000000000000000000A9        170192964704     
0010001300016U 020000000000000000000000000000000000000000000000000000000000000000000000000000000000000000000000000000000000000000000000000703201700000000            000000000000000                              000                           
0010001300017T 020180230000002544776 29647040606509155   7               09032017000000000006000001000132                         0900000000000010000000000000000000000000000000000000000   0000000000000000000000000A9        170192964704     
0010001300018U 020000000000000000000000000000000000000000000000000000000000000000000000000000000000000000000000000000000000000000000000000703201700000000            000000000000000                              000                           
0010001300019T 020180230000002544776 29647040631842374   7               09032017000000000006000001023353                         0900000000000010000000000000000000000000000000000000000   0000000000000000000000000A9        170192964704     
0010001300020U 020000000000000000000000000000000000000000000000000000000000000000000000000000000000000000000000000000000000000000000000000703201700000000            000000000000000                              000                           
0010001300021T 020180230000002544776 29647040640111028   7               08032017000000000006000001033316                         0900000000000010000000000000000000000000000000000000000   0000000000000000000000000A9        170192964704     
0010001300022U 020000000000000000000000000000000000000000000000000000000000000000000000000000000000000000000000000000000000000000000000000603201700000000            000000000000000                              000                           
0010001300023T 020180230000002544776 29647040661000343   7               0903201700000000000600000100233X                         0900000000000010000000000000000000000000000000000000000   0000000000000000000000000A9        170192964704     
0010001300024U 020000000000000000000000000000000000000000000000000000000000000000000000000000000000000000000000000000000000000000000000000703201700000000            000000000000000                              000                           
0010001300025T 020180230000002544776 29647040678600726   7               09032017000000000006000001018376                         0900000000000010000000000000000000000000000000000000000   0000000000000000000000000A9        170192964704     
0010001300026U 020000000000000000000000000000000000000000000000000000000000000000000000000000000000000000000000000000000000000000000000000703201700000000            000000000000000                              000                           
0010001300027T 020180230000002544776 29647040678631646   7               09032017000000000006000001018376                         0900000000000010000000000000000000000000000000000000000   0000000000000000000000000A9        170192964704     
0010001300028U 020000000000000000000000000000000000000000000000000000000000000000000000000000000000000000000000000000000000000000000000000703201700000000            000000000000000                              000                           
0010001300029T 020180230000002544776 29647040683134050   7               09032017000000000006000001012467                         0900000000000010000000000000000000000000000000000000000   0000000000000000000000000A9        170192964704     
0010001300030U 020000000000000000000000000000000000000000000000000000000000000000000000000000000000000000000000000000000000000000000000000703201700000000            000000000000000                              000                           
0010001300031T 020180230000002544776 29647040688535913   7               09032017000000000006000001011371                         0900000000000010000000000000000000000000000000000000000   0000000000000000000000000A9        170192964704     
0010001300032U 020000000000000000000000000000000000000000000000000000000000000000000000000000000000000000000000000000000000000000000000000703201700000000            000000000000000                              000                           
0010001300033T 020180230000002544776 29647040689017690   7               09032017000000000008000001016179                         0900000000000010000000000000000000000000000000000000000   0000000000000000000000000A9        170192964704     
0010001300034U 020000000000000000000000000000000000000000000000000000000000000000000000000000000000000000000000000000000000000000000000000703201700000000            000000000000000                              000                           
0010001300035T 020180230000002544776 29647040691325161   7               09032017000000000006000001000132                         0900000000000010000000000000000000000000000000000000000   0000000000000000000000000A9        170192964704     
0010001300036U 020000000000000000000000000000000000000000000000000000000000000000000000000000000000000000000000000000000000000000000000000703201700000000            000000000000000                              000                           
0010001300037T 020180230000002544776 29647040693454342   7               09032017000000000008000001016179                         0900000000000010000000000000000000000000000000000000000   0000000000000000000000000A9        170192964704     
0010001300038U 020000000000000000000000000000000000000000000000000000000000000000000000000000000000000000000000000000000000000000000000000703201700000000            000000000000000                              000                           
0010001300039T 020180230000002544776 29647040696814112   7               09032017000000000006000001016489                         0900000000000010000000000000000000000000000000000000000   0000000000000000000000000A9        170192964704     
0010001300040U 020000000000000000000000000000000000000000000000000000000000000000000000000000000000000000000000000000000000000000000000000703201700000000            000000000000000                              000                           
0010001300041T 020180230000002544776 29647040699132056   7               09032017000000000006000001028029                         0900000000000010000000000000000000000000000000000000000   0000000000000000000000000A9        170192964704     
0010001300042U 020000000000000000000000000000000000000000000000000000000000000000000000000000000000000000000000000000000000000000000000000703201700000000            000000000000000                              000                           
0010001300043T 020180230000002544776 29647040702612177   7               09032017000000000006000001033316                         0900000000000010000000000000000000000000000000000000000   0000000000000000000000000A9        170192964704     
0010001300044U 020000000000000000000000000000000000000000000000000000000000000000000000000000000000000000000000000000000000000000000000000703201700000000            000000000000000                              000                           
0010001300045T 020180230000002544776 29647040702618937   7               09032017000000000006000001033316                         0900000000000010000000000000000000000000000000000000000   0000000000000000000000000A9        170192964704     
0010001300046U 020000000000000000000000000000000000000000000000000000000000000000000000000000000000000000000000000000000000000000000000000703201700000000            000000000000000                              000                           
0010001300047T 020180230000002544776 29647040702628017   7               09032017000000000006000001033316                         0900000000000010000000000000000000000000000000000000000   0000000000000000000000000A9        170192964704     
0010001300048U 020000000000000000000000000000000000000000000000000000000000000000000000000000000000000000000000000000000000000000000000000703201700000000            000000000000000                              000                           
0010001300049T 020180230000002544776 29647040703830115   7               09032017000000000006000001018376                         0900000000000010000000000000000000000000000000000000000   0000000000000000000000000A9        170192964704     
0010001300050U 020000000000000000000000000000000000000000000000000000000000000000000000000000000000000000000000000000000000000000000000000703201700000000            000000000000000                              000                           
0010001300051T 020180230000002544776 29647040707217640   7               08032017000000000006000001035041                         0900000000000010000000000000000000000000000000000000000   0000000000000000000000000A9        170192964704     
0010001300052U 020000000000000000000000000000000000000000000000000000000000000000000000000000000000000000000000000000000000000000000000000603201700000000            000000000000000                              000                           
0010001300053T 020180230000002544776 29647040709215333   7               09032017000000000006000001016179                         0900000000000010000000000000000000000000000000000000000   0000000000000000000000000A9        170192964704     
0010001300054U 020000000000000000000000000000000000000000000000000000000000000000000000000000000000000000000000000000000000000000000000000703201700000000            000000000000000                              000                           
0010001300055T 020180230000002544776 29647040710329619   7               09032017000000000006000001016179                         0900000000000010000000000000000000000000000000000000000   0000000000000000000000000A9        170192964704     
0010001300056U 020000000000000000000000000000000000000000000000000000000000000000000000000000000000000000000000000000000000000000000000000703201700000000            000000000000000                              000                           
0010001300057T 020180230000002544776 29647040718403471   7               09032017000000000006000001000132                         0900000000000010000000000000000000000000000000000000000   0000000000000000000000000A9        170192964704     
0010001300058U 020000000000000000000000000000000000000000000000000000000000000000000000000000000000000000000000000000000000000000000000000703201700000000            000000000000000                              000                           
0010001300059T 020180230000002544776 29647040722302778   7               09032017000000000006000001016179                         0900000000000010000000000000000000000000000000000000000   0000000000000000000000000A9        170192964704     
0010001300060U 020000000000000000000000000000000000000000000000000000000000000000000000000000000000000000000000000000000000000000000000000703201700000000            000000000000000                              000                           
0010001300061T 020180230000002544776 29647040725227967   7               09032017000000000006000001009849                         0900000000000010000000000000000000000000000000000000000   0000000000000000000000000A9        170192964704     
0010001300062U 020000000000000000000000000000000000000000000000000000000000000000000000000000000000000000000000000000000000000000000000000703201700000000            000000000000000                              000                           
0010001300063T 020180230000002544776 29647040735549593   7               09032017000000000006000001016179                         0900000000000010000000000000000000000000000000000000000   0000000000000000000000000A9        170192964704     
0010001300064U 020000000000000000000000000000000000000000000000000000000000000000000000000000000000000000000000000000000000000000000000000703201700000000            000000000000000                              000                           
0010001300065T 020180230000002544776 29647040741210355   7               09032017000000000006000001020354                         0900000000000010000000000000000000000000000000000000000   0000000000000000000000000A9        170192964704     
0010001300066U 020000000000000000000000000000000000000000000000000000000000000000000000000000000000000000000000000000000000000000000000000703201700000000            000000000000000                              000                           
0010001300067T 020180230000002544776 29647040743028356   7               09032017000000000006000001028029                         0900000000000010000000000000000000000000000000000000000   0000000000000000000000000A9        170192964704     
0010001300068U 020000000000000000000000000000000000000000000000000000000000000000000000000000000000000000000000000000000000000000000000000703201700000000            000000000000000                              000                           
0010001300069T 020180230000002544776 29647040765004554   7               09032017000000000006000001000361                         0900000000000010500000000000000000000000000000000000000   0000000000000000000000000A9A4      170192964704     
0010001300070U 020000000000000000000000000000000000000000000000000000000000000000000000000000000000000000000000000000000000000000000000000703201700000000            000000000000000                              000                           
0010001300071T 020180230000002544776 29647040765035702   7               09032017000000000006000001000361                         0900000000000010500000000000000000000000000000000000000   0000000000000000000000000A9A4      170192964704     
0010001300072U 020000000000000000000000000000000000000000000000000000000000000000000000000000000000000000000000000000000000000000000000000703201700000000            000000000000000                              000                           
0010001300073T 020180230000002544776 29647040765049456   7               09032017000000000006000001000361                         0900000000000010500000000000000000000000000000000000000   0000000000000000000000000A9A4      170192964704     
0010001300074U 020000000000000000000000000000000000000000000000000000000000000000000000000000000000000000000000000000000000000000000000000703201700000000            000000000000000                              000                           
0010001300075T 020180230000002544776 29647040774710436   7               09032017000000000006000001012467                         0900000000000010000000000000000000000000000000000000000   0000000000000000000000000A9        170192964704     
0010001300076U 020000000000000000000000000000000000000000000000000000000000000000000000000000000000000000000000000000000000000000000000000703201700000000            000000000000000                              000                           
0010001300077T 020180230000002544776 29647040799106374   7               09032017000000000006000001033316                         0900000000000010000000000000000000000000000000000000000   0000000000000000000000000A9        170192964704     
0010001300078U 020000000000000000000000000000000000000000000000000000000000000000000000000000000000000000000000000000000000000000000000000703201700000000            000000000000000                              000                           
0010001300079T 020180230000002544776 29647040799147895   7               09032017000000000006000001033316                         0900000000000010000000000000000000000000000000000000000   0000000000000000000000000A9        170192964704     
0010001300080U 020000000000000000000000000000000000000000000000000000000000000000000000000000000000000000000000000000000000000000000000000703201700000000            000000000000000                              000                           
0010001300081T 020180230000002544776 29647040799157864   7               09032017000000000006000001033316                         0900000000000010000000000000000000000000000000000000000   0000000000000000000000000A9        170192964704     
0010001300082U 020000000000000000000000000000000000000000000000000000000000000000000000000000000000000000000000000000000000000000000000000703201700000000            000000000000000                              000                           
0010001300083T 020180230000002544776 29647040810432597   7               09032017000000000008000001012467                         0900000000000010000000000000000000000000000000000000000   0000000000000000000000000A9        170192964704     
0010001300084U 020000000000000000000000000000000000000000000000000000000000000000000000000000000000000000000000000000000000000000000000000703201700000000            000000000000000                              000                           
0010001300085T 020180230000002544776 29647040816531427   7               09032017000000000006000001025429                         0900000000000010000000000000000000000000000000000000000   0000000000000000000000000A9        170192964704     
0010001300086U 020000000000000000000000000000000000000000000000000000000000000000000000000000000000000000000000000000000000000000000000000703201700000000            000000000000000                              000                           
0010001300087T 020180230000002544776 29647040841550452   7               09032017000000000006000001016179                         0900000000000010000000000000000000000000000000000000000   0000000000000000000000000A9        170192964704     
0010001300088U 020000000000000000000000000000000000000000000000000000000000000000000000000000000000000000000000000000000000000000000000000703201700000000            000000000000000                              000                           
0010001300089T 020180230000002544776 29647040843230507   7               09032017000000000006000001032859                         0900000000000010500000000000000000000000000000000000000   0000000000000000000000000A9A4      170192964704     
0010001300090U 020000000000000000000000000000000000000000000000000000000000000000000000000000000000000000000000000000000000000000000000000703201700000000            000000000000000                              000                           
0010001300091T 020180230000002544776 29647040854348828   7               09032017000000000006000001016179                         0900000000000010000000000000000000000000000000000000000   0000000000000000000000000A9        170192964704     
0010001300092U 020000000000000000000000000000000000000000000000000000000000000000000000000000000000000000000000000000000000000000000000000703201700000000            000000000000000                              000                           
0010001300093T 020180230000002544776 29647040856539525   7               09032017000000000008000001020354                         0900000000000010000000000000000000000000000000000000000   0000000000000000000000000A9        170192964704     
0010001300094U 020000000000000000000000000000000000000000000000000000000000000000000000000000000000000000000000000000000000000000000000000703201700000000            000000000000000                              000                           
0010001300095T 020180230000002544776 29647040857222223   7               09032017000000000006000001000132                         0900000000000010000000000000000000000000000000000000000   0000000000000000000000000A9        170192964704     
0010001300096U 020000000000000000000000000000000000000000000000000000000000000000000000000000000000000000000000000000000000000000000000000703201700000000            000000000000000                              000                           
0010001300097T 020180230000002544776 29647040907718077   7               09032017000000000006000001028029                         0900000000000010000000000000000000000000000000000000000   0000000000000000000000000A9        170192964704     
0010001300098U 020000000000000000000000000000000000000000000000000000000000000000000000000000000000000000000000000000000000000000000000000703201700000000            000000000000000                              000                           
0010001300099T 020180230000002544776 29647040907740313   7               09032017000000000006000001028029                         0900000000000010000000000000000000000000000000000000000   0000000000000000000000000A9        170192964704     
0010001300100U 020000000000000000000000000000000000000000000000000000000000000000000000000000000000000000000000000000000000000000000000000703201700000000            000000000000000                              000                           
0010001300101T 020180230000002544776 29647040919344278   7               09032017000000000006000001013617                         0900000000000010000000000000000000000000000000000000000   0000000000000000000000000A9        170192964704     
0010001300102U 020000000000000000000000000000000000000000000000000000000000000000000000000000000000000000000000000000000000000000000000000703201700000000            000000000000000                              000                           
0010001300103T 020180230000002544776 29647040926222910   7               09032017000000000008000001033316                         0900000000000010000000000000000000000000000000000000000   0000000000000000000000000A9        170192964704     
0010001300104U 020000000000000000000000000000000000000000000000000000000000000000000000000000000000000000000000000000000000000000000000000703201700000000            000000000000000                              000                           
0010001300105T 020180230000002544776 29647040935304993   7               0903201700000000000600000101981X                         0900000000000010000000000000000000000000000000000000000   0000000000000000000000000A9        170192964704     
0010001300106U 020000000000000000000000000000000000000000000000000000000000000000000000000000000000000000000000000000000000000000000000000703201700000000            000000000000000                              000                           
0010001300107T 020180230000002544776 29647040937206109   7               09032017000000000006000001018376                         0900000000000010000000000000000000000000000000000000000   0000000000000000000000000A9        170192964704     
0010001300108U 020000000000000000000000000000000000000000000000000000000000000000000000000000000000000000000000000000000000000000000000000703201700000000            000000000000000                              000                           
0010001300109T 020180230000002544776 29647040937259381   7               09032017000000000006000001018376                         0900000000000010000000000000000000000000000000000000000   0000000000000000000000000A9        170192964704     
0010001300110U 020000000000000000000000000000000000000000000000000000000000000000000000000000000000000000000000000000000000000000000000000703201700000000            000000000000000                              000                           
0010001300111T 020180230000002544776 29647040948909212   7               09032017000000000008000001016179                         0900000000000010000000000000000000000000000000000000000   0000000000000000000000000A9        170192964704     
0010001300112U 020000000000000000000000000000000000000000000000000000000000000000000000000000000000000000000000000000000000000000000000000703201700000000            000000000000000                              000                           
0010001300113T 020180230000002544776 29647040960025836   7               09032017000000000006000001007110                         0900000000000010000000000000000000000000000000000000000   0000000000000000000000000A9        170192964704     
0010001300114U 020000000000000000000000000000000000000000000000000000000000000000000000000000000000000000000000000000000000000000000000000703201700000000            000000000000000                              000                           
0010001300115T 020180230000002544776 29647040966636074   7               09032017000000000006000001016179                         0900000000000010000000000000000000000000000000000000000   0000000000000000000000000A9        170192964704     
0010001300116U 020000000000000000000000000000000000000000000000000000000000000000000000000000000000000000000000000000000000000000000000000703201700000000            000000000000000                              000                           
0010001300117T 020180230000002544776 29647040968016217   7               09032017000000000006000001016179                         0900000000000010500000000000000000000000000000000000000   0000000000000000000000000A9A4      170192964704     
0010001300118U 020000000000000000000000000000000000000000000000000000000000000000000000000000000000000000000000000000000000000000000000000703201700000000            000000000000000                              000                           
0010001300119T 020180230000002544776 29647040968048062   7               09032017000000000006000001016179                         0900000000000010500000000000000000000000000000000000000   0000000000000000000000000A9A4      170192964704     
0010001300120U 020000000000000000000000000000000000000000000000000000000000000000000000000000000000000000000000000000000000000000000000000703201700000000            000000000000000                              000                           
0010001300121T 020180230000002544776 29647040976916607   7               09032017000000000008000001028029                         0900000000000010000000000000000000000000000000000000000   0000000000000000000000000A9        170192964704     
0010001300122U 020000000000000000000000000000000000000000000000000000000000000000000000000000000000000000000000000000000000000000000000000703201700000000            000000000000000                              000                           
0010001300123T 020180230000002544776 29647040976926877   7               09032017000000000008000001028029                         0900000000000010000000000000000000000000000000000000000   0000000000000000000000000A9        170192964704     
0010001300124U 020000000000000000000000000000000000000000000000000000000000000000000000000000000000000000000000000000000000000000000000000703201700000000            000000000000000                              000                           
0010001300125T 020180230000002544776 29647040976947879   7               09032017000000000008000001028029                         0900000000000010000000000000000000000000000000000000000   0000000000000000000000000A9        170192964704     
0010001300126U 020000000000000000000000000000000000000000000000000000000000000000000000000000000000000000000000000000000000000000000000000703201700000000            000000000000000                              000                           
0010001300127T 020180230000002544776 29647040982050522   7               09032017000000000006000001028029                         0900000000000010000000000000000000000000000000000000000   0000000000000000000000000A9        170192964704     
0010001300128U 020000000000000000000000000000000000000000000000000000000000000000000000000000000000000000000000000000000000000000000000000703201700000000            000000000000000                              000                           
0010001300129T 020180230000002544776 29647040989421401   7               09032017000000000006000001004332                         0900000000000010000000000000000000000000000000000000000   0000000000000000000000000A9        170192964704     
0010001300130U 020000000000000000000000000000000000000000000000000000000000000000000000000000000000000000000000000000000000000000000000000703201700000000            000000000000000                              000                           
0010001300131T 020180230000002544776 29647040990551567   7               09032017000000000006000001028029                         0900000000000010000000000000000000000000000000000000000   0000000000000000000000000A9        170192964704     
0010001300132U 020000000000000000000000000000000000000000000000000000000000000000000000000000000000000000000000000000000000000000000000000703201700000000            000000000000000                              000                           
0010001300133T 020180230000002544776 29647040992246849   7               09032017000000000006000001006254                         0900000000000010000000000000000000000000000000000000000   0000000000000000000000000A9        170192964704     
0010001300134U 020000000000000000000000000000000000000000000000000000000000000000000000000000000000000000000000000000000000000000000000000703201700000000            000000000000000                              000                           
0010001300135T 020180230000002544776 29647040995152160   7               09032017000000000006000001028029                         0900000000000010500000000000000000000000000000000000000   0000000000000000000000000A9A4      170192964704     
0010001300136U 020000000000000000000000000000000000000000000000000000000000000000000000000000000000000000000000000000000000000000000000000703201700000000            000000000000000                              000                           
0010001300137T 020180230000002544776 29647041001237124   7               09032017000000000006000001016179                         0900000000000010000000000000000000000000000000000000000   0000000000000000000000000A9        170192964704     
0010001300138U 020000000000000000000000000000000000000000000000000000000000000000000000000000000000000000000000000000000000000000000000000703201700000000            000000000000000                              000                           
0010001300139T 020180230000002544776 29647041007822926   7               09032017000000000006000001033316                         0900000000000010000000000000000000000000000000000000000   0000000000000000000000000A9        170192964704     
0010001300140U 020000000000000000000000000000000000000000000000000000000000000000000000000000000000000000000000000000000000000000000000000703201700000000            000000000000000                              000                           
0010001300141T 020180230000002544776 29647041008311012   7               09032017000000000006000001009636                         0900000000000010000000000000000000000000000000000000000   0000000000000000000000000A9        170192964704     
0010001300142U 020000000000000000000000000000000000000000000000000000000000000000000000000000000000000000000000000000000000000000000000000703201700000000            000000000000000                              000                           
0010001300143T 020180230000002544776 29647041008332514   7               08032017000000000006000001009636                         0900000000000010000000000000000000000000000000000000000   0000000000000000000000000A9        170192964704     
0010001300144U 020000000000000000000000000000000000000000000000000000000000000000000000000000000000000000000000000000000000000000000000000603201700000000            000000000000000                              000                           
0010001300145T 020180230000002544776 29647041008345181   7               08032017000000000006000001009636                         0900000000000010000000000000000000000000000000000000000   0000000000000000000000000A9        170192964704     
0010001300146U 020000000000000000000000000000000000000000000000000000000000000000000000000000000000000000000000000000000000000000000000000603201700000000            000000000000000                              000                           
0010001300147T 020180230000002544776 29647041012037811   7               09032017000000000008000001016179                         0900000000000010000000000000000000000000000000000000000   0000000000000000000000000A9        170192964704     
0010001300148U 020000000000000000000000000000000000000000000000000000000000000000000000000000000000000000000000000000000000000000000000000703201700000000            000000000000000                              000                           
0010001300149T 020180230000002544776 29647041016411477   7               09032017000000000008000001028029                         0900000000000010000000000000000000000000000000000000000   0000000000000000000000000A9        170192964704     
0010001300150U 020000000000000000000000000000000000000000000000000000000000000000000000000000000000000000000000000000000000000000000000000703201700000000            000000000000000                              000                           
0010001300151T 020180230000002544776 29647041023545012   7               09032017000000000008000001001368                         0900000000000010000000000000000000000000000000000000000   0000000000000000000000000A9        170192964704     
0010001300152U 020000000000000000000000000000000000000000000000000000000000000000000000000000000000000000000000000000000000000000000000000703201700000000            000000000000000                              000                           
0010001300153T 020180230000002544776 29647041023554848   7               09032017000000000008000001001368                         0900000000000010000000000000000000000000000000000000000   0000000000000000000000000A9        170192964704     
0010001300154U 020000000000000000000000000000000000000000000000000000000000000000000000000000000000000000000000000000000000000000000000000703201700000000            000000000000000                              000                           
0010001300155T 020180230000002544776 29647041033231396   7               09032017000000000006000001012467                         0900000000000010000000000000000000000000000000000000000   0000000000000000000000000A9        170192964704     
0010001300156U 020000000000000000000000000000000000000000000000000000000000000000000000000000000000000000000000000000000000000000000000000703201700000000            000000000000000                              000                           
0010001300157T 020180230000002544776 29647041033632305   7               09032017000000000006000001018376                         0900000000000010000000000000000000000000000000000000000   0000000000000000000000000A9        170192964704     
0010001300158U 020000000000000000000000000000000000000000000000000000000000000000000000000000000000000000000000000000000000000000000000000703201700000000            000000000000000                              000                           
0010001300159T 020180230000002544776 29647041035134820   7               09032017000000000008000001016020                         0900000000000010000000000000000000000000000000000000000   0000000000000000000000000A9        170192964704     
0010001300160U 020000000000000000000000000000000000000000000000000000000000000000000000000000000000000000000000000000000000000000000000000703201700000000            000000000000000                              000                           
0010001300161T 020180230000002544776 29647041042704069   7               09032017000000000006000001010588                         0900000000000010000000000000000000000000000000000000000   0000000000000000000000000A9        170192964704     
0010001300162U 020000000000000000000000000000000000000000000000000000000000000000000000000000000000000000000000000000000000000000000000000703201700000000            000000000000000                              000                           
0010001300163T 020180230000002544776 29647041045000606   7               09032017000000000006000001035041                         0900000000000010000000000000000000000000000000000000000   0000000000000000000000000A9        170192964704     
0010001300164U 020000000000000000000000000000000000000000000000000000000000000000000000000000000000000000000000000000000000000000000000000703201700000000            000000000000000                              000                           
0010001300165T 020180230000002544776 29647041053535914   7               09032017000000000006000001028029                         0900000000000010000000000000000000000000000000000000000   0000000000000000000000000A9        170192964704     
0010001300166U 020000000000000000000000000000000000000000000000000000000000000000000000000000000000000000000000000000000000000000000000000703201700000000            000000000000000                              000                           
0010001300167T 020180230000002544776 29647041054035121   7               09032017000000000006000001028029                         0900000000000010000000000000000000000000000000000000000   0000000000000000000000000A9        170192964704     
0010001300168U 020000000000000000000000000000000000000000000000000000000000000000000000000000000000000000000000000000000000000000000000000703201700000000            000000000000000                              000                           
0010001300169T 020180230000002544776 29647041054405392   7               09032017000000000006000001012467                         0900000000000010000000000000000000000000000000000000000   0000000000000000000000000A9        170192964704     
0010001300170U 020000000000000000000000000000000000000000000000000000000000000000000000000000000000000000000000000000000000000000000000000703201700000000            000000000000000                              000                           
0010001300171T 020180230000002544776 29647041055017318   7               09032017000000000008000001000132                         0900000000000010000000000000000000000000000000000000000   0000000000000000000000000A9        170192964704     
0010001300172U 020000000000000000000000000000000000000000000000000000000000000000000000000000000000000000000000000000000000000000000000000703201700000000            000000000000000                              000                           
0010001300173T 020180230000002544776 29647041062736582   7               09032017000000000008000001000132                         0900000000000010000000000000000000000000000000000000000   0000000000000000000000000A9        170192964704     
0010001300174U 020000000000000000000000000000000000000000000000000000000000000000000000000000000000000000000000000000000000000000000000000703201700000000            000000000000000                              000                           
0010001300175T 020180230000002544776 29647041068958750   7               0903201700000000000600000101981X                         0900000000000010000000000000000000000000000000000000000   0000000000000000000000000A9        170192964704     
0010001300176U 020000000000000000000000000000000000000000000000000000000000000000000000000000000000000000000000000000000000000000000000000703201700000000            000000000000000                              000                           
0010001300177T 020180230000002544776 29647041080107567   7               08032017000000000006000001016179                         0900000000000010000000000000000000000000000000000000000   0000000000000000000000000A9        170192964704     
0010001300178U 020000000000000000000000000000000000000000000000000000000000000000000000000000000000000000000000000000000000000000000000000603201700000000            000000000000000                              000                           
0010001300179T 020180230000002544776 29647041083029415   7               09032017000000000006000001005428                         0900000000000010000000000000000000000000000000000000000   0000000000000000000000000A9        170192964704     
0010001300180U 020000000000000000000000000000000000000000000000000000000000000000000000000000000000000000000000000000000000000000000000000703201700000000            000000000000000                              000                           
0010001300181T 020180230000002544776 29647041087309600   7               09032017000000000006000001001643                         0900000000000010000000000000000000000000000000000000000   0000000000000000000000000A9        170192964704     
0010001300182U 020000000000000000000000000000000000000000000000000000000000000000000000000000000000000000000000000000000000000000000000000703201700000000            000000000000000                              000                           
0010001300183T 020180230000002544776 29647041089906626   7               09032017000000000006000001016179                         0900000000000010000000000000000000000000000000000000000   0000000000000000000000000A9        170192964704     
0010001300184U 020000000000000000000000000000000000000000000000000000000000000000000000000000000000000000000000000000000000000000000000000703201700000000            000000000000000                              000                           
0010001300185T 020180230000002544776 29647041093042248   7               09032017000000000006000001016179                         0900000000000010000000000000000000000000000000000000000   0000000000000000000000000A9        170192964704     
0010001300186U 020000000000000000000000000000000000000000000000000000000000000000000000000000000000000000000000000000000000000000000000000703201700000000            000000000000000                              000                           
0010001300187T 020180230000002544776 29647041095441917   7               09032017000000000006000001016179                         0900000000000010000000000000000000000000000000000000000   0000000000000000000000000A9        170192964704     
0010001300188U 020000000000000000000000000000000000000000000000000000000000000000000000000000000000000000000000000000000000000000000000000703201700000000            000000000000000                              000                           
0010001300189T 020180230000002544776 29647041095702238   7               09032017000000000008000001001155                         0900000000000010000000000000000000000000000000000000000   0000000000000000000000000A9        170192964704     
0010001300190U 020000000000000000000000000000000000000000000000000000000000000000000000000000000000000000000000000000000000000000000000000703201700000000            000000000000000                              000                           
0010001300191T 020180230000002544776 29647041096047863   7               09032017000000000006000001008214                         0900000000000010000000000000000000000000000000000000000   0000000000000000000000000A9        170192964704     
0010001300192U 020000000000000000000000000000000000000000000000000000000000000000000000000000000000000000000000000000000000000000000000000703201700000000            000000000000000                              000                           
0010001300193T 020180230000002544776 29647041096721940   7               09032017000000000006000001005428                         0900000000000010000000000000000000000000000000000000000   0000000000000000000000000A9        170192964704     
0010001300194U 020000000000000000000000000000000000000000000000000000000000000000000000000000000000000000000000000000000000000000000000000703201700000000            000000000000000                              000                           
0010001300195T 020180230000002544776 29647041097129765   7               08032017000000000006000001018376                         0900000000000010000000000000000000000000000000000000000   0000000000000000000000000A9        170192964704     
0010001300196U 020000000000000000000000000000000000000000000000000000000000000000000000000000000000000000000000000000000000000000000000000603201700000000            000000000000000                              000                           
0010001300197T 020180230000002544776 29647041097142732   7               08032017000000000006000001018376                         0900000000000010000000000000000000000000000000000000000   0000000000000000000000000A9        170192964704     
0010001300198U 020000000000000000000000000000000000000000000000000000000000000000000000000000000000000000000000000000000000000000000000000603201700000000            000000000000000                              000                           
0010001300199T 020180230000002544776 29647041097238187   7               08032017000000000006000001033316                         0900000000000010000000000000000000000000000000000000000   0000000000000000000000000A9        170192964704     
0010001300200U 020000000000000000000000000000000000000000000000000000000000000000000000000000000000000000000000000000000000000000000000000603201700000000            000000000000000                              000                           
0010001300201T 020180230000002544776 29647041097240518   7               08032017000000000006000001033316                         0900000000000010000000000000000000000000000000000000000   0000000000000000000000000A9        170192964704     
0010001300202U 020000000000000000000000000000000000000000000000000000000000000000000000000000000000000000000000000000000000000000000000000603201700000000            000000000000000                              000                           
0010001300203T 020180230000002544776 29647041097338557   7               08032017000000000008000001025429                         0900000000000010000000000000000000000000000000000000000   0000000000000000000000000A9        170192964704     
0010001300204U 020000000000000000000000000000000000000000000000000000000000000000000000000000000000000000000000000000000000000000000000000603201700000000            000000000000000                              000                           
0010001300205T 020180230000002544776 29647041097428811   7               08032017000000000006000001008214                         0900000000000010000000000000000000000000000000000000000   0000000000000000000000000A9        170192964704     
0010001300206U 020000000000000000000000000000000000000000000000000000000000000000000000000000000000000000000000000000000000000000000000000603201700000000            000000000000000                              000                           
0010001300207T 020180230000002544776 29647041097830190   7               08032017000000000006000001028029                         0900000000000010000000000000000000000000000000000000000   0000000000000000000000000A9        170192964704     
0010001300208U 020000000000000000000000000000000000000000000000000000000000000000000000000000000000000000000000000000000000000000000000000603201700000000            000000000000000                              000                           
0010001300209T 020180230000002544776 29647041097923793   7               09032017000000000008000001028029                         0900000000000010000000000000000000000000000000000000000   0000000000000000000000000A9        170192964704     
0010001300210U 020000000000000000000000000000000000000000000000000000000000000000000000000000000000000000000000000000000000000000000000000703201700000000            000000000000000                              000                           
0010001300211T 020180230000002544776 29647041098051900   7               09032017000000000006000001028029                         0900000000000010000000000000000000000000000000000000000   0000000000000000000000000A9        170192964704     
0010001300212U 020000000000000000000000000000000000000000000000000000000000000000000000000000000000000000000000000000000000000000000000000703201700000000            000000000000000                              000                           
0010001300213T 020180230000002544776 29647041098233032   7               09032017000000000006000001034118                         0900000000000010000000000000000000000000000000000000000   0000000000000000000000000A9        170192964704     
0010001300214U 020000000000000000000000000000000000000000000000000000000000000000000000000000000000000000000000000000000000000000000000000703201700000000            000000000000000                              000                           
0010001300215T 020180230000002544776 29647041098426250   7               09032017000000000006000001016179                         0900000000000010000000000000000000000000000000000000000   0000000000000000000000000A9        170192964704     
0010001300216U 020000000000000000000000000000000000000000000000000000000000000000000000000000000000000000000000000000000000000000000000000703201700000000            000000000000000                              000                           
0010001300217T 020180230000002544776 29647041098540425   7               0903201700000000000600000101849X                         0900000000000010500000000000000000000000000000000000000   0000000000000000000000000A9A4      170192964704     
0010001300218U 020000000000000000000000000000000000000000000000000000000000000000000000000000000000000000000000000000000000000000000000000703201700000000            000000000000000                              000                           
0010001300219T 020180230000002544776 29647041098652866   7               09032017000000000006000001023655                         0900000000000010000000000000000000000000000000000000000   0000000000000000000000000A9        170192964704     
0010001300220U 020000000000000000000000000000000000000000000000000000000000000000000000000000000000000000000000000000000000000000000000000703201700000000            000000000000000                              000                           
0010001300221T 020180230000002544776 29647041098718335   7               09032017000000000006000001028029                         0900000000000010500000000000000000000000000000000000000   0000000000000000000000000A9A4      170192964704     
0010001300222U 020000000000000000000000000000000000000000000000000000000000000000000000000000000000000000000000000000000000000000000000000703201700000000            000000000000000                              000                           
0010001300223T 020180230000002544776 29647041098827210   7               09032017000000000006000001025291                         0900000000000010500000000000000000000000000000000000000   0000000000000000000000000A9A4      170192964704     
0010001300224U 020000000000000000000000000000000000000000000000000000000000000000000000000000000000000000000000000000000000000000000000000703201700000000            000000000000000                              000                           
0010001300225T 020180230000002544776 29647041098903686   7               09032017000000000008000001045764                         0900000000000010000000000000000000000000000000000000000   0000000000000000000000000A9        170192964704     
0010001300226U 020000000000000000000000000000000000000000000000000000000000000000000000000000000000000000000000000000000000000000000000000703201700000000            000000000000000                              000                           
0010001300227T 020180230000002544776 29647041099057599   7               0903201700000000000600000101981X                         0900000000000010000000000000000000000000000000000000000   0000000000000000000000000A9        170192964704     
0010001300228U 020000000000000000000000000000000000000000000000000000000000000000000000000000000000000000000000000000000000000000000000000703201700000000            000000000000000                              000                           
0010001300229T 020180230000002544776 29647041099106846   7               09032017000000000006000001028029                         0900000000000010000000000000000000000000000000000000000   0000000000000000000000000A9        170192964704     
0010001300230U 020000000000000000000000000000000000000000000000000000000000000000000000000000000000000000000000000000000000000000000000000703201700000000            000000000000000                              000                           
0010001300231T 020180230000002544776 29647041099245061   7               09032017000000000006000001016179                         0900000000000010000000000000000000000000000000000000000   0000000000000000000000000A9        170192964704     
0010001300232U 020000000000000000000000000000000000000000000000000000000000000000000000000000000000000000000000000000000000000000000000000703201700000000            000000000000000                              000                           
0010001300233T 020180230000002544776 29647041099344503   7               0903201700000000000600000102256X                         0900000000000010500000000000000000000000000000000000000   0000000000000000000000000A9A4      170192964704     
0010001300234U 020000000000000000000000000000000000000000000000000000000000000000000000000000000000000000000000000000000000000000000000000703201700000000            000000000000000                              000                           
0010001300235T 020180230000002544776 29647041099347046   7               0903201700000000000600000102256X                         0900000000000010500000000000000000000000000000000000000   0000000000000000000000000A9A4      170192964704     
0010001300236U 020000000000000000000000000000000000000000000000000000000000000000000000000000000000000000000000000000000000000000000000000703201700000000            000000000000000                              000                           
0010001300237T 020180230000002544776 29647041099400680   7               09032017000000000006000001016179                         0900000000000010000000000000000000000000000000000000000   0000000000000000000000000A9        170192964704     
0010001300238U 020000000000000000000000000000000000000000000000000000000000000000000000000000000000000000000000000000000000000000000000000703201700000000            000000000000000                              000                           
0010001300239T 020180230000002544776 29647041099506936   7               09032017000000000006000001016179                         0900000000000010000000000000000000000000000000000000000   0000000000000000000000000A9        170192964704     
0010001300240U 020000000000000000000000000000000000000000000000000000000000000000000000000000000000000000000000000000000000000000000000000703201700000000            000000000000000                              000                           
0010001300241T 020180230000002544776 29647041099619031   7               09032017000000000006000001016179                         0900000000000010000000000000000000000000000000000000000   0000000000000000000000000A9        170192964704     
0010001300242U 020000000000000000000000000000000000000000000000000000000000000000000000000000000000000000000000000000000000000000000000000703201700000000            000000000000000                              000                           
0010001300243T 020180230000002544776 29647041099710084   7               09032017000000000006000001028029                         0900000000000010000000000000000000000000000000000000000   0000000000000000000000000A9        170192964704     
0010001300244U 020000000000000000000000000000000000000000000000000000000000000000000000000000000000000000000000000000000000000000000000000703201700000000            000000000000000                              000                           
0010001300245T 020180230000002544776 29647041099930047   7               09032017000000000008000001035041                         0900000000000010500000000000000000000000000000000000000   0000000000000000000000000A9A4      170192964704     
0010001300246U 020000000000000000000000000000000000000000000000000000000000000000000000000000000000000000000000000000000000000000000000000703201700000000            000000000000000                              000                           
0010001300247T 020180230000002544776 29647041100100557   7               09032017000000000006000001008311                         0900000000000010000000000000000000000000000000000000000   0000000000000000000000000A9        170192964704     
0010001300248U 020000000000000000000000000000000000000000000000000000000000000000000000000000000000000000000000000000000000000000000000000703201700000000            000000000000000                              000                           
0010001300249T 020180230000002544776 29647041100114529   7               09032017000000000006000001008311                         0900000000000010000000000000000000000000000000000000000   0000000000000000000000000A9        170192964704     
0010001300250U 020000000000000000000000000000000000000000000000000000000000000000000000000000000000000000000000000000000000000000000000000703201700000000            000000000000000                              000                           
0010001300251T 020180230000002544776 29647041100216463   7               09032017000000000006000001035041                         0900000000000010500000000000000000000000000000000000000   0000000000000000000000000A9A4      170192964704     
0010001300252U 020000000000000000000000000000000000000000000000000000000000000000000000000000000000000000000000000000000000000000000000000703201700000000            000000000000000                              000                           
0010001300253T 020180230000002544776 29647041100219106   7               09032017000000000006000001035041                         0900000000000010500000000000000000000000000000000000000   0000000000000000000000000A9A4      170192964704     
0010001300254U 020000000000000000000000000000000000000000000000000000000000000000000000000000000000000000000000000000000000000000000000000703201700000000            000000000000000                              000                           
0010001300255T 020180230000002544776 29647041100430148   7               09032017000000000006000001016179                         0900000000000010000000000000000000000000000000000000000   0000000000000000000000000A9        170192964704     
0010001300256U 020000000000000000000000000000000000000000000000000000000000000000000000000000000000000000000000000000000000000000000000000703201700000000            000000000000000                              000                           
0010001300257T 020180230000002544776 29647041100524667   7               09032017000000000008000001033316                         0900000000000010000000000000000000000000000000000000000   0000000000000000000000000A9        170192964704     
0010001300258U 020000000000000000000000000000000000000000000000000000000000000000000000000000000000000000000000000000000000000000000000000703201700000000            000000000000000                              000                           
0010001300259T 020180230000002544776 29647041100705016   7               09032017000000000006000001038857                         0900000000000010500000000000000000000000000000000000000   0000000000000000000000000A9A4      170192964704     
0010001300260U 020000000000000000000000000000000000000000000000000000000000000000000000000000000000000000000000000000000000000000000000000703201700000000            000000000000000                              000                           
0010001300261T 020180230000002544776 29647041100814919   7               09032017000000000006000001008214                         0900000000000010000000000000000000000000000000000000000   0000000000000000000000000A9        170192964704     
0010001300262U 020000000000000000000000000000000000000000000000000000000000000000000000000000000000000000000000000000000000000000000000000703201700000000            000000000000000                              000                           
0010001300263T 020180230000002544776 29647041100839538   7               09032017000000000006000001008214                         0900000000000010000000000000000000000000000000000000000   0000000000000000000000000A9        170192964704     
0010001300264U 020000000000000000000000000000000000000000000000000000000000000000000000000000000000000000000000000000000000000000000000000703201700000000            000000000000000                              000                           
0010001300265T 020180230000002544776 29647041100845201   7               09032017000000000006000001008214                         0900000000000010000000000000000000000000000000000000000   0000000000000000000000000A9        170192964704     
0010001300266U 020000000000000000000000000000000000000000000000000000000000000000000000000000000000000000000000000000000000000000000000000703201700000000            000000000000000                              000                           
0010001300267T 020180230000002544776 29647041100924266   7               0903201700000000000600000102256X                         0900000000000010000000000000000000000000000000000000000   0000000000000000000000000A9        170192964704     
0010001300268U 020000000000000000000000000000000000000000000000000000000000000000000000000000000000000000000000000000000000000000000000000703201700000000            000000000000000                              000                           
0010001300269T 020180230000002544776 29647041100931375   7               0903201700000000000600000102256X                         0900000000000010000000000000000000000000000000000000000   0000000000000000000000000A9        170192964704     
0010001300270U 020000000000000000000000000000000000000000000000000000000000000000000000000000000000000000000000000000000000000000000000000703201700000000            000000000000000                              000                           
0010001300271T 020180230000002544776 29647041100944539   7               0903201700000000000600000102256X                         0900000000000010000000000000000000000000000000000000000   0000000000000000000000000A9        170192964704     
0010001300272U 020000000000000000000000000000000000000000000000000000000000000000000000000000000000000000000000000000000000000000000000000703201700000000            000000000000000                              000                           
0010001300273T 020180230000002544776 29647041101043351   7               0903201700000000000600000101981X                         0900000000000010000000000000000000000000000000000000000   0000000000000000000000000A9        170192964704     
0010001300274U 020000000000000000000000000000000000000000000000000000000000000000000000000000000000000000000000000000000000000000000000000703201700000000            000000000000000                              000                           
0010001300275T 020180230000002544776 29647041101208181   7               09032017000000000006000001012912                         0900000000000010000000000000000000000000000000000000000   0000000000000000000000000A9        170192964704     
0010001300276U 020000000000000000000000000000000000000000000000000000000000000000000000000000000000000000000000000000000000000000000000000703201700000000            000000000000000                              000                           
0010001300277T 020180230000002544776 29647041101300448   7               09032017000000000006000001000132                         0900000000000010000000000000000000000000000000000000000   0000000000000000000000000A9        170192964704     
0010001300278U 020000000000000000000000000000000000000000000000000000000000000000000000000000000000000000000000000000000000000000000000000703201700000000            000000000000000                              000                           
0010001300279T 020180230000002544776 29647041101416078   7               09032017000000000008000001007218                         0900000000000010000000000000000000000000000000000000000   0000000000000000000000000A9        170192964704     
0010001300280U 020000000000000000000000000000000000000000000000000000000000000000000000000000000000000000000000000000000000000000000000000703201700000000            000000000000000                              000                           
0010001300281T 020180230000002544776 29647041101531197   7               09032017000000000006000001028029                         0900000000000010000000000000000000000000000000000000000   0000000000000000000000000A9        170192964704     
0010001300282U 020000000000000000000000000000000000000000000000000000000000000000000000000000000000000000000000000000000000000000000000000703201700000000            000000000000000                              000                           
0010001300283T 020180230000002544776 29647041101531915   7               09032017000000000006000001028029                         0900000000000010000000000000000000000000000000000000000   0000000000000000000000000A9        170192964704     
0010001300284U 020000000000000000000000000000000000000000000000000000000000000000000000000000000000000000000000000000000000000000000000000703201700000000            000000000000000                              000                           
0010001300285T 020180230000002544776 29647041101624081   7               09032017000000000006000001028029                         0900000000000010000000000000000000000000000000000000000   0000000000000000000000000A9        170192964704     
0010001300286U 020000000000000000000000000000000000000000000000000000000000000000000000000000000000000000000000000000000000000000000000000703201700000000            000000000000000                              000                           
0010001300287T 020180230000002544776 29647041101628505   7               09032017000000000006000001028029                         0900000000000010000000000000000000000000000000000000000   0000000000000000000000000A9        170192964704     
0010001300288U 020000000000000000000000000000000000000000000000000000000000000000000000000000000000000000000000000000000000000000000000000703201700000000            000000000000000                              000                           
0010001300289T 020180230000002544776 29647041101633671   7               09032017000000000006000001028029                         0900000000000010000000000000000000000000000000000000000   0000000000000000000000000A9        170192964704     
0010001300290U 020000000000000000000000000000000000000000000000000000000000000000000000000000000000000000000000000000000000000000000000000703201700000000            000000000000000                              000                           
0010001300291T 020180230000002544776 29647041101750436   7               09032017000000000006000001016179                         0900000000000010000000000000000000000000000000000000000   0000000000000000000000000A9        170192964704     
0010001300292U 020000000000000000000000000000000000000000000000000000000000000000000000000000000000000000000000000000000000000000000000000703201700000000            000000000000000                              000                           
0010001300293T 020180230000002544776 29647041101803580   7               09032017000000000006000001028029                         0900000000000010000000000000000000000000000000000000000   0000000000000000000000000A9        170192964704     
0010001300294U 020000000000000000000000000000000000000000000000000000000000000000000000000000000000000000000000000000000000000000000000000703201700000000            000000000000000                              000                           
0010001300295T 020180230000002544776 29647041101947711   7               09032017000000000006000001012467                         0900000000000010000000000000000000000000000000000000000   0000000000000000000000000A9        170192964704     
0010001300296U 020000000000000000000000000000000000000000000000000000000000000000000000000000000000000000000000000000000000000000000000000703201700000000            000000000000000                              000                           
0010001300297T 020180230000002544776 29647041102013234   7               09032017000000000006000001010529                         0900000000000010500000000000000000000000000000000000000   0000000000000000000000000A9A4      170192964704     
0010001300298U 020000000000000000000000000000000000000000000000000000000000000000000000000000000000000000000000000000000000000000000000000703201700000000            000000000000000                              000                           
0010001300299T 020180230000002544776 29647041102140628   7               09032017000000000006000001010588                         0900000000000010500000000000000000000000000000000000000   0000000000000000000000000A9A4      170192964704     
0010001300300U 020000000000000000000000000000000000000000000000000000000000000000000000000000000000000000000000000000000000000000000000000703201700000000            000000000000000                              000                           
0010001300301T 020180230000002544776 29647041102224606   7               09032017000000000006000001010588                         0900000000000010000000000000000000000000000000000000000   0000000000000000000000000A9        170192964704     
0010001300302U 020000000000000000000000000000000000000000000000000000000000000000000000000000000000000000000000000000000000000000000000000703201700000000            000000000000000                              000                           
0010001300303T 020180230000002544776 29647041102339255   7               09032017000000000006000001028029                         0900000000000010000000000000000000000000000000000000000   0000000000000000000000000A9        170192964704     
0010001300304U 020000000000000000000000000000000000000000000000000000000000000000000000000000000000000000000000000000000000000000000000000703201700000000            000000000000000                              000                           
0010001300305T 020180230000002544776 29647041102448999   7               09032017000000000006000001000132                         0900000000000010000000000000000000000000000000000000000   0000000000000000000000000A9        170192964704     
0010001300306U 020000000000000000000000000000000000000000000000000000000000000000000000000000000000000000000000000000000000000000000000000703201700000000            000000000000000                              000                           
0010001300307T 020180230000002544776 29647041102504132   7               09032017000000000006000001016179                         0900000000000010000000000000000000000000000000000000000   0000000000000000000000000A9        170192964704     
0010001300308U 020000000000000000000000000000000000000000000000000000000000000000000000000000000000000000000000000000000000000000000000000703201700000000            000000000000000                              000                           
0010001300309T 020180230000002544776 29647041102539823   7               09032017000000000006000001016179                         0900000000000010000000000000000000000000000000000000000   0000000000000000000000000A9        170192964704     
0010001300310U 020000000000000000000000000000000000000000000000000000000000000000000000000000000000000000000000000000000000000000000000000703201700000000            000000000000000                              000                           
0010001300311T 020180230000002544776 29647041102612887   7               09032017000000000006000001035033                         0900000000000010500000000000000000000000000000000000000   0000000000000000000000000A9A4      170192964704     
0010001300312U 020000000000000000000000000000000000000000000000000000000000000000000000000000000000000000000000000000000000000000000000000703201700000000            000000000000000                              000                           
0010001300313T 020180230000002544776 29647041102703707   7               09032017000000000006000001028029                         0900000000000010000000000000000000000000000000000000000   0000000000000000000000000A9        170192964704     
0010001300314U 020000000000000000000000000000000000000000000000000000000000000000000000000000000000000000000000000000000000000000000000000703201700000000            000000000000000                              000                           
0010001300315T 020180230000002544776 29647041102808311   7               09032017000000000006000001007595                         0900000000000010000000000000000000000000000000000000000   0000000000000000000000000A9        170192964704     
0010001300316U 020000000000000000000000000000000000000000000000000000000000000000000000000000000000000000000000000000000000000000000000000703201700000000            000000000000000                              000                           
0010001300317T 020180230000002544776 29647041102958399   7               09032017000000000006000001033316                         0900000000000010000000000000000000000000000000000000000   0000000000000000000000000A9        170192964704     
0010001300318U 020000000000000000000000000000000000000000000000000000000000000000000000000000000000000000000000000000000000000000000000000703201700000000            000000000000000                              000                           
0010001300319T 020180230000002544776 29647041103032796   7               09032017000000000008000001005428                         0900000000000010000000000000000000000000000000000000000   0000000000000000000000000A9        170192964704     
0010001300320U 020000000000000000000000000000000000000000000000000000000000000000000000000000000000000000000000000000000000000000000000000703201700000000            000000000000000                              000                           
0010001300321T 020180230000002544776 29647041103108923   7               09032017000000000006000001016179                         0900000000000010000000000000000000000000000000000000000   0000000000000000000000000A9        170192964704     
0010001300322U 020000000000000000000000000000000000000000000000000000000000000000000000000000000000000000000000000000000000000000000000000703201700000000            000000000000000                              000                           
0010001300323T 020180230000002544776 29647041103209293   7               09032017000000000006000001013617                         0900000000000010000000000000000000000000000000000000000   0000000000000000000000000A9        170192964704     
0010001300324U 020000000000000000000000000000000000000000000000000000000000000000000000000000000000000000000000000000000000000000000000000703201700000000            000000000000000                              000                           
0010001300325T 020180230000002544776 29647041103225965   7               09032017000000000006000001013617                         0900000000000010000000000000000000000000000000000000000   0000000000000000000000000A9        170192964704     
0010001300326U 020000000000000000000000000000000000000000000000000000000000000000000000000000000000000000000000000000000000000000000000000703201700000000            000000000000000                              000                           
0010001300327T 020180230000002544776 29647041103355579   7               09032017000000000006000001002461                         0900000000000010000000000000000000000000000000000000000   0000000000000000000000000A9        170192964704     
0010001300328U 020000000000000000000000000000000000000000000000000000000000000000000000000000000000000000000000000000000000000000000000000703201700000000            000000000000000                              000                           
0010001300329T 020180230000002544776 29647041103411546   7               09032017000000000006000001028452                         0900000000000010000000000000000000000000000000000000000   0000000000000000000000000A9        170192964704     
0010001300330U 020000000000000000000000000000000000000000000000000000000000000000000000000000000000000000000000000000000000000000000000000703201700000000            000000000000000                              000                           
0010001300331T 020180230000002544776 29647041103514123   7               09032017000000000006000001023655                         0900000000000010000000000000000000000000000000000000000   0000000000000000000000000A9        170192964704     
0010001300332U 020000000000000000000000000000000000000000000000000000000000000000000000000000000000000000000000000000000000000000000000000703201700000000            000000000000000                              000                           
0010001300333T 020180230000002544776 29647041103521660   7               09032017000000000006000001023655                         0900000000000010000000000000000000000000000000000000000   0000000000000000000000000A9        170192964704     
0010001300334U 020000000000000000000000000000000000000000000000000000000000000000000000000000000000000000000000000000000000000000000000000703201700000000            000000000000000                              000                           
0010001300335T 020180230000002544776 29647041103533411   7               09032017000000000006000001023655                         0900000000000010000000000000000000000000000000000000000   0000000000000000000000000A9        170192964704     
0010001300336U 020000000000000000000000000000000000000000000000000000000000000000000000000000000000000000000000000000000000000000000000000703201700000000            000000000000000                              000                           
0010001300337T 020180230000002544776 29647041103554316   7               09032017000000000006000001023655                         0900000000000010000000000000000000000000000000000000000   0000000000000000000000000A9        170192964704     
0010001300338U 020000000000000000000000000000000000000000000000000000000000000000000000000000000000000000000000000000000000000000000000000703201700000000            000000000000000                              000                           
0010001300339T 020180230000002544776 29647041103559875   7               09032017000000000006000001023655                         0900000000000010000000000000000000000000000000000000000   0000000000000000000000000A9        170192964704     
0010001300340U 020000000000000000000000000000000000000000000000000000000000000000000000000000000000000000000000000000000000000000000000000703201700000000            000000000000000                              000                           
0010001300341T 020180230000002544776 29647041103636992   7               09032017000000000006000001000132                         0900000000000010000000000000000000000000000000000000000   0000000000000000000000000A9        170192964704     
0010001300342U 020000000000000000000000000000000000000000000000000000000000000000000000000000000000000000000000000000000000000000000000000703201700000000            000000000000000                              000                           
0010001300343T 020180230000002544776 29647041103758772   7               09032017000000000006000001009636                         0900000000000010000000000000000000000000000000000000000   0000000000000000000000000A9        170192964704     
0010001300344U 020000000000000000000000000000000000000000000000000000000000000000000000000000000000000000000000000000000000000000000000000703201700000000            000000000000000                              000                           
0010001300345T 020180230000002544776 29647041104038022   7               09032017000000000006000001016179                         0900000000000010000000000000000000000000000000000000000   0000000000000000000000000A9        170192964704     
0010001300346U 020000000000000000000000000000000000000000000000000000000000000000000000000000000000000000000000000000000000000000000000000703201700000000            000000000000000                              000                           
0010001300347T 020180230000002544776 29647041104133145   7               0903201700000000000800000101981X                         0900000000000010000000000000000000000000000000000000000   0000000000000000000000000A9        170192964704     
0010001300348U 020000000000000000000000000000000000000000000000000000000000000000000000000000000000000000000000000000000000000000000000000703201700000000            000000000000000                              000                           
0010001300349T 020180230000002544776 29647041104228383   7               09032017000000000006000001016179                         0900000000000010000000000000000000000000000000000000000   0000000000000000000000000A9        170192964704     
0010001300350U 020000000000000000000000000000000000000000000000000000000000000000000000000000000000000000000000000000000000000000000000000703201700000000            000000000000000                              000                           
0010001300351T 020180230000002544776 29647041104332096   7               09032017000000000008000001000132                         0900000000000010000000000000000000000000000000000000000   0000000000000000000000000A9        170192964704     
0010001300352U 020000000000000000000000000000000000000000000000000000000000000000000000000000000000000000000000000000000000000000000000000703201700000000            000000000000000                              000                           
0010001300353T 020180230000002544776 29647041104421388   7               09032017000000000006000001016861                         0900000000000010000000000000000000000000000000000000000   0000000000000000000000000A9        170192964704     
0010001300354U 020000000000000000000000000000000000000000000000000000000000000000000000000000000000000000000000000000000000000000000000000703201700000000            000000000000000                              000                           
0010001300355T 020180230000002544776 29647041104533332   7               09032017000000000006000001012467                         0900000000000010000000000000000000000000000000000000000   0000000000000000000000000A9        170192964704     
0010001300356U 020000000000000000000000000000000000000000000000000000000000000000000000000000000000000000000000000000000000000000000000000703201700000000            000000000000000                              000                           
0010001300357T 020180230000002544776 29647041104553244   7               09032017000000000006000001012467                         0900000000000010000000000000000000000000000000000000000   0000000000000000000000000A9        170192964704     
0010001300358U 020000000000000000000000000000000000000000000000000000000000000000000000000000000000000000000000000000000000000000000000000703201700000000            000000000000000                              000                           
0010001300359T 020180230000002544776 29647041104828269   7               09032017000000000006000001028029                         0900000000000010000000000000000000000000000000000000000   0000000000000000000000000A9        170192964704     
0010001300360U 020000000000000000000000000000000000000000000000000000000000000000000000000000000000000000000000000000000000000000000000000703201700000000            000000000000000                              000                           
0010001300361T 020180230000002544776 29647041105035343   7               09032017000000000006000001005428                         0900000000000010000000000000000000000000000000000000000   0000000000000000000000000A9        170192964704     
0010001300362U 020000000000000000000000000000000000000000000000000000000000000000000000000000000000000000000000000000000000000000000000000703201700000000            000000000000000                              000                           
0010001300363T 020180230000002544776 29647041105142285   7               09032017000000000006000001028029                         0900000000000010000000000000000000000000000000000000000   0000000000000000000000000A9        170192964704     
0010001300364U 020000000000000000000000000000000000000000000000000000000000000000000000000000000000000000000000000000000000000000000000000703201700000000            000000000000000                              000                           
0010001300365T 020180230000002544776 29647041105311188   7               09032017000000000006000001008214                         0900000000000010000000000000000000000000000000000000000   0000000000000000000000000A9        170192964704     
0010001300366U 020000000000000000000000000000000000000000000000000000000000000000000000000000000000000000000000000000000000000000000000000703201700000000            000000000000000                              000                           
0010001300367T 020180230000002544776 29647041105426982   7               09032017000000000006000001018376                         0900000000000010000000000000000000000000000000000000000   0000000000000000000000000A9        170192964704     
0010001300368U 020000000000000000000000000000000000000000000000000000000000000000000000000000000000000000000000000000000000000000000000000703201700000000            000000000000000                              000                           
0010001300369T 020180230000002544776 29647041105536707   7               09032017000000000006000001016179                         0900000000000010500000000000000000000000000000000000000   0000000000000000000000000A9A4      170192964704     
0010001300370U 020000000000000000000000000000000000000000000000000000000000000000000000000000000000000000000000000000000000000000000000000703201700000000            000000000000000                              000                           
0010001300371T 020180230000002544776 29647041105632076   7               09032017000000000006000001012831                         0900000000000010500000000000000000000000000000000000000   0000000000000000000000000A9A4      170192964704     
0010001300372U 020000000000000000000000000000000000000000000000000000000000000000000000000000000000000000000000000000000000000000000000000703201700000000            000000000000000                              000                           
0010001300373T 020180230000002544776 29647041105723774   7               09032017000000000006000001012467                         0900000000000010000000000000000000000000000000000000000   0000000000000000000000000A9        170192964704     
0010001300374U 020000000000000000000000000000000000000000000000000000000000000000000000000000000000000000000000000000000000000000000000000703201700000000            000000000000000                              000                           
0010001300375T 020180230000002544776 29647041105901799   7               09032017000000000006000001013617                         0900000000000010000000000000000000000000000000000000000   0000000000000000000000000A9        170192964704     
0010001300376U 020000000000000000000000000000000000000000000000000000000000000000000000000000000000000000000000000000000000000000000000000703201700000000            000000000000000                              000                           
0010001300377T 020180230000002544776 29647041105910010   7               09032017000000000006000001013617                         0900000000000010000000000000000000000000000000000000000   0000000000000000000000000A9        170192964704     
0010001300378U 020000000000000000000000000000000000000000000000000000000000000000000000000000000000000000000000000000000000000000000000000703201700000000            000000000000000                              000                           
0010001300379T 020180230000002544776 29647041106022433   7               09032017000000000006000001035033                         0900000000000010000000000000000000000000000000000000000   0000000000000000000000000A9        170192964704     
0010001300380U 020000000000000000000000000000000000000000000000000000000000000000000000000000000000000000000000000000000000000000000000000703201700000000            000000000000000                              000                           
0010001300381T 020180230000002544776 29647041106121719   7               09032017000000000006000001012467                         0900000000000010000000000000000000000000000000000000000   0000000000000000000000000A9        170192964704     
0010001300382U 020000000000000000000000000000000000000000000000000000000000000000000000000000000000000000000000000000000000000000000000000703201700000000            000000000000000                              000                           
0010001300383T 020180230000002544776 29647041106124729   7               09032017000000000006000001012467                         0900000000000010000000000000000000000000000000000000000   0000000000000000000000000A9        170192964704     
0010001300384U 020000000000000000000000000000000000000000000000000000000000000000000000000000000000000000000000000000000000000000000000000703201700000000            000000000000000                              000                           
0010001300385T 020180230000002544776 29647041106149293   7               09032017000000000006000001012467                         0900000000000010000000000000000000000000000000000000000   0000000000000000000000000A9        170192964704     
0010001300386U 020000000000000000000000000000000000000000000000000000000000000000000000000000000000000000000000000000000000000000000000000703201700000000            000000000000000                              000                           
0010001300387T 020180230000002544776 29647041106345283   7               09032017000000000006000001028029                         0900000000000010000000000000000000000000000000000000000   0000000000000000000000000A9        170192964704     
0010001300388U 020000000000000000000000000000000000000000000000000000000000000000000000000000000000000000000000000000000000000000000000000703201700000000            000000000000000                              000                           
0010001300389T 020180230000002544776 29647041106641776   7               09032017000000000008000001016179                         0900000000000010000000000000000000000000000000000000000   0000000000000000000000000A9        170192964704     
0010001300390U 020000000000000000000000000000000000000000000000000000000000000000000000000000000000000000000000000000000000000000000000000703201700000000            000000000000000                              000                           
0010001300391T 020180230000002544776 29647041106719205   7               09032017000000000006000001028029                         0900000000000010000000000000000000000000000000000000000   0000000000000000000000000A9        170192964704     
0010001300392U 020000000000000000000000000000000000000000000000000000000000000000000000000000000000000000000000000000000000000000000000000703201700000000            000000000000000                              000                           
0010001300393T 020180230000002544776 29647041106847708   7               09032017000000000006000001028029                         0900000000000010000000000000000000000000000000000000000   0000000000000000000000000A9        170192964704     
0010001300394U 020000000000000000000000000000000000000000000000000000000000000000000000000000000000000000000000000000000000000000000000000703201700000000            000000000000000                              000                           
0010001300395T 020180230000002544776 29647041106921300   7               09032017000000000006000001016179                         0900000000000010500000000000000000000000000000000000000   0000000000000000000000000A9A4      170192964704     
0010001300396U 020000000000000000000000000000000000000000000000000000000000000000000000000000000000000000000000000000000000000000000000000703201700000000            000000000000000                              000                           
0010001300397T 020180230000002544776 29647041107051016   7               09032017000000000006000001012467                         0900000000000010000000000000000000000000000000000000000   0000000000000000000000000A9        170192964704     
0010001300398U 020000000000000000000000000000000000000000000000000000000000000000000000000000000000000000000000000000000000000000000000000703201700000000            000000000000000                              000                           
0010001300399T 020180230000002544776 29647041107126333   7               09032017000000000006000001028029                         0900000000000010000000000000000000000000000000000000000   0000000000000000000000000A9        170192964704     
0010001300400U 020000000000000000000000000000000000000000000000000000000000000000000000000000000000000000000000000000000000000000000000000703201700000000            000000000000000                              000                           
0010001300401T 020180230000002544776 29647041107435345   7               09032017000000000006000001020354                         0900000000000010500000000000000000000000000000000000000   0000000000000000000000000A9A4      170192964704     
0010001300402U 020000000000000000000000000000000000000000000000000000000000000000000000000000000000000000000000000000000000000000000000000703201700000000            000000000000000                              000                           
0010001300403T 020180230000002544776 29647041107527829   7               09032017000000000006000001028029                         0900000000000010000000000000000000000000000000000000000   0000000000000000000000000A9        170192964704     
0010001300404U 020000000000000000000000000000000000000000000000000000000000000000000000000000000000000000000000000000000000000000000000000703201700000000            000000000000000                              000                           
0010001300405T 020180230000002544776 29647041107533315   7               09032017000000000006000001028029                         0900000000000010000000000000000000000000000000000000000   0000000000000000000000000A9        170192964704     
0010001300406U 020000000000000000000000000000000000000000000000000000000000000000000000000000000000000000000000000000000000000000000000000703201700000000            000000000000000                              000                           
0010001300407T 020180230000002544776 29647041107608864   7               09032017000000000008000001005428                         0900000000000010000000000000000000000000000000000000000   0000000000000000000000000A9        170192964704     
0010001300408U 020000000000000000000000000000000000000000000000000000000000000000000000000000000000000000000000000000000000000000000000000703201700000000            000000000000000                              000                           
0010001300409T 020180230000002544776 29647041107643651   7               09032017000000000008000001005428                         0900000000000010000000000000000000000000000000000000000   0000000000000000000000000A9        170192964704     
0010001300410U 020000000000000000000000000000000000000000000000000000000000000000000000000000000000000000000000000000000000000000000000000703201700000000            000000000000000                              000                           
0010001300411T 020180230000002544776 29647041107750089   7               09032017000000000006000001000132                         0900000000000010000000000000000000000000000000000000000   0000000000000000000000000A9        170192964704     
0010001300412U 020000000000000000000000000000000000000000000000000000000000000000000000000000000000000000000000000000000000000000000000000703201700000000            000000000000000                              000                           
