00100000         2247745860001000029647040014       0180230000002544776 INSTITUTO DE SELECAO E TECNOLOBANCO DO BRASIL                         20803201701302100005203000000515122941PROCESSAMEN                                                 
00100011T0100020 20247745860001000029647040014       0180230000002544776 INSTITUTO DE SELECAO E TECNOLO                                                                                000000000803201700000000  000000000                      
0010001300001T 020180230000002544776 29647040571620106   7               10032017000000000006000001016179                         0900000000000010000000000000000000000000000000000000000   0000000000000000000000000A9        170192964704     
0010001300002U 020000000000000000000000000000000000000000000000000000000000000000000000000000000000000000000000000000000000000000000000000803201700000000            000000000000000                              000                           
0010001300003T 020180230000002544776 29647040613311343   7               10032017000000000006000001000132                         0900000000000010000000000000000000000000000000000000000   0000000000000000000000000A9        170192964704     
0010001300004U 020000000000000000000000000000000000000000000000000000000000000000000000000000000000000000000000000000000000000000000000000803201700000000            000000000000000                              000                           
0010001300005T 020180230000002544776 29647040620905467   7               10032017000000000006000001016179                         0900000000000010000000000000000000000000000000000000000   0000000000000000000000000A9        170192964704     
0010001300006U 020000000000000000000000000000000000000000000000000000000000000000000000000000000000000000000000000000000000000000000000000803201700000000            000000000000000                              000                           
0010001300007T 020180230000002544776 29647040620939146   7               10032017000000000006000001016179                         0900000000000010000000000000000000000000000000000000000   0000000000000000000000000A9        170192964704     
0010001300008U 020000000000000000000000000000000000000000000000000000000000000000000000000000000000000000000000000000000000000000000000000803201700000000            000000000000000                              000                           
0010001300009T 020180230000002544776 29647040642917331   7               10032017000000000006000001000132                         0900000000000010000000000000000000000000000000000000000   0000000000000000000000000A9        170192964704     
0010001300010U 020000000000000000000000000000000000000000000000000000000000000000000000000000000000000000000000000000000000000000000000000803201700000000            000000000000000                              000                           
0010001300011T 020180230000002544776 29647040644907661   7               10032017000000000006000001000132                         0900000000000010000000000000000000000000000000000000000   0000000000000000000000000A9        170192964704     
0010001300012U 020000000000000000000000000000000000000000000000000000000000000000000000000000000000000000000000000000000000000000000000000803201700000000            000000000000000                              000                           
0010001300013T 020180230000002544776 29647040645752576   7               10032017000000000006000001000132                         0900000000000010000000000000000000000000000000000000000   0000000000000000000000000A9        170192964704     
0010001300014U 020000000000000000000000000000000000000000000000000000000000000000000000000000000000000000000000000000000000000000000000000803201700000000            000000000000000                              000                           
0010001300015T 020180230000002544776 29647040673326686   7               10032017000000000006000001000132                         0900000000000010000000000000000000000000000000000000000   0000000000000000000000000A9        170192964704     
0010001300016U 020000000000000000000000000000000000000000000000000000000000000000000000000000000000000000000000000000000000000000000000000803201700000000            000000000000000                              000                           
0010001300017T 020180230000002544776 29647040679706256   7               10032017000000000006000001000132                         0900000000000010000000000000000000000000000000000000000   0000000000000000000000000A9        170192964704     
0010001300018U 020000000000000000000000000000000000000000000000000000000000000000000000000000000000000000000000000000000000000000000000000803201700000000            000000000000000                              000                           
0010001300019T 020180230000002544776 29647040694227193   7               10032017000000000006000001016179                         0900000000000010000000000000000000000000000000000000000   0000000000000000000000000A9        170192964704     
0010001300020U 020000000000000000000000000000000000000000000000000000000000000000000000000000000000000000000000000000000000000000000000000803201700000000            000000000000000                              000                           
0010001300021T 020180230000002544776 29647040705117569   7               10032017000000000006000001012467                         0900000000000010000000000000000000000000000000000000000   0000000000000000000000000A9        170192964704     
0010001300022U 020000000000000000000000000000000000000000000000000000000000000000000000000000000000000000000000000000000000000000000000000803201700000000            000000000000000                              000                           
0010001300023T 020180230000002544776 29647040722439571   7               10032017000000000006000001012645                         0900000000000010000000000000000000000000000000000000000   0000000000000000000000000A9        170192964704     
0010001300024U 020000000000000000000000000000000000000000000000000000000000000000000000000000000000000000000000000000000000000000000000000803201700000000            000000000000000                              000                           
0010001300025T 020180230000002544776 29647040725241751   7               10032017000000000006000001009849                         0900000000000010000000000000000000000000000000000000000   0000000000000000000000000A9        170192964704     
0010001300026U 020000000000000000000000000000000000000000000000000000000000000000000000000000000000000000000000000000000000000000000000000803201700000000            000000000000000                              000                           
0010001300027T 020180230000002544776 29647040725257899   7               10032017000000000006000001009849                         0900000000000010000000000000000000000000000000000000000   0000000000000000000000000A9        170192964704     
0010001300028U 020000000000000000000000000000000000000000000000000000000000000000000000000000000000000000000000000000000000000000000000000803201700000000            000000000000000                              000                           
0010001300029T 020180230000002544776 29647040729407933   7               10032017000000000006000001028029                         0900000000000010000000000000000000000000000000000000000   0000000000000000000000000A9        170192964704     
0010001300030U 020000000000000000000000000000000000000000000000000000000000000000000000000000000000000000000000000000000000000000000000000803201700000000            000000000000000                              000                           
0010001300031T 020180230000002544776 29647040743058481   7               10032017000000000006000001028029                         0900000000000010000000000000000000000000000000000000000   0000000000000000000000000A9        170192964704     
0010001300032U 020000000000000000000000000000000000000000000000000000000000000000000000000000000000000000000000000000000000000000000000000803201700000000            000000000000000                              000                           
0010001300033T 020180230000002544776 29647040761214155   7               10032017000000000006000001006211                         0900000000000010000000000000000000000000000000000000000   0000000000000000000000000A9        170192964704     
0010001300034U 020000000000000000000000000000000000000000000000000000000000000000000000000000000000000000000000000000000000000000000000000803201700000000            000000000000000                              000                           
0010001300035T 020180230000002544776 29647040769557497   7               10032017000000000006000001016179                         0900000000000010000000000000000000000000000000000000000   0000000000000000000000000A9        170192964704     
0010001300036U 020000000000000000000000000000000000000000000000000000000000000000000000000000000000000000000000000000000000000000000000000803201700000000            000000000000000                              000                           
0010001300037T 020180230000002544776 29647040773530868   7               10032017000000000008000001000132                         0900000000000010000000000000000000000000000000000000000   0000000000000000000000000A9        170192964704     
0010001300038U 020000000000000000000000000000000000000000000000000000000000000000000000000000000000000000000000000000000000000000000000000803201700000000            000000000000000                              000                           
0010001300039T 020180230000002544776 29647040781357088   7               10032017000000000006000001016179                         0900000000000010000000000000000000000000000000000000000   0000000000000000000000000A9        170192964704     
0010001300040U 020000000000000000000000000000000000000000000000000000000000000000000000000000000000000000000000000000000000000000000000000803201700000000            000000000000000                              000                           
0010001300041T 020180230000002544776 29647040798916751   7               10032017000000000006000001000132                         0900000000000010000000000000000000000000000000000000000   0000000000000000000000000A9        170192964704     
0010001300042U 020000000000000000000000000000000000000000000000000000000000000000000000000000000000000000000000000000000000000000000000000803201700000000            000000000000000                              000                           
0010001300043T 020180230000002544776 29647040798957825   7               10032017000000000006000001000132                         0900000000000010000000000000000000000000000000000000000   0000000000000000000000000A9        170192964704     
0010001300044U 020000000000000000000000000000000000000000000000000000000000000000000000000000000000000000000000000000000000000000000000000803201700000000            000000000000000                              000                           
0010001300045T 020180230000002544776 29647040799108921   7               10032017000000000006000001033316                         0900000000000010000000000000000000000000000000000000000   0000000000000000000000000A9        170192964704     
0010001300046U 020000000000000000000000000000000000000000000000000000000000000000000000000000000000000000000000000000000000000000000000000803201700000000            000000000000000                              000                           
0010001300047T 020180230000002544776 29647040821338513   7               10032017000000000006000001018376                         0900000000000010500000000000000000000000000000000000000   0000000000000000000000000A9A4      170192964704     
0010001300048U 020000000000000000000000000000000000000000000000000000000000000000000000000000000000000000000000000000000000000000000000000803201700000000            000000000000000                              000                           
0010001300049T 020180230000002544776 29647040823524526   7               09032017000000000006000001000132                         0900000000000010000000000000000000000000000000000000000   0000000000000000000000000A9        170192964704     
0010001300050U 020000000000000000000000000000000000000000000000000000000000000000000000000000000000000000000000000000000000000000000000000703201700000000            000000000000000                              000                           
0010001300051T 020180230000002544776 29647040824940229   7               10032017000000000008000001018376                         0900000000000010000000000000000000000000000000000000000   0000000000000000000000000A9        170192964704     
0010001300052U 020000000000000000000000000000000000000000000000000000000000000000000000000000000000000000000000000000000000000000000000000803201700000000            000000000000000                              000                           
0010001300053T 020180230000002544776 29647040831145688   7               10032017000000000006000001028029                         0900000000000010000000000000000000000000000000000000000   0000000000000000000000000A9        170192964704     
0010001300054U 020000000000000000000000000000000000000000000000000000000000000000000000000000000000000000000000000000000000000000000000000803201700000000            000000000000000                              000                           
0010001300055T 020180230000002544776 29647040858621653   7               10032017000000000008000001001368                         0900000000000010000000000000000000000000000000000000000   0000000000000000000000000A9        170192964704     
0010001300056U 020000000000000000000000000000000000000000000000000000000000000000000000000000000000000000000000000000000000000000000000000803201700000000            000000000000000                              000                           
0010001300057T 020180230000002544776 29647040858640690   7               10032017000000000008000001001368                         0900000000000010000000000000000000000000000000000000000   0000000000000000000000000A9        170192964704     
0010001300058U 020000000000000000000000000000000000000000000000000000000000000000000000000000000000000000000000000000000000000000000000000803201700000000            000000000000000                              000                           
0010001300059T 020180230000002544776 29647040858652956   7               10032017000000000008000001001368                         0900000000000010000000000000000000000000000000000000000   0000000000000000000000000A9        170192964704     
0010001300060U 020000000000000000000000000000000000000000000000000000000000000000000000000000000000000000000000000000000000000000000000000803201700000000            000000000000000                              000                           
0010001300061T 020180230000002544776 29647040866025158   7               10032017000000000006000001016667                         0900000000000010000000000000000000000000000000000000000   0000000000000000000000000A9        170192964704     
0010001300062U 020000000000000000000000000000000000000000000000000000000000000000000000000000000000000000000000000000000000000000000000000803201700000000            000000000000000                              000                           
0010001300063T 020180230000002544776 29647040874056580   7               10032017000000000006000001000132                         0900000000000010000000000000000000000000000000000000000   0000000000000000000000000A9        170192964704     
0010001300064U 020000000000000000000000000000000000000000000000000000000000000000000000000000000000000000000000000000000000000000000000000803201700000000            000000000000000                              000                           
0010001300065T 020180230000002544776 29647040904601839   7               10032017000000000006000001005428                         0900000000000010000000000000000000000000000000000000000   0000000000000000000000000A9        170192964704     
0010001300066U 020000000000000000000000000000000000000000000000000000000000000000000000000000000000000000000000000000000000000000000000000803201700000000            000000000000000                              000                           
0010001300067T 020180230000002544776 29647040904615041   7               10032017000000000006000001005428                         0900000000000010000000000000000000000000000000000000000   0000000000000000000000000A9        170192964704     
0010001300068U 020000000000000000000000000000000000000000000000000000000000000000000000000000000000000000000000000000000000000000000000000803201700000000            000000000000000                              000                           
0010001300069T 020180230000002544776 29647040904649678   7               10032017000000000006000001005428                         0900000000000010000000000000000000000000000000000000000   0000000000000000000000000A9        170192964704     
0010001300070U 020000000000000000000000000000000000000000000000000000000000000000000000000000000000000000000000000000000000000000000000000803201700000000            000000000000000                              000                           
0010001300071T 020180230000002544776 29647040914709758   7               10032017000000000006000001012467                         0900000000000010000000000000000000000000000000000000000   0000000000000000000000000A9        170192964704     
0010001300072U 020000000000000000000000000000000000000000000000000000000000000000000000000000000000000000000000000000000000000000000000000803201700000000            000000000000000                              000                           
0010001300073T 020180230000002544776 29647040928231343   7               10032017000000000006000001018376                         0900000000000010000000000000000000000000000000000000000   0000000000000000000000000A9        170192964704     
0010001300074U 020000000000000000000000000000000000000000000000000000000000000000000000000000000000000000000000000000000000000000000000000803201700000000            000000000000000                              000                           
0010001300075T 020180230000002544776 29647040937100114   7               10032017000000000006000001000132                         0900000000000010000000000000000000000000000000000000000   0000000000000000000000000A9        170192964704     
0010001300076U 020000000000000000000000000000000000000000000000000000000000000000000000000000000000000000000000000000000000000000000000000803201700000000            000000000000000                              000                           
0010001300077T 020180230000002544776 29647040938558757   7               10032017000000000006000001018376                         0900000000000010000000000000000000000000000000000000000   0000000000000000000000000A9        170192964704     
0010001300078U 020000000000000000000000000000000000000000000000000000000000000000000000000000000000000000000000000000000000000000000000000803201700000000            000000000000000                              000                           
0010001300079T 020180230000002544776 29647040939828075   7               10032017000000000006000001028029                         0900000000000010000000000000000000000000000000000000000   0000000000000000000000000A9        170192964704     
0010001300080U 020000000000000000000000000000000000000000000000000000000000000000000000000000000000000000000000000000000000000000000000000803201700000000            000000000000000                              000                           
0010001300081T 020180230000002544776 29647040949618406   7               10032017000000000006000001002208                         0900000000000010000000000000000000000000000000000000000   0000000000000000000000000A9        170192964704     
0010001300082U 020000000000000000000000000000000000000000000000000000000000000000000000000000000000000000000000000000000000000000000000000803201700000000            000000000000000                              000                           
0010001300083T 020180230000002544776 29647040950929699   7               09032017000000000006000001000132                         0900000000000010000000000000000000000000000000000000000   0000000000000000000000000A9        170192964704     
0010001300084U 020000000000000000000000000000000000000000000000000000000000000000000000000000000000000000000000000000000000000000000000000703201700000000            000000000000000                              000                           
0010001300085T 020180230000002544776 29647040962118116   7               10032017000000000006000001012467                         0900000000000010000000000000000000000000000000000000000   0000000000000000000000000A9        170192964704     
0010001300086U 020000000000000000000000000000000000000000000000000000000000000000000000000000000000000000000000000000000000000000000000000803201700000000            000000000000000                              000                           
0010001300087T 020180230000002544776 29647040969254920   7               10032017000000000006000001016810                         0900000000000010000000000000000000000000000000000000000   0000000000000000000000000A9        170192964704     
0010001300088U 020000000000000000000000000000000000000000000000000000000000000000000000000000000000000000000000000000000000000000000000000803201700000000            000000000000000                              000                           
0010001300089T 020180230000002544776 29647040971415018   7               10032017000000000006000001016179                         0900000000000010000000000000000000000000000000000000000   0000000000000000000000000A9        170192964704     
0010001300090U 020000000000000000000000000000000000000000000000000000000000000000000000000000000000000000000000000000000000000000000000000803201700000000            000000000000000                              000                           
0010001300091T 020180230000002544776 29647040971934451   7               10032017000000000006000001033316                         0900000000000010000000000000000000000000000000000000000   0000000000000000000000000A9        170192964704     
0010001300092U 020000000000000000000000000000000000000000000000000000000000000000000000000000000000000000000000000000000000000000000000000803201700000000            000000000000000                              000                           
0010001300093T 020180230000002544776 29647040978847287   7               1003201700000000000800000101981X                         0900000000000010000000000000000000000000000000000000000   0000000000000000000000000A9        170192964704     
0010001300094U 020000000000000000000000000000000000000000000000000000000000000000000000000000000000000000000000000000000000000000000000000803201700000000            000000000000000                              000                           
0010001300095T 020180230000002544776 29647040978906800   7               10032017000000000006000001005428                         0900000000000010000000000000000000000000000000000000000   0000000000000000000000000A9        170192964704     
0010001300096U 020000000000000000000000000000000000000000000000000000000000000000000000000000000000000000000000000000000000000000000000000803201700000000            000000000000000                              000                           
0010001300097T 020180230000002544776 29647040978957409   7               10032017000000000006000001005428                         0900000000000010000000000000000000000000000000000000000   0000000000000000000000000A9        170192964704     
0010001300098U 020000000000000000000000000000000000000000000000000000000000000000000000000000000000000000000000000000000000000000000000000803201700000000            000000000000000                              000                           
0010001300099T 020180230000002544776 29647040982253434   7               10032017000000000006000001028029                         0900000000000010000000000000000000000000000000000000000   0000000000000000000000000A9        170192964704     
0010001300100U 020000000000000000000000000000000000000000000000000000000000000000000000000000000000000000000000000000000000000000000000000803201700000000            000000000000000                              000                           
0010001300101T 020180230000002544776 29647040983121767   7               10032017000000000006000001023655                         0900000000000010000000000000000000000000000000000000000   0000000000000000000000000A9        170192964704     
0010001300102U 020000000000000000000000000000000000000000000000000000000000000000000000000000000000000000000000000000000000000000000000000803201700000000            000000000000000                              000                           
0010001300103T 020180230000002544776 29647040984949774   7               10032017000000000006000001012467                         0900000000000010000000000000000000000000000000000000000   0000000000000000000000000A9        170192964704     
0010001300104U 020000000000000000000000000000000000000000000000000000000000000000000000000000000000000000000000000000000000000000000000000803201700000000            000000000000000                              000                           
0010001300105T 020180230000002544776 29647041001247971   7               10032017000000000006000001016179                         0900000000000010000000000000000000000000000000000000000   0000000000000000000000000A9        170192964704     
0010001300106U 020000000000000000000000000000000000000000000000000000000000000000000000000000000000000000000000000000000000000000000000000803201700000000            000000000000000                              000                           
0010001300107T 020180230000002544776 29647041005801846   7               10032017000000000008000001033316                         0900000000000010500000000000000000000000000000000000000   0000000000000000000000000A9A4      170192964704     
0010001300108U 020000000000000000000000000000000000000000000000000000000000000000000000000000000000000000000000000000000000000000000000000803201700000000            000000000000000                              000                           
0010001300109T 020180230000002544776 29647041007006318   7               10032017000000000006000001028029                         0900000000000010500000000000000000000000000000000000000   0000000000000000000000000A9A4      170192964704     
0010001300110U 020000000000000000000000000000000000000000000000000000000000000000000000000000000000000000000000000000000000000000000000000803201700000000            000000000000000                              000                           
0010001300111T 020180230000002544776 29647041007821566   7               10032017000000000006000001033316                         0900000000000010000000000000000000000000000000000000000   0000000000000000000000000A9        170192964704     
0010001300112U 020000000000000000000000000000000000000000000000000000000000000000000000000000000000000000000000000000000000000000000000000803201700000000            000000000000000                              000                           
0010001300113T 020180230000002544776 29647041011704968   7               10032017000000000006000001013617                         0900000000000010000000000000000000000000000000000000000   0000000000000000000000000A9        170192964704     
0010001300114U 020000000000000000000000000000000000000000000000000000000000000000000000000000000000000000000000000000000000000000000000000803201700000000            000000000000000                              000                           
0010001300115T 020180230000002544776 29647041014627204   7               10032017000000000006000001012467                         0900000000000010000000000000000000000000000000000000000   0000000000000000000000000A9        170192964704     
0010001300116U 020000000000000000000000000000000000000000000000000000000000000000000000000000000000000000000000000000000000000000000000000803201700000000            000000000000000                              000                           
0010001300117T 020180230000002544776 29647041028823408   7               10032017000000000006000001005428                         0900000000000010000000000000000000000000000000000000000   0000000000000000000000000A9        170192964704     
0010001300118U 020000000000000000000000000000000000000000000000000000000000000000000000000000000000000000000000000000000000000000000000000803201700000000            000000000000000                              000                           
0010001300119T 020180230000002544776 29647041032459767   7               10032017000000000006000001004464                         0900000000000010000000000000000000000000000000000000000   0000000000000000000000000A9        170192964704     
0010001300120U 020000000000000000000000000000000000000000000000000000000000000000000000000000000000000000000000000000000000000000000000000803201700000000            000000000000000                              000                           
0010001300121T 020180230000002544776 29647041043540934   7               10032017000000000006000001000132                         0900000000000010000000000000000000000000000000000000000   0000000000000000000000000A9        170192964704     
0010001300122U 020000000000000000000000000000000000000000000000000000000000000000000000000000000000000000000000000000000000000000000000000803201700000000            000000000000000                              000                           
0010001300123T 020180230000002544776 29647041044953217   7               10032017000000000006000001000132                         0900000000000010000000000000000000000000000000000000000   0000000000000000000000000A9        170192964704     
0010001300124U 020000000000000000000000000000000000000000000000000000000000000000000000000000000000000000000000000000000000000000000000000803201700000000            000000000000000                              000                           
0010001300125T 020180230000002544776 29647041048209757   7               10032017000000000006000001023655                         0900000000000010500000000000000000000000000000000000000   0000000000000000000000000A9A4      170192964704     
0010001300126U 020000000000000000000000000000000000000000000000000000000000000000000000000000000000000000000000000000000000000000000000000803201700000000            000000000000000                              000                           
0010001300127T 020180230000002544776 29647041073240153   7               10032017000000000006000001020354                         0900000000000010000000000000000000000000000000000000000   0000000000000000000000000A9        170192964704     
0010001300128U 020000000000000000000000000000000000000000000000000000000000000000000000000000000000000000000000000000000000000000000000000803201700000000            000000000000000                              000                           
0010001300129T 020180230000002544776 29647041085402358   7               10032017000000000008000001028029                         0900000000000010000000000000000000000000000000000000000   0000000000000000000000000A9        170192964704     
0010001300130U 020000000000000000000000000000000000000000000000000000000000000000000000000000000000000000000000000000000000000000000000000803201700000000            000000000000000                              000                           
0010001300131T 020180230000002544776 29647041088832880   7               10032017000000000006000001008214                         0900000000000010000000000000000000000000000000000000000   0000000000000000000000000A9        170192964704     
0010001300132U 020000000000000000000000000000000000000000000000000000000000000000000000000000000000000000000000000000000000000000000000000803201700000000            000000000000000                              000                           
0010001300133T 020180230000002544776 29647041091815316   7               10032017000000000006000001033316                         0900000000000010500000000000000000000000000000000000000   0000000000000000000000000A9A4      170192964704     
0010001300134U 020000000000000000000000000000000000000000000000000000000000000000000000000000000000000000000000000000000000000000000000000803201700000000            000000000000000                              000                           
0010001300135T 020180230000002544776 29647041093428510   7               10032017000000000006000001009636                         0900000000000010000000000000000000000000000000000000000   0000000000000000000000000A9        170192964704     
0010001300136U 020000000000000000000000000000000000000000000000000000000000000000000000000000000000000000000000000000000000000000000000000803201700000000            000000000000000                              000                           
0010001300137T 020180230000002544776 29647041093725894   7               10032017000000000008000001016179                         0900000000000010000000000000000000000000000000000000000   0000000000000000000000000A9        170192964704     
0010001300138U 020000000000000000000000000000000000000000000000000000000000000000000000000000000000000000000000000000000000000000000000000803201700000000            000000000000000                              000                           
0010001300139T 020180230000002544776 29647041093811248   7               10032017000000000006000001016179                         0900000000000010000000000000000000000000000000000000000   0000000000000000000000000A9        170192964704     
0010001300140U 020000000000000000000000000000000000000000000000000000000000000000000000000000000000000000000000000000000000000000000000000803201700000000            000000000000000                              000                           
0010001300141T 020180230000002544776 29647041093838898   7               10032017000000000006000001016179                         0900000000000010000000000000000000000000000000000000000   0000000000000000000000000A9        170192964704     
0010001300142U 020000000000000000000000000000000000000000000000000000000000000000000000000000000000000000000000000000000000000000000000000803201700000000            000000000000000                              000                           
0010001300143T 020180230000002544776 29647041093954915   7               10032017000000000008000001033316                         0900000000000010000000000000000000000000000000000000000   0000000000000000000000000A9        170192964704     
0010001300144U 020000000000000000000000000000000000000000000000000000000000000000000000000000000000000000000000000000000000000000000000000803201700000000            000000000000000                              000                           
0010001300145T 020180230000002544776 29647041097300248   7               10032017000000000008000001025429                         0900000000000010000000000000000000000000000000000000000   0000000000000000000000000A9        170192964704     
0010001300146U 020000000000000000000000000000000000000000000000000000000000000000000000000000000000000000000000000000000000000000000000000803201700000000            000000000000000                              000                           
0010001300147T 020180230000002544776 29647041102841663   7               10032017000000000006000001007595                         0900000000000010000000000000000000000000000000000000000   0000000000000000000000000A9        170192964704     
0010001300148U 020000000000000000000000000000000000000000000000000000000000000000000000000000000000000000000000000000000000000000000000000803201700000000            000000000000000                              000                           
0010001300149T 020180230000002544776 29647041119428427   7               09032017000000000006000001028029                         0900000000000010000000000000000000000000000000000000000   0000000000000000000000000A9        170192964704     
0010001300150U 020000000000000000000000000000000000000000000000000000000000000000000000000000000000000000000000000000000000000000000000000703201700000000            000000000000000                              000                           
0010001300151T 020180230000002544776 29647041119627349   7               09032017000000000006000001016179                         0900000000000010000000000000000000000000000000000000000   0000000000000000000000000A9        170192964704     
0010001300152U 020000000000000000000000000000000000000000000000000000000000000000000000000000000000000000000000000000000000000000000000000703201700000000            000000000000000                              000                           
0010001300153T 020180230000002544776 29647041119650687   7               09032017000000000006000001016179                         0900000000000010000000000000000000000000000000000000000   0000000000000000000000000A9        170192964704     
0010001300154U 020000000000000000000000000000000000000000000000000000000000000000000000000000000000000000000000000000000000000000000000000703201700000000            000000000000000                              000                           
0010001300155T 020180230000002544776 29647041119928645   7               10032017000000000006000001012629                         0900000000000010000000000000000000000000000000000000000   0000000000000000000000000A9        170192964704     
0010001300156U 020000000000000000000000000000000000000000000000000000000000000000000000000000000000000000000000000000000000000000000000000803201700000000            000000000000000                              000                           
0010001300157T 020180230000002544776 29647041119947370   7               10032017000000000006000001012629                         0900000000000010000000000000000000000000000000000000000   0000000000000000000000000A9        170192964704     
0010001300158U 020000000000000000000000000000000000000000000000000000000000000000000000000000000000000000000000000000000000000000000000000803201700000000            000000000000000                              000                           
0010001300159T 020180230000002544776 29647041120054721   7               10032017000000000006000001001597                         0900000000000010000000000000000000000000000000000000000   0000000000000000000000000A9        170192964704     
0010001300160U 020000000000000000000000000000000000000000000000000000000000000000000000000000000000000000000000000000000000000000000000000803201700000000            000000000000000                              000                           
0010001300161T 020180230000002544776 29647041120204578   7               10032017000000000006000001000132                         0900000000000010000000000000000000000000000000000000000   0000000000000000000000000A9        170192964704     
0010001300162U 020000000000000000000000000000000000000000000000000000000000000000000000000000000000000000000000000000000000000000000000000803201700000000            000000000000000                              000                           
0010001300163T 020180230000002544776 29647041120402803   7               10032017000000000006000001008214                         0900000000000010000000000000000000000000000000000000000   0000000000000000000000000A9        170192964704     
0010001300164U 020000000000000000000000000000000000000000000000000000000000000000000000000000000000000000000000000000000000000000000000000803201700000000            000000000000000                              000                           
0010001300165T 020180230000002544776 29647041120802763   7               10032017000000000006000001016179                         0900000000000010000000000000000000000000000000000000000   0000000000000000000000000A9        170192964704     
0010001300166U 020000000000000000000000000000000000000000000000000000000000000000000000000000000000000000000000000000000000000000000000000803201700000000            000000000000000                              000                           
0010001300167T 020180230000002544776 29647041120926002   7               10032017000000000006000001023655                         0900000000000010000000000000000000000000000000000000000   0000000000000000000000000A9        170192964704     
0010001300168U 020000000000000000000000000000000000000000000000000000000000000000000000000000000000000000000000000000000000000000000000000803201700000000            000000000000000                              000                           
0010001300169T 020180230000002544776 29647041121009632   7               10032017000000000006000001010421                         0900000000000010500000000000000000000000000000000000000   0000000000000000000000000A9A4      170192964704     
0010001300170U 020000000000000000000000000000000000000000000000000000000000000000000000000000000000000000000000000000000000000000000000000803201700000000            000000000000000                              000                           
0010001300171T 020180230000002544776 29647041121208662   7               10032017000000000006000001009695                         0900000000000010000000000000000000000000000000000000000   0000000000000000000000000A9        170192964704     
0010001300172U 020000000000000000000000000000000000000000000000000000000000000000000000000000000000000000000000000000000000000000000000000803201700000000            000000000000000                              000                           
0010001300173T 020180230000002544776 29647041121212378   7               10032017000000000006000001009695                         0900000000000010000000000000000000000000000000000000000   0000000000000000000000000A9        170192964704     
0010001300174U 020000000000000000000000000000000000000000000000000000000000000000000000000000000000000000000000000000000000000000000000000803201700000000            000000000000000                              000                           
0010001300175T 020180230000002544776 29647041121324107   7               10032017000000000006000001028029                         0900000000000010000000000000000000000000000000000000000   0000000000000000000000000A9        170192964704     
0010001300176U 020000000000000000000000000000000000000000000000000000000000000000000000000000000000000000000000000000000000000000000000000803201700000000            000000000000000                              000                           
0010001300177T 020180230000002544776 29647041121419194   7               10032017000000000006000001000132                         0900000000000010000000000000000000000000000000000000000   0000000000000000000000000A9        170192964704     
0010001300178U 020000000000000000000000000000000000000000000000000000000000000000000000000000000000000000000000000000000000000000000000000803201700000000            000000000000000                              000                           
0010001300179T 020180230000002544776 29647041121547860   7               10032017000000000008000001020354                         0900000000000010500000000000000000000000000000000000000   0000000000000000000000000A9A4      170192964704     
0010001300180U 020000000000000000000000000000000000000000000000000000000000000000000000000000000000000000000000000000000000000000000000000803201700000000            000000000000000                              000                           
0010001300181T 020180230000002544776 29647041121638278   7               10032017000000000008000001028029                         0900000000000010000000000000000000000000000000000000000   0000000000000000000000000A9        170192964704     
0010001300182U 020000000000000000000000000000000000000000000000000000000000000000000000000000000000000000000000000000000000000000000000000803201700000000            000000000000000                              000                           
0010001300183T 020180230000002544776 29647041121733103   7               10032017000000000006000001000132                         0900000000000010000000000000000000000000000000000000000   0000000000000000000000000A9        170192964704     
0010001300184U 020000000000000000000000000000000000000000000000000000000000000000000000000000000000000000000000000000000000000000000000000803201700000000            000000000000000                              000                           
0010001300185T 020180230000002544776 29647041121857350   7               10032017000000000006000001014699                         0900000000000010000000000000000000000000000000000000000   0000000000000000000000000A9        170192964704     
0010001300186U 020000000000000000000000000000000000000000000000000000000000000000000000000000000000000000000000000000000000000000000000000803201700000000            000000000000000                              000                           
0010001300187T 020180230000002544776 29647041121939474   7               10032017000000000008000001000132                         0900000000000010000000000000000000000000000000000000000   0000000000000000000000000A9        170192964704     
0010001300188U 020000000000000000000000000000000000000000000000000000000000000000000000000000000000000000000000000000000000000000000000000803201700000000            000000000000000                              000                           
0010001300189T 020180230000002544776 29647041121950943   7               10032017000000000008000001000132                         0900000000000010000000000000000000000000000000000000000   0000000000000000000000000A9        170192964704     
0010001300190U 020000000000000000000000000000000000000000000000000000000000000000000000000000000000000000000000000000000000000000000000000803201700000000            000000000000000                              000                           
0010001300191T 020180230000002544776 29647041122146314   7               10032017000000000006000001000132                         0900000000000010500000000000000000000000000000000000000   0000000000000000000000000A9A4      170192964704     
0010001300192U 020000000000000000000000000000000000000000000000000000000000000000000000000000000000000000000000000000000000000000000000000803201700000000            000000000000000                              000                           
0010001300193T 020180230000002544776 29647041122219621   7               10032017000000000006000001033316                         0900000000000010000000000000000000000000000000000000000   0000000000000000000000000A9        170192964704     
0010001300194U 020000000000000000000000000000000000000000000000000000000000000000000000000000000000000000000000000000000000000000000000000803201700000000            000000000000000                              000                           
0010001300195T 020180230000002544776 29647041122233409   7               10032017000000000006000001033316                         0900000000000010000000000000000000000000000000000000000   0000000000000000000000000A9        170192964704     
0010001300196U 020000000000000000000000000000000000000000000000000000000000000000000000000000000000000000000000000000000000000000000000000803201700000000            000000000000000                              000                           
0010001300197T 020180230000002544776 29647041122418430   7               10032017000000000006000001028029                         0900000000000010000000000000000000000000000000000000000   0000000000000000000000000A9        170192964704     
0010001300198U 020000000000000000000000000000000000000000000000000000000000000000000000000000000000000000000000000000000000000000000000000803201700000000            000000000000000                              000                           
0010001300199T 020180230000002544776 29647041122525774   7               10032017000000000006000001010383                         0900000000000010000000000000000000000000000000000000000   0000000000000000000000000A9        170192964704     
0010001300200U 020000000000000000000000000000000000000000000000000000000000000000000000000000000000000000000000000000000000000000000000000803201700000000            000000000000000                              000                           
0010001300201T 020180230000002544776 29647041122535942   7               10032017000000000006000001010383                         0900000000000010000000000000000000000000000000000000000   0000000000000000000000000A9        170192964704     
0010001300202U 020000000000000000000000000000000000000000000000000000000000000000000000000000000000000000000000000000000000000000000000000803201700000000            000000000000000                              000                           
0010001300203T 020180230000002544776 29647041122551002   7               10032017000000000006000001010383                         0900000000000010000000000000000000000000000000000000000   0000000000000000000000000A9        170192964704     
0010001300204U 020000000000000000000000000000000000000000000000000000000000000000000000000000000000000000000000000000000000000000000000000803201700000000            000000000000000                              000                           
0010001300205T 020180230000002544776 29647041122603372   7               10032017000000000008000001000361                         0900000000000010000000000000000000000000000000000000000   0000000000000000000000000A9        170192964704     
0010001300206U 020000000000000000000000000000000000000000000000000000000000000000000000000000000000000000000000000000000000000000000000000803201700000000            000000000000000                              000                           
0010001300207T 020180230000002544776 29647041122855629   7               10032017000000000006000001035033                         0900000000000010000000000000000000000000000000000000000   0000000000000000000000000A9        170192964704     
0010001300208U 020000000000000000000000000000000000000000000000000000000000000000000000000000000000000000000000000000000000000000000000000803201700000000            000000000000000                              000                           
0010001300209T 020180230000002544776 29647041123153540   7               10032017000000000008000001001724                         0900000000000010000000000000000000000000000000000000000   0000000000000000000000000A9        170192964704     
0010001300210U 020000000000000000000000000000000000000000000000000000000000000000000000000000000000000000000000000000000000000000000000000803201700000000            000000000000000                              000                           
0010001300211T 020180230000002544776 29647041123211118   7               10032017000000000006000001008214                         0900000000000010000000000000000000000000000000000000000   0000000000000000000000000A9        170192964704     
0010001300212U 020000000000000000000000000000000000000000000000000000000000000000000000000000000000000000000000000000000000000000000000000803201700000000            000000000000000                              000                           
0010001300213T 020180230000002544776 29647041123430956   7               10032017000000000006000001001597                         0900000000000010000000000000000000000000000000000000000   0000000000000000000000000A9        170192964704     
0010001300214U 020000000000000000000000000000000000000000000000000000000000000000000000000000000000000000000000000000000000000000000000000803201700000000            000000000000000                              000                           
0010001300215T 020180230000002544776 29647041123507507   7               10032017000000000006000001044865                         0900000000000010000000000000000000000000000000000000000   0000000000000000000000000A9        170192964704     
0010001300216U 020000000000000000000000000000000000000000000000000000000000000000000000000000000000000000000000000000000000000000000000000803201700000000            000000000000000                              000                           
0010001300217T 020180230000002544776 29647041123630256   7               10032017000000000008000001016179                         0900000000000010000000000000000000000000000000000000000   0000000000000000000000000A9        170192964704     
0010001300218U 020000000000000000000000000000000000000000000000000000000000000000000000000000000000000000000000000000000000000000000000000803201700000000            000000000000000                              000                           
0010001300219T 020180230000002544776 29647041123754920   7               10032017000000000006000001012467                         0900000000000010000000000000000000000000000000000000000   0000000000000000000000000A9        170192964704     
0010001300220U 020000000000000000000000000000000000000000000000000000000000000000000000000000000000000000000000000000000000000000000000000803201700000000            000000000000000                              000                           
0010001300221T 020180230000002544776 29647041123832332   7               10032017000000000006000001016179                         0900000000000010000000000000000000000000000000000000000   0000000000000000000000000A9        170192964704     
0010001300222U 020000000000000000000000000000000000000000000000000000000000000000000000000000000000000000000000000000000000000000000000000803201700000000            000000000000000                              000                           
0010001300223T 020180230000002544776 29647041123937343   7               10032017000000000006000001000493                         0900000000000010000000000000000000000000000000000000000   0000000000000000000000000A9        170192964704     
0010001300224U 020000000000000000000000000000000000000000000000000000000000000000000000000000000000000000000000000000000000000000000000000803201700000000            000000000000000                              000                           
0010001300225T 020180230000002544776 29647041124120086   7               10032017000000000008000001028029                         0900000000000010000000000000000000000000000000000000000   0000000000000000000000000A9        170192964704     
0010001300226U 020000000000000000000000000000000000000000000000000000000000000000000000000000000000000000000000000000000000000000000000000803201700000000            000000000000000                              000                           
0010001300227T 020180230000002544776 29647041124228928   7               10032017000000000006000001023655                         0900000000000010000000000000000000000000000000000000000   0000000000000000000000000A9        170192964704     
0010001300228U 020000000000000000000000000000000000000000000000000000000000000000000000000000000000000000000000000000000000000000000000000803201700000000            000000000000000                              000                           
0010001300229T 020180230000002544776 29647041124250373   7               10032017000000000006000001023655                         0900000000000010000000000000000000000000000000000000000   0000000000000000000000000A9        170192964704     
0010001300230U 020000000000000000000000000000000000000000000000000000000000000000000000000000000000000000000000000000000000000000000000000803201700000000            000000000000000                              000                           
0010001300231T 020180230000002544776 29647041124256451   7               10032017000000000006000001023655                         0900000000000010000000000000000000000000000000000000000   0000000000000000000000000A9        170192964704     
0010001300232U 020000000000000000000000000000000000000000000000000000000000000000000000000000000000000000000000000000000000000000000000000803201700000000            000000000000000                              000                           
0010001300233T 020180230000002544776 29647041124350277   7               10032017000000000006000001028495                         0900000000000010000000000000000000000000000000000000000   0000000000000000000000000A9        170192964704     
0010001300234U 020000000000000000000000000000000000000000000000000000000000000000000000000000000000000000000000000000000000000000000000000803201700000000            000000000000000                              000                           
0010001300235T 020180230000002544776 29647041124410178   7               10032017000000000006000001000132                         0900000000000010000000000000000000000000000000000000000   0000000000000000000000000A9        170192964704     
0010001300236U 020000000000000000000000000000000000000000000000000000000000000000000000000000000000000000000000000000000000000000000000000803201700000000            000000000000000                              000                           
0010001300237T 020180230000002544776 29647041124433996   7               10032017000000000006000001000132                         0900000000000010000000000000000000000000000000000000000   0000000000000000000000000A9        170192964704     
0010001300238U 020000000000000000000000000000000000000000000000000000000000000000000000000000000000000000000000000000000000000000000000000803201700000000            000000000000000                              000                           
0010001300239T 020180230000002544776 29647041124453666   7               10032017000000000006000001000132                         0900000000000010000000000000000000000000000000000000000   0000000000000000000000000A9        170192964704     
0010001300240U 020000000000000000000000000000000000000000000000000000000000000000000000000000000000000000000000000000000000000000000000000803201700000000            000000000000000                              000                           
0010001300241T 020180230000002544776 29647041124517611   7               1003201700000000000600000100233X                         0900000000000010000000000000000000000000000000000000000   0000000000000000000000000A9        170192964704     
0010001300242U 020000000000000000000000000000000000000000000000000000000000000000000000000000000000000000000000000000000000000000000000000803201700000000            000000000000000                              000                           
0010001300243T 020180230000002544776 29647041124607998   7               10032017000000000006000001028029                         0900000000000010000000000000000000000000000000000000000   0000000000000000000000000A9        170192964704     
0010001300244U 020000000000000000000000000000000000000000000000000000000000000000000000000000000000000000000000000000000000000000000000000803201700000000            000000000000000                              000                           
0010001300245T 020180230000002544776 29647041124726478   7               10032017000000000006000001017922                         0900000000000010000000000000000000000000000000000000000   0000000000000000000000000A9        170192964704     
0010001300246U 020000000000000000000000000000000000000000000000000000000000000000000000000000000000000000000000000000000000000000000000000803201700000000            000000000000000                              000                           
0010001300247T 020180230000002544776 29647041124848691   7               10032017000000000006000001002321                         0900000000000010000000000000000000000000000000000000000   0000000000000000000000000A9        170192964704     
0010001300248U 020000000000000000000000000000000000000000000000000000000000000000000000000000000000000000000000000000000000000000000000000803201700000000            000000000000000                              000                           
0010001300249T 020180230000002544776 29647041125034020   7               1003201700000000000600000100944X                         0900000000000010000000000000000000000000000000000000000   0000000000000000000000000A9        170192964704     
0010001300250U 020000000000000000000000000000000000000000000000000000000000000000000000000000000000000000000000000000000000000000000000000803201700000000            000000000000000                              000                           
0010001300251T 020180230000002544776 29647041125148896   7               10032017000000000006000001028029                         0900000000000010000000000000000000000000000000000000000   0000000000000000000000000A9        170192964704     
0010001300252U 020000000000000000000000000000000000000000000000000000000000000000000000000000000000000000000000000000000000000000000000000803201700000000            000000000000000                              000                           
0010001300253T 020180230000002544776 29647041125231346   7               10032017000000000008000001006084                         0900000000000010000000000000000000000000000000000000000   0000000000000000000000000A9        170192964704     
0010001300254U 020000000000000000000000000000000000000000000000000000000000000000000000000000000000000000000000000000000000000000000000000803201700000000            000000000000000                              000                           
0010001300255T 020180230000002544776 29647041125325844   7               10032017000000000006000001028029                         0900000000000010000000000000000000000000000000000000000   0000000000000000000000000A9        170192964704     
0010001300256U 020000000000000000000000000000000000000000000000000000000000000000000000000000000000000000000000000000000000000000000000000803201700000000            000000000000000                              000                           
0010001300257T 020180230000002544776 29647041125445641   7               10032017000000000006000001000132                         0900000000000010000000000000000000000000000000000000000   0000000000000000000000000A9        170192964704     
0010001300258U 020000000000000000000000000000000000000000000000000000000000000000000000000000000000000000000000000000000000000000000000000803201700000000            000000000000000                              000                           
0010001300259T 020180230000002544776 29647041125543183   7               10032017000000000006000001012467                         0900000000000010000000000000000000000000000000000000000   0000000000000000000000000A9        170192964704     
0010001300260U 020000000000000000000000000000000000000000000000000000000000000000000000000000000000000000000000000000000000000000000000000803201700000000            000000000000000                              000                           
0010001300261T 020180230000002544776 29647041125645256   7               10032017000000000006000001028029                         0900000000000010000000000000000000000000000000000000000   0000000000000000000000000A9        170192964704     
0010001300262U 020000000000000000000000000000000000000000000000000000000000000000000000000000000000000000000000000000000000000000000000000803201700000000            000000000000000                              000                           
0010001300263T 020180230000002544776 29647041125724030   7               10032017000000000006000001020354                         0900000000000010000000000000000000000000000000000000000   0000000000000000000000000A9        170192964704     
0010001300264U 020000000000000000000000000000000000000000000000000000000000000000000000000000000000000000000000000000000000000000000000000803201700000000            000000000000000                              000                           
0010001300265T 020180230000002544776 29647041125827554   7               10032017000000000006000001005037                         0900000000000010000000000000000000000000000000000000000   0000000000000000000000000A9        170192964704     
0010001300266U 020000000000000000000000000000000000000000000000000000000000000000000000000000000000000000000000000000000000000000000000000803201700000000            000000000000000                              000                           
0010001300267T 020180230000002544776 29647041125922948   7               10032017000000000006000001016810                         0900000000000010000000000000000000000000000000000000000   0000000000000000000000000A9        170192964704     
0010001300268U 020000000000000000000000000000000000000000000000000000000000000000000000000000000000000000000000000000000000000000000000000803201700000000            000000000000000                              000                           
0010001300269T 020180230000002544776 29647041125934770   7               10032017000000000006000001016810                         0900000000000010000000000000000000000000000000000000000   0000000000000000000000000A9        170192964704     
0010001300270U 020000000000000000000000000000000000000000000000000000000000000000000000000000000000000000000000000000000000000000000000000803201700000000            000000000000000                              000                           
0010001300271T 020180230000002544776 29647041126016804   7               10032017000000000008000001028029                         0900000000000010000000000000000000000000000000000000000   0000000000000000000000000A9        170192964704     
0010001300272U 020000000000000000000000000000000000000000000000000000000000000000000000000000000000000000000000000000000000000000000000000803201700000000            000000000000000                              000                           
0010001300273T 020180230000002544776 29647041126122840   7               10032017000000000006000001028029                         0900000000000010000000000000000000000000000000000000000   0000000000000000000000000A9        170192964704     
0010001300274U 020000000000000000000000000000000000000000000000000000000000000000000000000000000000000000000000000000000000000000000000000803201700000000            000000000000000                              000                           
0010001300275T 020180230000002544776 29647041126158201   7               10032017000000000006000001028029                         0900000000000010000000000000000000000000000000000000000   0000000000000000000000000A9        170192964704     
0010001300276U 020000000000000000000000000000000000000000000000000000000000000000000000000000000000000000000000000000000000000000000000000803201700000000            000000000000000                              000                           
0010001300277T 020180230000002544776 29647041126342730   7               10032017000000000006000001022594                         0900000000000010000000000000000000000000000000000000000   0000000000000000000000000A9        170192964704     
0010001300278U 020000000000000000000000000000000000000000000000000000000000000000000000000000000000000000000000000000000000000000000000000803201700000000            000000000000000                              000                           
0010001300279T 020180230000002544776 29647041126421291   7               10032017000000000006000001028029                         0900000000000010000000000000000000000000000000000000000   0000000000000000000000000A9        170192964704     
0010001300280U 020000000000000000000000000000000000000000000000000000000000000000000000000000000000000000000000000000000000000000000000000803201700000000            000000000000000                              000                           
0010001300281T 020180230000002544776 29647041126507281   7               10032017000000000008000001028029                         0900000000000010000000000000000000000000000000000000000   0000000000000000000000000A9        170192964704     
0010001300282U 020000000000000000000000000000000000000000000000000000000000000000000000000000000000000000000000000000000000000000000000000803201700000000            000000000000000                              000                           
0010001300283T 020180230000002544776 29647041126657610   7               10032017000000000006000001009636                         0900000000000010000000000000000000000000000000000000000   0000000000000000000000000A9        170192964704     
0010001300284U 020000000000000000000000000000000000000000000000000000000000000000000000000000000000000000000000000000000000000000000000000803201700000000            000000000000000                              000                           
0010001300285T 020180230000002544776 29647041126730439   7               10032017000000000006000001016179                         0900000000000010000000000000000000000000000000000000000   0000000000000000000000000A9        170192964704     
0010001300286U 020000000000000000000000000000000000000000000000000000000000000000000000000000000000000000000000000000000000000000000000000803201700000000            000000000000000                              000                           
0010001300287T 020180230000002544776 29647041126858979   7               10032017000000000006000001009636                         0900000000000010000000000000000000000000000000000000000   0000000000000000000000000A9        170192964704     
0010001300288U 020000000000000000000000000000000000000000000000000000000000000000000000000000000000000000000000000000000000000000000000000803201700000000            000000000000000                              000                           
0010001300289T 020180230000002544776 29647041126915295   7               10032017000000000006000001028029                         0900000000000010000000000000000000000000000000000000000   0000000000000000000000000A9        170192964704     
0010001300290U 020000000000000000000000000000000000000000000000000000000000000000000000000000000000000000000000000000000000000000000000000803201700000000            000000000000000                              000                           
0010001300291T 020180230000002544776 29647041127044714   7               10032017000000000006000001013617                         0900000000000010000000000000000000000000000000000000000   0000000000000000000000000A9        170192964704     
0010001300292U 020000000000000000000000000000000000000000000000000000000000000000000000000000000000000000000000000000000000000000000000000803201700000000            000000000000000                              000                           
0010001300293T 020180230000002544776 29647041127146652   7               10032017000000000006000001016179                         0900000000000010000000000000000000000000000000000000000   0000000000000000000000000A9        170192964704     
0010001300294U 020000000000000000000000000000000000000000000000000000000000000000000000000000000000000000000000000000000000000000000000000803201700000000            000000000000000                              000                           
0010001300295T 020180230000002544776 29647041127251624   7               10032017000000000006000001023655                         0900000000000010000000000000000000000000000000000000000   0000000000000000000000000A9        170192964704     
0010001300296U 020000000000000000000000000000000000000000000000000000000000000000000000000000000000000000000000000000000000000000000000000803201700000000            000000000000000                              000                           
0010001300297T 020180230000002544776 29647041127305748   7               10032017000000000008000001028029                         0900000000000010000000000000000000000000000000000000000   0000000000000000000000000A9        170192964704     
0010001300298U 020000000000000000000000000000000000000000000000000000000000000000000000000000000000000000000000000000000000000000000000000803201700000000            000000000000000                              000                           
0010001300299T 020180230000002544776 29647041127412269   7               10032017000000000006000001033316                         0900000000000010000000000000000000000000000000000000000   0000000000000000000000000A9        170192964704     
0010001300300U 020000000000000000000000000000000000000000000000000000000000000000000000000000000000000000000000000000000000000000000000000803201700000000            000000000000000                              000                           
0010001300301T 020180230000002544776 29647041127534947   7               10032017000000000006000001023655                         0900000000000010000000000000000000000000000000000000000   0000000000000000000000000A9        170192964704     
0010001300302U 020000000000000000000000000000000000000000000000000000000000000000000000000000000000000000000000000000000000000000000000000803201700000000            000000000000000                              000                           
0010001300303T 020180230000002544776 29647041127651393   7               10032017000000000006000001016179                         0900000000000010000000000000000000000000000000000000000   0000000000000000000000000A9        170192964704     
0010001300304U 020000000000000000000000000000000000000000000000000000000000000000000000000000000000000000000000000000000000000000000000000803201700000000            000000000000000                              000                           
0010001300305T 020180230000002544776 29647041127745163   7               10032017000000000006000001010421                         0900000000000010000000000000000000000000000000000000000   0000000000000000000000000A9        170192964704     
0010001300306U 020000000000000000000000000000000000000000000000000000000000000000000000000000000000000000000000000000000000000000000000000803201700000000            000000000000000                              000                           
0010001300307T 020180230000002544776 29647041127823936   7               10032017000000000006000001012467                         0900000000000010000000000000000000000000000000000000000   0000000000000000000000000A9        170192964704     
0010001300308U 020000000000000000000000000000000000000000000000000000000000000000000000000000000000000000000000000000000000000000000000000803201700000000            000000000000000                              000                           
0010001300309T 020180230000002544776 29647041127935270   7               10032017000000000008000001016861                         0900000000000010000000000000000000000000000000000000000   0000000000000000000000000A9        170192964704     
0010001300310U 020000000000000000000000000000000000000000000000000000000000000000000000000000000000000000000000000000000000000000000000000803201700000000            000000000000000                              000                           
0010001300311T 020180230000002544776 29647041128047623   7               10032017000000000008000001002461                         0900000000000010000000000000000000000000000000000000000   0000000000000000000000000A9        170192964704     
0010001300312U 020000000000000000000000000000000000000000000000000000000000000000000000000000000000000000000000000000000000000000000000000803201700000000            000000000000000                              000                           
0010001300313T 020180230000002544776 29647041128120778   7               1003201700000000000800000101138X                         0900000000000010000000000000000000000000000000000000000   0000000000000000000000000A9        170192964704     
0010001300314U 020000000000000000000000000000000000000000000000000000000000000000000000000000000000000000000000000000000000000000000000000803201700000000            000000000000000                              000                           
0010001300315T 020180230000002544776 29647041128224964   7               10032017000000000006000001028029                         0900000000000010500000000000000000000000000000000000000   0000000000000000000000000A9A4      170192964704     
0010001300316U 020000000000000000000000000000000000000000000000000000000000000000000000000000000000000000000000000000000000000000000000000803201700000000            000000000000000                              000                           
0010001300317T 020180230000002544776 29647041128550347   7               10032017000000000006000001028029                         0900000000000010000000000000000000000000000000000000000   0000000000000000000000000A9        170192964704     
0010001300318U 020000000000000000000000000000000000000000000000000000000000000000000000000000000000000000000000000000000000000000000000000803201700000000            000000000000000                              000                           
0010001300319T 020180230000002544776 29647041128612485   7               10032017000000000006000001000132                         0900000000000010000000000000000000000000000000000000000   0000000000000000000000000A9        170192964704     
0010001300320U 020000000000000000000000000000000000000000000000000000000000000000000000000000000000000000000000000000000000000000000000000803201700000000            000000000000000                              000                           
0010001300321T 020180230000002544776 29647041128702384   7               10032017000000000006000001008214                         0900000000000010000000000000000000000000000000000000000   0000000000000000000000000A9        170192964704     
0010001300322U 020000000000000000000000000000000000000000000000000000000000000000000000000000000000000000000000000000000000000000000000000803201700000000            000000000000000                              000                           
0010001300323T 020180230000002544776 29647041128752800   7               10032017000000000006000001008214                         0900000000000010000000000000000000000000000000000000000   0000000000000000000000000A9        170192964704     
0010001300324U 020000000000000000000000000000000000000000000000000000000000000000000000000000000000000000000000000000000000000000000000000803201700000000            000000000000000                              000                           
0010001300325T 020180230000002544776 29647041128854047   7               10032017000000000006000001028029                         0900000000000010000000000000000000000000000000000000000   0000000000000000000000000A9        170192964704     
0010001300326U 020000000000000000000000000000000000000000000000000000000000000000000000000000000000000000000000000000000000000000000000000803201700000000            000000000000000                              000                           
0010001300327T 020180230000002544776 29647041128957224   7               10032017000000000006000001026409                         0900000000000010000000000000000000000000000000000000000   0000000000000000000000000A9        170192964704     
0010001300328U 020000000000000000000000000000000000000000000000000000000000000000000000000000000000000000000000000000000000000000000000000803201700000000            000000000000000                              000                           
0010001300329T 020180230000002544776 29647041129054854   7               10032017000000000006000001028495                         0900000000000010000000000000000000000000000000000000000   0000000000000000000000000A9        170192964704     
0010001300330U 020000000000000000000000000000000000000000000000000000000000000000000000000000000000000000000000000000000000000000000000000803201700000000            000000000000000                              000                           
0010001300331T 020180230000002544776 29647041129142700   7               1003201700000000000600000101138X                         0900000000000010000000000000000000000000000000000000000   0000000000000000000000000A9        170192964704     
0010001300332U 020000000000000000000000000000000000000000000000000000000000000000000000000000000000000000000000000000000000000000000000000803201700000000            000000000000000                              000                           
0010001300333T 020180230000002544776 29647041129302432   7               10032017000000000006000001012467                         0900000000000010000000000000000000000000000000000000000   0000000000000000000000000A9        170192964704     
0010001300334U 020000000000000000000000000000000000000000000000000000000000000000000000000000000000000000000000000000000000000000000000000803201700000000            000000000000000                              000                           
0010001300335T 020180230000002544776 29647041129323584   7               10032017000000000006000001012467                         0900000000000010000000000000000000000000000000000000000   0000000000000000000000000A9        170192964704     
0010001300336U 020000000000000000000000000000000000000000000000000000000000000000000000000000000000000000000000000000000000000000000000000803201700000000            000000000000000                              000                           
0010001300337T 020180230000002544776 29647041129328670   7               10032017000000000006000001012467                         0900000000000010000000000000000000000000000000000000000   0000000000000000000000000A9        170192964704     
0010001300338U 020000000000000000000000000000000000000000000000000000000000000000000000000000000000000000000000000000000000000000000000000803201700000000            000000000000000                              000                           
0010001300339T 020180230000002544776 29647041129331380   7               10032017000000000006000001012467                         0900000000000010000000000000000000000000000000000000000   0000000000000000000000000A9        170192964704     
0010001300340U 020000000000000000000000000000000000000000000000000000000000000000000000000000000000000000000000000000000000000000000000000803201700000000            000000000000000                              000                           
0010001300341T 020180230000002544776 29647041129342615   7               10032017000000000006000001012467                         0900000000000010000000000000000000000000000000000000000   0000000000000000000000000A9        170192964704     
0010001300342U 020000000000000000000000000000000000000000000000000000000000000000000000000000000000000000000000000000000000000000000000000803201700000000            000000000000000                              000                           
0010001300343T 020180230000002544776 29647041129406014   7               10032017000000000006000001012467                         0900000000000010000000000000000000000000000000000000000   0000000000000000000000000A9        170192964704     
0010001300344U 020000000000000000000000000000000000000000000000000000000000000000000000000000000000000000000000000000000000000000000000000803201700000000            000000000000000                              000                           
0010001300345T 020180230000002544776 29647041129450904   7               10032017000000000006000001012467                         0900000000000010000000000000000000000000000000000000000   0000000000000000000000000A9        170192964704     
0010001300346U 020000000000000000000000000000000000000000000000000000000000000000000000000000000000000000000000000000000000000000000000000803201700000000            000000000000000                              000                           
0010001300347T 020180230000002544776 29647041129520052   7               10032017000000000008000001006734                         0900000000000010000000000000000000000000000000000000000   0000000000000000000000000A9        170192964704     
0010001300348U 020000000000000000000000000000000000000000000000000000000000000000000000000000000000000000000000000000000000000000000000000803201700000000            000000000000000                              000                           
0010001300349T 020180230000002544776 29647041129621557   7               10032017000000000008000001000132                         0900000000000010000000000000000000000000000000000000000   0000000000000000000000000A9        170192964704     
0010001300350U 020000000000000000000000000000000000000000000000000000000000000000000000000000000000000000000000000000000000000000000000000803201700000000            000000000000000                              000                           
0010001300351T 020180230000002544776 29647041129657930   7               10032017000000000008000001000132                         0900000000000010000000000000000000000000000000000000000   0000000000000000000000000A9        170192964704     
0010001300352U 020000000000000000000000000000000000000000000000000000000000000000000000000000000000000000000000000000000000000000000000000803201700000000            000000000000000                              000                           
0010001300353T 020180230000002544776 29647041129720888   7               10032017000000000006000001023655                         0900000000000010000000000000000000000000000000000000000   0000000000000000000000000A9        170192964704     
0010001300354U 020000000000000000000000000000000000000000000000000000000000000000000000000000000000000000000000000000000000000000000000000803201700000000            000000000000000                              000                           
0010001300355T 020180230000002544776 29647041129815912   7               10032017000000000006000001016179                         0900000000000010000000000000000000000000000000000000000   0000000000000000000000000A9        170192964704     
0010001300356U 020000000000000000000000000000000000000000000000000000000000000000000000000000000000000000000000000000000000000000000000000803201700000000            000000000000000                              000                           
0010001300357T 020180230000002544776 29647041129900665   7               10032017000000000006000001016438                         0900000000000010000000000000000000000000000000000000000   0000000000000000000000000A9        170192964704     
0010001300358U 020000000000000000000000000000000000000000000000000000000000000000000000000000000000000000000000000000000000000000000000000803201700000000            000000000000000                              000                           
0010001300359T 020180230000002544776 29647041129936437   7               10032017000000000006000001016438                         0900000000000010000000000000000000000000000000000000000   0000000000000000000000000A9        170192964704     
0010001300360U 020000000000000000000000000000000000000000000000000000000000000000000000000000000000000000000000000000000000000000000000000803201700000000            000000000000000                              000                           
0010001300361T 020180230000002544776 29647041130018633   7               10032017000000000006000001000361                         0900000000000010000000000000000000000000000000000000000   0000000000000000000000000A9        170192964704     
0010001300362U 020000000000000000000000000000000000000000000000000000000000000000000000000000000000000000000000000000000000000000000000000803201700000000            000000000000000                              000                           
0010001300363T 020180230000002544776 29647041130043719   7               10032017000000000006000001000361                         0900000000000010000000000000000000000000000000000000000   0000000000000000000000000A9        170192964704     
0010001300364U 020000000000000000000000000000000000000000000000000000000000000000000000000000000000000000000000000000000000000000000000000803201700000000            000000000000000                              000                           
0010001300365T 020180230000002544776 29647041130125136   7               10032017000000000008000001012467                         0900000000000010000000000000000000000000000000000000000   0000000000000000000000000A9        170192964704     
0010001300366U 020000000000000000000000000000000000000000000000000000000000000000000000000000000000000000000000000000000000000000000000000803201700000000            000000000000000                              000                           
0010001300367T 020180230000002544776 29647041130251736   7               10032017000000000006000001020354                         0900000000000010000000000000000000000000000000000000000   0000000000000000000000000A9        170192964704     
0010001300368U 020000000000000000000000000000000000000000000000000000000000000000000000000000000000000000000000000000000000000000000000000803201700000000            000000000000000                              000                           
0010001300369T 020180230000002544776 29647041130346420   7               10032017000000000006000001016179                         0900000000000010000000000000000000000000000000000000000   0000000000000000000000000A9        170192964704     
0010001300370U 020000000000000000000000000000000000000000000000000000000000000000000000000000000000000000000000000000000000000000000000000803201700000000            000000000000000                              000                           
0010001300371T 020180230000002544776 29647041130407469   7               10032017000000000006000001028029                         0900000000000010500000000000000000000000000000000000000   0000000000000000000000000A9A4      170192964704     
0010001300372U 020000000000000000000000000000000000000000000000000000000000000000000000000000000000000000000000000000000000000000000000000803201700000000            000000000000000                              000                           
0010001300373T 020180230000002544776 29647041130502133   7               10032017000000000006000001018376                         0900000000000010000000000000000000000000000000000000000   0000000000000000000000000A9        170192964704     
0010001300374U 020000000000000000000000000000000000000000000000000000000000000000000000000000000000000000000000000000000000000000000000000803201700000000            000000000000000                              000                           
0010001300375T 020180230000002544776 29647041130643347   7               10032017000000000006000001028029                         0900000000000010000000000000000000000000000000000000000   0000000000000000000000000A9        170192964704     
0010001300376U 020000000000000000000000000000000000000000000000000000000000000000000000000000000000000000000000000000000000000000000000000803201700000000            000000000000000                              000                           
0010001300377T 020180230000002544776 29647041130654109   7               10032017000000000006000001028029                         0900000000000010000000000000000000000000000000000000000   0000000000000000000000000A9        170192964704     
0010001300378U 020000000000000000000000000000000000000000000000000000000000000000000000000000000000000000000000000000000000000000000000000803201700000000            000000000000000                              000                           
0010001300379T 020180230000002544776 29647041130831088   7               10032017000000000006000001028029                         0900000000000010000000000000000000000000000000000000000   0000000000000000000000000A9        170192964704     
0010001300380U 020000000000000000000000000000000000000000000000000000000000000000000000000000000000000000000000000000000000000000000000000803201700000000            000000000000000                              000                           
0010001300381T 020180230000002544776 29647041130921657   7               10032017000000000008000001016179                         0900000000000010000000000000000000000000000000000000000   0000000000000000000000000A9        170192964704     
0010001300382U 020000000000000000000000000000000000000000000000000000000000000000000000000000000000000000000000000000000000000000000000000803201700000000            000000000000000                              000                           
0010001300383T 020180230000002544776 29647041131011732   7               1003201700000000000600000104119X                         0900000000000010000000000000000000000000000000000000000   0000000000000000000000000A9        170192964704     
0010001300384U 020000000000000000000000000000000000000000000000000000000000000000000000000000000000000000000000000000000000000000000000000803201700000000            000000000000000                              000                           
0010001300385T 020180230000002544776 29647041131225603   7               10032017000000000006000001016179                         0900000000000010000000000000000000000000000000000000000   0000000000000000000000000A9        170192964704     
0010001300386U 020000000000000000000000000000000000000000000000000000000000000000000000000000000000000000000000000000000000000000000000000803201700000000            000000000000000                              000                           
0010001300387T 020180230000002544776 29647041131353733   7               10032017000000000008000001021911                         0900000000000010000000000000000000000000000000000000000   0000000000000000000000000A9        170192964704     
0010001300388U 020000000000000000000000000000000000000000000000000000000000000000000000000000000000000000000000000000000000000000000000000803201700000000            000000000000000                              000                           
0010001300389T 020180230000002544776 29647041131436182   7               10032017000000000006000001028029                         0900000000000010000000000000000000000000000000000000000   0000000000000000000000000A9        170192964704     
0010001300390U 020000000000000000000000000000000000000000000000000000000000000000000000000000000000000000000000000000000000000000000000000803201700000000            000000000000000                              000                           
0010001300391T 020180230000002544776 29647041131549535   7               10032017000000000006000001008214                         0900000000000010000000000000000000000000000000000000000   0000000000000000000000000A9        170192964704     
0010001300392U 020000000000000000000000000000000000000000000000000000000000000000000000000000000000000000000000000000000000000000000000000803201700000000            000000000000000                              000                           
0010001300393T 020180230000002544776 29647041131649054   7               1003201700000000000600000100068X                         0900000000000010000000000000000000000000000000000000000   0000000000000000000000000A9        170192964704     
0010001300394U 020000000000000000000000000000000000000000000000000000000000000000000000000000000000000000000000000000000000000000000000000803201700000000            000000000000000                              000                           
0010001300395T 020180230000002544776 29647041131755086   7               10032017000000000006000001016179                         0900000000000010000000000000000000000000000000000000000   0000000000000000000000000A9        170192964704     
0010001300396U 020000000000000000000000000000000000000000000000000000000000000000000000000000000000000000000000000000000000000000000000000803201700000000            000000000000000                              000                           
0010001300397T 020180230000002544776 29647041131848541   7               10032017000000000006000001018376                         0900000000000010000000000000000000000000000000000000000   0000000000000000000000000A9        170192964704     
0010001300398U 020000000000000000000000000000000000000000000000000000000000000000000000000000000000000000000000000000000000000000000000000803201700000000            000000000000000                              000                           
0010001300399T 020180230000002544776 29647041132031539   7               10032017000000000006000001033316                         0900000000000010000000000000000000000000000000000000000   0000000000000000000000000A9        170192964704     
0010001300400U 020000000000000000000000000000000000000000000000000000000000000000000000000000000000000000000000000000000000000000000000000803201700000000            000000000000000                              000                           
0010001300401T 020180230000002544776 29647041132054635   7               10032017000000000006000001033316                         0900000000000010000000000000000000000000000000000000000   0000000000000000000000000A9        170192964704     
0010001300402U 020000000000000000000000000000000000000000000000000000000000000000000000000000000000000000000000000000000000000000000000000803201700000000            000000000000000                              000                           
0010001300403T 020180230000002544776 29647041132058004   7               10032017000000000006000001033316                         0900000000000010000000000000000000000000000000000000000   0000000000000000000000000A9        170192964704     
0010001300404U 020000000000000000000000000000000000000000000000000000000000000000000000000000000000000000000000000000000000000000000000000803201700000000            000000000000000                              000                           
0010001300405T 020180230000002544776 29647041132141959   7               1003201700000000000800000100233X                         0900000000000010000000000000000000000000000000000000000   0000000000000000000000000A9        170192964704     
0010001300406U 020000000000000000000000000000000000000000000000000000000000000000000000000000000000000000000000000000000000000000000000000803201700000000            000000000000000                              000                           
0010001300407T 020180230000002544776 29647041132229018   7               1003201700000000000600000102256X                         0900000000000010000000000000000000000000000000000000000   0000000000000000000000000A9        170192964704     
0010001300408U 020000000000000000000000000000000000000000000000000000000000000000000000000000000000000000000000000000000000000000000000000803201700000000            000000000000000                              000                           
0010001300409T 020180230000002544776 29647041132240855   7               1003201700000000000600000102256X                         0900000000000010000000000000000000000000000000000000000   0000000000000000000000000A9        170192964704     
0010001300410U 020000000000000000000000000000000000000000000000000000000000000000000000000000000000000000000000000000000000000000000000000803201700000000            000000000000000                              000                           
0010001300411T 020180230000002544776 29647041132338670   7               10032017000000000006000001000132                         0900000000000010000000000000000000000000000000000000000   0000000000000000000000000A9        170192964704     
0010001300412U 020000000000000000000000000000000000000000000000000000000000000000000000000000000000000000000000000000000000000000000000000803201700000000            000000000000000                              000                           
