00100000         2247745860001000029647040014       0180230000002544776 INSTITUTO DE SELECAO E TECNOLOBANCO DO BRASIL                         20903201701231900005403000000515122941PROCESSAMEN                                                 
00100011T0100020 20247745860001000029647040014       0180230000002544776 INSTITUTO DE SELECAO E TECNOLO                                                                                000000000903201700000000  000000000                      
0010001300001T 020180230000002544776 29647040510423659   7               11032017000000000008000001012467                         0900000000000010000000000000000000000000000000000000000   0000000000000000000000000A9        170192964704     
0010001300002U 020000000000000000000000000000000000000000000000000000000000000000000000000000000000000000000000000000000000000000000000000903201700000000            000000000000000                              000                           
0010001300003T 020180230000002544776 29647040511937887   7               11032017000000000006000001035041                         0900000000000010000000000000000000000000000000000000000   0000000000000000000000000A9        170192964704     
0010001300004U 020000000000000000000000000000000000000000000000000000000000000000000000000000000000000000000000000000000000000000000000000903201700000000            000000000000000                              000                           
0010001300005T 020180230000002544776 29647040595139632   7               11032017000000000008000001028029                         0900000000000010000000000000000000000000000000000000000   0000000000000000000000000A9        170192964704     
0010001300006U 020000000000000000000000000000000000000000000000000000000000000000000000000000000000000000000000000000000000000000000000000903201700000000            000000000000000                              000                           
0010001300007T 020180230000002544776 29647040600953604   7               11032017000000000008000001001368                         0900000000000010000000000000000000000000000000000000000   0000000000000000000000000A9        170192964704     
0010001300008U 020000000000000000000000000000000000000000000000000000000000000000000000000000000000000000000000000000000000000000000000000903201700000000            000000000000000                              000                           
0010001300009T 020180230000002544776 29647040620126573   7               10032017000000000006000001016179                         0900000000000010000000000000000000000000000000000000000   0000000000000000000000000A9        170192964704     
0010001300010U 020000000000000000000000000000000000000000000000000000000000000000000000000000000000000000000000000000000000000000000000000803201700000000            000000000000000                              000                           
0010001300011T 020180230000002544776 29647040638151233   7               11032017000000000006000001000132                         0900000000000010000000000000000000000000000000000000000   0000000000000000000000000A9        170192964704     
0010001300012U 020000000000000000000000000000000000000000000000000000000000000000000000000000000000000000000000000000000000000000000000000903201700000000            000000000000000                              000                           
0010001300013T 020180230000002544776 29647040672700781   7               11032017000000000006000001008214                         0900000000000010000000000000000000000000000000000000000   0000000000000000000000000A9        170192964704     
0010001300014U 020000000000000000000000000000000000000000000000000000000000000000000000000000000000000000000000000000000000000000000000000903201700000000            000000000000000                              000                           
0010001300015T 020180230000002544776 29647040696928839   7               11032017000000000006000001027316                         0900000000000010000000000000000000000000000000000000000   0000000000000000000000000A9        170192964704     
0010001300016U 020000000000000000000000000000000000000000000000000000000000000000000000000000000000000000000000000000000000000000000000000903201700000000            000000000000000                              000                           
0010001300017T 020180230000002544776 29647040702845780   7               11032017000000000006000001035033                         0900000000000010000000000000000000000000000000000000000   0000000000000000000000000A9        170192964704     
0010001300018U 020000000000000000000000000000000000000000000000000000000000000000000000000000000000000000000000000000000000000000000000000903201700000000            000000000000000                              000                           
0010001300019T 020180230000002544776 29647040707251092   7               11032017000000000006000001035041                         0900000000000010000000000000000000000000000000000000000   0000000000000000000000000A9        170192964704     
0010001300020U 020000000000000000000000000000000000000000000000000000000000000000000000000000000000000000000000000000000000000000000000000903201700000000            000000000000000                              000                           
0010001300021T 020180230000002544776 29647040726331522   7               11032017000000000006000001016179                         0900000000000010000000000000000000000000000000000000000   0000000000000000000000000A9        170192964704     
0010001300022U 020000000000000000000000000000000000000000000000000000000000000000000000000000000000000000000000000000000000000000000000000903201700000000            000000000000000                              000                           
0010001300023T 020180230000002544776 29647040749918380   7               11032017000000000006000001024376                         0900000000000010000000000000000000000000000000000000000   0000000000000000000000000A9        170192964704     
0010001300024U 020000000000000000000000000000000000000000000000000000000000000000000000000000000000000000000000000000000000000000000000000903201700000000            000000000000000                              000                           
0010001300025T 020180230000002544776 29647040761221589   7               11032017000000000006000001006211                         0900000000000010000000000000000000000000000000000000000   0000000000000000000000000A9        170192964704     
0010001300026U 020000000000000000000000000000000000000000000000000000000000000000000000000000000000000000000000000000000000000000000000000903201700000000            000000000000000                              000                           
0010001300027T 020180230000002544776 29647040781122055   7               11032017000000000006000001028029                         0900000000000010000000000000000000000000000000000000000   0000000000000000000000000A9        170192964704     
0010001300028U 020000000000000000000000000000000000000000000000000000000000000000000000000000000000000000000000000000000000000000000000000903201700000000            000000000000000                              000                           
0010001300029T 020180230000002544776 29647040793112802   7               11032017000000000008000001028029                         0900000000000010000000000000000000000000000000000000000   0000000000000000000000000A9        170192964704     
0010001300030U 020000000000000000000000000000000000000000000000000000000000000000000000000000000000000000000000000000000000000000000000000903201700000000            000000000000000                              000                           
0010001300031T 020180230000002544776 29647040807040323   7               11032017000000000006000001022748                         0900000000000010000000000000000000000000000000000000000   0000000000000000000000000A9        170192964704     
0010001300032U 020000000000000000000000000000000000000000000000000000000000000000000000000000000000000000000000000000000000000000000000000903201700000000            000000000000000                              000                           
0010001300033T 020180230000002544776 29647040808139007   7               11032017000000000006000001000132                         0900000000000010000000000000000000000000000000000000000   0000000000000000000000000A9        170192964704     
0010001300034U 020000000000000000000000000000000000000000000000000000000000000000000000000000000000000000000000000000000000000000000000000903201700000000            000000000000000                              000                           
0010001300035T 020180230000002544776 29647040843541557   7               11032017000000000006000001008214                         0900000000000010000000000000000000000000000000000000000   0000000000000000000000000A9        170192964704     
0010001300036U 020000000000000000000000000000000000000000000000000000000000000000000000000000000000000000000000000000000000000000000000000903201700000000            000000000000000                              000                           
0010001300037T 020180230000002544776 29647040847307497   7               11032017000000000006000001000132                         0900000000000010000000000000000000000000000000000000000   0000000000000000000000000A9        170192964704     
0010001300038U 020000000000000000000000000000000000000000000000000000000000000000000000000000000000000000000000000000000000000000000000000903201700000000            000000000000000                              000                           
0010001300039T 020180230000002544776 29647040855226529   7               11032017000000000008000001011193                         0900000000000010000000000000000000000000000000000000000   0000000000000000000000000A9        170192964704     
0010001300040U 020000000000000000000000000000000000000000000000000000000000000000000000000000000000000000000000000000000000000000000000000903201700000000            000000000000000                              000                           
0010001300041T 020180230000002544776 29647040861133708   7               11032017000000000006000001020478                         0900000000000010500000000000000000000000000000000000000   0000000000000000000000000A9A4      170192964704     
0010001300042U 020000000000000000000000000000000000000000000000000000000000000000000000000000000000000000000000000000000000000000000000000903201700000000            000000000000000                              000                           
0010001300043T 020180230000002544776 29647040861443907   7               11032017000000000006000001028029                         0900000000000010000000000000000000000000000000000000000   0000000000000000000000000A9        170192964704     
0010001300044U 020000000000000000000000000000000000000000000000000000000000000000000000000000000000000000000000000000000000000000000000000903201700000000            000000000000000                              000                           
0010001300045T 020180230000002544776 29647040866635717   7               11032017000000000006000001016179                         0900000000000010000000000000000000000000000000000000000   0000000000000000000000000A9        170192964704     
0010001300046U 020000000000000000000000000000000000000000000000000000000000000000000000000000000000000000000000000000000000000000000000000903201700000000            000000000000000                              000                           
0010001300047T 020180230000002544776 29647040870140346   7               11032017000000000006000001007218                         0900000000000010000000000000000000000000000000000000000   0000000000000000000000000A9        170192964704     
0010001300048U 020000000000000000000000000000000000000000000000000000000000000000000000000000000000000000000000000000000000000000000000000903201700000000            000000000000000                              000                           
0010001300049T 020180230000002544776 29647040870143769   7               11032017000000000006000001007218                         0900000000000010000000000000000000000000000000000000000   0000000000000000000000000A9        170192964704     
0010001300050U 020000000000000000000000000000000000000000000000000000000000000000000000000000000000000000000000000000000000000000000000000903201700000000            000000000000000                              000                           
0010001300051T 020180230000002544776 29647040890010672   7               11032017000000000006000001016179                         0900000000000010000000000000000000000000000000000000000   0000000000000000000000000A9        170192964704     
0010001300052U 020000000000000000000000000000000000000000000000000000000000000000000000000000000000000000000000000000000000000000000000000903201700000000            000000000000000                              000                           
0010001300053T 020180230000002544776 29647040898213587   7               11032017000000000006000001016179                         0900000000000010000000000000000000000000000000000000000   0000000000000000000000000A9        170192964704     
0010001300054U 020000000000000000000000000000000000000000000000000000000000000000000000000000000000000000000000000000000000000000000000000903201700000000            000000000000000                              000                           
0010001300055T 020180230000002544776 29647040906721782   7               11032017000000000006000001040363                         0900000000000010000000000000000000000000000000000000000   0000000000000000000000000A9        170192964704     
0010001300056U 020000000000000000000000000000000000000000000000000000000000000000000000000000000000000000000000000000000000000000000000000903201700000000            000000000000000                              000                           
0010001300057T 020180230000002544776 29647040906724301   7               11032017000000000006000001040363                         0900000000000010000000000000000000000000000000000000000   0000000000000000000000000A9        170192964704     
0010001300058U 020000000000000000000000000000000000000000000000000000000000000000000000000000000000000000000000000000000000000000000000000903201700000000            000000000000000                              000                           
0010001300059T 020180230000002544776 29647040932619600   7               11032017000000000006000001016179                         0900000000000010000000000000000000000000000000000000000   0000000000000000000000000A9        170192964704     
0010001300060U 020000000000000000000000000000000000000000000000000000000000000000000000000000000000000000000000000000000000000000000000000903201700000000            000000000000000                              000                           
0010001300061T 020180230000002544776 29647040936315856   7               11032017000000000006000001002933                         0900000000000010000000000000000000000000000000000000000   0000000000000000000000000A9        170192964704     
0010001300062U 020000000000000000000000000000000000000000000000000000000000000000000000000000000000000000000000000000000000000000000000000903201700000000            000000000000000                              000                           
0010001300063T 020180230000002544776 29647040937032514   7               1103201700000000000600000102371X                         0900000000000010000000000000000000000000000000000000000   0000000000000000000000000A9        170192964704     
0010001300064U 020000000000000000000000000000000000000000000000000000000000000000000000000000000000000000000000000000000000000000000000000903201700000000            000000000000000                              000                           
0010001300065T 020180230000002544776 29647040937200624   7               11032017000000000006000001018376                         0900000000000010000000000000000000000000000000000000000   0000000000000000000000000A9        170192964704     
0010001300066U 020000000000000000000000000000000000000000000000000000000000000000000000000000000000000000000000000000000000000000000000000903201700000000            000000000000000                              000                           
0010001300067T 020180230000002544776 29647040947350876   7               11032017000000000006000001003611                         0900000000000010000000000000000000000000000000000000000   0000000000000000000000000A9        170192964704     
0010001300068U 020000000000000000000000000000000000000000000000000000000000000000000000000000000000000000000000000000000000000000000000000903201700000000            000000000000000                              000                           
0010001300069T 020180230000002544776 29647040951208105   7               11032017000000000006000001026832                         0900000000000010000000000000000000000000000000000000000   0000000000000000000000000A9        170192964704     
0010001300070U 020000000000000000000000000000000000000000000000000000000000000000000000000000000000000000000000000000000000000000000000000903201700000000            000000000000000                              000                           
0010001300071T 020180230000002544776 29647040976936082   7               11032017000000000008000001028029                         0900000000000010000000000000000000000000000000000000000   0000000000000000000000000A9        170192964704     
0010001300072U 020000000000000000000000000000000000000000000000000000000000000000000000000000000000000000000000000000000000000000000000000903201700000000            000000000000000                              000                           
0010001300073T 020180230000002544776 29647040985654226   7               11032017000000000006000001000132                         0900000000000010000000000000000000000000000000000000000   0000000000000000000000000A9        170192964704     
0010001300074U 020000000000000000000000000000000000000000000000000000000000000000000000000000000000000000000000000000000000000000000000000903201700000000            000000000000000                              000                           
0010001300075T 020180230000002544776 29647040987228896   7               11032017000000000006000001000132                         0900000000000010000000000000000000000000000000000000000   0000000000000000000000000A9        170192964704     
0010001300076U 020000000000000000000000000000000000000000000000000000000000000000000000000000000000000000000000000000000000000000000000000903201700000000            000000000000000                              000                           
0010001300077T 020180230000002544776 29647040990528072   7               11032017000000000006000001028029                         0900000000000010000000000000000000000000000000000000000   0000000000000000000000000A9        170192964704     
0010001300078U 020000000000000000000000000000000000000000000000000000000000000000000000000000000000000000000000000000000000000000000000000903201700000000            000000000000000                              000                           
0010001300079T 020180230000002544776 29647041005631863   7               11032017000000000006000001033316                         0900000000000010000000000000000000000000000000000000000   0000000000000000000000000A9        170192964704     
0010001300080U 020000000000000000000000000000000000000000000000000000000000000000000000000000000000000000000000000000000000000000000000000903201700000000            000000000000000                              000                           
0010001300081T 020180230000002544776 29647041012850563   7               11032017000000000008000001012467                         0900000000000010000000000000000000000000000000000000000   0000000000000000000000000A9        170192964704     
0010001300082U 020000000000000000000000000000000000000000000000000000000000000000000000000000000000000000000000000000000000000000000000000903201700000000            000000000000000                              000                           
0010001300083T 020180230000002544776 29647041012941277   7               11032017000000000008000001012467                         0900000000000010000000000000000000000000000000000000000   0000000000000000000000000A9        170192964704     
0010001300084U 020000000000000000000000000000000000000000000000000000000000000000000000000000000000000000000000000000000000000000000000000903201700000000            000000000000000                              000                           
0010001300085T 020180230000002544776 29647041042625007   7               11032017000000000006000001008311                         0900000000000010000000000000000000000000000000000000000   0000000000000000000000000A9        170192964704     
0010001300086U 020000000000000000000000000000000000000000000000000000000000000000000000000000000000000000000000000000000000000000000000000903201700000000            000000000000000                              000                           
0010001300087T 020180230000002544776 29647041049142507   7               11032017000000000006000001016179                         0900000000000010000000000000000000000000000000000000000   0000000000000000000000000A9        170192964704     
0010001300088U 020000000000000000000000000000000000000000000000000000000000000000000000000000000000000000000000000000000000000000000000000903201700000000            000000000000000                              000                           
0010001300089T 020180230000002544776 29647041076047439   7               11032017000000000006000001000132                         0900000000000010000000000000000000000000000000000000000   0000000000000000000000000A9        170192964704     
0010001300090U 020000000000000000000000000000000000000000000000000000000000000000000000000000000000000000000000000000000000000000000000000903201700000000            000000000000000                              000                           
0010001300091T 020180230000002544776 29647041078108089   7               11032017000000000006000001028029                         0900000000000010000000000000000000000000000000000000000   0000000000000000000000000A9        170192964704     
0010001300092U 020000000000000000000000000000000000000000000000000000000000000000000000000000000000000000000000000000000000000000000000000903201700000000            000000000000000                              000                           
0010001300093T 020180230000002544776 29647041081334991   7               11032017000000000006000001016179                         0900000000000010000000000000000000000000000000000000000   0000000000000000000000000A9        170192964704     
0010001300094U 020000000000000000000000000000000000000000000000000000000000000000000000000000000000000000000000000000000000000000000000000903201700000000            000000000000000                              000                           
0010001300095T 020180230000002544776 29647041090445792   7               11032017000000000006000001006734                         0900000000000010000000000000000000000000000000000000000   0000000000000000000000000A9        170192964704     
0010001300096U 020000000000000000000000000000000000000000000000000000000000000000000000000000000000000000000000000000000000000000000000000903201700000000            000000000000000                              000                           
0010001300097T 020180230000002544776 29647041097303107   7               11032017000000000008000001025429                         0900000000000010000000000000000000000000000000000000000   0000000000000000000000000A9        170192964704     
0010001300098U 020000000000000000000000000000000000000000000000000000000000000000000000000000000000000000000000000000000000000000000000000903201700000000            000000000000000                              000                           
0010001300099T 020180230000002544776 29647041102759892   7               11032017000000000006000001028029                         0900000000000010000000000000000000000000000000000000000   0000000000000000000000000A9        170192964704     
0010001300100U 020000000000000000000000000000000000000000000000000000000000000000000000000000000000000000000000000000000000000000000000000903201700000000            000000000000000                              000                           
0010001300101T 020180230000002544776 29647041118048098   7               11032017000000000006000001028029                         0900000000000010000000000000000000000000000000000000000   0000000000000000000000000A9        170192964704     
0010001300102U 020000000000000000000000000000000000000000000000000000000000000000000000000000000000000000000000000000000000000000000000000903201700000000            000000000000000                              000                           
0010001300103T 020180230000002544776 29647041118446370   7               11032017000000000006000001005703                         0900000000000010000000000000000000000000000000000000000   0000000000000000000000000A9        170192964704     
0010001300104U 020000000000000000000000000000000000000000000000000000000000000000000000000000000000000000000000000000000000000000000000000903201700000000            000000000000000                              000                           
0010001300105T 020180230000002544776 29647041130530976   7               11032017000000000006000001018376                         0900000000000010000000000000000000000000000000000000000   0000000000000000000000000A9        170192964704     
0010001300106U 020000000000000000000000000000000000000000000000000000000000000000000000000000000000000000000000000000000000000000000000000903201700000000            000000000000000                              000                           
0010001300107T 020180230000002544776 29647041134655478   7               11032017000000000008000001012467                         0900000000000010000000000000000000000000000000000000000   0000000000000000000000000A9        170192964704     
0010001300108U 020000000000000000000000000000000000000000000000000000000000000000000000000000000000000000000000000000000000000000000000000903201700000000            000000000000000                              000                           
0010001300109T 020180230000002544776 29647041135816066   7               10032017000000000006000001000132                         0900000000000010000000000000000000000000000000000000000   0000000000000000000000000A9        170192964704     
0010001300110U 020000000000000000000000000000000000000000000000000000000000000000000000000000000000000000000000000000000000000000000000000803201700000000            000000000000000                              000                           
0010001300111T 020180230000002544776 29647041135933970   7               10032017000000000006000001020354                         0900000000000010000000000000000000000000000000000000000   0000000000000000000000000A9        170192964704     
0010001300112U 020000000000000000000000000000000000000000000000000000000000000000000000000000000000000000000000000000000000000000000000000803201700000000            000000000000000                              000                           
0010001300113T 020180230000002544776 29647041136026810   7               10032017000000000006000001014214                         0900000000000010000000000000000000000000000000000000000   0000000000000000000000000A9        170192964704     
0010001300114U 020000000000000000000000000000000000000000000000000000000000000000000000000000000000000000000000000000000000000000000000000803201700000000            000000000000000                              000                           
0010001300115T 020180230000002544776 29647041136101765   7               10032017000000000006000001023655                         0900000000000010000000000000000000000000000000000000000   0000000000000000000000000A9        170192964704     
0010001300116U 020000000000000000000000000000000000000000000000000000000000000000000000000000000000000000000000000000000000000000000000000803201700000000            000000000000000                              000                           
0010001300117T 020180230000002544776 29647041136124792   7               10032017000000000006000001023655                         0900000000000010000000000000000000000000000000000000000   0000000000000000000000000A9        170192964704     
0010001300118U 020000000000000000000000000000000000000000000000000000000000000000000000000000000000000000000000000000000000000000000000000803201700000000            000000000000000                              000                           
0010001300119T 020180230000002544776 29647041136407105   7               10032017000000000006000001007102                         0900000000000010000000000000000000000000000000000000000   0000000000000000000000000A9        170192964704     
0010001300120U 020000000000000000000000000000000000000000000000000000000000000000000000000000000000000000000000000000000000000000000000000803201700000000            000000000000000                              000                           
0010001300121T 020180230000002544776 29647041136449534   7               10032017000000000006000001007102                         0900000000000010000000000000000000000000000000000000000   0000000000000000000000000A9        170192964704     
0010001300122U 020000000000000000000000000000000000000000000000000000000000000000000000000000000000000000000000000000000000000000000000000803201700000000            000000000000000                              000                           
0010001300123T 020180230000002544776 29647041136541259   7               10032017000000000006000001011371                         0900000000000010000000000000000000000000000000000000000   0000000000000000000000000A9        170192964704     
0010001300124U 020000000000000000000000000000000000000000000000000000000000000000000000000000000000000000000000000000000000000000000000000803201700000000            000000000000000                              000                           
0010001300125T 020180230000002544776 29647041136619847   7               10032017000000000006000001016179                         0900000000000010000000000000000000000000000000000000000   0000000000000000000000000A9        170192964704     
0010001300126U 020000000000000000000000000000000000000000000000000000000000000000000000000000000000000000000000000000000000000000000000000803201700000000            000000000000000                              000                           
0010001300127T 020180230000002544776 29647041136746691   7               10032017000000000006000001002283                         0900000000000010000000000000000000000000000000000000000   0000000000000000000000000A9        170192964704     
0010001300128U 020000000000000000000000000000000000000000000000000000000000000000000000000000000000000000000000000000000000000000000000000803201700000000            000000000000000                              000                           
0010001300129T 020180230000002544776 29647041136843122   7               10032017000000000006000001028029                         0900000000000010000000000000000000000000000000000000000   0000000000000000000000000A9        170192964704     
0010001300130U 020000000000000000000000000000000000000000000000000000000000000000000000000000000000000000000000000000000000000000000000000803201700000000            000000000000000                              000                           
0010001300131T 020180230000002544776 29647041137035842   7               11032017000000000006000001028029                         0900000000000010000000000000000000000000000000000000000   0000000000000000000000000A9        170192964704     
0010001300132U 020000000000000000000000000000000000000000000000000000000000000000000000000000000000000000000000000000000000000000000000000903201700000000            000000000000000                              000                           
0010001300133T 020180230000002544776 29647041137104743   7               11032017000000000006000001000132                         0900000000000010500000000000000000000000000000000000000   0000000000000000000000000A9A4      170192964704     
0010001300134U 020000000000000000000000000000000000000000000000000000000000000000000000000000000000000000000000000000000000000000000000000903201700000000            000000000000000                              000                           
0010001300135T 020180230000002544776 29647041137149487   7               11032017000000000006000001000132                         0900000000000010500000000000000000000000000000000000000   0000000000000000000000000A9A4      170192964704     
0010001300136U 020000000000000000000000000000000000000000000000000000000000000000000000000000000000000000000000000000000000000000000000000903201700000000            000000000000000                              000                           
0010001300137T 020180230000002544776 29647041137210954   7               11032017000000000006000001028029                         0900000000000010000000000000000000000000000000000000000   0000000000000000000000000A9        170192964704     
0010001300138U 020000000000000000000000000000000000000000000000000000000000000000000000000000000000000000000000000000000000000000000000000903201700000000            000000000000000                              000                           
0010001300139T 020180230000002544776 29647041137356837   7               11032017000000000006000001028029                         0900000000000010000000000000000000000000000000000000000   0000000000000000000000000A9        170192964704     
0010001300140U 020000000000000000000000000000000000000000000000000000000000000000000000000000000000000000000000000000000000000000000000000903201700000000            000000000000000                              000                           
0010001300141T 020180230000002544776 29647041137358561   7               11032017000000000006000001028029                         0900000000000010000000000000000000000000000000000000000   0000000000000000000000000A9        170192964704     
0010001300142U 020000000000000000000000000000000000000000000000000000000000000000000000000000000000000000000000000000000000000000000000000903201700000000            000000000000000                              000                           
0010001300143T 020180230000002544776 29647041137455796   7               11032017000000000006000001012467                         0900000000000010500000000000000000000000000000000000000   0000000000000000000000000A9A4      170192964704     
0010001300144U 020000000000000000000000000000000000000000000000000000000000000000000000000000000000000000000000000000000000000000000000000903201700000000            000000000000000                              000                           
0010001300145T 020180230000002544776 29647041137516868   7               11032017000000000006000001012467                         0900000000000010000000000000000000000000000000000000000   0000000000000000000000000A9        170192964704     
0010001300146U 020000000000000000000000000000000000000000000000000000000000000000000000000000000000000000000000000000000000000000000000000903201700000000            000000000000000                              000                           
0010001300147T 020180230000002544776 29647041137625822   7               11032017000000000006000001028029                         0900000000000010000000000000000000000000000000000000000   0000000000000000000000000A9        170192964704     
0010001300148U 020000000000000000000000000000000000000000000000000000000000000000000000000000000000000000000000000000000000000000000000000903201700000000            000000000000000                              000                           
0010001300149T 020180230000002544776 29647041137628084   7               11032017000000000006000001028029                         0900000000000010000000000000000000000000000000000000000   0000000000000000000000000A9        170192964704     
0010001300150U 020000000000000000000000000000000000000000000000000000000000000000000000000000000000000000000000000000000000000000000000000903201700000000            000000000000000                              000                           
0010001300151T 020180230000002544776 29647041137641214   7               11032017000000000006000001028029                         0900000000000010000000000000000000000000000000000000000   0000000000000000000000000A9        170192964704     
0010001300152U 020000000000000000000000000000000000000000000000000000000000000000000000000000000000000000000000000000000000000000000000000903201700000000            000000000000000                              000                           
0010001300153T 020180230000002544776 29647041137643246   7               11032017000000000006000001028029                         0900000000000010000000000000000000000000000000000000000   0000000000000000000000000A9        170192964704     
0010001300154U 020000000000000000000000000000000000000000000000000000000000000000000000000000000000000000000000000000000000000000000000000903201700000000            000000000000000                              000                           
0010001300155T 020180230000002544776 29647041137743713   7               11032017000000000006000001012467                         0900000000000010000000000000000000000000000000000000000   0000000000000000000000000A9        170192964704     
0010001300156U 020000000000000000000000000000000000000000000000000000000000000000000000000000000000000000000000000000000000000000000000000903201700000000            000000000000000                              000                           
0010001300157T 020180230000002544776 29647041137828785   7               11032017000000000006000001023655                         0900000000000010000000000000000000000000000000000000000   0000000000000000000000000A9        170192964704     
0010001300158U 020000000000000000000000000000000000000000000000000000000000000000000000000000000000000000000000000000000000000000000000000903201700000000            000000000000000                              000                           
0010001300159T 020180230000002544776 29647041137830936   7               11032017000000000006000001023655                         0900000000000010000000000000000000000000000000000000000   0000000000000000000000000A9        170192964704     
0010001300160U 020000000000000000000000000000000000000000000000000000000000000000000000000000000000000000000000000000000000000000000000000903201700000000            000000000000000                              000                           
0010001300161T 020180230000002544776 29647041137835428   7               11032017000000000006000001023655                         0900000000000010000000000000000000000000000000000000000   0000000000000000000000000A9        170192964704     
0010001300162U 020000000000000000000000000000000000000000000000000000000000000000000000000000000000000000000000000000000000000000000000000903201700000000            000000000000000                              000                           
0010001300163T 020180230000002544776 29647041137840288   7               11032017000000000006000001023655                         0900000000000010000000000000000000000000000000000000000   0000000000000000000000000A9        170192964704     
0010001300164U 020000000000000000000000000000000000000000000000000000000000000000000000000000000000000000000000000000000000000000000000000903201700000000            000000000000000                              000                           
0010001300165T 020180230000002544776 29647041137847798   7               11032017000000000006000001023655                         0900000000000010000000000000000000000000000000000000000   0000000000000000000000000A9        170192964704     
0010001300166U 020000000000000000000000000000000000000000000000000000000000000000000000000000000000000000000000000000000000000000000000000903201700000000            000000000000000                              000                           
0010001300167T 020180230000002544776 29647041137947105   7               11032017000000000006000001033316                         0900000000000010000000000000000000000000000000000000000   0000000000000000000000000A9        170192964704     
0010001300168U 020000000000000000000000000000000000000000000000000000000000000000000000000000000000000000000000000000000000000000000000000903201700000000            000000000000000                              000                           
0010001300169T 020180230000002544776 29647041138047902   7               11032017000000000006000001023655                         0900000000000010000000000000000000000000000000000000000   0000000000000000000000000A9        170192964704     
0010001300170U 020000000000000000000000000000000000000000000000000000000000000000000000000000000000000000000000000000000000000000000000000903201700000000            000000000000000                              000                           
0010001300171T 020180230000002544776 29647041138152884   7               11032017000000000006000001016179                         0900000000000010500000000000000000000000000000000000000   0000000000000000000000000A9A4      170192964704     
0010001300172U 020000000000000000000000000000000000000000000000000000000000000000000000000000000000000000000000000000000000000000000000000903201700000000            000000000000000                              000                           
0010001300173T 020180230000002544776 29647041138252949   7               11032017000000000006000001013617                         0900000000000010000000000000000000000000000000000000000   0000000000000000000000000A9        170192964704     
0010001300174U 020000000000000000000000000000000000000000000000000000000000000000000000000000000000000000000000000000000000000000000000000903201700000000            000000000000000                              000                           
0010001300175T 020180230000002544776 29647041138341056   7               11032017000000000006000001001155                         0900000000000010000000000000000000000000000000000000000   0000000000000000000000000A9        170192964704     
0010001300176U 020000000000000000000000000000000000000000000000000000000000000000000000000000000000000000000000000000000000000000000000000903201700000000            000000000000000                              000                           
0010001300177T 020180230000002544776 29647041138442158   7               11032017000000000008000001000361                         0900000000000010000000000000000000000000000000000000000   0000000000000000000000000A9        170192964704     
0010001300178U 020000000000000000000000000000000000000000000000000000000000000000000000000000000000000000000000000000000000000000000000000903201700000000            000000000000000                              000                           
0010001300179T 020180230000002544776 29647041138529728   7               11032017000000000006000001000361                         0900000000000010000000000000000000000000000000000000000   0000000000000000000000000A9        170192964704     
0010001300180U 020000000000000000000000000000000000000000000000000000000000000000000000000000000000000000000000000000000000000000000000000903201700000000            000000000000000                              000                           
0010001300181T 020180230000002544776 29647041138654742   7               11032017000000000006000001012467                         0900000000000010000000000000000000000000000000000000000   0000000000000000000000000A9        170192964704     
0010001300182U 020000000000000000000000000000000000000000000000000000000000000000000000000000000000000000000000000000000000000000000000000903201700000000            000000000000000                              000                           
0010001300183T 020180230000002544776 29647041138720598   7               11032017000000000006000001028029                         0900000000000010000000000000000000000000000000000000000   0000000000000000000000000A9        170192964704     
0010001300184U 020000000000000000000000000000000000000000000000000000000000000000000000000000000000000000000000000000000000000000000000000903201700000000            000000000000000                              000                           
0010001300185T 020180230000002544776 29647041138907126   7               11032017000000000006000001008214                         0900000000000010000000000000000000000000000000000000000   0000000000000000000000000A9        170192964704     
0010001300186U 020000000000000000000000000000000000000000000000000000000000000000000000000000000000000000000000000000000000000000000000000903201700000000            000000000000000                              000                           
0010001300187T 020180230000002544776 29647041139107955   7               11032017000000000006000001008214                         0900000000000010000000000000000000000000000000000000000   0000000000000000000000000A9        170192964704     
0010001300188U 020000000000000000000000000000000000000000000000000000000000000000000000000000000000000000000000000000000000000000000000000903201700000000            000000000000000                              000                           
0010001300189T 020180230000002544776 29647041139225827   7               1103201700000000000600000100233X                         0900000000000010000000000000000000000000000000000000000   0000000000000000000000000A9        170192964704     
0010001300190U 020000000000000000000000000000000000000000000000000000000000000000000000000000000000000000000000000000000000000000000000000903201700000000            000000000000000                              000                           
0010001300191T 020180230000002544776 29647041139359369   7               11032017000000000006000001033316                         0900000000000010000000000000000000000000000000000000000   0000000000000000000000000A9        170192964704     
0010001300192U 020000000000000000000000000000000000000000000000000000000000000000000000000000000000000000000000000000000000000000000000000903201700000000            000000000000000                              000                           
0010001300193T 020180230000002544776 29647041139534111   7               11032017000000000006000001035041                         0900000000000010000000000000000000000000000000000000000   0000000000000000000000000A9        170192964704     
0010001300194U 020000000000000000000000000000000000000000000000000000000000000000000000000000000000000000000000000000000000000000000000000903201700000000            000000000000000                              000                           
0010001300195T 020180230000002544776 29647041139633196   7               11032017000000000008000001028029                         0900000000000010500000000000000000000000000000000000000   0000000000000000000000000A9A4      170192964704     
0010001300196U 020000000000000000000000000000000000000000000000000000000000000000000000000000000000000000000000000000000000000000000000000903201700000000            000000000000000                              000                           
0010001300197T 020180230000002544776 29647041139719283   7               11032017000000000006000001035033                         0900000000000010000000000000000000000000000000000000000   0000000000000000000000000A9        170192964704     
0010001300198U 020000000000000000000000000000000000000000000000000000000000000000000000000000000000000000000000000000000000000000000000000903201700000000            000000000000000                              000                           
0010001300199T 020180230000002544776 29647041139750794   7               11032017000000000006000001035033                         0900000000000010000000000000000000000000000000000000000   0000000000000000000000000A9        170192964704     
0010001300200U 020000000000000000000000000000000000000000000000000000000000000000000000000000000000000000000000000000000000000000000000000903201700000000            000000000000000                              000                           
0010001300201T 020180230000002544776 29647041139814414   7               11032017000000000008000001022195                         0900000000000010000000000000000000000000000000000000000   0000000000000000000000000A9        170192964704     
0010001300202U 020000000000000000000000000000000000000000000000000000000000000000000000000000000000000000000000000000000000000000000000000903201700000000            000000000000000                              000                           
0010001300203T 020180230000002544776 29647041140102111   7               11032017000000000006000001000132                         0900000000000010000000000000000000000000000000000000000   0000000000000000000000000A9        170192964704     
0010001300204U 020000000000000000000000000000000000000000000000000000000000000000000000000000000000000000000000000000000000000000000000000903201700000000            000000000000000                              000                           
0010001300205T 020180230000002544776 29647041140208968   7               11032017000000000006000001033316                         0900000000000010000000000000000000000000000000000000000   0000000000000000000000000A9        170192964704     
0010001300206U 020000000000000000000000000000000000000000000000000000000000000000000000000000000000000000000000000000000000000000000000000903201700000000            000000000000000                              000                           
0010001300207T 020180230000002544776 29647041140252025   7               11032017000000000006000001033316                         0900000000000010000000000000000000000000000000000000000   0000000000000000000000000A9        170192964704     
0010001300208U 020000000000000000000000000000000000000000000000000000000000000000000000000000000000000000000000000000000000000000000000000903201700000000            000000000000000                              000                           
0010001300209T 020180230000002544776 29647041140336098   7               11032017000000000006000001012467                         0900000000000010000000000000000000000000000000000000000   0000000000000000000000000A9        170192964704     
0010001300210U 020000000000000000000000000000000000000000000000000000000000000000000000000000000000000000000000000000000000000000000000000903201700000000            000000000000000                              000                           
0010001300211T 020180230000002544776 29647041140406866   7               11032017000000000006000001028029                         0900000000000010000000000000000000000000000000000000000   0000000000000000000000000A9        170192964704     
0010001300212U 020000000000000000000000000000000000000000000000000000000000000000000000000000000000000000000000000000000000000000000000000903201700000000            000000000000000                              000                           
0010001300213T 020180230000002544776 29647041140505553   7               11032017000000000006000001023655                         0900000000000010000000000000000000000000000000000000000   0000000000000000000000000A9        170192964704     
0010001300214U 020000000000000000000000000000000000000000000000000000000000000000000000000000000000000000000000000000000000000000000000000903201700000000            000000000000000                              000                           
0010001300215T 020180230000002544776 29647041140631819   7               11032017000000000008000001007595                         0900000000000010000000000000000000000000000000000000000   0000000000000000000000000A9        170192964704     
0010001300216U 020000000000000000000000000000000000000000000000000000000000000000000000000000000000000000000000000000000000000000000000000903201700000000            000000000000000                              000                           
0010001300217T 020180230000002544776 29647041140735755   7               11032017000000000006000001012467                         0900000000000010500000000000000000000000000000000000000   0000000000000000000000000A9A4      170192964704     
0010001300218U 020000000000000000000000000000000000000000000000000000000000000000000000000000000000000000000000000000000000000000000000000903201700000000            000000000000000                              000                           
0010001300219T 020180230000002544776 29647041140835899   7               11032017000000000006000001016179                         0900000000000010000000000000000000000000000000000000000   0000000000000000000000000A9        170192964704     
0010001300220U 020000000000000000000000000000000000000000000000000000000000000000000000000000000000000000000000000000000000000000000000000903201700000000            000000000000000                              000                           
0010001300221T 020180230000002544776 29647041141001818   7               11032017000000000006000001007218                         0900000000000010500000000000000000000000000000000000000   0000000000000000000000000A9A4      170192964704     
0010001300222U 020000000000000000000000000000000000000000000000000000000000000000000000000000000000000000000000000000000000000000000000000903201700000000            000000000000000                              000                           
0010001300223T 020180230000002544776 29647041141114117   7               11032017000000000008000001014028                         0900000000000010500000000000000000000000000000000000000   0000000000000000000000000A9A4      170192964704     
0010001300224U 020000000000000000000000000000000000000000000000000000000000000000000000000000000000000000000000000000000000000000000000000903201700000000            000000000000000                              000                           
0010001300225T 020180230000002544776 29647041141134199   7               11032017000000000008000001014028                         0900000000000010500000000000000000000000000000000000000   0000000000000000000000000A9A4      170192964704     
0010001300226U 020000000000000000000000000000000000000000000000000000000000000000000000000000000000000000000000000000000000000000000000000903201700000000            000000000000000                              000                           
0010001300227T 020180230000002544776 29647041141244626   7               11032017000000000006000001008214                         0900000000000010000000000000000000000000000000000000000   0000000000000000000000000A9        170192964704     
0010001300228U 020000000000000000000000000000000000000000000000000000000000000000000000000000000000000000000000000000000000000000000000000903201700000000            000000000000000                              000                           
0010001300229T 020180230000002544776 29647041141347989   7               11032017000000000006000001020354                         0900000000000010000000000000000000000000000000000000000   0000000000000000000000000A9        170192964704     
0010001300230U 020000000000000000000000000000000000000000000000000000000000000000000000000000000000000000000000000000000000000000000000000903201700000000            000000000000000                              000                           
0010001300231T 020180230000002544776 29647041141418846   7               1103201700000000000600000102256X                         0900000000000010000000000000000000000000000000000000000   0000000000000000000000000A9        170192964704     
0010001300232U 020000000000000000000000000000000000000000000000000000000000000000000000000000000000000000000000000000000000000000000000000903201700000000            000000000000000                              000                           
0010001300233T 020180230000002544776 29647041141506470   7               11032017000000000006000001000132                         0900000000000010000000000000000000000000000000000000000   0000000000000000000000000A9        170192964704     
0010001300234U 020000000000000000000000000000000000000000000000000000000000000000000000000000000000000000000000000000000000000000000000000903201700000000            000000000000000                              000                           
0010001300235T 020180230000002544776 29647041141610330   7               11032017000000000006000001000132                         0900000000000010000000000000000000000000000000000000000   0000000000000000000000000A9        170192964704     
0010001300236U 020000000000000000000000000000000000000000000000000000000000000000000000000000000000000000000000000000000000000000000000000903201700000000            000000000000000                              000                           
0010001300237T 020180230000002544776 29647041141646175   7               11032017000000000006000001000132                         0900000000000010000000000000000000000000000000000000000   0000000000000000000000000A9        170192964704     
0010001300238U 020000000000000000000000000000000000000000000000000000000000000000000000000000000000000000000000000000000000000000000000000903201700000000            000000000000000                              000                           
0010001300239T 020180230000002544776 29647041141705879   7               11032017000000000006000001005428                         0900000000000010000000000000000000000000000000000000000   0000000000000000000000000A9        170192964704     
0010001300240U 020000000000000000000000000000000000000000000000000000000000000000000000000000000000000000000000000000000000000000000000000903201700000000            000000000000000                              000                           
0010001300241T 020180230000002544776 29647041141934663   7               11032017000000000006000001016179                         0900000000000010000000000000000000000000000000000000000   0000000000000000000000000A9        170192964704     
0010001300242U 020000000000000000000000000000000000000000000000000000000000000000000000000000000000000000000000000000000000000000000000000903201700000000            000000000000000                              000                           
0010001300243T 020180230000002544776 29647041142012838   7               11032017000000000006000001028029                         0900000000000010000000000000000000000000000000000000000   0000000000000000000000000A9        170192964704     
0010001300244U 020000000000000000000000000000000000000000000000000000000000000000000000000000000000000000000000000000000000000000000000000903201700000000            000000000000000                              000                           
0010001300245T 020180230000002544776 29647041142033007   7               11032017000000000006000001028029                         0900000000000010000000000000000000000000000000000000000   0000000000000000000000000A9        170192964704     
0010001300246U 020000000000000000000000000000000000000000000000000000000000000000000000000000000000000000000000000000000000000000000000000903201700000000            000000000000000                              000                           
0010001300247T 020180230000002544776 29647041142127186   7               11032017000000000006000001001597                         0900000000000010000000000000000000000000000000000000000   0000000000000000000000000A9        170192964704     
0010001300248U 020000000000000000000000000000000000000000000000000000000000000000000000000000000000000000000000000000000000000000000000000903201700000000            000000000000000                              000                           
0010001300249T 020180230000002544776 29647041142520960   7               11032017000000000006000001028029                         0900000000000010000000000000000000000000000000000000000   0000000000000000000000000A9        170192964704     
0010001300250U 020000000000000000000000000000000000000000000000000000000000000000000000000000000000000000000000000000000000000000000000000903201700000000            000000000000000                              000                           
0010001300251T 020180230000002544776 29647041142523840   7               11032017000000000006000001028029                         0900000000000010000000000000000000000000000000000000000   0000000000000000000000000A9        170192964704     
0010001300252U 020000000000000000000000000000000000000000000000000000000000000000000000000000000000000000000000000000000000000000000000000903201700000000            000000000000000                              000                           
0010001300253T 020180230000002544776 29647041142548070   7               11032017000000000006000001028029                         0900000000000010000000000000000000000000000000000000000   0000000000000000000000000A9        170192964704     
0010001300254U 020000000000000000000000000000000000000000000000000000000000000000000000000000000000000000000000000000000000000000000000000903201700000000            000000000000000                              000                           
0010001300255T 020180230000002544776 29647041142620089   7               11032017000000000006000001012912                         0900000000000010000000000000000000000000000000000000000   0000000000000000000000000A9        170192964704     
0010001300256U 020000000000000000000000000000000000000000000000000000000000000000000000000000000000000000000000000000000000000000000000000903201700000000            000000000000000                              000                           
0010001300257T 020180230000002544776 29647041142829967   7               11032017000000000008000001001597                         0900000000000010000000000000000000000000000000000000000   0000000000000000000000000A9        170192964704     
0010001300258U 020000000000000000000000000000000000000000000000000000000000000000000000000000000000000000000000000000000000000000000000000903201700000000            000000000000000                              000                           
0010001300259T 020180230000002544776 29647041142950657   7               11032017000000000006000001020354                         0900000000000010000000000000000000000000000000000000000   0000000000000000000000000A9        170192964704     
0010001300260U 020000000000000000000000000000000000000000000000000000000000000000000000000000000000000000000000000000000000000000000000000903201700000000            000000000000000                              000                           
0010001300261T 020180230000002544776 29647041143239614   7               11032017000000000008000001000205                         0900000000000010000000000000000000000000000000000000000   0000000000000000000000000A9        170192964704     
0010001300262U 020000000000000000000000000000000000000000000000000000000000000000000000000000000000000000000000000000000000000000000000000903201700000000            000000000000000                              000                           
0010001300263T 020180230000002544776 29647041143253831   7               11032017000000000008000001000205                         0900000000000010000000000000000000000000000000000000000   0000000000000000000000000A9        170192964704     
0010001300264U 020000000000000000000000000000000000000000000000000000000000000000000000000000000000000000000000000000000000000000000000000903201700000000            000000000000000                              000                           
0010001300265T 020180230000002544776 29647041143335794   7               11032017000000000006000001009636                         0900000000000010000000000000000000000000000000000000000   0000000000000000000000000A9        170192964704     
0010001300266U 020000000000000000000000000000000000000000000000000000000000000000000000000000000000000000000000000000000000000000000000000903201700000000            000000000000000                              000                           
0010001300267T 020180230000002544776 29647041143609835   7               11032017000000000006000001016179                         0900000000000010000000000000000000000000000000000000000   0000000000000000000000000A9        170192964704     
0010001300268U 020000000000000000000000000000000000000000000000000000000000000000000000000000000000000000000000000000000000000000000000000903201700000000            000000000000000                              000                           
0010001300269T 020180230000002544776 29647041143742482   7               11032017000000000008000001028029                         0900000000000010000000000000000000000000000000000000000   0000000000000000000000000A9        170192964704     
0010001300270U 020000000000000000000000000000000000000000000000000000000000000000000000000000000000000000000000000000000000000000000000000903201700000000            000000000000000                              000                           
0010001300271T 020180230000002544776 29647041143841410   7               1103201700000000000600000101138X                         0900000000000010000000000000000000000000000000000000000   0000000000000000000000000A9        170192964704     
0010001300272U 020000000000000000000000000000000000000000000000000000000000000000000000000000000000000000000000000000000000000000000000000903201700000000            000000000000000                              000                           
0010001300273T 020180230000002544776 29647041143958086   7               11032017000000000006000001000132                         0900000000000010000000000000000000000000000000000000000   0000000000000000000000000A9        170192964704     
0010001300274U 020000000000000000000000000000000000000000000000000000000000000000000000000000000000000000000000000000000000000000000000000903201700000000            000000000000000                              000                           
0010001300275T 020180230000002544776 29647041144028715   7               11032017000000000006000001028029                         0900000000000010000000000000000000000000000000000000000   0000000000000000000000000A9        170192964704     
0010001300276U 020000000000000000000000000000000000000000000000000000000000000000000000000000000000000000000000000000000000000000000000000903201700000000            000000000000000                              000                           
0010001300277T 020180230000002544776 29647041144435810   7               11032017000000000006000001016179                         0900000000000010000000000000000000000000000000000000000   0000000000000000000000000A9        170192964704     
0010001300278U 020000000000000000000000000000000000000000000000000000000000000000000000000000000000000000000000000000000000000000000000000903201700000000            000000000000000                              000                           
0010001300279T 020180230000002544776 29647041144551000   7               11032017000000000006000001020354                         0900000000000010000000000000000000000000000000000000000   0000000000000000000000000A9        170192964704     
0010001300280U 020000000000000000000000000000000000000000000000000000000000000000000000000000000000000000000000000000000000000000000000000903201700000000            000000000000000                              000                           
0010001300281T 020180230000002544776 29647041144601783   7               11032017000000000006000001028495                         0900000000000010000000000000000000000000000000000000000   0000000000000000000000000A9        170192964704     
0010001300282U 020000000000000000000000000000000000000000000000000000000000000000000000000000000000000000000000000000000000000000000000000903201700000000            000000000000000                              000                           
0010001300283T 020180230000002544776 29647041144816263   7               11032017000000000006000001020354                         0900000000000010000000000000000000000000000000000000000   0000000000000000000000000A9        170192964704     
0010001300284U 020000000000000000000000000000000000000000000000000000000000000000000000000000000000000000000000000000000000000000000000000903201700000000            000000000000000                              000                           
0010001300285T 020180230000002544776 29647041144946673   7               11032017000000000006000001033316                         0900000000000010000000000000000000000000000000000000000   0000000000000000000000000A9        170192964704     
0010001300286U 020000000000000000000000000000000000000000000000000000000000000000000000000000000000000000000000000000000000000000000000000903201700000000            000000000000000                              000                           
0010001300287T 020180230000002544776 29647041145022033   7               11032017000000000006000001012467                         0900000000000010500000000000000000000000000000000000000   0000000000000000000000000A9A4      170192964704     
0010001300288U 020000000000000000000000000000000000000000000000000000000000000000000000000000000000000000000000000000000000000000000000000903201700000000            000000000000000                              000                           
0010001300289T 020180230000002544776 29647041145032537   7               11032017000000000006000001012467                         0900000000000010500000000000000000000000000000000000000   0000000000000000000000000A9A4      170192964704     
0010001300290U 020000000000000000000000000000000000000000000000000000000000000000000000000000000000000000000000000000000000000000000000000903201700000000            000000000000000                              000                           
0010001300291T 020180230000002544776 29647041145222745   7               11032017000000000006000001012467                         0900000000000010000000000000000000000000000000000000000   0000000000000000000000000A9        170192964704     
0010001300292U 020000000000000000000000000000000000000000000000000000000000000000000000000000000000000000000000000000000000000000000000000903201700000000            000000000000000                              000                           
0010001300293T 020180230000002544776 29647041145411669   7               11032017000000000006000001016179                         0900000000000010000000000000000000000000000000000000000   0000000000000000000000000A9        170192964704     
0010001300294U 020000000000000000000000000000000000000000000000000000000000000000000000000000000000000000000000000000000000000000000000000903201700000000            000000000000000                              000                           
0010001300295T 020180230000002544776 29647041145823661   7               1103201700000000000600000101981X                         0900000000000010000000000000000000000000000000000000000   0000000000000000000000000A9        170192964704     
0010001300296U 020000000000000000000000000000000000000000000000000000000000000000000000000000000000000000000000000000000000000000000000000903201700000000            000000000000000                              000                           
0010001300297T 020180230000002544776 29647041145851203   7               1103201700000000000600000101981X                         0900000000000010000000000000000000000000000000000000000   0000000000000000000000000A9        170192964704     
0010001300298U 020000000000000000000000000000000000000000000000000000000000000000000000000000000000000000000000000000000000000000000000000903201700000000            000000000000000                              000                           
0010001300299T 020180230000002544776 29647041145909088   7               11032017000000000008000001003913                         0900000000000010000000000000000000000000000000000000000   0000000000000000000000000A9        170192964704     
0010001300300U 020000000000000000000000000000000000000000000000000000000000000000000000000000000000000000000000000000000000000000000000000903201700000000            000000000000000                              000                           
0010001300301T 020180230000002544776 29647041146031162   7               11032017000000000006000001016179                         0900000000000010000000000000000000000000000000000000000   0000000000000000000000000A9        170192964704     
0010001300302U 020000000000000000000000000000000000000000000000000000000000000000000000000000000000000000000000000000000000000000000000000903201700000000            000000000000000                              000                           
0010001300303T 020180230000002544776 29647041146151017   7               11032017000000000006000001028029                         0900000000000010000000000000000000000000000000000000000   0000000000000000000000000A9        170192964704     
0010001300304U 020000000000000000000000000000000000000000000000000000000000000000000000000000000000000000000000000000000000000000000000000903201700000000            000000000000000                              000                           
0010001300305T 020180230000002544776 29647041146302539   7               11032017000000000008000001028029                         0900000000000010000000000000000000000000000000000000000   0000000000000000000000000A9        170192964704     
0010001300306U 020000000000000000000000000000000000000000000000000000000000000000000000000000000000000000000000000000000000000000000000000903201700000000            000000000000000                              000                           
0010001300307T 020180230000002544776 29647041146526809   7               11032017000000000006000001002003                         0900000000000010000000000000000000000000000000000000000   0000000000000000000000000A9        170192964704     
0010001300308U 020000000000000000000000000000000000000000000000000000000000000000000000000000000000000000000000000000000000000000000000000903201700000000            000000000000000                              000                           
0010001300309T 020180230000002544776 29647041146618257   7               11032017000000000006000001016810                         0900000000000010000000000000000000000000000000000000000   0000000000000000000000000A9        170192964704     
0010001300310U 020000000000000000000000000000000000000000000000000000000000000000000000000000000000000000000000000000000000000000000000000903201700000000            000000000000000                              000                           
0010001300311T 020180230000002544776 29647041146704038   7               11032017000000000008000001016179                         0900000000000010000000000000000000000000000000000000000   0000000000000000000000000A9        170192964704     
0010001300312U 020000000000000000000000000000000000000000000000000000000000000000000000000000000000000000000000000000000000000000000000000903201700000000            000000000000000                              000                           
0010001300313T 020180230000002544776 29647041146919276   7               11032017000000000006000001028029                         0900000000000010500000000000000000000000000000000000000   0000000000000000000000000A9A4      170192964704     
0010001300314U 020000000000000000000000000000000000000000000000000000000000000000000000000000000000000000000000000000000000000000000000000903201700000000            000000000000000                              000                           
0010001300315T 020180230000002544776 29647041147022483   7               11032017000000000006000001028029                         0900000000000010000000000000000000000000000000000000000   0000000000000000000000000A9        170192964704     
0010001300316U 020000000000000000000000000000000000000000000000000000000000000000000000000000000000000000000000000000000000000000000000000903201700000000            000000000000000                              000                           
0010001300317T 020180230000002544776 29647041147100645   7               11032017000000000008000001028029                         0900000000000010000000000000000000000000000000000000000   0000000000000000000000000A9        170192964704     
0010001300318U 020000000000000000000000000000000000000000000000000000000000000000000000000000000000000000000000000000000000000000000000000903201700000000            000000000000000                              000                           
0010001300319T 020180230000002544776 29647041147142788   7               11032017000000000008000001028029                         0900000000000010000000000000000000000000000000000000000   0000000000000000000000000A9        170192964704     
0010001300320U 020000000000000000000000000000000000000000000000000000000000000000000000000000000000000000000000000000000000000000000000000903201700000000            000000000000000                              000                           
0010001300321T 020180230000002544776 29647041147253984   7               11032017000000000006000001010421                         0900000000000010000000000000000000000000000000000000000   0000000000000000000000000A9        170192964704     
0010001300322U 020000000000000000000000000000000000000000000000000000000000000000000000000000000000000000000000000000000000000000000000000903201700000000            000000000000000                              000                           
0010001300323T 020180230000002544776 29647041147334059   7               11032017000000000006000001033316                         0900000000000010000000000000000000000000000000000000000   0000000000000000000000000A9        170192964704     
0010001300324U 020000000000000000000000000000000000000000000000000000000000000000000000000000000000000000000000000000000000000000000000000903201700000000            000000000000000                              000                           
0010001300325T 020180230000002544776 29647041147534984   7               11032017000000000006000001018376                         0900000000000010000000000000000000000000000000000000000   0000000000000000000000000A9        170192964704     
0010001300326U 020000000000000000000000000000000000000000000000000000000000000000000000000000000000000000000000000000000000000000000000000903201700000000            000000000000000                              000                           
0010001300327T 020180230000002544776 29647041147615270   7               11032017000000000006000001016179                         0900000000000010000000000000000000000000000000000000000   0000000000000000000000000A9        170192964704     
0010001300328U 020000000000000000000000000000000000000000000000000000000000000000000000000000000000000000000000000000000000000000000000000903201700000000            000000000000000                              000                           
0010001300329T 020180230000002544776 29647041147725555   7               11032017000000000006000001028029                         0900000000000010000000000000000000000000000000000000000   0000000000000000000000000A9        170192964704     
0010001300330U 020000000000000000000000000000000000000000000000000000000000000000000000000000000000000000000000000000000000000000000000000903201700000000            000000000000000                              000                           
0010001300331T 020180230000002544776 29647041147859112   7               1103201700000000000600000101981X                         0900000000000010000000000000000000000000000000000000000   0000000000000000000000000A9        170192964704     
0010001300332U 020000000000000000000000000000000000000000000000000000000000000000000000000000000000000000000000000000000000000000000000000903201700000000            000000000000000                              000                           
0010001300333T 020180230000002544776 29647041147959144   7               11032017000000000008000001018376                         0900000000000010000000000000000000000000000000000000000   0000000000000000000000000A9        170192964704     
0010001300334U 020000000000000000000000000000000000000000000000000000000000000000000000000000000000000000000000000000000000000000000000000903201700000000            000000000000000                              000                           
0010001300335T 020180230000002544776 29647041148024160   7               11032017000000000006000001018376                         0900000000000010000000000000000000000000000000000000000   0000000000000000000000000A9        170192964704     
0010001300336U 020000000000000000000000000000000000000000000000000000000000000000000000000000000000000000000000000000000000000000000000000903201700000000            000000000000000                              000                           
0010001300337T 020180230000002544776 29647041148217116   7               11032017000000000006000001018376                         0900000000000010000000000000000000000000000000000000000   0000000000000000000000000A9        170192964704     
0010001300338U 020000000000000000000000000000000000000000000000000000000000000000000000000000000000000000000000000000000000000000000000000903201700000000            000000000000000                              000                           
0010001300339T 020180230000002544776 29647041148305196   7               11032017000000000008000001012467                         0900000000000010000000000000000000000000000000000000000   0000000000000000000000000A9        170192964704     
0010001300340U 020000000000000000000000000000000000000000000000000000000000000000000000000000000000000000000000000000000000000000000000000903201700000000            000000000000000                              000                           
0010001300341T 020180230000002544776 29647041148335371   7               11032017000000000008000001012467                         0900000000000010000000000000000000000000000000000000000   0000000000000000000000000A9        170192964704     
0010001300342U 020000000000000000000000000000000000000000000000000000000000000000000000000000000000000000000000000000000000000000000000000903201700000000            000000000000000                              000                           
0010001300343T 020180230000002544776 29647041148348093   7               11032017000000000008000001012467                         0900000000000010000000000000000000000000000000000000000   0000000000000000000000000A9        170192964704     
0010001300344U 020000000000000000000000000000000000000000000000000000000000000000000000000000000000000000000000000000000000000000000000000903201700000000            000000000000000                              000                           
0010001300345T 020180230000002544776 29647041148404520   7               1103201700000000000600000101138X                         0900000000000010000000000000000000000000000000000000000   0000000000000000000000000A9        170192964704     
0010001300346U 020000000000000000000000000000000000000000000000000000000000000000000000000000000000000000000000000000000000000000000000000903201700000000            000000000000000                              000                           
0010001300347T 020180230000002544776 29647041148539049   7               11032017000000000008000001004111                         0900000000000010000000000000000000000000000000000000000   0000000000000000000000000A9        170192964704     
0010001300348U 020000000000000000000000000000000000000000000000000000000000000000000000000000000000000000000000000000000000000000000000000903201700000000            000000000000000                              000                           
0010001300349T 020180230000002544776 29647041148734162   7               11032017000000000006000001000132                         0900000000000010000000000000000000000000000000000000000   0000000000000000000000000A9        170192964704     
0010001300350U 020000000000000000000000000000000000000000000000000000000000000000000000000000000000000000000000000000000000000000000000000903201700000000            000000000000000                              000                           
0010001300351T 020180230000002544776 29647041148908076   7               11032017000000000008000001016179                         0900000000000010000000000000000000000000000000000000000   0000000000000000000000000A9        170192964704     
0010001300352U 020000000000000000000000000000000000000000000000000000000000000000000000000000000000000000000000000000000000000000000000000903201700000000            000000000000000                              000                           
0010001300353T 020180230000002544776 29647041148924856   7               11032017000000000008000001016179                         0900000000000010000000000000000000000000000000000000000   0000000000000000000000000A9        170192964704     
0010001300354U 020000000000000000000000000000000000000000000000000000000000000000000000000000000000000000000000000000000000000000000000000903201700000000            000000000000000                              000                           
0010001300355T 020180230000002544776 29647041149015566   7               11032017000000000006000001008214                         0900000000000010000000000000000000000000000000000000000   0000000000000000000000000A9        170192964704     
0010001300356U 020000000000000000000000000000000000000000000000000000000000000000000000000000000000000000000000000000000000000000000000000903201700000000            000000000000000                              000                           
0010001300357T 020180230000002544776 29647041149117124   7               11032017000000000006000001000132                         0900000000000010000000000000000000000000000000000000000   0000000000000000000000000A9        170192964704     
0010001300358U 020000000000000000000000000000000000000000000000000000000000000000000000000000000000000000000000000000000000000000000000000903201700000000            000000000000000                              000                           
0010001300359T 020180230000002544776 29647041149117638   7               11032017000000000006000001000132                         0900000000000010000000000000000000000000000000000000000   0000000000000000000000000A9        170192964704     
0010001300360U 020000000000000000000000000000000000000000000000000000000000000000000000000000000000000000000000000000000000000000000000000903201700000000            000000000000000                              000                           
0010001300361T 020180230000002544776 29647041149243813   7               11032017000000000006000001020354                         0900000000000010000000000000000000000000000000000000000   0000000000000000000000000A9        170192964704     
0010001300362U 020000000000000000000000000000000000000000000000000000000000000000000000000000000000000000000000000000000000000000000000000903201700000000            000000000000000                              000                           
0010001300363T 020180230000002544776 29647041149302474   7               11032017000000000006000001000132                         0900000000000010000000000000000000000000000000000000000   0000000000000000000000000A9        170192964704     
0010001300364U 020000000000000000000000000000000000000000000000000000000000000000000000000000000000000000000000000000000000000000000000000903201700000000            000000000000000                              000                           
0010001300365T 020180230000002544776 29647041149312644   7               11032017000000000006000001000132                         0900000000000010000000000000000000000000000000000000000   0000000000000000000000000A9        170192964704     
0010001300366U 020000000000000000000000000000000000000000000000000000000000000000000000000000000000000000000000000000000000000000000000000903201700000000            000000000000000                              000                           
0010001300367T 020180230000002544776 29647041149435311   7               11032017000000000008000001016179                         0900000000000010000000000000000000000000000000000000000   0000000000000000000000000A9        170192964704     
0010001300368U 020000000000000000000000000000000000000000000000000000000000000000000000000000000000000000000000000000000000000000000000000903201700000000            000000000000000                              000                           
0010001300369T 020180230000002544776 29647041149524540   7               11032017000000000006000001028029                         0900000000000010000000000000000000000000000000000000000   0000000000000000000000000A9        170192964704     
0010001300370U 020000000000000000000000000000000000000000000000000000000000000000000000000000000000000000000000000000000000000000000000000903201700000000            000000000000000                              000                           
0010001300371T 020180230000002544776 29647041149757936   7               11032017000000000006000001020354                         0900000000000010500000000000000000000000000000000000000   0000000000000000000000000A9A4      170192964704     
0010001300372U 020000000000000000000000000000000000000000000000000000000000000000000000000000000000000000000000000000000000000000000000000903201700000000            000000000000000                              000                           
0010001300373T 020180230000002544776 29647041149854378   7               11032017000000000006000001001597                         0900000000000010000000000000000000000000000000000000000   0000000000000000000000000A9        170192964704     
0010001300374U 020000000000000000000000000000000000000000000000000000000000000000000000000000000000000000000000000000000000000000000000000903201700000000            000000000000000                              000                           
0010001300375T 020180230000002544776 29647041149906343   7               11032017000000000008000001028029                         0900000000000010000000000000000000000000000000000000000   0000000000000000000000000A9        170192964704     
0010001300376U 020000000000000000000000000000000000000000000000000000000000000000000000000000000000000000000000000000000000000000000000000903201700000000            000000000000000                              000                           
0010001300377T 020180230000002544776 29647041149946475   7               11032017000000000008000001028029                         0900000000000010000000000000000000000000000000000000000   0000000000000000000000000A9        170192964704     
0010001300378U 020000000000000000000000000000000000000000000000000000000000000000000000000000000000000000000000000000000000000000000000000903201700000000            000000000000000                              000                           
0010001300379T 020180230000002544776 29647041150244947   7               11032017000000000006000001023264                         0900000000000010000000000000000000000000000000000000000   0000000000000000000000000A9        170192964704     
0010001300380U 020000000000000000000000000000000000000000000000000000000000000000000000000000000000000000000000000000000000000000000000000903201700000000            000000000000000                              000                           
0010001300381T 020180230000002544776 29647041150347715   7               11032017000000000006000001002461                         0900000000000010000000000000000000000000000000000000000   0000000000000000000000000A9        170192964704     
0010001300382U 020000000000000000000000000000000000000000000000000000000000000000000000000000000000000000000000000000000000000000000000000903201700000000            000000000000000                              000                           
0010001300383T 020180230000002544776 29647041150412182   7               11032017000000000006000001009229                         0900000000000010000000000000000000000000000000000000000   0000000000000000000000000A9        170192964704     
0010001300384U 020000000000000000000000000000000000000000000000000000000000000000000000000000000000000000000000000000000000000000000000000903201700000000            000000000000000                              000                           
0010001300385T 020180230000002544776 29647041150630844   7               11032017000000000006000001010421                         0900000000000010000000000000000000000000000000000000000   0000000000000000000000000A9        170192964704     
0010001300386U 020000000000000000000000000000000000000000000000000000000000000000000000000000000000000000000000000000000000000000000000000903201700000000            000000000000000                              000                           
0010001300387T 020180230000002544776 29647041150838950   7               11032017000000000008000001016179                         0900000000000010000000000000000000000000000000000000000   0000000000000000000000000A9        170192964704     
0010001300388U 020000000000000000000000000000000000000000000000000000000000000000000000000000000000000000000000000000000000000000000000000903201700000000            000000000000000                              000                           
0010001300389T 060180230000002544776 29647040600953604   7               11032017000000000008000104000570                         0900000000000010000000000000000000000000000000000000000   000000000000000000000029000        170192964704     
0010001300390U 060000000000000000000000000000000000000000000000000000000000000000000000080000000000000077100000000000000000000000000000000903201713032017            000000000000000                              000                           
0010001300391T 060180230000002544776 29647040606509155   7               09032017000000000006000104037290                         0900000000000010000000000000000000000000000000000000000   000000000000000000000029000        170192964704     
0010001300392U 060000000000000000000000000000000000000000000000000000000000000000000000060000000000000057100000000000000000000000000000000903201713032017            000000000000000                              000                           
0010001300393T 060180230000002544776 29647040689017690   7               09032017000000000008000001031658                         0900000000000010000000000000000000000000000000000000000   000000000000000000000029000        170192964704     
0010001300394U 060000000000000000000000000000000000000000000000000000000000000000000000080000000000000077100000000000000000000000000000000903201713032017            000000000000000                              000                           
0010001300395T 060180230000002544776 29647040718403471   7               09032017000000000006000104024040                         0900000000000010000000000000000000000000000000000000000   000000000000000000000029000        170192964704     
0010001300396U 060000000000000000000000000000000000000000000000000000000000000000000000060000000000000057100000000000000000000000000000000903201713032017            000000000000000                              000                           
0010001300397T 060180230000002544776 29647040808139007   7               11032017000000000006000001083534                         0900000000000010000000000000000000000000000000000000000   000000000000000000000029000        170192964704     
0010001300398U 060000000000000000000000000000000000000000000000000000000000000000000000060000000000000057100000000000000000000000000000000903201713032017            000000000000000                              000                           
0010001300399T 060180230000002544776 29647040843541557   7               11032017000000000006000104009230                         0900000000000010000000000000000000000000000000000000000   000000000000000000000029000        170192964704     
0010001300400U 060000000000000000000000000000000000000000000000000000000000000000000000060000000000000057100000000000000000000000000000000903201713032017            000000000000000                              000                           
0010001300401T 060180230000002544776 29647040857222223   7               09032017000000000006000104008400                         0900000000000010000000000000000000000000000000000000000   000000000000000000000029000        170192964704     
0010001300402U 060000000000000000000000000000000000000000000000000000000000000000000000060000000000000057100000000000000000000000000000000903201713032017            000000000000000                              000                           
0010001300403T 060180230000002544776 29647040858652956   7               10032017000000000008000001001368                         0900000000000010000000000000000000000000000000000000000   000000000000000000000029000        170192964704     
0010001300404U 060000000000000000000000000000000000000000000000000000000000000000000000080000000000000077100000000000000000000000000000000903201713032017            000000000000000                              000                           
0010001300405T 060180230000002544776 29647040870143769   7               11032017000000000006000001057428                         0900000000000010000000000000000000000000000000000000000   000000000000000000000029000        170192964704     
0010001300406U 060000000000000000000000000000000000000000000000000000000000000000000000060000000000000057100000000000000000000000000000000903201713032017            000000000000000                              000                           
0010001300407T 060180230000002544776 29647040890010672   7               11032017000000000006000001035017                         0900000000000010000000000000000000000000000000000000000   000000000000000000000029000        170192964704     
0010001300408U 060000000000000000000000000000000000000000000000000000000000000000000000060000000000000057100000000000000000000000000000000903201713032017            000000000000000                              000                           
0010001300409T 060180230000002544776 29647040898213587   7               11032017000000000006000104006170                         0900000000000010000000000000000000000000000000000000000   000000000000000000000029000        170192964704     
0010001300410U 060000000000000000000000000000000000000000000000000000000000000000000000060000000000000057100000000000000000000000000000000903201713032017            000000000000000                              000                           
0010001300411T 060180230000002544776 29647040928231343   7               10032017000000000006000104006480                         0900000000000010000000000000000000000000000000000000000   000000000000000000000029000        170192964704     
0010001300412U 060000000000000000000000000000000000000000000000000000000000000000000000060000000000000057100000000000000000000000000000000903201713032017            000000000000000                              000                           
