00100000         2247745860001000029647040014       0180230000002544776 INSTITUTO DE SELECAO E TECNOLOBANCO DO BRASIL                         21003201701284700005603000000515122941PROCESSAMEN                                                 
00100011T0100020 20247745860001000029647040014       0180230000002544776 INSTITUTO DE SELECAO E TECNOLO                                                                                000000001003201700000000  000000000                      
0010001300001T 020180230000002544776 29647040511559865   7               12032017000000000006000001002321                         0900000000000010000000000000000000000000000000000000000   0000000000000000000000000A9        170192964704     
0010001300002U 020000000000000000000000000000000000000000000000000000000000000000000000000000000000000000000000000000000000000000000000001003201700000000            000000000000000                              000                           
0010001300003T 020180230000002544776 29647040511906531   7               12032017000000000006000001035041                         0900000000000010000000000000000000000000000000000000000   0000000000000000000000000A9        170192964704     
0010001300004U 020000000000000000000000000000000000000000000000000000000000000000000000000000000000000000000000000000000000000000000000001003201700000000            000000000000000                              000                           
0010001300005T 020180230000002544776 29647040519101259   7               12032017000000000006000001000132                         0900000000000010000000000000000000000000000000000000000   0000000000000000000000000A9        170192964704     
0010001300006U 020000000000000000000000000000000000000000000000000000000000000000000000000000000000000000000000000000000000000000000000001003201700000000            000000000000000                              000                           
0010001300007T 020180230000002544776 29647040528505765   7               12032017000000000006000001028029                         0900000000000010000000000000000000000000000000000000000   0000000000000000000000000A9        170192964704     
0010001300008U 020000000000000000000000000000000000000000000000000000000000000000000000000000000000000000000000000000000000000000000000001003201700000000            000000000000000                              000                           
0010001300009T 020180230000002544776 29647040546315556   7               1203201700000000000600000100233X                         0900000000000010000000000000000000000000000000000000000   0000000000000000000000000A9        170192964704     
0010001300010U 020000000000000000000000000000000000000000000000000000000000000000000000000000000000000000000000000000000000000000000000001003201700000000            000000000000000                              000                           
0010001300011T 020180230000002544776 29647040548723541   7               12032017000000000008000001008672                         0900000000000010000000000000000000000000000000000000000   0000000000000000000000000A9        170192964704     
0010001300012U 020000000000000000000000000000000000000000000000000000000000000000000000000000000000000000000000000000000000000000000000001003201700000000            000000000000000                              000                           
0010001300013T 020180230000002544776 29647040549729614   7               12032017000000000008000001008672                         0900000000000010000000000000000000000000000000000000000   0000000000000000000000000A9        170192964704     
0010001300014U 020000000000000000000000000000000000000000000000000000000000000000000000000000000000000000000000000000000000000000000000001003201700000000            000000000000000                              000                           
0010001300015T 020180230000002544776 29647040571902645   7               12032017000000000006000001000132                         0900000000000010000000000000000000000000000000000000000   0000000000000000000000000A9        170192964704     
0010001300016U 020000000000000000000000000000000000000000000000000000000000000000000000000000000000000000000000000000000000000000000000001003201700000000            000000000000000                              000                           
0010001300017T 020180230000002544776 29647040576014508   7               12032017000000000006000001000132                         0900000000000010000000000000000000000000000000000000000   0000000000000000000000000A9        170192964704     
0010001300018U 020000000000000000000000000000000000000000000000000000000000000000000000000000000000000000000000000000000000000000000000001003201700000000            000000000000000                              000                           
0010001300019T 020180230000002544776 29647040584754917   7               12032017000000000006000001023655                         0900000000000010000000000000000000000000000000000000000   0000000000000000000000000A9        170192964704     
0010001300020U 020000000000000000000000000000000000000000000000000000000000000000000000000000000000000000000000000000000000000000000000001003201700000000            000000000000000                              000                           
0010001300021T 020180230000002544776 29647040595141091   7               12032017000000000008000001028029                         0900000000000010000000000000000000000000000000000000000   0000000000000000000000000A9        170192964704     
0010001300022U 020000000000000000000000000000000000000000000000000000000000000000000000000000000000000000000000000000000000000000000000001003201700000000            000000000000000                              000                           
0010001300023T 020180230000002544776 29647040608536751   7               12032017000000000006000001008214                         0900000000000010000000000000000000000000000000000000000   0000000000000000000000000A9        170192964704     
0010001300024U 020000000000000000000000000000000000000000000000000000000000000000000000000000000000000000000000000000000000000000000000001003201700000000            000000000000000                              000                           
0010001300025T 020180230000002544776 29647040620453082   7               12032017000000000006000001000132                         0900000000000010000000000000000000000000000000000000000   0000000000000000000000000A9        170192964704     
0010001300026U 020000000000000000000000000000000000000000000000000000000000000000000000000000000000000000000000000000000000000000000000001003201700000000            000000000000000                              000                           
0010001300027T 020180230000002544776 29647040642949407   7               12032017000000000006000001000132                         0900000000000010000000000000000000000000000000000000000   0000000000000000000000000A9        170192964704     
0010001300028U 020000000000000000000000000000000000000000000000000000000000000000000000000000000000000000000000000000000000000000000000001003201700000000            000000000000000                              000                           
0010001300029T 020180230000002544776 29647040644928212   7               12032017000000000006000001000132                         0900000000000010000000000000000000000000000000000000000   0000000000000000000000000A9        170192964704     
0010001300030U 020000000000000000000000000000000000000000000000000000000000000000000000000000000000000000000000000000000000000000000000001003201700000000            000000000000000                              000                           
0010001300031T 020180230000002544776 29647040672356791   7               12032017000000000006000001000132                         0900000000000010000000000000000000000000000000000000000   0000000000000000000000000A9        170192964704     
0010001300032U 020000000000000000000000000000000000000000000000000000000000000000000000000000000000000000000000000000000000000000000000001003201700000000            000000000000000                              000                           
0010001300033T 020180230000002544776 29647040707223031   7               12032017000000000006000001035041                         0900000000000010000000000000000000000000000000000000000   0000000000000000000000000A9        170192964704     
0010001300034U 020000000000000000000000000000000000000000000000000000000000000000000000000000000000000000000000000000000000000000000000001003201700000000            000000000000000                              000                           
0010001300035T 020180230000002544776 29647040716749085   7               12032017000000000008000001033316                         0900000000000010000000000000000000000000000000000000000   0000000000000000000000000A9        170192964704     
0010001300036U 020000000000000000000000000000000000000000000000000000000000000000000000000000000000000000000000000000000000000000000000001003201700000000            000000000000000                              000                           
0010001300037T 020180230000002544776 29647040725220068   7               12032017000000000006000001009849                         0900000000000010000000000000000000000000000000000000000   0000000000000000000000000A9        170192964704     
0010001300038U 020000000000000000000000000000000000000000000000000000000000000000000000000000000000000000000000000000000000000000000000001003201700000000            000000000000000                              000                           
0010001300039T 020180230000002544776 29647040729307095   7               12032017000000000006000001016179                         0900000000000010000000000000000000000000000000000000000   0000000000000000000000000A9        170192964704     
0010001300040U 020000000000000000000000000000000000000000000000000000000000000000000000000000000000000000000000000000000000000000000000001003201700000000            000000000000000                              000                           
0010001300041T 020180230000002544776 29647040739014368   7               12032017000000000006000001016179                         0900000000000010000000000000000000000000000000000000000   0000000000000000000000000A9        170192964704     
0010001300042U 020000000000000000000000000000000000000000000000000000000000000000000000000000000000000000000000000000000000000000000000001003201700000000            000000000000000                              000                           
0010001300043T 020180230000002544776 29647040741259347   7               12032017000000000006000001020354                         0900000000000010000000000000000000000000000000000000000   0000000000000000000000000A9        170192964704     
0010001300044U 020000000000000000000000000000000000000000000000000000000000000000000000000000000000000000000000000000000000000000000000001003201700000000            000000000000000                              000                           
0010001300045T 020180230000002544776 29647040761646435   7               12032017000000000006000001007595                         0900000000000010000000000000000000000000000000000000000   0000000000000000000000000A9        170192964704     
0010001300046U 020000000000000000000000000000000000000000000000000000000000000000000000000000000000000000000000000000000000000000000000001003201700000000            000000000000000                              000                           
0010001300047T 020180230000002544776 29647040818237667   7               12032017000000000006000001006343                         0900000000000010000000000000000000000000000000000000000   0000000000000000000000000A9        170192964704     
0010001300048U 020000000000000000000000000000000000000000000000000000000000000000000000000000000000000000000000000000000000000000000000001003201700000000            000000000000000                              000                           
0010001300049T 020180230000002544776 29647040827019697   7               12032017000000000008000001022357                         0900000000000010000000000000000000000000000000000000000   0000000000000000000000000A9        170192964704     
0010001300050U 020000000000000000000000000000000000000000000000000000000000000000000000000000000000000000000000000000000000000000000000001003201700000000            000000000000000                              000                           
0010001300051T 020180230000002544776 29647040880333211   7               12032017000000000008000001033316                         0900000000000010000000000000000000000000000000000000000   0000000000000000000000000A9        170192964704     
0010001300052U 020000000000000000000000000000000000000000000000000000000000000000000000000000000000000000000000000000000000000000000000001003201700000000            000000000000000                              000                           
0010001300053T 020180230000002544776 29647040889702163   7               11032017000000000008000001016179                         0900000000000010000000000000000000000000000000000000000   0000000000000000000000000A9        170192964704     
0010001300054U 020000000000000000000000000000000000000000000000000000000000000000000000000000000000000000000000000000000000000000000000000903201700000000            000000000000000                              000                           
0010001300055T 020180230000002544776 29647040913413244   7               12032017000000000006000001009083                         0900000000000010000000000000000000000000000000000000000   0000000000000000000000000A9        170192964704     
0010001300056U 020000000000000000000000000000000000000000000000000000000000000000000000000000000000000000000000000000000000000000000000001003201700000000            000000000000000                              000                           
0010001300057T 020180230000002544776 29647040921601473   7               12032017000000000008000001008214                         0900000000000010000000000000000000000000000000000000000   0000000000000000000000000A9        170192964704     
0010001300058U 020000000000000000000000000000000000000000000000000000000000000000000000000000000000000000000000000000000000000000000000001003201700000000            000000000000000                              000                           
0010001300059T 020180230000002544776 29647040982031941   7               12032017000000000006000001028029                         0900000000000010000000000000000000000000000000000000000   0000000000000000000000000A9        170192964704     
0010001300060U 020000000000000000000000000000000000000000000000000000000000000000000000000000000000000000000000000000000000000000000000001003201700000000            000000000000000                              000                           
0010001300061T 020180230000002544776 29647040982231186   7               11032017000000000006000001028029                         0900000000000010000000000000000000000000000000000000000   0000000000000000000000000A9        170192964704     
0010001300062U 020000000000000000000000000000000000000000000000000000000000000000000000000000000000000000000000000000000000000000000000000903201700000000            000000000000000                              000                           
0010001300063T 020180230000002544776 29647040982239129   7               12032017000000000006000001028029                         0900000000000010000000000000000000000000000000000000000   0000000000000000000000000A9        170192964704     
0010001300064U 020000000000000000000000000000000000000000000000000000000000000000000000000000000000000000000000000000000000000000000000001003201700000000            000000000000000                              000                           
0010001300065T 020180230000002544776 29647040985035659   7               12032017000000000006000001005479                         0900000000000010500000000000000000000000000000000000000   0000000000000000000000000A9A4      170192964704     
0010001300066U 020000000000000000000000000000000000000000000000000000000000000000000000000000000000000000000000000000000000000000000000001003201700000000            000000000000000                              000                           
0010001300067T 020180230000002544776 29647040988519509   7               12032017000000000006000001012467                         0900000000000010000000000000000000000000000000000000000   0000000000000000000000000A9        170192964704     
0010001300068U 020000000000000000000000000000000000000000000000000000000000000000000000000000000000000000000000000000000000000000000000001003201700000000            000000000000000                              000                           
0010001300069T 020180230000002544776 29647040990515376   7               12032017000000000006000001028029                         0900000000000010000000000000000000000000000000000000000   0000000000000000000000000A9        170192964704     
0010001300070U 020000000000000000000000000000000000000000000000000000000000000000000000000000000000000000000000000000000000000000000000001003201700000000            000000000000000                              000                           
0010001300071T 020180230000002544776 29647041011722095   7               12032017000000000006000001013617                         0900000000000010000000000000000000000000000000000000000   0000000000000000000000000A9        170192964704     
0010001300072U 020000000000000000000000000000000000000000000000000000000000000000000000000000000000000000000000000000000000000000000000001003201700000000            000000000000000                              000                           
0010001300073T 020180230000002544776 29647041011723143   7               12032017000000000006000001013617                         0900000000000010000000000000000000000000000000000000000   0000000000000000000000000A9        170192964704     
0010001300074U 020000000000000000000000000000000000000000000000000000000000000000000000000000000000000000000000000000000000000000000000001003201700000000            000000000000000                              000                           
0010001300075T 020180230000002544776 29647041011752053   7               12032017000000000006000001013617                         0900000000000010000000000000000000000000000000000000000   0000000000000000000000000A9        170192964704     
0010001300076U 020000000000000000000000000000000000000000000000000000000000000000000000000000000000000000000000000000000000000000000000001003201700000000            000000000000000                              000                           
0010001300077T 020180230000002544776 29647041013044958   7               12032017000000000006000001033316                         0900000000000010000000000000000000000000000000000000000   0000000000000000000000000A9        170192964704     
0010001300078U 020000000000000000000000000000000000000000000000000000000000000000000000000000000000000000000000000000000000000000000000001003201700000000            000000000000000                              000                           
0010001300079T 020180230000002544776 29647041025511065   7               12032017000000000006000001028029                         0900000000000010000000000000000000000000000000000000000   0000000000000000000000000A9        170192964704     
0010001300080U 020000000000000000000000000000000000000000000000000000000000000000000000000000000000000000000000000000000000000000000000001003201700000000            000000000000000                              000                           
0010001300081T 020180230000002544776 29647041034039765   7               12032017000000000006000001002208                         0900000000000010000000000000000000000000000000000000000   0000000000000000000000000A9        170192964704     
0010001300082U 020000000000000000000000000000000000000000000000000000000000000000000000000000000000000000000000000000000000000000000000001003201700000000            000000000000000                              000                           
0010001300083T 020180230000002544776 29647041053055480   7               12032017000000000006000001000132                         0900000000000010000000000000000000000000000000000000000   0000000000000000000000000A9        170192964704     
0010001300084U 020000000000000000000000000000000000000000000000000000000000000000000000000000000000000000000000000000000000000000000000001003201700000000            000000000000000                              000                           
0010001300085T 020180230000002544776 29647041068456851   7               12032017000000000006000001016179                         0900000000000010000000000000000000000000000000000000000   0000000000000000000000000A9        170192964704     
0010001300086U 020000000000000000000000000000000000000000000000000000000000000000000000000000000000000000000000000000000000000000000000001003201700000000            000000000000000                              000                           
0010001300087T 020180230000002544776 29647041068457719   7               12032017000000000006000001016179                         0900000000000010000000000000000000000000000000000000000   0000000000000000000000000A9        170192964704     
0010001300088U 020000000000000000000000000000000000000000000000000000000000000000000000000000000000000000000000000000000000000000000000001003201700000000            000000000000000                              000                           
0010001300089T 020180230000002544776 29647041069625577   7               12032017000000000006000001008249                         0900000000000010000000000000000000000000000000000000000   0000000000000000000000000A9        170192964704     
0010001300090U 020000000000000000000000000000000000000000000000000000000000000000000000000000000000000000000000000000000000000000000000001003201700000000            000000000000000                              000                           
0010001300091T 020180230000002544776 29647041071300707   7               12032017000000000006000001022241                         0900000000000010000000000000000000000000000000000000000   0000000000000000000000000A9        170192964704     
0010001300092U 020000000000000000000000000000000000000000000000000000000000000000000000000000000000000000000000000000000000000000000000001003201700000000            000000000000000                              000                           
0010001300093T 020180230000002544776 29647041083417236   7               12032017000000000008000001026999                         0900000000000010000000000000000000000000000000000000000   0000000000000000000000000A9        170192964704     
0010001300094U 020000000000000000000000000000000000000000000000000000000000000000000000000000000000000000000000000000000000000000000000001003201700000000            000000000000000                              000                           
0010001300095T 020180230000002544776 29647041086357255   7               12032017000000000006000001016179                         0900000000000010000000000000000000000000000000000000000   0000000000000000000000000A9        170192964704     
0010001300096U 020000000000000000000000000000000000000000000000000000000000000000000000000000000000000000000000000000000000000000000000001003201700000000            000000000000000                              000                           
0010001300097T 020180230000002544776 29647041088835673   7               12032017000000000006000001008214                         0900000000000010000000000000000000000000000000000000000   0000000000000000000000000A9        170192964704     
0010001300098U 020000000000000000000000000000000000000000000000000000000000000000000000000000000000000000000000000000000000000000000000001003201700000000            000000000000000                              000                           
0010001300099T 020180230000002544776 29647041092016753   7               12032017000000000006000001028029                         0900000000000010000000000000000000000000000000000000000   0000000000000000000000000A9        170192964704     
0010001300100U 020000000000000000000000000000000000000000000000000000000000000000000000000000000000000000000000000000000000000000000000001003201700000000            000000000000000                              000                           
0010001300101T 020180230000002544776 29647041093028849   7               12032017000000000006000001016179                         0900000000000010000000000000000000000000000000000000000   0000000000000000000000000A9        170192964704     
0010001300102U 020000000000000000000000000000000000000000000000000000000000000000000000000000000000000000000000000000000000000000000000001003201700000000            000000000000000                              000                           
0010001300103T 020180230000002544776 29647041099613191   7               11032017000000000006000001016179                         0900000000000010000000000000000000000000000000000000000   0000000000000000000000000A9        170192964704     
0010001300104U 020000000000000000000000000000000000000000000000000000000000000000000000000000000000000000000000000000000000000000000000000903201700000000            000000000000000                              000                           
0010001300105T 020180230000002544776 29647041099909345   7               12032017000000000008000001035041                         0900000000000010500000000000000000000000000000000000000   0000000000000000000000000A9A4      170192964704     
0010001300106U 020000000000000000000000000000000000000000000000000000000000000000000000000000000000000000000000000000000000000000000000001003201700000000            000000000000000                              000                           
0010001300107T 020180230000002544776 29647041100245343   7               12032017000000000006000001035041                         0900000000000010500000000000000000000000000000000000000   0000000000000000000000000A9A4      170192964704     
0010001300108U 020000000000000000000000000000000000000000000000000000000000000000000000000000000000000000000000000000000000000000000000001003201700000000            000000000000000                              000                           
0010001300109T 020180230000002544776 29647041107618603   7               12032017000000000008000001005428                         0900000000000010000000000000000000000000000000000000000   0000000000000000000000000A9        170192964704     
0010001300110U 020000000000000000000000000000000000000000000000000000000000000000000000000000000000000000000000000000000000000000000000001003201700000000            000000000000000                              000                           
0010001300111T 020180230000002544776 29647041108308736   7               12032017000000000006000001018376                         0900000000000010000000000000000000000000000000000000000   0000000000000000000000000A9        170192964704     
0010001300112U 020000000000000000000000000000000000000000000000000000000000000000000000000000000000000000000000000000000000000000000000001003201700000000            000000000000000                              000                           
0010001300113T 020180230000002544776 29647041119557816   7               12032017000000000006000001035041                         0900000000000010000000000000000000000000000000000000000   0000000000000000000000000A9        170192964704     
0010001300114U 020000000000000000000000000000000000000000000000000000000000000000000000000000000000000000000000000000000000000000000000001003201700000000            000000000000000                              000                           
0010001300115T 020180230000002544776 29647041124548716   7               1203201700000000000600000100233X                         0900000000000010000000000000000000000000000000000000000   0000000000000000000000000A9        170192964704     
0010001300116U 020000000000000000000000000000000000000000000000000000000000000000000000000000000000000000000000000000000000000000000000001003201700000000            000000000000000                              000                           
0010001300117T 020180230000002544776 29647041139413184   7               12032017000000000006000001033316                         0900000000000010000000000000000000000000000000000000000   0000000000000000000000000A9        170192964704     
0010001300118U 020000000000000000000000000000000000000000000000000000000000000000000000000000000000000000000000000000000000000000000000001003201700000000            000000000000000                              000                           
0010001300119T 020180230000002544776 29647041139449501   7               12032017000000000006000001033316                         0900000000000010000000000000000000000000000000000000000   0000000000000000000000000A9        170192964704     
0010001300120U 020000000000000000000000000000000000000000000000000000000000000000000000000000000000000000000000000000000000000000000000001003201700000000            000000000000000                              000                           
0010001300121T 020180230000002544776 29647041139459282   7               12032017000000000006000001033316                         0900000000000010000000000000000000000000000000000000000   0000000000000000000000000A9        170192964704     
0010001300122U 020000000000000000000000000000000000000000000000000000000000000000000000000000000000000000000000000000000000000000000000001003201700000000            000000000000000                              000                           
0010001300123T 020180230000002544776 29647041147057073   7               12032017000000000006000001028029                         0900000000000010000000000000000000000000000000000000000   0000000000000000000000000A9        170192964704     
0010001300124U 020000000000000000000000000000000000000000000000000000000000000000000000000000000000000000000000000000000000000000000000001003201700000000            000000000000000                              000                           
0010001300125T 020180230000002544776 29647041147553636   7               12032017000000000006000001018376                         0900000000000010000000000000000000000000000000000000000   0000000000000000000000000A9        170192964704     
0010001300126U 020000000000000000000000000000000000000000000000000000000000000000000000000000000000000000000000000000000000000000000000001003201700000000            000000000000000                              000                           
0010001300127T 020180230000002544776 29647041147557365   7               12032017000000000006000001018376                         0900000000000010000000000000000000000000000000000000000   0000000000000000000000000A9        170192964704     
0010001300128U 020000000000000000000000000000000000000000000000000000000000000000000000000000000000000000000000000000000000000000000000001003201700000000            000000000000000                              000                           
0010001300129T 020180230000002544776 29647041151025970   7               1103201700000000000600000100331X                         0900000000000010000000000000000000000000000000000000000   0000000000000000000000000A9        170192964704     
0010001300130U 020000000000000000000000000000000000000000000000000000000000000000000000000000000000000000000000000000000000000000000000000903201700000000            000000000000000                              000                           
0010001300131T 020180230000002544776 29647041151136476   7               11032017000000000006000001025429                         0900000000000010000000000000000000000000000000000000000   0000000000000000000000000A9        170192964704     
0010001300132U 020000000000000000000000000000000000000000000000000000000000000000000000000000000000000000000000000000000000000000000000000903201700000000            000000000000000                              000                           
0010001300133T 020180230000002544776 29647041151234598   7               1103201700000000000600000100331X                         0900000000000010000000000000000000000000000000000000000   0000000000000000000000000A9        170192964704     
0010001300134U 020000000000000000000000000000000000000000000000000000000000000000000000000000000000000000000000000000000000000000000000000903201700000000            000000000000000                              000                           
0010001300135T 020180230000002544776 29647041151310511   7               12032017000000000006000001016179                         0900000000000010000000000000000000000000000000000000000   0000000000000000000000000A9        170192964704     
0010001300136U 020000000000000000000000000000000000000000000000000000000000000000000000000000000000000000000000000000000000000000000000001003201700000000            000000000000000                              000                           
0010001300137T 020180230000002544776 29647041151418832   7               12032017000000000006000001000132                         0900000000000010000000000000000000000000000000000000000   0000000000000000000000000A9        170192964704     
0010001300138U 020000000000000000000000000000000000000000000000000000000000000000000000000000000000000000000000000000000000000000000000001003201700000000            000000000000000                              000                           
0010001300139T 020180230000002544776 29647041151545060   7               12032017000000000008000001000132                         0900000000000010500000000000000000000000000000000000000   0000000000000000000000000A9A4      170192964704     
0010001300140U 020000000000000000000000000000000000000000000000000000000000000000000000000000000000000000000000000000000000000000000000001003201700000000            000000000000000                              000                           
0010001300141T 020180230000002544776 29647041151634482   7               12032017000000000006000001012467                         0900000000000010000000000000000000000000000000000000000   0000000000000000000000000A9        170192964704     
0010001300142U 020000000000000000000000000000000000000000000000000000000000000000000000000000000000000000000000000000000000000000000000001003201700000000            000000000000000                              000                           
0010001300143T 020180230000002544776 29647041151733224   7               1203201700000000000600000102256X                         0900000000000010500000000000000000000000000000000000000   0000000000000000000000000A9A4      170192964704     
0010001300144U 020000000000000000000000000000000000000000000000000000000000000000000000000000000000000000000000000000000000000000000000001003201700000000            000000000000000                              000                           
0010001300145T 020180230000002544776 29647041151800978   7               12032017000000000006000001028029                         0900000000000010000000000000000000000000000000000000000   0000000000000000000000000A9        170192964704     
0010001300146U 020000000000000000000000000000000000000000000000000000000000000000000000000000000000000000000000000000000000000000000000001003201700000000            000000000000000                              000                           
0010001300147T 020180230000002544776 29647041152247007   7               12032017000000000008000001012467                         0900000000000010000000000000000000000000000000000000000   0000000000000000000000000A9        170192964704     
0010001300148U 020000000000000000000000000000000000000000000000000000000000000000000000000000000000000000000000000000000000000000000000001003201700000000            000000000000000                              000                           
0010001300149T 020180230000002544776 29647041152629761   7               12032017000000000006000001016179                         0900000000000010000000000000000000000000000000000000000   0000000000000000000000000A9        170192964704     
0010001300150U 020000000000000000000000000000000000000000000000000000000000000000000000000000000000000000000000000000000000000000000000001003201700000000            000000000000000                              000                           
0010001300151T 020180230000002544776 29647041152930647   7               12032017000000000008000001001597                         0900000000000010000000000000000000000000000000000000000   0000000000000000000000000A9        170192964704     
0010001300152U 020000000000000000000000000000000000000000000000000000000000000000000000000000000000000000000000000000000000000000000000001003201700000000            000000000000000                              000                           
0010001300153T 020180230000002544776 29647041153032004   7               12032017000000000006000001007145                         0900000000000010000000000000000000000000000000000000000   0000000000000000000000000A9        170192964704     
0010001300154U 020000000000000000000000000000000000000000000000000000000000000000000000000000000000000000000000000000000000000000000000001003201700000000            000000000000000                              000                           
0010001300155T 020180230000002544776 29647041154403027   7               12032017000000000006000001008214                         0900000000000010000000000000000000000000000000000000000   0000000000000000000000000A9        170192964704     
0010001300156U 020000000000000000000000000000000000000000000000000000000000000000000000000000000000000000000000000000000000000000000000001003201700000000            000000000000000                              000                           
0010001300157T 020180230000002544776 29647041155041986   7               12032017000000000006000001016179                         0900000000000010000000000000000000000000000000000000000   0000000000000000000000000A9        170192964704     
0010001300158U 020000000000000000000000000000000000000000000000000000000000000000000000000000000000000000000000000000000000000000000000001003201700000000            000000000000000                              000                           
0010001300159T 020180230000002544776 29647041155104774   7               12032017000000000006000001000132                         0900000000000010000000000000000000000000000000000000000   0000000000000000000000000A9        170192964704     
0010001300160U 020000000000000000000000000000000000000000000000000000000000000000000000000000000000000000000000000000000000000000000000001003201700000000            000000000000000                              000                           
0010001300161T 020180230000002544776 29647041155411464   7               12032017000000000006000001028029                         0900000000000010000000000000000000000000000000000000000   0000000000000000000000000A9        170192964704     
0010001300162U 020000000000000000000000000000000000000000000000000000000000000000000000000000000000000000000000000000000000000000000000001003201700000000            000000000000000                              000                           
0010001300163T 020180230000002544776 29647041155701916   7               12032017000000000006000001023655                         0900000000000010000000000000000000000000000000000000000   0000000000000000000000000A9        170192964704     
0010001300164U 020000000000000000000000000000000000000000000000000000000000000000000000000000000000000000000000000000000000000000000000001003201700000000            000000000000000                              000                           
0010001300165T 020180230000002544776 29647041156922633   7               12032017000000000008000001000132                         0900000000000010000000000000000000000000000000000000000   0000000000000000000000000A9        170192964704     
0010001300166U 020000000000000000000000000000000000000000000000000000000000000000000000000000000000000000000000000000000000000000000000001003201700000000            000000000000000                              000                           
0010001300167T 020180230000002544776 29647041157646961   7               12032017000000000006000001028029                         0900000000000010000000000000000000000000000000000000000   0000000000000000000000000A9        170192964704     
0010001300168U 020000000000000000000000000000000000000000000000000000000000000000000000000000000000000000000000000000000000000000000000001003201700000000            000000000000000                              000                           
0010001300169T 020180230000002544776 29647041157825969   7               12032017000000000006000001023655                         0900000000000010000000000000000000000000000000000000000   0000000000000000000000000A9        170192964704     
0010001300170U 020000000000000000000000000000000000000000000000000000000000000000000000000000000000000000000000000000000000000000000000001003201700000000            000000000000000                              000                           
0010001300171T 020180230000002544776 29647041158141074   7               12032017000000000006000001028029                         0900000000000010000000000000000000000000000000000000000   0000000000000000000000000A9        170192964704     
0010001300172U 020000000000000000000000000000000000000000000000000000000000000000000000000000000000000000000000000000000000000000000000001003201700000000            000000000000000                              000                           
0010001300173T 020180230000002544776 29647041158521928   7               12032017000000000006000001008214                         0900000000000010000000000000000000000000000000000000000   0000000000000000000000000A9        170192964704     
0010001300174U 020000000000000000000000000000000000000000000000000000000000000000000000000000000000000000000000000000000000000000000000001003201700000000            000000000000000                              000                           
0010001300175T 020180230000002544776 29647041159034226   7               12032017000000000006000001012467                         0900000000000010000000000000000000000000000000000000000   0000000000000000000000000A9        170192964704     
0010001300176U 020000000000000000000000000000000000000000000000000000000000000000000000000000000000000000000000000000000000000000000000001003201700000000            000000000000000                              000                           
0010001300177T 020180230000002544776 29647041159042088   7               12032017000000000006000001012467                         0900000000000010000000000000000000000000000000000000000   0000000000000000000000000A9        170192964704     
0010001300178U 020000000000000000000000000000000000000000000000000000000000000000000000000000000000000000000000000000000000000000000000001003201700000000            000000000000000                              000                           
0010001300179T 020180230000002544776 29647041159719099   7               12032017000000000006000001033316                         0900000000000010000000000000000000000000000000000000000   0000000000000000000000000A9        170192964704     
0010001300180U 020000000000000000000000000000000000000000000000000000000000000000000000000000000000000000000000000000000000000000000000001003201700000000            000000000000000                              000                           
0010001300181T 020180230000002544776 29647041160123322   7               12032017000000000008000001001511                         0900000000000010000000000000000000000000000000000000000   0000000000000000000000000A9        170192964704     
0010001300182U 020000000000000000000000000000000000000000000000000000000000000000000000000000000000000000000000000000000000000000000000001003201700000000            000000000000000                              000                           
0010001300183T 020180230000002544776 29647041160225398   7               12032017000000000006000001000132                         0900000000000010000000000000000000000000000000000000000   0000000000000000000000000A9        170192964704     
0010001300184U 020000000000000000000000000000000000000000000000000000000000000000000000000000000000000000000000000000000000000000000000001003201700000000            000000000000000                              000                           
0010001300185T 020180230000002544776 29647041160444885   7               12032017000000000006000001018376                         0900000000000010000000000000000000000000000000000000000   0000000000000000000000000A9        170192964704     
0010001300186U 020000000000000000000000000000000000000000000000000000000000000000000000000000000000000000000000000000000000000000000000001003201700000000            000000000000000                              000                           
0010001300187T 020180230000002544776 29647041160605480   7               12032017000000000006000001007145                         0900000000000010000000000000000000000000000000000000000   0000000000000000000000000A9        170192964704     
0010001300188U 020000000000000000000000000000000000000000000000000000000000000000000000000000000000000000000000000000000000000000000000001003201700000000            000000000000000                              000                           
0010001300189T 020180230000002544776 29647041160711087   7               12032017000000000006000001023655                         0900000000000010000000000000000000000000000000000000000   0000000000000000000000000A9        170192964704     
0010001300190U 020000000000000000000000000000000000000000000000000000000000000000000000000000000000000000000000000000000000000000000000001003201700000000            000000000000000                              000                           
0010001300191T 020180230000002544776 29647041160936189   7               12032017000000000006000001021385                         0900000000000010000000000000000000000000000000000000000   0000000000000000000000000A9        170192964704     
0010001300192U 020000000000000000000000000000000000000000000000000000000000000000000000000000000000000000000000000000000000000000000000001003201700000000            000000000000000                              000                           
0010001300193T 020180230000002544776 29647041161125712   7               12032017000000000006000001007110                         0900000000000010000000000000000000000000000000000000000   0000000000000000000000000A9        170192964704     
0010001300194U 020000000000000000000000000000000000000000000000000000000000000000000000000000000000000000000000000000000000000000000000001003201700000000            000000000000000                              000                           
0010001300195T 020180230000002544776 29647041161214301   7               1203201700000000000600000101981X                         0900000000000010000000000000000000000000000000000000000   0000000000000000000000000A9        170192964704     
0010001300196U 020000000000000000000000000000000000000000000000000000000000000000000000000000000000000000000000000000000000000000000000001003201700000000            000000000000000                              000                           
0010001300197T 020180230000002544776 29647041161309360   7               12032017000000000006000001011568                         0900000000000010000000000000000000000000000000000000000   0000000000000000000000000A9        170192964704     
0010001300198U 020000000000000000000000000000000000000000000000000000000000000000000000000000000000000000000000000000000000000000000000001003201700000000            000000000000000                              000                           
0010001300199T 020180230000002544776 29647041161910508   7               12032017000000000006000001012467                         0900000000000010000000000000000000000000000000000000000   0000000000000000000000000A9        170192964704     
0010001300200U 020000000000000000000000000000000000000000000000000000000000000000000000000000000000000000000000000000000000000000000000001003201700000000            000000000000000                              000                           
0010001300201T 020180230000002544776 29647041163007769   7               12032017000000000006000001028029                         0900000000000010000000000000000000000000000000000000000   0000000000000000000000000A9        170192964704     
0010001300202U 020000000000000000000000000000000000000000000000000000000000000000000000000000000000000000000000000000000000000000000000001003201700000000            000000000000000                              000                           
0010001300203T 020180230000002544776 29647041163605157   7               12032017000000000008000001028029                         0900000000000010000000000000000000000000000000000000000   0000000000000000000000000A9        170192964704     
0010001300204U 020000000000000000000000000000000000000000000000000000000000000000000000000000000000000000000000000000000000000000000000001003201700000000            000000000000000                              000                           
0010001300205T 020180230000002544776 29647041163857622   7               12032017000000000006000001023655                         0900000000000010000000000000000000000000000000000000000   0000000000000000000000000A9        170192964704     
0010001300206U 020000000000000000000000000000000000000000000000000000000000000000000000000000000000000000000000000000000000000000000000001003201700000000            000000000000000                              000                           
0010001300207T 020180230000002544776 29647041163911236   7               12032017000000000006000001000361                         0900000000000010000000000000000000000000000000000000000   0000000000000000000000000A9        170192964704     
0010001300208U 020000000000000000000000000000000000000000000000000000000000000000000000000000000000000000000000000000000000000000000000001003201700000000            000000000000000                              000                           
0010001300209T 020180230000002544776 29647041164042941   7               12032017000000000006000001008214                         0900000000000010000000000000000000000000000000000000000   0000000000000000000000000A9        170192964704     
0010001300210U 020000000000000000000000000000000000000000000000000000000000000000000000000000000000000000000000000000000000000000000000001003201700000000            000000000000000                              000                           
0010001300211T 020180230000002544776 29647041164236068   7               12032017000000000006000001028029                         0900000000000010000000000000000000000000000000000000000   0000000000000000000000000A9        170192964704     
0010001300212U 020000000000000000000000000000000000000000000000000000000000000000000000000000000000000000000000000000000000000000000000001003201700000000            000000000000000                              000                           
0010001300213T 020180230000002544776 29647041164657038   7               12032017000000000006000001033316                         0900000000000010000000000000000000000000000000000000000   0000000000000000000000000A9        170192964704     
0010001300214U 020000000000000000000000000000000000000000000000000000000000000000000000000000000000000000000000000000000000000000000000001003201700000000            000000000000000                              000                           
0010001300215T 020180230000002544776 29647041165211339   7               12032017000000000006000001018376                         0900000000000010000000000000000000000000000000000000000   0000000000000000000000000A9        170192964704     
0010001300216U 020000000000000000000000000000000000000000000000000000000000000000000000000000000000000000000000000000000000000000000000001003201700000000            000000000000000                              000                           
0010001300217T 020180230000002544776 29647041165222531   7               12032017000000000006000001018376                         0900000000000010000000000000000000000000000000000000000   0000000000000000000000000A9        170192964704     
0010001300218U 020000000000000000000000000000000000000000000000000000000000000000000000000000000000000000000000000000000000000000000000001003201700000000            000000000000000                              000                           
0010001300219T 020180230000002544776 29647041165654893   7               12032017000000000006000001033316                         0900000000000010000000000000000000000000000000000000000   0000000000000000000000000A9        170192964704     
0010001300220U 020000000000000000000000000000000000000000000000000000000000000000000000000000000000000000000000000000000000000000000000001003201700000000            000000000000000                              000                           
0010001300221T 020180230000002544776 29647041165741965   7               12032017000000000006000001028029                         0900000000000010000000000000000000000000000000000000000   0000000000000000000000000A9        170192964704     
0010001300222U 020000000000000000000000000000000000000000000000000000000000000000000000000000000000000000000000000000000000000000000000001003201700000000            000000000000000                              000                           
0010001300223T 020180230000002544776 29647041165806002   7               12032017000000000006000001016179                         0900000000000010500000000000000000000000000000000000000   0000000000000000000000000A9A4      170192964704     
0010001300224U 020000000000000000000000000000000000000000000000000000000000000000000000000000000000000000000000000000000000000000000000001003201700000000            000000000000000                              000                           
0010001300225T 020180230000002544776 29647041166419674   7               12032017000000000008000001005541                         0900000000000010000000000000000000000000000000000000000   0000000000000000000000000A9        170192964704     
0010001300226U 020000000000000000000000000000000000000000000000000000000000000000000000000000000000000000000000000000000000000000000000001003201700000000            000000000000000                              000                           
0010001300227T 020180230000002544776 29647041166710916   7               12032017000000000006000001033316                         0900000000000010000000000000000000000000000000000000000   0000000000000000000000000A9        170192964704     
0010001300228U 020000000000000000000000000000000000000000000000000000000000000000000000000000000000000000000000000000000000000000000000001003201700000000            000000000000000                              000                           
0010001300229T 020180230000002544776 29647041167217969   7               12032017000000000006000001023655                         0900000000000010000000000000000000000000000000000000000   0000000000000000000000000A9        170192964704     
0010001300230U 020000000000000000000000000000000000000000000000000000000000000000000000000000000000000000000000000000000000000000000000001003201700000000            000000000000000                              000                           
0010001300231T 020180230000002544776 29647041167250546   7               12032017000000000006000001023655                         0900000000000010000000000000000000000000000000000000000   0000000000000000000000000A9        170192964704     
0010001300232U 020000000000000000000000000000000000000000000000000000000000000000000000000000000000000000000000000000000000000000000000001003201700000000            000000000000000                              000                           
0010001300233T 020180230000002544776 29647041167642299   7               12032017000000000006000001028029                         0900000000000010000000000000000000000000000000000000000   0000000000000000000000000A9        170192964704     
0010001300234U 020000000000000000000000000000000000000000000000000000000000000000000000000000000000000000000000000000000000000000000000001003201700000000            000000000000000                              000                           
0010001300235T 020180230000002544776 29647041168508535   7               12032017000000000006000001033316                         0900000000000010000000000000000000000000000000000000000   0000000000000000000000000A9        170192964704     
0010001300236U 020000000000000000000000000000000000000000000000000000000000000000000000000000000000000000000000000000000000000000000000001003201700000000            000000000000000                              000                           
0010001300237T 020180230000002544776 29647041169140617   7               12032017000000000008000001017922                         0900000000000010000000000000000000000000000000000000000   0000000000000000000000000A9        170192964704     
0010001300238U 020000000000000000000000000000000000000000000000000000000000000000000000000000000000000000000000000000000000000000000000001003201700000000            000000000000000                              000                           
0010001300239T 020180230000002544776 29647041169621394   7               12032017000000000006000001016179                         0900000000000010000000000000000000000000000000000000000   0000000000000000000000000A9        170192964704     
0010001300240U 020000000000000000000000000000000000000000000000000000000000000000000000000000000000000000000000000000000000000000000000001003201700000000            000000000000000                              000                           
0010001300241T 020180230000002544776 29647041170454713   7               12032017000000000006000001005681                         0900000000000010000000000000000000000000000000000000000   0000000000000000000000000A9        170192964704     
0010001300242U 020000000000000000000000000000000000000000000000000000000000000000000000000000000000000000000000000000000000000000000000001003201700000000            000000000000000                              000                           
0010001300243T 020180230000002544776 29647041170654308   7               12032017000000000006000001007102                         0900000000000010000000000000000000000000000000000000000   0000000000000000000000000A9        170192964704     
0010001300244U 020000000000000000000000000000000000000000000000000000000000000000000000000000000000000000000000000000000000000000000000001003201700000000            000000000000000                              000                           
0010001300245T 020180230000002544776 29647041172542762   7               12032017000000000006000001008214                         0900000000000010000000000000000000000000000000000000000   0000000000000000000000000A9        170192964704     
0010001300246U 020000000000000000000000000000000000000000000000000000000000000000000000000000000000000000000000000000000000000000000000001003201700000000            000000000000000                              000                           
0010001300247T 020180230000002544776 29647041172906056   7               12032017000000000006000001028029                         0900000000000010000000000000000000000000000000000000000   0000000000000000000000000A9        170192964704     
0010001300248U 020000000000000000000000000000000000000000000000000000000000000000000000000000000000000000000000000000000000000000000000001003201700000000            000000000000000                              000                           
0010001300249T 020180230000002544776 29647041172920238   7               12032017000000000006000001028029                         0900000000000010000000000000000000000000000000000000000   0000000000000000000000000A9        170192964704     
0010001300250U 020000000000000000000000000000000000000000000000000000000000000000000000000000000000000000000000000000000000000000000000001003201700000000            000000000000000                              000                           
0010001300251T 020180230000002544776 29647041173012366   7               12032017000000000006000001016179                         0900000000000010000000000000000000000000000000000000000   0000000000000000000000000A9        170192964704     
0010001300252U 020000000000000000000000000000000000000000000000000000000000000000000000000000000000000000000000000000000000000000000000001003201700000000            000000000000000                              000                           
0010001300253T 020180230000002544776 29647041173209325   7               12032017000000000006000001000132                         0900000000000010000000000000000000000000000000000000000   0000000000000000000000000A9        170192964704     
0010001300254U 020000000000000000000000000000000000000000000000000000000000000000000000000000000000000000000000000000000000000000000000001003201700000000            000000000000000                              000                           
0010001300255T 020180230000002544776 29647041173226565   7               12032017000000000006000001000132                         0900000000000010000000000000000000000000000000000000000   0000000000000000000000000A9        170192964704     
0010001300256U 020000000000000000000000000000000000000000000000000000000000000000000000000000000000000000000000000000000000000000000000001003201700000000            000000000000000                              000                           
0010001300257T 020180230000002544776 29647041173255690   7               12032017000000000006000001000132                         0900000000000010000000000000000000000000000000000000000   0000000000000000000000000A9        170192964704     
0010001300258U 020000000000000000000000000000000000000000000000000000000000000000000000000000000000000000000000000000000000000000000000001003201700000000            000000000000000                              000                           
0010001300259T 020180230000002544776 29647041173311183   7               12032017000000000006000001016179                         0900000000000010000000000000000000000000000000000000000   0000000000000000000000000A9        170192964704     
0010001300260U 020000000000000000000000000000000000000000000000000000000000000000000000000000000000000000000000000000000000000000000000001003201700000000            000000000000000                              000                           
0010001300261T 020180230000002544776 29647041173518440   7               12032017000000000006000001016179                         0900000000000010000000000000000000000000000000000000000   0000000000000000000000000A9        170192964704     
0010001300262U 020000000000000000000000000000000000000000000000000000000000000000000000000000000000000000000000000000000000000000000000001003201700000000            000000000000000                              000                           
0010001300263T 020180230000002544776 29647041173806121   7               12032017000000000006000001008214                         0900000000000010000000000000000000000000000000000000000   0000000000000000000000000A9        170192964704     
0010001300264U 020000000000000000000000000000000000000000000000000000000000000000000000000000000000000000000000000000000000000000000000001003201700000000            000000000000000                              000                           
0010001300265T 020180230000002544776 29647041174113320   7               12032017000000000006000001028029                         0900000000000010000000000000000000000000000000000000000   0000000000000000000000000A9        170192964704     
0010001300266U 020000000000000000000000000000000000000000000000000000000000000000000000000000000000000000000000000000000000000000000000001003201700000000            000000000000000                              000                           
0010001300267T 020180230000002544776 29647041176245584   7               1203201700000000000600000100068X                         0900000000000010000000000000000000000000000000000000000   0000000000000000000000000A9        170192964704     
0010001300268U 020000000000000000000000000000000000000000000000000000000000000000000000000000000000000000000000000000000000000000000000001003201700000000            000000000000000                              000                           
0010001300269T 020180230000002544776 29647041176731880   7               12032017000000000006000001016179                         0900000000000010000000000000000000000000000000000000000   0000000000000000000000000A9        170192964704     
0010001300270U 020000000000000000000000000000000000000000000000000000000000000000000000000000000000000000000000000000000000000000000000001003201700000000            000000000000000                              000                           
0010001300271T 020180230000002544776 29647041176758687   7               12032017000000000006000001016179                         0900000000000010000000000000000000000000000000000000000   0000000000000000000000000A9        170192964704     
0010001300272U 020000000000000000000000000000000000000000000000000000000000000000000000000000000000000000000000000000000000000000000000001003201700000000            000000000000000                              000                           
0010001300273T 020180230000002544776 29647041177206096   7               12032017000000000008000001016179                         0900000000000010000000000000000000000000000000000000000   0000000000000000000000000A9        170192964704     
0010001300274U 020000000000000000000000000000000000000000000000000000000000000000000000000000000000000000000000000000000000000000000000001003201700000000            000000000000000                              000                           
0010001300275T 020180230000002544776 29647041177222493   7               12032017000000000008000001016179                         0900000000000010000000000000000000000000000000000000000   0000000000000000000000000A9        170192964704     
0010001300276U 020000000000000000000000000000000000000000000000000000000000000000000000000000000000000000000000000000000000000000000000001003201700000000            000000000000000                              000                           
0010001300277T 020180230000002544776 29647041177250255   7               12032017000000000008000001016179                         0900000000000010000000000000000000000000000000000000000   0000000000000000000000000A9        170192964704     
0010001300278U 020000000000000000000000000000000000000000000000000000000000000000000000000000000000000000000000000000000000000000000000001003201700000000            000000000000000                              000                           
0010001300279T 020180230000002544776 29647041177356676   7               12032017000000000008000001028029                         0900000000000010000000000000000000000000000000000000000   0000000000000000000000000A9        170192964704     
0010001300280U 020000000000000000000000000000000000000000000000000000000000000000000000000000000000000000000000000000000000000000000000001003201700000000            000000000000000                              000                           
0010001300281T 020180230000002544776 29647041178500257   7               12032017000000000008000001001368                         0900000000000010000000000000000000000000000000000000000   0000000000000000000000000A9        170192964704     
0010001300282U 020000000000000000000000000000000000000000000000000000000000000000000000000000000000000000000000000000000000000000000000001003201700000000            000000000000000                              000                           
0010001300283T 020180230000002544776 29647041179220885   7               12032017000000000006000001028029                         0900000000000010000000000000000000000000000000000000000   0000000000000000000000000A9        170192964704     
0010001300284U 020000000000000000000000000000000000000000000000000000000000000000000000000000000000000000000000000000000000000000000000001003201700000000            000000000000000                              000                           
0010001300285T 020180230000002544776 29647041180819373   7               12032017000000000006000001001368                         0900000000000010000000000000000000000000000000000000000   0000000000000000000000000A9        170192964704     
0010001300286U 020000000000000000000000000000000000000000000000000000000000000000000000000000000000000000000000000000000000000000000000001003201700000000            000000000000000                              000                           
0010001300287T 020180230000002544776 29647041181136925   7               12032017000000000006000001007013                         0900000000000010000000000000000000000000000000000000000   0000000000000000000000000A9        170192964704     
0010001300288U 020000000000000000000000000000000000000000000000000000000000000000000000000000000000000000000000000000000000000000000000001003201700000000            000000000000000                              000                           
0010001300289T 020180230000002544776 29647041182210741   7               12032017000000000006000001028029                         0900000000000010000000000000000000000000000000000000000   0000000000000000000000000A9        170192964704     
0010001300290U 020000000000000000000000000000000000000000000000000000000000000000000000000000000000000000000000000000000000000000000000001003201700000000            000000000000000                              000                           
0010001300291T 020180230000002544776 29647041182427586   7               12032017000000000006000001000132                         0900000000000010000000000000000000000000000000000000000   0000000000000000000000000A9        170192964704     
0010001300292U 020000000000000000000000000000000000000000000000000000000000000000000000000000000000000000000000000000000000000000000000001003201700000000            000000000000000                              000                           
0010001300293T 020180230000002544776 29647041182928297   7               12032017000000000006000001016179                         0900000000000010000000000000000000000000000000000000000   0000000000000000000000000A9        170192964704     
0010001300294U 020000000000000000000000000000000000000000000000000000000000000000000000000000000000000000000000000000000000000000000000001003201700000000            000000000000000                              000                           
0010001300295T 020180230000002544776 29647041183202104   7               12032017000000000006000001008214                         0900000000000010000000000000000000000000000000000000000   0000000000000000000000000A9        170192964704     
0010001300296U 020000000000000000000000000000000000000000000000000000000000000000000000000000000000000000000000000000000000000000000000001003201700000000            000000000000000                              000                           
0010001300297T 020180230000002544776 29647041183418914   7               12032017000000000008000001018376                         0900000000000010000000000000000000000000000000000000000   0000000000000000000000000A9        170192964704     
0010001300298U 020000000000000000000000000000000000000000000000000000000000000000000000000000000000000000000000000000000000000000000000001003201700000000            000000000000000                              000                           
0010001300299T 020180230000002544776 29647041183903573   7               12032017000000000006000001012467                         0900000000000010000000000000000000000000000000000000000   0000000000000000000000000A9        170192964704     
0010001300300U 020000000000000000000000000000000000000000000000000000000000000000000000000000000000000000000000000000000000000000000000001003201700000000            000000000000000                              000                           
0010001300301T 020180230000002544776 29647041184308869   7               1203201700000000000600000100233X                         0900000000000010000000000000000000000000000000000000000   0000000000000000000000000A9        170192964704     
0010001300302U 020000000000000000000000000000000000000000000000000000000000000000000000000000000000000000000000000000000000000000000000001003201700000000            000000000000000                              000                           
0010001300303T 020180230000002544776 29647041185447182   7               12032017000000000006000001014699                         0900000000000010000000000000000000000000000000000000000   0000000000000000000000000A9        170192964704     
0010001300304U 020000000000000000000000000000000000000000000000000000000000000000000000000000000000000000000000000000000000000000000000001003201700000000            000000000000000                              000                           
0010001300305T 020180230000002544776 29647041186930069   7               12032017000000000006000001023655                         0900000000000010000000000000000000000000000000000000000   0000000000000000000000000A9        170192964704     
0010001300306U 020000000000000000000000000000000000000000000000000000000000000000000000000000000000000000000000000000000000000000000000001003201700000000            000000000000000                              000                           
0010001300307T 020180230000002544776 29647041187008554   7               12032017000000000006000001018376                         0900000000000010000000000000000000000000000000000000000   0000000000000000000000000A9        170192964704     
0010001300308U 020000000000000000000000000000000000000000000000000000000000000000000000000000000000000000000000000000000000000000000000001003201700000000            000000000000000                              000                           
0010001300309T 020180230000002544776 29647041187419363   7               12032017000000000006000001018376                         0900000000000010000000000000000000000000000000000000000   0000000000000000000000000A9        170192964704     
0010001300310U 020000000000000000000000000000000000000000000000000000000000000000000000000000000000000000000000000000000000000000000000001003201700000000            000000000000000                              000                           
0010001300311T 020180230000002544776 29647041188059154   7               12032017000000000006000001023655                         0900000000000010000000000000000000000000000000000000000   0000000000000000000000000A9        170192964704     
0010001300312U 020000000000000000000000000000000000000000000000000000000000000000000000000000000000000000000000000000000000000000000000001003201700000000            000000000000000                              000                           
0010001300313T 020180230000002544776 29647041188638929   7               12032017000000000006000001018376                         0900000000000010000000000000000000000000000000000000000   0000000000000000000000000A9        170192964704     
0010001300314U 020000000000000000000000000000000000000000000000000000000000000000000000000000000000000000000000000000000000000000000000001003201700000000            000000000000000                              000                           
0010001300315T 020180230000002544776 29647041188720304   7               12032017000000000008000001028029                         0900000000000010000000000000000000000000000000000000000   0000000000000000000000000A9        170192964704     
0010001300316U 020000000000000000000000000000000000000000000000000000000000000000000000000000000000000000000000000000000000000000000000001003201700000000            000000000000000                              000                           
0010001300317T 020180230000002544776 29647041188904138   7               12032017000000000006000001000361                         0900000000000010000000000000000000000000000000000000000   0000000000000000000000000A9        170192964704     
0010001300318U 020000000000000000000000000000000000000000000000000000000000000000000000000000000000000000000000000000000000000000000000001003201700000000            000000000000000                              000                           
0010001300319T 020180230000002544776 29647041189306748   7               1203201700000000000600000100233X                         0900000000000010000000000000000000000000000000000000000   0000000000000000000000000A9        170192964704     
0010001300320U 020000000000000000000000000000000000000000000000000000000000000000000000000000000000000000000000000000000000000000000000001003201700000000            000000000000000                              000                           
0010001300321T 020180230000002544776 29647041189707228   7               12032017000000000006000001016179                         0900000000000010000000000000000000000000000000000000000   0000000000000000000000000A9        170192964704     
0010001300322U 020000000000000000000000000000000000000000000000000000000000000000000000000000000000000000000000000000000000000000000000001003201700000000            000000000000000                              000                           
0010001300323T 020180230000002544776 29647041190432965   7               12032017000000000008000001028495                         0900000000000010500000000000000000000000000000000000000   0000000000000000000000000A9A4      170192964704     
0010001300324U 020000000000000000000000000000000000000000000000000000000000000000000000000000000000000000000000000000000000000000000000001003201700000000            000000000000000                              000                           
0010001300325T 020180230000002544776 29647041190739904   7               12032017000000000006000001016438                         0900000000000010000000000000000000000000000000000000000   0000000000000000000000000A9        170192964704     
0010001300326U 020000000000000000000000000000000000000000000000000000000000000000000000000000000000000000000000000000000000000000000000001003201700000000            000000000000000                              000                           
0010001300327T 020180230000002544776 29647041191306022   7               12032017000000000006000001009229                         0900000000000010000000000000000000000000000000000000000   0000000000000000000000000A9        170192964704     
0010001300328U 020000000000000000000000000000000000000000000000000000000000000000000000000000000000000000000000000000000000000000000000001003201700000000            000000000000000                              000                           
0010001300329T 020180230000002544776 29647041191412928   7               12032017000000000006000001023655                         0900000000000010000000000000000000000000000000000000000   0000000000000000000000000A9        170192964704     
0010001300330U 020000000000000000000000000000000000000000000000000000000000000000000000000000000000000000000000000000000000000000000000001003201700000000            000000000000000                              000                           
0010001300331T 020180230000002544776 29647041191743466   7               12032017000000000008000001005428                         0900000000000010000000000000000000000000000000000000000   0000000000000000000000000A9        170192964704     
0010001300332U 020000000000000000000000000000000000000000000000000000000000000000000000000000000000000000000000000000000000000000000000001003201700000000            000000000000000                              000                           
0010001300333T 020180230000002544776 29647041191936436   7               12032017000000000006000001023655                         0900000000000010000000000000000000000000000000000000000   0000000000000000000000000A9        170192964704     
0010001300334U 020000000000000000000000000000000000000000000000000000000000000000000000000000000000000000000000000000000000000000000000001003201700000000            000000000000000                              000                           
0010001300335T 060180230000002544776 29647040595141091   7               12032017000000000008000001012459                         0900000000000010000000000000000000000000000000000000000   000000000000000000000029000        170192964704     
0010001300336U 060000000000000000000000000000000000000000000000000000000000000000000000080000000000000077100000000000000000000000000000001003201714032017            000000000000000                              000                           
0010001300337T 060180230000002544776 29647040644907661   7               10032017000000000006000001018643                         0900000000000010000000000000000000000000000000000000000   000000000000000000000029000        170192964704     
0010001300338U 060000000000000000000000000000000000000000000000000000000000000000000000060000000000000057100000000000000000000000000000001003201714032017            000000000000000                              000                           
0010001300339T 060180230000002544776 29647040679706256   7               10032017000000000006000104008400                         0900000000000010000000000000000000000000000000000000000   000000000000000000000029000        170192964704     
0010001300340U 060000000000000000000000000000000000000000000000000000000000000000000000060000000000000057100000000000000000000000000000001003201714032017            000000000000000                              000                           
0010001300341T 060180230000002544776 29647040761646435   7               12032017000000000006000001007595                         0900000000000010000000000000000000000000000000000000000   000000000000000000000029000        170192964704     
0010001300342U 060000000000000000000000000000000000000000000000000000000000000000000000060000000000000057100000000000000000000000000000001003201714032017            000000000000000                              000                           
0010001300343T 060180230000002544776 29647040769557497   7               10032017000000000006000104009040                         0900000000000010000000000000000000000000000000000000000   000000000000000000000029000        170192964704     
0010001300344U 060000000000000000000000000000000000000000000000000000000000000000000000060000000000000057100000000000000000000000000000001003201714032017            000000000000000                              000                           
0010001300345T 060180230000002544776 29647040821338513   7               10032017000000000006000001029882                         0900000000000010000000000000000000000000000000000000000   000000000000000000000029000        170192964704     
0010001300346U 060000000000000000000000000000000000000000000000000000000000000000000000060000000000000057100000000000000000000000000000001003201714032017            000000000000000                              000                           
0010001300347T 060180230000002544776 29647040831145688   7               10032017000000000006000104023460                         0900000000000010000000000000000000000000000000000000000   000000000000000000000029000        170192964704     
0010001300348U 060000000000000000000000000000000000000000000000000000000000000000000000060000000000000057100000000000000000000000000000001003201714032017            000000000000000                              000                           
0010001300349T 060180230000002544776 29647040937100114   7               10032017000000000006000104023910                         0900000000000010000000000000000000000000000000000000000   000000000000000000000029000        170192964704     
0010001300350U 060000000000000000000000000000000000000000000000000000000000000000000000060000000000000057100000000000000000000000000000001003201714032017            000000000000000                              000                           
0010001300351T 060180230000002544776 29647040939828075   7               10032017000000000006000104023460                         0900000000000010000000000000000000000000000000000000000   000000000000000000000029000        170192964704     
0010001300352U 060000000000000000000000000000000000000000000000000000000000000000000000060000000000000057100000000000000000000000000000001003201714032017            000000000000000                              000                           
0010001300353T 060180230000002544776 29647040949618406   7               10032017000000000006000001002208                         0900000000000010000000000000000000000000000000000000000   000000000000000000000029000        170192964704     
0010001300354U 060000000000000000000000000000000000000000000000000000000000000000000000060000000000000057100000000000000000000000000000001003201714032017            000000000000000                              000                           
0010001300355T 060180230000002544776 29647041005631863   7               11032017000000000006000104000410                         0900000000000010000000000000000000000000000000000000000   000000000000000000000029000        170192964704     
0010001300356U 060000000000000000000000000000000000000000000000000000000000000000000000060000000000000057100000000000000000000000000000001003201714032017            000000000000000                              000                           
0010001300357T 060180230000002544776 29647041007006318   7               10032017000000000006000237002900                         0900000000000010000000000000000000000000000000000000000   000000000000000000000029000        170192964704     
0010001300358U 060000000000000000000000000000000000000000000000000000000000000000000000060000000000000057100000000000000000000000000000001003201714032017            000000000000000                              000                           
0010001300359T 060180230000002544776 29647041090445792   7               11032017000000000006000104012420                         0900000000000010000000000000000000000000000000000000000   000000000000000000000029000        170192964704     
0010001300360U 060000000000000000000000000000000000000000000000000000000000000000000000060000000000000057100000000000000000000000000000001003201714032017            000000000000000                              000                           
0010001300361T 060180230000002544776 29647041093428510   7               10032017000000000006000104000430                         0900000000000010000000000000000000000000000000000000000   000000000000000000000029000        170192964704     
0010001300362U 060000000000000000000000000000000000000000000000000000000000000000000000060000000000000057100000000000000000000000000000001003201714032017            000000000000000                              000                           
0010001300363T 060180230000002544776 29647041121547860   7               1003201700000000000800000104847X                         0900000000000010000000000000000000000000000000000000000   000000000000000000000029000        170192964704     
0010001300364U 060000000000000000000000000000000000000000000000000000000000000000000000080000000000000077100000000000000000000000000000001003201714032017            000000000000000                              000                           
0010001300365T 060180230000002544776 29647041124120086   7               10032017000000000008000341012470                         0900000000000010000000000000000000000000000000000000000   000000000000000000000029000        170192964704     
0010001300366U 060000000000000000000000000000000000000000000000000000000000000000000000080000000000000077100000000000000000000000000000001003201714032017            000000000000000                              000                           
0010001300367T 060180230000002544776 29647041124607998   7               10032017000000000006000104023460                         0900000000000010000000000000000000000000000000000000000   000000000000000000000029000        170192964704     
0010001300368U 060000000000000000000000000000000000000000000000000000000000000000000000060000000000000057100000000000000000000000000000001003201714032017            000000000000000                              000                           
0010001300369T 060180230000002544776 29647041125645256   7               10032017000000000006000104009230                         0900000000000010000000000000000000000000000000000000000   000000000000000000000029000        170192964704     
0010001300370U 060000000000000000000000000000000000000000000000000000000000000000000000060000000000000057100000000000000000000000000000001003201714032017            000000000000000                              000                           
0010001300371T 060180230000002544776 29647041125922948   7               10032017000000000006000104007290                         0900000000000010000000000000000000000000000000000000000   000000000000000000000029000        170192964704     
0010001300372U 060000000000000000000000000000000000000000000000000000000000000000000000060000000000000057100000000000000000000000000000001003201714032017            000000000000000                              000                           
0010001300373T 060180230000002544776 29647041126158201   7               10032017000000000006000237002910                         0900000000000010000000000000000000000000000000000000000   000000000000000000000029000        170192964704     
0010001300374U 060000000000000000000000000000000000000000000000000000000000000000000000060000000000000057100000000000000000000000000000001003201714032017            000000000000000                              000                           
0010001300375T 060180230000002544776 29647041126421291   7               10032017000000000006000237028910                         0900000000000010000000000000000000000000000000000000000   000000000000000000000029000        170192964704     
0010001300376U 060000000000000000000000000000000000000000000000000000000000000000000000060000000000000057100000000000000000000000000000001003201714032017            000000000000000                              000                           
0010001300377T 060180230000002544776 29647041126507281   7               10032017000000000008000104008670                         0900000000000010000000000000000000000000000000000000000   000000000000000000000029000        170192964704     
0010001300378U 060000000000000000000000000000000000000000000000000000000000000000000000080000000000000077100000000000000000000000000000001003201714032017            000000000000000                              000                           
0010001300379T 060180230000002544776 29647041126915295   7               10032017000000000006000104008670                         0900000000000010000000000000000000000000000000000000000   000000000000000000000029000        170192964704     
0010001300380U 060000000000000000000000000000000000000000000000000000000000000000000000060000000000000057100000000000000000000000000000001003201714032017            000000000000000                              000                           
0010001300381T 060180230000002544776 29647041127305748   7               10032017000000000008000341015940                         0900000000000010000000000000000000000000000000000000000   000000000000000000000029000        170192964704     
0010001300382U 060000000000000000000000000000000000000000000000000000000000000000000000080000000000000077100000000000000000000000000000001003201714032017            000000000000000                              000                           
0010001300383T 060180230000002544776 29647041128120778   7               10032017000000000008000237002890                         0900000000000010000000000000000000000000000000000000000   000000000000000000000029000        170192964704     
0010001300384U 060000000000000000000000000000000000000000000000000000000000000000000000080000000000000077100000000000000000000000000000001003201714032017            000000000000000                              000                           
0010001300385T 060180230000002544776 29647041128612485   7               10032017000000000006000104015450                         0900000000000010000000000000000000000000000000000000000   000000000000000000000029000        170192964704     
0010001300386U 060000000000000000000000000000000000000000000000000000000000000000000000060000000000000057100000000000000000000000000000001003201714032017            000000000000000                              000                           
0010001300387T 060180230000002544776 29647041129520052   7               10032017000000000008000033040570                         0900000000000010000000000000000000000000000000000000000   000000000000000000000029000        170192964704     
0010001300388U 060000000000000000000000000000000000000000000000000000000000000000000000080000000000000077100000000000000000000000000000001003201714032017            000000000000000                              000                           
0010001300389T 060180230000002544776 29647041129657930   7               10032017000000000008000047000140                         0900000000000010000000000000000000000000000000000000000   000000000000000000000029000        170192964704     
0010001300390U 060000000000000000000000000000000000000000000000000000000000000000000000080000000000000077100000000000000000000000000000001003201714032017            000000000000000                              000                           
0010001300391T 060180230000002544776 29647041130125136   7               10032017000000000008000001016683                         0900000000000010000000000000000000000000000000000000000   000000000000000000000029000        170192964704     
0010001300392U 060000000000000000000000000000000000000000000000000000000000000000000000080000000000000077100000000000000000000000000000001003201714032017            000000000000000                              000                           
0010001300393T 060180230000002544776 29647041130346420   7               10032017000000000006000001046361                         0900000000000010000000000000000000000000000000000000000   000000000000000000000029000        170192964704     
0010001300394U 060000000000000000000000000000000000000000000000000000000000000000000000060000000000000057100000000000000000000000000000001003201714032017            000000000000000                              000                           
0010001300395T 060180230000002544776 29647041130921657   7               10032017000000000008000104006510                         0900000000000010000000000000000000000000000000000000000   000000000000000000000029000        170192964704     
0010001300396U 060000000000000000000000000000000000000000000000000000000000000000000000080000000000000077100000000000000000000000000000001003201714032017            000000000000000                              000                           
0010001300397T 060180230000002544776 29647041133539409   7               10032017000000000008000001012335                         0900000000000010000000000000000000000000000000000000000   000000000000000000000029000        170192964704     
0010001300398U 060000000000000000000000000000000000000000000000000000000000000000000000080000000000000077100000000000000000000000000000001003201714032017            000000000000000                              000                           
0010001300399T 060180230000002544776 29647041135245613   7               10032017000000000008000341071250                         0900000000000010000000000000000000000000000000000000000   000000000000000000000029000        170192964704     
0010001300400U 060000000000000000000000000000000000000000000000000000000000000000000000080000000000000077100000000000000000000000000000001003201714032017            000000000000000                              000                           
0010001300401T 060180230000002544776 29647041135742822   7               10032017000000000008000001014214                         0900000000000010000000000000000000000000000000000000000   000000000000000000000029000        170192964704     
0010001300402U 060000000000000000000000000000000000000000000000000000000000000000000000080000000000000077100000000000000000000000000000001003201714032017            000000000000000                              000                           
0010001300403T 060180230000002544776 29647041136026810   7               10032017000000000006000001014214                         0900000000000010000000000000000000000000000000000000000   000000000000000000000029000        170192964704     
0010001300404U 060000000000000000000000000000000000000000000000000000000000000000000000060000000000000057100000000000000000000000000000001003201714032017            000000000000000                              000                           
0010001300405T 060180230000002544776 29647041136843122   7               10032017000000000006000104006780                         0900000000000010000000000000000000000000000000000000000   000000000000000000000029000        170192964704     
0010001300406U 060000000000000000000000000000000000000000000000000000000000000000000000060000000000000057100000000000000000000000000000001003201714032017            000000000000000                              000                           
0010001300407T 060180230000002544776 29647041137641214   7               11032017000000000006000001048453                         0900000000000010000000000000000000000000000000000000000   000000000000000000000029000        170192964704     
0010001300408U 060000000000000000000000000000000000000000000000000000000000000000000000060000000000000057100000000000000000000000000000001003201714032017            000000000000000                              000                           
0010001300409T 060180230000002544776 29647041141114117   7               11032017000000000008000001033618                         0900000000000010000000000000000000000000000000000000000   000000000000000000000029000        170192964704     
0010001300410U 060000000000000000000000000000000000000000000000000000000000000000000000080000000000000077100000000000000000000000000000001003201714032017            000000000000000                              000                           
0010001300411T 060180230000002544776 29647041143335794   7               11032017000000000006000001000949                         0900000000000010000000000000000000000000000000000000000   000000000000000000000029000        170192964704     
0010001300412U 060000000000000000000000000000000000000000000000000000000000000000000000060000000000000057100000000000000000000000000000001003201714032017            000000000000000                              000                           
