00100000         2247745860001000029647040014       0180230000002544776 INSTITUTO DE SELECAO E TECNOLOBANCO DO BRASIL                         21303201702383400005803000000515122941PROCESSAMEN                                                 
00100011T0100020 20247745860001000029647040014       0180230000002544776 INSTITUTO DE SELECAO E TECNOLO                                                                                000000001303201700000000  000000000                      
0010001300001T 020180230000002544776 29647040508536705   7               15032017000000000006000001008214                         0900000000000010000000000000000000000000000000000000000   0000000000000000000000000A9        170192964704     
0010001300002U 020000000000000000000000000000000000000000000000000000000000000000000000000000000000000000000000000000000000000000000000001303201700000000            000000000000000                              000                           
0010001300003T 020180230000002544776 29647040511945144   7               13032017000000000006000001035041                         0900000000000010000000000000000000000000000000000000000   0000000000000000000000000A9        170192964704     
0010001300004U 020000000000000000000000000000000000000000000000000000000000000000000000000000000000000000000000000000000000000000000000001103201700000000            000000000000000                              000                           
0010001300005T 020180230000002544776 29647040524605857   7               15032017000000000006000001016810                         0900000000000010000000000000000000000000000000000000000   0000000000000000000000000A9        170192964704     
0010001300006U 020000000000000000000000000000000000000000000000000000000000000000000000000000000000000000000000000000000000000000000000001303201700000000            000000000000000                              000                           
0010001300007T 020180230000002544776 29647040548811253   7               15032017000000000006000001018376                         0900000000000010000000000000000000000000000000000000000   0000000000000000000000000A9        170192964704     
0010001300008U 020000000000000000000000000000000000000000000000000000000000000000000000000000000000000000000000000000000000000000000000001303201700000000            000000000000000                              000                           
0010001300009T 020180230000002544776 29647040548845150   7               15032017000000000006000001018376                         0900000000000010000000000000000000000000000000000000000   0000000000000000000000000A9        170192964704     
0010001300010U 020000000000000000000000000000000000000000000000000000000000000000000000000000000000000000000000000000000000000000000000001303201700000000            000000000000000                              000                           
0010001300011T 020180230000002544776 29647040570429892   7               15032017000000000006000001016179                         0900000000000010000000000000000000000000000000000000000   0000000000000000000000000A9        170192964704     
0010001300012U 020000000000000000000000000000000000000000000000000000000000000000000000000000000000000000000000000000000000000000000000001303201700000000            000000000000000                              000                           
0010001300013T 020180230000002544776 29647040579447654   7               15032017000000000008000001012467                         0900000000000010000000000000000000000000000000000000000   0000000000000000000000000A9        170192964704     
0010001300014U 020000000000000000000000000000000000000000000000000000000000000000000000000000000000000000000000000000000000000000000000001303201700000000            000000000000000                              000                           
0010001300015T 020180230000002544776 29647040601214282   7               15032017000000000006000001018376                         0900000000000010000000000000000000000000000000000000000   0000000000000000000000000A9        170192964704     
0010001300016U 020000000000000000000000000000000000000000000000000000000000000000000000000000000000000000000000000000000000000000000000001303201700000000            000000000000000                              000                           
0010001300017T 020180230000002544776 29647040601240885   7               15032017000000000006000001018376                         0900000000000010000000000000000000000000000000000000000   0000000000000000000000000A9        170192964704     
0010001300018U 020000000000000000000000000000000000000000000000000000000000000000000000000000000000000000000000000000000000000000000000001303201700000000            000000000000000                              000                           
0010001300019T 020180230000002544776 29647040623416651   7               15032017000000000006000001000132                         0900000000000010000000000000000000000000000000000000000   0000000000000000000000000A9        170192964704     
0010001300020U 020000000000000000000000000000000000000000000000000000000000000000000000000000000000000000000000000000000000000000000000001303201700000000            000000000000000                              000                           
0010001300021T 020180230000002544776 29647040623815112   7               15032017000000000006000001033316                         0900000000000010500000000000000000000000000000000000000   0000000000000000000000000A9A4      170192964704     
0010001300022U 020000000000000000000000000000000000000000000000000000000000000000000000000000000000000000000000000000000000000000000000001303201700000000            000000000000000                              000                           
0010001300023T 020180230000002544776 29647040638638115   7               15032017000000000006000001016179                         0900000000000010000000000000000000000000000000000000000   0000000000000000000000000A9        170192964704     
0010001300024U 020000000000000000000000000000000000000000000000000000000000000000000000000000000000000000000000000000000000000000000000001303201700000000            000000000000000                              000                           
0010001300025T 020180230000002544776 29647040647012059   7               15032017000000000006000001001511                         0900000000000010000000000000000000000000000000000000000   0000000000000000000000000A9        170192964704     
0010001300026U 020000000000000000000000000000000000000000000000000000000000000000000000000000000000000000000000000000000000000000000000001303201700000000            000000000000000                              000                           
0010001300027T 020180230000002544776 29647040648851059   7               15032017000000000006000001016179                         0900000000000010000000000000000000000000000000000000000   0000000000000000000000000A9        170192964704     
0010001300028U 020000000000000000000000000000000000000000000000000000000000000000000000000000000000000000000000000000000000000000000000001303201700000000            000000000000000                              000                           
0010001300029T 020180230000002544776 29647040688852937   7               13032017000000000008000001006734                         0900000000000010000000000000000000000000000000000000000   0000000000000000000000000A9        170192964704     
0010001300030U 020000000000000000000000000000000000000000000000000000000000000000000000000000000000000000000000000000000000000000000000001103201700000000            000000000000000                              000                           
0010001300031T 020180230000002544776 29647040700611522   7               13032017000000000006000001033316                         0900000000000010000000000000000000000000000000000000000   0000000000000000000000000A9        170192964704     
0010001300032U 020000000000000000000000000000000000000000000000000000000000000000000000000000000000000000000000000000000000000000000000001103201700000000            000000000000000                              000                           
0010001300033T 020180230000002544776 29647040704336341   7               15032017000000000006000001012467                         0900000000000010000000000000000000000000000000000000000   0000000000000000000000000A9        170192964704     
0010001300034U 020000000000000000000000000000000000000000000000000000000000000000000000000000000000000000000000000000000000000000000000001303201700000000            000000000000000                              000                           
0010001300035T 020180230000002544776 29647040707245044   7               14032017000000000006000001035041                         0900000000000010000000000000000000000000000000000000000   0000000000000000000000000A9        170192964704     
0010001300036U 020000000000000000000000000000000000000000000000000000000000000000000000000000000000000000000000000000000000000000000000001203201700000000            000000000000000                              000                           
0010001300037T 020180230000002544776 29647040711147782   7               15032017000000000006000001016179                         0900000000000010000000000000000000000000000000000000000   0000000000000000000000000A9        170192964704     
0010001300038U 020000000000000000000000000000000000000000000000000000000000000000000000000000000000000000000000000000000000000000000000001303201700000000            000000000000000                              000                           
0010001300039T 020180230000002544776 29647040719453313   7               14032017000000000006000001028029                         0900000000000010000000000000000000000000000000000000000   0000000000000000000000000A9        170192964704     
0010001300040U 020000000000000000000000000000000000000000000000000000000000000000000000000000000000000000000000000000000000000000000000001203201700000000            000000000000000                              000                           
0010001300041T 020180230000002544776 29647040722329236   7               15032017000000000006000001016179                         0900000000000010000000000000000000000000000000000000000   0000000000000000000000000A9        170192964704     
0010001300042U 020000000000000000000000000000000000000000000000000000000000000000000000000000000000000000000000000000000000000000000000001303201700000000            000000000000000                              000                           
0010001300043T 020180230000002544776 29647040725200066   7               15032017000000000006000001009849                         0900000000000010000000000000000000000000000000000000000   0000000000000000000000000A9        170192964704     
0010001300044U 020000000000000000000000000000000000000000000000000000000000000000000000000000000000000000000000000000000000000000000000001303201700000000            000000000000000                              000                           
0010001300045T 020180230000002544776 29647040725254739   7               15032017000000000006000001009849                         0900000000000010000000000000000000000000000000000000000   0000000000000000000000000A9        170192964704     
0010001300046U 020000000000000000000000000000000000000000000000000000000000000000000000000000000000000000000000000000000000000000000000001303201700000000            000000000000000                              000                           
0010001300047T 020180230000002544776 29647040735524460   7               14032017000000000006000001016179                         0900000000000010000000000000000000000000000000000000000   0000000000000000000000000A9        170192964704     
0010001300048U 020000000000000000000000000000000000000000000000000000000000000000000000000000000000000000000000000000000000000000000000001203201700000000            000000000000000                              000                           
0010001300049T 020180230000002544776 29647040762131489   7               15032017000000000006000001020354                         0900000000000010000000000000000000000000000000000000000   0000000000000000000000000A9        170192964704     
0010001300050U 020000000000000000000000000000000000000000000000000000000000000000000000000000000000000000000000000000000000000000000000001303201700000000            000000000000000                              000                           
0010001300051T 020180230000002544776 29647040764212508   7               14032017000000000006000001012467                         0900000000000010000000000000000000000000000000000000000   0000000000000000000000000A9        170192964704     
0010001300052U 020000000000000000000000000000000000000000000000000000000000000000000000000000000000000000000000000000000000000000000000001203201700000000            000000000000000                              000                           
0010001300053T 020180230000002544776 29647040769328745   7               13032017000000000006000001013595                         0900000000000010000000000000000000000000000000000000000   0000000000000000000000000A9        170192964704     
0010001300054U 020000000000000000000000000000000000000000000000000000000000000000000000000000000000000000000000000000000000000000000000001103201700000000            000000000000000                              000                           
0010001300055T 020180230000002544776 29647040771919993   7               14032017000000000006000001012467                         0900000000000010000000000000000000000000000000000000000   0000000000000000000000000A9        170192964704     
0010001300056U 020000000000000000000000000000000000000000000000000000000000000000000000000000000000000000000000000000000000000000000000001203201700000000            000000000000000                              000                           
0010001300057T 020180230000002544776 29647040774713942   7               13032017000000000006000001012467                         0900000000000010000000000000000000000000000000000000000   0000000000000000000000000A9        170192964704     
0010001300058U 020000000000000000000000000000000000000000000000000000000000000000000000000000000000000000000000000000000000000000000000001103201700000000            000000000000000                              000                           
0010001300059T 020180230000002544776 29647040774749020   7               13032017000000000006000001012467                         0900000000000010000000000000000000000000000000000000000   0000000000000000000000000A9        170192964704     
0010001300060U 020000000000000000000000000000000000000000000000000000000000000000000000000000000000000000000000000000000000000000000000001103201700000000            000000000000000                              000                           
0010001300061T 020180230000002544776 29647040780909147   7               15032017000000000006000001023655                         0900000000000010000000000000000000000000000000000000000   0000000000000000000000000A9        170192964704     
0010001300062U 020000000000000000000000000000000000000000000000000000000000000000000000000000000000000000000000000000000000000000000000001303201700000000            000000000000000                              000                           
0010001300063T 020180230000002544776 29647040783421149   7               15032017000000000008000001000132                         0900000000000010000000000000000000000000000000000000000   0000000000000000000000000A9        170192964704     
0010001300064U 020000000000000000000000000000000000000000000000000000000000000000000000000000000000000000000000000000000000000000000000001303201700000000            000000000000000                              000                           
0010001300065T 020180230000002544776 29647040783558450   7               15032017000000000006000001028029                         0900000000000010000000000000000000000000000000000000000   0000000000000000000000000A9        170192964704     
0010001300066U 020000000000000000000000000000000000000000000000000000000000000000000000000000000000000000000000000000000000000000000000001303201700000000            000000000000000                              000                           
0010001300067T 020180230000002544776 29647040785632958   7               14032017000000000006000001016179                         0900000000000010000000000000000000000000000000000000000   0000000000000000000000000A9        170192964704     
0010001300068U 020000000000000000000000000000000000000000000000000000000000000000000000000000000000000000000000000000000000000000000000001203201700000000            000000000000000                              000                           
0010001300069T 020180230000002544776 29647040785633658   7               14032017000000000006000001016179                         0900000000000010000000000000000000000000000000000000000   0000000000000000000000000A9        170192964704     
0010001300070U 020000000000000000000000000000000000000000000000000000000000000000000000000000000000000000000000000000000000000000000000001203201700000000            000000000000000                              000                           
0010001300071T 020180230000002544776 29647040792159905   7               15032017000000000006000001028029                         0900000000000010000000000000000000000000000000000000000   0000000000000000000000000A9        170192964704     
0010001300072U 020000000000000000000000000000000000000000000000000000000000000000000000000000000000000000000000000000000000000000000000001303201700000000            000000000000000                              000                           
0010001300073T 020180230000002544776 29647040792433139   7               15032017000000000006000001028029                         0900000000000010000000000000000000000000000000000000000   0000000000000000000000000A9        170192964704     
0010001300074U 020000000000000000000000000000000000000000000000000000000000000000000000000000000000000000000000000000000000000000000000001303201700000000            000000000000000                              000                           
0010001300075T 020180230000002544776 29647040792433561   7               15032017000000000006000001028029                         0900000000000010000000000000000000000000000000000000000   0000000000000000000000000A9        170192964704     
0010001300076U 020000000000000000000000000000000000000000000000000000000000000000000000000000000000000000000000000000000000000000000000001303201700000000            000000000000000                              000                           
0010001300077T 020180230000002544776 29647040795434663   7               15032017000000000006000001012467                         0900000000000010000000000000000000000000000000000000000   0000000000000000000000000A9        170192964704     
0010001300078U 020000000000000000000000000000000000000000000000000000000000000000000000000000000000000000000000000000000000000000000000001303201700000000            000000000000000                              000                           
0010001300079T 020180230000002544776 29647040810443121   7               15032017000000000008000001012467                         0900000000000010000000000000000000000000000000000000000   0000000000000000000000000A9        170192964704     
0010001300080U 020000000000000000000000000000000000000000000000000000000000000000000000000000000000000000000000000000000000000000000000001303201700000000            000000000000000                              000                           
0010001300081T 020180230000002544776 29647040816523846   7               13032017000000000006000001025429                         0900000000000010000000000000000000000000000000000000000   0000000000000000000000000A9        170192964704     
0010001300082U 020000000000000000000000000000000000000000000000000000000000000000000000000000000000000000000000000000000000000000000000001103201700000000            000000000000000                              000                           
0010001300083T 020180230000002544776 29647040834746263   7               13032017000000000006000001023655                         0900000000000010000000000000000000000000000000000000000   0000000000000000000000000A9        170192964704     
0010001300084U 020000000000000000000000000000000000000000000000000000000000000000000000000000000000000000000000000000000000000000000000001103201700000000            000000000000000                              000                           
0010001300085T 020180230000002544776 29647040848335600   7               14032017000000000006000001012467                         0900000000000010000000000000000000000000000000000000000   0000000000000000000000000A9        170192964704     
0010001300086U 020000000000000000000000000000000000000000000000000000000000000000000000000000000000000000000000000000000000000000000000001203201700000000            000000000000000                              000                           
0010001300087T 020180230000002544776 29647040849701531   7               13032017000000000006000001033316                         0900000000000010500000000000000000000000000000000000000   0000000000000000000000000A9A4      170192964704     
0010001300088U 020000000000000000000000000000000000000000000000000000000000000000000000000000000000000000000000000000000000000000000000001103201700000000            000000000000000                              000                           
0010001300089T 020180230000002544776 29647040857817971   7               14032017000000000008000001016179                         0900000000000010000000000000000000000000000000000000000   0000000000000000000000000A9        170192964704     
0010001300090U 020000000000000000000000000000000000000000000000000000000000000000000000000000000000000000000000000000000000000000000000001203201700000000            000000000000000                              000                           
0010001300091T 020180230000002544776 29647040857823940   7               14032017000000000008000001016179                         0900000000000010000000000000000000000000000000000000000   0000000000000000000000000A9        170192964704     
0010001300092U 020000000000000000000000000000000000000000000000000000000000000000000000000000000000000000000000000000000000000000000000001203201700000000            000000000000000                              000                           
0010001300093T 020180230000002544776 29647040861616844   7               14032017000000000006000001000132                         0900000000000010000000000000000000000000000000000000000   0000000000000000000000000A9        170192964704     
0010001300094U 020000000000000000000000000000000000000000000000000000000000000000000000000000000000000000000000000000000000000000000000001203201700000000            000000000000000                              000                           
0010001300095T 020180230000002544776 29647040861621879   7               14032017000000000006000001000132                         0900000000000010000000000000000000000000000000000000000   0000000000000000000000000A9        170192964704     
0010001300096U 020000000000000000000000000000000000000000000000000000000000000000000000000000000000000000000000000000000000000000000000001203201700000000            000000000000000                              000                           
0010001300097T 020180230000002544776 29647040869814986   7               15032017000000000006000001028029                         0900000000000010000000000000000000000000000000000000000   0000000000000000000000000A9        170192964704     
0010001300098U 020000000000000000000000000000000000000000000000000000000000000000000000000000000000000000000000000000000000000000000000001303201700000000            000000000000000                              000                           
0010001300099T 020180230000002544776 29647040871613474   7               15032017000000000006000001033316                         0900000000000010000000000000000000000000000000000000000   0000000000000000000000000A9        170192964704     
0010001300100U 020000000000000000000000000000000000000000000000000000000000000000000000000000000000000000000000000000000000000000000000001303201700000000            000000000000000                              000                           
0010001300101T 020180230000002544776 29647040871708329   7               15032017000000000006000001028029                         0900000000000010000000000000000000000000000000000000000   0000000000000000000000000A9        170192964704     
0010001300102U 020000000000000000000000000000000000000000000000000000000000000000000000000000000000000000000000000000000000000000000000001303201700000000            000000000000000                              000                           
0010001300103T 020180230000002544776 29647040880305814   7               14032017000000000008000001033316                         0900000000000010000000000000000000000000000000000000000   0000000000000000000000000A9        170192964704     
0010001300104U 020000000000000000000000000000000000000000000000000000000000000000000000000000000000000000000000000000000000000000000000001203201700000000            000000000000000                              000                           
0010001300105T 020180230000002544776 29647040883913451   7               14032017000000000006000001008214                         0900000000000010000000000000000000000000000000000000000   0000000000000000000000000A9        170192964704     
0010001300106U 020000000000000000000000000000000000000000000000000000000000000000000000000000000000000000000000000000000000000000000000001203201700000000            000000000000000                              000                           
0010001300107T 020180230000002544776 29647040917816010   7               13032017000000000006000001033316                         0900000000000010000000000000000000000000000000000000000   0000000000000000000000000A9        170192964704     
0010001300108U 020000000000000000000000000000000000000000000000000000000000000000000000000000000000000000000000000000000000000000000000001103201700000000            000000000000000                              000                           
0010001300109T 020180230000002544776 29647040917854021   7               15032017000000000006000001033316                         0900000000000010000000000000000000000000000000000000000   0000000000000000000000000A9        170192964704     
0010001300110U 020000000000000000000000000000000000000000000000000000000000000000000000000000000000000000000000000000000000000000000000001303201700000000            000000000000000                              000                           
0010001300111T 020180230000002544776 29647040921635931   7               15032017000000000008000001008214                         0900000000000010000000000000000000000000000000000000000   0000000000000000000000000A9        170192964704     
0010001300112U 020000000000000000000000000000000000000000000000000000000000000000000000000000000000000000000000000000000000000000000000001303201700000000            000000000000000                              000                           
0010001300113T 020180230000002544776 29647040922506054   7               15032017000000000006000001028029                         0900000000000010000000000000000000000000000000000000000   0000000000000000000000000A9        170192964704     
0010001300114U 020000000000000000000000000000000000000000000000000000000000000000000000000000000000000000000000000000000000000000000000001303201700000000            000000000000000                              000                           
0010001300115T 020180230000002544776 29647040922534692   7               13032017000000000006000001028029                         0900000000000010000000000000000000000000000000000000000   0000000000000000000000000A9        170192964704     
0010001300116U 020000000000000000000000000000000000000000000000000000000000000000000000000000000000000000000000000000000000000000000000001103201700000000            000000000000000                              000                           
0010001300117T 020180230000002544776 29647040922555615   7               13032017000000000006000001028029                         0900000000000010000000000000000000000000000000000000000   0000000000000000000000000A9        170192964704     
0010001300118U 020000000000000000000000000000000000000000000000000000000000000000000000000000000000000000000000000000000000000000000000001103201700000000            000000000000000                              000                           
0010001300119T 020180230000002544776 29647040923331187   7               15032017000000000006000001008249                         0900000000000010000000000000000000000000000000000000000   0000000000000000000000000A9        170192964704     
0010001300120U 020000000000000000000000000000000000000000000000000000000000000000000000000000000000000000000000000000000000000000000000001303201700000000            000000000000000                              000                           
0010001300121T 020180230000002544776 29647040926018978   7               13032017000000000006000001016179                         0900000000000010000000000000000000000000000000000000000   0000000000000000000000000A9        170192964704     
0010001300122U 020000000000000000000000000000000000000000000000000000000000000000000000000000000000000000000000000000000000000000000000001103201700000000            000000000000000                              000                           
0010001300123T 020180230000002544776 29647040929103679   7               14032017000000000008000001012467                         0900000000000010000000000000000000000000000000000000000   0000000000000000000000000A9        170192964704     
0010001300124U 020000000000000000000000000000000000000000000000000000000000000000000000000000000000000000000000000000000000000000000000001203201700000000            000000000000000                              000                           
0010001300125T 020180230000002544776 29647040929103680   7               14032017000000000008000001012467                         0900000000000010000000000000000000000000000000000000000   0000000000000000000000000A9        170192964704     
0010001300126U 020000000000000000000000000000000000000000000000000000000000000000000000000000000000000000000000000000000000000000000000001203201700000000            000000000000000                              000                           
0010001300127T 020180230000002544776 29647040931755013   7               13032017000000000006000001002461                         0900000000000010000000000000000000000000000000000000000   0000000000000000000000000A9        170192964704     
0010001300128U 020000000000000000000000000000000000000000000000000000000000000000000000000000000000000000000000000000000000000000000000001103201700000000            000000000000000                              000                           
0010001300129T 020180230000002544776 29647040951722883   7               14032017000000000006000001018376                         0900000000000010000000000000000000000000000000000000000   0000000000000000000000000A9        170192964704     
0010001300130U 020000000000000000000000000000000000000000000000000000000000000000000000000000000000000000000000000000000000000000000000001203201700000000            000000000000000                              000                           
0010001300131T 020180230000002544776 29647040954332433   7               15032017000000000006000001000132                         0900000000000010000000000000000000000000000000000000000   0000000000000000000000000A9        170192964704     
0010001300132U 020000000000000000000000000000000000000000000000000000000000000000000000000000000000000000000000000000000000000000000000001303201700000000            000000000000000                              000                           
0010001300133T 020180230000002544776 29647040954340238   7               13032017000000000006000001000132                         0900000000000010000000000000000000000000000000000000000   0000000000000000000000000A9        170192964704     
0010001300134U 020000000000000000000000000000000000000000000000000000000000000000000000000000000000000000000000000000000000000000000000001103201700000000            000000000000000                              000                           
0010001300135T 020180230000002544776 29647040954348316   7               13032017000000000006000001000132                         0900000000000010000000000000000000000000000000000000000   0000000000000000000000000A9        170192964704     
0010001300136U 020000000000000000000000000000000000000000000000000000000000000000000000000000000000000000000000000000000000000000000000001103201700000000            000000000000000                              000                           
0010001300137T 020180230000002544776 29647040954353237   7               13032017000000000006000001000132                         0900000000000010000000000000000000000000000000000000000   0000000000000000000000000A9        170192964704     
0010001300138U 020000000000000000000000000000000000000000000000000000000000000000000000000000000000000000000000000000000000000000000000001103201700000000            000000000000000                              000                           
0010001300139T 020180230000002544776 29647040956725221   7               15032017000000000006000001018376                         0900000000000010000000000000000000000000000000000000000   0000000000000000000000000A9        170192964704     
0010001300140U 020000000000000000000000000000000000000000000000000000000000000000000000000000000000000000000000000000000000000000000000001303201700000000            000000000000000                              000                           
0010001300141T 020180230000002544776 29647040957511984   7               14032017000000000006000001018376                         0900000000000010000000000000000000000000000000000000000   0000000000000000000000000A9        170192964704     
0010001300142U 020000000000000000000000000000000000000000000000000000000000000000000000000000000000000000000000000000000000000000000000001203201700000000            000000000000000                              000                           
0010001300143T 020180230000002544776 29647040962148918   7               15032017000000000006000001012467                         0900000000000010000000000000000000000000000000000000000   0000000000000000000000000A9        170192964704     
0010001300144U 020000000000000000000000000000000000000000000000000000000000000000000000000000000000000000000000000000000000000000000000001303201700000000            000000000000000                              000                           
0010001300145T 020180230000002544776 29647040963929052   7               15032017000000000006000001033316                         0900000000000010000000000000000000000000000000000000000   0000000000000000000000000A9        170192964704     
0010001300146U 020000000000000000000000000000000000000000000000000000000000000000000000000000000000000000000000000000000000000000000000001303201700000000            000000000000000                              000                           
0010001300147T 020180230000002544776 29647040963949664   7               15032017000000000006000001033316                         0900000000000010000000000000000000000000000000000000000   0000000000000000000000000A9        170192964704     
0010001300148U 020000000000000000000000000000000000000000000000000000000000000000000000000000000000000000000000000000000000000000000000001303201700000000            000000000000000                              000                           
0010001300149T 020180230000002544776 29647040967317867   7               14032017000000000006000001008214                         0900000000000010000000000000000000000000000000000000000   0000000000000000000000000A9        170192964704     
0010001300150U 020000000000000000000000000000000000000000000000000000000000000000000000000000000000000000000000000000000000000000000000001203201700000000            000000000000000                              000                           
0010001300151T 020180230000002544776 29647040967336888   7               14032017000000000006000001008214                         0900000000000010000000000000000000000000000000000000000   0000000000000000000000000A9        170192964704     
0010001300152U 020000000000000000000000000000000000000000000000000000000000000000000000000000000000000000000000000000000000000000000000001203201700000000            000000000000000                              000                           
0010001300153T 020180230000002544776 29647040977021008   7               13032017000000000006000001002003                         0900000000000010000000000000000000000000000000000000000   0000000000000000000000000A9        170192964704     
0010001300154U 020000000000000000000000000000000000000000000000000000000000000000000000000000000000000000000000000000000000000000000000001103201700000000            000000000000000                              000                           
0010001300155T 020180230000002544776 29647040980628952   7               1403201700000000000600000101138X                         0900000000000010500000000000000000000000000000000000000   0000000000000000000000000A9A4      170192964704     
0010001300156U 020000000000000000000000000000000000000000000000000000000000000000000000000000000000000000000000000000000000000000000000001203201700000000            000000000000000                              000                           
0010001300157T 020180230000002544776 29647040985057015   7               15032017000000000006000001005479                         0900000000000010500000000000000000000000000000000000000   0000000000000000000000000A9A4      170192964704     
0010001300158U 020000000000000000000000000000000000000000000000000000000000000000000000000000000000000000000000000000000000000000000000001303201700000000            000000000000000                              000                           
0010001300159T 020180230000002544776 29647040986429326   7               14032017000000000006000001028029                         0900000000000010000000000000000000000000000000000000000   0000000000000000000000000A9        170192964704     
0010001300160U 020000000000000000000000000000000000000000000000000000000000000000000000000000000000000000000000000000000000000000000000001203201700000000            000000000000000                              000                           
0010001300161T 020180230000002544776 29647040987021267   7               13032017000000000006000001023655                         0900000000000010000000000000000000000000000000000000000   0000000000000000000000000A9        170192964704     
0010001300162U 020000000000000000000000000000000000000000000000000000000000000000000000000000000000000000000000000000000000000000000000001103201700000000            000000000000000                              000                           
0010001300163T 020180230000002544776 29647040989829534   7               15032017000000000006000001007145                         0900000000000010500000000000000000000000000000000000000   0000000000000000000000000A9A4      170192964704     
0010001300164U 020000000000000000000000000000000000000000000000000000000000000000000000000000000000000000000000000000000000000000000000001303201700000000            000000000000000                              000                           
0010001300165T 020180230000002544776 29647040990038987   7               15032017000000000006000001038024                         0900000000000010000000000000000000000000000000000000000   0000000000000000000000000A9        170192964704     
0010001300166U 020000000000000000000000000000000000000000000000000000000000000000000000000000000000000000000000000000000000000000000000001303201700000000            000000000000000                              000                           
0010001300167T 020180230000002544776 29647040993418924   7               14032017000000000006000001001201                         0900000000000010000000000000000000000000000000000000000   0000000000000000000000000A9        170192964704     
0010001300168U 020000000000000000000000000000000000000000000000000000000000000000000000000000000000000000000000000000000000000000000000001203201700000000            000000000000000                              000                           
0010001300169T 020180230000002544776 29647041002331182   7               14032017000000000006000001033316                         0900000000000010000000000000000000000000000000000000000   0000000000000000000000000A9        170192964704     
0010001300170U 020000000000000000000000000000000000000000000000000000000000000000000000000000000000000000000000000000000000000000000000001203201700000000            000000000000000                              000                           
0010001300171T 020180230000002544776 29647041003144916   7               15032017000000000006000001000132                         0900000000000010500000000000000000000000000000000000000   0000000000000000000000000A9A4      170192964704     
0010001300172U 020000000000000000000000000000000000000000000000000000000000000000000000000000000000000000000000000000000000000000000000001303201700000000            000000000000000                              000                           
0010001300173T 020180230000002544776 29647041005115614   7               15032017000000000008000001020354                         0900000000000010000000000000000000000000000000000000000   0000000000000000000000000A9        170192964704     
0010001300174U 020000000000000000000000000000000000000000000000000000000000000000000000000000000000000000000000000000000000000000000000001303201700000000            000000000000000                              000                           
0010001300175T 020180230000002544776 29647041006627344   7               14032017000000000006000001011398                         0900000000000010000000000000000000000000000000000000000   0000000000000000000000000A9        170192964704     
0010001300176U 020000000000000000000000000000000000000000000000000000000000000000000000000000000000000000000000000000000000000000000000001203201700000000            000000000000000                              000                           
0010001300177T 020180230000002544776 29647041015331622   7               13032017000000000006000001012467                         0900000000000010000000000000000000000000000000000000000   0000000000000000000000000A9        170192964704     
0010001300178U 020000000000000000000000000000000000000000000000000000000000000000000000000000000000000000000000000000000000000000000000001103201700000000            000000000000000                              000                           
0010001300179T 020180230000002544776 29647041027615696   7               13032017000000000006000001028029                         0900000000000010500000000000000000000000000000000000000   0000000000000000000000000A9A4      170192964704     
0010001300180U 020000000000000000000000000000000000000000000000000000000000000000000000000000000000000000000000000000000000000000000000001103201700000000            000000000000000                              000                           
0010001300181T 020180230000002544776 29647041028816961   7               14032017000000000006000001005428                         0900000000000010000000000000000000000000000000000000000   0000000000000000000000000A9        170192964704     
0010001300182U 020000000000000000000000000000000000000000000000000000000000000000000000000000000000000000000000000000000000000000000000001203201700000000            000000000000000                              000                           
0010001300183T 020180230000002544776 29647041046514374   7               14032017000000000008000001012467                         0900000000000010000000000000000000000000000000000000000   0000000000000000000000000A9        170192964704     
0010001300184U 020000000000000000000000000000000000000000000000000000000000000000000000000000000000000000000000000000000000000000000000001203201700000000            000000000000000                              000                           
0010001300185T 020180230000002544776 29647041046919102   7               14032017000000000006000001012467                         0900000000000010000000000000000000000000000000000000000   0000000000000000000000000A9        170192964704     
0010001300186U 020000000000000000000000000000000000000000000000000000000000000000000000000000000000000000000000000000000000000000000000001203201700000000            000000000000000                              000                           
0010001300187T 020180230000002544776 29647041048503556   7               15032017000000000006000001000132                         0900000000000010000000000000000000000000000000000000000   0000000000000000000000000A9        170192964704     
0010001300188U 020000000000000000000000000000000000000000000000000000000000000000000000000000000000000000000000000000000000000000000000001303201700000000            000000000000000                              000                           
0010001300189T 020180230000002544776 29647041052244838   7               13032017000000000006000001025291                         0900000000000010000000000000000000000000000000000000000   0000000000000000000000000A9        170192964704     
0010001300190U 020000000000000000000000000000000000000000000000000000000000000000000000000000000000000000000000000000000000000000000000001103201700000000            000000000000000                              000                           
0010001300191T 020180230000002544776 29647041066530491   7               15032017000000000006000001028029                         0900000000000010000000000000000000000000000000000000000   0000000000000000000000000A9        170192964704     
0010001300192U 020000000000000000000000000000000000000000000000000000000000000000000000000000000000000000000000000000000000000000000000001303201700000000            000000000000000                              000                           
0010001300193T 020180230000002544776 29647041069259743   7               15032017000000000006000001016179                         0900000000000010000000000000000000000000000000000000000   0000000000000000000000000A9        170192964704     
0010001300194U 020000000000000000000000000000000000000000000000000000000000000000000000000000000000000000000000000000000000000000000000001303201700000000            000000000000000                              000                           
0010001300195T 020180230000002544776 29647041081356921   7               13032017000000000006000001016179                         0900000000000010000000000000000000000000000000000000000   0000000000000000000000000A9        170192964704     
0010001300196U 020000000000000000000000000000000000000000000000000000000000000000000000000000000000000000000000000000000000000000000000001103201700000000            000000000000000                              000                           
0010001300197T 020180230000002544776 29647041081504727   7               15032017000000000008000001028029                         0900000000000010500000000000000000000000000000000000000   0000000000000000000000000A9A4      170192964704     
0010001300198U 020000000000000000000000000000000000000000000000000000000000000000000000000000000000000000000000000000000000000000000000001303201700000000            000000000000000                              000                           
0010001300199T 020180230000002544776 29647041081525139   7               15032017000000000008000001028029                         0900000000000010500000000000000000000000000000000000000   0000000000000000000000000A9A4      170192964704     
0010001300200U 020000000000000000000000000000000000000000000000000000000000000000000000000000000000000000000000000000000000000000000000001303201700000000            000000000000000                              000                           
0010001300201T 020180230000002544776 29647041087935864   7               15032017000000000006000001001368                         0900000000000010000000000000000000000000000000000000000   0000000000000000000000000A9        170192964704     
0010001300202U 020000000000000000000000000000000000000000000000000000000000000000000000000000000000000000000000000000000000000000000000001303201700000000            000000000000000                              000                           
0010001300203T 020180230000002544776 29647041088841101   7               15032017000000000006000001008214                         0900000000000010000000000000000000000000000000000000000   0000000000000000000000000A9        170192964704     
0010001300204U 020000000000000000000000000000000000000000000000000000000000000000000000000000000000000000000000000000000000000000000000001303201700000000            000000000000000                              000                           
0010001300205T 020180230000002544776 29647041090913139   7               14032017000000000006000001023655                         0900000000000010000000000000000000000000000000000000000   0000000000000000000000000A9        170192964704     
0010001300206U 020000000000000000000000000000000000000000000000000000000000000000000000000000000000000000000000000000000000000000000000001203201700000000            000000000000000                              000                           
0010001300207T 020180230000002544776 29647041095844018   7               15032017000000000006000001028029                         0900000000000010500000000000000000000000000000000000000   0000000000000000000000000A9A4      170192964704     
0010001300208U 020000000000000000000000000000000000000000000000000000000000000000000000000000000000000000000000000000000000000000000000001303201700000000            000000000000000                              000                           
0010001300209T 020180230000002544776 29647041098653805   7               15032017000000000006000001023655                         0900000000000010000000000000000000000000000000000000000   0000000000000000000000000A9        170192964704     
0010001300210U 020000000000000000000000000000000000000000000000000000000000000000000000000000000000000000000000000000000000000000000000001303201700000000            000000000000000                              000                           
0010001300211T 020180230000002544776 29647041099253595   7               13032017000000000006000001016179                         0900000000000010000000000000000000000000000000000000000   0000000000000000000000000A9        170192964704     
0010001300212U 020000000000000000000000000000000000000000000000000000000000000000000000000000000000000000000000000000000000000000000000001103201700000000            000000000000000                              000                           
0010001300213T 020180230000002544776 29647041099254755   7               13032017000000000006000001016179                         0900000000000010000000000000000000000000000000000000000   0000000000000000000000000A9        170192964704     
0010001300214U 020000000000000000000000000000000000000000000000000000000000000000000000000000000000000000000000000000000000000000000000001103201700000000            000000000000000                              000                           
0010001300215T 020180230000002544776 29647041101338303   7               15032017000000000006000001000132                         0900000000000010000000000000000000000000000000000000000   0000000000000000000000000A9        170192964704     
0010001300216U 020000000000000000000000000000000000000000000000000000000000000000000000000000000000000000000000000000000000000000000000001303201700000000            000000000000000                              000                           
0010001300217T 020180230000002544776 29647041101404007   7               15032017000000000008000001007218                         0900000000000010000000000000000000000000000000000000000   0000000000000000000000000A9        170192964704     
0010001300218U 020000000000000000000000000000000000000000000000000000000000000000000000000000000000000000000000000000000000000000000000001303201700000000            000000000000000                              000                           
0010001300219T 020180230000002544776 29647041102504545   7               15032017000000000006000001016179                         0900000000000010000000000000000000000000000000000000000   0000000000000000000000000A9        170192964704     
0010001300220U 020000000000000000000000000000000000000000000000000000000000000000000000000000000000000000000000000000000000000000000000001303201700000000            000000000000000                              000                           
0010001300221T 020180230000002544776 29647041103249839   7               15032017000000000006000001013617                         0900000000000010000000000000000000000000000000000000000   0000000000000000000000000A9        170192964704     
0010001300222U 020000000000000000000000000000000000000000000000000000000000000000000000000000000000000000000000000000000000000000000000001303201700000000            000000000000000                              000                           
0010001300223T 020180230000002544776 29647041108204509   7               14032017000000000006000001018376                         0900000000000010000000000000000000000000000000000000000   0000000000000000000000000A9        170192964704     
0010001300224U 020000000000000000000000000000000000000000000000000000000000000000000000000000000000000000000000000000000000000000000000001203201700000000            000000000000000                              000                           
0010001300225T 020180230000002544776 29647041110452702   7               15032017000000000006000001016179                         0900000000000010000000000000000000000000000000000000000   0000000000000000000000000A9        170192964704     
0010001300226U 020000000000000000000000000000000000000000000000000000000000000000000000000000000000000000000000000000000000000000000000001303201700000000            000000000000000                              000                           
0010001300227T 020180230000002544776 29647041112207236   7               15032017000000000006000001028029                         0900000000000010000000000000000000000000000000000000000   0000000000000000000000000A9        170192964704     
0010001300228U 020000000000000000000000000000000000000000000000000000000000000000000000000000000000000000000000000000000000000000000000001303201700000000            000000000000000                              000                           
0010001300229T 020180230000002544776 29647041113416947   7               15032017000000000006000001028029                         0900000000000010000000000000000000000000000000000000000   0000000000000000000000000A9        170192964704     
0010001300230U 020000000000000000000000000000000000000000000000000000000000000000000000000000000000000000000000000000000000000000000000001303201700000000            000000000000000                              000                           
0010001300231T 020180230000002544776 29647041116819602   7               15032017000000000006000001016179                         0900000000000010000000000000000000000000000000000000000   0000000000000000000000000A9        170192964704     
0010001300232U 020000000000000000000000000000000000000000000000000000000000000000000000000000000000000000000000000000000000000000000000001303201700000000            000000000000000                              000                           
0010001300233T 020180230000002544776 29647041119550060   7               13032017000000000006000001035041                         0900000000000010000000000000000000000000000000000000000   0000000000000000000000000A9        170192964704     
0010001300234U 020000000000000000000000000000000000000000000000000000000000000000000000000000000000000000000000000000000000000000000000001103201700000000            000000000000000                              000                           
0010001300235T 020180230000002544776 29647041122133355   7               15032017000000000006000001000132                         0900000000000010500000000000000000000000000000000000000   0000000000000000000000000A9A4      170192964704     
0010001300236U 020000000000000000000000000000000000000000000000000000000000000000000000000000000000000000000000000000000000000000000000001303201700000000            000000000000000                              000                           
0010001300237T 020180230000002544776 29647041124553861   7               1503201700000000000600000100233X                         0900000000000010000000000000000000000000000000000000000   0000000000000000000000000A9        170192964704     
0010001300238U 020000000000000000000000000000000000000000000000000000000000000000000000000000000000000000000000000000000000000000000000001303201700000000            000000000000000                              000                           
0010001300239T 020180230000002544776 29647041124828664   7               15032017000000000006000001002321                         0900000000000010000000000000000000000000000000000000000   0000000000000000000000000A9        170192964704     
0010001300240U 020000000000000000000000000000000000000000000000000000000000000000000000000000000000000000000000000000000000000000000000001303201700000000            000000000000000                              000                           
0010001300241T 020180230000002544776 29647041125129971   7               15032017000000000006000001028029                         0900000000000010000000000000000000000000000000000000000   0000000000000000000000000A9        170192964704     
0010001300242U 020000000000000000000000000000000000000000000000000000000000000000000000000000000000000000000000000000000000000000000000001303201700000000            000000000000000                              000                           
0010001300243T 020180230000002544776 29647041129024188   7               15032017000000000006000001028495                         0900000000000010000000000000000000000000000000000000000   0000000000000000000000000A9        170192964704     
0010001300244U 020000000000000000000000000000000000000000000000000000000000000000000000000000000000000000000000000000000000000000000000001303201700000000            000000000000000                              000                           
0010001300245T 020180230000002544776 29647041131446975   7               15032017000000000006000001028029                         0900000000000010000000000000000000000000000000000000000   0000000000000000000000000A9        170192964704     
0010001300246U 020000000000000000000000000000000000000000000000000000000000000000000000000000000000000000000000000000000000000000000000001303201700000000            000000000000000                              000                           
0010001300247T 020180230000002544776 29647041132114996   7               1503201700000000000800000100233X                         0900000000000010000000000000000000000000000000000000000   0000000000000000000000000A9        170192964704     
0010001300248U 020000000000000000000000000000000000000000000000000000000000000000000000000000000000000000000000000000000000000000000000001303201700000000            000000000000000                              000                           
0010001300249T 020180230000002544776 29647041135455718   7               15032017000000000008000001000132                         0900000000000010000000000000000000000000000000000000000   0000000000000000000000000A9        170192964704     
0010001300250U 020000000000000000000000000000000000000000000000000000000000000000000000000000000000000000000000000000000000000000000000001303201700000000            000000000000000                              000                           
0010001300251T 020180230000002544776 29647041137855211   7               12032017000000000006000001023655                         0900000000000010000000000000000000000000000000000000000   0000000000000000000000000A9        170192964704     
0010001300252U 020000000000000000000000000000000000000000000000000000000000000000000000000000000000000000000000000000000000000000000000001003201700000000            000000000000000                              000                           
0010001300253T 020180230000002544776 29647041139836279   7               15032017000000000008000001022195                         0900000000000010000000000000000000000000000000000000000   0000000000000000000000000A9        170192964704     
0010001300254U 020000000000000000000000000000000000000000000000000000000000000000000000000000000000000000000000000000000000000000000000001303201700000000            000000000000000                              000                           
0010001300255T 020180230000002544776 29647041143626293   7               15032017000000000006000001016179                         0900000000000010000000000000000000000000000000000000000   0000000000000000000000000A9        170192964704     
0010001300256U 020000000000000000000000000000000000000000000000000000000000000000000000000000000000000000000000000000000000000000000000001303201700000000            000000000000000                              000                           
0010001300257T 020180230000002544776 29647041148713890   7               15032017000000000006000001000132                         0900000000000010000000000000000000000000000000000000000   0000000000000000000000000A9        170192964704     
0010001300258U 020000000000000000000000000000000000000000000000000000000000000000000000000000000000000000000000000000000000000000000000001303201700000000            000000000000000                              000                           
0010001300259T 020180230000002544776 29647041149346966   7               15032017000000000006000001000132                         0900000000000010000000000000000000000000000000000000000   0000000000000000000000000A9        170192964704     
0010001300260U 020000000000000000000000000000000000000000000000000000000000000000000000000000000000000000000000000000000000000000000000001303201700000000            000000000000000                              000                           
0010001300261T 020180230000002544776 29647041149839560   7               14032017000000000006000001001597                         0900000000000010000000000000000000000000000000000000000   0000000000000000000000000A9        170192964704     
0010001300262U 020000000000000000000000000000000000000000000000000000000000000000000000000000000000000000000000000000000000000000000000001203201700000000            000000000000000                              000                           
0010001300263T 020180230000002544776 29647041150323271   7               14032017000000000006000001002461                         0900000000000010000000000000000000000000000000000000000   0000000000000000000000000A9        170192964704     
0010001300264U 020000000000000000000000000000000000000000000000000000000000000000000000000000000000000000000000000000000000000000000000001203201700000000            000000000000000                              000                           
0010001300265T 020180230000002544776 29647041150356743   7               14032017000000000006000001002461                         0900000000000010000000000000000000000000000000000000000   0000000000000000000000000A9        170192964704     
0010001300266U 020000000000000000000000000000000000000000000000000000000000000000000000000000000000000000000000000000000000000000000000001203201700000000            000000000000000                              000                           
0010001300267T 020180230000002544776 29647041155758895   7               15032017000000000006000001023655                         0900000000000010000000000000000000000000000000000000000   0000000000000000000000000A9        170192964704     
0010001300268U 020000000000000000000000000000000000000000000000000000000000000000000000000000000000000000000000000000000000000000000000001303201700000000            000000000000000                              000                           
0010001300269T 020180230000002544776 29647041164049379   7               15032017000000000006000001008214                         0900000000000010000000000000000000000000000000000000000   0000000000000000000000000A9        170192964704     
0010001300270U 020000000000000000000000000000000000000000000000000000000000000000000000000000000000000000000000000000000000000000000000001303201700000000            000000000000000                              000                           
0010001300271T 020180230000002544776 29647041165256596   7               15032017000000000006000001018376                         0900000000000010000000000000000000000000000000000000000   0000000000000000000000000A9        170192964704     
0010001300272U 020000000000000000000000000000000000000000000000000000000000000000000000000000000000000000000000000000000000000000000000001303201700000000            000000000000000                              000                           
0010001300273T 020180230000002544776 29647041180853263   7               14032017000000000006000001001368                         0900000000000010000000000000000000000000000000000000000   0000000000000000000000000A9        170192964704     
0010001300274U 020000000000000000000000000000000000000000000000000000000000000000000000000000000000000000000000000000000000000000000000001203201700000000            000000000000000                              000                           
0010001300275T 020180230000002544776 29647041181554101   7               15032017000000000006000001016179                         0900000000000010500000000000000000000000000000000000000   0000000000000000000000000A9A4      170192964704     
0010001300276U 020000000000000000000000000000000000000000000000000000000000000000000000000000000000000000000000000000000000000000000000001303201700000000            000000000000000                              000                           
0010001300277T 020180230000002544776 29647041192318055   7               12032017000000000006000001010588                         0900000000000010500000000000000000000000000000000000000   0000000000000000000000000A9A4      170192964704     
0010001300278U 020000000000000000000000000000000000000000000000000000000000000000000000000000000000000000000000000000000000000000000000001003201700000000            000000000000000                              000                           
0010001300279T 020180230000002544776 29647041192956310   7               12032017000000000008000001034770                         0900000000000010000000000000000000000000000000000000000   0000000000000000000000000A9        170192964704     
0010001300280U 020000000000000000000000000000000000000000000000000000000000000000000000000000000000000000000000000000000000000000000000001003201700000000            000000000000000                              000                           
0010001300281T 020180230000002544776 29647041193112068   7               12032017000000000006000001000132                         0900000000000010000000000000000000000000000000000000000   0000000000000000000000000A9        170192964704     
0010001300282U 020000000000000000000000000000000000000000000000000000000000000000000000000000000000000000000000000000000000000000000000001003201700000000            000000000000000                              000                           
0010001300283T 020180230000002544776 29647041193320047   7               12032017000000000006000001020354                         0900000000000010000000000000000000000000000000000000000   0000000000000000000000000A9        170192964704     
0010001300284U 020000000000000000000000000000000000000000000000000000000000000000000000000000000000000000000000000000000000000000000000001003201700000000            000000000000000                              000                           
0010001300285T 020180230000002544776 29647041193405996   7               12032017000000000006000001006734                         0900000000000010000000000000000000000000000000000000000   0000000000000000000000000A9        170192964704     
0010001300286U 020000000000000000000000000000000000000000000000000000000000000000000000000000000000000000000000000000000000000000000000001003201700000000            000000000000000                              000                           
0010001300287T 020180230000002544776 29647041193529860   7               12032017000000000006000001002836                         0900000000000010000000000000000000000000000000000000000   0000000000000000000000000A9        170192964704     
0010001300288U 020000000000000000000000000000000000000000000000000000000000000000000000000000000000000000000000000000000000000000000000001003201700000000            000000000000000                              000                           
0010001300289T 020180230000002544776 29647041194245631   7               12032017000000000008000001034770                         0900000000000010000000000000000000000000000000000000000   0000000000000000000000000A9        170192964704     
0010001300290U 020000000000000000000000000000000000000000000000000000000000000000000000000000000000000000000000000000000000000000000000001003201700000000            000000000000000                              000                           
0010001300291T 020180230000002544776 29647041194750834   7               13032017000000000006000001028029                         0900000000000010000000000000000000000000000000000000000   0000000000000000000000000A9        170192964704     
0010001300292U 020000000000000000000000000000000000000000000000000000000000000000000000000000000000000000000000000000000000000000000000001103201700000000            000000000000000                              000                           
0010001300293T 020180230000002544776 29647041195124932   7               13032017000000000008000001000132                         0900000000000010000000000000000000000000000000000000000   0000000000000000000000000A9        170192964704     
0010001300294U 020000000000000000000000000000000000000000000000000000000000000000000000000000000000000000000000000000000000000000000000001103201700000000            000000000000000                              000                           
0010001300295T 020180230000002544776 29647041195239884   7               13032017000000000006000001000132                         0900000000000010000000000000000000000000000000000000000   0000000000000000000000000A9        170192964704     
0010001300296U 020000000000000000000000000000000000000000000000000000000000000000000000000000000000000000000000000000000000000000000000001103201700000000            000000000000000                              000                           
0010001300297T 020180230000002544776 29647041195241300   7               13032017000000000006000001000132                         0900000000000010000000000000000000000000000000000000000   0000000000000000000000000A9        170192964704     
0010001300298U 020000000000000000000000000000000000000000000000000000000000000000000000000000000000000000000000000000000000000000000000001103201700000000            000000000000000                              000                           
0010001300299T 020180230000002544776 29647041195819249   7               13032017000000000008000001020354                         0900000000000010000000000000000000000000000000000000000   0000000000000000000000000A9        170192964704     
0010001300300U 020000000000000000000000000000000000000000000000000000000000000000000000000000000000000000000000000000000000000000000000001103201700000000            000000000000000                              000                           
0010001300301T 020180230000002544776 29647041195847473   7               13032017000000000008000001020354                         0900000000000010000000000000000000000000000000000000000   0000000000000000000000000A9        170192964704     
0010001300302U 020000000000000000000000000000000000000000000000000000000000000000000000000000000000000000000000000000000000000000000000001103201700000000            000000000000000                              000                           
0010001300303T 020180230000002544776 29647041196055964   7               13032017000000000006000001016179                         0900000000000010000000000000000000000000000000000000000   0000000000000000000000000A9        170192964704     
0010001300304U 020000000000000000000000000000000000000000000000000000000000000000000000000000000000000000000000000000000000000000000000001103201700000000            000000000000000                              000                           
0010001300305T 020180230000002544776 29647041197540189   7               13032017000000000008000001000132                         0900000000000010000000000000000000000000000000000000000   0000000000000000000000000A9        170192964704     
0010001300306U 020000000000000000000000000000000000000000000000000000000000000000000000000000000000000000000000000000000000000000000000001103201700000000            000000000000000                              000                           
0010001300307T 020180230000002544776 29647041197547687   7               13032017000000000008000001000132                         0900000000000010000000000000000000000000000000000000000   0000000000000000000000000A9        170192964704     
0010001300308U 020000000000000000000000000000000000000000000000000000000000000000000000000000000000000000000000000000000000000000000000001103201700000000            000000000000000                              000                           
0010001300309T 020180230000002544776 29647041198110530   7               13032017000000000006000001000132                         0900000000000010000000000000000000000000000000000000000   0000000000000000000000000A9        170192964704     
0010001300310U 020000000000000000000000000000000000000000000000000000000000000000000000000000000000000000000000000000000000000000000000001103201700000000            000000000000000                              000                           
0010001300311T 020180230000002544776 29647041198122067   7               13032017000000000006000001000132                         0900000000000010000000000000000000000000000000000000000   0000000000000000000000000A9        170192964704     
0010001300312U 020000000000000000000000000000000000000000000000000000000000000000000000000000000000000000000000000000000000000000000000001103201700000000            000000000000000                              000                           
0010001300313T 020180230000002544776 29647041198158913   7               13032017000000000006000001000132                         0900000000000010000000000000000000000000000000000000000   0000000000000000000000000A9        170192964704     
0010001300314U 020000000000000000000000000000000000000000000000000000000000000000000000000000000000000000000000000000000000000000000000001103201700000000            000000000000000                              000                           
0010001300315T 020180230000002544776 29647041198238545   7               13032017000000000008000001018376                         0900000000000010000000000000000000000000000000000000000   0000000000000000000000000A9        170192964704     
0010001300316U 020000000000000000000000000000000000000000000000000000000000000000000000000000000000000000000000000000000000000000000000001103201700000000            000000000000000                              000                           
0010001300317T 020180230000002544776 29647041198302824   7               13032017000000000006000001028029                         0900000000000010000000000000000000000000000000000000000   0000000000000000000000000A9        170192964704     
0010001300318U 020000000000000000000000000000000000000000000000000000000000000000000000000000000000000000000000000000000000000000000000001103201700000000            000000000000000                              000                           
0010001300319T 020180230000002544776 29647041198303787   7               13032017000000000006000001028029                         0900000000000010000000000000000000000000000000000000000   0000000000000000000000000A9        170192964704     
0010001300320U 020000000000000000000000000000000000000000000000000000000000000000000000000000000000000000000000000000000000000000000000001103201700000000            000000000000000                              000                           
0010001300321T 020180230000002544776 29647041198305266   7               13032017000000000006000001028029                         0900000000000010000000000000000000000000000000000000000   0000000000000000000000000A9        170192964704     
0010001300322U 020000000000000000000000000000000000000000000000000000000000000000000000000000000000000000000000000000000000000000000000001103201700000000            000000000000000                              000                           
0010001300323T 020180230000002544776 29647041198324075   7               13032017000000000006000001028029                         0900000000000010000000000000000000000000000000000000000   0000000000000000000000000A9        170192964704     
0010001300324U 020000000000000000000000000000000000000000000000000000000000000000000000000000000000000000000000000000000000000000000000001103201700000000            000000000000000                              000                           
0010001300325T 020180230000002544776 29647041198704656   7               1503201700000000000600000102693X                         0900000000000010000000000000000000000000000000000000000   0000000000000000000000000A9        170192964704     
0010001300326U 020000000000000000000000000000000000000000000000000000000000000000000000000000000000000000000000000000000000000000000000001303201700000000            000000000000000                              000                           
0010001300327T 020180230000002544776 29647041198759245   7               1303201700000000000600000102693X                         0900000000000010000000000000000000000000000000000000000   0000000000000000000000000A9        170192964704     
0010001300328U 020000000000000000000000000000000000000000000000000000000000000000000000000000000000000000000000000000000000000000000000001103201700000000            000000000000000                              000                           
0010001300329T 020180230000002544776 29647041198830488   7               13032017000000000006000001018376                         0900000000000010000000000000000000000000000000000000000   0000000000000000000000000A9        170192964704     
0010001300330U 020000000000000000000000000000000000000000000000000000000000000000000000000000000000000000000000000000000000000000000000001103201700000000            000000000000000                              000                           
0010001300331T 020180230000002544776 29647041198911298   7               13032017000000000006000001000132                         0900000000000010000000000000000000000000000000000000000   0000000000000000000000000A9        170192964704     
0010001300332U 020000000000000000000000000000000000000000000000000000000000000000000000000000000000000000000000000000000000000000000000001103201700000000            000000000000000                              000                           
0010001300333T 020180230000002544776 29647041199106726   7               13032017000000000006000001000132                         0900000000000010000000000000000000000000000000000000000   0000000000000000000000000A9        170192964704     
0010001300334U 020000000000000000000000000000000000000000000000000000000000000000000000000000000000000000000000000000000000000000000000001103201700000000            000000000000000                              000                           
0010001300335T 020180230000002544776 29647041199106731   7               14032017000000000006000001000132                         0900000000000010000000000000000000000000000000000000000   0000000000000000000000000A9        170192964704     
0010001300336U 020000000000000000000000000000000000000000000000000000000000000000000000000000000000000000000000000000000000000000000000001203201700000000            000000000000000                              000                           
0010001300337T 020180230000002544776 29647041199121847   7               13032017000000000006000001000132                         0900000000000010000000000000000000000000000000000000000   0000000000000000000000000A9        170192964704     
0010001300338U 020000000000000000000000000000000000000000000000000000000000000000000000000000000000000000000000000000000000000000000000001103201700000000            000000000000000                              000                           
0010001300339T 020180230000002544776 29647041199136558   7               13032017000000000006000001000132                         0900000000000010000000000000000000000000000000000000000   0000000000000000000000000A9        170192964704     
0010001300340U 020000000000000000000000000000000000000000000000000000000000000000000000000000000000000000000000000000000000000000000000001103201700000000            000000000000000                              000                           
0010001300341T 020180230000002544776 29647041199407804   7               13032017000000000006000001005428                         0900000000000010000000000000000000000000000000000000000   0000000000000000000000000A9        170192964704     
0010001300342U 020000000000000000000000000000000000000000000000000000000000000000000000000000000000000000000000000000000000000000000000001103201700000000            000000000000000                              000                           
0010001300343T 020180230000002544776 29647041199410851   7               13032017000000000006000001005428                         0900000000000010000000000000000000000000000000000000000   0000000000000000000000000A9        170192964704     
0010001300344U 020000000000000000000000000000000000000000000000000000000000000000000000000000000000000000000000000000000000000000000000001103201700000000            000000000000000                              000                           
0010001300345T 020180230000002544776 29647041200005598   7               13032017000000000006000001018376                         0900000000000010000000000000000000000000000000000000000   0000000000000000000000000A9        170192964704     
0010001300346U 020000000000000000000000000000000000000000000000000000000000000000000000000000000000000000000000000000000000000000000000001103201700000000            000000000000000                              000                           
0010001300347T 020180230000002544776 29647041200156599   7               13032017000000000006000001018376                         0900000000000010000000000000000000000000000000000000000   0000000000000000000000000A9        170192964704     
0010001300348U 020000000000000000000000000000000000000000000000000000000000000000000000000000000000000000000000000000000000000000000000001103201700000000            000000000000000                              000                           
0010001300349T 020180230000002544776 29647041200545178   7               13032017000000000006000001028029                         0900000000000010000000000000000000000000000000000000000   0000000000000000000000000A9        170192964704     
0010001300350U 020000000000000000000000000000000000000000000000000000000000000000000000000000000000000000000000000000000000000000000000001103201700000000            000000000000000                              000                           
0010001300351T 020180230000002544776 29647041200748649   7               13032017000000000006000001009636                         0900000000000010500000000000000000000000000000000000000   0000000000000000000000000A9A4      170192964704     
0010001300352U 020000000000000000000000000000000000000000000000000000000000000000000000000000000000000000000000000000000000000000000000001103201700000000            000000000000000                              000                           
0010001300353T 020180230000002544776 29647041201104621   7               13032017000000000006000001028029                         0900000000000010000000000000000000000000000000000000000   0000000000000000000000000A9        170192964704     
0010001300354U 020000000000000000000000000000000000000000000000000000000000000000000000000000000000000000000000000000000000000000000000001103201700000000            000000000000000                              000                           
0010001300355T 020180230000002544776 29647041201518278   7               13032017000000000008000001000132                         0900000000000010000000000000000000000000000000000000000   0000000000000000000000000A9        170192964704     
0010001300356U 020000000000000000000000000000000000000000000000000000000000000000000000000000000000000000000000000000000000000000000000001103201700000000            000000000000000                              000                           
0010001300357T 020180230000002544776 29647041201602312   7               13032017000000000006000001001201                         0900000000000010000000000000000000000000000000000000000   0000000000000000000000000A9        170192964704     
0010001300358U 020000000000000000000000000000000000000000000000000000000000000000000000000000000000000000000000000000000000000000000000001103201700000000            000000000000000                              000                           
0010001300359T 020180230000002544776 29647041201852799   7               13032017000000000006000001009636                         0900000000000010000000000000000000000000000000000000000   0000000000000000000000000A9        170192964704     
0010001300360U 020000000000000000000000000000000000000000000000000000000000000000000000000000000000000000000000000000000000000000000000001103201700000000            000000000000000                              000                           
0010001300361T 020180230000002544776 29647041202301664   7               13032017000000000006000001020354                         0900000000000010000000000000000000000000000000000000000   0000000000000000000000000A9        170192964704     
0010001300362U 020000000000000000000000000000000000000000000000000000000000000000000000000000000000000000000000000000000000000000000000001103201700000000            000000000000000                              000                           
0010001300363T 020180230000002544776 29647041202308187   7               13032017000000000006000001020354                         0900000000000010000000000000000000000000000000000000000   0000000000000000000000000A9        170192964704     
0010001300364U 020000000000000000000000000000000000000000000000000000000000000000000000000000000000000000000000000000000000000000000000001103201700000000            000000000000000                              000                           
0010001300365T 020180230000002544776 29647041202356889   7               13032017000000000006000001020354                         0900000000000010000000000000000000000000000000000000000   0000000000000000000000000A9        170192964704     
0010001300366U 020000000000000000000000000000000000000000000000000000000000000000000000000000000000000000000000000000000000000000000000001103201700000000            000000000000000                              000                           
0010001300367T 020180230000002544776 29647041202410224   7               15032017000000000006000001028029                         0900000000000010500000000000000000000000000000000000000   0000000000000000000000000A9A4      170192964704     
0010001300368U 020000000000000000000000000000000000000000000000000000000000000000000000000000000000000000000000000000000000000000000000001303201700000000            000000000000000                              000                           
0010001300369T 020180230000002544776 29647041202438263   7               13032017000000000006000001028029                         0900000000000010500000000000000000000000000000000000000   0000000000000000000000000A9A4      170192964704     
0010001300370U 020000000000000000000000000000000000000000000000000000000000000000000000000000000000000000000000000000000000000000000000001103201700000000            000000000000000                              000                           
0010001300371T 020180230000002544776 29647041202523747   7               13032017000000000006000001034770                         0900000000000010000000000000000000000000000000000000000   0000000000000000000000000A9        170192964704     
0010001300372U 020000000000000000000000000000000000000000000000000000000000000000000000000000000000000000000000000000000000000000000000001103201700000000            000000000000000                              000                           
0010001300373T 020180230000002544776 29647041202617414   7               1303201700000000000600000100331X                         0900000000000010000000000000000000000000000000000000000   0000000000000000000000000A9        170192964704     
0010001300374U 020000000000000000000000000000000000000000000000000000000000000000000000000000000000000000000000000000000000000000000000001103201700000000            000000000000000                              000                           
0010001300375T 020180230000002544776 29647041203341301   7               13032017000000000006000001000132                         0900000000000010500000000000000000000000000000000000000   0000000000000000000000000A9A4      170192964704     
0010001300376U 020000000000000000000000000000000000000000000000000000000000000000000000000000000000000000000000000000000000000000000000001103201700000000            000000000000000                              000                           
0010001300377T 020180230000002544776 29647041203455251   7               13032017000000000006000001028029                         0900000000000010000000000000000000000000000000000000000   0000000000000000000000000A9        170192964704     
0010001300378U 020000000000000000000000000000000000000000000000000000000000000000000000000000000000000000000000000000000000000000000000001103201700000000            000000000000000                              000                           
0010001300379T 020180230000002544776 29647041204010803   7               13032017000000000006000001016179                         0900000000000010000000000000000000000000000000000000000   0000000000000000000000000A9        170192964704     
0010001300380U 020000000000000000000000000000000000000000000000000000000000000000000000000000000000000000000000000000000000000000000000001103201700000000            000000000000000                              000                           
0010001300381T 020180230000002544776 29647041204541455   7               13032017000000000006000001002321                         0900000000000010000000000000000000000000000000000000000   0000000000000000000000000A9        170192964704     
0010001300382U 020000000000000000000000000000000000000000000000000000000000000000000000000000000000000000000000000000000000000000000000001103201700000000            000000000000000                              000                           
0010001300383T 020180230000002544776 29647041204932997   7               13032017000000000008000001028029                         0900000000000010000000000000000000000000000000000000000   0000000000000000000000000A9        170192964704     
0010001300384U 020000000000000000000000000000000000000000000000000000000000000000000000000000000000000000000000000000000000000000000000001103201700000000            000000000000000                              000                           
0010001300385T 020180230000002544776 29647041205050985   7               13032017000000000006000001023655                         0900000000000010000000000000000000000000000000000000000   0000000000000000000000000A9        170192964704     
0010001300386U 020000000000000000000000000000000000000000000000000000000000000000000000000000000000000000000000000000000000000000000000001103201700000000            000000000000000                              000                           
0010001300387T 020180230000002544776 29647041205217954   7               13032017000000000008000001002542                         0900000000000010000000000000000000000000000000000000000   0000000000000000000000000A9        170192964704     
0010001300388U 020000000000000000000000000000000000000000000000000000000000000000000000000000000000000000000000000000000000000000000000001103201700000000            000000000000000                              000                           
0010001300389T 020180230000002544776 29647041205252987   7               15032017000000000008000001002542                         0900000000000010000000000000000000000000000000000000000   0000000000000000000000000A9        170192964704     
0010001300390U 020000000000000000000000000000000000000000000000000000000000000000000000000000000000000000000000000000000000000000000000001303201700000000            000000000000000                              000                           
0010001300391T 020180230000002544776 29647041205425292   7               13032017000000000006000001033316                         0900000000000010000000000000000000000000000000000000000   0000000000000000000000000A9        170192964704     
0010001300392U 020000000000000000000000000000000000000000000000000000000000000000000000000000000000000000000000000000000000000000000000001103201700000000            000000000000000                              000                           
0010001300393T 020180230000002544776 29647041205457250   7               13032017000000000006000001033316                         0900000000000010000000000000000000000000000000000000000   0000000000000000000000000A9        170192964704     
0010001300394U 020000000000000000000000000000000000000000000000000000000000000000000000000000000000000000000000000000000000000000000000001103201700000000            000000000000000                              000                           
0010001300395T 020180230000002544776 29647041205915526   7               13032017000000000006000001033316                         0900000000000010000000000000000000000000000000000000000   0000000000000000000000000A9        170192964704     
0010001300396U 020000000000000000000000000000000000000000000000000000000000000000000000000000000000000000000000000000000000000000000000001103201700000000            000000000000000                              000                           
0010001300397T 020180230000002544776 29647041206236015   7               13032017000000000006000001020354                         0900000000000010000000000000000000000000000000000000000   0000000000000000000000000A9        170192964704     
0010001300398U 020000000000000000000000000000000000000000000000000000000000000000000000000000000000000000000000000000000000000000000000001103201700000000            000000000000000                              000                           
0010001300399T 020180230000002544776 29647041206322162   7               13032017000000000006000001028029                         0900000000000010000000000000000000000000000000000000000   0000000000000000000000000A9        170192964704     
0010001300400U 020000000000000000000000000000000000000000000000000000000000000000000000000000000000000000000000000000000000000000000000001103201700000000            000000000000000                              000                           
0010001300401T 020180230000002544776 29647041206450265   7               13032017000000000006000001028029                         0900000000000010000000000000000000000000000000000000000   0000000000000000000000000A9        170192964704     
0010001300402U 020000000000000000000000000000000000000000000000000000000000000000000000000000000000000000000000000000000000000000000000001103201700000000            000000000000000                              000                           
0010001300403T 020180230000002544776 29647041206732529   7               13032017000000000006000001005827                         0900000000000010000000000000000000000000000000000000000   0000000000000000000000000A9        170192964704     
0010001300404U 020000000000000000000000000000000000000000000000000000000000000000000000000000000000000000000000000000000000000000000000001103201700000000            000000000000000                              000                           
0010001300405T 020180230000002544776 29647041206830663   7               13032017000000000006000001000132                         0900000000000010000000000000000000000000000000000000000   0000000000000000000000000A9        170192964704     
0010001300406U 020000000000000000000000000000000000000000000000000000000000000000000000000000000000000000000000000000000000000000000000001103201700000000            000000000000000                              000                           
0010001300407T 020180230000002544776 29647041206925983   7               13032017000000000006000001010669                         0900000000000010000000000000000000000000000000000000000   0000000000000000000000000A9        170192964704     
0010001300408U 020000000000000000000000000000000000000000000000000000000000000000000000000000000000000000000000000000000000000000000000001103201700000000            000000000000000                              000                           
0010001300409T 020180230000002544776 29647041207011060   7               13032017000000000006000001001597                         0900000000000010000000000000000000000000000000000000000   0000000000000000000000000A9        170192964704     
0010001300410U 020000000000000000000000000000000000000000000000000000000000000000000000000000000000000000000000000000000000000000000000001103201700000000            000000000000000                              000                           
0010001300411T 020180230000002544776 29647041207100684   7               13032017000000000006000001000361                         0900000000000010000000000000000000000000000000000000000   0000000000000000000000000A9        170192964704     
0010001300412U 020000000000000000000000000000000000000000000000000000000000000000000000000000000000000000000000000000000000000000000000001103201700000000            000000000000000                              000                           
