00100000         2247745860001000029647040014       0180230000002544776 INSTITUTO DE SELECAO E TECNOLOBANCO DO BRASIL                         21403201701090500006003000000515122941PROCESSAMEN                                                 
00100011T0100020 20247745860001000029647040014       0180230000002544776 INSTITUTO DE SELECAO E TECNOLO                                                                                000000001403201700000000  000000000                      
0010001300001T 020180230000002544776 29647040511252502   7               16032017000000000006000001028029                         0900000000000010000000000000000000000000000000000000000   0000000000000000000000000A9        170192964704     
0010001300002U 020000000000000000000000000000000000000000000000000000000000000000000000000000000000000000000000000000000000000000000000001403201700000000            000000000000000                              000                           
0010001300003T 020180230000002544776 29647040545552879   7               16032017000000000006000001000132                         0900000000000010000000000000000000000000000000000000000   0000000000000000000000000A9        170192964704     
0010001300004U 020000000000000000000000000000000000000000000000000000000000000000000000000000000000000000000000000000000000000000000000001403201700000000            000000000000000                              000                           
0010001300005T 020180230000002544776 29647040558833859   7               16032017000000000006000001000132                         0900000000000010500000000000000000000000000000000000000   0000000000000000000000000A9A4      170192964704     
0010001300006U 020000000000000000000000000000000000000000000000000000000000000000000000000000000000000000000000000000000000000000000000001403201700000000            000000000000000                              000                           
0010001300007T 020180230000002544776 29647040562301656   7               16032017000000000006000001016179                         0900000000000010000000000000000000000000000000000000000   0000000000000000000000000A9        170192964704     
0010001300008U 020000000000000000000000000000000000000000000000000000000000000000000000000000000000000000000000000000000000000000000000001403201700000000            000000000000000                              000                           
0010001300009T 020180230000002544776 29647040562359476   7               16032017000000000006000001016179                         0900000000000010000000000000000000000000000000000000000   0000000000000000000000000A9        170192964704     
0010001300010U 020000000000000000000000000000000000000000000000000000000000000000000000000000000000000000000000000000000000000000000000001403201700000000            000000000000000                              000                           
0010001300011T 020180230000002544776 29647040583521525   7               15032017000000000006000001028495                         0900000000000010000000000000000000000000000000000000000   0000000000000000000000000A9        170192964704     
0010001300012U 020000000000000000000000000000000000000000000000000000000000000000000000000000000000000000000000000000000000000000000000001303201700000000            000000000000000                              000                           
0010001300013T 020180230000002544776 29647040583550835   7               15032017000000000006000001028495                         0900000000000010000000000000000000000000000000000000000   0000000000000000000000000A9        170192964704     
0010001300014U 020000000000000000000000000000000000000000000000000000000000000000000000000000000000000000000000000000000000000000000000001303201700000000            000000000000000                              000                           
0010001300015T 020180230000002544776 29647040616749545   7               16032017000000000006000001016179                         0900000000000010000000000000000000000000000000000000000   0000000000000000000000000A9        170192964704     
0010001300016U 020000000000000000000000000000000000000000000000000000000000000000000000000000000000000000000000000000000000000000000000001403201700000000            000000000000000                              000                           
0010001300017T 020180230000002544776 29647040617009042   7               16032017000000000008000001005428                         0900000000000010000000000000000000000000000000000000000   0000000000000000000000000A9        170192964704     
0010001300018U 020000000000000000000000000000000000000000000000000000000000000000000000000000000000000000000000000000000000000000000000001403201700000000            000000000000000                              000                           
0010001300019T 020180230000002544776 29647040626906235   7               16032017000000000006000001009636                         0900000000000010000000000000000000000000000000000000000   0000000000000000000000000A9        170192964704     
0010001300020U 020000000000000000000000000000000000000000000000000000000000000000000000000000000000000000000000000000000000000000000000001403201700000000            000000000000000                              000                           
0010001300021T 020180230000002544776 29647040642217418   7               16032017000000000006000001000132                         0900000000000010000000000000000000000000000000000000000   0000000000000000000000000A9        170192964704     
0010001300022U 020000000000000000000000000000000000000000000000000000000000000000000000000000000000000000000000000000000000000000000000001403201700000000            000000000000000                              000                           
0010001300023T 020180230000002544776 29647040669424831   7               16032017000000000006000001012467                         0900000000000010000000000000000000000000000000000000000   0000000000000000000000000A9        170192964704     
0010001300024U 020000000000000000000000000000000000000000000000000000000000000000000000000000000000000000000000000000000000000000000000001403201700000000            000000000000000                              000                           
0010001300025T 020180230000002544776 29647040678631880   7               16032017000000000006000001018376                         0900000000000010000000000000000000000000000000000000000   0000000000000000000000000A9        170192964704     
0010001300026U 020000000000000000000000000000000000000000000000000000000000000000000000000000000000000000000000000000000000000000000000001403201700000000            000000000000000                              000                           
0010001300027T 020180230000002544776 29647040683152225   7               16032017000000000006000001012467                         0900000000000010000000000000000000000000000000000000000   0000000000000000000000000A9        170192964704     
0010001300028U 020000000000000000000000000000000000000000000000000000000000000000000000000000000000000000000000000000000000000000000000001403201700000000            000000000000000                              000                           
0010001300029T 020180230000002544776 29647040726443430   7               16032017000000000006000001028029                         0900000000000010000000000000000000000000000000000000000   0000000000000000000000000A9        170192964704     
0010001300030U 020000000000000000000000000000000000000000000000000000000000000000000000000000000000000000000000000000000000000000000000001403201700000000            000000000000000                              000                           
0010001300031T 020180230000002544776 29647040765021435   7               15032017000000000006000001000361                         0900000000000010500000000000000000000000000000000000000   0000000000000000000000000A9A4      170192964704     
0010001300032U 020000000000000000000000000000000000000000000000000000000000000000000000000000000000000000000000000000000000000000000000001303201700000000            000000000000000                              000                           
0010001300033T 020180230000002544776 29647040774740760   7               16032017000000000006000001012467                         0900000000000010000000000000000000000000000000000000000   0000000000000000000000000A9        170192964704     
0010001300034U 020000000000000000000000000000000000000000000000000000000000000000000000000000000000000000000000000000000000000000000000001403201700000000            000000000000000                              000                           
0010001300035T 020180230000002544776 29647040780904209   7               16032017000000000006000001023655                         0900000000000010000000000000000000000000000000000000000   0000000000000000000000000A9        170192964704     
0010001300036U 020000000000000000000000000000000000000000000000000000000000000000000000000000000000000000000000000000000000000000000000001403201700000000            000000000000000                              000                           
0010001300037T 020180230000002544776 29647040780955471   7               16032017000000000006000001023655                         0900000000000010000000000000000000000000000000000000000   0000000000000000000000000A9        170192964704     
0010001300038U 020000000000000000000000000000000000000000000000000000000000000000000000000000000000000000000000000000000000000000000000001403201700000000            000000000000000                              000                           
0010001300039T 020180230000002544776 29647040793118288   7               16032017000000000008000001028029                         0900000000000010000000000000000000000000000000000000000   0000000000000000000000000A9        170192964704     
0010001300040U 020000000000000000000000000000000000000000000000000000000000000000000000000000000000000000000000000000000000000000000000001403201700000000            000000000000000                              000                           
0010001300041T 020180230000002544776 29647040800938356   7               16032017000000000006000001000132                         0900000000000010000000000000000000000000000000000000000   0000000000000000000000000A9        170192964704     
0010001300042U 020000000000000000000000000000000000000000000000000000000000000000000000000000000000000000000000000000000000000000000000001403201700000000            000000000000000                              000                           
0010001300043T 020180230000002544776 29647040808741725   7               16032017000000000006000001020354                         0900000000000010000000000000000000000000000000000000000   0000000000000000000000000A9        170192964704     
0010001300044U 020000000000000000000000000000000000000000000000000000000000000000000000000000000000000000000000000000000000000000000000001403201700000000            000000000000000                              000                           
0010001300045T 020180230000002544776 29647040817116558   7               16032017000000000006000001012467                         0900000000000010000000000000000000000000000000000000000   0000000000000000000000000A9        170192964704     
0010001300046U 020000000000000000000000000000000000000000000000000000000000000000000000000000000000000000000000000000000000000000000000001403201700000000            000000000000000                              000                           
0010001300047T 020180230000002544776 29647040839807426   7               16032017000000000006000001002208                         0900000000000010000000000000000000000000000000000000000   0000000000000000000000000A9        170192964704     
0010001300048U 020000000000000000000000000000000000000000000000000000000000000000000000000000000000000000000000000000000000000000000000001403201700000000            000000000000000                              000                           
0010001300049T 020180230000002544776 29647040839813123   7               16032017000000000006000001002208                         0900000000000010000000000000000000000000000000000000000   0000000000000000000000000A9        170192964704     
0010001300050U 020000000000000000000000000000000000000000000000000000000000000000000000000000000000000000000000000000000000000000000000001403201700000000            000000000000000                              000                           
0010001300051T 020180230000002544776 29647040845538420   7               16032017000000000006000001028029                         0900000000000010000000000000000000000000000000000000000   0000000000000000000000000A9        170192964704     
0010001300052U 020000000000000000000000000000000000000000000000000000000000000000000000000000000000000000000000000000000000000000000000001403201700000000            000000000000000                              000                           
0010001300053T 020180230000002544776 29647040856556594   7               16032017000000000008000001020354                         0900000000000010000000000000000000000000000000000000000   0000000000000000000000000A9        170192964704     
0010001300054U 020000000000000000000000000000000000000000000000000000000000000000000000000000000000000000000000000000000000000000000000001403201700000000            000000000000000                              000                           
0010001300055T 020180230000002544776 29647040861248720   7               16032017000000000008000001000132                         0900000000000010000000000000000000000000000000000000000   0000000000000000000000000A9        170192964704     
0010001300056U 020000000000000000000000000000000000000000000000000000000000000000000000000000000000000000000000000000000000000000000000001403201700000000            000000000000000                              000                           
0010001300057T 020180230000002544776 29647040861413851   7               16032017000000000006000001028029                         0900000000000010000000000000000000000000000000000000000   0000000000000000000000000A9        170192964704     
0010001300058U 020000000000000000000000000000000000000000000000000000000000000000000000000000000000000000000000000000000000000000000000001403201700000000            000000000000000                              000                           
0010001300059T 020180230000002544776 29647040870907116   7               1603201700000000000600000101138X                         0900000000000010000000000000000000000000000000000000000   0000000000000000000000000A9        170192964704     
0010001300060U 020000000000000000000000000000000000000000000000000000000000000000000000000000000000000000000000000000000000000000000000001403201700000000            000000000000000                              000                           
0010001300061T 020180230000002544776 29647040893136744   7               16032017000000000006000001018376                         0900000000000010000000000000000000000000000000000000000   0000000000000000000000000A9        170192964704     
0010001300062U 020000000000000000000000000000000000000000000000000000000000000000000000000000000000000000000000000000000000000000000000001403201700000000            000000000000000                              000                           
0010001300063T 020180230000002544776 29647040899300860   7               16032017000000000006000001028029                         0900000000000010000000000000000000000000000000000000000   0000000000000000000000000A9        170192964704     
0010001300064U 020000000000000000000000000000000000000000000000000000000000000000000000000000000000000000000000000000000000000000000000001403201700000000            000000000000000                              000                           
0010001300065T 020180230000002544776 29647040900908007   7               16032017000000000008000001028029                         0900000000000010000000000000000000000000000000000000000   0000000000000000000000000A9        170192964704     
0010001300066U 020000000000000000000000000000000000000000000000000000000000000000000000000000000000000000000000000000000000000000000000001403201700000000            000000000000000                              000                           
0010001300067T 020180230000002544776 29647040900919834   7               16032017000000000008000001028029                         0900000000000010000000000000000000000000000000000000000   0000000000000000000000000A9        170192964704     
0010001300068U 020000000000000000000000000000000000000000000000000000000000000000000000000000000000000000000000000000000000000000000000001403201700000000            000000000000000                              000                           
0010001300069T 020180230000002544776 29647040916251496   7               16032017000000000006000001012467                         0900000000000010000000000000000000000000000000000000000   0000000000000000000000000A9        170192964704     
0010001300070U 020000000000000000000000000000000000000000000000000000000000000000000000000000000000000000000000000000000000000000000000001403201700000000            000000000000000                              000                           
0010001300071T 020180230000002544776 29647040922022494   7               16032017000000000006000001016179                         0900000000000010000000000000000000000000000000000000000   0000000000000000000000000A9        170192964704     
0010001300072U 020000000000000000000000000000000000000000000000000000000000000000000000000000000000000000000000000000000000000000000000001403201700000000            000000000000000                              000                           
0010001300073T 020180230000002544776 29647040926804100   7               16032017000000000006000001028029                         0900000000000010000000000000000000000000000000000000000   0000000000000000000000000A9        170192964704     
0010001300074U 020000000000000000000000000000000000000000000000000000000000000000000000000000000000000000000000000000000000000000000000001403201700000000            000000000000000                              000                           
0010001300075T 020180230000002544776 29647040932205300   7               16032017000000000006000001033316                         0900000000000010000000000000000000000000000000000000000   0000000000000000000000000A9        170192964704     
0010001300076U 020000000000000000000000000000000000000000000000000000000000000000000000000000000000000000000000000000000000000000000000001403201700000000            000000000000000                              000                           
0010001300077T 020180230000002544776 29647040932219764   7               16032017000000000006000001033316                         0900000000000010000000000000000000000000000000000000000   0000000000000000000000000A9        170192964704     
0010001300078U 020000000000000000000000000000000000000000000000000000000000000000000000000000000000000000000000000000000000000000000000001403201700000000            000000000000000                              000                           
0010001300079T 020180230000002544776 29647040932231452   7               16032017000000000006000001033316                         0900000000000010000000000000000000000000000000000000000   0000000000000000000000000A9        170192964704     
0010001300080U 020000000000000000000000000000000000000000000000000000000000000000000000000000000000000000000000000000000000000000000000001403201700000000            000000000000000                              000                           
0010001300081T 020180230000002544776 29647040932236244   7               16032017000000000006000001033316                         0900000000000010000000000000000000000000000000000000000   0000000000000000000000000A9        170192964704     
0010001300082U 020000000000000000000000000000000000000000000000000000000000000000000000000000000000000000000000000000000000000000000000001403201700000000            000000000000000                              000                           
0010001300083T 020180230000002544776 29647040942319489   7               16032017000000000006000001018376                         0900000000000010500000000000000000000000000000000000000   0000000000000000000000000A9A4      170192964704     
0010001300084U 020000000000000000000000000000000000000000000000000000000000000000000000000000000000000000000000000000000000000000000000001403201700000000            000000000000000                              000                           
0010001300085T 020180230000002544776 29647040963226971   7               16032017000000000006000001007218                         0900000000000010000000000000000000000000000000000000000   0000000000000000000000000A9        170192964704     
0010001300086U 020000000000000000000000000000000000000000000000000000000000000000000000000000000000000000000000000000000000000000000000001403201700000000            000000000000000                              000                           
0010001300087T 020180230000002544776 29647040967220025   7               16032017000000000006000001028029                         0900000000000010000000000000000000000000000000000000000   0000000000000000000000000A9        170192964704     
0010001300088U 020000000000000000000000000000000000000000000000000000000000000000000000000000000000000000000000000000000000000000000000001403201700000000            000000000000000                              000                           
0010001300089T 020180230000002544776 29647040967259401   7               16032017000000000006000001028029                         0900000000000010000000000000000000000000000000000000000   0000000000000000000000000A9        170192964704     
0010001300090U 020000000000000000000000000000000000000000000000000000000000000000000000000000000000000000000000000000000000000000000000001403201700000000            000000000000000                              000                           
0010001300091T 020180230000002544776 29647040976953706   7               16032017000000000008000001028029                         0900000000000010000000000000000000000000000000000000000   0000000000000000000000000A9        170192964704     
0010001300092U 020000000000000000000000000000000000000000000000000000000000000000000000000000000000000000000000000000000000000000000000001403201700000000            000000000000000                              000                           
0010001300093T 020180230000002544776 29647040988358806   7               16032017000000000008000001000361                         0900000000000010500000000000000000000000000000000000000   0000000000000000000000000A9A4      170192964704     
0010001300094U 020000000000000000000000000000000000000000000000000000000000000000000000000000000000000000000000000000000000000000000000001403201700000000            000000000000000                              000                           
0010001300095T 020180230000002544776 29647040990534704   7               16032017000000000006000001028029                         0900000000000010000000000000000000000000000000000000000   0000000000000000000000000A9        170192964704     
0010001300096U 020000000000000000000000000000000000000000000000000000000000000000000000000000000000000000000000000000000000000000000000001403201700000000            000000000000000                              000                           
0010001300097T 020180230000002544776 29647040994714869   7               16032017000000000006000001000132                         0900000000000010500000000000000000000000000000000000000   0000000000000000000000000A9A4      170192964704     
0010001300098U 020000000000000000000000000000000000000000000000000000000000000000000000000000000000000000000000000000000000000000000000001403201700000000            000000000000000                              000                           
0010001300099T 020180230000002544776 29647040998116666   7               16032017000000000006000001033316                         0900000000000010000000000000000000000000000000000000000   0000000000000000000000000A9        170192964704     
0010001300100U 020000000000000000000000000000000000000000000000000000000000000000000000000000000000000000000000000000000000000000000000001403201700000000            000000000000000                              000                           
0010001300101T 020180230000002544776 29647041012306901   7               15032017000000000006000001033316                         0900000000000010000000000000000000000000000000000000000   0000000000000000000000000A9        170192964704     
0010001300102U 020000000000000000000000000000000000000000000000000000000000000000000000000000000000000000000000000000000000000000000000001303201700000000            000000000000000                              000                           
0010001300103T 020180230000002544776 29647041013029205   7               16032017000000000006000001033316                         0900000000000010000000000000000000000000000000000000000   0000000000000000000000000A9        170192964704     
0010001300104U 020000000000000000000000000000000000000000000000000000000000000000000000000000000000000000000000000000000000000000000000001403201700000000            000000000000000                              000                           
0010001300105T 020180230000002544776 29647041028851864   7               16032017000000000006000001005428                         0900000000000010000000000000000000000000000000000000000   0000000000000000000000000A9        170192964704     
0010001300106U 020000000000000000000000000000000000000000000000000000000000000000000000000000000000000000000000000000000000000000000000001403201700000000            000000000000000                              000                           
0010001300107T 020180230000002544776 29647041037643642   7               16032017000000000006000001020354                         0900000000000010000000000000000000000000000000000000000   0000000000000000000000000A9        170192964704     
0010001300108U 020000000000000000000000000000000000000000000000000000000000000000000000000000000000000000000000000000000000000000000000001403201700000000            000000000000000                              000                           
0010001300109T 020180230000002544776 29647041078150151   7               16032017000000000006000001028029                         0900000000000010000000000000000000000000000000000000000   0000000000000000000000000A9        170192964704     
0010001300110U 020000000000000000000000000000000000000000000000000000000000000000000000000000000000000000000000000000000000000000000000001403201700000000            000000000000000                              000                           
0010001300111T 020180230000002544776 29647041083437957   7               16032017000000000008000001026999                         0900000000000010000000000000000000000000000000000000000   0000000000000000000000000A9        170192964704     
0010001300112U 020000000000000000000000000000000000000000000000000000000000000000000000000000000000000000000000000000000000000000000000001403201700000000            000000000000000                              000                           
0010001300113T 020180230000002544776 29647041088858240   7               16032017000000000006000001008214                         0900000000000010000000000000000000000000000000000000000   0000000000000000000000000A9        170192964704     
0010001300114U 020000000000000000000000000000000000000000000000000000000000000000000000000000000000000000000000000000000000000000000000001403201700000000            000000000000000                              000                           
0010001300115T 020180230000002544776 29647041093016717   7               16032017000000000006000001016179                         0900000000000010000000000000000000000000000000000000000   0000000000000000000000000A9        170192964704     
0010001300116U 020000000000000000000000000000000000000000000000000000000000000000000000000000000000000000000000000000000000000000000000001403201700000000            000000000000000                              000                           
0010001300117T 020180230000002544776 29647041093036070   7               16032017000000000006000001016179                         0900000000000010000000000000000000000000000000000000000   0000000000000000000000000A9        170192964704     
0010001300118U 020000000000000000000000000000000000000000000000000000000000000000000000000000000000000000000000000000000000000000000000001403201700000000            000000000000000                              000                           
0010001300119T 020180230000002544776 29647041095409212   7               16032017000000000006000001016179                         0900000000000010000000000000000000000000000000000000000   0000000000000000000000000A9        170192964704     
0010001300120U 020000000000000000000000000000000000000000000000000000000000000000000000000000000000000000000000000000000000000000000000001403201700000000            000000000000000                              000                           
0010001300121T 020180230000002544776 29647041097220095   7               16032017000000000006000001033316                         0900000000000010000000000000000000000000000000000000000   0000000000000000000000000A9        170192964704     
0010001300122U 020000000000000000000000000000000000000000000000000000000000000000000000000000000000000000000000000000000000000000000000001403201700000000            000000000000000                              000                           
0010001300123T 020180230000002544776 29647041102749286   7               16032017000000000006000001028029                         0900000000000010000000000000000000000000000000000000000   0000000000000000000000000A9        170192964704     
0010001300124U 020000000000000000000000000000000000000000000000000000000000000000000000000000000000000000000000000000000000000000000000001403201700000000            000000000000000                              000                           
0010001300125T 020180230000002544776 29647041107106307   7               16032017000000000006000001028029                         0900000000000010000000000000000000000000000000000000000   0000000000000000000000000A9        170192964704     
0010001300126U 020000000000000000000000000000000000000000000000000000000000000000000000000000000000000000000000000000000000000000000000001403201700000000            000000000000000                              000                           
0010001300127T 020180230000002544776 29647041113415565   7               16032017000000000006000001028029                         0900000000000010000000000000000000000000000000000000000   0000000000000000000000000A9        170192964704     
0010001300128U 020000000000000000000000000000000000000000000000000000000000000000000000000000000000000000000000000000000000000000000000001403201700000000            000000000000000                              000                           
0010001300129T 020180230000002544776 29647041118951358   7               16032017000000000006000001012467                         0900000000000010000000000000000000000000000000000000000   0000000000000000000000000A9        170192964704     
0010001300130U 020000000000000000000000000000000000000000000000000000000000000000000000000000000000000000000000000000000000000000000000001403201700000000            000000000000000                              000                           
0010001300131T 020180230000002544776 29647041123112869   7               16032017000000000008000001001724                         0900000000000010000000000000000000000000000000000000000   0000000000000000000000000A9        170192964704     
0010001300132U 020000000000000000000000000000000000000000000000000000000000000000000000000000000000000000000000000000000000000000000000001403201700000000            000000000000000                              000                           
0010001300133T 020180230000002544776 29647041125321649   7               16032017000000000006000001028029                         0900000000000010000000000000000000000000000000000000000   0000000000000000000000000A9        170192964704     
0010001300134U 020000000000000000000000000000000000000000000000000000000000000000000000000000000000000000000000000000000000000000000000001403201700000000            000000000000000                              000                           
0010001300135T 020180230000002544776 29647041132618363   7               16032017000000000008000001016020                         0900000000000010000000000000000000000000000000000000000   0000000000000000000000000A9        170192964704     
0010001300136U 020000000000000000000000000000000000000000000000000000000000000000000000000000000000000000000000000000000000000000000000001403201700000000            000000000000000                              000                           
0010001300137T 020180230000002544776 29647041135159938   7               16032017000000000006000001016179                         0900000000000010000000000000000000000000000000000000000   0000000000000000000000000A9        170192964704     
0010001300138U 020000000000000000000000000000000000000000000000000000000000000000000000000000000000000000000000000000000000000000000000001403201700000000            000000000000000                              000                           
0010001300139T 020180230000002544776 29647041140652338   7               16032017000000000008000001007595                         0900000000000010000000000000000000000000000000000000000   0000000000000000000000000A9        170192964704     
0010001300140U 020000000000000000000000000000000000000000000000000000000000000000000000000000000000000000000000000000000000000000000000001403201700000000            000000000000000                              000                           
0010001300141T 020180230000002544776 29647041141602951   7               16032017000000000006000001000132                         0900000000000010000000000000000000000000000000000000000   0000000000000000000000000A9        170192964704     
0010001300142U 020000000000000000000000000000000000000000000000000000000000000000000000000000000000000000000000000000000000000000000000001403201700000000            000000000000000                              000                           
0010001300143T 020180230000002544776 29647041222127817   7               16032017000000000006000001009849                         0900000000000010000000000000000000000000000000000000000   0000000000000000000000000A9        170192964704     
0010001300144U 020000000000000000000000000000000000000000000000000000000000000000000000000000000000000000000000000000000000000000000000001403201700000000            000000000000000                              000                           
0010001300145T 020180230000002544776 29647041235535472   7               16032017000000000006000001020354                         0900000000000010000000000000000000000000000000000000000   0000000000000000000000000A9        170192964704     
0010001300146U 020000000000000000000000000000000000000000000000000000000000000000000000000000000000000000000000000000000000000000000000001403201700000000            000000000000000                              000                           
0010001300147T 020180230000002544776 29647041243510845   7               16032017000000000006000001018376                         0900000000000010000000000000000000000000000000000000000   0000000000000000000000000A9        170192964704     
0010001300148U 020000000000000000000000000000000000000000000000000000000000000000000000000000000000000000000000000000000000000000000000001403201700000000            000000000000000                              000                           
0010001300149T 020180230000002544776 29647041244628326   7               16032017000000000006000001016179                         0900000000000010000000000000000000000000000000000000000   0000000000000000000000000A9        170192964704     
0010001300150U 020000000000000000000000000000000000000000000000000000000000000000000000000000000000000000000000000000000000000000000000001403201700000000            000000000000000                              000                           
0010001300151T 020180230000002544776 29647041249033399   7               16032017000000000008000001012467                         0900000000000010000000000000000000000000000000000000000   0000000000000000000000000A9        170192964704     
0010001300152U 020000000000000000000000000000000000000000000000000000000000000000000000000000000000000000000000000000000000000000000000001403201700000000            000000000000000                              000                           
0010001300153T 020180230000002544776 29647041249756524   7               16032017000000000008000001016179                         0900000000000010000000000000000000000000000000000000000   0000000000000000000000000A9        170192964704     
0010001300154U 020000000000000000000000000000000000000000000000000000000000000000000000000000000000000000000000000000000000000000000000001403201700000000            000000000000000                              000                           
0010001300155T 020180230000002544776 29647041250015262   7               16032017000000000006000001012467                         0900000000000010000000000000000000000000000000000000000   0000000000000000000000000A9        170192964704     
0010001300156U 020000000000000000000000000000000000000000000000000000000000000000000000000000000000000000000000000000000000000000000000001403201700000000            000000000000000                              000                           
0010001300157T 020180230000002544776 29647041250041264   7               16032017000000000006000001012467                         0900000000000010000000000000000000000000000000000000000   0000000000000000000000000A9        170192964704     
0010001300158U 020000000000000000000000000000000000000000000000000000000000000000000000000000000000000000000000000000000000000000000000001403201700000000            000000000000000                              000                           
0010001300159T 020180230000002544776 29647041252801049   7               16032017000000000006000001016179                         0900000000000010000000000000000000000000000000000000000   0000000000000000000000000A9        170192964704     
0010001300160U 020000000000000000000000000000000000000000000000000000000000000000000000000000000000000000000000000000000000000000000000001403201700000000            000000000000000                              000                           
0010001300161T 020180230000002544776 29647041254452530   7               15032017000000000006000001016179                         0900000000000010000000000000000000000000000000000000000   0000000000000000000000000A9        170192964704     
0010001300162U 020000000000000000000000000000000000000000000000000000000000000000000000000000000000000000000000000000000000000000000000001303201700000000            000000000000000                              000                           
0010001300163T 020180230000002544776 29647041254456774   7               15032017000000000006000001016179                         0900000000000010000000000000000000000000000000000000000   0000000000000000000000000A9        170192964704     
0010001300164U 020000000000000000000000000000000000000000000000000000000000000000000000000000000000000000000000000000000000000000000000001303201700000000            000000000000000                              000                           
0010001300165T 020180230000002544776 29647041254607703   7               1503201700000000000600000100068X                         0900000000000010000000000000000000000000000000000000000   0000000000000000000000000A9        170192964704     
0010001300166U 020000000000000000000000000000000000000000000000000000000000000000000000000000000000000000000000000000000000000000000000001303201700000000            000000000000000                              000                           
0010001300167T 020180230000002544776 29647041254607875   7               1503201700000000000600000100068X                         0900000000000010000000000000000000000000000000000000000   0000000000000000000000000A9        170192964704     
0010001300168U 020000000000000000000000000000000000000000000000000000000000000000000000000000000000000000000000000000000000000000000000001303201700000000            000000000000000                              000                           
0010001300169T 020180230000002544776 29647041254803608   7               16032017000000000006000001004464                         0900000000000010000000000000000000000000000000000000000   0000000000000000000000000A9        170192964704     
0010001300170U 020000000000000000000000000000000000000000000000000000000000000000000000000000000000000000000000000000000000000000000000001403201700000000            000000000000000                              000                           
0010001300171T 020180230000002544776 29647041254919238   7               15032017000000000006000001028495                         0900000000000010000000000000000000000000000000000000000   0000000000000000000000000A9        170192964704     
0010001300172U 020000000000000000000000000000000000000000000000000000000000000000000000000000000000000000000000000000000000000000000000001303201700000000            000000000000000                              000                           
0010001300173T 020180230000002544776 29647041255200998   7               15032017000000000006000001016179                         0900000000000010500000000000000000000000000000000000000   0000000000000000000000000A9A4      170192964704     
0010001300174U 020000000000000000000000000000000000000000000000000000000000000000000000000000000000000000000000000000000000000000000000001303201700000000            000000000000000                              000                           
0010001300175T 020180230000002544776 29647041255321913   7               15032017000000000006000001016179                         0900000000000010000000000000000000000000000000000000000   0000000000000000000000000A9        170192964704     
0010001300176U 020000000000000000000000000000000000000000000000000000000000000000000000000000000000000000000000000000000000000000000000001303201700000000            000000000000000                              000                           
0010001300177T 020180230000002544776 29647041255355726   7               15032017000000000006000001016179                         0900000000000010000000000000000000000000000000000000000   0000000000000000000000000A9        170192964704     
0010001300178U 020000000000000000000000000000000000000000000000000000000000000000000000000000000000000000000000000000000000000000000000001303201700000000            000000000000000                              000                           
0010001300179T 020180230000002544776 29647041255400527   7               1503201700000000000600000102547X                         0900000000000010000000000000000000000000000000000000000   0000000000000000000000000A9        170192964704     
0010001300180U 020000000000000000000000000000000000000000000000000000000000000000000000000000000000000000000000000000000000000000000000001303201700000000            000000000000000                              000                           
0010001300181T 020180230000002544776 29647041255637782   7               15032017000000000006000001016179                         0900000000000010000000000000000000000000000000000000000   0000000000000000000000000A9        170192964704     
0010001300182U 020000000000000000000000000000000000000000000000000000000000000000000000000000000000000000000000000000000000000000000000001303201700000000            000000000000000                              000                           
0010001300183T 020180230000002544776 29647041255755332   7               15032017000000000006000001016179                         0900000000000010000000000000000000000000000000000000000   0000000000000000000000000A9        170192964704     
0010001300184U 020000000000000000000000000000000000000000000000000000000000000000000000000000000000000000000000000000000000000000000000001303201700000000            000000000000000                              000                           
0010001300185T 020180230000002544776 29647041255855211   7               15032017000000000006000001010421                         0900000000000010000000000000000000000000000000000000000   0000000000000000000000000A9        170192964704     
0010001300186U 020000000000000000000000000000000000000000000000000000000000000000000000000000000000000000000000000000000000000000000000001303201700000000            000000000000000                              000                           
0010001300187T 020180230000002544776 29647041255945470   7               15032017000000000006000001016179                         0900000000000010000000000000000000000000000000000000000   0000000000000000000000000A9        170192964704     
0010001300188U 020000000000000000000000000000000000000000000000000000000000000000000000000000000000000000000000000000000000000000000000001303201700000000            000000000000000                              000                           
0010001300189T 020180230000002544776 29647041256016840   7               15032017000000000006000001002003                         0900000000000010000000000000000000000000000000000000000   0000000000000000000000000A9        170192964704     
0010001300190U 020000000000000000000000000000000000000000000000000000000000000000000000000000000000000000000000000000000000000000000000001303201700000000            000000000000000                              000                           
0010001300191T 020180230000002544776 29647041256312617   7               15032017000000000006000001033316                         0900000000000010000000000000000000000000000000000000000   0000000000000000000000000A9        170192964704     
0010001300192U 020000000000000000000000000000000000000000000000000000000000000000000000000000000000000000000000000000000000000000000000001303201700000000            000000000000000                              000                           
0010001300193T 020180230000002544776 29647041256347173   7               16032017000000000006000001033316                         0900000000000010000000000000000000000000000000000000000   0000000000000000000000000A9        170192964704     
0010001300194U 020000000000000000000000000000000000000000000000000000000000000000000000000000000000000000000000000000000000000000000000001403201700000000            000000000000000                              000                           
0010001300195T 020180230000002544776 29647041256442843   7               15032017000000000006000001018376                         0900000000000010000000000000000000000000000000000000000   0000000000000000000000000A9        170192964704     
0010001300196U 020000000000000000000000000000000000000000000000000000000000000000000000000000000000000000000000000000000000000000000000001303201700000000            000000000000000                              000                           
0010001300197T 020180230000002544776 29647041256540253   7               15032017000000000006000001012688                         0900000000000010000000000000000000000000000000000000000   0000000000000000000000000A9        170192964704     
0010001300198U 020000000000000000000000000000000000000000000000000000000000000000000000000000000000000000000000000000000000000000000000001303201700000000            000000000000000                              000                           
0010001300199T 020180230000002544776 29647041256621019   7               16032017000000000008000001044962                         0900000000000010000000000000000000000000000000000000000   0000000000000000000000000A9        170192964704     
0010001300200U 020000000000000000000000000000000000000000000000000000000000000000000000000000000000000000000000000000000000000000000000001403201700000000            000000000000000                              000                           
0010001300201T 020180230000002544776 29647041256834981   7               16032017000000000006000001033316                         0900000000000010000000000000000000000000000000000000000   0000000000000000000000000A9        170192964704     
0010001300202U 020000000000000000000000000000000000000000000000000000000000000000000000000000000000000000000000000000000000000000000000001403201700000000            000000000000000                              000                           
0010001300203T 020180230000002544776 29647041256932831   7               16032017000000000006000001016179                         0900000000000010000000000000000000000000000000000000000   0000000000000000000000000A9        170192964704     
0010001300204U 020000000000000000000000000000000000000000000000000000000000000000000000000000000000000000000000000000000000000000000000001403201700000000            000000000000000                              000                           
0010001300205T 020180230000002544776 29647041257010417   7               16032017000000000006000001016179                         0900000000000010000000000000000000000000000000000000000   0000000000000000000000000A9        170192964704     
0010001300206U 020000000000000000000000000000000000000000000000000000000000000000000000000000000000000000000000000000000000000000000000001403201700000000            000000000000000                              000                           
0010001300207T 020180230000002544776 29647041257141375   7               16032017000000000008000001020354                         0900000000000010000000000000000000000000000000000000000   0000000000000000000000000A9        170192964704     
0010001300208U 020000000000000000000000000000000000000000000000000000000000000000000000000000000000000000000000000000000000000000000000001403201700000000            000000000000000                              000                           
0010001300209T 020180230000002544776 29647041257226077   7               16032017000000000006000001016179                         0900000000000010000000000000000000000000000000000000000   0000000000000000000000000A9        170192964704     
0010001300210U 020000000000000000000000000000000000000000000000000000000000000000000000000000000000000000000000000000000000000000000000001403201700000000            000000000000000                              000                           
0010001300211T 020180230000002544776 29647041257238869   7               16032017000000000006000001016179                         0900000000000010000000000000000000000000000000000000000   0000000000000000000000000A9        170192964704     
0010001300212U 020000000000000000000000000000000000000000000000000000000000000000000000000000000000000000000000000000000000000000000000001403201700000000            000000000000000                              000                           
0010001300213T 020180230000002544776 29647041257310036   7               16032017000000000008000001008214                         0900000000000010000000000000000000000000000000000000000   0000000000000000000000000A9        170192964704     
0010001300214U 020000000000000000000000000000000000000000000000000000000000000000000000000000000000000000000000000000000000000000000000001403201700000000            000000000000000                              000                           
0010001300215T 020180230000002544776 29647041257417427   7               16032017000000000006000001016179                         0900000000000010000000000000000000000000000000000000000   0000000000000000000000000A9        170192964704     
0010001300216U 020000000000000000000000000000000000000000000000000000000000000000000000000000000000000000000000000000000000000000000000001403201700000000            000000000000000                              000                           
0010001300217T 020180230000002544776 29647041257557013   7               16032017000000000006000001023655                         0900000000000010000000000000000000000000000000000000000   0000000000000000000000000A9        170192964704     
0010001300218U 020000000000000000000000000000000000000000000000000000000000000000000000000000000000000000000000000000000000000000000000001403201700000000            000000000000000                              000                           
0010001300219T 020180230000002544776 29647041257656324   7               16032017000000000006000001028029                         0900000000000010000000000000000000000000000000000000000   0000000000000000000000000A9        170192964704     
0010001300220U 020000000000000000000000000000000000000000000000000000000000000000000000000000000000000000000000000000000000000000000000001403201700000000            000000000000000                              000                           
0010001300221T 020180230000002544776 29647041257741911   7               16032017000000000006000001028029                         0900000000000010000000000000000000000000000000000000000   0000000000000000000000000A9        170192964704     
0010001300222U 020000000000000000000000000000000000000000000000000000000000000000000000000000000000000000000000000000000000000000000000001403201700000000            000000000000000                              000                           
0010001300223T 020180230000002544776 29647041257848222   7               16032017000000000006000001025089                         0900000000000010000000000000000000000000000000000000000   0000000000000000000000000A9        170192964704     
0010001300224U 020000000000000000000000000000000000000000000000000000000000000000000000000000000000000000000000000000000000000000000000001403201700000000            000000000000000                              000                           
0010001300225T 020180230000002544776 29647041258010992   7               16032017000000000006000001012467                         0900000000000010000000000000000000000000000000000000000   0000000000000000000000000A9        170192964704     
0010001300226U 020000000000000000000000000000000000000000000000000000000000000000000000000000000000000000000000000000000000000000000000001403201700000000            000000000000000                              000                           
0010001300227T 020180230000002544776 29647041258107791   7               16032017000000000006000001033316                         0900000000000010500000000000000000000000000000000000000   0000000000000000000000000A9A4      170192964704     
0010001300228U 020000000000000000000000000000000000000000000000000000000000000000000000000000000000000000000000000000000000000000000000001403201700000000            000000000000000                              000                           
0010001300229T 020180230000002544776 29647041258136915   7               16032017000000000006000001033316                         0900000000000010500000000000000000000000000000000000000   0000000000000000000000000A9A4      170192964704     
0010001300230U 020000000000000000000000000000000000000000000000000000000000000000000000000000000000000000000000000000000000000000000000001403201700000000            000000000000000                              000                           
0010001300231T 020180230000002544776 29647041258252601   7               16032017000000000006000001023655                         0900000000000010000000000000000000000000000000000000000   0000000000000000000000000A9        170192964704     
0010001300232U 020000000000000000000000000000000000000000000000000000000000000000000000000000000000000000000000000000000000000000000000001403201700000000            000000000000000                              000                           
0010001300233T 020180230000002544776 29647041258644223   7               16032017000000000006000001028029                         0900000000000010000000000000000000000000000000000000000   0000000000000000000000000A9        170192964704     
0010001300234U 020000000000000000000000000000000000000000000000000000000000000000000000000000000000000000000000000000000000000000000000001403201700000000            000000000000000                              000                           
0010001300235T 020180230000002544776 29647041258734792   7               16032017000000000006000001016179                         0900000000000010000000000000000000000000000000000000000   0000000000000000000000000A9        170192964704     
0010001300236U 020000000000000000000000000000000000000000000000000000000000000000000000000000000000000000000000000000000000000000000000001403201700000000            000000000000000                              000                           
0010001300237T 020180230000002544776 29647041258750460   7               16032017000000000006000001016179                         0900000000000010000000000000000000000000000000000000000   0000000000000000000000000A9        170192964704     
0010001300238U 020000000000000000000000000000000000000000000000000000000000000000000000000000000000000000000000000000000000000000000000001403201700000000            000000000000000                              000                           
0010001300239T 020180230000002544776 29647041258922682   7               16032017000000000006000001028029                         0900000000000010000000000000000000000000000000000000000   0000000000000000000000000A9        170192964704     
0010001300240U 020000000000000000000000000000000000000000000000000000000000000000000000000000000000000000000000000000000000000000000000001403201700000000            000000000000000                              000                           
0010001300241T 020180230000002544776 29647041259059727   7               16032017000000000006000001000132                         0900000000000010000000000000000000000000000000000000000   0000000000000000000000000A9        170192964704     
0010001300242U 020000000000000000000000000000000000000000000000000000000000000000000000000000000000000000000000000000000000000000000000001403201700000000            000000000000000                              000                           
0010001300243T 020180230000002544776 29647041259124656   7               16032017000000000006000001016179                         0900000000000010000000000000000000000000000000000000000   0000000000000000000000000A9        170192964704     
0010001300244U 020000000000000000000000000000000000000000000000000000000000000000000000000000000000000000000000000000000000000000000000001403201700000000            000000000000000                              000                           
0010001300245T 020180230000002544776 29647041259250286   7               16032017000000000006000001016179                         0900000000000010000000000000000000000000000000000000000   0000000000000000000000000A9        170192964704     
0010001300246U 020000000000000000000000000000000000000000000000000000000000000000000000000000000000000000000000000000000000000000000000001403201700000000            000000000000000                              000                           
0010001300247T 020180230000002544776 29647041259357865   7               16032017000000000006000001016179                         0900000000000010000000000000000000000000000000000000000   0000000000000000000000000A9        170192964704     
0010001300248U 020000000000000000000000000000000000000000000000000000000000000000000000000000000000000000000000000000000000000000000000001403201700000000            000000000000000                              000                           
0010001300249T 020180230000002544776 29647041259424416   7               16032017000000000006000001028029                         0900000000000010000000000000000000000000000000000000000   0000000000000000000000000A9        170192964704     
0010001300250U 020000000000000000000000000000000000000000000000000000000000000000000000000000000000000000000000000000000000000000000000001403201700000000            000000000000000                              000                           
0010001300251T 020180230000002544776 29647041259616452   7               16032017000000000008000001003018                         0900000000000010000000000000000000000000000000000000000   0000000000000000000000000A9        170192964704     
0010001300252U 020000000000000000000000000000000000000000000000000000000000000000000000000000000000000000000000000000000000000000000000001403201700000000            000000000000000                              000                           
0010001300253T 020180230000002544776 29647041259734986   7               16032017000000000006000001016810                         0900000000000010000000000000000000000000000000000000000   0000000000000000000000000A9        170192964704     
0010001300254U 020000000000000000000000000000000000000000000000000000000000000000000000000000000000000000000000000000000000000000000000001403201700000000            000000000000000                              000                           
0010001300255T 020180230000002544776 29647041259829013   7               16032017000000000006000001000132                         0900000000000010000000000000000000000000000000000000000   0000000000000000000000000A9        170192964704     
0010001300256U 020000000000000000000000000000000000000000000000000000000000000000000000000000000000000000000000000000000000000000000000001403201700000000            000000000000000                              000                           
0010001300257T 020180230000002544776 29647041259921065   7               16032017000000000006000001006254                         0900000000000010000000000000000000000000000000000000000   0000000000000000000000000A9        170192964704     
0010001300258U 020000000000000000000000000000000000000000000000000000000000000000000000000000000000000000000000000000000000000000000000001403201700000000            000000000000000                              000                           
0010001300259T 020180230000002544776 29647041260213545   7               16032017000000000006000001016179                         0900000000000010000000000000000000000000000000000000000   0000000000000000000000000A9        170192964704     
0010001300260U 020000000000000000000000000000000000000000000000000000000000000000000000000000000000000000000000000000000000000000000000001403201700000000            000000000000000                              000                           
0010001300261T 020180230000002544776 29647041260322533   7               16032017000000000006000001012467                         0900000000000010000000000000000000000000000000000000000   0000000000000000000000000A9        170192964704     
0010001300262U 020000000000000000000000000000000000000000000000000000000000000000000000000000000000000000000000000000000000000000000000001403201700000000            000000000000000                              000                           
0010001300263T 020180230000002544776 29647041260446943   7               16032017000000000006000001023655                         0900000000000010000000000000000000000000000000000000000   0000000000000000000000000A9        170192964704     
0010001300264U 020000000000000000000000000000000000000000000000000000000000000000000000000000000000000000000000000000000000000000000000001403201700000000            000000000000000                              000                           
0010001300265T 020180230000002544776 29647041260639667   7               16032017000000000006000001013617                         0900000000000010000000000000000000000000000000000000000   0000000000000000000000000A9        170192964704     
0010001300266U 020000000000000000000000000000000000000000000000000000000000000000000000000000000000000000000000000000000000000000000000001403201700000000            000000000000000                              000                           
0010001300267T 020180230000002544776 29647041260921798   7               16032017000000000006000001016179                         0900000000000010000000000000000000000000000000000000000   0000000000000000000000000A9        170192964704     
0010001300268U 020000000000000000000000000000000000000000000000000000000000000000000000000000000000000000000000000000000000000000000000001403201700000000            000000000000000                              000                           
0010001300269T 020180230000002544776 29647041261036142   7               16032017000000000006000001038148                         0900000000000010000000000000000000000000000000000000000   0000000000000000000000000A9        170192964704     
0010001300270U 020000000000000000000000000000000000000000000000000000000000000000000000000000000000000000000000000000000000000000000000001403201700000000            000000000000000                              000                           
0010001300271T 020180230000002544776 29647041261136621   7               1603201700000000000600000100233X                         0900000000000010500000000000000000000000000000000000000   0000000000000000000000000A9A4      170192964704     
0010001300272U 020000000000000000000000000000000000000000000000000000000000000000000000000000000000000000000000000000000000000000000000001403201700000000            000000000000000                              000                           
0010001300273T 020180230000002544776 29647041261340904   7               16032017000000000006000001033316                         0900000000000010000000000000000000000000000000000000000   0000000000000000000000000A9        170192964704     
0010001300274U 020000000000000000000000000000000000000000000000000000000000000000000000000000000000000000000000000000000000000000000000001403201700000000            000000000000000                              000                           
0010001300275T 020180230000002544776 29647041261619535   7               16032017000000000006000001028495                         0900000000000010000000000000000000000000000000000000000   0000000000000000000000000A9        170192964704     
0010001300276U 020000000000000000000000000000000000000000000000000000000000000000000000000000000000000000000000000000000000000000000000001403201700000000            000000000000000                              000                           
0010001300277T 020180230000002544776 29647041261732887   7               16032017000000000006000001016179                         0900000000000010000000000000000000000000000000000000000   0000000000000000000000000A9        170192964704     
0010001300278U 020000000000000000000000000000000000000000000000000000000000000000000000000000000000000000000000000000000000000000000000001403201700000000            000000000000000                              000                           
0010001300279T 020180230000002544776 29647041262023682   7               16032017000000000006000001001597                         0900000000000010000000000000000000000000000000000000000   0000000000000000000000000A9        170192964704     
0010001300280U 020000000000000000000000000000000000000000000000000000000000000000000000000000000000000000000000000000000000000000000000001403201700000000            000000000000000                              000                           
0010001300281T 020180230000002544776 29647041262034412   7               16032017000000000006000001001597                         0900000000000010000000000000000000000000000000000000000   0000000000000000000000000A9        170192964704     
0010001300282U 020000000000000000000000000000000000000000000000000000000000000000000000000000000000000000000000000000000000000000000000001403201700000000            000000000000000                              000                           
0010001300283T 020180230000002544776 29647041262147772   7               16032017000000000006000001010545                         0900000000000010000000000000000000000000000000000000000   0000000000000000000000000A9        170192964704     
0010001300284U 020000000000000000000000000000000000000000000000000000000000000000000000000000000000000000000000000000000000000000000000001403201700000000            000000000000000                              000                           
0010001300285T 020180230000002544776 29647041262200096   7               16032017000000000006000001016179                         0900000000000010000000000000000000000000000000000000000   0000000000000000000000000A9        170192964704     
0010001300286U 020000000000000000000000000000000000000000000000000000000000000000000000000000000000000000000000000000000000000000000000001403201700000000            000000000000000                              000                           
0010001300287T 020180230000002544776 29647041262202367   7               16032017000000000006000001016179                         0900000000000010000000000000000000000000000000000000000   0000000000000000000000000A9        170192964704     
0010001300288U 020000000000000000000000000000000000000000000000000000000000000000000000000000000000000000000000000000000000000000000000001403201700000000            000000000000000                              000                           
0010001300289T 020180230000002544776 29647041262604393   7               16032017000000000006000001028029                         0900000000000010000000000000000000000000000000000000000   0000000000000000000000000A9        170192964704     
0010001300290U 020000000000000000000000000000000000000000000000000000000000000000000000000000000000000000000000000000000000000000000000001403201700000000            000000000000000                              000                           
0010001300291T 020180230000002544776 29647041262711399   7               16032017000000000006000001033316                         0900000000000010000000000000000000000000000000000000000   0000000000000000000000000A9        170192964704     
0010001300292U 020000000000000000000000000000000000000000000000000000000000000000000000000000000000000000000000000000000000000000000000001403201700000000            000000000000000                              000                           
0010001300293T 020180230000002544776 29647041263256180   7               16032017000000000006000001005827                         0900000000000010000000000000000000000000000000000000000   0000000000000000000000000A9        170192964704     
0010001300294U 020000000000000000000000000000000000000000000000000000000000000000000000000000000000000000000000000000000000000000000000001403201700000000            000000000000000                              000                           
0010001300295T 020180230000002544776 29647041263352579   7               16032017000000000006000001016179                         0900000000000010000000000000000000000000000000000000000   0000000000000000000000000A9        170192964704     
0010001300296U 020000000000000000000000000000000000000000000000000000000000000000000000000000000000000000000000000000000000000000000000001403201700000000            000000000000000                              000                           
0010001300297T 020180230000002544776 29647041263520325   7               16032017000000000006000001028029                         0900000000000010000000000000000000000000000000000000000   0000000000000000000000000A9        170192964704     
0010001300298U 020000000000000000000000000000000000000000000000000000000000000000000000000000000000000000000000000000000000000000000000001403201700000000            000000000000000                              000                           
0010001300299T 020180230000002544776 29647041263820114   7               16032017000000000006000001018376                         0900000000000010000000000000000000000000000000000000000   0000000000000000000000000A9        170192964704     
0010001300300U 020000000000000000000000000000000000000000000000000000000000000000000000000000000000000000000000000000000000000000000000001403201700000000            000000000000000                              000                           
0010001300301T 020180230000002544776 29647041263857362   7               16032017000000000006000001018376                         0900000000000010000000000000000000000000000000000000000   0000000000000000000000000A9        170192964704     
0010001300302U 020000000000000000000000000000000000000000000000000000000000000000000000000000000000000000000000000000000000000000000000001403201700000000            000000000000000                              000                           
0010001300303T 020180230000002544776 29647041263906666   7               16032017000000000006000001033316                         0900000000000010000000000000000000000000000000000000000   0000000000000000000000000A9        170192964704     
0010001300304U 020000000000000000000000000000000000000000000000000000000000000000000000000000000000000000000000000000000000000000000000001403201700000000            000000000000000                              000                           
0010001300305T 020180230000002544776 29647041263918261   7               16032017000000000006000001033316                         0900000000000010000000000000000000000000000000000000000   0000000000000000000000000A9        170192964704     
0010001300306U 020000000000000000000000000000000000000000000000000000000000000000000000000000000000000000000000000000000000000000000000001403201700000000            000000000000000                              000                           
0010001300307T 020180230000002544776 29647041263926314   7               16032017000000000006000001033316                         0900000000000010000000000000000000000000000000000000000   0000000000000000000000000A9        170192964704     
0010001300308U 020000000000000000000000000000000000000000000000000000000000000000000000000000000000000000000000000000000000000000000000001403201700000000            000000000000000                              000                           
0010001300309T 020180230000002544776 29647041263934394   7               16032017000000000006000001033316                         0900000000000010000000000000000000000000000000000000000   0000000000000000000000000A9        170192964704     
0010001300310U 020000000000000000000000000000000000000000000000000000000000000000000000000000000000000000000000000000000000000000000000001403201700000000            000000000000000                              000                           
0010001300311T 020180230000002544776 29647041264041403   7               16032017000000000008000001033316                         0900000000000010000000000000000000000000000000000000000   0000000000000000000000000A9        170192964704     
0010001300312U 020000000000000000000000000000000000000000000000000000000000000000000000000000000000000000000000000000000000000000000000001403201700000000            000000000000000                              000                           
0010001300313T 020180230000002544776 29647041264154302   7               16032017000000000006000001033316                         0900000000000010000000000000000000000000000000000000000   0000000000000000000000000A9        170192964704     
0010001300314U 020000000000000000000000000000000000000000000000000000000000000000000000000000000000000000000000000000000000000000000000001403201700000000            000000000000000                              000                           
0010001300315T 020180230000002544776 29647041264157069   7               16032017000000000006000001033316                         0900000000000010000000000000000000000000000000000000000   0000000000000000000000000A9        170192964704     
0010001300316U 020000000000000000000000000000000000000000000000000000000000000000000000000000000000000000000000000000000000000000000000001403201700000000            000000000000000                              000                           
0010001300317T 020180230000002544776 29647041264236131   7               16032017000000000006000001016179                         0900000000000010000000000000000000000000000000000000000   0000000000000000000000000A9        170192964704     
0010001300318U 020000000000000000000000000000000000000000000000000000000000000000000000000000000000000000000000000000000000000000000000001403201700000000            000000000000000                              000                           
0010001300319T 020180230000002544776 29647041264331837   7               16032017000000000006000001023043                         0900000000000010000000000000000000000000000000000000000   0000000000000000000000000A9        170192964704     
0010001300320U 020000000000000000000000000000000000000000000000000000000000000000000000000000000000000000000000000000000000000000000000001403201700000000            000000000000000                              000                           
0010001300321T 020180230000002544776 29647041264402054   7               1603201700000000000800000100913X                         0900000000000010000000000000000000000000000000000000000   0000000000000000000000000A9        170192964704     
0010001300322U 020000000000000000000000000000000000000000000000000000000000000000000000000000000000000000000000000000000000000000000000001403201700000000            000000000000000                              000                           
0010001300323T 020180230000002544776 29647041264741015   7               16032017000000000006000001028029                         0900000000000010000000000000000000000000000000000000000   0000000000000000000000000A9        170192964704     
0010001300324U 020000000000000000000000000000000000000000000000000000000000000000000000000000000000000000000000000000000000000000000000001403201700000000            000000000000000                              000                           
0010001300325T 020180230000002544776 29647041264821903   7               16032017000000000008000001033316                         0900000000000010000000000000000000000000000000000000000   0000000000000000000000000A9        170192964704     
0010001300326U 020000000000000000000000000000000000000000000000000000000000000000000000000000000000000000000000000000000000000000000000001403201700000000            000000000000000                              000                           
0010001300327T 020180230000002544776 29647041264939570   7               16032017000000000006000001012688                         0900000000000010000000000000000000000000000000000000000   0000000000000000000000000A9        170192964704     
0010001300328U 020000000000000000000000000000000000000000000000000000000000000000000000000000000000000000000000000000000000000000000000001403201700000000            000000000000000                              000                           
0010001300329T 020180230000002544776 29647041265112358   7               16032017000000000008000001016179                         0900000000000010000000000000000000000000000000000000000   0000000000000000000000000A9        170192964704     
0010001300330U 020000000000000000000000000000000000000000000000000000000000000000000000000000000000000000000000000000000000000000000000001403201700000000            000000000000000                              000                           
0010001300331T 020180230000002544776 29647041265219110   7               16032017000000000008000001014028                         0900000000000010000000000000000000000000000000000000000   0000000000000000000000000A9        170192964704     
0010001300332U 020000000000000000000000000000000000000000000000000000000000000000000000000000000000000000000000000000000000000000000000001403201700000000            000000000000000                              000                           
0010001300333T 020180230000002544776 29647041265329729   7               16032017000000000006000001018376                         0900000000000010000000000000000000000000000000000000000   0000000000000000000000000A9        170192964704     
0010001300334U 020000000000000000000000000000000000000000000000000000000000000000000000000000000000000000000000000000000000000000000000001403201700000000            000000000000000                              000                           
0010001300335T 020180230000002544776 29647041265418890   7               16032017000000000006000001008214                         0900000000000010000000000000000000000000000000000000000   0000000000000000000000000A9        170192964704     
0010001300336U 020000000000000000000000000000000000000000000000000000000000000000000000000000000000000000000000000000000000000000000000001403201700000000            000000000000000                              000                           
0010001300337T 020180230000002544776 29647041265628638   7               16032017000000000006000001023655                         0900000000000010000000000000000000000000000000000000000   0000000000000000000000000A9        170192964704     
0010001300338U 020000000000000000000000000000000000000000000000000000000000000000000000000000000000000000000000000000000000000000000000001403201700000000            000000000000000                              000                           
0010001300339T 020180230000002544776 29647041265709645   7               16032017000000000006000001016179                         0900000000000010000000000000000000000000000000000000000   0000000000000000000000000A9        170192964704     
0010001300340U 020000000000000000000000000000000000000000000000000000000000000000000000000000000000000000000000000000000000000000000000001403201700000000            000000000000000                              000                           
0010001300341T 020180230000002544776 29647041265740777   7               16032017000000000006000001016179                         0900000000000010000000000000000000000000000000000000000   0000000000000000000000000A9        170192964704     
0010001300342U 020000000000000000000000000000000000000000000000000000000000000000000000000000000000000000000000000000000000000000000000001403201700000000            000000000000000                              000                           
0010001300343T 020180230000002544776 29647041265850504   7               16032017000000000006000001008214                         0900000000000010000000000000000000000000000000000000000   0000000000000000000000000A9        170192964704     
0010001300344U 020000000000000000000000000000000000000000000000000000000000000000000000000000000000000000000000000000000000000000000000001403201700000000            000000000000000                              000                           
0010001300345T 020180230000002544776 29647041265950596   7               16032017000000000006000001028495                         0900000000000010000000000000000000000000000000000000000   0000000000000000000000000A9        170192964704     
0010001300346U 020000000000000000000000000000000000000000000000000000000000000000000000000000000000000000000000000000000000000000000000001403201700000000            000000000000000                              000                           
0010001300347T 020180230000002544776 29647041266011636   7               16032017000000000006000001011444                         0900000000000010000000000000000000000000000000000000000   0000000000000000000000000A9        170192964704     
0010001300348U 020000000000000000000000000000000000000000000000000000000000000000000000000000000000000000000000000000000000000000000000001403201700000000            000000000000000                              000                           
0010001300349T 020180230000002544776 29647041266118972   7               16032017000000000008000001020354                         0900000000000010000000000000000000000000000000000000000   0000000000000000000000000A9        170192964704     
0010001300350U 020000000000000000000000000000000000000000000000000000000000000000000000000000000000000000000000000000000000000000000000001403201700000000            000000000000000                              000                           
0010001300351T 020180230000002544776 29647041266219696   7               16032017000000000006000001016179                         0900000000000010000000000000000000000000000000000000000   0000000000000000000000000A9        170192964704     
0010001300352U 020000000000000000000000000000000000000000000000000000000000000000000000000000000000000000000000000000000000000000000000001403201700000000            000000000000000                              000                           
0010001300353T 020180230000002544776 29647041266340426   7               16032017000000000006000001033316                         0900000000000010000000000000000000000000000000000000000   0000000000000000000000000A9        170192964704     
0010001300354U 020000000000000000000000000000000000000000000000000000000000000000000000000000000000000000000000000000000000000000000000001403201700000000            000000000000000                              000                           
0010001300355T 020180230000002544776 29647041266547073   7               16032017000000000006000001034770                         0900000000000010500000000000000000000000000000000000000   0000000000000000000000000A9A4      170192964704     
0010001300356U 020000000000000000000000000000000000000000000000000000000000000000000000000000000000000000000000000000000000000000000000001403201700000000            000000000000000                              000                           
0010001300357T 020180230000002544776 29647041266658867   7               16032017000000000006000001018376                         0900000000000010000000000000000000000000000000000000000   0000000000000000000000000A9        170192964704     
0010001300358U 020000000000000000000000000000000000000000000000000000000000000000000000000000000000000000000000000000000000000000000000001403201700000000            000000000000000                              000                           
0010001300359T 020180230000002544776 29647041266719003   7               16032017000000000008000001000132                         0900000000000010000000000000000000000000000000000000000   0000000000000000000000000A9        170192964704     
0010001300360U 020000000000000000000000000000000000000000000000000000000000000000000000000000000000000000000000000000000000000000000000001403201700000000            000000000000000                              000                           
0010001300361T 020180230000002544776 29647041266830591   7               16032017000000000006000001033316                         0900000000000010000000000000000000000000000000000000000   0000000000000000000000000A9        170192964704     
0010001300362U 020000000000000000000000000000000000000000000000000000000000000000000000000000000000000000000000000000000000000000000000001403201700000000            000000000000000                              000                           
0010001300363T 020180230000002544776 29647041267016346   7               16032017000000000006000001033316                         0900000000000010000000000000000000000000000000000000000   0000000000000000000000000A9        170192964704     
0010001300364U 020000000000000000000000000000000000000000000000000000000000000000000000000000000000000000000000000000000000000000000000001403201700000000            000000000000000                              000                           
0010001300365T 020180230000002544776 29647041267345312   7               16032017000000000006000001033316                         0900000000000010000000000000000000000000000000000000000   0000000000000000000000000A9        170192964704     
0010001300366U 020000000000000000000000000000000000000000000000000000000000000000000000000000000000000000000000000000000000000000000000001403201700000000            000000000000000                              000                           
0010001300367T 020180230000002544776 29647041267414433   7               16032017000000000006000001012467                         0900000000000010000000000000000000000000000000000000000   0000000000000000000000000A9        170192964704     
0010001300368U 020000000000000000000000000000000000000000000000000000000000000000000000000000000000000000000000000000000000000000000000001403201700000000            000000000000000                              000                           
0010001300369T 020180230000002544776 29647041267538719   7               16032017000000000006000001001104                         0900000000000010000000000000000000000000000000000000000   0000000000000000000000000A9        170192964704     
0010001300370U 020000000000000000000000000000000000000000000000000000000000000000000000000000000000000000000000000000000000000000000000001403201700000000            000000000000000                              000                           
0010001300371T 020180230000002544776 29647041268057703   7               16032017000000000006000001009636                         0900000000000010000000000000000000000000000000000000000   0000000000000000000000000A9        170192964704     
0010001300372U 020000000000000000000000000000000000000000000000000000000000000000000000000000000000000000000000000000000000000000000000001403201700000000            000000000000000                              000                           
0010001300373T 020180230000002544776 29647041268146836   7               16032017000000000006000001016179                         0900000000000010000000000000000000000000000000000000000   0000000000000000000000000A9        170192964704     
0010001300374U 020000000000000000000000000000000000000000000000000000000000000000000000000000000000000000000000000000000000000000000000001403201700000000            000000000000000                              000                           
0010001300375T 020180230000002544776 29647041268231757   7               16032017000000000006000001016179                         0900000000000010000000000000000000000000000000000000000   0000000000000000000000000A9        170192964704     
0010001300376U 020000000000000000000000000000000000000000000000000000000000000000000000000000000000000000000000000000000000000000000000001403201700000000            000000000000000                              000                           
0010001300377T 020180230000002544776 29647041268345004   7               16032017000000000006000001016179                         0900000000000010000000000000000000000000000000000000000   0000000000000000000000000A9        170192964704     
0010001300378U 020000000000000000000000000000000000000000000000000000000000000000000000000000000000000000000000000000000000000000000000001403201700000000            000000000000000                              000                           
0010001300379T 020180230000002544776 29647041268443295   7               16032017000000000006000001008214                         0900000000000010000000000000000000000000000000000000000   0000000000000000000000000A9        170192964704     
0010001300380U 020000000000000000000000000000000000000000000000000000000000000000000000000000000000000000000000000000000000000000000000001403201700000000            000000000000000                              000                           
0010001300381T 020180230000002544776 29647041268843218   7               1603201700000000000600000100149X                         0900000000000010000000000000000000000000000000000000000   0000000000000000000000000A9        170192964704     
0010001300382U 020000000000000000000000000000000000000000000000000000000000000000000000000000000000000000000000000000000000000000000000001403201700000000            000000000000000                              000                           
0010001300383T 020180230000002544776 29647041268924751   7               16032017000000000006000001035041                         0900000000000010000000000000000000000000000000000000000   0000000000000000000000000A9        170192964704     
0010001300384U 020000000000000000000000000000000000000000000000000000000000000000000000000000000000000000000000000000000000000000000000001403201700000000            000000000000000                              000                           
0010001300385T 020180230000002544776 29647041269052110   7               16032017000000000006000001035041                         0900000000000010000000000000000000000000000000000000000   0000000000000000000000000A9        170192964704     
0010001300386U 020000000000000000000000000000000000000000000000000000000000000000000000000000000000000000000000000000000000000000000000001403201700000000            000000000000000                              000                           
0010001300387T 020180230000002544776 29647041269115757   7               16032017000000000006000001016179                         0900000000000010000000000000000000000000000000000000000   0000000000000000000000000A9        170192964704     
0010001300388U 020000000000000000000000000000000000000000000000000000000000000000000000000000000000000000000000000000000000000000000000001403201700000000            000000000000000                              000                           
0010001300389T 020180230000002544776 29647041269249635   7               16032017000000000006000001018376                         0900000000000010000000000000000000000000000000000000000   0000000000000000000000000A9        170192964704     
0010001300390U 020000000000000000000000000000000000000000000000000000000000000000000000000000000000000000000000000000000000000000000000001403201700000000            000000000000000                              000                           
0010001300391T 020180230000002544776 29647041269413211   7               16032017000000000006000001012467                         0900000000000010000000000000000000000000000000000000000   0000000000000000000000000A9        170192964704     
0010001300392U 020000000000000000000000000000000000000000000000000000000000000000000000000000000000000000000000000000000000000000000000001403201700000000            000000000000000                              000                           
0010001300393T 020180230000002544776 29647041269605074   7               16032017000000000006000001016179                         0900000000000010000000000000000000000000000000000000000   0000000000000000000000000A9        170192964704     
0010001300394U 020000000000000000000000000000000000000000000000000000000000000000000000000000000000000000000000000000000000000000000000001403201700000000            000000000000000                              000                           
0010001300395T 020180230000002544776 29647041269925361   7               16032017000000000006000001023655                         0900000000000010000000000000000000000000000000000000000   0000000000000000000000000A9        170192964704     
0010001300396U 020000000000000000000000000000000000000000000000000000000000000000000000000000000000000000000000000000000000000000000000001403201700000000            000000000000000                              000                           
0010001300397T 020180230000002544776 29647041269947216   7               16032017000000000006000001023655                         0900000000000010000000000000000000000000000000000000000   0000000000000000000000000A9        170192964704     
0010001300398U 020000000000000000000000000000000000000000000000000000000000000000000000000000000000000000000000000000000000000000000000001403201700000000            000000000000000                              000                           
0010001300399T 020180230000002544776 29647041270046694   7               16032017000000000008000001016020                         0900000000000010000000000000000000000000000000000000000   0000000000000000000000000A9        170192964704     
0010001300400U 020000000000000000000000000000000000000000000000000000000000000000000000000000000000000000000000000000000000000000000000001403201700000000            000000000000000                              000                           
0010001300401T 020180230000002544776 29647041270317657   7               16032017000000000006000001028029                         0900000000000010000000000000000000000000000000000000000   0000000000000000000000000A9        170192964704     
0010001300402U 020000000000000000000000000000000000000000000000000000000000000000000000000000000000000000000000000000000000000000000000001403201700000000            000000000000000                              000                           
0010001300403T 020180230000002544776 29647041270336861   7               16032017000000000006000001028029                         0900000000000010000000000000000000000000000000000000000   0000000000000000000000000A9        170192964704     
0010001300404U 020000000000000000000000000000000000000000000000000000000000000000000000000000000000000000000000000000000000000000000000001403201700000000            000000000000000                              000                           
0010001300405T 020180230000002544776 29647041270500801   7               16032017000000000008000001028029                         0900000000000010000000000000000000000000000000000000000   0000000000000000000000000A9        170192964704     
0010001300406U 020000000000000000000000000000000000000000000000000000000000000000000000000000000000000000000000000000000000000000000000001403201700000000            000000000000000                              000                           
0010001300407T 020180230000002544776 29647041270621241   7               16032017000000000006000001028029                         0900000000000010500000000000000000000000000000000000000   0000000000000000000000000A9A4      170192964704     
0010001300408U 020000000000000000000000000000000000000000000000000000000000000000000000000000000000000000000000000000000000000000000000001403201700000000            000000000000000                              000                           
0010001300409T 020180230000002544776 29647041270652759   7               16032017000000000006000001028029                         0900000000000010500000000000000000000000000000000000000   0000000000000000000000000A9A4      170192964704     
0010001300410U 020000000000000000000000000000000000000000000000000000000000000000000000000000000000000000000000000000000000000000000000001403201700000000            000000000000000                              000                           
0010001300411T 020180230000002544776 29647041270718789   7               16032017000000000006000001018376                         0900000000000010000000000000000000000000000000000000000   0000000000000000000000000A9        170192964704     
0010001300412U 020000000000000000000000000000000000000000000000000000000000000000000000000000000000000000000000000000000000000000000000001403201700000000            000000000000000                              000                           
