00100000         2247745860001000029647040014       0180230000002544776 INSTITUTO DE SELECAO E TECNOLOBANCO DO BRASIL                         21503201701103900006203000000515122941PROCESSAMEN                                                 
00100011T0100020 20247745860001000029647040014       0180230000002544776 INSTITUTO DE SELECAO E TECNOLO                                                                                000000001503201700000000  000000000                      
0010001300001T 020180230000002544776 29647040511503547   7               17032017000000000006000001002321                         0900000000000010000000000000000000000000000000000000000   0000000000000000000000000A9        170192964704     
0010001300002U 020000000000000000000000000000000000000000000000000000000000000000000000000000000000000000000000000000000000000000000000001503201700000000            000000000000000                              000                           
0010001300003T 020180230000002544776 29647040511534383   7               17032017000000000006000001002321                         0900000000000010000000000000000000000000000000000000000   0000000000000000000000000A9        170192964704     
0010001300004U 020000000000000000000000000000000000000000000000000000000000000000000000000000000000000000000000000000000000000000000000001503201700000000            000000000000000                              000                           
0010001300005T 020180230000002544776 29647040547323184   7               17032017000000000006000001028029                         0900000000000010000000000000000000000000000000000000000   0000000000000000000000000A9        170192964704     
0010001300006U 020000000000000000000000000000000000000000000000000000000000000000000000000000000000000000000000000000000000000000000000001503201700000000            000000000000000                              000                           
0010001300007T 020180230000002544776 29647040558801944   7               16032017000000000006000001000132                         0900000000000010500000000000000000000000000000000000000   0000000000000000000000000A9A4      170192964704     
0010001300008U 020000000000000000000000000000000000000000000000000000000000000000000000000000000000000000000000000000000000000000000000001403201700000000            000000000000000                              000                           
0010001300009T 020180230000002544776 29647040558829013   7               16032017000000000006000001000132                         0900000000000010500000000000000000000000000000000000000   0000000000000000000000000A9A4      170192964704     
0010001300010U 020000000000000000000000000000000000000000000000000000000000000000000000000000000000000000000000000000000000000000000000001403201700000000            000000000000000                              000                           
0010001300011T 020180230000002544776 29647040558858171   7               16032017000000000006000001000132                         0900000000000010500000000000000000000000000000000000000   0000000000000000000000000A9A4      170192964704     
0010001300012U 020000000000000000000000000000000000000000000000000000000000000000000000000000000000000000000000000000000000000000000000001403201700000000            000000000000000                              000                           
0010001300013T 020180230000002544776 29647040594234852   7               17032017000000000006000001016179                         0900000000000010000000000000000000000000000000000000000   0000000000000000000000000A9        170192964704     
0010001300014U 020000000000000000000000000000000000000000000000000000000000000000000000000000000000000000000000000000000000000000000000001503201700000000            000000000000000                              000                           
0010001300015T 020180230000002544776 29647040594258204   7               17032017000000000006000001016179                         0900000000000010000000000000000000000000000000000000000   0000000000000000000000000A9        170192964704     
0010001300016U 020000000000000000000000000000000000000000000000000000000000000000000000000000000000000000000000000000000000000000000000001503201700000000            000000000000000                              000                           
0010001300017T 020180230000002544776 29647040629535658   7               17032017000000000006000001012629                         0900000000000010000000000000000000000000000000000000000   0000000000000000000000000A9        170192964704     
0010001300018U 020000000000000000000000000000000000000000000000000000000000000000000000000000000000000000000000000000000000000000000000001503201700000000            000000000000000                              000                           
0010001300019T 020180230000002544776 29647040638628305   7               17032017000000000006000001016179                         0900000000000010000000000000000000000000000000000000000   0000000000000000000000000A9        170192964704     
0010001300020U 020000000000000000000000000000000000000000000000000000000000000000000000000000000000000000000000000000000000000000000000001503201700000000            000000000000000                              000                           
0010001300021T 020180230000002544776 29647040647034578   7               17032017000000000006000001001511                         0900000000000010000000000000000000000000000000000000000   0000000000000000000000000A9        170192964704     
0010001300022U 020000000000000000000000000000000000000000000000000000000000000000000000000000000000000000000000000000000000000000000000001503201700000000            000000000000000                              000                           
0010001300023T 020180230000002544776 29647040718025582   7               17032017000000000006000001016179                         0900000000000010000000000000000000000000000000000000000   0000000000000000000000000A9        170192964704     
0010001300024U 020000000000000000000000000000000000000000000000000000000000000000000000000000000000000000000000000000000000000000000000001503201700000000            000000000000000                              000                           
0010001300025T 020180230000002544776 29647040725206003   7               17032017000000000006000001009849                         0900000000000010000000000000000000000000000000000000000   0000000000000000000000000A9        170192964704     
0010001300026U 020000000000000000000000000000000000000000000000000000000000000000000000000000000000000000000000000000000000000000000000001503201700000000            000000000000000                              000                           
0010001300027T 020180230000002544776 29647040736815187   7               17032017000000000006000001016179                         0900000000000010000000000000000000000000000000000000000   0000000000000000000000000A9        170192964704     
0010001300028U 020000000000000000000000000000000000000000000000000000000000000000000000000000000000000000000000000000000000000000000000001503201700000000            000000000000000                              000                           
0010001300029T 020180230000002544776 29647040736817649   7               17032017000000000006000001016179                         0900000000000010000000000000000000000000000000000000000   0000000000000000000000000A9        170192964704     
0010001300030U 020000000000000000000000000000000000000000000000000000000000000000000000000000000000000000000000000000000000000000000000001503201700000000            000000000000000                              000                           
0010001300031T 020180230000002544776 29647040769919064   7               17032017000000000006000001008214                         0900000000000010000000000000000000000000000000000000000   0000000000000000000000000A9        170192964704     
0010001300032U 020000000000000000000000000000000000000000000000000000000000000000000000000000000000000000000000000000000000000000000000001503201700000000            000000000000000                              000                           
0010001300033T 020180230000002544776 29647040780909183   7               17032017000000000006000001023655                         0900000000000010000000000000000000000000000000000000000   0000000000000000000000000A9        170192964704     
0010001300034U 020000000000000000000000000000000000000000000000000000000000000000000000000000000000000000000000000000000000000000000000001503201700000000            000000000000000                              000                           
0010001300035T 020180230000002544776 29647040781129387   7               17032017000000000006000001028029                         0900000000000010000000000000000000000000000000000000000   0000000000000000000000000A9        170192964704     
0010001300036U 020000000000000000000000000000000000000000000000000000000000000000000000000000000000000000000000000000000000000000000000001503201700000000            000000000000000                              000                           
0010001300037T 020180230000002544776 29647040783530355   7               17032017000000000006000001028029                         0900000000000010000000000000000000000000000000000000000   0000000000000000000000000A9        170192964704     
0010001300038U 020000000000000000000000000000000000000000000000000000000000000000000000000000000000000000000000000000000000000000000000001503201700000000            000000000000000                              000                           
0010001300039T 020180230000002544776 29647040783532471   7               17032017000000000006000001028029                         0900000000000010000000000000000000000000000000000000000   0000000000000000000000000A9        170192964704     
0010001300040U 020000000000000000000000000000000000000000000000000000000000000000000000000000000000000000000000000000000000000000000000001503201700000000            000000000000000                              000                           
0010001300041T 020180230000002544776 29647040808523291   7               17032017000000000006000001012467                         0900000000000010000000000000000000000000000000000000000   0000000000000000000000000A9        170192964704     
0010001300042U 020000000000000000000000000000000000000000000000000000000000000000000000000000000000000000000000000000000000000000000000001503201700000000            000000000000000                              000                           
0010001300043T 020180230000002544776 29647040834020100   7               17032017000000000006000001020818                         0900000000000010000000000000000000000000000000000000000   0000000000000000000000000A9        170192964704     
0010001300044U 020000000000000000000000000000000000000000000000000000000000000000000000000000000000000000000000000000000000000000000000001503201700000000            000000000000000                              000                           
0010001300045T 020180230000002544776 29647040835943555   7               17032017000000000006000001000132                         0900000000000010500000000000000000000000000000000000000   0000000000000000000000000A9A4      170192964704     
0010001300046U 020000000000000000000000000000000000000000000000000000000000000000000000000000000000000000000000000000000000000000000000001503201700000000            000000000000000                              000                           
0010001300047T 020180230000002544776 29647040839851877   7               17032017000000000006000001002208                         0900000000000010000000000000000000000000000000000000000   0000000000000000000000000A9        170192964704     
0010001300048U 020000000000000000000000000000000000000000000000000000000000000000000000000000000000000000000000000000000000000000000000001503201700000000            000000000000000                              000                           
0010001300049T 020180230000002544776 29647040845518167   7               17032017000000000006000001028029                         0900000000000010000000000000000000000000000000000000000   0000000000000000000000000A9        170192964704     
0010001300050U 020000000000000000000000000000000000000000000000000000000000000000000000000000000000000000000000000000000000000000000000001503201700000000            000000000000000                              000                           
0010001300051T 020180230000002544776 29647040845520822   7               17032017000000000006000001028029                         0900000000000010000000000000000000000000000000000000000   0000000000000000000000000A9        170192964704     
0010001300052U 020000000000000000000000000000000000000000000000000000000000000000000000000000000000000000000000000000000000000000000000001503201700000000            000000000000000                              000                           
0010001300053T 020180230000002544776 29647040856816460   7               17032017000000000008000001012467                         0900000000000010000000000000000000000000000000000000000   0000000000000000000000000A9        170192964704     
0010001300054U 020000000000000000000000000000000000000000000000000000000000000000000000000000000000000000000000000000000000000000000000001503201700000000            000000000000000                              000                           
0010001300055T 020180230000002544776 29647040866659922   7               17032017000000000006000001016179                         0900000000000010000000000000000000000000000000000000000   0000000000000000000000000A9        170192964704     
0010001300056U 020000000000000000000000000000000000000000000000000000000000000000000000000000000000000000000000000000000000000000000000001503201700000000            000000000000000                              000                           
0010001300057T 020180230000002544776 29647040871542506   7               17032017000000000006000001000132                         0900000000000010000000000000000000000000000000000000000   0000000000000000000000000A9        170192964704     
0010001300058U 020000000000000000000000000000000000000000000000000000000000000000000000000000000000000000000000000000000000000000000000001503201700000000            000000000000000                              000                           
0010001300059T 020180230000002544776 29647040874718141   7               17032017000000000006000001016179                         0900000000000010000000000000000000000000000000000000000   0000000000000000000000000A9        170192964704     
0010001300060U 020000000000000000000000000000000000000000000000000000000000000000000000000000000000000000000000000000000000000000000000001503201700000000            000000000000000                              000                           
0010001300061T 020180230000002544776 29647040893155530   7               17032017000000000006000001018376                         0900000000000010000000000000000000000000000000000000000   0000000000000000000000000A9        170192964704     
0010001300062U 020000000000000000000000000000000000000000000000000000000000000000000000000000000000000000000000000000000000000000000000001503201700000000            000000000000000                              000                           
0010001300063T 020180230000002544776 29647040901402646   7               17032017000000000008000001007218                         0900000000000010000000000000000000000000000000000000000   0000000000000000000000000A9        170192964704     
0010001300064U 020000000000000000000000000000000000000000000000000000000000000000000000000000000000000000000000000000000000000000000000001503201700000000            000000000000000                              000                           
0010001300065T 020180230000002544776 29647040901428433   7               17032017000000000008000001007218                         0900000000000010000000000000000000000000000000000000000   0000000000000000000000000A9        170192964704     
0010001300066U 020000000000000000000000000000000000000000000000000000000000000000000000000000000000000000000000000000000000000000000000001503201700000000            000000000000000                              000                           
0010001300067T 020180230000002544776 29647040901429577   7               17032017000000000008000001007218                         0900000000000010000000000000000000000000000000000000000   0000000000000000000000000A9        170192964704     
0010001300068U 020000000000000000000000000000000000000000000000000000000000000000000000000000000000000000000000000000000000000000000000001503201700000000            000000000000000                              000                           
0010001300069T 020180230000002544776 29647040939207199   7               17032017000000000006000001010421                         0900000000000010000000000000000000000000000000000000000   0000000000000000000000000A9        170192964704     
0010001300070U 020000000000000000000000000000000000000000000000000000000000000000000000000000000000000000000000000000000000000000000000001503201700000000            000000000000000                              000                           
0010001300071T 020180230000002544776 29647040956721415   7               17032017000000000006000001018376                         0900000000000010000000000000000000000000000000000000000   0000000000000000000000000A9        170192964704     
0010001300072U 020000000000000000000000000000000000000000000000000000000000000000000000000000000000000000000000000000000000000000000000001503201700000000            000000000000000                              000                           
0010001300073T 020180230000002544776 29647040962615817   7               17032017000000000006000001000132                         0900000000000010000000000000000000000000000000000000000   0000000000000000000000000A9        170192964704     
0010001300074U 020000000000000000000000000000000000000000000000000000000000000000000000000000000000000000000000000000000000000000000000001503201700000000            000000000000000                              000                           
0010001300075T 020180230000002544776 29647040965010563   7               17032017000000000006000001028029                         0900000000000010000000000000000000000000000000000000000   0000000000000000000000000A9        170192964704     
0010001300076U 020000000000000000000000000000000000000000000000000000000000000000000000000000000000000000000000000000000000000000000000001503201700000000            000000000000000                              000                           
0010001300077T 020180230000002544776 29647040983605191   7               17032017000000000006000001012467                         0900000000000010500000000000000000000000000000000000000   0000000000000000000000000A9A4      170192964704     
0010001300078U 020000000000000000000000000000000000000000000000000000000000000000000000000000000000000000000000000000000000000000000000001503201700000000            000000000000000                              000                           
0010001300079T 020180230000002544776 29647040992354357   7               17032017000000000006000001035041                         0900000000000010000000000000000000000000000000000000000   0000000000000000000000000A9        170192964704     
0010001300080U 020000000000000000000000000000000000000000000000000000000000000000000000000000000000000000000000000000000000000000000000001503201700000000            000000000000000                              000                           
0010001300081T 020180230000002544776 29647041005810949   7               17032017000000000008000001033316                         0900000000000010500000000000000000000000000000000000000   0000000000000000000000000A9A4      170192964704     
0010001300082U 020000000000000000000000000000000000000000000000000000000000000000000000000000000000000000000000000000000000000000000000001503201700000000            000000000000000                              000                           
0010001300083T 020180230000002544776 29647041013612740   7               17032017000000000006000001010421                         0900000000000010000000000000000000000000000000000000000   0000000000000000000000000A9        170192964704     
0010001300084U 020000000000000000000000000000000000000000000000000000000000000000000000000000000000000000000000000000000000000000000000001503201700000000            000000000000000                              000                           
0010001300085T 020180230000002544776 29647041013721179   7               17032017000000000006000001003611                         0900000000000010000000000000000000000000000000000000000   0000000000000000000000000A9        170192964704     
0010001300086U 020000000000000000000000000000000000000000000000000000000000000000000000000000000000000000000000000000000000000000000000001503201700000000            000000000000000                              000                           
0010001300087T 020180230000002544776 29647041028830919   7               17032017000000000006000001005428                         0900000000000010000000000000000000000000000000000000000   0000000000000000000000000A9        170192964704     
0010001300088U 020000000000000000000000000000000000000000000000000000000000000000000000000000000000000000000000000000000000000000000000001503201700000000            000000000000000                              000                           
0010001300089T 020180230000002544776 29647041087712873   7               17032017000000000006000001016179                         0900000000000010000000000000000000000000000000000000000   0000000000000000000000000A9        170192964704     
0010001300090U 020000000000000000000000000000000000000000000000000000000000000000000000000000000000000000000000000000000000000000000000001503201700000000            000000000000000                              000                           
0010001300091T 020180230000002544776 29647041095817407   7               17032017000000000006000001028029                         0900000000000010500000000000000000000000000000000000000   0000000000000000000000000A9A4      170192964704     
0010001300092U 020000000000000000000000000000000000000000000000000000000000000000000000000000000000000000000000000000000000000000000000001503201700000000            000000000000000                              000                           
0010001300093T 020180230000002544776 29647041095858326   7               17032017000000000006000001028029                         0900000000000010500000000000000000000000000000000000000   0000000000000000000000000A9A4      170192964704     
0010001300094U 020000000000000000000000000000000000000000000000000000000000000000000000000000000000000000000000000000000000000000000000001503201700000000            000000000000000                              000                           
0010001300095T 020180230000002544776 29647041102759776   7               17032017000000000006000001028029                         0900000000000010000000000000000000000000000000000000000   0000000000000000000000000A9        170192964704     
0010001300096U 020000000000000000000000000000000000000000000000000000000000000000000000000000000000000000000000000000000000000000000000001503201700000000            000000000000000                              000                           
0010001300097T 020180230000002544776 29647041107139528   7               17032017000000000006000001028029                         0900000000000010000000000000000000000000000000000000000   0000000000000000000000000A9        170192964704     
0010001300098U 020000000000000000000000000000000000000000000000000000000000000000000000000000000000000000000000000000000000000000000000001503201700000000            000000000000000                              000                           
0010001300099T 020180230000002544776 29647041110952532   7               17032017000000000006000001018376                         0900000000000010000000000000000000000000000000000000000   0000000000000000000000000A9        170192964704     
0010001300100U 020000000000000000000000000000000000000000000000000000000000000000000000000000000000000000000000000000000000000000000000001503201700000000            000000000000000                              000                           
0010001300101T 020180230000002544776 29647041116831401   7               17032017000000000006000001016179                         0900000000000010000000000000000000000000000000000000000   0000000000000000000000000A9        170192964704     
0010001300102U 020000000000000000000000000000000000000000000000000000000000000000000000000000000000000000000000000000000000000000000000001503201700000000            000000000000000                              000                           
0010001300103T 020180230000002544776 29647041117641088   7               16032017000000000006000001016179                         0900000000000010000000000000000000000000000000000000000   0000000000000000000000000A9        170192964704     
0010001300104U 020000000000000000000000000000000000000000000000000000000000000000000000000000000000000000000000000000000000000000000000001403201700000000            000000000000000                              000                           
0010001300105T 020180230000002544776 29647041118053689   7               17032017000000000006000001028029                         0900000000000010000000000000000000000000000000000000000   0000000000000000000000000A9        170192964704     
0010001300106U 020000000000000000000000000000000000000000000000000000000000000000000000000000000000000000000000000000000000000000000000001503201700000000            000000000000000                              000                           
0010001300107T 020180230000002544776 29647041124554920   7               1703201700000000000600000100233X                         0900000000000010000000000000000000000000000000000000000   0000000000000000000000000A9        170192964704     
0010001300108U 020000000000000000000000000000000000000000000000000000000000000000000000000000000000000000000000000000000000000000000000001503201700000000            000000000000000                              000                           
0010001300109T 020180230000002544776 29647041128043952   7               17032017000000000008000001002461                         0900000000000010000000000000000000000000000000000000000   0000000000000000000000000A9        170192964704     
0010001300110U 020000000000000000000000000000000000000000000000000000000000000000000000000000000000000000000000000000000000000000000000001503201700000000            000000000000000                              000                           
0010001300111T 020180230000002544776 29647041140620377   7               17032017000000000008000001007595                         0900000000000010000000000000000000000000000000000000000   0000000000000000000000000A9        170192964704     
0010001300112U 020000000000000000000000000000000000000000000000000000000000000000000000000000000000000000000000000000000000000000000000001503201700000000            000000000000000                              000                           
0010001300113T 020180230000002544776 29647041141447693   7               1703201700000000000600000102256X                         0900000000000010000000000000000000000000000000000000000   0000000000000000000000000A9        170192964704     
0010001300114U 020000000000000000000000000000000000000000000000000000000000000000000000000000000000000000000000000000000000000000000000001503201700000000            000000000000000                              000                           
0010001300115T 020180230000002544776 29647041141447862   7               1703201700000000000600000102256X                         0900000000000010000000000000000000000000000000000000000   0000000000000000000000000A9        170192964704     
0010001300116U 020000000000000000000000000000000000000000000000000000000000000000000000000000000000000000000000000000000000000000000000001503201700000000            000000000000000                              000                           
0010001300117T 020180230000002544776 29647041145209955   7               17032017000000000006000001012467                         0900000000000010000000000000000000000000000000000000000   0000000000000000000000000A9        170192964704     
0010001300118U 020000000000000000000000000000000000000000000000000000000000000000000000000000000000000000000000000000000000000000000000001503201700000000            000000000000000                              000                           
0010001300119T 020180230000002544776 29647041145524632   7               17032017000000000006000001016179                         0900000000000010000000000000000000000000000000000000000   0000000000000000000000000A9        170192964704     
0010001300120U 020000000000000000000000000000000000000000000000000000000000000000000000000000000000000000000000000000000000000000000000001503201700000000            000000000000000                              000                           
0010001300121T 020180230000002544776 29647041146158995   7               17032017000000000006000001028029                         0900000000000010000000000000000000000000000000000000000   0000000000000000000000000A9        170192964704     
0010001300122U 020000000000000000000000000000000000000000000000000000000000000000000000000000000000000000000000000000000000000000000000001503201700000000            000000000000000                              000                           
0010001300123T 020180230000002544776 29647041146337661   7               17032017000000000008000001028029                         0900000000000010000000000000000000000000000000000000000   0000000000000000000000000A9        170192964704     
0010001300124U 020000000000000000000000000000000000000000000000000000000000000000000000000000000000000000000000000000000000000000000000001503201700000000            000000000000000                              000                           
0010001300125T 020180230000002544776 29647041147742861   7               17032017000000000006000001028029                         0900000000000010000000000000000000000000000000000000000   0000000000000000000000000A9        170192964704     
0010001300126U 020000000000000000000000000000000000000000000000000000000000000000000000000000000000000000000000000000000000000000000000001503201700000000            000000000000000                              000                           
0010001300127T 020180230000002544776 29647041152221813   7               17032017000000000008000001012467                         0900000000000010000000000000000000000000000000000000000   0000000000000000000000000A9        170192964704     
0010001300128U 020000000000000000000000000000000000000000000000000000000000000000000000000000000000000000000000000000000000000000000000001503201700000000            000000000000000                              000                           
0010001300129T 020180230000002544776 29647041163447773   7               17032017000000000006000001016179                         0900000000000010000000000000000000000000000000000000000   0000000000000000000000000A9        170192964704     
0010001300130U 020000000000000000000000000000000000000000000000000000000000000000000000000000000000000000000000000000000000000000000000001503201700000000            000000000000000                              000                           
0010001300131T 020180230000002544776 29647041191714075   7               16032017000000000008000001005428                         0900000000000010000000000000000000000000000000000000000   0000000000000000000000000A9        170192964704     
0010001300132U 020000000000000000000000000000000000000000000000000000000000000000000000000000000000000000000000000000000000000000000000001403201700000000            000000000000000                              000                           
0010001300133T 020180230000002544776 29647041215348108   7               17032017000000000006000001033316                         0900000000000010000000000000000000000000000000000000000   0000000000000000000000000A9        170192964704     
0010001300134U 020000000000000000000000000000000000000000000000000000000000000000000000000000000000000000000000000000000000000000000000001503201700000000            000000000000000                              000                           
0010001300135T 020180230000002544776 29647041221210286   7               16032017000000000006000001014028                         0900000000000010000000000000000000000000000000000000000   0000000000000000000000000A9        170192964704     
0010001300136U 020000000000000000000000000000000000000000000000000000000000000000000000000000000000000000000000000000000000000000000000001403201700000000            000000000000000                              000                           
0010001300137T 020180230000002544776 29647041230813467   7               17032017000000000006000001016179                         0900000000000010000000000000000000000000000000000000000   0000000000000000000000000A9        170192964704     
0010001300138U 020000000000000000000000000000000000000000000000000000000000000000000000000000000000000000000000000000000000000000000000001503201700000000            000000000000000                              000                           
0010001300139T 020180230000002544776 29647041232416140   7               17032017000000000006000001001104                         0900000000000010000000000000000000000000000000000000000   0000000000000000000000000A9        170192964704     
0010001300140U 020000000000000000000000000000000000000000000000000000000000000000000000000000000000000000000000000000000000000000000000001503201700000000            000000000000000                              000                           
0010001300141T 020180230000002544776 29647041236455559   7               17032017000000000006000001016179                         0900000000000010000000000000000000000000000000000000000   0000000000000000000000000A9        170192964704     
0010001300142U 020000000000000000000000000000000000000000000000000000000000000000000000000000000000000000000000000000000000000000000000001503201700000000            000000000000000                              000                           
0010001300143T 020180230000002544776 29647041238614614   7               17032017000000000006000001023655                         0900000000000010000000000000000000000000000000000000000   0000000000000000000000000A9        170192964704     
0010001300144U 020000000000000000000000000000000000000000000000000000000000000000000000000000000000000000000000000000000000000000000000001503201700000000            000000000000000                              000                           
0010001300145T 020180230000002544776 29647041243002770   7               17032017000000000008000001003018                         0900000000000010500000000000000000000000000000000000000   0000000000000000000000000A9A4      170192964704     
0010001300146U 020000000000000000000000000000000000000000000000000000000000000000000000000000000000000000000000000000000000000000000000001503201700000000            000000000000000                              000                           
0010001300147T 020180230000002544776 29647041249609650   7               17032017000000000006000001028029                         0900000000000010000000000000000000000000000000000000000   0000000000000000000000000A9        170192964704     
0010001300148U 020000000000000000000000000000000000000000000000000000000000000000000000000000000000000000000000000000000000000000000000001503201700000000            000000000000000                              000                           
0010001300149T 020180230000002544776 29647041250809202   7               17032017000000000006000001033316                         0900000000000010000000000000000000000000000000000000000   0000000000000000000000000A9        170192964704     
0010001300150U 020000000000000000000000000000000000000000000000000000000000000000000000000000000000000000000000000000000000000000000000001503201700000000            000000000000000                              000                           
0010001300151T 020180230000002544776 29647041258111887   7               17032017000000000006000001033316                         0900000000000010500000000000000000000000000000000000000   0000000000000000000000000A9A4      170192964704     
0010001300152U 020000000000000000000000000000000000000000000000000000000000000000000000000000000000000000000000000000000000000000000000001503201700000000            000000000000000                              000                           
0010001300153T 020180230000002544776 29647041264147793   7               17032017000000000006000001033316                         0900000000000010000000000000000000000000000000000000000   0000000000000000000000000A9        170192964704     
0010001300154U 020000000000000000000000000000000000000000000000000000000000000000000000000000000000000000000000000000000000000000000000001503201700000000            000000000000000                              000                           
0010001300155T 020180230000002544776 29647041273726448   7               17032017000000000006000001016179                         0900000000000010000000000000000000000000000000000000000   0000000000000000000000000A9        170192964704     
0010001300156U 020000000000000000000000000000000000000000000000000000000000000000000000000000000000000000000000000000000000000000000000001503201700000000            000000000000000                              000                           
0010001300157T 020180230000002544776 29647041278117110   7               17032017000000000006000001028029                         0900000000000010000000000000000000000000000000000000000   0000000000000000000000000A9        170192964704     
0010001300158U 020000000000000000000000000000000000000000000000000000000000000000000000000000000000000000000000000000000000000000000000001503201700000000            000000000000000                              000                           
0010001300159T 020180230000002544776 29647041283220035   7               17032017000000000006000001011444                         0900000000000010000000000000000000000000000000000000000   0000000000000000000000000A9        170192964704     
0010001300160U 020000000000000000000000000000000000000000000000000000000000000000000000000000000000000000000000000000000000000000000000001503201700000000            000000000000000                              000                           
0010001300161T 020180230000002544776 29647041283229899   7               17032017000000000006000001011444                         0900000000000010000000000000000000000000000000000000000   0000000000000000000000000A9        170192964704     
0010001300162U 020000000000000000000000000000000000000000000000000000000000000000000000000000000000000000000000000000000000000000000000001503201700000000            000000000000000                              000                           
0010001300163T 020180230000002544776 29647041284321805   7               16032017000000000008000001025429                         0900000000000010000000000000000000000000000000000000000   0000000000000000000000000A9        170192964704     
0010001300164U 020000000000000000000000000000000000000000000000000000000000000000000000000000000000000000000000000000000000000000000000001403201700000000            000000000000000                              000                           
0010001300165T 020180230000002544776 29647041284550958   7               16032017000000000006000001012467                         0900000000000010000000000000000000000000000000000000000   0000000000000000000000000A9        170192964704     
0010001300166U 020000000000000000000000000000000000000000000000000000000000000000000000000000000000000000000000000000000000000000000000001403201700000000            000000000000000                              000                           
0010001300167T 020180230000002544776 29647041284804011   7               16032017000000000006000001023655                         0900000000000010000000000000000000000000000000000000000   0000000000000000000000000A9        170192964704     
0010001300168U 020000000000000000000000000000000000000000000000000000000000000000000000000000000000000000000000000000000000000000000000001403201700000000            000000000000000                              000                           
0010001300169T 020180230000002544776 29647041284901145   7               16032017000000000008000001003018                         0900000000000010500000000000000000000000000000000000000   0000000000000000000000000A9A4      170192964704     
0010001300170U 020000000000000000000000000000000000000000000000000000000000000000000000000000000000000000000000000000000000000000000000001403201700000000            000000000000000                              000                           
0010001300171T 020180230000002544776 29647041285117019   7               16032017000000000006000001016179                         0900000000000010000000000000000000000000000000000000000   0000000000000000000000000A9        170192964704     
0010001300172U 020000000000000000000000000000000000000000000000000000000000000000000000000000000000000000000000000000000000000000000000001403201700000000            000000000000000                              000                           
0010001300173T 020180230000002544776 29647041285306462   7               16032017000000000006000001006734                         0900000000000010000000000000000000000000000000000000000   0000000000000000000000000A9        170192964704     
0010001300174U 020000000000000000000000000000000000000000000000000000000000000000000000000000000000000000000000000000000000000000000000001403201700000000            000000000000000                              000                           
0010001300175T 020180230000002544776 29647041285317998   7               16032017000000000006000001006734                         0900000000000010000000000000000000000000000000000000000   0000000000000000000000000A9        170192964704     
0010001300176U 020000000000000000000000000000000000000000000000000000000000000000000000000000000000000000000000000000000000000000000000001403201700000000            000000000000000                              000                           
0010001300177T 020180230000002544776 29647041285444102   7               16032017000000000006000001016179                         0900000000000010000000000000000000000000000000000000000   0000000000000000000000000A9        170192964704     
0010001300178U 020000000000000000000000000000000000000000000000000000000000000000000000000000000000000000000000000000000000000000000000001403201700000000            000000000000000                              000                           
0010001300179T 020180230000002544776 29647041285551716   7               1703201700000000000600000101981X                         0900000000000010000000000000000000000000000000000000000   0000000000000000000000000A9        170192964704     
0010001300180U 020000000000000000000000000000000000000000000000000000000000000000000000000000000000000000000000000000000000000000000000001503201700000000            000000000000000                              000                           
0010001300181T 020180230000002544776 29647041285619785   7               17032017000000000006000001028029                         0900000000000010000000000000000000000000000000000000000   0000000000000000000000000A9        170192964704     
0010001300182U 020000000000000000000000000000000000000000000000000000000000000000000000000000000000000000000000000000000000000000000000001503201700000000            000000000000000                              000                           
0010001300183T 020180230000002544776 29647041285624760   7               17032017000000000006000001028029                         0900000000000010000000000000000000000000000000000000000   0000000000000000000000000A9        170192964704     
0010001300184U 020000000000000000000000000000000000000000000000000000000000000000000000000000000000000000000000000000000000000000000000001503201700000000            000000000000000                              000                           
0010001300185T 020180230000002544776 29647041285637145   7               17032017000000000006000001028029                         0900000000000010000000000000000000000000000000000000000   0000000000000000000000000A9        170192964704     
0010001300186U 020000000000000000000000000000000000000000000000000000000000000000000000000000000000000000000000000000000000000000000000001503201700000000            000000000000000                              000                           
0010001300187T 020180230000002544776 29647041285725396   7               17032017000000000006000001018376                         0900000000000010000000000000000000000000000000000000000   0000000000000000000000000A9        170192964704     
0010001300188U 020000000000000000000000000000000000000000000000000000000000000000000000000000000000000000000000000000000000000000000000001503201700000000            000000000000000                              000                           
0010001300189T 020180230000002544776 29647041285836276   7               17032017000000000006000001000132                         0900000000000010000000000000000000000000000000000000000   0000000000000000000000000A9        170192964704     
0010001300190U 020000000000000000000000000000000000000000000000000000000000000000000000000000000000000000000000000000000000000000000000001503201700000000            000000000000000                              000                           
0010001300191T 020180230000002544776 29647041285840012   7               17032017000000000006000001000132                         0900000000000010000000000000000000000000000000000000000   0000000000000000000000000A9        170192964704     
0010001300192U 020000000000000000000000000000000000000000000000000000000000000000000000000000000000000000000000000000000000000000000000001503201700000000            000000000000000                              000                           
0010001300193T 020180230000002544776 29647041285921315   7               17032017000000000006000001028029                         0900000000000010000000000000000000000000000000000000000   0000000000000000000000000A9        170192964704     
0010001300194U 020000000000000000000000000000000000000000000000000000000000000000000000000000000000000000000000000000000000000000000000001503201700000000            000000000000000                              000                           
0010001300195T 020180230000002544776 29647041286020511   7               17032017000000000006000001038148                         0900000000000010000000000000000000000000000000000000000   0000000000000000000000000A9        170192964704     
0010001300196U 020000000000000000000000000000000000000000000000000000000000000000000000000000000000000000000000000000000000000000000000001503201700000000            000000000000000                              000                           
0010001300197T 020180230000002544776 29647041286159547   7               17032017000000000006000001000132                         0900000000000010000000000000000000000000000000000000000   0000000000000000000000000A9        170192964704     
0010001300198U 020000000000000000000000000000000000000000000000000000000000000000000000000000000000000000000000000000000000000000000000001503201700000000            000000000000000                              000                           
0010001300199T 020180230000002544776 29647041286359064   7               17032017000000000006000001012645                         0900000000000010000000000000000000000000000000000000000   0000000000000000000000000A9        170192964704     
0010001300200U 020000000000000000000000000000000000000000000000000000000000000000000000000000000000000000000000000000000000000000000000001503201700000000            000000000000000                              000                           
0010001300201T 020180230000002544776 29647041286414801   7               17032017000000000006000001023655                         0900000000000010000000000000000000000000000000000000000   0000000000000000000000000A9        170192964704     
0010001300202U 020000000000000000000000000000000000000000000000000000000000000000000000000000000000000000000000000000000000000000000000001503201700000000            000000000000000                              000                           
0010001300203T 020180230000002544776 29647041286554566   7               17032017000000000006000001028029                         0900000000000010000000000000000000000000000000000000000   0000000000000000000000000A9        170192964704     
0010001300204U 020000000000000000000000000000000000000000000000000000000000000000000000000000000000000000000000000000000000000000000000001503201700000000            000000000000000                              000                           
0010001300205T 020180230000002544776 29647041286723321   7               17032017000000000008000001016179                         0900000000000010000000000000000000000000000000000000000   0000000000000000000000000A9        170192964704     
0010001300206U 020000000000000000000000000000000000000000000000000000000000000000000000000000000000000000000000000000000000000000000000001503201700000000            000000000000000                              000                           
0010001300207T 020180230000002544776 29647041286911367   7               17032017000000000008000001013692                         0900000000000010000000000000000000000000000000000000000   0000000000000000000000000A9        170192964704     
0010001300208U 020000000000000000000000000000000000000000000000000000000000000000000000000000000000000000000000000000000000000000000000001503201700000000            000000000000000                              000                           
0010001300209T 020180230000002544776 29647041286956156   7               17032017000000000008000001013692                         0900000000000010000000000000000000000000000000000000000   0000000000000000000000000A9        170192964704     
0010001300210U 020000000000000000000000000000000000000000000000000000000000000000000000000000000000000000000000000000000000000000000000001503201700000000            000000000000000                              000                           
0010001300211T 020180230000002544776 29647041287057478   7               17032017000000000006000001000132                         0900000000000010000000000000000000000000000000000000000   0000000000000000000000000A9        170192964704     
0010001300212U 020000000000000000000000000000000000000000000000000000000000000000000000000000000000000000000000000000000000000000000000001503201700000000            000000000000000                              000                           
0010001300213T 020180230000002544776 29647041287455027   7               17032017000000000006000001007102                         0900000000000010000000000000000000000000000000000000000   0000000000000000000000000A9        170192964704     
0010001300214U 020000000000000000000000000000000000000000000000000000000000000000000000000000000000000000000000000000000000000000000000001503201700000000            000000000000000                              000                           
0010001300215T 020180230000002544776 29647041287612309   7               17032017000000000006000001018376                         0900000000000010000000000000000000000000000000000000000   0000000000000000000000000A9        170192964704     
0010001300216U 020000000000000000000000000000000000000000000000000000000000000000000000000000000000000000000000000000000000000000000000001503201700000000            000000000000000                              000                           
0010001300217T 020180230000002544776 29647041287728605   7               17032017000000000008000001009636                         0900000000000010000000000000000000000000000000000000000   0000000000000000000000000A9        170192964704     
0010001300218U 020000000000000000000000000000000000000000000000000000000000000000000000000000000000000000000000000000000000000000000000001503201700000000            000000000000000                              000                           
0010001300219T 020180230000002544776 29647041287814619   7               17032017000000000008000001014494                         0900000000000010000000000000000000000000000000000000000   0000000000000000000000000A9        170192964704     
0010001300220U 020000000000000000000000000000000000000000000000000000000000000000000000000000000000000000000000000000000000000000000000001503201700000000            000000000000000                              000                           
0010001300221T 020180230000002544776 29647041287905493   7               17032017000000000006000001004332                         0900000000000010000000000000000000000000000000000000000   0000000000000000000000000A9        170192964704     
0010001300222U 020000000000000000000000000000000000000000000000000000000000000000000000000000000000000000000000000000000000000000000000001503201700000000            000000000000000                              000                           
0010001300223T 020180230000002544776 29647041288339599   7               17032017000000000006000001016179                         0900000000000010000000000000000000000000000000000000000   0000000000000000000000000A9        170192964704     
0010001300224U 020000000000000000000000000000000000000000000000000000000000000000000000000000000000000000000000000000000000000000000000001503201700000000            000000000000000                              000                           
0010001300225T 020180230000002544776 29647041288403948   7               17032017000000000006000001008346                         0900000000000010000000000000000000000000000000000000000   0000000000000000000000000A9        170192964704     
0010001300226U 020000000000000000000000000000000000000000000000000000000000000000000000000000000000000000000000000000000000000000000000001503201700000000            000000000000000                              000                           
0010001300227T 020180230000002544776 29647041288408888   7               17032017000000000006000001008346                         0900000000000010000000000000000000000000000000000000000   0000000000000000000000000A9        170192964704     
0010001300228U 020000000000000000000000000000000000000000000000000000000000000000000000000000000000000000000000000000000000000000000000001503201700000000            000000000000000                              000                           
0010001300229T 020180230000002544776 29647041288600370   7               17032017000000000006000001023329                         0900000000000010000000000000000000000000000000000000000   0000000000000000000000000A9        170192964704     
0010001300230U 020000000000000000000000000000000000000000000000000000000000000000000000000000000000000000000000000000000000000000000000001503201700000000            000000000000000                              000                           
0010001300231T 020180230000002544776 29647041288907601   7               17032017000000000006000001016179                         0900000000000010000000000000000000000000000000000000000   0000000000000000000000000A9        170192964704     
0010001300232U 020000000000000000000000000000000000000000000000000000000000000000000000000000000000000000000000000000000000000000000000001503201700000000            000000000000000                              000                           
0010001300233T 020180230000002544776 29647041289003449   7               17032017000000000006000001001368                         0900000000000010000000000000000000000000000000000000000   0000000000000000000000000A9        170192964704     
0010001300234U 020000000000000000000000000000000000000000000000000000000000000000000000000000000000000000000000000000000000000000000000001503201700000000            000000000000000                              000                           
0010001300235T 020180230000002544776 29647041289027051   7               17032017000000000006000001001368                         0900000000000010000000000000000000000000000000000000000   0000000000000000000000000A9        170192964704     
0010001300236U 020000000000000000000000000000000000000000000000000000000000000000000000000000000000000000000000000000000000000000000000001503201700000000            000000000000000                              000                           
0010001300237T 020180230000002544776 29647041289054772   7               17032017000000000006000001001368                         0900000000000010000000000000000000000000000000000000000   0000000000000000000000000A9        170192964704     
0010001300238U 020000000000000000000000000000000000000000000000000000000000000000000000000000000000000000000000000000000000000000000000001503201700000000            000000000000000                              000                           
0010001300239T 020180230000002544776 29647041289228229   7               17032017000000000006000001000361                         0900000000000010500000000000000000000000000000000000000   0000000000000000000000000A9A4      170192964704     
0010001300240U 020000000000000000000000000000000000000000000000000000000000000000000000000000000000000000000000000000000000000000000000001503201700000000            000000000000000                              000                           
0010001300241T 020180230000002544776 29647041289321808   7               17032017000000000006000001016179                         0900000000000010000000000000000000000000000000000000000   0000000000000000000000000A9        170192964704     
0010001300242U 020000000000000000000000000000000000000000000000000000000000000000000000000000000000000000000000000000000000000000000000001503201700000000            000000000000000                              000                           
0010001300243T 020180230000002544776 29647041289448776   7               17032017000000000008000001012467                         0900000000000010000000000000000000000000000000000000000   0000000000000000000000000A9        170192964704     
0010001300244U 020000000000000000000000000000000000000000000000000000000000000000000000000000000000000000000000000000000000000000000000001503201700000000            000000000000000                              000                           
0010001300245T 020180230000002544776 29647041289505890   7               17032017000000000006000001020354                         0900000000000010000000000000000000000000000000000000000   0000000000000000000000000A9        170192964704     
0010001300246U 020000000000000000000000000000000000000000000000000000000000000000000000000000000000000000000000000000000000000000000000001503201700000000            000000000000000                              000                           
0010001300247T 020180230000002544776 29647041289735652   7               17032017000000000006000001020354                         0900000000000010000000000000000000000000000000000000000   0000000000000000000000000A9        170192964704     
0010001300248U 020000000000000000000000000000000000000000000000000000000000000000000000000000000000000000000000000000000000000000000000001503201700000000            000000000000000                              000                           
0010001300249T 020180230000002544776 29647041289903902   7               17032017000000000008000001016179                         0900000000000010000000000000000000000000000000000000000   0000000000000000000000000A9        170192964704     
0010001300250U 020000000000000000000000000000000000000000000000000000000000000000000000000000000000000000000000000000000000000000000000001503201700000000            000000000000000                              000                           
0010001300251T 020180230000002544776 29647041290107824   7               17032017000000000006000001020354                         0900000000000010000000000000000000000000000000000000000   0000000000000000000000000A9        170192964704     
0010001300252U 020000000000000000000000000000000000000000000000000000000000000000000000000000000000000000000000000000000000000000000000001503201700000000            000000000000000                              000                           
0010001300253T 020180230000002544776 29647041290356900   7               17032017000000000006000001033316                         0900000000000010000000000000000000000000000000000000000   0000000000000000000000000A9        170192964704     
0010001300254U 020000000000000000000000000000000000000000000000000000000000000000000000000000000000000000000000000000000000000000000000001503201700000000            000000000000000                              000                           
0010001300255T 020180230000002544776 29647041290613414   7               17032017000000000008000001006734                         0900000000000010000000000000000000000000000000000000000   0000000000000000000000000A9        170192964704     
0010001300256U 020000000000000000000000000000000000000000000000000000000000000000000000000000000000000000000000000000000000000000000000001503201700000000            000000000000000                              000                           
0010001300257T 020180230000002544776 29647041290716908   7               17032017000000000006000001000361                         0900000000000010000000000000000000000000000000000000000   0000000000000000000000000A9        170192964704     
0010001300258U 020000000000000000000000000000000000000000000000000000000000000000000000000000000000000000000000000000000000000000000000001503201700000000            000000000000000                              000                           
0010001300259T 020180230000002544776 29647041290822028   7               17032017000000000006000001016179                         0900000000000010000000000000000000000000000000000000000   0000000000000000000000000A9        170192964704     
0010001300260U 020000000000000000000000000000000000000000000000000000000000000000000000000000000000000000000000000000000000000000000000001503201700000000            000000000000000                              000                           
0010001300261T 020180230000002544776 29647041291028025   7               17032017000000000006000001028029                         0900000000000010000000000000000000000000000000000000000   0000000000000000000000000A9        170192964704     
0010001300262U 020000000000000000000000000000000000000000000000000000000000000000000000000000000000000000000000000000000000000000000000001503201700000000            000000000000000                              000                           
0010001300263T 020180230000002544776 29647041291314480   7               17032017000000000006000001016179                         0900000000000010000000000000000000000000000000000000000   0000000000000000000000000A9        170192964704     
0010001300264U 020000000000000000000000000000000000000000000000000000000000000000000000000000000000000000000000000000000000000000000000001503201700000000            000000000000000                              000                           
0010001300265T 020180230000002544776 29647041291337095   7               17032017000000000006000001016179                         0900000000000010000000000000000000000000000000000000000   0000000000000000000000000A9        170192964704     
0010001300266U 020000000000000000000000000000000000000000000000000000000000000000000000000000000000000000000000000000000000000000000000001503201700000000            000000000000000                              000                           
0010001300267T 020180230000002544776 29647041291407277   7               17032017000000000006000001001961                         0900000000000010000000000000000000000000000000000000000   0000000000000000000000000A9        170192964704     
0010001300268U 020000000000000000000000000000000000000000000000000000000000000000000000000000000000000000000000000000000000000000000000001503201700000000            000000000000000                              000                           
0010001300269T 020180230000002544776 29647041291555985   7               17032017000000000006000001002321                         0900000000000010000000000000000000000000000000000000000   0000000000000000000000000A9        170192964704     
0010001300270U 020000000000000000000000000000000000000000000000000000000000000000000000000000000000000000000000000000000000000000000000001503201700000000            000000000000000                              000                           
0010001300271T 020180230000002544776 29647041291802817   7               17032017000000000006000001006084                         0900000000000010000000000000000000000000000000000000000   0000000000000000000000000A9        170192964704     
0010001300272U 020000000000000000000000000000000000000000000000000000000000000000000000000000000000000000000000000000000000000000000000001503201700000000            000000000000000                              000                           
0010001300273T 020180230000002544776 29647041292013548   7               17032017000000000006000001018376                         0900000000000010000000000000000000000000000000000000000   0000000000000000000000000A9        170192964704     
0010001300274U 020000000000000000000000000000000000000000000000000000000000000000000000000000000000000000000000000000000000000000000000001503201700000000            000000000000000                              000                           
0010001300275T 020180230000002544776 29647041292442596   7               17032017000000000006000001005428                         0900000000000010000000000000000000000000000000000000000   0000000000000000000000000A9        170192964704     
0010001300276U 020000000000000000000000000000000000000000000000000000000000000000000000000000000000000000000000000000000000000000000000001503201700000000            000000000000000                              000                           
0010001300277T 020180230000002544776 29647041292856688   7               17032017000000000008000001030864                         0900000000000010000000000000000000000000000000000000000   0000000000000000000000000A9        170192964704     
0010001300278U 020000000000000000000000000000000000000000000000000000000000000000000000000000000000000000000000000000000000000000000000001503201700000000            000000000000000                              000                           
0010001300279T 020180230000002544776 29647041292929714   7               17032017000000000006000001000132                         0900000000000010500000000000000000000000000000000000000   0000000000000000000000000A9A4      170192964704     
0010001300280U 020000000000000000000000000000000000000000000000000000000000000000000000000000000000000000000000000000000000000000000000001503201700000000            000000000000000                              000                           
0010001300281T 020180230000002544776 29647041293022188   7               17032017000000000006000001007307                         0900000000000010000000000000000000000000000000000000000   0000000000000000000000000A9        170192964704     
0010001300282U 020000000000000000000000000000000000000000000000000000000000000000000000000000000000000000000000000000000000000000000000001503201700000000            000000000000000                              000                           
0010001300283T 020180230000002544776 29647041293108452   7               17032017000000000006000001000205                         0900000000000010000000000000000000000000000000000000000   0000000000000000000000000A9        170192964704     
0010001300284U 020000000000000000000000000000000000000000000000000000000000000000000000000000000000000000000000000000000000000000000000001503201700000000            000000000000000                              000                           
0010001300285T 020180230000002544776 29647041293211893   7               17032017000000000006000001028029                         0900000000000010000000000000000000000000000000000000000   0000000000000000000000000A9        170192964704     
0010001300286U 020000000000000000000000000000000000000000000000000000000000000000000000000000000000000000000000000000000000000000000000001503201700000000            000000000000000                              000                           
0010001300287T 020180230000002544776 29647041293349032   7               17032017000000000006000001016179                         0900000000000010000000000000000000000000000000000000000   0000000000000000000000000A9        170192964704     
0010001300288U 020000000000000000000000000000000000000000000000000000000000000000000000000000000000000000000000000000000000000000000000001503201700000000            000000000000000                              000                           
0010001300289T 020180230000002544776 29647041293400196   7               17032017000000000006000001012467                         0900000000000010000000000000000000000000000000000000000   0000000000000000000000000A9        170192964704     
0010001300290U 020000000000000000000000000000000000000000000000000000000000000000000000000000000000000000000000000000000000000000000000001503201700000000            000000000000000                              000                           
0010001300291T 020180230000002544776 29647041293433995   7               17032017000000000006000001012467                         0900000000000010000000000000000000000000000000000000000   0000000000000000000000000A9        170192964704     
0010001300292U 020000000000000000000000000000000000000000000000000000000000000000000000000000000000000000000000000000000000000000000000001503201700000000            000000000000000                              000                           
0010001300293T 020180230000002544776 29647041293445475   7               17032017000000000006000001012467                         0900000000000010000000000000000000000000000000000000000   0000000000000000000000000A9        170192964704     
0010001300294U 020000000000000000000000000000000000000000000000000000000000000000000000000000000000000000000000000000000000000000000000001503201700000000            000000000000000                              000                           
0010001300295T 020180230000002544776 29647041293506579   7               17032017000000000006000001016179                         0900000000000010000000000000000000000000000000000000000   0000000000000000000000000A9        170192964704     
0010001300296U 020000000000000000000000000000000000000000000000000000000000000000000000000000000000000000000000000000000000000000000000001503201700000000            000000000000000                              000                           
0010001300297T 020180230000002544776 29647041293605791   7               17032017000000000006000001016179                         0900000000000010000000000000000000000000000000000000000   0000000000000000000000000A9        170192964704     
0010001300298U 020000000000000000000000000000000000000000000000000000000000000000000000000000000000000000000000000000000000000000000000001503201700000000            000000000000000                              000                           
0010001300299T 020180230000002544776 29647041293650169   7               17032017000000000006000001016179                         0900000000000010000000000000000000000000000000000000000   0000000000000000000000000A9        170192964704     
0010001300300U 020000000000000000000000000000000000000000000000000000000000000000000000000000000000000000000000000000000000000000000000001503201700000000            000000000000000                              000                           
0010001300301T 020180230000002544776 29647041293748366   7               17032017000000000006000001001597                         0900000000000010000000000000000000000000000000000000000   0000000000000000000000000A9        170192964704     
0010001300302U 020000000000000000000000000000000000000000000000000000000000000000000000000000000000000000000000000000000000000000000000001503201700000000            000000000000000                              000                           
0010001300303T 020180230000002544776 29647041293848343   7               17032017000000000006000001001023                         0900000000000010500000000000000000000000000000000000000   0000000000000000000000000A9A4      170192964704     
0010001300304U 020000000000000000000000000000000000000000000000000000000000000000000000000000000000000000000000000000000000000000000000001503201700000000            000000000000000                              000                           
0010001300305T 020180230000002544776 29647041294044003   7               17032017000000000006000001030864                         0900000000000010000000000000000000000000000000000000000   0000000000000000000000000A9        170192964704     
0010001300306U 020000000000000000000000000000000000000000000000000000000000000000000000000000000000000000000000000000000000000000000000001503201700000000            000000000000000                              000                           
0010001300307T 020180230000002544776 29647041294135349   7               17032017000000000006000001008672                         0900000000000010000000000000000000000000000000000000000   0000000000000000000000000A9        170192964704     
0010001300308U 020000000000000000000000000000000000000000000000000000000000000000000000000000000000000000000000000000000000000000000000001503201700000000            000000000000000                              000                           
0010001300309T 020180230000002544776 29647041294206377   7               17032017000000000008000001016179                         0900000000000010000000000000000000000000000000000000000   0000000000000000000000000A9        170192964704     
0010001300310U 020000000000000000000000000000000000000000000000000000000000000000000000000000000000000000000000000000000000000000000000001503201700000000            000000000000000                              000                           
0010001300311T 020180230000002544776 29647041294237056   7               17032017000000000008000001016179                         0900000000000010000000000000000000000000000000000000000   0000000000000000000000000A9        170192964704     
0010001300312U 020000000000000000000000000000000000000000000000000000000000000000000000000000000000000000000000000000000000000000000000001503201700000000            000000000000000                              000                           
0010001300313T 020180230000002544776 29647041294237440   7               17032017000000000008000001016179                         0900000000000010000000000000000000000000000000000000000   0000000000000000000000000A9        170192964704     
0010001300314U 020000000000000000000000000000000000000000000000000000000000000000000000000000000000000000000000000000000000000000000000001503201700000000            000000000000000                              000                           
0010001300315T 020180230000002544776 29647041294244210   7               17032017000000000008000001016179                         0900000000000010000000000000000000000000000000000000000   0000000000000000000000000A9        170192964704     
0010001300316U 020000000000000000000000000000000000000000000000000000000000000000000000000000000000000000000000000000000000000000000000001503201700000000            000000000000000                              000                           
0010001300317T 020180230000002544776 29647041294246021   7               17032017000000000008000001016179                         0900000000000010000000000000000000000000000000000000000   0000000000000000000000000A9        170192964704     
0010001300318U 020000000000000000000000000000000000000000000000000000000000000000000000000000000000000000000000000000000000000000000000001503201700000000            000000000000000                              000                           
0010001300319T 020180230000002544776 29647041294307033   7               17032017000000000006000001002208                         0900000000000010000000000000000000000000000000000000000   0000000000000000000000000A9        170192964704     
0010001300320U 020000000000000000000000000000000000000000000000000000000000000000000000000000000000000000000000000000000000000000000000001503201700000000            000000000000000                              000                           
0010001300321T 020180230000002544776 29647041294500389   7               17032017000000000008000001023655                         0900000000000010000000000000000000000000000000000000000   0000000000000000000000000A9        170192964704     
0010001300322U 020000000000000000000000000000000000000000000000000000000000000000000000000000000000000000000000000000000000000000000000001503201700000000            000000000000000                              000                           
0010001300323T 020180230000002544776 29647041294549210   7               17032017000000000008000001023655                         0900000000000010000000000000000000000000000000000000000   0000000000000000000000000A9        170192964704     
0010001300324U 020000000000000000000000000000000000000000000000000000000000000000000000000000000000000000000000000000000000000000000000001503201700000000            000000000000000                              000                           
0010001300325T 020180230000002544776 29647041294712662   7               17032017000000000006000001008214                         0900000000000010000000000000000000000000000000000000000   0000000000000000000000000A9        170192964704     
0010001300326U 020000000000000000000000000000000000000000000000000000000000000000000000000000000000000000000000000000000000000000000000001503201700000000            000000000000000                              000                           
0010001300327T 020180230000002544776 29647041295017121   7               17032017000000000008000001033316                         0900000000000010000000000000000000000000000000000000000   0000000000000000000000000A9        170192964704     
0010001300328U 020000000000000000000000000000000000000000000000000000000000000000000000000000000000000000000000000000000000000000000000001503201700000000            000000000000000                              000                           
0010001300329T 020180230000002544776 29647041295123624   7               17032017000000000006000001023655                         0900000000000010000000000000000000000000000000000000000   0000000000000000000000000A9        170192964704     
0010001300330U 020000000000000000000000000000000000000000000000000000000000000000000000000000000000000000000000000000000000000000000000001503201700000000            000000000000000                              000                           
0010001300331T 020180230000002544776 29647041295309486   7               17032017000000000006000001016179                         0900000000000010500000000000000000000000000000000000000   0000000000000000000000000A9A4      170192964704     
0010001300332U 020000000000000000000000000000000000000000000000000000000000000000000000000000000000000000000000000000000000000000000000001503201700000000            000000000000000                              000                           
0010001300333T 020180230000002544776 29647041295457069   7               17032017000000000006000001023655                         0900000000000010000000000000000000000000000000000000000   0000000000000000000000000A9        170192964704     
0010001300334U 020000000000000000000000000000000000000000000000000000000000000000000000000000000000000000000000000000000000000000000000001503201700000000            000000000000000                              000                           
0010001300335T 020180230000002544776 29647041295508964   7               17032017000000000008000001028029                         0900000000000010000000000000000000000000000000000000000   0000000000000000000000000A9        170192964704     
0010001300336U 020000000000000000000000000000000000000000000000000000000000000000000000000000000000000000000000000000000000000000000000001503201700000000            000000000000000                              000                           
0010001300337T 020180230000002544776 29647041295654418   7               17032017000000000006000001000132                         0900000000000010000000000000000000000000000000000000000   0000000000000000000000000A9        170192964704     
0010001300338U 020000000000000000000000000000000000000000000000000000000000000000000000000000000000000000000000000000000000000000000000001503201700000000            000000000000000                              000                           
0010001300339T 020180230000002544776 29647041295759283   7               17032017000000000008000001021385                         0900000000000010000000000000000000000000000000000000000   0000000000000000000000000A9        170192964704     
0010001300340U 020000000000000000000000000000000000000000000000000000000000000000000000000000000000000000000000000000000000000000000000001503201700000000            000000000000000                              000                           
0010001300341T 020180230000002544776 29647041295936236   7               17032017000000000006000001000132                         0900000000000010500000000000000000000000000000000000000   0000000000000000000000000A9A4      170192964704     
0010001300342U 020000000000000000000000000000000000000000000000000000000000000000000000000000000000000000000000000000000000000000000000001503201700000000            000000000000000                              000                           
0010001300343T 020180230000002544776 29647041296153767   7               17032017000000000006000001008214                         0900000000000010000000000000000000000000000000000000000   0000000000000000000000000A9        170192964704     
0010001300344U 020000000000000000000000000000000000000000000000000000000000000000000000000000000000000000000000000000000000000000000000001503201700000000            000000000000000                              000                           
0010001300345T 020180230000002544776 29647041296158903   7               17032017000000000006000001008214                         0900000000000010000000000000000000000000000000000000000   0000000000000000000000000A9        170192964704     
0010001300346U 020000000000000000000000000000000000000000000000000000000000000000000000000000000000000000000000000000000000000000000000001503201700000000            000000000000000                              000                           
0010001300347T 020180230000002544776 29647041296443801   7               17032017000000000006000001033316                         0900000000000010500000000000000000000000000000000000000   0000000000000000000000000A9A4      170192964704     
0010001300348U 020000000000000000000000000000000000000000000000000000000000000000000000000000000000000000000000000000000000000000000000001503201700000000            000000000000000                              000                           
0010001300349T 020180230000002544776 29647041296729657   7               17032017000000000006000001028495                         0900000000000010000000000000000000000000000000000000000   0000000000000000000000000A9        170192964704     
0010001300350U 020000000000000000000000000000000000000000000000000000000000000000000000000000000000000000000000000000000000000000000000001503201700000000            000000000000000                              000                           
0010001300351T 020180230000002544776 29647041296957733   7               1703201700000000000600000101138X                         0900000000000010000000000000000000000000000000000000000   0000000000000000000000000A9        170192964704     
0010001300352U 020000000000000000000000000000000000000000000000000000000000000000000000000000000000000000000000000000000000000000000000001503201700000000            000000000000000                              000                           
0010001300353T 020180230000002544776 29647041297120060   7               17032017000000000006000001016179                         0900000000000010000000000000000000000000000000000000000   0000000000000000000000000A9        170192964704     
0010001300354U 020000000000000000000000000000000000000000000000000000000000000000000000000000000000000000000000000000000000000000000000001503201700000000            000000000000000                              000                           
0010001300355T 020180230000002544776 29647041297206660   7               17032017000000000006000001006572                         0900000000000010000000000000000000000000000000000000000   0000000000000000000000000A9        170192964704     
0010001300356U 020000000000000000000000000000000000000000000000000000000000000000000000000000000000000000000000000000000000000000000000001503201700000000            000000000000000                              000                           
0010001300357T 020180230000002544776 29647041297334851   7               17032017000000000006000001016179                         0900000000000010500000000000000000000000000000000000000   0000000000000000000000000A9A4      170192964704     
0010001300358U 020000000000000000000000000000000000000000000000000000000000000000000000000000000000000000000000000000000000000000000000001503201700000000            000000000000000                              000                           
0010001300359T 020180230000002544776 29647041297446775   7               17032017000000000006000001006572                         0900000000000010000000000000000000000000000000000000000   0000000000000000000000000A9        170192964704     
0010001300360U 020000000000000000000000000000000000000000000000000000000000000000000000000000000000000000000000000000000000000000000000001503201700000000            000000000000000                              000                           
0010001300361T 020180230000002544776 29647041297622226   7               1703201700000000000600000100099X                         0900000000000010000000000000000000000000000000000000000   0000000000000000000000000A9        170192964704     
0010001300362U 020000000000000000000000000000000000000000000000000000000000000000000000000000000000000000000000000000000000000000000000001503201700000000            000000000000000                              000                           
0010001300363T 020180230000002544776 29647041297735895   7               17032017000000000006000001016179                         0900000000000010000000000000000000000000000000000000000   0000000000000000000000000A9        170192964704     
0010001300364U 020000000000000000000000000000000000000000000000000000000000000000000000000000000000000000000000000000000000000000000000001503201700000000            000000000000000                              000                           
0010001300365T 020180230000002544776 29647041298056316   7               1703201700000000000600000101981X                         0900000000000010000000000000000000000000000000000000000   0000000000000000000000000A9        170192964704     
0010001300366U 020000000000000000000000000000000000000000000000000000000000000000000000000000000000000000000000000000000000000000000000001503201700000000            000000000000000                              000                           
0010001300367T 020180230000002544776 29647041298214285   7               17032017000000000006000001013617                         0900000000000010000000000000000000000000000000000000000   0000000000000000000000000A9        170192964704     
0010001300368U 020000000000000000000000000000000000000000000000000000000000000000000000000000000000000000000000000000000000000000000000001503201700000000            000000000000000                              000                           
0010001300369T 020180230000002544776 29647041298405834   7               17032017000000000006000001014451                         0900000000000010000000000000000000000000000000000000000   0000000000000000000000000A9        170192964704     
0010001300370U 020000000000000000000000000000000000000000000000000000000000000000000000000000000000000000000000000000000000000000000000001503201700000000            000000000000000                              000                           
0010001300371T 020180230000002544776 29647041298537565   7               17032017000000000006000001028029                         0900000000000010000000000000000000000000000000000000000   0000000000000000000000000A9        170192964704     
0010001300372U 020000000000000000000000000000000000000000000000000000000000000000000000000000000000000000000000000000000000000000000000001503201700000000            000000000000000                              000                           
0010001300373T 020180230000002544776 29647041298725024   7               17032017000000000006000001018376                         0900000000000010000000000000000000000000000000000000000   0000000000000000000000000A9        170192964704     
0010001300374U 020000000000000000000000000000000000000000000000000000000000000000000000000000000000000000000000000000000000000000000000001503201700000000            000000000000000                              000                           
0010001300375T 020180230000002544776 29647041299109080   7               17032017000000000006000001001287                         0900000000000010000000000000000000000000000000000000000   0000000000000000000000000A9        170192964704     
0010001300376U 020000000000000000000000000000000000000000000000000000000000000000000000000000000000000000000000000000000000000000000000001503201700000000            000000000000000                              000                           
0010001300377T 020180230000002544776 29647041299248977   7               17032017000000000006000001013617                         0900000000000010000000000000000000000000000000000000000   0000000000000000000000000A9        170192964704     
0010001300378U 020000000000000000000000000000000000000000000000000000000000000000000000000000000000000000000000000000000000000000000000001503201700000000            000000000000000                              000                           
0010001300379T 020180230000002544776 29647041299350669   7               17032017000000000006000001028029                         0900000000000010500000000000000000000000000000000000000   0000000000000000000000000A9A4      170192964704     
0010001300380U 020000000000000000000000000000000000000000000000000000000000000000000000000000000000000000000000000000000000000000000000001503201700000000            000000000000000                              000                           
0010001300381T 020180230000002544776 29647041299449369   7               17032017000000000006000001016179                         0900000000000010000000000000000000000000000000000000000   0000000000000000000000000A9        170192964704     
0010001300382U 020000000000000000000000000000000000000000000000000000000000000000000000000000000000000000000000000000000000000000000000001503201700000000            000000000000000                              000                           
0010001300383T 020180230000002544776 29647041299518436   7               17032017000000000006000001033316                         0900000000000010000000000000000000000000000000000000000   0000000000000000000000000A9        170192964704     
0010001300384U 020000000000000000000000000000000000000000000000000000000000000000000000000000000000000000000000000000000000000000000000001503201700000000            000000000000000                              000                           
0010001300385T 020180230000002544776 29647041299629491   7               17032017000000000006000001016179                         0900000000000010000000000000000000000000000000000000000   0000000000000000000000000A9        170192964704     
0010001300386U 020000000000000000000000000000000000000000000000000000000000000000000000000000000000000000000000000000000000000000000000001503201700000000            000000000000000                              000                           
0010001300387T 020180230000002544776 29647041299733960   7               17032017000000000006000001008214                         0900000000000010000000000000000000000000000000000000000   0000000000000000000000000A9        170192964704     
0010001300388U 020000000000000000000000000000000000000000000000000000000000000000000000000000000000000000000000000000000000000000000000001503201700000000            000000000000000                              000                           
0010001300389T 020180230000002544776 29647041299818592   7               17032017000000000006000001035041                         0900000000000010000000000000000000000000000000000000000   0000000000000000000000000A9        170192964704     
0010001300390U 020000000000000000000000000000000000000000000000000000000000000000000000000000000000000000000000000000000000000000000000001503201700000000            000000000000000                              000                           
0010001300391T 020180230000002544776 29647041299956362   7               17032017000000000006000001005428                         0900000000000010000000000000000000000000000000000000000   0000000000000000000000000A9        170192964704     
0010001300392U 020000000000000000000000000000000000000000000000000000000000000000000000000000000000000000000000000000000000000000000000001503201700000000            000000000000000                              000                           
0010001300393T 020180230000002544776 29647041300101408   7               17032017000000000006000001023655                         0900000000000010000000000000000000000000000000000000000   0000000000000000000000000A9        170192964704     
0010001300394U 020000000000000000000000000000000000000000000000000000000000000000000000000000000000000000000000000000000000000000000000001503201700000000            000000000000000                              000                           
0010001300395T 020180230000002544776 29647041300202877   7               17032017000000000006000001016179                         0900000000000010000000000000000000000000000000000000000   0000000000000000000000000A9        170192964704     
0010001300396U 020000000000000000000000000000000000000000000000000000000000000000000000000000000000000000000000000000000000000000000000001503201700000000            000000000000000                              000                           
0010001300397T 020180230000002544776 29647041300712328   7               17032017000000000006000001016179                         0900000000000010000000000000000000000000000000000000000   0000000000000000000000000A9        170192964704     
0010001300398U 020000000000000000000000000000000000000000000000000000000000000000000000000000000000000000000000000000000000000000000000001503201700000000            000000000000000                              000                           
0010001300399T 020180230000002544776 29647041300713705   7               17032017000000000006000001016179                         0900000000000010000000000000000000000000000000000000000   0000000000000000000000000A9        170192964704     
0010001300400U 020000000000000000000000000000000000000000000000000000000000000000000000000000000000000000000000000000000000000000000000001503201700000000            000000000000000                              000                           
0010001300401T 020180230000002544776 29647041300714955   7               17032017000000000006000001016179                         0900000000000010000000000000000000000000000000000000000   0000000000000000000000000A9        170192964704     
0010001300402U 020000000000000000000000000000000000000000000000000000000000000000000000000000000000000000000000000000000000000000000000001503201700000000            000000000000000                              000                           
0010001300403T 020180230000002544776 29647041300755020   7               17032017000000000006000001016179                         0900000000000010000000000000000000000000000000000000000   0000000000000000000000000A9        170192964704     
0010001300404U 020000000000000000000000000000000000000000000000000000000000000000000000000000000000000000000000000000000000000000000000001503201700000000            000000000000000                              000                           
0010001300405T 020180230000002544776 29647041300759226   7               17032017000000000006000001016179                         0900000000000010000000000000000000000000000000000000000   0000000000000000000000000A9        170192964704     
0010001300406U 020000000000000000000000000000000000000000000000000000000000000000000000000000000000000000000000000000000000000000000000001503201700000000            000000000000000                              000                           
0010001300407T 020180230000002544776 29647041300800323   7               17032017000000000006000001023655                         0900000000000010000000000000000000000000000000000000000   0000000000000000000000000A9        170192964704     
0010001300408U 020000000000000000000000000000000000000000000000000000000000000000000000000000000000000000000000000000000000000000000000001503201700000000            000000000000000                              000                           
0010001300409T 020180230000002544776 29647041301049808   7               17032017000000000006000001023655                         0900000000000010000000000000000000000000000000000000000   0000000000000000000000000A9        170192964704     
0010001300410U 020000000000000000000000000000000000000000000000000000000000000000000000000000000000000000000000000000000000000000000000001503201700000000            000000000000000                              000                           
0010001300411T 020180230000002544776 29647041301141016   7               17032017000000000006000001016179                         0900000000000010500000000000000000000000000000000000000   0000000000000000000000000A9A4      170192964704     
0010001300412U 020000000000000000000000000000000000000000000000000000000000000000000000000000000000000000000000000000000000000000000000001503201700000000            000000000000000                              000                           
