00100000         2247745860001000029647040014       0180230000002544776 INSTITUTO DE SELECAO E TECNOLOBANCO DO BRASIL                         21603201701284600006403000000515122941PROCESSAMEN                                                 
00100011T0100020 20247745860001000029647040014       0180230000002544776 INSTITUTO DE SELECAO E TECNOLO                                                                                000000001603201700000000  000000000                      
0010001300001T 020180230000002544776 29647040576020376   7               18032017000000000006000001000132                         0900000000000010000000000000000000000000000000000000000   0000000000000000000000000A9        170192964704     
0010001300002U 020000000000000000000000000000000000000000000000000000000000000000000000000000000000000000000000000000000000000000000000001603201700000000            000000000000000                              000                           
0010001300003T 020180230000002544776 29647040577322945   7               18032017000000000008000001000132                         0900000000000010000000000000000000000000000000000000000   0000000000000000000000000A9        170192964704     
0010001300004U 020000000000000000000000000000000000000000000000000000000000000000000000000000000000000000000000000000000000000000000000001603201700000000            000000000000000                              000                           
0010001300005T 020180230000002544776 29647040584702610   7               18032017000000000006000001023655                         0900000000000010000000000000000000000000000000000000000   0000000000000000000000000A9        170192964704     
0010001300006U 020000000000000000000000000000000000000000000000000000000000000000000000000000000000000000000000000000000000000000000000001603201700000000            000000000000000                              000                           
0010001300007T 020180230000002544776 29647040584730099   7               18032017000000000006000001023655                         0900000000000010000000000000000000000000000000000000000   0000000000000000000000000A9        170192964704     
0010001300008U 020000000000000000000000000000000000000000000000000000000000000000000000000000000000000000000000000000000000000000000000001603201700000000            000000000000000                              000                           
0010001300009T 020180230000002544776 29647040584736321   7               18032017000000000006000001023655                         0900000000000010000000000000000000000000000000000000000   0000000000000000000000000A9        170192964704     
0010001300010U 020000000000000000000000000000000000000000000000000000000000000000000000000000000000000000000000000000000000000000000000001603201700000000            000000000000000                              000                           
0010001300011T 020180230000002544776 29647040584748510   7               18032017000000000006000001023655                         0900000000000010000000000000000000000000000000000000000   0000000000000000000000000A9        170192964704     
0010001300012U 020000000000000000000000000000000000000000000000000000000000000000000000000000000000000000000000000000000000000000000000001603201700000000            000000000000000                              000                           
0010001300013T 020180230000002544776 29647040584753197   7               18032017000000000006000001023655                         0900000000000010000000000000000000000000000000000000000   0000000000000000000000000A9        170192964704     
0010001300014U 020000000000000000000000000000000000000000000000000000000000000000000000000000000000000000000000000000000000000000000000001603201700000000            000000000000000                              000                           
0010001300015T 020180230000002544776 29647040624216960   7               18032017000000000006000001023655                         0900000000000010000000000000000000000000000000000000000   0000000000000000000000000A9        170192964704     
0010001300016U 020000000000000000000000000000000000000000000000000000000000000000000000000000000000000000000000000000000000000000000000001603201700000000            000000000000000                              000                           
0010001300017T 020180230000002544776 29647040655051507   7               18032017000000000008000001000132                         0900000000000010000000000000000000000000000000000000000   0000000000000000000000000A9        170192964704     
0010001300018U 020000000000000000000000000000000000000000000000000000000000000000000000000000000000000000000000000000000000000000000000001603201700000000            000000000000000                              000                           
0010001300019T 020180230000002544776 29647040655557189   7               18032017000000000006000001000132                         0900000000000010000000000000000000000000000000000000000   0000000000000000000000000A9        170192964704     
0010001300020U 020000000000000000000000000000000000000000000000000000000000000000000000000000000000000000000000000000000000000000000000001603201700000000            000000000000000                              000                           
0010001300021T 020180230000002544776 29647040683154453   7               18032017000000000006000001012467                         0900000000000010000000000000000000000000000000000000000   0000000000000000000000000A9        170192964704     
0010001300022U 020000000000000000000000000000000000000000000000000000000000000000000000000000000000000000000000000000000000000000000000001603201700000000            000000000000000                              000                           
0010001300023T 020180230000002544776 29647040683158965   7               18032017000000000006000001012467                         0900000000000010000000000000000000000000000000000000000   0000000000000000000000000A9        170192964704     
0010001300024U 020000000000000000000000000000000000000000000000000000000000000000000000000000000000000000000000000000000000000000000000001603201700000000            000000000000000                              000                           
0010001300025T 020180230000002544776 29647040702224707   7               18032017000000000006000001018376                         0900000000000010000000000000000000000000000000000000000   0000000000000000000000000A9        170192964704     
0010001300026U 020000000000000000000000000000000000000000000000000000000000000000000000000000000000000000000000000000000000000000000000001603201700000000            000000000000000                              000                           
0010001300027T 020180230000002544776 29647040705404435   7               18032017000000000008000001000361                         0900000000000010000000000000000000000000000000000000000   0000000000000000000000000A9        170192964704     
0010001300028U 020000000000000000000000000000000000000000000000000000000000000000000000000000000000000000000000000000000000000000000000001603201700000000            000000000000000                              000                           
0010001300029T 020180230000002544776 29647040705417066   7               18032017000000000008000001000361                         0900000000000010000000000000000000000000000000000000000   0000000000000000000000000A9        170192964704     
0010001300030U 020000000000000000000000000000000000000000000000000000000000000000000000000000000000000000000000000000000000000000000000001603201700000000            000000000000000                              000                           
0010001300031T 020180230000002544776 29647040705431343   7               18032017000000000008000001000361                         0900000000000010000000000000000000000000000000000000000   0000000000000000000000000A9        170192964704     
0010001300032U 020000000000000000000000000000000000000000000000000000000000000000000000000000000000000000000000000000000000000000000000001603201700000000            000000000000000                              000                           
0010001300033T 020180230000002544776 29647040705432009   7               18032017000000000008000001000361                         0900000000000010000000000000000000000000000000000000000   0000000000000000000000000A9        170192964704     
0010001300034U 020000000000000000000000000000000000000000000000000000000000000000000000000000000000000000000000000000000000000000000000001603201700000000            000000000000000                              000                           
0010001300035T 020180230000002544776 29647040705436024   7               18032017000000000008000001000361                         0900000000000010000000000000000000000000000000000000000   0000000000000000000000000A9        170192964704     
0010001300036U 020000000000000000000000000000000000000000000000000000000000000000000000000000000000000000000000000000000000000000000000001603201700000000            000000000000000                              000                           
0010001300037T 020180230000002544776 29647040705436063   7               18032017000000000008000001000361                         0900000000000010000000000000000000000000000000000000000   0000000000000000000000000A9        170192964704     
0010001300038U 020000000000000000000000000000000000000000000000000000000000000000000000000000000000000000000000000000000000000000000000001603201700000000            000000000000000                              000                           
0010001300039T 020180230000002544776 29647040718009751   7               18032017000000000006000001016179                         0900000000000010000000000000000000000000000000000000000   0000000000000000000000000A9        170192964704     
0010001300040U 020000000000000000000000000000000000000000000000000000000000000000000000000000000000000000000000000000000000000000000000001603201700000000            000000000000000                              000                           
0010001300041T 020180230000002544776 29647040760009083   7               18032017000000000006000001000132                         0900000000000010000000000000000000000000000000000000000   0000000000000000000000000A9        170192964704     
0010001300042U 020000000000000000000000000000000000000000000000000000000000000000000000000000000000000000000000000000000000000000000000001603201700000000            000000000000000                              000                           
0010001300043T 020180230000002544776 29647040764208351   7               18032017000000000006000001012467                         0900000000000010000000000000000000000000000000000000000   0000000000000000000000000A9        170192964704     
0010001300044U 020000000000000000000000000000000000000000000000000000000000000000000000000000000000000000000000000000000000000000000000001603201700000000            000000000000000                              000                           
0010001300045T 020180230000002544776 29647040795420404   7               18032017000000000006000001012467                         0900000000000010000000000000000000000000000000000000000   0000000000000000000000000A9        170192964704     
0010001300046U 020000000000000000000000000000000000000000000000000000000000000000000000000000000000000000000000000000000000000000000000001603201700000000            000000000000000                              000                           
0010001300047T 020180230000002544776 29647040833046391   7               18032017000000000008000001032859                         0900000000000010000000000000000000000000000000000000000   0000000000000000000000000A9        170192964704     
0010001300048U 020000000000000000000000000000000000000000000000000000000000000000000000000000000000000000000000000000000000000000000000001603201700000000            000000000000000                              000                           
0010001300049T 020180230000002544776 29647040858130057   7               18032017000000000006000001016179                         0900000000000010000000000000000000000000000000000000000   0000000000000000000000000A9        170192964704     
0010001300050U 020000000000000000000000000000000000000000000000000000000000000000000000000000000000000000000000000000000000000000000000001603201700000000            000000000000000                              000                           
0010001300051T 020180230000002544776 29647040861148638   7               18032017000000000006000001020478                         0900000000000010500000000000000000000000000000000000000   0000000000000000000000000A9A4      170192964704     
0010001300052U 020000000000000000000000000000000000000000000000000000000000000000000000000000000000000000000000000000000000000000000000001603201700000000            000000000000000                              000                           
0010001300053T 020180230000002544776 29647040864358984   7               17032017000000000006000001009636                         0900000000000010000000000000000000000000000000000000000   0000000000000000000000000A9        170192964704     
0010001300054U 020000000000000000000000000000000000000000000000000000000000000000000000000000000000000000000000000000000000000000000000001503201700000000            000000000000000                              000                           
0010001300055T 020180230000002544776 29647040913733361   7               18032017000000000006000001001597                         0900000000000010000000000000000000000000000000000000000   0000000000000000000000000A9        170192964704     
0010001300056U 020000000000000000000000000000000000000000000000000000000000000000000000000000000000000000000000000000000000000000000000001603201700000000            000000000000000                              000                           
0010001300057T 020180230000002544776 29647040926822877   7               18032017000000000006000001028029                         0900000000000010000000000000000000000000000000000000000   0000000000000000000000000A9        170192964704     
0010001300058U 020000000000000000000000000000000000000000000000000000000000000000000000000000000000000000000000000000000000000000000000001603201700000000            000000000000000                              000                           
0010001300059T 020180230000002544776 29647040929332903   7               18032017000000000006000001000132                         0900000000000010000000000000000000000000000000000000000   0000000000000000000000000A9        170192964704     
0010001300060U 020000000000000000000000000000000000000000000000000000000000000000000000000000000000000000000000000000000000000000000000001603201700000000            000000000000000                              000                           
0010001300061T 020180230000002544776 29647040967603173   7               18032017000000000006000001008214                         0900000000000010000000000000000000000000000000000000000   0000000000000000000000000A9        170192964704     
0010001300062U 020000000000000000000000000000000000000000000000000000000000000000000000000000000000000000000000000000000000000000000000001603201700000000            000000000000000                              000                           
0010001300063T 020180230000002544776 29647040980029705   7               18032017000000000006000001000132                         0900000000000010000000000000000000000000000000000000000   0000000000000000000000000A9        170192964704     
0010001300064U 020000000000000000000000000000000000000000000000000000000000000000000000000000000000000000000000000000000000000000000000001603201700000000            000000000000000                              000                           
0010001300065T 020180230000002544776 29647041010500167   7               18032017000000000006000001016179                         0900000000000010000000000000000000000000000000000000000   0000000000000000000000000A9        170192964704     
0010001300066U 020000000000000000000000000000000000000000000000000000000000000000000000000000000000000000000000000000000000000000000000001603201700000000            000000000000000                              000                           
0010001300067T 020180230000002544776 29647041012153550   7               18032017000000000006000001018376                         0900000000000010000000000000000000000000000000000000000   0000000000000000000000000A9        170192964704     
0010001300068U 020000000000000000000000000000000000000000000000000000000000000000000000000000000000000000000000000000000000000000000000001603201700000000            000000000000000                              000                           
0010001300069T 020180230000002544776 29647041025947453   7               18032017000000000008000001028029                         0900000000000010000000000000000000000000000000000000000   0000000000000000000000000A9        170192964704     
0010001300070U 020000000000000000000000000000000000000000000000000000000000000000000000000000000000000000000000000000000000000000000000001603201700000000            000000000000000                              000                           
0010001300071T 020180230000002544776 29647041049804754   7               18032017000000000008000001032859                         0900000000000010000000000000000000000000000000000000000   0000000000000000000000000A9        170192964704     
0010001300072U 020000000000000000000000000000000000000000000000000000000000000000000000000000000000000000000000000000000000000000000000001603201700000000            000000000000000                              000                           
0010001300073T 020180230000002544776 29647041070005591   7               18032017000000000006000001044865                         0900000000000010000000000000000000000000000000000000000   0000000000000000000000000A9        170192964704     
0010001300074U 020000000000000000000000000000000000000000000000000000000000000000000000000000000000000000000000000000000000000000000000001603201700000000            000000000000000                              000                           
0010001300075T 020180230000002544776 29647041077311573   7               18032017000000000008000001000132                         0900000000000010000000000000000000000000000000000000000   0000000000000000000000000A9        170192964704     
0010001300076U 020000000000000000000000000000000000000000000000000000000000000000000000000000000000000000000000000000000000000000000000001603201700000000            000000000000000                              000                           
0010001300077T 020180230000002544776 29647041078158165   7               18032017000000000006000001028029                         0900000000000010000000000000000000000000000000000000000   0000000000000000000000000A9        170192964704     
0010001300078U 020000000000000000000000000000000000000000000000000000000000000000000000000000000000000000000000000000000000000000000000001603201700000000            000000000000000                              000                           
0010001300079T 020180230000002544776 29647041081457910   7               18032017000000000006000001000132                         0900000000000010000000000000000000000000000000000000000   0000000000000000000000000A9        170192964704     
0010001300080U 020000000000000000000000000000000000000000000000000000000000000000000000000000000000000000000000000000000000000000000000001603201700000000            000000000000000                              000                           
0010001300081T 020180230000002544776 29647041088838503   7               18032017000000000006000001008214                         0900000000000010000000000000000000000000000000000000000   0000000000000000000000000A9        170192964704     
0010001300082U 020000000000000000000000000000000000000000000000000000000000000000000000000000000000000000000000000000000000000000000000001603201700000000            000000000000000                              000                           
0010001300083T 020180230000002544776 29647041096732218   7               18032017000000000006000001005428                         0900000000000010000000000000000000000000000000000000000   0000000000000000000000000A9        170192964704     
0010001300084U 020000000000000000000000000000000000000000000000000000000000000000000000000000000000000000000000000000000000000000000000001603201700000000            000000000000000                              000                           
0010001300085T 020180230000002544776 29647041098803322   7               18032017000000000006000001025291                         0900000000000010500000000000000000000000000000000000000   0000000000000000000000000A9A4      170192964704     
0010001300086U 020000000000000000000000000000000000000000000000000000000000000000000000000000000000000000000000000000000000000000000000001603201700000000            000000000000000                              000                           
0010001300087T 020180230000002544776 29647041108059779   7               18032017000000000006000001012688                         0900000000000010000000000000000000000000000000000000000   0000000000000000000000000A9        170192964704     
0010001300088U 020000000000000000000000000000000000000000000000000000000000000000000000000000000000000000000000000000000000000000000000001603201700000000            000000000000000                              000                           
0010001300089T 020180230000002544776 29647041108243728   7               18032017000000000006000001018376                         0900000000000010000000000000000000000000000000000000000   0000000000000000000000000A9        170192964704     
0010001300090U 020000000000000000000000000000000000000000000000000000000000000000000000000000000000000000000000000000000000000000000000001603201700000000            000000000000000                              000                           
0010001300091T 020180230000002544776 29647041122213778   7               18032017000000000006000001033316                         0900000000000010000000000000000000000000000000000000000   0000000000000000000000000A9        170192964704     
0010001300092U 020000000000000000000000000000000000000000000000000000000000000000000000000000000000000000000000000000000000000000000000001603201700000000            000000000000000                              000                           
0010001300093T 020180230000002544776 29647041172601586   7               18032017000000000006000001028029                         0900000000000010000000000000000000000000000000000000000   0000000000000000000000000A9        170192964704     
0010001300094U 020000000000000000000000000000000000000000000000000000000000000000000000000000000000000000000000000000000000000000000000001603201700000000            000000000000000                              000                           
0010001300095T 020180230000002544776 29647041188636189   7               18032017000000000006000001018376                         0900000000000010000000000000000000000000000000000000000   0000000000000000000000000A9        170192964704     
0010001300096U 020000000000000000000000000000000000000000000000000000000000000000000000000000000000000000000000000000000000000000000000001603201700000000            000000000000000                              000                           
0010001300097T 020180230000002544776 29647041207946237   7               18032017000000000006000001028029                         0900000000000010000000000000000000000000000000000000000   0000000000000000000000000A9        170192964704     
0010001300098U 020000000000000000000000000000000000000000000000000000000000000000000000000000000000000000000000000000000000000000000000001603201700000000            000000000000000                              000                           
0010001300099T 020180230000002544776 29647041219717184   7               18032017000000000006000001016179                         0900000000000010000000000000000000000000000000000000000   0000000000000000000000000A9        170192964704     
0010001300100U 020000000000000000000000000000000000000000000000000000000000000000000000000000000000000000000000000000000000000000000000001603201700000000            000000000000000                              000                           
0010001300101T 020180230000002544776 29647041230152954   7               18032017000000000006000001010421                         0900000000000010000000000000000000000000000000000000000   0000000000000000000000000A9        170192964704     
0010001300102U 020000000000000000000000000000000000000000000000000000000000000000000000000000000000000000000000000000000000000000000000001603201700000000            000000000000000                              000                           
0010001300103T 020180230000002544776 29647041235808269   7               18032017000000000006000001000361                         0900000000000010000000000000000000000000000000000000000   0000000000000000000000000A9        170192964704     
0010001300104U 020000000000000000000000000000000000000000000000000000000000000000000000000000000000000000000000000000000000000000000000001603201700000000            000000000000000                              000                           
0010001300105T 020180230000002544776 29647041239143394   7               18032017000000000006000001028029                         0900000000000010000000000000000000000000000000000000000   0000000000000000000000000A9        170192964704     
0010001300106U 020000000000000000000000000000000000000000000000000000000000000000000000000000000000000000000000000000000000000000000000001603201700000000            000000000000000                              000                           
0010001300107T 020180230000002544776 29647041239245983   7               18032017000000000006000001028029                         0900000000000010000000000000000000000000000000000000000   0000000000000000000000000A9        170192964704     
0010001300108U 020000000000000000000000000000000000000000000000000000000000000000000000000000000000000000000000000000000000000000000000001603201700000000            000000000000000                              000                           
0010001300109T 020180230000002544776 29647041240724411   7               18032017000000000006000001028029                         0900000000000010000000000000000000000000000000000000000   0000000000000000000000000A9        170192964704     
0010001300110U 020000000000000000000000000000000000000000000000000000000000000000000000000000000000000000000000000000000000000000000000001603201700000000            000000000000000                              000                           
0010001300111T 020180230000002544776 29647041244639671   7               18032017000000000006000001016179                         0900000000000010000000000000000000000000000000000000000   0000000000000000000000000A9        170192964704     
0010001300112U 020000000000000000000000000000000000000000000000000000000000000000000000000000000000000000000000000000000000000000000000001603201700000000            000000000000000                              000                           
0010001300113T 020180230000002544776 29647041246526804   7               18032017000000000006000001018376                         0900000000000010000000000000000000000000000000000000000   0000000000000000000000000A9        170192964704     
0010001300114U 020000000000000000000000000000000000000000000000000000000000000000000000000000000000000000000000000000000000000000000000001603201700000000            000000000000000                              000                           
0010001300115T 020180230000002544776 29647041246533860   7               18032017000000000006000001018376                         0900000000000010000000000000000000000000000000000000000   0000000000000000000000000A9        170192964704     
0010001300116U 020000000000000000000000000000000000000000000000000000000000000000000000000000000000000000000000000000000000000000000000001603201700000000            000000000000000                              000                           
0010001300117T 020180230000002544776 29647041250013373   7               18032017000000000006000001012467                         0900000000000010000000000000000000000000000000000000000   0000000000000000000000000A9        170192964704     
0010001300118U 020000000000000000000000000000000000000000000000000000000000000000000000000000000000000000000000000000000000000000000000001603201700000000            000000000000000                              000                           
0010001300119T 020180230000002544776 29647041253748787   7               18032017000000000006000001013692                         0900000000000010000000000000000000000000000000000000000   0000000000000000000000000A9        170192964704     
0010001300120U 020000000000000000000000000000000000000000000000000000000000000000000000000000000000000000000000000000000000000000000000001603201700000000            000000000000000                              000                           
0010001300121T 020180230000002544776 29647041264809721   7               18032017000000000008000001033316                         0900000000000010000000000000000000000000000000000000000   0000000000000000000000000A9        170192964704     
0010001300122U 020000000000000000000000000000000000000000000000000000000000000000000000000000000000000000000000000000000000000000000000001603201700000000            000000000000000                              000                           
0010001300123T 020180230000002544776 29647041264837307   7               18032017000000000008000001033316                         0900000000000010000000000000000000000000000000000000000   0000000000000000000000000A9        170192964704     
0010001300124U 020000000000000000000000000000000000000000000000000000000000000000000000000000000000000000000000000000000000000000000000001603201700000000            000000000000000                              000                           
0010001300125T 020180230000002544776 29647041265717297   7               18032017000000000006000001016179                         0900000000000010000000000000000000000000000000000000000   0000000000000000000000000A9        170192964704     
0010001300126U 020000000000000000000000000000000000000000000000000000000000000000000000000000000000000000000000000000000000000000000000001603201700000000            000000000000000                              000                           
0010001300127T 020180230000002544776 29647041270755931   7               18032017000000000006000001018376                         0900000000000010000000000000000000000000000000000000000   0000000000000000000000000A9        170192964704     
0010001300128U 020000000000000000000000000000000000000000000000000000000000000000000000000000000000000000000000000000000000000000000000001603201700000000            000000000000000                              000                           
0010001300129T 020180230000002544776 29647041270759870   7               18032017000000000006000001018376                         0900000000000010000000000000000000000000000000000000000   0000000000000000000000000A9        170192964704     
0010001300130U 020000000000000000000000000000000000000000000000000000000000000000000000000000000000000000000000000000000000000000000000001603201700000000            000000000000000                              000                           
0010001300131T 020180230000002544776 29647041279115468   7               18032017000000000006000001028029                         0900000000000010000000000000000000000000000000000000000   0000000000000000000000000A9        170192964704     
0010001300132U 020000000000000000000000000000000000000000000000000000000000000000000000000000000000000000000000000000000000000000000000001603201700000000            000000000000000                              000                           
0010001300133T 020180230000002544776 29647041281907937   7               18032017000000000006000001028029                         0900000000000010000000000000000000000000000000000000000   0000000000000000000000000A9        170192964704     
0010001300134U 020000000000000000000000000000000000000000000000000000000000000000000000000000000000000000000000000000000000000000000000001603201700000000            000000000000000                              000                           
0010001300135T 020180230000002544776 29647041282706918   7               18032017000000000006000001028029                         0900000000000010000000000000000000000000000000000000000   0000000000000000000000000A9        170192964704     
0010001300136U 020000000000000000000000000000000000000000000000000000000000000000000000000000000000000000000000000000000000000000000000001603201700000000            000000000000000                              000                           
0010001300137T 020180230000002544776 29647041282719468   7               18032017000000000006000001028029                         0900000000000010000000000000000000000000000000000000000   0000000000000000000000000A9        170192964704     
0010001300138U 020000000000000000000000000000000000000000000000000000000000000000000000000000000000000000000000000000000000000000000000001603201700000000            000000000000000                              000                           
0010001300139T 020180230000002544776 29647041288325324   7               18032017000000000006000001016179                         0900000000000010000000000000000000000000000000000000000   0000000000000000000000000A9        170192964704     
0010001300140U 020000000000000000000000000000000000000000000000000000000000000000000000000000000000000000000000000000000000000000000000001603201700000000            000000000000000                              000                           
0010001300141T 020180230000002544776 29647041290837817   7               18032017000000000006000001016179                         0900000000000010000000000000000000000000000000000000000   0000000000000000000000000A9        170192964704     
0010001300142U 020000000000000000000000000000000000000000000000000000000000000000000000000000000000000000000000000000000000000000000000001603201700000000            000000000000000                              000                           
0010001300143T 020180230000002544776 29647041292300007   7               18032017000000000006000001012688                         0900000000000010000000000000000000000000000000000000000   0000000000000000000000000A9        170192964704     
0010001300144U 020000000000000000000000000000000000000000000000000000000000000000000000000000000000000000000000000000000000000000000000001603201700000000            000000000000000                              000                           
0010001300145T 020180230000002544776 29647041297747490   7               18032017000000000006000001016179                         0900000000000010000000000000000000000000000000000000000   0000000000000000000000000A9        170192964704     
0010001300146U 020000000000000000000000000000000000000000000000000000000000000000000000000000000000000000000000000000000000000000000000001603201700000000            000000000000000                              000                           
0010001300147T 020180230000002544776 29647041305323345   7               18032017000000000006000001000132                         0900000000000010000000000000000000000000000000000000000   0000000000000000000000000A9        170192964704     
0010001300148U 020000000000000000000000000000000000000000000000000000000000000000000000000000000000000000000000000000000000000000000000001603201700000000            000000000000000                              000                           
0010001300149T 020180230000002544776 29647041306210061   7               18032017000000000006000001000132                         0900000000000010000000000000000000000000000000000000000   0000000000000000000000000A9        170192964704     
0010001300150U 020000000000000000000000000000000000000000000000000000000000000000000000000000000000000000000000000000000000000000000000001603201700000000            000000000000000                              000                           
0010001300151T 020180230000002544776 29647041307841541   7               17032017000000000006000001016179                         0900000000000010000000000000000000000000000000000000000   0000000000000000000000000A9        170192964704     
0010001300152U 020000000000000000000000000000000000000000000000000000000000000000000000000000000000000000000000000000000000000000000000001503201700000000            000000000000000                              000                           
0010001300153T 020180230000002544776 29647041308028188   7               17032017000000000006000001016179                         0900000000000010500000000000000000000000000000000000000   0000000000000000000000000A9A4      170192964704     
0010001300154U 020000000000000000000000000000000000000000000000000000000000000000000000000000000000000000000000000000000000000000000000001503201700000000            000000000000000                              000                           
0010001300155T 020180230000002544776 29647041308122002   7               17032017000000000006000001033316                         0900000000000010000000000000000000000000000000000000000   0000000000000000000000000A9        170192964704     
0010001300156U 020000000000000000000000000000000000000000000000000000000000000000000000000000000000000000000000000000000000000000000000001503201700000000            000000000000000                              000                           
0010001300157T 020180230000002544776 29647041308313373   7               17032017000000000006000001023655                         0900000000000010500000000000000000000000000000000000000   0000000000000000000000000A9A4      170192964704     
0010001300158U 020000000000000000000000000000000000000000000000000000000000000000000000000000000000000000000000000000000000000000000000001503201700000000            000000000000000                              000                           
0010001300159T 020180230000002544776 29647041308419636   7               17032017000000000008000001028029                         0900000000000010000000000000000000000000000000000000000   0000000000000000000000000A9        170192964704     
0010001300160U 020000000000000000000000000000000000000000000000000000000000000000000000000000000000000000000000000000000000000000000000001503201700000000            000000000000000                              000                           
0010001300161T 020180230000002544776 29647041308435231   7               17032017000000000008000001028029                         0900000000000010000000000000000000000000000000000000000   0000000000000000000000000A9        170192964704     
0010001300162U 020000000000000000000000000000000000000000000000000000000000000000000000000000000000000000000000000000000000000000000000001503201700000000            000000000000000                              000                           
0010001300163T 020180230000002544776 29647041308436198   7               17032017000000000008000001028029                         0900000000000010000000000000000000000000000000000000000   0000000000000000000000000A9        170192964704     
0010001300164U 020000000000000000000000000000000000000000000000000000000000000000000000000000000000000000000000000000000000000000000000001503201700000000            000000000000000                              000                           
0010001300165T 020180230000002544776 29647041308452978   7               17032017000000000008000001028029                         0900000000000010000000000000000000000000000000000000000   0000000000000000000000000A9        170192964704     
0010001300166U 020000000000000000000000000000000000000000000000000000000000000000000000000000000000000000000000000000000000000000000000001503201700000000            000000000000000                              000                           
0010001300167T 020180230000002544776 29647041308506609   7               17032017000000000008000001012467                         0900000000000010000000000000000000000000000000000000000   0000000000000000000000000A9        170192964704     
0010001300168U 020000000000000000000000000000000000000000000000000000000000000000000000000000000000000000000000000000000000000000000000001503201700000000            000000000000000                              000                           
0010001300169T 020180230000002544776 29647041308626295   7               18032017000000000006000001014362                         0900000000000010000000000000000000000000000000000000000   0000000000000000000000000A9        170192964704     
0010001300170U 020000000000000000000000000000000000000000000000000000000000000000000000000000000000000000000000000000000000000000000000001603201700000000            000000000000000                              000                           
0010001300171T 020180230000002544776 29647041308820964   7               18032017000000000006000001018376                         0900000000000010000000000000000000000000000000000000000   0000000000000000000000000A9        170192964704     
0010001300172U 020000000000000000000000000000000000000000000000000000000000000000000000000000000000000000000000000000000000000000000000001603201700000000            000000000000000                              000                           
0010001300173T 020180230000002544776 29647041309532243   7               18032017000000000006000001033316                         0900000000000010000000000000000000000000000000000000000   0000000000000000000000000A9        170192964704     
0010001300174U 020000000000000000000000000000000000000000000000000000000000000000000000000000000000000000000000000000000000000000000000001603201700000000            000000000000000                              000                           
0010001300175T 020180230000002544776 29647041309610607   7               18032017000000000006000001000132                         0900000000000010000000000000000000000000000000000000000   0000000000000000000000000A9        170192964704     
0010001300176U 020000000000000000000000000000000000000000000000000000000000000000000000000000000000000000000000000000000000000000000000001603201700000000            000000000000000                              000                           
0010001300177T 020180230000002544776 29647041309614037   7               18032017000000000006000001000132                         0900000000000010000000000000000000000000000000000000000   0000000000000000000000000A9        170192964704     
0010001300178U 020000000000000000000000000000000000000000000000000000000000000000000000000000000000000000000000000000000000000000000000001603201700000000            000000000000000                              000                           
0010001300179T 020180230000002544776 29647041309707046   7               18032017000000000006000001012629                         0900000000000010000000000000000000000000000000000000000   0000000000000000000000000A9        170192964704     
0010001300180U 020000000000000000000000000000000000000000000000000000000000000000000000000000000000000000000000000000000000000000000000001603201700000000            000000000000000                              000                           
0010001300181T 020180230000002544776 29647041309944509   7               18032017000000000006000001016179                         0900000000000010000000000000000000000000000000000000000   0000000000000000000000000A9        170192964704     
0010001300182U 020000000000000000000000000000000000000000000000000000000000000000000000000000000000000000000000000000000000000000000000001603201700000000            000000000000000                              000                           
0010001300183T 020180230000002544776 29647041310001929   7               18032017000000000006000001028029                         0900000000000010000000000000000000000000000000000000000   0000000000000000000000000A9        170192964704     
0010001300184U 020000000000000000000000000000000000000000000000000000000000000000000000000000000000000000000000000000000000000000000000001603201700000000            000000000000000                              000                           
0010001300185T 020180230000002544776 29647041310101533   7               18032017000000000006000001008702                         0900000000000010000000000000000000000000000000000000000   0000000000000000000000000A9        170192964704     
0010001300186U 020000000000000000000000000000000000000000000000000000000000000000000000000000000000000000000000000000000000000000000000001603201700000000            000000000000000                              000                           
0010001300187T 020180230000002544776 29647041310229537   7               18032017000000000006000001028029                         0900000000000010000000000000000000000000000000000000000   0000000000000000000000000A9        170192964704     
0010001300188U 020000000000000000000000000000000000000000000000000000000000000000000000000000000000000000000000000000000000000000000000001603201700000000            000000000000000                              000                           
0010001300189T 020180230000002544776 29647041310324686   7               18032017000000000006000001007145                         0900000000000010000000000000000000000000000000000000000   0000000000000000000000000A9        170192964704     
0010001300190U 020000000000000000000000000000000000000000000000000000000000000000000000000000000000000000000000000000000000000000000000001603201700000000            000000000000000                              000                           
0010001300191T 020180230000002544776 29647041310354976   7               18032017000000000006000001007145                         0900000000000010000000000000000000000000000000000000000   0000000000000000000000000A9        170192964704     
0010001300192U 020000000000000000000000000000000000000000000000000000000000000000000000000000000000000000000000000000000000000000000000001603201700000000            000000000000000                              000                           
0010001300193T 020180230000002544776 29647041310648183   7               18032017000000000008000001012467                         0900000000000010000000000000000000000000000000000000000   0000000000000000000000000A9        170192964704     
0010001300194U 020000000000000000000000000000000000000000000000000000000000000000000000000000000000000000000000000000000000000000000000001603201700000000            000000000000000                              000                           
0010001300195T 020180230000002544776 29647041310726777   7               18032017000000000006000001016179                         0900000000000010000000000000000000000000000000000000000   0000000000000000000000000A9        170192964704     
0010001300196U 020000000000000000000000000000000000000000000000000000000000000000000000000000000000000000000000000000000000000000000000001603201700000000            000000000000000                              000                           
0010001300197T 020180230000002544776 29647041310835220   7               18032017000000000006000001033316                         0900000000000010000000000000000000000000000000000000000   0000000000000000000000000A9        170192964704     
0010001300198U 020000000000000000000000000000000000000000000000000000000000000000000000000000000000000000000000000000000000000000000000001603201700000000            000000000000000                              000                           
0010001300199T 020180230000002544776 29647041310907146   7               18032017000000000006000001021385                         0900000000000010000000000000000000000000000000000000000   0000000000000000000000000A9        170192964704     
0010001300200U 020000000000000000000000000000000000000000000000000000000000000000000000000000000000000000000000000000000000000000000000001603201700000000            000000000000000                              000                           
0010001300201T 020180230000002544776 29647041310928885   7               18032017000000000006000001021385                         0900000000000010000000000000000000000000000000000000000   0000000000000000000000000A9        170192964704     
0010001300202U 020000000000000000000000000000000000000000000000000000000000000000000000000000000000000000000000000000000000000000000000001603201700000000            000000000000000                              000                           
0010001300203T 020180230000002544776 29647041311202914   7               18032017000000000006000001000132                         0900000000000010000000000000000000000000000000000000000   0000000000000000000000000A9        170192964704     
0010001300204U 020000000000000000000000000000000000000000000000000000000000000000000000000000000000000000000000000000000000000000000000001603201700000000            000000000000000                              000                           
0010001300205T 020180230000002544776 29647041311212913   7               18032017000000000006000001000132                         0900000000000010000000000000000000000000000000000000000   0000000000000000000000000A9        170192964704     
0010001300206U 020000000000000000000000000000000000000000000000000000000000000000000000000000000000000000000000000000000000000000000000001603201700000000            000000000000000                              000                           
0010001300207T 020180230000002544776 29647041311305095   7               18032017000000000006000001010421                         0900000000000010000000000000000000000000000000000000000   0000000000000000000000000A9        170192964704     
0010001300208U 020000000000000000000000000000000000000000000000000000000000000000000000000000000000000000000000000000000000000000000000001603201700000000            000000000000000                              000                           
0010001300209T 020180230000002544776 29647041311317541   7               18032017000000000006000001010421                         0900000000000010000000000000000000000000000000000000000   0000000000000000000000000A9        170192964704     
0010001300210U 020000000000000000000000000000000000000000000000000000000000000000000000000000000000000000000000000000000000000000000000001603201700000000            000000000000000                              000                           
0010001300211T 020180230000002544776 29647041311408057   7               18032017000000000008000001012467                         0900000000000010000000000000000000000000000000000000000   0000000000000000000000000A9        170192964704     
0010001300212U 020000000000000000000000000000000000000000000000000000000000000000000000000000000000000000000000000000000000000000000000001603201700000000            000000000000000                              000                           
0010001300213T 020180230000002544776 29647041311535998   7               18032017000000000006000001002208                         0900000000000010000000000000000000000000000000000000000   0000000000000000000000000A9        170192964704     
0010001300214U 020000000000000000000000000000000000000000000000000000000000000000000000000000000000000000000000000000000000000000000000001603201700000000            000000000000000                              000                           
0010001300215T 020180230000002544776 29647041311639887   7               18032017000000000006000001000132                         0900000000000010000000000000000000000000000000000000000   0000000000000000000000000A9        170192964704     
0010001300216U 020000000000000000000000000000000000000000000000000000000000000000000000000000000000000000000000000000000000000000000000001603201700000000            000000000000000                              000                           
0010001300217T 020180230000002544776 29647041311820707   7               18032017000000000006000001016179                         0900000000000010000000000000000000000000000000000000000   0000000000000000000000000A9        170192964704     
0010001300218U 020000000000000000000000000000000000000000000000000000000000000000000000000000000000000000000000000000000000000000000000001603201700000000            000000000000000                              000                           
0010001300219T 020180230000002544776 29647041311937478   7               18032017000000000006000001016179                         0900000000000010000000000000000000000000000000000000000   0000000000000000000000000A9        170192964704     
0010001300220U 020000000000000000000000000000000000000000000000000000000000000000000000000000000000000000000000000000000000000000000000001603201700000000            000000000000000                              000                           
0010001300221T 020180230000002544776 29647041312105924   7               18032017000000000006000001016179                         0900000000000010000000000000000000000000000000000000000   0000000000000000000000000A9        170192964704     
0010001300222U 020000000000000000000000000000000000000000000000000000000000000000000000000000000000000000000000000000000000000000000000001603201700000000            000000000000000                              000                           
0010001300223T 020180230000002544776 29647041312152265   7               18032017000000000006000001016179                         0900000000000010000000000000000000000000000000000000000   0000000000000000000000000A9        170192964704     
0010001300224U 020000000000000000000000000000000000000000000000000000000000000000000000000000000000000000000000000000000000000000000000001603201700000000            000000000000000                              000                           
0010001300225T 020180230000002544776 29647041312226494   7               18032017000000000006000001033316                         0900000000000010500000000000000000000000000000000000000   0000000000000000000000000A9A4      170192964704     
0010001300226U 020000000000000000000000000000000000000000000000000000000000000000000000000000000000000000000000000000000000000000000000001603201700000000            000000000000000                              000                           
0010001300227T 020180230000002544776 29647041312314806   7               18032017000000000006000001008214                         0900000000000010000000000000000000000000000000000000000   0000000000000000000000000A9        170192964704     
0010001300228U 020000000000000000000000000000000000000000000000000000000000000000000000000000000000000000000000000000000000000000000000001603201700000000            000000000000000                              000                           
0010001300229T 020180230000002544776 29647041312422273   7               18032017000000000006000001018376                         0900000000000010000000000000000000000000000000000000000   0000000000000000000000000A9        170192964704     
0010001300230U 020000000000000000000000000000000000000000000000000000000000000000000000000000000000000000000000000000000000000000000000001603201700000000            000000000000000                              000                           
0010001300231T 020180230000002544776 29647041312506899   7               18032017000000000006000001002208                         0900000000000010000000000000000000000000000000000000000   0000000000000000000000000A9        170192964704     
0010001300232U 020000000000000000000000000000000000000000000000000000000000000000000000000000000000000000000000000000000000000000000000001603201700000000            000000000000000                              000                           
0010001300233T 020180230000002544776 29647041312854152   7               18032017000000000006000001016179                         0900000000000010000000000000000000000000000000000000000   0000000000000000000000000A9        170192964704     
0010001300234U 020000000000000000000000000000000000000000000000000000000000000000000000000000000000000000000000000000000000000000000000001603201700000000            000000000000000                              000                           
0010001300235T 020180230000002544776 29647041313159829   7               18032017000000000006000001028029                         0900000000000010000000000000000000000000000000000000000   0000000000000000000000000A9        170192964704     
0010001300236U 020000000000000000000000000000000000000000000000000000000000000000000000000000000000000000000000000000000000000000000000001603201700000000            000000000000000                              000                           
0010001300237T 020180230000002544776 29647041313237544   7               18032017000000000006000001000132                         0900000000000010000000000000000000000000000000000000000   0000000000000000000000000A9        170192964704     
0010001300238U 020000000000000000000000000000000000000000000000000000000000000000000000000000000000000000000000000000000000000000000000001603201700000000            000000000000000                              000                           
0010001300239T 020180230000002544776 29647041313304645   7               18032017000000000006000001028029                         0900000000000010000000000000000000000000000000000000000   0000000000000000000000000A9        170192964704     
0010001300240U 020000000000000000000000000000000000000000000000000000000000000000000000000000000000000000000000000000000000000000000000001603201700000000            000000000000000                              000                           
0010001300241T 020180230000002544776 29647041313755326   7               18032017000000000006000001028029                         0900000000000010000000000000000000000000000000000000000   0000000000000000000000000A9        170192964704     
0010001300242U 020000000000000000000000000000000000000000000000000000000000000000000000000000000000000000000000000000000000000000000000001603201700000000            000000000000000                              000                           
0010001300243T 020180230000002544776 29647041313819724   7               18032017000000000006000001009636                         0900000000000010000000000000000000000000000000000000000   0000000000000000000000000A9        170192964704     
0010001300244U 020000000000000000000000000000000000000000000000000000000000000000000000000000000000000000000000000000000000000000000000001603201700000000            000000000000000                              000                           
0010001300245T 020180230000002544776 29647041314048329   7               18032017000000000006000001028029                         0900000000000010000000000000000000000000000000000000000   0000000000000000000000000A9        170192964704     
0010001300246U 020000000000000000000000000000000000000000000000000000000000000000000000000000000000000000000000000000000000000000000000001603201700000000            000000000000000                              000                           
0010001300247T 020180230000002544776 29647041314225984   7               18032017000000000008000001000132                         0900000000000010000000000000000000000000000000000000000   0000000000000000000000000A9        170192964704     
0010001300248U 020000000000000000000000000000000000000000000000000000000000000000000000000000000000000000000000000000000000000000000000001603201700000000            000000000000000                              000                           
0010001300249T 020180230000002544776 29647041314302294   7               18032017000000000006000001018376                         0900000000000010000000000000000000000000000000000000000   0000000000000000000000000A9        170192964704     
0010001300250U 020000000000000000000000000000000000000000000000000000000000000000000000000000000000000000000000000000000000000000000000001603201700000000            000000000000000                              000                           
0010001300251T 020180230000002544776 29647041314335170   7               18032017000000000006000001018376                         0900000000000010000000000000000000000000000000000000000   0000000000000000000000000A9        170192964704     
0010001300252U 020000000000000000000000000000000000000000000000000000000000000000000000000000000000000000000000000000000000000000000000001603201700000000            000000000000000                              000                           
0010001300253T 020180230000002544776 29647041314517069   7               18032017000000000006000001016810                         0900000000000010000000000000000000000000000000000000000   0000000000000000000000000A9        170192964704     
0010001300254U 020000000000000000000000000000000000000000000000000000000000000000000000000000000000000000000000000000000000000000000000001603201700000000            000000000000000                              000                           
0010001300255T 020180230000002544776 29647041314631451   7               18032017000000000006000001012467                         0900000000000010000000000000000000000000000000000000000   0000000000000000000000000A9        170192964704     
0010001300256U 020000000000000000000000000000000000000000000000000000000000000000000000000000000000000000000000000000000000000000000000001603201700000000            000000000000000                              000                           
0010001300257T 020180230000002544776 29647041314726970   7               18032017000000000006000001012688                         0900000000000010000000000000000000000000000000000000000   0000000000000000000000000A9        170192964704     
0010001300258U 020000000000000000000000000000000000000000000000000000000000000000000000000000000000000000000000000000000000000000000000001603201700000000            000000000000000                              000                           
0010001300259T 020180230000002544776 29647041314939253   7               18032017000000000006000001012467                         0900000000000010000000000000000000000000000000000000000   0000000000000000000000000A9        170192964704     
0010001300260U 020000000000000000000000000000000000000000000000000000000000000000000000000000000000000000000000000000000000000000000000001603201700000000            000000000000000                              000                           
0010001300261T 020180230000002544776 29647041315119450   7               18032017000000000006000001016179                         0900000000000010000000000000000000000000000000000000000   0000000000000000000000000A9        170192964704     
0010001300262U 020000000000000000000000000000000000000000000000000000000000000000000000000000000000000000000000000000000000000000000000001603201700000000            000000000000000                              000                           
0010001300263T 020180230000002544776 29647041315259903   7               18032017000000000006000001020354                         0900000000000010000000000000000000000000000000000000000   0000000000000000000000000A9        170192964704     
0010001300264U 020000000000000000000000000000000000000000000000000000000000000000000000000000000000000000000000000000000000000000000000001603201700000000            000000000000000                              000                           
0010001300265T 020180230000002544776 29647041315327079   7               18032017000000000006000001010421                         0900000000000010500000000000000000000000000000000000000   0000000000000000000000000A9A4      170192964704     
0010001300266U 020000000000000000000000000000000000000000000000000000000000000000000000000000000000000000000000000000000000000000000000001603201700000000            000000000000000                              000                           
0010001300267T 020180230000002544776 29647041315438488   7               18032017000000000006000001002283                         0900000000000010000000000000000000000000000000000000000   0000000000000000000000000A9        170192964704     
0010001300268U 020000000000000000000000000000000000000000000000000000000000000000000000000000000000000000000000000000000000000000000000001603201700000000            000000000000000                              000                           
0010001300269T 020180230000002544776 29647041315442787   7               18032017000000000006000001002283                         0900000000000010000000000000000000000000000000000000000   0000000000000000000000000A9        170192964704     
0010001300270U 020000000000000000000000000000000000000000000000000000000000000000000000000000000000000000000000000000000000000000000000001603201700000000            000000000000000                              000                           
0010001300271T 020180230000002544776 29647041315555409   7               18032017000000000008000001000132                         0900000000000010000000000000000000000000000000000000000   0000000000000000000000000A9        170192964704     
0010001300272U 020000000000000000000000000000000000000000000000000000000000000000000000000000000000000000000000000000000000000000000000001603201700000000            000000000000000                              000                           
0010001300273T 020180230000002544776 29647041315557940   7               18032017000000000008000001000132                         0900000000000010000000000000000000000000000000000000000   0000000000000000000000000A9        170192964704     
0010001300274U 020000000000000000000000000000000000000000000000000000000000000000000000000000000000000000000000000000000000000000000000001603201700000000            000000000000000                              000                           
0010001300275T 020180230000002544776 29647041315741776   7               18032017000000000008000001003018                         0900000000000010000000000000000000000000000000000000000   0000000000000000000000000A9        170192964704     
0010001300276U 020000000000000000000000000000000000000000000000000000000000000000000000000000000000000000000000000000000000000000000000001603201700000000            000000000000000                              000                           
0010001300277T 020180230000002544776 29647041315822886   7               1803201700000000000600000101219X                         0900000000000010000000000000000000000000000000000000000   0000000000000000000000000A9        170192964704     
0010001300278U 020000000000000000000000000000000000000000000000000000000000000000000000000000000000000000000000000000000000000000000000001603201700000000            000000000000000                              000                           
0010001300279T 020180230000002544776 29647041315955251   7               18032017000000000006000001023655                         0900000000000010000000000000000000000000000000000000000   0000000000000000000000000A9        170192964704     
0010001300280U 020000000000000000000000000000000000000000000000000000000000000000000000000000000000000000000000000000000000000000000000001603201700000000            000000000000000                              000                           
0010001300281T 020180230000002544776 29647041316013310   7               18032017000000000008000001033316                         0900000000000010000000000000000000000000000000000000000   0000000000000000000000000A9        170192964704     
0010001300282U 020000000000000000000000000000000000000000000000000000000000000000000000000000000000000000000000000000000000000000000000001603201700000000            000000000000000                              000                           
0010001300283T 020180230000002544776 29647041316140559   7               18032017000000000006000001016179                         0900000000000010000000000000000000000000000000000000000   0000000000000000000000000A9        170192964704     
0010001300284U 020000000000000000000000000000000000000000000000000000000000000000000000000000000000000000000000000000000000000000000000001603201700000000            000000000000000                              000                           
0010001300285T 020180230000002544776 29647041316237531   7               18032017000000000006000001033316                         0900000000000010000000000000000000000000000000000000000   0000000000000000000000000A9        170192964704     
0010001300286U 020000000000000000000000000000000000000000000000000000000000000000000000000000000000000000000000000000000000000000000000001603201700000000            000000000000000                              000                           
0010001300287T 020180230000002544776 29647041316349145   7               18032017000000000006000001023353                         0900000000000010000000000000000000000000000000000000000   0000000000000000000000000A9        170192964704     
0010001300288U 020000000000000000000000000000000000000000000000000000000000000000000000000000000000000000000000000000000000000000000000001603201700000000            000000000000000                              000                           
0010001300289T 020180230000002544776 29647041316512354   7               18032017000000000006000001000132                         0900000000000010000000000000000000000000000000000000000   0000000000000000000000000A9        170192964704     
0010001300290U 020000000000000000000000000000000000000000000000000000000000000000000000000000000000000000000000000000000000000000000000001603201700000000            000000000000000                              000                           
0010001300291T 020180230000002544776 29647041316728961   7               18032017000000000006000001000132                         0900000000000010000000000000000000000000000000000000000   0000000000000000000000000A9        170192964704     
0010001300292U 020000000000000000000000000000000000000000000000000000000000000000000000000000000000000000000000000000000000000000000000001603201700000000            000000000000000                              000                           
0010001300293T 020180230000002544776 29647041316850706   7               18032017000000000006000001012467                         0900000000000010000000000000000000000000000000000000000   0000000000000000000000000A9        170192964704     
0010001300294U 020000000000000000000000000000000000000000000000000000000000000000000000000000000000000000000000000000000000000000000000001603201700000000            000000000000000                              000                           
0010001300295T 020180230000002544776 29647041316944212   7               18032017000000000006000001018376                         0900000000000010000000000000000000000000000000000000000   0000000000000000000000000A9        170192964704     
0010001300296U 020000000000000000000000000000000000000000000000000000000000000000000000000000000000000000000000000000000000000000000000001603201700000000            000000000000000                              000                           
0010001300297T 020180230000002544776 29647041316956396   7               18032017000000000006000001018376                         0900000000000010000000000000000000000000000000000000000   0000000000000000000000000A9        170192964704     
0010001300298U 020000000000000000000000000000000000000000000000000000000000000000000000000000000000000000000000000000000000000000000000001603201700000000            000000000000000                              000                           
0010001300299T 020180230000002544776 29647041317030194   7               18032017000000000006000001026999                         0900000000000010000000000000000000000000000000000000000   0000000000000000000000000A9        170192964704     
0010001300300U 020000000000000000000000000000000000000000000000000000000000000000000000000000000000000000000000000000000000000000000000001603201700000000            000000000000000                              000                           
0010001300301T 020180230000002544776 29647041317044447   7               18032017000000000006000001026999                         0900000000000010000000000000000000000000000000000000000   0000000000000000000000000A9        170192964704     
0010001300302U 020000000000000000000000000000000000000000000000000000000000000000000000000000000000000000000000000000000000000000000000001603201700000000            000000000000000                              000                           
0010001300303T 020180230000002544776 29647041317132014   7               18032017000000000006000001012467                         0900000000000010000000000000000000000000000000000000000   0000000000000000000000000A9        170192964704     
0010001300304U 020000000000000000000000000000000000000000000000000000000000000000000000000000000000000000000000000000000000000000000000001603201700000000            000000000000000                              000                           
0010001300305T 020180230000002544776 29647041317420647   7               18032017000000000006000001001597                         0900000000000010000000000000000000000000000000000000000   0000000000000000000000000A9        170192964704     
0010001300306U 020000000000000000000000000000000000000000000000000000000000000000000000000000000000000000000000000000000000000000000000001603201700000000            000000000000000                              000                           
0010001300307T 020180230000002544776 29647041317629074   7               18032017000000000006000001024449                         0900000000000010000000000000000000000000000000000000000   0000000000000000000000000A9        170192964704     
0010001300308U 020000000000000000000000000000000000000000000000000000000000000000000000000000000000000000000000000000000000000000000000001603201700000000            000000000000000                              000                           
0010001300309T 020180230000002544776 29647041317827251   7               18032017000000000006000001005770                         0900000000000010000000000000000000000000000000000000000   0000000000000000000000000A9        170192964704     
0010001300310U 020000000000000000000000000000000000000000000000000000000000000000000000000000000000000000000000000000000000000000000000001603201700000000            000000000000000                              000                           
0010001300311T 020180230000002544776 29647041317956160   7               18032017000000000006000001016179                         0900000000000010000000000000000000000000000000000000000   0000000000000000000000000A9        170192964704     
0010001300312U 020000000000000000000000000000000000000000000000000000000000000000000000000000000000000000000000000000000000000000000000001603201700000000            000000000000000                              000                           
0010001300313T 020180230000002544776 29647041318151672   7               18032017000000000006000001016179                         0900000000000010000000000000000000000000000000000000000   0000000000000000000000000A9        170192964704     
0010001300314U 020000000000000000000000000000000000000000000000000000000000000000000000000000000000000000000000000000000000000000000000001603201700000000            000000000000000                              000                           
0010001300315T 020180230000002544776 29647041318229917   7               18032017000000000006000001016179                         0900000000000010000000000000000000000000000000000000000   0000000000000000000000000A9        170192964704     
0010001300316U 020000000000000000000000000000000000000000000000000000000000000000000000000000000000000000000000000000000000000000000000001603201700000000            000000000000000                              000                           
0010001300317T 020180230000002544776 29647041318312967   7               18032017000000000006000001022527                         0900000000000010000000000000000000000000000000000000000   0000000000000000000000000A9        170192964704     
0010001300318U 020000000000000000000000000000000000000000000000000000000000000000000000000000000000000000000000000000000000000000000000001603201700000000            000000000000000                              000                           
0010001300319T 020180230000002544776 29647041318406170   7               18032017000000000008000001028029                         0900000000000010000000000000000000000000000000000000000   0000000000000000000000000A9        170192964704     
0010001300320U 020000000000000000000000000000000000000000000000000000000000000000000000000000000000000000000000000000000000000000000000001603201700000000            000000000000000                              000                           
0010001300321T 020180230000002544776 29647041318422612   7               18032017000000000008000001028029                         0900000000000010000000000000000000000000000000000000000   0000000000000000000000000A9        170192964704     
0010001300322U 020000000000000000000000000000000000000000000000000000000000000000000000000000000000000000000000000000000000000000000000001603201700000000            000000000000000                              000                           
0010001300323T 020180230000002544776 29647041318559578   7               18032017000000000006000001033316                         0900000000000010000000000000000000000000000000000000000   0000000000000000000000000A9        170192964704     
0010001300324U 020000000000000000000000000000000000000000000000000000000000000000000000000000000000000000000000000000000000000000000000001603201700000000            000000000000000                              000                           
0010001300325T 020180230000002544776 29647041318626322   7               18032017000000000006000001028029                         0900000000000010000000000000000000000000000000000000000   0000000000000000000000000A9        170192964704     
0010001300326U 020000000000000000000000000000000000000000000000000000000000000000000000000000000000000000000000000000000000000000000000001603201700000000            000000000000000                              000                           
0010001300327T 020180230000002544776 29647041318631868   7               18032017000000000006000001028029                         0900000000000010000000000000000000000000000000000000000   0000000000000000000000000A9        170192964704     
0010001300328U 020000000000000000000000000000000000000000000000000000000000000000000000000000000000000000000000000000000000000000000000001603201700000000            000000000000000                              000                           
0010001300329T 020180230000002544776 29647041318634161   7               18032017000000000006000001028029                         0900000000000010000000000000000000000000000000000000000   0000000000000000000000000A9        170192964704     
0010001300330U 020000000000000000000000000000000000000000000000000000000000000000000000000000000000000000000000000000000000000000000000001603201700000000            000000000000000                              000                           
0010001300331T 020180230000002544776 29647041318646045   7               18032017000000000006000001028029                         0900000000000010000000000000000000000000000000000000000   0000000000000000000000000A9        170192964704     
0010001300332U 020000000000000000000000000000000000000000000000000000000000000000000000000000000000000000000000000000000000000000000000001603201700000000            000000000000000                              000                           
0010001300333T 020180230000002544776 29647041318751383   7               18032017000000000006000001022527                         0900000000000010000000000000000000000000000000000000000   0000000000000000000000000A9        170192964704     
0010001300334U 020000000000000000000000000000000000000000000000000000000000000000000000000000000000000000000000000000000000000000000000001603201700000000            000000000000000                              000                           
0010001300335T 020180230000002544776 29647041318914704   7               18032017000000000006000001028029                         0900000000000010000000000000000000000000000000000000000   0000000000000000000000000A9        170192964704     
0010001300336U 020000000000000000000000000000000000000000000000000000000000000000000000000000000000000000000000000000000000000000000000001603201700000000            000000000000000                              000                           
0010001300337T 020180230000002544776 29647041318935370   7               18032017000000000006000001028029                         0900000000000010000000000000000000000000000000000000000   0000000000000000000000000A9        170192964704     
0010001300338U 020000000000000000000000000000000000000000000000000000000000000000000000000000000000000000000000000000000000000000000000001603201700000000            000000000000000                              000                           
0010001300339T 020180230000002544776 29647041319018820   7               18032017000000000006000001008214                         0900000000000010000000000000000000000000000000000000000   0000000000000000000000000A9        170192964704     
0010001300340U 020000000000000000000000000000000000000000000000000000000000000000000000000000000000000000000000000000000000000000000000001603201700000000            000000000000000                              000                           
0010001300341T 020180230000002544776 29647041319141234   7               18032017000000000006000001016179                         0900000000000010000000000000000000000000000000000000000   0000000000000000000000000A9        170192964704     
0010001300342U 020000000000000000000000000000000000000000000000000000000000000000000000000000000000000000000000000000000000000000000000001603201700000000            000000000000000                              000                           
0010001300343T 020180230000002544776 29647041319204516   7               18032017000000000006000001018376                         0900000000000010000000000000000000000000000000000000000   0000000000000000000000000A9        170192964704     
0010001300344U 020000000000000000000000000000000000000000000000000000000000000000000000000000000000000000000000000000000000000000000000001603201700000000            000000000000000                              000                           
0010001300345T 020180230000002544776 29647041319259792   7               18032017000000000006000001018376                         0900000000000010000000000000000000000000000000000000000   0000000000000000000000000A9        170192964704     
0010001300346U 020000000000000000000000000000000000000000000000000000000000000000000000000000000000000000000000000000000000000000000000001603201700000000            000000000000000                              000                           
0010001300347T 020180230000002544776 29647041319313846   7               18032017000000000006000001025089                         0900000000000010000000000000000000000000000000000000000   0000000000000000000000000A9        170192964704     
0010001300348U 020000000000000000000000000000000000000000000000000000000000000000000000000000000000000000000000000000000000000000000000001603201700000000            000000000000000                              000                           
0010001300349T 020180230000002544776 29647041319439370   7               18032017000000000006000001018376                         0900000000000010000000000000000000000000000000000000000   0000000000000000000000000A9        170192964704     
0010001300350U 020000000000000000000000000000000000000000000000000000000000000000000000000000000000000000000000000000000000000000000000001603201700000000            000000000000000                              000                           
0010001300351T 020180230000002544776 29647041319532805   7               18032017000000000006000001001201                         0900000000000010500000000000000000000000000000000000000   0000000000000000000000000A9A4      170192964704     
0010001300352U 020000000000000000000000000000000000000000000000000000000000000000000000000000000000000000000000000000000000000000000000001603201700000000            000000000000000                              000                           
0010001300353T 020180230000002544776 29647041319647575   7               18032017000000000006000001018376                         0900000000000010500000000000000000000000000000000000000   0000000000000000000000000A9A4      170192964704     
0010001300354U 020000000000000000000000000000000000000000000000000000000000000000000000000000000000000000000000000000000000000000000000001603201700000000            000000000000000                              000                           
0010001300355T 020180230000002544776 29647041319815841   7               18032017000000000006000001016179                         0900000000000010500000000000000000000000000000000000000   0000000000000000000000000A9A4      170192964704     
0010001300356U 020000000000000000000000000000000000000000000000000000000000000000000000000000000000000000000000000000000000000000000000001603201700000000            000000000000000                              000                           
0010001300357T 020180230000002544776 29647041319934990   7               18032017000000000006000001033316                         0900000000000010000000000000000000000000000000000000000   0000000000000000000000000A9        170192964704     
0010001300358U 020000000000000000000000000000000000000000000000000000000000000000000000000000000000000000000000000000000000000000000000001603201700000000            000000000000000                              000                           
0010001300359T 020180230000002544776 29647041320052345   7               1803201700000000000600000100944X                         0900000000000010000000000000000000000000000000000000000   0000000000000000000000000A9        170192964704     
0010001300360U 020000000000000000000000000000000000000000000000000000000000000000000000000000000000000000000000000000000000000000000000001603201700000000            000000000000000                              000                           
0010001300361T 020180230000002544776 29647041320121544   7               18032017000000000008000001004774                         0900000000000010000000000000000000000000000000000000000   0000000000000000000000000A9        170192964704     
0010001300362U 020000000000000000000000000000000000000000000000000000000000000000000000000000000000000000000000000000000000000000000000001603201700000000            000000000000000                              000                           
0010001300363T 020180230000002544776 29647041320205168   7               18032017000000000006000001033316                         0900000000000010000000000000000000000000000000000000000   0000000000000000000000000A9        170192964704     
0010001300364U 020000000000000000000000000000000000000000000000000000000000000000000000000000000000000000000000000000000000000000000000001603201700000000            000000000000000                              000                           
0010001300365T 020180230000002544776 29647041320205612   7               18032017000000000006000001033316                         0900000000000010000000000000000000000000000000000000000   0000000000000000000000000A9        170192964704     
0010001300366U 020000000000000000000000000000000000000000000000000000000000000000000000000000000000000000000000000000000000000000000000001603201700000000            000000000000000                              000                           
0010001300367T 020180230000002544776 29647041320340555   7               18032017000000000006000001028029                         0900000000000010000000000000000000000000000000000000000   0000000000000000000000000A9        170192964704     
0010001300368U 020000000000000000000000000000000000000000000000000000000000000000000000000000000000000000000000000000000000000000000000001603201700000000            000000000000000                              000                           
0010001300369T 020180230000002544776 29647041320437771   7               18032017000000000006000001033316                         0900000000000010000000000000000000000000000000000000000   0000000000000000000000000A9        170192964704     
0010001300370U 020000000000000000000000000000000000000000000000000000000000000000000000000000000000000000000000000000000000000000000000001603201700000000            000000000000000                              000                           
0010001300371T 020180230000002544776 29647041320558685   7               18032017000000000006000001016179                         0900000000000010500000000000000000000000000000000000000   0000000000000000000000000A9A4      170192964704     
0010001300372U 020000000000000000000000000000000000000000000000000000000000000000000000000000000000000000000000000000000000000000000000001603201700000000            000000000000000                              000                           
0010001300373T 020180230000002544776 29647041320804414   7               18032017000000000008000001028495                         0900000000000010000000000000000000000000000000000000000   0000000000000000000000000A9        170192964704     
0010001300374U 020000000000000000000000000000000000000000000000000000000000000000000000000000000000000000000000000000000000000000000000001603201700000000            000000000000000                              000                           
0010001300375T 020180230000002544776 29647041320823539   7               18032017000000000008000001028495                         0900000000000010000000000000000000000000000000000000000   0000000000000000000000000A9        170192964704     
0010001300376U 020000000000000000000000000000000000000000000000000000000000000000000000000000000000000000000000000000000000000000000000001603201700000000            000000000000000                              000                           
0010001300377T 020180230000002544776 29647041320909722   7               18032017000000000006000001013625                         0900000000000010000000000000000000000000000000000000000   0000000000000000000000000A9        170192964704     
0010001300378U 020000000000000000000000000000000000000000000000000000000000000000000000000000000000000000000000000000000000000000000000001603201700000000            000000000000000                              000                           
0010001300379T 020180230000002544776 29647041321034641   7               18032017000000000006000001020354                         0900000000000010000000000000000000000000000000000000000   0000000000000000000000000A9        170192964704     
0010001300380U 020000000000000000000000000000000000000000000000000000000000000000000000000000000000000000000000000000000000000000000000001603201700000000            000000000000000                              000                           
0010001300381T 020180230000002544776 29647041321213523   7               18032017000000000006000001008346                         0900000000000010000000000000000000000000000000000000000   0000000000000000000000000A9        170192964704     
0010001300382U 020000000000000000000000000000000000000000000000000000000000000000000000000000000000000000000000000000000000000000000000001603201700000000            000000000000000                              000                           
0010001300383T 020180230000002544776 29647041321215127   7               18032017000000000006000001008346                         0900000000000010000000000000000000000000000000000000000   0000000000000000000000000A9        170192964704     
0010001300384U 020000000000000000000000000000000000000000000000000000000000000000000000000000000000000000000000000000000000000000000000001603201700000000            000000000000000                              000                           
0010001300385T 020180230000002544776 29647041321222359   7               18032017000000000006000001008346                         0900000000000010000000000000000000000000000000000000000   0000000000000000000000000A9        170192964704     
0010001300386U 020000000000000000000000000000000000000000000000000000000000000000000000000000000000000000000000000000000000000000000000001603201700000000            000000000000000                              000                           
0010001300387T 020180230000002544776 29647041321352794   7               18032017000000000006000001000132                         0900000000000010000000000000000000000000000000000000000   0000000000000000000000000A9        170192964704     
0010001300388U 020000000000000000000000000000000000000000000000000000000000000000000000000000000000000000000000000000000000000000000000001603201700000000            000000000000000                              000                           
0010001300389T 020180230000002544776 29647041321418192   7               18032017000000000006000001016179                         0900000000000010000000000000000000000000000000000000000   0000000000000000000000000A9        170192964704     
0010001300390U 020000000000000000000000000000000000000000000000000000000000000000000000000000000000000000000000000000000000000000000000001603201700000000            000000000000000                              000                           
0010001300391T 020180230000002544776 29647041321552161   7               18032017000000000006000001016179                         0900000000000010500000000000000000000000000000000000000   0000000000000000000000000A9A4      170192964704     
0010001300392U 020000000000000000000000000000000000000000000000000000000000000000000000000000000000000000000000000000000000000000000000001603201700000000            000000000000000                              000                           
0010001300393T 020180230000002544776 29647041321704059   7               18032017000000000006000001009636                         0900000000000010000000000000000000000000000000000000000   0000000000000000000000000A9        170192964704     
0010001300394U 020000000000000000000000000000000000000000000000000000000000000000000000000000000000000000000000000000000000000000000000001603201700000000            000000000000000                              000                           
0010001300395T 020180230000002544776 29647041321744865   7               18032017000000000006000001009636                         0900000000000010000000000000000000000000000000000000000   0000000000000000000000000A9        170192964704     
0010001300396U 020000000000000000000000000000000000000000000000000000000000000000000000000000000000000000000000000000000000000000000000001603201700000000            000000000000000                              000                           
0010001300397T 020180230000002544776 29647041321847652   7               18032017000000000006000001020354                         0900000000000010000000000000000000000000000000000000000   0000000000000000000000000A9        170192964704     
0010001300398U 020000000000000000000000000000000000000000000000000000000000000000000000000000000000000000000000000000000000000000000000001603201700000000            000000000000000                              000                           
0010001300399T 020180230000002544776 29647041321916808   7               18032017000000000006000001028029                         0900000000000010000000000000000000000000000000000000000   0000000000000000000000000A9        170192964704     
0010001300400U 020000000000000000000000000000000000000000000000000000000000000000000000000000000000000000000000000000000000000000000000001603201700000000            000000000000000                              000                           
0010001300401T 020180230000002544776 29647041321955692   7               18032017000000000006000001028029                         0900000000000010000000000000000000000000000000000000000   0000000000000000000000000A9        170192964704     
0010001300402U 020000000000000000000000000000000000000000000000000000000000000000000000000000000000000000000000000000000000000000000000001603201700000000            000000000000000                              000                           
0010001300403T 020180230000002544776 29647041322045537   7               18032017000000000006000001028029                         0900000000000010000000000000000000000000000000000000000   0000000000000000000000000A9        170192964704     
0010001300404U 020000000000000000000000000000000000000000000000000000000000000000000000000000000000000000000000000000000000000000000000001603201700000000            000000000000000                              000                           
0010001300405T 020180230000002544776 29647041322149908   7               18032017000000000006000001016179                         0900000000000010000000000000000000000000000000000000000   0000000000000000000000000A9        170192964704     
0010001300406U 020000000000000000000000000000000000000000000000000000000000000000000000000000000000000000000000000000000000000000000000001603201700000000            000000000000000                              000                           
0010001300407T 020180230000002544776 29647041322447718   7               18032017000000000006000001008796                         0900000000000010000000000000000000000000000000000000000   0000000000000000000000000A9        170192964704     
0010001300408U 020000000000000000000000000000000000000000000000000000000000000000000000000000000000000000000000000000000000000000000000001603201700000000            000000000000000                              000                           
0010001300409T 020180230000002544776 29647041322537791   7               18032017000000000006000001003360                         0900000000000010000000000000000000000000000000000000000   0000000000000000000000000A9        170192964704     
0010001300410U 020000000000000000000000000000000000000000000000000000000000000000000000000000000000000000000000000000000000000000000000001603201700000000            000000000000000                              000                           
0010001300411T 020180230000002544776 29647041322639603   7               18032017000000000006000001033316                         0900000000000010000000000000000000000000000000000000000   0000000000000000000000000A9        170192964704     
0010001300412U 020000000000000000000000000000000000000000000000000000000000000000000000000000000000000000000000000000000000000000000000001603201700000000            000000000000000                              000                           
