00100000         2247745860001000029647040014       0180230000002544776 INSTITUTO DE SELECAO E TECNOLOBANCO DO BRASIL                         21703201701132700006603000000515122941PROCESSAMEN                                                 
00100011T0100020 20247745860001000029647040014       0180230000002544776 INSTITUTO DE SELECAO E TECNOLO                                                                                000000001703201700000000  000000000                      
0010001300001T 020180230000002544776 29647040552603754   7               19032017000000000006000001050725                         0900000000000010000000000000000000000000000000000000000   0000000000000000000000000A9        170192964704     
0010001300002U 020000000000000000000000000000000000000000000000000000000000000000000000000000000000000000000000000000000000000000000000001703201700000000            000000000000000                              000                           
0010001300003T 020180230000002544776 29647040552615899   7               19032017000000000006000001050725                         0900000000000010000000000000000000000000000000000000000   0000000000000000000000000A9        170192964704     
0010001300004U 020000000000000000000000000000000000000000000000000000000000000000000000000000000000000000000000000000000000000000000000001703201700000000            000000000000000                              000                           
0010001300005T 020180230000002544776 29647040552621647   7               19032017000000000006000001050725                         0900000000000010000000000000000000000000000000000000000   0000000000000000000000000A9        170192964704     
0010001300006U 020000000000000000000000000000000000000000000000000000000000000000000000000000000000000000000000000000000000000000000000001703201700000000            000000000000000                              000                           
0010001300007T 020180230000002544776 29647040611825746   7               19032017000000000006000001016179                         0900000000000010000000000000000000000000000000000000000   0000000000000000000000000A9        170192964704     
0010001300008U 020000000000000000000000000000000000000000000000000000000000000000000000000000000000000000000000000000000000000000000000001703201700000000            000000000000000                              000                           
0010001300009T 020180230000002544776 29647040642914297   7               19032017000000000006000001000132                         0900000000000010000000000000000000000000000000000000000   0000000000000000000000000A9        170192964704     
0010001300010U 020000000000000000000000000000000000000000000000000000000000000000000000000000000000000000000000000000000000000000000000001703201700000000            000000000000000                              000                           
0010001300011T 020180230000002544776 29647040675555623   7               19032017000000000006000001012688                         0900000000000010000000000000000000000000000000000000000   0000000000000000000000000A9        170192964704     
0010001300012U 020000000000000000000000000000000000000000000000000000000000000000000000000000000000000000000000000000000000000000000000001703201700000000            000000000000000                              000                           
0010001300013T 020180230000002544776 29647040724713887   7               19032017000000000006000001020354                         0900000000000010000000000000000000000000000000000000000   0000000000000000000000000A9        170192964704     
0010001300014U 020000000000000000000000000000000000000000000000000000000000000000000000000000000000000000000000000000000000000000000000001703201700000000            000000000000000                              000                           
0010001300015T 020180230000002544776 29647040753849497   7               19032017000000000008000001012467                         0900000000000010000000000000000000000000000000000000000   0000000000000000000000000A9        170192964704     
0010001300016U 020000000000000000000000000000000000000000000000000000000000000000000000000000000000000000000000000000000000000000000000001703201700000000            000000000000000                              000                           
0010001300017T 020180230000002544776 29647040808618981   7               19032017000000000006000001035041                         0900000000000010000000000000000000000000000000000000000   0000000000000000000000000A9        170192964704     
0010001300018U 020000000000000000000000000000000000000000000000000000000000000000000000000000000000000000000000000000000000000000000000001703201700000000            000000000000000                              000                           
0010001300019T 020180230000002544776 29647040808645183   7               19032017000000000006000001035041                         0900000000000010000000000000000000000000000000000000000   0000000000000000000000000A9        170192964704     
0010001300020U 020000000000000000000000000000000000000000000000000000000000000000000000000000000000000000000000000000000000000000000000001703201700000000            000000000000000                              000                           
0010001300021T 020180230000002544776 29647040808646754   7               19032017000000000006000001035041                         0900000000000010000000000000000000000000000000000000000   0000000000000000000000000A9        170192964704     
0010001300022U 020000000000000000000000000000000000000000000000000000000000000000000000000000000000000000000000000000000000000000000000001703201700000000            000000000000000                              000                           
0010001300023T 020180230000002544776 29647040816512626   7               19032017000000000006000001025429                         0900000000000010000000000000000000000000000000000000000   0000000000000000000000000A9        170192964704     
0010001300024U 020000000000000000000000000000000000000000000000000000000000000000000000000000000000000000000000000000000000000000000000001703201700000000            000000000000000                              000                           
0010001300025T 020180230000002544776 29647040816527685   7               19032017000000000006000001025429                         0900000000000010000000000000000000000000000000000000000   0000000000000000000000000A9        170192964704     
0010001300026U 020000000000000000000000000000000000000000000000000000000000000000000000000000000000000000000000000000000000000000000000001703201700000000            000000000000000                              000                           
0010001300027T 020180230000002544776 29647040893736260   7               19032017000000000008000001024414                         0900000000000010000000000000000000000000000000000000000   0000000000000000000000000A9        170192964704     
0010001300028U 020000000000000000000000000000000000000000000000000000000000000000000000000000000000000000000000000000000000000000000000001703201700000000            000000000000000                              000                           
0010001300029T 020180230000002544776 29647040937011081   7               1803201700000000000600000102371X                         0900000000000010000000000000000000000000000000000000000   0000000000000000000000000A9        170192964704     
0010001300030U 020000000000000000000000000000000000000000000000000000000000000000000000000000000000000000000000000000000000000000000000001603201700000000            000000000000000                              000                           
0010001300031T 020180230000002544776 29647040939330478   7               19032017000000000006000001016179                         0900000000000010000000000000000000000000000000000000000   0000000000000000000000000A9        170192964704     
0010001300032U 020000000000000000000000000000000000000000000000000000000000000000000000000000000000000000000000000000000000000000000000001703201700000000            000000000000000                              000                           
0010001300033T 020180230000002544776 29647040947953891   7               19032017000000000006000001035033                         0900000000000010000000000000000000000000000000000000000   0000000000000000000000000A9        170192964704     
0010001300034U 020000000000000000000000000000000000000000000000000000000000000000000000000000000000000000000000000000000000000000000000001703201700000000            000000000000000                              000                           
0010001300035T 020180230000002544776 29647040967208089   7               19032017000000000006000001028029                         0900000000000010000000000000000000000000000000000000000   0000000000000000000000000A9        170192964704     
0010001300036U 020000000000000000000000000000000000000000000000000000000000000000000000000000000000000000000000000000000000000000000000001703201700000000            000000000000000                              000                           
0010001300037T 020180230000002544776 29647041002320271   7               19032017000000000006000001033316                         0900000000000010000000000000000000000000000000000000000   0000000000000000000000000A9        170192964704     
0010001300038U 020000000000000000000000000000000000000000000000000000000000000000000000000000000000000000000000000000000000000000000000001703201700000000            000000000000000                              000                           
0010001300039T 020180230000002544776 29647041037715769   7               19032017000000000006000001010502                         0900000000000010000000000000000000000000000000000000000   0000000000000000000000000A9        170192964704     
0010001300040U 020000000000000000000000000000000000000000000000000000000000000000000000000000000000000000000000000000000000000000000000001703201700000000            000000000000000                              000                           
0010001300041T 020180230000002544776 29647041088855197   7               19032017000000000006000001008214                         0900000000000010000000000000000000000000000000000000000   0000000000000000000000000A9        170192964704     
0010001300042U 020000000000000000000000000000000000000000000000000000000000000000000000000000000000000000000000000000000000000000000000001703201700000000            000000000000000                              000                           
0010001300043T 020180230000002544776 29647041090841338   7               19032017000000000006000001009636                         0900000000000010000000000000000000000000000000000000000   0000000000000000000000000A9        170192964704     
0010001300044U 020000000000000000000000000000000000000000000000000000000000000000000000000000000000000000000000000000000000000000000000001703201700000000            000000000000000                              000                           
0010001300045T 020180230000002544776 29647041103216082   7               19032017000000000006000001013617                         0900000000000010000000000000000000000000000000000000000   0000000000000000000000000A9        170192964704     
0010001300046U 020000000000000000000000000000000000000000000000000000000000000000000000000000000000000000000000000000000000000000000000001703201700000000            000000000000000                              000                           
0010001300047T 020180230000002544776 29647041118421237   7               19032017000000000006000001005703                         0900000000000010000000000000000000000000000000000000000   0000000000000000000000000A9        170192964704     
0010001300048U 020000000000000000000000000000000000000000000000000000000000000000000000000000000000000000000000000000000000000000000000001703201700000000            000000000000000                              000                           
0010001300049T 020180230000002544776 29647041198948965   7               19032017000000000006000001000132                         0900000000000010000000000000000000000000000000000000000   0000000000000000000000000A9        170192964704     
0010001300050U 020000000000000000000000000000000000000000000000000000000000000000000000000000000000000000000000000000000000000000000000001703201700000000            000000000000000                              000                           
0010001300051T 020180230000002544776 29647041201343914   7               19032017000000000008000001020354                         0900000000000010000000000000000000000000000000000000000   0000000000000000000000000A9        170192964704     
0010001300052U 020000000000000000000000000000000000000000000000000000000000000000000000000000000000000000000000000000000000000000000000001703201700000000            000000000000000                              000                           
0010001300053T 020180230000002544776 29647041223628709   7               1903201700000000000600000100233X                         0900000000000010000000000000000000000000000000000000000   0000000000000000000000000A9        170192964704     
0010001300054U 020000000000000000000000000000000000000000000000000000000000000000000000000000000000000000000000000000000000000000000000001703201700000000            000000000000000                              000                           
0010001300055T 020180230000002544776 29647041232410815   7               19032017000000000006000001001104                         0900000000000010000000000000000000000000000000000000000   0000000000000000000000000A9        170192964704     
0010001300056U 020000000000000000000000000000000000000000000000000000000000000000000000000000000000000000000000000000000000000000000000001703201700000000            000000000000000                              000                           
0010001300057T 020180230000002544776 29647041234004103   7               19032017000000000006000001033316                         0900000000000010000000000000000000000000000000000000000   0000000000000000000000000A9        170192964704     
0010001300058U 020000000000000000000000000000000000000000000000000000000000000000000000000000000000000000000000000000000000000000000000001703201700000000            000000000000000                              000                           
0010001300059T 020180230000002544776 29647041243053283   7               19032017000000000008000001003018                         0900000000000010500000000000000000000000000000000000000   0000000000000000000000000A9A4      170192964704     
0010001300060U 020000000000000000000000000000000000000000000000000000000000000000000000000000000000000000000000000000000000000000000000001703201700000000            000000000000000                              000                           
0010001300061T 020180230000002544776 29647041254112614   7               19032017000000000006000001023655                         0900000000000010000000000000000000000000000000000000000   0000000000000000000000000A9        170192964704     
0010001300062U 020000000000000000000000000000000000000000000000000000000000000000000000000000000000000000000000000000000000000000000000001703201700000000            000000000000000                              000                           
0010001300063T 020180230000002544776 29647041255322488   7               19032017000000000006000001016179                         0900000000000010000000000000000000000000000000000000000   0000000000000000000000000A9        170192964704     
0010001300064U 020000000000000000000000000000000000000000000000000000000000000000000000000000000000000000000000000000000000000000000000001703201700000000            000000000000000                              000                           
0010001300065T 020180230000002544776 29647041255359862   7               19032017000000000006000001016179                         0900000000000010000000000000000000000000000000000000000   0000000000000000000000000A9        170192964704     
0010001300066U 020000000000000000000000000000000000000000000000000000000000000000000000000000000000000000000000000000000000000000000000001703201700000000            000000000000000                              000                           
0010001300067T 020180230000002544776 29647041257149639   7               19032017000000000008000001020354                         0900000000000010000000000000000000000000000000000000000   0000000000000000000000000A9        170192964704     
0010001300068U 020000000000000000000000000000000000000000000000000000000000000000000000000000000000000000000000000000000000000000000000001703201700000000            000000000000000                              000                           
0010001300069T 020180230000002544776 29647041257158195   7               19032017000000000008000001020354                         0900000000000010000000000000000000000000000000000000000   0000000000000000000000000A9        170192964704     
0010001300070U 020000000000000000000000000000000000000000000000000000000000000000000000000000000000000000000000000000000000000000000000001703201700000000            000000000000000                              000                           
0010001300071T 020180230000002544776 29647041258820546   7               19032017000000000006000001026425                         0900000000000010000000000000000000000000000000000000000   0000000000000000000000000A9        170192964704     
0010001300072U 020000000000000000000000000000000000000000000000000000000000000000000000000000000000000000000000000000000000000000000000001703201700000000            000000000000000                              000                           
0010001300073T 020180230000002544776 29647041262715488   7               19032017000000000006000001033316                         0900000000000010000000000000000000000000000000000000000   0000000000000000000000000A9        170192964704     
0010001300074U 020000000000000000000000000000000000000000000000000000000000000000000000000000000000000000000000000000000000000000000000001703201700000000            000000000000000                              000                           
0010001300075T 020180230000002544776 29647041262730227   7               19032017000000000006000001033316                         0900000000000010000000000000000000000000000000000000000   0000000000000000000000000A9        170192964704     
0010001300076U 020000000000000000000000000000000000000000000000000000000000000000000000000000000000000000000000000000000000000000000000001703201700000000            000000000000000                              000                           
0010001300077T 020180230000002544776 29647041266721162   7               19032017000000000008000001000132                         0900000000000010000000000000000000000000000000000000000   0000000000000000000000000A9        170192964704     
0010001300078U 020000000000000000000000000000000000000000000000000000000000000000000000000000000000000000000000000000000000000000000000001703201700000000            000000000000000                              000                           
0010001300079T 020180230000002544776 29647041273146455   7               19032017000000000006000001018376                         0900000000000010000000000000000000000000000000000000000   0000000000000000000000000A9        170192964704     
0010001300080U 020000000000000000000000000000000000000000000000000000000000000000000000000000000000000000000000000000000000000000000000001703201700000000            000000000000000                              000                           
0010001300081T 020180230000002544776 29647041277457408   7               19032017000000000006000001028029                         0900000000000010000000000000000000000000000000000000000   0000000000000000000000000A9        170192964704     
0010001300082U 020000000000000000000000000000000000000000000000000000000000000000000000000000000000000000000000000000000000000000000000001703201700000000            000000000000000                              000                           
0010001300083T 020180230000002544776 29647041286204009   7               19032017000000000006000001016179                         0900000000000010000000000000000000000000000000000000000   0000000000000000000000000A9        170192964704     
0010001300084U 020000000000000000000000000000000000000000000000000000000000000000000000000000000000000000000000000000000000000000000000001703201700000000            000000000000000                              000                           
0010001300085T 020180230000002544776 29647041303718499   7               19032017000000000006000001028029                         0900000000000010000000000000000000000000000000000000000   0000000000000000000000000A9        170192964704     
0010001300086U 020000000000000000000000000000000000000000000000000000000000000000000000000000000000000000000000000000000000000000000000001703201700000000            000000000000000                              000                           
0010001300087T 020180230000002544776 29647041304655624   7               19032017000000000006000001033316                         0900000000000010000000000000000000000000000000000000000   0000000000000000000000000A9        170192964704     
0010001300088U 020000000000000000000000000000000000000000000000000000000000000000000000000000000000000000000000000000000000000000000000001703201700000000            000000000000000                              000                           
0010001300089T 020180230000002544776 29647041310624342   7               19032017000000000008000001012467                         0900000000000010000000000000000000000000000000000000000   0000000000000000000000000A9        170192964704     
0010001300090U 020000000000000000000000000000000000000000000000000000000000000000000000000000000000000000000000000000000000000000000000001703201700000000            000000000000000                              000                           
0010001300091T 020180230000002544776 29647041318158415   7               19032017000000000006000001016179                         0900000000000010000000000000000000000000000000000000000   0000000000000000000000000A9        170192964704     
0010001300092U 020000000000000000000000000000000000000000000000000000000000000000000000000000000000000000000000000000000000000000000000001703201700000000            000000000000000                              000                           
0010001300093T 020180230000002544776 29647041323001702   7               19032017000000000006000001007145                         0900000000000010000000000000000000000000000000000000000   0000000000000000000000000A9        170192964704     
0010001300094U 020000000000000000000000000000000000000000000000000000000000000000000000000000000000000000000000000000000000000000000000001703201700000000            000000000000000                              000                           
0010001300095T 020180230000002544776 29647041323500758   7               19032017000000000006000001016179                         0900000000000010000000000000000000000000000000000000000   0000000000000000000000000A9        170192964704     
0010001300096U 020000000000000000000000000000000000000000000000000000000000000000000000000000000000000000000000000000000000000000000000001703201700000000            000000000000000                              000                           
0010001300097T 020180230000002544776 29647041323537413   7               19032017000000000006000001016179                         0900000000000010000000000000000000000000000000000000000   0000000000000000000000000A9        170192964704     
0010001300098U 020000000000000000000000000000000000000000000000000000000000000000000000000000000000000000000000000000000000000000000000001703201700000000            000000000000000                              000                           
0010001300099T 020180230000002544776 29647041325447838   7               18032017000000000006000001033316                         0900000000000010000000000000000000000000000000000000000   0000000000000000000000000A9        170192964704     
0010001300100U 020000000000000000000000000000000000000000000000000000000000000000000000000000000000000000000000000000000000000000000000001603201700000000            000000000000000                              000                           
0010001300101T 020180230000002544776 29647041325452371   7               18032017000000000006000001033316                         0900000000000010000000000000000000000000000000000000000   0000000000000000000000000A9        170192964704     
0010001300102U 020000000000000000000000000000000000000000000000000000000000000000000000000000000000000000000000000000000000000000000000001603201700000000            000000000000000                              000                           
0010001300103T 020180230000002544776 29647041325552986   7               18032017000000000006000001012467                         0900000000000010000000000000000000000000000000000000000   0000000000000000000000000A9        170192964704     
0010001300104U 020000000000000000000000000000000000000000000000000000000000000000000000000000000000000000000000000000000000000000000000001603201700000000            000000000000000                              000                           
0010001300105T 020180230000002544776 29647041325631587   7               18032017000000000006000001028029                         0900000000000010000000000000000000000000000000000000000   0000000000000000000000000A9        170192964704     
0010001300106U 020000000000000000000000000000000000000000000000000000000000000000000000000000000000000000000000000000000000000000000000001603201700000000            000000000000000                              000                           
0010001300107T 020180230000002544776 29647041325851390   7               18032017000000000006000001013617                         0900000000000010500000000000000000000000000000000000000   0000000000000000000000000A9A4      170192964704     
0010001300108U 020000000000000000000000000000000000000000000000000000000000000000000000000000000000000000000000000000000000000000000000001603201700000000            000000000000000                              000                           
0010001300109T 020180230000002544776 29647041326015343   7               18032017000000000006000001008214                         0900000000000010500000000000000000000000000000000000000   0000000000000000000000000A9A4      170192964704     
0010001300110U 020000000000000000000000000000000000000000000000000000000000000000000000000000000000000000000000000000000000000000000000001603201700000000            000000000000000                              000                           
0010001300111T 020180230000002544776 29647041326017201   7               19032017000000000006000001008214                         0900000000000010500000000000000000000000000000000000000   0000000000000000000000000A9A4      170192964704     
0010001300112U 020000000000000000000000000000000000000000000000000000000000000000000000000000000000000000000000000000000000000000000000001703201700000000            000000000000000                              000                           
0010001300113T 020180230000002544776 29647041326255511   7               19032017000000000006000001028495                         0900000000000010000000000000000000000000000000000000000   0000000000000000000000000A9        170192964704     
0010001300114U 020000000000000000000000000000000000000000000000000000000000000000000000000000000000000000000000000000000000000000000000001703201700000000            000000000000000                              000                           
0010001300115T 020180230000002544776 29647041326402711   7               19032017000000000006000001008214                         0900000000000010000000000000000000000000000000000000000   0000000000000000000000000A9        170192964704     
0010001300116U 020000000000000000000000000000000000000000000000000000000000000000000000000000000000000000000000000000000000000000000000001703201700000000            000000000000000                              000                           
0010001300117T 020180230000002544776 29647041326533132   7               19032017000000000006000001016179                         0900000000000010000000000000000000000000000000000000000   0000000000000000000000000A9        170192964704     
0010001300118U 020000000000000000000000000000000000000000000000000000000000000000000000000000000000000000000000000000000000000000000000001703201700000000            000000000000000                              000                           
0010001300119T 020180230000002544776 29647041326625309   7               19032017000000000006000001001597                         0900000000000010000000000000000000000000000000000000000   0000000000000000000000000A9        170192964704     
0010001300120U 020000000000000000000000000000000000000000000000000000000000000000000000000000000000000000000000000000000000000000000000001703201700000000            000000000000000                              000                           
0010001300121T 020180230000002544776 29647041326736630   7               19032017000000000006000001028029                         0900000000000010000000000000000000000000000000000000000   0000000000000000000000000A9        170192964704     
0010001300122U 020000000000000000000000000000000000000000000000000000000000000000000000000000000000000000000000000000000000000000000000001703201700000000            000000000000000                              000                           
0010001300123T 020180230000002544776 29647041326807778   7               19032017000000000006000001012629                         0900000000000010000000000000000000000000000000000000000   0000000000000000000000000A9        170192964704     
0010001300124U 020000000000000000000000000000000000000000000000000000000000000000000000000000000000000000000000000000000000000000000000001703201700000000            000000000000000                              000                           
0010001300125T 020180230000002544776 29647041326808608   7               19032017000000000006000001012629                         0900000000000010000000000000000000000000000000000000000   0000000000000000000000000A9        170192964704     
0010001300126U 020000000000000000000000000000000000000000000000000000000000000000000000000000000000000000000000000000000000000000000000001703201700000000            000000000000000                              000                           
0010001300127T 020180230000002544776 29647041327422365   7               19032017000000000006000001000132                         0900000000000010000000000000000000000000000000000000000   0000000000000000000000000A9        170192964704     
0010001300128U 020000000000000000000000000000000000000000000000000000000000000000000000000000000000000000000000000000000000000000000000001703201700000000            000000000000000                              000                           
0010001300129T 020180230000002544776 29647041327505751   7               19032017000000000006000001035041                         0900000000000010500000000000000000000000000000000000000   0000000000000000000000000A9A4      170192964704     
0010001300130U 020000000000000000000000000000000000000000000000000000000000000000000000000000000000000000000000000000000000000000000000001703201700000000            000000000000000                              000                           
0010001300131T 020180230000002544776 29647041327524139   7               19032017000000000006000001035041                         0900000000000010500000000000000000000000000000000000000   0000000000000000000000000A9A4      170192964704     
0010001300132U 020000000000000000000000000000000000000000000000000000000000000000000000000000000000000000000000000000000000000000000000001703201700000000            000000000000000                              000                           
0010001300133T 020180230000002544776 29647041327531345   7               19032017000000000006000001035041                         0900000000000010500000000000000000000000000000000000000   0000000000000000000000000A9A4      170192964704     
0010001300134U 020000000000000000000000000000000000000000000000000000000000000000000000000000000000000000000000000000000000000000000000001703201700000000            000000000000000                              000                           
0010001300135T 020180230000002544776 29647041327534200   7               19032017000000000006000001035041                         0900000000000010500000000000000000000000000000000000000   0000000000000000000000000A9A4      170192964704     
0010001300136U 020000000000000000000000000000000000000000000000000000000000000000000000000000000000000000000000000000000000000000000000001703201700000000            000000000000000                              000                           
0010001300137T 020180230000002544776 29647041327636487   7               19032017000000000006000001028029                         0900000000000010000000000000000000000000000000000000000   0000000000000000000000000A9        170192964704     
0010001300138U 020000000000000000000000000000000000000000000000000000000000000000000000000000000000000000000000000000000000000000000000001703201700000000            000000000000000                              000                           
0010001300139T 020180230000002544776 29647041327755165   7               19032017000000000006000001028029                         0900000000000010000000000000000000000000000000000000000   0000000000000000000000000A9        170192964704     
0010001300140U 020000000000000000000000000000000000000000000000000000000000000000000000000000000000000000000000000000000000000000000000001703201700000000            000000000000000                              000                           
0010001300141T 020180230000002544776 29647041327815216   7               19032017000000000006000001016179                         0900000000000010000000000000000000000000000000000000000   0000000000000000000000000A9        170192964704     
0010001300142U 020000000000000000000000000000000000000000000000000000000000000000000000000000000000000000000000000000000000000000000000001703201700000000            000000000000000                              000                           
0010001300143T 020180230000002544776 29647041327902913   7               1903201700000000000800000101138X                         0900000000000010000000000000000000000000000000000000000   0000000000000000000000000A9        170192964704     
0010001300144U 020000000000000000000000000000000000000000000000000000000000000000000000000000000000000000000000000000000000000000000000001703201700000000            000000000000000                              000                           
0010001300145T 020180230000002544776 29647041328010247   7               19032017000000000006000001014699                         0900000000000010000000000000000000000000000000000000000   0000000000000000000000000A9        170192964704     
0010001300146U 020000000000000000000000000000000000000000000000000000000000000000000000000000000000000000000000000000000000000000000000001703201700000000            000000000000000                              000                           
0010001300147T 020180230000002544776 29647041328231575   7               19032017000000000006000001035041                         0900000000000010000000000000000000000000000000000000000   0000000000000000000000000A9        170192964704     
0010001300148U 020000000000000000000000000000000000000000000000000000000000000000000000000000000000000000000000000000000000000000000000001703201700000000            000000000000000                              000                           
0010001300149T 020180230000002544776 29647041328343340   7               1903201700000000000600000101981X                         0900000000000010000000000000000000000000000000000000000   0000000000000000000000000A9        170192964704     
0010001300150U 020000000000000000000000000000000000000000000000000000000000000000000000000000000000000000000000000000000000000000000000001703201700000000            000000000000000                              000                           
0010001300151T 020180230000002544776 29647041328431150   7               19032017000000000006000001018376                         0900000000000010000000000000000000000000000000000000000   0000000000000000000000000A9        170192964704     
0010001300152U 020000000000000000000000000000000000000000000000000000000000000000000000000000000000000000000000000000000000000000000000001703201700000000            000000000000000                              000                           
0010001300153T 020180230000002544776 29647041328444887   7               19032017000000000006000001018376                         0900000000000010000000000000000000000000000000000000000   0000000000000000000000000A9        170192964704     
0010001300154U 020000000000000000000000000000000000000000000000000000000000000000000000000000000000000000000000000000000000000000000000001703201700000000            000000000000000                              000                           
0010001300155T 020180230000002544776 29647041328529920   7               1903201700000000000600000101981X                         0900000000000010000000000000000000000000000000000000000   0000000000000000000000000A9        170192964704     
0010001300156U 020000000000000000000000000000000000000000000000000000000000000000000000000000000000000000000000000000000000000000000000001703201700000000            000000000000000                              000                           
0010001300157T 020180230000002544776 29647041328627500   7               19032017000000000006000001035041                         0900000000000010000000000000000000000000000000000000000   0000000000000000000000000A9        170192964704     
0010001300158U 020000000000000000000000000000000000000000000000000000000000000000000000000000000000000000000000000000000000000000000000001703201700000000            000000000000000                              000                           
0010001300159T 020180230000002544776 29647041328704530   7               19032017000000000008000001012467                         0900000000000010000000000000000000000000000000000000000   0000000000000000000000000A9        170192964704     
0010001300160U 020000000000000000000000000000000000000000000000000000000000000000000000000000000000000000000000000000000000000000000000001703201700000000            000000000000000                              000                           
0010001300161T 020180230000002544776 29647041328803333   7               19032017000000000008000001000132                         0900000000000010000000000000000000000000000000000000000   0000000000000000000000000A9        170192964704     
0010001300162U 020000000000000000000000000000000000000000000000000000000000000000000000000000000000000000000000000000000000000000000000001703201700000000            000000000000000                              000                           
0010001300163T 020180230000002544776 29647041328815198   7               19032017000000000008000001000132                         0900000000000010000000000000000000000000000000000000000   0000000000000000000000000A9        170192964704     
0010001300164U 020000000000000000000000000000000000000000000000000000000000000000000000000000000000000000000000000000000000000000000000001703201700000000            000000000000000                              000                           
0010001300165T 020180230000002544776 29647041328917346   7               19032017000000000006000001033316                         0900000000000010000000000000000000000000000000000000000   0000000000000000000000000A9        170192964704     
0010001300166U 020000000000000000000000000000000000000000000000000000000000000000000000000000000000000000000000000000000000000000000000001703201700000000            000000000000000                              000                           
0010001300167T 020180230000002544776 29647041329019524   7               19032017000000000006000001028029                         0900000000000010000000000000000000000000000000000000000   0000000000000000000000000A9        170192964704     
0010001300168U 020000000000000000000000000000000000000000000000000000000000000000000000000000000000000000000000000000000000000000000000001703201700000000            000000000000000                              000                           
0010001300169T 020180230000002544776 29647041329115245   7               19032017000000000006000001028029                         0900000000000010000000000000000000000000000000000000000   0000000000000000000000000A9        170192964704     
0010001300170U 020000000000000000000000000000000000000000000000000000000000000000000000000000000000000000000000000000000000000000000000001703201700000000            000000000000000                              000                           
0010001300171T 020180230000002544776 29647041329214200   7               19032017000000000006000001028029                         0900000000000010000000000000000000000000000000000000000   0000000000000000000000000A9        170192964704     
0010001300172U 020000000000000000000000000000000000000000000000000000000000000000000000000000000000000000000000000000000000000000000000001703201700000000            000000000000000                              000                           
0010001300173T 020180230000002544776 29647041329225358   7               19032017000000000006000001028029                         0900000000000010000000000000000000000000000000000000000   0000000000000000000000000A9        170192964704     
0010001300174U 020000000000000000000000000000000000000000000000000000000000000000000000000000000000000000000000000000000000000000000000001703201700000000            000000000000000                              000                           
0010001300175T 020180230000002544776 29647041329301272   7               19032017000000000006000001028029                         0900000000000010000000000000000000000000000000000000000   0000000000000000000000000A9        170192964704     
0010001300176U 020000000000000000000000000000000000000000000000000000000000000000000000000000000000000000000000000000000000000000000000001703201700000000            000000000000000                              000                           
0010001300177T 020180230000002544776 29647041329519351   7               19032017000000000006000001016179                         0900000000000010000000000000000000000000000000000000000   0000000000000000000000000A9        170192964704     
0010001300178U 020000000000000000000000000000000000000000000000000000000000000000000000000000000000000000000000000000000000000000000000001703201700000000            000000000000000                              000                           
0010001300179T 020180230000002544776 29647041329727981   7               19032017000000000006000001016179                         0900000000000010000000000000000000000000000000000000000   0000000000000000000000000A9        170192964704     
0010001300180U 020000000000000000000000000000000000000000000000000000000000000000000000000000000000000000000000000000000000000000000000001703201700000000            000000000000000                              000                           
0010001300181T 020180230000002544776 29647041329843085   7               19032017000000000006000001016179                         0900000000000010000000000000000000000000000000000000000   0000000000000000000000000A9        170192964704     
0010001300182U 020000000000000000000000000000000000000000000000000000000000000000000000000000000000000000000000000000000000000000000000001703201700000000            000000000000000                              000                           
0010001300183T 020180230000002544776 29647041329941416   7               19032017000000000006000001008672                         0900000000000010000000000000000000000000000000000000000   0000000000000000000000000A9        170192964704     
0010001300184U 020000000000000000000000000000000000000000000000000000000000000000000000000000000000000000000000000000000000000000000000001703201700000000            000000000000000                              000                           
0010001300185T 020180230000002544776 29647041329948128   7               19032017000000000006000001008672                         0900000000000010000000000000000000000000000000000000000   0000000000000000000000000A9        170192964704     
0010001300186U 020000000000000000000000000000000000000000000000000000000000000000000000000000000000000000000000000000000000000000000000001703201700000000            000000000000000                              000                           
0010001300187T 020180230000002544776 29647041330217128   7               19032017000000000006000001012467                         0900000000000010000000000000000000000000000000000000000   0000000000000000000000000A9        170192964704     
0010001300188U 020000000000000000000000000000000000000000000000000000000000000000000000000000000000000000000000000000000000000000000000001703201700000000            000000000000000                              000                           
0010001300189T 020180230000002544776 29647041330335351   7               19032017000000000006000001033316                         0900000000000010000000000000000000000000000000000000000   0000000000000000000000000A9        170192964704     
0010001300190U 020000000000000000000000000000000000000000000000000000000000000000000000000000000000000000000000000000000000000000000000001703201700000000            000000000000000                              000                           
0010001300191T 020180230000002544776 29647041330501500   7               19032017000000000006000001028029                         0900000000000010000000000000000000000000000000000000000   0000000000000000000000000A9        170192964704     
0010001300192U 020000000000000000000000000000000000000000000000000000000000000000000000000000000000000000000000000000000000000000000000001703201700000000            000000000000000                              000                           
0010001300193T 020180230000002544776 29647041330705903   7               19032017000000000006000001010383                         0900000000000010000000000000000000000000000000000000000   0000000000000000000000000A9        170192964704     
0010001300194U 020000000000000000000000000000000000000000000000000000000000000000000000000000000000000000000000000000000000000000000000001703201700000000            000000000000000                              000                           
0010001300195T 020180230000002544776 29647041330753307   7               19032017000000000006000001010383                         0900000000000010000000000000000000000000000000000000000   0000000000000000000000000A9        170192964704     
0010001300196U 020000000000000000000000000000000000000000000000000000000000000000000000000000000000000000000000000000000000000000000000001703201700000000            000000000000000                              000                           
0010001300197T 020180230000002544776 29647041330848437   7               19032017000000000006000001018376                         0900000000000010000000000000000000000000000000000000000   0000000000000000000000000A9        170192964704     
0010001300198U 020000000000000000000000000000000000000000000000000000000000000000000000000000000000000000000000000000000000000000000000001703201700000000            000000000000000                              000                           
0010001300199T 020180230000002544776 29647041331132145   7               19032017000000000006000001012467                         0900000000000010000000000000000000000000000000000000000   0000000000000000000000000A9        170192964704     
0010001300200U 020000000000000000000000000000000000000000000000000000000000000000000000000000000000000000000000000000000000000000000000001703201700000000            000000000000000                              000                           
0010001300201T 020180230000002544776 29647041331300347   7               1903201700000000000600000101981X                         0900000000000010000000000000000000000000000000000000000   0000000000000000000000000A9        170192964704     
0010001300202U 020000000000000000000000000000000000000000000000000000000000000000000000000000000000000000000000000000000000000000000000001703201700000000            000000000000000                              000                           
0010001300203T 020180230000002544776 29647041331400587   7               19032017000000000006000001000485                         0900000000000010000000000000000000000000000000000000000   0000000000000000000000000A9        170192964704     
0010001300204U 020000000000000000000000000000000000000000000000000000000000000000000000000000000000000000000000000000000000000000000000001703201700000000            000000000000000                              000                           
0010001300205T 020180230000002544776 29647041331554917   7               19032017000000000006000001016179                         0900000000000010000000000000000000000000000000000000000   0000000000000000000000000A9        170192964704     
0010001300206U 020000000000000000000000000000000000000000000000000000000000000000000000000000000000000000000000000000000000000000000000001703201700000000            000000000000000                              000                           
0010001300207T 020180230000002544776 29647041331653903   7               19032017000000000006000001012467                         0900000000000010000000000000000000000000000000000000000   0000000000000000000000000A9        170192964704     
0010001300208U 020000000000000000000000000000000000000000000000000000000000000000000000000000000000000000000000000000000000000000000000001703201700000000            000000000000000                              000                           
0010001300209T 020180230000002544776 29647041331715577   7               19032017000000000006000001016179                         0900000000000010000000000000000000000000000000000000000   0000000000000000000000000A9        170192964704     
0010001300210U 020000000000000000000000000000000000000000000000000000000000000000000000000000000000000000000000000000000000000000000000001703201700000000            000000000000000                              000                           
0010001300211T 020180230000002544776 29647041331906501   7               19032017000000000008000001007218                         0900000000000010000000000000000000000000000000000000000   0000000000000000000000000A9        170192964704     
0010001300212U 020000000000000000000000000000000000000000000000000000000000000000000000000000000000000000000000000000000000000000000000001703201700000000            000000000000000                              000                           
0010001300213T 020180230000002544776 29647041331916459   7               19032017000000000008000001007218                         0900000000000010000000000000000000000000000000000000000   0000000000000000000000000A9        170192964704     
0010001300214U 020000000000000000000000000000000000000000000000000000000000000000000000000000000000000000000000000000000000000000000000001703201700000000            000000000000000                              000                           
0010001300215T 020180230000002544776 29647041332025887   7               19032017000000000006000001007218                         0900000000000010000000000000000000000000000000000000000   0000000000000000000000000A9        170192964704     
0010001300216U 020000000000000000000000000000000000000000000000000000000000000000000000000000000000000000000000000000000000000000000000001703201700000000            000000000000000                              000                           
0010001300217T 020180230000002544776 29647041332145732   7               19032017000000000006000001016179                         0900000000000010000000000000000000000000000000000000000   0000000000000000000000000A9        170192964704     
0010001300218U 020000000000000000000000000000000000000000000000000000000000000000000000000000000000000000000000000000000000000000000000001703201700000000            000000000000000                              000                           
0010001300219T 020180230000002544776 29647041332223367   7               19032017000000000006000001033316                         0900000000000010000000000000000000000000000000000000000   0000000000000000000000000A9        170192964704     
0010001300220U 020000000000000000000000000000000000000000000000000000000000000000000000000000000000000000000000000000000000000000000000001703201700000000            000000000000000                              000                           
0010001300221T 020180230000002544776 29647041332343639   7               19032017000000000006000001008346                         0900000000000010000000000000000000000000000000000000000   0000000000000000000000000A9        170192964704     
0010001300222U 020000000000000000000000000000000000000000000000000000000000000000000000000000000000000000000000000000000000000000000000001703201700000000            000000000000000                              000                           
0010001300223T 020180230000002544776 29647041332528197   7               19032017000000000006000001000132                         0900000000000010000000000000000000000000000000000000000   0000000000000000000000000A9        170192964704     
0010001300224U 020000000000000000000000000000000000000000000000000000000000000000000000000000000000000000000000000000000000000000000000001703201700000000            000000000000000                              000                           
0010001300225T 020180230000002544776 29647041332627686   7               19032017000000000006000001000132                         0900000000000010000000000000000000000000000000000000000   0000000000000000000000000A9        170192964704     
0010001300226U 020000000000000000000000000000000000000000000000000000000000000000000000000000000000000000000000000000000000000000000000001703201700000000            000000000000000                              000                           
0010001300227T 020180230000002544776 29647041333049592   7               19032017000000000006000001028029                         0900000000000010000000000000000000000000000000000000000   0000000000000000000000000A9        170192964704     
0010001300228U 020000000000000000000000000000000000000000000000000000000000000000000000000000000000000000000000000000000000000000000000001703201700000000            000000000000000                              000                           
0010001300229T 020180230000002544776 29647041333138148   7               19032017000000000006000001028495                         0900000000000010000000000000000000000000000000000000000   0000000000000000000000000A9        170192964704     
0010001300230U 020000000000000000000000000000000000000000000000000000000000000000000000000000000000000000000000000000000000000000000000001703201700000000            000000000000000                              000                           
0010001300231T 020180230000002544776 29647041333243936   7               19032017000000000006000001018376                         0900000000000010000000000000000000000000000000000000000   0000000000000000000000000A9        170192964704     
0010001300232U 020000000000000000000000000000000000000000000000000000000000000000000000000000000000000000000000000000000000000000000000001703201700000000            000000000000000                              000                           
0010001300233T 020180230000002544776 29647041333316073   7               19032017000000000006000001016179                         0900000000000010000000000000000000000000000000000000000   0000000000000000000000000A9        170192964704     
0010001300234U 020000000000000000000000000000000000000000000000000000000000000000000000000000000000000000000000000000000000000000000000001703201700000000            000000000000000                              000                           
0010001300235T 020180230000002544776 29647041333404202   7               19032017000000000006000001016179                         0900000000000010000000000000000000000000000000000000000   0000000000000000000000000A9        170192964704     
0010001300236U 020000000000000000000000000000000000000000000000000000000000000000000000000000000000000000000000000000000000000000000000001703201700000000            000000000000000                              000                           
0010001300237T 020180230000002544776 29647041333508281   7               19032017000000000006000001008214                         0900000000000010000000000000000000000000000000000000000   0000000000000000000000000A9        170192964704     
0010001300238U 020000000000000000000000000000000000000000000000000000000000000000000000000000000000000000000000000000000000000000000000001703201700000000            000000000000000                              000                           
0010001300239T 020180230000002544776 29647041333948036   7               19032017000000000008000001017310                         0900000000000010000000000000000000000000000000000000000   0000000000000000000000000A9        170192964704     
0010001300240U 020000000000000000000000000000000000000000000000000000000000000000000000000000000000000000000000000000000000000000000000001703201700000000            000000000000000                              000                           
0010001300241T 020180230000002544776 29647041334001325   7               19032017000000000006000001012467                         0900000000000010000000000000000000000000000000000000000   0000000000000000000000000A9        170192964704     
0010001300242U 020000000000000000000000000000000000000000000000000000000000000000000000000000000000000000000000000000000000000000000000001703201700000000            000000000000000                              000                           
0010001300243T 020180230000002544776 29647041334134407   7               19032017000000000008000001008214                         0900000000000010000000000000000000000000000000000000000   0000000000000000000000000A9        170192964704     
0010001300244U 020000000000000000000000000000000000000000000000000000000000000000000000000000000000000000000000000000000000000000000000001703201700000000            000000000000000                              000                           
0010001300245T 020180230000002544776 29647041334241791   7               19032017000000000006000001008214                         0900000000000010000000000000000000000000000000000000000   0000000000000000000000000A9        170192964704     
0010001300246U 020000000000000000000000000000000000000000000000000000000000000000000000000000000000000000000000000000000000000000000000001703201700000000            000000000000000                              000                           
0010001300247T 020180230000002544776 29647041334426707   7               19032017000000000006000001000132                         0900000000000010000000000000000000000000000000000000000   0000000000000000000000000A9        170192964704     
0010001300248U 020000000000000000000000000000000000000000000000000000000000000000000000000000000000000000000000000000000000000000000000001703201700000000            000000000000000                              000                           
0010001300249T 020180230000002544776 29647041334615863   7               19032017000000000006000001028029                         0900000000000010500000000000000000000000000000000000000   0000000000000000000000000A9A4      170192964704     
0010001300250U 020000000000000000000000000000000000000000000000000000000000000000000000000000000000000000000000000000000000000000000000001703201700000000            000000000000000                              000                           
0010001300251T 020180230000002544776 29647041334749392   7               19032017000000000006000001028029                         0900000000000010000000000000000000000000000000000000000   0000000000000000000000000A9        170192964704     
0010001300252U 020000000000000000000000000000000000000000000000000000000000000000000000000000000000000000000000000000000000000000000000001703201700000000            000000000000000                              000                           
0010001300253T 020180230000002544776 29647041334929485   7               19032017000000000006000001028029                         0900000000000010000000000000000000000000000000000000000   0000000000000000000000000A9        170192964704     
0010001300254U 020000000000000000000000000000000000000000000000000000000000000000000000000000000000000000000000000000000000000000000000001703201700000000            000000000000000                              000                           
0010001300255T 020180230000002544776 29647041335128490   7               19032017000000000006000001008214                         0900000000000010000000000000000000000000000000000000000   0000000000000000000000000A9        170192964704     
0010001300256U 020000000000000000000000000000000000000000000000000000000000000000000000000000000000000000000000000000000000000000000000001703201700000000            000000000000000                              000                           
0010001300257T 020180230000002544776 29647041335235304   7               19032017000000000006000001016179                         0900000000000010000000000000000000000000000000000000000   0000000000000000000000000A9        170192964704     
0010001300258U 020000000000000000000000000000000000000000000000000000000000000000000000000000000000000000000000000000000000000000000000001703201700000000            000000000000000                              000                           
0010001300259T 020180230000002544776 29647041335316642   7               19032017000000000006000001016179                         0900000000000010000000000000000000000000000000000000000   0000000000000000000000000A9        170192964704     
0010001300260U 020000000000000000000000000000000000000000000000000000000000000000000000000000000000000000000000000000000000000000000000001703201700000000            000000000000000                              000                           
0010001300261T 020180230000002544776 29647041335432526   7               19032017000000000006000001012467                         0900000000000010000000000000000000000000000000000000000   0000000000000000000000000A9        170192964704     
0010001300262U 020000000000000000000000000000000000000000000000000000000000000000000000000000000000000000000000000000000000000000000000001703201700000000            000000000000000                              000                           
0010001300263T 020180230000002544776 29647041335534970   7               19032017000000000006000001010669                         0900000000000010000000000000000000000000000000000000000   0000000000000000000000000A9        170192964704     
0010001300264U 020000000000000000000000000000000000000000000000000000000000000000000000000000000000000000000000000000000000000000000000001703201700000000            000000000000000                              000                           
0010001300265T 020180230000002544776 29647041335723097   7               19032017000000000006000001028495                         0900000000000010000000000000000000000000000000000000000   0000000000000000000000000A9        170192964704     
0010001300266U 020000000000000000000000000000000000000000000000000000000000000000000000000000000000000000000000000000000000000000000000001703201700000000            000000000000000                              000                           
0010001300267T 020180230000002544776 29647041335803777   7               19032017000000000006000001020354                         0900000000000010000000000000000000000000000000000000000   0000000000000000000000000A9        170192964704     
0010001300268U 020000000000000000000000000000000000000000000000000000000000000000000000000000000000000000000000000000000000000000000000001703201700000000            000000000000000                              000                           
0010001300269T 020180230000002544776 29647041336003815   7               19032017000000000006000001000132                         0900000000000010000000000000000000000000000000000000000   0000000000000000000000000A9        170192964704     
0010001300270U 020000000000000000000000000000000000000000000000000000000000000000000000000000000000000000000000000000000000000000000000001703201700000000            000000000000000                              000                           
0010001300271T 020180230000002544776 29647041336045658   7               19032017000000000006000001000132                         0900000000000010000000000000000000000000000000000000000   0000000000000000000000000A9        170192964704     
0010001300272U 020000000000000000000000000000000000000000000000000000000000000000000000000000000000000000000000000000000000000000000000001703201700000000            000000000000000                              000                           
0010001300273T 020180230000002544776 29647041336125737   7               19032017000000000006000001016179                         0900000000000010000000000000000000000000000000000000000   0000000000000000000000000A9        170192964704     
0010001300274U 020000000000000000000000000000000000000000000000000000000000000000000000000000000000000000000000000000000000000000000000001703201700000000            000000000000000                              000                           
0010001300275T 020180230000002544776 29647041336355769   7               19032017000000000006000001028029                         0900000000000010000000000000000000000000000000000000000   0000000000000000000000000A9        170192964704     
0010001300276U 020000000000000000000000000000000000000000000000000000000000000000000000000000000000000000000000000000000000000000000000001703201700000000            000000000000000                              000                           
0010001300277T 020180230000002544776 29647041336533109   7               19032017000000000006000001001597                         0900000000000010000000000000000000000000000000000000000   0000000000000000000000000A9        170192964704     
0010001300278U 020000000000000000000000000000000000000000000000000000000000000000000000000000000000000000000000000000000000000000000000001703201700000000            000000000000000                              000                           
0010001300279T 020180230000002544776 29647041336557799   7               19032017000000000006000001001597                         0900000000000010000000000000000000000000000000000000000   0000000000000000000000000A9        170192964704     
0010001300280U 020000000000000000000000000000000000000000000000000000000000000000000000000000000000000000000000000000000000000000000000001703201700000000            000000000000000                              000                           
0010001300281T 020180230000002544776 29647041336720506   7               19032017000000000006000001012467                         0900000000000010000000000000000000000000000000000000000   0000000000000000000000000A9        170192964704     
0010001300282U 020000000000000000000000000000000000000000000000000000000000000000000000000000000000000000000000000000000000000000000000001703201700000000            000000000000000                              000                           
0010001300283T 020180230000002544776 29647041336848140   7               19032017000000000006000001007145                         0900000000000010000000000000000000000000000000000000000   0000000000000000000000000A9        170192964704     
0010001300284U 020000000000000000000000000000000000000000000000000000000000000000000000000000000000000000000000000000000000000000000000001703201700000000            000000000000000                              000                           
0010001300285T 020180230000002544776 29647041336943035   7               19032017000000000006000001017108                         0900000000000010000000000000000000000000000000000000000   0000000000000000000000000A9        170192964704     
0010001300286U 020000000000000000000000000000000000000000000000000000000000000000000000000000000000000000000000000000000000000000000000001703201700000000            000000000000000                              000                           
0010001300287T 020180230000002544776 29647041337006377   7               19032017000000000006000001023655                         0900000000000010000000000000000000000000000000000000000   0000000000000000000000000A9        170192964704     
0010001300288U 020000000000000000000000000000000000000000000000000000000000000000000000000000000000000000000000000000000000000000000000001703201700000000            000000000000000                              000                           
0010001300289T 020180230000002544776 29647041337015669   7               19032017000000000006000001023655                         0900000000000010000000000000000000000000000000000000000   0000000000000000000000000A9        170192964704     
0010001300290U 020000000000000000000000000000000000000000000000000000000000000000000000000000000000000000000000000000000000000000000000001703201700000000            000000000000000                              000                           
0010001300291T 020180230000002544776 29647041337043398   7               19032017000000000006000001023655                         0900000000000010000000000000000000000000000000000000000   0000000000000000000000000A9        170192964704     
0010001300292U 020000000000000000000000000000000000000000000000000000000000000000000000000000000000000000000000000000000000000000000000001703201700000000            000000000000000                              000                           
0010001300293T 020180230000002544776 29647041337052149   7               19032017000000000006000001023655                         0900000000000010000000000000000000000000000000000000000   0000000000000000000000000A9        170192964704     
0010001300294U 020000000000000000000000000000000000000000000000000000000000000000000000000000000000000000000000000000000000000000000000001703201700000000            000000000000000                              000                           
0010001300295T 020180230000002544776 29647041337126392   7               19032017000000000006000001000132                         0900000000000010000000000000000000000000000000000000000   0000000000000000000000000A9        170192964704     
0010001300296U 020000000000000000000000000000000000000000000000000000000000000000000000000000000000000000000000000000000000000000000000001703201700000000            000000000000000                              000                           
0010001300297T 020180230000002544776 29647041337257153   7               19032017000000000008000001000132                         0900000000000010000000000000000000000000000000000000000   0000000000000000000000000A9        170192964704     
0010001300298U 020000000000000000000000000000000000000000000000000000000000000000000000000000000000000000000000000000000000000000000000001703201700000000            000000000000000                              000                           
0010001300299T 020180230000002544776 29647041337325006   7               19032017000000000006000001018376                         0900000000000010000000000000000000000000000000000000000   0000000000000000000000000A9        170192964704     
0010001300300U 020000000000000000000000000000000000000000000000000000000000000000000000000000000000000000000000000000000000000000000000001703201700000000            000000000000000                              000                           
0010001300301T 020180230000002544776 29647041337720398   7               19032017000000000006000001011274                         0900000000000010000000000000000000000000000000000000000   0000000000000000000000000A9        170192964704     
0010001300302U 020000000000000000000000000000000000000000000000000000000000000000000000000000000000000000000000000000000000000000000000001703201700000000            000000000000000                              000                           
0010001300303T 020180230000002544776 29647041337847275   7               19032017000000000008000001035033                         0900000000000010000000000000000000000000000000000000000   0000000000000000000000000A9        170192964704     
0010001300304U 020000000000000000000000000000000000000000000000000000000000000000000000000000000000000000000000000000000000000000000000001703201700000000            000000000000000                              000                           
0010001300305T 020180230000002544776 29647041337954461   7               19032017000000000006000001028029                         0900000000000010000000000000000000000000000000000000000   0000000000000000000000000A9        170192964704     
0010001300306U 020000000000000000000000000000000000000000000000000000000000000000000000000000000000000000000000000000000000000000000000001703201700000000            000000000000000                              000                           
0010001300307T 020180230000002544776 29647041338052130   7               19032017000000000008000001012467                         0900000000000010000000000000000000000000000000000000000   0000000000000000000000000A9        170192964704     
0010001300308U 020000000000000000000000000000000000000000000000000000000000000000000000000000000000000000000000000000000000000000000000001703201700000000            000000000000000                              000                           
0010001300309T 020180230000002544776 29647041338232641   7               19032017000000000008000001028029                         0900000000000010000000000000000000000000000000000000000   0000000000000000000000000A9        170192964704     
0010001300310U 020000000000000000000000000000000000000000000000000000000000000000000000000000000000000000000000000000000000000000000000001703201700000000            000000000000000                              000                           
0010001300311T 020180230000002544776 29647041338333617   7               19032017000000000008000001001201                         0900000000000010000000000000000000000000000000000000000   0000000000000000000000000A9        170192964704     
0010001300312U 020000000000000000000000000000000000000000000000000000000000000000000000000000000000000000000000000000000000000000000000001703201700000000            000000000000000                              000                           
0010001300313T 020180230000002544776 29647041338416566   7               19032017000000000006000001002321                         0900000000000010000000000000000000000000000000000000000   0000000000000000000000000A9        170192964704     
0010001300314U 020000000000000000000000000000000000000000000000000000000000000000000000000000000000000000000000000000000000000000000000001703201700000000            000000000000000                              000                           
0010001300315T 020180230000002544776 29647041338517854   7               19032017000000000006000001016179                         0900000000000010000000000000000000000000000000000000000   0000000000000000000000000A9        170192964704     
0010001300316U 020000000000000000000000000000000000000000000000000000000000000000000000000000000000000000000000000000000000000000000000001703201700000000            000000000000000                              000                           
0010001300317T 020180230000002544776 29647041338647937   7               19032017000000000006000001035041                         0900000000000010000000000000000000000000000000000000000   0000000000000000000000000A9        170192964704     
0010001300318U 020000000000000000000000000000000000000000000000000000000000000000000000000000000000000000000000000000000000000000000000001703201700000000            000000000000000                              000                           
0010001300319T 020180230000002544776 29647041338718954   7               19032017000000000006000001028029                         0900000000000010000000000000000000000000000000000000000   0000000000000000000000000A9        170192964704     
0010001300320U 020000000000000000000000000000000000000000000000000000000000000000000000000000000000000000000000000000000000000000000000001703201700000000            000000000000000                              000                           
0010001300321T 020180230000002544776 29647041338953814   7               1903201700000000000600000100233X                         0900000000000010000000000000000000000000000000000000000   0000000000000000000000000A9        170192964704     
0010001300322U 020000000000000000000000000000000000000000000000000000000000000000000000000000000000000000000000000000000000000000000000001703201700000000            000000000000000                              000                           
0010001300323T 020180230000002544776 29647041339053174   7               19032017000000000006000001000132                         0900000000000010000000000000000000000000000000000000000   0000000000000000000000000A9        170192964704     
0010001300324U 020000000000000000000000000000000000000000000000000000000000000000000000000000000000000000000000000000000000000000000000001703201700000000            000000000000000                              000                           
0010001300325T 060180230000002544776 29647040655557189   7               18032017000000000006000104010200                         0900000000000010000000000000000000000000000000000000000   000000000000000000000029000        170192964704     
0010001300326U 060000000000000000000000000000000000000000000000000000000000000000000000060000000000000057100000000000000000000000000000001703201721032017            000000000000000                              000                           
0010001300327T 060180230000002544776 29647040718009751   7               18032017000000000006000001012343                         0900000000000010000000000000000000000000000000000000000   000000000000000000000029000        170192964704     
0010001300328U 060000000000000000000000000000000000000000000000000000000000000000000000060000000000000057100000000000000000000000000000001703201721032017            000000000000000                              000                           
0010001300329T 060180230000002544776 29647040839851877   7               1703201700000000000600000108347X                         0900000000000010000000000000000000000000000000000000000   000000000000000000000029000        170192964704     
0010001300330U 060000000000000000000000000000000000000000000000000000000000000000000000060000000000000057100000000000000000000000000000001703201721032017            000000000000000                              000                           
0010001300331T 060180230000002544776 29647040845518167   7               17032017000000000006000001048445                         0900000000000010000000000000000000000000000000000000000   000000000000000000000029000        170192964704     
0010001300332U 060000000000000000000000000000000000000000000000000000000000000000000000060000000000000057100000000000000000000000000000001703201721032017            000000000000000                              000                           
0010001300333T 060180230000002544776 29647040864358984   7               17032017000000000006000104008120                         0900000000000010000000000000000000000000000000000000000   000000000000000000000029000        170192964704     
0010001300334U 060000000000000000000000000000000000000000000000000000000000000000000000060000000000000057100000000000000000000000000000001703201721032017            000000000000000                              000                           
0010001300335T 060180230000002544776 29647040929332903   7               18032017000000000006000001083534                         0900000000000010000000000000000000000000000000000000000   000000000000000000000029000        170192964704     
0010001300336U 060000000000000000000000000000000000000000000000000000000000000000000000060000000000000057100000000000000000000000000000001703201721032017            000000000000000                              000                           
0010001300337T 060180230000002544776 29647040962615817   7               17032017000000000006000001025429                         0900000000000010000000000000000000000000000000000000000   000000000000000000000029000        170192964704     
0010001300338U 060000000000000000000000000000000000000000000000000000000000000000000000060000000000000057100000000000000000000000000000001703201721032017            000000000000000                              000                           
0010001300339T 060180230000002544776 29647041010500167   7               18032017000000000006000104034870                         0900000000000010000000000000000000000000000000000000000   000000000000000000000029000        170192964704     
0010001300340U 060000000000000000000000000000000000000000000000000000000000000000000000060000000000000057100000000000000000000000000000001703201721032017            000000000000000                              000                           
0010001300341T 060180230000002544776 29647041078158165   7               18032017000000000006000001043575                         0900000000000010000000000000000000000000000000000000000   000000000000000000000029000        170192964704     
0010001300342U 060000000000000000000000000000000000000000000000000000000000000000000000060000000000000057100000000000000000000000000000001703201721032017            000000000000000                              000                           
0010001300343T 060180230000002544776 29647041140620377   7               17032017000000000008000237015940                         0900000000000010000000000000000000000000000000000000000   000000000000000000000029000        170192964704     
0010001300344U 060000000000000000000000000000000000000000000000000000000000000000000000080000000000000077100000000000000000000000000000001703201721032017            000000000000000                              000                           
0010001300345T 060180230000002544776 29647041145524632   7               17032017000000000006000001016365                         0900000000000010000000000000000000000000000000000000000   000000000000000000000029000        170192964704     
0010001300346U 060000000000000000000000000000000000000000000000000000000000000000000000060000000000000057100000000000000000000000000000001703201721032017            000000000000000                              000                           
0010001300347T 060180230000002544776 29647041163447773   7               17032017000000000006000104034880                         0900000000000010000000000000000000000000000000000000000   000000000000000000000029000        170192964704     
0010001300348U 060000000000000000000000000000000000000000000000000000000000000000000000060000000000000057100000000000000000000000000000001703201721032017            000000000000000                              000                           
0010001300349T 060180230000002544776 29647041198948965   7               19032017000000000006000001083534                         0900000000000010000000000000000000000000000000000000000   000000000000000000000029000        170192964704     
0010001300350U 060000000000000000000000000000000000000000000000000000000000000000000000060000000000000057100000000000000000000000000000001703201721032017            000000000000000                              000                           
0010001300351T 060180230000002544776 29647041235808269   7               18032017000000000006000001083607                         0900000000000010000000000000000000000000000000000000000   000000000000000000000029000        170192964704     
0010001300352U 060000000000000000000000000000000000000000000000000000000000000000000000060000000000000057100000000000000000000000000000001703201721032017            000000000000000                              000                           
0010001300353T 060180230000002544776 29647041240724411   7               18032017000000000006000341008140                         0900000000000010000000000000000000000000000000000000000   000000000000000000000029000        170192964704     
0010001300354U 060000000000000000000000000000000000000000000000000000000000000000000000060000000000000057100000000000000000000000000000001703201721032017            000000000000000                              000                           
0010001300355T 060180230000002544776 29647041262715488   7               19032017000000000006000634000190                         0900000000000010000000000000000000000000000000000000000   000000000000000000000029000        170192964704     
0010001300356U 060000000000000000000000000000000000000000000000000000000000000000000000060000000000000057100000000000000000000000000000001703201721032017            000000000000000                              000                           
0010001300357T 060180230000002544776 29647041265717297   7               18032017000000000006000104000390                         0900000000000010000000000000000000000000000000000000000   000000000000000000000029000        170192964704     
0010001300358U 060000000000000000000000000000000000000000000000000000000000000000000000060000000000000057100000000000000000000000000000001703201721032017            000000000000000                              000                           
0010001300359T 060180230000002544776 29647041273146455   7               19032017000000000006000341003620                         0900000000000010000000000000000000000000000000000000000   000000000000000000000029000        170192964704     
0010001300360U 060000000000000000000000000000000000000000000000000000000000000000000000060000000000000057100000000000000000000000000000001703201721032017            000000000000000                              000                           
0010001300361T 060180230000002544776 29647041281907937   7               18032017000000000006000033040160                         0900000000000010000000000000000000000000000000000000000   000000000000000000000029000        170192964704     
0010001300362U 060000000000000000000000000000000000000000000000000000000000000000000000060000000000000057100000000000000000000000000000001703201721032017            000000000000000                              000                           
0010001300363T 060180230000002544776 29647041286723321   7               17032017000000000008000104007350                         0900000000000010000000000000000000000000000000000000000   000000000000000000000029000        170192964704     
0010001300364U 060000000000000000000000000000000000000000000000000000000000000000000000080000000000000077100000000000000000000000000000001703201721032017            000000000000000                              000                           
0010001300365T 060180230000002544776 29647041293748366   7               17032017000000000006000104018900                         0900000000000010000000000000000000000000000000000000000   000000000000000000000029000        170192964704     
0010001300366U 060000000000000000000000000000000000000000000000000000000000000000000000060000000000000057100000000000000000000000000000001703201721032017            000000000000000                              000                           
0010001300367T 060180230000002544776 29647041294135349   7               17032017000000000006000001008672                         0900000000000010000000000000000000000000000000000000000   000000000000000000000029000        170192964704     
0010001300368U 060000000000000000000000000000000000000000000000000000000000000000000000060000000000000057100000000000000000000000000000001703201721032017            000000000000000                              000                           
0010001300369T 060180230000002544776 29647041294712662   7               17032017000000000006000104010280                         0900000000000010000000000000000000000000000000000000000   000000000000000000000029000        170192964704     
0010001300370U 060000000000000000000000000000000000000000000000000000000000000000000000060000000000000057100000000000000000000000000000001703201721032017            000000000000000                              000                           
0010001300371T 060180230000002544776 29647041299629491   7               17032017000000000006000001001511                         0900000000000010000000000000000000000000000000000000000   000000000000000000000029000        170192964704     
0010001300372U 060000000000000000000000000000000000000000000000000000000000000000000000060000000000000057100000000000000000000000000000001703201721032017            000000000000000                              000                           
0010001300373T 060180230000002544776 29647041301248103   7               17032017000000000006000104030170                         0900000000000010000000000000000000000000000000000000000   000000000000000000000029000        170192964704     
0010001300374U 060000000000000000000000000000000000000000000000000000000000000000000000060000000000000057100000000000000000000000000000001703201721032017            000000000000000                              000                           
0010001300375T 060180230000002544776 29647041301631488   7               17032017000000000006000001028746                         0900000000000010000000000000000000000000000000000000000   000000000000000000000029000        170192964704     
0010001300376U 060000000000000000000000000000000000000000000000000000000000000000000000060000000000000057100000000000000000000000000000001703201721032017            000000000000000                              000                           
0010001300377T 170180230000002544776 29647041301707257   7               00000000000000000006000104005480                         0900000000000010000000000000000000000000000000000000000   000000000000000000000070003        170192964704     
0010001300378U 170000000000000000000000000000000000000000000000000000000000000000000000060000000000000053000000000000000000000000000000001703201721032017            000000000000000                              000                           
0010001300379T 060180230000002544776 29647041303218063   7               17032017000000000008000748022040                         0900000000000010000000000000000000000000000000000000000   000000000000000000000029000        170192964704     
0010001300380U 060000000000000000000000000000000000000000000000000000000000000000000000080000000000000077100000000000000000000000000000001703201721032017            000000000000000                              000                           
0010001300381T 060180230000002544776 29647041303718499   7               19032017000000000006000001048445                         0900000000000010000000000000000000000000000000000000000   000000000000000000000029000        170192964704     
0010001300382U 060000000000000000000000000000000000000000000000000000000000000000000000060000000000000057100000000000000000000000000000001703201721032017            000000000000000                              000                           
0010001300383T 060180230000002544776 29647041303917533   7               17032017000000000006000748022040                         0900000000000010000000000000000000000000000000000000000   000000000000000000000029000        170192964704     
0010001300384U 060000000000000000000000000000000000000000000000000000000000000000000000060000000000000057100000000000000000000000000000001703201721032017            000000000000000                              000                           
0010001300385T 060180230000002544776 29647041304252728   7               17032017000000000008000001050261                         0900000000000010000000000000000000000000000000000000000   000000000000000000000029000        170192964704     
0010001300386U 060000000000000000000000000000000000000000000000000000000000000000000000080000000000000077100000000000000000000000000000001703201721032017            000000000000000                              000                           
0010001300387T 060180230000002544776 29647041311820707   7               18032017000000000006000104000390                         0900000000000010000000000000000000000000000000000000000   000000000000000000000029000        170192964704     
0010001300388U 060000000000000000000000000000000000000000000000000000000000000000000000060000000000000057100000000000000000000000000000001703201721032017            000000000000000                              000                           
0010001300389T 060180230000002544776 29647041313159829   7               18032017000000000006000033040200                         0900000000000010000000000000000000000000000000000000000   000000000000000000000029000        170192964704     
0010001300390U 060000000000000000000000000000000000000000000000000000000000000000000000060000000000000057100000000000000000000000000000001703201721032017            000000000000000                              000                           
0010001300391T 060180230000002544776 29647041316956396   7               18032017000000000006000001018376                         0900000000000010000000000000000000000000000000000000000   000000000000000000000029000        170192964704     
0010001300392U 060000000000000000000000000000000000000000000000000000000000000000000000060000000000000057100000000000000000000000000000001703201721032017            000000000000000                              000                           
0010001300393T 060180230000002544776 29647041323803716   7               18032017000000000008000104000410                         0900000000000010000000000000000000000000000000000000000   000000000000000000000029000        170192964704     
0010001300394U 060000000000000000000000000000000000000000000000000000000000000000000000080000000000000077100000000000000000000000000000001703201721032017            000000000000000                              000                           
0010001300395T 060180230000002544776 29647041328815198   7               19032017000000000008000001083534                         0900000000000010000000000000000000000000000000000000000   000000000000000000000029000        170192964704     
0010001300396U 060000000000000000000000000000000000000000000000000000000000000000000000080000000000000077100000000000000000000000000000001703201721032017            000000000000000                              000                           
0010001300397T 060180230000002544776 29647041333404202   7               19032017000000000006000104009040                         0900000000000010000000000000000000000000000000000000000   000000000000000000000029000        170192964704     
0010001300398U 060000000000000000000000000000000000000000000000000000000000000000000000060000000000000057100000000000000000000000000000001703201721032017            000000000000000                              000                           
0010001300399T 280180230000002544776 29647040506056570   7               15022017000000000006000001000000                         0900000000000000000000000000000000000000000000000000000   000000000000000000000005002        170192964704     
0010001300400U 280000000000000000000000000000000000000000000000000000000000000000000000000000000000000000000000000000000000000000000000001703201700000000            000000000000000                              000                           
0010001300401T 280180230000002544776 29647040508543011   7               15022017000000000006000001000000                         0900000000000000000000000000000000000000000000000000000   000000000000000000000005002        170192964704     
0010001300402U 280000000000000000000000000000000000000000000000000000000000000000000000000000000000000000000000000000000000000000000000001703201700000000            000000000000000                              000                           
0010001300403T 280180230000002544776 29647040509258749   7               15022017000000000006000001000000                         0900000000000000000000000000000000000000000000000000000   000000000000000000000005002        170192964704     
0010001300404U 280000000000000000000000000000000000000000000000000000000000000000000000000000000000000000000000000000000000000000000000001703201700000000            000000000000000                              000                           
0010001300405T 280180230000002544776 29647040514004370   7               15022017000000000006000001000000                         0900000000000000000000000000000000000000000000000000000   000000000000000000000005002        170192964704     
0010001300406U 280000000000000000000000000000000000000000000000000000000000000000000000000000000000000000000000000000000000000000000000001703201700000000            000000000000000                              000                           
0010001300407T 280180230000002544776 29647040524505980   7               15022017000000000008000001000000                         0900000000000000000000000000000000000000000000000000000   000000000000000000000005002        170192964704     
0010001300408U 280000000000000000000000000000000000000000000000000000000000000000000000000000000000000000000000000000000000000000000000001703201700000000            000000000000000                              000                           
0010001300409T 280180230000002544776 29647040528259896   7               15022017000000000006000001000000                         0900000000000000000000000000000000000000000000000000000   000000000000000000000005002        170192964704     
0010001300410U 280000000000000000000000000000000000000000000000000000000000000000000000000000000000000000000000000000000000000000000000001703201700000000            000000000000000                              000                           
0010001300411T 280180230000002544776 29647040529830686   7               15022017000000000006000001000000                         0900000000000000000000000000000000000000000000000000000   000000000000000000000005002        170192964704     
0010001300412U 280000000000000000000000000000000000000000000000000000000000000000000000000000000000000000000000000000000000000000000000001703201700000000            000000000000000                              000                           
