00100000         2247745860001000029647040014       0180230000002544776 INSTITUTO DE SELECAO E TECNOLOBANCO DO BRASIL                         22003201702172700006803000000515122941PROCESSAMEN                                                 
00100011T0100020 20247745860001000029647040014       0180230000002544776 INSTITUTO DE SELECAO E TECNOLO                                                                                000000002003201700000000  000000000                      
0010001300001T 020180230000002544776 29647040555959825   7               22032017000000000008000001016179                         0900000000000010000000000000000000000000000000000000000   0000000000000000000000000A9        170192964704     
0010001300002U 020000000000000000000000000000000000000000000000000000000000000000000000000000000000000000000000000000000000000000000000002003201700000000            000000000000000                              000                           
0010001300003T 020180230000002544776 29647040568912337   7               20032017000000000006000001010189                         0900000000000010000000000000000000000000000000000000000   0000000000000000000000000A9        170192964704     
0010001300004U 020000000000000000000000000000000000000000000000000000000000000000000000000000000000000000000000000000000000000000000000001803201700000000            000000000000000                              000                           
0010001300005T 020180230000002544776 29647040569835160   7               22032017000000000006000001033316                         0900000000000010000000000000000000000000000000000000000   0000000000000000000000000A9        170192964704     
0010001300006U 020000000000000000000000000000000000000000000000000000000000000000000000000000000000000000000000000000000000000000000000002003201700000000            000000000000000                              000                           
0010001300007T 020180230000002544776 29647040572725647   7               20032017000000000006000001000132                         0900000000000010000000000000000000000000000000000000000   0000000000000000000000000A9        170192964704     
0010001300008U 020000000000000000000000000000000000000000000000000000000000000000000000000000000000000000000000000000000000000000000000001803201700000000            000000000000000                              000                           
0010001300009T 020180230000002544776 29647040583442014   7               22032017000000000006000001023655                         0900000000000010000000000000000000000000000000000000000   0000000000000000000000000A9        170192964704     
0010001300010U 020000000000000000000000000000000000000000000000000000000000000000000000000000000000000000000000000000000000000000000000002003201700000000            000000000000000                              000                           
0010001300011T 020180230000002544776 29647040584730320   7               22032017000000000006000001023655                         0900000000000010000000000000000000000000000000000000000   0000000000000000000000000A9        170192964704     
0010001300012U 020000000000000000000000000000000000000000000000000000000000000000000000000000000000000000000000000000000000000000000000002003201700000000            000000000000000                              000                           
0010001300013T 020180230000002544776 29647040584738274   7               22032017000000000006000001023655                         0900000000000010000000000000000000000000000000000000000   0000000000000000000000000A9        170192964704     
0010001300014U 020000000000000000000000000000000000000000000000000000000000000000000000000000000000000000000000000000000000000000000000002003201700000000            000000000000000                              000                           
0010001300015T 020180230000002544776 29647040597118471   7               22032017000000000006000001000132                         0900000000000010000000000000000000000000000000000000000   0000000000000000000000000A9        170192964704     
0010001300016U 020000000000000000000000000000000000000000000000000000000000000000000000000000000000000000000000000000000000000000000000002003201700000000            000000000000000                              000                           
0010001300017T 020180230000002544776 29647040597905393   7               21032017000000000006000001008214                         0900000000000010000000000000000000000000000000000000000   0000000000000000000000000A9        170192964704     
0010001300018U 020000000000000000000000000000000000000000000000000000000000000000000000000000000000000000000000000000000000000000000000001903201700000000            000000000000000                              000                           
0010001300019T 020180230000002544776 29647040619509368   7               20032017000000000006000001012467                         0900000000000010000000000000000000000000000000000000000   0000000000000000000000000A9        170192964704     
0010001300020U 020000000000000000000000000000000000000000000000000000000000000000000000000000000000000000000000000000000000000000000000001803201700000000            000000000000000                              000                           
0010001300021T 020180230000002544776 29647040632038806   7               22032017000000000006000001016179                         0900000000000010000000000000000000000000000000000000000   0000000000000000000000000A9        170192964704     
0010001300022U 020000000000000000000000000000000000000000000000000000000000000000000000000000000000000000000000000000000000000000000000002003201700000000            000000000000000                              000                           
0010001300023T 020180230000002544776 29647040638614128   7               22032017000000000006000001016179                         0900000000000010000000000000000000000000000000000000000   0000000000000000000000000A9        170192964704     
0010001300024U 020000000000000000000000000000000000000000000000000000000000000000000000000000000000000000000000000000000000000000000000002003201700000000            000000000000000                              000                           
0010001300025T 020180230000002544776 29647040641133390   7               21032017000000000006000001016179                         0900000000000010000000000000000000000000000000000000000   0000000000000000000000000A9        170192964704     
0010001300026U 020000000000000000000000000000000000000000000000000000000000000000000000000000000000000000000000000000000000000000000000001903201700000000            000000000000000                              000                           
0010001300027T 020180230000002544776 29647040700505321   7               22032017000000000006000001012467                         0900000000000010500000000000000000000000000000000000000   0000000000000000000000000A9A4      170192964704     
0010001300028U 020000000000000000000000000000000000000000000000000000000000000000000000000000000000000000000000000000000000000000000000002003201700000000            000000000000000                              000                           
0010001300029T 020180230000002544776 29647040725223806   7               20032017000000000006000001009849                         0900000000000010000000000000000000000000000000000000000   0000000000000000000000000A9        170192964704     
0010001300030U 020000000000000000000000000000000000000000000000000000000000000000000000000000000000000000000000000000000000000000000000001803201700000000            000000000000000                              000                           
0010001300031T 020180230000002544776 29647040725224863   7               22032017000000000006000001009849                         0900000000000010000000000000000000000000000000000000000   0000000000000000000000000A9        170192964704     
0010001300032U 020000000000000000000000000000000000000000000000000000000000000000000000000000000000000000000000000000000000000000000000002003201700000000            000000000000000                              000                           
0010001300033T 020180230000002544776 29647040771031887   7               22032017000000000006000001035033                         0900000000000010000000000000000000000000000000000000000   0000000000000000000000000A9        170192964704     
0010001300034U 020000000000000000000000000000000000000000000000000000000000000000000000000000000000000000000000000000000000000000000000002003201700000000            000000000000000                              000                           
0010001300035T 020180230000002544776 29647040775114437   7               20032017000000000008000001028029                         0900000000000010500000000000000000000000000000000000000   0000000000000000000000000A9A4      170192964704     
0010001300036U 020000000000000000000000000000000000000000000000000000000000000000000000000000000000000000000000000000000000000000000000001803201700000000            000000000000000                              000                           
0010001300037T 020180230000002544776 29647040775137158   7               20032017000000000008000001028029                         0900000000000010500000000000000000000000000000000000000   0000000000000000000000000A9A4      170192964704     
0010001300038U 020000000000000000000000000000000000000000000000000000000000000000000000000000000000000000000000000000000000000000000000001803201700000000            000000000000000                              000                           
0010001300039T 020180230000002544776 29647040781117390   7               20032017000000000006000001028029                         0900000000000010000000000000000000000000000000000000000   0000000000000000000000000A9        170192964704     
0010001300040U 020000000000000000000000000000000000000000000000000000000000000000000000000000000000000000000000000000000000000000000000001803201700000000            000000000000000                              000                           
0010001300041T 020180230000002544776 29647040781145267   7               20032017000000000006000001028029                         0900000000000010000000000000000000000000000000000000000   0000000000000000000000000A9        170192964704     
0010001300042U 020000000000000000000000000000000000000000000000000000000000000000000000000000000000000000000000000000000000000000000000001803201700000000            000000000000000                              000                           
0010001300043T 020180230000002544776 29647040808652080   7               22032017000000000006000001035041                         0900000000000010000000000000000000000000000000000000000   0000000000000000000000000A9        170192964704     
0010001300044U 020000000000000000000000000000000000000000000000000000000000000000000000000000000000000000000000000000000000000000000000002003201700000000            000000000000000                              000                           
0010001300045T 020180230000002544776 29647040859220064   7               22032017000000000006000001028029                         0900000000000010000000000000000000000000000000000000000   0000000000000000000000000A9        170192964704     
0010001300046U 020000000000000000000000000000000000000000000000000000000000000000000000000000000000000000000000000000000000000000000000002003201700000000            000000000000000                              000                           
0010001300047T 020180230000002544776 29647040866752378   7               2203201700000000000800000100880X                         0900000000000010000000000000000000000000000000000000000   0000000000000000000000000A9        170192964704     
0010001300048U 020000000000000000000000000000000000000000000000000000000000000000000000000000000000000000000000000000000000000000000000002003201700000000            000000000000000                              000                           
0010001300049T 020180230000002544776 29647040893258483   7               22032017000000000006000001000132                         0900000000000010000000000000000000000000000000000000000   0000000000000000000000000A9        170192964704     
0010001300050U 020000000000000000000000000000000000000000000000000000000000000000000000000000000000000000000000000000000000000000000000002003201700000000            000000000000000                              000                           
0010001300051T 020180230000002544776 29647040894629573   7               22032017000000000006000001016179                         0900000000000010000000000000000000000000000000000000000   0000000000000000000000000A9        170192964704     
0010001300052U 020000000000000000000000000000000000000000000000000000000000000000000000000000000000000000000000000000000000000000000000002003201700000000            000000000000000                              000                           
0010001300053T 020180230000002544776 29647040894643459   7               22032017000000000006000001016179                         0900000000000010000000000000000000000000000000000000000   0000000000000000000000000A9        170192964704     
0010001300054U 020000000000000000000000000000000000000000000000000000000000000000000000000000000000000000000000000000000000000000000000002003201700000000            000000000000000                              000                           
0010001300055T 020180230000002544776 29647040897606008   7               22032017000000000006000001018376                         0900000000000010000000000000000000000000000000000000000   0000000000000000000000000A9        170192964704     
0010001300056U 020000000000000000000000000000000000000000000000000000000000000000000000000000000000000000000000000000000000000000000000002003201700000000            000000000000000                              000                           
0010001300057T 020180230000002544776 29647040907826871   7               20032017000000000006000001006254                         0900000000000010000000000000000000000000000000000000000   0000000000000000000000000A9        170192964704     
0010001300058U 020000000000000000000000000000000000000000000000000000000000000000000000000000000000000000000000000000000000000000000000001803201700000000            000000000000000                              000                           
0010001300059T 020180230000002544776 29647040910007718   7               22032017000000000006000001028029                         0900000000000010000000000000000000000000000000000000000   0000000000000000000000000A9        170192964704     
0010001300060U 020000000000000000000000000000000000000000000000000000000000000000000000000000000000000000000000000000000000000000000000002003201700000000            000000000000000                              000                           
0010001300061T 020180230000002544776 29647040912543225   7               2203201700000000000600000100233X                         0900000000000010000000000000000000000000000000000000000   0000000000000000000000000A9        170192964704     
0010001300062U 020000000000000000000000000000000000000000000000000000000000000000000000000000000000000000000000000000000000000000000000002003201700000000            000000000000000                              000                           
0010001300063T 020180230000002544776 29647040936406239   7               21032017000000000006000001013617                         0900000000000010500000000000000000000000000000000000000   0000000000000000000000000A9A4      170192964704     
0010001300064U 020000000000000000000000000000000000000000000000000000000000000000000000000000000000000000000000000000000000000000000000001903201700000000            000000000000000                              000                           
0010001300065T 020180230000002544776 29647040938411813   7               22032017000000000006000001023264                         0900000000000010000000000000000000000000000000000000000   0000000000000000000000000A9        170192964704     
0010001300066U 020000000000000000000000000000000000000000000000000000000000000000000000000000000000000000000000000000000000000000000000002003201700000000            000000000000000                              000                           
0010001300067T 020180230000002544776 29647040942345815   7               21032017000000000006000001018376                         0900000000000010500000000000000000000000000000000000000   0000000000000000000000000A9A4      170192964704     
0010001300068U 020000000000000000000000000000000000000000000000000000000000000000000000000000000000000000000000000000000000000000000000001903201700000000            000000000000000                              000                           
0010001300069T 020180230000002544776 29647040945911311   7               22032017000000000008000001016179                         0900000000000010500000000000000000000000000000000000000   0000000000000000000000000A9A4      170192964704     
0010001300070U 020000000000000000000000000000000000000000000000000000000000000000000000000000000000000000000000000000000000000000000000002003201700000000            000000000000000                              000                           
0010001300071T 020180230000002544776 29647040950917112   7               20032017000000000006000001000132                         0900000000000010000000000000000000000000000000000000000   0000000000000000000000000A9        170192964704     
0010001300072U 020000000000000000000000000000000000000000000000000000000000000000000000000000000000000000000000000000000000000000000000001803201700000000            000000000000000                              000                           
0010001300073T 020180230000002544776 29647040951731594   7               22032017000000000006000001018376                         0900000000000010000000000000000000000000000000000000000   0000000000000000000000000A9        170192964704     
0010001300074U 020000000000000000000000000000000000000000000000000000000000000000000000000000000000000000000000000000000000000000000000002003201700000000            000000000000000                              000                           
0010001300075T 020180230000002544776 29647040957501628   7               22032017000000000006000001018376                         0900000000000010000000000000000000000000000000000000000   0000000000000000000000000A9        170192964704     
0010001300076U 020000000000000000000000000000000000000000000000000000000000000000000000000000000000000000000000000000000000000000000000002003201700000000            000000000000000                              000                           
0010001300077T 020180230000002544776 29647040957911706   7               22032017000000000006000001028029                         0900000000000010000000000000000000000000000000000000000   0000000000000000000000000A9        170192964704     
0010001300078U 020000000000000000000000000000000000000000000000000000000000000000000000000000000000000000000000000000000000000000000000002003201700000000            000000000000000                              000                           
0010001300079T 020180230000002544776 29647040957924097   7               22032017000000000006000001028029                         0900000000000010000000000000000000000000000000000000000   0000000000000000000000000A9        170192964704     
0010001300080U 020000000000000000000000000000000000000000000000000000000000000000000000000000000000000000000000000000000000000000000000002003201700000000            000000000000000                              000                           
0010001300081T 020180230000002544776 29647040957939572   7               22032017000000000006000001028029                         0900000000000010000000000000000000000000000000000000000   0000000000000000000000000A9        170192964704     
0010001300082U 020000000000000000000000000000000000000000000000000000000000000000000000000000000000000000000000000000000000000000000000002003201700000000            000000000000000                              000                           
0010001300083T 020180230000002544776 29647040996907271   7               21032017000000000006000001016020                         0900000000000010000000000000000000000000000000000000000   0000000000000000000000000A9        170192964704     
0010001300084U 020000000000000000000000000000000000000000000000000000000000000000000000000000000000000000000000000000000000000000000000001903201700000000            000000000000000                              000                           
0010001300085T 020180230000002544776 29647041002302405   7               22032017000000000006000001033316                         0900000000000010000000000000000000000000000000000000000   0000000000000000000000000A9        170192964704     
0010001300086U 020000000000000000000000000000000000000000000000000000000000000000000000000000000000000000000000000000000000000000000000002003201700000000            000000000000000                              000                           
0010001300087T 020180230000002544776 29647041002314921   7               22032017000000000006000001033316                         0900000000000010000000000000000000000000000000000000000   0000000000000000000000000A9        170192964704     
0010001300088U 020000000000000000000000000000000000000000000000000000000000000000000000000000000000000000000000000000000000000000000000002003201700000000            000000000000000                              000                           
0010001300089T 020180230000002544776 29647041036357038   7               20032017000000000006000001000698                         0900000000000010000000000000000000000000000000000000000   0000000000000000000000000A9        170192964704     
0010001300090U 020000000000000000000000000000000000000000000000000000000000000000000000000000000000000000000000000000000000000000000000001803201700000000            000000000000000                              000                           
0010001300091T 020180230000002544776 29647041056526005   7               20032017000000000006000001033316                         0900000000000010000000000000000000000000000000000000000   0000000000000000000000000A9        170192964704     
0010001300092U 020000000000000000000000000000000000000000000000000000000000000000000000000000000000000000000000000000000000000000000000001803201700000000            000000000000000                              000                           
0010001300093T 020180230000002544776 29647041056533874   7               20032017000000000006000001033316                         0900000000000010000000000000000000000000000000000000000   0000000000000000000000000A9        170192964704     
0010001300094U 020000000000000000000000000000000000000000000000000000000000000000000000000000000000000000000000000000000000000000000000001803201700000000            000000000000000                              000                           
0010001300095T 020180230000002544776 29647041056540376   7               20032017000000000006000001033316                         0900000000000010000000000000000000000000000000000000000   0000000000000000000000000A9        170192964704     
0010001300096U 020000000000000000000000000000000000000000000000000000000000000000000000000000000000000000000000000000000000000000000000001803201700000000            000000000000000                              000                           
0010001300097T 020180230000002544776 29647041096837237   7               21032017000000000008000001012467                         0900000000000010000000000000000000000000000000000000000   0000000000000000000000000A9        170192964704     
0010001300098U 020000000000000000000000000000000000000000000000000000000000000000000000000000000000000000000000000000000000000000000000001903201700000000            000000000000000                              000                           
0010001300099T 020180230000002544776 29647041098326730   7               22032017000000000006000001012467                         0900000000000010000000000000000000000000000000000000000   0000000000000000000000000A9        170192964704     
0010001300100U 020000000000000000000000000000000000000000000000000000000000000000000000000000000000000000000000000000000000000000000000002003201700000000            000000000000000                              000                           
0010001300101T 020180230000002544776 29647041102520558   7               20032017000000000006000001016179                         0900000000000010000000000000000000000000000000000000000   0000000000000000000000000A9        170192964704     
0010001300102U 020000000000000000000000000000000000000000000000000000000000000000000000000000000000000000000000000000000000000000000000001803201700000000            000000000000000                              000                           
0010001300103T 020180230000002544776 29647041106732050   7               22032017000000000006000001028029                         0900000000000010000000000000000000000000000000000000000   0000000000000000000000000A9        170192964704     
0010001300104U 020000000000000000000000000000000000000000000000000000000000000000000000000000000000000000000000000000000000000000000000002003201700000000            000000000000000                              000                           
0010001300105T 020180230000002544776 29647041109454885   7               22032017000000000006000001008214                         0900000000000010000000000000000000000000000000000000000   0000000000000000000000000A9        170192964704     
0010001300106U 020000000000000000000000000000000000000000000000000000000000000000000000000000000000000000000000000000000000000000000000002003201700000000            000000000000000                              000                           
0010001300107T 020180230000002544776 29647041118309145   7               22032017000000000008000001035033                         0900000000000010000000000000000000000000000000000000000   0000000000000000000000000A9        170192964704     
0010001300108U 020000000000000000000000000000000000000000000000000000000000000000000000000000000000000000000000000000000000000000000000002003201700000000            000000000000000                              000                           
0010001300109T 020180230000002544776 29647041118422393   7               22032017000000000006000001005703                         0900000000000010000000000000000000000000000000000000000   0000000000000000000000000A9        170192964704     
0010001300110U 020000000000000000000000000000000000000000000000000000000000000000000000000000000000000000000000000000000000000000000000002003201700000000            000000000000000                              000                           
0010001300111T 020180230000002544776 29647041133826742   7               20032017000000000006000001028029                         0900000000000010000000000000000000000000000000000000000   0000000000000000000000000A9        170192964704     
0010001300112U 020000000000000000000000000000000000000000000000000000000000000000000000000000000000000000000000000000000000000000000000001803201700000000            000000000000000                              000                           
0010001300113T 020180230000002544776 29647041137906225   7               22032017000000000006000001033316                         0900000000000010000000000000000000000000000000000000000   0000000000000000000000000A9        170192964704     
0010001300114U 020000000000000000000000000000000000000000000000000000000000000000000000000000000000000000000000000000000000000000000000002003201700000000            000000000000000                              000                           
0010001300115T 020180230000002544776 29647041141424517   7               2203201700000000000600000102256X                         0900000000000010000000000000000000000000000000000000000   0000000000000000000000000A9        170192964704     
0010001300116U 020000000000000000000000000000000000000000000000000000000000000000000000000000000000000000000000000000000000000000000000002003201700000000            000000000000000                              000                           
0010001300117T 020180230000002544776 29647041152207153   7               22032017000000000008000001012467                         0900000000000010000000000000000000000000000000000000000   0000000000000000000000000A9        170192964704     
0010001300118U 020000000000000000000000000000000000000000000000000000000000000000000000000000000000000000000000000000000000000000000000002003201700000000            000000000000000                              000                           
0010001300119T 020180230000002544776 29647041152947883   7               22032017000000000008000001001597                         0900000000000010000000000000000000000000000000000000000   0000000000000000000000000A9        170192964704     
0010001300120U 020000000000000000000000000000000000000000000000000000000000000000000000000000000000000000000000000000000000000000000000002003201700000000            000000000000000                              000                           
0010001300121T 020180230000002544776 29647041157816096   7               22032017000000000006000001023655                         0900000000000010000000000000000000000000000000000000000   0000000000000000000000000A9        170192964704     
0010001300122U 020000000000000000000000000000000000000000000000000000000000000000000000000000000000000000000000000000000000000000000000002003201700000000            000000000000000                              000                           
0010001300123T 020180230000002544776 29647041157820738   7               22032017000000000006000001023655                         0900000000000010000000000000000000000000000000000000000   0000000000000000000000000A9        170192964704     
0010001300124U 020000000000000000000000000000000000000000000000000000000000000000000000000000000000000000000000000000000000000000000000002003201700000000            000000000000000                              000                           
0010001300125T 020180230000002544776 29647041164018773   7               21032017000000000006000001008214                         0900000000000010000000000000000000000000000000000000000   0000000000000000000000000A9        170192964704     
0010001300126U 020000000000000000000000000000000000000000000000000000000000000000000000000000000000000000000000000000000000000000000000001903201700000000            000000000000000                              000                           
0010001300127T 020180230000002544776 29647041202625702   7               2203201700000000000600000100331X                         0900000000000010000000000000000000000000000000000000000   0000000000000000000000000A9        170192964704     
0010001300128U 020000000000000000000000000000000000000000000000000000000000000000000000000000000000000000000000000000000000000000000000002003201700000000            000000000000000                              000                           
0010001300129T 020180230000002544776 29647041208304195   7               20032017000000000006000001010588                         0900000000000010000000000000000000000000000000000000000   0000000000000000000000000A9        170192964704     
0010001300130U 020000000000000000000000000000000000000000000000000000000000000000000000000000000000000000000000000000000000000000000000001803201700000000            000000000000000                              000                           
0010001300131T 020180230000002544776 29647041210328183   7               20032017000000000006000001012467                         0900000000000010500000000000000000000000000000000000000   0000000000000000000000000A9A4      170192964704     
0010001300132U 020000000000000000000000000000000000000000000000000000000000000000000000000000000000000000000000000000000000000000000000001803201700000000            000000000000000                              000                           
0010001300133T 020180230000002544776 29647041211828064   7               22032017000000000006000001020354                         0900000000000010000000000000000000000000000000000000000   0000000000000000000000000A9        170192964704     
0010001300134U 020000000000000000000000000000000000000000000000000000000000000000000000000000000000000000000000000000000000000000000000002003201700000000            000000000000000                              000                           
0010001300135T 020180230000002544776 29647041216101470   7               22032017000000000006000001016179                         0900000000000010000000000000000000000000000000000000000   0000000000000000000000000A9        170192964704     
0010001300136U 020000000000000000000000000000000000000000000000000000000000000000000000000000000000000000000000000000000000000000000000002003201700000000            000000000000000                              000                           
0010001300137T 020180230000002544776 29647041230116216   7               22032017000000000006000001010421                         0900000000000010000000000000000000000000000000000000000   0000000000000000000000000A9        170192964704     
0010001300138U 020000000000000000000000000000000000000000000000000000000000000000000000000000000000000000000000000000000000000000000000002003201700000000            000000000000000                              000                           
0010001300139T 020180230000002544776 29647041236739190   7               2203201700000000000600000100099X                         0900000000000010000000000000000000000000000000000000000   0000000000000000000000000A9        170192964704     
0010001300140U 020000000000000000000000000000000000000000000000000000000000000000000000000000000000000000000000000000000000000000000000002003201700000000            000000000000000                              000                           
0010001300141T 020180230000002544776 29647041236741472   7               2203201700000000000600000100099X                         0900000000000010000000000000000000000000000000000000000   0000000000000000000000000A9        170192964704     
0010001300142U 020000000000000000000000000000000000000000000000000000000000000000000000000000000000000000000000000000000000000000000000002003201700000000            000000000000000                              000                           
0010001300143T 020180230000002544776 29647041236756228   7               2203201700000000000600000100099X                         0900000000000010000000000000000000000000000000000000000   0000000000000000000000000A9        170192964704     
0010001300144U 020000000000000000000000000000000000000000000000000000000000000000000000000000000000000000000000000000000000000000000000002003201700000000            000000000000000                              000                           
0010001300145T 020180230000002544776 29647041239236395   7               21032017000000000006000001028029                         0900000000000010000000000000000000000000000000000000000   0000000000000000000000000A9        170192964704     
0010001300146U 020000000000000000000000000000000000000000000000000000000000000000000000000000000000000000000000000000000000000000000000001903201700000000            000000000000000                              000                           
0010001300147T 020180230000002544776 29647041239254266   7               20032017000000000006000001028029                         0900000000000010000000000000000000000000000000000000000   0000000000000000000000000A9        170192964704     
0010001300148U 020000000000000000000000000000000000000000000000000000000000000000000000000000000000000000000000000000000000000000000000001803201700000000            000000000000000                              000                           
0010001300149T 020180230000002544776 29647041247734697   7               22032017000000000008000001022748                         0900000000000010000000000000000000000000000000000000000   0000000000000000000000000A9        170192964704     
0010001300150U 020000000000000000000000000000000000000000000000000000000000000000000000000000000000000000000000000000000000000000000000002003201700000000            000000000000000                              000                           
0010001300151T 020180230000002544776 29647041248533794   7               22032017000000000008000001018376                         0900000000000010000000000000000000000000000000000000000   0000000000000000000000000A9        170192964704     
0010001300152U 020000000000000000000000000000000000000000000000000000000000000000000000000000000000000000000000000000000000000000000000002003201700000000            000000000000000                              000                           
0010001300153T 020180230000002544776 29647041250030972   7               22032017000000000006000001012467                         0900000000000010000000000000000000000000000000000000000   0000000000000000000000000A9        170192964704     
0010001300154U 020000000000000000000000000000000000000000000000000000000000000000000000000000000000000000000000000000000000000000000000002003201700000000            000000000000000                              000                           
0010001300155T 020180230000002544776 29647041250046239   7               20032017000000000006000001012467                         0900000000000010000000000000000000000000000000000000000   0000000000000000000000000A9        170192964704     
0010001300156U 020000000000000000000000000000000000000000000000000000000000000000000000000000000000000000000000000000000000000000000000001803201700000000            000000000000000                              000                           
0010001300157T 020180230000002544776 29647041259527242   7               20032017000000000006000001022845                         0900000000000010000000000000000000000000000000000000000   0000000000000000000000000A9        170192964704     
0010001300158U 020000000000000000000000000000000000000000000000000000000000000000000000000000000000000000000000000000000000000000000000001803201700000000            000000000000000                              000                           
0010001300159T 020180230000002544776 29647041266703799   7               22032017000000000008000001000132                         0900000000000010000000000000000000000000000000000000000   0000000000000000000000000A9        170192964704     
0010001300160U 020000000000000000000000000000000000000000000000000000000000000000000000000000000000000000000000000000000000000000000000002003201700000000            000000000000000                              000                           
0010001300161T 020180230000002544776 29647041268639924   7               22032017000000000008000001028029                         0900000000000010000000000000000000000000000000000000000   0000000000000000000000000A9        170192964704     
0010001300162U 020000000000000000000000000000000000000000000000000000000000000000000000000000000000000000000000000000000000000000000000002003201700000000            000000000000000                              000                           
0010001300163T 020180230000002544776 29647041279431747   7               22032017000000000006000001018376                         0900000000000010000000000000000000000000000000000000000   0000000000000000000000000A9        170192964704     
0010001300164U 020000000000000000000000000000000000000000000000000000000000000000000000000000000000000000000000000000000000000000000000002003201700000000            000000000000000                              000                           
0010001300165T 020180230000002544776 29647041286310538   7               22032017000000000006000001012645                         0900000000000010000000000000000000000000000000000000000   0000000000000000000000000A9        170192964704     
0010001300166U 020000000000000000000000000000000000000000000000000000000000000000000000000000000000000000000000000000000000000000000000002003201700000000            000000000000000                              000                           
0010001300167T 020180230000002544776 29647041292333593   7               20032017000000000006000001012688                         0900000000000010000000000000000000000000000000000000000   0000000000000000000000000A9        170192964704     
0010001300168U 020000000000000000000000000000000000000000000000000000000000000000000000000000000000000000000000000000000000000000000000001803201700000000            000000000000000                              000                           
0010001300169T 020180230000002544776 29647041294541514   7               22032017000000000008000001023655                         0900000000000010000000000000000000000000000000000000000   0000000000000000000000000A9        170192964704     
0010001300170U 020000000000000000000000000000000000000000000000000000000000000000000000000000000000000000000000000000000000000000000000002003201700000000            000000000000000                              000                           
0010001300171T 020180230000002544776 29647041305626221   7               21032017000000000006000001016179                         0900000000000010000000000000000000000000000000000000000   0000000000000000000000000A9        170192964704     
0010001300172U 020000000000000000000000000000000000000000000000000000000000000000000000000000000000000000000000000000000000000000000000001903201700000000            000000000000000                              000                           
0010001300173T 020180230000002544776 29647041307047292   7               22032017000000000006000001016179                         0900000000000010000000000000000000000000000000000000000   0000000000000000000000000A9        170192964704     
0010001300174U 020000000000000000000000000000000000000000000000000000000000000000000000000000000000000000000000000000000000000000000000002003201700000000            000000000000000                              000                           
0010001300175T 020180230000002544776 29647041309641029   7               22032017000000000006000001000132                         0900000000000010000000000000000000000000000000000000000   0000000000000000000000000A9        170192964704     
0010001300176U 020000000000000000000000000000000000000000000000000000000000000000000000000000000000000000000000000000000000000000000000002003201700000000            000000000000000                              000                           
0010001300177T 020180230000002544776 29647041310617479   7               22032017000000000008000001012467                         0900000000000010000000000000000000000000000000000000000   0000000000000000000000000A9        170192964704     
0010001300178U 020000000000000000000000000000000000000000000000000000000000000000000000000000000000000000000000000000000000000000000000002003201700000000            000000000000000                              000                           
0010001300179T 020180230000002544776 29647041310642650   7               20032017000000000008000001012467                         0900000000000010000000000000000000000000000000000000000   0000000000000000000000000A9        170192964704     
0010001300180U 020000000000000000000000000000000000000000000000000000000000000000000000000000000000000000000000000000000000000000000000001803201700000000            000000000000000                              000                           
0010001300181T 020180230000002544776 29647041314752473   7               22032017000000000006000001012688                         0900000000000010000000000000000000000000000000000000000   0000000000000000000000000A9        170192964704     
0010001300182U 020000000000000000000000000000000000000000000000000000000000000000000000000000000000000000000000000000000000000000000000002003201700000000            000000000000000                              000                           
0010001300183T 020180230000002544776 29647041316201375   7               22032017000000000006000001033316                         0900000000000010000000000000000000000000000000000000000   0000000000000000000000000A9        170192964704     
0010001300184U 020000000000000000000000000000000000000000000000000000000000000000000000000000000000000000000000000000000000000000000000002003201700000000            000000000000000                              000                           
0010001300185T 020180230000002544776 29647041317206337   7               22032017000000000006000001010421                         0900000000000010500000000000000000000000000000000000000   0000000000000000000000000A9A4      170192964704     
0010001300186U 020000000000000000000000000000000000000000000000000000000000000000000000000000000000000000000000000000000000000000000000002003201700000000            000000000000000                              000                           
0010001300187T 020180230000002544776 29647041319212762   7               22032017000000000006000001018376                         0900000000000010000000000000000000000000000000000000000   0000000000000000000000000A9        170192964704     
0010001300188U 020000000000000000000000000000000000000000000000000000000000000000000000000000000000000000000000000000000000000000000000002003201700000000            000000000000000                              000                           
0010001300189T 020180230000002544776 29647041319219014   7               21032017000000000006000001018376                         0900000000000010000000000000000000000000000000000000000   0000000000000000000000000A9        170192964704     
0010001300190U 020000000000000000000000000000000000000000000000000000000000000000000000000000000000000000000000000000000000000000000000001903201700000000            000000000000000                              000                           
0010001300191T 020180230000002544776 29647041319236055   7               21032017000000000006000001018376                         0900000000000010000000000000000000000000000000000000000   0000000000000000000000000A9        170192964704     
0010001300192U 020000000000000000000000000000000000000000000000000000000000000000000000000000000000000000000000000000000000000000000000001903201700000000            000000000000000                              000                           
0010001300193T 020180230000002544776 29647041319246221   7               21032017000000000006000001018376                         0900000000000010000000000000000000000000000000000000000   0000000000000000000000000A9        170192964704     
0010001300194U 020000000000000000000000000000000000000000000000000000000000000000000000000000000000000000000000000000000000000000000000001903201700000000            000000000000000                              000                           
0010001300195T 020180230000002544776 29647041319424880   7               22032017000000000006000001018376                         0900000000000010000000000000000000000000000000000000000   0000000000000000000000000A9        170192964704     
0010001300196U 020000000000000000000000000000000000000000000000000000000000000000000000000000000000000000000000000000000000000000000000002003201700000000            000000000000000                              000                           
0010001300197T 020180230000002544776 29647041321201201   7               21032017000000000006000001008346                         0900000000000010000000000000000000000000000000000000000   0000000000000000000000000A9        170192964704     
0010001300198U 020000000000000000000000000000000000000000000000000000000000000000000000000000000000000000000000000000000000000000000000001903201700000000            000000000000000                              000                           
0010001300199T 020180230000002544776 29647041321203402   7               21032017000000000006000001008346                         0900000000000010000000000000000000000000000000000000000   0000000000000000000000000A9        170192964704     
0010001300200U 020000000000000000000000000000000000000000000000000000000000000000000000000000000000000000000000000000000000000000000000001903201700000000            000000000000000                              000                           
0010001300201T 020180230000002544776 29647041321221826   7               21032017000000000006000001008346                         0900000000000010000000000000000000000000000000000000000   0000000000000000000000000A9        170192964704     
0010001300202U 020000000000000000000000000000000000000000000000000000000000000000000000000000000000000000000000000000000000000000000000001903201700000000            000000000000000                              000                           
0010001300203T 020180230000002544776 29647041321230820   7               21032017000000000006000001008346                         0900000000000010000000000000000000000000000000000000000   0000000000000000000000000A9        170192964704     
0010001300204U 020000000000000000000000000000000000000000000000000000000000000000000000000000000000000000000000000000000000000000000000001903201700000000            000000000000000                              000                           
0010001300205T 020180230000002544776 29647041323008918   7               20032017000000000006000001007145                         0900000000000010000000000000000000000000000000000000000   0000000000000000000000000A9        170192964704     
0010001300206U 020000000000000000000000000000000000000000000000000000000000000000000000000000000000000000000000000000000000000000000000001803201700000000            000000000000000                              000                           
0010001300207T 020180230000002544776 29647041324604986   7               22032017000000000006000001023655                         0900000000000010000000000000000000000000000000000000000   0000000000000000000000000A9        170192964704     
0010001300208U 020000000000000000000000000000000000000000000000000000000000000000000000000000000000000000000000000000000000000000000000002003201700000000            000000000000000                              000                           
0010001300209T 020180230000002544776 29647041324619223   7               21032017000000000006000001023655                         0900000000000010000000000000000000000000000000000000000   0000000000000000000000000A9        170192964704     
0010001300210U 020000000000000000000000000000000000000000000000000000000000000000000000000000000000000000000000000000000000000000000000001903201700000000            000000000000000                              000                           
0010001300211T 020180230000002544776 29647041324622557   7               21032017000000000006000001023655                         0900000000000010000000000000000000000000000000000000000   0000000000000000000000000A9        170192964704     
0010001300212U 020000000000000000000000000000000000000000000000000000000000000000000000000000000000000000000000000000000000000000000000001903201700000000            000000000000000                              000                           
0010001300213T 020180230000002544776 29647041324628440   7               22032017000000000006000001023655                         0900000000000010000000000000000000000000000000000000000   0000000000000000000000000A9        170192964704     
0010001300214U 020000000000000000000000000000000000000000000000000000000000000000000000000000000000000000000000000000000000000000000000002003201700000000            000000000000000                              000                           
0010001300215T 020180230000002544776 29647041324649976   7               22032017000000000006000001023655                         0900000000000010000000000000000000000000000000000000000   0000000000000000000000000A9        170192964704     
0010001300216U 020000000000000000000000000000000000000000000000000000000000000000000000000000000000000000000000000000000000000000000000002003201700000000            000000000000000                              000                           
0010001300217T 020180230000002544776 29647041325412366   7               22032017000000000006000001033316                         0900000000000010000000000000000000000000000000000000000   0000000000000000000000000A9        170192964704     
0010001300218U 020000000000000000000000000000000000000000000000000000000000000000000000000000000000000000000000000000000000000000000000002003201700000000            000000000000000                              000                           
0010001300219T 020180230000002544776 29647041326220808   7               22032017000000000006000001028495                         0900000000000010000000000000000000000000000000000000000   0000000000000000000000000A9        170192964704     
0010001300220U 020000000000000000000000000000000000000000000000000000000000000000000000000000000000000000000000000000000000000000000000002003201700000000            000000000000000                              000                           
0010001300221T 020180230000002544776 29647041328137450   7               22032017000000000008000001045551                         0900000000000010500000000000000000000000000000000000000   0000000000000000000000000A9A4      170192964704     
0010001300222U 020000000000000000000000000000000000000000000000000000000000000000000000000000000000000000000000000000000000000000000000002003201700000000            000000000000000                              000                           
0010001300223T 020180230000002544776 29647041329924371   7               22032017000000000006000001008672                         0900000000000010000000000000000000000000000000000000000   0000000000000000000000000A9        170192964704     
0010001300224U 020000000000000000000000000000000000000000000000000000000000000000000000000000000000000000000000000000000000000000000000002003201700000000            000000000000000                              000                           
0010001300225T 020180230000002544776 29647041329942899   7               22032017000000000006000001008672                         0900000000000010000000000000000000000000000000000000000   0000000000000000000000000A9        170192964704     
0010001300226U 020000000000000000000000000000000000000000000000000000000000000000000000000000000000000000000000000000000000000000000000002003201700000000            000000000000000                              000                           
0010001300227T 020180230000002544776 29647041329953835   7               22032017000000000006000001008672                         0900000000000010000000000000000000000000000000000000000   0000000000000000000000000A9        170192964704     
0010001300228U 020000000000000000000000000000000000000000000000000000000000000000000000000000000000000000000000000000000000000000000000002003201700000000            000000000000000                              000                           
0010001300229T 020180230000002544776 29647041332103540   7               21032017000000000006000001016179                         0900000000000010000000000000000000000000000000000000000   0000000000000000000000000A9        170192964704     
0010001300230U 020000000000000000000000000000000000000000000000000000000000000000000000000000000000000000000000000000000000000000000000001903201700000000            000000000000000                              000                           
0010001300231T 020180230000002544776 29647041332128227   7               21032017000000000006000001016179                         0900000000000010000000000000000000000000000000000000000   0000000000000000000000000A9        170192964704     
0010001300232U 020000000000000000000000000000000000000000000000000000000000000000000000000000000000000000000000000000000000000000000000001903201700000000            000000000000000                              000                           
0010001300233T 020180230000002544776 29647041337026239   7               20032017000000000006000001023655                         0900000000000010000000000000000000000000000000000000000   0000000000000000000000000A9        170192964704     
0010001300234U 020000000000000000000000000000000000000000000000000000000000000000000000000000000000000000000000000000000000000000000000001803201700000000            000000000000000                              000                           
0010001300235T 020180230000002544776 29647041338137370   7               20032017000000000008000001012467                         0900000000000010000000000000000000000000000000000000000   0000000000000000000000000A9        170192964704     
0010001300236U 020000000000000000000000000000000000000000000000000000000000000000000000000000000000000000000000000000000000000000000000001803201700000000            000000000000000                              000                           
0010001300237T 020180230000002544776 29647041338220903   7               22032017000000000008000001028029                         0900000000000010000000000000000000000000000000000000000   0000000000000000000000000A9        170192964704     
0010001300238U 020000000000000000000000000000000000000000000000000000000000000000000000000000000000000000000000000000000000000000000000002003201700000000            000000000000000                              000                           
0010001300239T 020180230000002544776 29647041339327126   7               1903201700000000000800000101219X                         0900000000000010000000000000000000000000000000000000000   0000000000000000000000000A9        170192964704     
0010001300240U 020000000000000000000000000000000000000000000000000000000000000000000000000000000000000000000000000000000000000000000000001703201700000000            000000000000000                              000                           
0010001300241T 020180230000002544776 29647041339710981   7               19032017000000000006000001028495                         0900000000000010000000000000000000000000000000000000000   0000000000000000000000000A9        170192964704     
0010001300242U 020000000000000000000000000000000000000000000000000000000000000000000000000000000000000000000000000000000000000000000000001703201700000000            000000000000000                              000                           
0010001300243T 020180230000002544776 29647041339813137   7               19032017000000000006000001028495                         0900000000000010000000000000000000000000000000000000000   0000000000000000000000000A9        170192964704     
0010001300244U 020000000000000000000000000000000000000000000000000000000000000000000000000000000000000000000000000000000000000000000000001703201700000000            000000000000000                              000                           
0010001300245T 020180230000002544776 29647041339848063   7               19032017000000000006000001028495                         0900000000000010000000000000000000000000000000000000000   0000000000000000000000000A9        170192964704     
0010001300246U 020000000000000000000000000000000000000000000000000000000000000000000000000000000000000000000000000000000000000000000000001703201700000000            000000000000000                              000                           
0010001300247T 020180230000002544776 29647041339903604   7               19032017000000000006000001020532                         0900000000000010000000000000000000000000000000000000000   0000000000000000000000000A9        170192964704     
0010001300248U 020000000000000000000000000000000000000000000000000000000000000000000000000000000000000000000000000000000000000000000000001703201700000000            000000000000000                              000                           
0010001300249T 020180230000002544776 29647041340208881   7               20032017000000000006000001007145                         0900000000000010000000000000000000000000000000000000000   0000000000000000000000000A9        170192964704     
0010001300250U 020000000000000000000000000000000000000000000000000000000000000000000000000000000000000000000000000000000000000000000000001803201700000000            000000000000000                              000                           
0010001300251T 020180230000002544776 29647041340407591   7               21032017000000000006000001002003                         0900000000000010000000000000000000000000000000000000000   0000000000000000000000000A9        170192964704     
0010001300252U 020000000000000000000000000000000000000000000000000000000000000000000000000000000000000000000000000000000000000000000000001903201700000000            000000000000000                              000                           
0010001300253T 020180230000002544776 29647041340453830   7               20032017000000000006000001002003                         0900000000000010000000000000000000000000000000000000000   0000000000000000000000000A9        170192964704     
0010001300254U 020000000000000000000000000000000000000000000000000000000000000000000000000000000000000000000000000000000000000000000000001803201700000000            000000000000000                              000                           
0010001300255T 020180230000002544776 29647041340545649   7               20032017000000000006000001028029                         0900000000000010500000000000000000000000000000000000000   0000000000000000000000000A9A4      170192964704     
0010001300256U 020000000000000000000000000000000000000000000000000000000000000000000000000000000000000000000000000000000000000000000000001803201700000000            000000000000000                              000                           
0010001300257T 020180230000002544776 29647041340614256   7               21032017000000000006000001002003                         0900000000000010000000000000000000000000000000000000000   0000000000000000000000000A9        170192964704     
0010001300258U 020000000000000000000000000000000000000000000000000000000000000000000000000000000000000000000000000000000000000000000000001903201700000000            000000000000000                              000                           
0010001300259T 020180230000002544776 29647041340615547   7               21032017000000000006000001002003                         0900000000000010000000000000000000000000000000000000000   0000000000000000000000000A9        170192964704     
0010001300260U 020000000000000000000000000000000000000000000000000000000000000000000000000000000000000000000000000000000000000000000000001903201700000000            000000000000000                              000                           
0010001300261T 020180230000002544776 29647041340617409   7               21032017000000000006000001002003                         0900000000000010000000000000000000000000000000000000000   0000000000000000000000000A9        170192964704     
0010001300262U 020000000000000000000000000000000000000000000000000000000000000000000000000000000000000000000000000000000000000000000000001903201700000000            000000000000000                              000                           
0010001300263T 020180230000002544776 29647041340618501   7               20032017000000000006000001002003                         0900000000000010000000000000000000000000000000000000000   0000000000000000000000000A9        170192964704     
0010001300264U 020000000000000000000000000000000000000000000000000000000000000000000000000000000000000000000000000000000000000000000000001803201700000000            000000000000000                              000                           
0010001300265T 020180230000002544776 29647041340619137   7               22032017000000000006000001002003                         0900000000000010000000000000000000000000000000000000000   0000000000000000000000000A9        170192964704     
0010001300266U 020000000000000000000000000000000000000000000000000000000000000000000000000000000000000000000000000000000000000000000000002003201700000000            000000000000000                              000                           
0010001300267T 020180230000002544776 29647041340637148   7               21032017000000000006000001002003                         0900000000000010000000000000000000000000000000000000000   0000000000000000000000000A9        170192964704     
0010001300268U 020000000000000000000000000000000000000000000000000000000000000000000000000000000000000000000000000000000000000000000000001903201700000000            000000000000000                              000                           
0010001300269T 020180230000002544776 29647041340652490   7               21032017000000000006000001002003                         0900000000000010000000000000000000000000000000000000000   0000000000000000000000000A9        170192964704     
0010001300270U 020000000000000000000000000000000000000000000000000000000000000000000000000000000000000000000000000000000000000000000000001903201700000000            000000000000000                              000                           
0010001300271T 020180230000002544776 29647041340656599   7               21032017000000000006000001002003                         0900000000000010000000000000000000000000000000000000000   0000000000000000000000000A9        170192964704     
0010001300272U 020000000000000000000000000000000000000000000000000000000000000000000000000000000000000000000000000000000000000000000000001903201700000000            000000000000000                              000                           
0010001300273T 020180230000002544776 29647041340711058   7               20032017000000000006000001028029                         0900000000000010000000000000000000000000000000000000000   0000000000000000000000000A9        170192964704     
0010001300274U 020000000000000000000000000000000000000000000000000000000000000000000000000000000000000000000000000000000000000000000000001803201700000000            000000000000000                              000                           
0010001300275T 020180230000002544776 29647041340812280   7               20032017000000000006000001028029                         0900000000000010000000000000000000000000000000000000000   0000000000000000000000000A9        170192964704     
0010001300276U 020000000000000000000000000000000000000000000000000000000000000000000000000000000000000000000000000000000000000000000000001803201700000000            000000000000000                              000                           
0010001300277T 020180230000002544776 29647041340858604   7               20032017000000000006000001028029                         0900000000000010000000000000000000000000000000000000000   0000000000000000000000000A9        170192964704     
0010001300278U 020000000000000000000000000000000000000000000000000000000000000000000000000000000000000000000000000000000000000000000000001803201700000000            000000000000000                              000                           
0010001300279T 020180230000002544776 29647041340909906   7               22032017000000000008000001006211                         0900000000000010000000000000000000000000000000000000000   0000000000000000000000000A9        170192964704     
0010001300280U 020000000000000000000000000000000000000000000000000000000000000000000000000000000000000000000000000000000000000000000000002003201700000000            000000000000000                              000                           
0010001300281T 020180230000002544776 29647041340951954   7               20032017000000000008000001006211                         0900000000000010000000000000000000000000000000000000000   0000000000000000000000000A9        170192964704     
0010001300282U 020000000000000000000000000000000000000000000000000000000000000000000000000000000000000000000000000000000000000000000000001803201700000000            000000000000000                              000                           
0010001300283T 020180230000002544776 29647041340959063   7               20032017000000000008000001006211                         0900000000000010000000000000000000000000000000000000000   0000000000000000000000000A9        170192964704     
0010001300284U 020000000000000000000000000000000000000000000000000000000000000000000000000000000000000000000000000000000000000000000000001803201700000000            000000000000000                              000                           
0010001300285T 020180230000002544776 29647041341118810   7               20032017000000000008000001033316                         0900000000000010000000000000000000000000000000000000000   0000000000000000000000000A9        170192964704     
0010001300286U 020000000000000000000000000000000000000000000000000000000000000000000000000000000000000000000000000000000000000000000000001803201700000000            000000000000000                              000                           
0010001300287T 020180230000002544776 29647041341306677   7               20032017000000000008000001028029                         0900000000000010000000000000000000000000000000000000000   0000000000000000000000000A9        170192964704     
0010001300288U 020000000000000000000000000000000000000000000000000000000000000000000000000000000000000000000000000000000000000000000000001803201700000000            000000000000000                              000                           
0010001300289T 020180230000002544776 29647041341429340   7               20032017000000000008000001000132                         0900000000000010000000000000000000000000000000000000000   0000000000000000000000000A9        170192964704     
0010001300290U 020000000000000000000000000000000000000000000000000000000000000000000000000000000000000000000000000000000000000000000000001803201700000000            000000000000000                              000                           
0010001300291T 020180230000002544776 29647041341456140   7               20032017000000000008000001000132                         0900000000000010000000000000000000000000000000000000000   0000000000000000000000000A9        170192964704     
0010001300292U 020000000000000000000000000000000000000000000000000000000000000000000000000000000000000000000000000000000000000000000000001803201700000000            000000000000000                              000                           
0010001300293T 020180230000002544776 29647041341517175   7               20032017000000000006000001010588                         0900000000000010000000000000000000000000000000000000000   0000000000000000000000000A9        170192964704     
0010001300294U 020000000000000000000000000000000000000000000000000000000000000000000000000000000000000000000000000000000000000000000000001803201700000000            000000000000000                              000                           
0010001300295T 020180230000002544776 29647041341612560   7               20032017000000000006000001000132                         0900000000000010000000000000000000000000000000000000000   0000000000000000000000000A9        170192964704     
0010001300296U 020000000000000000000000000000000000000000000000000000000000000000000000000000000000000000000000000000000000000000000000001803201700000000            000000000000000                              000                           
0010001300297T 020180230000002544776 29647041341748641   7               22032017000000000006000001016179                         0900000000000010000000000000000000000000000000000000000   0000000000000000000000000A9        170192964704     
0010001300298U 020000000000000000000000000000000000000000000000000000000000000000000000000000000000000000000000000000000000000000000000002003201700000000            000000000000000                              000                           
0010001300299T 020180230000002544776 29647041341756811   7               20032017000000000006000001016179                         0900000000000010000000000000000000000000000000000000000   0000000000000000000000000A9        170192964704     
0010001300300U 020000000000000000000000000000000000000000000000000000000000000000000000000000000000000000000000000000000000000000000000001803201700000000            000000000000000                              000                           
0010001300301T 020180230000002544776 29647041341951306   7               20032017000000000006000001033316                         0900000000000010000000000000000000000000000000000000000   0000000000000000000000000A9        170192964704     
0010001300302U 020000000000000000000000000000000000000000000000000000000000000000000000000000000000000000000000000000000000000000000000001803201700000000            000000000000000                              000                           
0010001300303T 020180230000002544776 29647041342039962   7               20032017000000000008000001016179                         0900000000000010000000000000000000000000000000000000000   0000000000000000000000000A9        170192964704     
0010001300304U 020000000000000000000000000000000000000000000000000000000000000000000000000000000000000000000000000000000000000000000000001803201700000000            000000000000000                              000                           
0010001300305T 020180230000002544776 29647041342200894   7               20032017000000000006000001008214                         0900000000000010000000000000000000000000000000000000000   0000000000000000000000000A9        170192964704     
0010001300306U 020000000000000000000000000000000000000000000000000000000000000000000000000000000000000000000000000000000000000000000000001803201700000000            000000000000000                              000                           
0010001300307T 020180230000002544776 29647041342306841   7               20032017000000000006000001028029                         0900000000000010000000000000000000000000000000000000000   0000000000000000000000000A9        170192964704     
0010001300308U 020000000000000000000000000000000000000000000000000000000000000000000000000000000000000000000000000000000000000000000000001803201700000000            000000000000000                              000                           
0010001300309T 020180230000002544776 29647041342404328   7               20032017000000000006000001005509                         0900000000000010000000000000000000000000000000000000000   0000000000000000000000000A9        170192964704     
0010001300310U 020000000000000000000000000000000000000000000000000000000000000000000000000000000000000000000000000000000000000000000000001803201700000000            000000000000000                              000                           
0010001300311T 020180230000002544776 29647041342559222   7               20032017000000000006000001033316                         0900000000000010000000000000000000000000000000000000000   0000000000000000000000000A9        170192964704     
0010001300312U 020000000000000000000000000000000000000000000000000000000000000000000000000000000000000000000000000000000000000000000000001803201700000000            000000000000000                              000                           
0010001300313T 020180230000002544776 29647041342818871   7               20032017000000000006000001002291                         0900000000000010000000000000000000000000000000000000000   0000000000000000000000000A9        170192964704     
0010001300314U 020000000000000000000000000000000000000000000000000000000000000000000000000000000000000000000000000000000000000000000000001803201700000000            000000000000000                              000                           
0010001300315T 020180230000002544776 29647041343006249   7               20032017000000000006000001000361                         0900000000000010000000000000000000000000000000000000000   0000000000000000000000000A9        170192964704     
0010001300316U 020000000000000000000000000000000000000000000000000000000000000000000000000000000000000000000000000000000000000000000000001803201700000000            000000000000000                              000                           
0010001300317T 020180230000002544776 29647041343024926   7               20032017000000000006000001000361                         0900000000000010000000000000000000000000000000000000000   0000000000000000000000000A9        170192964704     
0010001300318U 020000000000000000000000000000000000000000000000000000000000000000000000000000000000000000000000000000000000000000000000001803201700000000            000000000000000                              000                           
0010001300319T 020180230000002544776 29647041343214036   7               20032017000000000006000001012467                         0900000000000010000000000000000000000000000000000000000   0000000000000000000000000A9        170192964704     
0010001300320U 020000000000000000000000000000000000000000000000000000000000000000000000000000000000000000000000000000000000000000000000001803201700000000            000000000000000                              000                           
0010001300321T 020180230000002544776 29647041343525031   7               20032017000000000008000001028029                         0900000000000010000000000000000000000000000000000000000   0000000000000000000000000A9        170192964704     
0010001300322U 020000000000000000000000000000000000000000000000000000000000000000000000000000000000000000000000000000000000000000000000001803201700000000            000000000000000                              000                           
0010001300323T 020180230000002544776 29647041343705710   7               20032017000000000006000001028029                         0900000000000010000000000000000000000000000000000000000   0000000000000000000000000A9        170192964704     
0010001300324U 020000000000000000000000000000000000000000000000000000000000000000000000000000000000000000000000000000000000000000000000001803201700000000            000000000000000                              000                           
0010001300325T 020180230000002544776 29647041343801488   7               20032017000000000006000001006734                         0900000000000010500000000000000000000000000000000000000   0000000000000000000000000A9A4      170192964704     
0010001300326U 020000000000000000000000000000000000000000000000000000000000000000000000000000000000000000000000000000000000000000000000001803201700000000            000000000000000                              000                           
0010001300327T 020180230000002544776 29647041343807514   7               22032017000000000006000001006734                         0900000000000010500000000000000000000000000000000000000   0000000000000000000000000A9A4      170192964704     
0010001300328U 020000000000000000000000000000000000000000000000000000000000000000000000000000000000000000000000000000000000000000000000002003201700000000            000000000000000                              000                           
0010001300329T 020180230000002544776 29647041344053770   7               20032017000000000006000001016179                         0900000000000010000000000000000000000000000000000000000   0000000000000000000000000A9        170192964704     
0010001300330U 020000000000000000000000000000000000000000000000000000000000000000000000000000000000000000000000000000000000000000000000001803201700000000            000000000000000                              000                           
0010001300331T 020180230000002544776 29647041344119051   7               20032017000000000006000001000132                         0900000000000010000000000000000000000000000000000000000   0000000000000000000000000A9        170192964704     
0010001300332U 020000000000000000000000000000000000000000000000000000000000000000000000000000000000000000000000000000000000000000000000001803201700000000            000000000000000                              000                           
0010001300333T 020180230000002544776 29647041344130999   7               20032017000000000006000001000132                         0900000000000010000000000000000000000000000000000000000   0000000000000000000000000A9        170192964704     
0010001300334U 020000000000000000000000000000000000000000000000000000000000000000000000000000000000000000000000000000000000000000000000001803201700000000            000000000000000                              000                           
0010001300335T 020180230000002544776 29647041344527995   7               20032017000000000006000001008214                         0900000000000010500000000000000000000000000000000000000   0000000000000000000000000A9A4      170192964704     
0010001300336U 020000000000000000000000000000000000000000000000000000000000000000000000000000000000000000000000000000000000000000000000001803201700000000            000000000000000                              000                           
0010001300337T 020180230000002544776 29647041344654272   7               20032017000000000006000001000132                         0900000000000010000000000000000000000000000000000000000   0000000000000000000000000A9        170192964704     
0010001300338U 020000000000000000000000000000000000000000000000000000000000000000000000000000000000000000000000000000000000000000000000001803201700000000            000000000000000                              000                           
0010001300339T 020180230000002544776 29647041344713115   7               20032017000000000006000001023655                         0900000000000010000000000000000000000000000000000000000   0000000000000000000000000A9        170192964704     
0010001300340U 020000000000000000000000000000000000000000000000000000000000000000000000000000000000000000000000000000000000000000000000001803201700000000            000000000000000                              000                           
0010001300341T 020180230000002544776 29647041344800223   7               20032017000000000008000001013692                         0900000000000010000000000000000000000000000000000000000   0000000000000000000000000A9        170192964704     
0010001300342U 020000000000000000000000000000000000000000000000000000000000000000000000000000000000000000000000000000000000000000000000001803201700000000            000000000000000                              000                           
0010001300343T 020180230000002544776 29647041344915839   7               20032017000000000006000001005428                         0900000000000010000000000000000000000000000000000000000   0000000000000000000000000A9        170192964704     
0010001300344U 020000000000000000000000000000000000000000000000000000000000000000000000000000000000000000000000000000000000000000000000001803201700000000            000000000000000                              000                           
0010001300345T 020180230000002544776 29647041345032335   7               22032017000000000008000001000361                         0900000000000010000000000000000000000000000000000000000   0000000000000000000000000A9        170192964704     
0010001300346U 020000000000000000000000000000000000000000000000000000000000000000000000000000000000000000000000000000000000000000000000002003201700000000            000000000000000                              000                           
0010001300347T 020180230000002544776 29647041345033209   7               20032017000000000008000001000361                         0900000000000010000000000000000000000000000000000000000   0000000000000000000000000A9        170192964704     
0010001300348U 020000000000000000000000000000000000000000000000000000000000000000000000000000000000000000000000000000000000000000000000001803201700000000            000000000000000                              000                           
0010001300349T 020180230000002544776 29647041345207528   7               20032017000000000008000001020354                         0900000000000010000000000000000000000000000000000000000   0000000000000000000000000A9        170192964704     
0010001300350U 020000000000000000000000000000000000000000000000000000000000000000000000000000000000000000000000000000000000000000000000001803201700000000            000000000000000                              000                           
0010001300351T 020180230000002544776 29647041345250706   7               20032017000000000008000001020354                         0900000000000010000000000000000000000000000000000000000   0000000000000000000000000A9        170192964704     
0010001300352U 020000000000000000000000000000000000000000000000000000000000000000000000000000000000000000000000000000000000000000000000001803201700000000            000000000000000                              000                           
0010001300353T 020180230000002544776 29647041345335002   7               20032017000000000006000001028029                         0900000000000010000000000000000000000000000000000000000   0000000000000000000000000A9        170192964704     
0010001300354U 020000000000000000000000000000000000000000000000000000000000000000000000000000000000000000000000000000000000000000000000001803201700000000            000000000000000                              000                           
0010001300355T 020180230000002544776 29647041345513884   7               20032017000000000006000001001597                         0900000000000010000000000000000000000000000000000000000   0000000000000000000000000A9        170192964704     
0010001300356U 020000000000000000000000000000000000000000000000000000000000000000000000000000000000000000000000000000000000000000000000001803201700000000            000000000000000                              000                           
0010001300357T 020180230000002544776 29647041345521200   7               20032017000000000006000001001597                         0900000000000010000000000000000000000000000000000000000   0000000000000000000000000A9        170192964704     
0010001300358U 020000000000000000000000000000000000000000000000000000000000000000000000000000000000000000000000000000000000000000000000001803201700000000            000000000000000                              000                           
0010001300359T 020180230000002544776 29647041345532154   7               20032017000000000006000001001597                         0900000000000010000000000000000000000000000000000000000   0000000000000000000000000A9        170192964704     
0010001300360U 020000000000000000000000000000000000000000000000000000000000000000000000000000000000000000000000000000000000000000000000001803201700000000            000000000000000                              000                           
0010001300361T 020180230000002544776 29647041345535353   7               20032017000000000006000001001597                         0900000000000010000000000000000000000000000000000000000   0000000000000000000000000A9        170192964704     
0010001300362U 020000000000000000000000000000000000000000000000000000000000000000000000000000000000000000000000000000000000000000000000001803201700000000            000000000000000                              000                           
0010001300363T 020180230000002544776 29647041345623170   7               20032017000000000006000001001597                         0900000000000010000000000000000000000000000000000000000   0000000000000000000000000A9        170192964704     
0010001300364U 020000000000000000000000000000000000000000000000000000000000000000000000000000000000000000000000000000000000000000000000001803201700000000            000000000000000                              000                           
0010001300365T 020180230000002544776 29647041345631781   7               20032017000000000006000001001597                         0900000000000010000000000000000000000000000000000000000   0000000000000000000000000A9        170192964704     
0010001300366U 020000000000000000000000000000000000000000000000000000000000000000000000000000000000000000000000000000000000000000000000001803201700000000            000000000000000                              000                           
0010001300367T 020180230000002544776 29647041345725953   7               20032017000000000006000001016179                         0900000000000010000000000000000000000000000000000000000   0000000000000000000000000A9        170192964704     
0010001300368U 020000000000000000000000000000000000000000000000000000000000000000000000000000000000000000000000000000000000000000000000001803201700000000            000000000000000                              000                           
0010001300369T 020180230000002544776 29647041345734789   7               20032017000000000006000001016179                         0900000000000010000000000000000000000000000000000000000   0000000000000000000000000A9        170192964704     
0010001300370U 020000000000000000000000000000000000000000000000000000000000000000000000000000000000000000000000000000000000000000000000001803201700000000            000000000000000                              000                           
0010001300371T 020180230000002544776 29647041345758472   7               20032017000000000006000001016179                         0900000000000010000000000000000000000000000000000000000   0000000000000000000000000A9        170192964704     
0010001300372U 020000000000000000000000000000000000000000000000000000000000000000000000000000000000000000000000000000000000000000000000001803201700000000            000000000000000                              000                           
0010001300373T 020180230000002544776 29647041345950813   7               20032017000000000006000001035041                         0900000000000010000000000000000000000000000000000000000   0000000000000000000000000A9        170192964704     
0010001300374U 020000000000000000000000000000000000000000000000000000000000000000000000000000000000000000000000000000000000000000000000001803201700000000            000000000000000                              000                           
0010001300375T 020180230000002544776 29647041346017458   7               20032017000000000006000001016179                         0900000000000010000000000000000000000000000000000000000   0000000000000000000000000A9        170192964704     
0010001300376U 020000000000000000000000000000000000000000000000000000000000000000000000000000000000000000000000000000000000000000000000001803201700000000            000000000000000                              000                           
0010001300377T 020180230000002544776 29647041348055209   7               21032017000000000006000001008214                         0900000000000010000000000000000000000000000000000000000   0000000000000000000000000A9        170192964704     
0010001300378U 020000000000000000000000000000000000000000000000000000000000000000000000000000000000000000000000000000000000000000000000001903201700000000            000000000000000                              000                           
0010001300379T 020180230000002544776 29647041348130710   7               21032017000000000006000001028029                         0900000000000010000000000000000000000000000000000000000   0000000000000000000000000A9        170192964704     
0010001300380U 020000000000000000000000000000000000000000000000000000000000000000000000000000000000000000000000000000000000000000000000001903201700000000            000000000000000                              000                           
0010001300381T 020180230000002544776 29647041348211643   7               21032017000000000008000001028029                         0900000000000010000000000000000000000000000000000000000   0000000000000000000000000A9        170192964704     
0010001300382U 020000000000000000000000000000000000000000000000000000000000000000000000000000000000000000000000000000000000000000000000001903201700000000            000000000000000                              000                           
0010001300383T 020180230000002544776 29647041348228716   7               21032017000000000008000001028029                         0900000000000010000000000000000000000000000000000000000   0000000000000000000000000A9        170192964704     
0010001300384U 020000000000000000000000000000000000000000000000000000000000000000000000000000000000000000000000000000000000000000000000001903201700000000            000000000000000                              000                           
0010001300385T 020180230000002544776 29647041348241177   7               21032017000000000008000001028029                         0900000000000010000000000000000000000000000000000000000   0000000000000000000000000A9        170192964704     
0010001300386U 020000000000000000000000000000000000000000000000000000000000000000000000000000000000000000000000000000000000000000000000001903201700000000            000000000000000                              000                           
0010001300387T 020180230000002544776 29647041348326794   7               21032017000000000006000001035041                         0900000000000010000000000000000000000000000000000000000   0000000000000000000000000A9        170192964704     
0010001300388U 020000000000000000000000000000000000000000000000000000000000000000000000000000000000000000000000000000000000000000000000001903201700000000            000000000000000                              000                           
0010001300389T 020180230000002544776 29647041348426696   7               21032017000000000006000001001643                         0900000000000010000000000000000000000000000000000000000   0000000000000000000000000A9        170192964704     
0010001300390U 020000000000000000000000000000000000000000000000000000000000000000000000000000000000000000000000000000000000000000000000001903201700000000            000000000000000                              000                           
0010001300391T 020180230000002544776 29647041348556003   7               21032017000000000006000001018376                         0900000000000010000000000000000000000000000000000000000   0000000000000000000000000A9        170192964704     
0010001300392U 020000000000000000000000000000000000000000000000000000000000000000000000000000000000000000000000000000000000000000000000001903201700000000            000000000000000                              000                           
0010001300393T 020180230000002544776 29647041348747268   7               21032017000000000006000001000132                         0900000000000010000000000000000000000000000000000000000   0000000000000000000000000A9        170192964704     
0010001300394U 020000000000000000000000000000000000000000000000000000000000000000000000000000000000000000000000000000000000000000000000001903201700000000            000000000000000                              000                           
0010001300395T 020180230000002544776 29647041348904586   7               21032017000000000006000001034770                         0900000000000010000000000000000000000000000000000000000   0000000000000000000000000A9        170192964704     
0010001300396U 020000000000000000000000000000000000000000000000000000000000000000000000000000000000000000000000000000000000000000000000001903201700000000            000000000000000                              000                           
0010001300397T 020180230000002544776 29647041349054218   7               21032017000000000008000001000159                         0900000000000010000000000000000000000000000000000000000   0000000000000000000000000A9        170192964704     
0010001300398U 020000000000000000000000000000000000000000000000000000000000000000000000000000000000000000000000000000000000000000000000001903201700000000            000000000000000                              000                           
0010001300399T 020180230000002544776 29647041349242134   7               21032017000000000006000001009636                         0900000000000010000000000000000000000000000000000000000   0000000000000000000000000A9        170192964704     
0010001300400U 020000000000000000000000000000000000000000000000000000000000000000000000000000000000000000000000000000000000000000000000001903201700000000            000000000000000                              000                           
0010001300401T 020180230000002544776 29647041349336078   7               21032017000000000006000001028029                         0900000000000010000000000000000000000000000000000000000   0000000000000000000000000A9        170192964704     
0010001300402U 020000000000000000000000000000000000000000000000000000000000000000000000000000000000000000000000000000000000000000000000001903201700000000            000000000000000                              000                           
0010001300403T 020180230000002544776 29647041349359544   7               21032017000000000006000001028029                         0900000000000010000000000000000000000000000000000000000   0000000000000000000000000A9        170192964704     
0010001300404U 020000000000000000000000000000000000000000000000000000000000000000000000000000000000000000000000000000000000000000000000001903201700000000            000000000000000                              000                           
0010001300405T 020180230000002544776 29647041349457060   7               21032017000000000006000001001201                         0900000000000010000000000000000000000000000000000000000   0000000000000000000000000A9        170192964704     
0010001300406U 020000000000000000000000000000000000000000000000000000000000000000000000000000000000000000000000000000000000000000000000001903201700000000            000000000000000                              000                           
0010001300407T 020180230000002544776 29647041349620123   7               21032017000000000006000001028029                         0900000000000010000000000000000000000000000000000000000   0000000000000000000000000A9        170192964704     
0010001300408U 020000000000000000000000000000000000000000000000000000000000000000000000000000000000000000000000000000000000000000000000001903201700000000            000000000000000                              000                           
0010001300409T 020180230000002544776 29647041349731876   7               2103201700000000000800000101138X                         0900000000000010000000000000000000000000000000000000000   0000000000000000000000000A9        170192964704     
0010001300410U 020000000000000000000000000000000000000000000000000000000000000000000000000000000000000000000000000000000000000000000000001903201700000000            000000000000000                              000                           
0010001300411T 020180230000002544776 29647041349807362   7               21032017000000000006000001028029                         0900000000000010000000000000000000000000000000000000000   0000000000000000000000000A9        170192964704     
0010001300412U 020000000000000000000000000000000000000000000000000000000000000000000000000000000000000000000000000000000000000000000000001903201700000000            000000000000000                              000                           
