00100000         2247745860001000029577050014       0180230000001544772 INSTITUTO DE SELECAO E TECNOLOBANCO DO BRASIL                         23001201702322300007203000000515122941PROCESSAMEN                                                 
00100011T0100020 20247745860001000029577050014       0180230000001544772 INSTITUTO DE SELECAO E TECNOLO                                                                                000000003001201700000000  000000000                      
0010001300001T 020180230000001544772 29577050000611634   7               30012017000000000007500001000213                         0900000000000010000000000000000000000000000000000000000   0000000000000000000000000A9        170192957705     
0010001300002U 020000000000000000000000000000000000000000000000000000000000000000000000000000000000000000000000000000000000000000000000003001201700000000            000000000000000                              000                           
0010001300003T 020180230000001544772 29577050029653557   788888888888889931012017000000000010000001000213888888888888899          0900000000000010000000000000000000000000000000000000000   0000000000000000000000000A9        170192957705     
0010001300004U 020000000000000000000000000000000000000000000000000000000000000000000000000000000000000000000000000000000000000000000000003001201700000000            000000000000000                              000                           
0010001300005T 020180230000001544772 29577050037932637   78888888888888993101201700000000000750000103049X888888888888899          0900000000000010000000000000000000000000000000000000000   0000000000000000000000000A9        170192957705     
0010001300006U 020000000000000000000000000000000000000000000000000000000000000000000000000000000000000000000000000000000000000000000000003001201700000000            000000000000000                              000                           
0010001300007T 020180230000001544772 29577050040053268   788888888888889931012017000000000007500001000213888888888888899          0900000000000010000000000000000000000000000000000000000   0000000000000000000000000A9        170192957705     
0010001300008U 020000000000000000000000000000000000000000000000000000000000000000000000000000000000000000000000000000000000000000000000003001201700000000            000000000000000                              000                           
0010001300009T 020180230000001544772 29577050135746692   788888888888889931012017000000000007500001012408888888888888899          0900000000000010000000000000000000000000000000000000000   0000000000000000000000000A9        170192957705     
0010001300010U 020000000000000000000000000000000000000000000000000000000000000000000000000000000000000000000000000000000000000000000000003001201700000000            000000000000000                              000                           
0010001300011T 020180230000001544772 29577050145408136   788888888888889931012017000000000007500001009245888888888888899          0900000000000010000000000000000000000000000000000000000   0000000000000000000000000A9        170192957705     
0010001300012U 020000000000000000000000000000000000000000000000000000000000000000000000000000000000000000000000000000000000000000000000003001201700000000            000000000000000                              000                           
0010001300013T 020180230000001544772 29577050152212581   788888888888889931012017000000000007500001000744888888888888899          0900000000000010000000000000000000000000000000000000000   0000000000000000000000000A9        170192957705     
0010001300014U 020000000000000000000000000000000000000000000000000000000000000000000000000000000000000000000000000000000000000000000000003001201700000000            000000000000000                              000                           
0010001300015T 020180230000001544772 29577050154717822   788888888888889931012017000000000007500001000744888888888888899          0900000000000010000000000000000000000000000000000000000   0000000000000000000000000A9        170192957705     
0010001300016U 020000000000000000000000000000000000000000000000000000000000000000000000000000000000000000000000000000000000000000000000003001201700000000            000000000000000                              000                           
0010001300017T 020180230000001544772 29577050154755807   788888888888889931012017000000000007500001000744888888888888899          0900000000000010000000000000000000000000000000000000000   0000000000000000000000000A9        170192957705     
0010001300018U 020000000000000000000000000000000000000000000000000000000000000000000000000000000000000000000000000000000000000000000000003001201700000000            000000000000000                              000                           
0010001300019T 020180230000001544772 29577050169919820   78888888888888993101201700000000000750000103049X888888888888899          0900000000000010000000000000000000000000000000000000000   0000000000000000000000000A9        170192957705     
0010001300020U 020000000000000000000000000000000000000000000000000000000000000000000000000000000000000000000000000000000000000000000000003001201700000000            000000000000000                              000                           
0010001300021T 020180230000001544772 29577050203952982   788888888888889931012017000000000007500001012416888888888888899          0900000000000010000000000000000000000000000000000000000   0000000000000000000000000A9        170192957705     
0010001300022U 020000000000000000000000000000000000000000000000000000000000000000000000000000000000000000000000000000000000000000000000003001201700000000            000000000000000                              000                           
0010001300023T 020180230000001544772 29577050215642913   788888888888889931012017000000000010000001012610888888888888899          0900000000000010000000000000000000000000000000000000000   0000000000000000000000000A9        170192957705     
0010001300024U 020000000000000000000000000000000000000000000000000000000000000000000000000000000000000000000000000000000000000000000000003001201700000000            000000000000000                              000                           
0010001300025T 020180230000001544772 29577050243917082   788888888888889931012017000000000007500001012408888888888888899          0900000000000010500000000000000000000000000000000000000   0000000000000000000000000A9A4      170192957705     
0010001300026U 020000000000000000000000000000000000000000000000000000000000000000000000000000000000000000000000000000000000000000000000003001201700000000            000000000000000                              000                           
0010001300027T 020180230000001544772 29577050281902900   788888888888889931012017000000000007500001000213888888888888899          0900000000000010000000000000000000000000000000000000000   0000000000000000000000000A9        170192957705     
0010001300028U 020000000000000000000000000000000000000000000000000000000000000000000000000000000000000000000000000000000000000000000000003001201700000000            000000000000000                              000                           
0010001300029T 020180230000001544772 29577050287405493   788888888888889931012017000000000007500001010561888888888888899          0900000000000010000000000000000000000000000000000000000   0000000000000000000000000A9        170192957705     
0010001300030U 020000000000000000000000000000000000000000000000000000000000000000000000000000000000000000000000000000000000000000000000003001201700000000            000000000000000                              000                           
0010001300031T 020180230000001544772 29577050287449459   788888888888889931012017000000000007500001010561888888888888899          0900000000000010000000000000000000000000000000000000000   0000000000000000000000000A9        170192957705     
0010001300032U 020000000000000000000000000000000000000000000000000000000000000000000000000000000000000000000000000000000000000000000000003001201700000000            000000000000000                              000                           
0010001300033T 020180230000001544772 29577050305320187   78888888888888993101201700000000000750000103049X888888888888899          0900000000000010000000000000000000000000000000000000000   0000000000000000000000000A9        170192957705     
0010001300034U 020000000000000000000000000000000000000000000000000000000000000000000000000000000000000000000000000000000000000000000000003001201700000000            000000000000000                              000                           
0010001300035T 020180230000001544772 29577050305324695   78888888888888993101201700000000000750000103049X888888888888899          0900000000000010000000000000000000000000000000000000000   0000000000000000000000000A9        170192957705     
0010001300036U 020000000000000000000000000000000000000000000000000000000000000000000000000000000000000000000000000000000000000000000000003001201700000000            000000000000000                              000                           
0010001300037T 020180230000001544772 29577050311832074   788888888888889931012017000000000007500001000833888888888888899          0900000000000010000000000000000000000000000000000000000   0000000000000000000000000A9        170192957705     
0010001300038U 020000000000000000000000000000000000000000000000000000000000000000000000000000000000000000000000000000000000000000000000003001201700000000            000000000000000                              000                           
0010001300039T 020180230000001544772 29577050322123148   788888888888889931012017000000000007500001002860888888888888899          0900000000000010000000000000000000000000000000000000000   0000000000000000000000000A9        170192957705     
0010001300040U 020000000000000000000000000000000000000000000000000000000000000000000000000000000000000000000000000000000000000000000000003001201700000000            000000000000000                              000                           
0010001300041T 020180230000001544772 29577050322144130   788888888888889931012017000000000007500001002860888888888888899          0900000000000010000000000000000000000000000000000000000   0000000000000000000000000A9        170192957705     
0010001300042U 020000000000000000000000000000000000000000000000000000000000000000000000000000000000000000000000000000000000000000000000003001201700000000            000000000000000                              000                           
0010001300043T 020180230000001544772 29577050333321257   788888888888889931012017000000000007500001012408888888888888899          0900000000000010000000000000000000000000000000000000000   0000000000000000000000000A9        170192957705     
0010001300044U 020000000000000000000000000000000000000000000000000000000000000000000000000000000000000000000000000000000000000000000000003001201700000000            000000000000000                              000                           
0010001300045T 020180230000001544772 29577050333449712   788888888888889931012017000000000007500001012416888888888888899          0900000000000010000000000000000000000000000000000000000   0000000000000000000000000A9        170192957705     
0010001300046U 020000000000000000000000000000000000000000000000000000000000000000000000000000000000000000000000000000000000000000000000003001201700000000            000000000000000                              000                           
0010001300047T 020180230000001544772 29577050333504714   78888888888888993101201700000000000750000103049X888888888888899          0900000000000010000000000000000000000000000000000000000   0000000000000000000000000A9        170192957705     
0010001300048U 020000000000000000000000000000000000000000000000000000000000000000000000000000000000000000000000000000000000000000000000003001201700000000            000000000000000                              000                           
0010001300049T 020180230000001544772 29577050333545516   78888888888888993101201700000000000750000103049X888888888888899          0900000000000010000000000000000000000000000000000000000   0000000000000000000000000A9        170192957705     
0010001300050U 020000000000000000000000000000000000000000000000000000000000000000000000000000000000000000000000000000000000000000000000003001201700000000            000000000000000                              000                           
0010001300051T 020180230000001544772 29577050333656724   788888888888889931012017000000000007500001000213888888888888899          0900000000000010000000000000000000000000000000000000000   0000000000000000000000000A9        170192957705     
0010001300052U 020000000000000000000000000000000000000000000000000000000000000000000000000000000000000000000000000000000000000000000000003001201700000000            000000000000000                              000                           
0010001300053T 020180230000001544772 29577050333754162   788888888888889931012017000000000007500001000213888888888888899          0900000000000010000000000000000000000000000000000000000   0000000000000000000000000A9        170192957705     
0010001300054U 020000000000000000000000000000000000000000000000000000000000000000000000000000000000000000000000000000000000000000000000003001201700000000            000000000000000                              000                           
0010001300055T 020180230000001544772 29577050333856004   788888888888889931012017000000000007500001012408888888888888899          0900000000000010000000000000000000000000000000000000000   0000000000000000000000000A9        170192957705     
0010001300056U 020000000000000000000000000000000000000000000000000000000000000000000000000000000000000000000000000000000000000000000000003001201700000000            000000000000000                              000                           
0010001300057T 020180230000001544772 29577050333931242   788888888888889931012017000000000007500001000213888888888888899          0900000000000010000000000000000000000000000000000000000   0000000000000000000000000A9        170192957705     
0010001300058U 020000000000000000000000000000000000000000000000000000000000000000000000000000000000000000000000000000000000000000000000003001201700000000            000000000000000                              000                           
0010001300059T 020180230000001544772 29577050334057999   788888888888889931012017000000000010000001012408888888888888899          0900000000000010000000000000000000000000000000000000000   0000000000000000000000000A9        170192957705     
0010001300060U 020000000000000000000000000000000000000000000000000000000000000000000000000000000000000000000000000000000000000000000000003001201700000000            000000000000000                              000                           
0010001300061T 020180230000001544772 29577050334143416   78888888888888993101201700000000000750000103049X888888888888899          0900000000000010000000000000000000000000000000000000000   0000000000000000000000000A9        170192957705     
0010001300062U 020000000000000000000000000000000000000000000000000000000000000000000000000000000000000000000000000000000000000000000000003001201700000000            000000000000000                              000                           
0010001300063T 020180230000001544772 29577050334207504   788888888888889931012017000000000007500001012416888888888888899          0900000000000010000000000000000000000000000000000000000   0000000000000000000000000A9        170192957705     
0010001300064U 020000000000000000000000000000000000000000000000000000000000000000000000000000000000000000000000000000000000000000000000003001201700000000            000000000000000                              000                           
0010001300065T 020180230000001544772 29577050334319256   788888888888889931012017000000000007500001012408888888888888899          0900000000000010000000000000000000000000000000000000000   0000000000000000000000000A9        170192957705     
0010001300066U 020000000000000000000000000000000000000000000000000000000000000000000000000000000000000000000000000000000000000000000000003001201700000000            000000000000000                              000                           
0010001300067T 020180230000001544772 29577050334445954   788888888888889931012017000000000007500001000213888888888888899          0900000000000010000000000000000000000000000000000000000   0000000000000000000000000A9        170192957705     
0010001300068U 020000000000000000000000000000000000000000000000000000000000000000000000000000000000000000000000000000000000000000000000003001201700000000            000000000000000                              000                           
0010001300069T 020180230000001544772 29577050334558495   788888888888889931012017000000000007500001000213888888888888899          0900000000000010000000000000000000000000000000000000000   0000000000000000000000000A9        170192957705     
0010001300070U 020000000000000000000000000000000000000000000000000000000000000000000000000000000000000000000000000000000000000000000000003001201700000000            000000000000000                              000                           
0010001300071T 020180230000001544772 29577050334601024   788888888888889931012017000000000007500001012416888888888888899          0900000000000010000000000000000000000000000000000000000   0000000000000000000000000A9        170192957705     
0010001300072U 020000000000000000000000000000000000000000000000000000000000000000000000000000000000000000000000000000000000000000000000003001201700000000            000000000000000                              000                           
0010001300073T 020180230000001544772 29577050334748631   788888888888889931012017000000000007500001012378888888888888899          0900000000000010000000000000000000000000000000000000000   0000000000000000000000000A9        170192957705     
0010001300074U 020000000000000000000000000000000000000000000000000000000000000000000000000000000000000000000000000000000000000000000000003001201700000000            000000000000000                              000                           
0010001300075T 020180230000001544772 29577050334812896   788888888888889931012017000000000007500001046280888888888888899          0900000000000010000000000000000000000000000000000000000   0000000000000000000000000A9        170192957705     
0010001300076U 020000000000000000000000000000000000000000000000000000000000000000000000000000000000000000000000000000000000000000000000003001201700000000            000000000000000                              000                           
0010001300077T 020180230000001544772 29577050334851638   788888888888889931012017000000000007500001046280888888888888899          0900000000000010000000000000000000000000000000000000000   0000000000000000000000000A9        170192957705     
0010001300078U 020000000000000000000000000000000000000000000000000000000000000000000000000000000000000000000000000000000000000000000000003001201700000000            000000000000000                              000                           
0010001300079T 020180230000001544772 29577050334908256   788888888888889931012017000000000007500001012408888888888888899          0900000000000010000000000000000000000000000000000000000   0000000000000000000000000A9        170192957705     
0010001300080U 020000000000000000000000000000000000000000000000000000000000000000000000000000000000000000000000000000000000000000000000003001201700000000            000000000000000                              000                           
0010001300081T 020180230000001544772 29577050335053289   788888888888889931012017000000000007500001012408888888888888899          0900000000000010000000000000000000000000000000000000000   0000000000000000000000000A9        170192957705     
0010001300082U 020000000000000000000000000000000000000000000000000000000000000000000000000000000000000000000000000000000000000000000000003001201700000000            000000000000000                              000                           
0010001300083T 020180230000001544772 29577050335203527   78888888888888993101201700000000000750000103049X888888888888899          0900000000000010500000000000000000000000000000000000000   0000000000000000000000000A9A4      170192957705     
0010001300084U 020000000000000000000000000000000000000000000000000000000000000000000000000000000000000000000000000000000000000000000000003001201700000000            000000000000000                              000                           
0010001300085T 020180230000001544772 29577050335303217   788888888888889931012017000000000007500001046280888888888888899          0900000000000010000000000000000000000000000000000000000   0000000000000000000000000A9        170192957705     
0010001300086U 020000000000000000000000000000000000000000000000000000000000000000000000000000000000000000000000000000000000000000000000003001201700000000            000000000000000                              000                           
0010001300087T 020180230000001544772 29577050335402078   788888888888889931012017000000000007500001000833888888888888899          0900000000000010500000000000000000000000000000000000000   0000000000000000000000000A9A4      170192957705     
0010001300088U 020000000000000000000000000000000000000000000000000000000000000000000000000000000000000000000000000000000000000000000000003001201700000000            000000000000000                              000                           
0010001300089T 020180230000001544772 29577050335533575   788888888888889931012017000000000007500001009245888888888888899          0900000000000010500000000000000000000000000000000000000   0000000000000000000000000A9A4      170192957705     
0010001300090U 020000000000000000000000000000000000000000000000000000000000000000000000000000000000000000000000000000000000000000000000003001201700000000            000000000000000                              000                           
0010001300091T 020180230000001544772 29577050335738339   788888888888889931012017000000000007500001012408888888888888899          0900000000000010000000000000000000000000000000000000000   0000000000000000000000000A9        170192957705     
0010001300092U 020000000000000000000000000000000000000000000000000000000000000000000000000000000000000000000000000000000000000000000000003001201700000000            000000000000000                              000                           
0010001300093T 020180230000001544772 29577050335801161   788888888888889931012017000000000007500001000213888888888888899          0900000000000010000000000000000000000000000000000000000   0000000000000000000000000A9        170192957705     
0010001300094U 020000000000000000000000000000000000000000000000000000000000000000000000000000000000000000000000000000000000000000000000003001201700000000            000000000000000                              000                           
0010001300095T 020180230000001544772 29577050335949215   788888888888889931012017000000000007500001012408888888888888899          0900000000000010000000000000000000000000000000000000000   0000000000000000000000000A9        170192957705     
0010001300096U 020000000000000000000000000000000000000000000000000000000000000000000000000000000000000000000000000000000000000000000000003001201700000000            000000000000000                              000                           
0010001300097T 020180230000001544772 29577050336058200   788888888888889931012017000000000007500001012408888888888888899          0900000000000010000000000000000000000000000000000000000   0000000000000000000000000A9        170192957705     
0010001300098U 020000000000000000000000000000000000000000000000000000000000000000000000000000000000000000000000000000000000000000000000003001201700000000            000000000000000                              000                           
0010001300099T 020180230000001544772 29577050336132376   78888888888888993101201700000000000750000103049X888888888888899          0900000000000010500000000000000000000000000000000000000   0000000000000000000000000A9A4      170192957705     
0010001300100U 020000000000000000000000000000000000000000000000000000000000000000000000000000000000000000000000000000000000000000000000003001201700000000            000000000000000                              000                           
0010001300101T 020180230000001544772 29577050336311531   788888888888889931012017000000000007500001007854888888888888899          0900000000000010000000000000000000000000000000000000000   0000000000000000000000000A9        170192957705     
0010001300102U 020000000000000000000000000000000000000000000000000000000000000000000000000000000000000000000000000000000000000000000000003001201700000000            000000000000000                              000                           
0010001300103T 020180230000001544772 29577050336408494   788888888888889931012017000000000007500001000213888888888888899          0900000000000010000000000000000000000000000000000000000   0000000000000000000000000A9        170192957705     
0010001300104U 020000000000000000000000000000000000000000000000000000000000000000000000000000000000000000000000000000000000000000000000003001201700000000            000000000000000                              000                           
0010001300105T 020180230000001544772 29577050336514579   78888888888888993101201700000000000750000103049X888888888888899          0900000000000010000000000000000000000000000000000000000   0000000000000000000000000A9        170192957705     
0010001300106U 020000000000000000000000000000000000000000000000000000000000000000000000000000000000000000000000000000000000000000000000003001201700000000            000000000000000                              000                           
0010001300107T 020180230000001544772 29577050336640141   788888888888889931012017000000000007500001012408888888888888899          0900000000000010500000000000000000000000000000000000000   0000000000000000000000000A9A4      170192957705     
0010001300108U 020000000000000000000000000000000000000000000000000000000000000000000000000000000000000000000000000000000000000000000000003001201700000000            000000000000000                              000                           
0010001300109T 020180230000001544772 29577050336723028   788888888888889931012017000000000007500001012416888888888888899          0900000000000010000000000000000000000000000000000000000   0000000000000000000000000A9        170192957705     
0010001300110U 020000000000000000000000000000000000000000000000000000000000000000000000000000000000000000000000000000000000000000000000003001201700000000            000000000000000                              000                           
0010001300111T 020180230000001544772 29577050336843775   78888888888888993101201700000000000750000103049X888888888888899          0900000000000010000000000000000000000000000000000000000   0000000000000000000000000A9        170192957705     
0010001300112U 020000000000000000000000000000000000000000000000000000000000000000000000000000000000000000000000000000000000000000000000003001201700000000            000000000000000                              000                           
0010001300113T 020180230000001544772 29577050336903142   78888888888888993101201700000000000750000103049X888888888888899          0900000000000010000000000000000000000000000000000000000   0000000000000000000000000A9        170192957705     
0010001300114U 020000000000000000000000000000000000000000000000000000000000000000000000000000000000000000000000000000000000000000000000003001201700000000            000000000000000                              000                           
0010001300115T 020180230000001544772 29577050337115030   788888888888889931012017000000000007500001000833888888888888899          0900000000000010000000000000000000000000000000000000000   0000000000000000000000000A9        170192957705     
0010001300116U 020000000000000000000000000000000000000000000000000000000000000000000000000000000000000000000000000000000000000000000000003001201700000000            000000000000000                              000                           
0010001300117T 020180230000001544772 29577050337225708   788888888888889931012017000000000007500001012416888888888888899          0900000000000010000000000000000000000000000000000000000   0000000000000000000000000A9        170192957705     
0010001300118U 020000000000000000000000000000000000000000000000000000000000000000000000000000000000000000000000000000000000000000000000003001201700000000            000000000000000                              000                           
0010001300119T 020180230000001544772 29577050337250098   788888888888889931012017000000000007500001012416888888888888899          0900000000000010000000000000000000000000000000000000000   0000000000000000000000000A9        170192957705     
0010001300120U 020000000000000000000000000000000000000000000000000000000000000000000000000000000000000000000000000000000000000000000000003001201700000000            000000000000000                              000                           
0010001300121T 020180230000001544772 29577050337333401   788888888888889931012017000000000007500001000213888888888888899          0900000000000010000000000000000000000000000000000000000   0000000000000000000000000A9        170192957705     
0010001300122U 020000000000000000000000000000000000000000000000000000000000000000000000000000000000000000000000000000000000000000000000003001201700000000            000000000000000                              000                           
0010001300123T 020180230000001544772 29577050337454667   788888888888889931012017000000000010000001023604888888888888899          0900000000000010000000000000000000000000000000000000000   0000000000000000000000000A9        170192957705     
0010001300124U 020000000000000000000000000000000000000000000000000000000000000000000000000000000000000000000000000000000000000000000000003001201700000000            000000000000000                              000                           
0010001300125T 020180230000001544772 29577050337506644   788888888888889931012017000000000007500001000213888888888888899          0900000000000010000000000000000000000000000000000000000   0000000000000000000000000A9        170192957705     
0010001300126U 020000000000000000000000000000000000000000000000000000000000000000000000000000000000000000000000000000000000000000000000003001201700000000            000000000000000                              000                           
0010001300127T 020180230000001544772 29577050337601118   788888888888889931012017000000000007500001009245888888888888899          0900000000000010000000000000000000000000000000000000000   0000000000000000000000000A9        170192957705     
0010001300128U 020000000000000000000000000000000000000000000000000000000000000000000000000000000000000000000000000000000000000000000000003001201700000000            000000000000000                              000                           
0010001300129T 020180230000001544772 29577050337605009   788888888888889931012017000000000007500001009245888888888888899          0900000000000010000000000000000000000000000000000000000   0000000000000000000000000A9        170192957705     
0010001300130U 020000000000000000000000000000000000000000000000000000000000000000000000000000000000000000000000000000000000000000000000003001201700000000            000000000000000                              000                           
0010001300131T 020180230000001544772 29577050337740476   788888888888889931012017000000000007500001001120888888888888899          0900000000000010000000000000000000000000000000000000000   0000000000000000000000000A9        170192957705     
0010001300132U 020000000000000000000000000000000000000000000000000000000000000000000000000000000000000000000000000000000000000000000000003001201700000000            000000000000000                              000                           
0010001300133T 020180230000001544772 29577050337814945   78888888888888993101201700000000000750000103049X888888888888899          0900000000000010000000000000000000000000000000000000000   0000000000000000000000000A9        170192957705     
0010001300134U 020000000000000000000000000000000000000000000000000000000000000000000000000000000000000000000000000000000000000000000000003001201700000000            000000000000000                              000                           
0010001300135T 020180230000001544772 29577050337904446   78888888888888993101201700000000000750000103049X888888888888899          0900000000000010000000000000000000000000000000000000000   0000000000000000000000000A9        170192957705     
0010001300136U 020000000000000000000000000000000000000000000000000000000000000000000000000000000000000000000000000000000000000000000000003001201700000000            000000000000000                              000                           
0010001300137T 020180230000001544772 29577050338009436   788888888888889931012017000000000007500001012416888888888888899          0900000000000010000000000000000000000000000000000000000   0000000000000000000000000A9        170192957705     
0010001300138U 020000000000000000000000000000000000000000000000000000000000000000000000000000000000000000000000000000000000000000000000003001201700000000            000000000000000                              000                           
0010001300139T 020180230000001544772 29577050338038138   788888888888889931012017000000000007500001012416888888888888899          0900000000000010000000000000000000000000000000000000000   0000000000000000000000000A9        170192957705     
0010001300140U 020000000000000000000000000000000000000000000000000000000000000000000000000000000000000000000000000000000000000000000000003001201700000000            000000000000000                              000                           
0010001300141T 020180230000001544772 29577050338156827   788888888888889931012017000000000007500001012416888888888888899          0900000000000010000000000000000000000000000000000000000   0000000000000000000000000A9        170192957705     
0010001300142U 020000000000000000000000000000000000000000000000000000000000000000000000000000000000000000000000000000000000000000000000003001201700000000            000000000000000                              000                           
0010001300143T 020180230000001544772 29577050338256750   788888888888889931012017000000000007500001013005888888888888899          0900000000000010500000000000000000000000000000000000000   0000000000000000000000000A9A4      170192957705     
0010001300144U 020000000000000000000000000000000000000000000000000000000000000000000000000000000000000000000000000000000000000000000000003001201700000000            000000000000000                              000                           
0010001300145T 020180230000001544772 29577050338256800   788888888888889931012017000000000007500001013005888888888888899          0900000000000010500000000000000000000000000000000000000   0000000000000000000000000A9A4      170192957705     
0010001300146U 020000000000000000000000000000000000000000000000000000000000000000000000000000000000000000000000000000000000000000000000003001201700000000            000000000000000                              000                           
0010001300147T 020180230000001544772 29577050338434676   788888888888889931012017000000000007500001000213888888888888899          0900000000000010000000000000000000000000000000000000000   0000000000000000000000000A9        170192957705     
0010001300148U 020000000000000000000000000000000000000000000000000000000000000000000000000000000000000000000000000000000000000000000000003001201700000000            000000000000000                              000                           
0010001300149T 020180230000001544772 29577050338524239   788888888888889931012017000000000007500001000213888888888888899          0900000000000010000000000000000000000000000000000000000   0000000000000000000000000A9        170192957705     
0010001300150U 020000000000000000000000000000000000000000000000000000000000000000000000000000000000000000000000000000000000000000000000003001201700000000            000000000000000                              000                           
0010001300151T 020180230000001544772 29577050338550255   788888888888889931012017000000000007500001000213888888888888899          0900000000000010000000000000000000000000000000000000000   0000000000000000000000000A9        170192957705     
0010001300152U 020000000000000000000000000000000000000000000000000000000000000000000000000000000000000000000000000000000000000000000000003001201700000000            000000000000000                              000                           
0010001300153T 020180230000001544772 29577050338616050   788888888888889931012017000000000007500001024511888888888888899          0900000000000010000000000000000000000000000000000000000   0000000000000000000000000A9        170192957705     
0010001300154U 020000000000000000000000000000000000000000000000000000000000000000000000000000000000000000000000000000000000000000000000003001201700000000            000000000000000                              000                           
0010001300155T 020180230000001544772 29577050338754291   788888888888889931012017000000000007500001009245888888888888899          0900000000000010000000000000000000000000000000000000000   0000000000000000000000000A9        170192957705     
0010001300156U 020000000000000000000000000000000000000000000000000000000000000000000000000000000000000000000000000000000000000000000000003001201700000000            000000000000000                              000                           
0010001300157T 020180230000001544772 29577050338844060   788888888888889931012017000000000007500001009245888888888888899          0900000000000010000000000000000000000000000000000000000   0000000000000000000000000A9        170192957705     
0010001300158U 020000000000000000000000000000000000000000000000000000000000000000000000000000000000000000000000000000000000000000000000003001201700000000            000000000000000                              000                           
0010001300159T 020180230000001544772 29577050338955936   788888888888889931012017000000000007500001000213888888888888899          0900000000000010000000000000000000000000000000000000000   0000000000000000000000000A9        170192957705     
0010001300160U 020000000000000000000000000000000000000000000000000000000000000000000000000000000000000000000000000000000000000000000000003001201700000000            000000000000000                              000                           
0010001300161T 020180230000001544772 29577050341634884   7               01022017000000000007500001000213                         0900000000000010000000000000000000000000000000000000000   0000000000000000000000000A9        170192957705     
0010001300162U 020000000000000000000000000000000000000000000000000000000000000000000000000000000000000000000000000000000000000000000000003001201700000000            000000000000000                              000                           
0010001300163T 020180230000001544772 29577050341720146   7               01022017000000000007500001000213                         0900000000000010000000000000000000000000000000000000000   0000000000000000000000000A9        170192957705     
0010001300164U 020000000000000000000000000000000000000000000000000000000000000000000000000000000000000000000000000000000000000000000000003001201700000000            000000000000000                              000                           
0010001300165T 170180230000001544772 29577050038124428   7               00000000000000000007500021002550                         0900000000000010000000000000000000000000000000000000000   000000000000000000000070003        170192957705     
0010001300166U 170000000000000000000000000000000000000000000000000000000000000000000000075000000000000068000000000000000000000000000000003001201731012017            000000000000000                              000                           
0010001300167T 060180230000001544772 29577050145420096   788888888888889928012017000000000007500001031674888888888888899          0900000000000010000000000000000000000000000000000000000   000000000000000000000029000        170192957705     
0010001300168U 060000000000000000000000000000000000000000000000000000000000000000000000075000000000000072100000000000000000000000000000003001201731012017            000000000000000                              000                           
0010001300169T 170180230000001544772 29577050237227379   7               00000000000000000007500104005900                         0900000000000010000000000000000000000000000000000000000   000000000000000000000070003        170192957705     
0010001300170U 170000000000000000000000000000000000000000000000000000000000000000000000075000000000000068000000000000000000000000000000003001201731012017            000000000000000                              000                           
0010001300171T 170180230000001544772 29577050323527989   7               00000000000000000007500021000660                         0900000000000010000000000000000000000000000000000000000   000000000000000000000070003        170192957705     
0010001300172U 170000000000000000000000000000000000000000000000000000000000000000000000075000000000000068000000000000000000000000000000003001201731012017            000000000000000                              000                           
0010001300173T 060180230000001544772 29577050324200596   788888888888889928012017000000000007500021006130888888888888899          0900000000000010000000000000000000000000000000000000000   000000000000000000000029000        170192957705     
0010001300174U 060000000000000000000000000000000000000000000000000000000000000000000000075000000000000072100000000000000000000000000000003001201731012017            000000000000000                              000                           
0010001300175T 170180230000001544772 29577050330831398   7               00000000000000000007500341064060                         0900000000000010000000000000000000000000000000000000000   000000000000000000000070003        170192957705     
0010001300176U 170000000000000000000000000000000000000000000000000000000000000000000000075000000000000068000000000000000000000000000000003001201731012017            000000000000000                              000                           
0010001300177T 060180230000001544772 29577050334319256   788888888888889931012017000000000007500021001830888888888888899          0900000000000010000000000000000000000000000000000000000   000000000000000000000029000        170192957705     
0010001300178U 060000000000000000000000000000000000000000000000000000000000000000000000075000000000000072100000000000000000000000000000003001201731012017            000000000000000                              000                           
0010001300179T 060180230000001544772 29577050334558495   788888888888889931012017000000000007500104008230888888888888899          0900000000000010000000000000000000000000000000000000000   000000000000000000000029000        170192957705     
0010001300180U 060000000000000000000000000000000000000000000000000000000000000000000000075000000000000072100000000000000000000000000000003001201731012017            000000000000000                              000                           
0010001300181T 060180230000001544772 29577050335203527   788888888888889931012017000000000007500104008230888888888888899          0900000000000010000000000000000000000000000000000000000   000000000000000000000029000        170192957705     
0010001300182U 060000000000000000000000000000000000000000000000000000000000000000000000075000000000000072100000000000000000000000000000003001201731012017            000000000000000                              000                           
0010001300183T 060180230000001544772 29577050336408494   788888888888889931012017000000000007500001002887888888888888899          0900000000000010000000000000000000000000000000000000000   000000000000000000000029000        170192957705     
0010001300184U 060000000000000000000000000000000000000000000000000000000000000000000000075000000000000072100000000000000000000000000000003001201731012017            000000000000000                              000                           
0010001300185T 060180230000001544772 29577050337333401   788888888888889931012017000000000007500001031941888888888888899          0900000000000010000000000000000000000000000000000000000   000000000000000000000029000        170192957705     
0010001300186U 060000000000000000000000000000000000000000000000000000000000000000000000075000000000000072100000000000000000000000000000003001201731012017            000000000000000                              000                           
0010001300187T 060180230000001544772 29577050337814945   788888888888889931012017000000000007500104041900888888888888899          0900000000000010000000000000000000000000000000000000000   000000000000000000000029000        170192957705     
0010001300188U 060000000000000000000000000000000000000000000000000000000000000000000000075000000000000072100000000000000000000000000000003001201731012017            000000000000000                              000                           
0010001300189T 060180230000001544772 29577050337904446   788888888888889931012017000000000007500104041900888888888888899          0900000000000010000000000000000000000000000000000000000   000000000000000000000029000        170192957705     
0010001300190U 060000000000000000000000000000000000000000000000000000000000000000000000075000000000000072100000000000000000000000000000003001201731012017            000000000000000                              000                           
0010001300191T 060180230000001544772 29577050338009436   788888888888889931012017000000000007500021001050888888888888899          0900000000000010000000000000000000000000000000000000000   000000000000000000000029000        170192957705     
0010001300192U 060000000000000000000000000000000000000000000000000000000000000000000000075000000000000072100000000000000000000000000000003001201731012017            000000000000000                              000                           
0010001300193T 170180230000001544772 29577050341300910   7               00000000000000000007500021002740                         0900000000000010000000000000000000000000000000000000000   000000000000000000000070003        170192957705     
0010001300194U 170000000000000000000000000000000000000000000000000000000000000000000000075000000000000068000000000000000000000000000000003001201731012017            000000000000000                              000                           
0010001300195T 060180230000001544772 29577050341634884   7               01022017000000000007500001018023                         0900000000000010000000000000000000000000000000000000000   000000000000000000000029000        170192957705     
0010001300196U 060000000000000000000000000000000000000000000000000000000000000000000000075000000000000072100000000000000000000000000000003001201731012017            000000000000000                              000                           
0010001300197T 170180230000001544772 29577050351757999   7               00000000000000000007500341008700                         0900000000000010000000000000000000000000000000000000000   000000000000000000000070003        170192957705     
0010001300198U 170000000000000000000000000000000000000000000000000000000000000000000000075000000000000068000000000000000000000000000000003001201731012017            000000000000000                              000                           
0010001300199T 280180230000001544772 29577050006220001   788888888888889930122016000000000007500001000000888888888888899          0900000000000000000000000000000000000000000000000000000   000000000000000000000005002        170192957705     
0010001300200U 280000000000000000000000000000000000000000000000000000000000000000000000000000000000000000000000000000000000000000000000003001201700000000            000000000000000                              000                           
0010001300201T 280180230000001544772 29577050010224732   788888888888889930122016000000000007500001000000888888888888899          0900000000000000000000000000000000000000000000000000000   000000000000000000000005002        170192957705     
0010001300202U 280000000000000000000000000000000000000000000000000000000000000000000000000000000000000000000000000000000000000000000000003001201700000000            000000000000000                              000                           
0010001300203T 280180230000001544772 29577050011309777   788888888888889929122016000000000007500001000000888888888888899          0900000000000000000000000000000000000000000000000000000   000000000000000000000005002        170192957705     
0010001300204U 280000000000000000000000000000000000000000000000000000000000000000000000000000000000000000000000000000000000000000000000003001201700000000            000000000000000                              000                           
0010001300205T 280180230000001544772 29577050011310441   788888888888889929122016000000000007500001000000888888888888899          0900000000000000000000000000000000000000000000000000000   000000000000000000000005002        170192957705     
0010001300206U 280000000000000000000000000000000000000000000000000000000000000000000000000000000000000000000000000000000000000000000000003001201700000000            000000000000000                              000                           
0010001300207T 280180230000001544772 29577050017809041   788888888888889931122016000000000007500001000000888888888888899          0900000000000000000000000000000000000000000000000000000   000000000000000000000005002        170192957705     
0010001300208U 280000000000000000000000000000000000000000000000000000000000000000000000000000000000000000000000000000000000000000000000003001201700000000            000000000000000                              000                           
0010001300209T 280180230000001544772 29577050021145422   788888888888889931122016000000000007500001000000888888888888899          0900000000000000000000000000000000000000000000000000000   000000000000000000000005002        170192957705     
0010001300210U 280000000000000000000000000000000000000000000000000000000000000000000000000000000000000000000000000000000000000000000000003001201700000000            000000000000000                              000                           
0010001300211T 280180230000001544772 29577050021411303   788888888888889931122016000000000007500001000000888888888888899          0900000000000000000000000000000000000000000000000000000   000000000000000000000005002        170192957705     
0010001300212U 280000000000000000000000000000000000000000000000000000000000000000000000000000000000000000000000000000000000000000000000003001201700000000            000000000000000                              000                           
0010001300213T 280180230000001544772 29577050032315061   788888888888889929122016000000000007500001000000888888888888899          0900000000000000000000000000000000000000000000000000000   000000000000000000000005002        170192957705     
0010001300214U 280000000000000000000000000000000000000000000000000000000000000000000000000000000000000000000000000000000000000000000000003001201700000000            000000000000000                              000                           
0010001300215T 280180230000001544772 29577050033045790   788888888888889930122016000000000007500001000000888888888888899          0900000000000000000000000000000000000000000000000000000   000000000000000000000005002        170192957705     
0010001300216U 280000000000000000000000000000000000000000000000000000000000000000000000000000000000000000000000000000000000000000000000003001201700000000            000000000000000                              000                           
0010001300217T 280180230000001544772 29577050037954423   788888888888889930122016000000000007500001000000888888888888899          0900000000000000000000000000000000000000000000000000000   000000000000000000000005002        170192957705     
0010001300218U 280000000000000000000000000000000000000000000000000000000000000000000000000000000000000000000000000000000000000000000000003001201700000000            000000000000000                              000                           
0010001300219T 280180230000001544772 29577050058316928   788888888888889929122016000000000010000001000000888888888888899          0900000000000000000000000000000000000000000000000000000   000000000000000000000005002        170192957705     
0010001300220U 280000000000000000000000000000000000000000000000000000000000000000000000000000000000000000000000000000000000000000000000003001201700000000            000000000000000                              000                           
0010001300221T 280180230000001544772 29577050058533165   788888888888889931122016000000000007500001000000888888888888899          0900000000000000000000000000000000000000000000000000000   000000000000000000000005002        170192957705     
0010001300222U 280000000000000000000000000000000000000000000000000000000000000000000000000000000000000000000000000000000000000000000000003001201700000000            000000000000000                              000                           
0010001300223T 280180230000001544772 29577050059238199   788888888888889929122016000000000007500001000000888888888888899          0900000000000000000000000000000000000000000000000000000   000000000000000000000005002        170192957705     
0010001300224U 280000000000000000000000000000000000000000000000000000000000000000000000000000000000000000000000000000000000000000000000003001201700000000            000000000000000                              000                           
0010001300225T 280180230000001544772 29577050063500360   788888888888889930122016000000000007500001000000888888888888899          0900000000000000000000000000000000000000000000000000000   000000000000000000000005002        170192957705     
0010001300226U 280000000000000000000000000000000000000000000000000000000000000000000000000000000000000000000000000000000000000000000000003001201700000000            000000000000000                              000                           
0010001300227T 280180230000001544772 29577050066129026   788888888888889929122016000000000007500001000000888888888888899          0900000000000000000000000000000000000000000000000000000   000000000000000000000005002        170192957705     
0010001300228U 280000000000000000000000000000000000000000000000000000000000000000000000000000000000000000000000000000000000000000000000003001201700000000            000000000000000                              000                           
0010001300229T 280180230000001544772 29577050072229947   788888888888889929122016000000000007500001000000888888888888899          0900000000000000000000000000000000000000000000000000000   000000000000000000000005002        170192957705     
0010001300230U 280000000000000000000000000000000000000000000000000000000000000000000000000000000000000000000000000000000000000000000000003001201700000000            000000000000000                              000                           
0010001300231T 280180230000001544772 29577050072244559   788888888888889929122016000000000007500001000000888888888888899          0900000000000000000000000000000000000000000000000000000   000000000000000000000005002        170192957705     
0010001300232U 280000000000000000000000000000000000000000000000000000000000000000000000000000000000000000000000000000000000000000000000003001201700000000            000000000000000                              000                           
0010001300233T 280180230000001544772 29577050080859688   788888888888889931122016000000000007500001000000888888888888899          0900000000000000000000000000000000000000000000000000000   000000000000000000000005002        170192957705     
0010001300234U 280000000000000000000000000000000000000000000000000000000000000000000000000000000000000000000000000000000000000000000000003001201700000000            000000000000000                              000                           
0010001300235T 280180230000001544772 29577050081405142   788888888888889929122016000000000007500001000000888888888888899          0900000000000000000000000000000000000000000000000000000   000000000000000000000005002        170192957705     
0010001300236U 280000000000000000000000000000000000000000000000000000000000000000000000000000000000000000000000000000000000000000000000003001201700000000            000000000000000                              000                           
0010001300237T 280180230000001544772 29577050081740598   788888888888889929122016000000000007500001000000888888888888899          0900000000000000000000000000000000000000000000000000000   000000000000000000000005002        170192957705     
0010001300238U 280000000000000000000000000000000000000000000000000000000000000000000000000000000000000000000000000000000000000000000000003001201700000000            000000000000000                              000                           
0010001300239T 280180230000001544772 29577050081834764   788888888888889929122016000000000007500001000000888888888888899          0900000000000000000000000000000000000000000000000000000   000000000000000000000005002        170192957705     
0010001300240U 280000000000000000000000000000000000000000000000000000000000000000000000000000000000000000000000000000000000000000000000003001201700000000            000000000000000                              000                           
0010001300241T 280180230000001544772 29577050082207732   788888888888889929122016000000000007500001000000888888888888899          0900000000000000000000000000000000000000000000000000000   000000000000000000000005002        170192957705     
0010001300242U 280000000000000000000000000000000000000000000000000000000000000000000000000000000000000000000000000000000000000000000000003001201700000000            000000000000000                              000                           
0010001300243T 280180230000001544772 29577050082304527   788888888888889929122016000000000007500001000000888888888888899          0900000000000000000000000000000000000000000000000000000   000000000000000000000005002        170192957705     
0010001300244U 280000000000000000000000000000000000000000000000000000000000000000000000000000000000000000000000000000000000000000000000003001201700000000            000000000000000                              000                           
0010001300245T 280180230000001544772 29577050082452738   788888888888889929122016000000000007500001000000888888888888899          0900000000000000000000000000000000000000000000000000000   000000000000000000000005002        170192957705     
0010001300246U 280000000000000000000000000000000000000000000000000000000000000000000000000000000000000000000000000000000000000000000000003001201700000000            000000000000000                              000                           
0010001300247T 280180230000001544772 29577050082555805   788888888888889929122016000000000007500001000000888888888888899          0900000000000000000000000000000000000000000000000000000   000000000000000000000005002        170192957705     
0010001300248U 280000000000000000000000000000000000000000000000000000000000000000000000000000000000000000000000000000000000000000000000003001201700000000            000000000000000                              000                           
0010001300249T 280180230000001544772 29577050082740753   788888888888889929122016000000000007500001000000888888888888899          0900000000000000000000000000000000000000000000000000000   000000000000000000000005002        170192957705     
0010001300250U 280000000000000000000000000000000000000000000000000000000000000000000000000000000000000000000000000000000000000000000000003001201700000000            000000000000000                              000                           
0010001300251T 280180230000001544772 29577050083158448   788888888888889929122016000000000007500001000000888888888888899          0900000000000000000000000000000000000000000000000000000   000000000000000000000005002        170192957705     
0010001300252U 280000000000000000000000000000000000000000000000000000000000000000000000000000000000000000000000000000000000000000000000003001201700000000            000000000000000                              000                           
0010001300253T 280180230000001544772 29577050083611037   788888888888889929122016000000000007500001000000888888888888899          0900000000000000000000000000000000000000000000000000000   000000000000000000000005002        170192957705     
0010001300254U 280000000000000000000000000000000000000000000000000000000000000000000000000000000000000000000000000000000000000000000000003001201700000000            000000000000000                              000                           
0010001300255T 280180230000001544772 29577050083713078   788888888888889929122016000000000007500001000000888888888888899          0900000000000000000000000000000000000000000000000000000   000000000000000000000005002        170192957705     
0010001300256U 280000000000000000000000000000000000000000000000000000000000000000000000000000000000000000000000000000000000000000000000003001201700000000            000000000000000                              000                           
0010001300257T 280180230000001544772 29577050083852318   788888888888889929122016000000000007500001000000888888888888899          0900000000000000000000000000000000000000000000000000000   000000000000000000000005002        170192957705     
0010001300258U 280000000000000000000000000000000000000000000000000000000000000000000000000000000000000000000000000000000000000000000000003001201700000000            000000000000000                              000                           
0010001300259T 280180230000001544772 29577050083921967   788888888888889929122016000000000007500001000000888888888888899          0900000000000000000000000000000000000000000000000000000   000000000000000000000005002        170192957705     
0010001300260U 280000000000000000000000000000000000000000000000000000000000000000000000000000000000000000000000000000000000000000000000003001201700000000            000000000000000                              000                           
0010001300261T 280180230000001544772 29577050084001751   788888888888889929122016000000000007500001000000888888888888899          0900000000000000000000000000000000000000000000000000000   000000000000000000000005002        170192957705     
0010001300262U 280000000000000000000000000000000000000000000000000000000000000000000000000000000000000000000000000000000000000000000000003001201700000000            000000000000000                              000                           
0010001300263T 280180230000001544772 29577050084137497   788888888888889929122016000000000007500001000000888888888888899          0900000000000000000000000000000000000000000000000000000   000000000000000000000005002        170192957705     
0010001300264U 280000000000000000000000000000000000000000000000000000000000000000000000000000000000000000000000000000000000000000000000003001201700000000            000000000000000                              000                           
0010001300265T 280180230000001544772 29577050084204392   788888888888889929122016000000000007500001000000888888888888899          0900000000000000000000000000000000000000000000000000000   000000000000000000000005002        170192957705     
0010001300266U 280000000000000000000000000000000000000000000000000000000000000000000000000000000000000000000000000000000000000000000000003001201700000000            000000000000000                              000                           
0010001300267T 280180230000001544772 29577050084350796   788888888888889929122016000000000010000001000000888888888888899          0900000000000000000000000000000000000000000000000000000   000000000000000000000005002        170192957705     
0010001300268U 280000000000000000000000000000000000000000000000000000000000000000000000000000000000000000000000000000000000000000000000003001201700000000            000000000000000                              000                           
0010001300269T 280180230000001544772 29577050084357451   788888888888889929122016000000000010000001000000888888888888899          0900000000000000000000000000000000000000000000000000000   000000000000000000000005002        170192957705     
0010001300270U 280000000000000000000000000000000000000000000000000000000000000000000000000000000000000000000000000000000000000000000000003001201700000000            000000000000000                              000                           
0010001300271T 280180230000001544772 29577050084459318   788888888888889929122016000000000007500001000000888888888888899          0900000000000000000000000000000000000000000000000000000   000000000000000000000005002        170192957705     
0010001300272U 280000000000000000000000000000000000000000000000000000000000000000000000000000000000000000000000000000000000000000000000003001201700000000            000000000000000                              000                           
0010001300273T 280180230000001544772 29577050084522186   788888888888889929122016000000000007500001000000888888888888899          0900000000000000000000000000000000000000000000000000000   000000000000000000000005002        170192957705     
0010001300274U 280000000000000000000000000000000000000000000000000000000000000000000000000000000000000000000000000000000000000000000000003001201700000000            000000000000000                              000                           
0010001300275T 280180230000001544772 29577050084626829   788888888888889929122016000000000007500001000000888888888888899          0900000000000000000000000000000000000000000000000000000   000000000000000000000005002        170192957705     
0010001300276U 280000000000000000000000000000000000000000000000000000000000000000000000000000000000000000000000000000000000000000000000003001201700000000            000000000000000                              000                           
0010001300277T 280180230000001544772 29577050084752876   788888888888889929122016000000000007500001000000888888888888899          0900000000000000000000000000000000000000000000000000000   000000000000000000000005002        170192957705     
0010001300278U 280000000000000000000000000000000000000000000000000000000000000000000000000000000000000000000000000000000000000000000000003001201700000000            000000000000000                              000                           
0010001300279T 280180230000001544772 29577050084927316   788888888888889929122016000000000007500001000000888888888888899          0900000000000000000000000000000000000000000000000000000   000000000000000000000005002        170192957705     
0010001300280U 280000000000000000000000000000000000000000000000000000000000000000000000000000000000000000000000000000000000000000000000003001201700000000            000000000000000                              000                           
0010001300281T 280180230000001544772 29577050085015734   788888888888889929122016000000000007500001000000888888888888899          0900000000000000000000000000000000000000000000000000000   000000000000000000000005002        170192957705     
0010001300282U 280000000000000000000000000000000000000000000000000000000000000000000000000000000000000000000000000000000000000000000000003001201700000000            000000000000000                              000                           
0010001300283T 280180230000001544772 29577050085102522   788888888888889929122016000000000007500001000000888888888888899          0900000000000000000000000000000000000000000000000000000   000000000000000000000005002        170192957705     
0010001300284U 280000000000000000000000000000000000000000000000000000000000000000000000000000000000000000000000000000000000000000000000003001201700000000            000000000000000                              000                           
0010001300285T 280180230000001544772 29577050085356837   788888888888889929122016000000000007500001000000888888888888899          0900000000000000000000000000000000000000000000000000000   000000000000000000000005002        170192957705     
0010001300286U 280000000000000000000000000000000000000000000000000000000000000000000000000000000000000000000000000000000000000000000000003001201700000000            000000000000000                              000                           
0010001300287T 280180230000001544772 29577050085526166   788888888888889929122016000000000007500001000000888888888888899          0900000000000000000000000000000000000000000000000000000   000000000000000000000005002        170192957705     
0010001300288U 280000000000000000000000000000000000000000000000000000000000000000000000000000000000000000000000000000000000000000000000003001201700000000            000000000000000                              000                           
0010001300289T 280180230000001544772 29577050085837827   788888888888889929122016000000000007500001000000888888888888899          0900000000000000000000000000000000000000000000000000000   000000000000000000000005002        170192957705     
0010001300290U 280000000000000000000000000000000000000000000000000000000000000000000000000000000000000000000000000000000000000000000000003001201700000000            000000000000000                              000                           
0010001300291T 280180230000001544772 29577050085917129   788888888888889929122016000000000007500001000000888888888888899          0900000000000000000000000000000000000000000000000000000   000000000000000000000005002        170192957705     
0010001300292U 280000000000000000000000000000000000000000000000000000000000000000000000000000000000000000000000000000000000000000000000003001201700000000            000000000000000                              000                           
0010001300293T 280180230000001544772 29577050086005491   788888888888889929122016000000000007500001000000888888888888899          0900000000000000000000000000000000000000000000000000000   000000000000000000000005002        170192957705     
0010001300294U 280000000000000000000000000000000000000000000000000000000000000000000000000000000000000000000000000000000000000000000000003001201700000000            000000000000000                              000                           
0010001300295T 280180230000001544772 29577050086123506   788888888888889929122016000000000007500001000000888888888888899          0900000000000000000000000000000000000000000000000000000   000000000000000000000005002        170192957705     
0010001300296U 280000000000000000000000000000000000000000000000000000000000000000000000000000000000000000000000000000000000000000000000003001201700000000            000000000000000                              000                           
0010001300297T 280180230000001544772 29577050086217033   788888888888889929122016000000000007500001000000888888888888899          0900000000000000000000000000000000000000000000000000000   000000000000000000000005002        170192957705     
0010001300298U 280000000000000000000000000000000000000000000000000000000000000000000000000000000000000000000000000000000000000000000000003001201700000000            000000000000000                              000                           
0010001300299T 280180230000001544772 29577050086442532   788888888888889929122016000000000007500001000000888888888888899          0900000000000000000000000000000000000000000000000000000   000000000000000000000005002        170192957705     
0010001300300U 280000000000000000000000000000000000000000000000000000000000000000000000000000000000000000000000000000000000000000000000003001201700000000            000000000000000                              000                           
0010001300301T 280180230000001544772 29577050086559735   788888888888889929122016000000000010000001000000888888888888899          0900000000000000000000000000000000000000000000000000000   000000000000000000000005002        170192957705     
0010001300302U 280000000000000000000000000000000000000000000000000000000000000000000000000000000000000000000000000000000000000000000000003001201700000000            000000000000000                              000                           
0010001300303T 280180230000001544772 29577050086630951   788888888888889929122016000000000007500001000000888888888888899          0900000000000000000000000000000000000000000000000000000   000000000000000000000005002        170192957705     
0010001300304U 280000000000000000000000000000000000000000000000000000000000000000000000000000000000000000000000000000000000000000000000003001201700000000            000000000000000                              000                           
0010001300305T 280180230000001544772 29577050086712848   788888888888889929122016000000000007500001000000888888888888899          0900000000000000000000000000000000000000000000000000000   000000000000000000000005002        170192957705     
0010001300306U 280000000000000000000000000000000000000000000000000000000000000000000000000000000000000000000000000000000000000000000000003001201700000000            000000000000000                              000                           
0010001300307T 280180230000001544772 29577050086912773   788888888888889929122016000000000007500001000000888888888888899          0900000000000000000000000000000000000000000000000000000   000000000000000000000005002        170192957705     
0010001300308U 280000000000000000000000000000000000000000000000000000000000000000000000000000000000000000000000000000000000000000000000003001201700000000            000000000000000                              000                           
0010001300309T 280180230000001544772 29577050087023952   788888888888889929122016000000000007500001000000888888888888899          0900000000000000000000000000000000000000000000000000000   000000000000000000000005002        170192957705     
0010001300310U 280000000000000000000000000000000000000000000000000000000000000000000000000000000000000000000000000000000000000000000000003001201700000000            000000000000000                              000                           
0010001300311T 280180230000001544772 29577050087116085   788888888888889929122016000000000007500001000000888888888888899          0900000000000000000000000000000000000000000000000000000   000000000000000000000005002        170192957705     
0010001300312U 280000000000000000000000000000000000000000000000000000000000000000000000000000000000000000000000000000000000000000000000003001201700000000            000000000000000                              000                           
0010001300313T 280180230000001544772 29577050087210743   788888888888889929122016000000000007500001000000888888888888899          0900000000000000000000000000000000000000000000000000000   000000000000000000000005002        170192957705     
0010001300314U 280000000000000000000000000000000000000000000000000000000000000000000000000000000000000000000000000000000000000000000000003001201700000000            000000000000000                              000                           
0010001300315T 280180230000001544772 29577050087306951   788888888888889929122016000000000007500001000000888888888888899          0900000000000000000000000000000000000000000000000000000   000000000000000000000005002        170192957705     
0010001300316U 280000000000000000000000000000000000000000000000000000000000000000000000000000000000000000000000000000000000000000000000003001201700000000            000000000000000                              000                           
0010001300317T 280180230000001544772 29577050087400498   788888888888889929122016000000000007500001000000888888888888899          0900000000000000000000000000000000000000000000000000000   000000000000000000000005002        170192957705     
0010001300318U 280000000000000000000000000000000000000000000000000000000000000000000000000000000000000000000000000000000000000000000000003001201700000000            000000000000000                              000                           
0010001300319T 280180230000001544772 29577050087554254   788888888888889929122016000000000007500001000000888888888888899          0900000000000000000000000000000000000000000000000000000   000000000000000000000005002        170192957705     
0010001300320U 280000000000000000000000000000000000000000000000000000000000000000000000000000000000000000000000000000000000000000000000003001201700000000            000000000000000                              000                           
0010001300321T 280180230000001544772 29577050087625822   788888888888889929122016000000000007500001000000888888888888899          0900000000000000000000000000000000000000000000000000000   000000000000000000000005002        170192957705     
0010001300322U 280000000000000000000000000000000000000000000000000000000000000000000000000000000000000000000000000000000000000000000000003001201700000000            000000000000000                              000                           
0010001300323T 280180230000001544772 29577050087949186   788888888888889929122016000000000007500001000000888888888888899          0900000000000000000000000000000000000000000000000000000   000000000000000000000005002        170192957705     
0010001300324U 280000000000000000000000000000000000000000000000000000000000000000000000000000000000000000000000000000000000000000000000003001201700000000            000000000000000                              000                           
0010001300325T 280180230000001544772 29577050088041011   788888888888889929122016000000000007500001000000888888888888899          0900000000000000000000000000000000000000000000000000000   000000000000000000000005002        170192957705     
0010001300326U 280000000000000000000000000000000000000000000000000000000000000000000000000000000000000000000000000000000000000000000000003001201700000000            000000000000000                              000                           
0010001300327T 280180230000001544772 29577050089907312   788888888888889931122016000000000007500001000000888888888888899          0900000000000000000000000000000000000000000000000000000   000000000000000000000005002        170192957705     
0010001300328U 280000000000000000000000000000000000000000000000000000000000000000000000000000000000000000000000000000000000000000000000003001201700000000            000000000000000                              000                           
0010001300329T 280180230000001544772 29577050094603055   788888888888889930122016000000000007500001000000888888888888899          0900000000000000000000000000000000000000000000000000000   000000000000000000000005002        170192957705     
0010001300330U 280000000000000000000000000000000000000000000000000000000000000000000000000000000000000000000000000000000000000000000000003001201700000000            000000000000000                              000                           
0010001300331T 280180230000001544772 29577050095020336   788888888888889930122016000000000007500001000000888888888888899          0900000000000000000000000000000000000000000000000000000   000000000000000000000005002        170192957705     
0010001300332U 280000000000000000000000000000000000000000000000000000000000000000000000000000000000000000000000000000000000000000000000003001201700000000            000000000000000                              000                           
0010001300333T 280180230000001544772 29577050095145763   788888888888889930122016000000000007500001000000888888888888899          0900000000000000000000000000000000000000000000000000000   000000000000000000000005002        170192957705     
0010001300334U 280000000000000000000000000000000000000000000000000000000000000000000000000000000000000000000000000000000000000000000000003001201700000000            000000000000000                              000                           
0010001300335T 280180230000001544772 29577050095216907   788888888888889930122016000000000007500001000000888888888888899          0900000000000000000000000000000000000000000000000000000   000000000000000000000005002        170192957705     
0010001300336U 280000000000000000000000000000000000000000000000000000000000000000000000000000000000000000000000000000000000000000000000003001201700000000            000000000000000                              000                           
0010001300337T 280180230000001544772 29577050095225958   788888888888889930122016000000000007500001000000888888888888899          0900000000000000000000000000000000000000000000000000000   000000000000000000000005002        170192957705     
0010001300338U 280000000000000000000000000000000000000000000000000000000000000000000000000000000000000000000000000000000000000000000000003001201700000000            000000000000000                              000                           
0010001300339T 280180230000001544772 29577050095409774   788888888888889930122016000000000007500001000000888888888888899          0900000000000000000000000000000000000000000000000000000   000000000000000000000005002        170192957705     
0010001300340U 280000000000000000000000000000000000000000000000000000000000000000000000000000000000000000000000000000000000000000000000003001201700000000            000000000000000                              000                           
0010001300341T 280180230000001544772 29577050095523757   788888888888889930122016000000000010000001000000888888888888899          0900000000000000000000000000000000000000000000000000000   000000000000000000000005002        170192957705     
0010001300342U 280000000000000000000000000000000000000000000000000000000000000000000000000000000000000000000000000000000000000000000000003001201700000000            000000000000000                              000                           
0010001300343T 280180230000001544772 29577050095608262   788888888888889930122016000000000007500001000000888888888888899          0900000000000000000000000000000000000000000000000000000   000000000000000000000005002        170192957705     
0010001300344U 280000000000000000000000000000000000000000000000000000000000000000000000000000000000000000000000000000000000000000000000003001201700000000            000000000000000                              000                           
0010001300345T 280180230000001544772 29577050095854456   788888888888889930122016000000000007500001000000888888888888899          0900000000000000000000000000000000000000000000000000000   000000000000000000000005002        170192957705     
0010001300346U 280000000000000000000000000000000000000000000000000000000000000000000000000000000000000000000000000000000000000000000000003001201700000000            000000000000000                              000                           
0010001300347T 280180230000001544772 29577050095916010   788888888888889930122016000000000007500001000000888888888888899          0900000000000000000000000000000000000000000000000000000   000000000000000000000005002        170192957705     
0010001300348U 280000000000000000000000000000000000000000000000000000000000000000000000000000000000000000000000000000000000000000000000003001201700000000            000000000000000                              000                           
0010001300349T 280180230000001544772 29577050096043544   788888888888889930122016000000000007500001000000888888888888899          0900000000000000000000000000000000000000000000000000000   000000000000000000000005002        170192957705     
0010001300350U 280000000000000000000000000000000000000000000000000000000000000000000000000000000000000000000000000000000000000000000000003001201700000000            000000000000000                              000                           
0010001300351T 280180230000001544772 29577050096148014   788888888888889930122016000000000007500001000000888888888888899          0900000000000000000000000000000000000000000000000000000   000000000000000000000005002        170192957705     
0010001300352U 280000000000000000000000000000000000000000000000000000000000000000000000000000000000000000000000000000000000000000000000003001201700000000            000000000000000                              000                           
0010001300353T 280180230000001544772 29577050096237972   788888888888889930122016000000000010000001000000888888888888899          0900000000000000000000000000000000000000000000000000000   000000000000000000000005002        170192957705     
0010001300354U 280000000000000000000000000000000000000000000000000000000000000000000000000000000000000000000000000000000000000000000000003001201700000000            000000000000000                              000                           
0010001300355T 280180230000001544772 29577050096350321   788888888888889930122016000000000007500001000000888888888888899          0900000000000000000000000000000000000000000000000000000   000000000000000000000005002        170192957705     
0010001300356U 280000000000000000000000000000000000000000000000000000000000000000000000000000000000000000000000000000000000000000000000003001201700000000            000000000000000                              000                           
0010001300357T 280180230000001544772 29577050096443349   788888888888889930122016000000000007500001000000888888888888899          0900000000000000000000000000000000000000000000000000000   000000000000000000000005002        170192957705     
0010001300358U 280000000000000000000000000000000000000000000000000000000000000000000000000000000000000000000000000000000000000000000000003001201700000000            000000000000000                              000                           
0010001300359T 280180230000001544772 29577050096633788   788888888888889930122016000000000007500001000000888888888888899          0900000000000000000000000000000000000000000000000000000   000000000000000000000005002        170192957705     
0010001300360U 280000000000000000000000000000000000000000000000000000000000000000000000000000000000000000000000000000000000000000000000003001201700000000            000000000000000                              000                           
0010001300361T 280180230000001544772 29577050096702597   788888888888889930122016000000000007500001000000888888888888899          0900000000000000000000000000000000000000000000000000000   000000000000000000000005002        170192957705     
0010001300362U 280000000000000000000000000000000000000000000000000000000000000000000000000000000000000000000000000000000000000000000000003001201700000000            000000000000000                              000                           
0010001300363T 280180230000001544772 29577050096805795   788888888888889930122016000000000007500001000000888888888888899          0900000000000000000000000000000000000000000000000000000   000000000000000000000005002        170192957705     
0010001300364U 280000000000000000000000000000000000000000000000000000000000000000000000000000000000000000000000000000000000000000000000003001201700000000            000000000000000                              000                           
0010001300365T 280180230000001544772 29577050096929800   788888888888889930122016000000000007500001000000888888888888899          0900000000000000000000000000000000000000000000000000000   000000000000000000000005002        170192957705     
0010001300366U 280000000000000000000000000000000000000000000000000000000000000000000000000000000000000000000000000000000000000000000000003001201700000000            000000000000000                              000                           
0010001300367T 280180230000001544772 29577050097124728   788888888888889930122016000000000007500001000000888888888888899          0900000000000000000000000000000000000000000000000000000   000000000000000000000005002        170192957705     
0010001300368U 280000000000000000000000000000000000000000000000000000000000000000000000000000000000000000000000000000000000000000000000003001201700000000            000000000000000                              000                           
0010001300369T 280180230000001544772 29577050097131352   788888888888889930122016000000000007500001000000888888888888899          0900000000000000000000000000000000000000000000000000000   000000000000000000000005002        170192957705     
0010001300370U 280000000000000000000000000000000000000000000000000000000000000000000000000000000000000000000000000000000000000000000000003001201700000000            000000000000000                              000                           
0010001300371T 280180230000001544772 29577050097355443   788888888888889930122016000000000007500001000000888888888888899          0900000000000000000000000000000000000000000000000000000   000000000000000000000005002        170192957705     
0010001300372U 280000000000000000000000000000000000000000000000000000000000000000000000000000000000000000000000000000000000000000000000003001201700000000            000000000000000                              000                           
0010001300373T 280180230000001544772 29577050097452373   788888888888889930122016000000000007500001000000888888888888899          0900000000000000000000000000000000000000000000000000000   000000000000000000000005002        170192957705     
0010001300374U 280000000000000000000000000000000000000000000000000000000000000000000000000000000000000000000000000000000000000000000000003001201700000000            000000000000000                              000                           
0010001300375T 280180230000001544772 29577050097555903   788888888888889930122016000000000007500001000000888888888888899          0900000000000000000000000000000000000000000000000000000   000000000000000000000005002        170192957705     
0010001300376U 280000000000000000000000000000000000000000000000000000000000000000000000000000000000000000000000000000000000000000000000003001201700000000            000000000000000                              000                           
0010001300377T 280180230000001544772 29577050097657904   788888888888889930122016000000000007500001000000888888888888899          0900000000000000000000000000000000000000000000000000000   000000000000000000000005002        170192957705     
0010001300378U 280000000000000000000000000000000000000000000000000000000000000000000000000000000000000000000000000000000000000000000000003001201700000000            000000000000000                              000                           
0010001300379T 280180230000001544772 29577050097928369   788888888888889930122016000000000007500001000000888888888888899          0900000000000000000000000000000000000000000000000000000   000000000000000000000005002        170192957705     
0010001300380U 280000000000000000000000000000000000000000000000000000000000000000000000000000000000000000000000000000000000000000000000003001201700000000            000000000000000                              000                           
0010001300381T 280180230000001544772 29577050098144575   788888888888889930122016000000000007500001000000888888888888899          0900000000000000000000000000000000000000000000000000000   000000000000000000000005002        170192957705     
0010001300382U 280000000000000000000000000000000000000000000000000000000000000000000000000000000000000000000000000000000000000000000000003001201700000000            000000000000000                              000                           
0010001300383T 280180230000001544772 29577050098230542   788888888888889930122016000000000007500001000000888888888888899          0900000000000000000000000000000000000000000000000000000   000000000000000000000005002        170192957705     
0010001300384U 280000000000000000000000000000000000000000000000000000000000000000000000000000000000000000000000000000000000000000000000003001201700000000            000000000000000                              000                           
0010001300385T 280180230000001544772 29577050098342636   788888888888889930122016000000000007500001000000888888888888899          0900000000000000000000000000000000000000000000000000000   000000000000000000000005002        170192957705     
0010001300386U 280000000000000000000000000000000000000000000000000000000000000000000000000000000000000000000000000000000000000000000000003001201700000000            000000000000000                              000                           
0010001300387T 280180230000001544772 29577050098518489   788888888888889930122016000000000007500001000000888888888888899          0900000000000000000000000000000000000000000000000000000   000000000000000000000005002        170192957705     
0010001300388U 280000000000000000000000000000000000000000000000000000000000000000000000000000000000000000000000000000000000000000000000003001201700000000            000000000000000                              000                           
0010001300389T 280180230000001544772 29577050098602415   788888888888889930122016000000000007500001000000888888888888899          0900000000000000000000000000000000000000000000000000000   000000000000000000000005002        170192957705     
0010001300390U 280000000000000000000000000000000000000000000000000000000000000000000000000000000000000000000000000000000000000000000000003001201700000000            000000000000000                              000                           
0010001300391T 280180230000001544772 29577050098703653   788888888888889930122016000000000007500001000000888888888888899          0900000000000000000000000000000000000000000000000000000   000000000000000000000005002        170192957705     
0010001300392U 280000000000000000000000000000000000000000000000000000000000000000000000000000000000000000000000000000000000000000000000003001201700000000            000000000000000                              000                           
0010001300393T 280180230000001544772 29577050098821383   788888888888889930122016000000000007500001000000888888888888899          0900000000000000000000000000000000000000000000000000000   000000000000000000000005002        170192957705     
0010001300394U 280000000000000000000000000000000000000000000000000000000000000000000000000000000000000000000000000000000000000000000000003001201700000000            000000000000000                              000                           
0010001300395T 280180230000001544772 29577050098839476   788888888888889930122016000000000007500001000000888888888888899          0900000000000000000000000000000000000000000000000000000   000000000000000000000005002        170192957705     
0010001300396U 280000000000000000000000000000000000000000000000000000000000000000000000000000000000000000000000000000000000000000000000003001201700000000            000000000000000                              000                           
0010001300397T 280180230000001544772 29577050099037819   788888888888889930122016000000000007500001000000888888888888899          0900000000000000000000000000000000000000000000000000000   000000000000000000000005002        170192957705     
0010001300398U 280000000000000000000000000000000000000000000000000000000000000000000000000000000000000000000000000000000000000000000000003001201700000000            000000000000000                              000                           
0010001300399T 280180230000001544772 29577050103804333   788888888888889931122016000000000007500001000000888888888888899          0900000000000000000000000000000000000000000000000000000   000000000000000000000005002        170192957705     
0010001300400U 280000000000000000000000000000000000000000000000000000000000000000000000000000000000000000000000000000000000000000000000003001201700000000            000000000000000                              000                           
0010001300401T 280180230000001544772 29577050103840919   788888888888889931122016000000000007500001000000888888888888899          0900000000000000000000000000000000000000000000000000000   000000000000000000000005002        170192957705     
0010001300402U 280000000000000000000000000000000000000000000000000000000000000000000000000000000000000000000000000000000000000000000000003001201700000000            000000000000000                              000                           
0010001300403T 280180230000001544772 29577050103954657   788888888888889931122016000000000007500001000000888888888888899          0900000000000000000000000000000000000000000000000000000   000000000000000000000005002        170192957705     
0010001300404U 280000000000000000000000000000000000000000000000000000000000000000000000000000000000000000000000000000000000000000000000003001201700000000            000000000000000                              000                           
0010001300405T 280180230000001544772 29577050104146510   788888888888889931122016000000000007500001000000888888888888899          0900000000000000000000000000000000000000000000000000000   000000000000000000000005002        170192957705     
0010001300406U 280000000000000000000000000000000000000000000000000000000000000000000000000000000000000000000000000000000000000000000000003001201700000000            000000000000000                              000                           
0010001300407T 280180230000001544772 29577050104227908   788888888888889931122016000000000007500001000000888888888888899          0900000000000000000000000000000000000000000000000000000   000000000000000000000005002        170192957705     
0010001300408U 280000000000000000000000000000000000000000000000000000000000000000000000000000000000000000000000000000000000000000000000003001201700000000            000000000000000                              000                           
0010001300409T 280180230000001544772 29577050104343620   788888888888889931122016000000000007500001000000888888888888899          0900000000000000000000000000000000000000000000000000000   000000000000000000000005002        170192957705     
0010001300410U 280000000000000000000000000000000000000000000000000000000000000000000000000000000000000000000000000000000000000000000000003001201700000000            000000000000000                              000                           
0010001300411T 280180230000001544772 29577050104758072   788888888888889931122016000000000007500001000000888888888888899          0900000000000000000000000000000000000000000000000000000   000000000000000000000005002        170192957705     
0010001300412U 280000000000000000000000000000000000000000000000000000000000000000000000000000000000000000000000000000000000000000000000003001201700000000            000000000000000                              000                           
