00100000         2247745860001000029577050014       0180230000001544772 INSTITUTO DE SELECAO E TECNOLOBANCO DO BRASIL                         21502201701133700009603000000515122941PROCESSAMEN                                                 
00100011T0100020 20247745860001000029577050014       0180230000001544772 INSTITUTO DE SELECAO E TECNOLO                                                                                000000001502201700000000  000000000                      
0010001300001T 020180230000001544772 29577050000612621   788888888888889917022017000000000007500001000213888888888888899          0900000000000010000000000000000000000000000000000000000   0000000000000000000000000A9        170192957705     
0010001300002U 020000000000000000000000000000000000000000000000000000000000000000000000000000000000000000000000000000000000000000000000001502201700000000            000000000000000                              000                           
0010001300003T 020180230000001544772 29577050024054889   7               17022017000000000007500001000051                         0900000000000010000000000000000000000000000000000000000   0000000000000000000000000A9        170192957705     
0010001300004U 020000000000000000000000000000000000000000000000000000000000000000000000000000000000000000000000000000000000000000000000001502201700000000            000000000000000                              000                           
0010001300005T 020180230000001544772 29577050069352196   7               17022017000000000007500001012416                         0900000000000010000000000000000000000000000000000000000   0000000000000000000000000A9        170192957705     
0010001300006U 020000000000000000000000000000000000000000000000000000000000000000000000000000000000000000000000000000000000000000000000001502201700000000            000000000000000                              000                           
0010001300007T 020180230000001544772 29577050085858218   7               1702201700000000000750000103049X                         0900000000000010000000000000000000000000000000000000000   0000000000000000000000000A9        170192957705     
0010001300008U 020000000000000000000000000000000000000000000000000000000000000000000000000000000000000000000000000000000000000000000000001502201700000000            000000000000000                              000                           
0010001300009T 020180230000001544772 29577050086934712   7               17022017000000000007500001000213                         0900000000000010000000000000000000000000000000000000000   0000000000000000000000000A9        170192957705     
0010001300010U 020000000000000000000000000000000000000000000000000000000000000000000000000000000000000000000000000000000000000000000000001502201700000000            000000000000000                              000                           
0010001300011T 020180230000001544772 29577050093204266   7               17022017000000000007500001000213                         0900000000000010000000000000000000000000000000000000000   0000000000000000000000000A9        170192957705     
0010001300012U 020000000000000000000000000000000000000000000000000000000000000000000000000000000000000000000000000000000000000000000000001502201700000000            000000000000000                              000                           
0010001300013T 020180230000001544772 29577050093218081   7               17022017000000000007500001000213                         0900000000000010000000000000000000000000000000000000000   0000000000000000000000000A9        170192957705     
0010001300014U 020000000000000000000000000000000000000000000000000000000000000000000000000000000000000000000000000000000000000000000000001502201700000000            000000000000000                              000                           
0010001300015T 020180230000001544772 29577050093228705   7               17022017000000000007500001000213                         0900000000000010000000000000000000000000000000000000000   0000000000000000000000000A9        170192957705     
0010001300016U 020000000000000000000000000000000000000000000000000000000000000000000000000000000000000000000000000000000000000000000000001502201700000000            000000000000000                              000                           
0010001300017T 020180230000001544772 29577050120832917   7               17022017000000000007500001012408                         0900000000000010000000000000000000000000000000000000000   0000000000000000000000000A9        170192957705     
0010001300018U 020000000000000000000000000000000000000000000000000000000000000000000000000000000000000000000000000000000000000000000000001502201700000000            000000000000000                              000                           
0010001300019T 020180230000001544772 29577050121332530   7               17022017000000000007500001012416                         0900000000000010000000000000000000000000000000000000000   0000000000000000000000000A9        170192957705     
0010001300020U 020000000000000000000000000000000000000000000000000000000000000000000000000000000000000000000000000000000000000000000000001502201700000000            000000000000000                              000                           
0010001300021T 020180230000001544772 29577050121358380   7               17022017000000000007500001012416                         0900000000000010000000000000000000000000000000000000000   0000000000000000000000000A9        170192957705     
0010001300022U 020000000000000000000000000000000000000000000000000000000000000000000000000000000000000000000000000000000000000000000000001502201700000000            000000000000000                              000                           
0010001300023T 020180230000001544772 29577050124426210   7               17022017000000000007500001002097                         0900000000000010000000000000000000000000000000000000000   0000000000000000000000000A9        170192957705     
0010001300024U 020000000000000000000000000000000000000000000000000000000000000000000000000000000000000000000000000000000000000000000000001502201700000000            000000000000000                              000                           
0010001300025T 020180230000001544772 29577050124452600   7               17022017000000000007500001002097                         0900000000000010000000000000000000000000000000000000000   0000000000000000000000000A9        170192957705     
0010001300026U 020000000000000000000000000000000000000000000000000000000000000000000000000000000000000000000000000000000000000000000000001502201700000000            000000000000000                              000                           
0010001300027T 020180230000001544772 29577050125002864   7               17022017000000000007500001012408                         0900000000000010000000000000000000000000000000000000000   0000000000000000000000000A9        170192957705     
0010001300028U 020000000000000000000000000000000000000000000000000000000000000000000000000000000000000000000000000000000000000000000000001502201700000000            000000000000000                              000                           
0010001300029T 020180230000001544772 29577050139213195   7               17022017000000000007500001012416                         0900000000000010000000000000000000000000000000000000000   0000000000000000000000000A9        170192957705     
0010001300030U 020000000000000000000000000000000000000000000000000000000000000000000000000000000000000000000000000000000000000000000000001502201700000000            000000000000000                              000                           
0010001300031T 020180230000001544772 29577050139945830   7               17022017000000000007500001009245                         0900000000000010000000000000000000000000000000000000000   0000000000000000000000000A9        170192957705     
0010001300032U 020000000000000000000000000000000000000000000000000000000000000000000000000000000000000000000000000000000000000000000000001502201700000000            000000000000000                              000                           
0010001300033T 020180230000001544772 29577050160401827   7               1702201700000000000750000103049X                         0900000000000010000000000000000000000000000000000000000   0000000000000000000000000A9        170192957705     
0010001300034U 020000000000000000000000000000000000000000000000000000000000000000000000000000000000000000000000000000000000000000000000001502201700000000            000000000000000                              000                           
0010001300035T 020180230000001544772 29577050174516155   7               17022017000000000007500001000213                         0900000000000010000000000000000000000000000000000000000   0000000000000000000000000A9        170192957705     
0010001300036U 020000000000000000000000000000000000000000000000000000000000000000000000000000000000000000000000000000000000000000000000001502201700000000            000000000000000                              000                           
0010001300037T 020180230000001544772 29577050183320986   7               17022017000000000007500001012416                         0900000000000010000000000000000000000000000000000000000   0000000000000000000000000A9        170192957705     
0010001300038U 020000000000000000000000000000000000000000000000000000000000000000000000000000000000000000000000000000000000000000000000001502201700000000            000000000000000                              000                           
0010001300039T 020180230000001544772 29577050208345518   7               17022017000000000007500001000213                         0900000000000010000000000000000000000000000000000000000   0000000000000000000000000A9        170192957705     
0010001300040U 020000000000000000000000000000000000000000000000000000000000000000000000000000000000000000000000000000000000000000000000001502201700000000            000000000000000                              000                           
0010001300041T 020180230000001544772 29577050227611435   7               17022017000000000007500001012408                         0900000000000010000000000000000000000000000000000000000   0000000000000000000000000A9        170192957705     
0010001300042U 020000000000000000000000000000000000000000000000000000000000000000000000000000000000000000000000000000000000000000000000001502201700000000            000000000000000                              000                           
0010001300043T 020180230000001544772 29577050250508351   7               17022017000000000007500001000213                         0900000000000010500000000000000000000000000000000000000   0000000000000000000000000A9A4      170192957705     
0010001300044U 020000000000000000000000000000000000000000000000000000000000000000000000000000000000000000000000000000000000000000000000001502201700000000            000000000000000                              000                           
0010001300045T 020180230000001544772 29577050250516154   7               17022017000000000007500001000213                         0900000000000010500000000000000000000000000000000000000   0000000000000000000000000A9A4      170192957705     
0010001300046U 020000000000000000000000000000000000000000000000000000000000000000000000000000000000000000000000000000000000000000000000001502201700000000            000000000000000                              000                           
0010001300047T 020180230000001544772 29577050250529891   7               17022017000000000007500001000213                         0900000000000010500000000000000000000000000000000000000   0000000000000000000000000A9A4      170192957705     
0010001300048U 020000000000000000000000000000000000000000000000000000000000000000000000000000000000000000000000000000000000000000000000001502201700000000            000000000000000                              000                           
0010001300049T 020180230000001544772 29577050250555487   7               17022017000000000007500001000213                         0900000000000010500000000000000000000000000000000000000   0000000000000000000000000A9A4      170192957705     
0010001300050U 020000000000000000000000000000000000000000000000000000000000000000000000000000000000000000000000000000000000000000000000001502201700000000            000000000000000                              000                           
0010001300051T 020180230000001544772 29577050257257118   7               17022017000000000007500001001120                         0900000000000010000000000000000000000000000000000000000   0000000000000000000000000A9        170192957705     
0010001300052U 020000000000000000000000000000000000000000000000000000000000000000000000000000000000000000000000000000000000000000000000001502201700000000            000000000000000                              000                           
0010001300053T 020180230000001544772 29577050274357825   7               1702201700000000000750000103049X                         0900000000000010500000000000000000000000000000000000000   0000000000000000000000000A9A4      170192957705     
0010001300054U 020000000000000000000000000000000000000000000000000000000000000000000000000000000000000000000000000000000000000000000000001502201700000000            000000000000000                              000                           
0010001300055T 020180230000001544772 29577050274415566   7               1702201700000000000750000103049X                         0900000000000010500000000000000000000000000000000000000   0000000000000000000000000A9A4      170192957705     
0010001300056U 020000000000000000000000000000000000000000000000000000000000000000000000000000000000000000000000000000000000000000000000001502201700000000            000000000000000                              000                           
0010001300057T 020180230000001544772 29577050281145016   7               1702201700000000000750000101981X                         0900000000000010000000000000000000000000000000000000000   0000000000000000000000000A9        170192957705     
0010001300058U 020000000000000000000000000000000000000000000000000000000000000000000000000000000000000000000000000000000000000000000000001502201700000000            000000000000000                              000                           
0010001300059T 020180230000001544772 29577050302433002   7               17022017000000000007500001046280                         0900000000000010000000000000000000000000000000000000000   0000000000000000000000000A9        170192957705     
0010001300060U 020000000000000000000000000000000000000000000000000000000000000000000000000000000000000000000000000000000000000000000000001502201700000000            000000000000000                              000                           
0010001300061T 020180230000001544772 29577050312913225   7               16022017000000000007500001012408                         0900000000000010000000000000000000000000000000000000000   0000000000000000000000000A9        170192957705     
0010001300062U 020000000000000000000000000000000000000000000000000000000000000000000000000000000000000000000000000000000000000000000000001402201700000000            000000000000000                              000                           
0010001300063T 020180230000001544772 29577050319555430   7               17022017000000000007500001012408                         0900000000000010000000000000000000000000000000000000000   0000000000000000000000000A9        170192957705     
0010001300064U 020000000000000000000000000000000000000000000000000000000000000000000000000000000000000000000000000000000000000000000000001502201700000000            000000000000000                              000                           
0010001300065T 020180230000001544772 29577050320055884   7               17022017000000000007500001021121                         0900000000000010000000000000000000000000000000000000000   0000000000000000000000000A9        170192957705     
0010001300066U 020000000000000000000000000000000000000000000000000000000000000000000000000000000000000000000000000000000000000000000000001502201700000000            000000000000000                              000                           
0010001300067T 020180230000001544772 29577050320056143   7               17022017000000000007500001021121                         0900000000000010000000000000000000000000000000000000000   0000000000000000000000000A9        170192957705     
0010001300068U 020000000000000000000000000000000000000000000000000000000000000000000000000000000000000000000000000000000000000000000000001502201700000000            000000000000000                              000                           
0010001300069T 020180230000001544772 29577050328856030   7               17022017000000000007500001000213                         0900000000000010000000000000000000000000000000000000000   0000000000000000000000000A9        170192957705     
0010001300070U 020000000000000000000000000000000000000000000000000000000000000000000000000000000000000000000000000000000000000000000000001502201700000000            000000000000000                              000                           
0010001300071T 020180230000001544772 29577050342503785   7               17022017000000000007500001012416                         0900000000000010000000000000000000000000000000000000000   0000000000000000000000000A9        170192957705     
0010001300072U 020000000000000000000000000000000000000000000000000000000000000000000000000000000000000000000000000000000000000000000000001502201700000000            000000000000000                              000                           
0010001300073T 020180230000001544772 29577050357731634   7               17022017000000000007500001000213                         0900000000000010000000000000000000000000000000000000000   0000000000000000000000000A9        170192957705     
0010001300074U 020000000000000000000000000000000000000000000000000000000000000000000000000000000000000000000000000000000000000000000000001502201700000000            000000000000000                              000                           
0010001300075T 020180230000001544772 29577050389331489   7               1702201700000000000750000103049X                         0900000000000010000000000000000000000000000000000000000   0000000000000000000000000A9        170192957705     
0010001300076U 020000000000000000000000000000000000000000000000000000000000000000000000000000000000000000000000000000000000000000000000001502201700000000            000000000000000                              000                           
0010001300077T 020180230000001544772 29577050397749280   7               17022017000000000007500001000213                         0900000000000010000000000000000000000000000000000000000   0000000000000000000000000A9        170192957705     
0010001300078U 020000000000000000000000000000000000000000000000000000000000000000000000000000000000000000000000000000000000000000000000001502201700000000            000000000000000                              000                           
0010001300079T 020180230000001544772 29577050402437531   7               17022017000000000007500001000213                         0900000000000010500000000000000000000000000000000000000   0000000000000000000000000A9A4      170192957705     
0010001300080U 020000000000000000000000000000000000000000000000000000000000000000000000000000000000000000000000000000000000000000000000001502201700000000            000000000000000                              000                           
0010001300081T 020180230000001544772 29577050409943028   7               1702201700000000000750000103049X                         0900000000000010000000000000000000000000000000000000000   0000000000000000000000000A9        170192957705     
0010001300082U 020000000000000000000000000000000000000000000000000000000000000000000000000000000000000000000000000000000000000000000000001502201700000000            000000000000000                              000                           
0010001300083T 020180230000001544772 29577050417108193   7               17022017000000000007500001000833                         0900000000000010000000000000000000000000000000000000000   0000000000000000000000000A9        170192957705     
0010001300084U 020000000000000000000000000000000000000000000000000000000000000000000000000000000000000000000000000000000000000000000000001502201700000000            000000000000000                              000                           
0010001300085T 020180230000001544772 29577050420441127   7               17022017000000000007500001000213                         0900000000000010000000000000000000000000000000000000000   0000000000000000000000000A9        170192957705     
0010001300086U 020000000000000000000000000000000000000000000000000000000000000000000000000000000000000000000000000000000000000000000000001502201700000000            000000000000000                              000                           
0010001300087T 020180230000001544772 29577050424450407   7               17022017000000000010000001012408                         0900000000000010000000000000000000000000000000000000000   0000000000000000000000000A9        170192957705     
0010001300088U 020000000000000000000000000000000000000000000000000000000000000000000000000000000000000000000000000000000000000000000000001502201700000000            000000000000000                              000                           
0010001300089T 020180230000001544772 29577050425505117   7               17022017000000000007500001000833                         0900000000000010000000000000000000000000000000000000000   0000000000000000000000000A9        170192957705     
0010001300090U 020000000000000000000000000000000000000000000000000000000000000000000000000000000000000000000000000000000000000000000000001502201700000000            000000000000000                              000                           
0010001300091T 020180230000001544772 29577050433732926   7               17022017000000000007500001012416                         0900000000000010000000000000000000000000000000000000000   0000000000000000000000000A9        170192957705     
0010001300092U 020000000000000000000000000000000000000000000000000000000000000000000000000000000000000000000000000000000000000000000000001502201700000000            000000000000000                              000                           
0010001300093T 020180230000001544772 29577050443136763   7               17022017000000000007500001012408                         0900000000000010000000000000000000000000000000000000000   0000000000000000000000000A9        170192957705     
0010001300094U 020000000000000000000000000000000000000000000000000000000000000000000000000000000000000000000000000000000000000000000000001502201700000000            000000000000000                              000                           
0010001300095T 020180230000001544772 29577050454706551   7               1702201700000000000750000103049X                         0900000000000010000000000000000000000000000000000000000   0000000000000000000000000A9        170192957705     
0010001300096U 020000000000000000000000000000000000000000000000000000000000000000000000000000000000000000000000000000000000000000000000001502201700000000            000000000000000                              000                           
0010001300097T 020180230000001544772 29577050472303730   7               17022017000000000007500001012408                         0900000000000010000000000000000000000000000000000000000   0000000000000000000000000A9        170192957705     
0010001300098U 020000000000000000000000000000000000000000000000000000000000000000000000000000000000000000000000000000000000000000000000001502201700000000            000000000000000                              000                           
0010001300099T 020180230000001544772 29577050472349312   7               17022017000000000007500001012408                         0900000000000010000000000000000000000000000000000000000   0000000000000000000000000A9        170192957705     
0010001300100U 020000000000000000000000000000000000000000000000000000000000000000000000000000000000000000000000000000000000000000000000001502201700000000            000000000000000                              000                           
0010001300101T 020180230000001544772 29577050473939483   7               17022017000000000007500001003018                         0900000000000010500000000000000000000000000000000000000   0000000000000000000000000A9A4      170192957705     
0010001300102U 020000000000000000000000000000000000000000000000000000000000000000000000000000000000000000000000000000000000000000000000001502201700000000            000000000000000                              000                           
0010001300103T 020180230000001544772 29577050475057355   7               1702201700000000000750000103049X                         0900000000000010000000000000000000000000000000000000000   0000000000000000000000000A9        170192957705     
0010001300104U 020000000000000000000000000000000000000000000000000000000000000000000000000000000000000000000000000000000000000000000000001502201700000000            000000000000000                              000                           
0010001300105T 020180230000001544772 29577050476506839   7               17022017000000000007500001012416                         0900000000000010000000000000000000000000000000000000000   0000000000000000000000000A9        170192957705     
0010001300106U 020000000000000000000000000000000000000000000000000000000000000000000000000000000000000000000000000000000000000000000000001502201700000000            000000000000000                              000                           
0010001300107T 020180230000001544772 29577050479638565   7               1702201700000000000750000103049X                         0900000000000010000000000000000000000000000000000000000   0000000000000000000000000A9        170192957705     
0010001300108U 020000000000000000000000000000000000000000000000000000000000000000000000000000000000000000000000000000000000000000000000001502201700000000            000000000000000                              000                           
0010001300109T 020180230000001544772 29577050494820790   7               17022017000000000007500001000213                         0900000000000010500000000000000000000000000000000000000   0000000000000000000000000A9A4      170192957705     
0010001300110U 020000000000000000000000000000000000000000000000000000000000000000000000000000000000000000000000000000000000000000000000001502201700000000            000000000000000                              000                           
0010001300111T 020180230000001544772 29577050494859868   7               17022017000000000007500001000213                         0900000000000010500000000000000000000000000000000000000   0000000000000000000000000A9A4      170192957705     
0010001300112U 020000000000000000000000000000000000000000000000000000000000000000000000000000000000000000000000000000000000000000000000001502201700000000            000000000000000                              000                           
0010001300113T 020180230000001544772 29577050495947567   7               17022017000000000007500001000213                         0900000000000010000000000000000000000000000000000000000   0000000000000000000000000A9        170192957705     
0010001300114U 020000000000000000000000000000000000000000000000000000000000000000000000000000000000000000000000000000000000000000000000001502201700000000            000000000000000                              000                           
0010001300115T 020180230000001544772 29577050501514028   7               17022017000000000007500001012416                         0900000000000010000000000000000000000000000000000000000   0000000000000000000000000A9        170192957705     
0010001300116U 020000000000000000000000000000000000000000000000000000000000000000000000000000000000000000000000000000000000000000000000001502201700000000            000000000000000                              000                           
0010001300117T 020180230000001544772 29577050503421287   7               17022017000000000007500001000213                         0900000000000010000000000000000000000000000000000000000   0000000000000000000000000A9        170192957705     
0010001300118U 020000000000000000000000000000000000000000000000000000000000000000000000000000000000000000000000000000000000000000000000001502201700000000            000000000000000                              000                           
0010001300119T 020180230000001544772 29577050505149083   7               17022017000000000007500001012408                         0900000000000010000000000000000000000000000000000000000   0000000000000000000000000A9        170192957705     
0010001300120U 020000000000000000000000000000000000000000000000000000000000000000000000000000000000000000000000000000000000000000000000001502201700000000            000000000000000                              000                           
0010001300121T 020180230000001544772 29577050509629255   7               17022017000000000010000001000213                         0900000000000010000000000000000000000000000000000000000   0000000000000000000000000A9        170192957705     
0010001300122U 020000000000000000000000000000000000000000000000000000000000000000000000000000000000000000000000000000000000000000000000001502201700000000            000000000000000                              000                           
0010001300123T 020180230000001544772 29577050510649796   7               17022017000000000007500001012408                         0900000000000010000000000000000000000000000000000000000   0000000000000000000000000A9        170192957705     
0010001300124U 020000000000000000000000000000000000000000000000000000000000000000000000000000000000000000000000000000000000000000000000001502201700000000            000000000000000                              000                           
0010001300125T 020180230000001544772 29577050527433806   7               1702201700000000000750000103049X                         0900000000000010000000000000000000000000000000000000000   0000000000000000000000000A9        170192957705     
0010001300126U 020000000000000000000000000000000000000000000000000000000000000000000000000000000000000000000000000000000000000000000000001502201700000000            000000000000000                              000                           
0010001300127T 020180230000001544772 29577050527814593   7               1702201700000000000750000103049X                         0900000000000010000000000000000000000000000000000000000   0000000000000000000000000A9        170192957705     
0010001300128U 020000000000000000000000000000000000000000000000000000000000000000000000000000000000000000000000000000000000000000000000001502201700000000            000000000000000                              000                           
0010001300129T 020180230000001544772 29577050532349600   7               17022017000000000007500001012408                         0900000000000010000000000000000000000000000000000000000   0000000000000000000000000A9        170192957705     
0010001300130U 020000000000000000000000000000000000000000000000000000000000000000000000000000000000000000000000000000000000000000000000001502201700000000            000000000000000                              000                           
0010001300131T 020180230000001544772 29577050535428140   7               17022017000000000007500001000213                         0900000000000010000000000000000000000000000000000000000   0000000000000000000000000A9        170192957705     
0010001300132U 020000000000000000000000000000000000000000000000000000000000000000000000000000000000000000000000000000000000000000000000001502201700000000            000000000000000                              000                           
0010001300133T 020180230000001544772 29577050541208619   788888888888889917022017000000000007500001009245888888888888899          0900000000000010000000000000000000000000000000000000000   0000000000000000000000000A9        170192957705     
0010001300134U 020000000000000000000000000000000000000000000000000000000000000000000000000000000000000000000000000000000000000000000000001502201700000000            000000000000000                              000                           
0010001300135T 020180230000001544772 29577050541634700   788888888888889917022017000000000007500001012416888888888888899          0900000000000010000000000000000000000000000000000000000   0000000000000000000000000A9        170192957705     
0010001300136U 020000000000000000000000000000000000000000000000000000000000000000000000000000000000000000000000000000000000000000000000001502201700000000            000000000000000                              000                           
0010001300137T 020180230000001544772 29577050542537644   78888888888888991702201700000000000750000103049X888888888888899          0900000000000010000000000000000000000000000000000000000   0000000000000000000000000A9        170192957705     
0010001300138U 020000000000000000000000000000000000000000000000000000000000000000000000000000000000000000000000000000000000000000000000001502201700000000            000000000000000                              000                           
0010001300139T 020180230000001544772 29577050542720468   788888888888889917022017000000000010000001032859888888888888899          0900000000000010000000000000000000000000000000000000000   0000000000000000000000000A9        170192957705     
0010001300140U 020000000000000000000000000000000000000000000000000000000000000000000000000000000000000000000000000000000000000000000000001502201700000000            000000000000000                              000                           
0010001300141T 020180230000001544772 29577050542804100   788888888888889917022017000000000007500001000213888888888888899          0900000000000010000000000000000000000000000000000000000   0000000000000000000000000A9        170192957705     
0010001300142U 020000000000000000000000000000000000000000000000000000000000000000000000000000000000000000000000000000000000000000000000001502201700000000            000000000000000                              000                           
0010001300143T 020180230000001544772 29577050542807294   788888888888889917022017000000000007500001000213888888888888899          0900000000000010000000000000000000000000000000000000000   0000000000000000000000000A9        170192957705     
0010001300144U 020000000000000000000000000000000000000000000000000000000000000000000000000000000000000000000000000000000000000000000000001502201700000000            000000000000000                              000                           
0010001300145T 020180230000001544772 29577050542819262   788888888888889917022017000000000007500001000213888888888888899          0900000000000010000000000000000000000000000000000000000   0000000000000000000000000A9        170192957705     
0010001300146U 020000000000000000000000000000000000000000000000000000000000000000000000000000000000000000000000000000000000000000000000001502201700000000            000000000000000                              000                           
0010001300147T 020180230000001544772 29577050542923981   788888888888889917022017000000000007500001012408888888888888899          0900000000000010000000000000000000000000000000000000000   0000000000000000000000000A9        170192957705     
0010001300148U 020000000000000000000000000000000000000000000000000000000000000000000000000000000000000000000000000000000000000000000000001502201700000000            000000000000000                              000                           
0010001300149T 020180230000001544772 29577050617301015   7               16022017000000000010000001000213                         0900000000000010000000000000000000000000000000000000000   0000000000000000000000000A9        170192957705     
0010001300150U 020000000000000000000000000000000000000000000000000000000000000000000000000000000000000000000000000000000000000000000000001402201700000000            000000000000000                              000                           
0010001300151T 020180230000001544772 29577050617302007   7               16022017000000000010000001000213                         0900000000000010000000000000000000000000000000000000000   0000000000000000000000000A9        170192957705     
0010001300152U 020000000000000000000000000000000000000000000000000000000000000000000000000000000000000000000000000000000000000000000000001402201700000000            000000000000000                              000                           
0010001300153T 020180230000001544772 29577050617823741   7               16022017000000000007500001000213                         0900000000000010000000000000000000000000000000000000000   0000000000000000000000000A9        170192957705     
0010001300154U 020000000000000000000000000000000000000000000000000000000000000000000000000000000000000000000000000000000000000000000000001402201700000000            000000000000000                              000                           
0010001300155T 020180230000001544772 29577050619013197   7               16022017000000000007500001032077                         0900000000000010000000000000000000000000000000000000000   0000000000000000000000000A9        170192957705     
0010001300156U 020000000000000000000000000000000000000000000000000000000000000000000000000000000000000000000000000000000000000000000000001402201700000000            000000000000000                              000                           
0010001300157T 020180230000001544772 29577050619037002   7               16022017000000000007500001032077                         0900000000000010000000000000000000000000000000000000000   0000000000000000000000000A9        170192957705     
0010001300158U 020000000000000000000000000000000000000000000000000000000000000000000000000000000000000000000000000000000000000000000000001402201700000000            000000000000000                              000                           
0010001300159T 020180230000001544772 29577050621036664   7               16022017000000000007500001012416                         0900000000000010000000000000000000000000000000000000000   0000000000000000000000000A9        170192957705     
0010001300160U 020000000000000000000000000000000000000000000000000000000000000000000000000000000000000000000000000000000000000000000000001402201700000000            000000000000000                              000                           
0010001300161T 020180230000001544772 29577050631249890   788888888888889917022017000000000007500001012416888888888888899          0900000000000010000000000000000000000000000000000000000   0000000000000000000000000A9        170192957705     
0010001300162U 020000000000000000000000000000000000000000000000000000000000000000000000000000000000000000000000000000000000000000000000001502201700000000            000000000000000                              000                           
0010001300163T 020180230000001544772 29577050632903709   7               1702201700000000000750000101981X                         0900000000000010000000000000000000000000000000000000000   0000000000000000000000000A9        170192957705     
0010001300164U 020000000000000000000000000000000000000000000000000000000000000000000000000000000000000000000000000000000000000000000000001502201700000000            000000000000000                              000                           
0010001300165T 020180230000001544772 29577050632910518   7               1702201700000000000750000101981X                         0900000000000010000000000000000000000000000000000000000   0000000000000000000000000A9        170192957705     
0010001300166U 020000000000000000000000000000000000000000000000000000000000000000000000000000000000000000000000000000000000000000000000001502201700000000            000000000000000                              000                           
0010001300167T 020180230000001544772 29577050632917458   7               1702201700000000000750000101981X                         0900000000000010000000000000000000000000000000000000000   0000000000000000000000000A9        170192957705     
0010001300168U 020000000000000000000000000000000000000000000000000000000000000000000000000000000000000000000000000000000000000000000000001502201700000000            000000000000000                              000                           
0010001300169T 020180230000001544772 29577050632948390   7               1702201700000000000750000101981X                         0900000000000010000000000000000000000000000000000000000   0000000000000000000000000A9        170192957705     
0010001300170U 020000000000000000000000000000000000000000000000000000000000000000000000000000000000000000000000000000000000000000000000001502201700000000            000000000000000                              000                           
0010001300171T 020180230000001544772 29577050632958715   7               1702201700000000000750000101981X                         0900000000000010000000000000000000000000000000000000000   0000000000000000000000000A9        170192957705     
0010001300172U 020000000000000000000000000000000000000000000000000000000000000000000000000000000000000000000000000000000000000000000000001502201700000000            000000000000000                              000                           
0010001300173T 020180230000001544772 29577050633124118   7               17022017000000000007500001012408                         0900000000000010000000000000000000000000000000000000000   0000000000000000000000000A9        170192957705     
0010001300174U 020000000000000000000000000000000000000000000000000000000000000000000000000000000000000000000000000000000000000000000000001502201700000000            000000000000000                              000                           
0010001300175T 020180230000001544772 29577050633248576   7               1702201700000000001000000103049X                         0900000000000010000000000000000000000000000000000000000   0000000000000000000000000A9        170192957705     
0010001300176U 020000000000000000000000000000000000000000000000000000000000000000000000000000000000000000000000000000000000000000000000001502201700000000            000000000000000                              000                           
0010001300177T 020180230000001544772 29577050633441517   7               1702201700000000001000000103049X                         0900000000000010000000000000000000000000000000000000000   0000000000000000000000000A9        170192957705     
0010001300178U 020000000000000000000000000000000000000000000000000000000000000000000000000000000000000000000000000000000000000000000000001502201700000000            000000000000000                              000                           
0010001300179T 020180230000001544772 29577050633655374   7               1702201700000000000750000103049X                         0900000000000010000000000000000000000000000000000000000   0000000000000000000000000A9        170192957705     
0010001300180U 020000000000000000000000000000000000000000000000000000000000000000000000000000000000000000000000000000000000000000000000001502201700000000            000000000000000                              000                           
0010001300181T 020180230000001544772 29577050634149673   7               17022017000000000007500001002097                         0900000000000010000000000000000000000000000000000000000   0000000000000000000000000A9        170192957705     
0010001300182U 020000000000000000000000000000000000000000000000000000000000000000000000000000000000000000000000000000000000000000000000001502201700000000            000000000000000                              000                           
0010001300183T 020180230000001544772 29577050634229506   7               1702201700000000000750000103049X                         0900000000000010000000000000000000000000000000000000000   0000000000000000000000000A9        170192957705     
0010001300184U 020000000000000000000000000000000000000000000000000000000000000000000000000000000000000000000000000000000000000000000000001502201700000000            000000000000000                              000                           
0010001300185T 020180230000001544772 29577050634247885   7               1702201700000000000750000103049X                         0900000000000010000000000000000000000000000000000000000   0000000000000000000000000A9        170192957705     
0010001300186U 020000000000000000000000000000000000000000000000000000000000000000000000000000000000000000000000000000000000000000000000001502201700000000            000000000000000                              000                           
0010001300187T 020180230000001544772 29577050635337437   7               17022017000000000007500001000213                         0900000000000010500000000000000000000000000000000000000   0000000000000000000000000A9A4      170192957705     
0010001300188U 020000000000000000000000000000000000000000000000000000000000000000000000000000000000000000000000000000000000000000000000001502201700000000            000000000000000                              000                           
0010001300189T 020180230000001544772 29577050638457172   7               17022017000000000007500001000213                         0900000000000010000000000000000000000000000000000000000   0000000000000000000000000A9        170192957705     
0010001300190U 020000000000000000000000000000000000000000000000000000000000000000000000000000000000000000000000000000000000000000000000001502201700000000            000000000000000                              000                           
0010001300191T 020180230000001544772 29577050649401443   7               17022017000000000007500001046280                         0900000000000010000000000000000000000000000000000000000   0000000000000000000000000A9        170192957705     
0010001300192U 020000000000000000000000000000000000000000000000000000000000000000000000000000000000000000000000000000000000000000000000001502201700000000            000000000000000                              000                           
0010001300193T 020180230000001544772 29577050650935357   7               17022017000000000007500001012416                         0900000000000010000000000000000000000000000000000000000   0000000000000000000000000A9        170192957705     
0010001300194U 020000000000000000000000000000000000000000000000000000000000000000000000000000000000000000000000000000000000000000000000001502201700000000            000000000000000                              000                           
0010001300195T 020180230000001544772 29577050651450216   7               17022017000000000007500001000515                         0900000000000010000000000000000000000000000000000000000   0000000000000000000000000A9        170192957705     
0010001300196U 020000000000000000000000000000000000000000000000000000000000000000000000000000000000000000000000000000000000000000000000001502201700000000            000000000000000                              000                           
0010001300197T 020180230000001544772 29577050652146055   7               17022017000000000007500001012629                         0900000000000010500000000000000000000000000000000000000   0000000000000000000000000A9A4      170192957705     
0010001300198U 020000000000000000000000000000000000000000000000000000000000000000000000000000000000000000000000000000000000000000000000001502201700000000            000000000000000                              000                           
0010001300199T 020180230000001544772 29577050652359701   7               17022017000000000007500001000213                         0900000000000010000000000000000000000000000000000000000   0000000000000000000000000A9        170192957705     
0010001300200U 020000000000000000000000000000000000000000000000000000000000000000000000000000000000000000000000000000000000000000000000001502201700000000            000000000000000                              000                           
0010001300201T 020180230000001544772 29577050653053516   7               1702201700000000000750000103049X                         0900000000000010000000000000000000000000000000000000000   0000000000000000000000000A9        170192957705     
0010001300202U 020000000000000000000000000000000000000000000000000000000000000000000000000000000000000000000000000000000000000000000000001502201700000000            000000000000000                              000                           
0010001300203T 020180230000001544772 29577050653547510   7               17022017000000000007500001012408                         0900000000000010000000000000000000000000000000000000000   0000000000000000000000000A9        170192957705     
0010001300204U 020000000000000000000000000000000000000000000000000000000000000000000000000000000000000000000000000000000000000000000000001502201700000000            000000000000000                              000                           
0010001300205T 020180230000001544772 29577050656138452   7               1702201700000000000750000103049X                         0900000000000010000000000000000000000000000000000000000   0000000000000000000000000A9        170192957705     
0010001300206U 020000000000000000000000000000000000000000000000000000000000000000000000000000000000000000000000000000000000000000000000001502201700000000            000000000000000                              000                           
0010001300207T 020180230000001544772 29577050656420477   7               1702201700000000000750000103049X                         0900000000000010000000000000000000000000000000000000000   0000000000000000000000000A9        170192957705     
0010001300208U 020000000000000000000000000000000000000000000000000000000000000000000000000000000000000000000000000000000000000000000000001502201700000000            000000000000000                              000                           
0010001300209T 020180230000001544772 29577050656431791   7               1702201700000000000750000103049X                         0900000000000010000000000000000000000000000000000000000   0000000000000000000000000A9        170192957705     
0010001300210U 020000000000000000000000000000000000000000000000000000000000000000000000000000000000000000000000000000000000000000000000001502201700000000            000000000000000                              000                           
0010001300211T 020180230000001544772 29577050656437704   7               1702201700000000000750000103049X                         0900000000000010000000000000000000000000000000000000000   0000000000000000000000000A9        170192957705     
0010001300212U 020000000000000000000000000000000000000000000000000000000000000000000000000000000000000000000000000000000000000000000000001502201700000000            000000000000000                              000                           
0010001300213T 020180230000001544772 29577050656622734   7               17022017000000000007500001000213                         0900000000000010000000000000000000000000000000000000000   0000000000000000000000000A9        170192957705     
0010001300214U 020000000000000000000000000000000000000000000000000000000000000000000000000000000000000000000000000000000000000000000000001502201700000000            000000000000000                              000                           
0010001300215T 020180230000001544772 29577050656901062   7               17022017000000000007500001012416                         0900000000000010000000000000000000000000000000000000000   0000000000000000000000000A9        170192957705     
0010001300216U 020000000000000000000000000000000000000000000000000000000000000000000000000000000000000000000000000000000000000000000000001502201700000000            000000000000000                              000                           
0010001300217T 020180230000001544772 29577050659414786   7               17022017000000000007500001000213                         0900000000000010000000000000000000000000000000000000000   0000000000000000000000000A9        170192957705     
0010001300218U 020000000000000000000000000000000000000000000000000000000000000000000000000000000000000000000000000000000000000000000000001502201700000000            000000000000000                              000                           
0010001300219T 020180230000001544772 29577050660847277   7               1702201700000000000750000103049X                         0900000000000010000000000000000000000000000000000000000   0000000000000000000000000A9        170192957705     
0010001300220U 020000000000000000000000000000000000000000000000000000000000000000000000000000000000000000000000000000000000000000000000001502201700000000            000000000000000                              000                           
0010001300221T 020180230000001544772 29577050661356756   7               17022017000000000007500001000213                         0900000000000010000000000000000000000000000000000000000   0000000000000000000000000A9        170192957705     
0010001300222U 020000000000000000000000000000000000000000000000000000000000000000000000000000000000000000000000000000000000000000000000001502201700000000            000000000000000                              000                           
0010001300223T 020180230000001544772 29577050662759222   7               17022017000000000007500001012408                         0900000000000010000000000000000000000000000000000000000   0000000000000000000000000A9        170192957705     
0010001300224U 020000000000000000000000000000000000000000000000000000000000000000000000000000000000000000000000000000000000000000000000001502201700000000            000000000000000                              000                           
0010001300225T 020180230000001544772 29577050663514683   7               17022017000000000007500001012408                         0900000000000010000000000000000000000000000000000000000   0000000000000000000000000A9        170192957705     
0010001300226U 020000000000000000000000000000000000000000000000000000000000000000000000000000000000000000000000000000000000000000000000001502201700000000            000000000000000                              000                           
0010001300227T 020180230000001544772 29577050664047924   7               1702201700000000000750000103049X                         0900000000000010000000000000000000000000000000000000000   0000000000000000000000000A9        170192957705     
0010001300228U 020000000000000000000000000000000000000000000000000000000000000000000000000000000000000000000000000000000000000000000000001502201700000000            000000000000000                              000                           
0010001300229T 020180230000001544772 29577050665217051   7               17022017000000000007500001012408                         0900000000000010000000000000000000000000000000000000000   0000000000000000000000000A9        170192957705     
0010001300230U 020000000000000000000000000000000000000000000000000000000000000000000000000000000000000000000000000000000000000000000000001502201700000000            000000000000000                              000                           
0010001300231T 020180230000001544772 29577050665255491   7               17022017000000000007500001012408                         0900000000000010000000000000000000000000000000000000000   0000000000000000000000000A9        170192957705     
0010001300232U 020000000000000000000000000000000000000000000000000000000000000000000000000000000000000000000000000000000000000000000000001502201700000000            000000000000000                              000                           
0010001300233T 020180230000001544772 29577050669208006   7               17022017000000000007500001000213                         0900000000000010000000000000000000000000000000000000000   0000000000000000000000000A9        170192957705     
0010001300234U 020000000000000000000000000000000000000000000000000000000000000000000000000000000000000000000000000000000000000000000000001502201700000000            000000000000000                              000                           
0010001300235T 020180230000001544772 29577050669244238   7               17022017000000000007500001000213                         0900000000000010000000000000000000000000000000000000000   0000000000000000000000000A9        170192957705     
0010001300236U 020000000000000000000000000000000000000000000000000000000000000000000000000000000000000000000000000000000000000000000000001502201700000000            000000000000000                              000                           
0010001300237T 020180230000001544772 29577050670937844   7               17022017000000000007500001000213                         0900000000000010000000000000000000000000000000000000000   0000000000000000000000000A9        170192957705     
0010001300238U 020000000000000000000000000000000000000000000000000000000000000000000000000000000000000000000000000000000000000000000000001502201700000000            000000000000000                              000                           
0010001300239T 020180230000001544772 29577050674249677   7               17022017000000000007500001012416                         0900000000000010000000000000000000000000000000000000000   0000000000000000000000000A9        170192957705     
0010001300240U 020000000000000000000000000000000000000000000000000000000000000000000000000000000000000000000000000000000000000000000000001502201700000000            000000000000000                              000                           
0010001300241T 020180230000001544772 29577050674602374   7               17022017000000000007500001012416                         0900000000000010000000000000000000000000000000000000000   0000000000000000000000000A9        170192957705     
0010001300242U 020000000000000000000000000000000000000000000000000000000000000000000000000000000000000000000000000000000000000000000000001502201700000000            000000000000000                              000                           
0010001300243T 020180230000001544772 29577050675758097   7               1702201700000000000750000103049X                         0900000000000010500000000000000000000000000000000000000   0000000000000000000000000A9A4      170192957705     
0010001300244U 020000000000000000000000000000000000000000000000000000000000000000000000000000000000000000000000000000000000000000000000001502201700000000            000000000000000                              000                           
0010001300245T 020180230000001544772 29577050680018322   7               17022017000000000010000001000213                         0900000000000010000000000000000000000000000000000000000   0000000000000000000000000A9        170192957705     
0010001300246U 020000000000000000000000000000000000000000000000000000000000000000000000000000000000000000000000000000000000000000000000001502201700000000            000000000000000                              000                           
0010001300247T 020180230000001544772 29577050683445681   7               17022017000000000007500001000213                         0900000000000010000000000000000000000000000000000000000   0000000000000000000000000A9        170192957705     
0010001300248U 020000000000000000000000000000000000000000000000000000000000000000000000000000000000000000000000000000000000000000000000001502201700000000            000000000000000                              000                           
0010001300249T 020180230000001544772 29577050684020121   7               17022017000000000007500001030864                         0900000000000010000000000000000000000000000000000000000   0000000000000000000000000A9        170192957705     
0010001300250U 020000000000000000000000000000000000000000000000000000000000000000000000000000000000000000000000000000000000000000000000001502201700000000            000000000000000                              000                           
0010001300251T 020180230000001544772 29577050684649979   7               17022017000000000007500001018236                         0900000000000010000000000000000000000000000000000000000   0000000000000000000000000A9        170192957705     
0010001300252U 020000000000000000000000000000000000000000000000000000000000000000000000000000000000000000000000000000000000000000000000001502201700000000            000000000000000                              000                           
0010001300253T 020180230000001544772 29577050684656990   7               17022017000000000007500001018236                         0900000000000010000000000000000000000000000000000000000   0000000000000000000000000A9        170192957705     
0010001300254U 020000000000000000000000000000000000000000000000000000000000000000000000000000000000000000000000000000000000000000000000001502201700000000            000000000000000                              000                           
0010001300255T 020180230000001544772 29577050684857767   7               17022017000000000007500001000213                         0900000000000010500000000000000000000000000000000000000   0000000000000000000000000A9A4      170192957705     
0010001300256U 020000000000000000000000000000000000000000000000000000000000000000000000000000000000000000000000000000000000000000000000001502201700000000            000000000000000                              000                           
0010001300257T 020180230000001544772 29577050687840292   7               17022017000000000007500001000213                         0900000000000010000000000000000000000000000000000000000   0000000000000000000000000A9        170192957705     
0010001300258U 020000000000000000000000000000000000000000000000000000000000000000000000000000000000000000000000000000000000000000000000001502201700000000            000000000000000                              000                           
0010001300259T 020180230000001544772 29577050688208620   7               17022017000000000007500001012211                         0900000000000010000000000000000000000000000000000000000   0000000000000000000000000A9        170192957705     
0010001300260U 020000000000000000000000000000000000000000000000000000000000000000000000000000000000000000000000000000000000000000000000001502201700000000            000000000000000                              000                           
0010001300261T 020180230000001544772 29577050688330418   7               17022017000000000007500001012416                         0900000000000010000000000000000000000000000000000000000   0000000000000000000000000A9        170192957705     
0010001300262U 020000000000000000000000000000000000000000000000000000000000000000000000000000000000000000000000000000000000000000000000001502201700000000            000000000000000                              000                           
0010001300263T 020180230000001544772 29577050688354595   7               17022017000000000007500001012416                         0900000000000010000000000000000000000000000000000000000   0000000000000000000000000A9        170192957705     
0010001300264U 020000000000000000000000000000000000000000000000000000000000000000000000000000000000000000000000000000000000000000000000001502201700000000            000000000000000                              000                           
0010001300265T 020180230000001544772 29577050690140718   7               17022017000000000007500001012416                         0900000000000010000000000000000000000000000000000000000   0000000000000000000000000A9        170192957705     
0010001300266U 020000000000000000000000000000000000000000000000000000000000000000000000000000000000000000000000000000000000000000000000001502201700000000            000000000000000                              000                           
0010001300267T 020180230000001544772 29577050691434560   7               17022017000000000007500001000213                         0900000000000010000000000000000000000000000000000000000   0000000000000000000000000A9        170192957705     
0010001300268U 020000000000000000000000000000000000000000000000000000000000000000000000000000000000000000000000000000000000000000000000001502201700000000            000000000000000                              000                           
0010001300269T 020180230000001544772 29577050691459308   7               17022017000000000007500001000213                         0900000000000010000000000000000000000000000000000000000   0000000000000000000000000A9        170192957705     
0010001300270U 020000000000000000000000000000000000000000000000000000000000000000000000000000000000000000000000000000000000000000000000001502201700000000            000000000000000                              000                           
0010001300271T 170180230000001544772 29577050015215401   7               00000000000000000007500001031305                         0900000000000010000000000000000000000000000000000000000   000000000000000000000070003        170192957705     
0010001300272U 170000000000000000000000000000000000000000000000000000000000000000000000075000000000000068000000000000000000000000000000001502201716022017            000000000000000                              000                           
0010001300273T 060180230000001544772 29577050033547647   7               15022017000000000010000021001840                         0900000000000010000000000000000000000000000000000000000   000000000000000000000029000        170192957705     
0010001300274U 060000000000000000000000000000000000000000000000000000000000000000000000100000000000000097100000000000000000000000000000001502201716022017            000000000000000                              000                           
0010001300275T 060180230000001544772 29577050100330415   788888888888889916022017000000000010000001015873888888888888899          0900000000000010000000000000000000000000000000000000000   000000000000000000000029000        170192957705     
0010001300276U 060000000000000000000000000000000000000000000000000000000000000000000000100000000000000097100000000000000000000000000000001502201716022017            000000000000000                              000                           
0010001300277T 060180230000001544772 29577050120832917   7               17022017000000000007500021001010                         0900000000000010000000000000000000000000000000000000000   000000000000000000000029000        170192957705     
0010001300278U 060000000000000000000000000000000000000000000000000000000000000000000000075000000000000072100000000000000000000000000000001502201716022017            000000000000000                              000                           
0010001300279T 060180230000001544772 29577050140336706   7               15022017000000000007500104041920                         0900000000000010000000000000000000000000000000000000000   000000000000000000000029000        170192957705     
0010001300280U 060000000000000000000000000000000000000000000000000000000000000000000000075000000000000072100000000000000000000000000000001502201716022017            000000000000000                              000                           
0010001300281T 060180230000001544772 29577050160401827   7               17022017000000000007500001031933                         0900000000000010000000000000000000000000000000000000000   000000000000000000000029000        170192957705     
0010001300282U 060000000000000000000000000000000000000000000000000000000000000000000000075000000000000072100000000000000000000000000000001502201716022017            000000000000000                              000                           
0010001300283T 060180230000001544772 29577050215134545   7               15022017000000000007500033039440                         0900000000000010000000000000000000000000000000000000000   000000000000000000000029000        170192957705     
0010001300284U 060000000000000000000000000000000000000000000000000000000000000000000000075000000000000072100000000000000000000000000000001502201716022017            000000000000000                              000                           
0010001300285T 060180230000001544772 29577050254529282   7               16022017000000000007500104041900                         0900000000000010000000000000000000000000000000000000000   000000000000000000000029000        170192957705     
0010001300286U 060000000000000000000000000000000000000000000000000000000000000000000000075000000000000072100000000000000000000000000000001502201716022017            000000000000000                              000                           
0010001300287T 060180230000001544772 29577050268917530   7               16022017000000000007500104037790                         0900000000000010000000000000000000000000000000000000000   000000000000000000000029000        170192957705     
0010001300288U 060000000000000000000000000000000000000000000000000000000000000000000000075000000000000072100000000000000000000000000000001502201716022017            000000000000000                              000                           
0010001300289T 060180230000001544772 29577050275540661   7               15022017000000000007500104030840                         0900000000000010000000000000000000000000000000000000000   000000000000000000000029000        170192957705     
0010001300290U 060000000000000000000000000000000000000000000000000000000000000000000000075000000000000072100000000000000000000000000000001502201716022017            000000000000000                              000                           
0010001300291T 060180230000001544772 29577050281953918   7               15022017000000000007500021000830                         0900000000000010000000000000000000000000000000000000000   000000000000000000000029000        170192957705     
0010001300292U 060000000000000000000000000000000000000000000000000000000000000000000000075000000000000072100000000000000000000000000000001502201716022017            000000000000000                              000                           
0010001300293T 060180230000001544772 29577050314714157   7               15022017000000000007500021001830                         0900000000000010000000000000000000000000000000000000000   000000000000000000000029000        170192957705     
0010001300294U 060000000000000000000000000000000000000000000000000000000000000000000000075000000000000072100000000000000000000000000000001502201716022017            000000000000000                              000                           
0010001300295T 060180230000001544772 29577050320219700   7               15022017000000000007500104031320                         0900000000000010000000000000000000000000000000000000000   000000000000000000000029000        170192957705     
0010001300296U 060000000000000000000000000000000000000000000000000000000000000000000000075000000000000072100000000000000000000000000000001502201716022017            000000000000000                              000                           
0010001300297T 060180230000001544772 29577050351612018   788888888888889916022017000000000007500021001180888888888888899          0900000000000010000000000000000000000000000000000000000   000000000000000000000029000        170192957705     
0010001300298U 060000000000000000000000000000000000000000000000000000000000000000000000075000000000000072100000000000000000000000000000001502201716022017            000000000000000                              000                           
0010001300299T 060180230000001544772 29577050376935759   788888888888889916022017000000000007500001042323888888888888899          0900000000000010000000000000000000000000000000000000000   000000000000000000000029000        170192957705     
0010001300300U 060000000000000000000000000000000000000000000000000000000000000000000000075000000000000072100000000000000000000000000000001502201716022017            000000000000000                              000                           
0010001300301T 060180230000001544772 29577050398616363   788888888888889916022017000000000007500021001030888888888888899          0900000000000010000000000000000000000000000000000000000   000000000000000000000029000        170192957705     
0010001300302U 060000000000000000000000000000000000000000000000000000000000000000000000075000000000000072100000000000000000000000000000001502201716022017            000000000000000                              000                           
0010001300303T 060180230000001544772 29577050409542471   7               15022017000000000007500104025210                         0900000000000010000000000000000000000000000000000000000   000000000000000000000029000        170192957705     
0010001300304U 060000000000000000000000000000000000000000000000000000000000000000000000075000000000000072100000000000000000000000000000001502201716022017            000000000000000                              000                           
0010001300305T 060180230000001544772 29577050416816304   788888888888889916022017000000000007500237031740888888888888899          0900000000000010000000000000000000000000000000000000000   000000000000000000000029000        170192957705     
0010001300306U 060000000000000000000000000000000000000000000000000000000000000000000000075000000000000072100000000000000000000000000000001502201716022017            000000000000000                              000                           
0010001300307T 060180230000001544772 29577050422117514   7               15022017000000000010000021002740                         0900000000000010000000000000000000000000000000000000000   000000000000000000000029000        170192957705     
0010001300308U 060000000000000000000000000000000000000000000000000000000000000000000000100000000000000097100000000000000000000000000000001502201716022017            000000000000000                              000                           
0010001300309T 060180230000001544772 29577050431218683   788888888888889916022017000000000007500341015820888888888888899          0900000000000010000000000000000000000000000000000000000   000000000000000000000029000        170192957705     
0010001300310U 060000000000000000000000000000000000000000000000000000000000000000000000075000000000000072100000000000000000000000000000001502201716022017            000000000000000                              000                           
0010001300311T 060180230000001544772 29577050432210067   7               16022017000000000007500021005260                         0900000000000010000000000000000000000000000000000000000   000000000000000000000029000        170192957705     
0010001300312U 060000000000000000000000000000000000000000000000000000000000000000000000075000000000000072100000000000000000000000000000001502201716022017            000000000000000                              000                           
0010001300313T 060180230000001544772 29577050433824808   7               16022017000000000007500104008800                         0900000000000010000000000000000000000000000000000000000   000000000000000000000029000        170192957705     
0010001300314U 060000000000000000000000000000000000000000000000000000000000000000000000075000000000000072100000000000000000000000000000001502201716022017            000000000000000                              000                           
0010001300315T 060180230000001544772 29577050448316922   7               15022017000000000007500237014810                         0900000000000010000000000000000000000000000000000000000   000000000000000000000029000        170192957705     
0010001300316U 060000000000000000000000000000000000000000000000000000000000000000000000075000000000000072100000000000000000000000000000001502201716022017            000000000000000                              000                           
0010001300317T 060180230000001544772 29577050452429283   7               16022017000000000007500341061510                         0900000000000010000000000000000000000000000000000000000   000000000000000000000029000        170192957705     
0010001300318U 060000000000000000000000000000000000000000000000000000000000000000000000075000000000000072100000000000000000000000000000001502201716022017            000000000000000                              000                           
0010001300319T 060180230000001544772 29577050468605636   7               15022017000000000007500104030300                         0900000000000010000000000000000000000000000000000000000   000000000000000000000029000        170192957705     
0010001300320U 060000000000000000000000000000000000000000000000000000000000000000000000075000000000000072100000000000000000000000000000001502201716022017            000000000000000                              000                           
0010001300321T 170180230000001544772 29577050483604959   7               00000000000000000007500033033460                         0900000000000010000000000000000000000000000000000000000   000000000000000000000070003        170192957705     
0010001300322U 170000000000000000000000000000000000000000000000000000000000000000000000075000000000000068000000000000000000000000000000001502201716022017            000000000000000                              000                           
0010001300323T 170180230000001544772 29577050483734581   7               00000000000000000007500033033460                         0900000000000010000000000000000000000000000000000000000   000000000000000000000070003        170192957705     
0010001300324U 170000000000000000000000000000000000000000000000000000000000000000000000075000000000000068000000000000000000000000000000001502201716022017            000000000000000                              000                           
0010001300325T 060180230000001544772 29577050494820790   7               17022017000000000007500001031941                         0900000000000010000000000000000000000000000000000000000   000000000000000000000029000        170192957705     
0010001300326U 060000000000000000000000000000000000000000000000000000000000000000000000075000000000000072100000000000000000000000000000001502201716022017            000000000000000                              000                           
0010001300327T 170180230000001544772 29577050496323059   7               00000000000000000007500001056103                         0900000000000010000000000000000000000000000000000000000   000000000000000000000070003        170192957705     
0010001300328U 170000000000000000000000000000000000000000000000000000000000000000000000075000000000000068000000000000000000000000000000001502201716022017            000000000000000                              000                           
0010001300329T 060180230000001544772 29577050497309635   788888888888889916022017000000000007500001007854888888888888899          0900000000000010000000000000000000000000000000000000000   000000000000000000000029000        170192957705     
0010001300330U 060000000000000000000000000000000000000000000000000000000000000000000000075000000000000072100000000000000000000000000000001502201716022017            000000000000000                              000                           
0010001300331T 060180230000001544772 29577050497530936   788888888888889916022017000000000010000021001100888888888888899          0900000000000010000000000000000000000000000000000000000   000000000000000000000029000        170192957705     
0010001300332U 060000000000000000000000000000000000000000000000000000000000000000000000100000000000000097100000000000000000000000000000001502201716022017            000000000000000                              000                           
0010001300333T 060180230000001544772 29577050497836685   788888888888889916022017000000000007500104030250888888888888899          0900000000000010000000000000000000000000000000000000000   000000000000000000000029000        170192957705     
0010001300334U 060000000000000000000000000000000000000000000000000000000000000000000000075000000000000072100000000000000000000000000000001502201716022017            000000000000000                              000                           
0010001300335T 060180230000001544772 29577050498414585   788888888888889916022017000000000007500104030250888888888888899          0900000000000010000000000000000000000000000000000000000   000000000000000000000029000        170192957705     
0010001300336U 060000000000000000000000000000000000000000000000000000000000000000000000075000000000000072100000000000000000000000000000001502201716022017            000000000000000                              000                           
0010001300337T 060180230000001544772 29577050499004019   788888888888889916022017000000000010000756030070888888888888899          0900000000000010000000000000000000000000000000000000000   000000000000000000000029000        170192957705     
0010001300338U 060000000000000000000000000000000000000000000000000000000000000000000000100000000000000097100000000000000000000000000000001502201716022017            000000000000000                              000                           
0010001300339T 060180230000001544772 29577050499102991   788888888888889916022017000000000007500001016098888888888888899          0900000000000010000000000000000000000000000000000000000   000000000000000000000029000        170192957705     
0010001300340U 060000000000000000000000000000000000000000000000000000000000000000000000075000000000000072100000000000000000000000000000001502201716022017            000000000000000                              000                           
0010001300341T 060180230000001544772 29577050499912461   788888888888889916022017000000000007500001032980888888888888899          0900000000000010000000000000000000000000000000000000000   000000000000000000000029000        170192957705     
0010001300342U 060000000000000000000000000000000000000000000000000000000000000000000000075000000000000072100000000000000000000000000000001502201716022017            000000000000000                              000                           
0010001300343T 060180230000001544772 29577050500826235   788888888888889916022017000000000007500104001680888888888888899          0900000000000010000000000000000000000000000000000000000   000000000000000000000029000        170192957705     
0010001300344U 060000000000000000000000000000000000000000000000000000000000000000000000075000000000000072100000000000000000000000000000001502201716022017            000000000000000                              000                           
0010001300345T 060180230000001544772 29577050501514028   7               1702201700000000000750000100281X                         0900000000000010000000000000000000000000000000000000000   000000000000000000000029000        170192957705     
0010001300346U 060000000000000000000000000000000000000000000000000000000000000000000000075000000000000072100000000000000000000000000000001502201716022017            000000000000000                              000                           
0010001300347T 060180230000001544772 29577050503046655   788888888888889916022017000000000007500104008800888888888888899          0900000000000010000000000000000000000000000000000000000   000000000000000000000029000        170192957705     
0010001300348U 060000000000000000000000000000000000000000000000000000000000000000000000075000000000000072100000000000000000000000000000001502201716022017            000000000000000                              000                           
0010001300349T 060180230000001544772 29577050504254151   788888888888889916022017000000000007500237012000888888888888899          0900000000000010000000000000000000000000000000000000000   000000000000000000000029000        170192957705     
0010001300350U 060000000000000000000000000000000000000000000000000000000000000000000000075000000000000072100000000000000000000000000000001502201716022017            000000000000000                              000                           
0010001300351T 060180230000001544772 29577050505002551   7               15022017000000000007500001050814                         0900000000000010000000000000000000000000000000000000000   000000000000000000000029000        170192957705     
0010001300352U 060000000000000000000000000000000000000000000000000000000000000000000000075000000000000072100000000000000000000000000000001502201716022017            000000000000000                              000                           
0010001300353T 060180230000001544772 29577050505554125   788888888888889916022017000000000007500341064750888888888888899          0900000000000010000000000000000000000000000000000000000   000000000000000000000029000        170192957705     
0010001300354U 060000000000000000000000000000000000000000000000000000000000000000000000075000000000000072100000000000000000000000000000001502201716022017            000000000000000                              000                           
0010001300355T 060180230000001544772 29577050506616013   788888888888889916022017000000000007500104005900888888888888899          0900000000000010000000000000000000000000000000000000000   000000000000000000000029000        170192957705     
0010001300356U 060000000000000000000000000000000000000000000000000000000000000000000000075000000000000072100000000000000000000000000000001502201716022017            000000000000000                              000                           
0010001300357T 060180230000001544772 29577050506719877   788888888888889916022017000000000010000104005920888888888888899          0900000000000010000000000000000000000000000000000000000   000000000000000000000029000        170192957705     
0010001300358U 060000000000000000000000000000000000000000000000000000000000000000000000100000000000000097100000000000000000000000000000001502201716022017            000000000000000                              000                           
0010001300359T 060180230000001544772 29577050509734475   788888888888889916022017000000000007500033043960888888888888899          0900000000000010000000000000000000000000000000000000000   000000000000000000000029000        170192957705     
0010001300360U 060000000000000000000000000000000000000000000000000000000000000000000000075000000000000072100000000000000000000000000000001502201716022017            000000000000000                              000                           
0010001300361T 060180230000001544772 29577050509955798   788888888888889916022017000000000007500001031941888888888888899          0900000000000010000000000000000000000000000000000000000   000000000000000000000029000        170192957705     
0010001300362U 060000000000000000000000000000000000000000000000000000000000000000000000075000000000000072100000000000000000000000000000001502201716022017            000000000000000                              000                           
0010001300363T 060180230000001544772 29577050512503607   788888888888889916022017000000000007500001059781888888888888899          0900000000000010000000000000000000000000000000000000000   000000000000000000000029000        170192957705     
0010001300364U 060000000000000000000000000000000000000000000000000000000000000000000000075000000000000072100000000000000000000000000000001502201716022017            000000000000000                              000                           
0010001300365T 060180230000001544772 29577050512800698   788888888888889916022017000000000007500104001670888888888888899          0900000000000010000000000000000000000000000000000000000   000000000000000000000029000        170192957705     
0010001300366U 060000000000000000000000000000000000000000000000000000000000000000000000075000000000000072100000000000000000000000000000001502201716022017            000000000000000                              000                           
0010001300367T 060180230000001544772 29577050513704902   788888888888889916022017000000000007500021001360888888888888899          0900000000000010000000000000000000000000000000000000000   000000000000000000000029000        170192957705     
0010001300368U 060000000000000000000000000000000000000000000000000000000000000000000000075000000000000072100000000000000000000000000000001502201716022017            000000000000000                              000                           
0010001300369T 060180230000001544772 29577050514109735   788888888888889916022017000000000007500021000440888888888888899          0900000000000010000000000000000000000000000000000000000   000000000000000000000029000        170192957705     
0010001300370U 060000000000000000000000000000000000000000000000000000000000000000000000075000000000000072100000000000000000000000000000001502201716022017            000000000000000                              000                           
0010001300371T 060180230000001544772 29577050514428388   788888888888889916022017000000000007500104020410888888888888899          0900000000000010000000000000000000000000000000000000000   000000000000000000000029000        170192957705     
0010001300372U 060000000000000000000000000000000000000000000000000000000000000000000000075000000000000072100000000000000000000000000000001502201716022017            000000000000000                              000                           
0010001300373T 060180230000001544772 29577050514646414   788888888888889916022017000000000010000001012416888888888888899          0900000000000010000000000000000000000000000000000000000   000000000000000000000029000        170192957705     
0010001300374U 060000000000000000000000000000000000000000000000000000000000000000000000100000000000000097100000000000000000000000000000001502201716022017            000000000000000                              000                           
0010001300375T 060180230000001544772 29577050515619015   788888888888889916022017000000000007500001037907888888888888899          0900000000000010000000000000000000000000000000000000000   000000000000000000000029000        170192957705     
0010001300376U 060000000000000000000000000000000000000000000000000000000000000000000000075000000000000072100000000000000000000000000000001502201716022017            000000000000000                              000                           
0010001300377T 060180230000001544772 29577050517039157   788888888888889916022017000000000007500341042930888888888888899          0900000000000010000000000000000000000000000000000000000   000000000000000000000029000        170192957705     
0010001300378U 060000000000000000000000000000000000000000000000000000000000000000000000075000000000000072100000000000000000000000000000001502201716022017            000000000000000                              000                           
0010001300379T 060180230000001544772 29577050520244784   788888888888889916022017000000000007500001028649888888888888899          0900000000000010000000000000000000000000000000000000000   000000000000000000000029000        170192957705     
0010001300380U 060000000000000000000000000000000000000000000000000000000000000000000000075000000000000072100000000000000000000000000000001502201716022017            000000000000000                              000                           
0010001300381T 060180230000001544772 29577050522255123   788888888888889916022017000000000007500001031933888888888888899          0900000000000010000000000000000000000000000000000000000   000000000000000000000029000        170192957705     
0010001300382U 060000000000000000000000000000000000000000000000000000000000000000000000075000000000000072100000000000000000000000000000001502201716022017            000000000000000                              000                           
0010001300383T 060180230000001544772 29577050523232384   788888888888889916022017000000000007500001018023888888888888899          0900000000000010000000000000000000000000000000000000000   000000000000000000000029000        170192957705     
0010001300384U 060000000000000000000000000000000000000000000000000000000000000000000000075000000000000072100000000000000000000000000000001502201716022017            000000000000000                              000                           
0010001300385T 060180230000001544772 29577050526341037   788888888888889916022017000000000007500001031933888888888888899          0900000000000010000000000000000000000000000000000000000   000000000000000000000029000        170192957705     
0010001300386U 060000000000000000000000000000000000000000000000000000000000000000000000075000000000000072100000000000000000000000000000001502201716022017            000000000000000                              000                           
0010001300387T 060180230000001544772 29577050526618123   7               16022017000000000007500104015640                         0900000000000010000000000000000000000000000000000000000   000000000000000000000029000        170192957705     
0010001300388U 060000000000000000000000000000000000000000000000000000000000000000000000075000000000000072100000000000000000000000000000001502201716022017            000000000000000                              000                           
0010001300389T 060180230000001544772 29577050527433806   7               17022017000000000007500021000830                         0900000000000010000000000000000000000000000000000000000   000000000000000000000029000        170192957705     
0010001300390U 060000000000000000000000000000000000000000000000000000000000000000000000075000000000000072100000000000000000000000000000001502201716022017            000000000000000                              000                           
0010001300391T 060180230000001544772 29577050530112080   788888888888889916022017000000000010000104005130888888888888899          0900000000000010000000000000000000000000000000000000000   000000000000000000000029000        170192957705     
0010001300392U 060000000000000000000000000000000000000000000000000000000000000000000000100000000000000097100000000000000000000000000000001502201716022017            000000000000000                              000                           
0010001300393T 060180230000001544772 29577050531641521   788888888888889916022017000000000007500033033450888888888888899          0900000000000010000000000000000000000000000000000000000   000000000000000000000029000        170192957705     
0010001300394U 060000000000000000000000000000000000000000000000000000000000000000000000075000000000000072100000000000000000000000000000001502201716022017            000000000000000                              000                           
0010001300395T 060180230000001544772 29577050532051437   7               16022017000000000007500341030670                         0900000000000010000000000000000000000000000000000000000   000000000000000000000029000        170192957705     
0010001300396U 060000000000000000000000000000000000000000000000000000000000000000000000075000000000000072100000000000000000000000000000001502201716022017            000000000000000                              000                           
0010001300397T 060180230000001544772 29577050532207066   788888888888889916022017000000000007500001016098888888888888899          0900000000000010000000000000000000000000000000000000000   000000000000000000000029000        170192957705     
0010001300398U 060000000000000000000000000000000000000000000000000000000000000000000000075000000000000072100000000000000000000000000000001502201716022017            000000000000000                              000                           
0010001300399T 060180230000001544772 29577050532559938   788888888888889916022017000000000007500001046744888888888888899          0900000000000010000000000000000000000000000000000000000   000000000000000000000029000        170192957705     
0010001300400U 060000000000000000000000000000000000000000000000000000000000000000000000075000000000000072100000000000000000000000000000001502201716022017            000000000000000                              000                           
0010001300401T 060180230000001544772 29577050535428140   7               17022017000000000007500104020420                         0900000000000010000000000000000000000000000000000000000   000000000000000000000029000        170192957705     
0010001300402U 060000000000000000000000000000000000000000000000000000000000000000000000075000000000000072100000000000000000000000000000001502201716022017            000000000000000                              000                           
0010001300403T 060180230000001544772 29577050535502341   788888888888889916022017000000000007500104001680888888888888899          0900000000000010000000000000000000000000000000000000000   000000000000000000000029000        170192957705     
0010001300404U 060000000000000000000000000000000000000000000000000000000000000000000000075000000000000072100000000000000000000000000000001502201716022017            000000000000000                              000                           
0010001300405T 060180230000001544772 29577050538310712   788888888888889916022017000000000007500104030840888888888888899          0900000000000010000000000000000000000000000000000000000   000000000000000000000029000        170192957705     
0010001300406U 060000000000000000000000000000000000000000000000000000000000000000000000075000000000000072100000000000000000000000000000001502201716022017            000000000000000                              000                           
0010001300407T 060180230000001544772 29577050606855634   7               16022017000000000007500104020990                         0900000000000010000000000000000000000000000000000000000   000000000000000000000029000        170192957705     
0010001300408U 060000000000000000000000000000000000000000000000000000000000000000000000075000000000000072100000000000000000000000000000001502201716022017            000000000000000                              000                           
0010001300409T 060180230000001544772 29577050635337437   7               17022017000000000007500001031941                         0900000000000010000000000000000000000000000000000000000   000000000000000000000029000        170192957705     
0010001300410U 060000000000000000000000000000000000000000000000000000000000000000000000075000000000000072100000000000000000000000000000001502201716022017            000000000000000                              000                           
0010001300411T 280180230000001544772 29577050021513524   788888888888889916012017000000000007500001000000888888888888899          0900000000000000000000000000000000000000000000000000000   000000000000000000000005002        170192957705     
0010001300412U 280000000000000000000000000000000000000000000000000000000000000000000000000000000000000000000000000000000000000000000000001502201700000000            000000000000000                              000                           
