00100000         2247745860001000029577050014       0180230000001544772 INSTITUTO DE SELECAO E TECNOLOBANCO DO BRASIL                         21702201702041900010003000000515122941PROCESSAMEN                                                 
00100011T0100020 20247745860001000029577050014       0180230000001544772 INSTITUTO DE SELECAO E TECNOLO                                                                                000000001702201700000000  000000000                      
0010001300001T 020180230000001544772 29577050013838605   7               1902201700000000000750000103049X                         0900000000000010000000000000000000000000000000000000000   0000000000000000000000000A9        170192957705     
0010001300002U 020000000000000000000000000000000000000000000000000000000000000000000000000000000000000000000000000000000000000000000000001702201700000000            000000000000000                              000                           
0010001300003T 020180230000001544772 29577050068857313   7               19022017000000000007500001000213                         0900000000000010000000000000000000000000000000000000000   0000000000000000000000000A9        170192957705     
0010001300004U 020000000000000000000000000000000000000000000000000000000000000000000000000000000000000000000000000000000000000000000000001702201700000000            000000000000000                              000                           
0010001300005T 020180230000001544772 29577050086928775   7               19022017000000000007500001000213                         0900000000000010000000000000000000000000000000000000000   0000000000000000000000000A9        170192957705     
0010001300006U 020000000000000000000000000000000000000000000000000000000000000000000000000000000000000000000000000000000000000000000000001702201700000000            000000000000000                              000                           
0010001300007T 020180230000001544772 29577050093610885   7               19022017000000000007500001000213                         0900000000000010000000000000000000000000000000000000000   0000000000000000000000000A9        170192957705     
0010001300008U 020000000000000000000000000000000000000000000000000000000000000000000000000000000000000000000000000000000000000000000000001702201700000000            000000000000000                              000                           
0010001300009T 020180230000001544772 29577050104129254   7               19022017000000000007500001012416                         0900000000000010000000000000000000000000000000000000000   0000000000000000000000000A9        170192957705     
0010001300010U 020000000000000000000000000000000000000000000000000000000000000000000000000000000000000000000000000000000000000000000000001702201700000000            000000000000000                              000                           
0010001300011T 020180230000001544772 29577050121314770   7               19022017000000000007500001012416                         0900000000000010000000000000000000000000000000000000000   0000000000000000000000000A9        170192957705     
0010001300012U 020000000000000000000000000000000000000000000000000000000000000000000000000000000000000000000000000000000000000000000000001702201700000000            000000000000000                              000                           
0010001300013T 020180230000001544772 29577050155815689   7               19022017000000000007500001001120                         0900000000000010000000000000000000000000000000000000000   0000000000000000000000000A9        170192957705     
0010001300014U 020000000000000000000000000000000000000000000000000000000000000000000000000000000000000000000000000000000000000000000000001702201700000000            000000000000000                              000                           
0010001300015T 020180230000001544772 29577050208351761   7               19022017000000000007500001000213                         0900000000000010000000000000000000000000000000000000000   0000000000000000000000000A9        170192957705     
0010001300016U 020000000000000000000000000000000000000000000000000000000000000000000000000000000000000000000000000000000000000000000000001702201700000000            000000000000000                              000                           
0010001300017T 020180230000001544772 29577050216620168   7               1902201700000000000750000103049X                         0900000000000010000000000000000000000000000000000000000   0000000000000000000000000A9        170192957705     
0010001300018U 020000000000000000000000000000000000000000000000000000000000000000000000000000000000000000000000000000000000000000000000001702201700000000            000000000000000                              000                           
0010001300019T 020180230000001544772 29577050240932743   7               19022017000000000007500001045799                         0900000000000010000000000000000000000000000000000000000   0000000000000000000000000A9        170192957705     
0010001300020U 020000000000000000000000000000000000000000000000000000000000000000000000000000000000000000000000000000000000000000000000001702201700000000            000000000000000                              000                           
0010001300021T 020180230000001544772 29577050259841908   7               1902201700000000000750000103049X                         0900000000000010000000000000000000000000000000000000000   0000000000000000000000000A9        170192957705     
0010001300022U 020000000000000000000000000000000000000000000000000000000000000000000000000000000000000000000000000000000000000000000000001702201700000000            000000000000000                              000                           
0010001300023T 020180230000001544772 29577050284551383   7               1902201700000000000750000100166X                         0900000000000010500000000000000000000000000000000000000   0000000000000000000000000A9A4      170192957705     
0010001300024U 020000000000000000000000000000000000000000000000000000000000000000000000000000000000000000000000000000000000000000000000001702201700000000            000000000000000                              000                           
0010001300025T 020180230000001544772 29577050335639617   7               1902201700000000000750000103049X                         0900000000000010000000000000000000000000000000000000000   0000000000000000000000000A9        170192957705     
0010001300026U 020000000000000000000000000000000000000000000000000000000000000000000000000000000000000000000000000000000000000000000000001702201700000000            000000000000000                              000                           
0010001300027T 020180230000001544772 29577050335647246   7               1902201700000000000750000103049X                         0900000000000010000000000000000000000000000000000000000   0000000000000000000000000A9        170192957705     
0010001300028U 020000000000000000000000000000000000000000000000000000000000000000000000000000000000000000000000000000000000000000000000001702201700000000            000000000000000                              000                           
0010001300029T 020180230000001544772 29577050357719162   7               19022017000000000007500001000213                         0900000000000010000000000000000000000000000000000000000   0000000000000000000000000A9        170192957705     
0010001300030U 020000000000000000000000000000000000000000000000000000000000000000000000000000000000000000000000000000000000000000000000001702201700000000            000000000000000                              000                           
0010001300031T 020180230000001544772 29577050383532087   7               19022017000000000007500001012408                         0900000000000010000000000000000000000000000000000000000   0000000000000000000000000A9        170192957705     
0010001300032U 020000000000000000000000000000000000000000000000000000000000000000000000000000000000000000000000000000000000000000000000001702201700000000            000000000000000                              000                           
0010001300033T 020180230000001544772 29577050389319210   7               1902201700000000000750000103049X                         0900000000000010000000000000000000000000000000000000000   0000000000000000000000000A9        170192957705     
0010001300034U 020000000000000000000000000000000000000000000000000000000000000000000000000000000000000000000000000000000000000000000000001702201700000000            000000000000000                              000                           
0010001300035T 020180230000001544772 29577050397738802   7               19022017000000000007500001000213                         0900000000000010000000000000000000000000000000000000000   0000000000000000000000000A9        170192957705     
0010001300036U 020000000000000000000000000000000000000000000000000000000000000000000000000000000000000000000000000000000000000000000000001702201700000000            000000000000000                              000                           
0010001300037T 020180230000001544772 29577050403710437   7               19022017000000000007500001012408                         0900000000000010000000000000000000000000000000000000000   0000000000000000000000000A9        170192957705     
0010001300038U 020000000000000000000000000000000000000000000000000000000000000000000000000000000000000000000000000000000000000000000000001702201700000000            000000000000000                              000                           
0010001300039T 020180230000001544772 29577050424248248   7               19022017000000000007500001012416                         0900000000000010000000000000000000000000000000000000000   0000000000000000000000000A9        170192957705     
0010001300040U 020000000000000000000000000000000000000000000000000000000000000000000000000000000000000000000000000000000000000000000000001702201700000000            000000000000000                              000                           
0010001300041T 020180230000001544772 29577050439549358   7               19022017000000000007500001000213                         0900000000000010000000000000000000000000000000000000000   0000000000000000000000000A9        170192957705     
0010001300042U 020000000000000000000000000000000000000000000000000000000000000000000000000000000000000000000000000000000000000000000000001702201700000000            000000000000000                              000                           
0010001300043T 020180230000001544772 29577050474313256   7               19022017000000000007500001009245                         0900000000000010000000000000000000000000000000000000000   0000000000000000000000000A9        170192957705     
0010001300044U 020000000000000000000000000000000000000000000000000000000000000000000000000000000000000000000000000000000000000000000000001702201700000000            000000000000000                              000                           
0010001300045T 020180230000001544772 29577050476453041   7               19022017000000000007500001045586                         0900000000000010000000000000000000000000000000000000000   0000000000000000000000000A9        170192957705     
0010001300046U 020000000000000000000000000000000000000000000000000000000000000000000000000000000000000000000000000000000000000000000000001702201700000000            000000000000000                              000                           
0010001300047T 020180230000001544772 29577050490437284   7               1802201700000000000750000103049X                         0900000000000010000000000000000000000000000000000000000   0000000000000000000000000A9        170192957705     
0010001300048U 020000000000000000000000000000000000000000000000000000000000000000000000000000000000000000000000000000000000000000000000001602201700000000            000000000000000                              000                           
0010001300049T 020180230000001544772 29577050509630886   7               19022017000000000010000001000213                         0900000000000010000000000000000000000000000000000000000   0000000000000000000000000A9        170192957705     
0010001300050U 020000000000000000000000000000000000000000000000000000000000000000000000000000000000000000000000000000000000000000000000001702201700000000            000000000000000                              000                           
0010001300051T 020180230000001544772 29577050510616261   7               19022017000000000007500001012408                         0900000000000010000000000000000000000000000000000000000   0000000000000000000000000A9        170192957705     
0010001300052U 020000000000000000000000000000000000000000000000000000000000000000000000000000000000000000000000000000000000000000000000001702201700000000            000000000000000                              000                           
0010001300053T 020180230000001544772 29577050529427692   7               19022017000000000007500001000833                         0900000000000010000000000000000000000000000000000000000   0000000000000000000000000A9        170192957705     
0010001300054U 020000000000000000000000000000000000000000000000000000000000000000000000000000000000000000000000000000000000000000000000001702201700000000            000000000000000                              000                           
0010001300055T 020180230000001544772 29577050532311975   7               19022017000000000007500001012408                         0900000000000010000000000000000000000000000000000000000   0000000000000000000000000A9        170192957705     
0010001300056U 020000000000000000000000000000000000000000000000000000000000000000000000000000000000000000000000000000000000000000000000001702201700000000            000000000000000                              000                           
0010001300057T 020180230000001544772 29577050539914071   7               1902201700000000000750000103049X                         0900000000000010000000000000000000000000000000000000000   0000000000000000000000000A9        170192957705     
0010001300058U 020000000000000000000000000000000000000000000000000000000000000000000000000000000000000000000000000000000000000000000000001702201700000000            000000000000000                              000                           
0010001300059T 020180230000001544772 29577050543503144   7               19022017000000000007500001000213                         0900000000000010000000000000000000000000000000000000000   0000000000000000000000000A9        170192957705     
0010001300060U 020000000000000000000000000000000000000000000000000000000000000000000000000000000000000000000000000000000000000000000000001702201700000000            000000000000000                              000                           
0010001300061T 020180230000001544772 29577050731430194   7               18022017000000000007500001000213                         0900000000000010000000000000000000000000000000000000000   0000000000000000000000000A9        170192957705     
0010001300062U 020000000000000000000000000000000000000000000000000000000000000000000000000000000000000000000000000000000000000000000000001602201700000000            000000000000000                              000                           
0010001300063T 020180230000001544772 29577050733342210   7               1902201700000000000750000103049X                         0900000000000010000000000000000000000000000000000000000   0000000000000000000000000A9        170192957705     
0010001300064U 020000000000000000000000000000000000000000000000000000000000000000000000000000000000000000000000000000000000000000000000001702201700000000            000000000000000                              000                           
0010001300065T 020180230000001544772 29577050735649560   7               19022017000000000007500001012408                         0900000000000010000000000000000000000000000000000000000   0000000000000000000000000A9        170192957705     
0010001300066U 020000000000000000000000000000000000000000000000000000000000000000000000000000000000000000000000000000000000000000000000001702201700000000            000000000000000                              000                           
0010001300067T 020180230000001544772 29577050736251908   7               19022017000000000007500001000213                         0900000000000010500000000000000000000000000000000000000   0000000000000000000000000A9A4      170192957705     
0010001300068U 020000000000000000000000000000000000000000000000000000000000000000000000000000000000000000000000000000000000000000000000001702201700000000            000000000000000                              000                           
0010001300069T 020180230000001544772 29577050736544175   7               19022017000000000007500001000213                         0900000000000010500000000000000000000000000000000000000   0000000000000000000000000A9A4      170192957705     
0010001300070U 020000000000000000000000000000000000000000000000000000000000000000000000000000000000000000000000000000000000000000000000001702201700000000            000000000000000                              000                           
0010001300071T 020180230000001544772 29577050736611896   7               1902201700000000000750000103049X                         0900000000000010500000000000000000000000000000000000000   0000000000000000000000000A9A4      170192957705     
0010001300072U 020000000000000000000000000000000000000000000000000000000000000000000000000000000000000000000000000000000000000000000000001702201700000000            000000000000000                              000                           
0010001300073T 020180230000001544772 29577050737453599   7               19022017000000000007500001012408                         0900000000000010000000000000000000000000000000000000000   0000000000000000000000000A9        170192957705     
0010001300074U 020000000000000000000000000000000000000000000000000000000000000000000000000000000000000000000000000000000000000000000000001702201700000000            000000000000000                              000                           
0010001300075T 020180230000001544772 29577050737739679   7               19022017000000000007500001012416                         0900000000000010000000000000000000000000000000000000000   0000000000000000000000000A9        170192957705     
0010001300076U 020000000000000000000000000000000000000000000000000000000000000000000000000000000000000000000000000000000000000000000000001702201700000000            000000000000000                              000                           
0010001300077T 020180230000001544772 29577050737742924   7               19022017000000000007500001012416                         0900000000000010000000000000000000000000000000000000000   0000000000000000000000000A9        170192957705     
0010001300078U 020000000000000000000000000000000000000000000000000000000000000000000000000000000000000000000000000000000000000000000000001702201700000000            000000000000000                              000                           
0010001300079T 020180230000001544772 29577050738051052   7               19022017000000000007500001012610                         0900000000000010000000000000000000000000000000000000000   0000000000000000000000000A9        170192957705     
0010001300080U 020000000000000000000000000000000000000000000000000000000000000000000000000000000000000000000000000000000000000000000000001702201700000000            000000000000000                              000                           
0010001300081T 020180230000001544772 29577050738805744   7               19022017000000000007500001002860                         0900000000000010000000000000000000000000000000000000000   0000000000000000000000000A9        170192957705     
0010001300082U 020000000000000000000000000000000000000000000000000000000000000000000000000000000000000000000000000000000000000000000000001702201700000000            000000000000000                              000                           
0010001300083T 020180230000001544772 29577050739602304   7               19022017000000000007500001004782                         0900000000000010500000000000000000000000000000000000000   0000000000000000000000000A9A4      170192957705     
0010001300084U 020000000000000000000000000000000000000000000000000000000000000000000000000000000000000000000000000000000000000000000000001702201700000000            000000000000000                              000                           
0010001300085T 020180230000001544772 29577050739617523   7               19022017000000000007500001004782                         0900000000000010500000000000000000000000000000000000000   0000000000000000000000000A9A4      170192957705     
0010001300086U 020000000000000000000000000000000000000000000000000000000000000000000000000000000000000000000000000000000000000000000000001702201700000000            000000000000000                              000                           
0010001300087T 020180230000001544772 29577050739631594   7               19022017000000000007500001004782                         0900000000000010500000000000000000000000000000000000000   0000000000000000000000000A9A4      170192957705     
0010001300088U 020000000000000000000000000000000000000000000000000000000000000000000000000000000000000000000000000000000000000000000000001702201700000000            000000000000000                              000                           
0010001300089T 020180230000001544772 29577050739648323   7               19022017000000000007500001004782                         0900000000000010500000000000000000000000000000000000000   0000000000000000000000000A9A4      170192957705     
0010001300090U 020000000000000000000000000000000000000000000000000000000000000000000000000000000000000000000000000000000000000000000000001702201700000000            000000000000000                              000                           
0010001300091T 020180230000001544772 29577050740207883   7               19022017000000000007500001000213                         0900000000000010000000000000000000000000000000000000000   0000000000000000000000000A9        170192957705     
0010001300092U 020000000000000000000000000000000000000000000000000000000000000000000000000000000000000000000000000000000000000000000000001702201700000000            000000000000000                              000                           
0010001300093T 020180230000001544772 29577050741424049   7               19022017000000000007500001012416                         0900000000000010000000000000000000000000000000000000000   0000000000000000000000000A9        170192957705     
0010001300094U 020000000000000000000000000000000000000000000000000000000000000000000000000000000000000000000000000000000000000000000000001702201700000000            000000000000000                              000                           
0010001300095T 020180230000001544772 29577050741629282   7               19022017000000000007500001012408                         0900000000000010500000000000000000000000000000000000000   0000000000000000000000000A9A4      170192957705     
0010001300096U 020000000000000000000000000000000000000000000000000000000000000000000000000000000000000000000000000000000000000000000000001702201700000000            000000000000000                              000                           
0010001300097T 020180230000001544772 29577050742626149   7               19022017000000000007500001012408                         0900000000000010000000000000000000000000000000000000000   0000000000000000000000000A9        170192957705     
0010001300098U 020000000000000000000000000000000000000000000000000000000000000000000000000000000000000000000000000000000000000000000000001702201700000000            000000000000000                              000                           
0010001300099T 020180230000001544772 29577050743849975   7               1902201700000000000750000103049X                         0900000000000010000000000000000000000000000000000000000   0000000000000000000000000A9        170192957705     
0010001300100U 020000000000000000000000000000000000000000000000000000000000000000000000000000000000000000000000000000000000000000000000001702201700000000            000000000000000                              000                           
0010001300101T 020180230000001544772 29577050744406109   7               1902201700000000000750000103049X                         0900000000000010000000000000000000000000000000000000000   0000000000000000000000000A9        170192957705     
0010001300102U 020000000000000000000000000000000000000000000000000000000000000000000000000000000000000000000000000000000000000000000000001702201700000000            000000000000000                              000                           
0010001300103T 020180230000001544772 29577050744655483   7               19022017000000000007500001012408                         0900000000000010000000000000000000000000000000000000000   0000000000000000000000000A9        170192957705     
0010001300104U 020000000000000000000000000000000000000000000000000000000000000000000000000000000000000000000000000000000000000000000000001702201700000000            000000000000000                              000                           
0010001300105T 020180230000001544772 29577050744856050   7               19022017000000000007500001012408                         0900000000000010000000000000000000000000000000000000000   0000000000000000000000000A9        170192957705     
0010001300106U 020000000000000000000000000000000000000000000000000000000000000000000000000000000000000000000000000000000000000000000000001702201700000000            000000000000000                              000                           
0010001300107T 020180230000001544772 29577050746928426   7               19022017000000000007500001012408                         0900000000000010000000000000000000000000000000000000000   0000000000000000000000000A9        170192957705     
0010001300108U 020000000000000000000000000000000000000000000000000000000000000000000000000000000000000000000000000000000000000000000000001702201700000000            000000000000000                              000                           
0010001300109T 020180230000001544772 29577050750102584   7               19022017000000000007500001000671                         0900000000000010000000000000000000000000000000000000000   0000000000000000000000000A9        170192957705     
0010001300110U 020000000000000000000000000000000000000000000000000000000000000000000000000000000000000000000000000000000000000000000000001702201700000000            000000000000000                              000                           
0010001300111T 020180230000001544772 29577050750635249   7               19022017000000000007500001000213                         0900000000000010000000000000000000000000000000000000000   0000000000000000000000000A9        170192957705     
0010001300112U 020000000000000000000000000000000000000000000000000000000000000000000000000000000000000000000000000000000000000000000000001702201700000000            000000000000000                              000                           
0010001300113T 020180230000001544772 29577050752757496   7               19022017000000000007500001012408                         0900000000000010500000000000000000000000000000000000000   0000000000000000000000000A9A4      170192957705     
0010001300114U 020000000000000000000000000000000000000000000000000000000000000000000000000000000000000000000000000000000000000000000000001702201700000000            000000000000000                              000                           
0010001300115T 020180230000001544772 29577050753659625   7               19022017000000000007500001046264                         0900000000000010000000000000000000000000000000000000000   0000000000000000000000000A9        170192957705     
0010001300116U 020000000000000000000000000000000000000000000000000000000000000000000000000000000000000000000000000000000000000000000000001702201700000000            000000000000000                              000                           
0010001300117T 020180230000001544772 29577050755417678   7               19022017000000000007500001012408                         0900000000000010000000000000000000000000000000000000000   0000000000000000000000000A9        170192957705     
0010001300118U 020000000000000000000000000000000000000000000000000000000000000000000000000000000000000000000000000000000000000000000000001702201700000000            000000000000000                              000                           
0010001300119T 020180230000001544772 29577050756847047   7               19022017000000000007500001000213                         0900000000000010000000000000000000000000000000000000000   0000000000000000000000000A9        170192957705     
0010001300120U 020000000000000000000000000000000000000000000000000000000000000000000000000000000000000000000000000000000000000000000000001702201700000000            000000000000000                              000                           
0010001300121T 020180230000001544772 29577050757415072   7               19022017000000000007500001001554                         0900000000000010000000000000000000000000000000000000000   0000000000000000000000000A9        170192957705     
0010001300122U 020000000000000000000000000000000000000000000000000000000000000000000000000000000000000000000000000000000000000000000000001702201700000000            000000000000000                              000                           
0010001300123T 020180230000001544772 29577050757439964   7               19022017000000000007500001001554                         0900000000000010000000000000000000000000000000000000000   0000000000000000000000000A9        170192957705     
0010001300124U 020000000000000000000000000000000000000000000000000000000000000000000000000000000000000000000000000000000000000000000000001702201700000000            000000000000000                              000                           
0010001300125T 020180230000001544772 29577050757451984   7               19022017000000000007500001001554                         0900000000000010000000000000000000000000000000000000000   0000000000000000000000000A9        170192957705     
0010001300126U 020000000000000000000000000000000000000000000000000000000000000000000000000000000000000000000000000000000000000000000000001702201700000000            000000000000000                              000                           
0010001300127T 060180230000001544772 29577050139945830   7               17022017000000000007500104041920                         0900000000000010000000000000000000000000000000000000000   000000000000000000000029000        170192957705     
0010001300128U 060000000000000000000000000000000000000000000000000000000000000000000000075000000000000072100000000000000000000000000000001702201720022017            000000000000000                              000                           
0010001300129T 060180230000001544772 29577050227611435   7               17022017000000000007500104020420                         0900000000000010000000000000000000000000000000000000000   000000000000000000000029000        170192957705     
0010001300130U 060000000000000000000000000000000000000000000000000000000000000000000000075000000000000072100000000000000000000000000000001702201720022017            000000000000000                              000                           
0010001300131T 060180230000001544772 29577050335647246   7               19022017000000000007500021000590                         0900000000000010000000000000000000000000000000000000000   000000000000000000000029000        170192957705     
0010001300132U 060000000000000000000000000000000000000000000000000000000000000000000000075000000000000072100000000000000000000000000000001702201720022017            000000000000000                              000                           
0010001300133T 060180230000001544772 29577050454706551   7               17022017000000000007500104025210                         0900000000000010000000000000000000000000000000000000000   000000000000000000000029000        170192957705     
0010001300134U 060000000000000000000000000000000000000000000000000000000000000000000000075000000000000072100000000000000000000000000000001702201720022017            000000000000000                              000                           
0010001300135T 060180230000001544772 29577050473939483   7               17022017000000000007500104031160                         0900000000000010000000000000000000000000000000000000000   000000000000000000000029000        170192957705     
0010001300136U 060000000000000000000000000000000000000000000000000000000000000000000000075000000000000072100000000000000000000000000000001702201720022017            000000000000000                              000                           
0010001300137T 060180230000001544772 29577050474313256   7               19022017000000000007500021001740                         0900000000000010000000000000000000000000000000000000000   000000000000000000000029000        170192957705     
0010001300138U 060000000000000000000000000000000000000000000000000000000000000000000000075000000000000072100000000000000000000000000000001702201720022017            000000000000000                              000                           
0010001300139T 060180230000001544772 29577050505936577   788888888888889916022017000000000010000001037907888888888888899          0900000000000010000000000000000000000000000000000000000   000000000000000000000029000        170192957705     
0010001300140U 060000000000000420000000000000000000000000000000000000000000000000000000100420000000000097520000000000000000000000000000001702201720022017            000000000000000                              000                           
0010001300141T 060180230000001544772 29577050532311975   7               19022017000000000007500021000910                         0900000000000010000000000000000000000000000000000000000   000000000000000000000029000        170192957705     
0010001300142U 060000000000000000000000000000000000000000000000000000000000000000000000075000000000000072100000000000000000000000000000001702201720022017            000000000000000                              000                           
0010001300143T 060180230000001544772 29577050539914071   7               19022017000000000007500104023100                         0900000000000010000000000000000000000000000000000000000   000000000000000000000029000        170192957705     
0010001300144U 060000000000000000000000000000000000000000000000000000000000000000000000075000000000000072100000000000000000000000000000001702201720022017            000000000000000                              000                           
0010001300145T 060180230000001544772 29577050633441517   7               17022017000000000010000021001040                         0900000000000010000000000000000000000000000000000000000   000000000000000000000029000        170192957705     
0010001300146U 060000000000000000000000000000000000000000000000000000000000000000000000100000000000000097100000000000000000000000000000001702201720022017            000000000000000                              000                           
0010001300147T 060180230000001544772 29577050653547510   7               17022017000000000007500001045594                         0900000000000010000000000000000000000000000000000000000   000000000000000000000029000        170192957705     
0010001300148U 060000000000000000000000000000000000000000000000000000000000000000000000075000000000000072100000000000000000000000000000001702201720022017            000000000000000                              000                           
0010001300149T 060180230000001544772 29577050752757496   7               19022017000000000007500001031933                         0900000000000010000000000000000000000000000000000000000   000000000000000000000029000        170192957705     
0010001300150U 060000000000000000000000000000000000000000000000000000000000000000000000075000000000000072100000000000000000000000000000001702201720022017            000000000000000                              000                           
0010001300151T 280180230000001544772 29577050000040577   788888888888888819122016000000000001000001000000assistente adminitrativo 0900000000000000000000000000000000000000000000000000000   000000000000000000000005002        170192957705     
0010001300152U 280000000000000000000000000000000000000000000000000000000000000000000000000000000000000000000000000000000000000000000000001702201700000000            000000000000000                              000                           
0010001300153T 280180230000001544772 29577050000604390   788888888888889918012017000000000007500001000000888888888888899          0900000000000000000000000000000000000000000000000000000   000000000000000000000005002        170192957705     
0010001300154U 280000000000000000000000000000000000000000000000000000000000000000000000000000000000000000000000000000000000000000000000001702201700000000            000000000000000                              000                           
0010001300155T 280180230000001544772 29577050000605535   788888888888889918012017000000000007500001000000888888888888899          0900000000000000000000000000000000000000000000000000000   000000000000000000000005002        170192957705     
0010001300156U 280000000000000000000000000000000000000000000000000000000000000000000000000000000000000000000000000000000000000000000000001702201700000000            000000000000000                              000                           
0010001300157T 280180230000001544772 29577050000605866   788888888888889918012017000000000007500001000000888888888888899          0900000000000000000000000000000000000000000000000000000   000000000000000000000005002        170192957705     
0010001300158U 280000000000000000000000000000000000000000000000000000000000000000000000000000000000000000000000000000000000000000000000001702201700000000            000000000000000                              000                           
0010001300159T 280180230000001544772 29577050000611048   788888888888889918012017000000000007500001000000888888888888899          0900000000000000000000000000000000000000000000000000000   000000000000000000000005002        170192957705     
0010001300160U 280000000000000000000000000000000000000000000000000000000000000000000000000000000000000000000000000000000000000000000000001702201700000000            000000000000000                              000                           
0010001300161T 280180230000001544772 29577050000615689   788888888888889918012017000000000007500001000000888888888888899          0900000000000000000000000000000000000000000000000000000   000000000000000000000005002        170192957705     
0010001300162U 280000000000000000000000000000000000000000000000000000000000000000000000000000000000000000000000000000000000000000000000001702201700000000            000000000000000                              000                           
0010001300163T 280180230000001544772 29577050000616486   788888888888889918012017000000000007500001000000888888888888899          0900000000000000000000000000000000000000000000000000000   000000000000000000000005002        170192957705     
0010001300164U 280000000000000000000000000000000000000000000000000000000000000000000000000000000000000000000000000000000000000000000000001702201700000000            000000000000000                              000                           
0010001300165T 280180230000001544772 29577050000618041   788888888888889918012017000000000007500001000000888888888888899          0900000000000000000000000000000000000000000000000000000   000000000000000000000005002        170192957705     
0010001300166U 280000000000000000000000000000000000000000000000000000000000000000000000000000000000000000000000000000000000000000000000001702201700000000            000000000000000                              000                           
0010001300167T 280180230000001544772 29577050000625920   788888888888889918012017000000000007500001000000888888888888899          0900000000000000000000000000000000000000000000000000000   000000000000000000000005002        170192957705     
0010001300168U 280000000000000000000000000000000000000000000000000000000000000000000000000000000000000000000000000000000000000000000000001702201700000000            000000000000000                              000                           
0010001300169T 280180230000001544772 29577050000630869   788888888888889918012017000000000007500001000000888888888888899          0900000000000000000000000000000000000000000000000000000   000000000000000000000005002        170192957705     
0010001300170U 280000000000000000000000000000000000000000000000000000000000000000000000000000000000000000000000000000000000000000000000001702201700000000            000000000000000                              000                           
0010001300171T 280180230000001544772 29577050000637761   788888888888889918012017000000000007500001000000888888888888899          0900000000000000000000000000000000000000000000000000000   000000000000000000000005002        170192957705     
0010001300172U 280000000000000000000000000000000000000000000000000000000000000000000000000000000000000000000000000000000000000000000000001702201700000000            000000000000000                              000                           
0010001300173T 280180230000001544772 29577050000643844   788888888888889918012017000000000007500001000000888888888888899          0900000000000000000000000000000000000000000000000000000   000000000000000000000005002        170192957705     
0010001300174U 280000000000000000000000000000000000000000000000000000000000000000000000000000000000000000000000000000000000000000000000001702201700000000            000000000000000                              000                           
0010001300175T 280180230000001544772 29577050000645339   788888888888889918012017000000000007500001000000888888888888899          0900000000000000000000000000000000000000000000000000000   000000000000000000000005002        170192957705     
0010001300176U 280000000000000000000000000000000000000000000000000000000000000000000000000000000000000000000000000000000000000000000000001702201700000000            000000000000000                              000                           
0010001300177T 280180230000001544772 29577050000656041   788888888888889918012017000000000007500001000000888888888888899          0900000000000000000000000000000000000000000000000000000   000000000000000000000005002        170192957705     
0010001300178U 280000000000000000000000000000000000000000000000000000000000000000000000000000000000000000000000000000000000000000000000001702201700000000            000000000000000                              000                           
0010001300179T 280180230000001544772 29577050005252419   788888888888889918012017000000000007500001000000888888888888899          0900000000000000000000000000000000000000000000000000000   000000000000000000000005002        170192957705     
0010001300180U 280000000000000000000000000000000000000000000000000000000000000000000000000000000000000000000000000000000000000000000000001702201700000000            000000000000000                              000                           
0010001300181T 280180230000001544772 29577050007901095   788888888888889918012017000000000007500001000000888888888888899          0900000000000000000000000000000000000000000000000000000   000000000000000000000005002        170192957705     
0010001300182U 280000000000000000000000000000000000000000000000000000000000000000000000000000000000000000000000000000000000000000000000001702201700000000            000000000000000                              000                           
0010001300183T 280180230000001544772 29577050008409665   788888888888889918012017000000000007500001000000888888888888899          0900000000000000000000000000000000000000000000000000000   000000000000000000000005002        170192957705     
0010001300184U 280000000000000000000000000000000000000000000000000000000000000000000000000000000000000000000000000000000000000000000000001702201700000000            000000000000000                              000                           
0010001300185T 280180230000001544772 29577050009600587   788888888888889918012017000000000007500001000000888888888888899          0900000000000000000000000000000000000000000000000000000   000000000000000000000005002        170192957705     
0010001300186U 280000000000000000000000000000000000000000000000000000000000000000000000000000000000000000000000000000000000000000000000001702201700000000            000000000000000                              000                           
0010001300187T 280180230000001544772 29577050009614240   788888888888889918012017000000000007500001000000888888888888899          0900000000000000000000000000000000000000000000000000000   000000000000000000000005002        170192957705     
0010001300188U 280000000000000000000000000000000000000000000000000000000000000000000000000000000000000000000000000000000000000000000000001702201700000000            000000000000000                              000                           
0010001300189T 280180230000001544772 29577050009638810   788888888888889918012017000000000007500001000000888888888888899          0900000000000000000000000000000000000000000000000000000   000000000000000000000005002        170192957705     
0010001300190U 280000000000000000000000000000000000000000000000000000000000000000000000000000000000000000000000000000000000000000000000001702201700000000            000000000000000                              000                           
0010001300191T 280180230000001544772 29577050009641642   788888888888889918012017000000000007500001000000888888888888899          0900000000000000000000000000000000000000000000000000000   000000000000000000000005002        170192957705     
0010001300192U 280000000000000000000000000000000000000000000000000000000000000000000000000000000000000000000000000000000000000000000000001702201700000000            000000000000000                              000                           
0010001300193T 280180230000001544772 29577050009829728   788888888888889918012017000000000007500001000000888888888888899          0900000000000000000000000000000000000000000000000000000   000000000000000000000005002        170192957705     
0010001300194U 280000000000000000000000000000000000000000000000000000000000000000000000000000000000000000000000000000000000000000000000001702201700000000            000000000000000                              000                           
0010001300195T 280180230000001544772 29577050009920084   788888888888889918012017000000000007500001000000888888888888899          0900000000000000000000000000000000000000000000000000000   000000000000000000000005002        170192957705     
0010001300196U 280000000000000000000000000000000000000000000000000000000000000000000000000000000000000000000000000000000000000000000000001702201700000000            000000000000000                              000                           
0010001300197T 280180230000001544772 29577050010036309   788888888888889918012017000000000007500001000000888888888888899          0900000000000000000000000000000000000000000000000000000   000000000000000000000005002        170192957705     
0010001300198U 280000000000000000000000000000000000000000000000000000000000000000000000000000000000000000000000000000000000000000000000001702201700000000            000000000000000                              000                           
0010001300199T 280180230000001544772 29577050010855815   788888888888889918012017000000000007500001000000888888888888899          0900000000000000000000000000000000000000000000000000000   000000000000000000000005002        170192957705     
0010001300200U 280000000000000000000000000000000000000000000000000000000000000000000000000000000000000000000000000000000000000000000000001702201700000000            000000000000000                              000                           
0010001300201T 280180230000001544772 29577050011149905   788888888888889918012017000000000007500001000000888888888888899          0900000000000000000000000000000000000000000000000000000   000000000000000000000005002        170192957705     
0010001300202U 280000000000000000000000000000000000000000000000000000000000000000000000000000000000000000000000000000000000000000000000001702201700000000            000000000000000                              000                           
0010001300203T 280180230000001544772 29577050011339971   788888888888889918012017000000000007500001000000888888888888899          0900000000000000000000000000000000000000000000000000000   000000000000000000000005002        170192957705     
0010001300204U 280000000000000000000000000000000000000000000000000000000000000000000000000000000000000000000000000000000000000000000000001702201700000000            000000000000000                              000                           
0010001300205T 280180230000001544772 29577050011501042   788888888888889918012017000000000007500001000000888888888888899          0900000000000000000000000000000000000000000000000000000   000000000000000000000005002        170192957705     
0010001300206U 280000000000000000000000000000000000000000000000000000000000000000000000000000000000000000000000000000000000000000000000001702201700000000            000000000000000                              000                           
0010001300207T 280180230000001544772 29577050011711483   788888888888889918012017000000000007500001000000888888888888899          0900000000000000000000000000000000000000000000000000000   000000000000000000000005002        170192957705     
0010001300208U 280000000000000000000000000000000000000000000000000000000000000000000000000000000000000000000000000000000000000000000000001702201700000000            000000000000000                              000                           
0010001300209T 280180230000001544772 29577050012952921   788888888888889918012017000000000007500001000000888888888888899          0900000000000000000000000000000000000000000000000000000   000000000000000000000005002        170192957705     
0010001300210U 280000000000000000000000000000000000000000000000000000000000000000000000000000000000000000000000000000000000000000000000001702201700000000            000000000000000                              000                           
0010001300211T 280180230000001544772 29577050013116288   788888888888889918012017000000000007500001000000888888888888899          0900000000000000000000000000000000000000000000000000000   000000000000000000000005002        170192957705     
0010001300212U 280000000000000000000000000000000000000000000000000000000000000000000000000000000000000000000000000000000000000000000000001702201700000000            000000000000000                              000                           
0010001300213T 280180230000001544772 29577050013551374   788888888888889918012017000000000007500001000000888888888888899          0900000000000000000000000000000000000000000000000000000   000000000000000000000005002        170192957705     
0010001300214U 280000000000000000000000000000000000000000000000000000000000000000000000000000000000000000000000000000000000000000000000001702201700000000            000000000000000                              000                           
0010001300215T 280180230000001544772 29577050013643405   788888888888889918012017000000000007500001000000888888888888899          0900000000000000000000000000000000000000000000000000000   000000000000000000000005002        170192957705     
0010001300216U 280000000000000000000000000000000000000000000000000000000000000000000000000000000000000000000000000000000000000000000000001702201700000000            000000000000000                              000                           
0010001300217T 280180230000001544772 29577050013805488   788888888888889918012017000000000007500001000000888888888888899          0900000000000000000000000000000000000000000000000000000   000000000000000000000005002        170192957705     
0010001300218U 280000000000000000000000000000000000000000000000000000000000000000000000000000000000000000000000000000000000000000000000001702201700000000            000000000000000                              000                           
0010001300219T 280180230000001544772 29577050014018957   788888888888889918012017000000000007500001000000888888888888899          0900000000000000000000000000000000000000000000000000000   000000000000000000000005002        170192957705     
0010001300220U 280000000000000000000000000000000000000000000000000000000000000000000000000000000000000000000000000000000000000000000000001702201700000000            000000000000000                              000                           
0010001300221T 280180230000001544772 29577050014118868   788888888888889918012017000000000007500001000000888888888888899          0900000000000000000000000000000000000000000000000000000   000000000000000000000005002        170192957705     
0010001300222U 280000000000000000000000000000000000000000000000000000000000000000000000000000000000000000000000000000000000000000000000001702201700000000            000000000000000                              000                           
0010001300223T 280180230000001544772 29577050014209622   788888888888889918012017000000000007500001000000888888888888899          0900000000000000000000000000000000000000000000000000000   000000000000000000000005002        170192957705     
0010001300224U 280000000000000000000000000000000000000000000000000000000000000000000000000000000000000000000000000000000000000000000000001702201700000000            000000000000000                              000                           
0010001300225T 280180230000001544772 29577050014401274   7               18012017000000000007500001000000                         0900000000000000000000000000000000000000000000000000000   000000000000000000000005002        170192957705     
0010001300226U 280000000000000000000000000000000000000000000000000000000000000000000000000000000000000000000000000000000000000000000000001702201700000000            000000000000000                              000                           
0010001300227T 280180230000001544772 29577050014529921   788888888888889918012017000000000007500001000000888888888888899          0900000000000000000000000000000000000000000000000000000   000000000000000000000005002        170192957705     
0010001300228U 280000000000000000000000000000000000000000000000000000000000000000000000000000000000000000000000000000000000000000000000001702201700000000            000000000000000                              000                           
0010001300229T 280180230000001544772 29577050014858648   788888888888889918012017000000000007500001000000888888888888899          0900000000000000000000000000000000000000000000000000000   000000000000000000000005002        170192957705     
0010001300230U 280000000000000000000000000000000000000000000000000000000000000000000000000000000000000000000000000000000000000000000000001702201700000000            000000000000000                              000                           
0010001300231T 280180230000001544772 29577050014920598   788888888888889918012017000000000007500001000000888888888888899          0900000000000000000000000000000000000000000000000000000   000000000000000000000005002        170192957705     
0010001300232U 280000000000000000000000000000000000000000000000000000000000000000000000000000000000000000000000000000000000000000000000001702201700000000            000000000000000                              000                           
0010001300233T 280180230000001544772 29577050015053658   788888888888889918012017000000000007500001000000888888888888899          0900000000000000000000000000000000000000000000000000000   000000000000000000000005002        170192957705     
0010001300234U 280000000000000000000000000000000000000000000000000000000000000000000000000000000000000000000000000000000000000000000000001702201700000000            000000000000000                              000                           
0010001300235T 280180230000001544772 29577050015117540   788888888888889918012017000000000007500001000000888888888888899          0900000000000000000000000000000000000000000000000000000   000000000000000000000005002        170192957705     
0010001300236U 280000000000000000000000000000000000000000000000000000000000000000000000000000000000000000000000000000000000000000000000001702201700000000            000000000000000                              000                           
0010001300237T 280180230000001544772 29577050015617438   788888888888889918012017000000000007500001000000888888888888899          0900000000000000000000000000000000000000000000000000000   000000000000000000000005002        170192957705     
0010001300238U 280000000000000000000000000000000000000000000000000000000000000000000000000000000000000000000000000000000000000000000000001702201700000000            000000000000000                              000                           
0010001300239T 280180230000001544772 29577050015851022   788888888888889918012017000000000007500001000000888888888888899          0900000000000000000000000000000000000000000000000000000   000000000000000000000005002        170192957705     
0010001300240U 280000000000000000000000000000000000000000000000000000000000000000000000000000000000000000000000000000000000000000000000001702201700000000            000000000000000                              000                           
0010001300241T 280180230000001544772 29577050016223951   788888888888889918012017000000000007500001000000888888888888899          0900000000000000000000000000000000000000000000000000000   000000000000000000000005002        170192957705     
0010001300242U 280000000000000000000000000000000000000000000000000000000000000000000000000000000000000000000000000000000000000000000000001702201700000000            000000000000000                              000                           
0010001300243T 280180230000001544772 29577050017115646   788888888888889918012017000000000007500001000000888888888888899          0900000000000000000000000000000000000000000000000000000   000000000000000000000005002        170192957705     
0010001300244U 280000000000000000000000000000000000000000000000000000000000000000000000000000000000000000000000000000000000000000000000001702201700000000            000000000000000                              000                           
0010001300245T 280180230000001544772 29577050017334724   788888888888889918012017000000000007500001000000888888888888899          0900000000000000000000000000000000000000000000000000000   000000000000000000000005002        170192957705     
0010001300246U 280000000000000000000000000000000000000000000000000000000000000000000000000000000000000000000000000000000000000000000000001702201700000000            000000000000000                              000                           
0010001300247T 280180230000001544772 29577050017521440   788888888888889918012017000000000007500001000000888888888888899          0900000000000000000000000000000000000000000000000000000   000000000000000000000005002        170192957705     
0010001300248U 280000000000000000000000000000000000000000000000000000000000000000000000000000000000000000000000000000000000000000000000001702201700000000            000000000000000                              000                           
0010001300249T 280180230000001544772 29577050017716640   788888888888889918012017000000000007500001000000888888888888899          0900000000000000000000000000000000000000000000000000000   000000000000000000000005002        170192957705     
0010001300250U 280000000000000000000000000000000000000000000000000000000000000000000000000000000000000000000000000000000000000000000000001702201700000000            000000000000000                              000                           
0010001300251T 280180230000001544772 29577050017910190   788888888888889918012017000000000007500001000000888888888888899          0900000000000000000000000000000000000000000000000000000   000000000000000000000005002        170192957705     
0010001300252U 280000000000000000000000000000000000000000000000000000000000000000000000000000000000000000000000000000000000000000000000001702201700000000            000000000000000                              000                           
0010001300253T 280180230000001544772 29577050018046281   788888888888889918012017000000000007500001000000888888888888899          0900000000000000000000000000000000000000000000000000000   000000000000000000000005002        170192957705     
0010001300254U 280000000000000000000000000000000000000000000000000000000000000000000000000000000000000000000000000000000000000000000000001702201700000000            000000000000000                              000                           
0010001300255T 280180230000001544772 29577050018111959   788888888888889918012017000000000007500001000000888888888888899          0900000000000000000000000000000000000000000000000000000   000000000000000000000005002        170192957705     
0010001300256U 280000000000000000000000000000000000000000000000000000000000000000000000000000000000000000000000000000000000000000000000001702201700000000            000000000000000                              000                           
0010001300257T 280180230000001544772 29577050018130301   788888888888889918012017000000000007500001000000888888888888899          0900000000000000000000000000000000000000000000000000000   000000000000000000000005002        170192957705     
0010001300258U 280000000000000000000000000000000000000000000000000000000000000000000000000000000000000000000000000000000000000000000000001702201700000000            000000000000000                              000                           
0010001300259T 280180230000001544772 29577050018404126   788888888888889918012017000000000007500001000000888888888888899          0900000000000000000000000000000000000000000000000000000   000000000000000000000005002        170192957705     
0010001300260U 280000000000000000000000000000000000000000000000000000000000000000000000000000000000000000000000000000000000000000000000001702201700000000            000000000000000                              000                           
0010001300261T 280180230000001544772 29577050018748848   788888888888889918012017000000000007500001000000888888888888899          0900000000000000000000000000000000000000000000000000000   000000000000000000000005002        170192957705     
0010001300262U 280000000000000000000000000000000000000000000000000000000000000000000000000000000000000000000000000000000000000000000000001702201700000000            000000000000000                              000                           
0010001300263T 280180230000001544772 29577050022250462   7               18012017000000000007500001000000                         0900000000000000000000000000000000000000000000000000000   000000000000000000000005002        170192957705     
0010001300264U 280000000000000000000000000000000000000000000000000000000000000000000000000000000000000000000000000000000000000000000000001702201700000000            000000000000000                              000                           
0010001300265T 280180230000001544772 29577050027645387   788888888888889918012017000000000007500001000000888888888888899          0900000000000000000000000000000000000000000000000000000   000000000000000000000005002        170192957705     
0010001300266U 280000000000000000000000000000000000000000000000000000000000000000000000000000000000000000000000000000000000000000000000001702201700000000            000000000000000                              000                           
0010001300267T 280180230000001544772 29577050041951418   788888888888889918012017000000000010000001000000888888888888899          0900000000000000000000000000000000000000000000000000000   000000000000000000000005002        170192957705     
0010001300268U 280000000000000000000000000000000000000000000000000000000000000000000000000000000000000000000000000000000000000000000000001702201700000000            000000000000000                              000                           
0010001300269T 280180230000001544772 29577050050701670   7               18012017000000000007500001000000                         0900000000000000000000000000000000000000000000000000000   000000000000000000000005002        170192957705     
0010001300270U 280000000000000000000000000000000000000000000000000000000000000000000000000000000000000000000000000000000000000000000000001702201700000000            000000000000000                              000                           
0010001300271T 280180230000001544772 29577050054424780   788888888888889918012017000000000007500001000000888888888888899          0900000000000000000000000000000000000000000000000000000   000000000000000000000005002        170192957705     
0010001300272U 280000000000000000000000000000000000000000000000000000000000000000000000000000000000000000000000000000000000000000000000001702201700000000            000000000000000                              000                           
0010001300273T 280180230000001544772 29577050062224734   7               18012017000000000007500001000000                         0900000000000000000000000000000000000000000000000000000   000000000000000000000005002        170192957705     
0010001300274U 280000000000000000000000000000000000000000000000000000000000000000000000000000000000000000000000000000000000000000000000001702201700000000            000000000000000                              000                           
0010001300275T 280180230000001544772 29577050074945725   788888888888889918012017000000000007500001000000888888888888899          0900000000000000000000000000000000000000000000000000000   000000000000000000000005002        170192957705     
0010001300276U 280000000000000000000000000000000000000000000000000000000000000000000000000000000000000000000000000000000000000000000000001702201700000000            000000000000000                              000                           
0010001300277T 280180230000001544772 29577050116119665   788888888888889918012017000000000007500001000000888888888888899          0900000000000000000000000000000000000000000000000000000   000000000000000000000005002        170192957705     
0010001300278U 280000000000000000000000000000000000000000000000000000000000000000000000000000000000000000000000000000000000000000000000001702201700000000            000000000000000                              000                           
0010001300279T 280180230000001544772 29577050129409468   788888888888889918012017000000000010000001000000888888888888899          0900000000000000000000000000000000000000000000000000000   000000000000000000000005002        170192957705     
0010001300280U 280000000000000000000000000000000000000000000000000000000000000000000000000000000000000000000000000000000000000000000000001702201700000000            000000000000000                              000                           
0010001300281T 280180230000001544772 29577050130756264   788888888888889918012017000000000007500001000000888888888888899          0900000000000000000000000000000000000000000000000000000   000000000000000000000005002        170192957705     
0010001300282U 280000000000000000000000000000000000000000000000000000000000000000000000000000000000000000000000000000000000000000000000001702201700000000            000000000000000                              000                           
0010001300283T 280180230000001544772 29577050131017788   788888888888889918012017000000000007500001000000888888888888899          0900000000000000000000000000000000000000000000000000000   000000000000000000000005002        170192957705     
0010001300284U 280000000000000000000000000000000000000000000000000000000000000000000000000000000000000000000000000000000000000000000000001702201700000000            000000000000000                              000                           
0010001300285T 280180230000001544772 29577050138348494   788888888888889918012017000000000007500001000000888888888888899          0900000000000000000000000000000000000000000000000000000   000000000000000000000005002        170192957705     
0010001300286U 280000000000000000000000000000000000000000000000000000000000000000000000000000000000000000000000000000000000000000000000001702201700000000            000000000000000                              000                           
0010001300287T 280180230000001544772 29577050150453411   788888888888889918012017000000000007500001000000888888888888899          0900000000000000000000000000000000000000000000000000000   000000000000000000000005002        170192957705     
0010001300288U 280000000000000000000000000000000000000000000000000000000000000000000000000000000000000000000000000000000000000000000000001702201700000000            000000000000000                              000                           
0010001300289T 280180230000001544772 29577050151445977   788888888888889918012017000000000007500001000000888888888888899          0900000000000000000000000000000000000000000000000000000   000000000000000000000005002        170192957705     
0010001300290U 280000000000000000000000000000000000000000000000000000000000000000000000000000000000000000000000000000000000000000000000001702201700000000            000000000000000                              000                           
0010001300291T 280180230000001544772 29577050166514819   788888888888889918012017000000000007500001000000888888888888899          0900000000000000000000000000000000000000000000000000000   000000000000000000000005002        170192957705     
0010001300292U 280000000000000000000000000000000000000000000000000000000000000000000000000000000000000000000000000000000000000000000000001702201700000000            000000000000000                              000                           
0010001300293T 280180230000001544772 29577050174528281   788888888888889918012017000000000007500001000000888888888888899          0900000000000000000000000000000000000000000000000000000   000000000000000000000005002        170192957705     
0010001300294U 280000000000000000000000000000000000000000000000000000000000000000000000000000000000000000000000000000000000000000000000001702201700000000            000000000000000                              000                           
0010001300295T 280180230000001544772 29577050174530031   788888888888889918012017000000000007500001000000888888888888899          0900000000000000000000000000000000000000000000000000000   000000000000000000000005002        170192957705     
0010001300296U 280000000000000000000000000000000000000000000000000000000000000000000000000000000000000000000000000000000000000000000000001702201700000000            000000000000000                              000                           
0010001300297T 280180230000001544772 29577050174549847   788888888888889918012017000000000007500001000000888888888888899          0900000000000000000000000000000000000000000000000000000   000000000000000000000005002        170192957705     
0010001300298U 280000000000000000000000000000000000000000000000000000000000000000000000000000000000000000000000000000000000000000000000001702201700000000            000000000000000                              000                           
0010001300299T 280180230000001544772 29577050174552516   788888888888889918012017000000000007500001000000888888888888899          0900000000000000000000000000000000000000000000000000000   000000000000000000000005002        170192957705     
0010001300300U 280000000000000000000000000000000000000000000000000000000000000000000000000000000000000000000000000000000000000000000000001702201700000000            000000000000000                              000                           
0010001300301T 280180230000001544772 29577050188605728   788888888888889918012017000000000007500001000000888888888888899          0900000000000000000000000000000000000000000000000000000   000000000000000000000005002        170192957705     
0010001300302U 280000000000000000000000000000000000000000000000000000000000000000000000000000000000000000000000000000000000000000000000001702201700000000            000000000000000                              000                           
0010001300303T 280180230000001544772 29577050190951405   788888888888889918012017000000000007500001000000888888888888899          0900000000000000000000000000000000000000000000000000000   000000000000000000000005002        170192957705     
0010001300304U 280000000000000000000000000000000000000000000000000000000000000000000000000000000000000000000000000000000000000000000000001702201700000000            000000000000000                              000                           
0010001300305T 280180230000001544772 29577050201900111   788888888888889918012017000000000007500001000000888888888888899          0900000000000000000000000000000000000000000000000000000   000000000000000000000005002        170192957705     
0010001300306U 280000000000000000000000000000000000000000000000000000000000000000000000000000000000000000000000000000000000000000000000001702201700000000            000000000000000                              000                           
0010001300307T 280180230000001544772 29577050201940392   788888888888889918012017000000000007500001000000888888888888899          0900000000000000000000000000000000000000000000000000000   000000000000000000000005002        170192957705     
0010001300308U 280000000000000000000000000000000000000000000000000000000000000000000000000000000000000000000000000000000000000000000000001702201700000000            000000000000000                              000                           
0010001300309T 280180230000001544772 29577050207313839   788888888888889918012017000000000007500001000000888888888888899          0900000000000000000000000000000000000000000000000000000   000000000000000000000005002        170192957705     
0010001300310U 280000000000000000000000000000000000000000000000000000000000000000000000000000000000000000000000000000000000000000000000001702201700000000            000000000000000                              000                           
0010001300311T 280180230000001544772 29577050214207424   788888888888889918012017000000000007500001000000888888888888899          0900000000000000000000000000000000000000000000000000000   000000000000000000000005002        170192957705     
0010001300312U 280000000000000000000000000000000000000000000000000000000000000000000000000000000000000000000000000000000000000000000000001702201700000000            000000000000000                              000                           
0010001300313T 280180230000001544772 29577050225018469   788888888888889918012017000000000007500001000000888888888888899          0900000000000000000000000000000000000000000000000000000   000000000000000000000005002        170192957705     
0010001300314U 280000000000000000000000000000000000000000000000000000000000000000000000000000000000000000000000000000000000000000000000001702201700000000            000000000000000                              000                           
0010001300315T 280180230000001544772 29577050225432909   788888888888889918012017000000000010000001000000888888888888899          0900000000000000000000000000000000000000000000000000000   000000000000000000000005002        170192957705     
0010001300316U 280000000000000000000000000000000000000000000000000000000000000000000000000000000000000000000000000000000000000000000000001702201700000000            000000000000000                              000                           
0010001300317T 280180230000001544772 29577050226452645   788888888888889918012017000000000007500001000000888888888888899          0900000000000000000000000000000000000000000000000000000   000000000000000000000005002        170192957705     
0010001300318U 280000000000000000000000000000000000000000000000000000000000000000000000000000000000000000000000000000000000000000000000001702201700000000            000000000000000                              000                           
0010001300319T 280180230000001544772 29577050227612348   788888888888889918012017000000000007500001000000888888888888899          0900000000000000000000000000000000000000000000000000000   000000000000000000000005002        170192957705     
0010001300320U 280000000000000000000000000000000000000000000000000000000000000000000000000000000000000000000000000000000000000000000000001702201700000000            000000000000000                              000                           
0010001300321T 280180230000001544772 29577050228816903   788888888888889918012017000000000007500001000000888888888888899          0900000000000000000000000000000000000000000000000000000   000000000000000000000005002        170192957705     
0010001300322U 280000000000000000000000000000000000000000000000000000000000000000000000000000000000000000000000000000000000000000000000001702201700000000            000000000000000                              000                           
0010001300323T 280180230000001544772 29577050233507620   788888888888889918012017000000000007500001000000888888888888899          0900000000000000000000000000000000000000000000000000000   000000000000000000000005002        170192957705     
0010001300324U 280000000000000000000000000000000000000000000000000000000000000000000000000000000000000000000000000000000000000000000000001702201700000000            000000000000000                              000                           
0010001300325T 280180230000001544772 29577050234931351   788888888888889918012017000000000007500001000000888888888888899          0900000000000000000000000000000000000000000000000000000   000000000000000000000005002        170192957705     
0010001300326U 280000000000000000000000000000000000000000000000000000000000000000000000000000000000000000000000000000000000000000000000001702201700000000            000000000000000                              000                           
0010001300327T 280180230000001544772 29577050234931781   788888888888889918012017000000000007500001000000888888888888899          0900000000000000000000000000000000000000000000000000000   000000000000000000000005002        170192957705     
0010001300328U 280000000000000000000000000000000000000000000000000000000000000000000000000000000000000000000000000000000000000000000000001702201700000000            000000000000000                              000                           
0010001300329T 280180230000001544772 29577050234932451   788888888888889918012017000000000007500001000000888888888888899          0900000000000000000000000000000000000000000000000000000   000000000000000000000005002        170192957705     
0010001300330U 280000000000000000000000000000000000000000000000000000000000000000000000000000000000000000000000000000000000000000000000001702201700000000            000000000000000                              000                           
0010001300331T 280180230000001544772 29577050237108502   788888888888889918012017000000000007500001000000888888888888899          0900000000000000000000000000000000000000000000000000000   000000000000000000000005002        170192957705     
0010001300332U 280000000000000000000000000000000000000000000000000000000000000000000000000000000000000000000000000000000000000000000000001702201700000000            000000000000000                              000                           
0010001300333T 280180230000001544772 29577050237738761   788888888888889918012017000000000007500001000000888888888888899          0900000000000000000000000000000000000000000000000000000   000000000000000000000005002        170192957705     
0010001300334U 280000000000000000000000000000000000000000000000000000000000000000000000000000000000000000000000000000000000000000000000001702201700000000            000000000000000                              000                           
0010001300335T 280180230000001544772 29577050237758021   788888888888889918012017000000000007500001000000888888888888899          0900000000000000000000000000000000000000000000000000000   000000000000000000000005002        170192957705     
0010001300336U 280000000000000000000000000000000000000000000000000000000000000000000000000000000000000000000000000000000000000000000000001702201700000000            000000000000000                              000                           
0010001300337T 280180230000001544772 29577050238911939   788888888888889918012017000000000007500001000000888888888888899          0900000000000000000000000000000000000000000000000000000   000000000000000000000005002        170192957705     
0010001300338U 280000000000000000000000000000000000000000000000000000000000000000000000000000000000000000000000000000000000000000000000001702201700000000            000000000000000                              000                           
0010001300339T 280180230000001544772 29577050242705707   788888888888889918012017000000000007500001000000888888888888899          0900000000000000000000000000000000000000000000000000000   000000000000000000000005002        170192957705     
0010001300340U 280000000000000000000000000000000000000000000000000000000000000000000000000000000000000000000000000000000000000000000000001702201700000000            000000000000000                              000                           
0010001300341T 280180230000001544772 29577050242740414   788888888888889918012017000000000007500001000000888888888888899          0900000000000000000000000000000000000000000000000000000   000000000000000000000005002        170192957705     
0010001300342U 280000000000000000000000000000000000000000000000000000000000000000000000000000000000000000000000000000000000000000000000001702201700000000            000000000000000                              000                           
0010001300343T 280180230000001544772 29577050242757968   788888888888889918012017000000000007500001000000888888888888899          0900000000000000000000000000000000000000000000000000000   000000000000000000000005002        170192957705     
0010001300344U 280000000000000000000000000000000000000000000000000000000000000000000000000000000000000000000000000000000000000000000000001702201700000000            000000000000000                              000                           
0010001300345T 280180230000001544772 29577050247924915   788888888888889918012017000000000010000001000000888888888888899          0900000000000000000000000000000000000000000000000000000   000000000000000000000005002        170192957705     
0010001300346U 280000000000000000000000000000000000000000000000000000000000000000000000000000000000000000000000000000000000000000000000001702201700000000            000000000000000                              000                           
0010001300347T 280180230000001544772 29577050248038553   788888888888889918012017000000000007500001000000888888888888899          0900000000000000000000000000000000000000000000000000000   000000000000000000000005002        170192957705     
0010001300348U 280000000000000000000000000000000000000000000000000000000000000000000000000000000000000000000000000000000000000000000000001702201700000000            000000000000000                              000                           
0010001300349T 280180230000001544772 29577050248038779   788888888888889918012017000000000007500001000000888888888888899          0900000000000000000000000000000000000000000000000000000   000000000000000000000005002        170192957705     
0010001300350U 280000000000000000000000000000000000000000000000000000000000000000000000000000000000000000000000000000000000000000000000001702201700000000            000000000000000                              000                           
0010001300351T 280180230000001544772 29577050248129461   788888888888889918012017000000000007500001000000888888888888899          0900000000000000000000000000000000000000000000000000000   000000000000000000000005002        170192957705     
0010001300352U 280000000000000000000000000000000000000000000000000000000000000000000000000000000000000000000000000000000000000000000000001702201700000000            000000000000000                              000                           
0010001300353T 280180230000001544772 29577050248353734   788888888888889918012017000000000007500001000000888888888888899          0900000000000000000000000000000000000000000000000000000   000000000000000000000005002        170192957705     
0010001300354U 280000000000000000000000000000000000000000000000000000000000000000000000000000000000000000000000000000000000000000000000001702201700000000            000000000000000                              000                           
0010001300355T 280180230000001544772 29577050248441824   788888888888889918012017000000000007500001000000888888888888899          0900000000000000000000000000000000000000000000000000000   000000000000000000000005002        170192957705     
0010001300356U 280000000000000000000000000000000000000000000000000000000000000000000000000000000000000000000000000000000000000000000000001702201700000000            000000000000000                              000                           
0010001300357T 280180230000001544772 29577050248613907   788888888888889918012017000000000007500001000000888888888888899          0900000000000000000000000000000000000000000000000000000   000000000000000000000005002        170192957705     
0010001300358U 280000000000000000000000000000000000000000000000000000000000000000000000000000000000000000000000000000000000000000000000001702201700000000            000000000000000                              000                           
0010001300359T 280180230000001544772 29577050248951586   788888888888889918012017000000000007500001000000888888888888899          0900000000000000000000000000000000000000000000000000000   000000000000000000000005002        170192957705     
0010001300360U 280000000000000000000000000000000000000000000000000000000000000000000000000000000000000000000000000000000000000000000000001702201700000000            000000000000000                              000                           
0010001300361T 280180230000001544772 29577050249056336   788888888888889918012017000000000007500001000000888888888888899          0900000000000000000000000000000000000000000000000000000   000000000000000000000005002        170192957705     
0010001300362U 280000000000000000000000000000000000000000000000000000000000000000000000000000000000000000000000000000000000000000000000001702201700000000            000000000000000                              000                           
0010001300363T 280180230000001544772 29577050249056423   788888888888889918012017000000000007500001000000888888888888899          0900000000000000000000000000000000000000000000000000000   000000000000000000000005002        170192957705     
0010001300364U 280000000000000000000000000000000000000000000000000000000000000000000000000000000000000000000000000000000000000000000000001702201700000000            000000000000000                              000                           
0010001300365T 280180230000001544772 29577050249056552   788888888888889918012017000000000007500001000000888888888888899          0900000000000000000000000000000000000000000000000000000   000000000000000000000005002        170192957705     
0010001300366U 280000000000000000000000000000000000000000000000000000000000000000000000000000000000000000000000000000000000000000000000001702201700000000            000000000000000                              000                           
0010001300367T 280180230000001544772 29577050249105290   788888888888889918012017000000000010000001000000888888888888899          0900000000000000000000000000000000000000000000000000000   000000000000000000000005002        170192957705     
0010001300368U 280000000000000000000000000000000000000000000000000000000000000000000000000000000000000000000000000000000000000000000000001702201700000000            000000000000000                              000                           
0010001300369T 280180230000001544772 29577050249242464   788888888888889918012017000000000007500001000000888888888888899          0900000000000000000000000000000000000000000000000000000   000000000000000000000005002        170192957705     
0010001300370U 280000000000000000000000000000000000000000000000000000000000000000000000000000000000000000000000000000000000000000000000001702201700000000            000000000000000                              000                           
0010001300371T 280180230000001544772 29577050249338050   788888888888889918012017000000000007500001000000888888888888899          0900000000000000000000000000000000000000000000000000000   000000000000000000000005002        170192957705     
0010001300372U 280000000000000000000000000000000000000000000000000000000000000000000000000000000000000000000000000000000000000000000000001702201700000000            000000000000000                              000                           
0010001300373T 280180230000001544772 29577050249403817   788888888888889918012017000000000007500001000000888888888888899          0900000000000000000000000000000000000000000000000000000   000000000000000000000005002        170192957705     
0010001300374U 280000000000000000000000000000000000000000000000000000000000000000000000000000000000000000000000000000000000000000000000001702201700000000            000000000000000                              000                           
0010001300375T 280180230000001544772 29577050249717070   788888888888889918012017000000000007500001000000888888888888899          0900000000000000000000000000000000000000000000000000000   000000000000000000000005002        170192957705     
0010001300376U 280000000000000000000000000000000000000000000000000000000000000000000000000000000000000000000000000000000000000000000000001702201700000000            000000000000000                              000                           
0010001300377T 280180230000001544772 29577050249818660   788888888888889918012017000000000007500001000000888888888888899          0900000000000000000000000000000000000000000000000000000   000000000000000000000005002        170192957705     
0010001300378U 280000000000000000000000000000000000000000000000000000000000000000000000000000000000000000000000000000000000000000000000001702201700000000            000000000000000                              000                           
0010001300379T 280180230000001544772 29577050249955062   788888888888889918012017000000000007500001000000888888888888899          0900000000000000000000000000000000000000000000000000000   000000000000000000000005002        170192957705     
0010001300380U 280000000000000000000000000000000000000000000000000000000000000000000000000000000000000000000000000000000000000000000000001702201700000000            000000000000000                              000                           
0010001300381T 280180230000001544772 29577050250057040   788888888888889918012017000000000007500001000000888888888888899          0900000000000000000000000000000000000000000000000000000   000000000000000000000005002        170192957705     
0010001300382U 280000000000000000000000000000000000000000000000000000000000000000000000000000000000000000000000000000000000000000000000001702201700000000            000000000000000                              000                           
0010001300383T 280180230000001544772 29577050250135649   788888888888889918012017000000000007500001000000888888888888899          0900000000000000000000000000000000000000000000000000000   000000000000000000000005002        170192957705     
0010001300384U 280000000000000000000000000000000000000000000000000000000000000000000000000000000000000000000000000000000000000000000000001702201700000000            000000000000000                              000                           
0010001300385T 280180230000001544772 29577050250230482   788888888888889918012017000000000007500001000000888888888888899          0900000000000000000000000000000000000000000000000000000   000000000000000000000005002        170192957705     
0010001300386U 280000000000000000000000000000000000000000000000000000000000000000000000000000000000000000000000000000000000000000000000001702201700000000            000000000000000                              000                           
0010001300387T 280180230000001544772 29577050250325675   788888888888889918012017000000000007500001000000888888888888899          0900000000000000000000000000000000000000000000000000000   000000000000000000000005002        170192957705     
0010001300388U 280000000000000000000000000000000000000000000000000000000000000000000000000000000000000000000000000000000000000000000000001702201700000000            000000000000000                              000                           
0010001300389T 280180230000001544772 29577050250429795   788888888888889918012017000000000007500001000000888888888888899          0900000000000000000000000000000000000000000000000000000   000000000000000000000005002        170192957705     
0010001300390U 280000000000000000000000000000000000000000000000000000000000000000000000000000000000000000000000000000000000000000000000001702201700000000            000000000000000                              000                           
0010001300391T 280180230000001544772 29577050250522190   788888888888889918012017000000000007500001000000888888888888899          0900000000000000000000000000000000000000000000000000000   000000000000000000000005002        170192957705     
0010001300392U 280000000000000000000000000000000000000000000000000000000000000000000000000000000000000000000000000000000000000000000000001702201700000000            000000000000000                              000                           
0010001300393T 280180230000001544772 29577050250642136   788888888888889918012017000000000007500001000000888888888888899          0900000000000000000000000000000000000000000000000000000   000000000000000000000005002        170192957705     
0010001300394U 280000000000000000000000000000000000000000000000000000000000000000000000000000000000000000000000000000000000000000000000001702201700000000            000000000000000                              000                           
0010001300395T 280180230000001544772 29577050250706343   788888888888889918012017000000000007500001000000888888888888899          0900000000000000000000000000000000000000000000000000000   000000000000000000000005002        170192957705     
0010001300396U 280000000000000000000000000000000000000000000000000000000000000000000000000000000000000000000000000000000000000000000000001702201700000000            000000000000000                              000                           
0010001300397T 280180230000001544772 29577050250853108   788888888888889918012017000000000007500001000000888888888888899          0900000000000000000000000000000000000000000000000000000   000000000000000000000005002        170192957705     
0010001300398U 280000000000000000000000000000000000000000000000000000000000000000000000000000000000000000000000000000000000000000000000001702201700000000            000000000000000                              000                           
0010001300399T 280180230000001544772 29577050250908178   788888888888889918012017000000000007500001000000888888888888899          0900000000000000000000000000000000000000000000000000000   000000000000000000000005002        170192957705     
0010001300400U 280000000000000000000000000000000000000000000000000000000000000000000000000000000000000000000000000000000000000000000000001702201700000000            000000000000000                              000                           
0010001300401T 280180230000001544772 29577050251059439   788888888888889918012017000000000007500001000000888888888888899          0900000000000000000000000000000000000000000000000000000   000000000000000000000005002        170192957705     
0010001300402U 280000000000000000000000000000000000000000000000000000000000000000000000000000000000000000000000000000000000000000000000001702201700000000            000000000000000                              000                           
0010001300403T 280180230000001544772 29577050251248628   788888888888889918012017000000000007500001000000888888888888899          0900000000000000000000000000000000000000000000000000000   000000000000000000000005002        170192957705     
0010001300404U 280000000000000000000000000000000000000000000000000000000000000000000000000000000000000000000000000000000000000000000000001702201700000000            000000000000000                              000                           
0010001300405T 280180230000001544772 29577050251317825   788888888888889918012017000000000007500001000000888888888888899          0900000000000000000000000000000000000000000000000000000   000000000000000000000005002        170192957705     
0010001300406U 280000000000000000000000000000000000000000000000000000000000000000000000000000000000000000000000000000000000000000000000001702201700000000            000000000000000                              000                           
0010001300407T 280180230000001544772 29577050251407050   788888888888889918012017000000000010000001000000888888888888899          0900000000000000000000000000000000000000000000000000000   000000000000000000000005002        170192957705     
0010001300408U 280000000000000000000000000000000000000000000000000000000000000000000000000000000000000000000000000000000000000000000000001702201700000000            000000000000000                              000                           
0010001300409T 280180230000001544772 29577050251530762   788888888888889918012017000000000007500001000000888888888888899          0900000000000000000000000000000000000000000000000000000   000000000000000000000005002        170192957705     
0010001300410U 280000000000000000000000000000000000000000000000000000000000000000000000000000000000000000000000000000000000000000000000001702201700000000            000000000000000                              000                           
0010001300411T 280180230000001544772 29577050251639676   788888888888889918012017000000000007500001000000888888888888899          0900000000000000000000000000000000000000000000000000000   000000000000000000000005002        170192957705     
0010001300412U 280000000000000000000000000000000000000000000000000000000000000000000000000000000000000000000000000000000000000000000000001702201700000000            000000000000000                              000                           
