00100000         2247745860001000029577050014       0180230000001544772 INSTITUTO DE SELECAO E TECNOLOBANCO DO BRASIL                         20203201701092900011403000000515122941PROCESSAMEN                                                 
00100011T0100020 20247745860001000029577050014       0180230000001544772 INSTITUTO DE SELECAO E TECNOLO                                                                                000000000203201700000000  000000000                      
0010001300001T 020180230000001544772 29577050017450175   7               04032017000000000007500001009245                         0900000000000010000000000000000000000000000000000000000   0000000000000000000000000A9        170192957705     
0010001300002U 020000000000000000000000000000000000000000000000000000000000000000000000000000000000000000000000000000000000000000000000000203201700000000            000000000000000                              000                           
0010001300003T 020180230000001544772 29577050070924230   7               04032017000000000007500001012408                         0900000000000010000000000000000000000000000000000000000   0000000000000000000000000A9        170192957705     
0010001300004U 020000000000000000000000000000000000000000000000000000000000000000000000000000000000000000000000000000000000000000000000000203201700000000            000000000000000                              000                           
0010001300005T 020180230000001544772 29577050070941477   7               04032017000000000007500001012408                         0900000000000010000000000000000000000000000000000000000   0000000000000000000000000A9        170192957705     
0010001300006U 020000000000000000000000000000000000000000000000000000000000000000000000000000000000000000000000000000000000000000000000000203201700000000            000000000000000                              000                           
0010001300007T 020180230000001544772 29577050077757639   7               04032017000000000007500001012408                         0900000000000010000000000000000000000000000000000000000   0000000000000000000000000A9        170192957705     
0010001300008U 020000000000000000000000000000000000000000000000000000000000000000000000000000000000000000000000000000000000000000000000000203201700000000            000000000000000                              000                           
0010001300009T 020180230000001544772 29577050128057114   7               04032017000000000007500001000213                         0900000000000010000000000000000000000000000000000000000   0000000000000000000000000A9        170192957705     
0010001300010U 020000000000000000000000000000000000000000000000000000000000000000000000000000000000000000000000000000000000000000000000000203201700000000            000000000000000                              000                           
0010001300011T 020180230000001544772 29577050130815169   7               04032017000000000007500001000213                         0900000000000010000000000000000000000000000000000000000   0000000000000000000000000A9        170192957705     
0010001300012U 020000000000000000000000000000000000000000000000000000000000000000000000000000000000000000000000000000000000000000000000000203201700000000            000000000000000                              000                           
0010001300013T 020180230000001544772 29577050155806637   7               04032017000000000007500001001120                         0900000000000010000000000000000000000000000000000000000   0000000000000000000000000A9        170192957705     
0010001300014U 020000000000000000000000000000000000000000000000000000000000000000000000000000000000000000000000000000000000000000000000000203201700000000            000000000000000                              000                           
0010001300015T 020180230000001544772 29577050179425172   7               0403201700000000000750000103049X                         0900000000000010000000000000000000000000000000000000000   0000000000000000000000000A9        170192957705     
0010001300016U 020000000000000000000000000000000000000000000000000000000000000000000000000000000000000000000000000000000000000000000000000203201700000000            000000000000000                              000                           
0010001300017T 020180230000001544772 29577050183343847   7               04032017000000000007500001012416                         0900000000000010000000000000000000000000000000000000000   0000000000000000000000000A9        170192957705     
0010001300018U 020000000000000000000000000000000000000000000000000000000000000000000000000000000000000000000000000000000000000000000000000203201700000000            000000000000000                              000                           
0010001300019T 020180230000001544772 29577050194033316   7               04032017000000000007500001012408                         0900000000000010000000000000000000000000000000000000000   0000000000000000000000000A9        170192957705     
0010001300020U 020000000000000000000000000000000000000000000000000000000000000000000000000000000000000000000000000000000000000000000000000203201700000000            000000000000000                              000                           
0010001300021T 020180230000001544772 29577050207505275   7               04032017000000000007500001012408                         0900000000000010000000000000000000000000000000000000000   0000000000000000000000000A9        170192957705     
0010001300022U 020000000000000000000000000000000000000000000000000000000000000000000000000000000000000000000000000000000000000000000000000203201700000000            000000000000000                              000                           
0010001300023T 020180230000001544772 29577050234931670   7               04032017000000000007500001030864                         0900000000000010000000000000000000000000000000000000000   0000000000000000000000000A9        170192957705     
0010001300024U 020000000000000000000000000000000000000000000000000000000000000000000000000000000000000000000000000000000000000000000000000203201700000000            000000000000000                              000                           
0010001300025T 020180230000001544772 29577050258245548   7               0403201700000000000750000103049X                         0900000000000010500000000000000000000000000000000000000   0000000000000000000000000A9A4      170192957705     
0010001300026U 020000000000000000000000000000000000000000000000000000000000000000000000000000000000000000000000000000000000000000000000000203201700000000            000000000000000                              000                           
0010001300027T 020180230000001544772 29577050261327785   7               04032017000000000007500001000213                         0900000000000010500000000000000000000000000000000000000   0000000000000000000000000A9A4      170192957705     
0010001300028U 020000000000000000000000000000000000000000000000000000000000000000000000000000000000000000000000000000000000000000000000000203201700000000            000000000000000                              000                           
0010001300029T 020180230000001544772 29577050264913082   7               04032017000000000007500001002224                         0900000000000010000000000000000000000000000000000000000   0000000000000000000000000A9        170192957705     
0010001300030U 020000000000000000000000000000000000000000000000000000000000000000000000000000000000000000000000000000000000000000000000000203201700000000            000000000000000                              000                           
0010001300031T 020180230000001544772 29577050314223585   7               04032017000000000007500001000213                         0900000000000010000000000000000000000000000000000000000   0000000000000000000000000A9        170192957705     
0010001300032U 020000000000000000000000000000000000000000000000000000000000000000000000000000000000000000000000000000000000000000000000000203201700000000            000000000000000                              000                           
0010001300033T 020180230000001544772 29577050314254210   7               04032017000000000007500001000213                         0900000000000010000000000000000000000000000000000000000   0000000000000000000000000A9        170192957705     
0010001300034U 020000000000000000000000000000000000000000000000000000000000000000000000000000000000000000000000000000000000000000000000000203201700000000            000000000000000                              000                           
0010001300035T 020180230000001544772 29577050331919598   7               04032017000000000010000001045578                         0900000000000010000000000000000000000000000000000000000   0000000000000000000000000A9        170192957705     
0010001300036U 020000000000000000000000000000000000000000000000000000000000000000000000000000000000000000000000000000000000000000000000000203201700000000            000000000000000                              000                           
0010001300037T 020180230000001544772 29577050369401154   7               04032017000000000007500001000213                         0900000000000010000000000000000000000000000000000000000   0000000000000000000000000A9        170192957705     
0010001300038U 020000000000000000000000000000000000000000000000000000000000000000000000000000000000000000000000000000000000000000000000000203201700000000            000000000000000                              000                           
0010001300039T 020180230000001544772 29577050369402213   7               04032017000000000007500001000213                         0900000000000010000000000000000000000000000000000000000   0000000000000000000000000A9        170192957705     
0010001300040U 020000000000000000000000000000000000000000000000000000000000000000000000000000000000000000000000000000000000000000000000000203201700000000            000000000000000                              000                           
0010001300041T 020180230000001544772 29577050393111768   7               04032017000000000007500001012408                         0900000000000010000000000000000000000000000000000000000   0000000000000000000000000A9        170192957705     
0010001300042U 020000000000000000000000000000000000000000000000000000000000000000000000000000000000000000000000000000000000000000000000000203201700000000            000000000000000                              000                           
0010001300043T 020180230000001544772 29577050393327063   7               0403201700000000000750000103049X                         0900000000000010000000000000000000000000000000000000000   0000000000000000000000000A9        170192957705     
0010001300044U 020000000000000000000000000000000000000000000000000000000000000000000000000000000000000000000000000000000000000000000000000203201700000000            000000000000000                              000                           
0010001300045T 020180230000001544772 29577050393356054   7               0403201700000000000750000103049X                         0900000000000010000000000000000000000000000000000000000   0000000000000000000000000A9        170192957705     
0010001300046U 020000000000000000000000000000000000000000000000000000000000000000000000000000000000000000000000000000000000000000000000000203201700000000            000000000000000                              000                           
0010001300047T 020180230000001544772 29577050394615541   7               04032017000000000010000001000205                         0900000000000010000000000000000000000000000000000000000   0000000000000000000000000A9        170192957705     
0010001300048U 020000000000000000000000000000000000000000000000000000000000000000000000000000000000000000000000000000000000000000000000000203201700000000            000000000000000                              000                           
0010001300049T 020180230000001544772 29577050407437494   7               0403201700000000000750000103049X                         0900000000000010500000000000000000000000000000000000000   0000000000000000000000000A9A4      170192957705     
0010001300050U 020000000000000000000000000000000000000000000000000000000000000000000000000000000000000000000000000000000000000000000000000203201700000000            000000000000000                              000                           
0010001300051T 020180230000001544772 29577050433736975   7               04032017000000000007500001012416                         0900000000000010000000000000000000000000000000000000000   0000000000000000000000000A9        170192957705     
0010001300052U 020000000000000000000000000000000000000000000000000000000000000000000000000000000000000000000000000000000000000000000000000203201700000000            000000000000000                              000                           
0010001300053T 020180230000001544772 29577050439143127   7               04032017000000000010000001012408                         0900000000000010000000000000000000000000000000000000000   0000000000000000000000000A9        170192957705     
0010001300054U 020000000000000000000000000000000000000000000000000000000000000000000000000000000000000000000000000000000000000000000000000203201700000000            000000000000000                              000                           
0010001300055T 020180230000001544772 29577050467314758   7               04032017000000000007500001012408                         0900000000000010000000000000000000000000000000000000000   0000000000000000000000000A9        170192957705     
0010001300056U 020000000000000000000000000000000000000000000000000000000000000000000000000000000000000000000000000000000000000000000000000203201700000000            000000000000000                              000                           
0010001300057T 020180230000001544772 29577050487932965   7               0403201700000000000750000103049X                         0900000000000010000000000000000000000000000000000000000   0000000000000000000000000A9        170192957705     
0010001300058U 020000000000000000000000000000000000000000000000000000000000000000000000000000000000000000000000000000000000000000000000000203201700000000            000000000000000                              000                           
0010001300059T 020180230000001544772 29577050487958158   7               0403201700000000000750000103049X                         0900000000000010000000000000000000000000000000000000000   0000000000000000000000000A9        170192957705     
0010001300060U 020000000000000000000000000000000000000000000000000000000000000000000000000000000000000000000000000000000000000000000000000203201700000000            000000000000000                              000                           
0010001300061T 020180230000001544772 29577050496819337   7               0403201700000000000750000103049X                         0900000000000010000000000000000000000000000000000000000   0000000000000000000000000A9        170192957705     
0010001300062U 020000000000000000000000000000000000000000000000000000000000000000000000000000000000000000000000000000000000000000000000000203201700000000            000000000000000                              000                           
0010001300063T 020180230000001544772 29577050497431729   7               04032017000000000007500001000213                         0900000000000010000000000000000000000000000000000000000   0000000000000000000000000A9        170192957705     
0010001300064U 020000000000000000000000000000000000000000000000000000000000000000000000000000000000000000000000000000000000000000000000000203201700000000            000000000000000                              000                           
0010001300065T 020180230000001544772 29577050500725492   7               04032017000000000010000001000213                         0900000000000010000000000000000000000000000000000000000   0000000000000000000000000A9        170192957705     
0010001300066U 020000000000000000000000000000000000000000000000000000000000000000000000000000000000000000000000000000000000000000000000000203201700000000            000000000000000                              000                           
0010001300067T 020180230000001544772 29577050503204909   7               04032017000000000007500001000213                         0900000000000010000000000000000000000000000000000000000   0000000000000000000000000A9        170192957705     
0010001300068U 020000000000000000000000000000000000000000000000000000000000000000000000000000000000000000000000000000000000000000000000000203201700000000            000000000000000                              000                           
0010001300069T 020180230000001544772 29577050507835623   7               04032017000000000007500001012408                         0900000000000010500000000000000000000000000000000000000   0000000000000000000000000A9A4      170192957705     
0010001300070U 020000000000000000000000000000000000000000000000000000000000000000000000000000000000000000000000000000000000000000000000000203201700000000            000000000000000                              000                           
0010001300071T 020180230000001544772 29577050510602077   7               04032017000000000007500001012408                         0900000000000010000000000000000000000000000000000000000   0000000000000000000000000A9        170192957705     
0010001300072U 020000000000000000000000000000000000000000000000000000000000000000000000000000000000000000000000000000000000000000000000000203201700000000            000000000000000                              000                           
0010001300073T 020180230000001544772 29577050510634915   7               04032017000000000007500001012408                         0900000000000010000000000000000000000000000000000000000   0000000000000000000000000A9        170192957705     
0010001300074U 020000000000000000000000000000000000000000000000000000000000000000000000000000000000000000000000000000000000000000000000000203201700000000            000000000000000                              000                           
0010001300075T 020180230000001544772 29577050515511782   7               04032017000000000007500001012416                         0900000000000010000000000000000000000000000000000000000   0000000000000000000000000A9        170192957705     
0010001300076U 020000000000000000000000000000000000000000000000000000000000000000000000000000000000000000000000000000000000000000000000000203201700000000            000000000000000                              000                           
0010001300077T 020180230000001544772 29577050551136676   7               04032017000000000007500001012416                         0900000000000010000000000000000000000000000000000000000   0000000000000000000000000A9        170192957705     
0010001300078U 020000000000000000000000000000000000000000000000000000000000000000000000000000000000000000000000000000000000000000000000000203201700000000            000000000000000                              000                           
0010001300079T 020180230000001544772 29577050612831936   7               04032017000000000007500001010561                         0900000000000010000000000000000000000000000000000000000   0000000000000000000000000A9        170192957705     
0010001300080U 020000000000000000000000000000000000000000000000000000000000000000000000000000000000000000000000000000000000000000000000000203201700000000            000000000000000                              000                           
0010001300081T 020180230000001544772 29577050790710656   7               0403201700000000000750000103049X                         0900000000000010000000000000000000000000000000000000000   0000000000000000000000000A9        170192957705     
0010001300082U 020000000000000000000000000000000000000000000000000000000000000000000000000000000000000000000000000000000000000000000000000203201700000000            000000000000000                              000                           
0010001300083T 020180230000001544772 29577050805300824   7               04032017000000000007500001000213                         0900000000000010000000000000000000000000000000000000000   0000000000000000000000000A9        170192957705     
0010001300084U 020000000000000000000000000000000000000000000000000000000000000000000000000000000000000000000000000000000000000000000000000203201700000000            000000000000000                              000                           
0010001300085T 020180230000001544772 29577050822400107   7               03032017000000000007500001000213                         0900000000000010000000000000000000000000000000000000000   0000000000000000000000000A9        170192957705     
0010001300086U 020000000000000000000000000000000000000000000000000000000000000000000000000000000000000000000000000000000000000000000000000103201700000000            000000000000000                              000                           
0010001300087T 020180230000001544772 29577050822423655   7               03032017000000000007500001000213                         0900000000000010000000000000000000000000000000000000000   0000000000000000000000000A9        170192957705     
0010001300088U 020000000000000000000000000000000000000000000000000000000000000000000000000000000000000000000000000000000000000000000000000103201700000000            000000000000000                              000                           
0010001300089T 020180230000001544772 29577050826510241   7               04032017000000000007500001012408                         0900000000000010000000000000000000000000000000000000000   0000000000000000000000000A9        170192957705     
0010001300090U 020000000000000000000000000000000000000000000000000000000000000000000000000000000000000000000000000000000000000000000000000203201700000000            000000000000000                              000                           
0010001300091T 020180230000001544772 29577050834112405   7               04032017000000000010000001000213                         0900000000000010000000000000000000000000000000000000000   0000000000000000000000000A9        170192957705     
0010001300092U 020000000000000000000000000000000000000000000000000000000000000000000000000000000000000000000000000000000000000000000000000203201700000000            000000000000000                              000                           
0010001300093T 020180230000001544772 29577050839318545   7               0403201700000000000750000103049X                         0900000000000010000000000000000000000000000000000000000   0000000000000000000000000A9        170192957705     
0010001300094U 020000000000000000000000000000000000000000000000000000000000000000000000000000000000000000000000000000000000000000000000000203201700000000            000000000000000                              000                           
0010001300095T 020180230000001544772 29577050870356241   7               0403201700000000000750000103049X                         0900000000000010000000000000000000000000000000000000000   0000000000000000000000000A9        170192957705     
0010001300096U 020000000000000000000000000000000000000000000000000000000000000000000000000000000000000000000000000000000000000000000000000203201700000000            000000000000000                              000                           
0010001300097T 020180230000001544772 29577050883115186   7               0403201700000000000750000103049X                         0900000000000010000000000000000000000000000000000000000   0000000000000000000000000A9        170192957705     
0010001300098U 020000000000000000000000000000000000000000000000000000000000000000000000000000000000000000000000000000000000000000000000000203201700000000            000000000000000                              000                           
0010001300099T 020180230000001544772 29577050924748303   7               0403201700000000000750000103049X                         0900000000000010000000000000000000000000000000000000000   0000000000000000000000000A9        170192957705     
0010001300100U 020000000000000000000000000000000000000000000000000000000000000000000000000000000000000000000000000000000000000000000000000203201700000000            000000000000000                              000                           
0010001300101T 020180230000001544772 29577050933217943   7               04032017000000000007500001009245                         0900000000000010000000000000000000000000000000000000000   0000000000000000000000000A9        170192957705     
0010001300102U 020000000000000000000000000000000000000000000000000000000000000000000000000000000000000000000000000000000000000000000000000203201700000000            000000000000000                              000                           
0010001300103T 020180230000001544772 29577050947509711   7               0403201700000000001000000103049X                         0900000000000010000000000000000000000000000000000000000   0000000000000000000000000A9        170192957705     
0010001300104U 020000000000000000000000000000000000000000000000000000000000000000000000000000000000000000000000000000000000000000000000000203201700000000            000000000000000                              000                           
0010001300105T 020180230000001544772 29577050947527404   7               0403201700000000001000000103049X                         0900000000000010000000000000000000000000000000000000000   0000000000000000000000000A9        170192957705     
0010001300106U 020000000000000000000000000000000000000000000000000000000000000000000000000000000000000000000000000000000000000000000000000203201700000000            000000000000000                              000                           
0010001300107T 020180230000001544772 29577050970303402   7               03032017000000000007500001012416                         0900000000000010000000000000000000000000000000000000000   0000000000000000000000000A9        170192957705     
0010001300108U 020000000000000000000000000000000000000000000000000000000000000000000000000000000000000000000000000000000000000000000000000103201700000000            000000000000000                              000                           
0010001300109T 020180230000001544772 29577050970409293   7               03032017000000000007500001000213                         0900000000000010000000000000000000000000000000000000000   0000000000000000000000000A9        170192957705     
0010001300110U 020000000000000000000000000000000000000000000000000000000000000000000000000000000000000000000000000000000000000000000000000103201700000000            000000000000000                              000                           
0010001300111T 020180230000001544772 29577050970543538   7               03032017000000000007500001012416                         0900000000000010000000000000000000000000000000000000000   0000000000000000000000000A9        170192957705     
0010001300112U 020000000000000000000000000000000000000000000000000000000000000000000000000000000000000000000000000000000000000000000000000103201700000000            000000000000000                              000                           
0010001300113T 020180230000001544772 29577050971037469   7               0403201700000000000750000103049X                         0900000000000010000000000000000000000000000000000000000   0000000000000000000000000A9        170192957705     
0010001300114U 020000000000000000000000000000000000000000000000000000000000000000000000000000000000000000000000000000000000000000000000000203201700000000            000000000000000                              000                           
0010001300115T 020180230000001544772 29577050971504224   7               04032017000000000007500001000213                         0900000000000010000000000000000000000000000000000000000   0000000000000000000000000A9        170192957705     
0010001300116U 020000000000000000000000000000000000000000000000000000000000000000000000000000000000000000000000000000000000000000000000000203201700000000            000000000000000                              000                           
0010001300117T 020180230000001544772 29577050971634477   7               04032017000000000007500001000213                         0900000000000010000000000000000000000000000000000000000   0000000000000000000000000A9        170192957705     
0010001300118U 020000000000000000000000000000000000000000000000000000000000000000000000000000000000000000000000000000000000000000000000000203201700000000            000000000000000                              000                           
0010001300119T 020180230000001544772 29577050971644382   7               04032017000000000007500001000213                         0900000000000010000000000000000000000000000000000000000   0000000000000000000000000A9        170192957705     
0010001300120U 020000000000000000000000000000000000000000000000000000000000000000000000000000000000000000000000000000000000000000000000000203201700000000            000000000000000                              000                           
0010001300121T 020180230000001544772 29577050971650145   7               04032017000000000007500001000213                         0900000000000010000000000000000000000000000000000000000   0000000000000000000000000A9        170192957705     
0010001300122U 020000000000000000000000000000000000000000000000000000000000000000000000000000000000000000000000000000000000000000000000000203201700000000            000000000000000                              000                           
0010001300123T 020180230000001544772 29577050971848323   7               04032017000000000007500001009245                         0900000000000010000000000000000000000000000000000000000   0000000000000000000000000A9        170192957705     
0010001300124U 020000000000000000000000000000000000000000000000000000000000000000000000000000000000000000000000000000000000000000000000000203201700000000            000000000000000                              000                           
0010001300125T 020180230000001544772 29577050972022796   7               04032017000000000007500001000213                         0900000000000010000000000000000000000000000000000000000   0000000000000000000000000A9        170192957705     
0010001300126U 020000000000000000000000000000000000000000000000000000000000000000000000000000000000000000000000000000000000000000000000000203201700000000            000000000000000                              000                           
0010001300127T 020180230000001544772 29577050972212775   7               04032017000000000007500001014079                         0900000000000010000000000000000000000000000000000000000   0000000000000000000000000A9        170192957705     
0010001300128U 020000000000000000000000000000000000000000000000000000000000000000000000000000000000000000000000000000000000000000000000000203201700000000            000000000000000                              000                           
0010001300129T 020180230000001544772 29577050972644242   7               04032017000000000007500001014389                         0900000000000010000000000000000000000000000000000000000   0000000000000000000000000A9        170192957705     
0010001300130U 020000000000000000000000000000000000000000000000000000000000000000000000000000000000000000000000000000000000000000000000000203201700000000            000000000000000                              000                           
0010001300131T 020180230000001544772 29577050974056882   7               04032017000000000007500001012408                         0900000000000010000000000000000000000000000000000000000   0000000000000000000000000A9        170192957705     
0010001300132U 020000000000000000000000000000000000000000000000000000000000000000000000000000000000000000000000000000000000000000000000000203201700000000            000000000000000                              000                           
0010001300133T 020180230000001544772 29577050974129826   7               04032017000000000007500001012408                         0900000000000010000000000000000000000000000000000000000   0000000000000000000000000A9        170192957705     
0010001300134U 020000000000000000000000000000000000000000000000000000000000000000000000000000000000000000000000000000000000000000000000000203201700000000            000000000000000                              000                           
0010001300135T 020180230000001544772 29577050974358378   7               04032017000000000007500001012408                         0900000000000010000000000000000000000000000000000000000   0000000000000000000000000A9        170192957705     
0010001300136U 020000000000000000000000000000000000000000000000000000000000000000000000000000000000000000000000000000000000000000000000000203201700000000            000000000000000                              000                           
0010001300137T 020180230000001544772 29577050974846101   7               04032017000000000007500001012408                         0900000000000010000000000000000000000000000000000000000   0000000000000000000000000A9        170192957705     
0010001300138U 020000000000000000000000000000000000000000000000000000000000000000000000000000000000000000000000000000000000000000000000000203201700000000            000000000000000                              000                           
0010001300139T 020180230000001544772 29577050975156216   7               04032017000000000007500001012416                         0900000000000010000000000000000000000000000000000000000   0000000000000000000000000A9        170192957705     
0010001300140U 020000000000000000000000000000000000000000000000000000000000000000000000000000000000000000000000000000000000000000000000000203201700000000            000000000000000                              000                           
0010001300141T 020180230000001544772 29577050975746819   7               04032017000000000007500001000213                         0900000000000010000000000000000000000000000000000000000   0000000000000000000000000A9        170192957705     
0010001300142U 020000000000000000000000000000000000000000000000000000000000000000000000000000000000000000000000000000000000000000000000000203201700000000            000000000000000                              000                           
0010001300143T 020180230000001544772 29577050976050389   7               04032017000000000007500001045799                         0900000000000010500000000000000000000000000000000000000   0000000000000000000000000A9A4      170192957705     
0010001300144U 020000000000000000000000000000000000000000000000000000000000000000000000000000000000000000000000000000000000000000000000000203201700000000            000000000000000                              000                           
0010001300145T 020180230000001544772 29577050976218022   7               04032017000000000007500001012998                         0900000000000010000000000000000000000000000000000000000   0000000000000000000000000A9        170192957705     
0010001300146U 020000000000000000000000000000000000000000000000000000000000000000000000000000000000000000000000000000000000000000000000000203201700000000            000000000000000                              000                           
0010001300147T 020180230000001544772 29577050976416363   7               04032017000000000007500001012408                         0900000000000010000000000000000000000000000000000000000   0000000000000000000000000A9        170192957705     
0010001300148U 020000000000000000000000000000000000000000000000000000000000000000000000000000000000000000000000000000000000000000000000000203201700000000            000000000000000                              000                           
0010001300149T 020180230000001544772 29577050976625635   7               04032017000000000007500001000213                         0900000000000010000000000000000000000000000000000000000   0000000000000000000000000A9        170192957705     
0010001300150U 020000000000000000000000000000000000000000000000000000000000000000000000000000000000000000000000000000000000000000000000000203201700000000            000000000000000                              000                           
0010001300151T 020180230000001544772 29577050977614718   7               04032017000000000007500001013692                         0900000000000010000000000000000000000000000000000000000   0000000000000000000000000A9        170192957705     
0010001300152U 020000000000000000000000000000000000000000000000000000000000000000000000000000000000000000000000000000000000000000000000000203201700000000            000000000000000                              000                           
0010001300153T 020180230000001544772 29577050978048132   7               04032017000000000007500001012416                         0900000000000010500000000000000000000000000000000000000   0000000000000000000000000A9A4      170192957705     
0010001300154U 020000000000000000000000000000000000000000000000000000000000000000000000000000000000000000000000000000000000000000000000000203201700000000            000000000000000                              000                           
0010001300155T 020180230000001544772 29577050978452342   7               0403201700000000000750000103729X                         0900000000000010000000000000000000000000000000000000000   0000000000000000000000000A9        170192957705     
0010001300156U 020000000000000000000000000000000000000000000000000000000000000000000000000000000000000000000000000000000000000000000000000203201700000000            000000000000000                              000                           
0010001300157T 020180230000001544772 29577050978625419   7               04032017000000000007500001002224                         0900000000000010000000000000000000000000000000000000000   0000000000000000000000000A9        170192957705     
0010001300158U 020000000000000000000000000000000000000000000000000000000000000000000000000000000000000000000000000000000000000000000000000203201700000000            000000000000000                              000                           
0010001300159T 020180230000001544772 29577050979624780   7               04032017000000000007500001004782                         0900000000000010000000000000000000000000000000000000000   0000000000000000000000000A9        170192957705     
0010001300160U 020000000000000000000000000000000000000000000000000000000000000000000000000000000000000000000000000000000000000000000000000203201700000000            000000000000000                              000                           
0010001300161T 020180230000001544772 29577050979920320   7               04032017000000000007500001004782                         0900000000000010000000000000000000000000000000000000000   0000000000000000000000000A9        170192957705     
0010001300162U 020000000000000000000000000000000000000000000000000000000000000000000000000000000000000000000000000000000000000000000000000203201700000000            000000000000000                              000                           
0010001300163T 020180230000001544772 29577050979939237   7               04032017000000000007500001004782                         0900000000000010000000000000000000000000000000000000000   0000000000000000000000000A9        170192957705     
0010001300164U 020000000000000000000000000000000000000000000000000000000000000000000000000000000000000000000000000000000000000000000000000203201700000000            000000000000000                              000                           
0010001300165T 020180230000001544772 29577050980913536   7               04032017000000000007500001012416                         0900000000000010000000000000000000000000000000000000000   0000000000000000000000000A9        170192957705     
0010001300166U 020000000000000000000000000000000000000000000000000000000000000000000000000000000000000000000000000000000000000000000000000203201700000000            000000000000000                              000                           
0010001300167T 020180230000001544772 29577050981449801   7               04032017000000000007500001000051                         0900000000000010000000000000000000000000000000000000000   0000000000000000000000000A9        170192957705     
0010001300168U 020000000000000000000000000000000000000000000000000000000000000000000000000000000000000000000000000000000000000000000000000203201700000000            000000000000000                              000                           
0010001300169T 020180230000001544772 29577050981541280   7               04032017000000000007500001000213                         0900000000000010000000000000000000000000000000000000000   0000000000000000000000000A9        170192957705     
0010001300170U 020000000000000000000000000000000000000000000000000000000000000000000000000000000000000000000000000000000000000000000000000203201700000000            000000000000000                              000                           
0010001300171T 020180230000001544772 29577050981744498   7               0403201700000000000750000103049X                         0900000000000010000000000000000000000000000000000000000   0000000000000000000000000A9        170192957705     
0010001300172U 020000000000000000000000000000000000000000000000000000000000000000000000000000000000000000000000000000000000000000000000000203201700000000            000000000000000                              000                           
0010001300173T 020180230000001544772 29577050982135821   7               04032017000000000007500001046744                         0900000000000010000000000000000000000000000000000000000   0000000000000000000000000A9        170192957705     
0010001300174U 020000000000000000000000000000000000000000000000000000000000000000000000000000000000000000000000000000000000000000000000000203201700000000            000000000000000                              000                           
0010001300175T 020180230000001544772 29577050982534040   7               04032017000000000007500001000213                         0900000000000010000000000000000000000000000000000000000   0000000000000000000000000A9        170192957705     
0010001300176U 020000000000000000000000000000000000000000000000000000000000000000000000000000000000000000000000000000000000000000000000000203201700000000            000000000000000                              000                           
0010001300177T 020180230000001544772 29577050982723570   7               04032017000000000007500001000213                         0900000000000010000000000000000000000000000000000000000   0000000000000000000000000A9        170192957705     
0010001300178U 020000000000000000000000000000000000000000000000000000000000000000000000000000000000000000000000000000000000000000000000000203201700000000            000000000000000                              000                           
0010001300179T 020180230000001544772 29577050982802013   7               04032017000000000007500001012408                         0900000000000010000000000000000000000000000000000000000   0000000000000000000000000A9        170192957705     
0010001300180U 020000000000000000000000000000000000000000000000000000000000000000000000000000000000000000000000000000000000000000000000000203201700000000            000000000000000                              000                           
0010001300181T 020180230000001544772 29577050984537772   7               04032017000000000007500001004782                         0900000000000010000000000000000000000000000000000000000   0000000000000000000000000A9        170192957705     
0010001300182U 020000000000000000000000000000000000000000000000000000000000000000000000000000000000000000000000000000000000000000000000000203201700000000            000000000000000                              000                           
0010001300183T 020180230000001544772 29577050986041681   7               04032017000000000007500001012408                         0900000000000010000000000000000000000000000000000000000   0000000000000000000000000A9        170192957705     
0010001300184U 020000000000000000000000000000000000000000000000000000000000000000000000000000000000000000000000000000000000000000000000000203201700000000            000000000000000                              000                           
0010001300185T 020180230000001544772 29577050986625615   7               04032017000000000010000001012408                         0900000000000010500000000000000000000000000000000000000   0000000000000000000000000A9A4      170192957705     
0010001300186U 020000000000000000000000000000000000000000000000000000000000000000000000000000000000000000000000000000000000000000000000000203201700000000            000000000000000                              000                           
0010001300187T 020180230000001544772 29577050986848519   7               04032017000000000007500001000833                         0900000000000010000000000000000000000000000000000000000   0000000000000000000000000A9        170192957705     
0010001300188U 020000000000000000000000000000000000000000000000000000000000000000000000000000000000000000000000000000000000000000000000000203201700000000            000000000000000                              000                           
0010001300189T 020180230000001544772 29577050987318915   7               04032017000000000007500001012416                         0900000000000010000000000000000000000000000000000000000   0000000000000000000000000A9        170192957705     
0010001300190U 020000000000000000000000000000000000000000000000000000000000000000000000000000000000000000000000000000000000000000000000000203201700000000            000000000000000                              000                           
0010001300191T 020180230000001544772 29577050987755765   7               04032017000000000007500001002224                         0900000000000010000000000000000000000000000000000000000   0000000000000000000000000A9        170192957705     
0010001300192U 020000000000000000000000000000000000000000000000000000000000000000000000000000000000000000000000000000000000000000000000000203201700000000            000000000000000                              000                           
0010001300193T 020180230000001544772 29577050987903463   7               04032017000000000007500001012416                         0900000000000010000000000000000000000000000000000000000   0000000000000000000000000A9        170192957705     
0010001300194U 020000000000000000000000000000000000000000000000000000000000000000000000000000000000000000000000000000000000000000000000000203201700000000            000000000000000                              000                           
0010001300195T 020180230000001544772 29577050989256597   7               0403201700000000000750000103049X                         0900000000000010000000000000000000000000000000000000000   0000000000000000000000000A9        170192957705     
0010001300196U 020000000000000000000000000000000000000000000000000000000000000000000000000000000000000000000000000000000000000000000000000203201700000000            000000000000000                              000                           
0010001300197T 020180230000001544772 29577050990402958   7               04032017000000000007500001000051                         0900000000000010000000000000000000000000000000000000000   0000000000000000000000000A9        170192957705     
0010001300198U 020000000000000000000000000000000000000000000000000000000000000000000000000000000000000000000000000000000000000000000000000203201700000000            000000000000000                              000                           
0010001300199T 020180230000001544772 29577050990704595   7               04032017000000000007500001005185                         0900000000000010000000000000000000000000000000000000000   0000000000000000000000000A9        170192957705     
0010001300200U 020000000000000000000000000000000000000000000000000000000000000000000000000000000000000000000000000000000000000000000000000203201700000000            000000000000000                              000                           
0010001300201T 020180230000001544772 29577050990704695   7               04032017000000000007500001005185                         0900000000000010000000000000000000000000000000000000000   0000000000000000000000000A9        170192957705     
0010001300202U 020000000000000000000000000000000000000000000000000000000000000000000000000000000000000000000000000000000000000000000000000203201700000000            000000000000000                              000                           
0010001300203T 020180230000001544772 29577050990837696   7               04032017000000000007500001000213                         0900000000000010000000000000000000000000000000000000000   0000000000000000000000000A9        170192957705     
0010001300204U 020000000000000000000000000000000000000000000000000000000000000000000000000000000000000000000000000000000000000000000000000203201700000000            000000000000000                              000                           
0010001300205T 020180230000001544772 29577050991030689   7               0403201700000000000750000103049X                         0900000000000010000000000000000000000000000000000000000   0000000000000000000000000A9        170192957705     
0010001300206U 020000000000000000000000000000000000000000000000000000000000000000000000000000000000000000000000000000000000000000000000000203201700000000            000000000000000                              000                           
0010001300207T 020180230000001544772 29577050991316919   7               04032017000000000007500001000213                         0900000000000010000000000000000000000000000000000000000   0000000000000000000000000A9        170192957705     
0010001300208U 020000000000000000000000000000000000000000000000000000000000000000000000000000000000000000000000000000000000000000000000000203201700000000            000000000000000                              000                           
0010001300209T 020180230000001544772 29577050992159249   7               04032017000000000007500001012408                         0900000000000010000000000000000000000000000000000000000   0000000000000000000000000A9        170192957705     
0010001300210U 020000000000000000000000000000000000000000000000000000000000000000000000000000000000000000000000000000000000000000000000000203201700000000            000000000000000                              000                           
0010001300211T 020180230000001544772 29577050992423388   7               04032017000000000007500001036951                         0900000000000010500000000000000000000000000000000000000   0000000000000000000000000A9A4      170192957705     
0010001300212U 020000000000000000000000000000000000000000000000000000000000000000000000000000000000000000000000000000000000000000000000000203201700000000            000000000000000                              000                           
0010001300213T 020180230000001544772 29577050992709995   7               04032017000000000007500001000213                         0900000000000010000000000000000000000000000000000000000   0000000000000000000000000A9        170192957705     
0010001300214U 020000000000000000000000000000000000000000000000000000000000000000000000000000000000000000000000000000000000000000000000000203201700000000            000000000000000                              000                           
0010001300215T 020180230000001544772 29577050993030174   7               04032017000000000007500001009334                         0900000000000010000000000000000000000000000000000000000   0000000000000000000000000A9        170192957705     
0010001300216U 020000000000000000000000000000000000000000000000000000000000000000000000000000000000000000000000000000000000000000000000000203201700000000            000000000000000                              000                           
0010001300217T 020180230000001544772 29577050993335703   7               04032017000000000007500001000213                         0900000000000010000000000000000000000000000000000000000   0000000000000000000000000A9        170192957705     
0010001300218U 020000000000000000000000000000000000000000000000000000000000000000000000000000000000000000000000000000000000000000000000000203201700000000            000000000000000                              000                           
0010001300219T 020180230000001544772 29577050993859602   7               0403201700000000000750000103049X                         0900000000000010000000000000000000000000000000000000000   0000000000000000000000000A9        170192957705     
0010001300220U 020000000000000000000000000000000000000000000000000000000000000000000000000000000000000000000000000000000000000000000000000203201700000000            000000000000000                              000                           
0010001300221T 020180230000001544772 29577050994404477   7               0403201700000000000750000103049X                         0900000000000010000000000000000000000000000000000000000   0000000000000000000000000A9        170192957705     
0010001300222U 020000000000000000000000000000000000000000000000000000000000000000000000000000000000000000000000000000000000000000000000000203201700000000            000000000000000                              000                           
0010001300223T 020180230000001544772 29577050994541033   7               0403201700000000000750000103049X                         0900000000000010000000000000000000000000000000000000000   0000000000000000000000000A9        170192957705     
0010001300224U 020000000000000000000000000000000000000000000000000000000000000000000000000000000000000000000000000000000000000000000000000203201700000000            000000000000000                              000                           
0010001300225T 020180230000001544772 29577050994847877   7               04032017000000000007500001012416                         0900000000000010500000000000000000000000000000000000000   0000000000000000000000000A9A4      170192957705     
0010001300226U 020000000000000000000000000000000000000000000000000000000000000000000000000000000000000000000000000000000000000000000000000203201700000000            000000000000000                              000                           
0010001300227T 020180230000001544772 29577050995547092   7               04032017000000000007500001001120                         0900000000000010000000000000000000000000000000000000000   0000000000000000000000000A9        170192957705     
0010001300228U 020000000000000000000000000000000000000000000000000000000000000000000000000000000000000000000000000000000000000000000000000203201700000000            000000000000000                              000                           
0010001300229T 020180230000001544772 29577050995641928   7               0403201700000000000750000103049X                         0900000000000010000000000000000000000000000000000000000   0000000000000000000000000A9        170192957705     
0010001300230U 020000000000000000000000000000000000000000000000000000000000000000000000000000000000000000000000000000000000000000000000000203201700000000            000000000000000                              000                           
0010001300231T 020180230000001544772 29577050995748040   7               04032017000000000007500001012408                         0900000000000010000000000000000000000000000000000000000   0000000000000000000000000A9        170192957705     
0010001300232U 020000000000000000000000000000000000000000000000000000000000000000000000000000000000000000000000000000000000000000000000000203201700000000            000000000000000                              000                           
0010001300233T 060180230000001544772 29577050207505275   7               04032017000000000007500104016430                         0900000000000010000000000000000000000000000000000000000   000000000000000000000029000        170192957705     
0010001300234U 060000000000000000000000000000000000000000000000000000000000000000000000075000000000000072100000000000000000000000000000000203201703032017            000000000000000                              000                           
0010001300235T 060180230000001544772 29577050232924465   7               03032017000000000010000237014930                         0900000000000010000000000000000000000000000000000000000   000000000000000000000029000        170192957705     
0010001300236U 060000000000000000000000000000000000000000000000000000000000000000000000100000000000000097100000000000000000000000000000000203201703032017            000000000000000                              000                           
0010001300237T 060180230000001544772 29577050261327785   7               04032017000000000007500104008230                         0900000000000010000000000000000000000000000000000000000   000000000000000000000029000        170192957705     
0010001300238U 060000000000000000000000000000000000000000000000000000000000000000000000075000000000000072100000000000000000000000000000000203201703032017            000000000000000                              000                           
0010001300239T 060180230000001544772 29577050328506974   7               03032017000000000007500756004090                         0900000000000010000000000000000000000000000000000000000   000000000000000000000029000        170192957705     
0010001300240U 060000000000000000000000000000000000000000000000000000000000000000000000075000000000000072100000000000000000000000000000000203201703032017            000000000000000                              000                           
0010001300241T 060180230000001544772 29577050474558781   7               03032017000000000007500604002740                         0900000000000010000000000000000000000000000000000000000   000000000000000000000029000        170192957705     
0010001300242U 060000000000000000000000000000000000000000000000000000000000000000000000075000000000000072100000000000000000000000000000000203201703032017            000000000000000                              000                           
0010001300243T 060180230000001544772 29577050497431729   7               04032017000000000007500104024400                         0900000000000010000000000000000000000000000000000000000   000000000000000000000029000        170192957705     
0010001300244U 060000000000000000000000000000000000000000000000000000000000000000000000075000000000000072100000000000000000000000000000000203201703032017            000000000000000                              000                           
0010001300245T 060180230000001544772 29577050501355124   7               03032017000000000007500756030080                         0900000000000010000000000000000000000000000000000000000   000000000000000000000029000        170192957705     
0010001300246U 060000000000000000000000000000000000000000000000000000000000000000000000075000000000000072100000000000000000000000000000000203201703032017            000000000000000                              000                           
0010001300247T 060180230000001544772 29577050507835623   7               04032017000000000007500237012000                         0900000000000010000000000000000000000000000000000000000   000000000000000000000029000        170192957705     
0010001300248U 060000000000000000000000000000000000000000000000000000000000000000000000075000000000000072100000000000000000000000000000000203201703032017            000000000000000                              000                           
0010001300249T 060180230000001544772 29577050515511782   7               04032017000000000007500021001050                         0900000000000010000000000000000000000000000000000000000   000000000000000000000029000        170192957705     
0010001300250U 060000000000000000000000000000000000000000000000000000000000000000000000075000000000000072100000000000000000000000000000000203201703032017            000000000000000                              000                           
0010001300251T 060180230000001544772 29577050834112405   7               04032017000000000010000001012408                         0900000000000010000000000000000000000000000000000000000   000000000000000000000029000        170192957705     
0010001300252U 060000000000000000000000000000000000000000000000000000000000000000000000100000000000000097100000000000000000000000000000000203201703032017            000000000000000                              000                           
0010001300253T 060180230000001544772 29577050924307892   7               03032017000000000007500341016200                         0900000000000010000000000000000000000000000000000000000   000000000000000000000029000        170192957705     
0010001300254U 060000000000000000000000000000000000000000000000000000000000000000000000075000000000000072100000000000000000000000000000000203201703032017            000000000000000                              000                           
0010001300255T 060180230000001544772 29577050935208175   7               01032017000000000007500001078166                         0900000000000010000000000000000000000000000000000000000   000000000000000000000029000        170192957705     
0010001300256U 060000000000000260000000000000000000000000000000000000000000000000000000075260000000000072360000000000000000000000000000000203201703032017            000000000000000                              000                           
0010001300257T 060180230000001544772 29577050941842029   7               02032017000000000007500341000700                         0900000000000010000000000000000000000000000000000000000   000000000000000000000029000        170192957705     
0010001300258U 060000000000000000000000000000000000000000000000000000000000000000000000075000000000000072100000000000000000000000000000000203201703032017            000000000000000                              000                           
0010001300259T 060180230000001544772 29577050946735339   7               02032017000000000007500021002770                         0900000000000010000000000000000000000000000000000000000   000000000000000000000029000        170192957705     
0010001300260U 060000000000000000000000000000000000000000000000000000000000000000000000075000000000000072100000000000000000000000000000000203201703032017            000000000000000                              000                           
0010001300261T 060180230000001544772 29577050951447036   7               02032017000000000007500104001670                         0900000000000010000000000000000000000000000000000000000   000000000000000000000029000        170192957705     
0010001300262U 060000000000000000000000000000000000000000000000000000000000000000000000075000000000000072100000000000000000000000000000000203201703032017            000000000000000                              000                           
0010001300263T 060180230000001544772 29577050971848323   7               04032017000000000007500001031933                         0900000000000010000000000000000000000000000000000000000   000000000000000000000029000        170192957705     
0010001300264U 060000000000000000000000000000000000000000000000000000000000000000000000075000000000000072100000000000000000000000000000000203201703032017            000000000000000                              000                           
0010001300265T 060180230000001544772 29577050972022796   7               04032017000000000007500104001670                         0900000000000010000000000000000000000000000000000000000   000000000000000000000029000        170192957705     
0010001300266U 060000000000000000000000000000000000000000000000000000000000000000000000075000000000000072100000000000000000000000000000000203201703032017            000000000000000                              000                           
0010001300267T 060180230000001544772 29577050975156216   7               04032017000000000007500237031740                         0900000000000010000000000000000000000000000000000000000   000000000000000000000029000        170192957705     
0010001300268U 060000000000000000000000000000000000000000000000000000000000000000000000075000000000000072100000000000000000000000000000000203201703032017            000000000000000                              000                           
0010001300269T 060180230000001544772 29577050976625635   7               04032017000000000007500001030848                         0900000000000010000000000000000000000000000000000000000   000000000000000000000029000        170192957705     
0010001300270U 060000000000000000000000000000000000000000000000000000000000000000000000075000000000000072100000000000000000000000000000000203201703032017            000000000000000                              000                           
0010001300271T 060180230000001544772 29577050979624780   7               04032017000000000007500001030716                         0900000000000010000000000000000000000000000000000000000   000000000000000000000029000        170192957705     
0010001300272U 060000000000000000000000000000000000000000000000000000000000000000000000075000000000000072100000000000000000000000000000000203201703032017            000000000000000                              000                           
0010001300273T 060180230000001544772 29577050979939237   7               04032017000000000007500001030716                         0900000000000010000000000000000000000000000000000000000   000000000000000000000029000        170192957705     
0010001300274U 060000000000000000000000000000000000000000000000000000000000000000000000075000000000000072100000000000000000000000000000000203201703032017            000000000000000                              000                           
0010001300275T 060180230000001544772 29577050981541280   7               04032017000000000007500001004685                         0900000000000010000000000000000000000000000000000000000   000000000000000000000029000        170192957705     
0010001300276U 060000000000000000000000000000000000000000000000000000000000000000000000075000000000000072100000000000000000000000000000000203201703032017            000000000000000                              000                           
0010001300277T 060180230000001544772 29577050992709995   7               04032017000000000007500001031933                         0900000000000010000000000000000000000000000000000000000   000000000000000000000029000        170192957705     
0010001300278U 060000000000000000000000000000000000000000000000000000000000000000000000075000000000000072100000000000000000000000000000000203201703032017            000000000000000                              000                           
0010001300279T 280180230000001544772 29577050027650086   788888888888889901012017000000000007500001000000888888888888899          0900000000000000000000000000000000000000000000000000000   000000000000000000000005002        170192957705     
0010001300280U 280000000000000000000000000000000000000000000000000000000000000000000000000000000000000000000000000000000000000000000000000203201700000000            000000000000000                              000                           
0010001300281T 280180230000001544772 29577050029653557   788888888888889931012017000000000010000001000000888888888888899          0900000000000000000000000000000000000000000000000000000   000000000000000000000005002        170192957705     
0010001300282U 280000000000000000000000000000000000000000000000000000000000000000000000000000000000000000000000000000000000000000000000000203201700000000            000000000000000                              000                           
0010001300283T 280180230000001544772 29577050037932637   788888888888889931012017000000000007500001000000888888888888899          0900000000000000000000000000000000000000000000000000000   000000000000000000000005002        170192957705     
0010001300284U 280000000000000000000000000000000000000000000000000000000000000000000000000000000000000000000000000000000000000000000000000203201700000000            000000000000000                              000                           
0010001300285T 280180230000001544772 29577050040053268   788888888888889931012017000000000007500001000000888888888888899          0900000000000000000000000000000000000000000000000000000   000000000000000000000005002        170192957705     
0010001300286U 280000000000000000000000000000000000000000000000000000000000000000000000000000000000000000000000000000000000000000000000000203201700000000            000000000000000                              000                           
0010001300287T 280180230000001544772 29577050047508613   788888888888889901012017000000000007500001000000888888888888899          0900000000000000000000000000000000000000000000000000000   000000000000000000000005002        170192957705     
0010001300288U 280000000000000000000000000000000000000000000000000000000000000000000000000000000000000000000000000000000000000000000000000203201700000000            000000000000000                              000                           
0010001300289T 280180230000001544772 29577050057833507   788888888888889901012017000000000007500001000000888888888888899          0900000000000000000000000000000000000000000000000000000   000000000000000000000005002        170192957705     
0010001300290U 280000000000000000000000000000000000000000000000000000000000000000000000000000000000000000000000000000000000000000000000000203201700000000            000000000000000                              000                           
0010001300291T 280180230000001544772 29577050068153711   788888888888889901012017000000000007500001000000888888888888899          0900000000000000000000000000000000000000000000000000000   000000000000000000000005002        170192957705     
0010001300292U 280000000000000000000000000000000000000000000000000000000000000000000000000000000000000000000000000000000000000000000000000203201700000000            000000000000000                              000                           
0010001300293T 280180230000001544772 29577050078739194   788888888888889901012017000000000007500001000000888888888888899          0900000000000000000000000000000000000000000000000000000   000000000000000000000005002        170192957705     
0010001300294U 280000000000000000000000000000000000000000000000000000000000000000000000000000000000000000000000000000000000000000000000000203201700000000            000000000000000                              000                           
0010001300295T 280180230000001544772 29577050090615435   788888888888889901012017000000000007500001000000888888888888899          0900000000000000000000000000000000000000000000000000000   000000000000000000000005002        170192957705     
0010001300296U 280000000000000000000000000000000000000000000000000000000000000000000000000000000000000000000000000000000000000000000000000203201700000000            000000000000000                              000                           
0010001300297T 280180230000001544772 29577050109744366   788888888888889901012017000000000010000001000000888888888888899          0900000000000000000000000000000000000000000000000000000   000000000000000000000005002        170192957705     
0010001300298U 280000000000000000000000000000000000000000000000000000000000000000000000000000000000000000000000000000000000000000000000000203201700000000            000000000000000                              000                           
0010001300299T 280180230000001544772 29577050109829642   788888888888889901012017000000000007500001000000888888888888899          0900000000000000000000000000000000000000000000000000000   000000000000000000000005002        170192957705     
0010001300300U 280000000000000000000000000000000000000000000000000000000000000000000000000000000000000000000000000000000000000000000000000203201700000000            000000000000000                              000                           
0010001300301T 280180230000001544772 29577050109831874   788888888888889901012017000000000007500001000000888888888888899          0900000000000000000000000000000000000000000000000000000   000000000000000000000005002        170192957705     
0010001300302U 280000000000000000000000000000000000000000000000000000000000000000000000000000000000000000000000000000000000000000000000000203201700000000            000000000000000                              000                           
0010001300303T 280180230000001544772 29577050109845478   788888888888889901012017000000000007500001000000888888888888899          0900000000000000000000000000000000000000000000000000000   000000000000000000000005002        170192957705     
0010001300304U 280000000000000000000000000000000000000000000000000000000000000000000000000000000000000000000000000000000000000000000000000203201700000000            000000000000000                              000                           
0010001300305T 280180230000001544772 29577050109849945   788888888888889901012017000000000007500001000000888888888888899          0900000000000000000000000000000000000000000000000000000   000000000000000000000005002        170192957705     
0010001300306U 280000000000000000000000000000000000000000000000000000000000000000000000000000000000000000000000000000000000000000000000000203201700000000            000000000000000                              000                           
0010001300307T 280180230000001544772 29577050110006167   788888888888889901012017000000000007500001000000888888888888899          0900000000000000000000000000000000000000000000000000000   000000000000000000000005002        170192957705     
0010001300308U 280000000000000000000000000000000000000000000000000000000000000000000000000000000000000000000000000000000000000000000000000203201700000000            000000000000000                              000                           
0010001300309T 280180230000001544772 29577050110019474   788888888888889901012017000000000007500001000000888888888888899          0900000000000000000000000000000000000000000000000000000   000000000000000000000005002        170192957705     
0010001300310U 280000000000000000000000000000000000000000000000000000000000000000000000000000000000000000000000000000000000000000000000000203201700000000            000000000000000                              000                           
0010001300311T 280180230000001544772 29577050110026022   788888888888889901012017000000000007500001000000888888888888899          0900000000000000000000000000000000000000000000000000000   000000000000000000000005002        170192957705     
0010001300312U 280000000000000000000000000000000000000000000000000000000000000000000000000000000000000000000000000000000000000000000000000203201700000000            000000000000000                              000                           
0010001300313T 280180230000001544772 29577050110033624   788888888888889901012017000000000007500001000000888888888888899          0900000000000000000000000000000000000000000000000000000   000000000000000000000005002        170192957705     
0010001300314U 280000000000000000000000000000000000000000000000000000000000000000000000000000000000000000000000000000000000000000000000000203201700000000            000000000000000                              000                           
0010001300315T 280180230000001544772 29577050110103771   788888888888889901012017000000000007500001000000888888888888899          0900000000000000000000000000000000000000000000000000000   000000000000000000000005002        170192957705     
0010001300316U 280000000000000000000000000000000000000000000000000000000000000000000000000000000000000000000000000000000000000000000000000203201700000000            000000000000000                              000                           
0010001300317T 280180230000001544772 29577050110241057   788888888888889901012017000000000007500001000000888888888888899          0900000000000000000000000000000000000000000000000000000   000000000000000000000005002        170192957705     
0010001300318U 280000000000000000000000000000000000000000000000000000000000000000000000000000000000000000000000000000000000000000000000000203201700000000            000000000000000                              000                           
0010001300319T 280180230000001544772 29577050110309485   788888888888889901012017000000000007500001000000888888888888899          0900000000000000000000000000000000000000000000000000000   000000000000000000000005002        170192957705     
0010001300320U 280000000000000000000000000000000000000000000000000000000000000000000000000000000000000000000000000000000000000000000000000203201700000000            000000000000000                              000                           
0010001300321T 280180230000001544772 29577050110449646   788888888888889901012017000000000007500001000000888888888888899          0900000000000000000000000000000000000000000000000000000   000000000000000000000005002        170192957705     
0010001300322U 280000000000000000000000000000000000000000000000000000000000000000000000000000000000000000000000000000000000000000000000000203201700000000            000000000000000                              000                           
0010001300323T 280180230000001544772 29577050110549626   788888888888889901012017000000000007500001000000888888888888899          0900000000000000000000000000000000000000000000000000000   000000000000000000000005002        170192957705     
0010001300324U 280000000000000000000000000000000000000000000000000000000000000000000000000000000000000000000000000000000000000000000000000203201700000000            000000000000000                              000                           
0010001300325T 280180230000001544772 29577050110611014   788888888888889901012017000000000007500001000000888888888888899          0900000000000000000000000000000000000000000000000000000   000000000000000000000005002        170192957705     
0010001300326U 280000000000000000000000000000000000000000000000000000000000000000000000000000000000000000000000000000000000000000000000000203201700000000            000000000000000                              000                           
0010001300327T 280180230000001544772 29577050110734825   788888888888889901012017000000000007500001000000888888888888899          0900000000000000000000000000000000000000000000000000000   000000000000000000000005002        170192957705     
0010001300328U 280000000000000000000000000000000000000000000000000000000000000000000000000000000000000000000000000000000000000000000000000203201700000000            000000000000000                              000                           
0010001300329T 280180230000001544772 29577050110906439   788888888888889901012017000000000007500001000000888888888888899          0900000000000000000000000000000000000000000000000000000   000000000000000000000005002        170192957705     
0010001300330U 280000000000000000000000000000000000000000000000000000000000000000000000000000000000000000000000000000000000000000000000000203201700000000            000000000000000                              000                           
0010001300331T 280180230000001544772 29577050111029471   788888888888889901012017000000000010000001000000888888888888899          0900000000000000000000000000000000000000000000000000000   000000000000000000000005002        170192957705     
0010001300332U 280000000000000000000000000000000000000000000000000000000000000000000000000000000000000000000000000000000000000000000000000203201700000000            000000000000000                              000                           
0010001300333T 280180230000001544772 29577050111246663   788888888888889901012017000000000007500001000000888888888888899          0900000000000000000000000000000000000000000000000000000   000000000000000000000005002        170192957705     
0010001300334U 280000000000000000000000000000000000000000000000000000000000000000000000000000000000000000000000000000000000000000000000000203201700000000            000000000000000                              000                           
0010001300335T 280180230000001544772 29577050111324046   788888888888889901012017000000000007500001000000888888888888899          0900000000000000000000000000000000000000000000000000000   000000000000000000000005002        170192957705     
0010001300336U 280000000000000000000000000000000000000000000000000000000000000000000000000000000000000000000000000000000000000000000000000203201700000000            000000000000000                              000                           
0010001300337T 280180230000001544772 29577050111410245   788888888888889901012017000000000007500001000000888888888888899          0900000000000000000000000000000000000000000000000000000   000000000000000000000005002        170192957705     
0010001300338U 280000000000000000000000000000000000000000000000000000000000000000000000000000000000000000000000000000000000000000000000000203201700000000            000000000000000                              000                           
0010001300339T 280180230000001544772 29577050111514677   788888888888889901012017000000000007500001000000888888888888899          0900000000000000000000000000000000000000000000000000000   000000000000000000000005002        170192957705     
0010001300340U 280000000000000000000000000000000000000000000000000000000000000000000000000000000000000000000000000000000000000000000000000203201700000000            000000000000000                              000                           
0010001300341T 280180230000001544772 29577050111616983   788888888888889901012017000000000007500001000000888888888888899          0900000000000000000000000000000000000000000000000000000   000000000000000000000005002        170192957705     
0010001300342U 280000000000000000000000000000000000000000000000000000000000000000000000000000000000000000000000000000000000000000000000000203201700000000            000000000000000                              000                           
0010001300343T 280180230000001544772 29577050111701400   788888888888889901012017000000000007500001000000888888888888899          0900000000000000000000000000000000000000000000000000000   000000000000000000000005002        170192957705     
0010001300344U 280000000000000000000000000000000000000000000000000000000000000000000000000000000000000000000000000000000000000000000000000203201700000000            000000000000000                              000                           
0010001300345T 280180230000001544772 29577050111738851   788888888888889901012017000000000007500001000000888888888888899          0900000000000000000000000000000000000000000000000000000   000000000000000000000005002        170192957705     
0010001300346U 280000000000000000000000000000000000000000000000000000000000000000000000000000000000000000000000000000000000000000000000000203201700000000            000000000000000                              000                           
0010001300347T 280180230000001544772 29577050111745659   788888888888889901012017000000000007500001000000888888888888899          0900000000000000000000000000000000000000000000000000000   000000000000000000000005002        170192957705     
0010001300348U 280000000000000000000000000000000000000000000000000000000000000000000000000000000000000000000000000000000000000000000000000203201700000000            000000000000000                              000                           
0010001300349T 280180230000001544772 29577050111750464   788888888888889901012017000000000007500001000000888888888888899          0900000000000000000000000000000000000000000000000000000   000000000000000000000005002        170192957705     
0010001300350U 280000000000000000000000000000000000000000000000000000000000000000000000000000000000000000000000000000000000000000000000000203201700000000            000000000000000                              000                           
0010001300351T 280180230000001544772 29577050111757803   788888888888889901012017000000000007500001000000888888888888899          0900000000000000000000000000000000000000000000000000000   000000000000000000000005002        170192957705     
0010001300352U 280000000000000000000000000000000000000000000000000000000000000000000000000000000000000000000000000000000000000000000000000203201700000000            000000000000000                              000                           
0010001300353T 280180230000001544772 29577050111905140   788888888888889901012017000000000007500001000000888888888888899          0900000000000000000000000000000000000000000000000000000   000000000000000000000005002        170192957705     
0010001300354U 280000000000000000000000000000000000000000000000000000000000000000000000000000000000000000000000000000000000000000000000000203201700000000            000000000000000                              000                           
0010001300355T 280180230000001544772 29577050111908331   788888888888889901012017000000000007500001000000888888888888899          0900000000000000000000000000000000000000000000000000000   000000000000000000000005002        170192957705     
0010001300356U 280000000000000000000000000000000000000000000000000000000000000000000000000000000000000000000000000000000000000000000000000203201700000000            000000000000000                              000                           
0010001300357T 280180230000001544772 29577050112104263   788888888888889901012017000000000007500001000000888888888888899          0900000000000000000000000000000000000000000000000000000   000000000000000000000005002        170192957705     
0010001300358U 280000000000000000000000000000000000000000000000000000000000000000000000000000000000000000000000000000000000000000000000000203201700000000            000000000000000                              000                           
0010001300359T 280180230000001544772 29577050112136518   788888888888889901012017000000000007500001000000888888888888899          0900000000000000000000000000000000000000000000000000000   000000000000000000000005002        170192957705     
0010001300360U 280000000000000000000000000000000000000000000000000000000000000000000000000000000000000000000000000000000000000000000000000203201700000000            000000000000000                              000                           
0010001300361T 280180230000001544772 29577050112141384   788888888888889901012017000000000007500001000000888888888888899          0900000000000000000000000000000000000000000000000000000   000000000000000000000005002        170192957705     
0010001300362U 280000000000000000000000000000000000000000000000000000000000000000000000000000000000000000000000000000000000000000000000000203201700000000            000000000000000                              000                           
0010001300363T 280180230000001544772 29577050112337976   788888888888889901012017000000000007500001000000888888888888899          0900000000000000000000000000000000000000000000000000000   000000000000000000000005002        170192957705     
0010001300364U 280000000000000000000000000000000000000000000000000000000000000000000000000000000000000000000000000000000000000000000000000203201700000000            000000000000000                              000                           
0010001300365T 280180230000001544772 29577050112421436   788888888888889901012017000000000007500001000000888888888888899          0900000000000000000000000000000000000000000000000000000   000000000000000000000005002        170192957705     
0010001300366U 280000000000000000000000000000000000000000000000000000000000000000000000000000000000000000000000000000000000000000000000000203201700000000            000000000000000                              000                           
0010001300367T 280180230000001544772 29577050112541596   788888888888889901012017000000000007500001000000888888888888899          0900000000000000000000000000000000000000000000000000000   000000000000000000000005002        170192957705     
0010001300368U 280000000000000000000000000000000000000000000000000000000000000000000000000000000000000000000000000000000000000000000000000203201700000000            000000000000000                              000                           
0010001300369T 280180230000001544772 29577050112635432   788888888888889901012017000000000007500001000000888888888888899          0900000000000000000000000000000000000000000000000000000   000000000000000000000005002        170192957705     
0010001300370U 280000000000000000000000000000000000000000000000000000000000000000000000000000000000000000000000000000000000000000000000000203201700000000            000000000000000                              000                           
0010001300371T 280180230000001544772 29577050112739618   788888888888889901012017000000000007500001000000888888888888899          0900000000000000000000000000000000000000000000000000000   000000000000000000000005002        170192957705     
0010001300372U 280000000000000000000000000000000000000000000000000000000000000000000000000000000000000000000000000000000000000000000000000203201700000000            000000000000000                              000                           
0010001300373T 280180230000001544772 29577050112807724   788888888888889901012017000000000007500001000000888888888888899          0900000000000000000000000000000000000000000000000000000   000000000000000000000005002        170192957705     
0010001300374U 280000000000000000000000000000000000000000000000000000000000000000000000000000000000000000000000000000000000000000000000000203201700000000            000000000000000                              000                           
0010001300375T 280180230000001544772 29577050112934712   788888888888889901012017000000000007500001000000888888888888899          0900000000000000000000000000000000000000000000000000000   000000000000000000000005002        170192957705     
0010001300376U 280000000000000000000000000000000000000000000000000000000000000000000000000000000000000000000000000000000000000000000000000203201700000000            000000000000000                              000                           
0010001300377T 280180230000001544772 29577050113448342   788888888888889901012017000000000007500001000000888888888888899          0900000000000000000000000000000000000000000000000000000   000000000000000000000005002        170192957705     
0010001300378U 280000000000000000000000000000000000000000000000000000000000000000000000000000000000000000000000000000000000000000000000000203201700000000            000000000000000                              000                           
0010001300379T 280180230000001544772 29577050113512188   788888888888889901012017000000000007500001000000888888888888899          0900000000000000000000000000000000000000000000000000000   000000000000000000000005002        170192957705     
0010001300380U 280000000000000000000000000000000000000000000000000000000000000000000000000000000000000000000000000000000000000000000000000203201700000000            000000000000000                              000                           
0010001300381T 280180230000001544772 29577050113659026   788888888888889901012017000000000007500001000000888888888888899          0900000000000000000000000000000000000000000000000000000   000000000000000000000005002        170192957705     
0010001300382U 280000000000000000000000000000000000000000000000000000000000000000000000000000000000000000000000000000000000000000000000000203201700000000            000000000000000                              000                           
0010001300383T 280180230000001544772 29577050113813334   788888888888889901012017000000000007500001000000888888888888899          0900000000000000000000000000000000000000000000000000000   000000000000000000000005002        170192957705     
0010001300384U 280000000000000000000000000000000000000000000000000000000000000000000000000000000000000000000000000000000000000000000000000203201700000000            000000000000000                              000                           
0010001300385T 280180230000001544772 29577050113941798   788888888888889901012017000000000007500001000000888888888888899          0900000000000000000000000000000000000000000000000000000   000000000000000000000005002        170192957705     
0010001300386U 280000000000000000000000000000000000000000000000000000000000000000000000000000000000000000000000000000000000000000000000000203201700000000            000000000000000                              000                           
0010001300387T 280180230000001544772 29577050114153126   788888888888889901012017000000000007500001000000888888888888899          0900000000000000000000000000000000000000000000000000000   000000000000000000000005002        170192957705     
0010001300388U 280000000000000000000000000000000000000000000000000000000000000000000000000000000000000000000000000000000000000000000000000203201700000000            000000000000000                              000                           
0010001300389T 280180230000001544772 29577050114253570   788888888888889901012017000000000007500001000000888888888888899          0900000000000000000000000000000000000000000000000000000   000000000000000000000005002        170192957705     
0010001300390U 280000000000000000000000000000000000000000000000000000000000000000000000000000000000000000000000000000000000000000000000000203201700000000            000000000000000                              000                           
0010001300391T 280180230000001544772 29577050114353339   788888888888889901012017000000000007500001000000888888888888899          0900000000000000000000000000000000000000000000000000000   000000000000000000000005002        170192957705     
0010001300392U 280000000000000000000000000000000000000000000000000000000000000000000000000000000000000000000000000000000000000000000000000203201700000000            000000000000000                              000                           
0010001300393T 280180230000001544772 29577050135746692   788888888888889931012017000000000007500001000000888888888888899          0900000000000000000000000000000000000000000000000000000   000000000000000000000005002        170192957705     
0010001300394U 280000000000000000000000000000000000000000000000000000000000000000000000000000000000000000000000000000000000000000000000000203201700000000            000000000000000                              000                           
0010001300395T 280180230000001544772 29577050145408136   788888888888889931012017000000000007500001000000888888888888899          0900000000000000000000000000000000000000000000000000000   000000000000000000000005002        170192957705     
0010001300396U 280000000000000000000000000000000000000000000000000000000000000000000000000000000000000000000000000000000000000000000000000203201700000000            000000000000000                              000                           
0010001300397T 280180230000001544772 29577050152212581   788888888888889931012017000000000007500001000000888888888888899          0900000000000000000000000000000000000000000000000000000   000000000000000000000005002        170192957705     
0010001300398U 280000000000000000000000000000000000000000000000000000000000000000000000000000000000000000000000000000000000000000000000000203201700000000            000000000000000                              000                           
0010001300399T 280180230000001544772 29577050154717822   788888888888889931012017000000000007500001000000888888888888899          0900000000000000000000000000000000000000000000000000000   000000000000000000000005002        170192957705     
0010001300400U 280000000000000000000000000000000000000000000000000000000000000000000000000000000000000000000000000000000000000000000000000203201700000000            000000000000000                              000                           
0010001300401T 280180230000001544772 29577050154755807   788888888888889931012017000000000007500001000000888888888888899          0900000000000000000000000000000000000000000000000000000   000000000000000000000005002        170192957705     
0010001300402U 280000000000000000000000000000000000000000000000000000000000000000000000000000000000000000000000000000000000000000000000000203201700000000            000000000000000                              000                           
0010001300403T 280180230000001544772 29577050169919820   788888888888889931012017000000000007500001000000888888888888899          0900000000000000000000000000000000000000000000000000000   000000000000000000000005002        170192957705     
0010001300404U 280000000000000000000000000000000000000000000000000000000000000000000000000000000000000000000000000000000000000000000000000203201700000000            000000000000000                              000                           
0010001300405T 280180230000001544772 29577050203952982   788888888888889931012017000000000007500001000000888888888888899          0900000000000000000000000000000000000000000000000000000   000000000000000000000005002        170192957705     
0010001300406U 280000000000000000000000000000000000000000000000000000000000000000000000000000000000000000000000000000000000000000000000000203201700000000            000000000000000                              000                           
0010001300407T 280180230000001544772 29577050215642913   788888888888889931012017000000000010000001000000888888888888899          0900000000000000000000000000000000000000000000000000000   000000000000000000000005002        170192957705     
0010001300408U 280000000000000000000000000000000000000000000000000000000000000000000000000000000000000000000000000000000000000000000000000203201700000000            000000000000000                              000                           
0010001300409T 280180230000001544772 29577050243917082   788888888888889931012017000000000007500001000000888888888888899          0900000000000000000000000000000000000000000000000000000   000000000000000000000005002        170192957705     
0010001300410U 280000000000000000000000000000000000000000000000000000000000000000000000000000000000000000000000000000000000000000000000000203201700000000            000000000000000                              000                           
0010001300411T 280180230000001544772 29577050281902900   788888888888889931012017000000000007500001000000888888888888899          0900000000000000000000000000000000000000000000000000000   000000000000000000000005002        170192957705     
0010001300412U 280000000000000000000000000000000000000000000000000000000000000000000000000000000000000000000000000000000000000000000000000203201700000000            000000000000000                              000                           
