00100000         2247745860001000029577050014       0180230000001544772 INSTITUTO DE SELECAO E TECNOLOBANCO DO BRASIL                         22212201601393000001803000000515122941PROCESSAMEN                                                 
00100011T0100020 20247745860001000029577050014       0180230000001544772 INSTITUTO DE SELECAO E TECNOLO                                                                                000000002212201600000000  000000000                      
0010001300001T 020180230000001544772 29577050004704390   747530          2312201600000000000750000100021347530                    0900000000000010000000000000000000000000000000000000000   0000000000000000000000000A9        170192957705     
0010001300002U 020000000000000000000000000000000000000000000000000000000000000000000000000000000000000000000000000000000000000000000000002212201600000000            000000000000000                              000                           
0010001300003T 020180230000001544772 29577050005203912   752874          2312201600000000000750000101240852874                    0900000000000010000000000000000000000000000000000000000   0000000000000000000000000A9        170192957705     
0010001300004U 020000000000000000000000000000000000000000000000000000000000000000000000000000000000000000000000000000000000000000000000002212201600000000            000000000000000                              000                           
0010001300005T 020180230000001544772 29577050005507170   755896          2312201600000000001000000100021355896                    0900000000000010000000000000000000000000000000000000000   0000000000000000000000000A9        170192957705     
0010001300006U 020000000000000000000000000000000000000000000000000000000000000000000000000000000000000000000000000000000000000000000000002212201600000000            000000000000000                              000                           
0010001300007T 020180230000001544772 29577050005717382   757475          2312201600000000000750000100021357475                    0900000000000010000000000000000000000000000000000000000   0000000000000000000000000A9        170192957705     
0010001300008U 020000000000000000000000000000000000000000000000000000000000000000000000000000000000000000000000000000000000000000000000002212201600000000            000000000000000                              000                           
0010001300009T 020180230000001544772 29577050005812054   758297          2312201600000000000750000100021358297                    0900000000000010000000000000000000000000000000000000000   0000000000000000000000000A9        170192957705     
0010001300010U 020000000000000000000000000000000000000000000000000000000000000000000000000000000000000000000000000000000000000000000000002212201600000000            000000000000000                              000                           
0010001300011T 020180230000001544772 29577050005933015   759932          2312201600000000000750000100021359932                    0900000000000010000000000000000000000000000000000000000   0000000000000000000000000A9        170192957705     
0010001300012U 020000000000000000000000000000000000000000000000000000000000000000000000000000000000000000000000000000000000000000000000002212201600000000            000000000000000                              000                           
0010001300013T 020180230000001544772 29577050006040101   760596          2312201600000000000750000100021360596                    0900000000000010000000000000000000000000000000000000000   0000000000000000000000000A9        170192957705     
0010001300014U 020000000000000000000000000000000000000000000000000000000000000000000000000000000000000000000000000000000000000000000000002212201600000000            000000000000000                              000                           
0010001300015T 020180230000001544772 29577050006110070   761943          2312201600000000000750000100021361943                    0900000000000010000000000000000000000000000000000000000   0000000000000000000000000A9        170192957705     
0010001300016U 020000000000000000000000000000000000000000000000000000000000000000000000000000000000000000000000000000000000000000000000002212201600000000            000000000000000                              000                           
0010001300017T 020180230000001544772 29577050006200170   762368          2312201600000000000750000101241662368                    0900000000000010000000000000000000000000000000000000000   0000000000000000000000000A9        170192957705     
0010001300018U 020000000000000000000000000000000000000000000000000000000000000000000000000000000000000000000000000000000000000000000000002212201600000000            000000000000000                              000                           
0010001300019T 020180230000001544772 29577050006443723   764077          2312201600000000000750000100021364077                    0900000000000010000000000000000000000000000000000000000   0000000000000000000000000A9        170192957705     
0010001300020U 020000000000000000000000000000000000000000000000000000000000000000000000000000000000000000000000000000000000000000000000002212201600000000            000000000000000                              000                           
0010001300021T 020180230000001544772 29577050006606721   766976          2312201600000000000750000103049X66976                    0900000000000010000000000000000000000000000000000000000   0000000000000000000000000A9        170192957705     
0010001300022U 020000000000000000000000000000000000000000000000000000000000000000000000000000000000000000000000000000000000000000000000002212201600000000            000000000000000                              000                           
0010001300023T 020180230000001544772 29577050006612669   766962          2312201600000000000750000103049X66962                    0900000000000010000000000000000000000000000000000000000   0000000000000000000000000A9        170192957705     
0010001300024U 020000000000000000000000000000000000000000000000000000000000000000000000000000000000000000000000000000000000000000000000002212201600000000            000000000000000                              000                           
0010001300025T 020180230000001544772 29577050006836764   768839          2312201600000000000750000101241668839                    0900000000000010000000000000000000000000000000000000000   0000000000000000000000000A9        170192957705     
0010001300026U 020000000000000000000000000000000000000000000000000000000000000000000000000000000000000000000000000000000000000000000000002212201600000000            000000000000000                              000                           
0010001300027T 020180230000001544772 29577050007106714   771784          2312201600000000000750000101241671784                    0900000000000010000000000000000000000000000000000000000   0000000000000000000000000A9        170192957705     
0010001300028U 020000000000000000000000000000000000000000000000000000000000000000000000000000000000000000000000000000000000000000000000002212201600000000            000000000000000                              000                           
0010001300029T 020180230000001544772 29577050007226475   772916          2312201600000000000750000101241672916                    0900000000000010000000000000000000000000000000000000000   0000000000000000000000000A9        170192957705     
0010001300030U 020000000000000000000000000000000000000000000000000000000000000000000000000000000000000000000000000000000000000000000000002212201600000000            000000000000000                              000                           
0010001300031T 020180230000001544772 29577050007517555   775740          2312201600000000000750000101240875740                    0900000000000010000000000000000000000000000000000000000   0000000000000000000000000A9        170192957705     
0010001300032U 020000000000000000000000000000000000000000000000000000000000000000000000000000000000000000000000000000000000000000000000002212201600000000            000000000000000                              000                           
0010001300033T 020180230000001544772 29577050007647281   776716          2312201600000000000750000101241676716                    0900000000000010000000000000000000000000000000000000000   0000000000000000000000000A9        170192957705     
0010001300034U 020000000000000000000000000000000000000000000000000000000000000000000000000000000000000000000000000000000000000000000000002212201600000000            000000000000000                              000                           
0010001300035T 020180230000001544772 29577050007804527   778225          2312201600000000000750000101240878225                    0900000000000010000000000000000000000000000000000000000   0000000000000000000000000A9        170192957705     
0010001300036U 020000000000000000000000000000000000000000000000000000000000000000000000000000000000000000000000000000000000000000000000002212201600000000            000000000000000                              000                           
0010001300037T 020180230000001544772 29577050007814337   778189          2312201600000000000750000101240878189                    0900000000000010000000000000000000000000000000000000000   0000000000000000000000000A9        170192957705     
0010001300038U 020000000000000000000000000000000000000000000000000000000000000000000000000000000000000000000000000000000000000000000000002212201600000000            000000000000000                              000                           
0010001300039T 020180230000001544772 29577050007949528   779431          2312201600000000000750000101241679431                    0900000000000010000000000000000000000000000000000000000   0000000000000000000000000A9        170192957705     
0010001300040U 020000000000000000000000000000000000000000000000000000000000000000000000000000000000000000000000000000000000000000000000002212201600000000            000000000000000                              000                           
0010001300041T 020180230000001544772 29577050008434090   784342          2312201600000000000750000101241684342                    0900000000000010000000000000000000000000000000000000000   0000000000000000000000000A9        170192957705     
0010001300042U 020000000000000000000000000000000000000000000000000000000000000000000000000000000000000000000000000000000000000000000000002212201600000000            000000000000000                              000                           
0010001300043T 020180230000001544772 29577050008551414   785895          2312201600000000000750000101240885895                    0900000000000010000000000000000000000000000000000000000   0000000000000000000000000A9        170192957705     
0010001300044U 020000000000000000000000000000000000000000000000000000000000000000000000000000000000000000000000000000000000000000000000002212201600000000            000000000000000                              000                           
0010001300045T 020180230000001544772 29577050008718779   787368          2312201600000000000750000101241687368                    0900000000000010000000000000000000000000000000000000000   0000000000000000000000000A9        170192957705     
0010001300046U 020000000000000000000000000000000000000000000000000000000000000000000000000000000000000000000000000000000000000000000000002212201600000000            000000000000000                              000                           
0010001300047T 020180230000001544772 29577050008853855   788003          2312201600000000001000000100021388003                    0900000000000010000000000000000000000000000000000000000   0000000000000000000000000A9        170192957705     
0010001300048U 020000000000000000000000000000000000000000000000000000000000000000000000000000000000000000000000000000000000000000000000002212201600000000            000000000000000                              000                           
0010001300049T 020180230000001544772 29577050009209007   792476          2312201600000000000750000101240892476                    0900000000000010000000000000000000000000000000000000000   0000000000000000000000000A9        170192957705     
0010001300050U 020000000000000000000000000000000000000000000000000000000000000000000000000000000000000000000000000000000000000000000000002212201600000000            000000000000000                              000                           
0010001300051T 020180230000001544772 29577050009556045   795458          2312201600000000001000000100021395458                    0900000000000010000000000000000000000000000000000000000   0000000000000000000000000A9        170192957705     
0010001300052U 020000000000000000000000000000000000000000000000000000000000000000000000000000000000000000000000000000000000000000000000002212201600000000            000000000000000                              000                           
0010001300053T 020180230000001544772 29577050009623527   796844          2312201600000000000750000103049X96844                    0900000000000010000000000000000000000000000000000000000   0000000000000000000000000A9        170192957705     
0010001300054U 020000000000000000000000000000000000000000000000000000000000000000000000000000000000000000000000000000000000000000000000002212201600000000            000000000000000                              000                           
0010001300055T 020180230000001544772 29577050009806932   798040          2312201600000000000750000100021398040                    0900000000000010000000000000000000000000000000000000000   0000000000000000000000000A9        170192957705     
0010001300056U 020000000000000000000000000000000000000000000000000000000000000000000000000000000000000000000000000000000000000000000000002212201600000000            000000000000000                              000                           
0010001300057T 020180230000001544772 29577050010000013   7100804         23122016000000000007500001000213100804                   0900000000000010000000000000000000000000000000000000000   0000000000000000000000000A9        170192957705     
0010001300058U 020000000000000000000000000000000000000000000000000000000000000000000000000000000000000000000000000000000000000000000000002212201600000000            000000000000000                              000                           
0010001300059T 020180230000001544772 29577050010148630   7101990         23122016000000000007500001012408101990                   0900000000000010000000000000000000000000000000000000000   0000000000000000000000000A9        170192957705     
0010001300060U 020000000000000000000000000000000000000000000000000000000000000000000000000000000000000000000000000000000000000000000000002212201600000000            000000000000000                              000                           
0010001300061T 020180230000001544772 29577050010529407   7105730         23122016000000000007500001012416105730                   0900000000000010000000000000000000000000000000000000000   0000000000000000000000000A9        170192957705     
0010001300062U 020000000000000000000000000000000000000000000000000000000000000000000000000000000000000000000000000000000000000000000000002212201600000000            000000000000000                              000                           
0010001300063T 020180230000001544772 29577050010920739   7109937         23122016000000000010000001012408109937                   0900000000000010000000000000000000000000000000000000000   0000000000000000000000000A9        170192957705     
0010001300064U 020000000000000000000000000000000000000000000000000000000000000000000000000000000000000000000000000000000000000000000000002212201600000000            000000000000000                              000                           
0010001300065T 020180230000001544772 29577050011332543   7113870         23122016000000000007500001012408113870                   0900000000000010500000000000000000000000000000000000000   0000000000000000000000000A9A4      170192957705     
0010001300066U 020000000000000000000000000000000000000000000000000000000000000000000000000000000000000000000000000000000000000000000000002212201600000000            000000000000000                              000                           
0010001300067T 020180230000001544772 29577050011356873   7113617         23122016000000000007500001012408113617                   0900000000000010500000000000000000000000000000000000000   0000000000000000000000000A9A4      170192957705     
0010001300068U 020000000000000000000000000000000000000000000000000000000000000000000000000000000000000000000000000000000000000000000000002212201600000000            000000000000000                              000                           
0010001300069T 020180230000001544772 29577050012014735   7120709         23122016000000000007500001012416120709                   0900000000000010000000000000000000000000000000000000000   0000000000000000000000000A9        170192957705     
0010001300070U 020000000000000000000000000000000000000000000000000000000000000000000000000000000000000000000000000000000000000000000000002212201600000000            000000000000000                              000                           
0010001300071T 020180230000001544772 29577050012147654   7121057         23122016000000000007500001012416121057                   0900000000000010000000000000000000000000000000000000000   0000000000000000000000000A9        170192957705     
0010001300072U 020000000000000000000000000000000000000000000000000000000000000000000000000000000000000000000000000000000000000000000000002212201600000000            000000000000000                              000                           
0010001300073T 020180230000001544772 29577050012259693   7122643         2312201600000000000750000103049X122643                   0900000000000010000000000000000000000000000000000000000   0000000000000000000000000A9        170192957705     
0010001300074U 020000000000000000000000000000000000000000000000000000000000000000000000000000000000000000000000000000000000000000000000002212201600000000            000000000000000                              000                           
0010001300075T 020180230000001544772 29577050012554852   7125680         2312201600000000000750000103049X125680                   0900000000000010000000000000000000000000000000000000000   0000000000000000000000000A9        170192957705     
0010001300076U 020000000000000000000000000000000000000000000000000000000000000000000000000000000000000000000000000000000000000000000000002212201600000000            000000000000000                              000                           
0010001300077T 020180230000001544772 29577050012705253   7127664         23122016000000000007500001000213127664                   0900000000000010500000000000000000000000000000000000000   0000000000000000000000000A9A4      170192957705     
0010001300078U 020000000000000000000000000000000000000000000000000000000000000000000000000000000000000000000000000000000000000000000000002212201600000000            000000000000000                              000                           
0010001300079T 020180230000001544772 29577050012802673   7128755         23122016000000000007500001046280128755                   0900000000000010000000000000000000000000000000000000000   0000000000000000000000000A9        170192957705     
0010001300080U 020000000000000000000000000000000000000000000000000000000000000000000000000000000000000000000000000000000000000000000000002212201600000000            000000000000000                              000                           
0010001300081T 020180230000001544772 29577050012928757   7129741         23122016000000000007500001046280129741                   0900000000000010000000000000000000000000000000000000000   0000000000000000000000000A9        170192957705     
0010001300082U 020000000000000000000000000000000000000000000000000000000000000000000000000000000000000000000000000000000000000000000000002212201600000000            000000000000000                              000                           
0010001300083T 020180230000001544772 29577050013033101   7130309         23122016000000000007500001012408130309                   0900000000000010000000000000000000000000000000000000000   0000000000000000000000000A9        170192957705     
0010001300084U 020000000000000000000000000000000000000000000000000000000000000000000000000000000000000000000000000000000000000000000000002212201600000000            000000000000000                              000                           
0010001300085T 020180230000001544772 29577050013145310   7131797         23122016000000000007500001000213131797                   0900000000000010000000000000000000000000000000000000000   0000000000000000000000000A9        170192957705     
0010001300086U 020000000000000000000000000000000000000000000000000000000000000000000000000000000000000000000000000000000000000000000000002212201600000000            000000000000000                              000                           
0010001300087T 020180230000001544772 29577050013407664   7134289         23122016000000000007500001000213134289                   0900000000000010000000000000000000000000000000000000000   0000000000000000000000000A9        170192957705     
0010001300088U 020000000000000000000000000000000000000000000000000000000000000000000000000000000000000000000000000000000000000000000000002212201600000000            000000000000000                              000                           
0010001300089T 020180230000001544772 29577050013424149   7134619         24122016000000000007500001000213134619                   0900000000000010000000000000000000000000000000000000000   0000000000000000000000000A9        170192957705     
0010001300090U 020000000000000000000000000000000000000000000000000000000000000000000000000000000000000000000000000000000000000000000000002212201600000000            000000000000000                              000                           
0010001300091T 020180230000001544772 29577050013532074   7135338         23122016000000000007500001000213135338                   0900000000000010000000000000000000000000000000000000000   0000000000000000000000000A9        170192957705     
0010001300092U 020000000000000000000000000000000000000000000000000000000000000000000000000000000000000000000000000000000000000000000000002212201600000000            000000000000000                              000                           
0010001300093T 020180230000001544772 29577050013634049   7136710         23122016000000000007500001000213136710                   0900000000000010000000000000000000000000000000000000000   0000000000000000000000000A9        170192957705     
0010001300094U 020000000000000000000000000000000000000000000000000000000000000000000000000000000000000000000000000000000000000000000000002212201600000000            000000000000000                              000                           
0010001300095T 020180230000001544772 29577050013720263   7137043         23122016000000000007500001000213137043                   0900000000000010000000000000000000000000000000000000000   0000000000000000000000000A9        170192957705     
0010001300096U 020000000000000000000000000000000000000000000000000000000000000000000000000000000000000000000000000000000000000000000000002212201600000000            000000000000000                              000                           
0010001300097T 020180230000001544772 29577050013814841   7138057         2312201600000000000750000103049X138057                   0900000000000010000000000000000000000000000000000000000   0000000000000000000000000A9        170192957705     
0010001300098U 020000000000000000000000000000000000000000000000000000000000000000000000000000000000000000000000000000000000000000000000002212201600000000            000000000000000                              000                           
0010001300099T 020180230000001544772 29577050013902539   7139109         23122016000000000007500001000213139109                   0900000000000010000000000000000000000000000000000000000   0000000000000000000000000A9        170192957705     
0010001300100U 020000000000000000000000000000000000000000000000000000000000000000000000000000000000000000000000000000000000000000000000002212201600000000            000000000000000                              000                           
0010001300101T 020180230000001544772 29577050013924301   7139556         23122016000000000007500001000213139556                   0900000000000010000000000000000000000000000000000000000   0000000000000000000000000A9        170192957705     
0010001300102U 020000000000000000000000000000000000000000000000000000000000000000000000000000000000000000000000000000000000000000000000002212201600000000            000000000000000                              000                           
0010001300103T 020180230000001544772 29577050014118488   7141284         23122016000000000007500001012416141284                   0900000000000010500000000000000000000000000000000000000   0000000000000000000000000A9A4      170192957705     
0010001300104U 020000000000000000000000000000000000000000000000000000000000000000000000000000000000000000000000000000000000000000000000002212201600000000            000000000000000                              000                           
0010001300105T 020180230000001544772 29577050014708557   7147066         2312201600000000001000000103049X147066                   0900000000000010000000000000000000000000000000000000000   0000000000000000000000000A9        170192957705     
0010001300106U 020000000000000000000000000000000000000000000000000000000000000000000000000000000000000000000000000000000000000000000000002212201600000000            000000000000000                              000                           
0010001300107T 020180230000001544772 29577050014712498   7147780         2312201600000000001000000103049X147780                   0900000000000010000000000000000000000000000000000000000   0000000000000000000000000A9        170192957705     
0010001300108U 020000000000000000000000000000000000000000000000000000000000000000000000000000000000000000000000000000000000000000000000002212201600000000            000000000000000                              000                           
0010001300109T 020180230000001544772 29577050014757116   7147431         2312201600000000001000000103049X147431                   0900000000000010000000000000000000000000000000000000000   0000000000000000000000000A9        170192957705     
0010001300110U 020000000000000000000000000000000000000000000000000000000000000000000000000000000000000000000000000000000000000000000000002212201600000000            000000000000000                              000                           
0010001300111T 020180230000001544772 29577050014847700   7148774         23122016000000000007500001000213148774                   0900000000000010000000000000000000000000000000000000000   0000000000000000000000000A9        170192957705     
0010001300112U 020000000000000000000000000000000000000000000000000000000000000000000000000000000000000000000000000000000000000000000000002212201600000000            000000000000000                              000                           
0010001300113T 020180230000001544772 29577050014944263   7149578         2312201600000000000750000103049X149578                   0900000000000010500000000000000000000000000000000000000   0000000000000000000000000A9A4      170192957705     
0010001300114U 020000000000000000000000000000000000000000000000000000000000000000000000000000000000000000000000000000000000000000000000002212201600000000            000000000000000                              000                           
0010001300115T 020180230000001544772 29577050015039069   7150078         23122016000000000007500001012416150078                   0900000000000010000000000000000000000000000000000000000   0000000000000000000000000A9        170192957705     
0010001300116U 020000000000000000000000000000000000000000000000000000000000000000000000000000000000000000000000000000000000000000000000002212201600000000            000000000000000                              000                           
0010001300117T 020180230000001544772 29577050015215356   7152780         23122016000000000007500001012408152780                   0900000000000010000000000000000000000000000000000000000   0000000000000000000000000A9        170192957705     
0010001300118U 020000000000000000000000000000000000000000000000000000000000000000000000000000000000000000000000000000000000000000000000002212201600000000            000000000000000                              000                           
0010001300119T 020180230000001544772 29577050015307596   7153343         2312201600000000000750000103049X153343                   0900000000000010000000000000000000000000000000000000000   0000000000000000000000000A9        170192957705     
0010001300120U 020000000000000000000000000000000000000000000000000000000000000000000000000000000000000000000000000000000000000000000000002212201600000000            000000000000000                              000                           
0010001300121T 020180230000001544772 29577050015402525   7154974         23122016000000000007500001000213154974                   0900000000000010000000000000000000000000000000000000000   0000000000000000000000000A9        170192957705     
0010001300122U 020000000000000000000000000000000000000000000000000000000000000000000000000000000000000000000000000000000000000000000000002212201600000000            000000000000000                              000                           
0010001300123T 020180230000001544772 29577050015755300   7157670         23122016000000000010000001000213157670                   0900000000000010000000000000000000000000000000000000000   0000000000000000000000000A9        170192957705     
0010001300124U 020000000000000000000000000000000000000000000000000000000000000000000000000000000000000000000000000000000000000000000000002212201600000000            000000000000000                              000                           
0010001300125T 020180230000001544772 29577050015852292   7158451         2312201600000000000750000103049X158451                   0900000000000010000000000000000000000000000000000000000   0000000000000000000000000A9        170192957705     
0010001300126U 020000000000000000000000000000000000000000000000000000000000000000000000000000000000000000000000000000000000000000000000002212201600000000            000000000000000                              000                           
0010001300127T 020180230000001544772 29577050016221052   7162527         23122016000000000007500001030864162527                   0900000000000010500000000000000000000000000000000000000   0000000000000000000000000A9A4      170192957705     
0010001300128U 020000000000000000000000000000000000000000000000000000000000000000000000000000000000000000000000000000000000000000000000002212201600000000            000000000000000                              000                           
0010001300129T 020180230000001544772 29577050016715473   7167636         23122016000000000007500001000213167636                   0900000000000010000000000000000000000000000000000000000   0000000000000000000000000A9        170192957705     
0010001300130U 020000000000000000000000000000000000000000000000000000000000000000000000000000000000000000000000000000000000000000000000002212201600000000            000000000000000                              000                           
0010001300131T 020180230000001544772 29577050016833705   7168899         23122016000000000007500001000213168899                   0900000000000010000000000000000000000000000000000000000   0000000000000000000000000A9        170192957705     
0010001300132U 020000000000000000000000000000000000000000000000000000000000000000000000000000000000000000000000000000000000000000000000002212201600000000            000000000000000                              000                           
0010001300133T 020180230000001544772 29577050017046024   7170219         23122016000000000010000001012416170219                   0900000000000010000000000000000000000000000000000000000   0000000000000000000000000A9        170192957705     
0010001300134U 020000000000000000000000000000000000000000000000000000000000000000000000000000000000000000000000000000000000000000000000002212201600000000            000000000000000                              000                           
0010001300135T 020180230000001544772 29577050017108451   7171090         23122016000000000007500001012408171090                   0900000000000010000000000000000000000000000000000000000   0000000000000000000000000A9        170192957705     
0010001300136U 020000000000000000000000000000000000000000000000000000000000000000000000000000000000000000000000000000000000000000000000002212201600000000            000000000000000                              000                           
0010001300137T 020180230000001544772 29577050017235045   7172617         23122016000000000010000001012408172617                   0900000000000010000000000000000000000000000000000000000   0000000000000000000000000A9        170192957705     
0010001300138U 020000000000000000000000000000000000000000000000000000000000000000000000000000000000000000000000000000000000000000000000002212201600000000            000000000000000                              000                           
0010001300139T 020180230000001544772 29577050017416623   7174237         24122016000000000007500001009245174237                   0900000000000010000000000000000000000000000000000000000   0000000000000000000000000A9        170192957705     
0010001300140U 020000000000000000000000000000000000000000000000000000000000000000000000000000000000000000000000000000000000000000000000002212201600000000            000000000000000                              000                           
0010001300141T 020180230000001544772 29577050017419625   7174779         23122016000000000007500001009245174779                   0900000000000010000000000000000000000000000000000000000   0000000000000000000000000A9        170192957705     
0010001300142U 020000000000000000000000000000000000000000000000000000000000000000000000000000000000000000000000000000000000000000000000002212201600000000            000000000000000                              000                           
0010001300143T 020180230000001544772 29577050017429517   7174941         23122016000000000007500001009245174941                   0900000000000010000000000000000000000000000000000000000   0000000000000000000000000A9        170192957705     
0010001300144U 020000000000000000000000000000000000000000000000000000000000000000000000000000000000000000000000000000000000000000000000002212201600000000            000000000000000                              000                           
0010001300145T 020180230000001544772 29577050017724424   7177984         23122016000000000007500001000213177984                   0900000000000010500000000000000000000000000000000000000   0000000000000000000000000A9A4      170192957705     
0010001300146U 020000000000000000000000000000000000000000000000000000000000000000000000000000000000000000000000000000000000000000000000002212201600000000            000000000000000                              000                           
0010001300147T 020180230000001544772 29577050018059476   7180360         2312201600000000000750000103049X180360                   0900000000000010500000000000000000000000000000000000000   0000000000000000000000000A9A4      170192957705     
0010001300148U 020000000000000000000000000000000000000000000000000000000000000000000000000000000000000000000000000000000000000000000000002212201600000000            000000000000000                              000                           
0010001300149T 020180230000001544772 29577050018118786   7181685         23122016000000000007500001009245181685                   0900000000000010000000000000000000000000000000000000000   0000000000000000000000000A9        170192957705     
0010001300150U 020000000000000000000000000000000000000000000000000000000000000000000000000000000000000000000000000000000000000000000000002212201600000000            000000000000000                              000                           
0010001300151T 020180230000001544772 29577050018348091   7183517         23122016000000000007500001012408183517                   0900000000000010000000000000000000000000000000000000000   0000000000000000000000000A9        170192957705     
0010001300152U 020000000000000000000000000000000000000000000000000000000000000000000000000000000000000000000000000000000000000000000000002212201600000000            000000000000000                              000                           
0010001300153T 020180230000001544772 29577050018513985   7185162         23122016000000000007500001012408185162                   0900000000000010500000000000000000000000000000000000000   0000000000000000000000000A9A4      170192957705     
0010001300154U 020000000000000000000000000000000000000000000000000000000000000000000000000000000000000000000000000000000000000000000000002212201600000000            000000000000000                              000                           
0010001300155T 020180230000001544772 29577050018659912   7186079         23122016000000000007500001012408186079                   0900000000000010000000000000000000000000000000000000000   0000000000000000000000000A9        170192957705     
0010001300156U 020000000000000000000000000000000000000000000000000000000000000000000000000000000000000000000000000000000000000000000000002212201600000000            000000000000000                              000                           
0010001300157T 020180230000001544772 29577050018747080   7187983         23122016000000000007500001012408187983                   0900000000000010000000000000000000000000000000000000000   0000000000000000000000000A9        170192957705     
0010001300158U 020000000000000000000000000000000000000000000000000000000000000000000000000000000000000000000000000000000000000000000000002212201600000000            000000000000000                              000                           
0010001300159T 020180230000001544772 29577050018828556   7188503         23122016000000000007500001012416188503                   0900000000000010000000000000000000000000000000000000000   0000000000000000000000000A9        170192957705     
0010001300160U 020000000000000000000000000000000000000000000000000000000000000000000000000000000000000000000000000000000000000000000000002212201600000000            000000000000000                              000                           
0010001300161T 020180230000001544772 29577050018923291   7189754         23122016000000000007500001012408189754                   0900000000000010000000000000000000000000000000000000000   0000000000000000000000000A9        170192957705     
0010001300162U 020000000000000000000000000000000000000000000000000000000000000000000000000000000000000000000000000000000000000000000000002212201600000000            000000000000000                              000                           
0010001300163T 020180230000001544772 29577050019136655   7191765         2312201600000000000750000103049X191765                   0900000000000010000000000000000000000000000000000000000   0000000000000000000000000A9        170192957705     
0010001300164U 020000000000000000000000000000000000000000000000000000000000000000000000000000000000000000000000000000000000000000000000002212201600000000            000000000000000                              000                           
0010001300165T 020180230000001544772 29577050019332565   7193522         23122016000000000010000001012408193522                   0900000000000010000000000000000000000000000000000000000   0000000000000000000000000A9        170192957705     
0010001300166U 020000000000000000000000000000000000000000000000000000000000000000000000000000000000000000000000000000000000000000000000002212201600000000            000000000000000                              000                           
0010001300167T 020180230000001544772 29577050019421039   7194486         23122016000000000010000001000213194486                   0900000000000010000000000000000000000000000000000000000   0000000000000000000000000A9        170192957705     
0010001300168U 020000000000000000000000000000000000000000000000000000000000000000000000000000000000000000000000000000000000000000000000002212201600000000            000000000000000                              000                           
0010001300169T 020180230000001544772 29577050019559095   7195512         23122016000000000007500001012408195512                   0900000000000010000000000000000000000000000000000000000   0000000000000000000000000A9        170192957705     
0010001300170U 020000000000000000000000000000000000000000000000000000000000000000000000000000000000000000000000000000000000000000000000002212201600000000            000000000000000                              000                           
0010001300171T 020180230000001544772 29577050020048379   7200228         2312201600000000000750000103049X200228                   0900000000000010000000000000000000000000000000000000000   0000000000000000000000000A9        170192957705     
0010001300172U 020000000000000000000000000000000000000000000000000000000000000000000000000000000000000000000000000000000000000000000000002212201600000000            000000000000000                              000                           
0010001300173T 020180230000001544772 29577050020130213   7201090         23122016000000000007500001012408201090                   0900000000000010500000000000000000000000000000000000000   0000000000000000000000000A9A4      170192957705     
0010001300174U 020000000000000000000000000000000000000000000000000000000000000000000000000000000000000000000000000000000000000000000000002212201600000000            000000000000000                              000                           
0010001300175T 020180230000001544772 29577050020235400   7202572         23122016000000000010000001012408202572                   0900000000000010000000000000000000000000000000000000000   0000000000000000000000000A9        170192957705     
0010001300176U 020000000000000000000000000000000000000000000000000000000000000000000000000000000000000000000000000000000000000000000000002212201600000000            000000000000000                              000                           
0010001300177T 020180230000001544772 29577050020445796   7204191         23122016000000000007500001000213204191                   0900000000000010000000000000000000000000000000000000000   0000000000000000000000000A9        170192957705     
0010001300178U 020000000000000000000000000000000000000000000000000000000000000000000000000000000000000000000000000000000000000000000000002212201600000000            000000000000000                              000                           
0010001300179T 020180230000001544772 29577050020542989   7205432         23122016000000000007500001012416205432                   0900000000000010000000000000000000000000000000000000000   0000000000000000000000000A9        170192957705     
0010001300180U 020000000000000000000000000000000000000000000000000000000000000000000000000000000000000000000000000000000000000000000000002212201600000000            000000000000000                              000                           
0010001300181T 020180230000001544772 29577050020600691   7206417         23122016000000000010000001000213206417                   0900000000000010000000000000000000000000000000000000000   0000000000000000000000000A9        170192957705     
0010001300182U 020000000000000000000000000000000000000000000000000000000000000000000000000000000000000000000000000000000000000000000000002212201600000000            000000000000000                              000                           
0010001300183T 020180230000001544772 29577050020814518   7208262         2312201600000000000750000103049X208262                   0900000000000010000000000000000000000000000000000000000   0000000000000000000000000A9        170192957705     
0010001300184U 020000000000000000000000000000000000000000000000000000000000000000000000000000000000000000000000000000000000000000000000002212201600000000            000000000000000                              000                           
0010001300185T 020180230000001544772 29577050021635570   7216352         23122016000000000010000001000213216352                   0900000000000010000000000000000000000000000000000000000   0000000000000000000000000A9        170192957705     
0010001300186U 020000000000000000000000000000000000000000000000000000000000000000000000000000000000000000000000000000000000000000000000002212201600000000            000000000000000                              000                           
0010001300187T 020180230000001544772 29577050021713474   7217597         23122016000000000007500001012408217597                   0900000000000010000000000000000000000000000000000000000   0000000000000000000000000A9        170192957705     
0010001300188U 020000000000000000000000000000000000000000000000000000000000000000000000000000000000000000000000000000000000000000000000002212201600000000            000000000000000                              000                           
0010001300189T 020180230000001544772 29577050021942770   7219527         23122016000000000007500001009245219527                   0900000000000010000000000000000000000000000000000000000   0000000000000000000000000A9        170192957705     
0010001300190U 020000000000000000000000000000000000000000000000000000000000000000000000000000000000000000000000000000000000000000000000002212201600000000            000000000000000                              000                           
0010001300191T 020180230000001544772 29577050022017190   7220025         23122016000000000007500001000213220025                   0900000000000010500000000000000000000000000000000000000   0000000000000000000000000A9A4      170192957705     
0010001300192U 020000000000000000000000000000000000000000000000000000000000000000000000000000000000000000000000000000000000000000000000002212201600000000            000000000000000                              000                           
0010001300193T 020180230000001544772 29577050022120066   7221781         23122016000000000007500001000213221781                   0900000000000010000000000000000000000000000000000000000   0000000000000000000000000A9        170192957705     
0010001300194U 020000000000000000000000000000000000000000000000000000000000000000000000000000000000000000000000000000000000000000000000002212201600000000            000000000000000                              000                           
0010001300195T 020180230000001544772 29577050022829001   7228241         23122016000000000007500001000213228241                   0900000000000010000000000000000000000000000000000000000   0000000000000000000000000A9        170192957705     
0010001300196U 020000000000000000000000000000000000000000000000000000000000000000000000000000000000000000000000000000000000000000000000002212201600000000            000000000000000                              000                           
0010001300197T 020180230000001544772 29577050022917724   7229454         23122016000000000007500001000213229454                   0900000000000010000000000000000000000000000000000000000   0000000000000000000000000A9        170192957705     
0010001300198U 020000000000000000000000000000000000000000000000000000000000000000000000000000000000000000000000000000000000000000000000002212201600000000            000000000000000                              000                           
0010001300199T 020180230000001544772 29577050023113988   7231144         23122016000000000007500001000213231144                   0900000000000010000000000000000000000000000000000000000   0000000000000000000000000A9        170192957705     
0010001300200U 020000000000000000000000000000000000000000000000000000000000000000000000000000000000000000000000000000000000000000000000002212201600000000            000000000000000                              000                           
0010001300201T 020180230000001544772 29577050023352969   7233363         23122016000000000007500001000213233363                   0900000000000010000000000000000000000000000000000000000   0000000000000000000000000A9        170192957705     
0010001300202U 020000000000000000000000000000000000000000000000000000000000000000000000000000000000000000000000000000000000000000000000002212201600000000            000000000000000                              000                           
0010001300203T 020180230000001544772 29577050023806224   7238428         23122016000000000007500001012408238428                   0900000000000010000000000000000000000000000000000000000   0000000000000000000000000A9        170192957705     
0010001300204U 020000000000000000000000000000000000000000000000000000000000000000000000000000000000000000000000000000000000000000000000002212201600000000            000000000000000                              000                           
0010001300205T 020180230000001544772 29577050023813618   7238490         23122016000000000007500001012408238490                   0900000000000010000000000000000000000000000000000000000   0000000000000000000000000A9        170192957705     
0010001300206U 020000000000000000000000000000000000000000000000000000000000000000000000000000000000000000000000000000000000000000000000002212201600000000            000000000000000                              000                           
0010001300207T 020180230000001544772 29577050023942079   7239154         23122016000000000007500001012416239154                   0900000000000010000000000000000000000000000000000000000   0000000000000000000000000A9        170192957705     
0010001300208U 020000000000000000000000000000000000000000000000000000000000000000000000000000000000000000000000000000000000000000000000002212201600000000            000000000000000                              000                           
0010001300209T 020180230000001544772 29577050024130810   7241754         23122016000000000007500001012408241754                   0900000000000010000000000000000000000000000000000000000   0000000000000000000000000A9        170192957705     
0010001300210U 020000000000000000000000000000000000000000000000000000000000000000000000000000000000000000000000000000000000000000000000002212201600000000            000000000000000                              000                           
0010001300211T 020180230000001544772 29577050024318800   7243994         2312201600000000000750000103049X243994                   0900000000000010000000000000000000000000000000000000000   0000000000000000000000000A9        170192957705     
0010001300212U 020000000000000000000000000000000000000000000000000000000000000000000000000000000000000000000000000000000000000000000000002212201600000000            000000000000000                              000                           
0010001300213T 020180230000001544772 29577050024445437   7244223         23122016000000000007500001000213244223                   0900000000000010000000000000000000000000000000000000000   0000000000000000000000000A9        170192957705     
0010001300214U 020000000000000000000000000000000000000000000000000000000000000000000000000000000000000000000000000000000000000000000000002212201600000000            000000000000000                              000                           
0010001300215T 020180230000001544772 29577050024536113   7245481         2312201600000000000750000103049X245481                   0900000000000010000000000000000000000000000000000000000   0000000000000000000000000A9        170192957705     
0010001300216U 020000000000000000000000000000000000000000000000000000000000000000000000000000000000000000000000000000000000000000000000002212201600000000            000000000000000                              000                           
0010001300217T 020180230000001544772 29577050024755389   7247974         23122016000000000007500001000213247974                   0900000000000010000000000000000000000000000000000000000   0000000000000000000000000A9        170192957705     
0010001300218U 020000000000000000000000000000000000000000000000000000000000000000000000000000000000000000000000000000000000000000000000002212201600000000            000000000000000                              000                           
0010001300219T 020180230000001544772 29577050026049311   7260213         2312201600000000000750000103049X260213                   0900000000000010000000000000000000000000000000000000000   0000000000000000000000000A9        170192957705     
0010001300220U 020000000000000000000000000000000000000000000000000000000000000000000000000000000000000000000000000000000000000000000000002212201600000000            000000000000000                              000                           
0010001300221T 020180230000001544772 29577050026212407   7262094         23122016000000000010000001000213262094                   0900000000000010000000000000000000000000000000000000000   0000000000000000000000000A9        170192957705     
0010001300222U 020000000000000000000000000000000000000000000000000000000000000000000000000000000000000000000000000000000000000000000000002212201600000000            000000000000000                              000                           
0010001300223T 020180230000001544772 29577050026335306   7263465         2312201600000000000750000103049X263465                   0900000000000010000000000000000000000000000000000000000   0000000000000000000000000A9        170192957705     
0010001300224U 020000000000000000000000000000000000000000000000000000000000000000000000000000000000000000000000000000000000000000000000002212201600000000            000000000000000                              000                           
0010001300225T 020180230000001544772 29577050026440978   7264160         2312201600000000000750000103049X264160                   0900000000000010000000000000000000000000000000000000000   0000000000000000000000000A9        170192957705     
0010001300226U 020000000000000000000000000000000000000000000000000000000000000000000000000000000000000000000000000000000000000000000000002212201600000000            000000000000000                              000                           
0010001300227T 020180230000001544772 29577050026626495   7266533         23122016000000000010000001000213266533                   0900000000000010000000000000000000000000000000000000000   0000000000000000000000000A9        170192957705     
0010001300228U 020000000000000000000000000000000000000000000000000000000000000000000000000000000000000000000000000000000000000000000000002212201600000000            000000000000000                              000                           
0010001300229T 020180230000001544772 29577050026731341   7267130         2312201600000000000750000100281X267130                   0900000000000010000000000000000000000000000000000000000   0000000000000000000000000A9        170192957705     
0010001300230U 020000000000000000000000000000000000000000000000000000000000000000000000000000000000000000000000000000000000000000000000002212201600000000            000000000000000                              000                           
0010001300231T 020180230000001544772 29577050026931394   7269223         2312201600000000000750000103049X269223                   0900000000000010000000000000000000000000000000000000000   0000000000000000000000000A9        170192957705     
0010001300232U 020000000000000000000000000000000000000000000000000000000000000000000000000000000000000000000000000000000000000000000000002212201600000000            000000000000000                              000                           
0010001300233T 020180230000001544772 29577050027131749   7271930         23122016000000000010000001012408271930                   0900000000000010000000000000000000000000000000000000000   0000000000000000000000000A9        170192957705     
0010001300234U 020000000000000000000000000000000000000000000000000000000000000000000000000000000000000000000000000000000000000000000000002212201600000000            000000000000000                              000                           
0010001300235T 020180230000001544772 29577050027656384   7276468         2312201600000000000750000103049X276468                   0900000000000010000000000000000000000000000000000000000   0000000000000000000000000A9        170192957705     
0010001300236U 020000000000000000000000000000000000000000000000000000000000000000000000000000000000000000000000000000000000000000000000002212201600000000            000000000000000                              000                           
0010001300237T 020180230000001544772 29577050027948865   7279006         24122016000000000007500001012416279006                   0900000000000010000000000000000000000000000000000000000   0000000000000000000000000A9        170192957705     
0010001300238U 020000000000000000000000000000000000000000000000000000000000000000000000000000000000000000000000000000000000000000000000002212201600000000            000000000000000                              000                           
0010001300239T 020180230000001544772 29577050028039965   7280358         24122016000000000007500001000213280358                   0900000000000010000000000000000000000000000000000000000   0000000000000000000000000A9        170192957705     
0010001300240U 020000000000000000000000000000000000000000000000000000000000000000000000000000000000000000000000000000000000000000000000002212201600000000            000000000000000                              000                           
0010001300241T 020180230000001544772 29577050028350178   7283775         2412201600000000000750000103049X283775                   0900000000000010000000000000000000000000000000000000000   0000000000000000000000000A9        170192957705     
0010001300242U 020000000000000000000000000000000000000000000000000000000000000000000000000000000000000000000000000000000000000000000000002212201600000000            000000000000000                              000                           
0010001300243T 020180230000001544772 29577050028727571   7287502         2412201600000000001000000103049X287502                   0900000000000010000000000000000000000000000000000000000   0000000000000000000000000A9        170192957705     
0010001300244U 020000000000000000000000000000000000000000000000000000000000000000000000000000000000000000000000000000000000000000000000002212201600000000            000000000000000                              000                           
0010001300245T 020180230000001544772 29577050029056302   7290999         24122016000000000010000001000213290999                   0900000000000010000000000000000000000000000000000000000   0000000000000000000000000A9        170192957705     
0010001300246U 020000000000000000000000000000000000000000000000000000000000000000000000000000000000000000000000000000000000000000000000002212201600000000            000000000000000                              000                           
0010001300247T 020180230000001544772 29577050029238075   7292183         24122016000000000007500001000213292183                   0900000000000010000000000000000000000000000000000000000   0000000000000000000000000A9        170192957705     
0010001300248U 020000000000000000000000000000000000000000000000000000000000000000000000000000000000000000000000000000000000000000000000002212201600000000            000000000000000                              000                           
0010001300249T 020180230000001544772 29577050029320674   7293450         24122016000000000007500001000213293450                   0900000000000010000000000000000000000000000000000000000   0000000000000000000000000A9        170192957705     
0010001300250U 020000000000000000000000000000000000000000000000000000000000000000000000000000000000000000000000000000000000000000000000002212201600000000            000000000000000                              000                           
0010001300251T 020180230000001544772 29577050029513396   7295615         24122016000000000007500001009245295615                   0900000000000010000000000000000000000000000000000000000   0000000000000000000000000A9        170192957705     
0010001300252U 020000000000000000000000000000000000000000000000000000000000000000000000000000000000000000000000000000000000000000000000002212201600000000            000000000000000                              000                           
0010001300253T 020180230000001544772 29577050029651338   7296377         24122016000000000010000001000213296377                   0900000000000010000000000000000000000000000000000000000   0000000000000000000000000A9        170192957705     
0010001300254U 020000000000000000000000000000000000000000000000000000000000000000000000000000000000000000000000000000000000000000000000002212201600000000            000000000000000                              000                           
0010001300255T 020180230000001544772 29577050029701036   7297084         24122016000000000007500001012408297084                   0900000000000010000000000000000000000000000000000000000   0000000000000000000000000A9        170192957705     
0010001300256U 020000000000000000000000000000000000000000000000000000000000000000000000000000000000000000000000000000000000000000000000002212201600000000            000000000000000                              000                           
0010001300257T 020180230000001544772 29577050029715169   7297631         24122016000000000007500001012408297631                   0900000000000010000000000000000000000000000000000000000   0000000000000000000000000A9        170192957705     
0010001300258U 020000000000000000000000000000000000000000000000000000000000000000000000000000000000000000000000000000000000000000000000002212201600000000            000000000000000                              000                           
0010001300259T 020180230000001544772 29577050029832838   7298988         24122016000000000007500001012408298988                   0900000000000010000000000000000000000000000000000000000   0000000000000000000000000A9        170192957705     
0010001300260U 020000000000000000000000000000000000000000000000000000000000000000000000000000000000000000000000000000000000000000000000002212201600000000            000000000000000                              000                           
0010001300261T 020180230000001544772 29577050029906527   7299004         24122016000000000007500001012408299004                   0900000000000010000000000000000000000000000000000000000   0000000000000000000000000A9        170192957705     
0010001300262U 020000000000000000000000000000000000000000000000000000000000000000000000000000000000000000000000000000000000000000000000002212201600000000            000000000000000                              000                           
0010001300263T 020180230000001544772 29577050030116427   7301382         24122016000000000007500001012408301382                   0900000000000010000000000000000000000000000000000000000   0000000000000000000000000A9        170192957705     
0010001300264U 020000000000000000000000000000000000000000000000000000000000000000000000000000000000000000000000000000000000000000000000002212201600000000            000000000000000                              000                           
0010001300265T 020180230000001544772 29577050030211929   7302623         24122016000000000010000001000213302623                   0900000000000010000000000000000000000000000000000000000   0000000000000000000000000A9        170192957705     
0010001300266U 020000000000000000000000000000000000000000000000000000000000000000000000000000000000000000000000000000000000000000000000002212201600000000            000000000000000                              000                           
0010001300267T 020180230000001544772 29577050030354462   7303263         24122016000000000007500001012408303263                   0900000000000010500000000000000000000000000000000000000   0000000000000000000000000A9A4      170192957705     
0010001300268U 020000000000000000000000000000000000000000000000000000000000000000000000000000000000000000000000000000000000000000000000002212201600000000            000000000000000                              000                           
0010001300269T 020180230000001544772 29577050030404975   7304864         24122016000000000007500001036900304864                   0900000000000010000000000000000000000000000000000000000   0000000000000000000000000A9        170192957705     
0010001300270U 020000000000000000000000000000000000000000000000000000000000000000000000000000000000000000000000000000000000000000000000002212201600000000            000000000000000                              000                           
0010001300271T 020180230000001544772 29577050030556067   7305925         24122016000000000007500001000213305925                   0900000000000010000000000000000000000000000000000000000   0000000000000000000000000A9        170192957705     
0010001300272U 020000000000000000000000000000000000000000000000000000000000000000000000000000000000000000000000000000000000000000000000002212201600000000            000000000000000                              000                           
0010001300273T 020180230000001544772 29577050030957259   7309523         24122016000000000007500001012408309523                   0900000000000010000000000000000000000000000000000000000   0000000000000000000000000A9        170192957705     
0010001300274U 020000000000000000000000000000000000000000000000000000000000000000000000000000000000000000000000000000000000000000000000002212201600000000            000000000000000                              000                           
0010001300275T 060180230000001544772 29577050013924301   7139556         23122016000000000007500756030070139556                   0900000000000010000000000000000000000000000000000000000   000000000000000000000029000        170192957705     
0010001300276U 060000000000000000000000000000000000000000000000000000000000000000000000075000000000000072100000000000000000000000000000002212201623122016            000000000000000                              000                           
0010001300277T 060180230000001544772 29577050019421039   7194486         23122016000000000010000021000440194486                   0900000000000010000000000000000000000000000000000000000   000000000000000000000029000        170192957705     
0010001300278U 060000000000000000000000000000000000000000000000000000000000000000000000100000000000000097100000000000000000000000000000002212201623122016            000000000000000                              000                           
0010001300279T 060180230000001544772 29577050026212407   7262094         23122016000000000010000021000830262094                   0900000000000010000000000000000000000000000000000000000   000000000000000000000029000        170192957705     
0010001300280U 060000000000000000000000000000000000000000000000000000000000000000000000100000000000000097100000000000000000000000000000002212201623122016            000000000000000                              000                           
0010001300281T 060180230000001544772 29577050026626495   7266533         23122016000000000010000001047260266533                   0900000000000010000000000000000000000000000000000000000   000000000000000000000029000        170192957705     
0010001300282U 060000000000000000000000000000000000000000000000000000000000000000000000100000000000000097100000000000000000000000000000002212201623122016            000000000000000                              000                           
0010001300283T 170180230000001544772 29577050032826567   7               00000000000000000007500237031130                         0900000000000010000000000000000000000000000000000000000   000000000000000000000070003        170192957705     
0010001300284U 170000000000000000000000000000000000000000000000000000000000000000000000075000000000000068000000000000000000000000000000002212201623122016            000000000000000                              000                           
0010001300285T 170180230000001544772 29577050045316367   7               00000000000000000010000001012416                         0900000000000010000000000000000000000000000000000000000   000000000000000000000070003        170192957705     
0010001300286U 170000000000000000000000000000000000000000000000000000000000000000000000100000000000000093000000000000000000000000000000002212201623122016            000000000000000                              000                           
0010001300287T 030180230000001544772 29577050007517555   78888888888888992412201600000000000750000100000 888888888888899          0900000000000000000000000000000000000000000000000000000   000000000000000000000000063        170192957705     
0010001300288U 030000000000000000000000000000000000000000000000000000000000000000000000000000000000000000000000000000000000000000000000002212201600000000            000000000000000                              000                           
0010001300289T 030180230000001544772 29577050007647281   78888888888888992412201600000000000750000100000 888888888888899          0900000000000000000000000000000000000000000000000000000   000000000000000000000000063        170192957705     
0010001300290U 030000000000000000000000000000000000000000000000000000000000000000000000000000000000000000000000000000000000000000000000002212201600000000            000000000000000                              000                           
0010001300291T 030180230000001544772 29577050007804527   78888888888888992412201600000000000750000100000 888888888888899          0900000000000000000000000000000000000000000000000000000   000000000000000000000000063        170192957705     
0010001300292U 030000000000000000000000000000000000000000000000000000000000000000000000000000000000000000000000000000000000000000000000002212201600000000            000000000000000                              000                           
0010001300293T 030180230000001544772 29577050007814337   78888888888888992412201600000000000750000100000 888888888888899          0900000000000000000000000000000000000000000000000000000   000000000000000000000000063        170192957705     
0010001300294U 030000000000000000000000000000000000000000000000000000000000000000000000000000000000000000000000000000000000000000000000002212201600000000            000000000000000                              000                           
0010001300295T 030180230000001544772 29577050007949528   78888888888888992412201600000000000750000100000 888888888888899          0900000000000000000000000000000000000000000000000000000   000000000000000000000000063        170192957705     
0010001300296U 030000000000000000000000000000000000000000000000000000000000000000000000000000000000000000000000000000000000000000000000002212201600000000            000000000000000                              000                           
0010001300297T 030180230000001544772 29577050008434090   78888888888888992412201600000000000750000100000 888888888888899          0900000000000000000000000000000000000000000000000000000   000000000000000000000000063        170192957705     
0010001300298U 030000000000000000000000000000000000000000000000000000000000000000000000000000000000000000000000000000000000000000000000002212201600000000            000000000000000                              000                           
0010001300299T 030180230000001544772 29577050008551414   78888888888888992412201600000000000750000100000 888888888888899          0900000000000000000000000000000000000000000000000000000   000000000000000000000000063        170192957705     
0010001300300U 030000000000000000000000000000000000000000000000000000000000000000000000000000000000000000000000000000000000000000000000002212201600000000            000000000000000                              000                           
0010001300301T 030180230000001544772 29577050008718779   78888888888888992412201600000000000750000100000 888888888888899          0900000000000000000000000000000000000000000000000000000   000000000000000000000000063        170192957705     
0010001300302U 030000000000000000000000000000000000000000000000000000000000000000000000000000000000000000000000000000000000000000000000002212201600000000            000000000000000                              000                           
0010001300303T 030180230000001544772 29577050008853855   78888888888888992412201600000000001000000100000 888888888888899          0900000000000000000000000000000000000000000000000000000   000000000000000000000000063        170192957705     
0010001300304U 030000000000000000000000000000000000000000000000000000000000000000000000000000000000000000000000000000000000000000000000002212201600000000            000000000000000                              000                           
0010001300305T 030180230000001544772 29577050009209007   78888888888888992412201600000000000750000100000 888888888888899          0900000000000000000000000000000000000000000000000000000   000000000000000000000000063        170192957705     
0010001300306U 030000000000000000000000000000000000000000000000000000000000000000000000000000000000000000000000000000000000000000000000002212201600000000            000000000000000                              000                           
0010001300307T 030180230000001544772 29577050009556045   78888888888888992412201600000000001000000100000 888888888888899          0900000000000000000000000000000000000000000000000000000   000000000000000000000000063        170192957705     
0010001300308U 030000000000000000000000000000000000000000000000000000000000000000000000000000000000000000000000000000000000000000000000002212201600000000            000000000000000                              000                           
0010001300309T 030180230000001544772 29577050009623527   78888888888888992412201600000000000750000100000 888888888888899          0900000000000000000000000000000000000000000000000000000   000000000000000000000000063        170192957705     
0010001300310U 030000000000000000000000000000000000000000000000000000000000000000000000000000000000000000000000000000000000000000000000002212201600000000            000000000000000                              000                           
0010001300311T 030180230000001544772 29577050009806932   78888888888888992412201600000000000750000100000 888888888888899          0900000000000000000000000000000000000000000000000000000   000000000000000000000000063        170192957705     
0010001300312U 030000000000000000000000000000000000000000000000000000000000000000000000000000000000000000000000000000000000000000000000002212201600000000            000000000000000                              000                           
0010001300313T 030180230000001544772 29577050010000013   78888888888888992412201600000000000750000100000 888888888888899          0900000000000000000000000000000000000000000000000000000   000000000000000000000000063        170192957705     
0010001300314U 030000000000000000000000000000000000000000000000000000000000000000000000000000000000000000000000000000000000000000000000002212201600000000            000000000000000                              000                           
0010001300315T 030180230000001544772 29577050010148630   78888888888888992412201600000000000750000100000 888888888888899          0900000000000000000000000000000000000000000000000000000   000000000000000000000000063        170192957705     
0010001300316U 030000000000000000000000000000000000000000000000000000000000000000000000000000000000000000000000000000000000000000000000002212201600000000            000000000000000                              000                           
0010001300317T 030180230000001544772 29577050010529407   78888888888888992412201600000000000750000100000 888888888888899          0900000000000000000000000000000000000000000000000000000   000000000000000000000000063        170192957705     
0010001300318U 030000000000000000000000000000000000000000000000000000000000000000000000000000000000000000000000000000000000000000000000002212201600000000            000000000000000                              000                           
0010001300319T 030180230000001544772 29577050010920739   78888888888888992412201600000000001000000100000 888888888888899          0900000000000000000000000000000000000000000000000000000   000000000000000000000000063        170192957705     
0010001300320U 030000000000000000000000000000000000000000000000000000000000000000000000000000000000000000000000000000000000000000000000002212201600000000            000000000000000                              000                           
0010001300321T 030180230000001544772 29577050011332543   78888888888888992412201600000000000750000100000 888888888888899          0900000000000000000000000000000000000000000000000000000   000000000000000000000000063        170192957705     
0010001300322U 030000000000000000000000000000000000000000000000000000000000000000000000000000000000000000000000000000000000000000000000002212201600000000            000000000000000                              000                           
0010001300323T 030180230000001544772 29577050011356873   78888888888888992412201600000000000750000100000 888888888888899          0900000000000000000000000000000000000000000000000000000   000000000000000000000000063        170192957705     
0010001300324U 030000000000000000000000000000000000000000000000000000000000000000000000000000000000000000000000000000000000000000000000002212201600000000            000000000000000                              000                           
0010001300325T 030180230000001544772 29577050011434192   7114248         2312201600000000000750000100000 114248                   0900000000000000000000000000000000000000000000000000000   000000000000000000000000052        170192957705     
0010001300326U 030000000000000000000000000000000000000000000000000000000000000000000000000000000000000000000000000000000000000000000000002112201600000000            000000000000000                              000                           
0010001300327T 030180230000001544772 29577050011434192   78888888888888992412201600000000000750000100000 888888888888899          0900000000000000000000000000000000000000000000000000000   000000000000000000000000052        170192957705     
0010001300328U 030000000000000000000000000000000000000000000000000000000000000000000000000000000000000000000000000000000000000000000000002112201600000000            000000000000000                              000                           
0010001300329T 030180230000001544772 29577050012014735   78888888888888992412201600000000000750000100000 888888888888899          0900000000000000000000000000000000000000000000000000000   000000000000000000000000063        170192957705     
0010001300330U 030000000000000000000000000000000000000000000000000000000000000000000000000000000000000000000000000000000000000000000000002212201600000000            000000000000000                              000                           
0010001300331T 030180230000001544772 29577050012147654   78888888888888992412201600000000000750000100000 888888888888899          0900000000000000000000000000000000000000000000000000000   000000000000000000000000063        170192957705     
0010001300332U 030000000000000000000000000000000000000000000000000000000000000000000000000000000000000000000000000000000000000000000000002212201600000000            000000000000000                              000                           
0010001300333T 030180230000001544772 29577050012259693   78888888888888992412201600000000000750000100000 888888888888899          0900000000000000000000000000000000000000000000000000000   000000000000000000000000063        170192957705     
0010001300334U 030000000000000000000000000000000000000000000000000000000000000000000000000000000000000000000000000000000000000000000000002212201600000000            000000000000000                              000                           
0010001300335T 030180230000001544772 29577050012554852   78888888888888992412201600000000000750000100000 888888888888899          0900000000000000000000000000000000000000000000000000000   000000000000000000000000063        170192957705     
0010001300336U 030000000000000000000000000000000000000000000000000000000000000000000000000000000000000000000000000000000000000000000000002212201600000000            000000000000000                              000                           
0010001300337T 030180230000001544772 29577050012705253   78888888888888992412201600000000000750000100000 888888888888899          0900000000000000000000000000000000000000000000000000000   000000000000000000000000063        170192957705     
0010001300338U 030000000000000000000000000000000000000000000000000000000000000000000000000000000000000000000000000000000000000000000000002212201600000000            000000000000000                              000                           
0010001300339T 030180230000001544772 29577050012802673   78888888888888992412201600000000000750000100000 888888888888899          0900000000000000000000000000000000000000000000000000000   000000000000000000000000063        170192957705     
0010001300340U 030000000000000000000000000000000000000000000000000000000000000000000000000000000000000000000000000000000000000000000000002212201600000000            000000000000000                              000                           
0010001300341T 030180230000001544772 29577050012928757   78888888888888992412201600000000000750000100000 888888888888899          0900000000000000000000000000000000000000000000000000000   000000000000000000000000063        170192957705     
0010001300342U 030000000000000000000000000000000000000000000000000000000000000000000000000000000000000000000000000000000000000000000000002212201600000000            000000000000000                              000                           
0010001300343T 030180230000001544772 29577050013033101   78888888888888992412201600000000000750000100000 888888888888899          0900000000000000000000000000000000000000000000000000000   000000000000000000000000063        170192957705     
0010001300344U 030000000000000000000000000000000000000000000000000000000000000000000000000000000000000000000000000000000000000000000000002212201600000000            000000000000000                              000                           
0010001300345T 030180230000001544772 29577050013145310   78888888888888992412201600000000000750000100000 888888888888899          0900000000000000000000000000000000000000000000000000000   000000000000000000000000063        170192957705     
0010001300346U 030000000000000000000000000000000000000000000000000000000000000000000000000000000000000000000000000000000000000000000000002212201600000000            000000000000000                              000                           
0010001300347T 030180230000001544772 29577050013407664   78888888888888992412201600000000000750000100000 888888888888899          0900000000000000000000000000000000000000000000000000000   000000000000000000000000063        170192957705     
0010001300348U 030000000000000000000000000000000000000000000000000000000000000000000000000000000000000000000000000000000000000000000000002212201600000000            000000000000000                              000                           
0010001300349T 030180230000001544772 29577050013424149   78888888888888992412201600000000000750000100000 888888888888899          0900000000000000000000000000000000000000000000000000000   000000000000000000000000063        170192957705     
0010001300350U 030000000000000000000000000000000000000000000000000000000000000000000000000000000000000000000000000000000000000000000000002212201600000000            000000000000000                              000                           
0010001300351T 030180230000001544772 29577050013532074   78888888888888992412201600000000000750000100000 888888888888899          0900000000000000000000000000000000000000000000000000000   000000000000000000000000063        170192957705     
0010001300352U 030000000000000000000000000000000000000000000000000000000000000000000000000000000000000000000000000000000000000000000000002212201600000000            000000000000000                              000                           
0010001300353T 030180230000001544772 29577050013634049   78888888888888992412201600000000000750000100000 888888888888899          0900000000000000000000000000000000000000000000000000000   000000000000000000000000063        170192957705     
0010001300354U 030000000000000000000000000000000000000000000000000000000000000000000000000000000000000000000000000000000000000000000000002212201600000000            000000000000000                              000                           
0010001300355T 030180230000001544772 29577050013720263   78888888888888992412201600000000000750000100000 888888888888899          0900000000000000000000000000000000000000000000000000000   000000000000000000000000063        170192957705     
0010001300356U 030000000000000000000000000000000000000000000000000000000000000000000000000000000000000000000000000000000000000000000000002212201600000000            000000000000000                              000                           
0010001300357T 030180230000001544772 29577050013814841   78888888888888992412201600000000000750000100000 888888888888899          0900000000000000000000000000000000000000000000000000000   000000000000000000000000063        170192957705     
0010001300358U 030000000000000000000000000000000000000000000000000000000000000000000000000000000000000000000000000000000000000000000000002212201600000000            000000000000000                              000                           
0010001300359T 030180230000001544772 29577050013902539   78888888888888992412201600000000000750000100000 888888888888899          0900000000000000000000000000000000000000000000000000000   000000000000000000000000063        170192957705     
0010001300360U 030000000000000000000000000000000000000000000000000000000000000000000000000000000000000000000000000000000000000000000000002212201600000000            000000000000000                              000                           
0010001300361T 030180230000001544772 29577050013924301   78888888888888992412201600000000000750000100000 888888888888899          0900000000000000000000000000000000000000000000000000000   000000000000000000000000063        170192957705     
0010001300362U 030000000000000000000000000000000000000000000000000000000000000000000000000000000000000000000000000000000000000000000000002212201600000000            000000000000000                              000                           
0010001300363T 030180230000001544772 29577050014118488   78888888888888992412201600000000000750000100000 888888888888899          0900000000000000000000000000000000000000000000000000000   000000000000000000000000063        170192957705     
0010001300364U 030000000000000000000000000000000000000000000000000000000000000000000000000000000000000000000000000000000000000000000000002212201600000000            000000000000000                              000                           
0010001300365T 030180230000001544772 29577050014708557   78888888888888992412201600000000001000000100000 888888888888899          0900000000000000000000000000000000000000000000000000000   000000000000000000000000063        170192957705     
0010001300366U 030000000000000000000000000000000000000000000000000000000000000000000000000000000000000000000000000000000000000000000000002212201600000000            000000000000000                              000                           
0010001300367T 030180230000001544772 29577050014712498   78888888888888992412201600000000001000000100000 888888888888899          0900000000000000000000000000000000000000000000000000000   000000000000000000000000063        170192957705     
0010001300368U 030000000000000000000000000000000000000000000000000000000000000000000000000000000000000000000000000000000000000000000000002212201600000000            000000000000000                              000                           
0010001300369T 030180230000001544772 29577050014757116   78888888888888992412201600000000001000000100000 888888888888899          0900000000000000000000000000000000000000000000000000000   000000000000000000000000063        170192957705     
0010001300370U 030000000000000000000000000000000000000000000000000000000000000000000000000000000000000000000000000000000000000000000000002212201600000000            000000000000000                              000                           
0010001300371T 030180230000001544772 29577050014847700   78888888888888992412201600000000000750000100000 888888888888899          0900000000000000000000000000000000000000000000000000000   000000000000000000000000063        170192957705     
0010001300372U 030000000000000000000000000000000000000000000000000000000000000000000000000000000000000000000000000000000000000000000000002212201600000000            000000000000000                              000                           
0010001300373T 030180230000001544772 29577050014944263   78888888888888992412201600000000000750000100000 888888888888899          0900000000000000000000000000000000000000000000000000000   000000000000000000000000063        170192957705     
0010001300374U 030000000000000000000000000000000000000000000000000000000000000000000000000000000000000000000000000000000000000000000000002212201600000000            000000000000000                              000                           
0010001300375T 030180230000001544772 29577050015039069   78888888888888992412201600000000000750000100000 888888888888899          0900000000000000000000000000000000000000000000000000000   000000000000000000000000063        170192957705     
0010001300376U 030000000000000000000000000000000000000000000000000000000000000000000000000000000000000000000000000000000000000000000000002212201600000000            000000000000000                              000                           
0010001300377T 030180230000001544772 29577050015215356   78888888888888992412201600000000000750000100000 888888888888899          0900000000000000000000000000000000000000000000000000000   000000000000000000000000063        170192957705     
0010001300378U 030000000000000000000000000000000000000000000000000000000000000000000000000000000000000000000000000000000000000000000000002212201600000000            000000000000000                              000                           
0010001300379T 030180230000001544772 29577050015307596   78888888888888992412201600000000000750000100000 888888888888899          0900000000000000000000000000000000000000000000000000000   000000000000000000000000063        170192957705     
0010001300380U 030000000000000000000000000000000000000000000000000000000000000000000000000000000000000000000000000000000000000000000000002212201600000000            000000000000000                              000                           
0010001300381T 030180230000001544772 29577050015402525   78888888888888992412201600000000000750000100000 888888888888899          0900000000000000000000000000000000000000000000000000000   000000000000000000000000063        170192957705     
0010001300382U 030000000000000000000000000000000000000000000000000000000000000000000000000000000000000000000000000000000000000000000000002212201600000000            000000000000000                              000                           
0010001300383T 030180230000001544772 29577050015755300   78888888888888992412201600000000001000000100000 888888888888899          0900000000000000000000000000000000000000000000000000000   000000000000000000000000063        170192957705     
0010001300384U 030000000000000000000000000000000000000000000000000000000000000000000000000000000000000000000000000000000000000000000000002212201600000000            000000000000000                              000                           
0010001300385T 030180230000001544772 29577050015852292   78888888888888992412201600000000000750000100000 888888888888899          0900000000000000000000000000000000000000000000000000000   000000000000000000000000063        170192957705     
0010001300386U 030000000000000000000000000000000000000000000000000000000000000000000000000000000000000000000000000000000000000000000000002212201600000000            000000000000000                              000                           
0010001300387T 030180230000001544772 29577050016221052   78888888888888992412201600000000000750000100000 888888888888899          0900000000000000000000000000000000000000000000000000000   000000000000000000000000063        170192957705     
0010001300388U 030000000000000000000000000000000000000000000000000000000000000000000000000000000000000000000000000000000000000000000000002212201600000000            000000000000000                              000                           
0010001300389T 030180230000001544772 29577050016715473   78888888888888992412201600000000000750000100000 888888888888899          0900000000000000000000000000000000000000000000000000000   000000000000000000000000063        170192957705     
0010001300390U 030000000000000000000000000000000000000000000000000000000000000000000000000000000000000000000000000000000000000000000000002212201600000000            000000000000000                              000                           
0010001300391T 030180230000001544772 29577050016833705   78888888888888992412201600000000000750000100000 888888888888899          0900000000000000000000000000000000000000000000000000000   000000000000000000000000063        170192957705     
0010001300392U 030000000000000000000000000000000000000000000000000000000000000000000000000000000000000000000000000000000000000000000000002212201600000000            000000000000000                              000                           
0010001300393T 030180230000001544772 29577050017046024   78888888888888992412201600000000001000000100000 888888888888899          0900000000000000000000000000000000000000000000000000000   000000000000000000000000063        170192957705     
0010001300394U 030000000000000000000000000000000000000000000000000000000000000000000000000000000000000000000000000000000000000000000000002212201600000000            000000000000000                              000                           
0010001300395T 030180230000001544772 29577050017108451   78888888888888992412201600000000000750000100000 888888888888899          0900000000000000000000000000000000000000000000000000000   000000000000000000000000063        170192957705     
0010001300396U 030000000000000000000000000000000000000000000000000000000000000000000000000000000000000000000000000000000000000000000000002212201600000000            000000000000000                              000                           
0010001300397T 030180230000001544772 29577050017235045   78888888888888992412201600000000001000000100000 888888888888899          0900000000000000000000000000000000000000000000000000000   000000000000000000000000063        170192957705     
0010001300398U 030000000000000000000000000000000000000000000000000000000000000000000000000000000000000000000000000000000000000000000000002212201600000000            000000000000000                              000                           
0010001300399T 030180230000001544772 29577050017416623   78888888888888992412201600000000000750000100000 888888888888899          0900000000000000000000000000000000000000000000000000000   000000000000000000000000063        170192957705     
0010001300400U 030000000000000000000000000000000000000000000000000000000000000000000000000000000000000000000000000000000000000000000000002212201600000000            000000000000000                              000                           
0010001300401T 030180230000001544772 29577050017419625   78888888888888992412201600000000000750000100000 888888888888899          0900000000000000000000000000000000000000000000000000000   000000000000000000000000063        170192957705     
0010001300402U 030000000000000000000000000000000000000000000000000000000000000000000000000000000000000000000000000000000000000000000000002212201600000000            000000000000000                              000                           
0010001300403T 030180230000001544772 29577050017429517   78888888888888992412201600000000000750000100000 888888888888899          0900000000000000000000000000000000000000000000000000000   000000000000000000000000063        170192957705     
0010001300404U 030000000000000000000000000000000000000000000000000000000000000000000000000000000000000000000000000000000000000000000000002212201600000000            000000000000000                              000                           
0010001300405T 030180230000001544772 29577050017724424   78888888888888992412201600000000000750000100000 888888888888899          0900000000000000000000000000000000000000000000000000000   000000000000000000000000063        170192957705     
0010001300406U 030000000000000000000000000000000000000000000000000000000000000000000000000000000000000000000000000000000000000000000000002212201600000000            000000000000000                              000                           
0010001300407T 030180230000001544772 29577050018059476   78888888888888992412201600000000000750000100000 888888888888899          0900000000000000000000000000000000000000000000000000000   000000000000000000000000063        170192957705     
0010001300408U 030000000000000000000000000000000000000000000000000000000000000000000000000000000000000000000000000000000000000000000000002212201600000000            000000000000000                              000                           
0010001300409T 030180230000001544772 29577050018118786   78888888888888992412201600000000000750000100000 888888888888899          0900000000000000000000000000000000000000000000000000000   000000000000000000000000063        170192957705     
0010001300410U 030000000000000000000000000000000000000000000000000000000000000000000000000000000000000000000000000000000000000000000000002212201600000000            000000000000000                              000                           
0010001300411T 030180230000001544772 29577050018348091   78888888888888992412201600000000000750000100000 888888888888899          0900000000000000000000000000000000000000000000000000000   000000000000000000000000063        170192957705     
0010001300412U 030000000000000000000000000000000000000000000000000000000000000000000000000000000000000000000000000000000000000000000000002212201600000000            000000000000000                              000                           
