00100000         224774586000100002957705001417019  0180230000001544772 INSTITUTO DE SELECAO E TECNOLOBANCO DO BRASIL S.A.                    11201201715333900000108300000                    REMESSA-PRODUCAO                  000000000000000
00100011R01  042 2024774586000100002957705001417019  0180230000001544772 INSTITUTO DE SELECAO E TECNOLO                                                                                000000011201201700000000                                 
0010001300001P 010180230000001544772 29577050062107076   722228888888888888991401201700000000000750000000002N12012017114012017000000000000000000000000000000000000000000000000000000000000000000000888888888888899          3000000090000000000 
0010001300002Q 011000013103244762ANDRE MOULIN MARDEGAN DE AZEVEDO        RUA CLARA MALFACINI MUCELINI            JARDIM ITAPEMIR29315711CACHOEIRO DE ITES2024774586000100INSTITUTO DE SELECAO E TECNOLO          000                            
0010001300003R 01                                                000000000000000000000000                                                                                                                                                       
0010001300004P 010180230000001544772 29577050221443604   722228888888888888991401201700000000000750000000002N12012017114012017000000000000000000000000000000000000000000000000000000000000000000000888888888888899          3000000090000000000 
0010001300005Q 011000005561061720ROSANA DA SILVA BERNARDINO              RUA DESEMBARGADOR LEVINO CHACON         CENTRO         29130139VIANA          ES2024774586000100INSTITUTO DE SELECAO E TECNOLO          000                            
0010001300006R 01                                                000000000000000000000000                                                                                                                                                       
0010001300007P 010180230000001544772 29577050221433066   722228888888888888991401201700000000000750000000002N12012017114012017000000000000000000000000000000000000000000000000000000000000000000000888888888888899          3000000090000000000 
0010001300008Q 011000005561061720ROSANA DA SILVA BERNARDINO              RUA DESEMBARGADOR LEVINO CHACON         CENTRO         29130139VIANA          ES2024774586000100INSTITUTO DE SELECAO E TECNOLO          000                            
0010001300009R 01                                                000000000000000000000000                                                                                                                                                       
0010001300010P 010180230000001544772 29577050221438064   722228888888888888991401201700000000000750000000002N12012017114012017000000000000000000000000000000000000000000000000000000000000000000000888888888888899          3000000090000000000 
0010001300011Q 011000005561061720ROSANA DA SILVA BERNARDINO              RUA DESEMBARGADOR LEVINO CHACON         CENTRO         29130139VIANA          ES2024774586000100INSTITUTO DE SELECAO E TECNOLO          000                            
0010001300012R 01                                                000000000000000000000000                                                                                                                                                       
0010001300013P 010180230000001544772 29577050221528506   722228888888888888991401201700000000000750000000002N12012017114012017000000000000000000000000000000000000000000000000000000000000000000000888888888888899          3000000090000000000 
0010001300014Q 011000009920545759LUCIANE COUTINHO MENEGUZZI              AVENIDA PAULO PEREIRA GOMES             MORADA DE LARAN29166828SERRA          ES2024774586000100INSTITUTO DE SELECAO E TECNOLO          000                            
0010001300015R 01                                                000000000000000000000000                                                                                                                                                       
0010001300016P 010180230000001544772 29577050130538150   722228888888888888991401201700000000000750000000002N12012017114012017000000000000000000000000000000000000000000000000000000000000000000000888888888888899          3000000090000000000 
0010001300017Q 011000003187966780ALESSANDRA MARA DOS SANTOS              RUA C D, 6                              MANOEL PLAZA   29160430SERRA          ES2024774586000100INSTITUTO DE SELECAO E TECNOLO          000                            
0010001300018R 01                                                000000000000000000000000                                                                                                                                                       
0010001300019P 010180230000001544772 29577050221637240   722228888888888888991401201700000000000750000000002N12012017114012017000000000000000000000000000000000000000000000000000000000000000000000888888888888899          3000000090000000000 
0010001300020Q 011000014277046789LARISSA EFFGEM RIBEIRO                  RODOVIA DO SOL                          PRAIA DO MORRO 29216005GUARAPARI      ES2024774586000100INSTITUTO DE SELECAO E TECNOLO          000                            
0010001300021R 01                                                000000000000000000000000                                                                                                                                                       
0010001300022P 010180230000001544772 29577050004843418   722228888888888888991401201700000000000750000000002N12012017114012017000000000000000000000000000000000000000000000000000000000000000000000888888888888899          3000000090000000000 
0010001300023Q 011000033685022701HELOISA HELENA SOUZA                    RUA PEDRO ARTIGIANI                     LOTEAMENTO JOAO13976124ITAPIRA        SP2024774586000100INSTITUTO DE SELECAO E TECNOLO          000                            
0010001300024R 01                                                000000000000000000000000                                                                                                                                                       
0010001300025P 010180230000001544772 29577050133406184   722228888888888888991401201700000000000750000000002N12012017114012017000000000000000000000000000000000000000000000000000000000000000000000888888888888899          3000000090000000000 
0010001300026Q 011000014410506714EVELYN DOS SANTOS                       RUA ARTHUR COSTA E SILVA, N°20         VASCO DA GAMA  29140585CARIACICA      ES2024774586000100INSTITUTO DE SELECAO E TECNOLO          000                            
0010001300027R 01                                                000000000000000000000000                                                                                                                                                       
0010001300028P 010180230000001544772 29577050221750223   722228888888888888991401201700000000000750000000002N12012017114012017000000000000000000000000000000000000000000000000000000000000000000000888888888888899          3000000090000000000 
0010001300029Q 011000009763056748WILSA SALES GOMES                       RUA SANTO ANTONIO                       PRAIA DE CARAPE29164430SERRA          ES2024774586000100INSTITUTO DE SELECAO E TECNOLO          000                            
0010001300030R 01                                                000000000000000000000000                                                                                                                                                       
0010001300031P 010180230000001544772 29577050221832466   722228888888888888991401201700000000000750000000002N12012017114012017000000000000000000000000000000000000000000000000000000000000000000000888888888888899          3000000090000000000 
0010001300032Q 011000061927791200DEA SILVA CONSTANCIO                    AVENIDA AUGUSTO EMILIO ESTELITA LINS    JARDIM CAMBURI 29090590VITORIA        ES2024774586000100INSTITUTO DE SELECAO E TECNOLO          000                            
0010001300033R 01                                                000000000000000000000000                                                                                                                                                       
0010001300034P 010180230000001544772 29577050221949981   722228888888888888991401201700000000000750000000002N12012017114012017000000000000000000000000000000000000000000000000000000000000000000000888888888888899          3000000090000000000 
0010001300035Q 011000012449492720ALLANA FERRAO ANDREAO                   RUA IZALTINO ARAO MARQUES               MATA DA PRAIA  29065450VITORIA        ES2024774586000100INSTITUTO DE SELECAO E TECNOLO          000                            
0010001300036R 01                                                000000000000000000000000                                                                                                                                                       
0010001300037P 010180230000001544772 29577050222008560   722228888888888888991401201700000000000750000000002N12012017114012017000000000000000000000000000000000000000000000000000000000000000000000888888888888899          3000000090000000000 
0010001300038Q 011000012449492720ALLANA FERRAO ANDREAO                   RUA IZALTINO ARAO MARQUES               MATA DA PRAIA  29065450VITORIA        ES2024774586000100INSTITUTO DE SELECAO E TECNOLO          000                            
0010001300039R 01                                                000000000000000000000000                                                                                                                                                       
0010001300040P 010180230000001544772 29577050222134256   722228888888888888991401201700000000000750000000002N12012017114012017000000000000000000000000000000000000000000000000000000000000000000000888888888888899          3000000090000000000 
0010001300041Q 011000012449492720ALLANA FERRAO ANDREAO                   RUA IZALTINO ARAO MARQUES               MATA DA PRAIA  29065450VITORIA        ES2024774586000100INSTITUTO DE SELECAO E TECNOLO          000                            
0010001300042R 01                                                000000000000000000000000                                                                                                                                                       
0010001300043P 010180230000001544772 29577050222258983   722228888888888888991401201700000000001000000000002N12012017114012017000000000000000000000000000000000000000000000000000000000000000000000888888888888899          3000000090000000000 
0010001300044Q 011000010442608748PHILIPPE FREITAS VELASCO                RUA DOUTOR JUSTINO HEMERLY ELIAS        AMARELO        29304675CACHOEIRO DE ITES2024774586000100INSTITUTO DE SELECAO E TECNOLO          000                            
0010001300045R 01                                                000000000000000000000000                                                                                                                                                       
0010001300046P 010180230000001544772 29577050116819806   722228888888888888991401201700000000000750000000002N12012017114012017000000000000000000000000000000000000000000000000000000000000000000000888888888888899          3000000090000000000 
0010001300047Q 011000013887028783PEDRO RICARDO FREITAS DA SILVA          AVENIDA PAPUA,  14                      CIDADE CONTINEN29163454SERRA          ES2024774586000100INSTITUTO DE SELECAO E TECNOLO          000                            
0010001300048R 01                                                000000000000000000000000                                                                                                                                                       
0010001300049P 010180230000001544772 29577050014432326   722228888888888888991401201700000000000750000000002N12012017114012017000000000000000000000000000000000000000000000000000000000000000000000888888888888899          3000000090000000000 
0010001300050Q 011000012424367744BRENO SPERANDIO FADINI                  SERVIDAO ARAUJO                         ILHA DE SANTA M29051155VITORIA        ES2024774586000100INSTITUTO DE SELECAO E TECNOLO          000                            
0010001300051R 01                                                000000000000000000000000                                                                                                                                                       
0010001300052P 010180230000001544772 29577050222336589   722228888888888888991401201700000000001000000000002N12012017114012017000000000000000000000000000000000000000000000000000000000000000000000888888888888899          3000000090000000000 
0010001300053Q 011000010483153710BRUNA SELVATICI GHIDETTI                RUA ITACIBA                             PRAIA DE ITAPAR29102280VILA VELHA     ES2024774586000100INSTITUTO DE SELECAO E TECNOLO          000                            
0010001300054R 01                                                000000000000000000000000                                                                                                                                                       
0010001300055P 010180230000001544772 29577050014419132   722228888888888888991401201700000000000750000000002N12012017114012017000000000000000000000000000000000000000000000000000000000000000000000888888888888899          3000000090000000000 
0010001300056Q 011000012424367744BRENO SPERANDIO FADINI                  SERVIDAO ARAUJO                         ILHA DE SANTA M29051155VITORIA        ES2024774586000100INSTITUTO DE SELECAO E TECNOLO          000                            
0010001300057R 01                                                000000000000000000000000                                                                                                                                                       
0010001300058P 010180230000001544772 29577050222453660   722228888888888888991401201700000000000750000000002N12012017114012017000000000000000000000000000000000000000000000000000000000000000000000888888888888899          3000000090000000000 
0010001300059Q 011000012273161786THIAGO VIDAL CUNHA                      RUA TENENTE-CORONEL CARDOSO, 873        CENTRO         28035044CAMPOS DOS GOYTRJ2024774586000100INSTITUTO DE SELECAO E TECNOLO          000                            
0010001300060R 01                                                000000000000000000000000                                                                                                                                                       
0010001300061P 010180230000001544772 29577050135757640   722228888888888888991401201700000000000750000000002N12012017114012017000000000000000000000000000000000000000000000000000000000000000000000888888888888899          3000000090000000000 
0010001300062Q 011000003489783751WAGNER MASCULINO DE OLIVEIRA            RUA PASTOR JONAS MARQUES                CENTRO DE VILA 29100280VILA VELHA     ES2024774586000100INSTITUTO DE SELECAO E TECNOLO          000                            
0010001300063R 01                                                000000000000000000000000                                                                                                                                                       
0010001300064P 010180230000001544772 29577050222542553   722228888888888888991401201700000000000750000000002N12012017114012017000000000000000000000000000000000000000000000000000000000000000000000888888888888899          3000000090000000000 
0010001300065Q 011000014247592777NATHALIA RAISA SILVA MORETTO PEREIRA    RUA C                                   PRAIA DA BALEIA29172686SERRA          ES2024774586000100INSTITUTO DE SELECAO E TECNOLO          000                            
0010001300066R 01                                                000000000000000000000000                                                                                                                                                       
0010001300067P 010180230000001544772 29577050043706622   722228888888888888991401201700000000000750000000002N12012017114012017000000000000000000000000000000000000000000000000000000000000000000000888888888888899          3000000090000000000 
0010001300068Q 011000008826485780KATIUSCIA NASCIMENTO DA SILVA           RUA ARIVALDO FAVALESSA                  SANTO ANTONIO  29026110VITORIA        ES2024774586000100INSTITUTO DE SELECAO E TECNOLO          000                            
0010001300069R 01                                                000000000000000000000000                                                                                                                                                       
0010001300070P 010180230000001544772 29577050157757488   722228888888888888991401201700000000000750000000002N12012017114012017000000000000000000000000000000000000000000000000000000000000000000000888888888888899          3000000090000000000 
0010001300071Q 011000005871593755KEYTTIANE TAGARRO VIEIRA                RUA APOSTOLO PEDRO                      DARLY SANTOS   29103301VILA VELHA     ES2024774586000100INSTITUTO DE SELECAO E TECNOLO          000                            
0010001300072R 01                                                000000000000000000000000                                                                                                                                                       
0010001300073P 010180230000001544772 29577050222634558   722228888888888888991401201700000000000750000000002N12012017114012017000000000000000000000000000000000000000000000000000000000000000000000888888888888899          3000000090000000000 
0010001300074Q 011000013589186780RENAN CARLOS DA SILVA                   RUA PEROBA                              NORMILIA DA CUN29127418VILA VELHA     ES2024774586000100INSTITUTO DE SELECAO E TECNOLO          000                            
0010001300075R 01                                                000000000000000000000000                                                                                                                                                       
0010001300076P 010180230000001544772 29577050222737112   722228888888888888991401201700000000001000000000002N12012017114012017000000000000000000000000000000000000000000000000000000000000000000000888888888888899          3000000090000000000 
0010001300077Q 011000014994029709JORDANE SILVA DE SOUZA                  RUA ARISTOBULO BARBOSA LEAO             JARDIM DA PENHA29060010VITORIA        ES2024774586000100INSTITUTO DE SELECAO E TECNOLO          000                            
0010001300078R 01                                                000000000000000000000000                                                                                                                                                       
0010001300079P 010180230000001544772 29577050222808908   722228888888888888991401201700000000001000000000002N12012017114012017000000000000000000000000000000000000000000000000000000000000000000000888888888888899          3000000090000000000 
0010001300080Q 011000014247592777NATHALIA RAISA SILVA MORETTO PEREIRA    RUA C                                   PRAIA DA BALEIA29172686SERRA          ES2024774586000100INSTITUTO DE SELECAO E TECNOLO          000                            
0010001300081R 01                                                000000000000000000000000                                                                                                                                                       
0010001300082P 010180230000001544772 29577050173514170   722228888888888888991401201700000000000750000000002N12012017114012017000000000000000000000000000000000000000000000000000000000000000000000888888888888899          3000000090000000000 
0010001300083Q 011000069566224753EDINALINA BRIGIDA CASTILHO              RUA NOVA                                ILHA DA CONCEIC29115828VILA VELHA     ES2024774586000100INSTITUTO DE SELECAO E TECNOLO          000                            
0010001300084R 01                                                000000000000000000000000                                                                                                                                                       
0010001300085P 010180230000001544772 29577050223043628   722228888888888888991401201700000000000750000000002N12012017114012017000000000000000000000000000000000000000000000000000000000000000000000888888888888899          3000000090000000000 
0010001300086Q 011000013296395709THAYNARA SUELLEN SOUSA BASTOS           RUA GELU VERVLOET DOS SANTOS            JARDIM CAMBURI 29090100VITORIA        ES2024774586000100INSTITUTO DE SELECAO E TECNOLO          000                            
0010001300087R 01                                                000000000000000000000000                                                                                                                                                       
0010001300088P 010180230000001544772 29577050173702823   722228888888888888991401201700000000000750000000002N12012017114012017000000000000000000000000000000000000000000000000000000000000000000000888888888888899          3000000090000000000 
0010001300089Q 011000014783968730TAINA NUNES DE SA                       RUA 3 DE MARCO                          FORNO VELHO    29937440SAO MATEUS     ES2024774586000100INSTITUTO DE SELECAO E TECNOLO          000                            
0010001300090R 01                                                000000000000000000000000                                                                                                                                                       
0010001300091P 010180230000001544772 29577050223149216   722228888888888888991401201700000000001000000000002N12012017114012017000000000000000000000000000000000000000000000000000000000000000000000888888888888899          3000000090000000000 
0010001300092Q 011000014037588757CHRISLAINY AFONSO DA SILVA              RUA RUI BARBOSA                         PLANALTO       29118350VILA VELHA     ES2024774586000100INSTITUTO DE SELECAO E TECNOLO          000                            
0010001300093R 01                                                000000000000000000000000                                                                                                                                                       
0010001300094P 010180230000001544772 29577050177838505   722228888888888888991401201700000000000750000000002N12012017114012017000000000000000000000000000000000000000000000000000000000000000000000888888888888899          3000000090000000000 
0010001300095Q 011000011032903716RENATA DO ROSARIO SOARES                RUA SANTA INES                          JARDIM CARAPINA29161686SERRA          ES2024774586000100INSTITUTO DE SELECAO E TECNOLO          000                            
0010001300096R 01                                                000000000000000000000000                                                                                                                                                       
0010001300097P 010180230000001544772 29577050100810306   722228888888888888991401201700000000000750000000002N12012017114012017000000000000000000000000000000000000000000000000000000000000000000000888888888888899          3000000090000000000 
0010001300098Q 011000004079113595EMMANUEL DE JESUS BISPO FERREIRA        SHIGS 712 BLOCO D                       ASA SUL        70361754BRASILIA       DF2024774586000100INSTITUTO DE SELECAO E TECNOLO          000                            
0010001300099R 01                                                000000000000000000000000                                                                                                                                                       
0010001300100P 010180230000001544772 29577050223200165   722228888888888888991401201700000000000750000000002N12012017114012017000000000000000000000000000000000000000000000000000000000000000000000888888888888899          3000000090000000000 
0010001300101Q 011000004583284721MARCIA MARIANA DOS REIS                 AVENIDA DESEMBARGADOR ANTONIO JOSE MIGUEPRAIA DA BALEIA29172680SERRA          ES2024774586000100INSTITUTO DE SELECAO E TECNOLO          000                            
0010001300102R 01                                                000000000000000000000000                                                                                                                                                       
0010001300103P 010180230000001544772 29577050223359415   722228888888888888991401201700000000000750000000002N12012017114012017000000000000000000000000000000000000000000000000000000000000000000000888888888888899          3000000090000000000 
0010001300104Q 011000012512999700GUSTAVO HENRIQUE MOREIRA LIMA           RUA ADAO BANDEIRA                       ROSARIO DE FATI29161155SERRA          ES2024774586000100INSTITUTO DE SELECAO E TECNOLO          000                            
0010001300105R 01                                                000000000000000000000000                                                                                                                                                       
0010001300106P 010180230000001544772 29577050223446995   722228888888888888991401201700000000000750000000002N12012017114012017000000000000000000000000000000000000000000000000000000000000000000000888888888888899          3000000090000000000 
0010001300107Q 011000068367457234FERNANDO LUCIO ALEBCAR VALLE            RUA HUMBERTO SERRANO                    ITAPOA         29101463VILA VELHA     ES2024774586000100INSTITUTO DE SELECAO E TECNOLO          000                            
0010001300108R 01                                                000000000000000000000000                                                                                                                                                       
0010001300109P 010180230000001544772 29577050213122563   722228888888888888991401201700000000000750000000002N12012017114012017000000000000000000000000000000000000000000000000000000000000000000000888888888888899          3000000090000000000 
0010001300110Q 011000007653453740JOCIRLEY MARTINS DA SILVA               AVENIDA CORONEL MANOEL NUNES            LARANJEIRAS VEL29162155SERRA          ES2024774586000100INSTITUTO DE SELECAO E TECNOLO          000                            
0010001300111R 01                                                000000000000000000000000                                                                                                                                                       
0010001300112P 010180230000001544772 29577050223551780   722228888888888888991401201700000000001000000000002N12012017114012017000000000000000000000000000000000000000000000000000000000000000000000888888888888899          3000000090000000000 
0010001300113Q 011000009877498707VIVIAN CAMARGO RODRIGUES                RUA MAJOR NODGE ULISSES DE OLIVEIRA     ITAPUA         29101770VILA VELHA     ES2024774586000100INSTITUTO DE SELECAO E TECNOLO          000                            
0010001300114R 01                                                000000000000000000000000                                                                                                                                                       
0010001300115P 010180230000001544772 29577050223637767   722228888888888888991401201700000000000750000000002N12012017114012017000000000000000000000000000000000000000000000000000000000000000000000888888888888899          3000000090000000000 
0010001300116Q 011000005688719796JEASY DA  CRUZ COSTA SANTOS             RUA 24 DE JULHO. N. 12                  INDUSTRIAL     29118706VILA VELHA     ES2024774586000100INSTITUTO DE SELECAO E TECNOLO          000                            
0010001300117R 01                                                000000000000000000000000                                                                                                                                                       
0010001300118P 010180230000001544772 29577050223727106   722228888888888888991401201700000000000750000000002N12012017114012017000000000000000000000000000000000000000000000000000000000000000000000888888888888899          3000000090000000000 
0010001300119Q 011000005632252701THIAGO DE MORAIS LOPES                  RUA MANOEL SOARES DE MELLO              SANTO ANTONIO  29026410VITORIA        ES2024774586000100INSTITUTO DE SELECAO E TECNOLO          000                            
0010001300120R 01                                                000000000000000000000000                                                                                                                                                       
0010001300121P 010180230000001544772 29577050168743538   722228888888888888991401201700000000000750000000002N12012017114012017000000000000000000000000000000000000000000000000000000000000000000000888888888888899          3000000090000000000 
0010001300122Q 011000015962150708LEONARDO COIMBRA DOS SANTOS AQUINO      RUA ELCIO FELIPE SANTIAGO               VILA ISABEL    29142386CARIACICA      ES2024774586000100INSTITUTO DE SELECAO E TECNOLO          000                            
0010001300123R 01                                                000000000000000000000000                                                                                                                                                       
0010001300124P 010180230000001544772 29577050123056150   722228888888888888991401201700000000000750000000002N12012017114012017000000000000000000000000000000000000000000000000000000000000000000000888888888888899          3000000090000000000 
0010001300125Q 011000014496740702THAMARA DOS SANTOS POLONINI             RUA DOUTOR BATALHA RIBEIRO              NOVO PARQUE    29309050CACHOEIRO DE ITES2024774586000100INSTITUTO DE SELECAO E TECNOLO          000                            
0010001300126R 01                                                000000000000000000000000                                                                                                                                                       
0010001300127P 010180230000001544772 29577050224026468   722228888888888888991401201700000000000750000000002N12012017114012017000000000000000000000000000000000000000000000000000000000000000000000888888888888899          3000000090000000000 
0010001300128Q 011000012263438726LUCAS GUIMARAES GONCALVES               AVENIDA ALVARES RODRIGUES DA MATTA      SAPUCAIA       29730000BAIXO GUANDU   ES2024774586000100INSTITUTO DE SELECAO E TECNOLO          000                            
0010001300129R 01                                                000000000000000000000000                                                                                                                                                       
0010001300130P 010180230000001544772 29577050188640645   722228888888888888991401201700000000000750000000002N12012017114012017000000000000000000000000000000000000000000000000000000000000000000000888888888888899          3000000090000000000 
0010001300131Q 011000013328562761MARLON VICTORIO PEREIRA ANDREATTA       RUA DURVAL GONCALVES DOS SANTOS         CAMPO GRANDE   29146532CARIACICA      ES2024774586000100INSTITUTO DE SELECAO E TECNOLO          000                            
0010001300132R 01                                                000000000000000000000000                                                                                                                                                       
0010001300133P 010180230000001544772 29577050224108887   722228888888888888991401201700000000000750000000002N12012017114012017000000000000000000000000000000000000000000000000000000000000000000000888888888888899          3000000090000000000 
0010001300134Q 011000078413176620DLOURDES APARECIDA PEREIRA              RUA IPE ROXO                            FEU ROSA       29172026SERRA          ES2024774586000100INSTITUTO DE SELECAO E TECNOLO          000                            
0010001300135R 01                                                000000000000000000000000                                                                                                                                                       
0010001300136P 010180230000001544772 29577050224222581   722228888888888888991401201700000000000750000000002N12012017114012017000000000000000000000000000000000000000000000000000000000000000000000888888888888899          3000000090000000000 
0010001300137Q 011000013733310705BARBARA ALTOE LEMOS                     AV HUGO MUSSO, 2206                     ITAPOA         29101785VILA VELHA     ES2024774586000100INSTITUTO DE SELECAO E TECNOLO          000                            
0010001300138R 01                                                000000000000000000000000                                                                                                                                                       
0010001300139P 010180230000001544772 29577050224325940   722228888888888888991401201700000000000750000000002N12012017114012017000000000000000000000000000000000000000000000000000000000000000000000888888888888899          3000000090000000000 
0010001300140Q 011000013121011723GABRIELA MENDES PEREIRA                 ESCADARIA PEDRO MARQUES PEREIRA         DA PENHA       29047307VITORIA        ES2024774586000100INSTITUTO DE SELECAO E TECNOLO          000                            
0010001300141R 01                                                000000000000000000000000                                                                                                                                                       
0010001300142P 010180230000001544772 29577050224421404   722228888888888888991401201700000000000750000000002N12012017114012017000000000000000000000000000000000000000000000000000000000000000000000888888888888899          3000000090000000000 
0010001300143Q 011000009404400750GILCINEIA FRANQUILIN SOUZA              RUA CLIMERIO PISSARA NASCIMENTO         TAQUARA I      29167810SERRA          ES2024774586000100INSTITUTO DE SELECAO E TECNOLO          000                            
0010001300144R 01                                                000000000000000000000000                                                                                                                                                       
0010001300145P 010180230000001544772 29577050014406536   722228888888888888991401201700000000000750000000002N12012017114012017000000000000000000000000000000000000000000000000000000000000000000000888888888888899          3000000090000000000 
0010001300146Q 011000012424367744BRENO SPERANDIO FADINI                  SERVIDAO ARAUJO                         ILHA DE SANTA M29051155VITORIA        ES2024774586000100INSTITUTO DE SELECAO E TECNOLO          000                            
0010001300147R 01                                                000000000000000000000000                                                                                                                                                       
0010001300148P 010180230000001544772 29577050123042210   722228888888888888991401201700000000000750000000002N12012017114012017000000000000000000000000000000000000000000000000000000000000000000000888888888888899          3000000090000000000 
0010001300149Q 011000014496740702THAMARA DOS SANTOS POLONINI             RUA DOUTOR BATALHA RIBEIRO              NOVO PARQUE    29309050CACHOEIRO DE ITES2024774586000100INSTITUTO DE SELECAO E TECNOLO          000                            
0010001300150R 01                                                000000000000000000000000                                                                                                                                                       
0010001300151P 010180230000001544772 29577050224507370   722228888888888888991401201700000000001000000000002N12012017114012017000000000000000000000000000000000000000000000000000000000000000000000888888888888899          3000000090000000000 
0010001300152Q 011000013437001752JULIA LYRA DA COSTA                     SITIO QUATRO IRMAOS                     ANISIO LAHASS  29260000DOMINGOS MARTINES2024774586000100INSTITUTO DE SELECAO E TECNOLO          000                            
0010001300153R 01                                                000000000000000000000000                                                                                                                                                       
0010001300154P 010180230000001544772 29577050192522887   722228888888888888991401201700000000000750000000002N12012017114012017000000000000000000000000000000000000000000000000000000000000000000000888888888888899          3000000090000000000 
0010001300155Q 011000013480097723TALES                                   RUA THEODORICO SALVADOR                 ARACUI         29360000CASTELO        ES2024774586000100INSTITUTO DE SELECAO E TECNOLO          000                            
0010001300156R 01                                                000000000000000000000000                                                                                                                                                       
0010001300157P 010180230000001544772 29577050224601764   722228888888888888991401201700000000001000000000002N12012017114012017000000000000000000000000000000000000000000000000000000000000000000000888888888888899          3000000090000000000 
0010001300158Q 011000091686903200ANGELA CRISTINA GUARESQUE               RUA BASILIO DA GAMA                     JARDIM LIMOEIRO29164083SERRA          ES2024774586000100INSTITUTO DE SELECAO E TECNOLO          000                            
0010001300159R 01                                                000000000000000000000000                                                                                                                                                       
0010001300160P 010180230000001544772 29577050224837798   722228888888888888991401201700000000000750000000002N12012017114012017000000000000000000000000000000000000000000000000000000000000000000000888888888888899          3000000090000000000 
0010001300161Q 011000009982836650MICHAEL RODRIGUES MARTINS PEREIRA       RUA LUIZ PASCHOAL BORGES 298            CENTRO         36955000MUTUM          MG2024774586000100INSTITUTO DE SELECAO E TECNOLO          000                            
0010001300162R 01                                                000000000000000000000000                                                                                                                                                       
0010001300163P 010180230000001544772 29577050224929723   722228888888888888991401201700000000000750000000002N12012017114012017000000000000000000000000000000000000000000000000000000000000000000000888888888888899          3000000090000000000 
0010001300164Q 011000002870996101ALINE FERREIRA OLIVEIRA                 RUA JOSE COSTALONGA 27                  ILMENITA       29345000MARATAIZES     ES2024774586000100INSTITUTO DE SELECAO E TECNOLO          000                            
0010001300165R 01                                                000000000000000000000000                                                                                                                                                       
0010001300166P 010180230000001544772 29577050225120405   722228888888888888991401201700000000000750000000002N12012017114012017000000000000000000000000000000000000000000000000000000000000000000000888888888888899          3000000090000000000 
0010001300167Q 011000013590442727EWERTON CALAZANS FERRI                  AVENIDA CEZAR HILAL                     BENTO FERREIRA 29050657VITORIA        ES2024774586000100INSTITUTO DE SELECAO E TECNOLO          000                            
0010001300168R 01                                                000000000000000000000000                                                                                                                                                       
0010001300169P 010180230000001544772 29577050225234183   722228888888888888991401201700000000000750000000002N12012017114012017000000000000000000000000000000000000000000000000000000000000000000000888888888888899          3000000090000000000 
0010001300170Q 011000008852739904KAREN SALGADO VIEIRA                    RUA IDA TAMAROZZI PETRUCCI              ITAPOA         86043180LONDRINA       PR2024774586000100INSTITUTO DE SELECAO E TECNOLO          000                            
0010001300171R 01                                                000000000000000000000000                                                                                                                                                       
0010001300172P 010180230000001544772 29577050225237467   722228888888888888991401201700000000000750000000002N12012017114012017000000000000000000000000000000000000000000000000000000000000000000000888888888888899          3000000090000000000 
0010001300173Q 011000008852739904KAREN SALGADO VIEIRA                    RUA IDA TAMAROZZI PETRUCCI              ITAPOA         86043180LONDRINA       PR2024774586000100INSTITUTO DE SELECAO E TECNOLO          000                            
0010001300174R 01                                                000000000000000000000000                                                                                                                                                       
0010001300175P 010180230000001544772 29577050225325866   722228888888888888991401201700000000000750000000002N12012017114012017000000000000000000000000000000000000000000000000000000000000000000000888888888888899          3000000090000000000 
0010001300176Q 011000011877500771KELY ALIPRANDI ALVES                    AVENIDA SANTA LUZIA                     MUCURI         29148385CARIACICA      ES2024774586000100INSTITUTO DE SELECAO E TECNOLO          000                            
0010001300177R 01                                                000000000000000000000000                                                                                                                                                       
0010001300178P 010180230000001544772 29577050224656493   722228888888888888991401201700000000001000000000002N12012017114012017000000000000000000000000000000000000000000000000000000000000000000000888888888888899          3000000090000000000 
0010001300179Q 011000091686903200ANGELA CRISTINA GUARESQUE               RUA BASILIO DA GAMA                     JARDIM LIMOEIRO29164083SERRA          ES2024774586000100INSTITUTO DE SELECAO E TECNOLO          000                            
0010001300180R 01                                                000000000000000000000000                                                                                                                                                       
0010001300181P 010180230000001544772 29577050032755758   722228888888888888991401201700000000000750000000002N12012017114012017000000000000000000000000000000000000000000000000000000000000000000000888888888888899          3000000090000000000 
0010001300182Q 011000001121572707LUCIANI BOTECHIA DA SILVA               RUA ANTONIO GERMANO DA SILVA            ITAPEBUSSU     29210170GUARAPARI      ES2024774586000100INSTITUTO DE SELECAO E TECNOLO          000                            
0010001300183R 01                                                000000000000000000000000                                                                                                                                                       
0010001300184P 010180230000001544772 29577050149938876   722228888888888888991401201700000000000750000000002N12012017114012017000000000000000000000000000000000000000000000000000000000000000000000888888888888899          3000000090000000000 
0010001300185Q 011000015085399790IGOR OLIVEIRA DA NOBREGA                AVENIDA SANTO ANTONIO                   SANTO ANTONIO  29026170VITORIA        ES2024774586000100INSTITUTO DE SELECAO E TECNOLO          000                            
0010001300186R 01                                                000000000000000000000000                                                                                                                                                       
0010001300187P 010180230000001544772 29577050225454699   722228888888888888991401201700000000001000000000002N12012017114012017000000000000000000000000000000000000000000000000000000000000000000000888888888888899          3000000090000000000 
0010001300188Q 011000014087794717DIANA FLODOALDO                         RUA CORONEL OLIMPIO CUNHA, 01           CAMPO GRANDE   29146010CARIACICA      ES2024774586000100INSTITUTO DE SELECAO E TECNOLO          000                            
0010001300189R 01                                                000000000000000000000000                                                                                                                                                       
0010001300190P 010180230000001544772 29577050225204078   722228888888888888991401201700000000000750000000002N12012017114012017000000000000000000000000000000000000000000000000000000000000000000000888888888888899          3000000090000000000 
0010001300191Q 011000008852739904KAREN SALGADO VIEIRA                    RUA IDA TAMAROZZI PETRUCCI              ITAPOA         86043180LONDRINA       PR2024774586000100INSTITUTO DE SELECAO E TECNOLO          000                            
0010001300192R 01                                                000000000000000000000000                                                                                                                                                       
0010001300193P 010180230000001544772 29577050225519071   722228888888888888991401201700000000001000000000002N12012017114012017000000000000000000000000000000000000000000000000000000000000000000000888888888888899          3000000090000000000 
0010001300194Q 011000011772485730GABRIELA HONORATO BRANDAO GAMA          AVENIDA SANTA LEOPOLDINA                COQUEIRAL DE IT29102907VILA VELHA     ES2024774586000100INSTITUTO DE SELECAO E TECNOLO          000                            
0010001300195R 01                                                000000000000000000000000                                                                                                                                                       
0010001300196P 010180230000001544772 29577050175044828   722228888888888888991401201700000000000750000000002N12012017114012017000000000000000000000000000000000000000000000000000000000000000000000888888888888899          3000000090000000000 
0010001300197Q 011000015896305729FABIANE DE OLIVEIRA SANTOS              RUA SAO JORGE                           ITACIBA        29150140CARIACICA      ES2024774586000100INSTITUTO DE SELECAO E TECNOLO          000                            
0010001300198R 01                                                000000000000000000000000                                                                                                                                                       
0010001300199P 010180230000001544772 29577050121955948   722228888888888888991401201700000000000750000000002N12012017114012017000000000000000000000000000000000000000000000000000000000000000000000888888888888899          3000000090000000000 
0010001300200Q 011000011370330618LUCAS CERUTTI VALADAO LOPES             AVENIDA ANTONIO GIL VELOSO 90           PRAIA DA COSTA 29101010VILA VELHA     ES2024774586000100INSTITUTO DE SELECAO E TECNOLO          000                            
0010001300201R 01                                                000000000000000000000000                                                                                                                                                       
0010001300202P 010180230000001544772 29577050175008710   722228888888888888991401201700000000000750000000002N12012017114012017000000000000000000000000000000000000000000000000000000000000000000000888888888888899          3000000090000000000 
0010001300203Q 011000015896305729FABIANE DE OLIVEIRA SANTOS              RUA SAO JORGE                           ITACIBA        29150140CARIACICA      ES2024774586000100INSTITUTO DE SELECAO E TECNOLO          000                            
0010001300204R 01                                                000000000000000000000000                                                                                                                                                       
0010001300205P 010180230000001544772 29577050087405400   722228888888888888991401201700000000000750000000002N12012017114012017000000000000000000000000000000000000000000000000000000000000000000000888888888888899          3000000090000000000 
0010001300206Q 011000011233288709ELIQUE ANITA CALLENTE SINHORELLI        AVENIDA VERGILIO LORENCINI              ALTO PONGAL    29230000ANCHIETA       ES2024774586000100INSTITUTO DE SELECAO E TECNOLO          000                            
0010001300207R 01                                                000000000000000000000000                                                                                                                                                       
0010001300208P 010180230000001544772 29577050134118823   722228888888888888991401201700000000000750000000002N12012017114012017000000000000000000000000000000000000000000000000000000000000000000000888888888888899          3000000090000000000 
0010001300209Q 011000012333170751JULIANA DE ALMEIDA E SILVA              AVENIDA FORTALEZA 1111                  ITAPUA         29101572VILA VELHA     ES2024774586000100INSTITUTO DE SELECAO E TECNOLO          000                            
0010001300210R 01                                                000000000000000000000000                                                                                                                                                       
0010001300211P 010180230000001544772 29577050225828189   722228888888888888991401201700000000000750000000002N12012017114012017000000000000000000000000000000000000000000000000000000000000000000000888888888888899          3000000090000000000 
0010001300212Q 011000012272836798YURI ALBANO DIAS                        RUA SAO BENTO                           CENTRO         29016290VITORIA        ES2024774586000100INSTITUTO DE SELECAO E TECNOLO          000                            
0010001300213R 01                                                000000000000000000000000                                                                                                                                                       
0010001300214P 010180230000001544772 29577050219545496   722228888888888888991401201700000000000750000000002N12012017114012017000000000000000000000000000000000000000000000000000000000000000000000888888888888899          3000000090000000000 
0010001300215Q 011000010747260737AUGUSTO GUSTAVO MELLO                   RUA QUATORZE, 5                         VILA NOVA      29105141VILA VELHA     ES2024774586000100INSTITUTO DE SELECAO E TECNOLO          000                            
0010001300216R 01                                                000000000000000000000000                                                                                                                                                       
0010001300217P 010180230000001544772 29577050134110570   722228888888888888991401201700000000000750000000002N12012017114012017000000000000000000000000000000000000000000000000000000000000000000000888888888888899          3000000090000000000 
0010001300218Q 011000012333170751JULIANA DE ALMEIDA E SILVA              AVENIDA FORTALEZA 1111                  ITAPUA         29101572VILA VELHA     ES2024774586000100INSTITUTO DE SELECAO E TECNOLO          000                            
0010001300219R 01                                                000000000000000000000000                                                                                                                                                       
0010001300220P 010180230000001544772 29577050225902457   722228888888888888991401201700000000000750000000002N12012017114012017000000000000000000000000000000000000000000000000000000000000000000000888888888888899          3000000090000000000 
0010001300221Q 011000012614964778GEISA FERREIRA DA SILVA                 RUA BAHIA, S/N                          RECANTO DO SOL 29230000ANCHIETA       ES2024774586000100INSTITUTO DE SELECAO E TECNOLO          000                            
0010001300222R 01                                                000000000000000000000000                                                                                                                                                       
0010001300223P 010180230000001544772 29577050226120480   722228888888888888991401201700000000000750000000002N12012017114012017000000000000000000000000000000000000000000000000000000000000000000000888888888888899          3000000090000000000 
0010001300224Q 011000084029030530TEOFILO PEDRO GOBIRA ALVES              RUA JOSE NEVES CYPRESTE                 JARDIM DA PENHA29060300VITORIA        ES2024774586000100INSTITUTO DE SELECAO E TECNOLO          000                            
0010001300225R 01                                                000000000000000000000000                                                                                                                                                       
0010001300226P 010180230000001544772 29577050225033751   722228888888888888991401201700000000000750000000002N12012017114012017000000000000000000000000000000000000000000000000000000000000000000000888888888888899          3000000090000000000 
0010001300227Q 011000001081302585LUCIANO ROCHA BRAGA                     RUA MACEDO CORDEIRO                     CENTRO         45909000SANTO ANTONIO DBA2024774586000100INSTITUTO DE SELECAO E TECNOLO          000                            
0010001300228R 01                                                000000000000000000000000                                                                                                                                                       
0010001300229P 010180230000001544772 29577050226200853   722228888888888888991401201700000000000750000000002N12012017114012017000000000000000000000000000000000000000000000000000000000000000000000888888888888899          3000000090000000000 
0010001300230Q 011000024632761850RODRIGO AUGUSTO SALGADO                 RUA ITAOCA, 220                         COQUEIRAL DE IT29102305VILA VELHA     ES2024774586000100INSTITUTO DE SELECAO E TECNOLO          000                            
0010001300231R 01                                                000000000000000000000000                                                                                                                                                       
0010001300232P 010180230000001544772 29577050066438969   722228888888888888991401201700000000000750000000002N12012017114012017000000000000000000000000000000000000000000000000000000000000000000000888888888888899          3000000090000000000 
0010001300233Q 011000011782926739LORENNA RIGAMONTE BATISTA               RUA OLINDO BARCELOS SOEIRO              PLANALTO       29906430LINHARES       ES2024774586000100INSTITUTO DE SELECAO E TECNOLO          000                            
0010001300234R 01                                                000000000000000000000000                                                                                                                                                       
0010001300235P 010180230000001544772 29577050167942382   722228888888888888991401201700000000000750000000002N12012017114012017000000000000000000000000000000000000000000000000000000000000000000000888888888888899          3000000090000000000 
0010001300236Q 011000063283999791ANGELA RIBEIRO DE BARROS                RUA CEARA                               PRAIA DA COSTA 29101290VILA VELHA     ES2024774586000100INSTITUTO DE SELECAO E TECNOLO          000                            
0010001300237R 01                                                000000000000000000000000                                                                                                                                                       
0010001300238P 010180230000001544772 29577050226420217   722228888888888888991401201700000000000750000000002N12012017114012017000000000000000000000000000000000000000000000000000000000000000000000888888888888899          3000000090000000000 
0010001300239Q 011000005306029701CAIO ROSSONI SISQUINI                   RUA DULCE BRITO ESPINDULA Nº71B        JARDIM CAMBURI 29090340VITORIA        ES2024774586000100INSTITUTO DE SELECAO E TECNOLO          000                            
0010001300240R 01                                                000000000000000000000000                                                                                                                                                       
0010001300241P 010180230000001544772 29577050067618319   722228888888888888991401201700000000000750000000002N12012017114012017000000000000000000000000000000000000000000000000000000000000000000000888888888888899          3000000090000000000 
0010001300242Q 011000013320482777RAMILIA CABRAL TEIXEIRA                 RUA ALESSANDRA FEU SECCHIM              DOUTOR GILSON C29310508CACHOEIRO DE ITES2024774586000100INSTITUTO DE SELECAO E TECNOLO          000                            
0010001300243R 01                                                000000000000000000000000                                                                                                                                                       
0010001300244P 010180230000001544772 29577050088805315   722228888888888888991401201700000000000750000000002N12012017114012017000000000000000000000000000000000000000000000000000000000000000000000888888888888899          3000000090000000000 
0010001300245Q 011000013297888776HENRIQUE DE AVILA EMERENCIANO           RUA LUIZ D'ISEP I                       VISTA DA SERRA 29176397SERRA          ES2024774586000100INSTITUTO DE SELECAO E TECNOLO          000                            
0010001300246R 01                                                000000000000000000000000                                                                                                                                                       
00100015         000248                                                                                                                                                                                                                         
00199999         000001000250                                                                                                                                                                                                                   
