00100000         2247745860001000029577050014       0180230000001544772 INSTITUTO DE SELECAO E TECNOLOBANCO DO BRASIL                         21701201701100600005403000000515122941PROCESSAMEN                                                 
00100011T0100020 20247745860001000029577050014       0180230000001544772 INSTITUTO DE SELECAO E TECNOLO                                                                                000000001701201700000000  000000000                      
0010001300001T 020180230000001544772 29577050000624331   788888888888889919012017000000000007500001000213888888888888899          0900000000000010000000000000000000000000000000000000000   0000000000000000000000000A9        170192957705     
0010001300002U 020000000000000000000000000000000000000000000000000000000000000000000000000000000000000000000000000000000000000000000000001701201700000000            000000000000000                              000                           
0010001300003T 020180230000001544772 29577050005252419   788888888888889918012017000000000007500001012408888888888888899          0900000000000010000000000000000000000000000000000000000   0000000000000000000000000A9        170192957705     
0010001300004U 020000000000000000000000000000000000000000000000000000000000000000000000000000000000000000000000000000000000000000000000001701201700000000            000000000000000                              000                           
0010001300005T 020180230000001544772 29577050006357952   788888888888889919012017000000000007500001012408888888888888899          0900000000000010000000000000000000000000000000000000000   0000000000000000000000000A9        170192957705     
0010001300006U 020000000000000000000000000000000000000000000000000000000000000000000000000000000000000000000000000000000000000000000000001701201700000000            000000000000000                              000                           
0010001300007T 020180230000001544772 29577050007901095   788888888888889918012017000000000007500001012416888888888888899          0900000000000010000000000000000000000000000000000000000   0000000000000000000000000A9        170192957705     
0010001300008U 020000000000000000000000000000000000000000000000000000000000000000000000000000000000000000000000000000000000000000000000001701201700000000            000000000000000                              000                           
0010001300009T 020180230000001544772 29577050008409665   788888888888889918012017000000000007500001012416888888888888899          0900000000000010000000000000000000000000000000000000000   0000000000000000000000000A9        170192957705     
0010001300010U 020000000000000000000000000000000000000000000000000000000000000000000000000000000000000000000000000000000000000000000000001701201700000000            000000000000000                              000                           
0010001300011T 020180230000001544772 29577050009600587   78888888888888991801201700000000000750000103049X888888888888899          0900000000000010000000000000000000000000000000000000000   0000000000000000000000000A9        170192957705     
0010001300012U 020000000000000000000000000000000000000000000000000000000000000000000000000000000000000000000000000000000000000000000000001701201700000000            000000000000000                              000                           
0010001300013T 020180230000001544772 29577050009614240   78888888888888991801201700000000000750000103049X888888888888899          0900000000000010000000000000000000000000000000000000000   0000000000000000000000000A9        170192957705     
0010001300014U 020000000000000000000000000000000000000000000000000000000000000000000000000000000000000000000000000000000000000000000000001701201700000000            000000000000000                              000                           
0010001300015T 020180230000001544772 29577050009638810   78888888888888991801201700000000000750000103049X888888888888899          0900000000000010000000000000000000000000000000000000000   0000000000000000000000000A9        170192957705     
0010001300016U 020000000000000000000000000000000000000000000000000000000000000000000000000000000000000000000000000000000000000000000000001701201700000000            000000000000000                              000                           
0010001300017T 020180230000001544772 29577050009641642   78888888888888991801201700000000000750000103049X888888888888899          0900000000000010000000000000000000000000000000000000000   0000000000000000000000000A9        170192957705     
0010001300018U 020000000000000000000000000000000000000000000000000000000000000000000000000000000000000000000000000000000000000000000000001701201700000000            000000000000000                              000                           
0010001300019T 020180230000001544772 29577050009829728   788888888888889918012017000000000007500001000213888888888888899          0900000000000010000000000000000000000000000000000000000   0000000000000000000000000A9        170192957705     
0010001300020U 020000000000000000000000000000000000000000000000000000000000000000000000000000000000000000000000000000000000000000000000001701201700000000            000000000000000                              000                           
0010001300021T 020180230000001544772 29577050009920084   788888888888889918012017000000000007500001012416888888888888899          0900000000000010000000000000000000000000000000000000000   0000000000000000000000000A9        170192957705     
0010001300022U 020000000000000000000000000000000000000000000000000000000000000000000000000000000000000000000000000000000000000000000000001701201700000000            000000000000000                              000                           
0010001300023T 020180230000001544772 29577050010036309   788888888888889918012017000000000007500001000213888888888888899          0900000000000010000000000000000000000000000000000000000   0000000000000000000000000A9        170192957705     
0010001300024U 020000000000000000000000000000000000000000000000000000000000000000000000000000000000000000000000000000000000000000000000001701201700000000            000000000000000                              000                           
0010001300025T 020180230000001544772 29577050010855815   788888888888889918012017000000000007500001012408888888888888899          0900000000000010000000000000000000000000000000000000000   0000000000000000000000000A9        170192957705     
0010001300026U 020000000000000000000000000000000000000000000000000000000000000000000000000000000000000000000000000000000000000000000000001701201700000000            000000000000000                              000                           
0010001300027T 020180230000001544772 29577050011149905   788888888888889918012017000000000007500001012416888888888888899          0900000000000010000000000000000000000000000000000000000   0000000000000000000000000A9        170192957705     
0010001300028U 020000000000000000000000000000000000000000000000000000000000000000000000000000000000000000000000000000000000000000000000001701201700000000            000000000000000                              000                           
0010001300029T 020180230000001544772 29577050011339971   788888888888889918012017000000000007500001012408888888888888899          0900000000000010500000000000000000000000000000000000000   0000000000000000000000000A9A4      170192957705     
0010001300030U 020000000000000000000000000000000000000000000000000000000000000000000000000000000000000000000000000000000000000000000000001701201700000000            000000000000000                              000                           
0010001300031T 020180230000001544772 29577050011501042   78888888888888991801201700000000000750000100829X888888888888899          0900000000000010000000000000000000000000000000000000000   0000000000000000000000000A9        170192957705     
0010001300032U 020000000000000000000000000000000000000000000000000000000000000000000000000000000000000000000000000000000000000000000000001701201700000000            000000000000000                              000                           
0010001300033T 020180230000001544772 29577050011711483   788888888888889918012017000000000007500001000213888888888888899          0900000000000010000000000000000000000000000000000000000   0000000000000000000000000A9        170192957705     
0010001300034U 020000000000000000000000000000000000000000000000000000000000000000000000000000000000000000000000000000000000000000000000001701201700000000            000000000000000                              000                           
0010001300035T 020180230000001544772 29577050012952921   788888888888889918012017000000000007500001046280888888888888899          0900000000000010000000000000000000000000000000000000000   0000000000000000000000000A9        170192957705     
0010001300036U 020000000000000000000000000000000000000000000000000000000000000000000000000000000000000000000000000000000000000000000000001701201700000000            000000000000000                              000                           
0010001300037T 020180230000001544772 29577050013116288   788888888888889918012017000000000007500001000213888888888888899          0900000000000010000000000000000000000000000000000000000   0000000000000000000000000A9        170192957705     
0010001300038U 020000000000000000000000000000000000000000000000000000000000000000000000000000000000000000000000000000000000000000000000001701201700000000            000000000000000                              000                           
0010001300039T 020180230000001544772 29577050013551374   788888888888889918012017000000000007500001000213888888888888899          0900000000000010000000000000000000000000000000000000000   0000000000000000000000000A9        170192957705     
0010001300040U 020000000000000000000000000000000000000000000000000000000000000000000000000000000000000000000000000000000000000000000000001701201700000000            000000000000000                              000                           
0010001300041T 020180230000001544772 29577050013643405   788888888888889918012017000000000007500001000213888888888888899          0900000000000010000000000000000000000000000000000000000   0000000000000000000000000A9        170192957705     
0010001300042U 020000000000000000000000000000000000000000000000000000000000000000000000000000000000000000000000000000000000000000000000001701201700000000            000000000000000                              000                           
0010001300043T 020180230000001544772 29577050013805488   78888888888888991801201700000000000750000103049X888888888888899          0900000000000010000000000000000000000000000000000000000   0000000000000000000000000A9        170192957705     
0010001300044U 020000000000000000000000000000000000000000000000000000000000000000000000000000000000000000000000000000000000000000000000001701201700000000            000000000000000                              000                           
0010001300045T 020180230000001544772 29577050014018957   788888888888889918012017000000000007500001036803888888888888899          0900000000000010000000000000000000000000000000000000000   0000000000000000000000000A9        170192957705     
0010001300046U 020000000000000000000000000000000000000000000000000000000000000000000000000000000000000000000000000000000000000000000000001701201700000000            000000000000000                              000                           
0010001300047T 020180230000001544772 29577050014118868   788888888888889918012017000000000007500001012416888888888888899          0900000000000010500000000000000000000000000000000000000   0000000000000000000000000A9A4      170192957705     
0010001300048U 020000000000000000000000000000000000000000000000000000000000000000000000000000000000000000000000000000000000000000000000001701201700000000            000000000000000                              000                           
0010001300049T 020180230000001544772 29577050014209622   788888888888889918012017000000000007500001012408888888888888899          0900000000000010000000000000000000000000000000000000000   0000000000000000000000000A9        170192957705     
0010001300050U 020000000000000000000000000000000000000000000000000000000000000000000000000000000000000000000000000000000000000000000000001701201700000000            000000000000000                              000                           
0010001300051T 020180230000001544772 29577050014529921   788888888888889918012017000000000007500001004782888888888888899          0900000000000010500000000000000000000000000000000000000   0000000000000000000000000A9A4      170192957705     
0010001300052U 020000000000000000000000000000000000000000000000000000000000000000000000000000000000000000000000000000000000000000000000001701201700000000            000000000000000                              000                           
0010001300053T 020180230000001544772 29577050014858648   788888888888889918012017000000000007500001000213888888888888899          0900000000000010000000000000000000000000000000000000000   0000000000000000000000000A9        170192957705     
0010001300054U 020000000000000000000000000000000000000000000000000000000000000000000000000000000000000000000000000000000000000000000000001701201700000000            000000000000000                              000                           
0010001300055T 020180230000001544772 29577050014920598   78888888888888991801201700000000000750000103049X888888888888899          0900000000000010500000000000000000000000000000000000000   0000000000000000000000000A9A4      170192957705     
0010001300056U 020000000000000000000000000000000000000000000000000000000000000000000000000000000000000000000000000000000000000000000000001701201700000000            000000000000000                              000                           
0010001300057T 020180230000001544772 29577050015053658   788888888888889918012017000000000007500001012416888888888888899          0900000000000010000000000000000000000000000000000000000   0000000000000000000000000A9        170192957705     
0010001300058U 020000000000000000000000000000000000000000000000000000000000000000000000000000000000000000000000000000000000000000000000001701201700000000            000000000000000                              000                           
0010001300059T 020180230000001544772 29577050015117540   788888888888889918012017000000000007500001012408888888888888899          0900000000000010000000000000000000000000000000000000000   0000000000000000000000000A9        170192957705     
0010001300060U 020000000000000000000000000000000000000000000000000000000000000000000000000000000000000000000000000000000000000000000000001701201700000000            000000000000000                              000                           
0010001300061T 020180230000001544772 29577050015617438   788888888888889918012017000000000007500001012416888888888888899          0900000000000010000000000000000000000000000000000000000   0000000000000000000000000A9        170192957705     
0010001300062U 020000000000000000000000000000000000000000000000000000000000000000000000000000000000000000000000000000000000000000000000001701201700000000            000000000000000                              000                           
0010001300063T 020180230000001544772 29577050015851022   78888888888888991801201700000000000750000103049X888888888888899          0900000000000010000000000000000000000000000000000000000   0000000000000000000000000A9        170192957705     
0010001300064U 020000000000000000000000000000000000000000000000000000000000000000000000000000000000000000000000000000000000000000000000001701201700000000            000000000000000                              000                           
0010001300065T 020180230000001544772 29577050016223951   788888888888889918012017000000000007500001030864888888888888899          0900000000000010500000000000000000000000000000000000000   0000000000000000000000000A9A4      170192957705     
0010001300066U 020000000000000000000000000000000000000000000000000000000000000000000000000000000000000000000000000000000000000000000000001701201700000000            000000000000000                              000                           
0010001300067T 020180230000001544772 29577050017115646   788888888888889918012017000000000007500001012408888888888888899          0900000000000010000000000000000000000000000000000000000   0000000000000000000000000A9        170192957705     
0010001300068U 020000000000000000000000000000000000000000000000000000000000000000000000000000000000000000000000000000000000000000000000001701201700000000            000000000000000                              000                           
0010001300069T 020180230000001544772 29577050017334724   788888888888889918012017000000000007500001009245888888888888899          0900000000000010000000000000000000000000000000000000000   0000000000000000000000000A9        170192957705     
0010001300070U 020000000000000000000000000000000000000000000000000000000000000000000000000000000000000000000000000000000000000000000000001701201700000000            000000000000000                              000                           
0010001300071T 020180230000001544772 29577050017521440   788888888888889918012017000000000007500001012408888888888888899          0900000000000010000000000000000000000000000000000000000   0000000000000000000000000A9        170192957705     
0010001300072U 020000000000000000000000000000000000000000000000000000000000000000000000000000000000000000000000000000000000000000000000001701201700000000            000000000000000                              000                           
0010001300073T 020180230000001544772 29577050017716640   788888888888889918012017000000000007500001000213888888888888899          0900000000000010500000000000000000000000000000000000000   0000000000000000000000000A9A4      170192957705     
0010001300074U 020000000000000000000000000000000000000000000000000000000000000000000000000000000000000000000000000000000000000000000000001701201700000000            000000000000000                              000                           
0010001300075T 020180230000001544772 29577050017910190   788888888888889918012017000000000007500001012416888888888888899          0900000000000010000000000000000000000000000000000000000   0000000000000000000000000A9        170192957705     
0010001300076U 020000000000000000000000000000000000000000000000000000000000000000000000000000000000000000000000000000000000000000000000001701201700000000            000000000000000                              000                           
0010001300077T 020180230000001544772 29577050018046281   78888888888888991801201700000000000750000103049X888888888888899          0900000000000010500000000000000000000000000000000000000   0000000000000000000000000A9A4      170192957705     
0010001300078U 020000000000000000000000000000000000000000000000000000000000000000000000000000000000000000000000000000000000000000000000001701201700000000            000000000000000                              000                           
0010001300079T 020180230000001544772 29577050018111959   788888888888889918012017000000000007500001009245888888888888899          0900000000000010000000000000000000000000000000000000000   0000000000000000000000000A9        170192957705     
0010001300080U 020000000000000000000000000000000000000000000000000000000000000000000000000000000000000000000000000000000000000000000000001701201700000000            000000000000000                              000                           
0010001300081T 020180230000001544772 29577050018130301   788888888888889918012017000000000007500001009245888888888888899          0900000000000010000000000000000000000000000000000000000   0000000000000000000000000A9        170192957705     
0010001300082U 020000000000000000000000000000000000000000000000000000000000000000000000000000000000000000000000000000000000000000000000001701201700000000            000000000000000                              000                           
0010001300083T 020180230000001544772 29577050018404126   788888888888889918012017000000000007500001000213888888888888899          0900000000000010000000000000000000000000000000000000000   0000000000000000000000000A9        170192957705     
0010001300084U 020000000000000000000000000000000000000000000000000000000000000000000000000000000000000000000000000000000000000000000000001701201700000000            000000000000000                              000                           
0010001300085T 020180230000001544772 29577050018748848   788888888888889918012017000000000007500001012408888888888888899          0900000000000010000000000000000000000000000000000000000   0000000000000000000000000A9        170192957705     
0010001300086U 020000000000000000000000000000000000000000000000000000000000000000000000000000000000000000000000000000000000000000000000001701201700000000            000000000000000                              000                           
0010001300087T 020180230000001544772 29577050020141247   788888888888889919012017000000000007500001012408888888888888899          0900000000000010500000000000000000000000000000000000000   0000000000000000000000000A9A4      170192957705     
0010001300088U 020000000000000000000000000000000000000000000000000000000000000000000000000000000000000000000000000000000000000000000000001701201700000000            000000000000000                              000                           
0010001300089T 020180230000001544772 29577050024642425   788888888888889919012017000000000007500001000213888888888888899          0900000000000010000000000000000000000000000000000000000   0000000000000000000000000A9        170192957705     
0010001300090U 020000000000000000000000000000000000000000000000000000000000000000000000000000000000000000000000000000000000000000000000001701201700000000            000000000000000                              000                           
0010001300091T 020180230000001544772 29577050025640936   788888888888889919012017000000000007500001012416888888888888899          0900000000000010000000000000000000000000000000000000000   0000000000000000000000000A9        170192957705     
0010001300092U 020000000000000000000000000000000000000000000000000000000000000000000000000000000000000000000000000000000000000000000000001701201700000000            000000000000000                              000                           
0010001300093T 020180230000001544772 29577050027645387   78888888888888991801201700000000000750000103049X888888888888899          0900000000000010000000000000000000000000000000000000000   0000000000000000000000000A9        170192957705     
0010001300094U 020000000000000000000000000000000000000000000000000000000000000000000000000000000000000000000000000000000000000000000000001701201700000000            000000000000000                              000                           
0010001300095T 020180230000001544772 29577050028017554   788888888888889919012017000000000007500001000213888888888888899          0900000000000010000000000000000000000000000000000000000   0000000000000000000000000A9        170192957705     
0010001300096U 020000000000000000000000000000000000000000000000000000000000000000000000000000000000000000000000000000000000000000000000001701201700000000            000000000000000                              000                           
0010001300097T 020180230000001544772 29577050028053897   788888888888889919012017000000000007500001000213888888888888899          0900000000000010000000000000000000000000000000000000000   0000000000000000000000000A9        170192957705     
0010001300098U 020000000000000000000000000000000000000000000000000000000000000000000000000000000000000000000000000000000000000000000000001701201700000000            000000000000000                              000                           
0010001300099T 020180230000001544772 29577050028101010   788888888888889919012017000000000007500001000213888888888888899          0900000000000010000000000000000000000000000000000000000   0000000000000000000000000A9        170192957705     
0010001300100U 020000000000000000000000000000000000000000000000000000000000000000000000000000000000000000000000000000000000000000000000001701201700000000            000000000000000                              000                           
0010001300101T 020180230000001544772 29577050028234717   788888888888889919012017000000000007500001000213888888888888899          0900000000000010000000000000000000000000000000000000000   0000000000000000000000000A9        170192957705     
0010001300102U 020000000000000000000000000000000000000000000000000000000000000000000000000000000000000000000000000000000000000000000000001701201700000000            000000000000000                              000                           
0010001300103T 020180230000001544772 29577050028250190   788888888888889919012017000000000007500001000213888888888888899          0900000000000010000000000000000000000000000000000000000   0000000000000000000000000A9        170192957705     
0010001300104U 020000000000000000000000000000000000000000000000000000000000000000000000000000000000000000000000000000000000000000000000001701201700000000            000000000000000                              000                           
0010001300105T 020180230000001544772 29577050028312341   78888888888888991901201700000000000750000103049X888888888888899          0900000000000010000000000000000000000000000000000000000   0000000000000000000000000A9        170192957705     
0010001300106U 020000000000000000000000000000000000000000000000000000000000000000000000000000000000000000000000000000000000000000000000001701201700000000            000000000000000                              000                           
0010001300107T 020180230000001544772 29577050028353944   78888888888888991901201700000000000750000103049X888888888888899          0900000000000010000000000000000000000000000000000000000   0000000000000000000000000A9        170192957705     
0010001300108U 020000000000000000000000000000000000000000000000000000000000000000000000000000000000000000000000000000000000000000000000001701201700000000            000000000000000                              000                           
0010001300109T 020180230000001544772 29577050028508098   788888888888889919012017000000000007500001012408888888888888899          0900000000000010000000000000000000000000000000000000000   0000000000000000000000000A9        170192957705     
0010001300110U 020000000000000000000000000000000000000000000000000000000000000000000000000000000000000000000000000000000000000000000000001701201700000000            000000000000000                              000                           
0010001300111T 020180230000001544772 29577050028647501   788888888888889919012017000000000007500001012416888888888888899          0900000000000010000000000000000000000000000000000000000   0000000000000000000000000A9        170192957705     
0010001300112U 020000000000000000000000000000000000000000000000000000000000000000000000000000000000000000000000000000000000000000000000001701201700000000            000000000000000                              000                           
0010001300113T 020180230000001544772 29577050028649793   788888888888889919012017000000000007500001012416888888888888899          0900000000000010000000000000000000000000000000000000000   0000000000000000000000000A9        170192957705     
0010001300114U 020000000000000000000000000000000000000000000000000000000000000000000000000000000000000000000000000000000000000000000000001701201700000000            000000000000000                              000                           
0010001300115T 020180230000001544772 29577050030015523   788888888888889919012017000000000007500001012416888888888888899          0900000000000010000000000000000000000000000000000000000   0000000000000000000000000A9        170192957705     
0010001300116U 020000000000000000000000000000000000000000000000000000000000000000000000000000000000000000000000000000000000000000000000001701201700000000            000000000000000                              000                           
0010001300117T 020180230000001544772 29577050030158446   788888888888889919012017000000000007500001012408888888888888899          0900000000000010000000000000000000000000000000000000000   0000000000000000000000000A9        170192957705     
0010001300118U 020000000000000000000000000000000000000000000000000000000000000000000000000000000000000000000000000000000000000000000000001701201700000000            000000000000000                              000                           
0010001300119T 020180230000001544772 29577050030529804   788888888888889919012017000000000007500001000213888888888888899          0900000000000010000000000000000000000000000000000000000   0000000000000000000000000A9        170192957705     
0010001300120U 020000000000000000000000000000000000000000000000000000000000000000000000000000000000000000000000000000000000000000000000001701201700000000            000000000000000                              000                           
0010001300121T 020180230000001544772 29577050030558508   788888888888889919012017000000000007500001000213888888888888899          0900000000000010000000000000000000000000000000000000000   0000000000000000000000000A9        170192957705     
0010001300122U 020000000000000000000000000000000000000000000000000000000000000000000000000000000000000000000000000000000000000000000000001701201700000000            000000000000000                              000                           
0010001300123T 020180230000001544772 29577050030906228   788888888888889919012017000000000007500001012408888888888888899          0900000000000010000000000000000000000000000000000000000   0000000000000000000000000A9        170192957705     
0010001300124U 020000000000000000000000000000000000000000000000000000000000000000000000000000000000000000000000000000000000000000000000001701201700000000            000000000000000                              000                           
0010001300125T 020180230000001544772 29577050031042676   788888888888889919012017000000000007500001012408888888888888899          0900000000000010000000000000000000000000000000000000000   0000000000000000000000000A9        170192957705     
0010001300126U 020000000000000000000000000000000000000000000000000000000000000000000000000000000000000000000000000000000000000000000000001701201700000000            000000000000000                              000                           
0010001300127T 020180230000001544772 29577050031120998   788888888888889919012017000000000007500001012416888888888888899          0900000000000010000000000000000000000000000000000000000   0000000000000000000000000A9        170192957705     
0010001300128U 020000000000000000000000000000000000000000000000000000000000000000000000000000000000000000000000000000000000000000000000001701201700000000            000000000000000                              000                           
0010001300129T 020180230000001544772 29577050031506608   788888888888889919012017000000000007500001012416888888888888899          0900000000000010000000000000000000000000000000000000000   0000000000000000000000000A9        170192957705     
0010001300130U 020000000000000000000000000000000000000000000000000000000000000000000000000000000000000000000000000000000000000000000000001701201700000000            000000000000000                              000                           
0010001300131T 020180230000001544772 29577050032929506   788888888888889919012017000000000007500001000213888888888888899          0900000000000010500000000000000000000000000000000000000   0000000000000000000000000A9A4      170192957705     
0010001300132U 020000000000000000000000000000000000000000000000000000000000000000000000000000000000000000000000000000000000000000000000001701201700000000            000000000000000                              000                           
0010001300133T 020180230000001544772 29577050032944643   788888888888889919012017000000000007500001000213888888888888899          0900000000000010500000000000000000000000000000000000000   0000000000000000000000000A9A4      170192957705     
0010001300134U 020000000000000000000000000000000000000000000000000000000000000000000000000000000000000000000000000000000000000000000000001701201700000000            000000000000000                              000                           
0010001300135T 020180230000001544772 29577050033634181   788888888888889919012017000000000007500001000213888888888888899          0900000000000010500000000000000000000000000000000000000   0000000000000000000000000A9A4      170192957705     
0010001300136U 020000000000000000000000000000000000000000000000000000000000000000000000000000000000000000000000000000000000000000000000001701201700000000            000000000000000                              000                           
0010001300137T 020180230000001544772 29577050034013330   788888888888889919012017000000000007500001012408888888888888899          0900000000000010000000000000000000000000000000000000000   0000000000000000000000000A9        170192957705     
0010001300138U 020000000000000000000000000000000000000000000000000000000000000000000000000000000000000000000000000000000000000000000000001701201700000000            000000000000000                              000                           
0010001300139T 020180230000001544772 29577050035402337   788888888888889919012017000000000007500001000213888888888888899          0900000000000010000000000000000000000000000000000000000   0000000000000000000000000A9        170192957705     
0010001300140U 020000000000000000000000000000000000000000000000000000000000000000000000000000000000000000000000000000000000000000000000001701201700000000            000000000000000                              000                           
0010001300141T 020180230000001544772 29577050036127495   788888888888889919012017000000000007500001000213888888888888899          0900000000000010000000000000000000000000000000000000000   0000000000000000000000000A9        170192957705     
0010001300142U 020000000000000000000000000000000000000000000000000000000000000000000000000000000000000000000000000000000000000000000000001701201700000000            000000000000000                              000                           
0010001300143T 020180230000001544772 29577050036704898   78888888888888991901201700000000000750000103049X888888888888899          0900000000000010000000000000000000000000000000000000000   0000000000000000000000000A9        170192957705     
0010001300144U 020000000000000000000000000000000000000000000000000000000000000000000000000000000000000000000000000000000000000000000000001701201700000000            000000000000000                              000                           
0010001300145T 020180230000001544772 29577050037429947   788888888888889919012017000000000007500001012408888888888888899          0900000000000010500000000000000000000000000000000000000   0000000000000000000000000A9A4      170192957705     
0010001300146U 020000000000000000000000000000000000000000000000000000000000000000000000000000000000000000000000000000000000000000000000001701201700000000            000000000000000                              000                           
0010001300147T 020180230000001544772 29577050041951418   788888888888889918012017000000000010000001000213888888888888899          0900000000000010000000000000000000000000000000000000000   0000000000000000000000000A9        170192957705     
0010001300148U 020000000000000000000000000000000000000000000000000000000000000000000000000000000000000000000000000000000000000000000000001701201700000000            000000000000000                              000                           
0010001300149T 020180230000001544772 29577050047541694   788888888888889919012017000000000007500001000213888888888888899          0900000000000010500000000000000000000000000000000000000   0000000000000000000000000A9A4      170192957705     
0010001300150U 020000000000000000000000000000000000000000000000000000000000000000000000000000000000000000000000000000000000000000000000001701201700000000            000000000000000                              000                           
0010001300151T 020180230000001544772 29577050074945725   788888888888889918012017000000000007500001012408888888888888899          0900000000000010000000000000000000000000000000000000000   0000000000000000000000000A9        170192957705     
0010001300152U 020000000000000000000000000000000000000000000000000000000000000000000000000000000000000000000000000000000000000000000000001701201700000000            000000000000000                              000                           
0010001300153T 020180230000001544772 29577050119845381   78888888888888991801201700000000000750000103049X888888888888899          0900000000000010000000000000000000000000000000000000000   0000000000000000000000000A9        170192957705     
0010001300154U 020000000000000000000000000000000000000000000000000000000000000000000000000000000000000000000000000000000000000000000000001701201700000000            000000000000000                              000                           
0010001300155T 020180230000001544772 29577050122520458   788888888888889919012017000000000007500001012408888888888888899          0900000000000010000000000000000000000000000000000000000   0000000000000000000000000A9        170192957705     
0010001300156U 020000000000000000000000000000000000000000000000000000000000000000000000000000000000000000000000000000000000000000000000001701201700000000            000000000000000                              000                           
0010001300157T 020180230000001544772 29577050129409468   788888888888889918012017000000000010000001012408888888888888899          0900000000000010000000000000000000000000000000000000000   0000000000000000000000000A9        170192957705     
0010001300158U 020000000000000000000000000000000000000000000000000000000000000000000000000000000000000000000000000000000000000000000000001701201700000000            000000000000000                              000                           
0010001300159T 020180230000001544772 29577050138348494   788888888888889918012017000000000007500001012416888888888888899          0900000000000010000000000000000000000000000000000000000   0000000000000000000000000A9        170192957705     
0010001300160U 020000000000000000000000000000000000000000000000000000000000000000000000000000000000000000000000000000000000000000000000001701201700000000            000000000000000                              000                           
0010001300161T 020180230000001544772 29577050139244477   788888888888889919012017000000000007500001012416888888888888899          0900000000000010000000000000000000000000000000000000000   0000000000000000000000000A9        170192957705     
0010001300162U 020000000000000000000000000000000000000000000000000000000000000000000000000000000000000000000000000000000000000000000000001701201700000000            000000000000000                              000                           
0010001300163T 020180230000001544772 29577050144958760   788888888888889918012017000000000007500001012416888888888888899          0900000000000010000000000000000000000000000000000000000   0000000000000000000000000A9        170192957705     
0010001300164U 020000000000000000000000000000000000000000000000000000000000000000000000000000000000000000000000000000000000000000000000001701201700000000            000000000000000                              000                           
0010001300165T 020180230000001544772 29577050145759075   788888888888889919012017000000000007500001012416888888888888899          0900000000000010000000000000000000000000000000000000000   0000000000000000000000000A9        170192957705     
0010001300166U 020000000000000000000000000000000000000000000000000000000000000000000000000000000000000000000000000000000000000000000000001701201700000000            000000000000000                              000                           
0010001300167T 020180230000001544772 29577050149200195   788888888888889919012017000000000007500001000213888888888888899          0900000000000010000000000000000000000000000000000000000   0000000000000000000000000A9        170192957705     
0010001300168U 020000000000000000000000000000000000000000000000000000000000000000000000000000000000000000000000000000000000000000000000001701201700000000            000000000000000                              000                           
0010001300169T 020180230000001544772 29577050149214009   788888888888889919012017000000000007500001000213888888888888899          0900000000000010000000000000000000000000000000000000000   0000000000000000000000000A9        170192957705     
0010001300170U 020000000000000000000000000000000000000000000000000000000000000000000000000000000000000000000000000000000000000000000000001701201700000000            000000000000000                              000                           
0010001300171T 020180230000001544772 29577050149238688   788888888888889919012017000000000007500001000213888888888888899          0900000000000010000000000000000000000000000000000000000   0000000000000000000000000A9        170192957705     
0010001300172U 020000000000000000000000000000000000000000000000000000000000000000000000000000000000000000000000000000000000000000000000001701201700000000            000000000000000                              000                           
0010001300173T 020180230000001544772 29577050150057249   788888888888889918012017000000000007500001012408888888888888899          0900000000000010000000000000000000000000000000000000000   0000000000000000000000000A9        170192957705     
0010001300174U 020000000000000000000000000000000000000000000000000000000000000000000000000000000000000000000000000000000000000000000000001701201700000000            000000000000000                              000                           
0010001300175T 020180230000001544772 29577050150453411   78888888888888991801201700000000000750000100166X888888888888899          0900000000000010000000000000000000000000000000000000000   0000000000000000000000000A9        170192957705     
0010001300176U 020000000000000000000000000000000000000000000000000000000000000000000000000000000000000000000000000000000000000000000000001701201700000000            000000000000000                              000                           
0010001300177T 020180230000001544772 29577050151445977   788888888888889918012017000000000007500001046744888888888888899          0900000000000010000000000000000000000000000000000000000   0000000000000000000000000A9        170192957705     
0010001300178U 020000000000000000000000000000000000000000000000000000000000000000000000000000000000000000000000000000000000000000000000001701201700000000            000000000000000                              000                           
0010001300179T 020180230000001544772 29577050156808608   788888888888889919012017000000000007500001000213888888888888899          0900000000000010000000000000000000000000000000000000000   0000000000000000000000000A9        170192957705     
0010001300180U 020000000000000000000000000000000000000000000000000000000000000000000000000000000000000000000000000000000000000000000000001701201700000000            000000000000000                              000                           
0010001300181T 020180230000001544772 29577050162113868   788888888888889919012017000000000007500001012408888888888888899          0900000000000010000000000000000000000000000000000000000   0000000000000000000000000A9        170192957705     
0010001300182U 020000000000000000000000000000000000000000000000000000000000000000000000000000000000000000000000000000000000000000000000001701201700000000            000000000000000                              000                           
0010001300183T 020180230000001544772 29577050162144806   788888888888889919012017000000000007500001012408888888888888899          0900000000000010000000000000000000000000000000000000000   0000000000000000000000000A9        170192957705     
0010001300184U 020000000000000000000000000000000000000000000000000000000000000000000000000000000000000000000000000000000000000000000000001701201700000000            000000000000000                              000                           
0010001300185T 020180230000001544772 29577050174500815   788888888888889919012017000000000007500001000213888888888888899          0900000000000010000000000000000000000000000000000000000   0000000000000000000000000A9        170192957705     
0010001300186U 020000000000000000000000000000000000000000000000000000000000000000000000000000000000000000000000000000000000000000000000001701201700000000            000000000000000                              000                           
0010001300187T 020180230000001544772 29577050174503877   788888888888889919012017000000000007500001000213888888888888899          0900000000000010000000000000000000000000000000000000000   0000000000000000000000000A9        170192957705     
0010001300188U 020000000000000000000000000000000000000000000000000000000000000000000000000000000000000000000000000000000000000000000000001701201700000000            000000000000000                              000                           
0010001300189T 020180230000001544772 29577050174528281   788888888888889918012017000000000007500001000213888888888888899          0900000000000010000000000000000000000000000000000000000   0000000000000000000000000A9        170192957705     
0010001300190U 020000000000000000000000000000000000000000000000000000000000000000000000000000000000000000000000000000000000000000000000001701201700000000            000000000000000                              000                           
0010001300191T 020180230000001544772 29577050174530031   788888888888889918012017000000000007500001000213888888888888899          0900000000000010000000000000000000000000000000000000000   0000000000000000000000000A9        170192957705     
0010001300192U 020000000000000000000000000000000000000000000000000000000000000000000000000000000000000000000000000000000000000000000000001701201700000000            000000000000000                              000                           
0010001300193T 020180230000001544772 29577050176701636   788888888888889918012017000000000007500001012408888888888888899          0900000000000010000000000000000000000000000000000000000   0000000000000000000000000A9        170192957705     
0010001300194U 020000000000000000000000000000000000000000000000000000000000000000000000000000000000000000000000000000000000000000000000001701201700000000            000000000000000                              000                           
0010001300195T 020180230000001544772 29577050182920762   788888888888889919012017000000000010000001012408888888888888899          0900000000000010000000000000000000000000000000000000000   0000000000000000000000000A9        170192957705     
0010001300196U 020000000000000000000000000000000000000000000000000000000000000000000000000000000000000000000000000000000000000000000000001701201700000000            000000000000000                              000                           
0010001300197T 020180230000001544772 29577050188605728   788888888888889918012017000000000007500001012416888888888888899          0900000000000010000000000000000000000000000000000000000   0000000000000000000000000A9        170192957705     
0010001300198U 020000000000000000000000000000000000000000000000000000000000000000000000000000000000000000000000000000000000000000000000001701201700000000            000000000000000                              000                           
0010001300199T 020180230000001544772 29577050214207424   788888888888889918012017000000000007500001012408888888888888899          0900000000000010000000000000000000000000000000000000000   0000000000000000000000000A9        170192957705     
0010001300200U 020000000000000000000000000000000000000000000000000000000000000000000000000000000000000000000000000000000000000000000000001701201700000000            000000000000000                              000                           
0010001300201T 020180230000001544772 29577050225018469   78888888888888991801201700000000000750000101981X888888888888899          0900000000000010000000000000000000000000000000000000000   0000000000000000000000000A9        170192957705     
0010001300202U 020000000000000000000000000000000000000000000000000000000000000000000000000000000000000000000000000000000000000000000000001701201700000000            000000000000000                              000                           
0010001300203T 020180230000001544772 29577050225432909   788888888888889918012017000000000010000001012416888888888888899          0900000000000010000000000000000000000000000000000000000   0000000000000000000000000A9        170192957705     
0010001300204U 020000000000000000000000000000000000000000000000000000000000000000000000000000000000000000000000000000000000000000000000001701201700000000            000000000000000                              000                           
0010001300205T 020180230000001544772 29577050225444932   788888888888889919012017000000000010000001012416888888888888899          0900000000000010000000000000000000000000000000000000000   0000000000000000000000000A9        170192957705     
0010001300206U 020000000000000000000000000000000000000000000000000000000000000000000000000000000000000000000000000000000000000000000000001701201700000000            000000000000000                              000                           
0010001300207T 020180230000001544772 29577050226452645   788888888888889918012017000000000007500001000213888888888888899          0900000000000010000000000000000000000000000000000000000   0000000000000000000000000A9        170192957705     
0010001300208U 020000000000000000000000000000000000000000000000000000000000000000000000000000000000000000000000000000000000000000000000001701201700000000            000000000000000                              000                           
0010001300209T 020180230000001544772 29577050227612348   788888888888889918012017000000000007500001012408888888888888899          0900000000000010000000000000000000000000000000000000000   0000000000000000000000000A9        170192957705     
0010001300210U 020000000000000000000000000000000000000000000000000000000000000000000000000000000000000000000000000000000000000000000000001701201700000000            000000000000000                              000                           
0010001300211T 020180230000001544772 29577050233507620   788888888888889918012017000000000007500001012416888888888888899          0900000000000010000000000000000000000000000000000000000   0000000000000000000000000A9        170192957705     
0010001300212U 020000000000000000000000000000000000000000000000000000000000000000000000000000000000000000000000000000000000000000000000001701201700000000            000000000000000                              000                           
0010001300213T 020180230000001544772 29577050234931351   788888888888889918012017000000000007500001030864888888888888899          0900000000000010000000000000000000000000000000000000000   0000000000000000000000000A9        170192957705     
0010001300214U 020000000000000000000000000000000000000000000000000000000000000000000000000000000000000000000000000000000000000000000000001701201700000000            000000000000000                              000                           
0010001300215T 020180230000001544772 29577050234931781   788888888888889918012017000000000007500001030864888888888888899          0900000000000010000000000000000000000000000000000000000   0000000000000000000000000A9        170192957705     
0010001300216U 020000000000000000000000000000000000000000000000000000000000000000000000000000000000000000000000000000000000000000000000001701201700000000            000000000000000                              000                           
0010001300217T 020180230000001544772 29577050234932451   788888888888889918012017000000000007500001030864888888888888899          0900000000000010000000000000000000000000000000000000000   0000000000000000000000000A9        170192957705     
0010001300218U 020000000000000000000000000000000000000000000000000000000000000000000000000000000000000000000000000000000000000000000000001701201700000000            000000000000000                              000                           
0010001300219T 020180230000001544772 29577050237738761   788888888888889918012017000000000007500001001554888888888888899          0900000000000010000000000000000000000000000000000000000   0000000000000000000000000A9        170192957705     
0010001300220U 020000000000000000000000000000000000000000000000000000000000000000000000000000000000000000000000000000000000000000000000001701201700000000            000000000000000                              000                           
0010001300221T 020180230000001544772 29577050237758021   788888888888889918012017000000000007500001001554888888888888899          0900000000000010000000000000000000000000000000000000000   0000000000000000000000000A9        170192957705     
0010001300222U 020000000000000000000000000000000000000000000000000000000000000000000000000000000000000000000000000000000000000000000000001701201700000000            000000000000000                              000                           
0010001300223T 020180230000001544772 29577050238911939   78888888888888991801201700000000000750000103049X888888888888899          0900000000000010000000000000000000000000000000000000000   0000000000000000000000000A9        170192957705     
0010001300224U 020000000000000000000000000000000000000000000000000000000000000000000000000000000000000000000000000000000000000000000000001701201700000000            000000000000000                              000                           
0010001300225T 020180230000001544772 29577050242705707   788888888888889918012017000000000007500001009245888888888888899          0900000000000010000000000000000000000000000000000000000   0000000000000000000000000A9        170192957705     
0010001300226U 020000000000000000000000000000000000000000000000000000000000000000000000000000000000000000000000000000000000000000000000001701201700000000            000000000000000                              000                           
0010001300227T 020180230000001544772 29577050242740414   788888888888889918012017000000000007500001009245888888888888899          0900000000000010000000000000000000000000000000000000000   0000000000000000000000000A9        170192957705     
0010001300228U 020000000000000000000000000000000000000000000000000000000000000000000000000000000000000000000000000000000000000000000000001701201700000000            000000000000000                              000                           
0010001300229T 020180230000001544772 29577050242757968   788888888888889918012017000000000007500001009245888888888888899          0900000000000010000000000000000000000000000000000000000   0000000000000000000000000A9        170192957705     
0010001300230U 020000000000000000000000000000000000000000000000000000000000000000000000000000000000000000000000000000000000000000000000001701201700000000            000000000000000                              000                           
0010001300231T 020180230000001544772 29577050250325675   788888888888889918012017000000000007500001012408888888888888899          0900000000000010000000000000000000000000000000000000000   0000000000000000000000000A9        170192957705     
0010001300232U 020000000000000000000000000000000000000000000000000000000000000000000000000000000000000000000000000000000000000000000000001701201700000000            000000000000000                              000                           
0010001300233T 020180230000001544772 29577050250429795   78888888888888991801201700000000000750000103049X888888888888899          0900000000000010000000000000000000000000000000000000000   0000000000000000000000000A9        170192957705     
0010001300234U 020000000000000000000000000000000000000000000000000000000000000000000000000000000000000000000000000000000000000000000000001701201700000000            000000000000000                              000                           
0010001300235T 020180230000001544772 29577050250522190   788888888888889918012017000000000007500001000213888888888888899          0900000000000010500000000000000000000000000000000000000   0000000000000000000000000A9A4      170192957705     
0010001300236U 020000000000000000000000000000000000000000000000000000000000000000000000000000000000000000000000000000000000000000000000001701201700000000            000000000000000                              000                           
0010001300237T 020180230000001544772 29577050250642136   788888888888889918012017000000000007500001001554888888888888899          0900000000000010000000000000000000000000000000000000000   0000000000000000000000000A9        170192957705     
0010001300238U 020000000000000000000000000000000000000000000000000000000000000000000000000000000000000000000000000000000000000000000000001701201700000000            000000000000000                              000                           
0010001300239T 020180230000001544772 29577050250706343   78888888888888991801201700000000000750000103049X888888888888899          0900000000000010000000000000000000000000000000000000000   0000000000000000000000000A9        170192957705     
0010001300240U 020000000000000000000000000000000000000000000000000000000000000000000000000000000000000000000000000000000000000000000000001701201700000000            000000000000000                              000                           
0010001300241T 020180230000001544772 29577050250853108   788888888888889918012017000000000007500001001554888888888888899          0900000000000010000000000000000000000000000000000000000   0000000000000000000000000A9        170192957705     
0010001300242U 020000000000000000000000000000000000000000000000000000000000000000000000000000000000000000000000000000000000000000000000001701201700000000            000000000000000                              000                           
0010001300243T 020180230000001544772 29577050250908178   788888888888889918012017000000000007500001001554888888888888899          0900000000000010000000000000000000000000000000000000000   0000000000000000000000000A9        170192957705     
0010001300244U 020000000000000000000000000000000000000000000000000000000000000000000000000000000000000000000000000000000000000000000000001701201700000000            000000000000000                              000                           
0010001300245T 020180230000001544772 29577050251059439   788888888888889918012017000000000007500001012416888888888888899          0900000000000010000000000000000000000000000000000000000   0000000000000000000000000A9        170192957705     
0010001300246U 020000000000000000000000000000000000000000000000000000000000000000000000000000000000000000000000000000000000000000000000001701201700000000            000000000000000                              000                           
0010001300247T 020180230000001544772 29577050251248628   78888888888888991801201700000000000750000103049X888888888888899          0900000000000010000000000000000000000000000000000000000   0000000000000000000000000A9        170192957705     
0010001300248U 020000000000000000000000000000000000000000000000000000000000000000000000000000000000000000000000000000000000000000000000001701201700000000            000000000000000                              000                           
0010001300249T 020180230000001544772 29577050251317825   788888888888889918012017000000000007500001004782888888888888899          0900000000000010000000000000000000000000000000000000000   0000000000000000000000000A9        170192957705     
0010001300250U 020000000000000000000000000000000000000000000000000000000000000000000000000000000000000000000000000000000000000000000000001701201700000000            000000000000000                              000                           
0010001300251T 020180230000001544772 29577050251407050   788888888888889918012017000000000010000001012416888888888888899          0900000000000010000000000000000000000000000000000000000   0000000000000000000000000A9        170192957705     
0010001300252U 020000000000000000000000000000000000000000000000000000000000000000000000000000000000000000000000000000000000000000000000001701201700000000            000000000000000                              000                           
0010001300253T 020180230000001544772 29577050251530762   788888888888889918012017000000000007500001012408888888888888899          0900000000000010000000000000000000000000000000000000000   0000000000000000000000000A9        170192957705     
0010001300254U 020000000000000000000000000000000000000000000000000000000000000000000000000000000000000000000000000000000000000000000000001701201700000000            000000000000000                              000                           
0010001300255T 020180230000001544772 29577050251639676   788888888888889918012017000000000007500001012408888888888888899          0900000000000010000000000000000000000000000000000000000   0000000000000000000000000A9        170192957705     
0010001300256U 020000000000000000000000000000000000000000000000000000000000000000000000000000000000000000000000000000000000000000000000001701201700000000            000000000000000                              000                           
0010001300257T 020180230000001544772 29577050251926141   78888888888888991801201700000000000750000103049X888888888888899          0900000000000010000000000000000000000000000000000000000   0000000000000000000000000A9        170192957705     
0010001300258U 020000000000000000000000000000000000000000000000000000000000000000000000000000000000000000000000000000000000000000000000001701201700000000            000000000000000                              000                           
0010001300259T 020180230000001544772 29577050252019271   78888888888888991801201700000000000750000103049X888888888888899          0900000000000010000000000000000000000000000000000000000   0000000000000000000000000A9        170192957705     
0010001300260U 020000000000000000000000000000000000000000000000000000000000000000000000000000000000000000000000000000000000000000000000001701201700000000            000000000000000                              000                           
0010001300261T 020180230000001544772 29577050252146082   788888888888889918012017000000000010000001000213888888888888899          0900000000000010000000000000000000000000000000000000000   0000000000000000000000000A9        170192957705     
0010001300262U 020000000000000000000000000000000000000000000000000000000000000000000000000000000000000000000000000000000000000000000000001701201700000000            000000000000000                              000                           
0010001300263T 020180230000001544772 29577050252211070   78888888888888991801201700000000000750000103049X888888888888899          0900000000000010000000000000000000000000000000000000000   0000000000000000000000000A9        170192957705     
0010001300264U 020000000000000000000000000000000000000000000000000000000000000000000000000000000000000000000000000000000000000000000000001701201700000000            000000000000000                              000                           
0010001300265T 020180230000001544772 29577050252221404   78888888888888991801201700000000000750000103049X888888888888899          0900000000000010000000000000000000000000000000000000000   0000000000000000000000000A9        170192957705     
0010001300266U 020000000000000000000000000000000000000000000000000000000000000000000000000000000000000000000000000000000000000000000000001701201700000000            000000000000000                              000                           
0010001300267T 020180230000001544772 29577050252323247   788888888888889918012017000000000010000001003018888888888888899          0900000000000010000000000000000000000000000000000000000   0000000000000000000000000A9        170192957705     
0010001300268U 020000000000000000000000000000000000000000000000000000000000000000000000000000000000000000000000000000000000000000000000001701201700000000            000000000000000                              000                           
0010001300269T 020180230000001544772 29577050252406774   78888888888888991801201700000000000750000100829X888888888888899          0900000000000010000000000000000000000000000000000000000   0000000000000000000000000A9        170192957705     
0010001300270U 020000000000000000000000000000000000000000000000000000000000000000000000000000000000000000000000000000000000000000000000001701201700000000            000000000000000                              000                           
0010001300271T 020180230000001544772 29577050252534145   788888888888889918012017000000000007500001012408888888888888899          0900000000000010000000000000000000000000000000000000000   0000000000000000000000000A9        170192957705     
0010001300272U 020000000000000000000000000000000000000000000000000000000000000000000000000000000000000000000000000000000000000000000000001701201700000000            000000000000000                              000                           
0010001300273T 020180230000001544772 29577050252655358   788888888888889918012017000000000007500001012416888888888888899          0900000000000010000000000000000000000000000000000000000   0000000000000000000000000A9        170192957705     
0010001300274U 020000000000000000000000000000000000000000000000000000000000000000000000000000000000000000000000000000000000000000000000001701201700000000            000000000000000                              000                           
0010001300275T 020180230000001544772 29577050252804631   788888888888889918012017000000000007500001012408888888888888899          0900000000000010000000000000000000000000000000000000000   0000000000000000000000000A9        170192957705     
0010001300276U 020000000000000000000000000000000000000000000000000000000000000000000000000000000000000000000000000000000000000000000000001701201700000000            000000000000000                              000                           
0010001300277T 020180230000001544772 29577050253006227   788888888888889918012017000000000010000001000213888888888888899          0900000000000010000000000000000000000000000000000000000   0000000000000000000000000A9        170192957705     
0010001300278U 020000000000000000000000000000000000000000000000000000000000000000000000000000000000000000000000000000000000000000000000001701201700000000            000000000000000                              000                           
0010001300279T 020180230000001544772 29577050253231947   788888888888889918012017000000000007500001000213888888888888899          0900000000000010000000000000000000000000000000000000000   0000000000000000000000000A9        170192957705     
0010001300280U 020000000000000000000000000000000000000000000000000000000000000000000000000000000000000000000000000000000000000000000000001701201700000000            000000000000000                              000                           
0010001300281T 020180230000001544772 29577050253319344   788888888888889918012017000000000010000001001120888888888888899          0900000000000010000000000000000000000000000000000000000   0000000000000000000000000A9        170192957705     
0010001300282U 020000000000000000000000000000000000000000000000000000000000000000000000000000000000000000000000000000000000000000000000001701201700000000            000000000000000                              000                           
0010001300283T 020180230000001544772 29577050253420515   788888888888889918012017000000000007500001012416888888888888899          0900000000000010000000000000000000000000000000000000000   0000000000000000000000000A9        170192957705     
0010001300284U 020000000000000000000000000000000000000000000000000000000000000000000000000000000000000000000000000000000000000000000000001701201700000000            000000000000000                              000                           
0010001300285T 020180230000001544772 29577050253521606   788888888888889918012017000000000007500001028029888888888888899          0900000000000010000000000000000000000000000000000000000   0000000000000000000000000A9        170192957705     
0010001300286U 020000000000000000000000000000000000000000000000000000000000000000000000000000000000000000000000000000000000000000000000001701201700000000            000000000000000                              000                           
0010001300287T 020180230000001544772 29577050253534073   788888888888889919012017000000000007500001028029888888888888899          0900000000000010000000000000000000000000000000000000000   0000000000000000000000000A9        170192957705     
0010001300288U 020000000000000000000000000000000000000000000000000000000000000000000000000000000000000000000000000000000000000000000000001701201700000000            000000000000000                              000                           
0010001300289T 020180230000001544772 29577050253542749   788888888888889918012017000000000007500001028029888888888888899          0900000000000010000000000000000000000000000000000000000   0000000000000000000000000A9        170192957705     
0010001300290U 020000000000000000000000000000000000000000000000000000000000000000000000000000000000000000000000000000000000000000000000001701201700000000            000000000000000                              000                           
0010001300291T 020180230000001544772 29577050253930955   788888888888889918012017000000000007500001012408888888888888899          0900000000000010000000000000000000000000000000000000000   0000000000000000000000000A9        170192957705     
0010001300292U 020000000000000000000000000000000000000000000000000000000000000000000000000000000000000000000000000000000000000000000000001701201700000000            000000000000000                              000                           
0010001300293T 020180230000001544772 29577050254031508   788888888888889918012017000000000007500001012416888888888888899          0900000000000010000000000000000000000000000000000000000   0000000000000000000000000A9        170192957705     
0010001300294U 020000000000000000000000000000000000000000000000000000000000000000000000000000000000000000000000000000000000000000000000001701201700000000            000000000000000                              000                           
0010001300295T 020180230000001544772 29577050254113821   78888888888888991801201700000000000750000103049X888888888888899          0900000000000010000000000000000000000000000000000000000   0000000000000000000000000A9        170192957705     
0010001300296U 020000000000000000000000000000000000000000000000000000000000000000000000000000000000000000000000000000000000000000000000001701201700000000            000000000000000                              000                           
0010001300297T 020180230000001544772 29577050254121801   78888888888888991801201700000000000750000103049X888888888888899          0900000000000010000000000000000000000000000000000000000   0000000000000000000000000A9        170192957705     
0010001300298U 020000000000000000000000000000000000000000000000000000000000000000000000000000000000000000000000000000000000000000000000001701201700000000            000000000000000                              000                           
0010001300299T 020180230000001544772 29577050254214564   788888888888889918012017000000000007500001012408888888888888899          0900000000000010000000000000000000000000000000000000000   0000000000000000000000000A9        170192957705     
0010001300300U 020000000000000000000000000000000000000000000000000000000000000000000000000000000000000000000000000000000000000000000000001701201700000000            000000000000000                              000                           
0010001300301T 020180230000001544772 29577050254310828   788888888888889918012017000000000007500001046744888888888888899          0900000000000010000000000000000000000000000000000000000   0000000000000000000000000A9        170192957705     
0010001300302U 020000000000000000000000000000000000000000000000000000000000000000000000000000000000000000000000000000000000000000000000001701201700000000            000000000000000                              000                           
0010001300303T 020180230000001544772 29577050254456966   788888888888889918012017000000000007500001000213888888888888899          0900000000000010000000000000000000000000000000000000000   0000000000000000000000000A9        170192957705     
0010001300304U 020000000000000000000000000000000000000000000000000000000000000000000000000000000000000000000000000000000000000000000000001701201700000000            000000000000000                              000                           
0010001300305T 020180230000001544772 29577050254542671   78888888888888991801201700000000000750000103049X888888888888899          0900000000000010000000000000000000000000000000000000000   0000000000000000000000000A9        170192957705     
0010001300306U 020000000000000000000000000000000000000000000000000000000000000000000000000000000000000000000000000000000000000000000000001701201700000000            000000000000000                              000                           
0010001300307T 020180230000001544772 29577050254646875   788888888888889918012017000000000007500001012408888888888888899          0900000000000010000000000000000000000000000000000000000   0000000000000000000000000A9        170192957705     
0010001300308U 020000000000000000000000000000000000000000000000000000000000000000000000000000000000000000000000000000000000000000000000001701201700000000            000000000000000                              000                           
0010001300309T 020180230000001544772 29577050254702452   788888888888889918012017000000000007500001012408888888888888899          0900000000000010500000000000000000000000000000000000000   0000000000000000000000000A9A4      170192957705     
0010001300310U 020000000000000000000000000000000000000000000000000000000000000000000000000000000000000000000000000000000000000000000000001701201700000000            000000000000000                              000                           
0010001300311T 020180230000001544772 29577050254709024   788888888888889918012017000000000007500001012408888888888888899          0900000000000010500000000000000000000000000000000000000   0000000000000000000000000A9A4      170192957705     
0010001300312U 020000000000000000000000000000000000000000000000000000000000000000000000000000000000000000000000000000000000000000000000001701201700000000            000000000000000                              000                           
0010001300313T 020180230000001544772 29577050254712182   788888888888889918012017000000000007500001012408888888888888899          0900000000000010500000000000000000000000000000000000000   0000000000000000000000000A9A4      170192957705     
0010001300314U 020000000000000000000000000000000000000000000000000000000000000000000000000000000000000000000000000000000000000000000000001701201700000000            000000000000000                              000                           
0010001300315T 020180230000001544772 29577050254718582   788888888888889918012017000000000007500001012408888888888888899          0900000000000010500000000000000000000000000000000000000   0000000000000000000000000A9A4      170192957705     
0010001300316U 020000000000000000000000000000000000000000000000000000000000000000000000000000000000000000000000000000000000000000000000001701201700000000            000000000000000                              000                           
0010001300317T 020180230000001544772 29577050254719947   788888888888889918012017000000000007500001012408888888888888899          0900000000000010500000000000000000000000000000000000000   0000000000000000000000000A9A4      170192957705     
0010001300318U 020000000000000000000000000000000000000000000000000000000000000000000000000000000000000000000000000000000000000000000000001701201700000000            000000000000000                              000                           
0010001300319T 020180230000001544772 29577050254822640   788888888888889918012017000000000007500001012408888888888888899          0900000000000010000000000000000000000000000000000000000   0000000000000000000000000A9        170192957705     
0010001300320U 020000000000000000000000000000000000000000000000000000000000000000000000000000000000000000000000000000000000000000000000001701201700000000            000000000000000                              000                           
0010001300321T 020180230000001544772 29577050254946672   788888888888889918012017000000000007500001000213888888888888899          0900000000000010000000000000000000000000000000000000000   0000000000000000000000000A9        170192957705     
0010001300322U 020000000000000000000000000000000000000000000000000000000000000000000000000000000000000000000000000000000000000000000000001701201700000000            000000000000000                              000                           
0010001300323T 020180230000001544772 29577050255107767   78888888888888991801201700000000000750000103049X888888888888899          0900000000000010000000000000000000000000000000000000000   0000000000000000000000000A9        170192957705     
0010001300324U 020000000000000000000000000000000000000000000000000000000000000000000000000000000000000000000000000000000000000000000000001701201700000000            000000000000000                              000                           
0010001300325T 020180230000001544772 29577050255220097   78888888888888991801201700000000000750000103049X888888888888899          0900000000000010000000000000000000000000000000000000000   0000000000000000000000000A9        170192957705     
0010001300326U 020000000000000000000000000000000000000000000000000000000000000000000000000000000000000000000000000000000000000000000000001701201700000000            000000000000000                              000                           
0010001300327T 020180230000001544772 29577050255329105   788888888888889918012017000000000007500001009245888888888888899          0900000000000010000000000000000000000000000000000000000   0000000000000000000000000A9        170192957705     
0010001300328U 020000000000000000000000000000000000000000000000000000000000000000000000000000000000000000000000000000000000000000000000001701201700000000            000000000000000                              000                           
0010001300329T 020180230000001544772 29577050255456401   788888888888889918012017000000000007500001012416888888888888899          0900000000000010000000000000000000000000000000000000000   0000000000000000000000000A9        170192957705     
0010001300330U 020000000000000000000000000000000000000000000000000000000000000000000000000000000000000000000000000000000000000000000000001701201700000000            000000000000000                              000                           
0010001300331T 020180230000001544772 29577050255554296   788888888888889918012017000000000007500001004782888888888888899          0900000000000010000000000000000000000000000000000000000   0000000000000000000000000A9        170192957705     
0010001300332U 020000000000000000000000000000000000000000000000000000000000000000000000000000000000000000000000000000000000000000000000001701201700000000            000000000000000                              000                           
0010001300333T 020180230000001544772 29577050255658109   788888888888889918012017000000000007500001000213888888888888899          0900000000000010500000000000000000000000000000000000000   0000000000000000000000000A9A4      170192957705     
0010001300334U 020000000000000000000000000000000000000000000000000000000000000000000000000000000000000000000000000000000000000000000000001701201700000000            000000000000000                              000                           
0010001300335T 020180230000001544772 29577050255726316   788888888888889918012017000000000007500001045454888888888888899          0900000000000010000000000000000000000000000000000000000   0000000000000000000000000A9        170192957705     
0010001300336U 020000000000000000000000000000000000000000000000000000000000000000000000000000000000000000000000000000000000000000000000001701201700000000            000000000000000                              000                           
0010001300337T 020180230000001544772 29577050255850575   788888888888889918012017000000000007500001045454888888888888899          0900000000000010000000000000000000000000000000000000000   0000000000000000000000000A9        170192957705     
0010001300338U 020000000000000000000000000000000000000000000000000000000000000000000000000000000000000000000000000000000000000000000000001701201700000000            000000000000000                              000                           
0010001300339T 020180230000001544772 29577050255955435   788888888888889918012017000000000007500001003948888888888888899          0900000000000010000000000000000000000000000000000000000   0000000000000000000000000A9        170192957705     
0010001300340U 020000000000000000000000000000000000000000000000000000000000000000000000000000000000000000000000000000000000000000000000001701201700000000            000000000000000                              000                           
0010001300341T 020180230000001544772 29577050256012961   788888888888889918012017000000000007500001000213888888888888899          0900000000000010000000000000000000000000000000000000000   0000000000000000000000000A9        170192957705     
0010001300342U 020000000000000000000000000000000000000000000000000000000000000000000000000000000000000000000000000000000000000000000000001701201700000000            000000000000000                              000                           
0010001300343T 020180230000001544772 29577050256015262   788888888888889918012017000000000007500001000213888888888888899          0900000000000010000000000000000000000000000000000000000   0000000000000000000000000A9        170192957705     
0010001300344U 020000000000000000000000000000000000000000000000000000000000000000000000000000000000000000000000000000000000000000000000001701201700000000            000000000000000                              000                           
0010001300345T 020180230000001544772 29577050256138344   78888888888888991801201700000000000750000105996X888888888888899          0900000000000010000000000000000000000000000000000000000   0000000000000000000000000A9        170192957705     
0010001300346U 020000000000000000000000000000000000000000000000000000000000000000000000000000000000000000000000000000000000000000000000001701201700000000            000000000000000                              000                           
0010001300347T 020180230000001544772 29577050256250032   78888888888888991801201700000000000750000105996X888888888888899          0900000000000010000000000000000000000000000000000000000   0000000000000000000000000A9        170192957705     
0010001300348U 020000000000000000000000000000000000000000000000000000000000000000000000000000000000000000000000000000000000000000000000001701201700000000            000000000000000                              000                           
0010001300349T 020180230000001544772 29577050256343132   78888888888888991801201700000000000750000105996X888888888888899          0900000000000010000000000000000000000000000000000000000   0000000000000000000000000A9        170192957705     
0010001300350U 020000000000000000000000000000000000000000000000000000000000000000000000000000000000000000000000000000000000000000000000001701201700000000            000000000000000                              000                           
0010001300351T 020180230000001544772 29577050256439130   788888888888889918012017000000000007500001012416888888888888899          0900000000000010000000000000000000000000000000000000000   0000000000000000000000000A9        170192957705     
0010001300352U 020000000000000000000000000000000000000000000000000000000000000000000000000000000000000000000000000000000000000000000000001701201700000000            000000000000000                              000                           
0010001300353T 020180230000001544772 29577050256619925   788888888888889918012017000000000007500001032085888888888888899          0900000000000010000000000000000000000000000000000000000   0000000000000000000000000A9        170192957705     
0010001300354U 020000000000000000000000000000000000000000000000000000000000000000000000000000000000000000000000000000000000000000000000001701201700000000            000000000000000                              000                           
0010001300355T 020180230000001544772 29577050256728984   788888888888889918012017000000000007500001012408888888888888899          0900000000000010000000000000000000000000000000000000000   0000000000000000000000000A9        170192957705     
0010001300356U 020000000000000000000000000000000000000000000000000000000000000000000000000000000000000000000000000000000000000000000000001701201700000000            000000000000000                              000                           
0010001300357T 020180230000001544772 29577050256820080   788888888888889918012017000000000007500001000213888888888888899          0900000000000010000000000000000000000000000000000000000   0000000000000000000000000A9        170192957705     
0010001300358U 020000000000000000000000000000000000000000000000000000000000000000000000000000000000000000000000000000000000000000000000001701201700000000            000000000000000                              000                           
0010001300359T 020180230000001544772 29577050256944329   788888888888889918012017000000000007500001000213888888888888899          0900000000000010000000000000000000000000000000000000000   0000000000000000000000000A9        170192957705     
0010001300360U 020000000000000000000000000000000000000000000000000000000000000000000000000000000000000000000000000000000000000000000000001701201700000000            000000000000000                              000                           
0010001300361T 020180230000001544772 29577050257140899   788888888888889918012017000000000007500001000833888888888888899          0900000000000010000000000000000000000000000000000000000   0000000000000000000000000A9        170192957705     
0010001300362U 020000000000000000000000000000000000000000000000000000000000000000000000000000000000000000000000000000000000000000000000001701201700000000            000000000000000                              000                           
0010001300363T 020180230000001544772 29577050257234099   788888888888889918012017000000000007500001001120888888888888899          0900000000000010000000000000000000000000000000000000000   0000000000000000000000000A9        170192957705     
0010001300364U 020000000000000000000000000000000000000000000000000000000000000000000000000000000000000000000000000000000000000000000000001701201700000000            000000000000000                              000                           
0010001300365T 020180230000001544772 29577050257437975   788888888888889918012017000000000007500001012416888888888888899          0900000000000010000000000000000000000000000000000000000   0000000000000000000000000A9        170192957705     
0010001300366U 020000000000000000000000000000000000000000000000000000000000000000000000000000000000000000000000000000000000000000000000001701201700000000            000000000000000                              000                           
0010001300367T 020180230000001544772 29577050257620938   788888888888889918012017000000000007500001012408888888888888899          0900000000000010000000000000000000000000000000000000000   0000000000000000000000000A9        170192957705     
0010001300368U 020000000000000000000000000000000000000000000000000000000000000000000000000000000000000000000000000000000000000000000000001701201700000000            000000000000000                              000                           
0010001300369T 020180230000001544772 29577050257718558   788888888888889918012017000000000007500001012416888888888888899          0900000000000010500000000000000000000000000000000000000   0000000000000000000000000A9A4      170192957705     
0010001300370U 020000000000000000000000000000000000000000000000000000000000000000000000000000000000000000000000000000000000000000000000001701201700000000            000000000000000                              000                           
0010001300371T 020180230000001544772 29577050257830064   788888888888889918012017000000000007500001012408888888888888899          0900000000000010000000000000000000000000000000000000000   0000000000000000000000000A9        170192957705     
0010001300372U 020000000000000000000000000000000000000000000000000000000000000000000000000000000000000000000000000000000000000000000000001701201700000000            000000000000000                              000                           
0010001300373T 020180230000001544772 29577050257929433   788888888888889918012017000000000007500001012408888888888888899          0900000000000010000000000000000000000000000000000000000   0000000000000000000000000A9        170192957705     
0010001300374U 020000000000000000000000000000000000000000000000000000000000000000000000000000000000000000000000000000000000000000000000001701201700000000            000000000000000                              000                           
0010001300375T 020180230000001544772 29577050261148898   788888888888889919012017000000000010000001032077888888888888899          0900000000000010000000000000000000000000000000000000000   0000000000000000000000000A9        170192957705     
0010001300376U 020000000000000000000000000000000000000000000000000000000000000000000000000000000000000000000000000000000000000000000000001701201700000000            000000000000000                              000                           
0010001300377T 020180230000001544772 29577050261156542   788888888888889919012017000000000010000001032077888888888888899          0900000000000010000000000000000000000000000000000000000   0000000000000000000000000A9        170192957705     
0010001300378U 020000000000000000000000000000000000000000000000000000000000000000000000000000000000000000000000000000000000000000000000001701201700000000            000000000000000                              000                           
0010001300379T 020180230000001544772 29577050261240587   788888888888889919012017000000000007500001000833888888888888899          0900000000000010500000000000000000000000000000000000000   0000000000000000000000000A9A4      170192957705     
0010001300380U 020000000000000000000000000000000000000000000000000000000000000000000000000000000000000000000000000000000000000000000000001701201700000000            000000000000000                              000                           
0010001300381T 020180230000001544772 29577050261309372   788888888888889919012017000000000007500001000213888888888888899          0900000000000010500000000000000000000000000000000000000   0000000000000000000000000A9A4      170192957705     
0010001300382U 020000000000000000000000000000000000000000000000000000000000000000000000000000000000000000000000000000000000000000000000001701201700000000            000000000000000                              000                           
0010001300383T 020180230000001544772 29577050261408241   788888888888889919012017000000000007500001012408888888888888899          0900000000000010000000000000000000000000000000000000000   0000000000000000000000000A9        170192957705     
0010001300384U 020000000000000000000000000000000000000000000000000000000000000000000000000000000000000000000000000000000000000000000000001701201700000000            000000000000000                              000                           
0010001300385T 020180230000001544772 29577050261458004   788888888888889919012017000000000007500001012408888888888888899          0900000000000010000000000000000000000000000000000000000   0000000000000000000000000A9        170192957705     
0010001300386U 020000000000000000000000000000000000000000000000000000000000000000000000000000000000000000000000000000000000000000000000001701201700000000            000000000000000                              000                           
0010001300387T 020180230000001544772 29577050261521707   788888888888889919012017000000000007500001012408888888888888899          0900000000000010000000000000000000000000000000000000000   0000000000000000000000000A9        170192957705     
0010001300388U 020000000000000000000000000000000000000000000000000000000000000000000000000000000000000000000000000000000000000000000000001701201700000000            000000000000000                              000                           
0010001300389T 020180230000001544772 29577050261605629   788888888888889919012017000000000007500001012416888888888888899          0900000000000010000000000000000000000000000000000000000   0000000000000000000000000A9        170192957705     
0010001300390U 020000000000000000000000000000000000000000000000000000000000000000000000000000000000000000000000000000000000000000000000001701201700000000            000000000000000                              000                           
0010001300391T 020180230000001544772 29577050261701151   788888888888889919012017000000000007500001002224888888888888899          0900000000000010000000000000000000000000000000000000000   0000000000000000000000000A9        170192957705     
0010001300392U 020000000000000000000000000000000000000000000000000000000000000000000000000000000000000000000000000000000000000000000000001701201700000000            000000000000000                              000                           
0010001300393T 020180230000001544772 29577050261713085   788888888888889919012017000000000007500001002224888888888888899          0900000000000010000000000000000000000000000000000000000   0000000000000000000000000A9        170192957705     
0010001300394U 020000000000000000000000000000000000000000000000000000000000000000000000000000000000000000000000000000000000000000000000001701201700000000            000000000000000                              000                           
0010001300395T 020180230000001544772 29577050261841774   788888888888889919012017000000000007500001012416888888888888899          0900000000000010000000000000000000000000000000000000000   0000000000000000000000000A9        170192957705     
0010001300396U 020000000000000000000000000000000000000000000000000000000000000000000000000000000000000000000000000000000000000000000000001701201700000000            000000000000000                              000                           
0010001300397T 020180230000001544772 29577050261918269   78888888888888991901201700000000000750000103049X888888888888899          0900000000000010000000000000000000000000000000000000000   0000000000000000000000000A9        170192957705     
0010001300398U 020000000000000000000000000000000000000000000000000000000000000000000000000000000000000000000000000000000000000000000000001701201700000000            000000000000000                              000                           
0010001300399T 020180230000001544772 29577050262054395   78888888888888991901201700000000000750000103049X888888888888899          0900000000000010000000000000000000000000000000000000000   0000000000000000000000000A9        170192957705     
0010001300400U 020000000000000000000000000000000000000000000000000000000000000000000000000000000000000000000000000000000000000000000000001701201700000000            000000000000000                              000                           
0010001300401T 020180230000001544772 29577050262128243   788888888888889919012017000000000007500001012408888888888888899          0900000000000010000000000000000000000000000000000000000   0000000000000000000000000A9        170192957705     
0010001300402U 020000000000000000000000000000000000000000000000000000000000000000000000000000000000000000000000000000000000000000000000001701201700000000            000000000000000                              000                           
0010001300403T 020180230000001544772 29577050262215326   78888888888888991901201700000000000750000103049X888888888888899          0900000000000010000000000000000000000000000000000000000   0000000000000000000000000A9        170192957705     
0010001300404U 020000000000000000000000000000000000000000000000000000000000000000000000000000000000000000000000000000000000000000000000001701201700000000            000000000000000                              000                           
0010001300405T 020180230000001544772 29577050262353318   78888888888888991901201700000000000750000103049X888888888888899          0900000000000010000000000000000000000000000000000000000   0000000000000000000000000A9        170192957705     
0010001300406U 020000000000000000000000000000000000000000000000000000000000000000000000000000000000000000000000000000000000000000000000001701201700000000            000000000000000                              000                           
0010001300407T 020180230000001544772 29577050262424526   788888888888889919012017000000000007500001012408888888888888899          0900000000000010000000000000000000000000000000000000000   0000000000000000000000000A9        170192957705     
0010001300408U 020000000000000000000000000000000000000000000000000000000000000000000000000000000000000000000000000000000000000000000000001701201700000000            000000000000000                              000                           
0010001300409T 020180230000001544772 29577050262519628   788888888888889919012017000000000007500001012416888888888888899          0900000000000010000000000000000000000000000000000000000   0000000000000000000000000A9        170192957705     
0010001300410U 020000000000000000000000000000000000000000000000000000000000000000000000000000000000000000000000000000000000000000000000001701201700000000            000000000000000                              000                           
0010001300411T 020180230000001544772 29577050262833666   78888888888888991901201700000000000750000100829X888888888888899          0900000000000010000000000000000000000000000000000000000   0000000000000000000000000A9        170192957705     
0010001300412U 020000000000000000000000000000000000000000000000000000000000000000000000000000000000000000000000000000000000000000000000001701201700000000            000000000000000                              000                           
