00100000         2247745860001000029577050014       0180230000001544772 INSTITUTO DE SELECAO E TECNOLOBANCO DO BRASIL                         22301201702433500006203000000515122941PROCESSAMEN                                                 
00100011T0100020 20247745860001000029577050014       0180230000001544772 INSTITUTO DE SELECAO E TECNOLO                                                                                000000002301201700000000  000000000                      
0010001300001T 020180230000001544772 29577050021739206   788888888888889924012017000000000007500001012408888888888888899          0900000000000010000000000000000000000000000000000000000   0000000000000000000000000A9        170192957705     
0010001300002U 020000000000000000000000000000000000000000000000000000000000000000000000000000000000000000000000000000000000000000000000002301201700000000            000000000000000                              000                           
0010001300003T 020180230000001544772 29577050080822563   788888888888889923012017000000000007500001004782888888888888899          0900000000000010000000000000000000000000000000000000000   0000000000000000000000000A9        170192957705     
0010001300004U 020000000000000000000000000000000000000000000000000000000000000000000000000000000000000000000000000000000000000000000000002301201700000000            000000000000000                              000                           
0010001300005T 020180230000001544772 29577050086452910   78888888888888992401201700000000000750000100829X888888888888899          0900000000000010000000000000000000000000000000000000000   0000000000000000000000000A9        170192957705     
0010001300006U 020000000000000000000000000000000000000000000000000000000000000000000000000000000000000000000000000000000000000000000000002301201700000000            000000000000000                              000                           
0010001300007T 020180230000001544772 29577050113758119   788888888888889924012017000000000007500001032077888888888888899          0900000000000010000000000000000000000000000000000000000   0000000000000000000000000A9        170192957705     
0010001300008U 020000000000000000000000000000000000000000000000000000000000000000000000000000000000000000000000000000000000000000000000002301201700000000            000000000000000                              000                           
0010001300009T 020180230000001544772 29577050122542229   788888888888889923012017000000000007500001012408888888888888899          0900000000000010000000000000000000000000000000000000000   0000000000000000000000000A9        170192957705     
0010001300010U 020000000000000000000000000000000000000000000000000000000000000000000000000000000000000000000000000000000000000000000000002301201700000000            000000000000000                              000                           
0010001300011T 020180230000001544772 29577050135703796   788888888888889923012017000000000007500001012408888888888888899          0900000000000010000000000000000000000000000000000000000   0000000000000000000000000A9        170192957705     
0010001300012U 020000000000000000000000000000000000000000000000000000000000000000000000000000000000000000000000000000000000000000000000002301201700000000            000000000000000                              000                           
0010001300013T 020180230000001544772 29577050135704133   788888888888889923012017000000000007500001012408888888888888899          0900000000000010000000000000000000000000000000000000000   0000000000000000000000000A9        170192957705     
0010001300014U 020000000000000000000000000000000000000000000000000000000000000000000000000000000000000000000000000000000000000000000000002301201700000000            000000000000000                              000                           
0010001300015T 020180230000001544772 29577050135740183   788888888888889923012017000000000007500001012408888888888888899          0900000000000010000000000000000000000000000000000000000   0000000000000000000000000A9        170192957705     
0010001300016U 020000000000000000000000000000000000000000000000000000000000000000000000000000000000000000000000000000000000000000000000002301201700000000            000000000000000                              000                           
0010001300017T 020180230000001544772 29577050135744089   788888888888889923012017000000000007500001012408888888888888899          0900000000000010000000000000000000000000000000000000000   0000000000000000000000000A9        170192957705     
0010001300018U 020000000000000000000000000000000000000000000000000000000000000000000000000000000000000000000000000000000000000000000000002301201700000000            000000000000000                              000                           
0010001300019T 020180230000001544772 29577050135745883   788888888888889924012017000000000007500001012408888888888888899          0900000000000010000000000000000000000000000000000000000   0000000000000000000000000A9        170192957705     
0010001300020U 020000000000000000000000000000000000000000000000000000000000000000000000000000000000000000000000000000000000000000000000002301201700000000            000000000000000                              000                           
0010001300021T 020180230000001544772 29577050135754614   788888888888889923012017000000000007500001012408888888888888899          0900000000000010000000000000000000000000000000000000000   0000000000000000000000000A9        170192957705     
0010001300022U 020000000000000000000000000000000000000000000000000000000000000000000000000000000000000000000000000000000000000000000000002301201700000000            000000000000000                              000                           
0010001300023T 020180230000001544772 29577050190413878   788888888888889923012017000000000007500001004782888888888888899          0900000000000010000000000000000000000000000000000000000   0000000000000000000000000A9        170192957705     
0010001300024U 020000000000000000000000000000000000000000000000000000000000000000000000000000000000000000000000000000000000000000000000002301201700000000            000000000000000                              000                           
0010001300025T 020180230000001544772 29577050190440929   788888888888889924012017000000000007500001004782888888888888899          0900000000000010000000000000000000000000000000000000000   0000000000000000000000000A9        170192957705     
0010001300026U 020000000000000000000000000000000000000000000000000000000000000000000000000000000000000000000000000000000000000000000000002301201700000000            000000000000000                              000                           
0010001300027T 020180230000001544772 29577050209007269   788888888888889924012017000000000007500001000213888888888888899          0900000000000010000000000000000000000000000000000000000   0000000000000000000000000A9        170192957705     
0010001300028U 020000000000000000000000000000000000000000000000000000000000000000000000000000000000000000000000000000000000000000000000002301201700000000            000000000000000                              000                           
0010001300029T 020180230000001544772 29577050209025150   788888888888889924012017000000000007500001000213888888888888899          0900000000000010000000000000000000000000000000000000000   0000000000000000000000000A9        170192957705     
0010001300030U 020000000000000000000000000000000000000000000000000000000000000000000000000000000000000000000000000000000000000000000000002301201700000000            000000000000000                              000                           
0010001300031T 020180230000001544772 29577050209032497   788888888888889924012017000000000007500001000213888888888888899          0900000000000010000000000000000000000000000000000000000   0000000000000000000000000A9        170192957705     
0010001300032U 020000000000000000000000000000000000000000000000000000000000000000000000000000000000000000000000000000000000000000000000002301201700000000            000000000000000                              000                           
0010001300033T 020180230000001544772 29577050223710695   788888888888889924012017000000000007500001000213888888888888899          0900000000000010000000000000000000000000000000000000000   0000000000000000000000000A9        170192957705     
0010001300034U 020000000000000000000000000000000000000000000000000000000000000000000000000000000000000000000000000000000000000000000000002301201700000000            000000000000000                              000                           
0010001300035T 020180230000001544772 29577050223758575   788888888888889924012017000000000007500001000213888888888888899          0900000000000010000000000000000000000000000000000000000   0000000000000000000000000A9        170192957705     
0010001300036U 020000000000000000000000000000000000000000000000000000000000000000000000000000000000000000000000000000000000000000000000002301201700000000            000000000000000                              000                           
0010001300037T 020180230000001544772 29577050223758963   788888888888889924012017000000000007500001000213888888888888899          0900000000000010000000000000000000000000000000000000000   0000000000000000000000000A9        170192957705     
0010001300038U 020000000000000000000000000000000000000000000000000000000000000000000000000000000000000000000000000000000000000000000000002301201700000000            000000000000000                              000                           
0010001300039T 020180230000001544772 29577050224932987   788888888888889924012017000000000007500001032077888888888888899          0900000000000010000000000000000000000000000000000000000   0000000000000000000000000A9        170192957705     
0010001300040U 020000000000000000000000000000000000000000000000000000000000000000000000000000000000000000000000000000000000000000000000002301201700000000            000000000000000                              000                           
0010001300041T 020180230000001544772 29577050225755859   788888888888889924012017000000000007500001012408888888888888899          0900000000000010000000000000000000000000000000000000000   0000000000000000000000000A9        170192957705     
0010001300042U 020000000000000000000000000000000000000000000000000000000000000000000000000000000000000000000000000000000000000000000000002301201700000000            000000000000000                              000                           
0010001300043T 020180230000001544772 29577050238410882   78888888888888992401201700000000000750000103049X888888888888899          0900000000000010500000000000000000000000000000000000000   0000000000000000000000000A9A4      170192957705     
0010001300044U 020000000000000000000000000000000000000000000000000000000000000000000000000000000000000000000000000000000000000000000000002301201700000000            000000000000000                              000                           
0010001300045T 020180230000001544772 29577050241037299   78888888888888992301201700000000000750000101009X888888888888899          0900000000000010000000000000000000000000000000000000000   0000000000000000000000000A9        170192957705     
0010001300046U 020000000000000000000000000000000000000000000000000000000000000000000000000000000000000000000000000000000000000000000000002301201700000000            000000000000000                              000                           
0010001300047T 020180230000001544772 29577050243547104   788888888888889924012017000000000007500001000213888888888888899          0900000000000010000000000000000000000000000000000000000   0000000000000000000000000A9        170192957705     
0010001300048U 020000000000000000000000000000000000000000000000000000000000000000000000000000000000000000000000000000000000000000000000002301201700000000            000000000000000                              000                           
0010001300049T 020180230000001544772 29577050255417935   788888888888889924012017000000000007500001012416888888888888899          0900000000000010000000000000000000000000000000000000000   0000000000000000000000000A9        170192957705     
0010001300050U 020000000000000000000000000000000000000000000000000000000000000000000000000000000000000000000000000000000000000000000000002301201700000000            000000000000000                              000                           
0010001300051T 020180230000001544772 29577050255429978   788888888888889923012017000000000007500001012416888888888888899          0900000000000010000000000000000000000000000000000000000   0000000000000000000000000A9        170192957705     
0010001300052U 020000000000000000000000000000000000000000000000000000000000000000000000000000000000000000000000000000000000000000000000002301201700000000            000000000000000                              000                           
0010001300053T 020180230000001544772 29577050257228404   788888888888889923012017000000000007500001001120888888888888899          0900000000000010000000000000000000000000000000000000000   0000000000000000000000000A9        170192957705     
0010001300054U 020000000000000000000000000000000000000000000000000000000000000000000000000000000000000000000000000000000000000000000000002301201700000000            000000000000000                              000                           
0010001300055T 020180230000001544772 29577050258039223   788888888888889923012017000000000007500001000213888888888888899          0900000000000010000000000000000000000000000000000000000   0000000000000000000000000A9        170192957705     
0010001300056U 020000000000000000000000000000000000000000000000000000000000000000000000000000000000000000000000000000000000000000000000002301201700000000            000000000000000                              000                           
0010001300057T 020180230000001544772 29577050258258776   78888888888888992401201700000000000750000103049X888888888888899          0900000000000010500000000000000000000000000000000000000   0000000000000000000000000A9A4      170192957705     
0010001300058U 020000000000000000000000000000000000000000000000000000000000000000000000000000000000000000000000000000000000000000000000002301201700000000            000000000000000                              000                           
0010001300059T 020180230000001544772 29577050262257564   78888888888888992401201700000000000750000103049X888888888888899          0900000000000010000000000000000000000000000000000000000   0000000000000000000000000A9        170192957705     
0010001300060U 020000000000000000000000000000000000000000000000000000000000000000000000000000000000000000000000000000000000000000000000002301201700000000            000000000000000                              000                           
0010001300061T 020180230000001544772 29577050265620800   78888888888888992401201700000000000750000103049X888888888888899          0900000000000010000000000000000000000000000000000000000   0000000000000000000000000A9        170192957705     
0010001300062U 020000000000000000000000000000000000000000000000000000000000000000000000000000000000000000000000000000000000000000000000002301201700000000            000000000000000                              000                           
0010001300063T 020180230000001544772 29577050265650826   78888888888888992401201700000000000750000103049X888888888888899          0900000000000010000000000000000000000000000000000000000   0000000000000000000000000A9        170192957705     
0010001300064U 020000000000000000000000000000000000000000000000000000000000000000000000000000000000000000000000000000000000000000000000002301201700000000            000000000000000                              000                           
0010001300065T 020180230000001544772 29577050266300885   78888888888888992401201700000000000750000103049X888888888888899          0900000000000010000000000000000000000000000000000000000   0000000000000000000000000A9        170192957705     
0010001300066U 020000000000000000000000000000000000000000000000000000000000000000000000000000000000000000000000000000000000000000000000002301201700000000            000000000000000                              000                           
0010001300067T 020180230000001544772 29577050272000166   78888888888888992301201700000000000750000103049X888888888888899          0900000000000010000000000000000000000000000000000000000   0000000000000000000000000A9        170192957705     
0010001300068U 020000000000000000000000000000000000000000000000000000000000000000000000000000000000000000000000000000000000000000000000002301201700000000            000000000000000                              000                           
0010001300069T 020180230000001544772 29577050273554984   78888888888888992301201700000000000750000103049X888888888888899          0900000000000010000000000000000000000000000000000000000   0000000000000000000000000A9        170192957705     
0010001300070U 020000000000000000000000000000000000000000000000000000000000000000000000000000000000000000000000000000000000000000000000002301201700000000            000000000000000                              000                           
0010001300071T 020180230000001544772 29577050278117602   788888888888889923012017000000000007500001012408888888888888899          0900000000000010000000000000000000000000000000000000000   0000000000000000000000000A9        170192957705     
0010001300072U 020000000000000000000000000000000000000000000000000000000000000000000000000000000000000000000000000000000000000000000000002301201700000000            000000000000000                              000                           
0010001300073T 020180230000001544772 29577050282316779   78888888888888992301201700000000000750000103049X888888888888899          0900000000000010000000000000000000000000000000000000000   0000000000000000000000000A9        170192957705     
0010001300074U 020000000000000000000000000000000000000000000000000000000000000000000000000000000000000000000000000000000000000000000000002301201700000000            000000000000000                              000                           
0010001300075T 020180230000001544772 29577050282401413   788888888888889923012017000000000007500001012408888888888888899          0900000000000010000000000000000000000000000000000000000   0000000000000000000000000A9        170192957705     
0010001300076U 020000000000000000000000000000000000000000000000000000000000000000000000000000000000000000000000000000000000000000000000002301201700000000            000000000000000                              000                           
0010001300077T 020180230000001544772 29577050282526284   788888888888889923012017000000000007500001000833888888888888899          0900000000000010000000000000000000000000000000000000000   0000000000000000000000000A9        170192957705     
0010001300078U 020000000000000000000000000000000000000000000000000000000000000000000000000000000000000000000000000000000000000000000000002301201700000000            000000000000000                              000                           
0010001300079T 020180230000001544772 29577050282656700   788888888888889923012017000000000007500001012416888888888888899          0900000000000010000000000000000000000000000000000000000   0000000000000000000000000A9        170192957705     
0010001300080U 020000000000000000000000000000000000000000000000000000000000000000000000000000000000000000000000000000000000000000000000002301201700000000            000000000000000                              000                           
0010001300081T 020180230000001544772 29577050282726160   788888888888889923012017000000000007500001012408888888888888899          0900000000000010000000000000000000000000000000000000000   0000000000000000000000000A9        170192957705     
0010001300082U 020000000000000000000000000000000000000000000000000000000000000000000000000000000000000000000000000000000000000000000000002301201700000000            000000000000000                              000                           
0010001300083T 020180230000001544772 29577050282825902   788888888888889923012017000000000007500001012408888888888888899          0900000000000010000000000000000000000000000000000000000   0000000000000000000000000A9        170192957705     
0010001300084U 020000000000000000000000000000000000000000000000000000000000000000000000000000000000000000000000000000000000000000000000002301201700000000            000000000000000                              000                           
0010001300085T 020180230000001544772 29577050282901849   788888888888889924012017000000000007500001000213888888888888899          0900000000000010000000000000000000000000000000000000000   0000000000000000000000000A9        170192957705     
0010001300086U 020000000000000000000000000000000000000000000000000000000000000000000000000000000000000000000000000000000000000000000000002301201700000000            000000000000000                              000                           
0010001300087T 020180230000001544772 29577050283113901   788888888888889924012017000000000007500001000213888888888888899          0900000000000010000000000000000000000000000000000000000   0000000000000000000000000A9        170192957705     
0010001300088U 020000000000000000000000000000000000000000000000000000000000000000000000000000000000000000000000000000000000000000000000002301201700000000            000000000000000                              000                           
0010001300089T 020180230000001544772 29577050283248205   788888888888889924012017000000000007500001012416888888888888899          0900000000000010000000000000000000000000000000000000000   0000000000000000000000000A9        170192957705     
0010001300090U 020000000000000000000000000000000000000000000000000000000000000000000000000000000000000000000000000000000000000000000000002301201700000000            000000000000000                              000                           
0010001300091T 020180230000001544772 29577050283323964   788888888888889924012017000000000010000001012416888888888888899          0900000000000010000000000000000000000000000000000000000   0000000000000000000000000A9        170192957705     
0010001300092U 020000000000000000000000000000000000000000000000000000000000000000000000000000000000000000000000000000000000000000000000002301201700000000            000000000000000                              000                           
0010001300093T 020180230000001544772 29577050283459250   78888888888888992401201700000000000750000103049X888888888888899          0900000000000010000000000000000000000000000000000000000   0000000000000000000000000A9        170192957705     
0010001300094U 020000000000000000000000000000000000000000000000000000000000000000000000000000000000000000000000000000000000000000000000002301201700000000            000000000000000                              000                           
0010001300095T 020180230000001544772 29577050283555007   788888888888889924012017000000000007500001009245888888888888899          0900000000000010000000000000000000000000000000000000000   0000000000000000000000000A9        170192957705     
0010001300096U 020000000000000000000000000000000000000000000000000000000000000000000000000000000000000000000000000000000000000000000000002301201700000000            000000000000000                              000                           
0010001300097T 020180230000001544772 29577050283605686   78888888888888992401201700000000000750000103049X888888888888899          0900000000000010500000000000000000000000000000000000000   0000000000000000000000000A9A4      170192957705     
0010001300098U 020000000000000000000000000000000000000000000000000000000000000000000000000000000000000000000000000000000000000000000000002301201700000000            000000000000000                              000                           
0010001300099T 020180230000001544772 29577050283700723   788888888888889924012017000000000007500001012408888888888888899          0900000000000010000000000000000000000000000000000000000   0000000000000000000000000A9        170192957705     
0010001300100U 020000000000000000000000000000000000000000000000000000000000000000000000000000000000000000000000000000000000000000000000002301201700000000            000000000000000                              000                           
0010001300101T 020180230000001544772 29577050283821166   788888888888889924012017000000000007500001012408888888888888899          0900000000000010000000000000000000000000000000000000000   0000000000000000000000000A9        170192957705     
0010001300102U 020000000000000000000000000000000000000000000000000000000000000000000000000000000000000000000000000000000000000000000000002301201700000000            000000000000000                              000                           
0010001300103T 020180230000001544772 29577050283905430   788888888888889924012017000000000007500001012408888888888888899          0900000000000010000000000000000000000000000000000000000   0000000000000000000000000A9        170192957705     
0010001300104U 020000000000000000000000000000000000000000000000000000000000000000000000000000000000000000000000000000000000000000000000002301201700000000            000000000000000                              000                           
0010001300105T 020180230000001544772 29577050284008878   78888888888888992401201700000000000750000100166X888888888888899          0900000000000010000000000000000000000000000000000000000   0000000000000000000000000A9        170192957705     
0010001300106U 020000000000000000000000000000000000000000000000000000000000000000000000000000000000000000000000000000000000000000000000002301201700000000            000000000000000                              000                           
0010001300107T 020180230000001544772 29577050284141614   788888888888889924012017000000000007500001012408888888888888899          0900000000000010000000000000000000000000000000000000000   0000000000000000000000000A9        170192957705     
0010001300108U 020000000000000000000000000000000000000000000000000000000000000000000000000000000000000000000000000000000000000000000000002301201700000000            000000000000000                              000                           
0010001300109T 020180230000001544772 29577050284242494   788888888888889924012017000000000007500001012416888888888888899          0900000000000010000000000000000000000000000000000000000   0000000000000000000000000A9        170192957705     
0010001300110U 020000000000000000000000000000000000000000000000000000000000000000000000000000000000000000000000000000000000000000000000002301201700000000            000000000000000                              000                           
0010001300111T 020180230000001544772 29577050284344355   788888888888889924012017000000000007500001012408888888888888899          0900000000000010000000000000000000000000000000000000000   0000000000000000000000000A9        170192957705     
0010001300112U 020000000000000000000000000000000000000000000000000000000000000000000000000000000000000000000000000000000000000000000000002301201700000000            000000000000000                              000                           
0010001300113T 020180230000001544772 29577050284506621   78888888888888992401201700000000000750000100166X888888888888899          0900000000000010500000000000000000000000000000000000000   0000000000000000000000000A9A4      170192957705     
0010001300114U 020000000000000000000000000000000000000000000000000000000000000000000000000000000000000000000000000000000000000000000000002301201700000000            000000000000000                              000                           
0010001300115T 020180230000001544772 29577050284711410   78888888888888992401201700000000000750000103049X888888888888899          0900000000000010000000000000000000000000000000000000000   0000000000000000000000000A9        170192957705     
0010001300116U 020000000000000000000000000000000000000000000000000000000000000000000000000000000000000000000000000000000000000000000000002301201700000000            000000000000000                              000                           
0010001300117T 020180230000001544772 29577050284724892   78888888888888992401201700000000000750000103049X888888888888899          0900000000000010000000000000000000000000000000000000000   0000000000000000000000000A9        170192957705     
0010001300118U 020000000000000000000000000000000000000000000000000000000000000000000000000000000000000000000000000000000000000000000000002301201700000000            000000000000000                              000                           
0010001300119T 020180230000001544772 29577050284828231   78888888888888992401201700000000000750000103049X888888888888899          0900000000000010000000000000000000000000000000000000000   0000000000000000000000000A9        170192957705     
0010001300120U 020000000000000000000000000000000000000000000000000000000000000000000000000000000000000000000000000000000000000000000000002301201700000000            000000000000000                              000                           
0010001300121T 020180230000001544772 29577050284858078   78888888888888992401201700000000000750000103049X888888888888899          0900000000000010000000000000000000000000000000000000000   0000000000000000000000000A9        170192957705     
0010001300122U 020000000000000000000000000000000000000000000000000000000000000000000000000000000000000000000000000000000000000000000000002301201700000000            000000000000000                              000                           
0010001300123T 020180230000001544772 29577050285101095   788888888888889924012017000000000007500001004782888888888888899          0900000000000010000000000000000000000000000000000000000   0000000000000000000000000A9        170192957705     
0010001300124U 020000000000000000000000000000000000000000000000000000000000000000000000000000000000000000000000000000000000000000000000002301201700000000            000000000000000                              000                           
0010001300125T 020180230000001544772 29577050285240820   788888888888889924012017000000000007500001012416888888888888899          0900000000000010000000000000000000000000000000000000000   0000000000000000000000000A9        170192957705     
0010001300126U 020000000000000000000000000000000000000000000000000000000000000000000000000000000000000000000000000000000000000000000000002301201700000000            000000000000000                              000                           
0010001300127T 020180230000001544772 29577050285353187   78888888888888992401201700000000000750000103049X888888888888899          0900000000000010000000000000000000000000000000000000000   0000000000000000000000000A9        170192957705     
0010001300128U 020000000000000000000000000000000000000000000000000000000000000000000000000000000000000000000000000000000000000000000000002301201700000000            000000000000000                              000                           
0010001300129T 020180230000001544772 29577050285442899   788888888888889924012017000000000007500001000213888888888888899          0900000000000010000000000000000000000000000000000000000   0000000000000000000000000A9        170192957705     
0010001300130U 020000000000000000000000000000000000000000000000000000000000000000000000000000000000000000000000000000000000000000000000002301201700000000            000000000000000                              000                           
0010001300131T 020180230000001544772 29577050285618406   788888888888889924012017000000000007500001000213888888888888899          0900000000000010500000000000000000000000000000000000000   0000000000000000000000000A9A4      170192957705     
0010001300132U 020000000000000000000000000000000000000000000000000000000000000000000000000000000000000000000000000000000000000000000000002301201700000000            000000000000000                              000                           
0010001300133T 020180230000001544772 29577050285711036   788888888888889924012017000000000007500001000213888888888888899          0900000000000010500000000000000000000000000000000000000   0000000000000000000000000A9A4      170192957705     
0010001300134U 020000000000000000000000000000000000000000000000000000000000000000000000000000000000000000000000000000000000000000000000002301201700000000            000000000000000                              000                           
0010001300135T 020180230000001544772 29577050285859530   788888888888889924012017000000000007500001000515888888888888899          0900000000000010000000000000000000000000000000000000000   0000000000000000000000000A9        170192957705     
0010001300136U 020000000000000000000000000000000000000000000000000000000000000000000000000000000000000000000000000000000000000000000000002301201700000000            000000000000000                              000                           
0010001300137T 020180230000001544772 29577050285950818   788888888888889924012017000000000007500001012416888888888888899          0900000000000010000000000000000000000000000000000000000   0000000000000000000000000A9        170192957705     
0010001300138U 020000000000000000000000000000000000000000000000000000000000000000000000000000000000000000000000000000000000000000000000002301201700000000            000000000000000                              000                           
0010001300139T 020180230000001544772 29577050286006807   788888888888889924012017000000000007500001000051888888888888899          0900000000000010000000000000000000000000000000000000000   0000000000000000000000000A9        170192957705     
0010001300140U 020000000000000000000000000000000000000000000000000000000000000000000000000000000000000000000000000000000000000000000000002301201700000000            000000000000000                              000                           
0010001300141T 020180230000001544772 29577050286141610   78888888888888992401201700000000000750000103049X888888888888899          0900000000000010000000000000000000000000000000000000000   0000000000000000000000000A9        170192957705     
0010001300142U 020000000000000000000000000000000000000000000000000000000000000000000000000000000000000000000000000000000000000000000000002301201700000000            000000000000000                              000                           
0010001300143T 020180230000001544772 29577050286202362   788888888888889924012017000000000007500001000833888888888888899          0900000000000010000000000000000000000000000000000000000   0000000000000000000000000A9        170192957705     
0010001300144U 020000000000000000000000000000000000000000000000000000000000000000000000000000000000000000000000000000000000000000000000002301201700000000            000000000000000                              000                           
0010001300145T 020180230000001544772 29577050286300495   788888888888889924012017000000000007500001009245888888888888899          0900000000000010000000000000000000000000000000000000000   0000000000000000000000000A9        170192957705     
0010001300146U 020000000000000000000000000000000000000000000000000000000000000000000000000000000000000000000000000000000000000000000000002301201700000000            000000000000000                              000                           
0010001300147T 020180230000001544772 29577050286437071   788888888888889924012017000000000007500001012211888888888888899          0900000000000010500000000000000000000000000000000000000   0000000000000000000000000A9A4      170192957705     
0010001300148U 020000000000000000000000000000000000000000000000000000000000000000000000000000000000000000000000000000000000000000000000002301201700000000            000000000000000                              000                           
0010001300149T 020180230000001544772 29577050286504392   78888888888888992401201700000000000750000103049X888888888888899          0900000000000010000000000000000000000000000000000000000   0000000000000000000000000A9        170192957705     
0010001300150U 020000000000000000000000000000000000000000000000000000000000000000000000000000000000000000000000000000000000000000000000002301201700000000            000000000000000                              000                           
0010001300151T 060180230000001544772 29577050046209459   788888888888889922012017000000000007500104030250888888888888899          0900000000000010000000000000000000000000000000000000000   000000000000000000000029000        170192957705     
0010001300152U 060000000000000000000000000000000000000000000000000000000000000000000000075000000000000072100000000000000000000000000000002301201724012017            000000000000000                              000                           
0010001300153T 170180230000001544772 29577050063745506   7               00000000000000000007500104005900                         0900000000000010000000000000000000000000000000000000000   000000000000000000000070003        170192957705     
0010001300154U 170000000000000000000000000000000000000000000000000000000000000000000000075000000000000068000000000000000000000000000000002301201724012017            000000000000000                              000                           
0010001300155T 170180230000001544772 29577050209007036   7               00000000000000000007500104008800                         0900000000000010000000000000000000000000000000000000000   000000000000000000000070003        170192957705     
0010001300156U 170000000000000000000000000000000000000000000000000000000000000000000000075000000000000068000000000000000000000000000000002301201724012017            000000000000000                              000                           
0010001300157T 170180230000001544772 29577050238640226   7               00000000000000000007500021002740                         0900000000000010000000000000000000000000000000000000000   000000000000000000000070003        170192957705     
0010001300158U 170000000000000000000000000000000000000000000000000000000000000000000000075000000000000068000000000000000000000000000000002301201724012017            000000000000000                              000                           
0010001300159T 170180230000001544772 29577050274536895   7               00000000000000000007500033039440                         0900000000000010000000000000000000000000000000000000000   000000000000000000000070003        170192957705     
0010001300160U 170000000000000000000000000000000000000000000000000000000000000000000000075000000000000068000000000000000000000000000000002301201724012017            000000000000000                              000                           
0010001300161T 170180230000001544772 29577050276743978   7               00000000000000000007500021006350                         0900000000000010000000000000000000000000000000000000000   000000000000000000000070003        170192957705     
0010001300162U 170000000000000000000000000000000000000000000000000000000000000000000000075000000000000068000000000000000000000000000000002301201724012017            000000000000000                              000                           
0010001300163T 170180230000001544772 29577050280740959   7               00000000000000000007500341007010                         0900000000000010000000000000000000000000000000000000000   000000000000000000000070003        170192957705     
0010001300164U 170000000000000000000000000000000000000000000000000000000000000000000000075000000000000068000000000000000000000000000000002301201724012017            000000000000000                              000                           
0010001300165T 170180230000001544772 29577050280850134   7               00000000000000000007500001030848                         0900000000000010000000000000000000000000000000000000000   000000000000000000000070003        170192957705     
0010001300166U 170000000000000000000000000000000000000000000000000000000000000000000000075000000000000068000000000000000000000000000000002301201724012017            000000000000000                              000                           
0010001300167T 170180230000001544772 29577050281601782   7               00000000000000000007500104020420                         0900000000000010000000000000000000000000000000000000000   000000000000000000000070003        170192957705     
0010001300168U 170000000000000000000000000000000000000000000000000000000000000000000000075000000000000068000000000000000000000000000000002301201724012017            000000000000000                              000                           
0010001300169T 060180230000001544772 29577050283248205   788888888888889924012017000000000007500001038776888888888888899          0900000000000010000000000000000000000000000000000000000   000000000000000000000029000        170192957705     
0010001300170U 060000000000000000000000000000000000000000000000000000000000000000000000075000000000000072100000000000000000000000000000002301201724012017            000000000000000                              000                           
0010001300171T 060180230000001544772 29577050283821166   788888888888889924012017000000000007500104036590888888888888899          0900000000000010000000000000000000000000000000000000000   000000000000000000000029000        170192957705     
0010001300172U 060000000000000000000000000000000000000000000000000000000000000000000000075000000000000072100000000000000000000000000000002301201724012017            000000000000000                              000                           
0010001300173T 170180230000001544772 29577050285644058   7               00000000000000000007500104008800                         0900000000000010000000000000000000000000000000000000000   000000000000000000000070003        170192957705     
0010001300174U 170000000000000000000000000000000000000000000000000000000000000000000000075000000000000068000000000000000000000000000000002301201724012017            000000000000000                              000                           
0010001300175T 170180230000001544772 29577050286820868   7               00000000000000000007500237009530                         0900000000000010000000000000000000000000000000000000000   000000000000000000000070003        170192957705     
0010001300176U 170000000000000000000000000000000000000000000000000000000000000000000000075000000000000068000000000000000000000000000000002301201724012017            000000000000000                              000                           
0010001300177T 170180230000001544772 29577050288443188   7               00000000000000000007500341008700                         0900000000000010000000000000000000000000000000000000000   000000000000000000000070003        170192957705     
0010001300178U 170000000000000000000000000000000000000000000000000000000000000000000000075000000000000068000000000000000000000000000000002301201724012017            000000000000000                              000                           
0010001300179T 170180230000001544772 29577050289241475   7               00000000000000000007500341037200                         0900000000000010000000000000000000000000000000000000000   000000000000000000000070003        170192957705     
0010001300180U 170000000000000000000000000000000000000000000000000000000000000000000000075000000000000068000000000000000000000000000000002301201724012017            000000000000000                              000                           
0010001300181T 170180230000001544772 29577050302537138   7               00000000000000000007500001031933                         0900000000000010000000000000000000000000000000000000000   000000000000000000000070003        170192957705     
0010001300182U 170000000000000000000000000000000000000000000000000000000000000000000000075000000000000068000000000000000000000000000000002301201724012017            000000000000000                              000                           
0010001300183T 280180230000001544772 29577050004704390   747530          2312201600000000000750000100000047530                    0900000000000000000000000000000000000000000000000000000   000000000000000000000005002        170192957705     
0010001300184U 280000000000000000000000000000000000000000000000000000000000000000000000000000000000000000000000000000000000000000000000002301201700000000            000000000000000                              000                           
0010001300185T 280180230000001544772 29577050005203912   752874          2312201600000000000750000100000052874                    0900000000000000000000000000000000000000000000000000000   000000000000000000000005002        170192957705     
0010001300186U 280000000000000000000000000000000000000000000000000000000000000000000000000000000000000000000000000000000000000000000000002301201700000000            000000000000000                              000                           
0010001300187T 280180230000001544772 29577050005507170   755896          2312201600000000001000000100000055896                    0900000000000000000000000000000000000000000000000000000   000000000000000000000005002        170192957705     
0010001300188U 280000000000000000000000000000000000000000000000000000000000000000000000000000000000000000000000000000000000000000000000002301201700000000            000000000000000                              000                           
0010001300189T 280180230000001544772 29577050005812054   758297          2312201600000000000750000100000058297                    0900000000000000000000000000000000000000000000000000000   000000000000000000000005002        170192957705     
0010001300190U 280000000000000000000000000000000000000000000000000000000000000000000000000000000000000000000000000000000000000000000000002301201700000000            000000000000000                              000                           
0010001300191T 280180230000001544772 29577050005933015   759932          2312201600000000000750000100000059932                    0900000000000000000000000000000000000000000000000000000   000000000000000000000005002        170192957705     
0010001300192U 280000000000000000000000000000000000000000000000000000000000000000000000000000000000000000000000000000000000000000000000002301201700000000            000000000000000                              000                           
0010001300193T 280180230000001544772 29577050006040101   760596          2312201600000000000750000100000060596                    0900000000000000000000000000000000000000000000000000000   000000000000000000000005002        170192957705     
0010001300194U 280000000000000000000000000000000000000000000000000000000000000000000000000000000000000000000000000000000000000000000000002301201700000000            000000000000000                              000                           
0010001300195T 280180230000001544772 29577050006110070   761943          2312201600000000000750000100000061943                    0900000000000000000000000000000000000000000000000000000   000000000000000000000005002        170192957705     
0010001300196U 280000000000000000000000000000000000000000000000000000000000000000000000000000000000000000000000000000000000000000000000002301201700000000            000000000000000                              000                           
0010001300197T 280180230000001544772 29577050006200170   762368          2312201600000000000750000100000062368                    0900000000000000000000000000000000000000000000000000000   000000000000000000000005002        170192957705     
0010001300198U 280000000000000000000000000000000000000000000000000000000000000000000000000000000000000000000000000000000000000000000000002301201700000000            000000000000000                              000                           
0010001300199T 280180230000001544772 29577050006443723   764077          2312201600000000000750000100000064077                    0900000000000000000000000000000000000000000000000000000   000000000000000000000005002        170192957705     
0010001300200U 280000000000000000000000000000000000000000000000000000000000000000000000000000000000000000000000000000000000000000000000002301201700000000            000000000000000                              000                           
0010001300201T 280180230000001544772 29577050006606721   766976          2312201600000000000750000100000066976                    0900000000000000000000000000000000000000000000000000000   000000000000000000000005002        170192957705     
0010001300202U 280000000000000000000000000000000000000000000000000000000000000000000000000000000000000000000000000000000000000000000000002301201700000000            000000000000000                              000                           
0010001300203T 280180230000001544772 29577050006612669   766962          2312201600000000000750000100000066962                    0900000000000000000000000000000000000000000000000000000   000000000000000000000005002        170192957705     
0010001300204U 280000000000000000000000000000000000000000000000000000000000000000000000000000000000000000000000000000000000000000000000002301201700000000            000000000000000                              000                           
0010001300205T 280180230000001544772 29577050006836764   768839          2312201600000000000750000100000068839                    0900000000000000000000000000000000000000000000000000000   000000000000000000000005002        170192957705     
0010001300206U 280000000000000000000000000000000000000000000000000000000000000000000000000000000000000000000000000000000000000000000000002301201700000000            000000000000000                              000                           
0010001300207T 280180230000001544772 29577050007106714   771784          2312201600000000000750000100000071784                    0900000000000000000000000000000000000000000000000000000   000000000000000000000005002        170192957705     
0010001300208U 280000000000000000000000000000000000000000000000000000000000000000000000000000000000000000000000000000000000000000000000002301201700000000            000000000000000                              000                           
0010001300209T 280180230000001544772 29577050007226475   772916          2312201600000000000750000100000072916                    0900000000000000000000000000000000000000000000000000000   000000000000000000000005002        170192957705     
0010001300210U 280000000000000000000000000000000000000000000000000000000000000000000000000000000000000000000000000000000000000000000000002301201700000000            000000000000000                              000                           
0010001300211T 280180230000001544772 29577050007517555   775740          2312201600000000000750000100000075740                    0900000000000000000000000000000000000000000000000000000   000000000000000000000005002        170192957705     
0010001300212U 280000000000000000000000000000000000000000000000000000000000000000000000000000000000000000000000000000000000000000000000002301201700000000            000000000000000                              000                           
0010001300213T 280180230000001544772 29577050007647281   776716          2312201600000000000750000100000076716                    0900000000000000000000000000000000000000000000000000000   000000000000000000000005002        170192957705     
0010001300214U 280000000000000000000000000000000000000000000000000000000000000000000000000000000000000000000000000000000000000000000000002301201700000000            000000000000000                              000                           
0010001300215T 280180230000001544772 29577050007804527   778225          2312201600000000000750000100000078225                    0900000000000000000000000000000000000000000000000000000   000000000000000000000005002        170192957705     
0010001300216U 280000000000000000000000000000000000000000000000000000000000000000000000000000000000000000000000000000000000000000000000002301201700000000            000000000000000                              000                           
0010001300217T 280180230000001544772 29577050007814337   778189          2312201600000000000750000100000078189                    0900000000000000000000000000000000000000000000000000000   000000000000000000000005002        170192957705     
0010001300218U 280000000000000000000000000000000000000000000000000000000000000000000000000000000000000000000000000000000000000000000000002301201700000000            000000000000000                              000                           
0010001300219T 280180230000001544772 29577050007949528   779431          2312201600000000000750000100000079431                    0900000000000000000000000000000000000000000000000000000   000000000000000000000005002        170192957705     
0010001300220U 280000000000000000000000000000000000000000000000000000000000000000000000000000000000000000000000000000000000000000000000002301201700000000            000000000000000                              000                           
0010001300221T 280180230000001544772 29577050008434090   784342          2312201600000000000750000100000084342                    0900000000000000000000000000000000000000000000000000000   000000000000000000000005002        170192957705     
0010001300222U 280000000000000000000000000000000000000000000000000000000000000000000000000000000000000000000000000000000000000000000000002301201700000000            000000000000000                              000                           
0010001300223T 280180230000001544772 29577050008551414   785895          2312201600000000000750000100000085895                    0900000000000000000000000000000000000000000000000000000   000000000000000000000005002        170192957705     
0010001300224U 280000000000000000000000000000000000000000000000000000000000000000000000000000000000000000000000000000000000000000000000002301201700000000            000000000000000                              000                           
0010001300225T 280180230000001544772 29577050008718779   787368          2312201600000000000750000100000087368                    0900000000000000000000000000000000000000000000000000000   000000000000000000000005002        170192957705     
0010001300226U 280000000000000000000000000000000000000000000000000000000000000000000000000000000000000000000000000000000000000000000000002301201700000000            000000000000000                              000                           
0010001300227T 280180230000001544772 29577050008853855   788003          2312201600000000001000000100000088003                    0900000000000000000000000000000000000000000000000000000   000000000000000000000005002        170192957705     
0010001300228U 280000000000000000000000000000000000000000000000000000000000000000000000000000000000000000000000000000000000000000000000002301201700000000            000000000000000                              000                           
0010001300229T 280180230000001544772 29577050009209007   792476          2312201600000000000750000100000092476                    0900000000000000000000000000000000000000000000000000000   000000000000000000000005002        170192957705     
0010001300230U 280000000000000000000000000000000000000000000000000000000000000000000000000000000000000000000000000000000000000000000000002301201700000000            000000000000000                              000                           
0010001300231T 280180230000001544772 29577050009556045   795458          2312201600000000001000000100000095458                    0900000000000000000000000000000000000000000000000000000   000000000000000000000005002        170192957705     
0010001300232U 280000000000000000000000000000000000000000000000000000000000000000000000000000000000000000000000000000000000000000000000002301201700000000            000000000000000                              000                           
0010001300233T 280180230000001544772 29577050009623527   796844          2312201600000000000750000100000096844                    0900000000000000000000000000000000000000000000000000000   000000000000000000000005002        170192957705     
0010001300234U 280000000000000000000000000000000000000000000000000000000000000000000000000000000000000000000000000000000000000000000000002301201700000000            000000000000000                              000                           
0010001300235T 280180230000001544772 29577050009806932   798040          2312201600000000000750000100000098040                    0900000000000000000000000000000000000000000000000000000   000000000000000000000005002        170192957705     
0010001300236U 280000000000000000000000000000000000000000000000000000000000000000000000000000000000000000000000000000000000000000000000002301201700000000            000000000000000                              000                           
0010001300237T 280180230000001544772 29577050010000013   7100804         23122016000000000007500001000000100804                   0900000000000000000000000000000000000000000000000000000   000000000000000000000005002        170192957705     
0010001300238U 280000000000000000000000000000000000000000000000000000000000000000000000000000000000000000000000000000000000000000000000002301201700000000            000000000000000                              000                           
0010001300239T 280180230000001544772 29577050010148630   7101990         23122016000000000007500001000000101990                   0900000000000000000000000000000000000000000000000000000   000000000000000000000005002        170192957705     
0010001300240U 280000000000000000000000000000000000000000000000000000000000000000000000000000000000000000000000000000000000000000000000002301201700000000            000000000000000                              000                           
0010001300241T 280180230000001544772 29577050010529407   7105730         23122016000000000007500001000000105730                   0900000000000000000000000000000000000000000000000000000   000000000000000000000005002        170192957705     
0010001300242U 280000000000000000000000000000000000000000000000000000000000000000000000000000000000000000000000000000000000000000000000002301201700000000            000000000000000                              000                           
0010001300243T 280180230000001544772 29577050010920739   7109937         23122016000000000010000001000000109937                   0900000000000000000000000000000000000000000000000000000   000000000000000000000005002        170192957705     
0010001300244U 280000000000000000000000000000000000000000000000000000000000000000000000000000000000000000000000000000000000000000000000002301201700000000            000000000000000                              000                           
0010001300245T 280180230000001544772 29577050011332543   7113870         23122016000000000007500001000000113870                   0900000000000000000000000000000000000000000000000000000   000000000000000000000005002        170192957705     
0010001300246U 280000000000000000000000000000000000000000000000000000000000000000000000000000000000000000000000000000000000000000000000002301201700000000            000000000000000                              000                           
0010001300247T 280180230000001544772 29577050011356873   7113617         23122016000000000007500001000000113617                   0900000000000000000000000000000000000000000000000000000   000000000000000000000005002        170192957705     
0010001300248U 280000000000000000000000000000000000000000000000000000000000000000000000000000000000000000000000000000000000000000000000002301201700000000            000000000000000                              000                           
0010001300249T 280180230000001544772 29577050012014735   7120709         23122016000000000007500001000000120709                   0900000000000000000000000000000000000000000000000000000   000000000000000000000005002        170192957705     
0010001300250U 280000000000000000000000000000000000000000000000000000000000000000000000000000000000000000000000000000000000000000000000002301201700000000            000000000000000                              000                           
0010001300251T 280180230000001544772 29577050012147654   7121057         23122016000000000007500001000000121057                   0900000000000000000000000000000000000000000000000000000   000000000000000000000005002        170192957705     
0010001300252U 280000000000000000000000000000000000000000000000000000000000000000000000000000000000000000000000000000000000000000000000002301201700000000            000000000000000                              000                           
0010001300253T 280180230000001544772 29577050012259693   7122643         23122016000000000007500001000000122643                   0900000000000000000000000000000000000000000000000000000   000000000000000000000005002        170192957705     
0010001300254U 280000000000000000000000000000000000000000000000000000000000000000000000000000000000000000000000000000000000000000000000002301201700000000            000000000000000                              000                           
0010001300255T 280180230000001544772 29577050012554852   7125680         23122016000000000007500001000000125680                   0900000000000000000000000000000000000000000000000000000   000000000000000000000005002        170192957705     
0010001300256U 280000000000000000000000000000000000000000000000000000000000000000000000000000000000000000000000000000000000000000000000002301201700000000            000000000000000                              000                           
0010001300257T 280180230000001544772 29577050012705253   7127664         23122016000000000007500001000000127664                   0900000000000000000000000000000000000000000000000000000   000000000000000000000005002        170192957705     
0010001300258U 280000000000000000000000000000000000000000000000000000000000000000000000000000000000000000000000000000000000000000000000002301201700000000            000000000000000                              000                           
0010001300259T 280180230000001544772 29577050012802673   7128755         23122016000000000007500001000000128755                   0900000000000000000000000000000000000000000000000000000   000000000000000000000005002        170192957705     
0010001300260U 280000000000000000000000000000000000000000000000000000000000000000000000000000000000000000000000000000000000000000000000002301201700000000            000000000000000                              000                           
0010001300261T 280180230000001544772 29577050012928757   7129741         23122016000000000007500001000000129741                   0900000000000000000000000000000000000000000000000000000   000000000000000000000005002        170192957705     
0010001300262U 280000000000000000000000000000000000000000000000000000000000000000000000000000000000000000000000000000000000000000000000002301201700000000            000000000000000                              000                           
0010001300263T 280180230000001544772 29577050013033101   7130309         23122016000000000007500001000000130309                   0900000000000000000000000000000000000000000000000000000   000000000000000000000005002        170192957705     
0010001300264U 280000000000000000000000000000000000000000000000000000000000000000000000000000000000000000000000000000000000000000000000002301201700000000            000000000000000                              000                           
0010001300265T 280180230000001544772 29577050013145310   7131797         23122016000000000007500001000000131797                   0900000000000000000000000000000000000000000000000000000   000000000000000000000005002        170192957705     
0010001300266U 280000000000000000000000000000000000000000000000000000000000000000000000000000000000000000000000000000000000000000000000002301201700000000            000000000000000                              000                           
0010001300267T 280180230000001544772 29577050013407664   7134289         23122016000000000007500001000000134289                   0900000000000000000000000000000000000000000000000000000   000000000000000000000005002        170192957705     
0010001300268U 280000000000000000000000000000000000000000000000000000000000000000000000000000000000000000000000000000000000000000000000002301201700000000            000000000000000                              000                           
0010001300269T 280180230000001544772 29577050013424149   7134619         24122016000000000007500001000000134619                   0900000000000000000000000000000000000000000000000000000   000000000000000000000005002        170192957705     
0010001300270U 280000000000000000000000000000000000000000000000000000000000000000000000000000000000000000000000000000000000000000000000002301201700000000            000000000000000                              000                           
0010001300271T 280180230000001544772 29577050013532074   7135338         23122016000000000007500001000000135338                   0900000000000000000000000000000000000000000000000000000   000000000000000000000005002        170192957705     
0010001300272U 280000000000000000000000000000000000000000000000000000000000000000000000000000000000000000000000000000000000000000000000002301201700000000            000000000000000                              000                           
0010001300273T 280180230000001544772 29577050013634049   7136710         23122016000000000007500001000000136710                   0900000000000000000000000000000000000000000000000000000   000000000000000000000005002        170192957705     
0010001300274U 280000000000000000000000000000000000000000000000000000000000000000000000000000000000000000000000000000000000000000000000002301201700000000            000000000000000                              000                           
0010001300275T 280180230000001544772 29577050013720263   7137043         23122016000000000007500001000000137043                   0900000000000000000000000000000000000000000000000000000   000000000000000000000005002        170192957705     
0010001300276U 280000000000000000000000000000000000000000000000000000000000000000000000000000000000000000000000000000000000000000000000002301201700000000            000000000000000                              000                           
0010001300277T 280180230000001544772 29577050013814841   7138057         23122016000000000007500001000000138057                   0900000000000000000000000000000000000000000000000000000   000000000000000000000005002        170192957705     
0010001300278U 280000000000000000000000000000000000000000000000000000000000000000000000000000000000000000000000000000000000000000000000002301201700000000            000000000000000                              000                           
0010001300279T 280180230000001544772 29577050013902539   7139109         23122016000000000007500001000000139109                   0900000000000000000000000000000000000000000000000000000   000000000000000000000005002        170192957705     
0010001300280U 280000000000000000000000000000000000000000000000000000000000000000000000000000000000000000000000000000000000000000000000002301201700000000            000000000000000                              000                           
0010001300281T 280180230000001544772 29577050014118488   7141284         23122016000000000007500001000000141284                   0900000000000000000000000000000000000000000000000000000   000000000000000000000005002        170192957705     
0010001300282U 280000000000000000000000000000000000000000000000000000000000000000000000000000000000000000000000000000000000000000000000002301201700000000            000000000000000                              000                           
0010001300283T 280180230000001544772 29577050014708557   7147066         23122016000000000010000001000000147066                   0900000000000000000000000000000000000000000000000000000   000000000000000000000005002        170192957705     
0010001300284U 280000000000000000000000000000000000000000000000000000000000000000000000000000000000000000000000000000000000000000000000002301201700000000            000000000000000                              000                           
0010001300285T 280180230000001544772 29577050014712498   7147780         23122016000000000010000001000000147780                   0900000000000000000000000000000000000000000000000000000   000000000000000000000005002        170192957705     
0010001300286U 280000000000000000000000000000000000000000000000000000000000000000000000000000000000000000000000000000000000000000000000002301201700000000            000000000000000                              000                           
0010001300287T 280180230000001544772 29577050014757116   7147431         23122016000000000010000001000000147431                   0900000000000000000000000000000000000000000000000000000   000000000000000000000005002        170192957705     
0010001300288U 280000000000000000000000000000000000000000000000000000000000000000000000000000000000000000000000000000000000000000000000002301201700000000            000000000000000                              000                           
0010001300289T 280180230000001544772 29577050014847700   7148774         23122016000000000007500001000000148774                   0900000000000000000000000000000000000000000000000000000   000000000000000000000005002        170192957705     
0010001300290U 280000000000000000000000000000000000000000000000000000000000000000000000000000000000000000000000000000000000000000000000002301201700000000            000000000000000                              000                           
0010001300291T 280180230000001544772 29577050014944263   7149578         23122016000000000007500001000000149578                   0900000000000000000000000000000000000000000000000000000   000000000000000000000005002        170192957705     
0010001300292U 280000000000000000000000000000000000000000000000000000000000000000000000000000000000000000000000000000000000000000000000002301201700000000            000000000000000                              000                           
0010001300293T 280180230000001544772 29577050015039069   7150078         23122016000000000007500001000000150078                   0900000000000000000000000000000000000000000000000000000   000000000000000000000005002        170192957705     
0010001300294U 280000000000000000000000000000000000000000000000000000000000000000000000000000000000000000000000000000000000000000000000002301201700000000            000000000000000                              000                           
0010001300295T 280180230000001544772 29577050015215356   7152780         23122016000000000007500001000000152780                   0900000000000000000000000000000000000000000000000000000   000000000000000000000005002        170192957705     
0010001300296U 280000000000000000000000000000000000000000000000000000000000000000000000000000000000000000000000000000000000000000000000002301201700000000            000000000000000                              000                           
0010001300297T 280180230000001544772 29577050015402525   7154974         23122016000000000007500001000000154974                   0900000000000000000000000000000000000000000000000000000   000000000000000000000005002        170192957705     
0010001300298U 280000000000000000000000000000000000000000000000000000000000000000000000000000000000000000000000000000000000000000000000002301201700000000            000000000000000                              000                           
0010001300299T 280180230000001544772 29577050015755300   7157670         23122016000000000010000001000000157670                   0900000000000000000000000000000000000000000000000000000   000000000000000000000005002        170192957705     
0010001300300U 280000000000000000000000000000000000000000000000000000000000000000000000000000000000000000000000000000000000000000000000002301201700000000            000000000000000                              000                           
0010001300301T 280180230000001544772 29577050015852292   7158451         23122016000000000007500001000000158451                   0900000000000000000000000000000000000000000000000000000   000000000000000000000005002        170192957705     
0010001300302U 280000000000000000000000000000000000000000000000000000000000000000000000000000000000000000000000000000000000000000000000002301201700000000            000000000000000                              000                           
0010001300303T 280180230000001544772 29577050016221052   7162527         23122016000000000007500001000000162527                   0900000000000000000000000000000000000000000000000000000   000000000000000000000005002        170192957705     
0010001300304U 280000000000000000000000000000000000000000000000000000000000000000000000000000000000000000000000000000000000000000000000002301201700000000            000000000000000                              000                           
0010001300305T 280180230000001544772 29577050017046024   7170219         23122016000000000010000001000000170219                   0900000000000000000000000000000000000000000000000000000   000000000000000000000005002        170192957705     
0010001300306U 280000000000000000000000000000000000000000000000000000000000000000000000000000000000000000000000000000000000000000000000002301201700000000            000000000000000                              000                           
0010001300307T 280180230000001544772 29577050017108451   7171090         23122016000000000007500001000000171090                   0900000000000000000000000000000000000000000000000000000   000000000000000000000005002        170192957705     
0010001300308U 280000000000000000000000000000000000000000000000000000000000000000000000000000000000000000000000000000000000000000000000002301201700000000            000000000000000                              000                           
0010001300309T 280180230000001544772 29577050017235045   7172617         23122016000000000010000001000000172617                   0900000000000000000000000000000000000000000000000000000   000000000000000000000005002        170192957705     
0010001300310U 280000000000000000000000000000000000000000000000000000000000000000000000000000000000000000000000000000000000000000000000002301201700000000            000000000000000                              000                           
0010001300311T 280180230000001544772 29577050017416623   7174237         24122016000000000007500001000000174237                   0900000000000000000000000000000000000000000000000000000   000000000000000000000005002        170192957705     
0010001300312U 280000000000000000000000000000000000000000000000000000000000000000000000000000000000000000000000000000000000000000000000002301201700000000            000000000000000                              000                           
0010001300313T 280180230000001544772 29577050017419625   7174779         23122016000000000007500001000000174779                   0900000000000000000000000000000000000000000000000000000   000000000000000000000005002        170192957705     
0010001300314U 280000000000000000000000000000000000000000000000000000000000000000000000000000000000000000000000000000000000000000000000002301201700000000            000000000000000                              000                           
0010001300315T 280180230000001544772 29577050017429517   7174941         23122016000000000007500001000000174941                   0900000000000000000000000000000000000000000000000000000   000000000000000000000005002        170192957705     
0010001300316U 280000000000000000000000000000000000000000000000000000000000000000000000000000000000000000000000000000000000000000000000002301201700000000            000000000000000                              000                           
0010001300317T 280180230000001544772 29577050017724424   7177984         23122016000000000007500001000000177984                   0900000000000000000000000000000000000000000000000000000   000000000000000000000005002        170192957705     
0010001300318U 280000000000000000000000000000000000000000000000000000000000000000000000000000000000000000000000000000000000000000000000002301201700000000            000000000000000                              000                           
0010001300319T 280180230000001544772 29577050018059476   7180360         23122016000000000007500001000000180360                   0900000000000000000000000000000000000000000000000000000   000000000000000000000005002        170192957705     
0010001300320U 280000000000000000000000000000000000000000000000000000000000000000000000000000000000000000000000000000000000000000000000002301201700000000            000000000000000                              000                           
0010001300321T 280180230000001544772 29577050018118786   7181685         23122016000000000007500001000000181685                   0900000000000000000000000000000000000000000000000000000   000000000000000000000005002        170192957705     
0010001300322U 280000000000000000000000000000000000000000000000000000000000000000000000000000000000000000000000000000000000000000000000002301201700000000            000000000000000                              000                           
0010001300323T 280180230000001544772 29577050018348091   7183517         23122016000000000007500001000000183517                   0900000000000000000000000000000000000000000000000000000   000000000000000000000005002        170192957705     
0010001300324U 280000000000000000000000000000000000000000000000000000000000000000000000000000000000000000000000000000000000000000000000002301201700000000            000000000000000                              000                           
0010001300325T 280180230000001544772 29577050018659912   7186079         23122016000000000007500001000000186079                   0900000000000000000000000000000000000000000000000000000   000000000000000000000005002        170192957705     
0010001300326U 280000000000000000000000000000000000000000000000000000000000000000000000000000000000000000000000000000000000000000000000002301201700000000            000000000000000                              000                           
0010001300327T 280180230000001544772 29577050018747080   7187983         23122016000000000007500001000000187983                   0900000000000000000000000000000000000000000000000000000   000000000000000000000005002        170192957705     
0010001300328U 280000000000000000000000000000000000000000000000000000000000000000000000000000000000000000000000000000000000000000000000002301201700000000            000000000000000                              000                           
0010001300329T 280180230000001544772 29577050018828556   7188503         23122016000000000007500001000000188503                   0900000000000000000000000000000000000000000000000000000   000000000000000000000005002        170192957705     
0010001300330U 280000000000000000000000000000000000000000000000000000000000000000000000000000000000000000000000000000000000000000000000002301201700000000            000000000000000                              000                           
0010001300331T 280180230000001544772 29577050018923291   7189754         23122016000000000007500001000000189754                   0900000000000000000000000000000000000000000000000000000   000000000000000000000005002        170192957705     
0010001300332U 280000000000000000000000000000000000000000000000000000000000000000000000000000000000000000000000000000000000000000000000002301201700000000            000000000000000                              000                           
0010001300333T 280180230000001544772 29577050019136655   7191765         23122016000000000007500001000000191765                   0900000000000000000000000000000000000000000000000000000   000000000000000000000005002        170192957705     
0010001300334U 280000000000000000000000000000000000000000000000000000000000000000000000000000000000000000000000000000000000000000000000002301201700000000            000000000000000                              000                           
0010001300335T 280180230000001544772 29577050019332565   7193522         23122016000000000010000001000000193522                   0900000000000000000000000000000000000000000000000000000   000000000000000000000005002        170192957705     
0010001300336U 280000000000000000000000000000000000000000000000000000000000000000000000000000000000000000000000000000000000000000000000002301201700000000            000000000000000                              000                           
0010001300337T 280180230000001544772 29577050019559095   7195512         23122016000000000007500001000000195512                   0900000000000000000000000000000000000000000000000000000   000000000000000000000005002        170192957705     
0010001300338U 280000000000000000000000000000000000000000000000000000000000000000000000000000000000000000000000000000000000000000000000002301201700000000            000000000000000                              000                           
0010001300339T 280180230000001544772 29577050020048379   7200228         23122016000000000007500001000000200228                   0900000000000000000000000000000000000000000000000000000   000000000000000000000005002        170192957705     
0010001300340U 280000000000000000000000000000000000000000000000000000000000000000000000000000000000000000000000000000000000000000000000002301201700000000            000000000000000                              000                           
0010001300341T 280180230000001544772 29577050020130213   7201090         23122016000000000007500001000000201090                   0900000000000000000000000000000000000000000000000000000   000000000000000000000005002        170192957705     
0010001300342U 280000000000000000000000000000000000000000000000000000000000000000000000000000000000000000000000000000000000000000000000002301201700000000            000000000000000                              000                           
0010001300343T 280180230000001544772 29577050020235400   7202572         23122016000000000010000001000000202572                   0900000000000000000000000000000000000000000000000000000   000000000000000000000005002        170192957705     
0010001300344U 280000000000000000000000000000000000000000000000000000000000000000000000000000000000000000000000000000000000000000000000002301201700000000            000000000000000                              000                           
0010001300345T 280180230000001544772 29577050020445796   7204191         23122016000000000007500001000000204191                   0900000000000000000000000000000000000000000000000000000   000000000000000000000005002        170192957705     
0010001300346U 280000000000000000000000000000000000000000000000000000000000000000000000000000000000000000000000000000000000000000000000002301201700000000            000000000000000                              000                           
0010001300347T 280180230000001544772 29577050020542989   7205432         23122016000000000007500001000000205432                   0900000000000000000000000000000000000000000000000000000   000000000000000000000005002        170192957705     
0010001300348U 280000000000000000000000000000000000000000000000000000000000000000000000000000000000000000000000000000000000000000000000002301201700000000            000000000000000                              000                           
0010001300349T 280180230000001544772 29577050020600691   7206417         23122016000000000010000001000000206417                   0900000000000000000000000000000000000000000000000000000   000000000000000000000005002        170192957705     
0010001300350U 280000000000000000000000000000000000000000000000000000000000000000000000000000000000000000000000000000000000000000000000002301201700000000            000000000000000                              000                           
0010001300351T 280180230000001544772 29577050020814518   7208262         23122016000000000007500001000000208262                   0900000000000000000000000000000000000000000000000000000   000000000000000000000005002        170192957705     
0010001300352U 280000000000000000000000000000000000000000000000000000000000000000000000000000000000000000000000000000000000000000000000002301201700000000            000000000000000                              000                           
0010001300353T 280180230000001544772 29577050021635570   7216352         23122016000000000010000001000000216352                   0900000000000000000000000000000000000000000000000000000   000000000000000000000005002        170192957705     
0010001300354U 280000000000000000000000000000000000000000000000000000000000000000000000000000000000000000000000000000000000000000000000002301201700000000            000000000000000                              000                           
0010001300355T 280180230000001544772 29577050021713474   7217597         23122016000000000007500001000000217597                   0900000000000000000000000000000000000000000000000000000   000000000000000000000005002        170192957705     
0010001300356U 280000000000000000000000000000000000000000000000000000000000000000000000000000000000000000000000000000000000000000000000002301201700000000            000000000000000                              000                           
0010001300357T 280180230000001544772 29577050021942770   7219527         23122016000000000007500001000000219527                   0900000000000000000000000000000000000000000000000000000   000000000000000000000005002        170192957705     
0010001300358U 280000000000000000000000000000000000000000000000000000000000000000000000000000000000000000000000000000000000000000000000002301201700000000            000000000000000                              000                           
0010001300359T 280180230000001544772 29577050022017190   7220025         23122016000000000007500001000000220025                   0900000000000000000000000000000000000000000000000000000   000000000000000000000005002        170192957705     
0010001300360U 280000000000000000000000000000000000000000000000000000000000000000000000000000000000000000000000000000000000000000000000002301201700000000            000000000000000                              000                           
0010001300361T 280180230000001544772 29577050022120066   7221781         23122016000000000007500001000000221781                   0900000000000000000000000000000000000000000000000000000   000000000000000000000005002        170192957705     
0010001300362U 280000000000000000000000000000000000000000000000000000000000000000000000000000000000000000000000000000000000000000000000002301201700000000            000000000000000                              000                           
0010001300363T 280180230000001544772 29577050022829001   7228241         23122016000000000007500001000000228241                   0900000000000000000000000000000000000000000000000000000   000000000000000000000005002        170192957705     
0010001300364U 280000000000000000000000000000000000000000000000000000000000000000000000000000000000000000000000000000000000000000000000002301201700000000            000000000000000                              000                           
0010001300365T 280180230000001544772 29577050022917724   7229454         23122016000000000007500001000000229454                   0900000000000000000000000000000000000000000000000000000   000000000000000000000005002        170192957705     
0010001300366U 280000000000000000000000000000000000000000000000000000000000000000000000000000000000000000000000000000000000000000000000002301201700000000            000000000000000                              000                           
0010001300367T 280180230000001544772 29577050023113988   7231144         23122016000000000007500001000000231144                   0900000000000000000000000000000000000000000000000000000   000000000000000000000005002        170192957705     
0010001300368U 280000000000000000000000000000000000000000000000000000000000000000000000000000000000000000000000000000000000000000000000002301201700000000            000000000000000                              000                           
0010001300369T 280180230000001544772 29577050023352969   7233363         23122016000000000007500001000000233363                   0900000000000000000000000000000000000000000000000000000   000000000000000000000005002        170192957705     
0010001300370U 280000000000000000000000000000000000000000000000000000000000000000000000000000000000000000000000000000000000000000000000002301201700000000            000000000000000                              000                           
0010001300371T 280180230000001544772 29577050023806224   7238428         23122016000000000007500001000000238428                   0900000000000000000000000000000000000000000000000000000   000000000000000000000005002        170192957705     
0010001300372U 280000000000000000000000000000000000000000000000000000000000000000000000000000000000000000000000000000000000000000000000002301201700000000            000000000000000                              000                           
0010001300373T 280180230000001544772 29577050024130810   7241754         23122016000000000007500001000000241754                   0900000000000000000000000000000000000000000000000000000   000000000000000000000005002        170192957705     
0010001300374U 280000000000000000000000000000000000000000000000000000000000000000000000000000000000000000000000000000000000000000000000002301201700000000            000000000000000                              000                           
0010001300375T 280180230000001544772 29577050024445437   7244223         23122016000000000007500001000000244223                   0900000000000000000000000000000000000000000000000000000   000000000000000000000005002        170192957705     
0010001300376U 280000000000000000000000000000000000000000000000000000000000000000000000000000000000000000000000000000000000000000000000002301201700000000            000000000000000                              000                           
0010001300377T 280180230000001544772 29577050024755389   7247974         23122016000000000007500001000000247974                   0900000000000000000000000000000000000000000000000000000   000000000000000000000005002        170192957705     
0010001300378U 280000000000000000000000000000000000000000000000000000000000000000000000000000000000000000000000000000000000000000000000002301201700000000            000000000000000                              000                           
0010001300379T 280180230000001544772 29577050026049311   7260213         23122016000000000007500001000000260213                   0900000000000000000000000000000000000000000000000000000   000000000000000000000005002        170192957705     
0010001300380U 280000000000000000000000000000000000000000000000000000000000000000000000000000000000000000000000000000000000000000000000002301201700000000            000000000000000                              000                           
0010001300381T 280180230000001544772 29577050026335306   7263465         23122016000000000007500001000000263465                   0900000000000000000000000000000000000000000000000000000   000000000000000000000005002        170192957705     
0010001300382U 280000000000000000000000000000000000000000000000000000000000000000000000000000000000000000000000000000000000000000000000002301201700000000            000000000000000                              000                           
0010001300383T 280180230000001544772 29577050026440978   7264160         23122016000000000007500001000000264160                   0900000000000000000000000000000000000000000000000000000   000000000000000000000005002        170192957705     
0010001300384U 280000000000000000000000000000000000000000000000000000000000000000000000000000000000000000000000000000000000000000000000002301201700000000            000000000000000                              000                           
0010001300385T 280180230000001544772 29577050026731341   7267130         23122016000000000007500001000000267130                   0900000000000000000000000000000000000000000000000000000   000000000000000000000005002        170192957705     
0010001300386U 280000000000000000000000000000000000000000000000000000000000000000000000000000000000000000000000000000000000000000000000002301201700000000            000000000000000                              000                           
0010001300387T 280180230000001544772 29577050026931394   7269223         23122016000000000007500001000000269223                   0900000000000000000000000000000000000000000000000000000   000000000000000000000005002        170192957705     
0010001300388U 280000000000000000000000000000000000000000000000000000000000000000000000000000000000000000000000000000000000000000000000002301201700000000            000000000000000                              000                           
0010001300389T 280180230000001544772 29577050027131749   7271930         23122016000000000010000001000000271930                   0900000000000000000000000000000000000000000000000000000   000000000000000000000005002        170192957705     
0010001300390U 280000000000000000000000000000000000000000000000000000000000000000000000000000000000000000000000000000000000000000000000002301201700000000            000000000000000                              000                           
0010001300391T 280180230000001544772 29577050027656384   7276468         23122016000000000007500001000000276468                   0900000000000000000000000000000000000000000000000000000   000000000000000000000005002        170192957705     
0010001300392U 280000000000000000000000000000000000000000000000000000000000000000000000000000000000000000000000000000000000000000000000002301201700000000            000000000000000                              000                           
0010001300393T 280180230000001544772 29577050027948865   7279006         24122016000000000007500001000000279006                   0900000000000000000000000000000000000000000000000000000   000000000000000000000005002        170192957705     
0010001300394U 280000000000000000000000000000000000000000000000000000000000000000000000000000000000000000000000000000000000000000000000002301201700000000            000000000000000                              000                           
0010001300395T 280180230000001544772 29577050028039965   7280358         24122016000000000007500001000000280358                   0900000000000000000000000000000000000000000000000000000   000000000000000000000005002        170192957705     
0010001300396U 280000000000000000000000000000000000000000000000000000000000000000000000000000000000000000000000000000000000000000000000002301201700000000            000000000000000                              000                           
0010001300397T 280180230000001544772 29577050028350178   7283775         24122016000000000007500001000000283775                   0900000000000000000000000000000000000000000000000000000   000000000000000000000005002        170192957705     
0010001300398U 280000000000000000000000000000000000000000000000000000000000000000000000000000000000000000000000000000000000000000000000002301201700000000            000000000000000                              000                           
0010001300399T 280180230000001544772 29577050028727571   7287502         24122016000000000010000001000000287502                   0900000000000000000000000000000000000000000000000000000   000000000000000000000005002        170192957705     
0010001300400U 280000000000000000000000000000000000000000000000000000000000000000000000000000000000000000000000000000000000000000000000002301201700000000            000000000000000                              000                           
0010001300401T 280180230000001544772 29577050029056302   7290999         24122016000000000010000001000000290999                   0900000000000000000000000000000000000000000000000000000   000000000000000000000005002        170192957705     
0010001300402U 280000000000000000000000000000000000000000000000000000000000000000000000000000000000000000000000000000000000000000000000002301201700000000            000000000000000                              000                           
0010001300403T 280180230000001544772 29577050029238075   7292183         24122016000000000007500001000000292183                   0900000000000000000000000000000000000000000000000000000   000000000000000000000005002        170192957705     
0010001300404U 280000000000000000000000000000000000000000000000000000000000000000000000000000000000000000000000000000000000000000000000002301201700000000            000000000000000                              000                           
0010001300405T 280180230000001544772 29577050029320674   7293450         24122016000000000007500001000000293450                   0900000000000000000000000000000000000000000000000000000   000000000000000000000005002        170192957705     
0010001300406U 280000000000000000000000000000000000000000000000000000000000000000000000000000000000000000000000000000000000000000000000002301201700000000            000000000000000                              000                           
0010001300407T 280180230000001544772 29577050029513396   7295615         24122016000000000007500001000000295615                   0900000000000000000000000000000000000000000000000000000   000000000000000000000005002        170192957705     
0010001300408U 280000000000000000000000000000000000000000000000000000000000000000000000000000000000000000000000000000000000000000000000002301201700000000            000000000000000                              000                           
0010001300409T 280180230000001544772 29577050029651338   7296377         24122016000000000010000001000000296377                   0900000000000000000000000000000000000000000000000000000   000000000000000000000005002        170192957705     
0010001300410U 280000000000000000000000000000000000000000000000000000000000000000000000000000000000000000000000000000000000000000000000002301201700000000            000000000000000                              000                           
0010001300411T 280180230000001544772 29577050029701036   7297084         24122016000000000007500001000000297084                   0900000000000000000000000000000000000000000000000000000   000000000000000000000005002        170192957705     
0010001300412U 280000000000000000000000000000000000000000000000000000000000000000000000000000000000000000000000000000000000000000000000002301201700000000            000000000000000                              000                           
