00100000         2247745860001000029577050014       0180230000001544772 INSTITUTO DE SELECAO E TECNOLOBANCO DO BRASIL                         23101201701340200007403000000515122941PROCESSAMEN                                                 
00100011T0100020 20247745860001000029577050014       0180230000001544772 INSTITUTO DE SELECAO E TECNOLO                                                                                000000003101201700000000  000000000                      
0010001300001T 020180230000001544772 29577050008452849   788888888888889902022017000000000007500001012416888888888888899          0900000000000010000000000000000000000000000000000000000   0000000000000000000000000A9        170192957705     
0010001300002U 020000000000000000000000000000000000000000000000000000000000000000000000000000000000000000000000000000000000000000000000003101201700000000            000000000000000                              000                           
0010001300003T 020180230000001544772 29577050012939611   788888888888889902022017000000000007500001046280888888888888899          0900000000000010000000000000000000000000000000000000000   0000000000000000000000000A9        170192957705     
0010001300004U 020000000000000000000000000000000000000000000000000000000000000000000000000000000000000000000000000000000000000000000000003101201700000000            000000000000000                              000                           
0010001300005T 020180230000001544772 29577050045044674   788888888888889902022017000000000007500001012408888888888888899          0900000000000010000000000000000000000000000000000000000   0000000000000000000000000A9        170192957705     
0010001300006U 020000000000000000000000000000000000000000000000000000000000000000000000000000000000000000000000000000000000000000000000003101201700000000            000000000000000                              000                           
0010001300007T 020180230000001544772 29577050053708750   788888888888889902022017000000000007500001012416888888888888899          0900000000000010000000000000000000000000000000000000000   0000000000000000000000000A9        170192957705     
0010001300008U 020000000000000000000000000000000000000000000000000000000000000000000000000000000000000000000000000000000000000000000000003101201700000000            000000000000000                              000                           
0010001300009T 020180230000001544772 29577050095123546   788888888888889902022017000000000007500001012408888888888888899          0900000000000010000000000000000000000000000000000000000   0000000000000000000000000A9        170192957705     
0010001300010U 020000000000000000000000000000000000000000000000000000000000000000000000000000000000000000000000000000000000000000000000003101201700000000            000000000000000                              000                           
0010001300011T 020180230000001544772 29577050099150371   788888888888889902022017000000000007500001000213888888888888899          0900000000000010000000000000000000000000000000000000000   0000000000000000000000000A9        170192957705     
0010001300012U 020000000000000000000000000000000000000000000000000000000000000000000000000000000000000000000000000000000000000000000000003101201700000000            000000000000000                              000                           
0010001300013T 020180230000001544772 29577050099427362   78888888888888990202201700000000000750000103049X888888888888899          0900000000000010000000000000000000000000000000000000000   0000000000000000000000000A9        170192957705     
0010001300014U 020000000000000000000000000000000000000000000000000000000000000000000000000000000000000000000000000000000000000000000000003101201700000000            000000000000000                              000                           
0010001300015T 020180230000001544772 29577050135748335   788888888888889902022017000000000007500001012408888888888888899          0900000000000010000000000000000000000000000000000000000   0000000000000000000000000A9        170192957705     
0010001300016U 020000000000000000000000000000000000000000000000000000000000000000000000000000000000000000000000000000000000000000000000003101201700000000            000000000000000                              000                           
0010001300017T 020180230000001544772 29577050135854753   788888888888889902022017000000000007500001012408888888888888899          0900000000000010000000000000000000000000000000000000000   0000000000000000000000000A9        170192957705     
0010001300018U 020000000000000000000000000000000000000000000000000000000000000000000000000000000000000000000000000000000000000000000000003101201700000000            000000000000000                              000                           
0010001300019T 020180230000001544772 29577050146331959   788888888888889902022017000000000007500001000213888888888888899          0900000000000010500000000000000000000000000000000000000   0000000000000000000000000A9A4      170192957705     
0010001300020U 020000000000000000000000000000000000000000000000000000000000000000000000000000000000000000000000000000000000000000000000003101201700000000            000000000000000                              000                           
0010001300021T 020180230000001544772 29577050151134769   788888888888889902022017000000000007500001000213888888888888899          0900000000000010000000000000000000000000000000000000000   0000000000000000000000000A9        170192957705     
0010001300022U 020000000000000000000000000000000000000000000000000000000000000000000000000000000000000000000000000000000000000000000000003101201700000000            000000000000000                              000                           
0010001300023T 020180230000001544772 29577050174523506   788888888888889902022017000000000007500001000213888888888888899          0900000000000010000000000000000000000000000000000000000   0000000000000000000000000A9        170192957705     
0010001300024U 020000000000000000000000000000000000000000000000000000000000000000000000000000000000000000000000000000000000000000000000003101201700000000            000000000000000                              000                           
0010001300025T 020180230000001544772 29577050211904928   788888888888889902022017000000000007500001012408888888888888899          0900000000000010000000000000000000000000000000000000000   0000000000000000000000000A9        170192957705     
0010001300026U 020000000000000000000000000000000000000000000000000000000000000000000000000000000000000000000000000000000000000000000000003101201700000000            000000000000000                              000                           
0010001300027T 020180230000001544772 29577050226454753   788888888888889902022017000000000007500001000213888888888888899          0900000000000010000000000000000000000000000000000000000   0000000000000000000000000A9        170192957705     
0010001300028U 020000000000000000000000000000000000000000000000000000000000000000000000000000000000000000000000000000000000000000000000003101201700000000            000000000000000                              000                           
0010001300029T 020180230000001544772 29577050236851215   788888888888889902022017000000000007500001012416888888888888899          0900000000000010000000000000000000000000000000000000000   0000000000000000000000000A9        170192957705     
0010001300030U 020000000000000000000000000000000000000000000000000000000000000000000000000000000000000000000000000000000000000000000000003101201700000000            000000000000000                              000                           
0010001300031T 020180230000001544772 29577050237516545   788888888888889902022017000000000007500001012416888888888888899          0900000000000010000000000000000000000000000000000000000   0000000000000000000000000A9        170192957705     
0010001300032U 020000000000000000000000000000000000000000000000000000000000000000000000000000000000000000000000000000000000000000000000003101201700000000            000000000000000                              000                           
0010001300033T 020180230000001544772 29577050250111302   788888888888889902022017000000000007500001012408888888888888899          0900000000000010000000000000000000000000000000000000000   0000000000000000000000000A9        170192957705     
0010001300034U 020000000000000000000000000000000000000000000000000000000000000000000000000000000000000000000000000000000000000000000000003101201700000000            000000000000000                              000                           
0010001300035T 020180230000001544772 29577050257247398   788888888888889902022017000000000007500001001120888888888888899          0900000000000010000000000000000000000000000000000000000   0000000000000000000000000A9        170192957705     
0010001300036U 020000000000000000000000000000000000000000000000000000000000000000000000000000000000000000000000000000000000000000000000003101201700000000            000000000000000                              000                           
0010001300037T 020180230000001544772 29577050258214244   78888888888888990202201700000000000750000103049X888888888888899          0900000000000010500000000000000000000000000000000000000   0000000000000000000000000A9A4      170192957705     
0010001300038U 020000000000000000000000000000000000000000000000000000000000000000000000000000000000000000000000000000000000000000000000003101201700000000            000000000000000                              000                           
0010001300039T 020180230000001544772 29577050262203387   78888888888888990202201700000000000750000103049X888888888888899          0900000000000010000000000000000000000000000000000000000   0000000000000000000000000A9        170192957705     
0010001300040U 020000000000000000000000000000000000000000000000000000000000000000000000000000000000000000000000000000000000000000000000003101201700000000            000000000000000                              000                           
0010001300041T 020180230000001544772 29577050262247030   78888888888888990202201700000000000750000103049X888888888888899          0900000000000010000000000000000000000000000000000000000   0000000000000000000000000A9        170192957705     
0010001300042U 020000000000000000000000000000000000000000000000000000000000000000000000000000000000000000000000000000000000000000000000003101201700000000            000000000000000                              000                           
0010001300043T 020180230000001544772 29577050269413401   788888888888889902022017000000000007500001000213888888888888899          0900000000000010000000000000000000000000000000000000000   0000000000000000000000000A9        170192957705     
0010001300044U 020000000000000000000000000000000000000000000000000000000000000000000000000000000000000000000000000000000000000000000000003101201700000000            000000000000000                              000                           
0010001300045T 020180230000001544772 29577050275908281   788888888888889902022017000000000007500001014389888888888888899          0900000000000010000000000000000000000000000000000000000   0000000000000000000000000A9        170192957705     
0010001300046U 020000000000000000000000000000000000000000000000000000000000000000000000000000000000000000000000000000000000000000000000003101201700000000            000000000000000                              000                           
0010001300047T 020180230000001544772 29577050289344466   788888888888889902022017000000000007500001014389888888888888899          0900000000000010000000000000000000000000000000000000000   0000000000000000000000000A9        170192957705     
0010001300048U 020000000000000000000000000000000000000000000000000000000000000000000000000000000000000000000000000000000000000000000000003101201700000000            000000000000000                              000                           
0010001300049T 020180230000001544772 29577050290053330   788888888888889902022017000000000007500001012408888888888888899          0900000000000010000000000000000000000000000000000000000   0000000000000000000000000A9        170192957705     
0010001300050U 020000000000000000000000000000000000000000000000000000000000000000000000000000000000000000000000000000000000000000000000003101201700000000            000000000000000                              000                           
0010001300051T 020180230000001544772 29577050293136865   78888888888888990202201700000000000750000103049X888888888888899          0900000000000010000000000000000000000000000000000000000   0000000000000000000000000A9        170192957705     
0010001300052U 020000000000000000000000000000000000000000000000000000000000000000000000000000000000000000000000000000000000000000000000003101201700000000            000000000000000                              000                           
0010001300053T 020180230000001544772 29577050294628745   788888888888889902022017000000000007500001012416888888888888899          0900000000000010500000000000000000000000000000000000000   0000000000000000000000000A9A4      170192957705     
0010001300054U 020000000000000000000000000000000000000000000000000000000000000000000000000000000000000000000000000000000000000000000000003101201700000000            000000000000000                              000                           
0010001300055T 020180230000001544772 29577050296009144   788888888888889902022017000000000007500001000833888888888888899          0900000000000010000000000000000000000000000000000000000   0000000000000000000000000A9        170192957705     
0010001300056U 020000000000000000000000000000000000000000000000000000000000000000000000000000000000000000000000000000000000000000000000003101201700000000            000000000000000                              000                           
0010001300057T 020180230000001544772 29577050315346171   788888888888889902022017000000000007500001012408888888888888899          0900000000000010000000000000000000000000000000000000000   0000000000000000000000000A9        170192957705     
0010001300058U 020000000000000000000000000000000000000000000000000000000000000000000000000000000000000000000000000000000000000000000000003101201700000000            000000000000000                              000                           
0010001300059T 020180230000001544772 29577050319430801   78888888888888990202201700000000000750000103049X888888888888899          0900000000000010000000000000000000000000000000000000000   0000000000000000000000000A9        170192957705     
0010001300060U 020000000000000000000000000000000000000000000000000000000000000000000000000000000000000000000000000000000000000000000000003101201700000000            000000000000000                              000                           
0010001300061T 020180230000001544772 29577050323207993   78888888888888990202201700000000000750000103049X888888888888899          0900000000000010000000000000000000000000000000000000000   0000000000000000000000000A9        170192957705     
0010001300062U 020000000000000000000000000000000000000000000000000000000000000000000000000000000000000000000000000000000000000000000000003101201700000000            000000000000000                              000                           
0010001300063T 020180230000001544772 29577050325052092   78888888888888990202201700000000000750000103049X888888888888899          0900000000000010000000000000000000000000000000000000000   0000000000000000000000000A9        170192957705     
0010001300064U 020000000000000000000000000000000000000000000000000000000000000000000000000000000000000000000000000000000000000000000000003101201700000000            000000000000000                              000                           
0010001300065T 020180230000001544772 29577050327248526   788888888888889902022017000000000007500001012408888888888888899          0900000000000010000000000000000000000000000000000000000   0000000000000000000000000A9        170192957705     
0010001300066U 020000000000000000000000000000000000000000000000000000000000000000000000000000000000000000000000000000000000000000000000003101201700000000            000000000000000                              000                           
0010001300067T 020180230000001544772 29577050329646050   788888888888889902022017000000000007500001000213888888888888899          0900000000000010000000000000000000000000000000000000000   0000000000000000000000000A9        170192957705     
0010001300068U 020000000000000000000000000000000000000000000000000000000000000000000000000000000000000000000000000000000000000000000000003101201700000000            000000000000000                              000                           
0010001300069T 020180230000001544772 29577050333351772   788888888888889902022017000000000007500001012408888888888888899          0900000000000010000000000000000000000000000000000000000   0000000000000000000000000A9        170192957705     
0010001300070U 020000000000000000000000000000000000000000000000000000000000000000000000000000000000000000000000000000000000000000000000003101201700000000            000000000000000                              000                           
0010001300071T 020180230000001544772 29577050333715420   788888888888889902022017000000000007500001000213888888888888899          0900000000000010000000000000000000000000000000000000000   0000000000000000000000000A9        170192957705     
0010001300072U 020000000000000000000000000000000000000000000000000000000000000000000000000000000000000000000000000000000000000000000000003101201700000000            000000000000000                              000                           
0010001300073T 020180230000001544772 29577050337002668   788888888888889902022017000000000007500001000213888888888888899          0900000000000010000000000000000000000000000000000000000   0000000000000000000000000A9        170192957705     
0010001300074U 020000000000000000000000000000000000000000000000000000000000000000000000000000000000000000000000000000000000000000000000003101201700000000            000000000000000                              000                           
0010001300075T 020180230000001544772 29577050338046183   788888888888889902022017000000000007500001012416888888888888899          0900000000000010000000000000000000000000000000000000000   0000000000000000000000000A9        170192957705     
0010001300076U 020000000000000000000000000000000000000000000000000000000000000000000000000000000000000000000000000000000000000000000000003101201700000000            000000000000000                              000                           
0010001300077T 020180230000001544772 29577050338058441   788888888888889902022017000000000007500001012416888888888888899          0900000000000010000000000000000000000000000000000000000   0000000000000000000000000A9        170192957705     
0010001300078U 020000000000000000000000000000000000000000000000000000000000000000000000000000000000000000000000000000000000000000000000003101201700000000            000000000000000                              000                           
0010001300079T 020180230000001544772 29577050339029682   78888888888888990202201700000000000750000103049X888888888888899          0900000000000010000000000000000000000000000000000000000   0000000000000000000000000A9        170192957705     
0010001300080U 020000000000000000000000000000000000000000000000000000000000000000000000000000000000000000000000000000000000000000000000003101201700000000            000000000000000                              000                           
0010001300081T 020180230000001544772 29577050339131883   788888888888889902022017000000000007500001012416888888888888899          0900000000000010000000000000000000000000000000000000000   0000000000000000000000000A9        170192957705     
0010001300082U 020000000000000000000000000000000000000000000000000000000000000000000000000000000000000000000000000000000000000000000000003101201700000000            000000000000000                              000                           
0010001300083T 020180230000001544772 29577050339252022   788888888888889902022017000000000007500001012408888888888888899          0900000000000010000000000000000000000000000000000000000   0000000000000000000000000A9        170192957705     
0010001300084U 020000000000000000000000000000000000000000000000000000000000000000000000000000000000000000000000000000000000000000000000003101201700000000            000000000000000                              000                           
0010001300085T 020180230000001544772 29577050339253463   788888888888889902022017000000000007500001012408888888888888899          0900000000000010000000000000000000000000000000000000000   0000000000000000000000000A9        170192957705     
0010001300086U 020000000000000000000000000000000000000000000000000000000000000000000000000000000000000000000000000000000000000000000000003101201700000000            000000000000000                              000                           
0010001300087T 020180230000001544772 29577050339342876   78888888888888990202201700000000000750000103049X888888888888899          0900000000000010500000000000000000000000000000000000000   0000000000000000000000000A9A4      170192957705     
0010001300088U 020000000000000000000000000000000000000000000000000000000000000000000000000000000000000000000000000000000000000000000000003101201700000000            000000000000000                              000                           
0010001300089T 020180230000001544772 29577050339402577   788888888888889902022017000000000007500001000213888888888888899          0900000000000010000000000000000000000000000000000000000   0000000000000000000000000A9        170192957705     
0010001300090U 020000000000000000000000000000000000000000000000000000000000000000000000000000000000000000000000000000000000000000000000003101201700000000            000000000000000                              000                           
0010001300091T 020180230000001544772 29577050339528193   78888888888888990202201700000000000750000103049X888888888888899          0900000000000010500000000000000000000000000000000000000   0000000000000000000000000A9A4      170192957705     
0010001300092U 020000000000000000000000000000000000000000000000000000000000000000000000000000000000000000000000000000000000000000000000003101201700000000            000000000000000                              000                           
0010001300093T 020180230000001544772 29577050339625955   78888888888888990202201700000000000750000103049X888888888888899          0900000000000010500000000000000000000000000000000000000   0000000000000000000000000A9A4      170192957705     
0010001300094U 020000000000000000000000000000000000000000000000000000000000000000000000000000000000000000000000000000000000000000000000003101201700000000            000000000000000                              000                           
0010001300095T 020180230000001544772 29577050339735162   788888888888889902022017000000000010000001000213888888888888899          0900000000000010000000000000000000000000000000000000000   0000000000000000000000000A9        170192957705     
0010001300096U 020000000000000000000000000000000000000000000000000000000000000000000000000000000000000000000000000000000000000000000000003101201700000000            000000000000000                              000                           
0010001300097T 020180230000001544772 29577050339803361   78888888888888990202201700000000000750000100829X888888888888899          0900000000000010000000000000000000000000000000000000000   0000000000000000000000000A9        170192957705     
0010001300098U 020000000000000000000000000000000000000000000000000000000000000000000000000000000000000000000000000000000000000000000000003101201700000000            000000000000000                              000                           
0010001300099T 020180230000001544772 29577050339929618   788888888888889902022017000000000007500001012408888888888888899          0900000000000010000000000000000000000000000000000000000   0000000000000000000000000A9        170192957705     
0010001300100U 020000000000000000000000000000000000000000000000000000000000000000000000000000000000000000000000000000000000000000000000003101201700000000            000000000000000                              000                           
0010001300101T 020180230000001544772 29577050340015972   788888888888889902022017000000000007500001012408888888888888899          0900000000000010000000000000000000000000000000000000000   0000000000000000000000000A9        170192957705     
0010001300102U 020000000000000000000000000000000000000000000000000000000000000000000000000000000000000000000000000000000000000000000000003101201700000000            000000000000000                              000                           
0010001300103T 020180230000001544772 29577050340120374   788888888888889902022017000000000007500001012416888888888888899          0900000000000010500000000000000000000000000000000000000   0000000000000000000000000A9A4      170192957705     
0010001300104U 020000000000000000000000000000000000000000000000000000000000000000000000000000000000000000000000000000000000000000000000003101201700000000            000000000000000                              000                           
0010001300105T 020180230000001544772 29577050340334790   788888888888889902022017000000000007500001012416888888888888899          0900000000000010000000000000000000000000000000000000000   0000000000000000000000000A9        170192957705     
0010001300106U 020000000000000000000000000000000000000000000000000000000000000000000000000000000000000000000000000000000000000000000000003101201700000000            000000000000000                              000                           
0010001300107T 020180230000001544772 29577050340421290   78888888888888990202201700000000000750000103049X888888888888899          0900000000000010000000000000000000000000000000000000000   0000000000000000000000000A9        170192957705     
0010001300108U 020000000000000000000000000000000000000000000000000000000000000000000000000000000000000000000000000000000000000000000000003101201700000000            000000000000000                              000                           
0010001300109T 020180230000001544772 29577050340530559   788888888888889902022017000000000007500001012408888888888888899          0900000000000010000000000000000000000000000000000000000   0000000000000000000000000A9        170192957705     
0010001300110U 020000000000000000000000000000000000000000000000000000000000000000000000000000000000000000000000000000000000000000000000003101201700000000            000000000000000                              000                           
0010001300111T 020180230000001544772 29577050340657473   788888888888889902022017000000000007500001012416888888888888899          0900000000000010000000000000000000000000000000000000000   0000000000000000000000000A9        170192957705     
0010001300112U 020000000000000000000000000000000000000000000000000000000000000000000000000000000000000000000000000000000000000000000000003101201700000000            000000000000000                              000                           
0010001300113T 020180230000001544772 29577050340714706   788888888888889902022017000000000007500001000213888888888888899          0900000000000010000000000000000000000000000000000000000   0000000000000000000000000A9        170192957705     
0010001300114U 020000000000000000000000000000000000000000000000000000000000000000000000000000000000000000000000000000000000000000000000003101201700000000            000000000000000                              000                           
0010001300115T 020180230000001544772 29577050340807588   78888888888888990202201700000000000750000103049X888888888888899          0900000000000010000000000000000000000000000000000000000   0000000000000000000000000A9        170192957705     
0010001300116U 020000000000000000000000000000000000000000000000000000000000000000000000000000000000000000000000000000000000000000000000003101201700000000            000000000000000                              000                           
0010001300117T 020180230000001544772 29577050340901658   788888888888889902022017000000000007500001000213888888888888899          0900000000000010000000000000000000000000000000000000000   0000000000000000000000000A9        170192957705     
0010001300118U 020000000000000000000000000000000000000000000000000000000000000000000000000000000000000000000000000000000000000000000000003101201700000000            000000000000000                              000                           
0010001300119T 020180230000001544772 29577050341059549   788888888888889902022017000000000007500001012408888888888888899          0900000000000010000000000000000000000000000000000000000   0000000000000000000000000A9        170192957705     
0010001300120U 020000000000000000000000000000000000000000000000000000000000000000000000000000000000000000000000000000000000000000000000003101201700000000            000000000000000                              000                           
0010001300121T 020180230000001544772 29577050341101974   788888888888889902022017000000000007500001000213888888888888899          0900000000000010000000000000000000000000000000000000000   0000000000000000000000000A9        170192957705     
0010001300122U 020000000000000000000000000000000000000000000000000000000000000000000000000000000000000000000000000000000000000000000000003101201700000000            000000000000000                              000                           
0010001300123T 020180230000001544772 29577050341233638   788888888888889902022017000000000007500001000833888888888888899          0900000000000010000000000000000000000000000000000000000   0000000000000000000000000A9        170192957705     
0010001300124U 020000000000000000000000000000000000000000000000000000000000000000000000000000000000000000000000000000000000000000000000003101201700000000            000000000000000                              000                           
0010001300125T 020180230000001544772 29577050341311395   788888888888889902022017000000000007500001000213888888888888899          0900000000000010000000000000000000000000000000000000000   0000000000000000000000000A9        170192957705     
0010001300126U 020000000000000000000000000000000000000000000000000000000000000000000000000000000000000000000000000000000000000000000000003101201700000000            000000000000000                              000                           
0010001300127T 020180230000001544772 29577050341522805   78888888888888990202201700000000000750000103049X888888888888899          0900000000000010000000000000000000000000000000000000000   0000000000000000000000000A9        170192957705     
0010001300128U 020000000000000000000000000000000000000000000000000000000000000000000000000000000000000000000000000000000000000000000000003101201700000000            000000000000000                              000                           
0010001300129T 020180230000001544772 29577050341758316   788888888888889902022017000000000007500001000213888888888888899          0900000000000010000000000000000000000000000000000000000   0000000000000000000000000A9        170192957705     
0010001300130U 020000000000000000000000000000000000000000000000000000000000000000000000000000000000000000000000000000000000000000000000003101201700000000            000000000000000                              000                           
0010001300131T 020180230000001544772 29577050341811017   788888888888889902022017000000000007500001000213888888888888899          0900000000000010000000000000000000000000000000000000000   0000000000000000000000000A9        170192957705     
0010001300132U 020000000000000000000000000000000000000000000000000000000000000000000000000000000000000000000000000000000000000000000000003101201700000000            000000000000000                              000                           
0010001300133T 020180230000001544772 29577050341951442   788888888888889902022017000000000010000001001120888888888888899          0900000000000010000000000000000000000000000000000000000   0000000000000000000000000A9        170192957705     
0010001300134U 020000000000000000000000000000000000000000000000000000000000000000000000000000000000000000000000000000000000000000000000003101201700000000            000000000000000                              000                           
0010001300135T 020180230000001544772 29577050342032066   788888888888889902022017000000000007500001012408888888888888899          0900000000000010000000000000000000000000000000000000000   0000000000000000000000000A9        170192957705     
0010001300136U 020000000000000000000000000000000000000000000000000000000000000000000000000000000000000000000000000000000000000000000000003101201700000000            000000000000000                              000                           
0010001300137T 020180230000001544772 29577050342141566   78888888888888990202201700000000000750000103049X888888888888899          0900000000000010000000000000000000000000000000000000000   0000000000000000000000000A9        170192957705     
0010001300138U 020000000000000000000000000000000000000000000000000000000000000000000000000000000000000000000000000000000000000000000000003101201700000000            000000000000000                              000                           
0010001300139T 020180230000001544772 29577050342408270   788888888888889902022017000000000007500001000213888888888888899          0900000000000010000000000000000000000000000000000000000   0000000000000000000000000A9        170192957705     
0010001300140U 020000000000000000000000000000000000000000000000000000000000000000000000000000000000000000000000000000000000000000000000003101201700000000            000000000000000                              000                           
0010001300141T 020180230000001544772 29577050342555335   788888888888889902022017000000000007500001012416888888888888899          0900000000000010000000000000000000000000000000000000000   0000000000000000000000000A9        170192957705     
0010001300142U 020000000000000000000000000000000000000000000000000000000000000000000000000000000000000000000000000000000000000000000000003101201700000000            000000000000000                              000                           
0010001300143T 020180230000001544772 29577050342708246   788888888888889902022017000000000007500001012416888888888888899          0900000000000010000000000000000000000000000000000000000   0000000000000000000000000A9        170192957705     
0010001300144U 020000000000000000000000000000000000000000000000000000000000000000000000000000000000000000000000000000000000000000000000003101201700000000            000000000000000                              000                           
0010001300145T 020180230000001544772 29577050342815778   78888888888888990202201700000000000750000103049X888888888888899          0900000000000010000000000000000000000000000000000000000   0000000000000000000000000A9        170192957705     
0010001300146U 020000000000000000000000000000000000000000000000000000000000000000000000000000000000000000000000000000000000000000000000003101201700000000            000000000000000                              000                           
0010001300147T 020180230000001544772 29577050342924045   788888888888889902022017000000000010000001034770888888888888899          0900000000000010500000000000000000000000000000000000000   0000000000000000000000000A9A4      170192957705     
0010001300148U 020000000000000000000000000000000000000000000000000000000000000000000000000000000000000000000000000000000000000000000000003101201700000000            000000000000000                              000                           
0010001300149T 020180230000001544772 29577050343058918   788888888888889902022017000000000007500001002860888888888888899          0900000000000010500000000000000000000000000000000000000   0000000000000000000000000A9A4      170192957705     
0010001300150U 020000000000000000000000000000000000000000000000000000000000000000000000000000000000000000000000000000000000000000000000003101201700000000            000000000000000                              000                           
0010001300151T 020180230000001544772 29577050343135625   788888888888889902022017000000000007500001012416888888888888899          0900000000000010000000000000000000000000000000000000000   0000000000000000000000000A9        170192957705     
0010001300152U 020000000000000000000000000000000000000000000000000000000000000000000000000000000000000000000000000000000000000000000000003101201700000000            000000000000000                              000                           
0010001300153T 020180230000001544772 29577050343202210   788888888888889902022017000000000007500001012416888888888888899          0900000000000010000000000000000000000000000000000000000   0000000000000000000000000A9        170192957705     
0010001300154U 020000000000000000000000000000000000000000000000000000000000000000000000000000000000000000000000000000000000000000000000003101201700000000            000000000000000                              000                           
0010001300155T 020180230000001544772 29577050343315551   788888888888889902022017000000000007500001030864888888888888899          0900000000000010000000000000000000000000000000000000000   0000000000000000000000000A9        170192957705     
0010001300156U 020000000000000000000000000000000000000000000000000000000000000000000000000000000000000000000000000000000000000000000000003101201700000000            000000000000000                              000                           
0010001300157T 020180230000001544772 29577050343440802   788888888888889902022017000000000007500001000213888888888888899          0900000000000010000000000000000000000000000000000000000   0000000000000000000000000A9        170192957705     
0010001300158U 020000000000000000000000000000000000000000000000000000000000000000000000000000000000000000000000000000000000000000000000003101201700000000            000000000000000                              000                           
0010001300159T 020180230000001544772 29577050343549754   788888888888889902022017000000000007500001000213888888888888899          0900000000000010000000000000000000000000000000000000000   0000000000000000000000000A9        170192957705     
0010001300160U 020000000000000000000000000000000000000000000000000000000000000000000000000000000000000000000000000000000000000000000000003101201700000000            000000000000000                              000                           
0010001300161T 020180230000001544772 29577050343655193   78888888888888990202201700000000000750000100751X888888888888899          0900000000000010500000000000000000000000000000000000000   0000000000000000000000000A9A4      170192957705     
0010001300162U 020000000000000000000000000000000000000000000000000000000000000000000000000000000000000000000000000000000000000000000000003101201700000000            000000000000000                              000                           
0010001300163T 020180230000001544772 29577050343707934   788888888888889902022017000000000007500001000213888888888888899          0900000000000010000000000000000000000000000000000000000   0000000000000000000000000A9        170192957705     
0010001300164U 020000000000000000000000000000000000000000000000000000000000000000000000000000000000000000000000000000000000000000000000003101201700000000            000000000000000                              000                           
0010001300165T 020180230000001544772 29577050343925046   788888888888889902022017000000000007500001000213888888888888899          0900000000000010000000000000000000000000000000000000000   0000000000000000000000000A9        170192957705     
0010001300166U 020000000000000000000000000000000000000000000000000000000000000000000000000000000000000000000000000000000000000000000000003101201700000000            000000000000000                              000                           
0010001300167T 020180230000001544772 29577050344007006   788888888888889902022017000000000007500001000213888888888888899          0900000000000010000000000000000000000000000000000000000   0000000000000000000000000A9        170192957705     
0010001300168U 020000000000000000000000000000000000000000000000000000000000000000000000000000000000000000000000000000000000000000000000003101201700000000            000000000000000                              000                           
0010001300169T 020180230000001544772 29577050344137483   788888888888889902022017000000000007500001012408888888888888899          0900000000000010000000000000000000000000000000000000000   0000000000000000000000000A9        170192957705     
0010001300170U 020000000000000000000000000000000000000000000000000000000000000000000000000000000000000000000000000000000000000000000000003101201700000000            000000000000000                              000                           
0010001300171T 020180230000001544772 29577050344237306   788888888888889902022017000000000007500001012408888888888888899          0900000000000010000000000000000000000000000000000000000   0000000000000000000000000A9        170192957705     
0010001300172U 020000000000000000000000000000000000000000000000000000000000000000000000000000000000000000000000000000000000000000000000003101201700000000            000000000000000                              000                           
0010001300173T 020180230000001544772 29577050344448313   788888888888889902022017000000000007500001012408888888888888899          0900000000000010000000000000000000000000000000000000000   0000000000000000000000000A9        170192957705     
0010001300174U 020000000000000000000000000000000000000000000000000000000000000000000000000000000000000000000000000000000000000000000000003101201700000000            000000000000000                              000                           
0010001300175T 020180230000001544772 29577050344537126   788888888888889902022017000000000007500001012408888888888888899          0900000000000010000000000000000000000000000000000000000   0000000000000000000000000A9        170192957705     
0010001300176U 020000000000000000000000000000000000000000000000000000000000000000000000000000000000000000000000000000000000000000000000003101201700000000            000000000000000                              000                           
0010001300177T 020180230000001544772 29577050344651670   78888888888888990202201700000000000750000103049X888888888888899          0900000000000010000000000000000000000000000000000000000   0000000000000000000000000A9        170192957705     
0010001300178U 020000000000000000000000000000000000000000000000000000000000000000000000000000000000000000000000000000000000000000000000003101201700000000            000000000000000                              000                           
0010001300179T 020180230000001544772 29577050344757671   788888888888889902022017000000000007500001009245888888888888899          0900000000000010000000000000000000000000000000000000000   0000000000000000000000000A9        170192957705     
0010001300180U 020000000000000000000000000000000000000000000000000000000000000000000000000000000000000000000000000000000000000000000000003101201700000000            000000000000000                              000                           
0010001300181T 020180230000001544772 29577050344831611   78888888888888990202201700000000000750000103049X888888888888899          0900000000000010000000000000000000000000000000000000000   0000000000000000000000000A9        170192957705     
0010001300182U 020000000000000000000000000000000000000000000000000000000000000000000000000000000000000000000000000000000000000000000000003101201700000000            000000000000000                              000                           
0010001300183T 020180230000001544772 29577050344853517   78888888888888990202201700000000000750000103049X888888888888899          0900000000000010000000000000000000000000000000000000000   0000000000000000000000000A9        170192957705     
0010001300184U 020000000000000000000000000000000000000000000000000000000000000000000000000000000000000000000000000000000000000000000000003101201700000000            000000000000000                              000                           
0010001300185T 020180230000001544772 29577050344932625   788888888888889902022017000000000007500001012408888888888888899          0900000000000010000000000000000000000000000000000000000   0000000000000000000000000A9        170192957705     
0010001300186U 020000000000000000000000000000000000000000000000000000000000000000000000000000000000000000000000000000000000000000000000003101201700000000            000000000000000                              000                           
0010001300187T 020180230000001544772 29577050345005112   788888888888889902022017000000000007500001012416888888888888899          0900000000000010000000000000000000000000000000000000000   0000000000000000000000000A9        170192957705     
0010001300188U 020000000000000000000000000000000000000000000000000000000000000000000000000000000000000000000000000000000000000000000000003101201700000000            000000000000000                              000                           
0010001300189T 020180230000001544772 29577050345116225   788888888888889902022017000000000007500001012408888888888888899          0900000000000010000000000000000000000000000000000000000   0000000000000000000000000A9        170192957705     
0010001300190U 020000000000000000000000000000000000000000000000000000000000000000000000000000000000000000000000000000000000000000000000003101201700000000            000000000000000                              000                           
0010001300191T 020180230000001544772 29577050345414460   788888888888889902022017000000000007500001000213888888888888899          0900000000000010000000000000000000000000000000000000000   0000000000000000000000000A9        170192957705     
0010001300192U 020000000000000000000000000000000000000000000000000000000000000000000000000000000000000000000000000000000000000000000000003101201700000000            000000000000000                              000                           
0010001300193T 020180230000001544772 29577050345517941   78888888888888990202201700000000000750000103049X888888888888899          0900000000000010500000000000000000000000000000000000000   0000000000000000000000000A9A4      170192957705     
0010001300194U 020000000000000000000000000000000000000000000000000000000000000000000000000000000000000000000000000000000000000000000000003101201700000000            000000000000000                              000                           
0010001300195T 020180230000001544772 29577050345611446   788888888888889902022017000000000007500001000213888888888888899          0900000000000010000000000000000000000000000000000000000   0000000000000000000000000A9        170192957705     
0010001300196U 020000000000000000000000000000000000000000000000000000000000000000000000000000000000000000000000000000000000000000000000003101201700000000            000000000000000                              000                           
0010001300197T 020180230000001544772 29577050345719075   788888888888889902022017000000000007500001046280888888888888899          0900000000000010000000000000000000000000000000000000000   0000000000000000000000000A9        170192957705     
0010001300198U 020000000000000000000000000000000000000000000000000000000000000000000000000000000000000000000000000000000000000000000000003101201700000000            000000000000000                              000                           
0010001300199T 020180230000001544772 29577050345835464   788888888888889902022017000000000007500001030864888888888888899          0900000000000010500000000000000000000000000000000000000   0000000000000000000000000A9A4      170192957705     
0010001300200U 020000000000000000000000000000000000000000000000000000000000000000000000000000000000000000000000000000000000000000000000003101201700000000            000000000000000                              000                           
0010001300201T 020180230000001544772 29577050345955145   788888888888889902022017000000000007500001000213888888888888899          0900000000000010000000000000000000000000000000000000000   0000000000000000000000000A9        170192957705     
0010001300202U 020000000000000000000000000000000000000000000000000000000000000000000000000000000000000000000000000000000000000000000000003101201700000000            000000000000000                              000                           
0010001300203T 020180230000001544772 29577050346002804   788888888888889902022017000000000007500001012408888888888888899          0900000000000010000000000000000000000000000000000000000   0000000000000000000000000A9        170192957705     
0010001300204U 020000000000000000000000000000000000000000000000000000000000000000000000000000000000000000000000000000000000000000000000003101201700000000            000000000000000                              000                           
0010001300205T 020180230000001544772 29577050346318814   788888888888889902022017000000000007500001000213888888888888899          0900000000000010000000000000000000000000000000000000000   0000000000000000000000000A9        170192957705     
0010001300206U 020000000000000000000000000000000000000000000000000000000000000000000000000000000000000000000000000000000000000000000000003101201700000000            000000000000000                              000                           
0010001300207T 020180230000001544772 29577050346459001   788888888888889902022017000000000007500001012408888888888888899          0900000000000010000000000000000000000000000000000000000   0000000000000000000000000A9        170192957705     
0010001300208U 020000000000000000000000000000000000000000000000000000000000000000000000000000000000000000000000000000000000000000000000003101201700000000            000000000000000                              000                           
0010001300209T 020180230000001544772 29577050346531986   788888888888889902022017000000000007500001012416888888888888899          0900000000000010500000000000000000000000000000000000000   0000000000000000000000000A9A4      170192957705     
0010001300210U 020000000000000000000000000000000000000000000000000000000000000000000000000000000000000000000000000000000000000000000000003101201700000000            000000000000000                              000                           
0010001300211T 020180230000001544772 29577050346539436   788888888888889902022017000000000007500001012416888888888888899          0900000000000010500000000000000000000000000000000000000   0000000000000000000000000A9A4      170192957705     
0010001300212U 020000000000000000000000000000000000000000000000000000000000000000000000000000000000000000000000000000000000000000000000003101201700000000            000000000000000                              000                           
0010001300213T 020180230000001544772 29577050346557161   788888888888889902022017000000000007500001012416888888888888899          0900000000000010500000000000000000000000000000000000000   0000000000000000000000000A9A4      170192957705     
0010001300214U 020000000000000000000000000000000000000000000000000000000000000000000000000000000000000000000000000000000000000000000000003101201700000000            000000000000000                              000                           
0010001300215T 020180230000001544772 29577050346643743   788888888888889902022017000000000007500001000213888888888888899          0900000000000010000000000000000000000000000000000000000   0000000000000000000000000A9        170192957705     
0010001300216U 020000000000000000000000000000000000000000000000000000000000000000000000000000000000000000000000000000000000000000000000003101201700000000            000000000000000                              000                           
0010001300217T 020180230000001544772 29577050346809835   788888888888889902022017000000000010000001012408888888888888899          0900000000000010000000000000000000000000000000000000000   0000000000000000000000000A9        170192957705     
0010001300218U 020000000000000000000000000000000000000000000000000000000000000000000000000000000000000000000000000000000000000000000000003101201700000000            000000000000000                              000                           
0010001300219T 020180230000001544772 29577050347102012   788888888888889902022017000000000007500001012408888888888888899          0900000000000010000000000000000000000000000000000000000   0000000000000000000000000A9        170192957705     
0010001300220U 020000000000000000000000000000000000000000000000000000000000000000000000000000000000000000000000000000000000000000000000003101201700000000            000000000000000                              000                           
0010001300221T 020180230000001544772 29577050347242994   788888888888889902022017000000000007500001000213888888888888899          0900000000000010000000000000000000000000000000000000000   0000000000000000000000000A9        170192957705     
0010001300222U 020000000000000000000000000000000000000000000000000000000000000000000000000000000000000000000000000000000000000000000000003101201700000000            000000000000000                              000                           
0010001300223T 020180230000001544772 29577050347332902   788888888888889902022017000000000007500001000213888888888888899          0900000000000010000000000000000000000000000000000000000   0000000000000000000000000A9        170192957705     
0010001300224U 020000000000000000000000000000000000000000000000000000000000000000000000000000000000000000000000000000000000000000000000003101201700000000            000000000000000                              000                           
0010001300225T 020180230000001544772 29577050347416493   788888888888889902022017000000000007500001012408888888888888899          0900000000000010000000000000000000000000000000000000000   0000000000000000000000000A9        170192957705     
0010001300226U 020000000000000000000000000000000000000000000000000000000000000000000000000000000000000000000000000000000000000000000000003101201700000000            000000000000000                              000                           
0010001300227T 020180230000001544772 29577050347521729   788888888888889902022017000000000007500001012408888888888888899          0900000000000010000000000000000000000000000000000000000   0000000000000000000000000A9        170192957705     
0010001300228U 020000000000000000000000000000000000000000000000000000000000000000000000000000000000000000000000000000000000000000000000003101201700000000            000000000000000                              000                           
0010001300229T 020180230000001544772 29577050347654932   78888888888888990202201700000000000750000103049X888888888888899          0900000000000010000000000000000000000000000000000000000   0000000000000000000000000A9        170192957705     
0010001300230U 020000000000000000000000000000000000000000000000000000000000000000000000000000000000000000000000000000000000000000000000003101201700000000            000000000000000                              000                           
0010001300231T 020180230000001544772 29577050347711716   788888888888889902022017000000000007500001012416888888888888899          0900000000000010000000000000000000000000000000000000000   0000000000000000000000000A9        170192957705     
0010001300232U 020000000000000000000000000000000000000000000000000000000000000000000000000000000000000000000000000000000000000000000000003101201700000000            000000000000000                              000                           
0010001300233T 020180230000001544772 29577050347909616   78888888888888990202201700000000000750000103049X888888888888899          0900000000000010000000000000000000000000000000000000000   0000000000000000000000000A9        170192957705     
0010001300234U 020000000000000000000000000000000000000000000000000000000000000000000000000000000000000000000000000000000000000000000000003101201700000000            000000000000000                              000                           
0010001300235T 020180230000001544772 29577050348139734   788888888888889902022017000000000007500001012408888888888888899          0900000000000010500000000000000000000000000000000000000   0000000000000000000000000A9A4      170192957705     
0010001300236U 020000000000000000000000000000000000000000000000000000000000000000000000000000000000000000000000000000000000000000000000003101201700000000            000000000000000                              000                           
0010001300237T 020180230000001544772 29577050348256068   78888888888888990202201700000000000750000103049X888888888888899          0900000000000010000000000000000000000000000000000000000   0000000000000000000000000A9        170192957705     
0010001300238U 020000000000000000000000000000000000000000000000000000000000000000000000000000000000000000000000000000000000000000000000003101201700000000            000000000000000                              000                           
0010001300239T 020180230000001544772 29577050348303761   78888888888888990202201700000000000750000100829X888888888888899          0900000000000010000000000000000000000000000000000000000   0000000000000000000000000A9        170192957705     
0010001300240U 020000000000000000000000000000000000000000000000000000000000000000000000000000000000000000000000000000000000000000000000003101201700000000            000000000000000                              000                           
0010001300241T 020180230000001544772 29577050348434851   788888888888889902022017000000000007500001000213888888888888899          0900000000000010000000000000000000000000000000000000000   0000000000000000000000000A9        170192957705     
0010001300242U 020000000000000000000000000000000000000000000000000000000000000000000000000000000000000000000000000000000000000000000000003101201700000000            000000000000000                              000                           
0010001300243T 020180230000001544772 29577050348742801   78888888888888990202201700000000000750000103049X888888888888899          0900000000000010000000000000000000000000000000000000000   0000000000000000000000000A9        170192957705     
0010001300244U 020000000000000000000000000000000000000000000000000000000000000000000000000000000000000000000000000000000000000000000000003101201700000000            000000000000000                              000                           
0010001300245T 020180230000001544772 29577050348855137   78888888888888990202201700000000000750000103049X888888888888899          0900000000000010000000000000000000000000000000000000000   0000000000000000000000000A9        170192957705     
0010001300246U 020000000000000000000000000000000000000000000000000000000000000000000000000000000000000000000000000000000000000000000000003101201700000000            000000000000000                              000                           
0010001300247T 020180230000001544772 29577050348927420   788888888888889902022017000000000007500001005185888888888888899          0900000000000010000000000000000000000000000000000000000   0000000000000000000000000A9        170192957705     
0010001300248U 020000000000000000000000000000000000000000000000000000000000000000000000000000000000000000000000000000000000000000000000003101201700000000            000000000000000                              000                           
0010001300249T 020180230000001544772 29577050348949649   788888888888889902022017000000000007500001005185888888888888899          0900000000000010000000000000000000000000000000000000000   0000000000000000000000000A9        170192957705     
0010001300250U 020000000000000000000000000000000000000000000000000000000000000000000000000000000000000000000000000000000000000000000000003101201700000000            000000000000000                              000                           
0010001300251T 020180230000001544772 29577050349022743   788888888888889902022017000000000007500001000213888888888888899          0900000000000010000000000000000000000000000000000000000   0000000000000000000000000A9        170192957705     
0010001300252U 020000000000000000000000000000000000000000000000000000000000000000000000000000000000000000000000000000000000000000000000003101201700000000            000000000000000                              000                           
0010001300253T 020180230000001544772 29577050349259850   788888888888889902022017000000000007500001000213888888888888899          0900000000000010000000000000000000000000000000000000000   0000000000000000000000000A9        170192957705     
0010001300254U 020000000000000000000000000000000000000000000000000000000000000000000000000000000000000000000000000000000000000000000000003101201700000000            000000000000000                              000                           
0010001300255T 020180230000001544772 29577050349446261   788888888888889902022017000000000007500001010561888888888888899          0900000000000010000000000000000000000000000000000000000   0000000000000000000000000A9        170192957705     
0010001300256U 020000000000000000000000000000000000000000000000000000000000000000000000000000000000000000000000000000000000000000000000003101201700000000            000000000000000                              000                           
0010001300257T 020180230000001544772 29577050349616982   788888888888889902022017000000000007500001000213888888888888899          0900000000000010000000000000000000000000000000000000000   0000000000000000000000000A9        170192957705     
0010001300258U 020000000000000000000000000000000000000000000000000000000000000000000000000000000000000000000000000000000000000000000000003101201700000000            000000000000000                              000                           
0010001300259T 020180230000001544772 29577050350038683   788888888888889902022017000000000007500001012408888888888888899          0900000000000010000000000000000000000000000000000000000   0000000000000000000000000A9        170192957705     
0010001300260U 020000000000000000000000000000000000000000000000000000000000000000000000000000000000000000000000000000000000000000000000003101201700000000            000000000000000                              000                           
0010001300261T 020180230000001544772 29577050350051097   788888888888889902022017000000000007500001012408888888888888899          0900000000000010000000000000000000000000000000000000000   0000000000000000000000000A9        170192957705     
0010001300262U 020000000000000000000000000000000000000000000000000000000000000000000000000000000000000000000000000000000000000000000000003101201700000000            000000000000000                              000                           
0010001300263T 020180230000001544772 29577050350137214   788888888888889902022017000000000010000001003018888888888888899          0900000000000010500000000000000000000000000000000000000   0000000000000000000000000A9A4      170192957705     
0010001300264U 020000000000000000000000000000000000000000000000000000000000000000000000000000000000000000000000000000000000000000000000003101201700000000            000000000000000                              000                           
0010001300265T 020180230000001544772 29577050350238670   78888888888888990202201700000000000750000103049X888888888888899          0900000000000010000000000000000000000000000000000000000   0000000000000000000000000A9        170192957705     
0010001300266U 020000000000000000000000000000000000000000000000000000000000000000000000000000000000000000000000000000000000000000000000003101201700000000            000000000000000                              000                           
0010001300267T 020180230000001544772 29577050350320605   788888888888889902022017000000000007500001012416888888888888899          0900000000000010000000000000000000000000000000000000000   0000000000000000000000000A9        170192957705     
0010001300268U 020000000000000000000000000000000000000000000000000000000000000000000000000000000000000000000000000000000000000000000000003101201700000000            000000000000000                              000                           
0010001300269T 020180230000001544772 29577050350524511   788888888888889902022017000000000007500001012416888888888888899          0900000000000010000000000000000000000000000000000000000   0000000000000000000000000A9        170192957705     
0010001300270U 020000000000000000000000000000000000000000000000000000000000000000000000000000000000000000000000000000000000000000000000003101201700000000            000000000000000                              000                           
0010001300271T 020180230000001544772 29577050350612679   78888888888888990202201700000000000750000103049X888888888888899          0900000000000010000000000000000000000000000000000000000   0000000000000000000000000A9        170192957705     
0010001300272U 020000000000000000000000000000000000000000000000000000000000000000000000000000000000000000000000000000000000000000000000003101201700000000            000000000000000                              000                           
0010001300273T 020180230000001544772 29577050350839334   78888888888888990202201700000000000750000103049X888888888888899          0900000000000010000000000000000000000000000000000000000   0000000000000000000000000A9        170192957705     
0010001300274U 020000000000000000000000000000000000000000000000000000000000000000000000000000000000000000000000000000000000000000000000003101201700000000            000000000000000                              000                           
0010001300275T 020180230000001544772 29577050350951818   788888888888889902022017000000000007500001000213888888888888899          0900000000000010000000000000000000000000000000000000000   0000000000000000000000000A9        170192957705     
0010001300276U 020000000000000000000000000000000000000000000000000000000000000000000000000000000000000000000000000000000000000000000000003101201700000000            000000000000000                              000                           
0010001300277T 020180230000001544772 29577050351037977   788888888888889902022017000000000007500001000213888888888888899          0900000000000010000000000000000000000000000000000000000   0000000000000000000000000A9        170192957705     
0010001300278U 020000000000000000000000000000000000000000000000000000000000000000000000000000000000000000000000000000000000000000000000003101201700000000            000000000000000                              000                           
0010001300279T 020180230000001544772 29577050351338170   788888888888889902022017000000000007500001012416888888888888899          0900000000000010500000000000000000000000000000000000000   0000000000000000000000000A9A4      170192957705     
0010001300280U 020000000000000000000000000000000000000000000000000000000000000000000000000000000000000000000000000000000000000000000000003101201700000000            000000000000000                              000                           
0010001300281T 020180230000001544772 29577050351413669   788888888888889902022017000000000007500001000213888888888888899          0900000000000010000000000000000000000000000000000000000   0000000000000000000000000A9        170192957705     
0010001300282U 020000000000000000000000000000000000000000000000000000000000000000000000000000000000000000000000000000000000000000000000003101201700000000            000000000000000                              000                           
0010001300283T 020180230000001544772 29577050351533237   788888888888889902022017000000000007500001000213888888888888899          0900000000000010000000000000000000000000000000000000000   0000000000000000000000000A9        170192957705     
0010001300284U 020000000000000000000000000000000000000000000000000000000000000000000000000000000000000000000000000000000000000000000000003101201700000000            000000000000000                              000                           
0010001300285T 020180230000001544772 29577050351608388   788888888888889902022017000000000007500001012408888888888888899          0900000000000010000000000000000000000000000000000000000   0000000000000000000000000A9        170192957705     
0010001300286U 020000000000000000000000000000000000000000000000000000000000000000000000000000000000000000000000000000000000000000000000003101201700000000            000000000000000                              000                           
0010001300287T 020180230000001544772 29577050351802243   78888888888888990202201700000000000750000103049X888888888888899          0900000000000010000000000000000000000000000000000000000   0000000000000000000000000A9        170192957705     
0010001300288U 020000000000000000000000000000000000000000000000000000000000000000000000000000000000000000000000000000000000000000000000003101201700000000            000000000000000                              000                           
0010001300289T 020180230000001544772 29577050351914511   788888888888889902022017000000000007500001012408888888888888899          0900000000000010000000000000000000000000000000000000000   0000000000000000000000000A9        170192957705     
0010001300290U 020000000000000000000000000000000000000000000000000000000000000000000000000000000000000000000000000000000000000000000000003101201700000000            000000000000000                              000                           
0010001300291T 020180230000001544772 29577050351937226   788888888888889902022017000000000007500001012408888888888888899          0900000000000010000000000000000000000000000000000000000   0000000000000000000000000A9        170192957705     
0010001300292U 020000000000000000000000000000000000000000000000000000000000000000000000000000000000000000000000000000000000000000000000003101201700000000            000000000000000                              000                           
0010001300293T 020180230000001544772 29577050351947558   788888888888889902022017000000000007500001012408888888888888899          0900000000000010000000000000000000000000000000000000000   0000000000000000000000000A9        170192957705     
0010001300294U 020000000000000000000000000000000000000000000000000000000000000000000000000000000000000000000000000000000000000000000000003101201700000000            000000000000000                              000                           
0010001300295T 020180230000001544772 29577050351955576   788888888888889902022017000000000007500001012408888888888888899          0900000000000010000000000000000000000000000000000000000   0000000000000000000000000A9        170192957705     
0010001300296U 020000000000000000000000000000000000000000000000000000000000000000000000000000000000000000000000000000000000000000000000003101201700000000            000000000000000                              000                           
0010001300297T 020180230000001544772 29577050352007655   788888888888889902022017000000000007500001012416888888888888899          0900000000000010000000000000000000000000000000000000000   0000000000000000000000000A9        170192957705     
0010001300298U 020000000000000000000000000000000000000000000000000000000000000000000000000000000000000000000000000000000000000000000000003101201700000000            000000000000000                              000                           
0010001300299T 020180230000001544772 29577050352101231   788888888888889902022017000000000007500001000213888888888888899          0900000000000010000000000000000000000000000000000000000   0000000000000000000000000A9        170192957705     
0010001300300U 020000000000000000000000000000000000000000000000000000000000000000000000000000000000000000000000000000000000000000000000003101201700000000            000000000000000                              000                           
0010001300301T 020180230000001544772 29577050352207137   788888888888889902022017000000000007500001012408888888888888899          0900000000000010000000000000000000000000000000000000000   0000000000000000000000000A9        170192957705     
0010001300302U 020000000000000000000000000000000000000000000000000000000000000000000000000000000000000000000000000000000000000000000000003101201700000000            000000000000000                              000                           
0010001300303T 020180230000001544772 29577050352427693   788888888888889902022017000000000007500001012416888888888888899          0900000000000010000000000000000000000000000000000000000   0000000000000000000000000A9        170192957705     
0010001300304U 020000000000000000000000000000000000000000000000000000000000000000000000000000000000000000000000000000000000000000000000003101201700000000            000000000000000                              000                           
0010001300305T 020180230000001544772 29577050352556948   788888888888889902022017000000000007500001012408888888888888899          0900000000000010000000000000000000000000000000000000000   0000000000000000000000000A9        170192957705     
0010001300306U 020000000000000000000000000000000000000000000000000000000000000000000000000000000000000000000000000000000000000000000000003101201700000000            000000000000000                              000                           
0010001300307T 020180230000001544772 29577050352633682   788888888888889902022017000000000007500001012416888888888888899          0900000000000010000000000000000000000000000000000000000   0000000000000000000000000A9        170192957705     
0010001300308U 020000000000000000000000000000000000000000000000000000000000000000000000000000000000000000000000000000000000000000000000003101201700000000            000000000000000                              000                           
0010001300309T 020180230000001544772 29577050352805431   788888888888889902022017000000000007500001012408888888888888899          0900000000000010000000000000000000000000000000000000000   0000000000000000000000000A9        170192957705     
0010001300310U 020000000000000000000000000000000000000000000000000000000000000000000000000000000000000000000000000000000000000000000000003101201700000000            000000000000000                              000                           
0010001300311T 020180230000001544772 29577050352931449   788888888888889902022017000000000007500001000213888888888888899          0900000000000010000000000000000000000000000000000000000   0000000000000000000000000A9        170192957705     
0010001300312U 020000000000000000000000000000000000000000000000000000000000000000000000000000000000000000000000000000000000000000000000003101201700000000            000000000000000                              000                           
0010001300313T 020180230000001544772 29577050353004414   78888888888888990202201700000000000750000103049X888888888888899          0900000000000010000000000000000000000000000000000000000   0000000000000000000000000A9        170192957705     
0010001300314U 020000000000000000000000000000000000000000000000000000000000000000000000000000000000000000000000000000000000000000000000003101201700000000            000000000000000                              000                           
0010001300315T 020180230000001544772 29577050353131650   78888888888888990202201700000000000750000103049X888888888888899          0900000000000010000000000000000000000000000000000000000   0000000000000000000000000A9        170192957705     
0010001300316U 020000000000000000000000000000000000000000000000000000000000000000000000000000000000000000000000000000000000000000000000003101201700000000            000000000000000                              000                           
0010001300317T 020180230000001544772 29577050353334498   788888888888889902022017000000000007500001012416888888888888899          0900000000000010500000000000000000000000000000000000000   0000000000000000000000000A9A4      170192957705     
0010001300318U 020000000000000000000000000000000000000000000000000000000000000000000000000000000000000000000000000000000000000000000000003101201700000000            000000000000000                              000                           
0010001300319T 020180230000001544772 29577050353450354   788888888888889902022017000000000007500001012408888888888888899          0900000000000010000000000000000000000000000000000000000   0000000000000000000000000A9        170192957705     
0010001300320U 020000000000000000000000000000000000000000000000000000000000000000000000000000000000000000000000000000000000000000000000003101201700000000            000000000000000                              000                           
0010001300321T 020180230000001544772 29577050353750265   788888888888889902022017000000000007500001002224888888888888899          0900000000000010000000000000000000000000000000000000000   0000000000000000000000000A9        170192957705     
0010001300322U 020000000000000000000000000000000000000000000000000000000000000000000000000000000000000000000000000000000000000000000000003101201700000000            000000000000000                              000                           
0010001300323T 020180230000001544772 29577050353832385   788888888888889902022017000000000010000001000213888888888888899          0900000000000010000000000000000000000000000000000000000   0000000000000000000000000A9        170192957705     
0010001300324U 020000000000000000000000000000000000000000000000000000000000000000000000000000000000000000000000000000000000000000000000003101201700000000            000000000000000                              000                           
0010001300325T 020180230000001544772 29577050354041483   788888888888889902022017000000000007500001012408888888888888899          0900000000000010000000000000000000000000000000000000000   0000000000000000000000000A9        170192957705     
0010001300326U 020000000000000000000000000000000000000000000000000000000000000000000000000000000000000000000000000000000000000000000000003101201700000000            000000000000000                              000                           
0010001300327T 020180230000001544772 29577050354110573   788888888888889902022017000000000007500001000213888888888888899          0900000000000010000000000000000000000000000000000000000   0000000000000000000000000A9        170192957705     
0010001300328U 020000000000000000000000000000000000000000000000000000000000000000000000000000000000000000000000000000000000000000000000003101201700000000            000000000000000                              000                           
0010001300329T 020180230000001544772 29577050354331352   78888888888888990202201700000000000750000103049X888888888888899          0900000000000010000000000000000000000000000000000000000   0000000000000000000000000A9        170192957705     
0010001300330U 020000000000000000000000000000000000000000000000000000000000000000000000000000000000000000000000000000000000000000000000003101201700000000            000000000000000                              000                           
0010001300331T 020180230000001544772 29577050354356996   78888888888888990202201700000000000750000103049X888888888888899          0900000000000010000000000000000000000000000000000000000   0000000000000000000000000A9        170192957705     
0010001300332U 020000000000000000000000000000000000000000000000000000000000000000000000000000000000000000000000000000000000000000000000003101201700000000            000000000000000                              000                           
0010001300333T 020180230000001544772 29577050354416780   788888888888889902022017000000000007500001000213888888888888899          0900000000000010000000000000000000000000000000000000000   0000000000000000000000000A9        170192957705     
0010001300334U 020000000000000000000000000000000000000000000000000000000000000000000000000000000000000000000000000000000000000000000000003101201700000000            000000000000000                              000                           
0010001300335T 060180230000001544772 29577050099427362   788888888888889902022017000000000007500104025030888888888888899          0900000000000010000000000000000000000000000000000000000   000000000000000000000029000        170192957705     
0010001300336U 060000000000000000000000000000000000000000000000000000000000000000000000075000000000000072100000000000000000000000000000003101201701022017            000000000000000                              000                           
0010001300337T 060180230000001544772 29577050146331959   788888888888889902022017000000000007500001034908888888888888899          0900000000000010000000000000000000000000000000000000000   000000000000000000000029000        170192957705     
0010001300338U 060000000000000000000000000000000000000000000000000000000000000000000000075000000000000072100000000000000000000000000000003101201701022017            000000000000000                              000                           
0010001300339T 060180230000001544772 29577050236851215   788888888888889902022017000000000007500104001670888888888888899          0900000000000010000000000000000000000000000000000000000   000000000000000000000029000        170192957705     
0010001300340U 060000000000000000000000000000000000000000000000000000000000000000000000075000000000000072100000000000000000000000000000003101201701022017            000000000000000                              000                           
0010001300341T 060180230000001544772 29577050262203387   788888888888889902022017000000000007500021000900888888888888899          0900000000000010000000000000000000000000000000000000000   000000000000000000000029000        170192957705     
0010001300342U 060000000000000000000000000000000000000000000000000000000000000000000000075000000000000072100000000000000000000000000000003101201701022017            000000000000000                              000                           
0010001300343T 060180230000001544772 29577050305320187   788888888888889931012017000000000007500021002070888888888888899          0900000000000010000000000000000000000000000000000000000   000000000000000000000029000        170192957705     
0010001300344U 060000000000000000000000000000000000000000000000000000000000000000000000075000000000000072100000000000000000000000000000003101201701022017            000000000000000                              000                           
0010001300345T 060180230000001544772 29577050323207993   788888888888889902022017000000000007500021000900888888888888899          0900000000000010000000000000000000000000000000000000000   000000000000000000000029000        170192957705     
0010001300346U 060000000000000000000000000000000000000000000000000000000000000000000000075000000000000072100000000000000000000000000000003101201701022017            000000000000000                              000                           
0010001300347T 170180230000001544772 29577050323403131   7               00000000000000000007500104011120                         0900000000000010000000000000000000000000000000000000000   000000000000000000000070003        170192957705     
0010001300348U 170000000000000000000000000000000000000000000000000000000000000000000000075000000000000068000000000000000000000000000000003101201701022017            000000000000000                              000                           
0010001300349T 060180230000001544772 29577050336514579   788888888888889931012017000000000007500341070740888888888888899          0900000000000010000000000000000000000000000000000000000   000000000000000000000029000        170192957705     
0010001300350U 060000000000000000000000000000000000000000000000000000000000000000000000075000000000000072100000000000000000000000000000003101201701022017            000000000000000                              000                           
0010001300351T 060180230000001544772 29577050337506644   788888888888889931012017000000000007500001031941888888888888899          0900000000000010000000000000000000000000000000000000000   000000000000000000000029000        170192957705     
0010001300352U 060000000000000000000000000000000000000000000000000000000000000000000000075000000000000072100000000000000000000000000000003101201701022017            000000000000000                              000                           
0010001300353T 060180230000001544772 29577050338256750   788888888888889931012017000000000007500021001090888888888888899          0900000000000010000000000000000000000000000000000000000   000000000000000000000029000        170192957705     
0010001300354U 060000000000000000000000000000000000000000000000000000000000000000000000075000000000000072100000000000000000000000000000003101201701022017            000000000000000                              000                           
0010001300355T 060180230000001544772 29577050338434676   788888888888889931012017000000000007500104020420888888888888899          0900000000000010000000000000000000000000000000000000000   000000000000000000000029000        170192957705     
0010001300356U 060000000000000000000000000000000000000000000000000000000000000000000000075000000000000072100000000000000000000000000000003101201701022017            000000000000000                              000                           
0010001300357T 170180230000001544772 29577050340020584   7               00000000000000000007500237023130                         0900000000000010000000000000000000000000000000000000000   000000000000000000000070003        170192957705     
0010001300358U 170000000000000000000000000000000000000000000000000000000000000000000000075000000000000068000000000000000000000000000000003101201701022017            000000000000000                              000                           
0010001300359T 170180230000001544772 29577050340657046   7               00000000000000000007500001012408                         0900000000000010000000000000000000000000000000000000000   000000000000000000000070003        170192957705     
0010001300360U 170000000000000000000000000000000000000000000000000000000000000000000000075000000000000068000000000000000000000000000000003101201701022017            000000000000000                              000                           
0010001300361T 060180230000001544772 29577050341951442   788888888888889902022017000000000010000021001170888888888888899          0900000000000010000000000000000000000000000000000000000   000000000000000000000029000        170192957705     
0010001300362U 060000000000000000000000000000000000000000000000000000000000000000000000100000000000000097100000000000000000000000000000003101201701022017            000000000000000                              000                           
0010001300363T 170180230000001544772 29577050347615659   7               00000000000000000007500104015640                         0900000000000010000000000000000000000000000000000000000   000000000000000000000070003        170192957705     
0010001300364U 170000000000000000000000000000000000000000000000000000000000000000000000075000000000000068000000000000000000000000000000003101201701022017            000000000000000                              000                           
0010001300365T 060180230000001544772 29577050353131650   788888888888889902022017000000000007500021002080888888888888899          0900000000000010000000000000000000000000000000000000000   000000000000000000000029000        170192957705     
0010001300366U 060000000000000000000000000000000000000000000000000000000000000000000000075000000000000072100000000000000000000000000000003101201701022017            000000000000000                              000                           
0010001300367T 170180230000001544772 29577050357835345   7               00000000000000000007500021002080                         0900000000000010000000000000000000000000000000000000000   000000000000000000000070003        170192957705     
0010001300368U 170000000000000000000000000000000000000000000000000000000000000000000000075000000000000068000000000000000000000000000000003101201701022017            000000000000000                              000                           
0010001300369T 170180230000001544772 29577050360123105   7               00000000000000000007500001031933                         0900000000000010000000000000000000000000000000000000000   000000000000000000000070003        170192957705     
0010001300370U 170000000000000000000000000000000000000000000000000000000000000000000000075000000000000068000000000000000000000000000000003101201701022017            000000000000000                              000                           
0010001300371T 170180230000001544772 29577050362856348   7               00000000000000000007500104025210                         0900000000000010000000000000000000000000000000000000000   000000000000000000000070003        170192957705     
0010001300372U 170000000000000000000000000000000000000000000000000000000000000000000000075000000000000068000000000000000000000000000000003101201701022017            000000000000000                              000                           
0010001300373T 170180230000001544772 29577050365955577   7               00000000000000000007500237014930                         0900000000000010000000000000000000000000000000000000000   000000000000000000000070003        170192957705     
0010001300374U 170000000000000000000000000000000000000000000000000000000000000000000000075000000000000068000000000000000000000000000000003101201701022017            000000000000000                              000                           
0010001300375T 170180230000001544772 29577050368346273   7               00000000000000000007500001043427                         0900000000000010000000000000000000000000000000000000000   000000000000000000000070003        170192957705     
0010001300376U 170000000000000000000000000000000000000000000000000000000000000000000000075000000000000068000000000000000000000000000000003101201701022017            000000000000000                              000                           
0010001300377T 280180230000001544772 29577050027650086   788888888888889901012017000000000007500001000000888888888888899          0900000000000000000000000000000000000000000000000000000   000000000000000000000005002        170192957705     
0010001300378U 280000000000000000000000000000000000000000000000000000000000000000000000000000000000000000000000000000000000000000000000003101201700000000            000000000000000                              000                           
0010001300379T 280180230000001544772 29577050047508613   788888888888889901012017000000000007500001000000888888888888899          0900000000000000000000000000000000000000000000000000000   000000000000000000000005002        170192957705     
0010001300380U 280000000000000000000000000000000000000000000000000000000000000000000000000000000000000000000000000000000000000000000000003101201700000000            000000000000000                              000                           
0010001300381T 280180230000001544772 29577050057833507   788888888888889901012017000000000007500001000000888888888888899          0900000000000000000000000000000000000000000000000000000   000000000000000000000005002        170192957705     
0010001300382U 280000000000000000000000000000000000000000000000000000000000000000000000000000000000000000000000000000000000000000000000003101201700000000            000000000000000                              000                           
0010001300383T 280180230000001544772 29577050068153711   788888888888889901012017000000000007500001000000888888888888899          0900000000000000000000000000000000000000000000000000000   000000000000000000000005002        170192957705     
0010001300384U 280000000000000000000000000000000000000000000000000000000000000000000000000000000000000000000000000000000000000000000000003101201700000000            000000000000000                              000                           
0010001300385T 280180230000001544772 29577050078739194   788888888888889901012017000000000007500001000000888888888888899          0900000000000000000000000000000000000000000000000000000   000000000000000000000005002        170192957705     
0010001300386U 280000000000000000000000000000000000000000000000000000000000000000000000000000000000000000000000000000000000000000000000003101201700000000            000000000000000                              000                           
0010001300387T 280180230000001544772 29577050090615435   788888888888889901012017000000000007500001000000888888888888899          0900000000000000000000000000000000000000000000000000000   000000000000000000000005002        170192957705     
0010001300388U 280000000000000000000000000000000000000000000000000000000000000000000000000000000000000000000000000000000000000000000000003101201700000000            000000000000000                              000                           
0010001300389T 280180230000001544772 29577050109744366   788888888888889901012017000000000010000001000000888888888888899          0900000000000000000000000000000000000000000000000000000   000000000000000000000005002        170192957705     
0010001300390U 280000000000000000000000000000000000000000000000000000000000000000000000000000000000000000000000000000000000000000000000003101201700000000            000000000000000                              000                           
0010001300391T 280180230000001544772 29577050109829642   788888888888889901012017000000000007500001000000888888888888899          0900000000000000000000000000000000000000000000000000000   000000000000000000000005002        170192957705     
0010001300392U 280000000000000000000000000000000000000000000000000000000000000000000000000000000000000000000000000000000000000000000000003101201700000000            000000000000000                              000                           
0010001300393T 280180230000001544772 29577050109831874   788888888888889901012017000000000007500001000000888888888888899          0900000000000000000000000000000000000000000000000000000   000000000000000000000005002        170192957705     
0010001300394U 280000000000000000000000000000000000000000000000000000000000000000000000000000000000000000000000000000000000000000000000003101201700000000            000000000000000                              000                           
0010001300395T 280180230000001544772 29577050109845478   788888888888889901012017000000000007500001000000888888888888899          0900000000000000000000000000000000000000000000000000000   000000000000000000000005002        170192957705     
0010001300396U 280000000000000000000000000000000000000000000000000000000000000000000000000000000000000000000000000000000000000000000000003101201700000000            000000000000000                              000                           
0010001300397T 280180230000001544772 29577050109849945   788888888888889901012017000000000007500001000000888888888888899          0900000000000000000000000000000000000000000000000000000   000000000000000000000005002        170192957705     
0010001300398U 280000000000000000000000000000000000000000000000000000000000000000000000000000000000000000000000000000000000000000000000003101201700000000            000000000000000                              000                           
0010001300399T 280180230000001544772 29577050110006167   788888888888889901012017000000000007500001000000888888888888899          0900000000000000000000000000000000000000000000000000000   000000000000000000000005002        170192957705     
0010001300400U 280000000000000000000000000000000000000000000000000000000000000000000000000000000000000000000000000000000000000000000000003101201700000000            000000000000000                              000                           
0010001300401T 280180230000001544772 29577050110019474   788888888888889901012017000000000007500001000000888888888888899          0900000000000000000000000000000000000000000000000000000   000000000000000000000005002        170192957705     
0010001300402U 280000000000000000000000000000000000000000000000000000000000000000000000000000000000000000000000000000000000000000000000003101201700000000            000000000000000                              000                           
0010001300403T 280180230000001544772 29577050110026022   788888888888889901012017000000000007500001000000888888888888899          0900000000000000000000000000000000000000000000000000000   000000000000000000000005002        170192957705     
0010001300404U 280000000000000000000000000000000000000000000000000000000000000000000000000000000000000000000000000000000000000000000000003101201700000000            000000000000000                              000                           
0010001300405T 280180230000001544772 29577050110033624   788888888888889901012017000000000007500001000000888888888888899          0900000000000000000000000000000000000000000000000000000   000000000000000000000005002        170192957705     
0010001300406U 280000000000000000000000000000000000000000000000000000000000000000000000000000000000000000000000000000000000000000000000003101201700000000            000000000000000                              000                           
0010001300407T 280180230000001544772 29577050110103771   788888888888889901012017000000000007500001000000888888888888899          0900000000000000000000000000000000000000000000000000000   000000000000000000000005002        170192957705     
0010001300408U 280000000000000000000000000000000000000000000000000000000000000000000000000000000000000000000000000000000000000000000000003101201700000000            000000000000000                              000                           
0010001300409T 280180230000001544772 29577050110241057   788888888888889901012017000000000007500001000000888888888888899          0900000000000000000000000000000000000000000000000000000   000000000000000000000005002        170192957705     
0010001300410U 280000000000000000000000000000000000000000000000000000000000000000000000000000000000000000000000000000000000000000000000003101201700000000            000000000000000                              000                           
0010001300411T 280180230000001544772 29577050110309485   788888888888889901012017000000000007500001000000888888888888899          0900000000000000000000000000000000000000000000000000000   000000000000000000000005002        170192957705     
0010001300412U 280000000000000000000000000000000000000000000000000000000000000000000000000000000000000000000000000000000000000000000000003101201700000000            000000000000000                              000                           
