00100000         2247745860001000029577050014       0180230000001544772 INSTITUTO DE SELECAO E TECNOLOBANCO DO BRASIL                         20302201701073000008003000000515122941PROCESSAMEN                                                 
00100011T0100020 20247745860001000029577050014       0180230000001544772 INSTITUTO DE SELECAO E TECNOLO                                                                                000000000302201700000000  000000000                      
0010001300001T 020180230000001544772 29577050012510990   78888888888888990502201700000000000750000103049X888888888888899          0900000000000010000000000000000000000000000000000000000   0000000000000000000000000A9        170192957705     
0010001300002U 020000000000000000000000000000000000000000000000000000000000000000000000000000000000000000000000000000000000000000000000000302201700000000            000000000000000                              000                           
0010001300003T 020180230000001544772 29577050014907056   78888888888888990502201700000000000750000103049X888888888888899          0900000000000010500000000000000000000000000000000000000   0000000000000000000000000A9A4      170192957705     
0010001300004U 020000000000000000000000000000000000000000000000000000000000000000000000000000000000000000000000000000000000000000000000000302201700000000            000000000000000                              000                           
0010001300005T 020180230000001544772 29577050014946165   78888888888888990502201700000000000750000103049X888888888888899          0900000000000010500000000000000000000000000000000000000   0000000000000000000000000A9A4      170192957705     
0010001300006U 020000000000000000000000000000000000000000000000000000000000000000000000000000000000000000000000000000000000000000000000000302201700000000            000000000000000                              000                           
0010001300007T 020180230000001544772 29577050018108351   788888888888889905022017000000000007500001009245888888888888899          0900000000000010000000000000000000000000000000000000000   0000000000000000000000000A9        170192957705     
0010001300008U 020000000000000000000000000000000000000000000000000000000000000000000000000000000000000000000000000000000000000000000000000302201700000000            000000000000000                              000                           
0010001300009T 020180230000001544772 29577050036814966   788888888888889905022017000000000010000001000213888888888888899          0900000000000010000000000000000000000000000000000000000   0000000000000000000000000A9        170192957705     
0010001300010U 020000000000000000000000000000000000000000000000000000000000000000000000000000000000000000000000000000000000000000000000000302201700000000            000000000000000                              000                           
0010001300011T 020180230000001544772 29577050038334196   788888888888889905022017000000000007500001000213888888888888899          0900000000000010500000000000000000000000000000000000000   0000000000000000000000000A9A4      170192957705     
0010001300012U 020000000000000000000000000000000000000000000000000000000000000000000000000000000000000000000000000000000000000000000000000302201700000000            000000000000000                              000                           
0010001300013T 020180230000001544772 29577050041904476   788888888888889905022017000000000010000001000213888888888888899          0900000000000010000000000000000000000000000000000000000   0000000000000000000000000A9        170192957705     
0010001300014U 020000000000000000000000000000000000000000000000000000000000000000000000000000000000000000000000000000000000000000000000000302201700000000            000000000000000                              000                           
0010001300015T 020180230000001544772 29577050041926730   788888888888889905022017000000000010000001000213888888888888899          0900000000000010000000000000000000000000000000000000000   0000000000000000000000000A9        170192957705     
0010001300016U 020000000000000000000000000000000000000000000000000000000000000000000000000000000000000000000000000000000000000000000000000302201700000000            000000000000000                              000                           
0010001300017T 020180230000001544772 29577050045501568   788888888888889905022017000000000007500001012408888888888888899          0900000000000010000000000000000000000000000000000000000   0000000000000000000000000A9        170192957705     
0010001300018U 020000000000000000000000000000000000000000000000000000000000000000000000000000000000000000000000000000000000000000000000000302201700000000            000000000000000                              000                           
0010001300019T 020180230000001544772 29577050050844083   788888888888889905022017000000000007500001012408888888888888899          0900000000000010000000000000000000000000000000000000000   0000000000000000000000000A9        170192957705     
0010001300020U 020000000000000000000000000000000000000000000000000000000000000000000000000000000000000000000000000000000000000000000000000302201700000000            000000000000000                              000                           
0010001300021T 020180230000001544772 29577050063120742   78888888888888990502201700000000000750000103049X888888888888899          0900000000000010000000000000000000000000000000000000000   0000000000000000000000000A9        170192957705     
0010001300022U 020000000000000000000000000000000000000000000000000000000000000000000000000000000000000000000000000000000000000000000000000302201700000000            000000000000000                              000                           
0010001300023T 020180230000001544772 29577050065544573   788888888888889905022017000000000007500001012408888888888888899          0900000000000010000000000000000000000000000000000000000   0000000000000000000000000A9        170192957705     
0010001300024U 020000000000000000000000000000000000000000000000000000000000000000000000000000000000000000000000000000000000000000000000000302201700000000            000000000000000                              000                           
0010001300025T 020180230000001544772 29577050067306333   788888888888889905022017000000000007500001009245888888888888899          0900000000000010000000000000000000000000000000000000000   0000000000000000000000000A9        170192957705     
0010001300026U 020000000000000000000000000000000000000000000000000000000000000000000000000000000000000000000000000000000000000000000000000302201700000000            000000000000000                              000                           
0010001300027T 020180230000001544772 29577050085836465   78888888888888990502201700000000000750000103049X888888888888899          0900000000000010000000000000000000000000000000000000000   0000000000000000000000000A9        170192957705     
0010001300028U 020000000000000000000000000000000000000000000000000000000000000000000000000000000000000000000000000000000000000000000000000302201700000000            000000000000000                              000                           
0010001300029T 020180230000001544772 29577050086639011   788888888888889905022017000000000007500001013005888888888888899          0900000000000010000000000000000000000000000000000000000   0000000000000000000000000A9        170192957705     
0010001300030U 020000000000000000000000000000000000000000000000000000000000000000000000000000000000000000000000000000000000000000000000000302201700000000            000000000000000                              000                           
0010001300031T 020180230000001544772 29577050089305903   788888888888889905022017000000000007500001000213888888888888899          0900000000000010000000000000000000000000000000000000000   0000000000000000000000000A9        170192957705     
0010001300032U 020000000000000000000000000000000000000000000000000000000000000000000000000000000000000000000000000000000000000000000000000302201700000000            000000000000000                              000                           
0010001300033T 020180230000001544772 29577050092232834   788888888888889905022017000000000007500001012408888888888888899          0900000000000010000000000000000000000000000000000000000   0000000000000000000000000A9        170192957705     
0010001300034U 020000000000000000000000000000000000000000000000000000000000000000000000000000000000000000000000000000000000000000000000000302201700000000            000000000000000                              000                           
0010001300035T 020180230000001544772 29577050092334155   788888888888889905022017000000000007500001012408888888888888899          0900000000000010000000000000000000000000000000000000000   0000000000000000000000000A9        170192957705     
0010001300036U 020000000000000000000000000000000000000000000000000000000000000000000000000000000000000000000000000000000000000000000000000302201700000000            000000000000000                              000                           
0010001300037T 020180230000001544772 29577050092905538   788888888888889905022017000000000007500001004782888888888888899          0900000000000010000000000000000000000000000000000000000   0000000000000000000000000A9        170192957705     
0010001300038U 020000000000000000000000000000000000000000000000000000000000000000000000000000000000000000000000000000000000000000000000000302201700000000            000000000000000                              000                           
0010001300039T 020180230000001544772 29577050093803600   788888888888889905022017000000000010000001012408888888888888899          0900000000000010500000000000000000000000000000000000000   0000000000000000000000000A9A4      170192957705     
0010001300040U 020000000000000000000000000000000000000000000000000000000000000000000000000000000000000000000000000000000000000000000000000302201700000000            000000000000000                              000                           
0010001300041T 020180230000001544772 29577050103103523   78888888888888990502201700000000000750000103049X888888888888899          0900000000000010000000000000000000000000000000000000000   0000000000000000000000000A9        170192957705     
0010001300042U 020000000000000000000000000000000000000000000000000000000000000000000000000000000000000000000000000000000000000000000000000302201700000000            000000000000000                              000                           
0010001300043T 020180230000001544772 29577050128022697   788888888888889905022017000000000007500001000213888888888888899          0900000000000010000000000000000000000000000000000000000   0000000000000000000000000A9        170192957705     
0010001300044U 020000000000000000000000000000000000000000000000000000000000000000000000000000000000000000000000000000000000000000000000000302201700000000            000000000000000                              000                           
0010001300045T 020180230000001544772 29577050141710206   788888888888889905022017000000000007500001012416888888888888899          0900000000000010000000000000000000000000000000000000000   0000000000000000000000000A9        170192957705     
0010001300046U 020000000000000000000000000000000000000000000000000000000000000000000000000000000000000000000000000000000000000000000000000302201700000000            000000000000000                              000                           
0010001300047T 020180230000001544772 29577050151701583   788888888888889905022017000000000007500001000213888888888888899          0900000000000010000000000000000000000000000000000000000   0000000000000000000000000A9        170192957705     
0010001300048U 020000000000000000000000000000000000000000000000000000000000000000000000000000000000000000000000000000000000000000000000000302201700000000            000000000000000                              000                           
0010001300049T 020180230000001544772 29577050154948454   788888888888889905022017000000000010000001008338888888888888899          0900000000000010000000000000000000000000000000000000000   0000000000000000000000000A9        170192957705     
0010001300050U 020000000000000000000000000000000000000000000000000000000000000000000000000000000000000000000000000000000000000000000000000302201700000000            000000000000000                              000                           
0010001300051T 020180230000001544772 29577050156420899   788888888888889905022017000000000007500001000213888888888888899          0900000000000010000000000000000000000000000000000000000   0000000000000000000000000A9        170192957705     
0010001300052U 020000000000000000000000000000000000000000000000000000000000000000000000000000000000000000000000000000000000000000000000000302201700000000            000000000000000                              000                           
0010001300053T 020180230000001544772 29577050165153671   788888888888889905022017000000000007500001008338888888888888899          0900000000000010000000000000000000000000000000000000000   0000000000000000000000000A9        170192957705     
0010001300054U 020000000000000000000000000000000000000000000000000000000000000000000000000000000000000000000000000000000000000000000000000302201700000000            000000000000000                              000                           
0010001300055T 020180230000001544772 29577050193850905   788888888888889905022017000000000007500001003700888888888888899          0900000000000010000000000000000000000000000000000000000   0000000000000000000000000A9        170192957705     
0010001300056U 020000000000000000000000000000000000000000000000000000000000000000000000000000000000000000000000000000000000000000000000000302201700000000            000000000000000                              000                           
0010001300057T 020180230000001544772 29577050199227612   78888888888888990502201700000000000750000103049X888888888888899          0900000000000010000000000000000000000000000000000000000   0000000000000000000000000A9        170192957705     
0010001300058U 020000000000000000000000000000000000000000000000000000000000000000000000000000000000000000000000000000000000000000000000000302201700000000            000000000000000                              000                           
0010001300059T 020180230000001544772 29577050201122819   788888888888889905022017000000000007500001012416888888888888899          0900000000000010000000000000000000000000000000000000000   0000000000000000000000000A9        170192957705     
0010001300060U 020000000000000000000000000000000000000000000000000000000000000000000000000000000000000000000000000000000000000000000000000302201700000000            000000000000000                              000                           
0010001300061T 020180230000001544772 29577050202622233   788888888888889905022017000000000007500001000213888888888888899          0900000000000010000000000000000000000000000000000000000   0000000000000000000000000A9        170192957705     
0010001300062U 020000000000000000000000000000000000000000000000000000000000000000000000000000000000000000000000000000000000000000000000000302201700000000            000000000000000                              000                           
0010001300063T 020180230000001544772 29577050210041088   788888888888889905022017000000000007500001012408888888888888899          0900000000000010000000000000000000000000000000000000000   0000000000000000000000000A9        170192957705     
0010001300064U 020000000000000000000000000000000000000000000000000000000000000000000000000000000000000000000000000000000000000000000000000302201700000000            000000000000000                              000                           
0010001300065T 020180230000001544772 29577050212456075   788888888888889905022017000000000007500001000833888888888888899          0900000000000010000000000000000000000000000000000000000   0000000000000000000000000A9        170192957705     
0010001300066U 020000000000000000000000000000000000000000000000000000000000000000000000000000000000000000000000000000000000000000000000000302201700000000            000000000000000                              000                           
0010001300067T 020180230000001544772 29577050212543353   788888888888889905022017000000000007500001000213888888888888899          0900000000000010000000000000000000000000000000000000000   0000000000000000000000000A9        170192957705     
0010001300068U 020000000000000000000000000000000000000000000000000000000000000000000000000000000000000000000000000000000000000000000000000302201700000000            000000000000000                              000                           
0010001300069T 020180230000001544772 29577050214927837   788888888888889905022017000000000007500001000213888888888888899          0900000000000010000000000000000000000000000000000000000   0000000000000000000000000A9        170192957705     
0010001300070U 020000000000000000000000000000000000000000000000000000000000000000000000000000000000000000000000000000000000000000000000000302201700000000            000000000000000                              000                           
0010001300071T 020180230000001544772 29577050223755519   788888888888889905022017000000000007500001000213888888888888899          0900000000000010000000000000000000000000000000000000000   0000000000000000000000000A9        170192957705     
0010001300072U 020000000000000000000000000000000000000000000000000000000000000000000000000000000000000000000000000000000000000000000000000302201700000000            000000000000000                              000                           
0010001300073T 020180230000001544772 29577050223756512   788888888888889905022017000000000007500001000213888888888888899          0900000000000010000000000000000000000000000000000000000   0000000000000000000000000A9        170192957705     
0010001300074U 020000000000000000000000000000000000000000000000000000000000000000000000000000000000000000000000000000000000000000000000000302201700000000            000000000000000                              000                           
0010001300075T 020180230000001544772 29577050230419811   788888888888889905022017000000000010000001004782888888888888899          0900000000000010000000000000000000000000000000000000000   0000000000000000000000000A9        170192957705     
0010001300076U 020000000000000000000000000000000000000000000000000000000000000000000000000000000000000000000000000000000000000000000000000302201700000000            000000000000000                              000                           
0010001300077T 020180230000001544772 29577050250148493   788888888888889905022017000000000007500001012408888888888888899          0900000000000010000000000000000000000000000000000000000   0000000000000000000000000A9        170192957705     
0010001300078U 020000000000000000000000000000000000000000000000000000000000000000000000000000000000000000000000000000000000000000000000000302201700000000            000000000000000                              000                           
0010001300079T 020180230000001544772 29577050253211971   788888888888889905022017000000000007500001000213888888888888899          0900000000000010000000000000000000000000000000000000000   0000000000000000000000000A9        170192957705     
0010001300080U 020000000000000000000000000000000000000000000000000000000000000000000000000000000000000000000000000000000000000000000000000302201700000000            000000000000000                              000                           
0010001300081T 020180230000001544772 29577050259905213   788888888888889905022017000000000010000001046280888888888888899          0900000000000010000000000000000000000000000000000000000   0000000000000000000000000A9        170192957705     
0010001300082U 020000000000000000000000000000000000000000000000000000000000000000000000000000000000000000000000000000000000000000000000000302201700000000            000000000000000                              000                           
0010001300083T 020180230000001544772 29577050262937567   788888888888889905022017000000000007500001000213888888888888899          0900000000000010000000000000000000000000000000000000000   0000000000000000000000000A9        170192957705     
0010001300084U 020000000000000000000000000000000000000000000000000000000000000000000000000000000000000000000000000000000000000000000000000302201700000000            000000000000000                              000                           
0010001300085T 020180230000001544772 29577050265639500   78888888888888990502201700000000000750000103049X888888888888899          0900000000000010000000000000000000000000000000000000000   0000000000000000000000000A9        170192957705     
0010001300086U 020000000000000000000000000000000000000000000000000000000000000000000000000000000000000000000000000000000000000000000000000302201700000000            000000000000000                              000                           
0010001300087T 020180230000001544772 29577050269536761   788888888888889905022017000000000007500001021121888888888888899          0900000000000010000000000000000000000000000000000000000   0000000000000000000000000A9        170192957705     
0010001300088U 020000000000000000000000000000000000000000000000000000000000000000000000000000000000000000000000000000000000000000000000000302201700000000            000000000000000                              000                           
0010001300089T 020180230000001544772 29577050273409821   788888888888889905022017000000000007500001008060888888888888899          0900000000000010000000000000000000000000000000000000000   0000000000000000000000000A9        170192957705     
0010001300090U 020000000000000000000000000000000000000000000000000000000000000000000000000000000000000000000000000000000000000000000000000302201700000000            000000000000000                              000                           
0010001300091T 020180230000001544772 29577050273439218   788888888888889905022017000000000007500001008060888888888888899          0900000000000010000000000000000000000000000000000000000   0000000000000000000000000A9        170192957705     
0010001300092U 020000000000000000000000000000000000000000000000000000000000000000000000000000000000000000000000000000000000000000000000000302201700000000            000000000000000                              000                           
0010001300093T 020180230000001544772 29577050275557072   788888888888889905022017000000000007500001000213888888888888899          0900000000000010000000000000000000000000000000000000000   0000000000000000000000000A9        170192957705     
0010001300094U 020000000000000000000000000000000000000000000000000000000000000000000000000000000000000000000000000000000000000000000000000302201700000000            000000000000000                              000                           
0010001300095T 020180230000001544772 29577050277950814   788888888888889905022017000000000007500001000213888888888888899          0900000000000010000000000000000000000000000000000000000   0000000000000000000000000A9        170192957705     
0010001300096U 020000000000000000000000000000000000000000000000000000000000000000000000000000000000000000000000000000000000000000000000000302201700000000            000000000000000                              000                           
0010001300097T 020180230000001544772 29577050278649681   788888888888889905022017000000000007500001000213888888888888899          0900000000000010000000000000000000000000000000000000000   0000000000000000000000000A9        170192957705     
0010001300098U 020000000000000000000000000000000000000000000000000000000000000000000000000000000000000000000000000000000000000000000000000302201700000000            000000000000000                              000                           
0010001300099T 020180230000001544772 29577050284105500   788888888888889905022017000000000007500001012408888888888888899          0900000000000010000000000000000000000000000000000000000   0000000000000000000000000A9        170192957705     
0010001300100U 020000000000000000000000000000000000000000000000000000000000000000000000000000000000000000000000000000000000000000000000000302201700000000            000000000000000                              000                           
0010001300101T 020180230000001544772 29577050288832325   788888888888889905022017000000000007500001012408888888888888899          0900000000000010500000000000000000000000000000000000000   0000000000000000000000000A9A4      170192957705     
0010001300102U 020000000000000000000000000000000000000000000000000000000000000000000000000000000000000000000000000000000000000000000000000302201700000000            000000000000000                              000                           
0010001300103T 020180230000001544772 29577050289306965   788888888888889905022017000000000007500001014389888888888888899          0900000000000010000000000000000000000000000000000000000   0000000000000000000000000A9        170192957705     
0010001300104U 020000000000000000000000000000000000000000000000000000000000000000000000000000000000000000000000000000000000000000000000000302201700000000            000000000000000                              000                           
0010001300105T 020180230000001544772 29577050290622379   788888888888889905022017000000000007500001010561888888888888899          0900000000000010000000000000000000000000000000000000000   0000000000000000000000000A9        170192957705     
0010001300106U 020000000000000000000000000000000000000000000000000000000000000000000000000000000000000000000000000000000000000000000000000302201700000000            000000000000000                              000                           
0010001300107T 020180230000001544772 29577050293550086   78888888888888990502201700000000000750000103049X888888888888899          0900000000000010000000000000000000000000000000000000000   0000000000000000000000000A9        170192957705     
0010001300108U 020000000000000000000000000000000000000000000000000000000000000000000000000000000000000000000000000000000000000000000000000302201700000000            000000000000000                              000                           
0010001300109T 020180230000001544772 29577050298241739   788888888888889905022017000000000007500001030864888888888888899          0900000000000010000000000000000000000000000000000000000   0000000000000000000000000A9        170192957705     
0010001300110U 020000000000000000000000000000000000000000000000000000000000000000000000000000000000000000000000000000000000000000000000000302201700000000            000000000000000                              000                           
0010001300111T 020180230000001544772 29577050314136317   78888888888888990502201700000000000750000103049X888888888888899          0900000000000010000000000000000000000000000000000000000   0000000000000000000000000A9        170192957705     
0010001300112U 020000000000000000000000000000000000000000000000000000000000000000000000000000000000000000000000000000000000000000000000000302201700000000            000000000000000                              000                           
0010001300113T 020180230000001544772 29577050329836713   788888888888889905022017000000000007500001004782888888888888899          0900000000000010000000000000000000000000000000000000000   0000000000000000000000000A9        170192957705     
0010001300114U 020000000000000000000000000000000000000000000000000000000000000000000000000000000000000000000000000000000000000000000000000302201700000000            000000000000000                              000                           
0010001300115T 020180230000001544772 29577050333328318   788888888888889905022017000000000007500001012408888888888888899          0900000000000010000000000000000000000000000000000000000   0000000000000000000000000A9        170192957705     
0010001300116U 020000000000000000000000000000000000000000000000000000000000000000000000000000000000000000000000000000000000000000000000000302201700000000            000000000000000                              000                           
0010001300117T 020180230000001544772 29577050339408991   788888888888889905022017000000000007500001000213888888888888899          0900000000000010000000000000000000000000000000000000000   0000000000000000000000000A9        170192957705     
0010001300118U 020000000000000000000000000000000000000000000000000000000000000000000000000000000000000000000000000000000000000000000000000302201700000000            000000000000000                              000                           
0010001300119T 020180230000001544772 29577050341502115   78888888888888990502201700000000000750000103049X888888888888899          0900000000000010000000000000000000000000000000000000000   0000000000000000000000000A9        170192957705     
0010001300120U 020000000000000000000000000000000000000000000000000000000000000000000000000000000000000000000000000000000000000000000000000302201700000000            000000000000000                              000                           
0010001300121T 020180230000001544772 29577050344702244   788888888888889905022017000000000007500001009245888888888888899          0900000000000010000000000000000000000000000000000000000   0000000000000000000000000A9        170192957705     
0010001300122U 020000000000000000000000000000000000000000000000000000000000000000000000000000000000000000000000000000000000000000000000000302201700000000            000000000000000                              000                           
0010001300123T 020180230000001544772 29577050349240074   788888888888889905022017000000000007500001000213888888888888899          0900000000000010000000000000000000000000000000000000000   0000000000000000000000000A9        170192957705     
0010001300124U 020000000000000000000000000000000000000000000000000000000000000000000000000000000000000000000000000000000000000000000000000302201700000000            000000000000000                              000                           
0010001300125T 020180230000001544772 29577050351413063   788888888888889905022017000000000007500001000213888888888888899          0900000000000010000000000000000000000000000000000000000   0000000000000000000000000A9        170192957705     
0010001300126U 020000000000000000000000000000000000000000000000000000000000000000000000000000000000000000000000000000000000000000000000000302201700000000            000000000000000                              000                           
0010001300127T 020180230000001544772 29577050352409837   788888888888889905022017000000000007500001012416888888888888899          0900000000000010000000000000000000000000000000000000000   0000000000000000000000000A9        170192957705     
0010001300128U 020000000000000000000000000000000000000000000000000000000000000000000000000000000000000000000000000000000000000000000000000302201700000000            000000000000000                              000                           
0010001300129T 020180230000001544772 29577050361801969   788888888888889905022017000000000007500001012416888888888888899          0900000000000010500000000000000000000000000000000000000   0000000000000000000000000A9A4      170192957705     
0010001300130U 020000000000000000000000000000000000000000000000000000000000000000000000000000000000000000000000000000000000000000000000000302201700000000            000000000000000                              000                           
0010001300131T 020180230000001544772 29577050362541189   788888888888889905022017000000000007500001000213888888888888899          0900000000000010000000000000000000000000000000000000000   0000000000000000000000000A9        170192957705     
0010001300132U 020000000000000000000000000000000000000000000000000000000000000000000000000000000000000000000000000000000000000000000000000302201700000000            000000000000000                              000                           
0010001300133T 020180230000001544772 29577050363331544   78888888888888990502201700000000000750000103049X888888888888899          0900000000000010500000000000000000000000000000000000000   0000000000000000000000000A9A4      170192957705     
0010001300134U 020000000000000000000000000000000000000000000000000000000000000000000000000000000000000000000000000000000000000000000000000302201700000000            000000000000000                              000                           
0010001300135T 020180230000001544772 29577050382959761   788888888888889905022017000000000007500001012416888888888888899          0900000000000010000000000000000000000000000000000000000   0000000000000000000000000A9        170192957705     
0010001300136U 020000000000000000000000000000000000000000000000000000000000000000000000000000000000000000000000000000000000000000000000000302201700000000            000000000000000                              000                           
0010001300137T 020180230000001544772 29577050383246609   788888888888889905022017000000000007500001000213888888888888899          0900000000000010000000000000000000000000000000000000000   0000000000000000000000000A9        170192957705     
0010001300138U 020000000000000000000000000000000000000000000000000000000000000000000000000000000000000000000000000000000000000000000000000302201700000000            000000000000000                              000                           
0010001300139T 020180230000001544772 29577050388030612   788888888888889905022017000000000007500001012416888888888888899          0900000000000010000000000000000000000000000000000000000   0000000000000000000000000A9        170192957705     
0010001300140U 020000000000000000000000000000000000000000000000000000000000000000000000000000000000000000000000000000000000000000000000000302201700000000            000000000000000                              000                           
0010001300141T 020180230000001544772 29577050388054368   788888888888889905022017000000000007500001012416888888888888899          0900000000000010000000000000000000000000000000000000000   0000000000000000000000000A9        170192957705     
0010001300142U 020000000000000000000000000000000000000000000000000000000000000000000000000000000000000000000000000000000000000000000000000302201700000000            000000000000000                              000                           
0010001300143T 020180230000001544772 29577050398027435   788888888888889905022017000000000007500001000833888888888888899          0900000000000010500000000000000000000000000000000000000   0000000000000000000000000A9A4      170192957705     
0010001300144U 020000000000000000000000000000000000000000000000000000000000000000000000000000000000000000000000000000000000000000000000000302201700000000            000000000000000                              000                           
0010001300145T 020180230000001544772 29577050398425107   788888888888889905022017000000000007500001012408888888888888899          0900000000000010000000000000000000000000000000000000000   0000000000000000000000000A9        170192957705     
0010001300146U 020000000000000000000000000000000000000000000000000000000000000000000000000000000000000000000000000000000000000000000000000302201700000000            000000000000000                              000                           
0010001300147T 020180230000001544772 29577050398632457   788888888888889905022017000000000007500001000213888888888888899          0900000000000010000000000000000000000000000000000000000   0000000000000000000000000A9        170192957705     
0010001300148U 020000000000000000000000000000000000000000000000000000000000000000000000000000000000000000000000000000000000000000000000000302201700000000            000000000000000                              000                           
0010001300149T 020180230000001544772 29577050398724791   788888888888889905022017000000000007500001049905888888888888899          0900000000000010000000000000000000000000000000000000000   0000000000000000000000000A9        170192957705     
0010001300150U 020000000000000000000000000000000000000000000000000000000000000000000000000000000000000000000000000000000000000000000000000302201700000000            000000000000000                              000                           
0010001300151T 020180230000001544772 29577050398837054   788888888888889905022017000000000007500001000213888888888888899          0900000000000010000000000000000000000000000000000000000   0000000000000000000000000A9        170192957705     
0010001300152U 020000000000000000000000000000000000000000000000000000000000000000000000000000000000000000000000000000000000000000000000000302201700000000            000000000000000                              000                           
0010001300153T 020180230000001544772 29577050398908484   788888888888889905022017000000000007500001012408888888888888899          0900000000000010000000000000000000000000000000000000000   0000000000000000000000000A9        170192957705     
0010001300154U 020000000000000000000000000000000000000000000000000000000000000000000000000000000000000000000000000000000000000000000000000302201700000000            000000000000000                              000                           
0010001300155T 020180230000001544772 29577050399117432   788888888888889905022017000000000007500001000213888888888888899          0900000000000010500000000000000000000000000000000000000   0000000000000000000000000A9A4      170192957705     
0010001300156U 020000000000000000000000000000000000000000000000000000000000000000000000000000000000000000000000000000000000000000000000000302201700000000            000000000000000                              000                           
0010001300157T 020180230000001544772 29577050399318403   78888888888888990502201700000000000750000103049X888888888888899          0900000000000010000000000000000000000000000000000000000   0000000000000000000000000A9        170192957705     
0010001300158U 020000000000000000000000000000000000000000000000000000000000000000000000000000000000000000000000000000000000000000000000000302201700000000            000000000000000                              000                           
0010001300159T 020180230000001544772 29577050399630271   788888888888889905022017000000000007500001012416888888888888899          0900000000000010000000000000000000000000000000000000000   0000000000000000000000000A9        170192957705     
0010001300160U 020000000000000000000000000000000000000000000000000000000000000000000000000000000000000000000000000000000000000000000000000302201700000000            000000000000000                              000                           
0010001300161T 020180230000001544772 29577050399712527   788888888888889905022017000000000007500001012408888888888888899          0900000000000010500000000000000000000000000000000000000   0000000000000000000000000A9A4      170192957705     
0010001300162U 020000000000000000000000000000000000000000000000000000000000000000000000000000000000000000000000000000000000000000000000000302201700000000            000000000000000                              000                           
0010001300163T 020180230000001544772 29577050400049891   788888888888889905022017000000000007500001012408888888888888899          0900000000000010000000000000000000000000000000000000000   0000000000000000000000000A9        170192957705     
0010001300164U 020000000000000000000000000000000000000000000000000000000000000000000000000000000000000000000000000000000000000000000000000302201700000000            000000000000000                              000                           
0010001300165T 020180230000001544772 29577050400156227   788888888888889905022017000000000007500001012408888888888888899          0900000000000010500000000000000000000000000000000000000   0000000000000000000000000A9A4      170192957705     
0010001300166U 020000000000000000000000000000000000000000000000000000000000000000000000000000000000000000000000000000000000000000000000000302201700000000            000000000000000                              000                           
0010001300167T 020180230000001544772 29577050400243225   788888888888889905022017000000000007500001012408888888888888899          0900000000000010000000000000000000000000000000000000000   0000000000000000000000000A9        170192957705     
0010001300168U 020000000000000000000000000000000000000000000000000000000000000000000000000000000000000000000000000000000000000000000000000302201700000000            000000000000000                              000                           
0010001300169T 020180230000001544772 29577050400310000   78888888888888990502201700000000000750000103049X888888888888899          0900000000000010000000000000000000000000000000000000000   0000000000000000000000000A9        170192957705     
0010001300170U 020000000000000000000000000000000000000000000000000000000000000000000000000000000000000000000000000000000000000000000000000302201700000000            000000000000000                              000                           
0010001300171T 020180230000001544772 29577050400433139   788888888888889905022017000000000007500001012408888888888888899          0900000000000010500000000000000000000000000000000000000   0000000000000000000000000A9A4      170192957705     
0010001300172U 020000000000000000000000000000000000000000000000000000000000000000000000000000000000000000000000000000000000000000000000000302201700000000            000000000000000                              000                           
0010001300173T 020180230000001544772 29577050400513998   788888888888889905022017000000000007500001000213888888888888899          0900000000000010500000000000000000000000000000000000000   0000000000000000000000000A9A4      170192957705     
0010001300174U 020000000000000000000000000000000000000000000000000000000000000000000000000000000000000000000000000000000000000000000000000302201700000000            000000000000000                              000                           
0010001300175T 020180230000001544772 29577050400649622   788888888888889905022017000000000007500001000213888888888888899          0900000000000010500000000000000000000000000000000000000   0000000000000000000000000A9A4      170192957705     
0010001300176U 020000000000000000000000000000000000000000000000000000000000000000000000000000000000000000000000000000000000000000000000000302201700000000            000000000000000                              000                           
0010001300177T 020180230000001544772 29577050400716722   788888888888889905022017000000000007500001012408888888888888899          0900000000000010000000000000000000000000000000000000000   0000000000000000000000000A9        170192957705     
0010001300178U 020000000000000000000000000000000000000000000000000000000000000000000000000000000000000000000000000000000000000000000000000302201700000000            000000000000000                              000                           
0010001300179T 020180230000001544772 29577050400826045   78888888888888990502201700000000000750000103049X888888888888899          0900000000000010000000000000000000000000000000000000000   0000000000000000000000000A9        170192957705     
0010001300180U 020000000000000000000000000000000000000000000000000000000000000000000000000000000000000000000000000000000000000000000000000302201700000000            000000000000000                              000                           
0010001300181T 020180230000001544772 29577050400929866   78888888888888990502201700000000000750000103049X888888888888899          0900000000000010000000000000000000000000000000000000000   0000000000000000000000000A9        170192957705     
0010001300182U 020000000000000000000000000000000000000000000000000000000000000000000000000000000000000000000000000000000000000000000000000302201700000000            000000000000000                              000                           
0010001300183T 020180230000001544772 29577050401147305   788888888888889905022017000000000007500001012408888888888888899          0900000000000010500000000000000000000000000000000000000   0000000000000000000000000A9A4      170192957705     
0010001300184U 020000000000000000000000000000000000000000000000000000000000000000000000000000000000000000000000000000000000000000000000000302201700000000            000000000000000                              000                           
0010001300185T 020180230000001544772 29577050401305479   788888888888889905022017000000000007500001012408888888888888899          0900000000000010000000000000000000000000000000000000000   0000000000000000000000000A9        170192957705     
0010001300186U 020000000000000000000000000000000000000000000000000000000000000000000000000000000000000000000000000000000000000000000000000302201700000000            000000000000000                              000                           
0010001300187T 020180230000001544772 29577050401418447   788888888888889905022017000000000007500001012408888888888888899          0900000000000010000000000000000000000000000000000000000   0000000000000000000000000A9        170192957705     
0010001300188U 020000000000000000000000000000000000000000000000000000000000000000000000000000000000000000000000000000000000000000000000000302201700000000            000000000000000                              000                           
0010001300189T 020180230000001544772 29577050401705718   788888888888889905022017000000000007500001000213888888888888899          0900000000000010000000000000000000000000000000000000000   0000000000000000000000000A9        170192957705     
0010001300190U 020000000000000000000000000000000000000000000000000000000000000000000000000000000000000000000000000000000000000000000000000302201700000000            000000000000000                              000                           
0010001300191T 020180230000001544772 29577050401904809   788888888888889905022017000000000007500001017868888888888888899          0900000000000010000000000000000000000000000000000000000   0000000000000000000000000A9        170192957705     
0010001300192U 020000000000000000000000000000000000000000000000000000000000000000000000000000000000000000000000000000000000000000000000000302201700000000            000000000000000                              000                           
0010001300193T 020180230000001544772 29577050402033228   788888888888889905022017000000000007500001012408888888888888899          0900000000000010000000000000000000000000000000000000000   0000000000000000000000000A9        170192957705     
0010001300194U 020000000000000000000000000000000000000000000000000000000000000000000000000000000000000000000000000000000000000000000000000302201700000000            000000000000000                              000                           
0010001300195T 020180230000001544772 29577050402116155   788888888888889905022017000000000007500001000213888888888888899          0900000000000010500000000000000000000000000000000000000   0000000000000000000000000A9A4      170192957705     
0010001300196U 020000000000000000000000000000000000000000000000000000000000000000000000000000000000000000000000000000000000000000000000000302201700000000            000000000000000                              000                           
0010001300197T 020180230000001544772 29577050402310684   78888888888888990502201700000000000750000103049X888888888888899          0900000000000010000000000000000000000000000000000000000   0000000000000000000000000A9        170192957705     
0010001300198U 020000000000000000000000000000000000000000000000000000000000000000000000000000000000000000000000000000000000000000000000000302201700000000            000000000000000                              000                           
0010001300199T 020180230000001544772 29577050402403561   788888888888889905022017000000000007500001000213888888888888899          0900000000000010500000000000000000000000000000000000000   0000000000000000000000000A9A4      170192957705     
0010001300200U 020000000000000000000000000000000000000000000000000000000000000000000000000000000000000000000000000000000000000000000000000302201700000000            000000000000000                              000                           
0010001300201T 020180230000001544772 29577050402637685   788888888888889905022017000000000007500001012416888888888888899          0900000000000010000000000000000000000000000000000000000   0000000000000000000000000A9        170192957705     
0010001300202U 020000000000000000000000000000000000000000000000000000000000000000000000000000000000000000000000000000000000000000000000000302201700000000            000000000000000                              000                           
0010001300203T 020180230000001544772 29577050402639184   788888888888889905022017000000000007500001012416888888888888899          0900000000000010000000000000000000000000000000000000000   0000000000000000000000000A9        170192957705     
0010001300204U 020000000000000000000000000000000000000000000000000000000000000000000000000000000000000000000000000000000000000000000000000302201700000000            000000000000000                              000                           
0010001300205T 020180230000001544772 29577050402805319   78888888888888990502201700000000000750000103049X888888888888899          0900000000000010000000000000000000000000000000000000000   0000000000000000000000000A9        170192957705     
0010001300206U 020000000000000000000000000000000000000000000000000000000000000000000000000000000000000000000000000000000000000000000000000302201700000000            000000000000000                              000                           
0010001300207T 020180230000001544772 29577050403017476   78888888888888990502201700000000000750000103049X888888888888899          0900000000000010000000000000000000000000000000000000000   0000000000000000000000000A9        170192957705     
0010001300208U 020000000000000000000000000000000000000000000000000000000000000000000000000000000000000000000000000000000000000000000000000302201700000000            000000000000000                              000                           
0010001300209T 020180230000001544772 29577050403203533   788888888888889905022017000000000007500001046280888888888888899          0900000000000010000000000000000000000000000000000000000   0000000000000000000000000A9        170192957705     
0010001300210U 020000000000000000000000000000000000000000000000000000000000000000000000000000000000000000000000000000000000000000000000000302201700000000            000000000000000                              000                           
0010001300211T 020180230000001544772 29577050403323628   78888888888888990502201700000000000750000103049X888888888888899          0900000000000010000000000000000000000000000000000000000   0000000000000000000000000A9        170192957705     
0010001300212U 020000000000000000000000000000000000000000000000000000000000000000000000000000000000000000000000000000000000000000000000000302201700000000            000000000000000                              000                           
0010001300213T 020180230000001544772 29577050403432847   78888888888888990502201700000000000750000103049X888888888888899          0900000000000010000000000000000000000000000000000000000   0000000000000000000000000A9        170192957705     
0010001300214U 020000000000000000000000000000000000000000000000000000000000000000000000000000000000000000000000000000000000000000000000000302201700000000            000000000000000                              000                           
0010001300215T 020180230000001544772 29577050403539527   788888888888889905022017000000000007500001012408888888888888899          0900000000000010500000000000000000000000000000000000000   0000000000000000000000000A9A4      170192957705     
0010001300216U 020000000000000000000000000000000000000000000000000000000000000000000000000000000000000000000000000000000000000000000000000302201700000000            000000000000000                              000                           
0010001300217T 020180230000001544772 29577050403750924   788888888888889905022017000000000007500001012408888888888888899          0900000000000010000000000000000000000000000000000000000   0000000000000000000000000A9        170192957705     
0010001300218U 020000000000000000000000000000000000000000000000000000000000000000000000000000000000000000000000000000000000000000000000000302201700000000            000000000000000                              000                           
0010001300219T 020180230000001544772 29577050403808079   788888888888889905022017000000000007500001012416888888888888899          0900000000000010000000000000000000000000000000000000000   0000000000000000000000000A9        170192957705     
0010001300220U 020000000000000000000000000000000000000000000000000000000000000000000000000000000000000000000000000000000000000000000000000302201700000000            000000000000000                              000                           
0010001300221T 020180230000001544772 29577050403919525   788888888888889905022017000000000007500001012416888888888888899          0900000000000010000000000000000000000000000000000000000   0000000000000000000000000A9        170192957705     
0010001300222U 020000000000000000000000000000000000000000000000000000000000000000000000000000000000000000000000000000000000000000000000000302201700000000            000000000000000                              000                           
0010001300223T 020180230000001544772 29577050404059495   788888888888889905022017000000000007500001012416888888888888899          0900000000000010000000000000000000000000000000000000000   0000000000000000000000000A9        170192957705     
0010001300224U 020000000000000000000000000000000000000000000000000000000000000000000000000000000000000000000000000000000000000000000000000302201700000000            000000000000000                              000                           
0010001300225T 020180230000001544772 29577050404224713   788888888888889905022017000000000007500001012408888888888888899          0900000000000010000000000000000000000000000000000000000   0000000000000000000000000A9        170192957705     
0010001300226U 020000000000000000000000000000000000000000000000000000000000000000000000000000000000000000000000000000000000000000000000000302201700000000            000000000000000                              000                           
0010001300227T 020180230000001544772 29577050404332998   788888888888889905022017000000000007500001012408888888888888899          0900000000000010000000000000000000000000000000000000000   0000000000000000000000000A9        170192957705     
0010001300228U 020000000000000000000000000000000000000000000000000000000000000000000000000000000000000000000000000000000000000000000000000302201700000000            000000000000000                              000                           
0010001300229T 020180230000001544772 29577050404511728   78888888888888990502201700000000000750000103049X888888888888899          0900000000000010000000000000000000000000000000000000000   0000000000000000000000000A9        170192957705     
0010001300230U 020000000000000000000000000000000000000000000000000000000000000000000000000000000000000000000000000000000000000000000000000302201700000000            000000000000000                              000                           
0010001300231T 020180230000001544772 29577050404650159   788888888888889905022017000000000007500001012408888888888888899          0900000000000010000000000000000000000000000000000000000   0000000000000000000000000A9        170192957705     
0010001300232U 020000000000000000000000000000000000000000000000000000000000000000000000000000000000000000000000000000000000000000000000000302201700000000            000000000000000                              000                           
0010001300233T 020180230000001544772 29577050404733205   78888888888888990502201700000000000750000103049X888888888888899          0900000000000010000000000000000000000000000000000000000   0000000000000000000000000A9        170192957705     
0010001300234U 020000000000000000000000000000000000000000000000000000000000000000000000000000000000000000000000000000000000000000000000000302201700000000            000000000000000                              000                           
0010001300235T 020180230000001544772 29577050404836003   788888888888889905022017000000000007500001000213888888888888899          0900000000000010000000000000000000000000000000000000000   0000000000000000000000000A9        170192957705     
0010001300236U 020000000000000000000000000000000000000000000000000000000000000000000000000000000000000000000000000000000000000000000000000302201700000000            000000000000000                              000                           
0010001300237T 020180230000001544772 29577050404916308   788888888888889905022017000000000007500001004782888888888888899          0900000000000010000000000000000000000000000000000000000   0000000000000000000000000A9        170192957705     
0010001300238U 020000000000000000000000000000000000000000000000000000000000000000000000000000000000000000000000000000000000000000000000000302201700000000            000000000000000                              000                           
0010001300239T 020180230000001544772 29577050405018432   788888888888889905022017000000000007500001012416888888888888899          0900000000000010000000000000000000000000000000000000000   0000000000000000000000000A9        170192957705     
0010001300240U 020000000000000000000000000000000000000000000000000000000000000000000000000000000000000000000000000000000000000000000000000302201700000000            000000000000000                              000                           
0010001300241T 020180230000001544772 29577050405105830   788888888888889905022017000000000007500001000213888888888888899          0900000000000010000000000000000000000000000000000000000   0000000000000000000000000A9        170192957705     
0010001300242U 020000000000000000000000000000000000000000000000000000000000000000000000000000000000000000000000000000000000000000000000000302201700000000            000000000000000                              000                           
0010001300243T 020180230000001544772 29577050405201591   78888888888888990502201700000000001000000103049X888888888888899          0900000000000010000000000000000000000000000000000000000   0000000000000000000000000A9        170192957705     
0010001300244U 020000000000000000000000000000000000000000000000000000000000000000000000000000000000000000000000000000000000000000000000000302201700000000            000000000000000                              000                           
0010001300245T 020180230000001544772 29577050405242485   78888888888888990502201700000000001000000103049X888888888888899          0900000000000010000000000000000000000000000000000000000   0000000000000000000000000A9        170192957705     
0010001300246U 020000000000000000000000000000000000000000000000000000000000000000000000000000000000000000000000000000000000000000000000000302201700000000            000000000000000                              000                           
0010001300247T 020180230000001544772 29577050405401646   788888888888889905022017000000000007500001012408888888888888899          0900000000000010000000000000000000000000000000000000000   0000000000000000000000000A9        170192957705     
0010001300248U 020000000000000000000000000000000000000000000000000000000000000000000000000000000000000000000000000000000000000000000000000302201700000000            000000000000000                              000                           
0010001300249T 020180230000001544772 29577050405544017   78888888888888990502201700000000000750000103049X888888888888899          0900000000000010000000000000000000000000000000000000000   0000000000000000000000000A9        170192957705     
0010001300250U 020000000000000000000000000000000000000000000000000000000000000000000000000000000000000000000000000000000000000000000000000302201700000000            000000000000000                              000                           
0010001300251T 020180230000001544772 29577050405638097   78888888888888990502201700000000000750000103049X888888888888899          0900000000000010000000000000000000000000000000000000000   0000000000000000000000000A9        170192957705     
0010001300252U 020000000000000000000000000000000000000000000000000000000000000000000000000000000000000000000000000000000000000000000000000302201700000000            000000000000000                              000                           
0010001300253T 020180230000001544772 29577050405744652   788888888888889905022017000000000010000001000213888888888888899          0900000000000010000000000000000000000000000000000000000   0000000000000000000000000A9        170192957705     
0010001300254U 020000000000000000000000000000000000000000000000000000000000000000000000000000000000000000000000000000000000000000000000000302201700000000            000000000000000                              000                           
0010001300255T 020180230000001544772 29577050405845611   788888888888889905022017000000000007500001046280888888888888899          0900000000000010000000000000000000000000000000000000000   0000000000000000000000000A9        170192957705     
0010001300256U 020000000000000000000000000000000000000000000000000000000000000000000000000000000000000000000000000000000000000000000000000302201700000000            000000000000000                              000                           
0010001300257T 020180230000001544772 29577050405900157   788888888888889905022017000000000007500001012416888888888888899          0900000000000010000000000000000000000000000000000000000   0000000000000000000000000A9        170192957705     
0010001300258U 020000000000000000000000000000000000000000000000000000000000000000000000000000000000000000000000000000000000000000000000000302201700000000            000000000000000                              000                           
0010001300259T 020180230000001544772 29577050405934280   788888888888889905022017000000000007500001012416888888888888899          0900000000000010000000000000000000000000000000000000000   0000000000000000000000000A9        170192957705     
0010001300260U 020000000000000000000000000000000000000000000000000000000000000000000000000000000000000000000000000000000000000000000000000302201700000000            000000000000000                              000                           
0010001300261T 020180230000001544772 29577050405958600   788888888888889905022017000000000007500001012416888888888888899          0900000000000010000000000000000000000000000000000000000   0000000000000000000000000A9        170192957705     
0010001300262U 020000000000000000000000000000000000000000000000000000000000000000000000000000000000000000000000000000000000000000000000000302201700000000            000000000000000                              000                           
0010001300263T 020180230000001544772 29577050405959884   788888888888889905022017000000000007500001012416888888888888899          0900000000000010000000000000000000000000000000000000000   0000000000000000000000000A9        170192957705     
0010001300264U 020000000000000000000000000000000000000000000000000000000000000000000000000000000000000000000000000000000000000000000000000302201700000000            000000000000000                              000                           
0010001300265T 020180230000001544772 29577050406036271   788888888888889905022017000000000007500001046280888888888888899          0900000000000010000000000000000000000000000000000000000   0000000000000000000000000A9        170192957705     
0010001300266U 020000000000000000000000000000000000000000000000000000000000000000000000000000000000000000000000000000000000000000000000000302201700000000            000000000000000                              000                           
0010001300267T 020180230000001544772 29577050406147657   788888888888889905022017000000000007500001012408888888888888899          0900000000000010000000000000000000000000000000000000000   0000000000000000000000000A9        170192957705     
0010001300268U 020000000000000000000000000000000000000000000000000000000000000000000000000000000000000000000000000000000000000000000000000302201700000000            000000000000000                              000                           
0010001300269T 020180230000001544772 29577050406257609   788888888888889905022017000000000007500001009245888888888888899          0900000000000010000000000000000000000000000000000000000   0000000000000000000000000A9        170192957705     
0010001300270U 020000000000000000000000000000000000000000000000000000000000000000000000000000000000000000000000000000000000000000000000000302201700000000            000000000000000                              000                           
0010001300271T 020180230000001544772 29577050406404743   788888888888889905022017000000000007500001012416888888888888899          0900000000000010000000000000000000000000000000000000000   0000000000000000000000000A9        170192957705     
0010001300272U 020000000000000000000000000000000000000000000000000000000000000000000000000000000000000000000000000000000000000000000000000302201700000000            000000000000000                              000                           
0010001300273T 020180230000001544772 29577050406624855   788888888888889905022017000000000007500001012408888888888888899          0900000000000010000000000000000000000000000000000000000   0000000000000000000000000A9        170192957705     
0010001300274U 020000000000000000000000000000000000000000000000000000000000000000000000000000000000000000000000000000000000000000000000000302201700000000            000000000000000                              000                           
0010001300275T 020180230000001544772 29577050406717429   788888888888889905022017000000000007500001012408888888888888899          0900000000000010500000000000000000000000000000000000000   0000000000000000000000000A9A4      170192957705     
0010001300276U 020000000000000000000000000000000000000000000000000000000000000000000000000000000000000000000000000000000000000000000000000302201700000000            000000000000000                              000                           
0010001300277T 020180230000001544772 29577050406855506   788888888888889905022017000000000007500001012416888888888888899          0900000000000010000000000000000000000000000000000000000   0000000000000000000000000A9        170192957705     
0010001300278U 020000000000000000000000000000000000000000000000000000000000000000000000000000000000000000000000000000000000000000000000000302201700000000            000000000000000                              000                           
0010001300279T 020180230000001544772 29577050406925923   788888888888889905022017000000000007500001004782888888888888899          0900000000000010000000000000000000000000000000000000000   0000000000000000000000000A9        170192957705     
0010001300280U 020000000000000000000000000000000000000000000000000000000000000000000000000000000000000000000000000000000000000000000000000302201700000000            000000000000000                              000                           
0010001300281T 020180230000001544772 29577050407046129   78888888888888990502201700000000001000000103049X888888888888899          0900000000000010000000000000000000000000000000000000000   0000000000000000000000000A9        170192957705     
0010001300282U 020000000000000000000000000000000000000000000000000000000000000000000000000000000000000000000000000000000000000000000000000302201700000000            000000000000000                              000                           
0010001300283T 020180230000001544772 29577050407105338   788888888888889905022017000000000007500001012408888888888888899          0900000000000010000000000000000000000000000000000000000   0000000000000000000000000A9        170192957705     
0010001300284U 020000000000000000000000000000000000000000000000000000000000000000000000000000000000000000000000000000000000000000000000000302201700000000            000000000000000                              000                           
0010001300285T 020180230000001544772 29577050407424248   78888888888888990502201700000000000750000103049X888888888888899          0900000000000010500000000000000000000000000000000000000   0000000000000000000000000A9A4      170192957705     
0010001300286U 020000000000000000000000000000000000000000000000000000000000000000000000000000000000000000000000000000000000000000000000000302201700000000            000000000000000                              000                           
0010001300287T 020180230000001544772 29577050407559262   78888888888888990502201700000000000750000103049X888888888888899          0900000000000010000000000000000000000000000000000000000   0000000000000000000000000A9        170192957705     
0010001300288U 020000000000000000000000000000000000000000000000000000000000000000000000000000000000000000000000000000000000000000000000000302201700000000            000000000000000                              000                           
0010001300289T 020180230000001544772 29577050407637369   788888888888889905022017000000000007500001012408888888888888899          0900000000000010000000000000000000000000000000000000000   0000000000000000000000000A9        170192957705     
0010001300290U 020000000000000000000000000000000000000000000000000000000000000000000000000000000000000000000000000000000000000000000000000302201700000000            000000000000000                              000                           
0010001300291T 020180230000001544772 29577050407730309   788888888888889905022017000000000010000001012408888888888888899          0900000000000010000000000000000000000000000000000000000   0000000000000000000000000A9        170192957705     
0010001300292U 020000000000000000000000000000000000000000000000000000000000000000000000000000000000000000000000000000000000000000000000000302201700000000            000000000000000                              000                           
0010001300293T 020180230000001544772 29577050407823290   788888888888889905022017000000000010000001000213888888888888899          0900000000000010000000000000000000000000000000000000000   0000000000000000000000000A9        170192957705     
0010001300294U 020000000000000000000000000000000000000000000000000000000000000000000000000000000000000000000000000000000000000000000000000302201700000000            000000000000000                              000                           
0010001300295T 020180230000001544772 29577050407945555   78888888888888990502201700000000000750000103049X888888888888899          0900000000000010000000000000000000000000000000000000000   0000000000000000000000000A9        170192957705     
0010001300296U 020000000000000000000000000000000000000000000000000000000000000000000000000000000000000000000000000000000000000000000000000302201700000000            000000000000000                              000                           
0010001300297T 020180230000001544772 29577050408044751   788888888888889905022017000000000007500001000213888888888888899          0900000000000010500000000000000000000000000000000000000   0000000000000000000000000A9A4      170192957705     
0010001300298U 020000000000000000000000000000000000000000000000000000000000000000000000000000000000000000000000000000000000000000000000000302201700000000            000000000000000                              000                           
0010001300299T 020180230000001544772 29577050408111939   788888888888889905022017000000000010000001000833888888888888899          0900000000000010000000000000000000000000000000000000000   0000000000000000000000000A9        170192957705     
0010001300300U 020000000000000000000000000000000000000000000000000000000000000000000000000000000000000000000000000000000000000000000000000302201700000000            000000000000000                              000                           
0010001300301T 020180230000001544772 29577050408252151   788888888888889905022017000000000007500001000213888888888888899          0900000000000010000000000000000000000000000000000000000   0000000000000000000000000A9        170192957705     
0010001300302U 020000000000000000000000000000000000000000000000000000000000000000000000000000000000000000000000000000000000000000000000000302201700000000            000000000000000                              000                           
0010001300303T 020180230000001544772 29577050408311211   788888888888889905022017000000000007500001012408888888888888899          0900000000000010000000000000000000000000000000000000000   0000000000000000000000000A9        170192957705     
0010001300304U 020000000000000000000000000000000000000000000000000000000000000000000000000000000000000000000000000000000000000000000000000302201700000000            000000000000000                              000                           
0010001300305T 020180230000001544772 29577050408534035   788888888888889905022017000000000007500001000213888888888888899          0900000000000010000000000000000000000000000000000000000   0000000000000000000000000A9        170192957705     
0010001300306U 020000000000000000000000000000000000000000000000000000000000000000000000000000000000000000000000000000000000000000000000000302201700000000            000000000000000                              000                           
0010001300307T 020180230000001544772 29577050408637412   788888888888889905022017000000000007500001000213888888888888899          0900000000000010000000000000000000000000000000000000000   0000000000000000000000000A9        170192957705     
0010001300308U 020000000000000000000000000000000000000000000000000000000000000000000000000000000000000000000000000000000000000000000000000302201700000000            000000000000000                              000                           
0010001300309T 020180230000001544772 29577050408804248   788888888888889905022017000000000007500001000213888888888888899          0900000000000010000000000000000000000000000000000000000   0000000000000000000000000A9        170192957705     
0010001300310U 020000000000000000000000000000000000000000000000000000000000000000000000000000000000000000000000000000000000000000000000000302201700000000            000000000000000                              000                           
0010001300311T 020180230000001544772 29577050409017142   78888888888888990502201700000000000750000103049X888888888888899          0900000000000010500000000000000000000000000000000000000   0000000000000000000000000A9A4      170192957705     
0010001300312U 020000000000000000000000000000000000000000000000000000000000000000000000000000000000000000000000000000000000000000000000000302201700000000            000000000000000                              000                           
0010001300313T 020180230000001544772 29577050409052112   78888888888888990502201700000000000750000103049X888888888888899          0900000000000010500000000000000000000000000000000000000   0000000000000000000000000A9A4      170192957705     
0010001300314U 020000000000000000000000000000000000000000000000000000000000000000000000000000000000000000000000000000000000000000000000000302201700000000            000000000000000                              000                           
0010001300315T 020180230000001544772 29577050409151333   78888888888888990502201700000000000750000103049X888888888888899          0900000000000010000000000000000000000000000000000000000   0000000000000000000000000A9        170192957705     
0010001300316U 020000000000000000000000000000000000000000000000000000000000000000000000000000000000000000000000000000000000000000000000000302201700000000            000000000000000                              000                           
0010001300317T 020180230000001544772 29577050409212716   78888888888888990502201700000000000750000103049X888888888888899          0900000000000010000000000000000000000000000000000000000   0000000000000000000000000A9        170192957705     
0010001300318U 020000000000000000000000000000000000000000000000000000000000000000000000000000000000000000000000000000000000000000000000000302201700000000            000000000000000                              000                           
0010001300319T 020180230000001544772 29577050409310078   78888888888888990502201700000000000750000103049X888888888888899          0900000000000010000000000000000000000000000000000000000   0000000000000000000000000A9        170192957705     
0010001300320U 020000000000000000000000000000000000000000000000000000000000000000000000000000000000000000000000000000000000000000000000000302201700000000            000000000000000                              000                           
0010001300321T 020180230000001544772 29577050409448784   788888888888889905022017000000000007500001012408888888888888899          0900000000000010000000000000000000000000000000000000000   0000000000000000000000000A9        170192957705     
0010001300322U 020000000000000000000000000000000000000000000000000000000000000000000000000000000000000000000000000000000000000000000000000302201700000000            000000000000000                              000                           
0010001300323T 020180230000001544772 29577050409547707   788888888888889905022017000000000007500001012408888888888888899          0900000000000010000000000000000000000000000000000000000   0000000000000000000000000A9        170192957705     
0010001300324U 020000000000000000000000000000000000000000000000000000000000000000000000000000000000000000000000000000000000000000000000000302201700000000            000000000000000                              000                           
0010001300325T 020180230000001544772 29577050409653759   788888888888889905022017000000000007500001012416888888888888899          0900000000000010000000000000000000000000000000000000000   0000000000000000000000000A9        170192957705     
0010001300326U 020000000000000000000000000000000000000000000000000000000000000000000000000000000000000000000000000000000000000000000000000302201700000000            000000000000000                              000                           
0010001300327T 020180230000001544772 29577050409746704   788888888888889905022017000000000007500001014389888888888888899          0900000000000010000000000000000000000000000000000000000   0000000000000000000000000A9        170192957705     
0010001300328U 020000000000000000000000000000000000000000000000000000000000000000000000000000000000000000000000000000000000000000000000000302201700000000            000000000000000                              000                           
0010001300329T 020180230000001544772 29577050409749091   788888888888889905022017000000000007500001014389888888888888899          0900000000000010000000000000000000000000000000000000000   0000000000000000000000000A9        170192957705     
0010001300330U 020000000000000000000000000000000000000000000000000000000000000000000000000000000000000000000000000000000000000000000000000302201700000000            000000000000000                              000                           
0010001300331T 020180230000001544772 29577050409842593   78888888888888990502201700000000000750000103049X888888888888899          0900000000000010500000000000000000000000000000000000000   0000000000000000000000000A9A4      170192957705     
0010001300332U 020000000000000000000000000000000000000000000000000000000000000000000000000000000000000000000000000000000000000000000000000302201700000000            000000000000000                              000                           
0010001300333T 020180230000001544772 29577050409917616   78888888888888990502201700000000000750000103049X888888888888899          0900000000000010000000000000000000000000000000000000000   0000000000000000000000000A9        170192957705     
0010001300334U 020000000000000000000000000000000000000000000000000000000000000000000000000000000000000000000000000000000000000000000000000302201700000000            000000000000000                              000                           
0010001300335T 020180230000001544772 29577050410032910   788888888888889905022017000000000007500001012416888888888888899          0900000000000010000000000000000000000000000000000000000   0000000000000000000000000A9        170192957705     
0010001300336U 020000000000000000000000000000000000000000000000000000000000000000000000000000000000000000000000000000000000000000000000000302201700000000            000000000000000                              000                           
0010001300337T 020180230000001544772 29577050410037059   788888888888889905022017000000000007500001012416888888888888899          0900000000000010000000000000000000000000000000000000000   0000000000000000000000000A9        170192957705     
0010001300338U 020000000000000000000000000000000000000000000000000000000000000000000000000000000000000000000000000000000000000000000000000302201700000000            000000000000000                              000                           
0010001300339T 020180230000001544772 29577050410222154   788888888888889905022017000000000007500001013269888888888888899          0900000000000010000000000000000000000000000000000000000   0000000000000000000000000A9        170192957705     
0010001300340U 020000000000000000000000000000000000000000000000000000000000000000000000000000000000000000000000000000000000000000000000000302201700000000            000000000000000                              000                           
0010001300341T 020180230000001544772 29577050410412054   788888888888889905022017000000000007500001012408888888888888899          0900000000000010000000000000000000000000000000000000000   0000000000000000000000000A9        170192957705     
0010001300342U 020000000000000000000000000000000000000000000000000000000000000000000000000000000000000000000000000000000000000000000000000302201700000000            000000000000000                              000                           
0010001300343T 020180230000001544772 29577050410531233   78888888888888990502201700000000000750000103049X888888888888899          0900000000000010000000000000000000000000000000000000000   0000000000000000000000000A9        170192957705     
0010001300344U 020000000000000000000000000000000000000000000000000000000000000000000000000000000000000000000000000000000000000000000000000302201700000000            000000000000000                              000                           
0010001300345T 020180230000001544772 29577050410620264   788888888888889905022017000000000007500001010235888888888888899          0900000000000010000000000000000000000000000000000000000   0000000000000000000000000A9        170192957705     
0010001300346U 020000000000000000000000000000000000000000000000000000000000000000000000000000000000000000000000000000000000000000000000000302201700000000            000000000000000                              000                           
0010001300347T 020180230000001544772 29577050410625082   788888888888889905022017000000000007500001010235888888888888899          0900000000000010000000000000000000000000000000000000000   0000000000000000000000000A9        170192957705     
0010001300348U 020000000000000000000000000000000000000000000000000000000000000000000000000000000000000000000000000000000000000000000000000302201700000000            000000000000000                              000                           
0010001300349T 020180230000001544772 29577050410640440   788888888888889905022017000000000007500001010235888888888888899          0900000000000010000000000000000000000000000000000000000   0000000000000000000000000A9        170192957705     
0010001300350U 020000000000000000000000000000000000000000000000000000000000000000000000000000000000000000000000000000000000000000000000000302201700000000            000000000000000                              000                           
0010001300351T 020180230000001544772 29577050410649986   788888888888889905022017000000000007500001010235888888888888899          0900000000000010000000000000000000000000000000000000000   0000000000000000000000000A9        170192957705     
0010001300352U 020000000000000000000000000000000000000000000000000000000000000000000000000000000000000000000000000000000000000000000000000302201700000000            000000000000000                              000                           
0010001300353T 020180230000001544772 29577050410701223   78888888888888990502201700000000000750000100829X888888888888899          0900000000000010000000000000000000000000000000000000000   0000000000000000000000000A9        170192957705     
0010001300354U 020000000000000000000000000000000000000000000000000000000000000000000000000000000000000000000000000000000000000000000000000302201700000000            000000000000000                              000                           
0010001300355T 020180230000001544772 29577050410814181   788888888888889905022017000000000007500001000213888888888888899          0900000000000010000000000000000000000000000000000000000   0000000000000000000000000A9        170192957705     
0010001300356U 020000000000000000000000000000000000000000000000000000000000000000000000000000000000000000000000000000000000000000000000000302201700000000            000000000000000                              000                           
0010001300357T 020180230000001544772 29577050410929589   788888888888889905022017000000000007500001012408888888888888899          0900000000000010000000000000000000000000000000000000000   0000000000000000000000000A9        170192957705     
0010001300358U 020000000000000000000000000000000000000000000000000000000000000000000000000000000000000000000000000000000000000000000000000302201700000000            000000000000000                              000                           
0010001300359T 020180230000001544772 29577050411025054   788888888888889905022017000000000007500001000213888888888888899          0900000000000010000000000000000000000000000000000000000   0000000000000000000000000A9        170192957705     
0010001300360U 020000000000000000000000000000000000000000000000000000000000000000000000000000000000000000000000000000000000000000000000000302201700000000            000000000000000                              000                           
0010001300361T 020180230000001544772 29577050411109581   788888888888889905022017000000000007500001000213888888888888899          0900000000000010000000000000000000000000000000000000000   0000000000000000000000000A9        170192957705     
0010001300362U 020000000000000000000000000000000000000000000000000000000000000000000000000000000000000000000000000000000000000000000000000302201700000000            000000000000000                              000                           
0010001300363T 020180230000001544772 29577050411203669   788888888888889905022017000000000007500001012416888888888888899          0900000000000010000000000000000000000000000000000000000   0000000000000000000000000A9        170192957705     
0010001300364U 020000000000000000000000000000000000000000000000000000000000000000000000000000000000000000000000000000000000000000000000000302201700000000            000000000000000                              000                           
0010001300365T 020180230000001544772 29577050411505018   788888888888889905022017000000000007500001046280888888888888899          0900000000000010000000000000000000000000000000000000000   0000000000000000000000000A9        170192957705     
0010001300366U 020000000000000000000000000000000000000000000000000000000000000000000000000000000000000000000000000000000000000000000000000302201700000000            000000000000000                              000                           
0010001300367T 020180230000001544772 29577050411609442   788888888888889905022017000000000007500001012408888888888888899          0900000000000010500000000000000000000000000000000000000   0000000000000000000000000A9A4      170192957705     
0010001300368U 020000000000000000000000000000000000000000000000000000000000000000000000000000000000000000000000000000000000000000000000000302201700000000            000000000000000                              000                           
0010001300369T 020180230000001544772 29577050411720675   788888888888889905022017000000000007500001000213888888888888899          0900000000000010000000000000000000000000000000000000000   0000000000000000000000000A9        170192957705     
0010001300370U 020000000000000000000000000000000000000000000000000000000000000000000000000000000000000000000000000000000000000000000000000302201700000000            000000000000000                              000                           
0010001300371T 020180230000001544772 29577050411854949   788888888888889905022017000000000007500001012408888888888888899          0900000000000010000000000000000000000000000000000000000   0000000000000000000000000A9        170192957705     
0010001300372U 020000000000000000000000000000000000000000000000000000000000000000000000000000000000000000000000000000000000000000000000000302201700000000            000000000000000                              000                           
0010001300373T 020180230000001544772 29577050411927822   788888888888889905022017000000000007500001012408888888888888899          0900000000000010000000000000000000000000000000000000000   0000000000000000000000000A9        170192957705     
0010001300374U 020000000000000000000000000000000000000000000000000000000000000000000000000000000000000000000000000000000000000000000000000302201700000000            000000000000000                              000                           
0010001300375T 020180230000001544772 29577050412026045   788888888888889905022017000000000007500001009245888888888888899          0900000000000010000000000000000000000000000000000000000   0000000000000000000000000A9        170192957705     
0010001300376U 020000000000000000000000000000000000000000000000000000000000000000000000000000000000000000000000000000000000000000000000000302201700000000            000000000000000                              000                           
0010001300377T 020180230000001544772 29577050412140117   788888888888889905022017000000000007500001000213888888888888899          0900000000000010000000000000000000000000000000000000000   0000000000000000000000000A9        170192957705     
0010001300378U 020000000000000000000000000000000000000000000000000000000000000000000000000000000000000000000000000000000000000000000000000302201700000000            000000000000000                              000                           
0010001300379T 020180230000001544772 29577050412230131   788888888888889905022017000000000007500001004782888888888888899          0900000000000010000000000000000000000000000000000000000   0000000000000000000000000A9        170192957705     
0010001300380U 020000000000000000000000000000000000000000000000000000000000000000000000000000000000000000000000000000000000000000000000000302201700000000            000000000000000                              000                           
0010001300381T 020180230000001544772 29577050412254281   788888888888889905022017000000000007500001004782888888888888899          0900000000000010000000000000000000000000000000000000000   0000000000000000000000000A9        170192957705     
0010001300382U 020000000000000000000000000000000000000000000000000000000000000000000000000000000000000000000000000000000000000000000000000302201700000000            000000000000000                              000                           
0010001300383T 020180230000001544772 29577050412302514   78888888888888990502201700000000000750000100829X888888888888899          0900000000000010000000000000000000000000000000000000000   0000000000000000000000000A9        170192957705     
0010001300384U 020000000000000000000000000000000000000000000000000000000000000000000000000000000000000000000000000000000000000000000000000302201700000000            000000000000000                              000                           
0010001300385T 020180230000001544772 29577050412433595   788888888888889905022017000000000007500001000213888888888888899          0900000000000010000000000000000000000000000000000000000   0000000000000000000000000A9        170192957705     
0010001300386U 020000000000000000000000000000000000000000000000000000000000000000000000000000000000000000000000000000000000000000000000000302201700000000            000000000000000                              000                           
0010001300387T 020180230000001544772 29577050412617106   788888888888889905022017000000000007500001009245888888888888899          0900000000000010000000000000000000000000000000000000000   0000000000000000000000000A9        170192957705     
0010001300388U 020000000000000000000000000000000000000000000000000000000000000000000000000000000000000000000000000000000000000000000000000302201700000000            000000000000000                              000                           
0010001300389T 020180230000001544772 29577050412620088   788888888888889905022017000000000007500001009245888888888888899          0900000000000010000000000000000000000000000000000000000   0000000000000000000000000A9        170192957705     
0010001300390U 020000000000000000000000000000000000000000000000000000000000000000000000000000000000000000000000000000000000000000000000000302201700000000            000000000000000                              000                           
0010001300391T 020180230000001544772 29577050412811053   788888888888889905022017000000000007500001009245888888888888899          0900000000000010000000000000000000000000000000000000000   0000000000000000000000000A9        170192957705     
0010001300392U 020000000000000000000000000000000000000000000000000000000000000000000000000000000000000000000000000000000000000000000000000302201700000000            000000000000000                              000                           
0010001300393T 020180230000001544772 29577050412822957   788888888888889905022017000000000007500001009245888888888888899          0900000000000010000000000000000000000000000000000000000   0000000000000000000000000A9        170192957705     
0010001300394U 020000000000000000000000000000000000000000000000000000000000000000000000000000000000000000000000000000000000000000000000000302201700000000            000000000000000                              000                           
0010001300395T 020180230000001544772 29577050412921018   788888888888889905022017000000000007500001012408888888888888899          0900000000000010000000000000000000000000000000000000000   0000000000000000000000000A9        170192957705     
0010001300396U 020000000000000000000000000000000000000000000000000000000000000000000000000000000000000000000000000000000000000000000000000302201700000000            000000000000000                              000                           
0010001300397T 020180230000001544772 29577050413016455   78888888888888990502201700000000000750000103049X888888888888899          0900000000000010500000000000000000000000000000000000000   0000000000000000000000000A9A4      170192957705     
0010001300398U 020000000000000000000000000000000000000000000000000000000000000000000000000000000000000000000000000000000000000000000000000302201700000000            000000000000000                              000                           
0010001300399T 020180230000001544772 29577050413136555   788888888888889905022017000000000007500001012416888888888888899          0900000000000010000000000000000000000000000000000000000   0000000000000000000000000A9        170192957705     
0010001300400U 020000000000000000000000000000000000000000000000000000000000000000000000000000000000000000000000000000000000000000000000000302201700000000            000000000000000                              000                           
0010001300401T 020180230000001544772 29577050413148895   788888888888889905022017000000000007500001012416888888888888899          0900000000000010000000000000000000000000000000000000000   0000000000000000000000000A9        170192957705     
0010001300402U 020000000000000000000000000000000000000000000000000000000000000000000000000000000000000000000000000000000000000000000000000302201700000000            000000000000000                              000                           
0010001300403T 020180230000001544772 29577050413226130   78888888888888990502201700000000000750000103049X888888888888899          0900000000000010000000000000000000000000000000000000000   0000000000000000000000000A9        170192957705     
0010001300404U 020000000000000000000000000000000000000000000000000000000000000000000000000000000000000000000000000000000000000000000000000302201700000000            000000000000000                              000                           
0010001300405T 020180230000001544772 29577050413441952   788888888888889905022017000000000007500001000213888888888888899          0900000000000010000000000000000000000000000000000000000   0000000000000000000000000A9        170192957705     
0010001300406U 020000000000000000000000000000000000000000000000000000000000000000000000000000000000000000000000000000000000000000000000000302201700000000            000000000000000                              000                           
0010001300407T 020180230000001544772 29577050413610490   788888888888889905022017000000000007500001012408888888888888899          0900000000000010000000000000000000000000000000000000000   0000000000000000000000000A9        170192957705     
0010001300408U 020000000000000000000000000000000000000000000000000000000000000000000000000000000000000000000000000000000000000000000000000302201700000000            000000000000000                              000                           
0010001300409T 020180230000001544772 29577050413847872   78888888888888990502201700000000000750000103049X888888888888899          0900000000000010000000000000000000000000000000000000000   0000000000000000000000000A9        170192957705     
0010001300410U 020000000000000000000000000000000000000000000000000000000000000000000000000000000000000000000000000000000000000000000000000302201700000000            000000000000000                              000                           
0010001300411T 020180230000001544772 29577050413922712   78888888888888990502201700000000000750000103049X888888888888899          0900000000000010000000000000000000000000000000000000000   0000000000000000000000000A9        170192957705     
0010001300412U 020000000000000000000000000000000000000000000000000000000000000000000000000000000000000000000000000000000000000000000000000302201700000000            000000000000000                              000                           
