00100000         2247745860001000029577050014       0180230000001544772 INSTITUTO DE SELECAO E TECNOLOBANCO DO BRASIL                         20602201702330800008203000000515122941PROCESSAMEN                                                 
00100011T0100020 20247745860001000029577050014       0180230000001544772 INSTITUTO DE SELECAO E TECNOLO                                                                                000000000602201700000000  000000000                      
0010001300001T 020180230000001544772 29577050020208769   788888888888889908022017000000000010000001012408888888888888899          0900000000000010000000000000000000000000000000000000000   0000000000000000000000000A9        170192957705     
0010001300002U 020000000000000000000000000000000000000000000000000000000000000000000000000000000000000000000000000000000000000000000000000602201700000000            000000000000000                              000                           
0010001300003T 020180230000001544772 29577050022927137   788888888888889908022017000000000007500001000213888888888888899          0900000000000010000000000000000000000000000000000000000   0000000000000000000000000A9        170192957705     
0010001300004U 020000000000000000000000000000000000000000000000000000000000000000000000000000000000000000000000000000000000000000000000000602201700000000            000000000000000                              000                           
0010001300005T 020180230000001544772 29577050024736450   788888888888889908022017000000000007500001000213888888888888899          0900000000000010000000000000000000000000000000000000000   0000000000000000000000000A9        170192957705     
0010001300006U 020000000000000000000000000000000000000000000000000000000000000000000000000000000000000000000000000000000000000000000000000602201700000000            000000000000000                              000                           
0010001300007T 020180230000001544772 29577050030434622   788888888888889908022017000000000007500001036900888888888888899          0900000000000010000000000000000000000000000000000000000   0000000000000000000000000A9        170192957705     
0010001300008U 020000000000000000000000000000000000000000000000000000000000000000000000000000000000000000000000000000000000000000000000000602201700000000            000000000000000                              000                           
0010001300009T 020180230000001544772 29577050040013502   788888888888889907022017000000000007500001000213888888888888899          0900000000000010000000000000000000000000000000000000000   0000000000000000000000000A9        170192957705     
0010001300010U 020000000000000000000000000000000000000000000000000000000000000000000000000000000000000000000000000000000000000000000000000602201700000000            000000000000000                              000                           
0010001300011T 020180230000001544772 29577050041925677   788888888888889908022017000000000010000001000213888888888888899          0900000000000010000000000000000000000000000000000000000   0000000000000000000000000A9        170192957705     
0010001300012U 020000000000000000000000000000000000000000000000000000000000000000000000000000000000000000000000000000000000000000000000000602201700000000            000000000000000                              000                           
0010001300013T 020180230000001544772 29577050045650737   788888888888889907022017000000000007500001000213888888888888899          0900000000000010000000000000000000000000000000000000000   0000000000000000000000000A9        170192957705     
0010001300014U 020000000000000000000000000000000000000000000000000000000000000000000000000000000000000000000000000000000000000000000000000602201700000000            000000000000000                              000                           
0010001300015T 020180230000001544772 29577050049908823   788888888888889907022017000000000007500001009245888888888888899          0900000000000010500000000000000000000000000000000000000   0000000000000000000000000A9A4      170192957705     
0010001300016U 020000000000000000000000000000000000000000000000000000000000000000000000000000000000000000000000000000000000000000000000000602201700000000            000000000000000                              000                           
0010001300017T 020180230000001544772 29577050052312807   788888888888889908022017000000000007500001000213888888888888899          0900000000000010000000000000000000000000000000000000000   0000000000000000000000000A9        170192957705     
0010001300018U 020000000000000000000000000000000000000000000000000000000000000000000000000000000000000000000000000000000000000000000000000602201700000000            000000000000000                              000                           
0010001300019T 020180230000001544772 29577050058101046   78888888888888990702201700000000000750000103049X888888888888899          0900000000000010000000000000000000000000000000000000000   0000000000000000000000000A9        170192957705     
0010001300020U 020000000000000000000000000000000000000000000000000000000000000000000000000000000000000000000000000000000000000000000000000602201700000000            000000000000000                              000                           
0010001300021T 020180230000001544772 29577050058125882   78888888888888990702201700000000000750000103049X888888888888899          0900000000000010000000000000000000000000000000000000000   0000000000000000000000000A9        170192957705     
0010001300022U 020000000000000000000000000000000000000000000000000000000000000000000000000000000000000000000000000000000000000000000000000602201700000000            000000000000000                              000                           
0010001300023T 020180230000001544772 29577050058150884   78888888888888990802201700000000000750000103049X888888888888899          0900000000000010000000000000000000000000000000000000000   0000000000000000000000000A9        170192957705     
0010001300024U 020000000000000000000000000000000000000000000000000000000000000000000000000000000000000000000000000000000000000000000000000602201700000000            000000000000000                              000                           
0010001300025T 020180230000001544772 29577050075328972   788888888888889906022017000000000007500001012416888888888888899          0900000000000010000000000000000000000000000000000000000   0000000000000000000000000A9        170192957705     
0010001300026U 020000000000000000000000000000000000000000000000000000000000000000000000000000000000000000000000000000000000000000000000000602201700000000            000000000000000                              000                           
0010001300027T 020180230000001544772 29577050079219241   78888888888888990802201700000000000750000103049X888888888888899          0900000000000010000000000000000000000000000000000000000   0000000000000000000000000A9        170192957705     
0010001300028U 020000000000000000000000000000000000000000000000000000000000000000000000000000000000000000000000000000000000000000000000000602201700000000            000000000000000                              000                           
0010001300029T 020180230000001544772 29577050079354444   78888888888888990802201700000000000750000103049X888888888888899          0900000000000010000000000000000000000000000000000000000   0000000000000000000000000A9        170192957705     
0010001300030U 020000000000000000000000000000000000000000000000000000000000000000000000000000000000000000000000000000000000000000000000000602201700000000            000000000000000                              000                           
0010001300031T 020180230000001544772 29577050084324100   788888888888889908022017000000000010000001012408888888888888899          0900000000000010000000000000000000000000000000000000000   0000000000000000000000000A9        170192957705     
0010001300032U 020000000000000000000000000000000000000000000000000000000000000000000000000000000000000000000000000000000000000000000000000602201700000000            000000000000000                              000                           
0010001300033T 020180230000001544772 29577050089105513   788888888888889908022017000000000010000001000213888888888888899          0900000000000010000000000000000000000000000000000000000   0000000000000000000000000A9        170192957705     
0010001300034U 020000000000000000000000000000000000000000000000000000000000000000000000000000000000000000000000000000000000000000000000000602201700000000            000000000000000                              000                           
0010001300035T 020180230000001544772 29577050089127368   788888888888889908022017000000000010000001000213888888888888899          0900000000000010000000000000000000000000000000000000000   0000000000000000000000000A9        170192957705     
0010001300036U 020000000000000000000000000000000000000000000000000000000000000000000000000000000000000000000000000000000000000000000000000602201700000000            000000000000000                              000                           
0010001300037T 020180230000001544772 29577050090537129   788888888888889907022017000000000007500001000213888888888888899          0900000000000010000000000000000000000000000000000000000   0000000000000000000000000A9        170192957705     
0010001300038U 020000000000000000000000000000000000000000000000000000000000000000000000000000000000000000000000000000000000000000000000000602201700000000            000000000000000                              000                           
0010001300039T 020180230000001544772 29577050095154356   788888888888889907022017000000000007500001012408888888888888899          0900000000000010000000000000000000000000000000000000000   0000000000000000000000000A9        170192957705     
0010001300040U 020000000000000000000000000000000000000000000000000000000000000000000000000000000000000000000000000000000000000000000000000602201700000000            000000000000000                              000                           
0010001300041T 020180230000001544772 29577050102925254   788888888888889906022017000000000007500001002224888888888888899          0900000000000010000000000000000000000000000000000000000   0000000000000000000000000A9        170192957705     
0010001300042U 020000000000000000000000000000000000000000000000000000000000000000000000000000000000000000000000000000000000000000000000000602201700000000            000000000000000                              000                           
0010001300043T 020180230000001544772 29577050102936836   788888888888889906022017000000000007500001002224888888888888899          0900000000000010000000000000000000000000000000000000000   0000000000000000000000000A9        170192957705     
0010001300044U 020000000000000000000000000000000000000000000000000000000000000000000000000000000000000000000000000000000000000000000000000602201700000000            000000000000000                              000                           
0010001300045T 020180230000001544772 29577050106802276   788888888888889907022017000000000007500001000213888888888888899          0900000000000010000000000000000000000000000000000000000   0000000000000000000000000A9        170192957705     
0010001300046U 020000000000000000000000000000000000000000000000000000000000000000000000000000000000000000000000000000000000000000000000000602201700000000            000000000000000                              000                           
0010001300047T 020180230000001544772 29577050110138063   788888888888889907022017000000000007500001000833888888888888899          0900000000000010000000000000000000000000000000000000000   0000000000000000000000000A9        170192957705     
0010001300048U 020000000000000000000000000000000000000000000000000000000000000000000000000000000000000000000000000000000000000000000000000602201700000000            000000000000000                              000                           
0010001300049T 020180230000001544772 29577050112437814   78888888888888990702201700000000000750000103049X888888888888899          0900000000000010500000000000000000000000000000000000000   0000000000000000000000000A9A4      170192957705     
0010001300050U 020000000000000000000000000000000000000000000000000000000000000000000000000000000000000000000000000000000000000000000000000602201700000000            000000000000000                              000                           
0010001300051T 020180230000001544772 29577050112514349   78888888888888990702201700000000000750000103049X888888888888899          0900000000000010500000000000000000000000000000000000000   0000000000000000000000000A9A4      170192957705     
0010001300052U 020000000000000000000000000000000000000000000000000000000000000000000000000000000000000000000000000000000000000000000000000602201700000000            000000000000000                              000                           
0010001300053T 020180230000001544772 29577050112630669   78888888888888990702201700000000000750000103049X888888888888899          0900000000000010500000000000000000000000000000000000000   0000000000000000000000000A9A4      170192957705     
0010001300054U 020000000000000000000000000000000000000000000000000000000000000000000000000000000000000000000000000000000000000000000000000602201700000000            000000000000000                              000                           
0010001300055T 020180230000001544772 29577050115223422   78888888888888990702201700000000000750000103049X888888888888899          0900000000000010000000000000000000000000000000000000000   0000000000000000000000000A9        170192957705     
0010001300056U 020000000000000000000000000000000000000000000000000000000000000000000000000000000000000000000000000000000000000000000000000602201700000000            000000000000000                              000                           
0010001300057T 020180230000001544772 29577050123049001   788888888888889907022017000000000007500001000833888888888888899          0900000000000010000000000000000000000000000000000000000   0000000000000000000000000A9        170192957705     
0010001300058U 020000000000000000000000000000000000000000000000000000000000000000000000000000000000000000000000000000000000000000000000000602201700000000            000000000000000                              000                           
0010001300059T 020180230000001544772 29577050130814525   788888888888889906022017000000000007500001000213888888888888899          0900000000000010000000000000000000000000000000000000000   0000000000000000000000000A9        170192957705     
0010001300060U 020000000000000000000000000000000000000000000000000000000000000000000000000000000000000000000000000000000000000000000000000602201700000000            000000000000000                              000                           
0010001300061T 020180230000001544772 29577050143554298   788888888888889908022017000000000007500001002224888888888888899          0900000000000010000000000000000000000000000000000000000   0000000000000000000000000A9        170192957705     
0010001300062U 020000000000000000000000000000000000000000000000000000000000000000000000000000000000000000000000000000000000000000000000000602201700000000            000000000000000                              000                           
0010001300063T 020180230000001544772 29577050152537651   788888888888889907022017000000000007500001000213888888888888899          0900000000000010000000000000000000000000000000000000000   0000000000000000000000000A9        170192957705     
0010001300064U 020000000000000000000000000000000000000000000000000000000000000000000000000000000000000000000000000000000000000000000000000602201700000000            000000000000000                              000                           
0010001300065T 020180230000001544772 29577050160929479   788888888888889907022017000000000007500001012416888888888888899          0900000000000010000000000000000000000000000000000000000   0000000000000000000000000A9        170192957705     
0010001300066U 020000000000000000000000000000000000000000000000000000000000000000000000000000000000000000000000000000000000000000000000000602201700000000            000000000000000                              000                           
0010001300067T 020180230000001544772 29577050167102122   788888888888889906022017000000000007500001012408888888888888899          0900000000000010500000000000000000000000000000000000000   0000000000000000000000000A9A4      170192957705     
0010001300068U 020000000000000000000000000000000000000000000000000000000000000000000000000000000000000000000000000000000000000000000000000602201700000000            000000000000000                              000                           
0010001300069T 020180230000001544772 29577050167903590   788888888888889908022017000000000007500001012408888888888888899          0900000000000010000000000000000000000000000000000000000   0000000000000000000000000A9        170192957705     
0010001300070U 020000000000000000000000000000000000000000000000000000000000000000000000000000000000000000000000000000000000000000000000000602201700000000            000000000000000                              000                           
0010001300071T 020180230000001544772 29577050167914304   788888888888889908022017000000000007500001012408888888888888899          0900000000000010000000000000000000000000000000000000000   0000000000000000000000000A9        170192957705     
0010001300072U 020000000000000000000000000000000000000000000000000000000000000000000000000000000000000000000000000000000000000000000000000602201700000000            000000000000000                              000                           
0010001300073T 020180230000001544772 29577050168945463   78888888888888990702201700000000000750000100829X888888888888899          0900000000000010000000000000000000000000000000000000000   0000000000000000000000000A9        170192957705     
0010001300074U 020000000000000000000000000000000000000000000000000000000000000000000000000000000000000000000000000000000000000000000000000602201700000000            000000000000000                              000                           
0010001300075T 020180230000001544772 29577050178011762   788888888888889906022017000000000007500001012408888888888888899          0900000000000010000000000000000000000000000000000000000   0000000000000000000000000A9        170192957705     
0010001300076U 020000000000000000000000000000000000000000000000000000000000000000000000000000000000000000000000000000000000000000000000000602201700000000            000000000000000                              000                           
0010001300077T 020180230000001544772 29577050180745081   788888888888889908022017000000000007500001000213888888888888899          0900000000000010000000000000000000000000000000000000000   0000000000000000000000000A9        170192957705     
0010001300078U 020000000000000000000000000000000000000000000000000000000000000000000000000000000000000000000000000000000000000000000000000602201700000000            000000000000000                              000                           
0010001300079T 020180230000001544772 29577050181726584   78888888888888990802201700000000000750000100829X888888888888899          0900000000000010500000000000000000000000000000000000000   0000000000000000000000000A9A4      170192957705     
0010001300080U 020000000000000000000000000000000000000000000000000000000000000000000000000000000000000000000000000000000000000000000000000602201700000000            000000000000000                              000                           
0010001300081T 020180230000001544772 29577050202618274   788888888888889908022017000000000007500001000213888888888888899          0900000000000010000000000000000000000000000000000000000   0000000000000000000000000A9        170192957705     
0010001300082U 020000000000000000000000000000000000000000000000000000000000000000000000000000000000000000000000000000000000000000000000000602201700000000            000000000000000                              000                           
0010001300083T 020180230000001544772 29577050203936022   788888888888889908022017000000000007500001012416888888888888899          0900000000000010000000000000000000000000000000000000000   0000000000000000000000000A9        170192957705     
0010001300084U 020000000000000000000000000000000000000000000000000000000000000000000000000000000000000000000000000000000000000000000000000602201700000000            000000000000000                              000                           
0010001300085T 020180230000001544772 29577050204614969   78888888888888990802201700000000000750000103049X888888888888899          0900000000000010000000000000000000000000000000000000000   0000000000000000000000000A9        170192957705     
0010001300086U 020000000000000000000000000000000000000000000000000000000000000000000000000000000000000000000000000000000000000000000000000602201700000000            000000000000000                              000                           
0010001300087T 020180230000001544772 29577050204705638   788888888888889908022017000000000007500001012416888888888888899          0900000000000010000000000000000000000000000000000000000   0000000000000000000000000A9        170192957705     
0010001300088U 020000000000000000000000000000000000000000000000000000000000000000000000000000000000000000000000000000000000000000000000000602201700000000            000000000000000                              000                           
0010001300089T 020180230000001544772 29577050208344568   788888888888889906022017000000000007500001000213888888888888899          0900000000000010000000000000000000000000000000000000000   0000000000000000000000000A9        170192957705     
0010001300090U 020000000000000000000000000000000000000000000000000000000000000000000000000000000000000000000000000000000000000000000000000602201700000000            000000000000000                              000                           
0010001300091T 020180230000001544772 29577050214953250   788888888888889908022017000000000007500001000213888888888888899          0900000000000010000000000000000000000000000000000000000   0000000000000000000000000A9        170192957705     
0010001300092U 020000000000000000000000000000000000000000000000000000000000000000000000000000000000000000000000000000000000000000000000000602201700000000            000000000000000                              000                           
0010001300093T 020180230000001544772 29577050215617551   788888888888889907022017000000000010000001012610888888888888899          0900000000000010000000000000000000000000000000000000000   0000000000000000000000000A9        170192957705     
0010001300094U 020000000000000000000000000000000000000000000000000000000000000000000000000000000000000000000000000000000000000000000000000602201700000000            000000000000000                              000                           
0010001300095T 020180230000001544772 29577050219644611   788888888888889908022017000000000007500001001120888888888888899          0900000000000010000000000000000000000000000000000000000   0000000000000000000000000A9        170192957705     
0010001300096U 020000000000000000000000000000000000000000000000000000000000000000000000000000000000000000000000000000000000000000000000000602201700000000            000000000000000                              000                           
0010001300097T 020180230000001544772 29577050233136814   78888888888888990602201700000000000750000103049X888888888888899          0900000000000010000000000000000000000000000000000000000   0000000000000000000000000A9        170192957705     
0010001300098U 020000000000000000000000000000000000000000000000000000000000000000000000000000000000000000000000000000000000000000000000000602201700000000            000000000000000                              000                           
0010001300099T 020180230000001544772 29577050233637991   788888888888889908022017000000000010000001009245888888888888899          0900000000000010000000000000000000000000000000000000000   0000000000000000000000000A9        170192957705     
0010001300100U 020000000000000000000000000000000000000000000000000000000000000000000000000000000000000000000000000000000000000000000000000602201700000000            000000000000000                              000                           
0010001300101T 020180230000001544772 29577050237637080   788888888888889908022017000000000010000001000213888888888888899          0900000000000010000000000000000000000000000000000000000   0000000000000000000000000A9        170192957705     
0010001300102U 020000000000000000000000000000000000000000000000000000000000000000000000000000000000000000000000000000000000000000000000000602201700000000            000000000000000                              000                           
0010001300103T 020180230000001544772 29577050244945861   788888888888889907022017000000000007500001000213888888888888899          0900000000000010000000000000000000000000000000000000000   0000000000000000000000000A9        170192957705     
0010001300104U 020000000000000000000000000000000000000000000000000000000000000000000000000000000000000000000000000000000000000000000000000602201700000000            000000000000000                              000                           
0010001300105T 020180230000001544772 29577050256914234   788888888888889908022017000000000007500001000213888888888888899          0900000000000010000000000000000000000000000000000000000   0000000000000000000000000A9        170192957705     
0010001300106U 020000000000000000000000000000000000000000000000000000000000000000000000000000000000000000000000000000000000000000000000000602201700000000            000000000000000                              000                           
0010001300107T 020180230000001544772 29577050257237548   788888888888889907022017000000000007500001001120888888888888899          0900000000000010000000000000000000000000000000000000000   0000000000000000000000000A9        170192957705     
0010001300108U 020000000000000000000000000000000000000000000000000000000000000000000000000000000000000000000000000000000000000000000000000602201700000000            000000000000000                              000                           
0010001300109T 020180230000001544772 29577050257251943   788888888888889906022017000000000007500001001120888888888888899          0900000000000010000000000000000000000000000000000000000   0000000000000000000000000A9        170192957705     
0010001300110U 020000000000000000000000000000000000000000000000000000000000000000000000000000000000000000000000000000000000000000000000000602201700000000            000000000000000                              000                           
0010001300111T 020180230000001544772 29577050259348551   788888888888889907022017000000000007500001012408888888888888899          0900000000000010000000000000000000000000000000000000000   0000000000000000000000000A9        170192957705     
0010001300112U 020000000000000000000000000000000000000000000000000000000000000000000000000000000000000000000000000000000000000000000000000602201700000000            000000000000000                              000                           
0010001300113T 020180230000001544772 29577050259935281   788888888888889908022017000000000010000001046280888888888888899          0900000000000010000000000000000000000000000000000000000   0000000000000000000000000A9        170192957705     
0010001300114U 020000000000000000000000000000000000000000000000000000000000000000000000000000000000000000000000000000000000000000000000000602201700000000            000000000000000                              000                           
0010001300115T 020180230000001544772 29577050265627828   78888888888888990802201700000000000750000103049X888888888888899          0900000000000010000000000000000000000000000000000000000   0000000000000000000000000A9        170192957705     
0010001300116U 020000000000000000000000000000000000000000000000000000000000000000000000000000000000000000000000000000000000000000000000000602201700000000            000000000000000                              000                           
0010001300117T 020180230000001544772 29577050271951518   788888888888889906022017000000000007500001012416888888888888899          0900000000000010000000000000000000000000000000000000000   0000000000000000000000000A9        170192957705     
0010001300118U 020000000000000000000000000000000000000000000000000000000000000000000000000000000000000000000000000000000000000000000000000602201700000000            000000000000000                              000                           
0010001300119T 020180230000001544772 29577050282652223   788888888888889908022017000000000007500001012416888888888888899          0900000000000010000000000000000000000000000000000000000   0000000000000000000000000A9        170192957705     
0010001300120U 020000000000000000000000000000000000000000000000000000000000000000000000000000000000000000000000000000000000000000000000000602201700000000            000000000000000                              000                           
0010001300121T 020180230000001544772 29577050286410132   788888888888889907022017000000000007500001012211888888888888899          0900000000000010500000000000000000000000000000000000000   0000000000000000000000000A9A4      170192957705     
0010001300122U 020000000000000000000000000000000000000000000000000000000000000000000000000000000000000000000000000000000000000000000000000602201700000000            000000000000000                              000                           
0010001300123T 020180230000001544772 29577050286418739   788888888888889907022017000000000007500001012211888888888888899          0900000000000010500000000000000000000000000000000000000   0000000000000000000000000A9A4      170192957705     
0010001300124U 020000000000000000000000000000000000000000000000000000000000000000000000000000000000000000000000000000000000000000000000000602201700000000            000000000000000                              000                           
0010001300125T 020180230000001544772 29577050287400564   788888888888889907022017000000000007500001010561888888888888899          0900000000000010000000000000000000000000000000000000000   0000000000000000000000000A9        170192957705     
0010001300126U 020000000000000000000000000000000000000000000000000000000000000000000000000000000000000000000000000000000000000000000000000602201700000000            000000000000000                              000                           
0010001300127T 020180230000001544772 29577050287446952   788888888888889908022017000000000007500001010561888888888888899          0900000000000010000000000000000000000000000000000000000   0000000000000000000000000A9        170192957705     
0010001300128U 020000000000000000000000000000000000000000000000000000000000000000000000000000000000000000000000000000000000000000000000000602201700000000            000000000000000                              000                           
0010001300129T 020180230000001544772 29577050289306905   788888888888889907022017000000000007500001014389888888888888899          0900000000000010000000000000000000000000000000000000000   0000000000000000000000000A9        170192957705     
0010001300130U 020000000000000000000000000000000000000000000000000000000000000000000000000000000000000000000000000000000000000000000000000602201700000000            000000000000000                              000                           
0010001300131T 020180230000001544772 29577050290030478   788888888888889907022017000000000007500001012408888888888888899          0900000000000010000000000000000000000000000000000000000   0000000000000000000000000A9        170192957705     
0010001300132U 020000000000000000000000000000000000000000000000000000000000000000000000000000000000000000000000000000000000000000000000000602201700000000            000000000000000                              000                           
0010001300133T 020180230000001544772 29577050291511572   788888888888889908022017000000000007500001002224888888888888899          0900000000000010000000000000000000000000000000000000000   0000000000000000000000000A9        170192957705     
0010001300134U 020000000000000000000000000000000000000000000000000000000000000000000000000000000000000000000000000000000000000000000000000602201700000000            000000000000000                              000                           
0010001300135T 020180230000001544772 29577050291858327   788888888888889906022017000000000007500001000213888888888888899          0900000000000010000000000000000000000000000000000000000   0000000000000000000000000A9        170192957705     
0010001300136U 020000000000000000000000000000000000000000000000000000000000000000000000000000000000000000000000000000000000000000000000000602201700000000            000000000000000                              000                           
0010001300137T 020180230000001544772 29577050292428006   788888888888889907022017000000000007500001012408888888888888899          0900000000000010000000000000000000000000000000000000000   0000000000000000000000000A9        170192957705     
0010001300138U 020000000000000000000000000000000000000000000000000000000000000000000000000000000000000000000000000000000000000000000000000602201700000000            000000000000000                              000                           
0010001300139T 020180230000001544772 29577050293909041   788888888888889907022017000000000007500001012416888888888888899          0900000000000010000000000000000000000000000000000000000   0000000000000000000000000A9        170192957705     
0010001300140U 020000000000000000000000000000000000000000000000000000000000000000000000000000000000000000000000000000000000000000000000000602201700000000            000000000000000                              000                           
0010001300141T 020180230000001544772 29577050319321482   788888888888889908022017000000000007500001045020888888888888899          0900000000000010000000000000000000000000000000000000000   0000000000000000000000000A9        170192957705     
0010001300142U 020000000000000000000000000000000000000000000000000000000000000000000000000000000000000000000000000000000000000000000000000602201700000000            000000000000000                              000                           
0010001300143T 020180230000001544772 29577050325452198   788888888888889906022017000000000007500001046280888888888888899          0900000000000010000000000000000000000000000000000000000   0000000000000000000000000A9        170192957705     
0010001300144U 020000000000000000000000000000000000000000000000000000000000000000000000000000000000000000000000000000000000000000000000000602201700000000            000000000000000                              000                           
0010001300145T 020180230000001544772 29577050329632194   788888888888889907022017000000000007500001000213888888888888899          0900000000000010000000000000000000000000000000000000000   0000000000000000000000000A9        170192957705     
0010001300146U 020000000000000000000000000000000000000000000000000000000000000000000000000000000000000000000000000000000000000000000000000602201700000000            000000000000000                              000                           
0010001300147T 020180230000001544772 29577050331529393   788888888888889906022017000000000010000001000213888888888888899          0900000000000010000000000000000000000000000000000000000   0000000000000000000000000A9        170192957705     
0010001300148U 020000000000000000000000000000000000000000000000000000000000000000000000000000000000000000000000000000000000000000000000000602201700000000            000000000000000                              000                           
0010001300149T 020180230000001544772 29577050336719675   788888888888889907022017000000000007500001012416888888888888899          0900000000000010000000000000000000000000000000000000000   0000000000000000000000000A9        170192957705     
0010001300150U 020000000000000000000000000000000000000000000000000000000000000000000000000000000000000000000000000000000000000000000000000602201700000000            000000000000000                              000                           
0010001300151T 020180230000001544772 29577050336752236   788888888888889907022017000000000007500001012416888888888888899          0900000000000010000000000000000000000000000000000000000   0000000000000000000000000A9        170192957705     
0010001300152U 020000000000000000000000000000000000000000000000000000000000000000000000000000000000000000000000000000000000000000000000000602201700000000            000000000000000                              000                           
0010001300153T 020180230000001544772 29577050337101071   788888888888889907022017000000000007500001000833888888888888899          0900000000000010000000000000000000000000000000000000000   0000000000000000000000000A9        170192957705     
0010001300154U 020000000000000000000000000000000000000000000000000000000000000000000000000000000000000000000000000000000000000000000000000602201700000000            000000000000000                              000                           
0010001300155T 020180230000001544772 29577050339742157   788888888888889907022017000000000010000001000213888888888888899          0900000000000010000000000000000000000000000000000000000   0000000000000000000000000A9        170192957705     
0010001300156U 020000000000000000000000000000000000000000000000000000000000000000000000000000000000000000000000000000000000000000000000000602201700000000            000000000000000                              000                           
0010001300157T 020180230000001544772 29577050342738066   788888888888889906022017000000000007500001012416888888888888899          0900000000000010000000000000000000000000000000000000000   0000000000000000000000000A9        170192957705     
0010001300158U 020000000000000000000000000000000000000000000000000000000000000000000000000000000000000000000000000000000000000000000000000602201700000000            000000000000000                              000                           
0010001300159T 020180230000001544772 29577050351652307   788888888888889908022017000000000007500001012408888888888888899          0900000000000010000000000000000000000000000000000000000   0000000000000000000000000A9        170192957705     
0010001300160U 020000000000000000000000000000000000000000000000000000000000000000000000000000000000000000000000000000000000000000000000000602201700000000            000000000000000                              000                           
0010001300161T 020180230000001544772 29577050352405831   788888888888889907022017000000000007500001012416888888888888899          0900000000000010000000000000000000000000000000000000000   0000000000000000000000000A9        170192957705     
0010001300162U 020000000000000000000000000000000000000000000000000000000000000000000000000000000000000000000000000000000000000000000000000602201700000000            000000000000000                              000                           
0010001300163T 020180230000001544772 29577050354738836   788888888888889907022017000000000007500001012408888888888888899          0900000000000010000000000000000000000000000000000000000   0000000000000000000000000A9        170192957705     
0010001300164U 020000000000000000000000000000000000000000000000000000000000000000000000000000000000000000000000000000000000000000000000000602201700000000            000000000000000                              000                           
0010001300165T 020180230000001544772 29577050356208210   788888888888889906022017000000000007500001012408888888888888899          0900000000000010000000000000000000000000000000000000000   0000000000000000000000000A9        170192957705     
0010001300166U 020000000000000000000000000000000000000000000000000000000000000000000000000000000000000000000000000000000000000000000000000602201700000000            000000000000000                              000                           
0010001300167T 020180230000001544772 29577050357914073   788888888888889908022017000000000007500001000213888888888888899          0900000000000010000000000000000000000000000000000000000   0000000000000000000000000A9        170192957705     
0010001300168U 020000000000000000000000000000000000000000000000000000000000000000000000000000000000000000000000000000000000000000000000000602201700000000            000000000000000                              000                           
0010001300169T 020180230000001544772 29577050361502517   788888888888889906022017000000000007500001012408888888888888899          0900000000000010000000000000000000000000000000000000000   0000000000000000000000000A9        170192957705     
0010001300170U 020000000000000000000000000000000000000000000000000000000000000000000000000000000000000000000000000000000000000000000000000602201700000000            000000000000000                              000                           
0010001300171T 020180230000001544772 29577050362609883   788888888888889908022017000000000007500001000213888888888888899          0900000000000010000000000000000000000000000000000000000   0000000000000000000000000A9        170192957705     
0010001300172U 020000000000000000000000000000000000000000000000000000000000000000000000000000000000000000000000000000000000000000000000000602201700000000            000000000000000                              000                           
0010001300173T 020180230000001544772 29577050367451368   78888888888888990802201700000000000750000103049X888888888888899          0900000000000010000000000000000000000000000000000000000   0000000000000000000000000A9        170192957705     
0010001300174U 020000000000000000000000000000000000000000000000000000000000000000000000000000000000000000000000000000000000000000000000000602201700000000            000000000000000                              000                           
0010001300175T 020180230000001544772 29577050376404867   788888888888889908022017000000000010000001001120888888888888899          0900000000000010000000000000000000000000000000000000000   0000000000000000000000000A9        170192957705     
0010001300176U 020000000000000000000000000000000000000000000000000000000000000000000000000000000000000000000000000000000000000000000000000602201700000000            000000000000000                              000                           
0010001300177T 020180230000001544772 29577050376442153   788888888888889908022017000000000010000001001120888888888888899          0900000000000010000000000000000000000000000000000000000   0000000000000000000000000A9        170192957705     
0010001300178U 020000000000000000000000000000000000000000000000000000000000000000000000000000000000000000000000000000000000000000000000000602201700000000            000000000000000                              000                           
0010001300179T 020180230000001544772 29577050376504757   788888888888889908022017000000000007500001001120888888888888899          0900000000000010000000000000000000000000000000000000000   0000000000000000000000000A9        170192957705     
0010001300180U 020000000000000000000000000000000000000000000000000000000000000000000000000000000000000000000000000000000000000000000000000602201700000000            000000000000000                              000                           
0010001300181T 020180230000001544772 29577050379057339   788888888888889908022017000000000007500001000213888888888888899          0900000000000010000000000000000000000000000000000000000   0000000000000000000000000A9        170192957705     
0010001300182U 020000000000000000000000000000000000000000000000000000000000000000000000000000000000000000000000000000000000000000000000000602201700000000            000000000000000                              000                           
0010001300183T 020180230000001544772 29577050379436831   78888888888888990702201700000000000750000103049X888888888888899          0900000000000010000000000000000000000000000000000000000   0000000000000000000000000A9        170192957705     
0010001300184U 020000000000000000000000000000000000000000000000000000000000000000000000000000000000000000000000000000000000000000000000000602201700000000            000000000000000                              000                           
0010001300185T 020180230000001544772 29577050379451955   78888888888888990702201700000000000750000103049X888888888888899          0900000000000010000000000000000000000000000000000000000   0000000000000000000000000A9        170192957705     
0010001300186U 020000000000000000000000000000000000000000000000000000000000000000000000000000000000000000000000000000000000000000000000000602201700000000            000000000000000                              000                           
0010001300187T 020180230000001544772 29577050379456318   78888888888888990702201700000000000750000103049X888888888888899          0900000000000010000000000000000000000000000000000000000   0000000000000000000000000A9        170192957705     
0010001300188U 020000000000000000000000000000000000000000000000000000000000000000000000000000000000000000000000000000000000000000000000000602201700000000            000000000000000                              000                           
0010001300189T 020180230000001544772 29577050385047345   78888888888888990802201700000000001000000100166X888888888888899          0900000000000010000000000000000000000000000000000000000   0000000000000000000000000A9        170192957705     
0010001300190U 020000000000000000000000000000000000000000000000000000000000000000000000000000000000000000000000000000000000000000000000000602201700000000            000000000000000                              000                           
0010001300191T 020180230000001544772 29577050385052499   78888888888888990702201700000000001000000100166X888888888888899          0900000000000010000000000000000000000000000000000000000   0000000000000000000000000A9        170192957705     
0010001300192U 020000000000000000000000000000000000000000000000000000000000000000000000000000000000000000000000000000000000000000000000000602201700000000            000000000000000                              000                           
0010001300193T 020180230000001544772 29577050391749561   788888888888889908022017000000000007500001012408888888888888899          0900000000000010000000000000000000000000000000000000000   0000000000000000000000000A9        170192957705     
0010001300194U 020000000000000000000000000000000000000000000000000000000000000000000000000000000000000000000000000000000000000000000000000602201700000000            000000000000000                              000                           
0010001300195T 020180230000001544772 29577050394622471   788888888888889908022017000000000010000001000205888888888888899          0900000000000010000000000000000000000000000000000000000   0000000000000000000000000A9        170192957705     
0010001300196U 020000000000000000000000000000000000000000000000000000000000000000000000000000000000000000000000000000000000000000000000000602201700000000            000000000000000                              000                           
0010001300197T 020180230000001544772 29577050394630372   788888888888889908022017000000000010000001000205888888888888899          0900000000000010000000000000000000000000000000000000000   0000000000000000000000000A9        170192957705     
0010001300198U 020000000000000000000000000000000000000000000000000000000000000000000000000000000000000000000000000000000000000000000000000602201700000000            000000000000000                              000                           
0010001300199T 020180230000001544772 29577050404704304   78888888888888990802201700000000000750000103049X888888888888899          0900000000000010000000000000000000000000000000000000000   0000000000000000000000000A9        170192957705     
0010001300200U 020000000000000000000000000000000000000000000000000000000000000000000000000000000000000000000000000000000000000000000000000602201700000000            000000000000000                              000                           
0010001300201T 020180230000001544772 29577050405110665   788888888888889908022017000000000007500001000213888888888888899          0900000000000010000000000000000000000000000000000000000   0000000000000000000000000A9        170192957705     
0010001300202U 020000000000000000000000000000000000000000000000000000000000000000000000000000000000000000000000000000000000000000000000000602201700000000            000000000000000                              000                           
0010001300203T 020180230000001544772 29577050405117080   788888888888889908022017000000000007500001000213888888888888899          0900000000000010000000000000000000000000000000000000000   0000000000000000000000000A9        170192957705     
0010001300204U 020000000000000000000000000000000000000000000000000000000000000000000000000000000000000000000000000000000000000000000000000602201700000000            000000000000000                              000                           
0010001300205T 020180230000001544772 29577050411704693   788888888888889908022017000000000007500001000213888888888888899          0900000000000010000000000000000000000000000000000000000   0000000000000000000000000A9        170192957705     
0010001300206U 020000000000000000000000000000000000000000000000000000000000000000000000000000000000000000000000000000000000000000000000000602201700000000            000000000000000                              000                           
0010001300207T 020180230000001544772 29577050411825387   788888888888889907022017000000000007500001012408888888888888899          0900000000000010000000000000000000000000000000000000000   0000000000000000000000000A9        170192957705     
0010001300208U 020000000000000000000000000000000000000000000000000000000000000000000000000000000000000000000000000000000000000000000000000602201700000000            000000000000000                              000                           
0010001300209T 020180230000001544772 29577050411827872   788888888888889907022017000000000007500001012408888888888888899          0900000000000010000000000000000000000000000000000000000   0000000000000000000000000A9        170192957705     
0010001300210U 020000000000000000000000000000000000000000000000000000000000000000000000000000000000000000000000000000000000000000000000000602201700000000            000000000000000                              000                           
0010001300211T 020180230000001544772 29577050411845684   788888888888889907022017000000000007500001012408888888888888899          0900000000000010000000000000000000000000000000000000000   0000000000000000000000000A9        170192957705     
0010001300212U 020000000000000000000000000000000000000000000000000000000000000000000000000000000000000000000000000000000000000000000000000602201700000000            000000000000000                              000                           
0010001300213T 020180230000001544772 29577050413418026   788888888888889908022017000000000007500001000213888888888888899          0900000000000010000000000000000000000000000000000000000   0000000000000000000000000A9        170192957705     
0010001300214U 020000000000000000000000000000000000000000000000000000000000000000000000000000000000000000000000000000000000000000000000000602201700000000            000000000000000                              000                           
0010001300215T 020180230000001544772 29577050414222614   788888888888889906022017000000000007500001000213888888888888899          0900000000000010000000000000000000000000000000000000000   0000000000000000000000000A9        170192957705     
0010001300216U 020000000000000000000000000000000000000000000000000000000000000000000000000000000000000000000000000000000000000000000000000602201700000000            000000000000000                              000                           
0010001300217T 020180230000001544772 29577050414432580   788888888888889906022017000000000007500001012408888888888888899          0900000000000010000000000000000000000000000000000000000   0000000000000000000000000A9        170192957705     
0010001300218U 020000000000000000000000000000000000000000000000000000000000000000000000000000000000000000000000000000000000000000000000000602201700000000            000000000000000                              000                           
0010001300219T 020180230000001544772 29577050414618392   78888888888888990602201700000000000750000103049X888888888888899          0900000000000010000000000000000000000000000000000000000   0000000000000000000000000A9        170192957705     
0010001300220U 020000000000000000000000000000000000000000000000000000000000000000000000000000000000000000000000000000000000000000000000000602201700000000            000000000000000                              000                           
0010001300221T 020180230000001544772 29577050414724414   78888888888888990602201700000000000750000100829X888888888888899          0900000000000010000000000000000000000000000000000000000   0000000000000000000000000A9        170192957705     
0010001300222U 020000000000000000000000000000000000000000000000000000000000000000000000000000000000000000000000000000000000000000000000000602201700000000            000000000000000                              000                           
0010001300223T 020180230000001544772 29577050414844803   788888888888889906022017000000000007500001012408888888888888899          0900000000000010000000000000000000000000000000000000000   0000000000000000000000000A9        170192957705     
0010001300224U 020000000000000000000000000000000000000000000000000000000000000000000000000000000000000000000000000000000000000000000000000602201700000000            000000000000000                              000                           
0010001300225T 020180230000001544772 29577050414937098   78888888888888990602201700000000000750000103049X888888888888899          0900000000000010000000000000000000000000000000000000000   0000000000000000000000000A9        170192957705     
0010001300226U 020000000000000000000000000000000000000000000000000000000000000000000000000000000000000000000000000000000000000000000000000602201700000000            000000000000000                              000                           
0010001300227T 020180230000001544772 29577050414959492   78888888888888990602201700000000000750000103049X888888888888899          0900000000000010000000000000000000000000000000000000000   0000000000000000000000000A9        170192957705     
0010001300228U 020000000000000000000000000000000000000000000000000000000000000000000000000000000000000000000000000000000000000000000000000602201700000000            000000000000000                              000                           
0010001300229T 020180230000001544772 29577050415002519   788888888888889906022017000000000007500001012416888888888888899          0900000000000010000000000000000000000000000000000000000   0000000000000000000000000A9        170192957705     
0010001300230U 020000000000000000000000000000000000000000000000000000000000000000000000000000000000000000000000000000000000000000000000000602201700000000            000000000000000                              000                           
0010001300231T 020180230000001544772 29577050415100176   788888888888889906022017000000000007500001012416888888888888899          0900000000000010000000000000000000000000000000000000000   0000000000000000000000000A9        170192957705     
0010001300232U 020000000000000000000000000000000000000000000000000000000000000000000000000000000000000000000000000000000000000000000000000602201700000000            000000000000000                              000                           
0010001300233T 020180230000001544772 29577050415203352   788888888888889906022017000000000007500001012416888888888888899          0900000000000010000000000000000000000000000000000000000   0000000000000000000000000A9        170192957705     
0010001300234U 020000000000000000000000000000000000000000000000000000000000000000000000000000000000000000000000000000000000000000000000000602201700000000            000000000000000                              000                           
0010001300235T 020180230000001544772 29577050415314572   78888888888888990602201700000000000750000100829X888888888888899          0900000000000010000000000000000000000000000000000000000   0000000000000000000000000A9        170192957705     
0010001300236U 020000000000000000000000000000000000000000000000000000000000000000000000000000000000000000000000000000000000000000000000000602201700000000            000000000000000                              000                           
0010001300237T 020180230000001544772 29577050415444393   788888888888889906022017000000000007500001000213888888888888899          0900000000000010000000000000000000000000000000000000000   0000000000000000000000000A9        170192957705     
0010001300238U 020000000000000000000000000000000000000000000000000000000000000000000000000000000000000000000000000000000000000000000000000602201700000000            000000000000000                              000                           
0010001300239T 020180230000001544772 29577050415543595   788888888888889906022017000000000007500001000213888888888888899          0900000000000010000000000000000000000000000000000000000   0000000000000000000000000A9        170192957705     
0010001300240U 020000000000000000000000000000000000000000000000000000000000000000000000000000000000000000000000000000000000000000000000000602201700000000            000000000000000                              000                           
0010001300241T 020180230000001544772 29577050415817110   788888888888889906022017000000000007500001000213888888888888899          0900000000000010000000000000000000000000000000000000000   0000000000000000000000000A9        170192957705     
0010001300242U 020000000000000000000000000000000000000000000000000000000000000000000000000000000000000000000000000000000000000000000000000602201700000000            000000000000000                              000                           
0010001300243T 020180230000001544772 29577050415909931   78888888888888990602201700000000000750000103049X888888888888899          0900000000000010500000000000000000000000000000000000000   0000000000000000000000000A9A4      170192957705     
0010001300244U 020000000000000000000000000000000000000000000000000000000000000000000000000000000000000000000000000000000000000000000000000602201700000000            000000000000000                              000                           
0010001300245T 020180230000001544772 29577050416019151   788888888888889906022017000000000007500001045020888888888888899          0900000000000010000000000000000000000000000000000000000   0000000000000000000000000A9        170192957705     
0010001300246U 020000000000000000000000000000000000000000000000000000000000000000000000000000000000000000000000000000000000000000000000000602201700000000            000000000000000                              000                           
0010001300247T 020180230000001544772 29577050416106248   78888888888888990602201700000000000750000103049X888888888888899          0900000000000010000000000000000000000000000000000000000   0000000000000000000000000A9        170192957705     
0010001300248U 020000000000000000000000000000000000000000000000000000000000000000000000000000000000000000000000000000000000000000000000000602201700000000            000000000000000                              000                           
0010001300249T 020180230000001544772 29577050416214354   78888888888888990602201700000000000750000103049X888888888888899          0900000000000010000000000000000000000000000000000000000   0000000000000000000000000A9        170192957705     
0010001300250U 020000000000000000000000000000000000000000000000000000000000000000000000000000000000000000000000000000000000000000000000000602201700000000            000000000000000                              000                           
0010001300251T 020180230000001544772 29577050416234189   78888888888888990602201700000000000750000103049X888888888888899          0900000000000010000000000000000000000000000000000000000   0000000000000000000000000A9        170192957705     
0010001300252U 020000000000000000000000000000000000000000000000000000000000000000000000000000000000000000000000000000000000000000000000000602201700000000            000000000000000                              000                           
0010001300253T 020180230000001544772 29577050416306494   788888888888889906022017000000000007500001007617888888888888899          0900000000000010000000000000000000000000000000000000000   0000000000000000000000000A9        170192957705     
0010001300254U 020000000000000000000000000000000000000000000000000000000000000000000000000000000000000000000000000000000000000000000000000602201700000000            000000000000000                              000                           
0010001300255T 020180230000001544772 29577050416416383   78888888888888990602201700000000000750000103049X888888888888899          0900000000000010000000000000000000000000000000000000000   0000000000000000000000000A9        170192957705     
0010001300256U 020000000000000000000000000000000000000000000000000000000000000000000000000000000000000000000000000000000000000000000000000602201700000000            000000000000000                              000                           
0010001300257T 020180230000001544772 29577050416531320   788888888888889906022017000000000007500001012408888888888888899          0900000000000010500000000000000000000000000000000000000   0000000000000000000000000A9A4      170192957705     
0010001300258U 020000000000000000000000000000000000000000000000000000000000000000000000000000000000000000000000000000000000000000000000000602201700000000            000000000000000                              000                           
0010001300259T 020180230000001544772 29577050416754625   78888888888888990602201700000000000750000103049X888888888888899          0900000000000010500000000000000000000000000000000000000   0000000000000000000000000A9A4      170192957705     
0010001300260U 020000000000000000000000000000000000000000000000000000000000000000000000000000000000000000000000000000000000000000000000000602201700000000            000000000000000                              000                           
0010001300261T 020180230000001544772 29577050416856700   788888888888889906022017000000000007500001000833888888888888899          0900000000000010500000000000000000000000000000000000000   0000000000000000000000000A9A4      170192957705     
0010001300262U 020000000000000000000000000000000000000000000000000000000000000000000000000000000000000000000000000000000000000000000000000602201700000000            000000000000000                              000                           
0010001300263T 020180230000001544772 29577050416933641   788888888888889906022017000000000007500001012408888888888888899          0900000000000010000000000000000000000000000000000000000   0000000000000000000000000A9        170192957705     
0010001300264U 020000000000000000000000000000000000000000000000000000000000000000000000000000000000000000000000000000000000000000000000000602201700000000            000000000000000                              000                           
0010001300265T 020180230000001544772 29577050417114390   788888888888889906022017000000000007500001000833888888888888899          0900000000000010000000000000000000000000000000000000000   0000000000000000000000000A9        170192957705     
0010001300266U 020000000000000000000000000000000000000000000000000000000000000000000000000000000000000000000000000000000000000000000000000602201700000000            000000000000000                              000                           
0010001300267T 020180230000001544772 29577050417341398   78888888888888990602201700000000000750000103049X888888888888899          0900000000000010000000000000000000000000000000000000000   0000000000000000000000000A9        170192957705     
0010001300268U 020000000000000000000000000000000000000000000000000000000000000000000000000000000000000000000000000000000000000000000000000602201700000000            000000000000000                              000                           
0010001300269T 020180230000001544772 29577050417355112   78888888888888990602201700000000000750000103049X888888888888899          0900000000000010000000000000000000000000000000000000000   0000000000000000000000000A9        170192957705     
0010001300270U 020000000000000000000000000000000000000000000000000000000000000000000000000000000000000000000000000000000000000000000000000602201700000000            000000000000000                              000                           
0010001300271T 020180230000001544772 29577050417432022   788888888888889906022017000000000007500001000213888888888888899          0900000000000010000000000000000000000000000000000000000   0000000000000000000000000A9        170192957705     
0010001300272U 020000000000000000000000000000000000000000000000000000000000000000000000000000000000000000000000000000000000000000000000000602201700000000            000000000000000                              000                           
0010001300273T 020180230000001544772 29577050417526477   788888888888889906022017000000000007500001012416888888888888899          0900000000000010500000000000000000000000000000000000000   0000000000000000000000000A9A4      170192957705     
0010001300274U 020000000000000000000000000000000000000000000000000000000000000000000000000000000000000000000000000000000000000000000000000602201700000000            000000000000000                              000                           
0010001300275T 020180230000001544772 29577050417609471   788888888888889906022017000000000007500001012386888888888888899          0900000000000010500000000000000000000000000000000000000   0000000000000000000000000A9A4      170192957705     
0010001300276U 020000000000000000000000000000000000000000000000000000000000000000000000000000000000000000000000000000000000000000000000000602201700000000            000000000000000                              000                           
0010001300277T 020180230000001544772 29577050417738574   788888888888889906022017000000000007500001012408888888888888899          0900000000000010500000000000000000000000000000000000000   0000000000000000000000000A9A4      170192957705     
0010001300278U 020000000000000000000000000000000000000000000000000000000000000000000000000000000000000000000000000000000000000000000000000602201700000000            000000000000000                              000                           
0010001300279T 020180230000001544772 29577050417817837   78888888888888990602201700000000000750000103049X888888888888899          0900000000000010000000000000000000000000000000000000000   0000000000000000000000000A9        170192957705     
0010001300280U 020000000000000000000000000000000000000000000000000000000000000000000000000000000000000000000000000000000000000000000000000602201700000000            000000000000000                              000                           
0010001300281T 020180230000001544772 29577050418142404   788888888888889906022017000000000007500001000833888888888888899          0900000000000010000000000000000000000000000000000000000   0000000000000000000000000A9        170192957705     
0010001300282U 020000000000000000000000000000000000000000000000000000000000000000000000000000000000000000000000000000000000000000000000000602201700000000            000000000000000                              000                           
0010001300283T 020180230000001544772 29577050418215495   788888888888889906022017000000000010000001012408888888888888899          0900000000000010000000000000000000000000000000000000000   0000000000000000000000000A9        170192957705     
0010001300284U 020000000000000000000000000000000000000000000000000000000000000000000000000000000000000000000000000000000000000000000000000602201700000000            000000000000000                              000                           
0010001300285T 020180230000001544772 29577050418708745   788888888888889907022017000000000007500001004782888888888888899          0900000000000010500000000000000000000000000000000000000   0000000000000000000000000A9A4      170192957705     
0010001300286U 020000000000000000000000000000000000000000000000000000000000000000000000000000000000000000000000000000000000000000000000000602201700000000            000000000000000                              000                           
0010001300287T 020180230000001544772 29577050418709507   788888888888889907022017000000000007500001004782888888888888899          0900000000000010500000000000000000000000000000000000000   0000000000000000000000000A9A4      170192957705     
0010001300288U 020000000000000000000000000000000000000000000000000000000000000000000000000000000000000000000000000000000000000000000000000602201700000000            000000000000000                              000                           
0010001300289T 020180230000001544772 29577050418709570   788888888888889906022017000000000007500001004782888888888888899          0900000000000010500000000000000000000000000000000000000   0000000000000000000000000A9A4      170192957705     
0010001300290U 020000000000000000000000000000000000000000000000000000000000000000000000000000000000000000000000000000000000000000000000000602201700000000            000000000000000                              000                           
0010001300291T 020180230000001544772 29577050418714830   788888888888889907022017000000000007500001004782888888888888899          0900000000000010500000000000000000000000000000000000000   0000000000000000000000000A9A4      170192957705     
0010001300292U 020000000000000000000000000000000000000000000000000000000000000000000000000000000000000000000000000000000000000000000000000602201700000000            000000000000000                              000                           
0010001300293T 020180230000001544772 29577050418717670   788888888888889907022017000000000007500001004782888888888888899          0900000000000010500000000000000000000000000000000000000   0000000000000000000000000A9A4      170192957705     
0010001300294U 020000000000000000000000000000000000000000000000000000000000000000000000000000000000000000000000000000000000000000000000000602201700000000            000000000000000                              000                           
0010001300295T 020180230000001544772 29577050418725099   788888888888889907022017000000000007500001004782888888888888899          0900000000000010500000000000000000000000000000000000000   0000000000000000000000000A9A4      170192957705     
0010001300296U 020000000000000000000000000000000000000000000000000000000000000000000000000000000000000000000000000000000000000000000000000602201700000000            000000000000000                              000                           
0010001300297T 020180230000001544772 29577050418725347   788888888888889907022017000000000007500001004782888888888888899          0900000000000010500000000000000000000000000000000000000   0000000000000000000000000A9A4      170192957705     
0010001300298U 020000000000000000000000000000000000000000000000000000000000000000000000000000000000000000000000000000000000000000000000000602201700000000            000000000000000                              000                           
0010001300299T 020180230000001544772 29577050418732052   788888888888889906022017000000000007500001004782888888888888899          0900000000000010500000000000000000000000000000000000000   0000000000000000000000000A9A4      170192957705     
0010001300300U 020000000000000000000000000000000000000000000000000000000000000000000000000000000000000000000000000000000000000000000000000602201700000000            000000000000000                              000                           
0010001300301T 020180230000001544772 29577050418740299   788888888888889906022017000000000007500001004782888888888888899          0900000000000010500000000000000000000000000000000000000   0000000000000000000000000A9A4      170192957705     
0010001300302U 020000000000000000000000000000000000000000000000000000000000000000000000000000000000000000000000000000000000000000000000000602201700000000            000000000000000                              000                           
0010001300303T 020180230000001544772 29577050418753896   788888888888889906022017000000000007500001004782888888888888899          0900000000000010500000000000000000000000000000000000000   0000000000000000000000000A9A4      170192957705     
0010001300304U 020000000000000000000000000000000000000000000000000000000000000000000000000000000000000000000000000000000000000000000000000602201700000000            000000000000000                              000                           
0010001300305T 020180230000001544772 29577050418803905   788888888888889906022017000000000007500001012416888888888888899          0900000000000010000000000000000000000000000000000000000   0000000000000000000000000A9        170192957705     
0010001300306U 020000000000000000000000000000000000000000000000000000000000000000000000000000000000000000000000000000000000000000000000000602201700000000            000000000000000                              000                           
0010001300307T 020180230000001544772 29577050418905153   78888888888888990602201700000000000750000103049X888888888888899          0900000000000010000000000000000000000000000000000000000   0000000000000000000000000A9        170192957705     
0010001300308U 020000000000000000000000000000000000000000000000000000000000000000000000000000000000000000000000000000000000000000000000000602201700000000            000000000000000                              000                           
0010001300309T 020180230000001544772 29577050419121368   788888888888889907022017000000000010000001012408888888888888899          0900000000000010000000000000000000000000000000000000000   0000000000000000000000000A9        170192957705     
0010001300310U 020000000000000000000000000000000000000000000000000000000000000000000000000000000000000000000000000000000000000000000000000602201700000000            000000000000000                              000                           
0010001300311T 020180230000001544772 29577050419245578   788888888888889907022017000000000007500001009245888888888888899          0900000000000010500000000000000000000000000000000000000   0000000000000000000000000A9A4      170192957705     
0010001300312U 020000000000000000000000000000000000000000000000000000000000000000000000000000000000000000000000000000000000000000000000000602201700000000            000000000000000                              000                           
0010001300313T 020180230000001544772 29577050419348215   788888888888889907022017000000000007500001009245888888888888899          0900000000000010500000000000000000000000000000000000000   0000000000000000000000000A9A4      170192957705     
0010001300314U 020000000000000000000000000000000000000000000000000000000000000000000000000000000000000000000000000000000000000000000000000602201700000000            000000000000000                              000                           
0010001300315T 020180230000001544772 29577050419414327   788888888888889907022017000000000007500001000213888888888888899          0900000000000010000000000000000000000000000000000000000   0000000000000000000000000A9        170192957705     
0010001300316U 020000000000000000000000000000000000000000000000000000000000000000000000000000000000000000000000000000000000000000000000000602201700000000            000000000000000                              000                           
0010001300317T 020180230000001544772 29577050419557488   78888888888888990702201700000000000750000103049X888888888888899          0900000000000010000000000000000000000000000000000000000   0000000000000000000000000A9        170192957705     
0010001300318U 020000000000000000000000000000000000000000000000000000000000000000000000000000000000000000000000000000000000000000000000000602201700000000            000000000000000                              000                           
0010001300319T 020180230000001544772 29577050419642379   788888888888889907022017000000000010000001014389888888888888899          0900000000000010000000000000000000000000000000000000000   0000000000000000000000000A9        170192957705     
0010001300320U 020000000000000000000000000000000000000000000000000000000000000000000000000000000000000000000000000000000000000000000000000602201700000000            000000000000000                              000                           
0010001300321T 020180230000001544772 29577050419749592   788888888888889907022017000000000007500001000213888888888888899          0900000000000010000000000000000000000000000000000000000   0000000000000000000000000A9        170192957705     
0010001300322U 020000000000000000000000000000000000000000000000000000000000000000000000000000000000000000000000000000000000000000000000000602201700000000            000000000000000                              000                           
0010001300323T 020180230000001544772 29577050419839652   788888888888889907022017000000000007500001000213888888888888899          0900000000000010000000000000000000000000000000000000000   0000000000000000000000000A9        170192957705     
0010001300324U 020000000000000000000000000000000000000000000000000000000000000000000000000000000000000000000000000000000000000000000000000602201700000000            000000000000000                              000                           
0010001300325T 020180230000001544772 29577050420011604   788888888888889907022017000000000010000001012408888888888888899          0900000000000010000000000000000000000000000000000000000   0000000000000000000000000A9        170192957705     
0010001300326U 020000000000000000000000000000000000000000000000000000000000000000000000000000000000000000000000000000000000000000000000000602201700000000            000000000000000                              000                           
0010001300327T 020180230000001544772 29577050420246810   788888888888889907022017000000000007500001012408888888888888899          0900000000000010000000000000000000000000000000000000000   0000000000000000000000000A9        170192957705     
0010001300328U 020000000000000000000000000000000000000000000000000000000000000000000000000000000000000000000000000000000000000000000000000602201700000000            000000000000000                              000                           
0010001300329T 020180230000001544772 29577050420313476   78888888888888990702201700000000000750000103049X888888888888899          0900000000000010000000000000000000000000000000000000000   0000000000000000000000000A9        170192957705     
0010001300330U 020000000000000000000000000000000000000000000000000000000000000000000000000000000000000000000000000000000000000000000000000602201700000000            000000000000000                              000                           
0010001300331T 020180230000001544772 29577050420415679   788888888888889907022017000000000007500001000213888888888888899          0900000000000010000000000000000000000000000000000000000   0000000000000000000000000A9        170192957705     
0010001300332U 020000000000000000000000000000000000000000000000000000000000000000000000000000000000000000000000000000000000000000000000000602201700000000            000000000000000                              000                           
0010001300333T 020180230000001544772 29577050420537552   788888888888889907022017000000000007500001012408888888888888899          0900000000000010000000000000000000000000000000000000000   0000000000000000000000000A9        170192957705     
0010001300334U 020000000000000000000000000000000000000000000000000000000000000000000000000000000000000000000000000000000000000000000000000602201700000000            000000000000000                              000                           
0010001300335T 020180230000001544772 29577050420636766   788888888888889907022017000000000007500001012408888888888888899          0900000000000010000000000000000000000000000000000000000   0000000000000000000000000A9        170192957705     
0010001300336U 020000000000000000000000000000000000000000000000000000000000000000000000000000000000000000000000000000000000000000000000000602201700000000            000000000000000                              000                           
0010001300337T 020180230000001544772 29577050420747200   78888888888888990702201700000000000750000103049X888888888888899          0900000000000010000000000000000000000000000000000000000   0000000000000000000000000A9        170192957705     
0010001300338U 020000000000000000000000000000000000000000000000000000000000000000000000000000000000000000000000000000000000000000000000000602201700000000            000000000000000                              000                           
0010001300339T 020180230000001544772 29577050420852522   788888888888889907022017000000000007500001000833888888888888899          0900000000000010000000000000000000000000000000000000000   0000000000000000000000000A9        170192957705     
0010001300340U 020000000000000000000000000000000000000000000000000000000000000000000000000000000000000000000000000000000000000000000000000602201700000000            000000000000000                              000                           
0010001300341T 020180230000001544772 29577050420916766   788888888888889907022017000000000007500001012416888888888888899          0900000000000010000000000000000000000000000000000000000   0000000000000000000000000A9        170192957705     
0010001300342U 020000000000000000000000000000000000000000000000000000000000000000000000000000000000000000000000000000000000000000000000000602201700000000            000000000000000                              000                           
0010001300343T 020180230000001544772 29577050421049249   788888888888889907022017000000000007500001012416888888888888899          0900000000000010000000000000000000000000000000000000000   0000000000000000000000000A9        170192957705     
0010001300344U 020000000000000000000000000000000000000000000000000000000000000000000000000000000000000000000000000000000000000000000000000602201700000000            000000000000000                              000                           
0010001300345T 020180230000001544772 29577050421156939   788888888888889907022017000000000007500001012416888888888888899          0900000000000010000000000000000000000000000000000000000   0000000000000000000000000A9        170192957705     
0010001300346U 020000000000000000000000000000000000000000000000000000000000000000000000000000000000000000000000000000000000000000000000000602201700000000            000000000000000                              000                           
0010001300347T 020180230000001544772 29577050421238646   788888888888889907022017000000000010000001000418888888888888899          0900000000000010000000000000000000000000000000000000000   0000000000000000000000000A9        170192957705     
0010001300348U 020000000000000000000000000000000000000000000000000000000000000000000000000000000000000000000000000000000000000000000000000602201700000000            000000000000000                              000                           
0010001300349T 020180230000001544772 29577050421455389   788888888888889907022017000000000007500001004782888888888888899          0900000000000010000000000000000000000000000000000000000   0000000000000000000000000A9        170192957705     
0010001300350U 020000000000000000000000000000000000000000000000000000000000000000000000000000000000000000000000000000000000000000000000000602201700000000            000000000000000                              000                           
0010001300351T 020180230000001544772 29577050421507222   788888888888889907022017000000000007500001046280888888888888899          0900000000000010000000000000000000000000000000000000000   0000000000000000000000000A9        170192957705     
0010001300352U 020000000000000000000000000000000000000000000000000000000000000000000000000000000000000000000000000000000000000000000000000602201700000000            000000000000000                              000                           
0010001300353T 020180230000001544772 29577050421655345   788888888888889907022017000000000007500001012408888888888888899          0900000000000010000000000000000000000000000000000000000   0000000000000000000000000A9        170192957705     
0010001300354U 020000000000000000000000000000000000000000000000000000000000000000000000000000000000000000000000000000000000000000000000000602201700000000            000000000000000                              000                           
0010001300355T 020180230000001544772 29577050421710008   788888888888889907022017000000000007500001012416888888888888899          0900000000000010000000000000000000000000000000000000000   0000000000000000000000000A9        170192957705     
0010001300356U 020000000000000000000000000000000000000000000000000000000000000000000000000000000000000000000000000000000000000000000000000602201700000000            000000000000000                              000                           
0010001300357T 020180230000001544772 29577050421724322   788888888888889907022017000000000007500001012416888888888888899          0900000000000010000000000000000000000000000000000000000   0000000000000000000000000A9        170192957705     
0010001300358U 020000000000000000000000000000000000000000000000000000000000000000000000000000000000000000000000000000000000000000000000000602201700000000            000000000000000                              000                           
0010001300359T 020180230000001544772 29577050421913467   788888888888889907022017000000000007500001012408888888888888899          0900000000000010000000000000000000000000000000000000000   0000000000000000000000000A9        170192957705     
0010001300360U 020000000000000000000000000000000000000000000000000000000000000000000000000000000000000000000000000000000000000000000000000602201700000000            000000000000000                              000                           
0010001300361T 020180230000001544772 29577050422033704   78888888888888990702201700000000000750000103049X888888888888899          0900000000000010000000000000000000000000000000000000000   0000000000000000000000000A9        170192957705     
0010001300362U 020000000000000000000000000000000000000000000000000000000000000000000000000000000000000000000000000000000000000000000000000602201700000000            000000000000000                              000                           
0010001300363T 020180230000001544772 29577050422143568   788888888888889907022017000000000010000001000213888888888888899          0900000000000010000000000000000000000000000000000000000   0000000000000000000000000A9        170192957705     
0010001300364U 020000000000000000000000000000000000000000000000000000000000000000000000000000000000000000000000000000000000000000000000000602201700000000            000000000000000                              000                           
0010001300365T 020180230000001544772 29577050422206563   788888888888889907022017000000000007500001012408888888888888899          0900000000000010000000000000000000000000000000000000000   0000000000000000000000000A9        170192957705     
0010001300366U 020000000000000000000000000000000000000000000000000000000000000000000000000000000000000000000000000000000000000000000000000602201700000000            000000000000000                              000                           
0010001300367T 020180230000001544772 29577050422229557   788888888888889907022017000000000007500001012408888888888888899          0900000000000010000000000000000000000000000000000000000   0000000000000000000000000A9        170192957705     
0010001300368U 020000000000000000000000000000000000000000000000000000000000000000000000000000000000000000000000000000000000000000000000000602201700000000            000000000000000                              000                           
0010001300369T 020180230000001544772 29577050422300793   788888888888889907022017000000000007500001012408888888888888899          0900000000000010000000000000000000000000000000000000000   0000000000000000000000000A9        170192957705     
0010001300370U 020000000000000000000000000000000000000000000000000000000000000000000000000000000000000000000000000000000000000000000000000602201700000000            000000000000000                              000                           
0010001300371T 020180230000001544772 29577050422557805   788888888888889907022017000000000007500001009245888888888888899          0900000000000010000000000000000000000000000000000000000   0000000000000000000000000A9        170192957705     
0010001300372U 020000000000000000000000000000000000000000000000000000000000000000000000000000000000000000000000000000000000000000000000000602201700000000            000000000000000                              000                           
0010001300373T 020180230000001544772 29577050422616296   788888888888889907022017000000000007500001009245888888888888899          0900000000000010000000000000000000000000000000000000000   0000000000000000000000000A9        170192957705     
0010001300374U 020000000000000000000000000000000000000000000000000000000000000000000000000000000000000000000000000000000000000000000000000602201700000000            000000000000000                              000                           
0010001300375T 020180230000001544772 29577050422702452   788888888888889907022017000000000007500001012408888888888888899          0900000000000010000000000000000000000000000000000000000   0000000000000000000000000A9        170192957705     
0010001300376U 020000000000000000000000000000000000000000000000000000000000000000000000000000000000000000000000000000000000000000000000000602201700000000            000000000000000                              000                           
0010001300377T 020180230000001544772 29577050422859195   788888888888889907022017000000000007500001000213888888888888899          0900000000000010000000000000000000000000000000000000000   0000000000000000000000000A9        170192957705     
0010001300378U 020000000000000000000000000000000000000000000000000000000000000000000000000000000000000000000000000000000000000000000000000602201700000000            000000000000000                              000                           
0010001300379T 020180230000001544772 29577050422955809   788888888888889907022017000000000007500001000213888888888888899          0900000000000010000000000000000000000000000000000000000   0000000000000000000000000A9        170192957705     
0010001300380U 020000000000000000000000000000000000000000000000000000000000000000000000000000000000000000000000000000000000000000000000000602201700000000            000000000000000                              000                           
0010001300381T 020180230000001544772 29577050423102633   788888888888889908022017000000000007500001000213888888888888899          0900000000000010000000000000000000000000000000000000000   0000000000000000000000000A9        170192957705     
0010001300382U 020000000000000000000000000000000000000000000000000000000000000000000000000000000000000000000000000000000000000000000000000602201700000000            000000000000000                              000                           
0010001300383T 020180230000001544772 29577050423244041   788888888888889907022017000000000007500001001120888888888888899          0900000000000010000000000000000000000000000000000000000   0000000000000000000000000A9        170192957705     
0010001300384U 020000000000000000000000000000000000000000000000000000000000000000000000000000000000000000000000000000000000000000000000000602201700000000            000000000000000                              000                           
0010001300385T 020180230000001544772 29577050423357891   788888888888889907022017000000000007500001012408888888888888899          0900000000000010000000000000000000000000000000000000000   0000000000000000000000000A9        170192957705     
0010001300386U 020000000000000000000000000000000000000000000000000000000000000000000000000000000000000000000000000000000000000000000000000602201700000000            000000000000000                              000                           
0010001300387T 020180230000001544772 29577050423418033   788888888888889907022017000000000007500001000213888888888888899          0900000000000010000000000000000000000000000000000000000   0000000000000000000000000A9        170192957705     
0010001300388U 020000000000000000000000000000000000000000000000000000000000000000000000000000000000000000000000000000000000000000000000000602201700000000            000000000000000                              000                           
0010001300389T 020180230000001544772 29577050423526769   788888888888889907022017000000000007500001046280888888888888899          0900000000000010000000000000000000000000000000000000000   0000000000000000000000000A9        170192957705     
0010001300390U 020000000000000000000000000000000000000000000000000000000000000000000000000000000000000000000000000000000000000000000000000602201700000000            000000000000000                              000                           
0010001300391T 020180230000001544772 29577050423705530   788888888888889907022017000000000007500001000833888888888888899          0900000000000010000000000000000000000000000000000000000   0000000000000000000000000A9        170192957705     
0010001300392U 020000000000000000000000000000000000000000000000000000000000000000000000000000000000000000000000000000000000000000000000000602201700000000            000000000000000                              000                           
0010001300393T 020180230000001544772 29577050423841583   788888888888889907022017000000000007500001012408888888888888899          0900000000000010000000000000000000000000000000000000000   0000000000000000000000000A9        170192957705     
0010001300394U 020000000000000000000000000000000000000000000000000000000000000000000000000000000000000000000000000000000000000000000000000602201700000000            000000000000000                              000                           
0010001300395T 020180230000001544772 29577050424003138   788888888888889907022017000000000007500001012408888888888888899          0900000000000010000000000000000000000000000000000000000   0000000000000000000000000A9        170192957705     
0010001300396U 020000000000000000000000000000000000000000000000000000000000000000000000000000000000000000000000000000000000000000000000000602201700000000            000000000000000                              000                           
0010001300397T 020180230000001544772 29577050424113508   788888888888889907022017000000000007500001001120888888888888899          0900000000000010000000000000000000000000000000000000000   0000000000000000000000000A9        170192957705     
0010001300398U 020000000000000000000000000000000000000000000000000000000000000000000000000000000000000000000000000000000000000000000000000602201700000000            000000000000000                              000                           
0010001300399T 020180230000001544772 29577050424242509   788888888888889907022017000000000007500001012416888888888888899          0900000000000010000000000000000000000000000000000000000   0000000000000000000000000A9        170192957705     
0010001300400U 020000000000000000000000000000000000000000000000000000000000000000000000000000000000000000000000000000000000000000000000000602201700000000            000000000000000                              000                           
0010001300401T 020180230000001544772 29577050424303042   788888888888889907022017000000000007500001000833888888888888899          0900000000000010000000000000000000000000000000000000000   0000000000000000000000000A9        170192957705     
0010001300402U 020000000000000000000000000000000000000000000000000000000000000000000000000000000000000000000000000000000000000000000000000602201700000000            000000000000000                              000                           
0010001300403T 020180230000001544772 29577050424317682   788888888888889907022017000000000007500001000833888888888888899          0900000000000010000000000000000000000000000000000000000   0000000000000000000000000A9        170192957705     
0010001300404U 020000000000000000000000000000000000000000000000000000000000000000000000000000000000000000000000000000000000000000000000000602201700000000            000000000000000                              000                           
0010001300405T 020180230000001544772 29577050424409638   788888888888889907022017000000000010000001012408888888888888899          0900000000000010000000000000000000000000000000000000000   0000000000000000000000000A9        170192957705     
0010001300406U 020000000000000000000000000000000000000000000000000000000000000000000000000000000000000000000000000000000000000000000000000602201700000000            000000000000000                              000                           
0010001300407T 020180230000001544772 29577050424633898   788888888888889907022017000000000007500001012408888888888888899          0900000000000010000000000000000000000000000000000000000   0000000000000000000000000A9        170192957705     
0010001300408U 020000000000000000000000000000000000000000000000000000000000000000000000000000000000000000000000000000000000000000000000000602201700000000            000000000000000                              000                           
0010001300409T 020180230000001544772 29577050424830221   78888888888888990702201700000000000750000103049X888888888888899          0900000000000010000000000000000000000000000000000000000   0000000000000000000000000A9        170192957705     
0010001300410U 020000000000000000000000000000000000000000000000000000000000000000000000000000000000000000000000000000000000000000000000000602201700000000            000000000000000                              000                           
0010001300411T 020180230000001544772 29577050424955838   788888888888889907022017000000000007500001012408888888888888899          0900000000000010000000000000000000000000000000000000000   0000000000000000000000000A9        170192957705     
0010001300412U 020000000000000000000000000000000000000000000000000000000000000000000000000000000000000000000000000000000000000000000000000602201700000000            000000000000000                              000                           
