00100000         2247745860001000029577050014       0180230000001544772 INSTITUTO DE SELECAO E TECNOLOBANCO DO BRASIL                         21002201701295900009003000000515122941PROCESSAMEN                                                 
00100011T0100020 20247745860001000029577050014       0180230000001544772 INSTITUTO DE SELECAO E TECNOLO                                                                                000000001002201700000000  000000000                      
0010001300001T 020180230000001544772 29577050012720077   788888888888889912022017000000000007500001000213888888888888899          0900000000000010500000000000000000000000000000000000000   0000000000000000000000000A9A4      170192957705     
0010001300002U 020000000000000000000000000000000000000000000000000000000000000000000000000000000000000000000000000000000000000000000000001002201700000000            000000000000000                              000                           
0010001300003T 020180230000001544772 29577050018119251   788888888888889912022017000000000007500001009245888888888888899          0900000000000010000000000000000000000000000000000000000   0000000000000000000000000A9        170192957705     
0010001300004U 020000000000000000000000000000000000000000000000000000000000000000000000000000000000000000000000000000000000000000000000001002201700000000            000000000000000                              000                           
0010001300005T 020180230000001544772 29577050018613404   788888888888889912022017000000000007500001012408888888888888899          0900000000000010000000000000000000000000000000000000000   0000000000000000000000000A9        170192957705     
0010001300006U 020000000000000000000000000000000000000000000000000000000000000000000000000000000000000000000000000000000000000000000000001002201700000000            000000000000000                              000                           
0010001300007T 020180230000001544772 29577050022859615   788888888888889912022017000000000007500001000213888888888888899          0900000000000010000000000000000000000000000000000000000   0000000000000000000000000A9        170192957705     
0010001300008U 020000000000000000000000000000000000000000000000000000000000000000000000000000000000000000000000000000000000000000000000001002201700000000            000000000000000                              000                           
0010001300009T 020180230000001544772 29577050023143985   788888888888889912022017000000000007500001000213888888888888899          0900000000000010000000000000000000000000000000000000000   0000000000000000000000000A9        170192957705     
0010001300010U 020000000000000000000000000000000000000000000000000000000000000000000000000000000000000000000000000000000000000000000000001002201700000000            000000000000000                              000                           
0010001300011T 020180230000001544772 29577050023358497   788888888888889912022017000000000007500001000213888888888888899          0900000000000010000000000000000000000000000000000000000   0000000000000000000000000A9        170192957705     
0010001300012U 020000000000000000000000000000000000000000000000000000000000000000000000000000000000000000000000000000000000000000000000001002201700000000            000000000000000                              000                           
0010001300013T 020180230000001544772 29577050045053298   788888888888889912022017000000000007500001012408888888888888899          0900000000000010000000000000000000000000000000000000000   0000000000000000000000000A9        170192957705     
0010001300014U 020000000000000000000000000000000000000000000000000000000000000000000000000000000000000000000000000000000000000000000000001002201700000000            000000000000000                              000                           
0010001300015T 020180230000001544772 29577050052307644   788888888888889912022017000000000007500001000213888888888888899          0900000000000010000000000000000000000000000000000000000   0000000000000000000000000A9        170192957705     
0010001300016U 020000000000000000000000000000000000000000000000000000000000000000000000000000000000000000000000000000000000000000000000001002201700000000            000000000000000                              000                           
0010001300017T 020180230000001544772 29577050053756079   788888888888889912022017000000000007500001012416888888888888899          0900000000000010000000000000000000000000000000000000000   0000000000000000000000000A9        170192957705     
0010001300018U 020000000000000000000000000000000000000000000000000000000000000000000000000000000000000000000000000000000000000000000000001002201700000000            000000000000000                              000                           
0010001300019T 020180230000001544772 29577050069234388   788888888888889912022017000000000007500001012416888888888888899          0900000000000010000000000000000000000000000000000000000   0000000000000000000000000A9        170192957705     
0010001300020U 020000000000000000000000000000000000000000000000000000000000000000000000000000000000000000000000000000000000000000000000001002201700000000            000000000000000                              000                           
0010001300021T 020180230000001544772 29577050086916125   788888888888889912022017000000000007500001000213888888888888899          0900000000000010000000000000000000000000000000000000000   0000000000000000000000000A9        170192957705     
0010001300022U 020000000000000000000000000000000000000000000000000000000000000000000000000000000000000000000000000000000000000000000000001002201700000000            000000000000000                              000                           
0010001300023T 020180230000001544772 29577050086937824   788888888888889912022017000000000007500001000213888888888888899          0900000000000010000000000000000000000000000000000000000   0000000000000000000000000A9        170192957705     
0010001300024U 020000000000000000000000000000000000000000000000000000000000000000000000000000000000000000000000000000000000000000000000001002201700000000            000000000000000                              000                           
0010001300025T 020180230000001544772 29577050090505927   788888888888889912022017000000000007500001000213888888888888899          0900000000000010000000000000000000000000000000000000000   0000000000000000000000000A9        170192957705     
0010001300026U 020000000000000000000000000000000000000000000000000000000000000000000000000000000000000000000000000000000000000000000000001002201700000000            000000000000000                              000                           
0010001300027T 020180230000001544772 29577050091805810   788888888888889912022017000000000007500001000051888888888888899          0900000000000010500000000000000000000000000000000000000   0000000000000000000000000A9A4      170192957705     
0010001300028U 020000000000000000000000000000000000000000000000000000000000000000000000000000000000000000000000000000000000000000000000001002201700000000            000000000000000                              000                           
0010001300029T 020180230000001544772 29577050093623702   788888888888889912022017000000000007500001000213888888888888899          0900000000000010000000000000000000000000000000000000000   0000000000000000000000000A9        170192957705     
0010001300030U 020000000000000000000000000000000000000000000000000000000000000000000000000000000000000000000000000000000000000000000000001002201700000000            000000000000000                              000                           
0010001300031T 020180230000001544772 29577050105956644   788888888888889912022017000000000007500001002224888888888888899          0900000000000010000000000000000000000000000000000000000   0000000000000000000000000A9        170192957705     
0010001300032U 020000000000000000000000000000000000000000000000000000000000000000000000000000000000000000000000000000000000000000000000001002201700000000            000000000000000                              000                           
0010001300033T 020180230000001544772 29577050111320509   78888888888888991202201700000000000750000103049X888888888888899          0900000000000010000000000000000000000000000000000000000   0000000000000000000000000A9        170192957705     
0010001300034U 020000000000000000000000000000000000000000000000000000000000000000000000000000000000000000000000000000000000000000000000001002201700000000            000000000000000                              000                           
0010001300035T 020180230000001544772 29577050115904161   788888888888889912022017000000000007500001000213888888888888899          0900000000000010000000000000000000000000000000000000000   0000000000000000000000000A9        170192957705     
0010001300036U 020000000000000000000000000000000000000000000000000000000000000000000000000000000000000000000000000000000000000000000000001002201700000000            000000000000000                              000                           
0010001300037T 020180230000001544772 29577050120841994   788888888888889912022017000000000007500001012408888888888888899          0900000000000010000000000000000000000000000000000000000   0000000000000000000000000A9        170192957705     
0010001300038U 020000000000000000000000000000000000000000000000000000000000000000000000000000000000000000000000000000000000000000000000001002201700000000            000000000000000                              000                           
0010001300039T 020180230000001544772 29577050128550905   788888888888889912022017000000000010000001012408888888888888899          0900000000000010000000000000000000000000000000000000000   0000000000000000000000000A9        170192957705     
0010001300040U 020000000000000000000000000000000000000000000000000000000000000000000000000000000000000000000000000000000000000000000000001002201700000000            000000000000000                              000                           
0010001300041T 020180230000001544772 29577050155832381   788888888888889912022017000000000007500001001120888888888888899          0900000000000010000000000000000000000000000000000000000   0000000000000000000000000A9        170192957705     
0010001300042U 020000000000000000000000000000000000000000000000000000000000000000000000000000000000000000000000000000000000000000000000001002201700000000            000000000000000                              000                           
0010001300043T 020180230000001544772 29577050161419320   788888888888889912022017000000000007500001000213888888888888899          0900000000000010000000000000000000000000000000000000000   0000000000000000000000000A9        170192957705     
0010001300044U 020000000000000000000000000000000000000000000000000000000000000000000000000000000000000000000000000000000000000000000000001002201700000000            000000000000000                              000                           
0010001300045T 020180230000001544772 29577050175827340   788888888888889912022017000000000007500001012408888888888888899          0900000000000010000000000000000000000000000000000000000   0000000000000000000000000A9        170192957705     
0010001300046U 020000000000000000000000000000000000000000000000000000000000000000000000000000000000000000000000000000000000000000000000001002201700000000            000000000000000                              000                           
0010001300047T 020180230000001544772 29577050181102606   788888888888889912022017000000000007500001012408888888888888899          0900000000000010500000000000000000000000000000000000000   0000000000000000000000000A9A4      170192957705     
0010001300048U 020000000000000000000000000000000000000000000000000000000000000000000000000000000000000000000000000000000000000000000000001002201700000000            000000000000000                              000                           
0010001300049T 020180230000001544772 29577050182334221   788888888888889912022017000000000007500001000213888888888888899          0900000000000010000000000000000000000000000000000000000   0000000000000000000000000A9        170192957705     
0010001300050U 020000000000000000000000000000000000000000000000000000000000000000000000000000000000000000000000000000000000000000000000001002201700000000            000000000000000                              000                           
0010001300051T 020180230000001544772 29577050194341664   788888888888889912022017000000000007500001008443888888888888899          0900000000000010000000000000000000000000000000000000000   0000000000000000000000000A9        170192957705     
0010001300052U 020000000000000000000000000000000000000000000000000000000000000000000000000000000000000000000000000000000000000000000000001002201700000000            000000000000000                              000                           
0010001300053T 020180230000001544772 29577050207957969   78888888888888991202201700000000000750000103049X888888888888899          0900000000000010000000000000000000000000000000000000000   0000000000000000000000000A9        170192957705     
0010001300054U 020000000000000000000000000000000000000000000000000000000000000000000000000000000000000000000000000000000000000000000000001002201700000000            000000000000000                              000                           
0010001300055T 020180230000001544772 29577050208455140   788888888888889912022017000000000007500001012408888888888888899          0900000000000010000000000000000000000000000000000000000   0000000000000000000000000A9        170192957705     
0010001300056U 020000000000000000000000000000000000000000000000000000000000000000000000000000000000000000000000000000000000000000000000001002201700000000            000000000000000                              000                           
0010001300057T 020180230000001544772 29577050212441082   788888888888889912022017000000000007500001000833888888888888899          0900000000000010000000000000000000000000000000000000000   0000000000000000000000000A9        170192957705     
0010001300058U 020000000000000000000000000000000000000000000000000000000000000000000000000000000000000000000000000000000000000000000000001002201700000000            000000000000000                              000                           
0010001300059T 020180230000001544772 29577050216353774   788888888888889912022017000000000007500001009245888888888888899          0900000000000010000000000000000000000000000000000000000   0000000000000000000000000A9        170192957705     
0010001300060U 020000000000000000000000000000000000000000000000000000000000000000000000000000000000000000000000000000000000000000000000001002201700000000            000000000000000                              000                           
0010001300061T 020180230000001544772 29577050222422788   788888888888889912022017000000000007500001000051888888888888899          0900000000000010000000000000000000000000000000000000000   0000000000000000000000000A9        170192957705     
0010001300062U 020000000000000000000000000000000000000000000000000000000000000000000000000000000000000000000000000000000000000000000000001002201700000000            000000000000000                              000                           
0010001300063T 020180230000001544772 29577050234118408   788888888888889912022017000000000007500001012416888888888888899          0900000000000010000000000000000000000000000000000000000   0000000000000000000000000A9        170192957705     
0010001300064U 020000000000000000000000000000000000000000000000000000000000000000000000000000000000000000000000000000000000000000000000001002201700000000            000000000000000                              000                           
0010001300065T 020180230000001544772 29577050243918302   788888888888889912022017000000000007500001012408888888888888899          0900000000000010500000000000000000000000000000000000000   0000000000000000000000000A9A4      170192957705     
0010001300066U 020000000000000000000000000000000000000000000000000000000000000000000000000000000000000000000000000000000000000000000000001002201700000000            000000000000000                              000                           
0010001300067T 020180230000001544772 29577050255417007   788888888888889912022017000000000007500001012416888888888888899          0900000000000010000000000000000000000000000000000000000   0000000000000000000000000A9        170192957705     
0010001300068U 020000000000000000000000000000000000000000000000000000000000000000000000000000000000000000000000000000000000000000000000001002201700000000            000000000000000                              000                           
0010001300069T 020180230000001544772 29577050256026805   788888888888889912022017000000000007500001000213888888888888899          0900000000000010000000000000000000000000000000000000000   0000000000000000000000000A9        170192957705     
0010001300070U 020000000000000000000000000000000000000000000000000000000000000000000000000000000000000000000000000000000000000000000000001002201700000000            000000000000000                              000                           
0010001300071T 020180230000001544772 29577050263233969   788888888888889912022017000000000007500001000213888888888888899          0900000000000010000000000000000000000000000000000000000   0000000000000000000000000A9        170192957705     
0010001300072U 020000000000000000000000000000000000000000000000000000000000000000000000000000000000000000000000000000000000000000000000001002201700000000            000000000000000                              000                           
0010001300073T 020180230000001544772 29577050274735962   788888888888889912022017000000000007500001000833888888888888899          0900000000000010000000000000000000000000000000000000000   0000000000000000000000000A9        170192957705     
0010001300074U 020000000000000000000000000000000000000000000000000000000000000000000000000000000000000000000000000000000000000000000000001002201700000000            000000000000000                              000                           
0010001300075T 020180230000001544772 29577050308441928   788888888888889912022017000000000007500001012408888888888888899          0900000000000010000000000000000000000000000000000000000   0000000000000000000000000A9        170192957705     
0010001300076U 020000000000000000000000000000000000000000000000000000000000000000000000000000000000000000000000000000000000000000000000001002201700000000            000000000000000                              000                           
0010001300077T 020180230000001544772 29577050321440006   78888888888888991202201700000000000750000103049X888888888888899          0900000000000010000000000000000000000000000000000000000   0000000000000000000000000A9        170192957705     
0010001300078U 020000000000000000000000000000000000000000000000000000000000000000000000000000000000000000000000000000000000000000000000001002201700000000            000000000000000                              000                           
0010001300079T 020180230000001544772 29577050340946019   788888888888889912022017000000000007500001000213888888888888899          0900000000000010000000000000000000000000000000000000000   0000000000000000000000000A9        170192957705     
0010001300080U 020000000000000000000000000000000000000000000000000000000000000000000000000000000000000000000000000000000000000000000000001002201700000000            000000000000000                              000                           
0010001300081T 020180230000001544772 29577050344704676   788888888888889912022017000000000007500001009245888888888888899          0900000000000010000000000000000000000000000000000000000   0000000000000000000000000A9        170192957705     
0010001300082U 020000000000000000000000000000000000000000000000000000000000000000000000000000000000000000000000000000000000000000000000001002201700000000            000000000000000                              000                           
0010001300083T 020180230000001544772 29577050351653623   788888888888889912022017000000000007500001012408888888888888899          0900000000000010000000000000000000000000000000000000000   0000000000000000000000000A9        170192957705     
0010001300084U 020000000000000000000000000000000000000000000000000000000000000000000000000000000000000000000000000000000000000000000000001002201700000000            000000000000000                              000                           
0010001300085T 020180230000001544772 29577050353405999   788888888888889912022017000000000007500001012408888888888888899          0900000000000010000000000000000000000000000000000000000   0000000000000000000000000A9        170192957705     
0010001300086U 020000000000000000000000000000000000000000000000000000000000000000000000000000000000000000000000000000000000000000000000001002201700000000            000000000000000                              000                           
0010001300087T 020180230000001544772 29577050353437699   788888888888889912022017000000000007500001012408888888888888899          0900000000000010000000000000000000000000000000000000000   0000000000000000000000000A9        170192957705     
0010001300088U 020000000000000000000000000000000000000000000000000000000000000000000000000000000000000000000000000000000000000000000000001002201700000000            000000000000000                              000                           
0010001300089T 020180230000001544772 29577050353503541   788888888888889912022017000000000007500001002224888888888888899          0900000000000010000000000000000000000000000000000000000   0000000000000000000000000A9        170192957705     
0010001300090U 020000000000000000000000000000000000000000000000000000000000000000000000000000000000000000000000000000000000000000000000001002201700000000            000000000000000                              000                           
0010001300091T 020180230000001544772 29577050353806139   788888888888889912022017000000000010000001000213888888888888899          0900000000000010000000000000000000000000000000000000000   0000000000000000000000000A9        170192957705     
0010001300092U 020000000000000000000000000000000000000000000000000000000000000000000000000000000000000000000000000000000000000000000000001002201700000000            000000000000000                              000                           
0010001300093T 020180230000001544772 29577050353844271   788888888888889912022017000000000010000001000213888888888888899          0900000000000010000000000000000000000000000000000000000   0000000000000000000000000A9        170192957705     
0010001300094U 020000000000000000000000000000000000000000000000000000000000000000000000000000000000000000000000000000000000000000000000001002201700000000            000000000000000                              000                           
0010001300095T 020180230000001544772 29577050355140901   788888888888889912022017000000000007500001000213888888888888899          0900000000000010000000000000000000000000000000000000000   0000000000000000000000000A9        170192957705     
0010001300096U 020000000000000000000000000000000000000000000000000000000000000000000000000000000000000000000000000000000000000000000000001002201700000000            000000000000000                              000                           
0010001300097T 020180230000001544772 29577050355149246   788888888888889912022017000000000007500001000213888888888888899          0900000000000010000000000000000000000000000000000000000   0000000000000000000000000A9        170192957705     
0010001300098U 020000000000000000000000000000000000000000000000000000000000000000000000000000000000000000000000000000000000000000000000001002201700000000            000000000000000                              000                           
0010001300099T 020180230000001544772 29577050355213249   788888888888889912022017000000000007500001000213888888888888899          0900000000000010000000000000000000000000000000000000000   0000000000000000000000000A9        170192957705     
0010001300100U 020000000000000000000000000000000000000000000000000000000000000000000000000000000000000000000000000000000000000000000000001002201700000000            000000000000000                              000                           
0010001300101T 020180230000001544772 29577050355328777   788888888888889912022017000000000007500001000213888888888888899          0900000000000010000000000000000000000000000000000000000   0000000000000000000000000A9        170192957705     
0010001300102U 020000000000000000000000000000000000000000000000000000000000000000000000000000000000000000000000000000000000000000000000001002201700000000            000000000000000                              000                           
0010001300103T 020180230000001544772 29577050355345141   788888888888889912022017000000000007500001000213888888888888899          0900000000000010000000000000000000000000000000000000000   0000000000000000000000000A9        170192957705     
0010001300104U 020000000000000000000000000000000000000000000000000000000000000000000000000000000000000000000000000000000000000000000000001002201700000000            000000000000000                              000                           
0010001300105T 020180230000001544772 29577050366038314   788888888888889912022017000000000010000001000213888888888888899          0900000000000010000000000000000000000000000000000000000   0000000000000000000000000A9        170192957705     
0010001300106U 020000000000000000000000000000000000000000000000000000000000000000000000000000000000000000000000000000000000000000000000001002201700000000            000000000000000                              000                           
0010001300107T 020180230000001544772 29577050366045800   788888888888889912022017000000000010000001000213888888888888899          0900000000000010000000000000000000000000000000000000000   0000000000000000000000000A9        170192957705     
0010001300108U 020000000000000000000000000000000000000000000000000000000000000000000000000000000000000000000000000000000000000000000000001002201700000000            000000000000000                              000                           
0010001300109T 020180230000001544772 29577050376309566   788888888888889912022017000000000007500001012416888888888888899          0900000000000010000000000000000000000000000000000000000   0000000000000000000000000A9        170192957705     
0010001300110U 020000000000000000000000000000000000000000000000000000000000000000000000000000000000000000000000000000000000000000000000001002201700000000            000000000000000                              000                           
0010001300111T 020180230000001544772 29577050376331719   788888888888889912022017000000000007500001012416888888888888899          0900000000000010000000000000000000000000000000000000000   0000000000000000000000000A9        170192957705     
0010001300112U 020000000000000000000000000000000000000000000000000000000000000000000000000000000000000000000000000000000000000000000000001002201700000000            000000000000000                              000                           
0010001300113T 020180230000001544772 29577050391658217   788888888888889912022017000000000007500001012416888888888888899          0900000000000010000000000000000000000000000000000000000   0000000000000000000000000A9        170192957705     
0010001300114U 020000000000000000000000000000000000000000000000000000000000000000000000000000000000000000000000000000000000000000000000001002201700000000            000000000000000                              000                           
0010001300115T 020180230000001544772 29577050411715295   788888888888889912022017000000000007500001000213888888888888899          0900000000000010000000000000000000000000000000000000000   0000000000000000000000000A9        170192957705     
0010001300116U 020000000000000000000000000000000000000000000000000000000000000000000000000000000000000000000000000000000000000000000000001002201700000000            000000000000000                              000                           
0010001300117T 020180230000001544772 29577050411731987   788888888888889912022017000000000007500001000213888888888888899          0900000000000010000000000000000000000000000000000000000   0000000000000000000000000A9        170192957705     
0010001300118U 020000000000000000000000000000000000000000000000000000000000000000000000000000000000000000000000000000000000000000000000001002201700000000            000000000000000                              000                           
0010001300119T 020180230000001544772 29577050429109087   788888888888889912022017000000000007500001000213888888888888899          0900000000000010000000000000000000000000000000000000000   0000000000000000000000000A9        170192957705     
0010001300120U 020000000000000000000000000000000000000000000000000000000000000000000000000000000000000000000000000000000000000000000000001002201700000000            000000000000000                              000                           
0010001300121T 020180230000001544772 29577050432252850   788888888888889912022017000000000007500001012408888888888888899          0900000000000010000000000000000000000000000000000000000   0000000000000000000000000A9        170192957705     
0010001300122U 020000000000000000000000000000000000000000000000000000000000000000000000000000000000000000000000000000000000000000000000001002201700000000            000000000000000                              000                           
0010001300123T 020180230000001544772 29577050432331865   788888888888889912022017000000000007500001000213888888888888899          0900000000000010000000000000000000000000000000000000000   0000000000000000000000000A9        170192957705     
0010001300124U 020000000000000000000000000000000000000000000000000000000000000000000000000000000000000000000000000000000000000000000000001002201700000000            000000000000000                              000                           
0010001300125T 020180230000001544772 29577050433702094   788888888888889912022017000000000007500001012416888888888888899          0900000000000010000000000000000000000000000000000000000   0000000000000000000000000A9        170192957705     
0010001300126U 020000000000000000000000000000000000000000000000000000000000000000000000000000000000000000000000000000000000000000000000001002201700000000            000000000000000                              000                           
0010001300127T 020180230000001544772 29577050449510096   788888888888889912022017000000000007500001000213888888888888899          0900000000000010000000000000000000000000000000000000000   0000000000000000000000000A9        170192957705     
0010001300128U 020000000000000000000000000000000000000000000000000000000000000000000000000000000000000000000000000000000000000000000000001002201700000000            000000000000000                              000                           
0010001300129T 020180230000001544772 29577050452424880   788888888888889912022017000000000007500001007692888888888888899          0900000000000010000000000000000000000000000000000000000   0000000000000000000000000A9        170192957705     
0010001300130U 020000000000000000000000000000000000000000000000000000000000000000000000000000000000000000000000000000000000000000000000001002201700000000            000000000000000                              000                           
0010001300131T 020180230000001544772 29577050457054372   788888888888889912022017000000000007500001012408888888888888899          0900000000000010000000000000000000000000000000000000000   0000000000000000000000000A9        170192957705     
0010001300132U 020000000000000000000000000000000000000000000000000000000000000000000000000000000000000000000000000000000000000000000000001002201700000000            000000000000000                              000                           
0010001300133T 020180230000001544772 29577050458332625   788888888888889912022017000000000007500001004804888888888888899          0900000000000010000000000000000000000000000000000000000   0000000000000000000000000A9        170192957705     
0010001300134U 020000000000000000000000000000000000000000000000000000000000000000000000000000000000000000000000000000000000000000000000001002201700000000            000000000000000                              000                           
0010001300135T 020180230000001544772 29577050458613896   788888888888889912022017000000000007500001004804888888888888899          0900000000000010000000000000000000000000000000000000000   0000000000000000000000000A9        170192957705     
0010001300136U 020000000000000000000000000000000000000000000000000000000000000000000000000000000000000000000000000000000000000000000000001002201700000000            000000000000000                              000                           
0010001300137T 020180230000001544772 29577050469832389   788888888888889912022017000000000007500001012408888888888888899          0900000000000010000000000000000000000000000000000000000   0000000000000000000000000A9        170192957705     
0010001300138U 020000000000000000000000000000000000000000000000000000000000000000000000000000000000000000000000000000000000000000000000001002201700000000            000000000000000                              000                           
0010001300139T 020180230000001544772 29577050473132673   788888888888889912022017000000000007500001012408888888888888899          0900000000000010000000000000000000000000000000000000000   0000000000000000000000000A9        170192957705     
0010001300140U 020000000000000000000000000000000000000000000000000000000000000000000000000000000000000000000000000000000000000000000000001002201700000000            000000000000000                              000                           
0010001300141T 020180230000001544772 29577050473225150   788888888888889912022017000000000007500001012416888888888888899          0900000000000010000000000000000000000000000000000000000   0000000000000000000000000A9        170192957705     
0010001300142U 020000000000000000000000000000000000000000000000000000000000000000000000000000000000000000000000000000000000000000000000001002201700000000            000000000000000                              000                           
0010001300143T 020180230000001544772 29577050473324503   788888888888889912022017000000000007500001009245888888888888899          0900000000000010000000000000000000000000000000000000000   0000000000000000000000000A9        170192957705     
0010001300144U 020000000000000000000000000000000000000000000000000000000000000000000000000000000000000000000000000000000000000000000000001002201700000000            000000000000000                              000                           
0010001300145T 020180230000001544772 29577050473521081   788888888888889912022017000000000007500001012408888888888888899          0900000000000010000000000000000000000000000000000000000   0000000000000000000000000A9        170192957705     
0010001300146U 020000000000000000000000000000000000000000000000000000000000000000000000000000000000000000000000000000000000000000000000001002201700000000            000000000000000                              000                           
0010001300147T 020180230000001544772 29577050473630738   788888888888889912022017000000000007500001000051888888888888899          0900000000000010500000000000000000000000000000000000000   0000000000000000000000000A9A4      170192957705     
0010001300148U 020000000000000000000000000000000000000000000000000000000000000000000000000000000000000000000000000000000000000000000000001002201700000000            000000000000000                              000                           
0010001300149T 020180230000001544772 29577050473633775   788888888888889912022017000000000007500001000051888888888888899          0900000000000010500000000000000000000000000000000000000   0000000000000000000000000A9A4      170192957705     
0010001300150U 020000000000000000000000000000000000000000000000000000000000000000000000000000000000000000000000000000000000000000000000001002201700000000            000000000000000                              000                           
0010001300151T 020180230000001544772 29577050473717345   788888888888889912022017000000000007500001012408888888888888899          0900000000000010000000000000000000000000000000000000000   0000000000000000000000000A9        170192957705     
0010001300152U 020000000000000000000000000000000000000000000000000000000000000000000000000000000000000000000000000000000000000000000000001002201700000000            000000000000000                              000                           
0010001300153T 020180230000001544772 29577050473929044   788888888888889912022017000000000007500001003018888888888888899          0900000000000010500000000000000000000000000000000000000   0000000000000000000000000A9A4      170192957705     
0010001300154U 020000000000000000000000000000000000000000000000000000000000000000000000000000000000000000000000000000000000000000000000001002201700000000            000000000000000                              000                           
0010001300155T 020180230000001544772 29577050474027706   788888888888889912022017000000000007500001000213888888888888899          0900000000000010000000000000000000000000000000000000000   0000000000000000000000000A9        170192957705     
0010001300156U 020000000000000000000000000000000000000000000000000000000000000000000000000000000000000000000000000000000000000000000000001002201700000000            000000000000000                              000                           
0010001300157T 020180230000001544772 29577050474113708   788888888888889912022017000000000007500001003018888888888888899          0900000000000010500000000000000000000000000000000000000   0000000000000000000000000A9A4      170192957705     
0010001300158U 020000000000000000000000000000000000000000000000000000000000000000000000000000000000000000000000000000000000000000000000001002201700000000            000000000000000                              000                           
0010001300159T 020180230000001544772 29577050474354772   788888888888889912022017000000000007500001009245888888888888899          0900000000000010000000000000000000000000000000000000000   0000000000000000000000000A9        170192957705     
0010001300160U 020000000000000000000000000000000000000000000000000000000000000000000000000000000000000000000000000000000000000000000000001002201700000000            000000000000000                              000                           
0010001300161T 020180230000001544772 29577050474454636   788888888888889912022017000000000010000001000213888888888888899          0900000000000010000000000000000000000000000000000000000   0000000000000000000000000A9        170192957705     
0010001300162U 020000000000000000000000000000000000000000000000000000000000000000000000000000000000000000000000000000000000000000000000001002201700000000            000000000000000                              000                           
0010001300163T 020180230000001544772 29577050474545710   788888888888889912022017000000000007500001000213888888888888899          0900000000000010000000000000000000000000000000000000000   0000000000000000000000000A9        170192957705     
0010001300164U 020000000000000000000000000000000000000000000000000000000000000000000000000000000000000000000000000000000000000000000000001002201700000000            000000000000000                              000                           
0010001300165T 020180230000001544772 29577050474616567   788888888888889912022017000000000007500001000213888888888888899          0900000000000010000000000000000000000000000000000000000   0000000000000000000000000A9        170192957705     
0010001300166U 020000000000000000000000000000000000000000000000000000000000000000000000000000000000000000000000000000000000000000000000001002201700000000            000000000000000                              000                           
0010001300167T 020180230000001544772 29577050474747930   788888888888889912022017000000000007500001000213888888888888899          0900000000000010000000000000000000000000000000000000000   0000000000000000000000000A9        170192957705     
0010001300168U 020000000000000000000000000000000000000000000000000000000000000000000000000000000000000000000000000000000000000000000000001002201700000000            000000000000000                              000                           
0010001300169T 020180230000001544772 29577050474823178   78888888888888991202201700000000000750000103049X888888888888899          0900000000000010000000000000000000000000000000000000000   0000000000000000000000000A9        170192957705     
0010001300170U 020000000000000000000000000000000000000000000000000000000000000000000000000000000000000000000000000000000000000000000000001002201700000000            000000000000000                              000                           
0010001300171T 020180230000001544772 29577050474952492   788888888888889912022017000000000007500001012416888888888888899          0900000000000010000000000000000000000000000000000000000   0000000000000000000000000A9        170192957705     
0010001300172U 020000000000000000000000000000000000000000000000000000000000000000000000000000000000000000000000000000000000000000000000001002201700000000            000000000000000                              000                           
0010001300173T 020180230000001544772 29577050475008237   78888888888888991202201700000000000750000103049X888888888888899          0900000000000010000000000000000000000000000000000000000   0000000000000000000000000A9        170192957705     
0010001300174U 020000000000000000000000000000000000000000000000000000000000000000000000000000000000000000000000000000000000000000000000001002201700000000            000000000000000                              000                           
0010001300175T 020180230000001544772 29577050475106080   78888888888888991202201700000000000750000103049X888888888888899          0900000000000010000000000000000000000000000000000000000   0000000000000000000000000A9        170192957705     
0010001300176U 020000000000000000000000000000000000000000000000000000000000000000000000000000000000000000000000000000000000000000000000001002201700000000            000000000000000                              000                           
0010001300177T 020180230000001544772 29577050475240495   788888888888889912022017000000000010000001000213888888888888899          0900000000000010000000000000000000000000000000000000000   0000000000000000000000000A9        170192957705     
0010001300178U 020000000000000000000000000000000000000000000000000000000000000000000000000000000000000000000000000000000000000000000000001002201700000000            000000000000000                              000                           
0010001300179T 020180230000001544772 29577050475314626   788888888888889912022017000000000007500001012416888888888888899          0900000000000010000000000000000000000000000000000000000   0000000000000000000000000A9        170192957705     
0010001300180U 020000000000000000000000000000000000000000000000000000000000000000000000000000000000000000000000000000000000000000000000001002201700000000            000000000000000                              000                           
0010001300181T 020180230000001544772 29577050475416961   788888888888889912022017000000000007500001012408888888888888899          0900000000000010000000000000000000000000000000000000000   0000000000000000000000000A9        170192957705     
0010001300182U 020000000000000000000000000000000000000000000000000000000000000000000000000000000000000000000000000000000000000000000000001002201700000000            000000000000000                              000                           
0010001300183T 020180230000001544772 29577050475505726   788888888888889912022017000000000007500001001120888888888888899          0900000000000010000000000000000000000000000000000000000   0000000000000000000000000A9        170192957705     
0010001300184U 020000000000000000000000000000000000000000000000000000000000000000000000000000000000000000000000000000000000000000000000001002201700000000            000000000000000                              000                           
0010001300185T 020180230000001544772 29577050475602599   788888888888889912022017000000000010000001012408888888888888899          0900000000000010000000000000000000000000000000000000000   0000000000000000000000000A9        170192957705     
0010001300186U 020000000000000000000000000000000000000000000000000000000000000000000000000000000000000000000000000000000000000000000000001002201700000000            000000000000000                              000                           
0010001300187T 020180230000001544772 29577050475703335   78888888888888991202201700000000000750000103049X888888888888899          0900000000000010000000000000000000000000000000000000000   0000000000000000000000000A9        170192957705     
0010001300188U 020000000000000000000000000000000000000000000000000000000000000000000000000000000000000000000000000000000000000000000000001002201700000000            000000000000000                              000                           
0010001300189T 020180230000001544772 29577050475707837   78888888888888991202201700000000000750000103049X888888888888899          0900000000000010000000000000000000000000000000000000000   0000000000000000000000000A9        170192957705     
0010001300190U 020000000000000000000000000000000000000000000000000000000000000000000000000000000000000000000000000000000000000000000000001002201700000000            000000000000000                              000                           
0010001300191T 020180230000001544772 29577050475855535   788888888888889912022017000000000007500001012408888888888888899          0900000000000010000000000000000000000000000000000000000   0000000000000000000000000A9        170192957705     
0010001300192U 020000000000000000000000000000000000000000000000000000000000000000000000000000000000000000000000000000000000000000000000001002201700000000            000000000000000                              000                           
0010001300193T 020180230000001544772 29577050475922505   788888888888889912022017000000000007500001000213888888888888899          0900000000000010000000000000000000000000000000000000000   0000000000000000000000000A9        170192957705     
0010001300194U 020000000000000000000000000000000000000000000000000000000000000000000000000000000000000000000000000000000000000000000000001002201700000000            000000000000000                              000                           
0010001300195T 020180230000001544772 29577050476030322   788888888888889912022017000000000007500001012408888888888888899          0900000000000010000000000000000000000000000000000000000   0000000000000000000000000A9        170192957705     
0010001300196U 020000000000000000000000000000000000000000000000000000000000000000000000000000000000000000000000000000000000000000000000001002201700000000            000000000000000                              000                           
0010001300197T 020180230000001544772 29577050476034442   788888888888889912022017000000000007500001012408888888888888899          0900000000000010000000000000000000000000000000000000000   0000000000000000000000000A9        170192957705     
0010001300198U 020000000000000000000000000000000000000000000000000000000000000000000000000000000000000000000000000000000000000000000000001002201700000000            000000000000000                              000                           
0010001300199T 020180230000001544772 29577050476102616   78888888888888991202201700000000000750000103049X888888888888899          0900000000000010000000000000000000000000000000000000000   0000000000000000000000000A9        170192957705     
0010001300200U 020000000000000000000000000000000000000000000000000000000000000000000000000000000000000000000000000000000000000000000000001002201700000000            000000000000000                              000                           
0010001300201T 020180230000001544772 29577050476242537   788888888888889912022017000000000010000001012408888888888888899          0900000000000010000000000000000000000000000000000000000   0000000000000000000000000A9        170192957705     
0010001300202U 020000000000000000000000000000000000000000000000000000000000000000000000000000000000000000000000000000000000000000000000001002201700000000            000000000000000                              000                           
0010001300203T 020180230000001544772 29577050476318448   788888888888889912022017000000000007500001009245888888888888899          0900000000000010000000000000000000000000000000000000000   0000000000000000000000000A9        170192957705     
0010001300204U 020000000000000000000000000000000000000000000000000000000000000000000000000000000000000000000000000000000000000000000000001002201700000000            000000000000000                              000                           
0010001300205T 020180230000001544772 29577050476339904   788888888888889912022017000000000007500001009245888888888888899          0900000000000010000000000000000000000000000000000000000   0000000000000000000000000A9        170192957705     
0010001300206U 020000000000000000000000000000000000000000000000000000000000000000000000000000000000000000000000000000000000000000000000001002201700000000            000000000000000                              000                           
0010001300207T 020180230000001544772 29577050476432465   788888888888889912022017000000000007500001045586888888888888899          0900000000000010000000000000000000000000000000000000000   0000000000000000000000000A9        170192957705     
0010001300208U 020000000000000000000000000000000000000000000000000000000000000000000000000000000000000000000000000000000000000000000000001002201700000000            000000000000000                              000                           
0010001300209T 020180230000001544772 29577050476558223   788888888888889912022017000000000007500001012416888888888888899          0900000000000010000000000000000000000000000000000000000   0000000000000000000000000A9        170192957705     
0010001300210U 020000000000000000000000000000000000000000000000000000000000000000000000000000000000000000000000000000000000000000000000001002201700000000            000000000000000                              000                           
0010001300211T 020180230000001544772 29577050476653506   788888888888889912022017000000000007500001012408888888888888899          0900000000000010000000000000000000000000000000000000000   0000000000000000000000000A9        170192957705     
0010001300212U 020000000000000000000000000000000000000000000000000000000000000000000000000000000000000000000000000000000000000000000000001002201700000000            000000000000000                              000                           
0010001300213T 020180230000001544772 29577050476706741   788888888888889912022017000000000007500001012416888888888888899          0900000000000010000000000000000000000000000000000000000   0000000000000000000000000A9        170192957705     
0010001300214U 020000000000000000000000000000000000000000000000000000000000000000000000000000000000000000000000000000000000000000000000001002201700000000            000000000000000                              000                           
0010001300215T 020180230000001544772 29577050476841145   78888888888888991202201700000000000750000103049X888888888888899          0900000000000010000000000000000000000000000000000000000   0000000000000000000000000A9        170192957705     
0010001300216U 020000000000000000000000000000000000000000000000000000000000000000000000000000000000000000000000000000000000000000000000001002201700000000            000000000000000                              000                           
0010001300217T 020180230000001544772 29577050476925000   788888888888889912022017000000000007500001012416888888888888899          0900000000000010000000000000000000000000000000000000000   0000000000000000000000000A9        170192957705     
0010001300218U 020000000000000000000000000000000000000000000000000000000000000000000000000000000000000000000000000000000000000000000000001002201700000000            000000000000000                              000                           
0010001300219T 020180230000001544772 29577050477046452   788888888888889912022017000000000007500001012408888888888888899          0900000000000010500000000000000000000000000000000000000   0000000000000000000000000A9A4      170192957705     
0010001300220U 020000000000000000000000000000000000000000000000000000000000000000000000000000000000000000000000000000000000000000000000001002201700000000            000000000000000                              000                           
0010001300221T 020180230000001544772 29577050477120362   788888888888889912022017000000000007500001012408888888888888899          0900000000000010500000000000000000000000000000000000000   0000000000000000000000000A9A4      170192957705     
0010001300222U 020000000000000000000000000000000000000000000000000000000000000000000000000000000000000000000000000000000000000000000000001002201700000000            000000000000000                              000                           
0010001300223T 020180230000001544772 29577050477223359   788888888888889912022017000000000007500001000213888888888888899          0900000000000010000000000000000000000000000000000000000   0000000000000000000000000A9        170192957705     
0010001300224U 020000000000000000000000000000000000000000000000000000000000000000000000000000000000000000000000000000000000000000000000001002201700000000            000000000000000                              000                           
0010001300225T 020180230000001544772 29577050477407843   788888888888889912022017000000000007500001012416888888888888899          0900000000000010000000000000000000000000000000000000000   0000000000000000000000000A9        170192957705     
0010001300226U 020000000000000000000000000000000000000000000000000000000000000000000000000000000000000000000000000000000000000000000000001002201700000000            000000000000000                              000                           
0010001300227T 020180230000001544772 29577050477648912   788888888888889912022017000000000007500001021121888888888888899          0900000000000010000000000000000000000000000000000000000   0000000000000000000000000A9        170192957705     
0010001300228U 020000000000000000000000000000000000000000000000000000000000000000000000000000000000000000000000000000000000000000000000001002201700000000            000000000000000                              000                           
0010001300229T 020180230000001544772 29577050477842369   788888888888889912022017000000000010000001000213888888888888899          0900000000000010000000000000000000000000000000000000000   0000000000000000000000000A9        170192957705     
0010001300230U 020000000000000000000000000000000000000000000000000000000000000000000000000000000000000000000000000000000000000000000000001002201700000000            000000000000000                              000                           
0010001300231T 020180230000001544772 29577050477954709   788888888888889912022017000000000007500001000213888888888888899          0900000000000010000000000000000000000000000000000000000   0000000000000000000000000A9        170192957705     
0010001300232U 020000000000000000000000000000000000000000000000000000000000000000000000000000000000000000000000000000000000000000000000001002201700000000            000000000000000                              000                           
0010001300233T 020180230000001544772 29577050478208980   78888888888888991202201700000000000750000103049X888888888888899          0900000000000010000000000000000000000000000000000000000   0000000000000000000000000A9        170192957705     
0010001300234U 020000000000000000000000000000000000000000000000000000000000000000000000000000000000000000000000000000000000000000000000001002201700000000            000000000000000                              000                           
0010001300235T 020180230000001544772 29577050478316843   788888888888889912022017000000000007500001001554888888888888899          0900000000000010000000000000000000000000000000000000000   0000000000000000000000000A9        170192957705     
0010001300236U 020000000000000000000000000000000000000000000000000000000000000000000000000000000000000000000000000000000000000000000000001002201700000000            000000000000000                              000                           
0010001300237T 020180230000001544772 29577050478403522   788888888888889912022017000000000010000001000744888888888888899          0900000000000010000000000000000000000000000000000000000   0000000000000000000000000A9        170192957705     
0010001300238U 020000000000000000000000000000000000000000000000000000000000000000000000000000000000000000000000000000000000000000000000001002201700000000            000000000000000                              000                           
0010001300239T 020180230000001544772 29577050478505769   788888888888889912022017000000000007500001012408888888888888899          0900000000000010000000000000000000000000000000000000000   0000000000000000000000000A9        170192957705     
0010001300240U 020000000000000000000000000000000000000000000000000000000000000000000000000000000000000000000000000000000000000000000000001002201700000000            000000000000000                              000                           
0010001300241T 020180230000001544772 29577050478632486   788888888888889912022017000000000007500001012408888888888888899          0900000000000010000000000000000000000000000000000000000   0000000000000000000000000A9        170192957705     
0010001300242U 020000000000000000000000000000000000000000000000000000000000000000000000000000000000000000000000000000000000000000000000001002201700000000            000000000000000                              000                           
0010001300243T 020180230000001544772 29577050478741887   788888888888889912022017000000000007500001012408888888888888899          0900000000000010000000000000000000000000000000000000000   0000000000000000000000000A9        170192957705     
0010001300244U 020000000000000000000000000000000000000000000000000000000000000000000000000000000000000000000000000000000000000000000000001002201700000000            000000000000000                              000                           
0010001300245T 020180230000001544772 29577050478827350   788888888888889912022017000000000007500001012408888888888888899          0900000000000010000000000000000000000000000000000000000   0000000000000000000000000A9        170192957705     
0010001300246U 020000000000000000000000000000000000000000000000000000000000000000000000000000000000000000000000000000000000000000000000001002201700000000            000000000000000                              000                           
0010001300247T 020180230000001544772 29577050478941145   788888888888889912022017000000000007500001012408888888888888899          0900000000000010000000000000000000000000000000000000000   0000000000000000000000000A9        170192957705     
0010001300248U 020000000000000000000000000000000000000000000000000000000000000000000000000000000000000000000000000000000000000000000000001002201700000000            000000000000000                              000                           
0010001300249T 020180230000001544772 29577050479046719   788888888888889912022017000000000010000001012408888888888888899          0900000000000010000000000000000000000000000000000000000   0000000000000000000000000A9        170192957705     
0010001300250U 020000000000000000000000000000000000000000000000000000000000000000000000000000000000000000000000000000000000000000000000001002201700000000            000000000000000                              000                           
0010001300251T 020180230000001544772 29577050479143020   788888888888889912022017000000000007500001012408888888888888899          0900000000000010000000000000000000000000000000000000000   0000000000000000000000000A9        170192957705     
0010001300252U 020000000000000000000000000000000000000000000000000000000000000000000000000000000000000000000000000000000000000000000000001002201700000000            000000000000000                              000                           
0010001300253T 020180230000001544772 29577050479211566   78888888888888991202201700000000000750000103049X888888888888899          0900000000000010000000000000000000000000000000000000000   0000000000000000000000000A9        170192957705     
0010001300254U 020000000000000000000000000000000000000000000000000000000000000000000000000000000000000000000000000000000000000000000000001002201700000000            000000000000000                              000                           
0010001300255T 020180230000001544772 29577050479308377   788888888888889912022017000000000007500001000213888888888888899          0900000000000010000000000000000000000000000000000000000   0000000000000000000000000A9        170192957705     
0010001300256U 020000000000000000000000000000000000000000000000000000000000000000000000000000000000000000000000000000000000000000000000001002201700000000            000000000000000                              000                           
0010001300257T 020180230000001544772 29577050479443951   788888888888889912022017000000000007500001012416888888888888899          0900000000000010000000000000000000000000000000000000000   0000000000000000000000000A9        170192957705     
0010001300258U 020000000000000000000000000000000000000000000000000000000000000000000000000000000000000000000000000000000000000000000000001002201700000000            000000000000000                              000                           
0010001300259T 020180230000001544772 29577050479518082   788888888888889912022017000000000007500001012416888888888888899          0900000000000010000000000000000000000000000000000000000   0000000000000000000000000A9        170192957705     
0010001300260U 020000000000000000000000000000000000000000000000000000000000000000000000000000000000000000000000000000000000000000000000001002201700000000            000000000000000                              000                           
0010001300261T 020180230000001544772 29577050479626526   78888888888888991202201700000000000750000103049X888888888888899          0900000000000010000000000000000000000000000000000000000   0000000000000000000000000A9        170192957705     
0010001300262U 020000000000000000000000000000000000000000000000000000000000000000000000000000000000000000000000000000000000000000000000001002201700000000            000000000000000                              000                           
0010001300263T 020180230000001544772 29577050479739617   788888888888889912022017000000000007500001009245888888888888899          0900000000000010000000000000000000000000000000000000000   0000000000000000000000000A9        170192957705     
0010001300264U 020000000000000000000000000000000000000000000000000000000000000000000000000000000000000000000000000000000000000000000000001002201700000000            000000000000000                              000                           
0010001300265T 020180230000001544772 29577050479747406   788888888888889912022017000000000007500001009245888888888888899          0900000000000010000000000000000000000000000000000000000   0000000000000000000000000A9        170192957705     
0010001300266U 020000000000000000000000000000000000000000000000000000000000000000000000000000000000000000000000000000000000000000000000001002201700000000            000000000000000                              000                           
0010001300267T 020180230000001544772 29577050479804647   788888888888889912022017000000000007500001046280888888888888899          0900000000000010000000000000000000000000000000000000000   0000000000000000000000000A9        170192957705     
0010001300268U 020000000000000000000000000000000000000000000000000000000000000000000000000000000000000000000000000000000000000000000000001002201700000000            000000000000000                              000                           
0010001300269T 020180230000001544772 29577050479913812   788888888888889912022017000000000007500001012408888888888888899          0900000000000010000000000000000000000000000000000000000   0000000000000000000000000A9        170192957705     
0010001300270U 020000000000000000000000000000000000000000000000000000000000000000000000000000000000000000000000000000000000000000000000001002201700000000            000000000000000                              000                           
0010001300271T 020180230000001544772 29577050480018337   788888888888889912022017000000000007500001012408888888888888899          0900000000000010000000000000000000000000000000000000000   0000000000000000000000000A9        170192957705     
0010001300272U 020000000000000000000000000000000000000000000000000000000000000000000000000000000000000000000000000000000000000000000000001002201700000000            000000000000000                              000                           
0010001300273T 020180230000001544772 29577050480127535   78888888888888991202201700000000000750000103049X888888888888899          0900000000000010000000000000000000000000000000000000000   0000000000000000000000000A9        170192957705     
0010001300274U 020000000000000000000000000000000000000000000000000000000000000000000000000000000000000000000000000000000000000000000000001002201700000000            000000000000000                              000                           
0010001300275T 020180230000001544772 29577050480340818   788888888888889912022017000000000007500001000213888888888888899          0900000000000010000000000000000000000000000000000000000   0000000000000000000000000A9        170192957705     
0010001300276U 020000000000000000000000000000000000000000000000000000000000000000000000000000000000000000000000000000000000000000000000001002201700000000            000000000000000                              000                           
0010001300277T 020180230000001544772 29577050480451538   788888888888889912022017000000000007500001012416888888888888899          0900000000000010000000000000000000000000000000000000000   0000000000000000000000000A9        170192957705     
0010001300278U 020000000000000000000000000000000000000000000000000000000000000000000000000000000000000000000000000000000000000000000000001002201700000000            000000000000000                              000                           
0010001300279T 020180230000001544772 29577050480501054   78888888888888991202201700000000000750000100829X888888888888899          0900000000000010000000000000000000000000000000000000000   0000000000000000000000000A9        170192957705     
0010001300280U 020000000000000000000000000000000000000000000000000000000000000000000000000000000000000000000000000000000000000000000000001002201700000000            000000000000000                              000                           
0010001300281T 020180230000001544772 29577050480612111   78888888888888991202201700000000000750000100829X888888888888899          0900000000000010000000000000000000000000000000000000000   0000000000000000000000000A9        170192957705     
0010001300282U 020000000000000000000000000000000000000000000000000000000000000000000000000000000000000000000000000000000000000000000000001002201700000000            000000000000000                              000                           
0010001300283T 020180230000001544772 29577050480735324   78888888888888991202201700000000000750000103049X888888888888899          0900000000000010000000000000000000000000000000000000000   0000000000000000000000000A9        170192957705     
0010001300284U 020000000000000000000000000000000000000000000000000000000000000000000000000000000000000000000000000000000000000000000000001002201700000000            000000000000000                              000                           
0010001300285T 020180230000001544772 29577050480834357   788888888888889912022017000000000007500001005185888888888888899          0900000000000010000000000000000000000000000000000000000   0000000000000000000000000A9        170192957705     
0010001300286U 020000000000000000000000000000000000000000000000000000000000000000000000000000000000000000000000000000000000000000000000001002201700000000            000000000000000                              000                           
0010001300287T 020180230000001544772 29577050480936248   788888888888889912022017000000000007500001012408888888888888899          0900000000000010000000000000000000000000000000000000000   0000000000000000000000000A9        170192957705     
0010001300288U 020000000000000000000000000000000000000000000000000000000000000000000000000000000000000000000000000000000000000000000000001002201700000000            000000000000000                              000                           
0010001300289T 020180230000001544772 29577050481058878   788888888888889912022017000000000007500001000213888888888888899          0900000000000010000000000000000000000000000000000000000   0000000000000000000000000A9        170192957705     
0010001300290U 020000000000000000000000000000000000000000000000000000000000000000000000000000000000000000000000000000000000000000000000001002201700000000            000000000000000                              000                           
0010001300291T 060180230000001544772 29577050018157129   788888888888889911022017000000000007500033033690888888888888899          0900000000000010000000000000000000000000000000000000000   000000000000000000000029000        170192957705     
0010001300292U 060000000000000000000000000000000000000000000000000000000000000000000000075000000000000072100000000000000000000000000000001002201713022017            000000000000000                              000                           
0010001300293T 170180230000001544772 29577050045022571   7               00000000000000000007500001038776                         0900000000000010000000000000000000000000000000000000000   000000000000000000000070003        170192957705     
0010001300294U 170000000000000000000000000000000000000000000000000000000000000000000000075000000000000068000000000000000000000000000000001002201713022017            000000000000000                              000                           
0010001300295T 060180230000001544772 29577050052307644   788888888888889912022017000000000007500104001670888888888888899          0900000000000010000000000000000000000000000000000000000   000000000000000000000029000        170192957705     
0010001300296U 060000000000000000000000000000000000000000000000000000000000000000000000075000000000000072100000000000000000000000000000001002201713022017            000000000000000                              000                           
0010001300297T 060180230000001544772 29577050100245503   788888888888889911022017000000000007500021002680888888888888899          0900000000000010000000000000000000000000000000000000000   000000000000000000000029000        170192957705     
0010001300298U 060000000000000000000000000000000000000000000000000000000000000000000000075000000000000072100000000000000000000000000000001002201713022017            000000000000000                              000                           
0010001300299T 060180230000001544772 29577050128550905   788888888888889912022017000000000010000237012000888888888888899          0900000000000010000000000000000000000000000000000000000   000000000000000000000029000        170192957705     
0010001300300U 060000000000000000000000000000000000000000000000000000000000000000000000100000000000000097100000000000000000000000000000001002201713022017            000000000000000                              000                           
0010001300301T 060180230000001544772 29577050167955947   788888888888889911022017000000000007500341051370888888888888899          0900000000000010000000000000000000000000000000000000000   000000000000000000000029000        170192957705     
0010001300302U 060000000000000000000000000000000000000000000000000000000000000000000000075000000000000072100000000000000000000000000000001002201713022017            000000000000000                              000                           
0010001300303T 060180230000001544772 29577050212441082   788888888888889912022017000000000007500756032600888888888888899          0900000000000010000000000000000000000000000000000000000   000000000000000000000029000        170192957705     
0010001300304U 060000000000000000000000000000000000000000000000000000000000000000000000075000000000000072100000000000000000000000000000001002201713022017            000000000000000                              000                           
0010001300305T 060180230000001544772 29577050216353774   788888888888889912022017000000000007500104008810888888888888899          0900000000000010000000000000000000000000000000000000000   000000000000000000000029000        170192957705     
0010001300306U 060000000000000000000000000000000000000000000000000000000000000000000000075000000000000072100000000000000000000000000000001002201713022017            000000000000000                              000                           
0010001300307T 060180230000001544772 29577050234118408   788888888888889912022017000000000007500104033080888888888888899          0900000000000010000000000000000000000000000000000000000   000000000000000000000029000        170192957705     
0010001300308U 060000000000000000000000000000000000000000000000000000000000000000000000075000000000000072100000000000000000000000000000001002201713022017            000000000000000                              000                           
0010001300309T 060180230000001544772 29577050243918302   788888888888889912022017000000000007500104033080888888888888899          0900000000000010000000000000000000000000000000000000000   000000000000000000000029000        170192957705     
0010001300310U 060000000000000000000000000000000000000000000000000000000000000000000000075000000000000072100000000000000000000000000000001002201713022017            000000000000000                              000                           
0010001300311T 060180230000001544772 29577050289306905   788888888888889907022017000000000007500001014389888888888888899          0900000000000010000000000000000000000000000000000000000   000000000000000000000029000        170192957705     
0010001300312U 060000000000000960000000000000000000000000000000000000000000000000000000075960000000000073060000000000000000000000000000001002201713022017            000000000000000                              000                           
0010001300313T 060180230000001544772 29577050295131698   788888888888889911022017000000000007500104008230888888888888899          0900000000000010000000000000000000000000000000000000000   000000000000000000000029000        170192957705     
0010001300314U 060000000000000000000000000000000000000000000000000000000000000000000000075000000000000072100000000000000000000000000000001002201713022017            000000000000000                              000                           
0010001300315T 060180230000001544772 29577050317253962   788888888888889911022017000000000007500104006620888888888888899          0900000000000010000000000000000000000000000000000000000   000000000000000000000029000        170192957705     
0010001300316U 060000000000000000000000000000000000000000000000000000000000000000000000075000000000000072100000000000000000000000000000001002201713022017            000000000000000                              000                           
0010001300317T 170180230000001544772 29577050318259170   7               00000000000000000007500104036300                         0900000000000010000000000000000000000000000000000000000   000000000000000000000070003        170192957705     
0010001300318U 170000000000000000000000000000000000000000000000000000000000000000000000075000000000000068000000000000000000000000000000001002201713022017            000000000000000                              000                           
0010001300319T 170180230000001544772 29577050318338030   7               00000000000000000007500104036300                         0900000000000010000000000000000000000000000000000000000   000000000000000000000070003        170192957705     
0010001300320U 170000000000000000000000000000000000000000000000000000000000000000000000075000000000000068000000000000000000000000000000001002201713022017            000000000000000                              000                           
0010001300321T 170180230000001544772 29577050318403239   7               00000000000000000007500104036300                         0900000000000010000000000000000000000000000000000000000   000000000000000000000070003        170192957705     
0010001300322U 170000000000000000000000000000000000000000000000000000000000000000000000075000000000000068000000000000000000000000000000001002201713022017            000000000000000                              000                           
0010001300323T 060180230000001544772 29577050333345248   788888888888889911022017000000000007500033045950888888888888899          0900000000000010000000000000000000000000000000000000000   000000000000000000000029000        170192957705     
0010001300324U 060000000000000000000000000000000000000000000000000000000000000000000000075000000000000072100000000000000000000000000000001002201713022017            000000000000000                              000                           
0010001300325T 060180230000001544772 29577050355149246   788888888888889912022017000000000007500021001080888888888888899          0900000000000010000000000000000000000000000000000000000   000000000000000000000029000        170192957705     
0010001300326U 060000000000000000000000000000000000000000000000000000000000000000000000075000000000000072100000000000000000000000000000001002201713022017            000000000000000                              000                           
0010001300327T 060180230000001544772 29577050355213249   788888888888889912022017000000000007500021001080888888888888899          0900000000000010000000000000000000000000000000000000000   000000000000000000000029000        170192957705     
0010001300328U 060000000000000000000000000000000000000000000000000000000000000000000000075000000000000072100000000000000000000000000000001002201713022017            000000000000000                              000                           
0010001300329T 060180230000001544772 29577050355328777   788888888888889912022017000000000007500021001080888888888888899          0900000000000010000000000000000000000000000000000000000   000000000000000000000029000        170192957705     
0010001300330U 060000000000000000000000000000000000000000000000000000000000000000000000075000000000000072100000000000000000000000000000001002201713022017            000000000000000                              000                           
0010001300331T 060180230000001544772 29577050391658217   788888888888889912022017000000000007500756030070888888888888899          0900000000000010000000000000000000000000000000000000000   000000000000000000000029000        170192957705     
0010001300332U 060000000000000000000000000000000000000000000000000000000000000000000000075000000000000072100000000000000000000000000000001002201713022017            000000000000000                              000                           
0010001300333T 060180230000001544772 29577050391717739   788888888888889911022017000000000007500104001730888888888888899          0900000000000010000000000000000000000000000000000000000   000000000000000000000029000        170192957705     
0010001300334U 060000000000000000000000000000000000000000000000000000000000000000000000075000000000000072100000000000000000000000000000001002201713022017            000000000000000                              000                           
0010001300335T 170180230000001544772 29577050394358816   7               00000000000000000007500104034890                         0900000000000010000000000000000000000000000000000000000   000000000000000000000070003        170192957705     
0010001300336U 170000000000000000000000000000000000000000000000000000000000000000000000075000000000000068000000000000000000000000000000001002201713022017            000000000000000                              000                           
0010001300337T 060180230000001544772 29577050411715295   788888888888889912022017000000000007500237014880888888888888899          0900000000000010000000000000000000000000000000000000000   000000000000000000000029000        170192957705     
0010001300338U 060000000000000000000000000000000000000000000000000000000000000000000000075000000000000072100000000000000000000000000000001002201713022017            000000000000000                              000                           
0010001300339T 060180230000001544772 29577050429109087   788888888888889912022017000000000007500104025030888888888888899          0900000000000010000000000000000000000000000000000000000   000000000000000000000029000        170192957705     
0010001300340U 060000000000000000000000000000000000000000000000000000000000000000000000075000000000000072100000000000000000000000000000001002201713022017            000000000000000                              000                           
0010001300341T 060180230000001544772 29577050432331865   788888888888889912022017000000000007500104015640888888888888899          0900000000000010000000000000000000000000000000000000000   000000000000000000000029000        170192957705     
0010001300342U 060000000000000000000000000000000000000000000000000000000000000000000000075000000000000072100000000000000000000000000000001002201713022017            000000000000000                              000                           
0010001300343T 060180230000001544772 29577050446509833   788888888888889911022017000000000007500021001070888888888888899          0900000000000010000000000000000000000000000000000000000   000000000000000000000029000        170192957705     
0010001300344U 060000000000000000000000000000000000000000000000000000000000000000000000075000000000000072100000000000000000000000000000001002201713022017            000000000000000                              000                           
0010001300345T 060180230000001544772 29577050446811334   788888888888889911022017000000000007500021001070888888888888899          0900000000000010000000000000000000000000000000000000000   000000000000000000000029000        170192957705     
0010001300346U 060000000000000000000000000000000000000000000000000000000000000000000000075000000000000072100000000000000000000000000000001002201713022017            000000000000000                              000                           
0010001300347T 060180230000001544772 29577050446913115   788888888888889911022017000000000007500021001070888888888888899          0900000000000010000000000000000000000000000000000000000   000000000000000000000029000        170192957705     
0010001300348U 060000000000000000000000000000000000000000000000000000000000000000000000075000000000000072100000000000000000000000000000001002201713022017            000000000000000                              000                           
0010001300349T 170180230000001544772 29577050461214184   7               00000000000000000007500237031130                         0900000000000010000000000000000000000000000000000000000   000000000000000000000070003        170192957705     
0010001300350U 170000000000000000000000000000000000000000000000000000000000000000000000075000000000000068000000000000000000000000000000001002201713022017            000000000000000                              000                           
0010001300351T 170180230000001544772 29577050463319437   7               00000000000000000007500341078550                         0900000000000010000000000000000000000000000000000000000   000000000000000000000070003        170192957705     
0010001300352U 170000000000000000000000000000000000000000000000000000000000000000000000075000000000000068000000000000000000000000000000001002201713022017            000000000000000                              000                           
0010001300353T 170180230000001544772 29577050463922207   7               00000000000000000007500001034800                         0900000000000010000000000000000000000000000000000000000   000000000000000000000070003        170192957705     
0010001300354U 170000000000000000000000000000000000000000000000000000000000000000000000075000000000000068000000000000000000000000000000001002201713022017            000000000000000                              000                           
0010001300355T 060180230000001544772 29577050465627961   788888888888889911022017000000000007500001018023888888888888899          0900000000000010000000000000000000000000000000000000000   000000000000000000000029000        170192957705     
0010001300356U 060000000000000000000000000000000000000000000000000000000000000000000000075000000000000072100000000000000000000000000000001002201713022017            000000000000000                              000                           
0010001300357T 060180230000001544772 29577050466010218   788888888888889911022017000000000007500104001670888888888888899          0900000000000010000000000000000000000000000000000000000   000000000000000000000029000        170192957705     
0010001300358U 060000000000000000000000000000000000000000000000000000000000000000000000075000000000000072100000000000000000000000000000001002201713022017            000000000000000                              000                           
0010001300359T 060180230000001544772 29577050467811831   788888888888889911022017000000000007500104020410888888888888899          0900000000000010000000000000000000000000000000000000000   000000000000000000000029000        170192957705     
0010001300360U 060000000000000000000000000000000000000000000000000000000000000000000000075000000000000072100000000000000000000000000000001002201713022017            000000000000000                              000                           
0010001300361T 060180230000001544772 29577050470451165   788888888888889911022017000000000007500001006076888888888888899          0900000000000010000000000000000000000000000000000000000   000000000000000000000029000        170192957705     
0010001300362U 060000000000000000000000000000000000000000000000000000000000000000000000075000000000000072100000000000000000000000000000001002201713022017            000000000000000                              000                           
0010001300363T 060180230000001544772 29577050473132673   788888888888889912022017000000000007500104016430888888888888899          0900000000000010000000000000000000000000000000000000000   000000000000000000000029000        170192957705     
0010001300364U 060000000000000000000000000000000000000000000000000000000000000000000000075000000000000072100000000000000000000000000000001002201713022017            000000000000000                              000                           
0010001300365T 060180230000001544772 29577050473633775   788888888888889912022017000000000007500033030860888888888888899          0900000000000010000000000000000000000000000000000000000   000000000000000000000029000        170192957705     
0010001300366U 060000000000000000000000000000000000000000000000000000000000000000000000075000000000000072100000000000000000000000000000001002201713022017            000000000000000                              000                           
0010001300367T 060180230000001544772 29577050474454636   788888888888889912022017000000000010000104025030888888888888899          0900000000000010000000000000000000000000000000000000000   000000000000000000000029000        170192957705     
0010001300368U 060000000000000000000000000000000000000000000000000000000000000000000000100000000000000097100000000000000000000000000000001002201713022017            000000000000000                              000                           
0010001300369T 060180230000001544772 29577050474747930   788888888888889912022017000000000007500104006620888888888888899          0900000000000010000000000000000000000000000000000000000   000000000000000000000029000        170192957705     
0010001300370U 060000000000000000000000000000000000000000000000000000000000000000000000075000000000000072100000000000000000000000000000001002201713022017            000000000000000                              000                           
0010001300371T 060180230000001544772 29577050479211566   788888888888889912022017000000000007500001013218888888888888899          0900000000000010000000000000000000000000000000000000000   000000000000000000000029000        170192957705     
0010001300372U 060000000000000000000000000000000000000000000000000000000000000000000000075000000000000072100000000000000000000000000000001002201713022017            000000000000000                              000                           
0010001300373T 280180230000001544772 29577050004300000   712345678       1212201600000000000750000100000012345678                 0900000000000000000000000000000000000000000000000000000   000000000000000000000005002        170192957705     
0010001300374U 280000000000000000000000000000000000000000000000000000000000000000000000000000000000000000000000000000000000000000000000001002201700000000            000000000000000                              000                           
0010001300375T 280180230000001544772 29577050004900000   712345678       1212201600000000001100000100000012345678                 0900000000000000000000000000000000000000000000000000000   000000000000000000000005002        170192957705     
0010001300376U 280000000000000000000000000000000000000000000000000000000000000000000000000000000000000000000000000000000000000000000000001002201700000000            000000000000000                              000                           
0010001300377T 280180230000001544772 29577050005100000   712345678       1212201600000000001100000100000012345678                 0900000000000000000000000000000000000000000000000000000   000000000000000000000005002        170192957705     
0010001300378U 280000000000000000000000000000000000000000000000000000000000000000000000000000000000000000000000000000000000000000000000001002201700000000            000000000000000                              000                           
0010001300379T 280180230000001544772 29577050007700000   712345678       1212201600000000001100000100000012345678                 0900000000000000000000000000000000000000000000000000000   000000000000000000000005002        170192957705     
0010001300380U 280000000000000000000000000000000000000000000000000000000000000000000000000000000000000000000000000000000000000000000000001002201700000000            000000000000000                              000                           
0010001300381T 280180230000001544772 29577050007900000   712345678       1212201600000000000750000100000012345678                 0900000000000000000000000000000000000000000000000000000   000000000000000000000005002        170192957705     
0010001300382U 280000000000000000000000000000000000000000000000000000000000000000000000000000000000000000000000000000000000000000000000001002201700000000            000000000000000                              000                           
0010001300383T 280180230000001544772 29577050130517277   788888888888889911012017000000000007500001000000888888888888899          0900000000000000000000000000000000000000000000000000000   000000000000000000000005002        170192957705     
0010001300384U 280000000000000000000000000000000000000000000000000000000000000000000000000000000000000000000000000000000000000000000000001002201700000000            000000000000000                              000                           
0010001300385T 280180230000001544772 29577050156811102   788888888888889911012017000000000007500001000000888888888888899          0900000000000000000000000000000000000000000000000000000   000000000000000000000005002        170192957705     
0010001300386U 280000000000000000000000000000000000000000000000000000000000000000000000000000000000000000000000000000000000000000000000001002201700000000            000000000000000                              000                           
0010001300387T 280180230000001544772 29577050174529593   788888888888889911012017000000000007500001000000888888888888899          0900000000000000000000000000000000000000000000000000000   000000000000000000000005002        170192957705     
0010001300388U 280000000000000000000000000000000000000000000000000000000000000000000000000000000000000000000000000000000000000000000000001002201700000000            000000000000000                              000                           
0010001300389T 280180230000001544772 29577050175530053   788888888888889911012017000000000007500001000000888888888888899          0900000000000000000000000000000000000000000000000000000   000000000000000000000005002        170192957705     
0010001300390U 280000000000000000000000000000000000000000000000000000000000000000000000000000000000000000000000000000000000000000000000001002201700000000            000000000000000                              000                           
0010001300391T 280180230000001544772 29577050175639433   788888888888889911012017000000000007500001000000888888888888899          0900000000000000000000000000000000000000000000000000000   000000000000000000000005002        170192957705     
0010001300392U 280000000000000000000000000000000000000000000000000000000000000000000000000000000000000000000000000000000000000000000000001002201700000000            000000000000000                              000                           
0010001300393T 280180230000001544772 29577050175845508   788888888888889911012017000000000007500001000000888888888888899          0900000000000000000000000000000000000000000000000000000   000000000000000000000005002        170192957705     
0010001300394U 280000000000000000000000000000000000000000000000000000000000000000000000000000000000000000000000000000000000000000000000001002201700000000            000000000000000                              000                           
0010001300395T 280180230000001544772 29577050176049502   788888888888889911012017000000000007500001000000888888888888899          0900000000000000000000000000000000000000000000000000000   000000000000000000000005002        170192957705     
0010001300396U 280000000000000000000000000000000000000000000000000000000000000000000000000000000000000000000000000000000000000000000000001002201700000000            000000000000000                              000                           
0010001300397T 280180230000001544772 29577050176150052   788888888888889911012017000000000007500001000000888888888888899          0900000000000000000000000000000000000000000000000000000   000000000000000000000005002        170192957705     
0010001300398U 280000000000000000000000000000000000000000000000000000000000000000000000000000000000000000000000000000000000000000000000001002201700000000            000000000000000                              000                           
0010001300399T 280180230000001544772 29577050176201789   788888888888889911012017000000000007500001000000888888888888899          0900000000000000000000000000000000000000000000000000000   000000000000000000000005002        170192957705     
0010001300400U 280000000000000000000000000000000000000000000000000000000000000000000000000000000000000000000000000000000000000000000000001002201700000000            000000000000000                              000                           
0010001300401T 280180230000001544772 29577050176224236   788888888888889911012017000000000007500001000000888888888888899          0900000000000000000000000000000000000000000000000000000   000000000000000000000005002        170192957705     
0010001300402U 280000000000000000000000000000000000000000000000000000000000000000000000000000000000000000000000000000000000000000000000001002201700000000            000000000000000                              000                           
0010001300403T 280180230000001544772 29577050176313627   788888888888889911012017000000000007500001000000888888888888899          0900000000000000000000000000000000000000000000000000000   000000000000000000000005002        170192957705     
0010001300404U 280000000000000000000000000000000000000000000000000000000000000000000000000000000000000000000000000000000000000000000000001002201700000000            000000000000000                              000                           
0010001300405T 280180230000001544772 29577050176317992   788888888888889911012017000000000007500001000000888888888888899          0900000000000000000000000000000000000000000000000000000   000000000000000000000005002        170192957705     
0010001300406U 280000000000000000000000000000000000000000000000000000000000000000000000000000000000000000000000000000000000000000000000001002201700000000            000000000000000                              000                           
0010001300407T 280180230000001544772 29577050176514617   788888888888889911012017000000000010000001000000888888888888899          0900000000000000000000000000000000000000000000000000000   000000000000000000000005002        170192957705     
0010001300408U 280000000000000000000000000000000000000000000000000000000000000000000000000000000000000000000000000000000000000000000000001002201700000000            000000000000000                              000                           
0010001300409T 280180230000001544772 29577050176614473   788888888888889911012017000000000007500001000000888888888888899          0900000000000000000000000000000000000000000000000000000   000000000000000000000005002        170192957705     
0010001300410U 280000000000000000000000000000000000000000000000000000000000000000000000000000000000000000000000000000000000000000000000001002201700000000            000000000000000                              000                           
0010001300411T 280180230000001544772 29577050176758719   788888888888889911012017000000000007500001000000888888888888899          0900000000000000000000000000000000000000000000000000000   000000000000000000000005002        170192957705     
0010001300412U 280000000000000000000000000000000000000000000000000000000000000000000000000000000000000000000000000000000000000000000000001002201700000000            000000000000000                              000                           
