00100000         2247745860001000029577050014       0180230000001544772 INSTITUTO DE SELECAO E TECNOLOBANCO DO BRASIL                         21302201702330900009203000000515122941PROCESSAMEN                                                 
00100011T0100020 20247745860001000029577050014       0180230000001544772 INSTITUTO DE SELECAO E TECNOLO                                                                                000000001302201700000000  000000000                      
0010001300001T 020180230000001544772 29577050000612283   7               14022017000000000007500001000213                         0900000000000010000000000000000000000000000000000000000   0000000000000000000000000A9        170192957705     
0010001300002U 020000000000000000000000000000000000000000000000000000000000000000000000000000000000000000000000000000000000000000000000001202201700000000            000000000000000                              000                           
0010001300003T 020180230000001544772 29577050000622495   7               14022017000000000007500001000213                         0900000000000010000000000000000000000000000000000000000   0000000000000000000000000A9        170192957705     
0010001300004U 020000000000000000000000000000000000000000000000000000000000000000000000000000000000000000000000000000000000000000000000001202201700000000            000000000000000                              000                           
0010001300005T 020180230000001544772 29577050000627425   788888888888889914022017000000000007500001000213888888888888899          0900000000000010000000000000000000000000000000000000000   0000000000000000000000000A9        170192957705     
0010001300006U 020000000000000000000000000000000000000000000000000000000000000000000000000000000000000000000000000000000000000000000000001302201700000000            000000000000000                              000                           
0010001300007T 020180230000001544772 29577050000627682   7               14022017000000000007500001000213                         0900000000000010000000000000000000000000000000000000000   0000000000000000000000000A9        170192957705     
0010001300008U 020000000000000000000000000000000000000000000000000000000000000000000000000000000000000000000000000000000000000000000000001202201700000000            000000000000000                              000                           
0010001300009T 020180230000001544772 29577050000627688   7               14022017000000000007500001000213                         0900000000000010000000000000000000000000000000000000000   0000000000000000000000000A9        170192957705     
0010001300010U 020000000000000000000000000000000000000000000000000000000000000000000000000000000000000000000000000000000000000000000000001202201700000000            000000000000000                              000                           
0010001300011T 020180230000001544772 29577050000631067   7               14022017000000000007500001000213                         0900000000000010000000000000000000000000000000000000000   0000000000000000000000000A9        170192957705     
0010001300012U 020000000000000000000000000000000000000000000000000000000000000000000000000000000000000000000000000000000000000000000000001202201700000000            000000000000000                              000                           
0010001300013T 020180230000001544772 29577050000631109   788888888888889914022017000000000007500001000213888888888888899          0900000000000010000000000000000000000000000000000000000   0000000000000000000000000A9        170192957705     
0010001300014U 020000000000000000000000000000000000000000000000000000000000000000000000000000000000000000000000000000000000000000000000001302201700000000            000000000000000                              000                           
0010001300015T 020180230000001544772 29577050000637620   7               14022017000000000007500001000213                         0900000000000010000000000000000000000000000000000000000   0000000000000000000000000A9        170192957705     
0010001300016U 020000000000000000000000000000000000000000000000000000000000000000000000000000000000000000000000000000000000000000000000001202201700000000            000000000000000                              000                           
0010001300017T 020180230000001544772 29577050000652095   788888888888889914022017000000000007500001000213888888888888899          0900000000000010000000000000000000000000000000000000000   0000000000000000000000000A9        170192957705     
0010001300018U 020000000000000000000000000000000000000000000000000000000000000000000000000000000000000000000000000000000000000000000000001302201700000000            000000000000000                              000                           
0010001300019T 020180230000001544772 29577050000656743   7               14022017000000000007500001000213                         0900000000000010000000000000000000000000000000000000000   0000000000000000000000000A9        170192957705     
0010001300020U 020000000000000000000000000000000000000000000000000000000000000000000000000000000000000000000000000000000000000000000000001202201700000000            000000000000000                              000                           
0010001300021T 020180230000001544772 29577050011705635   7               15022017000000000007500001000213                         0900000000000010000000000000000000000000000000000000000   0000000000000000000000000A9        170192957705     
0010001300022U 020000000000000000000000000000000000000000000000000000000000000000000000000000000000000000000000000000000000000000000000001302201700000000            000000000000000                              000                           
0010001300023T 020180230000001544772 29577050013555106   788888888888889913022017000000000007500001000213888888888888899          0900000000000010000000000000000000000000000000000000000   0000000000000000000000000A9        170192957705     
0010001300024U 020000000000000000000000000000000000000000000000000000000000000000000000000000000000000000000000000000000000000000000000001302201700000000            000000000000000                              000                           
0010001300025T 020180230000001544772 29577050017200323   7               15022017000000000010000001012408                         0900000000000010000000000000000000000000000000000000000   0000000000000000000000000A9        170192957705     
0010001300026U 020000000000000000000000000000000000000000000000000000000000000000000000000000000000000000000000000000000000000000000000001302201700000000            000000000000000                              000                           
0010001300027T 020180230000001544772 29577050018601988   788888888888889914022017000000000007500001012408888888888888899          0900000000000010000000000000000000000000000000000000000   0000000000000000000000000A9        170192957705     
0010001300028U 020000000000000000000000000000000000000000000000000000000000000000000000000000000000000000000000000000000000000000000000001302201700000000            000000000000000                              000                           
0010001300029T 020180230000001544772 29577050018626401   7               14022017000000000007500001012408                         0900000000000010000000000000000000000000000000000000000   0000000000000000000000000A9        170192957705     
0010001300030U 020000000000000000000000000000000000000000000000000000000000000000000000000000000000000000000000000000000000000000000000001202201700000000            000000000000000                              000                           
0010001300031T 020180230000001544772 29577050020112045   7               15022017000000000007500001012408                         0900000000000010500000000000000000000000000000000000000   0000000000000000000000000A9A4      170192957705     
0010001300032U 020000000000000000000000000000000000000000000000000000000000000000000000000000000000000000000000000000000000000000000000001302201700000000            000000000000000                              000                           
0010001300033T 020180230000001544772 29577050022843810   7               14022017000000000007500001000213                         0900000000000010000000000000000000000000000000000000000   0000000000000000000000000A9        170192957705     
0010001300034U 020000000000000000000000000000000000000000000000000000000000000000000000000000000000000000000000000000000000000000000000001202201700000000            000000000000000                              000                           
0010001300035T 020180230000001544772 29577050023150107   7               14022017000000000007500001000213                         0900000000000010000000000000000000000000000000000000000   0000000000000000000000000A9        170192957705     
0010001300036U 020000000000000000000000000000000000000000000000000000000000000000000000000000000000000000000000000000000000000000000000001202201700000000            000000000000000                              000                           
0010001300037T 020180230000001544772 29577050023356685   7               14022017000000000007500001000213                         0900000000000010000000000000000000000000000000000000000   0000000000000000000000000A9        170192957705     
0010001300038U 020000000000000000000000000000000000000000000000000000000000000000000000000000000000000000000000000000000000000000000000001202201700000000            000000000000000                              000                           
0010001300039T 020180230000001544772 29577050033547647   7               15022017000000000010000001000213                         0900000000000010000000000000000000000000000000000000000   0000000000000000000000000A9        170192957705     
0010001300040U 020000000000000000000000000000000000000000000000000000000000000000000000000000000000000000000000000000000000000000000000001302201700000000            000000000000000                              000                           
0010001300041T 020180230000001544772 29577050038151853   7               1502201700000000000750000103049X                         0900000000000010000000000000000000000000000000000000000   0000000000000000000000000A9        170192957705     
0010001300042U 020000000000000000000000000000000000000000000000000000000000000000000000000000000000000000000000000000000000000000000000001302201700000000            000000000000000                              000                           
0010001300043T 020180230000001544772 29577050040933719   7               15022017000000000010000001000833                         0900000000000010000000000000000000000000000000000000000   0000000000000000000000000A9        170192957705     
0010001300044U 020000000000000000000000000000000000000000000000000000000000000000000000000000000000000000000000000000000000000000000000001302201700000000            000000000000000                              000                           
0010001300045T 020180230000001544772 29577050057500320   788888888888889914022017000000000007500001012416888888888888899          0900000000000010000000000000000000000000000000000000000   0000000000000000000000000A9        170192957705     
0010001300046U 020000000000000000000000000000000000000000000000000000000000000000000000000000000000000000000000000000000000000000000000001302201700000000            000000000000000                              000                           
0010001300047T 020180230000001544772 29577050057516245   788888888888889914022017000000000007500001012416888888888888899          0900000000000010000000000000000000000000000000000000000   0000000000000000000000000A9        170192957705     
0010001300048U 020000000000000000000000000000000000000000000000000000000000000000000000000000000000000000000000000000000000000000000000001302201700000000            000000000000000                              000                           
0010001300049T 020180230000001544772 29577050058641260   788888888888889913022017000000000007500001000213888888888888899          0900000000000010500000000000000000000000000000000000000   0000000000000000000000000A9A4      170192957705     
0010001300050U 020000000000000000000000000000000000000000000000000000000000000000000000000000000000000000000000000000000000000000000000001302201700000000            000000000000000                              000                           
0010001300051T 020180230000001544772 29577050059445503   7               15022017000000000007500001012408                         0900000000000010500000000000000000000000000000000000000   0000000000000000000000000A9A4      170192957705     
0010001300052U 020000000000000000000000000000000000000000000000000000000000000000000000000000000000000000000000000000000000000000000000001302201700000000            000000000000000                              000                           
0010001300053T 020180230000001544772 29577050064216697   788888888888889913022017000000000007500001012408888888888888899          0900000000000010000000000000000000000000000000000000000   0000000000000000000000000A9        170192957705     
0010001300054U 020000000000000000000000000000000000000000000000000000000000000000000000000000000000000000000000000000000000000000000000001302201700000000            000000000000000                              000                           
0010001300055T 020180230000001544772 29577050064243866   788888888888889913022017000000000007500001012408888888888888899          0900000000000010000000000000000000000000000000000000000   0000000000000000000000000A9        170192957705     
0010001300056U 020000000000000000000000000000000000000000000000000000000000000000000000000000000000000000000000000000000000000000000000001302201700000000            000000000000000                              000                           
0010001300057T 020180230000001544772 29577050077710732   7               15022017000000000007500001012408                         0900000000000010000000000000000000000000000000000000000   0000000000000000000000000A9        170192957705     
0010001300058U 020000000000000000000000000000000000000000000000000000000000000000000000000000000000000000000000000000000000000000000000001302201700000000            000000000000000                              000                           
0010001300059T 020180230000001544772 29577050077717464   7               15022017000000000007500001012408                         0900000000000010000000000000000000000000000000000000000   0000000000000000000000000A9        170192957705     
0010001300060U 020000000000000000000000000000000000000000000000000000000000000000000000000000000000000000000000000000000000000000000000001302201700000000            000000000000000                              000                           
0010001300061T 020180230000001544772 29577050085353887   7               15022017000000000007500001012416                         0900000000000010000000000000000000000000000000000000000   0000000000000000000000000A9        170192957705     
0010001300062U 020000000000000000000000000000000000000000000000000000000000000000000000000000000000000000000000000000000000000000000000001302201700000000            000000000000000                              000                           
0010001300063T 020180230000001544772 29577050085949129   7               15022017000000000007500001012416                         0900000000000010000000000000000000000000000000000000000   0000000000000000000000000A9        170192957705     
0010001300064U 020000000000000000000000000000000000000000000000000000000000000000000000000000000000000000000000000000000000000000000000001302201700000000            000000000000000                              000                           
0010001300065T 020180230000001544772 29577050086902158   788888888888889913022017000000000007500001000213888888888888899          0900000000000010000000000000000000000000000000000000000   0000000000000000000000000A9        170192957705     
0010001300066U 020000000000000000000000000000000000000000000000000000000000000000000000000000000000000000000000000000000000000000000000001302201700000000            000000000000000                              000                           
0010001300067T 020180230000001544772 29577050088849335   7               1502201700000000000750000103049X                         0900000000000010000000000000000000000000000000000000000   0000000000000000000000000A9        170192957705     
0010001300068U 020000000000000000000000000000000000000000000000000000000000000000000000000000000000000000000000000000000000000000000000001302201700000000            000000000000000                              000                           
0010001300069T 020180230000001544772 29577050093545204   7               15022017000000000007500001012408                         0900000000000010000000000000000000000000000000000000000   0000000000000000000000000A9        170192957705     
0010001300070U 020000000000000000000000000000000000000000000000000000000000000000000000000000000000000000000000000000000000000000000000001302201700000000            000000000000000                              000                           
0010001300071T 020180230000001544772 29577050093620397   7               15022017000000000007500001000213                         0900000000000010000000000000000000000000000000000000000   0000000000000000000000000A9        170192957705     
0010001300072U 020000000000000000000000000000000000000000000000000000000000000000000000000000000000000000000000000000000000000000000000001302201700000000            000000000000000                              000                           
0010001300073T 020180230000001544772 29577050094621087   7               15022017000000000007500001012416                         0900000000000010000000000000000000000000000000000000000   0000000000000000000000000A9        170192957705     
0010001300074U 020000000000000000000000000000000000000000000000000000000000000000000000000000000000000000000000000000000000000000000000001302201700000000            000000000000000                              000                           
0010001300075T 020180230000001544772 29577050096112482   7               15022017000000000007500001012416                         0900000000000010500000000000000000000000000000000000000   0000000000000000000000000A9A4      170192957705     
0010001300076U 020000000000000000000000000000000000000000000000000000000000000000000000000000000000000000000000000000000000000000000000001302201700000000            000000000000000                              000                           
0010001300077T 020180230000001544772 29577050096130649   7               15022017000000000007500001012416                         0900000000000010500000000000000000000000000000000000000   0000000000000000000000000A9A4      170192957705     
0010001300078U 020000000000000000000000000000000000000000000000000000000000000000000000000000000000000000000000000000000000000000000000001302201700000000            000000000000000                              000                           
0010001300079T 020180230000001544772 29577050102427874   788888888888889913022017000000000007500001012408888888888888899          0900000000000010000000000000000000000000000000000000000   0000000000000000000000000A9        170192957705     
0010001300080U 020000000000000000000000000000000000000000000000000000000000000000000000000000000000000000000000000000000000000000000000001302201700000000            000000000000000                              000                           
0010001300081T 020180230000001544772 29577050103811050   7               1502201700000000000750000103049X                         0900000000000010000000000000000000000000000000000000000   0000000000000000000000000A9        170192957705     
0010001300082U 020000000000000000000000000000000000000000000000000000000000000000000000000000000000000000000000000000000000000000000000001302201700000000            000000000000000                              000                           
0010001300083T 020180230000001544772 29577050105908979   7               15022017000000000007500001002224                         0900000000000010000000000000000000000000000000000000000   0000000000000000000000000A9        170192957705     
0010001300084U 020000000000000000000000000000000000000000000000000000000000000000000000000000000000000000000000000000000000000000000000001302201700000000            000000000000000                              000                           
0010001300085T 020180230000001544772 29577050106812419   7               15022017000000000007500001000213                         0900000000000010000000000000000000000000000000000000000   0000000000000000000000000A9        170192957705     
0010001300086U 020000000000000000000000000000000000000000000000000000000000000000000000000000000000000000000000000000000000000000000000001302201700000000            000000000000000                              000                           
0010001300087T 020180230000001544772 29577050106825284   7               15022017000000000007500001000213                         0900000000000010000000000000000000000000000000000000000   0000000000000000000000000A9        170192957705     
0010001300088U 020000000000000000000000000000000000000000000000000000000000000000000000000000000000000000000000000000000000000000000000001302201700000000            000000000000000                              000                           
0010001300089T 020180230000001544772 29577050111311445   78888888888888991402201700000000000750000103049X888888888888899          0900000000000010000000000000000000000000000000000000000   0000000000000000000000000A9        170192957705     
0010001300090U 020000000000000000000000000000000000000000000000000000000000000000000000000000000000000000000000000000000000000000000000001302201700000000            000000000000000                              000                           
0010001300091T 020180230000001544772 29577050111352787   78888888888888991402201700000000000750000103049X888888888888899          0900000000000010000000000000000000000000000000000000000   0000000000000000000000000A9        170192957705     
0010001300092U 020000000000000000000000000000000000000000000000000000000000000000000000000000000000000000000000000000000000000000000000001302201700000000            000000000000000                              000                           
0010001300093T 020180230000001544772 29577050120822184   7               15022017000000000007500001012408                         0900000000000010000000000000000000000000000000000000000   0000000000000000000000000A9        170192957705     
0010001300094U 020000000000000000000000000000000000000000000000000000000000000000000000000000000000000000000000000000000000000000000000001302201700000000            000000000000000                              000                           
0010001300095T 020180230000001544772 29577050121154508   7               1502201700000000000750000103049X                         0900000000000010000000000000000000000000000000000000000   0000000000000000000000000A9        170192957705     
0010001300096U 020000000000000000000000000000000000000000000000000000000000000000000000000000000000000000000000000000000000000000000000001302201700000000            000000000000000                              000                           
0010001300097T 020180230000001544772 29577050121300729   7               15022017000000000007500001012416                         0900000000000010000000000000000000000000000000000000000   0000000000000000000000000A9        170192957705     
0010001300098U 020000000000000000000000000000000000000000000000000000000000000000000000000000000000000000000000000000000000000000000000001302201700000000            000000000000000                              000                           
0010001300099T 020180230000001544772 29577050139233027   788888888888889914022017000000000007500001012416888888888888899          0900000000000010000000000000000000000000000000000000000   0000000000000000000000000A9        170192957705     
0010001300100U 020000000000000000000000000000000000000000000000000000000000000000000000000000000000000000000000000000000000000000000000001302201700000000            000000000000000                              000                           
0010001300101T 020180230000001544772 29577050140336706   7               15022017000000000007500001009245                         0900000000000010000000000000000000000000000000000000000   0000000000000000000000000A9        170192957705     
0010001300102U 020000000000000000000000000000000000000000000000000000000000000000000000000000000000000000000000000000000000000000000000001302201700000000            000000000000000                              000                           
0010001300103T 020180230000001544772 29577050140351774   7               15022017000000000007500001009245                         0900000000000010000000000000000000000000000000000000000   0000000000000000000000000A9        170192957705     
0010001300104U 020000000000000000000000000000000000000000000000000000000000000000000000000000000000000000000000000000000000000000000000001302201700000000            000000000000000                              000                           
0010001300105T 020180230000001544772 29577050143348272   7               15022017000000000007500001002224                         0900000000000010000000000000000000000000000000000000000   0000000000000000000000000A9        170192957705     
0010001300106U 020000000000000000000000000000000000000000000000000000000000000000000000000000000000000000000000000000000000000000000000001302201700000000            000000000000000                              000                           
0010001300107T 020180230000001544772 29577050143548583   7               15022017000000000007500001002224                         0900000000000010000000000000000000000000000000000000000   0000000000000000000000000A9        170192957705     
0010001300108U 020000000000000000000000000000000000000000000000000000000000000000000000000000000000000000000000000000000000000000000000001302201700000000            000000000000000                              000                           
0010001300109T 020180230000001544772 29577050160025619   7               1502201700000000000750000103049X                         0900000000000010000000000000000000000000000000000000000   0000000000000000000000000A9        170192957705     
0010001300110U 020000000000000000000000000000000000000000000000000000000000000000000000000000000000000000000000000000000000000000000000001302201700000000            000000000000000                              000                           
0010001300111T 020180230000001544772 29577050163901432   78888888888888991402201700000000000750000103049X888888888888899          0900000000000010000000000000000000000000000000000000000   0000000000000000000000000A9        170192957705     
0010001300112U 020000000000000000000000000000000000000000000000000000000000000000000000000000000000000000000000000000000000000000000000001302201700000000            000000000000000                              000                           
0010001300113T 020180230000001544772 29577050167147761   788888888888889914022017000000000007500001012408888888888888899          0900000000000010500000000000000000000000000000000000000   0000000000000000000000000A9A4      170192957705     
0010001300114U 020000000000000000000000000000000000000000000000000000000000000000000000000000000000000000000000000000000000000000000000001302201700000000            000000000000000                              000                           
0010001300115T 020180230000001544772 29577050168035986   7               15022017000000000007500001000213                         0900000000000010000000000000000000000000000000000000000   0000000000000000000000000A9        170192957705     
0010001300116U 020000000000000000000000000000000000000000000000000000000000000000000000000000000000000000000000000000000000000000000000001302201700000000            000000000000000                              000                           
0010001300117T 020180230000001544772 29577050181306407   788888888888889913022017000000000007500001012408888888888888899          0900000000000010500000000000000000000000000000000000000   0000000000000000000000000A9A4      170192957705     
0010001300118U 020000000000000000000000000000000000000000000000000000000000000000000000000000000000000000000000000000000000000000000000001302201700000000            000000000000000                              000                           
0010001300119T 020180230000001544772 29577050182321667   7               15022017000000000007500001000213                         0900000000000010000000000000000000000000000000000000000   0000000000000000000000000A9        170192957705     
0010001300120U 020000000000000000000000000000000000000000000000000000000000000000000000000000000000000000000000000000000000000000000000001302201700000000            000000000000000                              000                           
0010001300121T 020180230000001544772 29577050182826336   788888888888889914022017000000000007500001000213888888888888899          0900000000000010000000000000000000000000000000000000000   0000000000000000000000000A9        170192957705     
0010001300122U 020000000000000000000000000000000000000000000000000000000000000000000000000000000000000000000000000000000000000000000000001302201700000000            000000000000000                              000                           
0010001300123T 020180230000001544772 29577050183105181   7               14022017000000000007500001000213                         0900000000000010000000000000000000000000000000000000000   0000000000000000000000000A9        170192957705     
0010001300124U 020000000000000000000000000000000000000000000000000000000000000000000000000000000000000000000000000000000000000000000000001202201700000000            000000000000000                              000                           
0010001300125T 020180230000001544772 29577050183108725   7               14022017000000000007500001000213                         0900000000000010000000000000000000000000000000000000000   0000000000000000000000000A9        170192957705     
0010001300126U 020000000000000000000000000000000000000000000000000000000000000000000000000000000000000000000000000000000000000000000000001202201700000000            000000000000000                              000                           
0010001300127T 020180230000001544772 29577050183123317   7               14022017000000000007500001000213                         0900000000000010000000000000000000000000000000000000000   0000000000000000000000000A9        170192957705     
0010001300128U 020000000000000000000000000000000000000000000000000000000000000000000000000000000000000000000000000000000000000000000000001202201700000000            000000000000000                              000                           
0010001300129T 020180230000001544772 29577050183148418   7               14022017000000000007500001000213                         0900000000000010000000000000000000000000000000000000000   0000000000000000000000000A9        170192957705     
0010001300130U 020000000000000000000000000000000000000000000000000000000000000000000000000000000000000000000000000000000000000000000000001202201700000000            000000000000000                              000                           
0010001300131T 020180230000001544772 29577050183148583   7               14022017000000000007500001000213                         0900000000000010000000000000000000000000000000000000000   0000000000000000000000000A9        170192957705     
0010001300132U 020000000000000000000000000000000000000000000000000000000000000000000000000000000000000000000000000000000000000000000000001202201700000000            000000000000000                              000                           
0010001300133T 020180230000001544772 29577050184502387   78888888888888991402201700000000000750000103049X888888888888899          0900000000000010000000000000000000000000000000000000000   0000000000000000000000000A9        170192957705     
0010001300134U 020000000000000000000000000000000000000000000000000000000000000000000000000000000000000000000000000000000000000000000000001302201700000000            000000000000000                              000                           
0010001300135T 020180230000001544772 29577050188612142   788888888888889914022017000000000007500001012416888888888888899          0900000000000010000000000000000000000000000000000000000   0000000000000000000000000A9        170192957705     
0010001300136U 020000000000000000000000000000000000000000000000000000000000000000000000000000000000000000000000000000000000000000000000001302201700000000            000000000000000                              000                           
0010001300137T 020180230000001544772 29577050199057865   788888888888889913022017000000000007500001012416888888888888899          0900000000000010000000000000000000000000000000000000000   0000000000000000000000000A9        170192957705     
0010001300138U 020000000000000000000000000000000000000000000000000000000000000000000000000000000000000000000000000000000000000000000000001302201700000000            000000000000000                              000                           
0010001300139T 020180230000001544772 29577050202814237   7               1402201700000000000750000103049X                         0900000000000010000000000000000000000000000000000000000   0000000000000000000000000A9        170192957705     
0010001300140U 020000000000000000000000000000000000000000000000000000000000000000000000000000000000000000000000000000000000000000000000001202201700000000            000000000000000                              000                           
0010001300141T 020180230000001544772 29577050202824087   7               1402201700000000000750000103049X                         0900000000000010000000000000000000000000000000000000000   0000000000000000000000000A9        170192957705     
0010001300142U 020000000000000000000000000000000000000000000000000000000000000000000000000000000000000000000000000000000000000000000000001202201700000000            000000000000000                              000                           
0010001300143T 020180230000001544772 29577050202826883   7               1402201700000000000750000103049X                         0900000000000010000000000000000000000000000000000000000   0000000000000000000000000A9        170192957705     
0010001300144U 020000000000000000000000000000000000000000000000000000000000000000000000000000000000000000000000000000000000000000000000001202201700000000            000000000000000                              000                           
0010001300145T 020180230000001544772 29577050202827769   7               1502201700000000000750000103049X                         0900000000000010000000000000000000000000000000000000000   0000000000000000000000000A9        170192957705     
0010001300146U 020000000000000000000000000000000000000000000000000000000000000000000000000000000000000000000000000000000000000000000000001302201700000000            000000000000000                              000                           
0010001300147T 020180230000001544772 29577050202856153   7               1502201700000000000750000103049X                         0900000000000010000000000000000000000000000000000000000   0000000000000000000000000A9        170192957705     
0010001300148U 020000000000000000000000000000000000000000000000000000000000000000000000000000000000000000000000000000000000000000000000001302201700000000            000000000000000                              000                           
0010001300149T 020180230000001544772 29577050203903742   7               15022017000000000007500001012416                         0900000000000010000000000000000000000000000000000000000   0000000000000000000000000A9        170192957705     
0010001300150U 020000000000000000000000000000000000000000000000000000000000000000000000000000000000000000000000000000000000000000000000001302201700000000            000000000000000                              000                           
0010001300151T 020180230000001544772 29577050203904332   7               14022017000000000007500001012416                         0900000000000010000000000000000000000000000000000000000   0000000000000000000000000A9        170192957705     
0010001300152U 020000000000000000000000000000000000000000000000000000000000000000000000000000000000000000000000000000000000000000000000001202201700000000            000000000000000                              000                           
0010001300153T 020180230000001544772 29577050204106951   7               1502201700000000000750000103049X                         0900000000000010000000000000000000000000000000000000000   0000000000000000000000000A9        170192957705     
0010001300154U 020000000000000000000000000000000000000000000000000000000000000000000000000000000000000000000000000000000000000000000000001302201700000000            000000000000000                              000                           
0010001300155T 020180230000001544772 29577050204125018   78888888888888991402201700000000000750000103049X888888888888899          0900000000000010000000000000000000000000000000000000000   0000000000000000000000000A9        170192957705     
0010001300156U 020000000000000000000000000000000000000000000000000000000000000000000000000000000000000000000000000000000000000000000000001302201700000000            000000000000000                              000                           
0010001300157T 020180230000001544772 29577050207925428   78888888888888991402201700000000000750000103049X888888888888899          0900000000000010000000000000000000000000000000000000000   0000000000000000000000000A9        170192957705     
0010001300158U 020000000000000000000000000000000000000000000000000000000000000000000000000000000000000000000000000000000000000000000000001302201700000000            000000000000000                              000                           
0010001300159T 020180230000001544772 29577050208200644   7               15022017000000000007500001000213                         0900000000000010000000000000000000000000000000000000000   0000000000000000000000000A9        170192957705     
0010001300160U 020000000000000000000000000000000000000000000000000000000000000000000000000000000000000000000000000000000000000000000000001302201700000000            000000000000000                              000                           
0010001300161T 020180230000001544772 29577050208220762   7               15022017000000000007500001000213                         0900000000000010000000000000000000000000000000000000000   0000000000000000000000000A9        170192957705     
0010001300162U 020000000000000000000000000000000000000000000000000000000000000000000000000000000000000000000000000000000000000000000000001302201700000000            000000000000000                              000                           
0010001300163T 020180230000001544772 29577050208310952   7               15022017000000000007500001000213                         0900000000000010000000000000000000000000000000000000000   0000000000000000000000000A9        170192957705     
0010001300164U 020000000000000000000000000000000000000000000000000000000000000000000000000000000000000000000000000000000000000000000000001302201700000000            000000000000000                              000                           
0010001300165T 020180230000001544772 29577050211415095   78888888888888991302201700000000000750000103049X888888888888899          0900000000000010000000000000000000000000000000000000000   0000000000000000000000000A9        170192957705     
0010001300166U 020000000000000000000000000000000000000000000000000000000000000000000000000000000000000000000000000000000000000000000000001302201700000000            000000000000000                              000                           
0010001300167T 020180230000001544772 29577050214910081   788888888888889913022017000000000007500001000213888888888888899          0900000000000010000000000000000000000000000000000000000   0000000000000000000000000A9        170192957705     
0010001300168U 020000000000000000000000000000000000000000000000000000000000000000000000000000000000000000000000000000000000000000000000001302201700000000            000000000000000                              000                           
0010001300169T 020180230000001544772 29577050215134545   7               15022017000000000007500001012416                         0900000000000010000000000000000000000000000000000000000   0000000000000000000000000A9        170192957705     
0010001300170U 020000000000000000000000000000000000000000000000000000000000000000000000000000000000000000000000000000000000000000000000001302201700000000            000000000000000                              000                           
0010001300171T 020180230000001544772 29577050232929628   7               15022017000000000010000001004782                         0900000000000010000000000000000000000000000000000000000   0000000000000000000000000A9        170192957705     
0010001300172U 020000000000000000000000000000000000000000000000000000000000000000000000000000000000000000000000000000000000000000000000001302201700000000            000000000000000                              000                           
0010001300173T 020180230000001544772 29577050232952099   7               15022017000000000010000001004782                         0900000000000010000000000000000000000000000000000000000   0000000000000000000000000A9        170192957705     
0010001300174U 020000000000000000000000000000000000000000000000000000000000000000000000000000000000000000000000000000000000000000000000001302201700000000            000000000000000                              000                           
0010001300175T 020180230000001544772 29577050237552137   7               15022017000000000007500001012416                         0900000000000010000000000000000000000000000000000000000   0000000000000000000000000A9        170192957705     
0010001300176U 020000000000000000000000000000000000000000000000000000000000000000000000000000000000000000000000000000000000000000000000001302201700000000            000000000000000                              000                           
0010001300177T 020180230000001544772 29577050249017452   7               15022017000000000007500001012408                         0900000000000010000000000000000000000000000000000000000   0000000000000000000000000A9        170192957705     
0010001300178U 020000000000000000000000000000000000000000000000000000000000000000000000000000000000000000000000000000000000000000000000001302201700000000            000000000000000                              000                           
0010001300179T 020180230000001544772 29577050250509207   7               15022017000000000007500001000213                         0900000000000010500000000000000000000000000000000000000   0000000000000000000000000A9A4      170192957705     
0010001300180U 020000000000000000000000000000000000000000000000000000000000000000000000000000000000000000000000000000000000000000000000001302201700000000            000000000000000                              000                           
0010001300181T 020180230000001544772 29577050250559397   7               15022017000000000007500001000213                         0900000000000010500000000000000000000000000000000000000   0000000000000000000000000A9A4      170192957705     
0010001300182U 020000000000000000000000000000000000000000000000000000000000000000000000000000000000000000000000000000000000000000000000001302201700000000            000000000000000                              000                           
0010001300183T 020180230000001544772 29577050258241951   78888888888888991402201700000000000750000103049X888888888888899          0900000000000010500000000000000000000000000000000000000   0000000000000000000000000A9A4      170192957705     
0010001300184U 020000000000000000000000000000000000000000000000000000000000000000000000000000000000000000000000000000000000000000000000001302201700000000            000000000000000                              000                           
0010001300185T 020180230000001544772 29577050259434086   7               15022017000000000007500001000213                         0900000000000010000000000000000000000000000000000000000   0000000000000000000000000A9        170192957705     
0010001300186U 020000000000000000000000000000000000000000000000000000000000000000000000000000000000000000000000000000000000000000000000001302201700000000            000000000000000                              000                           
0010001300187T 020180230000001544772 29577050262845570   7               1502201700000000000750000100829X                         0900000000000010000000000000000000000000000000000000000   0000000000000000000000000A9        170192957705     
0010001300188U 020000000000000000000000000000000000000000000000000000000000000000000000000000000000000000000000000000000000000000000000001302201700000000            000000000000000                              000                           
0010001300189T 020180230000001544772 29577050263227750   7               15022017000000000007500001000213                         0900000000000010000000000000000000000000000000000000000   0000000000000000000000000A9        170192957705     
0010001300190U 020000000000000000000000000000000000000000000000000000000000000000000000000000000000000000000000000000000000000000000000001302201700000000            000000000000000                              000                           
0010001300191T 020180230000001544772 29577050270524798   7               15022017000000000007500001012416                         0900000000000010000000000000000000000000000000000000000   0000000000000000000000000A9        170192957705     
0010001300192U 020000000000000000000000000000000000000000000000000000000000000000000000000000000000000000000000000000000000000000000000001302201700000000            000000000000000                              000                           
0010001300193T 020180230000001544772 29577050274344778   7               1502201700000000000750000103049X                         0900000000000010500000000000000000000000000000000000000   0000000000000000000000000A9A4      170192957705     
0010001300194U 020000000000000000000000000000000000000000000000000000000000000000000000000000000000000000000000000000000000000000000000001302201700000000            000000000000000                              000                           
0010001300195T 020180230000001544772 29577050274419371   7               1502201700000000000750000103049X                         0900000000000010500000000000000000000000000000000000000   0000000000000000000000000A9A4      170192957705     
0010001300196U 020000000000000000000000000000000000000000000000000000000000000000000000000000000000000000000000000000000000000000000000001302201700000000            000000000000000                              000                           
0010001300197T 020180230000001544772 29577050275540661   7               15022017000000000007500001000213                         0900000000000010000000000000000000000000000000000000000   0000000000000000000000000A9        170192957705     
0010001300198U 020000000000000000000000000000000000000000000000000000000000000000000000000000000000000000000000000000000000000000000000001302201700000000            000000000000000                              000                           
0010001300199T 020180230000001544772 29577050281344508   7               15022017000000000010000001012408                         0900000000000010000000000000000000000000000000000000000   0000000000000000000000000A9        170192957705     
0010001300200U 020000000000000000000000000000000000000000000000000000000000000000000000000000000000000000000000000000000000000000000000001302201700000000            000000000000000                              000                           
0010001300201T 020180230000001544772 29577050281953918   7               15022017000000000007500001000213                         0900000000000010000000000000000000000000000000000000000   0000000000000000000000000A9        170192957705     
0010001300202U 020000000000000000000000000000000000000000000000000000000000000000000000000000000000000000000000000000000000000000000000001302201700000000            000000000000000                              000                           
0010001300203T 020180230000001544772 29577050287933560   788888888888889914022017000000000007500001000213888888888888899          0900000000000010000000000000000000000000000000000000000   0000000000000000000000000A9        170192957705     
0010001300204U 020000000000000000000000000000000000000000000000000000000000000000000000000000000000000000000000000000000000000000000000001302201700000000            000000000000000                              000                           
0010001300205T 020180230000001544772 29577050289946853   7               15022017000000000007500001046280                         0900000000000010000000000000000000000000000000000000000   0000000000000000000000000A9        170192957705     
0010001300206U 020000000000000000000000000000000000000000000000000000000000000000000000000000000000000000000000000000000000000000000000001302201700000000            000000000000000                              000                           
0010001300207T 020180230000001544772 29577050290045530   7               15022017000000000007500001012408                         0900000000000010000000000000000000000000000000000000000   0000000000000000000000000A9        170192957705     
0010001300208U 020000000000000000000000000000000000000000000000000000000000000000000000000000000000000000000000000000000000000000000000001302201700000000            000000000000000                              000                           
0010001300209T 020180230000001544772 29577050292300801   7               15022017000000000007500001000213                         0900000000000010000000000000000000000000000000000000000   0000000000000000000000000A9        170192957705     
0010001300210U 020000000000000000000000000000000000000000000000000000000000000000000000000000000000000000000000000000000000000000000000001302201700000000            000000000000000                              000                           
0010001300211T 020180230000001544772 29577050296213313   788888888888889914022017000000000007500001000213888888888888899          0900000000000010000000000000000000000000000000000000000   0000000000000000000000000A9        170192957705     
0010001300212U 020000000000000000000000000000000000000000000000000000000000000000000000000000000000000000000000000000000000000000000000001302201700000000            000000000000000                              000                           
0010001300213T 020180230000001544772 29577050302707646   788888888888889914022017000000000007500001012416888888888888899          0900000000000010000000000000000000000000000000000000000   0000000000000000000000000A9        170192957705     
0010001300214U 020000000000000000000000000000000000000000000000000000000000000000000000000000000000000000000000000000000000000000000000001302201700000000            000000000000000                              000                           
0010001300215T 020180230000001544772 29577050305658264   7               15022017000000000007500001000213                         0900000000000010000000000000000000000000000000000000000   0000000000000000000000000A9        170192957705     
0010001300216U 020000000000000000000000000000000000000000000000000000000000000000000000000000000000000000000000000000000000000000000000001302201700000000            000000000000000                              000                           
0010001300217T 020180230000001544772 29577050314714157   7               15022017000000000007500001012408                         0900000000000010000000000000000000000000000000000000000   0000000000000000000000000A9        170192957705     
0010001300218U 020000000000000000000000000000000000000000000000000000000000000000000000000000000000000000000000000000000000000000000000001302201700000000            000000000000000                              000                           
0010001300219T 020180230000001544772 29577050320219700   7               15022017000000000007500001012408                         0900000000000010000000000000000000000000000000000000000   0000000000000000000000000A9        170192957705     
0010001300220U 020000000000000000000000000000000000000000000000000000000000000000000000000000000000000000000000000000000000000000000000001302201700000000            000000000000000                              000                           
0010001300221T 020180230000001544772 29577050321101496   7               15022017000000000007500001004782                         0900000000000010000000000000000000000000000000000000000   0000000000000000000000000A9        170192957705     
0010001300222U 020000000000000000000000000000000000000000000000000000000000000000000000000000000000000000000000000000000000000000000000001302201700000000            000000000000000                              000                           
0010001300223T 020180230000001544772 29577050321145263   7               15022017000000000007500001004782                         0900000000000010000000000000000000000000000000000000000   0000000000000000000000000A9        170192957705     
0010001300224U 020000000000000000000000000000000000000000000000000000000000000000000000000000000000000000000000000000000000000000000000001302201700000000            000000000000000                              000                           
0010001300225T 020180230000001544772 29577050321417095   78888888888888991402201700000000000750000103049X888888888888899          0900000000000010000000000000000000000000000000000000000   0000000000000000000000000A9        170192957705     
0010001300226U 020000000000000000000000000000000000000000000000000000000000000000000000000000000000000000000000000000000000000000000000001302201700000000            000000000000000                              000                           
0010001300227T 020180230000001544772 29577050329649040   7               15022017000000000007500001000213                         0900000000000010000000000000000000000000000000000000000   0000000000000000000000000A9        170192957705     
0010001300228U 020000000000000000000000000000000000000000000000000000000000000000000000000000000000000000000000000000000000000000000000001302201700000000            000000000000000                              000                           
0010001300229T 020180230000001544772 29577050330157768   7               15022017000000000007500001012408                         0900000000000010500000000000000000000000000000000000000   0000000000000000000000000A9A4      170192957705     
0010001300230U 020000000000000000000000000000000000000000000000000000000000000000000000000000000000000000000000000000000000000000000000001302201700000000            000000000000000                              000                           
0010001300231T 020180230000001544772 29577050330251923   7               15022017000000000007500001012408                         0900000000000010500000000000000000000000000000000000000   0000000000000000000000000A9A4      170192957705     
0010001300232U 020000000000000000000000000000000000000000000000000000000000000000000000000000000000000000000000000000000000000000000000001302201700000000            000000000000000                              000                           
0010001300233T 020180230000001544772 29577050336646685   788888888888889914022017000000000007500001012408888888888888899          0900000000000010500000000000000000000000000000000000000   0000000000000000000000000A9A4      170192957705     
0010001300234U 020000000000000000000000000000000000000000000000000000000000000000000000000000000000000000000000000000000000000000000000001302201700000000            000000000000000                              000                           
0010001300235T 020180230000001544772 29577050338617781   788888888888889913022017000000000007500001024511888888888888899          0900000000000010000000000000000000000000000000000000000   0000000000000000000000000A9        170192957705     
0010001300236U 020000000000000000000000000000000000000000000000000000000000000000000000000000000000000000000000000000000000000000000000001302201700000000            000000000000000                              000                           
0010001300237T 020180230000001544772 29577050339249279   7               15022017000000000007500001012408                         0900000000000010000000000000000000000000000000000000000   0000000000000000000000000A9        170192957705     
0010001300238U 020000000000000000000000000000000000000000000000000000000000000000000000000000000000000000000000000000000000000000000000001302201700000000            000000000000000                              000                           
0010001300239T 020180230000001544772 29577050341609374   7               14022017000000000007500001000213                         0900000000000010000000000000000000000000000000000000000   0000000000000000000000000A9        170192957705     
0010001300240U 020000000000000000000000000000000000000000000000000000000000000000000000000000000000000000000000000000000000000000000000001202201700000000            000000000000000                              000                           
0010001300241T 020180230000001544772 29577050341650704   7               14022017000000000007500001000213                         0900000000000010000000000000000000000000000000000000000   0000000000000000000000000A9        170192957705     
0010001300242U 020000000000000000000000000000000000000000000000000000000000000000000000000000000000000000000000000000000000000000000000001202201700000000            000000000000000                              000                           
0010001300243T 020180230000001544772 29577050341651753   7               14022017000000000007500001000213                         0900000000000010000000000000000000000000000000000000000   0000000000000000000000000A9        170192957705     
0010001300244U 020000000000000000000000000000000000000000000000000000000000000000000000000000000000000000000000000000000000000000000000001202201700000000            000000000000000                              000                           
0010001300245T 020180230000001544772 29577050341658318   7               14022017000000000007500001000213                         0900000000000010000000000000000000000000000000000000000   0000000000000000000000000A9        170192957705     
0010001300246U 020000000000000000000000000000000000000000000000000000000000000000000000000000000000000000000000000000000000000000000000001202201700000000            000000000000000                              000                           
0010001300247T 020180230000001544772 29577050342403652   7               14022017000000000007500001000213                         0900000000000010000000000000000000000000000000000000000   0000000000000000000000000A9        170192957705     
0010001300248U 020000000000000000000000000000000000000000000000000000000000000000000000000000000000000000000000000000000000000000000000001202201700000000            000000000000000                              000                           
0010001300249T 020180230000001544772 29577050344728751   7               15022017000000000007500001009245                         0900000000000010000000000000000000000000000000000000000   0000000000000000000000000A9        170192957705     
0010001300250U 020000000000000000000000000000000000000000000000000000000000000000000000000000000000000000000000000000000000000000000000001302201700000000            000000000000000                              000                           
0010001300251T 020180230000001544772 29577050351630417   788888888888889914022017000000000007500001012408888888888888899          0900000000000010000000000000000000000000000000000000000   0000000000000000000000000A9        170192957705     
0010001300252U 020000000000000000000000000000000000000000000000000000000000000000000000000000000000000000000000000000000000000000000000001302201700000000            000000000000000                              000                           
0010001300253T 020180230000001544772 29577050351852239   7               1502201700000000000750000103049X                         0900000000000010000000000000000000000000000000000000000   0000000000000000000000000A9        170192957705     
0010001300254U 020000000000000000000000000000000000000000000000000000000000000000000000000000000000000000000000000000000000000000000000001302201700000000            000000000000000                              000                           
0010001300255T 020180230000001544772 29577050353556014   7               15022017000000000007500001002224                         0900000000000010000000000000000000000000000000000000000   0000000000000000000000000A9        170192957705     
0010001300256U 020000000000000000000000000000000000000000000000000000000000000000000000000000000000000000000000000000000000000000000000001302201700000000            000000000000000                              000                           
0010001300257T 020180230000001544772 29577050354619730   788888888888889914022017000000000007500001012408888888888888899          0900000000000010000000000000000000000000000000000000000   0000000000000000000000000A9        170192957705     
0010001300258U 020000000000000000000000000000000000000000000000000000000000000000000000000000000000000000000000000000000000000000000000001302201700000000            000000000000000                              000                           
0010001300259T 020180230000001544772 29577050357714026   7               15022017000000000007500001000213                         0900000000000010000000000000000000000000000000000000000   0000000000000000000000000A9        170192957705     
0010001300260U 020000000000000000000000000000000000000000000000000000000000000000000000000000000000000000000000000000000000000000000000001302201700000000            000000000000000                              000                           
0010001300261T 020180230000001544772 29577050359849742   788888888888889914022017000000000007500001012416888888888888899          0900000000000010000000000000000000000000000000000000000   0000000000000000000000000A9        170192957705     
0010001300262U 020000000000000000000000000000000000000000000000000000000000000000000000000000000000000000000000000000000000000000000000001302201700000000            000000000000000                              000                           
0010001300263T 020180230000001544772 29577050379043654   788888888888889914022017000000000007500001000213888888888888899          0900000000000010000000000000000000000000000000000000000   0000000000000000000000000A9        170192957705     
0010001300264U 020000000000000000000000000000000000000000000000000000000000000000000000000000000000000000000000000000000000000000000000001302201700000000            000000000000000                              000                           
0010001300265T 020180230000001544772 29577050379735623   7               15022017000000000007500001012416                         0900000000000010000000000000000000000000000000000000000   0000000000000000000000000A9        170192957705     
0010001300266U 020000000000000000000000000000000000000000000000000000000000000000000000000000000000000000000000000000000000000000000000001302201700000000            000000000000000                              000                           
0010001300267T 020180230000001544772 29577050383234192   7               15022017000000000007500001000213                         0900000000000010000000000000000000000000000000000000000   0000000000000000000000000A9        170192957705     
0010001300268U 020000000000000000000000000000000000000000000000000000000000000000000000000000000000000000000000000000000000000000000000001302201700000000            000000000000000                              000                           
0010001300269T 020180230000001544772 29577050383315837   7               15022017000000000007500001000213                         0900000000000010000000000000000000000000000000000000000   0000000000000000000000000A9        170192957705     
0010001300270U 020000000000000000000000000000000000000000000000000000000000000000000000000000000000000000000000000000000000000000000000001302201700000000            000000000000000                              000                           
0010001300271T 020180230000001544772 29577050384222779   7               15022017000000000007500001012408                         0900000000000010000000000000000000000000000000000000000   0000000000000000000000000A9        170192957705     
0010001300272U 020000000000000000000000000000000000000000000000000000000000000000000000000000000000000000000000000000000000000000000000001302201700000000            000000000000000                              000                           
0010001300273T 020180230000001544772 29577050385821027   7               1402201700000000000750000103049X                         0900000000000010000000000000000000000000000000000000000   0000000000000000000000000A9        170192957705     
0010001300274U 020000000000000000000000000000000000000000000000000000000000000000000000000000000000000000000000000000000000000000000000001202201700000000            000000000000000                              000                           
0010001300275T 020180230000001544772 29577050393126680   7               15022017000000000007500001012408                         0900000000000010000000000000000000000000000000000000000   0000000000000000000000000A9        170192957705     
0010001300276U 020000000000000000000000000000000000000000000000000000000000000000000000000000000000000000000000000000000000000000000000001302201700000000            000000000000000                              000                           
0010001300277T 020180230000001544772 29577050398322364   7               1502201700000000000750000103049X                         0900000000000010000000000000000000000000000000000000000   0000000000000000000000000A9        170192957705     
0010001300278U 020000000000000000000000000000000000000000000000000000000000000000000000000000000000000000000000000000000000000000000000001302201700000000            000000000000000                              000                           
0010001300279T 020180230000001544772 29577050398346640   78888888888888991402201700000000000750000103049X888888888888899          0900000000000010000000000000000000000000000000000000000   0000000000000000000000000A9        170192957705     
0010001300280U 020000000000000000000000000000000000000000000000000000000000000000000000000000000000000000000000000000000000000000000000001302201700000000            000000000000000                              000                           
0010001300281T 020180230000001544772 29577050398350730   78888888888888991302201700000000000750000103049X888888888888899          0900000000000010000000000000000000000000000000000000000   0000000000000000000000000A9        170192957705     
0010001300282U 020000000000000000000000000000000000000000000000000000000000000000000000000000000000000000000000000000000000000000000000001302201700000000            000000000000000                              000                           
0010001300283T 020180230000001544772 29577050398608134   7               14022017000000000007500001000213                         0900000000000010000000000000000000000000000000000000000   0000000000000000000000000A9        170192957705     
0010001300284U 020000000000000000000000000000000000000000000000000000000000000000000000000000000000000000000000000000000000000000000000001202201700000000            000000000000000                              000                           
0010001300285T 020180230000001544772 29577050398619051   788888888888889913022017000000000007500001000213888888888888899          0900000000000010000000000000000000000000000000000000000   0000000000000000000000000A9        170192957705     
0010001300286U 020000000000000000000000000000000000000000000000000000000000000000000000000000000000000000000000000000000000000000000000001302201700000000            000000000000000                              000                           
0010001300287T 020180230000001544772 29577050398637377   7               14022017000000000007500001000213                         0900000000000010000000000000000000000000000000000000000   0000000000000000000000000A9        170192957705     
0010001300288U 020000000000000000000000000000000000000000000000000000000000000000000000000000000000000000000000000000000000000000000000001202201700000000            000000000000000                              000                           
0010001300289T 020180230000001544772 29577050398638773   7               14022017000000000007500001000213                         0900000000000010000000000000000000000000000000000000000   0000000000000000000000000A9        170192957705     
0010001300290U 020000000000000000000000000000000000000000000000000000000000000000000000000000000000000000000000000000000000000000000000001202201700000000            000000000000000                              000                           
0010001300291T 020180230000001544772 29577050406617048   7               15022017000000000007500001012408                         0900000000000010000000000000000000000000000000000000000   0000000000000000000000000A9        170192957705     
0010001300292U 020000000000000000000000000000000000000000000000000000000000000000000000000000000000000000000000000000000000000000000000001302201700000000            000000000000000                              000                           
0010001300293T 020180230000001544772 29577050407705508   7               15022017000000000010000001012408                         0900000000000010000000000000000000000000000000000000000   0000000000000000000000000A9        170192957705     
0010001300294U 020000000000000000000000000000000000000000000000000000000000000000000000000000000000000000000000000000000000000000000000001302201700000000            000000000000000                              000                           
0010001300295T 020180230000001544772 29577050407718303   788888888888889914022017000000000010000001012408888888888888899          0900000000000010000000000000000000000000000000000000000   0000000000000000000000000A9        170192957705     
0010001300296U 020000000000000000000000000000000000000000000000000000000000000000000000000000000000000000000000000000000000000000000000001302201700000000            000000000000000                              000                           
0010001300297T 020180230000001544772 29577050409542471   7               15022017000000000007500001012408                         0900000000000010000000000000000000000000000000000000000   0000000000000000000000000A9        170192957705     
0010001300298U 020000000000000000000000000000000000000000000000000000000000000000000000000000000000000000000000000000000000000000000000001302201700000000            000000000000000                              000                           
0010001300299T 020180230000001544772 29577050412138125   7               15022017000000000007500001000213                         0900000000000010000000000000000000000000000000000000000   0000000000000000000000000A9        170192957705     
0010001300300U 020000000000000000000000000000000000000000000000000000000000000000000000000000000000000000000000000000000000000000000000001302201700000000            000000000000000                              000                           
0010001300301T 020180230000001544772 29577050412138409   7               15022017000000000007500001000213                         0900000000000010000000000000000000000000000000000000000   0000000000000000000000000A9        170192957705     
0010001300302U 020000000000000000000000000000000000000000000000000000000000000000000000000000000000000000000000000000000000000000000000001302201700000000            000000000000000                              000                           
0010001300303T 020180230000001544772 29577050414939661   7               1502201700000000000750000103049X                         0900000000000010000000000000000000000000000000000000000   0000000000000000000000000A9        170192957705     
0010001300304U 020000000000000000000000000000000000000000000000000000000000000000000000000000000000000000000000000000000000000000000000001302201700000000            000000000000000                              000                           
0010001300305T 020180230000001544772 29577050420433526   7               15022017000000000007500001000213                         0900000000000010000000000000000000000000000000000000000   0000000000000000000000000A9        170192957705     
0010001300306U 020000000000000000000000000000000000000000000000000000000000000000000000000000000000000000000000000000000000000000000000001302201700000000            000000000000000                              000                           
0010001300307T 020180230000001544772 29577050422117514   7               15022017000000000010000001000213                         0900000000000010000000000000000000000000000000000000000   0000000000000000000000000A9        170192957705     
0010001300308U 020000000000000000000000000000000000000000000000000000000000000000000000000000000000000000000000000000000000000000000000001302201700000000            000000000000000                              000                           
0010001300309T 020180230000001544772 29577050423007154   7               14022017000000000007500001012408                         0900000000000010000000000000000000000000000000000000000   0000000000000000000000000A9        170192957705     
0010001300310U 020000000000000000000000000000000000000000000000000000000000000000000000000000000000000000000000000000000000000000000000001202201700000000            000000000000000                              000                           
0010001300311T 020180230000001544772 29577050423502424   7               15022017000000000007500001046280                         0900000000000010000000000000000000000000000000000000000   0000000000000000000000000A9        170192957705     
0010001300312U 020000000000000000000000000000000000000000000000000000000000000000000000000000000000000000000000000000000000000000000000001302201700000000            000000000000000                              000                           
0010001300313T 020180230000001544772 29577050423633373   7               15022017000000000007500001046280                         0900000000000010000000000000000000000000000000000000000   0000000000000000000000000A9        170192957705     
0010001300314U 020000000000000000000000000000000000000000000000000000000000000000000000000000000000000000000000000000000000000000000000001302201700000000            000000000000000                              000                           
0010001300315T 020180230000001544772 29577050424254304   7               15022017000000000007500001012416                         0900000000000010000000000000000000000000000000000000000   0000000000000000000000000A9        170192957705     
0010001300316U 020000000000000000000000000000000000000000000000000000000000000000000000000000000000000000000000000000000000000000000000001302201700000000            000000000000000                              000                           
0010001300317T 020180230000001544772 29577050424402684   7               15022017000000000010000001012408                         0900000000000010000000000000000000000000000000000000000   0000000000000000000000000A9        170192957705     
0010001300318U 020000000000000000000000000000000000000000000000000000000000000000000000000000000000000000000000000000000000000000000000001302201700000000            000000000000000                              000                           
0010001300319T 020180230000001544772 29577050427044160   788888888888889913022017000000000007500001012408888888888888899          0900000000000010000000000000000000000000000000000000000   0000000000000000000000000A9        170192957705     
0010001300320U 020000000000000000000000000000000000000000000000000000000000000000000000000000000000000000000000000000000000000000000000001302201700000000            000000000000000                              000                           
0010001300321T 020180230000001544772 29577050428423471   788888888888889913022017000000000007500001012408888888888888899          0900000000000010000000000000000000000000000000000000000   0000000000000000000000000A9        170192957705     
0010001300322U 020000000000000000000000000000000000000000000000000000000000000000000000000000000000000000000000000000000000000000000000001302201700000000            000000000000000                              000                           
0010001300323T 020180230000001544772 29577050428437800   788888888888889913022017000000000007500001012408888888888888899          0900000000000010000000000000000000000000000000000000000   0000000000000000000000000A9        170192957705     
0010001300324U 020000000000000000000000000000000000000000000000000000000000000000000000000000000000000000000000000000000000000000000000001302201700000000            000000000000000                              000                           
0010001300325T 020180230000001544772 29577050428442735   788888888888889913022017000000000007500001012408888888888888899          0900000000000010000000000000000000000000000000000000000   0000000000000000000000000A9        170192957705     
0010001300326U 020000000000000000000000000000000000000000000000000000000000000000000000000000000000000000000000000000000000000000000000001302201700000000            000000000000000                              000                           
0010001300327T 020180230000001544772 29577050428453385   788888888888889913022017000000000007500001012408888888888888899          0900000000000010000000000000000000000000000000000000000   0000000000000000000000000A9        170192957705     
0010001300328U 020000000000000000000000000000000000000000000000000000000000000000000000000000000000000000000000000000000000000000000000001302201700000000            000000000000000                              000                           
0010001300329T 020180230000001544772 29577050429811768   7               1502201700000000000750000103049X                         0900000000000010000000000000000000000000000000000000000   0000000000000000000000000A9        170192957705     
0010001300330U 020000000000000000000000000000000000000000000000000000000000000000000000000000000000000000000000000000000000000000000000001302201700000000            000000000000000                              000                           
0010001300331T 020180230000001544772 29577050429834206   7               1502201700000000000750000103049X                         0900000000000010000000000000000000000000000000000000000   0000000000000000000000000A9        170192957705     
0010001300332U 020000000000000000000000000000000000000000000000000000000000000000000000000000000000000000000000000000000000000000000000001302201700000000            000000000000000                              000                           
0010001300333T 020180230000001544772 29577050429834522   7               1502201700000000000750000103049X                         0900000000000010000000000000000000000000000000000000000   0000000000000000000000000A9        170192957705     
0010001300334U 020000000000000000000000000000000000000000000000000000000000000000000000000000000000000000000000000000000000000000000000001302201700000000            000000000000000                              000                           
0010001300335T 020180230000001544772 29577050430315854   7               15022017000000000007500001012416                         0900000000000010000000000000000000000000000000000000000   0000000000000000000000000A9        170192957705     
0010001300336U 020000000000000000000000000000000000000000000000000000000000000000000000000000000000000000000000000000000000000000000000001302201700000000            000000000000000                              000                           
0010001300337T 020180230000001544772 29577050430320921   7               15022017000000000007500001012416                         0900000000000010000000000000000000000000000000000000000   0000000000000000000000000A9        170192957705     
0010001300338U 020000000000000000000000000000000000000000000000000000000000000000000000000000000000000000000000000000000000000000000000001302201700000000            000000000000000                              000                           
0010001300339T 020180230000001544772 29577050430423743   7               14022017000000000007500001012408                         0900000000000010000000000000000000000000000000000000000   0000000000000000000000000A9        170192957705     
0010001300340U 020000000000000000000000000000000000000000000000000000000000000000000000000000000000000000000000000000000000000000000000001202201700000000            000000000000000                              000                           
0010001300341T 020180230000001544772 29577050431237522   788888888888889913022017000000000007500001012416888888888888899          0900000000000010000000000000000000000000000000000000000   0000000000000000000000000A9        170192957705     
0010001300342U 020000000000000000000000000000000000000000000000000000000000000000000000000000000000000000000000000000000000000000000000001302201700000000            000000000000000                              000                           
0010001300343T 020180230000001544772 29577050431423755   7               15022017000000000007500001000213                         0900000000000010000000000000000000000000000000000000000   0000000000000000000000000A9        170192957705     
0010001300344U 020000000000000000000000000000000000000000000000000000000000000000000000000000000000000000000000000000000000000000000000001302201700000000            000000000000000                              000                           
0010001300345T 020180230000001544772 29577050431458470   7               15022017000000000007500001000213                         0900000000000010000000000000000000000000000000000000000   0000000000000000000000000A9        170192957705     
0010001300346U 020000000000000000000000000000000000000000000000000000000000000000000000000000000000000000000000000000000000000000000000001302201700000000            000000000000000                              000                           
0010001300347T 020180230000001544772 29577050433747930   7               14022017000000000007500001012416                         0900000000000010000000000000000000000000000000000000000   0000000000000000000000000A9        170192957705     
0010001300348U 020000000000000000000000000000000000000000000000000000000000000000000000000000000000000000000000000000000000000000000000001202201700000000            000000000000000                              000                           
0010001300349T 020180230000001544772 29577050434402843   7               15022017000000000010000001012408                         0900000000000010000000000000000000000000000000000000000   0000000000000000000000000A9        170192957705     
0010001300350U 020000000000000000000000000000000000000000000000000000000000000000000000000000000000000000000000000000000000000000000000001302201700000000            000000000000000                              000                           
0010001300351T 020180230000001544772 29577050435707219   7               15022017000000000007500001002224                         0900000000000010000000000000000000000000000000000000000   0000000000000000000000000A9        170192957705     
0010001300352U 020000000000000000000000000000000000000000000000000000000000000000000000000000000000000000000000000000000000000000000000001302201700000000            000000000000000                              000                           
0010001300353T 020180230000001544772 29577050436428552   7               15022017000000000007500001012416                         0900000000000010500000000000000000000000000000000000000   0000000000000000000000000A9A4      170192957705     
0010001300354U 020000000000000000000000000000000000000000000000000000000000000000000000000000000000000000000000000000000000000000000000001302201700000000            000000000000000                              000                           
0010001300355T 020180230000001544772 29577050436521028   7               15022017000000000007500001012416                         0900000000000010500000000000000000000000000000000000000   0000000000000000000000000A9A4      170192957705     
0010001300356U 020000000000000000000000000000000000000000000000000000000000000000000000000000000000000000000000000000000000000000000000001302201700000000            000000000000000                              000                           
0010001300357T 020180230000001544772 29577050444151827   7               15022017000000000010000001012408                         0900000000000010000000000000000000000000000000000000000   0000000000000000000000000A9        170192957705     
0010001300358U 020000000000000000000000000000000000000000000000000000000000000000000000000000000000000000000000000000000000000000000000001302201700000000            000000000000000                              000                           
0010001300359T 020180230000001544772 29577050445907347   788888888888889913022017000000000007500001000213888888888888899          0900000000000010000000000000000000000000000000000000000   0000000000000000000000000A9        170192957705     
0010001300360U 020000000000000000000000000000000000000000000000000000000000000000000000000000000000000000000000000000000000000000000000001302201700000000            000000000000000                              000                           
0010001300361T 020180230000001544772 29577050448316922   7               15022017000000000007500001002224                         0900000000000010000000000000000000000000000000000000000   0000000000000000000000000A9        170192957705     
0010001300362U 020000000000000000000000000000000000000000000000000000000000000000000000000000000000000000000000000000000000000000000000001302201700000000            000000000000000                              000                           
0010001300363T 020180230000001544772 29577050449221223   788888888888889914022017000000000007500001000213888888888888899          0900000000000010000000000000000000000000000000000000000   0000000000000000000000000A9        170192957705     
0010001300364U 020000000000000000000000000000000000000000000000000000000000000000000000000000000000000000000000000000000000000000000000001302201700000000            000000000000000                              000                           
0010001300365T 020180230000001544772 29577050451114716   7               1502201700000000000750000103049X                         0900000000000010000000000000000000000000000000000000000   0000000000000000000000000A9        170192957705     
0010001300366U 020000000000000000000000000000000000000000000000000000000000000000000000000000000000000000000000000000000000000000000000001302201700000000            000000000000000                              000                           
0010001300367T 020180230000001544772 29577050452041984   7               15022017000000000007500001012408                         0900000000000010000000000000000000000000000000000000000   0000000000000000000000000A9        170192957705     
0010001300368U 020000000000000000000000000000000000000000000000000000000000000000000000000000000000000000000000000000000000000000000000001302201700000000            000000000000000                              000                           
0010001300369T 020180230000001544772 29577050459457726   788888888888889914022017000000000007500001012416888888888888899          0900000000000010000000000000000000000000000000000000000   0000000000000000000000000A9        170192957705     
0010001300370U 020000000000000000000000000000000000000000000000000000000000000000000000000000000000000000000000000000000000000000000000001302201700000000            000000000000000                              000                           
0010001300371T 020180230000001544772 29577050464804252   7               15022017000000000007500001000213                         0900000000000010000000000000000000000000000000000000000   0000000000000000000000000A9        170192957705     
0010001300372U 020000000000000000000000000000000000000000000000000000000000000000000000000000000000000000000000000000000000000000000000001302201700000000            000000000000000                              000                           
0010001300373T 020180230000001544772 29577050468605636   7               15022017000000000007500001000833                         0900000000000010000000000000000000000000000000000000000   0000000000000000000000000A9        170192957705     
0010001300374U 020000000000000000000000000000000000000000000000000000000000000000000000000000000000000000000000000000000000000000000000001302201700000000            000000000000000                              000                           
0010001300375T 020180230000001544772 29577050468636587   788888888888889913022017000000000007500001000833888888888888899          0900000000000010000000000000000000000000000000000000000   0000000000000000000000000A9        170192957705     
0010001300376U 020000000000000000000000000000000000000000000000000000000000000000000000000000000000000000000000000000000000000000000000001302201700000000            000000000000000                              000                           
0010001300377T 020180230000001544772 29577050468637548   788888888888889913022017000000000007500001000833888888888888899          0900000000000010000000000000000000000000000000000000000   0000000000000000000000000A9        170192957705     
0010001300378U 020000000000000000000000000000000000000000000000000000000000000000000000000000000000000000000000000000000000000000000000001302201700000000            000000000000000                              000                           
0010001300379T 020180230000001544772 29577050469028501   788888888888889913022017000000000007500001012408888888888888899          0900000000000010000000000000000000000000000000000000000   0000000000000000000000000A9        170192957705     
0010001300380U 020000000000000000000000000000000000000000000000000000000000000000000000000000000000000000000000000000000000000000000000001302201700000000            000000000000000                              000                           
0010001300381T 020180230000001544772 29577050469055122   788888888888889914022017000000000007500001012408888888888888899          0900000000000010000000000000000000000000000000000000000   0000000000000000000000000A9        170192957705     
0010001300382U 020000000000000000000000000000000000000000000000000000000000000000000000000000000000000000000000000000000000000000000000001302201700000000            000000000000000                              000                           
0010001300383T 020180230000001544772 29577050469111239   788888888888889913022017000000000010000001012408888888888888899          0900000000000010000000000000000000000000000000000000000   0000000000000000000000000A9        170192957705     
0010001300384U 020000000000000000000000000000000000000000000000000000000000000000000000000000000000000000000000000000000000000000000000001302201700000000            000000000000000                              000                           
0010001300385T 020180230000001544772 29577050470105952   7               15022017000000000007500001012408                         0900000000000010000000000000000000000000000000000000000   0000000000000000000000000A9        170192957705     
0010001300386U 020000000000000000000000000000000000000000000000000000000000000000000000000000000000000000000000000000000000000000000000001302201700000000            000000000000000                              000                           
0010001300387T 020180230000001544772 29577050470146451   7               15022017000000000007500001012408                         0900000000000010000000000000000000000000000000000000000   0000000000000000000000000A9        170192957705     
0010001300388U 020000000000000000000000000000000000000000000000000000000000000000000000000000000000000000000000000000000000000000000000001302201700000000            000000000000000                              000                           
0010001300389T 020180230000001544772 29577050472533278   788888888888889914022017000000000007500001012416888888888888899          0900000000000010000000000000000000000000000000000000000   0000000000000000000000000A9        170192957705     
0010001300390U 020000000000000000000000000000000000000000000000000000000000000000000000000000000000000000000000000000000000000000000000001302201700000000            000000000000000                              000                           
0010001300391T 020180230000001544772 29577050472536929   7               14022017000000000007500001012416                         0900000000000010000000000000000000000000000000000000000   0000000000000000000000000A9        170192957705     
0010001300392U 020000000000000000000000000000000000000000000000000000000000000000000000000000000000000000000000000000000000000000000000001202201700000000            000000000000000                              000                           
0010001300393T 020180230000001544772 29577050473938216   7               15022017000000000007500001003018                         0900000000000010500000000000000000000000000000000000000   0000000000000000000000000A9A4      170192957705     
0010001300394U 020000000000000000000000000000000000000000000000000000000000000000000000000000000000000000000000000000000000000000000000001302201700000000            000000000000000                              000                           
0010001300395T 020180230000001544772 29577050473953856   7               15022017000000000007500001003018                         0900000000000010500000000000000000000000000000000000000   0000000000000000000000000A9A4      170192957705     
0010001300396U 020000000000000000000000000000000000000000000000000000000000000000000000000000000000000000000000000000000000000000000000001302201700000000            000000000000000                              000                           
0010001300397T 020180230000001544772 29577050474152263   7               15022017000000000007500001003018                         0900000000000010500000000000000000000000000000000000000   0000000000000000000000000A9A4      170192957705     
0010001300398U 020000000000000000000000000000000000000000000000000000000000000000000000000000000000000000000000000000000000000000000000001302201700000000            000000000000000                              000                           
0010001300399T 020180230000001544772 29577050475041085   7               1502201700000000000750000103049X                         0900000000000010000000000000000000000000000000000000000   0000000000000000000000000A9        170192957705     
0010001300400U 020000000000000000000000000000000000000000000000000000000000000000000000000000000000000000000000000000000000000000000000001302201700000000            000000000000000                              000                           
0010001300401T 020180230000001544772 29577050475050448   7               1502201700000000000750000103049X                         0900000000000010000000000000000000000000000000000000000   0000000000000000000000000A9        170192957705     
0010001300402U 020000000000000000000000000000000000000000000000000000000000000000000000000000000000000000000000000000000000000000000000001302201700000000            000000000000000                              000                           
0010001300403T 020180230000001544772 29577050476352109   7               15022017000000000007500001009245                         0900000000000010000000000000000000000000000000000000000   0000000000000000000000000A9        170192957705     
0010001300404U 020000000000000000000000000000000000000000000000000000000000000000000000000000000000000000000000000000000000000000000000001302201700000000            000000000000000                              000                           
0010001300405T 020180230000001544772 29577050477850818   7               15022017000000000010000001000213                         0900000000000010000000000000000000000000000000000000000   0000000000000000000000000A9        170192957705     
0010001300406U 020000000000000000000000000000000000000000000000000000000000000000000000000000000000000000000000000000000000000000000000001302201700000000            000000000000000                              000                           
0010001300407T 020180230000001544772 29577050481117498   788888888888889913022017000000000007500001012416888888888888899          0900000000000010000000000000000000000000000000000000000   0000000000000000000000000A9        170192957705     
0010001300408U 020000000000000000000000000000000000000000000000000000000000000000000000000000000000000000000000000000000000000000000000001302201700000000            000000000000000                              000                           
0010001300409T 020180230000001544772 29577050481219571   788888888888889913022017000000000007500001012408888888888888899          0900000000000010000000000000000000000000000000000000000   0000000000000000000000000A9        170192957705     
0010001300410U 020000000000000000000000000000000000000000000000000000000000000000000000000000000000000000000000000000000000000000000000001302201700000000            000000000000000                              000                           
0010001300411T 020180230000001544772 29577050481434134   78888888888888991302201700000000000750000103049X888888888888899          0900000000000010000000000000000000000000000000000000000   0000000000000000000000000A9        170192957705     
0010001300412U 020000000000000000000000000000000000000000000000000000000000000000000000000000000000000000000000000000000000000000000000001302201700000000            000000000000000                              000                           
