00100000         2247745860001000029577050014       0180230000001544772 INSTITUTO DE SELECAO E TECNOLOBANCO DO BRASIL                         21402201701315200009403000000515122941PROCESSAMEN                                                 
00100011T0100020 20247745860001000029577050014       0180230000001544772 INSTITUTO DE SELECAO E TECNOLO                                                                                000000001402201700000000  000000000                      
0010001300001T 020180230000001544772 29577050011709152   7               16022017000000000007500001000213                         0900000000000010000000000000000000000000000000000000000   0000000000000000000000000A9        170192957705     
0010001300002U 020000000000000000000000000000000000000000000000000000000000000000000000000000000000000000000000000000000000000000000000001402201700000000            000000000000000                              000                           
0010001300003T 020180230000001544772 29577050014745667   7               1602201700000000001000000103049X                         0900000000000010000000000000000000000000000000000000000   0000000000000000000000000A9        170192957705     
0010001300004U 020000000000000000000000000000000000000000000000000000000000000000000000000000000000000000000000000000000000000000000000001402201700000000            000000000000000                              000                           
0010001300005T 020180230000001544772 29577050028612342   7               16022017000000000007500001012416                         0900000000000010000000000000000000000000000000000000000   0000000000000000000000000A9        170192957705     
0010001300006U 020000000000000000000000000000000000000000000000000000000000000000000000000000000000000000000000000000000000000000000000001402201700000000            000000000000000                              000                           
0010001300007T 020180230000001544772 29577050028618882   7               16022017000000000007500001012416                         0900000000000010000000000000000000000000000000000000000   0000000000000000000000000A9        170192957705     
0010001300008U 020000000000000000000000000000000000000000000000000000000000000000000000000000000000000000000000000000000000000000000000001402201700000000            000000000000000                              000                           
0010001300009T 020180230000001544772 29577050037914975   7               1602201700000000000750000103049X                         0900000000000010000000000000000000000000000000000000000   0000000000000000000000000A9        170192957705     
0010001300010U 020000000000000000000000000000000000000000000000000000000000000000000000000000000000000000000000000000000000000000000000001402201700000000            000000000000000                              000                           
0010001300011T 020180230000001544772 29577050042446942   7               1602201700000000000750000103049X                         0900000000000010500000000000000000000000000000000000000   0000000000000000000000000A9A4      170192957705     
0010001300012U 020000000000000000000000000000000000000000000000000000000000000000000000000000000000000000000000000000000000000000000000001402201700000000            000000000000000                              000                           
0010001300013T 020180230000001544772 29577050044448518   7               16022017000000000007500001012408                         0900000000000010000000000000000000000000000000000000000   0000000000000000000000000A9        170192957705     
0010001300014U 020000000000000000000000000000000000000000000000000000000000000000000000000000000000000000000000000000000000000000000000001402201700000000            000000000000000                              000                           
0010001300015T 020180230000001544772 29577050063842640   7               1602201700000000000750000103049X                         0900000000000010000000000000000000000000000000000000000   0000000000000000000000000A9        170192957705     
0010001300016U 020000000000000000000000000000000000000000000000000000000000000000000000000000000000000000000000000000000000000000000000001402201700000000            000000000000000                              000                           
0010001300017T 020180230000001544772 29577050073803337   788888888888889916022017000000000007500001012408888888888888899          0900000000000010000000000000000000000000000000000000000   0000000000000000000000000A9        170192957705     
0010001300018U 020000000000000000000000000000000000000000000000000000000000000000000000000000000000000000000000000000000000000000000000001402201700000000            000000000000000                              000                           
0010001300019T 020180230000001544772 29577050075934567   788888888888889916022017000000000007500001000213888888888888899          0900000000000010000000000000000000000000000000000000000   0000000000000000000000000A9        170192957705     
0010001300020U 020000000000000000000000000000000000000000000000000000000000000000000000000000000000000000000000000000000000000000000000001402201700000000            000000000000000                              000                           
0010001300021T 020180230000001544772 29577050080809716   788888888888889916022017000000000007500001004782888888888888899          0900000000000010000000000000000000000000000000000000000   0000000000000000000000000A9        170192957705     
0010001300022U 020000000000000000000000000000000000000000000000000000000000000000000000000000000000000000000000000000000000000000000000001402201700000000            000000000000000                              000                           
0010001300023T 020180230000001544772 29577050086952392   788888888888889916022017000000000007500001000213888888888888899          0900000000000010000000000000000000000000000000000000000   0000000000000000000000000A9        170192957705     
0010001300024U 020000000000000000000000000000000000000000000000000000000000000000000000000000000000000000000000000000000000000000000000001402201700000000            000000000000000                              000                           
0010001300025T 020180230000001544772 29577050090848311   788888888888889916022017000000000007500001000213888888888888899          0900000000000010000000000000000000000000000000000000000   0000000000000000000000000A9        170192957705     
0010001300026U 020000000000000000000000000000000000000000000000000000000000000000000000000000000000000000000000000000000000000000000000001402201700000000            000000000000000                              000                           
0010001300027T 020180230000001544772 29577050093534078   788888888888889916022017000000000007500001012408888888888888899          0900000000000010000000000000000000000000000000000000000   0000000000000000000000000A9        170192957705     
0010001300028U 020000000000000000000000000000000000000000000000000000000000000000000000000000000000000000000000000000000000000000000000001402201700000000            000000000000000                              000                           
0010001300029T 020180230000001544772 29577050096123156   7               16022017000000000007500001012416                         0900000000000010500000000000000000000000000000000000000   0000000000000000000000000A9A4      170192957705     
0010001300030U 020000000000000000000000000000000000000000000000000000000000000000000000000000000000000000000000000000000000000000000000001402201700000000            000000000000000                              000                           
0010001300031T 020180230000001544772 29577050100330415   78888888888888991602201700000000001000000101009X888888888888899          0900000000000010000000000000000000000000000000000000000   0000000000000000000000000A9        170192957705     
0010001300032U 020000000000000000000000000000000000000000000000000000000000000000000000000000000000000000000000000000000000000000000000001402201700000000            000000000000000                              000                           
0010001300033T 020180230000001544772 29577050104105758   7               16022017000000000007500001012416                         0900000000000010000000000000000000000000000000000000000   0000000000000000000000000A9        170192957705     
0010001300034U 020000000000000000000000000000000000000000000000000000000000000000000000000000000000000000000000000000000000000000000000001402201700000000            000000000000000                              000                           
0010001300035T 020180230000001544772 29577050112417744   7               1602201700000000000750000103049X                         0900000000000010500000000000000000000000000000000000000   0000000000000000000000000A9A4      170192957705     
0010001300036U 020000000000000000000000000000000000000000000000000000000000000000000000000000000000000000000000000000000000000000000000001402201700000000            000000000000000                              000                           
0010001300037T 020180230000001544772 29577050112549428   7               1602201700000000000750000103049X                         0900000000000010500000000000000000000000000000000000000   0000000000000000000000000A9A4      170192957705     
0010001300038U 020000000000000000000000000000000000000000000000000000000000000000000000000000000000000000000000000000000000000000000000001402201700000000            000000000000000                              000                           
0010001300039T 020180230000001544772 29577050112606972   7               1602201700000000000750000103049X                         0900000000000010500000000000000000000000000000000000000   0000000000000000000000000A9A4      170192957705     
0010001300040U 020000000000000000000000000000000000000000000000000000000000000000000000000000000000000000000000000000000000000000000000001402201700000000            000000000000000                              000                           
0010001300041T 020180230000001544772 29577050117156030   7               16022017000000000007500001012416                         0900000000000010000000000000000000000000000000000000000   0000000000000000000000000A9        170192957705     
0010001300042U 020000000000000000000000000000000000000000000000000000000000000000000000000000000000000000000000000000000000000000000000001402201700000000            000000000000000                              000                           
0010001300043T 020180230000001544772 29577050123036453   7               16022017000000000007500001000833                         0900000000000010000000000000000000000000000000000000000   0000000000000000000000000A9        170192957705     
0010001300044U 020000000000000000000000000000000000000000000000000000000000000000000000000000000000000000000000000000000000000000000000001402201700000000            000000000000000                              000                           
0010001300045T 020180230000001544772 29577050123706925   7               16022017000000000007500001021121                         0900000000000010500000000000000000000000000000000000000   0000000000000000000000000A9A4      170192957705     
0010001300046U 020000000000000000000000000000000000000000000000000000000000000000000000000000000000000000000000000000000000000000000000001402201700000000            000000000000000                              000                           
0010001300047T 020180230000001544772 29577050127936426   788888888888889916022017000000000007500001000213888888888888899          0900000000000010000000000000000000000000000000000000000   0000000000000000000000000A9        170192957705     
0010001300048U 020000000000000000000000000000000000000000000000000000000000000000000000000000000000000000000000000000000000000000000000001402201700000000            000000000000000                              000                           
0010001300049T 020180230000001544772 29577050128043785   788888888888889916022017000000000007500001000213888888888888899          0900000000000010000000000000000000000000000000000000000   0000000000000000000000000A9        170192957705     
0010001300050U 020000000000000000000000000000000000000000000000000000000000000000000000000000000000000000000000000000000000000000000000001402201700000000            000000000000000                              000                           
0010001300051T 020180230000001544772 29577050149017014   7               16022017000000000007500001000213                         0900000000000010000000000000000000000000000000000000000   0000000000000000000000000A9        170192957705     
0010001300052U 020000000000000000000000000000000000000000000000000000000000000000000000000000000000000000000000000000000000000000000000001402201700000000            000000000000000                              000                           
0010001300053T 020180230000001544772 29577050163933170   7               1602201700000000000750000103049X                         0900000000000010000000000000000000000000000000000000000   0000000000000000000000000A9        170192957705     
0010001300054U 020000000000000000000000000000000000000000000000000000000000000000000000000000000000000000000000000000000000000000000000001402201700000000            000000000000000                              000                           
0010001300055T 020180230000001544772 29577050165700855   788888888888889916022017000000000007500001000213888888888888899          0900000000000010000000000000000000000000000000000000000   0000000000000000000000000A9        170192957705     
0010001300056U 020000000000000000000000000000000000000000000000000000000000000000000000000000000000000000000000000000000000000000000000001402201700000000            000000000000000                              000                           
0010001300057T 020180230000001544772 29577050181317013   7               16022017000000000007500001012408                         0900000000000010500000000000000000000000000000000000000   0000000000000000000000000A9A4      170192957705     
0010001300058U 020000000000000000000000000000000000000000000000000000000000000000000000000000000000000000000000000000000000000000000000001402201700000000            000000000000000                              000                           
0010001300059T 020180230000001544772 29577050181317721   7               16022017000000000007500001012408                         0900000000000010500000000000000000000000000000000000000   0000000000000000000000000A9A4      170192957705     
0010001300060U 020000000000000000000000000000000000000000000000000000000000000000000000000000000000000000000000000000000000000000000000001402201700000000            000000000000000                              000                           
0010001300061T 020180230000001544772 29577050181325723   7               16022017000000000007500001012408                         0900000000000010500000000000000000000000000000000000000   0000000000000000000000000A9A4      170192957705     
0010001300062U 020000000000000000000000000000000000000000000000000000000000000000000000000000000000000000000000000000000000000000000000001402201700000000            000000000000000                              000                           
0010001300063T 020180230000001544772 29577050183143382   7               16022017000000000007500001000213                         0900000000000010000000000000000000000000000000000000000   0000000000000000000000000A9        170192957705     
0010001300064U 020000000000000000000000000000000000000000000000000000000000000000000000000000000000000000000000000000000000000000000000001402201700000000            000000000000000                              000                           
0010001300065T 020180230000001544772 29577050196027258   788888888888889916022017000000000007500001012408888888888888899          0900000000000010000000000000000000000000000000000000000   0000000000000000000000000A9        170192957705     
0010001300066U 020000000000000000000000000000000000000000000000000000000000000000000000000000000000000000000000000000000000000000000000001402201700000000            000000000000000                              000                           
0010001300067T 020180230000001544772 29577050199214139   7               1602201700000000000750000103049X                         0900000000000010000000000000000000000000000000000000000   0000000000000000000000000A9        170192957705     
0010001300068U 020000000000000000000000000000000000000000000000000000000000000000000000000000000000000000000000000000000000000000000000001402201700000000            000000000000000                              000                           
0010001300069T 020180230000001544772 29577050199258899   7               1602201700000000000750000103049X                         0900000000000010000000000000000000000000000000000000000   0000000000000000000000000A9        170192957705     
0010001300070U 020000000000000000000000000000000000000000000000000000000000000000000000000000000000000000000000000000000000000000000000001402201700000000            000000000000000                              000                           
0010001300071T 020180230000001544772 29577050201340749   78888888888888991602201700000000000750000103049X888888888888899          0900000000000010000000000000000000000000000000000000000   0000000000000000000000000A9        170192957705     
0010001300072U 020000000000000000000000000000000000000000000000000000000000000000000000000000000000000000000000000000000000000000000000001402201700000000            000000000000000                              000                           
0010001300073T 020180230000001544772 29577050203929060   788888888888889916022017000000000007500001012416888888888888899          0900000000000010000000000000000000000000000000000000000   0000000000000000000000000A9        170192957705     
0010001300074U 020000000000000000000000000000000000000000000000000000000000000000000000000000000000000000000000000000000000000000000000001402201700000000            000000000000000                              000                           
0010001300075T 020180230000001544772 29577050204121371   7               1602201700000000000750000103049X                         0900000000000010000000000000000000000000000000000000000   0000000000000000000000000A9        170192957705     
0010001300076U 020000000000000000000000000000000000000000000000000000000000000000000000000000000000000000000000000000000000000000000000001402201700000000            000000000000000                              000                           
0010001300077T 020180230000001544772 29577050204644512   78888888888888991602201700000000000750000103049X888888888888899          0900000000000010000000000000000000000000000000000000000   0000000000000000000000000A9        170192957705     
0010001300078U 020000000000000000000000000000000000000000000000000000000000000000000000000000000000000000000000000000000000000000000000001402201700000000            000000000000000                              000                           
0010001300079T 020180230000001544772 29577050206619208   7               16022017000000000007500001012408                         0900000000000010000000000000000000000000000000000000000   0000000000000000000000000A9        170192957705     
0010001300080U 020000000000000000000000000000000000000000000000000000000000000000000000000000000000000000000000000000000000000000000000001402201700000000            000000000000000                              000                           
0010001300081T 020180230000001544772 29577050208227044   788888888888889916022017000000000007500001000213888888888888899          0900000000000010000000000000000000000000000000000000000   0000000000000000000000000A9        170192957705     
0010001300082U 020000000000000000000000000000000000000000000000000000000000000000000000000000000000000000000000000000000000000000000000001402201700000000            000000000000000                              000                           
0010001300083T 020180230000001544772 29577050208245443   788888888888889916022017000000000007500001000213888888888888899          0900000000000010000000000000000000000000000000000000000   0000000000000000000000000A9        170192957705     
0010001300084U 020000000000000000000000000000000000000000000000000000000000000000000000000000000000000000000000000000000000000000000000001402201700000000            000000000000000                              000                           
0010001300085T 020180230000001544772 29577050216611526   7               1602201700000000000750000103049X                         0900000000000010000000000000000000000000000000000000000   0000000000000000000000000A9        170192957705     
0010001300086U 020000000000000000000000000000000000000000000000000000000000000000000000000000000000000000000000000000000000000000000000001402201700000000            000000000000000                              000                           
0010001300087T 020180230000001544772 29577050216643676   7               1602201700000000000750000103049X                         0900000000000010000000000000000000000000000000000000000   0000000000000000000000000A9        170192957705     
0010001300088U 020000000000000000000000000000000000000000000000000000000000000000000000000000000000000000000000000000000000000000000000001402201700000000            000000000000000                              000                           
0010001300089T 020180230000001544772 29577050218025927   788888888888889916022017000000000007500001000213888888888888899          0900000000000010000000000000000000000000000000000000000   0000000000000000000000000A9        170192957705     
0010001300090U 020000000000000000000000000000000000000000000000000000000000000000000000000000000000000000000000000000000000000000000000001402201700000000            000000000000000                              000                           
0010001300091T 020180230000001544772 29577050223623057   7               16022017000000000007500001012408                         0900000000000010000000000000000000000000000000000000000   0000000000000000000000000A9        170192957705     
0010001300092U 020000000000000000000000000000000000000000000000000000000000000000000000000000000000000000000000000000000000000000000000001402201700000000            000000000000000                              000                           
0010001300093T 020180230000001544772 29577050237908651   7               16022017000000000007500001012408                         0900000000000010000000000000000000000000000000000000000   0000000000000000000000000A9        170192957705     
0010001300094U 020000000000000000000000000000000000000000000000000000000000000000000000000000000000000000000000000000000000000000000000001402201700000000            000000000000000                              000                           
0010001300095T 020180230000001544772 29577050249035154   788888888888889916022017000000000007500001012408888888888888899          0900000000000010000000000000000000000000000000000000000   0000000000000000000000000A9        170192957705     
0010001300096U 020000000000000000000000000000000000000000000000000000000000000000000000000000000000000000000000000000000000000000000000001402201700000000            000000000000000                              000                           
0010001300097T 020180230000001544772 29577050252432452   78888888888888991602201700000000000750000100829X888888888888899          0900000000000010000000000000000000000000000000000000000   0000000000000000000000000A9        170192957705     
0010001300098U 020000000000000000000000000000000000000000000000000000000000000000000000000000000000000000000000000000000000000000000000001402201700000000            000000000000000                              000                           
0010001300099T 020180230000001544772 29577050254529282   7               1602201700000000000750000103049X                         0900000000000010000000000000000000000000000000000000000   0000000000000000000000000A9        170192957705     
0010001300100U 020000000000000000000000000000000000000000000000000000000000000000000000000000000000000000000000000000000000000000000000001402201700000000            000000000000000                              000                           
0010001300101T 020180230000001544772 29577050256013890   7               16022017000000000007500001000213                         0900000000000010000000000000000000000000000000000000000   0000000000000000000000000A9        170192957705     
0010001300102U 020000000000000000000000000000000000000000000000000000000000000000000000000000000000000000000000000000000000000000000000001402201700000000            000000000000000                              000                           
0010001300103T 020180230000001544772 29577050262401931   788888888888889916022017000000000007500001012408888888888888899          0900000000000010000000000000000000000000000000000000000   0000000000000000000000000A9        170192957705     
0010001300104U 020000000000000000000000000000000000000000000000000000000000000000000000000000000000000000000000000000000000000000000000001402201700000000            000000000000000                              000                           
0010001300105T 020180230000001544772 29577050268917530   7               16022017000000000007500001000213                         0900000000000010000000000000000000000000000000000000000   0000000000000000000000000A9        170192957705     
0010001300106U 020000000000000000000000000000000000000000000000000000000000000000000000000000000000000000000000000000000000000000000000001402201700000000            000000000000000                              000                           
0010001300107T 020180230000001544772 29577050270546331   788888888888889916022017000000000007500001012416888888888888899          0900000000000010000000000000000000000000000000000000000   0000000000000000000000000A9        170192957705     
0010001300108U 020000000000000000000000000000000000000000000000000000000000000000000000000000000000000000000000000000000000000000000000001402201700000000            000000000000000                              000                           
0010001300109T 020180230000001544772 29577050277443574   788888888888889916022017000000000010000001000213888888888888899          0900000000000010000000000000000000000000000000000000000   0000000000000000000000000A9        170192957705     
0010001300110U 020000000000000000000000000000000000000000000000000000000000000000000000000000000000000000000000000000000000000000000000001402201700000000            000000000000000                              000                           
0010001300111T 020180230000001544772 29577050312454913   788888888888889916022017000000000007500001046264888888888888899          0900000000000010000000000000000000000000000000000000000   0000000000000000000000000A9        170192957705     
0010001300112U 020000000000000000000000000000000000000000000000000000000000000000000000000000000000000000000000000000000000000000000000001402201700000000            000000000000000                              000                           
0010001300113T 020180230000001544772 29577050319332730   7               16022017000000000007500001045020                         0900000000000010000000000000000000000000000000000000000   0000000000000000000000000A9        170192957705     
0010001300114U 020000000000000000000000000000000000000000000000000000000000000000000000000000000000000000000000000000000000000000000000001402201700000000            000000000000000                              000                           
0010001300115T 020180230000001544772 29577050319355756   7               16022017000000000007500001045020                         0900000000000010000000000000000000000000000000000000000   0000000000000000000000000A9        170192957705     
0010001300116U 020000000000000000000000000000000000000000000000000000000000000000000000000000000000000000000000000000000000000000000000001402201700000000            000000000000000                              000                           
0010001300117T 020180230000001544772 29577050326501696   7               16022017000000000010000001000620                         0900000000000010000000000000000000000000000000000000000   0000000000000000000000000A9        170192957705     
0010001300118U 020000000000000000000000000000000000000000000000000000000000000000000000000000000000000000000000000000000000000000000000001402201700000000            000000000000000                              000                           
0010001300119T 020180230000001544772 29577050326510530   7               16022017000000000010000001000620                         0900000000000010000000000000000000000000000000000000000   0000000000000000000000000A9        170192957705     
0010001300120U 020000000000000000000000000000000000000000000000000000000000000000000000000000000000000000000000000000000000000000000000001402201700000000            000000000000000                              000                           
0010001300121T 020180230000001544772 29577050326526261   7               16022017000000000010000001000620                         0900000000000010000000000000000000000000000000000000000   0000000000000000000000000A9        170192957705     
0010001300122U 020000000000000000000000000000000000000000000000000000000000000000000000000000000000000000000000000000000000000000000000001402201700000000            000000000000000                              000                           
0010001300123T 020180230000001544772 29577050326534268   7               16022017000000000010000001000620                         0900000000000010000000000000000000000000000000000000000   0000000000000000000000000A9        170192957705     
0010001300124U 020000000000000000000000000000000000000000000000000000000000000000000000000000000000000000000000000000000000000000000000001402201700000000            000000000000000                              000                           
0010001300125T 020180230000001544772 29577050326537274   7               16022017000000000010000001000620                         0900000000000010000000000000000000000000000000000000000   0000000000000000000000000A9        170192957705     
0010001300126U 020000000000000000000000000000000000000000000000000000000000000000000000000000000000000000000000000000000000000000000000001402201700000000            000000000000000                              000                           
0010001300127T 020180230000001544772 29577050326541341   7               16022017000000000010000001000620                         0900000000000010000000000000000000000000000000000000000   0000000000000000000000000A9        170192957705     
0010001300128U 020000000000000000000000000000000000000000000000000000000000000000000000000000000000000000000000000000000000000000000000001402201700000000            000000000000000                              000                           
0010001300129T 020180230000001544772 29577050329630835   7               15022017000000000007500001000213                         0900000000000010000000000000000000000000000000000000000   0000000000000000000000000A9        170192957705     
0010001300130U 020000000000000000000000000000000000000000000000000000000000000000000000000000000000000000000000000000000000000000000000001302201700000000            000000000000000                              000                           
0010001300131T 020180230000001544772 29577050332648012   7               16022017000000000007500001000213                         0900000000000010000000000000000000000000000000000000000   0000000000000000000000000A9        170192957705     
0010001300132U 020000000000000000000000000000000000000000000000000000000000000000000000000000000000000000000000000000000000000000000000001402201700000000            000000000000000                              000                           
0010001300133T 020180230000001544772 29577050335624154   7               1602201700000000000750000103049X                         0900000000000010000000000000000000000000000000000000000   0000000000000000000000000A9        170192957705     
0010001300134U 020000000000000000000000000000000000000000000000000000000000000000000000000000000000000000000000000000000000000000000000001402201700000000            000000000000000                              000                           
0010001300135T 020180230000001544772 29577050335631149   7               1602201700000000000750000103049X                         0900000000000010000000000000000000000000000000000000000   0000000000000000000000000A9        170192957705     
0010001300136U 020000000000000000000000000000000000000000000000000000000000000000000000000000000000000000000000000000000000000000000000001402201700000000            000000000000000                              000                           
0010001300137T 020180230000001544772 29577050335656506   7               1602201700000000000750000103049X                         0900000000000010000000000000000000000000000000000000000   0000000000000000000000000A9        170192957705     
0010001300138U 020000000000000000000000000000000000000000000000000000000000000000000000000000000000000000000000000000000000000000000000001402201700000000            000000000000000                              000                           
0010001300139T 020180230000001544772 29577050336315751   7               16022017000000000007500001007854                         0900000000000010000000000000000000000000000000000000000   0000000000000000000000000A9        170192957705     
0010001300140U 020000000000000000000000000000000000000000000000000000000000000000000000000000000000000000000000000000000000000000000000001402201700000000            000000000000000                              000                           
0010001300141T 020180230000001544772 29577050336342404   7               16022017000000000007500001007854                         0900000000000010000000000000000000000000000000000000000   0000000000000000000000000A9        170192957705     
0010001300142U 020000000000000000000000000000000000000000000000000000000000000000000000000000000000000000000000000000000000000000000000001402201700000000            000000000000000                              000                           
0010001300143T 020180230000001544772 29577050337211948   788888888888889916022017000000000007500001012416888888888888899          0900000000000010000000000000000000000000000000000000000   0000000000000000000000000A9        170192957705     
0010001300144U 020000000000000000000000000000000000000000000000000000000000000000000000000000000000000000000000000000000000000000000000001402201700000000            000000000000000                              000                           
0010001300145T 020180230000001544772 29577050342406043   788888888888889916022017000000000007500001000213888888888888899          0900000000000010000000000000000000000000000000000000000   0000000000000000000000000A9        170192957705     
0010001300146U 020000000000000000000000000000000000000000000000000000000000000000000000000000000000000000000000000000000000000000000000001402201700000000            000000000000000                              000                           
0010001300147T 020180230000001544772 29577050342733586   7               16022017000000000007500001012416                         0900000000000010000000000000000000000000000000000000000   0000000000000000000000000A9        170192957705     
0010001300148U 020000000000000000000000000000000000000000000000000000000000000000000000000000000000000000000000000000000000000000000000001402201700000000            000000000000000                              000                           
0010001300149T 020180230000001544772 29577050342750013   788888888888889916022017000000000007500001012416888888888888899          0900000000000010000000000000000000000000000000000000000   0000000000000000000000000A9        170192957705     
0010001300150U 020000000000000000000000000000000000000000000000000000000000000000000000000000000000000000000000000000000000000000000000001402201700000000            000000000000000                              000                           
0010001300151T 020180230000001544772 29577050347657792   7               1602201700000000000750000103049X                         0900000000000010000000000000000000000000000000000000000   0000000000000000000000000A9        170192957705     
0010001300152U 020000000000000000000000000000000000000000000000000000000000000000000000000000000000000000000000000000000000000000000000001402201700000000            000000000000000                              000                           
0010001300153T 020180230000001544772 29577050351612018   788888888888889916022017000000000007500001012408888888888888899          0900000000000010000000000000000000000000000000000000000   0000000000000000000000000A9        170192957705     
0010001300154U 020000000000000000000000000000000000000000000000000000000000000000000000000000000000000000000000000000000000000000000000001402201700000000            000000000000000                              000                           
0010001300155T 020180230000001544772 29577050356205778   7               16022017000000000007500001012408                         0900000000000010000000000000000000000000000000000000000   0000000000000000000000000A9        170192957705     
0010001300156U 020000000000000000000000000000000000000000000000000000000000000000000000000000000000000000000000000000000000000000000000001402201700000000            000000000000000                              000                           
0010001300157T 020180230000001544772 29577050356244628   7               16022017000000000007500001012408                         0900000000000010000000000000000000000000000000000000000   0000000000000000000000000A9        170192957705     
0010001300158U 020000000000000000000000000000000000000000000000000000000000000000000000000000000000000000000000000000000000000000000000001402201700000000            000000000000000                              000                           
0010001300159T 020180230000001544772 29577050361532834   7               16022017000000000007500001012408                         0900000000000010000000000000000000000000000000000000000   0000000000000000000000000A9        170192957705     
0010001300160U 020000000000000000000000000000000000000000000000000000000000000000000000000000000000000000000000000000000000000000000000001402201700000000            000000000000000                              000                           
0010001300161T 020180230000001544772 29577050368515992   78888888888888991602201700000000000750000100829X888888888888899          0900000000000010000000000000000000000000000000000000000   0000000000000000000000000A9        170192957705     
0010001300162U 020000000000000000000000000000000000000000000000000000000000000000000000000000000000000000000000000000000000000000000000001402201700000000            000000000000000                              000                           
0010001300163T 020180230000001544772 29577050370038823   788888888888889916022017000000000007500001000833888888888888899          0900000000000010000000000000000000000000000000000000000   0000000000000000000000000A9        170192957705     
0010001300164U 020000000000000000000000000000000000000000000000000000000000000000000000000000000000000000000000000000000000000000000000001402201700000000            000000000000000                              000                           
0010001300165T 020180230000001544772 29577050371136066   7               16022017000000000007500001012408                         0900000000000010000000000000000000000000000000000000000   0000000000000000000000000A9        170192957705     
0010001300166U 020000000000000000000000000000000000000000000000000000000000000000000000000000000000000000000000000000000000000000000000001402201700000000            000000000000000                              000                           
0010001300167T 020180230000001544772 29577050376304272   788888888888889916022017000000000007500001012416888888888888899          0900000000000010000000000000000000000000000000000000000   0000000000000000000000000A9        170192957705     
0010001300168U 020000000000000000000000000000000000000000000000000000000000000000000000000000000000000000000000000000000000000000000000001402201700000000            000000000000000                              000                           
0010001300169T 020180230000001544772 29577050376310395   788888888888889916022017000000000007500001012416888888888888899          0900000000000010000000000000000000000000000000000000000   0000000000000000000000000A9        170192957705     
0010001300170U 020000000000000000000000000000000000000000000000000000000000000000000000000000000000000000000000000000000000000000000000001402201700000000            000000000000000                              000                           
0010001300171T 020180230000001544772 29577050376334673   788888888888889916022017000000000007500001012416888888888888899          0900000000000010000000000000000000000000000000000000000   0000000000000000000000000A9        170192957705     
0010001300172U 020000000000000000000000000000000000000000000000000000000000000000000000000000000000000000000000000000000000000000000000001402201700000000            000000000000000                              000                           
0010001300173T 020180230000001544772 29577050376935759   788888888888889916022017000000000007500001012408888888888888899          0900000000000010000000000000000000000000000000000000000   0000000000000000000000000A9        170192957705     
0010001300174U 020000000000000000000000000000000000000000000000000000000000000000000000000000000000000000000000000000000000000000000000001402201700000000            000000000000000                              000                           
0010001300175T 020180230000001544772 29577050383442492   7               16022017000000000007500001000213                         0900000000000010000000000000000000000000000000000000000   0000000000000000000000000A9        170192957705     
0010001300176U 020000000000000000000000000000000000000000000000000000000000000000000000000000000000000000000000000000000000000000000000001402201700000000            000000000000000                              000                           
0010001300177T 020180230000001544772 29577050387625781   7               16022017000000000007500001012416                         0900000000000010000000000000000000000000000000000000000   0000000000000000000000000A9        170192957705     
0010001300178U 020000000000000000000000000000000000000000000000000000000000000000000000000000000000000000000000000000000000000000000000001402201700000000            000000000000000                              000                           
0010001300179T 020180230000001544772 29577050398208244   7               16022017000000000007500001012408                         0900000000000010000000000000000000000000000000000000000   0000000000000000000000000A9        170192957705     
0010001300180U 020000000000000000000000000000000000000000000000000000000000000000000000000000000000000000000000000000000000000000000000001402201700000000            000000000000000                              000                           
0010001300181T 020180230000001544772 29577050398616363   788888888888889916022017000000000007500001000213888888888888899          0900000000000010000000000000000000000000000000000000000   0000000000000000000000000A9        170192957705     
0010001300182U 020000000000000000000000000000000000000000000000000000000000000000000000000000000000000000000000000000000000000000000000001402201700000000            000000000000000                              000                           
0010001300183T 020180230000001544772 29577050398659689   788888888888889916022017000000000007500001000213888888888888899          0900000000000010000000000000000000000000000000000000000   0000000000000000000000000A9        170192957705     
0010001300184U 020000000000000000000000000000000000000000000000000000000000000000000000000000000000000000000000000000000000000000000000001402201700000000            000000000000000                              000                           
0010001300185T 020180230000001544772 29577050405825371   7               16022017000000000007500001046280                         0900000000000010000000000000000000000000000000000000000   0000000000000000000000000A9        170192957705     
0010001300186U 020000000000000000000000000000000000000000000000000000000000000000000000000000000000000000000000000000000000000000000000001402201700000000            000000000000000                              000                           
0010001300187T 020180230000001544772 29577050415021843   788888888888889916022017000000000007500001012416888888888888899          0900000000000010000000000000000000000000000000000000000   0000000000000000000000000A9        170192957705     
0010001300188U 020000000000000000000000000000000000000000000000000000000000000000000000000000000000000000000000000000000000000000000000001402201700000000            000000000000000                              000                           
0010001300189T 020180230000001544772 29577050416816304   788888888888889916022017000000000007500001000833888888888888899          0900000000000010500000000000000000000000000000000000000   0000000000000000000000000A9A4      170192957705     
0010001300190U 020000000000000000000000000000000000000000000000000000000000000000000000000000000000000000000000000000000000000000000000001402201700000000            000000000000000                              000                           
0010001300191T 020180230000001544772 29577050423207422   788888888888889916022017000000000007500001001120888888888888899          0900000000000010000000000000000000000000000000000000000   0000000000000000000000000A9        170192957705     
0010001300192U 020000000000000000000000000000000000000000000000000000000000000000000000000000000000000000000000000000000000000000000000001402201700000000            000000000000000                              000                           
0010001300193T 020180230000001544772 29577050430306365   788888888888889916022017000000000007500001012416888888888888899          0900000000000010000000000000000000000000000000000000000   0000000000000000000000000A9        170192957705     
0010001300194U 020000000000000000000000000000000000000000000000000000000000000000000000000000000000000000000000000000000000000000000000001402201700000000            000000000000000                              000                           
0010001300195T 020180230000001544772 29577050431218683   788888888888889916022017000000000007500001012416888888888888899          0900000000000010000000000000000000000000000000000000000   0000000000000000000000000A9        170192957705     
0010001300196U 020000000000000000000000000000000000000000000000000000000000000000000000000000000000000000000000000000000000000000000000001402201700000000            000000000000000                              000                           
0010001300197T 020180230000001544772 29577050432210067   7               16022017000000000007500001012408                         0900000000000010000000000000000000000000000000000000000   0000000000000000000000000A9        170192957705     
0010001300198U 020000000000000000000000000000000000000000000000000000000000000000000000000000000000000000000000000000000000000000000000001402201700000000            000000000000000                              000                           
0010001300199T 020180230000001544772 29577050432257773   788888888888889916022017000000000007500001012408888888888888899          0900000000000010000000000000000000000000000000000000000   0000000000000000000000000A9        170192957705     
0010001300200U 020000000000000000000000000000000000000000000000000000000000000000000000000000000000000000000000000000000000000000000000001402201700000000            000000000000000                              000                           
0010001300201T 020180230000001544772 29577050433820004   7               16022017000000000007500001000213                         0900000000000010000000000000000000000000000000000000000   0000000000000000000000000A9        170192957705     
0010001300202U 020000000000000000000000000000000000000000000000000000000000000000000000000000000000000000000000000000000000000000000000001402201700000000            000000000000000                              000                           
0010001300203T 020180230000001544772 29577050433824808   7               16022017000000000007500001000213                         0900000000000010000000000000000000000000000000000000000   0000000000000000000000000A9        170192957705     
0010001300204U 020000000000000000000000000000000000000000000000000000000000000000000000000000000000000000000000000000000000000000000000001402201700000000            000000000000000                              000                           
0010001300205T 020180230000001544772 29577050433842519   788888888888889916022017000000000007500001000213888888888888899          0900000000000010000000000000000000000000000000000000000   0000000000000000000000000A9        170192957705     
0010001300206U 020000000000000000000000000000000000000000000000000000000000000000000000000000000000000000000000000000000000000000000000001402201700000000            000000000000000                              000                           
0010001300207T 020180230000001544772 29577050433903640   788888888888889916022017000000000007500001000213888888888888899          0900000000000010000000000000000000000000000000000000000   0000000000000000000000000A9        170192957705     
0010001300208U 020000000000000000000000000000000000000000000000000000000000000000000000000000000000000000000000000000000000000000000000001402201700000000            000000000000000                              000                           
0010001300209T 020180230000001544772 29577050437700452   7               16022017000000000007500001000213                         0900000000000010000000000000000000000000000000000000000   0000000000000000000000000A9        170192957705     
0010001300210U 020000000000000000000000000000000000000000000000000000000000000000000000000000000000000000000000000000000000000000000000001402201700000000            000000000000000                              000                           
0010001300211T 020180230000001544772 29577050439132751   788888888888889916022017000000000010000001012408888888888888899          0900000000000010000000000000000000000000000000000000000   0000000000000000000000000A9        170192957705     
0010001300212U 020000000000000000000000000000000000000000000000000000000000000000000000000000000000000000000000000000000000000000000000001402201700000000            000000000000000                              000                           
0010001300213T 020180230000001544772 29577050443345752   788888888888889916022017000000000007500001000213888888888888899          0900000000000010000000000000000000000000000000000000000   0000000000000000000000000A9        170192957705     
0010001300214U 020000000000000000000000000000000000000000000000000000000000000000000000000000000000000000000000000000000000000000000000001402201700000000            000000000000000                              000                           
0010001300215T 020180230000001544772 29577050448444069   7               1602201700000000000750000103049X                         0900000000000010000000000000000000000000000000000000000   0000000000000000000000000A9        170192957705     
0010001300216U 020000000000000000000000000000000000000000000000000000000000000000000000000000000000000000000000000000000000000000000000001402201700000000            000000000000000                              000                           
0010001300217T 020180230000001544772 29577050448448442   7               1602201700000000000750000103049X                         0900000000000010000000000000000000000000000000000000000   0000000000000000000000000A9        170192957705     
0010001300218U 020000000000000000000000000000000000000000000000000000000000000000000000000000000000000000000000000000000000000000000000001402201700000000            000000000000000                              000                           
0010001300219T 020180230000001544772 29577050451654870   788888888888889916022017000000000007500001012408888888888888899          0900000000000010500000000000000000000000000000000000000   0000000000000000000000000A9A4      170192957705     
0010001300220U 020000000000000000000000000000000000000000000000000000000000000000000000000000000000000000000000000000000000000000000000001402201700000000            000000000000000                              000                           
0010001300221T 020180230000001544772 29577050452429283   7               16022017000000000007500001007692                         0900000000000010000000000000000000000000000000000000000   0000000000000000000000000A9        170192957705     
0010001300222U 020000000000000000000000000000000000000000000000000000000000000000000000000000000000000000000000000000000000000000000000001402201700000000            000000000000000                              000                           
0010001300223T 020180230000001544772 29577050454304132   7               16022017000000000007500001000213                         0900000000000010000000000000000000000000000000000000000   0000000000000000000000000A9        170192957705     
0010001300224U 020000000000000000000000000000000000000000000000000000000000000000000000000000000000000000000000000000000000000000000000001402201700000000            000000000000000                              000                           
0010001300225T 020180230000001544772 29577050454355302   7               16022017000000000007500001000213                         0900000000000010000000000000000000000000000000000000000   0000000000000000000000000A9        170192957705     
0010001300226U 020000000000000000000000000000000000000000000000000000000000000000000000000000000000000000000000000000000000000000000000001402201700000000            000000000000000                              000                           
0010001300227T 020180230000001544772 29577050454747139   7               1602201700000000000750000103049X                         0900000000000010000000000000000000000000000000000000000   0000000000000000000000000A9        170192957705     
0010001300228U 020000000000000000000000000000000000000000000000000000000000000000000000000000000000000000000000000000000000000000000000001402201700000000            000000000000000                              000                           
0010001300229T 020180230000001544772 29577050457937296   7               16022017000000000007500001000213                         0900000000000010000000000000000000000000000000000000000   0000000000000000000000000A9        170192957705     
0010001300230U 020000000000000000000000000000000000000000000000000000000000000000000000000000000000000000000000000000000000000000000000001402201700000000            000000000000000                              000                           
0010001300231T 020180230000001544772 29577050458534897   788888888888889916022017000000000010000001012211888888888888899          0900000000000010000000000000000000000000000000000000000   0000000000000000000000000A9        170192957705     
0010001300232U 020000000000000000000000000000000000000000000000000000000000000000000000000000000000000000000000000000000000000000000000001402201700000000            000000000000000                              000                           
0010001300233T 020180230000001544772 29577050469034116   788888888888889916022017000000000007500001012408888888888888899          0900000000000010000000000000000000000000000000000000000   0000000000000000000000000A9        170192957705     
0010001300234U 020000000000000000000000000000000000000000000000000000000000000000000000000000000000000000000000000000000000000000000000001402201700000000            000000000000000                              000                           
0010001300235T 020180230000001544772 29577050470921243   788888888888889916022017000000000010000001012408888888888888899          0900000000000010000000000000000000000000000000000000000   0000000000000000000000000A9        170192957705     
0010001300236U 020000000000000000000000000000000000000000000000000000000000000000000000000000000000000000000000000000000000000000000000001402201700000000            000000000000000                              000                           
0010001300237T 020180230000001544772 29577050472743920   7               16022017000000000007500001000213                         0900000000000010000000000000000000000000000000000000000   0000000000000000000000000A9        170192957705     
0010001300238U 020000000000000000000000000000000000000000000000000000000000000000000000000000000000000000000000000000000000000000000000001402201700000000            000000000000000                              000                           
0010001300239T 020180230000001544772 29577050475036556   7               1602201700000000000750000103049X                         0900000000000010000000000000000000000000000000000000000   0000000000000000000000000A9        170192957705     
0010001300240U 020000000000000000000000000000000000000000000000000000000000000000000000000000000000000000000000000000000000000000000000001402201700000000            000000000000000                              000                           
0010001300241T 020180230000001544772 29577050475134681   7               1602201700000000000750000103049X                         0900000000000010000000000000000000000000000000000000000   0000000000000000000000000A9        170192957705     
0010001300242U 020000000000000000000000000000000000000000000000000000000000000000000000000000000000000000000000000000000000000000000000001402201700000000            000000000000000                              000                           
0010001300243T 020180230000001544772 29577050476524874   788888888888889916022017000000000007500001012416888888888888899          0900000000000010000000000000000000000000000000000000000   0000000000000000000000000A9        170192957705     
0010001300244U 020000000000000000000000000000000000000000000000000000000000000000000000000000000000000000000000000000000000000000000000001402201700000000            000000000000000                              000                           
0010001300245T 020180230000001544772 29577050482427220   788888888888889916022017000000000007500001012416888888888888899          0900000000000010000000000000000000000000000000000000000   0000000000000000000000000A9        170192957705     
0010001300246U 020000000000000000000000000000000000000000000000000000000000000000000000000000000000000000000000000000000000000000000000001402201700000000            000000000000000                              000                           
0010001300247T 020180230000001544772 29577050487923704   78888888888888991602201700000000000750000103049X888888888888899          0900000000000010000000000000000000000000000000000000000   0000000000000000000000000A9        170192957705     
0010001300248U 020000000000000000000000000000000000000000000000000000000000000000000000000000000000000000000000000000000000000000000000001402201700000000            000000000000000                              000                           
0010001300249T 020180230000001544772 29577050488006219   7               16022017000000000007500001000213                         0900000000000010000000000000000000000000000000000000000   0000000000000000000000000A9        170192957705     
0010001300250U 020000000000000000000000000000000000000000000000000000000000000000000000000000000000000000000000000000000000000000000000001402201700000000            000000000000000                              000                           
0010001300251T 020180230000001544772 29577050488042565   7               16022017000000000007500001000213                         0900000000000010000000000000000000000000000000000000000   0000000000000000000000000A9        170192957705     
0010001300252U 020000000000000000000000000000000000000000000000000000000000000000000000000000000000000000000000000000000000000000000000001402201700000000            000000000000000                              000                           
0010001300253T 020180230000001544772 29577050488827536   7               16022017000000000007500001000213                         0900000000000010000000000000000000000000000000000000000   0000000000000000000000000A9        170192957705     
0010001300254U 020000000000000000000000000000000000000000000000000000000000000000000000000000000000000000000000000000000000000000000000001402201700000000            000000000000000                              000                           
0010001300255T 020180230000001544772 29577050490426038   7               1602201700000000000750000103049X                         0900000000000010000000000000000000000000000000000000000   0000000000000000000000000A9        170192957705     
0010001300256U 020000000000000000000000000000000000000000000000000000000000000000000000000000000000000000000000000000000000000000000000001402201700000000            000000000000000                              000                           
0010001300257T 020180230000001544772 29577050490450252   7               1602201700000000000750000103049X                         0900000000000010000000000000000000000000000000000000000   0000000000000000000000000A9        170192957705     
0010001300258U 020000000000000000000000000000000000000000000000000000000000000000000000000000000000000000000000000000000000000000000000001402201700000000            000000000000000                              000                           
0010001300259T 020180230000001544772 29577050494026992   78888888888888991602201700000000000750000100281X888888888888899          0900000000000010000000000000000000000000000000000000000   0000000000000000000000000A9        170192957705     
0010001300260U 020000000000000000000000000000000000000000000000000000000000000000000000000000000000000000000000000000000000000000000000001402201700000000            000000000000000                              000                           
0010001300261T 020180230000001544772 29577050494317357   78888888888888991602201700000000001000000100829X888888888888899          0900000000000010000000000000000000000000000000000000000   0000000000000000000000000A9        170192957705     
0010001300262U 020000000000000000000000000000000000000000000000000000000000000000000000000000000000000000000000000000000000000000000000001402201700000000            000000000000000                              000                           
0010001300263T 020180230000001544772 29577050494623257   7               16022017000000000007500001012408                         0900000000000010000000000000000000000000000000000000000   0000000000000000000000000A9        170192957705     
0010001300264U 020000000000000000000000000000000000000000000000000000000000000000000000000000000000000000000000000000000000000000000000001402201700000000            000000000000000                              000                           
0010001300265T 020180230000001544772 29577050495358229   7               16022017000000000007500001009245                         0900000000000010000000000000000000000000000000000000000   0000000000000000000000000A9        170192957705     
0010001300266U 020000000000000000000000000000000000000000000000000000000000000000000000000000000000000000000000000000000000000000000000001402201700000000            000000000000000                              000                           
0010001300267T 020180230000001544772 29577050496357197   788888888888889916022017000000000007500001012408888888888888899          0900000000000010500000000000000000000000000000000000000   0000000000000000000000000A9A4      170192957705     
0010001300268U 020000000000000000000000000000000000000000000000000000000000000000000000000000000000000000000000000000000000000000000000001402201700000000            000000000000000                              000                           
0010001300269T 020180230000001544772 29577050496804293   78888888888888991602201700000000000750000103049X888888888888899          0900000000000010000000000000000000000000000000000000000   0000000000000000000000000A9        170192957705     
0010001300270U 020000000000000000000000000000000000000000000000000000000000000000000000000000000000000000000000000000000000000000000000001402201700000000            000000000000000                              000                           
0010001300271T 020180230000001544772 29577050497112867   78888888888888991602201700000000000750000103049X888888888888899          0900000000000010500000000000000000000000000000000000000   0000000000000000000000000A9A4      170192957705     
0010001300272U 020000000000000000000000000000000000000000000000000000000000000000000000000000000000000000000000000000000000000000000000001402201700000000            000000000000000                              000                           
0010001300273T 020180230000001544772 29577050497218214   78888888888888991602201700000000000750000103049X888888888888899          0900000000000010000000000000000000000000000000000000000   0000000000000000000000000A9        170192957705     
0010001300274U 020000000000000000000000000000000000000000000000000000000000000000000000000000000000000000000000000000000000000000000000001402201700000000            000000000000000                              000                           
0010001300275T 020180230000001544772 29577050497309635   788888888888889916022017000000000007500001000213888888888888899          0900000000000010000000000000000000000000000000000000000   0000000000000000000000000A9        170192957705     
0010001300276U 020000000000000000000000000000000000000000000000000000000000000000000000000000000000000000000000000000000000000000000000001402201700000000            000000000000000                              000                           
0010001300277T 020180230000001544772 29577050497433703   788888888888889916022017000000000007500001000213888888888888899          0900000000000010000000000000000000000000000000000000000   0000000000000000000000000A9        170192957705     
0010001300278U 020000000000000000000000000000000000000000000000000000000000000000000000000000000000000000000000000000000000000000000000001402201700000000            000000000000000                              000                           
0010001300279T 020180230000001544772 29577050497530936   78888888888888991602201700000000001000000103049X888888888888899          0900000000000010000000000000000000000000000000000000000   0000000000000000000000000A9        170192957705     
0010001300280U 020000000000000000000000000000000000000000000000000000000000000000000000000000000000000000000000000000000000000000000000001402201700000000            000000000000000                              000                           
0010001300281T 020180230000001544772 29577050497648734   78888888888888991602201700000000000750000103049X888888888888899          0900000000000010000000000000000000000000000000000000000   0000000000000000000000000A9        170192957705     
0010001300282U 020000000000000000000000000000000000000000000000000000000000000000000000000000000000000000000000000000000000000000000000001402201700000000            000000000000000                              000                           
0010001300283T 020180230000001544772 29577050497720758   788888888888889916022017000000000007500001012408888888888888899          0900000000000010000000000000000000000000000000000000000   0000000000000000000000000A9        170192957705     
0010001300284U 020000000000000000000000000000000000000000000000000000000000000000000000000000000000000000000000000000000000000000000000001402201700000000            000000000000000                              000                           
0010001300285T 020180230000001544772 29577050497836685   788888888888889916022017000000000007500001012408888888888888899          0900000000000010000000000000000000000000000000000000000   0000000000000000000000000A9        170192957705     
0010001300286U 020000000000000000000000000000000000000000000000000000000000000000000000000000000000000000000000000000000000000000000000001402201700000000            000000000000000                              000                           
0010001300287T 020180230000001544772 29577050498042736   788888888888889916022017000000000007500001012416888888888888899          0900000000000010000000000000000000000000000000000000000   0000000000000000000000000A9        170192957705     
0010001300288U 020000000000000000000000000000000000000000000000000000000000000000000000000000000000000000000000000000000000000000000000001402201700000000            000000000000000                              000                           
0010001300289T 020180230000001544772 29577050498124481   788888888888889916022017000000000007500001012416888888888888899          0900000000000010500000000000000000000000000000000000000   0000000000000000000000000A9A4      170192957705     
0010001300290U 020000000000000000000000000000000000000000000000000000000000000000000000000000000000000000000000000000000000000000000000001402201700000000            000000000000000                              000                           
0010001300291T 020180230000001544772 29577050498213986   788888888888889916022017000000000010000001000213888888888888899          0900000000000010000000000000000000000000000000000000000   0000000000000000000000000A9        170192957705     
0010001300292U 020000000000000000000000000000000000000000000000000000000000000000000000000000000000000000000000000000000000000000000000001402201700000000            000000000000000                              000                           
0010001300293T 020180230000001544772 29577050498326874   788888888888889916022017000000000007500001012416888888888888899          0900000000000010000000000000000000000000000000000000000   0000000000000000000000000A9        170192957705     
0010001300294U 020000000000000000000000000000000000000000000000000000000000000000000000000000000000000000000000000000000000000000000000001402201700000000            000000000000000                              000                           
0010001300295T 020180230000001544772 29577050498414585   788888888888889916022017000000000007500001012408888888888888899          0900000000000010000000000000000000000000000000000000000   0000000000000000000000000A9        170192957705     
0010001300296U 020000000000000000000000000000000000000000000000000000000000000000000000000000000000000000000000000000000000000000000000001402201700000000            000000000000000                              000                           
0010001300297T 020180230000001544772 29577050498507234   788888888888889916022017000000000007500001012416888888888888899          0900000000000010000000000000000000000000000000000000000   0000000000000000000000000A9        170192957705     
0010001300298U 020000000000000000000000000000000000000000000000000000000000000000000000000000000000000000000000000000000000000000000000001402201700000000            000000000000000                              000                           
0010001300299T 020180230000001544772 29577050498616595   788888888888889916022017000000000007500001012416888888888888899          0900000000000010000000000000000000000000000000000000000   0000000000000000000000000A9        170192957705     
0010001300300U 020000000000000000000000000000000000000000000000000000000000000000000000000000000000000000000000000000000000000000000000001402201700000000            000000000000000                              000                           
0010001300301T 020180230000001544772 29577050498735317   78888888888888991602201700000000000750000103049X888888888888899          0900000000000010000000000000000000000000000000000000000   0000000000000000000000000A9        170192957705     
0010001300302U 020000000000000000000000000000000000000000000000000000000000000000000000000000000000000000000000000000000000000000000000001402201700000000            000000000000000                              000                           
0010001300303T 020180230000001544772 29577050498834421   788888888888889916022017000000000007500001000213888888888888899          0900000000000010000000000000000000000000000000000000000   0000000000000000000000000A9        170192957705     
0010001300304U 020000000000000000000000000000000000000000000000000000000000000000000000000000000000000000000000000000000000000000000000001402201700000000            000000000000000                              000                           
0010001300305T 020180230000001544772 29577050498914758   788888888888889916022017000000000007500001012416888888888888899          0900000000000010000000000000000000000000000000000000000   0000000000000000000000000A9        170192957705     
0010001300306U 020000000000000000000000000000000000000000000000000000000000000000000000000000000000000000000000000000000000000000000000001402201700000000            000000000000000                              000                           
0010001300307T 020180230000001544772 29577050499004019   788888888888889916022017000000000010000001004782888888888888899          0900000000000010000000000000000000000000000000000000000   0000000000000000000000000A9        170192957705     
0010001300308U 020000000000000000000000000000000000000000000000000000000000000000000000000000000000000000000000000000000000000000000000001402201700000000            000000000000000                              000                           
0010001300309T 020180230000001544772 29577050499102991   78888888888888991602201700000000000750000103049X888888888888899          0900000000000010500000000000000000000000000000000000000   0000000000000000000000000A9A4      170192957705     
0010001300310U 020000000000000000000000000000000000000000000000000000000000000000000000000000000000000000000000000000000000000000000000001402201700000000            000000000000000                              000                           
0010001300311T 020180230000001544772 29577050499212697   78888888888888991602201700000000000750000103049X888888888888899          0900000000000010000000000000000000000000000000000000000   0000000000000000000000000A9        170192957705     
0010001300312U 020000000000000000000000000000000000000000000000000000000000000000000000000000000000000000000000000000000000000000000000001402201700000000            000000000000000                              000                           
0010001300313T 020180230000001544772 29577050499317814   788888888888889916022017000000000007500001000213888888888888899          0900000000000010000000000000000000000000000000000000000   0000000000000000000000000A9        170192957705     
0010001300314U 020000000000000000000000000000000000000000000000000000000000000000000000000000000000000000000000000000000000000000000000001402201700000000            000000000000000                              000                           
0010001300315T 020180230000001544772 29577050499549060   788888888888889916022017000000000007500001000213888888888888899          0900000000000010000000000000000000000000000000000000000   0000000000000000000000000A9        170192957705     
0010001300316U 020000000000000000000000000000000000000000000000000000000000000000000000000000000000000000000000000000000000000000000000001402201700000000            000000000000000                              000                           
0010001300317T 020180230000001544772 29577050499752090   788888888888889916022017000000000007500001000213888888888888899          0900000000000010000000000000000000000000000000000000000   0000000000000000000000000A9        170192957705     
0010001300318U 020000000000000000000000000000000000000000000000000000000000000000000000000000000000000000000000000000000000000000000000001402201700000000            000000000000000                              000                           
0010001300319T 020180230000001544772 29577050499838544   788888888888889916022017000000000007500001000213888888888888899          0900000000000010000000000000000000000000000000000000000   0000000000000000000000000A9        170192957705     
0010001300320U 020000000000000000000000000000000000000000000000000000000000000000000000000000000000000000000000000000000000000000000000001402201700000000            000000000000000                              000                           
0010001300321T 020180230000001544772 29577050499912461   788888888888889916022017000000000007500001000833888888888888899          0900000000000010000000000000000000000000000000000000000   0000000000000000000000000A9        170192957705     
0010001300322U 020000000000000000000000000000000000000000000000000000000000000000000000000000000000000000000000000000000000000000000000001402201700000000            000000000000000                              000                           
0010001300323T 020180230000001544772 29577050500057655   78888888888888991602201700000000000750000103049X888888888888899          0900000000000010000000000000000000000000000000000000000   0000000000000000000000000A9        170192957705     
0010001300324U 020000000000000000000000000000000000000000000000000000000000000000000000000000000000000000000000000000000000000000000000001402201700000000            000000000000000                              000                           
0010001300325T 020180230000001544772 29577050500117519   788888888888889916022017000000000007500001012408888888888888899          0900000000000010000000000000000000000000000000000000000   0000000000000000000000000A9        170192957705     
0010001300326U 020000000000000000000000000000000000000000000000000000000000000000000000000000000000000000000000000000000000000000000000001402201700000000            000000000000000                              000                           
0010001300327T 020180230000001544772 29577050500252234   788888888888889916022017000000000007500001012416888888888888899          0900000000000010000000000000000000000000000000000000000   0000000000000000000000000A9        170192957705     
0010001300328U 020000000000000000000000000000000000000000000000000000000000000000000000000000000000000000000000000000000000000000000000001402201700000000            000000000000000                              000                           
0010001300329T 020180230000001544772 29577050500318609   788888888888889916022017000000000010000001004804888888888888899          0900000000000010000000000000000000000000000000000000000   0000000000000000000000000A9        170192957705     
0010001300330U 020000000000000000000000000000000000000000000000000000000000000000000000000000000000000000000000000000000000000000000000001402201700000000            000000000000000                              000                           
0010001300331T 020180230000001544772 29577050500325962   788888888888889916022017000000000010000001004804888888888888899          0900000000000010000000000000000000000000000000000000000   0000000000000000000000000A9        170192957705     
0010001300332U 020000000000000000000000000000000000000000000000000000000000000000000000000000000000000000000000000000000000000000000000001402201700000000            000000000000000                              000                           
0010001300333T 020180230000001544772 29577050500431127   78888888888888991602201700000000000750000103049X888888888888899          0900000000000010000000000000000000000000000000000000000   0000000000000000000000000A9        170192957705     
0010001300334U 020000000000000000000000000000000000000000000000000000000000000000000000000000000000000000000000000000000000000000000000001402201700000000            000000000000000                              000                           
0010001300335T 020180230000001544772 29577050500747606   788888888888889916022017000000000010000001000213888888888888899          0900000000000010000000000000000000000000000000000000000   0000000000000000000000000A9        170192957705     
0010001300336U 020000000000000000000000000000000000000000000000000000000000000000000000000000000000000000000000000000000000000000000000001402201700000000            000000000000000                              000                           
0010001300337T 020180230000001544772 29577050500826235   788888888888889916022017000000000007500001012408888888888888899          0900000000000010000000000000000000000000000000000000000   0000000000000000000000000A9        170192957705     
0010001300338U 020000000000000000000000000000000000000000000000000000000000000000000000000000000000000000000000000000000000000000000000001402201700000000            000000000000000                              000                           
0010001300339T 020180230000001544772 29577050501149914   78888888888888991602201700000000000750000103049X888888888888899          0900000000000010000000000000000000000000000000000000000   0000000000000000000000000A9        170192957705     
0010001300340U 020000000000000000000000000000000000000000000000000000000000000000000000000000000000000000000000000000000000000000000000001402201700000000            000000000000000                              000                           
0010001300341T 020180230000001544772 29577050501158381   78888888888888991602201700000000000750000103049X888888888888899          0900000000000010000000000000000000000000000000000000000   0000000000000000000000000A9        170192957705     
0010001300342U 020000000000000000000000000000000000000000000000000000000000000000000000000000000000000000000000000000000000000000000000001402201700000000            000000000000000                              000                           
0010001300343T 020180230000001544772 29577050501230972   788888888888889916022017000000000007500001002224888888888888899          0900000000000010000000000000000000000000000000000000000   0000000000000000000000000A9        170192957705     
0010001300344U 020000000000000000000000000000000000000000000000000000000000000000000000000000000000000000000000000000000000000000000000001402201700000000            000000000000000                              000                           
0010001300345T 020180230000001544772 29577050501358043   788888888888889916022017000000000007500001012408888888888888899          0900000000000010500000000000000000000000000000000000000   0000000000000000000000000A9A4      170192957705     
0010001300346U 020000000000000000000000000000000000000000000000000000000000000000000000000000000000000000000000000000000000000000000000001402201700000000            000000000000000                              000                           
0010001300347T 020180230000001544772 29577050501404448   788888888888889916022017000000000007500001046280888888888888899          0900000000000010000000000000000000000000000000000000000   0000000000000000000000000A9        170192957705     
0010001300348U 020000000000000000000000000000000000000000000000000000000000000000000000000000000000000000000000000000000000000000000000001402201700000000            000000000000000                              000                           
0010001300349T 020180230000001544772 29577050501522024   788888888888889916022017000000000007500001012416888888888888899          0900000000000010000000000000000000000000000000000000000   0000000000000000000000000A9        170192957705     
0010001300350U 020000000000000000000000000000000000000000000000000000000000000000000000000000000000000000000000000000000000000000000000001402201700000000            000000000000000                              000                           
0010001300351T 020180230000001544772 29577050501633205   788888888888889916022017000000000007500001000213888888888888899          0900000000000010000000000000000000000000000000000000000   0000000000000000000000000A9        170192957705     
0010001300352U 020000000000000000000000000000000000000000000000000000000000000000000000000000000000000000000000000000000000000000000000001402201700000000            000000000000000                              000                           
0010001300353T 020180230000001544772 29577050501749317   788888888888889916022017000000000007500001012408888888888888899          0900000000000010000000000000000000000000000000000000000   0000000000000000000000000A9        170192957705     
0010001300354U 020000000000000000000000000000000000000000000000000000000000000000000000000000000000000000000000000000000000000000000000001402201700000000            000000000000000                              000                           
0010001300355T 020180230000001544772 29577050501834449   788888888888889916022017000000000007500001000213888888888888899          0900000000000010000000000000000000000000000000000000000   0000000000000000000000000A9        170192957705     
0010001300356U 020000000000000000000000000000000000000000000000000000000000000000000000000000000000000000000000000000000000000000000000001402201700000000            000000000000000                              000                           
0010001300357T 020180230000001544772 29577050501933505   788888888888889916022017000000000007500001012416888888888888899          0900000000000010000000000000000000000000000000000000000   0000000000000000000000000A9        170192957705     
0010001300358U 020000000000000000000000000000000000000000000000000000000000000000000000000000000000000000000000000000000000000000000000001402201700000000            000000000000000                              000                           
0010001300359T 020180230000001544772 29577050502024140   788888888888889916022017000000000007500001000213888888888888899          0900000000000010000000000000000000000000000000000000000   0000000000000000000000000A9        170192957705     
0010001300360U 020000000000000000000000000000000000000000000000000000000000000000000000000000000000000000000000000000000000000000000000001402201700000000            000000000000000                              000                           
0010001300361T 020180230000001544772 29577050502358293   788888888888889916022017000000000007500001012416888888888888899          0900000000000010000000000000000000000000000000000000000   0000000000000000000000000A9        170192957705     
0010001300362U 020000000000000000000000000000000000000000000000000000000000000000000000000000000000000000000000000000000000000000000000001402201700000000            000000000000000                              000                           
0010001300363T 020180230000001544772 29577050502428269   788888888888889916022017000000000007500001012408888888888888899          0900000000000010000000000000000000000000000000000000000   0000000000000000000000000A9        170192957705     
0010001300364U 020000000000000000000000000000000000000000000000000000000000000000000000000000000000000000000000000000000000000000000000001402201700000000            000000000000000                              000                           
0010001300365T 020180230000001544772 29577050502618888   78888888888888991602201700000000000750000103049X888888888888899          0900000000000010000000000000000000000000000000000000000   0000000000000000000000000A9        170192957705     
0010001300366U 020000000000000000000000000000000000000000000000000000000000000000000000000000000000000000000000000000000000000000000000001402201700000000            000000000000000                              000                           
0010001300367T 020180230000001544772 29577050502738731   788888888888889916022017000000000007500001000213888888888888899          0900000000000010000000000000000000000000000000000000000   0000000000000000000000000A9        170192957705     
0010001300368U 020000000000000000000000000000000000000000000000000000000000000000000000000000000000000000000000000000000000000000000000001402201700000000            000000000000000                              000                           
0010001300369T 020180230000001544772 29577050502952077   788888888888889916022017000000000007500001012408888888888888899          0900000000000010000000000000000000000000000000000000000   0000000000000000000000000A9        170192957705     
0010001300370U 020000000000000000000000000000000000000000000000000000000000000000000000000000000000000000000000000000000000000000000000001402201700000000            000000000000000                              000                           
0010001300371T 020180230000001544772 29577050503046655   788888888888889916022017000000000007500001012416888888888888899          0900000000000010000000000000000000000000000000000000000   0000000000000000000000000A9        170192957705     
0010001300372U 020000000000000000000000000000000000000000000000000000000000000000000000000000000000000000000000000000000000000000000000001402201700000000            000000000000000                              000                           
0010001300373T 020180230000001544772 29577050503239308   788888888888889916022017000000000007500001000213888888888888899          0900000000000010000000000000000000000000000000000000000   0000000000000000000000000A9        170192957705     
0010001300374U 020000000000000000000000000000000000000000000000000000000000000000000000000000000000000000000000000000000000000000000000001402201700000000            000000000000000                              000                           
0010001300375T 020180230000001544772 29577050503444908   788888888888889916022017000000000007500001000213888888888888899          0900000000000010000000000000000000000000000000000000000   0000000000000000000000000A9        170192957705     
0010001300376U 020000000000000000000000000000000000000000000000000000000000000000000000000000000000000000000000000000000000000000000000001402201700000000            000000000000000                              000                           
0010001300377T 020180230000001544772 29577050503504092   788888888888889916022017000000000007500001000213888888888888899          0900000000000010000000000000000000000000000000000000000   0000000000000000000000000A9        170192957705     
0010001300378U 020000000000000000000000000000000000000000000000000000000000000000000000000000000000000000000000000000000000000000000000001402201700000000            000000000000000                              000                           
0010001300379T 020180230000001544772 29577050503729200   788888888888889916022017000000000007500001012408888888888888899          0900000000000010000000000000000000000000000000000000000   0000000000000000000000000A9        170192957705     
0010001300380U 020000000000000000000000000000000000000000000000000000000000000000000000000000000000000000000000000000000000000000000000001402201700000000            000000000000000                              000                           
0010001300381T 020180230000001544772 29577050504048974   78888888888888991602201700000000000750000103049X888888888888899          0900000000000010500000000000000000000000000000000000000   0000000000000000000000000A9A4      170192957705     
0010001300382U 020000000000000000000000000000000000000000000000000000000000000000000000000000000000000000000000000000000000000000000000001402201700000000            000000000000000                              000                           
0010001300383T 020180230000001544772 29577050504254151   788888888888889916022017000000000007500001012408888888888888899          0900000000000010000000000000000000000000000000000000000   0000000000000000000000000A9        170192957705     
0010001300384U 020000000000000000000000000000000000000000000000000000000000000000000000000000000000000000000000000000000000000000000000001402201700000000            000000000000000                              000                           
0010001300385T 020180230000001544772 29577050504703265   78888888888888991602201700000000000750000103049X888888888888899          0900000000000010000000000000000000000000000000000000000   0000000000000000000000000A9        170192957705     
0010001300386U 020000000000000000000000000000000000000000000000000000000000000000000000000000000000000000000000000000000000000000000000001402201700000000            000000000000000                              000                           
0010001300387T 020180230000001544772 29577050504836963   788888888888889916022017000000000007500001000213888888888888899          0900000000000010000000000000000000000000000000000000000   0000000000000000000000000A9        170192957705     
0010001300388U 020000000000000000000000000000000000000000000000000000000000000000000000000000000000000000000000000000000000000000000000001402201700000000            000000000000000                              000                           
0010001300389T 020180230000001544772 29577050505032071   788888888888889916022017000000000007500001012408888888888888899          0900000000000010000000000000000000000000000000000000000   0000000000000000000000000A9        170192957705     
0010001300390U 020000000000000000000000000000000000000000000000000000000000000000000000000000000000000000000000000000000000000000000000001402201700000000            000000000000000                              000                           
0010001300391T 020180230000001544772 29577050505141943   788888888888889916022017000000000007500001012408888888888888899          0900000000000010000000000000000000000000000000000000000   0000000000000000000000000A9        170192957705     
0010001300392U 020000000000000000000000000000000000000000000000000000000000000000000000000000000000000000000000000000000000000000000000001402201700000000            000000000000000                              000                           
0010001300393T 020180230000001544772 29577050505257856   78888888888888991602201700000000000750000103049X888888888888899          0900000000000010000000000000000000000000000000000000000   0000000000000000000000000A9        170192957705     
0010001300394U 020000000000000000000000000000000000000000000000000000000000000000000000000000000000000000000000000000000000000000000000001402201700000000            000000000000000                              000                           
0010001300395T 020180230000001544772 29577050505554125   788888888888889916022017000000000007500001012408888888888888899          0900000000000010000000000000000000000000000000000000000   0000000000000000000000000A9        170192957705     
0010001300396U 020000000000000000000000000000000000000000000000000000000000000000000000000000000000000000000000000000000000000000000000001402201700000000            000000000000000                              000                           
0010001300397T 020180230000001544772 29577050505821122   78888888888888991602201700000000000750000103049X888888888888899          0900000000000010500000000000000000000000000000000000000   0000000000000000000000000A9A4      170192957705     
0010001300398U 020000000000000000000000000000000000000000000000000000000000000000000000000000000000000000000000000000000000000000000000001402201700000000            000000000000000                              000                           
0010001300399T 020180230000001544772 29577050505936577   788888888888889916022017000000000010000001012416888888888888899          0900000000000010000000000000000000000000000000000000000   0000000000000000000000000A9        170192957705     
0010001300400U 020000000000000000000000000000000000000000000000000000000000000000000000000000000000000000000000000000000000000000000000001402201700000000            000000000000000                              000                           
0010001300401T 020180230000001544772 29577050506616013   788888888888889916022017000000000007500001012416888888888888899          0900000000000010000000000000000000000000000000000000000   0000000000000000000000000A9        170192957705     
0010001300402U 020000000000000000000000000000000000000000000000000000000000000000000000000000000000000000000000000000000000000000000000001402201700000000            000000000000000                              000                           
0010001300403T 020180230000001544772 29577050506719877   788888888888889916022017000000000010000001009245888888888888899          0900000000000010000000000000000000000000000000000000000   0000000000000000000000000A9        170192957705     
0010001300404U 020000000000000000000000000000000000000000000000000000000000000000000000000000000000000000000000000000000000000000000000001402201700000000            000000000000000                              000                           
0010001300405T 020180230000001544772 29577050507035265   788888888888889916022017000000000007500001012416888888888888899          0900000000000010000000000000000000000000000000000000000   0000000000000000000000000A9        170192957705     
0010001300406U 020000000000000000000000000000000000000000000000000000000000000000000000000000000000000000000000000000000000000000000000001402201700000000            000000000000000                              000                           
0010001300407T 020180230000001544772 29577050507843647   788888888888889916022017000000000007500001012408888888888888899          0900000000000010500000000000000000000000000000000000000   0000000000000000000000000A9A4      170192957705     
0010001300408U 020000000000000000000000000000000000000000000000000000000000000000000000000000000000000000000000000000000000000000000000001402201700000000            000000000000000                              000                           
0010001300409T 020180230000001544772 29577050507912698   788888888888889916022017000000000007500001001120888888888888899          0900000000000010000000000000000000000000000000000000000   0000000000000000000000000A9        170192957705     
0010001300410U 020000000000000000000000000000000000000000000000000000000000000000000000000000000000000000000000000000000000000000000000001402201700000000            000000000000000                              000                           
0010001300411T 020180230000001544772 29577050507941953   7               16022017000000000007500001001120                         0900000000000010000000000000000000000000000000000000000   0000000000000000000000000A9        170192957705     
0010001300412U 020000000000000000000000000000000000000000000000000000000000000000000000000000000000000000000000000000000000000000000000001402201700000000            000000000000000                              000                           
