00100000         2247745860001000029577050014       0180230000001544772 INSTITUTO DE SELECAO E TECNOLOBANCO DO BRASIL                         22002201703315000010203000000515122941PROCESSAMEN                                                 
00100011T0100020 20247745860001000029577050014       0180230000001544772 INSTITUTO DE SELECAO E TECNOLO                                                                                000000002002201700000000  000000000                      
0010001300001T 020180230000001544772 29577050019922549   7               20022017000000000007500001012408                         0900000000000010000000000000000000000000000000000000000   0000000000000000000000000A9        170192957705     
0010001300002U 020000000000000000000000000000000000000000000000000000000000000000000000000000000000000000000000000000000000000000000000001802201700000000            000000000000000                              000                           
0010001300003T 020180230000001544772 29577050019935322   7               20022017000000000007500001012408                         0900000000000010000000000000000000000000000000000000000   0000000000000000000000000A9        170192957705     
0010001300004U 020000000000000000000000000000000000000000000000000000000000000000000000000000000000000000000000000000000000000000000000001802201700000000            000000000000000                              000                           
0010001300005T 020180230000001544772 29577050033826461   7               22022017000000000007500001000213                         0900000000000010000000000000000000000000000000000000000   0000000000000000000000000A9        170192957705     
0010001300006U 020000000000000000000000000000000000000000000000000000000000000000000000000000000000000000000000000000000000000000000000002002201700000000            000000000000000                              000                           
0010001300007T 020180230000001544772 29577050063315328   7               21022017000000000007500001012416                         0900000000000010500000000000000000000000000000000000000   0000000000000000000000000A9A4      170192957705     
0010001300008U 020000000000000000000000000000000000000000000000000000000000000000000000000000000000000000000000000000000000000000000000001902201700000000            000000000000000                              000                           
0010001300009T 020180230000001544772 29577050086945737   7               22022017000000000007500001000213                         0900000000000010000000000000000000000000000000000000000   0000000000000000000000000A9        170192957705     
0010001300010U 020000000000000000000000000000000000000000000000000000000000000000000000000000000000000000000000000000000000000000000000002002201700000000            000000000000000                              000                           
0010001300011T 020180230000001544772 29577050104110062   7               20022017000000000007500001012416                         0900000000000010000000000000000000000000000000000000000   0000000000000000000000000A9        170192957705     
0010001300012U 020000000000000000000000000000000000000000000000000000000000000000000000000000000000000000000000000000000000000000000000001802201700000000            000000000000000                              000                           
0010001300013T 020180230000001544772 29577050115213620   7               2102201700000000000750000103049X                         0900000000000010000000000000000000000000000000000000000   0000000000000000000000000A9        170192957705     
0010001300014U 020000000000000000000000000000000000000000000000000000000000000000000000000000000000000000000000000000000000000000000000001902201700000000            000000000000000                              000                           
0010001300015T 020180230000001544772 29577050115254371   7               2102201700000000000750000103049X                         0900000000000010000000000000000000000000000000000000000   0000000000000000000000000A9        170192957705     
0010001300016U 020000000000000000000000000000000000000000000000000000000000000000000000000000000000000000000000000000000000000000000000001902201700000000            000000000000000                              000                           
0010001300017T 020180230000001544772 29577050128043707   7               22022017000000000007500001000213                         0900000000000010000000000000000000000000000000000000000   0000000000000000000000000A9        170192957705     
0010001300018U 020000000000000000000000000000000000000000000000000000000000000000000000000000000000000000000000000000000000000000000000002002201700000000            000000000000000                              000                           
0010001300019T 020180230000001544772 29577050155834371   7               22022017000000000007500001001120                         0900000000000010000000000000000000000000000000000000000   0000000000000000000000000A9        170192957705     
0010001300020U 020000000000000000000000000000000000000000000000000000000000000000000000000000000000000000000000000000000000000000000000002002201700000000            000000000000000                              000                           
0010001300021T 020180230000001544772 29577050156800263   7               22022017000000000007500001000213                         0900000000000010000000000000000000000000000000000000000   0000000000000000000000000A9        170192957705     
0010001300022U 020000000000000000000000000000000000000000000000000000000000000000000000000000000000000000000000000000000000000000000000002002201700000000            000000000000000                              000                           
0010001300023T 020180230000001544772 29577050174500026   7               22022017000000000007500001000213                         0900000000000010000000000000000000000000000000000000000   0000000000000000000000000A9        170192957705     
0010001300024U 020000000000000000000000000000000000000000000000000000000000000000000000000000000000000000000000000000000000000000000000002002201700000000            000000000000000                              000                           
0010001300025T 020180230000001544772 29577050186441483   7               22022017000000000007500001012416                         0900000000000010000000000000000000000000000000000000000   0000000000000000000000000A9        170192957705     
0010001300026U 020000000000000000000000000000000000000000000000000000000000000000000000000000000000000000000000000000000000000000000000002002201700000000            000000000000000                              000                           
0010001300027T 020180230000001544772 29577050189605293   7               20022017000000000007500001000213                         0900000000000010000000000000000000000000000000000000000   0000000000000000000000000A9        170192957705     
0010001300028U 020000000000000000000000000000000000000000000000000000000000000000000000000000000000000000000000000000000000000000000000001802201700000000            000000000000000                              000                           
0010001300029T 020180230000001544772 29577050189641654   7               20022017000000000007500001000213                         0900000000000010000000000000000000000000000000000000000   0000000000000000000000000A9        170192957705     
0010001300030U 020000000000000000000000000000000000000000000000000000000000000000000000000000000000000000000000000000000000000000000000001802201700000000            000000000000000                              000                           
0010001300031T 020180230000001544772 29577050190849458   7               22022017000000000007500001012408                         0900000000000010000000000000000000000000000000000000000   0000000000000000000000000A9        170192957705     
0010001300032U 020000000000000000000000000000000000000000000000000000000000000000000000000000000000000000000000000000000000000000000000002002201700000000            000000000000000                              000                           
0010001300033T 020180230000001544772 29577050191407099   7               20022017000000000007500001012416                         0900000000000010000000000000000000000000000000000000000   0000000000000000000000000A9        170192957705     
0010001300034U 020000000000000000000000000000000000000000000000000000000000000000000000000000000000000000000000000000000000000000000000001802201700000000            000000000000000                              000                           
0010001300035T 020180230000001544772 29577050207547816   7               22022017000000000007500001012408                         0900000000000010000000000000000000000000000000000000000   0000000000000000000000000A9        170192957705     
0010001300036U 020000000000000000000000000000000000000000000000000000000000000000000000000000000000000000000000000000000000000000000000002002201700000000            000000000000000                              000                           
0010001300037T 020180230000001544772 29577050208331704   7               22022017000000000007500001000213                         0900000000000010000000000000000000000000000000000000000   0000000000000000000000000A9        170192957705     
0010001300038U 020000000000000000000000000000000000000000000000000000000000000000000000000000000000000000000000000000000000000000000000002002201700000000            000000000000000                              000                           
0010001300039T 020180230000001544772 29577050241028521   7               2202201700000000000750000101009X                         0900000000000010000000000000000000000000000000000000000   0000000000000000000000000A9        170192957705     
0010001300040U 020000000000000000000000000000000000000000000000000000000000000000000000000000000000000000000000000000000000000000000000002002201700000000            000000000000000                              000                           
0010001300041T 020180230000001544772 29577050243511057   7               20022017000000000007500001000213                         0900000000000010000000000000000000000000000000000000000   0000000000000000000000000A9        170192957705     
0010001300042U 020000000000000000000000000000000000000000000000000000000000000000000000000000000000000000000000000000000000000000000000001802201700000000            000000000000000                              000                           
0010001300043T 020180230000001544772 29577050247328547   7               21022017000000000007500001012408                         0900000000000010000000000000000000000000000000000000000   0000000000000000000000000A9        170192957705     
0010001300044U 020000000000000000000000000000000000000000000000000000000000000000000000000000000000000000000000000000000000000000000000001902201700000000            000000000000000                              000                           
0010001300045T 020180230000001544772 29577050265029847   7               22022017000000000007500001012408                         0900000000000010000000000000000000000000000000000000000   0000000000000000000000000A9        170192957705     
0010001300046U 020000000000000000000000000000000000000000000000000000000000000000000000000000000000000000000000000000000000000000000000002002201700000000            000000000000000                              000                           
0010001300047T 020180230000001544772 29577050265409894   7               22022017000000000007500001012416                         0900000000000010000000000000000000000000000000000000000   0000000000000000000000000A9        170192957705     
0010001300048U 020000000000000000000000000000000000000000000000000000000000000000000000000000000000000000000000000000000000000000000000002002201700000000            000000000000000                              000                           
0010001300049T 020180230000001544772 29577050265438215   7               22022017000000000007500001012416                         0900000000000010000000000000000000000000000000000000000   0000000000000000000000000A9        170192957705     
0010001300050U 020000000000000000000000000000000000000000000000000000000000000000000000000000000000000000000000000000000000000000000000002002201700000000            000000000000000                              000                           
0010001300051T 020180230000001544772 29577050265453440   7               22022017000000000007500001012416                         0900000000000010000000000000000000000000000000000000000   0000000000000000000000000A9        170192957705     
0010001300052U 020000000000000000000000000000000000000000000000000000000000000000000000000000000000000000000000000000000000000000000000002002201700000000            000000000000000                              000                           
0010001300053T 020180230000001544772 29577050274414926   7               2202201700000000000750000103049X                         0900000000000010500000000000000000000000000000000000000   0000000000000000000000000A9A4      170192957705     
0010001300054U 020000000000000000000000000000000000000000000000000000000000000000000000000000000000000000000000000000000000000000000000002002201700000000            000000000000000                              000                           
0010001300055T 020180230000001544772 29577050274616768   7               22022017000000000007500001021121                         0900000000000010000000000000000000000000000000000000000   0000000000000000000000000A9        170192957705     
0010001300056U 020000000000000000000000000000000000000000000000000000000000000000000000000000000000000000000000000000000000000000000000002002201700000000            000000000000000                              000                           
0010001300057T 020180230000001544772 29577050274646588   7               22022017000000000007500001021121                         0900000000000010000000000000000000000000000000000000000   0000000000000000000000000A9        170192957705     
0010001300058U 020000000000000000000000000000000000000000000000000000000000000000000000000000000000000000000000000000000000000000000000002002201700000000            000000000000000                              000                           
0010001300059T 020180230000001544772 29577050283106105   7               22022017000000000007500001000213                         0900000000000010000000000000000000000000000000000000000   0000000000000000000000000A9        170192957705     
0010001300060U 020000000000000000000000000000000000000000000000000000000000000000000000000000000000000000000000000000000000000000000000002002201700000000            000000000000000                              000                           
0010001300061T 020180230000001544772 29577050284551965   7               2202201700000000000750000100166X                         0900000000000010500000000000000000000000000000000000000   0000000000000000000000000A9A4      170192957705     
0010001300062U 020000000000000000000000000000000000000000000000000000000000000000000000000000000000000000000000000000000000000000000000002002201700000000            000000000000000                              000                           
0010001300063T 020180230000001544772 29577050319355960   7               22022017000000000007500001045020                         0900000000000010000000000000000000000000000000000000000   0000000000000000000000000A9        170192957705     
0010001300064U 020000000000000000000000000000000000000000000000000000000000000000000000000000000000000000000000000000000000000000000000002002201700000000            000000000000000                              000                           
0010001300065T 020180230000001544772 29577050321439967   7               2202201700000000000750000103049X                         0900000000000010000000000000000000000000000000000000000   0000000000000000000000000A9        170192957705     
0010001300066U 020000000000000000000000000000000000000000000000000000000000000000000000000000000000000000000000000000000000000000000000002002201700000000            000000000000000                              000                           
0010001300067T 020180230000001544772 29577050325825198   7               20022017000000000007500001001120                         0900000000000010000000000000000000000000000000000000000   0000000000000000000000000A9        170192957705     
0010001300068U 020000000000000000000000000000000000000000000000000000000000000000000000000000000000000000000000000000000000000000000000001802201700000000            000000000000000                              000                           
0010001300069T 020180230000001544772 29577050361827737   7               22022017000000000007500001012416                         0900000000000010500000000000000000000000000000000000000   0000000000000000000000000A9A4      170192957705     
0010001300070U 020000000000000000000000000000000000000000000000000000000000000000000000000000000000000000000000000000000000000000000000002002201700000000            000000000000000                              000                           
0010001300071T 020180230000001544772 29577050362310982   7               22022017000000000007500001012408                         0900000000000010000000000000000000000000000000000000000   0000000000000000000000000A9        170192957705     
0010001300072U 020000000000000000000000000000000000000000000000000000000000000000000000000000000000000000000000000000000000000000000000002002201700000000            000000000000000                              000                           
0010001300073T 020180230000001544772 29577050362338839   7               22022017000000000007500001012408                         0900000000000010000000000000000000000000000000000000000   0000000000000000000000000A9        170192957705     
0010001300074U 020000000000000000000000000000000000000000000000000000000000000000000000000000000000000000000000000000000000000000000000002002201700000000            000000000000000                              000                           
0010001300075T 020180230000001544772 29577050370802396   7               21022017000000000007500001012416                         0900000000000010000000000000000000000000000000000000000   0000000000000000000000000A9        170192957705     
0010001300076U 020000000000000000000000000000000000000000000000000000000000000000000000000000000000000000000000000000000000000000000000001902201700000000            000000000000000                              000                           
0010001300077T 020180230000001544772 29577050381656336   7               21022017000000000007500001012408                         0900000000000010000000000000000000000000000000000000000   0000000000000000000000000A9        170192957705     
0010001300078U 020000000000000000000000000000000000000000000000000000000000000000000000000000000000000000000000000000000000000000000000001902201700000000            000000000000000                              000                           
0010001300079T 020180230000001544772 29577050396344381   7               22022017000000000007500001000213                         0900000000000010000000000000000000000000000000000000000   0000000000000000000000000A9        170192957705     
0010001300080U 020000000000000000000000000000000000000000000000000000000000000000000000000000000000000000000000000000000000000000000000002002201700000000            000000000000000                              000                           
0010001300081T 020180230000001544772 29577050399124928   7               21022017000000000007500001000213                         0900000000000010500000000000000000000000000000000000000   0000000000000000000000000A9A4      170192957705     
0010001300082U 020000000000000000000000000000000000000000000000000000000000000000000000000000000000000000000000000000000000000000000000001902201700000000            000000000000000                              000                           
0010001300083T 020180230000001544772 29577050399145839   7               21022017000000000007500001000213                         0900000000000010500000000000000000000000000000000000000   0000000000000000000000000A9A4      170192957705     
0010001300084U 020000000000000000000000000000000000000000000000000000000000000000000000000000000000000000000000000000000000000000000000001902201700000000            000000000000000                              000                           
0010001300085T 020180230000001544772 29577050404554203   7               2002201700000000000750000103049X                         0900000000000010000000000000000000000000000000000000000   0000000000000000000000000A9        170192957705     
0010001300086U 020000000000000000000000000000000000000000000000000000000000000000000000000000000000000000000000000000000000000000000000001802201700000000            000000000000000                              000                           
0010001300087T 020180230000001544772 29577050405442121   7               20022017000000000007500001012408                         0900000000000010000000000000000000000000000000000000000   0000000000000000000000000A9        170192957705     
0010001300088U 020000000000000000000000000000000000000000000000000000000000000000000000000000000000000000000000000000000000000000000000001802201700000000            000000000000000                              000                           
0010001300089T 020180230000001544772 29577050407108378   7               20022017000000000007500001012408                         0900000000000010000000000000000000000000000000000000000   0000000000000000000000000A9        170192957705     
0010001300090U 020000000000000000000000000000000000000000000000000000000000000000000000000000000000000000000000000000000000000000000000001802201700000000            000000000000000                              000                           
0010001300091T 020180230000001544772 29577050422220928   7               22022017000000000007500001012408                         0900000000000010000000000000000000000000000000000000000   0000000000000000000000000A9        170192957705     
0010001300092U 020000000000000000000000000000000000000000000000000000000000000000000000000000000000000000000000000000000000000000000000002002201700000000            000000000000000                              000                           
0010001300093T 020180230000001544772 29577050422329210   7               22022017000000000007500001012408                         0900000000000010000000000000000000000000000000000000000   0000000000000000000000000A9        170192957705     
0010001300094U 020000000000000000000000000000000000000000000000000000000000000000000000000000000000000000000000000000000000000000000000002002201700000000            000000000000000                              000                           
0010001300095T 020180230000001544772 29577050422404573   7               22022017000000000007500001012408                         0900000000000010000000000000000000000000000000000000000   0000000000000000000000000A9        170192957705     
0010001300096U 020000000000000000000000000000000000000000000000000000000000000000000000000000000000000000000000000000000000000000000000002002201700000000            000000000000000                              000                           
0010001300097T 020180230000001544772 29577050423255152   7               22022017000000000007500001001120                         0900000000000010000000000000000000000000000000000000000   0000000000000000000000000A9        170192957705     
0010001300098U 020000000000000000000000000000000000000000000000000000000000000000000000000000000000000000000000000000000000000000000000002002201700000000            000000000000000                              000                           
0010001300099T 020180230000001544772 29577050423503520   7               22022017000000000007500001046280                         0900000000000010000000000000000000000000000000000000000   0000000000000000000000000A9        170192957705     
0010001300100U 020000000000000000000000000000000000000000000000000000000000000000000000000000000000000000000000000000000000000000000000002002201700000000            000000000000000                              000                           
0010001300101T 020180230000001544772 29577050423650756   7               22022017000000000007500001046280                         0900000000000010000000000000000000000000000000000000000   0000000000000000000000000A9        170192957705     
0010001300102U 020000000000000000000000000000000000000000000000000000000000000000000000000000000000000000000000000000000000000000000000002002201700000000            000000000000000                              000                           
0010001300103T 020180230000001544772 29577050424201966   7               22022017000000000007500001012416                         0900000000000010000000000000000000000000000000000000000   0000000000000000000000000A9        170192957705     
0010001300104U 020000000000000000000000000000000000000000000000000000000000000000000000000000000000000000000000000000000000000000000000002002201700000000            000000000000000                              000                           
0010001300105T 020180230000001544772 29577050425549766   7               20022017000000000007500001000833                         0900000000000010000000000000000000000000000000000000000   0000000000000000000000000A9        170192957705     
0010001300106U 020000000000000000000000000000000000000000000000000000000000000000000000000000000000000000000000000000000000000000000000001802201700000000            000000000000000                              000                           
0010001300107T 020180230000001544772 29577050428725718   7               21022017000000000007500001000833                         0900000000000010500000000000000000000000000000000000000   0000000000000000000000000A9A4      170192957705     
0010001300108U 020000000000000000000000000000000000000000000000000000000000000000000000000000000000000000000000000000000000000000000000001902201700000000            000000000000000                              000                           
0010001300109T 020180230000001544772 29577050428927465   7               22022017000000000007500001012408                         0900000000000010000000000000000000000000000000000000000   0000000000000000000000000A9        170192957705     
0010001300110U 020000000000000000000000000000000000000000000000000000000000000000000000000000000000000000000000000000000000000000000000002002201700000000            000000000000000                              000                           
0010001300111T 020180230000001544772 29577050432813996   7               22022017000000000007500001000213                         0900000000000010000000000000000000000000000000000000000   0000000000000000000000000A9        170192957705     
0010001300112U 020000000000000000000000000000000000000000000000000000000000000000000000000000000000000000000000000000000000000000000000002002201700000000            000000000000000                              000                           
0010001300113T 020180230000001544772 29577050432824512   7               22022017000000000007500001000213                         0900000000000010000000000000000000000000000000000000000   0000000000000000000000000A9        170192957705     
0010001300114U 020000000000000000000000000000000000000000000000000000000000000000000000000000000000000000000000000000000000000000000000002002201700000000            000000000000000                              000                           
0010001300115T 020180230000001544772 29577050432854546   7               22022017000000000007500001000213                         0900000000000010000000000000000000000000000000000000000   0000000000000000000000000A9        170192957705     
0010001300116U 020000000000000000000000000000000000000000000000000000000000000000000000000000000000000000000000000000000000000000000000002002201700000000            000000000000000                              000                           
0010001300117T 020180230000001544772 29577050440444571   7               22022017000000000007500001030864                         0900000000000010000000000000000000000000000000000000000   0000000000000000000000000A9        170192957705     
0010001300118U 020000000000000000000000000000000000000000000000000000000000000000000000000000000000000000000000000000000000000000000000002002201700000000            000000000000000                              000                           
0010001300119T 020180230000001544772 29577050457941098   7               22022017000000000007500001000213                         0900000000000010000000000000000000000000000000000000000   0000000000000000000000000A9        170192957705     
0010001300120U 020000000000000000000000000000000000000000000000000000000000000000000000000000000000000000000000000000000000000000000000002002201700000000            000000000000000                              000                           
0010001300121T 020180230000001544772 29577050458510149   7               20022017000000000010000001012211                         0900000000000010000000000000000000000000000000000000000   0000000000000000000000000A9        170192957705     
0010001300122U 020000000000000000000000000000000000000000000000000000000000000000000000000000000000000000000000000000000000000000000000001802201700000000            000000000000000                              000                           
0010001300123T 020180230000001544772 29577050459227393   7               22022017000000000007500001012416                         0900000000000010000000000000000000000000000000000000000   0000000000000000000000000A9        170192957705     
0010001300124U 020000000000000000000000000000000000000000000000000000000000000000000000000000000000000000000000000000000000000000000000002002201700000000            000000000000000                              000                           
0010001300125T 020180230000001544772 29577050467306069   7               21022017000000000007500001012408                         0900000000000010000000000000000000000000000000000000000   0000000000000000000000000A9        170192957705     
0010001300126U 020000000000000000000000000000000000000000000000000000000000000000000000000000000000000000000000000000000000000000000000001902201700000000            000000000000000                              000                           
0010001300127T 020180230000001544772 29577050469855113   7               21022017000000000007500001012408                         0900000000000010000000000000000000000000000000000000000   0000000000000000000000000A9        170192957705     
0010001300128U 020000000000000000000000000000000000000000000000000000000000000000000000000000000000000000000000000000000000000000000000001902201700000000            000000000000000                              000                           
0010001300129T 020180230000001544772 29577050490738274   7               2202201700000000000750000103049X                         0900000000000010000000000000000000000000000000000000000   0000000000000000000000000A9        170192957705     
0010001300130U 020000000000000000000000000000000000000000000000000000000000000000000000000000000000000000000000000000000000000000000000002002201700000000            000000000000000                              000                           
0010001300131T 020180230000001544772 29577050490741550   7               2202201700000000000750000103049X                         0900000000000010000000000000000000000000000000000000000   0000000000000000000000000A9        170192957705     
0010001300132U 020000000000000000000000000000000000000000000000000000000000000000000000000000000000000000000000000000000000000000000000002002201700000000            000000000000000                              000                           
0010001300133T 020180230000001544772 29577050490757461   7               2202201700000000000750000103049X                         0900000000000010000000000000000000000000000000000000000   0000000000000000000000000A9        170192957705     
0010001300134U 020000000000000000000000000000000000000000000000000000000000000000000000000000000000000000000000000000000000000000000000002002201700000000            000000000000000                              000                           
0010001300135T 020180230000001544772 29577050494610258   7               21022017000000000007500001012408                         0900000000000010000000000000000000000000000000000000000   0000000000000000000000000A9        170192957705     
0010001300136U 020000000000000000000000000000000000000000000000000000000000000000000000000000000000000000000000000000000000000000000000001902201700000000            000000000000000                              000                           
0010001300137T 020180230000001544772 29577050494645364   7               21022017000000000007500001012408                         0900000000000010000000000000000000000000000000000000000   0000000000000000000000000A9        170192957705     
0010001300138U 020000000000000000000000000000000000000000000000000000000000000000000000000000000000000000000000000000000000000000000000001902201700000000            000000000000000                              000                           
0010001300139T 020180230000001544772 29577050495934532   7               22022017000000000007500001000213                         0900000000000010000000000000000000000000000000000000000   0000000000000000000000000A9        170192957705     
0010001300140U 020000000000000000000000000000000000000000000000000000000000000000000000000000000000000000000000000000000000000000000000002002201700000000            000000000000000                              000                           
0010001300141T 020180230000001544772 29577050497212953   7               2202201700000000000750000103049X                         0900000000000010000000000000000000000000000000000000000   0000000000000000000000000A9        170192957705     
0010001300142U 020000000000000000000000000000000000000000000000000000000000000000000000000000000000000000000000000000000000000000000000002002201700000000            000000000000000                              000                           
0010001300143T 020180230000001544772 29577050497416812   7               20022017000000000007500001000213                         0900000000000010000000000000000000000000000000000000000   0000000000000000000000000A9        170192957705     
0010001300144U 020000000000000000000000000000000000000000000000000000000000000000000000000000000000000000000000000000000000000000000000001802201700000000            000000000000000                              000                           
0010001300145T 020180230000001544772 29577050501320045   7               21022017000000000007500001012408                         0900000000000010500000000000000000000000000000000000000   0000000000000000000000000A9A4      170192957705     
0010001300146U 020000000000000000000000000000000000000000000000000000000000000000000000000000000000000000000000000000000000000000000000001902201700000000            000000000000000                              000                           
0010001300147T 020180230000001544772 29577050509613341   7               21022017000000000010000001000213                         0900000000000010000000000000000000000000000000000000000   0000000000000000000000000A9        170192957705     
0010001300148U 020000000000000000000000000000000000000000000000000000000000000000000000000000000000000000000000000000000000000000000000001902201700000000            000000000000000                              000                           
0010001300149T 020180230000001544772 29577050510146666   7               21022017000000000007500001000213                         0900000000000010000000000000000000000000000000000000000   0000000000000000000000000A9        170192957705     
0010001300150U 020000000000000000000000000000000000000000000000000000000000000000000000000000000000000000000000000000000000000000000000001902201700000000            000000000000000                              000                           
0010001300151T 020180230000001544772 29577050510607785   7               22022017000000000007500001012408                         0900000000000010000000000000000000000000000000000000000   0000000000000000000000000A9        170192957705     
0010001300152U 020000000000000000000000000000000000000000000000000000000000000000000000000000000000000000000000000000000000000000000000002002201700000000            000000000000000                              000                           
0010001300153T 020180230000001544772 29577050510643945   7               20022017000000000007500001012408                         0900000000000010000000000000000000000000000000000000000   0000000000000000000000000A9        170192957705     
0010001300154U 020000000000000000000000000000000000000000000000000000000000000000000000000000000000000000000000000000000000000000000000001802201700000000            000000000000000                              000                           
0010001300155T 020180230000001544772 29577050515523561   7               22022017000000000007500001012416                         0900000000000010000000000000000000000000000000000000000   0000000000000000000000000A9        170192957705     
0010001300156U 020000000000000000000000000000000000000000000000000000000000000000000000000000000000000000000000000000000000000000000000002002201700000000            000000000000000                              000                           
0010001300157T 020180230000001544772 29577050517306222   7               22022017000000000007500001036900                         0900000000000010000000000000000000000000000000000000000   0000000000000000000000000A9        170192957705     
0010001300158U 020000000000000000000000000000000000000000000000000000000000000000000000000000000000000000000000000000000000000000000000002002201700000000            000000000000000                              000                           
0010001300159T 020180230000001544772 29577050529421359   7               22022017000000000007500001000833                         0900000000000010000000000000000000000000000000000000000   0000000000000000000000000A9        170192957705     
0010001300160U 020000000000000000000000000000000000000000000000000000000000000000000000000000000000000000000000000000000000000000000000002002201700000000            000000000000000                              000                           
0010001300161T 020180230000001544772 29577050534455737   7               22022017000000000007500001000213                         0900000000000010000000000000000000000000000000000000000   0000000000000000000000000A9        170192957705     
0010001300162U 020000000000000000000000000000000000000000000000000000000000000000000000000000000000000000000000000000000000000000000000002002201700000000            000000000000000                              000                           
0010001300163T 020180230000001544772 29577050546036599   7               22022017000000000010000001001880                         0900000000000010000000000000000000000000000000000000000   0000000000000000000000000A9        170192957705     
0010001300164U 020000000000000000000000000000000000000000000000000000000000000000000000000000000000000000000000000000000000000000000000002002201700000000            000000000000000                              000                           
0010001300165T 020180230000001544772 29577050587432936   7               22022017000000000007500001000213                         0900000000000010000000000000000000000000000000000000000   0000000000000000000000000A9        170192957705     
0010001300166U 020000000000000000000000000000000000000000000000000000000000000000000000000000000000000000000000000000000000000000000000002002201700000000            000000000000000                              000                           
0010001300167T 020180230000001544772 29577050588943841   7               20022017000000000007500001002097                         0900000000000010000000000000000000000000000000000000000   0000000000000000000000000A9        170192957705     
0010001300168U 020000000000000000000000000000000000000000000000000000000000000000000000000000000000000000000000000000000000000000000000001802201700000000            000000000000000                              000                           
0010001300169T 020180230000001544772 29577050612805447   7               21022017000000000007500001010561                         0900000000000010000000000000000000000000000000000000000   0000000000000000000000000A9        170192957705     
0010001300170U 020000000000000000000000000000000000000000000000000000000000000000000000000000000000000000000000000000000000000000000000001902201700000000            000000000000000                              000                           
0010001300171T 020180230000001544772 29577050662700186   7               22022017000000000007500001012408                         0900000000000010000000000000000000000000000000000000000   0000000000000000000000000A9        170192957705     
0010001300172U 020000000000000000000000000000000000000000000000000000000000000000000000000000000000000000000000000000000000000000000000002002201700000000            000000000000000                              000                           
0010001300173T 020180230000001544772 29577050662700759   7               20022017000000000007500001012408                         0900000000000010000000000000000000000000000000000000000   0000000000000000000000000A9        170192957705     
0010001300174U 020000000000000000000000000000000000000000000000000000000000000000000000000000000000000000000000000000000000000000000000001802201700000000            000000000000000                              000                           
0010001300175T 020180230000001544772 29577050662721629   7               22022017000000000007500001012408                         0900000000000010000000000000000000000000000000000000000   0000000000000000000000000A9        170192957705     
0010001300176U 020000000000000000000000000000000000000000000000000000000000000000000000000000000000000000000000000000000000000000000000002002201700000000            000000000000000                              000                           
0010001300177T 020180230000001544772 29577050662729203   7               22022017000000000007500001012408                         0900000000000010000000000000000000000000000000000000000   0000000000000000000000000A9        170192957705     
0010001300178U 020000000000000000000000000000000000000000000000000000000000000000000000000000000000000000000000000000000000000000000000002002201700000000            000000000000000                              000                           
0010001300179T 020180230000001544772 29577050662752843   7               22022017000000000007500001012408                         0900000000000010000000000000000000000000000000000000000   0000000000000000000000000A9        170192957705     
0010001300180U 020000000000000000000000000000000000000000000000000000000000000000000000000000000000000000000000000000000000000000000000002002201700000000            000000000000000                              000                           
0010001300181T 020180230000001544772 29577050663506815   7               20022017000000000007500001012408                         0900000000000010000000000000000000000000000000000000000   0000000000000000000000000A9        170192957705     
0010001300182U 020000000000000000000000000000000000000000000000000000000000000000000000000000000000000000000000000000000000000000000000001802201700000000            000000000000000                              000                           
0010001300183T 020180230000001544772 29577050663511440   7               22022017000000000007500001012408                         0900000000000010000000000000000000000000000000000000000   0000000000000000000000000A9        170192957705     
0010001300184U 020000000000000000000000000000000000000000000000000000000000000000000000000000000000000000000000000000000000000000000000002002201700000000            000000000000000                              000                           
0010001300185T 020180230000001544772 29577050663512964   7               22022017000000000007500001012408                         0900000000000010000000000000000000000000000000000000000   0000000000000000000000000A9        170192957705     
0010001300186U 020000000000000000000000000000000000000000000000000000000000000000000000000000000000000000000000000000000000000000000000002002201700000000            000000000000000                              000                           
0010001300187T 020180230000001544772 29577050703400177   7               22022017000000000007500001000213                         0900000000000010000000000000000000000000000000000000000   0000000000000000000000000A9        170192957705     
0010001300188U 020000000000000000000000000000000000000000000000000000000000000000000000000000000000000000000000000000000000000000000000002002201700000000            000000000000000                              000                           
0010001300189T 020180230000001544772 29577050703403488   7               22022017000000000007500001000213                         0900000000000010000000000000000000000000000000000000000   0000000000000000000000000A9        170192957705     
0010001300190U 020000000000000000000000000000000000000000000000000000000000000000000000000000000000000000000000000000000000000000000000002002201700000000            000000000000000                              000                           
0010001300191T 020180230000001544772 29577050724537133   7               22022017000000000007500001000213                         0900000000000010000000000000000000000000000000000000000   0000000000000000000000000A9        170192957705     
0010001300192U 020000000000000000000000000000000000000000000000000000000000000000000000000000000000000000000000000000000000000000000000002002201700000000            000000000000000                              000                           
0010001300193T 020180230000001544772 29577050750626558   7               22022017000000000007500001000213                         0900000000000010000000000000000000000000000000000000000   0000000000000000000000000A9        170192957705     
0010001300194U 020000000000000000000000000000000000000000000000000000000000000000000000000000000000000000000000000000000000000000000000002002201700000000            000000000000000                              000                           
0010001300195T 020180230000001544772 29577050753100938   7               22022017000000000007500001012408                         0900000000000010000000000000000000000000000000000000000   0000000000000000000000000A9        170192957705     
0010001300196U 020000000000000000000000000000000000000000000000000000000000000000000000000000000000000000000000000000000000000000000000002002201700000000            000000000000000                              000                           
0010001300197T 020180230000001544772 29577050769002316   7               21022017000000000007500001012408                         0900000000000010000000000000000000000000000000000000000   0000000000000000000000000A9        170192957705     
0010001300198U 020000000000000000000000000000000000000000000000000000000000000000000000000000000000000000000000000000000000000000000000001902201700000000            000000000000000                              000                           
0010001300199T 020180230000001544772 29577050769006665   7               20022017000000000007500001012408                         0900000000000010000000000000000000000000000000000000000   0000000000000000000000000A9        170192957705     
0010001300200U 020000000000000000000000000000000000000000000000000000000000000000000000000000000000000000000000000000000000000000000000001802201700000000            000000000000000                              000                           
0010001300201T 020180230000001544772 29577050769028261   7               20022017000000000007500001012408                         0900000000000010000000000000000000000000000000000000000   0000000000000000000000000A9        170192957705     
0010001300202U 020000000000000000000000000000000000000000000000000000000000000000000000000000000000000000000000000000000000000000000000001802201700000000            000000000000000                              000                           
0010001300203T 020180230000001544772 29577050770024512   7               2002201700000000000750000103049X                         0900000000000010000000000000000000000000000000000000000   0000000000000000000000000A9        170192957705     
0010001300204U 020000000000000000000000000000000000000000000000000000000000000000000000000000000000000000000000000000000000000000000000001802201700000000            000000000000000                              000                           
0010001300205T 020180230000001544772 29577050771803199   7               20022017000000000007500001012408                         0900000000000010000000000000000000000000000000000000000   0000000000000000000000000A9        170192957705     
0010001300206U 020000000000000000000000000000000000000000000000000000000000000000000000000000000000000000000000000000000000000000000000001802201700000000            000000000000000                              000                           
0010001300207T 020180230000001544772 29577050772003480   7               20022017000000000007500001000213                         0900000000000010000000000000000000000000000000000000000   0000000000000000000000000A9        170192957705     
0010001300208U 020000000000000000000000000000000000000000000000000000000000000000000000000000000000000000000000000000000000000000000000001802201700000000            000000000000000                              000                           
0010001300209T 020180230000001544772 29577050772052549   7               20022017000000000007500001000213                         0900000000000010000000000000000000000000000000000000000   0000000000000000000000000A9        170192957705     
0010001300210U 020000000000000000000000000000000000000000000000000000000000000000000000000000000000000000000000000000000000000000000000001802201700000000            000000000000000                              000                           
0010001300211T 020180230000001544772 29577050773057134   7               20022017000000000007500001001120                         0900000000000010000000000000000000000000000000000000000   0000000000000000000000000A9        170192957705     
0010001300212U 020000000000000000000000000000000000000000000000000000000000000000000000000000000000000000000000000000000000000000000000001802201700000000            000000000000000                              000                           
0010001300213T 020180230000001544772 29577050775214890   7               2002201700000000000750000103049X                         0900000000000010000000000000000000000000000000000000000   0000000000000000000000000A9        170192957705     
0010001300214U 020000000000000000000000000000000000000000000000000000000000000000000000000000000000000000000000000000000000000000000000001802201700000000            000000000000000                              000                           
0010001300215T 020180230000001544772 29577050775537561   7               20022017000000000007500001012408                         0900000000000010000000000000000000000000000000000000000   0000000000000000000000000A9        170192957705     
0010001300216U 020000000000000000000000000000000000000000000000000000000000000000000000000000000000000000000000000000000000000000000000001802201700000000            000000000000000                              000                           
0010001300217T 020180230000001544772 29577050776517863   7               22022017000000000007500001013595                         0900000000000010000000000000000000000000000000000000000   0000000000000000000000000A9        170192957705     
0010001300218U 020000000000000000000000000000000000000000000000000000000000000000000000000000000000000000000000000000000000000000000000002002201700000000            000000000000000                              000                           
0010001300219T 020180230000001544772 29577050777125121   7               20022017000000000007500001000213                         0900000000000010000000000000000000000000000000000000000   0000000000000000000000000A9        170192957705     
0010001300220U 020000000000000000000000000000000000000000000000000000000000000000000000000000000000000000000000000000000000000000000000001802201700000000            000000000000000                              000                           
0010001300221T 020180230000001544772 29577050777126664   7               20022017000000000007500001000213                         0900000000000010000000000000000000000000000000000000000   0000000000000000000000000A9        170192957705     
0010001300222U 020000000000000000000000000000000000000000000000000000000000000000000000000000000000000000000000000000000000000000000000001802201700000000            000000000000000                              000                           
0010001300223T 020180230000001544772 29577050777733293   7               2002201700000000000750000101981X                         0900000000000010000000000000000000000000000000000000000   0000000000000000000000000A9        170192957705     
0010001300224U 020000000000000000000000000000000000000000000000000000000000000000000000000000000000000000000000000000000000000000000000001802201700000000            000000000000000                              000                           
0010001300225T 020180230000001544772 29577050778124802   7               20022017000000000007500001000213                         0900000000000010000000000000000000000000000000000000000   0000000000000000000000000A9        170192957705     
0010001300226U 020000000000000000000000000000000000000000000000000000000000000000000000000000000000000000000000000000000000000000000000001802201700000000            000000000000000                              000                           
0010001300227T 020180230000001544772 29577050778222689   7               20022017000000000007500001000833                         0900000000000010000000000000000000000000000000000000000   0000000000000000000000000A9        170192957705     
0010001300228U 020000000000000000000000000000000000000000000000000000000000000000000000000000000000000000000000000000000000000000000000001802201700000000            000000000000000                              000                           
0010001300229T 020180230000001544772 29577050780503386   7               20022017000000000007500001046744                         0900000000000010000000000000000000000000000000000000000   0000000000000000000000000A9        170192957705     
0010001300230U 020000000000000000000000000000000000000000000000000000000000000000000000000000000000000000000000000000000000000000000000001802201700000000            000000000000000                              000                           
0010001300231T 020180230000001544772 29577050780519307   7               20022017000000000007500001046744                         0900000000000010000000000000000000000000000000000000000   0000000000000000000000000A9        170192957705     
0010001300232U 020000000000000000000000000000000000000000000000000000000000000000000000000000000000000000000000000000000000000000000000001802201700000000            000000000000000                              000                           
0010001300233T 020180230000001544772 29577050780537048   7               20022017000000000007500001046744                         0900000000000010000000000000000000000000000000000000000   0000000000000000000000000A9        170192957705     
0010001300234U 020000000000000000000000000000000000000000000000000000000000000000000000000000000000000000000000000000000000000000000000001802201700000000            000000000000000                              000                           
0010001300235T 020180230000001544772 29577050782516914   7               21022017000000000010000001028029                         0900000000000010000000000000000000000000000000000000000   0000000000000000000000000A9        170192957705     
0010001300236U 020000000000000000000000000000000000000000000000000000000000000000000000000000000000000000000000000000000000000000000000001902201700000000            000000000000000                              000                           
0010001300237T 020180230000001544772 29577050782532929   7               21022017000000000010000001028029                         0900000000000010000000000000000000000000000000000000000   0000000000000000000000000A9        170192957705     
0010001300238U 020000000000000000000000000000000000000000000000000000000000000000000000000000000000000000000000000000000000000000000000001902201700000000            000000000000000                              000                           
0010001300239T 020180230000001544772 29577050782559102   7               21022017000000000010000001028029                         0900000000000010000000000000000000000000000000000000000   0000000000000000000000000A9        170192957705     
0010001300240U 020000000000000000000000000000000000000000000000000000000000000000000000000000000000000000000000000000000000000000000000001902201700000000            000000000000000                              000                           
0010001300241T 020180230000001544772 29577050784604884   7               22022017000000000010000001049905                         0900000000000010000000000000000000000000000000000000000   0000000000000000000000000A9        170192957705     
0010001300242U 020000000000000000000000000000000000000000000000000000000000000000000000000000000000000000000000000000000000000000000000002002201700000000            000000000000000                              000                           
0010001300243T 020180230000001544772 29577050784611637   7               21022017000000000010000001049905                         0900000000000010000000000000000000000000000000000000000   0000000000000000000000000A9        170192957705     
0010001300244U 020000000000000000000000000000000000000000000000000000000000000000000000000000000000000000000000000000000000000000000000001902201700000000            000000000000000                              000                           
0010001300245T 020180230000001544772 29577050786446067   7               21022017000000000007500001000213                         0900000000000010000000000000000000000000000000000000000   0000000000000000000000000A9        170192957705     
0010001300246U 020000000000000000000000000000000000000000000000000000000000000000000000000000000000000000000000000000000000000000000000001902201700000000            000000000000000                              000                           
0010001300247T 020180230000001544772 29577050787304038   7               2102201700000000000750000100166X                         0900000000000010000000000000000000000000000000000000000   0000000000000000000000000A9        170192957705     
0010001300248U 020000000000000000000000000000000000000000000000000000000000000000000000000000000000000000000000000000000000000000000000001902201700000000            000000000000000                              000                           
0010001300249T 020180230000001544772 29577050787358566   7               2202201700000000000750000100166X                         0900000000000010000000000000000000000000000000000000000   0000000000000000000000000A9        170192957705     
0010001300250U 020000000000000000000000000000000000000000000000000000000000000000000000000000000000000000000000000000000000000000000000002002201700000000            000000000000000                              000                           
0010001300251T 020180230000001544772 29577050787543129   7               21022017000000000007500001002224                         0900000000000010500000000000000000000000000000000000000   0000000000000000000000000A9A4      170192957705     
0010001300252U 020000000000000000000000000000000000000000000000000000000000000000000000000000000000000000000000000000000000000000000000001902201700000000            000000000000000                              000                           
0010001300253T 020180230000001544772 29577050788045650   7               21022017000000000007500001001554                         0900000000000010000000000000000000000000000000000000000   0000000000000000000000000A9        170192957705     
0010001300254U 020000000000000000000000000000000000000000000000000000000000000000000000000000000000000000000000000000000000000000000000001902201700000000            000000000000000                              000                           
0010001300255T 020180230000001544772 29577050788322582   7               21022017000000000007500001000213                         0900000000000010000000000000000000000000000000000000000   0000000000000000000000000A9        170192957705     
0010001300256U 020000000000000000000000000000000000000000000000000000000000000000000000000000000000000000000000000000000000000000000000001902201700000000            000000000000000                              000                           
0010001300257T 020180230000001544772 29577050790742961   7               2102201700000000000750000103049X                         0900000000000010000000000000000000000000000000000000000   0000000000000000000000000A9        170192957705     
0010001300258U 020000000000000000000000000000000000000000000000000000000000000000000000000000000000000000000000000000000000000000000000001902201700000000            000000000000000                              000                           
0010001300259T 020180230000001544772 29577050791152015   7               21022017000000000010000001000213                         0900000000000010000000000000000000000000000000000000000   0000000000000000000000000A9        170192957705     
0010001300260U 020000000000000000000000000000000000000000000000000000000000000000000000000000000000000000000000000000000000000000000000001902201700000000            000000000000000                              000                           
0010001300261T 020180230000001544772 29577050791156439   7               21022017000000000010000001000213                         0900000000000010000000000000000000000000000000000000000   0000000000000000000000000A9        170192957705     
0010001300262U 020000000000000000000000000000000000000000000000000000000000000000000000000000000000000000000000000000000000000000000000001902201700000000            000000000000000                              000                           
0010001300263T 020180230000001544772 29577050792954528   7               21022017000000000007500001012416                         0900000000000010000000000000000000000000000000000000000   0000000000000000000000000A9        170192957705     
0010001300264U 020000000000000000000000000000000000000000000000000000000000000000000000000000000000000000000000000000000000000000000000001902201700000000            000000000000000                              000                           
0010001300265T 020180230000001544772 29577050794113658   7               21022017000000000007500001000213                         0900000000000010500000000000000000000000000000000000000   0000000000000000000000000A9A4      170192957705     
0010001300266U 020000000000000000000000000000000000000000000000000000000000000000000000000000000000000000000000000000000000000000000000001902201700000000            000000000000000                              000                           
0010001300267T 020180230000001544772 29577050794720394   7               21022017000000000007500001012408                         0900000000000010500000000000000000000000000000000000000   0000000000000000000000000A9A4      170192957705     
0010001300268U 020000000000000000000000000000000000000000000000000000000000000000000000000000000000000000000000000000000000000000000000001902201700000000            000000000000000                              000                           
0010001300269T 020180230000001544772 29577050794815927   7               22022017000000000007500001012416                         0900000000000010000000000000000000000000000000000000000   0000000000000000000000000A9        170192957705     
0010001300270U 020000000000000000000000000000000000000000000000000000000000000000000000000000000000000000000000000000000000000000000000002002201700000000            000000000000000                              000                           
0010001300271T 020180230000001544772 29577050795107231   7               22022017000000000007500001025291                         0900000000000010000000000000000000000000000000000000000   0000000000000000000000000A9        170192957705     
0010001300272U 020000000000000000000000000000000000000000000000000000000000000000000000000000000000000000000000000000000000000000000000002002201700000000            000000000000000                              000                           
0010001300273T 020180230000001544772 29577050795752793   7               22022017000000000007500001000213                         0900000000000010000000000000000000000000000000000000000   0000000000000000000000000A9        170192957705     
0010001300274U 020000000000000000000000000000000000000000000000000000000000000000000000000000000000000000000000000000000000000000000000002002201700000000            000000000000000                              000                           
0010001300275T 020180230000001544772 29577050795820480   7               2202201700000000000750000103049X                         0900000000000010000000000000000000000000000000000000000   0000000000000000000000000A9        170192957705     
0010001300276U 020000000000000000000000000000000000000000000000000000000000000000000000000000000000000000000000000000000000000000000000002002201700000000            000000000000000                              000                           
0010001300277T 020180230000001544772 29577050796552491   7               2202201700000000000750000100829X                         0900000000000010000000000000000000000000000000000000000   0000000000000000000000000A9        170192957705     
0010001300278U 020000000000000000000000000000000000000000000000000000000000000000000000000000000000000000000000000000000000000000000000002002201700000000            000000000000000                              000                           
0010001300279T 020180230000001544772 29577050797158799   7               22022017000000000007500001012408                         0900000000000010500000000000000000000000000000000000000   0000000000000000000000000A9A4      170192957705     
0010001300280U 020000000000000000000000000000000000000000000000000000000000000000000000000000000000000000000000000000000000000000000000002002201700000000            000000000000000                              000                           
0010001300281T 020180230000001544772 29577050797354379   7               2202201700000000000750000103049X                         0900000000000010000000000000000000000000000000000000000   0000000000000000000000000A9        170192957705     
0010001300282U 020000000000000000000000000000000000000000000000000000000000000000000000000000000000000000000000000000000000000000000000002002201700000000            000000000000000                              000                           
0010001300283T 020180230000001544772 29577050797704188   7               22022017000000000007500001045586                         0900000000000010000000000000000000000000000000000000000   0000000000000000000000000A9        170192957705     
0010001300284U 020000000000000000000000000000000000000000000000000000000000000000000000000000000000000000000000000000000000000000000000002002201700000000            000000000000000                              000                           
0010001300285T 020180230000001544772 29577050799841352   7               22022017000000000007500001012610                         0900000000000010000000000000000000000000000000000000000   0000000000000000000000000A9        170192957705     
0010001300286U 020000000000000000000000000000000000000000000000000000000000000000000000000000000000000000000000000000000000000000000000002002201700000000            000000000000000                              000                           
0010001300287T 020180230000001544772 29577050799859461   7               22022017000000000007500001012610                         0900000000000010000000000000000000000000000000000000000   0000000000000000000000000A9        170192957705     
0010001300288U 020000000000000000000000000000000000000000000000000000000000000000000000000000000000000000000000000000000000000000000000002002201700000000            000000000000000                              000                           
0010001300289T 020180230000001544772 29577050800206946   7               2202201700000000000750000103049X                         0900000000000010000000000000000000000000000000000000000   0000000000000000000000000A9        170192957705     
0010001300290U 020000000000000000000000000000000000000000000000000000000000000000000000000000000000000000000000000000000000000000000000002002201700000000            000000000000000                              000                           
0010001300291T 020180230000001544772 29577050800609314   7               2202201700000000000750000103049X                         0900000000000010000000000000000000000000000000000000000   0000000000000000000000000A9        170192957705     
0010001300292U 020000000000000000000000000000000000000000000000000000000000000000000000000000000000000000000000000000000000000000000000002002201700000000            000000000000000                              000                           
0010001300293T 020180230000001544772 29577050801053594   7               22022017000000000007500001000213                         0900000000000010000000000000000000000000000000000000000   0000000000000000000000000A9        170192957705     
0010001300294U 020000000000000000000000000000000000000000000000000000000000000000000000000000000000000000000000000000000000000000000000002002201700000000            000000000000000                              000                           
0010001300295T 020180230000001544772 29577050801505569   7               22022017000000000010000001000213                         0900000000000010000000000000000000000000000000000000000   0000000000000000000000000A9        170192957705     
0010001300296U 020000000000000000000000000000000000000000000000000000000000000000000000000000000000000000000000000000000000000000000000002002201700000000            000000000000000                              000                           
0010001300297T 020180230000001544772 29577050801641552   7               22022017000000000007500001000213                         0900000000000010000000000000000000000000000000000000000   0000000000000000000000000A9        170192957705     
0010001300298U 020000000000000000000000000000000000000000000000000000000000000000000000000000000000000000000000000000000000000000000000002002201700000000            000000000000000                              000                           
0010001300299T 020180230000001544772 29577050803021805   7               2202201700000000000750000100460X                         0900000000000010000000000000000000000000000000000000000   0000000000000000000000000A9        170192957705     
0010001300300U 020000000000000000000000000000000000000000000000000000000000000000000000000000000000000000000000000000000000000000000000002002201700000000            000000000000000                              000                           
0010001300301T 020180230000001544772 29577050803154226   7               22022017000000000007500001012408                         0900000000000010000000000000000000000000000000000000000   0000000000000000000000000A9        170192957705     
0010001300302U 020000000000000000000000000000000000000000000000000000000000000000000000000000000000000000000000000000000000000000000000002002201700000000            000000000000000                              000                           
0010001300303T 020180230000001544772 29577050803444547   7               22022017000000000007500001000833                         0900000000000010000000000000000000000000000000000000000   0000000000000000000000000A9        170192957705     
0010001300304U 020000000000000000000000000000000000000000000000000000000000000000000000000000000000000000000000000000000000000000000000002002201700000000            000000000000000                              000                           
0010001300305T 020180230000001544772 29577050803504686   7               22022017000000000007500001012416                         0900000000000010000000000000000000000000000000000000000   0000000000000000000000000A9        170192957705     
0010001300306U 020000000000000000000000000000000000000000000000000000000000000000000000000000000000000000000000000000000000000000000000002002201700000000            000000000000000                              000                           
0010001300307T 020180230000001544772 29577050803932170   7               22022017000000000007500001012408                         0900000000000010000000000000000000000000000000000000000   0000000000000000000000000A9        170192957705     
0010001300308U 020000000000000000000000000000000000000000000000000000000000000000000000000000000000000000000000000000000000000000000000002002201700000000            000000000000000                              000                           
0010001300309T 020180230000001544772 29577050804555475   7               22022017000000000007500001004782                         0900000000000010000000000000000000000000000000000000000   0000000000000000000000000A9        170192957705     
0010001300310U 020000000000000000000000000000000000000000000000000000000000000000000000000000000000000000000000000000000000000000000000002002201700000000            000000000000000                              000                           
0010001300311T 020180230000001544772 29577050808053165   7               22022017000000000007500001018376                         0900000000000010000000000000000000000000000000000000000   0000000000000000000000000A9        170192957705     
0010001300312U 020000000000000000000000000000000000000000000000000000000000000000000000000000000000000000000000000000000000000000000000002002201700000000            000000000000000                              000                           
0010001300313T 020180230000001544772 29577050809153009   7               22022017000000000007500001012408                         0900000000000010000000000000000000000000000000000000000   0000000000000000000000000A9        170192957705     
0010001300314U 020000000000000000000000000000000000000000000000000000000000000000000000000000000000000000000000000000000000000000000000002002201700000000            000000000000000                              000                           
0010001300315T 020180230000001544772 29577050811849738   7               2202201700000000000750000103049X                         0900000000000010000000000000000000000000000000000000000   0000000000000000000000000A9        170192957705     
0010001300316U 020000000000000000000000000000000000000000000000000000000000000000000000000000000000000000000000000000000000000000000000002002201700000000            000000000000000                              000                           
0010001300317T 020180230000001544772 29577050813334119   7               22022017000000000007500001002704                         0900000000000010000000000000000000000000000000000000000   0000000000000000000000000A9        170192957705     
0010001300318U 020000000000000000000000000000000000000000000000000000000000000000000000000000000000000000000000000000000000000000000000002002201700000000            000000000000000                              000                           
0010001300319T 020180230000001544772 29577050814641442   7               22022017000000000007500001002704                         0900000000000010000000000000000000000000000000000000000   0000000000000000000000000A9        170192957705     
0010001300320U 020000000000000000000000000000000000000000000000000000000000000000000000000000000000000000000000000000000000000000000000002002201700000000            000000000000000                              000                           
0010001300321T 020180230000001544772 29577050815216097   7               22022017000000000007500001002704                         0900000000000010000000000000000000000000000000000000000   0000000000000000000000000A9        170192957705     
0010001300322U 020000000000000000000000000000000000000000000000000000000000000000000000000000000000000000000000000000000000000000000000002002201700000000            000000000000000                              000                           
0010001300323T 020180230000001544772 29577050815710284   7               22022017000000000007500001000213                         0900000000000010000000000000000000000000000000000000000   0000000000000000000000000A9        170192957705     
0010001300324U 020000000000000000000000000000000000000000000000000000000000000000000000000000000000000000000000000000000000000000000000002002201700000000            000000000000000                              000                           
0010001300325T 020180230000001544772 29577050816105094   7               22022017000000000007500001001120                         0900000000000010000000000000000000000000000000000000000   0000000000000000000000000A9        170192957705     
0010001300326U 020000000000000000000000000000000000000000000000000000000000000000000000000000000000000000000000000000000000000000000000002002201700000000            000000000000000                              000                           
0010001300327T 020180230000001544772 29577050816129486   7               22022017000000000007500001001120                         0900000000000010000000000000000000000000000000000000000   0000000000000000000000000A9        170192957705     
0010001300328U 020000000000000000000000000000000000000000000000000000000000000000000000000000000000000000000000000000000000000000000000002002201700000000            000000000000000                              000                           
0010001300329T 020180230000001544772 29577050816133692   7               22022017000000000007500001001120                         0900000000000010000000000000000000000000000000000000000   0000000000000000000000000A9        170192957705     
0010001300330U 020000000000000000000000000000000000000000000000000000000000000000000000000000000000000000000000000000000000000000000000002002201700000000            000000000000000                              000                           
0010001300331T 020180230000001544772 29577050816158102   7               22022017000000000007500001001120                         0900000000000010000000000000000000000000000000000000000   0000000000000000000000000A9        170192957705     
0010001300332U 020000000000000000000000000000000000000000000000000000000000000000000000000000000000000000000000000000000000000000000000002002201700000000            000000000000000                              000                           
0010001300333T 020180230000001544772 29577050816708454   7               22022017000000000007500001000213                         0900000000000010000000000000000000000000000000000000000   0000000000000000000000000A9        170192957705     
0010001300334U 020000000000000000000000000000000000000000000000000000000000000000000000000000000000000000000000000000000000000000000000002002201700000000            000000000000000                              000                           
0010001300335T 020180230000001544772 29577050819016259   7               22022017000000000007500001000213                         0900000000000010000000000000000000000000000000000000000   0000000000000000000000000A9        170192957705     
0010001300336U 020000000000000000000000000000000000000000000000000000000000000000000000000000000000000000000000000000000000000000000000002002201700000000            000000000000000                              000                           
0010001300337T 020180230000001544772 29577050819017651   7               22022017000000000007500001000213                         0900000000000010000000000000000000000000000000000000000   0000000000000000000000000A9        170192957705     
0010001300338U 020000000000000000000000000000000000000000000000000000000000000000000000000000000000000000000000000000000000000000000000002002201700000000            000000000000000                              000                           
0010001300339T 020180230000001544772 29577050819057043   7               22022017000000000007500001000213                         0900000000000010000000000000000000000000000000000000000   0000000000000000000000000A9        170192957705     
0010001300340U 020000000000000000000000000000000000000000000000000000000000000000000000000000000000000000000000000000000000000000000000002002201700000000            000000000000000                              000                           
0010001300341T 020180230000001544772 29577050819400407   7               2202201700000000000750000103049X                         0900000000000010000000000000000000000000000000000000000   0000000000000000000000000A9        170192957705     
0010001300342U 020000000000000000000000000000000000000000000000000000000000000000000000000000000000000000000000000000000000000000000000002002201700000000            000000000000000                              000                           
0010001300343T 020180230000001544772 29577050819857880   7               22022017000000000007500001000213                         0900000000000010000000000000000000000000000000000000000   0000000000000000000000000A9        170192957705     
0010001300344U 020000000000000000000000000000000000000000000000000000000000000000000000000000000000000000000000000000000000000000000000002002201700000000            000000000000000                              000                           
0010001300345T 020180230000001544772 29577050820358831   7               22022017000000000010000001000213                         0900000000000010000000000000000000000000000000000000000   0000000000000000000000000A9        170192957705     
0010001300346U 020000000000000000000000000000000000000000000000000000000000000000000000000000000000000000000000000000000000000000000000002002201700000000            000000000000000                              000                           
0010001300347T 020180230000001544772 29577050821415444   7               22022017000000000007500001000213                         0900000000000010000000000000000000000000000000000000000   0000000000000000000000000A9        170192957705     
0010001300348U 020000000000000000000000000000000000000000000000000000000000000000000000000000000000000000000000000000000000000000000000002002201700000000            000000000000000                              000                           
0010001300349T 020180230000001544772 29577050822410059   7               22022017000000000007500001000213                         0900000000000010000000000000000000000000000000000000000   0000000000000000000000000A9        170192957705     
0010001300350U 020000000000000000000000000000000000000000000000000000000000000000000000000000000000000000000000000000000000000000000000002002201700000000            000000000000000                              000                           
0010001300351T 020180230000001544772 29577050824333129   7               22022017000000000007500001012408                         0900000000000010000000000000000000000000000000000000000   0000000000000000000000000A9        170192957705     
0010001300352U 020000000000000000000000000000000000000000000000000000000000000000000000000000000000000000000000000000000000000000000000002002201700000000            000000000000000                              000                           
0010001300353T 020180230000001544772 29577050826523707   7               22022017000000000007500001012408                         0900000000000010000000000000000000000000000000000000000   0000000000000000000000000A9        170192957705     
0010001300354U 020000000000000000000000000000000000000000000000000000000000000000000000000000000000000000000000000000000000000000000000002002201700000000            000000000000000                              000                           
0010001300355T 020180230000001544772 29577050828952442   7               22022017000000000007500001000213                         0900000000000010000000000000000000000000000000000000000   0000000000000000000000000A9        170192957705     
0010001300356U 020000000000000000000000000000000000000000000000000000000000000000000000000000000000000000000000000000000000000000000000002002201700000000            000000000000000                              000                           
0010001300357T 020180230000001544772 29577050829255422   7               22022017000000000007500001012416                         0900000000000010000000000000000000000000000000000000000   0000000000000000000000000A9        170192957705     
0010001300358U 020000000000000000000000000000000000000000000000000000000000000000000000000000000000000000000000000000000000000000000000002002201700000000            000000000000000                              000                           
0010001300359T 020180230000001544772 29577050829513574   7               22022017000000000007500001000213                         0900000000000010000000000000000000000000000000000000000   0000000000000000000000000A9        170192957705     
0010001300360U 020000000000000000000000000000000000000000000000000000000000000000000000000000000000000000000000000000000000000000000000002002201700000000            000000000000000                              000                           
0010001300361T 020180230000001544772 29577050831725003   7               22022017000000000007500001000132                         0900000000000010000000000000000000000000000000000000000   0000000000000000000000000A9        170192957705     
0010001300362U 020000000000000000000000000000000000000000000000000000000000000000000000000000000000000000000000000000000000000000000000002002201700000000            000000000000000                              000                           
0010001300363T 020180230000001544772 29577050832322642   7               2202201700000000000750000103049X                         0900000000000010000000000000000000000000000000000000000   0000000000000000000000000A9        170192957705     
0010001300364U 020000000000000000000000000000000000000000000000000000000000000000000000000000000000000000000000000000000000000000000000002002201700000000            000000000000000                              000                           
0010001300365T 020180230000001544772 29577050832815376   7               22022017000000000010000001004782                         0900000000000010000000000000000000000000000000000000000   0000000000000000000000000A9        170192957705     
0010001300366U 020000000000000000000000000000000000000000000000000000000000000000000000000000000000000000000000000000000000000000000000002002201700000000            000000000000000                              000                           
0010001300367T 060180230000001544772 29577050274616768   7               22022017000000000007500021005520                         0900000000000010000000000000000000000000000000000000000   000000000000000000000029000        170192957705     
0010001300368U 060000000000000000000000000000000000000000000000000000000000000000000000075000000000000072100000000000000000000000000000002002201721022017            000000000000000                              000                           
0010001300369T 060180230000001544772 29577050409925639   7               18022017000000000007500021001070                         0900000000000010000000000000000000000000000000000000000   000000000000000000000029000        170192957705     
0010001300370U 060000000000000000000000000000000000000000000000000000000000000000000000075000000000000072100000000000000000000000000000002002201721022017            000000000000000                              000                           
0010001300371T 060180230000001544772 29577050543503144   7               19022017000000000007500001038776                         0900000000000010000000000000000000000000000000000000000   000000000000000000000029000        170192957705     
0010001300372U 060000000000000000000000000000000000000000000000000000000000000000000000075000000000000072100000000000000000000000000000002002201721022017            000000000000000                              000                           
0010001300373T 060180230000001544772 29577050588943841   7               20022017000000000007500021001580                         0900000000000010000000000000000000000000000000000000000   000000000000000000000029000        170192957705     
0010001300374U 060000000000000000000000000000000000000000000000000000000000000000000000075000000000000072100000000000000000000000000000002002201721022017            000000000000000                              000                           
0010001300375T 060180230000001544772 29577050697641459   7               18022017000000000007500104016430                         0900000000000010000000000000000000000000000000000000000   000000000000000000000029000        170192957705     
0010001300376U 060000000000000000000000000000000000000000000000000000000000000000000000075000000000000072100000000000000000000000000000002002201721022017            000000000000000                              000                           
0010001300377T 060180230000001544772 29577050703403488   7               22022017000000000007500104030840                         0900000000000010000000000000000000000000000000000000000   000000000000000000000029000        170192957705     
0010001300378U 060000000000000000000000000000000000000000000000000000000000000000000000075000000000000072100000000000000000000000000000002002201721022017            000000000000000                              000                           
0010001300379T 060180230000001544772 29577050777733293   7               20022017000000000007500021001840                         0900000000000010000000000000000000000000000000000000000   000000000000000000000029000        170192957705     
0010001300380U 060000000000000000000000000000000000000000000000000000000000000000000000075000000000000072100000000000000000000000000000002002201721022017            000000000000000                              000                           
0010001300381T 060180230000001544772 29577050786446067   7               21022017000000000007500021002770                         0900000000000010000000000000000000000000000000000000000   000000000000000000000029000        170192957705     
0010001300382U 060000000000000000000000000000000000000000000000000000000000000000000000075000000000000072100000000000000000000000000000002002201721022017            000000000000000                              000                           
0010001300383T 060180230000001544772 29577050787358566   7               22022017000000000007500104001160                         0900000000000010000000000000000000000000000000000000000   000000000000000000000029000        170192957705     
0010001300384U 060000000000000000000000000000000000000000000000000000000000000000000000075000000000000072100000000000000000000000000000002002201721022017            000000000000000                              000                           
0010001300385T 060180230000001544772 29577050791156439   7               21022017000000000010000104006620                         0900000000000010000000000000000000000000000000000000000   000000000000000000000029000        170192957705     
0010001300386U 060000000000000000000000000000000000000000000000000000000000000000000000100000000000000097100000000000000000000000000000002002201721022017            000000000000000                              000                           
0010001300387T 060180230000001544772 29577050819017651   7               22022017000000000007500001018023                         0900000000000010000000000000000000000000000000000000000   000000000000000000000029000        170192957705     
0010001300388U 060000000000000000000000000000000000000000000000000000000000000000000000075000000000000072100000000000000000000000000000002002201721022017            000000000000000                              000                           
0010001300389T 280180230000001544772 29577050000624331   788888888888889919012017000000000007500001000000888888888888899          0900000000000000000000000000000000000000000000000000000   000000000000000000000005002        170192957705     
0010001300390U 280000000000000000000000000000000000000000000000000000000000000000000000000000000000000000000000000000000000000000000000002002201700000000            000000000000000                              000                           
0010001300391T 280180230000001544772 29577050000636001   788888888888889920012017000000000007500001000000888888888888899          0900000000000000000000000000000000000000000000000000000   000000000000000000000005002        170192957705     
0010001300392U 280000000000000000000000000000000000000000000000000000000000000000000000000000000000000000000000000000000000000000000000002002201700000000            000000000000000                              000                           
0010001300393T 280180230000001544772 29577050000655102   788888888888889920012017000000000007500001000000888888888888899          0900000000000000000000000000000000000000000000000000000   000000000000000000000005002        170192957705     
0010001300394U 280000000000000000000000000000000000000000000000000000000000000000000000000000000000000000000000000000000000000000000000002002201700000000            000000000000000                              000                           
0010001300395T 280180230000001544772 29577050006357952   788888888888889919012017000000000007500001000000888888888888899          0900000000000000000000000000000000000000000000000000000   000000000000000000000005002        170192957705     
0010001300396U 280000000000000000000000000000000000000000000000000000000000000000000000000000000000000000000000000000000000000000000000002002201700000000            000000000000000                              000                           
0010001300397T 280180230000001544772 29577050020141247   788888888888889919012017000000000007500001000000888888888888899          0900000000000000000000000000000000000000000000000000000   000000000000000000000005002        170192957705     
0010001300398U 280000000000000000000000000000000000000000000000000000000000000000000000000000000000000000000000000000000000000000000000002002201700000000            000000000000000                              000                           
0010001300399T 280180230000001544772 29577050020815518   788888888888889920012017000000000007500001000000888888888888899          0900000000000000000000000000000000000000000000000000000   000000000000000000000005002        170192957705     
0010001300400U 280000000000000000000000000000000000000000000000000000000000000000000000000000000000000000000000000000000000000000000000002002201700000000            000000000000000                              000                           
0010001300401T 280180230000001544772 29577050022014175   788888888888889920012017000000000007500001000000888888888888899          0900000000000000000000000000000000000000000000000000000   000000000000000000000005002        170192957705     
0010001300402U 280000000000000000000000000000000000000000000000000000000000000000000000000000000000000000000000000000000000000000000000002002201700000000            000000000000000                              000                           
0010001300403T 280180230000001544772 29577050024642425   788888888888889919012017000000000007500001000000888888888888899          0900000000000000000000000000000000000000000000000000000   000000000000000000000005002        170192957705     
0010001300404U 280000000000000000000000000000000000000000000000000000000000000000000000000000000000000000000000000000000000000000000000002002201700000000            000000000000000                              000                           
0010001300405T 280180230000001544772 29577050025640936   788888888888889919012017000000000007500001000000888888888888899          0900000000000000000000000000000000000000000000000000000   000000000000000000000005002        170192957705     
0010001300406U 280000000000000000000000000000000000000000000000000000000000000000000000000000000000000000000000000000000000000000000000002002201700000000            000000000000000                              000                           
0010001300407T 280180230000001544772 29577050028017554   788888888888889919012017000000000007500001000000888888888888899          0900000000000000000000000000000000000000000000000000000   000000000000000000000005002        170192957705     
0010001300408U 280000000000000000000000000000000000000000000000000000000000000000000000000000000000000000000000000000000000000000000000002002201700000000            000000000000000                              000                           
0010001300409T 280180230000001544772 29577050028053897   788888888888889919012017000000000007500001000000888888888888899          0900000000000000000000000000000000000000000000000000000   000000000000000000000005002        170192957705     
0010001300410U 280000000000000000000000000000000000000000000000000000000000000000000000000000000000000000000000000000000000000000000000002002201700000000            000000000000000                              000                           
0010001300411T 280180230000001544772 29577050028101010   788888888888889919012017000000000007500001000000888888888888899          0900000000000000000000000000000000000000000000000000000   000000000000000000000005002        170192957705     
0010001300412U 280000000000000000000000000000000000000000000000000000000000000000000000000000000000000000000000000000000000000000000000002002201700000000            000000000000000                              000                           
