00100000         2247745860001000029577050014       0180230000001544772 INSTITUTO DE SELECAO E TECNOLOBANCO DO BRASIL                         20103201702323500011203000000515122941PROCESSAMEN                                                 
00100011T0100020 20247745860001000029577050014       0180230000001544772 INSTITUTO DE SELECAO E TECNOLO                                                                                000000000103201700000000  000000000                      
0010001300001T 020180230000001544772 29577050010125423   7               01032017000000000007500001012408                         0900000000000010000000000000000000000000000000000000000   0000000000000000000000000A9        170192957705     
0010001300002U 020000000000000000000000000000000000000000000000000000000000000000000000000000000000000000000000000000000000000000000000002702201700000000            000000000000000                              000                           
0010001300003T 020180230000001544772 29577050010131623   7               27022017000000000007500001012408                         0900000000000010000000000000000000000000000000000000000   0000000000000000000000000A9        170192957705     
0010001300004U 020000000000000000000000000000000000000000000000000000000000000000000000000000000000000000000000000000000000000000000000002502201700000000            000000000000000                              000                           
0010001300005T 020180230000001544772 29577050010149718   7               01032017000000000007500001012408                         0900000000000010000000000000000000000000000000000000000   0000000000000000000000000A9        170192957705     
0010001300006U 020000000000000000000000000000000000000000000000000000000000000000000000000000000000000000000000000000000000000000000000002702201700000000            000000000000000                              000                           
0010001300007T 020180230000001544772 29577050105944859   7               03032017000000000007500001002224                         0900000000000010000000000000000000000000000000000000000   0000000000000000000000000A9        170192957705     
0010001300008U 020000000000000000000000000000000000000000000000000000000000000000000000000000000000000000000000000000000000000000000000000103201700000000            000000000000000                              000                           
0010001300009T 020180230000001544772 29577050112426624   7               0303201700000000000750000103049X                         0900000000000010500000000000000000000000000000000000000   0000000000000000000000000A9A4      170192957705     
0010001300010U 020000000000000000000000000000000000000000000000000000000000000000000000000000000000000000000000000000000000000000000000000103201700000000            000000000000000                              000                           
0010001300011T 020180230000001544772 29577050112547962   7               0303201700000000000750000103049X                         0900000000000010500000000000000000000000000000000000000   0000000000000000000000000A9A4      170192957705     
0010001300012U 020000000000000000000000000000000000000000000000000000000000000000000000000000000000000000000000000000000000000000000000000103201700000000            000000000000000                              000                           
0010001300013T 020180230000001544772 29577050112604629   7               0303201700000000000750000103049X                         0900000000000010500000000000000000000000000000000000000   0000000000000000000000000A9A4      170192957705     
0010001300014U 020000000000000000000000000000000000000000000000000000000000000000000000000000000000000000000000000000000000000000000000000103201700000000            000000000000000                              000                           
0010001300015T 020180230000001544772 29577050133636104   7               28022017000000000007500001000213                         0900000000000010000000000000000000000000000000000000000   0000000000000000000000000A9        170192957705     
0010001300016U 020000000000000000000000000000000000000000000000000000000000000000000000000000000000000000000000000000000000000000000000002602201700000000            000000000000000                              000                           
0010001300017T 020180230000001544772 29577050143809810   7               2802201700000000000750000103049X                         0900000000000010000000000000000000000000000000000000000   0000000000000000000000000A9        170192957705     
0010001300018U 020000000000000000000000000000000000000000000000000000000000000000000000000000000000000000000000000000000000000000000000002602201700000000            000000000000000                              000                           
0010001300019T 020180230000001544772 29577050170740691   7               02032017000000000007500001012408                         0900000000000010000000000000000000000000000000000000000   0000000000000000000000000A9        170192957705     
0010001300020U 020000000000000000000000000000000000000000000000000000000000000000000000000000000000000000000000000000000000000000000000002802201700000000            000000000000000                              000                           
0010001300021T 020180230000001544772 29577050183334349   7               02032017000000000007500001012416                         0900000000000010000000000000000000000000000000000000000   0000000000000000000000000A9        170192957705     
0010001300022U 020000000000000000000000000000000000000000000000000000000000000000000000000000000000000000000000000000000000000000000000002802201700000000            000000000000000                              000                           
0010001300023T 020180230000001544772 29577050208329743   7               02032017000000000007500001000213                         0900000000000010000000000000000000000000000000000000000   0000000000000000000000000A9        170192957705     
0010001300024U 020000000000000000000000000000000000000000000000000000000000000000000000000000000000000000000000000000000000000000000000002802201700000000            000000000000000                              000                           
0010001300025T 020180230000001544772 29577050209537219   7               01032017000000000007500001012408                         0900000000000010000000000000000000000000000000000000000   0000000000000000000000000A9        170192957705     
0010001300026U 020000000000000000000000000000000000000000000000000000000000000000000000000000000000000000000000000000000000000000000000002702201700000000            000000000000000                              000                           
0010001300027T 020180230000001544772 29577050232924465   7               03032017000000000010000001004782                         0900000000000010000000000000000000000000000000000000000   0000000000000000000000000A9        170192957705     
0010001300028U 020000000000000000000000000000000000000000000000000000000000000000000000000000000000000000000000000000000000000000000000000103201700000000            000000000000000                              000                           
0010001300029T 020180230000001544772 29577050290907610   7               0303201700000000000750000103049X                         0900000000000010000000000000000000000000000000000000000   0000000000000000000000000A9        170192957705     
0010001300030U 020000000000000000000000000000000000000000000000000000000000000000000000000000000000000000000000000000000000000000000000000103201700000000            000000000000000                              000                           
0010001300031T 020180230000001544772 29577050291846409   7               01032017000000000007500001000213                         0900000000000010000000000000000000000000000000000000000   0000000000000000000000000A9        170192957705     
0010001300032U 020000000000000000000000000000000000000000000000000000000000000000000000000000000000000000000000000000000000000000000000002702201700000000            000000000000000                              000                           
0010001300033T 020180230000001544772 29577050308448497   7               03032017000000000007500001012408                         0900000000000010000000000000000000000000000000000000000   0000000000000000000000000A9        170192957705     
0010001300034U 020000000000000000000000000000000000000000000000000000000000000000000000000000000000000000000000000000000000000000000000000103201700000000            000000000000000                              000                           
0010001300035T 020180230000001544772 29577050328506974   7               03032017000000000007500001012998                         0900000000000010000000000000000000000000000000000000000   0000000000000000000000000A9        170192957705     
0010001300036U 020000000000000000000000000000000000000000000000000000000000000000000000000000000000000000000000000000000000000000000000000103201700000000            000000000000000                              000                           
0010001300037T 020180230000001544772 29577050353515949   7               03032017000000000007500001002224                         0900000000000010000000000000000000000000000000000000000   0000000000000000000000000A9        170192957705     
0010001300038U 020000000000000000000000000000000000000000000000000000000000000000000000000000000000000000000000000000000000000000000000000103201700000000            000000000000000                              000                           
0010001300039T 020180230000001544772 29577050353713597   7               03032017000000000007500001002224                         0900000000000010000000000000000000000000000000000000000   0000000000000000000000000A9        170192957705     
0010001300040U 020000000000000000000000000000000000000000000000000000000000000000000000000000000000000000000000000000000000000000000000000103201700000000            000000000000000                              000                           
0010001300041T 020180230000001544772 29577050385557852   7               03032017000000000007500001032085                         0900000000000010000000000000000000000000000000000000000   0000000000000000000000000A9        170192957705     
0010001300042U 020000000000000000000000000000000000000000000000000000000000000000000000000000000000000000000000000000000000000000000000000103201700000000            000000000000000                              000                           
0010001300043T 020180230000001544772 29577050387600384   7               02032017000000000007500001012416                         0900000000000010000000000000000000000000000000000000000   0000000000000000000000000A9        170192957705     
0010001300044U 020000000000000000000000000000000000000000000000000000000000000000000000000000000000000000000000000000000000000000000000002802201700000000            000000000000000                              000                           
0010001300045T 020180230000001544772 29577050389614774   7               03032017000000000007500001000213                         0900000000000010000000000000000000000000000000000000000   0000000000000000000000000A9        170192957705     
0010001300046U 020000000000000000000000000000000000000000000000000000000000000000000000000000000000000000000000000000000000000000000000000103201700000000            000000000000000                              000                           
0010001300047T 020180230000001544772 29577050413352442   7               03032017000000000007500001000213                         0900000000000010000000000000000000000000000000000000000   0000000000000000000000000A9        170192957705     
0010001300048U 020000000000000000000000000000000000000000000000000000000000000000000000000000000000000000000000000000000000000000000000000103201700000000            000000000000000                              000                           
0010001300049T 020180230000001544772 29577050420443818   7               27022017000000000007500001000213                         0900000000000010000000000000000000000000000000000000000   0000000000000000000000000A9        170192957705     
0010001300050U 020000000000000000000000000000000000000000000000000000000000000000000000000000000000000000000000000000000000000000000000002502201700000000            000000000000000                              000                           
0010001300051T 020180230000001544772 29577050421706015   7               03032017000000000007500001012416                         0900000000000010000000000000000000000000000000000000000   0000000000000000000000000A9        170192957705     
0010001300052U 020000000000000000000000000000000000000000000000000000000000000000000000000000000000000000000000000000000000000000000000000103201700000000            000000000000000                              000                           
0010001300053T 020180230000001544772 29577050421756580   7               03032017000000000007500001012416                         0900000000000010000000000000000000000000000000000000000   0000000000000000000000000A9        170192957705     
0010001300054U 020000000000000000000000000000000000000000000000000000000000000000000000000000000000000000000000000000000000000000000000000103201700000000            000000000000000                              000                           
0010001300055T 020180230000001544772 29577050429202841   7               0303201700000000000750000103049X                         0900000000000010500000000000000000000000000000000000000   0000000000000000000000000A9A4      170192957705     
0010001300056U 020000000000000000000000000000000000000000000000000000000000000000000000000000000000000000000000000000000000000000000000000103201700000000            000000000000000                              000                           
0010001300057T 020180230000001544772 29577050429214071   7               0303201700000000000750000103049X                         0900000000000010500000000000000000000000000000000000000   0000000000000000000000000A9A4      170192957705     
0010001300058U 020000000000000000000000000000000000000000000000000000000000000000000000000000000000000000000000000000000000000000000000000103201700000000            000000000000000                              000                           
0010001300059T 020180230000001544772 29577050455111102   7               03032017000000000007500001004782                         0900000000000010000000000000000000000000000000000000000   0000000000000000000000000A9        170192957705     
0010001300060U 020000000000000000000000000000000000000000000000000000000000000000000000000000000000000000000000000000000000000000000000000103201700000000            000000000000000                              000                           
0010001300061T 020180230000001544772 29577050459404182   7               02032017000000000007500001012416                         0900000000000010000000000000000000000000000000000000000   0000000000000000000000000A9        170192957705     
0010001300062U 020000000000000000000000000000000000000000000000000000000000000000000000000000000000000000000000000000000000000000000000002802201700000000            000000000000000                              000                           
0010001300063T 020180230000001544772 29577050474520181   7               03032017000000000007500001000213                         0900000000000010000000000000000000000000000000000000000   0000000000000000000000000A9        170192957705     
0010001300064U 020000000000000000000000000000000000000000000000000000000000000000000000000000000000000000000000000000000000000000000000000103201700000000            000000000000000                              000                           
0010001300065T 020180230000001544772 29577050474558781   7               03032017000000000007500001000213                         0900000000000010000000000000000000000000000000000000000   0000000000000000000000000A9        170192957705     
0010001300066U 020000000000000000000000000000000000000000000000000000000000000000000000000000000000000000000000000000000000000000000000000103201700000000            000000000000000                              000                           
0010001300067T 020180230000001544772 29577050482918814   7               03032017000000000007500001012408                         0900000000000010000000000000000000000000000000000000000   0000000000000000000000000A9        170192957705     
0010001300068U 020000000000000000000000000000000000000000000000000000000000000000000000000000000000000000000000000000000000000000000000000103201700000000            000000000000000                              000                           
0010001300069T 020180230000001544772 29577050484519927   7               03032017000000000007500001012408                         0900000000000010000000000000000000000000000000000000000   0000000000000000000000000A9        170192957705     
0010001300070U 020000000000000000000000000000000000000000000000000000000000000000000000000000000000000000000000000000000000000000000000000103201700000000            000000000000000                              000                           
0010001300071T 020180230000001544772 29577050497248272   7               0203201700000000000750000103049X                         0900000000000010000000000000000000000000000000000000000   0000000000000000000000000A9        170192957705     
0010001300072U 020000000000000000000000000000000000000000000000000000000000000000000000000000000000000000000000000000000000000000000000002802201700000000            000000000000000                              000                           
0010001300073T 020180230000001544772 29577050501303178   7               03032017000000000007500001012408                         0900000000000010500000000000000000000000000000000000000   0000000000000000000000000A9A4      170192957705     
0010001300074U 020000000000000000000000000000000000000000000000000000000000000000000000000000000000000000000000000000000000000000000000000103201700000000            000000000000000                              000                           
0010001300075T 020180230000001544772 29577050501346623   7               03032017000000000007500001012408                         0900000000000010500000000000000000000000000000000000000   0000000000000000000000000A9A4      170192957705     
0010001300076U 020000000000000000000000000000000000000000000000000000000000000000000000000000000000000000000000000000000000000000000000000103201700000000            000000000000000                              000                           
0010001300077T 020180230000001544772 29577050501355124   7               03032017000000000007500001012408                         0900000000000010500000000000000000000000000000000000000   0000000000000000000000000A9A4      170192957705     
0010001300078U 020000000000000000000000000000000000000000000000000000000000000000000000000000000000000000000000000000000000000000000000000103201700000000            000000000000000                              000                           
0010001300079T 020180230000001544772 29577050510641737   7               01032017000000000007500001012408                         0900000000000010000000000000000000000000000000000000000   0000000000000000000000000A9        170192957705     
0010001300080U 020000000000000000000000000000000000000000000000000000000000000000000000000000000000000000000000000000000000000000000000002702201700000000            000000000000000                              000                           
0010001300081T 020180230000001544772 29577050516613129   7               0103201700000000000750000103049X                         0900000000000010000000000000000000000000000000000000000   0000000000000000000000000A9        170192957705     
0010001300082U 020000000000000000000000000000000000000000000000000000000000000000000000000000000000000000000000000000000000000000000000002702201700000000            000000000000000                              000                           
0010001300083T 020180230000001544772 29577050516647652   7               0103201700000000000750000103049X                         0900000000000010000000000000000000000000000000000000000   0000000000000000000000000A9        170192957705     
0010001300084U 020000000000000000000000000000000000000000000000000000000000000000000000000000000000000000000000000000000000000000000000002702201700000000            000000000000000                              000                           
0010001300085T 020180230000001544772 29577050591633253   7               0303201700000000000750000103049X                         0900000000000010000000000000000000000000000000000000000   0000000000000000000000000A9        170192957705     
0010001300086U 020000000000000000000000000000000000000000000000000000000000000000000000000000000000000000000000000000000000000000000000000103201700000000            000000000000000                              000                           
0010001300087T 020180230000001544772 29577050612838380   7               01032017000000000007500001010561                         0900000000000010000000000000000000000000000000000000000   0000000000000000000000000A9        170192957705     
0010001300088U 020000000000000000000000000000000000000000000000000000000000000000000000000000000000000000000000000000000000000000000000002702201700000000            000000000000000                              000                           
0010001300089T 020180230000001544772 29577050612849033   7               03032017000000000007500001010561                         0900000000000010000000000000000000000000000000000000000   0000000000000000000000000A9        170192957705     
0010001300090U 020000000000000000000000000000000000000000000000000000000000000000000000000000000000000000000000000000000000000000000000000103201700000000            000000000000000                              000                           
0010001300091T 020180230000001544772 29577050688257418   7               03032017000000000007500001012211                         0900000000000010000000000000000000000000000000000000000   0000000000000000000000000A9        170192957705     
0010001300092U 020000000000000000000000000000000000000000000000000000000000000000000000000000000000000000000000000000000000000000000000000103201700000000            000000000000000                              000                           
0010001300093T 020180230000001544772 29577050694618438   7               0103201700000000000750000103049X                         0900000000000010000000000000000000000000000000000000000   0000000000000000000000000A9        170192957705     
0010001300094U 020000000000000000000000000000000000000000000000000000000000000000000000000000000000000000000000000000000000000000000000002702201700000000            000000000000000                              000                           
0010001300095T 020180230000001544772 29577050694640555   7               0103201700000000000750000103049X                         0900000000000010000000000000000000000000000000000000000   0000000000000000000000000A9        170192957705     
0010001300096U 020000000000000000000000000000000000000000000000000000000000000000000000000000000000000000000000000000000000000000000000002702201700000000            000000000000000                              000                           
0010001300097T 020180230000001544772 29577050719932749   7               03032017000000000007500001009245                         0900000000000010000000000000000000000000000000000000000   0000000000000000000000000A9        170192957705     
0010001300098U 020000000000000000000000000000000000000000000000000000000000000000000000000000000000000000000000000000000000000000000000000103201700000000            000000000000000                              000                           
0010001300099T 020180230000001544772 29577050750612461   7               03032017000000000007500001000213                         0900000000000010000000000000000000000000000000000000000   0000000000000000000000000A9        170192957705     
0010001300100U 020000000000000000000000000000000000000000000000000000000000000000000000000000000000000000000000000000000000000000000000000103201700000000            000000000000000                              000                           
0010001300101T 020180230000001544772 29577050800627878   7               2702201700000000000750000103049X                         0900000000000010000000000000000000000000000000000000000   0000000000000000000000000A9        170192957705     
0010001300102U 020000000000000000000000000000000000000000000000000000000000000000000000000000000000000000000000000000000000000000000000002502201700000000            000000000000000                              000                           
0010001300103T 020180230000001544772 29577050826505461   7               02032017000000000007500001012408                         0900000000000010000000000000000000000000000000000000000   0000000000000000000000000A9        170192957705     
0010001300104U 020000000000000000000000000000000000000000000000000000000000000000000000000000000000000000000000000000000000000000000000002802201700000000            000000000000000                              000                           
0010001300105T 020180230000001544772 29577050826559880   7               28022017000000000007500001012408                         0900000000000010000000000000000000000000000000000000000   0000000000000000000000000A9        170192957705     
0010001300106U 020000000000000000000000000000000000000000000000000000000000000000000000000000000000000000000000000000000000000000000000002602201700000000            000000000000000                              000                           
0010001300107T 020180230000001544772 29577050856718481   7               0303201700000000000750000103049X                         0900000000000010000000000000000000000000000000000000000   0000000000000000000000000A9        170192957705     
0010001300108U 020000000000000000000000000000000000000000000000000000000000000000000000000000000000000000000000000000000000000000000000000103201700000000            000000000000000                              000                           
0010001300109T 020180230000001544772 29577050856733829   7               0303201700000000000750000103049X                         0900000000000010000000000000000000000000000000000000000   0000000000000000000000000A9        170192957705     
0010001300110U 020000000000000000000000000000000000000000000000000000000000000000000000000000000000000000000000000000000000000000000000000103201700000000            000000000000000                              000                           
0010001300111T 020180230000001544772 29577050885203706   7               0303201700000000000750000103049X                         0900000000000010000000000000000000000000000000000000000   0000000000000000000000000A9        170192957705     
0010001300112U 020000000000000000000000000000000000000000000000000000000000000000000000000000000000000000000000000000000000000000000000000103201700000000            000000000000000                              000                           
0010001300113T 020180230000001544772 29577050885230275   7               0303201700000000000750000103049X                         0900000000000010000000000000000000000000000000000000000   0000000000000000000000000A9        170192957705     
0010001300114U 020000000000000000000000000000000000000000000000000000000000000000000000000000000000000000000000000000000000000000000000000103201700000000            000000000000000                              000                           
0010001300115T 020180230000001544772 29577050886027340   7               0203201700000000000750000103049X                         0900000000000010000000000000000000000000000000000000000   0000000000000000000000000A9        170192957705     
0010001300116U 020000000000000000000000000000000000000000000000000000000000000000000000000000000000000000000000000000000000000000000000002802201700000000            000000000000000                              000                           
0010001300117T 020180230000001544772 29577050886052620   7               2702201700000000000750000103049X                         0900000000000010000000000000000000000000000000000000000   0000000000000000000000000A9        170192957705     
0010001300118U 020000000000000000000000000000000000000000000000000000000000000000000000000000000000000000000000000000000000000000000000002502201700000000            000000000000000                              000                           
0010001300119T 020180230000001544772 29577050886354825   7               2702201700000000000750000103049X                         0900000000000010000000000000000000000000000000000000000   0000000000000000000000000A9        170192957705     
0010001300120U 020000000000000000000000000000000000000000000000000000000000000000000000000000000000000000000000000000000000000000000000002502201700000000            000000000000000                              000                           
0010001300121T 020180230000001544772 29577050900732117   7               03032017000000000007500001000213                         0900000000000010000000000000000000000000000000000000000   0000000000000000000000000A9        170192957705     
0010001300122U 020000000000000000000000000000000000000000000000000000000000000000000000000000000000000000000000000000000000000000000000000103201700000000            000000000000000                              000                           
0010001300123T 020180230000001544772 29577050912344581   7               27022017000000000007500001046280                         0900000000000010000000000000000000000000000000000000000   0000000000000000000000000A9        170192957705     
0010001300124U 020000000000000000000000000000000000000000000000000000000000000000000000000000000000000000000000000000000000000000000000002502201700000000            000000000000000                              000                           
0010001300125T 020180230000001544772 29577050917102369   7               2602201700000000000750000103049X                         0900000000000010000000000000000000000000000000000000000   0000000000000000000000000A9        170192957705     
0010001300126U 020000000000000000000000000000000000000000000000000000000000000000000000000000000000000000000000000000000000000000000000002402201700000000            000000000000000                              000                           
0010001300127T 020180230000001544772 29577050920449715   7               27022017000000000007500001005185                         0900000000000010000000000000000000000000000000000000000   0000000000000000000000000A9        170192957705     
0010001300128U 020000000000000000000000000000000000000000000000000000000000000000000000000000000000000000000000000000000000000000000000002502201700000000            000000000000000                              000                           
0010001300129T 020180230000001544772 29577050921406514   7               27022017000000000007500001012890                         0900000000000010000000000000000000000000000000000000000   0000000000000000000000000A9        170192957705     
0010001300130U 020000000000000000000000000000000000000000000000000000000000000000000000000000000000000000000000000000000000000000000000002502201700000000            000000000000000                              000                           
0010001300131T 020180230000001544772 29577050921753136   7               27022017000000000007500001009245                         0900000000000010000000000000000000000000000000000000000   0000000000000000000000000A9        170192957705     
0010001300132U 020000000000000000000000000000000000000000000000000000000000000000000000000000000000000000000000000000000000000000000000002502201700000000            000000000000000                              000                           
0010001300133T 020180230000001544772 29577050922948192   7               27022017000000000007500001009245                         0900000000000010000000000000000000000000000000000000000   0000000000000000000000000A9        170192957705     
0010001300134U 020000000000000000000000000000000000000000000000000000000000000000000000000000000000000000000000000000000000000000000000002502201700000000            000000000000000                              000                           
0010001300135T 020180230000001544772 29577050923038956   7               27022017000000000007500001004782                         0900000000000010000000000000000000000000000000000000000   0000000000000000000000000A9        170192957705     
0010001300136U 020000000000000000000000000000000000000000000000000000000000000000000000000000000000000000000000000000000000000000000000002502201700000000            000000000000000                              000                           
0010001300137T 020180230000001544772 29577050923615036   7               27022017000000000007500001008516                         0900000000000010000000000000000000000000000000000000000   0000000000000000000000000A9        170192957705     
0010001300138U 020000000000000000000000000000000000000000000000000000000000000000000000000000000000000000000000000000000000000000000000002502201700000000            000000000000000                              000                           
0010001300139T 020180230000001544772 29577050924307892   7               03032017000000000007500001012416                         0900000000000010000000000000000000000000000000000000000   0000000000000000000000000A9        170192957705     
0010001300140U 020000000000000000000000000000000000000000000000000000000000000000000000000000000000000000000000000000000000000000000000000103201700000000            000000000000000                              000                           
0010001300141T 020180230000001544772 29577050924321218   7               27022017000000000007500001012416                         0900000000000010000000000000000000000000000000000000000   0000000000000000000000000A9        170192957705     
0010001300142U 020000000000000000000000000000000000000000000000000000000000000000000000000000000000000000000000000000000000000000000000002502201700000000            000000000000000                              000                           
0010001300143T 020180230000001544772 29577050925844704   7               03032017000000000007500001012408                         0900000000000010000000000000000000000000000000000000000   0000000000000000000000000A9        170192957705     
0010001300144U 020000000000000000000000000000000000000000000000000000000000000000000000000000000000000000000000000000000000000000000000000103201700000000            000000000000000                              000                           
0010001300145T 020180230000001544772 29577050925854919   7               28022017000000000007500001012408                         0900000000000010000000000000000000000000000000000000000   0000000000000000000000000A9        170192957705     
0010001300146U 020000000000000000000000000000000000000000000000000000000000000000000000000000000000000000000000000000000000000000000000002602201700000000            000000000000000                              000                           
0010001300147T 020180230000001544772 29577050927011099   7               28022017000000000007500001000213                         0900000000000010000000000000000000000000000000000000000   0000000000000000000000000A9        170192957705     
0010001300148U 020000000000000000000000000000000000000000000000000000000000000000000000000000000000000000000000000000000000000000000000002602201700000000            000000000000000                              000                           
0010001300149T 020180230000001544772 29577050927015583   7               28022017000000000007500001000213                         0900000000000010000000000000000000000000000000000000000   0000000000000000000000000A9        170192957705     
0010001300150U 020000000000000000000000000000000000000000000000000000000000000000000000000000000000000000000000000000000000000000000000002602201700000000            000000000000000                              000                           
0010001300151T 020180230000001544772 29577050927032932   7               28022017000000000007500001000213                         0900000000000010000000000000000000000000000000000000000   0000000000000000000000000A9        170192957705     
0010001300152U 020000000000000000000000000000000000000000000000000000000000000000000000000000000000000000000000000000000000000000000000002602201700000000            000000000000000                              000                           
0010001300153T 020180230000001544772 29577050927044474   7               28022017000000000007500001000213                         0900000000000010000000000000000000000000000000000000000   0000000000000000000000000A9        170192957705     
0010001300154U 020000000000000000000000000000000000000000000000000000000000000000000000000000000000000000000000000000000000000000000000002602201700000000            000000000000000                              000                           
0010001300155T 020180230000001544772 29577050928116021   7               2802201700000000000750000103049X                         0900000000000010000000000000000000000000000000000000000   0000000000000000000000000A9        170192957705     
0010001300156U 020000000000000000000000000000000000000000000000000000000000000000000000000000000000000000000000000000000000000000000000002602201700000000            000000000000000                              000                           
0010001300157T 020180230000001544772 29577050928126214   7               0203201700000000000750000103049X                         0900000000000010000000000000000000000000000000000000000   0000000000000000000000000A9        170192957705     
0010001300158U 020000000000000000000000000000000000000000000000000000000000000000000000000000000000000000000000000000000000000000000000002802201700000000            000000000000000                              000                           
0010001300159T 020180230000001544772 29577050929922996   7               28022017000000000007500001000833                         0900000000000010000000000000000000000000000000000000000   0000000000000000000000000A9        170192957705     
0010001300160U 020000000000000000000000000000000000000000000000000000000000000000000000000000000000000000000000000000000000000000000000002602201700000000            000000000000000                              000                           
0010001300161T 020180230000001544772 29577050930011040   7               28022017000000000007500001000213                         0900000000000010000000000000000000000000000000000000000   0000000000000000000000000A9        170192957705     
0010001300162U 020000000000000000000000000000000000000000000000000000000000000000000000000000000000000000000000000000000000000000000000002602201700000000            000000000000000                              000                           
0010001300163T 020180230000001544772 29577050931240162   7               01032017000000000007500001002151                         0900000000000010000000000000000000000000000000000000000   0000000000000000000000000A9        170192957705     
0010001300164U 020000000000000000000000000000000000000000000000000000000000000000000000000000000000000000000000000000000000000000000000002702201700000000            000000000000000                              000                           
0010001300165T 020180230000001544772 29577050931524983   7               01032017000000000007500001003018                         0900000000000010000000000000000000000000000000000000000   0000000000000000000000000A9        170192957705     
0010001300166U 020000000000000000000000000000000000000000000000000000000000000000000000000000000000000000000000000000000000000000000000002702201700000000            000000000000000                              000                           
0010001300167T 020180230000001544772 29577050931612631   7               01032017000000000007500001009245                         0900000000000010000000000000000000000000000000000000000   0000000000000000000000000A9        170192957705     
0010001300168U 020000000000000000000000000000000000000000000000000000000000000000000000000000000000000000000000000000000000000000000000002702201700000000            000000000000000                              000                           
0010001300169T 020180230000001544772 29577050931816237   7               01032017000000000007500001012408                         0900000000000010000000000000000000000000000000000000000   0000000000000000000000000A9        170192957705     
0010001300170U 020000000000000000000000000000000000000000000000000000000000000000000000000000000000000000000000000000000000000000000000002702201700000000            000000000000000                              000                           
0010001300171T 020180230000001544772 29577050932123452   7               01032017000000000007500001001120                         0900000000000010000000000000000000000000000000000000000   0000000000000000000000000A9        170192957705     
0010001300172U 020000000000000000000000000000000000000000000000000000000000000000000000000000000000000000000000000000000000000000000000002702201700000000            000000000000000                              000                           
0010001300173T 020180230000001544772 29577050932152583   7               01032017000000000007500001001120                         0900000000000010000000000000000000000000000000000000000   0000000000000000000000000A9        170192957705     
0010001300174U 020000000000000000000000000000000000000000000000000000000000000000000000000000000000000000000000000000000000000000000000002702201700000000            000000000000000                              000                           
0010001300175T 020180230000001544772 29577050932822128   7               0203201700000000000750000103049X                         0900000000000010000000000000000000000000000000000000000   0000000000000000000000000A9        170192957705     
0010001300176U 020000000000000000000000000000000000000000000000000000000000000000000000000000000000000000000000000000000000000000000000002802201700000000            000000000000000                              000                           
0010001300177T 020180230000001544772 29577050932825209   7               0103201700000000000750000103049X                         0900000000000010000000000000000000000000000000000000000   0000000000000000000000000A9        170192957705     
0010001300178U 020000000000000000000000000000000000000000000000000000000000000000000000000000000000000000000000000000000000000000000000002702201700000000            000000000000000                              000                           
0010001300179T 020180230000001544772 29577050932901010   7               01032017000000000007500001012408                         0900000000000010000000000000000000000000000000000000000   0000000000000000000000000A9        170192957705     
0010001300180U 020000000000000000000000000000000000000000000000000000000000000000000000000000000000000000000000000000000000000000000000002702201700000000            000000000000000                              000                           
0010001300181T 020180230000001544772 29577050933019064   7               01032017000000000007500001000213                         0900000000000010500000000000000000000000000000000000000   0000000000000000000000000A9A4      170192957705     
0010001300182U 020000000000000000000000000000000000000000000000000000000000000000000000000000000000000000000000000000000000000000000000002702201700000000            000000000000000                              000                           
0010001300183T 020180230000001544772 29577050933043820   7               01032017000000000007500001000213                         0900000000000010500000000000000000000000000000000000000   0000000000000000000000000A9A4      170192957705     
0010001300184U 020000000000000000000000000000000000000000000000000000000000000000000000000000000000000000000000000000000000000000000000002702201700000000            000000000000000                              000                           
0010001300185T 020180230000001544772 29577050933210195   7               01032017000000000007500001009245                         0900000000000010000000000000000000000000000000000000000   0000000000000000000000000A9        170192957705     
0010001300186U 020000000000000000000000000000000000000000000000000000000000000000000000000000000000000000000000000000000000000000000000002702201700000000            000000000000000                              000                           
0010001300187T 020180230000001544772 29577050934238126   7               0103201700000000000750000103049X                         0900000000000010000000000000000000000000000000000000000   0000000000000000000000000A9        170192957705     
0010001300188U 020000000000000000000000000000000000000000000000000000000000000000000000000000000000000000000000000000000000000000000000002702201700000000            000000000000000                              000                           
0010001300189T 020180230000001544772 29577050935207771   7               0103201700000000000750000103049X                         0900000000000010000000000000000000000000000000000000000   0000000000000000000000000A9        170192957705     
0010001300190U 020000000000000000000000000000000000000000000000000000000000000000000000000000000000000000000000000000000000000000000000002702201700000000            000000000000000                              000                           
0010001300191T 020180230000001544772 29577050935208175   7               0103201700000000000750000103049X                         0900000000000010000000000000000000000000000000000000000   0000000000000000000000000A9        170192957705     
0010001300192U 020000000000000000000000000000000000000000000000000000000000000000000000000000000000000000000000000000000000000000000000002702201700000000            000000000000000                              000                           
0010001300193T 020180230000001544772 29577050935657345   7               01032017000000000007500001001791                         0900000000000010000000000000000000000000000000000000000   0000000000000000000000000A9        170192957705     
0010001300194U 020000000000000000000000000000000000000000000000000000000000000000000000000000000000000000000000000000000000000000000000002702201700000000            000000000000000                              000                           
0010001300195T 020180230000001544772 29577050935942009   7               01032017000000000007500001012416                         0900000000000010000000000000000000000000000000000000000   0000000000000000000000000A9        170192957705     
0010001300196U 020000000000000000000000000000000000000000000000000000000000000000000000000000000000000000000000000000000000000000000000002702201700000000            000000000000000                              000                           
0010001300197T 020180230000001544772 29577050936047930   7               01032017000000000007500001000213                         0900000000000010000000000000000000000000000000000000000   0000000000000000000000000A9        170192957705     
0010001300198U 020000000000000000000000000000000000000000000000000000000000000000000000000000000000000000000000000000000000000000000000002702201700000000            000000000000000                              000                           
0010001300199T 020180230000001544772 29577050936216614   7               01032017000000000007500001000213                         0900000000000010000000000000000000000000000000000000000   0000000000000000000000000A9        170192957705     
0010001300200U 020000000000000000000000000000000000000000000000000000000000000000000000000000000000000000000000000000000000000000000000002702201700000000            000000000000000                              000                           
0010001300201T 020180230000001544772 29577050936623476   7               01032017000000000007500001000213                         0900000000000010000000000000000000000000000000000000000   0000000000000000000000000A9        170192957705     
0010001300202U 020000000000000000000000000000000000000000000000000000000000000000000000000000000000000000000000000000000000000000000000002702201700000000            000000000000000                              000                           
0010001300203T 020180230000001544772 29577050936749584   7               0103201700000000000750000103049X                         0900000000000010000000000000000000000000000000000000000   0000000000000000000000000A9        170192957705     
0010001300204U 020000000000000000000000000000000000000000000000000000000000000000000000000000000000000000000000000000000000000000000000002702201700000000            000000000000000                              000                           
0010001300205T 020180230000001544772 29577050936850713   7               0103201700000000000750000103049X                         0900000000000010000000000000000000000000000000000000000   0000000000000000000000000A9        170192957705     
0010001300206U 020000000000000000000000000000000000000000000000000000000000000000000000000000000000000000000000000000000000000000000000002702201700000000            000000000000000                              000                           
0010001300207T 020180230000001544772 29577050936938793   7               01032017000000000007500001002224                         0900000000000010000000000000000000000000000000000000000   0000000000000000000000000A9        170192957705     
0010001300208U 020000000000000000000000000000000000000000000000000000000000000000000000000000000000000000000000000000000000000000000000002702201700000000            000000000000000                              000                           
0010001300209T 020180230000001544772 29577050937432955   7               01032017000000000007500001009245                         0900000000000010000000000000000000000000000000000000000   0000000000000000000000000A9        170192957705     
0010001300210U 020000000000000000000000000000000000000000000000000000000000000000000000000000000000000000000000000000000000000000000000002702201700000000            000000000000000                              000                           
0010001300211T 020180230000001544772 29577050938301428   7               0103201700000000000750000103049X                         0900000000000010000000000000000000000000000000000000000   0000000000000000000000000A9        170192957705     
0010001300212U 020000000000000000000000000000000000000000000000000000000000000000000000000000000000000000000000000000000000000000000000002702201700000000            000000000000000                              000                           
0010001300213T 020180230000001544772 29577050938613305   7               01032017000000000007500001012408                         0900000000000010000000000000000000000000000000000000000   0000000000000000000000000A9        170192957705     
0010001300214U 020000000000000000000000000000000000000000000000000000000000000000000000000000000000000000000000000000000000000000000000002702201700000000            000000000000000                              000                           
0010001300215T 020180230000001544772 29577050939139077   7               0103201700000000000750000100166X                         0900000000000010000000000000000000000000000000000000000   0000000000000000000000000A9        170192957705     
0010001300216U 020000000000000000000000000000000000000000000000000000000000000000000000000000000000000000000000000000000000000000000000002702201700000000            000000000000000                              000                           
0010001300217T 020180230000001544772 29577050940839123   7               0203201700000000000750000103049X                         0900000000000010000000000000000000000000000000000000000   0000000000000000000000000A9        170192957705     
0010001300218U 020000000000000000000000000000000000000000000000000000000000000000000000000000000000000000000000000000000000000000000000002802201700000000            000000000000000                              000                           
0010001300219T 020180230000001544772 29577050940920806   7               0203201700000000000750000101981X                         0900000000000010000000000000000000000000000000000000000   0000000000000000000000000A9        170192957705     
0010001300220U 020000000000000000000000000000000000000000000000000000000000000000000000000000000000000000000000000000000000000000000000002802201700000000            000000000000000                              000                           
0010001300221T 020180230000001544772 29577050941616663   7               02032017000000000007500001000213                         0900000000000010000000000000000000000000000000000000000   0000000000000000000000000A9        170192957705     
0010001300222U 020000000000000000000000000000000000000000000000000000000000000000000000000000000000000000000000000000000000000000000000002802201700000000            000000000000000                              000                           
0010001300223T 020180230000001544772 29577050941842029   7               02032017000000000007500001000213                         0900000000000010000000000000000000000000000000000000000   0000000000000000000000000A9        170192957705     
0010001300224U 020000000000000000000000000000000000000000000000000000000000000000000000000000000000000000000000000000000000000000000000002802201700000000            000000000000000                              000                           
0010001300225T 020180230000001544772 29577050942044375   7               0203201700000000000750000103049X                         0900000000000010000000000000000000000000000000000000000   0000000000000000000000000A9        170192957705     
0010001300226U 020000000000000000000000000000000000000000000000000000000000000000000000000000000000000000000000000000000000000000000000002802201700000000            000000000000000                              000                           
0010001300227T 020180230000001544772 29577050943602979   7               02032017000000000007500001000213                         0900000000000010000000000000000000000000000000000000000   0000000000000000000000000A9        170192957705     
0010001300228U 020000000000000000000000000000000000000000000000000000000000000000000000000000000000000000000000000000000000000000000000002802201700000000            000000000000000                              000                           
0010001300229T 020180230000001544772 29577050944206582   7               0203201700000000000750000103049X                         0900000000000010000000000000000000000000000000000000000   0000000000000000000000000A9        170192957705     
0010001300230U 020000000000000000000000000000000000000000000000000000000000000000000000000000000000000000000000000000000000000000000000002802201700000000            000000000000000                              000                           
0010001300231T 020180230000001544772 29577050944544434   7               02032017000000000007500001012408                         0900000000000010000000000000000000000000000000000000000   0000000000000000000000000A9        170192957705     
0010001300232U 020000000000000000000000000000000000000000000000000000000000000000000000000000000000000000000000000000000000000000000000002802201700000000            000000000000000                              000                           
0010001300233T 020180230000001544772 29577050944719014   7               02032017000000000007500001012408                         0900000000000010000000000000000000000000000000000000000   0000000000000000000000000A9        170192957705     
0010001300234U 020000000000000000000000000000000000000000000000000000000000000000000000000000000000000000000000000000000000000000000000002802201700000000            000000000000000                              000                           
0010001300235T 020180230000001544772 29577050945453285   7               02032017000000000007500001000833                         0900000000000010000000000000000000000000000000000000000   0000000000000000000000000A9        170192957705     
0010001300236U 020000000000000000000000000000000000000000000000000000000000000000000000000000000000000000000000000000000000000000000000002802201700000000            000000000000000                              000                           
0010001300237T 020180230000001544772 29577050945550973   7               0203201700000000000750000103696X                         0900000000000010000000000000000000000000000000000000000   0000000000000000000000000A9        170192957705     
0010001300238U 020000000000000000000000000000000000000000000000000000000000000000000000000000000000000000000000000000000000000000000000002802201700000000            000000000000000                              000                           
0010001300239T 020180230000001544772 29577050945809113   7               02032017000000000007500001012408                         0900000000000010500000000000000000000000000000000000000   0000000000000000000000000A9A4      170192957705     
0010001300240U 020000000000000000000000000000000000000000000000000000000000000000000000000000000000000000000000000000000000000000000000002802201700000000            000000000000000                              000                           
0010001300241T 020180230000001544772 29577050946453243   7               0203201700000000000750000103049X                         0900000000000010000000000000000000000000000000000000000   0000000000000000000000000A9        170192957705     
0010001300242U 020000000000000000000000000000000000000000000000000000000000000000000000000000000000000000000000000000000000000000000000002802201700000000            000000000000000                              000                           
0010001300243T 020180230000001544772 29577050946735339   7               02032017000000000007500001012408                         0900000000000010500000000000000000000000000000000000000   0000000000000000000000000A9A4      170192957705     
0010001300244U 020000000000000000000000000000000000000000000000000000000000000000000000000000000000000000000000000000000000000000000000002802201700000000            000000000000000                              000                           
0010001300245T 020180230000001544772 29577050947123588   7               02032017000000000007500001000833                         0900000000000010000000000000000000000000000000000000000   0000000000000000000000000A9        170192957705     
0010001300246U 020000000000000000000000000000000000000000000000000000000000000000000000000000000000000000000000000000000000000000000000002802201700000000            000000000000000                              000                           
0010001300247T 020180230000001544772 29577050947535942   7               0203201700000000001000000103049X                         0900000000000010000000000000000000000000000000000000000   0000000000000000000000000A9        170192957705     
0010001300248U 020000000000000000000000000000000000000000000000000000000000000000000000000000000000000000000000000000000000000000000000002802201700000000            000000000000000                              000                           
0010001300249T 020180230000001544772 29577050947620040   7               0203201700000000000750000103049X                         0900000000000010000000000000000000000000000000000000000   0000000000000000000000000A9        170192957705     
0010001300250U 020000000000000000000000000000000000000000000000000000000000000000000000000000000000000000000000000000000000000000000000002802201700000000            000000000000000                              000                           
0010001300251T 020180230000001544772 29577050947827662   7               02032017000000000007500001012408                         0900000000000010000000000000000000000000000000000000000   0000000000000000000000000A9        170192957705     
0010001300252U 020000000000000000000000000000000000000000000000000000000000000000000000000000000000000000000000000000000000000000000000002802201700000000            000000000000000                              000                           
0010001300253T 020180230000001544772 29577050949048075   7               02032017000000000007500001000213                         0900000000000010000000000000000000000000000000000000000   0000000000000000000000000A9        170192957705     
0010001300254U 020000000000000000000000000000000000000000000000000000000000000000000000000000000000000000000000000000000000000000000000002802201700000000            000000000000000                              000                           
0010001300255T 020180230000001544772 29577050949404191   7               0203201700000000000750000103049X                         0900000000000010000000000000000000000000000000000000000   0000000000000000000000000A9        170192957705     
0010001300256U 020000000000000000000000000000000000000000000000000000000000000000000000000000000000000000000000000000000000000000000000002802201700000000            000000000000000                              000                           
0010001300257T 020180230000001544772 29577050949420723   7               0203201700000000000750000103049X                         0900000000000010000000000000000000000000000000000000000   0000000000000000000000000A9        170192957705     
0010001300258U 020000000000000000000000000000000000000000000000000000000000000000000000000000000000000000000000000000000000000000000000002802201700000000            000000000000000                              000                           
0010001300259T 020180230000001544772 29577050951022915   7               02032017000000000007500001012408                         0900000000000010000000000000000000000000000000000000000   0000000000000000000000000A9        170192957705     
0010001300260U 020000000000000000000000000000000000000000000000000000000000000000000000000000000000000000000000000000000000000000000000002802201700000000            000000000000000                              000                           
0010001300261T 020180230000001544772 29577050951447036   7               0203201700000000000750000103049X                         0900000000000010500000000000000000000000000000000000000   0000000000000000000000000A9A4      170192957705     
0010001300262U 020000000000000000000000000000000000000000000000000000000000000000000000000000000000000000000000000000000000000000000000002802201700000000            000000000000000                              000                           
0010001300263T 020180230000001544772 29577050952034738   7               03032017000000000007500001007501                         0900000000000010000000000000000000000000000000000000000   0000000000000000000000000A9        170192957705     
0010001300264U 020000000000000000000000000000000000000000000000000000000000000000000000000000000000000000000000000000000000000000000000000103201700000000            000000000000000                              000                           
0010001300265T 020180230000001544772 29577050952338307   7               03032017000000000007500001000213                         0900000000000010000000000000000000000000000000000000000   0000000000000000000000000A9        170192957705     
0010001300266U 020000000000000000000000000000000000000000000000000000000000000000000000000000000000000000000000000000000000000000000000000103201700000000            000000000000000                              000                           
0010001300267T 020180230000001544772 29577050952458936   7               03032017000000000007500001000213                         0900000000000010000000000000000000000000000000000000000   0000000000000000000000000A9        170192957705     
0010001300268U 020000000000000000000000000000000000000000000000000000000000000000000000000000000000000000000000000000000000000000000000000103201700000000            000000000000000                              000                           
0010001300269T 020180230000001544772 29577050952527168   7               03032017000000000007500001012416                         0900000000000010000000000000000000000000000000000000000   0000000000000000000000000A9        170192957705     
0010001300270U 020000000000000000000000000000000000000000000000000000000000000000000000000000000000000000000000000000000000000000000000000103201700000000            000000000000000                              000                           
0010001300271T 020180230000001544772 29577050952610629   7               03032017000000000007500001012416                         0900000000000010000000000000000000000000000000000000000   0000000000000000000000000A9        170192957705     
0010001300272U 020000000000000000000000000000000000000000000000000000000000000000000000000000000000000000000000000000000000000000000000000103201700000000            000000000000000                              000                           
0010001300273T 020180230000001544772 29577050952842384   7               03032017000000000007500001012408                         0900000000000010000000000000000000000000000000000000000   0000000000000000000000000A9        170192957705     
0010001300274U 020000000000000000000000000000000000000000000000000000000000000000000000000000000000000000000000000000000000000000000000000103201700000000            000000000000000                              000                           
0010001300275T 020180230000001544772 29577050952933373   7               03032017000000000007500001022209                         0900000000000010000000000000000000000000000000000000000   0000000000000000000000000A9        170192957705     
0010001300276U 020000000000000000000000000000000000000000000000000000000000000000000000000000000000000000000000000000000000000000000000000103201700000000            000000000000000                              000                           
0010001300277T 020180230000001544772 29577050952940062   7               03032017000000000007500001022209                         0900000000000010000000000000000000000000000000000000000   0000000000000000000000000A9        170192957705     
0010001300278U 020000000000000000000000000000000000000000000000000000000000000000000000000000000000000000000000000000000000000000000000000103201700000000            000000000000000                              000                           
0010001300279T 020180230000001544772 29577050953255108   7               03032017000000000007500001046264                         0900000000000010000000000000000000000000000000000000000   0000000000000000000000000A9        170192957705     
0010001300280U 020000000000000000000000000000000000000000000000000000000000000000000000000000000000000000000000000000000000000000000000000103201700000000            000000000000000                              000                           
0010001300281T 020180230000001544772 29577050953525157   7               0303201700000000000750000103049X                         0900000000000010500000000000000000000000000000000000000   0000000000000000000000000A9A4      170192957705     
0010001300282U 020000000000000000000000000000000000000000000000000000000000000000000000000000000000000000000000000000000000000000000000000103201700000000            000000000000000                              000                           
0010001300283T 020180230000001544772 29577050953557269   7               0303201700000000000750000103049X                         0900000000000010500000000000000000000000000000000000000   0000000000000000000000000A9A4      170192957705     
0010001300284U 020000000000000000000000000000000000000000000000000000000000000000000000000000000000000000000000000000000000000000000000000103201700000000            000000000000000                              000                           
0010001300285T 020180230000001544772 29577050954812313   7               03032017000000000007500001012408                         0900000000000010000000000000000000000000000000000000000   0000000000000000000000000A9        170192957705     
0010001300286U 020000000000000000000000000000000000000000000000000000000000000000000000000000000000000000000000000000000000000000000000000103201700000000            000000000000000                              000                           
0010001300287T 020180230000001544772 29577050957145149   7               03032017000000000007500001000213                         0900000000000010000000000000000000000000000000000000000   0000000000000000000000000A9        170192957705     
0010001300288U 020000000000000000000000000000000000000000000000000000000000000000000000000000000000000000000000000000000000000000000000000103201700000000            000000000000000                              000                           
0010001300289T 020180230000001544772 29577050957855834   7               0303201700000000000750000103049X                         0900000000000010000000000000000000000000000000000000000   0000000000000000000000000A9        170192957705     
0010001300290U 020000000000000000000000000000000000000000000000000000000000000000000000000000000000000000000000000000000000000000000000000103201700000000            000000000000000                              000                           
0010001300291T 020180230000001544772 29577050958445647   7               03032017000000000007500001004340                         0900000000000010000000000000000000000000000000000000000   0000000000000000000000000A9        170192957705     
0010001300292U 020000000000000000000000000000000000000000000000000000000000000000000000000000000000000000000000000000000000000000000000000103201700000000            000000000000000                              000                           
0010001300293T 020180230000001544772 29577050959525500   7               0303201700000000000750000103049X                         0900000000000010000000000000000000000000000000000000000   0000000000000000000000000A9        170192957705     
0010001300294U 020000000000000000000000000000000000000000000000000000000000000000000000000000000000000000000000000000000000000000000000000103201700000000            000000000000000                              000                           
0010001300295T 020180230000001544772 29577050959537867   7               0303201700000000000750000103049X                         0900000000000010000000000000000000000000000000000000000   0000000000000000000000000A9        170192957705     
0010001300296U 020000000000000000000000000000000000000000000000000000000000000000000000000000000000000000000000000000000000000000000000000103201700000000            000000000000000                              000                           
0010001300297T 020180230000001544772 29577050959631172   7               0303201700000000000750000103049X                         0900000000000010000000000000000000000000000000000000000   0000000000000000000000000A9        170192957705     
0010001300298U 020000000000000000000000000000000000000000000000000000000000000000000000000000000000000000000000000000000000000000000000000103201700000000            000000000000000                              000                           
0010001300299T 020180230000001544772 29577050959726236   7               0303201700000000000750000103049X                         0900000000000010000000000000000000000000000000000000000   0000000000000000000000000A9        170192957705     
0010001300300U 020000000000000000000000000000000000000000000000000000000000000000000000000000000000000000000000000000000000000000000000000103201700000000            000000000000000                              000                           
0010001300301T 020180230000001544772 29577050961037247   7               0303201700000000000750000103049X                         0900000000000010000000000000000000000000000000000000000   0000000000000000000000000A9        170192957705     
0010001300302U 020000000000000000000000000000000000000000000000000000000000000000000000000000000000000000000000000000000000000000000000000103201700000000            000000000000000                              000                           
0010001300303T 020180230000001544772 29577050961510671   7               03032017000000000007500001000213                         0900000000000010000000000000000000000000000000000000000   0000000000000000000000000A9        170192957705     
0010001300304U 020000000000000000000000000000000000000000000000000000000000000000000000000000000000000000000000000000000000000000000000000103201700000000            000000000000000                              000                           
0010001300305T 020180230000001544772 29577050962342447   7               03032017000000000010000001034118                         0900000000000010000000000000000000000000000000000000000   0000000000000000000000000A9        170192957705     
0010001300306U 020000000000000000000000000000000000000000000000000000000000000000000000000000000000000000000000000000000000000000000000000103201700000000            000000000000000                              000                           
0010001300307T 020180230000001544772 29577050963526677   7               03032017000000000007500001001120                         0900000000000010000000000000000000000000000000000000000   0000000000000000000000000A9        170192957705     
0010001300308U 020000000000000000000000000000000000000000000000000000000000000000000000000000000000000000000000000000000000000000000000000103201700000000            000000000000000                              000                           
0010001300309T 020180230000001544772 29577050964144238   7               03032017000000000007500001012408                         0900000000000010000000000000000000000000000000000000000   0000000000000000000000000A9        170192957705     
0010001300310U 020000000000000000000000000000000000000000000000000000000000000000000000000000000000000000000000000000000000000000000000000103201700000000            000000000000000                              000                           
0010001300311T 020180230000001544772 29577050964209559   7               03032017000000000007500001012408                         0900000000000010000000000000000000000000000000000000000   0000000000000000000000000A9        170192957705     
0010001300312U 020000000000000000000000000000000000000000000000000000000000000000000000000000000000000000000000000000000000000000000000000103201700000000            000000000000000                              000                           
0010001300313T 020180230000001544772 29577050964337656   7               0303201700000000000750000103049X                         0900000000000010000000000000000000000000000000000000000   0000000000000000000000000A9        170192957705     
0010001300314U 020000000000000000000000000000000000000000000000000000000000000000000000000000000000000000000000000000000000000000000000000103201700000000            000000000000000                              000                           
0010001300315T 020180230000001544772 29577050964809074   7               03032017000000000007500001000213                         0900000000000010000000000000000000000000000000000000000   0000000000000000000000000A9        170192957705     
0010001300316U 020000000000000000000000000000000000000000000000000000000000000000000000000000000000000000000000000000000000000000000000000103201700000000            000000000000000                              000                           
0010001300317T 020180230000001544772 29577050965636490   7               03032017000000000007500001012408                         0900000000000010500000000000000000000000000000000000000   0000000000000000000000000A9A4      170192957705     
0010001300318U 020000000000000000000000000000000000000000000000000000000000000000000000000000000000000000000000000000000000000000000000000103201700000000            000000000000000                              000                           
0010001300319T 020180230000001544772 29577050966831473   7               0303201700000000000750000103049X                         0900000000000010000000000000000000000000000000000000000   0000000000000000000000000A9        170192957705     
0010001300320U 020000000000000000000000000000000000000000000000000000000000000000000000000000000000000000000000000000000000000000000000000103201700000000            000000000000000                              000                           
0010001300321T 020180230000001544772 29577050968309760   7               03032017000000000007500001000833                         0900000000000010000000000000000000000000000000000000000   0000000000000000000000000A9        170192957705     
0010001300322U 020000000000000000000000000000000000000000000000000000000000000000000000000000000000000000000000000000000000000000000000000103201700000000            000000000000000                              000                           
0010001300323T 020180230000001544772 29577050968504857   7               03032017000000000007500001000833                         0900000000000010000000000000000000000000000000000000000   0000000000000000000000000A9        170192957705     
0010001300324U 020000000000000000000000000000000000000000000000000000000000000000000000000000000000000000000000000000000000000000000000000103201700000000            000000000000000                              000                           
0010001300325T 020180230000001544772 29577050968653069   7               03032017000000000007500001000833                         0900000000000010000000000000000000000000000000000000000   0000000000000000000000000A9        170192957705     
0010001300326U 020000000000000000000000000000000000000000000000000000000000000000000000000000000000000000000000000000000000000000000000000103201700000000            000000000000000                              000                           
0010001300327T 020180230000001544772 29577050969054190   7               0303201700000000000750000103049X                         0900000000000010000000000000000000000000000000000000000   0000000000000000000000000A9        170192957705     
0010001300328U 020000000000000000000000000000000000000000000000000000000000000000000000000000000000000000000000000000000000000000000000000103201700000000            000000000000000                              000                           
0010001300329T 020180230000001544772 29577050969115661   7               03032017000000000010000001030864                         0900000000000010500000000000000000000000000000000000000   0000000000000000000000000A9A4      170192957705     
0010001300330U 020000000000000000000000000000000000000000000000000000000000000000000000000000000000000000000000000000000000000000000000000103201700000000            000000000000000                              000                           
0010001300331T 060180230000001544772 29577050422239916   7               25022017000000000007500104031320                         0900000000000010000000000000000000000000000000000000000   000000000000000000000029000        170192957705     
0010001300332U 060000000000000000000000000000000000000000000000000000000000000000000000075000000000000072100000000000000000000000000000000103201702032017            000000000000000                              000                           
0010001300333T 060180230000001544772 29577050591633253   7               03032017000000000007500021005520                         0900000000000010000000000000000000000000000000000000000   000000000000000000000029000        170192957705     
0010001300334U 060000000000000000000000000000000000000000000000000000000000000000000000075000000000000072100000000000000000000000000000000103201702032017            000000000000000                              000                           
0010001300335T 060180230000001544772 29577050719932749   7               03032017000000000007500021000540                         0900000000000010000000000000000000000000000000000000000   000000000000000000000029000        170192957705     
0010001300336U 060000000000000000000000000000000000000000000000000000000000000000000000075000000000000072100000000000000000000000000000000103201702032017            000000000000000                              000                           
0010001300337T 060180230000001544772 29577050750612461   7               03032017000000000007500001031933                         0900000000000010000000000000000000000000000000000000000   000000000000000000000029000        170192957705     
0010001300338U 060000000000000000000000000000000000000000000000000000000000000000000000075000000000000072100000000000000000000000000000000103201702032017            000000000000000                              000                           
0010001300339T 060180230000001544772 29577050800627878   7               27022017000000000007500021001100                         0900000000000010000000000000000000000000000000000000000   000000000000000000000029000        170192957705     
0010001300340U 060000000000000000000000000000000000000000000000000000000000000000000000075000000000000072100000000000000000000000000000000103201702032017            000000000000000                              000                           
0010001300341T 060180230000001544772 29577050856718481   7               03032017000000000007500001031933                         0900000000000010000000000000000000000000000000000000000   000000000000000000000029000        170192957705     
0010001300342U 060000000000000000000000000000000000000000000000000000000000000000000000075000000000000072100000000000000000000000000000000103201702032017            000000000000000                              000                           
0010001300343T 060180230000001544772 29577050886027340   7               02032017000000000007500021001070                         0900000000000010000000000000000000000000000000000000000   000000000000000000000029000        170192957705     
0010001300344U 060000000000000000000000000000000000000000000000000000000000000000000000075000000000000072100000000000000000000000000000000103201702032017            000000000000000                              000                           
0010001300345T 060180230000001544772 29577050908751021   7               26022017000000000007500237029980                         0900000000000010000000000000000000000000000000000000000   000000000000000000000029000        170192957705     
0010001300346U 060000000000000000000000000000000000000000000000000000000000000000000000075000000000000072100000000000000000000000000000000103201702032017            000000000000000                              000                           
0010001300347T 060180230000001544772 29577050929922996   7               28022017000000000007500104020160                         0900000000000010000000000000000000000000000000000000000   000000000000000000000029000        170192957705     
0010001300348U 060000000000000000000000000000000000000000000000000000000000000000000000075000000000000072100000000000000000000000000000000103201702032017            000000000000000                              000                           
0010001300349T 060180230000001544772 29577050931816237   7               01032017000000000007500001056103                         0900000000000010000000000000000000000000000000000000000   000000000000000000000029000        170192957705     
0010001300350U 060000000000000000000000000000000000000000000000000000000000000000000000075000000000000072100000000000000000000000000000000103201702032017            000000000000000                              000                           
0010001300351T 060180230000001544772 29577050932822128   7               02032017000000000007500021001070                         0900000000000010000000000000000000000000000000000000000   000000000000000000000029000        170192957705     
0010001300352U 060000000000000000000000000000000000000000000000000000000000000000000000075000000000000072100000000000000000000000000000000103201702032017            000000000000000                              000                           
0010001300353T 060180230000001544772 29577050936623476   7               01032017000000000007500033020770                         0900000000000010000000000000000000000000000000000000000   000000000000000000000029000        170192957705     
0010001300354U 060000000000000000000000000000000000000000000000000000000000000000000000075000000000000072100000000000000000000000000000000103201702032017            000000000000000                              000                           
0010001300355T 060180230000001544772 29577050936938793   7               01032017000000000007500756030090                         0900000000000010000000000000000000000000000000000000000   000000000000000000000029000        170192957705     
0010001300356U 060000000000000000000000000000000000000000000000000000000000000000000000075000000000000072100000000000000000000000000000000103201702032017            000000000000000                              000                           
0010001300357T 060180230000001544772 29577050946453243   7               02032017000000000007500033022880                         0900000000000010000000000000000000000000000000000000000   000000000000000000000029000        170192957705     
0010001300358U 060000000000000000000000000000000000000000000000000000000000000000000000075000000000000072100000000000000000000000000000000103201702032017            000000000000000                              000                           
0010001300359T 060180230000001544772 29577050953525157   7               03032017000000000007500033039440                         0900000000000010000000000000000000000000000000000000000   000000000000000000000029000        170192957705     
0010001300360U 060000000000000000000000000000000000000000000000000000000000000000000000075000000000000072100000000000000000000000000000000103201702032017            000000000000000                              000                           
0010001300361T 060180230000001544772 29577050957855834   7               03032017000000000007500104046070                         0900000000000010000000000000000000000000000000000000000   000000000000000000000029000        170192957705     
0010001300362U 060000000000000000000000000000000000000000000000000000000000000000000000075000000000000072100000000000000000000000000000000103201702032017            000000000000000                              000                           
0010001300363T 280180230000001544772 29577050000611634   7               30012017000000000007500001000000                         0900000000000000000000000000000000000000000000000000000   000000000000000000000005002        170192957705     
0010001300364U 280000000000000000000000000000000000000000000000000000000000000000000000000000000000000000000000000000000000000000000000000103201700000000            000000000000000                              000                           
0010001300365T 280180230000001544772 29577050006220001   788888888888889930122016000000000007500001000000888888888888899          0900000000000000000000000000000000000000000000000000000   000000000000000000000005002        170192957705     
0010001300366U 280000000000000000000000000000000000000000000000000000000000000000000000000000000000000000000000000000000000000000000000000103201700000000            000000000000000                              000                           
0010001300367T 280180230000001544772 29577050007349175   788888888888889928012017000000000007500001000000888888888888899          0900000000000000000000000000000000000000000000000000000   000000000000000000000005002        170192957705     
0010001300368U 280000000000000000000000000000000000000000000000000000000000000000000000000000000000000000000000000000000000000000000000000103201700000000            000000000000000                              000                           
0010001300369T 280180230000001544772 29577050010224732   788888888888889930122016000000000007500001000000888888888888899          0900000000000000000000000000000000000000000000000000000   000000000000000000000005002        170192957705     
0010001300370U 280000000000000000000000000000000000000000000000000000000000000000000000000000000000000000000000000000000000000000000000000103201700000000            000000000000000                              000                           
0010001300371T 280180230000001544772 29577050011309777   788888888888889929122016000000000007500001000000888888888888899          0900000000000000000000000000000000000000000000000000000   000000000000000000000005002        170192957705     
0010001300372U 280000000000000000000000000000000000000000000000000000000000000000000000000000000000000000000000000000000000000000000000000103201700000000            000000000000000                              000                           
0010001300373T 280180230000001544772 29577050011310441   788888888888889929122016000000000007500001000000888888888888899          0900000000000000000000000000000000000000000000000000000   000000000000000000000005002        170192957705     
0010001300374U 280000000000000000000000000000000000000000000000000000000000000000000000000000000000000000000000000000000000000000000000000103201700000000            000000000000000                              000                           
0010001300375T 280180230000001544772 29577050017809041   788888888888889931122016000000000007500001000000888888888888899          0900000000000000000000000000000000000000000000000000000   000000000000000000000005002        170192957705     
0010001300376U 280000000000000000000000000000000000000000000000000000000000000000000000000000000000000000000000000000000000000000000000000103201700000000            000000000000000                              000                           
0010001300377T 280180230000001544772 29577050018118343   788888888888889927122016000000000007500001000000888888888888899          0900000000000000000000000000000000000000000000000000000   000000000000000000000005002        170192957705     
0010001300378U 280000000000000000000000000000000000000000000000000000000000000000000000000000000000000000000000000000000000000000000000000103201700000000            000000000000000                              000                           
0010001300379T 280180230000001544772 29577050021145422   788888888888889931122016000000000007500001000000888888888888899          0900000000000000000000000000000000000000000000000000000   000000000000000000000005002        170192957705     
0010001300380U 280000000000000000000000000000000000000000000000000000000000000000000000000000000000000000000000000000000000000000000000000103201700000000            000000000000000                              000                           
0010001300381T 280180230000001544772 29577050021411303   788888888888889931122016000000000007500001000000888888888888899          0900000000000000000000000000000000000000000000000000000   000000000000000000000005002        170192957705     
0010001300382U 280000000000000000000000000000000000000000000000000000000000000000000000000000000000000000000000000000000000000000000000000103201700000000            000000000000000                              000                           
0010001300383T 280180230000001544772 29577050032315061   788888888888889929122016000000000007500001000000888888888888899          0900000000000000000000000000000000000000000000000000000   000000000000000000000005002        170192957705     
0010001300384U 280000000000000000000000000000000000000000000000000000000000000000000000000000000000000000000000000000000000000000000000000103201700000000            000000000000000                              000                           
0010001300385T 280180230000001544772 29577050033045790   788888888888889930122016000000000007500001000000888888888888899          0900000000000000000000000000000000000000000000000000000   000000000000000000000005002        170192957705     
0010001300386U 280000000000000000000000000000000000000000000000000000000000000000000000000000000000000000000000000000000000000000000000000103201700000000            000000000000000                              000                           
0010001300387T 280180230000001544772 29577050037921577   788888888888889926012017000000000007500001000000888888888888899          0900000000000000000000000000000000000000000000000000000   000000000000000000000005002        170192957705     
0010001300388U 280000000000000000000000000000000000000000000000000000000000000000000000000000000000000000000000000000000000000000000000000103201700000000            000000000000000                              000                           
0010001300389T 280180230000001544772 29577050037925816   788888888888889926012017000000000007500001000000888888888888899          0900000000000000000000000000000000000000000000000000000   000000000000000000000005002        170192957705     
0010001300390U 280000000000000000000000000000000000000000000000000000000000000000000000000000000000000000000000000000000000000000000000000103201700000000            000000000000000                              000                           
0010001300391T 280180230000001544772 29577050037954423   788888888888889930122016000000000007500001000000888888888888899          0900000000000000000000000000000000000000000000000000000   000000000000000000000005002        170192957705     
0010001300392U 280000000000000000000000000000000000000000000000000000000000000000000000000000000000000000000000000000000000000000000000000103201700000000            000000000000000                              000                           
0010001300393T 280180230000001544772 29577050039951519   788888888888889926012017000000000007500001000000888888888888899          0900000000000000000000000000000000000000000000000000000   000000000000000000000005002        170192957705     
0010001300394U 280000000000000000000000000000000000000000000000000000000000000000000000000000000000000000000000000000000000000000000000000103201700000000            000000000000000                              000                           
0010001300395T 280180230000001544772 29577050039958987   788888888888889926012017000000000007500001000000888888888888899          0900000000000000000000000000000000000000000000000000000   000000000000000000000005002        170192957705     
0010001300396U 280000000000000000000000000000000000000000000000000000000000000000000000000000000000000000000000000000000000000000000000000103201700000000            000000000000000                              000                           
0010001300397T 280180230000001544772 29577050041313017   788888888888889926012017000000000007500001000000888888888888899          0900000000000000000000000000000000000000000000000000000   000000000000000000000005002        170192957705     
0010001300398U 280000000000000000000000000000000000000000000000000000000000000000000000000000000000000000000000000000000000000000000000000103201700000000            000000000000000                              000                           
0010001300399T 280180230000001544772 29577050042759248   788888888888889926012017000000000007500001000000888888888888899          0900000000000000000000000000000000000000000000000000000   000000000000000000000005002        170192957705     
0010001300400U 280000000000000000000000000000000000000000000000000000000000000000000000000000000000000000000000000000000000000000000000000103201700000000            000000000000000                              000                           
0010001300401T 280180230000001544772 29577050042908085   788888888888889926012017000000000007500001000000888888888888899          0900000000000000000000000000000000000000000000000000000   000000000000000000000005002        170192957705     
0010001300402U 280000000000000000000000000000000000000000000000000000000000000000000000000000000000000000000000000000000000000000000000000103201700000000            000000000000000                              000                           
0010001300403T 280180230000001544772 29577050044127836   788888888888889926012017000000000007500001000000888888888888899          0900000000000000000000000000000000000000000000000000000   000000000000000000000005002        170192957705     
0010001300404U 280000000000000000000000000000000000000000000000000000000000000000000000000000000000000000000000000000000000000000000000000103201700000000            000000000000000                              000                           
0010001300405T 280180230000001544772 29577050044154756   788888888888889926012017000000000007500001000000888888888888899          0900000000000000000000000000000000000000000000000000000   000000000000000000000005002        170192957705     
0010001300406U 280000000000000000000000000000000000000000000000000000000000000000000000000000000000000000000000000000000000000000000000000103201700000000            000000000000000                              000                           
0010001300407T 280180230000001544772 29577050044407905   788888888888889926012017000000000007500001000000888888888888899          0900000000000000000000000000000000000000000000000000000   000000000000000000000005002        170192957705     
0010001300408U 280000000000000000000000000000000000000000000000000000000000000000000000000000000000000000000000000000000000000000000000000103201700000000            000000000000000                              000                           
0010001300409T 280180230000001544772 29577050045606459   788888888888889926012017000000000007500001000000888888888888899          0900000000000000000000000000000000000000000000000000000   000000000000000000000005002        170192957705     
0010001300410U 280000000000000000000000000000000000000000000000000000000000000000000000000000000000000000000000000000000000000000000000000103201700000000            000000000000000                              000                           
0010001300411T 280180230000001544772 29577050045706248   788888888888889926012017000000000007500001000000888888888888899          0900000000000000000000000000000000000000000000000000000   000000000000000000000005002        170192957705     
0010001300412U 280000000000000000000000000000000000000000000000000000000000000000000000000000000000000000000000000000000000000000000000000103201700000000            000000000000000                              000                           
