00100000         2247745860001000029577050014       0180230000001544772 INSTITUTO DE SELECAO E TECNOLOBANCO DO BRASIL                         20603201702451600011803000000515122941PROCESSAMEN                                                 
00100011T0100020 20247745860001000029577050014       0180230000001544772 INSTITUTO DE SELECAO E TECNOLO                                                                                000000000603201700000000  000000000                      
0010001300001T 020180230000001544772 29577050010802298   7               08032017000000000007500001012408                         0900000000000010000000000000000000000000000000000000000   0000000000000000000000000A9        170192957705     
0010001300002U 020000000000000000000000000000000000000000000000000000000000000000000000000000000000000000000000000000000000000000000000000603201700000000            000000000000000                              000                           
0010001300003T 020180230000001544772 29577050019503559   7               06032017000000000007500001012408                         0900000000000010000000000000000000000000000000000000000   0000000000000000000000000A9        170192957705     
0010001300004U 020000000000000000000000000000000000000000000000000000000000000000000000000000000000000000000000000000000000000000000000000403201700000000            000000000000000                              000                           
0010001300005T 020180230000001544772 29577050020543505   7               08032017000000000007500001012416                         0900000000000010000000000000000000000000000000000000000   0000000000000000000000000A9        170192957705     
0010001300006U 020000000000000000000000000000000000000000000000000000000000000000000000000000000000000000000000000000000000000000000000000603201700000000            000000000000000                              000                           
0010001300007T 020180230000001544772 29577050020827626   7               0803201700000000000750000103049X                         0900000000000010000000000000000000000000000000000000000   0000000000000000000000000A9        170192957705     
0010001300008U 020000000000000000000000000000000000000000000000000000000000000000000000000000000000000000000000000000000000000000000000000603201700000000            000000000000000                              000                           
0010001300009T 020180230000001544772 29577050036257487   7               08032017000000000007500001000213                         0900000000000010000000000000000000000000000000000000000   0000000000000000000000000A9        170192957705     
0010001300010U 020000000000000000000000000000000000000000000000000000000000000000000000000000000000000000000000000000000000000000000000000603201700000000            000000000000000                              000                           
0010001300011T 020180230000001544772 29577050041709298   7               08032017000000000007500001000213                         0900000000000010000000000000000000000000000000000000000   0000000000000000000000000A9        170192957705     
0010001300012U 020000000000000000000000000000000000000000000000000000000000000000000000000000000000000000000000000000000000000000000000000603201700000000            000000000000000                              000                           
0010001300013T 020180230000001544772 29577050041721903   7               08032017000000000007500001000213                         0900000000000010000000000000000000000000000000000000000   0000000000000000000000000A9        170192957705     
0010001300014U 020000000000000000000000000000000000000000000000000000000000000000000000000000000000000000000000000000000000000000000000000603201700000000            000000000000000                              000                           
0010001300015T 020180230000001544772 29577050044609777   7               07032017000000000010000001000213                         0900000000000010000000000000000000000000000000000000000   0000000000000000000000000A9        170192957705     
0010001300016U 020000000000000000000000000000000000000000000000000000000000000000000000000000000000000000000000000000000000000000000000000503201700000000            000000000000000                              000                           
0010001300017T 020180230000001544772 29577050044653636   7               07032017000000000010000001000213                         0900000000000010000000000000000000000000000000000000000   0000000000000000000000000A9        170192957705     
0010001300018U 020000000000000000000000000000000000000000000000000000000000000000000000000000000000000000000000000000000000000000000000000503201700000000            000000000000000                              000                           
0010001300019T 020180230000001544772 29577050052506634   7               08032017000000000007500001012416                         0900000000000010000000000000000000000000000000000000000   0000000000000000000000000A9        170192957705     
0010001300020U 020000000000000000000000000000000000000000000000000000000000000000000000000000000000000000000000000000000000000000000000000603201700000000            000000000000000                              000                           
0010001300021T 020180230000001544772 29577050060120445   7               08032017000000000007500001000817                         0900000000000010000000000000000000000000000000000000000   0000000000000000000000000A9        170192957705     
0010001300022U 020000000000000000000000000000000000000000000000000000000000000000000000000000000000000000000000000000000000000000000000000603201700000000            000000000000000                              000                           
0010001300023T 020180230000001544772 29577050064002668   7               0803201700000000000750000103049X                         0900000000000010000000000000000000000000000000000000000   0000000000000000000000000A9        170192957705     
0010001300024U 020000000000000000000000000000000000000000000000000000000000000000000000000000000000000000000000000000000000000000000000000603201700000000            000000000000000                              000                           
0010001300025T 020180230000001544772 29577050070903334   7               08032017000000000007500001012408                         0900000000000010000000000000000000000000000000000000000   0000000000000000000000000A9        170192957705     
0010001300026U 020000000000000000000000000000000000000000000000000000000000000000000000000000000000000000000000000000000000000000000000000603201700000000            000000000000000                              000                           
0010001300027T 020180230000001544772 29577050070918833   7               08032017000000000007500001012408                         0900000000000010000000000000000000000000000000000000000   0000000000000000000000000A9        170192957705     
0010001300028U 020000000000000000000000000000000000000000000000000000000000000000000000000000000000000000000000000000000000000000000000000603201700000000            000000000000000                              000                           
0010001300029T 020180230000001544772 29577050070921909   7               08032017000000000007500001012408                         0900000000000010000000000000000000000000000000000000000   0000000000000000000000000A9        170192957705     
0010001300030U 020000000000000000000000000000000000000000000000000000000000000000000000000000000000000000000000000000000000000000000000000603201700000000            000000000000000                              000                           
0010001300031T 020180230000001544772 29577050070938532   7               08032017000000000007500001012408                         0900000000000010000000000000000000000000000000000000000   0000000000000000000000000A9        170192957705     
0010001300032U 020000000000000000000000000000000000000000000000000000000000000000000000000000000000000000000000000000000000000000000000000603201700000000            000000000000000                              000                           
0010001300033T 020180230000001544772 29577050070946657   7               08032017000000000007500001012408                         0900000000000010000000000000000000000000000000000000000   0000000000000000000000000A9        170192957705     
0010001300034U 020000000000000000000000000000000000000000000000000000000000000000000000000000000000000000000000000000000000000000000000000603201700000000            000000000000000                              000                           
0010001300035T 020180230000001544772 29577050070948051   7               08032017000000000007500001012408                         0900000000000010000000000000000000000000000000000000000   0000000000000000000000000A9        170192957705     
0010001300036U 020000000000000000000000000000000000000000000000000000000000000000000000000000000000000000000000000000000000000000000000000603201700000000            000000000000000                              000                           
0010001300037T 020180230000001544772 29577050070952245   7               07032017000000000007500001012408                         0900000000000010000000000000000000000000000000000000000   0000000000000000000000000A9        170192957705     
0010001300038U 020000000000000000000000000000000000000000000000000000000000000000000000000000000000000000000000000000000000000000000000000503201700000000            000000000000000                              000                           
0010001300039T 020180230000001544772 29577050077715376   7               06032017000000000007500001012408                         0900000000000010000000000000000000000000000000000000000   0000000000000000000000000A9        170192957705     
0010001300040U 020000000000000000000000000000000000000000000000000000000000000000000000000000000000000000000000000000000000000000000000000403201700000000            000000000000000                              000                           
0010001300041T 020180230000001544772 29577050081244962   7               0803201700000000000750000103049X                         0900000000000010000000000000000000000000000000000000000   0000000000000000000000000A9        170192957705     
0010001300042U 020000000000000000000000000000000000000000000000000000000000000000000000000000000000000000000000000000000000000000000000000603201700000000            000000000000000                              000                           
0010001300043T 020180230000001544772 29577050084559396   7               07032017000000000007500001012408                         0900000000000010500000000000000000000000000000000000000   0000000000000000000000000A9A4      170192957705     
0010001300044U 020000000000000000000000000000000000000000000000000000000000000000000000000000000000000000000000000000000000000000000000000503201700000000            000000000000000                              000                           
0010001300045T 020180230000001544772 29577050088819697   7               0803201700000000000750000103049X                         0900000000000010000000000000000000000000000000000000000   0000000000000000000000000A9        170192957705     
0010001300046U 020000000000000000000000000000000000000000000000000000000000000000000000000000000000000000000000000000000000000000000000000603201700000000            000000000000000                              000                           
0010001300047T 020180230000001544772 29577050089336091   7               07032017000000000007500001000213                         0900000000000010000000000000000000000000000000000000000   0000000000000000000000000A9        170192957705     
0010001300048U 020000000000000000000000000000000000000000000000000000000000000000000000000000000000000000000000000000000000000000000000000503201700000000            000000000000000                              000                           
0010001300049T 020180230000001544772 29577050093622755   7               08032017000000000007500001000213                         0900000000000010000000000000000000000000000000000000000   0000000000000000000000000A9        170192957705     
0010001300050U 020000000000000000000000000000000000000000000000000000000000000000000000000000000000000000000000000000000000000000000000000603201700000000            000000000000000                              000                           
0010001300051T 020180230000001544772 29577050094630571   7               07032017000000000007500001012416                         0900000000000010000000000000000000000000000000000000000   0000000000000000000000000A9        170192957705     
0010001300052U 020000000000000000000000000000000000000000000000000000000000000000000000000000000000000000000000000000000000000000000000000503201700000000            000000000000000                              000                           
0010001300053T 020180230000001544772 29577050096106417   7               08032017000000000007500001012416                         0900000000000010500000000000000000000000000000000000000   0000000000000000000000000A9A4      170192957705     
0010001300054U 020000000000000000000000000000000000000000000000000000000000000000000000000000000000000000000000000000000000000000000000000603201700000000            000000000000000                              000                           
0010001300055T 020180230000001544772 29577050096134080   7               08032017000000000007500001012416                         0900000000000010500000000000000000000000000000000000000   0000000000000000000000000A9A4      170192957705     
0010001300056U 020000000000000000000000000000000000000000000000000000000000000000000000000000000000000000000000000000000000000000000000000603201700000000            000000000000000                              000                           
0010001300057T 020180230000001544772 29577050100256255   7               0803201700000000000750000103049X                         0900000000000010000000000000000000000000000000000000000   0000000000000000000000000A9        170192957705     
0010001300058U 020000000000000000000000000000000000000000000000000000000000000000000000000000000000000000000000000000000000000000000000000603201700000000            000000000000000                              000                           
0010001300059T 020180230000001544772 29577050112431807   7               0703201700000000000750000103049X                         0900000000000010500000000000000000000000000000000000000   0000000000000000000000000A9A4      170192957705     
0010001300060U 020000000000000000000000000000000000000000000000000000000000000000000000000000000000000000000000000000000000000000000000000503201700000000            000000000000000                              000                           
0010001300061T 020180230000001544772 29577050112506390   7               0703201700000000000750000103049X                         0900000000000010500000000000000000000000000000000000000   0000000000000000000000000A9A4      170192957705     
0010001300062U 020000000000000000000000000000000000000000000000000000000000000000000000000000000000000000000000000000000000000000000000000503201700000000            000000000000000                              000                           
0010001300063T 020180230000001544772 29577050112621303   7               0703201700000000000750000103049X                         0900000000000010500000000000000000000000000000000000000   0000000000000000000000000A9A4      170192957705     
0010001300064U 020000000000000000000000000000000000000000000000000000000000000000000000000000000000000000000000000000000000000000000000000503201700000000            000000000000000                              000                           
0010001300065T 020180230000001544772 29577050124037246   7               08032017000000000007500001005185                         0900000000000010000000000000000000000000000000000000000   0000000000000000000000000A9        170192957705     
0010001300066U 020000000000000000000000000000000000000000000000000000000000000000000000000000000000000000000000000000000000000000000000000603201700000000            000000000000000                              000                           
0010001300067T 020180230000001544772 29577050124628493   7               08032017000000000007500001000213                         0900000000000010000000000000000000000000000000000000000   0000000000000000000000000A9        170192957705     
0010001300068U 020000000000000000000000000000000000000000000000000000000000000000000000000000000000000000000000000000000000000000000000000603201700000000            000000000000000                              000                           
0010001300069T 020180230000001544772 29577050124652780   7               08032017000000000007500001000213                         0900000000000010000000000000000000000000000000000000000   0000000000000000000000000A9        170192957705     
0010001300070U 020000000000000000000000000000000000000000000000000000000000000000000000000000000000000000000000000000000000000000000000000603201700000000            000000000000000                              000                           
0010001300071T 020180230000001544772 29577050134840151   7               07032017000000000010000001012408                         0900000000000010000000000000000000000000000000000000000   0000000000000000000000000A9        170192957705     
0010001300072U 020000000000000000000000000000000000000000000000000000000000000000000000000000000000000000000000000000000000000000000000000503201700000000            000000000000000                              000                           
0010001300073T 020180230000001544772 29577050134845341   7               07032017000000000010000001012408                         0900000000000010000000000000000000000000000000000000000   0000000000000000000000000A9        170192957705     
0010001300074U 020000000000000000000000000000000000000000000000000000000000000000000000000000000000000000000000000000000000000000000000000503201700000000            000000000000000                              000                           
0010001300075T 020180230000001544772 29577050138036538   7               07032017000000000007500001000213                         0900000000000010500000000000000000000000000000000000000   0000000000000000000000000A9A4      170192957705     
0010001300076U 020000000000000000000000000000000000000000000000000000000000000000000000000000000000000000000000000000000000000000000000000503201700000000            000000000000000                              000                           
0010001300077T 020180230000001544772 29577050139219364   7               07032017000000000007500001012416                         0900000000000010000000000000000000000000000000000000000   0000000000000000000000000A9        170192957705     
0010001300078U 020000000000000000000000000000000000000000000000000000000000000000000000000000000000000000000000000000000000000000000000000503201700000000            000000000000000                              000                           
0010001300079T 020180230000001544772 29577050139231240   7               08032017000000000007500001012416                         0900000000000010000000000000000000000000000000000000000   0000000000000000000000000A9        170192957705     
0010001300080U 020000000000000000000000000000000000000000000000000000000000000000000000000000000000000000000000000000000000000000000000000603201700000000            000000000000000                              000                           
0010001300081T 020180230000001544772 29577050141133850   7               0803201700000000000750000103049X                         0900000000000010000000000000000000000000000000000000000   0000000000000000000000000A9        170192957705     
0010001300082U 020000000000000000000000000000000000000000000000000000000000000000000000000000000000000000000000000000000000000000000000000603201700000000            000000000000000                              000                           
0010001300083T 020180230000001544772 29577050156817855   7               07032017000000000007500001000213                         0900000000000010000000000000000000000000000000000000000   0000000000000000000000000A9        170192957705     
0010001300084U 020000000000000000000000000000000000000000000000000000000000000000000000000000000000000000000000000000000000000000000000000503201700000000            000000000000000                              000                           
0010001300085T 020180230000001544772 29577050167129735   7               08032017000000000007500001012408                         0900000000000010500000000000000000000000000000000000000   0000000000000000000000000A9A4      170192957705     
0010001300086U 020000000000000000000000000000000000000000000000000000000000000000000000000000000000000000000000000000000000000000000000000603201700000000            000000000000000                              000                           
0010001300087T 020180230000001544772 29577050170706178   7               08032017000000000007500001012408                         0900000000000010000000000000000000000000000000000000000   0000000000000000000000000A9        170192957705     
0010001300088U 020000000000000000000000000000000000000000000000000000000000000000000000000000000000000000000000000000000000000000000000000603201700000000            000000000000000                              000                           
0010001300089T 020180230000001544772 29577050170857905   7               06032017000000000007500001012408                         0900000000000010000000000000000000000000000000000000000   0000000000000000000000000A9        170192957705     
0010001300090U 020000000000000000000000000000000000000000000000000000000000000000000000000000000000000000000000000000000000000000000000000403201700000000            000000000000000                              000                           
0010001300091T 020180230000001544772 29577050171046541   7               0803201700000000000750000103049X                         0900000000000010000000000000000000000000000000000000000   0000000000000000000000000A9        170192957705     
0010001300092U 020000000000000000000000000000000000000000000000000000000000000000000000000000000000000000000000000000000000000000000000000603201700000000            000000000000000                              000                           
0010001300093T 020180230000001544772 29577050176437008   7               0803201700000000000750000103049X                         0900000000000010000000000000000000000000000000000000000   0000000000000000000000000A9        170192957705     
0010001300094U 020000000000000000000000000000000000000000000000000000000000000000000000000000000000000000000000000000000000000000000000000603201700000000            000000000000000                              000                           
0010001300095T 020180230000001544772 29577050188627644   7               06032017000000000007500001012416                         0900000000000010000000000000000000000000000000000000000   0000000000000000000000000A9        170192957705     
0010001300096U 020000000000000000000000000000000000000000000000000000000000000000000000000000000000000000000000000000000000000000000000000403201700000000            000000000000000                              000                           
0010001300097T 020180230000001544772 29577050197347411   7               08032017000000000007500001000833                         0900000000000010000000000000000000000000000000000000000   0000000000000000000000000A9        170192957705     
0010001300098U 020000000000000000000000000000000000000000000000000000000000000000000000000000000000000000000000000000000000000000000000000603201700000000            000000000000000                              000                           
0010001300099T 020180230000001544772 29577050201139154   7               08032017000000000007500001012416                         0900000000000010000000000000000000000000000000000000000   0000000000000000000000000A9        170192957705     
0010001300100U 020000000000000000000000000000000000000000000000000000000000000000000000000000000000000000000000000000000000000000000000000603201700000000            000000000000000                              000                           
0010001300101T 020180230000001544772 29577050201556749   7               08032017000000000007500001000213                         0900000000000010000000000000000000000000000000000000000   0000000000000000000000000A9        170192957705     
0010001300102U 020000000000000000000000000000000000000000000000000000000000000000000000000000000000000000000000000000000000000000000000000603201700000000            000000000000000                              000                           
0010001300103T 020180230000001544772 29577050204603562   7               0703201700000000000750000103049X                         0900000000000010000000000000000000000000000000000000000   0000000000000000000000000A9        170192957705     
0010001300104U 020000000000000000000000000000000000000000000000000000000000000000000000000000000000000000000000000000000000000000000000000503201700000000            000000000000000                              000                           
0010001300105T 020180230000001544772 29577050205924136   7               08032017000000000007500001012408                         0900000000000010500000000000000000000000000000000000000   0000000000000000000000000A9A4      170192957705     
0010001300106U 020000000000000000000000000000000000000000000000000000000000000000000000000000000000000000000000000000000000000000000000000603201700000000            000000000000000                              000                           
0010001300107T 020180230000001544772 29577050205946664   7               08032017000000000007500001012408                         0900000000000010500000000000000000000000000000000000000   0000000000000000000000000A9A4      170192957705     
0010001300108U 020000000000000000000000000000000000000000000000000000000000000000000000000000000000000000000000000000000000000000000000000603201700000000            000000000000000                              000                           
0010001300109T 020180230000001544772 29577050206005950   7               08032017000000000007500001000213                         0900000000000010000000000000000000000000000000000000000   0000000000000000000000000A9        170192957705     
0010001300110U 020000000000000000000000000000000000000000000000000000000000000000000000000000000000000000000000000000000000000000000000000603201700000000            000000000000000                              000                           
0010001300111T 020180230000001544772 29577050214904647   7               08032017000000000007500001000213                         0900000000000010000000000000000000000000000000000000000   0000000000000000000000000A9        170192957705     
0010001300112U 020000000000000000000000000000000000000000000000000000000000000000000000000000000000000000000000000000000000000000000000000603201700000000            000000000000000                              000                           
0010001300113T 020180230000001544772 29577050216602403   7               0803201700000000000750000103049X                         0900000000000010000000000000000000000000000000000000000   0000000000000000000000000A9        170192957705     
0010001300114U 020000000000000000000000000000000000000000000000000000000000000000000000000000000000000000000000000000000000000000000000000603201700000000            000000000000000                              000                           
0010001300115T 020180230000001544772 29577050216655887   7               0603201700000000000750000103049X                         0900000000000010000000000000000000000000000000000000000   0000000000000000000000000A9        170192957705     
0010001300116U 020000000000000000000000000000000000000000000000000000000000000000000000000000000000000000000000000000000000000000000000000403201700000000            000000000000000                              000                           
0010001300117T 020180230000001544772 29577050219358516   7               08032017000000000007500001012416                         0900000000000010500000000000000000000000000000000000000   0000000000000000000000000A9A4      170192957705     
0010001300118U 020000000000000000000000000000000000000000000000000000000000000000000000000000000000000000000000000000000000000000000000000603201700000000            000000000000000                              000                           
0010001300119T 020180230000001544772 29577050233317668   7               08032017000000000007500001012408                         0900000000000010000000000000000000000000000000000000000   0000000000000000000000000A9        170192957705     
0010001300120U 020000000000000000000000000000000000000000000000000000000000000000000000000000000000000000000000000000000000000000000000000603201700000000            000000000000000                              000                           
0010001300121T 020180230000001544772 29577050239717625   7               08032017000000000010000001014346                         0900000000000010000000000000000000000000000000000000000   0000000000000000000000000A9        170192957705     
0010001300122U 020000000000000000000000000000000000000000000000000000000000000000000000000000000000000000000000000000000000000000000000000603201700000000            000000000000000                              000                           
0010001300123T 020180230000001544772 29577050239719067   7               08032017000000000010000001014346                         0900000000000010000000000000000000000000000000000000000   0000000000000000000000000A9        170192957705     
0010001300124U 020000000000000000000000000000000000000000000000000000000000000000000000000000000000000000000000000000000000000000000000000603201700000000            000000000000000                              000                           
0010001300125T 020180230000001544772 29577050239753043   7               08032017000000000010000001014346                         0900000000000010000000000000000000000000000000000000000   0000000000000000000000000A9        170192957705     
0010001300126U 020000000000000000000000000000000000000000000000000000000000000000000000000000000000000000000000000000000000000000000000000603201700000000            000000000000000                              000                           
0010001300127T 020180230000001544772 29577050248159536   7               08032017000000000007500001000213                         0900000000000010000000000000000000000000000000000000000   0000000000000000000000000A9        170192957705     
0010001300128U 020000000000000000000000000000000000000000000000000000000000000000000000000000000000000000000000000000000000000000000000000603201700000000            000000000000000                              000                           
0010001300129T 020180230000001544772 29577050250515993   7               06032017000000000007500001000213                         0900000000000010500000000000000000000000000000000000000   0000000000000000000000000A9A4      170192957705     
0010001300130U 020000000000000000000000000000000000000000000000000000000000000000000000000000000000000000000000000000000000000000000000000403201700000000            000000000000000                              000                           
0010001300131T 020180230000001544772 29577050255622291   7               08032017000000000007500001000213                         0900000000000010500000000000000000000000000000000000000   0000000000000000000000000A9A4      170192957705     
0010001300132U 020000000000000000000000000000000000000000000000000000000000000000000000000000000000000000000000000000000000000000000000000603201700000000            000000000000000                              000                           
0010001300133T 020180230000001544772 29577050255628999   7               08032017000000000007500001000213                         0900000000000010500000000000000000000000000000000000000   0000000000000000000000000A9A4      170192957705     
0010001300134U 020000000000000000000000000000000000000000000000000000000000000000000000000000000000000000000000000000000000000000000000000603201700000000            000000000000000                              000                           
0010001300135T 020180230000001544772 29577050257220542   7               07032017000000000007500001001120                         0900000000000010000000000000000000000000000000000000000   0000000000000000000000000A9        170192957705     
0010001300136U 020000000000000000000000000000000000000000000000000000000000000000000000000000000000000000000000000000000000000000000000000503201700000000            000000000000000                              000                           
0010001300137T 020180230000001544772 29577050257245558   7               07032017000000000007500001001120                         0900000000000010000000000000000000000000000000000000000   0000000000000000000000000A9        170192957705     
0010001300138U 020000000000000000000000000000000000000000000000000000000000000000000000000000000000000000000000000000000000000000000000000503201700000000            000000000000000                              000                           
0010001300139T 020180230000001544772 29577050259810238   7               0803201700000000000750000103049X                         0900000000000010000000000000000000000000000000000000000   0000000000000000000000000A9        170192957705     
0010001300140U 020000000000000000000000000000000000000000000000000000000000000000000000000000000000000000000000000000000000000000000000000603201700000000            000000000000000                              000                           
0010001300141T 020180230000001544772 29577050259816232   7               0803201700000000000750000103049X                         0900000000000010000000000000000000000000000000000000000   0000000000000000000000000A9        170192957705     
0010001300142U 020000000000000000000000000000000000000000000000000000000000000000000000000000000000000000000000000000000000000000000000000603201700000000            000000000000000                              000                           
0010001300143T 020180230000001544772 29577050269852632   7               08032017000000000007500001000213                         0900000000000010000000000000000000000000000000000000000   0000000000000000000000000A9        170192957705     
0010001300144U 020000000000000000000000000000000000000000000000000000000000000000000000000000000000000000000000000000000000000000000000000603201700000000            000000000000000                              000                           
0010001300145T 020180230000001544772 29577050274729132   7               08032017000000000007500001000833                         0900000000000010000000000000000000000000000000000000000   0000000000000000000000000A9        170192957705     
0010001300146U 020000000000000000000000000000000000000000000000000000000000000000000000000000000000000000000000000000000000000000000000000603201700000000            000000000000000                              000                           
0010001300147T 020180230000001544772 29577050277252243   7               0803201700000000000750000103049X                         0900000000000010000000000000000000000000000000000000000   0000000000000000000000000A9        170192957705     
0010001300148U 020000000000000000000000000000000000000000000000000000000000000000000000000000000000000000000000000000000000000000000000000603201700000000            000000000000000                              000                           
0010001300149T 020180230000001544772 29577050281331547   7               08032017000000000010000001012408                         0900000000000010000000000000000000000000000000000000000   0000000000000000000000000A9        170192957705     
0010001300150U 020000000000000000000000000000000000000000000000000000000000000000000000000000000000000000000000000000000000000000000000000603201700000000            000000000000000                              000                           
0010001300151T 020180230000001544772 29577050283927931   7               07032017000000000007500001012408                         0900000000000010000000000000000000000000000000000000000   0000000000000000000000000A9        170192957705     
0010001300152U 020000000000000000000000000000000000000000000000000000000000000000000000000000000000000000000000000000000000000000000000000503201700000000            000000000000000                              000                           
0010001300153T 020180230000001544772 29577050287334758   7               08032017000000000007500001000833                         0900000000000010000000000000000000000000000000000000000   0000000000000000000000000A9        170192957705     
0010001300154U 020000000000000000000000000000000000000000000000000000000000000000000000000000000000000000000000000000000000000000000000000603201700000000            000000000000000                              000                           
0010001300155T 020180230000001544772 29577050290624556   7               08032017000000000007500001010561                         0900000000000010000000000000000000000000000000000000000   0000000000000000000000000A9        170192957705     
0010001300156U 020000000000000000000000000000000000000000000000000000000000000000000000000000000000000000000000000000000000000000000000000603201700000000            000000000000000                              000                           
0010001300157T 020180230000001544772 29577050290646954   7               08032017000000000007500001010561                         0900000000000010000000000000000000000000000000000000000   0000000000000000000000000A9        170192957705     
0010001300158U 020000000000000000000000000000000000000000000000000000000000000000000000000000000000000000000000000000000000000000000000000603201700000000            000000000000000                              000                           
0010001300159T 020180230000001544772 29577050291821480   7               08032017000000000007500001000213                         0900000000000010000000000000000000000000000000000000000   0000000000000000000000000A9        170192957705     
0010001300160U 020000000000000000000000000000000000000000000000000000000000000000000000000000000000000000000000000000000000000000000000000603201700000000            000000000000000                              000                           
0010001300161T 020180230000001544772 29577050310620165   7               08032017000000000007500001012408                         0900000000000010000000000000000000000000000000000000000   0000000000000000000000000A9        170192957705     
0010001300162U 020000000000000000000000000000000000000000000000000000000000000000000000000000000000000000000000000000000000000000000000000603201700000000            000000000000000                              000                           
0010001300163T 020180230000001544772 29577050310624719   7               08032017000000000007500001012408                         0900000000000010000000000000000000000000000000000000000   0000000000000000000000000A9        170192957705     
0010001300164U 020000000000000000000000000000000000000000000000000000000000000000000000000000000000000000000000000000000000000000000000000603201700000000            000000000000000                              000                           
0010001300165T 020180230000001544772 29577050321317053   7               06032017000000000007500001012408                         0900000000000010000000000000000000000000000000000000000   0000000000000000000000000A9        170192957705     
0010001300166U 020000000000000000000000000000000000000000000000000000000000000000000000000000000000000000000000000000000000000000000000000403201700000000            000000000000000                              000                           
0010001300167T 020180230000001544772 29577050330141214   7               08032017000000000007500001012408                         0900000000000010500000000000000000000000000000000000000   0000000000000000000000000A9A4      170192957705     
0010001300168U 020000000000000000000000000000000000000000000000000000000000000000000000000000000000000000000000000000000000000000000000000603201700000000            000000000000000                              000                           
0010001300169T 020180230000001544772 29577050330201830   7               08032017000000000007500001012408                         0900000000000010500000000000000000000000000000000000000   0000000000000000000000000A9A4      170192957705     
0010001300170U 020000000000000000000000000000000000000000000000000000000000000000000000000000000000000000000000000000000000000000000000000603201700000000            000000000000000                              000                           
0010001300171T 020180230000001544772 29577050335548279   7               08032017000000000007500001009245                         0900000000000010500000000000000000000000000000000000000   0000000000000000000000000A9A4      170192957705     
0010001300172U 020000000000000000000000000000000000000000000000000000000000000000000000000000000000000000000000000000000000000000000000000603201700000000            000000000000000                              000                           
0010001300173T 020180230000001544772 29577050337214289   7               07032017000000000007500001012416                         0900000000000010000000000000000000000000000000000000000   0000000000000000000000000A9        170192957705     
0010001300174U 020000000000000000000000000000000000000000000000000000000000000000000000000000000000000000000000000000000000000000000000000503201700000000            000000000000000                              000                           
0010001300175T 020180230000001544772 29577050342425244   7               07032017000000000007500001000213                         0900000000000010000000000000000000000000000000000000000   0000000000000000000000000A9        170192957705     
0010001300176U 020000000000000000000000000000000000000000000000000000000000000000000000000000000000000000000000000000000000000000000000000503201700000000            000000000000000                              000                           
0010001300177T 020180230000001544772 29577050346042888   7               08032017000000000007500001012408                         0900000000000010000000000000000000000000000000000000000   0000000000000000000000000A9        170192957705     
0010001300178U 020000000000000000000000000000000000000000000000000000000000000000000000000000000000000000000000000000000000000000000000000603201700000000            000000000000000                              000                           
0010001300179T 020180230000001544772 29577050353541003   7               08032017000000000007500001002224                         0900000000000010000000000000000000000000000000000000000   0000000000000000000000000A9        170192957705     
0010001300180U 020000000000000000000000000000000000000000000000000000000000000000000000000000000000000000000000000000000000000000000000000603201700000000            000000000000000                              000                           
0010001300181T 020180230000001544772 29577050357739755   7               08032017000000000007500001000213                         0900000000000010000000000000000000000000000000000000000   0000000000000000000000000A9        170192957705     
0010001300182U 020000000000000000000000000000000000000000000000000000000000000000000000000000000000000000000000000000000000000000000000000603201700000000            000000000000000                              000                           
0010001300183T 020180230000001544772 29577050360356331   7               07032017000000000007500001012408                         0900000000000010500000000000000000000000000000000000000   0000000000000000000000000A9A4      170192957705     
0010001300184U 020000000000000000000000000000000000000000000000000000000000000000000000000000000000000000000000000000000000000000000000000503201700000000            000000000000000                              000                           
0010001300185T 020180230000001544772 29577050369456154   7               08032017000000000007500001000213                         0900000000000010000000000000000000000000000000000000000   0000000000000000000000000A9        170192957705     
0010001300186U 020000000000000000000000000000000000000000000000000000000000000000000000000000000000000000000000000000000000000000000000000603201700000000            000000000000000                              000                           
0010001300187T 020180230000001544772 29577050372042727   7               07032017000000000007500001012408                         0900000000000010000000000000000000000000000000000000000   0000000000000000000000000A9        170192957705     
0010001300188U 020000000000000000000000000000000000000000000000000000000000000000000000000000000000000000000000000000000000000000000000000503201700000000            000000000000000                              000                           
0010001300189T 020180230000001544772 29577050383907481   7               0803201700000000000750000100829X                         0900000000000010000000000000000000000000000000000000000   0000000000000000000000000A9        170192957705     
0010001300190U 020000000000000000000000000000000000000000000000000000000000000000000000000000000000000000000000000000000000000000000000000603201700000000            000000000000000                              000                           
0010001300191T 020180230000001544772 29577050383952793   7               0803201700000000000750000100829X                         0900000000000010000000000000000000000000000000000000000   0000000000000000000000000A9        170192957705     
0010001300192U 020000000000000000000000000000000000000000000000000000000000000000000000000000000000000000000000000000000000000000000000000603201700000000            000000000000000                              000                           
0010001300193T 020180230000001544772 29577050398302263   7               0803201700000000000750000103049X                         0900000000000010000000000000000000000000000000000000000   0000000000000000000000000A9        170192957705     
0010001300194U 020000000000000000000000000000000000000000000000000000000000000000000000000000000000000000000000000000000000000000000000000603201700000000            000000000000000                              000                           
0010001300195T 020180230000001544772 29577050398327641   7               0803201700000000000750000103049X                         0900000000000010000000000000000000000000000000000000000   0000000000000000000000000A9        170192957705     
0010001300196U 020000000000000000000000000000000000000000000000000000000000000000000000000000000000000000000000000000000000000000000000000603201700000000            000000000000000                              000                           
0010001300197T 020180230000001544772 29577050398337105   7               0803201700000000000750000103049X                         0900000000000010000000000000000000000000000000000000000   0000000000000000000000000A9        170192957705     
0010001300198U 020000000000000000000000000000000000000000000000000000000000000000000000000000000000000000000000000000000000000000000000000603201700000000            000000000000000                              000                           
0010001300199T 020180230000001544772 29577050404640328   7               07032017000000000007500001012408                         0900000000000010000000000000000000000000000000000000000   0000000000000000000000000A9        170192957705     
0010001300200U 020000000000000000000000000000000000000000000000000000000000000000000000000000000000000000000000000000000000000000000000000503201700000000            000000000000000                              000                           
0010001300201T 020180230000001544772 29577050404720443   7               0803201700000000000750000103049X                         0900000000000010000000000000000000000000000000000000000   0000000000000000000000000A9        170192957705     
0010001300202U 020000000000000000000000000000000000000000000000000000000000000000000000000000000000000000000000000000000000000000000000000603201700000000            000000000000000                              000                           
0010001300203T 020180230000001544772 29577050412300276   7               0803201700000000000750000100829X                         0900000000000010000000000000000000000000000000000000000   0000000000000000000000000A9        170192957705     
0010001300204U 020000000000000000000000000000000000000000000000000000000000000000000000000000000000000000000000000000000000000000000000000603201700000000            000000000000000                              000                           
0010001300205T 020180230000001544772 29577050416552931   7               08032017000000000007500001012408                         0900000000000010500000000000000000000000000000000000000   0000000000000000000000000A9A4      170192957705     
0010001300206U 020000000000000000000000000000000000000000000000000000000000000000000000000000000000000000000000000000000000000000000000000603201700000000            000000000000000                              000                           
0010001300207T 020180230000001544772 29577050420435103   7               07032017000000000007500001000213                         0900000000000010000000000000000000000000000000000000000   0000000000000000000000000A9        170192957705     
0010001300208U 020000000000000000000000000000000000000000000000000000000000000000000000000000000000000000000000000000000000000000000000000503201700000000            000000000000000                              000                           
0010001300209T 020180230000001544772 29577050423639015   7               08032017000000000007500001046280                         0900000000000010000000000000000000000000000000000000000   0000000000000000000000000A9        170192957705     
0010001300210U 020000000000000000000000000000000000000000000000000000000000000000000000000000000000000000000000000000000000000000000000000603201700000000            000000000000000                              000                           
0010001300211T 020180230000001544772 29577050427701660   7               08032017000000000007500001045578                         0900000000000010000000000000000000000000000000000000000   0000000000000000000000000A9        170192957705     
0010001300212U 020000000000000000000000000000000000000000000000000000000000000000000000000000000000000000000000000000000000000000000000000603201700000000            000000000000000                              000                           
0010001300213T 020180230000001544772 29577050427751949   7               08032017000000000007500001045578                         0900000000000010000000000000000000000000000000000000000   0000000000000000000000000A9        170192957705     
0010001300214U 020000000000000000000000000000000000000000000000000000000000000000000000000000000000000000000000000000000000000000000000000603201700000000            000000000000000                              000                           
0010001300215T 020180230000001544772 29577050427753396   7               08032017000000000007500001045578                         0900000000000010000000000000000000000000000000000000000   0000000000000000000000000A9        170192957705     
0010001300216U 020000000000000000000000000000000000000000000000000000000000000000000000000000000000000000000000000000000000000000000000000603201700000000            000000000000000                              000                           
0010001300217T 020180230000001544772 29577050431918165   7               08032017000000000007500001012416                         0900000000000010000000000000000000000000000000000000000   0000000000000000000000000A9        170192957705     
0010001300218U 020000000000000000000000000000000000000000000000000000000000000000000000000000000000000000000000000000000000000000000000000603201700000000            000000000000000                              000                           
0010001300219T 020180230000001544772 29577050433729811   7               07032017000000000007500001012416                         0900000000000010000000000000000000000000000000000000000   0000000000000000000000000A9        170192957705     
0010001300220U 020000000000000000000000000000000000000000000000000000000000000000000000000000000000000000000000000000000000000000000000000503201700000000            000000000000000                              000                           
0010001300221T 020180230000001544772 29577050433746588   7               07032017000000000007500001012416                         0900000000000010000000000000000000000000000000000000000   0000000000000000000000000A9        170192957705     
0010001300222U 020000000000000000000000000000000000000000000000000000000000000000000000000000000000000000000000000000000000000000000000000503201700000000            000000000000000                              000                           
0010001300223T 020180230000001544772 29577050439108874   7               06032017000000000010000001012408                         0900000000000010000000000000000000000000000000000000000   0000000000000000000000000A9        170192957705     
0010001300224U 020000000000000000000000000000000000000000000000000000000000000000000000000000000000000000000000000000000000000000000000000403201700000000            000000000000000                              000                           
0010001300225T 020180230000001544772 29577050439401387   7               08032017000000000007500001004782                         0900000000000010000000000000000000000000000000000000000   0000000000000000000000000A9        170192957705     
0010001300226U 020000000000000000000000000000000000000000000000000000000000000000000000000000000000000000000000000000000000000000000000000603201700000000            000000000000000                              000                           
0010001300227T 020180230000001544772 29577050439439972   7               08032017000000000007500001004782                         0900000000000010000000000000000000000000000000000000000   0000000000000000000000000A9        170192957705     
0010001300228U 020000000000000000000000000000000000000000000000000000000000000000000000000000000000000000000000000000000000000000000000000603201700000000            000000000000000                              000                           
0010001300229T 020180230000001544772 29577050441504935   7               07032017000000000007500001000213                         0900000000000010000000000000000000000000000000000000000   0000000000000000000000000A9        170192957705     
0010001300230U 020000000000000000000000000000000000000000000000000000000000000000000000000000000000000000000000000000000000000000000000000503201700000000            000000000000000                              000                           
0010001300231T 020180230000001544772 29577050443154061   7               08032017000000000007500001012408                         0900000000000010000000000000000000000000000000000000000   0000000000000000000000000A9        170192957705     
0010001300232U 020000000000000000000000000000000000000000000000000000000000000000000000000000000000000000000000000000000000000000000000000603201700000000            000000000000000                              000                           
0010001300233T 020180230000001544772 29577050455131377   7               08032017000000000007500001004782                         0900000000000010000000000000000000000000000000000000000   0000000000000000000000000A9        170192957705     
0010001300234U 020000000000000000000000000000000000000000000000000000000000000000000000000000000000000000000000000000000000000000000000000603201700000000            000000000000000                              000                           
0010001300235T 020180230000001544772 29577050455142295   7               08032017000000000007500001004782                         0900000000000010000000000000000000000000000000000000000   0000000000000000000000000A9        170192957705     
0010001300236U 020000000000000000000000000000000000000000000000000000000000000000000000000000000000000000000000000000000000000000000000000603201700000000            000000000000000                              000                           
0010001300237T 020180230000001544772 29577050457418008   7               08032017000000000007500001012416                         0900000000000010000000000000000000000000000000000000000   0000000000000000000000000A9        170192957705     
0010001300238U 020000000000000000000000000000000000000000000000000000000000000000000000000000000000000000000000000000000000000000000000000603201700000000            000000000000000                              000                           
0010001300239T 020180230000001544772 29577050457425905   7               08032017000000000007500001012416                         0900000000000010000000000000000000000000000000000000000   0000000000000000000000000A9        170192957705     
0010001300240U 020000000000000000000000000000000000000000000000000000000000000000000000000000000000000000000000000000000000000000000000000603201700000000            000000000000000                              000                           
0010001300241T 020180230000001544772 29577050459241310   7               08032017000000000007500001012416                         0900000000000010000000000000000000000000000000000000000   0000000000000000000000000A9        170192957705     
0010001300242U 020000000000000000000000000000000000000000000000000000000000000000000000000000000000000000000000000000000000000000000000000603201700000000            000000000000000                              000                           
0010001300243T 020180230000001544772 29577050465324120   7               07032017000000000007500001012408                         0900000000000010000000000000000000000000000000000000000   0000000000000000000000000A9        170192957705     
0010001300244U 020000000000000000000000000000000000000000000000000000000000000000000000000000000000000000000000000000000000000000000000000503201700000000            000000000000000                              000                           
0010001300245T 020180230000001544772 29577050467534225   7               0803201700000000000750000103049X                         0900000000000010000000000000000000000000000000000000000   0000000000000000000000000A9        170192957705     
0010001300246U 020000000000000000000000000000000000000000000000000000000000000000000000000000000000000000000000000000000000000000000000000603201700000000            000000000000000                              000                           
0010001300247T 020180230000001544772 29577050469841020   7               08032017000000000007500001012408                         0900000000000010000000000000000000000000000000000000000   0000000000000000000000000A9        170192957705     
0010001300248U 020000000000000000000000000000000000000000000000000000000000000000000000000000000000000000000000000000000000000000000000000603201700000000            000000000000000                              000                           
0010001300249T 020180230000001544772 29577050473709821   7               08032017000000000007500001012408                         0900000000000010000000000000000000000000000000000000000   0000000000000000000000000A9        170192957705     
0010001300250U 020000000000000000000000000000000000000000000000000000000000000000000000000000000000000000000000000000000000000000000000000603201700000000            000000000000000                              000                           
0010001300251T 020180230000001544772 29577050477916424   7               07032017000000000007500001000213                         0900000000000010000000000000000000000000000000000000000   0000000000000000000000000A9        170192957705     
0010001300252U 020000000000000000000000000000000000000000000000000000000000000000000000000000000000000000000000000000000000000000000000000503201700000000            000000000000000                              000                           
0010001300253T 020180230000001544772 29577050477919110   7               07032017000000000007500001000213                         0900000000000010000000000000000000000000000000000000000   0000000000000000000000000A9        170192957705     
0010001300254U 020000000000000000000000000000000000000000000000000000000000000000000000000000000000000000000000000000000000000000000000000503201700000000            000000000000000                              000                           
0010001300255T 020180230000001544772 29577050477922162   7               07032017000000000007500001000213                         0900000000000010000000000000000000000000000000000000000   0000000000000000000000000A9        170192957705     
0010001300256U 020000000000000000000000000000000000000000000000000000000000000000000000000000000000000000000000000000000000000000000000000503201700000000            000000000000000                              000                           
0010001300257T 020180230000001544772 29577050479031967   7               07032017000000000010000001012408                         0900000000000010000000000000000000000000000000000000000   0000000000000000000000000A9        170192957705     
0010001300258U 020000000000000000000000000000000000000000000000000000000000000000000000000000000000000000000000000000000000000000000000000503201700000000            000000000000000                              000                           
0010001300259T 020180230000001544772 29577050487002746   7               08032017000000000007500001012408                         0900000000000010500000000000000000000000000000000000000   0000000000000000000000000A9A4      170192957705     
0010001300260U 020000000000000000000000000000000000000000000000000000000000000000000000000000000000000000000000000000000000000000000000000603201700000000            000000000000000                              000                           
0010001300261T 020180230000001544772 29577050487017632   7               08032017000000000007500001012408                         0900000000000010500000000000000000000000000000000000000   0000000000000000000000000A9A4      170192957705     
0010001300262U 020000000000000000000000000000000000000000000000000000000000000000000000000000000000000000000000000000000000000000000000000603201700000000            000000000000000                              000                           
0010001300263T 020180230000001544772 29577050487041867   7               08032017000000000007500001012408                         0900000000000010500000000000000000000000000000000000000   0000000000000000000000000A9A4      170192957705     
0010001300264U 020000000000000000000000000000000000000000000000000000000000000000000000000000000000000000000000000000000000000000000000000603201700000000            000000000000000                              000                           
0010001300265T 020180230000001544772 29577050492253438   7               08032017000000000007500001001120                         0900000000000010000000000000000000000000000000000000000   0000000000000000000000000A9        170192957705     
0010001300266U 020000000000000000000000000000000000000000000000000000000000000000000000000000000000000000000000000000000000000000000000000603201700000000            000000000000000                              000                           
0010001300267T 020180230000001544772 29577050492910287   7               0703201700000000000750000100829X                         0900000000000010000000000000000000000000000000000000000   0000000000000000000000000A9        170192957705     
0010001300268U 020000000000000000000000000000000000000000000000000000000000000000000000000000000000000000000000000000000000000000000000000503201700000000            000000000000000                              000                           
0010001300269T 020180230000001544772 29577050496703700   7               0803201700000000000750000103049X                         0900000000000010000000000000000000000000000000000000000   0000000000000000000000000A9        170192957705     
0010001300270U 020000000000000000000000000000000000000000000000000000000000000000000000000000000000000000000000000000000000000000000000000603201700000000            000000000000000                              000                           
0010001300271T 020180230000001544772 29577050496851331   7               0803201700000000000750000103049X                         0900000000000010000000000000000000000000000000000000000   0000000000000000000000000A9        170192957705     
0010001300272U 020000000000000000000000000000000000000000000000000000000000000000000000000000000000000000000000000000000000000000000000000603201700000000            000000000000000                              000                           
0010001300273T 020180230000001544772 29577050496857748   7               0803201700000000000750000103049X                         0900000000000010000000000000000000000000000000000000000   0000000000000000000000000A9        170192957705     
0010001300274U 020000000000000000000000000000000000000000000000000000000000000000000000000000000000000000000000000000000000000000000000000603201700000000            000000000000000                              000                           
0010001300275T 020180230000001544772 29577050497257130   7               0803201700000000000750000103049X                         0900000000000010000000000000000000000000000000000000000   0000000000000000000000000A9        170192957705     
0010001300276U 020000000000000000000000000000000000000000000000000000000000000000000000000000000000000000000000000000000000000000000000000603201700000000            000000000000000                              000                           
0010001300277T 020180230000001544772 29577050498743325   7               0803201700000000000750000103049X                         0900000000000010000000000000000000000000000000000000000   0000000000000000000000000A9        170192957705     
0010001300278U 020000000000000000000000000000000000000000000000000000000000000000000000000000000000000000000000000000000000000000000000000603201700000000            000000000000000                              000                           
0010001300279T 020180230000001544772 29577050498757427   7               0703201700000000000750000103049X                         0900000000000010000000000000000000000000000000000000000   0000000000000000000000000A9        170192957705     
0010001300280U 020000000000000000000000000000000000000000000000000000000000000000000000000000000000000000000000000000000000000000000000000503201700000000            000000000000000                              000                           
0010001300281T 020180230000001544772 29577050500755637   7               07032017000000000010000001000213                         0900000000000010000000000000000000000000000000000000000   0000000000000000000000000A9        170192957705     
0010001300282U 020000000000000000000000000000000000000000000000000000000000000000000000000000000000000000000000000000000000000000000000000503201700000000            000000000000000                              000                           
0010001300283T 020180230000001544772 29577050500842262   7               08032017000000000007500001012408                         0900000000000010000000000000000000000000000000000000000   0000000000000000000000000A9        170192957705     
0010001300284U 020000000000000000000000000000000000000000000000000000000000000000000000000000000000000000000000000000000000000000000000000603201700000000            000000000000000                              000                           
0010001300285T 020180230000001544772 29577050502346522   7               08032017000000000007500001012416                         0900000000000010000000000000000000000000000000000000000   0000000000000000000000000A9        170192957705     
0010001300286U 020000000000000000000000000000000000000000000000000000000000000000000000000000000000000000000000000000000000000000000000000603201700000000            000000000000000                              000                           
0010001300287T 020180230000001544772 29577050503213725   7               08032017000000000007500001000213                         0900000000000010000000000000000000000000000000000000000   0000000000000000000000000A9        170192957705     
0010001300288U 020000000000000000000000000000000000000000000000000000000000000000000000000000000000000000000000000000000000000000000000000603201700000000            000000000000000                              000                           
0010001300289T 020180230000001544772 29577050503250597   7               06032017000000000007500001000213                         0900000000000010000000000000000000000000000000000000000   0000000000000000000000000A9        170192957705     
0010001300290U 020000000000000000000000000000000000000000000000000000000000000000000000000000000000000000000000000000000000000000000000000403201700000000            000000000000000                              000                           
0010001300291T 020180230000001544772 29577050503401124   7               06032017000000000007500001000213                         0900000000000010000000000000000000000000000000000000000   0000000000000000000000000A9        170192957705     
0010001300292U 020000000000000000000000000000000000000000000000000000000000000000000000000000000000000000000000000000000000000000000000000403201700000000            000000000000000                              000                           
0010001300293T 020180230000001544772 29577050503412436   7               08032017000000000007500001000213                         0900000000000010000000000000000000000000000000000000000   0000000000000000000000000A9        170192957705     
0010001300294U 020000000000000000000000000000000000000000000000000000000000000000000000000000000000000000000000000000000000000000000000000603201700000000            000000000000000                              000                           
0010001300295T 020180230000001544772 29577050503436408   7               06032017000000000007500001000213                         0900000000000010000000000000000000000000000000000000000   0000000000000000000000000A9        170192957705     
0010001300296U 020000000000000000000000000000000000000000000000000000000000000000000000000000000000000000000000000000000000000000000000000403201700000000            000000000000000                              000                           
0010001300297T 020180230000001544772 29577050503440620   7               06032017000000000007500001000213                         0900000000000010000000000000000000000000000000000000000   0000000000000000000000000A9        170192957705     
0010001300298U 020000000000000000000000000000000000000000000000000000000000000000000000000000000000000000000000000000000000000000000000000403201700000000            000000000000000                              000                           
0010001300299T 020180230000001544772 29577050509913084   7               0803201700000000000750000103049X                         0900000000000010000000000000000000000000000000000000000   0000000000000000000000000A9        170192957705     
0010001300300U 020000000000000000000000000000000000000000000000000000000000000000000000000000000000000000000000000000000000000000000000000603201700000000            000000000000000                              000                           
0010001300301T 020180230000001544772 29577050510619634   7               08032017000000000007500001012408                         0900000000000010000000000000000000000000000000000000000   0000000000000000000000000A9        170192957705     
0010001300302U 020000000000000000000000000000000000000000000000000000000000000000000000000000000000000000000000000000000000000000000000000603201700000000            000000000000000                              000                           
0010001300303T 020180230000001544772 29577050510639549   7               08032017000000000007500001012408                         0900000000000010000000000000000000000000000000000000000   0000000000000000000000000A9        170192957705     
0010001300304U 020000000000000000000000000000000000000000000000000000000000000000000000000000000000000000000000000000000000000000000000000603201700000000            000000000000000                              000                           
0010001300305T 020180230000001544772 29577050513257336   7               0803201700000000000750000103049X                         0900000000000010000000000000000000000000000000000000000   0000000000000000000000000A9        170192957705     
0010001300306U 020000000000000000000000000000000000000000000000000000000000000000000000000000000000000000000000000000000000000000000000000603201700000000            000000000000000                              000                           
0010001300307T 020180230000001544772 29577050514700276   7               0603201700000000000750000103049X                         0900000000000010000000000000000000000000000000000000000   0000000000000000000000000A9        170192957705     
0010001300308U 020000000000000000000000000000000000000000000000000000000000000000000000000000000000000000000000000000000000000000000000000403201700000000            000000000000000                              000                           
0010001300309T 020180230000001544772 29577050514728000   7               0603201700000000000750000103049X                         0900000000000010000000000000000000000000000000000000000   0000000000000000000000000A9        170192957705     
0010001300310U 020000000000000000000000000000000000000000000000000000000000000000000000000000000000000000000000000000000000000000000000000403201700000000            000000000000000                              000                           
0010001300311T 020180230000001544772 29577050516600696   7               0603201700000000000750000103049X                         0900000000000010000000000000000000000000000000000000000   0000000000000000000000000A9        170192957705     
0010001300312U 020000000000000000000000000000000000000000000000000000000000000000000000000000000000000000000000000000000000000000000000000403201700000000            000000000000000                              000                           
0010001300313T 020180230000001544772 29577050516604655   7               0803201700000000000750000103049X                         0900000000000010000000000000000000000000000000000000000   0000000000000000000000000A9        170192957705     
0010001300314U 020000000000000000000000000000000000000000000000000000000000000000000000000000000000000000000000000000000000000000000000000603201700000000            000000000000000                              000                           
0010001300315T 020180230000001544772 29577050527813579   7               0803201700000000000750000103049X                         0900000000000010000000000000000000000000000000000000000   0000000000000000000000000A9        170192957705     
0010001300316U 020000000000000000000000000000000000000000000000000000000000000000000000000000000000000000000000000000000000000000000000000603201700000000            000000000000000                              000                           
0010001300317T 020180230000001544772 29577050527830765   7               0803201700000000000750000103049X                         0900000000000010000000000000000000000000000000000000000   0000000000000000000000000A9        170192957705     
0010001300318U 020000000000000000000000000000000000000000000000000000000000000000000000000000000000000000000000000000000000000000000000000603201700000000            000000000000000                              000                           
0010001300319T 020180230000001544772 29577050566813583   7               07032017000000000007500001012416                         0900000000000010500000000000000000000000000000000000000   0000000000000000000000000A9A4      170192957705     
0010001300320U 020000000000000000000000000000000000000000000000000000000000000000000000000000000000000000000000000000000000000000000000000503201700000000            000000000000000                              000                           
0010001300321T 020180230000001544772 29577050612840723   7               07032017000000000007500001010561                         0900000000000010000000000000000000000000000000000000000   0000000000000000000000000A9        170192957705     
0010001300322U 020000000000000000000000000000000000000000000000000000000000000000000000000000000000000000000000000000000000000000000000000503201700000000            000000000000000                              000                           
0010001300323T 020180230000001544772 29577050612844348   7               06032017000000000007500001010561                         0900000000000010000000000000000000000000000000000000000   0000000000000000000000000A9        170192957705     
0010001300324U 020000000000000000000000000000000000000000000000000000000000000000000000000000000000000000000000000000000000000000000000000403201700000000            000000000000000                              000                           
0010001300325T 020180230000001544772 29577050634228805   7               0803201700000000000750000103049X                         0900000000000010000000000000000000000000000000000000000   0000000000000000000000000A9        170192957705     
0010001300326U 020000000000000000000000000000000000000000000000000000000000000000000000000000000000000000000000000000000000000000000000000603201700000000            000000000000000                              000                           
0010001300327T 020180230000001544772 29577050661353146   7               06032017000000000007500001000213                         0900000000000010000000000000000000000000000000000000000   0000000000000000000000000A9        170192957705     
0010001300328U 020000000000000000000000000000000000000000000000000000000000000000000000000000000000000000000000000000000000000000000000000403201700000000            000000000000000                              000                           
0010001300329T 020180230000001544772 29577050697307754   7               07032017000000000007500001000213                         0900000000000010000000000000000000000000000000000000000   0000000000000000000000000A9        170192957705     
0010001300330U 020000000000000000000000000000000000000000000000000000000000000000000000000000000000000000000000000000000000000000000000000503201700000000            000000000000000                              000                           
0010001300331T 020180230000001544772 29577050700730735   7               0703201700000000000750000103049X                         0900000000000010000000000000000000000000000000000000000   0000000000000000000000000A9        170192957705     
0010001300332U 020000000000000000000000000000000000000000000000000000000000000000000000000000000000000000000000000000000000000000000000000503201700000000            000000000000000                              000                           
0010001300333T 020180230000001544772 29577050714410800   7               08032017000000000010000001030864                         0900000000000010000000000000000000000000000000000000000   0000000000000000000000000A9        170192957705     
0010001300334U 020000000000000000000000000000000000000000000000000000000000000000000000000000000000000000000000000000000000000000000000000603201700000000            000000000000000                              000                           
0010001300335T 020180230000001544772 29577050714416949   7               06032017000000000010000001030864                         0900000000000010000000000000000000000000000000000000000   0000000000000000000000000A9        170192957705     
0010001300336U 020000000000000000000000000000000000000000000000000000000000000000000000000000000000000000000000000000000000000000000000000403201700000000            000000000000000                              000                           
0010001300337T 020180230000001544772 29577050725553215   7               08032017000000000007500001000213                         0900000000000010000000000000000000000000000000000000000   0000000000000000000000000A9        170192957705     
0010001300338U 020000000000000000000000000000000000000000000000000000000000000000000000000000000000000000000000000000000000000000000000000603201700000000            000000000000000                              000                           
0010001300339T 020180230000001544772 29577050725616965   7               08032017000000000007500001000213                         0900000000000010000000000000000000000000000000000000000   0000000000000000000000000A9        170192957705     
0010001300340U 020000000000000000000000000000000000000000000000000000000000000000000000000000000000000000000000000000000000000000000000000603201700000000            000000000000000                              000                           
0010001300341T 020180230000001544772 29577050725739649   7               08032017000000000007500001000213                         0900000000000010000000000000000000000000000000000000000   0000000000000000000000000A9        170192957705     
0010001300342U 020000000000000000000000000000000000000000000000000000000000000000000000000000000000000000000000000000000000000000000000000603201700000000            000000000000000                              000                           
0010001300343T 020180230000001544772 29577050778100809   7               08032017000000000007500001000213                         0900000000000010000000000000000000000000000000000000000   0000000000000000000000000A9        170192957705     
0010001300344U 020000000000000000000000000000000000000000000000000000000000000000000000000000000000000000000000000000000000000000000000000603201700000000            000000000000000                              000                           
0010001300345T 020180230000001544772 29577050778108316   7               06032017000000000007500001000213                         0900000000000010000000000000000000000000000000000000000   0000000000000000000000000A9        170192957705     
0010001300346U 020000000000000000000000000000000000000000000000000000000000000000000000000000000000000000000000000000000000000000000000000403201700000000            000000000000000                              000                           
0010001300347T 020180230000001544772 29577050778146271   7               08032017000000000007500001000213                         0900000000000010000000000000000000000000000000000000000   0000000000000000000000000A9        170192957705     
0010001300348U 020000000000000000000000000000000000000000000000000000000000000000000000000000000000000000000000000000000000000000000000000603201700000000            000000000000000                              000                           
0010001300349T 020180230000001544772 29577050790737895   7               0803201700000000000750000103049X                         0900000000000010000000000000000000000000000000000000000   0000000000000000000000000A9        170192957705     
0010001300350U 020000000000000000000000000000000000000000000000000000000000000000000000000000000000000000000000000000000000000000000000000603201700000000            000000000000000                              000                           
0010001300351T 020180230000001544772 29577050799851987   7               08032017000000000007500001012610                         0900000000000010000000000000000000000000000000000000000   0000000000000000000000000A9        170192957705     
0010001300352U 020000000000000000000000000000000000000000000000000000000000000000000000000000000000000000000000000000000000000000000000000603201700000000            000000000000000                              000                           
0010001300353T 020180230000001544772 29577050804529056   7               08032017000000000007500001004782                         0900000000000010000000000000000000000000000000000000000   0000000000000000000000000A9        170192957705     
0010001300354U 020000000000000000000000000000000000000000000000000000000000000000000000000000000000000000000000000000000000000000000000000603201700000000            000000000000000                              000                           
0010001300355T 020180230000001544772 29577050822452480   7               08032017000000000007500001000213                         0900000000000010000000000000000000000000000000000000000   0000000000000000000000000A9        170192957705     
0010001300356U 020000000000000000000000000000000000000000000000000000000000000000000000000000000000000000000000000000000000000000000000000603201700000000            000000000000000                              000                           
0010001300357T 020180230000001544772 29577050846503528   7               0803201700000000000750000103049X                         0900000000000010000000000000000000000000000000000000000   0000000000000000000000000A9        170192957705     
0010001300358U 020000000000000000000000000000000000000000000000000000000000000000000000000000000000000000000000000000000000000000000000000603201700000000            000000000000000                              000                           
0010001300359T 020180230000001544772 29577050850311307   7               08032017000000000007500001012408                         0900000000000010500000000000000000000000000000000000000   0000000000000000000000000A9A4      170192957705     
0010001300360U 020000000000000000000000000000000000000000000000000000000000000000000000000000000000000000000000000000000000000000000000000603201700000000            000000000000000                              000                           
0010001300361T 020180230000001544772 29577050863105702   7               07032017000000000007500001000213                         0900000000000010000000000000000000000000000000000000000   0000000000000000000000000A9        170192957705     
0010001300362U 020000000000000000000000000000000000000000000000000000000000000000000000000000000000000000000000000000000000000000000000000503201700000000            000000000000000                              000                           
0010001300363T 020180230000001544772 29577050863118732   7               07032017000000000007500001000213                         0900000000000010000000000000000000000000000000000000000   0000000000000000000000000A9        170192957705     
0010001300364U 020000000000000000000000000000000000000000000000000000000000000000000000000000000000000000000000000000000000000000000000000503201700000000            000000000000000                              000                           
0010001300365T 020180230000001544772 29577050863141680   7               06032017000000000007500001000213                         0900000000000010000000000000000000000000000000000000000   0000000000000000000000000A9        170192957705     
0010001300366U 020000000000000000000000000000000000000000000000000000000000000000000000000000000000000000000000000000000000000000000000000403201700000000            000000000000000                              000                           
0010001300367T 020180230000001544772 29577050863149904   7               07032017000000000007500001000213                         0900000000000010000000000000000000000000000000000000000   0000000000000000000000000A9        170192957705     
0010001300368U 020000000000000000000000000000000000000000000000000000000000000000000000000000000000000000000000000000000000000000000000000503201700000000            000000000000000                              000                           
0010001300369T 020180230000001544772 29577050871253355   7               08032017000000000010000001000744                         0900000000000010000000000000000000000000000000000000000   0000000000000000000000000A9        170192957705     
0010001300370U 020000000000000000000000000000000000000000000000000000000000000000000000000000000000000000000000000000000000000000000000000603201700000000            000000000000000                              000                           
0010001300371T 020180230000001544772 29577050881834170   7               06032017000000000007500001012416                         0900000000000010500000000000000000000000000000000000000   0000000000000000000000000A9A4      170192957705     
0010001300372U 020000000000000000000000000000000000000000000000000000000000000000000000000000000000000000000000000000000000000000000000000403201700000000            000000000000000                              000                           
0010001300373T 020180230000001544772 29577050883036229   7               07032017000000000007500001000213                         0900000000000010000000000000000000000000000000000000000   0000000000000000000000000A9        170192957705     
0010001300374U 020000000000000000000000000000000000000000000000000000000000000000000000000000000000000000000000000000000000000000000000000503201700000000            000000000000000                              000                           
0010001300375T 020180230000001544772 29577050885207044   7               0503201700000000000750000103049X                         0900000000000010000000000000000000000000000000000000000   0000000000000000000000000A9        170192957705     
0010001300376U 020000000000000000000000000000000000000000000000000000000000000000000000000000000000000000000000000000000000000000000000000303201700000000            000000000000000                              000                           
0010001300377T 020180230000001544772 29577050885245307   7               0503201700000000000750000103049X                         0900000000000010000000000000000000000000000000000000000   0000000000000000000000000A9        170192957705     
0010001300378U 020000000000000000000000000000000000000000000000000000000000000000000000000000000000000000000000000000000000000000000000000303201700000000            000000000000000                              000                           
0010001300379T 020180230000001544772 29577050887507320   7               06032017000000000007500001000213                         0900000000000010000000000000000000000000000000000000000   0000000000000000000000000A9        170192957705     
0010001300380U 020000000000000000000000000000000000000000000000000000000000000000000000000000000000000000000000000000000000000000000000000403201700000000            000000000000000                              000                           
0010001300381T 020180230000001544772 29577050887558239   7               06032017000000000007500001000213                         0900000000000010000000000000000000000000000000000000000   0000000000000000000000000A9        170192957705     
0010001300382U 020000000000000000000000000000000000000000000000000000000000000000000000000000000000000000000000000000000000000000000000000403201700000000            000000000000000                              000                           
0010001300383T 020180230000001544772 29577050888220819   7               08032017000000000007500001024449                         0900000000000010000000000000000000000000000000000000000   0000000000000000000000000A9        170192957705     
0010001300384U 020000000000000000000000000000000000000000000000000000000000000000000000000000000000000000000000000000000000000000000000000603201700000000            000000000000000                              000                           
0010001300385T 020180230000001544772 29577050903112316   7               0703201700000000000750000100281X                         0900000000000010000000000000000000000000000000000000000   0000000000000000000000000A9        170192957705     
0010001300386U 020000000000000000000000000000000000000000000000000000000000000000000000000000000000000000000000000000000000000000000000000503201700000000            000000000000000                              000                           
0010001300387T 020180230000001544772 29577050903152533   7               0703201700000000000750000100281X                         0900000000000010000000000000000000000000000000000000000   0000000000000000000000000A9        170192957705     
0010001300388U 020000000000000000000000000000000000000000000000000000000000000000000000000000000000000000000000000000000000000000000000000503201700000000            000000000000000                              000                           
0010001300389T 020180230000001544772 29577050905605556   7               0803201700000000000750000103049X                         0900000000000010000000000000000000000000000000000000000   0000000000000000000000000A9        170192957705     
0010001300390U 020000000000000000000000000000000000000000000000000000000000000000000000000000000000000000000000000000000000000000000000000603201700000000            000000000000000                              000                           
0010001300391T 020180230000001544772 29577050905623363   7               0703201700000000000750000103049X                         0900000000000010000000000000000000000000000000000000000   0000000000000000000000000A9        170192957705     
0010001300392U 020000000000000000000000000000000000000000000000000000000000000000000000000000000000000000000000000000000000000000000000000503201700000000            000000000000000                              000                           
0010001300393T 020180230000001544772 29577050905655175   7               0803201700000000000750000103049X                         0900000000000010000000000000000000000000000000000000000   0000000000000000000000000A9        170192957705     
0010001300394U 020000000000000000000000000000000000000000000000000000000000000000000000000000000000000000000000000000000000000000000000000603201700000000            000000000000000                              000                           
0010001300395T 020180230000001544772 29577050908534324   7               07032017000000000007500001002224                         0900000000000010000000000000000000000000000000000000000   0000000000000000000000000A9        170192957705     
0010001300396U 020000000000000000000000000000000000000000000000000000000000000000000000000000000000000000000000000000000000000000000000000503201700000000            000000000000000                              000                           
0010001300397T 020180230000001544772 29577050936737225   7               0803201700000000000750000103049X                         0900000000000010000000000000000000000000000000000000000   0000000000000000000000000A9        170192957705     
0010001300398U 020000000000000000000000000000000000000000000000000000000000000000000000000000000000000000000000000000000000000000000000000603201700000000            000000000000000                              000                           
0010001300399T 020180230000001544772 29577050937452759   7               08032017000000000007500001009245                         0900000000000010000000000000000000000000000000000000000   0000000000000000000000000A9        170192957705     
0010001300400U 020000000000000000000000000000000000000000000000000000000000000000000000000000000000000000000000000000000000000000000000000603201700000000            000000000000000                              000                           
0010001300401T 020180230000001544772 29577050938633057   7               06032017000000000007500001012408                         0900000000000010000000000000000000000000000000000000000   0000000000000000000000000A9        170192957705     
0010001300402U 020000000000000000000000000000000000000000000000000000000000000000000000000000000000000000000000000000000000000000000000000403201700000000            000000000000000                              000                           
0010001300403T 020180230000001544772 29577050944500848   7               08032017000000000007500001012408                         0900000000000010000000000000000000000000000000000000000   0000000000000000000000000A9        170192957705     
0010001300404U 020000000000000000000000000000000000000000000000000000000000000000000000000000000000000000000000000000000000000000000000000603201700000000            000000000000000                              000                           
0010001300405T 020180230000001544772 29577050944535636   7               08032017000000000007500001012408                         0900000000000010000000000000000000000000000000000000000   0000000000000000000000000A9        170192957705     
0010001300406U 020000000000000000000000000000000000000000000000000000000000000000000000000000000000000000000000000000000000000000000000000603201700000000            000000000000000                              000                           
0010001300407T 020180230000001544772 29577050947530204   7               0603201700000000001000000103049X                         0900000000000010000000000000000000000000000000000000000   0000000000000000000000000A9        170192957705     
0010001300408U 020000000000000000000000000000000000000000000000000000000000000000000000000000000000000000000000000000000000000000000000000403201700000000            000000000000000                              000                           
0010001300409T 020180230000001544772 29577050947837206   7               06032017000000000007500001012408                         0900000000000010000000000000000000000000000000000000000   0000000000000000000000000A9        170192957705     
0010001300410U 020000000000000000000000000000000000000000000000000000000000000000000000000000000000000000000000000000000000000000000000000403201700000000            000000000000000                              000                           
0010001300411T 020180230000001544772 29577050952304492   7               08032017000000000007500001000213                         0900000000000010000000000000000000000000000000000000000   0000000000000000000000000A9        170192957705     
0010001300412U 020000000000000000000000000000000000000000000000000000000000000000000000000000000000000000000000000000000000000000000000000603201700000000            000000000000000                              000                           
