00100000         2247745860001000029577050014       0180230000001544772 INSTITUTO DE SELECAO E TECNOLOBANCO DO BRASIL                         20703201701351600012003000000515122941PROCESSAMEN                                                 
00100011T0100020 20247745860001000029577050014       0180230000001544772 INSTITUTO DE SELECAO E TECNOLO                                                                                000000000703201700000000  000000000                      
0010001300001T 020180230000001544772 29577050029614852   7               09032017000000000010000001000213                         0900000000000010000000000000000000000000000000000000000   0000000000000000000000000A9        170192957705     
0010001300002U 020000000000000000000000000000000000000000000000000000000000000000000000000000000000000000000000000000000000000000000000000703201700000000            000000000000000                              000                           
0010001300003T 020180230000001544772 29577050038350131   7               09032017000000000007500001000213                         0900000000000010500000000000000000000000000000000000000   0000000000000000000000000A9A4      170192957705     
0010001300004U 020000000000000000000000000000000000000000000000000000000000000000000000000000000000000000000000000000000000000000000000000703201700000000            000000000000000                              000                           
0010001300005T 020180230000001544772 29577050048757768   7               09032017000000000007500001000213                         0900000000000010000000000000000000000000000000000000000   0000000000000000000000000A9        170192957705     
0010001300006U 020000000000000000000000000000000000000000000000000000000000000000000000000000000000000000000000000000000000000000000000000703201700000000            000000000000000                              000                           
0010001300007T 020180230000001544772 29577050074607351   7               0903201700000000000750000103049X                         0900000000000010000000000000000000000000000000000000000   0000000000000000000000000A9        170192957705     
0010001300008U 020000000000000000000000000000000000000000000000000000000000000000000000000000000000000000000000000000000000000000000000000703201700000000            000000000000000                              000                           
0010001300009T 020180230000001544772 29577050075350190   7               09032017000000000007500001012416                         0900000000000010000000000000000000000000000000000000000   0000000000000000000000000A9        170192957705     
0010001300010U 020000000000000000000000000000000000000000000000000000000000000000000000000000000000000000000000000000000000000000000000000703201700000000            000000000000000                              000                           
0010001300011T 020180230000001544772 29577050080832025   7               08032017000000000007500001004782                         0900000000000010000000000000000000000000000000000000000   0000000000000000000000000A9        170192957705     
0010001300012U 020000000000000000000000000000000000000000000000000000000000000000000000000000000000000000000000000000000000000000000000000603201700000000            000000000000000                              000                           
0010001300013T 020180230000001544772 29577050081248012   7               0903201700000000000750000103049X                         0900000000000010000000000000000000000000000000000000000   0000000000000000000000000A9        170192957705     
0010001300014U 020000000000000000000000000000000000000000000000000000000000000000000000000000000000000000000000000000000000000000000000000703201700000000            000000000000000                              000                           
0010001300015T 020180230000001544772 29577050088822652   7               0903201700000000000750000103049X                         0900000000000010000000000000000000000000000000000000000   0000000000000000000000000A9        170192957705     
0010001300016U 020000000000000000000000000000000000000000000000000000000000000000000000000000000000000000000000000000000000000000000000000703201700000000            000000000000000                              000                           
0010001300017T 020180230000001544772 29577050094953982   7               09032017000000000007500001000213                         0900000000000010000000000000000000000000000000000000000   0000000000000000000000000A9        170192957705     
0010001300018U 020000000000000000000000000000000000000000000000000000000000000000000000000000000000000000000000000000000000000000000000000703201700000000            000000000000000                              000                           
0010001300019T 020180230000001544772 29577050095339418   7               09032017000000000007500001000213                         0900000000000010000000000000000000000000000000000000000   0000000000000000000000000A9        170192957705     
0010001300020U 020000000000000000000000000000000000000000000000000000000000000000000000000000000000000000000000000000000000000000000000000703201700000000            000000000000000                              000                           
0010001300021T 020180230000001544772 29577050135751859   7               09032017000000000007500001012408                         0900000000000010000000000000000000000000000000000000000   0000000000000000000000000A9        170192957705     
0010001300022U 020000000000000000000000000000000000000000000000000000000000000000000000000000000000000000000000000000000000000000000000000703201700000000            000000000000000                              000                           
0010001300023T 020180230000001544772 29577050149443391   7               09032017000000000007500001012408                         0900000000000010000000000000000000000000000000000000000   0000000000000000000000000A9        170192957705     
0010001300024U 020000000000000000000000000000000000000000000000000000000000000000000000000000000000000000000000000000000000000000000000000703201700000000            000000000000000                              000                           
0010001300025T 020180230000001544772 29577050151134169   7               09032017000000000007500001000213                         0900000000000010000000000000000000000000000000000000000   0000000000000000000000000A9        170192957705     
0010001300026U 020000000000000000000000000000000000000000000000000000000000000000000000000000000000000000000000000000000000000000000000000703201700000000            000000000000000                              000                           
0010001300027T 020180230000001544772 29577050181341053   7               09032017000000000007500001012408                         0900000000000010500000000000000000000000000000000000000   0000000000000000000000000A9A4      170192957705     
0010001300028U 020000000000000000000000000000000000000000000000000000000000000000000000000000000000000000000000000000000000000000000000000703201700000000            000000000000000                              000                           
0010001300029T 020180230000001544772 29577050198214010   7               09032017000000000007500001009245                         0900000000000010000000000000000000000000000000000000000   0000000000000000000000000A9        170192957705     
0010001300030U 020000000000000000000000000000000000000000000000000000000000000000000000000000000000000000000000000000000000000000000000000703201700000000            000000000000000                              000                           
0010001300031T 020180230000001544772 29577050225806650   7               09032017000000000007500001000213                         0900000000000010000000000000000000000000000000000000000   0000000000000000000000000A9        170192957705     
0010001300032U 020000000000000000000000000000000000000000000000000000000000000000000000000000000000000000000000000000000000000000000000000703201700000000            000000000000000                              000                           
0010001300033T 020180230000001544772 29577050234812696   7               09032017000000000007500001046280                         0900000000000010000000000000000000000000000000000000000   0000000000000000000000000A9        170192957705     
0010001300034U 020000000000000000000000000000000000000000000000000000000000000000000000000000000000000000000000000000000000000000000000000703201700000000            000000000000000                              000                           
0010001300035T 020180230000001544772 29577050234823259   7               09032017000000000007500001046280                         0900000000000010000000000000000000000000000000000000000   0000000000000000000000000A9        170192957705     
0010001300036U 020000000000000000000000000000000000000000000000000000000000000000000000000000000000000000000000000000000000000000000000000703201700000000            000000000000000                              000                           
0010001300037T 020180230000001544772 29577050234858213   7               09032017000000000007500001046280                         0900000000000010000000000000000000000000000000000000000   0000000000000000000000000A9        170192957705     
0010001300038U 020000000000000000000000000000000000000000000000000000000000000000000000000000000000000000000000000000000000000000000000000703201700000000            000000000000000                              000                           
0010001300039T 020180230000001544772 29577050250416800   7               0903201700000000000750000103049X                         0900000000000010000000000000000000000000000000000000000   0000000000000000000000000A9        170192957705     
0010001300040U 020000000000000000000000000000000000000000000000000000000000000000000000000000000000000000000000000000000000000000000000000703201700000000            000000000000000                              000                           
0010001300041T 020180230000001544772 29577050250530356   7               09032017000000000007500001000213                         0900000000000010500000000000000000000000000000000000000   0000000000000000000000000A9A4      170192957705     
0010001300042U 020000000000000000000000000000000000000000000000000000000000000000000000000000000000000000000000000000000000000000000000000703201700000000            000000000000000                              000                           
0010001300043T 020180230000001544772 29577050250531675   7               09032017000000000007500001000213                         0900000000000010500000000000000000000000000000000000000   0000000000000000000000000A9A4      170192957705     
0010001300044U 020000000000000000000000000000000000000000000000000000000000000000000000000000000000000000000000000000000000000000000000000703201700000000            000000000000000                              000                           
0010001300045T 020180230000001544772 29577050281359360   7               09032017000000000010000001012408                         0900000000000010000000000000000000000000000000000000000   0000000000000000000000000A9        170192957705     
0010001300046U 020000000000000000000000000000000000000000000000000000000000000000000000000000000000000000000000000000000000000000000000000703201700000000            000000000000000                              000                           
0010001300047T 020180230000001544772 29577050285707518   7               09032017000000000007500001000213                         0900000000000010500000000000000000000000000000000000000   0000000000000000000000000A9A4      170192957705     
0010001300048U 020000000000000000000000000000000000000000000000000000000000000000000000000000000000000000000000000000000000000000000000000703201700000000            000000000000000                              000                           
0010001300049T 020180230000001544772 29577050285713312   7               08032017000000000007500001000213                         0900000000000010500000000000000000000000000000000000000   0000000000000000000000000A9A4      170192957705     
0010001300050U 020000000000000000000000000000000000000000000000000000000000000000000000000000000000000000000000000000000000000000000000000603201700000000            000000000000000                              000                           
0010001300051T 020180230000001544772 29577050312213382   7               09032017000000000007500001012408                         0900000000000010500000000000000000000000000000000000000   0000000000000000000000000A9A4      170192957705     
0010001300052U 020000000000000000000000000000000000000000000000000000000000000000000000000000000000000000000000000000000000000000000000000703201700000000            000000000000000                              000                           
0010001300053T 020180230000001544772 29577050314253976   7               09032017000000000007500001000213                         0900000000000010000000000000000000000000000000000000000   0000000000000000000000000A9        170192957705     
0010001300054U 020000000000000000000000000000000000000000000000000000000000000000000000000000000000000000000000000000000000000000000000000703201700000000            000000000000000                              000                           
0010001300055T 020180230000001544772 29577050321433644   7               0903201700000000000750000103049X                         0900000000000010000000000000000000000000000000000000000   0000000000000000000000000A9        170192957705     
0010001300056U 020000000000000000000000000000000000000000000000000000000000000000000000000000000000000000000000000000000000000000000000000703201700000000            000000000000000                              000                           
0010001300057T 020180230000001544772 29577050326510157   7               09032017000000000010000001000620                         0900000000000010000000000000000000000000000000000000000   0000000000000000000000000A9        170192957705     
0010001300058U 020000000000000000000000000000000000000000000000000000000000000000000000000000000000000000000000000000000000000000000000000703201700000000            000000000000000                              000                           
0010001300059T 020180230000001544772 29577050338617446   7               09032017000000000007500001024511                         0900000000000010000000000000000000000000000000000000000   0000000000000000000000000A9        170192957705     
0010001300060U 020000000000000000000000000000000000000000000000000000000000000000000000000000000000000000000000000000000000000000000000000703201700000000            000000000000000                              000                           
0010001300061T 020180230000001544772 29577050345001534   7               09032017000000000007500001012416                         0900000000000010000000000000000000000000000000000000000   0000000000000000000000000A9        170192957705     
0010001300062U 020000000000000000000000000000000000000000000000000000000000000000000000000000000000000000000000000000000000000000000000000703201700000000            000000000000000                              000                           
0010001300063T 020180230000001544772 29577050345015684   7               09032017000000000007500001012416                         0900000000000010000000000000000000000000000000000000000   0000000000000000000000000A9        170192957705     
0010001300064U 020000000000000000000000000000000000000000000000000000000000000000000000000000000000000000000000000000000000000000000000000703201700000000            000000000000000                              000                           
0010001300065T 020180230000001544772 29577050345038085   7               09032017000000000007500001012416                         0900000000000010000000000000000000000000000000000000000   0000000000000000000000000A9        170192957705     
0010001300066U 020000000000000000000000000000000000000000000000000000000000000000000000000000000000000000000000000000000000000000000000000703201700000000            000000000000000                              000                           
0010001300067T 020180230000001544772 29577050369425664   7               09032017000000000007500001000213                         0900000000000010000000000000000000000000000000000000000   0000000000000000000000000A9        170192957705     
0010001300068U 020000000000000000000000000000000000000000000000000000000000000000000000000000000000000000000000000000000000000000000000000703201700000000            000000000000000                              000                           
0010001300069T 020180230000001544772 29577050372617075   7               0903201700000000000750000103049X                         0900000000000010000000000000000000000000000000000000000   0000000000000000000000000A9        170192957705     
0010001300070U 020000000000000000000000000000000000000000000000000000000000000000000000000000000000000000000000000000000000000000000000000703201700000000            000000000000000                              000                           
0010001300071T 020180230000001544772 29577050381342841   7               09032017000000000007500001012416                         0900000000000010000000000000000000000000000000000000000   0000000000000000000000000A9        170192957705     
0010001300072U 020000000000000000000000000000000000000000000000000000000000000000000000000000000000000000000000000000000000000000000000000703201700000000            000000000000000                              000                           
0010001300073T 020180230000001544772 29577050383954728   7               0903201700000000000750000100829X                         0900000000000010000000000000000000000000000000000000000   0000000000000000000000000A9        170192957705     
0010001300074U 020000000000000000000000000000000000000000000000000000000000000000000000000000000000000000000000000000000000000000000000000703201700000000            000000000000000                              000                           
0010001300075T 020180230000001544772 29577050391642994   7               09032017000000000007500001012416                         0900000000000010000000000000000000000000000000000000000   0000000000000000000000000A9        170192957705     
0010001300076U 020000000000000000000000000000000000000000000000000000000000000000000000000000000000000000000000000000000000000000000000000703201700000000            000000000000000                              000                           
0010001300077T 020180230000001544772 29577050398307429   7               0903201700000000000750000103049X                         0900000000000010000000000000000000000000000000000000000   0000000000000000000000000A9        170192957705     
0010001300078U 020000000000000000000000000000000000000000000000000000000000000000000000000000000000000000000000000000000000000000000000000703201700000000            000000000000000                              000                           
0010001300079T 020180230000001544772 29577050420428327   7               09032017000000000007500001000213                         0900000000000010000000000000000000000000000000000000000   0000000000000000000000000A9        170192957705     
0010001300080U 020000000000000000000000000000000000000000000000000000000000000000000000000000000000000000000000000000000000000000000000000703201700000000            000000000000000                              000                           
0010001300081T 020180230000001544772 29577050425533035   7               08032017000000000007500001000833                         0900000000000010000000000000000000000000000000000000000   0000000000000000000000000A9        170192957705     
0010001300082U 020000000000000000000000000000000000000000000000000000000000000000000000000000000000000000000000000000000000000000000000000603201700000000            000000000000000                              000                           
0010001300083T 020180230000001544772 29577050427707604   7               09032017000000000007500001045578                         0900000000000010000000000000000000000000000000000000000   0000000000000000000000000A9        170192957705     
0010001300084U 020000000000000000000000000000000000000000000000000000000000000000000000000000000000000000000000000000000000000000000000000703201700000000            000000000000000                              000                           
0010001300085T 020180230000001544772 29577050427719105   7               09032017000000000007500001045578                         0900000000000010000000000000000000000000000000000000000   0000000000000000000000000A9        170192957705     
0010001300086U 020000000000000000000000000000000000000000000000000000000000000000000000000000000000000000000000000000000000000000000000000703201700000000            000000000000000                              000                           
0010001300087T 020180230000001544772 29577050456653259   7               08032017000000000007500001000213                         0900000000000010000000000000000000000000000000000000000   0000000000000000000000000A9        170192957705     
0010001300088U 020000000000000000000000000000000000000000000000000000000000000000000000000000000000000000000000000000000000000000000000000603201700000000            000000000000000                              000                           
0010001300089T 020180230000001544772 29577050456723627   7               08032017000000000007500001000213                         0900000000000010000000000000000000000000000000000000000   0000000000000000000000000A9        170192957705     
0010001300090U 020000000000000000000000000000000000000000000000000000000000000000000000000000000000000000000000000000000000000000000000000603201700000000            000000000000000                              000                           
0010001300091T 020180230000001544772 29577050456823290   7               08032017000000000007500001000213                         0900000000000010000000000000000000000000000000000000000   0000000000000000000000000A9        170192957705     
0010001300092U 020000000000000000000000000000000000000000000000000000000000000000000000000000000000000000000000000000000000000000000000000603201700000000            000000000000000                              000                           
0010001300093T 020180230000001544772 29577050467330031   7               09032017000000000007500001012408                         0900000000000010000000000000000000000000000000000000000   0000000000000000000000000A9        170192957705     
0010001300094U 020000000000000000000000000000000000000000000000000000000000000000000000000000000000000000000000000000000000000000000000000703201700000000            000000000000000                              000                           
0010001300095T 020180230000001544772 29577050467510833   7               0903201700000000000750000103049X                         0900000000000010000000000000000000000000000000000000000   0000000000000000000000000A9        170192957705     
0010001300096U 020000000000000000000000000000000000000000000000000000000000000000000000000000000000000000000000000000000000000000000000000703201700000000            000000000000000                              000                           
0010001300097T 020180230000001544772 29577050467530979   7               0903201700000000000750000103049X                         0900000000000010000000000000000000000000000000000000000   0000000000000000000000000A9        170192957705     
0010001300098U 020000000000000000000000000000000000000000000000000000000000000000000000000000000000000000000000000000000000000000000000000703201700000000            000000000000000                              000                           
0010001300099T 020180230000001544772 29577050472713277   7               09032017000000000007500001000213                         0900000000000010000000000000000000000000000000000000000   0000000000000000000000000A9        170192957705     
0010001300100U 020000000000000000000000000000000000000000000000000000000000000000000000000000000000000000000000000000000000000000000000000703201700000000            000000000000000                              000                           
0010001300101T 020180230000001544772 29577050473400201   7               0903201700000000000750000103049X                         0900000000000010000000000000000000000000000000000000000   0000000000000000000000000A9        170192957705     
0010001300102U 020000000000000000000000000000000000000000000000000000000000000000000000000000000000000000000000000000000000000000000000000703201700000000            000000000000000                              000                           
0010001300103T 020180230000001544772 29577050482957246   7               09032017000000000007500001012408                         0900000000000010000000000000000000000000000000000000000   0000000000000000000000000A9        170192957705     
0010001300104U 020000000000000000000000000000000000000000000000000000000000000000000000000000000000000000000000000000000000000000000000000703201700000000            000000000000000                              000                           
0010001300105T 020180230000001544772 29577050484513563   7               09032017000000000007500001012408                         0900000000000010000000000000000000000000000000000000000   0000000000000000000000000A9        170192957705     
0010001300106U 020000000000000000000000000000000000000000000000000000000000000000000000000000000000000000000000000000000000000000000000000703201700000000            000000000000000                              000                           
0010001300107T 020180230000001544772 29577050495030569   7               09032017000000000007500001012408                         0900000000000010000000000000000000000000000000000000000   0000000000000000000000000A9        170192957705     
0010001300108U 020000000000000000000000000000000000000000000000000000000000000000000000000000000000000000000000000000000000000000000000000703201700000000            000000000000000                              000                           
0010001300109T 020180230000001544772 29577050500347060   7               09032017000000000010000001004804                         0900000000000010000000000000000000000000000000000000000   0000000000000000000000000A9        170192957705     
0010001300110U 020000000000000000000000000000000000000000000000000000000000000000000000000000000000000000000000000000000000000000000000000703201700000000            000000000000000                              000                           
0010001300111T 020180230000001544772 29577050512044669   7               0903201700000000000750000103049X                         0900000000000010000000000000000000000000000000000000000   0000000000000000000000000A9        170192957705     
0010001300112U 020000000000000000000000000000000000000000000000000000000000000000000000000000000000000000000000000000000000000000000000000703201700000000            000000000000000                              000                           
0010001300113T 020180230000001544772 29577050530335231   7               09032017000000000007500001012408                         0900000000000010000000000000000000000000000000000000000   0000000000000000000000000A9        170192957705     
0010001300114U 020000000000000000000000000000000000000000000000000000000000000000000000000000000000000000000000000000000000000000000000000703201700000000            000000000000000                              000                           
0010001300115T 020180230000001544772 29577050538901397   7               09032017000000000007500001000213                         0900000000000010000000000000000000000000000000000000000   0000000000000000000000000A9        170192957705     
0010001300116U 020000000000000000000000000000000000000000000000000000000000000000000000000000000000000000000000000000000000000000000000000703201700000000            000000000000000                              000                           
0010001300117T 020180230000001544772 29577050603906252   7               0903201700000000000750000103049X                         0900000000000010000000000000000000000000000000000000000   0000000000000000000000000A9        170192957705     
0010001300118U 020000000000000000000000000000000000000000000000000000000000000000000000000000000000000000000000000000000000000000000000000703201700000000            000000000000000                              000                           
0010001300119T 020180230000001544772 29577050603919277   7               0903201700000000000750000103049X                         0900000000000010000000000000000000000000000000000000000   0000000000000000000000000A9        170192957705     
0010001300120U 020000000000000000000000000000000000000000000000000000000000000000000000000000000000000000000000000000000000000000000000000703201700000000            000000000000000                              000                           
0010001300121T 020180230000001544772 29577050603927124   7               0903201700000000000750000103049X                         0900000000000010000000000000000000000000000000000000000   0000000000000000000000000A9        170192957705     
0010001300122U 020000000000000000000000000000000000000000000000000000000000000000000000000000000000000000000000000000000000000000000000000703201700000000            000000000000000                              000                           
0010001300123T 020180230000001544772 29577050603954964   7               0903201700000000000750000103049X                         0900000000000010000000000000000000000000000000000000000   0000000000000000000000000A9        170192957705     
0010001300124U 020000000000000000000000000000000000000000000000000000000000000000000000000000000000000000000000000000000000000000000000000703201700000000            000000000000000                              000                           
0010001300125T 020180230000001544772 29577050674229621   7               09032017000000000007500001012416                         0900000000000010000000000000000000000000000000000000000   0000000000000000000000000A9        170192957705     
0010001300126U 020000000000000000000000000000000000000000000000000000000000000000000000000000000000000000000000000000000000000000000000000703201700000000            000000000000000                              000                           
0010001300127T 020180230000001544772 29577050705635457   7               0903201700000000000750000103049X                         0900000000000010000000000000000000000000000000000000000   0000000000000000000000000A9        170192957705     
0010001300128U 020000000000000000000000000000000000000000000000000000000000000000000000000000000000000000000000000000000000000000000000000703201700000000            000000000000000                              000                           
0010001300129T 020180230000001544772 29577050757459598   7               09032017000000000007500001001554                         0900000000000010000000000000000000000000000000000000000   0000000000000000000000000A9        170192957705     
0010001300130U 020000000000000000000000000000000000000000000000000000000000000000000000000000000000000000000000000000000000000000000000000703201700000000            000000000000000                              000                           
0010001300131T 020180230000001544772 29577050771852467   7               09032017000000000007500001012408                         0900000000000010000000000000000000000000000000000000000   0000000000000000000000000A9        170192957705     
0010001300132U 020000000000000000000000000000000000000000000000000000000000000000000000000000000000000000000000000000000000000000000000000703201700000000            000000000000000                              000                           
0010001300133T 020180230000001544772 29577050803045250   7               0903201700000000000750000100460X                         0900000000000010000000000000000000000000000000000000000   0000000000000000000000000A9        170192957705     
0010001300134U 020000000000000000000000000000000000000000000000000000000000000000000000000000000000000000000000000000000000000000000000000703201700000000            000000000000000                              000                           
0010001300135T 020180230000001544772 29577050846518341   7               0903201700000000000750000103049X                         0900000000000010000000000000000000000000000000000000000   0000000000000000000000000A9        170192957705     
0010001300136U 020000000000000000000000000000000000000000000000000000000000000000000000000000000000000000000000000000000000000000000000000703201700000000            000000000000000                              000                           
0010001300137T 020180230000001544772 29577050881822187   7               08032017000000000007500001012416                         0900000000000010500000000000000000000000000000000000000   0000000000000000000000000A9A4      170192957705     
0010001300138U 020000000000000000000000000000000000000000000000000000000000000000000000000000000000000000000000000000000000000000000000000603201700000000            000000000000000                              000                           
0010001300139T 020180230000001544772 29577050905631403   7               0903201700000000000750000103049X                         0900000000000010000000000000000000000000000000000000000   0000000000000000000000000A9        170192957705     
0010001300140U 020000000000000000000000000000000000000000000000000000000000000000000000000000000000000000000000000000000000000000000000000703201700000000            000000000000000                              000                           
0010001300141T 020180230000001544772 29577050905651060   7               0903201700000000000750000103049X                         0900000000000010000000000000000000000000000000000000000   0000000000000000000000000A9        170192957705     
0010001300142U 020000000000000000000000000000000000000000000000000000000000000000000000000000000000000000000000000000000000000000000000000703201700000000            000000000000000                              000                           
0010001300143T 020180230000001544772 29577050947838801   7               09032017000000000007500001012408                         0900000000000010000000000000000000000000000000000000000   0000000000000000000000000A9        170192957705     
0010001300144U 020000000000000000000000000000000000000000000000000000000000000000000000000000000000000000000000000000000000000000000000000703201700000000            000000000000000                              000                           
0010001300145T 020180230000001544772 29577050980928506   7               08032017000000000007500001012416                         0900000000000010000000000000000000000000000000000000000   0000000000000000000000000A9        170192957705     
0010001300146U 020000000000000000000000000000000000000000000000000000000000000000000000000000000000000000000000000000000000000000000000000603201700000000            000000000000000                              000                           
0010001300147T 020180230000001544772 29577050980947938   7               09032017000000000007500001012416                         0900000000000010000000000000000000000000000000000000000   0000000000000000000000000A9        170192957705     
0010001300148U 020000000000000000000000000000000000000000000000000000000000000000000000000000000000000000000000000000000000000000000000000703201700000000            000000000000000                              000                           
0010001300149T 020180230000001544772 29577051000208411   7               09032017000000000007500001012416                         0900000000000010500000000000000000000000000000000000000   0000000000000000000000000A9A4      170192957705     
0010001300150U 020000000000000000000000000000000000000000000000000000000000000000000000000000000000000000000000000000000000000000000000000703201700000000            000000000000000                              000                           
0010001300151T 020180230000001544772 29577051001323315   7               09032017000000000007500001000213                         0900000000000010000000000000000000000000000000000000000   0000000000000000000000000A9        170192957705     
0010001300152U 020000000000000000000000000000000000000000000000000000000000000000000000000000000000000000000000000000000000000000000000000703201700000000            000000000000000                              000                           
0010001300153T 020180230000001544772 29577051018721866   7               09032017000000000007500001000213                         0900000000000010000000000000000000000000000000000000000   0000000000000000000000000A9        170192957705     
0010001300154U 020000000000000000000000000000000000000000000000000000000000000000000000000000000000000000000000000000000000000000000000000703201700000000            000000000000000                              000                           
0010001300155T 020180230000001544772 29577051034649290   7               0903201700000000000750000103049X                         0900000000000010000000000000000000000000000000000000000   0000000000000000000000000A9        170192957705     
0010001300156U 020000000000000000000000000000000000000000000000000000000000000000000000000000000000000000000000000000000000000000000000000703201700000000            000000000000000                              000                           
0010001300157T 020180230000001544772 29577051038548909   7               0903201700000000000750000100281X                         0900000000000010000000000000000000000000000000000000000   0000000000000000000000000A9        170192957705     
0010001300158U 020000000000000000000000000000000000000000000000000000000000000000000000000000000000000000000000000000000000000000000000000703201700000000            000000000000000                              000                           
0010001300159T 020180230000001544772 29577051040930610   7               09032017000000000007500001045578                         0900000000000010000000000000000000000000000000000000000   0000000000000000000000000A9        170192957705     
0010001300160U 020000000000000000000000000000000000000000000000000000000000000000000000000000000000000000000000000000000000000000000000000703201700000000            000000000000000                              000                           
0010001300161T 020180230000001544772 29577051043049474   7               09032017000000000007500001000213                         0900000000000010000000000000000000000000000000000000000   0000000000000000000000000A9        170192957705     
0010001300162U 020000000000000000000000000000000000000000000000000000000000000000000000000000000000000000000000000000000000000000000000000703201700000000            000000000000000                              000                           
0010001300163T 020180230000001544772 29577051044328638   7               09032017000000000007500001000213                         0900000000000010000000000000000000000000000000000000000   0000000000000000000000000A9        170192957705     
0010001300164U 020000000000000000000000000000000000000000000000000000000000000000000000000000000000000000000000000000000000000000000000000703201700000000            000000000000000                              000                           
0010001300165T 020180230000001544772 29577051058730040   7               0903201700000000000750000100166X                         0900000000000010500000000000000000000000000000000000000   0000000000000000000000000A9A4      170192957705     
0010001300166U 020000000000000000000000000000000000000000000000000000000000000000000000000000000000000000000000000000000000000000000000000703201700000000            000000000000000                              000                           
0010001300167T 020180230000001544772 29577051058859424   7               0903201700000000000750000100281X                         0900000000000010000000000000000000000000000000000000000   0000000000000000000000000A9        170192957705     
0010001300168U 020000000000000000000000000000000000000000000000000000000000000000000000000000000000000000000000000000000000000000000000000703201700000000            000000000000000                              000                           
0010001300169T 020180230000001544772 29577051060159666   7               09032017000000000007500001000833                         0900000000000010000000000000000000000000000000000000000   0000000000000000000000000A9        170192957705     
0010001300170U 020000000000000000000000000000000000000000000000000000000000000000000000000000000000000000000000000000000000000000000000000703201700000000            000000000000000                              000                           
0010001300171T 020180230000001544772 29577051060249599   7               09032017000000000007500001000833                         0900000000000010000000000000000000000000000000000000000   0000000000000000000000000A9        170192957705     
0010001300172U 020000000000000000000000000000000000000000000000000000000000000000000000000000000000000000000000000000000000000000000000000703201700000000            000000000000000                              000                           
0010001300173T 020180230000001544772 29577051063200253   7               09032017000000000007500001012408                         0900000000000010500000000000000000000000000000000000000   0000000000000000000000000A9A4      170192957705     
0010001300174U 020000000000000000000000000000000000000000000000000000000000000000000000000000000000000000000000000000000000000000000000000703201700000000            000000000000000                              000                           
0010001300175T 020180230000001544772 29577051063425859   7               0903201700000000000750000103049X                         0900000000000010000000000000000000000000000000000000000   0000000000000000000000000A9        170192957705     
0010001300176U 020000000000000000000000000000000000000000000000000000000000000000000000000000000000000000000000000000000000000000000000000703201700000000            000000000000000                              000                           
0010001300177T 020180230000001544772 29577051064641592   7               09032017000000000010000001012408                         0900000000000010000000000000000000000000000000000000000   0000000000000000000000000A9        170192957705     
0010001300178U 020000000000000000000000000000000000000000000000000000000000000000000000000000000000000000000000000000000000000000000000000703201700000000            000000000000000                              000                           
0010001300179T 020180230000001544772 29577051083748996   7               09032017000000000007500001012408                         0900000000000010000000000000000000000000000000000000000   0000000000000000000000000A9        170192957705     
0010001300180U 020000000000000000000000000000000000000000000000000000000000000000000000000000000000000000000000000000000000000000000000000703201700000000            000000000000000                              000                           
0010001300181T 020180230000001544772 29577051100008187   7               09032017000000000007500001022411                         0900000000000010000000000000000000000000000000000000000   0000000000000000000000000A9        170192957705     
0010001300182U 020000000000000000000000000000000000000000000000000000000000000000000000000000000000000000000000000000000000000000000000000703201700000000            000000000000000                              000                           
0010001300183T 020180230000001544772 29577051100036592   7               09032017000000000007500001022411                         0900000000000010000000000000000000000000000000000000000   0000000000000000000000000A9        170192957705     
0010001300184U 020000000000000000000000000000000000000000000000000000000000000000000000000000000000000000000000000000000000000000000000000703201700000000            000000000000000                              000                           
0010001300185T 020180230000001544772 29577051100342306   7               0903201700000000000750000103049X                         0900000000000010000000000000000000000000000000000000000   0000000000000000000000000A9        170192957705     
0010001300186U 020000000000000000000000000000000000000000000000000000000000000000000000000000000000000000000000000000000000000000000000000703201700000000            000000000000000                              000                           
0010001300187T 020180230000001544772 29577051101140582   7               09032017000000000010000001009644                         0900000000000010000000000000000000000000000000000000000   0000000000000000000000000A9        170192957705     
0010001300188U 020000000000000000000000000000000000000000000000000000000000000000000000000000000000000000000000000000000000000000000000000703201700000000            000000000000000                              000                           
0010001300189T 020180230000001544772 29577051103810311   7               09032017000000000007500001012408                         0900000000000010000000000000000000000000000000000000000   0000000000000000000000000A9        170192957705     
0010001300190U 020000000000000000000000000000000000000000000000000000000000000000000000000000000000000000000000000000000000000000000000000703201700000000            000000000000000                              000                           
0010001300191T 020180230000001544772 29577051103926655   7               09032017000000000007500001012408                         0900000000000010000000000000000000000000000000000000000   0000000000000000000000000A9        170192957705     
0010001300192U 020000000000000000000000000000000000000000000000000000000000000000000000000000000000000000000000000000000000000000000000000703201700000000            000000000000000                              000                           
0010001300193T 020180230000001544772 29577051106212655   7               0903201700000000000750000103049X                         0900000000000010000000000000000000000000000000000000000   0000000000000000000000000A9        170192957705     
0010001300194U 020000000000000000000000000000000000000000000000000000000000000000000000000000000000000000000000000000000000000000000000000703201700000000            000000000000000                              000                           
0010001300195T 020180230000001544772 29577051106450725   7               0903201700000000000750000103049X                         0900000000000010000000000000000000000000000000000000000   0000000000000000000000000A9        170192957705     
0010001300196U 020000000000000000000000000000000000000000000000000000000000000000000000000000000000000000000000000000000000000000000000000703201700000000            000000000000000                              000                           
0010001300197T 020180230000001544772 29577051106543697   7               0903201700000000000750000103049X                         0900000000000010000000000000000000000000000000000000000   0000000000000000000000000A9        170192957705     
0010001300198U 020000000000000000000000000000000000000000000000000000000000000000000000000000000000000000000000000000000000000000000000000703201700000000            000000000000000                              000                           
0010001300199T 020180230000001544772 29577051107242009   7               09032017000000000007500001000213                         0900000000000010000000000000000000000000000000000000000   0000000000000000000000000A9        170192957705     
0010001300200U 020000000000000000000000000000000000000000000000000000000000000000000000000000000000000000000000000000000000000000000000000703201700000000            000000000000000                              000                           
0010001300201T 020180230000001544772 29577051107340483   7               0903201700000000000750000103049X                         0900000000000010500000000000000000000000000000000000000   0000000000000000000000000A9A4      170192957705     
0010001300202U 020000000000000000000000000000000000000000000000000000000000000000000000000000000000000000000000000000000000000000000000000703201700000000            000000000000000                              000                           
0010001300203T 020180230000001544772 29577051109327877   7               0903201700000000000750000103049X                         0900000000000010000000000000000000000000000000000000000   0000000000000000000000000A9        170192957705     
0010001300204U 020000000000000000000000000000000000000000000000000000000000000000000000000000000000000000000000000000000000000000000000000703201700000000            000000000000000                              000                           
0010001300205T 020180230000001544772 29577051112549718   7               0903201700000000000750000103049X                         0900000000000010500000000000000000000000000000000000000   0000000000000000000000000A9A4      170192957705     
0010001300206U 020000000000000000000000000000000000000000000000000000000000000000000000000000000000000000000000000000000000000000000000000703201700000000            000000000000000                              000                           
0010001300207T 020180230000001544772 29577051112604169   7               09032017000000000007500001014389                         0900000000000010000000000000000000000000000000000000000   0000000000000000000000000A9        170192957705     
0010001300208U 020000000000000000000000000000000000000000000000000000000000000000000000000000000000000000000000000000000000000000000000000703201700000000            000000000000000                              000                           
0010001300209T 020180230000001544772 29577051114247125   7               09032017000000000007500001045578                         0900000000000010000000000000000000000000000000000000000   0000000000000000000000000A9        170192957705     
0010001300210U 020000000000000000000000000000000000000000000000000000000000000000000000000000000000000000000000000000000000000000000000000703201700000000            000000000000000                              000                           
0010001300211T 020180230000001544772 29577051115947041   7               09032017000000000007500001000833                         0900000000000010000000000000000000000000000000000000000   0000000000000000000000000A9        170192957705     
0010001300212U 020000000000000000000000000000000000000000000000000000000000000000000000000000000000000000000000000000000000000000000000000703201700000000            000000000000000                              000                           
0010001300213T 020180230000001544772 29577051118547981   7               09032017000000000007500001000213                         0900000000000010000000000000000000000000000000000000000   0000000000000000000000000A9        170192957705     
0010001300214U 020000000000000000000000000000000000000000000000000000000000000000000000000000000000000000000000000000000000000000000000000703201700000000            000000000000000                              000                           
0010001300215T 060180230000001544772 29577050094630571   7               07032017000000000007500021000990                         0900000000000010000000000000000000000000000000000000000   000000000000000000000029000        170192957705     
0010001300216U 060000000000000000000000000000000000000000000000000000000000000000000000075000000000000072100000000000000000000000000000000703201708032017            000000000000000                              000                           
0010001300217T 060180230000001544772 29577050124652780   7               08032017000000000007500104025030                         0900000000000010000000000000000000000000000000000000000   000000000000000000000029000        170192957705     
0010001300218U 060000000000000000000000000000000000000000000000000000000000000000000000075000000000000072100000000000000000000000000000000703201708032017            000000000000000                              000                           
0010001300219T 060180230000001544772 29577050151134169   7               09032017000000000007500104030840                         0900000000000010000000000000000000000000000000000000000   000000000000000000000029000        170192957705     
0010001300220U 060000000000000000000000000000000000000000000000000000000000000000000000075000000000000072100000000000000000000000000000000703201708032017            000000000000000                              000                           
0010001300221T 060180230000001544772 29577050176437008   7               08032017000000000007500341092600                         0900000000000010000000000000000000000000000000000000000   000000000000000000000029000        170192957705     
0010001300222U 060000000000000000000000000000000000000000000000000000000000000000000000075000000000000072100000000000000000000000000000000703201708032017            000000000000000                              000                           
0010001300223T 060180230000001544772 29577050204603562   7               0703201700000000000750000103049X                         0900000000000010000000000000000000000000000000000000000   000000000000000000000029000        170192957705     
0010001300224U 060000000000000000000000000000000000000000000000000000000000000000000000075000000000000072100000000000000000000000000000000703201708032017            000000000000000                              000                           
0010001300225T 060180230000001544772 29577050234858213   7               09032017000000000007500001046280                         0900000000000010000000000000000000000000000000000000000   000000000000000000000029000        170192957705     
0010001300226U 060000000000000000000000000000000000000000000000000000000000000000000000075000000000000072100000000000000000000000000000000703201708032017            000000000000000                              000                           
0010001300227T 060180230000001544772 29577050255622291   7               08032017000000000007500104030840                         0900000000000010000000000000000000000000000000000000000   000000000000000000000029000        170192957705     
0010001300228U 060000000000000000000000000000000000000000000000000000000000000000000000075000000000000072100000000000000000000000000000000703201708032017            000000000000000                              000                           
0010001300229T 060180230000001544772 29577050337214289   7               07032017000000000007500033043960                         0900000000000010000000000000000000000000000000000000000   000000000000000000000029000        170192957705     
0010001300230U 060000000000000000000000000000000000000000000000000000000000000000000000075000000000000072100000000000000000000000000000000703201708032017            000000000000000                              000                           
0010001300231T 060180230000001544772 29577050342425244   7               07032017000000000007500021002760                         0900000000000010000000000000000000000000000000000000000   000000000000000000000029000        170192957705     
0010001300232U 060000000000000000000000000000000000000000000000000000000000000000000000075000000000000072100000000000000000000000000000000703201708032017            000000000000000                              000                           
0010001300233T 060180230000001544772 29577050455131377   7               08032017000000000007500237014930                         0900000000000010000000000000000000000000000000000000000   000000000000000000000029000        170192957705     
0010001300234U 060000000000000000000000000000000000000000000000000000000000000000000000075000000000000072100000000000000000000000000000000703201708032017            000000000000000                              000                           
0010001300235T 060180230000001544772 29577050465324120   7               07032017000000000007500001078166                         0900000000000010000000000000000000000000000000000000000   000000000000000000000029000        170192957705     
0010001300236U 060000000000000000000000000000000000000000000000000000000000000000000000075000000000000072100000000000000000000000000000000703201708032017            000000000000000                              000                           
0010001300237T 060180230000001544772 29577050467530979   7               09032017000000000007500021001100                         0900000000000010000000000000000000000000000000000000000   000000000000000000000029000        170192957705     
0010001300238U 060000000000000000000000000000000000000000000000000000000000000000000000075000000000000072100000000000000000000000000000000703201708032017            000000000000000                              000                           
0010001300239T 060180230000001544772 29577050492910287   7               07032017000000000007500104011120                         0900000000000010000000000000000000000000000000000000000   000000000000000000000029000        170192957705     
0010001300240U 060000000000000000000000000000000000000000000000000000000000000000000000075000000000000072100000000000000000000000000000000703201708032017            000000000000000                              000                           
0010001300241T 060180230000001544772 29577050495030569   7               09032017000000000007500104001680                         0900000000000010000000000000000000000000000000000000000   000000000000000000000029000        170192957705     
0010001300242U 060000000000000000000000000000000000000000000000000000000000000000000000075000000000000072100000000000000000000000000000000703201708032017            000000000000000                              000                           
0010001300243T 060180230000001544772 29577050757459598   7               09032017000000000007500104001780                         0900000000000010000000000000000000000000000000000000000   000000000000000000000029000        170192957705     
0010001300244U 060000000000000000000000000000000000000000000000000000000000000000000000075000000000000072100000000000000000000000000000000703201708032017            000000000000000                              000                           
0010001300245T 060180230000001544772 29577050871253355   7               08032017000000000010000104001820                         0900000000000010000000000000000000000000000000000000000   000000000000000000000029000        170192957705     
0010001300246U 060000000000000000000000000000000000000000000000000000000000000000000000100000000000000097100000000000000000000000000000000703201708032017            000000000000000                              000                           
0010001300247T 060180230000001544772 29577050957122174   7               08032017000000000007500021000510                         0900000000000010000000000000000000000000000000000000000   000000000000000000000029000        170192957705     
0010001300248U 060000000000000000000000000000000000000000000000000000000000000000000000075000000000000072100000000000000000000000000000000703201708032017            000000000000000                              000                           
0010001300249T 060180230000001544772 29577050964326339   7               07032017000000000007500033033910                         0900000000000010000000000000000000000000000000000000000   000000000000000000000029000        170192957705     
0010001300250U 060000000000000000000000000000000000000000000000000000000000000000000000075000000000000072100000000000000000000000000000000703201708032017            000000000000000                              000                           
0010001300251T 060180230000001544772 29577050964403450   7               07032017000000000007500033033910                         0900000000000010000000000000000000000000000000000000000   000000000000000000000029000        170192957705     
0010001300252U 060000000000000000000000000000000000000000000000000000000000000000000000075000000000000072100000000000000000000000000000000703201708032017            000000000000000                              000                           
0010001300253T 060180230000001544772 29577050975735103   7               08032017000000000007500021001060                         0900000000000010000000000000000000000000000000000000000   000000000000000000000029000        170192957705     
0010001300254U 060000000000000000000000000000000000000000000000000000000000000000000000075000000000000072100000000000000000000000000000000703201708032017            000000000000000                              000                           
0010001300255T 060180230000001544772 29577050980928506   7               08032017000000000007500021001050                         0900000000000010000000000000000000000000000000000000000   000000000000000000000029000        170192957705     
0010001300256U 060000000000000000000000000000000000000000000000000000000000000000000000075000000000000072100000000000000000000000000000000703201708032017            000000000000000                              000                           
0010001300257T 060180230000001544772 29577051000208411   7               09032017000000000007500341092880                         0900000000000010000000000000000000000000000000000000000   000000000000000000000029000        170192957705     
0010001300258U 060000000000000000000000000000000000000000000000000000000000000000000000075000000000000072100000000000000000000000000000000703201708032017            000000000000000                              000                           
0010001300259T 060180230000001544772 29577051001323315   7               09032017000000000007500001028649                         0900000000000010000000000000000000000000000000000000000   000000000000000000000029000        170192957705     
0010001300260U 060000000000000000000000000000000000000000000000000000000000000000000000075000000000000072100000000000000000000000000000000703201708032017            000000000000000                              000                           
0010001300261T 060180230000001544772 29577051018721866   7               09032017000000000007500033022880                         0900000000000010000000000000000000000000000000000000000   000000000000000000000029000        170192957705     
0010001300262U 060000000000000000000000000000000000000000000000000000000000000000000000075000000000000072100000000000000000000000000000000703201708032017            000000000000000                              000                           
0010001300263T 060180230000001544772 29577051043457997   7               07032017000000000007500001014001                         0900000000000010000000000000000000000000000000000000000   000000000000000000000029000        170192957705     
0010001300264U 060000000000000000000000000000000000000000000000000000000000000000000000075000000000000072100000000000000000000000000000000703201708032017            000000000000000                              000                           
0010001300265T 060180230000001544772 29577051043605474   7               07032017000000000007500001018023                         0900000000000010000000000000000000000000000000000000000   000000000000000000000029000        170192957705     
0010001300266U 060000000000000000000000000000000000000000000000000000000000000000000000075000000000000072100000000000000000000000000000000703201708032017            000000000000000                              000                           
0010001300267T 060180230000001544772 29577051044328638   7               09032017000000000007500104008800                         0900000000000010000000000000000000000000000000000000000   000000000000000000000029000        170192957705     
0010001300268U 060000000000000000000000000000000000000000000000000000000000000000000000075000000000000072100000000000000000000000000000000703201708032017            000000000000000                              000                           
0010001300269T 060180230000001544772 29577051051452899   7               07032017000000000007500021001100                         0900000000000010000000000000000000000000000000000000000   000000000000000000000029000        170192957705     
0010001300270U 060000000000000000000000000000000000000000000000000000000000000000000000075000000000000072100000000000000000000000000000000703201708032017            000000000000000                              000                           
0010001300271T 060180230000001544772 29577051052108641   7               07032017000000000007500341079520                         0900000000000010000000000000000000000000000000000000000   000000000000000000000029000        170192957705     
0010001300272U 060000000000000000000000000000000000000000000000000000000000000000000000075000000000000072100000000000000000000000000000000703201708032017            000000000000000                              000                           
0010001300273T 060180230000001544772 29577051052612983   7               08032017000000000007500021000910                         0900000000000010000000000000000000000000000000000000000   000000000000000000000029000        170192957705     
0010001300274U 060000000000000000000000000000000000000000000000000000000000000000000000075000000000000072100000000000000000000000000000000703201708032017            000000000000000                              000                           
0010001300275T 060180230000001544772 29577051055640325   7               07032017000000000007500001031941                         0900000000000010000000000000000000000000000000000000000   000000000000000000000029000        170192957705     
0010001300276U 060000000000000000000000000000000000000000000000000000000000000000000000075000000000000072100000000000000000000000000000000703201708032017            000000000000000                              000                           
0010001300277T 060180230000001544772 29577051055727277   7               07032017000000000007500001031941                         0900000000000010000000000000000000000000000000000000000   000000000000000000000029000        170192957705     
0010001300278U 060000000000000000000000000000000000000000000000000000000000000000000000075000000000000072100000000000000000000000000000000703201708032017            000000000000000                              000                           
0010001300279T 060180230000001544772 29577051056643460   7               07032017000000000010000001030848                         0900000000000010000000000000000000000000000000000000000   000000000000000000000029000        170192957705     
0010001300280U 060000000000000000000000000000000000000000000000000000000000000000000000100000000000000097100000000000000000000000000000000703201708032017            000000000000000                              000                           
0010001300281T 060180230000001544772 29577051057313113   7               07032017000000000007500237031740                         0900000000000010000000000000000000000000000000000000000   000000000000000000000029000        170192957705     
0010001300282U 060000000000000000000000000000000000000000000000000000000000000000000000075000000000000072100000000000000000000000000000000703201708032017            000000000000000                              000                           
0010001300283T 060180230000001544772 29577051058730040   7               09032017000000000007500104023320                         0900000000000010000000000000000000000000000000000000000   000000000000000000000029000        170192957705     
0010001300284U 060000000000000000000000000000000000000000000000000000000000000000000000075000000000000072100000000000000000000000000000000703201708032017            000000000000000                              000                           
0010001300285T 060180230000001544772 29577051060008019   7               08032017000000000007500001007854                         0900000000000010000000000000000000000000000000000000000   000000000000000000000029000        170192957705     
0010001300286U 060000000000000000000000000000000000000000000000000000000000000000000000075000000000000072100000000000000000000000000000000703201708032017            000000000000000                              000                           
0010001300287T 060180230000001544772 29577051060159666   7               09032017000000000007500001004286                         0900000000000010000000000000000000000000000000000000000   000000000000000000000029000        170192957705     
0010001300288U 060000000000000000000000000000000000000000000000000000000000000000000000075000000000000072100000000000000000000000000000000703201708032017            000000000000000                              000                           
0010001300289T 060180230000001544772 29577051060740549   7               07032017000000000007500104008230                         0900000000000010000000000000000000000000000000000000000   000000000000000000000029000        170192957705     
0010001300290U 060000000000000000000000000000000000000000000000000000000000000000000000075000000000000072100000000000000000000000000000000703201708032017            000000000000000                              000                           
0010001300291T 060180230000001544772 29577051061246226   7               07032017000000000007500341087960                         0900000000000010000000000000000000000000000000000000000   000000000000000000000029000        170192957705     
0010001300292U 060000000000000000000000000000000000000000000000000000000000000000000000075000000000000072100000000000000000000000000000000703201708032017            000000000000000                              000                           
0010001300293T 060180230000001544772 29577051063540008   7               07032017000000000007500001004782                         0900000000000010000000000000000000000000000000000000000   000000000000000000000029000        170192957705     
0010001300294U 060000000000000000000000000000000000000000000000000000000000000000000000075000000000000072100000000000000000000000000000000703201708032017            000000000000000                              000                           
0010001300295T 060180230000001544772 29577051092257291   7               08032017000000000007500104031320                         0900000000000010000000000000000000000000000000000000000   000000000000000000000029000        170192957705     
0010001300296U 060000000000000000000000000000000000000000000000000000000000000000000000075000000000000072100000000000000000000000000000000703201708032017            000000000000000                              000                           
0010001300297T 060180230000001544772 29577051106212655   7               09032017000000000007500104020420                         0900000000000010000000000000000000000000000000000000000   000000000000000000000029000        170192957705     
0010001300298U 060000000000000000000000000000000000000000000000000000000000000000000000075000000000000072100000000000000000000000000000000703201708032017            000000000000000                              000                           
0010001300299T 060180230000001544772 29577051106450725   7               09032017000000000007500104020420                         0900000000000010000000000000000000000000000000000000000   000000000000000000000029000        170192957705     
0010001300300U 060000000000000000000000000000000000000000000000000000000000000000000000075000000000000072100000000000000000000000000000000703201708032017            000000000000000                              000                           
0010001300301T 280180230000001544772 29577050012510990   788888888888889905022017000000000007500001000000888888888888899          0900000000000000000000000000000000000000000000000000000   000000000000000000000005002        170192957705     
0010001300302U 280000000000000000000000000000000000000000000000000000000000000000000000000000000000000000000000000000000000000000000000000703201700000000            000000000000000                              000                           
0010001300303T 280180230000001544772 29577050014907056   788888888888889905022017000000000007500001000000888888888888899          0900000000000000000000000000000000000000000000000000000   000000000000000000000005002        170192957705     
0010001300304U 280000000000000000000000000000000000000000000000000000000000000000000000000000000000000000000000000000000000000000000000000703201700000000            000000000000000                              000                           
0010001300305T 280180230000001544772 29577050014946165   788888888888889905022017000000000007500001000000888888888888899          0900000000000000000000000000000000000000000000000000000   000000000000000000000005002        170192957705     
0010001300306U 280000000000000000000000000000000000000000000000000000000000000000000000000000000000000000000000000000000000000000000000000703201700000000            000000000000000                              000                           
0010001300307T 280180230000001544772 29577050017435376   788888888888889906012017000000000007500001000000888888888888899          0900000000000000000000000000000000000000000000000000000   000000000000000000000005002        170192957705     
0010001300308U 280000000000000000000000000000000000000000000000000000000000000000000000000000000000000000000000000000000000000000000000000703201700000000            000000000000000                              000                           
0010001300309T 280180230000001544772 29577050018108351   788888888888889905022017000000000007500001000000888888888888899          0900000000000000000000000000000000000000000000000000000   000000000000000000000005002        170192957705     
0010001300310U 280000000000000000000000000000000000000000000000000000000000000000000000000000000000000000000000000000000000000000000000000703201700000000            000000000000000                              000                           
0010001300311T 280180230000001544772 29577050020104976   788888888888889906012017000000000007500001000000888888888888899          0900000000000000000000000000000000000000000000000000000   000000000000000000000005002        170192957705     
0010001300312U 280000000000000000000000000000000000000000000000000000000000000000000000000000000000000000000000000000000000000000000000000703201700000000            000000000000000                              000                           
0010001300313T 280180230000001544772 29577050020156551   788888888888889906012017000000000007500001000000888888888888899          0900000000000000000000000000000000000000000000000000000   000000000000000000000005002        170192957705     
0010001300314U 280000000000000000000000000000000000000000000000000000000000000000000000000000000000000000000000000000000000000000000000000703201700000000            000000000000000                              000                           
0010001300315T 280180230000001544772 29577050036814966   788888888888889905022017000000000010000001000000888888888888899          0900000000000000000000000000000000000000000000000000000   000000000000000000000005002        170192957705     
0010001300316U 280000000000000000000000000000000000000000000000000000000000000000000000000000000000000000000000000000000000000000000000000703201700000000            000000000000000                              000                           
0010001300317T 280180230000001544772 29577050041904476   788888888888889905022017000000000010000001000000888888888888899          0900000000000000000000000000000000000000000000000000000   000000000000000000000005002        170192957705     
0010001300318U 280000000000000000000000000000000000000000000000000000000000000000000000000000000000000000000000000000000000000000000000000703201700000000            000000000000000                              000                           
0010001300319T 280180230000001544772 29577050041926730   788888888888889905022017000000000010000001000000888888888888899          0900000000000000000000000000000000000000000000000000000   000000000000000000000005002        170192957705     
0010001300320U 280000000000000000000000000000000000000000000000000000000000000000000000000000000000000000000000000000000000000000000000000703201700000000            000000000000000                              000                           
0010001300321T 280180230000001544772 29577050045501568   788888888888889905022017000000000007500001000000888888888888899          0900000000000000000000000000000000000000000000000000000   000000000000000000000005002        170192957705     
0010001300322U 280000000000000000000000000000000000000000000000000000000000000000000000000000000000000000000000000000000000000000000000000703201700000000            000000000000000                              000                           
0010001300323T 280180230000001544772 29577050050844083   788888888888889905022017000000000007500001000000888888888888899          0900000000000000000000000000000000000000000000000000000   000000000000000000000005002        170192957705     
0010001300324U 280000000000000000000000000000000000000000000000000000000000000000000000000000000000000000000000000000000000000000000000000703201700000000            000000000000000                              000                           
0010001300325T 280180230000001544772 29577050055609533   788888888888889906012017000000000007500001000000888888888888899          0900000000000000000000000000000000000000000000000000000   000000000000000000000005002        170192957705     
0010001300326U 280000000000000000000000000000000000000000000000000000000000000000000000000000000000000000000000000000000000000000000000000703201700000000            000000000000000                              000                           
0010001300327T 280180230000001544772 29577050055644817   788888888888889906012017000000000007500001000000888888888888899          0900000000000000000000000000000000000000000000000000000   000000000000000000000005002        170192957705     
0010001300328U 280000000000000000000000000000000000000000000000000000000000000000000000000000000000000000000000000000000000000000000000000703201700000000            000000000000000                              000                           
0010001300329T 280180230000001544772 29577050059414580   788888888888889906012017000000000007500001000000888888888888899          0900000000000000000000000000000000000000000000000000000   000000000000000000000005002        170192957705     
0010001300330U 280000000000000000000000000000000000000000000000000000000000000000000000000000000000000000000000000000000000000000000000000703201700000000            000000000000000                              000                           
0010001300331T 280180230000001544772 29577050062156988   788888888888889906012017000000000007500001000000888888888888899          0900000000000000000000000000000000000000000000000000000   000000000000000000000005002        170192957705     
0010001300332U 280000000000000000000000000000000000000000000000000000000000000000000000000000000000000000000000000000000000000000000000000703201700000000            000000000000000                              000                           
0010001300333T 280180230000001544772 29577050063120742   788888888888889905022017000000000007500001000000888888888888899          0900000000000000000000000000000000000000000000000000000   000000000000000000000005002        170192957705     
0010001300334U 280000000000000000000000000000000000000000000000000000000000000000000000000000000000000000000000000000000000000000000000000703201700000000            000000000000000                              000                           
0010001300335T 280180230000001544772 29577050065544573   788888888888889905022017000000000007500001000000888888888888899          0900000000000000000000000000000000000000000000000000000   000000000000000000000005002        170192957705     
0010001300336U 280000000000000000000000000000000000000000000000000000000000000000000000000000000000000000000000000000000000000000000000000703201700000000            000000000000000                              000                           
0010001300337T 280180230000001544772 29577050067306333   788888888888889905022017000000000007500001000000888888888888899          0900000000000000000000000000000000000000000000000000000   000000000000000000000005002        170192957705     
0010001300338U 280000000000000000000000000000000000000000000000000000000000000000000000000000000000000000000000000000000000000000000000000703201700000000            000000000000000                              000                           
0010001300339T 280180230000001544772 29577050085836465   788888888888889905022017000000000007500001000000888888888888899          0900000000000000000000000000000000000000000000000000000   000000000000000000000005002        170192957705     
0010001300340U 280000000000000000000000000000000000000000000000000000000000000000000000000000000000000000000000000000000000000000000000000703201700000000            000000000000000                              000                           
0010001300341T 280180230000001544772 29577050092232834   788888888888889905022017000000000007500001000000888888888888899          0900000000000000000000000000000000000000000000000000000   000000000000000000000005002        170192957705     
0010001300342U 280000000000000000000000000000000000000000000000000000000000000000000000000000000000000000000000000000000000000000000000000703201700000000            000000000000000                              000                           
0010001300343T 280180230000001544772 29577050092334155   788888888888889905022017000000000007500001000000888888888888899          0900000000000000000000000000000000000000000000000000000   000000000000000000000005002        170192957705     
0010001300344U 280000000000000000000000000000000000000000000000000000000000000000000000000000000000000000000000000000000000000000000000000703201700000000            000000000000000                              000                           
0010001300345T 280180230000001544772 29577050092905538   788888888888889905022017000000000007500001000000888888888888899          0900000000000000000000000000000000000000000000000000000   000000000000000000000005002        170192957705     
0010001300346U 280000000000000000000000000000000000000000000000000000000000000000000000000000000000000000000000000000000000000000000000000703201700000000            000000000000000                              000                           
0010001300347T 280180230000001544772 29577050093803600   788888888888889905022017000000000010000001000000888888888888899          0900000000000000000000000000000000000000000000000000000   000000000000000000000005002        170192957705     
0010001300348U 280000000000000000000000000000000000000000000000000000000000000000000000000000000000000000000000000000000000000000000000000703201700000000            000000000000000                              000                           
0010001300349T 280180230000001544772 29577050128022697   788888888888889905022017000000000007500001000000888888888888899          0900000000000000000000000000000000000000000000000000000   000000000000000000000005002        170192957705     
0010001300350U 280000000000000000000000000000000000000000000000000000000000000000000000000000000000000000000000000000000000000000000000000703201700000000            000000000000000                              000                           
0010001300351T 280180230000001544772 29577050130559428   788888888888889906012017000000000007500001000000888888888888899          0900000000000000000000000000000000000000000000000000000   000000000000000000000005002        170192957705     
0010001300352U 280000000000000000000000000000000000000000000000000000000000000000000000000000000000000000000000000000000000000000000000000703201700000000            000000000000000                              000                           
0010001300353T 280180230000001544772 29577050141710206   788888888888889905022017000000000007500001000000888888888888899          0900000000000000000000000000000000000000000000000000000   000000000000000000000005002        170192957705     
0010001300354U 280000000000000000000000000000000000000000000000000000000000000000000000000000000000000000000000000000000000000000000000000703201700000000            000000000000000                              000                           
0010001300355T 280180230000001544772 29577050145740568   788888888888889906012017000000000007500001000000888888888888899          0900000000000000000000000000000000000000000000000000000   000000000000000000000005002        170192957705     
0010001300356U 280000000000000000000000000000000000000000000000000000000000000000000000000000000000000000000000000000000000000000000000000703201700000000            000000000000000                              000                           
0010001300357T 280180230000001544772 29577050145952866   788888888888889906012017000000000007500001000000888888888888899          0900000000000000000000000000000000000000000000000000000   000000000000000000000005002        170192957705     
0010001300358U 280000000000000000000000000000000000000000000000000000000000000000000000000000000000000000000000000000000000000000000000000703201700000000            000000000000000                              000                           
0010001300359T 280180230000001544772 29577050146045849   788888888888889906012017000000000007500001000000888888888888899          0900000000000000000000000000000000000000000000000000000   000000000000000000000005002        170192957705     
0010001300360U 280000000000000000000000000000000000000000000000000000000000000000000000000000000000000000000000000000000000000000000000000703201700000000            000000000000000                              000                           
0010001300361T 280180230000001544772 29577050146159785   788888888888889906012017000000000007500001000000888888888888899          0900000000000000000000000000000000000000000000000000000   000000000000000000000005002        170192957705     
0010001300362U 280000000000000000000000000000000000000000000000000000000000000000000000000000000000000000000000000000000000000000000000000703201700000000            000000000000000                              000                           
0010001300363T 280180230000001544772 29577050146211392   788888888888889906012017000000000007500001000000888888888888899          0900000000000000000000000000000000000000000000000000000   000000000000000000000005002        170192957705     
0010001300364U 280000000000000000000000000000000000000000000000000000000000000000000000000000000000000000000000000000000000000000000000000703201700000000            000000000000000                              000                           
0010001300365T 280180230000001544772 29577050146323859   788888888888889906012017000000000007500001000000888888888888899          0900000000000000000000000000000000000000000000000000000   000000000000000000000005002        170192957705     
0010001300366U 280000000000000000000000000000000000000000000000000000000000000000000000000000000000000000000000000000000000000000000000000703201700000000            000000000000000                              000                           
0010001300367T 280180230000001544772 29577050146446025   788888888888889906012017000000000007500001000000888888888888899          0900000000000000000000000000000000000000000000000000000   000000000000000000000005002        170192957705     
0010001300368U 280000000000000000000000000000000000000000000000000000000000000000000000000000000000000000000000000000000000000000000000000703201700000000            000000000000000                              000                           
0010001300369T 280180230000001544772 29577050146554224   788888888888889906012017000000000010000001000000888888888888899          0900000000000000000000000000000000000000000000000000000   000000000000000000000005002        170192957705     
0010001300370U 280000000000000000000000000000000000000000000000000000000000000000000000000000000000000000000000000000000000000000000000000703201700000000            000000000000000                              000                           
0010001300371T 280180230000001544772 29577050146601273   788888888888889906012017000000000007500001000000888888888888899          0900000000000000000000000000000000000000000000000000000   000000000000000000000005002        170192957705     
0010001300372U 280000000000000000000000000000000000000000000000000000000000000000000000000000000000000000000000000000000000000000000000000703201700000000            000000000000000                              000                           
0010001300373T 280180230000001544772 29577050146729360   788888888888889906012017000000000007500001000000888888888888899          0900000000000000000000000000000000000000000000000000000   000000000000000000000005002        170192957705     
0010001300374U 280000000000000000000000000000000000000000000000000000000000000000000000000000000000000000000000000000000000000000000000000703201700000000            000000000000000                              000                           
0010001300375T 280180230000001544772 29577050146933947   788888888888889906012017000000000007500001000000888888888888899          0900000000000000000000000000000000000000000000000000000   000000000000000000000005002        170192957705     
0010001300376U 280000000000000000000000000000000000000000000000000000000000000000000000000000000000000000000000000000000000000000000000000703201700000000            000000000000000                              000                           
0010001300377T 280180230000001544772 29577050147021604   788888888888889906012017000000000007500001000000888888888888899          0900000000000000000000000000000000000000000000000000000   000000000000000000000005002        170192957705     
0010001300378U 280000000000000000000000000000000000000000000000000000000000000000000000000000000000000000000000000000000000000000000000000703201700000000            000000000000000                              000                           
0010001300379T 280180230000001544772 29577050147146981   788888888888889906012017000000000007500001000000888888888888899          0900000000000000000000000000000000000000000000000000000   000000000000000000000005002        170192957705     
0010001300380U 280000000000000000000000000000000000000000000000000000000000000000000000000000000000000000000000000000000000000000000000000703201700000000            000000000000000                              000                           
0010001300381T 280180230000001544772 29577050147218303   788888888888889906012017000000000007500001000000888888888888899          0900000000000000000000000000000000000000000000000000000   000000000000000000000005002        170192957705     
0010001300382U 280000000000000000000000000000000000000000000000000000000000000000000000000000000000000000000000000000000000000000000000000703201700000000            000000000000000                              000                           
0010001300383T 280180230000001544772 29577050147317951   788888888888889906012017000000000007500001000000888888888888899          0900000000000000000000000000000000000000000000000000000   000000000000000000000005002        170192957705     
0010001300384U 280000000000000000000000000000000000000000000000000000000000000000000000000000000000000000000000000000000000000000000000000703201700000000            000000000000000                              000                           
0010001300385T 280180230000001544772 29577050147510367   788888888888889906012017000000000007500001000000888888888888899          0900000000000000000000000000000000000000000000000000000   000000000000000000000005002        170192957705     
0010001300386U 280000000000000000000000000000000000000000000000000000000000000000000000000000000000000000000000000000000000000000000000000703201700000000            000000000000000                              000                           
0010001300387T 280180230000001544772 29577050147649225   788888888888889906012017000000000007500001000000888888888888899          0900000000000000000000000000000000000000000000000000000   000000000000000000000005002        170192957705     
0010001300388U 280000000000000000000000000000000000000000000000000000000000000000000000000000000000000000000000000000000000000000000000000703201700000000            000000000000000                              000                           
0010001300389T 280180230000001544772 29577050147820297   788888888888889906012017000000000007500001000000888888888888899          0900000000000000000000000000000000000000000000000000000   000000000000000000000005002        170192957705     
0010001300390U 280000000000000000000000000000000000000000000000000000000000000000000000000000000000000000000000000000000000000000000000000703201700000000            000000000000000                              000                           
0010001300391T 280180230000001544772 29577050148125052   788888888888889906012017000000000007500001000000888888888888899          0900000000000000000000000000000000000000000000000000000   000000000000000000000005002        170192957705     
0010001300392U 280000000000000000000000000000000000000000000000000000000000000000000000000000000000000000000000000000000000000000000000000703201700000000            000000000000000                              000                           
0010001300393T 280180230000001544772 29577050148152174   788888888888889906012017000000000007500001000000888888888888899          0900000000000000000000000000000000000000000000000000000   000000000000000000000005002        170192957705     
0010001300394U 280000000000000000000000000000000000000000000000000000000000000000000000000000000000000000000000000000000000000000000000000703201700000000            000000000000000                              000                           
0010001300395T 280180230000001544772 29577050148153282   788888888888889906012017000000000007500001000000888888888888899          0900000000000000000000000000000000000000000000000000000   000000000000000000000005002        170192957705     
0010001300396U 280000000000000000000000000000000000000000000000000000000000000000000000000000000000000000000000000000000000000000000000000703201700000000            000000000000000                              000                           
0010001300397T 280180230000001544772 29577050148227898   788888888888889906012017000000000007500001000000888888888888899          0900000000000000000000000000000000000000000000000000000   000000000000000000000005002        170192957705     
0010001300398U 280000000000000000000000000000000000000000000000000000000000000000000000000000000000000000000000000000000000000000000000000703201700000000            000000000000000                              000                           
0010001300399T 280180230000001544772 29577050148350367   788888888888889906012017000000000007500001000000888888888888899          0900000000000000000000000000000000000000000000000000000   000000000000000000000005002        170192957705     
0010001300400U 280000000000000000000000000000000000000000000000000000000000000000000000000000000000000000000000000000000000000000000000000703201700000000            000000000000000                              000                           
0010001300401T 280180230000001544772 29577050148420518   788888888888889906012017000000000007500001000000888888888888899          0900000000000000000000000000000000000000000000000000000   000000000000000000000005002        170192957705     
0010001300402U 280000000000000000000000000000000000000000000000000000000000000000000000000000000000000000000000000000000000000000000000000703201700000000            000000000000000                              000                           
0010001300403T 280180230000001544772 29577050148550770   788888888888889906012017000000000007500001000000888888888888899          0900000000000000000000000000000000000000000000000000000   000000000000000000000005002        170192957705     
0010001300404U 280000000000000000000000000000000000000000000000000000000000000000000000000000000000000000000000000000000000000000000000000703201700000000            000000000000000                              000                           
0010001300405T 280180230000001544772 29577050148615906   788888888888889906012017000000000007500001000000888888888888899          0900000000000000000000000000000000000000000000000000000   000000000000000000000005002        170192957705     
0010001300406U 280000000000000000000000000000000000000000000000000000000000000000000000000000000000000000000000000000000000000000000000000703201700000000            000000000000000                              000                           
0010001300407T 280180230000001544772 29577050148737657   788888888888889906012017000000000007500001000000888888888888899          0900000000000000000000000000000000000000000000000000000   000000000000000000000005002        170192957705     
0010001300408U 280000000000000000000000000000000000000000000000000000000000000000000000000000000000000000000000000000000000000000000000000703201700000000            000000000000000                              000                           
0010001300409T 280180230000001544772 29577050148841912   788888888888889906012017000000000007500001000000888888888888899          0900000000000000000000000000000000000000000000000000000   000000000000000000000005002        170192957705     
0010001300410U 280000000000000000000000000000000000000000000000000000000000000000000000000000000000000000000000000000000000000000000000000703201700000000            000000000000000                              000                           
0010001300411T 280180230000001544772 29577050148931964   788888888888889906012017000000000007500001000000888888888888899          0900000000000000000000000000000000000000000000000000000   000000000000000000000005002        170192957705     
0010001300412U 280000000000000000000000000000000000000000000000000000000000000000000000000000000000000000000000000000000000000000000000000703201700000000            000000000000000                              000                           
