00100000         2247745860001000029577050014       0180230000001544772 INSTITUTO DE SELECAO E TECNOLOBANCO DO BRASIL                         21003201701284700012603000000515122941PROCESSAMEN                                                 
00100011T0100020 20247745860001000029577050014       0180230000001544772 INSTITUTO DE SELECAO E TECNOLO                                                                                000000001003201700000000  000000000                      
0010001300001T 020180230000001544772 29577050011736475   7               12032017000000000007500001000213                         0900000000000010000000000000000000000000000000000000000   0000000000000000000000000A9        170192957705     
0010001300002U 020000000000000000000000000000000000000000000000000000000000000000000000000000000000000000000000000000000000000000000000001003201700000000            000000000000000                              000                           
0010001300003T 020180230000001544772 29577050020510663   7               12032017000000000007500001012416                         0900000000000010000000000000000000000000000000000000000   0000000000000000000000000A9        170192957705     
0010001300004U 020000000000000000000000000000000000000000000000000000000000000000000000000000000000000000000000000000000000000000000000001003201700000000            000000000000000                              000                           
0010001300005T 020180230000001544772 29577050082236868   7               12032017000000000007500001012416                         0900000000000010000000000000000000000000000000000000000   0000000000000000000000000A9        170192957705     
0010001300006U 020000000000000000000000000000000000000000000000000000000000000000000000000000000000000000000000000000000000000000000000001003201700000000            000000000000000                              000                           
0010001300007T 020180230000001544772 29577050110139781   7               12032017000000000007500001000833                         0900000000000010000000000000000000000000000000000000000   0000000000000000000000000A9        170192957705     
0010001300008U 020000000000000000000000000000000000000000000000000000000000000000000000000000000000000000000000000000000000000000000000001003201700000000            000000000000000                              000                           
0010001300009T 020180230000001544772 29577050113401014   7               12032017000000000007500001000213                         0900000000000010000000000000000000000000000000000000000   0000000000000000000000000A9        170192957705     
0010001300010U 020000000000000000000000000000000000000000000000000000000000000000000000000000000000000000000000000000000000000000000000001003201700000000            000000000000000                              000                           
0010001300011T 020180230000001544772 29577050125051636   7               12032017000000000007500001012408                         0900000000000010000000000000000000000000000000000000000   0000000000000000000000000A9        170192957705     
0010001300012U 020000000000000000000000000000000000000000000000000000000000000000000000000000000000000000000000000000000000000000000000001003201700000000            000000000000000                              000                           
0010001300013T 020180230000001544772 29577050151312152   7               12032017000000000007500001046744                         0900000000000010000000000000000000000000000000000000000   0000000000000000000000000A9        170192957705     
0010001300014U 020000000000000000000000000000000000000000000000000000000000000000000000000000000000000000000000000000000000000000000000001003201700000000            000000000000000                              000                           
0010001300015T 020180230000001544772 29577050151347164   7               12032017000000000007500001046744                         0900000000000010000000000000000000000000000000000000000   0000000000000000000000000A9        170192957705     
0010001300016U 020000000000000000000000000000000000000000000000000000000000000000000000000000000000000000000000000000000000000000000000001003201700000000            000000000000000                              000                           
0010001300017T 020180230000001544772 29577050151453505   7               12032017000000000007500001046744                         0900000000000010000000000000000000000000000000000000000   0000000000000000000000000A9        170192957705     
0010001300018U 020000000000000000000000000000000000000000000000000000000000000000000000000000000000000000000000000000000000000000000000001003201700000000            000000000000000                              000                           
0010001300019T 020180230000001544772 29577050179416913   7               1203201700000000000750000103049X                         0900000000000010000000000000000000000000000000000000000   0000000000000000000000000A9        170192957705     
0010001300020U 020000000000000000000000000000000000000000000000000000000000000000000000000000000000000000000000000000000000000000000000001003201700000000            000000000000000                              000                           
0010001300021T 020180230000001544772 29577050223709662   7               12032017000000000007500001000213                         0900000000000010000000000000000000000000000000000000000   0000000000000000000000000A9        170192957705     
0010001300022U 020000000000000000000000000000000000000000000000000000000000000000000000000000000000000000000000000000000000000000000000001003201700000000            000000000000000                              000                           
0010001300023T 020180230000001544772 29577050224947795   7               12032017000000000007500001032077                         0900000000000010000000000000000000000000000000000000000   0000000000000000000000000A9        170192957705     
0010001300024U 020000000000000000000000000000000000000000000000000000000000000000000000000000000000000000000000000000000000000000000000001003201700000000            000000000000000                              000                           
0010001300025T 020180230000001544772 29577050236627364   7               12032017000000000010000001012408                         0900000000000010000000000000000000000000000000000000000   0000000000000000000000000A9        170192957705     
0010001300026U 020000000000000000000000000000000000000000000000000000000000000000000000000000000000000000000000000000000000000000000000001003201700000000            000000000000000                              000                           
0010001300027T 020180230000001544772 29577050257239203   7               11032017000000000007500001001120                         0900000000000010000000000000000000000000000000000000000   0000000000000000000000000A9        170192957705     
0010001300028U 020000000000000000000000000000000000000000000000000000000000000000000000000000000000000000000000000000000000000000000000000903201700000000            000000000000000                              000                           
0010001300029T 020180230000001544772 29577050263205781   7               12032017000000000007500001000213                         0900000000000010000000000000000000000000000000000000000   0000000000000000000000000A9        170192957705     
0010001300030U 020000000000000000000000000000000000000000000000000000000000000000000000000000000000000000000000000000000000000000000000001003201700000000            000000000000000                              000                           
0010001300031T 020180230000001544772 29577050281332250   7               12032017000000000010000001012408                         0900000000000010000000000000000000000000000000000000000   0000000000000000000000000A9        170192957705     
0010001300032U 020000000000000000000000000000000000000000000000000000000000000000000000000000000000000000000000000000000000000000000000001003201700000000            000000000000000                              000                           
0010001300033T 020180230000001544772 29577050292109834   7               12032017000000000007500001004782                         0900000000000010000000000000000000000000000000000000000   0000000000000000000000000A9        170192957705     
0010001300034U 020000000000000000000000000000000000000000000000000000000000000000000000000000000000000000000000000000000000000000000000001003201700000000            000000000000000                              000                           
0010001300035T 020180230000001544772 29577050297739892   7               12032017000000000007500001012408                         0900000000000010500000000000000000000000000000000000000   0000000000000000000000000A9A4      170192957705     
0010001300036U 020000000000000000000000000000000000000000000000000000000000000000000000000000000000000000000000000000000000000000000000001003201700000000            000000000000000                              000                           
0010001300037T 020180230000001544772 29577050310622541   7               12032017000000000007500001012408                         0900000000000010000000000000000000000000000000000000000   0000000000000000000000000A9        170192957705     
0010001300038U 020000000000000000000000000000000000000000000000000000000000000000000000000000000000000000000000000000000000000000000000001003201700000000            000000000000000                              000                           
0010001300039T 020180230000001544772 29577050310653997   7               12032017000000000007500001012408                         0900000000000010000000000000000000000000000000000000000   0000000000000000000000000A9        170192957705     
0010001300040U 020000000000000000000000000000000000000000000000000000000000000000000000000000000000000000000000000000000000000000000000001003201700000000            000000000000000                              000                           
0010001300041T 020180230000001544772 29577050311211050   7               12032017000000000007500001012408                         0900000000000010000000000000000000000000000000000000000   0000000000000000000000000A9        170192957705     
0010001300042U 020000000000000000000000000000000000000000000000000000000000000000000000000000000000000000000000000000000000000000000000001003201700000000            000000000000000                              000                           
0010001300043T 020180230000001544772 29577050314237104   7               12032017000000000007500001000213                         0900000000000010000000000000000000000000000000000000000   0000000000000000000000000A9        170192957705     
0010001300044U 020000000000000000000000000000000000000000000000000000000000000000000000000000000000000000000000000000000000000000000000001003201700000000            000000000000000                              000                           
0010001300045T 020180230000001544772 29577050319233800   7               1203201700000000000750000103049X                         0900000000000010000000000000000000000000000000000000000   0000000000000000000000000A9        170192957705     
0010001300046U 020000000000000000000000000000000000000000000000000000000000000000000000000000000000000000000000000000000000000000000000001003201700000000            000000000000000                              000                           
0010001300047T 020180230000001544772 29577050319322897   7               12032017000000000007500001045020                         0900000000000010000000000000000000000000000000000000000   0000000000000000000000000A9        170192957705     
0010001300048U 020000000000000000000000000000000000000000000000000000000000000000000000000000000000000000000000000000000000000000000000001003201700000000            000000000000000                              000                           
0010001300049T 020180230000001544772 29577050341131421   7               12032017000000000007500001000213                         0900000000000010000000000000000000000000000000000000000   0000000000000000000000000A9        170192957705     
0010001300050U 020000000000000000000000000000000000000000000000000000000000000000000000000000000000000000000000000000000000000000000000001003201700000000            000000000000000                              000                           
0010001300051T 020180230000001544772 29577050341242626   7               12032017000000000007500001000833                         0900000000000010000000000000000000000000000000000000000   0000000000000000000000000A9        170192957705     
0010001300052U 020000000000000000000000000000000000000000000000000000000000000000000000000000000000000000000000000000000000000000000000001003201700000000            000000000000000                              000                           
0010001300053T 020180230000001544772 29577050341434611   7               12032017000000000007500001000213                         0900000000000010000000000000000000000000000000000000000   0000000000000000000000000A9        170192957705     
0010001300054U 020000000000000000000000000000000000000000000000000000000000000000000000000000000000000000000000000000000000000000000000001003201700000000            000000000000000                              000                           
0010001300055T 020180230000001544772 29577050356213907   7               12032017000000000007500001012408                         0900000000000010000000000000000000000000000000000000000   0000000000000000000000000A9        170192957705     
0010001300056U 020000000000000000000000000000000000000000000000000000000000000000000000000000000000000000000000000000000000000000000000001003201700000000            000000000000000                              000                           
0010001300057T 020180230000001544772 29577050357751598   7               12032017000000000007500001000213                         0900000000000010000000000000000000000000000000000000000   0000000000000000000000000A9        170192957705     
0010001300058U 020000000000000000000000000000000000000000000000000000000000000000000000000000000000000000000000000000000000000000000000001003201700000000            000000000000000                              000                           
0010001300059T 020180230000001544772 29577050407702273   7               12032017000000000010000001012408                         0900000000000010000000000000000000000000000000000000000   0000000000000000000000000A9        170192957705     
0010001300060U 020000000000000000000000000000000000000000000000000000000000000000000000000000000000000000000000000000000000000000000000001003201700000000            000000000000000                              000                           
0010001300061T 020180230000001544772 29577050407719405   7               12032017000000000010000001012408                         0900000000000010000000000000000000000000000000000000000   0000000000000000000000000A9        170192957705     
0010001300062U 020000000000000000000000000000000000000000000000000000000000000000000000000000000000000000000000000000000000000000000000001003201700000000            000000000000000                              000                           
0010001300063T 020180230000001544772 29577050425540319   7               12032017000000000007500001000833                         0900000000000010000000000000000000000000000000000000000   0000000000000000000000000A9        170192957705     
0010001300064U 020000000000000000000000000000000000000000000000000000000000000000000000000000000000000000000000000000000000000000000000001003201700000000            000000000000000                              000                           
0010001300065T 020180230000001544772 29577050432701097   7               12032017000000000007500001000213                         0900000000000010000000000000000000000000000000000000000   0000000000000000000000000A9        170192957705     
0010001300066U 020000000000000000000000000000000000000000000000000000000000000000000000000000000000000000000000000000000000000000000000001003201700000000            000000000000000                              000                           
0010001300067T 020180230000001544772 29577050432755565   7               12032017000000000007500001000213                         0900000000000010000000000000000000000000000000000000000   0000000000000000000000000A9        170192957705     
0010001300068U 020000000000000000000000000000000000000000000000000000000000000000000000000000000000000000000000000000000000000000000000001003201700000000            000000000000000                              000                           
0010001300069T 020180230000001544772 29577050481254486   7               12032017000000000007500001012408                         0900000000000010000000000000000000000000000000000000000   0000000000000000000000000A9        170192957705     
0010001300070U 020000000000000000000000000000000000000000000000000000000000000000000000000000000000000000000000000000000000000000000000001003201700000000            000000000000000                              000                           
0010001300071T 020180230000001544772 29577050492204006   7               12032017000000000007500001001120                         0900000000000010000000000000000000000000000000000000000   0000000000000000000000000A9        170192957705     
0010001300072U 020000000000000000000000000000000000000000000000000000000000000000000000000000000000000000000000000000000000000000000000001003201700000000            000000000000000                              000                           
0010001300073T 020180230000001544772 29577050503206155   7               12032017000000000007500001000213                         0900000000000010000000000000000000000000000000000000000   0000000000000000000000000A9        170192957705     
0010001300074U 020000000000000000000000000000000000000000000000000000000000000000000000000000000000000000000000000000000000000000000000001003201700000000            000000000000000                              000                           
0010001300075T 020180230000001544772 29577050503416982   7               12032017000000000007500001000213                         0900000000000010000000000000000000000000000000000000000   0000000000000000000000000A9        170192957705     
0010001300076U 020000000000000000000000000000000000000000000000000000000000000000000000000000000000000000000000000000000000000000000000001003201700000000            000000000000000                              000                           
0010001300077T 020180230000001544772 29577050509642185   7               12032017000000000010000001000213                         0900000000000010000000000000000000000000000000000000000   0000000000000000000000000A9        170192957705     
0010001300078U 020000000000000000000000000000000000000000000000000000000000000000000000000000000000000000000000000000000000000000000000001003201700000000            000000000000000                              000                           
0010001300079T 020180230000001544772 29577050723401094   7               12032017000000000007500001002224                         0900000000000010000000000000000000000000000000000000000   0000000000000000000000000A9        170192957705     
0010001300080U 020000000000000000000000000000000000000000000000000000000000000000000000000000000000000000000000000000000000000000000000001003201700000000            000000000000000                              000                           
0010001300081T 020180230000001544772 29577050723438446   7               12032017000000000007500001002224                         0900000000000010000000000000000000000000000000000000000   0000000000000000000000000A9        170192957705     
0010001300082U 020000000000000000000000000000000000000000000000000000000000000000000000000000000000000000000000000000000000000000000000001003201700000000            000000000000000                              000                           
0010001300083T 020180230000001544772 29577050739654570   7               12032017000000000007500001004782                         0900000000000010500000000000000000000000000000000000000   0000000000000000000000000A9A4      170192957705     
0010001300084U 020000000000000000000000000000000000000000000000000000000000000000000000000000000000000000000000000000000000000000000000001003201700000000            000000000000000                              000                           
0010001300085T 020180230000001544772 29577050772005237   7               12032017000000000007500001000213                         0900000000000010000000000000000000000000000000000000000   0000000000000000000000000A9        170192957705     
0010001300086U 020000000000000000000000000000000000000000000000000000000000000000000000000000000000000000000000000000000000000000000000001003201700000000            000000000000000                              000                           
0010001300087T 020180230000001544772 29577050792901581   7               12032017000000000007500001012416                         0900000000000010000000000000000000000000000000000000000   0000000000000000000000000A9        170192957705     
0010001300088U 020000000000000000000000000000000000000000000000000000000000000000000000000000000000000000000000000000000000000000000000001003201700000000            000000000000000                              000                           
0010001300089T 020180230000001544772 29577050820300970   7               12032017000000000010000001000213                         0900000000000010000000000000000000000000000000000000000   0000000000000000000000000A9        170192957705     
0010001300090U 020000000000000000000000000000000000000000000000000000000000000000000000000000000000000000000000000000000000000000000000001003201700000000            000000000000000                              000                           
0010001300091T 020180230000001544772 29577050928115983   7               1203201700000000000750000103049X                         0900000000000010000000000000000000000000000000000000000   0000000000000000000000000A9        170192957705     
0010001300092U 020000000000000000000000000000000000000000000000000000000000000000000000000000000000000000000000000000000000000000000000001003201700000000            000000000000000                              000                           
0010001300093T 020180230000001544772 29577050929950067   7               12032017000000000007500001000833                         0900000000000010000000000000000000000000000000000000000   0000000000000000000000000A9        170192957705     
0010001300094U 020000000000000000000000000000000000000000000000000000000000000000000000000000000000000000000000000000000000000000000000001003201700000000            000000000000000                              000                           
0010001300095T 020180230000001544772 29577050944228480   7               1203201700000000000750000103049X                         0900000000000010000000000000000000000000000000000000000   0000000000000000000000000A9        170192957705     
0010001300096U 020000000000000000000000000000000000000000000000000000000000000000000000000000000000000000000000000000000000000000000000001003201700000000            000000000000000                              000                           
0010001300097T 020180230000001544772 29577050992409119   7               12032017000000000007500001036951                         0900000000000010500000000000000000000000000000000000000   0000000000000000000000000A9A4      170192957705     
0010001300098U 020000000000000000000000000000000000000000000000000000000000000000000000000000000000000000000000000000000000000000000000001003201700000000            000000000000000                              000                           
0010001300099T 020180230000001544772 29577051043913771   7               12032017000000000007500001000833                         0900000000000010000000000000000000000000000000000000000   0000000000000000000000000A9        170192957705     
0010001300100U 020000000000000000000000000000000000000000000000000000000000000000000000000000000000000000000000000000000000000000000000001003201700000000            000000000000000                              000                           
0010001300101T 020180230000001544772 29577051047403545   7               12032017000000000007500001002224                         0900000000000010000000000000000000000000000000000000000   0000000000000000000000000A9        170192957705     
0010001300102U 020000000000000000000000000000000000000000000000000000000000000000000000000000000000000000000000000000000000000000000000001003201700000000            000000000000000                              000                           
0010001300103T 020180230000001544772 29577051073005199   7               12032017000000000007500001012408                         0900000000000010000000000000000000000000000000000000000   0000000000000000000000000A9        170192957705     
0010001300104U 020000000000000000000000000000000000000000000000000000000000000000000000000000000000000000000000000000000000000000000000001003201700000000            000000000000000                              000                           
0010001300105T 020180230000001544772 29577051093631072   7               12032017000000000007500001000213                         0900000000000010000000000000000000000000000000000000000   0000000000000000000000000A9        170192957705     
0010001300106U 020000000000000000000000000000000000000000000000000000000000000000000000000000000000000000000000000000000000000000000000001003201700000000            000000000000000                              000                           
0010001300107T 020180230000001544772 29577051094624303   7               1203201700000000000750000101981X                         0900000000000010500000000000000000000000000000000000000   0000000000000000000000000A9A4      170192957705     
0010001300108U 020000000000000000000000000000000000000000000000000000000000000000000000000000000000000000000000000000000000000000000000001003201700000000            000000000000000                              000                           
0010001300109T 020180230000001544772 29577051142236609   7               12032017000000000007500001000213                         0900000000000010000000000000000000000000000000000000000   0000000000000000000000000A9        170192957705     
0010001300110U 020000000000000000000000000000000000000000000000000000000000000000000000000000000000000000000000000000000000000000000000001003201700000000            000000000000000                              000                           
0010001300111T 020180230000001544772 29577051142301651   7               12032017000000000007500001000213                         0900000000000010000000000000000000000000000000000000000   0000000000000000000000000A9        170192957705     
0010001300112U 020000000000000000000000000000000000000000000000000000000000000000000000000000000000000000000000000000000000000000000000001003201700000000            000000000000000                              000                           
0010001300113T 020180230000001544772 29577051142305019   7               12032017000000000007500001000213                         0900000000000010000000000000000000000000000000000000000   0000000000000000000000000A9        170192957705     
0010001300114U 020000000000000000000000000000000000000000000000000000000000000000000000000000000000000000000000000000000000000000000000001003201700000000            000000000000000                              000                           
0010001300115T 020180230000001544772 29577051148139884   7               12032017000000000007500001000213                         0900000000000010000000000000000000000000000000000000000   0000000000000000000000000A9        170192957705     
0010001300116U 020000000000000000000000000000000000000000000000000000000000000000000000000000000000000000000000000000000000000000000000001003201700000000            000000000000000                              000                           
0010001300117T 020180230000001544772 29577051152025749   7               12032017000000000007500001000213                         0900000000000010000000000000000000000000000000000000000   0000000000000000000000000A9        170192957705     
0010001300118U 020000000000000000000000000000000000000000000000000000000000000000000000000000000000000000000000000000000000000000000000001003201700000000            000000000000000                              000                           
0010001300119T 020180230000001544772 29577051152308504   7               1203201700000000000750000103049X                         0900000000000010000000000000000000000000000000000000000   0000000000000000000000000A9        170192957705     
0010001300120U 020000000000000000000000000000000000000000000000000000000000000000000000000000000000000000000000000000000000000000000000001003201700000000            000000000000000                              000                           
0010001300121T 020180230000001544772 29577051152456254   7               12032017000000000007500001012408                         0900000000000010000000000000000000000000000000000000000   0000000000000000000000000A9        170192957705     
0010001300122U 020000000000000000000000000000000000000000000000000000000000000000000000000000000000000000000000000000000000000000000000001003201700000000            000000000000000                              000                           
0010001300123T 020180230000001544772 29577051152543639   7               12032017000000000010000001000213                         0900000000000010000000000000000000000000000000000000000   0000000000000000000000000A9        170192957705     
0010001300124U 020000000000000000000000000000000000000000000000000000000000000000000000000000000000000000000000000000000000000000000000001003201700000000            000000000000000                              000                           
0010001300125T 020180230000001544772 29577051152708421   7               12032017000000000007500001012408                         0900000000000010000000000000000000000000000000000000000   0000000000000000000000000A9        170192957705     
0010001300126U 020000000000000000000000000000000000000000000000000000000000000000000000000000000000000000000000000000000000000000000000001003201700000000            000000000000000                              000                           
0010001300127T 020180230000001544772 29577051152744108   7               12032017000000000007500001012408                         0900000000000010000000000000000000000000000000000000000   0000000000000000000000000A9        170192957705     
0010001300128U 020000000000000000000000000000000000000000000000000000000000000000000000000000000000000000000000000000000000000000000000001003201700000000            000000000000000                              000                           
0010001300129T 020180230000001544772 29577051152815380   7               1203201700000000000750000103049X                         0900000000000010000000000000000000000000000000000000000   0000000000000000000000000A9        170192957705     
0010001300130U 020000000000000000000000000000000000000000000000000000000000000000000000000000000000000000000000000000000000000000000000001003201700000000            000000000000000                              000                           
0010001300131T 020180230000001544772 29577051153111898   7               12032017000000000007500001000213                         0900000000000010000000000000000000000000000000000000000   0000000000000000000000000A9        170192957705     
0010001300132U 020000000000000000000000000000000000000000000000000000000000000000000000000000000000000000000000000000000000000000000000001003201700000000            000000000000000                              000                           
0010001300133T 020180230000001544772 29577051153205036   7               12032017000000000010000001012416                         0900000000000010000000000000000000000000000000000000000   0000000000000000000000000A9        170192957705     
0010001300134U 020000000000000000000000000000000000000000000000000000000000000000000000000000000000000000000000000000000000000000000000001003201700000000            000000000000000                              000                           
0010001300135T 020180230000001544772 29577051153357257   7               12032017000000000007500001012408                         0900000000000010500000000000000000000000000000000000000   0000000000000000000000000A9A4      170192957705     
0010001300136U 020000000000000000000000000000000000000000000000000000000000000000000000000000000000000000000000000000000000000000000000001003201700000000            000000000000000                              000                           
0010001300137T 020180230000001544772 29577051153402853   7               12032017000000000007500001012408                         0900000000000010000000000000000000000000000000000000000   0000000000000000000000000A9        170192957705     
0010001300138U 020000000000000000000000000000000000000000000000000000000000000000000000000000000000000000000000000000000000000000000000001003201700000000            000000000000000                              000                           
0010001300139T 020180230000001544772 29577051153547867   7               12032017000000000007500001012416                         0900000000000010000000000000000000000000000000000000000   0000000000000000000000000A9        170192957705     
0010001300140U 020000000000000000000000000000000000000000000000000000000000000000000000000000000000000000000000000000000000000000000000001003201700000000            000000000000000                              000                           
0010001300141T 020180230000001544772 29577051153617112   7               1203201700000000000750000103049X                         0900000000000010000000000000000000000000000000000000000   0000000000000000000000000A9        170192957705     
0010001300142U 020000000000000000000000000000000000000000000000000000000000000000000000000000000000000000000000000000000000000000000000001003201700000000            000000000000000                              000                           
0010001300143T 020180230000001544772 29577051153751605   7               12032017000000000007500001021121                         0900000000000010500000000000000000000000000000000000000   0000000000000000000000000A9A4      170192957705     
0010001300144U 020000000000000000000000000000000000000000000000000000000000000000000000000000000000000000000000000000000000000000000000001003201700000000            000000000000000                              000                           
0010001300145T 020180230000001544772 29577051153828490   7               12032017000000000007500001012408                         0900000000000010000000000000000000000000000000000000000   0000000000000000000000000A9        170192957705     
0010001300146U 020000000000000000000000000000000000000000000000000000000000000000000000000000000000000000000000000000000000000000000000001003201700000000            000000000000000                              000                           
0010001300147T 020180230000001544772 29577051153927882   7               12032017000000000007500001012416                         0900000000000010000000000000000000000000000000000000000   0000000000000000000000000A9        170192957705     
0010001300148U 020000000000000000000000000000000000000000000000000000000000000000000000000000000000000000000000000000000000000000000000001003201700000000            000000000000000                              000                           
0010001300149T 020180230000001544772 29577051154126653   7               1203201700000000000750000103049X                         0900000000000010000000000000000000000000000000000000000   0000000000000000000000000A9        170192957705     
0010001300150U 020000000000000000000000000000000000000000000000000000000000000000000000000000000000000000000000000000000000000000000000001003201700000000            000000000000000                              000                           
0010001300151T 020180230000001544772 29577051154127296   7               1203201700000000000750000103049X                         0900000000000010000000000000000000000000000000000000000   0000000000000000000000000A9        170192957705     
0010001300152U 020000000000000000000000000000000000000000000000000000000000000000000000000000000000000000000000000000000000000000000000001003201700000000            000000000000000                              000                           
0010001300153T 020180230000001544772 29577051154128669   7               1203201700000000000750000103049X                         0900000000000010000000000000000000000000000000000000000   0000000000000000000000000A9        170192957705     
0010001300154U 020000000000000000000000000000000000000000000000000000000000000000000000000000000000000000000000000000000000000000000000001003201700000000            000000000000000                              000                           
0010001300155T 020180230000001544772 29577051154240334   7               12032017000000000007500001000213                         0900000000000010000000000000000000000000000000000000000   0000000000000000000000000A9        170192957705     
0010001300156U 020000000000000000000000000000000000000000000000000000000000000000000000000000000000000000000000000000000000000000000000001003201700000000            000000000000000                              000                           
0010001300157T 020180230000001544772 29577051154545186   7               12032017000000000007500001012408                         0900000000000010000000000000000000000000000000000000000   0000000000000000000000000A9        170192957705     
0010001300158U 020000000000000000000000000000000000000000000000000000000000000000000000000000000000000000000000000000000000000000000000001003201700000000            000000000000000                              000                           
0010001300159T 020180230000001544772 29577051154620439   7               12032017000000000007500001009245                         0900000000000010000000000000000000000000000000000000000   0000000000000000000000000A9        170192957705     
0010001300160U 020000000000000000000000000000000000000000000000000000000000000000000000000000000000000000000000000000000000000000000000001003201700000000            000000000000000                              000                           
0010001300161T 020180230000001544772 29577051154630357   7               12032017000000000007500001009245                         0900000000000010000000000000000000000000000000000000000   0000000000000000000000000A9        170192957705     
0010001300162U 020000000000000000000000000000000000000000000000000000000000000000000000000000000000000000000000000000000000000000000000001003201700000000            000000000000000                              000                           
0010001300163T 020180230000001544772 29577051154640133   7               12032017000000000007500001009245                         0900000000000010000000000000000000000000000000000000000   0000000000000000000000000A9        170192957705     
0010001300164U 020000000000000000000000000000000000000000000000000000000000000000000000000000000000000000000000000000000000000000000000001003201700000000            000000000000000                              000                           
0010001300165T 020180230000001544772 29577051154652246   7               12032017000000000007500001009245                         0900000000000010000000000000000000000000000000000000000   0000000000000000000000000A9        170192957705     
0010001300166U 020000000000000000000000000000000000000000000000000000000000000000000000000000000000000000000000000000000000000000000000001003201700000000            000000000000000                              000                           
0010001300167T 020180230000001544772 29577051154814132   7               12032017000000000007500001012408                         0900000000000010000000000000000000000000000000000000000   0000000000000000000000000A9        170192957705     
0010001300168U 020000000000000000000000000000000000000000000000000000000000000000000000000000000000000000000000000000000000000000000000001003201700000000            000000000000000                              000                           
0010001300169T 020180230000001544772 29577051154852958   7               12032017000000000007500001012408                         0900000000000010000000000000000000000000000000000000000   0000000000000000000000000A9        170192957705     
0010001300170U 020000000000000000000000000000000000000000000000000000000000000000000000000000000000000000000000000000000000000000000000001003201700000000            000000000000000                              000                           
0010001300171T 020180230000001544772 29577051154859367   7               12032017000000000007500001012408                         0900000000000010000000000000000000000000000000000000000   0000000000000000000000000A9        170192957705     
0010001300172U 020000000000000000000000000000000000000000000000000000000000000000000000000000000000000000000000000000000000000000000000001003201700000000            000000000000000                              000                           
0010001300173T 020180230000001544772 29577051155209937   7               12032017000000000007500001002224                         0900000000000010000000000000000000000000000000000000000   0000000000000000000000000A9        170192957705     
0010001300174U 020000000000000000000000000000000000000000000000000000000000000000000000000000000000000000000000000000000000000000000000001003201700000000            000000000000000                              000                           
0010001300175T 020180230000001544772 29577051155527855   7               12032017000000000007500001000213                         0900000000000010000000000000000000000000000000000000000   0000000000000000000000000A9        170192957705     
0010001300176U 020000000000000000000000000000000000000000000000000000000000000000000000000000000000000000000000000000000000000000000000001003201700000000            000000000000000                              000                           
0010001300177T 020180230000001544772 29577051155651144   7               12032017000000000007500001012408                         0900000000000010000000000000000000000000000000000000000   0000000000000000000000000A9        170192957705     
0010001300178U 020000000000000000000000000000000000000000000000000000000000000000000000000000000000000000000000000000000000000000000000001003201700000000            000000000000000                              000                           
0010001300179T 020180230000001544772 29577051155814730   7               1203201700000000000750000103049X                         0900000000000010000000000000000000000000000000000000000   0000000000000000000000000A9        170192957705     
0010001300180U 020000000000000000000000000000000000000000000000000000000000000000000000000000000000000000000000000000000000000000000000001003201700000000            000000000000000                              000                           
0010001300181T 020180230000001544772 29577051155908550   7               1203201700000000000750000103049X                         0900000000000010000000000000000000000000000000000000000   0000000000000000000000000A9        170192957705     
0010001300182U 020000000000000000000000000000000000000000000000000000000000000000000000000000000000000000000000000000000000000000000000001003201700000000            000000000000000                              000                           
0010001300183T 020180230000001544772 29577051156003055   7               12032017000000000007500001012416                         0900000000000010000000000000000000000000000000000000000   0000000000000000000000000A9        170192957705     
0010001300184U 020000000000000000000000000000000000000000000000000000000000000000000000000000000000000000000000000000000000000000000000001003201700000000            000000000000000                              000                           
0010001300185T 020180230000001544772 29577051156006365   7               12032017000000000007500001012416                         0900000000000010000000000000000000000000000000000000000   0000000000000000000000000A9        170192957705     
0010001300186U 020000000000000000000000000000000000000000000000000000000000000000000000000000000000000000000000000000000000000000000000001003201700000000            000000000000000                              000                           
0010001300187T 020180230000001544772 29577051156119496   7               1203201700000000000750000103049X                         0900000000000010500000000000000000000000000000000000000   0000000000000000000000000A9A4      170192957705     
0010001300188U 020000000000000000000000000000000000000000000000000000000000000000000000000000000000000000000000000000000000000000000000001003201700000000            000000000000000                              000                           
0010001300189T 020180230000001544772 29577051156224532   7               12032017000000000007500001012408                         0900000000000010000000000000000000000000000000000000000   0000000000000000000000000A9        170192957705     
0010001300190U 020000000000000000000000000000000000000000000000000000000000000000000000000000000000000000000000000000000000000000000000001003201700000000            000000000000000                              000                           
0010001300191T 020180230000001544772 29577051156310867   7               12032017000000000007500001012408                         0900000000000010000000000000000000000000000000000000000   0000000000000000000000000A9        170192957705     
0010001300192U 020000000000000000000000000000000000000000000000000000000000000000000000000000000000000000000000000000000000000000000000001003201700000000            000000000000000                              000                           
0010001300193T 020180230000001544772 29577051156339110   7               12032017000000000007500001012408                         0900000000000010000000000000000000000000000000000000000   0000000000000000000000000A9        170192957705     
0010001300194U 020000000000000000000000000000000000000000000000000000000000000000000000000000000000000000000000000000000000000000000000001003201700000000            000000000000000                              000                           
0010001300195T 020180230000001544772 29577051156455356   7               1203201700000000000750000103049X                         0900000000000010000000000000000000000000000000000000000   0000000000000000000000000A9        170192957705     
0010001300196U 020000000000000000000000000000000000000000000000000000000000000000000000000000000000000000000000000000000000000000000000001003201700000000            000000000000000                              000                           
0010001300197T 020180230000001544772 29577051156517408   7               1203201700000000000750000103049X                         0900000000000010000000000000000000000000000000000000000   0000000000000000000000000A9        170192957705     
0010001300198U 020000000000000000000000000000000000000000000000000000000000000000000000000000000000000000000000000000000000000000000000001003201700000000            000000000000000                              000                           
0010001300199T 020180230000001544772 29577051156609872   7               12032017000000000007500001012408                         0900000000000010000000000000000000000000000000000000000   0000000000000000000000000A9        170192957705     
0010001300200U 020000000000000000000000000000000000000000000000000000000000000000000000000000000000000000000000000000000000000000000000001003201700000000            000000000000000                              000                           
0010001300201T 020180230000001544772 29577051156752120   7               12032017000000000007500001012416                         0900000000000010000000000000000000000000000000000000000   0000000000000000000000000A9        170192957705     
0010001300202U 020000000000000000000000000000000000000000000000000000000000000000000000000000000000000000000000000000000000000000000000001003201700000000            000000000000000                              000                           
0010001300203T 020180230000001544772 29577051157208576   7               12032017000000000007500001012416                         0900000000000010000000000000000000000000000000000000000   0000000000000000000000000A9        170192957705     
0010001300204U 020000000000000000000000000000000000000000000000000000000000000000000000000000000000000000000000000000000000000000000000001003201700000000            000000000000000                              000                           
0010001300205T 020180230000001544772 29577051157318177   7               12032017000000000007500001000213                         0900000000000010000000000000000000000000000000000000000   0000000000000000000000000A9        170192957705     
0010001300206U 020000000000000000000000000000000000000000000000000000000000000000000000000000000000000000000000000000000000000000000000001003201700000000            000000000000000                              000                           
0010001300207T 020180230000001544772 29577051157404962   7               12032017000000000007500001012416                         0900000000000010000000000000000000000000000000000000000   0000000000000000000000000A9        170192957705     
0010001300208U 020000000000000000000000000000000000000000000000000000000000000000000000000000000000000000000000000000000000000000000000001003201700000000            000000000000000                              000                           
0010001300209T 020180230000001544772 29577051157555732   7               12032017000000000007500001000213                         0900000000000010000000000000000000000000000000000000000   0000000000000000000000000A9        170192957705     
0010001300210U 020000000000000000000000000000000000000000000000000000000000000000000000000000000000000000000000000000000000000000000000001003201700000000            000000000000000                              000                           
0010001300211T 020180230000001544772 29577051157702101   7               12032017000000000007500001000213                         0900000000000010000000000000000000000000000000000000000   0000000000000000000000000A9        170192957705     
0010001300212U 020000000000000000000000000000000000000000000000000000000000000000000000000000000000000000000000000000000000000000000000001003201700000000            000000000000000                              000                           
0010001300213T 020180230000001544772 29577051158309139   7               12032017000000000007500001000213                         0900000000000010000000000000000000000000000000000000000   0000000000000000000000000A9        170192957705     
0010001300214U 020000000000000000000000000000000000000000000000000000000000000000000000000000000000000000000000000000000000000000000000001003201700000000            000000000000000                              000                           
0010001300215T 020180230000001544772 29577051158423729   7               12032017000000000007500001012416                         0900000000000010000000000000000000000000000000000000000   0000000000000000000000000A9        170192957705     
0010001300216U 020000000000000000000000000000000000000000000000000000000000000000000000000000000000000000000000000000000000000000000000001003201700000000            000000000000000                              000                           
0010001300217T 020180230000001544772 29577051158621851   7               12032017000000000007500001012408                         0900000000000010000000000000000000000000000000000000000   0000000000000000000000000A9        170192957705     
0010001300218U 020000000000000000000000000000000000000000000000000000000000000000000000000000000000000000000000000000000000000000000000001003201700000000            000000000000000                              000                           
0010001300219T 020180230000001544772 29577051158759171   7               12032017000000000007500001012408                         0900000000000010000000000000000000000000000000000000000   0000000000000000000000000A9        170192957705     
0010001300220U 020000000000000000000000000000000000000000000000000000000000000000000000000000000000000000000000000000000000000000000000001003201700000000            000000000000000                              000                           
0010001300221T 020180230000001544772 29577051158901414   7               12032017000000000007500001000213                         0900000000000010000000000000000000000000000000000000000   0000000000000000000000000A9        170192957705     
0010001300222U 020000000000000000000000000000000000000000000000000000000000000000000000000000000000000000000000000000000000000000000000001003201700000000            000000000000000                              000                           
0010001300223T 020180230000001544772 29577051159406009   7               12032017000000000007500001000213                         0900000000000010000000000000000000000000000000000000000   0000000000000000000000000A9        170192957705     
0010001300224U 020000000000000000000000000000000000000000000000000000000000000000000000000000000000000000000000000000000000000000000000001003201700000000            000000000000000                              000                           
0010001300225T 020180230000001544772 29577051159516224   7               12032017000000000007500001012416                         0900000000000010000000000000000000000000000000000000000   0000000000000000000000000A9        170192957705     
0010001300226U 020000000000000000000000000000000000000000000000000000000000000000000000000000000000000000000000000000000000000000000000001003201700000000            000000000000000                              000                           
0010001300227T 020180230000001544772 29577051159643402   7               1203201700000000000750000103049X                         0900000000000010000000000000000000000000000000000000000   0000000000000000000000000A9        170192957705     
0010001300228U 020000000000000000000000000000000000000000000000000000000000000000000000000000000000000000000000000000000000000000000000001003201700000000            000000000000000                              000                           
0010001300229T 020180230000001544772 29577051159816114   7               1203201700000000000750000103049X                         0900000000000010000000000000000000000000000000000000000   0000000000000000000000000A9        170192957705     
0010001300230U 020000000000000000000000000000000000000000000000000000000000000000000000000000000000000000000000000000000000000000000000001003201700000000            000000000000000                              000                           
0010001300231T 020180230000001544772 29577051159908260   7               12032017000000000007500001012408                         0900000000000010000000000000000000000000000000000000000   0000000000000000000000000A9        170192957705     
0010001300232U 020000000000000000000000000000000000000000000000000000000000000000000000000000000000000000000000000000000000000000000000001003201700000000            000000000000000                              000                           
0010001300233T 020180230000001544772 29577051159908793   7               12032017000000000007500001012408                         0900000000000010000000000000000000000000000000000000000   0000000000000000000000000A9        170192957705     
0010001300234U 020000000000000000000000000000000000000000000000000000000000000000000000000000000000000000000000000000000000000000000000001003201700000000            000000000000000                              000                           
0010001300235T 020180230000001544772 29577051160057219   7               12032017000000000007500001000213                         0900000000000010000000000000000000000000000000000000000   0000000000000000000000000A9        170192957705     
0010001300236U 020000000000000000000000000000000000000000000000000000000000000000000000000000000000000000000000000000000000000000000000001003201700000000            000000000000000                              000                           
0010001300237T 020180230000001544772 29577051160312981   7               12032017000000000010000001036889                         0900000000000010000000000000000000000000000000000000000   0000000000000000000000000A9        170192957705     
0010001300238U 020000000000000000000000000000000000000000000000000000000000000000000000000000000000000000000000000000000000000000000000001003201700000000            000000000000000                              000                           
0010001300239T 020180230000001544772 29577051160555321   7               1203201700000000000750000103049X                         0900000000000010000000000000000000000000000000000000000   0000000000000000000000000A9        170192957705     
0010001300240U 020000000000000000000000000000000000000000000000000000000000000000000000000000000000000000000000000000000000000000000000001003201700000000            000000000000000                              000                           
0010001300241T 020180230000001544772 29577051160809037   7               12032017000000000007500001000213                         0900000000000010000000000000000000000000000000000000000   0000000000000000000000000A9        170192957705     
0010001300242U 020000000000000000000000000000000000000000000000000000000000000000000000000000000000000000000000000000000000000000000000001003201700000000            000000000000000                              000                           
0010001300243T 020180230000001544772 29577051160813126   7               12032017000000000007500001000213                         0900000000000010000000000000000000000000000000000000000   0000000000000000000000000A9        170192957705     
0010001300244U 020000000000000000000000000000000000000000000000000000000000000000000000000000000000000000000000000000000000000000000000001003201700000000            000000000000000                              000                           
0010001300245T 020180230000001544772 29577051161006836   7               12032017000000000007500001012408                         0900000000000010000000000000000000000000000000000000000   0000000000000000000000000A9        170192957705     
0010001300246U 020000000000000000000000000000000000000000000000000000000000000000000000000000000000000000000000000000000000000000000000001003201700000000            000000000000000                              000                           
0010001300247T 020180230000001544772 29577051161450319   7               12032017000000000007500001012408                         0900000000000010000000000000000000000000000000000000000   0000000000000000000000000A9        170192957705     
0010001300248U 020000000000000000000000000000000000000000000000000000000000000000000000000000000000000000000000000000000000000000000000001003201700000000            000000000000000                              000                           
0010001300249T 020180230000001544772 29577051161522087   7               12032017000000000007500001000213                         0900000000000010000000000000000000000000000000000000000   0000000000000000000000000A9        170192957705     
0010001300250U 020000000000000000000000000000000000000000000000000000000000000000000000000000000000000000000000000000000000000000000000001003201700000000            000000000000000                              000                           
0010001300251T 020180230000001544772 29577051161806414   7               12032017000000000007500001012416                         0900000000000010000000000000000000000000000000000000000   0000000000000000000000000A9        170192957705     
0010001300252U 020000000000000000000000000000000000000000000000000000000000000000000000000000000000000000000000000000000000000000000000001003201700000000            000000000000000                              000                           
0010001300253T 020180230000001544772 29577051162154192   7               12032017000000000007500001000213                         0900000000000010000000000000000000000000000000000000000   0000000000000000000000000A9        170192957705     
0010001300254U 020000000000000000000000000000000000000000000000000000000000000000000000000000000000000000000000000000000000000000000000001003201700000000            000000000000000                              000                           
0010001300255T 020180230000001544772 29577051162358159   7               1203201700000000000750000103049X                         0900000000000010000000000000000000000000000000000000000   0000000000000000000000000A9        170192957705     
0010001300256U 020000000000000000000000000000000000000000000000000000000000000000000000000000000000000000000000000000000000000000000000001003201700000000            000000000000000                              000                           
0010001300257T 020180230000001544772 29577051162403957   7               12032017000000000007500001000213                         0900000000000010000000000000000000000000000000000000000   0000000000000000000000000A9        170192957705     
0010001300258U 020000000000000000000000000000000000000000000000000000000000000000000000000000000000000000000000000000000000000000000000001003201700000000            000000000000000                              000                           
0010001300259T 020180230000001544772 29577051162533859   7               1203201700000000000750000103049X                         0900000000000010000000000000000000000000000000000000000   0000000000000000000000000A9        170192957705     
0010001300260U 020000000000000000000000000000000000000000000000000000000000000000000000000000000000000000000000000000000000000000000000001003201700000000            000000000000000                              000                           
0010001300261T 020180230000001544772 29577051162645794   7               12032017000000000007500001000213                         0900000000000010500000000000000000000000000000000000000   0000000000000000000000000A9A4      170192957705     
0010001300262U 020000000000000000000000000000000000000000000000000000000000000000000000000000000000000000000000000000000000000000000000001003201700000000            000000000000000                              000                           
0010001300263T 020180230000001544772 29577051162745287   7               12032017000000000007500001012416                         0900000000000010000000000000000000000000000000000000000   0000000000000000000000000A9        170192957705     
0010001300264U 020000000000000000000000000000000000000000000000000000000000000000000000000000000000000000000000000000000000000000000000001003201700000000            000000000000000                              000                           
0010001300265T 020180230000001544772 29577051162856869   7               12032017000000000007500001012416                         0900000000000010000000000000000000000000000000000000000   0000000000000000000000000A9        170192957705     
0010001300266U 020000000000000000000000000000000000000000000000000000000000000000000000000000000000000000000000000000000000000000000000001003201700000000            000000000000000                              000                           
0010001300267T 020180230000001544772 29577051162907189   7               12032017000000000007500001000213                         0900000000000010000000000000000000000000000000000000000   0000000000000000000000000A9        170192957705     
0010001300268U 020000000000000000000000000000000000000000000000000000000000000000000000000000000000000000000000000000000000000000000000001003201700000000            000000000000000                              000                           
0010001300269T 020180230000001544772 29577051163150244   7               12032017000000000007500001000213                         0900000000000010500000000000000000000000000000000000000   0000000000000000000000000A9A4      170192957705     
0010001300270U 020000000000000000000000000000000000000000000000000000000000000000000000000000000000000000000000000000000000000000000000001003201700000000            000000000000000                              000                           
0010001300271T 020180230000001544772 29577051163202203   7               12032017000000000007500001012408                         0900000000000010000000000000000000000000000000000000000   0000000000000000000000000A9        170192957705     
0010001300272U 020000000000000000000000000000000000000000000000000000000000000000000000000000000000000000000000000000000000000000000000001003201700000000            000000000000000                              000                           
0010001300273T 020180230000001544772 29577051163319560   7               12032017000000000007500001000213                         0900000000000010000000000000000000000000000000000000000   0000000000000000000000000A9        170192957705     
0010001300274U 020000000000000000000000000000000000000000000000000000000000000000000000000000000000000000000000000000000000000000000000001003201700000000            000000000000000                              000                           
0010001300275T 020180230000001544772 29577051164451497   7               12032017000000000007500001000213                         0900000000000010000000000000000000000000000000000000000   0000000000000000000000000A9        170192957705     
0010001300276U 020000000000000000000000000000000000000000000000000000000000000000000000000000000000000000000000000000000000000000000000001003201700000000            000000000000000                              000                           
0010001300277T 020180230000001544772 29577051164802229   7               12032017000000000007500001012408                         0900000000000010000000000000000000000000000000000000000   0000000000000000000000000A9        170192957705     
0010001300278U 020000000000000000000000000000000000000000000000000000000000000000000000000000000000000000000000000000000000000000000000001003201700000000            000000000000000                              000                           
0010001300279T 020180230000001544772 29577051165014297   7               12032017000000000007500001000213                         0900000000000010000000000000000000000000000000000000000   0000000000000000000000000A9        170192957705     
0010001300280U 020000000000000000000000000000000000000000000000000000000000000000000000000000000000000000000000000000000000000000000000001003201700000000            000000000000000                              000                           
0010001300281T 020180230000001544772 29577051165349877   7               12032017000000000007500001012408                         0900000000000010000000000000000000000000000000000000000   0000000000000000000000000A9        170192957705     
0010001300282U 020000000000000000000000000000000000000000000000000000000000000000000000000000000000000000000000000000000000000000000000001003201700000000            000000000000000                              000                           
0010001300283T 020180230000001544772 29577051165548063   7               1203201700000000000750000103049X                         0900000000000010000000000000000000000000000000000000000   0000000000000000000000000A9        170192957705     
0010001300284U 020000000000000000000000000000000000000000000000000000000000000000000000000000000000000000000000000000000000000000000000001003201700000000            000000000000000                              000                           
0010001300285T 020180230000001544772 29577051165914617   7               12032017000000000007500001012416                         0900000000000010000000000000000000000000000000000000000   0000000000000000000000000A9        170192957705     
0010001300286U 020000000000000000000000000000000000000000000000000000000000000000000000000000000000000000000000000000000000000000000000001003201700000000            000000000000000                              000                           
0010001300287T 020180230000001544772 29577051166004090   7               1203201700000000000750000103049X                         0900000000000010000000000000000000000000000000000000000   0000000000000000000000000A9        170192957705     
0010001300288U 020000000000000000000000000000000000000000000000000000000000000000000000000000000000000000000000000000000000000000000000001003201700000000            000000000000000                              000                           
0010001300289T 020180230000001544772 29577051166121294   7               12032017000000000007500001012408                         0900000000000010000000000000000000000000000000000000000   0000000000000000000000000A9        170192957705     
0010001300290U 020000000000000000000000000000000000000000000000000000000000000000000000000000000000000000000000000000000000000000000000001003201700000000            000000000000000                              000                           
0010001300291T 020180230000001544772 29577051166344611   7               12032017000000000007500001012416                         0900000000000010000000000000000000000000000000000000000   0000000000000000000000000A9        170192957705     
0010001300292U 020000000000000000000000000000000000000000000000000000000000000000000000000000000000000000000000000000000000000000000000001003201700000000            000000000000000                              000                           
0010001300293T 020180230000001544772 29577051166548297   7               1203201700000000000750000103049X                         0900000000000010000000000000000000000000000000000000000   0000000000000000000000000A9        170192957705     
0010001300294U 020000000000000000000000000000000000000000000000000000000000000000000000000000000000000000000000000000000000000000000000001003201700000000            000000000000000                              000                           
0010001300295T 020180230000001544772 29577051166915817   7               1203201700000000000750000103049X                         0900000000000010000000000000000000000000000000000000000   0000000000000000000000000A9        170192957705     
0010001300296U 020000000000000000000000000000000000000000000000000000000000000000000000000000000000000000000000000000000000000000000000001003201700000000            000000000000000                              000                           
0010001300297T 020180230000001544772 29577051167313001   7               1203201700000000000750000103049X                         0900000000000010000000000000000000000000000000000000000   0000000000000000000000000A9        170192957705     
0010001300298U 020000000000000000000000000000000000000000000000000000000000000000000000000000000000000000000000000000000000000000000000001003201700000000            000000000000000                              000                           
0010001300299T 020180230000001544772 29577051167856246   7               12032017000000000007500001012416                         0900000000000010000000000000000000000000000000000000000   0000000000000000000000000A9        170192957705     
0010001300300U 020000000000000000000000000000000000000000000000000000000000000000000000000000000000000000000000000000000000000000000000001003201700000000            000000000000000                              000                           
0010001300301T 020180230000001544772 29577051167924615   7               1203201700000000000750000103049X                         0900000000000010000000000000000000000000000000000000000   0000000000000000000000000A9        170192957705     
0010001300302U 020000000000000000000000000000000000000000000000000000000000000000000000000000000000000000000000000000000000000000000000001003201700000000            000000000000000                              000                           
0010001300303T 020180230000001544772 29577051168227784   7               12032017000000000007500001009245                         0900000000000010000000000000000000000000000000000000000   0000000000000000000000000A9        170192957705     
0010001300304U 020000000000000000000000000000000000000000000000000000000000000000000000000000000000000000000000000000000000000000000000001003201700000000            000000000000000                              000                           
0010001300305T 020180230000001544772 29577051168421895   7               12032017000000000007500001000213                         0900000000000010000000000000000000000000000000000000000   0000000000000000000000000A9        170192957705     
0010001300306U 020000000000000000000000000000000000000000000000000000000000000000000000000000000000000000000000000000000000000000000000001003201700000000            000000000000000                              000                           
0010001300307T 020180230000001544772 29577051168645005   7               12032017000000000010000001010235                         0900000000000010000000000000000000000000000000000000000   0000000000000000000000000A9        170192957705     
0010001300308U 020000000000000000000000000000000000000000000000000000000000000000000000000000000000000000000000000000000000000000000000001003201700000000            000000000000000                              000                           
0010001300309T 020180230000001544772 29577051169004494   7               12032017000000000007500001046280                         0900000000000010000000000000000000000000000000000000000   0000000000000000000000000A9        170192957705     
0010001300310U 020000000000000000000000000000000000000000000000000000000000000000000000000000000000000000000000000000000000000000000000001003201700000000            000000000000000                              000                           
0010001300311T 020180230000001544772 29577051169207801   7               12032017000000000007500001012416                         0900000000000010000000000000000000000000000000000000000   0000000000000000000000000A9        170192957705     
0010001300312U 020000000000000000000000000000000000000000000000000000000000000000000000000000000000000000000000000000000000000000000000001003201700000000            000000000000000                              000                           
0010001300313T 020180230000001544772 29577051169304456   7               12032017000000000007500001012416                         0900000000000010000000000000000000000000000000000000000   0000000000000000000000000A9        170192957705     
0010001300314U 020000000000000000000000000000000000000000000000000000000000000000000000000000000000000000000000000000000000000000000000001003201700000000            000000000000000                              000                           
0010001300315T 020180230000001544772 29577051169450458   7               12032017000000000007500001012408                         0900000000000010000000000000000000000000000000000000000   0000000000000000000000000A9        170192957705     
0010001300316U 020000000000000000000000000000000000000000000000000000000000000000000000000000000000000000000000000000000000000000000000001003201700000000            000000000000000                              000                           
0010001300317T 020180230000001544772 29577051169756478   7               12032017000000000007500001010618                         0900000000000010000000000000000000000000000000000000000   0000000000000000000000000A9        170192957705     
0010001300318U 020000000000000000000000000000000000000000000000000000000000000000000000000000000000000000000000000000000000000000000000001003201700000000            000000000000000                              000                           
0010001300319T 020180230000001544772 29577051169811881   7               1203201700000000000750000103049X                         0900000000000010000000000000000000000000000000000000000   0000000000000000000000000A9        170192957705     
0010001300320U 020000000000000000000000000000000000000000000000000000000000000000000000000000000000000000000000000000000000000000000000001003201700000000            000000000000000                              000                           
0010001300321T 020180230000001544772 29577051169949895   7               12032017000000000007500001000213                         0900000000000010000000000000000000000000000000000000000   0000000000000000000000000A9        170192957705     
0010001300322U 020000000000000000000000000000000000000000000000000000000000000000000000000000000000000000000000000000000000000000000000001003201700000000            000000000000000                              000                           
0010001300323T 020180230000001544772 29577051170032900   7               12032017000000000007500001007102                         0900000000000010000000000000000000000000000000000000000   0000000000000000000000000A9        170192957705     
0010001300324U 020000000000000000000000000000000000000000000000000000000000000000000000000000000000000000000000000000000000000000000000001003201700000000            000000000000000                              000                           
0010001300325T 020180230000001544772 29577051170137166   7               12032017000000000007500001012408                         0900000000000010000000000000000000000000000000000000000   0000000000000000000000000A9        170192957705     
0010001300326U 020000000000000000000000000000000000000000000000000000000000000000000000000000000000000000000000000000000000000000000000001003201700000000            000000000000000                              000                           
0010001300327T 020180230000001544772 29577051170304885   7               12032017000000000007500001000213                         0900000000000010000000000000000000000000000000000000000   0000000000000000000000000A9        170192957705     
0010001300328U 020000000000000000000000000000000000000000000000000000000000000000000000000000000000000000000000000000000000000000000000001003201700000000            000000000000000                              000                           
0010001300329T 020180230000001544772 29577051170543279   7               12032017000000000007500001012416                         0900000000000010500000000000000000000000000000000000000   0000000000000000000000000A9A4      170192957705     
0010001300330U 020000000000000000000000000000000000000000000000000000000000000000000000000000000000000000000000000000000000000000000000001003201700000000            000000000000000                              000                           
0010001300331T 020180230000001544772 29577051170735800   7               1203201700000000000750000103049X                         0900000000000010000000000000000000000000000000000000000   0000000000000000000000000A9        170192957705     
0010001300332U 020000000000000000000000000000000000000000000000000000000000000000000000000000000000000000000000000000000000000000000000001003201700000000            000000000000000                              000                           
0010001300333T 020180230000001544772 29577051170827809   7               1203201700000000000750000103049X                         0900000000000010000000000000000000000000000000000000000   0000000000000000000000000A9        170192957705     
0010001300334U 020000000000000000000000000000000000000000000000000000000000000000000000000000000000000000000000000000000000000000000000001003201700000000            000000000000000                              000                           
0010001300335T 020180230000001544772 29577051170936157   7               1203201700000000000750000103049X                         0900000000000010000000000000000000000000000000000000000   0000000000000000000000000A9        170192957705     
0010001300336U 020000000000000000000000000000000000000000000000000000000000000000000000000000000000000000000000000000000000000000000000001003201700000000            000000000000000                              000                           
0010001300337T 020180230000001544772 29577051171002585   7               12032017000000000007500001012408                         0900000000000010000000000000000000000000000000000000000   0000000000000000000000000A9        170192957705     
0010001300338U 020000000000000000000000000000000000000000000000000000000000000000000000000000000000000000000000000000000000000000000000001003201700000000            000000000000000                              000                           
0010001300339T 020180230000001544772 29577051171011896   7               12032017000000000007500001012408                         0900000000000010000000000000000000000000000000000000000   0000000000000000000000000A9        170192957705     
0010001300340U 020000000000000000000000000000000000000000000000000000000000000000000000000000000000000000000000000000000000000000000000001003201700000000            000000000000000                              000                           
0010001300341T 020180230000001544772 29577051171103422   7               1203201700000000000750000103049X                         0900000000000010000000000000000000000000000000000000000   0000000000000000000000000A9        170192957705     
0010001300342U 020000000000000000000000000000000000000000000000000000000000000000000000000000000000000000000000000000000000000000000000001003201700000000            000000000000000                              000                           
0010001300343T 020180230000001544772 29577051171356779   7               1203201700000000000750000103049X                         0900000000000010000000000000000000000000000000000000000   0000000000000000000000000A9        170192957705     
0010001300344U 020000000000000000000000000000000000000000000000000000000000000000000000000000000000000000000000000000000000000000000000001003201700000000            000000000000000                              000                           
0010001300345T 020180230000001544772 29577051171452481   7               1203201700000000000750000103049X                         0900000000000010000000000000000000000000000000000000000   0000000000000000000000000A9        170192957705     
0010001300346U 020000000000000000000000000000000000000000000000000000000000000000000000000000000000000000000000000000000000000000000000001003201700000000            000000000000000                              000                           
0010001300347T 020180230000001544772 29577051171604186   7               12032017000000000010000001009245                         0900000000000010000000000000000000000000000000000000000   0000000000000000000000000A9        170192957705     
0010001300348U 020000000000000000000000000000000000000000000000000000000000000000000000000000000000000000000000000000000000000000000000001003201700000000            000000000000000                              000                           
0010001300349T 020180230000001544772 29577051171745831   7               12032017000000000007500001012416                         0900000000000010500000000000000000000000000000000000000   0000000000000000000000000A9A4      170192957705     
0010001300350U 020000000000000000000000000000000000000000000000000000000000000000000000000000000000000000000000000000000000000000000000001003201700000000            000000000000000                              000                           
0010001300351T 020180230000001544772 29577051171818166   7               12032017000000000007500001012408                         0900000000000010000000000000000000000000000000000000000   0000000000000000000000000A9        170192957705     
0010001300352U 020000000000000000000000000000000000000000000000000000000000000000000000000000000000000000000000000000000000000000000000001003201700000000            000000000000000                              000                           
0010001300353T 020180230000001544772 29577051172051099   7               12032017000000000007500001004782                         0900000000000010000000000000000000000000000000000000000   0000000000000000000000000A9        170192957705     
0010001300354U 020000000000000000000000000000000000000000000000000000000000000000000000000000000000000000000000000000000000000000000000001003201700000000            000000000000000                              000                           
0010001300355T 020180230000001544772 29577051172225096   7               12032017000000000007500001000213                         0900000000000010000000000000000000000000000000000000000   0000000000000000000000000A9        170192957705     
0010001300356U 020000000000000000000000000000000000000000000000000000000000000000000000000000000000000000000000000000000000000000000000001003201700000000            000000000000000                              000                           
0010001300357T 020180230000001544772 29577051172343778   7               12032017000000000007500001012408                         0900000000000010000000000000000000000000000000000000000   0000000000000000000000000A9        170192957705     
0010001300358U 020000000000000000000000000000000000000000000000000000000000000000000000000000000000000000000000000000000000000000000000001003201700000000            000000000000000                              000                           
0010001300359T 020180230000001544772 29577051172430600   7               12032017000000000007500001000213                         0900000000000010000000000000000000000000000000000000000   0000000000000000000000000A9        170192957705     
0010001300360U 020000000000000000000000000000000000000000000000000000000000000000000000000000000000000000000000000000000000000000000000001003201700000000            000000000000000                              000                           
0010001300361T 020180230000001544772 29577051172859900   7               1203201700000000000750000101981X                         0900000000000010000000000000000000000000000000000000000   0000000000000000000000000A9        170192957705     
0010001300362U 020000000000000000000000000000000000000000000000000000000000000000000000000000000000000000000000000000000000000000000000001003201700000000            000000000000000                              000                           
0010001300363T 020180230000001544772 29577051173135334   7               12032017000000000007500001012416                         0900000000000010000000000000000000000000000000000000000   0000000000000000000000000A9        170192957705     
0010001300364U 020000000000000000000000000000000000000000000000000000000000000000000000000000000000000000000000000000000000000000000000001003201700000000            000000000000000                              000                           
0010001300365T 020180230000001544772 29577051173411952   7               1203201700000000000750000103049X                         0900000000000010000000000000000000000000000000000000000   0000000000000000000000000A9        170192957705     
0010001300366U 020000000000000000000000000000000000000000000000000000000000000000000000000000000000000000000000000000000000000000000000001003201700000000            000000000000000                              000                           
0010001300367T 020180230000001544772 29577051173418076   7               1203201700000000000750000103049X                         0900000000000010000000000000000000000000000000000000000   0000000000000000000000000A9        170192957705     
0010001300368U 020000000000000000000000000000000000000000000000000000000000000000000000000000000000000000000000000000000000000000000000001003201700000000            000000000000000                              000                           
0010001300369T 020180230000001544772 29577051173926067   7               12032017000000000007500001012416                         0900000000000010000000000000000000000000000000000000000   0000000000000000000000000A9        170192957705     
0010001300370U 020000000000000000000000000000000000000000000000000000000000000000000000000000000000000000000000000000000000000000000000001003201700000000            000000000000000                              000                           
0010001300371T 020180230000001544772 29577051174000079   7               1203201700000000000750000103049X                         0900000000000010000000000000000000000000000000000000000   0000000000000000000000000A9        170192957705     
0010001300372U 020000000000000000000000000000000000000000000000000000000000000000000000000000000000000000000000000000000000000000000000001003201700000000            000000000000000                              000                           
0010001300373T 020180230000001544772 29577051174230394   7               12032017000000000007500001000213                         0900000000000010000000000000000000000000000000000000000   0000000000000000000000000A9        170192957705     
0010001300374U 020000000000000000000000000000000000000000000000000000000000000000000000000000000000000000000000000000000000000000000000001003201700000000            000000000000000                              000                           
0010001300375T 020180230000001544772 29577051174352633   7               1203201700000000000750000103049X                         0900000000000010000000000000000000000000000000000000000   0000000000000000000000000A9        170192957705     
0010001300376U 020000000000000000000000000000000000000000000000000000000000000000000000000000000000000000000000000000000000000000000000001003201700000000            000000000000000                              000                           
0010001300377T 020180230000001544772 29577051174609227   7               12032017000000000007500001000213                         0900000000000010000000000000000000000000000000000000000   0000000000000000000000000A9        170192957705     
0010001300378U 020000000000000000000000000000000000000000000000000000000000000000000000000000000000000000000000000000000000000000000000001003201700000000            000000000000000                              000                           
0010001300379T 020180230000001544772 29577051174843786   7               1203201700000000000750000103049X                         0900000000000010000000000000000000000000000000000000000   0000000000000000000000000A9        170192957705     
0010001300380U 020000000000000000000000000000000000000000000000000000000000000000000000000000000000000000000000000000000000000000000000001003201700000000            000000000000000                              000                           
0010001300381T 020180230000001544772 29577051175031987   7               12032017000000000007500001000213                         0900000000000010000000000000000000000000000000000000000   0000000000000000000000000A9        170192957705     
0010001300382U 020000000000000000000000000000000000000000000000000000000000000000000000000000000000000000000000000000000000000000000000001003201700000000            000000000000000                              000                           
0010001300383T 020180230000001544772 29577051175443492   7               12032017000000000007500001000213                         0900000000000010000000000000000000000000000000000000000   0000000000000000000000000A9        170192957705     
0010001300384U 020000000000000000000000000000000000000000000000000000000000000000000000000000000000000000000000000000000000000000000000001003201700000000            000000000000000                              000                           
0010001300385T 020180230000001544772 29577051175551359   7               12032017000000000007500001000213                         0900000000000010000000000000000000000000000000000000000   0000000000000000000000000A9        170192957705     
0010001300386U 020000000000000000000000000000000000000000000000000000000000000000000000000000000000000000000000000000000000000000000000001003201700000000            000000000000000                              000                           
0010001300387T 020180230000001544772 29577051175557356   7               12032017000000000007500001000213                         0900000000000010000000000000000000000000000000000000000   0000000000000000000000000A9        170192957705     
0010001300388U 020000000000000000000000000000000000000000000000000000000000000000000000000000000000000000000000000000000000000000000000001003201700000000            000000000000000                              000                           
0010001300389T 020180230000001544772 29577051175650597   7               1203201700000000000750000103049X                         0900000000000010000000000000000000000000000000000000000   0000000000000000000000000A9        170192957705     
0010001300390U 020000000000000000000000000000000000000000000000000000000000000000000000000000000000000000000000000000000000000000000000001003201700000000            000000000000000                              000                           
0010001300391T 020180230000001544772 29577051175714950   7               12032017000000000007500001012416                         0900000000000010000000000000000000000000000000000000000   0000000000000000000000000A9        170192957705     
0010001300392U 020000000000000000000000000000000000000000000000000000000000000000000000000000000000000000000000000000000000000000000000001003201700000000            000000000000000                              000                           
0010001300393T 020180230000001544772 29577051175821541   7               1203201700000000000750000103049X                         0900000000000010000000000000000000000000000000000000000   0000000000000000000000000A9        170192957705     
0010001300394U 020000000000000000000000000000000000000000000000000000000000000000000000000000000000000000000000000000000000000000000000001003201700000000            000000000000000                              000                           
0010001300395T 020180230000001544772 29577051176040029   7               1203201700000000000750000103049X                         0900000000000010000000000000000000000000000000000000000   0000000000000000000000000A9        170192957705     
0010001300396U 020000000000000000000000000000000000000000000000000000000000000000000000000000000000000000000000000000000000000000000000001003201700000000            000000000000000                              000                           
0010001300397T 020180230000001544772 29577051176049573   7               1203201700000000000750000103049X                         0900000000000010000000000000000000000000000000000000000   0000000000000000000000000A9        170192957705     
0010001300398U 020000000000000000000000000000000000000000000000000000000000000000000000000000000000000000000000000000000000000000000000001003201700000000            000000000000000                              000                           
0010001300399T 020180230000001544772 29577051176105260   7               12032017000000000007500001012408                         0900000000000010000000000000000000000000000000000000000   0000000000000000000000000A9        170192957705     
0010001300400U 020000000000000000000000000000000000000000000000000000000000000000000000000000000000000000000000000000000000000000000000001003201700000000            000000000000000                              000                           
0010001300401T 020180230000001544772 29577051176323754   7               12032017000000000007500001012416                         0900000000000010000000000000000000000000000000000000000   0000000000000000000000000A9        170192957705     
0010001300402U 020000000000000000000000000000000000000000000000000000000000000000000000000000000000000000000000000000000000000000000000001003201700000000            000000000000000                              000                           
0010001300403T 020180230000001544772 29577051176436620   7               12032017000000000007500001000213                         0900000000000010000000000000000000000000000000000000000   0000000000000000000000000A9        170192957705     
0010001300404U 020000000000000000000000000000000000000000000000000000000000000000000000000000000000000000000000000000000000000000000000001003201700000000            000000000000000                              000                           
0010001300405T 020180230000001544772 29577051176606345   7               1203201700000000000750000103049X                         0900000000000010000000000000000000000000000000000000000   0000000000000000000000000A9        170192957705     
0010001300406U 020000000000000000000000000000000000000000000000000000000000000000000000000000000000000000000000000000000000000000000000001003201700000000            000000000000000                              000                           
0010001300407T 020180230000001544772 29577051176813146   7               12032017000000000007500001012408                         0900000000000010000000000000000000000000000000000000000   0000000000000000000000000A9        170192957705     
0010001300408U 020000000000000000000000000000000000000000000000000000000000000000000000000000000000000000000000000000000000000000000000001003201700000000            000000000000000                              000                           
0010001300409T 020180230000001544772 29577051177102997   7               1203201700000000000750000103049X                         0900000000000010000000000000000000000000000000000000000   0000000000000000000000000A9        170192957705     
0010001300410U 020000000000000000000000000000000000000000000000000000000000000000000000000000000000000000000000000000000000000000000000001003201700000000            000000000000000                              000                           
0010001300411T 020180230000001544772 29577051177540712   7               12032017000000000010000001009245                         0900000000000010000000000000000000000000000000000000000   0000000000000000000000000A9        170192957705     
0010001300412U 020000000000000000000000000000000000000000000000000000000000000000000000000000000000000000000000000000000000000000000000001003201700000000            000000000000000                              000                           
