00100000         2247745860001000029577050014       0180230000001544772 INSTITUTO DE SELECAO E TECNOLOBANCO DO BRASIL                         21303201702383400012803000000515122941PROCESSAMEN                                                 
00100011T0100020 20247745860001000029577050014       0180230000001544772 INSTITUTO DE SELECAO E TECNOLO                                                                                000000001303201700000000  000000000                      
0010001300001T 020180230000001544772 29577050027703210   7               1503201700000000000750000103049X                         0900000000000010000000000000000000000000000000000000000   0000000000000000000000000A9        170192957705     
0010001300002U 020000000000000000000000000000000000000000000000000000000000000000000000000000000000000000000000000000000000000000000000001303201700000000            000000000000000                              000                           
0010001300003T 020180230000001544772 29577050027741645   7               1503201700000000000750000103049X                         0900000000000010000000000000000000000000000000000000000   0000000000000000000000000A9        170192957705     
0010001300004U 020000000000000000000000000000000000000000000000000000000000000000000000000000000000000000000000000000000000000000000000001303201700000000            000000000000000                              000                           
0010001300005T 020180230000001544772 29577050110151905   7               13032017000000000007500001000833                         0900000000000010000000000000000000000000000000000000000   0000000000000000000000000A9        170192957705     
0010001300006U 020000000000000000000000000000000000000000000000000000000000000000000000000000000000000000000000000000000000000000000000001103201700000000            000000000000000                              000                           
0010001300007T 020180230000001544772 29577050118007005   7               14032017000000000007500001012416                         0900000000000010000000000000000000000000000000000000000   0000000000000000000000000A9        170192957705     
0010001300008U 020000000000000000000000000000000000000000000000000000000000000000000000000000000000000000000000000000000000000000000000001203201700000000            000000000000000                              000                           
0010001300009T 020180230000001544772 29577050118015858   7               14032017000000000007500001012416                         0900000000000010000000000000000000000000000000000000000   0000000000000000000000000A9        170192957705     
0010001300010U 020000000000000000000000000000000000000000000000000000000000000000000000000000000000000000000000000000000000000000000000001203201700000000            000000000000000                              000                           
0010001300011T 020180230000001544772 29577050118026236   7               14032017000000000007500001012416                         0900000000000010000000000000000000000000000000000000000   0000000000000000000000000A9        170192957705     
0010001300012U 020000000000000000000000000000000000000000000000000000000000000000000000000000000000000000000000000000000000000000000000001203201700000000            000000000000000                              000                           
0010001300013T 020180230000001544772 29577050118045110   7               14032017000000000007500001012416                         0900000000000010000000000000000000000000000000000000000   0000000000000000000000000A9        170192957705     
0010001300014U 020000000000000000000000000000000000000000000000000000000000000000000000000000000000000000000000000000000000000000000000001203201700000000            000000000000000                              000                           
0010001300015T 020180230000001544772 29577050135827876   7               13032017000000000007500001012408                         0900000000000010000000000000000000000000000000000000000   0000000000000000000000000A9        170192957705     
0010001300016U 020000000000000000000000000000000000000000000000000000000000000000000000000000000000000000000000000000000000000000000000001103201700000000            000000000000000                              000                           
0010001300017T 020180230000001544772 29577050160505630   7               1403201700000000000750000103049X                         0900000000000010000000000000000000000000000000000000000   0000000000000000000000000A9        170192957705     
0010001300018U 020000000000000000000000000000000000000000000000000000000000000000000000000000000000000000000000000000000000000000000000001203201700000000            000000000000000                              000                           
0010001300019T 020180230000001544772 29577050170332320   7               13032017000000000007500001012408                         0900000000000010000000000000000000000000000000000000000   0000000000000000000000000A9        170192957705     
0010001300020U 020000000000000000000000000000000000000000000000000000000000000000000000000000000000000000000000000000000000000000000000001103201700000000            000000000000000                              000                           
0010001300021T 020180230000001544772 29577050170817979   7               15032017000000000007500001012408                         0900000000000010000000000000000000000000000000000000000   0000000000000000000000000A9        170192957705     
0010001300022U 020000000000000000000000000000000000000000000000000000000000000000000000000000000000000000000000000000000000000000000000001303201700000000            000000000000000                              000                           
0010001300023T 020180230000001544772 29577050171658453   7               14032017000000000007500001000213                         0900000000000010000000000000000000000000000000000000000   0000000000000000000000000A9        170192957705     
0010001300024U 020000000000000000000000000000000000000000000000000000000000000000000000000000000000000000000000000000000000000000000000001203201700000000            000000000000000                              000                           
0010001300025T 020180230000001544772 29577050181435429   7               13032017000000000007500001012408                         0900000000000010000000000000000000000000000000000000000   0000000000000000000000000A9        170192957705     
0010001300026U 020000000000000000000000000000000000000000000000000000000000000000000000000000000000000000000000000000000000000000000000001103201700000000            000000000000000                              000                           
0010001300027T 020180230000001544772 29577050190851602   7               14032017000000000007500001012408                         0900000000000010000000000000000000000000000000000000000   0000000000000000000000000A9        170192957705     
0010001300028U 020000000000000000000000000000000000000000000000000000000000000000000000000000000000000000000000000000000000000000000000001203201700000000            000000000000000                              000                           
0010001300029T 020180230000001544772 29577050190854217   7               13032017000000000007500001012408                         0900000000000010000000000000000000000000000000000000000   0000000000000000000000000A9        170192957705     
0010001300030U 020000000000000000000000000000000000000000000000000000000000000000000000000000000000000000000000000000000000000000000000001103201700000000            000000000000000                              000                           
0010001300031T 020180230000001544772 29577050195719513   7               14032017000000000007500001012416                         0900000000000010000000000000000000000000000000000000000   0000000000000000000000000A9        170192957705     
0010001300032U 020000000000000000000000000000000000000000000000000000000000000000000000000000000000000000000000000000000000000000000000001203201700000000            000000000000000                              000                           
0010001300033T 020180230000001544772 29577050198348928   7               15032017000000000007500001000213                         0900000000000010000000000000000000000000000000000000000   0000000000000000000000000A9        170192957705     
0010001300034U 020000000000000000000000000000000000000000000000000000000000000000000000000000000000000000000000000000000000000000000000001303201700000000            000000000000000                              000                           
0010001300035T 020180230000001544772 29577050217025151   7               1503201700000000000750000103049X                         0900000000000010000000000000000000000000000000000000000   0000000000000000000000000A9        170192957705     
0010001300036U 020000000000000000000000000000000000000000000000000000000000000000000000000000000000000000000000000000000000000000000000001303201700000000            000000000000000                              000                           
0010001300037T 020180230000001544772 29577050217054247   7               1303201700000000000750000103049X                         0900000000000010000000000000000000000000000000000000000   0000000000000000000000000A9        170192957705     
0010001300038U 020000000000000000000000000000000000000000000000000000000000000000000000000000000000000000000000000000000000000000000000001103201700000000            000000000000000                              000                           
0010001300039T 020180230000001544772 29577050223013624   7               15032017000000000007500001000213                         0900000000000010000000000000000000000000000000000000000   0000000000000000000000000A9        170192957705     
0010001300040U 020000000000000000000000000000000000000000000000000000000000000000000000000000000000000000000000000000000000000000000000001303201700000000            000000000000000                              000                           
0010001300041T 020180230000001544772 29577050223021807   7               15032017000000000007500001000213                         0900000000000010000000000000000000000000000000000000000   0000000000000000000000000A9        170192957705     
0010001300042U 020000000000000000000000000000000000000000000000000000000000000000000000000000000000000000000000000000000000000000000000001303201700000000            000000000000000                              000                           
0010001300043T 020180230000001544772 29577050230342840   7               15032017000000000007500001012416                         0900000000000010500000000000000000000000000000000000000   0000000000000000000000000A9A4      170192957705     
0010001300044U 020000000000000000000000000000000000000000000000000000000000000000000000000000000000000000000000000000000000000000000000001303201700000000            000000000000000                              000                           
0010001300045T 020180230000001544772 29577050241113026   7               14032017000000000010000001030864                         0900000000000010000000000000000000000000000000000000000   0000000000000000000000000A9        170192957705     
0010001300046U 020000000000000000000000000000000000000000000000000000000000000000000000000000000000000000000000000000000000000000000000001203201700000000            000000000000000                              000                           
0010001300047T 020180230000001544772 29577050241331192   7               13032017000000000007500001000833                         0900000000000010000000000000000000000000000000000000000   0000000000000000000000000A9        170192957705     
0010001300048U 020000000000000000000000000000000000000000000000000000000000000000000000000000000000000000000000000000000000000000000000001103201700000000            000000000000000                              000                           
0010001300049T 020180230000001544772 29577050241346490   7               13032017000000000007500001000833                         0900000000000010000000000000000000000000000000000000000   0000000000000000000000000A9        170192957705     
0010001300050U 020000000000000000000000000000000000000000000000000000000000000000000000000000000000000000000000000000000000000000000000001103201700000000            000000000000000                              000                           
0010001300051T 020180230000001544772 29577050248113160   7               15032017000000000007500001000213                         0900000000000010000000000000000000000000000000000000000   0000000000000000000000000A9        170192957705     
0010001300052U 020000000000000000000000000000000000000000000000000000000000000000000000000000000000000000000000000000000000000000000000001303201700000000            000000000000000                              000                           
0010001300053T 020180230000001544772 29577050248906534   7               15032017000000000007500001000213                         0900000000000010000000000000000000000000000000000000000   0000000000000000000000000A9        170192957705     
0010001300054U 020000000000000000000000000000000000000000000000000000000000000000000000000000000000000000000000000000000000000000000000001303201700000000            000000000000000                              000                           
0010001300055T 020180230000001544772 29577050248914406   7               15032017000000000007500001000213                         0900000000000010000000000000000000000000000000000000000   0000000000000000000000000A9        170192957705     
0010001300056U 020000000000000000000000000000000000000000000000000000000000000000000000000000000000000000000000000000000000000000000000001303201700000000            000000000000000                              000                           
0010001300057T 020180230000001544772 29577050248927755   7               15032017000000000007500001000213                         0900000000000010000000000000000000000000000000000000000   0000000000000000000000000A9        170192957705     
0010001300058U 020000000000000000000000000000000000000000000000000000000000000000000000000000000000000000000000000000000000000000000000001303201700000000            000000000000000                              000                           
0010001300059T 020180230000001544772 29577050248945576   7               15032017000000000007500001000213                         0900000000000010000000000000000000000000000000000000000   0000000000000000000000000A9        170192957705     
0010001300060U 020000000000000000000000000000000000000000000000000000000000000000000000000000000000000000000000000000000000000000000000001303201700000000            000000000000000                              000                           
0010001300061T 020180230000001544772 29577050248950309   7               15032017000000000007500001000213                         0900000000000010000000000000000000000000000000000000000   0000000000000000000000000A9        170192957705     
0010001300062U 020000000000000000000000000000000000000000000000000000000000000000000000000000000000000000000000000000000000000000000000001303201700000000            000000000000000                              000                           
0010001300063T 020180230000001544772 29577050248956305   7               15032017000000000007500001000213                         0900000000000010000000000000000000000000000000000000000   0000000000000000000000000A9        170192957705     
0010001300064U 020000000000000000000000000000000000000000000000000000000000000000000000000000000000000000000000000000000000000000000000001303201700000000            000000000000000                              000                           
0010001300065T 020180230000001544772 29577050281336221   7               15032017000000000010000001012408                         0900000000000010000000000000000000000000000000000000000   0000000000000000000000000A9        170192957705     
0010001300066U 020000000000000000000000000000000000000000000000000000000000000000000000000000000000000000000000000000000000000000000000001303201700000000            000000000000000                              000                           
0010001300067T 020180230000001544772 29577050284522587   7               1503201700000000000750000100166X                         0900000000000010500000000000000000000000000000000000000   0000000000000000000000000A9A4      170192957705     
0010001300068U 020000000000000000000000000000000000000000000000000000000000000000000000000000000000000000000000000000000000000000000000001303201700000000            000000000000000                              000                           
0010001300069T 020180230000001544772 29577050290616006   7               15032017000000000007500001010561                         0900000000000010000000000000000000000000000000000000000   0000000000000000000000000A9        170192957705     
0010001300070U 020000000000000000000000000000000000000000000000000000000000000000000000000000000000000000000000000000000000000000000000001303201700000000            000000000000000                              000                           
0010001300071T 020180230000001544772 29577050292310220   7               15032017000000000007500001000213                         0900000000000010000000000000000000000000000000000000000   0000000000000000000000000A9        170192957705     
0010001300072U 020000000000000000000000000000000000000000000000000000000000000000000000000000000000000000000000000000000000000000000000001303201700000000            000000000000000                              000                           
0010001300073T 020180230000001544772 29577050295647279   7               13032017000000000010000001012408                         0900000000000010000000000000000000000000000000000000000   0000000000000000000000000A9        170192957705     
0010001300074U 020000000000000000000000000000000000000000000000000000000000000000000000000000000000000000000000000000000000000000000000001103201700000000            000000000000000                              000                           
0010001300075T 020180230000001544772 29577050316650651   7               15032017000000000007500001012408                         0900000000000010000000000000000000000000000000000000000   0000000000000000000000000A9        170192957705     
0010001300076U 020000000000000000000000000000000000000000000000000000000000000000000000000000000000000000000000000000000000000000000000001303201700000000            000000000000000                              000                           
0010001300077T 020180230000001544772 29577050328422839   7               1303201700000000000750000101981X                         0900000000000010000000000000000000000000000000000000000   0000000000000000000000000A9        170192957705     
0010001300078U 020000000000000000000000000000000000000000000000000000000000000000000000000000000000000000000000000000000000000000000000001103201700000000            000000000000000                              000                           
0010001300079T 020180230000001544772 29577050328432006   7               1503201700000000000750000101981X                         0900000000000010000000000000000000000000000000000000000   0000000000000000000000000A9        170192957705     
0010001300080U 020000000000000000000000000000000000000000000000000000000000000000000000000000000000000000000000000000000000000000000000001303201700000000            000000000000000                              000                           
0010001300081T 020180230000001544772 29577050354609269   7               13032017000000000007500001012408                         0900000000000010000000000000000000000000000000000000000   0000000000000000000000000A9        170192957705     
0010001300082U 020000000000000000000000000000000000000000000000000000000000000000000000000000000000000000000000000000000000000000000000001103201700000000            000000000000000                              000                           
0010001300083T 020180230000001544772 29577050370052739   7               14032017000000000007500001000833                         0900000000000010000000000000000000000000000000000000000   0000000000000000000000000A9        170192957705     
0010001300084U 020000000000000000000000000000000000000000000000000000000000000000000000000000000000000000000000000000000000000000000000001203201700000000            000000000000000                              000                           
0010001300085T 020180230000001544772 29577050377440330   7               1503201700000000000750000103049X                         0900000000000010000000000000000000000000000000000000000   0000000000000000000000000A9        170192957705     
0010001300086U 020000000000000000000000000000000000000000000000000000000000000000000000000000000000000000000000000000000000000000000000001303201700000000            000000000000000                              000                           
0010001300087T 020180230000001544772 29577050391416050   7               1503201700000000000750000103049X                         0900000000000010000000000000000000000000000000000000000   0000000000000000000000000A9        170192957705     
0010001300088U 020000000000000000000000000000000000000000000000000000000000000000000000000000000000000000000000000000000000000000000000001303201700000000            000000000000000                              000                           
0010001300089T 020180230000001544772 29577050402406081   7               14032017000000000007500001000213                         0900000000000010500000000000000000000000000000000000000   0000000000000000000000000A9A4      170192957705     
0010001300090U 020000000000000000000000000000000000000000000000000000000000000000000000000000000000000000000000000000000000000000000000001203201700000000            000000000000000                              000                           
0010001300091T 020180230000001544772 29577050407123527   7               15032017000000000007500001012408                         0900000000000010000000000000000000000000000000000000000   0000000000000000000000000A9        170192957705     
0010001300092U 020000000000000000000000000000000000000000000000000000000000000000000000000000000000000000000000000000000000000000000000001303201700000000            000000000000000                              000                           
0010001300093T 020180230000001544772 29577050414610596   7               1503201700000000000750000103049X                         0900000000000010000000000000000000000000000000000000000   0000000000000000000000000A9        170192957705     
0010001300094U 020000000000000000000000000000000000000000000000000000000000000000000000000000000000000000000000000000000000000000000000001303201700000000            000000000000000                              000                           
0010001300095T 020180230000001544772 29577050425501732   7               15032017000000000007500001000833                         0900000000000010000000000000000000000000000000000000000   0000000000000000000000000A9        170192957705     
0010001300096U 020000000000000000000000000000000000000000000000000000000000000000000000000000000000000000000000000000000000000000000000001303201700000000            000000000000000                              000                           
0010001300097T 020180230000001544772 29577050431953419   7               15032017000000000007500001012416                         0900000000000010000000000000000000000000000000000000000   0000000000000000000000000A9        170192957705     
0010001300098U 020000000000000000000000000000000000000000000000000000000000000000000000000000000000000000000000000000000000000000000000001303201700000000            000000000000000                              000                           
0010001300099T 020180230000001544772 29577050431959838   7               15032017000000000007500001012416                         0900000000000010000000000000000000000000000000000000000   0000000000000000000000000A9        170192957705     
0010001300100U 020000000000000000000000000000000000000000000000000000000000000000000000000000000000000000000000000000000000000000000000001303201700000000            000000000000000                              000                           
0010001300101T 020180230000001544772 29577050437719282   7               14032017000000000007500001000213                         0900000000000010000000000000000000000000000000000000000   0000000000000000000000000A9        170192957705     
0010001300102U 020000000000000000000000000000000000000000000000000000000000000000000000000000000000000000000000000000000000000000000000001203201700000000            000000000000000                              000                           
0010001300103T 020180230000001544772 29577050439541386   7               15032017000000000007500001000213                         0900000000000010000000000000000000000000000000000000000   0000000000000000000000000A9        170192957705     
0010001300104U 020000000000000000000000000000000000000000000000000000000000000000000000000000000000000000000000000000000000000000000000001303201700000000            000000000000000                              000                           
0010001300105T 020180230000001544772 29577050459201761   7               13032017000000000007500001012416                         0900000000000010000000000000000000000000000000000000000   0000000000000000000000000A9        170192957705     
0010001300106U 020000000000000000000000000000000000000000000000000000000000000000000000000000000000000000000000000000000000000000000000001103201700000000            000000000000000                              000                           
0010001300107T 020180230000001544772 29577050477742098   7               15032017000000000007500001012416                         0900000000000010500000000000000000000000000000000000000   0000000000000000000000000A9A4      170192957705     
0010001300108U 020000000000000000000000000000000000000000000000000000000000000000000000000000000000000000000000000000000000000000000000001303201700000000            000000000000000                              000                           
0010001300109T 020180230000001544772 29577050481957901   7               13032017000000000007500001012416                         0900000000000010000000000000000000000000000000000000000   0000000000000000000000000A9        170192957705     
0010001300110U 020000000000000000000000000000000000000000000000000000000000000000000000000000000000000000000000000000000000000000000000001103201700000000            000000000000000                              000                           
0010001300111T 020180230000001544772 29577050484550358   7               13032017000000000007500001012408                         0900000000000010000000000000000000000000000000000000000   0000000000000000000000000A9        170192957705     
0010001300112U 020000000000000000000000000000000000000000000000000000000000000000000000000000000000000000000000000000000000000000000000001103201700000000            000000000000000                              000                           
0010001300113T 020180230000001544772 29577050494631513   7               15032017000000000007500001012408                         0900000000000010000000000000000000000000000000000000000   0000000000000000000000000A9        170192957705     
0010001300114U 020000000000000000000000000000000000000000000000000000000000000000000000000000000000000000000000000000000000000000000000001303201700000000            000000000000000                              000                           
0010001300115T 020180230000001544772 29577050494644019   7               14032017000000000007500001012408                         0900000000000010000000000000000000000000000000000000000   0000000000000000000000000A9        170192957705     
0010001300116U 020000000000000000000000000000000000000000000000000000000000000000000000000000000000000000000000000000000000000000000000001203201700000000            000000000000000                              000                           
0010001300117T 020180230000001544772 29577050497224754   7               1503201700000000000750000103049X                         0900000000000010000000000000000000000000000000000000000   0000000000000000000000000A9        170192957705     
0010001300118U 020000000000000000000000000000000000000000000000000000000000000000000000000000000000000000000000000000000000000000000000001303201700000000            000000000000000                              000                           
0010001300119T 020180230000001544772 29577050498713227   7               1503201700000000000750000103049X                         0900000000000010000000000000000000000000000000000000000   0000000000000000000000000A9        170192957705     
0010001300120U 020000000000000000000000000000000000000000000000000000000000000000000000000000000000000000000000000000000000000000000000001303201700000000            000000000000000                              000                           
0010001300121T 020180230000001544772 29577050500654516   7               14032017000000000007500001012408                         0900000000000010000000000000000000000000000000000000000   0000000000000000000000000A9        170192957705     
0010001300122U 020000000000000000000000000000000000000000000000000000000000000000000000000000000000000000000000000000000000000000000000001203201700000000            000000000000000                              000                           
0010001300123T 020180230000001544772 29577050503221778   7               14032017000000000007500001000213                         0900000000000010000000000000000000000000000000000000000   0000000000000000000000000A9        170192957705     
0010001300124U 020000000000000000000000000000000000000000000000000000000000000000000000000000000000000000000000000000000000000000000000001203201700000000            000000000000000                              000                           
0010001300125T 020180230000001544772 29577050503455737   7               14032017000000000007500001000213                         0900000000000010000000000000000000000000000000000000000   0000000000000000000000000A9        170192957705     
0010001300126U 020000000000000000000000000000000000000000000000000000000000000000000000000000000000000000000000000000000000000000000000001203201700000000            000000000000000                              000                           
0010001300127T 020180230000001544772 29577050516609791   7               1303201700000000000750000103049X                         0900000000000010000000000000000000000000000000000000000   0000000000000000000000000A9        170192957705     
0010001300128U 020000000000000000000000000000000000000000000000000000000000000000000000000000000000000000000000000000000000000000000000001103201700000000            000000000000000                              000                           
0010001300129T 020180230000001544772 29577050542513013   7               1503201700000000000750000103049X                         0900000000000010000000000000000000000000000000000000000   0000000000000000000000000A9        170192957705     
0010001300130U 020000000000000000000000000000000000000000000000000000000000000000000000000000000000000000000000000000000000000000000000001303201700000000            000000000000000                              000                           
0010001300131T 020180230000001544772 29577050723449137   7               15032017000000000007500001002224                         0900000000000010000000000000000000000000000000000000000   0000000000000000000000000A9        170192957705     
0010001300132U 020000000000000000000000000000000000000000000000000000000000000000000000000000000000000000000000000000000000000000000000001303201700000000            000000000000000                              000                           
0010001300133T 020180230000001544772 29577050724647582   7               13032017000000000007500001012408                         0900000000000010000000000000000000000000000000000000000   0000000000000000000000000A9        170192957705     
0010001300134U 020000000000000000000000000000000000000000000000000000000000000000000000000000000000000000000000000000000000000000000000001103201700000000            000000000000000                              000                           
0010001300135T 020180230000001544772 29577050772023892   7               15032017000000000007500001000213                         0900000000000010000000000000000000000000000000000000000   0000000000000000000000000A9        170192957705     
0010001300136U 020000000000000000000000000000000000000000000000000000000000000000000000000000000000000000000000000000000000000000000000001303201700000000            000000000000000                              000                           
0010001300137T 020180230000001544772 29577050816716800   7               15032017000000000007500001000213                         0900000000000010000000000000000000000000000000000000000   0000000000000000000000000A9        170192957705     
0010001300138U 020000000000000000000000000000000000000000000000000000000000000000000000000000000000000000000000000000000000000000000000001303201700000000            000000000000000                              000                           
0010001300139T 020180230000001544772 29577050933225341   7               13032017000000000007500001009245                         0900000000000010000000000000000000000000000000000000000   0000000000000000000000000A9        170192957705     
0010001300140U 020000000000000000000000000000000000000000000000000000000000000000000000000000000000000000000000000000000000000000000000001103201700000000            000000000000000                              000                           
0010001300141T 020180230000001544772 29577050936740549   7               1303201700000000000750000103049X                         0900000000000010000000000000000000000000000000000000000   0000000000000000000000000A9        170192957705     
0010001300142U 020000000000000000000000000000000000000000000000000000000000000000000000000000000000000000000000000000000000000000000000001103201700000000            000000000000000                              000                           
0010001300143T 020180230000001544772 29577050947836528   7               14032017000000000007500001012408                         0900000000000010000000000000000000000000000000000000000   0000000000000000000000000A9        170192957705     
0010001300144U 020000000000000000000000000000000000000000000000000000000000000000000000000000000000000000000000000000000000000000000000001203201700000000            000000000000000                              000                           
0010001300145T 020180230000001544772 29577050997414989   7               14032017000000000007500001012408                         0900000000000010000000000000000000000000000000000000000   0000000000000000000000000A9        170192957705     
0010001300146U 020000000000000000000000000000000000000000000000000000000000000000000000000000000000000000000000000000000000000000000000001203201700000000            000000000000000                              000                           
0010001300147T 020180230000001544772 29577051013215981   7               15032017000000000010000001009245                         0900000000000010000000000000000000000000000000000000000   0000000000000000000000000A9        170192957705     
0010001300148U 020000000000000000000000000000000000000000000000000000000000000000000000000000000000000000000000000000000000000000000000001303201700000000            000000000000000                              000                           
0010001300149T 020180230000001544772 29577051035258442   7               13032017000000000007500001000213                         0900000000000010000000000000000000000000000000000000000   0000000000000000000000000A9        170192957705     
0010001300150U 020000000000000000000000000000000000000000000000000000000000000000000000000000000000000000000000000000000000000000000000001103201700000000            000000000000000                              000                           
0010001300151T 020180230000001544772 29577051040102744   7               15032017000000000010000001000264                         0900000000000010000000000000000000000000000000000000000   0000000000000000000000000A9        170192957705     
0010001300152U 020000000000000000000000000000000000000000000000000000000000000000000000000000000000000000000000000000000000000000000000001303201700000000            000000000000000                              000                           
0010001300153T 020180230000001544772 29577051041041412   7               15032017000000000007500001012416                         0900000000000010000000000000000000000000000000000000000   0000000000000000000000000A9        170192957705     
0010001300154U 020000000000000000000000000000000000000000000000000000000000000000000000000000000000000000000000000000000000000000000000001303201700000000            000000000000000                              000                           
0010001300155T 020180230000001544772 29577051042838151   7               13032017000000000007500001012408                         0900000000000010500000000000000000000000000000000000000   0000000000000000000000000A9A4      170192957705     
0010001300156U 020000000000000000000000000000000000000000000000000000000000000000000000000000000000000000000000000000000000000000000000001103201700000000            000000000000000                              000                           
0010001300157T 020180230000001544772 29577051043022829   7               14032017000000000007500001000213                         0900000000000010000000000000000000000000000000000000000   0000000000000000000000000A9        170192957705     
0010001300158U 020000000000000000000000000000000000000000000000000000000000000000000000000000000000000000000000000000000000000000000000001203201700000000            000000000000000                              000                           
0010001300159T 020180230000001544772 29577051049718675   7               13032017000000000007500001000833                         0900000000000010000000000000000000000000000000000000000   0000000000000000000000000A9        170192957705     
0010001300160U 020000000000000000000000000000000000000000000000000000000000000000000000000000000000000000000000000000000000000000000000001103201700000000            000000000000000                              000                           
0010001300161T 020180230000001544772 29577051049727579   7               13032017000000000007500001000833                         0900000000000010000000000000000000000000000000000000000   0000000000000000000000000A9        170192957705     
0010001300162U 020000000000000000000000000000000000000000000000000000000000000000000000000000000000000000000000000000000000000000000000001103201700000000            000000000000000                              000                           
0010001300163T 020180230000001544772 29577051063102109   7               13032017000000000007500001000213                         0900000000000010000000000000000000000000000000000000000   0000000000000000000000000A9        170192957705     
0010001300164U 020000000000000000000000000000000000000000000000000000000000000000000000000000000000000000000000000000000000000000000000001103201700000000            000000000000000                              000                           
0010001300165T 020180230000001544772 29577051066848994   7               1503201700000000000750000100281X                         0900000000000010000000000000000000000000000000000000000   0000000000000000000000000A9        170192957705     
0010001300166U 020000000000000000000000000000000000000000000000000000000000000000000000000000000000000000000000000000000000000000000000001303201700000000            000000000000000                              000                           
0010001300167T 020180230000001544772 29577051120122327   7               1503201700000000000750000103049X                         0900000000000010500000000000000000000000000000000000000   0000000000000000000000000A9A4      170192957705     
0010001300168U 020000000000000000000000000000000000000000000000000000000000000000000000000000000000000000000000000000000000000000000000001303201700000000            000000000000000                              000                           
0010001300169T 020180230000001544772 29577051133312912   7               1503201700000000000750000101981X                         0900000000000010000000000000000000000000000000000000000   0000000000000000000000000A9        170192957705     
0010001300170U 020000000000000000000000000000000000000000000000000000000000000000000000000000000000000000000000000000000000000000000000001303201700000000            000000000000000                              000                           
0010001300171T 020180230000001544772 29577051133324412   7               1503201700000000000750000101981X                         0900000000000010000000000000000000000000000000000000000   0000000000000000000000000A9        170192957705     
0010001300172U 020000000000000000000000000000000000000000000000000000000000000000000000000000000000000000000000000000000000000000000000001303201700000000            000000000000000                              000                           
0010001300173T 020180230000001544772 29577051148127087   7               13032017000000000007500001000213                         0900000000000010000000000000000000000000000000000000000   0000000000000000000000000A9        170192957705     
0010001300174U 020000000000000000000000000000000000000000000000000000000000000000000000000000000000000000000000000000000000000000000000001103201700000000            000000000000000                              000                           
0010001300175T 020180230000001544772 29577051148146455   7               15032017000000000007500001000213                         0900000000000010000000000000000000000000000000000000000   0000000000000000000000000A9        170192957705     
0010001300176U 020000000000000000000000000000000000000000000000000000000000000000000000000000000000000000000000000000000000000000000000001303201700000000            000000000000000                              000                           
0010001300177T 020180230000001544772 29577051152703254   7               13032017000000000007500001012408                         0900000000000010000000000000000000000000000000000000000   0000000000000000000000000A9        170192957705     
0010001300178U 020000000000000000000000000000000000000000000000000000000000000000000000000000000000000000000000000000000000000000000000001103201700000000            000000000000000                              000                           
0010001300179T 020180230000001544772 29577051164847597   7               15032017000000000007500001012408                         0900000000000010000000000000000000000000000000000000000   0000000000000000000000000A9        170192957705     
0010001300180U 020000000000000000000000000000000000000000000000000000000000000000000000000000000000000000000000000000000000000000000000001303201700000000            000000000000000                              000                           
0010001300181T 020180230000001544772 29577051168441624   7               15032017000000000007500001000213                         0900000000000010000000000000000000000000000000000000000   0000000000000000000000000A9        170192957705     
0010001300182U 020000000000000000000000000000000000000000000000000000000000000000000000000000000000000000000000000000000000000000000000001303201700000000            000000000000000                              000                           
0010001300183T 020180230000001544772 29577051171636707   7               14032017000000000010000001009245                         0900000000000010000000000000000000000000000000000000000   0000000000000000000000000A9        170192957705     
0010001300184U 020000000000000000000000000000000000000000000000000000000000000000000000000000000000000000000000000000000000000000000000001203201700000000            000000000000000                              000                           
0010001300185T 020180230000001544772 29577051171657135   7               14032017000000000010000001009245                         0900000000000010000000000000000000000000000000000000000   0000000000000000000000000A9        170192957705     
0010001300186U 020000000000000000000000000000000000000000000000000000000000000000000000000000000000000000000000000000000000000000000000001203201700000000            000000000000000                              000                           
0010001300187T 020180230000001544772 29577051180121218   7               15032017000000000007500001012416                         0900000000000010000000000000000000000000000000000000000   0000000000000000000000000A9        170192957705     
0010001300188U 020000000000000000000000000000000000000000000000000000000000000000000000000000000000000000000000000000000000000000000000001303201700000000            000000000000000                              000                           
0010001300189T 020180230000001544772 29577051180244545   7               15032017000000000007500001000213                         0900000000000010000000000000000000000000000000000000000   0000000000000000000000000A9        170192957705     
0010001300190U 020000000000000000000000000000000000000000000000000000000000000000000000000000000000000000000000000000000000000000000000001303201700000000            000000000000000                              000                           
0010001300191T 020180230000001544772 29577051180524684   7               15032017000000000007500001000213                         0900000000000010000000000000000000000000000000000000000   0000000000000000000000000A9        170192957705     
0010001300192U 020000000000000000000000000000000000000000000000000000000000000000000000000000000000000000000000000000000000000000000000001303201700000000            000000000000000                              000                           
0010001300193T 020180230000001544772 29577051187204125   7               14032017000000000007500001012416                         0900000000000010000000000000000000000000000000000000000   0000000000000000000000000A9        170192957705     
0010001300194U 020000000000000000000000000000000000000000000000000000000000000000000000000000000000000000000000000000000000000000000000001203201700000000            000000000000000                              000                           
0010001300195T 020180230000001544772 29577051192427861   7               12032017000000000007500001000213                         0900000000000010500000000000000000000000000000000000000   0000000000000000000000000A9A4      170192957705     
0010001300196U 020000000000000000000000000000000000000000000000000000000000000000000000000000000000000000000000000000000000000000000000001003201700000000            000000000000000                              000                           
0010001300197T 020180230000001544772 29577051192638620   7               12032017000000000007500001012416                         0900000000000010000000000000000000000000000000000000000   0000000000000000000000000A9        170192957705     
0010001300198U 020000000000000000000000000000000000000000000000000000000000000000000000000000000000000000000000000000000000000000000000001003201700000000            000000000000000                              000                           
0010001300199T 020180230000001544772 29577051192655936   7               12032017000000000007500001012416                         0900000000000010000000000000000000000000000000000000000   0000000000000000000000000A9        170192957705     
0010001300200U 020000000000000000000000000000000000000000000000000000000000000000000000000000000000000000000000000000000000000000000000001003201700000000            000000000000000                              000                           
0010001300201T 020180230000001544772 29577051192712964   7               12032017000000000007500001012416                         0900000000000010000000000000000000000000000000000000000   0000000000000000000000000A9        170192957705     
0010001300202U 020000000000000000000000000000000000000000000000000000000000000000000000000000000000000000000000000000000000000000000000001003201700000000            000000000000000                              000                           
0010001300203T 020180230000001544772 29577051193747436   7               1203201700000000000750000103049X                         0900000000000010000000000000000000000000000000000000000   0000000000000000000000000A9        170192957705     
0010001300204U 020000000000000000000000000000000000000000000000000000000000000000000000000000000000000000000000000000000000000000000000001003201700000000            000000000000000                              000                           
0010001300205T 020180230000001544772 29577051194120599   7               12032017000000000007500001012416                         0900000000000010000000000000000000000000000000000000000   0000000000000000000000000A9        170192957705     
0010001300206U 020000000000000000000000000000000000000000000000000000000000000000000000000000000000000000000000000000000000000000000000001003201700000000            000000000000000                              000                           
0010001300207T 020180230000001544772 29577051194337456   7               1203201700000000000750000103049X                         0900000000000010000000000000000000000000000000000000000   0000000000000000000000000A9        170192957705     
0010001300208U 020000000000000000000000000000000000000000000000000000000000000000000000000000000000000000000000000000000000000000000000001003201700000000            000000000000000                              000                           
0010001300209T 020180230000001544772 29577051194451156   7               13032017000000000007500001012408                         0900000000000010000000000000000000000000000000000000000   0000000000000000000000000A9        170192957705     
0010001300210U 020000000000000000000000000000000000000000000000000000000000000000000000000000000000000000000000000000000000000000000000001103201700000000            000000000000000                              000                           
0010001300211T 020180230000001544772 29577051194502252   7               1303201700000000000750000103049X                         0900000000000010000000000000000000000000000000000000000   0000000000000000000000000A9        170192957705     
0010001300212U 020000000000000000000000000000000000000000000000000000000000000000000000000000000000000000000000000000000000000000000000001103201700000000            000000000000000                              000                           
0010001300213T 020180230000001544772 29577051194618211   7               13032017000000000007500001012416                         0900000000000010000000000000000000000000000000000000000   0000000000000000000000000A9        170192957705     
0010001300214U 020000000000000000000000000000000000000000000000000000000000000000000000000000000000000000000000000000000000000000000000001103201700000000            000000000000000                              000                           
0010001300215T 020180230000001544772 29577051194849046   7               13032017000000000007500001012416                         0900000000000010000000000000000000000000000000000000000   0000000000000000000000000A9        170192957705     
0010001300216U 020000000000000000000000000000000000000000000000000000000000000000000000000000000000000000000000000000000000000000000000001103201700000000            000000000000000                              000                           
0010001300217T 020180230000001544772 29577051194928860   7               13032017000000000007500001028029                         0900000000000010000000000000000000000000000000000000000   0000000000000000000000000A9        170192957705     
0010001300218U 020000000000000000000000000000000000000000000000000000000000000000000000000000000000000000000000000000000000000000000000001103201700000000            000000000000000                              000                           
0010001300219T 020180230000001544772 29577051195024069   7               15032017000000000007500001012408                         0900000000000010000000000000000000000000000000000000000   0000000000000000000000000A9        170192957705     
0010001300220U 020000000000000000000000000000000000000000000000000000000000000000000000000000000000000000000000000000000000000000000000001303201700000000            000000000000000                              000                           
0010001300221T 020180230000001544772 29577051195036931   7               13032017000000000007500001012408                         0900000000000010000000000000000000000000000000000000000   0000000000000000000000000A9        170192957705     
0010001300222U 020000000000000000000000000000000000000000000000000000000000000000000000000000000000000000000000000000000000000000000000001103201700000000            000000000000000                              000                           
0010001300223T 020180230000001544772 29577051195045438   7               13032017000000000007500001012408                         0900000000000010000000000000000000000000000000000000000   0000000000000000000000000A9        170192957705     
0010001300224U 020000000000000000000000000000000000000000000000000000000000000000000000000000000000000000000000000000000000000000000000001103201700000000            000000000000000                              000                           
0010001300225T 020180230000001544772 29577051195311487   7               13032017000000000007500001000213                         0900000000000010000000000000000000000000000000000000000   0000000000000000000000000A9        170192957705     
0010001300226U 020000000000000000000000000000000000000000000000000000000000000000000000000000000000000000000000000000000000000000000000001103201700000000            000000000000000                              000                           
0010001300227T 020180230000001544772 29577051195352553   7               13032017000000000007500001000213                         0900000000000010000000000000000000000000000000000000000   0000000000000000000000000A9        170192957705     
0010001300228U 020000000000000000000000000000000000000000000000000000000000000000000000000000000000000000000000000000000000000000000000001103201700000000            000000000000000                              000                           
0010001300229T 020180230000001544772 29577051195535987   7               1303201700000000000750000103049X                         0900000000000010000000000000000000000000000000000000000   0000000000000000000000000A9        170192957705     
0010001300230U 020000000000000000000000000000000000000000000000000000000000000000000000000000000000000000000000000000000000000000000000001103201700000000            000000000000000                              000                           
0010001300231T 020180230000001544772 29577051195628929   7               1303201700000000000750000103049X                         0900000000000010000000000000000000000000000000000000000   0000000000000000000000000A9        170192957705     
0010001300232U 020000000000000000000000000000000000000000000000000000000000000000000000000000000000000000000000000000000000000000000000001103201700000000            000000000000000                              000                           
0010001300233T 020180230000001544772 29577051195701307   7               1303201700000000000750000103049X                         0900000000000010000000000000000000000000000000000000000   0000000000000000000000000A9        170192957705     
0010001300234U 020000000000000000000000000000000000000000000000000000000000000000000000000000000000000000000000000000000000000000000000001103201700000000            000000000000000                              000                           
0010001300235T 020180230000001544772 29577051196230378   7               1303201700000000000750000103049X                         0900000000000010000000000000000000000000000000000000000   0000000000000000000000000A9        170192957705     
0010001300236U 020000000000000000000000000000000000000000000000000000000000000000000000000000000000000000000000000000000000000000000000001103201700000000            000000000000000                              000                           
0010001300237T 020180230000001544772 29577051196311593   7               1303201700000000000750000103049X                         0900000000000010500000000000000000000000000000000000000   0000000000000000000000000A9A4      170192957705     
0010001300238U 020000000000000000000000000000000000000000000000000000000000000000000000000000000000000000000000000000000000000000000000001103201700000000            000000000000000                              000                           
0010001300239T 020180230000001544772 29577051196452048   7               1303201700000000000750000103049X                         0900000000000010000000000000000000000000000000000000000   0000000000000000000000000A9        170192957705     
0010001300240U 020000000000000000000000000000000000000000000000000000000000000000000000000000000000000000000000000000000000000000000000001103201700000000            000000000000000                              000                           
0010001300241T 020180230000001544772 29577051196518105   7               1303201700000000000750000103696X                         0900000000000010000000000000000000000000000000000000000   0000000000000000000000000A9        170192957705     
0010001300242U 020000000000000000000000000000000000000000000000000000000000000000000000000000000000000000000000000000000000000000000000001103201700000000            000000000000000                              000                           
0010001300243T 020180230000001544772 29577051196651161   7               13032017000000000007500001000213                         0900000000000010000000000000000000000000000000000000000   0000000000000000000000000A9        170192957705     
0010001300244U 020000000000000000000000000000000000000000000000000000000000000000000000000000000000000000000000000000000000000000000000001103201700000000            000000000000000                              000                           
0010001300245T 020180230000001544772 29577051196832759   7               13032017000000000007500001002224                         0900000000000010000000000000000000000000000000000000000   0000000000000000000000000A9        170192957705     
0010001300246U 020000000000000000000000000000000000000000000000000000000000000000000000000000000000000000000000000000000000000000000000001103201700000000            000000000000000                              000                           
0010001300247T 020180230000001544772 29577051196945580   7               1303201700000000000750000103049X                         0900000000000010000000000000000000000000000000000000000   0000000000000000000000000A9        170192957705     
0010001300248U 020000000000000000000000000000000000000000000000000000000000000000000000000000000000000000000000000000000000000000000000001103201700000000            000000000000000                              000                           
0010001300249T 020180230000001544772 29577051197042758   7               13032017000000000007500001012408                         0900000000000010000000000000000000000000000000000000000   0000000000000000000000000A9        170192957705     
0010001300250U 020000000000000000000000000000000000000000000000000000000000000000000000000000000000000000000000000000000000000000000000001103201700000000            000000000000000                              000                           
0010001300251T 020180230000001544772 29577051197131896   7               13032017000000000007500001012408                         0900000000000010000000000000000000000000000000000000000   0000000000000000000000000A9        170192957705     
0010001300252U 020000000000000000000000000000000000000000000000000000000000000000000000000000000000000000000000000000000000000000000000001103201700000000            000000000000000                              000                           
0010001300253T 020180230000001544772 29577051197240735   7               13032017000000000007500001046280                         0900000000000010000000000000000000000000000000000000000   0000000000000000000000000A9        170192957705     
0010001300254U 020000000000000000000000000000000000000000000000000000000000000000000000000000000000000000000000000000000000000000000000001103201700000000            000000000000000                              000                           
0010001300255T 020180230000001544772 29577051197331288   7               13032017000000000007500001012416                         0900000000000010000000000000000000000000000000000000000   0000000000000000000000000A9        170192957705     
0010001300256U 020000000000000000000000000000000000000000000000000000000000000000000000000000000000000000000000000000000000000000000000001103201700000000            000000000000000                              000                           
0010001300257T 020180230000001544772 29577051197744986   7               13032017000000000007500001012408                         0900000000000010000000000000000000000000000000000000000   0000000000000000000000000A9        170192957705     
0010001300258U 020000000000000000000000000000000000000000000000000000000000000000000000000000000000000000000000000000000000000000000000001103201700000000            000000000000000                              000                           
0010001300259T 020180230000001544772 29577051197753260   7               13032017000000000007500001012408                         0900000000000010000000000000000000000000000000000000000   0000000000000000000000000A9        170192957705     
0010001300260U 020000000000000000000000000000000000000000000000000000000000000000000000000000000000000000000000000000000000000000000000001103201700000000            000000000000000                              000                           
0010001300261T 020180230000001544772 29577051197837223   7               13032017000000000007500001000213                         0900000000000010000000000000000000000000000000000000000   0000000000000000000000000A9        170192957705     
0010001300262U 020000000000000000000000000000000000000000000000000000000000000000000000000000000000000000000000000000000000000000000000001103201700000000            000000000000000                              000                           
0010001300263T 020180230000001544772 29577051198040417   7               13032017000000000007500001012408                         0900000000000010000000000000000000000000000000000000000   0000000000000000000000000A9        170192957705     
0010001300264U 020000000000000000000000000000000000000000000000000000000000000000000000000000000000000000000000000000000000000000000000001103201700000000            000000000000000                              000                           
0010001300265T 020180230000001544772 29577051198448340   7               13032017000000000007500001012416                         0900000000000010000000000000000000000000000000000000000   0000000000000000000000000A9        170192957705     
0010001300266U 020000000000000000000000000000000000000000000000000000000000000000000000000000000000000000000000000000000000000000000000001103201700000000            000000000000000                              000                           
0010001300267T 020180230000001544772 29577051198514385   7               1303201700000000000750000103049X                         0900000000000010000000000000000000000000000000000000000   0000000000000000000000000A9        170192957705     
0010001300268U 020000000000000000000000000000000000000000000000000000000000000000000000000000000000000000000000000000000000000000000000001103201700000000            000000000000000                              000                           
0010001300269T 020180230000001544772 29577051198647098   7               13032017000000000007500001012408                         0900000000000010000000000000000000000000000000000000000   0000000000000000000000000A9        170192957705     
0010001300270U 020000000000000000000000000000000000000000000000000000000000000000000000000000000000000000000000000000000000000000000000001103201700000000            000000000000000                              000                           
0010001300271T 020180230000001544772 29577051199241025   7               1303201700000000000750000103049X                         0900000000000010000000000000000000000000000000000000000   0000000000000000000000000A9        170192957705     
0010001300272U 020000000000000000000000000000000000000000000000000000000000000000000000000000000000000000000000000000000000000000000000001103201700000000            000000000000000                              000                           
0010001300273T 020180230000001544772 29577051199320237   7               1303201700000000000750000103049X                         0900000000000010000000000000000000000000000000000000000   0000000000000000000000000A9        170192957705     
0010001300274U 020000000000000000000000000000000000000000000000000000000000000000000000000000000000000000000000000000000000000000000000001103201700000000            000000000000000                              000                           
0010001300275T 020180230000001544772 29577051199517181   7               13032017000000000007500001000213                         0900000000000010000000000000000000000000000000000000000   0000000000000000000000000A9        170192957705     
0010001300276U 020000000000000000000000000000000000000000000000000000000000000000000000000000000000000000000000000000000000000000000000001103201700000000            000000000000000                              000                           
0010001300277T 020180230000001544772 29577051199926749   7               13032017000000000007500001002291                         0900000000000010000000000000000000000000000000000000000   0000000000000000000000000A9        170192957705     
0010001300278U 020000000000000000000000000000000000000000000000000000000000000000000000000000000000000000000000000000000000000000000000001103201700000000            000000000000000                              000                           
0010001300279T 020180230000001544772 29577051199958975   7               15032017000000000007500001002291                         0900000000000010000000000000000000000000000000000000000   0000000000000000000000000A9        170192957705     
0010001300280U 020000000000000000000000000000000000000000000000000000000000000000000000000000000000000000000000000000000000000000000000001303201700000000            000000000000000                              000                           
0010001300281T 020180230000001544772 29577051200208628   7               13032017000000000007500001000213                         0900000000000010000000000000000000000000000000000000000   0000000000000000000000000A9        170192957705     
0010001300282U 020000000000000000000000000000000000000000000000000000000000000000000000000000000000000000000000000000000000000000000000001103201700000000            000000000000000                              000                           
0010001300283T 020180230000001544772 29577051200214418   7               15032017000000000007500001000213                         0900000000000010000000000000000000000000000000000000000   0000000000000000000000000A9        170192957705     
0010001300284U 020000000000000000000000000000000000000000000000000000000000000000000000000000000000000000000000000000000000000000000000001303201700000000            000000000000000                              000                           
0010001300285T 020180230000001544772 29577051200423554   7               13032017000000000007500001012416                         0900000000000010000000000000000000000000000000000000000   0000000000000000000000000A9        170192957705     
0010001300286U 020000000000000000000000000000000000000000000000000000000000000000000000000000000000000000000000000000000000000000000000001103201700000000            000000000000000                              000                           
0010001300287T 020180230000001544772 29577051200635735   7               13032017000000000007500001012408                         0900000000000010000000000000000000000000000000000000000   0000000000000000000000000A9        170192957705     
0010001300288U 020000000000000000000000000000000000000000000000000000000000000000000000000000000000000000000000000000000000000000000000001103201700000000            000000000000000                              000                           
0010001300289T 020180230000001544772 29577051200656084   7               13032017000000000007500001012408                         0900000000000010000000000000000000000000000000000000000   0000000000000000000000000A9        170192957705     
0010001300290U 020000000000000000000000000000000000000000000000000000000000000000000000000000000000000000000000000000000000000000000000001103201700000000            000000000000000                              000                           
0010001300291T 020180230000001544772 29577051201009222   7               13032017000000000007500001012408                         0900000000000010000000000000000000000000000000000000000   0000000000000000000000000A9        170192957705     
0010001300292U 020000000000000000000000000000000000000000000000000000000000000000000000000000000000000000000000000000000000000000000000001103201700000000            000000000000000                              000                           
0010001300293T 020180230000001544772 29577051201018206   7               13032017000000000007500001012408                         0900000000000010000000000000000000000000000000000000000   0000000000000000000000000A9        170192957705     
0010001300294U 020000000000000000000000000000000000000000000000000000000000000000000000000000000000000000000000000000000000000000000000001103201700000000            000000000000000                              000                           
0010001300295T 020180230000001544772 29577051201217866   7               13032017000000000007500001000213                         0900000000000010000000000000000000000000000000000000000   0000000000000000000000000A9        170192957705     
0010001300296U 020000000000000000000000000000000000000000000000000000000000000000000000000000000000000000000000000000000000000000000000001103201700000000            000000000000000                              000                           
0010001300297T 020180230000001544772 29577051201401886   7               13032017000000000007500001012416                         0900000000000010000000000000000000000000000000000000000   0000000000000000000000000A9        170192957705     
0010001300298U 020000000000000000000000000000000000000000000000000000000000000000000000000000000000000000000000000000000000000000000000001103201700000000            000000000000000                              000                           
0010001300299T 020180230000001544772 29577051201418738   7               15032017000000000007500001012416                         0900000000000010000000000000000000000000000000000000000   0000000000000000000000000A9        170192957705     
0010001300300U 020000000000000000000000000000000000000000000000000000000000000000000000000000000000000000000000000000000000000000000000001303201700000000            000000000000000                              000                           
0010001300301T 020180230000001544772 29577051201422880   7               15032017000000000007500001012416                         0900000000000010000000000000000000000000000000000000000   0000000000000000000000000A9        170192957705     
0010001300302U 020000000000000000000000000000000000000000000000000000000000000000000000000000000000000000000000000000000000000000000000001303201700000000            000000000000000                              000                           
0010001300303T 020180230000001544772 29577051201433390   7               15032017000000000007500001012416                         0900000000000010000000000000000000000000000000000000000   0000000000000000000000000A9        170192957705     
0010001300304U 020000000000000000000000000000000000000000000000000000000000000000000000000000000000000000000000000000000000000000000000001303201700000000            000000000000000                              000                           
0010001300305T 020180230000001544772 29577051201436091   7               15032017000000000007500001012416                         0900000000000010000000000000000000000000000000000000000   0000000000000000000000000A9        170192957705     
0010001300306U 020000000000000000000000000000000000000000000000000000000000000000000000000000000000000000000000000000000000000000000000001303201700000000            000000000000000                              000                           
0010001300307T 020180230000001544772 29577051201751077   7               1303201700000000000750000103049X                         0900000000000010000000000000000000000000000000000000000   0000000000000000000000000A9        170192957705     
0010001300308U 020000000000000000000000000000000000000000000000000000000000000000000000000000000000000000000000000000000000000000000000001103201700000000            000000000000000                              000                           
0010001300309T 020180230000001544772 29577051203112259   7               13032017000000000007500001000213                         0900000000000010500000000000000000000000000000000000000   0000000000000000000000000A9A4      170192957705     
0010001300310U 020000000000000000000000000000000000000000000000000000000000000000000000000000000000000000000000000000000000000000000000001103201700000000            000000000000000                              000                           
0010001300311T 020180230000001544772 29577051203203246   7               15032017000000000007500001012416                         0900000000000010000000000000000000000000000000000000000   0000000000000000000000000A9        170192957705     
0010001300312U 020000000000000000000000000000000000000000000000000000000000000000000000000000000000000000000000000000000000000000000000001303201700000000            000000000000000                              000                           
0010001300313T 020180230000001544772 29577051203227099   7               13032017000000000007500001012416                         0900000000000010000000000000000000000000000000000000000   0000000000000000000000000A9        170192957705     
0010001300314U 020000000000000000000000000000000000000000000000000000000000000000000000000000000000000000000000000000000000000000000000001103201700000000            000000000000000                              000                           
0010001300315T 020180230000001544772 29577051203544913   7               13032017000000000007500001012416                         0900000000000010000000000000000000000000000000000000000   0000000000000000000000000A9        170192957705     
0010001300316U 020000000000000000000000000000000000000000000000000000000000000000000000000000000000000000000000000000000000000000000000001103201700000000            000000000000000                              000                           
0010001300317T 020180230000001544772 29577051203552939   7               13032017000000000007500001012416                         0900000000000010000000000000000000000000000000000000000   0000000000000000000000000A9        170192957705     
0010001300318U 020000000000000000000000000000000000000000000000000000000000000000000000000000000000000000000000000000000000000000000000001103201700000000            000000000000000                              000                           
0010001300319T 020180230000001544772 29577051203557625   7               13032017000000000007500001012416                         0900000000000010000000000000000000000000000000000000000   0000000000000000000000000A9        170192957705     
0010001300320U 020000000000000000000000000000000000000000000000000000000000000000000000000000000000000000000000000000000000000000000000001103201700000000            000000000000000                              000                           
0010001300321T 020180230000001544772 29577051203656466   7               1303201700000000000750000103049X                         0900000000000010000000000000000000000000000000000000000   0000000000000000000000000A9        170192957705     
0010001300322U 020000000000000000000000000000000000000000000000000000000000000000000000000000000000000000000000000000000000000000000000001103201700000000            000000000000000                              000                           
0010001300323T 020180230000001544772 29577051203700171   7               13032017000000000007500001012408                         0900000000000010000000000000000000000000000000000000000   0000000000000000000000000A9        170192957705     
0010001300324U 020000000000000000000000000000000000000000000000000000000000000000000000000000000000000000000000000000000000000000000000001103201700000000            000000000000000                              000                           
0010001300325T 020180230000001544772 29577051203751363   7               13032017000000000007500001012408                         0900000000000010000000000000000000000000000000000000000   0000000000000000000000000A9        170192957705     
0010001300326U 020000000000000000000000000000000000000000000000000000000000000000000000000000000000000000000000000000000000000000000000001103201700000000            000000000000000                              000                           
0010001300327T 020180230000001544772 29577051203913198   7               13032017000000000007500001012408                         0900000000000010000000000000000000000000000000000000000   0000000000000000000000000A9        170192957705     
0010001300328U 020000000000000000000000000000000000000000000000000000000000000000000000000000000000000000000000000000000000000000000000001103201700000000            000000000000000                              000                           
0010001300329T 020180230000001544772 29577051204109980   7               13032017000000000007500001012408                         0900000000000010000000000000000000000000000000000000000   0000000000000000000000000A9        170192957705     
0010001300330U 020000000000000000000000000000000000000000000000000000000000000000000000000000000000000000000000000000000000000000000000001103201700000000            000000000000000                              000                           
0010001300331T 020180230000001544772 29577051204212961   7               13032017000000000007500001000213                         0900000000000010000000000000000000000000000000000000000   0000000000000000000000000A9        170192957705     
0010001300332U 020000000000000000000000000000000000000000000000000000000000000000000000000000000000000000000000000000000000000000000000001103201700000000            000000000000000                              000                           
0010001300333T 020180230000001544772 29577051204327080   7               13032017000000000007500001012416                         0900000000000010000000000000000000000000000000000000000   0000000000000000000000000A9        170192957705     
0010001300334U 020000000000000000000000000000000000000000000000000000000000000000000000000000000000000000000000000000000000000000000000001103201700000000            000000000000000                              000                           
0010001300335T 020180230000001544772 29577051204419227   7               13032017000000000007500001012408                         0900000000000010000000000000000000000000000000000000000   0000000000000000000000000A9        170192957705     
0010001300336U 020000000000000000000000000000000000000000000000000000000000000000000000000000000000000000000000000000000000000000000000001103201700000000            000000000000000                              000                           
0010001300337T 020180230000001544772 29577051204430637   7               13032017000000000007500001012408                         0900000000000010000000000000000000000000000000000000000   0000000000000000000000000A9        170192957705     
0010001300338U 020000000000000000000000000000000000000000000000000000000000000000000000000000000000000000000000000000000000000000000000001103201700000000            000000000000000                              000                           
0010001300339T 020180230000001544772 29577051204440552   7               13032017000000000007500001012408                         0900000000000010000000000000000000000000000000000000000   0000000000000000000000000A9        170192957705     
0010001300340U 020000000000000000000000000000000000000000000000000000000000000000000000000000000000000000000000000000000000000000000000001103201700000000            000000000000000                              000                           
0010001300341T 020180230000001544772 29577051204656924   7               1303201700000000000750000103049X                         0900000000000010000000000000000000000000000000000000000   0000000000000000000000000A9        170192957705     
0010001300342U 020000000000000000000000000000000000000000000000000000000000000000000000000000000000000000000000000000000000000000000000001103201700000000            000000000000000                              000                           
0010001300343T 020180230000001544772 29577051204659201   7               1303201700000000000750000103049X                         0900000000000010000000000000000000000000000000000000000   0000000000000000000000000A9        170192957705     
0010001300344U 020000000000000000000000000000000000000000000000000000000000000000000000000000000000000000000000000000000000000000000000001103201700000000            000000000000000                              000                           
0010001300345T 020180230000001544772 29577051204706430   7               1303201700000000000750000103049X                         0900000000000010000000000000000000000000000000000000000   0000000000000000000000000A9        170192957705     
0010001300346U 020000000000000000000000000000000000000000000000000000000000000000000000000000000000000000000000000000000000000000000000001103201700000000            000000000000000                              000                           
0010001300347T 020180230000001544772 29577051204816873   7               1303201700000000000750000103049X                         0900000000000010000000000000000000000000000000000000000   0000000000000000000000000A9        170192957705     
0010001300348U 020000000000000000000000000000000000000000000000000000000000000000000000000000000000000000000000000000000000000000000000001103201700000000            000000000000000                              000                           
0010001300349T 020180230000001544772 29577051205311452   7               1303201700000000000750000103049X                         0900000000000010000000000000000000000000000000000000000   0000000000000000000000000A9        170192957705     
0010001300350U 020000000000000000000000000000000000000000000000000000000000000000000000000000000000000000000000000000000000000000000000001103201700000000            000000000000000                              000                           
0010001300351T 020180230000001544772 29577051205625130   7               13032017000000000007500001000213                         0900000000000010000000000000000000000000000000000000000   0000000000000000000000000A9        170192957705     
0010001300352U 020000000000000000000000000000000000000000000000000000000000000000000000000000000000000000000000000000000000000000000000001103201700000000            000000000000000                              000                           
0010001300353T 020180230000001544772 29577051205712335   7               1303201700000000000750000103049X                         0900000000000010000000000000000000000000000000000000000   0000000000000000000000000A9        170192957705     
0010001300354U 020000000000000000000000000000000000000000000000000000000000000000000000000000000000000000000000000000000000000000000000001103201700000000            000000000000000                              000                           
0010001300355T 020180230000001544772 29577051206557334   7               13032017000000000007500001012416                         0900000000000010000000000000000000000000000000000000000   0000000000000000000000000A9        170192957705     
0010001300356U 020000000000000000000000000000000000000000000000000000000000000000000000000000000000000000000000000000000000000000000000001103201700000000            000000000000000                              000                           
0010001300357T 020180230000001544772 29577051207301744   7               13032017000000000007500001001120                         0900000000000010000000000000000000000000000000000000000   0000000000000000000000000A9        170192957705     
0010001300358U 020000000000000000000000000000000000000000000000000000000000000000000000000000000000000000000000000000000000000000000000001103201700000000            000000000000000                              000                           
0010001300359T 020180230000001544772 29577051207716162   7               13032017000000000007500001021121                         0900000000000010000000000000000000000000000000000000000   0000000000000000000000000A9        170192957705     
0010001300360U 020000000000000000000000000000000000000000000000000000000000000000000000000000000000000000000000000000000000000000000000001103201700000000            000000000000000                              000                           
0010001300361T 020180230000001544772 29577051207740920   7               13032017000000000007500001021121                         0900000000000010000000000000000000000000000000000000000   0000000000000000000000000A9        170192957705     
0010001300362U 020000000000000000000000000000000000000000000000000000000000000000000000000000000000000000000000000000000000000000000000001103201700000000            000000000000000                              000                           
0010001300363T 020180230000001544772 29577051207750214   7               13032017000000000007500001021121                         0900000000000010000000000000000000000000000000000000000   0000000000000000000000000A9        170192957705     
0010001300364U 020000000000000000000000000000000000000000000000000000000000000000000000000000000000000000000000000000000000000000000000001103201700000000            000000000000000                              000                           
0010001300365T 020180230000001544772 29577051207812990   7               1303201700000000000750000103049X                         0900000000000010000000000000000000000000000000000000000   0000000000000000000000000A9        170192957705     
0010001300366U 020000000000000000000000000000000000000000000000000000000000000000000000000000000000000000000000000000000000000000000000001103201700000000            000000000000000                              000                           
0010001300367T 020180230000001544772 29577051207839548   7               1503201700000000000750000103049X                         0900000000000010000000000000000000000000000000000000000   0000000000000000000000000A9        170192957705     
0010001300368U 020000000000000000000000000000000000000000000000000000000000000000000000000000000000000000000000000000000000000000000000001303201700000000            000000000000000                              000                           
0010001300369T 020180230000001544772 29577051208819243   7               13032017000000000007500001000213                         0900000000000010000000000000000000000000000000000000000   0000000000000000000000000A9        170192957705     
0010001300370U 020000000000000000000000000000000000000000000000000000000000000000000000000000000000000000000000000000000000000000000000001103201700000000            000000000000000                              000                           
0010001300371T 020180230000001544772 29577051209403088   7               13032017000000000007500001012416                         0900000000000010500000000000000000000000000000000000000   0000000000000000000000000A9A4      170192957705     
0010001300372U 020000000000000000000000000000000000000000000000000000000000000000000000000000000000000000000000000000000000000000000000001103201700000000            000000000000000                              000                           
0010001300373T 020180230000001544772 29577051209536744   7               1303201700000000000750000103049X                         0900000000000010500000000000000000000000000000000000000   0000000000000000000000000A9A4      170192957705     
0010001300374U 020000000000000000000000000000000000000000000000000000000000000000000000000000000000000000000000000000000000000000000000001103201700000000            000000000000000                              000                           
0010001300375T 020180230000001544772 29577051210134099   7               14032017000000000007500001012408                         0900000000000010000000000000000000000000000000000000000   0000000000000000000000000A9        170192957705     
0010001300376U 020000000000000000000000000000000000000000000000000000000000000000000000000000000000000000000000000000000000000000000000001203201700000000            000000000000000                              000                           
0010001300377T 020180230000001544772 29577051210651186   7               14032017000000000007500001012416                         0900000000000010000000000000000000000000000000000000000   0000000000000000000000000A9        170192957705     
0010001300378U 020000000000000000000000000000000000000000000000000000000000000000000000000000000000000000000000000000000000000000000000001203201700000000            000000000000000                              000                           
0010001300379T 020180230000001544772 29577051210827194   7               14032017000000000007500001012416                         0900000000000010000000000000000000000000000000000000000   0000000000000000000000000A9        170192957705     
0010001300380U 020000000000000000000000000000000000000000000000000000000000000000000000000000000000000000000000000000000000000000000000001203201700000000            000000000000000                              000                           
0010001300381T 020180230000001544772 29577051211640178   7               14032017000000000007500001012416                         0900000000000010000000000000000000000000000000000000000   0000000000000000000000000A9        170192957705     
0010001300382U 020000000000000000000000000000000000000000000000000000000000000000000000000000000000000000000000000000000000000000000000001203201700000000            000000000000000                              000                           
0010001300383T 020180230000001544772 29577051212417550   7               14032017000000000007500001012416                         0900000000000010000000000000000000000000000000000000000   0000000000000000000000000A9        170192957705     
0010001300384U 020000000000000000000000000000000000000000000000000000000000000000000000000000000000000000000000000000000000000000000000001203201700000000            000000000000000                              000                           
0010001300385T 020180230000001544772 29577051213127632   7               14032017000000000007500001016179                         0900000000000010000000000000000000000000000000000000000   0000000000000000000000000A9        170192957705     
0010001300386U 020000000000000000000000000000000000000000000000000000000000000000000000000000000000000000000000000000000000000000000000001203201700000000            000000000000000                              000                           
0010001300387T 020180230000001544772 29577051214418755   7               14032017000000000007500001012416                         0900000000000010000000000000000000000000000000000000000   0000000000000000000000000A9        170192957705     
0010001300388U 020000000000000000000000000000000000000000000000000000000000000000000000000000000000000000000000000000000000000000000000001203201700000000            000000000000000                              000                           
0010001300389T 020180230000001544772 29577051214426898   7               15032017000000000007500001012416                         0900000000000010000000000000000000000000000000000000000   0000000000000000000000000A9        170192957705     
0010001300390U 020000000000000000000000000000000000000000000000000000000000000000000000000000000000000000000000000000000000000000000000001303201700000000            000000000000000                              000                           
0010001300391T 020180230000001544772 29577051214757130   7               14032017000000000007500001000213                         0900000000000010000000000000000000000000000000000000000   0000000000000000000000000A9        170192957705     
0010001300392U 020000000000000000000000000000000000000000000000000000000000000000000000000000000000000000000000000000000000000000000000001203201700000000            000000000000000                              000                           
0010001300393T 020180230000001544772 29577051215451563   7               1403201700000000000750000103049X                         0900000000000010000000000000000000000000000000000000000   0000000000000000000000000A9        170192957705     
0010001300394U 020000000000000000000000000000000000000000000000000000000000000000000000000000000000000000000000000000000000000000000000001203201700000000            000000000000000                              000                           
0010001300395T 020180230000001544772 29577051215637046   7               14032017000000000007500001012416                         0900000000000010000000000000000000000000000000000000000   0000000000000000000000000A9        170192957705     
0010001300396U 020000000000000000000000000000000000000000000000000000000000000000000000000000000000000000000000000000000000000000000000001203201700000000            000000000000000                              000                           
0010001300397T 020180230000001544772 29577051215742362   7               1403201700000000000750000103049X                         0900000000000010000000000000000000000000000000000000000   0000000000000000000000000A9        170192957705     
0010001300398U 020000000000000000000000000000000000000000000000000000000000000000000000000000000000000000000000000000000000000000000000001203201700000000            000000000000000                              000                           
0010001300399T 020180230000001544772 29577051216822004   7               14032017000000000007500001012416                         0900000000000010000000000000000000000000000000000000000   0000000000000000000000000A9        170192957705     
0010001300400U 020000000000000000000000000000000000000000000000000000000000000000000000000000000000000000000000000000000000000000000000001203201700000000            000000000000000                              000                           
0010001300401T 020180230000001544772 29577051217516931   7               14032017000000000007500001012408                         0900000000000010000000000000000000000000000000000000000   0000000000000000000000000A9        170192957705     
0010001300402U 020000000000000000000000000000000000000000000000000000000000000000000000000000000000000000000000000000000000000000000000001203201700000000            000000000000000                              000                           
0010001300403T 020180230000001544772 29577051217634250   7               14032017000000000007500001012408                         0900000000000010500000000000000000000000000000000000000   0000000000000000000000000A9A4      170192957705     
0010001300404U 020000000000000000000000000000000000000000000000000000000000000000000000000000000000000000000000000000000000000000000000001203201700000000            000000000000000                              000                           
0010001300405T 020180230000001544772 29577051218223998   7               14032017000000000007500001000213                         0900000000000010000000000000000000000000000000000000000   0000000000000000000000000A9        170192957705     
0010001300406U 020000000000000000000000000000000000000000000000000000000000000000000000000000000000000000000000000000000000000000000000001203201700000000            000000000000000                              000                           
0010001300407T 020180230000001544772 29577051218812121   7               14032017000000000007500001012408                         0900000000000010500000000000000000000000000000000000000   0000000000000000000000000A9A4      170192957705     
0010001300408U 020000000000000000000000000000000000000000000000000000000000000000000000000000000000000000000000000000000000000000000000001203201700000000            000000000000000                              000                           
0010001300409T 020180230000001544772 29577051219253290   7               14032017000000000007500001046280                         0900000000000010000000000000000000000000000000000000000   0000000000000000000000000A9        170192957705     
0010001300410U 020000000000000000000000000000000000000000000000000000000000000000000000000000000000000000000000000000000000000000000000001203201700000000            000000000000000                              000                           
0010001300411T 020180230000001544772 29577051219615280   7               14032017000000000007500001012416                         0900000000000010000000000000000000000000000000000000000   0000000000000000000000000A9        170192957705     
0010001300412U 020000000000000000000000000000000000000000000000000000000000000000000000000000000000000000000000000000000000000000000000001203201700000000            000000000000000                              000                           
