00100000         2247745860001000029577050014       0180230000001544772 INSTITUTO DE SELECAO E TECNOLOBANCO DO BRASIL                         21403201701090500013003000000515122941PROCESSAMEN                                                 
00100011T0100020 20247745860001000029577050014       0180230000001544772 INSTITUTO DE SELECAO E TECNOLO                                                                                000000001403201700000000  000000000                      
0010001300001T 020180230000001544772 29577050012703778   7               16032017000000000007500001000213                         0900000000000010500000000000000000000000000000000000000   0000000000000000000000000A9A4      170192957705     
0010001300002U 020000000000000000000000000000000000000000000000000000000000000000000000000000000000000000000000000000000000000000000000001403201700000000            000000000000000                              000                           
0010001300003T 020180230000001544772 29577050012741367   7               16032017000000000007500001000213                         0900000000000010500000000000000000000000000000000000000   0000000000000000000000000A9A4      170192957705     
0010001300004U 020000000000000000000000000000000000000000000000000000000000000000000000000000000000000000000000000000000000000000000000001403201700000000            000000000000000                              000                           
0010001300005T 020180230000001544772 29577050012745296   7               16032017000000000007500001000213                         0900000000000010500000000000000000000000000000000000000   0000000000000000000000000A9A4      170192957705     
0010001300006U 020000000000000000000000000000000000000000000000000000000000000000000000000000000000000000000000000000000000000000000000001403201700000000            000000000000000                              000                           
0010001300007T 020180230000001544772 29577050043959900   7               1603201700000000000750000100071X                         0900000000000010000000000000000000000000000000000000000   0000000000000000000000000A9        170192957705     
0010001300008U 020000000000000000000000000000000000000000000000000000000000000000000000000000000000000000000000000000000000000000000000001403201700000000            000000000000000                              000                           
0010001300009T 020180230000001544772 29577050052338690   7               16032017000000000007500001000213                         0900000000000010000000000000000000000000000000000000000   0000000000000000000000000A9        170192957705     
0010001300010U 020000000000000000000000000000000000000000000000000000000000000000000000000000000000000000000000000000000000000000000000001403201700000000            000000000000000                              000                           
0010001300011T 020180230000001544772 29577050149002459   7               16032017000000000007500001000213                         0900000000000010000000000000000000000000000000000000000   0000000000000000000000000A9        170192957705     
0010001300012U 020000000000000000000000000000000000000000000000000000000000000000000000000000000000000000000000000000000000000000000000001403201700000000            000000000000000                              000                           
0010001300013T 020180230000001544772 29577050162907145   7               16032017000000000007500001012408                         0900000000000010000000000000000000000000000000000000000   0000000000000000000000000A9        170192957705     
0010001300014U 020000000000000000000000000000000000000000000000000000000000000000000000000000000000000000000000000000000000000000000000001403201700000000            000000000000000                              000                           
0010001300015T 020180230000001544772 29577050171055827   7               1603201700000000000750000103049X                         0900000000000010000000000000000000000000000000000000000   0000000000000000000000000A9        170192957705     
0010001300016U 020000000000000000000000000000000000000000000000000000000000000000000000000000000000000000000000000000000000000000000000001403201700000000            000000000000000                              000                           
0010001300017T 020180230000001544772 29577050171621743   7               15032017000000000007500001000213                         0900000000000010000000000000000000000000000000000000000   0000000000000000000000000A9        170192957705     
0010001300018U 020000000000000000000000000000000000000000000000000000000000000000000000000000000000000000000000000000000000000000000000001303201700000000            000000000000000                              000                           
0010001300019T 020180230000001544772 29577050203832278   7               16032017000000000007500001012408                         0900000000000010000000000000000000000000000000000000000   0000000000000000000000000A9        170192957705     
0010001300020U 020000000000000000000000000000000000000000000000000000000000000000000000000000000000000000000000000000000000000000000000001403201700000000            000000000000000                              000                           
0010001300021T 020180230000001544772 29577050218939592   7               16032017000000000007500001012416                         0900000000000010000000000000000000000000000000000000000   0000000000000000000000000A9        170192957705     
0010001300022U 020000000000000000000000000000000000000000000000000000000000000000000000000000000000000000000000000000000000000000000000001403201700000000            000000000000000                              000                           
0010001300023T 020180230000001544772 29577050248032971   7               16032017000000000007500001012408                         0900000000000010000000000000000000000000000000000000000   0000000000000000000000000A9        170192957705     
0010001300024U 020000000000000000000000000000000000000000000000000000000000000000000000000000000000000000000000000000000000000000000000001403201700000000            000000000000000                              000                           
0010001300025T 020180230000001544772 29577050248054993   7               16032017000000000007500001012408                         0900000000000010000000000000000000000000000000000000000   0000000000000000000000000A9        170192957705     
0010001300026U 020000000000000000000000000000000000000000000000000000000000000000000000000000000000000000000000000000000000000000000000001403201700000000            000000000000000                              000                           
0010001300027T 020180230000001544772 29577050255824490   7               1603201700000000000750000104590X                         0900000000000010000000000000000000000000000000000000000   0000000000000000000000000A9        170192957705     
0010001300028U 020000000000000000000000000000000000000000000000000000000000000000000000000000000000000000000000000000000000000000000000001403201700000000            000000000000000                              000                           
0010001300029T 020180230000001544772 29577050281300971   7               16032017000000000010000001012408                         0900000000000010000000000000000000000000000000000000000   0000000000000000000000000A9        170192957705     
0010001300030U 020000000000000000000000000000000000000000000000000000000000000000000000000000000000000000000000000000000000000000000000001403201700000000            000000000000000                              000                           
0010001300031T 020180230000001544772 29577050281307478   7               16032017000000000010000001012408                         0900000000000010000000000000000000000000000000000000000   0000000000000000000000000A9        170192957705     
0010001300032U 020000000000000000000000000000000000000000000000000000000000000000000000000000000000000000000000000000000000000000000000001403201700000000            000000000000000                              000                           
0010001300033T 020180230000001544772 29577050281307707   7               16032017000000000010000001012408                         0900000000000010000000000000000000000000000000000000000   0000000000000000000000000A9        170192957705     
0010001300034U 020000000000000000000000000000000000000000000000000000000000000000000000000000000000000000000000000000000000000000000000001403201700000000            000000000000000                              000                           
0010001300035T 020180230000001544772 29577050281312363   7               16032017000000000010000001012408                         0900000000000010000000000000000000000000000000000000000   0000000000000000000000000A9        170192957705     
0010001300036U 020000000000000000000000000000000000000000000000000000000000000000000000000000000000000000000000000000000000000000000000001403201700000000            000000000000000                              000                           
0010001300037T 020180230000001544772 29577050281324278   7               16032017000000000010000001012408                         0900000000000010000000000000000000000000000000000000000   0000000000000000000000000A9        170192957705     
0010001300038U 020000000000000000000000000000000000000000000000000000000000000000000000000000000000000000000000000000000000000000000000001403201700000000            000000000000000                              000                           
0010001300039T 020180230000001544772 29577050281331106   7               16032017000000000010000001012408                         0900000000000010000000000000000000000000000000000000000   0000000000000000000000000A9        170192957705     
0010001300040U 020000000000000000000000000000000000000000000000000000000000000000000000000000000000000000000000000000000000000000000000001403201700000000            000000000000000                              000                           
0010001300041T 020180230000001544772 29577050281332808   7               16032017000000000010000001012408                         0900000000000010000000000000000000000000000000000000000   0000000000000000000000000A9        170192957705     
0010001300042U 020000000000000000000000000000000000000000000000000000000000000000000000000000000000000000000000000000000000000000000000001403201700000000            000000000000000                              000                           
0010001300043T 020180230000001544772 29577050281341836   7               16032017000000000010000001012408                         0900000000000010000000000000000000000000000000000000000   0000000000000000000000000A9        170192957705     
0010001300044U 020000000000000000000000000000000000000000000000000000000000000000000000000000000000000000000000000000000000000000000000001403201700000000            000000000000000                              000                           
0010001300045T 020180230000001544772 29577050298722315   7               16032017000000000007500001000213                         0900000000000010000000000000000000000000000000000000000   0000000000000000000000000A9        170192957705     
0010001300046U 020000000000000000000000000000000000000000000000000000000000000000000000000000000000000000000000000000000000000000000000001403201700000000            000000000000000                              000                           
0010001300047T 020180230000001544772 29577050301802832   7               1603201700000000000750000103049X                         0900000000000010000000000000000000000000000000000000000   0000000000000000000000000A9        170192957705     
0010001300048U 020000000000000000000000000000000000000000000000000000000000000000000000000000000000000000000000000000000000000000000000001403201700000000            000000000000000                              000                           
0010001300049T 020180230000001544772 29577050301849659   7               1603201700000000000750000103049X                         0900000000000010000000000000000000000000000000000000000   0000000000000000000000000A9        170192957705     
0010001300050U 020000000000000000000000000000000000000000000000000000000000000000000000000000000000000000000000000000000000000000000000001403201700000000            000000000000000                              000                           
0010001300051T 020180230000001544772 29577050357738751   7               16032017000000000007500001000213                         0900000000000010000000000000000000000000000000000000000   0000000000000000000000000A9        170192957705     
0010001300052U 020000000000000000000000000000000000000000000000000000000000000000000000000000000000000000000000000000000000000000000000001403201700000000            000000000000000                              000                           
0010001300053T 020180230000001544772 29577050387613874   7               16032017000000000007500001012416                         0900000000000010000000000000000000000000000000000000000   0000000000000000000000000A9        170192957705     
0010001300054U 020000000000000000000000000000000000000000000000000000000000000000000000000000000000000000000000000000000000000000000000001403201700000000            000000000000000                              000                           
0010001300055T 020180230000001544772 29577050429608634   7               16032017000000000007500001021520                         0900000000000010500000000000000000000000000000000000000   0000000000000000000000000A9A4      170192957705     
0010001300056U 020000000000000000000000000000000000000000000000000000000000000000000000000000000000000000000000000000000000000000000000001403201700000000            000000000000000                              000                           
0010001300057T 020180230000001544772 29577050453104019   7               16032017000000000007500001012408                         0900000000000010000000000000000000000000000000000000000   0000000000000000000000000A9        170192957705     
0010001300058U 020000000000000000000000000000000000000000000000000000000000000000000000000000000000000000000000000000000000000000000000001403201700000000            000000000000000                              000                           
0010001300059T 020180230000001544772 29577050470722151   7               16032017000000000007500001012408                         0900000000000010000000000000000000000000000000000000000   0000000000000000000000000A9        170192957705     
0010001300060U 020000000000000000000000000000000000000000000000000000000000000000000000000000000000000000000000000000000000000000000000001403201700000000            000000000000000                              000                           
0010001300061T 020180230000001544772 29577050472644417   7               16032017000000000010000001002224                         0900000000000010000000000000000000000000000000000000000   0000000000000000000000000A9        170192957705     
0010001300062U 020000000000000000000000000000000000000000000000000000000000000000000000000000000000000000000000000000000000000000000000001403201700000000            000000000000000                              000                           
0010001300063T 020180230000001544772 29577050492254440   7               16032017000000000007500001001120                         0900000000000010000000000000000000000000000000000000000   0000000000000000000000000A9        170192957705     
0010001300064U 020000000000000000000000000000000000000000000000000000000000000000000000000000000000000000000000000000000000000000000000001403201700000000            000000000000000                              000                           
0010001300065T 020180230000001544772 29577050503205691   7               16032017000000000007500001000213                         0900000000000010000000000000000000000000000000000000000   0000000000000000000000000A9        170192957705     
0010001300066U 020000000000000000000000000000000000000000000000000000000000000000000000000000000000000000000000000000000000000000000000001403201700000000            000000000000000                              000                           
0010001300067T 020180230000001544772 29577050503248932   7               16032017000000000007500001000213                         0900000000000010000000000000000000000000000000000000000   0000000000000000000000000A9        170192957705     
0010001300068U 020000000000000000000000000000000000000000000000000000000000000000000000000000000000000000000000000000000000000000000000001403201700000000            000000000000000                              000                           
0010001300069T 020180230000001544772 29577050503454110   7               16032017000000000007500001000213                         0900000000000010000000000000000000000000000000000000000   0000000000000000000000000A9        170192957705     
0010001300070U 020000000000000000000000000000000000000000000000000000000000000000000000000000000000000000000000000000000000000000000000001403201700000000            000000000000000                              000                           
0010001300071T 020180230000001544772 29577050718818017   7               16032017000000000007500001012416                         0900000000000010000000000000000000000000000000000000000   0000000000000000000000000A9        170192957705     
0010001300072U 020000000000000000000000000000000000000000000000000000000000000000000000000000000000000000000000000000000000000000000000001403201700000000            000000000000000                              000                           
0010001300073T 020180230000001544772 29577050718845363   7               16032017000000000007500001012416                         0900000000000010000000000000000000000000000000000000000   0000000000000000000000000A9        170192957705     
0010001300074U 020000000000000000000000000000000000000000000000000000000000000000000000000000000000000000000000000000000000000000000000001403201700000000            000000000000000                              000                           
0010001300075T 020180230000001544772 29577050772003555   7               16032017000000000007500001000213                         0900000000000010000000000000000000000000000000000000000   0000000000000000000000000A9        170192957705     
0010001300076U 020000000000000000000000000000000000000000000000000000000000000000000000000000000000000000000000000000000000000000000000001403201700000000            000000000000000                              000                           
0010001300077T 020180230000001544772 29577050878900239   7               16032017000000000010000001000213                         0900000000000010000000000000000000000000000000000000000   0000000000000000000000000A9        170192957705     
0010001300078U 020000000000000000000000000000000000000000000000000000000000000000000000000000000000000000000000000000000000000000000000001403201700000000            000000000000000                              000                           
0010001300079T 020180230000001544772 29577051026318920   7               16032017000000000007500001012416                         0900000000000010000000000000000000000000000000000000000   0000000000000000000000000A9        170192957705     
0010001300080U 020000000000000000000000000000000000000000000000000000000000000000000000000000000000000000000000000000000000000000000000001403201700000000            000000000000000                              000                           
0010001300081T 020180230000001544772 29577051038505401   7               1603201700000000000750000100281X                         0900000000000010000000000000000000000000000000000000000   0000000000000000000000000A9        170192957705     
0010001300082U 020000000000000000000000000000000000000000000000000000000000000000000000000000000000000000000000000000000000000000000000001403201700000000            000000000000000                              000                           
0010001300083T 020180230000001544772 29577051042806832   7               16032017000000000007500001012408                         0900000000000010500000000000000000000000000000000000000   0000000000000000000000000A9A4      170192957705     
0010001300084U 020000000000000000000000000000000000000000000000000000000000000000000000000000000000000000000000000000000000000000000000001403201700000000            000000000000000                              000                           
0010001300085T 020180230000001544772 29577051042847350   7               16032017000000000007500001012408                         0900000000000010500000000000000000000000000000000000000   0000000000000000000000000A9A4      170192957705     
0010001300086U 020000000000000000000000000000000000000000000000000000000000000000000000000000000000000000000000000000000000000000000000001403201700000000            000000000000000                              000                           
0010001300087T 020180230000001544772 29577051058815614   7               1603201700000000000750000100281X                         0900000000000010000000000000000000000000000000000000000   0000000000000000000000000A9        170192957705     
0010001300088U 020000000000000000000000000000000000000000000000000000000000000000000000000000000000000000000000000000000000000000000000001403201700000000            000000000000000                              000                           
0010001300089T 020180230000001544772 29577051073009380   7               16032017000000000007500001012408                         0900000000000010000000000000000000000000000000000000000   0000000000000000000000000A9        170192957705     
0010001300090U 020000000000000000000000000000000000000000000000000000000000000000000000000000000000000000000000000000000000000000000000001403201700000000            000000000000000                              000                           
0010001300091T 020180230000001544772 29577051154616669   7               16032017000000000007500001009245                         0900000000000010000000000000000000000000000000000000000   0000000000000000000000000A9        170192957705     
0010001300092U 020000000000000000000000000000000000000000000000000000000000000000000000000000000000000000000000000000000000000000000000001403201700000000            000000000000000                              000                           
0010001300093T 020180230000001544772 29577051159853918   7               1603201700000000000750000103049X                         0900000000000010000000000000000000000000000000000000000   0000000000000000000000000A9        170192957705     
0010001300094U 020000000000000000000000000000000000000000000000000000000000000000000000000000000000000000000000000000000000000000000000001403201700000000            000000000000000                              000                           
0010001300095T 020180230000001544772 29577051179331270   7               16032017000000000007500001012408                         0900000000000010000000000000000000000000000000000000000   0000000000000000000000000A9        170192957705     
0010001300096U 020000000000000000000000000000000000000000000000000000000000000000000000000000000000000000000000000000000000000000000000001403201700000000            000000000000000                              000                           
0010001300097T 020180230000001544772 29577051208828981   7               16032017000000000007500001000213                         0900000000000010000000000000000000000000000000000000000   0000000000000000000000000A9        170192957705     
0010001300098U 020000000000000000000000000000000000000000000000000000000000000000000000000000000000000000000000000000000000000000000000001403201700000000            000000000000000                              000                           
0010001300099T 020180230000001544772 29577051214427320   7               16032017000000000007500001012416                         0900000000000010000000000000000000000000000000000000000   0000000000000000000000000A9        170192957705     
0010001300100U 020000000000000000000000000000000000000000000000000000000000000000000000000000000000000000000000000000000000000000000000001403201700000000            000000000000000                              000                           
0010001300101T 020180230000001544772 29577051255555727   7               15032017000000000007500001004782                         0900000000000010000000000000000000000000000000000000000   0000000000000000000000000A9        170192957705     
0010001300102U 020000000000000000000000000000000000000000000000000000000000000000000000000000000000000000000000000000000000000000000000001303201700000000            000000000000000                              000                           
0010001300103T 020180230000001544772 29577051256122009   7               15032017000000000007500001000213                         0900000000000010000000000000000000000000000000000000000   0000000000000000000000000A9        170192957705     
0010001300104U 020000000000000000000000000000000000000000000000000000000000000000000000000000000000000000000000000000000000000000000000001303201700000000            000000000000000                              000                           
0010001300105T 020180230000001544772 29577051256207526   7               15032017000000000007500001004782                         0900000000000010000000000000000000000000000000000000000   0000000000000000000000000A9        170192957705     
0010001300106U 020000000000000000000000000000000000000000000000000000000000000000000000000000000000000000000000000000000000000000000000001303201700000000            000000000000000                              000                           
0010001300107T 020180230000001544772 29577051256735320   7               16032017000000000007500001004782                         0900000000000010000000000000000000000000000000000000000   0000000000000000000000000A9        170192957705     
0010001300108U 020000000000000000000000000000000000000000000000000000000000000000000000000000000000000000000000000000000000000000000000001403201700000000            000000000000000                              000                           
0010001300109T 020180230000001544772 29577051260509016   7               16032017000000000007500001004782                         0900000000000010000000000000000000000000000000000000000   0000000000000000000000000A9        170192957705     
0010001300110U 020000000000000000000000000000000000000000000000000000000000000000000000000000000000000000000000000000000000000000000000001403201700000000            000000000000000                              000                           
0010001300111T 020180230000001544772 29577051260744883   7               16032017000000000007500001000213                         0900000000000010500000000000000000000000000000000000000   0000000000000000000000000A9A4      170192957705     
0010001300112U 020000000000000000000000000000000000000000000000000000000000000000000000000000000000000000000000000000000000000000000000001403201700000000            000000000000000                              000                           
0010001300113T 020180230000001544772 29577051260856010   7               1603201700000000000750000103049X                         0900000000000010000000000000000000000000000000000000000   0000000000000000000000000A9        170192957705     
0010001300114U 020000000000000000000000000000000000000000000000000000000000000000000000000000000000000000000000000000000000000000000000001403201700000000            000000000000000                              000                           
0010001300115T 020180230000001544772 29577051262337056   7               1603201700000000000750000103049X                         0900000000000010000000000000000000000000000000000000000   0000000000000000000000000A9        170192957705     
0010001300116U 020000000000000000000000000000000000000000000000000000000000000000000000000000000000000000000000000000000000000000000000001403201700000000            000000000000000                              000                           
0010001300117T 020180230000001544772 29577051262411853   7               16032017000000000007500001012416                         0900000000000010000000000000000000000000000000000000000   0000000000000000000000000A9        170192957705     
0010001300118U 020000000000000000000000000000000000000000000000000000000000000000000000000000000000000000000000000000000000000000000000001403201700000000            000000000000000                              000                           
0010001300119T 020180230000001544772 29577051263056226   7               1603201700000000000750000103049X                         0900000000000010000000000000000000000000000000000000000   0000000000000000000000000A9        170192957705     
0010001300120U 020000000000000000000000000000000000000000000000000000000000000000000000000000000000000000000000000000000000000000000000001403201700000000            000000000000000                              000                           
0010001300121T 020180230000001544772 29577051264556388   7               1603201700000000000750000103049X                         0900000000000010500000000000000000000000000000000000000   0000000000000000000000000A9A4      170192957705     
0010001300122U 020000000000000000000000000000000000000000000000000000000000000000000000000000000000000000000000000000000000000000000000001403201700000000            000000000000000                              000                           
0010001300123T 020180230000001544772 29577051264602964   7               1603201700000000000750000103049X                         0900000000000010000000000000000000000000000000000000000   0000000000000000000000000A9        170192957705     
0010001300124U 020000000000000000000000000000000000000000000000000000000000000000000000000000000000000000000000000000000000000000000000001403201700000000            000000000000000                              000                           
0010001300125T 020180230000001544772 29577051265008501   7               16032017000000000007500001000213                         0900000000000010000000000000000000000000000000000000000   0000000000000000000000000A9        170192957705     
0010001300126U 020000000000000000000000000000000000000000000000000000000000000000000000000000000000000000000000000000000000000000000000001403201700000000            000000000000000                              000                           
0010001300127T 020180230000001544772 29577051266407763   7               16032017000000000007500001000213                         0900000000000010000000000000000000000000000000000000000   0000000000000000000000000A9        170192957705     
0010001300128U 020000000000000000000000000000000000000000000000000000000000000000000000000000000000000000000000000000000000000000000000001403201700000000            000000000000000                              000                           
0010001300129T 020180230000001544772 29577051266936696   7               16032017000000000007500001012416                         0900000000000010000000000000000000000000000000000000000   0000000000000000000000000A9        170192957705     
0010001300130U 020000000000000000000000000000000000000000000000000000000000000000000000000000000000000000000000000000000000000000000000001403201700000000            000000000000000                              000                           
0010001300131T 020180230000001544772 29577051267233115   7               16032017000000000007500001000213                         0900000000000010500000000000000000000000000000000000000   0000000000000000000000000A9A4      170192957705     
0010001300132U 020000000000000000000000000000000000000000000000000000000000000000000000000000000000000000000000000000000000000000000000001403201700000000            000000000000000                              000                           
0010001300133T 020180230000001544772 29577051267656770   7               16032017000000000007500001021121                         0900000000000010000000000000000000000000000000000000000   0000000000000000000000000A9        170192957705     
0010001300134U 020000000000000000000000000000000000000000000000000000000000000000000000000000000000000000000000000000000000000000000000001403201700000000            000000000000000                              000                           
0010001300135T 020180230000001544772 29577051270116027   7               16032017000000000007500001012408                         0900000000000010000000000000000000000000000000000000000   0000000000000000000000000A9        170192957705     
0010001300136U 020000000000000000000000000000000000000000000000000000000000000000000000000000000000000000000000000000000000000000000000001403201700000000            000000000000000                              000                           
0010001300137T 020180230000001544772 29577051270400359   7               16032017000000000007500001012408                         0900000000000010000000000000000000000000000000000000000   0000000000000000000000000A9        170192957705     
0010001300138U 020000000000000000000000000000000000000000000000000000000000000000000000000000000000000000000000000000000000000000000000001403201700000000            000000000000000                              000                           
0010001300139T 020180230000001544772 29577051272128501   7               16032017000000000007500001012416                         0900000000000010000000000000000000000000000000000000000   0000000000000000000000000A9        170192957705     
0010001300140U 020000000000000000000000000000000000000000000000000000000000000000000000000000000000000000000000000000000000000000000000001403201700000000            000000000000000                              000                           
0010001300141T 020180230000001544772 29577051272145621   7               16032017000000000007500001012416                         0900000000000010000000000000000000000000000000000000000   0000000000000000000000000A9        170192957705     
0010001300142U 020000000000000000000000000000000000000000000000000000000000000000000000000000000000000000000000000000000000000000000000001403201700000000            000000000000000                              000                           
0010001300143T 020180230000001544772 29577051273321561   7               1603201700000000000750000103049X                         0900000000000010000000000000000000000000000000000000000   0000000000000000000000000A9        170192957705     
0010001300144U 020000000000000000000000000000000000000000000000000000000000000000000000000000000000000000000000000000000000000000000000001403201700000000            000000000000000                              000                           
0010001300145T 020180230000001544772 29577051273352950   7               1603201700000000000750000103049X                         0900000000000010000000000000000000000000000000000000000   0000000000000000000000000A9        170192957705     
0010001300146U 020000000000000000000000000000000000000000000000000000000000000000000000000000000000000000000000000000000000000000000000001403201700000000            000000000000000                              000                           
0010001300147T 020180230000001544772 29577051273547746   7               16032017000000000007500001000213                         0900000000000010000000000000000000000000000000000000000   0000000000000000000000000A9        170192957705     
0010001300148U 020000000000000000000000000000000000000000000000000000000000000000000000000000000000000000000000000000000000000000000000001403201700000000            000000000000000                              000                           
0010001300149T 020180230000001544772 29577051274608592   7               16032017000000000007500001012408                         0900000000000010000000000000000000000000000000000000000   0000000000000000000000000A9        170192957705     
0010001300150U 020000000000000000000000000000000000000000000000000000000000000000000000000000000000000000000000000000000000000000000000001403201700000000            000000000000000                              000                           
0010001300151T 020180230000001544772 29577051275402881   7               16032017000000000007500001012408                         0900000000000010000000000000000000000000000000000000000   0000000000000000000000000A9        170192957705     
0010001300152U 020000000000000000000000000000000000000000000000000000000000000000000000000000000000000000000000000000000000000000000000001403201700000000            000000000000000                              000                           
0010001300153T 020180230000001544772 29577051276332481   7               1603201700000000000750000103049X                         0900000000000010000000000000000000000000000000000000000   0000000000000000000000000A9        170192957705     
0010001300154U 020000000000000000000000000000000000000000000000000000000000000000000000000000000000000000000000000000000000000000000000001403201700000000            000000000000000                              000                           
0010001300155T 020180230000001544772 29577051276742015   7               16032017000000000007500001000213                         0900000000000010000000000000000000000000000000000000000   0000000000000000000000000A9        170192957705     
0010001300156U 020000000000000000000000000000000000000000000000000000000000000000000000000000000000000000000000000000000000000000000000001403201700000000            000000000000000                              000                           
0010001300157T 020180230000001544772 29577051277533095   7               16032017000000000010000001012408                         0900000000000010000000000000000000000000000000000000000   0000000000000000000000000A9        170192957705     
0010001300158U 020000000000000000000000000000000000000000000000000000000000000000000000000000000000000000000000000000000000000000000000001403201700000000            000000000000000                              000                           
0010001300159T 020180230000001544772 29577051277955142   7               1603201700000000000750000103049X                         0900000000000010500000000000000000000000000000000000000   0000000000000000000000000A9A4      170192957705     
0010001300160U 020000000000000000000000000000000000000000000000000000000000000000000000000000000000000000000000000000000000000000000000001403201700000000            000000000000000                              000                           
0010001300161T 020180230000001544772 29577051278216235   7               16032017000000000007500001000213                         0900000000000010000000000000000000000000000000000000000   0000000000000000000000000A9        170192957705     
0010001300162U 020000000000000000000000000000000000000000000000000000000000000000000000000000000000000000000000000000000000000000000000001403201700000000            000000000000000                              000                           
0010001300163T 020180230000001544772 29577051278451804   7               16032017000000000007500001016179                         0900000000000010000000000000000000000000000000000000000   0000000000000000000000000A9        170192957705     
0010001300164U 020000000000000000000000000000000000000000000000000000000000000000000000000000000000000000000000000000000000000000000000001403201700000000            000000000000000                              000                           
0010001300165T 020180230000001544772 29577051279748011   7               16032017000000000007500001028029                         0900000000000010000000000000000000000000000000000000000   0000000000000000000000000A9        170192957705     
0010001300166U 020000000000000000000000000000000000000000000000000000000000000000000000000000000000000000000000000000000000000000000000001403201700000000            000000000000000                              000                           
0010001300167T 020180230000001544772 29577051279943364   7               16032017000000000007500001046280                         0900000000000010000000000000000000000000000000000000000   0000000000000000000000000A9        170192957705     
0010001300168U 020000000000000000000000000000000000000000000000000000000000000000000000000000000000000000000000000000000000000000000000001403201700000000            000000000000000                              000                           
0010001300169T 020180230000001544772 29577051280227799   7               16032017000000000007500001012408                         0900000000000010000000000000000000000000000000000000000   0000000000000000000000000A9        170192957705     
0010001300170U 020000000000000000000000000000000000000000000000000000000000000000000000000000000000000000000000000000000000000000000000001403201700000000            000000000000000                              000                           
0010001300171T 020180230000001544772 29577051280411879   7               16032017000000000007500001001600                         0900000000000010000000000000000000000000000000000000000   0000000000000000000000000A9        170192957705     
0010001300172U 020000000000000000000000000000000000000000000000000000000000000000000000000000000000000000000000000000000000000000000000001403201700000000            000000000000000                              000                           
0010001300173T 020180230000001544772 29577051280705590   7               16032017000000000007500001000213                         0900000000000010000000000000000000000000000000000000000   0000000000000000000000000A9        170192957705     
0010001300174U 020000000000000000000000000000000000000000000000000000000000000000000000000000000000000000000000000000000000000000000000001403201700000000            000000000000000                              000                           
0010001300175T 020180230000001544772 29577051281800986   7               16032017000000000007500001012408                         0900000000000010000000000000000000000000000000000000000   0000000000000000000000000A9        170192957705     
0010001300176U 020000000000000000000000000000000000000000000000000000000000000000000000000000000000000000000000000000000000000000000000001403201700000000            000000000000000                              000                           
0010001300177T 020180230000001544772 29577051281823963   7               16032017000000000007500001012408                         0900000000000010000000000000000000000000000000000000000   0000000000000000000000000A9        170192957705     
0010001300178U 020000000000000000000000000000000000000000000000000000000000000000000000000000000000000000000000000000000000000000000000001403201700000000            000000000000000                              000                           
0010001300179T 020180230000001544772 29577051282227117   7               1603201700000000000750000103049X                         0900000000000010000000000000000000000000000000000000000   0000000000000000000000000A9        170192957705     
0010001300180U 020000000000000000000000000000000000000000000000000000000000000000000000000000000000000000000000000000000000000000000000001403201700000000            000000000000000                              000                           
0010001300181T 060180230000001544772 29577050878900239   7               16032017000000000010000104001680                         0900000000000010000000000000000000000000000000000000000   000000000000000000000029000        170192957705     
0010001300182U 060000000000000000000000000000000000000000000000000000000000000000000000100000000000000097100000000000000000000000000000001403201715032017            000000000000000                              000                           
0010001300183T 060180230000001544772 29577051042847350   7               16032017000000000007500104016430                         0900000000000010000000000000000000000000000000000000000   000000000000000000000029000        170192957705     
0010001300184U 060000000000000000000000000000000000000000000000000000000000000000000000075000000000000072100000000000000000000000000000001403201715032017            000000000000000                              000                           
0010001300185T 060180230000001544772 29577051180244545   7               15032017000000000007500104001730                         0900000000000010000000000000000000000000000000000000000   000000000000000000000029000        170192957705     
0010001300186U 060000000000000000000000000000000000000000000000000000000000000000000000075000000000000072100000000000000000000000000000001403201715032017            000000000000000                              000                           
0010001300187T 060180230000001544772 29577051214427320   7               16032017000000000007500104020990                         0900000000000010000000000000000000000000000000000000000   000000000000000000000029000        170192957705     
0010001300188U 060000000000000000000000000000000000000000000000000000000000000000000000075000000000000072100000000000000000000000000000001403201715032017            000000000000000                              000                           
0010001300189T 060180230000001544772 29577051218812121   7               14032017000000000007500021001060                         0900000000000010000000000000000000000000000000000000000   000000000000000000000029000        170192957705     
0010001300190U 060000000000000000000000000000000000000000000000000000000000000000000000075000000000000072100000000000000000000000000000001403201715032017            000000000000000                              000                           
0010001300191T 170180230000001544772 29577051270252963   7               00000000000000000010000237035610                         0900000000000010000000000000000000000000000000000000000   000000000000000000000070003        170192957705     
0010001300192U 170000000000000000000000000000000000000000000000000000000000000000000000100000000000000093000000000000000000000000000000001403201715032017            000000000000000                              000                           
0010001300193T 280180230000001544772 29577050012337247   788888888888889913012017000000000007500001000000888888888888899          0900000000000000000000000000000000000000000000000000000   000000000000000000000005002        170192957705     
0010001300194U 280000000000000000000000000000000000000000000000000000000000000000000000000000000000000000000000000000000000000000000000001403201700000000            000000000000000                              000                           
0010001300195T 280180230000001544772 29577050012720077   788888888888889912022017000000000007500001000000888888888888899          0900000000000000000000000000000000000000000000000000000   000000000000000000000005002        170192957705     
0010001300196U 280000000000000000000000000000000000000000000000000000000000000000000000000000000000000000000000000000000000000000000000001403201700000000            000000000000000                              000                           
0010001300197T 280180230000001544772 29577050018119251   788888888888889912022017000000000007500001000000888888888888899          0900000000000000000000000000000000000000000000000000000   000000000000000000000005002        170192957705     
0010001300198U 280000000000000000000000000000000000000000000000000000000000000000000000000000000000000000000000000000000000000000000000001403201700000000            000000000000000                              000                           
0010001300199T 280180230000001544772 29577050018613404   788888888888889912022017000000000007500001000000888888888888899          0900000000000000000000000000000000000000000000000000000   000000000000000000000005002        170192957705     
0010001300200U 280000000000000000000000000000000000000000000000000000000000000000000000000000000000000000000000000000000000000000000000001403201700000000            000000000000000                              000                           
0010001300201T 280180230000001544772 29577050020418206   788888888888889913012017000000000007500001000000888888888888899          0900000000000000000000000000000000000000000000000000000   000000000000000000000005002        170192957705     
0010001300202U 280000000000000000000000000000000000000000000000000000000000000000000000000000000000000000000000000000000000000000000000001403201700000000            000000000000000                              000                           
0010001300203T 280180230000001544772 29577050020433689   788888888888889913012017000000000007500001000000888888888888899          0900000000000000000000000000000000000000000000000000000   000000000000000000000005002        170192957705     
0010001300204U 280000000000000000000000000000000000000000000000000000000000000000000000000000000000000000000000000000000000000000000000001403201700000000            000000000000000                              000                           
0010001300205T 280180230000001544772 29577050022859615   788888888888889912022017000000000007500001000000888888888888899          0900000000000000000000000000000000000000000000000000000   000000000000000000000005002        170192957705     
0010001300206U 280000000000000000000000000000000000000000000000000000000000000000000000000000000000000000000000000000000000000000000000001403201700000000            000000000000000                              000                           
0010001300207T 280180230000001544772 29577050023143985   788888888888889912022017000000000007500001000000888888888888899          0900000000000000000000000000000000000000000000000000000   000000000000000000000005002        170192957705     
0010001300208U 280000000000000000000000000000000000000000000000000000000000000000000000000000000000000000000000000000000000000000000000001403201700000000            000000000000000                              000                           
0010001300209T 280180230000001544772 29577050023358497   788888888888889912022017000000000007500001000000888888888888899          0900000000000000000000000000000000000000000000000000000   000000000000000000000005002        170192957705     
0010001300210U 280000000000000000000000000000000000000000000000000000000000000000000000000000000000000000000000000000000000000000000000001403201700000000            000000000000000                              000                           
0010001300211T 280180230000001544772 29577050027707266   788888888888889913012017000000000007500001000000888888888888899          0900000000000000000000000000000000000000000000000000000   000000000000000000000005002        170192957705     
0010001300212U 280000000000000000000000000000000000000000000000000000000000000000000000000000000000000000000000000000000000000000000000001403201700000000            000000000000000                              000                           
0010001300213T 280180230000001544772 29577050027734190   788888888888889913012017000000000007500001000000888888888888899          0900000000000000000000000000000000000000000000000000000   000000000000000000000005002        170192957705     
0010001300214U 280000000000000000000000000000000000000000000000000000000000000000000000000000000000000000000000000000000000000000000000001403201700000000            000000000000000                              000                           
0010001300215T 280180230000001544772 29577050045053298   788888888888889912022017000000000007500001000000888888888888899          0900000000000000000000000000000000000000000000000000000   000000000000000000000005002        170192957705     
0010001300216U 280000000000000000000000000000000000000000000000000000000000000000000000000000000000000000000000000000000000000000000000001403201700000000            000000000000000                              000                           
0010001300217T 280180230000001544772 29577050053756079   788888888888889912022017000000000007500001000000888888888888899          0900000000000000000000000000000000000000000000000000000   000000000000000000000005002        170192957705     
0010001300218U 280000000000000000000000000000000000000000000000000000000000000000000000000000000000000000000000000000000000000000000000001403201700000000            000000000000000                              000                           
0010001300219T 280180230000001544772 29577050069234388   788888888888889912022017000000000007500001000000888888888888899          0900000000000000000000000000000000000000000000000000000   000000000000000000000005002        170192957705     
0010001300220U 280000000000000000000000000000000000000000000000000000000000000000000000000000000000000000000000000000000000000000000000001403201700000000            000000000000000                              000                           
0010001300221T 280180230000001544772 29577050086916125   788888888888889912022017000000000007500001000000888888888888899          0900000000000000000000000000000000000000000000000000000   000000000000000000000005002        170192957705     
0010001300222U 280000000000000000000000000000000000000000000000000000000000000000000000000000000000000000000000000000000000000000000000001403201700000000            000000000000000                              000                           
0010001300223T 280180230000001544772 29577050086937824   788888888888889912022017000000000007500001000000888888888888899          0900000000000000000000000000000000000000000000000000000   000000000000000000000005002        170192957705     
0010001300224U 280000000000000000000000000000000000000000000000000000000000000000000000000000000000000000000000000000000000000000000000001403201700000000            000000000000000                              000                           
0010001300225T 280180230000001544772 29577050091805810   788888888888889912022017000000000007500001000000888888888888899          0900000000000000000000000000000000000000000000000000000   000000000000000000000005002        170192957705     
0010001300226U 280000000000000000000000000000000000000000000000000000000000000000000000000000000000000000000000000000000000000000000000001403201700000000            000000000000000                              000                           
0010001300227T 280180230000001544772 29577050093623702   788888888888889912022017000000000007500001000000888888888888899          0900000000000000000000000000000000000000000000000000000   000000000000000000000005002        170192957705     
0010001300228U 280000000000000000000000000000000000000000000000000000000000000000000000000000000000000000000000000000000000000000000000001403201700000000            000000000000000                              000                           
0010001300229T 280180230000001544772 29577050105956644   788888888888889912022017000000000007500001000000888888888888899          0900000000000000000000000000000000000000000000000000000   000000000000000000000005002        170192957705     
0010001300230U 280000000000000000000000000000000000000000000000000000000000000000000000000000000000000000000000000000000000000000000000001403201700000000            000000000000000                              000                           
0010001300231T 280180230000001544772 29577050120841994   788888888888889912022017000000000007500001000000888888888888899          0900000000000000000000000000000000000000000000000000000   000000000000000000000005002        170192957705     
0010001300232U 280000000000000000000000000000000000000000000000000000000000000000000000000000000000000000000000000000000000000000000000001403201700000000            000000000000000                              000                           
0010001300233T 280180230000001544772 29577050155832381   788888888888889912022017000000000007500001000000888888888888899          0900000000000000000000000000000000000000000000000000000   000000000000000000000005002        170192957705     
0010001300234U 280000000000000000000000000000000000000000000000000000000000000000000000000000000000000000000000000000000000000000000000001403201700000000            000000000000000                              000                           
0010001300235T 280180230000001544772 29577050165708568   788888888888889913012017000000000007500001000000888888888888899          0900000000000000000000000000000000000000000000000000000   000000000000000000000005002        170192957705     
0010001300236U 280000000000000000000000000000000000000000000000000000000000000000000000000000000000000000000000000000000000000000000000001403201700000000            000000000000000                              000                           
0010001300237T 280180230000001544772 29577050181102606   788888888888889912022017000000000007500001000000888888888888899          0900000000000000000000000000000000000000000000000000000   000000000000000000000005002        170192957705     
0010001300238U 280000000000000000000000000000000000000000000000000000000000000000000000000000000000000000000000000000000000000000000000001403201700000000            000000000000000                              000                           
0010001300239T 280180230000001544772 29577050182334221   788888888888889912022017000000000007500001000000888888888888899          0900000000000000000000000000000000000000000000000000000   000000000000000000000005002        170192957705     
0010001300240U 280000000000000000000000000000000000000000000000000000000000000000000000000000000000000000000000000000000000000000000000001403201700000000            000000000000000                              000                           
0010001300241T 280180230000001544772 29577050194341664   788888888888889912022017000000000007500001000000888888888888899          0900000000000000000000000000000000000000000000000000000   000000000000000000000005002        170192957705     
0010001300242U 280000000000000000000000000000000000000000000000000000000000000000000000000000000000000000000000000000000000000000000000001403201700000000            000000000000000                              000                           
0010001300243T 280180230000001544772 29577050207957969   788888888888889912022017000000000007500001000000888888888888899          0900000000000000000000000000000000000000000000000000000   000000000000000000000005002        170192957705     
0010001300244U 280000000000000000000000000000000000000000000000000000000000000000000000000000000000000000000000000000000000000000000000001403201700000000            000000000000000                              000                           
0010001300245T 280180230000001544772 29577050208455140   788888888888889912022017000000000007500001000000888888888888899          0900000000000000000000000000000000000000000000000000000   000000000000000000000005002        170192957705     
0010001300246U 280000000000000000000000000000000000000000000000000000000000000000000000000000000000000000000000000000000000000000000000001403201700000000            000000000000000                              000                           
0010001300247T 280180230000001544772 29577050210027030   788888888888889913012017000000000007500001000000888888888888899          0900000000000000000000000000000000000000000000000000000   000000000000000000000005002        170192957705     
0010001300248U 280000000000000000000000000000000000000000000000000000000000000000000000000000000000000000000000000000000000000000000000001403201700000000            000000000000000                              000                           
0010001300249T 280180230000001544772 29577050210037485   788888888888889913012017000000000007500001000000888888888888899          0900000000000000000000000000000000000000000000000000000   000000000000000000000005002        170192957705     
0010001300250U 280000000000000000000000000000000000000000000000000000000000000000000000000000000000000000000000000000000000000000000000001403201700000000            000000000000000                              000                           
0010001300251T 280180230000001544772 29577050210111734   788888888888889913012017000000000007500001000000888888888888899          0900000000000000000000000000000000000000000000000000000   000000000000000000000005002        170192957705     
0010001300252U 280000000000000000000000000000000000000000000000000000000000000000000000000000000000000000000000000000000000000000000000001403201700000000            000000000000000                              000                           
0010001300253T 280180230000001544772 29577050210510840   788888888888889913012017000000000007500001000000888888888888899          0900000000000000000000000000000000000000000000000000000   000000000000000000000005002        170192957705     
0010001300254U 280000000000000000000000000000000000000000000000000000000000000000000000000000000000000000000000000000000000000000000000001403201700000000            000000000000000                              000                           
0010001300255T 280180230000001544772 29577050210659054   788888888888889913012017000000000007500001000000888888888888899          0900000000000000000000000000000000000000000000000000000   000000000000000000000005002        170192957705     
0010001300256U 280000000000000000000000000000000000000000000000000000000000000000000000000000000000000000000000000000000000000000000000001403201700000000            000000000000000                              000                           
0010001300257T 280180230000001544772 29577050210812741   788888888888889913012017000000000007500001000000888888888888899          0900000000000000000000000000000000000000000000000000000   000000000000000000000005002        170192957705     
0010001300258U 280000000000000000000000000000000000000000000000000000000000000000000000000000000000000000000000000000000000000000000000001403201700000000            000000000000000                              000                           
0010001300259T 280180230000001544772 29577050210956315   788888888888889913012017000000000007500001000000888888888888899          0900000000000000000000000000000000000000000000000000000   000000000000000000000005002        170192957705     
0010001300260U 280000000000000000000000000000000000000000000000000000000000000000000000000000000000000000000000000000000000000000000000001403201700000000            000000000000000                              000                           
0010001300261T 280180230000001544772 29577050211022268   788888888888889913012017000000000007500001000000888888888888899          0900000000000000000000000000000000000000000000000000000   000000000000000000000005002        170192957705     
0010001300262U 280000000000000000000000000000000000000000000000000000000000000000000000000000000000000000000000000000000000000000000000001403201700000000            000000000000000                              000                           
0010001300263T 280180230000001544772 29577050211137065   788888888888889913012017000000000007500001000000888888888888899          0900000000000000000000000000000000000000000000000000000   000000000000000000000005002        170192957705     
0010001300264U 280000000000000000000000000000000000000000000000000000000000000000000000000000000000000000000000000000000000000000000000001403201700000000            000000000000000                              000                           
0010001300265T 280180230000001544772 29577050211410155   788888888888889913012017000000000007500001000000888888888888899          0900000000000000000000000000000000000000000000000000000   000000000000000000000005002        170192957705     
0010001300266U 280000000000000000000000000000000000000000000000000000000000000000000000000000000000000000000000000000000000000000000000001403201700000000            000000000000000                              000                           
0010001300267T 280180230000001544772 29577050211604513   788888888888889913012017000000000007500001000000888888888888899          0900000000000000000000000000000000000000000000000000000   000000000000000000000005002        170192957705     
0010001300268U 280000000000000000000000000000000000000000000000000000000000000000000000000000000000000000000000000000000000000000000000001403201700000000            000000000000000                              000                           
0010001300269T 280180230000001544772 29577050211733196   788888888888889913012017000000000007500001000000888888888888899          0900000000000000000000000000000000000000000000000000000   000000000000000000000005002        170192957705     
0010001300270U 280000000000000000000000000000000000000000000000000000000000000000000000000000000000000000000000000000000000000000000000001403201700000000            000000000000000                              000                           
0010001300271T 280180230000001544772 29577050211813928   788888888888889913012017000000000007500001000000888888888888899          0900000000000000000000000000000000000000000000000000000   000000000000000000000005002        170192957705     
0010001300272U 280000000000000000000000000000000000000000000000000000000000000000000000000000000000000000000000000000000000000000000000001403201700000000            000000000000000                              000                           
0010001300273T 280180230000001544772 29577050211959342   788888888888889913012017000000000007500001000000888888888888899          0900000000000000000000000000000000000000000000000000000   000000000000000000000005002        170192957705     
0010001300274U 280000000000000000000000000000000000000000000000000000000000000000000000000000000000000000000000000000000000000000000000001403201700000000            000000000000000                              000                           
0010001300275T 280180230000001544772 29577050212019382   788888888888889913012017000000000007500001000000888888888888899          0900000000000000000000000000000000000000000000000000000   000000000000000000000005002        170192957705     
0010001300276U 280000000000000000000000000000000000000000000000000000000000000000000000000000000000000000000000000000000000000000000000001403201700000000            000000000000000                              000                           
0010001300277T 280180230000001544772 29577050212045098   788888888888889913012017000000000007500001000000888888888888899          0900000000000000000000000000000000000000000000000000000   000000000000000000000005002        170192957705     
0010001300278U 280000000000000000000000000000000000000000000000000000000000000000000000000000000000000000000000000000000000000000000000001403201700000000            000000000000000                              000                           
0010001300279T 280180230000001544772 29577050212046527   788888888888889913012017000000000007500001000000888888888888899          0900000000000000000000000000000000000000000000000000000   000000000000000000000005002        170192957705     
0010001300280U 280000000000000000000000000000000000000000000000000000000000000000000000000000000000000000000000000000000000000000000000001403201700000000            000000000000000                              000                           
0010001300281T 280180230000001544772 29577050212047402   788888888888889913012017000000000007500001000000888888888888899          0900000000000000000000000000000000000000000000000000000   000000000000000000000005002        170192957705     
0010001300282U 280000000000000000000000000000000000000000000000000000000000000000000000000000000000000000000000000000000000000000000000001403201700000000            000000000000000                              000                           
0010001300283T 280180230000001544772 29577050212155087   788888888888889913012017000000000007500001000000888888888888899          0900000000000000000000000000000000000000000000000000000   000000000000000000000005002        170192957705     
0010001300284U 280000000000000000000000000000000000000000000000000000000000000000000000000000000000000000000000000000000000000000000000001403201700000000            000000000000000                              000                           
0010001300285T 280180230000001544772 29577050212336449   788888888888889913012017000000000007500001000000888888888888899          0900000000000000000000000000000000000000000000000000000   000000000000000000000005002        170192957705     
0010001300286U 280000000000000000000000000000000000000000000000000000000000000000000000000000000000000000000000000000000000000000000000001403201700000000            000000000000000                              000                           
0010001300287T 280180230000001544772 29577050255417007   788888888888889912022017000000000007500001000000888888888888899          0900000000000000000000000000000000000000000000000000000   000000000000000000000005002        170192957705     
0010001300288U 280000000000000000000000000000000000000000000000000000000000000000000000000000000000000000000000000000000000000000000000001403201700000000            000000000000000                              000                           
0010001300289T 280180230000001544772 29577050256026805   788888888888889912022017000000000007500001000000888888888888899          0900000000000000000000000000000000000000000000000000000   000000000000000000000005002        170192957705     
0010001300290U 280000000000000000000000000000000000000000000000000000000000000000000000000000000000000000000000000000000000000000000000001403201700000000            000000000000000                              000                           
0010001300291T 280180230000001544772 29577050263233969   788888888888889912022017000000000007500001000000888888888888899          0900000000000000000000000000000000000000000000000000000   000000000000000000000005002        170192957705     
0010001300292U 280000000000000000000000000000000000000000000000000000000000000000000000000000000000000000000000000000000000000000000000001403201700000000            000000000000000                              000                           
0010001300293T 280180230000001544772 29577050274735962   788888888888889912022017000000000007500001000000888888888888899          0900000000000000000000000000000000000000000000000000000   000000000000000000000005002        170192957705     
0010001300294U 280000000000000000000000000000000000000000000000000000000000000000000000000000000000000000000000000000000000000000000000001403201700000000            000000000000000                              000                           
0010001300295T 280180230000001544772 29577050308441928   788888888888889912022017000000000007500001000000888888888888899          0900000000000000000000000000000000000000000000000000000   000000000000000000000005002        170192957705     
0010001300296U 280000000000000000000000000000000000000000000000000000000000000000000000000000000000000000000000000000000000000000000000001403201700000000            000000000000000                              000                           
0010001300297T 280180230000001544772 29577050321440006   788888888888889912022017000000000007500001000000888888888888899          0900000000000000000000000000000000000000000000000000000   000000000000000000000005002        170192957705     
0010001300298U 280000000000000000000000000000000000000000000000000000000000000000000000000000000000000000000000000000000000000000000000001403201700000000            000000000000000                              000                           
0010001300299T 280180230000001544772 29577050344704676   788888888888889912022017000000000007500001000000888888888888899          0900000000000000000000000000000000000000000000000000000   000000000000000000000005002        170192957705     
0010001300300U 280000000000000000000000000000000000000000000000000000000000000000000000000000000000000000000000000000000000000000000000001403201700000000            000000000000000                              000                           
0010001300301T 280180230000001544772 29577050351653623   788888888888889912022017000000000007500001000000888888888888899          0900000000000000000000000000000000000000000000000000000   000000000000000000000005002        170192957705     
0010001300302U 280000000000000000000000000000000000000000000000000000000000000000000000000000000000000000000000000000000000000000000000001403201700000000            000000000000000                              000                           
0010001300303T 280180230000001544772 29577050353405999   788888888888889912022017000000000007500001000000888888888888899          0900000000000000000000000000000000000000000000000000000   000000000000000000000005002        170192957705     
0010001300304U 280000000000000000000000000000000000000000000000000000000000000000000000000000000000000000000000000000000000000000000000001403201700000000            000000000000000                              000                           
0010001300305T 280180230000001544772 29577050353437699   788888888888889912022017000000000007500001000000888888888888899          0900000000000000000000000000000000000000000000000000000   000000000000000000000005002        170192957705     
0010001300306U 280000000000000000000000000000000000000000000000000000000000000000000000000000000000000000000000000000000000000000000000001403201700000000            000000000000000                              000                           
0010001300307T 280180230000001544772 29577050353503541   788888888888889912022017000000000007500001000000888888888888899          0900000000000000000000000000000000000000000000000000000   000000000000000000000005002        170192957705     
0010001300308U 280000000000000000000000000000000000000000000000000000000000000000000000000000000000000000000000000000000000000000000000001403201700000000            000000000000000                              000                           
0010001300309T 280180230000001544772 29577050353806139   788888888888889912022017000000000010000001000000888888888888899          0900000000000000000000000000000000000000000000000000000   000000000000000000000005002        170192957705     
0010001300310U 280000000000000000000000000000000000000000000000000000000000000000000000000000000000000000000000000000000000000000000000001403201700000000            000000000000000                              000                           
0010001300311T 280180230000001544772 29577050355140901   788888888888889912022017000000000007500001000000888888888888899          0900000000000000000000000000000000000000000000000000000   000000000000000000000005002        170192957705     
0010001300312U 280000000000000000000000000000000000000000000000000000000000000000000000000000000000000000000000000000000000000000000000001403201700000000            000000000000000                              000                           
0010001300313T 280180230000001544772 29577050355345141   788888888888889912022017000000000007500001000000888888888888899          0900000000000000000000000000000000000000000000000000000   000000000000000000000005002        170192957705     
0010001300314U 280000000000000000000000000000000000000000000000000000000000000000000000000000000000000000000000000000000000000000000000001403201700000000            000000000000000                              000                           
0010001300315T 280180230000001544772 29577050366045800   788888888888889912022017000000000010000001000000888888888888899          0900000000000000000000000000000000000000000000000000000   000000000000000000000005002        170192957705     
0010001300316U 280000000000000000000000000000000000000000000000000000000000000000000000000000000000000000000000000000000000000000000000001403201700000000            000000000000000                              000                           
0010001300317T 280180230000001544772 29577050376309566   788888888888889912022017000000000007500001000000888888888888899          0900000000000000000000000000000000000000000000000000000   000000000000000000000005002        170192957705     
0010001300318U 280000000000000000000000000000000000000000000000000000000000000000000000000000000000000000000000000000000000000000000000001403201700000000            000000000000000                              000                           
0010001300319T 280180230000001544772 29577050376331719   788888888888889912022017000000000007500001000000888888888888899          0900000000000000000000000000000000000000000000000000000   000000000000000000000005002        170192957705     
0010001300320U 280000000000000000000000000000000000000000000000000000000000000000000000000000000000000000000000000000000000000000000000001403201700000000            000000000000000                              000                           
0010001300321T 280180230000001544772 29577050411731987   788888888888889912022017000000000007500001000000888888888888899          0900000000000000000000000000000000000000000000000000000   000000000000000000000005002        170192957705     
0010001300322U 280000000000000000000000000000000000000000000000000000000000000000000000000000000000000000000000000000000000000000000000001403201700000000            000000000000000                              000                           
0010001300323T 280180230000001544772 29577050432252850   788888888888889912022017000000000007500001000000888888888888899          0900000000000000000000000000000000000000000000000000000   000000000000000000000005002        170192957705     
0010001300324U 280000000000000000000000000000000000000000000000000000000000000000000000000000000000000000000000000000000000000000000000001403201700000000            000000000000000                              000                           
0010001300325T 280180230000001544772 29577050433702094   788888888888889912022017000000000007500001000000888888888888899          0900000000000000000000000000000000000000000000000000000   000000000000000000000005002        170192957705     
0010001300326U 280000000000000000000000000000000000000000000000000000000000000000000000000000000000000000000000000000000000000000000000001403201700000000            000000000000000                              000                           
0010001300327T 280180230000001544772 29577050449510096   788888888888889912022017000000000007500001000000888888888888899          0900000000000000000000000000000000000000000000000000000   000000000000000000000005002        170192957705     
0010001300328U 280000000000000000000000000000000000000000000000000000000000000000000000000000000000000000000000000000000000000000000000001403201700000000            000000000000000                              000                           
0010001300329T 280180230000001544772 29577050452424880   788888888888889912022017000000000007500001000000888888888888899          0900000000000000000000000000000000000000000000000000000   000000000000000000000005002        170192957705     
0010001300330U 280000000000000000000000000000000000000000000000000000000000000000000000000000000000000000000000000000000000000000000000001403201700000000            000000000000000                              000                           
0010001300331T 280180230000001544772 29577050458332625   788888888888889912022017000000000007500001000000888888888888899          0900000000000000000000000000000000000000000000000000000   000000000000000000000005002        170192957705     
0010001300332U 280000000000000000000000000000000000000000000000000000000000000000000000000000000000000000000000000000000000000000000000001403201700000000            000000000000000                              000                           
0010001300333T 280180230000001544772 29577050458613896   788888888888889912022017000000000007500001000000888888888888899          0900000000000000000000000000000000000000000000000000000   000000000000000000000005002        170192957705     
0010001300334U 280000000000000000000000000000000000000000000000000000000000000000000000000000000000000000000000000000000000000000000000001403201700000000            000000000000000                              000                           
0010001300335T 280180230000001544772 29577050469832389   788888888888889912022017000000000007500001000000888888888888899          0900000000000000000000000000000000000000000000000000000   000000000000000000000005002        170192957705     
0010001300336U 280000000000000000000000000000000000000000000000000000000000000000000000000000000000000000000000000000000000000000000000001403201700000000            000000000000000                              000                           
0010001300337T 280180230000001544772 29577050473225150   788888888888889912022017000000000007500001000000888888888888899          0900000000000000000000000000000000000000000000000000000   000000000000000000000005002        170192957705     
0010001300338U 280000000000000000000000000000000000000000000000000000000000000000000000000000000000000000000000000000000000000000000000001403201700000000            000000000000000                              000                           
0010001300339T 280180230000001544772 29577050473324503   788888888888889912022017000000000007500001000000888888888888899          0900000000000000000000000000000000000000000000000000000   000000000000000000000005002        170192957705     
0010001300340U 280000000000000000000000000000000000000000000000000000000000000000000000000000000000000000000000000000000000000000000000001403201700000000            000000000000000                              000                           
0010001300341T 280180230000001544772 29577050473521081   788888888888889912022017000000000007500001000000888888888888899          0900000000000000000000000000000000000000000000000000000   000000000000000000000005002        170192957705     
0010001300342U 280000000000000000000000000000000000000000000000000000000000000000000000000000000000000000000000000000000000000000000000001403201700000000            000000000000000                              000                           
0010001300343T 280180230000001544772 29577050473630738   788888888888889912022017000000000007500001000000888888888888899          0900000000000000000000000000000000000000000000000000000   000000000000000000000005002        170192957705     
0010001300344U 280000000000000000000000000000000000000000000000000000000000000000000000000000000000000000000000000000000000000000000000001403201700000000            000000000000000                              000                           
0010001300345T 280180230000001544772 29577050473929044   788888888888889912022017000000000007500001000000888888888888899          0900000000000000000000000000000000000000000000000000000   000000000000000000000005002        170192957705     
0010001300346U 280000000000000000000000000000000000000000000000000000000000000000000000000000000000000000000000000000000000000000000000001403201700000000            000000000000000                              000                           
0010001300347T 280180230000001544772 29577050474027706   788888888888889912022017000000000007500001000000888888888888899          0900000000000000000000000000000000000000000000000000000   000000000000000000000005002        170192957705     
0010001300348U 280000000000000000000000000000000000000000000000000000000000000000000000000000000000000000000000000000000000000000000000001403201700000000            000000000000000                              000                           
0010001300349T 280180230000001544772 29577050474113708   788888888888889912022017000000000007500001000000888888888888899          0900000000000000000000000000000000000000000000000000000   000000000000000000000005002        170192957705     
0010001300350U 280000000000000000000000000000000000000000000000000000000000000000000000000000000000000000000000000000000000000000000000001403201700000000            000000000000000                              000                           
0010001300351T 280180230000001544772 29577050474354772   788888888888889912022017000000000007500001000000888888888888899          0900000000000000000000000000000000000000000000000000000   000000000000000000000005002        170192957705     
0010001300352U 280000000000000000000000000000000000000000000000000000000000000000000000000000000000000000000000000000000000000000000000001403201700000000            000000000000000                              000                           
0010001300353T 280180230000001544772 29577050474545710   788888888888889912022017000000000007500001000000888888888888899          0900000000000000000000000000000000000000000000000000000   000000000000000000000005002        170192957705     
0010001300354U 280000000000000000000000000000000000000000000000000000000000000000000000000000000000000000000000000000000000000000000000001403201700000000            000000000000000                              000                           
0010001300355T 280180230000001544772 29577050474616567   788888888888889912022017000000000007500001000000888888888888899          0900000000000000000000000000000000000000000000000000000   000000000000000000000005002        170192957705     
0010001300356U 280000000000000000000000000000000000000000000000000000000000000000000000000000000000000000000000000000000000000000000000001403201700000000            000000000000000                              000                           
0010001300357T 280180230000001544772 29577050474823178   788888888888889912022017000000000007500001000000888888888888899          0900000000000000000000000000000000000000000000000000000   000000000000000000000005002        170192957705     
0010001300358U 280000000000000000000000000000000000000000000000000000000000000000000000000000000000000000000000000000000000000000000000001403201700000000            000000000000000                              000                           
0010001300359T 280180230000001544772 29577050475008237   788888888888889912022017000000000007500001000000888888888888899          0900000000000000000000000000000000000000000000000000000   000000000000000000000005002        170192957705     
0010001300360U 280000000000000000000000000000000000000000000000000000000000000000000000000000000000000000000000000000000000000000000000001403201700000000            000000000000000                              000                           
0010001300361T 280180230000001544772 29577050475106080   788888888888889912022017000000000007500001000000888888888888899          0900000000000000000000000000000000000000000000000000000   000000000000000000000005002        170192957705     
0010001300362U 280000000000000000000000000000000000000000000000000000000000000000000000000000000000000000000000000000000000000000000000001403201700000000            000000000000000                              000                           
0010001300363T 280180230000001544772 29577050475240495   788888888888889912022017000000000010000001000000888888888888899          0900000000000000000000000000000000000000000000000000000   000000000000000000000005002        170192957705     
0010001300364U 280000000000000000000000000000000000000000000000000000000000000000000000000000000000000000000000000000000000000000000000001403201700000000            000000000000000                              000                           
0010001300365T 280180230000001544772 29577050475314626   788888888888889912022017000000000007500001000000888888888888899          0900000000000000000000000000000000000000000000000000000   000000000000000000000005002        170192957705     
0010001300366U 280000000000000000000000000000000000000000000000000000000000000000000000000000000000000000000000000000000000000000000000001403201700000000            000000000000000                              000                           
0010001300367T 280180230000001544772 29577050475416961   788888888888889912022017000000000007500001000000888888888888899          0900000000000000000000000000000000000000000000000000000   000000000000000000000005002        170192957705     
0010001300368U 280000000000000000000000000000000000000000000000000000000000000000000000000000000000000000000000000000000000000000000000001403201700000000            000000000000000                              000                           
0010001300369T 280180230000001544772 29577050475505726   788888888888889912022017000000000007500001000000888888888888899          0900000000000000000000000000000000000000000000000000000   000000000000000000000005002        170192957705     
0010001300370U 280000000000000000000000000000000000000000000000000000000000000000000000000000000000000000000000000000000000000000000000001403201700000000            000000000000000                              000                           
0010001300371T 280180230000001544772 29577050475707837   788888888888889912022017000000000007500001000000888888888888899          0900000000000000000000000000000000000000000000000000000   000000000000000000000005002        170192957705     
0010001300372U 280000000000000000000000000000000000000000000000000000000000000000000000000000000000000000000000000000000000000000000000001403201700000000            000000000000000                              000                           
0010001300373T 280180230000001544772 29577050475855535   788888888888889912022017000000000007500001000000888888888888899          0900000000000000000000000000000000000000000000000000000   000000000000000000000005002        170192957705     
0010001300374U 280000000000000000000000000000000000000000000000000000000000000000000000000000000000000000000000000000000000000000000000001403201700000000            000000000000000                              000                           
0010001300375T 280180230000001544772 29577050475922505   788888888888889912022017000000000007500001000000888888888888899          0900000000000000000000000000000000000000000000000000000   000000000000000000000005002        170192957705     
0010001300376U 280000000000000000000000000000000000000000000000000000000000000000000000000000000000000000000000000000000000000000000000001403201700000000            000000000000000                              000                           
0010001300377T 280180230000001544772 29577050476030322   788888888888889912022017000000000007500001000000888888888888899          0900000000000000000000000000000000000000000000000000000   000000000000000000000005002        170192957705     
0010001300378U 280000000000000000000000000000000000000000000000000000000000000000000000000000000000000000000000000000000000000000000000001403201700000000            000000000000000                              000                           
0010001300379T 280180230000001544772 29577050476034442   788888888888889912022017000000000007500001000000888888888888899          0900000000000000000000000000000000000000000000000000000   000000000000000000000005002        170192957705     
0010001300380U 280000000000000000000000000000000000000000000000000000000000000000000000000000000000000000000000000000000000000000000000001403201700000000            000000000000000                              000                           
0010001300381T 280180230000001544772 29577050476102616   788888888888889912022017000000000007500001000000888888888888899          0900000000000000000000000000000000000000000000000000000   000000000000000000000005002        170192957705     
0010001300382U 280000000000000000000000000000000000000000000000000000000000000000000000000000000000000000000000000000000000000000000000001403201700000000            000000000000000                              000                           
0010001300383T 280180230000001544772 29577050476318448   788888888888889912022017000000000007500001000000888888888888899          0900000000000000000000000000000000000000000000000000000   000000000000000000000005002        170192957705     
0010001300384U 280000000000000000000000000000000000000000000000000000000000000000000000000000000000000000000000000000000000000000000000001403201700000000            000000000000000                              000                           
0010001300385T 280180230000001544772 29577050476339904   788888888888889912022017000000000007500001000000888888888888899          0900000000000000000000000000000000000000000000000000000   000000000000000000000005002        170192957705     
0010001300386U 280000000000000000000000000000000000000000000000000000000000000000000000000000000000000000000000000000000000000000000000001403201700000000            000000000000000                              000                           
0010001300387T 280180230000001544772 29577050476558223   788888888888889912022017000000000007500001000000888888888888899          0900000000000000000000000000000000000000000000000000000   000000000000000000000005002        170192957705     
0010001300388U 280000000000000000000000000000000000000000000000000000000000000000000000000000000000000000000000000000000000000000000000001403201700000000            000000000000000                              000                           
0010001300389T 280180230000001544772 29577050476653506   788888888888889912022017000000000007500001000000888888888888899          0900000000000000000000000000000000000000000000000000000   000000000000000000000005002        170192957705     
0010001300390U 280000000000000000000000000000000000000000000000000000000000000000000000000000000000000000000000000000000000000000000000001403201700000000            000000000000000                              000                           
0010001300391T 280180230000001544772 29577050476706741   788888888888889912022017000000000007500001000000888888888888899          0900000000000000000000000000000000000000000000000000000   000000000000000000000005002        170192957705     
0010001300392U 280000000000000000000000000000000000000000000000000000000000000000000000000000000000000000000000000000000000000000000000001403201700000000            000000000000000                              000                           
0010001300393T 280180230000001544772 29577050476841145   788888888888889912022017000000000007500001000000888888888888899          0900000000000000000000000000000000000000000000000000000   000000000000000000000005002        170192957705     
0010001300394U 280000000000000000000000000000000000000000000000000000000000000000000000000000000000000000000000000000000000000000000000001403201700000000            000000000000000                              000                           
0010001300395T 280180230000001544772 29577050476925000   788888888888889912022017000000000007500001000000888888888888899          0900000000000000000000000000000000000000000000000000000   000000000000000000000005002        170192957705     
0010001300396U 280000000000000000000000000000000000000000000000000000000000000000000000000000000000000000000000000000000000000000000000001403201700000000            000000000000000                              000                           
0010001300397T 280180230000001544772 29577050477046452   788888888888889912022017000000000007500001000000888888888888899          0900000000000000000000000000000000000000000000000000000   000000000000000000000005002        170192957705     
0010001300398U 280000000000000000000000000000000000000000000000000000000000000000000000000000000000000000000000000000000000000000000000001403201700000000            000000000000000                              000                           
0010001300399T 280180230000001544772 29577050477120362   788888888888889912022017000000000007500001000000888888888888899          0900000000000000000000000000000000000000000000000000000   000000000000000000000005002        170192957705     
0010001300400U 280000000000000000000000000000000000000000000000000000000000000000000000000000000000000000000000000000000000000000000000001403201700000000            000000000000000                              000                           
0010001300401T 280180230000001544772 29577050477223359   788888888888889912022017000000000007500001000000888888888888899          0900000000000000000000000000000000000000000000000000000   000000000000000000000005002        170192957705     
0010001300402U 280000000000000000000000000000000000000000000000000000000000000000000000000000000000000000000000000000000000000000000000001403201700000000            000000000000000                              000                           
0010001300403T 280180230000001544772 29577050477407843   788888888888889912022017000000000007500001000000888888888888899          0900000000000000000000000000000000000000000000000000000   000000000000000000000005002        170192957705     
0010001300404U 280000000000000000000000000000000000000000000000000000000000000000000000000000000000000000000000000000000000000000000000001403201700000000            000000000000000                              000                           
0010001300405T 280180230000001544772 29577050477648912   788888888888889912022017000000000007500001000000888888888888899          0900000000000000000000000000000000000000000000000000000   000000000000000000000005002        170192957705     
0010001300406U 280000000000000000000000000000000000000000000000000000000000000000000000000000000000000000000000000000000000000000000000001403201700000000            000000000000000                              000                           
0010001300407T 280180230000001544772 29577050477842369   788888888888889912022017000000000010000001000000888888888888899          0900000000000000000000000000000000000000000000000000000   000000000000000000000005002        170192957705     
0010001300408U 280000000000000000000000000000000000000000000000000000000000000000000000000000000000000000000000000000000000000000000000001403201700000000            000000000000000                              000                           
0010001300409T 280180230000001544772 29577050477954709   788888888888889912022017000000000007500001000000888888888888899          0900000000000000000000000000000000000000000000000000000   000000000000000000000005002        170192957705     
0010001300410U 280000000000000000000000000000000000000000000000000000000000000000000000000000000000000000000000000000000000000000000000001403201700000000            000000000000000                              000                           
0010001300411T 280180230000001544772 29577050478208980   788888888888889912022017000000000007500001000000888888888888899          0900000000000000000000000000000000000000000000000000000   000000000000000000000005002        170192957705     
0010001300412U 280000000000000000000000000000000000000000000000000000000000000000000000000000000000000000000000000000000000000000000000001403201700000000            000000000000000                              000                           
