00100000         2247745860001000029577050014       0180230000001544772 INSTITUTO DE SELECAO E TECNOLOBANCO DO BRASIL                         21603201701284600013403000000515122941PROCESSAMEN                                                 
00100011T0100020 20247745860001000029577050014       0180230000001544772 INSTITUTO DE SELECAO E TECNOLO                                                                                000000001603201700000000  000000000                      
0010001300001T 020180230000001544772 29577050168856540   7               18032017000000000007500001000213                         0900000000000010000000000000000000000000000000000000000   0000000000000000000000000A9        170192957705     
0010001300002U 020000000000000000000000000000000000000000000000000000000000000000000000000000000000000000000000000000000000000000000000001603201700000000            000000000000000                              000                           
0010001300003T 020180230000001544772 29577050195747188   7               18032017000000000007500001012416                         0900000000000010000000000000000000000000000000000000000   0000000000000000000000000A9        170192957705     
0010001300004U 020000000000000000000000000000000000000000000000000000000000000000000000000000000000000000000000000000000000000000000000001603201700000000            000000000000000                              000                           
0010001300005T 020180230000001544772 29577050208340732   7               18032017000000000007500001000213                         0900000000000010000000000000000000000000000000000000000   0000000000000000000000000A9        170192957705     
0010001300006U 020000000000000000000000000000000000000000000000000000000000000000000000000000000000000000000000000000000000000000000000001603201700000000            000000000000000                              000                           
0010001300007T 020180230000001544772 29577050210927713   7               18032017000000000007500001004782                         0900000000000010000000000000000000000000000000000000000   0000000000000000000000000A9        170192957705     
0010001300008U 020000000000000000000000000000000000000000000000000000000000000000000000000000000000000000000000000000000000000000000000001603201700000000            000000000000000                              000                           
0010001300009T 020180230000001544772 29577050260441316   7               18032017000000000007500001012408                         0900000000000010000000000000000000000000000000000000000   0000000000000000000000000A9        170192957705     
0010001300010U 020000000000000000000000000000000000000000000000000000000000000000000000000000000000000000000000000000000000000000000000001603201700000000            000000000000000                              000                           
0010001300011T 020180230000001544772 29577050276453660   7               18032017000000000007500001045578                         0900000000000010000000000000000000000000000000000000000   0000000000000000000000000A9        170192957705     
0010001300012U 020000000000000000000000000000000000000000000000000000000000000000000000000000000000000000000000000000000000000000000000001603201700000000            000000000000000                              000                           
0010001300013T 020180230000001544772 29577050278304298   7               18032017000000000007500001012408                         0900000000000010000000000000000000000000000000000000000   0000000000000000000000000A9        170192957705     
0010001300014U 020000000000000000000000000000000000000000000000000000000000000000000000000000000000000000000000000000000000000000000000001603201700000000            000000000000000                              000                           
0010001300015T 020180230000001544772 29577050281339823   7               18032017000000000010000001012408                         0900000000000010000000000000000000000000000000000000000   0000000000000000000000000A9        170192957705     
0010001300016U 020000000000000000000000000000000000000000000000000000000000000000000000000000000000000000000000000000000000000000000000001603201700000000            000000000000000                              000                           
0010001300017T 020180230000001544772 29577050304606107   7               18032017000000000007500001004782                         0900000000000010000000000000000000000000000000000000000   0000000000000000000000000A9        170192957705     
0010001300018U 020000000000000000000000000000000000000000000000000000000000000000000000000000000000000000000000000000000000000000000000001603201700000000            000000000000000                              000                           
0010001300019T 020180230000001544772 29577050322303221   7               18032017000000000007500001012408                         0900000000000010500000000000000000000000000000000000000   0000000000000000000000000A9A4      170192957705     
0010001300020U 020000000000000000000000000000000000000000000000000000000000000000000000000000000000000000000000000000000000000000000000001603201700000000            000000000000000                              000                           
0010001300021T 020180230000001544772 29577050325448262   7               18032017000000000007500001046280                         0900000000000010000000000000000000000000000000000000000   0000000000000000000000000A9        170192957705     
0010001300022U 020000000000000000000000000000000000000000000000000000000000000000000000000000000000000000000000000000000000000000000000001603201700000000            000000000000000                              000                           
0010001300023T 020180230000001544772 29577050431953580   7               18032017000000000007500001012416                         0900000000000010000000000000000000000000000000000000000   0000000000000000000000000A9        170192957705     
0010001300024U 020000000000000000000000000000000000000000000000000000000000000000000000000000000000000000000000000000000000000000000000001603201700000000            000000000000000                              000                           
0010001300025T 020180230000001544772 29577050481205856   7               18032017000000000007500001012408                         0900000000000010000000000000000000000000000000000000000   0000000000000000000000000A9        170192957705     
0010001300026U 020000000000000000000000000000000000000000000000000000000000000000000000000000000000000000000000000000000000000000000000001603201700000000            000000000000000                              000                           
0010001300027T 020180230000001544772 29577050723406069   7               18032017000000000007500001002224                         0900000000000010000000000000000000000000000000000000000   0000000000000000000000000A9        170192957705     
0010001300028U 020000000000000000000000000000000000000000000000000000000000000000000000000000000000000000000000000000000000000000000000001603201700000000            000000000000000                              000                           
0010001300029T 020180230000001544772 29577050885210168   7               1803201700000000000750000103049X                         0900000000000010000000000000000000000000000000000000000   0000000000000000000000000A9        170192957705     
0010001300030U 020000000000000000000000000000000000000000000000000000000000000000000000000000000000000000000000000000000000000000000000001603201700000000            000000000000000                              000                           
0010001300031T 020180230000001544772 29577051152739451   7               18032017000000000007500001012408                         0900000000000010000000000000000000000000000000000000000   0000000000000000000000000A9        170192957705     
0010001300032U 020000000000000000000000000000000000000000000000000000000000000000000000000000000000000000000000000000000000000000000000001603201700000000            000000000000000                              000                           
0010001300033T 020180230000001544772 29577051204824923   7               1803201700000000000750000103049X                         0900000000000010000000000000000000000000000000000000000   0000000000000000000000000A9        170192957705     
0010001300034U 020000000000000000000000000000000000000000000000000000000000000000000000000000000000000000000000000000000000000000000000001603201700000000            000000000000000                              000                           
0010001300035T 020180230000001544772 29577051229306569   7               18032017000000000007500001000213                         0900000000000010500000000000000000000000000000000000000   0000000000000000000000000A9A4      170192957705     
0010001300036U 020000000000000000000000000000000000000000000000000000000000000000000000000000000000000000000000000000000000000000000000001603201700000000            000000000000000                              000                           
0010001300037T 020180230000001544772 29577051229525898   7               18032017000000000007500001000213                         0900000000000010500000000000000000000000000000000000000   0000000000000000000000000A9A4      170192957705     
0010001300038U 020000000000000000000000000000000000000000000000000000000000000000000000000000000000000000000000000000000000000000000000001603201700000000            000000000000000                              000                           
0010001300039T 020180230000001544772 29577051229547840   7               18032017000000000007500001000213                         0900000000000010500000000000000000000000000000000000000   0000000000000000000000000A9A4      170192957705     
0010001300040U 020000000000000000000000000000000000000000000000000000000000000000000000000000000000000000000000000000000000000000000000001603201700000000            000000000000000                              000                           
0010001300041T 020180230000001544772 29577051236534335   7               18032017000000000007500001000213                         0900000000000010000000000000000000000000000000000000000   0000000000000000000000000A9        170192957705     
0010001300042U 020000000000000000000000000000000000000000000000000000000000000000000000000000000000000000000000000000000000000000000000001603201700000000            000000000000000                              000                           
0010001300043T 020180230000001544772 29577051255543275   7               18032017000000000007500001004782                         0900000000000010000000000000000000000000000000000000000   0000000000000000000000000A9        170192957705     
0010001300044U 020000000000000000000000000000000000000000000000000000000000000000000000000000000000000000000000000000000000000000000000001603201700000000            000000000000000                              000                           
0010001300045T 020180230000001544772 29577051260547726   7               18032017000000000007500001004782                         0900000000000010000000000000000000000000000000000000000   0000000000000000000000000A9        170192957705     
0010001300046U 020000000000000000000000000000000000000000000000000000000000000000000000000000000000000000000000000000000000000000000000001603201700000000            000000000000000                              000                           
0010001300047T 020180230000001544772 29577051267640057   7               18032017000000000007500001021121                         0900000000000010000000000000000000000000000000000000000   0000000000000000000000000A9        170192957705     
0010001300048U 020000000000000000000000000000000000000000000000000000000000000000000000000000000000000000000000000000000000000000000000001603201700000000            000000000000000                              000                           
0010001300049T 020180230000001544772 29577051306019330   7               18032017000000000007500001000213                         0900000000000010000000000000000000000000000000000000000   0000000000000000000000000A9        170192957705     
0010001300050U 020000000000000000000000000000000000000000000000000000000000000000000000000000000000000000000000000000000000000000000000001603201700000000            000000000000000                              000                           
0010001300051T 020180230000001544772 29577051306035538   7               18032017000000000007500001000213                         0900000000000010000000000000000000000000000000000000000   0000000000000000000000000A9        170192957705     
0010001300052U 020000000000000000000000000000000000000000000000000000000000000000000000000000000000000000000000000000000000000000000000001603201700000000            000000000000000                              000                           
0010001300053T 020180230000001544772 29577051308714189   7               1703201700000000000750000103049X                         0900000000000010000000000000000000000000000000000000000   0000000000000000000000000A9        170192957705     
0010001300054U 020000000000000000000000000000000000000000000000000000000000000000000000000000000000000000000000000000000000000000000000001503201700000000            000000000000000                              000                           
0010001300055T 020180230000001544772 29577051308722306   7               1803201700000000000750000103049X                         0900000000000010000000000000000000000000000000000000000   0000000000000000000000000A9        170192957705     
0010001300056U 020000000000000000000000000000000000000000000000000000000000000000000000000000000000000000000000000000000000000000000000001603201700000000            000000000000000                              000                           
0010001300057T 020180230000001544772 29577051311024610   7               18032017000000000007500001000213                         0900000000000010000000000000000000000000000000000000000   0000000000000000000000000A9        170192957705     
0010001300058U 020000000000000000000000000000000000000000000000000000000000000000000000000000000000000000000000000000000000000000000000001603201700000000            000000000000000                              000                           
0010001300059T 020180230000001544772 29577051311701265   7               18032017000000000007500001004286                         0900000000000010000000000000000000000000000000000000000   0000000000000000000000000A9        170192957705     
0010001300060U 020000000000000000000000000000000000000000000000000000000000000000000000000000000000000000000000000000000000000000000000001603201700000000            000000000000000                              000                           
0010001300061T 020180230000001544772 29577051312608859   7               18032017000000000007500001000833                         0900000000000010000000000000000000000000000000000000000   0000000000000000000000000A9        170192957705     
0010001300062U 020000000000000000000000000000000000000000000000000000000000000000000000000000000000000000000000000000000000000000000000001603201700000000            000000000000000                              000                           
0010001300063T 020180230000001544772 29577051312726024   7               1803201700000000000750000103049X                         0900000000000010000000000000000000000000000000000000000   0000000000000000000000000A9        170192957705     
0010001300064U 020000000000000000000000000000000000000000000000000000000000000000000000000000000000000000000000000000000000000000000000001603201700000000            000000000000000                              000                           
0010001300065T 020180230000001544772 29577051313007514   7               18032017000000000007500001012408                         0900000000000010000000000000000000000000000000000000000   0000000000000000000000000A9        170192957705     
0010001300066U 020000000000000000000000000000000000000000000000000000000000000000000000000000000000000000000000000000000000000000000000001603201700000000            000000000000000                              000                           
0010001300067T 020180230000001544772 29577051313942186   7               1803201700000000000750000103049X                         0900000000000010000000000000000000000000000000000000000   0000000000000000000000000A9        170192957705     
0010001300068U 020000000000000000000000000000000000000000000000000000000000000000000000000000000000000000000000000000000000000000000000001603201700000000            000000000000000                              000                           
0010001300069T 020180230000001544772 29577051314821491   7               18032017000000000007500001012416                         0900000000000010000000000000000000000000000000000000000   0000000000000000000000000A9        170192957705     
0010001300070U 020000000000000000000000000000000000000000000000000000000000000000000000000000000000000000000000000000000000000000000000001603201700000000            000000000000000                              000                           
0010001300071T 020180230000001544772 29577051315051679   7               18032017000000000007500001012408                         0900000000000010000000000000000000000000000000000000000   0000000000000000000000000A9        170192957705     
0010001300072U 020000000000000000000000000000000000000000000000000000000000000000000000000000000000000000000000000000000000000000000000001603201700000000            000000000000000                              000                           
0010001300073T 020180230000001544772 29577051316416107   7               18032017000000000007500001000213                         0900000000000010000000000000000000000000000000000000000   0000000000000000000000000A9        170192957705     
0010001300074U 020000000000000000000000000000000000000000000000000000000000000000000000000000000000000000000000000000000000000000000000001603201700000000            000000000000000                              000                           
0010001300075T 020180230000001544772 29577051317317007   7               18032017000000000010000001028029                         0900000000000010000000000000000000000000000000000000000   0000000000000000000000000A9        170192957705     
0010001300076U 020000000000000000000000000000000000000000000000000000000000000000000000000000000000000000000000000000000000000000000000001603201700000000            000000000000000                              000                           
0010001300077T 020180230000001544772 29577051320659304   7               18032017000000000007500001012416                         0900000000000010500000000000000000000000000000000000000   0000000000000000000000000A9A4      170192957705     
0010001300078U 020000000000000000000000000000000000000000000000000000000000000000000000000000000000000000000000000000000000000000000000001603201700000000            000000000000000                              000                           
0010001300079T 020180230000001544772 29577051321158830   7               18032017000000000007500001012408                         0900000000000010000000000000000000000000000000000000000   0000000000000000000000000A9        170192957705     
0010001300080U 020000000000000000000000000000000000000000000000000000000000000000000000000000000000000000000000000000000000000000000000001603201700000000            000000000000000                              000                           
0010001300081T 020180230000001544772 29577051322211495   7               1803201700000000000750000103049X                         0900000000000010000000000000000000000000000000000000000   0000000000000000000000000A9        170192957705     
0010001300082U 020000000000000000000000000000000000000000000000000000000000000000000000000000000000000000000000000000000000000000000000001603201700000000            000000000000000                              000                           
0010001300083T 020180230000001544772 29577051322355941   7               18032017000000000007500001012408                         0900000000000010000000000000000000000000000000000000000   0000000000000000000000000A9        170192957705     
0010001300084U 020000000000000000000000000000000000000000000000000000000000000000000000000000000000000000000000000000000000000000000000001603201700000000            000000000000000                              000                           
0010001300085T 020180230000001544772 29577051322736205   7               18032017000000000007500001004782                         0900000000000010000000000000000000000000000000000000000   0000000000000000000000000A9        170192957705     
0010001300086U 020000000000000000000000000000000000000000000000000000000000000000000000000000000000000000000000000000000000000000000000001603201700000000            000000000000000                              000                           
0010001300087T 020180230000001544772 29577051322924607   7               18032017000000000007500001012416                         0900000000000010000000000000000000000000000000000000000   0000000000000000000000000A9        170192957705     
0010001300088U 020000000000000000000000000000000000000000000000000000000000000000000000000000000000000000000000000000000000000000000000001603201700000000            000000000000000                              000                           
0010001300089T 020180230000001544772 29577051322929265   7               18032017000000000007500001012416                         0900000000000010000000000000000000000000000000000000000   0000000000000000000000000A9        170192957705     
0010001300090U 020000000000000000000000000000000000000000000000000000000000000000000000000000000000000000000000000000000000000000000000001603201700000000            000000000000000                              000                           
0010001300091T 020180230000001544772 29577051322942350   7               18032017000000000007500001012416                         0900000000000010000000000000000000000000000000000000000   0000000000000000000000000A9        170192957705     
0010001300092U 020000000000000000000000000000000000000000000000000000000000000000000000000000000000000000000000000000000000000000000000001603201700000000            000000000000000                              000                           
0010001300093T 020180230000001544772 29577051322952680   7               18032017000000000007500001012416                         0900000000000010000000000000000000000000000000000000000   0000000000000000000000000A9        170192957705     
0010001300094U 020000000000000000000000000000000000000000000000000000000000000000000000000000000000000000000000000000000000000000000000001603201700000000            000000000000000                              000                           
0010001300095T 020180230000001544772 29577051323323258   7               18032017000000000007500001012408                         0900000000000010000000000000000000000000000000000000000   0000000000000000000000000A9        170192957705     
0010001300096U 020000000000000000000000000000000000000000000000000000000000000000000000000000000000000000000000000000000000000000000000001603201700000000            000000000000000                              000                           
0010001300097T 020180230000001544772 29577051323413085   7               18032017000000000007500001000213                         0900000000000010000000000000000000000000000000000000000   0000000000000000000000000A9        170192957705     
0010001300098U 020000000000000000000000000000000000000000000000000000000000000000000000000000000000000000000000000000000000000000000000001603201700000000            000000000000000                              000                           
0010001300099T 020180230000001544772 29577051323425323   7               18032017000000000007500001000213                         0900000000000010000000000000000000000000000000000000000   0000000000000000000000000A9        170192957705     
0010001300100U 020000000000000000000000000000000000000000000000000000000000000000000000000000000000000000000000000000000000000000000000001603201700000000            000000000000000                              000                           
0010001300101T 020180230000001544772 29577051323625634   7               18032017000000000007500001000213                         0900000000000010000000000000000000000000000000000000000   0000000000000000000000000A9        170192957705     
0010001300102U 020000000000000000000000000000000000000000000000000000000000000000000000000000000000000000000000000000000000000000000000001603201700000000            000000000000000                              000                           
0010001300103T 020180230000001544772 29577051324148622   7               18032017000000000007500001012408                         0900000000000010000000000000000000000000000000000000000   0000000000000000000000000A9        170192957705     
0010001300104U 020000000000000000000000000000000000000000000000000000000000000000000000000000000000000000000000000000000000000000000000001603201700000000            000000000000000                              000                           
0010001300105T 020180230000001544772 29577051324334870   7               18032017000000000007500001000132                         0900000000000010000000000000000000000000000000000000000   0000000000000000000000000A9        170192957705     
0010001300106U 020000000000000000000000000000000000000000000000000000000000000000000000000000000000000000000000000000000000000000000000001603201700000000            000000000000000                              000                           
0010001300107T 020180230000001544772 29577051325133285   7               18032017000000000007500001012408                         0900000000000010000000000000000000000000000000000000000   0000000000000000000000000A9        170192957705     
0010001300108U 020000000000000000000000000000000000000000000000000000000000000000000000000000000000000000000000000000000000000000000000001603201700000000            000000000000000                              000                           
0010001300109T 060180230000001544772 29577050269820915   7               17032017000000000007500237034720                         0900000000000010000000000000000000000000000000000000000   000000000000000000000029000        170192957705     
0010001300110U 060000000000000000000000000000000000000000000000000000000000000000000000075000000000000072100000000000000000000000000000001603201717032017            000000000000000                              000                           
0010001300111T 060180230000001544772 29577050281339823   7               18032017000000000010000021001010                         0900000000000010000000000000000000000000000000000000000   000000000000000000000029000        170192957705     
0010001300112U 060000000000000000000000000000000000000000000000000000000000000000000000100000000000000097100000000000000000000000000000001603201717032017            000000000000000                              000                           
0010001300113T 060180230000001544772 29577051026318920   7               16032017000000000007500237031740                         0900000000000010000000000000000000000000000000000000000   000000000000000000000029000        170192957705     
0010001300114U 060000000000000000000000000000000000000000000000000000000000000000000000075000000000000072100000000000000000000000000000001603201717032017            000000000000000                              000                           
0010001300115T 060180230000001544772 29577051159853918   7               16032017000000000007500021000590                         0900000000000010000000000000000000000000000000000000000   000000000000000000000029000        170192957705     
0010001300116U 060000000000000000000000000000000000000000000000000000000000000000000000075000000000000072100000000000000000000000000000001603201717032017            000000000000000                              000                           
0010001300117T 060180230000001544772 29577051260547726   7               18032017000000000007500021001240                         0900000000000010000000000000000000000000000000000000000   000000000000000000000029000        170192957705     
0010001300118U 060000000000000000000000000000000000000000000000000000000000000000000000075000000000000072100000000000000000000000000000001603201717032017            000000000000000                              000                           
0010001300119T 060180230000001544772 29577051266407763   7               16032017000000000007500104001730                         0900000000000010000000000000000000000000000000000000000   000000000000000000000029000        170192957705     
0010001300120U 060000000000000000000000000000000000000000000000000000000000000000000000075000000000000072100000000000000000000000000000001603201717032017            000000000000000                              000                           
0010001300121T 060180230000001544772 29577051277533095   7               1603201700000000001000000103195X                         0900000000000010000000000000000000000000000000000000000   000000000000000000000029000        170192957705     
0010001300122U 060000000000000000000000000000000000000000000000000000000000000000000000100000000000000097100000000000000000000000000000001603201717032017            000000000000000                              000                           
0010001300123T 060180230000001544772 29577051322355941   7               18032017000000000007500001031305                         0900000000000010000000000000000000000000000000000000000   000000000000000000000029000        170192957705     
0010001300124U 060000000000000000000000000000000000000000000000000000000000000000000000075000000000000072100000000000000000000000000000001603201717032017            000000000000000                              000                           
0010001300125T 060180230000001544772 29577051324148622   7               18032017000000000007500001012416                         0900000000000010000000000000000000000000000000000000000   000000000000000000000029000        170192957705     
0010001300126U 060000000000000000000000000000000000000000000000000000000000000000000000075000000000000072100000000000000000000000000000001603201717032017            000000000000000                              000                           
0010001300127T 280180230000001544772 29577050000612283   7               14022017000000000007500001000000                         0900000000000000000000000000000000000000000000000000000   000000000000000000000005002        170192957705     
0010001300128U 280000000000000000000000000000000000000000000000000000000000000000000000000000000000000000000000000000000000000000000000001603201700000000            000000000000000                              000                           
0010001300129T 280180230000001544772 29577050000622495   7               14022017000000000007500001000000                         0900000000000000000000000000000000000000000000000000000   000000000000000000000005002        170192957705     
0010001300130U 280000000000000000000000000000000000000000000000000000000000000000000000000000000000000000000000000000000000000000000000001603201700000000            000000000000000                              000                           
0010001300131T 280180230000001544772 29577050000627425   788888888888889914022017000000000007500001000000888888888888899          0900000000000000000000000000000000000000000000000000000   000000000000000000000005002        170192957705     
0010001300132U 280000000000000000000000000000000000000000000000000000000000000000000000000000000000000000000000000000000000000000000000001603201700000000            000000000000000                              000                           
0010001300133T 280180230000001544772 29577050000627682   7               14022017000000000007500001000000                         0900000000000000000000000000000000000000000000000000000   000000000000000000000005002        170192957705     
0010001300134U 280000000000000000000000000000000000000000000000000000000000000000000000000000000000000000000000000000000000000000000000001603201700000000            000000000000000                              000                           
0010001300135T 280180230000001544772 29577050000627688   7               14022017000000000007500001000000                         0900000000000000000000000000000000000000000000000000000   000000000000000000000005002        170192957705     
0010001300136U 280000000000000000000000000000000000000000000000000000000000000000000000000000000000000000000000000000000000000000000000001603201700000000            000000000000000                              000                           
0010001300137T 280180230000001544772 29577050000631067   7               14022017000000000007500001000000                         0900000000000000000000000000000000000000000000000000000   000000000000000000000005002        170192957705     
0010001300138U 280000000000000000000000000000000000000000000000000000000000000000000000000000000000000000000000000000000000000000000000001603201700000000            000000000000000                              000                           
0010001300139T 280180230000001544772 29577050000631109   788888888888889914022017000000000007500001000000888888888888899          0900000000000000000000000000000000000000000000000000000   000000000000000000000005002        170192957705     
0010001300140U 280000000000000000000000000000000000000000000000000000000000000000000000000000000000000000000000000000000000000000000000001603201700000000            000000000000000                              000                           
0010001300141T 280180230000001544772 29577050000637620   7               14022017000000000007500001000000                         0900000000000000000000000000000000000000000000000000000   000000000000000000000005002        170192957705     
0010001300142U 280000000000000000000000000000000000000000000000000000000000000000000000000000000000000000000000000000000000000000000000001603201700000000            000000000000000                              000                           
0010001300143T 280180230000001544772 29577050000652095   788888888888889914022017000000000007500001000000888888888888899          0900000000000000000000000000000000000000000000000000000   000000000000000000000005002        170192957705     
0010001300144U 280000000000000000000000000000000000000000000000000000000000000000000000000000000000000000000000000000000000000000000000001603201700000000            000000000000000                              000                           
0010001300145T 280180230000001544772 29577050000656743   7               14022017000000000007500001000000                         0900000000000000000000000000000000000000000000000000000   000000000000000000000005002        170192957705     
0010001300146U 280000000000000000000000000000000000000000000000000000000000000000000000000000000000000000000000000000000000000000000000001603201700000000            000000000000000                              000                           
0010001300147T 280180230000001544772 29577050005828942   788888888888889915012017000000000007500001000000888888888888899          0900000000000000000000000000000000000000000000000000000   000000000000000000000005002        170192957705     
0010001300148U 280000000000000000000000000000000000000000000000000000000000000000000000000000000000000000000000000000000000000000000000001603201700000000            000000000000000                              000                           
0010001300149T 280180230000001544772 29577050006340264   788888888888889915012017000000000007500001000000888888888888899          0900000000000000000000000000000000000000000000000000000   000000000000000000000005002        170192957705     
0010001300150U 280000000000000000000000000000000000000000000000000000000000000000000000000000000000000000000000000000000000000000000000001603201700000000            000000000000000                              000                           
0010001300151T 280180230000001544772 29577050007058513   788888888888889915012017000000000007500001000000888888888888899          0900000000000000000000000000000000000000000000000000000   000000000000000000000005002        170192957705     
0010001300152U 280000000000000000000000000000000000000000000000000000000000000000000000000000000000000000000000000000000000000000000000001603201700000000            000000000000000                              000                           
0010001300153T 280180230000001544772 29577050007109673   788888888888889915012017000000000007500001000000888888888888899          0900000000000000000000000000000000000000000000000000000   000000000000000000000005002        170192957705     
0010001300154U 280000000000000000000000000000000000000000000000000000000000000000000000000000000000000000000000000000000000000000000000001603201700000000            000000000000000                              000                           
0010001300155T 280180230000001544772 29577050007500256   788888888888889915012017000000000007500001000000888888888888899          0900000000000000000000000000000000000000000000000000000   000000000000000000000005002        170192957705     
0010001300156U 280000000000000000000000000000000000000000000000000000000000000000000000000000000000000000000000000000000000000000000000001603201700000000            000000000000000                              000                           
0010001300157T 280180230000001544772 29577050007646218   788888888888889915012017000000000007500001000000888888888888899          0900000000000000000000000000000000000000000000000000000   000000000000000000000005002        170192957705     
0010001300158U 280000000000000000000000000000000000000000000000000000000000000000000000000000000000000000000000000000000000000000000000001603201700000000            000000000000000                              000                           
0010001300159T 280180230000001544772 29577050008140723   788888888888889915012017000000000007500001000000888888888888899          0900000000000000000000000000000000000000000000000000000   000000000000000000000005002        170192957705     
0010001300160U 280000000000000000000000000000000000000000000000000000000000000000000000000000000000000000000000000000000000000000000000001603201700000000            000000000000000                              000                           
0010001300161T 280180230000001544772 29577050008240718   788888888888889915012017000000000007500001000000888888888888899          0900000000000000000000000000000000000000000000000000000   000000000000000000000005002        170192957705     
0010001300162U 280000000000000000000000000000000000000000000000000000000000000000000000000000000000000000000000000000000000000000000000001603201700000000            000000000000000                              000                           
0010001300163T 280180230000001544772 29577050008333769   788888888888889915012017000000000007500001000000888888888888899          0900000000000000000000000000000000000000000000000000000   000000000000000000000005002        170192957705     
0010001300164U 280000000000000000000000000000000000000000000000000000000000000000000000000000000000000000000000000000000000000000000000001603201700000000            000000000000000                              000                           
0010001300165T 280180230000001544772 29577050008357056   788888888888889915012017000000000007500001000000888888888888899          0900000000000000000000000000000000000000000000000000000   000000000000000000000005002        170192957705     
0010001300166U 280000000000000000000000000000000000000000000000000000000000000000000000000000000000000000000000000000000000000000000000001603201700000000            000000000000000                              000                           
0010001300167T 280180230000001544772 29577050008508167   788888888888889915012017000000000007500001000000888888888888899          0900000000000000000000000000000000000000000000000000000   000000000000000000000005002        170192957705     
0010001300168U 280000000000000000000000000000000000000000000000000000000000000000000000000000000000000000000000000000000000000000000000001603201700000000            000000000000000                              000                           
0010001300169T 280180230000001544772 29577050009005819   788888888888889915012017000000000007500001000000888888888888899          0900000000000000000000000000000000000000000000000000000   000000000000000000000005002        170192957705     
0010001300170U 280000000000000000000000000000000000000000000000000000000000000000000000000000000000000000000000000000000000000000000000001603201700000000            000000000000000                              000                           
0010001300171T 280180230000001544772 29577050009222043   788888888888889915012017000000000007500001000000888888888888899          0900000000000000000000000000000000000000000000000000000   000000000000000000000005002        170192957705     
0010001300172U 280000000000000000000000000000000000000000000000000000000000000000000000000000000000000000000000000000000000000000000000001603201700000000            000000000000000                              000                           
0010001300173T 280180230000001544772 29577050009311658   788888888888889915012017000000000007500001000000888888888888899          0900000000000000000000000000000000000000000000000000000   000000000000000000000005002        170192957705     
0010001300174U 280000000000000000000000000000000000000000000000000000000000000000000000000000000000000000000000000000000000000000000000001603201700000000            000000000000000                              000                           
0010001300175T 280180230000001544772 29577050009422343   788888888888889915012017000000000007500001000000888888888888899          0900000000000000000000000000000000000000000000000000000   000000000000000000000005002        170192957705     
0010001300176U 280000000000000000000000000000000000000000000000000000000000000000000000000000000000000000000000000000000000000000000000001603201700000000            000000000000000                              000                           
0010001300177T 280180230000001544772 29577050010103259   788888888888889915012017000000000007500001000000888888888888899          0900000000000000000000000000000000000000000000000000000   000000000000000000000005002        170192957705     
0010001300178U 280000000000000000000000000000000000000000000000000000000000000000000000000000000000000000000000000000000000000000000000001603201700000000            000000000000000                              000                           
0010001300179T 280180230000001544772 29577050010321152   788888888888889915012017000000000007500001000000888888888888899          0900000000000000000000000000000000000000000000000000000   000000000000000000000005002        170192957705     
0010001300180U 280000000000000000000000000000000000000000000000000000000000000000000000000000000000000000000000000000000000000000000000001603201700000000            000000000000000                              000                           
0010001300181T 280180230000001544772 29577050010537867   788888888888889915012017000000000007500001000000888888888888899          0900000000000000000000000000000000000000000000000000000   000000000000000000000005002        170192957705     
0010001300182U 280000000000000000000000000000000000000000000000000000000000000000000000000000000000000000000000000000000000000000000000001603201700000000            000000000000000                              000                           
0010001300183T 280180230000001544772 29577050018626401   7               14022017000000000007500001000000                         0900000000000000000000000000000000000000000000000000000   000000000000000000000005002        170192957705     
0010001300184U 280000000000000000000000000000000000000000000000000000000000000000000000000000000000000000000000000000000000000000000000001603201700000000            000000000000000                              000                           
0010001300185T 280180230000001544772 29577050037943779   788888888888889915012017000000000007500001000000888888888888899          0900000000000000000000000000000000000000000000000000000   000000000000000000000005002        170192957705     
0010001300186U 280000000000000000000000000000000000000000000000000000000000000000000000000000000000000000000000000000000000000000000000001603201700000000            000000000000000                              000                           
0010001300187T 280180230000001544772 29577050043447282   788888888888889915012017000000000007500001000000888888888888899          0900000000000000000000000000000000000000000000000000000   000000000000000000000005002        170192957705     
0010001300188U 280000000000000000000000000000000000000000000000000000000000000000000000000000000000000000000000000000000000000000000000001603201700000000            000000000000000                              000                           
0010001300189T 280180230000001544772 29577050057500320   788888888888889914022017000000000007500001000000888888888888899          0900000000000000000000000000000000000000000000000000000   000000000000000000000005002        170192957705     
0010001300190U 280000000000000000000000000000000000000000000000000000000000000000000000000000000000000000000000000000000000000000000000001603201700000000            000000000000000                              000                           
0010001300191T 280180230000001544772 29577050057516245   788888888888889914022017000000000007500001000000888888888888899          0900000000000000000000000000000000000000000000000000000   000000000000000000000005002        170192957705     
0010001300192U 280000000000000000000000000000000000000000000000000000000000000000000000000000000000000000000000000000000000000000000000001603201700000000            000000000000000                              000                           
0010001300193T 280180230000001544772 29577050093619384   788888888888889915012017000000000007500001000000888888888888899          0900000000000000000000000000000000000000000000000000000   000000000000000000000005002        170192957705     
0010001300194U 280000000000000000000000000000000000000000000000000000000000000000000000000000000000000000000000000000000000000000000000001603201700000000            000000000000000                              000                           
0010001300195T 280180230000001544772 29577050111311445   788888888888889914022017000000000007500001000000888888888888899          0900000000000000000000000000000000000000000000000000000   000000000000000000000005002        170192957705     
0010001300196U 280000000000000000000000000000000000000000000000000000000000000000000000000000000000000000000000000000000000000000000000001603201700000000            000000000000000                              000                           
0010001300197T 280180230000001544772 29577050111352787   788888888888889914022017000000000007500001000000888888888888899          0900000000000000000000000000000000000000000000000000000   000000000000000000000005002        170192957705     
0010001300198U 280000000000000000000000000000000000000000000000000000000000000000000000000000000000000000000000000000000000000000000000001603201700000000            000000000000000                              000                           
0010001300199T 280180230000001544772 29577050114106293   788888888888889915012017000000000007500001000000888888888888899          0900000000000000000000000000000000000000000000000000000   000000000000000000000005002        170192957705     
0010001300200U 280000000000000000000000000000000000000000000000000000000000000000000000000000000000000000000000000000000000000000000000001603201700000000            000000000000000                              000                           
0010001300201T 280180230000001544772 29577050128017887   788888888888889915012017000000000007500001000000888888888888899          0900000000000000000000000000000000000000000000000000000   000000000000000000000005002        170192957705     
0010001300202U 280000000000000000000000000000000000000000000000000000000000000000000000000000000000000000000000000000000000000000000000001603201700000000            000000000000000                              000                           
0010001300203T 280180230000001544772 29577050130507462   788888888888889915012017000000000007500001000000888888888888899          0900000000000000000000000000000000000000000000000000000   000000000000000000000005002        170192957705     
0010001300204U 280000000000000000000000000000000000000000000000000000000000000000000000000000000000000000000000000000000000000000000000001603201700000000            000000000000000                              000                           
0010001300205T 280180230000001544772 29577050130545814   788888888888889915012017000000000007500001000000888888888888899          0900000000000000000000000000000000000000000000000000000   000000000000000000000005002        170192957705     
0010001300206U 280000000000000000000000000000000000000000000000000000000000000000000000000000000000000000000000000000000000000000000000001603201700000000            000000000000000                              000                           
0010001300207T 280180230000001544772 29577050130551829   788888888888889915012017000000000007500001000000888888888888899          0900000000000000000000000000000000000000000000000000000   000000000000000000000005002        170192957705     
0010001300208U 280000000000000000000000000000000000000000000000000000000000000000000000000000000000000000000000000000000000000000000000001603201700000000            000000000000000                              000                           
0010001300209T 280180230000001544772 29577050130554890   788888888888889915012017000000000007500001000000888888888888899          0900000000000000000000000000000000000000000000000000000   000000000000000000000005002        170192957705     
0010001300210U 280000000000000000000000000000000000000000000000000000000000000000000000000000000000000000000000000000000000000000000000001603201700000000            000000000000000                              000                           
0010001300211T 280180230000001544772 29577050130555654   788888888888889915012017000000000007500001000000888888888888899          0900000000000000000000000000000000000000000000000000000   000000000000000000000005002        170192957705     
0010001300212U 280000000000000000000000000000000000000000000000000000000000000000000000000000000000000000000000000000000000000000000000001603201700000000            000000000000000                              000                           
0010001300213T 280180230000001544772 29577050130559434   788888888888889915012017000000000007500001000000888888888888899          0900000000000000000000000000000000000000000000000000000   000000000000000000000005002        170192957705     
0010001300214U 280000000000000000000000000000000000000000000000000000000000000000000000000000000000000000000000000000000000000000000000001603201700000000            000000000000000                              000                           
0010001300215T 280180230000001544772 29577050139233027   788888888888889914022017000000000007500001000000888888888888899          0900000000000000000000000000000000000000000000000000000   000000000000000000000005002        170192957705     
0010001300216U 280000000000000000000000000000000000000000000000000000000000000000000000000000000000000000000000000000000000000000000000001603201700000000            000000000000000                              000                           
0010001300217T 280180230000001544772 29577050163901432   788888888888889914022017000000000007500001000000888888888888899          0900000000000000000000000000000000000000000000000000000   000000000000000000000005002        170192957705     
0010001300218U 280000000000000000000000000000000000000000000000000000000000000000000000000000000000000000000000000000000000000000000000001603201700000000            000000000000000                              000                           
0010001300219T 280180230000001544772 29577050167147761   788888888888889914022017000000000007500001000000888888888888899          0900000000000000000000000000000000000000000000000000000   000000000000000000000005002        170192957705     
0010001300220U 280000000000000000000000000000000000000000000000000000000000000000000000000000000000000000000000000000000000000000000000001603201700000000            000000000000000                              000                           
0010001300221T 280180230000001544772 29577050168747795   788888888888889915012017000000000007500001000000888888888888899          0900000000000000000000000000000000000000000000000000000   000000000000000000000005002        170192957705     
0010001300222U 280000000000000000000000000000000000000000000000000000000000000000000000000000000000000000000000000000000000000000000000001603201700000000            000000000000000                              000                           
0010001300223T 280180230000001544772 29577050183105181   7               14022017000000000007500001000000                         0900000000000000000000000000000000000000000000000000000   000000000000000000000005002        170192957705     
0010001300224U 280000000000000000000000000000000000000000000000000000000000000000000000000000000000000000000000000000000000000000000000001603201700000000            000000000000000                              000                           
0010001300225T 280180230000001544772 29577050183108725   7               14022017000000000007500001000000                         0900000000000000000000000000000000000000000000000000000   000000000000000000000005002        170192957705     
0010001300226U 280000000000000000000000000000000000000000000000000000000000000000000000000000000000000000000000000000000000000000000000001603201700000000            000000000000000                              000                           
0010001300227T 280180230000001544772 29577050183123317   7               14022017000000000007500001000000                         0900000000000000000000000000000000000000000000000000000   000000000000000000000005002        170192957705     
0010001300228U 280000000000000000000000000000000000000000000000000000000000000000000000000000000000000000000000000000000000000000000000001603201700000000            000000000000000                              000                           
0010001300229T 280180230000001544772 29577050183148418   7               14022017000000000007500001000000                         0900000000000000000000000000000000000000000000000000000   000000000000000000000005002        170192957705     
0010001300230U 280000000000000000000000000000000000000000000000000000000000000000000000000000000000000000000000000000000000000000000000001603201700000000            000000000000000                              000                           
0010001300231T 280180230000001544772 29577050183148583   7               14022017000000000007500001000000                         0900000000000000000000000000000000000000000000000000000   000000000000000000000005002        170192957705     
0010001300232U 280000000000000000000000000000000000000000000000000000000000000000000000000000000000000000000000000000000000000000000000001603201700000000            000000000000000                              000                           
0010001300233T 280180230000001544772 29577050188612142   788888888888889914022017000000000007500001000000888888888888899          0900000000000000000000000000000000000000000000000000000   000000000000000000000005002        170192957705     
0010001300234U 280000000000000000000000000000000000000000000000000000000000000000000000000000000000000000000000000000000000000000000000001603201700000000            000000000000000                              000                           
0010001300235T 280180230000001544772 29577050190927855   788888888888889915012017000000000007500001000000888888888888899          0900000000000000000000000000000000000000000000000000000   000000000000000000000005002        170192957705     
0010001300236U 280000000000000000000000000000000000000000000000000000000000000000000000000000000000000000000000000000000000000000000000001603201700000000            000000000000000                              000                           
0010001300237T 280180230000001544772 29577050202814237   7               14022017000000000007500001000000                         0900000000000000000000000000000000000000000000000000000   000000000000000000000005002        170192957705     
0010001300238U 280000000000000000000000000000000000000000000000000000000000000000000000000000000000000000000000000000000000000000000000001603201700000000            000000000000000                              000                           
0010001300239T 280180230000001544772 29577050202824087   7               14022017000000000007500001000000                         0900000000000000000000000000000000000000000000000000000   000000000000000000000005002        170192957705     
0010001300240U 280000000000000000000000000000000000000000000000000000000000000000000000000000000000000000000000000000000000000000000000001603201700000000            000000000000000                              000                           
0010001300241T 280180230000001544772 29577050202826883   7               14022017000000000007500001000000                         0900000000000000000000000000000000000000000000000000000   000000000000000000000005002        170192957705     
0010001300242U 280000000000000000000000000000000000000000000000000000000000000000000000000000000000000000000000000000000000000000000000001603201700000000            000000000000000                              000                           
0010001300243T 280180230000001544772 29577050203904332   7               14022017000000000007500001000000                         0900000000000000000000000000000000000000000000000000000   000000000000000000000005002        170192957705     
0010001300244U 280000000000000000000000000000000000000000000000000000000000000000000000000000000000000000000000000000000000000000000000001603201700000000            000000000000000                              000                           
0010001300245T 280180230000001544772 29577050204125018   788888888888889914022017000000000007500001000000888888888888899          0900000000000000000000000000000000000000000000000000000   000000000000000000000005002        170192957705     
0010001300246U 280000000000000000000000000000000000000000000000000000000000000000000000000000000000000000000000000000000000000000000000001603201700000000            000000000000000                              000                           
0010001300247T 280180230000001544772 29577050207925428   788888888888889914022017000000000007500001000000888888888888899          0900000000000000000000000000000000000000000000000000000   000000000000000000000005002        170192957705     
0010001300248U 280000000000000000000000000000000000000000000000000000000000000000000000000000000000000000000000000000000000000000000000001603201700000000            000000000000000                              000                           
0010001300249T 280180230000001544772 29577050212612113   788888888888889915012017000000000007500001000000888888888888899          0900000000000000000000000000000000000000000000000000000   000000000000000000000005002        170192957705     
0010001300250U 280000000000000000000000000000000000000000000000000000000000000000000000000000000000000000000000000000000000000000000000001603201700000000            000000000000000                              000                           
0010001300251T 280180230000001544772 29577050216002919   788888888888889915012017000000000007500001000000888888888888899          0900000000000000000000000000000000000000000000000000000   000000000000000000000005002        170192957705     
0010001300252U 280000000000000000000000000000000000000000000000000000000000000000000000000000000000000000000000000000000000000000000000001603201700000000            000000000000000                              000                           
0010001300253T 280180230000001544772 29577050227631884   788888888888889915012017000000000007500001000000888888888888899          0900000000000000000000000000000000000000000000000000000   000000000000000000000005002        170192957705     
0010001300254U 280000000000000000000000000000000000000000000000000000000000000000000000000000000000000000000000000000000000000000000000001603201700000000            000000000000000                              000                           
0010001300255T 280180230000001544772 29577050228928486   788888888888889915012017000000000007500001000000888888888888899          0900000000000000000000000000000000000000000000000000000   000000000000000000000005002        170192957705     
0010001300256U 280000000000000000000000000000000000000000000000000000000000000000000000000000000000000000000000000000000000000000000000001603201700000000            000000000000000                              000                           
0010001300257T 280180230000001544772 29577050229010568   788888888888889915012017000000000007500001000000888888888888899          0900000000000000000000000000000000000000000000000000000   000000000000000000000005002        170192957705     
0010001300258U 280000000000000000000000000000000000000000000000000000000000000000000000000000000000000000000000000000000000000000000000001603201700000000            000000000000000                              000                           
0010001300259T 280180230000001544772 29577050229125511   788888888888889915012017000000000007500001000000888888888888899          0900000000000000000000000000000000000000000000000000000   000000000000000000000005002        170192957705     
0010001300260U 280000000000000000000000000000000000000000000000000000000000000000000000000000000000000000000000000000000000000000000000001603201700000000            000000000000000                              000                           
0010001300261T 280180230000001544772 29577050229147096   788888888888889915012017000000000007500001000000888888888888899          0900000000000000000000000000000000000000000000000000000   000000000000000000000005002        170192957705     
0010001300262U 280000000000000000000000000000000000000000000000000000000000000000000000000000000000000000000000000000000000000000000000001603201700000000            000000000000000                              000                           
0010001300263T 280180230000001544772 29577050229157488   788888888888889915012017000000000007500001000000888888888888899          0900000000000000000000000000000000000000000000000000000   000000000000000000000005002        170192957705     
0010001300264U 280000000000000000000000000000000000000000000000000000000000000000000000000000000000000000000000000000000000000000000000001603201700000000            000000000000000                              000                           
0010001300265T 280180230000001544772 29577050229233478   788888888888889915012017000000000007500001000000888888888888899          0900000000000000000000000000000000000000000000000000000   000000000000000000000005002        170192957705     
0010001300266U 280000000000000000000000000000000000000000000000000000000000000000000000000000000000000000000000000000000000000000000000001603201700000000            000000000000000                              000                           
0010001300267T 280180230000001544772 29577050229330727   788888888888889915012017000000000007500001000000888888888888899          0900000000000000000000000000000000000000000000000000000   000000000000000000000005002        170192957705     
0010001300268U 280000000000000000000000000000000000000000000000000000000000000000000000000000000000000000000000000000000000000000000000001603201700000000            000000000000000                              000                           
0010001300269T 280180230000001544772 29577050229452220   788888888888889915012017000000000007500001000000888888888888899          0900000000000000000000000000000000000000000000000000000   000000000000000000000005002        170192957705     
0010001300270U 280000000000000000000000000000000000000000000000000000000000000000000000000000000000000000000000000000000000000000000000001603201700000000            000000000000000                              000                           
0010001300271T 280180230000001544772 29577050229856577   788888888888889915012017000000000007500001000000888888888888899          0900000000000000000000000000000000000000000000000000000   000000000000000000000005002        170192957705     
0010001300272U 280000000000000000000000000000000000000000000000000000000000000000000000000000000000000000000000000000000000000000000000001603201700000000            000000000000000                              000                           
0010001300273T 280180230000001544772 29577050230049609   788888888888889915012017000000000010000001000000888888888888899          0900000000000000000000000000000000000000000000000000000   000000000000000000000005002        170192957705     
0010001300274U 280000000000000000000000000000000000000000000000000000000000000000000000000000000000000000000000000000000000000000000000001603201700000000            000000000000000                              000                           
0010001300275T 280180230000001544772 29577050230247910   788888888888889915012017000000000007500001000000888888888888899          0900000000000000000000000000000000000000000000000000000   000000000000000000000005002        170192957705     
0010001300276U 280000000000000000000000000000000000000000000000000000000000000000000000000000000000000000000000000000000000000000000000001603201700000000            000000000000000                              000                           
0010001300277T 280180230000001544772 29577050230448745   788888888888889915012017000000000010000001000000888888888888899          0900000000000000000000000000000000000000000000000000000   000000000000000000000005002        170192957705     
0010001300278U 280000000000000000000000000000000000000000000000000000000000000000000000000000000000000000000000000000000000000000000000001603201700000000            000000000000000                              000                           
0010001300279T 280180230000001544772 29577050230951016   788888888888889915012017000000000007500001000000888888888888899          0900000000000000000000000000000000000000000000000000000   000000000000000000000005002        170192957705     
0010001300280U 280000000000000000000000000000000000000000000000000000000000000000000000000000000000000000000000000000000000000000000000001603201700000000            000000000000000                              000                           
0010001300281T 280180230000001544772 29577050231046622   788888888888889915012017000000000007500001000000888888888888899          0900000000000000000000000000000000000000000000000000000   000000000000000000000005002        170192957705     
0010001300282U 280000000000000000000000000000000000000000000000000000000000000000000000000000000000000000000000000000000000000000000000001603201700000000            000000000000000                              000                           
0010001300283T 280180230000001544772 29577050231332939   788888888888889915012017000000000007500001000000888888888888899          0900000000000000000000000000000000000000000000000000000   000000000000000000000005002        170192957705     
0010001300284U 280000000000000000000000000000000000000000000000000000000000000000000000000000000000000000000000000000000000000000000000001603201700000000            000000000000000                              000                           
0010001300285T 280180230000001544772 29577050231745790   788888888888889915012017000000000010000001000000888888888888899          0900000000000000000000000000000000000000000000000000000   000000000000000000000005002        170192957705     
0010001300286U 280000000000000000000000000000000000000000000000000000000000000000000000000000000000000000000000000000000000000000000000001603201700000000            000000000000000                              000                           
0010001300287T 280180230000001544772 29577050231858764   788888888888889915012017000000000007500001000000888888888888899          0900000000000000000000000000000000000000000000000000000   000000000000000000000005002        170192957705     
0010001300288U 280000000000000000000000000000000000000000000000000000000000000000000000000000000000000000000000000000000000000000000000001603201700000000            000000000000000                              000                           
0010001300289T 280180230000001544772 29577050232029606   788888888888889915012017000000000007500001000000888888888888899          0900000000000000000000000000000000000000000000000000000   000000000000000000000005002        170192957705     
0010001300290U 280000000000000000000000000000000000000000000000000000000000000000000000000000000000000000000000000000000000000000000000001603201700000000            000000000000000                              000                           
0010001300291T 280180230000001544772 29577050232116783   788888888888889915012017000000000007500001000000888888888888899          0900000000000000000000000000000000000000000000000000000   000000000000000000000005002        170192957705     
0010001300292U 280000000000000000000000000000000000000000000000000000000000000000000000000000000000000000000000000000000000000000000000001603201700000000            000000000000000                              000                           
0010001300293T 280180230000001544772 29577050232255302   788888888888889915012017000000000007500001000000888888888888899          0900000000000000000000000000000000000000000000000000000   000000000000000000000005002        170192957705     
0010001300294U 280000000000000000000000000000000000000000000000000000000000000000000000000000000000000000000000000000000000000000000000001603201700000000            000000000000000                              000                           
0010001300295T 280180230000001544772 29577050232325528   788888888888889915012017000000000007500001000000888888888888899          0900000000000000000000000000000000000000000000000000000   000000000000000000000005002        170192957705     
0010001300296U 280000000000000000000000000000000000000000000000000000000000000000000000000000000000000000000000000000000000000000000000001603201700000000            000000000000000                              000                           
0010001300297T 280180230000001544772 29577050232408366   788888888888889915012017000000000007500001000000888888888888899          0900000000000000000000000000000000000000000000000000000   000000000000000000000005002        170192957705     
0010001300298U 280000000000000000000000000000000000000000000000000000000000000000000000000000000000000000000000000000000000000000000000001603201700000000            000000000000000                              000                           
0010001300299T 280180230000001544772 29577050232556752   788888888888889915012017000000000007500001000000888888888888899          0900000000000000000000000000000000000000000000000000000   000000000000000000000005002        170192957705     
0010001300300U 280000000000000000000000000000000000000000000000000000000000000000000000000000000000000000000000000000000000000000000000001603201700000000            000000000000000                              000                           
0010001300301T 280180230000001544772 29577050232740457   788888888888889915012017000000000007500001000000888888888888899          0900000000000000000000000000000000000000000000000000000   000000000000000000000005002        170192957705     
0010001300302U 280000000000000000000000000000000000000000000000000000000000000000000000000000000000000000000000000000000000000000000000001603201700000000            000000000000000                              000                           
0010001300303T 280180230000001544772 29577050232812231   788888888888889915012017000000000007500001000000888888888888899          0900000000000000000000000000000000000000000000000000000   000000000000000000000005002        170192957705     
0010001300304U 280000000000000000000000000000000000000000000000000000000000000000000000000000000000000000000000000000000000000000000000001603201700000000            000000000000000                              000                           
0010001300305T 280180230000001544772 29577050232903666   788888888888889915012017000000000010000001000000888888888888899          0900000000000000000000000000000000000000000000000000000   000000000000000000000005002        170192957705     
0010001300306U 280000000000000000000000000000000000000000000000000000000000000000000000000000000000000000000000000000000000000000000000001603201700000000            000000000000000                              000                           
0010001300307T 280180230000001544772 29577050233009384   788888888888889915012017000000000007500001000000888888888888899          0900000000000000000000000000000000000000000000000000000   000000000000000000000005002        170192957705     
0010001300308U 280000000000000000000000000000000000000000000000000000000000000000000000000000000000000000000000000000000000000000000000001603201700000000            000000000000000                              000                           
0010001300309T 280180230000001544772 29577050233103164   788888888888889915012017000000000007500001000000888888888888899          0900000000000000000000000000000000000000000000000000000   000000000000000000000005002        170192957705     
0010001300310U 280000000000000000000000000000000000000000000000000000000000000000000000000000000000000000000000000000000000000000000000001603201700000000            000000000000000                              000                           
0010001300311T 280180230000001544772 29577050233223532   788888888888889915012017000000000007500001000000888888888888899          0900000000000000000000000000000000000000000000000000000   000000000000000000000005002        170192957705     
0010001300312U 280000000000000000000000000000000000000000000000000000000000000000000000000000000000000000000000000000000000000000000000001603201700000000            000000000000000                              000                           
0010001300313T 280180230000001544772 29577050233340245   788888888888889915012017000000000007500001000000888888888888899          0900000000000000000000000000000000000000000000000000000   000000000000000000000005002        170192957705     
0010001300314U 280000000000000000000000000000000000000000000000000000000000000000000000000000000000000000000000000000000000000000000000001603201700000000            000000000000000                              000                           
0010001300315T 280180230000001544772 29577050233528432   788888888888889915012017000000000007500001000000888888888888899          0900000000000000000000000000000000000000000000000000000   000000000000000000000005002        170192957705     
0010001300316U 280000000000000000000000000000000000000000000000000000000000000000000000000000000000000000000000000000000000000000000000001603201700000000            000000000000000                              000                           
0010001300317T 280180230000001544772 29577050233611483   788888888888889915012017000000000010000001000000888888888888899          0900000000000000000000000000000000000000000000000000000   000000000000000000000005002        170192957705     
0010001300318U 280000000000000000000000000000000000000000000000000000000000000000000000000000000000000000000000000000000000000000000000001603201700000000            000000000000000                              000                           
0010001300319T 280180230000001544772 29577050233734445   788888888888889915012017000000000007500001000000888888888888899          0900000000000000000000000000000000000000000000000000000   000000000000000000000005002        170192957705     
0010001300320U 280000000000000000000000000000000000000000000000000000000000000000000000000000000000000000000000000000000000000000000000001603201700000000            000000000000000                              000                           
0010001300321T 280180230000001544772 29577050233816474   788888888888889915012017000000000007500001000000888888888888899          0900000000000000000000000000000000000000000000000000000   000000000000000000000005002        170192957705     
0010001300322U 280000000000000000000000000000000000000000000000000000000000000000000000000000000000000000000000000000000000000000000000001603201700000000            000000000000000                              000                           
0010001300323T 280180230000001544772 29577050233935644   788888888888889915012017000000000007500001000000888888888888899          0900000000000000000000000000000000000000000000000000000   000000000000000000000005002        170192957705     
0010001300324U 280000000000000000000000000000000000000000000000000000000000000000000000000000000000000000000000000000000000000000000000001603201700000000            000000000000000                              000                           
0010001300325T 280180230000001544772 29577050234009761   788888888888889915012017000000000007500001000000888888888888899          0900000000000000000000000000000000000000000000000000000   000000000000000000000005002        170192957705     
0010001300326U 280000000000000000000000000000000000000000000000000000000000000000000000000000000000000000000000000000000000000000000000001603201700000000            000000000000000                              000                           
0010001300327T 280180230000001544772 29577050234011462   788888888888889915012017000000000007500001000000888888888888899          0900000000000000000000000000000000000000000000000000000   000000000000000000000005002        170192957705     
0010001300328U 280000000000000000000000000000000000000000000000000000000000000000000000000000000000000000000000000000000000000000000000001603201700000000            000000000000000                              000                           
0010001300329T 280180230000001544772 29577050234027781   788888888888889915012017000000000007500001000000888888888888899          0900000000000000000000000000000000000000000000000000000   000000000000000000000005002        170192957705     
0010001300330U 280000000000000000000000000000000000000000000000000000000000000000000000000000000000000000000000000000000000000000000000001603201700000000            000000000000000                              000                           
0010001300331T 280180230000001544772 29577050234032088   788888888888889915012017000000000007500001000000888888888888899          0900000000000000000000000000000000000000000000000000000   000000000000000000000005002        170192957705     
0010001300332U 280000000000000000000000000000000000000000000000000000000000000000000000000000000000000000000000000000000000000000000000001603201700000000            000000000000000                              000                           
0010001300333T 280180230000001544772 29577050234032409   788888888888889915012017000000000007500001000000888888888888899          0900000000000000000000000000000000000000000000000000000   000000000000000000000005002        170192957705     
0010001300334U 280000000000000000000000000000000000000000000000000000000000000000000000000000000000000000000000000000000000000000000000001603201700000000            000000000000000                              000                           
0010001300335T 280180230000001544772 29577050234032412   788888888888889915012017000000000007500001000000888888888888899          0900000000000000000000000000000000000000000000000000000   000000000000000000000005002        170192957705     
0010001300336U 280000000000000000000000000000000000000000000000000000000000000000000000000000000000000000000000000000000000000000000000001603201700000000            000000000000000                              000                           
0010001300337T 280180230000001544772 29577050234034611   788888888888889915012017000000000007500001000000888888888888899          0900000000000000000000000000000000000000000000000000000   000000000000000000000005002        170192957705     
0010001300338U 280000000000000000000000000000000000000000000000000000000000000000000000000000000000000000000000000000000000000000000000001603201700000000            000000000000000                              000                           
0010001300339T 280180230000001544772 29577050234040104   788888888888889915012017000000000007500001000000888888888888899          0900000000000000000000000000000000000000000000000000000   000000000000000000000005002        170192957705     
0010001300340U 280000000000000000000000000000000000000000000000000000000000000000000000000000000000000000000000000000000000000000000000001603201700000000            000000000000000                              000                           
0010001300341T 280180230000001544772 29577050234049664   788888888888889915012017000000000007500001000000888888888888899          0900000000000000000000000000000000000000000000000000000   000000000000000000000005002        170192957705     
0010001300342U 280000000000000000000000000000000000000000000000000000000000000000000000000000000000000000000000000000000000000000000000001603201700000000            000000000000000                              000                           
0010001300343T 280180230000001544772 29577050234051274   788888888888889915012017000000000007500001000000888888888888899          0900000000000000000000000000000000000000000000000000000   000000000000000000000005002        170192957705     
0010001300344U 280000000000000000000000000000000000000000000000000000000000000000000000000000000000000000000000000000000000000000000000001603201700000000            000000000000000                              000                           
0010001300345T 280180230000001544772 29577050234051430   788888888888889915012017000000000007500001000000888888888888899          0900000000000000000000000000000000000000000000000000000   000000000000000000000005002        170192957705     
0010001300346U 280000000000000000000000000000000000000000000000000000000000000000000000000000000000000000000000000000000000000000000000001603201700000000            000000000000000                              000                           
0010001300347T 280180230000001544772 29577050234051900   788888888888889915012017000000000007500001000000888888888888899          0900000000000000000000000000000000000000000000000000000   000000000000000000000005002        170192957705     
0010001300348U 280000000000000000000000000000000000000000000000000000000000000000000000000000000000000000000000000000000000000000000000001603201700000000            000000000000000                              000                           
0010001300349T 280180230000001544772 29577050234059375   788888888888889915012017000000000007500001000000888888888888899          0900000000000000000000000000000000000000000000000000000   000000000000000000000005002        170192957705     
0010001300350U 280000000000000000000000000000000000000000000000000000000000000000000000000000000000000000000000000000000000000000000000001603201700000000            000000000000000                              000                           
0010001300351T 280180230000001544772 29577050234134477   788888888888889915012017000000000007500001000000888888888888899          0900000000000000000000000000000000000000000000000000000   000000000000000000000005002        170192957705     
0010001300352U 280000000000000000000000000000000000000000000000000000000000000000000000000000000000000000000000000000000000000000000000001603201700000000            000000000000000                              000                           
0010001300353T 280180230000001544772 29577050234145234   788888888888889915012017000000000007500001000000888888888888899          0900000000000000000000000000000000000000000000000000000   000000000000000000000005002        170192957705     
0010001300354U 280000000000000000000000000000000000000000000000000000000000000000000000000000000000000000000000000000000000000000000000001603201700000000            000000000000000                              000                           
0010001300355T 280180230000001544772 29577050234158225   788888888888889915012017000000000007500001000000888888888888899          0900000000000000000000000000000000000000000000000000000   000000000000000000000005002        170192957705     
0010001300356U 280000000000000000000000000000000000000000000000000000000000000000000000000000000000000000000000000000000000000000000000001603201700000000            000000000000000                              000                           
0010001300357T 280180230000001544772 29577050234341811   788888888888889915012017000000000007500001000000888888888888899          0900000000000000000000000000000000000000000000000000000   000000000000000000000005002        170192957705     
0010001300358U 280000000000000000000000000000000000000000000000000000000000000000000000000000000000000000000000000000000000000000000000001603201700000000            000000000000000                              000                           
0010001300359T 280180230000001544772 29577050234436361   788888888888889915012017000000000010000001000000888888888888899          0900000000000000000000000000000000000000000000000000000   000000000000000000000005002        170192957705     
0010001300360U 280000000000000000000000000000000000000000000000000000000000000000000000000000000000000000000000000000000000000000000000001603201700000000            000000000000000                              000                           
0010001300361T 280180230000001544772 29577050234608150   788888888888889915012017000000000007500001000000888888888888899          0900000000000000000000000000000000000000000000000000000   000000000000000000000005002        170192957705     
0010001300362U 280000000000000000000000000000000000000000000000000000000000000000000000000000000000000000000000000000000000000000000000001603201700000000            000000000000000                              000                           
0010001300363T 280180230000001544772 29577050234701485   788888888888889915012017000000000007500001000000888888888888899          0900000000000000000000000000000000000000000000000000000   000000000000000000000005002        170192957705     
0010001300364U 280000000000000000000000000000000000000000000000000000000000000000000000000000000000000000000000000000000000000000000000001603201700000000            000000000000000                              000                           
0010001300365T 280180230000001544772 29577050234919556   788888888888889915012017000000000007500001000000888888888888899          0900000000000000000000000000000000000000000000000000000   000000000000000000000005002        170192957705     
0010001300366U 280000000000000000000000000000000000000000000000000000000000000000000000000000000000000000000000000000000000000000000000001603201700000000            000000000000000                              000                           
0010001300367T 280180230000001544772 29577050234919746   788888888888889915012017000000000007500001000000888888888888899          0900000000000000000000000000000000000000000000000000000   000000000000000000000005002        170192957705     
0010001300368U 280000000000000000000000000000000000000000000000000000000000000000000000000000000000000000000000000000000000000000000000001603201700000000            000000000000000                              000                           
0010001300369T 280180230000001544772 29577050234920964   788888888888889915012017000000000007500001000000888888888888899          0900000000000000000000000000000000000000000000000000000   000000000000000000000005002        170192957705     
0010001300370U 280000000000000000000000000000000000000000000000000000000000000000000000000000000000000000000000000000000000000000000000001603201700000000            000000000000000                              000                           
0010001300371T 280180230000001544772 29577050235007966   788888888888889915012017000000000010000001000000888888888888899          0900000000000000000000000000000000000000000000000000000   000000000000000000000005002        170192957705     
0010001300372U 280000000000000000000000000000000000000000000000000000000000000000000000000000000000000000000000000000000000000000000000001603201700000000            000000000000000                              000                           
0010001300373T 280180230000001544772 29577050235210990   788888888888889915012017000000000007500001000000888888888888899          0900000000000000000000000000000000000000000000000000000   000000000000000000000005002        170192957705     
0010001300374U 280000000000000000000000000000000000000000000000000000000000000000000000000000000000000000000000000000000000000000000000001603201700000000            000000000000000                              000                           
0010001300375T 280180230000001544772 29577050235404194   788888888888889915012017000000000010000001000000888888888888899          0900000000000000000000000000000000000000000000000000000   000000000000000000000005002        170192957705     
0010001300376U 280000000000000000000000000000000000000000000000000000000000000000000000000000000000000000000000000000000000000000000000001603201700000000            000000000000000                              000                           
0010001300377T 280180230000001544772 29577050235632916   788888888888889915012017000000000007500001000000888888888888899          0900000000000000000000000000000000000000000000000000000   000000000000000000000005002        170192957705     
0010001300378U 280000000000000000000000000000000000000000000000000000000000000000000000000000000000000000000000000000000000000000000000001603201700000000            000000000000000                              000                           
0010001300379T 280180230000001544772 29577050235819311   788888888888889915012017000000000007500001000000888888888888899          0900000000000000000000000000000000000000000000000000000   000000000000000000000005002        170192957705     
0010001300380U 280000000000000000000000000000000000000000000000000000000000000000000000000000000000000000000000000000000000000000000000001603201700000000            000000000000000                              000                           
0010001300381T 280180230000001544772 29577050236029432   788888888888889915012017000000000007500001000000888888888888899          0900000000000000000000000000000000000000000000000000000   000000000000000000000005002        170192957705     
0010001300382U 280000000000000000000000000000000000000000000000000000000000000000000000000000000000000000000000000000000000000000000000001603201700000000            000000000000000                              000                           
0010001300383T 280180230000001544772 29577050236118877   788888888888889915012017000000000007500001000000888888888888899          0900000000000000000000000000000000000000000000000000000   000000000000000000000005002        170192957705     
0010001300384U 280000000000000000000000000000000000000000000000000000000000000000000000000000000000000000000000000000000000000000000000001603201700000000            000000000000000                              000                           
0010001300385T 280180230000001544772 29577050236239306   788888888888889915012017000000000007500001000000888888888888899          0900000000000000000000000000000000000000000000000000000   000000000000000000000005002        170192957705     
0010001300386U 280000000000000000000000000000000000000000000000000000000000000000000000000000000000000000000000000000000000000000000000001603201700000000            000000000000000                              000                           
0010001300387T 280180230000001544772 29577050236458671   788888888888889915012017000000000007500001000000888888888888899          0900000000000000000000000000000000000000000000000000000   000000000000000000000005002        170192957705     
0010001300388U 280000000000000000000000000000000000000000000000000000000000000000000000000000000000000000000000000000000000000000000000001603201700000000            000000000000000                              000                           
0010001300389T 280180230000001544772 29577050236524195   788888888888889915012017000000000007500001000000888888888888899          0900000000000000000000000000000000000000000000000000000   000000000000000000000005002        170192957705     
0010001300390U 280000000000000000000000000000000000000000000000000000000000000000000000000000000000000000000000000000000000000000000000001603201700000000            000000000000000                              000                           
0010001300391T 280180230000001544772 29577050236531422   788888888888889915012017000000000007500001000000888888888888899          0900000000000000000000000000000000000000000000000000000   000000000000000000000005002        170192957705     
0010001300392U 280000000000000000000000000000000000000000000000000000000000000000000000000000000000000000000000000000000000000000000000001603201700000000            000000000000000                              000                           
0010001300393T 280180230000001544772 29577050236653034   788888888888889915012017000000000010000001000000888888888888899          0900000000000000000000000000000000000000000000000000000   000000000000000000000005002        170192957705     
0010001300394U 280000000000000000000000000000000000000000000000000000000000000000000000000000000000000000000000000000000000000000000000001603201700000000            000000000000000                              000                           
0010001300395T 280180230000001544772 29577050236707289   788888888888889915012017000000000007500001000000888888888888899          0900000000000000000000000000000000000000000000000000000   000000000000000000000005002        170192957705     
0010001300396U 280000000000000000000000000000000000000000000000000000000000000000000000000000000000000000000000000000000000000000000000001603201700000000            000000000000000                              000                           
0010001300397T 280180230000001544772 29577050236845600   788888888888889915012017000000000007500001000000888888888888899          0900000000000000000000000000000000000000000000000000000   000000000000000000000005002        170192957705     
0010001300398U 280000000000000000000000000000000000000000000000000000000000000000000000000000000000000000000000000000000000000000000000001603201700000000            000000000000000                              000                           
0010001300399T 280180230000001544772 29577050236922720   788888888888889915012017000000000007500001000000888888888888899          0900000000000000000000000000000000000000000000000000000   000000000000000000000005002        170192957705     
0010001300400U 280000000000000000000000000000000000000000000000000000000000000000000000000000000000000000000000000000000000000000000000001603201700000000            000000000000000                              000                           
0010001300401T 280180230000001544772 29577050237058706   788888888888889915012017000000000007500001000000888888888888899          0900000000000000000000000000000000000000000000000000000   000000000000000000000005002        170192957705     
0010001300402U 280000000000000000000000000000000000000000000000000000000000000000000000000000000000000000000000000000000000000000000000001603201700000000            000000000000000                              000                           
0010001300403T 280180230000001544772 29577050237131593   788888888888889915012017000000000007500001000000888888888888899          0900000000000000000000000000000000000000000000000000000   000000000000000000000005002        170192957705     
0010001300404U 280000000000000000000000000000000000000000000000000000000000000000000000000000000000000000000000000000000000000000000000001603201700000000            000000000000000                              000                           
0010001300405T 280180230000001544772 29577050237219069   788888888888889915012017000000000007500001000000888888888888899          0900000000000000000000000000000000000000000000000000000   000000000000000000000005002        170192957705     
0010001300406U 280000000000000000000000000000000000000000000000000000000000000000000000000000000000000000000000000000000000000000000000001603201700000000            000000000000000                              000                           
0010001300407T 280180230000001544772 29577050237338149   788888888888889915012017000000000007500001000000888888888888899          0900000000000000000000000000000000000000000000000000000   000000000000000000000005002        170192957705     
0010001300408U 280000000000000000000000000000000000000000000000000000000000000000000000000000000000000000000000000000000000000000000000001603201700000000            000000000000000                              000                           
0010001300409T 280180230000001544772 29577050237502087   788888888888889915012017000000000007500001000000888888888888899          0900000000000000000000000000000000000000000000000000000   000000000000000000000005002        170192957705     
0010001300410U 280000000000000000000000000000000000000000000000000000000000000000000000000000000000000000000000000000000000000000000000001603201700000000            000000000000000                              000                           
0010001300411T 280180230000001544772 29577050237646307   788888888888889915012017000000000010000001000000888888888888899          0900000000000000000000000000000000000000000000000000000   000000000000000000000005002        170192957705     
0010001300412U 280000000000000000000000000000000000000000000000000000000000000000000000000000000000000000000000000000000000000000000000001603201700000000            000000000000000                              000                           
