00100000         2247745860001000029577050014       0180230000001544772 INSTITUTO DE SELECAO E TECNOLOBANCO DO BRASIL                         21703201701132700013603000000515122941PROCESSAMEN                                                 
00100011T0100020 20247745860001000029577050014       0180230000001544772 INSTITUTO DE SELECAO E TECNOLO                                                                                000000001703201700000000  000000000                      
0010001300001T 020180230000001544772 29577050044550756   7               18032017000000000007500001000213                         0900000000000010000000000000000000000000000000000000000   0000000000000000000000000A9        170192957705     
0010001300002U 020000000000000000000000000000000000000000000000000000000000000000000000000000000000000000000000000000000000000000000000001603201700000000            000000000000000                              000                           
0010001300003T 020180230000001544772 29577050170720390   7               19032017000000000007500001012408                         0900000000000010000000000000000000000000000000000000000   0000000000000000000000000A9        170192957705     
0010001300004U 020000000000000000000000000000000000000000000000000000000000000000000000000000000000000000000000000000000000000000000000001703201700000000            000000000000000                              000                           
0010001300005T 020180230000001544772 29577050170819820   7               19032017000000000007500001012408                         0900000000000010000000000000000000000000000000000000000   0000000000000000000000000A9        170192957705     
0010001300006U 020000000000000000000000000000000000000000000000000000000000000000000000000000000000000000000000000000000000000000000000001703201700000000            000000000000000                              000                           
0010001300007T 020180230000001544772 29577050204950064   7               19032017000000000007500001046280                         0900000000000010000000000000000000000000000000000000000   0000000000000000000000000A9        170192957705     
0010001300008U 020000000000000000000000000000000000000000000000000000000000000000000000000000000000000000000000000000000000000000000000001703201700000000            000000000000000                              000                           
0010001300009T 020180230000001544772 29577050247725876   7               19032017000000000007500001000213                         0900000000000010000000000000000000000000000000000000000   0000000000000000000000000A9        170192957705     
0010001300010U 020000000000000000000000000000000000000000000000000000000000000000000000000000000000000000000000000000000000000000000000001703201700000000            000000000000000                              000                           
0010001300011T 020180230000001544772 29577050247738599   7               19032017000000000007500001000213                         0900000000000010000000000000000000000000000000000000000   0000000000000000000000000A9        170192957705     
0010001300012U 020000000000000000000000000000000000000000000000000000000000000000000000000000000000000000000000000000000000000000000000001703201700000000            000000000000000                              000                           
0010001300013T 020180230000001544772 29577050255804001   7               1903201700000000000750000104590X                         0900000000000010000000000000000000000000000000000000000   0000000000000000000000000A9        170192957705     
0010001300014U 020000000000000000000000000000000000000000000000000000000000000000000000000000000000000000000000000000000000000000000000001703201700000000            000000000000000                              000                           
0010001300015T 020180230000001544772 29577050255852300   7               1903201700000000000750000104590X                         0900000000000010000000000000000000000000000000000000000   0000000000000000000000000A9        170192957705     
0010001300016U 020000000000000000000000000000000000000000000000000000000000000000000000000000000000000000000000000000000000000000000000001703201700000000            000000000000000                              000                           
0010001300017T 020180230000001544772 29577050325405839   7               19032017000000000007500001046280                         0900000000000010000000000000000000000000000000000000000   0000000000000000000000000A9        170192957705     
0010001300018U 020000000000000000000000000000000000000000000000000000000000000000000000000000000000000000000000000000000000000000000000001703201700000000            000000000000000                              000                           
0010001300019T 020180230000001544772 29577050338637802   7               19032017000000000007500001024511                         0900000000000010000000000000000000000000000000000000000   0000000000000000000000000A9        170192957705     
0010001300020U 020000000000000000000000000000000000000000000000000000000000000000000000000000000000000000000000000000000000000000000000001703201700000000            000000000000000                              000                           
0010001300021T 020180230000001544772 29577050340702044   7               19032017000000000007500001000213                         0900000000000010000000000000000000000000000000000000000   0000000000000000000000000A9        170192957705     
0010001300022U 020000000000000000000000000000000000000000000000000000000000000000000000000000000000000000000000000000000000000000000000001703201700000000            000000000000000                              000                           
0010001300023T 020180230000001544772 29577050341538490   7               1903201700000000000750000103049X                         0900000000000010000000000000000000000000000000000000000   0000000000000000000000000A9        170192957705     
0010001300024U 020000000000000000000000000000000000000000000000000000000000000000000000000000000000000000000000000000000000000000000000001703201700000000            000000000000000                              000                           
0010001300025T 020180230000001544772 29577050410057078   7               19032017000000000007500001012416                         0900000000000010000000000000000000000000000000000000000   0000000000000000000000000A9        170192957705     
0010001300026U 020000000000000000000000000000000000000000000000000000000000000000000000000000000000000000000000000000000000000000000000001703201700000000            000000000000000                              000                           
0010001300027T 020180230000001544772 29577050456841011   7               19032017000000000007500001000213                         0900000000000010000000000000000000000000000000000000000   0000000000000000000000000A9        170192957705     
0010001300028U 020000000000000000000000000000000000000000000000000000000000000000000000000000000000000000000000000000000000000000000000001703201700000000            000000000000000                              000                           
0010001300029T 020180230000001544772 29577050656440506   7               1903201700000000000750000103049X                         0900000000000010000000000000000000000000000000000000000   0000000000000000000000000A9        170192957705     
0010001300030U 020000000000000000000000000000000000000000000000000000000000000000000000000000000000000000000000000000000000000000000000001703201700000000            000000000000000                              000                           
0010001300031T 020180230000001544772 29577050744417077   7               1903201700000000000750000103049X                         0900000000000010000000000000000000000000000000000000000   0000000000000000000000000A9        170192957705     
0010001300032U 020000000000000000000000000000000000000000000000000000000000000000000000000000000000000000000000000000000000000000000000001703201700000000            000000000000000                              000                           
0010001300033T 020180230000001544772 29577050772038945   7               19032017000000000007500001000213                         0900000000000010000000000000000000000000000000000000000   0000000000000000000000000A9        170192957705     
0010001300034U 020000000000000000000000000000000000000000000000000000000000000000000000000000000000000000000000000000000000000000000000001703201700000000            000000000000000                              000                           
0010001300035T 020180230000001544772 29577051120150021   7               1903201700000000000750000103049X                         0900000000000010500000000000000000000000000000000000000   0000000000000000000000000A9A4      170192957705     
0010001300036U 020000000000000000000000000000000000000000000000000000000000000000000000000000000000000000000000000000000000000000000000001703201700000000            000000000000000                              000                           
0010001300037T 020180230000001544772 29577051186302033   7               19032017000000000007500001000213                         0900000000000010000000000000000000000000000000000000000   0000000000000000000000000A9        170192957705     
0010001300038U 020000000000000000000000000000000000000000000000000000000000000000000000000000000000000000000000000000000000000000000000001703201700000000            000000000000000                              000                           
0010001300039T 020180230000001544772 29577051252054341   7               1903201700000000000750000103049X                         0900000000000010500000000000000000000000000000000000000   0000000000000000000000000A9A4      170192957705     
0010001300040U 020000000000000000000000000000000000000000000000000000000000000000000000000000000000000000000000000000000000000000000000001703201700000000            000000000000000                              000                           
0010001300041T 020180230000001544772 29577051252253091   7               1903201700000000000750000103049X                         0900000000000010500000000000000000000000000000000000000   0000000000000000000000000A9A4      170192957705     
0010001300042U 020000000000000000000000000000000000000000000000000000000000000000000000000000000000000000000000000000000000000000000000001703201700000000            000000000000000                              000                           
0010001300043T 020180230000001544772 29577051265003905   7               19032017000000000007500001000213                         0900000000000010000000000000000000000000000000000000000   0000000000000000000000000A9        170192957705     
0010001300044U 020000000000000000000000000000000000000000000000000000000000000000000000000000000000000000000000000000000000000000000000001703201700000000            000000000000000                              000                           
0010001300045T 020180230000001544772 29577051311007876   7               19032017000000000007500001000213                         0900000000000010000000000000000000000000000000000000000   0000000000000000000000000A9        170192957705     
0010001300046U 020000000000000000000000000000000000000000000000000000000000000000000000000000000000000000000000000000000000000000000000001703201700000000            000000000000000                              000                           
0010001300047T 020180230000001544772 29577051322912840   7               19032017000000000007500001012416                         0900000000000010000000000000000000000000000000000000000   0000000000000000000000000A9        170192957705     
0010001300048U 020000000000000000000000000000000000000000000000000000000000000000000000000000000000000000000000000000000000000000000000001703201700000000            000000000000000                              000                           
0010001300049T 020180230000001544772 29577051325959371   7               18032017000000000007500001009245                         0900000000000010000000000000000000000000000000000000000   0000000000000000000000000A9        170192957705     
0010001300050U 020000000000000000000000000000000000000000000000000000000000000000000000000000000000000000000000000000000000000000000000001603201700000000            000000000000000                              000                           
0010001300051T 020180230000001544772 29577051326908489   7               19032017000000000007500001000213                         0900000000000010000000000000000000000000000000000000000   0000000000000000000000000A9        170192957705     
0010001300052U 020000000000000000000000000000000000000000000000000000000000000000000000000000000000000000000000000000000000000000000000001703201700000000            000000000000000                              000                           
0010001300053T 020180230000001544772 29577051329411455   7               19032017000000000007500001000213                         0900000000000010000000000000000000000000000000000000000   0000000000000000000000000A9        170192957705     
0010001300054U 020000000000000000000000000000000000000000000000000000000000000000000000000000000000000000000000000000000000000000000000001703201700000000            000000000000000                              000                           
0010001300055T 020180230000001544772 29577051329615626   7               19032017000000000007500001012408                         0900000000000010000000000000000000000000000000000000000   0000000000000000000000000A9        170192957705     
0010001300056U 020000000000000000000000000000000000000000000000000000000000000000000000000000000000000000000000000000000000000000000000001703201700000000            000000000000000                              000                           
0010001300057T 020180230000001544772 29577051330042343   7               1903201700000000000750000100829X                         0900000000000010000000000000000000000000000000000000000   0000000000000000000000000A9        170192957705     
0010001300058U 020000000000000000000000000000000000000000000000000000000000000000000000000000000000000000000000000000000000000000000000001703201700000000            000000000000000                              000                           
0010001300059T 020180230000001544772 29577051330128881   7               19032017000000000007500001007145                         0900000000000010000000000000000000000000000000000000000   0000000000000000000000000A9        170192957705     
0010001300060U 020000000000000000000000000000000000000000000000000000000000000000000000000000000000000000000000000000000000000000000000001703201700000000            000000000000000                              000                           
0010001300061T 020180230000001544772 29577051332935040   7               1903201700000000000750000103049X                         0900000000000010000000000000000000000000000000000000000   0000000000000000000000000A9        170192957705     
0010001300062U 020000000000000000000000000000000000000000000000000000000000000000000000000000000000000000000000000000000000000000000000001703201700000000            000000000000000                              000                           
0010001300063T 020180230000001544772 29577051333655106   7               19032017000000000007500001012408                         0900000000000010500000000000000000000000000000000000000   0000000000000000000000000A9A4      170192957705     
0010001300064U 020000000000000000000000000000000000000000000000000000000000000000000000000000000000000000000000000000000000000000000000001703201700000000            000000000000000                              000                           
0010001300065T 020180230000001544772 29577051333712513   7               19032017000000000007500001012416                         0900000000000010000000000000000000000000000000000000000   0000000000000000000000000A9        170192957705     
0010001300066U 020000000000000000000000000000000000000000000000000000000000000000000000000000000000000000000000000000000000000000000000001703201700000000            000000000000000                              000                           
0010001300067T 020180230000001544772 29577051333850046   7               19032017000000000007500001012416                         0900000000000010000000000000000000000000000000000000000   0000000000000000000000000A9        170192957705     
0010001300068U 020000000000000000000000000000000000000000000000000000000000000000000000000000000000000000000000000000000000000000000000001703201700000000            000000000000000                              000                           
0010001300069T 020180230000001544772 29577051335015661   7               19032017000000000007500001004782                         0900000000000010000000000000000000000000000000000000000   0000000000000000000000000A9        170192957705     
0010001300070U 020000000000000000000000000000000000000000000000000000000000000000000000000000000000000000000000000000000000000000000000001703201700000000            000000000000000                              000                           
0010001300071T 020180230000001544772 29577051337422399   7               19032017000000000007500001012416                         0900000000000010000000000000000000000000000000000000000   0000000000000000000000000A9        170192957705     
0010001300072U 020000000000000000000000000000000000000000000000000000000000000000000000000000000000000000000000000000000000000000000000001703201700000000            000000000000000                              000                           
0010001300073T 020180230000001544772 29577051337508374   7               1903201700000000000750000103049X                         0900000000000010000000000000000000000000000000000000000   0000000000000000000000000A9        170192957705     
0010001300074U 020000000000000000000000000000000000000000000000000000000000000000000000000000000000000000000000000000000000000000000000001703201700000000            000000000000000                              000                           
0010001300075T 020180230000001544772 29577051337520112   7               1903201700000000000750000103049X                         0900000000000010000000000000000000000000000000000000000   0000000000000000000000000A9        170192957705     
0010001300076U 020000000000000000000000000000000000000000000000000000000000000000000000000000000000000000000000000000000000000000000000001703201700000000            000000000000000                              000                           
0010001300077T 020180230000001544772 29577051337529828   7               1903201700000000000750000103049X                         0900000000000010000000000000000000000000000000000000000   0000000000000000000000000A9        170192957705     
0010001300078U 020000000000000000000000000000000000000000000000000000000000000000000000000000000000000000000000000000000000000000000000001703201700000000            000000000000000                              000                           
0010001300079T 020180230000001544772 29577051337542021   7               1903201700000000000750000103049X                         0900000000000010000000000000000000000000000000000000000   0000000000000000000000000A9        170192957705     
0010001300080U 020000000000000000000000000000000000000000000000000000000000000000000000000000000000000000000000000000000000000000000000001703201700000000            000000000000000                              000                           
0010001300081T 020180230000001544772 29577051337543045   7               1903201700000000000750000103049X                         0900000000000010000000000000000000000000000000000000000   0000000000000000000000000A9        170192957705     
0010001300082U 020000000000000000000000000000000000000000000000000000000000000000000000000000000000000000000000000000000000000000000000001703201700000000            000000000000000                              000                           
0010001300083T 020180230000001544772 29577051337549486   7               1903201700000000000750000103049X                         0900000000000010000000000000000000000000000000000000000   0000000000000000000000000A9        170192957705     
0010001300084U 020000000000000000000000000000000000000000000000000000000000000000000000000000000000000000000000000000000000000000000000001703201700000000            000000000000000                              000                           
0010001300085T 020180230000001544772 29577051338857395   7               1903201700000000000750000103049X                         0900000000000010000000000000000000000000000000000000000   0000000000000000000000000A9        170192957705     
0010001300086U 020000000000000000000000000000000000000000000000000000000000000000000000000000000000000000000000000000000000000000000000001703201700000000            000000000000000                              000                           
0010001300087T 060180230000001544772 29577050168856540   7               18032017000000000007500021001040                         0900000000000010000000000000000000000000000000000000000   000000000000000000000029000        170192957705     
0010001300088U 060000000000000000000000000000000000000000000000000000000000000000000000075000000000000072100000000000000000000000000000001703201720032017            000000000000000                              000                           
0010001300089T 060180230000001544772 29577050247738599   7               19032017000000000007500237026120                         0900000000000010000000000000000000000000000000000000000   000000000000000000000029000        170192957705     
0010001300090U 060000000000000000000000000000000000000000000000000000000000000000000000075000000000000072100000000000000000000000000000001703201720032017            000000000000000                              000                           
0010001300091T 060180230000001544772 29577050469813552   7               17032017000000000007500104001670                         0900000000000010000000000000000000000000000000000000000   000000000000000000000029000        170192957705     
0010001300092U 060000000000000000000000000000000000000000000000000000000000000000000000075000000000000072100000000000000000000000000000001703201720032017            000000000000000                              000                           
0010001300093T 060180230000001544772 29577051265003905   7               19032017000000000007500001047260                         0900000000000010000000000000000000000000000000000000000   000000000000000000000029000        170192957705     
0010001300094U 060000000000000000000000000000000000000000000000000000000000000000000000075000000000000072100000000000000000000000000000001703201720032017            000000000000000                              000                           
0010001300095T 060180230000001544772 29577051285029127   7               17032017000000000007500104025030                         0900000000000010000000000000000000000000000000000000000   000000000000000000000029000        170192957705     
0010001300096U 060000000000000000000000000000000000000000000000000000000000000000000000075000000000000072100000000000000000000000000000001703201720032017            000000000000000                              000                           
0010001300097T 060180230000001544772 29577051297905498   7               17032017000000000007500001000833                         0900000000000010000000000000000000000000000000000000000   000000000000000000000029000        170192957705     
0010001300098U 060000000000000000000000000000000000000000000000000000000000000000000000075000000000000072100000000000000000000000000000001703201720032017            000000000000000                              000                           
0010001300099T 060180230000001544772 29577051298337093   7               17032017000000000007500001031933                         0900000000000010000000000000000000000000000000000000000   000000000000000000000029000        170192957705     
0010001300100U 060000000000000000000000000000000000000000000000000000000000000000000000075000000000000072100000000000000000000000000000001703201720032017            000000000000000                              000                           
0010001300101T 060180230000001544772 29577051311701265   7               18032017000000000007500104001640                         0900000000000010000000000000000000000000000000000000000   000000000000000000000029000        170192957705     
0010001300102U 060000000000000000000000000000000000000000000000000000000000000000000000075000000000000072100000000000000000000000000000001703201720032017            000000000000000                              000                           
0010001300103T 060180230000001544772 29577051333850046   7               19032017000000000007500104005900                         0900000000000010000000000000000000000000000000000000000   000000000000000000000029000        170192957705     
0010001300104U 060000000000000000000000000000000000000000000000000000000000000000000000075000000000000072100000000000000000000000000000001703201720032017            000000000000000                              000                           
0010001300105T 280180230000001544772 29577050011705635   7               15022017000000000007500001000000                         0900000000000000000000000000000000000000000000000000000   000000000000000000000005002        170192957705     
0010001300106U 280000000000000000000000000000000000000000000000000000000000000000000000000000000000000000000000000000000000000000000000001703201700000000            000000000000000                              000                           
0010001300107T 280180230000001544772 29577050017200323   7               15022017000000000010000001000000                         0900000000000000000000000000000000000000000000000000000   000000000000000000000005002        170192957705     
0010001300108U 280000000000000000000000000000000000000000000000000000000000000000000000000000000000000000000000000000000000000000000000001703201700000000            000000000000000                              000                           
0010001300109T 280180230000001544772 29577050020112045   7               15022017000000000007500001000000                         0900000000000000000000000000000000000000000000000000000   000000000000000000000005002        170192957705     
0010001300110U 280000000000000000000000000000000000000000000000000000000000000000000000000000000000000000000000000000000000000000000000001703201700000000            000000000000000                              000                           
0010001300111T 280180230000001544772 29577050021513524   788888888888889916012017000000000007500001000000888888888888899          0900000000000000000000000000000000000000000000000000000   000000000000000000000005002        170192957705     
0010001300112U 280000000000000000000000000000000000000000000000000000000000000000000000000000000000000000000000000000000000000000000000001703201700000000            000000000000000                              000                           
0010001300113T 280180230000001544772 29577050027653060   788888888888889916012017000000000007500001000000888888888888899          0900000000000000000000000000000000000000000000000000000   000000000000000000000005002        170192957705     
0010001300114U 280000000000000000000000000000000000000000000000000000000000000000000000000000000000000000000000000000000000000000000000001703201700000000            000000000000000                              000                           
0010001300115T 280180230000001544772 29577050032336098   788888888888889916012017000000000007500001000000888888888888899          0900000000000000000000000000000000000000000000000000000   000000000000000000000005002        170192957705     
0010001300116U 280000000000000000000000000000000000000000000000000000000000000000000000000000000000000000000000000000000000000000000000001703201700000000            000000000000000                              000                           
0010001300117T 280180230000001544772 29577050037935289   788888888888889916012017000000000007500001000000888888888888899          0900000000000000000000000000000000000000000000000000000   000000000000000000000005002        170192957705     
0010001300118U 280000000000000000000000000000000000000000000000000000000000000000000000000000000000000000000000000000000000000000000000001703201700000000            000000000000000                              000                           
0010001300119T 280180230000001544772 29577050038151853   7               15022017000000000007500001000000                         0900000000000000000000000000000000000000000000000000000   000000000000000000000005002        170192957705     
0010001300120U 280000000000000000000000000000000000000000000000000000000000000000000000000000000000000000000000000000000000000000000000001703201700000000            000000000000000                              000                           
0010001300121T 280180230000001544772 29577050040933719   7               15022017000000000010000001000000                         0900000000000000000000000000000000000000000000000000000   000000000000000000000005002        170192957705     
0010001300122U 280000000000000000000000000000000000000000000000000000000000000000000000000000000000000000000000000000000000000000000000001703201700000000            000000000000000                              000                           
0010001300123T 280180230000001544772 29577050059445503   7               15022017000000000007500001000000                         0900000000000000000000000000000000000000000000000000000   000000000000000000000005002        170192957705     
0010001300124U 280000000000000000000000000000000000000000000000000000000000000000000000000000000000000000000000000000000000000000000000001703201700000000            000000000000000                              000                           
0010001300125T 280180230000001544772 29577050077710732   7               15022017000000000007500001000000                         0900000000000000000000000000000000000000000000000000000   000000000000000000000005002        170192957705     
0010001300126U 280000000000000000000000000000000000000000000000000000000000000000000000000000000000000000000000000000000000000000000000001703201700000000            000000000000000                              000                           
0010001300127T 280180230000001544772 29577050077717464   7               15022017000000000007500001000000                         0900000000000000000000000000000000000000000000000000000   000000000000000000000005002        170192957705     
0010001300128U 280000000000000000000000000000000000000000000000000000000000000000000000000000000000000000000000000000000000000000000000001703201700000000            000000000000000                              000                           
0010001300129T 280180230000001544772 29577050080811955   788888888888889916012017000000000007500001000000888888888888899          0900000000000000000000000000000000000000000000000000000   000000000000000000000005002        170192957705     
0010001300130U 280000000000000000000000000000000000000000000000000000000000000000000000000000000000000000000000000000000000000000000000001703201700000000            000000000000000                              000                           
0010001300131T 280180230000001544772 29577050085949129   7               15022017000000000007500001000000                         0900000000000000000000000000000000000000000000000000000   000000000000000000000005002        170192957705     
0010001300132U 280000000000000000000000000000000000000000000000000000000000000000000000000000000000000000000000000000000000000000000000001703201700000000            000000000000000                              000                           
0010001300133T 280180230000001544772 29577050088849335   7               15022017000000000007500001000000                         0900000000000000000000000000000000000000000000000000000   000000000000000000000005002        170192957705     
0010001300134U 280000000000000000000000000000000000000000000000000000000000000000000000000000000000000000000000000000000000000000000000001703201700000000            000000000000000                              000                           
0010001300135T 280180230000001544772 29577050093545204   7               15022017000000000007500001000000                         0900000000000000000000000000000000000000000000000000000   000000000000000000000005002        170192957705     
0010001300136U 280000000000000000000000000000000000000000000000000000000000000000000000000000000000000000000000000000000000000000000000001703201700000000            000000000000000                              000                           
0010001300137T 280180230000001544772 29577050093620397   7               15022017000000000007500001000000                         0900000000000000000000000000000000000000000000000000000   000000000000000000000005002        170192957705     
0010001300138U 280000000000000000000000000000000000000000000000000000000000000000000000000000000000000000000000000000000000000000000000001703201700000000            000000000000000                              000                           
0010001300139T 280180230000001544772 29577050094621087   7               15022017000000000007500001000000                         0900000000000000000000000000000000000000000000000000000   000000000000000000000005002        170192957705     
0010001300140U 280000000000000000000000000000000000000000000000000000000000000000000000000000000000000000000000000000000000000000000000001703201700000000            000000000000000                              000                           
0010001300141T 280180230000001544772 29577050096112482   7               15022017000000000007500001000000                         0900000000000000000000000000000000000000000000000000000   000000000000000000000005002        170192957705     
0010001300142U 280000000000000000000000000000000000000000000000000000000000000000000000000000000000000000000000000000000000000000000000001703201700000000            000000000000000                              000                           
0010001300143T 280180230000001544772 29577050096130649   7               15022017000000000007500001000000                         0900000000000000000000000000000000000000000000000000000   000000000000000000000005002        170192957705     
0010001300144U 280000000000000000000000000000000000000000000000000000000000000000000000000000000000000000000000000000000000000000000000001703201700000000            000000000000000                              000                           
0010001300145T 280180230000001544772 29577050103811050   7               15022017000000000007500001000000                         0900000000000000000000000000000000000000000000000000000   000000000000000000000005002        170192957705     
0010001300146U 280000000000000000000000000000000000000000000000000000000000000000000000000000000000000000000000000000000000000000000000001703201700000000            000000000000000                              000                           
0010001300147T 280180230000001544772 29577050105908979   7               15022017000000000007500001000000                         0900000000000000000000000000000000000000000000000000000   000000000000000000000005002        170192957705     
0010001300148U 280000000000000000000000000000000000000000000000000000000000000000000000000000000000000000000000000000000000000000000000001703201700000000            000000000000000                              000                           
0010001300149T 280180230000001544772 29577050106812419   7               15022017000000000007500001000000                         0900000000000000000000000000000000000000000000000000000   000000000000000000000005002        170192957705     
0010001300150U 280000000000000000000000000000000000000000000000000000000000000000000000000000000000000000000000000000000000000000000000001703201700000000            000000000000000                              000                           
0010001300151T 280180230000001544772 29577050120822184   7               15022017000000000007500001000000                         0900000000000000000000000000000000000000000000000000000   000000000000000000000005002        170192957705     
0010001300152U 280000000000000000000000000000000000000000000000000000000000000000000000000000000000000000000000000000000000000000000000001703201700000000            000000000000000                              000                           
0010001300153T 280180230000001544772 29577050121154508   7               15022017000000000007500001000000                         0900000000000000000000000000000000000000000000000000000   000000000000000000000005002        170192957705     
0010001300154U 280000000000000000000000000000000000000000000000000000000000000000000000000000000000000000000000000000000000000000000000001703201700000000            000000000000000                              000                           
0010001300155T 280180230000001544772 29577050121300729   7               15022017000000000007500001000000                         0900000000000000000000000000000000000000000000000000000   000000000000000000000005002        170192957705     
0010001300156U 280000000000000000000000000000000000000000000000000000000000000000000000000000000000000000000000000000000000000000000000001703201700000000            000000000000000                              000                           
0010001300157T 280180230000001544772 29577050122318136   788888888888889916012017000000000007500001000000888888888888899          0900000000000000000000000000000000000000000000000000000   000000000000000000000005002        170192957705     
0010001300158U 280000000000000000000000000000000000000000000000000000000000000000000000000000000000000000000000000000000000000000000000001703201700000000            000000000000000                              000                           
0010001300159T 280180230000001544772 29577050122438717   788888888888889916012017000000000010000001000000888888888888899          0900000000000000000000000000000000000000000000000000000   000000000000000000000005002        170192957705     
0010001300160U 280000000000000000000000000000000000000000000000000000000000000000000000000000000000000000000000000000000000000000000000001703201700000000            000000000000000                              000                           
0010001300161T 280180230000001544772 29577050130507732   788888888888889916012017000000000007500001000000888888888888899          0900000000000000000000000000000000000000000000000000000   000000000000000000000005002        170192957705     
0010001300162U 280000000000000000000000000000000000000000000000000000000000000000000000000000000000000000000000000000000000000000000000001703201700000000            000000000000000                              000                           
0010001300163T 280180230000001544772 29577050130520449   788888888888889916012017000000000007500001000000888888888888899          0900000000000000000000000000000000000000000000000000000   000000000000000000000005002        170192957705     
0010001300164U 280000000000000000000000000000000000000000000000000000000000000000000000000000000000000000000000000000000000000000000000001703201700000000            000000000000000                              000                           
0010001300165T 280180230000001544772 29577050130551412   788888888888889916012017000000000007500001000000888888888888899          0900000000000000000000000000000000000000000000000000000   000000000000000000000005002        170192957705     
0010001300166U 280000000000000000000000000000000000000000000000000000000000000000000000000000000000000000000000000000000000000000000000001703201700000000            000000000000000                              000                           
0010001300167T 280180230000001544772 29577050130552436   788888888888889916012017000000000007500001000000888888888888899          0900000000000000000000000000000000000000000000000000000   000000000000000000000005002        170192957705     
0010001300168U 280000000000000000000000000000000000000000000000000000000000000000000000000000000000000000000000000000000000000000000000001703201700000000            000000000000000                              000                           
0010001300169T 280180230000001544772 29577050140351774   7               15022017000000000007500001000000                         0900000000000000000000000000000000000000000000000000000   000000000000000000000005002        170192957705     
0010001300170U 280000000000000000000000000000000000000000000000000000000000000000000000000000000000000000000000000000000000000000000000001703201700000000            000000000000000                              000                           
0010001300171T 280180230000001544772 29577050143348272   7               15022017000000000007500001000000                         0900000000000000000000000000000000000000000000000000000   000000000000000000000005002        170192957705     
0010001300172U 280000000000000000000000000000000000000000000000000000000000000000000000000000000000000000000000000000000000000000000000001703201700000000            000000000000000                              000                           
0010001300173T 280180230000001544772 29577050143548583   7               15022017000000000007500001000000                         0900000000000000000000000000000000000000000000000000000   000000000000000000000005002        170192957705     
0010001300174U 280000000000000000000000000000000000000000000000000000000000000000000000000000000000000000000000000000000000000000000000001703201700000000            000000000000000                              000                           
0010001300175T 280180230000001544772 29577050154800432   788888888888889916012017000000000007500001000000888888888888899          0900000000000000000000000000000000000000000000000000000   000000000000000000000005002        170192957705     
0010001300176U 280000000000000000000000000000000000000000000000000000000000000000000000000000000000000000000000000000000000000000000000001703201700000000            000000000000000                              000                           
0010001300177T 280180230000001544772 29577050160025619   7               15022017000000000007500001000000                         0900000000000000000000000000000000000000000000000000000   000000000000000000000005002        170192957705     
0010001300178U 280000000000000000000000000000000000000000000000000000000000000000000000000000000000000000000000000000000000000000000000001703201700000000            000000000000000                              000                           
0010001300179T 280180230000001544772 29577050168035986   7               15022017000000000007500001000000                         0900000000000000000000000000000000000000000000000000000   000000000000000000000005002        170192957705     
0010001300180U 280000000000000000000000000000000000000000000000000000000000000000000000000000000000000000000000000000000000000000000000001703201700000000            000000000000000                              000                           
0010001300181T 280180230000001544772 29577050172457635   788888888888889916012017000000000007500001000000888888888888899          0900000000000000000000000000000000000000000000000000000   000000000000000000000005002        170192957705     
0010001300182U 280000000000000000000000000000000000000000000000000000000000000000000000000000000000000000000000000000000000000000000000001703201700000000            000000000000000                              000                           
0010001300183T 280180230000001544772 29577050174508596   788888888888889916012017000000000007500001000000888888888888899          0900000000000000000000000000000000000000000000000000000   000000000000000000000005002        170192957705     
0010001300184U 280000000000000000000000000000000000000000000000000000000000000000000000000000000000000000000000000000000000000000000000001703201700000000            000000000000000                              000                           
0010001300185T 280180230000001544772 29577050174514747   788888888888889916012017000000000007500001000000888888888888899          0900000000000000000000000000000000000000000000000000000   000000000000000000000005002        170192957705     
0010001300186U 280000000000000000000000000000000000000000000000000000000000000000000000000000000000000000000000000000000000000000000000001703201700000000            000000000000000                              000                           
0010001300187T 280180230000001544772 29577050202827769   7               15022017000000000007500001000000                         0900000000000000000000000000000000000000000000000000000   000000000000000000000005002        170192957705     
0010001300188U 280000000000000000000000000000000000000000000000000000000000000000000000000000000000000000000000000000000000000000000000001703201700000000            000000000000000                              000                           
0010001300189T 280180230000001544772 29577050203903742   7               15022017000000000007500001000000                         0900000000000000000000000000000000000000000000000000000   000000000000000000000005002        170192957705     
0010001300190U 280000000000000000000000000000000000000000000000000000000000000000000000000000000000000000000000000000000000000000000000001703201700000000            000000000000000                              000                           
0010001300191T 280180230000001544772 29577050204106951   7               15022017000000000007500001000000                         0900000000000000000000000000000000000000000000000000000   000000000000000000000005002        170192957705     
0010001300192U 280000000000000000000000000000000000000000000000000000000000000000000000000000000000000000000000000000000000000000000000001703201700000000            000000000000000                              000                           
0010001300193T 280180230000001544772 29577050208200644   7               15022017000000000007500001000000                         0900000000000000000000000000000000000000000000000000000   000000000000000000000005002        170192957705     
0010001300194U 280000000000000000000000000000000000000000000000000000000000000000000000000000000000000000000000000000000000000000000000001703201700000000            000000000000000                              000                           
0010001300195T 280180230000001544772 29577050208220762   7               15022017000000000007500001000000                         0900000000000000000000000000000000000000000000000000000   000000000000000000000005002        170192957705     
0010001300196U 280000000000000000000000000000000000000000000000000000000000000000000000000000000000000000000000000000000000000000000000001703201700000000            000000000000000                              000                           
0010001300197T 280180230000001544772 29577050208310952   7               15022017000000000007500001000000                         0900000000000000000000000000000000000000000000000000000   000000000000000000000005002        170192957705     
0010001300198U 280000000000000000000000000000000000000000000000000000000000000000000000000000000000000000000000000000000000000000000000001703201700000000            000000000000000                              000                           
0010001300199T 280180230000001544772 29577050211907994   788888888888889916012017000000000007500001000000888888888888899          0900000000000000000000000000000000000000000000000000000   000000000000000000000005002        170192957705     
0010001300200U 280000000000000000000000000000000000000000000000000000000000000000000000000000000000000000000000000000000000000000000000001703201700000000            000000000000000                              000                           
0010001300201T 280180230000001544772 29577050216359814   788888888888889916012017000000000007500001000000888888888888899          0900000000000000000000000000000000000000000000000000000   000000000000000000000005002        170192957705     
0010001300202U 280000000000000000000000000000000000000000000000000000000000000000000000000000000000000000000000000000000000000000000000001703201700000000            000000000000000                              000                           
0010001300203T 280180230000001544772 29577050232929628   7               15022017000000000010000001000000                         0900000000000000000000000000000000000000000000000000000   000000000000000000000005002        170192957705     
0010001300204U 280000000000000000000000000000000000000000000000000000000000000000000000000000000000000000000000000000000000000000000000001703201700000000            000000000000000                              000                           
0010001300205T 280180230000001544772 29577050232952099   7               15022017000000000010000001000000                         0900000000000000000000000000000000000000000000000000000   000000000000000000000005002        170192957705     
0010001300206U 280000000000000000000000000000000000000000000000000000000000000000000000000000000000000000000000000000000000000000000000001703201700000000            000000000000000                              000                           
0010001300207T 280180230000001544772 29577050237552137   7               15022017000000000007500001000000                         0900000000000000000000000000000000000000000000000000000   000000000000000000000005002        170192957705     
0010001300208U 280000000000000000000000000000000000000000000000000000000000000000000000000000000000000000000000000000000000000000000000001703201700000000            000000000000000                              000                           
0010001300209T 280180230000001544772 29577050238647442   788888888888889916012017000000000007500001000000888888888888899          0900000000000000000000000000000000000000000000000000000   000000000000000000000005002        170192957705     
0010001300210U 280000000000000000000000000000000000000000000000000000000000000000000000000000000000000000000000000000000000000000000000001703201700000000            000000000000000                              000                           
0010001300211T 280180230000001544772 29577050238741165   788888888888889916012017000000000010000001000000888888888888899          0900000000000000000000000000000000000000000000000000000   000000000000000000000005002        170192957705     
0010001300212U 280000000000000000000000000000000000000000000000000000000000000000000000000000000000000000000000000000000000000000000000001703201700000000            000000000000000                              000                           
0010001300213T 280180230000001544772 29577050238825953   788888888888889916012017000000000007500001000000888888888888899          0900000000000000000000000000000000000000000000000000000   000000000000000000000005002        170192957705     
0010001300214U 280000000000000000000000000000000000000000000000000000000000000000000000000000000000000000000000000000000000000000000000001703201700000000            000000000000000                              000                           
0010001300215T 280180230000001544772 29577050239059136   788888888888889916012017000000000007500001000000888888888888899          0900000000000000000000000000000000000000000000000000000   000000000000000000000005002        170192957705     
0010001300216U 280000000000000000000000000000000000000000000000000000000000000000000000000000000000000000000000000000000000000000000000001703201700000000            000000000000000                              000                           
0010001300217T 280180230000001544772 29577050239100501   788888888888889916012017000000000007500001000000888888888888899          0900000000000000000000000000000000000000000000000000000   000000000000000000000005002        170192957705     
0010001300218U 280000000000000000000000000000000000000000000000000000000000000000000000000000000000000000000000000000000000000000000000001703201700000000            000000000000000                              000                           
0010001300219T 280180230000001544772 29577050239228636   788888888888889916012017000000000007500001000000888888888888899          0900000000000000000000000000000000000000000000000000000   000000000000000000000005002        170192957705     
0010001300220U 280000000000000000000000000000000000000000000000000000000000000000000000000000000000000000000000000000000000000000000000001703201700000000            000000000000000                              000                           
0010001300221T 280180230000001544772 29577050239300614   788888888888889916012017000000000007500001000000888888888888899          0900000000000000000000000000000000000000000000000000000   000000000000000000000005002        170192957705     
0010001300222U 280000000000000000000000000000000000000000000000000000000000000000000000000000000000000000000000000000000000000000000000001703201700000000            000000000000000                              000                           
0010001300223T 280180230000001544772 29577050239429335   788888888888889916012017000000000007500001000000888888888888899          0900000000000000000000000000000000000000000000000000000   000000000000000000000005002        170192957705     
0010001300224U 280000000000000000000000000000000000000000000000000000000000000000000000000000000000000000000000000000000000000000000000001703201700000000            000000000000000                              000                           
0010001300225T 280180230000001544772 29577050239503600   788888888888889916012017000000000007500001000000888888888888899          0900000000000000000000000000000000000000000000000000000   000000000000000000000005002        170192957705     
0010001300226U 280000000000000000000000000000000000000000000000000000000000000000000000000000000000000000000000000000000000000000000000001703201700000000            000000000000000                              000                           
0010001300227T 280180230000001544772 29577050239649765   788888888888889916012017000000000010000001000000888888888888899          0900000000000000000000000000000000000000000000000000000   000000000000000000000005002        170192957705     
0010001300228U 280000000000000000000000000000000000000000000000000000000000000000000000000000000000000000000000000000000000000000000000001703201700000000            000000000000000                              000                           
0010001300229T 280180230000001544772 29577050239710906   788888888888889916012017000000000010000001000000888888888888899          0900000000000000000000000000000000000000000000000000000   000000000000000000000005002        170192957705     
0010001300230U 280000000000000000000000000000000000000000000000000000000000000000000000000000000000000000000000000000000000000000000000001703201700000000            000000000000000                              000                           
0010001300231T 280180230000001544772 29577050239836203   788888888888889916012017000000000007500001000000888888888888899          0900000000000000000000000000000000000000000000000000000   000000000000000000000005002        170192957705     
0010001300232U 280000000000000000000000000000000000000000000000000000000000000000000000000000000000000000000000000000000000000000000000001703201700000000            000000000000000                              000                           
0010001300233T 280180230000001544772 29577050239947390   788888888888889916012017000000000007500001000000888888888888899          0900000000000000000000000000000000000000000000000000000   000000000000000000000005002        170192957705     
0010001300234U 280000000000000000000000000000000000000000000000000000000000000000000000000000000000000000000000000000000000000000000000001703201700000000            000000000000000                              000                           
0010001300235T 280180230000001544772 29577050240027304   788888888888889916012017000000000007500001000000888888888888899          0900000000000000000000000000000000000000000000000000000   000000000000000000000005002        170192957705     
0010001300236U 280000000000000000000000000000000000000000000000000000000000000000000000000000000000000000000000000000000000000000000000001703201700000000            000000000000000                              000                           
0010001300237T 280180230000001544772 29577050240142599   788888888888889916012017000000000007500001000000888888888888899          0900000000000000000000000000000000000000000000000000000   000000000000000000000005002        170192957705     
0010001300238U 280000000000000000000000000000000000000000000000000000000000000000000000000000000000000000000000000000000000000000000000001703201700000000            000000000000000                              000                           
0010001300239T 280180230000001544772 29577050240317916   788888888888889916012017000000000007500001000000888888888888899          0900000000000000000000000000000000000000000000000000000   000000000000000000000005002        170192957705     
0010001300240U 280000000000000000000000000000000000000000000000000000000000000000000000000000000000000000000000000000000000000000000000001703201700000000            000000000000000                              000                           
0010001300241T 280180230000001544772 29577050240610575   788888888888889916012017000000000007500001000000888888888888899          0900000000000000000000000000000000000000000000000000000   000000000000000000000005002        170192957705     
0010001300242U 280000000000000000000000000000000000000000000000000000000000000000000000000000000000000000000000000000000000000000000000001703201700000000            000000000000000                              000                           
0010001300243T 280180230000001544772 29577050240859366   788888888888889916012017000000000007500001000000888888888888899          0900000000000000000000000000000000000000000000000000000   000000000000000000000005002        170192957705     
0010001300244U 280000000000000000000000000000000000000000000000000000000000000000000000000000000000000000000000000000000000000000000000001703201700000000            000000000000000                              000                           
0010001300245T 280180230000001544772 29577050240901784   788888888888889916012017000000000007500001000000888888888888899          0900000000000000000000000000000000000000000000000000000   000000000000000000000005002        170192957705     
0010001300246U 280000000000000000000000000000000000000000000000000000000000000000000000000000000000000000000000000000000000000000000000001703201700000000            000000000000000                              000                           
0010001300247T 280180230000001544772 29577050241043932   788888888888889916012017000000000007500001000000888888888888899          0900000000000000000000000000000000000000000000000000000   000000000000000000000005002        170192957705     
0010001300248U 280000000000000000000000000000000000000000000000000000000000000000000000000000000000000000000000000000000000000000000000001703201700000000            000000000000000                              000                           
0010001300249T 280180230000001544772 29577050241045320   788888888888889916012017000000000007500001000000888888888888899          0900000000000000000000000000000000000000000000000000000   000000000000000000000005002        170192957705     
0010001300250U 280000000000000000000000000000000000000000000000000000000000000000000000000000000000000000000000000000000000000000000000001703201700000000            000000000000000                              000                           
0010001300251T 280180230000001544772 29577050241059902   788888888888889916012017000000000007500001000000888888888888899          0900000000000000000000000000000000000000000000000000000   000000000000000000000005002        170192957705     
0010001300252U 280000000000000000000000000000000000000000000000000000000000000000000000000000000000000000000000000000000000000000000000001703201700000000            000000000000000                              000                           
0010001300253T 280180230000001544772 29577050241154370   788888888888889916012017000000000010000001000000888888888888899          0900000000000000000000000000000000000000000000000000000   000000000000000000000005002        170192957705     
0010001300254U 280000000000000000000000000000000000000000000000000000000000000000000000000000000000000000000000000000000000000000000000001703201700000000            000000000000000                              000                           
0010001300255T 280180230000001544772 29577050241245185   788888888888889916012017000000000010000001000000888888888888899          0900000000000000000000000000000000000000000000000000000   000000000000000000000005002        170192957705     
0010001300256U 280000000000000000000000000000000000000000000000000000000000000000000000000000000000000000000000000000000000000000000000001703201700000000            000000000000000                              000                           
0010001300257T 280180230000001544772 29577050241327247   788888888888889916012017000000000007500001000000888888888888899          0900000000000000000000000000000000000000000000000000000   000000000000000000000005002        170192957705     
0010001300258U 280000000000000000000000000000000000000000000000000000000000000000000000000000000000000000000000000000000000000000000000001703201700000000            000000000000000                              000                           
0010001300259T 280180230000001544772 29577050241437331   788888888888889916012017000000000007500001000000888888888888899          0900000000000000000000000000000000000000000000000000000   000000000000000000000005002        170192957705     
0010001300260U 280000000000000000000000000000000000000000000000000000000000000000000000000000000000000000000000000000000000000000000000001703201700000000            000000000000000                              000                           
0010001300261T 280180230000001544772 29577050241617313   788888888888889916012017000000000010000001000000888888888888899          0900000000000000000000000000000000000000000000000000000   000000000000000000000005002        170192957705     
0010001300262U 280000000000000000000000000000000000000000000000000000000000000000000000000000000000000000000000000000000000000000000000001703201700000000            000000000000000                              000                           
0010001300263T 280180230000001544772 29577050241733081   788888888888889916012017000000000007500001000000888888888888899          0900000000000000000000000000000000000000000000000000000   000000000000000000000005002        170192957705     
0010001300264U 280000000000000000000000000000000000000000000000000000000000000000000000000000000000000000000000000000000000000000000000001703201700000000            000000000000000                              000                           
0010001300265T 280180230000001544772 29577050241825574   788888888888889916012017000000000007500001000000888888888888899          0900000000000000000000000000000000000000000000000000000   000000000000000000000005002        170192957705     
0010001300266U 280000000000000000000000000000000000000000000000000000000000000000000000000000000000000000000000000000000000000000000000001703201700000000            000000000000000                              000                           
0010001300267T 280180230000001544772 29577050242033738   788888888888889916012017000000000007500001000000888888888888899          0900000000000000000000000000000000000000000000000000000   000000000000000000000005002        170192957705     
0010001300268U 280000000000000000000000000000000000000000000000000000000000000000000000000000000000000000000000000000000000000000000000001703201700000000            000000000000000                              000                           
0010001300269T 280180230000001544772 29577050242151439   788888888888889916012017000000000007500001000000888888888888899          0900000000000000000000000000000000000000000000000000000   000000000000000000000005002        170192957705     
0010001300270U 280000000000000000000000000000000000000000000000000000000000000000000000000000000000000000000000000000000000000000000000001703201700000000            000000000000000                              000                           
0010001300271T 280180230000001544772 29577050242254493   788888888888889916012017000000000007500001000000888888888888899          0900000000000000000000000000000000000000000000000000000   000000000000000000000005002        170192957705     
0010001300272U 280000000000000000000000000000000000000000000000000000000000000000000000000000000000000000000000000000000000000000000000001703201700000000            000000000000000                              000                           
0010001300273T 280180230000001544772 29577050242354098   788888888888889916012017000000000007500001000000888888888888899          0900000000000000000000000000000000000000000000000000000   000000000000000000000005002        170192957705     
0010001300274U 280000000000000000000000000000000000000000000000000000000000000000000000000000000000000000000000000000000000000000000000001703201700000000            000000000000000                              000                           
0010001300275T 280180230000001544772 29577050242402989   788888888888889916012017000000000007500001000000888888888888899          0900000000000000000000000000000000000000000000000000000   000000000000000000000005002        170192957705     
0010001300276U 280000000000000000000000000000000000000000000000000000000000000000000000000000000000000000000000000000000000000000000000001703201700000000            000000000000000                              000                           
0010001300277T 280180230000001544772 29577050242434986   788888888888889916012017000000000007500001000000888888888888899          0900000000000000000000000000000000000000000000000000000   000000000000000000000005002        170192957705     
0010001300278U 280000000000000000000000000000000000000000000000000000000000000000000000000000000000000000000000000000000000000000000000001703201700000000            000000000000000                              000                           
0010001300279T 280180230000001544772 29577050242642916   788888888888889916012017000000000007500001000000888888888888899          0900000000000000000000000000000000000000000000000000000   000000000000000000000005002        170192957705     
0010001300280U 280000000000000000000000000000000000000000000000000000000000000000000000000000000000000000000000000000000000000000000000001703201700000000            000000000000000                              000                           
0010001300281T 280180230000001544772 29577050242647128   788888888888889916012017000000000007500001000000888888888888899          0900000000000000000000000000000000000000000000000000000   000000000000000000000005002        170192957705     
0010001300282U 280000000000000000000000000000000000000000000000000000000000000000000000000000000000000000000000000000000000000000000000001703201700000000            000000000000000                              000                           
0010001300283T 280180230000001544772 29577050242723353   788888888888889916012017000000000007500001000000888888888888899          0900000000000000000000000000000000000000000000000000000   000000000000000000000005002        170192957705     
0010001300284U 280000000000000000000000000000000000000000000000000000000000000000000000000000000000000000000000000000000000000000000000001703201700000000            000000000000000                              000                           
0010001300285T 280180230000001544772 29577050242755499   788888888888889916012017000000000007500001000000888888888888899          0900000000000000000000000000000000000000000000000000000   000000000000000000000005002        170192957705     
0010001300286U 280000000000000000000000000000000000000000000000000000000000000000000000000000000000000000000000000000000000000000000000001703201700000000            000000000000000                              000                           
0010001300287T 280180230000001544772 29577050242836552   788888888888889916012017000000000007500001000000888888888888899          0900000000000000000000000000000000000000000000000000000   000000000000000000000005002        170192957705     
0010001300288U 280000000000000000000000000000000000000000000000000000000000000000000000000000000000000000000000000000000000000000000000001703201700000000            000000000000000                              000                           
0010001300289T 280180230000001544772 29577050242922381   788888888888889916012017000000000007500001000000888888888888899          0900000000000000000000000000000000000000000000000000000   000000000000000000000005002        170192957705     
0010001300290U 280000000000000000000000000000000000000000000000000000000000000000000000000000000000000000000000000000000000000000000000001703201700000000            000000000000000                              000                           
0010001300291T 280180230000001544772 29577050243029117   788888888888889916012017000000000007500001000000888888888888899          0900000000000000000000000000000000000000000000000000000   000000000000000000000005002        170192957705     
0010001300292U 280000000000000000000000000000000000000000000000000000000000000000000000000000000000000000000000000000000000000000000000001703201700000000            000000000000000                              000                           
0010001300293T 280180230000001544772 29577050243107932   788888888888889916012017000000000007500001000000888888888888899          0900000000000000000000000000000000000000000000000000000   000000000000000000000005002        170192957705     
0010001300294U 280000000000000000000000000000000000000000000000000000000000000000000000000000000000000000000000000000000000000000000000001703201700000000            000000000000000                              000                           
0010001300295T 280180230000001544772 29577050243610670   788888888888889916012017000000000007500001000000888888888888899          0900000000000000000000000000000000000000000000000000000   000000000000000000000005002        170192957705     
0010001300296U 280000000000000000000000000000000000000000000000000000000000000000000000000000000000000000000000000000000000000000000000001703201700000000            000000000000000                              000                           
0010001300297T 280180230000001544772 29577050243735069   788888888888889916012017000000000007500001000000888888888888899          0900000000000000000000000000000000000000000000000000000   000000000000000000000005002        170192957705     
0010001300298U 280000000000000000000000000000000000000000000000000000000000000000000000000000000000000000000000000000000000000000000000001703201700000000            000000000000000                              000                           
0010001300299T 280180230000001544772 29577050243910384   788888888888889916012017000000000007500001000000888888888888899          0900000000000000000000000000000000000000000000000000000   000000000000000000000005002        170192957705     
0010001300300U 280000000000000000000000000000000000000000000000000000000000000000000000000000000000000000000000000000000000000000000000001703201700000000            000000000000000                              000                           
0010001300301T 280180230000001544772 29577050243935716   788888888888889916012017000000000007500001000000888888888888899          0900000000000000000000000000000000000000000000000000000   000000000000000000000005002        170192957705     
0010001300302U 280000000000000000000000000000000000000000000000000000000000000000000000000000000000000000000000000000000000000000000000001703201700000000            000000000000000                              000                           
0010001300303T 280180230000001544772 29577050244036152   788888888888889916012017000000000007500001000000888888888888899          0900000000000000000000000000000000000000000000000000000   000000000000000000000005002        170192957705     
0010001300304U 280000000000000000000000000000000000000000000000000000000000000000000000000000000000000000000000000000000000000000000000001703201700000000            000000000000000                              000                           
0010001300305T 280180230000001544772 29577050244126693   788888888888889916012017000000000007500001000000888888888888899          0900000000000000000000000000000000000000000000000000000   000000000000000000000005002        170192957705     
0010001300306U 280000000000000000000000000000000000000000000000000000000000000000000000000000000000000000000000000000000000000000000000001703201700000000            000000000000000                              000                           
0010001300307T 280180230000001544772 29577050244219121   788888888888889916012017000000000010000001000000888888888888899          0900000000000000000000000000000000000000000000000000000   000000000000000000000005002        170192957705     
0010001300308U 280000000000000000000000000000000000000000000000000000000000000000000000000000000000000000000000000000000000000000000000001703201700000000            000000000000000                              000                           
0010001300309T 280180230000001544772 29577050244300908   788888888888889916012017000000000007500001000000888888888888899          0900000000000000000000000000000000000000000000000000000   000000000000000000000005002        170192957705     
0010001300310U 280000000000000000000000000000000000000000000000000000000000000000000000000000000000000000000000000000000000000000000000001703201700000000            000000000000000                              000                           
0010001300311T 280180230000001544772 29577050244559053   788888888888889916012017000000000010000001000000888888888888899          0900000000000000000000000000000000000000000000000000000   000000000000000000000005002        170192957705     
0010001300312U 280000000000000000000000000000000000000000000000000000000000000000000000000000000000000000000000000000000000000000000000001703201700000000            000000000000000                              000                           
0010001300313T 280180230000001544772 29577050244658709   788888888888889916012017000000000007500001000000888888888888899          0900000000000000000000000000000000000000000000000000000   000000000000000000000005002        170192957705     
0010001300314U 280000000000000000000000000000000000000000000000000000000000000000000000000000000000000000000000000000000000000000000000001703201700000000            000000000000000                              000                           
0010001300315T 280180230000001544772 29577050244748984   788888888888889916012017000000000007500001000000888888888888899          0900000000000000000000000000000000000000000000000000000   000000000000000000000005002        170192957705     
0010001300316U 280000000000000000000000000000000000000000000000000000000000000000000000000000000000000000000000000000000000000000000000001703201700000000            000000000000000                              000                           
0010001300317T 280180230000001544772 29577050249017452   7               15022017000000000007500001000000                         0900000000000000000000000000000000000000000000000000000   000000000000000000000005002        170192957705     
0010001300318U 280000000000000000000000000000000000000000000000000000000000000000000000000000000000000000000000000000000000000000000000001703201700000000            000000000000000                              000                           
0010001300319T 280180230000001544772 29577050250509207   7               15022017000000000007500001000000                         0900000000000000000000000000000000000000000000000000000   000000000000000000000005002        170192957705     
0010001300320U 280000000000000000000000000000000000000000000000000000000000000000000000000000000000000000000000000000000000000000000000001703201700000000            000000000000000                              000                           
0010001300321T 280180230000001544772 29577050250559397   7               15022017000000000007500001000000                         0900000000000000000000000000000000000000000000000000000   000000000000000000000005002        170192957705     
0010001300322U 280000000000000000000000000000000000000000000000000000000000000000000000000000000000000000000000000000000000000000000000001703201700000000            000000000000000                              000                           
0010001300323T 280180230000001544772 29577050259434086   7               15022017000000000007500001000000                         0900000000000000000000000000000000000000000000000000000   000000000000000000000005002        170192957705     
0010001300324U 280000000000000000000000000000000000000000000000000000000000000000000000000000000000000000000000000000000000000000000000001703201700000000            000000000000000                              000                           
0010001300325T 280180230000001544772 29577050263227750   7               15022017000000000007500001000000                         0900000000000000000000000000000000000000000000000000000   000000000000000000000005002        170192957705     
0010001300326U 280000000000000000000000000000000000000000000000000000000000000000000000000000000000000000000000000000000000000000000000001703201700000000            000000000000000                              000                           
0010001300327T 280180230000001544772 29577050270524798   7               15022017000000000007500001000000                         0900000000000000000000000000000000000000000000000000000   000000000000000000000005002        170192957705     
0010001300328U 280000000000000000000000000000000000000000000000000000000000000000000000000000000000000000000000000000000000000000000000001703201700000000            000000000000000                              000                           
0010001300329T 280180230000001544772 29577050274344778   7               15022017000000000007500001000000                         0900000000000000000000000000000000000000000000000000000   000000000000000000000005002        170192957705     
0010001300330U 280000000000000000000000000000000000000000000000000000000000000000000000000000000000000000000000000000000000000000000000001703201700000000            000000000000000                              000                           
0010001300331T 280180230000001544772 29577050274419371   7               15022017000000000007500001000000                         0900000000000000000000000000000000000000000000000000000   000000000000000000000005002        170192957705     
0010001300332U 280000000000000000000000000000000000000000000000000000000000000000000000000000000000000000000000000000000000000000000000001703201700000000            000000000000000                              000                           
0010001300333T 280180230000001544772 29577050281344508   7               15022017000000000010000001000000                         0900000000000000000000000000000000000000000000000000000   000000000000000000000005002        170192957705     
0010001300334U 280000000000000000000000000000000000000000000000000000000000000000000000000000000000000000000000000000000000000000000000001703201700000000            000000000000000                              000                           
0010001300335T 280180230000001544772 29577050289946853   7               15022017000000000007500001000000                         0900000000000000000000000000000000000000000000000000000   000000000000000000000005002        170192957705     
0010001300336U 280000000000000000000000000000000000000000000000000000000000000000000000000000000000000000000000000000000000000000000000001703201700000000            000000000000000                              000                           
0010001300337T 280180230000001544772 29577050292300801   7               15022017000000000007500001000000                         0900000000000000000000000000000000000000000000000000000   000000000000000000000005002        170192957705     
0010001300338U 280000000000000000000000000000000000000000000000000000000000000000000000000000000000000000000000000000000000000000000000001703201700000000            000000000000000                              000                           
0010001300339T 280180230000001544772 29577050321101496   7               15022017000000000007500001000000                         0900000000000000000000000000000000000000000000000000000   000000000000000000000005002        170192957705     
0010001300340U 280000000000000000000000000000000000000000000000000000000000000000000000000000000000000000000000000000000000000000000000001703201700000000            000000000000000                              000                           
0010001300341T 280180230000001544772 29577050321145263   7               15022017000000000007500001000000                         0900000000000000000000000000000000000000000000000000000   000000000000000000000005002        170192957705     
0010001300342U 280000000000000000000000000000000000000000000000000000000000000000000000000000000000000000000000000000000000000000000000001703201700000000            000000000000000                              000                           
0010001300343T 280180230000001544772 29577050329630835   7               15022017000000000007500001000000                         0900000000000000000000000000000000000000000000000000000   000000000000000000000005002        170192957705     
0010001300344U 280000000000000000000000000000000000000000000000000000000000000000000000000000000000000000000000000000000000000000000000001703201700000000            000000000000000                              000                           
0010001300345T 280180230000001544772 29577050329649040   7               15022017000000000007500001000000                         0900000000000000000000000000000000000000000000000000000   000000000000000000000005002        170192957705     
0010001300346U 280000000000000000000000000000000000000000000000000000000000000000000000000000000000000000000000000000000000000000000000001703201700000000            000000000000000                              000                           
0010001300347T 280180230000001544772 29577050330157768   7               15022017000000000007500001000000                         0900000000000000000000000000000000000000000000000000000   000000000000000000000005002        170192957705     
0010001300348U 280000000000000000000000000000000000000000000000000000000000000000000000000000000000000000000000000000000000000000000000001703201700000000            000000000000000                              000                           
0010001300349T 280180230000001544772 29577050330251923   7               15022017000000000007500001000000                         0900000000000000000000000000000000000000000000000000000   000000000000000000000005002        170192957705     
0010001300350U 280000000000000000000000000000000000000000000000000000000000000000000000000000000000000000000000000000000000000000000000001703201700000000            000000000000000                              000                           
0010001300351T 280180230000001544772 29577050344728751   7               15022017000000000007500001000000                         0900000000000000000000000000000000000000000000000000000   000000000000000000000005002        170192957705     
0010001300352U 280000000000000000000000000000000000000000000000000000000000000000000000000000000000000000000000000000000000000000000000001703201700000000            000000000000000                              000                           
0010001300353T 280180230000001544772 29577050353556014   7               15022017000000000007500001000000                         0900000000000000000000000000000000000000000000000000000   000000000000000000000005002        170192957705     
0010001300354U 280000000000000000000000000000000000000000000000000000000000000000000000000000000000000000000000000000000000000000000000001703201700000000            000000000000000                              000                           
0010001300355T 280180230000001544772 29577050357714026   7               15022017000000000007500001000000                         0900000000000000000000000000000000000000000000000000000   000000000000000000000005002        170192957705     
0010001300356U 280000000000000000000000000000000000000000000000000000000000000000000000000000000000000000000000000000000000000000000000001703201700000000            000000000000000                              000                           
0010001300357T 280180230000001544772 29577050383234192   7               15022017000000000007500001000000                         0900000000000000000000000000000000000000000000000000000   000000000000000000000005002        170192957705     
0010001300358U 280000000000000000000000000000000000000000000000000000000000000000000000000000000000000000000000000000000000000000000000001703201700000000            000000000000000                              000                           
0010001300359T 280180230000001544772 29577050383315837   7               15022017000000000007500001000000                         0900000000000000000000000000000000000000000000000000000   000000000000000000000005002        170192957705     
0010001300360U 280000000000000000000000000000000000000000000000000000000000000000000000000000000000000000000000000000000000000000000000001703201700000000            000000000000000                              000                           
0010001300361T 280180230000001544772 29577050384222779   7               15022017000000000007500001000000                         0900000000000000000000000000000000000000000000000000000   000000000000000000000005002        170192957705     
0010001300362U 280000000000000000000000000000000000000000000000000000000000000000000000000000000000000000000000000000000000000000000000001703201700000000            000000000000000                              000                           
0010001300363T 280180230000001544772 29577050393126680   7               15022017000000000007500001000000                         0900000000000000000000000000000000000000000000000000000   000000000000000000000005002        170192957705     
0010001300364U 280000000000000000000000000000000000000000000000000000000000000000000000000000000000000000000000000000000000000000000000001703201700000000            000000000000000                              000                           
0010001300365T 280180230000001544772 29577050398322364   7               15022017000000000007500001000000                         0900000000000000000000000000000000000000000000000000000   000000000000000000000005002        170192957705     
0010001300366U 280000000000000000000000000000000000000000000000000000000000000000000000000000000000000000000000000000000000000000000000001703201700000000            000000000000000                              000                           
0010001300367T 280180230000001544772 29577050406617048   7               15022017000000000007500001000000                         0900000000000000000000000000000000000000000000000000000   000000000000000000000005002        170192957705     
0010001300368U 280000000000000000000000000000000000000000000000000000000000000000000000000000000000000000000000000000000000000000000000001703201700000000            000000000000000                              000                           
0010001300369T 280180230000001544772 29577050407705508   7               15022017000000000010000001000000                         0900000000000000000000000000000000000000000000000000000   000000000000000000000005002        170192957705     
0010001300370U 280000000000000000000000000000000000000000000000000000000000000000000000000000000000000000000000000000000000000000000000001703201700000000            000000000000000                              000                           
0010001300371T 280180230000001544772 29577050412138409   7               15022017000000000007500001000000                         0900000000000000000000000000000000000000000000000000000   000000000000000000000005002        170192957705     
0010001300372U 280000000000000000000000000000000000000000000000000000000000000000000000000000000000000000000000000000000000000000000000001703201700000000            000000000000000                              000                           
0010001300373T 280180230000001544772 29577050414939661   7               15022017000000000007500001000000                         0900000000000000000000000000000000000000000000000000000   000000000000000000000005002        170192957705     
0010001300374U 280000000000000000000000000000000000000000000000000000000000000000000000000000000000000000000000000000000000000000000000001703201700000000            000000000000000                              000                           
0010001300375T 280180230000001544772 29577050420433526   7               15022017000000000007500001000000                         0900000000000000000000000000000000000000000000000000000   000000000000000000000005002        170192957705     
0010001300376U 280000000000000000000000000000000000000000000000000000000000000000000000000000000000000000000000000000000000000000000000001703201700000000            000000000000000                              000                           
0010001300377T 280180230000001544772 29577050423502424   7               15022017000000000007500001000000                         0900000000000000000000000000000000000000000000000000000   000000000000000000000005002        170192957705     
0010001300378U 280000000000000000000000000000000000000000000000000000000000000000000000000000000000000000000000000000000000000000000000001703201700000000            000000000000000                              000                           
0010001300379T 280180230000001544772 29577050423633373   7               15022017000000000007500001000000                         0900000000000000000000000000000000000000000000000000000   000000000000000000000005002        170192957705     
0010001300380U 280000000000000000000000000000000000000000000000000000000000000000000000000000000000000000000000000000000000000000000000001703201700000000            000000000000000                              000                           
0010001300381T 280180230000001544772 29577050424254304   7               15022017000000000007500001000000                         0900000000000000000000000000000000000000000000000000000   000000000000000000000005002        170192957705     
0010001300382U 280000000000000000000000000000000000000000000000000000000000000000000000000000000000000000000000000000000000000000000000001703201700000000            000000000000000                              000                           
0010001300383T 280180230000001544772 29577050424402684   7               15022017000000000010000001000000                         0900000000000000000000000000000000000000000000000000000   000000000000000000000005002        170192957705     
0010001300384U 280000000000000000000000000000000000000000000000000000000000000000000000000000000000000000000000000000000000000000000000001703201700000000            000000000000000                              000                           
0010001300385T 280180230000001544772 29577050429811768   7               15022017000000000007500001000000                         0900000000000000000000000000000000000000000000000000000   000000000000000000000005002        170192957705     
0010001300386U 280000000000000000000000000000000000000000000000000000000000000000000000000000000000000000000000000000000000000000000000001703201700000000            000000000000000                              000                           
0010001300387T 280180230000001544772 29577050429834206   7               15022017000000000007500001000000                         0900000000000000000000000000000000000000000000000000000   000000000000000000000005002        170192957705     
0010001300388U 280000000000000000000000000000000000000000000000000000000000000000000000000000000000000000000000000000000000000000000000001703201700000000            000000000000000                              000                           
0010001300389T 280180230000001544772 29577050429834522   7               15022017000000000007500001000000                         0900000000000000000000000000000000000000000000000000000   000000000000000000000005002        170192957705     
0010001300390U 280000000000000000000000000000000000000000000000000000000000000000000000000000000000000000000000000000000000000000000000001703201700000000            000000000000000                              000                           
0010001300391T 280180230000001544772 29577050430315854   7               15022017000000000007500001000000                         0900000000000000000000000000000000000000000000000000000   000000000000000000000005002        170192957705     
0010001300392U 280000000000000000000000000000000000000000000000000000000000000000000000000000000000000000000000000000000000000000000000001703201700000000            000000000000000                              000                           
0010001300393T 280180230000001544772 29577050430320921   7               15022017000000000007500001000000                         0900000000000000000000000000000000000000000000000000000   000000000000000000000005002        170192957705     
0010001300394U 280000000000000000000000000000000000000000000000000000000000000000000000000000000000000000000000000000000000000000000000001703201700000000            000000000000000                              000                           
0010001300395T 280180230000001544772 29577050431458470   7               15022017000000000007500001000000                         0900000000000000000000000000000000000000000000000000000   000000000000000000000005002        170192957705     
0010001300396U 280000000000000000000000000000000000000000000000000000000000000000000000000000000000000000000000000000000000000000000000001703201700000000            000000000000000                              000                           
0010001300397T 280180230000001544772 29577050435707219   7               15022017000000000007500001000000                         0900000000000000000000000000000000000000000000000000000   000000000000000000000005002        170192957705     
0010001300398U 280000000000000000000000000000000000000000000000000000000000000000000000000000000000000000000000000000000000000000000000001703201700000000            000000000000000                              000                           
0010001300399T 280180230000001544772 29577050436428552   7               15022017000000000007500001000000                         0900000000000000000000000000000000000000000000000000000   000000000000000000000005002        170192957705     
0010001300400U 280000000000000000000000000000000000000000000000000000000000000000000000000000000000000000000000000000000000000000000000001703201700000000            000000000000000                              000                           
0010001300401T 280180230000001544772 29577050436521028   7               15022017000000000007500001000000                         0900000000000000000000000000000000000000000000000000000   000000000000000000000005002        170192957705     
0010001300402U 280000000000000000000000000000000000000000000000000000000000000000000000000000000000000000000000000000000000000000000000001703201700000000            000000000000000                              000                           
0010001300403T 280180230000001544772 29577050444151827   7               15022017000000000010000001000000                         0900000000000000000000000000000000000000000000000000000   000000000000000000000005002        170192957705     
0010001300404U 280000000000000000000000000000000000000000000000000000000000000000000000000000000000000000000000000000000000000000000000001703201700000000            000000000000000                              000                           
0010001300405T 280180230000001544772 29577050452041984   7               15022017000000000007500001000000                         0900000000000000000000000000000000000000000000000000000   000000000000000000000005002        170192957705     
0010001300406U 280000000000000000000000000000000000000000000000000000000000000000000000000000000000000000000000000000000000000000000000001703201700000000            000000000000000                              000                           
0010001300407T 280180230000001544772 29577050464804252   7               15022017000000000007500001000000                         0900000000000000000000000000000000000000000000000000000   000000000000000000000005002        170192957705     
0010001300408U 280000000000000000000000000000000000000000000000000000000000000000000000000000000000000000000000000000000000000000000000001703201700000000            000000000000000                              000                           
0010001300409T 280180230000001544772 29577050470105952   7               15022017000000000007500001000000                         0900000000000000000000000000000000000000000000000000000   000000000000000000000005002        170192957705     
0010001300410U 280000000000000000000000000000000000000000000000000000000000000000000000000000000000000000000000000000000000000000000000001703201700000000            000000000000000                              000                           
0010001300411T 280180230000001544772 29577050470146451   7               15022017000000000007500001000000                         0900000000000000000000000000000000000000000000000000000   000000000000000000000005002        170192957705     
0010001300412U 280000000000000000000000000000000000000000000000000000000000000000000000000000000000000000000000000000000000000000000000001703201700000000            000000000000000                              000                           
