00100000         2247745860001000029577050014       0180230000001544772 INSTITUTO DE SELECAO E TECNOLOBANCO DO BRASIL                         22003201702172700013803000000515122941PROCESSAMEN                                                 
00100011T0100020 20247745860001000029577050014       0180230000001544772 INSTITUTO DE SELECAO E TECNOLO                                                                                000000002003201700000000  000000000                      
0010001300001T 020180230000001544772 29577050081216934   7               2003201700000000000750000103049X                         0900000000000010000000000000000000000000000000000000000   0000000000000000000000000A9        170192957705     
0010001300002U 020000000000000000000000000000000000000000000000000000000000000000000000000000000000000000000000000000000000000000000000001803201700000000            000000000000000                              000                           
0010001300003T 020180230000001544772 29577050100349269   7               2203201700000000001000000101009X                         0900000000000010000000000000000000000000000000000000000   0000000000000000000000000A9        170192957705     
0010001300004U 020000000000000000000000000000000000000000000000000000000000000000000000000000000000000000000000000000000000000000000000002003201700000000            000000000000000                              000                           
0010001300005T 020180230000001544772 29577050104535249   7               21032017000000000007500001002224                         0900000000000010000000000000000000000000000000000000000   0000000000000000000000000A9        170192957705     
0010001300006U 020000000000000000000000000000000000000000000000000000000000000000000000000000000000000000000000000000000000000000000000001903201700000000            000000000000000                              000                           
0010001300007T 020180230000001544772 29577050125448188   7               22032017000000000007500001003352                         0900000000000010500000000000000000000000000000000000000   0000000000000000000000000A9A4      170192957705     
0010001300008U 020000000000000000000000000000000000000000000000000000000000000000000000000000000000000000000000000000000000000000000000002003201700000000            000000000000000                              000                           
0010001300009T 020180230000001544772 29577050162955063   7               22032017000000000007500001012408                         0900000000000010000000000000000000000000000000000000000   0000000000000000000000000A9        170192957705     
0010001300010U 020000000000000000000000000000000000000000000000000000000000000000000000000000000000000000000000000000000000000000000000002003201700000000            000000000000000                              000                           
0010001300011T 020180230000001544772 29577050167504206   7               22032017000000000007500001012408                         0900000000000010000000000000000000000000000000000000000   0000000000000000000000000A9        170192957705     
0010001300012U 020000000000000000000000000000000000000000000000000000000000000000000000000000000000000000000000000000000000000000000000002003201700000000            000000000000000                              000                           
0010001300013T 020180230000001544772 29577050170831608   7               21032017000000000007500001012408                         0900000000000010000000000000000000000000000000000000000   0000000000000000000000000A9        170192957705     
0010001300014U 020000000000000000000000000000000000000000000000000000000000000000000000000000000000000000000000000000000000000000000000001903201700000000            000000000000000                              000                           
0010001300015T 020180230000001544772 29577050202048888   7               22032017000000000007500001000213                         0900000000000010000000000000000000000000000000000000000   0000000000000000000000000A9        170192957705     
0010001300016U 020000000000000000000000000000000000000000000000000000000000000000000000000000000000000000000000000000000000000000000000002003201700000000            000000000000000                              000                           
0010001300017T 020180230000001544772 29577050210925958   7               20032017000000000007500001004782                         0900000000000010000000000000000000000000000000000000000   0000000000000000000000000A9        170192957705     
0010001300018U 020000000000000000000000000000000000000000000000000000000000000000000000000000000000000000000000000000000000000000000000001803201700000000            000000000000000                              000                           
0010001300019T 020180230000001544772 29577050224515961   7               22032017000000000010000001010561                         0900000000000010000000000000000000000000000000000000000   0000000000000000000000000A9        170192957705     
0010001300020U 020000000000000000000000000000000000000000000000000000000000000000000000000000000000000000000000000000000000000000000000002003201700000000            000000000000000                              000                           
0010001300021T 020180230000001544772 29577050227422154   7               2003201700000000000750000101981X                         0900000000000010000000000000000000000000000000000000000   0000000000000000000000000A9        170192957705     
0010001300022U 020000000000000000000000000000000000000000000000000000000000000000000000000000000000000000000000000000000000000000000000001803201700000000            000000000000000                              000                           
0010001300023T 020180230000001544772 29577050258230875   7               2103201700000000000750000103049X                         0900000000000010500000000000000000000000000000000000000   0000000000000000000000000A9A4      170192957705     
0010001300024U 020000000000000000000000000000000000000000000000000000000000000000000000000000000000000000000000000000000000000000000000001903201700000000            000000000000000                              000                           
0010001300025T 020180230000001544772 29577050316609505   7               22032017000000000007500001012408                         0900000000000010000000000000000000000000000000000000000   0000000000000000000000000A9        170192957705     
0010001300026U 020000000000000000000000000000000000000000000000000000000000000000000000000000000000000000000000000000000000000000000000002003201700000000            000000000000000                              000                           
0010001300027T 020180230000001544772 29577050325408024   7               22032017000000000007500001046280                         0900000000000010000000000000000000000000000000000000000   0000000000000000000000000A9        170192957705     
0010001300028U 020000000000000000000000000000000000000000000000000000000000000000000000000000000000000000000000000000000000000000000000002003201700000000            000000000000000                              000                           
0010001300029T 020180230000001544772 29577050327624215   7               22032017000000000007500001012408                         0900000000000010000000000000000000000000000000000000000   0000000000000000000000000A9        170192957705     
0010001300030U 020000000000000000000000000000000000000000000000000000000000000000000000000000000000000000000000000000000000000000000000002003201700000000            000000000000000                              000                           
0010001300031T 020180230000001544772 29577050356229231   7               21032017000000000007500001012408                         0900000000000010000000000000000000000000000000000000000   0000000000000000000000000A9        170192957705     
0010001300032U 020000000000000000000000000000000000000000000000000000000000000000000000000000000000000000000000000000000000000000000000001903201700000000            000000000000000                              000                           
0010001300033T 020180230000001544772 29577050467342630   7               22032017000000000007500001012408                         0900000000000010000000000000000000000000000000000000000   0000000000000000000000000A9        170192957705     
0010001300034U 020000000000000000000000000000000000000000000000000000000000000000000000000000000000000000000000000000000000000000000000002003201700000000            000000000000000                              000                           
0010001300035T 020180230000001544772 29577050492240755   7               22032017000000000007500001001120                         0900000000000010000000000000000000000000000000000000000   0000000000000000000000000A9        170192957705     
0010001300036U 020000000000000000000000000000000000000000000000000000000000000000000000000000000000000000000000000000000000000000000000002003201700000000            000000000000000                              000                           
0010001300037T 020180230000001544772 29577050494629742   7               20032017000000000007500001012408                         0900000000000010000000000000000000000000000000000000000   0000000000000000000000000A9        170192957705     
0010001300038U 020000000000000000000000000000000000000000000000000000000000000000000000000000000000000000000000000000000000000000000000001803201700000000            000000000000000                              000                           
0010001300039T 020180230000001544772 29577050499843815   7               22032017000000000007500001000213                         0900000000000010000000000000000000000000000000000000000   0000000000000000000000000A9        170192957705     
0010001300040U 020000000000000000000000000000000000000000000000000000000000000000000000000000000000000000000000000000000000000000000000002003201700000000            000000000000000                              000                           
0010001300041T 020180230000001544772 29577050542521443   7               2203201700000000000750000103049X                         0900000000000010000000000000000000000000000000000000000   0000000000000000000000000A9        170192957705     
0010001300042U 020000000000000000000000000000000000000000000000000000000000000000000000000000000000000000000000000000000000000000000000002003201700000000            000000000000000                              000                           
0010001300043T 020180230000001544772 29577050706038482   7               22032017000000000007500001012408                         0900000000000010000000000000000000000000000000000000000   0000000000000000000000000A9        170192957705     
0010001300044U 020000000000000000000000000000000000000000000000000000000000000000000000000000000000000000000000000000000000000000000000002003201700000000            000000000000000                              000                           
0010001300045T 020180230000001544772 29577050772059076   7               22032017000000000007500001000213                         0900000000000010000000000000000000000000000000000000000   0000000000000000000000000A9        170192957705     
0010001300046U 020000000000000000000000000000000000000000000000000000000000000000000000000000000000000000000000000000000000000000000000002003201700000000            000000000000000                              000                           
0010001300047T 020180230000001544772 29577050911706109   7               2003201700000000000750000103049X                         0900000000000010000000000000000000000000000000000000000   0000000000000000000000000A9        170192957705     
0010001300048U 020000000000000000000000000000000000000000000000000000000000000000000000000000000000000000000000000000000000000000000000001803201700000000            000000000000000                              000                           
0010001300049T 020180230000001544772 29577051093642558   7               20032017000000000007500001000213                         0900000000000010000000000000000000000000000000000000000   0000000000000000000000000A9        170192957705     
0010001300050U 020000000000000000000000000000000000000000000000000000000000000000000000000000000000000000000000000000000000000000000000001803201700000000            000000000000000                              000                           
0010001300051T 020180230000001544772 29577051120115518   7               2103201700000000000750000103049X                         0900000000000010500000000000000000000000000000000000000   0000000000000000000000000A9A4      170192957705     
0010001300052U 020000000000000000000000000000000000000000000000000000000000000000000000000000000000000000000000000000000000000000000000001903201700000000            000000000000000                              000                           
0010001300053T 020180230000001544772 29577051133350733   7               2203201700000000000750000101981X                         0900000000000010000000000000000000000000000000000000000   0000000000000000000000000A9        170192957705     
0010001300054U 020000000000000000000000000000000000000000000000000000000000000000000000000000000000000000000000000000000000000000000000002003201700000000            000000000000000                              000                           
0010001300055T 020180230000001544772 29577051155646932   7               22032017000000000007500001012408                         0900000000000010000000000000000000000000000000000000000   0000000000000000000000000A9        170192957705     
0010001300056U 020000000000000000000000000000000000000000000000000000000000000000000000000000000000000000000000000000000000000000000000002003201700000000            000000000000000                              000                           
0010001300057T 020180230000001544772 29577051157348473   7               21032017000000000007500001000213                         0900000000000010000000000000000000000000000000000000000   0000000000000000000000000A9        170192957705     
0010001300058U 020000000000000000000000000000000000000000000000000000000000000000000000000000000000000000000000000000000000000000000000001903201700000000            000000000000000                              000                           
0010001300059T 020180230000001544772 29577051175048905   7               22032017000000000007500001000213                         0900000000000010000000000000000000000000000000000000000   0000000000000000000000000A9        170192957705     
0010001300060U 020000000000000000000000000000000000000000000000000000000000000000000000000000000000000000000000000000000000000000000000002003201700000000            000000000000000                              000                           
0010001300061T 020180230000001544772 29577051180112890   7               22032017000000000007500001012416                         0900000000000010000000000000000000000000000000000000000   0000000000000000000000000A9        170192957705     
0010001300062U 020000000000000000000000000000000000000000000000000000000000000000000000000000000000000000000000000000000000000000000000002003201700000000            000000000000000                              000                           
0010001300063T 020180230000001544772 29577051208633364   7               22032017000000000007500001012416                         0900000000000010000000000000000000000000000000000000000   0000000000000000000000000A9        170192957705     
0010001300064U 020000000000000000000000000000000000000000000000000000000000000000000000000000000000000000000000000000000000000000000000002003201700000000            000000000000000                              000                           
0010001300065T 020180230000001544772 29577051252047510   7               2103201700000000000750000103049X                         0900000000000010500000000000000000000000000000000000000   0000000000000000000000000A9A4      170192957705     
0010001300066U 020000000000000000000000000000000000000000000000000000000000000000000000000000000000000000000000000000000000000000000000001903201700000000            000000000000000                              000                           
0010001300067T 020180230000001544772 29577051252206888   7               2103201700000000000750000103049X                         0900000000000010500000000000000000000000000000000000000   0000000000000000000000000A9A4      170192957705     
0010001300068U 020000000000000000000000000000000000000000000000000000000000000000000000000000000000000000000000000000000000000000000000001903201700000000            000000000000000                              000                           
0010001300069T 020180230000001544772 29577051255543957   7               20032017000000000007500001004782                         0900000000000010000000000000000000000000000000000000000   0000000000000000000000000A9        170192957705     
0010001300070U 020000000000000000000000000000000000000000000000000000000000000000000000000000000000000000000000000000000000000000000000001803201700000000            000000000000000                              000                           
0010001300071T 020180230000001544772 29577051276745090   7               22032017000000000007500001000213                         0900000000000010000000000000000000000000000000000000000   0000000000000000000000000A9        170192957705     
0010001300072U 020000000000000000000000000000000000000000000000000000000000000000000000000000000000000000000000000000000000000000000000002003201700000000            000000000000000                              000                           
0010001300073T 020180230000001544772 29577051287108691   7               20032017000000000007500001000213                         0900000000000010500000000000000000000000000000000000000   0000000000000000000000000A9A4      170192957705     
0010001300074U 020000000000000000000000000000000000000000000000000000000000000000000000000000000000000000000000000000000000000000000000001803201700000000            000000000000000                              000                           
0010001300075T 020180230000001544772 29577051306009239   7               20032017000000000007500001000213                         0900000000000010000000000000000000000000000000000000000   0000000000000000000000000A9        170192957705     
0010001300076U 020000000000000000000000000000000000000000000000000000000000000000000000000000000000000000000000000000000000000000000000001803201700000000            000000000000000                              000                           
0010001300077T 020180230000001544772 29577051306040769   7               22032017000000000007500001000213                         0900000000000010000000000000000000000000000000000000000   0000000000000000000000000A9        170192957705     
0010001300078U 020000000000000000000000000000000000000000000000000000000000000000000000000000000000000000000000000000000000000000000000002003201700000000            000000000000000                              000                           
0010001300079T 020180230000001544772 29577051320614524   7               22032017000000000007500001012416                         0900000000000010500000000000000000000000000000000000000   0000000000000000000000000A9A4      170192957705     
0010001300080U 020000000000000000000000000000000000000000000000000000000000000000000000000000000000000000000000000000000000000000000000002003201700000000            000000000000000                              000                           
0010001300081T 020180230000001544772 29577051321105443   7               22032017000000000007500001012408                         0900000000000010000000000000000000000000000000000000000   0000000000000000000000000A9        170192957705     
0010001300082U 020000000000000000000000000000000000000000000000000000000000000000000000000000000000000000000000000000000000000000000000002003201700000000            000000000000000                              000                           
0010001300083T 020180230000001544772 29577051322909493   7               22032017000000000007500001012416                         0900000000000010000000000000000000000000000000000000000   0000000000000000000000000A9        170192957705     
0010001300084U 020000000000000000000000000000000000000000000000000000000000000000000000000000000000000000000000000000000000000000000000002003201700000000            000000000000000                              000                           
0010001300085T 020180230000001544772 29577051337423640   7               20032017000000000007500001012416                         0900000000000010000000000000000000000000000000000000000   0000000000000000000000000A9        170192957705     
0010001300086U 020000000000000000000000000000000000000000000000000000000000000000000000000000000000000000000000000000000000000000000000001803201700000000            000000000000000                              000                           
0010001300087T 020180230000001544772 29577051337457593   7               20032017000000000007500001012416                         0900000000000010000000000000000000000000000000000000000   0000000000000000000000000A9        170192957705     
0010001300088U 020000000000000000000000000000000000000000000000000000000000000000000000000000000000000000000000000000000000000000000000001803201700000000            000000000000000                              000                           
0010001300089T 020180230000001544772 29577051340002571   7               20032017000000000010000001003018                         0900000000000010500000000000000000000000000000000000000   0000000000000000000000000A9A4      170192957705     
0010001300090U 020000000000000000000000000000000000000000000000000000000000000000000000000000000000000000000000000000000000000000000000001803201700000000            000000000000000                              000                           
0010001300091T 020180230000001544772 29577051340318453   7               20032017000000000007500001000213                         0900000000000010000000000000000000000000000000000000000   0000000000000000000000000A9        170192957705     
0010001300092U 020000000000000000000000000000000000000000000000000000000000000000000000000000000000000000000000000000000000000000000000001803201700000000            000000000000000                              000                           
0010001300093T 020180230000001544772 29577051341007800   7               20032017000000000007500001028029                         0900000000000010000000000000000000000000000000000000000   0000000000000000000000000A9        170192957705     
0010001300094U 020000000000000000000000000000000000000000000000000000000000000000000000000000000000000000000000000000000000000000000000001803201700000000            000000000000000                              000                           
0010001300095T 020180230000001544772 29577051341035610   7               20032017000000000007500001028029                         0900000000000010000000000000000000000000000000000000000   0000000000000000000000000A9        170192957705     
0010001300096U 020000000000000000000000000000000000000000000000000000000000000000000000000000000000000000000000000000000000000000000000001803201700000000            000000000000000                              000                           
0010001300097T 020180230000001544772 29577051342902777   7               20032017000000000007500001012408                         0900000000000010000000000000000000000000000000000000000   0000000000000000000000000A9        170192957705     
0010001300098U 020000000000000000000000000000000000000000000000000000000000000000000000000000000000000000000000000000000000000000000000001803201700000000            000000000000000                              000                           
0010001300099T 020180230000001544772 29577051343143813   7               20032017000000000007500001000213                         0900000000000010000000000000000000000000000000000000000   0000000000000000000000000A9        170192957705     
0010001300100U 020000000000000000000000000000000000000000000000000000000000000000000000000000000000000000000000000000000000000000000000001803201700000000            000000000000000                              000                           
0010001300101T 020180230000001544772 29577051343405740   7               20032017000000000007500001003050                         0900000000000010000000000000000000000000000000000000000   0000000000000000000000000A9        170192957705     
0010001300102U 020000000000000000000000000000000000000000000000000000000000000000000000000000000000000000000000000000000000000000000000001803201700000000            000000000000000                              000                           
0010001300103T 020180230000001544772 29577051343934701   7               20032017000000000007500001028029                         0900000000000010000000000000000000000000000000000000000   0000000000000000000000000A9        170192957705     
0010001300104U 020000000000000000000000000000000000000000000000000000000000000000000000000000000000000000000000000000000000000000000000001803201700000000            000000000000000                              000                           
0010001300105T 020180230000001544772 29577051346215653   7               20032017000000000007500001018376                         0900000000000010000000000000000000000000000000000000000   0000000000000000000000000A9        170192957705     
0010001300106U 020000000000000000000000000000000000000000000000000000000000000000000000000000000000000000000000000000000000000000000000001803201700000000            000000000000000                              000                           
0010001300107T 020180230000001544772 29577051348632609   7               21032017000000000007500001000213                         0900000000000010000000000000000000000000000000000000000   0000000000000000000000000A9        170192957705     
0010001300108U 020000000000000000000000000000000000000000000000000000000000000000000000000000000000000000000000000000000000000000000000001903201700000000            000000000000000                              000                           
0010001300109T 020180230000001544772 29577051348655734   7               21032017000000000007500001000213                         0900000000000010000000000000000000000000000000000000000   0000000000000000000000000A9        170192957705     
0010001300110U 020000000000000000000000000000000000000000000000000000000000000000000000000000000000000000000000000000000000000000000000001903201700000000            000000000000000                              000                           
0010001300111T 020180230000001544772 29577051348813463   7               2103201700000000000750000103049X                         0900000000000010500000000000000000000000000000000000000   0000000000000000000000000A9A4      170192957705     
0010001300112U 020000000000000000000000000000000000000000000000000000000000000000000000000000000000000000000000000000000000000000000000001903201700000000            000000000000000                              000                           
0010001300113T 020180230000001544772 29577051349139958   7               21032017000000000010000001000159                         0900000000000010000000000000000000000000000000000000000   0000000000000000000000000A9        170192957705     
0010001300114U 020000000000000000000000000000000000000000000000000000000000000000000000000000000000000000000000000000000000000000000000001903201700000000            000000000000000                              000                           
0010001300115T 020180230000001544772 29577051350650205   7               21032017000000000007500001033316                         0900000000000010000000000000000000000000000000000000000   0000000000000000000000000A9        170192957705     
0010001300116U 020000000000000000000000000000000000000000000000000000000000000000000000000000000000000000000000000000000000000000000000001903201700000000            000000000000000                              000                           
0010001300117T 020180230000001544772 29577051353916966   7               21032017000000000007500001000612                         0900000000000010000000000000000000000000000000000000000   0000000000000000000000000A9        170192957705     
0010001300118U 020000000000000000000000000000000000000000000000000000000000000000000000000000000000000000000000000000000000000000000000001903201700000000            000000000000000                              000                           
0010001300119T 020180230000001544772 29577051357845895   7               22032017000000000007500001000833                         0900000000000010000000000000000000000000000000000000000   0000000000000000000000000A9        170192957705     
0010001300120U 020000000000000000000000000000000000000000000000000000000000000000000000000000000000000000000000000000000000000000000000002003201700000000            000000000000000                              000                           
0010001300121T 020180230000001544772 29577051357857840   7               22032017000000000007500001000833                         0900000000000010000000000000000000000000000000000000000   0000000000000000000000000A9        170192957705     
0010001300122U 020000000000000000000000000000000000000000000000000000000000000000000000000000000000000000000000000000000000000000000000002003201700000000            000000000000000                              000                           
0010001300123T 020180230000001544772 29577051358506363   7               2203201700000000000750000101981X                         0900000000000010000000000000000000000000000000000000000   0000000000000000000000000A9        170192957705     
0010001300124U 020000000000000000000000000000000000000000000000000000000000000000000000000000000000000000000000000000000000000000000000002003201700000000            000000000000000                              000                           
0010001300125T 020180230000001544772 29577051365530979   7               22032017000000000007500001012408                         0900000000000010000000000000000000000000000000000000000   0000000000000000000000000A9        170192957705     
0010001300126U 020000000000000000000000000000000000000000000000000000000000000000000000000000000000000000000000000000000000000000000000002003201700000000            000000000000000                              000                           
0010001300127T 020180230000001544772 29577051366102228   7               22032017000000000007500001046280                         0900000000000010000000000000000000000000000000000000000   0000000000000000000000000A9        170192957705     
0010001300128U 020000000000000000000000000000000000000000000000000000000000000000000000000000000000000000000000000000000000000000000000002003201700000000            000000000000000                              000                           
0010001300129T 020180230000001544772 29577051366122020   7               22032017000000000007500001046280                         0900000000000010000000000000000000000000000000000000000   0000000000000000000000000A9        170192957705     
0010001300130U 020000000000000000000000000000000000000000000000000000000000000000000000000000000000000000000000000000000000000000000000002003201700000000            000000000000000                              000                           
0010001300131T 020180230000001544772 29577051366133743   7               22032017000000000007500001046280                         0900000000000010000000000000000000000000000000000000000   0000000000000000000000000A9        170192957705     
0010001300132U 020000000000000000000000000000000000000000000000000000000000000000000000000000000000000000000000000000000000000000000000002003201700000000            000000000000000                              000                           
0010001300133T 020180230000001544772 29577051366134281   7               22032017000000000007500001046280                         0900000000000010000000000000000000000000000000000000000   0000000000000000000000000A9        170192957705     
0010001300134U 020000000000000000000000000000000000000000000000000000000000000000000000000000000000000000000000000000000000000000000000002003201700000000            000000000000000                              000                           
0010001300135T 020180230000001544772 29577051366156516   7               22032017000000000007500001046280                         0900000000000010000000000000000000000000000000000000000   0000000000000000000000000A9        170192957705     
0010001300136U 020000000000000000000000000000000000000000000000000000000000000000000000000000000000000000000000000000000000000000000000002003201700000000            000000000000000                              000                           
0010001300137T 020180230000001544772 29577051366251132   7               22032017000000000007500001009245                         0900000000000010000000000000000000000000000000000000000   0000000000000000000000000A9        170192957705     
0010001300138U 020000000000000000000000000000000000000000000000000000000000000000000000000000000000000000000000000000000000000000000000002003201700000000            000000000000000                              000                           
0010001300139T 020180230000001544772 29577051366353692   7               22032017000000000007500001000833                         0900000000000010000000000000000000000000000000000000000   0000000000000000000000000A9        170192957705     
0010001300140U 020000000000000000000000000000000000000000000000000000000000000000000000000000000000000000000000000000000000000000000000002003201700000000            000000000000000                              000                           
0010001300141T 020180230000001544772 29577051366754163   7               22032017000000000007500001012408                         0900000000000010000000000000000000000000000000000000000   0000000000000000000000000A9        170192957705     
0010001300142U 020000000000000000000000000000000000000000000000000000000000000000000000000000000000000000000000000000000000000000000000002003201700000000            000000000000000                              000                           
0010001300143T 020180230000001544772 29577051366819393   7               22032017000000000007500001000833                         0900000000000010000000000000000000000000000000000000000   0000000000000000000000000A9        170192957705     
0010001300144U 020000000000000000000000000000000000000000000000000000000000000000000000000000000000000000000000000000000000000000000000002003201700000000            000000000000000                              000                           
0010001300145T 020180230000001544772 29577051367242015   7               2203201700000000000750000103049X                         0900000000000010000000000000000000000000000000000000000   0000000000000000000000000A9        170192957705     
0010001300146U 020000000000000000000000000000000000000000000000000000000000000000000000000000000000000000000000000000000000000000000000002003201700000000            000000000000000                              000                           
0010001300147T 020180230000001544772 29577051367332102   7               22032017000000000007500001006017                         0900000000000010000000000000000000000000000000000000000   0000000000000000000000000A9        170192957705     
0010001300148U 020000000000000000000000000000000000000000000000000000000000000000000000000000000000000000000000000000000000000000000000002003201700000000            000000000000000                              000                           
0010001300149T 020180230000001544772 29577051367942679   7               22032017000000000007500001000213                         0900000000000010000000000000000000000000000000000000000   0000000000000000000000000A9        170192957705     
0010001300150U 020000000000000000000000000000000000000000000000000000000000000000000000000000000000000000000000000000000000000000000000002003201700000000            000000000000000                              000                           
0010001300151T 020180230000001544772 29577051369916253   7               22032017000000000007500001000213                         0900000000000010000000000000000000000000000000000000000   0000000000000000000000000A9        170192957705     
0010001300152U 020000000000000000000000000000000000000000000000000000000000000000000000000000000000000000000000000000000000000000000000002003201700000000            000000000000000                              000                           
0010001300153T 020180230000001544772 29577051370115688   7               2203201700000000000750000103049X                         0900000000000010000000000000000000000000000000000000000   0000000000000000000000000A9        170192957705     
0010001300154U 020000000000000000000000000000000000000000000000000000000000000000000000000000000000000000000000000000000000000000000000002003201700000000            000000000000000                              000                           
0010001300155T 020180230000001544772 29577051370133660   7               2203201700000000000750000103049X                         0900000000000010000000000000000000000000000000000000000   0000000000000000000000000A9        170192957705     
0010001300156U 020000000000000000000000000000000000000000000000000000000000000000000000000000000000000000000000000000000000000000000000002003201700000000            000000000000000                              000                           
0010001300157T 020180230000001544772 29577051371234803   7               22032017000000000007500001020443                         0900000000000010000000000000000000000000000000000000000   0000000000000000000000000A9        170192957705     
0010001300158U 020000000000000000000000000000000000000000000000000000000000000000000000000000000000000000000000000000000000000000000000002003201700000000            000000000000000                              000                           
0010001300159T 020180230000001544772 29577051371258093   7               22032017000000000007500001020443                         0900000000000010000000000000000000000000000000000000000   0000000000000000000000000A9        170192957705     
0010001300160U 020000000000000000000000000000000000000000000000000000000000000000000000000000000000000000000000000000000000000000000000002003201700000000            000000000000000                              000                           
0010001300161T 020180230000001544772 29577051372436836   7               22032017000000000007500001000213                         0900000000000010000000000000000000000000000000000000000   0000000000000000000000000A9        170192957705     
0010001300162U 020000000000000000000000000000000000000000000000000000000000000000000000000000000000000000000000000000000000000000000000002003201700000000            000000000000000                              000                           
0010001300163T 020180230000001544772 29577051372455250   7               22032017000000000007500001000213                         0900000000000010000000000000000000000000000000000000000   0000000000000000000000000A9        170192957705     
0010001300164U 020000000000000000000000000000000000000000000000000000000000000000000000000000000000000000000000000000000000000000000000002003201700000000            000000000000000                              000                           
0010001300165T 020180230000001544772 29577051372503354   7               2203201700000000000750000103049X                         0900000000000010000000000000000000000000000000000000000   0000000000000000000000000A9        170192957705     
0010001300166U 020000000000000000000000000000000000000000000000000000000000000000000000000000000000000000000000000000000000000000000000002003201700000000            000000000000000                              000                           
0010001300167T 020180230000001544772 29577051374057305   7               22032017000000000007500001000051                         0900000000000010000000000000000000000000000000000000000   0000000000000000000000000A9        170192957705     
0010001300168U 020000000000000000000000000000000000000000000000000000000000000000000000000000000000000000000000000000000000000000000000002003201700000000            000000000000000                              000                           
0010001300169T 020180230000001544772 29577051374232460   7               22032017000000000007500001012408                         0900000000000010000000000000000000000000000000000000000   0000000000000000000000000A9        170192957705     
0010001300170U 020000000000000000000000000000000000000000000000000000000000000000000000000000000000000000000000000000000000000000000000002003201700000000            000000000000000                              000                           
0010001300171T 020180230000001544772 29577051376050544   7               22032017000000000007500001012416                         0900000000000010000000000000000000000000000000000000000   0000000000000000000000000A9        170192957705     
0010001300172U 020000000000000000000000000000000000000000000000000000000000000000000000000000000000000000000000000000000000000000000000002003201700000000            000000000000000                              000                           
0010001300173T 020180230000001544772 29577051376100608   7               22032017000000000007500001000213                         0900000000000010000000000000000000000000000000000000000   0000000000000000000000000A9        170192957705     
0010001300174U 020000000000000000000000000000000000000000000000000000000000000000000000000000000000000000000000000000000000000000000000002003201700000000            000000000000000                              000                           
0010001300175T 060180230000001544772 29577050081216934   7               20032017000000000007500341092600                         0900000000000010000000000000000000000000000000000000000   000000000000000000000029000        170192957705     
0010001300176U 060000000000000000000000000000000000000000000000000000000000000000000000075000000000000072100000000000000000000000000000002003201721032017            000000000000000                              000                           
0010001300177T 060180230000001544772 29577050210925958   7               20032017000000000007500001021121                         0900000000000010000000000000000000000000000000000000000   000000000000000000000029000        170192957705     
0010001300178U 060000000000000000000000000000000000000000000000000000000000000000000000075000000000000072100000000000000000000000000000002003201721032017            000000000000000                              000                           
0010001300179T 060180230000001544772 29577051229525898   7               18032017000000000007500104030840                         0900000000000010000000000000000000000000000000000000000   000000000000000000000029000        170192957705     
0010001300180U 060000000000000000000000000000000000000000000000000000000000000000000000075000000000000072100000000000000000000000000000002003201721032017            000000000000000                              000                           
0010001300181T 060180230000001544772 29577051236534335   7               18032017000000000007500001030848                         0900000000000010000000000000000000000000000000000000000   000000000000000000000029000        170192957705     
0010001300182U 060000000000000000000000000000000000000000000000000000000000000000000000075000000000000072100000000000000000000000000000002003201721032017            000000000000000                              000                           
0010001300183T 060180230000001544772 29577051276745090   7               22032017000000000007500104015640                         0900000000000010000000000000000000000000000000000000000   000000000000000000000029000        170192957705     
0010001300184U 060000000000000000000000000000000000000000000000000000000000000000000000075000000000000072100000000000000000000000000000002003201721032017            000000000000000                              000                           
0010001300185T 060180230000001544772 29577051298133414   7               17032017000000000007500001030848                         0900000000000010000000000000000000000000000000000000000   000000000000000000000029000        170192957705     
0010001300186U 060000000000000260000000000000000000000000000000000000000000000000000000075260000000000072360000000000000000000000000000002003201721032017            000000000000000                              000                           
0010001300187T 060180230000001544772 29577051321105443   7               22032017000000000007500104015640                         0900000000000010000000000000000000000000000000000000000   000000000000000000000029000        170192957705     
0010001300188U 060000000000000000000000000000000000000000000000000000000000000000000000075000000000000072100000000000000000000000000000002003201721032017            000000000000000                              000                           
0010001300189T 060180230000001544772 29577051323413085   7               18032017000000000007500021000830                         0900000000000010000000000000000000000000000000000000000   000000000000000000000029000        170192957705     
0010001300190U 060000000000000000000000000000000000000000000000000000000000000000000000075000000000000072100000000000000000000000000000002003201721032017            000000000000000                              000                           
0010001300191T 060180230000001544772 29577051323625634   7               18032017000000000007500021000830                         0900000000000010000000000000000000000000000000000000000   000000000000000000000029000        170192957705     
0010001300192U 060000000000000000000000000000000000000000000000000000000000000000000000075000000000000072100000000000000000000000000000002003201721032017            000000000000000                              000                           
0010001300193T 060180230000001544772 29577051329615626   7               19032017000000000007500001040355                         0900000000000010000000000000000000000000000000000000000   000000000000000000000029000        170192957705     
0010001300194U 060000000000000000000000000000000000000000000000000000000000000000000000075000000000000072100000000000000000000000000000002003201721032017            000000000000000                              000                           
0010001300195T 060180230000001544772 29577051337542021   7               19032017000000000007500104025030                         0900000000000010000000000000000000000000000000000000000   000000000000000000000029000        170192957705     
0010001300196U 060000000000000000000000000000000000000000000000000000000000000000000000075000000000000072100000000000000000000000000000002003201721032017            000000000000000                              000                           
0010001300197T 060180230000001544772 29577051348632609   7               21032017000000000007500001014001                         0900000000000010000000000000000000000000000000000000000   000000000000000000000029000        170192957705     
0010001300198U 060000000000000000000000000000000000000000000000000000000000000000000000075000000000000072100000000000000000000000000000002003201721032017            000000000000000                              000                           
0010001300199T 090180230000001544772 29577050000040577   788888888888888819122016000000000001000001000213assistente adminitrativo 0900000000000000000000000000000000000000000000000000000   000000000000000000000010009        170192957705     
0010001300200U 090000000000000000000000000000000000000000000000000000000000000000000000000000000000000000000000000000000000000000000000002003201700000000            000000000000000                              000                           
0010001300201T 280180230000001544772 29577050000604390   788888888888889918012017000000000007500001000000888888888888899          0900000000000000000000000000000000000000000000000000000   000000000000000000000005002        170192957705     
0010001300202U 280000000000000000000000000000000000000000000000000000000000000000000000000000000000000000000000000000000000000000000000002003201700000000            000000000000000                              000                           
0010001300203T 280180230000001544772 29577050000605535   788888888888889918012017000000000007500001000000888888888888899          0900000000000000000000000000000000000000000000000000000   000000000000000000000005002        170192957705     
0010001300204U 280000000000000000000000000000000000000000000000000000000000000000000000000000000000000000000000000000000000000000000000002003201700000000            000000000000000                              000                           
0010001300205T 280180230000001544772 29577050000605866   788888888888889918012017000000000007500001000000888888888888899          0900000000000000000000000000000000000000000000000000000   000000000000000000000005002        170192957705     
0010001300206U 280000000000000000000000000000000000000000000000000000000000000000000000000000000000000000000000000000000000000000000000002003201700000000            000000000000000                              000                           
0010001300207T 280180230000001544772 29577050000611048   788888888888889918012017000000000007500001000000888888888888899          0900000000000000000000000000000000000000000000000000000   000000000000000000000005002        170192957705     
0010001300208U 280000000000000000000000000000000000000000000000000000000000000000000000000000000000000000000000000000000000000000000000002003201700000000            000000000000000                              000                           
0010001300209T 280180230000001544772 29577050000612621   788888888888889917022017000000000007500001000000888888888888899          0900000000000000000000000000000000000000000000000000000   000000000000000000000005002        170192957705     
0010001300210U 280000000000000000000000000000000000000000000000000000000000000000000000000000000000000000000000000000000000000000000000002003201700000000            000000000000000                              000                           
0010001300211T 280180230000001544772 29577050000615689   788888888888889918012017000000000007500001000000888888888888899          0900000000000000000000000000000000000000000000000000000   000000000000000000000005002        170192957705     
0010001300212U 280000000000000000000000000000000000000000000000000000000000000000000000000000000000000000000000000000000000000000000000002003201700000000            000000000000000                              000                           
0010001300213T 280180230000001544772 29577050000616486   788888888888889918012017000000000007500001000000888888888888899          0900000000000000000000000000000000000000000000000000000   000000000000000000000005002        170192957705     
0010001300214U 280000000000000000000000000000000000000000000000000000000000000000000000000000000000000000000000000000000000000000000000002003201700000000            000000000000000                              000                           
0010001300215T 280180230000001544772 29577050000618041   788888888888889918012017000000000007500001000000888888888888899          0900000000000000000000000000000000000000000000000000000   000000000000000000000005002        170192957705     
0010001300216U 280000000000000000000000000000000000000000000000000000000000000000000000000000000000000000000000000000000000000000000000002003201700000000            000000000000000                              000                           
0010001300217T 280180230000001544772 29577050000624331   788888888888889919012017000000000007500001000000888888888888899          0900000000000000000000000000000000000000000000000000000   000000000000000000000005002        170192957705     
0010001300218U 280000000000000000000000000000000000000000000000000000000000000000000000000000000000000000000000000000000000000000000000002003201700000000            000000000000000                              000                           
0010001300219T 280180230000001544772 29577050000625920   788888888888889918012017000000000007500001000000888888888888899          0900000000000000000000000000000000000000000000000000000   000000000000000000000005002        170192957705     
0010001300220U 280000000000000000000000000000000000000000000000000000000000000000000000000000000000000000000000000000000000000000000000002003201700000000            000000000000000                              000                           
0010001300221T 280180230000001544772 29577050000630869   788888888888889918012017000000000007500001000000888888888888899          0900000000000000000000000000000000000000000000000000000   000000000000000000000005002        170192957705     
0010001300222U 280000000000000000000000000000000000000000000000000000000000000000000000000000000000000000000000000000000000000000000000002003201700000000            000000000000000                              000                           
0010001300223T 280180230000001544772 29577050000637761   788888888888889918012017000000000007500001000000888888888888899          0900000000000000000000000000000000000000000000000000000   000000000000000000000005002        170192957705     
0010001300224U 280000000000000000000000000000000000000000000000000000000000000000000000000000000000000000000000000000000000000000000000002003201700000000            000000000000000                              000                           
0010001300225T 280180230000001544772 29577050000643844   788888888888889918012017000000000007500001000000888888888888899          0900000000000000000000000000000000000000000000000000000   000000000000000000000005002        170192957705     
0010001300226U 280000000000000000000000000000000000000000000000000000000000000000000000000000000000000000000000000000000000000000000000002003201700000000            000000000000000                              000                           
0010001300227T 280180230000001544772 29577050000645339   788888888888889918012017000000000007500001000000888888888888899          0900000000000000000000000000000000000000000000000000000   000000000000000000000005002        170192957705     
0010001300228U 280000000000000000000000000000000000000000000000000000000000000000000000000000000000000000000000000000000000000000000000002003201700000000            000000000000000                              000                           
0010001300229T 280180230000001544772 29577050000656041   788888888888889918012017000000000007500001000000888888888888899          0900000000000000000000000000000000000000000000000000000   000000000000000000000005002        170192957705     
0010001300230U 280000000000000000000000000000000000000000000000000000000000000000000000000000000000000000000000000000000000000000000000002003201700000000            000000000000000                              000                           
0010001300231T 280180230000001544772 29577050005252419   788888888888889918012017000000000007500001000000888888888888899          0900000000000000000000000000000000000000000000000000000   000000000000000000000005002        170192957705     
0010001300232U 280000000000000000000000000000000000000000000000000000000000000000000000000000000000000000000000000000000000000000000000002003201700000000            000000000000000                              000                           
0010001300233T 280180230000001544772 29577050006304004   7               17012017000000000007500001000000                         0900000000000000000000000000000000000000000000000000000   000000000000000000000005002        170192957705     
0010001300234U 280000000000000000000000000000000000000000000000000000000000000000000000000000000000000000000000000000000000000000000000002003201700000000            000000000000000                              000                           
0010001300235T 280180230000001544772 29577050006307554   7               17012017000000000007500001000000                         0900000000000000000000000000000000000000000000000000000   000000000000000000000005002        170192957705     
0010001300236U 280000000000000000000000000000000000000000000000000000000000000000000000000000000000000000000000000000000000000000000000002003201700000000            000000000000000                              000                           
0010001300237T 280180230000001544772 29577050006346385   7               17012017000000000007500001000000                         0900000000000000000000000000000000000000000000000000000   000000000000000000000005002        170192957705     
0010001300238U 280000000000000000000000000000000000000000000000000000000000000000000000000000000000000000000000000000000000000000000000002003201700000000            000000000000000                              000                           
0010001300239T 280180230000001544772 29577050006357952   788888888888889919012017000000000007500001000000888888888888899          0900000000000000000000000000000000000000000000000000000   000000000000000000000005002        170192957705     
0010001300240U 280000000000000000000000000000000000000000000000000000000000000000000000000000000000000000000000000000000000000000000000002003201700000000            000000000000000                              000                           
0010001300241T 280180230000001544772 29577050007901095   788888888888889918012017000000000007500001000000888888888888899          0900000000000000000000000000000000000000000000000000000   000000000000000000000005002        170192957705     
0010001300242U 280000000000000000000000000000000000000000000000000000000000000000000000000000000000000000000000000000000000000000000000002003201700000000            000000000000000                              000                           
0010001300243T 280180230000001544772 29577050008409665   788888888888889918012017000000000007500001000000888888888888899          0900000000000000000000000000000000000000000000000000000   000000000000000000000005002        170192957705     
0010001300244U 280000000000000000000000000000000000000000000000000000000000000000000000000000000000000000000000000000000000000000000000002003201700000000            000000000000000                              000                           
0010001300245T 280180230000001544772 29577050009600587   788888888888889918012017000000000007500001000000888888888888899          0900000000000000000000000000000000000000000000000000000   000000000000000000000005002        170192957705     
0010001300246U 280000000000000000000000000000000000000000000000000000000000000000000000000000000000000000000000000000000000000000000000002003201700000000            000000000000000                              000                           
0010001300247T 280180230000001544772 29577050009614240   788888888888889918012017000000000007500001000000888888888888899          0900000000000000000000000000000000000000000000000000000   000000000000000000000005002        170192957705     
0010001300248U 280000000000000000000000000000000000000000000000000000000000000000000000000000000000000000000000000000000000000000000000002003201700000000            000000000000000                              000                           
0010001300249T 280180230000001544772 29577050009638810   788888888888889918012017000000000007500001000000888888888888899          0900000000000000000000000000000000000000000000000000000   000000000000000000000005002        170192957705     
0010001300250U 280000000000000000000000000000000000000000000000000000000000000000000000000000000000000000000000000000000000000000000000002003201700000000            000000000000000                              000                           
0010001300251T 280180230000001544772 29577050009641642   788888888888889918012017000000000007500001000000888888888888899          0900000000000000000000000000000000000000000000000000000   000000000000000000000005002        170192957705     
0010001300252U 280000000000000000000000000000000000000000000000000000000000000000000000000000000000000000000000000000000000000000000000002003201700000000            000000000000000                              000                           
0010001300253T 280180230000001544772 29577050009829728   788888888888889918012017000000000007500001000000888888888888899          0900000000000000000000000000000000000000000000000000000   000000000000000000000005002        170192957705     
0010001300254U 280000000000000000000000000000000000000000000000000000000000000000000000000000000000000000000000000000000000000000000000002003201700000000            000000000000000                              000                           
0010001300255T 280180230000001544772 29577050009920084   788888888888889918012017000000000007500001000000888888888888899          0900000000000000000000000000000000000000000000000000000   000000000000000000000005002        170192957705     
0010001300256U 280000000000000000000000000000000000000000000000000000000000000000000000000000000000000000000000000000000000000000000000002003201700000000            000000000000000                              000                           
0010001300257T 280180230000001544772 29577050010036309   788888888888889918012017000000000007500001000000888888888888899          0900000000000000000000000000000000000000000000000000000   000000000000000000000005002        170192957705     
0010001300258U 280000000000000000000000000000000000000000000000000000000000000000000000000000000000000000000000000000000000000000000000002003201700000000            000000000000000                              000                           
0010001300259T 280180230000001544772 29577050010855815   788888888888889918012017000000000007500001000000888888888888899          0900000000000000000000000000000000000000000000000000000   000000000000000000000005002        170192957705     
0010001300260U 280000000000000000000000000000000000000000000000000000000000000000000000000000000000000000000000000000000000000000000000002003201700000000            000000000000000                              000                           
0010001300261T 280180230000001544772 29577050011149905   788888888888889918012017000000000007500001000000888888888888899          0900000000000000000000000000000000000000000000000000000   000000000000000000000005002        170192957705     
0010001300262U 280000000000000000000000000000000000000000000000000000000000000000000000000000000000000000000000000000000000000000000000002003201700000000            000000000000000                              000                           
0010001300263T 280180230000001544772 29577050011339971   788888888888889918012017000000000007500001000000888888888888899          0900000000000000000000000000000000000000000000000000000   000000000000000000000005002        170192957705     
0010001300264U 280000000000000000000000000000000000000000000000000000000000000000000000000000000000000000000000000000000000000000000000002003201700000000            000000000000000                              000                           
0010001300265T 280180230000001544772 29577050011501042   788888888888889918012017000000000007500001000000888888888888899          0900000000000000000000000000000000000000000000000000000   000000000000000000000005002        170192957705     
0010001300266U 280000000000000000000000000000000000000000000000000000000000000000000000000000000000000000000000000000000000000000000000002003201700000000            000000000000000                              000                           
0010001300267T 280180230000001544772 29577050011709152   7               16022017000000000007500001000000                         0900000000000000000000000000000000000000000000000000000   000000000000000000000005002        170192957705     
0010001300268U 280000000000000000000000000000000000000000000000000000000000000000000000000000000000000000000000000000000000000000000000002003201700000000            000000000000000                              000                           
0010001300269T 280180230000001544772 29577050011711483   788888888888889918012017000000000007500001000000888888888888899          0900000000000000000000000000000000000000000000000000000   000000000000000000000005002        170192957705     
0010001300270U 280000000000000000000000000000000000000000000000000000000000000000000000000000000000000000000000000000000000000000000000002003201700000000            000000000000000                              000                           
0010001300271T 280180230000001544772 29577050012952921   788888888888889918012017000000000007500001000000888888888888899          0900000000000000000000000000000000000000000000000000000   000000000000000000000005002        170192957705     
0010001300272U 280000000000000000000000000000000000000000000000000000000000000000000000000000000000000000000000000000000000000000000000002003201700000000            000000000000000                              000                           
0010001300273T 280180230000001544772 29577050013116288   788888888888889918012017000000000007500001000000888888888888899          0900000000000000000000000000000000000000000000000000000   000000000000000000000005002        170192957705     
0010001300274U 280000000000000000000000000000000000000000000000000000000000000000000000000000000000000000000000000000000000000000000000002003201700000000            000000000000000                              000                           
0010001300275T 280180230000001544772 29577050013551374   788888888888889918012017000000000007500001000000888888888888899          0900000000000000000000000000000000000000000000000000000   000000000000000000000005002        170192957705     
0010001300276U 280000000000000000000000000000000000000000000000000000000000000000000000000000000000000000000000000000000000000000000000002003201700000000            000000000000000                              000                           
0010001300277T 280180230000001544772 29577050013643405   788888888888889918012017000000000007500001000000888888888888899          0900000000000000000000000000000000000000000000000000000   000000000000000000000005002        170192957705     
0010001300278U 280000000000000000000000000000000000000000000000000000000000000000000000000000000000000000000000000000000000000000000000002003201700000000            000000000000000                              000                           
0010001300279T 280180230000001544772 29577050013805488   788888888888889918012017000000000007500001000000888888888888899          0900000000000000000000000000000000000000000000000000000   000000000000000000000005002        170192957705     
0010001300280U 280000000000000000000000000000000000000000000000000000000000000000000000000000000000000000000000000000000000000000000000002003201700000000            000000000000000                              000                           
0010001300281T 280180230000001544772 29577050014018957   788888888888889918012017000000000007500001000000888888888888899          0900000000000000000000000000000000000000000000000000000   000000000000000000000005002        170192957705     
0010001300282U 280000000000000000000000000000000000000000000000000000000000000000000000000000000000000000000000000000000000000000000000002003201700000000            000000000000000                              000                           
0010001300283T 280180230000001544772 29577050014118868   788888888888889918012017000000000007500001000000888888888888899          0900000000000000000000000000000000000000000000000000000   000000000000000000000005002        170192957705     
0010001300284U 280000000000000000000000000000000000000000000000000000000000000000000000000000000000000000000000000000000000000000000000002003201700000000            000000000000000                              000                           
0010001300285T 280180230000001544772 29577050014209622   788888888888889918012017000000000007500001000000888888888888899          0900000000000000000000000000000000000000000000000000000   000000000000000000000005002        170192957705     
0010001300286U 280000000000000000000000000000000000000000000000000000000000000000000000000000000000000000000000000000000000000000000000002003201700000000            000000000000000                              000                           
0010001300287T 280180230000001544772 29577050014401274   7               18012017000000000007500001000000                         0900000000000000000000000000000000000000000000000000000   000000000000000000000005002        170192957705     
0010001300288U 280000000000000000000000000000000000000000000000000000000000000000000000000000000000000000000000000000000000000000000000002003201700000000            000000000000000                              000                           
0010001300289T 280180230000001544772 29577050014450272   7               17012017000000000007500001000000                         0900000000000000000000000000000000000000000000000000000   000000000000000000000005002        170192957705     
0010001300290U 280000000000000000000000000000000000000000000000000000000000000000000000000000000000000000000000000000000000000000000000002003201700000000            000000000000000                              000                           
0010001300291T 280180230000001544772 29577050014529921   788888888888889918012017000000000007500001000000888888888888899          0900000000000000000000000000000000000000000000000000000   000000000000000000000005002        170192957705     
0010001300292U 280000000000000000000000000000000000000000000000000000000000000000000000000000000000000000000000000000000000000000000000002003201700000000            000000000000000                              000                           
0010001300293T 280180230000001544772 29577050014858648   788888888888889918012017000000000007500001000000888888888888899          0900000000000000000000000000000000000000000000000000000   000000000000000000000005002        170192957705     
0010001300294U 280000000000000000000000000000000000000000000000000000000000000000000000000000000000000000000000000000000000000000000000002003201700000000            000000000000000                              000                           
0010001300295T 280180230000001544772 29577050014920598   788888888888889918012017000000000007500001000000888888888888899          0900000000000000000000000000000000000000000000000000000   000000000000000000000005002        170192957705     
0010001300296U 280000000000000000000000000000000000000000000000000000000000000000000000000000000000000000000000000000000000000000000000002003201700000000            000000000000000                              000                           
0010001300297T 280180230000001544772 29577050015053658   788888888888889918012017000000000007500001000000888888888888899          0900000000000000000000000000000000000000000000000000000   000000000000000000000005002        170192957705     
0010001300298U 280000000000000000000000000000000000000000000000000000000000000000000000000000000000000000000000000000000000000000000000002003201700000000            000000000000000                              000                           
0010001300299T 280180230000001544772 29577050015117540   788888888888889918012017000000000007500001000000888888888888899          0900000000000000000000000000000000000000000000000000000   000000000000000000000005002        170192957705     
0010001300300U 280000000000000000000000000000000000000000000000000000000000000000000000000000000000000000000000000000000000000000000000002003201700000000            000000000000000                              000                           
0010001300301T 280180230000001544772 29577050015617438   788888888888889918012017000000000007500001000000888888888888899          0900000000000000000000000000000000000000000000000000000   000000000000000000000005002        170192957705     
0010001300302U 280000000000000000000000000000000000000000000000000000000000000000000000000000000000000000000000000000000000000000000000002003201700000000            000000000000000                              000                           
0010001300303T 280180230000001544772 29577050015851022   788888888888889918012017000000000007500001000000888888888888899          0900000000000000000000000000000000000000000000000000000   000000000000000000000005002        170192957705     
0010001300304U 280000000000000000000000000000000000000000000000000000000000000000000000000000000000000000000000000000000000000000000000002003201700000000            000000000000000                              000                           
0010001300305T 280180230000001544772 29577050016223951   788888888888889918012017000000000007500001000000888888888888899          0900000000000000000000000000000000000000000000000000000   000000000000000000000005002        170192957705     
0010001300306U 280000000000000000000000000000000000000000000000000000000000000000000000000000000000000000000000000000000000000000000000002003201700000000            000000000000000                              000                           
0010001300307T 280180230000001544772 29577050017115646   788888888888889918012017000000000007500001000000888888888888899          0900000000000000000000000000000000000000000000000000000   000000000000000000000005002        170192957705     
0010001300308U 280000000000000000000000000000000000000000000000000000000000000000000000000000000000000000000000000000000000000000000000002003201700000000            000000000000000                              000                           
0010001300309T 280180230000001544772 29577050017334724   788888888888889918012017000000000007500001000000888888888888899          0900000000000000000000000000000000000000000000000000000   000000000000000000000005002        170192957705     
0010001300310U 280000000000000000000000000000000000000000000000000000000000000000000000000000000000000000000000000000000000000000000000002003201700000000            000000000000000                              000                           
0010001300311T 280180230000001544772 29577050017521440   788888888888889918012017000000000007500001000000888888888888899          0900000000000000000000000000000000000000000000000000000   000000000000000000000005002        170192957705     
0010001300312U 280000000000000000000000000000000000000000000000000000000000000000000000000000000000000000000000000000000000000000000000002003201700000000            000000000000000                              000                           
0010001300313T 280180230000001544772 29577050017716640   788888888888889918012017000000000007500001000000888888888888899          0900000000000000000000000000000000000000000000000000000   000000000000000000000005002        170192957705     
0010001300314U 280000000000000000000000000000000000000000000000000000000000000000000000000000000000000000000000000000000000000000000000002003201700000000            000000000000000                              000                           
0010001300315T 280180230000001544772 29577050017910190   788888888888889918012017000000000007500001000000888888888888899          0900000000000000000000000000000000000000000000000000000   000000000000000000000005002        170192957705     
0010001300316U 280000000000000000000000000000000000000000000000000000000000000000000000000000000000000000000000000000000000000000000000002003201700000000            000000000000000                              000                           
0010001300317T 280180230000001544772 29577050018046281   788888888888889918012017000000000007500001000000888888888888899          0900000000000000000000000000000000000000000000000000000   000000000000000000000005002        170192957705     
0010001300318U 280000000000000000000000000000000000000000000000000000000000000000000000000000000000000000000000000000000000000000000000002003201700000000            000000000000000                              000                           
0010001300319T 280180230000001544772 29577050018111959   788888888888889918012017000000000007500001000000888888888888899          0900000000000000000000000000000000000000000000000000000   000000000000000000000005002        170192957705     
0010001300320U 280000000000000000000000000000000000000000000000000000000000000000000000000000000000000000000000000000000000000000000000002003201700000000            000000000000000                              000                           
0010001300321T 280180230000001544772 29577050018130301   788888888888889918012017000000000007500001000000888888888888899          0900000000000000000000000000000000000000000000000000000   000000000000000000000005002        170192957705     
0010001300322U 280000000000000000000000000000000000000000000000000000000000000000000000000000000000000000000000000000000000000000000000002003201700000000            000000000000000                              000                           
0010001300323T 280180230000001544772 29577050018404126   788888888888889918012017000000000007500001000000888888888888899          0900000000000000000000000000000000000000000000000000000   000000000000000000000005002        170192957705     
0010001300324U 280000000000000000000000000000000000000000000000000000000000000000000000000000000000000000000000000000000000000000000000002003201700000000            000000000000000                              000                           
0010001300325T 280180230000001544772 29577050018748848   788888888888889918012017000000000007500001000000888888888888899          0900000000000000000000000000000000000000000000000000000   000000000000000000000005002        170192957705     
0010001300326U 280000000000000000000000000000000000000000000000000000000000000000000000000000000000000000000000000000000000000000000000002003201700000000            000000000000000                              000                           
0010001300327T 280180230000001544772 29577050020141247   788888888888889919012017000000000007500001000000888888888888899          0900000000000000000000000000000000000000000000000000000   000000000000000000000005002        170192957705     
0010001300328U 280000000000000000000000000000000000000000000000000000000000000000000000000000000000000000000000000000000000000000000000002003201700000000            000000000000000                              000                           
0010001300329T 280180230000001544772 29577050022250462   7               18012017000000000007500001000000                         0900000000000000000000000000000000000000000000000000000   000000000000000000000005002        170192957705     
0010001300330U 280000000000000000000000000000000000000000000000000000000000000000000000000000000000000000000000000000000000000000000000002003201700000000            000000000000000                              000                           
0010001300331T 280180230000001544772 29577050024054889   7               17022017000000000007500001000000                         0900000000000000000000000000000000000000000000000000000   000000000000000000000005002        170192957705     
0010001300332U 280000000000000000000000000000000000000000000000000000000000000000000000000000000000000000000000000000000000000000000000002003201700000000            000000000000000                              000                           
0010001300333T 280180230000001544772 29577050024642425   788888888888889919012017000000000007500001000000888888888888899          0900000000000000000000000000000000000000000000000000000   000000000000000000000005002        170192957705     
0010001300334U 280000000000000000000000000000000000000000000000000000000000000000000000000000000000000000000000000000000000000000000000002003201700000000            000000000000000                              000                           
0010001300335T 280180230000001544772 29577050025640936   788888888888889919012017000000000007500001000000888888888888899          0900000000000000000000000000000000000000000000000000000   000000000000000000000005002        170192957705     
0010001300336U 280000000000000000000000000000000000000000000000000000000000000000000000000000000000000000000000000000000000000000000000002003201700000000            000000000000000                              000                           
0010001300337T 280180230000001544772 29577050027645387   788888888888889918012017000000000007500001000000888888888888899          0900000000000000000000000000000000000000000000000000000   000000000000000000000005002        170192957705     
0010001300338U 280000000000000000000000000000000000000000000000000000000000000000000000000000000000000000000000000000000000000000000000002003201700000000            000000000000000                              000                           
0010001300339T 280180230000001544772 29577050028017554   788888888888889919012017000000000007500001000000888888888888899          0900000000000000000000000000000000000000000000000000000   000000000000000000000005002        170192957705     
0010001300340U 280000000000000000000000000000000000000000000000000000000000000000000000000000000000000000000000000000000000000000000000002003201700000000            000000000000000                              000                           
0010001300341T 280180230000001544772 29577050028053897   788888888888889919012017000000000007500001000000888888888888899          0900000000000000000000000000000000000000000000000000000   000000000000000000000005002        170192957705     
0010001300342U 280000000000000000000000000000000000000000000000000000000000000000000000000000000000000000000000000000000000000000000000002003201700000000            000000000000000                              000                           
0010001300343T 280180230000001544772 29577050028101010   788888888888889919012017000000000007500001000000888888888888899          0900000000000000000000000000000000000000000000000000000   000000000000000000000005002        170192957705     
0010001300344U 280000000000000000000000000000000000000000000000000000000000000000000000000000000000000000000000000000000000000000000000002003201700000000            000000000000000                              000                           
0010001300345T 280180230000001544772 29577050028234717   788888888888889919012017000000000007500001000000888888888888899          0900000000000000000000000000000000000000000000000000000   000000000000000000000005002        170192957705     
0010001300346U 280000000000000000000000000000000000000000000000000000000000000000000000000000000000000000000000000000000000000000000000002003201700000000            000000000000000                              000                           
0010001300347T 280180230000001544772 29577050028250190   788888888888889919012017000000000007500001000000888888888888899          0900000000000000000000000000000000000000000000000000000   000000000000000000000005002        170192957705     
0010001300348U 280000000000000000000000000000000000000000000000000000000000000000000000000000000000000000000000000000000000000000000000002003201700000000            000000000000000                              000                           
0010001300349T 280180230000001544772 29577050028312341   788888888888889919012017000000000007500001000000888888888888899          0900000000000000000000000000000000000000000000000000000   000000000000000000000005002        170192957705     
0010001300350U 280000000000000000000000000000000000000000000000000000000000000000000000000000000000000000000000000000000000000000000000002003201700000000            000000000000000                              000                           
0010001300351T 280180230000001544772 29577050028353944   788888888888889919012017000000000007500001000000888888888888899          0900000000000000000000000000000000000000000000000000000   000000000000000000000005002        170192957705     
0010001300352U 280000000000000000000000000000000000000000000000000000000000000000000000000000000000000000000000000000000000000000000000002003201700000000            000000000000000                              000                           
0010001300353T 280180230000001544772 29577050028508098   788888888888889919012017000000000007500001000000888888888888899          0900000000000000000000000000000000000000000000000000000   000000000000000000000005002        170192957705     
0010001300354U 280000000000000000000000000000000000000000000000000000000000000000000000000000000000000000000000000000000000000000000000002003201700000000            000000000000000                              000                           
0010001300355T 280180230000001544772 29577050028612342   7               16022017000000000007500001000000                         0900000000000000000000000000000000000000000000000000000   000000000000000000000005002        170192957705     
0010001300356U 280000000000000000000000000000000000000000000000000000000000000000000000000000000000000000000000000000000000000000000000002003201700000000            000000000000000                              000                           
0010001300357T 280180230000001544772 29577050028647501   788888888888889919012017000000000007500001000000888888888888899          0900000000000000000000000000000000000000000000000000000   000000000000000000000005002        170192957705     
0010001300358U 280000000000000000000000000000000000000000000000000000000000000000000000000000000000000000000000000000000000000000000000002003201700000000            000000000000000                              000                           
0010001300359T 280180230000001544772 29577050028649793   788888888888889919012017000000000007500001000000888888888888899          0900000000000000000000000000000000000000000000000000000   000000000000000000000005002        170192957705     
0010001300360U 280000000000000000000000000000000000000000000000000000000000000000000000000000000000000000000000000000000000000000000000002003201700000000            000000000000000                              000                           
0010001300361T 280180230000001544772 29577050030015523   788888888888889919012017000000000007500001000000888888888888899          0900000000000000000000000000000000000000000000000000000   000000000000000000000005002        170192957705     
0010001300362U 280000000000000000000000000000000000000000000000000000000000000000000000000000000000000000000000000000000000000000000000002003201700000000            000000000000000                              000                           
0010001300363T 280180230000001544772 29577050030158446   788888888888889919012017000000000007500001000000888888888888899          0900000000000000000000000000000000000000000000000000000   000000000000000000000005002        170192957705     
0010001300364U 280000000000000000000000000000000000000000000000000000000000000000000000000000000000000000000000000000000000000000000000002003201700000000            000000000000000                              000                           
0010001300365T 280180230000001544772 29577050030529804   788888888888889919012017000000000007500001000000888888888888899          0900000000000000000000000000000000000000000000000000000   000000000000000000000005002        170192957705     
0010001300366U 280000000000000000000000000000000000000000000000000000000000000000000000000000000000000000000000000000000000000000000000002003201700000000            000000000000000                              000                           
0010001300367T 280180230000001544772 29577050030558508   788888888888889919012017000000000007500001000000888888888888899          0900000000000000000000000000000000000000000000000000000   000000000000000000000005002        170192957705     
0010001300368U 280000000000000000000000000000000000000000000000000000000000000000000000000000000000000000000000000000000000000000000000002003201700000000            000000000000000                              000                           
0010001300369T 280180230000001544772 29577050030906228   788888888888889919012017000000000007500001000000888888888888899          0900000000000000000000000000000000000000000000000000000   000000000000000000000005002        170192957705     
0010001300370U 280000000000000000000000000000000000000000000000000000000000000000000000000000000000000000000000000000000000000000000000002003201700000000            000000000000000                              000                           
0010001300371T 280180230000001544772 29577050031042676   788888888888889919012017000000000007500001000000888888888888899          0900000000000000000000000000000000000000000000000000000   000000000000000000000005002        170192957705     
0010001300372U 280000000000000000000000000000000000000000000000000000000000000000000000000000000000000000000000000000000000000000000000002003201700000000            000000000000000                              000                           
0010001300373T 280180230000001544772 29577050031120998   788888888888889919012017000000000007500001000000888888888888899          0900000000000000000000000000000000000000000000000000000   000000000000000000000005002        170192957705     
0010001300374U 280000000000000000000000000000000000000000000000000000000000000000000000000000000000000000000000000000000000000000000000002003201700000000            000000000000000                              000                           
0010001300375T 280180230000001544772 29577050031506608   788888888888889919012017000000000007500001000000888888888888899          0900000000000000000000000000000000000000000000000000000   000000000000000000000005002        170192957705     
0010001300376U 280000000000000000000000000000000000000000000000000000000000000000000000000000000000000000000000000000000000000000000000002003201700000000            000000000000000                              000                           
0010001300377T 280180230000001544772 29577050032929506   788888888888889919012017000000000007500001000000888888888888899          0900000000000000000000000000000000000000000000000000000   000000000000000000000005002        170192957705     
0010001300378U 280000000000000000000000000000000000000000000000000000000000000000000000000000000000000000000000000000000000000000000000002003201700000000            000000000000000                              000                           
0010001300379T 280180230000001544772 29577050032944643   788888888888889919012017000000000007500001000000888888888888899          0900000000000000000000000000000000000000000000000000000   000000000000000000000005002        170192957705     
0010001300380U 280000000000000000000000000000000000000000000000000000000000000000000000000000000000000000000000000000000000000000000000002003201700000000            000000000000000                              000                           
0010001300381T 280180230000001544772 29577050033634181   788888888888889919012017000000000007500001000000888888888888899          0900000000000000000000000000000000000000000000000000000   000000000000000000000005002        170192957705     
0010001300382U 280000000000000000000000000000000000000000000000000000000000000000000000000000000000000000000000000000000000000000000000002003201700000000            000000000000000                              000                           
0010001300383T 280180230000001544772 29577050034013330   788888888888889919012017000000000007500001000000888888888888899          0900000000000000000000000000000000000000000000000000000   000000000000000000000005002        170192957705     
0010001300384U 280000000000000000000000000000000000000000000000000000000000000000000000000000000000000000000000000000000000000000000000002003201700000000            000000000000000                              000                           
0010001300385T 280180230000001544772 29577050035402337   788888888888889919012017000000000007500001000000888888888888899          0900000000000000000000000000000000000000000000000000000   000000000000000000000005002        170192957705     
0010001300386U 280000000000000000000000000000000000000000000000000000000000000000000000000000000000000000000000000000000000000000000000002003201700000000            000000000000000                              000                           
0010001300387T 280180230000001544772 29577050036127495   788888888888889919012017000000000007500001000000888888888888899          0900000000000000000000000000000000000000000000000000000   000000000000000000000005002        170192957705     
0010001300388U 280000000000000000000000000000000000000000000000000000000000000000000000000000000000000000000000000000000000000000000000002003201700000000            000000000000000                              000                           
0010001300389T 280180230000001544772 29577050036704898   788888888888889919012017000000000007500001000000888888888888899          0900000000000000000000000000000000000000000000000000000   000000000000000000000005002        170192957705     
0010001300390U 280000000000000000000000000000000000000000000000000000000000000000000000000000000000000000000000000000000000000000000000002003201700000000            000000000000000                              000                           
0010001300391T 280180230000001544772 29577050037429947   788888888888889919012017000000000007500001000000888888888888899          0900000000000000000000000000000000000000000000000000000   000000000000000000000005002        170192957705     
0010001300392U 280000000000000000000000000000000000000000000000000000000000000000000000000000000000000000000000000000000000000000000000002003201700000000            000000000000000                              000                           
0010001300393T 280180230000001544772 29577050037914975   7               16022017000000000007500001000000                         0900000000000000000000000000000000000000000000000000000   000000000000000000000005002        170192957705     
0010001300394U 280000000000000000000000000000000000000000000000000000000000000000000000000000000000000000000000000000000000000000000000002003201700000000            000000000000000                              000                           
0010001300395T 280180230000001544772 29577050041951418   788888888888889918012017000000000010000001000000888888888888899          0900000000000000000000000000000000000000000000000000000   000000000000000000000005002        170192957705     
0010001300396U 280000000000000000000000000000000000000000000000000000000000000000000000000000000000000000000000000000000000000000000000002003201700000000            000000000000000                              000                           
0010001300397T 280180230000001544772 29577050044448518   7               16022017000000000007500001000000                         0900000000000000000000000000000000000000000000000000000   000000000000000000000005002        170192957705     
0010001300398U 280000000000000000000000000000000000000000000000000000000000000000000000000000000000000000000000000000000000000000000000002003201700000000            000000000000000                              000                           
0010001300399T 280180230000001544772 29577050047541694   788888888888889919012017000000000007500001000000888888888888899          0900000000000000000000000000000000000000000000000000000   000000000000000000000005002        170192957705     
0010001300400U 280000000000000000000000000000000000000000000000000000000000000000000000000000000000000000000000000000000000000000000000002003201700000000            000000000000000                              000                           
0010001300401T 280180230000001544772 29577050050701670   7               18012017000000000007500001000000                         0900000000000000000000000000000000000000000000000000000   000000000000000000000005002        170192957705     
0010001300402U 280000000000000000000000000000000000000000000000000000000000000000000000000000000000000000000000000000000000000000000000002003201700000000            000000000000000                              000                           
0010001300403T 280180230000001544772 29577050054424780   788888888888889918012017000000000007500001000000888888888888899          0900000000000000000000000000000000000000000000000000000   000000000000000000000005002        170192957705     
0010001300404U 280000000000000000000000000000000000000000000000000000000000000000000000000000000000000000000000000000000000000000000000002003201700000000            000000000000000                              000                           
0010001300405T 280180230000001544772 29577050062224734   7               18012017000000000007500001000000                         0900000000000000000000000000000000000000000000000000000   000000000000000000000005002        170192957705     
0010001300406U 280000000000000000000000000000000000000000000000000000000000000000000000000000000000000000000000000000000000000000000000002003201700000000            000000000000000                              000                           
0010001300407T 280180230000001544772 29577050063842640   7               16022017000000000007500001000000                         0900000000000000000000000000000000000000000000000000000   000000000000000000000005002        170192957705     
0010001300408U 280000000000000000000000000000000000000000000000000000000000000000000000000000000000000000000000000000000000000000000000002003201700000000            000000000000000                              000                           
0010001300409T 280180230000001544772 29577050069352196   7               17022017000000000007500001000000                         0900000000000000000000000000000000000000000000000000000   000000000000000000000005002        170192957705     
0010001300410U 280000000000000000000000000000000000000000000000000000000000000000000000000000000000000000000000000000000000000000000000002003201700000000            000000000000000                              000                           
0010001300411T 280180230000001544772 29577050070931389   788888888888889917012017000000000007500001000000888888888888899          0900000000000000000000000000000000000000000000000000000   000000000000000000000005002        170192957705     
0010001300412U 280000000000000000000000000000000000000000000000000000000000000000000000000000000000000000000000000000000000000000000000002003201700000000            000000000000000                              000                           
